Component: ARM Compiler 5.06 update 6 (build 750) Tool: armlink [4d35ed]

==============================================================================

Section Cross References

    cli.o(i.cli_init) refers to memmovea.o(.text) for __aeabi_memcpy4
    cli.o(i.cli_init) refers to nrf_cli.o(i.nrf_cli_init) for nrf_cli_init
    cli.o(i.cli_init) refers to app_error.o(i.app_error_handler_bare) for app_error_handler_bare
    cli.o(i.cli_init) refers to cli.o(.constdata) for .constdata
    cli.o(i.cli_missing_param_help) refers to nrf_cli.o(i.nrf_cli_fprintf) for nrf_cli_fprintf
    cli.o(i.cli_process) refers to nrf_cli.o(i.nrf_cli_process) for nrf_cli_process
    cli.o(i.cli_process) refers to cli.o(.constdata) for .constdata
    cli.o(i.cli_start) refers to nrf_cli.o(i.nrf_cli_start) for nrf_cli_start
    cli.o(i.cli_start) refers to app_error.o(i.app_error_handler_bare) for app_error_handler_bare
    cli.o(i.cli_start) refers to cli.o(.constdata) for .constdata
    cli.o(i.cli_unknown_param_help) refers to nrf_cli.o(i.nrf_cli_fprintf) for nrf_cli_fprintf
    cli.o(i.erase_cmd) refers to cli.o(i.nrf_cli_help_requested) for nrf_cli_help_requested
    cli.o(i.erase_cmd) refers to nrf_cli.o(i.nrf_cli_help_print) for nrf_cli_help_print
    cli.o(i.erase_cmd) refers to cli.o(i.cli_missing_param_help) for cli_missing_param_help
    cli.o(i.erase_cmd) refers to strtol.o(.text) for strtol
    cli.o(i.erase_cmd) refers to nrf_fstorage.o(i.nrf_fstorage_erase) for nrf_fstorage_erase
    cli.o(i.erase_cmd) refers to nrf_strerror.o(i.nrf_strerror_get) for nrf_strerror_get
    cli.o(i.erase_cmd) refers to nrf_cli.o(i.nrf_cli_fprintf) for nrf_cli_fprintf
==============================================================================

Removing Unused input sections from the image.

    Removing cli.o(.rev16_text), (4 bytes).
    Removing cli.o(.revsh_text), (4 bytes).
    Removing cli.o(.rrx_text), (6 bytes).
    Removing main.o(.rev16_text), (4 bytes).
    Removing main.o(.revsh_text), (4 bytes).
    Removing main.o(.rrx_text), (6 bytes).
    Removing boards.o(.rev16_text), (4 bytes).
    Removing boards.o(.revsh_text), (4 bytes).
    Removing boards.o(.rrx_text), (6 bytes).
    Removing boards.o(i.bsp_board_button_idx_to_pin), (12 bytes).
    Removing boards.o(i.bsp_board_button_state_get), (32 bytes).
    Removing boards.o(i.bsp_board_init), (84 bytes).
    Removing boards.o(i.bsp_board_led_idx_to_pin), (12 bytes).
    Removing boards.o(i.bsp_board_led_invert), (36 bytes).
    Removing boards.o(i.bsp_board_led_off), (16 bytes).
    Removing boards.o(i.bsp_board_led_on), (16 bytes).
    Removing boards.o(i.bsp_board_led_state_get), (32 bytes).
    Removing boards.o(i.bsp_board_leds_off), (18 bytes).
==============================================================================

Image Symbol Table

    Local Symbols

    Symbol Name                              Value     Ov Type        Size  Object(Section)

    ../clib/../cmprslib/zerorunl2.c          0x00000000   Number         0  __dczerorl2.o ABSOLUTE
    ../clib/microlib/ctype/ctype.c           0x00000000   Number         0  isprint_o.o ABSOLUTE
    ../clib/microlib/ctype/ctype.c           0x00000000   Number         0  isblank_o.o ABSOLUTE
    ../clib/microlib/ctype/ctype.c           0x00000000   Number         0  isdigit_o.o ABSOLUTE
    ../clib/microlib/ctype/ctype.c           0x00000000   Number         0  isgraph_o.o ABSOLUTE
    ../clib/microlib/ctype/ctype.c           0x00000000   Number         0  islower_o.o ABSOLUTE
    ../clib/microlib/ctype/ctype.c           0x00000000   Number         0  ispunct_o.o ABSOLUTE
    ../clib/microlib/ctype/ctype.c           0x00000000   Number         0  isspace_o.o ABSOLUTE
    ../clib/microlib/ctype/ctype.c           0x00000000   Number         0  isupper_o.o ABSOLUTE
    ../clib/microlib/ctype/ctype.c           0x00000000   Number         0  isxdigit_o.o ABSOLUTE
    ../clib/microlib/ctype/ctype.c           0x00000000   Number         0  ctype_o.o ABSOLUTE
    ../clib/microlib/ctype/ctype.c           0x00000000   Number         0  isalnum_o.o ABSOLUTE
    ../clib/microlib/ctype/ctype.c           0x00000000   Number         0  isalpha_o.o ABSOLUTE
    ../clib/microlib/ctype/ctype.c           0x00000000   Number         0  iscntrl_o.o ABSOLUTE
    ../clib/microlib/ctype/tolower.c         0x00000000   Number         0  tolower.o ABSOLUTE
    ../clib/microlib/errno.c                 0x00000000   Number         0  errno.o ABSOLUTE
    ../clib/microlib/init/entry.s            0x00000000   Number         0  entry11b.o ABSOLUTE
    ../clib/microlib/init/entry.s            0x00000000   Number         0  entry8a.o ABSOLUTE
    ../clib/microlib/init/entry.s            0x00000000   Number         0  entry10b.o ABSOLUTE
    ../clib/microlib/init/entry.s            0x00000000   Number         0  entry8b.o ABSOLUTE
    ../clib/microlib/init/entry.s            0x00000000   Number         0  entry9a.o ABSOLUTE
    ../clib/microlib/init/entry.s            0x00000000   Number         0  entry.o ABSOLUTE
    ../clib/microlib/init/entry.s            0x00000000   Number         0  entry9b.o ABSOLUTE
    ../clib/microlib/init/entry.s            0x00000000   Number         0  entry10a.o ABSOLUTE
    ../clib/microlib/init/entry.s            0x00000000   Number         0  entry11a.o ABSOLUTE
    ../clib/microlib/init/entry.s            0x00000000   Number         0  entry7b.o ABSOLUTE
    ../clib/microlib/init/entry.s            0x00000000   Number         0  entry2.o ABSOLUTE
    ../clib/microlib/init/entry.s            0x00000000   Number         0  entry5.o ABSOLUTE
    ../clib/microlib/init/entry.s            0x00000000   Number         0  entry7a.o ABSOLUTE
    ../clib/microlib/stdlib/qsort.c          0x00000000   Number         0  qsort.o ABSOLUTE
    ../clib/microlib/string/memcpy.c         0x00000000   Number         0  memcpyb.o ABSOLUTE
    ../clib/microlib/string/memcpy.c         0x00000000   Number         0  memmovea.o ABSOLUTE
    ../clib/microlib/string/memcpy.c         0x00000000   Number         0  memmoveb.o ABSOLUTE
    ../clib/microlib/string/memcpy.c         0x00000000   Number         0  memcpya.o ABSOLUTE
    ../clib/microlib/string/memset.c         0x00000000   Number         0  memseta.o ABSOLUTE
    ../clib/microlib/string/strchr.c         0x00000000   Number         0  strchr.o ABSOLUTE
    ../clib/microlib/string/strcmp.c         0x00000000   Number         0  strcmp.o ABSOLUTE
    ../clib/microlib/string/strcpy.c         0x00000000   Number         0  strcpy.o ABSOLUTE
    ../clib/microlib/string/strlen.c         0x00000000   Number         0  strlen.o ABSOLUTE
    ../clib/microlib/string/strncmp.c        0x00000000   Number         0  strncmp.o ABSOLUTE
    ../clib/scanf.c                          0x00000000   Number         0  _chval.o ABSOLUTE
    ../clib/scanf.c                          0x00000000   Number         0  _strtoul.o ABSOLUTE
    ../clib/scanf.c                          0x00000000   Number         0  strtol.o ABSOLUTE
    ..\..\..\..\..\..\components\boards\boards.c 0x00000000   Number         0  boards.o ABSOLUTE
    ..\..\..\..\..\..\components\libraries\atomic\nrf_atomic.c 0x00000000   Number         0  nrf_atomic.o ABSOLUTE
    ..\..\..\..\..\..\components\libraries\atomic_fifo\nrf_atfifo.c 0x00000000   Number         0  nrf_atfifo.o ABSOLUTE
    ..\..\..\..\..\..\components\libraries\balloc\nrf_balloc.c 0x00000000   Number         0  nrf_balloc.o ABSOLUTE
    ..\..\..\..\..\..\components\libraries\cli\nrf_cli.c 0x00000000   Number         0  nrf_cli.o ABSOLUTE
    ..\..\..\..\..\..\components\libraries\cli\uart\nrf_cli_uart.c 0x00000000   Number         0  nrf_cli_uart.o ABSOLUTE
    ..\..\..\..\..\..\components\libraries\experimental_section_vars\nrf_section_iter.c 0x00000000   Number         0  nrf_section_iter.o ABSOLUTE
    ..\..\..\..\..\..\components\libraries\fstorage\nrf_fstorage.c 0x00000000   Number         0  nrf_fstorage.o ABSOLUTE
    ..\..\..\..\..\..\components\libraries\fstorage\nrf_fstorage_sd.c 0x00000000   Number         0  nrf_fstorage_sd.o ABSOLUTE
    ..\..\..\..\..\..\components\libraries\log\src\nrf_log_backend_serial.c 0x00000000   Number         0  nrf_log_backend_serial.o ABSOLUTE
    ..\..\..\..\..\..\components\libraries\log\src\nrf_log_backend_uart.c 0x00000000   Number         0  nrf_log_backend_uart.o ABSOLUTE
    ..\..\..\..\..\..\components\libraries\log\src\nrf_log_default_backends.c 0x00000000   Number         0  nrf_log_default_backends.o ABSOLUTE
    ..\..\..\..\..\..\components\libraries\log\src\nrf_log_frontend.c 0x00000000   Number         0  nrf_log_frontend.o ABSOLUTE
    ..\..\..\..\..\..\components\libraries\log\src\nrf_log_str_formatter.c 0x00000000   Number         0  nrf_log_str_formatter.o ABSOLUTE
    ..\..\..\..\..\..\components\libraries\memobj\nrf_memobj.c 0x00000000   Number         0  nrf_memobj.o ABSOLUTE
    ..\..\..\..\..\..\components\libraries\pwr_mgmt\nrf_pwr_mgmt.c 0x00000000   Number         0  nrf_pwr_mgmt.o ABSOLUTE
    ..\..\..\..\..\..\components\libraries\queue\nrf_queue.c 0x00000000   Number         0  nrf_queue.o ABSOLUTE
    ..\..\..\..\..\..\components\libraries\ringbuf\nrf_ringbuf.c 0x00000000   Number         0  nrf_ringbuf.o ABSOLUTE
    ..\..\..\..\..\..\components\libraries\scheduler\app_scheduler.c 0x00000000   Number         0  app_scheduler.o ABSOLUTE
    ..\..\..\..\..\..\components\libraries\sortlist\nrf_sortlist.c 0x00000000   Number         0  nrf_sortlist.o ABSOLUTE
    ..\..\..\..\..\..\components\libraries\strerror\nrf_strerror.c 0x00000000   Number         0  nrf_strerror.o ABSOLUTE
    ..\..\..\..\..\..\components\libraries\timer\app_timer2.c 0x00000000   Number         0  app_timer2.o ABSOLUTE
    ..\..\..\..\..\..\components\libraries\timer\drv_rtc.c 0x00000000   Number         0  drv_rtc.o ABSOLUTE
    ..\..\..\..\..\..\components\libraries\util\app_error.c 0x00000000   Number         0  app_error.o ABSOLUTE
    ..\..\..\..\..\..\components\libraries\util\app_error_handler_keil.c 0x00000000   Number         0  app_error_handler_keil.o ABSOLUTE
    ..\..\..\..\..\..\components\libraries\util\app_error_weak.c 0x00000000   Number         0  app_error_weak.o ABSOLUTE
    ..\..\..\..\..\..\components\libraries\util\app_util_platform.c 0x00000000   Number         0  app_util_platform.o ABSOLUTE
    ..\..\..\..\..\..\components\libraries\util\nrf_assert.c 0x00000000   Number         0  nrf_assert.o ABSOLUTE
    ..\..\..\..\..\..\components\softdevice\common\nrf_sdh.c 0x00000000   Number         0  nrf_sdh.o ABSOLUTE
    ..\..\..\..\..\..\components\softdevice\common\nrf_sdh_ble.c 0x00000000   Number         0  nrf_sdh_ble.o ABSOLUTE
    ..\..\..\..\..\..\components\softdevice\common\nrf_sdh_soc.c 0x00000000   Number         0  nrf_sdh_soc.o ABSOLUTE
    ..\..\..\..\..\..\external\fnmatch\fnmatch.c 0x00000000   Number         0  fnmatch.o ABSOLUTE
    ..\..\..\..\..\..\external\fprintf\nrf_fprintf.c 0x00000000   Number         0  nrf_fprintf.o ABSOLUTE
    ..\..\..\..\..\..\external\fprintf\nrf_fprintf_format.c 0x00000000   Number         0  nrf_fprintf_format.o ABSOLUTE
    ..\..\..\..\..\..\integration\nrfx\legacy\nrf_drv_uart.c 0x00000000   Number         0  nrf_drv_uart.o ABSOLUTE
    ..\..\..\..\..\..\modules\nrfx\drivers\src\nrfx_uart.c 0x00000000   Number         0  nrfx_uart.o ABSOLUTE
    ..\..\..\..\..\..\modules\nrfx\drivers\src\nrfx_uarte.c 0x00000000   Number         0  nrfx_uarte.o ABSOLUTE
    ..\..\..\..\..\..\modules\nrfx\drivers\src\prs\nrfx_prs.c 0x00000000   Number         0  nrfx_prs.o ABSOLUTE
    ..\..\..\..\..\..\modules\nrfx\soc\nrfx_atomic.c 0x00000000   Number         0  nrfx_atomic.o ABSOLUTE
    ..\..\..\cli.c                           0x00000000   Number         0  cli.o ABSOLUTE
    ..\..\..\main.c                          0x00000000   Number         0  main.o ABSOLUTE
    ..\\..\\..\\..\\..\\..\\components\\boards\\boards.c 0x00000000   Number         0  boards.o ABSOLUTE
    ..\\..\\..\\..\\..\\..\\components\\libraries\\atomic\\nrf_atomic.c 0x00000000   Number         0  nrf_atomic.o ABSOLUTE
    ..\\..\\..\\..\\..\\..\\components\\libraries\\atomic_fifo\\nrf_atfifo.c 0x00000000   Number         0  nrf_atfifo.o ABSOLUTE
    ..\\..\\..\\..\\..\\..\\components\\libraries\\balloc\\nrf_balloc.c 0x00000000   Number         0  nrf_balloc.o ABSOLUTE
    ..\\..\\..\\..\\..\\..\\components\\libraries\\cli\\nrf_cli.c 0x00000000   Number         0  nrf_cli.o ABSOLUTE
    ..\\..\\..\\..\\..\\..\\components\\libraries\\cli\\uart\\nrf_cli_uart.c 0x00000000   Number         0  nrf_cli_uart.o ABSOLUTE
    ..\\..\\..\\..\\..\\..\\components\\libraries\\experimental_section_vars\\nrf_section_iter.c 0x00000000   Number         0  nrf_section_iter.o ABSOLUTE
    ..\\..\\..\\..\\..\\..\\components\\libraries\\fstorage\\nrf_fstorage.c 0x00000000   Number         0  nrf_fstorage.o ABSOLUTE
    ..\\..\\..\\..\\..\\..\\components\\libraries\\fstorage\\nrf_fstorage_sd.c 0x00000000   Number         0  nrf_fstorage_sd.o ABSOLUTE
    ..\\..\\..\\..\\..\\..\\components\\libraries\\log\\src\\nrf_log_backend_serial.c 0x00000000   Number         0  nrf_log_backend_serial.o ABSOLUTE
    ..\\..\\..\\..\\..\\..\\components\\libraries\\log\\src\\nrf_log_backend_uart.c 0x00000000   Number         0  nrf_log_backend_uart.o ABSOLUTE
    ..\\..\\..\\..\\..\\..\\components\\libraries\\log\\src\\nrf_log_default_backends.c 0x00000000   Number         0  nrf_log_default_backends.o ABSOLUTE
    ..\\..\\..\\..\\..\\..\\components\\libraries\\log\\src\\nrf_log_frontend.c 0x00000000   Number         0  nrf_log_frontend.o ABSOLUTE
    ..\\..\\..\\..\\..\\..\\components\\libraries\\log\\src\\nrf_log_str_formatter.c 0x00000000   Number         0  nrf_log_str_formatter.o ABSOLUTE
    ..\\..\\..\\..\\..\\..\\components\\libraries\\memobj\\nrf_memobj.c 0x00000000   Number         0  nrf_memobj.o ABSOLUTE
    ..\\..\\..\\..\\..\\..\\components\\libraries\\pwr_mgmt\\nrf_pwr_mgmt.c 0x00000000   Number         0  nrf_pwr_mgmt.o ABSOLUTE
    ..\\..\\..\\..\\..\\..\\components\\libraries\\queue\\nrf_queue.c 0x00000000   Number         0  nrf_queue.o ABSOLUTE
    ..\\..\\..\\..\\..\\..\\components\\libraries\\ringbuf\\nrf_ringbuf.c 0x00000000   Number         0  nrf_ringbuf.o ABSOLUTE
    ..\\..\\..\\..\\..\\..\\components\\libraries\\scheduler\\app_scheduler.c 0x00000000   Number         0  app_scheduler.o ABSOLUTE
    ..\\..\\..\\..\\..\\..\\components\\libraries\\sortlist\\nrf_sortlist.c 0x00000000   Number         0  nrf_sortlist.o ABSOLUTE
    ..\\..\\..\\..\\..\\..\\components\\libraries\\strerror\\nrf_strerror.c 0x00000000   Number         0  nrf_strerror.o ABSOLUTE
    ..\\..\\..\\..\\..\\..\\components\\libraries\\timer\\app_timer2.c 0x00000000   Number         0  app_timer2.o ABSOLUTE
    ..\\..\\..\\..\\..\\..\\components\\libraries\\timer\\drv_rtc.c 0x00000000   Number         0  drv_rtc.o ABSOLUTE
    ..\\..\\..\\..\\..\\..\\components\\libraries\\util\\app_error.c 0x00000000   Number         0  app_error.o ABSOLUTE
    ..\\..\\..\\..\\..\\..\\components\\libraries\\util\\app_error_handler_keil.c 0x00000000   Number         0  app_error_handler_keil.o ABSOLUTE
    ..\\..\\..\\..\\..\\..\\components\\libraries\\util\\app_error_weak.c 0x00000000   Number         0  app_error_weak.o ABSOLUTE
    ..\\..\\..\\..\\..\\..\\components\\libraries\\util\\app_util_platform.c 0x00000000   Number         0  app_util_platform.o ABSOLUTE
    ..\\..\\..\\..\\..\\..\\components\\libraries\\util\\nrf_assert.c 0x00000000   Number         0  nrf_assert.o ABSOLUTE
    ..\\..\\..\\..\\..\\..\\components\\softdevice\\common\\nrf_sdh.c 0x00000000   Number         0  nrf_sdh.o ABSOLUTE
    ..\\..\\..\\..\\..\\..\\components\\softdevice\\common\\nrf_sdh_ble.c 0x00000000   Number         0  nrf_sdh_ble.o ABSOLUTE
    ..\\..\\..\\..\\..\\..\\components\\softdevice\\common\\nrf_sdh_soc.c 0x00000000   Number         0  nrf_sdh_soc.o ABSOLUTE
    ..\\..\\..\\..\\..\\..\\external\\fprintf\\nrf_fprintf.c 0x00000000   Number         0  nrf_fprintf.o ABSOLUTE
    ..\\..\\..\\..\\..\\..\\external\\fprintf\\nrf_fprintf_format.c 0x00000000   Number         0  nrf_fprintf_format.o ABSOLUTE
    ..\\..\\..\\..\\..\\..\\integration\\nrfx\\legacy\\nrf_drv_uart.c 0x00000000   Number         0  nrf_drv_uart.o ABSOLUTE
    ..\\..\\..\\..\\..\\..\\modules\\nrfx\\drivers\\src\\nrfx_uart.c 0x00000000   Number         0  nrfx_uart.o ABSOLUTE
    ..\\..\\..\\..\\..\\..\\modules\\nrfx\\drivers\\src\\nrfx_uarte.c 0x00000000   Number         0  nrfx_uarte.o ABSOLUTE
    ..\\..\\..\\..\\..\\..\\modules\\nrfx\\drivers\\src\\prs\\nrfx_prs.c 0x00000000   Number         0  nrfx_prs.o ABSOLUTE
    ..\\..\\..\\..\\..\\..\\modules\\nrfx\\soc\\nrfx_atomic.c 0x00000000   Number         0  nrfx_atomic.o ABSOLUTE
    ..\\..\\..\\cli.c                        0x00000000   Number         0  cli.o ABSOLUTE
    ..\\..\\..\\main.c                       0x00000000   Number         0  main.o ABSOLUTE
    RTE\Device\nRF52832_xxAA\arm_startup_nrf52.s 0x00000000   Number         0  arm_startup_nrf52.o ABSOLUTE
    RTE\Device\nRF52832_xxAA\system_nrf52.c  0x00000000   Number         0  system_nrf52.o ABSOLUTE
    RTE\\Device\\nRF52832_xxAA\\system_nrf52.c 0x00000000   Number         0  system_nrf52.o ABSOLUTE
    dc.s                                     0x00000000   Number         0  dc.o ABSOLUTE
    handlers.s                               0x00000000   Number         0  handlers.o ABSOLUTE
    init.s                                   0x00000000   Number         0  init.o ABSOLUTE
    RESET                                    0x00026000   Section      512  arm_startup_nrf52.o(RESET)
    .ARM.Collect$$$$00000000                 0x00026200   Section        0  entry.o(.ARM.Collect$$$$00000000)
    .ARM.Collect$$$$00000001                 0x00026200   Section        4  entry2.o(.ARM.Collect$$$$00000001)
    .ARM.Collect$$$$00000004                 0x00026204   Section        4  entry5.o(.ARM.Collect$$$$00000004)
    .ARM.Collect$$$$00000008                 0x00026208   Section        0  entry7b.o(.ARM.Collect$$$$00000008)
    .ARM.Collect$$$$0000000A                 0x00026208   Section        0  entry8b.o(.ARM.Collect$$$$0000000A)
    .ARM.Collect$$$$0000000B                 0x00026208   Section        8  entry9a.o(.ARM.Collect$$$$0000000B)
    .ARM.Collect$$$$0000000D                 0x00026210   Section        0  entry10a.o(.ARM.Collect$$$$0000000D)
    .ARM.Collect$$$$0000000F                 0x00026210   Section        0  entry11a.o(.ARM.Collect$$$$0000000F)
    .ARM.Collect$$$$00002712                 0x00026210   Section        4  entry2.o(.ARM.Collect$$$$00002712)
    __lit__00000000                          0x00026210   Data           4  entry2.o(.ARM.Collect$$$$00002712)
    .emb_text                                0x00026214   Section      200  nrf_atfifo.o(.emb_text)
    $v0                                      0x00026214   Number         0  nrf_atfifo.o(.emb_text)
    .emb_text                                0x000262dc   Section      226  nrf_atomic.o(.emb_text)
    $v0                                      0x000262dc   Number         0  nrf_atomic.o(.emb_text)
    .text                                    0x000263c0   Section       36  arm_startup_nrf52.o(.text)
    $v0                                      0x000263c0   Number         0  arm_startup_nrf52.o(.text)
    .text                                    0x000263e4   Section        0  ctype_o.o(.text)
    .text                                    0x000263ec   Section        0  qsort.o(.text)
    .text                                    0x00026488   Section        0  memmovea.o(.text)
    .text                                    0x000264c8   Section        0  memseta.o(.text)
    .text                                    0x000264ec   Section        0  strlen.o(.text)
    .text                                    0x000264fa   Section        0  strcmp.o(.text)
    .text                                    0x00026516   Section        0  strcpy.o(.text)
    .text                                    0x00026528   Section        0  strncmp.o(.text)
    .text                                    0x00026546   Section        0  strtol.o(.text)
    .text                                    0x000265b6   Section        0  _strtoul.o(.text)
    .text                                    0x00026654   Section       36  init.o(.text)
    .text                                    0x00026678   Section        0  _chval.o(.text)
    .text                                    0x00026694   Section        0  __dczerorl2.o(.text)
    i.RTC1_IRQHandler                        0x000266ec   Section        0  drv_rtc.o(i.RTC1_IRQHandler)
    i.SWI2_EGU2_IRQHandler                   0x000266fc   Section        0  nrf_sdh.o(i.SWI2_EGU2_IRQHandler)
    i.SystemInit                             0x00026700   Section        0  system_nrf52.o(i.SystemInit)
    i.UARTE0_UART0_IRQHandler                0x000269d8   Section        0  nrfx_prs.o(i.UARTE0_UART0_IRQHandler)
    i.__aeabi_errno_addr                     0x000269e4   Section        0  errno.o(i.__aeabi_errno_addr)
    i.__scatterload_copy                     0x000269ec   Section       14  handlers.o(i.__scatterload_copy)
    i.__scatterload_null                     0x000269fa   Section        2  handlers.o(i.__scatterload_null)
    i.__scatterload_zeroinit                 0x000269fc   Section       14  handlers.o(i.__scatterload_zeroinit)
    i.__sd_nvic_app_accessible_irq           0x00026a0c   Section        0  nrf_sdh.o(i.__sd_nvic_app_accessible_irq)
    __sd_nvic_app_accessible_irq             0x00026a0d   Thumb Code    32  nrf_sdh.o(i.__sd_nvic_app_accessible_irq)
    i.addr_is_aligned32                      0x00026a30   Section        0  nrf_fstorage.o(i.addr_is_aligned32)
    addr_is_aligned32                        0x00026a31   Thumb Code    12  nrf_fstorage.o(i.addr_is_aligned32)
    i.addr_is_within_bounds                  0x00026a3c   Section        0  nrf_fstorage.o(i.addr_is_within_bounds)
    addr_is_within_bounds                    0x00026a3d   Thumb Code    24  nrf_fstorage.o(i.addr_is_within_bounds)
    i.app_error_fault_handler                0x00026a54   Section        0  app_error_weak.o(i.app_error_fault_handler)
    i.app_error_handler_bare                 0x00026ae8   Section        0  app_error.o(i.app_error_handler_bare)
    i.app_timer_cnt_get                      0x00026b00   Section        0  app_timer2.o(i.app_timer_cnt_get)
    i.app_timer_create                       0x00026b0c   Section        0  app_timer2.o(i.app_timer_create)
    i.app_timer_init                         0x00026b24   Section        0  app_timer2.o(i.app_timer_init)
    i.app_timer_start                        0x00026b80   Section        0  app_timer2.o(i.app_timer_start)
    i.app_timer_stop                         0x00026bb2   Section        0  app_timer2.o(i.app_timer_stop)
    i.app_util_critical_region_enter         0x00026bc0   Section        0  app_util_platform.o(i.app_util_critical_region_enter)
    i.app_util_critical_region_exit          0x00026c08   Section        0  app_util_platform.o(i.app_util_critical_region_exit)
    i.apply_config                           0x00026c3c   Section        0  nrfx_uart.o(i.apply_config)
    apply_config                             0x00026c3d   Thumb Code   136  nrfx_uart.o(i.apply_config)
    i.apply_config                           0x00026cc4   Section        0  nrfx_uarte.o(i.apply_config)
    apply_config                             0x00026cc5   Thumb Code   136  nrfx_uarte.o(i.apply_config)
    i.backend_name_get                       0x00026d4c   Section        0  nrf_log_frontend.o(i.backend_name_get)
    backend_name_get                         0x00026d4d   Thumb Code    58  nrf_log_frontend.o(i.backend_name_get)
    i.buf_prealloc                           0x00026d94   Section        0  nrf_log_frontend.o(i.buf_prealloc)
    buf_prealloc                             0x00026d95   Thumb Code   140  nrf_log_frontend.o(i.buf_prealloc)
    i.buffer_add                             0x00026e28   Section        0  nrf_fprintf_format.o(i.buffer_add)
    buffer_add                               0x00026e29   Thumb Code    46  nrf_fprintf_format.o(i.buffer_add)
    i.buffer_is_empty                        0x00026e58   Section        0  nrf_log_frontend.o(i.buffer_is_empty)
    i.char_backspace                         0x00026e70   Section        0  nrf_cli.o(i.char_backspace)
    char_backspace                           0x00026e71   Thumb Code   170  nrf_cli.o(i.char_backspace)
    i.char_delete                            0x00026f28   Section        0  nrf_cli.o(i.char_delete)
    char_delete                              0x00026f29   Thumb Code   138  nrf_cli.o(i.char_delete)
    i.char_insert                            0x00026fbc   Section        0  nrf_cli.o(i.char_insert)
    char_insert                              0x00026fbd   Thumb Code   312  nrf_cli.o(i.char_insert)
    i.cli_clear_eos                          0x000270fc   Section        0  nrf_cli.o(i.cli_clear_eos)
    cli_clear_eos                            0x000270fd   Thumb Code    10  nrf_cli.o(i.cli_clear_eos)
    i.cli_cursor_restore                     0x00027110   Section        0  nrf_cli.o(i.cli_cursor_restore)
    cli_cursor_restore                       0x00027111   Thumb Code    10  nrf_cli.o(i.cli_cursor_restore)
    i.cli_cursor_save                        0x00027124   Section        0  nrf_cli.o(i.cli_cursor_save)
    cli_cursor_save                          0x00027125   Thumb Code    10  nrf_cli.o(i.cli_cursor_save)
    i.cli_execute                            0x00027138   Section        0  nrf_cli.o(i.cli_execute)
    cli_execute                              0x00027139   Thumb Code   364  nrf_cli.o(i.cli_execute)
    i.cli_flag_echo_is_set                   0x00027308   Section        0  nrf_cli.o(i.cli_flag_echo_is_set)
    cli_flag_echo_is_set                     0x00027309   Thumb Code    12  nrf_cli.o(i.cli_flag_echo_is_set)
    i.cli_init                               0x00027314   Section        0  cli.o(i.cli_init)
    i.cli_log_entry_process                  0x00027354   Section        0  nrf_cli.o(i.cli_log_entry_process)
    cli_log_entry_process                    0x00027355   Thumb Code   314  nrf_cli.o(i.cli_log_entry_process)
    i.cli_missing_param_help                 0x000274c0   Section        0  cli.o(i.cli_missing_param_help)
    cli_missing_param_help                   0x000274c1   Thumb Code    16  cli.o(i.cli_missing_param_help)
    i.cli_process                            0x00027500   Section        0  cli.o(i.cli_process)
    i.cli_read                               0x0002750c   Section        0  nrf_cli.o(i.cli_read)
    cli_read                                 0x0002750d   Thumb Code    14  nrf_cli.o(i.cli_read)
    i.cli_start                              0x0002751c   Section        0  cli.o(i.cli_start)
    i.cli_state_collect                      0x00027538   Section        0  nrf_cli.o(i.cli_state_collect)
    cli_state_collect                        0x00027539   Thumb Code   618  nrf_cli.o(i.cli_state_collect)
    i.cli_state_set                          0x000277a4   Section        0  nrf_cli.o(i.cli_state_set)
    cli_state_set                            0x000277a5   Thumb Code    36  nrf_cli.o(i.cli_state_set)
    i.cli_strlen                             0x000277cc   Section        0  nrf_cli.o(i.cli_strlen)
    cli_strlen                               0x000277cd   Thumb Code    10  nrf_cli.o(i.cli_strlen)
    i.cli_tab_handle                         0x000277d8   Section        0  nrf_cli.o(i.cli_tab_handle)
    cli_tab_handle                           0x000277d9   Thumb Code   740  nrf_cli.o(i.cli_tab_handle)
    i.cli_transport_evt_handler              0x00027af0   Section        0  nrf_cli.o(i.cli_transport_evt_handler)
    cli_transport_evt_handler                0x00027af1   Thumb Code    20  nrf_cli.o(i.cli_transport_evt_handler)
    i.cli_uart_enable                        0x00027b04   Section        0  nrf_cli_uart.o(i.cli_uart_enable)
    cli_uart_enable                          0x00027b05   Thumb Code   104  nrf_cli_uart.o(i.cli_uart_enable)
    i.cli_uart_init                          0x00027b70   Section        0  nrf_cli_uart.o(i.cli_uart_init)
    cli_uart_init                            0x00027b71   Thumb Code    70  nrf_cli_uart.o(i.cli_uart_init)
    i.cli_uart_read                          0x00027bbc   Section        0  nrf_cli_uart.o(i.cli_uart_read)
    cli_uart_read                            0x00027bbd   Thumb Code    10  nrf_cli_uart.o(i.cli_uart_read)
    i.cli_uart_uninit                        0x00027bc6   Section        0  nrf_cli_uart.o(i.cli_uart_uninit)
    cli_uart_uninit                          0x00027bc7   Thumb Code    22  nrf_cli_uart.o(i.cli_uart_uninit)
    i.cli_uart_write                         0x00027bdc   Section        0  nrf_cli_uart.o(i.cli_uart_write)
    cli_uart_write                           0x00027bdd   Thumb Code    98  nrf_cli_uart.o(i.cli_uart_write)
    i.cli_unknown_param_help                 0x00027c44   Section        0  cli.o(i.cli_unknown_param_help)
    cli_unknown_param_help                   0x00027c45   Thumb Code    18  cli.o(i.cli_unknown_param_help)
    i.cli_write                              0x00027c8c   Section        0  nrf_cli.o(i.cli_write)
    cli_write                                0x00027c8d   Thumb Code    88  nrf_cli.o(i.cli_write)
    i.cmd_get                                0x00027ce4   Section        0  nrf_cli.o(i.cmd_get)
    cmd_get                                  0x00027ce5   Thumb Code   124  nrf_cli.o(i.cmd_get)
    i.cmd_trim                               0x00027d6c   Section        0  nrf_cli.o(i.cmd_trim)
    cmd_trim                                 0x00027d6d   Thumb Code   154  nrf_cli.o(i.cmd_trim)
    i.compare_func                           0x00027e06   Section        0  app_timer2.o(i.compare_func)
    compare_func                             0x00027e07   Thumb Code    24  app_timer2.o(i.compare_func)
    i.completion_insert                      0x00027e20   Section        0  nrf_cli.o(i.completion_insert)
    completion_insert                        0x00027e21   Thumb Code   142  nrf_cli.o(i.completion_insert)
    i.cursor_down_move                       0x00027eb4   Section        0  nrf_cli.o(i.cursor_down_move)
    cursor_down_move                         0x00027eb5   Thumb Code    16  nrf_cli.o(i.cursor_down_move)
    i.cursor_end_position_move               0x00027ecc   Section        0  nrf_cli.o(i.cursor_end_position_move)
    cursor_end_position_move                 0x00027ecd   Thumb Code    82  nrf_cli.o(i.cursor_end_position_move)
    i.cursor_home_position_move              0x00027f1e   Section        0  nrf_cli.o(i.cursor_home_position_move)
    cursor_home_position_move                0x00027f1f   Thumb Code    84  nrf_cli.o(i.cursor_home_position_move)
    i.cursor_in_empty_line                   0x00027f72   Section        0  nrf_cli.o(i.cursor_in_empty_line)
    cursor_in_empty_line                     0x00027f73   Thumb Code    38  nrf_cli.o(i.cursor_in_empty_line)
    i.cursor_left_move                       0x00027f98   Section        0  nrf_cli.o(i.cursor_left_move)
    cursor_left_move                         0x00027f99   Thumb Code    16  nrf_cli.o(i.cursor_left_move)
    i.cursor_next_line_move                  0x00027fb0   Section        0  nrf_cli.o(i.cursor_next_line_move)
    cursor_next_line_move                    0x00027fb1   Thumb Code     8  nrf_cli.o(i.cursor_next_line_move)
    i.cursor_position_get                    0x00027fbc   Section        0  nrf_cli.o(i.cursor_position_get)
    cursor_position_get                      0x00027fbd   Thumb Code   288  nrf_cli.o(i.cursor_position_get)
    i.cursor_position_synchronize            0x000280e0   Section        0  nrf_cli.o(i.cursor_position_synchronize)
    cursor_position_synchronize              0x000280e1   Thumb Code   106  nrf_cli.o(i.cursor_position_synchronize)
    i.cursor_right_move                      0x0002814c   Section        0  nrf_cli.o(i.cursor_right_move)
    cursor_right_move                        0x0002814d   Thumb Code    16  nrf_cli.o(i.cursor_right_move)
    i.cursor_up_move                         0x00028164   Section        0  nrf_cli.o(i.cursor_up_move)
    cursor_up_move                           0x00028165   Thumb Code    16  nrf_cli.o(i.cursor_up_move)
    i.dropped_sat16_get                      0x0002817c   Section        0  nrf_log_frontend.o(i.dropped_sat16_get)
    dropped_sat16_get                        0x0002817d   Thumb Code    16  nrf_log_frontend.o(i.dropped_sat16_get)
    i.drv_rtc_compare_disable                0x00028190   Section        0  drv_rtc.o(i.drv_rtc_compare_disable)
    i.drv_rtc_compare_pending                0x000281a4   Section        0  drv_rtc.o(i.drv_rtc_compare_pending)
    i.drv_rtc_compare_set                    0x000281b2   Section        0  drv_rtc.o(i.drv_rtc_compare_set)
    i.drv_rtc_counter_get                    0x00028202   Section        0  drv_rtc.o(i.drv_rtc_counter_get)
    i.drv_rtc_init                           0x0002820c   Section        0  drv_rtc.o(i.drv_rtc_init)
    i.drv_rtc_irq_trigger                    0x000282f8   Section        0  drv_rtc.o(i.drv_rtc_irq_trigger)
    i.drv_rtc_overflow_enable                0x00028316   Section        0  drv_rtc.o(i.drv_rtc_overflow_enable)
    i.drv_rtc_overflow_pending               0x0002831e   Section        0  drv_rtc.o(i.drv_rtc_overflow_pending)
    i.drv_rtc_start                          0x00028326   Section        0  drv_rtc.o(i.drv_rtc_start)
    i.drv_rtc_stop                           0x0002832e   Section        0  drv_rtc.o(i.drv_rtc_stop)
    i.drv_rtc_windowed_compare_set           0x00028336   Section        0  drv_rtc.o(i.drv_rtc_windowed_compare_set)
    i.erase                                  0x00028414   Section        0  nrf_fstorage_sd.o(i.erase)
    erase                                    0x00028415   Thumb Code    72  nrf_fstorage_sd.o(i.erase)
    i.erase_cmd                              0x00028460   Section        0  cli.o(i.erase_cmd)
    erase_cmd                                0x00028461   Thumb Code   104  cli.o(i.erase_cmd)
    i.event_send                             0x000284f0   Section        0  nrf_fstorage_sd.o(i.event_send)
    event_send                               0x000284f1   Thumb Code    84  nrf_fstorage_sd.o(i.event_send)
    i.evt_enable                             0x00028544   Section        0  drv_rtc.o(i.evt_enable)
    evt_enable                               0x00028545   Thumb Code    18  drv_rtc.o(i.evt_enable)
    i.evt_pending                            0x00028556   Section        0  drv_rtc.o(i.evt_pending)
    evt_pending                              0x00028557   Thumb Code    20  drv_rtc.o(i.evt_pending)
    i.flasharea_cmd                          0x0002856c   Section        0  cli.o(i.flasharea_cmd)
    flasharea_cmd                            0x0002856d   Thumb Code    58  cli.o(i.flasharea_cmd)
    i.flasharea_cmd_print                    0x000285b4   Section        0  cli.o(i.flasharea_cmd_print)
    flasharea_cmd_print                      0x000285b5   Thumb Code    44  cli.o(i.flasharea_cmd_print)
    i.flasharea_cmd_set                      0x000285f8   Section        0  cli.o(i.flasharea_cmd_set)
    flasharea_cmd_set                        0x000285f9   Thumb Code    86  cli.o(i.flasharea_cmd_set)
    i.format_offset_string_print             0x00028678   Section        0  nrf_cli.o(i.format_offset_string_print)
    format_offset_string_print               0x00028679   Thumb Code   242  nrf_cli.o(i.format_offset_string_print)
    i.fstorage_evt_handler                   0x0002876c   Section        0  main.o(i.fstorage_evt_handler)
    fstorage_evt_handler                     0x0002876d   Thumb Code    80  main.o(i.fstorage_evt_handler)
    i.fstorage_read                          0x00028838   Section        0  cli.o(i.fstorage_read)
    fstorage_read                            0x00028839   Thumb Code   120  cli.o(i.fstorage_read)
    i.full_line_cmd                          0x000288e4   Section        0  nrf_cli.o(i.full_line_cmd)
    full_line_cmd                            0x000288e5   Thumb Code    38  nrf_cli.o(i.full_line_cmd)
    i.get_now                                0x0002890c   Section        0  app_timer2.o(i.get_now)
    get_now                                  0x0002890d   Thumb Code    46  app_timer2.o(i.get_now)
    i.history_handle                         0x00028940   Section        0  nrf_cli.o(i.history_handle)
    history_handle                           0x00028941   Thumb Code   320  nrf_cli.o(i.history_handle)
    i.history_list_element_add               0x00028a84   Section        0  nrf_cli.o(i.history_list_element_add)
    history_list_element_add                 0x00028a85   Thumb Code   120  nrf_cli.o(i.history_list_element_add)
    i.history_list_element_oldest_remove     0x00028afc   Section        0  nrf_cli.o(i.history_list_element_oldest_remove)
    history_list_element_oldest_remove       0x00028afd   Thumb Code   104  nrf_cli.o(i.history_list_element_oldest_remove)
    i.history_save                           0x00028b64   Section        0  nrf_cli.o(i.history_save)
    history_save                             0x00028b65   Thumb Code   134  nrf_cli.o(i.history_save)
    i.init                                   0x00028bec   Section        0  nrf_fstorage_sd.o(i.init)
    init                                     0x00028bed   Thumb Code    42  nrf_fstorage_sd.o(i.init)
    i.int_print                              0x00028c20   Section        0  nrf_fprintf_format.o(i.int_print)
    int_print                                0x00028c21   Thumb Code   166  nrf_fprintf_format.o(i.int_print)
    i.interrupts_enable                      0x00028cc8   Section        0  nrfx_uarte.o(i.interrupts_enable)
    interrupts_enable                        0x00028cc9   Thumb Code   132  nrfx_uarte.o(i.interrupts_enable)
    i.invalid_packets_omit                   0x00028d50   Section        0  nrf_log_frontend.o(i.invalid_packets_omit)
    invalid_packets_omit                     0x00028d51   Thumb Code    52  nrf_log_frontend.o(i.invalid_packets_omit)
    i.is_busy                                0x00028d84   Section        0  nrf_fstorage_sd.o(i.is_busy)
    is_busy                                  0x00028d85   Thumb Code    12  nrf_fstorage_sd.o(i.is_busy)
    i.is_completion_candidate                0x00028d94   Section        0  nrf_cli.o(i.is_completion_candidate)
    is_completion_candidate                  0x00028d95   Thumb Code    16  nrf_cli.o(i.is_completion_candidate)
    i.log_backend_ctrl                       0x00028da4   Section        0  nrf_log_frontend.o(i.log_backend_ctrl)
    log_backend_ctrl                         0x00028da5   Thumb Code     6  nrf_log_frontend.o(i.log_backend_ctrl)
    i.log_backend_go                         0x00028db0   Section        0  nrf_log_frontend.o(i.log_backend_go)
    log_backend_go                           0x00028db1   Thumb Code     6  nrf_log_frontend.o(i.log_backend_go)
    i.log_backend_halt                       0x00028dbc   Section        0  nrf_log_frontend.o(i.log_backend_halt)
    log_backend_halt                         0x00028dbd   Thumb Code     6  nrf_log_frontend.o(i.log_backend_halt)
    i.log_backend_status                     0x00028dc8   Section        0  nrf_log_frontend.o(i.log_backend_status)
    log_backend_status                       0x00028dc9   Thumb Code     6  nrf_log_frontend.o(i.log_backend_status)
    i.log_cmd                                0x00028dd4   Section        0  nrf_log_frontend.o(i.log_cmd)
    log_cmd                                  0x00028dd5   Thumb Code    54  nrf_log_frontend.o(i.log_cmd)
    i.log_cmd_backends_list                  0x00028e30   Section        0  nrf_log_frontend.o(i.log_cmd_backends_list)
    log_cmd_backends_list                    0x00028e31   Thumb Code   102  nrf_log_frontend.o(i.log_cmd_backends_list)
    i.log_config_load_cmd                    0x00028ef8   Section        0  nrf_log_frontend.o(i.log_config_load_cmd)
    log_config_load_cmd                      0x00028ef9   Thumb Code    38  nrf_log_frontend.o(i.log_config_load_cmd)
    i.log_config_store_cmd                   0x00028f34   Section        0  nrf_log_frontend.o(i.log_config_store_cmd)
    log_config_store_cmd                     0x00028f35   Thumb Code    38  nrf_log_frontend.o(i.log_config_store_cmd)
    i.log_ctrl                               0x00028f70   Section        0  nrf_log_frontend.o(i.log_ctrl)
    log_ctrl                                 0x00028f71   Thumb Code   304  nrf_log_frontend.o(i.log_ctrl)
    i.log_go                                 0x0002913c   Section        0  nrf_log_frontend.o(i.log_go)
    log_go                                   0x0002913d   Thumb Code     8  nrf_log_frontend.o(i.log_go)
    i.log_halt                               0x00029144   Section        0  nrf_log_frontend.o(i.log_halt)
    log_halt                                 0x00029145   Thumb Code     8  nrf_log_frontend.o(i.log_halt)
    i.log_self_ctrl                          0x0002914c   Section        0  nrf_log_frontend.o(i.log_self_ctrl)
    log_self_ctrl                            0x0002914d   Thumb Code    16  nrf_log_frontend.o(i.log_self_ctrl)
    i.log_self_go                            0x0002915c   Section        0  nrf_log_frontend.o(i.log_self_go)
    log_self_go                              0x0002915d   Thumb Code    10  nrf_log_frontend.o(i.log_self_go)
    i.log_self_halt                          0x00029166   Section        0  nrf_log_frontend.o(i.log_self_halt)
    log_self_halt                            0x00029167   Thumb Code    10  nrf_log_frontend.o(i.log_self_halt)
    i.log_self_status                        0x00029170   Section        0  nrf_log_frontend.o(i.log_self_status)
    log_self_status                          0x00029171   Thumb Code    16  nrf_log_frontend.o(i.log_self_status)
    i.log_skip                               0x00029180   Section        0  nrf_log_frontend.o(i.log_skip)
    log_skip                                 0x00029181   Thumb Code   150  nrf_log_frontend.o(i.log_skip)
    i.log_status                             0x00029224   Section        0  nrf_log_frontend.o(i.log_status)
    log_status                               0x00029225   Thumb Code   158  nrf_log_frontend.o(i.log_status)
    i.main                                   0x00029364   Section        0  main.o(i.main)
    i.make_argv                              0x00029678   Section        0  nrf_cli.o(i.make_argv)
    make_argv                                0x00029679   Thumb Code   346  nrf_cli.o(i.make_argv)
    i.memobj_op                              0x000297d2   Section        0  nrf_memobj.o(i.memobj_op)
    memobj_op                                0x000297d3   Thumb Code   126  nrf_memobj.o(i.memobj_op)
    i.module_id_filter_set                   0x00029850   Section        0  nrf_log_frontend.o(i.module_id_filter_set)
    module_id_filter_set                     0x00029851   Thumb Code    38  nrf_log_frontend.o(i.module_id_filter_set)
    i.module_idx_get                         0x00029878   Section        0  nrf_log_frontend.o(i.module_idx_get)
    module_idx_get                           0x00029879   Thumb Code    42  nrf_log_frontend.o(i.module_idx_get)
    i.module_name_get                        0x000298a8   Section        0  nrf_log_frontend.o(i.module_name_get)
    module_name_get                          0x000298a9   Thumb Code    24  nrf_log_frontend.o(i.module_name_get)
    i.multiline_console_data_check           0x000298c4   Section        0  nrf_cli.o(i.multiline_console_data_check)
    multiline_console_data_check             0x000298c5   Thumb Code    80  nrf_cli.o(i.multiline_console_data_check)
    i.nrf_atfifo_clear                       0x00029914   Section        0  nrf_atfifo.o(i.nrf_atfifo_clear)
    i.nrf_atfifo_init                        0x00029924   Section        0  nrf_atfifo.o(i.nrf_atfifo_init)
    i.nrf_atfifo_item_alloc                  0x0002994a   Section        0  nrf_atfifo.o(i.nrf_atfifo_item_alloc)
    i.nrf_atfifo_item_free                   0x00029960   Section        0  nrf_atfifo.o(i.nrf_atfifo_item_free)
    i.nrf_atfifo_item_get                    0x00029976   Section        0  nrf_atfifo.o(i.nrf_atfifo_item_get)
    i.nrf_atfifo_item_put                    0x0002998c   Section        0  nrf_atfifo.o(i.nrf_atfifo_item_put)
    i.nrf_atomic_flag_clear                  0x000299a2   Section        0  nrf_atomic.o(i.nrf_atomic_flag_clear)
    i.nrf_atomic_flag_clear_fetch            0x000299a8   Section        0  nrf_atomic.o(i.nrf_atomic_flag_clear_fetch)
    i.nrf_atomic_flag_set                    0x000299ae   Section        0  nrf_atomic.o(i.nrf_atomic_flag_set)
    i.nrf_atomic_flag_set_fetch              0x000299b4   Section        0  nrf_atomic.o(i.nrf_atomic_flag_set_fetch)
    i.nrf_atomic_u32_add                     0x000299ba   Section        0  nrf_atomic.o(i.nrf_atomic_u32_add)
    i.nrf_atomic_u32_and                     0x000299c6   Section        0  nrf_atomic.o(i.nrf_atomic_u32_and)
    i.nrf_atomic_u32_fetch_and               0x000299d2   Section        0  nrf_atomic.o(i.nrf_atomic_u32_fetch_and)
    i.nrf_atomic_u32_fetch_or                0x000299dc   Section        0  nrf_atomic.o(i.nrf_atomic_u32_fetch_or)
    i.nrf_atomic_u32_fetch_store             0x000299e6   Section        0  nrf_atomic.o(i.nrf_atomic_u32_fetch_store)
    i.nrf_atomic_u32_or                      0x000299f0   Section        0  nrf_atomic.o(i.nrf_atomic_u32_or)
    i.nrf_atomic_u32_sub                     0x000299fc   Section        0  nrf_atomic.o(i.nrf_atomic_u32_sub)
    i.nrf_balloc_alloc                       0x00029a08   Section        0  nrf_balloc.o(i.nrf_balloc_alloc)
    i.nrf_balloc_free                        0x00029a4c   Section        0  nrf_balloc.o(i.nrf_balloc_free)
    i.nrf_balloc_init                        0x00029a7c   Section        0  nrf_balloc.o(i.nrf_balloc_init)
    i.nrf_balloc_status                      0x00029aac   Section        0  nrf_balloc.o(i.nrf_balloc_status)
    nrf_balloc_status                        0x00029aad   Thumb Code   168  nrf_balloc.o(i.nrf_balloc_status)
    i.nrf_cli_backend_cmd_execute            0x00029b74   Section        0  nrf_log_frontend.o(i.nrf_cli_backend_cmd_execute)
    nrf_cli_backend_cmd_execute              0x00029b75   Thumb Code    92  nrf_log_frontend.o(i.nrf_cli_backend_cmd_execute)
    i.nrf_cli_build_in_cmd_common_executed   0x00029bf0   Section        0  nrf_cli.o(i.nrf_cli_build_in_cmd_common_executed)
    nrf_cli_build_in_cmd_common_executed     0x00029bf1   Thumb Code    46  nrf_cli.o(i.nrf_cli_build_in_cmd_common_executed)
    i.nrf_cli_cmd_clear                      0x00029c3c   Section        0  nrf_cli.o(i.nrf_cli_cmd_clear)
    nrf_cli_cmd_clear                        0x00029c3d   Thumb Code    60  nrf_cli.o(i.nrf_cli_cmd_clear)
    i.nrf_cli_cmd_cli                        0x00029c80   Section        0  nrf_cli.o(i.nrf_cli_cmd_cli)
    nrf_cli_cmd_cli                          0x00029c81   Thumb Code    36  nrf_cli.o(i.nrf_cli_cmd_cli)
    i.nrf_cli_cmd_cli_stats                  0x00029cc4   Section        0  nrf_cli.o(i.nrf_cli_cmd_cli_stats)
    i.nrf_cli_cmd_cli_stats_reset            0x00029d30   Section        0  nrf_cli.o(i.nrf_cli_cmd_cli_stats_reset)
    i.nrf_cli_cmd_cli_stats_show             0x00029d60   Section        0  nrf_cli.o(i.nrf_cli_cmd_cli_stats_show)
    i.nrf_cli_cmd_colors                     0x00029de8   Section        0  nrf_cli.o(i.nrf_cli_cmd_colors)
    nrf_cli_cmd_colors                       0x00029de9   Thumb Code    68  nrf_cli.o(i.nrf_cli_cmd_colors)
    i.nrf_cli_cmd_colors_off                 0x00029e50   Section        0  nrf_cli.o(i.nrf_cli_cmd_colors_off)
    nrf_cli_cmd_colors_off                   0x00029e51   Thumb Code    42  nrf_cli.o(i.nrf_cli_cmd_colors_off)
    i.nrf_cli_cmd_colors_on                  0x00029e7a   Section        0  nrf_cli.o(i.nrf_cli_cmd_colors_on)
    nrf_cli_cmd_colors_on                    0x00029e7b   Thumb Code    42  nrf_cli.o(i.nrf_cli_cmd_colors_on)
    i.nrf_cli_cmd_echo                       0x00029ea4   Section        0  nrf_cli.o(i.nrf_cli_cmd_echo)
    nrf_cli_cmd_echo                         0x00029ea5   Thumb Code    86  nrf_cli.o(i.nrf_cli_cmd_echo)
    i.nrf_cli_cmd_echo_off                   0x00029f3c   Section        0  nrf_cli.o(i.nrf_cli_cmd_echo_off)
    nrf_cli_cmd_echo_off                     0x00029f3d   Thumb Code    42  nrf_cli.o(i.nrf_cli_cmd_echo_off)
    i.nrf_cli_cmd_echo_on                    0x00029f66   Section        0  nrf_cli.o(i.nrf_cli_cmd_echo_on)
    nrf_cli_cmd_echo_on                      0x00029f67   Thumb Code    42  nrf_cli.o(i.nrf_cli_cmd_echo_on)
    i.nrf_cli_cmd_history                    0x00029f90   Section        0  nrf_cli.o(i.nrf_cli_cmd_history)
    nrf_cli_cmd_history                      0x00029f91   Thumb Code   108  nrf_cli.o(i.nrf_cli_cmd_history)
    i.nrf_cli_cmd_resize                     0x0002a008   Section        0  nrf_cli.o(i.nrf_cli_cmd_resize)
    nrf_cli_cmd_resize                       0x0002a009   Thumb Code    98  nrf_cli.o(i.nrf_cli_cmd_resize)
    i.nrf_cli_cmd_resize_default             0x0002a0cc   Section        0  nrf_cli.o(i.nrf_cli_cmd_resize_default)
    nrf_cli_cmd_resize_default               0x0002a0cd   Thumb Code    50  nrf_cli.o(i.nrf_cli_cmd_resize_default)
    i.nrf_cli_fprintf                        0x0002a108   Section        0  nrf_cli.o(i.nrf_cli_fprintf)
    i.nrf_cli_help_print                     0x0002a158   Section        0  nrf_cli.o(i.nrf_cli_help_print)
    i.nrf_cli_help_requested                 0x0002a3d4   Section        0  cli.o(i.nrf_cli_help_requested)
    nrf_cli_help_requested                   0x0002a3d5   Thumb Code    12  cli.o(i.nrf_cli_help_requested)
    i.nrf_cli_help_requested                 0x0002a3e0   Section        0  nrf_log_frontend.o(i.nrf_cli_help_requested)
    nrf_cli_help_requested                   0x0002a3e1   Thumb Code    12  nrf_log_frontend.o(i.nrf_cli_help_requested)
    i.nrf_cli_init                           0x0002a3ec   Section        0  nrf_cli.o(i.nrf_cli_init)
    i.nrf_cli_instance_init                  0x0002a420   Section        0  nrf_cli.o(i.nrf_cli_instance_init)
    nrf_cli_instance_init                    0x0002a421   Thumb Code   170  nrf_cli.o(i.nrf_cli_instance_init)
    i.nrf_cli_print_stream                   0x0002a4e0   Section        0  nrf_cli.o(i.nrf_cli_print_stream)
    i.nrf_cli_process                        0x0002a4e8   Section        0  nrf_cli.o(i.nrf_cli_process)
    i.nrf_cli_start                          0x0002a55c   Section        0  nrf_cli.o(i.nrf_cli_start)
    i.nrf_drv_uart_init                      0x0002a5a4   Section        0  nrf_drv_uart.o(i.nrf_drv_uart_init)
    i.nrf_drv_uart_tx                        0x0002a60c   Section        0  nrf_cli_uart.o(i.nrf_drv_uart_tx)
    nrf_drv_uart_tx                          0x0002a60d   Thumb Code    26  nrf_cli_uart.o(i.nrf_drv_uart_tx)
    i.nrf_drv_uart_uninit                    0x0002a62c   Section        0  nrf_cli_uart.o(i.nrf_drv_uart_uninit)
    nrf_drv_uart_uninit                      0x0002a62d   Thumb Code    20  nrf_cli_uart.o(i.nrf_drv_uart_uninit)
    i.nrf_fprintf                            0x0002a644   Section        0  nrf_fprintf.o(i.nrf_fprintf)
    i.nrf_fprintf_buffer_flush               0x0002a65e   Section        0  nrf_fprintf.o(i.nrf_fprintf_buffer_flush)
    i.nrf_fprintf_fmt                        0x0002a676   Section        0  nrf_fprintf_format.o(i.nrf_fprintf_fmt)
    i.nrf_fstorage_erase                     0x0002a850   Section        0  nrf_fstorage.o(i.nrf_fstorage_erase)
    i.nrf_fstorage_init                      0x0002a9a0   Section        0  nrf_fstorage.o(i.nrf_fstorage_init)
    i.nrf_fstorage_is_busy                   0x0002aa40   Section        0  nrf_fstorage.o(i.nrf_fstorage_is_busy)
    i.nrf_fstorage_read                      0x0002aa90   Section        0  nrf_fstorage.o(i.nrf_fstorage_read)
    i.nrf_fstorage_sdh_req_handler           0x0002ac08   Section        0  nrf_fstorage_sd.o(i.nrf_fstorage_sdh_req_handler)
    i.nrf_fstorage_sdh_state_handler         0x0002ac20   Section        0  nrf_fstorage_sd.o(i.nrf_fstorage_sdh_state_handler)
    i.nrf_fstorage_sys_evt_handler           0x0002ac40   Section        0  nrf_fstorage_sd.o(i.nrf_fstorage_sys_evt_handler)
    i.nrf_fstorage_write                     0x0002ace4   Section        0  nrf_fstorage.o(i.nrf_fstorage_write)
    i.nrf_gpio_cfg                           0x0002aee4   Section        0  nrfx_uart.o(i.nrf_gpio_cfg)
    nrf_gpio_cfg                             0x0002aee5   Thumb Code    36  nrfx_uart.o(i.nrf_gpio_cfg)
    i.nrf_gpio_cfg                           0x0002af08   Section        0  nrfx_uarte.o(i.nrf_gpio_cfg)
    nrf_gpio_cfg                             0x0002af09   Thumb Code    36  nrfx_uarte.o(i.nrf_gpio_cfg)
    i.nrf_gpio_cfg_default                   0x0002af2c   Section        0  nrfx_uart.o(i.nrf_gpio_cfg_default)
    nrf_gpio_cfg_default                     0x0002af2d   Thumb Code    18  nrfx_uart.o(i.nrf_gpio_cfg_default)
    i.nrf_gpio_cfg_default                   0x0002af3e   Section        0  nrfx_uarte.o(i.nrf_gpio_cfg_default)
    nrf_gpio_cfg_default                     0x0002af3f   Thumb Code    18  nrfx_uarte.o(i.nrf_gpio_cfg_default)
    i.nrf_gpio_cfg_input                     0x0002af50   Section        0  nrfx_uart.o(i.nrf_gpio_cfg_input)
    nrf_gpio_cfg_input                       0x0002af51   Thumb Code    18  nrfx_uart.o(i.nrf_gpio_cfg_input)
    i.nrf_gpio_cfg_input                     0x0002af62   Section        0  nrfx_uarte.o(i.nrf_gpio_cfg_input)
    nrf_gpio_cfg_input                       0x0002af63   Thumb Code    18  nrfx_uarte.o(i.nrf_gpio_cfg_input)
    i.nrf_gpio_cfg_output                    0x0002af74   Section        0  nrfx_uart.o(i.nrf_gpio_cfg_output)
    nrf_gpio_cfg_output                      0x0002af75   Thumb Code    20  nrfx_uart.o(i.nrf_gpio_cfg_output)
    i.nrf_gpio_cfg_output                    0x0002af88   Section        0  nrfx_uarte.o(i.nrf_gpio_cfg_output)
    nrf_gpio_cfg_output                      0x0002af89   Thumb Code    20  nrfx_uarte.o(i.nrf_gpio_cfg_output)
    i.nrf_log_backend_add                    0x0002af9c   Section        0  nrf_log_frontend.o(i.nrf_log_backend_add)
    i.nrf_log_backend_cli_flush              0x0002b02c   Section        0  nrf_cli.o(i.nrf_log_backend_cli_flush)
    nrf_log_backend_cli_flush                0x0002b02d   Thumb Code    10  nrf_cli.o(i.nrf_log_backend_cli_flush)
    i.nrf_log_backend_cli_panic_set          0x0002b036   Section        0  nrf_cli.o(i.nrf_log_backend_cli_panic_set)
    nrf_log_backend_cli_panic_set            0x0002b037   Thumb Code    30  nrf_cli.o(i.nrf_log_backend_cli_panic_set)
    i.nrf_log_backend_cli_put                0x0002b054   Section        0  nrf_cli.o(i.nrf_log_backend_cli_put)
    nrf_log_backend_cli_put                  0x0002b055   Thumb Code    82  nrf_cli.o(i.nrf_log_backend_cli_put)
    i.nrf_log_backend_serial_put             0x0002b0a6   Section        0  nrf_log_backend_serial.o(i.nrf_log_backend_serial_put)
    i.nrf_log_backend_uart_flush             0x0002b16e   Section        0  nrf_log_backend_uart.o(i.nrf_log_backend_uart_flush)
    nrf_log_backend_uart_flush               0x0002b16f   Thumb Code     2  nrf_log_backend_uart.o(i.nrf_log_backend_uart_flush)
    i.nrf_log_backend_uart_panic_set         0x0002b170   Section        0  nrf_log_backend_uart.o(i.nrf_log_backend_uart_panic_set)
    nrf_log_backend_uart_panic_set           0x0002b171   Thumb Code    36  nrf_log_backend_uart.o(i.nrf_log_backend_uart_panic_set)
    i.nrf_log_backend_uart_put               0x0002b19c   Section        0  nrf_log_backend_uart.o(i.nrf_log_backend_uart_put)
    nrf_log_backend_uart_put                 0x0002b19d   Thumb Code    16  nrf_log_backend_uart.o(i.nrf_log_backend_uart_put)
    i.nrf_log_color_id_get                   0x0002b1b4   Section        0  nrf_log_frontend.o(i.nrf_log_color_id_get)
    i.nrf_log_frontend_dequeue               0x0002b1e4   Section        0  nrf_log_frontend.o(i.nrf_log_frontend_dequeue)
    i.nrf_log_frontend_std_0                 0x0002b460   Section        0  nrf_log_frontend.o(i.nrf_log_frontend_std_0)
    i.nrf_log_frontend_std_1                 0x0002b468   Section        0  nrf_log_frontend.o(i.nrf_log_frontend_std_1)
    i.nrf_log_frontend_std_2                 0x0002b476   Section        0  nrf_log_frontend.o(i.nrf_log_frontend_std_2)
    i.nrf_log_frontend_std_3                 0x0002b486   Section        0  nrf_log_frontend.o(i.nrf_log_frontend_std_3)
    i.nrf_log_hexdump_entry_process          0x0002b498   Section        0  nrf_log_str_formatter.o(i.nrf_log_hexdump_entry_process)
    i.nrf_log_init                           0x0002b548   Section        0  nrf_log_frontend.o(i.nrf_log_init)
    i.nrf_log_module_cnt_get                 0x0002b5e8   Section        0  nrf_log_frontend.o(i.nrf_log_module_cnt_get)
    i.nrf_log_module_filter_get              0x0002b5fc   Section        0  nrf_log_frontend.o(i.nrf_log_module_filter_get)
    i.nrf_log_module_filter_set              0x0002b644   Section        0  nrf_log_frontend.o(i.nrf_log_module_filter_set)
    i.nrf_log_module_name_get                0x0002b694   Section        0  nrf_log_frontend.o(i.nrf_log_module_name_get)
    i.nrf_log_panic                          0x0002b6b0   Section        0  nrf_log_frontend.o(i.nrf_log_panic)
    i.nrf_log_std_entry_process              0x0002b6d8   Section        0  nrf_log_str_formatter.o(i.nrf_log_std_entry_process)
    i.nrf_memobj_alloc                       0x0002b78e   Section        0  nrf_memobj.o(i.nrf_memobj_alloc)
    i.nrf_memobj_free                        0x0002b7ee   Section        0  nrf_memobj.o(i.nrf_memobj_free)
    i.nrf_memobj_get                         0x0002b820   Section        0  nrf_memobj.o(i.nrf_memobj_get)
    i.nrf_memobj_pool_init                   0x0002b828   Section        0  nrf_memobj.o(i.nrf_memobj_pool_init)
    i.nrf_memobj_put                         0x0002b82c   Section        0  nrf_memobj.o(i.nrf_memobj_put)
    i.nrf_memobj_read                        0x0002b84a   Section        0  nrf_memobj.o(i.nrf_memobj_read)
    i.nrf_memobj_write                       0x0002b85a   Section        0  nrf_memobj.o(i.nrf_memobj_write)
    i.nrf_queue_generic_pop                  0x0002b86a   Section        0  nrf_queue.o(i.nrf_queue_generic_pop)
    i.nrf_queue_is_empty                     0x0002b8f8   Section        0  nrf_queue.o(i.nrf_queue_is_empty)
    i.nrf_queue_is_full                      0x0002b90a   Section        0  nrf_queue.o(i.nrf_queue_is_full)
    i.nrf_queue_max_utilization_get          0x0002b928   Section        0  nrf_queue.o(i.nrf_queue_max_utilization_get)
    i.nrf_queue_max_utilization_reset        0x0002b92e   Section        0  nrf_queue.o(i.nrf_queue_max_utilization_reset)
    i.nrf_queue_next_idx                     0x0002b936   Section        0  nrf_queue.o(i.nrf_queue_next_idx)
    nrf_queue_next_idx                       0x0002b937   Thumb Code    14  nrf_queue.o(i.nrf_queue_next_idx)
    i.nrf_queue_push                         0x0002b944   Section        0  nrf_queue.o(i.nrf_queue_push)
    i.nrf_queue_status                       0x0002b9f8   Section        0  nrf_queue.o(i.nrf_queue_status)
    nrf_queue_status                         0x0002b9f9   Thumb Code   168  nrf_queue.o(i.nrf_queue_status)
    i.nrf_queue_utilization_get              0x0002bad8   Section        0  nrf_queue.o(i.nrf_queue_utilization_get)
    i.nrf_ringbuf_alloc                      0x0002bafc   Section        0  nrf_ringbuf.o(i.nrf_ringbuf_alloc)
    i.nrf_ringbuf_cpy_get                    0x0002bb6c   Section        0  nrf_ringbuf.o(i.nrf_ringbuf_cpy_get)
    i.nrf_ringbuf_cpy_put                    0x0002bbe8   Section        0  nrf_ringbuf.o(i.nrf_ringbuf_cpy_put)
    i.nrf_ringbuf_free                       0x0002bc5a   Section        0  nrf_ringbuf.o(i.nrf_ringbuf_free)
    i.nrf_ringbuf_get                        0x0002bc80   Section        0  nrf_ringbuf.o(i.nrf_ringbuf_get)
    i.nrf_ringbuf_init                       0x0002bcf0   Section        0  nrf_ringbuf.o(i.nrf_ringbuf_init)
    i.nrf_ringbuf_put                        0x0002bd0c   Section        0  nrf_ringbuf.o(i.nrf_ringbuf_put)
    i.nrf_rtc_event_clear                    0x0002bd3c   Section        0  drv_rtc.o(i.nrf_rtc_event_clear)
    nrf_rtc_event_clear                      0x0002bd3d   Thumb Code    12  drv_rtc.o(i.nrf_rtc_event_clear)
    i.nrf_sdh_ble_app_ram_start_get          0x0002bd48   Section        0  nrf_sdh_ble.o(i.nrf_sdh_ble_app_ram_start_get)
    i.nrf_sdh_ble_default_cfg_set            0x0002bd5c   Section        0  nrf_sdh_ble.o(i.nrf_sdh_ble_default_cfg_set)
    i.nrf_sdh_ble_enable                     0x0002be74   Section        0  nrf_sdh_ble.o(i.nrf_sdh_ble_enable)
    i.nrf_sdh_ble_evts_poll                  0x0002bfc8   Section        0  nrf_sdh_ble.o(i.nrf_sdh_ble_evts_poll)
    nrf_sdh_ble_evts_poll                    0x0002bfc9   Thumb Code    82  nrf_sdh_ble.o(i.nrf_sdh_ble_evts_poll)
    i.nrf_sdh_disable_request                0x0002c024   Section        0  nrf_sdh.o(i.nrf_sdh_disable_request)
    i.nrf_sdh_enable_request                 0x0002c078   Section        0  nrf_sdh.o(i.nrf_sdh_enable_request)
    i.nrf_sdh_evts_poll                      0x0002c0ec   Section        0  nrf_sdh.o(i.nrf_sdh_evts_poll)
    i.nrf_sdh_is_enabled                     0x0002c110   Section        0  nrf_sdh.o(i.nrf_sdh_is_enabled)
    i.nrf_sdh_request_continue               0x0002c11c   Section        0  nrf_sdh.o(i.nrf_sdh_request_continue)
    i.nrf_sdh_soc_evts_poll                  0x0002c138   Section        0  nrf_sdh_soc.o(i.nrf_sdh_soc_evts_poll)
    nrf_sdh_soc_evts_poll                    0x0002c139   Thumb Code    56  nrf_sdh_soc.o(i.nrf_sdh_soc_evts_poll)
    i.nrf_section_iter_init                  0x0002c174   Section        0  nrf_section_iter.o(i.nrf_section_iter_init)
    i.nrf_section_iter_item_set              0x0002c17e   Section        0  nrf_section_iter.o(i.nrf_section_iter_item_set)
    nrf_section_iter_item_set                0x0002c17f   Thumb Code    36  nrf_section_iter.o(i.nrf_section_iter_item_set)
    i.nrf_section_iter_next                  0x0002c1a2   Section        0  nrf_section_iter.o(i.nrf_section_iter_next)
    i.nrf_sortlist_add                       0x0002c1c2   Section        0  nrf_sortlist.o(i.nrf_sortlist_add)
    i.nrf_sortlist_peek                      0x0002c1e4   Section        0  nrf_sortlist.o(i.nrf_sortlist_peek)
    i.nrf_sortlist_pop                       0x0002c1ea   Section        0  nrf_sortlist.o(i.nrf_sortlist_pop)
    i.nrf_sortlist_remove                    0x0002c1f8   Section        0  nrf_sortlist.o(i.nrf_sortlist_remove)
    i.nrf_strerror_find                      0x0002c218   Section        0  nrf_strerror.o(i.nrf_strerror_find)
    i.nrf_strerror_get                       0x0002c250   Section        0  nrf_strerror.o(i.nrf_strerror_get)
    i.nrf_uart_event_check                   0x0002c264   Section        0  nrfx_uart.o(i.nrf_uart_event_check)
    nrf_uart_event_check                     0x0002c265   Thumb Code    10  nrfx_uart.o(i.nrf_uart_event_check)
    i.nrf_uart_event_clear                   0x0002c26e   Section        0  nrfx_uart.o(i.nrf_uart_event_clear)
    nrf_uart_event_clear                     0x0002c26f   Thumb Code    12  nrfx_uart.o(i.nrf_uart_event_clear)
    i.nrf_uart_int_enable_check              0x0002c27a   Section        0  nrfx_uart.o(i.nrf_uart_int_enable_check)
    nrf_uart_int_enable_check                0x0002c27b   Thumb Code    12  nrfx_uart.o(i.nrf_uart_int_enable_check)
    i.nrf_uarte_event_check                  0x0002c286   Section        0  nrfx_uarte.o(i.nrf_uarte_event_check)
    nrf_uarte_event_check                    0x0002c287   Thumb Code    10  nrfx_uarte.o(i.nrf_uarte_event_check)
    i.nrf_uarte_event_clear                  0x0002c290   Section        0  nrfx_uarte.o(i.nrf_uarte_event_clear)
    nrf_uarte_event_clear                    0x0002c291   Thumb Code    12  nrfx_uarte.o(i.nrf_uarte_event_clear)
    i.nrfx_coredep_delay_us                  0x0002c29c   Section        0  drv_rtc.o(i.nrfx_coredep_delay_us)
    nrfx_coredep_delay_us                    0x0002c29d   Thumb Code    12  drv_rtc.o(i.nrfx_coredep_delay_us)
    i.nrfx_is_in_ram                         0x0002c2ac   Section        0  nrfx_uarte.o(i.nrfx_is_in_ram)
    nrfx_is_in_ram                           0x0002c2ad   Thumb Code    16  nrfx_uarte.o(i.nrfx_is_in_ram)
    i.nrfx_prs_acquire                       0x0002c2bc   Section        0  nrfx_prs.o(i.nrfx_prs_acquire)
    i.nrfx_prs_release                       0x0002c2f6   Section        0  nrfx_prs.o(i.nrfx_prs_release)
    i.nrfx_uart_0_irq_handler                0x0002c308   Section        0  nrfx_uart.o(i.nrfx_uart_0_irq_handler)
    i.nrfx_uart_init                         0x0002c318   Section        0  nrfx_uart.o(i.nrfx_uart_init)
    i.nrfx_uart_rx                           0x0002c3ec   Section        0  nrfx_uart.o(i.nrfx_uart_rx)
    i.nrfx_uart_rx_abort                     0x0002c4d8   Section        0  nrfx_uart.o(i.nrfx_uart_rx_abort)
    i.nrfx_uart_tx                           0x0002c4ec   Section        0  nrfx_uart.o(i.nrfx_uart_tx)
    i.nrfx_uart_tx_in_progress               0x0002c594   Section        0  nrfx_uart.o(i.nrfx_uart_tx_in_progress)
    i.nrfx_uart_uninit                       0x0002c5b4   Section        0  nrfx_uart.o(i.nrfx_uart_uninit)
    i.nrfx_uarte_0_irq_handler               0x0002c674   Section        0  nrfx_uarte.o(i.nrfx_uarte_0_irq_handler)
    i.nrfx_uarte_init                        0x0002c684   Section        0  nrfx_uarte.o(i.nrfx_uarte_init)
    i.nrfx_uarte_rx                          0x0002c6f0   Section        0  nrfx_uarte.o(i.nrfx_uarte_rx)
    i.nrfx_uarte_rx_abort                    0x0002c7f4   Section        0  nrfx_uarte.o(i.nrfx_uarte_rx_abort)
    i.nrfx_uarte_tx                          0x0002c820   Section        0  nrfx_uarte.o(i.nrfx_uarte_tx)
    i.nrfx_uarte_tx_in_progress              0x0002c8cc   Section        0  nrfx_uarte.o(i.nrfx_uarte_tx_in_progress)
    i.nrfx_uarte_uninit                      0x0002c8e8   Section        0  nrfx_uarte.o(i.nrfx_uarte_uninit)
    i.nvmc_config                            0x0002c9f0   Section        0  system_nrf52.o(i.nvmc_config)
    i.option_print                           0x0002ca08   Section        0  nrf_cli.o(i.option_print)
    option_print                             0x0002ca09   Thumb Code   128  nrf_cli.o(i.option_print)
    i.postfix_process                        0x0002ca98   Section        0  nrf_log_str_formatter.o(i.postfix_process)
    postfix_process                          0x0002ca99   Thumb Code    48  nrf_log_str_formatter.o(i.postfix_process)
    i.prefix_process                         0x0002cad4   Section        0  nrf_log_str_formatter.o(i.prefix_process)
    prefix_process                           0x0002cad5   Thumb Code    90  nrf_log_str_formatter.o(i.prefix_process)
    i.print_flash_info                       0x0002cb6c   Section        0  main.o(i.print_flash_info)
    print_flash_info                         0x0002cb6d   Thumb Code    90  main.o(i.print_flash_info)
    i.prs_box_get                            0x0002cc44   Section        0  nrfx_prs.o(i.prs_box_get)
    prs_box_get                              0x0002cc45   Thumb Code    14  nrfx_prs.o(i.prs_box_get)
    i.queue_free                             0x0002cc5c   Section        0  nrf_fstorage_sd.o(i.queue_free)
    queue_free                               0x0002cc5d   Thumb Code    10  nrf_fstorage_sd.o(i.queue_free)
    i.queue_process                          0x0002cc70   Section        0  nrf_fstorage_sd.o(i.queue_process)
    queue_process                            0x0002cc71   Thumb Code   148  nrf_fstorage_sd.o(i.queue_process)
    i.queue_start                            0x0002cd10   Section        0  nrf_fstorage_sd.o(i.queue_start)
    queue_start                              0x0002cd11   Thumb Code    30  nrf_fstorage_sd.o(i.queue_start)
    i.queue_utilization_get                  0x0002cd34   Section        0  nrf_queue.o(i.queue_utilization_get)
    queue_utilization_get                    0x0002cd35   Thumb Code    24  nrf_queue.o(i.queue_utilization_get)
    i.read                                   0x0002cd4c   Section        0  nrf_fstorage_sd.o(i.read)
    read                                     0x0002cd4d   Thumb Code    14  nrf_fstorage_sd.o(i.read)
    i.read_cmd                               0x0002cd5c   Section        0  cli.o(i.read_cmd)
    read_cmd                                 0x0002cd5d   Thumb Code    58  cli.o(i.read_cmd)
    i.read_cmd_hex                           0x0002cda0   Section        0  cli.o(i.read_cmd_hex)
    read_cmd_hex                             0x0002cda1   Thumb Code    82  cli.o(i.read_cmd_hex)
    i.read_cmd_str                           0x0002ce00   Section        0  cli.o(i.read_cmd_str)
    read_cmd_str                             0x0002ce01   Thumb Code    82  cli.o(i.read_cmd_str)
    i.rmap                                   0x0002ce60   Section        0  nrf_fstorage_sd.o(i.rmap)
    rmap                                     0x0002ce61   Thumb Code     4  nrf_fstorage_sd.o(i.rmap)
    i.rtc_irq                                0x0002ce64   Section        0  app_timer2.o(i.rtc_irq)
    rtc_irq                                  0x0002ce65   Thumb Code    88  app_timer2.o(i.rtc_irq)
    i.rtc_schedule                           0x0002cec0   Section        0  app_timer2.o(i.rtc_schedule)
    rtc_schedule                             0x0002cec1   Thumb Code    92  app_timer2.o(i.rtc_schedule)
    i.rtc_update                             0x0002cf24   Section        0  app_timer2.o(i.rtc_update)
    rtc_update                               0x0002cf25   Thumb Code   110  app_timer2.o(i.rtc_update)
    i.rx_byte                                0x0002cf9c   Section        0  nrfx_uart.o(i.rx_byte)
    rx_byte                                  0x0002cf9d   Thumb Code    50  nrfx_uart.o(i.rx_byte)
    i.rx_done_event                          0x0002cfce   Section        0  nrfx_uart.o(i.rx_done_event)
    rx_done_event                            0x0002cfcf   Thumb Code    22  nrfx_uart.o(i.rx_done_event)
    i.rx_done_event                          0x0002cfe4   Section        0  nrfx_uarte.o(i.rx_done_event)
    rx_done_event                            0x0002cfe5   Thumb Code    22  nrfx_uarte.o(i.rx_done_event)
    i.rx_enable                              0x0002cffa   Section        0  nrfx_uart.o(i.rx_enable)
    rx_enable                                0x0002cffb   Thumb Code    32  nrfx_uart.o(i.rx_enable)
    i.rx_try                                 0x0002d01c   Section        0  nrf_cli_uart.o(i.rx_try)
    rx_try                                   0x0002d01d   Thumb Code    78  nrf_cli_uart.o(i.rx_try)
    i.sdh_request_observer_notify            0x0002d070   Section        0  nrf_sdh.o(i.sdh_request_observer_notify)
    sdh_request_observer_notify              0x0002d071   Thumb Code    44  nrf_sdh.o(i.sdh_request_observer_notify)
    i.sdh_state_observer_notify              0x0002d0a0   Section        0  nrf_sdh.o(i.sdh_state_observer_notify)
    sdh_state_observer_notify                0x0002d0a1   Thumb Code    38  nrf_sdh.o(i.sdh_state_observer_notify)
    i.serial_tx                              0x0002d0cc   Section        0  nrf_log_backend_uart.o(i.serial_tx)
    serial_tx                                0x0002d0cd   Thumb Code    54  nrf_log_backend_uart.o(i.serial_tx)
    i.severity_lvl_get                       0x0002d10c   Section        0  nrf_log_frontend.o(i.severity_lvl_get)
    severity_lvl_get                         0x0002d10d   Thumb Code    28  nrf_log_frontend.o(i.severity_lvl_get)
    i.softdevice_evt_irq_disable             0x0002d130   Section        0  nrf_sdh.o(i.softdevice_evt_irq_disable)
    softdevice_evt_irq_disable               0x0002d131   Thumb Code    60  nrf_sdh.o(i.softdevice_evt_irq_disable)
    i.softdevices_evt_irq_enable             0x0002d170   Section        0  nrf_sdh.o(i.softdevices_evt_irq_enable)
    softdevices_evt_irq_enable               0x0002d171   Thumb Code    80  nrf_sdh.o(i.softdevices_evt_irq_enable)
    i.sortlist_pop                           0x0002d1c8   Section        0  app_timer2.o(i.sortlist_pop)
    sortlist_pop                             0x0002d1c9   Thumb Code     6  app_timer2.o(i.sortlist_pop)
    i.std_n                                  0x0002d1d4   Section        0  nrf_log_frontend.o(i.std_n)
    std_n                                    0x0002d1d5   Thumb Code   140  nrf_log_frontend.o(i.std_n)
    i.string_cmp                             0x0002d268   Section        0  nrf_cli.o(i.string_cmp)
    string_cmp                               0x0002d269   Thumb Code     8  nrf_cli.o(i.string_cmp)
    i.terminal_size_get                      0x0002d270   Section        0  nrf_cli.o(i.terminal_size_get)
    terminal_size_get                        0x0002d271   Thumb Code    96  nrf_cli.o(i.terminal_size_get)
    i.timer_expire                           0x0002d2d0   Section        0  app_timer2.o(i.timer_expire)
    timer_expire                             0x0002d2d1   Thumb Code    86  app_timer2.o(i.timer_expire)
    i.timer_handler                          0x0002d330   Section        0  nrf_cli_uart.o(i.timer_handler)
    timer_handler                            0x0002d331   Thumb Code    22  nrf_cli_uart.o(i.timer_handler)
    i.timer_req_process                      0x0002d34c   Section        0  app_timer2.o(i.timer_req_process)
    timer_req_process                        0x0002d34d   Thumb Code   116  app_timer2.o(i.timer_req_process)
    i.timer_req_schedule                     0x0002d3c8   Section        0  app_timer2.o(i.timer_req_schedule)
    timer_req_schedule                       0x0002d3c9   Thumb Code    46  app_timer2.o(i.timer_req_schedule)
    i.tx_byte                                0x0002d400   Section        0  nrfx_uart.o(i.tx_byte)
    tx_byte                                  0x0002d401   Thumb Code    32  nrfx_uart.o(i.tx_byte)
    i.tx_done_event                          0x0002d420   Section        0  nrfx_uart.o(i.tx_done_event)
    tx_done_event                            0x0002d421   Thumb Code    26  nrfx_uart.o(i.tx_done_event)
    i.tx_done_event                          0x0002d43a   Section        0  nrfx_uarte.o(i.tx_done_event)
    tx_done_event                            0x0002d43b   Thumb Code    26  nrfx_uarte.o(i.tx_done_event)
    i.uart_event_handler                     0x0002d454   Section        0  nrf_cli_uart.o(i.uart_event_handler)
    uart_event_handler                       0x0002d455   Thumb Code   110  nrf_cli_uart.o(i.uart_event_handler)
    i.uart_evt_handler                       0x0002d4c4   Section        0  nrf_drv_uart.o(i.uart_evt_handler)
    uart_evt_handler                         0x0002d4c5   Thumb Code    42  nrf_drv_uart.o(i.uart_evt_handler)
    i.uart_evt_handler                       0x0002d4f4   Section        0  nrf_log_backend_uart.o(i.uart_evt_handler)
    uart_evt_handler                         0x0002d4f5   Thumb Code     8  nrf_log_backend_uart.o(i.uart_evt_handler)
    i.uart_init                              0x0002d500   Section        0  nrf_log_backend_uart.o(i.uart_init)
    uart_init                                0x0002d501   Thumb Code    66  nrf_log_backend_uart.o(i.uart_init)
    i.uart_irq_handler                       0x0002d550   Section        0  nrfx_uart.o(i.uart_irq_handler)
    uart_irq_handler                         0x0002d551   Thumb Code   298  nrfx_uart.o(i.uart_irq_handler)
    i.uarte_evt_handler                      0x0002d67c   Section        0  nrf_drv_uart.o(i.uarte_evt_handler)
    uarte_evt_handler                        0x0002d67d   Thumb Code    42  nrf_drv_uart.o(i.uarte_evt_handler)
    i.uarte_irq_handler                      0x0002d6ac   Section        0  nrfx_uarte.o(i.uarte_irq_handler)
    uarte_irq_handler                        0x0002d6ad   Thumb Code   274  nrfx_uarte.o(i.uarte_irq_handler)
    i.uninit                                 0x0002d7c0   Section        0  nrf_fstorage_sd.o(i.uninit)
    uninit                                   0x0002d7c1   Thumb Code    22  nrf_fstorage_sd.o(i.uninit)
    i.unsigned_print                         0x0002d7e0   Section        0  nrf_fprintf_format.o(i.unsigned_print)
    unsigned_print                           0x0002d7e1   Thumb Code   176  nrf_fprintf_format.o(i.unsigned_print)
    i.vt100_bgcolor_set                      0x0002d894   Section        0  nrf_cli.o(i.vt100_bgcolor_set)
    vt100_bgcolor_set                        0x0002d895   Thumb Code    48  nrf_cli.o(i.vt100_bgcolor_set)
    i.vt100_color_set                        0x0002d8d0   Section        0  nrf_cli.o(i.vt100_color_set)
    vt100_color_set                          0x0002d8d1   Thumb Code    64  nrf_cli.o(i.vt100_color_set)
    i.wait_for_flash_ready                   0x0002d920   Section        0  main.o(i.wait_for_flash_ready)
    i.wmap                                   0x0002d934   Section        0  nrf_fstorage_sd.o(i.wmap)
    wmap                                     0x0002d935   Thumb Code     4  nrf_fstorage_sd.o(i.wmap)
    i.write                                  0x0002d938   Section        0  nrf_fstorage_sd.o(i.write)
    write                                    0x0002d939   Thumb Code    74  nrf_fstorage_sd.o(i.write)
    i.write_cmd                              0x0002d988   Section        0  cli.o(i.write_cmd)
    write_cmd                                0x0002d989   Thumb Code   172  cli.o(i.write_cmd)
    .constdata                               0x0002da68   Section        4  cli.o(.constdata)
    cli_uart_timer                           0x0002da68   Data           4  cli.o(.constdata)
    .constdata                               0x0002da6c   Section       12  cli.o(.constdata)
    cli_uart_tx_ringbuf                      0x0002da6c   Data          12  cli.o(.constdata)
    .constdata                               0x0002da78   Section       12  cli.o(.constdata)
    cli_uart_rx_ringbuf                      0x0002da78   Data          12  cli.o(.constdata)
    .constdata                               0x0002da84   Section       20  cli.o(.constdata)
    cli_uart_uart                            0x0002da84   Data          20  cli.o(.constdata)
    .constdata                               0x0002da98   Section       24  cli.o(.constdata)
    cli_uart                                 0x0002da98   Data          24  cli.o(.constdata)
    .constdata                               0x0002dab0   Section       56  cli.o(.constdata)
    m_cli_uart                               0x0002dab0   Data          24  cli.o(.constdata)
    .constdata                               0x0002dae8   Section        8  cli.o(.constdata)
    m_read_cmd                               0x0002dae8   Data           8  cli.o(.constdata)
    .constdata                               0x0002daf0   Section       48  cli.o(.constdata)
    m_read_cmd_raw                           0x0002daf0   Data          48  cli.o(.constdata)
    .constdata                               0x0002db20   Section        8  cli.o(.constdata)
    m_flasharea_cmd                          0x0002db20   Data           8  cli.o(.constdata)
    .constdata                               0x0002db28   Section       48  cli.o(.constdata)
    m_flasharea_cmd_raw                      0x0002db28   Data          48  cli.o(.constdata)
    .constdata                               0x0002db58   Section       16  cli.o(.constdata)
    .constdata                               0x0002db68   Section       16  cli.o(.constdata)
    .constdata                               0x0002db78   Section       16  cli.o(.constdata)
    .constdata                               0x0002db88   Section       16  cli.o(.constdata)
    .constdata                               0x0002db98   Section        4  nrfx_uart.o(.constdata)
    irq_handlers                             0x0002db98   Data           4  nrfx_uart.o(.constdata)
    .constdata                               0x0002db9c   Section        4  nrfx_uarte.o(.constdata)
    irq_handlers                             0x0002db9c   Data           4  nrfx_uarte.o(.constdata)
    .constdata                               0x0002dba0   Section       20  app_timer2.o(.constdata)
    m_req_fifo                               0x0002dba0   Data           4  app_timer2.o(.constdata)
    m_app_timer_sortlist                     0x0002dba8   Data          12  app_timer2.o(.constdata)
    .constdata                               0x0002dbc0   Section        6  drv_rtc.o(.constdata)
    delay_machine_code                       0x0002dbc0   Data           6  drv_rtc.o(.constdata)
    .constdata                               0x0002dbc8   Section        8  nrf_balloc.o(.constdata)
    nrf_balloc_commands                      0x0002dbc8   Data           8  nrf_balloc.o(.constdata)
    .constdata                               0x0002dbd0   Section       32  nrf_balloc.o(.constdata)
    nrf_balloc_commands_raw                  0x0002dbd0   Data          32  nrf_balloc.o(.constdata)
    .constdata                               0x0002dbf0   Section       16  nrf_balloc.o(.constdata)
    .constdata                               0x0002dc00   Section       12  nrf_cli.o(.constdata)
    .constdata                               0x0002dc0c   Section        8  nrf_cli.o(.constdata)
    m_sub_colors                             0x0002dc0c   Data           8  nrf_cli.o(.constdata)
    .constdata                               0x0002dc14   Section       48  nrf_cli.o(.constdata)
    m_sub_colors_raw                         0x0002dc14   Data          48  nrf_cli.o(.constdata)
    .constdata                               0x0002dc44   Section        8  nrf_cli.o(.constdata)
    m_sub_echo                               0x0002dc44   Data           8  nrf_cli.o(.constdata)
    .constdata                               0x0002dc4c   Section       48  nrf_cli.o(.constdata)
    m_sub_echo_raw                           0x0002dc4c   Data          48  nrf_cli.o(.constdata)
    .constdata                               0x0002dc7c   Section        8  nrf_cli.o(.constdata)
    m_sub_cli_stats                          0x0002dc7c   Data           8  nrf_cli.o(.constdata)
    .constdata                               0x0002dc84   Section       48  nrf_cli.o(.constdata)
    m_sub_cli_stats_raw                      0x0002dc84   Data          48  nrf_cli.o(.constdata)
    .constdata                               0x0002dcb4   Section        8  nrf_cli.o(.constdata)
    m_sub_cli                                0x0002dcb4   Data           8  nrf_cli.o(.constdata)
    .constdata                               0x0002dcbc   Section       64  nrf_cli.o(.constdata)
    m_sub_cli_raw                            0x0002dcbc   Data          64  nrf_cli.o(.constdata)
    .constdata                               0x0002dcfc   Section        8  nrf_cli.o(.constdata)
    m_sub_resize                             0x0002dcfc   Data           8  nrf_cli.o(.constdata)
    .constdata                               0x0002dd04   Section       32  nrf_cli.o(.constdata)
    m_sub_resize_raw                         0x0002dd04   Data          32  nrf_cli.o(.constdata)
    .constdata                               0x0002dd24   Section       16  nrf_cli.o(.constdata)
    .constdata                               0x0002dd34   Section       16  nrf_cli.o(.constdata)
    .constdata                               0x0002dd44   Section       16  nrf_cli.o(.constdata)
    .constdata                               0x0002dd54   Section       16  nrf_cli.o(.constdata)
    .constdata                               0x0002dd70   Section       71  nrf_cli.o(.constdata)
    cmd                                      0x0002dd70   Data           3  nrf_cli.o(.constdata)
    cmd                                      0x0002dd73   Data           3  nrf_cli.o(.constdata)
    opt_sep                                  0x0002dd76   Data           3  nrf_cli.o(.constdata)
    cmd                                      0x0002dd79   Data           4  nrf_cli.o(.constdata)
    cmd                                      0x0002dd7d   Data           4  nrf_cli.o(.constdata)
    cmd_bspace                               0x0002dd81   Data           4  nrf_cli.o(.constdata)
    cmd                                      0x0002dd85   Data           4  nrf_cli.o(.constdata)
    cmd_sep                                  0x0002dd89   Data           4  nrf_cli.o(.constdata)
    cmd                                      0x0002dd8d   Data           4  nrf_cli.o(.constdata)
    cmd_get_terminal_size                    0x0002dd91   Data           5  nrf_cli.o(.constdata)
    cmd                                      0x0002dd96   Data           5  nrf_cli.o(.constdata)
    delay_machine_code                       0x0002dda0   Data           6  nrf_cli.o(.constdata)
    cmd                                      0x0002dda6   Data           6  nrf_cli.o(.constdata)
    help                                     0x0002ddac   Data          11  nrf_cli.o(.constdata)
    .constdata                               0x0002ddb8   Section       20  nrf_cli_uart.o(.constdata)
    .constdata                               0x0002ddcc   Section       16  nrf_fprintf_format.o(.constdata)
    _aV2C                                    0x0002ddcc   Data          16  nrf_fprintf_format.o(.constdata)
    .constdata                               0x0002dddc   Section       94  nrf_fstorage.o(.constdata)
    __func__                                 0x0002dddc   Data          18  nrf_fstorage.o(.constdata)
    __func__                                 0x0002ddee   Data          20  nrf_fstorage.o(.constdata)
    __func__                                 0x0002de02   Data          18  nrf_fstorage.o(.constdata)
    __func__                                 0x0002de14   Data          19  nrf_fstorage.o(.constdata)
    __func__                                 0x0002de27   Data          19  nrf_fstorage.o(.constdata)
    .constdata                               0x0002de3c   Section       16  nrf_fstorage_sd.o(.constdata)
    m_fifo                                   0x0002de3c   Data           4  nrf_fstorage_sd.o(.constdata)
    m_flash_info                             0x0002de40   Data          12  nrf_fstorage_sd.o(.constdata)
    .constdata                               0x0002de4c   Section       32  nrf_fstorage_sd.o(.constdata)
    .constdata                               0x0002de6c   Section        8  nrf_queue.o(.constdata)
    nrf_queue_commands                       0x0002de6c   Data           8  nrf_queue.o(.constdata)
    .constdata                               0x0002de74   Section       32  nrf_queue.o(.constdata)
    nrf_queue_commands_raw                   0x0002de74   Data          32  nrf_queue.o(.constdata)
    .constdata                               0x0002de94   Section       16  nrf_queue.o(.constdata)
    .constdata                               0x0002dea4   Section      316  nrf_strerror.o(.constdata)
    m_unknown_str                            0x0002dea4   Data          19  nrf_strerror.o(.constdata)
    nrf_strerror_array                       0x0002deb8   Data         296  nrf_strerror.o(.constdata)
    .constdata                               0x0002dfe0   Section       12  nrf_log_backend_uart.o(.constdata)
    .constdata                               0x0002dfec   Section       32  nrf_log_backend_uart.o(.constdata)
    .constdata                               0x0002e00c   Section       28  nrf_log_frontend.o(.constdata)
    m_module_name                            0x0002e00c   Data           8  nrf_log_frontend.o(.constdata)
    m_sub_log_backend                        0x0002e014   Data           8  nrf_log_frontend.o(.constdata)
    m_log_push_ringbuf                       0x0002e01c   Data          12  nrf_log_frontend.o(.constdata)
    .constdata                               0x0002e028   Section        8  nrf_log_frontend.o(.constdata)
    m_severity_lvl                           0x0002e028   Data           8  nrf_log_frontend.o(.constdata)
    .constdata                               0x0002e030   Section       96  nrf_log_frontend.o(.constdata)
    m_sub_log_backend_raw                    0x0002e030   Data          96  nrf_log_frontend.o(.constdata)
    .constdata                               0x0002e090   Section        8  nrf_log_frontend.o(.constdata)
    m_backend_name_dynamic                   0x0002e090   Data           8  nrf_log_frontend.o(.constdata)
    .constdata                               0x0002e098   Section        8  nrf_log_frontend.o(.constdata)
    m_sub_log_config                         0x0002e098   Data           8  nrf_log_frontend.o(.constdata)
    .constdata                               0x0002e0a0   Section       48  nrf_log_frontend.o(.constdata)
    m_sub_log_config_raw                     0x0002e0a0   Data          48  nrf_log_frontend.o(.constdata)
    .constdata                               0x0002e0d0   Section        8  nrf_log_frontend.o(.constdata)
    m_sub_log_stat                           0x0002e0d0   Data           8  nrf_log_frontend.o(.constdata)
    .constdata                               0x0002e0d8   Section      144  nrf_log_frontend.o(.constdata)
    m_sub_log_stat_raw                       0x0002e0d8   Data         144  nrf_log_frontend.o(.constdata)
    .constdata                               0x0002e168   Section       16  nrf_log_frontend.o(.constdata)
    .constdata                               0x0002e178   Section       16  nrf_sdh.o(.constdata)
    sdh_req_observers_array                  0x0002e178   Data          16  nrf_sdh.o(.constdata)
    .constdata                               0x0002e188   Section       40  nrf_sdh.o(.constdata)
    sdh_req_observers                        0x0002e18c   Data          12  nrf_sdh.o(.constdata)
    sdh_state_observers                      0x0002e198   Data          12  nrf_sdh.o(.constdata)
    sdh_stack_observers                      0x0002e1a4   Data          12  nrf_sdh.o(.constdata)
    .constdata                               0x0002e1b0   Section       16  nrf_sdh.o(.constdata)
    sdh_state_observers_array                0x0002e1b0   Data          16  nrf_sdh.o(.constdata)
    .constdata                               0x0002e1c0   Section       16  nrf_sdh.o(.constdata)
    sdh_stack_observers_array                0x0002e1c0   Data          16  nrf_sdh.o(.constdata)
    .constdata                               0x0002e1d0   Section       32  nrf_sdh_ble.o(.constdata)
    sdh_ble_observers_array                  0x0002e1d0   Data          32  nrf_sdh_ble.o(.constdata)
    .constdata                               0x0002e1f0   Section       16  nrf_sdh_ble.o(.constdata)
    sdh_ble_observers                        0x0002e1f4   Data          12  nrf_sdh_ble.o(.constdata)
    .constdata                               0x0002e200   Section       16  nrf_sdh_soc.o(.constdata)
    sdh_soc_observers_array                  0x0002e200   Data          16  nrf_sdh_soc.o(.constdata)
    .constdata                               0x0002e210   Section       12  nrf_sdh_soc.o(.constdata)
    sdh_soc_observers                        0x0002e210   Data          12  nrf_sdh_soc.o(.constdata)
    .constdata                               0x0002e21c   Section      129  ctype_o.o(.constdata)
    .constdata                               0x0002e2a0   Section        4  ctype_o.o(.constdata)
    table                                    0x0002e2a0   Data           4  ctype_o.o(.constdata)
    .conststring                             0x0002e2a4   Section       21  cli.o(.conststring)
    .conststring                             0x0002e2bc   Section      280  cli.o(.conststring)
    .conststring                             0x0002e3d4   Section      242  cli.o(.conststring)
    .conststring                             0x0002e4c8   Section       51  cli.o(.conststring)
    .conststring                             0x0002e4fc   Section      145  cli.o(.conststring)
    .conststring                             0x0002e590   Section      134  cli.o(.conststring)
    .conststring                             0x0002e618   Section      107  cli.o(.conststring)
    .conststring                             0x0002e684   Section      134  main.o(.conststring)
    .conststring                             0x0002e70c   Section       43  nrf_balloc.o(.conststring)
    .conststring                             0x0002e738   Section       39  nrf_balloc.o(.conststring)
    .conststring                             0x0002e760   Section      142  nrf_balloc.o(.conststring)
    .conststring                             0x0002e7f0   Section       55  nrf_cli.o(.conststring)
    .conststring                             0x0002e828   Section      109  nrf_cli.o(.conststring)
    .conststring                             0x0002e898   Section      101  nrf_cli.o(.conststring)
    .conststring                             0x0002e900   Section       82  nrf_cli.o(.conststring)
    .conststring                             0x0002e954   Section       76  nrf_cli.o(.conststring)
    .conststring                             0x0002e9a0   Section       22  nrf_cli.o(.conststring)
    .conststring                             0x0002e9b8   Section       40  nrf_cli.o(.conststring)
    .conststring                             0x0002e9e0   Section       28  nrf_cli.o(.conststring)
    .conststring                             0x0002e9fc   Section      167  nrf_cli.o(.conststring)
    .conststring                             0x0002eaa4   Section        3  nrf_cli.o(.conststring)
    .conststring                             0x0002eaa8   Section       79  nrf_fstorage.o(.conststring)
    .conststring                             0x0002eaf8   Section       33  nrf_queue.o(.conststring)
    .conststring                             0x0002eb1c   Section        6  nrf_queue.o(.conststring)
    .conststring                             0x0002eb24   Section      124  nrf_queue.o(.conststring)
    .conststring                             0x0002eba0   Section     1003  nrf_strerror.o(.conststring)
    .conststring                             0x0002ef8c   Section       38  nrf_log_frontend.o(.conststring)
    .conststring                             0x0002efb4   Section      313  nrf_log_frontend.o(.conststring)
    .conststring                             0x0002f0f0   Section      118  nrf_log_frontend.o(.conststring)
    .conststring                             0x0002f168   Section      110  nrf_log_frontend.o(.conststring)
    .conststring                             0x0002f1d8   Section       36  nrf_log_frontend.o(.conststring)
    .conststring                             0x0002f1fc   Section       72  nrf_log_str_formatter.o(.conststring)
    .conststring                             0x0002f244   Section      392  nrf_sdh_ble.o(.conststring)
    .conststrlit                             0x0002f3cc   Section      183  cli.o(.conststrlit)
    .conststrlit                             0x0002f484   Section        4  nrfx_prs.o(.conststrlit)
    .conststrlit                             0x0002f488   Section        5  nrfx_uart.o(.conststrlit)
    .conststrlit                             0x0002f490   Section        6  nrfx_uarte.o(.conststrlit)
    .conststrlit                             0x0002f498   Section       30  app_timer2.o(.conststrlit)
    .conststrlit                             0x0002f4b8   Section        9  nrf_cli_uart.o(.conststrlit)
    .conststrlit                             0x0002f4c4   Section       13  nrf_fstorage.o(.conststrlit)
    .conststrlit                             0x0002f4d4   Section       14  nrf_fstorage_sd.o(.conststrlit)
    .conststrlit                             0x0002f4e4   Section        9  nrf_sortlist.o(.conststrlit)
    .conststrlit                             0x0002f4f0   Section       17  nrf_log_default_backends.o(.conststrlit)
    .conststrlit                             0x0002f504   Section       36  nrf_log_frontend.o(.conststrlit)
    .conststrlit                             0x0002f528   Section        8  nrf_sdh.o(.conststrlit)
    .conststrlit                             0x0002f530   Section       12  nrf_sdh_ble.o(.conststrlit)
    .conststrlit                             0x0002f53c   Section       12  nrf_sdh_soc.o(.conststrlit)
    cli_command                              0x0002f568   Section       32  cli.o(cli_command)
    __tagsym$$used                           0x0002f568   Number         0  cli.o(cli_command)
    __tagsym$$used                           0x0002f570   Number         0  cli.o(cli_command)
    __tagsym$$used                           0x0002f578   Number         0  cli.o(cli_command)
    __tagsym$$used                           0x0002f580   Number         0  cli.o(cli_command)
    cli_command                              0x0002f588   Section        8  nrf_balloc.o(cli_command)
    __tagsym$$used                           0x0002f588   Number         0  nrf_balloc.o(cli_command)
    cli_command                              0x0002f590   Section       32  nrf_cli.o(cli_command)
    __tagsym$$used                           0x0002f590   Number         0  nrf_cli.o(cli_command)
    __tagsym$$used                           0x0002f598   Number         0  nrf_cli.o(cli_command)
    __tagsym$$used                           0x0002f5a0   Number         0  nrf_cli.o(cli_command)
    __tagsym$$used                           0x0002f5a8   Number         0  nrf_cli.o(cli_command)
    cli_command                              0x0002f5b0   Section        8  nrf_queue.o(cli_command)
    __tagsym$$used                           0x0002f5b0   Number         0  nrf_queue.o(cli_command)
    cli_command                              0x0002f5b8   Section        8  nrf_log_frontend.o(cli_command)
    __tagsym$$used                           0x0002f5b8   Number         0  nrf_log_frontend.o(cli_command)
    log_backends                             0x0002f5c0   Section       16  cli.o(log_backends)
    __tagsym$$used                           0x0002f5c0   Number         0  cli.o(log_backends)
    m_cli_uart_log_backend                   0x0002f5c0   Data          16  cli.o(log_backends)
    log_backends                             0x0002f5d0   Section       16  nrf_log_default_backends.o(log_backends)
    __tagsym$$used                           0x0002f5d0   Number         0  nrf_log_default_backends.o(log_backends)
    uart_log_backend                         0x0002f5d0   Data          16  nrf_log_default_backends.o(log_backends)
    log_const_data                           0x0002f5e0   Section       24  cli.o(log_const_data)
    __tagsym$$used                           0x0002f5e0   Number         0  cli.o(log_const_data)
    __tagsym$$used                           0x0002f5e8   Number         0  cli.o(log_const_data)
    __tagsym$$used                           0x0002f5f0   Number         0  cli.o(log_const_data)
    log_const_data                           0x0002f5f8   Section        8  nrfx_prs.o(log_const_data)
    __tagsym$$used                           0x0002f5f8   Number         0  nrfx_prs.o(log_const_data)
    log_const_data                           0x0002f600   Section        8  nrfx_uart.o(log_const_data)
    __tagsym$$used                           0x0002f600   Number         0  nrfx_uart.o(log_const_data)
    log_const_data                           0x0002f608   Section        8  nrfx_uarte.o(log_const_data)
    __tagsym$$used                           0x0002f608   Number         0  nrfx_uarte.o(log_const_data)
    log_const_data                           0x0002f610   Section       16  app_timer2.o(log_const_data)
    __tagsym$$used                           0x0002f610   Number         0  app_timer2.o(log_const_data)
    __tagsym$$used                           0x0002f618   Number         0  app_timer2.o(log_const_data)
    log_const_data                           0x0002f620   Section        8  nrf_cli_uart.o(log_const_data)
    __tagsym$$used                           0x0002f620   Number         0  nrf_cli_uart.o(log_const_data)
    log_const_data                           0x0002f628   Section        8  nrf_fstorage.o(log_const_data)
    __tagsym$$used                           0x0002f628   Number         0  nrf_fstorage.o(log_const_data)
    log_const_data                           0x0002f630   Section        8  nrf_fstorage_sd.o(log_const_data)
    __tagsym$$used                           0x0002f630   Number         0  nrf_fstorage_sd.o(log_const_data)
    log_const_data                           0x0002f638   Section        8  nrf_sortlist.o(log_const_data)
    __tagsym$$used                           0x0002f638   Number         0  nrf_sortlist.o(log_const_data)
    log_const_data                           0x0002f640   Section       16  nrf_log_frontend.o(log_const_data)
    __tagsym$$used                           0x0002f640   Number         0  nrf_log_frontend.o(log_const_data)
    __tagsym$$used                           0x0002f648   Number         0  nrf_log_frontend.o(log_const_data)
    log_const_data                           0x0002f650   Section        8  nrf_sdh.o(log_const_data)
    __tagsym$$used                           0x0002f650   Number         0  nrf_sdh.o(log_const_data)
    log_const_data                           0x0002f658   Section        8  nrf_sdh_ble.o(log_const_data)
    __tagsym$$used                           0x0002f658   Number         0  nrf_sdh_ble.o(log_const_data)
    log_const_data                           0x0002f660   Section        8  nrf_sdh_soc.o(log_const_data)
    __tagsym$$used                           0x0002f660   Number         0  nrf_sdh_soc.o(log_const_data)
    nrf_balloc                               0x0002f668   Section       28  cli.o(nrf_balloc)
    __tagsym$$used                           0x0002f668   Number         0  cli.o(nrf_balloc)
    nrf_balloc                               0x0002f684   Section       28  nrf_log_frontend.o(nrf_balloc)
    __tagsym$$used                           0x0002f684   Number         0  nrf_log_frontend.o(nrf_balloc)
    nrf_queue                                0x0002f6a0   Section       28  cli.o(nrf_queue)
    __tagsym$$used                           0x0002f6a0   Number         0  cli.o(nrf_queue)
    sdh_req_observers0                       0x0002f6bc   Section        8  nrf_fstorage_sd.o(sdh_req_observers0)
    __tagsym$$used                           0x0002f6bc   Number         0  nrf_fstorage_sd.o(sdh_req_observers0)
    sdh_soc_observers0                       0x0002f6c4   Section        8  nrf_fstorage_sd.o(sdh_soc_observers0)
    __tagsym$$used                           0x0002f6c4   Number         0  nrf_fstorage_sd.o(sdh_soc_observers0)
    m_sys_obs                                0x0002f6c4   Data           8  nrf_fstorage_sd.o(sdh_soc_observers0)
    sdh_stack_observers0                     0x0002f6cc   Section        8  nrf_sdh_ble.o(sdh_stack_observers0)
    __tagsym$$used                           0x0002f6cc   Number         0  nrf_sdh_ble.o(sdh_stack_observers0)
    m_nrf_sdh_ble_evts_poll                  0x0002f6cc   Data           8  nrf_sdh_ble.o(sdh_stack_observers0)
    sdh_stack_observers0                     0x0002f6d4   Section        8  nrf_sdh_soc.o(sdh_stack_observers0)
    __tagsym$$used                           0x0002f6d4   Number         0  nrf_sdh_soc.o(sdh_stack_observers0)
    m_nrf_sdh_soc_evts_poll                  0x0002f6d4   Data           8  nrf_sdh_soc.o(sdh_stack_observers0)
    sdh_state_observers0                     0x0002f6dc   Section        8  nrf_fstorage_sd.o(sdh_state_observers0)
    __tagsym$$used                           0x0002f6dc   Number         0  nrf_fstorage_sd.o(sdh_state_observers0)
    m_state_obs                              0x0002f6dc   Data           8  nrf_fstorage_sd.o(sdh_state_observers0)
    .data                                    0x20002250   Section       40  cli.o(.data)
    cli_uart_timer_data                      0x20002250   Data          40  cli.o(.data)
    .data                                    0x20002278   Section       24  cli.o(.data)
    m_cli_uart_fprintf_ctx                   0x20002278   Data          24  cli.o(.data)
    .data                                    0x20002290   Section       12  cli.o(.data)
    cli_log_backendm_cli_uart_log_backend    0x20002290   Data          12  cli.o(.data)
    .data                                    0x2000229c   Section        8  cli.o(.data)
    log_backend_cb_m_cli_uart_log_backend    0x2000229c   Data           8  cli.o(.data)
    .data                                    0x200022a4   Section        8  cli.o(.data)
    m_cli_uart_cmd_hist_memobj_nrf_balloc_pool_stack 0x200022a4   Data           8  cli.o(.data)
    .data                                    0x200022ac   Section        8  cli.o(.data)
    m_cli_uart_cmd_hist_memobj_nrf_balloc_cb 0x200022ac   Data           8  cli.o(.data)
    .data                                    0x200022b4   Section       16  main.o(.data)
    m_data                                   0x200022b4   Data           4  main.o(.data)
    m_hello_world                            0x200022b8   Data          12  main.o(.data)
    .data                                    0x200022c4   Section       12  nrf_drv_uart.o(.data)
    m_handlers                               0x200022c8   Data           4  nrf_drv_uart.o(.data)
    m_contexts                               0x200022cc   Data           4  nrf_drv_uart.o(.data)
    .data                                    0x200022d0   Section        8  nrfx_prs.o(.data)
    m_prs_box_4                              0x200022d0   Data           8  nrfx_prs.o(.data)
    .data                                    0x200022d8   Section       32  app_timer2.o(.data)
    m_global_active                          0x200022d8   Data           1  app_timer2.o(.data)
    mp_active_timer                          0x200022dc   Data           4  app_timer2.o(.data)
    m_rtc_inst                               0x200022e0   Data           8  app_timer2.o(.data)
    m_base_counter                           0x200022e8   Data           8  app_timer2.o(.data)
    m_stamp64                                0x200022f0   Data           8  app_timer2.o(.data)
    .data                                    0x200022f8   Section       20  app_timer2.o(.data)
    m_req_fifo_inst                          0x200022f8   Data          20  app_timer2.o(.data)
    .data                                    0x2000230c   Section        4  app_timer2.o(.data)
    m_app_timer_sortlist_sortlist_cb         0x2000230c   Data           4  app_timer2.o(.data)
    .data                                    0x20002310   Section       12  drv_rtc.o(.data)
    m_handlers                               0x20002310   Data           4  drv_rtc.o(.data)
    m_cb                                     0x20002314   Data           8  drv_rtc.o(.data)
    .data                                    0x2000231c   Section        4  nrf_cli.o(.data)
    tab                                      0x2000231c   Data           4  nrf_cli.o(.data)
    .data                                    0x20002320   Section       20  nrf_fstorage_sd.o(.data)
    m_fifo_inst                              0x20002320   Data          20  nrf_fstorage_sd.o(.data)
    .data                                    0x20002334   Section        8  nrf_fstorage_sd.o(.data)
    m_p_cur_op                               0x20002334   Data           4  nrf_fstorage_sd.o(.data)
    m_iget_ctx                               0x20002338   Data           4  nrf_fstorage_sd.o(.data)
    .data                                    0x2000233c   Section       24  nrf_log_backend_uart.o(.data)
    m_xfer_done                              0x2000233c   Data           1  nrf_log_backend_uart.o(.data)
    m_async_mode                             0x2000233d   Data           1  nrf_log_backend_uart.o(.data)
    .data                                    0x20002354   Section        8  nrf_log_default_backends.o(.data)
    log_backend_cb_uart_log_backend          0x20002354   Data           8  nrf_log_default_backends.o(.data)
    .data                                    0x2000235c   Section       44  nrf_log_frontend.o(.data)
    m_buffer_mask                            0x2000235c   Data           4  nrf_log_frontend.o(.data)
    m_severity_lvls                          0x20002360   Data          20  nrf_log_frontend.o(.data)
    m_severity_lvls_sorted                   0x20002374   Data          20  nrf_log_frontend.o(.data)
    .data                                    0x20002388   Section        8  nrf_log_frontend.o(.data)
    log_mempool_nrf_balloc_pool_stack        0x20002388   Data           8  nrf_log_frontend.o(.data)
    .data                                    0x20002390   Section        8  nrf_log_frontend.o(.data)
    log_mempool_nrf_balloc_cb                0x20002390   Data           8  nrf_log_frontend.o(.data)
    .data                                    0x20002398   Section       64  nrf_log_str_formatter.o(.data)
    m_freq                                   0x20002398   Data           4  nrf_log_str_formatter.o(.data)
    m_timestamp_div                          0x2000239c   Data           4  nrf_log_str_formatter.o(.data)
    severity_names                           0x200023a0   Data          20  nrf_log_str_formatter.o(.data)
    m_colors                                 0x200023b4   Data          36  nrf_log_str_formatter.o(.data)
    .data                                    0x200023d8   Section        3  nrf_sdh.o(.data)
    m_nrf_sdh_enabled                        0x200023d8   Data           1  nrf_sdh.o(.data)
    m_nrf_sdh_suspended                      0x200023d9   Data           1  nrf_sdh.o(.data)
    m_nrf_sdh_continue                       0x200023da   Data           1  nrf_sdh.o(.data)
    .data                                    0x200023db   Section        1  nrf_sdh_ble.o(.data)
    m_stack_is_enabled                       0x200023db   Data           1  nrf_sdh_ble.o(.data)
    .data                                    0x200023dc   Section        4  system_nrf52.o(.data)
    __tagsym$$used                           0x200023dc   Number         0  system_nrf52.o(.data)
    .data                                    0x200023e0   Section        4  errno.o(.data)
    _errno                                   0x200023e0   Data           4  errno.o(.data)
    cli_sorted_cmd_ptrs                      0x200023e4   Section       16  cli.o(cli_sorted_cmd_ptrs)
    __tagsym$$used                           0x200023e4   Number         0  cli.o(cli_sorted_cmd_ptrs)
    __tagsym$$used                           0x200023e8   Number         0  cli.o(cli_sorted_cmd_ptrs)
    __tagsym$$used                           0x200023ec   Number         0  cli.o(cli_sorted_cmd_ptrs)
    __tagsym$$used                           0x200023f0   Number         0  cli.o(cli_sorted_cmd_ptrs)
    cli_sorted_cmd_ptrs                      0x200023f4   Section        4  nrf_balloc.o(cli_sorted_cmd_ptrs)
    __tagsym$$used                           0x200023f4   Number         0  nrf_balloc.o(cli_sorted_cmd_ptrs)
    cli_sorted_cmd_ptrs                      0x200023f8   Section       16  nrf_cli.o(cli_sorted_cmd_ptrs)
    __tagsym$$used                           0x200023f8   Number         0  nrf_cli.o(cli_sorted_cmd_ptrs)
    __tagsym$$used                           0x200023fc   Number         0  nrf_cli.o(cli_sorted_cmd_ptrs)
    __tagsym$$used                           0x20002400   Number         0  nrf_cli.o(cli_sorted_cmd_ptrs)
    __tagsym$$used                           0x20002404   Number         0  nrf_cli.o(cli_sorted_cmd_ptrs)
    cli_sorted_cmd_ptrs                      0x20002408   Section        4  nrf_queue.o(cli_sorted_cmd_ptrs)
    __tagsym$$used                           0x20002408   Number         0  nrf_queue.o(cli_sorted_cmd_ptrs)
    cli_sorted_cmd_ptrs                      0x2000240c   Section        4  nrf_log_frontend.o(cli_sorted_cmd_ptrs)
    __tagsym$$used                           0x2000240c   Number         0  nrf_log_frontend.o(cli_sorted_cmd_ptrs)
    fs_data                                  0x20002410   Section       20  main.o(fs_data)
    __tagsym$$used                           0x20002410   Number         0  main.o(fs_data)
    log_dynamic_data                         0x20002424   Section       12  cli.o(log_dynamic_data)
    __tagsym$$used                           0x20002424   Number         0  cli.o(log_dynamic_data)
    __tagsym$$used                           0x20002428   Number         0  cli.o(log_dynamic_data)
    __tagsym$$used                           0x2000242c   Number         0  cli.o(log_dynamic_data)
    log_dynamic_data                         0x20002430   Section        4  nrfx_prs.o(log_dynamic_data)
    __tagsym$$used                           0x20002430   Number         0  nrfx_prs.o(log_dynamic_data)
    log_dynamic_data                         0x20002434   Section        4  nrfx_uart.o(log_dynamic_data)
    __tagsym$$used                           0x20002434   Number         0  nrfx_uart.o(log_dynamic_data)
    log_dynamic_data                         0x20002438   Section        4  nrfx_uarte.o(log_dynamic_data)
    __tagsym$$used                           0x20002438   Number         0  nrfx_uarte.o(log_dynamic_data)
    log_dynamic_data                         0x2000243c   Section        8  app_timer2.o(log_dynamic_data)
    __tagsym$$used                           0x2000243c   Number         0  app_timer2.o(log_dynamic_data)
    __tagsym$$used                           0x20002440   Number         0  app_timer2.o(log_dynamic_data)
    log_dynamic_data                         0x20002444   Section        4  nrf_cli_uart.o(log_dynamic_data)
    __tagsym$$used                           0x20002444   Number         0  nrf_cli_uart.o(log_dynamic_data)
    log_dynamic_data                         0x20002448   Section        4  nrf_fstorage.o(log_dynamic_data)
    __tagsym$$used                           0x20002448   Number         0  nrf_fstorage.o(log_dynamic_data)
    log_dynamic_data                         0x2000244c   Section        4  nrf_fstorage_sd.o(log_dynamic_data)
    __tagsym$$used                           0x2000244c   Number         0  nrf_fstorage_sd.o(log_dynamic_data)
    log_dynamic_data                         0x20002450   Section        4  nrf_sortlist.o(log_dynamic_data)
    __tagsym$$used                           0x20002450   Number         0  nrf_sortlist.o(log_dynamic_data)
    log_dynamic_data                         0x20002454   Section        8  nrf_log_frontend.o(log_dynamic_data)
    __tagsym$$used                           0x20002454   Number         0  nrf_log_frontend.o(log_dynamic_data)
    __tagsym$$used                           0x20002458   Number         0  nrf_log_frontend.o(log_dynamic_data)
    log_dynamic_data                         0x2000245c   Section        4  nrf_sdh.o(log_dynamic_data)
    __tagsym$$used                           0x2000245c   Number         0  nrf_sdh.o(log_dynamic_data)
    log_dynamic_data                         0x20002460   Section        4  nrf_sdh_ble.o(log_dynamic_data)
    __tagsym$$used                           0x20002460   Number         0  nrf_sdh_ble.o(log_dynamic_data)
    log_dynamic_data                         0x20002464   Section        4  nrf_sdh_soc.o(log_dynamic_data)
    __tagsym$$used                           0x20002464   Number         0  nrf_sdh_soc.o(log_dynamic_data)
    log_filter_data                          0x20002468   Section       12  cli.o(log_filter_data)
    __tagsym$$used                           0x20002468   Number         0  cli.o(log_filter_data)
    __tagsym$$used                           0x2000246c   Number         0  cli.o(log_filter_data)
    __tagsym$$used                           0x20002470   Number         0  cli.o(log_filter_data)
    log_filter_data                          0x20002474   Section        4  nrfx_prs.o(log_filter_data)
    __tagsym$$used                           0x20002474   Number         0  nrfx_prs.o(log_filter_data)
    log_filter_data                          0x20002478   Section        4  nrfx_uart.o(log_filter_data)
    __tagsym$$used                           0x20002478   Number         0  nrfx_uart.o(log_filter_data)
    log_filter_data                          0x2000247c   Section        4  nrfx_uarte.o(log_filter_data)
    __tagsym$$used                           0x2000247c   Number         0  nrfx_uarte.o(log_filter_data)
    log_filter_data                          0x20002480   Section        8  app_timer2.o(log_filter_data)
    __tagsym$$used                           0x20002480   Number         0  app_timer2.o(log_filter_data)
    __tagsym$$used                           0x20002484   Number         0  app_timer2.o(log_filter_data)
    log_filter_data                          0x20002488   Section        4  nrf_cli_uart.o(log_filter_data)
    __tagsym$$used                           0x20002488   Number         0  nrf_cli_uart.o(log_filter_data)
    log_filter_data                          0x2000248c   Section        4  nrf_fstorage.o(log_filter_data)
    __tagsym$$used                           0x2000248c   Number         0  nrf_fstorage.o(log_filter_data)
    log_filter_data                          0x20002490   Section        4  nrf_fstorage_sd.o(log_filter_data)
    __tagsym$$used                           0x20002490   Number         0  nrf_fstorage_sd.o(log_filter_data)
    log_filter_data                          0x20002494   Section        4  nrf_sortlist.o(log_filter_data)
    __tagsym$$used                           0x20002494   Number         0  nrf_sortlist.o(log_filter_data)
    log_filter_data                          0x20002498   Section        8  nrf_log_frontend.o(log_filter_data)
    __tagsym$$used                           0x20002498   Number         0  nrf_log_frontend.o(log_filter_data)
    __tagsym$$used                           0x2000249c   Number         0  nrf_log_frontend.o(log_filter_data)
    log_filter_data                          0x200024a0   Section        4  nrf_sdh.o(log_filter_data)
    __tagsym$$used                           0x200024a0   Number         0  nrf_sdh.o(log_filter_data)
    log_filter_data                          0x200024a4   Section        4  nrf_sdh_ble.o(log_filter_data)
    __tagsym$$used                           0x200024a4   Number         0  nrf_sdh_ble.o(log_filter_data)
    log_filter_data                          0x200024a8   Section        4  nrf_sdh_soc.o(log_filter_data)
    __tagsym$$used                           0x200024a8   Number         0  nrf_sdh_soc.o(log_filter_data)
    .bss                                     0x200024ac   Section      256  cli.o(.bss)
    m_data                                   0x200024ac   Data         256  cli.o(.bss)
    .bss                                     0x200025ac   Section       64  cli.o(.bss)
    cli_uart_tx_ringbuf_buf                  0x200025ac   Data          64  cli.o(.bss)
    .bss                                     0x200025ec   Section       24  cli.o(.bss)
    cli_uart_tx_ringbuf_cb                   0x200025ec   Data          24  cli.o(.bss)
    .bss                                     0x20002604   Section      128  cli.o(.bss)
    cli_uart_rx_ringbuf_buf                  0x20002604   Data         128  cli.o(.bss)
    .bss                                     0x20002684   Section       24  cli.o(.bss)
    cli_uart_rx_ringbuf_cb                   0x20002684   Data          24  cli.o(.bss)
    .bss                                     0x2000269c   Section       44  cli.o(.bss)
    cli_uart_cb                              0x2000269c   Data          44  cli.o(.bss)
    .bss                                     0x200026c8   Section      332  cli.o(.bss)
    m_cli_uart_ctx                           0x200026c8   Data         332  cli.o(.bss)
    .bss                                     0x20002814   Section       20  cli.o(.bss)
    m_cli_uart_log_backend_queue_nrf_queue_buffer 0x20002814   Data          20  cli.o(.bss)
    .bss                                     0x20002828   Section       12  cli.o(.bss)
    m_cli_uart_log_backend_queue_nrf_queue_cb 0x20002828   Data          12  cli.o(.bss)
    .bss                                     0x20002834   Section      384  cli.o(.bss)
    m_cli_uart_cmd_hist_memobj_nrf_balloc_pool_mem 0x20002834   Data         384  cli.o(.bss)
    .bss                                     0x200029b4   Section       44  nrfx_uart.o(.bss)
    m_cb                                     0x200029b4   Data          44  nrfx_uart.o(.bss)
    .bss                                     0x200029e0   Section       36  nrfx_uarte.o(.bss)
    m_cb                                     0x200029e0   Data          36  nrfx_uarte.o(.bss)
    .bss                                     0x20002a04   Section       88  app_timer2.o(.bss)
    m_req_fifo_data                          0x20002a04   Data          88  app_timer2.o(.bss)
    .bss                                     0x20002a5c   Section       12  app_util_platform.o(.bss)
    .bss                                     0x20002a68   Section      160  nrf_fstorage_sd.o(.bss)
    m_fifo_data                              0x20002a68   Data         140  nrf_fstorage_sd.o(.bss)
    m_flags                                  0x20002af4   Data          20  nrf_fstorage_sd.o(.bss)
    .bss                                     0x20002b08   Section       64  nrf_log_backend_uart.o(.bss)
    m_string_buff                            0x20002b08   Data          64  nrf_log_backend_uart.o(.bss)
    .bss                                     0x20002b48   Section      192  nrf_log_frontend.o(.bss)
    log_mempool_nrf_balloc_pool_mem          0x20002b48   Data         192  nrf_log_frontend.o(.bss)
    .bss                                     0x20002c08   Section      128  nrf_log_frontend.o(.bss)
    m_log_push_ringbuf_buf                   0x20002c08   Data         128  nrf_log_frontend.o(.bss)
    .bss                                     0x20002c88   Section       24  nrf_log_frontend.o(.bss)
    m_log_push_ringbuf_cb                    0x20002c88   Data          24  nrf_log_frontend.o(.bss)
    .bss                                     0x20002ca0   Section     1056  nrf_log_frontend.o(.bss)
    m_log_data                               0x20002ca0   Data        1056  nrf_log_frontend.o(.bss)
    STACK                                    0x200030c0   Section     8192  arm_startup_nrf52.o(STACK)

    Global Symbols

    Symbol Name                              Value     Ov Type        Size  Object(Section)

    BuildAttributes$$THM_ISAv4$E$P$D$K$B$S$7EM$VFPi3$EXTD16$VFPS$VFMA$PE$A:L22UL41UL21$X:L11$S22US41US21$IEEE1$IW$USESV6$~STKCKD$USESV7$~SHL$OSPACE$EBA8$MICROLIB$REQ8$EABIv2 0x00000000   Number         0  anon$$obj.o ABSOLUTE
    __ARM_use_no_argv                        0x00000000   Number         0  main.o ABSOLUTE
    __cpp_initialize__aeabi_                  - Undefined Weak Reference
    __cxa_finalize                            - Undefined Weak Reference
    _clock_init                               - Undefined Weak Reference
    _microlib_exit                            - Undefined Weak Reference
    sdh_ble_observers0$$Base                  - Undefined Reference
    sdh_ble_observers0$$Limit                 - Undefined Reference
    sdh_ble_observers1$$Base                  - Undefined Reference
    sdh_ble_observers1$$Limit                 - Undefined Reference
    sdh_ble_observers2$$Base                  - Undefined Reference
    sdh_ble_observers2$$Limit                 - Undefined Reference
    sdh_ble_observers3$$Base                  - Undefined Reference
    sdh_ble_observers3$$Limit                 - Undefined Reference
    sdh_req_observers1$$Base                  - Undefined Reference
    sdh_req_observers1$$Limit                 - Undefined Reference
    sdh_soc_observers1$$Base                  - Undefined Reference
    sdh_soc_observers1$$Limit                 - Undefined Reference
    sdh_stack_observers1$$Base                - Undefined Reference
    sdh_stack_observers1$$Limit               - Undefined Reference
    sdh_state_observers1$$Base                - Undefined Reference
    sdh_state_observers1$$Limit               - Undefined Reference
    __Vectors_Size                           0x00000200   Number         0  arm_startup_nrf52.o ABSOLUTE
    __Vectors                                0x00026000   Data           4  arm_startup_nrf52.o(RESET)
    __Vectors_End                            0x00026200   Data           0  arm_startup_nrf52.o(RESET)
    __main                                   0x00026201   Thumb Code     0  entry.o(.ARM.Collect$$$$00000000)
    _main_stk                                0x00026201   Thumb Code     0  entry2.o(.ARM.Collect$$$$00000001)
    _main_scatterload                        0x00026205   Thumb Code     0  entry5.o(.ARM.Collect$$$$00000004)
    __main_after_scatterload                 0x00026209   Thumb Code     0  entry5.o(.ARM.Collect$$$$00000004)
    _main_clock                              0x00026209   Thumb Code     0  entry7b.o(.ARM.Collect$$$$00000008)
    _main_cpp_init                           0x00026209   Thumb Code     0  entry8b.o(.ARM.Collect$$$$0000000A)
    _main_init                               0x00026209   Thumb Code     0  entry9a.o(.ARM.Collect$$$$0000000B)
    __rt_final_cpp                           0x00026211   Thumb Code     0  entry10a.o(.ARM.Collect$$$$0000000D)
    __rt_final_exit                          0x00026211   Thumb Code     0  entry11a.o(.ARM.Collect$$$$0000000F)
    __asm___12_nrf_atfifo_c_51f461e1__nrf_atfifo_wspace_req 0x00026215   Thumb Code    56  nrf_atfifo.o(.emb_text)
    __asm___12_nrf_atfifo_c_51f461e1__nrf_atfifo_wspace_close 0x0002624d   Thumb Code    18  nrf_atfifo.o(.emb_text)
    __asm___12_nrf_atfifo_c_51f461e1__nrf_atfifo_rspace_req 0x0002625f   Thumb Code    58  nrf_atfifo.o(.emb_text)
    __asm___12_nrf_atfifo_c_51f461e1__nrf_atfifo_rspace_close 0x00026299   Thumb Code    18  nrf_atfifo.o(.emb_text)
    __asm___12_nrf_atfifo_c_51f461e1__nrf_atfifo_space_clear 0x000262ab   Thumb Code    50  nrf_atfifo.o(.emb_text)
    __asm___12_nrf_atomic_c_85ca2469__nrf_atomic_internal_mov 0x000262dd   Thumb Code    24  nrf_atomic.o(.emb_text)
    __asm___12_nrf_atomic_c_85ca2469__nrf_atomic_internal_orr 0x000262f5   Thumb Code    26  nrf_atomic.o(.emb_text)
    __asm___12_nrf_atomic_c_85ca2469__nrf_atomic_internal_and 0x0002630f   Thumb Code    26  nrf_atomic.o(.emb_text)
    __asm___12_nrf_atomic_c_85ca2469__nrf_atomic_internal_eor 0x00026329   Thumb Code    26  nrf_atomic.o(.emb_text)
    __asm___12_nrf_atomic_c_85ca2469__nrf_atomic_internal_add 0x00026343   Thumb Code    26  nrf_atomic.o(.emb_text)
    __asm___12_nrf_atomic_c_85ca2469__nrf_atomic_internal_sub 0x0002635d   Thumb Code    26  nrf_atomic.o(.emb_text)
    __asm___12_nrf_atomic_c_85ca2469__nrf_atomic_internal_cmp_exch 0x00026377   Thumb Code    42  nrf_atomic.o(.emb_text)
    __asm___12_nrf_atomic_c_85ca2469__nrf_atomic_internal_sub_hs 0x000263a1   Thumb Code    30  nrf_atomic.o(.emb_text)
    Reset_Handler                            0x000263c1   Thumb Code     8  arm_startup_nrf52.o(.text)
    NMI_Handler                              0x000263c9   Thumb Code     2  arm_startup_nrf52.o(.text)
    HardFault_Handler                        0x000263cb   Thumb Code     2  arm_startup_nrf52.o(.text)
    MemoryManagement_Handler                 0x000263cd   Thumb Code     2  arm_startup_nrf52.o(.text)
    BusFault_Handler                         0x000263cf   Thumb Code     2  arm_startup_nrf52.o(.text)
    UsageFault_Handler                       0x000263d1   Thumb Code     2  arm_startup_nrf52.o(.text)
    SVC_Handler                              0x000263d3   Thumb Code     2  arm_startup_nrf52.o(.text)
    DebugMon_Handler                         0x000263d5   Thumb Code     2  arm_startup_nrf52.o(.text)
    PendSV_Handler                           0x000263d7   Thumb Code     2  arm_startup_nrf52.o(.text)
    SysTick_Handler                          0x000263d9   Thumb Code     2  arm_startup_nrf52.o(.text)
    CCM_AAR_IRQHandler                       0x000263db   Thumb Code     0  arm_startup_nrf52.o(.text)
    COMP_LPCOMP_IRQHandler                   0x000263db   Thumb Code     0  arm_startup_nrf52.o(.text)
    ECB_IRQHandler                           0x000263db   Thumb Code     0  arm_startup_nrf52.o(.text)
    FPU_IRQHandler                           0x000263db   Thumb Code     0  arm_startup_nrf52.o(.text)
    GPIOTE_IRQHandler                        0x000263db   Thumb Code     0  arm_startup_nrf52.o(.text)
    I2S_IRQHandler                           0x000263db   Thumb Code     0  arm_startup_nrf52.o(.text)
    MWU_IRQHandler                           0x000263db   Thumb Code     0  arm_startup_nrf52.o(.text)
    NFCT_IRQHandler                          0x000263db   Thumb Code     0  arm_startup_nrf52.o(.text)
    PDM_IRQHandler                           0x000263db   Thumb Code     0  arm_startup_nrf52.o(.text)
    POWER_CLOCK_IRQHandler                   0x000263db   Thumb Code     0  arm_startup_nrf52.o(.text)
    PWM0_IRQHandler                          0x000263db   Thumb Code     0  arm_startup_nrf52.o(.text)
    PWM1_IRQHandler                          0x000263db   Thumb Code     0  arm_startup_nrf52.o(.text)
    PWM2_IRQHandler                          0x000263db   Thumb Code     0  arm_startup_nrf52.o(.text)
    QDEC_IRQHandler                          0x000263db   Thumb Code     0  arm_startup_nrf52.o(.text)
    RADIO_IRQHandler                         0x000263db   Thumb Code     0  arm_startup_nrf52.o(.text)
    RNG_IRQHandler                           0x000263db   Thumb Code     0  arm_startup_nrf52.o(.text)
    RTC0_IRQHandler                          0x000263db   Thumb Code     0  arm_startup_nrf52.o(.text)
    RTC2_IRQHandler                          0x000263db   Thumb Code     0  arm_startup_nrf52.o(.text)
    SAADC_IRQHandler                         0x000263db   Thumb Code     0  arm_startup_nrf52.o(.text)
    SPIM0_SPIS0_TWIM0_TWIS0_SPI0_TWI0_IRQHandler 0x000263db   Thumb Code     0  arm_startup_nrf52.o(.text)
    SPIM1_SPIS1_TWIM1_TWIS1_SPI1_TWI1_IRQHandler 0x000263db   Thumb Code     0  arm_startup_nrf52.o(.text)
    SPIM2_SPIS2_SPI2_IRQHandler              0x000263db   Thumb Code     0  arm_startup_nrf52.o(.text)
    SWI0_EGU0_IRQHandler                     0x000263db   Thumb Code     0  arm_startup_nrf52.o(.text)
    SWI1_EGU1_IRQHandler                     0x000263db   Thumb Code     0  arm_startup_nrf52.o(.text)
    SWI3_EGU3_IRQHandler                     0x000263db   Thumb Code     0  arm_startup_nrf52.o(.text)
    SWI4_EGU4_IRQHandler                     0x000263db   Thumb Code     0  arm_startup_nrf52.o(.text)
    SWI5_EGU5_IRQHandler                     0x000263db   Thumb Code     0  arm_startup_nrf52.o(.text)
    TEMP_IRQHandler                          0x000263db   Thumb Code     0  arm_startup_nrf52.o(.text)
    TIMER0_IRQHandler                        0x000263db   Thumb Code     0  arm_startup_nrf52.o(.text)
    TIMER1_IRQHandler                        0x000263db   Thumb Code     0  arm_startup_nrf52.o(.text)
    TIMER2_IRQHandler                        0x000263db   Thumb Code     0  arm_startup_nrf52.o(.text)
    TIMER3_IRQHandler                        0x000263db   Thumb Code     0  arm_startup_nrf52.o(.text)
    TIMER4_IRQHandler                        0x000263db   Thumb Code     0  arm_startup_nrf52.o(.text)
    WDT_IRQHandler                           0x000263db   Thumb Code     0  arm_startup_nrf52.o(.text)
    __rt_ctype_table                         0x000263e5   Thumb Code     4  ctype_o.o(.text)
    qsort                                    0x000263ed   Thumb Code   156  qsort.o(.text)
    ___aeabi_memcpy8$move                    0x00026489   Thumb Code     0  memmovea.o(.text)
    __aeabi_memcpy                           0x00026489   Thumb Code    64  memmovea.o(.text)
    __aeabi_memcpy4                          0x00026489   Thumb Code     0  memmovea.o(.text)
    __aeabi_memmove                          0x00026489   Thumb Code     0  memmovea.o(.text)
    __aeabi_memmove4                         0x00026489   Thumb Code     0  memmovea.o(.text)
    __aeabi_memmove8                         0x00026489   Thumb Code     0  memmovea.o(.text)
    __aeabi_memset                           0x000264c9   Thumb Code    14  memseta.o(.text)
    __aeabi_memset4                          0x000264c9   Thumb Code     0  memseta.o(.text)
    __aeabi_memset8                          0x000264c9   Thumb Code     0  memseta.o(.text)
    __aeabi_memclr                           0x000264d7   Thumb Code     4  memseta.o(.text)
    __aeabi_memclr4                          0x000264d7   Thumb Code     0  memseta.o(.text)
    __aeabi_memclr8                          0x000264d7   Thumb Code     0  memseta.o(.text)
    _memset$wrapper                          0x000264db   Thumb Code    18  memseta.o(.text)
    strlen                                   0x000264ed   Thumb Code    14  strlen.o(.text)
    strcmp                                   0x000264fb   Thumb Code    28  strcmp.o(.text)
    strcpy                                   0x00026517   Thumb Code    18  strcpy.o(.text)
    strncmp                                  0x00026529   Thumb Code    30  strncmp.o(.text)
    strtol                                   0x00026547   Thumb Code   112  strtol.o(.text)
    _strtoul                                 0x000265b7   Thumb Code   158  _strtoul.o(.text)
    __scatterload                            0x00026655   Thumb Code    28  init.o(.text)
    __scatterload_rt2                        0x00026655   Thumb Code     0  init.o(.text)
    _chval                                   0x00026679   Thumb Code    28  _chval.o(.text)
    __decompress                             0x00026695   Thumb Code     0  __dczerorl2.o(.text)
    __decompress1                            0x00026695   Thumb Code    86  __dczerorl2.o(.text)
    RTC1_IRQHandler                          0x000266ed   Thumb Code    12  drv_rtc.o(i.RTC1_IRQHandler)
    SWI2_EGU2_IRQHandler                     0x000266fd   Thumb Code     4  nrf_sdh.o(i.SWI2_EGU2_IRQHandler)
    SystemInit                               0x00026701   Thumb Code   660  system_nrf52.o(i.SystemInit)
    UARTE0_UART0_IRQHandler                  0x000269d9   Thumb Code     6  nrfx_prs.o(i.UARTE0_UART0_IRQHandler)
    __aeabi_errno_addr                       0x000269e5   Thumb Code     4  errno.o(i.__aeabi_errno_addr)
    __rt_errno_addr                          0x000269e5   Thumb Code     0  errno.o(i.__aeabi_errno_addr)
    __scatterload_copy                       0x000269ed   Thumb Code    14  handlers.o(i.__scatterload_copy)
    __scatterload_null                       0x000269fb   Thumb Code     2  handlers.o(i.__scatterload_null)
    __scatterload_zeroinit                   0x000269fd   Thumb Code    14  handlers.o(i.__scatterload_zeroinit)
    app_error_fault_handler                  0x00026a55   Thumb Code    98  app_error_weak.o(i.app_error_fault_handler)
    app_error_handler_bare                   0x00026ae9   Thumb Code    22  app_error.o(i.app_error_handler_bare)
    app_timer_cnt_get                        0x00026b01   Thumb Code     6  app_timer2.o(i.app_timer_cnt_get)
    app_timer_create                         0x00026b0d   Thumb Code    22  app_timer2.o(i.app_timer_create)
    app_timer_init                           0x00026b25   Thumb Code    70  app_timer2.o(i.app_timer_init)
    app_timer_start                          0x00026b81   Thumb Code    50  app_timer2.o(i.app_timer_start)
    app_timer_stop                           0x00026bb3   Thumb Code    14  app_timer2.o(i.app_timer_stop)
    app_util_critical_region_enter           0x00026bc1   Thumb Code    64  app_util_platform.o(i.app_util_critical_region_enter)
    app_util_critical_region_exit            0x00026c09   Thumb Code    46  app_util_platform.o(i.app_util_critical_region_exit)
    buffer_is_empty                          0x00026e59   Thumb Code    18  nrf_log_frontend.o(i.buffer_is_empty)
    cli_init                                 0x00027315   Thumb Code    58  cli.o(i.cli_init)
    cli_process                              0x00027501   Thumb Code     6  cli.o(i.cli_process)
    cli_start                                0x0002751d   Thumb Code    22  cli.o(i.cli_start)
    drv_rtc_compare_disable                  0x00028191   Thumb Code    20  drv_rtc.o(i.drv_rtc_compare_disable)
    drv_rtc_compare_pending                  0x000281a5   Thumb Code    14  drv_rtc.o(i.drv_rtc_compare_pending)
    drv_rtc_compare_set                      0x000281b3   Thumb Code    80  drv_rtc.o(i.drv_rtc_compare_set)
    drv_rtc_counter_get                      0x00028203   Thumb Code     8  drv_rtc.o(i.drv_rtc_counter_get)
    drv_rtc_init                             0x0002820d   Thumb Code   162  drv_rtc.o(i.drv_rtc_init)
    drv_rtc_irq_trigger                      0x000282f9   Thumb Code    30  drv_rtc.o(i.drv_rtc_irq_trigger)
    drv_rtc_overflow_enable                  0x00028317   Thumb Code     8  drv_rtc.o(i.drv_rtc_overflow_enable)
    drv_rtc_overflow_pending                 0x0002831f   Thumb Code     8  drv_rtc.o(i.drv_rtc_overflow_pending)
    drv_rtc_start                            0x00028327   Thumb Code     8  drv_rtc.o(i.drv_rtc_start)
    drv_rtc_stop                             0x0002832f   Thumb Code     8  drv_rtc.o(i.drv_rtc_stop)
    drv_rtc_windowed_compare_set             0x00028337   Thumb Code   222  drv_rtc.o(i.drv_rtc_windowed_compare_set)
    main                                     0x00029365   Thumb Code   442  main.o(i.main)
    nrf_atfifo_clear                         0x00029915   Thumb Code    16  nrf_atfifo.o(i.nrf_atfifo_clear)
    nrf_atfifo_init                          0x00029925   Thumb Code    38  nrf_atfifo.o(i.nrf_atfifo_init)
    nrf_atfifo_item_alloc                    0x0002994b   Thumb Code    22  nrf_atfifo.o(i.nrf_atfifo_item_alloc)
    nrf_atfifo_item_free                     0x00029961   Thumb Code    22  nrf_atfifo.o(i.nrf_atfifo_item_free)
    nrf_atfifo_item_get                      0x00029977   Thumb Code    22  nrf_atfifo.o(i.nrf_atfifo_item_get)
    nrf_atfifo_item_put                      0x0002998d   Thumb Code    22  nrf_atfifo.o(i.nrf_atfifo_item_put)
    nrf_atomic_flag_clear                    0x000299a3   Thumb Code     6  nrf_atomic.o(i.nrf_atomic_flag_clear)
    nrf_atomic_flag_clear_fetch              0x000299a9   Thumb Code     6  nrf_atomic.o(i.nrf_atomic_flag_clear_fetch)
    nrf_atomic_flag_set                      0x000299af   Thumb Code     6  nrf_atomic.o(i.nrf_atomic_flag_set)
    nrf_atomic_flag_set_fetch                0x000299b5   Thumb Code     6  nrf_atomic.o(i.nrf_atomic_flag_set_fetch)
    nrf_atomic_u32_add                       0x000299bb   Thumb Code    12  nrf_atomic.o(i.nrf_atomic_u32_add)
    nrf_atomic_u32_and                       0x000299c7   Thumb Code    12  nrf_atomic.o(i.nrf_atomic_u32_and)
    nrf_atomic_u32_fetch_and                 0x000299d3   Thumb Code    10  nrf_atomic.o(i.nrf_atomic_u32_fetch_and)
    nrf_atomic_u32_fetch_or                  0x000299dd   Thumb Code    10  nrf_atomic.o(i.nrf_atomic_u32_fetch_or)
    nrf_atomic_u32_fetch_store               0x000299e7   Thumb Code    10  nrf_atomic.o(i.nrf_atomic_u32_fetch_store)
    nrf_atomic_u32_or                        0x000299f1   Thumb Code    12  nrf_atomic.o(i.nrf_atomic_u32_or)
    nrf_atomic_u32_sub                       0x000299fd   Thumb Code    12  nrf_atomic.o(i.nrf_atomic_u32_sub)
    nrf_balloc_alloc                         0x00029a09   Thumb Code    68  nrf_balloc.o(i.nrf_balloc_alloc)
    nrf_balloc_free                          0x00029a4d   Thumb Code    48  nrf_balloc.o(i.nrf_balloc_free)
    nrf_balloc_init                          0x00029a7d   Thumb Code    48  nrf_balloc.o(i.nrf_balloc_init)
    nrf_cli_cmd_cli_stats                    0x00029cc5   Thumb Code    70  nrf_cli.o(i.nrf_cli_cmd_cli_stats)
    nrf_cli_cmd_cli_stats_reset              0x00029d31   Thumb Code    48  nrf_cli.o(i.nrf_cli_cmd_cli_stats_reset)
    nrf_cli_cmd_cli_stats_show               0x00029d61   Thumb Code    78  nrf_cli.o(i.nrf_cli_cmd_cli_stats_show)
    nrf_cli_fprintf                          0x0002a109   Thumb Code    80  nrf_cli.o(i.nrf_cli_fprintf)
    nrf_cli_help_print                       0x0002a159   Thumb Code   552  nrf_cli.o(i.nrf_cli_help_print)
    nrf_cli_init                             0x0002a3ed   Thumb Code    50  nrf_cli.o(i.nrf_cli_init)
    nrf_cli_print_stream                     0x0002a4e1   Thumb Code     6  nrf_cli.o(i.nrf_cli_print_stream)
    nrf_cli_process                          0x0002a4e9   Thumb Code   110  nrf_cli.o(i.nrf_cli_process)
    nrf_cli_start                            0x0002a55d   Thumb Code    66  nrf_cli.o(i.nrf_cli_start)
    nrf_drv_uart_init                        0x0002a5a5   Thumb Code    90  nrf_drv_uart.o(i.nrf_drv_uart_init)
    nrf_fprintf                              0x0002a645   Thumb Code    26  nrf_fprintf.o(i.nrf_fprintf)
    nrf_fprintf_buffer_flush                 0x0002a65f   Thumb Code    24  nrf_fprintf.o(i.nrf_fprintf_buffer_flush)
    nrf_fprintf_fmt                          0x0002a677   Thumb Code   474  nrf_fprintf_format.o(i.nrf_fprintf_fmt)
    nrf_fstorage_erase                       0x0002a851   Thumb Code   208  nrf_fstorage.o(i.nrf_fstorage_erase)
    nrf_fstorage_init                        0x0002a9a1   Thumb Code    82  nrf_fstorage.o(i.nrf_fstorage_init)
    nrf_fstorage_is_busy                     0x0002aa41   Thumb Code    70  nrf_fstorage.o(i.nrf_fstorage_is_busy)
    nrf_fstorage_read                        0x0002aa91   Thumb Code   220  nrf_fstorage.o(i.nrf_fstorage_read)
    nrf_fstorage_sdh_req_handler             0x0002ac09   Thumb Code    18  nrf_fstorage_sd.o(i.nrf_fstorage_sdh_req_handler)
    nrf_fstorage_sdh_state_handler           0x0002ac21   Thumb Code    28  nrf_fstorage_sd.o(i.nrf_fstorage_sdh_state_handler)
    nrf_fstorage_sys_evt_handler             0x0002ac41   Thumb Code   154  nrf_fstorage_sd.o(i.nrf_fstorage_sys_evt_handler)
    nrf_fstorage_write                       0x0002ace5   Thumb Code   276  nrf_fstorage.o(i.nrf_fstorage_write)
    nrf_log_backend_add                      0x0002af9d   Thumb Code   134  nrf_log_frontend.o(i.nrf_log_backend_add)
    nrf_log_backend_serial_put               0x0002b0a7   Thumb Code   200  nrf_log_backend_serial.o(i.nrf_log_backend_serial_put)
    nrf_log_color_id_get                     0x0002b1b5   Thumb Code    42  nrf_log_frontend.o(i.nrf_log_color_id_get)
    nrf_log_frontend_dequeue                 0x0002b1e5   Thumb Code   586  nrf_log_frontend.o(i.nrf_log_frontend_dequeue)
    nrf_log_frontend_std_0                   0x0002b461   Thumb Code     8  nrf_log_frontend.o(i.nrf_log_frontend_std_0)
    nrf_log_frontend_std_1                   0x0002b469   Thumb Code    14  nrf_log_frontend.o(i.nrf_log_frontend_std_1)
    nrf_log_frontend_std_2                   0x0002b477   Thumb Code    16  nrf_log_frontend.o(i.nrf_log_frontend_std_2)
    nrf_log_frontend_std_3                   0x0002b487   Thumb Code    18  nrf_log_frontend.o(i.nrf_log_frontend_std_3)
    nrf_log_hexdump_entry_process            0x0002b499   Thumb Code   150  nrf_log_str_formatter.o(i.nrf_log_hexdump_entry_process)
    nrf_log_init                             0x0002b549   Thumb Code   130  nrf_log_frontend.o(i.nrf_log_init)
    nrf_log_module_cnt_get                   0x0002b5e9   Thumb Code    10  nrf_log_frontend.o(i.nrf_log_module_cnt_get)
    nrf_log_module_filter_get                0x0002b5fd   Thumb Code    64  nrf_log_frontend.o(i.nrf_log_module_filter_get)
    nrf_log_module_filter_set                0x0002b645   Thumb Code    70  nrf_log_frontend.o(i.nrf_log_module_filter_set)
    nrf_log_module_name_get                  0x0002b695   Thumb Code    24  nrf_log_frontend.o(i.nrf_log_module_name_get)
    nrf_log_panic                            0x0002b6b1   Thumb Code    36  nrf_log_frontend.o(i.nrf_log_panic)
    nrf_log_std_entry_process                0x0002b6d9   Thumb Code   182  nrf_log_str_formatter.o(i.nrf_log_std_entry_process)
    nrf_memobj_alloc                         0x0002b78f   Thumb Code    96  nrf_memobj.o(i.nrf_memobj_alloc)
    nrf_memobj_free                          0x0002b7ef   Thumb Code    50  nrf_memobj.o(i.nrf_memobj_free)
    nrf_memobj_get                           0x0002b821   Thumb Code     8  nrf_memobj.o(i.nrf_memobj_get)
    nrf_memobj_pool_init                     0x0002b829   Thumb Code     4  nrf_memobj.o(i.nrf_memobj_pool_init)
    nrf_memobj_put                           0x0002b82d   Thumb Code    30  nrf_memobj.o(i.nrf_memobj_put)
    nrf_memobj_read                          0x0002b84b   Thumb Code    16  nrf_memobj.o(i.nrf_memobj_read)
    nrf_memobj_write                         0x0002b85b   Thumb Code    16  nrf_memobj.o(i.nrf_memobj_write)
    nrf_queue_generic_pop                    0x0002b86b   Thumb Code   142  nrf_queue.o(i.nrf_queue_generic_pop)
    nrf_queue_is_empty                       0x0002b8f9   Thumb Code    18  nrf_queue.o(i.nrf_queue_is_empty)
    nrf_queue_is_full                        0x0002b90b   Thumb Code    30  nrf_queue.o(i.nrf_queue_is_full)
    nrf_queue_max_utilization_get            0x0002b929   Thumb Code     6  nrf_queue.o(i.nrf_queue_max_utilization_get)
    nrf_queue_max_utilization_reset          0x0002b92f   Thumb Code     8  nrf_queue.o(i.nrf_queue_max_utilization_reset)
    nrf_queue_push                           0x0002b945   Thumb Code   178  nrf_queue.o(i.nrf_queue_push)
    nrf_queue_utilization_get                0x0002bad9   Thumb Code    36  nrf_queue.o(i.nrf_queue_utilization_get)
    nrf_ringbuf_alloc                        0x0002bafd   Thumb Code   112  nrf_ringbuf.o(i.nrf_ringbuf_alloc)
    nrf_ringbuf_cpy_get                      0x0002bb6d   Thumb Code   124  nrf_ringbuf.o(i.nrf_ringbuf_cpy_get)
    nrf_ringbuf_cpy_put                      0x0002bbe9   Thumb Code   114  nrf_ringbuf.o(i.nrf_ringbuf_cpy_put)
    nrf_ringbuf_free                         0x0002bc5b   Thumb Code    38  nrf_ringbuf.o(i.nrf_ringbuf_free)
    nrf_ringbuf_get                          0x0002bc81   Thumb Code   112  nrf_ringbuf.o(i.nrf_ringbuf_get)
    nrf_ringbuf_init                         0x0002bcf1   Thumb Code    28  nrf_ringbuf.o(i.nrf_ringbuf_init)
    nrf_ringbuf_put                          0x0002bd0d   Thumb Code    48  nrf_ringbuf.o(i.nrf_ringbuf_put)
    nrf_sdh_ble_app_ram_start_get            0x0002bd49   Thumb Code    16  nrf_sdh_ble.o(i.nrf_sdh_ble_app_ram_start_get)
    nrf_sdh_ble_default_cfg_set              0x0002bd5d   Thumb Code   248  nrf_sdh_ble.o(i.nrf_sdh_ble_default_cfg_set)
    nrf_sdh_ble_enable                       0x0002be75   Thumb Code   148  nrf_sdh_ble.o(i.nrf_sdh_ble_enable)
    nrf_sdh_disable_request                  0x0002c025   Thumb Code    80  nrf_sdh.o(i.nrf_sdh_disable_request)
    nrf_sdh_enable_request                   0x0002c079   Thumb Code   102  nrf_sdh.o(i.nrf_sdh_enable_request)
    nrf_sdh_evts_poll                        0x0002c0ed   Thumb Code    32  nrf_sdh.o(i.nrf_sdh_evts_poll)
    nrf_sdh_is_enabled                       0x0002c111   Thumb Code     6  nrf_sdh.o(i.nrf_sdh_is_enabled)
    nrf_sdh_request_continue                 0x0002c11d   Thumb Code    22  nrf_sdh.o(i.nrf_sdh_request_continue)
    nrf_section_iter_init                    0x0002c175   Thumb Code    10  nrf_section_iter.o(i.nrf_section_iter_init)
    nrf_section_iter_next                    0x0002c1a3   Thumb Code    32  nrf_section_iter.o(i.nrf_section_iter_next)
    nrf_sortlist_add                         0x0002c1c3   Thumb Code    34  nrf_sortlist.o(i.nrf_sortlist_add)
    nrf_sortlist_peek                        0x0002c1e5   Thumb Code     6  nrf_sortlist.o(i.nrf_sortlist_peek)
    nrf_sortlist_pop                         0x0002c1eb   Thumb Code    14  nrf_sortlist.o(i.nrf_sortlist_pop)
    nrf_sortlist_remove                      0x0002c1f9   Thumb Code    30  nrf_sortlist.o(i.nrf_sortlist_remove)
    nrf_strerror_find                        0x0002c219   Thumb Code    52  nrf_strerror.o(i.nrf_strerror_find)
    nrf_strerror_get                         0x0002c251   Thumb Code    14  nrf_strerror.o(i.nrf_strerror_get)
    nrfx_prs_acquire                         0x0002c2bd   Thumb Code    58  nrfx_prs.o(i.nrfx_prs_acquire)
    nrfx_prs_release                         0x0002c2f7   Thumb Code    18  nrfx_prs.o(i.nrfx_prs_release)
    nrfx_uart_0_irq_handler                  0x0002c309   Thumb Code     8  nrfx_uart.o(i.nrfx_uart_0_irq_handler)
    nrfx_uart_init                           0x0002c319   Thumb Code   200  nrfx_uart.o(i.nrfx_uart_init)
    nrfx_uart_rx                             0x0002c3ed   Thumb Code   230  nrfx_uart.o(i.nrfx_uart_rx)
    nrfx_uart_rx_abort                       0x0002c4d9   Thumb Code    18  nrfx_uart.o(i.nrfx_uart_rx_abort)
    nrfx_uart_tx                             0x0002c4ed   Thumb Code   162  nrfx_uart.o(i.nrfx_uart_tx)
    nrfx_uart_tx_in_progress                 0x0002c595   Thumb Code    26  nrfx_uart.o(i.nrfx_uart_tx_in_progress)
    nrfx_uart_uninit                         0x0002c5b5   Thumb Code   182  nrfx_uart.o(i.nrfx_uart_uninit)
    nrfx_uarte_0_irq_handler                 0x0002c675   Thumb Code     8  nrfx_uarte.o(i.nrfx_uarte_0_irq_handler)
    nrfx_uarte_init                          0x0002c685   Thumb Code   100  nrfx_uarte.o(i.nrfx_uarte_init)
    nrfx_uarte_rx                            0x0002c6f1   Thumb Code   256  nrfx_uarte.o(i.nrfx_uarte_rx)
    nrfx_uarte_rx_abort                      0x0002c7f5   Thumb Code    38  nrfx_uarte.o(i.nrfx_uarte_rx_abort)
    nrfx_uarte_tx                            0x0002c821   Thumb Code   166  nrfx_uarte.o(i.nrfx_uarte_tx)
    nrfx_uarte_tx_in_progress                0x0002c8cd   Thumb Code    22  nrfx_uarte.o(i.nrfx_uarte_tx_in_progress)
    nrfx_uarte_uninit                        0x0002c8e9   Thumb Code   254  nrfx_uarte.o(i.nrfx_uarte_uninit)
    nvmc_config                              0x0002c9f1   Thumb Code    14  system_nrf52.o(i.nvmc_config)
    wait_for_flash_ready                     0x0002d921   Thumb Code    20  main.o(i.wait_for_flash_ready)
    nrf_cli_read_raw                         0x0002db58   Data          16  cli.o(.constdata)
    nrf_cli_write_raw                        0x0002db68   Data          16  cli.o(.constdata)
    nrf_cli_erase_raw                        0x0002db78   Data          16  cli.o(.constdata)
    nrf_cli_flasharea_raw                    0x0002db88   Data          16  cli.o(.constdata)
    nrf_cli_balloc_raw                       0x0002dbf0   Data          16  nrf_balloc.o(.constdata)
    nrf_log_backend_cli_api                  0x0002dc00   Data          12  nrf_cli.o(.constdata)
    nrf_cli_clear_raw                        0x0002dd24   Data          16  nrf_cli.o(.constdata)
    nrf_cli_cli_raw                          0x0002dd34   Data          16  nrf_cli.o(.constdata)
    nrf_cli_history_raw                      0x0002dd44   Data          16  nrf_cli.o(.constdata)
    nrf_cli_resize_raw                       0x0002dd54   Data          16  nrf_cli.o(.constdata)
    nrf_cli_uart_transport_api               0x0002ddb8   Data          20  nrf_cli_uart.o(.constdata)
    nrf_fstorage_sd                          0x0002de4c   Data          32  nrf_fstorage_sd.o(.constdata)
    nrf_cli_queue_raw                        0x0002de94   Data          16  nrf_queue.o(.constdata)
    nrf_log_backend_uart_api                 0x0002dfe0   Data          12  nrf_log_backend_uart.o(.constdata)
    nrf_cli_log_raw                          0x0002e168   Data          16  nrf_log_frontend.o(.constdata)
    m_ram_start                              0x0002e1f0   Data           4  nrf_sdh_ble.o(.constdata)
    __ctype_table                            0x0002e21c   Data         129  ctype_o.o(.constdata)
    Region$$Table$$Base                      0x0002f548   Number         0  anon$$obj.o(Region$$Table)
    Region$$Table$$Limit                     0x0002f568   Number         0  anon$$obj.o(Region$$Table)
    cli_command$$Base                        0x0002f568   Number         0  cli.o(cli_command)
    nrf_cli_read_const                       0x0002f568   Data           8  cli.o(cli_command)
    nrf_cli_write_const                      0x0002f570   Data           8  cli.o(cli_command)
    nrf_cli_erase_const                      0x0002f578   Data           8  cli.o(cli_command)
    nrf_cli_flasharea_const                  0x0002f580   Data           8  cli.o(cli_command)
    nrf_cli_balloc_const                     0x0002f588   Data           8  nrf_balloc.o(cli_command)
    nrf_cli_clear_const                      0x0002f590   Data           8  nrf_cli.o(cli_command)
    nrf_cli_cli_const                        0x0002f598   Data           8  nrf_cli.o(cli_command)
    nrf_cli_history_const                    0x0002f5a0   Data           8  nrf_cli.o(cli_command)
    nrf_cli_resize_const                     0x0002f5a8   Data           8  nrf_cli.o(cli_command)
    nrf_cli_queue_const                      0x0002f5b0   Data           8  nrf_queue.o(cli_command)
    nrf_cli_log_const                        0x0002f5b8   Data           8  nrf_log_frontend.o(cli_command)
    cli_command$$Limit                       0x0002f5c0   Number         0  nrf_log_frontend.o(cli_command)
    log_backends$$Base                       0x0002f5c0   Number         0  cli.o(log_backends)
    log_backends$$Limit                      0x0002f5e0   Number         0  nrf_log_default_backends.o(log_backends)
    log_const_data$$Base                     0x0002f5e0   Number         0  cli.o(log_const_data)
    m_nrf_log_app_timer_cli_uart_timer_logs_data_const 0x0002f5e0   Data           8  cli.o(log_const_data)
    m_nrf_log_queue_m_cli_uart_log_backend_queue_logs_data_const 0x0002f5e8   Data           8  cli.o(log_const_data)
    m_nrf_log_balloc_m_cli_uart_cmd_hist_memobj_logs_data_const 0x0002f5f0   Data           8  cli.o(log_const_data)
    m_nrf_log_PRS_logs_data_const            0x0002f5f8   Data           8  nrfx_prs.o(log_const_data)
    m_nrf_log_UART_logs_data_const           0x0002f600   Data           8  nrfx_uart.o(log_const_data)
    m_nrf_log_UARTE_logs_data_const          0x0002f608   Data           8  nrfx_uarte.o(log_const_data)
    m_nrf_log_app_timer_logs_data_const      0x0002f610   Data           8  app_timer2.o(log_const_data)
    m_nrf_log_atfifo_m_req_fifo_logs_data_const 0x0002f618   Data           8  app_timer2.o(log_const_data)
    m_nrf_log_cli_uart_logs_data_const       0x0002f620   Data           8  nrf_cli_uart.o(log_const_data)
    m_nrf_log_nrf_fstorage_logs_data_const   0x0002f628   Data           8  nrf_fstorage.o(log_const_data)
    m_nrf_log_atfifo_m_fifo_logs_data_const  0x0002f630   Data           8  nrf_fstorage_sd.o(log_const_data)
    m_nrf_log_sortlist_logs_data_const       0x0002f638   Data           8  nrf_sortlist.o(log_const_data)
    m_nrf_log_balloc_log_mempool_logs_data_const 0x0002f640   Data           8  nrf_log_frontend.o(log_const_data)
    m_nrf_log_app_logs_data_const            0x0002f648   Data           8  nrf_log_frontend.o(log_const_data)
    m_nrf_log_nrf_sdh_logs_data_const        0x0002f650   Data           8  nrf_sdh.o(log_const_data)
    m_nrf_log_nrf_sdh_ble_logs_data_const    0x0002f658   Data           8  nrf_sdh_ble.o(log_const_data)
    m_nrf_log_nrf_sdh_soc_logs_data_const    0x0002f660   Data           8  nrf_sdh_soc.o(log_const_data)
    log_const_data$$Limit                    0x0002f668   Number         0  nrf_sdh_soc.o(log_const_data)
    m_cli_uart_cmd_hist_memobj               0x0002f668   Data          28  cli.o(nrf_balloc)
    nrf_balloc$$Base                         0x0002f668   Number         0  cli.o(nrf_balloc)
    log_mempool                              0x0002f684   Data          28  nrf_log_frontend.o(nrf_balloc)
    m_cli_uart_log_backend_queue             0x0002f6a0   Data          28  cli.o(nrf_queue)
    nrf_balloc$$Limit                        0x0002f6a0   Number         0  nrf_log_frontend.o(nrf_balloc)
    nrf_queue$$Base                          0x0002f6a0   Number         0  cli.o(nrf_queue)
    m_req_obs                                0x0002f6bc   Data           8  nrf_fstorage_sd.o(sdh_req_observers0)
    nrf_queue$$Limit                         0x0002f6bc   Number         0  cli.o(nrf_queue)
    sdh_req_observers0$$Base                 0x0002f6bc   Number         0  nrf_fstorage_sd.o(sdh_req_observers0)
    sdh_req_observers0$$Limit                0x0002f6c4   Number         0  nrf_fstorage_sd.o(sdh_req_observers0)
    sdh_soc_observers0$$Base                 0x0002f6c4   Number         0  nrf_fstorage_sd.o(sdh_soc_observers0)
    sdh_soc_observers0$$Limit                0x0002f6cc   Number         0  nrf_fstorage_sd.o(sdh_soc_observers0)
    sdh_stack_observers0$$Base               0x0002f6cc   Number         0  nrf_sdh_ble.o(sdh_stack_observers0)
    sdh_stack_observers0$$Limit              0x0002f6dc   Number         0  nrf_sdh_soc.o(sdh_stack_observers0)
    sdh_state_observers0$$Base               0x0002f6dc   Number         0  nrf_fstorage_sd.o(sdh_state_observers0)
    sdh_state_observers0$$Limit              0x0002f6e4   Number         0  nrf_fstorage_sd.o(sdh_state_observers0)
    Image$$RW_IRAM1$$Base                    0x20002250   Number         0  anon$$obj.o ABSOLUTE
    nrf_drv_uart_use_easy_dma                0x200022c4   Data           1  nrf_drv_uart.o(.data)
    m_uart                                   0x20002340   Data          20  nrf_log_backend_uart.o(.data)
    SystemCoreClock                          0x200023dc   Data           4  system_nrf52.o(.data)
    cli_sorted_cmd_ptrs$$Base                0x200023e4   Number         0  cli.o(cli_sorted_cmd_ptrs)
    read_str_ptr                             0x200023e4   Data           4  cli.o(cli_sorted_cmd_ptrs)
    write_str_ptr                            0x200023e8   Data           4  cli.o(cli_sorted_cmd_ptrs)
    erase_str_ptr                            0x200023ec   Data           4  cli.o(cli_sorted_cmd_ptrs)
    flasharea_str_ptr                        0x200023f0   Data           4  cli.o(cli_sorted_cmd_ptrs)
    balloc_str_ptr                           0x200023f4   Data           4  nrf_balloc.o(cli_sorted_cmd_ptrs)
    clear_str_ptr                            0x200023f8   Data           4  nrf_cli.o(cli_sorted_cmd_ptrs)
    cli_str_ptr                              0x200023fc   Data           4  nrf_cli.o(cli_sorted_cmd_ptrs)
    history_str_ptr                          0x20002400   Data           4  nrf_cli.o(cli_sorted_cmd_ptrs)
    resize_str_ptr                           0x20002404   Data           4  nrf_cli.o(cli_sorted_cmd_ptrs)
    queue_str_ptr                            0x20002408   Data           4  nrf_queue.o(cli_sorted_cmd_ptrs)
    log_str_ptr                              0x2000240c   Data           4  nrf_log_frontend.o(cli_sorted_cmd_ptrs)
    fs_data$$Base                            0x20002410   Number         0  main.o(fs_data)
    fstorage                                 0x20002410   Data          20  main.o(fs_data)
    fs_data$$Limit                           0x20002424   Number         0  main.o(fs_data)
    log_dynamic_data$$Base                   0x20002424   Number         0  cli.o(log_dynamic_data)
    m_nrf_log_app_timer_cli_uart_timer_logs_data_dynamic 0x20002424   Data           4  cli.o(log_dynamic_data)
    m_nrf_log_queue_m_cli_uart_log_backend_queue_logs_data_dynamic 0x20002428   Data           4  cli.o(log_dynamic_data)
    m_nrf_log_balloc_m_cli_uart_cmd_hist_memobj_logs_data_dynamic 0x2000242c   Data           4  cli.o(log_dynamic_data)
    m_nrf_log_PRS_logs_data_dynamic          0x20002430   Data           4  nrfx_prs.o(log_dynamic_data)
    m_nrf_log_UART_logs_data_dynamic         0x20002434   Data           4  nrfx_uart.o(log_dynamic_data)
    m_nrf_log_UARTE_logs_data_dynamic        0x20002438   Data           4  nrfx_uarte.o(log_dynamic_data)
    m_nrf_log_app_timer_logs_data_dynamic    0x2000243c   Data           4  app_timer2.o(log_dynamic_data)
    m_nrf_log_atfifo_m_req_fifo_logs_data_dynamic 0x20002440   Data           4  app_timer2.o(log_dynamic_data)
    m_nrf_log_cli_uart_logs_data_dynamic     0x20002444   Data           4  nrf_cli_uart.o(log_dynamic_data)
    m_nrf_log_nrf_fstorage_logs_data_dynamic 0x20002448   Data           4  nrf_fstorage.o(log_dynamic_data)
    m_nrf_log_atfifo_m_fifo_logs_data_dynamic 0x2000244c   Data           4  nrf_fstorage_sd.o(log_dynamic_data)
    m_nrf_log_sortlist_logs_data_dynamic     0x20002450   Data           4  nrf_sortlist.o(log_dynamic_data)
    m_nrf_log_balloc_log_mempool_logs_data_dynamic 0x20002454   Data           4  nrf_log_frontend.o(log_dynamic_data)
    m_nrf_log_app_logs_data_dynamic          0x20002458   Data           4  nrf_log_frontend.o(log_dynamic_data)
    m_nrf_log_nrf_sdh_logs_data_dynamic      0x2000245c   Data           4  nrf_sdh.o(log_dynamic_data)
    m_nrf_log_nrf_sdh_ble_logs_data_dynamic  0x20002460   Data           4  nrf_sdh_ble.o(log_dynamic_data)
    m_nrf_log_nrf_sdh_soc_logs_data_dynamic  0x20002464   Data           4  nrf_sdh_soc.o(log_dynamic_data)
    log_filter_data$$Base                    0x20002468   Number         0  cli.o(log_filter_data)
    m_nrf_log_app_timer_cli_uart_timer_logs_data_filter 0x20002468   Data           4  cli.o(log_filter_data)
    m_nrf_log_queue_m_cli_uart_log_backend_queue_logs_data_filter 0x2000246c   Data           4  cli.o(log_filter_data)
    m_nrf_log_balloc_m_cli_uart_cmd_hist_memobj_logs_data_filter 0x20002470   Data           4  cli.o(log_filter_data)
    m_nrf_log_PRS_logs_data_filter           0x20002474   Data           4  nrfx_prs.o(log_filter_data)
    m_nrf_log_UART_logs_data_filter          0x20002478   Data           4  nrfx_uart.o(log_filter_data)
    m_nrf_log_UARTE_logs_data_filter         0x2000247c   Data           4  nrfx_uarte.o(log_filter_data)
    m_nrf_log_app_timer_logs_data_filter     0x20002480   Data           4  app_timer2.o(log_filter_data)
    m_nrf_log_atfifo_m_req_fifo_logs_data_filter 0x20002484   Data           4  app_timer2.o(log_filter_data)
    m_nrf_log_cli_uart_logs_data_filter      0x20002488   Data           4  nrf_cli_uart.o(log_filter_data)
    m_nrf_log_nrf_fstorage_logs_data_filter  0x2000248c   Data           4  nrf_fstorage.o(log_filter_data)
    m_nrf_log_atfifo_m_fifo_logs_data_filter 0x20002490   Data           4  nrf_fstorage_sd.o(log_filter_data)
    m_nrf_log_sortlist_logs_data_filter      0x20002494   Data           4  nrf_sortlist.o(log_filter_data)
    m_nrf_log_balloc_log_mempool_logs_data_filter 0x20002498   Data           4  nrf_log_frontend.o(log_filter_data)
    m_nrf_log_app_logs_data_filter           0x2000249c   Data           4  nrf_log_frontend.o(log_filter_data)
    m_nrf_log_nrf_sdh_logs_data_filter       0x200024a0   Data           4  nrf_sdh.o(log_filter_data)
    m_nrf_log_nrf_sdh_ble_logs_data_filter   0x200024a4   Data           4  nrf_sdh_ble.o(log_filter_data)
    m_nrf_log_nrf_sdh_soc_logs_data_filter   0x200024a8   Data           4  nrf_sdh_soc.o(log_filter_data)
    nrf_nvic_state                           0x20002a5c   Data          12  app_util_platform.o(.bss)
    __initial_sp                             0x200050c0   Data           0  arm_startup_nrf52.o(STACK)



==============================================================================

Memory Map of the image

  Image Entry point : 0x00026201

  Load Region LR_IROM1 (Base: 0x00026000, Size: 0x00009940, Max: 0x00018000, ABSOLUTE, COMPRESSED[0x00009780])

    Execution Region ER_IROM1 (Exec base: 0x00026000, Load base: 0x00026000, Size: 0x000096e4, Max: 0x00018000, ABSOLUTE)

    Exec Addr    Load Addr    Size         Type   Attr      Idx    E Section Name        Object

    0x00026000   0x00026000   0x00000200   Data   RO         3959    RESET               arm_startup_nrf52.o
    0x00026200   0x00026200   0x00000000   Code   RO         4028  * .ARM.Collect$$$$00000000  mc_w.l(entry.o)
    0x00026200   0x00026200   0x00000004   Code   RO         4085    .ARM.Collect$$$$00000001  mc_w.l(entry2.o)
    0x00026204   0x00026204   0x00000004   Code   RO         4088    .ARM.Collect$$$$00000004  mc_w.l(entry5.o)
    0x00026208   0x00026208   0x00000000   Code   RO         4090    .ARM.Collect$$$$00000008  mc_w.l(entry7b.o)
    0x00026208   0x00026208   0x00000000   Code   RO         4092    .ARM.Collect$$$$0000000A  mc_w.l(entry8b.o)
    0x00026208   0x00026208   0x00000008   Code   RO         4093    .ARM.Collect$$$$0000000B  mc_w.l(entry9a.o)
    0x00026210   0x00026210   0x00000000   Code   RO         4095    .ARM.Collect$$$$0000000D  mc_w.l(entry10a.o)
    0x00026210   0x00026210   0x00000000   Code   RO         4097    .ARM.Collect$$$$0000000F  mc_w.l(entry11a.o)
    0x00026210   0x00026210   0x00000004   Code   RO         4086    .ARM.Collect$$$$00002712  mc_w.l(entry2.o)
    0x00026214   0x00026214   0x000000c8   Code   RO         1778    .emb_text           nrf_atfifo.o
    0x000262dc   0x000262dc   0x000000e2   Code   RO         1848    .emb_text           nrf_atomic.o
    0x000263be   0x000263be   0x00000002   PAD
    0x000263c0   0x000263c0   0x00000024   Code   RO         3960    .text               arm_startup_nrf52.o
    0x000263e4   0x000263e4   0x00000008   Code   RO         4031    .text               mc_w.l(ctype_o.o)
    0x000263ec   0x000263ec   0x0000009c   Code   RO         4061    .text               mc_w.l(qsort.o)
    0x00026488   0x00026488   0x00000040   Code   RO         4065    .text               mc_w.l(memmovea.o)
    0x000264c8   0x000264c8   0x00000024   Code   RO         4067    .text               mc_w.l(memseta.o)
    0x000264ec   0x000264ec   0x0000000e   Code   RO         4071    .text               mc_w.l(strlen.o)
    0x000264fa   0x000264fa   0x0000001c   Code   RO         4073    .text               mc_w.l(strcmp.o)
    0x00026516   0x00026516   0x00000012   Code   RO         4075    .text               mc_w.l(strcpy.o)
    0x00026528   0x00026528   0x0000001e   Code   RO         4077    .text               mc_w.l(strncmp.o)
    0x00026546   0x00026546   0x00000070   Code   RO         4083    .text               mc_w.l(strtol.o)
    0x000265b6   0x000265b6   0x0000009e   Code   RO         4106    .text               mc_w.l(_strtoul.o)
    0x00026654   0x00026654   0x00000024   Code   RO         4108    .text               mc_w.l(init.o)
    0x00026678   0x00026678   0x0000001c   Code   RO         4110    .text               mc_w.l(_chval.o)
    0x00026694   0x00026694   0x00000056   Code   RO         4120    .text               mc_w.l(__dczerorl2.o)
    0x000266ea   0x000266ea   0x00000002   PAD
    0x000266ec   0x000266ec   0x00000010   Code   RO         1549    i.RTC1_IRQHandler   drv_rtc.o
    0x000266fc   0x000266fc   0x00000004   Code   RO         3756    i.SWI2_EGU2_IRQHandler  nrf_sdh.o
    0x00026700   0x00026700   0x000002d8   Code   RO         3968    i.SystemInit        system_nrf52.o
    0x000269d8   0x000269d8   0x0000000c   Code   RO          799    i.UARTE0_UART0_IRQHandler  nrfx_prs.o
    0x000269e4   0x000269e4   0x00000008   Code   RO         4099    i.__aeabi_errno_addr  mc_w.l(errno.o)
    0x000269ec   0x000269ec   0x0000000e   Code   RO         4114    i.__scatterload_copy  mc_w.l(handlers.o)
    0x000269fa   0x000269fa   0x00000002   Code   RO         4115    i.__scatterload_null  mc_w.l(handlers.o)
    0x000269fc   0x000269fc   0x0000000e   Code   RO         4116    i.__scatterload_zeroinit  mc_w.l(handlers.o)
    0x00026a0a   0x00026a0a   0x00000002   PAD
    0x00026a0c   0x00026a0c   0x00000024   Code   RO         3757    i.__sd_nvic_app_accessible_irq  nrf_sdh.o
    0x00026a30   0x00026a30   0x0000000c   Code   RO         2636    i.addr_is_aligned32  nrf_fstorage.o
    0x00026a3c   0x00026a3c   0x00000018   Code   RO         2637    i.addr_is_within_bounds  nrf_fstorage.o
    0x00026a54   0x00026a54   0x00000094   Code   RO         1280    i.app_error_fault_handler  app_error_weak.o
    0x00026ae8   0x00026ae8   0x00000016   Code   RO         1214    i.app_error_handler_bare  app_error.o
    0x00026afe   0x00026afe   0x00000002   PAD
    0x00026b00   0x00026b00   0x0000000c   Code   RO         1342    i.app_timer_cnt_get  app_timer2.o
    0x00026b0c   0x00026b0c   0x00000016   Code   RO         1343    i.app_timer_create  app_timer2.o
    0x00026b22   0x00026b22   0x00000002   PAD
    0x00026b24   0x00026b24   0x0000005c   Code   RO         1344    i.app_timer_init    app_timer2.o
    0x00026b80   0x00026b80   0x00000032   Code   RO         1347    i.app_timer_start   app_timer2.o
    0x00026bb2   0x00026bb2   0x0000000e   Code   RO         1348    i.app_timer_stop    app_timer2.o
    0x00026bc0   0x00026bc0   0x00000048   Code   RO         1481    i.app_util_critical_region_enter  app_util_platform.o
    0x00026c08   0x00026c08   0x00000034   Code   RO         1482    i.app_util_critical_region_exit  app_util_platform.o
    0x00026c3c   0x00026c3c   0x00000088   Code   RO          863    i.apply_config      nrfx_uart.o
    0x00026cc4   0x00026cc4   0x00000088   Code   RO         1056    i.apply_config      nrfx_uarte.o
    0x00026d4c   0x00026d4c   0x00000048   Code   RO         3391    i.backend_name_get  nrf_log_frontend.o
    0x00026d94   0x00026d94   0x00000094   Code   RO         3392    i.buf_prealloc      nrf_log_frontend.o
    0x00026e28   0x00026e28   0x0000002e   Code   RO         2596    i.buffer_add        nrf_fprintf_format.o
    0x00026e56   0x00026e56   0x00000002   PAD
    0x00026e58   0x00026e58   0x00000018   Code   RO         3393    i.buffer_is_empty   nrf_log_frontend.o
    0x00026e70   0x00026e70   0x000000b8   Code   RO         2036    i.char_backspace    nrf_cli.o
    0x00026f28   0x00026f28   0x00000094   Code   RO         2037    i.char_delete       nrf_cli.o
    0x00026fbc   0x00026fbc   0x00000140   Code   RO         2038    i.char_insert       nrf_cli.o
    0x000270fc   0x000270fc   0x00000014   Code   RO         2039    i.cli_clear_eos     nrf_cli.o
    0x00027110   0x00027110   0x00000014   Code   RO         2040    i.cli_cursor_restore  nrf_cli.o
    0x00027124   0x00027124   0x00000014   Code   RO         2041    i.cli_cursor_save   nrf_cli.o
    0x00027138   0x00027138   0x000001d0   Code   RO         2042    i.cli_execute       nrf_cli.o
    0x00027308   0x00027308   0x0000000c   Code   RO         2043    i.cli_flag_echo_is_set  nrf_cli.o
    0x00027314   0x00027314   0x00000040   Code   RO            4    i.cli_init          cli.o
    0x00027354   0x00027354   0x0000016c   Code   RO         2044    i.cli_log_entry_process  nrf_cli.o
    0x000274c0   0x000274c0   0x00000040   Code   RO            5    i.cli_missing_param_help  cli.o
    0x00027500   0x00027500   0x0000000c   Code   RO            6    i.cli_process       cli.o
    0x0002750c   0x0002750c   0x0000000e   Code   RO         2045    i.cli_read          nrf_cli.o
    0x0002751a   0x0002751a   0x00000002   PAD
    0x0002751c   0x0002751c   0x0000001c   Code   RO            7    i.cli_start         cli.o
    0x00027538   0x00027538   0x0000026a   Code   RO         2046    i.cli_state_collect  nrf_cli.o
    0x000277a2   0x000277a2   0x00000002   PAD
    0x000277a4   0x000277a4   0x00000028   Code   RO         2047    i.cli_state_set     nrf_cli.o
    0x000277cc   0x000277cc   0x0000000a   Code   RO         2048    i.cli_strlen        nrf_cli.o
    0x000277d6   0x000277d6   0x00000002   PAD
    0x000277d8   0x000277d8   0x00000318   Code   RO         2049    i.cli_tab_handle    nrf_cli.o
    0x00027af0   0x00027af0   0x00000014   Code   RO         2050    i.cli_transport_evt_handler  nrf_cli.o
    0x00027b04   0x00027b04   0x0000006c   Code   RO         2477    i.cli_uart_enable   nrf_cli_uart.o
    0x00027b70   0x00027b70   0x0000004c   Code   RO         2478    i.cli_uart_init     nrf_cli_uart.o
    0x00027bbc   0x00027bbc   0x0000000a   Code   RO         2479    i.cli_uart_read     nrf_cli_uart.o
    0x00027bc6   0x00027bc6   0x00000016   Code   RO         2480    i.cli_uart_uninit   nrf_cli_uart.o
    0x00027bdc   0x00027bdc   0x00000068   Code   RO         2481    i.cli_uart_write    nrf_cli_uart.o
    0x00027c44   0x00027c44   0x00000048   Code   RO            8    i.cli_unknown_param_help  cli.o
    0x00027c8c   0x00027c8c   0x00000058   Code   RO         2051    i.cli_write         nrf_cli.o
    0x00027ce4   0x00027ce4   0x00000088   Code   RO         2052    i.cmd_get           nrf_cli.o
    0x00027d6c   0x00027d6c   0x0000009a   Code   RO         2053    i.cmd_trim          nrf_cli.o
    0x00027e06   0x00027e06   0x00000018   Code   RO         1350    i.compare_func      app_timer2.o
    0x00027e1e   0x00027e1e   0x00000002   PAD
    0x00027e20   0x00027e20   0x00000094   Code   RO         2054    i.completion_insert  nrf_cli.o
    0x00027eb4   0x00027eb4   0x00000018   Code   RO         2055    i.cursor_down_move  nrf_cli.o
    0x00027ecc   0x00027ecc   0x00000052   Code   RO         2056    i.cursor_end_position_move  nrf_cli.o
    0x00027f1e   0x00027f1e   0x00000054   Code   RO         2057    i.cursor_home_position_move  nrf_cli.o
    0x00027f72   0x00027f72   0x00000026   Code   RO         2058    i.cursor_in_empty_line  nrf_cli.o
    0x00027f98   0x00027f98   0x00000018   Code   RO         2059    i.cursor_left_move  nrf_cli.o
    0x00027fb0   0x00027fb0   0x0000000c   Code   RO         2060    i.cursor_next_line_move  nrf_cli.o
    0x00027fbc   0x00027fbc   0x00000124   Code   RO         2061    i.cursor_position_get  nrf_cli.o
    0x000280e0   0x000280e0   0x0000006a   Code   RO         2062    i.cursor_position_synchronize  nrf_cli.o
    0x0002814a   0x0002814a   0x00000002   PAD
    0x0002814c   0x0002814c   0x00000018   Code   RO         2063    i.cursor_right_move  nrf_cli.o
    0x00028164   0x00028164   0x00000018   Code   RO         2064    i.cursor_up_move    nrf_cli.o
    0x0002817c   0x0002817c   0x00000014   Code   RO         3394    i.dropped_sat16_get  nrf_log_frontend.o
    0x00028190   0x00028190   0x00000014   Code   RO         1550    i.drv_rtc_compare_disable  drv_rtc.o
    0x000281a4   0x000281a4   0x0000000e   Code   RO         1553    i.drv_rtc_compare_pending  drv_rtc.o
    0x000281b2   0x000281b2   0x00000050   Code   RO         1554    i.drv_rtc_compare_set  drv_rtc.o
    0x00028202   0x00028202   0x00000008   Code   RO         1555    i.drv_rtc_counter_get  drv_rtc.o
    0x0002820a   0x0002820a   0x00000002   PAD
    0x0002820c   0x0002820c   0x000000ec   Code   RO         1556    i.drv_rtc_init      drv_rtc.o
    0x000282f8   0x000282f8   0x0000001e   Code   RO         1557    i.drv_rtc_irq_trigger  drv_rtc.o
    0x00028316   0x00028316   0x00000008   Code   RO         1559    i.drv_rtc_overflow_enable  drv_rtc.o
    0x0002831e   0x0002831e   0x00000008   Code   RO         1560    i.drv_rtc_overflow_pending  drv_rtc.o
    0x00028326   0x00028326   0x00000008   Code   RO         1561    i.drv_rtc_start     drv_rtc.o
    0x0002832e   0x0002832e   0x00000008   Code   RO         1562    i.drv_rtc_stop      drv_rtc.o
    0x00028336   0x00028336   0x000000de   Code   RO         1567    i.drv_rtc_windowed_compare_set  drv_rtc.o
    0x00028414   0x00028414   0x0000004c   Code   RO         2721    i.erase             nrf_fstorage_sd.o
    0x00028460   0x00028460   0x00000090   Code   RO            9    i.erase_cmd         cli.o
    0x000284f0   0x000284f0   0x00000054   Code   RO         2722    i.event_send        nrf_fstorage_sd.o
    0x00028544   0x00028544   0x00000012   Code   RO         1568    i.evt_enable        drv_rtc.o
    0x00028556   0x00028556   0x00000014   Code   RO         1569    i.evt_pending       drv_rtc.o
    0x0002856a   0x0002856a   0x00000002   PAD
    0x0002856c   0x0002856c   0x00000048   Code   RO           10    i.flasharea_cmd     cli.o
    0x000285b4   0x000285b4   0x00000044   Code   RO           11    i.flasharea_cmd_print  cli.o
    0x000285f8   0x000285f8   0x00000080   Code   RO           12    i.flasharea_cmd_set  cli.o
    0x00028678   0x00028678   0x000000f2   Code   RO         2065    i.format_offset_string_print  nrf_cli.o
    0x0002876a   0x0002876a   0x00000002   PAD
    0x0002876c   0x0002876c   0x000000cc   Code   RO          399    i.fstorage_evt_handler  main.o
    0x00028838   0x00028838   0x000000ac   Code   RO           13    i.fstorage_read     cli.o
    0x000288e4   0x000288e4   0x00000026   Code   RO         2066    i.full_line_cmd     nrf_cli.o
    0x0002890a   0x0002890a   0x00000002   PAD
    0x0002890c   0x0002890c   0x00000034   Code   RO         1351    i.get_now           app_timer2.o
    0x00028940   0x00028940   0x00000144   Code   RO         2067    i.history_handle    nrf_cli.o
    0x00028a84   0x00028a84   0x00000078   Code   RO         2068    i.history_list_element_add  nrf_cli.o
    0x00028afc   0x00028afc   0x00000068   Code   RO         2069    i.history_list_element_oldest_remove  nrf_cli.o
    0x00028b64   0x00028b64   0x00000086   Code   RO         2070    i.history_save      nrf_cli.o
    0x00028bea   0x00028bea   0x00000002   PAD
    0x00028bec   0x00028bec   0x00000034   Code   RO         2723    i.init              nrf_fstorage_sd.o
    0x00028c20   0x00028c20   0x000000a6   Code   RO         2597    i.int_print         nrf_fprintf_format.o
    0x00028cc6   0x00028cc6   0x00000002   PAD
    0x00028cc8   0x00028cc8   0x00000088   Code   RO         1057    i.interrupts_enable  nrfx_uarte.o
    0x00028d50   0x00028d50   0x00000034   Code   RO         3395    i.invalid_packets_omit  nrf_log_frontend.o
    0x00028d84   0x00028d84   0x00000010   Code   RO         2724    i.is_busy           nrf_fstorage_sd.o
    0x00028d94   0x00028d94   0x00000010   Code   RO         2071    i.is_completion_candidate  nrf_cli.o
    0x00028da4   0x00028da4   0x0000000c   Code   RO         3396    i.log_backend_ctrl  nrf_log_frontend.o
    0x00028db0   0x00028db0   0x0000000c   Code   RO         3397    i.log_backend_go    nrf_log_frontend.o
    0x00028dbc   0x00028dbc   0x0000000c   Code   RO         3398    i.log_backend_halt  nrf_log_frontend.o
    0x00028dc8   0x00028dc8   0x0000000c   Code   RO         3399    i.log_backend_status  nrf_log_frontend.o
    0x00028dd4   0x00028dd4   0x0000005c   Code   RO         3400    i.log_cmd           nrf_log_frontend.o
    0x00028e30   0x00028e30   0x000000c8   Code   RO         3401    i.log_cmd_backends_list  nrf_log_frontend.o
    0x00028ef8   0x00028ef8   0x0000003c   Code   RO         3402    i.log_config_load_cmd  nrf_log_frontend.o
    0x00028f34   0x00028f34   0x0000003c   Code   RO         3403    i.log_config_store_cmd  nrf_log_frontend.o
    0x00028f70   0x00028f70   0x000001cc   Code   RO         3404    i.log_ctrl          nrf_log_frontend.o
    0x0002913c   0x0002913c   0x00000008   Code   RO         3405    i.log_go            nrf_log_frontend.o
    0x00029144   0x00029144   0x00000008   Code   RO         3406    i.log_halt          nrf_log_frontend.o
    0x0002914c   0x0002914c   0x00000010   Code   RO         3407    i.log_self_ctrl     nrf_log_frontend.o
    0x0002915c   0x0002915c   0x0000000a   Code   RO         3408    i.log_self_go       nrf_log_frontend.o
    0x00029166   0x00029166   0x0000000a   Code   RO         3409    i.log_self_halt     nrf_log_frontend.o
    0x00029170   0x00029170   0x00000010   Code   RO         3410    i.log_self_status   nrf_log_frontend.o
    0x00029180   0x00029180   0x000000a4   Code   RO         3411    i.log_skip          nrf_log_frontend.o
    0x00029224   0x00029224   0x00000140   Code   RO         3412    i.log_status        nrf_log_frontend.o
    0x00029364   0x00029364   0x00000314   Code   RO          400    i.main              main.o
    0x00029678   0x00029678   0x0000015a   Code   RO         2072    i.make_argv         nrf_cli.o
    0x000297d2   0x000297d2   0x0000007e   Code   RO         2840    i.memobj_op         nrf_memobj.o
    0x00029850   0x00029850   0x00000026   Code   RO         3413    i.module_id_filter_set  nrf_log_frontend.o
    0x00029876   0x00029876   0x00000002   PAD
    0x00029878   0x00029878   0x00000030   Code   RO         3414    i.module_idx_get    nrf_log_frontend.o
    0x000298a8   0x000298a8   0x0000001c   Code   RO         3415    i.module_name_get   nrf_log_frontend.o
    0x000298c4   0x000298c4   0x00000050   Code   RO         2073    i.multiline_console_data_check  nrf_cli.o
    0x00029914   0x00029914   0x00000010   Code   RO         1780    i.nrf_atfifo_clear  nrf_atfifo.o
    0x00029924   0x00029924   0x00000026   Code   RO         1782    i.nrf_atfifo_init   nrf_atfifo.o
    0x0002994a   0x0002994a   0x00000016   Code   RO         1783    i.nrf_atfifo_item_alloc  nrf_atfifo.o
    0x00029960   0x00029960   0x00000016   Code   RO         1784    i.nrf_atfifo_item_free  nrf_atfifo.o
    0x00029976   0x00029976   0x00000016   Code   RO         1785    i.nrf_atfifo_item_get  nrf_atfifo.o
    0x0002998c   0x0002998c   0x00000016   Code   RO         1786    i.nrf_atfifo_item_put  nrf_atfifo.o
    0x000299a2   0x000299a2   0x00000006   Code   RO         1849    i.nrf_atomic_flag_clear  nrf_atomic.o
    0x000299a8   0x000299a8   0x00000006   Code   RO         1850    i.nrf_atomic_flag_clear_fetch  nrf_atomic.o
    0x000299ae   0x000299ae   0x00000006   Code   RO         1851    i.nrf_atomic_flag_set  nrf_atomic.o
    0x000299b4   0x000299b4   0x00000006   Code   RO         1852    i.nrf_atomic_flag_set_fetch  nrf_atomic.o
    0x000299ba   0x000299ba   0x0000000c   Code   RO         1853    i.nrf_atomic_u32_add  nrf_atomic.o
    0x000299c6   0x000299c6   0x0000000c   Code   RO         1854    i.nrf_atomic_u32_and  nrf_atomic.o
    0x000299d2   0x000299d2   0x0000000a   Code   RO         1857    i.nrf_atomic_u32_fetch_and  nrf_atomic.o
    0x000299dc   0x000299dc   0x0000000a   Code   RO         1858    i.nrf_atomic_u32_fetch_or  nrf_atomic.o
    0x000299e6   0x000299e6   0x0000000a   Code   RO         1859    i.nrf_atomic_u32_fetch_store  nrf_atomic.o
    0x000299f0   0x000299f0   0x0000000c   Code   RO         1863    i.nrf_atomic_u32_or  nrf_atomic.o
    0x000299fc   0x000299fc   0x0000000c   Code   RO         1865    i.nrf_atomic_u32_sub  nrf_atomic.o
    0x00029a08   0x00029a08   0x00000044   Code   RO         1984    i.nrf_balloc_alloc  nrf_balloc.o
    0x00029a4c   0x00029a4c   0x00000030   Code   RO         1985    i.nrf_balloc_free   nrf_balloc.o
    0x00029a7c   0x00029a7c   0x00000030   Code   RO         1986    i.nrf_balloc_init   nrf_balloc.o
    0x00029aac   0x00029aac   0x000000c8   Code   RO         1987    i.nrf_balloc_status  nrf_balloc.o
    0x00029b74   0x00029b74   0x0000007c   Code   RO         3416    i.nrf_cli_backend_cmd_execute  nrf_log_frontend.o
    0x00029bf0   0x00029bf0   0x0000004c   Code   RO         2074    i.nrf_cli_build_in_cmd_common_executed  nrf_cli.o
    0x00029c3c   0x00029c3c   0x00000044   Code   RO         2075    i.nrf_cli_cmd_clear  nrf_cli.o
    0x00029c80   0x00029c80   0x00000044   Code   RO         2076    i.nrf_cli_cmd_cli   nrf_cli.o
    0x00029cc4   0x00029cc4   0x0000006c   Code   RO         2077    i.nrf_cli_cmd_cli_stats  nrf_cli.o
    0x00029d30   0x00029d30   0x00000030   Code   RO         2078    i.nrf_cli_cmd_cli_stats_reset  nrf_cli.o
    0x00029d60   0x00029d60   0x00000088   Code   RO         2079    i.nrf_cli_cmd_cli_stats_show  nrf_cli.o
    0x00029de8   0x00029de8   0x00000068   Code   RO         2080    i.nrf_cli_cmd_colors  nrf_cli.o
    0x00029e50   0x00029e50   0x0000002a   Code   RO         2081    i.nrf_cli_cmd_colors_off  nrf_cli.o
    0x00029e7a   0x00029e7a   0x0000002a   Code   RO         2082    i.nrf_cli_cmd_colors_on  nrf_cli.o
    0x00029ea4   0x00029ea4   0x00000098   Code   RO         2083    i.nrf_cli_cmd_echo  nrf_cli.o
    0x00029f3c   0x00029f3c   0x0000002a   Code   RO         2084    i.nrf_cli_cmd_echo_off  nrf_cli.o
    0x00029f66   0x00029f66   0x0000002a   Code   RO         2085    i.nrf_cli_cmd_echo_on  nrf_cli.o
    0x00029f90   0x00029f90   0x00000078   Code   RO         2086    i.nrf_cli_cmd_history  nrf_cli.o
    0x0002a008   0x0002a008   0x000000c4   Code   RO         2087    i.nrf_cli_cmd_resize  nrf_cli.o
    0x0002a0cc   0x0002a0cc   0x0000003c   Code   RO         2088    i.nrf_cli_cmd_resize_default  nrf_cli.o
    0x0002a108   0x0002a108   0x00000050   Code   RO         2089    i.nrf_cli_fprintf   nrf_cli.o
    0x0002a158   0x0002a158   0x0000027c   Code   RO         2090    i.nrf_cli_help_print  nrf_cli.o
    0x0002a3d4   0x0002a3d4   0x0000000c   Code   RO           14    i.nrf_cli_help_requested  cli.o
    0x0002a3e0   0x0002a3e0   0x0000000c   Code   RO         3417    i.nrf_cli_help_requested  nrf_log_frontend.o
    0x0002a3ec   0x0002a3ec   0x00000032   Code   RO         2091    i.nrf_cli_init      nrf_cli.o
    0x0002a41e   0x0002a41e   0x00000002   PAD
    0x0002a420   0x0002a420   0x000000c0   Code   RO         2092    i.nrf_cli_instance_init  nrf_cli.o
    0x0002a4e0   0x0002a4e0   0x00000006   Code   RO         2094    i.nrf_cli_print_stream  nrf_cli.o
    0x0002a4e6   0x0002a4e6   0x00000002   PAD
    0x0002a4e8   0x0002a4e8   0x00000074   Code   RO         2095    i.nrf_cli_process   nrf_cli.o
    0x0002a55c   0x0002a55c   0x00000048   Code   RO         2096    i.nrf_cli_start     nrf_cli.o
    0x0002a5a4   0x0002a5a4   0x00000068   Code   RO          614    i.nrf_drv_uart_init  nrf_drv_uart.o
    0x0002a60c   0x0002a60c   0x00000020   Code   RO         2482    i.nrf_drv_uart_tx   nrf_cli_uart.o
    0x0002a62c   0x0002a62c   0x00000018   Code   RO         2483    i.nrf_drv_uart_uninit  nrf_cli_uart.o
    0x0002a644   0x0002a644   0x0000001a   Code   RO         2566    i.nrf_fprintf       nrf_fprintf.o
    0x0002a65e   0x0002a65e   0x00000018   Code   RO         2567    i.nrf_fprintf_buffer_flush  nrf_fprintf.o
    0x0002a676   0x0002a676   0x000001da   Code   RO         2598    i.nrf_fprintf_fmt   nrf_fprintf_format.o
    0x0002a850   0x0002a850   0x00000150   Code   RO         2638    i.nrf_fstorage_erase  nrf_fstorage.o
    0x0002a9a0   0x0002a9a0   0x000000a0   Code   RO         2639    i.nrf_fstorage_init  nrf_fstorage.o
    0x0002aa40   0x0002aa40   0x00000050   Code   RO         2640    i.nrf_fstorage_is_busy  nrf_fstorage.o
    0x0002aa90   0x0002aa90   0x00000178   Code   RO         2641    i.nrf_fstorage_read  nrf_fstorage.o
    0x0002ac08   0x0002ac08   0x00000018   Code   RO         2725    i.nrf_fstorage_sdh_req_handler  nrf_fstorage_sd.o
    0x0002ac20   0x0002ac20   0x00000020   Code   RO         2726    i.nrf_fstorage_sdh_state_handler  nrf_fstorage_sd.o
    0x0002ac40   0x0002ac40   0x000000a4   Code   RO         2727    i.nrf_fstorage_sys_evt_handler  nrf_fstorage_sd.o
    0x0002ace4   0x0002ace4   0x00000200   Code   RO         2645    i.nrf_fstorage_write  nrf_fstorage.o
    0x0002aee4   0x0002aee4   0x00000024   Code   RO          864    i.nrf_gpio_cfg      nrfx_uart.o
    0x0002af08   0x0002af08   0x00000024   Code   RO         1058    i.nrf_gpio_cfg      nrfx_uarte.o
    0x0002af2c   0x0002af2c   0x00000012   Code   RO          865    i.nrf_gpio_cfg_default  nrfx_uart.o
    0x0002af3e   0x0002af3e   0x00000012   Code   RO         1059    i.nrf_gpio_cfg_default  nrfx_uarte.o
    0x0002af50   0x0002af50   0x00000012   Code   RO          866    i.nrf_gpio_cfg_input  nrfx_uart.o
    0x0002af62   0x0002af62   0x00000012   Code   RO         1060    i.nrf_gpio_cfg_input  nrfx_uarte.o
    0x0002af74   0x0002af74   0x00000014   Code   RO          867    i.nrf_gpio_cfg_output  nrfx_uart.o
    0x0002af88   0x0002af88   0x00000014   Code   RO         1061    i.nrf_gpio_cfg_output  nrfx_uarte.o
    0x0002af9c   0x0002af9c   0x00000090   Code   RO         3418    i.nrf_log_backend_add  nrf_log_frontend.o
    0x0002b02c   0x0002b02c   0x0000000a   Code   RO         2100    i.nrf_log_backend_cli_flush  nrf_cli.o
    0x0002b036   0x0002b036   0x0000001e   Code   RO         2101    i.nrf_log_backend_cli_panic_set  nrf_cli.o
    0x0002b054   0x0002b054   0x00000052   Code   RO         2102    i.nrf_log_backend_cli_put  nrf_cli.o
    0x0002b0a6   0x0002b0a6   0x000000c8   Code   RO         3251    i.nrf_log_backend_serial_put  nrf_log_backend_serial.o
    0x0002b16e   0x0002b16e   0x00000002   Code   RO         3288    i.nrf_log_backend_uart_flush  nrf_log_backend_uart.o
    0x0002b170   0x0002b170   0x0000002c   Code   RO         3290    i.nrf_log_backend_uart_panic_set  nrf_log_backend_uart.o
    0x0002b19c   0x0002b19c   0x00000018   Code   RO         3291    i.nrf_log_backend_uart_put  nrf_log_backend_uart.o
    0x0002b1b4   0x0002b1b4   0x00000030   Code   RO         3420    i.nrf_log_color_id_get  nrf_log_frontend.o
    0x0002b1e4   0x0002b1e4   0x0000027c   Code   RO         3421    i.nrf_log_frontend_dequeue  nrf_log_frontend.o
    0x0002b460   0x0002b460   0x00000008   Code   RO         3423    i.nrf_log_frontend_std_0  nrf_log_frontend.o
    0x0002b468   0x0002b468   0x0000000e   Code   RO         3424    i.nrf_log_frontend_std_1  nrf_log_frontend.o
    0x0002b476   0x0002b476   0x00000010   Code   RO         3425    i.nrf_log_frontend_std_2  nrf_log_frontend.o
    0x0002b486   0x0002b486   0x00000012   Code   RO         3426    i.nrf_log_frontend_std_3  nrf_log_frontend.o
    0x0002b498   0x0002b498   0x000000b0   Code   RO         3707    i.nrf_log_hexdump_entry_process  nrf_log_str_formatter.o
    0x0002b548   0x0002b548   0x000000a0   Code   RO         3430    i.nrf_log_init      nrf_log_frontend.o
    0x0002b5e8   0x0002b5e8   0x00000014   Code   RO         3431    i.nrf_log_module_cnt_get  nrf_log_frontend.o
    0x0002b5fc   0x0002b5fc   0x00000048   Code   RO         3432    i.nrf_log_module_filter_get  nrf_log_frontend.o
    0x0002b644   0x0002b644   0x00000050   Code   RO         3433    i.nrf_log_module_filter_set  nrf_log_frontend.o
    0x0002b694   0x0002b694   0x0000001c   Code   RO         3434    i.nrf_log_module_name_get  nrf_log_frontend.o
    0x0002b6b0   0x0002b6b0   0x00000028   Code   RO         3435    i.nrf_log_panic     nrf_log_frontend.o
    0x0002b6d8   0x0002b6d8   0x000000b6   Code   RO         3708    i.nrf_log_std_entry_process  nrf_log_str_formatter.o
    0x0002b78e   0x0002b78e   0x00000060   Code   RO         2841    i.nrf_memobj_alloc  nrf_memobj.o
    0x0002b7ee   0x0002b7ee   0x00000032   Code   RO         2842    i.nrf_memobj_free   nrf_memobj.o
    0x0002b820   0x0002b820   0x00000008   Code   RO         2843    i.nrf_memobj_get    nrf_memobj.o
    0x0002b828   0x0002b828   0x00000004   Code   RO         2844    i.nrf_memobj_pool_init  nrf_memobj.o
    0x0002b82c   0x0002b82c   0x0000001e   Code   RO         2845    i.nrf_memobj_put    nrf_memobj.o
    0x0002b84a   0x0002b84a   0x00000010   Code   RO         2846    i.nrf_memobj_read   nrf_memobj.o
    0x0002b85a   0x0002b85a   0x00000010   Code   RO         2847    i.nrf_memobj_write  nrf_memobj.o
    0x0002b86a   0x0002b86a   0x0000008e   Code   RO         2938    i.nrf_queue_generic_pop  nrf_queue.o
    0x0002b8f8   0x0002b8f8   0x00000012   Code   RO         2940    i.nrf_queue_is_empty  nrf_queue.o
    0x0002b90a   0x0002b90a   0x0000001e   Code   RO         2941    i.nrf_queue_is_full  nrf_queue.o
    0x0002b928   0x0002b928   0x00000006   Code   RO         2942    i.nrf_queue_max_utilization_get  nrf_queue.o
    0x0002b92e   0x0002b92e   0x00000008   Code   RO         2943    i.nrf_queue_max_utilization_reset  nrf_queue.o
    0x0002b936   0x0002b936   0x0000000e   Code   RO         2944    i.nrf_queue_next_idx  nrf_queue.o
    0x0002b944   0x0002b944   0x000000b2   Code   RO         2946    i.nrf_queue_push    nrf_queue.o
    0x0002b9f6   0x0002b9f6   0x00000002   PAD
    0x0002b9f8   0x0002b9f8   0x000000e0   Code   RO         2949    i.nrf_queue_status  nrf_queue.o
    0x0002bad8   0x0002bad8   0x00000024   Code   RO         2950    i.nrf_queue_utilization_get  nrf_queue.o
    0x0002bafc   0x0002bafc   0x00000070   Code   RO         3069    i.nrf_ringbuf_alloc  nrf_ringbuf.o
    0x0002bb6c   0x0002bb6c   0x0000007c   Code   RO         3070    i.nrf_ringbuf_cpy_get  nrf_ringbuf.o
    0x0002bbe8   0x0002bbe8   0x00000072   Code   RO         3071    i.nrf_ringbuf_cpy_put  nrf_ringbuf.o
    0x0002bc5a   0x0002bc5a   0x00000026   Code   RO         3072    i.nrf_ringbuf_free  nrf_ringbuf.o
    0x0002bc80   0x0002bc80   0x00000070   Code   RO         3073    i.nrf_ringbuf_get   nrf_ringbuf.o
    0x0002bcf0   0x0002bcf0   0x0000001c   Code   RO         3074    i.nrf_ringbuf_init  nrf_ringbuf.o
    0x0002bd0c   0x0002bd0c   0x00000030   Code   RO         3075    i.nrf_ringbuf_put   nrf_ringbuf.o
    0x0002bd3c   0x0002bd3c   0x0000000c   Code   RO         1570    i.nrf_rtc_event_clear  drv_rtc.o
    0x0002bd48   0x0002bd48   0x00000014   Code   RO         3875    i.nrf_sdh_ble_app_ram_start_get  nrf_sdh_ble.o
    0x0002bd5c   0x0002bd5c   0x00000118   Code   RO         3876    i.nrf_sdh_ble_default_cfg_set  nrf_sdh_ble.o
    0x0002be74   0x0002be74   0x00000154   Code   RO         3877    i.nrf_sdh_ble_enable  nrf_sdh_ble.o
    0x0002bfc8   0x0002bfc8   0x0000005c   Code   RO         3878    i.nrf_sdh_ble_evts_poll  nrf_sdh_ble.o
    0x0002c024   0x0002c024   0x00000054   Code   RO         3758    i.nrf_sdh_disable_request  nrf_sdh.o
    0x0002c078   0x0002c078   0x00000074   Code   RO         3759    i.nrf_sdh_enable_request  nrf_sdh.o
    0x0002c0ec   0x0002c0ec   0x00000024   Code   RO         3760    i.nrf_sdh_evts_poll  nrf_sdh.o
    0x0002c110   0x0002c110   0x0000000c   Code   RO         3761    i.nrf_sdh_is_enabled  nrf_sdh.o
    0x0002c11c   0x0002c11c   0x0000001c   Code   RO         3763    i.nrf_sdh_request_continue  nrf_sdh.o
    0x0002c138   0x0002c138   0x0000003c   Code   RO         3927    i.nrf_sdh_soc_evts_poll  nrf_sdh_soc.o
    0x0002c174   0x0002c174   0x0000000a   Code   RO         3129    i.nrf_section_iter_init  nrf_section_iter.o
    0x0002c17e   0x0002c17e   0x00000024   Code   RO         3130    i.nrf_section_iter_item_set  nrf_section_iter.o
    0x0002c1a2   0x0002c1a2   0x00000020   Code   RO         3131    i.nrf_section_iter_next  nrf_section_iter.o
    0x0002c1c2   0x0002c1c2   0x00000022   Code   RO         3164    i.nrf_sortlist_add  nrf_sortlist.o
    0x0002c1e4   0x0002c1e4   0x00000006   Code   RO         3166    i.nrf_sortlist_peek  nrf_sortlist.o
    0x0002c1ea   0x0002c1ea   0x0000000e   Code   RO         3167    i.nrf_sortlist_pop  nrf_sortlist.o
    0x0002c1f8   0x0002c1f8   0x0000001e   Code   RO         3168    i.nrf_sortlist_remove  nrf_sortlist.o
    0x0002c216   0x0002c216   0x00000002   PAD
    0x0002c218   0x0002c218   0x00000038   Code   RO         3218    i.nrf_strerror_find  nrf_strerror.o
    0x0002c250   0x0002c250   0x00000014   Code   RO         3219    i.nrf_strerror_get  nrf_strerror.o
    0x0002c264   0x0002c264   0x0000000a   Code   RO          868    i.nrf_uart_event_check  nrfx_uart.o
    0x0002c26e   0x0002c26e   0x0000000c   Code   RO          869    i.nrf_uart_event_clear  nrfx_uart.o
    0x0002c27a   0x0002c27a   0x0000000c   Code   RO          870    i.nrf_uart_int_enable_check  nrfx_uart.o
    0x0002c286   0x0002c286   0x0000000a   Code   RO         1062    i.nrf_uarte_event_check  nrfx_uarte.o
    0x0002c290   0x0002c290   0x0000000c   Code   RO         1063    i.nrf_uarte_event_clear  nrfx_uarte.o
    0x0002c29c   0x0002c29c   0x00000010   Code   RO         1571    i.nrfx_coredep_delay_us  drv_rtc.o
    0x0002c2ac   0x0002c2ac   0x00000010   Code   RO         1064    i.nrfx_is_in_ram    nrfx_uarte.o
    0x0002c2bc   0x0002c2bc   0x0000003a   Code   RO          800    i.nrfx_prs_acquire  nrfx_prs.o
    0x0002c2f6   0x0002c2f6   0x00000012   Code   RO          801    i.nrfx_prs_release  nrfx_prs.o
    0x0002c308   0x0002c308   0x00000010   Code   RO          871    i.nrfx_uart_0_irq_handler  nrfx_uart.o
    0x0002c318   0x0002c318   0x000000d4   Code   RO          873    i.nrfx_uart_init    nrfx_uart.o
    0x0002c3ec   0x0002c3ec   0x000000ec   Code   RO          874    i.nrfx_uart_rx      nrfx_uart.o
    0x0002c4d8   0x0002c4d8   0x00000012   Code   RO          875    i.nrfx_uart_rx_abort  nrfx_uart.o
    0x0002c4ea   0x0002c4ea   0x00000002   PAD
    0x0002c4ec   0x0002c4ec   0x000000a8   Code   RO          879    i.nrfx_uart_tx      nrfx_uart.o
    0x0002c594   0x0002c594   0x00000020   Code   RO          881    i.nrfx_uart_tx_in_progress  nrfx_uart.o
    0x0002c5b4   0x0002c5b4   0x000000c0   Code   RO          882    i.nrfx_uart_uninit  nrfx_uart.o
    0x0002c674   0x0002c674   0x00000010   Code   RO         1065    i.nrfx_uarte_0_irq_handler  nrfx_uarte.o
    0x0002c684   0x0002c684   0x0000006c   Code   RO         1067    i.nrfx_uarte_init   nrfx_uarte.o
    0x0002c6f0   0x0002c6f0   0x00000104   Code   RO         1068    i.nrfx_uarte_rx     nrfx_uarte.o
    0x0002c7f4   0x0002c7f4   0x0000002c   Code   RO         1069    i.nrfx_uarte_rx_abort  nrfx_uarte.o
    0x0002c820   0x0002c820   0x000000ac   Code   RO         1071    i.nrfx_uarte_tx     nrfx_uarte.o
    0x0002c8cc   0x0002c8cc   0x0000001c   Code   RO         1073    i.nrfx_uarte_tx_in_progress  nrfx_uarte.o
    0x0002c8e8   0x0002c8e8   0x00000108   Code   RO         1074    i.nrfx_uarte_uninit  nrfx_uarte.o
    0x0002c9f0   0x0002c9f0   0x00000018   Code   RO         3969    i.nvmc_config       system_nrf52.o
    0x0002ca08   0x0002ca08   0x00000090   Code   RO         2103    i.option_print      nrf_cli.o
    0x0002ca98   0x0002ca98   0x0000003c   Code   RO         3710    i.postfix_process   nrf_log_str_formatter.o
    0x0002cad4   0x0002cad4   0x00000098   Code   RO         3711    i.prefix_process    nrf_log_str_formatter.o
    0x0002cb6c   0x0002cb6c   0x000000d8   Code   RO          401    i.print_flash_info  main.o
    0x0002cc44   0x0002cc44   0x00000018   Code   RO          802    i.prs_box_get       nrfx_prs.o
    0x0002cc5c   0x0002cc5c   0x00000014   Code   RO         2728    i.queue_free        nrf_fstorage_sd.o
