:020000040002F8
:10600000C0500020C1630200C9630200CB630200DC
:10601000CD630200CF630200D163020000000000E4
:10602000000000000000000000000000D363020038
:10603000D563020000000000D7630200D9630200AC
:10604000DB630200DB630200D9690200DB6302004C
:10605000DB630200DB630200DB630200DB63020040
:10606000DB630200DB630200DB630200DB63020030
:10607000DB630200DB630200DB630200DB63020020
:10608000DB630200ED660200DB630200DB630200FB
:10609000DB630200DB630200FD660200DB630200DB
:1060A000DB630200DB630200DB630200DB630200F0
:1060B000DB630200DB630200000000000000000060
:1060C000DB630200DB630200DB630200DB630200D0
:1060D000DB630200DB630200DB6302000000000000
:1060E00000000000000000000000000000000000B0
:1060F00000000000000000000000000000000000A0
:10610000000000000000000000000000000000008F
:10611000000000000000000000000000000000007F
:10612000000000000000000000000000000000006F
:10613000000000000000000000000000000000005F
:10614000000000000000000000000000000000004F
:10615000000000000000000000000000000000003F
:10616000000000000000000000000000000000002F
:10617000000000000000000000000000000000001F
:10618000000000000000000000000000000000000F
:1061900000000000000000000000000000000000FF
:1061A00000000000000000000000000000000000EF
:1061B00000000000000000000000000000000000DF
:1061C00000000000000000000000000000000000CF
:1061D00000000000000000000000000000000000BF
:1061E00000000000000000000000000000000000AF
:1061F000000000000000000000000000000000009F
:10620000DFF80CD000F026FA004800476593020042
:10621000C050002030B450E8012F93B2C489234409
:106220008489A34228BF1B1B0489A34202BFBFF37A
:106230002F8F002007E0C3EA020340E80134002C5E
:10624000E9D14FF001000A6030BC704750E8012FDF
:10625000C2EA024240E801210029F7D1704730B478
:1062600050E8022F1FFAA2F3C488A34202BFBFF373
:106270002F8F00200DE0C48923448489A34228BFC6
:106280001B1BC2EA034340E80234002CE8D14FF064
:1062900001000A6030BC704750E8022FC2EA224277
:1062A00040E802210029F7D17047034653E8022F46
:1062B000D988B2EB324F4FF0000017BF92B241EADB
:1062C000014142EA014104E05A68B2EB324F08BF93
:1062D000012043E80212002AE8D1704730B4044696
:1062E00054E8000F0D4644E80053002BF8D1156028
:1062F00030BC704730B4044654E8000F40EA010552
:1063000044E80053002BF7D1156030BC704730B41F
:10631000044654E8000F00EA010544E80053002B4E
:10632000F7D1156030BC704730B4044654E8000F14
:1063300080EA010544E80053002BF7D1156030BC1A
:10634000704730B4044654E8000F00EB010544E800
:106350000053002BF7D1156030BC704730B40446B1
:1063600054E8000FA0EB010544E80053002BF7D1DF
:10637000156030BC704770B404464FF0000054E81C
:10638000006F0D68AE4207BF44E80023012044E8D7
:1063900000630E60002B1CBF0020F0E770BC70474C
:1063A00030B4044654E8000F88422CBF451A054615
:1063B00044E80053002BF5D1156030BC7047000055
:1063C0000648804706480047FEE7FEE7FEE7FEE78F
:1063D000FEE7FEE7FEE7FEE7FEE7FEE701670200F5
:1063E0000162020000487047A0E202002DE9FE436E
:1063F000994615468846074601AC022942D3002D2E
:1064000040D000200290A8F101004FF0FF3600902C
:1064100022E000FB057201FB057011464A469047D9
:10642000002805DC54F82600304444F8260013E028
:1064300060682A4600FB057154F8040C00FB0570E7
:1064400007E00B7890F800C001F801CB00F8013BA1
:10645000521E002AF5D1764254F8040C6168884235
:10646000D7DC4B462A463846FFF7C0FF54F8040CE9
:106470004B46A8EB0001401C00FB05702A46491E54
:10648000FFF7B4FFBDE8FE8310B5431A934209D26B
:106490008318881803E010F8011D03F8011D521E2F
:1064A000F9D210BD40EA01039B0703D009E008C9F7
:1064B000121F08C0042AFAD203E011F8013B00F8C9
:1064C000013B521EF9D210BDD2B201E000F8012BFF
:1064D000491EFBD270470022F6E710B513460A4664
:1064E00004461946FFF7F0FF204610BD421C10F885
:1064F000011B0029FBD1801A704710B5002200E073
:10650000521C835C8C5CA34201D1002BF8D1D8B221
:10651000E1B2401A10BD034611F8012B00F8012B1F
:10652000002AF9D11846704730B5054600200346C9
:1065300000E05B1C934205D2EC5CC85C201A01D1E0
:10654000002CF6D130BD2DE9F04791460F4680462C
:106550000446002614F8015B2DB1FFF743FF0068E5
:10656000405DC007F6D12B2D02D02D2D18D0641E12
:106570004A463946204600F01EF827B13968A14244
:1065800001D1C7F8008071054FF002040BD54042DD
:10659000002803DD00F026FA0460A007BDE8F087BC
:1065A00046F48066E4E70028F8DA00F01BFA04609D
:1065B0006FF00040F2E72DE9F05F82460078002797
:1065C00015468B460AF10104B946302801D09DB129
:1065D00013E014F8010B0127782803D0582801D0C4
:1065E00045B10AE00DB1102D07D10027102514F890
:1065F000010B02E0082500E00A250026B0460EE067
:1066000005FB080005FB06F1012701EB10461FFA08
:1066100080F8B6F5803F00D3B94614F8010B29463F
:1066200000F02AF80028EBDABBF1000F05D00FB11B
:10663000641E00E05446CBF80040B9F1000F06D0CC
:1066400000F0D0F902210160C81EBDE8F09F48EAC1
:106650000640FAE7064C074D06E0E06840F001030B
:1066600094E8070098471034AC42F6D3FFF7CCFD0E
:1066700048F5020068F502003A2800D2303820F0D0
:106680002002412A01D3A2F13700884201D34FF002
:10669000FF30704770B58C1810F8015B15F00703D8
:1066A00001D110F8013B2A1106D110F8012B03E0AB
:1066B00010F8016B01F8016B5B1EF9D12B0705D4B3
:1066C0000023521E0DD401F8013BFAE710F8013BFC
:1066D000CB1A921C03E013F8015B01F8015B521E18
:1066E000F9D5A142D8D3002070BD0000024902486C
:1066F000091F0968006808471423002005F0F6BC4C
:10670000F0B5A449A4484FF080540B68D4F8302168
:106710000078D4F83411551CC0F3031006D0944609
:1067200001270026BCF1060F03D00AE003F0FF0C9E
:10673000F6E7B4F82453DFF864C2C5F30425CCF8B7
:106740000050DDB2062D06D1032804D1DFF854C273
:10675000934DCCF87450551C04D09446BCF1060FF0
:1067600003D00AE003F0FF0CF8E7D4F84452DFF856
:1067700038C2C5F34235CCF80050DDB2062D08D141
:10678000032806D1894DD5F800C02CF0807CC5F8CF
:1067900000C0551C04D09446BCF1060F03D00BE09A
:1067A00003F0FF0CF8E74FF08045C5F80C61C5F821
:1067B00010617D4D2D1F2E60DDB2062D08D10328FE
:1067C00006D1DFF8E4C103250CF1640CCCF80050CD
:1067D000DDB2062D10D103280ED1DFF8D4C1052576
:1067E000CCF80050724D78352F60714D08352E6011
:1067F0000CF104063F253560551C04D016460D46A5
:10680000062E03D05BE0DEB20546F9E7ED1E012D52
:1068100055D9684D2D68684E3560664D2D1D2D6823
:10682000361D3560634D08352D68361D3560614D68
:106830000C352D68361D35605E4D10352D68361DC2
:1068400035605C4D14352D68361D3560594D183551
:106850002D68594E20363560564D1C352D68361D35
:106860003560544D20352D68361D3560514D243529
:106870002D68361D35604F4D28352D68361D356025
:106880004C4D2C352D68361D35604A4D30352D6800
:10689000494E40363560474D34352D68361D3560DC
:1068A000444D38352D68361D3560424D3C352D68D8
:1068B000361D35603F4D40352D68361D3560551C01
:1068C00003D01646062E02D007E0DEB2FAE7D4F86F
:1068D00058523A4E05F04F053560551C03D013460B
:1068E000062B02D008E0DBB2FAE735480368DB0785
:1068F00002D06FF001030360062A07D1C91E0229E6
:1069000004D93048016841F4806101602748743837
:10691000016841F470010160BFF34F8FBFF36F8FC7
:10692000D4E94C104FF01022062907D1C01E0328CD
:1069300004D9D2F808021C491C310860D2F80002C0
:10694000002803DBD2F8040200281FDA012006F039
:106950004FF81521C2F800121B480368002BFCD029
:10696000C2F8041201680029FCD0002006F040F8AB
:10697000BFF34F8F0D48F0380168144A01F4E0610D
:1069800011430160BFF34F8F00BFFDE7114910486D
:106990000860F0BDE00F00F0E80F00F04035014066
:1069A0000DF0ADBA00C007403C050040FCED00E032
:1069B000105600400404001020C50040E40E0040C2
:1069C000000400403C17004000E401400400FA05C8
:1069D0000090D003DC23002001480068004700003D
:1069E000D022002000487047E023002002E008C8C1
:1069F000121F08C1002AFAD170477047002001E039
:106A000001C1121F002AFBD170470000012120287C
:106A100003DA81400548014003E0402802DA2038CB
:106A2000814009B10120704700207047FC06FFBD7E
:106A3000800701D00020704701207047C3688B4257
:106A400006D811440069491E814201D801207047CF
:106A50000020704772B604F02BFE00BF04F0C2FBAA
:106A60000028FBD1144D154915486A88081AC40836
:106A70002AB1012000EB044012A104F0F1FC1448FB
:106A80000068C00700D000BE6888022805D3022035
:106A900000EB04400FA104F0E3FCBFF34F8F0C4860
:106AA000E43801680F4A01F4E06111430160BFF36B
:106AB0004F8F00BFFDE700005824002048F6020079
:106AC000E0F50200466174616C206572726F7200BD
:106AD000F0ED00E053797374656D20726573657431
:106AE000000000000400FA050EB500210091CDE978
:106AF00001106A4644F20100FFF7ACFF0EBD000032
:106B0000014801F07EBB0000E02200203AB100689D
:106B10000129426100D00021016100207047072057
:106B20007047000038B51148082358224168009189
:106B30000F49006802F0F6FE002815D10D4A69469B
:106B40000D4801F063FB04000ED101210A4801F059
:106B5000E2FB0123094A1946074801F02AFB0649CE
:106B6000012008390870204638BD0000A0DB020073
:106B7000042A002065CE0200E0220020FFFF7F00F3
:106B800070B5044690F820000D4608B1002070BD95
:106B9000A26101F0BBFE401941F10001C4E902010C
:106BA000206900B125612146BDE87040002006F053
:106BB0000BBC0146002081F82000012006F004BC37
:106BC00030B5EFF3108172B60D4A9468012324B1F9
:106BD0000370002900D162B630BD93604FF0E0230E
:106BE000D3F88051074C25401560C3F88041D3F895
:106BF000844154605A17C3F8842100220270E8E7E8
:106C00005C2A0020FC06FFBD0B498A68002A11D0CF
:106C100000280FD1EFF3108072B60B684FF0E0221E
:106C2000C2F800314B68C2F8043100228A600028A3
:106C300000D162B6704700005C2A00202DE9F041C7
:106C4000064608680C46411C4FF0A0474FF001056E
:106C500006D005FA00F1C7F80815206804F08AF993
:106C60006068411C02D0002104F072F93168A0690B
:106C7000C1F82405607D227D31681043C1F86C05A0
:106C8000D4E900123068C0F81425C0F80C15207D36
:106C9000012815D1A068411C02D0002104F058F948
:106CA000E068411C05D08540C7F80855E06804F04D
:106CB00061F9D4E902123068C0F80825C0F810154F
:106CC000BDE8F0812DE9F041064608680C46411CFC
:106CD0004FF0A0474FF0010506D005FA00F1C7F8C4
:106CE0000815206804F050F96068411C02D00021AA
:106CF00004F037F93168A069C1F82405607D217D71
:106D000032680843C2F86C05D4E900123068C0F854
:106D10000C15C0F81425207D012815D1A068411C50
:106D200002D0002104F01DF9E068411C05D0854027
:106D3000C7F80855E06804F027F9D4E90212306872
:106D4000C0F80825C0F81015BDE8F081F0B50022A4
:106D50000D4BCA60C1E901230C4B0D4D1446EE1AD0
:106D60000A600CE003EB0215EF683F79FF2F05D0B6
:106D7000A04202D1A8680860F0BD641C521CB2EBAE
:106D8000161FEFD3F0BD000014E00200C0F50200B2
:106D9000E0F502002DE9F84F0546861C00208DF82D
:106DA000000091460F464FF0010A6846FFF708FFC2
:106DB0001B4C04F21C4860683860D4E90101194F8B
:106DC000401A3968081A0EE00121404602F0F5FD2C
:106DD00002F0D6F90146404602F0EFFDD4E9010188
:106DE000401A3968081A401C8642EDD8B9F1000FE4
:106DF00003D0052065F3891002E0062065F39F505B
:106E000061683A68114004EB8101C86060683044F1
:106E100060609DF80000FFF7F7FE5046BDE8F88F70
:106E2000A02C00205C23002070B50D4604460A29E2
:106E300002D10D21FFF7F8FFA0682268411CA16074
:106E40001554D4E90101814204D32046BDE87040C5
:106E500003F005BC70BD00000448816840688142B1
:106E600001D101207047002070470000A02C0020B5
:106E700070B5816804468A7F002A4DD0C87F0028FB
:106E80004AD0121A0844D5B200F120016A1C1F3002
:106E9000FFF7FAFAA068C17F491EC177A068817F19
:106EA000491E81778DB308221C49206903F0CAFB73
:106EB000204602F007FD8178C078814211D1A06898
:106EC00017A2C17F431808212046203303F01CF984
:106ED000204600F013F929462046BDE8704001F035
:106EE0005BB8204600F01EF9204600F007F9A068C4
:106EF0000BA2C17F431808212046203303F004F978
:106F00002046BDE8704000F003B92069BDE870403C
:106F1000044A03A103F096BB70BD0000F8700200A4
:106F20002573000081DD020070B504468068827F11
:106F3000C17F521A12F0FF053AD0084400F1210136
:106F40002A462030FFF7A0FAA068817F491E81778A
:106F5000204602F0B7FC8178C078814214D1A06845
:106F600014A2C17F431808212046203303F0CCF837
:106F7000114A10A1206903F065FB6D1EE9B220469D
:106F8000BDE8704001F008B8204600F0CBF820467C
:106F900000F0B4F8A06807A2C17F4318082120467A
:106FA000203303F0B1F82046BDE8704000F0B0B8DF
:106FB00070BD00002573000085DD02002DE9F04161
:106FC000044680680F46D0F84811C27F11F00106D0
:106FD000817FA1EB0203DDB20BD07F2901D3002D0D
:106FE0007ED0A068C17F0844002180F8207066B17F
:106FF00013E07F297CD2002DF3D0831803F1200108
:107000002A46481CFFF740FAEBE7A068827F521C33
:10701000D2B28277A068203281544DB3204602F06C
:1070200051FC8178C07881420ED1A06831A2C17F25
:10703000431808212046203303F066F8A81BC1B28C
:10704000204600F0A9FF21E0204600F06BF8A06880
:1070500028A2C17F431808212046203303F054F8AA
:10706000204600F055F80121204601F06FF80DE0B0
:107070003EB1A068827F521CD2B28277A0682032D3
:1070800081543A461CA1206903F0DCFAA168C87F4C
:10709000401CC877204600F06CFF0028204603D033
:1070A000BDE8F04100F084BF01F01CFC00281FD0B7
:1070B000204602F007FC0546C078A978401A401E19
:1070C000C1B2204600F0F6FE204600F071FFE878DD
:1070D000A978401AC1B2204601F044F8287800E0AF
:1070E00006E0401EC1B22046BDE8F04101F02EB8D6
:1070F000BDE8F08125730000256300000069024AA5
:1071000002A103F09FBA000079DD020025730000A0
:107110000069024A024903F095BA000073DD0200DB
:107120000C7102000069024A024903F08BBA0000A8
:1071300070DD02000C7102002DE9F04F4FF00009E4
:1071400095B005464F464C4600F010FE284601F02B
:1071500009FD284600F0BAFE284600F00AFF10B9E3
:10716000284600F025FFAA680C2301A90EA82032AA
:1071700002F082FA03460E9840B15BB149A20221A7
:10718000284602F0C1FF15B0BDE8F08F284600F098
:107190000FFFF8E7494848490026A1EB00080DF128
:1071A000040A834613E008D345A0009049A20221B7
:1071B0002846019B02F0A8FFE5E70BEBC6046068D8
:1071C00001685AF82900FFF798F918B1761CB6EB58
:1071D000D80FE8D94FF000000F90A9684860886088
:1071E000C86008616168C86828B14AC9AA68C2E96C
:1071F0000360C2E90113606809F101044FF0000661
:10720000D0F808800E98844235D25AF8240033A171
:10721000FFF773F940B35AF8240031A1FFF76DF975
:1072200010B310A832460090761C0FAB21464046A2
:1072300000F058FDFEB10F98E8B101685AF824003B
:10724000FFF75BF90028DDD10F98C16839B190E8EC
:107250004810AA682746C2E903C1C2E901360026E0
:10726000641CD0F80880CDE7A868D0F8481141F038
:107270000201C0F84811A868036933B10E980AEBFF
:107280008702C11B2846984704E017A2022128461E
:1072900002F03AFFA868D0F8481121F00201C0F8C6
:1072A000481170E76E6F74207465726D696E617459
:1072B00065643A2025630A00C0F5020068F5020003
:1072C0003A20636F6D6D616E64206E6F7420666F1F
:1072D000756E6400257325730A0000002D68000098
:1072E0002D2D68656C700000506C656173652073AE
:1072F000706563696679206120737562636F6D6D77
:10730000616E642E0A0000008068D0F84801C0F366
:10731000C000704700B589B020220D4901A8FFF7D1
:10732000B3F8062001900820029000208DF8180084
:1073300003200090064801231A4601A9183803F0DB
:1073400055F8002801D0FFF7CFFB09B000BD0000C1
:10735000C8DA02002DE9F0410446C0688EB00D463F
:10736000406800263246006801A904F07EFA18B190
:1073700000200EB0BDE8F0816DB1019804F056FA1E
:10738000A168D1F83801401CC1F8380100F00700AD
:1073900001287AD10126204602F094FA0546807829
:1073A000012804D9401EC1B2204600F0DBFE287837
:1073B000012804D9401EC1B2204600F0EDFD204650
:1073C000FFF79CFE2EB132A20221204602F09CFE65
:1073D0005BE04FF000080023082202A9019804F0A6
:1073E00034FA04980590BDF80C00ADF81800BDF80B
:1073F0000E00ADF81A008DF81D800298082700F0E5
:107400000300012802D0022818D032E002983B463F
:10741000860AC0F3C2008DF81C00029808A9C0F3C8
:107420008315AA00019804F010FA2069009005ABBA
:107430002A4608A9304604F04FF91AE00298850D53
:10744000C0F3C2008DF81C00082D01D22E4600E0CA
:1074500008263B46324608A9019804F0F6F937445D
:10746000AD1B05AA314608A8236904F015F8002DC4
:10747000EAD1019804F0DAF9E068002201A9406835
:10748000006804F0F2F90028A5D0012071E700009F
:107490004C6F7374206C6F6773202D20696E63725C
:1074A00065617365206C6F67206261636B656E64F4
:1074B0002071756575652073697A652E0A00000074
:1074C00008B50B46009102A2022102F01DFE08BD84
:1074D00025733A206D697373696E672070617261FC
:1074E0006D657465722E0A54727920272573202DDC
:1074F000682720666F722068656C702E0A00000095
:10750000014802F0F1BF0000B0DA020030B4406878
:1075100004682469A44630BC6047000010B50548E3
:1075200003F01CF8002803D0BDE81040FFF7DCBAD8
:1075300010BD0000B0DA02002DE9FC41002604462F
:107540000127019601AB012269462046FFF7DEFFC5
:107550000198002832D09DF800507F2DF2D8A06805
:10756000417821B101297DD002297CD18AE00D2DFD
:1075700009D00A2D07D0D0F84821002161F38D12DF
:10758000C0F8482122E0D0F84811C1F3871129B191
:10759000D0F84811C1F38711A94217D1D0F848118A
:1075A00065F38D11C0F84811A068817F41B1204674
:1075B000FFF7C2FD0221204600F0F4F8BDE8FC818F
:1075C000C0F84461204600F0F3FCF3E7092D1ED01B
:1075D00004DC002DB6D0082D04D121E01B2D12D0E3
:1075E0007F2D26D0FEF7FEFE0068405D10F03E0FB6
:1075F000A8D02046FFF788FE20B39DF80010204653
:10760000FFF7DCFC9EE7A168012048709AE720465E
:10761000FFF77AFE002895D0204600F0DDF891E7CC
:107620002046FFF771FE00288CD02046FFF720FC93
:1076300088E72046FFF768FE002883D02046FFF742
:1076400073FC7FE7A1689DF800008A7F7F2AD9D26A
:10765000CA7F8B18521CCA7783F82000A068C17FAC
:10766000084401E007E008E080F82060A068817F1E
:10767000491C817766E75B2D01D0002100E00221E3
:1076800041705FE7002141702046FFF73DFE002872
:1076900094D09DF80000422840D01BDC33287CD0D9
:1076A00012DC312872D03228ACD1A1680320487096
:1076B000A068D0F84811D0F8482127EA010161F309
:1076C0000002C0F848213DE7342856D0412899D11E
:1076D000012124E0462853D01BDC432823D0442832
:1076E00090D1204602F0EEF8054601788079401CE2
:1076F000814202D1A878012884D001294FF00101EC
:10770000204633D000F048FCA068C17F491EC177F5
:1077100018E748283DD04C288AD1C9E700212046E7
:1077200001F00EF90EE7204602F0CCF8054601788C
:107730004078814203D1A878EA7890429AD068795B
:1077400081424FF00101204609D100F0B3FB697975
:10775000204600F021FCA068C17F491CD7E700F05B
:10776000F5FCA168C87F401CC877EBE600F0FAFC86
:107770006979204600F0EAFCC6E7A168032048705A
:10778000204600F0A3FBDDE607E0FFE7A168032049
:107790004870204600F0C3FBD4E6A168032048707F
:1077A00047E700008268022911700CD1826800212D
:1077B00082F820108268D1778268917702A2032133
:1077C000036802F0A1BC704725730000002801D0B7
:1077D000FEF78CBE704700002DE9F04F05460020F3
:1077E000A7B007461590064620900690A868817FAE
:1077F000C1F17F01C9B25FEA010970D0C27F00F117
:107800002001A030FEF740FEA8680024C17F084494
:1078100080F8A040FEF7E6FD21900168A8680C23DF
:10782000C27F0244D27F895CC0F84441AA6801F05B
:10783000010A07A916A8A03201F01EFF0798FFF75A
:10784000C5FF00F0FF08A34617941894169818B1C6
:107850005044401EB0426CD8BAF1000F01D0002055
:1078600005E007A850F82600FFF7B0FFC0B2804639
:10787000002419A822460090641C17AB31465846D4
:1078800000F030FA179800286CD0016807A842462B
:1078900050F8260001F07EFA0028EAD018987F1CE4
:1078A000F0B117980068FFF791FF0699C0B28842BF
:1078B00000D90690B9F1000F2ED022A8009018AB85
:1078C00031465846159A00F00DFA17980168189835
:1078D00001EB08020168002001EB080316E08DE0CF
:1078E000601E209017980068FFF770FFC0B20690E6
:1078F000A0EB080048450FDAC0B20CE013F800C056
:10790000614506D1401C10F0FF0010D0115C002929
:10791000F4D1814500D98146601E159017981890C2
:10792000A7D266A20421284602F0EEFB1AE0FF204F
:10793000EFE7002419A822460090641C17AB3146DB
:10794000584600F0CFF9ECB31798002856D00168DC
:1079500007A850F82600FEF7D0FD0028EAD11798B6
:10796000D0F808B0BBF1000F09D0179838B11699BC
:10797000761CF6B201EB0A008642FFF467AF002FD7
:107980003CD0012F43D000212846069A05F03CF850
:10799000209C0DF11C0A19A822460090641C17AB0C
:1079A0003146584600F09EF91798424601685AF849
:1079B000260001F0EFF940B117987F1E069A016882
:1079C000284600E01DE005F01FF8002FE3D146A295
:1079D000032128462B6802F097FBAB6843A20821DD
:1079E0002846203302F090FB284600F079FB1898D7
:1079F0004A4601682846414400F012FA27B0BDE823
:107A0000F08F2EA20421284602F07EFBF6E79BF8B9
:107A1000000038B119A8009018AB31465846159AA5
:107A200000F060F918980068FFF7D0FE404506D0D6
:107A300018984A4601682846414400F0F1F9219817
:107A4000A9680268C87F0B1893F82030D25CD2076F
:107A500015D0897F8842D1D2284601F033FF84783F
:107A6000A868C17F491CC177284601F02BFF8078A8
:107A7000A0421FD10121284600F068FBBEE7D1F8E3
:107A80004801C00711D0D1F8480120F00100C1F829
:107A9000480120212846FFF791FAA868D0F848113C
:107AA00041F00101C0F84811A8E720212846FFF75E
:107AB00085FAA3E7284600F07BFA9FE7546162202D
:107AC00066756E6374696F6E3A20636F6D6D616E7B
:107AD000647320636F756E746572206F766572666D
:107AE0006C6F7765642E0A000A2573002573000009
:107AF000002806D08868D0F8481141F02001C0F86D
:107B00004811704770B5044640680D4690F828004B
:107B100030B1A0680068FFF74CF808B108280CD114
:107B2000012685B1606902F081FD6168002208319B
:107B3000606902F037FD08B1062070BD606880F80A
:107B40002960002070BD606890F8280048B9074A95
:107B50000021A068FEF7DAFF6168002881F828603C
:107B6000F0D12046BDE8704005F058BA31D302008C
:107B700070B5044640680D460260606800224360AC
:107B8000606880F82820606880F8292060682022DA
:107B90000830FEF779FC2C61074A2946606902F03B
:107BA00001FD050005D1E06804F0A2F8206904F0A9
:107BB0009FF8284670BD000055D402001A60C068C6
:107BC0001A4603F0D3BF10B50446406902F02EFDFB
:107BD000A0680068BDE81040FEF7EBBF7CB51A60F6
:107BE000044600691A4603F0FFFF050025D16069CD
:107BF000134A0178515C19B1001D04F067FE02E0E0
:107C00000C3004F0C7FCC0B9FF20009001236A4685
:107C100001A9206904F034F878B900980199C2B23A
:107C2000606902F0F3FC0546606890F8290020B115
:107C30001DB92069009904F010F828467CBD0000A9
:107C4000C42200201CB51346CDE9001202A2022175
:107C500002F05AFA1CBD000025733A20756E6B6E57
:107C60006F776E20706172616D6574657220272573
:107C700073270A54727920272573202D68272066E0
:107C80006F722068656C702E0A0000002DE9F843C1
:107C90001E4615468846074600241BE0786808EB18
:107CA00004016B460268D2F80CC02A46E0470098EF
:107CB00004442D1A70B9B868017803290AD000BFAE
:107CC000D0F848118906FBD5D0F8481121F02001E1
:107CD000C0F84811002DE1D1002E01D0009830608D
:107CE000BDE8F8832DE9F05F1C460A9E15464FF06B
:107CF000000959B180B3017839B34268314628464A
:107D000090473068D8B12660BDE8F09F1449154807
:107D1000A1EB0008B5EBD80F11D2DFF84CA000267C
:107D2000834609E00BEBC607786801685AF825001E
:107D3000FEF7E3FB30B1761CB6EBD80FF2D3C4F8F4
:107D40000090E1E778682060DEE7406800EB021011
:107D5000016809B11860D7E7FFE7C3F80090D3E7DF
:107D6000C0F5020068F50200E42300202DE9F0418F
:107D700085680646002495F82000002811D0A0460A
:107D8000FEF730FB0746006804F1200104F101040E
:107D9000695CE4B2415CC90705D0002CF4D185F8D8
:107DA0002080BDE8F081641E14F0FF040FD0A87F8E
:107DB000021B04F12000291805F12000521CFEF7D7
:107DC00063FBB168887F001B8877B168C877B268A9
:107DD0003D68937FD0181F300446002102E0491C03
:107DE000C9B2401E0778EF5DFF07F8D18442D8D0B2
:107DF0005B1A203302F80380B268907F401A9077B4
:107E0000B168C877CDE710B5D0E90234D1E90220D6
:107E1000D11AA04101D3012010BD002010BD0000E7
:107E20002DE9F0410446806815460F46827FC17FE8
:107E3000531A2A44DEB27F2A37D8002D35D00844A1
:107E400000F1200105F120021044721CFEF71CFB1A
:107E5000A0682A46C17F084439462030FEF714FB4B
:107E6000A0682030FFF7B2FCA16811A28877A06853
:107E7000C17F431808212046203302F045F9A0684D
:107E8000C17F2944C177204600F073F818B9204615
:107E900000F028FD10B1204600F08AF8002E04D032
:107EA0002046BDE8F04100F01BB9BDE8F0810000BC
:107EB00025730000002904D00A46006901A102F0E0
:107EC000C1BB70471B5B25644200000070B50546CE
:107ED00001F0F8FC044600786178884203D1A0786C
:107EE000E17888421AD0E178A078814204D9081A52
:107EF000C1B22846FFF7DEFF20786178884205D9B5
:107F0000401AC1B2284600F047F804E0081AC1B28E
:107F1000284600F01BF9A868817FC17770BD70B555
:107F2000054601F0CFFC044601788079401C81426F
:107F300002D1A07801281BD0A078012804D9401EC6
:107F4000C1B2284600F00EF92078A179884206D9FE
:107F5000401A401EC1B2284600F01EF805E0081A7B
:107F6000401CC1B2284600F0F1F8A9680020C8778B
:107F700070BD10B504460068FFF728FC0146A068F4
:107F8000C27F407E1144B1FBF0F200FB121008B139
:107F9000002010BD012010BD002904D00A46006950
:107FA00001A102F04FBB70471B5B25644400000039
:107FB000006901A102F046BB0A0000002DE9FC4760
:107FC000002604468DF8046080683546B146B04608
:107FD0008021A030FEF77FFA4049206902F032FB91
:107FE000206902F03CFB00276B46012201A92046D4
:107FF000FFF78CFA0098D8B19DF804001B2806D032
:10800000A16891F8A0101B29EED152281FD0A268B8
:1080100008F1A001505408F1010000F0FF08B8F188
:10802000090F0AD9A168042081F8A090BDE8FC8757
:108030002A494FF6C0101031884700980028D3D144
:108040007F1CBFB2B7F57A7FCED30D20EEE7A168D3
:1080500008F1A0004A4601F80090A16891F8A1003B
:108060005B2803D081F8A0200B20DFE702206FF00F
:108070002F0309E005EB850503EB4505401C3D4456
:10808000C0B2ADB2802808D200F1A007CF5D3B2F6F
:10809000F0D1401CC0B2802809D30C20C6E700BF35
:1080A00006EB860603EB46063E44B6B2F1E700F166
:1080B000A007CF5D002FF3D1FA20FA2E01D9087561
:1080C00000E00E75FA2D02D9A168887501E0A0685C
:1080D0008575A06880F8A0200020A7E791DD020048
:1080E00070B5054601F0EEFB04468078E1788842E1
:1080F00001D1012600E000262846FFF73AFF18B913
:10810000284600F0EFFB10B12846FFF751FF1EB1E3
:1081100060782178401A12E0E078A178401AC1B264
:10812000284600F01FF820786178884206D9401A66
:10813000C1B22846BDE8704000F008B8081AC1B2C4
:108140002846BDE87040FFF727BF0000002904D093
:108150000A46006901A102F075BA70471B5B2564ED
:1081600043000000002904D00A46006901A102F082
:1081700069BA70471B5B25644100000010B50021FF
:10818000024801F030FC80F3100010BDBC3000202C
:108190004FF480328A400168C1F848230068C0F873
:1081A000082370474FF4A07202EB810189B200F0FE
:1081B000D2B92DE9F04105460E464FF4A07000EB10
:1081C000860081B228684FF48034B440984622F08B
:1081D0007F47C0F808432868C0F84843286803F080
:1081E000ADFD286800EB8600C0F840752868C0F82F
:1081F0004443B8F1000F02D02868C0F80443BDE83A
:10820000F0810068D0F804057047000070B543792C
:10821000274C2A4D44F823204279231D03EBC20248
:10822000254C1679234A121BD40846B168880826C3
:1082300002283AD3022000EB044021A133E0066873
:108240000A88C6F8082590F904208978002A4FEAA0
:10825000411104DB02F1E02282F8001405E002F093
:108260000F0202F1E02282F8141D90F9041001229D
:10827000002909DB01F01F0602FA06F64909890008
:1082800001F1E021C1F800614179002603EBC10151
:108290000A71417943F831006888032805D3032027
:1082A00000EB04400FA103F0DBF8304670BD000086
:1082B0001023002010F60200E0F502003C2400200C
:1082C00052544320696E7374616E636520616C72F1
:1082D0006561647920696E697469616C697A656445
:1082E0002E0000005254433A20696E697469616C33
:1082F000697A65642E00000090F90400002809DB0B
:1083000000F01F02012191404009800000F1E020AF
:10831000C0F8001270470A46022100F013B94FF46A
:10832000827100F018B9006801210160704700688F
:108330000121416070472DE9F05F07460C464FF47C
:10834000A07000EB84001FFA80FA38684FF4803682
:10835000A6409B4622F07F45C0F848633868C0F8C5
:1083600008633868D0F8048500EB8402D2F84095A1
:10837000C2F840855146386803F0E0FCA9EB0800DC
:1083800020F07F40012806D1102003F087FF5146DE
:10839000386803F0D3FC3868D0F80485C0F844632B
:1083A000A5EB080121F07F413868012900EB84002A
:1083B00010D0C0F840553868D0F804156FF07F4CE5
:1083C0006A1A521E22F07F42ACEB0B03934217D382
:1083D00062B118E06D1CC0F84055102003F05EFF3C
:1083E0003868D0F8040540450AD10CE000EB840061
:1083F0006D1CC0F840553868D0F80405884202D09A
:108400000D20BDE8F09F01223146384600F09AF871
:108410000020F6E72DE9F843104D0F4680461E4632
:1084200091466946286801F090FA040014D01C2196
:10843000FEF751F801202071C4F81490380BC4F8ED
:108440000080C4E902606946286801F09FFA04F0E0
:108450005FFC0020BDE8F8830420FBE73CDE02005F
:1084600070B516460C46054601F0B4FF30B12846FB
:10847000BDE870400022114601F06EBE032C05D00D
:1084800028463168BDE87040FFF71AB81022002175
:108490007068FEF758F804460A220021B068FEF71B
:1084A00052F8024621460023074802F0D1F900287D
:1084B00009D003F0CDFE03462846BDE8704003A274
:1084C000022101F021BE70BD102400206E72665F93
:1084D0006673746F726167655F6572617365282981
:1084E0002072657475726E65643A2025730A000007
:1084F00030B50446006887B00D46806800281FD05C
:1085000018216846FDF7E7FF0195A06805902079DE
:1085100010B1012810D107E001208DF8000020697A
:108520000290E068039005E002208DF80000E0680A
:10853000000302906069049020688168684688475B
:1085400007B030BD0368C3F84413002A02D00068A6
:10855000C0F80413704710B5006842581AB103F010
:10856000EDFB012010BD002010BD000070B51446C9
:108570000D46064601F02EFF30B13046BDE8704092
:108580000022114601F0E8BD012D06D03046616899
:10859000BDE8704004A2FFF755BB3046BDE870400F
:1085A00001A1FEF78DBF0000666C617368617265A2
:1085B0006100000038B5044601F00CFF30B12046E0
:1085C000BDE838400022114601F0C6BD04492046EE
:1085D0000A690092CB6803A2082101F095FD38BD1D
:1085E00010240020626567696E3A2025782C20658A
:1085F0006E643A2025780A00F8B515460C46064602
:1086000001F0E8FE30B13046BDE8F84000221146E6
:1086100001F0A2BD032C05D03046BDE8F8400CA106
:10862000FEF74EBF102200216868FDF78CFF0C4C4E
:1086300010220021E060A868FDF785FF206100900E
:1086400008A208213046E36801F05EFDF8BD000095
:10865000666C617368617265612073657400000007
:1086600010240020626567696E3A2025782C206509
:108670006E643A2025780A002DE9F05F17460E0057
:10868000814670D013B1F9B2FFF760FD0024FDF709
:10869000A9FE8246006800E0641C315D415CC907A8
:1086A000FAD100253046FFF791F8D9F80810001BE1
:1086B0004A7ED11B814228D306EB040805E000BFA7
:1086C00018F805100A290CD06D1C8542F8D3311911
:1086D000D9F8100001F0B6FF4846BDE8F05FFFF79B
:1086E00067BCD9F8100001F0BAFF414600232A46C2
:1086F0004846FFF7CBFA2C444846641CFFF758FC69
:10870000F9B24846FFF722FDE1E78B46DAF80010A0
:1087100006EB040818F805000B5CDB0702D0AB463B
:108720000A2804D0E819904201D26D1CF2E7D9F86A
:10873000100001F094FF414600235A464846FFF7D7
:10874000A5FA5C44DAF8000000E0641C315D415C8D
:10875000C907FAD14846FFF72BFCF9B24846FFF7A4
:10876000F5FC9EE7FFE7BDE8F09F000030B401464E
:1087700043681348134C114A001BC0080324528855
:1087800004EB00402BB1032A16D330BC0E4902F093
:1087900067BE0B78012B09D0022B0DD1032A0BD316
:1087A0008B680A6909A130BC02F065BE032A03D3B5
:1087B0008B680A6913A1F6E730BC70475824002083
:1087C00048F60200E0F5020084E602002D2D3E206E
:1087D0004576656E742072656365697665643A20D6
:1087E0006572617365642025642070616765206629
:1087F000726F6D20616464726573732030782578C0
:108800002E0000002D2D3E204576656E7420726589
:108810006365697665643A2077726F7465202564B4
:108820002062797465732061742061646472657379
:108830007320307825782E002DE9F041C0B00F4626
:1088400080464FF480751E46144629466846FDF75B
:1088500042FEAC4200D92C4623466A4639461448AB
:1088600002F016F928B103F0F3FC034611A202212D
:1088700006E0682E0AD0732E05D16B4616A2082199
:10888000404601F041FC40B0BDE8F08100256E4655
:1088900006E0735D11A20821404601F035FC6D1C15
:1088A000A542F6D30BA20821404601F02DFCEAE7D1
:1088B000102400206E72665F6673746F7261676564
:1088C0005F7265616428292072657475726E6564D3
:1088D0003A2025730A00000025730A0030782578B5
:1088E0002000000010B504460068FEF76FFF014647
:1088F000A068827F407E1144B1FBF0F200FB1210B1
:1089000008B1002010BD012010BD000010B50B48BB
:10891000FFF777FC094A083AD2E90434C018D2E9D3
:10892000063244F10001C31A71EB020204D24FF087
:108930008072801841F1000110BD0000E02200208B
:10894000FEB5002604460096019602968068E9B3BB
:10895000D0E950128A4272D0D0F83C0100286ED083
:108960002046FFF7DCFAA068D0F84451002D69D00A
:10897000002309226946284602F067FFA1689DF896
:1089800008500098C1F84401A06800230922D0F8DB
:108990004401694602F059FFA1689DF808200923A7
:1089A000D1F844012031521C02F04FFFA1689DF81C
:1089B0000800C877A1689DF8080088779DF808002E
:1089C000A84202D22046FEF799FB00E00BE0A36824
:1089D0002BA208212046203301F096FB2046FFF70A
:1089E000C8FA68BB43E0D0F84401002847D02046CD
:1089F000FFF795FAA06800230922D0F844016946E0
:108A000002F023FFA0680199C0F84411A068002972
:108A1000857FB9D1A030FEF7D9FE0028A06805D027
:108A200000F1A0012030FDF776FD01E080F8206024
:108A3000A0682030FEF7CAFE8DF80800B6E71EE0F9
:108A40001AE0FFE72030FEF7C1FE10F0FF05A06836
:108A5000D0F83C11C0F84411A06805D000F1200105
:108A6000A030FDF758FD8FE780F8A0608CE7204626
:108A7000FFF738FF002802D02046FFF799FAFEBD25
:108A800025730000FEB50D46816804460026D1F826
:108A90003C0138B300230922694602F0D6FE019555
:108AA000A06800230922D0F83C01694602F0D5FEF7
:108AB0000196A068D0F83C110091807F8DF80800E5
:108AC000A068C0F83C51002309226946284602F0FC
:108AD000C4FEA168092328468A7F2031521C02F077
:108AE000BCFEFEBDC1F83C51A068C0F840510096E4
:108AF0000196A068807F8DF80800E4E7FEB5044683
:108B00008068D0F84061002E28D0002309226946F1
:108B1000304602F09AFEA16801980025C1F8400194
:108B2000009501952B46092269463046029502F0D0
:108B300094FE304602F05BFEA168D1F8400170B1AE
:108B400000230922694602F080FE0095A0680023F8
:108B50000922D0F84001694602F07FFEFEBDC1F84F
:108B60003C51FEBDFEB5044680682030FEF72EFE67
:108B700010F0FF05A0684FF00006C0F8446133D044
:108B8000A068D0F83C01E0B100230922694602F058
:108B90005CFE9DF80820AA4213D1A068092300F1C9
:108BA000A001D0F83C01521C02F04FFEA06800F179
:108BB000A0012030FDF7A1FC0028A06880F8A0608B
:108BC00012D000260A352946606902F0E0FD010056
:108BD000204604D003B0BDE8F040FFF753BFFFF7D5
:108BE0008DFF761C082EEED3FEBD000010B50A499D
:108BF00041600A4800F0DEFE58B903F089FA0749DF
:108C00001C238C22087404488C39001F006800F073
:108C100089FE002010BD000040DE0200F42A002082
:108C20002DE9FC5F0E008346DDE90C47C6F100002C
:108C300098469246814600D40846012503E000BFCD
:108C400090FBFAF06D1C5045FADAA84500D945466C
:108C500024B1002E01DB780700D5641EB80702D5C9
:108C6000B8F1000F0AD0F80708D13CB1A54205D2EF
:108C700020215846641EFEF7D7F8F6E7002E02DAE8
:108C80004E462D2102E0780703D52B215846FEF7EA
:108C9000CBF807F0030002280BD1B8F1000F08D180
:108CA0003CB1A54205D230215846641EFEF7BCF8FF
:108CB000F6E7CDE90047434652463146584604F0B0
:108CC0008FFDBDE8FC9F000070B50D4604460068AE
:108CD0004FF4887103F0DCFA4FF49071206803F0D0
:108CE000D7FA4FF49271206803F0D2FA4FF4A271D0
:108CF000206803F0CDFA4FF4AC71206803F0C8FA95
:108D000020681249C0F804132068690740F307304F
:108D1000090E002804DB00F1E02080F8001405E0D3
:108D200000F00F0000F1E02080F8141D206840F3EF
:108D30000730002809DB00F01F02012191404009A3
:108D4000800000F1E020C0F8001170BD1003420067
:108D5000024600201268530713D502F003000128D1
:108D600002D002280CD105E0C2F383100B68801CEE
:108D7000184404E00223086803EB92521044086090
:108D8000012070470248007A002800D00120704777
:108D9000F42A002010B5FDF7C7FB08B1002010BD74
:108DA000012010BD014B00F0E5BE0000718F0200F4
:108DB000014B00F0DFBE00003D910200014B00F0CE
:108DC000D9BE000045910200014B00F0D3BE000067
:108DD000259202007CB514460546012902D001F017
:108DE000FFFA38B102B02846BDE8704000221146B3
:108DF00001F0B2B9616805A0CDE9000109A2022124
:108E00002846236801F080F97CBD000020756E6B58
:108E10006E6F776E20706172616D657465723A2055
:108E20000000000025733A257325730D0A00000029
:108E30002DE9FC41074601F0D3FA38B102B03846BB
:108E4000BDE8F0410022114601F086B91248134EE8
:108E5000801B050900241AE006EB0410C268117992
:108E6000FF2903D0527942B10DA207E083680EA218
:108E70000821384601F048F908E013A2CDE90021A5
:108E8000836814A20821384601F03EF9641CAC4204
:108E9000E2D3BDE8FC810000E0F50200C0F502006D
:108EA000656E61626C65640025730D0A092D20539F
:108EB00074617475733A2064656163746976617472
:108EC00065640D0A0D0A000064697361626C656473
:108ED0000000000025730D0A092D2053746174757C
:108EE000733A2025730D0A092D2049443A20256440
:108EF0000D0A0D0A0000000010B5044601F070FADA
:108F000030B120460022BDE81040114601F024B9DE
:108F10002046BDE8104002A2022101F0F5B8000091
:108F20004E6F7420737570706F727465642E0D0AC5
:108F30000000000010B5044601F052FA30B120469E
:108F40000022BDE81040114601F006B92046BDE8F8
:108F5000104002A2022101F0D7B800004E6F742029
:108F6000737570706F727465642E0D0A00000000D6
:108F70002DE9FF4FC86881B01D46007917004FF0FA
:108F80000006009057D0072245A12868FDF7CCFACB
:108F900078B1082244A12868FDF7C6FA00282FD02E
:108FA0002B6843A2019805B00221BDE8F04F01F003
:108FB000ABB8012F02D0022F08D008E0019805B00D
:108FC00041A2BDE8F04F022101F09EB80126DFF872
:108FD000108100240A2258F824106868FDF7A4FACA
:108FE00010B1641C052CF5D3052C06D004F0FF0944
:108FF0000224002E51D0002419E03AA26B68D1E778
:10900000012F4FF00009F6D0012446E04A462146E0
:10901000009800F01DFC48B90021204602F03AFB00
:10902000034638A20221019801F06EF8641C02F098
:10903000DBFAA042EAD805B0BDE8F08F4FF0000A95
:1090400055F824B002F0D0FA8046002609E000214D
:10905000304602F01FFB20225946FDF765FA58B151
:10906000761C4645F3D3464508D04A4651460098FB
:1090700000F0EEFB30B10FE0B246F4E755F82430D3
:1090800029A205E00021504602F004FB03461DA280
:109090000221019801F038F8641CBC42CED3CAE723
:1090A000656E61626C65000064697361626C650085
:1090B000556E6B6E6F776E206F7074696F6E3A20AD
:1090C00025730D0A00000000426164207061726126
:1090D0006D6574657220636F756E742E0D0A0000E5
:1090E00060230020556E6B6E6F776E20736576651A
:1090F00072697479206C6576656C3A2025730D0A67
:10910000000000004C6576656C20756E61766169C3
:109110006C61626C6520666F72206D6F64756C6542
:109120003A2025730D0A0000556E6B6E6F776E2026
:109130006D6F64756C653A25730D0A00C96801206E
:1091400048717047C96800204871704730B41346B1
:10915000C4680A46214630BCFFF70ABFC068012137
:10916000C06841717047C0680021C0684171704794
:1091700030B41346C4680A46214630BC00F052B8E9
:109180002DE9FF410026244800F011FC2248001F71
:10919000074600F00CFC214C2149A06800900D68A6
:1091A00000E000986946284004EB80000C30FFF78F
:1091B000CFFD0028F5D101AA009901EA050304EBCF
:1091C0008303491CDB6842F82030401C00910228D0
:1091D000F2D3019800F0030001280BD0022810D12F
:1091E0000198032101EB90500099BDF80A6001EB52
:1091F000900005E00198BDF80A60C0F383100844B0
:109200000090384600F0D0FB08B10098A06004B090
:109210003046BDE8F0810000B8300020A02C0020CE
:109220005C2300202DE9FE4F8846824602F0DCF9DF
:109230000746D8F80C00407920B922A202215046F6
:1092400000F062FF24A327A20821504600F05CFF33
:109250002CA20821504600F057FF00242DE000BF4B
:10926000D8F80C0001231A4605792146284602F059
:10927000C5F98146002301222146284602F0BEF9A5
:109280000546032801D2064600E0032601212046B8
:1092900002F000FA0346AE4201D22AA200E028A260
:1092A000294850F8261050F829008DE8070027A219
:1092B0000821504600F028FF641CBC42D0D3BDE812
:1092C000FE8F00004C6F6773206172652068616CCF
:1092D000746564210D0A00006D6F64756C655F6EC6
:1092E000616D6500252D343073207C2063757272AA
:1092F000656E74207C206275696C742D696E200D1A
:109300000A0000002D2D2D2D2D2D2D2D2D2D2D2D37
:109310002D2D2D2D2D2D2D2D2D2D2D2D2D2D2D2D7D
:109320002D2D2D2D2D2D2D2D2D2D2D2D2D2D2D2D6D
:109330002D2D2D2D2D2D2D2D2D2D2D2D2D2D0D0AA0
:10934000000000002A00000060230020252D34309A
:1093500073207C20252D3773207C20257325730DE9
:109360000A00000008B5FDF7DDFB08B1FDF7BCFB06
:109370004FF48041002002F0E7F808B1FDF7B4FB9C
:10938000FDF7C8FF67486849654D401AC0086A88FC
:10939000032101EB0044032A11D3204663A102F00C
:1093A0005FF8688803280AD3204667A102F058F8BE
:1093B0006888032803D3204669A102F051F8744954
:1093C0000022744801F0ECFA08B1FDF78DFB7148FA
:1093D00003F0CCFB40F6F8700068401C02D14FF05F
:1093E000102040694FF080500169406968886A4FD9
:1093F000032804D3204669A13A6802F035F8002614
:109400000423654A4FF478316248009601F06AFC03
:1094100008B1FDF769FB5F4804F082FA6888032809
:109420000AD3204663A102F01BF86888032803D3FF
:10943000204662A102F014F802F01EFE08B1FDF70A
:1094400053FB6946012002F089FC08B1FDF74CFB93
:10945000684602F00FFD08B1FDF746FB5E4A3A6030
:109460006888032803D320464CA101F0FDFF0423A4
:10947000494A5A494748009601F034FC08B1FDF7C3
:1094800033FB444804F04CFA688803280CD3204688
:1094900048A101F0E5FF6888032805D33E4A20462D
:1094A000121D4FA101F0E0FF3B4A0C23121D4FF4A7
:1094B0007C313848009601F015FC08B1FDF714FB2B
:1094C000344804F02DFA688803281FD3204639A1B8
:1094D00001F0C6FF6888032818D3204646A101F092
:1094E000BFFF6888032811D320464EA101F0B8FFC2
:1094F000688803280AD3204655A101F0B1FF688887
:10950000032803D320465B4901F0AAFFFEF706F8C3
:1095100001F068FE00B941DFFDF7F2FFF8E7000057
:109520005824002048F60200E0F502006673746FCC
:1095300072616765206578616D706C652073746118
:10954000727465642E000000536F6674446576691A
:1095500063652069732070726573656E742E0000F8
:10956000496E697469616C697A696E67206E7266AA
:109570005F6673746F726167655F736420696D7095
:109580006C656D656E746174696F6E2E2E2E0000B1
:109590004CDE020010240020B422002057726974AF
:1095A000696E67202225782220746F20666C6173B3
:1095B000682E0000446F6E652E000000456E6162EB
:1095C0006C696E672074686520536F6674446576B5
:1095D0006963652E00000000EFBEADDE00E1030010
:1095E00057726974696E67202225732220746F2078
:1095F000666C6173682E0000557365202772656183
:10960000642720746F2072656164206279746573C9
:109610002066726F6D2074686520666C6173682EB9
:109620000000000055736520277772697465272054
:10963000746F207772697465206279746573207421
:109640006F2074686520666C6173682E00000000EE
:10965000557365202765726173652720746F2065D7
:109660007261736520666C617368207061676573F1
:109670002E000000C8E602002DE9FF4F4FF0000861
:1096800081B014468B468146C246C0F800802578DA
:10969000002D71D0FCF7A6FE00900068405DC00769
:1096A00002D004F801AB84E0D9F800008300401C2C
:1096B000C9F800004BF8034015E02678002E78D05A
:1096C000B8F1000F05D1222E10D0272E0ED05C2E1F
:1096D0001ED0B04514D12046FEF778F80246611C32
:1096E0002046FCF7D1FE4FF00008E6E72046FEF7E3
:1096F0006DF80246611C2046FCF7C6FEB046DCE76A
:10970000B8F1000F50D05C2E61D16078404508D18F
:109710002046FEF75BF80246611C2046FCF7B4FECB
:1097200055E030281CD100270225605DA0F13001F2
:10973000072906D86D1C41EAC701EDB2CFB2052D4D
:10974000F3D3022D0CD92046FEF740F8421B6119D5
:109750002046491E921CFCF797FE04F8017BACE7FB
:1097600078281ED100270225605DA0F1300109296B
:1097700003D841EA07100DE021E0A0F161010529BD
:1097800001D8573804E0A0F14101052907D837383E
:1097900040EA07106D1CEDB2C7B2042DE4D3022DD0
:1097A000D1D8B8F1000F12D100980068805DC007D1
:1097B0000DD0D9F8001004988142FFF468AFD9F8B1
:1097C000002040464BF822A005B0BDE8F08F641C95
:1097D00073E72DE9F047C5881E1DB6FBF5F78946EE
:1097E000B6FBF5F1044605FB176C40791668684333
:1097F000DDF820A0F718001F874200D9C61A1660AE
:1098000001E02468491E0029FBD1A5EB0C0788461E
:10981000B74216D818E004EB0C00001D09EB080352
:10982000BAF1000F3A4602D00146184600E0194648
:10983000FCF72AFE2468F61B4FF0000CB844B54232
:1098400001D9374600E02F46002EE4D1BDE8F0876D
:1098500070B5144600230D4606461A4601F0CEFEAA
:10986000844201D9002070BD22462946304601F0CD
:10987000E9FE012070BD000030B5024651B101F093
:10988000B3FE0021074C08E034F821301568AB42E4
:1098900002D11160002030BD491C8142F4D3052063
:1098A00030BD00002424002010B50C460021E160EA
:1098B00061600349A160012101F0ECFE206010BD50
:1098C0000CE0020070B58468006804F11405FDF72F
:1098D0007DFFC1B2A971E07F6A790844B0FBF2F361
:1098E00002FB13035B1C2B70E07F0844B0FBF2F318
:1098F0005B1CAB70A07F0844B0FBF2F35B1CEB7009
:10990000A07F0844B0FBF2F102FB1101491C697011
:10991000284670BD10B5FCF7C8FC08B1002010BD8A
:10992000112010BD10B531B1B2FBF3F403FB1424C8
:109930001CB1092010BD0E2010BD01600021416046
:1099400081608281C381084610BD70B50C46054612
:10995000FCF760FC002802D021882868084470BD0C
:1099600010B50A8849888A4203D1FCF795FC01208A
:1099700010BD002010BD70B50C460546FCF76FFC0D
:10998000002802D061882868084470BD10B50A8894
:1099900049888A4203D1FCF759FC012010BD002000
:1099A00010BD002100F00FB8002100F012B8012115
:1099B00000F01EB8012100F011B808B56A46FCF7A6
:1099C000C0FC009808BD08B56A46FCF7A0FC0098EA
:1099D00008BD08B56A46FCF79AFC08BD08B56A469A
:1099E000FCF788FC08BD08B56A46FCF777FC08BDA3
:1099F00008B56A46FCF77EFC009808BD08B56A46C3
:109A0000FCF7ACFC009808BD38B5044600258DF87D
:109A100000506846FDF7D4F82168626808689042F3
:109A20000ED9401E08600178238BE26801FB0325F4
:109A3000227A2168101AC0B20A79824200D20871D3
:109A40009DF80000FDF7E0F8284638BD38B505461A
:109A500000208DF800000C466846FDF7B1F8E86874
:109A6000298B201AB0FBF1F12A681068431C13609F
:109A700001709DF80000FDF7C7F838BD10B530B192
:109A8000017A42680368891AC9B21A6006E00E209A
:109A900010BD03681A68541C1C601170491EC9B2BD
:109AA000F7D2006800210171084610BD2DE9F0478A
:109AB0000646806888B0D0F84801C0F3400038B14D
:109AC00008B03046BDE8F0470022114600F044BB24
:109AD000012907D908B03046BDE8F0471DA2022190
:109AE00000F012BB2049DFF884A0A1EB0A001C2182
:109AF000B0FBF1F5002428E0C4EBC4010AEB8103BC
:109B00004FF000091F68D3E901103A793F78411AF4
:109B1000B3F81880C01B5B69C0B2642712FB07F75B
:109B2000B7FBF1FC642710FB07F7B7FBF1F7CDE9B2
:109B30000621CDE9041CCDE902700D4A082130460A
:109B4000CDE9008900F0E0FA641CAC42D4D308B03F
:109B5000BDE8F08742616420617267756D656E745F
:109B600020636F756E740000A0F6020068F60200B4
:109B700060E702002DE9FF5F8B46164814499A46BC
:109B8000091A0F09914652F8046C0025804607E037
:109B900008EB05143046A168FCF7AFFC18B16D1C4A
:109BA000BD42F5D30BE0210009D0009804B04B462C
:109BB0005A46D446BDE8F04F5DF804EB6047009884
:109BC00004B03346BDE8F05F03A2022100F09CBA66
:109BD000E0F50200C0F50200496E76616C69642010
:109BE0006261636B656E643A2025730D0A000000A4
:109BF00070B515468268D2F84841C4F3400424B1D8
:109C00001A46294600F0A8FA05E031B1536804A2CB
:109C1000022100F079FA012070BD002070BD000023
:109C200025733A2077726F6E6720706172616D657F
:109C300074657220636F756E740A000010B5044677
:109C400002290CD1A068D0F84801C0F3400030B11F
:109C500020460022BDE81040114600F07DBA064AB9
:109C600006A1206900F0EEFC034A2069BDE810401F
:109C7000093202A100F0E6BC8DDD02002573000070
:109C8000012907D0022909D18168D1F84811C1F30F
:109C9000400119B10022114600F05EBA01A2022172
:109CA00000F032BA506C656173652073706563694A
:109CB0006679206120737562636F6D6D616E642ECD
:109CC0000A0000001CB5012905D002290BD014D9C7
:109CD0004FF0010112E002B04FF00002BDE8104069
:109CE000114600F039BA536808A1CDE90013136892
:109CF0000CA2022100F008FA1CBD002102B00023D2
:109D0000BDE810401A46FFF773BF000020756E6B68
:109D10006E6F776E20706172616D657465723A2046
:109D20000000000025733A257325730A0000000027
:109D300010B50446012901D0012100E000210023D3
:109D40001A46FFF755FF002809D1A168C1F838016C
:109D5000E06840680068BDE8104001F0E8BD10BD53
:109D60003EB50546012901D0012100E00021002374
:109D70001A46FFF73DFF002818D1E86840680468DC
:109D8000204601F0D1FDC0B2642110FB01F2A168B0
:109D9000B2FBF1F2D2B20092CDE90101A86804A2AF
:109DA0000021D0F83831284600F0AEF93EBD000061
:109DB0004C6F7374206C6F67733A2025750A4D6180
:109DC00078206C6F67207175657565207574696C96
:109DD000697A6174696F6E3A2025752525205B25A7
:109DE000752F25755D0A00007CB5144605460129CE
:109DF00003D0022908D0012107E002B00022BDE80B
:109E00007040114600F0A8B9002100231A46FFF760
:109E1000EFFE002809D1616804A0CDE9000109A284
:109E200002212846236800F06FF97CBD20756E6B17
:109E30006E6F776E20706172616D657465723A2025
:109E40000000000025733A257325730A0000000006
:109E500010B50446012901D0012100E000210023B2
:109E60001A46FFF7C5FE002806D1A068D0F84811B1
:109E700021F00401C0F8481110BD10B504460129B5
:109E800001D0012100E0002100231A46FFF7B0FEB7
:109E9000002806D1A068D0F8481141F00401C0F8AC
:109EA000481110BD7CB514460D460646022901D95D
:109EB000012100E0002100231A46FFF799FE002847
:109EC00011D1022D05D03046FDF71EFA60B10BA36B
:109ED0000BE061680AA0CDE900010FA20221304623
:109EE000236800F011F97CBD0EA302B03046BDE836
:109EF00070400DA2002100F007B900006F6E000055
:109F000020756E6B6E6F776E20706172616D657417
:109F100065723A200000000025733A257325730A04
:109F2000000000006F6666004563686F207374610F
:109F30007475733A2025730A0000000010B50446BA
:109F4000012901D0012100E0002100231A46FFF77A
:109F50004FFE002806D1A068D0F8481121F0080172
:109F6000C0F8481110BD10B50446012901D00121E7
:109F700000E0002100231A46FFF73AFE002806D130
:109F8000A068D0F8481141F00801C0F8481110BD90
:109F90007FB50446012901D0012100E00021002302
:109FA0001A46FFF725FE002827D1A0680026D0F822
:109FB0004051F5B101E0082E1BD20023092201A96E
:109FC000284601F042FC9DF80C20A1680923284690
:109FD000A031521C01F039FCA0683346A03000903B
:109FE000029D761C05A20021204600F08DF8002D70
:109FF000E1D1A168002081F8A0007FBD5B2533641A
:10A000005D2025730A0000007CB515460446012931
:10A0100003D0022917D9012116E0A16801F1180225
:10A02000193103F025F900281ED0A16850200FA295
:10A030004876A1681820087602B02046BDE8704036
:10A04000042100F061B8002100231A46FFF7D0FD7B
:10A05000002809D1696814A0CDE9000118A20221E5
:10A0600020462B6800F050F87CBD00004E6F207237
:10A070006573706F6E73652066726F6D20746865AE
:10A08000207465726D696E616C2C20617373756DDF
:10A0900065642038307832342073637265656E20D1
:10A0A00073697A650A00000020756E6B6E6F776EBB
:10A0B00020706172616D657465723A200000000065
:10A0C00025733A257325730A0000000010B5044675
:10A0D000012901D0012100E0002100231A46FFF7E9
:10A0E00087FD00280AD1064A06A1206900F0AAFAD5
:10A0F000A16850204876A1681820087610BD00009D
:10A10000A6DD0200257300000FB438B5044607A889
:10A110000090A068D0F84821520717D5C27E8A4225
:10A1200014D0B0F81B50204603F0D2FB6A462069D9
:10A13000069900F0A0FAE9B2204603F0C9FB290A0B
:10A14000204603F0A7FB38BC5DF814FB6A46206983
:10A15000069900F090FAF6E72DE9F04F804689B0B5
:10A1600017460C468648FDF731FB054684483638CD
:10A17000FDF72CFB281A1FFA80F9814881A22338A9
:10A180000090D8F80800082143684046FFF7BCFF5C
:10A19000D8F808004068FDF719FB054678482338D1
:10A1A000FDF714FB284482B2D8F808000023816828
:10A1B0004046FEF761FA75A200214046FFF7A4FF72
:10A1C0000FB304B300251CE005EB450A04EB8A0B32
:10A1D000DBF80400FDF7FAFA064654F82A00FDF70A
:10A1E000F5FA311849450BD9DBF80400FDF7EEFA12
:10A1F000064654F82A00FDF7E9FA30441FFA80F9C0
:10A200006D1CBD42E0D35E483638FDF7DFFA4844A6
:10A21000801C1FFA80F95A4800904B465EA2082124
:10A220004046FFF771FF09F1030086B20790002353
:10A2300032465BA14046FEF71FFA002C52D00025A3
:10A240004EE000BF05EB450A04EB8A0B54F82A00E8
:10A25000DBF804306BB350B3494956A23639CDE927
:10A26000001008214046FFF74FFF09F1020000905F
:10A27000DBF80400FDF7AAFA064654F82A00FDF7B9
:10A28000A5FA06443E483638FDF7A0FA3118009882
:10A29000401A801EC1B24046FDF758FF3A22484995
:10A2A000D8F8100000F0CEF90098401C0AE00093A6
:10A2B00001E040B100904B4637A208214046FFF72D
:10A2C00023FF079886B2DBF8081029B10023324635
:10A2D0004046FEF7D1F902E04046FDF769FE6D1CED
:10A2E000BD42AFD3D8F80800C068002845D08146E9
:10A2F00000200446064603AD02903246761C02ABAF
:10A30000012148460095FDF7EDFC029850B1006828
:10A31000FDF75CFAA042F0D902980068FDF756FA02
:10A3200084B2EAE7012E28D026A200214046FFF79A
:10A33000EBFE00263246761C02AB01214846009512
:10A34000FDF7D0FC0298002817D0A11C8FB200683E
:10A3500000903B4610A208214046FFF7D5FE029828
:10A36000FF1CBAB2416821B100234046FEF784F9D0
:10A37000E0E74046FDF71CFEDCE709B0BDE8F08FE2
:10A38000ACDD020025732573000000004F70746976
:10A390006F6E733A0A0000002020252D2A733A00C0
:10A3A00053686F7720636F6D6D616E642068656CB4
:10A3B000702E0000202025732573257300000000F7
:10A3C000F8700200537562636F6D6D616E64733A6D
:10A3D0000A0000008068D0F84801C0F340007047D0
:10A3E0008068D0F84801C0F3400070472DE9F04183
:10A3F0001E460546069F00F013F804000DD166B115
:10A400003946E86800F0CAFD002802DA0420BDE8F9
:10A41000F081E8680121C06841712046F7E700003B
:10A4200070B50446C068154623464068846060687D
:10A4300002681668254AB047002845D1606901F0D6
:10A44000F3F9002840D1A168C1F83C01A168C1F826
:10A4500040014FF4A671A068FCF73DF8A068D0F861
:10A46000481141F02001C0F84811A068D0F8481107
:10A4700065F38201C0F84811A068D0F8481141F096
:10A480000801C0F84811A1680120124B0870A168AA
:10A490005020114A4876A1681820087600210C48FF
:10A4A000D21A06E003EBC1046468246840F8214036
:10A4B000491CB1EBD20FF5D3072A04D9D108074BB9
:10A4C0000422FBF793FF002070BD0000F17A020028
:10A4D000E423002068F50200C0F5020069D2020002
:10A4E0000023FDF7D3BB000010B50446806810219F
:10A4F00000F5A470FFF77CFAA0680078F8B1012895
:10A500001DD002281BD12046FDF716F80021204659
:10A51000FCF720FF98B110A2032120462368FFF723
:10A52000F3FD2046FCF7F0FE48B1A3680AA208211B
:10A5300020462033FFF7E8FD2046FDF7D1FD2069D6
:10A5400000F08DF8A068BDE810406FF0100100F534
:10A55000A470FFF738BA00002573000070B50446F8
:10A5600080680078012801D0082070BD606801680B
:10A570008A680021904705000FD10821204603F08A
:10A58000A7F90121204603F085F905A1206900F013
:10A5900059F802212046FDF705F9284670BD000054
:10A5A0000A0A0000F0B505460478154889B0164639
:10A5B00040F82420124A0869121DA2F1080742F847
:10A5C0002400487F385520226846FBF75DFF04943D
:10A5D0002878385C48B10EB10A4A00E0002269468A
:10A5E000281D02F04FF809B0F0BD0EB1064A00E098
:10A5F0000022694605F10C0001F08EFEF3E7000031
:10A60000C82200207DD60200C5D4020030B40378F1
:10A61000054CE35C1BB130BC001D02F001B930BC3D
:10A620000C3001F063BF0000C42200200178044A0E
:10A63000515C11B1001D02F057B90C3001F0BABFE6
:10A64000C42200200FB408B50399002904D004AA3D
:10A6500000926A4600F00FF801B05DF814FB10B5E7
:10A6600082680446002A05D0D4E90403216898478B
:10A670000020A06010BD2DE9FC4791460C008046EB
:10A6800076D014F8011B39B125290ED04046FCF7CD
:10A69000CBFB20780028F4D198F80C00002867D074
:10A6A0004046BDE8FC47FFF7DABF002001222178D1
:10A6B0002B291BD02D2902D0302908D102E040F0EF
:10A6C000010001E040F00200641C002AEFD10025E7
:10A6D0002A290ED02178A1F130020A2A11D205EBE5
:10A6E000850201EB4205641C303DF1E740F00400B7
:10A6F000EAE7D9F800100B1DC9F800300968641C9E
:10A700000D44217800232E290BD114F8011FA1F14B
:10A7100030020A2A05D203EB830201EB4203303BED
:10A72000F3E76C290DD068290BD0692921D00BDC07
:10A73000252918D0582931D063290ED0642915D184
:10A7400017E014F8011FECE7702969D0732932D0A3
:10A7500075291BD0782909D120E0D9F80000011D06
:10A76000C9F8001001784046FCF75EFB641C90E7D6
:10A770006CE0D9F800100A1DC9F800200968CDE97D
:10A7800000500A224046FEF74BFAEFE7D9F80010D6
:10A790000A1DC9F8002009680A2206E0D9F800104D
:10A7A0000A1DC9F8002009681022CDE90050404672
:10A7B00003F016F8DAE7D9F8001000270A1DC9F8E7
:10A7C00000200E68C00705D112E04046761C7F1CB1
:10A7D000FCF72AFB31780029F7D104E0202140461C
:10A7E0006D1EFCF721FBBD42C0D9002DF6D1BDE79F
:10A7F0004EB13046FBF77AFE074604E02021404682
:10A800006D1EFCF711FBBD4206D9002DF6D103E009
:10A810004046761CFCF708FB31780029F8D1A5E703
:10A82000D9F80000011DC9F8001005683021404624
:10A83000FCF7FAFA78214046FCF7F6FA08200021E6
:10A84000CDE90001034610222946B0E7BDE8FC87A8
:10A850002DE9F84F8946050032483349304FA0EBC7
:10A8600001004FEAD0004FF0010101EB004478886D
:10A870009A46164626D0296800292FD0002E38D0B7
:10A880006A6849464FF010081268531E13EA090F10
:10A8900010D172432846FCF7D1F8002834D028683C
:10A8A00053463246046901B049462846A446BDE8ED
:10A8B000F04F6047002831D020461C4B1CA2CDF839
:10A8C000008028E038B10E2000902046174B22A2CD
:10A8D00023A100F0D8FD0E20BDE8F88F38B1082084
:10A8E00000902046114B29A21DA100F0CCFD0820AC
:10A8F000F2E738B10920009020460C4B26A218A19F
:10A9000000F0C1FD0920E7E7788838B1074B234AFA
:10A910002046CDF8008012A100F0B5FD1020DBE745
:10A920004824002028F60200E0F5020027DE02009D
:10A93000616464725F69735F706167655F616C69B0
:10A94000676E656428705F66732C20706167655F51
:10A950006164647229000000705F6673000000008B
:10A96000257320636865636B206661696C6564208C
:10A97000696E202573282920776974682076616CB8
:10A98000756520307825782E00000000705F6673B2
:10A990002D3E705F617069006C656E00A8EA020070
:10A9A000F8B503001448154E124CA0EB06004FEA10
:10A9B000D0004FF0010664884FF00E0506EB004012
:10A9C00009D069B119600C6801B0A446BDE8F04037
:10A9D00011461846604754B1094B0AA2009503E09E
:10A9E0002CB1074B09A200950AA100F04CFD0E20E6
:10A9F000F8BD00004824002028F60200E0F502001F
:10AA0000DCDD0200705F667300000000705F617043
:10AA100069000000257320636865636B20666169C7
:10AA20006C656420696E2025732829207769746815
:10AA30002076616C756520307825782E0000000046
:10AA40002DE9F04128B1016819B1C969BDE8F041AB
:10AA500008470D4D0D480024461B14270DE000BF8C
:10AA600004EB840005EB8000016829B1C9698847BF
:10AA700010B10120BDE8F081641CB6FBF7F0A042E4
:10AA8000EED80020F6E70000102400202424002047
:10AA90002DE9F84F914605003548364A334EA0EB74
:10AAA00002004FEAD0004FF0010202EB00448A4658
:10AAB000708898464FF00E011FD0B9F1000F22D0D8
:10AAC000296859B3B8F1000F33D05046FBF7B0FFF7
:10AAD0001027002838D0424651462846FBF7AEFFE3
:10AAE000002838D0286843464A46846801B0514659
:10AAF0002846A446BDE8F04F604760B120461E4B93
:10AB00001EA2009104E030B11B4B20461DA2009113
:10AB10001EA100F0B8FC0E20BDE8F88F38B1082067
:10AB200000902046144B24A218A100F0ACFC082091
:10AB3000F2E738B10920009020460F4B21A213A163
:10AB400000F0A1FC0920E7E7708868B120460A4BB5
:10AB50001DA2009705E0708830B1074B204620A267
:10AB600000970AA100F08FFC1020D5E748240020B0
:10AB700028F60200E0F5020002DE0200705F667354
:10AB800000000000705F646573740000257320632B
:10AB90006865636B206661696C656420696E202559
:10ABA00073282920776974682076616C7565203078
:10ABB0007825782E00000000705F66732D3E705F70
:10ABC000617069006C656E00616464725F69735FD7
:10ABD000616C69676E6564333228737263290000A3
:10ABE000616464725F69735F77697468696E5F62DC
:10ABF0006F756E647328705F66732C207372632C9C
:10AC0000206C656E29000000044801214174007A1F
:10AC100008B100207047012070470000F42A00208E
:10AC2000012801D0032808D10449002201284A74D0
:10AC300000D00020087402F01BB87047F42A0020EE
:10AC400070B50246022801D0032A45D1234C207A50
:10AC5000002841D0012833D0022831D120480023D8
:10AC6000022A006802D0032A2AD11BE0E36001799E
:10AC700011B1012924D10DE0D0E90565711B4FF414
:10AC80008056B14200D33146294481614569A942C9
:10AC90000ED015E00169491C0161426991420FD152
:10ACA000237213E0E168491CE160082908D9E360D8
:10ACB0002372022A0AD00D21FDF71AFC01F0CEFF03
:10ACC000607C28B1BDE8704001F028BA0021F3E7AC
:10ACD000BDE8704001F0CCBF70BD0000F42A002038
:10ACE000342300202DE9F84F914605004348444A9B
:10ACF000414EA0EB02004FEAD0004FF0010202EB00
:10AD000000448B467088DDF828A098464FF00E016D
:10AD10001CD0B9F1000F1FD02968002926D00921C5
:10AD2000B8F1000F2DD06A685368B8FBF3F703FB46
:10AD30001782002A2CD030B1324B204632A200912B
:10AD40003CA100F0A0FB0920BDE8F88F60B12046CF
:10AD50002C4B43A2009104E030B12A4B204642A282
:10AD6000009134A100F08FFB0E20EDE738B10820F0
:10AD700000902046234B3EA22EA100F084FB082029
:10AD8000E2E70028DFD020461E4B3CA20091D7E727
:10AD90005846FBF74DFE102798B14846FBF748FE92
:10ADA000B8B1424659462846FBF748FED8B1CDF81F
:10ADB00000A0286843464A46C46859462846A0472A
:10ADC000C2E77088002815D020460E4B2CA20097B1
:10ADD00005E0708870B10B4B20462FA2009715A19B
:10ADE00000F051FB06E0708820B12046054B33A2ED
:10ADF0000097F4E71020A7E74824002028F6020077
:10AE0000E0F5020014DE020021286C656E2025208A
:10AE1000705F66732D3E705F666C6173685F696E0C
:10AE2000666F2D3E70726F6772616D5F756E6974CB
:10AE300029000000257320636865636B20666169E3
:10AE40006C656420696E20257328292077697468F1
:10AE50002076616C756520307825782E0000000022
:10AE6000705F667300000000705F73726300000023
:10AE7000705F66732D3E705F617069006C656E0077
:10AE8000616464725F69735F616C69676E65643386
:10AE90003228646573742900616464725F69735F4A
:10AEA000616C69676E65643332282875696E743326
:10AEB000325F7429705F7372632900006164647289
:10AEC0005F69735F77697468696E5F626F756E64DE
:10AED0007328705F66732C20646573742C206C6516
:10AEE0006E29000070B541EA4201DDE904564FF0D9
:10AEF000A04441EA830141EA052104EB800041EAD4
:10AF00000641C0F8001770BD70B541EA4201DDE9A5
:10AF100004564FF0A04441EA830141EA052104EBC5
:10AF2000800041EA0641C0F8001770BD1CB5002141
:10AF300000910B4601220191FFF7D4FF1CBD1CB507
:10AF4000002100910B4601220191FFF7DDFF1CBD9E
:10AF50001CB500220B46009211460192FFF7C2FF7A
:10AF60001CBD1CB500220B46009211460192FFF752
:10AF7000CBFF1CBD1CB5002100910B4601220191A5
:10AF80001146FFF7AFFF1CBD1CB5002100910B4619
:10AF9000012201911146FFF7B7FF1CBD2DE9F041D9
:10AFA000054620480E460024D0F8103419460AE021
:10AFB000CA681179A14205D1641C0A2CF6DB4FF056
:10AFC000FF342BE011680029F2D1611C26D0E9681A
:10AFD0000C71D0F8101459B1C968EA680968116099
:10AFE000D0F81004C06805600027DFF83C8011E04D
:10AFF000C0F81054E96800200860F5E708EBC700C6
:10B00000C279B24200D33246E8683946007900F08E
:10B0100019FB7F1C00F0E8FAB842EFD82046BDE8E3
:10B02000F0810000A02C0020E0F502004068012122
:10B030008068FCF78FB910B5406884686068016863
:10B040008A680121904718B10420A168087010BDDA
:10B050000320FAE72DE9F3414468A668B068007858
:10B0600004281ED0032807D0002501A9206800F07D
:10B0700069FC85F0010709E00125F6E7394630460D
:10B08000FCF768F901A9206800F05CFC0028F5D104
:10B09000019800F0C5FB002D03D000213046FCF7DD
:10B0A00059F9BDE8FC81F0B595B01C4615460F4630
:10B0B00008461A9E00F0B4FB182109A8FBF70BFA0A
:10B0C0000E96CDE909540023082203A9384600F062
:10B0D000BCFB05980690BDF81000ADF81C00BDF84B
:10B0E0001200ADF81E0000208DF8210003980826FC
:10B0F00000F00300012802D0022818D032E00398A3
:10B100003346850AC0F3C2008DF8200003980FA9CA
:10B11000C0F38314A200384600F097FB09A8009002
:10B1200006AB22460FA9284600F0D6FA1AE003988B
:10B13000840DC0F3C2008DF82000082C01D22546F2
:10B1400000E0082533462A460FA9384600F07DFB6B
:10B150002E44641B09AB06AA29460FA800F09CF9EF
:10B16000002CEAD1384600F061FB15B0F0BD704705
:10B17000084810B50178084A515C19B1001D01F06A
:10B18000B3FB02E00C3001F015FABDE810400020DE
:10B1900002F0B6B940230020C422002008B5034ABB
:10B1A00000924023024AFFF77EFF08BDCDD0020087
:10B1B000082B00200A4A012902EBC00007D002290F
:10B1C00007D0032907D0042907D0002070470220A8
:10B1D000704704207047007970474079704700003D
:10B1E000E0F502002DE9F04F8DB0FBF735FE18B108
:10B1F00000200DB0BDE8F08F8D4C0020C4F818047D
:10B20000BFF34F8F8B49A06802900D684FF0000983
:10B21000284004EB80000BE0D4F8180470B9616892
:10B220000298814201D8A160E2E7284004EB800047
:10B230000C3002A9FDF78CFD0028EDD1002003AAF7
:10B24000A046029901EA050308EB8303491CDB6869
:10B2500042F82030401C02910228F2D3039800F0FB
:10B260000300022802D0012850D0C2E003985022E7
:10B27000810D8A46B2EB905F00D850210C4664F3F2
:10B280009F50C0F3C207039008316B4800F07FFA6B
:10B290000600EAD000F0C4FA4B46082203A9304663
:10B2A00000F0DBFA029909F1080B2940681A8000C6
:10B2B000001D844223D95E4D0C3530B1C2B208EB7B
:10B2C0008101201A91460C3104E02946E2B20025A2
:10B2D00091462846C4B25B46304600F0BEFA0BEBFE
:10B2E00009032DB1224629464FEA060000F0B5FABF
:10B2F00002990AF1030001EB900002903DE008EB97
:10B3000081015B46224630460C31EFE70398C0F3DB
:10B310008310062800D30620039960F38911C1F336
:10B320008310C1F3C207801C03918100424800F0E2
:10B330002EFA06005DD000F073FA4B46082203A9EE
:10B34000304600F08AFA09F1080900240FE002985B
:10B350004B4600EA0501401C08EB810102900422E3
:10B3600030460C3100F079FA09F10409641C0398A5
:10B37000C0F38310A042EAD8D6B3D8F81044D8F866
:10B3800018044546F8B1304600F050FA4AE0E0684B
:10B390004179012915D10179BDF81000274A52F8E9
:10B3A000200001EB4102072191400840D040052FC9
:10B3B00000D10327B84204D3216820460A683146E9
:10B3C0009047E0680468002CE1D1304600F02EFA86
:10B3D00000208DF800006846FBF7F2FBD5F8180452
:10B3E00008B90298A8609DF80000FBF70DFC19E071
:10B3F000FFE7D8F8104405E02168204689688847AF
:10B40000E0680468002CF7D10D484088022809D371
:10B410000C480D49401AC008022101EB00400BA165
:10B4200000F01EF8FBF718FD80F00100E1E60000D7
:10B43000A02C00205C23002084F602006824002059
:10B440005824002048F60200E0F502004261636BD8
:10B45000656E647320666C75736865640000000037
:10B4600000231A4601F0B6BE08B5012300926A46D1
:10B4700001F0B0FE08BD1CB5CDE9002302236A46E9
:10B4800001F0A8FE1CBD3EB5069C8DE81C00032300
:10B490006A4601F09FFE3EBD2DE9F0470E4680460C
:10B4A0001C469246082940D894F80C90002020733E
:10B4B0001946104601F00EFB0025B54206D218F8D9
:10B4C00005201BA12046FFF7BDF803E01AA1204686
:10B4D000FFF7B8F86D1C082DEFD318A12046FFF731
:10B4E000B1F80025B54212D218F805707E2F08D8A1
:10B4F000FAF778FF0068C05D10F03E0F01D03A46C1
:10B5000000E02E220EA12046FFF79CF803E00DA1DB
:10B510002046FFF797F86D1C082DE3D30122214642
:10B52000504601F0B9FA84F80C90BDE8F0870000AD
:10B530002025303278000000202020007C00000010
:10B5400025630000200000002DE9F0471F494FF05F
:10B5500000081F4881F8008000F066F9002832D109
:10B560001C4800F0C5FB1C49DFF87090DFF870A0A4
:10B57000A1EB0900C608002414E000273D460CE0BA
:10B58000AC4209D059F8340059F835101422FAF7B2
:10B59000CBFF002800DD7F1C6D1CB542F0D32AF8DC
:10B5A0002470641CB442E8D30020414654460D4D3B
:10B5B00006E000BF04EB8002518045F82010401CDB
:10B5C000B042F7D30020BDE8F0870000A02C002097
:10B5D00084F602001CE0020068F60200E0F50200BA
:10B5E000242400206824002002480349401AC0088F
:10B5F0007047000068F60200E0F502007FB50546DE
:10B600001146002401A873B1FEF736F998B90B482A
:10B610000199072250F8210005EB45018A401040AE
:10B62000C840C4B207E0FEF727F920B904480199E1
:10B6300000EBC100847904B0204670BD682400206E
:10B64000E0F5020070B5114B00EB400003EB810404
:10B650000F4B02F0070203EB8101072303FA00F608
:10B660000D688240B5432A4300200A604FEA00017A
:10B6700003FA01F51540CD40ADB2854200D9284608
:10B68000C91C0A29F4D3608070BD00002424002066
:10B690006824002013B56846FEF7EEF808B10020D4
:10B6A0001CBD0248009950F831001CBDE0F50200B5
:10B6B00070B508480125D0F81044057007E0E0682F
:10B6C00045712168204649688847E0680468002C75
:10B6D000F5D170BDA02C00202DE9FF4781460C9DBF
:10B6E00000200C462F7B287398461646294618469C
:10B6F00001F0F0F9072E42D2DFE806F004090F1638
:10B700001F2A360049462846FEF79CFF37E0494687
:10B7100028462268FEF796FF31E0D4E90023494627
:10B720002846FEF78FFF2AE0A0680090D4E90023A6
:10B7300049462846FEF786FF21E0D4E90201CDE91B
:10B740000001D4E9002349462846FEF77BFF16E0B6
:10B7500004F1080007C88DE80700D4E90023494632
:10B760002846FEF76FFF0AE004F108000FC88DE8D5
:10B770000F00D4E9002349462846FEF763FF002264
:10B780002946404601F088F92F73BDE8FF872DE96F
:10B79000F041058B80462D1F4819C01CB0FBF5F009
:10B7A000C6B24046FEF730F9041E19D000202071C1
:10B7B00001206071E58000272546761EC4F80080D0
:10B7C0000BE04046FEF720F960B16179491C6171D8
:10B7D000286005467F1CC0F80080B742F1D32046A0
:10B7E000BDE8F081204600F002F80020F8E72DE9DE
:10B7F000F041457901466B1E002201E00968521CA8
:10B800009A42FBD30F680146002605E038460C68D3
:10B81000FEF71CF92146761CAE42F7D3BDE8F08155
:10B820000121001DFEF7C9B8FEF728B910B504467E
:10B830000121001DFEF7E2F810F0FF0F04D12046B1
:10B84000BDE81040FFF7D3BF10BD1CB50192012227
:10B85000009201AAFDF7BDFF1CBD1CB5019200229C
:10B86000009201AAFDF7B5FF1CBD2DE9F84304467F
:10B87000002790460E468DF800706846FBF7A0F949
:10B88000204600F039F838B105279DF80000FBF795
:10B89000BBF93846BDE8F88320680568B8F1000FA9
:10B8A00005D10168204600F046F821680860E2688A
:10B8B000012A0CD0022A0ED0042A11D06068082A6E
:10B8C00013D005FB02013046FAF7DEFDDDE76068C4
:10B8D000405D3070D9E7606830F815003080D4E7FB
:10B8E000606850F825003060CFE700EBC501D1E972
:10B8F0000001C6E90001C8E7016808684968884294
:10B9000001D1012070470020704701680A6849682A
:10B910008068884201D9491C00E00021914201D190
:10B9200001207047002070470068806870470068F9
:10B930000021816070478068884201D9481C7047A7
:10B94000002070472DE9F84304464FF000080E46EA
:10B950008DF800806846FBF733F92046FFF7D5FFE6
:10B9600007000AD0207C40B14FF004089DF8000089
:10B97000FBF74AF94046BDE8F8832068456841680E
:10B980002046FFF7D8FF2168486037B1206801687A
:10B990002046FFF7D0FF21680860E268012A14D032
:10B9A000022A16D0042A19D0082A1CD06068314611
:10B9B00005FB0200FAF768FD204601F0BBF921689B
:10B9C0008A688242D2D28860D0E761683078485570
:10B9D000F2E76168308821F81500EDE761683068AA
:10B9E00041F82500E8E7D6E90001626802EBC502EC
:10B9F000C2E90001E0E700002DE9F04F81468068D0
:10BA000089B0D0F84801C0F3400038B109B04846C9
:10BA1000BDE8F04F00221146FEF79EBB012907D971
:10BA200009B04846BDE8F04F1DA20221FEF76CBBED
:10BA30002049DFF884B0A1EB0B001C21B0FBF1F82A
:10BA4000002526E0C5EBC5010BEB81042068D4E995
:10BA5000026A8768204600F03FF864217943642237
:10BA60004243B1FBF6F1B2FBF6F26369247CACB160
:10BA700012A400BFCDE90664CDF800A00597CDE97A
:10BA80000120CDE90361104A08214846FEF73CFB3E
:10BA90006D1C4545D6D309B0BDE8F08F0BA4E9E78E
:10BAA00042616420617267756D656E7420636F75A5
:10BAB0006E740000BCF60200A0F602004E6F206F0C
:10BAC000766572666C6F770024EB02004F766572C4
:10BAD000666C6F770000000038B5044600208DF8D2
:10BAE00000006846FBF76CF8204601F023F9044695
:10BAF0009DF80000FBF788F8204638BD2DE9F0419D
:10BB00001F0015460E46044606D0A068FDF752FFFA
:10BB100010B11120BDE8F081A068D0E90331606860
:10BB2000A3EB010C421C944507D10020286017B1FB
:10BB3000A068FDF736FF0020ECE703EA000201EA07
:10BB40000007BA4201D3831A01E0181A0B1A2868B9
:10BB50005B1C984200D203462B6020681044306082
:10BB6000A0682A68C1681144C160E4E72DE9F0418A
:10BB70000546806817468846001DFDF71BFF10B17B
:10BB80001120BDE8F081A868816800690C1A386846
:10BB9000A04200D204463C60AA68696810699268B5
:10BBA00008400A40824201D9161A01E00E1A761C9A
:10BBB000B44208D92968324601444046FAF764FC89
:10BBC000A41B0020B0442968224601444046FAF7ED
:10BBD0005BFCA8683A68016911440161A868001D0E
:10BBE000FDF7DFFE0020CCE72DE9F04105461746C2
:10BBF00088468068FDF7DEFE10B11120BDE8F081B7
:10BC0000A86881680069081A69680C1A3868641C99
:10BC1000A04200D204463C60A86869688068084079
:10BC20000E1A761CB44208D92968324608444146A7
:10BC3000FAF72AFCA41B0020B044296822460844D5
:10BC40004146FAF721FCA8683A688168114481608E
:10BC5000A868FDF7A6FE0020D0E710B582689468BA
:10BC60001369E41AA14201D9042010BD19441161DD
:10BC7000826851618068001DFDF793FE002010BDB1
:10BC80002DE9F0411E0014460F46054607D0A8686E
:10BC9000001DFDF78FFE10B11120BDE8F081A868EE
:10BCA000816840690A1A09D06B68184019408142BE
:10BCB0000DD9266896420AD9226010E00020206043
:10BCC0001EB1A868001DFDF76CFE0020E5E781426B
:10BCD00005D8191A2268491C8A4200D921602968AE
:10BCE00008443860A8682268416911444161ECE762
:10BCF0008268002191608268116182685161826866
:10BD0000D1608268516080680160704770B5826858
:10BD1000456894681369E31AEB1A5B1C994201D9D0
:10BD2000042070BD214491608268D1608068FDF775
:10BD30003BFE08B1002070BD082070BD08B5002290
:10BD400042504058009008BD20B103490968016085
:10BD5000002070470E207047F0E10200FEB5024659
:10BD60000E460846FFF7F0FF002872D10024009429
:10BD70008DF8002001208DF8020001940620ADF816
:10BD80000400029469462020326869DF3249334A50
:10BD9000304F891AC908012202EB014540B1798868
:10BDA00031B100F055FA024628462D49FFF75CFBF9
:10BDB00000948DF801408DF80240019402948DF8B2
:10BDC000034069464020326869DF40B1798831B16B
:10BDD00000F03EFA024628462249FFF745FB009450
:10BDE000019402948DF8004069460120326869DFB1
:10BDF00040B1798831B100F02BFA024628461A4941
:10BE0000FFF732FB4FF4B060009001940294694652
:10BE1000A120326869DF40B1798831B100F018FAA9
:10BE2000024628461149FFF71FFB00940194029433
:10BE30008DF800406946A020326869DF40B17988FA
:10BE400031B100F005FA024628460949FFF70CFB1C
:10BE50000020FEBD6024002058F60200E0F502003C
:10BE600038F3020080F3020098F20200E4F20200CC
:10BE700044F202002DE9F0470546D0F8008060DF6B
:10BE80002249234A2B68891ADFF87C90CE0807469E
:10BE9000434525D9B9F80200022821D3022000EB3E
:10BEA000064004461BA1FFF7DBFAB9F8020002289E
:10BEB00016D32046424623A12B68FFF7DCFAB9F8D7
:10BEC000020002280CD34FF08050D0F80C012968F2
:10BED000800200F10050421A204627A1FFF7C4FA61
:10BEE000012477B1B9F8020040B1384600F0B0F94A
:10BEF000024604EB06402BA1FFF7B6FA3846BDE830
:10BF0000F08730480470F9E76024002058F60200FA
:10BF1000E0F50200496E73756666696369656E7463
:10BF20002052414D20616C6C6F63617465642066C2
:10BF30006F722074686520536F6674446576696318
:10BF4000652E00004368616E676520746865205245
:10BF5000414D207374617274206C6F636174696FFA
:10BF60006E2066726F6D203078257820746F2030D7
:10BF70007825782E000000004D6178696D756D2080
:10BF800052414D2073697A6520666F72206170702E
:10BF90006C69636174696F6E2069732030782578ED
:10BFA0002E00000073645F626C655F656E61626C99
:10BFB0006528292072657475726E65642025732E5C
:10BFC00000000000DB23002030B5144891B0007859
:10BFD000002820D05FF03405ADF8405010A903A828
:10BFE00061DF30B1052816D011B0BDE83040FAF756
:10BFF0007BBD03AC0A49684600F0BCF807E000BF0F
:10C00000D0E9002120469047684600F0CAF802981F
:10C010000028E1D0F4E711B030BD0000DB230020A0
:10C02000F4E10200F8B5134C2078C0B10120A070F3
:10C0300001F01EF8112814D0022001F031F800257B
:10C040008DF800506846FAF7BBFD11DF06462570F3
:10C050009DF80000FAF7D8FD2EB13046F8BD082053
:10C06000F8BD0020F8BDA57001F062F8032001F0D2
:10C0700017F8F6E7D82300207CB5194C207808B1D2
:10C0800008207CBD0120A070002000F0F1FF1128E5
:10C0900019D0002001F004F8124800260068019031
:10C0A0008DF800606846FAF78BFD0F4901A810DF94
:10C0B00005000AD0002020709DF80000FAF7A4FDCA
:10C0C0002DB128467CBD00207CBD0120F3E7A67081
:10C0D000667001F04DF8012000F0E2FFF3E7000088
:10C0E000D823002088E10200556A02000EB50749F6
:10C0F000684600F03FF805E0D0E900108847684640
:10C1000000F04FF802980028F6D10EBDA4E102001D
:10C110000148007870470000D82300200548817846
:10C1200019B1007818B1FFF77DBF08207047FFF7FD
:10C13000A3BF0000D82300201FB568464BDF30B1F5
:10C14000052814D004B0BDE81040FAF7CDBC08496A
:10C1500001A800F00FF806E0D0E900210098904710
:10C1600001A800F01EF803980028E6D0F4E71FBDF0
:10C1700010E20200016009684160AFF3008010B571
:10C18000D0E900215368994201D1002104E0D1E9AE
:10C190000034A34202D01946816010BD08314160CD
:10C1A000F0E7816800290BD0026892680A44826037
:10C1B00041684B689A4203D108314160FFF7DFBF05
:10C1C000704770B50D460646446804E0B2682946DB
:10C1D000904718B1246820680028F7D120682860AB
:10C1E000256070BD40680068704741680868002895
:10C1F00001D002680A60704702460020526806E0DB
:10C200008B4203D108681060012070471A461368FA
:10C21000002BF5D1704700000C4A10B502F594735D
:10C220000EE0991AC91001EBD171491002EBC1015E
:10C230000C68844201D90B4602E005D201F10802E4
:10C240009A42EED3002010BD486810BDB8DE02004F
:10C2500000B5FFF7E1FF002800D1014800BD000054
:10C26000A4DE02004058002800D00120704708B525
:10C27000002242504058009008BDD0F80403084006
:10C2800000D0012070474058002800D0012070479E
:10C2900008B5002242504058009008BD002802D046
:10C2A0000149800108477047C1DB02000121B1EB61
:10C2B000507F01D1012070470020704738B50D46EE
:10C2C00000F0C0FC040014D000208DF80000684687
:10C2D000FAF776FC207928B19DF80000FAF794FC73
:10C2E000112038BD0120256020719DF80000FAF76B
:10C2F0008BFC002038BD10B500F0A4FC002802D053
:10C3000000210160017110BD0149024801F020B90E
:10C31000B4290020002000402DE9F04105460079B5
:10C3200016460F4600EB40012D4A01EBC00102EB1F
:10C33000810494F82A1011B10820BDE8F081294940
:10C3400051F820102868FFF7B9FF08B11120F4E771
:10C3500039462846FAF772FC66603869206030007A
:10C360004FF001062FD03F7F4FF48E712868FFF702
:10C370007EFF4FF4A2712868FFF779FF28681A49F9
:10C38000C0F8041328684FEA471140F3073000282B
:10C3900004DB00F1E02080F8001405E000F00F005D
:10C3A00000F1E02080F8141D286840F307300028D1
:10C3B00009DB00F01F0106FA01F14009800000F1DD
:10C3C000E020C0F8001128680421C0F80015002002
:10C3D000A061E06184F8290044F8140FA675ACE769
:10C3E000B429002098DB0200800002002DE9F05FF4
:10C3F000054600794FF4017600EB400303EBC000E3
:10C40000344B03EB80040020636813B12B68C3F83E
:10C410000863A3694FF000096BB1E06938B1606847
:10C4200010B12868C0F804631120BDE8F09FE261F4
:10C430000120216105E0C4F82490A261E160C4F804
:10C440001C9094F82910014302D1284600F0D5FD34
:10C4500060680028286803D0C0F804630020E4E77F
:10C460004FF4A2763146FFF702FFB2464FF4927BBB
:10C4700059462868FFF7F6FE06464FF4847128688F
:10C48000FFF7F0FE804651462868FFF7EBFE0746AF
:10C4900048EA07003043EBD056EA070007D12146AF
:10C4A000286800F07BFDA169606A8142E0D8C4F889
:10C4B00018900EB10320B8E70FB10F20B5E794F83C
:10C4C000291001200029296801D00860C6E74860CA
:10C4D000C4E70000B429002001684FF40172C1F8DC
:10C4E0000823006801214160704700002DE9F05FDA
:10C4F000054600790B4600EB400101EBC0002449E2
:10C5000001EB8004284600F045F810B11120BDE889
:10C51000F09F62614FF00009C4F82090A36084F896
:10C5200028904FF48E784E4641462868FFF79FFECC
:10C5300028684FF0010AC0F808A02146286800F0DA
:10C540005FFF606808BBD5F800B067690FE000BF07
:10C5500094F8280008B10F2615E041465846FFF729
:10C5600081FE0028F4D02146584600F049FF206A99
:10C57000B842F2D3574641462868FFF773FE0028B9
:10C58000F9D02868C760C4F814903046BFE70000AF
:10C59000B4290020007900EB400101EBC000044900
:10C5A00001EB80004069002800D0012070470000A6
:10C5B000B42900202DE9F047044600794FF0000926
:10C5C00000EB400101EBC000284901EB8007206827
:10C5D000C0F800957868B0B120682549C0F8081304
:10C5E000206840F3073000280DDB00F01F02012116
:10C5F00091404009800000F1E020C0F88011BFF3B5
:10C600004F8FBFF36F8F2068D0F80C25D0F81485BA
:10C61000D0F80865D0F810554FF0FF31C0F8141568
:10C62000C0F80C152068C0F80815C0F81015501C8B
:10C6300002D01046FEF77AFCB8F1FF3F02D0404628
:10C64000FEF774FC681C02D02846FEF76FFC701CD5
:10C6500002D03046FEF76AFC2068FFF74CFE87F8F0
:10C660002A90C7F80490BDE8F0870000B4290020A4
:10C67000840202000149024801F018B8E0290020B4
:10C68000002000402DE9F0410546164600790F468E
:10C69000154A00EBC00102EB810494F8201011B19F
:10C6A0000820BDE8F081114951F820102868FFF7F3
:10C6B00005FE08B11120F4E739462846FAF702FBD7
:10C6C0006660386920601EB1397F2846FCF7FCFAA5
:10C6D00028680821C0F800150020A061E0616061B1
:10C6E000012184F82010DCE7E02900209CDB020017
:10C6F0002DE9F05F044600790E4600EBC001DFF83B
:10C70000F0A017460AEB81053046FFF7CFFDB0B128
:10C7100068684FF000084FF4047910B12168C1F83F
:10C720000893A8694FF0000B80B1E86948B16868C8
:10C7300010B12068C0F804931120BDE8F09F1020CC
:10C74000FBE7EF614FF001082E6102E0EE60C5E902
:10C75000067B00254FF488712068FFF799FD4FF4A0
:10C76000A2712068FFF794FD2068C0F83465C0F816
:10C7700038752068B8F1000F12D0D0F8001241F0DF
:10C780002001C0F800122079D04600EBC0010AEB6E
:10C790008100406838B12068C0F804932846CCE78F
:10C7A00001210160EFE74FF4887A4FF4A2795146F6
:10C7B0002068FFF768FD074649462068FFF763FDDC
:10C7C00006464FF492712068FFF75DFD014647EA87
:10C7D00006000843EBD0227902EBC20308EB830288
:10C7E000C2F818B001B10325002ED7D00F25D5E728
:10C7F000E02900200179094A01EBC10102EB810126
:10C80000C96931B10168D1F8002222F02002C1F8D3
:10C81000002200680121416070470000E0290020EB
:10C820002DE9F04704460E460079274900EBC00089
:10C8300001EB800517463046FFF738FD30B1204642
:10C8400000F044F820B11120BDE8F0871020FBE78C
:10C850006F61AE604FF490774FF000083946206862
:10C86000FFF716FD4FF4AC7631462068FFF710FD58
:10C870002068AA686969C0F84425C0F8481520688E
:10C880004FF00109C0F808906868D0B9BA4651461F
:10C890002068FFF7F8FC074631462068FFF7F3FCF5
:10C8A0000743F4D010B14FF00F0808E02068C0F83B
:10C8B0000C9031462068FFF7E6FC0028F9D00020F4
:10C8C00068614046C0E70000E02900200079054982
:10C8D00000EBC00001EB80004069002800D001207F
:10C8E00070470000E02900202DE9F0470646007956
:10C8F0003D4900EBC00001EB800534686868012702
:10C90000A8B13A49C4F80813306840F3073000284A
:10C910000DDB00F01F0107FA01F14009800000F172
:10C92000E020C0F88011BFF34F8FBFF36F8FD4F8B2
:10C93000000220F02000C4F80002A8694FF4A27899
:10C9400020B141462046FFF7A3FC67604FF4AC7965
:10C9500049462046FFF79CFCE7604746494620468B
:10C96000FFF791FC0028F9D0A86928B13946204684
:10C97000FFF789FC0028F1D04FF0000AC4F800A5A9
:10C980003068D0F80C25D0F81495D0F80885D0F888
:10C9900010754FF0FF31C0F80C15C0F81415306851
:10C9A000C0F80815C0F81015501C02D01046FEF74C
:10C9B000C6FAB9F1FF3F02D04846FEF7C0FA781C2C
:10C9C00002D03846FEF7BBFAB8F1FF3F02D040462E
:10C9D000FEF7B5FA2046FFF78EFC85F820A0C5F8D3
:10C9E00004A0BDE8F0870000E02900201003420009
:10C9F00003490860034801680029FCD07047000023
:10CA000004E5014000E401402DE9F84317460C001D
:10CA100005462BD0DFF870804646D8F80000FAF7BC
:10CA2000D5FE3844C7B23068FAF7D0FEA968497E0F
:10CA3000081AB0FBF7F0C6B22046FAF7C7FEA9689D
:10CA4000381AC7B2487FB0FBF6F206FB1202401C50
:10CA5000487782B123460DA207212846FDF754FBF3
:10CA600039462846BDE8F843FBF770BBA9680020AB
:10CA70004877BDE8F883009405A207212846D8F836
:10CA80000030FDF741FBEBE71C230020257300007D
:10CA90000A2573257300000010B50C46017A05299C
:10CAA00008D0407A38B1084808A102682046FDF74E
:10CAB000C9FD00E01AB106A12046FDF7C3FD2046DE
:10CAC000BDE81040FDF7CBBDB42300202573000066
:10CAD0000D0A000038B5C3880D46044633B114A0D2
:10CAE000009015A216A12846FDF7ACFD217A052974
:10CAF0001CD0607A48B1A088FEF75CFB164951F85B
:10CB0000202016A12846FDF79DFDA0880021FEF7F4
:10CB1000C1FD03461049207A143951F8202001B094
:10CB20002846BDE830400EA1FDF78CBD38BD0000A1
:10CB30001B5B306D000000001B5B313B33316D002F
:10CB400025734C6F67732064726F70706564202862
:10CB500025642925730D0A00B423002025730000E5
:10CB60003C25733E2025733A2000000070B5164D19
:10CB700006466888032825D314481549401AC10879
:10CB8000032000EB0140044612A1FEF769FC68880F
:10CB9000032817D3706817A102682046FEF764FCCB
:10CBA000688803280ED3706818A142682046FEF7F3
:10CBB0005BFC6888032805D32046BDE8704019A1B6
:10CBC000FEF74EBC70BD00005824002048F602005D
:10CBD000E0F502003D3D3D3D3D3D3D3D7C20666C28
:10CBE00061736820696E666F207C3D3D3D3D3D3D33
:10CBF0003D3D0000657261736520756E69743A2071
:10CC000009256420627974657300000070726F6793
:10CC100072616D20756E69743A200925642062790D
:10CC2000746573003D3D3D3D3D3D3D3D3D3D3D3DDC
:10CC30003D3D3D3D3D3D3D3D3D3D3D3D3D3D3D3D24
:10CC40003D3D00000349884201D103487047002060
:10CC50007047000000200040D02200200348024915
:10CC60000068FCF77DBE0000382300203CDE020097
:10CC70002DE9F041234C0025234E207A012730B9BD
:10CC80002248311D0068FCF776FE306038B1022082
:10CC900020723168087928B101281ED116E065603C
:10CCA000BDE8F081D1E90503C01A4FF480529042EB
:10CCB00000D31046B7EB900F01D2820800E00122AA
:10CCC0000869C9681844194429DF03E0D1E9030160
:10CCD000084428DF58B1112812D003213068FBF72F
:10CCE00007FC25726560BDE8F041FFF7B7BF207C07
:10CCF0000028D5D1BDE8F04100210220FDF7A0BFFA
:10CD00002772CDE7F42A0020342300203CDE020005
:10CD100010B5074C201DFCF74DFE002806D1607CA5
:10CD2000002803D1BDE81040FFF7A2BF10BD0000EE
:10CD3000F42A002001680A684968914201D3881AE0
:10CD400070478068801A0844401C704710B5104630
:10CD50001A46F9F799FB002010BD000070B5144683
:10CD60000D460646FDF736FB30B13046BDE8704053
:10CD700000221146FDF7F0B9012D06D0304661685A
:10CD8000BDE8704004A2FAF75DBF3046BDE87040D0
:10CD900001A1FAF795BB0000726561640000000014
:10CDA00070B515460C460646FDF714FB30B130460B
:10CDB000BDE8704000221146FDF7CEB9032C05D026
:10CDC0003046BDE870400BA1FAF77ABB1022002173
:10CDD0006868F9F7B8FB04460A220021A868F9F749
:10CDE000B2FB024621463046BDE870406823FBF79F
:10CDF00023BD000072656164206865780000000052
:10CE000070B515460C460646FDF7E4FA30B13046DB
:10CE1000BDE8704000221146FDF79EB9032C05D0F5
:10CE20003046BDE870400BA1FAF74ABB1022002142
:10CE30006868F9F788FB04460A220021A868F9F718
:10CE400082FB024621463046BDE870407323FBF763
:10CE5000F3BC00007265616420737472000000000E
:10CE60000846704770B50546FBF759FA134C40B1B8
:10CE7000D4E904024FF08071411842F10000C4E986
:10CE8000041000212846FBF78DF930B1606820B10D
:10CE9000606800F01DFA0020606001212846FBF761
:10CEA00081F918B1FBF732FDC4E90601284600F00C
:10CEB0004DFA2846BDE8704000F034B8D822002072
:10CEC00070B5054600200C460870FBF71FFDD5E93C
:10CED0000223101A63EB010300263146361A9941EA
:10CEE00012DAB0F5350F03D3F9F70AFE0B494218F1
:10CEF0004FF4960300210A48FBF71DFA10B10D28E4
:10CF000006D009E0012070BD00210548FBF740F97B
:10CF1000284600F0DDF92070002070BDFFFFB4004E
:10CF2000E0220020F8B51B4C074600261A48FFF700
:10CF300059F9D8B1616879B1D0E902106268D2E9D3
:10CF40000232C91A904121D2606890F8200018B1CD
:10CF500061681148FFF735F900F036F90546694672
:10CF6000FFF7AEFF98B1606840B10AE06068002842
:10CF70000CD13846BDE8F840FBF7D9B93846FBF785
:10CF8000D2F965609DF800000028CFD1F8BD666039
:10CF9000CCE70000D8220020A8DB020070B50546CF
:10CFA00088690C4600284FF4847128460AD0FFF7A0
:10CFB0005EF9D5F81805626AE1688854606A401C19
:10CFC000606270BDFFF753F9D5F8180570BD1FB545
:10CFD00001238DF80030CDE90121D0E90012684627
:10CFE00090471FBD1FB501238DF80030CDE9012109
:10CFF000D0E90012684690471FBD10B5044600688E
:10D000004FF49271FFF733F94FF484712068FFF702
:10D010002EF920680121016010BD00007CB5044696
:10D02000FF20009001236A4601A9E068FEF766FD33
:10D03000002819D1009A002A16D060690B4D019979
:10D040000378D2B2EB5C1BB1001DFFF751FB02E08D
:10D050000C30FFF7CBF9002806D1A068224640F239
:10D0600066610068F9F78CFD7CBD0000C4220020D9
:10D070003EB5044609496846FFF77CF808E000BF62
:10D08000D0E900212046904730B16846FFF789F883
:10D0900002980028F4D13EBD11203EBD8CE1020073
:10D0A0003EB5044608496846FFF764F807E000BF4C
:10D0B000D0E90021204690476846FFF772F80298B1
:10D0C0000028F5D13EBD000098E1020070B50D4C7E
:10D0D0000020D2B22070201D0B4D0378EB5C1BB1F9
:10D0E000001DFFF79DFB02E00C30FFF7FFF908B1D0
:10D0F000F9F7FAFC6078002802D021780029FAD0EC
:10D1000070BD00003C230020C42200200022CA6021
:10D110004A60054A8A60052803D2044A52F8200072
:10D1200000E00020086070470CE00200742300203B
:10D1300010B51620F9F76AFC48B10C4882684FF424
:10D14000800152B1016821F48001016010BDBDE889
:10D15000104042F20100F9F7C7BC4FF0E020C0F8E0
:10D160008011BFF34F8FBFF36F8F10BD5C2A00207B
:10D1700010B51620F9F74AFCA0B1114890F8000448
:10D180004009082811D20121814011F0EC0F0CD088
:10D190000C4882684FF480016AB1016841F4800153
:10D1A000016010BD42F2010001E042F20200BDE860
:10D1B0001040F9F799BC4FF0E020C0F8001110BD05
:10D1C00016E000E05C2A00200148FFF70EB80000DE
:10D1D000A8DB02002DE9F84F074621489146884612
:10D1E00005681E46012269461846F9F7D3FDDFF8A7
:10D1F00074A060B3009800210446801C0AE000BFC0
:10D2000000EA050259F821C00AEB8202401C491CC1
:10D21000C2F80CC0B142F3D34FEA1749FAF7AEFF98
:10D22000611C29400AEB810149EA00422C40CA6096
:10D230000AEB8401C86867F3C50066F3891068F3D8
:10D240009F2020F00300401C20F00400C8609AF8E2
:10D25000000001E0FDF7C6FF0028FBD1BDE8F88F14
:10D260005C230020A02C002009680068F9F745B96C
:10D270002DE9F04115460E460446FAF79FFE78B9AF
:10D28000A068FA21077D90F816802046FAF75EFF25
:10D29000FA212046FAF70EFE2046FAF78FFE10B16B
:10D2A0000620BDE8F081A068007D3070A068807D18
:10D2B00028703078C01BC1B22046FAF76DFE29787D
:10D2C000A1EB0800C1B22046FAF74CFF0020E8E7C6
:10D2D00070B5044614480025007810B30CB394F8D8
:10D2E0002000F0B1FBF712FBD4E90223801A994128
:10D2F00012D32069002608B984F82060D4E905100B
:10D300008847206968B194F8201051B1D4E902210E
:10D3100010187141C4E9020121460448FEF751FF8B
:10D320000125284670BD0000D8220020A8DB02009D
:10D330004069054A0178515C11B1001DFFF75ABAE6
:10D340000C30FFF7C9B80000C4220020F8B51C4C0F
:10D3500069462068FCF70FFB00260127194D2CE0D9
:10D36000017821B101290ED002291ED116E04168B1
:10D3700091F82020CAB981F820704168104808301F
:10D38000FEF71FFF11E041686868814201D16E60BD
:10D390000BE00B480830FEF72FFF06E0FFF714FF05
:10D3A00010B180F82060F9E72F7069462068FCF71B
:10D3B000D7FA69462068FCF7DEFA0028D0D1F8BD1C
:10D3C000A0DB0200D8220020F8B50B4C0D46064623
:10D3D00069462068FCF7B9FA58B10670456069469D
:10D3E0002068FCF7D3FA10B10448FAF785FF002053
:10D3F000F8BD0420F8BD0000A0DB0200E022002000
:10D4000070B50C4605464FF48E71FEF730FF216A69
:10D41000A068415C206A401C2062C5F81C1570BDE4
:10D420001FB500228DF800200291816801914261B0
:10D43000D0E90012684690471FBD1FB500228DF845
:10D4400000200291816801914261D0E90012684692
:10D4500090471FBD7CB5FF260546009600780C4618
:10D46000B8B1012806D0022812D1297AE068FEF767
:10D470004DFC0AE0297AE068FEF748FC287A20B1E2
:10D480006068D0E90021002090472046FFF7C6FDE4
:10D490007CBD297A2069FEF7E0FB009601236A46ED
:10D4A00001A92069FEF7ECFB009820B1C2B26069C7
:10D4B0000199FDF7ABF86068D0E9002101209047A1
:10D4C0007CBD00001FB50A4601788DF80010416848
:10D4D0000191017A8DF80810C0680390044850F853
:10D4E0002210001F50F82220684690471FBD000000
:10D4F000CC22002001490120087070473C23002005
:10D5000010B588B0044620220E496846F8F7BCFFE3
:10D5100006200090C01F0190029003904FF0EB7026
:10D5200006900CB1084A00E0002269460748FDF762
:10D5300039F808B1F9F7D8FA0448001F447008B068
:10D5400010BD0000ECDF0200F5D4020040230020F3
:10D550002DE9FF470C4605464FF40071FEF78DFE9E
:10D5600001274FF40178002618B34FF49279494609
:10D570002846FEF777FEE0B149462846FEF777FEDB
:10D58000C5F8088394F8290000B96F6002208DF86F
:10D590000000D5F88004C5F880040390A0690290CB
:10D5A000E0680190A661E661D4E900126846904700
:10D5B00028E004212846FEF760FE18B34FF484717A
:10D5C0002846FEF74FFEE8B121462846FFF7E6FC65
:10D5D000616AA069884215D1E06938B1E268616A80
:10D5E000A0612069E6616662E06008E094F82900C5
:10D5F00000B96F60C5F80883A661E268616A2046D9
:10D60000FFF7E5FC4FF48E7841462846FEF72AFEE8
:10D6100080B16069216A814202D294F8280028B35F
:10D6200041462846FEF723FE606918B1616920462D
:10D63000FFF7F6FE4FF4A27841462846FEF712FEA9
:10D64000002818D041462846FEF711FE94F829001C
:10D6500000B12F60A06900280DD0A661E268616A60
:10D6600004B02046BDE8F047FFF7B1BC214628468C
:10D67000FFF7C6FEDEE7BDE8FF8700001FB50A46DC
:10D6800001788DF8001041680191017A8DF8081039
:10D69000C0680390044850F82210001F50F8222060
:10D6A000684690471FBD0000CC2200202DE9FF41B5
:10D6B0000C464FF4927705463946FEF7E4FD002606
:10D6C000B8B139462846FEF7E3FD02208DF8000088
:10D6D000D5F88004C5F880040390D5F83C05029085
:10D6E000E0680190A661E661D4E9001268469047BF
:10D6F00023E04FF4887739462846FEF7C4FDE0B1B1
:10D7000039462846FEF7C4FDD5F83C15A069884285
:10D7100013D1E06960B1E268D5F8000220F0200082
:10D72000C5F80002E069A0612069E661E06001E0FF
:10D73000A661E2682046FFF755FC4FF4A277394610
:10D740002846FEF7A0FD68B139462846FEF7A0FD41
:10D75000A06938B1A661E661D5F83C152046E268BB
:10D76000FFF740FC4FF4907631462846FEF78BFDDC
:10D7700060B131462846FEF78BFD0120E860606904
:10D7800020B1D5F84C152046FFF757FE4FF4AC7684
:10D7900031462846FEF777FD00280ED03146284650
:10D7A000FEF776FD6069002807D0D5F84C1504B067
:10D7B0002046BDE8F041FFF740BEBDE8FF81000014
:10D7C00010B514210448F8F786FE04480068FCF7F9
:10D7D000A1F8002010BD0000F42A00203CDE020069
:10D7E0002DE9F05F8346DDE90A4A994690460D46E9
:10D7F0000846012703E000BFB0FBF8F07F1C40455E
:10D80000FAD2B94500D94F465FEACA7012D18CB13D
:10D810005FEA8A7002D5B9F1000F01D0202607E037
:10D82000302605E031465846641EF9F7FDFA0CB182
:10D83000A742F7D35FF00106B9F1010F02D9A9F1B0
:10D84000010903E0B5FBF6F0404502D306FB08F6FC
:10D85000F2E7DFF83C9000BFB5FBF6F000FB165591
:10D8600019F800105846F9F7DFFAB6FBF8F6002E63
:10D87000F2D15FEACA7009D0002C07D0A74205D2C6
:10D8800020215846641EF9F7CFFAF5E7BDE8F09F6E
:10D89000CCDD02001CB5002913D08268127F8A42B9
:10D8A0000FD008A3D3E90023CDE9002301F12F0213
:10D8B0008DF803208268117700696A4603A1FCF79E
:10D8C000C1FE1CBD1B5B34006D0000002573000011
:10D8D0001CB5826899B1D27E8A420FD00CA2D2E9DF
:10D8E0000032CDE9003201F12F028DF80520826867
:10D8F000D17600696A4608A1FCF7A4FE1CBDD1766A
:10D90000006902B0054ABDE8104003A1FCF79ABEC9
:10D910001B5B313B33006D00257300007DDD020091
:10D9200010B5044600E041DF2046FDF789F80028E5
:10D93000F9D110BD002070472DE9F84F114D8846F0
:10D9400081461E4617466946DDF828A02868FBF781
:10D95000FCFF040013D01C21F8F7BDFD002020714E
:10D96000C4F80090C4E90486C4E902A7694628689F
:10D97000FCF70CF8FFF7CCF90020BDE8F88F042085
:10D98000FBE700003CDE02002DE9F84315460C469B
:10D990008046FCF71FFD30B14046BDE8F843002249
:10D9A0001146FCF7D9BB032C05D04046BDE8F8432F
:10D9B00020A1F9F785BD102200216868F8F7C3FDA2
:10D9C0000446A868F8F792FD4FF48076FF2803D844
:10D9D000A868F8F78BFD00E0304607463146174847
:10D9E000F8F779FD3A461548A968F8F74DFD26463F
:10D9F000124C45462046F8F779FD810703D000F028
:10DA00000301401A001D00210346009122463146C1
:10DA10000B48FDF767F900280AD0FEF719FC03460A
:10DA200001B02846BDE8F04306A20221FCF76CBB1A
:10DA3000BDE8F8837772697465000000AC240020AB
:10DA4000102400206E72665F6673746F7261676582
:10DA50005F777269746528292072657475726E65C6
:10DA6000643A2025730A000050220020AC250020D3
:10DA70003F000000EC250020042600207F0000006D
:10DA8000842600200000000000200040000000006C
:10DA90000020004000000000B8DD02009C260020AD
:10DAA00068DA020078DA02006CDA020084DA020036
:10DAB000A4E2020098DA0200C8260020C0F50200A5
:10DAC0007822002068F60200FFFFFFFFFFFFFFFF44
:10DAD000FFFFFFFFFFFFFFFF00000000010000004D
:10DAE0000000D6010601000000000000F0DA02008C
:10DAF000D0E3020044E3020000000000A1CD0200D8
:10DB0000CCE30200BCE202000000000001CE0200F3
:10DB10000000000000000000000000000000000005
:10DB20000000000028DB0200C0E4020084E40200E0
:10DB300000000000B585020080E40200D4E302008A
:10DB400000000000F9850200000000000000000055
:10DB50000000000000000000C4E30200C8E402006E
:10DB6000E8DA02005DCD0200FCE4020004E50200F8
:10DB70000000000089D9020010E6020090E50200D2
:10DB8000000000006184020018E6020024E60200A2
:10DB900020DB02006D85020009C3020075C6020089
:10DBA000F822002001000600000000000C230020E5
:10DBB000077E0200000000000000000000000000DE
:10DBC0000338FDD87047000000000000D0DB0200E1
:10DBD00030E702000CE7020000000000AD9A0200EE
:10DBE0000000000000000000000000000000000035
:10DBF00038E7020040E70200C8DB0200AD9A0200ED
:10DC000055B0020037B002002DB002000000000045
:10DC100014DC020020E8020008E802000000000016
:10DC2000519E020024E80200F0E70200000000001C
:10DC30007B9E0200000000000000000000000000C9
:10DC400000000000000000004CDC020020E80200A0
:10DC500028E80200000000003D9F020024E80200C6
:10DC600084E8020000000000679F0200000000003E
:10DC700000000000000000000000000000000000A4
:10DC800084DC0200F0E80200C4E8020000000000AA
:10DC9000319D0200F8E8020098E802000000000050
:10DCA000619D020000000000000000000000000074
:10DCB0000000000000000000BCDC020044E902009B
:10DCC00024E902000CDC0200E99D02003CE90200AC
:10DCD00000E9020044DC0200A59E02004CE90200BB
:10DCE00014E902007CDC0200C59C02000000000078
:10DCF0000000000000000000000000000000000024
:10DD000004DD020098E9020054E90200000000006E
:10DD1000CDA0020000000000000000000000000094
:10DD200000000000B0E90200A0E9020000000000CD
:10DD30003D9C0200DCE90200B8E90200B4DC02000C
:10DD4000819C0200F4E90200E0E90200000000000A
:10DD5000919F02009CEA0200FCE90200FCDC020048
:10DD600009A0020000000000000000000000000008
:10DD70001B37001B38002C20001B5B4A001B5B6D0F
:10DD800000082008001B5B4B00202D20001B5B4877
:10DD9000001B5B366E001B5B324A00000000000077
:10DDA0000338FDD870471B5B3F336C002D682C2077
:10DDB0002D2D68656C700000717B0200C77B02002E
:10DDC000057B0200DD7B0200BD7B02003031323377
:10DDD0003435363738394142434445466E72665FC2
:10DDE0006673746F726167655F696E6974006E72E5
:10DDF000665F6673746F726167655F756E696E6981
:10DE000074006E72665F6673746F726167655F72CD
:10DE1000656164006E72665F6673746F72616765D8
:10DE20005F7772697465006E72665F6673746F7295
:10DE30006167655F657261736500000020230020E3
:10DE4000001000000400000001000000ED8B020043
:10DE5000C1D702004DCD020039D90200158402005D
:10DE600061CE020035D90200858D0200000000005D
:10DE700074DE020030E70200F8EA02000000000051
:10DE8000F9B90200000000000000000000000000DE
:10DE9000000000001CEB020040E702006CDE020004
:10DEA000F9B90200556E6B6E6F776E206572726FF6
:10DEB0007220636F646500000000000018EF02002C
:10DEC00001000000C4ED020002000000B8EB0200F7
:10DED0000300000038EE0200040000008CEE020097
:10DEE000050000006CED02000600000008ED0200D5
:10DEF0000700000074EE02000800000080ED020040
:10DF000009000000E4ED02000A00000000EF02003A
:10DF10000B000000A0EB02000C00000098ED0200D6
:10DF20000D00000068EF02000E00000064EE020029
:10DF30000F000000A0EE020010000000D4EE02006E
:10DF4000110000007CEF02001200000050EF020000
:10DF500013000000ECEE02008000000020ED020043
:10DF6000810000005CEC0200820000001CEC02005A
:10DF700083000000FCEB02008400000038EC02008B
:10DF80008500000044ED0200860000004CEE020017
:10DF900090000000E8EC020091000000DCEB0200C1
:10DFA00092000000ACED020000820000B4EE02001E
:10DFB0000182000000EE0200028200001CEE02005E
:10DFC0000084000078EC02000184000024EF0200CD
:10DFD00002840000C0EC0200038400009CEC0200FC
:10DFE0009DB1020071B102006FB10200FFFFFFFF9F
:10DFF000FFFFFFFFFFFFFFFFFFFFFFFF000000002D
:10E00000010000000000D601060100000100000030
:10E01000A99802000000000030E00200082C002057
:10E020007F000000882C0020010000000DD10200BC
:10E03000ACF0020038F002000CE00200A58D0200F6
:10E04000A4F00200B4EF020028E00200A58D020057
:10E05000D4F00200B4F0020000000000B18D020014
:10E06000E8F00200C4F0020000000000BD8D0200D4
:10E0700030E70200D8F0020000000000C98D020065
:10E080000000000000000000000000000000000090
:10E09000010000004D6D020000000000A0E0020041
:10E0A00058F10200F0F0020000000000F98E0200BA
:10E0B00060F1020024F1020000000000358F020030
:10E0C0000000000000000000000000000000000050
:10E0D00000000000D8E002009CF1020068F102009C
:10E0E00090E0020000000000A4F10200ACF1020088
:10E0F00098E0020000000000ACF0020038F00200DE
:10E100000CE002004D910200A4F00200B4EF020006
:10E1100028E002004D910200D4F00200B4F00200A9
:10E12000000000005D910200E8F00200C4F002006F
:10E130000000000067910200C8F1020084F10200B3
:10E1400000000000318E020030E70200D8F002002B
:10E1500000000000719102000000000000000000BB
:10E160000000000000000000D8F10200DCF1020015
:10E17000D0E00200D58D0200BCF60200C4F6020019
:10E1800000000000000000000100000778E102002C
:10E1900088E1020008000000B0E10200C0E10200D6
:10E1A00008000000C0E10200D0E102000800000009
:10E1B000DCF60200E4F602000000000000000000AF
:10E1C000CCF60200DCF602000000000000000000B7
:10E1D000000000000000000000000000000000003F
:10E1E000000000000000000000000000000000002F
:10E1F00050220020D0E10200F0E1020008000000FF
:10E20000C4F60200CCF6020000000000000000008E
:10E2100000E2020010E2020008000000004040405E
:10E2200040404040404041414141414040404040E9
:10E230004040404040404040404040404005020295
:10E240000202020202020202020202020220202054
:10E2500020202020202020020202020202029090B0
:10E2600090909090101010101010101010101010AE
:10E270001010101010101010020202020202888802
:10E28000888888880808080808080808080808080E
:10E2900008080808080808080202020240000000F6
:10E2A0001DE202006673746F7261676520657861B4
:10E2B0006D706C653A7E2420000000007265616418
:10E2C0002062797465732066726F6D20666C61736D
:10E2D0006820696E20415343494920666F726D6121
:10E2E000740A75736167653A20726561642073749E
:10E2F000722061646472206C656E0A2D2061646412
:10E30000723A207468652061646472657373207466
:10E310006F20726561642066726F6D2C20696E20BB
:10E320004845580A2D206C656E3A206E756D626501
:10E3300072206F6620627974657320746F20726535
:10E34000616400007265616420627974657320669F
:10E35000726F6D20666C61736820696E2048455845
:10E3600020666F726D61740A75736167653A207219
:10E37000656164206865782061646472206C656EF4
:10E380000A2D20616464723A2074686520616464B7
:10E390007265737320746F20726561642066726F9A
:10E3A0006D2C20696E204845580A2D206C656E3A08
:10E3B000206E756D626572206F6620627974657378
:10E3C00020746F2072656164000000007374720035
:10E3D000686578007365742074686520626F756E77
:10E3E000646172696573206F662074686520666C6D
:10E3F0006173680A75736167653A20666C6173685A
:10E40000617265612073657420626567696E20655D
:10E410006E640A2D20626567696E3A2061646472D9
:10E42000657373206F662074686520626567696E26
:10E430006E696E67206F662074686520666C617314
:10E440006820617265612C20696E204845580A2D4C
:10E4500020656E643A2061646472657373206F6630
:10E4600020656E64206F662074686520666C617339
:10E470006820617265612C20696E20484558000053
:10E48000736574007072696E742074686520626FC1
:10E49000756E646172696573206F662074686520AB
:10E4A000666C6173680A75736167653A20666C61B2
:10E4B000736861726561207072696E74000000009B
:10E4C0007072696E74000000726561642062797414
:10E4D00065732066726F6D20666C6173680A757370
:10E4E0006167653A2072656164206865787C737441
:10E4F000722061646472206C656E000077726974CA
:10E5000065000000777269746520415343494920D2
:10E51000627974657320746F20666C6173680A7524
:10E52000736167653A20777269746520616464720B
:10E5300020646174610A2D20616464723A20616410
:10E54000647265737320746F2077726974652074C8
:10E550006F2C20696E204845580A2D206461746133
:10E560003A206461746120746F206265207772695B
:10E570007474656E3B207573652071756F74657377
:10E5800020666F7220737472696E677300000000FA
:10E59000657261736520666C617368207061676580
:10E5A000730A75736167653A2065726173652061EE
:10E5B0006464722070616765730A2D2061646472FF
:10E5C0003A2061646472657373206F6620746865B5
:10E5D000207061676520746F20626567696E2065D1
:10E5E000726173696E672066726F6D2C20696E2090
:10E5F0004845580A2D2070616765733A206E756D25
:10E60000626572206F6620706167657320746F2089
:10E610006572617365000000666C617368617265A4
:10E62000610000007072696E74206F7220736574EF
:10E630002074686520626F756E646172696573200D
:10E640006F662074686520666C6173680A75736113
:10E6500067653A20666C61736861726561207072EB
:10E66000696E740A75736167653A20666C617368D8
:10E67000617265612073657420626567696E2065EB
:10E680006E6400002D2D3E204576656E7420726507
:10E690006365697665643A204552524F5220776827
:10E6A000696C6520657865637574696E6720616E55
:10E6B000206673746F72616765206F706572617434
:10E6C000696F6E2E000000005573652027666C612F
:10E6D0007368617265612720746F207072696E744F
:10E6E00020616E6420636F6E666967757265207461
:10E6F000686520666C617368207265616420626F72
:10E70000756E6461726965732E0000005072696EE7
:10E710007420737461747573206F662062616C6C11
:10E720006F6320696E7374616E6365732E00000001
:10E73000737461747573000062616C6C6F630000C8
:10E74000436F6D6D616E647320666F722042414C41
:10E750004C4F43206D616E6167656D656E7400009E
:10E7600025730D0A092D20456C656D656E74207347
:10E77000697A653A092564202B2025642062797422
:10E780006573206F6620646562756720696E666FC9
:10E79000726D6174696F6E0D0A092D205573616782
:10E7A000653A092575252520282575206F75742063
:10E7B0006F6620257520656C656D656E7473290D17
:10E7C0000A092D204D6178696D756D3A0925752509
:10E7D0002520282575206F7574206F6620257520EB
:10E7E000656C656D656E7473290D0A0D0A00000075
:10E7F000456E61626C6520636F6C6F726564207337
:10E80000796E7461782E000044697361626C6520D2
:10E81000636F6C6F7265642073796E7461782E001B
:10E820006F6666006F6E000044697361626C6520FC
:10E83000434C49206563686F2E204172726F777375
:10E8400020616E6420627574746F6E733A20426149
:10E85000636B73706163652C2044656C6574652C13
:10E8600020456E642C20486F6D652C20496E7365C1
:10E87000727420617265206E6F742068616E646CC2
:10E8800065642E00456E61626C6520434C492065CD
:10E8900063686F2E0000000047657420434C4920D8
:10E8A0007374617469737469637320666F72207422
:10E8B0006865204C6F67676572206D6F64756C6565
:10E8C0002E000000526573657420434C4920737418
:10E8D000617469737469637320666F72207468650C
:10E8E000204C6F67676572206D6F64756C652E00D4
:10E8F000726573657400000073686F770000000034
:10E90000546F67676C6520434C49206563686F2EC0
:10E9100000000000434C492073746174697374698A
:10E9200063732E00546F67676C6520636F6C6F7242
:10E9300065642073796E7461782E00006563686F7A
:10E9400000000000636F6C6F727300007374617479
:10E9500073000000417373756D6520383020636863
:10E960006172732073637265656E20776964746881
:10E9700020616E642073656E64207468697320730F
:10E98000657474696E6720746F207468652074659F
:10E99000726D696E616C2E0064656661756C7400E1
:10E9A000436C6561722073637265656E2E000000B2
:10E9B000636C65617200000055736566756C2C2090
:10E9C0006E6F7420556E69782D6C696B6520434CB1
:10E9D0004920636F6D6D616E64732E00636C690016
:10E9E000436F6D6D616E6420686973746F72792E08
:10E9F00000000000686973746F727900436F6E7372
:10EA00006F6C652067657473207465726D696E61E3
:10EA10006C2073637265656E2073697A65206F720E
:10EA200020617373756D657320383020696E2063C3
:10EA30006173652074686520726561646F75742008
:10EA40006661696C732E204974206D757374206241
:10EA500065206578656375746564206166746572A8
:10EA60002065616368207465726D696E616C2077E2
:10EA700069647468206368616E676520746F2065DF
:10EA80006E7375726520636F72726563742074654E
:10EA9000787420646973706C61792E007265736993
:10EAA0007A65000020200000616464725F69735F12
:10EAB00077697468696E5F626F756E647328705FE2
:10EAC00066732C20706167655F616464722C202816
:10EAD0006C656E202A20705F66732D3E705F666CD9
:10EAE0006173685F696E666F2D3E65726173655F05
:10EAF000756E6974292900005072696E74207374F0
:10EB000061747573206F6620717565756520696E17
:10EB10007374616E6365732E000000007175657516
:10EB20006500000025730D0A092D20456C656D6593
:10EB30006E742073697A653A0925640D0A092D20DF
:10EB400055736167653A09257525252028257520A7
:10EB50006F7574206F6620257520656C656D656E18
:10EB60007473290D0A092D204D6178696D756D3A10
:10EB7000092575252520282575206F7574206F6659
:10EB800020257520656C656D656E7473290D0A0905
:10EB90002D204D6F64653A090925730D0A0D0A0091
:10EBA0004E52465F4552524F525F494E56414C4974
:10EBB000445F4441544100004E52465F4552524F1B
:10EBC000525F534F46544445564943455F4E4F5458
:10EBD0005F454E41424C4544000000004E52465FA6
:10EBE0004552524F525F464541545552455F4E4F34
:10EBF000545F454E41424C45440000004E52465F32
:10EC00004552524F525F4D555445585F554E4C4FEB
:10EC1000434B5F4641494C45440000004E52465F1D
:10EC20004552524F525F4D555445585F4C4F434BE0
:10EC30005F4641494C4544004E52465F4552524F53
:10EC4000525F4D555445585F434F4E445F494E49BE
:10EC5000545F4641494C4544000000004E52465F17
:10EC60004552524F525F4D555445585F494E495495
:10EC70005F4641494C4544004E52465F4552524F13
:10EC8000525F424C455F495053505F52585F504B62
:10EC9000545F5452554E4341544544004E52465FD2
:10ECA0004552524F525F424C455F495053505F505E
:10ECB0004545525F52454A454354454400000000D3
:10ECC0004E52465F4552524F525F424C455F49504B
:10ECD00053505F4C494E4B5F444953434F4E4E4552
:10ECE00043544544000000004E52465F4552524F87
:10ECF000525F4150495F4E4F545F494D504C454D16
:10ED0000454E5445440000004E52465F4552524F16
:10ED1000525F4E4F545F535550504F52544544002C
:10ED20004E52465F4552524F525F4D4F44554C45EF
:10ED30005F4E4F545F494E495449414C495A4544EE
:10ED4000000000004E52465F4552524F525F4D4FF9
:10ED500044554C455F414C52454144595F494E49E9
:10ED60005449414C495A4544000000004E52465F08
:10ED70004552524F525F4E4F545F464F554E4400DE
:10ED80004E52465F4552524F525F494E56414C4992
:10ED9000445F5354415445004E52465F4552524FD2
:10EDA000525F444154415F53495A45004E52465FB9
:10EDB0004552524F525F494F5F50454E44494E476E
:10EDC000000000004E52465F4552524F525F53566C
:10EDD000435F48414E444C45525F4D495353494E61
:10EDE000470000004E52465F4552524F525F494E17
:10EDF00056414C49445F4C454E4754480000000082
:10EE00004E52465F4552524F525F4452565F5457DE
:10EE1000495F4552525F414E41434B004E52465F5F
:10EE20004552524F525F4452565F5457495F4552C4
:10EE3000525F444E41434B004E52465F4552524F43
:10EE4000525F494E5445524E414C00004E52465F6F
:10EE50004552524F525F53544F524147455F4655BA
:10EE60004C4C00004E52465F4552524F525F4E5539
:10EE70004C4C00004E52465F4552524F525F494E35
:10EE800056414C49445F504152414D004E52465FFD
:10EE90004552524F525F4E4F5F4D454D00000000AE
:10EEA0004E52465F4552524F525F464F524249447E
:10EEB00044454E004E52465F4552524F525F4452B7
:10EEC000565F5457495F4552525F4F56455252550F
:10EED0004E0000004E52465F4552524F525F494E1F
:10EEE00056414C49445F4144445200004E52465FF3
:10EEF0004552524F525F5245534F5552434553006E
:10EF00004E52465F4552524F525F494E56414C4910
:10EF1000445F464C414753004E52465F535543436E
:10EF2000455353004E52465F4552524F525F424C3A
:10EF3000455F495053505F4348414E4E454C5F41F9
:10EF40004C52454144595F455849535453000000C1
:10EF50004E52465F4552524F525F434F4E4E5F43B3
:10EF60004F554E54000000004E52465F4552524FDE
:10EF7000525F54494D454F55540000004E52465F74
:10EF80004552524F525F4255535900006E6F6E65A5
:10EF9000000000007761726E696E670064656275DB
:10EFA00067000000696E666F000000006572726F96
:10EFB00072000000276C6F6720656E61626C6520CF
:10EFC0003C6C6576656C3E203C6D6F64756C655F6E
:10EFD000303E202E2E2E20203C6D6F64756C655FB8
:10EFE0006E3E2720656E61626C6573206C6F67737F
:10EFF00020757020746F20676976656E206C657669
:10F00000656C20696E20737065636966696564204C
:10F010006D6F64756C65732028616C6C2069662067
:10F020006E6F206D6F64756C6573207370656369B6
:10F0300066696564292E0000276C6F672064697318
:10F0400061626C65203C6D6F64756C655F303E205D
:10F050002E2E203C6D6F64756C655F6E3E272064BC
:10F06000697361626C6573206C6F677320696E20D1
:10F07000737065636966696564206D6F64756C653E
:10F08000732028616C6C206966206E6F206D6F6440
:10F09000756C657320737065636966696564292E94
:10F0A00000000000656E61626C6500006469736158
:10F0B000626C6500526573756D65206C6F6767697A
:10F0C0006E67000048616C74206C6F6767696E67DB
:10F0D00000000000676F00004C6F67676572207367
:10F0E000746174757300000068616C740000000046
:10F0F0004C6F616420636F6E6669677572617469D5
:10F100006F6E2073746F72656420696E206E6F6E0F
:10F110002D766F6C6174696C65206D656D6F7279A9
:10F120002E00000053746F72652063757272656EF5
:10F130007420636F6E66696775726174696F6E20A3
:10F14000696E206E6F6E2D766F6C6174696C6520D0
:10F150006D656D6F72792E006C6F61640000000048
:10F1600073746F72650000004C6F67676572206290
:10F1700061636B656E647320636F6D6D616E647344
:10F180002E0000004C69737473206C6F67676572A2
:10F19000206261636B656E64732E00006261636B55
:10F1A000656E6400636F6E66696700004D616E6135
:10F1B0006765206C6F6767657220636F6E6669674D
:10F1C00075726174696F6E006C6973745F626163FC
:10F1D0006B656E64730000006C6F6700436F6D6D4C
:10F1E000616E647320666F7220636F6E74726F6CF1
:10F1F0006C696E67206C6F67676572001B5B313BE3
:10F2000033306D001B5B306D000000001B5B313B39
:10F2100033316D001B5B313B33326D001B5B313B87
:10F2200033336D001B5B313B33346D001B5B313B73
:10F2300033356D001B5B313B33366D001B5B313B5F
:10F2400033376D0073645F626C655F6366675F731D
:10F25000657428292072657475726E656420257343
:10F26000207768656E20617474656D7074696E676F
:10F2700020746F2073657420424C455F474154549D
:10F28000535F4346475F534552564943455F4348A2
:10F29000414E4745442E000073645F626C655F63B6
:10F2A00066675F73657428292072657475726E6570
:10F2B00064202573207768656E20617474656D70B5
:10F2C00074696E6720746F2073657420424C455FCB
:10F2D000434F4D4D4F4E5F4346475F56535F555525
:10F2E00049442E0073645F626C655F6366675F7399
:10F2F000657428292072657475726E6564202573A3
:10F30000207768656E20617474656D7074696E67CE
:10F3100020746F2073657420424C455F47415454FC
:10F32000535F4346475F415454525F5441425F53D9
:10F33000495A452E0000000073645F626C655F638C
:10F3400066675F73657428292072657475726E65CF
:10F3500064202573207768656E20617474656D7014
:10F3600074696E6720746F2073657420424C455F2A
:10F37000434F4E4E5F4346475F4741502E000000CB
:10F3800073645F626C655F6366675F736574282989
:10F390002072657475726E656420257320776865C8
:10F3A0006E20617474656D7074696E6720746F206F
:10F3B00073657420424C455F4741505F4346475F49
:10F3C000524F4C455F434F554E542E006170705F55
:10F3D00074696D65722E636C695F756172745F74B8
:10F3E000696D65720000000071756575652E6D5F51
:10F3F000636C695F756172745F6C6F675F62616394
:10F400006B656E645F7175657565000062616C6C3B
:10F410006F632E6D5F636C695F756172745F636D9E
:10F42000645F686973745F6D656D6F626A00000088
:10F430006D5F636C695F756172745F6C6F675F624B
:10F4400061636B656E645F717565756500000000D2
:10F450006D5F636C695F756172745F6C6F675F622B
:10F4600061636B656E6400006D5F636C695F7561FD
:10F4700072745F636D645F686973745F6D656D6FEF
:10F48000626A00005052530055415254000000007F
:10F4900055415254450000006170705F74696D659C
:10F4A0007200000061746669666F2E6D5F7265712F
:10F4B0005F6669666F000000636C695F75617274F6
:10F4C000000000006E72665F6673746F726167653C
:10F4D0000000000061746669666F2E6D5F66696684
:10F4E0006F000000736F72746C6973740000000029
:10F4F000756172745F6C6F675F6261636B656E6488
:10F500000000000062616C6C6F632E6C6F675F6D52
:10F51000656D706F6F6C0000617070006C6F675F7D
:10F520006D656D706F6F6C006E72665F73646800FE
:10F530006E72665F7364685F626C65006E72665FB0
:10F540007364685F736F6300E4F60200502200206A
:10F550005C0200009466020080F70200AC240020E8
:10F56000142C0000FC6902000000000058DB0200BF
:10F570000000000068DB02000000000078DB0200F1
:10F580000000000088DB020000000000F0DB020049
:10F590000000000024DD02000000000034DD020055
:10F5A0000000000044DD02000000000054DD020005
:10F5B0000000000094DE02000000000068E102008C
:10F5C00000DC02009022002050F402009C22002067
:10F5D000E0DF020000000000F0F4020054230020ED
:10F5E000CCF3020000000003E8F302000000000377
:10F5F0000CF402000000000384F40200000000008C
:10F6000088F402000000000090F4020000000000F6
:10F6100098F4020000000000A4F4020000000003BF
:10F62000B8F4020000000000C4F40200000003036C
:10F63000D4F4020000000003E4F402000000000023
:10F6400004F502000000000318F5020000000303A7
:10F6500028F502000000030330F502000000030358
:10F660003CF5020000000303AC220020A42200208D
:10F67000AC220020342800202C24002068F4020052
:10F6800030000000902300208823002090230020D9
:10F69000482B0020542400201CF502001800000014
:10F6A0002828002014280020040000000400000086
:10F6B0000100000030F402002824002009AC020000
:10F6C0000000000041AC020000000000C9BF0200C1
:10F6D0000000000039C102000000000021AC02005F
:10F6E00000000000011C132424822013E827B3200B
:10F6F0001714B0DA0214E1A402D4A0F6020213FF38
:10F7000000101EFE0FDCBA68656C6C6F20776F729C
:10F710006C6415100140110221049A409C81CBA415
:10F72000EA8C410A114C281912BA400859B8290428
:10F73000148CEF021AAC041A94041AA4045A9C0400
:10F74000291429102920291C011CE9401404F20263
:10F7500014FCF1021A0C081A14041A1C041A2404CA
:10F760001A2C041A34041A3C0451043890D0031B98
:10F770006D874413E0030B37FFFF43015100000086
:040000050002620192
:00000001FF
