Component: ARM Compiler 5.06 update 6 (build 750) Tool: armlink [4d35ed]

==============================================================================

Section Cross References

    main.o(i.adv_scan_start) refers to main.o(i.scan_start) for scan_start
    main.o(i.adv_scan_start) refers to boards.o(i.bsp_board_led_on) for bsp_board_led_on
    main.o(i.adv_scan_start) refers to ble_advertising.o(i.ble_advertising_start) for ble_advertising_start
    main.o(i.adv_scan_start) refers to app_error.o(i.app_error_handler_bare) for app_error_handler_bare
    main.o(i.adv_scan_start) refers to nrf_log_frontend.o(i.nrf_log_frontend_std_0) for nrf_log_frontend_std_0
    main.o(i.adv_scan_start) refers to main.o(.bss) for .bss
    main.o(i.adv_scan_start) refers to nrf_log_frontend.o(log_const_data) for m_nrf_log_app_logs_data_const
    main.o(i.assert_nrf_callback) refers to app_error_handler_keil.o(.emb_text) for app_error_handler
    main.o(i.ble_evt_handler) refers to ble_conn_state.o(i.ble_conn_state_role) for ble_conn_state_role
    main.o(i.ble_evt_handler) refers to memcmp.o(.text) for memcmp
    main.o(i.ble_evt_handler) refers to main.o(i.on_ble_evt) for on_ble_evt
    main.o(i.ble_evt_handler) refers to main.o(i.on_ble_central_evt) for on_ble_central_evt
    main.o(i.ble_evt_handler) refers to nrf_log_frontend.o(i.nrf_log_frontend_std_3) for nrf_log_frontend_std_3
    main.o(i.ble_evt_handler) refers to main.o(i.on_ble_peripheral_evt) for on_ble_peripheral_evt
    main.o(i.ble_evt_handler) refers to main.o(.bss) for .bss
    main.o(i.ble_evt_handler) refers to nrf_log_frontend.o(log_const_data) for m_nrf_log_app_logs_data_const
    main.o(i.ble_evt_handler) refers to main.o(.conststring) for .conststring
    main.o(i.bsp_event_handler) refers to ble_hrs.o(i.ble_hrs_heart_rate_measurement_send) for ble_hrs_heart_rate_measurement_send
==============================================================================

Removing Unused input sections from the image.

    Removing main.o(.rev16_text), (4 bytes).
    Removing main.o(.revsh_text), (4 bytes).
    Removing main.o(.rrx_text), (6 bytes).
    Removing main.o(i.assert_nrf_callback), (16 bytes).
    Removing boards.o(.rev16_text), (4 bytes).
    Removing boards.o(.revsh_text), (4 bytes).
    Removing boards.o(.rrx_text), (6 bytes).
    Removing boards.o(i.bsp_board_button_idx_to_pin), (12 bytes).
    Removing boards.o(i.bsp_board_led_idx_to_pin), (12 bytes).
    Removing boards.o(i.bsp_board_pin_to_led_idx), (36 bytes).
    Removing bsp.o(.rev16_text), (4 bytes).
    Removing bsp.o(.revsh_text), (4 bytes).
    Removing bsp.o(.rrx_text), (6 bytes).
    Removing bsp.o(i.bsp_buttons_disable), (4 bytes).
    Removing bsp.o(i.bsp_buttons_enable), (4 bytes).
    Removing bsp.o(i.bsp_indication_set), (24 bytes).
    Removing bsp.o(i.bsp_wakeup_button_disable), (6 bytes).
    Removing bsp.o(i.bsp_wakeup_button_enable), (6 bytes).
==============================================================================

Image Symbol Table

    Local Symbols

    Symbol Name                              Value     Ov Type        Size  Object(Section)

    ../clib/../cmprslib/zerorunl2.c          0x00000000   Number         0  __dczerorl2.o ABSOLUTE
    ../clib/microlib/ctype/ctype.c           0x00000000   Number         0  isxdigit_o.o ABSOLUTE
    ../clib/microlib/ctype/ctype.c           0x00000000   Number         0  isgraph_o.o ABSOLUTE
    ../clib/microlib/ctype/ctype.c           0x00000000   Number         0  islower_o.o ABSOLUTE
    ../clib/microlib/ctype/ctype.c           0x00000000   Number         0  isprint_o.o ABSOLUTE
    ../clib/microlib/ctype/ctype.c           0x00000000   Number         0  ctype_o.o ABSOLUTE
    ../clib/microlib/ctype/ctype.c           0x00000000   Number         0  isblank_o.o ABSOLUTE
    ../clib/microlib/ctype/ctype.c           0x00000000   Number         0  ispunct_o.o ABSOLUTE
    ../clib/microlib/ctype/ctype.c           0x00000000   Number         0  isspace_o.o ABSOLUTE
    ../clib/microlib/ctype/ctype.c           0x00000000   Number         0  isdigit_o.o ABSOLUTE
    ../clib/microlib/ctype/ctype.c           0x00000000   Number         0  iscntrl_o.o ABSOLUTE
    ../clib/microlib/ctype/ctype.c           0x00000000   Number         0  isalpha_o.o ABSOLUTE
    ../clib/microlib/ctype/ctype.c           0x00000000   Number         0  isalnum_o.o ABSOLUTE
    ../clib/microlib/ctype/ctype.c           0x00000000   Number         0  isupper_o.o ABSOLUTE
    ../clib/microlib/division.c              0x00000000   Number         0  uldiv.o ABSOLUTE
    ../clib/microlib/init/entry.s            0x00000000   Number         0  entry10b.o ABSOLUTE
    ../clib/microlib/init/entry.s            0x00000000   Number         0  entry2.o ABSOLUTE
    ../clib/microlib/init/entry.s            0x00000000   Number         0  entry8a.o ABSOLUTE
    ../clib/microlib/init/entry.s            0x00000000   Number         0  entry11a.o ABSOLUTE
    ../clib/microlib/init/entry.s            0x00000000   Number         0  entry7a.o ABSOLUTE
    ../clib/microlib/init/entry.s            0x00000000   Number         0  entry10a.o ABSOLUTE
    ../clib/microlib/init/entry.s            0x00000000   Number         0  entry9b.o ABSOLUTE
    ../clib/microlib/init/entry.s            0x00000000   Number         0  entry9a.o ABSOLUTE
    ../clib/microlib/init/entry.s            0x00000000   Number         0  entry11b.o ABSOLUTE
    ../clib/microlib/init/entry.s            0x00000000   Number         0  entry8b.o ABSOLUTE
    ../clib/microlib/init/entry.s            0x00000000   Number         0  entry7b.o ABSOLUTE
    ../clib/microlib/init/entry.s            0x00000000   Number         0  entry5.o ABSOLUTE
    ../clib/microlib/init/entry.s            0x00000000   Number         0  entry.o ABSOLUTE
    ../clib/microlib/longlong.c              0x00000000   Number         0  llushr.o ABSOLUTE
    ../clib/microlib/longlong.c              0x00000000   Number         0  llshl.o ABSOLUTE
    ../clib/microlib/stdio/fflush.c          0x00000000   Number         0  fflush.o ABSOLUTE
    ../clib/microlib/stdio/fputc.c           0x00000000   Number         0  fputc.o ABSOLUTE
    ../clib/microlib/stdio/semi.s            0x00000000   Number         0  semi.o ABSOLUTE
    ../clib/microlib/stdio/streams.c         0x00000000   Number         0  stdout.o ABSOLUTE
    ../clib/microlib/string/memcmp.c         0x00000000   Number         0  memcmp.o ABSOLUTE
    ../clib/microlib/string/memcpy.c         0x00000000   Number         0  memcpya.o ABSOLUTE
    ../clib/microlib/string/memcpy.c         0x00000000   Number         0  memmove.o ABSOLUTE
    ../clib/microlib/string/memcpy.c         0x00000000   Number         0  memmovea.o ABSOLUTE
    ../clib/microlib/string/memcpy.c         0x00000000   Number         0  memcpy.o ABSOLUTE
    ../clib/microlib/string/memcpy.c         0x00000000   Number         0  memcpyb.o ABSOLUTE
    ../clib/microlib/string/memcpy.c         0x00000000   Number         0  memcpyc.o ABSOLUTE
    ../clib/microlib/string/memcpy.c         0x00000000   Number         0  memmovec.o ABSOLUTE
    ../clib/microlib/string/memcpy.c         0x00000000   Number         0  memmoveb.o ABSOLUTE
    ../clib/microlib/string/memset.c         0x00000000   Number         0  memseta.o ABSOLUTE
    ../clib/microlib/string/memset.c         0x00000000   Number         0  memset.o ABSOLUTE
    ../clib/microlib/string/strcmp.c         0x00000000   Number         0  strcmp.o ABSOLUTE
    ../clib/microlib/string/strcpy.c         0x00000000   Number         0  strcpy.o ABSOLUTE
    ../clib/microlib/string/strlen.c         0x00000000   Number         0  strlen.o ABSOLUTE
    ../clib/microlib/stubs.s                 0x00000000   Number         0  iusesemip.o ABSOLUTE
    ../clib/microlib/stubs.s                 0x00000000   Number         0  useno.o ABSOLUTE
    ..\..\..\..\..\..\..\components\ble\ble_advertising\ble_advertising.c 0x00000000   Number         0  ble_advertising.o ABSOLUTE
    ..\..\..\..\..\..\..\components\ble\ble_db_discovery\ble_db_discovery.c 0x00000000   Number         0  ble_db_discovery.o ABSOLUTE
    ..\..\..\..\..\..\..\components\ble\ble_services\ble_hrs\ble_hrs.c 0x00000000   Number         0  ble_hrs.o ABSOLUTE
    ..\..\..\..\..\..\..\components\ble\ble_services\ble_hrs_c\ble_hrs_c.c 0x00000000   Number         0  ble_hrs_c.o ABSOLUTE
    ..\..\..\..\..\..\..\components\ble\common\ble_advdata.c 0x00000000   Number         0  ble_advdata.o ABSOLUTE
    ..\..\..\..\..\..\..\components\ble\common\ble_conn_params.c 0x00000000   Number         0  ble_conn_params.o ABSOLUTE
    ..\..\..\..\..\..\..\components\ble\common\ble_conn_state.c 0x00000000   Number         0  ble_conn_state.o ABSOLUTE
    ..\..\..\..\..\..\..\components\ble\common\ble_srv_common.c 0x00000000   Number         0  ble_srv_common.o ABSOLUTE
    ..\..\..\..\..\..\..\components\ble\nrf_ble_gatt\nrf_ble_gatt.c 0x00000000   Number         0  nrf_ble_gatt.o ABSOLUTE
    ..\..\..\..\..\..\..\components\ble\nrf_ble_gq\nrf_ble_gq.c 0x00000000   Number         0  nrf_ble_gq.o ABSOLUTE
    ..\..\..\..\..\..\..\components\ble\nrf_ble_qwr\nrf_ble_qwr.c 0x00000000   Number         0  nrf_ble_qwr.o ABSOLUTE
    ..\..\..\..\..\..\..\components\ble\nrf_ble_scan\nrf_ble_scan.c 0x00000000   Number         0  nrf_ble_scan.o ABSOLUTE
    ..\..\..\..\..\..\..\components\ble\peer_manager\auth_status_tracker.c 0x00000000   Number         0  auth_status_tracker.o ABSOLUTE
    ..\..\..\..\..\..\..\components\ble\peer_manager\gatt_cache_manager.c 0x00000000   Number         0  gatt_cache_manager.o ABSOLUTE
    ..\..\..\..\..\..\..\components\ble\peer_manager\gatts_cache_manager.c 0x00000000   Number         0  gatts_cache_manager.o ABSOLUTE
    ..\..\..\..\..\..\..\components\ble\peer_manager\id_manager.c 0x00000000   Number         0  id_manager.o ABSOLUTE
    ..\..\..\..\..\..\..\components\ble\peer_manager\nrf_ble_lesc.c 0x00000000   Number         0  nrf_ble_lesc.o ABSOLUTE
    ..\..\..\..\..\..\..\components\ble\peer_manager\peer_data_storage.c 0x00000000   Number         0  peer_data_storage.o ABSOLUTE
    ..\..\..\..\..\..\..\components\ble\peer_manager\peer_database.c 0x00000000   Number         0  peer_database.o ABSOLUTE
    ..\..\..\..\..\..\..\components\ble\peer_manager\peer_id.c 0x00000000   Number         0  peer_id.o ABSOLUTE
    ..\..\..\..\..\..\..\components\ble\peer_manager\peer_manager.c 0x00000000   Number         0  peer_manager.o ABSOLUTE
    ..\..\..\..\..\..\..\components\ble\peer_manager\peer_manager_handler.c 0x00000000   Number         0  peer_manager_handler.o ABSOLUTE
    ..\..\..\..\..\..\..\components\ble\peer_manager\pm_buffer.c 0x00000000   Number         0  pm_buffer.o ABSOLUTE
    ..\..\..\..\..\..\..\components\ble\peer_manager\security_dispatcher.c 0x00000000   Number         0  security_dispatcher.o ABSOLUTE
    ..\..\..\..\..\..\..\components\ble\peer_manager\security_manager.c 0x00000000   Number         0  security_manager.o ABSOLUTE
    ..\..\..\..\..\..\..\components\boards\boards.c 0x00000000   Number         0  boards.o ABSOLUTE
    ..\..\..\..\..\..\..\components\libraries\atomic\nrf_atomic.c 0x00000000   Number         0  nrf_atomic.o ABSOLUTE
    ..\..\..\..\..\..\..\components\libraries\atomic_fifo\nrf_atfifo.c 0x00000000   Number         0  nrf_atfifo.o ABSOLUTE
    ..\..\..\..\..\..\..\components\libraries\atomic_flags\nrf_atflags.c 0x00000000   Number         0  nrf_atflags.o ABSOLUTE
    ..\..\..\..\..\..\..\components\libraries\balloc\nrf_balloc.c 0x00000000   Number         0  nrf_balloc.o ABSOLUTE
    ..\..\..\..\..\..\..\components\libraries\bsp\bsp.c 0x00000000   Number         0  bsp.o ABSOLUTE
    ..\..\..\..\..\..\..\components\libraries\bsp\bsp_btn_ble.c 0x00000000   Number         0  bsp_btn_ble.o ABSOLUTE
    ..\..\..\..\..\..\..\components\libraries\button\app_button.c 0x00000000   Number         0  app_button.o ABSOLUTE
    ..\..\..\..\..\..\..\components\libraries\crc16\crc16.c 0x00000000   Number         0  crc16.o ABSOLUTE
    ..\..\..\..\..\..\..\components\libraries\crypto\backend\nrf_hw\nrf_hw_backend_init.c 0x00000000   Number         0  nrf_hw_backend_init.o ABSOLUTE
    ..\..\..\..\..\..\..\components\libraries\crypto\backend\nrf_hw\nrf_hw_backend_rng.c 0x00000000   Number         0  nrf_hw_backend_rng.o ABSOLUTE
    ..\..\..\..\..\..\..\components\libraries\crypto\backend\nrf_hw\nrf_hw_backend_rng_mbedtls.c 0x00000000   Number         0  nrf_hw_backend_rng_mbedtls.o ABSOLUTE
    ..\..\..\..\..\..\..\components\libraries\crypto\backend\oberon\oberon_backend_chacha_poly_aead.c 0x00000000   Number         0  oberon_backend_chacha_poly_aead.o ABSOLUTE
    ..\..\..\..\..\..\..\components\libraries\crypto\backend\oberon\oberon_backend_ecc.c 0x00000000   Number         0  oberon_backend_ecc.o ABSOLUTE
    ..\..\..\..\..\..\..\components\libraries\crypto\backend\oberon\oberon_backend_ecdh.c 0x00000000   Number         0  oberon_backend_ecdh.o ABSOLUTE
    ..\..\..\..\..\..\..\components\libraries\crypto\backend\oberon\oberon_backend_ecdsa.c 0x00000000   Number         0  oberon_backend_ecdsa.o ABSOLUTE
    ..\..\..\..\..\..\..\components\libraries\crypto\backend\oberon\oberon_backend_eddsa.c 0x00000000   Number         0  oberon_backend_eddsa.o ABSOLUTE
    ..\..\..\..\..\..\..\components\libraries\crypto\backend\oberon\oberon_backend_hash.c 0x00000000   Number         0  oberon_backend_hash.o ABSOLUTE
    ..\..\..\..\..\..\..\components\libraries\crypto\backend\oberon\oberon_backend_hmac.c 0x00000000   Number         0  oberon_backend_hmac.o ABSOLUTE
    ..\..\..\..\..\..\..\components\libraries\crypto\nrf_crypto_aead.c 0x00000000   Number         0  nrf_crypto_aead.o ABSOLUTE
    ..\..\..\..\..\..\..\components\libraries\crypto\nrf_crypto_aes.c 0x00000000   Number         0  nrf_crypto_aes.o ABSOLUTE
    ..\..\..\..\..\..\..\components\libraries\crypto\nrf_crypto_aes_shared.c 0x00000000   Number         0  nrf_crypto_aes_shared.o ABSOLUTE
    ..\..\..\..\..\..\..\components\libraries\crypto\nrf_crypto_ecc.c 0x00000000   Number         0  nrf_crypto_ecc.o ABSOLUTE
    ..\..\..\..\..\..\..\components\libraries\crypto\nrf_crypto_ecdh.c 0x00000000   Number         0  nrf_crypto_ecdh.o ABSOLUTE
    ..\..\..\..\..\..\..\components\libraries\crypto\nrf_crypto_ecdsa.c 0x00000000   Number         0  nrf_crypto_ecdsa.o ABSOLUTE
    ..\..\..\..\..\..\..\components\libraries\crypto\nrf_crypto_eddsa.c 0x00000000   Number         0  nrf_crypto_eddsa.o ABSOLUTE
    ..\..\..\..\..\..\..\components\libraries\crypto\nrf_crypto_error.c 0x00000000   Number         0  nrf_crypto_error.o ABSOLUTE
    ..\..\..\..\..\..\..\components\libraries\crypto\nrf_crypto_hash.c 0x00000000   Number         0  nrf_crypto_hash.o ABSOLUTE
    ..\..\..\..\..\..\..\components\libraries\crypto\nrf_crypto_hkdf.c 0x00000000   Number         0  nrf_crypto_hkdf.o ABSOLUTE
    ..\..\..\..\..\..\..\components\libraries\crypto\nrf_crypto_hmac.c 0x00000000   Number         0  nrf_crypto_hmac.o ABSOLUTE
    ..\..\..\..\..\..\..\components\libraries\crypto\nrf_crypto_init.c 0x00000000   Number         0  nrf_crypto_init.o ABSOLUTE
    ..\..\..\..\..\..\..\components\libraries\crypto\nrf_crypto_rng.c 0x00000000   Number         0  nrf_crypto_rng.o ABSOLUTE
    ..\..\..\..\..\..\..\components\libraries\crypto\nrf_crypto_shared.c 0x00000000   Number         0  nrf_crypto_shared.o ABSOLUTE
    ..\..\..\..\..\..\..\components\libraries\experimental_section_vars\nrf_section_iter.c 0x00000000   Number         0  nrf_section_iter.o ABSOLUTE
    ..\..\..\..\..\..\..\components\libraries\fds\fds.c 0x00000000   Number         0  fds.o ABSOLUTE
    ..\..\..\..\..\..\..\components\libraries\fstorage\nrf_fstorage.c 0x00000000   Number         0  nrf_fstorage.o ABSOLUTE
    ..\..\..\..\..\..\..\components\libraries\fstorage\nrf_fstorage_sd.c 0x00000000   Number         0  nrf_fstorage_sd.o ABSOLUTE
    ..\..\..\..\..\..\..\components\libraries\log\src\nrf_log_backend_rtt.c 0x00000000   Number         0  nrf_log_backend_rtt.o ABSOLUTE
    ..\..\..\..\..\..\..\components\libraries\log\src\nrf_log_backend_serial.c 0x00000000   Number         0  nrf_log_backend_serial.o ABSOLUTE
    ..\..\..\..\..\..\..\components\libraries\log\src\nrf_log_backend_uart.c 0x00000000   Number         0  nrf_log_backend_uart.o ABSOLUTE
    ..\..\..\..\..\..\..\components\libraries\log\src\nrf_log_default_backends.c 0x00000000   Number         0  nrf_log_default_backends.o ABSOLUTE
    ..\..\..\..\..\..\..\components\libraries\log\src\nrf_log_frontend.c 0x00000000   Number         0  nrf_log_frontend.o ABSOLUTE
    ..\..\..\..\..\..\..\components\libraries\log\src\nrf_log_str_formatter.c 0x00000000   Number         0  nrf_log_str_formatter.o ABSOLUTE
    ..\..\..\..\..\..\..\components\libraries\mem_manager\mem_manager.c 0x00000000   Number         0  mem_manager.o ABSOLUTE
    ..\..\..\..\..\..\..\components\libraries\memobj\nrf_memobj.c 0x00000000   Number         0  nrf_memobj.o ABSOLUTE
    ..\..\..\..\..\..\..\components\libraries\pwr_mgmt\nrf_pwr_mgmt.c 0x00000000   Number         0  nrf_pwr_mgmt.o ABSOLUTE
    ..\..\..\..\..\..\..\components\libraries\queue\nrf_queue.c 0x00000000   Number         0  nrf_queue.o ABSOLUTE
    ..\..\..\..\..\..\..\components\libraries\ringbuf\nrf_ringbuf.c 0x00000000   Number         0  nrf_ringbuf.o ABSOLUTE
    ..\..\..\..\..\..\..\components\libraries\scheduler\app_scheduler.c 0x00000000   Number         0  app_scheduler.o ABSOLUTE
    ..\..\..\..\..\..\..\components\libraries\sortlist\nrf_sortlist.c 0x00000000   Number         0  nrf_sortlist.o ABSOLUTE
    ..\..\..\..\..\..\..\components\libraries\strerror\nrf_strerror.c 0x00000000   Number         0  nrf_strerror.o ABSOLUTE
    ..\..\..\..\..\..\..\components\libraries\timer\app_timer2.c 0x00000000   Number         0  app_timer2.o ABSOLUTE
    ..\..\..\..\..\..\..\components\libraries\timer\drv_rtc.c 0x00000000   Number         0  drv_rtc.o ABSOLUTE
    ..\..\..\..\..\..\..\components\libraries\util\app_error.c 0x00000000   Number         0  app_error.o ABSOLUTE
    ..\..\..\..\..\..\..\components\libraries\util\app_error_handler_keil.c 0x00000000   Number         0  app_error_handler_keil.o ABSOLUTE
    ..\..\..\..\..\..\..\components\libraries\util\app_error_weak.c 0x00000000   Number         0  app_error_weak.o ABSOLUTE
    ..\..\..\..\..\..\..\components\libraries\util\app_util_platform.c 0x00000000   Number         0  app_util_platform.o ABSOLUTE
    ..\..\..\..\..\..\..\components\libraries\util\nrf_assert.c 0x00000000   Number         0  nrf_assert.o ABSOLUTE
    ..\..\..\..\..\..\..\components\softdevice\common\nrf_sdh.c 0x00000000   Number         0  nrf_sdh.o ABSOLUTE
    ..\..\..\..\..\..\..\components\softdevice\common\nrf_sdh_ble.c 0x00000000   Number         0  nrf_sdh_ble.o ABSOLUTE
    ..\..\..\..\..\..\..\components\softdevice\common\nrf_sdh_soc.c 0x00000000   Number         0  nrf_sdh_soc.o ABSOLUTE
    ..\..\..\..\..\..\..\external\fprintf\nrf_fprintf.c 0x00000000   Number         0  nrf_fprintf.o ABSOLUTE
    ..\..\..\..\..\..\..\external\fprintf\nrf_fprintf_format.c 0x00000000   Number         0  nrf_fprintf_format.o ABSOLUTE
    ..\..\..\..\..\..\..\external\mbedtls\library\aes.c 0x00000000   Number         0  aes.o ABSOLUTE
    ..\..\..\..\..\..\..\external\mbedtls\library\ctr_drbg.c 0x00000000   Number         0  ctr_drbg.o ABSOLUTE
    ..\..\..\..\..\..\..\external\mbedtls\library\platform_util.c 0x00000000   Number         0  platform_util.o ABSOLUTE
    ..\..\..\..\..\..\..\external\segger_rtt\SEGGER_RTT.c 0x00000000   Number         0  segger_rtt.o ABSOLUTE
    ..\..\..\..\..\..\..\external\segger_rtt\SEGGER_RTT_Syscalls_KEIL.c 0x00000000   Number         0  segger_rtt_syscalls_keil.o ABSOLUTE
    ..\..\..\..\..\..\..\external\segger_rtt\SEGGER_RTT_printf.c 0x00000000   Number         0  segger_rtt_printf.o ABSOLUTE
    ..\..\..\..\..\..\..\integration\nrfx\legacy\nrf_drv_rng.c 0x00000000   Number         0  nrf_drv_rng.o ABSOLUTE
    ..\..\..\..\..\..\..\integration\nrfx\legacy\nrf_drv_uart.c 0x00000000   Number         0  nrf_drv_uart.o ABSOLUTE
    ..\..\..\..\..\..\..\modules\nrfx\drivers\src\nrfx_gpiote.c 0x00000000   Number         0  nrfx_gpiote.o ABSOLUTE
    ..\..\..\..\..\..\..\modules\nrfx\drivers\src\nrfx_rng.c 0x00000000   Number         0  nrfx_rng.o ABSOLUTE
    ..\..\..\..\..\..\..\modules\nrfx\drivers\src\nrfx_uart.c 0x00000000   Number         0  nrfx_uart.o ABSOLUTE
    ..\..\..\..\..\..\..\modules\nrfx\drivers\src\nrfx_uarte.c 0x00000000   Number         0  nrfx_uarte.o ABSOLUTE
    ..\..\..\..\..\..\..\modules\nrfx\drivers\src\prs\nrfx_prs.c 0x00000000   Number         0  nrfx_prs.o ABSOLUTE
    ..\..\..\..\..\..\..\modules\nrfx\soc\nrfx_atomic.c 0x00000000   Number         0  nrfx_atomic.o ABSOLUTE
    ..\..\..\main.c                          0x00000000   Number         0  main.o ABSOLUTE
    ..\\..\\..\\..\\..\\..\\..\\components\\ble\\ble_advertising\\ble_advertising.c 0x00000000   Number         0  ble_advertising.o ABSOLUTE
    ..\\..\\..\\..\\..\\..\\..\\components\\ble\\ble_db_discovery\\ble_db_discovery.c 0x00000000   Number         0  ble_db_discovery.o ABSOLUTE
    ..\\..\\..\\..\\..\\..\\..\\components\\ble\\ble_services\\ble_hrs\\ble_hrs.c 0x00000000   Number         0  ble_hrs.o ABSOLUTE
    ..\\..\\..\\..\\..\\..\\..\\components\\ble\\ble_services\\ble_hrs_c\\ble_hrs_c.c 0x00000000   Number         0  ble_hrs_c.o ABSOLUTE
    ..\\..\\..\\..\\..\\..\\..\\components\\ble\\common\\ble_advdata.c 0x00000000   Number         0  ble_advdata.o ABSOLUTE
    ..\\..\\..\\..\\..\\..\\..\\components\\ble\\common\\ble_conn_params.c 0x00000000   Number         0  ble_conn_params.o ABSOLUTE
    ..\\..\\..\\..\\..\\..\\..\\components\\ble\\common\\ble_conn_state.c 0x00000000   Number         0  ble_conn_state.o ABSOLUTE
    ..\\..\\..\\..\\..\\..\\..\\components\\ble\\common\\ble_srv_common.c 0x00000000   Number         0  ble_srv_common.o ABSOLUTE
    ..\\..\\..\\..\\..\\..\\..\\components\\ble\\nrf_ble_gatt\\nrf_ble_gatt.c 0x00000000   Number         0  nrf_ble_gatt.o ABSOLUTE
    ..\\..\\..\\..\\..\\..\\..\\components\\ble\\nrf_ble_gq\\nrf_ble_gq.c 0x00000000   Number         0  nrf_ble_gq.o ABSOLUTE
    ..\\..\\..\\..\\..\\..\\..\\components\\ble\\nrf_ble_qwr\\nrf_ble_qwr.c 0x00000000   Number         0  nrf_ble_qwr.o ABSOLUTE
    ..\\..\\..\\..\\..\\..\\..\\components\\ble\\nrf_ble_scan\\nrf_ble_scan.c 0x00000000   Number         0  nrf_ble_scan.o ABSOLUTE
    ..\\..\\..\\..\\..\\..\\..\\components\\ble\\peer_manager\\auth_status_tracker.c 0x00000000   Number         0  auth_status_tracker.o ABSOLUTE
    ..\\..\\..\\..\\..\\..\\..\\components\\ble\\peer_manager\\gatt_cache_manager.c 0x00000000   Number         0  gatt_cache_manager.o ABSOLUTE
    ..\\..\\..\\..\\..\\..\\..\\components\\ble\\peer_manager\\gatts_cache_manager.c 0x00000000   Number         0  gatts_cache_manager.o ABSOLUTE
    ..\\..\\..\\..\\..\\..\\..\\components\\ble\\peer_manager\\id_manager.c 0x00000000   Number         0  id_manager.o ABSOLUTE
    ..\\..\\..\\..\\..\\..\\..\\components\\ble\\peer_manager\\nrf_ble_lesc.c 0x00000000   Number         0  nrf_ble_lesc.o ABSOLUTE
    ..\\..\\..\\..\\..\\..\\..\\components\\ble\\peer_manager\\peer_data_storage.c 0x00000000   Number         0  peer_data_storage.o ABSOLUTE
    ..\\..\\..\\..\\..\\..\\..\\components\\ble\\peer_manager\\peer_database.c 0x00000000   Number         0  peer_database.o ABSOLUTE
    ..\\..\\..\\..\\..\\..\\..\\components\\ble\\peer_manager\\peer_id.c 0x00000000   Number         0  peer_id.o ABSOLUTE
    ..\\..\\..\\..\\..\\..\\..\\components\\ble\\peer_manager\\peer_manager.c 0x00000000   Number         0  peer_manager.o ABSOLUTE
    ..\\..\\..\\..\\..\\..\\..\\components\\ble\\peer_manager\\peer_manager_handler.c 0x00000000   Number         0  peer_manager_handler.o ABSOLUTE
    ..\\..\\..\\..\\..\\..\\..\\components\\ble\\peer_manager\\pm_buffer.c 0x00000000   Number         0  pm_buffer.o ABSOLUTE
    ..\\..\\..\\..\\..\\..\\..\\components\\ble\\peer_manager\\security_dispatcher.c 0x00000000   Number         0  security_dispatcher.o ABSOLUTE
    ..\\..\\..\\..\\..\\..\\..\\components\\ble\\peer_manager\\security_manager.c 0x00000000   Number         0  security_manager.o ABSOLUTE
    ..\\..\\..\\..\\..\\..\\..\\components\\boards\\boards.c 0x00000000   Number         0  boards.o ABSOLUTE
    ..\\..\\..\\..\\..\\..\\..\\components\\libraries\\atomic\\nrf_atomic.c 0x00000000   Number         0  nrf_atomic.o ABSOLUTE
    ..\\..\\..\\..\\..\\..\\..\\components\\libraries\\atomic_fifo\\nrf_atfifo.c 0x00000000   Number         0  nrf_atfifo.o ABSOLUTE
    ..\\..\\..\\..\\..\\..\\..\\components\\libraries\\atomic_flags\\nrf_atflags.c 0x00000000   Number         0  nrf_atflags.o ABSOLUTE
    ..\\..\\..\\..\\..\\..\\..\\components\\libraries\\balloc\\nrf_balloc.c 0x00000000   Number         0  nrf_balloc.o ABSOLUTE
    ..\\..\\..\\..\\..\\..\\..\\components\\libraries\\bsp\\bsp.c 0x00000000   Number         0  bsp.o ABSOLUTE
    ..\\..\\..\\..\\..\\..\\..\\components\\libraries\\bsp\\bsp_btn_ble.c 0x00000000   Number         0  bsp_btn_ble.o ABSOLUTE
    ..\\..\\..\\..\\..\\..\\..\\components\\libraries\\button\\app_button.c 0x00000000   Number         0  app_button.o ABSOLUTE
    ..\\..\\..\\..\\..\\..\\..\\components\\libraries\\crc16\\crc16.c 0x00000000   Number         0  crc16.o ABSOLUTE
    ..\\..\\..\\..\\..\\..\\..\\components\\libraries\\crypto\\backend\\nrf_hw\\nrf_hw_backend_init.c 0x00000000   Number         0  nrf_hw_backend_init.o ABSOLUTE
    ..\\..\\..\\..\\..\\..\\..\\components\\libraries\\crypto\\backend\\nrf_hw\\nrf_hw_backend_rng.c 0x00000000   Number         0  nrf_hw_backend_rng.o ABSOLUTE
    ..\\..\\..\\..\\..\\..\\..\\components\\libraries\\crypto\\backend\\nrf_hw\\nrf_hw_backend_rng_mbedtls.c 0x00000000   Number         0  nrf_hw_backend_rng_mbedtls.o ABSOLUTE
    ..\\..\\..\\..\\..\\..\\..\\components\\libraries\\crypto\\backend\\oberon\\oberon_backend_chacha_poly_aead.c 0x00000000   Number         0  oberon_backend_chacha_poly_aead.o ABSOLUTE
    ..\\..\\..\\..\\..\\..\\..\\components\\libraries\\crypto\\backend\\oberon\\oberon_backend_ecc.c 0x00000000   Number         0  oberon_backend_ecc.o ABSOLUTE
    ..\\..\\..\\..\\..\\..\\..\\components\\libraries\\crypto\\backend\\oberon\\oberon_backend_ecdh.c 0x00000000   Number         0  oberon_backend_ecdh.o ABSOLUTE
    ..\\..\\..\\..\\..\\..\\..\\components\\libraries\\crypto\\backend\\oberon\\oberon_backend_ecdsa.c 0x00000000   Number         0  oberon_backend_ecdsa.o ABSOLUTE
    ..\\..\\..\\..\\..\\..\\..\\components\\libraries\\crypto\\backend\\oberon\\oberon_backend_eddsa.c 0x00000000   Number         0  oberon_backend_eddsa.o ABSOLUTE
    ..\\..\\..\\..\\..\\..\\..\\components\\libraries\\crypto\\backend\\oberon\\oberon_backend_hash.c 0x00000000   Number         0  oberon_backend_hash.o ABSOLUTE
    ..\\..\\..\\..\\..\\..\\..\\components\\libraries\\crypto\\backend\\oberon\\oberon_backend_hmac.c 0x00000000   Number         0  oberon_backend_hmac.o ABSOLUTE
    ..\\..\\..\\..\\..\\..\\..\\components\\libraries\\crypto\\nrf_crypto_aead.c 0x00000000   Number         0  nrf_crypto_aead.o ABSOLUTE
    ..\\..\\..\\..\\..\\..\\..\\components\\libraries\\crypto\\nrf_crypto_aes.c 0x00000000   Number         0  nrf_crypto_aes.o ABSOLUTE
    ..\\..\\..\\..\\..\\..\\..\\components\\libraries\\crypto\\nrf_crypto_aes_shared.c 0x00000000   Number         0  nrf_crypto_aes_shared.o ABSOLUTE
    ..\\..\\..\\..\\..\\..\\..\\components\\libraries\\crypto\\nrf_crypto_ecc.c 0x00000000   Number         0  nrf_crypto_ecc.o ABSOLUTE
    ..\\..\\..\\..\\..\\..\\..\\components\\libraries\\crypto\\nrf_crypto_ecdh.c 0x00000000   Number         0  nrf_crypto_ecdh.o ABSOLUTE
    ..\\..\\..\\..\\..\\..\\..\\components\\libraries\\crypto\\nrf_crypto_ecdsa.c 0x00000000   Number         0  nrf_crypto_ecdsa.o ABSOLUTE
    ..\\..\\..\\..\\..\\..\\..\\components\\libraries\\crypto\\nrf_crypto_eddsa.c 0x00000000   Number         0  nrf_crypto_eddsa.o ABSOLUTE
    ..\\..\\..\\..\\..\\..\\..\\components\\libraries\\crypto\\nrf_crypto_error.c 0x00000000   Number         0  nrf_crypto_error.o ABSOLUTE
    ..\\..\\..\\..\\..\\..\\..\\components\\libraries\\crypto\\nrf_crypto_hash.c 0x00000000   Number         0  nrf_crypto_hash.o ABSOLUTE
    ..\\..\\..\\..\\..\\..\\..\\components\\libraries\\crypto\\nrf_crypto_hkdf.c 0x00000000   Number         0  nrf_crypto_hkdf.o ABSOLUTE
    ..\\..\\..\\..\\..\\..\\..\\components\\libraries\\crypto\\nrf_crypto_hmac.c 0x00000000   Number         0  nrf_crypto_hmac.o ABSOLUTE
    ..\\..\\..\\..\\..\\..\\..\\components\\libraries\\crypto\\nrf_crypto_init.c 0x00000000   Number         0  nrf_crypto_init.o ABSOLUTE
    ..\\..\\..\\..\\..\\..\\..\\components\\libraries\\crypto\\nrf_crypto_rng.c 0x00000000   Number         0  nrf_crypto_rng.o ABSOLUTE
    ..\\..\\..\\..\\..\\..\\..\\components\\libraries\\crypto\\nrf_crypto_shared.c 0x00000000   Number         0  nrf_crypto_shared.o ABSOLUTE
    ..\\..\\..\\..\\..\\..\\..\\components\\libraries\\experimental_section_vars\\nrf_section_iter.c 0x00000000   Number         0  nrf_section_iter.o ABSOLUTE
    ..\\..\\..\\..\\..\\..\\..\\components\\libraries\\fds\\fds.c 0x00000000   Number         0  fds.o ABSOLUTE
    ..\\..\\..\\..\\..\\..\\..\\components\\libraries\\fstorage\\nrf_fstorage.c 0x00000000   Number         0  nrf_fstorage.o ABSOLUTE
    ..\\..\\..\\..\\..\\..\\..\\components\\libraries\\fstorage\\nrf_fstorage_sd.c 0x00000000   Number         0  nrf_fstorage_sd.o ABSOLUTE
    ..\\..\\..\\..\\..\\..\\..\\components\\libraries\\log\\src\\nrf_log_backend_rtt.c 0x00000000   Number         0  nrf_log_backend_rtt.o ABSOLUTE
    ..\\..\\..\\..\\..\\..\\..\\components\\libraries\\log\\src\\nrf_log_backend_serial.c 0x00000000   Number         0  nrf_log_backend_serial.o ABSOLUTE
    ..\\..\\..\\..\\..\\..\\..\\components\\libraries\\log\\src\\nrf_log_backend_uart.c 0x00000000   Number         0  nrf_log_backend_uart.o ABSOLUTE
    ..\\..\\..\\..\\..\\..\\..\\components\\libraries\\log\\src\\nrf_log_default_backends.c 0x00000000   Number         0  nrf_log_default_backends.o ABSOLUTE
    ..\\..\\..\\..\\..\\..\\..\\components\\libraries\\log\\src\\nrf_log_frontend.c 0x00000000   Number         0  nrf_log_frontend.o ABSOLUTE
    ..\\..\\..\\..\\..\\..\\..\\components\\libraries\\log\\src\\nrf_log_str_formatter.c 0x00000000   Number         0  nrf_log_str_formatter.o ABSOLUTE
    ..\\..\\..\\..\\..\\..\\..\\components\\libraries\\mem_manager\\mem_manager.c 0x00000000   Number         0  mem_manager.o ABSOLUTE
    ..\\..\\..\\..\\..\\..\\..\\components\\libraries\\memobj\\nrf_memobj.c 0x00000000   Number         0  nrf_memobj.o ABSOLUTE
    ..\\..\\..\\..\\..\\..\\..\\components\\libraries\\pwr_mgmt\\nrf_pwr_mgmt.c 0x00000000   Number         0  nrf_pwr_mgmt.o ABSOLUTE
    ..\\..\\..\\..\\..\\..\\..\\components\\libraries\\queue\\nrf_queue.c 0x00000000   Number         0  nrf_queue.o ABSOLUTE
    ..\\..\\..\\..\\..\\..\\..\\components\\libraries\\ringbuf\\nrf_ringbuf.c 0x00000000   Number         0  nrf_ringbuf.o ABSOLUTE
    ..\\..\\..\\..\\..\\..\\..\\components\\libraries\\scheduler\\app_scheduler.c 0x00000000   Number         0  app_scheduler.o ABSOLUTE
    ..\\..\\..\\..\\..\\..\\..\\components\\libraries\\sortlist\\nrf_sortlist.c 0x00000000   Number         0  nrf_sortlist.o ABSOLUTE
    ..\\..\\..\\..\\..\\..\\..\\components\\libraries\\strerror\\nrf_strerror.c 0x00000000   Number         0  nrf_strerror.o ABSOLUTE
    ..\\..\\..\\..\\..\\..\\..\\components\\libraries\\timer\\app_timer2.c 0x00000000   Number         0  app_timer2.o ABSOLUTE
    ..\\..\\..\\..\\..\\..\\..\\components\\libraries\\timer\\drv_rtc.c 0x00000000   Number         0  drv_rtc.o ABSOLUTE
    ..\\..\\..\\..\\..\\..\\..\\components\\libraries\\util\\app_error.c 0x00000000   Number         0  app_error.o ABSOLUTE
    ..\\..\\..\\..\\..\\..\\..\\components\\libraries\\util\\app_error_handler_keil.c 0x00000000   Number         0  app_error_handler_keil.o ABSOLUTE
    ..\\..\\..\\..\\..\\..\\..\\components\\libraries\\util\\app_error_weak.c 0x00000000   Number         0  app_error_weak.o ABSOLUTE
    ..\\..\\..\\..\\..\\..\\..\\components\\libraries\\util\\app_util_platform.c 0x00000000   Number         0  app_util_platform.o ABSOLUTE
    ..\\..\\..\\..\\..\\..\\..\\components\\libraries\\util\\nrf_assert.c 0x00000000   Number         0  nrf_assert.o ABSOLUTE
    ..\\..\\..\\..\\..\\..\\..\\components\\softdevice\\common\\nrf_sdh.c 0x00000000   Number         0  nrf_sdh.o ABSOLUTE
    ..\\..\\..\\..\\..\\..\\..\\components\\softdevice\\common\\nrf_sdh_ble.c 0x00000000   Number         0  nrf_sdh_ble.o ABSOLUTE
    ..\\..\\..\\..\\..\\..\\..\\components\\softdevice\\common\\nrf_sdh_soc.c 0x00000000   Number         0  nrf_sdh_soc.o ABSOLUTE
    ..\\..\\..\\..\\..\\..\\..\\external\\fprintf\\nrf_fprintf.c 0x00000000   Number         0  nrf_fprintf.o ABSOLUTE
    ..\\..\\..\\..\\..\\..\\..\\external\\fprintf\\nrf_fprintf_format.c 0x00000000   Number         0  nrf_fprintf_format.o ABSOLUTE
    ..\\..\\..\\..\\..\\..\\..\\external\\segger_rtt\\SEGGER_RTT.c 0x00000000   Number         0  segger_rtt.o ABSOLUTE
    ..\\..\\..\\..\\..\\..\\..\\external\\segger_rtt\\SEGGER_RTT_Syscalls_KEIL.c 0x00000000   Number         0  segger_rtt_syscalls_keil.o ABSOLUTE
    ..\\..\\..\\..\\..\\..\\..\\external\\segger_rtt\\SEGGER_RTT_printf.c 0x00000000   Number         0  segger_rtt_printf.o ABSOLUTE
    ..\\..\\..\\..\\..\\..\\..\\integration\\nrfx\\legacy\\nrf_drv_rng.c 0x00000000   Number         0  nrf_drv_rng.o ABSOLUTE
    ..\\..\\..\\..\\..\\..\\..\\integration\\nrfx\\legacy\\nrf_drv_uart.c 0x00000000   Number         0  nrf_drv_uart.o ABSOLUTE
    ..\\..\\..\\..\\..\\..\\..\\modules\\nrfx\\drivers\\src\\nrfx_gpiote.c 0x00000000   Number         0  nrfx_gpiote.o ABSOLUTE
    ..\\..\\..\\..\\..\\..\\..\\modules\\nrfx\\drivers\\src\\nrfx_rng.c 0x00000000   Number         0  nrfx_rng.o ABSOLUTE
    ..\\..\\..\\..\\..\\..\\..\\modules\\nrfx\\drivers\\src\\nrfx_uart.c 0x00000000   Number         0  nrfx_uart.o ABSOLUTE
    ..\\..\\..\\..\\..\\..\\..\\modules\\nrfx\\drivers\\src\\nrfx_uarte.c 0x00000000   Number         0  nrfx_uarte.o ABSOLUTE
    ..\\..\\..\\..\\..\\..\\..\\modules\\nrfx\\drivers\\src\\prs\\nrfx_prs.c 0x00000000   Number         0  nrfx_prs.o ABSOLUTE
    ..\\..\\..\\..\\..\\..\\..\\modules\\nrfx\\soc\\nrfx_atomic.c 0x00000000   Number         0  nrfx_atomic.o ABSOLUTE
    ..\\..\\..\\main.c                       0x00000000   Number         0  main.o ABSOLUTE
    RTE\Device\nRF52832_xxAA\arm_startup_nrf52.s 0x00000000   Number         0  arm_startup_nrf52.o ABSOLUTE
    RTE\Device\nRF52832_xxAA\system_nrf52.c  0x00000000   Number         0  system_nrf52.o ABSOLUTE
    RTE\\Device\\nRF52832_xxAA\\system_nrf52.c 0x00000000   Number         0  system_nrf52.o ABSOLUTE
    dc.s                                     0x00000000   Number         0  dc.o ABSOLUTE
    handlers.s                               0x00000000   Number         0  handlers.o ABSOLUTE
    init.s                                   0x00000000   Number         0  init.o ABSOLUTE
    ocrypto_chacha20.c                       0x00000000   Number         0  ocrypto_chacha20.c.obj ABSOLUTE
    ocrypto_chacha20_poly1305.c              0x00000000   Number         0  ocrypto_chacha20_poly1305.c.obj ABSOLUTE
    ocrypto_curve25519.c                     0x00000000   Number         0  ocrypto_curve25519.c.obj ABSOLUTE
    ocrypto_curve_p256.c                     0x00000000   Number         0  ocrypto_curve_p256.c.obj ABSOLUTE
    ocrypto_ecdh_p256.c                      0x00000000   Number         0  ocrypto_ecdh_p256.c.obj ABSOLUTE
    ocrypto_ecdsa_p256.c                     0x00000000   Number         0  ocrypto_ecdsa_p256.c.obj ABSOLUTE
    ocrypto_ed25519.c                        0x00000000   Number         0  ocrypto_ed25519.c.obj ABSOLUTE
    ocrypto_ge25519.c                        0x00000000   Number         0  ocrypto_ge25519.c.obj ABSOLUTE
    ocrypto_hkdf_sha256.c                    0x00000000   Number         0  ocrypto_hkdf_sha256.c.obj ABSOLUTE
    ocrypto_hkdf_sha512.c                    0x00000000   Number         0  ocrypto_hkdf_sha512.c.obj ABSOLUTE
    ocrypto_mod25519.c                       0x00000000   Number         0  ocrypto_mod25519.c.obj ABSOLUTE
    ocrypto_mod_p256.c                       0x00000000   Number         0  ocrypto_mod_p256.c.obj ABSOLUTE
    ocrypto_poly1305.c                       0x00000000   Number         0  ocrypto_poly1305.c.obj ABSOLUTE
    ocrypto_sc25519.c                        0x00000000   Number         0  ocrypto_sc25519.c.obj ABSOLUTE
    ocrypto_sc_p256.c                        0x00000000   Number         0  ocrypto_sc_p256.c.obj ABSOLUTE
    ocrypto_sha256.c                         0x00000000   Number         0  ocrypto_sha256.c.obj ABSOLUTE
    ocrypto_sha512.c                         0x00000000   Number         0  ocrypto_sha512.c.obj ABSOLUTE
    ocrypto_sha512_loop.c                    0x00000000   Number         0  ocrypto_sha512_loop.c.obj ABSOLUTE
    UseDspMul                                0x00000001   Number         0  ocrypto_chacha20_loop.s.obj ABSOLUTE
    UseDspMul                                0x00000001   Number         0  ocrypto_mod25519_base.s.obj ABSOLUTE
    UseDspMul                                0x00000001   Number         0  ocrypto_bigint256.s.obj ABSOLUTE
    UseDspMul                                0x00000001   Number         0  ocrypto_poly1305_mul.s.obj ABSOLUTE
    UseDspMul                                0x00000001   Number         0  ocrypto_mod_p256_base.s.obj ABSOLUTE
    UseFpuReg                                0x00000001   Number         0  ocrypto_mod25519_base.s.obj ABSOLUTE
    UseFpuReg                                0x00000001   Number         0  ocrypto_mod_p256_base.s.obj ABSOLUTE
    UseFpuReg                                0x00000001   Number         0  ocrypto_chacha20_loop.s.obj ABSOLUTE
    UseFpuReg                                0x00000001   Number         0  ocrypto_bigint256.s.obj ABSOLUTE
    __ARM_FEATURE_DSP                        0x00000001   Number         0  ocrypto_chacha20_loop.s.obj ABSOLUTE
    __ARM_FEATURE_DSP                        0x00000001   Number         0  ocrypto_bigint256.s.obj ABSOLUTE
    __ARM_FEATURE_DSP                        0x00000001   Number         0  ocrypto_poly1305_mul.s.obj ABSOLUTE
    __ARM_FEATURE_DSP                        0x00000001   Number         0  ocrypto_mod_p256_base.s.obj ABSOLUTE
    __ARM_FEATURE_DSP                        0x00000001   Number         0  ocrypto_mod25519_base.s.obj ABSOLUTE
    __ARM_FEATURE_DSP                        0x00000001   Number         0  ocrypto_sha256_loop.s.obj ABSOLUTE
    __ARM_FEATURE_DSP                        0x00000001   Number         0  ocrypto_constant_time.s.obj ABSOLUTE
    __ARM_FP                                 0x00000001   Number         0  ocrypto_mod_p256_base.s.obj ABSOLUTE
    __ARM_FP                                 0x00000001   Number         0  ocrypto_bigint256.s.obj ABSOLUTE
    __ARM_FP                                 0x00000001   Number         0  ocrypto_chacha20_loop.s.obj ABSOLUTE
    __ARM_FP                                 0x00000001   Number         0  ocrypto_mod25519_base.s.obj ABSOLUTE
    __ARM_FP                                 0x00000001   Number         0  ocrypto_constant_time.s.obj ABSOLUTE
    __ARM_FP                                 0x00000001   Number         0  ocrypto_poly1305_mul.s.obj ABSOLUTE
    __ARM_FP                                 0x00000001   Number         0  ocrypto_sha256_loop.s.obj ABSOLUTE
    RESET                                    0x00026000   Section      512  arm_startup_nrf52.o(RESET)
    .ARM.Collect$$$$00000000                 0x00026200   Section        0  entry.o(.ARM.Collect$$$$00000000)
    .ARM.Collect$$$$00000001                 0x00026200   Section        4  entry2.o(.ARM.Collect$$$$00000001)
    .ARM.Collect$$$$00000004                 0x00026204   Section        4  entry5.o(.ARM.Collect$$$$00000004)
    .ARM.Collect$$$$00000008                 0x00026208   Section        0  entry7b.o(.ARM.Collect$$$$00000008)
    .ARM.Collect$$$$0000000A                 0x00026208   Section        0  entry8b.o(.ARM.Collect$$$$0000000A)
    .ARM.Collect$$$$0000000B                 0x00026208   Section        8  entry9a.o(.ARM.Collect$$$$0000000B)
    .ARM.Collect$$$$0000000D                 0x00026210   Section        0  entry10a.o(.ARM.Collect$$$$0000000D)
    .ARM.Collect$$$$0000000F                 0x00026210   Section        0  entry11a.o(.ARM.Collect$$$$0000000F)
    .ARM.Collect$$$$00002712                 0x00026210   Section        4  entry2.o(.ARM.Collect$$$$00002712)
    __lit__00000000                          0x00026210   Data           4  entry2.o(.ARM.Collect$$$$00002712)
    .emb_text                                0x00026214   Section      200  nrf_atfifo.o(.emb_text)
    $v0                                      0x00026214   Number         0  nrf_atfifo.o(.emb_text)
    .emb_text                                0x000262dc   Section      226  nrf_atomic.o(.emb_text)
    $v0                                      0x000262dc   Number         0  nrf_atomic.o(.emb_text)
    .text                                    0x000263c0   Section       36  arm_startup_nrf52.o(.text)
    $v0                                      0x000263c0   Number         0  arm_startup_nrf52.o(.text)
    [Anonymous Symbol]                       0x000263e4   Section        0  ocrypto_bigint256.s.obj(.text)
    cswap64                                  0x00026569   Thumb Code     0  ocrypto_bigint256.s.obj(.text)
    [Anonymous Symbol]                       0x000267d8   Section        0  ocrypto_constant_time.s.obj(.text)
    constant_time_equal_loop                 0x000267de   Number         0  ocrypto_constant_time.s.obj(.text)
    constant_time_is_zero_loop               0x00026802   Number         0  ocrypto_constant_time.s.obj(.text)
    constant_time_copy_loop                  0x00026818   Number         0  ocrypto_constant_time.s.obj(.text)
    constant_time_fill_zero_loop             0x00026828   Number         0  ocrypto_constant_time.s.obj(.text)
    [Anonymous Symbol]                       0x00026834   Section        0  ocrypto_mod_p256_base.s.obj(.text)
    [Anonymous Symbol]                       0x00026cc8   Section        0  ocrypto_mod25519_base.s.obj(.text)
    .text                                    0x000270bc   Section        0  uldiv.o(.text)
    .text                                    0x0002711e   Section        0  llshl.o(.text)
    .text                                    0x0002713c   Section        0  ctype_o.o(.text)
    .text                                    0x00027144   Section        0  memmove.o(.text)
    .text                                    0x00027186   Section        0  memseta.o(.text)
    .text                                    0x000271aa   Section        0  strlen.o(.text)
    .text                                    0x000271b8   Section        0  strcmp.o(.text)
    .text                                    0x000271d4   Section        0  memcmp.o(.text)
    .text                                    0x000271ee   Section        0  llushr.o(.text)
    .text                                    0x00027210   Section       36  init.o(.text)
    .text                                    0x00027234   Section        0  __dczerorl2.o(.text)
    [Anonymous Symbol]                       0x0002728c   Section        0  ocrypto_ge25519.c.obj(.text.add_entry.constprop.0)
    add_entry.constprop.0                    0x0002728d   Thumb Code    90  ocrypto_ge25519.c.obj(.text.add_entry.constprop.0)
    [Anonymous Symbol]                       0x000272e8   Section        0  ocrypto_ge25519.c.obj(.text.add_entry.constprop.1)
    add_entry.constprop.1                    0x000272e9   Thumb Code    90  ocrypto_ge25519.c.obj(.text.add_entry.constprop.1)
    [Anonymous Symbol]                       0x00027344   Section        0  ocrypto_ge25519.c.obj(.text.add_entry.constprop.2)
    add_entry.constprop.2                    0x00027345   Thumb Code    86  ocrypto_ge25519.c.obj(.text.add_entry.constprop.2)
    [Anonymous Symbol]                       0x0002739c   Section        0  ocrypto_ge25519.c.obj(.text.dbl_p1p1)
    dbl_p1p1                                 0x0002739d   Thumb Code   134  ocrypto_ge25519.c.obj(.text.dbl_p1p1)
    [Anonymous Symbol]                       0x00027424   Section        0  ocrypto_ge25519.c.obj(.text.get_entry)
    get_entry                                0x00027425   Thumb Code   104  ocrypto_ge25519.c.obj(.text.get_entry)
    [Anonymous Symbol]                       0x0002748c   Section        0  ocrypto_ge25519.c.obj(.text.get_entry.constprop.0)
    get_entry.constprop.0                    0x0002748d   Thumb Code    92  ocrypto_ge25519.c.obj(.text.get_entry.constprop.0)
    [Anonymous Symbol]                       0x000274e8   Section        0  ocrypto_sc25519.c.obj(.text.m_reduction_step)
    m_reduction_step                         0x000274e9   Thumb Code    96  ocrypto_sc25519.c.obj(.text.m_reduction_step)
    [Anonymous Symbol]                       0x00027548   Section        0  ocrypto_ge25519.c.obj(.text.mixaddsub_p1p1)
    mixaddsub_p1p1                           0x00027549   Thumb Code   204  ocrypto_ge25519.c.obj(.text.mixaddsub_p1p1)
    [Anonymous Symbol]                       0x00027614   Section        0  ocrypto_curve25519.c.obj(.text.ocrypto_curve25519_scalarmult)
    [Anonymous Symbol]                       0x000277bc   Section        0  ocrypto_curve25519.c.obj(.text.ocrypto_curve25519_scalarmult_base)
    [Anonymous Symbol]                       0x000277c8   Section        0  ocrypto_curve_p256.c.obj(.text.ocrypto_curve_p256_from64bytes)
    [Anonymous Symbol]                       0x00027828   Section        0  ocrypto_curve_p256.c.obj(.text.ocrypto_curve_p256_scalarmult)
    [Anonymous Symbol]                       0x0002798c   Section        0  ocrypto_curve_p256.c.obj(.text.ocrypto_curve_p256_scalarmult_base)
    [Anonymous Symbol]                       0x00027998   Section        0  ocrypto_curve_p256.c.obj(.text.ocrypto_curve_p256_to32bytes)
    [Anonymous Symbol]                       0x0002799c   Section        0  ocrypto_curve_p256.c.obj(.text.ocrypto_curve_p256_to64bytes)
    [Anonymous Symbol]                       0x000279b8   Section        0  ocrypto_ecdh_p256.c.obj(.text.ocrypto_ecdh_p256_common_secret)
    [Anonymous Symbol]                       0x000279f0   Section        0  ocrypto_ecdh_p256.c.obj(.text.ocrypto_ecdh_p256_public_key)
    [Anonymous Symbol]                       0x00027a18   Section        0  ocrypto_ed25519.c.obj(.text.ocrypto_ed25519_public_key)
    [Anonymous Symbol]                       0x00027a60   Section        0  ocrypto_ge25519.c.obj(.text.ocrypto_ge25519_pack)
    [Anonymous Symbol]                       0x00027aa4   Section        0  ocrypto_ge25519.c.obj(.text.ocrypto_ge25519_scalarmult_base)
    [Anonymous Symbol]                       0x00027b94   Section        0  ocrypto_mod25519.c.obj(.text.ocrypto_mod25519_fromBytes)
    [Anonymous Symbol]                       0x00027bbc   Section        0  ocrypto_mod25519.c.obj(.text.ocrypto_mod25519_getsign)
    [Anonymous Symbol]                       0x00027bcc   Section        0  ocrypto_mod25519.c.obj(.text.ocrypto_mod25519_init)
    [Anonymous Symbol]                       0x00027be0   Section        0  ocrypto_mod25519.c.obj(.text.ocrypto_mod25519_neg)
    [Anonymous Symbol]                       0x00027c04   Section        0  ocrypto_mod25519.c.obj(.text.ocrypto_mod25519_power)
    [Anonymous Symbol]                       0x00027e28   Section        0  ocrypto_mod25519.c.obj(.text.ocrypto_mod25519_toBytes)
    [Anonymous Symbol]                       0x00027e58   Section        0  ocrypto_mod_p256.c.obj(.text.ocrypto_mod_p256_cneg)
    [Anonymous Symbol]                       0x00027e90   Section        0  ocrypto_mod_p256.c.obj(.text.ocrypto_mod_p256_fromBytes)
    [Anonymous Symbol]                       0x00027ec4   Section        0  ocrypto_mod_p256.c.obj(.text.ocrypto_mod_p256_invert)
    [Anonymous Symbol]                       0x00028024   Section        0  ocrypto_mod_p256.c.obj(.text.ocrypto_mod_p256_toBytes)
    [Anonymous Symbol]                       0x00028058   Section        0  ocrypto_sc25519.c.obj(.text.ocrypto_sc25519_from32bytes)
    [Anonymous Symbol]                       0x000280b8   Section        0  ocrypto_sc25519.c.obj(.text.ocrypto_sc25519_window4)
    [Anonymous Symbol]                       0x00028100   Section        0  ocrypto_sc_p256.c.obj(.text.ocrypto_sc_p256_from32bytes)
    [Anonymous Symbol]                       0x00028158   Section        0  ocrypto_sha512.c.obj(.text.ocrypto_sha512)
    [Anonymous Symbol]                       0x00028288   Section        0  ocrypto_sha512.c.obj(.text.ocrypto_sha512_final)
    [Anonymous Symbol]                       0x00028464   Section        0  ocrypto_sha512_loop.c.obj(.text.ocrypto_sha512_loop1)
    [Anonymous Symbol]                       0x00028654   Section        0  ocrypto_sha512_loop.c.obj(.text.ocrypto_sha512_loop2)
    [Anonymous Symbol]                       0x00028730   Section        0  ocrypto_curve_p256.c.obj(.text.p256_zaddc)
    p256_zaddc                               0x00028731   Thumb Code   204  ocrypto_curve_p256.c.obj(.text.p256_zaddc)
    [Anonymous Symbol]                       0x000287fc   Section        0  ocrypto_curve_p256.c.obj(.text.p256_zaddu)
    p256_zaddu                               0x000287fd   Thumb Code   152  ocrypto_curve_p256.c.obj(.text.p256_zaddu)
    [Anonymous Symbol]                       0x00028894   Section        0  ocrypto_curve_p256.c.obj(.text.p256_zdblu)
    p256_zdblu                               0x00028895   Thumb Code   184  ocrypto_curve_p256.c.obj(.text.p256_zdblu)
    [Anonymous Symbol]                       0x0002894c   Section        0  ocrypto_sha512.c.obj(.text.sha512_blocks)
    sha512_blocks                            0x0002894d   Thumb Code   796  ocrypto_sha512.c.obj(.text.sha512_blocks)
    [Anonymous Symbol]                       0x00028c68   Section        0  ocrypto_sha512.c.obj(.text.sha512_blocks.constprop.0)
    sha512_blocks.constprop.0                0x00028c69   Thumb Code   576  ocrypto_sha512.c.obj(.text.sha512_blocks.constprop.0)
    i.GPIOTE_IRQHandler                      0x00028ea8   Section        0  nrfx_gpiote.o(i.GPIOTE_IRQHandler)
    i.RNG_IRQHandler                         0x00028f4c   Section        0  nrfx_rng.o(i.RNG_IRQHandler)
    i.RTC1_IRQHandler                        0x00028f74   Section        0  drv_rtc.o(i.RTC1_IRQHandler)
    i.SWI2_EGU2_IRQHandler                   0x00028f84   Section        0  nrf_sdh.o(i.SWI2_EGU2_IRQHandler)
    i.SystemInit                             0x00028f88   Section        0  system_nrf52.o(i.SystemInit)
    i.UARTE0_UART0_IRQHandler                0x00029260   Section        0  nrfx_prs.o(i.UARTE0_UART0_IRQHandler)
    i.__scatterload_copy                     0x0002926c   Section       14  handlers.o(i.__scatterload_copy)
    i.__scatterload_null                     0x0002927a   Section        2  handlers.o(i.__scatterload_null)
    i.__scatterload_zeroinit                 0x0002927c   Section       14  handlers.o(i.__scatterload_zeroinit)
    i.__sd_nvic_app_accessible_irq           0x0002928c   Section        0  nrf_sdh.o(i.__sd_nvic_app_accessible_irq)
    __sd_nvic_app_accessible_irq             0x0002928d   Thumb Code    32  nrf_sdh.o(i.__sd_nvic_app_accessible_irq)
    i._conn_secure                           0x000292b0   Section        0  peer_manager_handler.o(i._conn_secure)
    _conn_secure                             0x000292b1   Thumb Code   178  peer_manager_handler.o(i._conn_secure)
    i.addr_compare                           0x000293ec   Section        0  id_manager.o(i.addr_compare)
    i.addr_is_aligned32                      0x00029412   Section        0  nrf_fstorage.o(i.addr_is_aligned32)
    addr_is_aligned32                        0x00029413   Thumb Code    12  nrf_fstorage.o(i.addr_is_aligned32)
    i.addr_is_within_bounds                  0x0002941e   Section        0  nrf_fstorage.o(i.addr_is_within_bounds)
    addr_is_within_bounds                    0x0002941f   Thumb Code    24  nrf_fstorage.o(i.addr_is_within_bounds)
    i.adv_scan_start                         0x00029438   Section        0  main.o(i.adv_scan_start)
    adv_scan_start                           0x00029439   Thumb Code    50  main.o(i.adv_scan_start)
    i.adv_set_data_size_max_get              0x00029484   Section        0  ble_advertising.o(i.adv_set_data_size_max_get)
    adv_set_data_size_max_get                0x00029485   Thumb Code    16  ble_advertising.o(i.adv_set_data_size_max_get)
    i.advertising_buttons_configure          0x00029494   Section        0  bsp_btn_ble.o(i.advertising_buttons_configure)
    advertising_buttons_configure            0x00029495   Thumb Code    54  bsp_btn_ble.o(i.advertising_buttons_configure)
    i.ah                                     0x000294ca   Section        0  id_manager.o(i.ah)
    i.alert_timer_handler                    0x0002951c   Section        0  bsp.o(i.alert_timer_handler)
    alert_timer_handler                      0x0002951d   Thumb Code     6  bsp.o(i.alert_timer_handler)
    i.allow_repairing                        0x00029524   Section        0  security_dispatcher.o(i.allow_repairing)
    allow_repairing                          0x00029525   Thumb Code     8  security_dispatcher.o(i.allow_repairing)
    i.app_button_enable                      0x00029530   Section        0  app_button.o(i.app_button_enable)
    i.app_button_init                        0x00029554   Section        0  app_button.o(i.app_button_init)
    i.app_error_fault_handler                0x000295d4   Section        0  app_error_weak.o(i.app_error_fault_handler)
    i.app_error_handler_bare                 0x00029658   Section        0  app_error.o(i.app_error_handler_bare)
    i.app_timer_cnt_get                      0x00029670   Section        0  app_timer2.o(i.app_timer_cnt_get)
    i.app_timer_create                       0x0002967c   Section        0  app_timer2.o(i.app_timer_create)
    i.app_timer_init                         0x00029694   Section        0  app_timer2.o(i.app_timer_init)
    i.app_timer_start                        0x000296f0   Section        0  app_timer2.o(i.app_timer_start)
    i.app_timer_stop                         0x00029720   Section        0  app_timer2.o(i.app_timer_stop)
    i.app_util_critical_region_enter         0x0002972c   Section        0  app_util_platform.o(i.app_util_critical_region_enter)
    i.app_util_critical_region_exit          0x00029774   Section        0  app_util_platform.o(i.app_util_critical_region_exit)
    i.apply_config                           0x000297a8   Section        0  nrfx_uart.o(i.apply_config)
    apply_config                             0x000297a9   Thumb Code   136  nrfx_uart.o(i.apply_config)
    i.apply_config                           0x00029830   Section        0  nrfx_uarte.o(i.apply_config)
    apply_config                             0x00029831   Thumb Code   136  nrfx_uarte.o(i.apply_config)
    i.apply_pending_handle                   0x000298b8   Section        0  gatt_cache_manager.o(i.apply_pending_handle)
    apply_pending_handle                     0x000298b9   Thumb Code     4  gatt_cache_manager.o(i.apply_pending_handle)
    i.auth_status_success_process            0x000298bc   Section        0  security_dispatcher.o(i.auth_status_success_process)
    auth_status_success_process              0x000298bd   Thumb Code   306  security_dispatcher.o(i.auth_status_success_process)
    i.ble_advdata_encode                     0x00029a3c   Section        0  ble_advdata.o(i.ble_advdata_encode)
    i.ble_advdata_name_find                  0x00029bbe   Section        0  ble_advdata.o(i.ble_advdata_name_find)
    i.ble_advdata_parse                      0x00029c02   Section        0  ble_advdata.o(i.ble_advdata_parse)
    i.ble_advdata_search                     0x00029c22   Section        0  ble_advdata.o(i.ble_advdata_search)
    i.ble_advdata_uuid_find                  0x00029c68   Section        0  ble_advdata.o(i.ble_advdata_uuid_find)
    i.ble_advertising_conn_cfg_tag_set       0x00029d1e   Section        0  ble_advertising.o(i.ble_advertising_conn_cfg_tag_set)
    i.ble_advertising_init                   0x00029d24   Section        0  ble_advertising.o(i.ble_advertising_init)
    i.ble_advertising_on_ble_evt             0x00029e1c   Section        0  ble_advertising.o(i.ble_advertising_on_ble_evt)
    i.ble_advertising_start                  0x00029e86   Section        0  ble_advertising.o(i.ble_advertising_start)
    i.ble_conn_params_init                   0x0002a0b8   Section        0  ble_conn_params.o(i.ble_conn_params_init)
    i.ble_conn_state_encrypted               0x0002a120   Section        0  ble_conn_state.o(i.ble_conn_state_encrypted)
    i.ble_conn_state_for_each_set_user_flag  0x0002a140   Section        0  ble_conn_state.o(i.ble_conn_state_for_each_set_user_flag)
    i.ble_conn_state_lesc                    0x0002a16c   Section        0  ble_conn_state.o(i.ble_conn_state_lesc)
    i.ble_conn_state_mitm_protected          0x0002a18c   Section        0  ble_conn_state.o(i.ble_conn_state_mitm_protected)
    i.ble_conn_state_role                    0x0002a1ac   Section        0  ble_conn_state.o(i.ble_conn_state_role)
    i.ble_conn_state_status                  0x0002a1d0   Section        0  ble_conn_state.o(i.ble_conn_state_status)
    i.ble_conn_state_user_flag_acquire       0x0002a1f4   Section        0  ble_conn_state.o(i.ble_conn_state_user_flag_acquire)
    i.ble_conn_state_user_flag_get           0x0002a20c   Section        0  ble_conn_state.o(i.ble_conn_state_user_flag_get)
    i.ble_conn_state_user_flag_set           0x0002a23c   Section        0  ble_conn_state.o(i.ble_conn_state_user_flag_set)
    i.ble_conn_state_valid                   0x0002a274   Section        0  ble_conn_state.o(i.ble_conn_state_valid)
    i.ble_db_discovery_evt_register          0x0002a288   Section        0  ble_db_discovery.o(i.ble_db_discovery_evt_register)
    i.ble_db_discovery_init                  0x0002a2c8   Section        0  ble_db_discovery.o(i.ble_db_discovery_init)
    i.ble_db_discovery_on_ble_evt            0x0002a2ec   Section        0  ble_db_discovery.o(i.ble_db_discovery_on_ble_evt)
    i.ble_db_discovery_start                 0x0002a348   Section        0  ble_db_discovery.o(i.ble_db_discovery_start)
    i.ble_device_addr_encode                 0x0002a370   Section        0  ble_advdata.o(i.ble_device_addr_encode)
    ble_device_addr_encode                   0x0002a371   Thumb Code    96  ble_advdata.o(i.ble_device_addr_encode)
    i.ble_evt_handler                        0x0002a3d0   Section        0  main.o(i.ble_evt_handler)
    ble_evt_handler                          0x0002a3d1   Thumb Code   162  main.o(i.ble_evt_handler)
    i.ble_evt_handler                        0x0002a498   Section        0  bsp_btn_ble.o(i.ble_evt_handler)
    ble_evt_handler                          0x0002a499   Thumb Code   106  bsp_btn_ble.o(i.ble_evt_handler)
    i.ble_evt_handler                        0x0002a508   Section        0  ble_conn_params.o(i.ble_evt_handler)
    ble_evt_handler                          0x0002a509   Thumb Code   242  ble_conn_params.o(i.ble_evt_handler)
    i.ble_evt_handler                        0x0002a604   Section        0  ble_conn_state.o(i.ble_evt_handler)
    ble_evt_handler                          0x0002a605   Thumb Code   274  ble_conn_state.o(i.ble_evt_handler)
    i.ble_evt_handler                        0x0002a71c   Section        0  peer_manager.o(i.ble_evt_handler)
    ble_evt_handler                          0x0002a71d   Thumb Code    36  peer_manager.o(i.ble_evt_handler)
    i.ble_hrs_c_handles_assign               0x0002a744   Section        0  ble_hrs_c.o(i.ble_hrs_c_handles_assign)
    i.ble_hrs_c_hrm_notif_enable             0x0002a75c   Section        0  ble_hrs_c.o(i.ble_hrs_c_hrm_notif_enable)
    i.ble_hrs_c_init                         0x0002a7ac   Section        0  ble_hrs_c.o(i.ble_hrs_c_init)
    i.ble_hrs_c_on_ble_evt                   0x0002a7e4   Section        0  ble_hrs_c.o(i.ble_hrs_c_on_ble_evt)
    i.ble_hrs_heart_rate_measurement_send    0x0002a814   Section        0  ble_hrs.o(i.ble_hrs_heart_rate_measurement_send)
    i.ble_hrs_init                           0x0002a870   Section        0  ble_hrs.o(i.ble_hrs_init)
    i.ble_hrs_on_ble_evt                     0x0002a944   Section        0  ble_hrs.o(i.ble_hrs_on_ble_evt)
    i.ble_hrs_on_db_disc_evt                 0x0002a994   Section        0  ble_hrs_c.o(i.ble_hrs_on_db_disc_evt)
    i.ble_srv_is_notification_enabled        0x0002aa10   Section        0  ble_srv_common.o(i.ble_srv_is_notification_enabled)
    i.block_cipher_df                        0x0002aa18   Section        0  ctr_drbg.o(i.block_cipher_df)
    block_cipher_df                          0x0002aa19   Thumb Code   338  ctr_drbg.o(i.block_cipher_df)
    i.bsp_board_button_state_get             0x0002ab6c   Section        0  boards.o(i.bsp_board_button_state_get)
    i.bsp_board_init                         0x0002ab8c   Section        0  boards.o(i.bsp_board_init)
    i.bsp_board_led_invert                   0x0002abe0   Section        0  boards.o(i.bsp_board_led_invert)
    i.bsp_board_led_off                      0x0002ac04   Section        0  boards.o(i.bsp_board_led_off)
    i.bsp_board_led_on                       0x0002ac14   Section        0  boards.o(i.bsp_board_led_on)
    i.bsp_board_led_state_get                0x0002ac24   Section        0  boards.o(i.bsp_board_led_state_get)
    i.bsp_board_leds_off                     0x0002ac44   Section        0  boards.o(i.bsp_board_leds_off)
    i.bsp_board_leds_on                      0x0002ac56   Section        0  boards.o(i.bsp_board_leds_on)
    i.bsp_board_pin_to_button_idx            0x0002ac68   Section        0  boards.o(i.bsp_board_pin_to_button_idx)
    i.bsp_btn_ble_init                       0x0002ac8c   Section        0  bsp_btn_ble.o(i.bsp_btn_ble_init)
    i.bsp_button_event_handler               0x0002acc4   Section        0  bsp.o(i.bsp_button_event_handler)
    bsp_button_event_handler                 0x0002acc5   Thumb Code   132  bsp.o(i.bsp_button_event_handler)
    i.bsp_button_is_pressed                  0x0002ad54   Section        0  bsp.o(i.bsp_button_is_pressed)
    i.bsp_event_handler                      0x0002ad60   Section        0  main.o(i.bsp_event_handler)
    bsp_event_handler                        0x0002ad61   Thumb Code    60  main.o(i.bsp_event_handler)
    i.bsp_event_to_button_action_assign      0x0002ada0   Section        0  bsp.o(i.bsp_event_to_button_action_assign)
    i.bsp_init                               0x0002ade4   Section        0  bsp.o(i.bsp_init)
    i.bsp_led_indication                     0x0002ae78   Section        0  bsp.o(i.bsp_led_indication)
    bsp_led_indication                       0x0002ae79   Thumb Code   446  bsp.o(i.bsp_led_indication)
    i.buf_prealloc                           0x0002b040   Section        0  nrf_log_frontend.o(i.buf_prealloc)
    buf_prealloc                             0x0002b041   Thumb Code   140  nrf_log_frontend.o(i.buf_prealloc)
    i.buffer_add                             0x0002b0d4   Section        0  nrf_fprintf_format.o(i.buffer_add)
    buffer_add                               0x0002b0d5   Thumb Code    46  nrf_fprintf_format.o(i.buffer_add)
    i.buffer_is_empty                        0x0002b104   Section        0  nrf_log_frontend.o(i.buffer_is_empty)
    i.button_get                             0x0002b11c   Section        0  app_button.o(i.button_get)
    button_get                               0x0002b11d   Thumb Code    36  app_button.o(i.button_get)
    i.button_timer_handler                   0x0002b144   Section        0  bsp.o(i.button_timer_handler)
    button_timer_handler                     0x0002b145   Thumb Code     8  bsp.o(i.button_timer_handler)
    i.car_update_needed                      0x0002b14c   Section        0  gatt_cache_manager.o(i.car_update_needed)
    car_update_needed                        0x0002b14d   Thumb Code    36  gatt_cache_manager.o(i.car_update_needed)
    i.car_update_pending_handle              0x0002b174   Section        0  gatt_cache_manager.o(i.car_update_pending_handle)
    car_update_pending_handle                0x0002b175   Thumb Code    54  gatt_cache_manager.o(i.car_update_pending_handle)
    i.channel_free                           0x0002b1b4   Section        0  nrfx_gpiote.o(i.channel_free)
    channel_free                             0x0002b1b5   Thumb Code    22  nrfx_gpiote.o(i.channel_free)
    i.channel_port_alloc                     0x0002b1d0   Section        0  nrfx_gpiote.o(i.channel_port_alloc)
    channel_port_alloc                       0x0002b1d1   Thumb Code    66  nrfx_gpiote.o(i.channel_port_alloc)
    i.channel_port_get                       0x0002b218   Section        0  nrfx_gpiote.o(i.channel_port_get)
    channel_port_get                         0x0002b219   Thumb Code    10  nrfx_gpiote.o(i.channel_port_get)
    i.characteristic_add                     0x0002b228   Section        0  ble_srv_common.o(i.characteristic_add)
    i.characteristics_discover               0x0002b3b8   Section        0  ble_db_discovery.o(i.characteristics_discover)
    characteristics_discover                 0x0002b3b9   Thumb Code   100  ble_db_discovery.o(i.characteristics_discover)
    i.claim                                  0x0002b424   Section        0  peer_id.o(i.claim)
    claim                                    0x0002b425   Thumb Code    62  peer_id.o(i.claim)
    i.compare_func                           0x0002b462   Section        0  app_timer2.o(i.compare_func)
    compare_func                             0x0002b463   Thumb Code    24  app_timer2.o(i.compare_func)
    i.compute_and_give_dhkey                 0x0002b47c   Section        0  nrf_ble_lesc.o(i.compute_and_give_dhkey)
    compute_and_give_dhkey                   0x0002b47d   Thumb Code   120  nrf_ble_lesc.o(i.compute_and_give_dhkey)
    i.conn_handle_id_find                    0x0002b574   Section        0  nrf_ble_gq.o(i.conn_handle_id_find)
    conn_handle_id_find                      0x0002b575   Thumb Code    30  nrf_ble_gq.o(i.conn_handle_id_find)
    i.conn_handle_list_get                   0x0002b592   Section        0  ble_conn_state.o(i.conn_handle_list_get)
    i.conn_int_encode                        0x0002b5d0   Section        0  ble_advdata.o(i.conn_int_encode)
    conn_int_encode                          0x0002b5d1   Thumb Code   136  ble_advdata.o(i.conn_int_encode)
    i.conn_params_error_handler              0x0002b658   Section        0  main.o(i.conn_params_error_handler)
    conn_params_error_handler                0x0002b659   Thumb Code     4  main.o(i.conn_params_error_handler)
    i.conn_params_negotiation                0x0002b65c   Section        0  ble_conn_params.o(i.conn_params_negotiation)
    conn_params_negotiation                  0x0002b65d   Thumb Code    68  ble_conn_params.o(i.conn_params_negotiation)
    i.conn_sec_failure                       0x0002b6a4   Section        0  security_dispatcher.o(i.conn_sec_failure)
    conn_sec_failure                         0x0002b6a5   Thumb Code    60  security_dispatcher.o(i.conn_sec_failure)
    i.conn_secure                            0x0002b6e8   Section        0  peer_manager_handler.o(i.conn_secure)
    conn_secure                              0x0002b6e9   Thumb Code     4  peer_manager_handler.o(i.conn_secure)
    i.continous_items_get                    0x0002b6ec   Section        0  nrf_queue.o(i.continous_items_get)
    continous_items_get                      0x0002b6ed   Thumb Code    38  nrf_queue.o(i.continous_items_get)
    i.ctr_drbg_update_internal               0x0002b712   Section        0  ctr_drbg.o(i.ctr_drbg_update_internal)
    ctr_drbg_update_internal                 0x0002b713   Thumb Code   130  ctr_drbg.o(i.ctr_drbg_update_internal)
    i.data_length_update                     0x0002b794   Section        0  nrf_ble_gatt.o(i.data_length_update)
    data_length_update                       0x0002b795   Thumb Code   110  nrf_ble_gatt.o(i.data_length_update)
    i.db_disc_handler                        0x0002b854   Section        0  main.o(i.db_disc_handler)
    db_disc_handler                          0x0002b855   Thumb Code     8  main.o(i.db_disc_handler)
    i.db_update_pending_handle               0x0002b860   Section        0  gatt_cache_manager.o(i.db_update_pending_handle)
    db_update_pending_handle                 0x0002b861   Thumb Code    42  gatt_cache_manager.o(i.db_update_pending_handle)
    i.delete_execute                         0x0002b890   Section        0  fds.o(i.delete_execute)
    delete_execute                           0x0002b891   Thumb Code   134  fds.o(i.delete_execute)
    i.descriptors_discover                   0x0002b91c   Section        0  ble_db_discovery.o(i.descriptors_discover)
    descriptors_discover                     0x0002b91d   Thumb Code   174  ble_db_discovery.o(i.descriptors_discover)
    i.detection_delay_timeout_handler        0x0002b9d4   Section        0  app_button.o(i.detection_delay_timeout_handler)
    detection_delay_timeout_handler          0x0002b9d5   Thumb Code    66  app_button.o(i.detection_delay_timeout_handler)
    i.discovery_available_evt_trigger        0x0002ba1c   Section        0  ble_db_discovery.o(i.discovery_available_evt_trigger)
    discovery_available_evt_trigger          0x0002ba1d   Thumb Code    44  ble_db_discovery.o(i.discovery_available_evt_trigger)
    i.discovery_complete_evt_trigger         0x0002ba4c   Section        0  ble_db_discovery.o(i.discovery_complete_evt_trigger)
    discovery_complete_evt_trigger           0x0002ba4d   Thumb Code   174  ble_db_discovery.o(i.discovery_complete_evt_trigger)
    i.discovery_error_handler                0x0002bb00   Section        0  ble_db_discovery.o(i.discovery_error_handler)
    discovery_error_handler                  0x0002bb01   Thumb Code    74  ble_db_discovery.o(i.discovery_error_handler)
    i.discovery_start                        0x0002bb50   Section        0  ble_db_discovery.o(i.discovery_start)
    discovery_start                          0x0002bb51   Thumb Code   110  ble_db_discovery.o(i.discovery_start)
    i.dropped_sat16_get                      0x0002bbcc   Section        0  nrf_log_frontend.o(i.dropped_sat16_get)
    dropped_sat16_get                        0x0002bbcd   Thumb Code    16  nrf_log_frontend.o(i.dropped_sat16_get)
    i.drv_rtc_compare_disable                0x0002bbe0   Section        0  drv_rtc.o(i.drv_rtc_compare_disable)
    i.drv_rtc_compare_pending                0x0002bbf4   Section        0  drv_rtc.o(i.drv_rtc_compare_pending)
    i.drv_rtc_compare_set                    0x0002bc02   Section        0  drv_rtc.o(i.drv_rtc_compare_set)
    i.drv_rtc_counter_get                    0x0002bc52   Section        0  drv_rtc.o(i.drv_rtc_counter_get)
    i.drv_rtc_init                           0x0002bc5c   Section        0  drv_rtc.o(i.drv_rtc_init)
    i.drv_rtc_irq_trigger                    0x0002bd34   Section        0  drv_rtc.o(i.drv_rtc_irq_trigger)
    i.drv_rtc_overflow_enable                0x0002bd52   Section        0  drv_rtc.o(i.drv_rtc_overflow_enable)
    i.drv_rtc_overflow_pending               0x0002bd5a   Section        0  drv_rtc.o(i.drv_rtc_overflow_pending)
    i.drv_rtc_start                          0x0002bd62   Section        0  drv_rtc.o(i.drv_rtc_start)
    i.drv_rtc_stop                           0x0002bd6a   Section        0  drv_rtc.o(i.drv_rtc_stop)
    i.drv_rtc_windowed_compare_set           0x0002bd72   Section        0  drv_rtc.o(i.drv_rtc_windowed_compare_set)
    i.encryption_failure                     0x0002be50   Section        0  security_dispatcher.o(i.encryption_failure)
    encryption_failure                       0x0002be51   Thumb Code    10  security_dispatcher.o(i.encryption_failure)
    i.entropy_callback                       0x0002be5a   Section        0  nrf_hw_backend_rng_mbedtls.o(i.entropy_callback)
    entropy_callback                         0x0002be5b   Thumb Code    14  nrf_hw_backend_rng_mbedtls.o(i.entropy_callback)
    i.erase                                  0x0002be68   Section        0  nrf_fstorage_sd.o(i.erase)
    erase                                    0x0002be69   Thumb Code    72  nrf_fstorage_sd.o(i.erase)
    i.event_prepare                          0x0002beb4   Section        0  fds.o(i.event_prepare)
    event_prepare                            0x0002beb5   Thumb Code   116  fds.o(i.event_prepare)
    i.event_send                             0x0002bf28   Section        0  fds.o(i.event_send)
    event_send                               0x0002bf29   Thumb Code    26  fds.o(i.event_send)
    i.event_send                             0x0002bf48   Section        0  nrf_fstorage_sd.o(i.event_send)
    event_send                               0x0002bf49   Thumb Code    84  nrf_fstorage_sd.o(i.event_send)
    i.events_send_from_err_code              0x0002bf9c   Section        0  security_manager.o(i.events_send_from_err_code)
    events_send_from_err_code                0x0002bf9d   Thumb Code   134  security_manager.o(i.events_send_from_err_code)
    i.evt_enable                             0x0002c034   Section        0  drv_rtc.o(i.evt_enable)
    evt_enable                               0x0002c035   Thumb Code    18  drv_rtc.o(i.evt_enable)
    i.evt_handle                             0x0002c048   Section        0  app_button.o(i.evt_handle)
    i.evt_pending                            0x0002c128   Section        0  drv_rtc.o(i.evt_pending)
    evt_pending                              0x0002c129   Thumb Code    20  drv_rtc.o(i.evt_pending)
    i.evt_send                               0x0002c13c   Section        0  gatt_cache_manager.o(i.evt_send)
    evt_send                                 0x0002c13d   Thumb Code    24  gatt_cache_manager.o(i.evt_send)
    i.evt_send                               0x0002c158   Section        0  gatts_cache_manager.o(i.evt_send)
    evt_send                                 0x0002c159   Thumb Code    24  gatts_cache_manager.o(i.evt_send)
    i.evt_send                               0x0002c174   Section        0  peer_manager.o(i.evt_send)
    evt_send                                 0x0002c175   Thumb Code    36  peer_manager.o(i.evt_send)
    i.evt_send                               0x0002c1a0   Section        0  security_dispatcher.o(i.evt_send)
    evt_send                                 0x0002c1a1   Thumb Code    24  security_dispatcher.o(i.evt_send)
    i.evt_send                               0x0002c1bc   Section        0  security_manager.o(i.evt_send)
    evt_send                                 0x0002c1bd   Thumb Code     6  security_manager.o(i.evt_send)
    i.fds_evt_handler                        0x0002c1c8   Section        0  peer_data_storage.o(i.fds_evt_handler)
    fds_evt_handler                          0x0002c1c9   Thumb Code   218  peer_data_storage.o(i.fds_evt_handler)
    i.fds_file_delete                        0x0002c2a8   Section        0  fds.o(i.fds_file_delete)
    i.fds_gc                                 0x0002c2f0   Section        0  fds.o(i.fds_gc)
    i.fds_init                               0x0002c330   Section        0  fds.o(i.fds_init)
    i.fds_record_close                       0x0002c414   Section        0  fds.o(i.fds_record_close)
    i.fds_record_find                        0x0002c45c   Section        0  fds.o(i.fds_record_find)
    i.fds_record_find_by_key                 0x0002c46a   Section        0  fds.o(i.fds_record_find_by_key)
    i.fds_record_find_in_file                0x0002c47a   Section        0  fds.o(i.fds_record_find_in_file)
    i.fds_record_id_from_desc                0x0002c48a   Section        0  fds.o(i.fds_record_id_from_desc)
    i.fds_record_open                        0x0002c49c   Section        0  fds.o(i.fds_record_open)
    i.fds_record_update                      0x0002c4e8   Section        0  fds.o(i.fds_record_update)
    i.fds_record_write                       0x0002c4f8   Section        0  fds.o(i.fds_record_write)
    i.fds_register                           0x0002c500   Section        0  fds.o(i.fds_register)
    i.fds_stat                               0x0002c530   Section        0  fds.o(i.fds_stat)
    i.file_id_within_pm_range                0x0002c5d0   Section        0  peer_data_storage.o(i.file_id_within_pm_range)
    file_id_within_pm_range                  0x0002c5d1   Thumb Code    20  peer_data_storage.o(i.file_id_within_pm_range)
    i.flag_id_init                           0x0002c5e4   Section        0  security_dispatcher.o(i.flag_id_init)
    flag_id_init                             0x0002c5e5   Thumb Code    18  security_dispatcher.o(i.flag_id_init)
    i.flag_id_init                           0x0002c5f6   Section        0  security_manager.o(i.flag_id_init)
    flag_id_init                             0x0002c5f7   Thumb Code    18  security_manager.o(i.flag_id_init)
    i.flag_toggle                            0x0002c608   Section        0  ble_conn_state.o(i.flag_toggle)
    flag_toggle                              0x0002c609   Thumb Code    10  ble_conn_state.o(i.flag_toggle)
    i.flags_set                              0x0002c612   Section        0  ble_advertising.o(i.flags_set)
    flags_set                                0x0002c613   Thumb Code    40  ble_advertising.o(i.flags_set)
    i.flags_set_from_err_code                0x0002c63c   Section        0  security_manager.o(i.flags_set_from_err_code)
    flags_set_from_err_code                  0x0002c63d   Thumb Code    42  security_manager.o(i.flags_set_from_err_code)
    i.for_each_set_flag                      0x0002c66c   Section        0  ble_conn_state.o(i.for_each_set_flag)
    for_each_set_flag                        0x0002c66d   Thumb Code    48  ble_conn_state.o(i.for_each_set_flag)
    i.fs_event_handler                       0x0002c69c   Section        0  fds.o(i.fs_event_handler)
    fs_event_handler                         0x0002c69d   Thumb Code     6  fds.o(i.fs_event_handler)
    i.gatt_error_handler                     0x0002c6a2   Section        0  ble_hrs_c.o(i.gatt_error_handler)
    gatt_error_handler                       0x0002c6a3   Thumb Code    10  ble_hrs_c.o(i.gatt_error_handler)
    i.gattc_write_alloc                      0x0002c6ac   Section        0  nrf_ble_gq.o(i.gattc_write_alloc)
    gattc_write_alloc                        0x0002c6ad   Thumb Code    44  nrf_ble_gq.o(i.gattc_write_alloc)
    i.gatts_hvx_alloc                        0x0002c6d8   Section        0  nrf_ble_gq.o(i.gatts_hvx_alloc)
    gatts_hvx_alloc                          0x0002c6d9   Thumb Code    62  nrf_ble_gq.o(i.gatts_hvx_alloc)
    i.gc_execute                             0x0002c718   Section        0  fds.o(i.gc_execute)
    gc_execute                               0x0002c719   Thumb Code   124  fds.o(i.gc_execute)
    i.gc_next_page                           0x0002c798   Section        0  fds.o(i.gc_next_page)
    gc_next_page                             0x0002c799   Thumb Code    70  fds.o(i.gc_next_page)
    i.gc_page_erase                          0x0002c7e4   Section        0  fds.o(i.gc_page_erase)
    gc_page_erase                            0x0002c7e5   Thumb Code    50  fds.o(i.gc_page_erase)
    i.gc_record_copy                         0x0002c824   Section        0  fds.o(i.gc_record_copy)
    gc_record_copy                           0x0002c825   Thumb Code    40  fds.o(i.gc_record_copy)
    i.gc_record_find_next                    0x0002c858   Section        0  fds.o(i.gc_record_find_next)
    gc_record_find_next                      0x0002c859   Thumb Code    30  fds.o(i.gc_record_find_next)
    i.gc_state_advance                       0x0002c87c   Section        0  fds.o(i.gc_state_advance)
    gc_state_advance                         0x0002c87d   Thumb Code   104  fds.o(i.gc_state_advance)
    i.gc_swap_pages                          0x0002c8ec   Section        0  fds.o(i.gc_swap_pages)
    gc_swap_pages                            0x0002c8ed   Thumb Code    40  fds.o(i.gc_swap_pages)
    i.gcm_ble_evt_handler                    0x0002c91c   Section        0  gatt_cache_manager.o(i.gcm_ble_evt_handler)
    i.gcm_im_evt_handler                     0x0002cb4c   Section        0  gatt_cache_manager.o(i.gcm_im_evt_handler)
    i.gcm_init                               0x0002cb88   Section        0  gatt_cache_manager.o(i.gcm_init)
    i.gcm_pdb_evt_handler                    0x0002cc1c   Section        0  gatt_cache_manager.o(i.gcm_pdb_evt_handler)
    i.generate                               0x0002cca4   Section        0  nrf_crypto_rng.o(i.generate)
    generate                                 0x0002cca5   Thumb Code    94  nrf_crypto_rng.o(i.generate)
    i.generate_in_range                      0x0002cd0c   Section        0  nrf_crypto_rng.o(i.generate_in_range)
    generate_in_range                        0x0002cd0d   Thumb Code   194  nrf_crypto_rng.o(i.generate_in_range)
    i.get_now                                0x0002cdd4   Section        0  app_timer2.o(i.get_now)
    get_now                                  0x0002cdd5   Thumb Code    46  app_timer2.o(i.get_now)
    i.gpiote_event_handler                   0x0002ce08   Section        0  app_button.o(i.gpiote_event_handler)
    gpiote_event_handler                     0x0002ce09   Thumb Code    56  app_button.o(i.gpiote_event_handler)
    i.gscm_db_change_notification_done       0x0002ce44   Section        0  gatts_cache_manager.o(i.gscm_db_change_notification_done)
    i.gscm_init                              0x0002ce60   Section        0  gatts_cache_manager.o(i.gscm_init)
    i.gscm_local_db_cache_apply              0x0002ce74   Section        0  gatts_cache_manager.o(i.gscm_local_db_cache_apply)
    i.gscm_local_db_cache_update             0x0002cf04   Section        0  gatts_cache_manager.o(i.gscm_local_db_cache_update)
    i.gscm_pdb_evt_handler                   0x0002cfb0   Section        0  gatts_cache_manager.o(i.gscm_pdb_evt_handler)
    i.gscm_service_changed_ind_needed        0x0002cfc8   Section        0  gatts_cache_manager.o(i.gscm_service_changed_ind_needed)
    i.gscm_service_changed_ind_send          0x0002cfe8   Section        0  gatts_cache_manager.o(i.gscm_service_changed_ind_send)
    i.header_check                           0x0002d044   Section        0  fds.o(i.header_check)
    header_check                             0x0002d045   Thumb Code    44  fds.o(i.header_check)
    i.header_has_next                        0x0002d070   Section        0  fds.o(i.header_has_next)
    header_has_next                          0x0002d071   Thumb Code    18  fds.o(i.header_has_next)
    i.hrm_encode                             0x0002d084   Section        0  ble_hrs.o(i.hrm_encode)
    hrm_encode                               0x0002d085   Thumb Code   152  ble_hrs.o(i.hrm_encode)
    i.hrs_c_error_handler                    0x0002d11c   Section        0  main.o(i.hrs_c_error_handler)
    hrs_c_error_handler                      0x0002d11d   Thumb Code     4  main.o(i.hrs_c_error_handler)
    i.hrs_c_evt_handler                      0x0002d120   Section        0  main.o(i.hrs_c_evt_handler)
    hrs_c_evt_handler                        0x0002d121   Thumb Code   146  main.o(i.hrs_c_evt_handler)
    i.im_address_resolve                     0x0002d210   Section        0  id_manager.o(i.im_address_resolve)
    i.im_ble_addr_get                        0x0002d258   Section        0  id_manager.o(i.im_ble_addr_get)
    i.im_ble_evt_handler                     0x0002d290   Section        0  id_manager.o(i.im_ble_evt_handler)
    i.im_conn_handle_get                     0x0002d36c   Section        0  id_manager.o(i.im_conn_handle_get)
    i.im_find_duplicate_bonding_data         0x0002d3ac   Section        0  id_manager.o(i.im_find_duplicate_bonding_data)
    i.im_is_duplicate_bonding_data           0x0002d3e4   Section        0  id_manager.o(i.im_is_duplicate_bonding_data)
    i.im_master_id_is_valid                  0x0002d456   Section        0  id_manager.o(i.im_master_id_is_valid)
    i.im_master_ids_compare                  0x0002d46e   Section        0  id_manager.o(i.im_master_ids_compare)
    i.im_new_peer_id                         0x0002d498   Section        0  id_manager.o(i.im_new_peer_id)
    i.im_peer_free                           0x0002d4ac   Section        0  id_manager.o(i.im_peer_free)
    i.im_peer_id_get_by_conn_handle          0x0002d4d8   Section        0  id_manager.o(i.im_peer_id_get_by_conn_handle)
    i.im_peer_id_get_by_master_id            0x0002d4fc   Section        0  id_manager.o(i.im_peer_id_get_by_master_id)
    i.init                                   0x0002d538   Section        0  nrf_fstorage_sd.o(i.init)
    init                                     0x0002d539   Thumb Code    42  nrf_fstorage_sd.o(i.init)
    i.init_execute                           0x0002d56c   Section        0  fds.o(i.init_execute)
    init_execute                             0x0002d56d   Thumb Code   188  fds.o(i.init_execute)
    i.instance_get                           0x0002d634   Section        0  ble_conn_params.o(i.instance_get)
    instance_get                             0x0002d635   Thumb Code    14  ble_conn_params.o(i.instance_get)
    i.int_print                              0x0002d648   Section        0  nrf_fprintf_format.o(i.int_print)
    int_print                                0x0002d649   Thumb Code   166  nrf_fprintf_format.o(i.int_print)
    i.interrupts_enable                      0x0002d6f0   Section        0  nrfx_uarte.o(i.interrupts_enable)
    interrupts_enable                        0x0002d6f1   Thumb Code   132  nrfx_uarte.o(i.interrupts_enable)
    i.invalid_packets_omit                   0x0002d778   Section        0  nrf_log_frontend.o(i.invalid_packets_omit)
    invalid_packets_omit                     0x0002d779   Thumb Code    52  nrf_log_frontend.o(i.invalid_packets_omit)
    i.is_busy                                0x0002d7ac   Section        0  nrf_fstorage_sd.o(i.is_busy)
    is_busy                                  0x0002d7ad   Thumb Code    12  nrf_fstorage_sd.o(i.is_busy)
    i.is_conn_params_ok                      0x0002d7bc   Section        0  ble_conn_params.o(i.is_conn_params_ok)
    is_conn_params_ok                        0x0002d7bd   Thumb Code    68  ble_conn_params.o(i.is_conn_params_ok)
    i.is_desc_discovery_reqd                 0x0002d800   Section        0  ble_db_discovery.o(i.is_desc_discovery_reqd)
    is_desc_discovery_reqd                   0x0002d801   Thumb Code    76  ble_db_discovery.o(i.is_desc_discovery_reqd)
    i.is_valid_irk                           0x0002d84c   Section        0  id_manager.o(i.is_valid_irk)
    i.is_vector_greater_or_equal             0x0002d860   Section        0  nrf_crypto_rng.o(i.is_vector_greater_or_equal)
    is_vector_greater_or_equal               0x0002d861   Thumb Code    36  nrf_crypto_rng.o(i.is_vector_greater_or_equal)
    i.is_whitelist_used                      0x0002d884   Section        0  nrf_ble_scan.o(i.is_whitelist_used)
    i.is_word_aligned                        0x0002d89c   Section        0  fds.o(i.is_word_aligned)
    is_word_aligned                          0x0002d89d   Thumb Code    12  fds.o(i.is_word_aligned)
    i.leds_off                               0x0002d8a8   Section        0  bsp.o(i.leds_off)
    leds_off                                 0x0002d8a9   Thumb Code    42  bsp.o(i.leds_off)
    i.leds_timer_handler                     0x0002d8d8   Section        0  bsp.o(i.leds_timer_handler)
    leds_timer_handler                       0x0002d8d9   Thumb Code    16  bsp.o(i.leds_timer_handler)
    i.link_init                              0x0002d8ec   Section        0  nrf_ble_gatt.o(i.link_init)
    link_init                                0x0002d8ed   Thumb Code    20  nrf_ble_gatt.o(i.link_init)
    i.link_secure                            0x0002d900   Section        0  security_manager.o(i.link_secure)
    link_secure                              0x0002d901   Thumb Code   190  security_manager.o(i.link_secure)
    i.link_secure_authenticate               0x0002d9d0   Section        0  security_dispatcher.o(i.link_secure_authenticate)
    link_secure_authenticate                 0x0002d9d1   Thumb Code    10  security_dispatcher.o(i.link_secure_authenticate)
    i.link_secure_central                    0x0002d9dc   Section        0  security_dispatcher.o(i.link_secure_central)
    link_secure_central                      0x0002d9dd   Thumb Code    98  security_dispatcher.o(i.link_secure_central)
    i.link_secure_central_encryption         0x0002da44   Section        0  security_dispatcher.o(i.link_secure_central_encryption)
    link_secure_central_encryption           0x0002da45   Thumb Code   134  security_dispatcher.o(i.link_secure_central_encryption)
    i.link_secure_failure                    0x0002dad8   Section        0  security_dispatcher.o(i.link_secure_failure)
    link_secure_failure                      0x0002dad9   Thumb Code    50  security_dispatcher.o(i.link_secure_failure)
    i.link_secure_pending_handle             0x0002db0c   Section        0  security_manager.o(i.link_secure_pending_handle)
    link_secure_pending_handle               0x0002db0d   Thumb Code    38  security_manager.o(i.link_secure_pending_handle)
    i.local_db_apply_in_evt                  0x0002db38   Section        0  gatt_cache_manager.o(i.local_db_apply_in_evt)
    local_db_apply_in_evt                    0x0002db39   Thumb Code   148  gatt_cache_manager.o(i.local_db_apply_in_evt)
    i.local_db_update                        0x0002dbe0   Section        0  gatt_cache_manager.o(i.local_db_update)
    local_db_update                          0x0002dbe1   Thumb Code    10  gatt_cache_manager.o(i.local_db_update)
    i.local_db_update_in_evt                 0x0002dbf0   Section        0  gatt_cache_manager.o(i.local_db_update_in_evt)
    local_db_update_in_evt                   0x0002dbf1   Thumb Code   134  gatt_cache_manager.o(i.local_db_update_in_evt)
    i.log_skip                               0x0002dcfc   Section        0  nrf_log_frontend.o(i.log_skip)
    log_skip                                 0x0002dcfd   Thumb Code   150  nrf_log_frontend.o(i.log_skip)
    i.main                                   0x0002dda0   Section        0  main.o(i.main)
    i.manuf_specific_data_encode             0x0002e040   Section        0  ble_advdata.o(i.manuf_specific_data_encode)
    manuf_specific_data_encode               0x0002e041   Thumb Code   100  ble_advdata.o(i.manuf_specific_data_encode)
    i.mbedtls_aes_crypt_ecb                  0x0002e0a4   Section        0  aes.o(i.mbedtls_aes_crypt_ecb)
    i.mbedtls_aes_free                       0x0002e0bc   Section        0  aes.o(i.mbedtls_aes_free)
    i.mbedtls_aes_init                       0x0002e0ca   Section        0  aes.o(i.mbedtls_aes_init)
    i.mbedtls_aes_setkey_enc                 0x0002e0d4   Section        0  aes.o(i.mbedtls_aes_setkey_enc)
    i.mbedtls_ctr_drbg_free                  0x0002e270   Section        0  ctr_drbg.o(i.mbedtls_ctr_drbg_free)
    i.mbedtls_ctr_drbg_init                  0x0002e28e   Section        0  ctr_drbg.o(i.mbedtls_ctr_drbg_init)
    i.mbedtls_ctr_drbg_random                0x0002e296   Section        0  ctr_drbg.o(i.mbedtls_ctr_drbg_random)
    i.mbedtls_ctr_drbg_random_with_add       0x0002e2a2   Section        0  ctr_drbg.o(i.mbedtls_ctr_drbg_random_with_add)
    i.mbedtls_ctr_drbg_reseed                0x0002e380   Section        0  ctr_drbg.o(i.mbedtls_ctr_drbg_reseed)
    i.mbedtls_ctr_drbg_seed                  0x0002e402   Section        0  ctr_drbg.o(i.mbedtls_ctr_drbg_seed)
    i.mbedtls_internal_aes_decrypt           0x0002e458   Section        0  aes.o(i.mbedtls_internal_aes_decrypt)
    i.mbedtls_internal_aes_encrypt           0x0002e90c   Section        0  aes.o(i.mbedtls_internal_aes_encrypt)
    i.mbedtls_platform_zeroize               0x0002edc0   Section        0  platform_util.o(i.mbedtls_platform_zeroize)
    i.memobj_op                              0x0002edd4   Section        0  nrf_memobj.o(i.memobj_op)
    memobj_op                                0x0002edd5   Thumb Code   126  nrf_memobj.o(i.memobj_op)
    i.module_idx_get                         0x0002ee54   Section        0  nrf_log_frontend.o(i.module_idx_get)
    module_idx_get                           0x0002ee55   Thumb Code    42  nrf_log_frontend.o(i.module_idx_get)
    i.mutex_lock_status_get                  0x0002ee84   Section        0  pm_buffer.o(i.mutex_lock_status_get)
    mutex_lock_status_get                    0x0002ee85   Thumb Code     8  pm_buffer.o(i.mutex_lock_status_get)
    i.name_encode                            0x0002ee8c   Section        0  ble_advdata.o(i.name_encode)
    name_encode                              0x0002ee8d   Thumb Code   166  ble_advdata.o(i.name_encode)
    i.new_context_get                        0x0002ef34   Section        0  security_manager.o(i.new_context_get)
    new_context_get                          0x0002ef35   Thumb Code    14  security_manager.o(i.new_context_get)
    i.new_evt                                0x0002ef48   Section        0  security_manager.o(i.new_evt)
    new_evt                                  0x0002ef49   Thumb Code    50  security_manager.o(i.new_evt)
    i.next_id_get                            0x0002ef7a   Section        0  peer_id.o(i.next_id_get)
    i.nrf_atfifo_clear                       0x0002efaa   Section        0  nrf_atfifo.o(i.nrf_atfifo_clear)
    i.nrf_atfifo_init                        0x0002efba   Section        0  nrf_atfifo.o(i.nrf_atfifo_init)
    i.nrf_atfifo_item_alloc                  0x0002efe0   Section        0  nrf_atfifo.o(i.nrf_atfifo_item_alloc)
    i.nrf_atfifo_item_free                   0x0002eff6   Section        0  nrf_atfifo.o(i.nrf_atfifo_item_free)
    i.nrf_atfifo_item_get                    0x0002f00c   Section        0  nrf_atfifo.o(i.nrf_atfifo_item_get)
    i.nrf_atfifo_item_put                    0x0002f022   Section        0  nrf_atfifo.o(i.nrf_atfifo_item_put)
    i.nrf_atflags_clear                      0x0002f038   Section        0  nrf_atflags.o(i.nrf_atflags_clear)
    i.nrf_atflags_fetch_set                  0x0002f04e   Section        0  nrf_atflags.o(i.nrf_atflags_fetch_set)
    i.nrf_atflags_find_and_set_flag          0x0002f06e   Section        0  nrf_atflags.o(i.nrf_atflags_find_and_set_flag)
    i.nrf_atflags_get                        0x0002f0b8   Section        0  nrf_atflags.o(i.nrf_atflags_get)
    i.nrf_atflags_set                        0x0002f0ce   Section        0  nrf_atflags.o(i.nrf_atflags_set)
    i.nrf_atomic_flag_clear                  0x0002f0e2   Section        0  nrf_atomic.o(i.nrf_atomic_flag_clear)
    i.nrf_atomic_flag_clear_fetch            0x0002f0e8   Section        0  nrf_atomic.o(i.nrf_atomic_flag_clear_fetch)
    i.nrf_atomic_flag_set                    0x0002f0ee   Section        0  nrf_atomic.o(i.nrf_atomic_flag_set)
    i.nrf_atomic_flag_set_fetch              0x0002f0f4   Section        0  nrf_atomic.o(i.nrf_atomic_flag_set_fetch)
    i.nrf_atomic_u32_add                     0x0002f0fa   Section        0  nrf_atomic.o(i.nrf_atomic_u32_add)
    i.nrf_atomic_u32_and                     0x0002f106   Section        0  nrf_atomic.o(i.nrf_atomic_u32_and)
    i.nrf_atomic_u32_fetch_add               0x0002f112   Section        0  nrf_atomic.o(i.nrf_atomic_u32_fetch_add)
    i.nrf_atomic_u32_fetch_and               0x0002f11c   Section        0  nrf_atomic.o(i.nrf_atomic_u32_fetch_and)
    i.nrf_atomic_u32_fetch_or                0x0002f126   Section        0  nrf_atomic.o(i.nrf_atomic_u32_fetch_or)
    i.nrf_atomic_u32_fetch_store             0x0002f130   Section        0  nrf_atomic.o(i.nrf_atomic_u32_fetch_store)
    i.nrf_atomic_u32_or                      0x0002f13a   Section        0  nrf_atomic.o(i.nrf_atomic_u32_or)
    i.nrf_atomic_u32_sub                     0x0002f146   Section        0  nrf_atomic.o(i.nrf_atomic_u32_sub)
    i.nrf_balloc_alloc                       0x0002f152   Section        0  nrf_balloc.o(i.nrf_balloc_alloc)
    i.nrf_balloc_free                        0x0002f196   Section        0  nrf_balloc.o(i.nrf_balloc_free)
    i.nrf_balloc_init                        0x0002f1c6   Section        0  nrf_balloc.o(i.nrf_balloc_init)
    i.nrf_bitmask_bit_is_set                 0x0002f1f6   Section        0  nrfx_gpiote.o(i.nrf_bitmask_bit_is_set)
    nrf_bitmask_bit_is_set                   0x0002f1f7   Thumb Code    16  nrfx_gpiote.o(i.nrf_bitmask_bit_is_set)
    i.nrf_ble_gatt_init                      0x0002f206   Section        0  nrf_ble_gatt.o(i.nrf_ble_gatt_init)
    i.nrf_ble_gatt_on_ble_evt                0x0002f234   Section        0  nrf_ble_gatt.o(i.nrf_ble_gatt_on_ble_evt)
    i.nrf_ble_gq_conn_handle_register        0x0002f3a4   Section        0  nrf_ble_gq.o(i.nrf_ble_gq_conn_handle_register)
    i.nrf_ble_gq_item_add                    0x0002f414   Section        0  nrf_ble_gq.o(i.nrf_ble_gq_item_add)
    i.nrf_ble_gq_on_ble_evt                  0x0002f4b4   Section        0  nrf_ble_gq.o(i.nrf_ble_gq_on_ble_evt)
    i.nrf_ble_lesc_init                      0x0002f514   Section        0  nrf_ble_lesc.o(i.nrf_ble_lesc_init)
    i.nrf_ble_lesc_keypair_generate          0x0002f588   Section        0  nrf_ble_lesc.o(i.nrf_ble_lesc_keypair_generate)
    i.nrf_ble_lesc_on_ble_evt                0x0002f6e4   Section        0  nrf_ble_lesc.o(i.nrf_ble_lesc_on_ble_evt)
    i.nrf_ble_lesc_public_key_get            0x0002f7ac   Section        0  nrf_ble_lesc.o(i.nrf_ble_lesc_public_key_get)
    i.nrf_ble_lesc_request_handler           0x0002f7e8   Section        0  nrf_ble_lesc.o(i.nrf_ble_lesc_request_handler)
    i.nrf_ble_qwr_conn_handle_assign         0x0002f838   Section        0  nrf_ble_qwr.o(i.nrf_ble_qwr_conn_handle_assign)
    i.nrf_ble_qwr_init                       0x0002f84e   Section        0  nrf_ble_qwr.o(i.nrf_ble_qwr_init)
    i.nrf_ble_qwr_on_ble_evt                 0x0002f872   Section        0  nrf_ble_qwr.o(i.nrf_ble_qwr_on_ble_evt)
    i.nrf_ble_scan_all_filter_remove         0x0002f928   Section        0  nrf_ble_scan.o(i.nrf_ble_scan_all_filter_remove)
    i.nrf_ble_scan_connect_with_target       0x0002f940   Section        0  nrf_ble_scan.o(i.nrf_ble_scan_connect_with_target)
    nrf_ble_scan_connect_with_target         0x0002f941   Thumb Code    80  nrf_ble_scan.o(i.nrf_ble_scan_connect_with_target)
    i.nrf_ble_scan_default_conn_param_set    0x0002f990   Section        0  nrf_ble_scan.o(i.nrf_ble_scan_default_conn_param_set)
    nrf_ble_scan_default_conn_param_set      0x0002f991   Thumb Code    18  nrf_ble_scan.o(i.nrf_ble_scan_default_conn_param_set)
    i.nrf_ble_scan_default_param_set         0x0002f9a2   Section        0  nrf_ble_scan.o(i.nrf_ble_scan_default_param_set)
    nrf_ble_scan_default_param_set           0x0002f9a3   Thumb Code    32  nrf_ble_scan.o(i.nrf_ble_scan_default_param_set)
    i.nrf_ble_scan_filter_set                0x0002f9c4   Section        0  nrf_ble_scan.o(i.nrf_ble_scan_filter_set)
    i.nrf_ble_scan_filters_disable           0x0002fa6a   Section        0  nrf_ble_scan.o(i.nrf_ble_scan_filters_disable)
    i.nrf_ble_scan_filters_enable            0x0002fa7e   Section        0  nrf_ble_scan.o(i.nrf_ble_scan_filters_enable)
    i.nrf_ble_scan_init                      0x0002fac4   Section        0  nrf_ble_scan.o(i.nrf_ble_scan_init)
    i.nrf_ble_scan_on_adv_report             0x0002fb34   Section        0  nrf_ble_scan.o(i.nrf_ble_scan_on_adv_report)
    nrf_ble_scan_on_adv_report               0x0002fb35   Thumb Code   330  nrf_ble_scan.o(i.nrf_ble_scan_on_adv_report)
    i.nrf_ble_scan_on_ble_evt                0x0002fc7e   Section        0  nrf_ble_scan.o(i.nrf_ble_scan_on_ble_evt)
    i.nrf_ble_scan_start                     0x0002fd00   Section        0  nrf_ble_scan.o(i.nrf_ble_scan_start)
    i.nrf_crypto_backend_curve25519_ecdh_compute 0x0002fd88   Section        0  oberon_backend_ecdh.o(i.nrf_crypto_backend_curve25519_ecdh_compute)
    i.nrf_crypto_backend_curve25519_key_pair_generate 0x0002fd98   Section        0  oberon_backend_ecc.o(i.nrf_crypto_backend_curve25519_key_pair_generate)
    i.nrf_crypto_backend_curve25519_public_key_calculate 0x0002fdd2   Section        0  oberon_backend_ecc.o(i.nrf_crypto_backend_curve25519_public_key_calculate)
    i.nrf_crypto_backend_ed25519_key_pair_generate 0x0002fde2   Section        0  oberon_backend_ecc.o(i.nrf_crypto_backend_ed25519_key_pair_generate)
    i.nrf_crypto_backend_ed25519_private_key_from_raw 0x0002fe14   Section        0  oberon_backend_ecc.o(i.nrf_crypto_backend_ed25519_private_key_from_raw)
    i.nrf_crypto_backend_ed25519_public_key_calculate 0x0002fe30   Section        0  oberon_backend_ecc.o(i.nrf_crypto_backend_ed25519_public_key_calculate)
    i.nrf_crypto_backend_oberon_ecc_secp256r1_rng 0x0002fe44   Section        0  oberon_backend_ecc.o(i.nrf_crypto_backend_oberon_ecc_secp256r1_rng)
    i.nrf_crypto_backend_oberon_private_key_from_raw 0x0002fe54   Section        0  oberon_backend_ecc.o(i.nrf_crypto_backend_oberon_private_key_from_raw)
    i.nrf_crypto_backend_oberon_private_key_to_raw 0x0002fe64   Section        0  oberon_backend_ecc.o(i.nrf_crypto_backend_oberon_private_key_to_raw)
    i.nrf_crypto_backend_oberon_public_key_from_raw 0x0002fe7a   Section        0  oberon_backend_ecc.o(i.nrf_crypto_backend_oberon_public_key_from_raw)
    i.nrf_crypto_backend_oberon_public_key_to_raw 0x0002fe8a   Section        0  oberon_backend_ecc.o(i.nrf_crypto_backend_oberon_public_key_to_raw)
    i.nrf_crypto_backend_secp256r1_ecdh_compute 0x0002fea0   Section        0  oberon_backend_ecdh.o(i.nrf_crypto_backend_secp256r1_ecdh_compute)
    i.nrf_crypto_backend_secp256r1_key_pair_generate 0x0002feb6   Section        0  oberon_backend_ecc.o(i.nrf_crypto_backend_secp256r1_key_pair_generate)
    i.nrf_crypto_backend_secp256r1_public_key_calculate 0x0002fedc   Section        0  oberon_backend_ecc.o(i.nrf_crypto_backend_secp256r1_public_key_calculate)
    i.nrf_crypto_ecc_byte_order_invert       0x0002fef4   Section        0  nrf_crypto_ecc.o(i.nrf_crypto_ecc_byte_order_invert)
    i.nrf_crypto_ecc_key_pair_generate       0x0002ff48   Section        0  nrf_crypto_ecc.o(i.nrf_crypto_ecc_key_pair_generate)
    i.nrf_crypto_ecc_public_key_from_raw     0x0002ffd0   Section        0  nrf_crypto_ecc.o(i.nrf_crypto_ecc_public_key_from_raw)
    i.nrf_crypto_ecc_public_key_to_raw       0x00030018   Section        0  nrf_crypto_ecc.o(i.nrf_crypto_ecc_public_key_to_raw)
    i.nrf_crypto_ecdh_compute                0x0003005c   Section        0  nrf_crypto_ecdh.o(i.nrf_crypto_ecdh_compute)
    i.nrf_crypto_init                        0x000300fc   Section        0  nrf_crypto_init.o(i.nrf_crypto_init)
    i.nrf_crypto_internal_ecc_key_input_check 0x0003013c   Section        0  nrf_crypto_ecc.o(i.nrf_crypto_internal_ecc_key_input_check)
    i.nrf_crypto_internal_ecc_key_output_prepare 0x00030154   Section        0  nrf_crypto_ecc.o(i.nrf_crypto_internal_ecc_key_output_prepare)
    i.nrf_crypto_internal_ecc_raw_input_check 0x0003016e   Section        0  nrf_crypto_ecc.o(i.nrf_crypto_internal_ecc_raw_input_check)
    i.nrf_crypto_internal_ecc_raw_output_prepare 0x00030184   Section        0  nrf_crypto_ecc.o(i.nrf_crypto_internal_ecc_raw_output_prepare)
    i.nrf_crypto_is_initializing             0x000301a0   Section        0  nrf_crypto_init.o(i.nrf_crypto_is_initializing)
    i.nrf_crypto_rng_backend_init            0x000301bc   Section        0  nrf_hw_backend_rng_mbedtls.o(i.nrf_crypto_rng_backend_init)
    i.nrf_crypto_rng_backend_reseed          0x000301f0   Section        0  nrf_hw_backend_rng_mbedtls.o(i.nrf_crypto_rng_backend_reseed)
    i.nrf_crypto_rng_backend_uninit          0x00030204   Section        0  nrf_hw_backend_rng_mbedtls.o(i.nrf_crypto_rng_backend_uninit)
    i.nrf_crypto_rng_backend_vector_generate 0x00030214   Section        0  nrf_hw_backend_rng_mbedtls.o(i.nrf_crypto_rng_backend_vector_generate)
    i.nrf_crypto_rng_init                    0x00030224   Section        0  nrf_crypto_rng.o(i.nrf_crypto_rng_init)
    i.nrf_crypto_rng_reseed                  0x000302d8   Section        0  nrf_crypto_rng.o(i.nrf_crypto_rng_reseed)
    i.nrf_crypto_rng_uninit                  0x00030370   Section        0  nrf_crypto_rng.o(i.nrf_crypto_rng_uninit)
    i.nrf_crypto_rng_vector_generate         0x000303a8   Section        0  nrf_crypto_rng.o(i.nrf_crypto_rng_vector_generate)
    i.nrf_crypto_rng_vector_generate_in_range 0x000303ae   Section        0  nrf_crypto_rng.o(i.nrf_crypto_rng_vector_generate_in_range)
    i.nrf_drv_rng_block_rand                 0x000303ba   Section        0  nrf_drv_rng.o(i.nrf_drv_rng_block_rand)
    i.nrf_drv_rng_init                       0x000303e4   Section        0  nrf_drv_rng.o(i.nrf_drv_rng_init)
    i.nrf_drv_rng_rand                       0x0003043c   Section        0  nrf_drv_rng.o(i.nrf_drv_rng_rand)
    i.nrf_drv_rng_uninit                     0x0003049c   Section        0  nrf_drv_rng.o(i.nrf_drv_rng_uninit)
    i.nrf_drv_uart_init                      0x000304d4   Section        0  nrf_drv_uart.o(i.nrf_drv_uart_init)
    i.nrf_fprintf                            0x0003053c   Section        0  nrf_fprintf.o(i.nrf_fprintf)
    i.nrf_fprintf_buffer_flush               0x00030556   Section        0  nrf_fprintf.o(i.nrf_fprintf_buffer_flush)
    i.nrf_fprintf_fmt                        0x0003056e   Section        0  nrf_fprintf_format.o(i.nrf_fprintf_fmt)
    i.nrf_fstorage_erase                     0x00030748   Section        0  nrf_fstorage.o(i.nrf_fstorage_erase)
    i.nrf_fstorage_init                      0x00030880   Section        0  nrf_fstorage.o(i.nrf_fstorage_init)
    i.nrf_fstorage_sdh_req_handler           0x00030914   Section        0  nrf_fstorage_sd.o(i.nrf_fstorage_sdh_req_handler)
    i.nrf_fstorage_sdh_state_handler         0x0003092c   Section        0  nrf_fstorage_sd.o(i.nrf_fstorage_sdh_state_handler)
    i.nrf_fstorage_sys_evt_handler           0x0003094c   Section        0  nrf_fstorage_sd.o(i.nrf_fstorage_sys_evt_handler)
    i.nrf_fstorage_write                     0x000309f0   Section        0  nrf_fstorage.o(i.nrf_fstorage_write)
    i.nrf_gpio_cfg                           0x00030bcc   Section        0  boards.o(i.nrf_gpio_cfg)
    nrf_gpio_cfg                             0x00030bcd   Thumb Code    36  boards.o(i.nrf_gpio_cfg)
    i.nrf_gpio_cfg                           0x00030bf0   Section        0  nrfx_gpiote.o(i.nrf_gpio_cfg)
    nrf_gpio_cfg                             0x00030bf1   Thumb Code    36  nrfx_gpiote.o(i.nrf_gpio_cfg)
    i.nrf_gpio_cfg                           0x00030c14   Section        0  nrfx_uart.o(i.nrf_gpio_cfg)
    nrf_gpio_cfg                             0x00030c15   Thumb Code    36  nrfx_uart.o(i.nrf_gpio_cfg)
    i.nrf_gpio_cfg                           0x00030c38   Section        0  nrfx_uarte.o(i.nrf_gpio_cfg)
    nrf_gpio_cfg                             0x00030c39   Thumb Code    36  nrfx_uarte.o(i.nrf_gpio_cfg)
    i.nrf_gpio_cfg_default                   0x00030c5c   Section        0  nrfx_uart.o(i.nrf_gpio_cfg_default)
    nrf_gpio_cfg_default                     0x00030c5d   Thumb Code    18  nrfx_uart.o(i.nrf_gpio_cfg_default)
    i.nrf_gpio_cfg_default                   0x00030c6e   Section        0  nrfx_uarte.o(i.nrf_gpio_cfg_default)
    nrf_gpio_cfg_default                     0x00030c6f   Thumb Code    18  nrfx_uarte.o(i.nrf_gpio_cfg_default)
    i.nrf_gpio_cfg_input                     0x00030c80   Section        0  nrfx_uart.o(i.nrf_gpio_cfg_input)
    nrf_gpio_cfg_input                       0x00030c81   Thumb Code    18  nrfx_uart.o(i.nrf_gpio_cfg_input)
    i.nrf_gpio_cfg_input                     0x00030c92   Section        0  nrfx_uarte.o(i.nrf_gpio_cfg_input)
    nrf_gpio_cfg_input                       0x00030c93   Thumb Code    18  nrfx_uarte.o(i.nrf_gpio_cfg_input)
    i.nrf_gpio_cfg_output                    0x00030ca4   Section        0  nrfx_uart.o(i.nrf_gpio_cfg_output)
    nrf_gpio_cfg_output                      0x00030ca5   Thumb Code    20  nrfx_uart.o(i.nrf_gpio_cfg_output)
    i.nrf_gpio_cfg_output                    0x00030cb8   Section        0  nrfx_uarte.o(i.nrf_gpio_cfg_output)
    nrf_gpio_cfg_output                      0x00030cb9   Thumb Code    20  nrfx_uarte.o(i.nrf_gpio_cfg_output)
    i.nrf_gpio_cfg_sense_set                 0x00030ccc   Section        0  nrfx_gpiote.o(i.nrf_gpio_cfg_sense_set)
    nrf_gpio_cfg_sense_set                   0x00030ccd   Thumb Code    34  nrfx_gpiote.o(i.nrf_gpio_cfg_sense_set)
    i.nrf_gpio_latches_read_and_clear        0x00030cf0   Section        0  nrfx_gpiote.o(i.nrf_gpio_latches_read_and_clear)
    nrf_gpio_latches_read_and_clear          0x00030cf1   Thumb Code    38  nrfx_gpiote.o(i.nrf_gpio_latches_read_and_clear)
    i.nrf_gpio_pin_present_check             0x00030d1c   Section        0  nrfx_gpiote.o(i.nrf_gpio_pin_present_check)
    nrf_gpio_pin_present_check               0x00030d1d   Thumb Code    30  nrfx_gpiote.o(i.nrf_gpio_pin_present_check)
    i.nrf_gpio_pin_write                     0x00030d3a   Section        0  boards.o(i.nrf_gpio_pin_write)
    nrf_gpio_pin_write                       0x00030d3b   Thumb Code    22  boards.o(i.nrf_gpio_pin_write)
    i.nrf_gpiote_event_clear                 0x00030d50   Section        0  nrfx_gpiote.o(i.nrf_gpiote_event_clear)
    nrf_gpiote_event_clear                   0x00030d51   Thumb Code    16  nrfx_gpiote.o(i.nrf_gpiote_event_clear)
    i.nrf_gpiote_event_is_set                0x00030d64   Section        0  nrfx_gpiote.o(i.nrf_gpiote_event_is_set)
    nrf_gpiote_event_is_set                  0x00030d65   Thumb Code    12  nrfx_gpiote.o(i.nrf_gpiote_event_is_set)
    i.nrf_hw_backend_init                    0x00030d74   Section        0  nrf_hw_backend_init.o(i.nrf_hw_backend_init)
    nrf_hw_backend_init                      0x00030d75   Thumb Code     8  nrf_hw_backend_init.o(i.nrf_hw_backend_init)
    i.nrf_hw_backend_uninit                  0x00030d7c   Section        0  nrf_hw_backend_init.o(i.nrf_hw_backend_uninit)
    nrf_hw_backend_uninit                    0x00030d7d   Thumb Code     4  nrf_hw_backend_init.o(i.nrf_hw_backend_uninit)
    i.nrf_log_backend_add                    0x00030d80   Section        0  nrf_log_frontend.o(i.nrf_log_backend_add)
    i.nrf_log_backend_serial_put             0x00030ddc   Section        0  nrf_log_backend_serial.o(i.nrf_log_backend_serial_put)
    i.nrf_log_backend_uart_flush             0x00030ea4   Section        0  nrf_log_backend_uart.o(i.nrf_log_backend_uart_flush)
    nrf_log_backend_uart_flush               0x00030ea5   Thumb Code     2  nrf_log_backend_uart.o(i.nrf_log_backend_uart_flush)
    i.nrf_log_backend_uart_init              0x00030ea6   Section        0  nrf_log_backend_uart.o(i.nrf_log_backend_uart_init)
    i.nrf_log_backend_uart_panic_set         0x00030eac   Section        0  nrf_log_backend_uart.o(i.nrf_log_backend_uart_panic_set)
    nrf_log_backend_uart_panic_set           0x00030ead   Thumb Code    36  nrf_log_backend_uart.o(i.nrf_log_backend_uart_panic_set)
    i.nrf_log_backend_uart_put               0x00030ed8   Section        0  nrf_log_backend_uart.o(i.nrf_log_backend_uart_put)
    nrf_log_backend_uart_put                 0x00030ed9   Thumb Code    16  nrf_log_backend_uart.o(i.nrf_log_backend_uart_put)
    i.nrf_log_color_id_get                   0x00030ef0   Section        0  nrf_log_frontend.o(i.nrf_log_color_id_get)
    i.nrf_log_default_backends_init          0x00030f20   Section        0  nrf_log_default_backends.o(i.nrf_log_default_backends_init)
    i.nrf_log_frontend_dequeue               0x00030f3c   Section        0  nrf_log_frontend.o(i.nrf_log_frontend_dequeue)
    i.nrf_log_frontend_std_0                 0x00031174   Section        0  nrf_log_frontend.o(i.nrf_log_frontend_std_0)
    i.nrf_log_frontend_std_1                 0x0003117c   Section        0  nrf_log_frontend.o(i.nrf_log_frontend_std_1)
    i.nrf_log_frontend_std_2                 0x0003118a   Section        0  nrf_log_frontend.o(i.nrf_log_frontend_std_2)
    i.nrf_log_frontend_std_3                 0x0003119a   Section        0  nrf_log_frontend.o(i.nrf_log_frontend_std_3)
    i.nrf_log_frontend_std_4                 0x000311ac   Section        0  nrf_log_frontend.o(i.nrf_log_frontend_std_4)
    i.nrf_log_frontend_std_6                 0x000311c0   Section        0  nrf_log_frontend.o(i.nrf_log_frontend_std_6)
    i.nrf_log_hexdump_entry_process          0x000311dc   Section        0  nrf_log_str_formatter.o(i.nrf_log_hexdump_entry_process)
    i.nrf_log_init                           0x0003128c   Section        0  nrf_log_frontend.o(i.nrf_log_init)
    i.nrf_log_module_cnt_get                 0x000312b4   Section        0  nrf_log_frontend.o(i.nrf_log_module_cnt_get)
    i.nrf_log_module_name_get                0x000312c8   Section        0  nrf_log_frontend.o(i.nrf_log_module_name_get)
    i.nrf_log_panic                          0x000312e4   Section        0  nrf_log_frontend.o(i.nrf_log_panic)
    i.nrf_log_push                           0x0003130c   Section        0  nrf_log_frontend.o(i.nrf_log_push)
    i.nrf_log_std_entry_process              0x0003136c   Section        0  nrf_log_str_formatter.o(i.nrf_log_std_entry_process)
    i.nrf_memobj_alloc                       0x00031422   Section        0  nrf_memobj.o(i.nrf_memobj_alloc)
    i.nrf_memobj_free                        0x00031482   Section        0  nrf_memobj.o(i.nrf_memobj_free)
    i.nrf_memobj_get                         0x000314b4   Section        0  nrf_memobj.o(i.nrf_memobj_get)
    i.nrf_memobj_pool_init                   0x000314bc   Section        0  nrf_memobj.o(i.nrf_memobj_pool_init)
    i.nrf_memobj_put                         0x000314c0   Section        0  nrf_memobj.o(i.nrf_memobj_put)
    i.nrf_memobj_read                        0x000314de   Section        0  nrf_memobj.o(i.nrf_memobj_read)
    i.nrf_memobj_write                       0x000314ee   Section        0  nrf_memobj.o(i.nrf_memobj_write)
    i.nrf_pwr_mgmt_init                      0x00031500   Section        0  nrf_pwr_mgmt.o(i.nrf_pwr_mgmt_init)
    i.nrf_pwr_mgmt_run                       0x00031528   Section        0  nrf_pwr_mgmt.o(i.nrf_pwr_mgmt_run)
    i.nrf_queue_generic_pop                  0x0003156c   Section        0  nrf_queue.o(i.nrf_queue_generic_pop)
    i.nrf_queue_is_empty                     0x000315fa   Section        0  nrf_queue.o(i.nrf_queue_is_empty)
    i.nrf_queue_is_full                      0x0003160c   Section        0  nrf_queue.o(i.nrf_queue_is_full)
    i.nrf_queue_next_idx                     0x0003162a   Section        0  nrf_queue.o(i.nrf_queue_next_idx)
    nrf_queue_next_idx                       0x0003162b   Thumb Code    14  nrf_queue.o(i.nrf_queue_next_idx)
    i.nrf_queue_push                         0x00031638   Section        0  nrf_queue.o(i.nrf_queue_push)
    i.nrf_queue_read                         0x000316ea   Section        0  nrf_queue.o(i.nrf_queue_read)
    i.nrf_queue_reset                        0x00031728   Section        0  nrf_queue.o(i.nrf_queue_reset)
    i.nrf_qwr_error_handler                  0x0003174a   Section        0  main.o(i.nrf_qwr_error_handler)
    nrf_qwr_error_handler                    0x0003174b   Thumb Code     4  main.o(i.nrf_qwr_error_handler)
    i.nrf_ringbuf_alloc                      0x0003174e   Section        0  nrf_ringbuf.o(i.nrf_ringbuf_alloc)
    i.nrf_ringbuf_free                       0x000317be   Section        0  nrf_ringbuf.o(i.nrf_ringbuf_free)
    i.nrf_ringbuf_init                       0x000317e4   Section        0  nrf_ringbuf.o(i.nrf_ringbuf_init)
    i.nrf_ringbuf_put                        0x00031800   Section        0  nrf_ringbuf.o(i.nrf_ringbuf_put)
    i.nrf_rtc_event_clear                    0x00031830   Section        0  drv_rtc.o(i.nrf_rtc_event_clear)
    nrf_rtc_event_clear                      0x00031831   Thumb Code    12  drv_rtc.o(i.nrf_rtc_event_clear)
    i.nrf_sdh_ble_app_ram_start_get          0x0003183c   Section        0  nrf_sdh_ble.o(i.nrf_sdh_ble_app_ram_start_get)
    i.nrf_sdh_ble_default_cfg_set            0x00031850   Section        0  nrf_sdh_ble.o(i.nrf_sdh_ble_default_cfg_set)
    i.nrf_sdh_ble_enable                     0x00031950   Section        0  nrf_sdh_ble.o(i.nrf_sdh_ble_enable)
    i.nrf_sdh_ble_evts_poll                  0x00031a80   Section        0  nrf_sdh_ble.o(i.nrf_sdh_ble_evts_poll)
    nrf_sdh_ble_evts_poll                    0x00031a81   Thumb Code    82  nrf_sdh_ble.o(i.nrf_sdh_ble_evts_poll)
    i.nrf_sdh_disable_request                0x00031adc   Section        0  nrf_sdh.o(i.nrf_sdh_disable_request)
    i.nrf_sdh_enable_request                 0x00031b30   Section        0  nrf_sdh.o(i.nrf_sdh_enable_request)
    i.nrf_sdh_evts_poll                      0x00031ba4   Section        0  nrf_sdh.o(i.nrf_sdh_evts_poll)
    i.nrf_sdh_is_enabled                     0x00031bc8   Section        0  nrf_sdh.o(i.nrf_sdh_is_enabled)
    i.nrf_sdh_request_continue               0x00031bd4   Section        0  nrf_sdh.o(i.nrf_sdh_request_continue)
    i.nrf_sdh_soc_evts_poll                  0x00031bf0   Section        0  nrf_sdh_soc.o(i.nrf_sdh_soc_evts_poll)
    nrf_sdh_soc_evts_poll                    0x00031bf1   Thumb Code    56  nrf_sdh_soc.o(i.nrf_sdh_soc_evts_poll)
    i.nrf_section_iter_init                  0x00031c2c   Section        0  nrf_section_iter.o(i.nrf_section_iter_init)
    i.nrf_section_iter_item_set              0x00031c36   Section        0  nrf_section_iter.o(i.nrf_section_iter_item_set)
    nrf_section_iter_item_set                0x00031c37   Thumb Code    36  nrf_section_iter.o(i.nrf_section_iter_item_set)
    i.nrf_section_iter_next                  0x00031c5a   Section        0  nrf_section_iter.o(i.nrf_section_iter_next)
    i.nrf_sortlist_add                       0x00031c7a   Section        0  nrf_sortlist.o(i.nrf_sortlist_add)
    i.nrf_sortlist_peek                      0x00031c9c   Section        0  nrf_sortlist.o(i.nrf_sortlist_peek)
    i.nrf_sortlist_pop                       0x00031ca2   Section        0  nrf_sortlist.o(i.nrf_sortlist_pop)
    i.nrf_sortlist_remove                    0x00031cb0   Section        0  nrf_sortlist.o(i.nrf_sortlist_remove)
    i.nrf_stack_info_overflowed              0x00031cd0   Section        0  nrf_crypto_rng.o(i.nrf_stack_info_overflowed)
    nrf_stack_info_overflowed                0x00031cd1   Thumb Code    16  nrf_crypto_rng.o(i.nrf_stack_info_overflowed)
    i.nrf_strerror_find                      0x00031ce4   Section        0  nrf_strerror.o(i.nrf_strerror_find)
    i.nrf_strerror_get                       0x00031d1c   Section        0  nrf_strerror.o(i.nrf_strerror_get)
    i.nrf_uart_event_check                   0x00031d30   Section        0  nrfx_uart.o(i.nrf_uart_event_check)
    nrf_uart_event_check                     0x00031d31   Thumb Code    10  nrfx_uart.o(i.nrf_uart_event_check)
    i.nrf_uart_event_clear                   0x00031d3a   Section        0  nrfx_uart.o(i.nrf_uart_event_clear)
    nrf_uart_event_clear                     0x00031d3b   Thumb Code    12  nrfx_uart.o(i.nrf_uart_event_clear)
    i.nrf_uart_int_enable_check              0x00031d46   Section        0  nrfx_uart.o(i.nrf_uart_int_enable_check)
    nrf_uart_int_enable_check                0x00031d47   Thumb Code    12  nrfx_uart.o(i.nrf_uart_int_enable_check)
    i.nrf_uarte_event_check                  0x00031d52   Section        0  nrfx_uarte.o(i.nrf_uarte_event_check)
    nrf_uarte_event_check                    0x00031d53   Thumb Code    10  nrfx_uarte.o(i.nrf_uarte_event_check)
    i.nrf_uarte_event_clear                  0x00031d5c   Section        0  nrfx_uarte.o(i.nrf_uarte_event_clear)
    nrf_uarte_event_clear                    0x00031d5d   Thumb Code    12  nrfx_uarte.o(i.nrf_uarte_event_clear)
    i.nrfx_coredep_delay_us                  0x00031d68   Section        0  drv_rtc.o(i.nrfx_coredep_delay_us)
    nrfx_coredep_delay_us                    0x00031d69   Thumb Code    12  drv_rtc.o(i.nrfx_coredep_delay_us)
    i.nrfx_gpiote_in_event_enable            0x00031d78   Section        0  nrfx_gpiote.o(i.nrfx_gpiote_in_event_enable)
    i.nrfx_gpiote_in_init                    0x00031e18   Section        0  nrfx_gpiote.o(i.nrfx_gpiote_in_init)
    i.nrfx_gpiote_in_is_set                  0x00031ee4   Section        0  nrfx_gpiote.o(i.nrfx_gpiote_in_is_set)
    i.nrfx_gpiote_init                       0x00031ef8   Section        0  nrfx_gpiote.o(i.nrfx_gpiote_init)
    i.nrfx_gpiote_is_init                    0x00031f6c   Section        0  nrfx_gpiote.o(i.nrfx_gpiote_is_init)
    i.nrfx_is_in_ram                         0x00031f80   Section        0  nrfx_uarte.o(i.nrfx_is_in_ram)
    nrfx_is_in_ram                           0x00031f81   Thumb Code    16  nrfx_uarte.o(i.nrfx_is_in_ram)
    i.nrfx_prs_acquire                       0x00031f90   Section        0  nrfx_prs.o(i.nrfx_prs_acquire)
    i.nrfx_prs_release                       0x00031fca   Section        0  nrfx_prs.o(i.nrfx_prs_release)
    i.nrfx_rng_handler                       0x00031fdc   Section        0  nrf_drv_rng.o(i.nrfx_rng_handler)
    nrfx_rng_handler                         0x00031fdd   Thumb Code    52  nrf_drv_rng.o(i.nrfx_rng_handler)
    i.nrfx_rng_init                          0x00032014   Section        0  nrfx_rng.o(i.nrfx_rng_init)
    i.nrfx_rng_start                         0x0003206c   Section        0  nrfx_rng.o(i.nrfx_rng_start)
    i.nrfx_rng_stop                          0x0003208c   Section        0  nrfx_rng.o(i.nrfx_rng_stop)
    i.nrfx_rng_uninit                        0x000320a0   Section        0  nrfx_rng.o(i.nrfx_rng_uninit)
    i.nrfx_uart_0_irq_handler                0x000320d0   Section        0  nrfx_uart.o(i.nrfx_uart_0_irq_handler)
    i.nrfx_uart_init                         0x000320e0   Section        0  nrfx_uart.o(i.nrfx_uart_init)
    i.nrfx_uart_tx                           0x000321b4   Section        0  nrfx_uart.o(i.nrfx_uart_tx)
    i.nrfx_uart_tx_in_progress               0x0003225c   Section        0  nrfx_uart.o(i.nrfx_uart_tx_in_progress)
    i.nrfx_uart_uninit                       0x0003227c   Section        0  nrfx_uart.o(i.nrfx_uart_uninit)
    i.nrfx_uarte_0_irq_handler               0x0003233c   Section        0  nrfx_uarte.o(i.nrfx_uarte_0_irq_handler)
    i.nrfx_uarte_init                        0x0003234c   Section        0  nrfx_uarte.o(i.nrfx_uarte_init)
    i.nrfx_uarte_tx                          0x000323b8   Section        0  nrfx_uarte.o(i.nrfx_uarte_tx)
    i.nrfx_uarte_tx_in_progress              0x00032464   Section        0  nrfx_uarte.o(i.nrfx_uarte_tx_in_progress)
    i.nrfx_uarte_uninit                      0x00032480   Section        0  nrfx_uarte.o(i.nrfx_uarte_uninit)
    i.num_comp_reply                         0x00032588   Section        0  main.o(i.num_comp_reply)
    num_comp_reply                           0x00032589   Thumb Code    60  main.o(i.num_comp_reply)
    i.nvmc_config                            0x0003260c   Section        0  system_nrf52.o(i.nvmc_config)
    i.oberon_vector_generate                 0x00032624   Section        0  oberon_backend_ecc.o(i.oberon_vector_generate)
    oberon_vector_generate                   0x00032625   Thumb Code     4  oberon_backend_ecc.o(i.oberon_vector_generate)
    i.on_adv_evt                             0x00032628   Section        0  main.o(i.on_adv_evt)
    on_adv_evt                               0x00032629   Thumb Code    46  main.o(i.on_adv_evt)
    i.on_ble_central_evt                     0x0003265c   Section        0  main.o(i.on_ble_central_evt)
    on_ble_central_evt                       0x0003265d   Thumb Code   212  main.o(i.on_ble_central_evt)
    i.on_ble_evt                             0x000327c4   Section        0  main.o(i.on_ble_evt)
    on_ble_evt                               0x000327c5   Thumb Code   366  main.o(i.on_ble_evt)
    i.on_ble_peripheral_evt                  0x00032a28   Section        0  main.o(i.on_ble_peripheral_evt)
    on_ble_peripheral_evt                    0x00032a29   Thumb Code   104  main.o(i.on_ble_peripheral_evt)
    i.on_characteristic_discovery_rsp        0x00032af0   Section        0  ble_db_discovery.o(i.on_characteristic_discovery_rsp)
    on_characteristic_discovery_rsp          0x00032af1   Thumb Code   294  ble_db_discovery.o(i.on_characteristic_discovery_rsp)
    i.on_connected_evt                       0x00032c28   Section        0  nrf_ble_gatt.o(i.on_connected_evt)
    on_connected_evt                         0x00032c29   Thumb Code   106  nrf_ble_gatt.o(i.on_connected_evt)
    i.on_descriptor_discovery_rsp            0x00032cd0   Section        0  ble_db_discovery.o(i.on_descriptor_discovery_rsp)
    on_descriptor_discovery_rsp              0x00032cd1   Thumb Code   218  ble_db_discovery.o(i.on_descriptor_discovery_rsp)
    i.on_dhkey_request                       0x00032dac   Section        0  nrf_ble_lesc.o(i.on_dhkey_request)
    on_dhkey_request                         0x00032dad   Thumb Code   124  nrf_ble_lesc.o(i.on_dhkey_request)
    i.on_exchange_mtu_request_evt            0x00032eac   Section        0  nrf_ble_gatt.o(i.on_exchange_mtu_request_evt)
    on_exchange_mtu_request_evt              0x00032ead   Thumb Code   110  nrf_ble_gatt.o(i.on_exchange_mtu_request_evt)
    i.on_hvx                                 0x00032f58   Section        0  ble_hrs_c.o(i.on_hvx)
    on_hvx                                   0x00032f59   Thumb Code   114  ble_hrs_c.o(i.on_hvx)
    i.on_num_comp_button_press               0x00032fcc   Section        0  main.o(i.on_num_comp_button_press)
    on_num_comp_button_press                 0x00032fcd   Thumb Code    44  main.o(i.on_num_comp_button_press)
    i.on_primary_srv_discovery_rsp           0x00032ffc   Section        0  ble_db_discovery.o(i.on_primary_srv_discovery_rsp)
    on_primary_srv_discovery_rsp             0x00032ffd   Thumb Code   148  ble_db_discovery.o(i.on_primary_srv_discovery_rsp)
    i.on_srv_disc_completion                 0x000330bc   Section        0  ble_db_discovery.o(i.on_srv_disc_completion)
    on_srv_disc_completion                   0x000330bd   Thumb Code   142  ble_db_discovery.o(i.on_srv_disc_completion)
    i.page_identify                          0x00033158   Section        0  fds.o(i.page_identify)
    page_identify                            0x00033159   Thumb Code    26  fds.o(i.page_identify)
    i.page_offsets_update                    0x0003317c   Section        0  fds.o(i.page_offsets_update)
    page_offsets_update                      0x0003317d   Thumb Code    28  fds.o(i.page_offsets_update)
    i.page_scan                              0x00033198   Section        0  fds.o(i.page_scan)
    page_scan                                0x00033199   Thumb Code   104  fds.o(i.page_scan)
    i.page_tag_write_data                    0x00033204   Section        0  fds.o(i.page_tag_write_data)
    page_tag_write_data                      0x00033205   Thumb Code    20  fds.o(i.page_tag_write_data)
    i.page_tag_write_swap                    0x00033220   Section        0  fds.o(i.page_tag_write_swap)
    page_tag_write_swap                      0x00033221   Thumb Code    22  fds.o(i.page_tag_write_swap)
    i.pages_init                             0x00033244   Section        0  fds.o(i.pages_init)
    pages_init                               0x00033245   Thumb Code   286  fds.o(i.pages_init)
    i.pairing                                0x00033374   Section        0  security_dispatcher.o(i.pairing)
    pairing                                  0x00033375   Thumb Code     8  security_dispatcher.o(i.pairing)
    i.pairing_failure                        0x00033380   Section        0  security_dispatcher.o(i.pairing_failure)
    pairing_failure                          0x00033381   Thumb Code    98  security_dispatcher.o(i.pairing_failure)
    i.pairing_success_evt_send               0x000333f4   Section        0  security_dispatcher.o(i.pairing_success_evt_send)
    pairing_success_evt_send                 0x000333f5   Thumb Code    46  security_dispatcher.o(i.pairing_success_evt_send)
    i.params_reply_pending_handle            0x00033422   Section        0  security_manager.o(i.params_reply_pending_handle)
    params_reply_pending_handle              0x00033423   Thumb Code     6  security_manager.o(i.params_reply_pending_handle)
    i.params_req_send                        0x00033428   Section        0  security_manager.o(i.params_req_send)
    params_req_send                          0x00033429   Thumb Code    32  security_manager.o(i.params_req_send)
    i.pdb_evt_send                           0x00033448   Section        0  peer_database.o(i.pdb_evt_send)
    pdb_evt_send                             0x00033449   Thumb Code    24  peer_database.o(i.pdb_evt_send)
    i.pdb_init                               0x00033464   Section        0  peer_database.o(i.pdb_init)
    i.pdb_pds_evt_handler                    0x000334f4   Section        0  peer_database.o(i.pdb_pds_evt_handler)
    i.pdb_peer_data_ptr_get                  0x00033570   Section        0  peer_database.o(i.pdb_peer_data_ptr_get)
    i.pdb_peer_free                          0x00033578   Section        0  peer_database.o(i.pdb_peer_free)
    i.pdb_write_buf_get                      0x00033604   Section        0  peer_database.o(i.pdb_write_buf_get)
    i.pdb_write_buf_release                  0x000336e0   Section        0  peer_database.o(i.pdb_write_buf_release)
    i.pdb_write_buf_store                    0x000336f4   Section        0  peer_database.o(i.pdb_write_buf_store)
    i.pds_evt_send                           0x0003372c   Section        0  peer_data_storage.o(i.pds_evt_send)
    pds_evt_send                             0x0003372d   Thumb Code    12  peer_data_storage.o(i.pds_evt_send)
    i.pds_init                               0x0003373c   Section        0  peer_data_storage.o(i.pds_init)
    i.pds_next_deleted_peer_id_get           0x00033818   Section        0  peer_data_storage.o(i.pds_next_deleted_peer_id_get)
    i.pds_next_peer_id_get                   0x0003381c   Section        0  peer_data_storage.o(i.pds_next_peer_id_get)
    i.pds_peer_data_iterate                  0x00033820   Section        0  peer_data_storage.o(i.pds_peer_data_iterate)
    i.pds_peer_data_iterate_prepare          0x00033878   Section        0  peer_data_storage.o(i.pds_peer_data_iterate_prepare)
    i.pds_peer_data_read                     0x00033888   Section        0  peer_data_storage.o(i.pds_peer_data_read)
    i.pds_peer_data_store                    0x000338fc   Section        0  peer_data_storage.o(i.pds_peer_data_store)
    i.pds_peer_id_allocate                   0x000339b0   Section        0  peer_data_storage.o(i.pds_peer_id_allocate)
    i.pds_peer_id_free                       0x000339b8   Section        0  peer_data_storage.o(i.pds_peer_id_free)
    i.pds_peer_id_is_allocated               0x000339ce   Section        0  peer_data_storage.o(i.pds_peer_id_is_allocated)
    i.peer_data_delete_process               0x000339d4   Section        0  peer_data_storage.o(i.peer_data_delete_process)
    peer_data_delete_process                 0x000339d5   Thumb Code   146  peer_data_storage.o(i.peer_data_delete_process)
    i.peer_data_find                         0x00033a7c   Section        0  peer_data_storage.o(i.peer_data_find)
    peer_data_find                           0x00033a7d   Thumb Code    48  peer_data_storage.o(i.peer_data_find)
    i.peer_data_id_is_valid                  0x00033aac   Section        0  peer_data_storage.o(i.peer_data_id_is_valid)
    peer_data_id_is_valid                    0x00033aad   Thumb Code    36  peer_data_storage.o(i.peer_data_id_is_valid)
    i.peer_data_point_to_buffer              0x00033ad0   Section        0  peer_database.o(i.peer_data_point_to_buffer)
    peer_data_point_to_buffer                0x00033ad1   Thumb Code    26  peer_database.o(i.peer_data_point_to_buffer)
    i.peer_id_allocate                       0x00033aec   Section        0  peer_id.o(i.peer_id_allocate)
    i.peer_id_delete                         0x00033af8   Section        0  peer_id.o(i.peer_id_delete)
    i.peer_id_free                           0x00033b1c   Section        0  peer_id.o(i.peer_id_free)
    i.peer_id_get_next_deleted               0x00033b38   Section        0  peer_id.o(i.peer_id_get_next_deleted)
    i.peer_id_get_next_used                  0x00033b44   Section        0  peer_id.o(i.peer_id_get_next_used)
    i.peer_id_init                           0x00033b74   Section        0  peer_id.o(i.peer_id_init)
    i.peer_id_is_allocated                   0x00033b80   Section        0  peer_id.o(i.peer_id_is_allocated)
    i.peer_id_is_deleted                     0x00033b94   Section        0  peer_id.o(i.peer_id_is_deleted)
    i.peer_manager_init                      0x00033ba8   Section        0  main.o(i.peer_manager_init)
    peer_manager_init                        0x00033ba9   Thumb Code   104  main.o(i.peer_manager_init)
    i.phy_is_valid                           0x00033c14   Section        0  ble_advertising.o(i.phy_is_valid)
    phy_is_valid                             0x00033c15   Thumb Code    18  ble_advertising.o(i.phy_is_valid)
    i.pin_configured_set                     0x00033c28   Section        0  nrfx_gpiote.o(i.pin_configured_set)
    pin_configured_set                       0x00033c29   Thumb Code    22  nrfx_gpiote.o(i.pin_configured_set)
    i.pin_in_use_by_port                     0x00033c44   Section        0  nrfx_gpiote.o(i.pin_in_use_by_port)
    pin_in_use_by_port                       0x00033c45   Thumb Code    20  nrfx_gpiote.o(i.pin_in_use_by_port)
    i.pin_in_use_by_te                       0x00033c5c   Section        0  nrfx_gpiote.o(i.pin_in_use_by_te)
    pin_in_use_by_te                         0x00033c5d   Thumb Code    20  nrfx_gpiote.o(i.pin_in_use_by_te)
    i.pm_buffer_block_acquire                0x00033c74   Section        0  pm_buffer.o(i.pm_buffer_block_acquire)
    i.pm_buffer_init                         0x00033cd8   Section        0  pm_buffer.o(i.pm_buffer_init)
    i.pm_buffer_ptr_get                      0x00033cfc   Section        0  pm_buffer.o(i.pm_buffer_ptr_get)
    i.pm_buffer_release                      0x00033d24   Section        0  pm_buffer.o(i.pm_buffer_release)
    i.pm_conn_sec_status_get                 0x00033d58   Section        0  peer_manager.o(i.pm_conn_sec_status_get)
    i.pm_conn_secure                         0x00033d6c   Section        0  peer_manager.o(i.pm_conn_secure)
    i.pm_evt_handler                         0x00033d88   Section        0  main.o(i.pm_evt_handler)
    pm_evt_handler                           0x00033d89   Thumb Code    36  main.o(i.pm_evt_handler)
    i.pm_gcm_evt_handler                     0x00033dac   Section        0  peer_manager.o(i.pm_gcm_evt_handler)
    i.pm_gscm_evt_handler                    0x00033db0   Section        0  peer_manager.o(i.pm_gscm_evt_handler)
    i.pm_handler_disconnect_on_sec_failure   0x00033db4   Section        0  peer_manager_handler.o(i.pm_handler_disconnect_on_sec_failure)
    i.pm_handler_flash_clean                 0x00033e1c   Section        0  peer_manager_handler.o(i.pm_handler_flash_clean)
    i.pm_handler_flash_clean_on_return       0x00034060   Section        0  peer_manager_handler.o(i.pm_handler_flash_clean_on_return)
    i.pm_handler_on_pm_evt                   0x0003407c   Section        0  peer_manager_handler.o(i.pm_handler_on_pm_evt)
    i.pm_handler_pm_evt_log                  0x000340d0   Section        0  peer_manager_handler.o(i.pm_handler_pm_evt_log)
    i.pm_handler_secure_on_connection        0x000343e0   Section        0  peer_manager_handler.o(i.pm_handler_secure_on_connection)
    i.pm_im_evt_handler                      0x000343f0   Section        0  peer_manager.o(i.pm_im_evt_handler)
    i.pm_init                                0x000343f4   Section        0  peer_manager.o(i.pm_init)
    i.pm_pdb_evt_handler                     0x000345b0   Section        0  peer_manager.o(i.pm_pdb_evt_handler)
    i.pm_peer_delete                         0x000346c8   Section        0  peer_manager.o(i.pm_peer_delete)
    i.pm_peer_rank_highest                   0x000346dc   Section        0  peer_manager.o(i.pm_peer_rank_highest)
    i.pm_peer_ranks_get                      0x000347f8   Section        0  peer_manager.o(i.pm_peer_ranks_get)
    i.pm_peers_delete                        0x000348e0   Section        0  peer_manager.o(i.pm_peers_delete)
    i.pm_register                            0x00034974   Section        0  peer_manager.o(i.pm_register)
    i.pm_sec_params_set                      0x000349a0   Section        0  peer_manager.o(i.pm_sec_params_set)
    i.pm_sm_evt_handler                      0x000349b4   Section        0  peer_manager.o(i.pm_sm_evt_handler)
    i.port_event_handle                      0x000349c0   Section        0  nrfx_gpiote.o(i.port_event_handle)
    port_event_handle                        0x000349c1   Thumb Code   176  nrfx_gpiote.o(i.port_event_handle)
    i.port_handler_polarity_get              0x00034a74   Section        0  nrfx_gpiote.o(i.port_handler_polarity_get)
    port_handler_polarity_get                0x00034a75   Thumb Code    12  nrfx_gpiote.o(i.port_handler_polarity_get)
    i.postfix_process                        0x00034a84   Section        0  nrf_log_str_formatter.o(i.postfix_process)
    postfix_process                          0x00034a85   Thumb Code    48  nrf_log_str_formatter.o(i.postfix_process)
    i.prefix_process                         0x00034ac0   Section        0  nrf_log_str_formatter.o(i.prefix_process)
    prefix_process                           0x00034ac1   Thumb Code    90  nrf_log_str_formatter.o(i.prefix_process)
    i.prs_box_get                            0x00034b58   Section        0  nrfx_prs.o(i.prs_box_get)
    prs_box_get                              0x00034b59   Thumb Code    14  nrfx_prs.o(i.prs_box_get)
    i.queue_buf_get                          0x00034b70   Section        0  fds.o(i.queue_buf_get)
    queue_buf_get                            0x00034b71   Thumb Code    24  fds.o(i.queue_buf_get)
    i.queue_buf_store                        0x00034b8c   Section        0  fds.o(i.queue_buf_store)
    queue_buf_store                          0x00034b8d   Thumb Code    10  fds.o(i.queue_buf_store)
    i.queue_free                             0x00034b9c   Section        0  nrf_fstorage_sd.o(i.queue_free)
    queue_free                               0x00034b9d   Thumb Code    10  nrf_fstorage_sd.o(i.queue_free)
    i.queue_process                          0x00034bb0   Section        0  nrf_ble_gq.o(i.queue_process)
    queue_process                            0x00034bb1   Thumb Code   240  nrf_ble_gq.o(i.queue_process)
    i.queue_process                          0x00034cc8   Section        0  fds.o(i.queue_process)
    queue_process                            0x00034cc9   Thumb Code   154  fds.o(i.queue_process)
    i.queue_process                          0x00034d6c   Section        0  nrf_fstorage_sd.o(i.queue_process)
    queue_process                            0x00034d6d   Thumb Code   148  nrf_fstorage_sd.o(i.queue_process)
    i.queue_read                             0x00034e0c   Section        0  nrf_queue.o(i.queue_read)
    queue_read                               0x00034e0d   Thumb Code   100  nrf_queue.o(i.queue_read)
    i.queue_start                            0x00034e70   Section        0  fds.o(i.queue_start)
    queue_start                              0x00034e71   Thumb Code    24  fds.o(i.queue_start)
    i.queue_start                            0x00034e8c   Section        0  nrf_fstorage_sd.o(i.queue_start)
    queue_start                              0x00034e8d   Thumb Code    30  nrf_fstorage_sd.o(i.queue_start)
    i.queue_utilization_get                  0x00034eb0   Section        0  nrf_queue.o(i.queue_utilization_get)
    queue_utilization_get                    0x00034eb1   Thumb Code    24  nrf_queue.o(i.queue_utilization_get)
    i.queues_purge                           0x00034ec8   Section        0  nrf_ble_gq.o(i.queues_purge)
    queues_purge                             0x00034ec9   Thumb Code    84  nrf_ble_gq.o(i.queues_purge)
    i.rank_highest                           0x00034f20   Section        0  peer_manager_handler.o(i.rank_highest)
    rank_highest                             0x00034f21   Thumb Code    28  peer_manager_handler.o(i.rank_highest)
    i.rank_vars_update                       0x00034f3c   Section        0  peer_manager.o(i.rank_vars_update)
    rank_vars_update                         0x00034f3d   Thumb Code    46  peer_manager.o(i.rank_vars_update)
    i.read                                   0x00034f70   Section        0  nrf_fstorage_sd.o(i.read)
    read                                     0x00034f71   Thumb Code    14  nrf_fstorage_sd.o(i.read)
    i.reattempt_previous_operations          0x00034f80   Section        0  peer_database.o(i.reattempt_previous_operations)
    reattempt_previous_operations            0x00034f81   Thumb Code   148  peer_database.o(i.reattempt_previous_operations)
    i.record_find                            0x00035028   Section        0  fds.o(i.record_find)
    record_find                              0x00035029   Thumb Code   134  fds.o(i.record_find)
    i.record_find_by_desc                    0x000350b8   Section        0  fds.o(i.record_find_by_desc)
    record_find_by_desc                      0x000350b9   Thumb Code   152  fds.o(i.record_find_by_desc)
    i.record_find_next                       0x00035158   Section        0  fds.o(i.record_find_next)
    record_find_next                         0x00035159   Thumb Code    88  fds.o(i.record_find_next)
    i.record_header_flag_dirty               0x000351b4   Section        0  fds.o(i.record_header_flag_dirty)
    record_header_flag_dirty                 0x000351b5   Thumb Code    46  fds.o(i.record_header_flag_dirty)
    i.records_stat                           0x000351f0   Section        0  fds.o(i.records_stat)
    records_stat                             0x000351f1   Thumb Code   132  fds.o(i.records_stat)
    i.registered_handler_get                 0x00035278   Section        0  ble_db_discovery.o(i.registered_handler_get)
    registered_handler_get                   0x00035279   Thumb Code    48  ble_db_discovery.o(i.registered_handler_get)
    i.release                                0x000352b0   Section        0  peer_id.o(i.release)
    release                                  0x000352b1   Thumb Code    16  peer_id.o(i.release)
    i.request_err_code_handle                0x000352c0   Section        0  nrf_ble_gq.o(i.request_err_code_handle)
    request_err_code_handle                  0x000352c1   Thumb Code    58  nrf_ble_gq.o(i.request_err_code_handle)
    i.request_process                        0x00035308   Section        0  nrf_ble_gq.o(i.request_process)
    request_process                          0x00035309   Thumb Code   142  nrf_ble_gq.o(i.request_process)
    i.result_get                             0x000353bc   Section        0  nrf_hw_backend_rng_mbedtls.o(i.result_get)
    result_get                               0x000353bd   Thumb Code    34  nrf_hw_backend_rng_mbedtls.o(i.result_get)
    i.rmap                                   0x000353de   Section        0  nrf_fstorage_sd.o(i.rmap)
    rmap                                     0x000353df   Thumb Code     4  nrf_fstorage_sd.o(i.rmap)
    i.rtc_irq                                0x000353e4   Section        0  app_timer2.o(i.rtc_irq)
    rtc_irq                                  0x000353e5   Thumb Code    88  app_timer2.o(i.rtc_irq)
    i.rtc_schedule                           0x00035440   Section        0  app_timer2.o(i.rtc_schedule)
    rtc_schedule                             0x00035441   Thumb Code    92  app_timer2.o(i.rtc_schedule)
    i.rtc_update                             0x000354a4   Section        0  app_timer2.o(i.rtc_update)
    rtc_update                               0x000354a5   Thumb Code   108  app_timer2.o(i.rtc_update)
    i.rx_byte                                0x00035518   Section        0  nrfx_uart.o(i.rx_byte)
    rx_byte                                  0x00035519   Thumb Code    50  nrfx_uart.o(i.rx_byte)
    i.rx_done_event                          0x0003554a   Section        0  nrfx_uart.o(i.rx_done_event)
    rx_done_event                            0x0003554b   Thumb Code    22  nrfx_uart.o(i.rx_done_event)
    i.rx_done_event                          0x00035560   Section        0  nrfx_uarte.o(i.rx_done_event)
    rx_done_event                            0x00035561   Thumb Code    22  nrfx_uarte.o(i.rx_done_event)
    i.sc_send_pending_handle                 0x00035578   Section        0  gatt_cache_manager.o(i.sc_send_pending_handle)
    sc_send_pending_handle                   0x00035579   Thumb Code    30  gatt_cache_manager.o(i.sc_send_pending_handle)
    i.scan_evt_handler                       0x0003559c   Section        0  main.o(i.scan_evt_handler)
    scan_evt_handler                         0x0003559d   Thumb Code    18  main.o(i.scan_evt_handler)
    i.scan_init                              0x000355b0   Section        0  main.o(i.scan_init)
    scan_init                                0x000355b1   Thumb Code   108  main.o(i.scan_init)
    i.scan_start                             0x00035628   Section        0  main.o(i.scan_start)
    scan_start                               0x00035629   Thumb Code    38  main.o(i.scan_start)
    i.sd_state_evt_handler                   0x00035668   Section        0  nrf_drv_rng.o(i.sd_state_evt_handler)
    sd_state_evt_handler                     0x00035669   Thumb Code    70  nrf_drv_rng.o(i.sd_state_evt_handler)
    i.sdh_request_observer_notify            0x000356b8   Section        0  nrf_sdh.o(i.sdh_request_observer_notify)
    sdh_request_observer_notify              0x000356b9   Thumb Code    44  nrf_sdh.o(i.sdh_request_observer_notify)
    i.sdh_state_observer_notify              0x000356e8   Section        0  nrf_sdh.o(i.sdh_state_observer_notify)
    sdh_state_observer_notify                0x000356e9   Thumb Code    38  nrf_sdh.o(i.sdh_state_observer_notify)
    i.sec_info_request_process               0x00035714   Section        0  security_dispatcher.o(i.sec_info_request_process)
    sec_info_request_process                 0x00035715   Thumb Code   198  security_dispatcher.o(i.sec_info_request_process)
    i.sec_keyset_fill                        0x000357ec   Section        0  security_dispatcher.o(i.sec_keyset_fill)
    sec_keyset_fill                          0x000357ed   Thumb Code   168  security_dispatcher.o(i.sec_keyset_fill)
    i.sec_params_verify                      0x000358e0   Section        0  security_manager.o(i.sec_params_verify)
    sec_params_verify                        0x000358e1   Thumb Code   118  security_manager.o(i.sec_params_verify)
    i.sec_proc_start                         0x00035958   Section        0  security_dispatcher.o(i.sec_proc_start)
    sec_proc_start                           0x00035959   Thumb Code    86  security_dispatcher.o(i.sec_proc_start)
    i.sec_procedure                          0x000359b8   Section        0  security_dispatcher.o(i.sec_procedure)
    sec_procedure                            0x000359b9   Thumb Code     8  security_dispatcher.o(i.sec_procedure)
    i.sec_req_process                        0x000359c4   Section        0  security_manager.o(i.sec_req_process)
    sec_req_process                          0x000359c5   Thumb Code    86  security_manager.o(i.sec_req_process)
    i.send_config_req                        0x00035a20   Section        0  security_dispatcher.o(i.send_config_req)
    send_config_req                          0x00035a21   Thumb Code    34  security_dispatcher.o(i.send_config_req)
    i.send_error_evt                         0x00035a44   Section        0  ble_conn_params.o(i.send_error_evt)
    send_error_evt                           0x00035a45   Thumb Code    12  ble_conn_params.o(i.send_error_evt)
    i.send_unexpected_error                  0x00035a54   Section        0  gatt_cache_manager.o(i.send_unexpected_error)
    send_unexpected_error                    0x00035a55   Thumb Code    34  gatt_cache_manager.o(i.send_unexpected_error)
    i.send_unexpected_error                  0x00035a7c   Section        0  security_dispatcher.o(i.send_unexpected_error)
    send_unexpected_error                    0x00035a7d   Thumb Code    34  security_dispatcher.o(i.send_unexpected_error)
    i.serial_tx                              0x00035aa4   Section        0  nrf_log_backend_uart.o(i.serial_tx)
    serial_tx                                0x00035aa5   Thumb Code    54  nrf_log_backend_uart.o(i.serial_tx)
    i.service_changed_pending_flags_check    0x00035ae4   Section        0  gatt_cache_manager.o(i.service_changed_pending_flags_check)
    service_changed_pending_flags_check      0x00035ae5   Thumb Code    12  gatt_cache_manager.o(i.service_changed_pending_flags_check)
    i.service_changed_pending_set            0x00035af8   Section        0  gatts_cache_manager.o(i.service_changed_pending_set)
    service_changed_pending_set              0x00035af9   Thumb Code   128  gatts_cache_manager.o(i.service_changed_pending_set)
    i.service_changed_send_in_evt            0x00035b8c   Section        0  gatt_cache_manager.o(i.service_changed_send_in_evt)
    service_changed_send_in_evt              0x00035b8d   Thumb Code   278  gatt_cache_manager.o(i.service_changed_send_in_evt)
    i.service_data_encode                    0x00035cf4   Section        0  ble_advdata.o(i.service_data_encode)
    service_data_encode                      0x00035cf5   Thumb Code   136  ble_advdata.o(i.service_data_encode)
    i.set_security_req                       0x00035d7c   Section        0  ble_srv_common.o(i.set_security_req)
    set_security_req                         0x00035d7d   Thumb Code    48  ble_srv_common.o(i.set_security_req)
    i.sm_ble_evt_handler                     0x00035dac   Section        0  security_manager.o(i.sm_ble_evt_handler)
    i.sm_conn_sec_status_get                 0x00035de0   Section        0  security_manager.o(i.sm_conn_sec_status_get)
    i.sm_init                                0x00035e84   Section        0  security_manager.o(i.sm_init)
    i.sm_link_secure                         0x00035ee4   Section        0  security_manager.o(i.sm_link_secure)
    i.sm_pdb_evt_handler                     0x00035ef0   Section        0  security_manager.o(i.sm_pdb_evt_handler)
    i.sm_sec_is_sufficient                   0x00035f34   Section        0  security_manager.o(i.sm_sec_is_sufficient)
    i.sm_sec_params_set                      0x00035f5c   Section        0  security_manager.o(i.sm_sec_params_set)
    i.sm_smd_evt_handler                     0x00035f90   Section        0  security_manager.o(i.sm_smd_evt_handler)
    i.smd_ble_evt_handler                    0x00035fbc   Section        0  security_dispatcher.o(i.smd_ble_evt_handler)
    i.smd_init                               0x000360d4   Section        0  security_dispatcher.o(i.smd_init)
    i.smd_link_secure                        0x0003613c   Section        0  security_dispatcher.o(i.smd_link_secure)
    i.smd_params_reply                       0x00036178   Section        0  security_dispatcher.o(i.smd_params_reply)
    i.smd_params_reply_perform               0x00036224   Section        0  security_manager.o(i.smd_params_reply_perform)
    smd_params_reply_perform                 0x00036225   Thumb Code    60  security_manager.o(i.smd_params_reply_perform)
    i.softdevice_evt_irq_disable             0x00036260   Section        0  nrf_sdh.o(i.softdevice_evt_irq_disable)
    softdevice_evt_irq_disable               0x00036261   Thumb Code    60  nrf_sdh.o(i.softdevice_evt_irq_disable)
    i.softdevices_evt_irq_enable             0x000362a0   Section        0  nrf_sdh.o(i.softdevices_evt_irq_enable)
    softdevices_evt_irq_enable               0x000362a1   Thumb Code    80  nrf_sdh.o(i.softdevices_evt_irq_enable)
    i.sortlist_pop                           0x000362f8   Section        0  app_timer2.o(i.sortlist_pop)
    sortlist_pop                             0x000362f9   Thumb Code     6  app_timer2.o(i.sortlist_pop)
    i.state_set                              0x00036304   Section        0  app_button.o(i.state_set)
    state_set                                0x00036305   Thumb Code    44  app_button.o(i.state_set)
    i.std_n                                  0x00036334   Section        0  nrf_log_frontend.o(i.std_n)
    std_n                                    0x00036335   Thumb Code   140  nrf_log_frontend.o(i.std_n)
    i.store_car_value                        0x000363c8   Section        0  gatt_cache_manager.o(i.store_car_value)
    i.timer_expire                           0x00036434   Section        0  app_timer2.o(i.timer_expire)
    timer_expire                             0x00036435   Thumb Code    80  app_timer2.o(i.timer_expire)
    i.timer_req_process                      0x0003648c   Section        0  app_timer2.o(i.timer_req_process)
    timer_req_process                        0x0003648d   Thumb Code   110  app_timer2.o(i.timer_req_process)
    i.timer_req_schedule                     0x00036504   Section        0  app_timer2.o(i.timer_req_schedule)
    timer_req_schedule                       0x00036505   Thumb Code    46  app_timer2.o(i.timer_req_schedule)
    i.timer_start                            0x0003653c   Section        0  app_button.o(i.timer_start)
    timer_start                              0x0003653d   Thumb Code    16  app_button.o(i.timer_start)
    i.tx_byte                                0x00036554   Section        0  nrfx_uart.o(i.tx_byte)
    tx_byte                                  0x00036555   Thumb Code    32  nrfx_uart.o(i.tx_byte)
    i.tx_done_event                          0x00036574   Section        0  nrfx_uart.o(i.tx_done_event)
    tx_done_event                            0x00036575   Thumb Code    26  nrfx_uart.o(i.tx_done_event)
    i.tx_done_event                          0x0003658e   Section        0  nrfx_uarte.o(i.tx_done_event)
    tx_done_event                            0x0003658f   Thumb Code    26  nrfx_uarte.o(i.tx_done_event)
    i.uart_evt_handler                       0x000365a8   Section        0  nrf_drv_uart.o(i.uart_evt_handler)
    uart_evt_handler                         0x000365a9   Thumb Code    42  nrf_drv_uart.o(i.uart_evt_handler)
    i.uart_evt_handler                       0x000365d8   Section        0  nrf_log_backend_uart.o(i.uart_evt_handler)
    uart_evt_handler                         0x000365d9   Thumb Code     8  nrf_log_backend_uart.o(i.uart_evt_handler)
    i.uart_init                              0x000365e4   Section        0  nrf_log_backend_uart.o(i.uart_init)
    uart_init                                0x000365e5   Thumb Code    66  nrf_log_backend_uart.o(i.uart_init)
    i.uart_irq_handler                       0x00036634   Section        0  nrfx_uart.o(i.uart_irq_handler)
    uart_irq_handler                         0x00036635   Thumb Code   298  nrfx_uart.o(i.uart_irq_handler)
    i.uarte_evt_handler                      0x00036760   Section        0  nrf_drv_uart.o(i.uarte_evt_handler)
    uarte_evt_handler                        0x00036761   Thumb Code    42  nrf_drv_uart.o(i.uarte_evt_handler)
    i.uarte_irq_handler                      0x00036790   Section        0  nrfx_uarte.o(i.uarte_irq_handler)
    uarte_irq_handler                        0x00036791   Thumb Code   274  nrfx_uarte.o(i.uarte_irq_handler)
    i.uint16_encode                          0x000368a2   Section        0  ble_advdata.o(i.uint16_encode)
    uint16_encode                            0x000368a3   Thumb Code    10  ble_advdata.o(i.uint16_encode)
    i.uninit                                 0x000368ac   Section        0  nrf_fstorage_sd.o(i.uninit)
    uninit                                   0x000368ad   Thumb Code    22  nrf_fstorage_sd.o(i.uninit)
    i.unsigned_print                         0x000368cc   Section        0  nrf_fprintf_format.o(i.unsigned_print)
    unsigned_print                           0x000368cd   Thumb Code   176  nrf_fprintf_format.o(i.unsigned_print)
    i.update_pending_flags_check             0x00036980   Section        0  gatt_cache_manager.o(i.update_pending_flags_check)
    update_pending_flags_check               0x00036981   Thumb Code    34  gatt_cache_manager.o(i.update_pending_flags_check)
    i.update_timeout_handler                 0x000369b0   Section        0  ble_conn_params.o(i.update_timeout_handler)
    update_timeout_handler                   0x000369b1   Thumb Code    98  ble_conn_params.o(i.update_timeout_handler)
    i.use_whitelist                          0x00036a18   Section        0  ble_advertising.o(i.use_whitelist)
    use_whitelist                            0x00036a19   Thumb Code    24  ble_advertising.o(i.use_whitelist)
    i.user_flag_is_acquired                  0x00036a30   Section        0  ble_conn_state.o(i.user_flag_is_acquired)
    user_flag_is_acquired                    0x00036a31   Thumb Code     8  ble_conn_state.o(i.user_flag_is_acquired)
    i.user_mem_reply                         0x00036a3c   Section        0  nrf_ble_qwr.o(i.user_mem_reply)
    user_mem_reply                           0x00036a3d   Thumb Code    36  nrf_ble_qwr.o(i.user_mem_reply)
    i.usr_event                              0x00036a60   Section        0  app_button.o(i.usr_event)
    usr_event                                0x00036a61   Thumb Code    32  app_button.o(i.usr_event)
    i.uuid_list_encode                       0x00036a80   Section        0  ble_advdata.o(i.uuid_list_encode)
    uuid_list_encode                         0x00036a81   Thumb Code    48  ble_advdata.o(i.uuid_list_encode)
    i.uuid_list_sized_encode                 0x00036ab0   Section        0  ble_advdata.o(i.uuid_list_sized_encode)
    uuid_list_sized_encode                   0x00036ab1   Thumb Code   158  ble_advdata.o(i.uuid_list_sized_encode)
    i.wmap                                   0x00036b4e   Section        0  nrf_fstorage_sd.o(i.wmap)
    wmap                                     0x00036b4f   Thumb Code     4  nrf_fstorage_sd.o(i.wmap)
    i.write                                  0x00036b54   Section        0  nrf_fstorage_sd.o(i.write)
    write                                    0x00036b55   Thumb Code    74  nrf_fstorage_sd.o(i.write)
    i.write_buf_store                        0x00036ba4   Section        0  peer_database.o(i.write_buf_store)
    i.write_buffer_record_find               0x00036cf0   Section        0  peer_database.o(i.write_buffer_record_find)
    write_buffer_record_find                 0x00036cf1   Thumb Code    52  peer_database.o(i.write_buffer_record_find)
    i.write_buffer_record_find_next          0x00036d24   Section        0  peer_database.o(i.write_buffer_record_find_next)
    write_buffer_record_find_next            0x00036d25   Thumb Code    42  peer_database.o(i.write_buffer_record_find_next)
    i.write_buffer_record_invalidate         0x00036d54   Section        0  peer_database.o(i.write_buffer_record_invalidate)
    write_buffer_record_invalidate           0x00036d55   Thumb Code    28  peer_database.o(i.write_buffer_record_invalidate)
    i.write_buffer_record_release            0x00036d70   Section        0  peer_database.o(i.write_buffer_record_release)
    write_buffer_record_release              0x00036d71   Thumb Code    38  peer_database.o(i.write_buffer_record_release)
    i.write_enqueue                          0x00036d9c   Section        0  fds.o(i.write_enqueue)
    write_enqueue                            0x00036d9d   Thumb Code   234  fds.o(i.write_enqueue)
    i.write_execute                          0x00036e90   Section        0  fds.o(i.write_execute)
    write_execute                            0x00036e91   Thumb Code   236  fds.o(i.write_execute)
    i.write_space_free                       0x00036f88   Section        0  fds.o(i.write_space_free)
    write_space_free                         0x00036f89   Thumb Code    20  fds.o(i.write_space_free)
    i.write_space_reserve                    0x00036fa0   Section        0  fds.o(i.write_space_reserve)
    write_space_reserve                      0x00036fa1   Thumb Code    90  fds.o(i.write_space_reserve)
    .constdata                               0x00037000   Section       20  main.o(.constdata)
    m_ble_gatt_queuereq_queue                0x00037000   Data          20  main.o(.constdata)
    .constdata                               0x00037014   Section       12  main.o(.constdata)
    m_target_periph_name                     0x00037014   Data           1  main.o(.constdata)
    .constdata                               0x00037020   Section        8  boards.o(.constdata)
    m_board_led_list                         0x00037020   Data           4  boards.o(.constdata)
    m_board_btn_list                         0x00037024   Data           4  boards.o(.constdata)
    .constdata                               0x00037028   Section       44  bsp.o(.constdata)
    m_bsp_leds_tmr                           0x00037028   Data           4  bsp.o(.constdata)
    m_bsp_alert_tmr                          0x0003702c   Data           4  bsp.o(.constdata)
    m_bsp_button_tmr                         0x00037030   Data           4  bsp.o(.constdata)
    app_buttons                              0x00037034   Data          32  bsp.o(.constdata)
    .constdata                               0x00037054   Section      124  ble_db_discovery.o(.constdata)
    .constdata                               0x000370d0   Section      108  gatt_cache_manager.o(.constdata)
    car_value_true                           0x000370d4   Data           4  gatt_cache_manager.o(.constdata)
    car_value_false                          0x000370d8   Data           4  gatt_cache_manager.o(.constdata)
    .constdata                               0x0003713c   Section        4  gatts_cache_manager.o(.constdata)
    service_changed_pending                  0x0003713c   Data           4  gatts_cache_manager.o(.constdata)
    .constdata                               0x00037140   Section       16  gatts_cache_manager.o(.constdata)
    .constdata                               0x00037150   Section        4  gatts_cache_manager.o(.constdata)
    service_changed_pending                  0x00037150   Data           4  gatts_cache_manager.o(.constdata)
    .constdata                               0x00037154   Section        8  id_manager.o(.constdata)
    m_evt_handlers                           0x00037154   Data           8  id_manager.o(.constdata)
    .constdata                               0x0003715c   Section       22  nrf_ble_gatt.o(.constdata)
    .constdata                               0x00037174   Section       24  nrf_ble_gq.o(.constdata)
    m_req_data_alloc                         0x00037174   Data          24  nrf_ble_gq.o(.constdata)
    .constdata                               0x0003718c   Section       24  peer_data_storage.o(.constdata)
    m_evt_handlers                           0x0003718c   Data           4  peer_data_storage.o(.constdata)
    .constdata                               0x000371a4   Section       16  peer_database.o(.constdata)
    m_evt_handlers                           0x000371a4   Data          16  peer_database.o(.constdata)
    .constdata                               0x000371b4   Section       44  peer_manager.o(.constdata)
    __func__                                 0x000371b4   Data           8  peer_manager.o(.constdata)
    __func__                                 0x000371c4   Data          12  peer_manager.o(.constdata)
    __func__                                 0x000371d0   Data          16  peer_manager.o(.constdata)
    .constdata                               0x000371e0   Section       20  peer_manager_handler.o(.constdata)
    .constdata                               0x000371f4   Section      140  security_dispatcher.o(.constdata)
    m_evt_handlers                           0x000371f4   Data           4  security_dispatcher.o(.constdata)
    __func__                                 0x0003725c   Data          16  security_dispatcher.o(.constdata)
    .constdata                               0x00037280   Section        8  security_manager.o(.constdata)
    m_evt_handlers                           0x00037284   Data           4  security_manager.o(.constdata)
    .constdata                               0x00037288   Section      108  nrf_crypto_ecc.o(.constdata)
    key_pair_generate_context_size           0x00037288   Data           6  nrf_crypto_ecc.o(.constdata)
    public_key_calculate_context_size        0x0003728e   Data           6  nrf_crypto_ecc.o(.constdata)
    key_pair_generate_impl                   0x00037294   Data          12  nrf_crypto_ecc.o(.constdata)
    public_key_calculate_impl                0x000372a0   Data          12  nrf_crypto_ecc.o(.constdata)
    private_key_from_raw_impl                0x000372ac   Data          12  nrf_crypto_ecc.o(.constdata)
    private_key_to_raw_impl                  0x000372b8   Data          12  nrf_crypto_ecc.o(.constdata)
    public_key_from_raw_impl                 0x000372c4   Data          12  nrf_crypto_ecc.o(.constdata)
    public_key_to_raw_impl                   0x000372d0   Data          12  nrf_crypto_ecc.o(.constdata)
    private_key_free_impl                    0x000372dc   Data          12  nrf_crypto_ecc.o(.constdata)
    public_key_free_impl                     0x000372e8   Data          12  nrf_crypto_ecc.o(.constdata)
    .constdata                               0x000372f4   Section       12  nrf_crypto_ecdh.o(.constdata)
    compute_impl_context_size                0x000372f4   Data           4  nrf_crypto_ecdh.o(.constdata)
    compute_impl                             0x000372f8   Data           8  nrf_crypto_ecdh.o(.constdata)
    .constdata                               0x00037300   Section       12  oberon_backend_ecc.o(.constdata)
    .constdata                               0x0003730c   Section       64  oberon_backend_ecc.o(.constdata)
    min_value                                0x0003730c   Data          32  oberon_backend_ecc.o(.constdata)
    max_value                                0x0003732c   Data          32  oberon_backend_ecc.o(.constdata)
    .constdata                               0x0003734c   Section        2  nrf_drv_rng.o(.constdata)
    m_default_config                         0x0003734c   Data           2  nrf_drv_rng.o(.constdata)
    .constdata                               0x00037350   Section        4  nrfx_gpiote.o(.constdata)
    .constdata                               0x00037354   Section        4  nrfx_uart.o(.constdata)
    irq_handlers                             0x00037354   Data           4  nrfx_uart.o(.constdata)
    .constdata                               0x00037358   Section        4  nrfx_uarte.o(.constdata)
    irq_handlers                             0x00037358   Data           4  nrfx_uarte.o(.constdata)
    .constdata                               0x0003735c   Section        8  app_button.o(.constdata)
    m_detection_delay_timer_id               0x00037360   Data           4  app_button.o(.constdata)
    .constdata                               0x00037364   Section       20  app_timer2.o(.constdata)
    m_req_fifo                               0x00037364   Data           4  app_timer2.o(.constdata)
    m_app_timer_sortlist                     0x0003736c   Data          12  app_timer2.o(.constdata)
    .constdata                               0x00037380   Section        6  drv_rtc.o(.constdata)
    delay_machine_code                       0x00037380   Data           6  drv_rtc.o(.constdata)
    .constdata                               0x00037388   Section       24  fds.o(.constdata)
    m_queue                                  0x00037388   Data           4  fds.o(.constdata)
    dirty_header                             0x0003738c   Data           4  fds.o(.constdata)
    page_tag_swap                            0x00037390   Data           8  fds.o(.constdata)
    page_tag_data                            0x00037398   Data           8  fds.o(.constdata)
    .constdata                               0x000373a0   Section       16  nrf_fprintf_format.o(.constdata)
    _aV2C                                    0x000373a0   Data          16  nrf_fprintf_format.o(.constdata)
    .constdata                               0x000373b0   Section       94  nrf_fstorage.o(.constdata)
    __func__                                 0x000373b0   Data          18  nrf_fstorage.o(.constdata)
    __func__                                 0x000373c2   Data          20  nrf_fstorage.o(.constdata)
    __func__                                 0x000373d6   Data          18  nrf_fstorage.o(.constdata)
    __func__                                 0x000373e8   Data          19  nrf_fstorage.o(.constdata)
    __func__                                 0x000373fb   Data          19  nrf_fstorage.o(.constdata)
    .constdata                               0x00037410   Section       16  nrf_fstorage_sd.o(.constdata)
    m_fifo                                   0x00037410   Data           4  nrf_fstorage_sd.o(.constdata)
    m_flash_info                             0x00037414   Data          12  nrf_fstorage_sd.o(.constdata)
    .constdata                               0x00037420   Section       32  nrf_fstorage_sd.o(.constdata)
    .constdata                               0x00037440   Section       24  nrf_pwr_mgmt.o(.constdata)
    pwr_mgmt_data_array                      0x00037440   Data          24  nrf_pwr_mgmt.o(.constdata)
    .constdata                               0x00037458   Section       12  nrf_pwr_mgmt.o(.constdata)
    pwr_mgmt_data                            0x00037458   Data          12  nrf_pwr_mgmt.o(.constdata)
    .constdata                               0x00037464   Section      316  nrf_strerror.o(.constdata)
    m_unknown_str                            0x00037464   Data          19  nrf_strerror.o(.constdata)
    nrf_strerror_array                       0x00037478   Data         296  nrf_strerror.o(.constdata)
    .constdata                               0x000375a0   Section       12  nrf_log_backend_uart.o(.constdata)
    .constdata                               0x000375ac   Section       32  nrf_log_backend_uart.o(.constdata)
    .constdata                               0x000375cc   Section       12  nrf_log_frontend.o(.constdata)
    m_log_push_ringbuf                       0x000375cc   Data          12  nrf_log_frontend.o(.constdata)
    .constdata                               0x000375d8   Section       16  nrf_sdh.o(.constdata)
    sdh_req_observers_array                  0x000375d8   Data          16  nrf_sdh.o(.constdata)
    .constdata                               0x000375e8   Section       40  nrf_sdh.o(.constdata)
    sdh_req_observers                        0x000375ec   Data          12  nrf_sdh.o(.constdata)
    sdh_state_observers                      0x000375f8   Data          12  nrf_sdh.o(.constdata)
    sdh_stack_observers                      0x00037604   Data          12  nrf_sdh.o(.constdata)
    .constdata                               0x00037610   Section       16  nrf_sdh.o(.constdata)
    sdh_state_observers_array                0x00037610   Data          16  nrf_sdh.o(.constdata)
    .constdata                               0x00037620   Section       16  nrf_sdh.o(.constdata)
    sdh_stack_observers_array                0x00037620   Data          16  nrf_sdh.o(.constdata)
    .constdata                               0x00037630   Section       32  nrf_sdh_ble.o(.constdata)
    sdh_ble_observers_array                  0x00037630   Data          32  nrf_sdh_ble.o(.constdata)
    .constdata                               0x00037650   Section       16  nrf_sdh_ble.o(.constdata)
    sdh_ble_observers                        0x00037654   Data          12  nrf_sdh_ble.o(.constdata)
    .constdata                               0x00037660   Section       16  nrf_sdh_soc.o(.constdata)
    sdh_soc_observers_array                  0x00037660   Data          16  nrf_sdh_soc.o(.constdata)
    .constdata                               0x00037670   Section       12  nrf_sdh_soc.o(.constdata)
    sdh_soc_observers                        0x00037670   Data          12  nrf_sdh_soc.o(.constdata)
    .constdata                               0x0003767c   Section     8744  aes.o(.constdata)
    FSb                                      0x0003767c   Data         256  aes.o(.constdata)
    FT0                                      0x0003777c   Data        1024  aes.o(.constdata)
    FT1                                      0x00037b7c   Data        1024  aes.o(.constdata)
    FT2                                      0x00037f7c   Data        1024  aes.o(.constdata)
    FT3                                      0x0003837c   Data        1024  aes.o(.constdata)
    RSb                                      0x0003877c   Data         256  aes.o(.constdata)
    RT0                                      0x0003887c   Data        1024  aes.o(.constdata)
    RT1                                      0x00038c7c   Data        1024  aes.o(.constdata)
    RT2                                      0x0003907c   Data        1024  aes.o(.constdata)
    RT3                                      0x0003947c   Data        1024  aes.o(.constdata)
    RCON                                     0x0003987c   Data          40  aes.o(.constdata)
    .constdata                               0x000398a4   Section      129  ctype_o.o(.constdata)
    .constdata                               0x00039928   Section        4  ctype_o.o(.constdata)
    table                                    0x00039928   Data           4  ctype_o.o(.constdata)
    .conststring                             0x0003992c   Section      198  main.o(.conststring)
    .conststring                             0x000399f4   Section      233  ble_db_discovery.o(.conststring)
    .conststring                             0x00039ae0   Section      420  gatt_cache_manager.o(.conststring)
    .conststring                             0x00039c84   Section      412  gatts_cache_manager.o(.conststring)
    .conststring                             0x00039e20   Section      162  nrf_ble_gatt.o(.conststring)
    .conststring                             0x00039ec4   Section       74  nrf_ble_gq.o(.conststring)
    .conststring                             0x00039f10   Section       66  nrf_ble_lesc.o(.conststring)
    .conststring                             0x00039f54   Section      232  peer_data_storage.o(.conststring)
    .conststring                             0x0003a03c   Section      384  peer_database.o(.conststring)
    .conststring                             0x0003a1bc   Section      144  peer_manager.o(.conststring)
    .conststring                             0x0003a24c   Section      783  peer_manager_handler.o(.conststring)
    .conststring                             0x0003a55c   Section      774  security_dispatcher.o(.conststring)
    .conststring                             0x0003a864   Section      379  security_manager.o(.conststring)
    .conststring                             0x0003a9e0   Section       79  nrf_fstorage.o(.conststring)
    .conststring                             0x0003aa30   Section     1003  nrf_strerror.o(.conststring)
    .conststring                             0x0003ae1c   Section      102  nrf_log_str_formatter.o(.conststring)
    .conststring                             0x0003ae84   Section      392  nrf_sdh_ble.o(.conststring)
    .conststrlit                             0x0003b00c   Section       12  ble_db_discovery.o(.conststrlit)
    .conststrlit                             0x0003b018   Section       17  gatt_cache_manager.o(.conststrlit)
    .conststrlit                             0x0003b02c   Section       18  gatts_cache_manager.o(.conststrlit)
    .conststrlit                             0x0003b040   Section       16  id_manager.o(.conststrlit)
    .conststrlit                             0x0003b050   Section       13  nrf_ble_gatt.o(.conststrlit)
    .conststrlit                             0x0003b060   Section       11  nrf_ble_gq.o(.conststrlit)
    .conststrlit                             0x0003b06c   Section       13  nrf_ble_lesc.o(.conststrlit)
    .conststrlit                             0x0003b07c   Section        9  nrf_ble_scan.o(.conststrlit)
    .conststrlit                             0x0003b088   Section       17  peer_data_storage.o(.conststrlit)
    .conststrlit                             0x0003b09c   Section       17  peer_database.o(.conststrlit)
    .conststrlit                             0x0003b0b0   Section       13  peer_manager.o(.conststrlit)
    .conststrlit                             0x0003b0c0   Section       21  peer_manager_handler.o(.conststrlit)
    .conststrlit                             0x0003b0d8   Section       17  security_dispatcher.o(.conststrlit)
    .conststrlit                             0x0003b0ec   Section       16  security_manager.o(.conststrlit)
    .conststrlit                             0x0003b0fc   Section       10  ble_hrs_c.o(.conststrlit)
    .conststrlit                             0x0003b108   Section        4  nrf_drv_rng.o(.conststrlit)
    .conststrlit                             0x0003b10c   Section        7  nrfx_gpiote.o(.conststrlit)
    .conststrlit                             0x0003b114   Section        4  nrfx_prs.o(.conststrlit)
    .conststrlit                             0x0003b118   Section        4  nrfx_rng.o(.conststrlit)
    .conststrlit                             0x0003b11c   Section        5  nrfx_uart.o(.conststrlit)
    .conststrlit                             0x0003b124   Section        6  nrfx_uarte.o(.conststrlit)
    .conststrlit                             0x0003b12c   Section       11  app_button.o(.conststrlit)
    .conststrlit                             0x0003b138   Section       10  app_timer2.o(.conststrlit)
    .conststrlit                             0x0003b144   Section        9  mem_manager.o(.conststrlit)
    .conststrlit                             0x0003b150   Section       13  nrf_fstorage.o(.conststrlit)
    .conststrlit                             0x0003b160   Section        9  nrf_pwr_mgmt.o(.conststrlit)
    .conststrlit                             0x0003b16c   Section        9  nrf_sortlist.o(.conststrlit)
    .conststrlit                             0x0003b178   Section       17  nrf_log_default_backends.o(.conststrlit)
    .conststrlit                             0x0003b18c   Section        4  nrf_log_frontend.o(.conststrlit)
    .conststrlit                             0x0003b190   Section        8  nrf_sdh.o(.conststrlit)
    .conststrlit                             0x0003b198   Section       12  nrf_sdh_ble.o(.conststrlit)
    .conststrlit                             0x0003b1a4   Section       12  nrf_sdh_soc.o(.conststrlit)
    [Anonymous Symbol]                       0x0003b1b0   Section        0  ocrypto_curve25519.c.obj(.rodata.base)
    base                                     0x0003b1b0   Data          32  ocrypto_curve25519.c.obj(.rodata.base)
    [Anonymous Symbol]                       0x0003b1d0   Section        0  ocrypto_curve_p256.c.obj(.rodata.base_point)
    base_point                               0x0003b1d0   Data          64  ocrypto_curve_p256.c.obj(.rodata.base_point)
    [Anonymous Symbol]                       0x0003b210   Section        0  ocrypto_sha512.c.obj(.rodata.const_table)
    const_table                              0x0003b210   Data         640  ocrypto_sha512.c.obj(.rodata.const_table)
    [Anonymous Symbol]                       0x0003b490   Section        0  ocrypto_curve_p256.c.obj(.rodata.cq)
    cq                                       0x0003b490   Data          32  ocrypto_curve_p256.c.obj(.rodata.cq)
    [Anonymous Symbol]                       0x0003b4b0   Section        0  ocrypto_curve_p256.c.obj(.rodata.inv_a)
    inv_a                                    0x0003b4b0   Data          32  ocrypto_curve_p256.c.obj(.rodata.inv_a)
    [Anonymous Symbol]                       0x0003b4d0   Section        0  ocrypto_sc25519.c.obj(.rodata.m)
    m                                        0x0003b4d0   Data          32  ocrypto_sc25519.c.obj(.rodata.m)
    [Anonymous Symbol]                       0x0003b4f0   Section        0  ocrypto_ge25519.c.obj(.rodata.ocrypto_ge25519_base_multiples)
    ocrypto_ge25519_base_multiples           0x0003b4f0   Data        1600  ocrypto_ge25519.c.obj(.rodata.ocrypto_ge25519_base_multiples)
    [Anonymous Symbol]                       0x0003bb30   Section        0  ocrypto_ge25519.c.obj(.rodata.ocrypto_ge25519_ec2d)
    ocrypto_ge25519_ec2d                     0x0003bb30   Data          32  ocrypto_ge25519.c.obj(.rodata.ocrypto_ge25519_ec2d)
    [Anonymous Symbol]                       0x0003bb50   Section        0  ocrypto_curve_p256.c.obj(.rodata.param_a)
    param_a                                  0x0003bb50   Data          32  ocrypto_curve_p256.c.obj(.rodata.param_a)
    [Anonymous Symbol]                       0x0003bb70   Section        0  ocrypto_curve_p256.c.obj(.rodata.param_b)
    param_b                                  0x0003bb70   Data          32  ocrypto_curve_p256.c.obj(.rodata.param_b)
    [Anonymous Symbol]                       0x0003bb90   Section        0  ocrypto_sc_p256.c.obj(.rodata.q)
    q                                        0x0003bb90   Data          32  ocrypto_sc_p256.c.obj(.rodata.q)
    [Anonymous Symbol]                       0x0003bbb0   Section        0  ocrypto_curve_p256.c.obj(.rodata.qp1)
    qp1                                      0x0003bbb0   Data          32  ocrypto_curve_p256.c.obj(.rodata.qp1)
    crypto_data                              0x0003bbf0   Section        8  nrf_hw_backend_init.o(crypto_data)
    __tagsym$$used                           0x0003bbf0   Number         0  nrf_hw_backend_init.o(crypto_data)
    log_backends                             0x0003bbf8   Section       16  nrf_log_default_backends.o(log_backends)
    __tagsym$$used                           0x0003bbf8   Number         0  nrf_log_default_backends.o(log_backends)
    uart_log_backend                         0x0003bbf8   Data          16  nrf_log_default_backends.o(log_backends)
    log_const_data                           0x0003bc08   Section        8  ble_db_discovery.o(log_const_data)
    __tagsym$$used                           0x0003bc08   Number         0  ble_db_discovery.o(log_const_data)
    log_const_data                           0x0003bc10   Section        8  gatt_cache_manager.o(log_const_data)
    __tagsym$$used                           0x0003bc10   Number         0  gatt_cache_manager.o(log_const_data)
    log_const_data                           0x0003bc18   Section        8  gatts_cache_manager.o(log_const_data)
    __tagsym$$used                           0x0003bc18   Number         0  gatts_cache_manager.o(log_const_data)
    log_const_data                           0x0003bc20   Section        8  id_manager.o(log_const_data)
    __tagsym$$used                           0x0003bc20   Number         0  id_manager.o(log_const_data)
    log_const_data                           0x0003bc28   Section        8  nrf_ble_gatt.o(log_const_data)
    __tagsym$$used                           0x0003bc28   Number         0  nrf_ble_gatt.o(log_const_data)
    log_const_data                           0x0003bc30   Section        8  nrf_ble_gq.o(log_const_data)
    __tagsym$$used                           0x0003bc30   Number         0  nrf_ble_gq.o(log_const_data)
    log_const_data                           0x0003bc38   Section        8  nrf_ble_lesc.o(log_const_data)
    __tagsym$$used                           0x0003bc38   Number         0  nrf_ble_lesc.o(log_const_data)
    log_const_data                           0x0003bc40   Section        8  nrf_ble_scan.o(log_const_data)
    __tagsym$$used                           0x0003bc40   Number         0  nrf_ble_scan.o(log_const_data)
    log_const_data                           0x0003bc48   Section        8  peer_data_storage.o(log_const_data)
    __tagsym$$used                           0x0003bc48   Number         0  peer_data_storage.o(log_const_data)
    log_const_data                           0x0003bc50   Section        8  peer_database.o(log_const_data)
    __tagsym$$used                           0x0003bc50   Number         0  peer_database.o(log_const_data)
    log_const_data                           0x0003bc58   Section        8  peer_manager.o(log_const_data)
    __tagsym$$used                           0x0003bc58   Number         0  peer_manager.o(log_const_data)
    log_const_data                           0x0003bc60   Section        8  peer_manager_handler.o(log_const_data)
    __tagsym$$used                           0x0003bc60   Number         0  peer_manager_handler.o(log_const_data)
    log_const_data                           0x0003bc68   Section        8  security_dispatcher.o(log_const_data)
    __tagsym$$used                           0x0003bc68   Number         0  security_dispatcher.o(log_const_data)
    log_const_data                           0x0003bc70   Section        8  security_manager.o(log_const_data)
    __tagsym$$used                           0x0003bc70   Number         0  security_manager.o(log_const_data)
    log_const_data                           0x0003bc78   Section        8  ble_hrs_c.o(log_const_data)
    __tagsym$$used                           0x0003bc78   Number         0  ble_hrs_c.o(log_const_data)
    log_const_data                           0x0003bc80   Section        8  nrf_drv_rng.o(log_const_data)
    __tagsym$$used                           0x0003bc80   Number         0  nrf_drv_rng.o(log_const_data)
    log_const_data                           0x0003bc88   Section        8  nrfx_gpiote.o(log_const_data)
    __tagsym$$used                           0x0003bc88   Number         0  nrfx_gpiote.o(log_const_data)
    log_const_data                           0x0003bc90   Section        8  nrfx_prs.o(log_const_data)
    __tagsym$$used                           0x0003bc90   Number         0  nrfx_prs.o(log_const_data)
    log_const_data                           0x0003bc98   Section        8  nrfx_rng.o(log_const_data)
    __tagsym$$used                           0x0003bc98   Number         0  nrfx_rng.o(log_const_data)
    log_const_data                           0x0003bca0   Section        8  nrfx_uart.o(log_const_data)
    __tagsym$$used                           0x0003bca0   Number         0  nrfx_uart.o(log_const_data)
    log_const_data                           0x0003bca8   Section        8  nrfx_uarte.o(log_const_data)
    __tagsym$$used                           0x0003bca8   Number         0  nrfx_uarte.o(log_const_data)
    log_const_data                           0x0003bcb0   Section        8  app_button.o(log_const_data)
    __tagsym$$used                           0x0003bcb0   Number         0  app_button.o(log_const_data)
    log_const_data                           0x0003bcb8   Section        8  app_timer2.o(log_const_data)
    __tagsym$$used                           0x0003bcb8   Number         0  app_timer2.o(log_const_data)
    log_const_data                           0x0003bcc0   Section        8  mem_manager.o(log_const_data)
    __tagsym$$used                           0x0003bcc0   Number         0  mem_manager.o(log_const_data)
    log_const_data                           0x0003bcc8   Section        8  nrf_fstorage.o(log_const_data)
    __tagsym$$used                           0x0003bcc8   Number         0  nrf_fstorage.o(log_const_data)
    log_const_data                           0x0003bcd0   Section        8  nrf_pwr_mgmt.o(log_const_data)
    __tagsym$$used                           0x0003bcd0   Number         0  nrf_pwr_mgmt.o(log_const_data)
    log_const_data                           0x0003bcd8   Section        8  nrf_sortlist.o(log_const_data)
    __tagsym$$used                           0x0003bcd8   Number         0  nrf_sortlist.o(log_const_data)
    log_const_data                           0x0003bce0   Section        8  nrf_log_frontend.o(log_const_data)
    __tagsym$$used                           0x0003bce0   Number         0  nrf_log_frontend.o(log_const_data)
    log_const_data                           0x0003bce8   Section        8  nrf_sdh.o(log_const_data)
    __tagsym$$used                           0x0003bce8   Number         0  nrf_sdh.o(log_const_data)
    log_const_data                           0x0003bcf0   Section        8  nrf_sdh_ble.o(log_const_data)
    __tagsym$$used                           0x0003bcf0   Number         0  nrf_sdh_ble.o(log_const_data)
    log_const_data                           0x0003bcf8   Section        8  nrf_sdh_soc.o(log_const_data)
    __tagsym$$used                           0x0003bcf8   Number         0  nrf_sdh_soc.o(log_const_data)
    nrf_balloc                               0x0003bd00   Section       20  main.o(nrf_balloc)
    __tagsym$$used                           0x0003bd00   Number         0  main.o(nrf_balloc)
    nrf_balloc                               0x0003bd14   Section       20  nrf_log_frontend.o(nrf_balloc)
    __tagsym$$used                           0x0003bd14   Number         0  nrf_log_frontend.o(nrf_balloc)
    nrf_queue                                0x0003bd28   Section       20  main.o(nrf_queue)
    __tagsym$$used                           0x0003bd28   Number         0  main.o(nrf_queue)
    nrf_queue                                0x0003bd3c   Section       20  nrf_drv_rng.o(nrf_queue)
    __tagsym$$used                           0x0003bd3c   Number         0  nrf_drv_rng.o(nrf_queue)
    sdh_ble_observers0                       0x0003bd50   Section        8  ble_conn_state.o(sdh_ble_observers0)
    __tagsym$$used                           0x0003bd50   Number         0  ble_conn_state.o(sdh_ble_observers0)
    m_ble_evt_observer                       0x0003bd50   Data           8  ble_conn_state.o(sdh_ble_observers0)
    sdh_ble_observers1                       0x0003bd58   Section       40  main.o(sdh_ble_observers1)
    __tagsym$$used                           0x0003bd58   Number         0  main.o(sdh_ble_observers1)
    m_ble_gatt_queue_obs                     0x0003bd58   Data           8  main.o(sdh_ble_observers1)
    __tagsym$$used                           0x0003bd60   Number         0  main.o(sdh_ble_observers1)
    m_gatt_obs                               0x0003bd60   Data           8  main.o(sdh_ble_observers1)
    __tagsym$$used                           0x0003bd68   Number         0  main.o(sdh_ble_observers1)
    m_advertising_ble_obs                    0x0003bd68   Data           8  main.o(sdh_ble_observers1)
    __tagsym$$used                           0x0003bd70   Number         0  main.o(sdh_ble_observers1)
    m_db_disc_obs                            0x0003bd70   Data           8  main.o(sdh_ble_observers1)
    __tagsym$$used                           0x0003bd78   Number         0  main.o(sdh_ble_observers1)
    m_scan_ble_obs                           0x0003bd78   Data           8  main.o(sdh_ble_observers1)
    sdh_ble_observers1                       0x0003bd80   Section        8  bsp_btn_ble.o(sdh_ble_observers1)
    __tagsym$$used                           0x0003bd80   Number         0  bsp_btn_ble.o(sdh_ble_observers1)
    m_ble_observer                           0x0003bd80   Data           8  bsp_btn_ble.o(sdh_ble_observers1)
    sdh_ble_observers1                       0x0003bd88   Section        8  ble_conn_params.o(sdh_ble_observers1)
    __tagsym$$used                           0x0003bd88   Number         0  ble_conn_params.o(sdh_ble_observers1)
    m_ble_observer                           0x0003bd88   Data           8  ble_conn_params.o(sdh_ble_observers1)
    sdh_ble_observers1                       0x0003bd90   Section        8  peer_manager.o(sdh_ble_observers1)
    __tagsym$$used                           0x0003bd90   Number         0  peer_manager.o(sdh_ble_observers1)
    m_ble_evt_observer                       0x0003bd90   Data           8  peer_manager.o(sdh_ble_observers1)
    sdh_ble_observers2                       0x0003bd98   Section       32  main.o(sdh_ble_observers2)
    __tagsym$$used                           0x0003bd98   Number         0  main.o(sdh_ble_observers2)
    m_hrs_obs                                0x0003bd98   Data           8  main.o(sdh_ble_observers2)
    __tagsym$$used                           0x0003bda0   Number         0  main.o(sdh_ble_observers2)
    m_hrs_c_obs                              0x0003bda0   Data           8  main.o(sdh_ble_observers2)
    __tagsym$$used                           0x0003bda8   Number         0  main.o(sdh_ble_observers2)
    m_qwr_obs                                0x0003bda8   Data          16  main.o(sdh_ble_observers2)
    sdh_ble_observers3                       0x0003bdb8   Section        8  main.o(sdh_ble_observers3)
    __tagsym$$used                           0x0003bdb8   Number         0  main.o(sdh_ble_observers3)
    m_ble_observer                           0x0003bdb8   Data           8  main.o(sdh_ble_observers3)
    sdh_req_observers0                       0x0003bdc0   Section        8  nrf_fstorage_sd.o(sdh_req_observers0)
    __tagsym$$used                           0x0003bdc0   Number         0  nrf_fstorage_sd.o(sdh_req_observers0)
    sdh_soc_observers0                       0x0003bdc8   Section        8  nrf_fstorage_sd.o(sdh_soc_observers0)
    __tagsym$$used                           0x0003bdc8   Number         0  nrf_fstorage_sd.o(sdh_soc_observers0)
    m_sys_obs                                0x0003bdc8   Data           8  nrf_fstorage_sd.o(sdh_soc_observers0)
    sdh_stack_observers0                     0x0003bdd0   Section        8  nrf_sdh_ble.o(sdh_stack_observers0)
    __tagsym$$used                           0x0003bdd0   Number         0  nrf_sdh_ble.o(sdh_stack_observers0)
    m_nrf_sdh_ble_evts_poll                  0x0003bdd0   Data           8  nrf_sdh_ble.o(sdh_stack_observers0)
    sdh_stack_observers0                     0x0003bdd8   Section        8  nrf_sdh_soc.o(sdh_stack_observers0)
    __tagsym$$used                           0x0003bdd8   Number         0  nrf_sdh_soc.o(sdh_stack_observers0)
    m_nrf_sdh_soc_evts_poll                  0x0003bdd8   Data           8  nrf_sdh_soc.o(sdh_stack_observers0)
    sdh_state_observers0                     0x0003bde0   Section        8  nrf_drv_rng.o(sdh_state_observers0)
    __tagsym$$used                           0x0003bde0   Number         0  nrf_drv_rng.o(sdh_state_observers0)
    m_sd_state_observer                      0x0003bde0   Data           8  nrf_drv_rng.o(sdh_state_observers0)
    sdh_state_observers0                     0x0003bde8   Section        8  nrf_fstorage_sd.o(sdh_state_observers0)
    __tagsym$$used                           0x0003bde8   Number         0  nrf_fstorage_sd.o(sdh_state_observers0)
    m_state_obs                              0x0003bde8   Data           8  nrf_fstorage_sd.o(sdh_state_observers0)
    .data                                    0x200028c8   Section        2  main.o(.data)
    m_ble_gatt_queueconn_handles_arr         0x200028c8   Data           2  main.o(.data)
    .data                                    0x200028cc   Section     1536  main.o(.data)
    m_conn_handle_hrs_c                      0x200028cc   Data           2  main.o(.data)
    m_conn_handle_num_comp_central           0x200028ce   Data           2  main.o(.data)
    m_conn_handle_num_comp_peripheral        0x200028d0   Data           2  main.o(.data)
    m_adv_uuids                              0x200028d2   Data           8  main.o(.data)
    m_ble_gatt_queue                         0x200028dc   Data          20  main.o(.data)
    m_db_disc                                0x200028f0   Data        1488  main.o(.data)
    roles_str                                0x20002ec0   Data          12  main.o(.data)
    .data                                    0x20002ecc   Section        4  main.o(.data)
    m_ble_gatt_queuepurge_queue_nrf_queue_buffer 0x20002ecc   Data           4  main.o(.data)
    .data                                    0x20002ed0   Section        8  main.o(.data)
    m_ble_gatt_queuepool_nrf_balloc_pool_stack 0x20002ed0   Data           8  main.o(.data)
    .data                                    0x20002ed8   Section        8  main.o(.data)
    m_ble_gatt_queuepool_nrf_balloc_cb       0x20002ed8   Data           8  main.o(.data)
    .data                                    0x20002ee0   Section       16  bsp.o(.data)
    m_stable_state                           0x20002ee0   Data           1  bsp.o(.data)
    m_leds_clear                             0x20002ee1   Data           1  bsp.o(.data)
    m_alert_on                               0x20002ee2   Data           1  bsp.o(.data)
    current_long_push_pin_no                 0x20002ee3   Data           1  bsp.o(.data)
    m_indication_type                        0x20002ee4   Data           4  bsp.o(.data)
    m_registered_callback                    0x20002ee8   Data           4  bsp.o(.data)
    release_event_at_push                    0x20002eec   Data           4  bsp.o(.data)
    .data                                    0x20002ef0   Section        8  bsp_btn_ble.o(.data)
    m_error_handler                          0x20002ef0   Data           4  bsp_btn_ble.o(.data)
    m_num_connections                        0x20002ef4   Data           4  bsp_btn_ble.o(.data)
    .data                                    0x20002ef8   Section        8  ble_conn_params.o(.data)
    m_preferred_conn_params                  0x20002ef8   Data           8  ble_conn_params.o(.data)
    .data                                    0x20002f00   Section       16  ble_db_discovery.o(.data)
    m_initialized                            0x20002f00   Data           1  ble_db_discovery.o(.data)
