:020000040002F8
:10600000D8580020C1630200C9630200CB630200BC
:10601000CD630200CF630200D163020000000000E4
:10602000000000000000000000000000D363020038
:10603000D563020000000000D7630200D9630200AC
:10604000DB630200DB63020061920200DB6302009B
:10605000DB630200DB630200A98E0200DB63020047
:10606000DB630200DB630200DB630200DB63020030
:10607000DB6302004D8F0200DB630200DB63020082
:10608000DB630200758F0200DB630200DB6302004A
:10609000DB630200DB630200858F0200DB6302002A
:1060A000DB630200DB630200DB630200DB630200F0
:1060B000DB630200DB630200000000000000000060
:1060C000DB630200DB630200DB630200DB630200D0
:1060D000DB630200DB630200DB6302000000000000
:1060E00000000000000000000000000000000000B0
:1060F00000000000000000000000000000000000A0
:10610000000000000000000000000000000000008F
:10611000000000000000000000000000000000007F
:10612000000000000000000000000000000000006F
:10613000000000000000000000000000000000005F
:10614000000000000000000000000000000000004F
:10615000000000000000000000000000000000003F
:10616000000000000000000000000000000000002F
:10617000000000000000000000000000000000001F
:10618000000000000000000000000000000000000F
:1061900000000000000000000000000000000000FF
:1061A00000000000000000000000000000000000EF
:1061B00000000000000000000000000000000000DF
:1061C00000000000000000000000000000000000CF
:1061D00000000000000000000000000000000000BF
:1061E00000000000000000000000000000000000AF
:1061F000000000000000000000000000000000009F
:10620000DFF80CD001F004F800480047A1DD0200DF
:10621000D858002030B450E8012F93B2C4892344E9
:106220008489A34228BF1B1B0489A34202BFBFF37A
:106230002F8F002007E0C3EA020340E80134002C5E
:10624000E9D14FF001000A6030BC704750E8012FDF
:10625000C2EA024240E801210029F7D1704730B478
:1062600050E8022F1FFAA2F3C488A34202BFBFF373
:106270002F8F00200DE0C48923448489A34228BFC6
:106280001B1BC2EA034340E80234002CE8D14FF064
:1062900001000A6030BC704750E8022FC2EA224277
:1062A00040E802210029F7D17047034653E8022F46
:1062B000D988B2EB324F4FF0000017BF92B241EADB
:1062C000014142EA014104E05A68B2EB324F08BF93
:1062D000012043E80212002AE8D1704730B4044696
:1062E00054E8000F0D4644E80053002BF8D1156028
:1062F00030BC704730B4044654E8000F40EA010552
:1063000044E80053002BF7D1156030BC704730B41F
:10631000044654E8000F00EA010544E80053002B4E
:10632000F7D1156030BC704730B4044654E8000F14
:1063300080EA010544E80053002BF7D1156030BC1A
:10634000704730B4044654E8000F00EB010544E800
:106350000053002BF7D1156030BC704730B40446B1
:1063600054E8000FA0EB010544E80053002BF7D1DF
:10637000156030BC704770B404464FF0000054E81C
:10638000006F0D68AE4207BF44E80023012044E8D7
:1063900000630E60002B1CBF0020F0E770BC70474C
:1063A00030B4044654E8000F88422CBF451A054615
:1063B00044E80053002BF5D1156030BC7047000055
:1063C0000648804706480047FEE7FEE7FEE7FEE78F
:1063D000FEE7FEE7FEE7FEE7FEE7FEE7898F020045
:1063E0000162020070B491E87800B2E802105B1814
:1063F00054EB0C04B2E802104D4156EB0C0680E859
:1064000078008041013070BC704770B491E878002A
:10641000B2E802105B1A74EB0C04B2E802108D4172
:1064200076EB0C0680E878008041404270BC7047F3
:106430002DE9F00791E8F807B2E802105B1854EB79
:106440000C04B2E802104D4156EB0C06B2E8021003
:106450004F4158EB0C08B2E8021059EB01095AEB16
:106460000C0A80E8F80780410130BDE8F00770476A
:106470002DE9F00791E8F807B2E802105B1A74EB17
:106480000C04B2E802108D4176EB0C06B2E8021063
:106490008F4178EB0C08B2E8021079EB01097AEB36
:1064A0000C0A80E8F80780414042BDE8F0077047D9
:1064B0002DE9F007524290E87800B1E880071740D4
:1064C000DB1918EA020854EB080419EA020955EB33
:1064D00009051AEA020A56EB0A0678C090E8780025
:1064E000B1E8800717407B4118EA020854EB080422
:1064F00019EA020955EB09051AEA020A56EB0A06DF
:1065000078C080410130BDE8F00770472DE9F00701
:10651000524290E87800B1E880071740DB1B18EA88
:10652000020874EB080419EA020975EB09051AEA76
:10653000020A76EB0A0678C090E87800B1E8800796
:106540001740BB4118EA020874EB080419EA020973
:1065500075EB09051AEA020A76EB0A0678C0804153
:106560004042BDE8F007704790E8300091E8C00075
:10657000A31B1340E41AF618EB1B1340ED1AFF1887
:1065800030C0C0C17047F0B55242FFF7EDFFFFF7D2
:10659000EBFFFFF7E9FFFFF7E7FFF0BD2DE9F0079D
:1065A0003AC91668A1FB069A4FF0000CE3FB06AC53
:1065B0004FF00007E4FB06C74FF00008E5FB067844
:1065C00040F8049B56684FF00009E1FB06A9E3FB85
:1065D00066C9E4FB6679E5FB668940F804AB96681A
:1065E0004FF0000AE1FB06CAE3FB667AE4FB668A29
:1065F000E5FB669A40F804CBD6684FF0000CE1FB4F
:10660000067CE3FB668CE4FB669CE5FB66AC80E8FD
:106610008017BDE8F00770470A462DE9F04F40ECBF
:10662000171A92EC080A1EC910EE100AA1FB007896
:106630004FF00009E2FB00894FF0000AE3FB009AEB
:106640004FF0000BE4FB00AB12EE100A4FF0000C11
:10665000E1FB00BC4FF0000EE2FB00CE4FF0000566
:10666000E3FB00E54FF00006E4FB005604EE107A71
:1066700010EE900A4FF00007E1FB0087E2FB609705
:10668000E3FB60A7E4FB60B712EE900AE1FB60C792
:10669000E2FB60E7E3FB6057E4FB606704EE908A8F
:1066A00011EE100A4FF00008E1FB0098E2FB60A831
:1066B000E3FB60B8E4FB60C813EE100AE1FB60E89E
:1066C000E2FB6058E3FB6068E4FB607805EE109A3B
:1066D00011EE900A4FF00009E1FB00A9E2FB60B95E
:1066E000E3FB60C9E4FB60E913EE900AE1FB60594B
:1066F000E2FB6069E3FB6079E4FB608905EE90AA48
:1067000017EE101A01F110011EC910EE100A4FF019
:10671000000AE1FB00BAE2FB60CAE3FB60EAE4FBCB
:10672000605A12EE100AE1FB606AE2FB607AE3FB5A
:10673000608AE4FB609A06EE10BA10EE900A4FF001
:10674000000BE1FB00CBE2FB60EBE3FB605BE4FBF7
:10675000606B12EE900AE1FB607BE2FB608BE3FB77
:10676000609BE4FB60AB06EE90CA11EE100A4FF09E
:10677000000CE1FB00ECE2FB605CE3FB606CE4FB23
:10678000607C13EE100AE1FB608CE2FB609CE3FB93
:1067900060ACE4FB60BC07EE10EA11EE900A4FF02B
:1067A000000EE1FB005EE2FB606EE3FB607EE4FB5B
:1067B000608E13EE900AE1FB609EE2FB60AEE3FBAD
:1067C00060BEE4FB60CE17EE900AA0EC074A80E8BA
:1067D000E05FBDE8F08F00BF30B44FF0000310F869
:1067E000014B11F8015B013A84EA050443EA040312
:1067F000F5D1A3F101034FEAD37030BC70474FF0DD
:10680000000310F8012B013943EA0203F9D1A3F187
:1068100001034FEAD370704711F8013B00F8013BC8
:10682000013AF9D17047002200F8012B0139FBD160
:10683000704700BF2DE9F00791E8F807B2E80210B1
:106840005B1854EB0C04B2E802104D4156EB0C06F9
:10685000B2E802104F4158EB0C08B2E8021059EBB5
:1068600001095AEB0C0A8941B3F1FF3374F1FF348B
:1068700075F1FF3576F1000677F1000778F1000831
:1068800079F101097AF1FF3A51F100014A425B18AE
:106890004C414D4156F1000657F1000758F10008F0
:1068A00059EB02095AEB010A80E8F807BDE8F00746
:1068B00070472DE9F00791E8F807B2E802105B1A7B
:1068C00074EB0C04B2E802108D4176EB0C06B2E8D2
:1068D00002108F4178EB0C08B2E8021079EB010945
:1068E0007AEB0C0A89414A425B184C414D4156F102
:1068F000000657F1000758F1000859EB02095AEB5E
:10690000010A80E8F807BDE8F00770470A462DE95C
:10691000F04F40EC171A92EC080A1EC910EE100A4C
:10692000A1FB00784FF00009E2FB00894FF0000A5C
:10693000E3FB009A4FF0000BE4FB00AB12EE100AF1
:106940004FF0000CE1FB00BC4FF0000EE2FB00CE6C
:106950004FF00005E3FB00E54FF00006E4FB0056B6
:1069600004EE107A10EE900A4FF00007E1FB00876A
:10697000E2FB6097E3FB60A7E4FB60B712EE900ACE
:10698000E1FB60C7E2FB60E7E3FB6057E4FB6067A5
:1069900004EE908A11EE100A4FF00008E1FB009817
:1069A000E2FB60A8E3FB60B8E4FB60C813EE100AEA
:1069B000E1FB60E8E2FB6058E3FB6068E4FB6078C1
:1069C00005EE109A11EE900A4FF00009E1FB00A9C4
:1069D000E2FB60B9E3FB60C9E4FB60E913EE900AF7
:1069E000E1FB6059E2FB6069E3FB6079E4FB6089ED
:1069F00005EE90AA17EE101A01F110011EC910EE53
:106A0000100A4FF0000AE1FB00BAE2FB60CAE3FBA8
:106A100060EAE4FB605A12EE100AE1FB606AE2FBF6
:106A2000607AE3FB608AE4FB609A06EE10BA10EE2F
:106A3000900A4FF0000BE1FB00CBE2FB60EBE3FBC5
:106A4000605BE4FB606B12EE900AE1FB607BE2FBB3
:106A5000608BE3FB609BE4FB60AB06EE90CA11EE3B
:106A6000100A4FF0000CE1FB00ECE2FB605CE3FB82
:106A7000606CE4FB607C13EE100AE1FB608CE2FBCF
:106A8000609CE3FB60ACE4FB60BC07EE10EA11EE37
:106A9000900A4FF0000EE1FB005EE2FB606EE3FB4C
:106AA000607EE4FB608E13EE900AE1FB609EE2FBE9
:106AB00060AEE3FB60BEE4FB60CE53EC162A17EE3B
:106AC000104A12EB0A0253EB0B0354EB0C0455EB88
:106AD0000E05002040F1000012EB0B0253EB0C03FB
:106AE00054EB0E0455EB0E0546410020474158EB90
:106AF000000859EB0A0940F10000B2EB0E0273F1F5
:106B0000000374F1000475EB0A0576EB0B0677EBD6
:106B10000C0778EB0A0879EB0C0960F10000B5EB83
:106B20000B0576EB0C0677EB0E0778EB0B0879EB91
:106B30000E0960F100005FEAE07C7FEA0C0CDCF1FA
:106B4000000EB2EB0C0273EB0C0374EB0C0475F14A
:106B5000000576F1000677F1000778EB0E0879EB77
:106B60000C0960F100005FEAE07CDCF1000E12EB42
:106B70000C0253EB0C0354EB0C0455F1000556F1D9
:106B8000000657F1000758EB0E0859EB0C0940F1CD
:106B900000005FEAE07CDCF1000E12EB0C0253EB2C
:106BA0000C0354EB0C0455F1000556F1000657F1A7
:106BB000000758EB0E0859EB0C095BEC14AA51ECDA
:106BC000150A1AEB060A5BEB070B50EB080051EBBA
:106BD00009015FF0000C4CF1000C1AEB070A5BEBAB
:106BE000080B50EB090051EB090152EB0C025FF06E
:106BF000000C53EB0C0354EB0C0475414CF1000CEE
:106C0000BAEB090A7BF1000B70F10000B141BA4107
:106C100073EB0803B44175EB08056CF1000CC91B5C
:106C200072EB080273EB0903BC4175EB09056CF1CB
:106C3000000C5FEAEC787FEA0808D8F10009BAEBAB
:106C4000080A7BEB080B70EB080071F1000172F190
:106C5000000273F1000374EB090475EB08056CF195
:106C6000000C5FEAEC78D8F100091AEB080A5BEB3C
:106C7000080B50EB080051F1000152F1000253F1F2
:106C8000000354EB090455EB08054CF1000C5FEAD6
:106C9000EC78D8F100091AEB080A5BEB080B50EB13
:106CA000080051F1000152F1000253F1000354EBCE
:106CB000090455EB080517EE907AA7E8000C87E861
:106CC0003F00BDE8F08F00BF2DE9F00791E8F8071D
:106CD000B2E802105B1854EB0C04B2E802104D410C
:106CE00056EB0C06B2E802104F4158EB0C08B2E824
:106CF000021059EB01095AEB0C0A4FF0260261EB26
:106D0000010122EA01015B1854F1000455F100056C
:106D100056F1000657F1000758F1000859F1000933
:106D20005AF1000A61EB010122EA01010B4480E8FB
:106D3000F807BDE8F00770472DE9F00791E8F8077C
:106D4000B2E802105B1A74EB0C04B2E802108D4139
:106D500076EB0C06B2E802108F4178EB0C08B2E833
:106D6000021079EB01097AEB0C0A4FF0260261EB75
:106D7000010102EA01015B1A74F1000475F10005DA
:106D800076F1000677F1000778F1000879F1000943
:106D90007AF1000A61EB010102EA0101A3EB0103B0
:106DA00080E8F807BDE8F00770470A462DE9F04F84
:106DB00040EC171A92EC080A1EC910EE100AA1FB4B
:106DC00000784FF00009E2FB00894FF0000AE3FB76
:106DD000009A4FF0000BE4FB00AB12EE100A4FF0EC
:106DE000000CE1FB00BC4FF0000EE2FB00CE4FF0C8
:106DF0000005E3FB00E54FF00006E4FB005604EE5F
:106E0000107A10EE900A4FF00007E1FB0087E2FBDA
:106E10006097E3FB60A7E4FB60B712EE900AE1FB2A
:106E200060C7E2FB60E7E3FB6057E4FB606704EEEA
:106E3000908A11EE100A4FF00008E1FB0098E2FB87
:106E400060A8E3FB60B8E4FB60C813EE100AE1FB46
:106E500060E8E2FB6058E3FB6068E4FB607805EE05
:106E6000109A11EE900A4FF00009E1FB00A9E2FB35
:106E700060B9E3FB60C9E4FB60E913EE900AE1FB53
:106E80006059E2FB6069E3FB6079E4FB608905EE31
:106E900090AA17EE101A01F110011EC910EE100A87
:106EA0004FF0000AE1FB00BAE2FB60CAE3FB60EAD4
:106EB000E4FB605A12EE100AE1FB606AE2FB607AC2
:106EC000E3FB608AE4FB609A06EE10BA10EE900ACB
:106ED0004FF0000BE1FB00CBE2FB60EBE3FB605B00
:106EE000E4FB606B12EE900AE1FB607BE2FB608BDF
:106EF000E3FB609BE4FB60AB06EE90CA11EE100A68
:106F00004FF0000CE1FB00ECE2FB605CE3FB606C2B
:106F1000E4FB607C13EE100AE1FB608CE2FB609CFA
:106F2000E3FB60ACE4FB60BC07EE10EA11EE900AF4
:106F30004FF0000EE1FB005EE2FB606EE3FB607E63
:106F4000E4FB608E13EE900AE1FB609EE2FB60AE14
:106F5000E3FB60BEE4FB60CE4FF0260153EC142A45
:106F60004FF00000E6FB0120E7FB613057EC156AAB
:106F7000E8FB6160E9FB617059EC168AEAFB61800D
:106F8000EBFB619017EE10AAECFB61A0EEFB6150E9
:106F900000FB01F0121853F1000356F1000657F1FF
:106FA000000758F1000859F100095AF1000A55F19B
:106FB000000B60EB000021EA0000024417EE900A8B
:106FC00080E8CC0FBDE8F08F2DE9F00791E8F017CD
:106FD0004EF6A1514FEA4101A4FB01234FF00004FA
:106FE000E5FB01344FF00005E6FB01454FF00006DC
:106FF000E7FB01564FF00007E8FB01674FF0000880
:10700000E9FB01784FF00009EAFB01894FF0000A23
:10701000ECFB019A4FF026010AFB01FA12EB0A027F
:1070200053F1000354F1000455F1000556F1000638
:1070300057F1000758F1000859F100096AEB0A0AF4
:1070400021EA0A010A4480E8FC03BDE8F007704722
:107050002DE9F00390E8F8134FEAEC7202F0130206
:107060002CF0004C02F11301591854F1000155F1B4
:10707000000156F1000157F1000158F1000159F1EA
:1070800000015CF100014FEAE17101F013011144CC
:107090005B1854F1000455F1000556F1000657F154
:1070A000000758F1000859F100094CF1000C2CF0D0
:1070B000004C80E8F813BDE8F00370472DE9F05F5D
:1070C0000546002092469B46884606468146402457
:1070D0001BE0284641464746224600F088F85346C2
:1070E0005A46C01A914110D311461846224600F064
:1070F00016F82D1A67EB01084F46224601200021A1
:1071000000F00DF817EB00094E41201EA4F1010418
:10711000DFDC484631462A464346BDE8F09F202A38
:1071200004DB203A00FA02F1002070479140C2F1DE
:10713000200320FA03F3194390407047004870473A
:107140002899030010B5441A0346944209D28418C2
:10715000114403E011F8013D04F8013D521EF9D23B
:1071600010BD40EA0104A40703D009E010C9121FB2
:1071700010C3042AFAD203E011F8014B03F8014BC3
:10718000521EF9D210BDD2B201E000F8012B491E07
:10719000FBD270470022F6E710B513460A460446B4
:1071A0001946FFF7F0FF204610BD421C10F8011BE6
:1071B0000029FBD1801A704710B5002200E0521C54
:1071C000835C8C5CA34201D1002BF8D1D8B2E1B230
:1071D000401A10BD30B504460020034600E05B1C99
:1071E000934203D2E05CCD5C401BF8D030BD202A36
:1071F00004DB203A21FA02F00021704721FA02F361
:10720000D040C2F120029140084319467047000067
:10721000064C074D06E0E06840F0010394E80700E3
:1072200098471034AC42F6D3FEF7EEFFD0BB030014
:10723000F0BB030070B58C1810F8015B15F0070364
:1072400001D110F8013B2A1106D110F8012B03E0FF
:1072500010F8016B01F8016B5B1EF9D12B0705D407
:107260000023521E0DD401F8013BFAE710F8013B50
:10727000CB1A921C03E013F8015B01F8015B521E6C
:10728000F9D5A142D8D3002070BD00002DE9F0410E
:107290000446B0B00D460A46684604F120070021B6
:1072A00000F0C0F804F140083A46214610A804F165
:1072B0006006FFF77BFD4146324618A8FFF776FDD2
:1072C0004246394620A8FFF771FD3246214628A8DC
:1072D000FFF76CFDEB0F20466A4610A900F034F969
:1072E00030B0BDE8F08100BF2DE9F0410446B0B0F8
:1072F0000D460A46684604F12007012100F092F885
:1073000004F140083A46214610A804F16006FFF750
:107310004DFD4146324618A8FFF748FD4246394622
:1073200020A8FFF743FD3246214628A8FFF73EFD7F
:10733000EB0F20466A4610A900F006F930B0BDE810
:10734000F08100BF2DE9F041B0B0044600F1200704
:1073500068460D4604F1400800F098F804F1600614
:107360003A46214610A8FFF721FD4146324618A8AB
:10737000FFF71CFD4246394620A8FFF717FD3246AD
:10738000214628A8FFF712FDEB0F20466A4610A9F8
:1073900000F0DAF830B0BDE8F08100BF70B5A0B001
:1073A000044601F1200668460D46FFF7FEFC314613
:1073B00008A8FFF7FAFC05F1400110A8FFF7F5FC5B
:1073C00010AA11461046FFF77FFC694618A800F086
:1073D00007FC324629462046FFF776FC2146204628
:1073E000FFF7E3FC6A4621462046FFF7A5FC04F1BF
:1073F000400508AA21462046FFF79EFC284608AA19
:1074000018A9FFF761FC10AA294604F12000FFF734
:1074100093FC08AA18A904F16000FFF78DFC20B0C6
:1074200070BD00BF2DE9F04102EBE27585EAE2751F
:1074300082B00C460021064600F1200700F0C6FB92
:10744000691EC90F384600F0C1FB0F4B03EB442403
:1074500040344FF0010885EA0802013AD20F214674
:107460003046019208F10108FFF722F804F12001EB
:10747000019A3846FFF71CF8B8F1090F04F14004EF
:10748000E9D102B0BDE8F081F0B403002DE9F0418C
:1074900001EBE176074682B086EAE176002100F052
:1074A00095FB07F12008711EC90F404600F08EFBC6
:1074B0000C4D012486EA0402013AD20F29463846CF
:1074C00001920134FEF7F4FF05F12001019A4046D4
:1074D000FEF7EEFF092C05F14005EBD102B0BDE847
:1074E000F08100BF30B90300F0B5D1E908328E6AEF
:1074F000CD69144F8DB00C46110F41EA06114FEAC9
:10750000137C1B014CEA021C43EA15733A460546FC
:10751000029104A86946360FCDF804C00093039683
:10752000FFF73CF8009B21461B0704AA28460B9353
:10753000FEF79EFFEA693946D20F2846FEF7B8FFEC
:107540000DB0F0BDD0B403002DE9F0410D46A2B05E
:107550001646044620312A4602A81F4606F1200896
:107560000191FFF7E9FB01992A460AA8FFF7ACFB56
:107570004146324612A8FFF7DFFB414632461AA8C1
:10758000FFF7A2FB3A461AA912A8FEF7FCFF02A9D0
:1075900012AA0846FFF70AFC0AA91AAA0846FFF72A
:1075A00005FC4246314612A8FFF700FC12A905F17E
:1075B00060020846FFF7FAFB12A90846144AFFF7D3
:1075C000F5FB05F1400211461AA8FFF77DFB02AA60
:1075D0000AA92046FFF7B0FB04F1200502AA0AA978
:1075E00004F16000FFF770FB4034284612AA1AA984
:1075F000FFF7A2FB12AA1AA92046FFF765FB3A463D
:1076000029462046FEF7BFFF22B0BDE8F08100BF4B
:1076100030BB03002DE9F047CC7F91F800A0C2B049
:107620000B4604F03F04D1F80110D3F809E0D3F879
:107630000DC0D3F80580D3F81560D3F81950D3F8EE
:107640001170CDF8491044F04004114681462AF0EB
:10765000070202A893F81DA09B7FCDF851E0CDF85A
:1076600055C08DF866308DF867408DF84820CDF80C
:107670004D80CDF85D60CDF86150CDF859708DF832
:1076800065A000F087FA202202A91AA8FFF7C4F823
:1076900002A8012100F09AFA0AA8002100F096FA47
:1076A0001AA922A82022FFF7B7F82AA8012100F082
:1076B0008DFA1AAE0DF148080624002516F8017D52
:1076C00047FA04F32A4603F001056A4022A902A8FA
:1076D0000192FEF758FF019A2AA90AA8FEF753FF64
:1076E0000AAA02A932A8FFF7EFFA0AAA104602A9CD
:1076F000FFF722FB2AAA22A93AA8FFF7E5FA2AAA4D
:10770000104622A9FFF718FB3AA908460AAAFFF774
:107710004DFB2AA9084632AAFFF748FB3AAA2AA934
:1077200022A8FFF7D1FA2AA93AAA0846FFF704FBD4
:1077300022A90846FFF739FB2AA90846FFF735FBBF
:107740002AA91AAA0846FFF731FB32A90846FFF713
:107750002CFB0AA93AA8FFF728FB3AAA32A902A8EB
:10776000FFF724FB32A93AAA0846FFF7E5FA32A947
:107770000AA8FFF729FC0AA908463AAAFFF7A4FAC3
:107780000AA9013C32AA0846FFF710FB631C97D1F7
:1077900046454FF0070491D10AA90846012200F09E
:1077A00031FA02A90AAA0846FFF700FB02A94846D7
:1077B00000F03AFB42B0BDE8F08700BF014AFFF796
:1077C00029BF00BFB0B1030070B500F1200690B032
:1077D0000D46044600F05CFB05F12001304600F048
:1077E00057FB214608A8FFF791F808A908460C4A5C
:1077F000FFF720F808A922460846FFF788F808A9ED
:10780000084A0846FFF716F831466846FFF77EF843
:10781000694608A82022FEF7DFFF013810B070BDCE
:1078200050BB030070BB03002DE9F043BBB0894699
:107830008046114612A8514AFEF71AFE50490246E8
:1078400012A8FEF735FE199E4C4900EAD676074687
:10785000C6F1010212A8FEF72BFE199D4A462AA97D
:107860001AA8ED4301F016F8ED0F22A9C5F10102A7
:10787000084600F0F1FAC7F10107FE2402AA1AA98E
:107880002AA800F0BBFF62113AAB03EB820204F0BE
:107890001F0152F8A03CCB402A4603F001056A4084
:1078A0002AA91AA80192FEF76EFE019A32A922A80F
:1078B000FEF769FE013C2AA91AA800F039FF631CF3
:1078C000DCD1C5F101020AA822A900F0C5FA754071
:1078D00002AA1AA92AA800F091FF2AA92A461AA8E2
:1078E000FEF751FE2A4632A922A8FEF74CFE0AA94D
:1078F00002AA0846FFF70BF80AA9084600F0E2FAC8
:107900000AA908F1200409F120020846FEF7FFFF4A
:1079100022A90AAA2046FEF7FAFF0AAA1AA902A873
:10792000FEF7F5FF02A90846FEF7F0FF1AAA02A922
:107930000AA8FEF7ECFF214602A8FEF7E7FF0AAA15
:1079400002A91046FEF7B5FF0E4A0AA902A8FEF7E3
:10795000B0FF20462021FEF752FF0AA9434202460B
:1079600002A81F43FEF70FFE4046074A02A9FEF792
:10797000CEFF38463BB0BDE8F08300BFB0BB03008C
:1079800090B4030070BB0300B0B403000A46014981
:10799000FFF74ABFD0B1030000F044BB38B504463E
:1079A0000D4600F03FFB05F1200104F12000BDE889
:1079B000384000F037BB00BF70B5A8B00546684638
:1079C000164600F09DFB3146044618A8FFF7FCFE62
:1079D0006A46034618A908A81C43FFF725FF08A913
:1079E00004432846FFF7D8FF204628B070BD00BFEB
:1079F00030B599B00546684600F082FB69460446FA
:107A000008A8FFF7C3FF08A904432846FFF7C6FFED
:107A1000204619B030BD00BF10B52022B0B00446DA
:107A20000DEB020000F098FB9DF83F309DF8202000
:107A300003F07F0343F0400322F0070208A96846E1
:107A40008DF83F308DF8202000F006FB694618A81D
:107A500000F028F818A9204600F002F830B010BD58
:107A600030B599B004460D4610A84031012200F00F
:107A7000C9F8294610AA6846FFF798F910AA05F137
:107A8000200108A8FFF792F908A9204600F0CCF9D8
:107A9000684600F093F8E37F83EAC010E07719B0FE
:107AA00030BD00BF2DE9F041B0B0E8460446404685
:107AB00000F002FB04F140069DF93F102046FFF75D
:107AC000E5FC3046012100F081F804F120070DF1BA
:107AD0001505214610A8FFF761FC18AA10A9204639
:107AE000FFF764F928AA20A93846FFF75FF920AA12
:107AF00018A93046FFF75AF9214610A8FFF74EFCA7
:107B000018AA10A92046FFF751F928AA20A938463B
:107B1000FFF74CF920AA18A93046FFF747F921468C
:107B200010A8FFF73BFC18AA10A92046FFF73EF962
:107B300028AA20A93846FFF739F920AA18A9304603
:107B4000FFF734F9214610A8FFF728FC15F9011DAD
:107B500010A8FFF79BFB95F9151010A8FFF7C4FBC1
:107B600095F92A1010A8FFF7EDFB18AA10A92046D6
:107B7000FFF71CF928AA20A93846FFF717F920AA11
:107B800018A93046FFF712F9A845A2D130B0BDE8D8
:107B9000F08100BF0B6803604B6843608B688360B3
:107BA000CB68C3600B6903614B6943618B69836177
:107BB000CB6923F00043C361704700BF10B5044692
:107BC000FFF746FA206800F0010010BD0023C0E96D
:107BD0000013C0E90233C0E90433C0E9063370473B
:107BE00030B589B0002400250A466946CDE9004534
:107BF000CDE90245CDE90445CDE90645FFF79CF8FE
:107C000009B030BDF0B5A1B00446684616460D4631
:107C1000FFF7CBF8694618A8FFF7C7F818A9084678
:107C2000FFF7C3F82A4618A908A8FFF7BFF86A4665
:107C300008A96846FFF7BAF8694618A8FFF7B5F82B
:107C400008AA104618A9FFF7B1F808A918A8FFF765
:107C5000ACF818A90846FFF7A8F818A90846FFF7D6
:107C6000A4F818A90846FFF7A0F818A90846FFF7D6
:107C70009CF808AA18A91046FFF798F8022708A947
:107C800000E0012718A8FFF790F818A90846FFF7A9
:107C90008CF818A90846FFF788F818A90846FFF7D6
:107CA00084F818A90846FFF780F8012F18A9E8D131
:107CB00010A808AAFFF77AF8042710A918A8FFF758
:107CC00074F818A90846FFF770F818A90846FFF7D6
:107CD0006CF818A90846FFF768F818A90846FFF7D6
:107CE00064F8013F18A9E9D110AA0846FFF75EF829
:107CF000022700E0012718A90846FFF756F818A93F
:107D00000846FFF752F818A90846FFF74EF818A9D9
:107D10000846FFF74AF818A90846FFF746F8012F6A
:107D2000E8D118A908AA10A8FFF740F80A2710A957
:107D300018A8FFF73AF818A90846FFF736F818A967
:107D40000846FFF732F818A90846FFF72EF818A9D9
:107D50000846FFF72AF8013F18A9E9D110AA08A898
:107D6000FFF724F8142708A918A8FFF71EF818A988
:107D70000846FFF71AF818A90846FFF716F818A9D9
:107D80000846FFF712F818A90846FFF70EF8013F5A
:107D900018A9E9D108AA0846FFF708F80A2718A980
:107DA0000846FFF702F818A90846FEF7FEFF18A9D3
:107DB0000846FEF7FAFF18A90846FEF7F6FF18A9CD
:107DC0000846FEF7F2FF013FE9D118A9084610AABC
:107DD000FEF7ECFF18A9084666B9FEF7E6FF18A9FA
:107DE0000846FEF7E2FF2A4618A92046FEF7DEFF06
:107DF00021B0F0BDFEF7D9FF18A90846FEF7D5FF60
:107E000018A90846FEF7D1FF18A90846FEF7CDFFCE
:107E100018A90846FEF7C9FF6A4618A92046FEF7CA
:107E2000C5FF21B0F0BD00BF38B50C460546084679
:107E3000FFF70EF923682B6063686B60A368AB6083
:107E4000E368EB6023692B6163696B61A369AB61D4
:107E5000E369EB6138BD00BF70B588B004460D46DC
:107E6000684620211646FEF7DEFC00232946204600
:107E700020220093FEF7D0FC2A4669466846FEF7AA
:107E800018FD324669462046FEF77DFB08B070BDFE
:107E90000B681BBAC3614B681BBA83618B681BBA42
:107EA0004361CB681BBA03610B691BBAC3604B69A2
:107EB0001BBA83608B691BBA4360CB691BBA036032
:107EC000704700BF70B598B00C46054610A8FEF785
:107ED0001DFD224610A96846FEF719FD694610A847
:107EE000FEF714FD10A90846FEF710FD6A4610A91A
:107EF00008A8FEF70CFD08A910A8FEF707FD10A9B9
:107F00000846FEF703FD10A90846FEF7FFFC10A97E
:107F10000846FEF7FBFC10A908AA0846FEF7F7FC86
:107F200010A90846FEF7F2FC10A90846FEF7EEFC81
:107F300010A96A4608A8FEF7EAFC052608A910A8B9
:107F4000FEF7E4FC10A90846FEF7E0FC013E10A98C
:107F5000F5D108AA0846FEF7DAFC052610A908465E
:107F6000FEF7D4FC10A90846FEF7D0FC013EF5D17F
:107F700010A908AA0846FEF7CAFC10A908A8FEF72F
:107F8000C5FC08A90846FEF7C1FC08A96A46684670
:107F9000FEF7BDFC1026694610A8FEF7B7FC10A935
:107FA0000846FEF7B3FC013E10A9F5D1224608466B
:107FB000FEF7ADFC402610A90846FEF7A7FC10A965
:107FC0000846FEF7A3FC013EF5D110A96A46084613
:107FD000FEF79DFC102610A90846FEF797FC10A995
:107FE0000846FEF793FC013EF5D110A96A46084603
:107FF000FEF78DFC102610A90846FEF787FC10A995
:108000000846FEF783FC013EF5D110A908AA0846F0
:10801000FEF77DFC224610A92846FEF778FC18B032
:1080200070BD00BFCB691BBA03608B691BBA43608C
:108030004B691BBA83600B691BBAC360CB681BBA60
:1080400003618B681BBA43614B681BBA83610B6881
:108050001BBAC361704700BFF0B54B078DB01AD192
:10806000D1E90023D1E90245CDE90023D1E9046734
:10807000D1E90623CDE90245CDE90467CDE9062320
:108080000022002300246946CDE908230A94FFF763
:108090002BFA0DB0F0BD4C688A68CB680E694D694B
:1080A000019402928C69CA6903930B680093CDE92D
:1080B0000465CDE90642E3E7F0B40025471E2C46EF
:1080C0002E46E30814F0070F08BF51F8235005F0BF
:1080D0000F03334403F1080202F47F6601349B1B53
:1080E0003F2C4FEA121607F8013F4FEA1515C2F36D
:1080F0000712E6D12A4480F83F20F0BC704700BF49
:1081000070B50B68124E1BBAC3614B681BBA836112
:108110008B681BBA4361CB681BBA03610B691BBA3E
:10812000C3604B691BBA83608B691BBA4360CB6920
:108130001BBA0360324601460446FEF799F905462C
:10814000314620462A46FEF7B3F9681E70BD00BFCF
:1081500090BB0300000000002DE9F04F0FF2E80B88
:10816000DBE900AB0FF2E809D9E90089B3B0CDE94A
:1081700000ABCDE902890FF2E00BDBE900AB0FF2B7
:10818000E009D9E90089CDE904ABCDE906890FF210
:10819000D80BDBE900AB0FF2D809D9E90089CDE9AA
:1081A00008ABCDE90A890FF2D00BDBE900AB0FF287
:1081B000D009D9E900890025CDE90CABCDE90E89BC
:1081C0000646319230955AB96F464FF0000C314651
:1081D0003846CDF8C0C000F057F833B0BDE8F08F96
:1081E0006F4638461446884600F0B0FB241A844691
:1081F00044440028E9D0431E022B0FD920F003008D
:108200002044234610AA53F8041B42F8041B83425F
:10821000F9D12CF0030565452C44D8D032AB2B4462
:10822000227803F8882C6B1C9C45D0D932AA1344C1
:108230000235627803F8882CAC45C8D932AB1D44AE
:10824000A37805F8883CC2E708C9BCF367E6096A69
:108250003BA7CA8485AE67BB2BF894FE72F36E3CD5
:10826000F1361D5F3AF54FA5D182E6AD7F520E5132
:108270001F6C3E2B8C68059B6BBD41FBABD9831FEC
:1082800079217E1319CDE05BF0B5D0F8C0300446FB
:10829000C218581C8026702883B00D4682F84060B2
:1082A0006FD804F14001C0F17A03022BC0F17B07C3
:1082B0000FD900F14003234427F003021A4400269B
:1082C00043F8046B9A42FBD127F00303BB421844E6
:1082D00011D0231800227A2883F8402000F10103EE
:1082E00009D02344792800F1020683F8402002D007
:1082F000264486F84020D4F8C430580F5A0D84F82C
:10830000BB0084F8BC20580B5A09DB0084F8BD0080
:1083100084F8BE2084F8BF30204600F0A5FCD4E9E4
:10832000002312BA1BBA6A602B60D4E9022312BA86
:108330001BBAEA60AB60D4E9042312BA1BBA6A61C3
:108340002B61D4E9062312BA1BBAEA61AB61D4E906
:10835000082312BA1BBA6A622B62D4E90A2312BA42
:108360001BBAEA62AB62D4E90C2312BA1BBA6A6385
:108370002B63D4E90E2312BA1BBAEA63AB6303B0D2
:10838000F0BD7F2862D8204400227E2B80F8402058
:1083900003F102015AD021447D2B03F1030081F83F
:1083A000402053D020447C2B03F1040180F840206E
:1083B0004CD021447B2B03F1050081F8402045D0AF
:1083C00020447A2B03F1060180F840203ED021445E
:1083D000792B03F1070081F8402037D02044782B17
:1083E00003F1080180F8402030D02144772B03F1BD
:1083F000090081F8402029D02044762B80F84020C5
:1084000003F10A0122D02144752B03F10B0081F8FE
:1084100040201BD02044742B03F10C0180F8402035
:1084200014D02144732B03F10D0081F840200DD0AE
:108430002044722B03F10E0180F8402006D0214425
:10844000702B81F8402001D184F8BF2004F1400155
:108450002046019100F008FC7A2801997FF623AFAD
:1084600049E700BF2DE9F04F93B0A1F108030C9349
:10847000D2E90EB30D93136B0393536B0493936A7A
:108480000593D36A069393690E93D3690F93936808
:108490000193D368099313690793D2E90876D2E967
:1084A000005A53690893034680330A90119300954C
:1084B000B44602975646CDF840B008E000990093C4
:1084C0000B9B0996019106460293CC461F460A99DA
:1084D0000C9C059DF4E90289F1E802ABB80BBB0CDA
:1084E0000A910C9440EA8C40039CF90543EA8C33D2
:1084F0001AEB080E83EA000341EA5C214BEB090BFF
:108500004B4084EA05094FEA9C304FEA9C414FEA10
:10851000CC58049D41EA873148EA572840EA874011
:1085200009EA0709069F484085EA07040399009F66
:1085300004EA0C0413EB0E0389EA010984EA05043A
:1085400080EA08003D464FEA17784FEA877E4FEAF7
:108550004761019F4BEB000013EB090344EB000064
:10856000B946109C2F4645EA090B079D1B194FEA97
:1085700016794FEA86740BEA050B49EA07193D465E
:1085800044EA9704019F05EA070A0D9D099F40EB05
:10859000050528460E9D5D1948EA06180B954EEA1A
:1085A000960E009D88EA0E0E4FEA466848EAD518F6
:1085B00041EAD611089D8EEA01014BEA0A0A46EA11
:1085C000070E06EA070B0F9F89EA04040EEA050E60
:1085D000059D156340EB0709079D069F576311EB47
:1085E0000A0A84EA08080399049C9163D46395619C
:1085F000029F1091C2E90A7C019F1761009F0599B3
:108600000391C2E902760B9F069917624EEA0B0EA0
:10861000029F089D049148EB0E0E0799D5611AEB55
:108620000303CDE9057C099D019F0E914EEB0000EF
:1086300008990D940F91C2E900305561C2F8249059
:10864000079708950A99119CA1427FF437AF13B0A0
:10865000BDE8F08F2DE9F04FA0F1080685B00025A8
:10866000AA1E02F00F022B46013500EBC20105F0F5
:108670000F0450F832E04A6850F83410073B00EB22
:10868000C40403F00F0300EBC3034FEADE474FEAD5
:10869000CE0BD4F804C04BEA527BD3E9004A47EA38
:1086A00042374FEA9E13F6E9028987EA0B0743EA4D
:1086B00082637B404FEAD24B0393D30014EB080450
:1086C000CDE900894BEA4E3B4FEA112843EA5E7E32
:1086D0004FEA510348EA0C6843EACC738BEA0E0E6A
:1086E0004FEA5C094FEA1C2B83EA080349EAC17987
:1086F0004FEAD1184BEA016B019F039948EA4C6895
:108700004AEB070A8EEA9212611883EA080389EAA3
:108710000B044AEB020284EADC1CC91842EB0C028F
:10872000102DC6E900129BD105B0BDE8F08F00BF47
:10873000F0B599B004460D460A4601466846FEF774
:10874000B8F869466846FEF7E1F821466A4608A887
:1087500005F1200604F12007FEF7D9F86A462946FC
:108760006846FEF7D4F83946324610A8FEF762F89C
:10877000324639463046FEF79CF831462846FEF729
:10878000C5F86A4608A92046FEF754F8224629464D
:108790002846FEF78EF86A4608A96846FEF789F86B
:1087A0006A4639463846FEF7B2F82A4608A96846AE
:1087B000FEF77FF86A4631463046FEF7A8F83A469B
:1087C00031463046FEF775F810A96846FEF79EF868
:1087D000224669462046FEF76CF808A9224608465C
:1087E000FEF767F810A908AA0846FEF790F83A467F
:1087F00010A93846FEF75DF819B0F0BD2DE9F0413B
:108800000C4688B005469046014622466846FEF76B
:1088100050F869466846FEF779F86A4629462846C0
:1088200004F12006FEF773F805F120076A46214699
:108830006846FEF76CF8324630463946FEF739F89E
:1088400031462046FEF762F82A4621462046FEF7CA
:1088500030F86A4621462046FEF72BF86A4629463C
:108860004046FEF726F8424639463846FEF74FF8AE
:10887000224629466846FEF71CF86A4631463046CD
:10888000FEF745F83A4631463046FEF712F808B092
:10889000BDE8F0812DE9F04188B00C46064602F1B2
:1088A0002001684606F120079046FEF72FF86A4639
:1088B00069466846FDF7BEFF38466946FEF726F86A
:1088C0003A463946384604F12005FDF7B3FF6A46BB
:1088D00069466846FDF7AEFF28464146FEF716F8A2
:1088E0006A4641463046FEF712F82A46294668464F
:1088F000FDF7A0FF2A4669466846FDF79BFF124A2E
:1089000069466846FDF796FF69462046FDF7FEFF7B
:10891000324621462046FDF7CCFF3246214620460E
:10892000FDF7C7FF224631462846FDF7C2FF6A46DB
:1089300029462846FDF7EBFF3A4629462846FDF72B
:10894000B8FF08B0BDE8F08150BB03002DE9F04F3F
:10895000BDB07F2A0B9240F279818246A2F1800459
:10896000DAF818300193DAF81C300293DAF8203084
:108970000393DAF824300493DAE90AB3D0E900204B
:10898000DAE9046524F07F0489468034DAE90217C5
:108990004C440593DAE90D8EDAF8303006930A94E8
:1089A000DAF83C30CDF81CB014462A463D4617464E
:1089B000D9F80C200C94D9F8084008940D90119720
:1089C000D9F81400099017BA089A109616BA099A9D
:1089D0000F9515BA019A1292029A1392039A149261
:1089E000049A1592079A1692059A1792069AD9F840
:1089F00004B0D9F800C0D9F81040D9F81C000E9185
:108A0000D9F81810CDE91828CDE91AE3D9F848307B
:108A10000193D9F854300293D9F850300393D9F820
:108A20005C300493D9F858300593019BD9F8208025
:108A3000D9F82CE0D9F84C209BFA8BFB9CFA8CFCE3
:108A400024BA00BA09BA1BBACDE91CBCCDE91E761E
:108A5000D9F824B0D9F828C0D9F83470D9F83060E2
:108A6000CDE92054CDE92201D9F83C50D9F838405D
:108A7000D9F84400D9F840102F93029B1BBA3093C9
:108A8000039B1BBA3193049B1BBA3293059B98FA44
:108A900088F89EFA8EFE9CFA8CFC3FBA36BA2DBA44
:108AA00024BA1BBA9BFA8BFBCDE926ECCDE92876DC
:108AB000D9F860E0D9F86CC0D9F86870D9F874605A
:108AC0003393CDE92A54D9F87830D9F87050D9F8D1
:108AD0007C40CDE924B8D9F8648000BA09BA12BA4A
:108AE0009EFA8EFE9CFA8CFC1BBACDE92C012E92CC
:108AF0001CA90CAA574898FA88F83FBA36BA2DBA7A
:108B000024BACDE9348ECDE936C7CDE93865CDE953
:108B10003A43FFF7A7FC1CA8FFF79CFD0CAA1CA971
:108B20004D48FFF79FFC1CA8FFF794FD0CAA1CA959
:108B30004A48FFF797FC1CA8FFF78CFD0CAA1CA95C
:108B40004748FFF78FFC1CA8FFF784FD45480CAA97
:108B50001CA9FFF787FCDDE90C40DAF80020DAF801
:108B600008300E99119F1419DAF80420CAF8004051
:108B7000DAE9035642EB000059180F9BDAF824207B
:108B800043EB0505109BF618DAF8143043EB0707A2
:108B9000DAF81830CAF814709C46129B1CEB0303D9
:108BA0000193DAF81C309C46139B4CEB030CDAF86B
:108BB0002030CDF808C09C46149B1CEB030C159B81
:108BC000CDF80CC043EB0202019B0492CAE90101FB
:108BD000CAE90356CAF81830029BCAF81C30CAE921
:108BE00008C2169BDAF82820D3180793179ACAF8F8
:108BF0002830DAF82C3053410593189ACAF82C30F3
:108C0000DAF830309B180693199ACAF83030DAF83F
:108C1000343043EB0208DAF838201B9BCAF8348062
:108C200094461A9A1CEB020EDAF83C2042EB03033E
:108C30000A9A09F180099145CAE90EE37FF4B8AEBA
:108C40000B9B03F07F003DB0BDE8F08F10463DB0B8
:108C5000BDE8F08F10B2030090B2030010B3030020
:108C600090B3030010B403002DE9F041D1F804C023
:108C70000D68CC688A684B690F69CE69B0B08046D0
:108C80009CFA8CFC2DBA24BA12BA1BBACDE910C5D5
:108C9000CDE913231294D8E90223D8E900453FBA5D
:108CA00036BACDE91576CDE90045D8E90467D8E9AB
:108CB0000645CDE90223D8E90823CDE90467CDE9CB
:108CC0000645D8E90A67D8E90C45CDE90823886943
:108CD000D8E90E2300BACDE90A67CDE90C45179013
:108CE000CDE90E23CF6A8E6A4D6B0C6BC86B8A6B15
:108CF0004B6CD1F824E0D1F820C03FBA36BA2DBA77
:108D000024BA00BA12BA1BBA1A971B960F6CCE6C13
:108D10001C951D948D6C4C6D1E901F92086DCA6D34
:108D200020938B6D9EFA8EFE9CFA8CFC3FBA36BA6D
:108D30002DBA24BA00BA12BA1BBACDE92176CDE910
:108D40002354CDE92502CDE918EC2793D1F864E04E
:108D5000486FCA6F534CD1F860C0CF6E8E6E0D6FE6
:108D60008B6F00BA11BA9EFA8EFE9CFA8CFC1BBA6D
:108D70006A462C902E91204610A93FBA36BA2DBAD9
:108D80002F93CDE928ECCDE92A762D95FFF76AFBE4
:108D900010A8FFF75FFC6A4610A904F18000FFF7F6
:108DA00061FB10A8FFF756FC6A4610A904F5807015
:108DB000FFF758FB10A8FFF74DFC6A4610A904F511
:108DC000C070FFF74FFB10A8FFF744FC6A4610A9DC
:108DD00004F50070FFF746FBD8F80000009DD8F8B6
:108DE0000410019ED8F80830029CD8F80C20D8F85E
:108DF0001070401946EB0101039DC8F8000004986B
:108E0000C8F804101B190599D8F81440D8F8186050
:108E1000C8F8083045EB0202069B079DC8F80C20F5
:108E20003F1844EB0101D8F81C00089AC8F81070EC
:108E3000D8F82070C8F81410F6180999D8F824301A
:108E4000C8F8186045EB0000BA1841EB0303C8E905
:108E50000702C8F82430D8E90A01DDE90A56D8F833
:108E600030300C9CD8F83420D8F83870401946EBD4
:108E700001010D9DC8F828000E98C8F82C101B1988
:108E80000F99D8F83C40C8F8303045EB020238184A
:108E9000C8E90D2044EB01010020C8F83C1030B0B7
:108EA000BDE8F08110B203002DE9F8430025DFF89A
:108EB00094804FF4807601242F460095304607F0C9
:108EC00051FF38B1D8F80403204203D0304607F0F0
:108ED0003FFF2543361D64007F1CB6B2082FEDD33B
:108EE0004FF4BE74204607F03DFF48B1204607F01E
:108EF0002FFF45F000456A460121002007F0F8FEEB
:108F000015F0FF0F16D0012600242E420ED008EBDC
:108F10008401D1F81005D1F81015C0F304200A4AD5
:108F2000C1F3014152F8242002B190477600641C3D
:108F3000082CEAD3002D02DA68460BF041FDBDE8AB
:108F4000F883000000600040E43F0020064882B043
:108F50000021016000680090044800680449C0B224
:108F6000496802B00847000000D1004008D5004021
:108F70000030002002490248091F096800680847BC
:108F80004830002008F00EBEF0B5A449A4484FF0C8
:108F900080540B68D4F830210078D4F83411551C73
:108FA000C0F3031006D0944601270026BCF1060F3B
:108FB00003D00AE003F0FF0CF6E7B4F82453DFF81F
:108FC00064C2C5F30425CCF80050DDB2062D06D1ED
:108FD000032804D1DFF854C2934DCCF87450551CCB
:108FE00004D09446BCF1060F03D00AE003F0FF0C56
:108FF000F8E7D4F84452DFF838C2C5F34235CCF86C
:109000000050DDB2062D08D1032806D1894DD5F8D0
:1090100000C02CF0807CC5F800C0551C04D09446DC
:10902000BCF1060F03D00BE003F0FF0CF8E74FF0A4
:109030008045C5F80C61C5F810617D4D2D1F2E606F
:10904000DDB2062D08D1032806D1DFF8E4C10325DF
:109050000CF1640CCCF80050DDB2062D10D10328C1
:109060000ED1DFF8D4C10525CCF80050724D78350B
:109070002F60714D08352E600CF104063F253560D8
:10908000551C04D016460D46062E03D05BE0DEB21A
:109090000546F9E7ED1E012D55D9684D2D68684E3E
:1090A0003560664D2D1D2D68361D3560634D0835C4
:1090B0002D68361D3560614D0C352D68361D3560C7
:1090C0005E4D10352D68361D35605C4D14352D68AC
:1090D000361D3560594D18352D68594E203635608E
:1090E000564D1C352D68361D3560544D20352D6884
:1090F000361D3560514D24352D68361D35604F4D78
:1091000028352D68361D35604C4D2C352D68361DA3
:1091100035604A4D30352D68494E40363560474DF3
:1091200034352D68361D3560444D38352D68361D73
:109130003560424D3C352D68361D35603F4D40351C
:109140002D68361D3560551C03D01646062E02D0FC
:1091500007E0DEB2FAE7D4F858523A4E05F04F0570
:109160003560551C03D01346062B02D008E0DBB255
:10917000FAE735480368DB0702D06FF001030360AC
:10918000062A07D1C91E022904D93048016841F4D2
:109190008061016027487438016841F47001016002
:1091A000BFF34F8FBFF36F8FD4E94C104FF01022F5
:1091B000062907D1C01E032804D9D2F808021C4989
:1091C0001C310860D2F80002002803DBD2F8040248
:1091D00000281FDA012009F019FA1521C2F800123F
:1091E0001B480368002BFCD0C2F804120168002958
:1091F000FCD0002009F00AFABFF34F8F0D48F03879
:109200000168144A01F4E06111430160BFF34F8F1C
:1092100000BFFDE7114910480860F0BDE00F00F005
:10922000E80F00F0403501400DF0ADBA00C0074036
:109230003C050040FCED00E0105600400404001026
:1092400020C50040E40E0040000400403C170040F0
:1092500000E401400400FA050090D0030C31002026
:109260000148006800470000F82F002002E008C80D
:10927000121F08C1002AFAD170477047002001E090
:1092800001C1121F002AFBD17047000001212028D4
:1092900003DA81400548014003E0402802DA203823
:1092A000814009B10120704700207047FC06FFBDD6
:1092B0002DE9F843804643F2020659B969460AF09F
:1092C0004BFDB04202D008B100F0C6F99DF8000095
:1092D000800744D4002140460AF048FD05003ED0F6
:1092E000112D3CD01F482049401AC708022000EB2E
:1092F00007440D2D0AD00B2D1DD0B5421FD11B499F
:1093000020464246BDE8F84307F038BF20464246B3
:10931000174907F033FF1321404676DF00281ED09F
:1093200008F0FCFC024601B020464346BDE8F0438D
:1093300010A107F02ABF204642461C49E2E7284612
:1093400008F0ECFC0246012000EB0740434618A160
:1093500007F01BFF2846BDE8F84300F07DB9BDE8E3
:10936000F883000060BC030008BC0300F0A2030007
:109370007CA2030073645F626C655F6761705F6409
:109380006973636F6E6E65637428292072657475E6
:10939000726E6564202573206F6E20636F6E6E5F42
:1093A00068616E646C652025642E00003CA3030098
:1093B000417373657274696E672E20706D5F636FA1
:1093C0006E6E5F73656375726528292072657475AA
:1093D000726E6564202573206F6E20636F6E6E5F02
:1093E00068616E646C652025642E000010B560B164
:1093F00059B102780B785208B2EB530F05D106220F
:10940000401C491CFDF7E6FE08B1002010BD0120FC
:1094100010BD800701D00020704701207047C3684D
:109420008B4206D811440069491E814201D80120AF
:10943000704700207047000010B50CF0F5F80020D0
:1094400001F0E8FB0321094800F01DFD08B100F020
:1094500003F907480749BDE81040401AC008032136
:1094600001EB004004A107F085BE0000B4330020EA
:10947000E0BC030008BC0300416476657274697344
:10948000696E670090F82400012801D01F20704702
:10949000EE20704710B501220221002001F080FC6F
:1094A00008B1072810D107220221012001F078FC21
:1094B00008B1072808D100210A22084601F070FCF3
:1094C00008B1072800D1002010BD70B58CB015463A
:1094D0000E4600236C46C3F10F01415CE1545B1C56
:1094E000102BF8D30D2104F11000FDF753FE0020DE
:1094F000C0F10F02315C2244401C11740328F7D3E1
:10950000684646DF0020C0F10F01214491F8201089
:109510002954401C0328F6D30CB070BD022001F082
:109520005FBB00000149C97800F070BEC02F002069
:1095300070B50024064D06E06868012110F834007B
:1095400008F01AFC641C28788442F5D3002070BD12
:1095500008300020F8B516460C4605460A2A01D206
:109560000720F8BD08F002FD18B908F0C5FC002876
:10957000F7D1134F102113487D603C70BE60FDF79A
:1095800009FE0020C7E904000F4E0DE005EBC40002
:109590003168009181788DF8011000780B4A694696
:1095A00008F03AFC0028DCD1641EE4B2EED2BDE83B
:1095B000F84005480021064A001D00F05FB8000091
:1095C00008300020B04000205C73030009CE020088
:1095D000D5B9020072B607F085FE00BF07F0AEFCF9
:1095E0000028FBD111481249401AC408012000EBA1
:1095F000044010A107F0BEFD11480068C00700D06C
:1096000000BE022000EB04400EA107F0B3FDBFF343
:109610004F8F0B48E43801680E4A01F4E0611143B2
:109620000160BFF34F8F00BFFDE70000E0BC030007
:1096300008BC0300466174616C206572726F720031
:10964000F0ED00E053797374656D20726573657495
:10965000000000000400FA050EB500210091CDE9DC
:1096600001106A4644F20100FFF7B4FF0EBD00008E
:10967000014802F0EEBA0000283000203AB100683C
:109680000129426100D000210161002070470720BC
:109690007047000038B511480823582241680091EE
:1096A0000F49006805F089FC002815D10D4A69466C
:1096B0000D4802F0D3FA04000ED101210A4802F04D
:1096C00048FB0123094A1946074802F09AFA06495D
:1096D000012008390870204638BD0000647303007B
:1096E000D0400020E553030028300020FFFF7F001A
:1096F00070B50446007F0D4608B1002070BDA26120
:1097000003F068FB401941F10001C4E9020120693E
:1097100000B125612146BDE8704000200CF0F2BE8A
:1097200001460020087701200CF0ECBE30B5EFF3C5
:10973000108172B60D4A9468012324B10370002988
:1097400000D162B630BD93604FF0E023D3F8805172
:10975000074C25401560C3F88041D3F8844154601C
:109760005A17C3F8842100220270E8E7284100203C
:10977000FC06FFBD0B498A68002A11D000280FD1D2
:10978000EFF3108072B60B684FF0E022C2F80031A0
:109790004B68C2F8043100228A60002800D162B60A
:1097A00070470000284100202DE9F0410646086876
:1097B0000C46411C4FF0A0474FF0010506D005FABA
:1097C00000F1C7F80815206807F06CFA6068411CC2
:1097D00002D0002107F054FA3168A069C1F82405CD
:1097E000607D227D31681043C1F86C05D4E9001218
:1097F0003068C0F81425C0F80C15207D012815D15B
:10980000A068411C02D0002107F03AFAE068411C30
:1098100005D08540C7F80855E06807F043FAD4E959
:1098200002123068C0F80825C0F81015BDE8F081B4
:109830002DE9F041064608680C46411C4FF0A04750
:109840004FF0010506D005FA00F1C7F808152068A9
:1098500007F032FA6068411C02D0002107F019FAC3
:109860003168A069C1F82405607D217D3268084314
:10987000C2F86C05D4E900123068C0F80C15C0F8C5
:109880001425207D012815D1A068411C02D000219B
:1098900007F0FFF9E068411C05D08540C7F808557E
:1098A000E06807F009FAD4E902123068C0F8082528
:1098B000C0F81015BDE8F08104F03EB92DE9F0477D
:1098C000814605884A484FF000088AB00178424630
:1098D000284600F0B3FC99F80500400701D40021A8
:1098E00076E005F58077B8B205AB0122072109F0D3
:1098F00089FE04003F48404A4FF00101A0EB0200FE
:109900004FEAD00001EB00460AD0204608F006FAE4
:10991000024630462B46394907F037FC214629E0FC
:10992000284603F0D9FD4FF6FF71044688422BD13B
:109930008A46069803F03AFD0446504510D0014689
:10994000284603F0A9FD2846FFF7ECFDE0B92846BC
:109950000CF066F82846FFF7E5FD0028BFD013E0BD
:109960000AF026F80446504508D1304624A107F0F5
:1099700001FC042128460CF081F8B0E70146284696
:1099800003F08AFD4FF00108B8B22246072109F022
:10999000B1FE07001BD0862F1ED008F0BFF902468B
:1099A00030462B462349009407F0F7FB39462846FA
:1099B0000CF064F80021484609F01CFDB8F1000FD6
:1099C00002D0204603F072FD0AB0BDE8F087012105
:1099D000484609F00FFDF7E7142217496846FDF7DE
:1099E000B1FBADF80250684602F0DAFBEFE7000089
:1099F000C02F002068BC030008BC030038A6030089
:109A0000436F756C64206E6F7420616C6C6F636162
:109A10007465206E657720706565725F6964206685
:109A20006F7220696E636F6D696E6720626F6E641E
:109A30002E00000054A70300207203002DE9FC470C
:109A4000002517880646158090F82D001446894693
:109A500030B13A462146484600F08AFC051E09D13D
:109A6000B0784FF00C0A18B32088C846001DB842E1
:109A700002D95046BDE8FC87684679DF0028F9D155
:109A80002088032108F8001020881921401C80B28A
:109A9000208008F800102088401C80B2208000EB55
:109AA0000801BDF800000CF0FCFE2188084420806D
:109AB000F0780222C8B1218896F9033001F1030C35
:109AC0004846BC45D5D8425421884FF0010C491C6A
:109AD00089B2218000F801C02188491C89B2218007
:109AE00009F801302088401C20807068B8B12188B6
:109AF00090F9003001F1030C4846BC45B9D84254F6
:109B000021880A22491C89B2218042542188491C9B
:109B100089B2218009F801302088401C20803089DA
:109B200050B1CDE900474B460622022106F108005C
:109B30000CF0A6FF051E9DD1308A50B1CDE900473B
:109B40004B460722032106F110000CF099FF051E79
:109B500090D1308B50B1CDE900474B4615221421EE
:109B600006F118000CF08CFF051E83D1306A30B16D
:109B70003B462246494601F02BFD051EDBD1706AAB
:109B800030B13B462246494604F05AFA051ED2D16E
:109B900096F82C0038B13B462246494630460CF038
:109BA000A9F8051EC7D1307838B13B462246494650
:109BB000304605F06BF9051EBDD128465AE7F8B5C9
:109BC00006464FF000001500ADF8000015D009233F
:109BD0006A46304600F025F80446BDF80000064409
:109BE00058B154B12846FDF7E0FAA04205D122460B
:109BF00031462846FDF7EEFA08B10020F8BD0120F5
:109C0000F8BD18B504460020ADF8000013466A46BA
:109C1000204600F006F8002802D0BDF800002044DD
:109C200018BD70B5E0B1DAB1002402E0045D2C4447
:109C3000A4B2651C8D4206D21688A642F6D8061933
:109C400076789E42F2D18C420AD2A31C005D9BB270
:109C500000B1401E0004000C02D01C188C4201D937
:109C6000002070BD138070BD2DE9F0418AB006461A
:109C70000020ADF814001346102088468DF804002B
:109C80000D4606AA01A9184664DFA6B398BB9DF845
:109C90000400022804D0042807D0102839D10DE090
:109CA00003208DF81000022003E005208DF810003D
:109CB00004208DF81100002404AF0FE007208DF878
:109CC00010000620F5E73B5D05AA41463046FFF748
:109CD000A8FF641CE4B20546022C04D2BDF81400AF
:109CE0000028F0D003E0BDF81400002812D080B2A4
:109CF000064400240BE00CE030199DF8042006A96E
:109D0000FDF768FA48B19DF80400204484B2AC42E3
:109D1000F2D300200AB0BDE8F0810120FAE780F814
:109D2000301070472DE9F0410D00044606D02CB1EB
:109D300095F87A000026012803D006E00E20BDE841
:109D4000F08195F89800012829D0D5F8A0000428C2
:109D500025D0D5F89C00042821D04FF00108A6702A
:109D60002C2205F17801201DFDF7ECF984F8306014
:109D7000D5F8A4006063D5F8A800A0634FF6FF7083
:109D8000A4F8240404F58260C4F82004C4F826640E
:109D9000A4F82A6484F82C64207810B104E0072029
:109DA000CDE7FF2084F8540004F155072046C4F89D
:109DB0001074FFF767FBA4F8140404F21442394648
:109DC0002846FFF73BFE0028B9D104F23120C4F841
:109DD00018042046FFF756FBA4F81C0404F21C42AA
:109DE00005F13C00D4F81814FFF728FE0028A6D18E
:109DF00084F85180208BA4F8480084F83C802664C5
:109E000084F85060606900216064454604F13C02BA
:109E1000781E72DF002892D1257090E710B5028875
:109E2000102A1BD0112A20D0262A1DD1007A0C46D8
:109E3000012801D0022817D1A0780521401CB0FBD1
:109E4000F1F201FB1201204600F01DF800280BD0B2
:109E5000A16B002908D0BDE810400847C27B012A49
:109E600002D18088A1F8240410BD0C46002184F89A
:109E70002E148088B4F824148842F5D12079002863
:109E8000F2D10121DFE72DE9F05F044600780F46AB
:109E900098B1A7700025C4F82654A4F82A5484F871
:109EA0002C54A079012608B1012F09D0E07980B1A6
:109EB000012F05D0022F03D00BE00820BDE8F09F52
:109EC000616B21B184F82D640820884701E084F893
:109ED0002D5404F2274100200A5C0AB1304603E009
:109EE000401C0628F8D300204FF002084FF0030B67
:109EF000012F06D0022F0CD0032F0FD0042F15D125
:109F000010E0A17929B194F8241011B908B13046B4
:109F10000DE0E17911B108B1404608E0207A08B1BE
:109F2000584604E0607A08B1042000E02846A0709A
:109F3000616B41B1032801D0042804D1607910B1CC
:109F400094F82E0498B184F82F5404F13C001821A1
:109F50000746FDF71FF984F83C6004F12C0009F076
:109F600059FE58B194F82C0084F8510008E084F8A8
:109F7000305484F82F6407208847E6E784F851605E
:109F800094F8240058B104F1280009F043FE20B1F0
:109F900094F8280084F8520001E084F8526084F8B4
:109FA0005050A27804F2264104F582694FF0060A67
:109FB000052A64D2DFE802F07C030F22420084F815
:109FC0003160C4F82054C4E9101584F83C80802026
:109FD000A4F8480055E084F8318094F824203846ED
:109FE00012B10722027001E080F800B0228A82815B
:109FF000C4F820544160E168B96042E06069B8602B
:10A00000208BB88194F824003D460028204602D0D9
:10A0100084F83CA001E084F83C600CF0FDFC50B1F9
:10A0200085F814800421204602F0F3FA38BB05219C
:10A0300084F8311021E084F831B01EE0E069B860A6
:10A04000208CB88194F824003D460028204602D098
:10A0500084F83CA001E084F83C600CF0DDFC48B1E1
:10A0600085F814800421204602F0D3FA38B984F828
:10A0700031A002E0042084F83100C4F82094A078D4
:10A0800078B13A4604F15400D4F8201472DF002865
:10A090007FF414AF94F8301094F8540073DF002864
:10A0A000F6D1616B11B194F831008847002005E7C3
:10A0B00084F83150F5E7000070B5040012D0014675
:10A0C0001C221448FDF73EF81248134D0560206825
:10A0D00050B17ADF002806D1206801682960406805
:10A0E000686005E00E2070BD0B487BDF0028FAD1C8
:10A0F00008484FF6FF711438084A20F8041B054938
:10A10000343901600021FFF7B9FA0028EBD00320B1
:10A1100070BD00000C390020F82E0020B16903004A
:10A1200010B5044600F0A6F8002805D02146BDE889
:10A130001040024804F0C0BF10BD000038390020B4
:10A1400070B515460E4604460CF072FC002809D086
:10A15000054800EB8400C0692A463146BDE87040DE
:10A1600002F084BA70BD00002839002010B5044602
:10A1700000F080F8002805D02146BDE810400248D4
:10A1800004F09ABF10BD00004039002010B504460D
:10A1900000F070F8002805D02146BDE810400248C4
:10A1A00004F08ABF10BD00003C39002070B50546A0
:10A1B000002400F05FF838B12946044804F07CFF21
:10A1C00008B1022400E00124204670BD343900208B
:10A1D00070B50546002400F04DF838B12946044812
:10A1E00004F06AFF08B1022400E00124204670BD9B
:10A1F0003039002010B51821034804F038FF182822
:10A2000000D0C0B210BD00002839002070B505464E
:10A210000C4608460CF00CFC60B1284600F02AF809
:10A2200040B10548294600EB8400BDE870401C3071
:10A2300004F042BF002070BD2839002070B50546EB
:10A2400016460C4608460CF0F3FB00280ED02846B4
:10A2500000F010F8002809D00548324600EB8400D1
:10A260002946BDE870401C3002F0CEB970BD000038
:10A2700028390020142801D30020704701460148E6
:10A2800004F01ABF2C39002070B540B10C4D29786C
:10A2900039B104460AF0F0FF28B1002070BD0E204D
:10A2A00070BD082070BDE868062807D205492268FD
:10A2B00001EB8001401C0A60E860EEE7042070BDFD
:10A2C000002F0020A439002010B558B103684BB10D
:10A2D00042683AB1044900200124C8600C70C1E909
:10A2E000013210BD0E2010BD002F0020002827D005
:10A2F000002925D0134A1278002A21D00A46018865
:10A30000112911D0302907D0322909D0332917D18A
:10A31000011D104608F0DCBC011D104608F06EBEA1
:10A32000011D104608F0E4BB8088B2F8CA128842CA
:10A3300006D1002082F8C8024FF6FF70A2F8CA02C8
:10A3400070470000002F002048B1084A137843B13D
:10A35000D26832B190F8C8222AB1112070470E207D
:10A3600070470820704701F0F3BB0000002F002069
:10A370007CB5054608880C460930904201D90C206E
:10A380007CBD68466DDF0028FAD12188082068541A
:10A3900020881B21401C80B2208029542088401C2A
:10A3A00080B220802844DDF801100160BDF805105E
:10A3B00081802088801D80B220809DF8001049088F
:10A3C00000D0012129542088401C208000207CBD21
:10A3D0002DE9F843044680888046FFF7E7FE0746EC
:10A3E0002088102818D1DFF88C9004F10806002589
:10A3F00019F8351069B109EBC50032784178490880
:10A40000B1EB520F05D10622711C801CFCF7E2FE55
:10A4100090B16D1C022DEBD32146404608F0D2F9D5
:10A42000012F21D0022F02D020881D2817D12046CD
:10A43000BDE8F84308F012B9CDF80080012F10D024
:10A440000DA310A211481249401AC008032101EBC4
:10A450000040104906F0A1FE1321404676DFBDE81A
:10A46000F88308A304A2EDE72046BDE8F84308F00E
:10A47000DBBA000058380020504552495048455238
:10A48000414C000043454E5452414C00E0BC030097
:10A4900008BC03002C99030010B51A4C01886068B1
:10A4A00010290ED011292BD1401E606028D1FEF753
:10A4B000F1FF002824D02168002921D0BDE81040F8
:10A4C0000847D0B900210122084600F069FC08B114
:10A4D00007280FD107220221012000F061FC08B1FA
:10A4E000072807D104220221002000F059FC20B1E6
:10A4F000072802D0216801B188476068401C60606D
:10A5000010BD0000F02E00202DE9F04701883B4EE1
:10A5100040F2F3194FF6FF7510291BD011293ED0D8
:10A52000122954D0502946D1C188F289841D914204
:10A5300041D1618902293ED18688304603F07AF8FC
:10A54000050038D004F10C0000F062FAA8B32946E7
:10A5500030464EE0C17B8788044601292BD1A846AE
:10A56000284603F067F8050017D02F8000202872D6
:10A57000234843464A460168C5F80A104068C5F8B2
:10A580000E0004F1100105F10A0003F017F96872DA
:10A59000F08900280FD129462AE0042013E08088A2
:10A5A00003F048F8040006D06068FFF7B9F808B176
:10A5B0000BF048FA2580BDE8F087FFE76868FFF7F1
:10A5C000AFF80028F7D0BDE8F0470BF03BBA87881A
:10A5D0000646384603F02EF80400ECD02B464A46D7
:10A5E00006F1080104F10A0003F0E8F86072214660
:10A5F0003846BDE8F04701F031B800000C390020C2
:10A60000F82E00202DE9F04F044686880188424844
:10A6100097B0834610290CD0112950D01030192939
:10A620006AD01A2974D1217A0C09042C4DD3012245
:10A630004CE0394D083DA868C0430B9069680BA8F1
:10A6400004F061FD0B990CA800F0A3FF2C220CA9CB
:10A650006846FCF777FD0027E946A84610E000BFF2
:10A6600009EB47005FF00005B0F804A008EB850097
:10A670005146001D04F0E0FC6D1C1E2DF6D37F1C1E
:10A680000098B842ECD8142E05D317B00420BDE8CA
:10A69000F04FFEF7E1BF3146584604F018FD314651
:10A6A00008F1040004F013FDE07B022830D117B05C
:10A6B0003146BDE8F04F1848001D04F008BD17B042
:10A6C0003146BDE8F04F04F0B7BC0022314601F03E
:10A6D0009BFF032C01D3012200E000220E483146EB
:10A6E0000C3001F091FF022C01D3012200E0002286
:10A6F00009483146083006E0217A002908D1617AFC
:10A70000C1F3C002314617B0BDE8F04F01F07CBF85
:10A7100017B0BDE8F08F00003039002010B50446B6
:10A720000748007800280AD0204602F0B1FD2046F4
:10A730000BF03CFB2046BDE8104002F0EFB810BD26
:10A74000502F002038B1018012B11268C0F80220E9
:10A75000006904F027BE0E207047000030B589B0B4
:10A7600000B3044601258DF8205000208DF821000B
:10A7700020216846FCF70EFD0B48CDE902048DF858
:10A7800000506088ADF812000220ADF8160008A84D
:10A7900006908DF8105022886946206904F03AFE30
:10A7A00009B030BD0E20FBE7A3C6020008B5B8B162
:10A7B000B1B101228DF8022041F60D02ADF8002062
:10A7C0000A6882604A68C260896801614FF6FF7159
:10A7D00001800021418081806846FFF755FD08BD5A
:10A7E0000E2008BD0A460146100012D0002910D0E4
:10A7F0000A88112A03D0392A0BD108F0ADBB028890
:10A8000089888A4205D14FF6FF710180002141807D
:10A810008180704730B50446008C8BB0A0F57F4234
:10A82000FF3A23D005AA204602F02CFC0546ADF8DD
:10A830000000002001900290039004902189ADF85F
:10A8400004100121ADF808008DF8061005A8CDF818
:10A850000CD00490208C01A9AEDF002804D1BDF8F3
:10A860000010A94200D00C200BB030BD0820FBE73F
:10A87000F0B504468FB008682060087960714FF623
:10A88000FF702084002084F82200A4F84C001427D4
:10A89000012684F84E708DF8226041F60D000D46B9
:10A8A000ADF82000A21D08A93046A8DF002847D136
:10A8B00020216846FCF76EFC42F63720ADF8000018
:10A8C000ADF8047009AA0021204602F0DBFBADF8C8
:10A8D000060009A802908DF80C609DF80D0004F1A7
:10A8E000080240F010008DF80D00287B8DF8130051
:10A8F000E088694600F098FC002821D1A868F0B1F2
:10A9000020216846FCF746FC42F63820ADF804608A
:10A91000ADF80000ADF80660A86802909DF80D0043
:10A9200004F1100240F002008DF80D00687B8DF8F4
:10A930001100E088694600F077FC002800D1002073
:10A940000FB0F0BD38B50288102A15D0112A15D0E5
:10A95000502A16D130F8062F8B899A4211D10C4615
:10A96000418902290DD1216800290AD00C3000F05C
:10A970004FF838B1002006E0808801E04FF6FF7004
:10A98000088438BD01208DF8000022686946204601
:10A99000904738BD30B50A788DB0002A36D18A8804
:10A9A000A2F5C0530D3B31D18A79012A2ED18DF801
:10A9B00000204A88ADF80220002242F637240B7AA4
:10A9C00013E000BF02EBC20501EB4505ED89A5428E
:10A9D0000AD102EBC20201EB42010A8BADF804205E
:10A9E000C98AADF8061002E0521C9342EAD80188E9
:10A9F000A1F57F42FF3A06D0418821B9818811B97B
:10AA00000199C0F802108268694690470DB030BDC8
:10AA1000007800F0010070472DE9F04FADF53F7D63
:10AA200014460E468346B2F5C07F05D96FF0370055
:10AA30000DF53F7DBDE8F08F4FF4D0716846FCF70F
:10AA4000A9FB68A803F041FB200E8DF81000200C34
:10AA50008DF81100200A8DF8120020208DF81700C3
:10AA600006AD8DF81340224631462846FCF76AFBB6
:10AA70008020285504F119080020BAA90854401C68
:10AA80001028FBDB802268A803F024FB070051D1CB
:10AA90000025AA466E46CDF8B8A2CDF8BCA2CDF8E6
:10AAA000C0A244460DF52E79CDF8C4A217E00020CF
:10AAB0004946335C0A5C5A400A54401C1028F8DBB3
:10AAC0001036102C01D3102000E02046241AAEAB23
:10AAD0001A46012168A803F0E5FA07002AD1002CE4
:10AAE000E5D1B2A828441022AEA9FCF72BFB9DF8B3
:10AAF00003001035401C8DF80300202DCADB802296
:10AB0000B2A968A803F0E6FA070013D1B6AE5C4616
:10AB1000002533461A46012168A803F0C3FA07004E
:10AB200008D1102231462046FCF70CFB10341035BA
:10AB3000202DEEDB68A803F0C1FA4FF4D07168460F
:10AB400004F03EF92021B2A804F03AF91021BAA885
:10AB500004F036F91021AEA804F032F91FB120211B
:10AB6000584604F02DF9384662E700000649095CB2
:10AB70004FF0A040D0F81005C84010F0010000D000
:10AB8000012080F001007047247003002DE9FC4192
:10AB90000646C0074FF000050ED0104F00240122DA
:10ABA000385D009500231146019506F00FF8641CEE
:10ABB000042CF4D300F046F8B0070DD5074E00245E
:10ABC000361D0022305D032300951146019505F0E6
:10ABD000FDFF641C042CF4D3BDE8FC81207003004D
:10ABE00007490B5C4FF0A041D1F8042501209840A3
:10ABF00020EA0203C1F808351040C1F80C0570477F
:10AC0000207003000249085C012106F096B800009C
:10AC1000207003000249085C002106F08EB8000095
:10AC2000207003000649095C4FF0A040D0F80405ED
:10AC3000C84010F0010000D0012080F001007047F2
:10AC40002070030010B500242046FFF7DBFF641CD2
:10AC5000042CF9D310BD10B500242046FFF7DAFF0D
:10AC6000641C042CF9D310BD10B50246064B4FF0FE
:10AC7000FF3000215C5C944201D1084610BD491CA4
:10AC80000429F7D310BD00002470030070B50C4EEA
:10AC90000C004FF0000530600BD0012000F05AF896
:10ACA00008B1022004E0002000F054F800B10B20AD
:10ACB0002070706810B9FEF7EDFB0546284670BDA0
:10ACC000F02E00202DE9F0470D468146FFF7CCFF1E
:10ACD0000446042836D2DFF874801B481C4EA8F1C5
:10ACE0000C0725B3012D0ED0022D2BD104EB44000F
:10ACF00030444578002D25D0B968002922D0284657
:10AD0000BDE8F047084704EB4401755C0E447178D8
:10AD100049B10E4A4FF48041093A8068FEF7E8FCD9
:10AD200008B987F80390B17808F80410E2E7806862
:10AD3000FEF7F6FC04EB4401314418F804008D786A
:10AD4000A842D7D0BDE8F08728700300EC2E002081
:10AD5000A8380020042801D2FFF708BF0020704760
:10AD600010B50E2803D00F2817D1002011E057216D
:10AD70000A48FFF74FFD58B1082809D0132807D01B
:10AD8000112805D043F20141884201D0FEF764FC4E
:10AD90000120BDE8104008F019B910BD1C33002097
:10ADA00070B50023042810D20D4D00EB4004012A99
:10ADB00002D101290CD00022094E00EB40003044A2
:10ADC00061B1012906D0022906D00723184670BDBB
:10ADD0000E30C2B22A55F9E74270F7E78270F5E704
:10ADE000A838002070B506461E480024C0E901615D
:10ADF000B00720D50025012211462846FFF7D0FFD5
:10AE00006D1C0446042D02D2002CF4D013E094B93A
:10AE100040F2333204211448FEF79CFB04000AD1AF
:10AE2000FEF786FB040006D10F48104A0021001FE0
:10AE3000FEF724FC0446F00712D00120FFF7A6FE1F
:10AE400074B909480A4A00210C38FEF717FC0400BF
:10AE500006D10548074A01210838FEF70FFC0446D1
:10AE6000204670BDE02E00203470030045B1020082
:10AE7000D9D802001D9502002DE9F05F6E4C054601
:10AE800000266078B34618B184F801B002F00CFDDA
:10AE90006A4F4FF47A694FF4C87A4FF00108182DC1
:10AEA00069D2DFE805F00C1313384754696E727BE2
:10AEB000727BC58484848484B3B6B9BCC5C502F0F2
:10AEC000F3FC3868FEF72CFC06465CE00020FFF738
:10AED000A9FE00284FF0000008D0FFF793FE022DD6
:10AEE00002D14FF4E16008E0484606E0FFF792FE29
:10AEF000022D01D1C82000E05046410CC0034FF4A0
:10AF00007A72801841F10001257052000023FCF78D
:10AF1000D5F801462AE00020FFF784FE00284FF014
:10AF2000000004D0FFF76EFE4FF44870E5E7FFF72E
:10AF300071FEDFE70020FFF775FE00284FF00000EC
:10AF400002D0FFF75FFECFE7FFF764FED4E70020F3
:10AF5000FFF768FE00284FF0000002D0FFF752FE16
:10AF600001E0FFF757FE257040F6CD41002238681A
:10AF7000FEF7BEFB064646E00020FFF731FE2570D7
:10AF800008E0002051E025703DE084F801800120B8
:10AF9000FFF726FE002240F26661E8E784F80180B0
:10AFA0000120FFF71DFE00224FF40051DFE7786813
:10AFB000FEF7B6FB0646D5F1110000D02EB10220F7
:10AFC000FFF720FE84F802B01DE0012816D980B2F8
:10AFD000C8214843C117C90341EA5041C0034FF497
:10AFE0007A72801841F1000152000023FCF766F8E4
:10AFF000014600227868FEF77BFB06460220FFF739
:10B0000009FE84F802803046BDE8F09F02F04CFC57
:10B01000B9E702F049FCB4E702F046FC04E002F0B4
:10B0200043FC0020FFF7F6FD0120FFF7F3FDAAE740
:10B03000FFF711FEA7E70000E02E002028700300B4
:10B040002DE9F84F0546861C00208DF8000091463A
:10B050000F464FF0010A6846FEF768FB1B4C04F2EE
:10B060001C4860683860D4E90101194F401A3968FA
:10B07000081A0EE00121404604F03FF802F03EFEBF
:10B080000146404604F039F8D4E90101401A396814
:10B09000081A401C8642EDD8B9F1000F03D00520F4
:10B0A00065F3891002E0062065F39F5061683A68F5
:10B0B000114004EB8101C8606068304460609DF815
:10B0C0000000FEF757FB5046BDE8F88FB84400205B
:10B0D000B030002070B50D4604460A2902D10D217A
:10B0E000FFF7F8FFA0682268411CA1601554D4E95D
:10B0F0000101814204D32046BDE8704005F02BBA1F
:10B1000070BD0000044881684068814201D101207F
:10B110007047002070470000B8440020034630B557
:10B12000074800210478426806E000BF02EBC10036
:10B1300005789D4203D0491CA142F7DB002030BDB9
:10B140000830002000780221FFF7BCBD1CB5044682
:10B1500002F0C2F900236A46092108F095FB052890
:10B1600005D10348012241792046FFF767F81CBD4D
:10B17000102F00201CB504460020009042F6A620A7
:10B18000ADF8000001208DF80200084801AA6946C8
:10B19000006801902046A0DF002805D10448012264
:10B1A00081792046FFF74AF81CBD0000D0700300EB
:10B1B000102F002005494FF0FF32082841F82020C9
:10B1C00002D3084480F8482070470000E43F002084
:10B1D000F0B54FF0FF3512B10023082601E0082337
:10B1E0000C260C4C05E000BF54F823707F1C04D0E3
:10B1F0005B1CB342F8D32846F0BD26185DB286F832
:10B20000305044F82310002AF5D1E11881F84800A5
:10B21000F1E70000E43F00200249084490F93000C3
:10B2200070470000E43F00202DE9F0438146887814
:10B2300091B090460C4600B901208DF83E00208860
:10B24000ADF83C0000250095607C69460AF096FD4B
:10B250006E46A07C711C0AF091FDE07B00289DF8F1
:10B26000020002D040F0080001E020F008008DF854
:10B270000200217C11B140F0100001E020F010002C
:10B280008DF80200217B11B140F0010001E020F0B7
:10B2900001008DF80200217D09B1022100E00121A9
:10B2A00061F342008DF802001C2102A8FBF772FF37
:10B2B000607BC10601D4800617D50E950EAFE07CE9
:10B2C000791C0AF05BFD9DF83800079720F00F000D
:10B2D000401C20F0F00010308DF838009DF83A0046
:10B2E00020F00600801C8DF83A00607B8DF8080085
:10B2F000A07B8DF80900142109A8FBF74BFF0FA8CC
:10B30000CDE90906A088ADF83000A06820B1E0883A
:10B31000ADF82C00A0680D90A06998B30195008845
:10B32000ADF81000A06901AD01A94088ADF8120088
:10B33000A069406806950390A069007B0AF01EFD95
:10B34000A069691C407B0AF019FDA069807A002879
:10B350009DF8060002D040F0080001E020F008004F
:10B360008DF80600A169C97A11B140F0100001E022
:10B3700020F010008DF80600A169097A19B140F09B
:10B38000010002E00DE020F001008DF80600A16947
:10B39000897B09B1022100E0012161F342008DF8AF
:10B3A0000600E06900B10590434609AA02A9484693
:10B3B000AADF11B0BDE8F08330B589B00D46044670
:10B3C00020216846FBF7E6FE94F8C602002300EB56
:10B3D0008001C1EB801094F8C51204EB400041B12C
:10B3E000491EC9B201EBC10100EB4101498A491C68
:10B3F00000E0C188008961F30F0360F31F4303205D
:10B400008DF800000548CDE90204054804932A465A
:10B410006946806803F0FEFF09B030BD01BB020041
:10B42000002F002070B504464FF6FF750A462846E7
:10B43000AC4209D14FF480742146104603F017FE48
:10B4400080B2A0420BD070BDFF2CFCD82146104624
:10B4500003F0FDFD90F0010F01D0204670BD28469D
:10B4600070BD10B5D0E90234D1E90220D11AA04153
:10B4700001D3012010BD002010BD00007CB50E4698
:10B48000202101911C491B4C4978002929D01B49D6
:10B490001B4A90F84930891ACD085BB1024601A9D0
:10B4A00015480091234604F12001001D04F0D6FD4B
:10B4B000002818D0022000EB054012A105F05AFE2A
:10B4C0002021204604F070FF002809D1032000EB62
:10B4D0000540324618A105F051FE0649304681DF8D
:10B4E0007CBD03207CBD224620231146204804F069
:10B4F00001FDE9E7D43A00202C2F002038BC0300DE
:10B5000008BC03004372656174696E6720696E76DA
:10B51000616C69642073686172656420736563722D
:10B52000657420746F206D616B65204C455343201A
:10B530006661696C2E00000043616C6C696E672067
:10B5400073645F626C655F6761705F6C6573635F96
:10B5500064686B65795F7265706C79206F6E2063CB
:10B560006F6E6E5F68616E646C653A2025640000E2
:10B570000073030010B502460020138806E05468EB
:10B5800034F810408C4203D0401C80B28342F6D87D
:10B5900010BD73B58CB00646002000900D9880B1A8
:10B5A00000246D4621460DA803F086FD30B10098B9
:10B5B00005EB400084800098401C0090641C142C13
:10B5C000F0D32C2269463046FBF7BCFD0EB070BDAF
:10B5D0002DE9F04117880646B81D14460D469842DD
:10B5E00002D90C20BDE8F0813188072206290AD350
:10B5F0004FF4486C4FF6FF73614501D9994202D16F
:10B600007088062801D21046ECE7604501D99842BF
:10B61000F9D1994203D0984201D08142F3D8052054
:10B62000E85520881221401C80B2208029542088AF
:10B63000401C80B22080411930880BF032F92188FB
:10B64000084480B22080411970880BF02AF92188C3
:10B65000084420800020C5E7FDF7FEBF38B54A7AD0
:10B660000F4B62B100220A725969002906D00122EB
:10B670008DF80020ADF802006846884738BD0A7A88
:10B6800062B19B684C68024619462046FEF730F8C6
:10B690000028F3D0BDE838400AF0D4B95B68F1E780
:10B6A0000C390020F0B585B016460F4604461D46FD
:10B6B00014220B496846FBF745FD0A488DF80870CF
:10B6C000ADF80240ADF80A608DF80C500178002208
:10B6D0002046FEF7B3FD684600F062FD05B0F0BD00
:10B6E00034720300C02F0020FDF7E2BD026813682A
:10B6F000526831B19A4202D38068801A07E0981AE2
:10B7000070479A4201D3D01A70478068C01A401C13
:10B7100070472DE9F04389B0884604466E462021E3
:10B720003046FBF737FD002504F1200910202118D1
:10B7300011F8012D521C12F0FF020A7002D1401EB6
:10B740000028F4DC334622460121484602F0AAFCD8
:10B75000070017D110351036202DE7DB694618F8A1
:10B7600000200B5C53400B54401C2028F7DB802248
:10B77000484602F0AFFC070004D104AD95E80F0085
:10B7800084E80F002021684603F01AFB09B0384610
:10B79000BDE8F08370B588B006460020059006909D
:10B7A000ADF81410ADF816100190029001AA05A989
:10B7B000304690DF050021D006F0B0FA034611486C
:10B7C00011493246401AC108012000EB01400446ED
:10B7D0000E4905F0DAFCBDF8042012B9BDF80600E8
:10B7E00028B1BDF80630204609A105F0CEFCBDF811
:10B7F00008201AB12046164905F0C0FC08B02846BA
:10B8000070BD000028BC030008BC0300209E03009C
:10B810005468652072657175657374656420545849
:10B820002F5258207061636B6574206C656E67746D
:10B830006820697320746F6F206C6F6E6720627967
:10B840002025752F2575206F63746574732E000095
:10B850006C9E030001460148FFF79CB86C33002042
:10B8600070B504460948012103F062FCBFF35F8F05
:10B870000025002808D1204602F0BAF9002803D19B
:10B88000BFF35F8F0148056070BD00001C2F0020D2
:10B890002DE9FF410C4620B14FF4064004B0BDE84D
:10B8A000F0812079002748F2096538B141F61D562C
:10B8B00001281BD0022826D0681DEFE70220207146
:10B8C00002970397E0680190694601A809F0F4FB2C
:10B8D00050B102988188E18000882081BDF8001075
:10B8E000029809F067FCD9E72846D7E70A4B6A4671
:10B8F0000021A01D09F098FB38B1074918398F6164
:10B90000CF61A842CAD13046C8E703488188019870
:10B9100009F050FCF5E70000683000202DE9F04305
:10B9200089B00F460546914620216846FBF732FC58
:10B9300095F8C60295F8C54200EB8001C1EB801076
:10B9400005EB400604EBC40006EB40013279601CB5
:10B950000A31904232D108AB0022284601F050FF54
:10B9600078B310E0401EA04201D1002004E004EBB7
:10B97000C40006EB40001C308046024608AB284657
:10B9800001F03EFF90B10020387004208DF80000D7
:10B9900008984A46CDE903500C4802900C48694685
:10B9A000806803F037FD09B0BDE8F08395F8C50263
:10B9B0004146401C641C85F8C502E4B23079A042BF
:10B9C000D0D8012038700020EDE7000001BB020054
:10B9D000002F002070B500240F4D10E0686800EBC8
:10B9E000C406307806F07EFA7178012901D0012171
:10B9F00000E000214140307800F026FB641C2878EC
:10BA00008442EBDBD5E90401084303D0BDE8704074
:10BA10000AF094BD70BD00000830002030B59FB022
:10BA20000C4605467C216846FBF7B4FBADF80240A6
:10BA300003208DF80000044801954168002901D0D9
:10BA4000684688471FB030BD002F00202DE9F04127
:10BA5000044690F8C602884600EB8001C1EB8010D6
:10BA600004EB40061746304609F006FC050042D0BC
:10BA7000D4F8CC0206283ED204EBC0107622A0F8FF
:10BA8000D272D4F8CC02314604EBC01000F5357008
:10BA9000FBF758FB0026B8F1000F06D0D4F8CC0213
:10BAA00004EBC01080F8D06206E0D4F8CC1202207B
:10BAB00004EBC11181F8D002D4F8CC0204EBC01021
:10BAC000C0F84C53D4F8CC020C4D401CC4F8CC0246
:10BAD000E96888420FD12746002407E007EBC4112C
:10BAE00001F53470D1F84C138847641CE86884422F
:10BAF000F4D3C7F8CC62BDE8F0810000002F00202D
:10BB0000F0B515469FB0002281F8C822074691F88B
:10BB1000C6020C4600EB8002C2EB801001EB400035
:10BB200009F0AAFB060009D07C2208496846FBF709
:10BB300009FBADF8025068460197B0471FB029468F
:10BB40002046BDE8F040FFF769BF000054700300D5
:10BB5000F0B50D4689B004464FF4BA61FBF71AFB05
:10BB600020216846FBF716FB154E2946B06803F006
:10BB700019FC002821D1A4F8CA52C4F8CC0284F8D8
:10BB8000C70284F8C60284F8C5020E4801272A4677
:10BB90000068206002208DF80000ADF81070206869
:10BBA000CDF812000848CDE902046946B06803F0F8
:10BBB00031FC002801D184F8C87209B0F0BD000042
:10BBC000002F0020A439002001BB020010B5002185
:10BBD000024803F0ADFA80F3100010BDD4480020F5
:10BBE0004FF480328A400168C1F848230068C0F8E9
:10BBF000082370474FF4A07202EB810189B200F074
:10BC000093BA2DE9F04105460E464FF4A07000EBC3
:10BC1000860081B228684FF48034B440984622F000
:10BC20007F47C0F808432868C0F84843286805F0F3
:10BC3000FFFD286800EB8600C0F840752868C0F852
:10BC40004443B8F1000F02D02868C0F80443BDE8AF
:10BC5000F0810068D0F804057047000070B54379A2
:10BC6000234C44F823204279231D03EBC202224CCB
:10BC70001579204A121BD4082DB10825022000EBAB
:10BC800004401EA130E005680A88C5F8082590F92F
:10BC900004208978002A4FEA411104DB02F1E022F6
:10BCA00082F8001405E002F00F0202F1E02282F8AF
:10BCB000141D90F904100122002909DB01F01F0571
:10BCC00002FA05F54909890001F1E021C1F80051A6
:10BCD0004179002503EBC1010A71417943F8310034
:10BCE000032000EB04400EA105F044FA284670BD85
:10BCF00044300020B8BC030008BC03005254432069
:10BD0000696E7374616E636520616C7265616479DC
:10BD100020696E697469616C697A65642E0000003F
:10BD20005254433A20696E697469616C697A65643A
:10BD30002E00000090F90400002809DB00F01F022B
:10BD4000012191404009800000F1E020C0F800127C
:10BD500070470A46022100F06DB94FF4827100F07D
:10BD6000E3B900680121016070470068012141606A
:10BD700070472DE9F05F07460C464FF4A07000EBCA
:10BD800084001FFA80FA38684FF48036A6409B463C
:10BD900022F07F45C0F848633868C0F80863386807
:10BDA000D0F8048500EB8402D2F84095C2F84085B3
:10BDB0005146386805F03CFDA9EB080020F07F40B3
:10BDC000012806D1102005F0CFFF5146386805F054
:10BDD0002FFD3868D0F80485C0F84463A5EB08014E
:10BDE00021F07F413868012900EB840010D0C0F8B1
:10BDF00040553868D0F804156FF07F4C6A1A521E0F
:10BE000022F07F42ACEB0B03934217D362B118E0F0
:10BE10006D1CC0F84055102005F0A6FF3868D0F81A
:10BE2000040540450AD10CE000EB84006D1CC0F80D
:10BE300040553868D0F80405884202D00D20BDE88E
:10BE4000F09F01223146384600F0F4F80020F6E772
:10BE500013460A460021FFF725BC10B508461146D7
:10BE600004F0ABFA002010BD2DE9F843104D0F4649
:10BE700080461E4691466946286803F0B1F80400E2
:10BE800014D01C21FBF786F901202071C4F814900E
:10BE9000380BC4F80080C4E902606946286803F0E2
:10BEA000C0F808F0F3FF0020BDE8F8830420FBE7AA
:10BEB0001074030010B503780022072B06D2DFE8C8
:10BEC00003F005040610202930000A7010BD01237C
:10BED0000B7003898B818388CB81C06888600A746A
:10BEE00010BD02220A7002898A818288CA81C268D2
:10BEF0008A60807D062802D00020087410BD0120D1
:10BF0000FBE703220A70C2888A810289CA81C0685D
:10BF1000886010BD04230B70C0888881CA818A6044
:10BF200010BD0520087010BD70B5064D06460024F2
:10BF300055F8241009B130468847641C042CF7D307
:10BF400070BD00005041002030B50446006887B045
:10BF50000D46806800281FD018216846FBF71AF9A3
:10BF60000195A0680590207910B1012810D107E053
:10BF700001208DF8000020690290E068039005E040
:10BF800002208DF80000E0680003029060690490D0
:10BF9000206881686846884707B030BDF0B585B035
:10BFA00017460C0005463AD0112C38D0082C36D054
:10BFB0001C481D49401AC6080D2C11D0204605F01A
:10BFC000ADFE0246012000EB06402B46174905F066
:10BFD000DCF82A460721684602F0B6FF02941BE00F
:10BFE000022000EB06402A46114905F0C7F82A4610
:10BFF0000321684602F0A8FF27B13878C00701D0B6
:10C00000012000E002208DF8080000208DF80C00CF
:10C0100041F20110ADF80A00684600F0CFF805B013
:10C02000F0BD000070BC030008BC030074A903004D
:10C0300064A803000368C3F84413002A02D0006810
:10C04000C0F80413704700002DE9F84F0E4634493C
:10C05000804601EB5001C007097801D00F0901E0CB
:10C0600001F00F074FF00009424601204946FBF757
:10C0700056F8DFF8B0A004460D46052F4ED2DFE893
:10C0800007F003161B282C00002E47D00121404644
:10C090000AF038F98DF800906846FDF747FB5046E6
:10C0A000D0E904120C431543CAE9044532E00EB14D
:10C0B000022114E0002112E04EB1032140460AF0B3
:10C0C00021F94046BDE8F84F01210AF0C9BC012121
:10C0D00005E0002E22D1042101E02EB103214046CB
:10C0E000BDE8F84F0AF00EB9002140460AF00AF9FF
:10C0F000002140460AF0B4FC8DF800906846FDF738
:10C1000015FB5046E243D0E904341A4024EA050105
:10C11000CAE904219DF80000FDF72CFBBDE8F88F6B
:10C12000B04000200830002010B5006842581AB115
:10C1300005F07EFB012010BD002010BD10B50446A7
:10C14000408801F0C9F9A080024801682046BDE896
:10C1500010400847182F002010B50446808801F0D1
:10C1600005F96080024801682046BDE81040084794
:10C17000282F00202DE9F04107460024064E074DE8
:10C1800005E000BF56F8241038468847641CE8785C
:10C190008442F7DBBDE8F081043E0020502F0020F0
:10C1A00010B50446408801F097F9A0800248016864
:10C1B0002046BDE810400847F471030001490968B2
:10C1C000084700008472030070B586B0044614214D
:10C1D0006846FAF7DFFFA0890125A0F54040ADF8D9
:10C1E000040020782F4E062833D2DFE800F0320317
:10C1F00003032C4AA08900F0EBF930B9E08943F63B
:10C20000FE71A0F54040884223D8A07B8DF808003D
:10C21000207803280FD000208DF80900A068039033
:10C22000606850B109208DF800006068049068468D
:10C2300007F07CFA0DE00120EEE708208DF8000001
:10C240008DF81050F3E7A08900F0C2F908B1E08939
:10C2500030B17078002801D007F0BCFB06B070BD8B
:10C26000606830B10B208DF8000060680290757036
:10C27000DDE70A208DF80000BDF8040007F04EFC51
:10C28000F5E7606848B114208DF8000060680290FE
:10C290004FF6FF70ADF80400C9E713208DF80000D9
:10C2A000F6E700003C2F002038B504460F48007820
:10C2B000B0B1A4F57F40FF380FD0684608F058FCB5
:10C2C00088B10521017001210171C480684608F020
:10C2D0005DFC08F0CDFD002038BD48F2036038BD9C
:10C2E00048F2016038BD48F2076038BD7030002068
:10C2F0000D4808B5007888B1684608F039FC80B16F
:10C3000006210170684608F041FC0848017809B12F
:10C310000121017308F0ACFD002008BD48F2016066
:10C3200008BD48F2076008BD7030002014420020AC
:10C33000F0B587B014216846FAF72CFF304C20780E
:10C3400018B16846FFF7F0FD57E0201D02F0D2FE5D
:10C3500098BB40F6F8700168481C02D14FF01020DD
:10C3600041694FF08050026940694B1C01D100FBCC
:10C3700002F1244800220161A1F54051C160224927
:10C3800004F07EFA002823D121481C238C221F4967
:10C39000006802F012FE06F055FF050016D0022DCF
:10C3A00014D000270126062D14D005A808F0E0FBC4
:10C3B00098B106700C2D1BD200E01EE0DFE805F0FE
:10C3C00018101810181718171812141248F20A60CB
:10C3D00007B0F0BD26706760B3E748F20760F7E783
:10C3E000077105E0032100E00221017100E0067100
:10C3F00005A808F0CBFB08F03BFD0020E8E70000B3
:10C4000070300020103100202074030060410020B3
:10C410008873030038B5040014D0694608F04CFE58
:10C42000B0B1BDF8000000EB80010B4800EB8100CB
:10C43000C16851B1A17A41B1C168491EC1600020F3
:10C44000A07238BD48F2046038BD48F2056038BDBE
:10C4500048F2096038BD0000EC4100201FB501A979
:10C46000684608F0E1FD04B010BD07B513460A4662
:10C470006946002008F0D8FD0EBD07B513460A46F0
:10C480000021684608F0D0FD0EBD20B119B100684A
:10C4900008600020704748F204607047F8B50D4608
:10C4A000040018D0BDB1694608F006FEB0B1BDF871
:10C4B00000000C4900EB800001EB800001210C30F2
:10C4C000666802F01AFE2E6060680C306860012019
:10C4D000A0720020F8BD48F20460F8BD48F209607F
:10C4E000F8BD0000EC41002018B1032300220AF03F
:10C4F00055BC48F204607047022300220AF04EBC8B
:10C50000094910B50A69042A0AD0084A096942F89B
:10C51000210005480121103002F0EFFD002010BD80
:10C5200048F20B6010BD0000503000205041002048
:10C530002DE9F84F044624480078D8B1F4B112210F
:10C540002046FAF727FE0320DFF8809020800025A0
:10C5500004F1100804F10E0A05EB850109EB8106D0
:10C5600030897189084487B2706806F0F5FD0328A8
:10C5700007D009E048F20160BDE8F88F48F2046096
:10C58000FAE72088401E20806088F16808446080B7
:10C590002089718908442081608938446081C7F509
:10C5A0008060A18980B2814200D2A0815346A21D41
:10C5B000211D2846CDF8008008F01AFE6D1CADB292
:10C5C000022DC9D30020D7E770300020EC410020B5
:10C5D00043F6FE71A0F54040884201D80120704723
:10C5E0000020704710B504460078182802D1FDF7E6
:10C5F00001FE207010BD10B504460078182802D145
:10C60000FDF7F8FD207010BD0AB102F060BD02F028
:10C6100013BD70B50D460446B0F81414D0F81004DC
:10C620000122FDF7EEFA00B1057004F13C0204F5B9
:10C63000826104F1540072DF70BD000070B51346D2
:10C6400000220546112900D10122074C33B121797E
:10C65000FDF7F4FD00226178284600E06178BDE82E
:10C660007040FDF7EBBD0000C82F0020F7B517465E
:10C670000E0011D00098002560B1002421466846C4
:10C6800002F01AFD18B1A0B23946B0476D1C641C07
:10C69000142CF3D32846FEBD0020FEBD406808F0F0
:10C6A00013BBC968002900D00847704770B50D4614
:10C6B00001F11004C98A022901D9092070BD04F0D2
:10C6C000B0FE686030B1E2880023A16804F00FFF7B
:10C6D000002070BD042070BD70B50D4601F110043E
:10C6E00089690988102901D9092070BD891C04F0C5
:10C6F00098FE686068B100230222A16804F0F7FE8A
:10C70000A068E16802230288686804F0F0FE002057
:10C7100070BD042070BD000070B510B14FF406402C
:10C7200070BD1C4C0025207B08B1257301E000F092
:10C73000A5F8207808282AD2DFE800F02904080CA0
:10C7400010291422BDE8704000F026B8BDE8704002
:10C7500000F082B8BDE8704000F064B8BDE87040F9
:10C7600000F040B80620207060880A4900EB800085
:10C77000283901EB80004068BDE8704006F042BDFA
:10C78000072020706560BDE8704006F049BD48F2A2
:10C790000E6070BD144200201149F0B48A1C0020C4
:10C7A0000346A1F128050C18A67A4EB1A37200EB3E
:10C7B000800405EB8404E66816B9247C012C0AD0B9
:10C7C000401C80B20228EED30B704B804B60F0BC53
:10C7D00041F61D5070471080F0BC00F03DB80000DD
:10C7E000144200200C48418801EB8102A0F128018D
:10C7F00001EB8201CA6852B105210170074802218C
:10C800008180016800230122054803F09DBF0422B6
:10C8100002704968F6E700001442002078300020DA
:10C820001031002038B50A49084803240B684268D3
:10C83000898803EB810153880470DB1C00201B04F2
:10C8400000909B0B034804F0D3F838BD144200203D
:10C850007830002010310020074910B54888091DA4
:10C8600008F07AFC18B1BDE81040FFF7DBBFBDE867
:10C870001040FFF7B7BF00001442002070B5194CFC
:10C880000121207808281AD2DFE800F00419191CC9
:10C89000252929182089134A401C20810020608006
:10C8A0002073283A00EB800312F8233043B10023B1
:10C8B0002518401C80B2AB720228F3D3217070BDE2
:10C8C0000123F5E76068084940888A88C01C104445
:10C8D0008880022004E000F009F8062000E007202C
:10C8E000207070BD14420020783000200A490948A9
:10C8F0004988026801EB81030749283901EB83016C
:10C900004B6803604A6082880A810222828000208C
:10C910000874704778300020144200202DE9F0435D
:10C92000064680883288DFF85C8185B00746502A49
:10C9300037D010DC5449554B06F10A05A1EB030131
:10C940004FEAD1014FF0020303EB0144352A3AD0FC
:10C95000362A07D168E0522A02D0542AF9D102E0DF
:10C9600001F0EAF882E0142249496846FAF7EAFB46
:10C97000ADF80270384600F0AFFDADF8040000F0ED
:10C9800061FA0022444698F804103846FDF756FC38
:10C990000022E1783846FDF751FC6846FFF7CEFBF0
:10C9A00064E0307B012861D1B07A01285ED1308902
:10C9B000A0F52451023959D10121384601F010F96E
:10C9C00009F0DEFF52E098F80610FDF71FFC002882
:10C9D0004CD0002298F806103846FDF72FFCF2885C
:10C9E000B2F5857F17D012B120462AA10BE02A8824
:10C9F000012A03D0204636A104F0C0FB6A88012A30
:10CA000004D0204641A104F0B9FB04E0A98800222B
:10CA10003846A1DF08B1002125E0012298F807106F
:10CA20003846FDF70BFC21E04FF0000998F807109D
:10CA3000FDF7ECFBD0B1002298F807103846FDF75F
:10CA4000FDFBF28812B1204612A104E0AA88012A57
:10CA500004D020462DA104F091FB03E0A87900B199
:10CA6000012081464946384609F0AEFC002236498D
:10CA700098F80200FDF764FB05B0BDE8F04309F04B
:10CA800031B80000102F002010BC030008BC0300C8
:10CA900028710300556E657870656374656420477E
:10CAA00041545420737461747573207768696C65A0
:10CAB0002067657474696E67204341522063686122
:10CAC000722076616C75653A203078257800000018
:10CAD0004D756C7469706C6520282564292043416C
:10CAE000522063686172616374657269737469630B
:10CAF0007320666F756E642C207573696E67207481
:10CB000068652066697273742E000000556E657842
:10CB1000706563746564204341522063686172618B
:10CB20006374657269737469632076616C756520DE
:10CB30006C656E67746820282564292C2073746FD7
:10CB4000726520302E000000B998020070B50446CE
:10CB50000078002814D1608800F0EEFF6588284630
:10CB600000F032FA28B107480122C1782846FDF7C3
:10CB700065FB6088FEF7EAFABDE8704009F000BF87
:10CB800070BD0000102F002070B5204C00252570CE
:10CB9000FDF730FB6070FDF72DFBA070FDF72AFB61
:10CBA000E070FDF727FB2071FDF724FB6071FDF7B6
:10CBB00021FBA071FDF71EFBE07162780121182AAC
:10CBC00018D0A278182A15D0E278182A12D0227923
:10CBD000182A0FD06279182A0CD0A279182A09D005
:10CBE000182807D004F10C000560BFF35F8F217097
:10CBF000002070BD0648074A801AC00801EB0040BB
:10CC0000054904F0B7FA032070BD0000102F002082
:10CC100010BC030008BC0300E09A03007CB5044686
:10CC20000078082837D1607A58BB207A1C4E4FF61E
:10CC3000FF75012811D0072802D008282BD121E048
:10CC4000A08800F093FB0446A84224D0012100F004
:10CC5000C7FF2046FEF77AFA1DE0A0886A46012148
:10CC600006F086FC68B90198007850B1A08800F001
:10CC70007DFBA8420FD00122F178FDF7DFFA08F022
:10CC800031FF08E0F068012805D1BFF35F8F044948
:10CC900000200C310860BDE87C4009F071BE000046
:10CCA000102F00202DE9F0410D460600174609D04F
:10CCB0005DB1144C14496068884209D048F20250B2
:10CCC000BDE8F08148F21350FAE748F21450F7E754
:10CCD00013462A463146206803F09CFAA0F5054128
:10CCE0007139EDD100221146104603F0F5FA002803
:10CCF000E6D13B462A4631462068BDE8F04103F0C4
:10CD000089BA0000DC2F00206572E54B2DE9F04761
:10CD10000024884607461E461546FF212046DDF8BA
:10CD200020A005E02A5C0AB1295C03E0401C08341D
:10CD3000B042F7D3002049000A0A03D1401C641C0A
:10CD40000828F8D3BFB3BEB3B8F1000148F21050C1
:10CD50002FD0002D2DD03246284600F081FD60B343
:10CD6000DFF86C90534632463946D9F8000003F09C
:10CD700051FA00281DD1E1083846FAF70BFA60078E
:10CD800008D007EBD40004F007030178FF22DA4053
:10CD90001140017041463246384600F061FD0028DE
:10CDA000E0D032463946284600F05AFD0028D9D056
:10CDB0000020BDE8F08701E003E005E048F21350F1
:10CDC000F7E748F21450F4E748F21750F1E7000093
:10CDD000DC2F002010B50B48FEF73BFF094A083A4C
:10CDE000D2E90434C018D2E9063244F10001C31A72
:10CDF00071EB020204D24FF08072801841F1000101
:10CE000010BD00002830002010B5C0B2FEF786F932
:10CE10000446007805F066F801466078012801D0E4
:10CE2000012000E0002090EA010F08D00449D1E978
:10CE30000401084303D1BDE8104009F07FBB10BDD9
:10CE4000083000201CB5054AD2E90212CDE90012D3
:10CE50000022694606F052FD1CBD0000407103002F
:10CE600003484FF6FF718180012101700020704757
:10CE7000202F00202DE9FC41804600F02DFB0024EE
:10CE800003250127A0F57F412646FF3908D06A46D1
:10CE9000082106F06DFB18B90198841D8688056885
:10CEA00032462B4621464046B1DF042804D00828EC
:10CEB00004D00B2808D002E0112000E00020002F51
:10CEC00000D10B20BDE8FC810027A80701D5012572
:10CED000E6E7344303D0002426460325E0E706486E
:10CEE00006494246401AC008012101EB00400449AE
:10CEF00004F044F9E5E7000018BC030008BC030097
:10CF0000A89D03002DE9FC41804600F0E5FAA0F55C
:10CF10007F410646FF390ED001252A466D1C0027A9
:10CF2000ADB26B460821304606F06CFB040006D01B
:10CF3000072C33D033E043F20200BDE8FC810199B5
:10CF400003230A1D0B604046891DB2DF040004D094
:10CF50000C2C09D0052C09D009E0324608211046D6
:10CF600006F0C8FB04461AE0012700E0002408216F
:10CF7000304606F0B5FB70B104F0D0FE0346094818
:10CF800009493246401AC008012101EB0040074917
:10CF900004F0FBF80324002FBFD100E00C2420464E
:10CFA000CBE7000018BC030008BC0300289D030069
:10CFB00004488088A0F57F41FF3901D008F09CBD6E
:10CFC00070470000202F00200EB502A9019100F04B
:10CFD00083FA6A46012106F0CBFA08B100200EBDA3
:10CFE000019800780EBD00002DE9F04107464FF68C
:10CFF000FF761048B3DF78B104F090FE02460E4889
:10D000000E49401AC008012101EB00400C4904F010
:10D01000B5F80320BDE8F081064C43F20305A41ED9
:10D02000324661883846AFDFA842F3D16088401CA1
:10D030006080F5E7222F002018BC030008BC030025
:10D04000DC9C0300428800EB82020C328A4201D948
:10D05000022070478188A1F57F42FF3A06D00188FF
:10D0600021B18068401C01D000207047012070472A
:10D07000884204D20068401C01D001207047002083
:10D08000704700002DE9F0410446407990460025A4
:10D0900000B1042594F8220008B145F00205CAB297
:10D0A000FF2908D9090A88F8012045F0010588F808
:10D0B0000210032602E088F801200226B4F84C0092
:10D0C00008B145F0100500271BE000BF94F84E1092
:10D0D000B21C91420BD2B4F84C0004EB4701C01BC8
:10D0E000420004F124002431FAF72CF80DE004EB9F
:10D0F000470008EB0601808C0870000A4870D6B221
:10D100007F1CB4F84C00B842E0DC34F84C0FC01B74
:10D11000208088F800503046BDE8F081FCF79CBACA
:10D120002DE9F04107462348234A0C46801A097826
:10D13000C008032202EB0045012908D0022936D19C
:10D14000A2882846BDE8F0411CA104F017B8224E81
:10D150003088A0F57F41FF3929D1608830801F4891
:10D1600002F0E2FB08B1FCF777FA1D48FAF71DF868
:10D1700038B11B4A0021194802F024FC08B1FCF721
:10D180006BFA2846328817A103F0F8FF221D318878
:10D190003846FDF7D7FA08B1FCF75EFA3846FDF7D6
:10D1A000DDFA002803D0BDE8F041FCF755BABDE830
:10D1B000F0810000E0BC030008BC030043454E546E
:10D1C00052414C3A20486561727420526174652066
:10D1D0003D20256400000000CC280020E837002016
:10D1E0001470030043454E5452414C3A2048525368
:10D1F00020646973636F7665726564206F6E206367
:10D200006F6E6E5F68616E646C65203078257800A3
:10D210003EB5027802230C46B3EB520F17D1B0F89B
:10D220000110ADF80010C1788DF802108188ADF8BA
:10D23000041080798DF8060002AA01A92046FCF7A7
:10D2400044F9032202A96846F9F7C4FF08B1002097
:10D250003EBD01203EBD000070B50D4604461428B9
:10D2600010D2FDF707F868B1084904EB840001EB20
:10D270004000D0F802102960C188A980007AA87106
:10D28000002070BD43F2020070BD0000BC390020D8
:10D2900070B5018890B0102961D1011D2C2268461B
:10D2A000F9F750FF9DF804004FF6FF76032134464E
:10D2B000B1EB500F2BD006F0DFFA9DF804006D465D
:10D2C00040080ED001280CD0022820D118E00D997A
:10D2D000281D1131FCF78AF818B100BFBDF82C40A9
:10D2E00015E00CAA0BA9072006F09AFA0028EED147
:10D2F0000DE00D99281D491CFFF78AFF0028EDD18C
:10D300000CAA0BA9072006F08BFA0028F1D1BDF872
:10D310000000B44200EB8001124820F8114000EBFD
:10D3200041000199C0F80210BDF80810C1809DF8B5
:10D330000A10017213D0BDF80000ADF82E000020D5
:10D34000ADF83040084E8DF82C000BAD044600BF00
:10D3500056F8241028468847641C022CF8D310B0D5
:10D3600070BD0000BC390020547103002DE9F0416C
:10D370004FF6FF760546B04213D00B4F002400BF96
:10D3800004EB840037F81000A84206D12046FCF7D1
:10D3900071FF10B12046BDE8F081641CA4B2142CCA
:10D3A000EED33046F7E70000BC3900203EB50C460E
:10D3B000054606F061FA0BE0BDF80000A04207D078
:10D3C0002846029900F00EF810B1BDF800003EBDED
:10D3D00001AA6946072006F023FA0028ECD14FF68F
:10D3E000FF703EBD2DE9F0410C46054600F11107E6
:10D3F00001F111061022491C401CF9F7EBFE48B957
:10D40000681C00F023FA28B1601C00F01FFA08B174
:10D41000012400E0002431463846FBF7E7FF3B7863
:10D420000222B2EB530F0CD00321B1EB530F08D003
:10D430003378B2EB530F04D0B1EB530F01D001217D
:10D4400000E00021084201D18C4302D00120BDE858
:10D45000F0810020FBE7018811B9421892780AB1E7
:10D4600001207047491C0829F7D30020704710B5E8
:10D470000C460346FFF7EFFF00280AD018882188E2
:10D48000884205D10822A11C981CF9F7A3FE08B117
:10D49000002010BD012010BD142804D2024A00EB68
:10D4A000800022F810107047BC39002070B5054686
:10D4B000FFF75CFF0446284606F05EF8002808D116
:10D4C000142C06D2034B04EB84024FF6FF7123F8B1
:10D4D000121070BDBC39002010B50446142808D2C3
:10D4E000FCF7C8FE28B1044904EB840031F81000B1
:10D4F00010BD4FF6FF7010BDBC3900203EB504468C
:10D5000006F0BAF90EE0019920464631FFF7AFFF69
:10D5100028B9019920462A31FFF7A9FF10B1BDF8BB
:10D5200008003EBD6A4602A9072006F079F90028E6
:10D53000E9D14FF6FF703EBD10B50A4941600A4877
:10D5400001F0D8FD58B904F03FFB07491C238C2299
:10D55000087404488C39001F006801F02EFD00207B
:10D5600010BD000014740300C04200202DE9F041FA
:10D570002D4F002520B17D604FF40640BDE8F081BD
:10D580000879012258B1294E01280CD0264C4FF0C1
:10D5900002080834022820D0032841D127E00A716C
:10D5A00005F03EFE3AE0002000EB800116F8211065
:10D5B000022908D0401C80B20228F5D33A707D6061
:10D5C00041F61D50DAE700EB800006F8205006EB2C
:10D5D0008000406805F016FE20E00D71A4F804807C
:10D5E000002301221248216803F0AEF816E00D7105
:10D5F000206805F007FE0D4923682831498801EBB2
:10D60000810206EB8201D1F804C0C4F800C04B606F
:10D61000A3880B81A4F8048006F822500028ADD01E
:10D620007D6048F20D60A9E770300020EC410020D9
:10D63000103100200146034802888A4200D00020B1
:10D6400070470000F83800202DE9FC5F0E0083468B
:10D65000DDE90C47C6F1000098469246814600D4A9
:10D660000846012503E000BF90FBFAF06D1C504511
:10D67000FADAA84500D9454624B1002E01DB780727
:10D6800000D5641EB80702D5B8F1000F0AD0F8071C
:10D6900008D13CB1A54205D220215846641EFDF7B1
:10D6A00019FDF6E7002E02DA4E462D2102E078073A
:10D6B00003D52B215846FDF70DFD07F00300022886
:10D6C0000BD1B8F1000F08D13CB1A54205D23021F1
:10D6D0005846641EFDF7FEFCF6E7CDE900474346D9
:10D6E00052463146584609F0F1F8BDE8FC9F00006B
:10D6F00070B50D46044600684FF4887104F02EFBA7
:10D700004FF49071206804F029FB4FF49271206867
:10D7100004F024FB4FF4A271206804F01FFB4FF4C7
:10D72000AC71206804F01AFB20681249C0F8041399
:10D730002068690740F30730090E002804DB00F178
:10D74000E02080F8001405E000F00F0000F1E02078
:10D7500080F8141D206840F30730002809DB00F032
:10D760001F02012191404009800000F1E020C0F833
:10D77000001170BD100342000246002012685307DA
:10D7800013D502F00300012802D002280CD105E0D5
:10D79000C2F383100B68801C184404E0022308685D
:10D7A00003EB925210440860012070470248007A4F
:10D7B000002800D001207047C0420020F0B58488C6
:10D7C000A518944200D82246A41AC288D6189A42B4
:10D7D00000D81346D21A4B880788BB420CD3408826
:10D7E000834209D88888A04206D3A84204D8C888B2
:10D7F000904201D3B04201D90020F0BD0120F0BD1C
:10D8000010B509892AB1D088491C814218D100205D
:10D8100010BD90F8C62202EB8204C4EB821200EB2A
:10D82000420212899142F2D0491C198090F8C61226
:10D8300001EB8102C2EB811100EB4100008902E0A3
:10D840001980D088401E5880012010BD0021425C04
:10D850000AB101207047491C1029F8D300207047F5
:10D8600030B500230AE0C45CCD5CAC4205D0200694
:10D87000B0EB056F04D8002030BD5B1C9342F2D39F
:10D88000012030BD90F83600C0F3C100012803D05C
:10D89000032801D00020704701207047800701D085
:10D8A00000207047012070470A4810B5807860B1A9
:10D8B000002401E0022C06D02046FDF7A3F9641CE9
:10D8C000042CF7D310BD0324F6E7BDE81040FDF7A4
:10D8D000B9B90000E02E002003480179C90702D041
:10D8E0000078FDF7C9BA7047E02E002017210180AB
:10D8F00041800021017141711B218171C17170470B
:10D900002DE9FE4F2E4F984692460D00814601D0DC
:10D9100000260DE0684601F00DFB6A4600214846EE
:10D9200005F082FD3878009E10B99DF8090098B185
:10D9300052463146484608F001FC044601460022A2
:10D940004846FEF77BFE0D2C37D008DCA4B3082C2C
:10D9500033D00B2C09D130E00520BDE8FE8F112C0F
:10D960001ED0A4F54050023827D0204604F0D6F946
:10D970000246144814494B46401AC008012101EBE5
:10D980000040124903F001FC5FF00305B8F1000FFD
:10D9900004D0324621464846FEF700FB2846DCE725
:10D9A0002A46F9784846FCF749FC5246B978484679
:10D9B000FCF744FC0025E9E7FFE72546E6E7000021
:10D9C000C82F002070BC030008BC03001CA9030082
:10D9D0007EDF042800D111207047000070B50D00D3
:10D9E0001446064617D01648C1783046FCF726FC88
:10D9F0003046FFF771FD0146A0F57F40FF3800D0AB
:10DA000074B129463046FFF7E3FF04462878C00783
:10DA10000BD001220AE0BDE870400021FFF7D8BF1B
:10DA2000304600F00FF8044605E002222CB1002138
:10DA3000304607F091FF204670BD0121F8E7000055
:10DA4000C02F00207CB50E4605466A4607213046A9
:10DA500005F08EFD040013D0052C1DD0112C2BD009
:10DA600004F05CF90246194819493346401AC008C7
:10DA7000012101EB0040174903F087FB03241BE061
:10DA8000019C94F84400183410F0010001D0019C6E
:10DA900034340CB110B106E011240DE004F1120091
:10DAA000FFF7D9FC38B1224604F11201284685DF80
:10DAB000040008D000E00B2400210022284607F0D3
:10DAC0004BFF20467CBD0121F7E7000068BC030046
:10DAD00008BC0300ACA7030070B514460D4606460B
:10DAE00007F06AFF00280FD0304605F043FC0028FD
:10DAF00022462946304603D0BDE8704005F040BCC0
:10DB0000BDE87040FEF7A4B970BD000070B5094DC6
:10DB10000646A978FCF77AFB0446E9783046FCF71C
:10DB200075FB014622463046BDE870400123FFF7F1
:10DB3000E7BE0000C82F0020F0B585B005460027DD
:10DB400014216846F9F726FBA5F57F40ADF8025091
:10DB5000FF3825D02846FFF78DF9040022D01B4856
:10DB60001B49401AC6080B2C22D0112C1ED0A4F53C
:10DB7000405002380ED0204604F0D0F80246012072
:10DB800000EB06402B46134903F0FFFA21462846D6
:10DB900007F060FF10483A4681782846FCF74EFBB4
:10DBA00005B0F0BD0E208DF800000BE00127F1E775
:10DBB0000F208DF80000022000EB06402A4607499E
:10DBC00003F0DCFA6846FEF7B9FAE3E710BC03009D
:10DBD00008BC0300B09B0300102F0020049C03002E
:10DBE0000A4602494978FCF729BB0000102F0020A3
:10DBF0002DE9F041002786B080463E46FFF782F9C6
:10DC0000040022D0112C22D01B481C49401AC50800
:10DC1000862C1ED0A4F5405002380ED0204604F0C9
:10DC20007DF80246012000EB0540434614A103F0B5
:10DC3000ACFA2146404607F00DFF39464046FFF753
:10DC4000CFFF06B03046BDE8F0810126F5E7012799
:10DC5000F3E714221A496846F9F774FA0220ADF87E
:10DC6000028000EB0540424616A103F087FA6846A1
:10DC7000FEF764FAE1E7000010BC030008BC0300F3
:10DC80006773636D5F6C6F63616C5F64625F636138
:10DC90006368655F757064617465282920726574B6
:10DCA00075726E656420257320666F7220636F6ED7
:10DCB0006E5F68616E646C653A2025640000000048
:10DCC00000710300466C6173682066756C6C2E20D1
:10DCD000436F756C64206E6F742073746F7265206F
:10DCE0006461746120666F7220636F6E6E5F68613D
:10DCF0006E646C653A202564000000002DE9FF4148
:10DD00000026244801F0F3F92248001F074601F0DD
:10DD1000EEF9214C2149A06800900D6800E00098C0
:10DD20006946284004EB80000C30FFF725FD0028F1
:10DD3000F5D101AA009901EA050304EB8303491C0C
:10DD4000DB6842F82030401C00910228F2D3019891
:10DD500000F0030001280BD0022810D10198032104
:10DD600001EB90500099BDF80A6001EB900005E0CE
:10DD70000198BDF80A60C0F383100844009038464B
:10DD800001F0B2F908B10098A06004B03046BDE8D7
:10DD9000F0810000D0480020B8440020B0300020BE
:10DDA000ACB04FF48041002003F070FA08B1FBF7EB
:10DDB00053FC03F0B5F8FBF76DFC08B1FBF74CFC26
:10DDC00081490320FDF70EF808B1FBF745FC6946D1
:10DDD0000020FCF75BFF08B1FBF73EFC9DF800005C
:10DDE00002287DD05FF0000703F08AFB08B1FBF743
:10DDF00033FC03F09DFE08B1FBF72EFC00246946BE
:10DE00000120009403F024FD08B1FBF725FC6846CF
:10DE100003F09EFD08B1FBF71FFC07F0C9FB9DF85E
:10DE200008006AA120F00F00401C20F0F000103024
:10DE30008DF808000D2202A87CDF08B1FBF70CFC6E
:10DE40006649D1E91E01CDE9000168467ADF08B1D3
:10DE5000FBF702FC0021624801F0D5F908B1FBF79D
:10DE6000FBFB1C216846F9F795F94FF4A030CDE98A
:10DE700000404FF4F020032502908DF80C5001264D
:10DE80005848ADF80E408DF81060CDE90540684661
:10DE9000FCF712F908B1FBF7DFFBDFF850815248BD
:10DEA000CDE900086846FCF70FFA08B1FBF7D4FB90
:10DEB000DFF82C91A2464E48002409F11C0900907D
:10DEC00004EB440109EB8100694601F0C0FC08B194
:10DED000FBF7C2FB641C022CF2D38DF8105000E05B
:10DEE00061E004A80290CDF80CA03D48CDF804A054
:10DEF0008DF80C50CDF800A08DF804608DF80D5011
:10DF000069466438FCF7B4FC08B1FBF7A5FB394857
:10DF100000903948CDE90108314869461438FCF7CA
:10DF200045FC08B1FBF798FB05F03EFEAC216846C6
:10DF3000F9F730F902208DF80000ADF810002B48F9
:10DF40008DF8026006218DF803100A3805904FF411
:10DF50009670229044F2506023908DF87C602748A0
:10DF600029901F4869463430FBF7DCFE08B1FBF707
:10DF700073FB1B4801213430FBF7D1FE20482149B7
:10DF8000401AC00805EB004004461FA103F0F2F858
:10DF90005FB1204626A103F0EDF806F0A1FC30B1F8
:10DFA000FBF75AFB03E001271EE7FBF745FA01F0F8
:10DFB0001BFC08B1FBF750FB02F0C0FF0028F6D1B4
:10DFC00003F0B2FAF3E7000061AD02004E6F726435
:10DFD00069634C4553434170700000009C3700203A
:10DFE0008033002059B6020055B80200DC2800201A
:10DFF0004B17030021D102001DD102002926030086
:10E00000E0BC030008BC03004C45205365637572F7
:10E010006520436F6E6E656374696F6E73206578FB
:10E02000616D706C6520737461727465642E00009C
:10E03000457261736520626F6E6473210000000099
:10E0400070B5144682880E4605462088111D01448D
:10E05000921C994201D8FE2A01D90C2070BD521C95
:10E0600032542088FF21401C80B220803154208807
:10E07000401C80B220808119288808F012FC218879
:10E08000084480B22080AA8842B1A96841B13044D6
:10E09000F9F758F82088A98808442080002070BD2E
:10E0A000072070BD30B4144601291A46214602D01B
:10E0B00030BC00F0D1B930BC00F028BC002803D03F
:10E0C0004FF48C7100F07CBE70474FF48C71F9F7FF
:10E0D00061B80000F0B5802A07D0C02A07D0B2F599
:10E0E000807F0BD06FF01F00F0BD0A2300E00C23EF
:10E0F000036000F10803002443600AE00E23F7E701
:10E1000001EB8405EE782D6866F31F6543F8245013
:10E11000641CB4EB521FF3D3544A0168A2F50850B3
:10E120000A2904D00C292BD00E2928D156E000242E
:10E1300053F80C5B52F824104D4002CBC1F3072674
:10E14000C1F30747865DC75D86EA0726754000EB89
:10E150001166367885EA064550FA81F63678641CF1
:10E1600085EA06651D6053F80C6C6E405E6053F8DE
:10E17000085C75406940C3E902510A2CD8D373E0AA
:10E180005FF000041D6852F824104D405969C1F336
:10E190000726C1F30747865DC75D86EA07267540F7
:10E1A00000EB1166367885EA064550FA81F6367836
:10E1B000641C85EA06659D615E686E40DE619D684F
:10E1C00075401D62DE686E405E621D697540694083
:10E1D000C3E90A511833082CD4D345E05FF0000599
:10E1E0001C6852F825104C40D969C1F30726C1F3C9
:10E1F0000747865DC75D86EA0726744000EB116617
:10E20000367884EA064450FA81F6367884EA06665F
:10E210001E625C6874405C629E6866409E62DC6858
:10E220007440DC6250FA84F73F781E69C4F3074CEF
:10E230007E40C4F3072710F80CC0C75D00EB1464E0
:10E240003F0287EA0C4724787E4086EA04641C6318
:10E250005E696D1C66405E639C6974406140C3E901
:10E260000E412033072DBBD30020F0BD7C98030066
:10E2700010B504000AD004F12000FFF71FFF20466C
:10E28000BDE810404FF4A07100F09ABD10BD4FF4EE
:10E29000A071F8F77FBF08B50023009300F001F8E4
:10E2A00008BD2DE9F0418CB09846129F15460446F2
:10E2B0000E46B2F5806F04D96FF035000CB0BDE8A2
:10E2C000F081B7F5807F02D96FF03700F6E72021A3
:10E2D0006846F8F75FFFE1692069884201DC606900
:10E2E00038B13A464146204600F04AF80028E5D1C8
:10E2F0002FE077B33A4641466846FCF78DFB0700AE
:10E3000034D169462046FDF704FA07002ED120E0FB
:10E310001020211811F8012D521C12F0FF020A7072
:10E3200002D1401E0028F4DC08AB22460121404601
:10E33000FFF7B8FE070019D1102D01D9102700E012
:10E340002F463A4608A93046F8F7FCFE3E44ED1B3E
:10E3500001E004F12008002DDAD169462046FDF7DE
:10E36000D8F9070002D12069401C206120216846AD
:10E3700000F026FD102108A800F022FD38469DE798
:10E380002DE9F041044685694FF4C070E0B01646AF
:10E390000F46854203D8C5F5C071B14204D26FF073
:10E3A000370060B0BDE8F081804601466846F8F766
:10E3B000F1FED4E94E302A466946984710B16FF015
:10E3C0003300EEE7A5693FB136B10DEB05003246EB
:10E3D0003946F8F7B7FE354469462A460846FCF741
:10E3E0001BFB050007D169462046FDF792F90500A1
:10E3F00001D1012020614146684600F0E1FC284639
:10E40000CFE72DE9FF4704460020DDF8308000907B
:10E4100001900290039004F120001F4616460D461D
:10E420008146FFF752FEC4E94E56A06908B9202084
:10E43000A0614FF6F070E061802269464846FFF720
:10E4400049FE002804D1424639462046FFF798FF8E
:10E4500004B0BDE8F0870000F0B589B043680093D0
:10E46000CC780B6864F31F63009C019324685C40C4
:10E47000009B01941B1D0093CC794B6864F31F63D0
:10E48000009C029324685C40009B02941B1D009337
:10E49000CC7A8B6864F31F63009C039324685C4010
:10E4A000009B03941B1D0093CB7BC96863F31F6122
:10E4B000009B04911B684B4000990493091D009137
:10E4C00000684FF0FF3101EB6005FE4800F5806108
:10E4D00000F5006400F5406EE7E01E68019B039FB5
:10E4E000DBB2C7F3074750F8233054F827705E407B
:10E4F000049BDDF810C0C3F30723CCF3074C51F89D
:10E5000023307B405E40029B1F0E73465EF82770EF
:10E510007E400596009E029F361D0096FFB236682B
:10E5200050F8277054F82CC07E40019FC7F307278E
:10E5300051F8277087EA0C077E40039F3F0E53F87F
:10E5400027707E400696009E039F361D0096FFB200
:10E55000366850F82770DDF804C07E40029FCCF387
:10E56000074CC7F3072754F82CC051F8277087EAE7
:10E570000C077E40049F3F0E53F827707E4007969D
:10E58000009E049F361D0096FFB2366850F8277033
:10E59000DDF808C07E40039FCCF3074CC7F3072784
:10E5A00054F82CC051F8277087EA0C077E40019F71
:10E5B000DDF81CC03F0ECCF3074C53F827707E40AB
:10E5C0000896009E361D0096059F3668FFB254F8E7
:10E5D0002CC050F827707E40089FC7F3072751F8DA
:10E5E000277087EA0C077E40069FDDF820C03F0EAB
:10E5F000CCF3074C53F827707E400196009E069F8F
:10E60000361D0096FFB2366850F8277054F82CC0BB
:10E610007E40059FC7F3072751F8277087EA0C074C
:10E620007E40079F3F0E53F827707E400296009E63
:10E63000079F361D0096FFB2366850F82770DDF848
:10E6400014C07E40069FCCF3074CC7F3072754F84D
:10E650002CC051F8277087EA0C077E40089F3F0EB8
:10E6600053F827707E400396009E089F361D009643
:10E670003668FFB2DDF818C050F82770CCF3074CAD
:10E680007E40079F54F82CC0C7F3072751F8277026
:10E6900087EA0C077E40059F3F0E5EF827305E40FC
:10E6A000009B04961B1D6D1E0093009B002D3FF7E1
:10E6B00014AF019D1B68EDB2039E50F82550C6F3C0
:10E6C00007466B40049D54F82660C5F3072551F8B2
:10E6D000255075406B40029D049E2D0EC6F30746E3
:10E6E0005EF825506B400593009B029D1B1D009317
:10E6F000EDB21B6850F8255054F826606B40019D20
:10E70000C5F3072551F8255075406B40039D2D0E2C
:10E710005EF825506B400693009B039D1B1D0093E4
:10E72000EDB21B6850F82550019E6B40029DC6F368
:10E730000746C5F3072554F8266051F82550754063
:10E740006B40049D2D0E5EF825506B400793009B97
:10E75000049D1B1D0093EDB21B6850F8250043403B
:10E760000398C0F3072051F820000299C1F3074134
:10E7700054F82110484043400198000E5EF82000F4
:10E78000434000980893001D009001684E48059B87
:10E7900050FA83F31B78079C5940089BC4F3074445
:10E7A000C3F30723045DC35C1B0283EA044359409F
:10E7B000069B00EB13631B7881EA036101910099CA
:10E7C000069B091D0091096850FA83F31B78089C89
:10E7D0005940059BC4F30744C3F30723045DC35C9E
:10E7E0001B0283EA04435940079B00EB13631B7829
:10E7F00081EA036102910099079B091D0091096854
:10E8000050FA83F31B78059C5940069BC4F30744D8
:10E81000C3F30723045DC35C1B0283EA044359402E
:10E82000089B00EB13631B7881EA03610391009955
:10E83000089B091D0091096850FA83F31B78069C18
:10E840005940079BC4F30744C3F30723045DC35C2B
:10E850001B0283EA04435940059B00EB13600078D8
:10E8600081EA006004900098001D009001981070EB
:10E870000198000A50700198000C90700198000EE9
:10E88000D07002981071010A5171010C9171000E43
:10E89000D07103981072010A5172010C9172000E2E
:10E8A000D07204981073010A5173010C9173000E19
:10E8B000D073042101A800F083FA042102A800F01B
:10E8C0007FFA03E07C8803007C870300042103A80F
:10E8D00000F076FA042104A800F072FA042105A8D9
:10E8E00000F06EFA042106A800F06AFA042107A8D5
:10E8F00000F066FA042108A800F062FA04216846D4
:10E9000000F05EFA09B00020F0BD0000F0B589B05B
:10E9100043680093CC780B6864F31F63009C0193F9
:10E9200024685C40009B01941B1D0093CC794B68CC
:10E9300064F31F63009C029324685C40009B029474
:10E940001B1D0093CC7A8B6864F31F63009C0393B8
:10E9500024685C40009B03941B1D0093CB7BC9681B
:10E9600063F31F61009B04911B684B400099049363
:10E97000091D009100684FF0FF3101EB6005FE4872
:10E9800000F5806100F5006400F5406EE7E01E6868
:10E99000019B039FDBB2C7F3074750F8233054F8BD
:10E9A00027705E40029BDDF810C0C3F30723CCF351
:10E9B000074C51F823307B405E40049B1F0E73468A
:10E9C0005EF827707E400596009E029F361D0096D9
:10E9D000FFB2366850F8277054F82CC07E40039F71
:10E9E000C7F3072751F8277087EA0C077E40019F7D
:10E9F0003F0E53F827707E400696009E039F361DFB
:10EA00000096FFB2366850F82770DDF804C07E40EB
:10EA1000049FCCF3074CC7F3072754F82CC051F8D8
:10EA2000277087EA0C077E40029F3F0E53F827703D
:10EA30007E400796009E049F361D0096FFB2366802
:10EA400050F82770DDF808C07E40019FCCF3074CDA
:10EA5000C7F3072754F82CC051F8277087EA0C0732
:10EA60007E40039FDDF81CC03F0ECCF3074C53F8EB
:10EA700027707E400896009E361D0096059F3668DA
:10EA8000FFB254F82CC050F827707E40069FC7F3A1
:10EA9000072751F8277087EA0C077E40089FDDF8AA
:10EAA00020C03F0ECCF3074C53F827707E400196F0
:10EAB000009E069F361D0096FFB2366850F82770FC
:10EAC00054F82CC07E40079FC7F3072751F82770E2
:10EAD00087EA0C077E40059F3F0E53F827707E4063
:10EAE0000296009E079F361D0096FFB2366850F8CA
:10EAF0002770DDF814C07E40089FCCF3074CC7F3A5
:10EB0000072754F82CC051F8277087EA0C077E407D
:10EB1000069F3F0E53F827707E400396009E089F85
:10EB2000361D00963668FFB2DDF818C050F8277021
:10EB3000CCF3074C7E40059F54F82CC0C7F3072741
:10EB400051F8277087EA0C077E40079F3F0E5EF85A
:10EB500027305E40009B04961B1D6D1E0093009B9A
:10EB6000002D3FF714AF019D1B68EDB2039E50F8D6
:10EB70002550C6F307466B40029D54F82660C5F346
:10EB8000072551F8255075406B40049D049E2D0EBD
:10EB9000C6F307465EF825506B400593009B029D27
:10EBA0001B1D0093EDB21B6850F8255054F82660E9
:10EBB0006B40039DC5F3072551F8255075406B4008
:10EBC000019D2D0E5EF825506B400693009B039D22
:10EBD0001B1D0093EDB21B6850F82550019E6B4041
:10EBE000049DC6F30746C5F3072554F8266051F87F
:10EBF000255075406B40029D2D0E5EF825506B40F0
:10EC00000793009B049D1B1D0093EDB21B6850F8F9
:10EC1000250043400198C0F3072051F820000299D5
:10EC2000C1F3074154F82110484043400398000EB7
:10EC30005EF82000434000980893001D0090016892
:10EC40004E48059B50FA83F31B78079C5940069B5E
:10EC5000C4F30744C3F30723045DC35C1B0283EAC8
:10EC600004435940089B00EB13631B7881EA03615E
:10EC700001910099069B091D0091096850FA83F3E0
:10EC80001B78089C5940079BC4F30744C3F3072330
:10EC9000045DC35C1B0283EA04435940059B00EBFF
:10ECA00013631B7881EA036102910099079B091D98
:10ECB0000091096850FA83F31B78059C5940089B22
:10ECC000C4F30744C3F30723045DC35C1B0283EA58
:10ECD00004435940069B00EB13631B7881EA0361F0
:10ECE00003910099089B091D0091096850FA83F36C
:10ECF0001B78069C5940059BC4F30744C3F30723C4
:10ED0000045DC35C1B0283EA04435940079B00EB8C
:10ED10001360007881EA006004900098001D009064
:10ED2000019810700198000A50700198000C9070C2
:10ED30000198000ED07002981071010A5171010CF7
:10ED40009171000ED07103981072010A5172010C7A
:10ED50009172000ED07204981073010A5173010C65
:10ED60009173000ED073042101A800F029F804214A
:10ED700002A800F025F803E07C7703007C7603000E
:10ED8000042103A800F01CF8042104A800F018F8DE
:10ED9000042105A800F014F8042106A800F010F8DA
:10EDA000042107A800F00CF8042108A800F008F8D6
:10EDB0000421684600F004F809B00020F0BD00000E
:10EDC000002904D0024B0A4600211B6818477047EF
:10EDD000083100202DE9F047C5881E1DB6FBF5F768
:10EDE0008946B6FBF5F1044605FB176C40791668B9
:10EDF0006843DDF820A0F718001F874200D9C61A23
:10EE0000166001E02468491E0029FBD1A5EB0C0720
:10EE10008846B74216D818E004EB0C00001D09EB39
:10EE20000803BAF1000F3A4602D00146184600E046
:10EE30001946F8F787F92468F61B4FF0000CB84420
:10EE4000B54201D9374600E02F46002EE4D1BDE897
:10EE5000F087000030B5024651B102F02BFA0021D4
:10EE6000074C08E034F821301568AB4202D111603C
:10EE7000002030BD491C8142F4D3052030BD000084
:10EE800000000000BFF35F8F00F016B9F8B50F4621
:10EE9000017814460546012901D1687830B12088EF
:10EEA000821C9A4232D8012902D006E00720F8BD20
:10EEB00069780144891C994228D8181A801E86B2A4
:10EEC000ADF800602188B81C084469467DDF002841
:10EED000EDD12978022904D06878BDF8002090424D
:10EEE00005D3BDF80000B04201D809200AE008208F
:10EEF000012905D16978B14202D8ADF8001001E0CE
:10EF0000ADF80060BDF80010FE2901D90C20F8BD55
:10EF10002288491CB9542188491C89B2218078541F
:10EF20002088401C2080BDF800100844208000206C
:10EF3000F8BD0000034A00219268C0E90021816009
:10EF400070470000C82F002070B586B00D460646F9
:10EF5000144614216846F8F71DF98DF80050ADF8F5
:10EF600002402046FEF7B8FAADF8040014226946C4
:10EF70003046F8F7E7F806B070BD70B54FF6FF758C
:10EF80000E46A84201D1002000E0401C84B208E0F7
:10EF90002146304600F090F808B1204670BD641C50
:10EFA000A4B2FF2CF4D9284670BD10B5F7F77DF94F
:10EFB00008B1002010BD112010BD10B531B1B2FB59
:10EFC000F3F403FB14241CB1092010BD0E2010BD66
:10EFD00001600021416081608281C381084610BDCB
:10EFE00070B50C460546F7F715F9002802D02188C0
:10EFF0002868084470BD10B50A8849888A4203D140
:10F00000F7F74AF9012010BD002010BD70B50C467D
:10F010000546F7F724F9002802D0618828680844DB
:10F0200070BD10B50A8849888A4203D1F7F70EF9F6
:10F03000012010BD002010BD01F01F0301229A40E5
:10F04000D243490900EB8100114600F05CB80A4642
:10F0500001F01F030121994010B552090C4600EB45
:10F06000820000F060F8204000D0012010BD2DE9A2
:10F07000F04180460D460024481E012101EB501747
:10F0800016E058F82400C04390FAA0F0B0FA80F0DF
:10F0900020280CD200EB4416AE4208D2314640463E
:10F0A000FFF7D5FF0028ECD13046BDE8F081641CA5
:10F0B000A742E6D82846F8E74A0950F8220001F0AE
:10F0C0001F0201219140084000D00120704701F04B
:10F0D0001F0301229A40490900EB8100114600F00C
:10F0E0002CB8002100F00FB8002100F017B8012162
:10F0F00000F023B8012100F016B808B56A46F7F70A
:10F1000020F9009808BD08B56A46F7F700F900989D
:10F1100008BD08B56A46F7F714F908BD08B56A4690
:10F12000F7F7F5F808BD08B56A46F7F7E3F808BD44
:10F1300008B56A46F7F7D2F808BD08B56A46F7F78A
:10F14000D9F8009808BD08B56A46F7F707F900989E
:10F1500008BD38B5044600258DF800506846FAF71A
:10F16000E5FA21686268086890420ED9401E08607E
:10F170000178238AE26801FB0325227A2168101AAC
:10F18000C0B20A79824200D208719DF80000FAF7F5
:10F19000F1FA284638BD38B5054600208DF8000044
:10F1A0000C466846FAF7C2FAE868298A201AB0FBCA
:10F1B000F1F12A681068431C136001709DF800008B
:10F1C000FAF7D8FA38BD10B530B1017A4268036851
:10F1D000891AC9B21A6006E00E2010BD03681A68C9
:10F1E000541C1C601170491EC9B2F7D2006800217E
:10F1F0000171084610BDC20800F007030120895CB8
:10F2000098400840704770B5040010D01720A161E5
:10F21000208060801B202071002504EBC500801D2C
:10F22000FEF764FB6D1C022DF7D3002070BD0E208D
:10F2300070BD00002DE9F04185888EB00C46022D8E
:10F240007ED20188474E4FF00008242940D006DCCA
:10F25000102909D011290CD023295FD154E03A2973
:10F260000DD055295AD12EE00146204603F0DCFC92
:10F2700054E004EBC500801DFEF738FB4EE0294644
:10F2800004EBC107408937F8062F824200D81046A8
:10F290007880172800D217207880A06970B178791B
:10F2A00060B1D6E90002CDE90002ADF8021078881D
:10F2B000ADF80400A26920466946904787F80580AA
:10F2C00087F804802AE00146204603F0EFFD25E0A0
:10F2D000011D2C226846F7F735FFBDF80000BDF888
:10F2E000042004EBC0014A73A269BAB1D6E9042331
:10F2F000CDE90B23ADF82E00487B8DF83000A269D4
:10F3000020460BA9904709E004EBC503017A187B5E
:10F31000884200D201462846FCF73CFA04EBC504BB
:10F32000A07A00281AD0E1882846A5DF012590B1EF
:10F33000112813D002F0F2FC02460B480B4900E002
:10F340000CE0401AC0080EB005EB0040BDE8F041EB
:10F3500007A101F013BF84F80A80E5720EB0BDE882
:10F36000F08100005C71030028BC030008BC0300AE
:10F3700073645F626C655F67617474635F65786313
:10F3800068616E67655F6D74755F726571756573D1
:10F390007428292072657475726E65642025732E39
:10F3A000000000002DE9F0410F4604004FF0000579
:10F3B0000DD005F089FD39462046FCF7DBF82188A1
:10F3C00081421ED1002005464FF6FF7609E00E204F
:10F3D000BDE8F081626832F81020B24206D1401CCC
:10F3E00080B28142F6D8206902F068F800202188B6
:10F3F0000BE0626832F81020B24204D1616821F853
:10F4000010702846E4E7401C80B28142F1D8042005
:10F41000DEE700002DE9F04791460D4604004FF06D
:10F42000000742D0EDB305F04FFD49462046FCF7FA
:10F43000A1F82978062902D22188814202D1072029
:10F44000BDE8F087A16800EB800601EB860002F0C2
:10F45000D4F830B14946284605F056FF08B1384681
:10F46000EEE72978DFF8488058F821202AB1206992
:10F47000B8B1294690470028E2D1A068294600EBA0
:10F48000860002F0D9F8070006D0297858F8210044
:10F4900010B1686801F0F5FFA068494600EB8600EE
:10F4A00000E002E005F084FBD9E70E20C8E7000089
:10F4B00074710300F8B505000C4620D0002C1ED056
:10F4C0002888112806D0A0F130011F2902D9503810
:10F4D0001F2814D8AE8820463146FCF74BF8ADF80B
:10F4E0000000218881420AD02988112908D0A1680A
:10F4F00000EB800001EB8000314605F059FBF8BDC0
:10F5000062684FF6FF7122F810106946E06802F059
:10F5100093F8F8BD10B598210D48F7F73BFE00F0C1
:10F52000EDFD04000CD00B480B492246401AC008E0
:10F53000012101EB004009A101F020FE204610BD91
:10F540001049002008704870BDE8104000F01CB859
:10F55000843B002038BC030008BC03006E72665F69
:10F5600063727970746F5F696E697428292072659F
:10F570007475726E6564206572726F7220307825C2
:10F58000782E00002C2F0020F8B54020009026494E
:10F59000002000BF00EB400202EB001201EB8202F0
:10F5A00092F849200AB11120F8BD401C0228F1D37D
:10F5B0001E4E00201C4B7070B070483BA3F14802F7
:10F5C0001B4906F1080000F0BFFC050019481A4964
:10F5D0004FF00107A0EB01004FEAD00007EB004419
:10F5E00003D020462A4615A10BE00F496A46F039A0
:10F5F00001F1A80000F010FD050005D020462A46C4
:10F600001CA101F0BBFD0DE0074A4023F03A114672
:10F61000074800F06FFC050003D020462A4623A1CE
:10F62000EFE777702846F8BD843B00202C2F0020A0
:10F630000073030038BC030008BC03006E72665FF1
:10F6400063727970746F5F6563635F6B65795F7018
:10F650006169725F67656E657261746528292072E1
:10F66000657475726E6564206572726F7220307891
:10F6700025782E006E72665F63727970746F5F65B5
:10F6800063635F7075626C69635F6B65795F746FEC
:10F690005F72617728292072657475726E656420C7
:10F6A0006572726F7220307825782E006E72665FF8
:10F6B00063727970746F5F6563635F627974655FAD
:10F6C0006F726465725F696E766572742829207244
:10F6D000657475726E6564206572726F7220307821
:10F6E00025782E002DE9F0410446868800881128EF
:10F6F00010D018281BD1207B1B4DC0074FF00107ED
:10F7000028D0A87800B11948E968804689B1304608
:10F7100088470FE006EB460101EB06121349002073
:10F72000983901EB820181F8490081F84800BDE871
:10F73000F081002002464146304684DF020009D0B5
:10F740000B480C49401AC00807EB00400AA101F021
:10F7500015FD2F7004F10801304603F027FB002847
:10F76000E5D02F70E3E700002C2F00201C3C002088
:10F7700038BC030008BC030073645F626C655F679C
:10F7800061705F6C6573635F6F6F625F646174610A
:10F790005F73657428292072657475726E656420C4
:10F7A0006572726F7220307825782E00094810B586
:10F7B0004078002408B1084C09E008480849401A7C
:10F7C000C008012101EB0040064901F0D3FC2046AE
:10F7D00010BD00002C2F0020943A002038BC0300FC
:10F7E00008BC0300109F03002DE9F04110490020E0
:10F7F000097811B10320BDE8F08100240D4F2646A1
:10F8000004EB440101EB041107EB810595F8481066
:10F8100041B128462146FBF731FE05F8486F002824
:10F820006E70E8D1641CA4B2022CE9D3E3E70000B7
:10F830002C2F0020843B002020B10278DE2A03D048
:10F84000082070470E20704741800020704760B14B
:10F8500059B10278DE2A0AD009684160DE210170C0
:10F860004FF6FF714180002070470E20704708203E
:10F8700070477FB5054600294DD0002D4BD0087844
:10F880000C46DE2847D1A8886188884202D12046EC
:10F8900007F0D4F82888012825D002283BD0112869
:10F8A0003AD0512837D135F8040F6188884232D1D7
:10F8B000A978A81C02292ED1017A042903D006298F
:10F8C00001D0052927D10021009102228DF80020C6
:10F8D00001914FF4C07202910391ADF80420007AB7
:10F8E00005280FD010E0297A2046012913D1A988D4
:10F8F000428891420FD10121017204B0BDE87040ED
:10F9000007F09CB8ADF8041028886946B0DF0028DD
:10F9100001D0616888477FBDA88861888842FAD194
:10F920004FF6FF7060807FBD10B504462021F7F7C9
:10F9300031FC002084F8200044F8220F207110BD13
:10F940002DE9F041044600F1360700F12C0590F84E
:10F95000346090F82A0086B001F10208002814D023
:10F960008BDF14216846F7F715FC33462A463946E3
:10F9700040468CDF05218DF800100190002804D04E
:10F98000616C002901D06846884706B0BDE8F08167
:10F9900032214186062181851821C18500210186F9
:10F9A000704710F8361FA02242805022828021F03A
:10F9B00018010022C28041F0040101700121417050
:10F9C000704700002DE9F04140B13AB1002504260E
:10F9D00031B103292ED00720BDE8F0810E20FBE7CE
:10F9E000074600F1200490461046F7F7DEFB10F0C2
:10F9F000FF0001D0202801D90C20EDE72078F0B9D4
:10FA00005FF0000607EB46104146F7F7D5FBF8B16B
:10FA1000761C16F0FF06F5D04046F7F7C6FB024607
:10FA20002078414607EB4013401C20701846F7F73A
:10FA300089FB0DE000F1220410F8263F0BB130469F
:10FA4000CAE7B2F80060002134F82170B74201D152
:10FA50002846C1E7491C11F0FF01F5D004EB8301F2
:10FA60005B1C037010680860F2E730B121220021AE
:10FA7000115480F82710084670470E20704730B5A3
:10FA800015460B46040002D0980702D009E00E206C
:10FA900030BD580705D4D80603D4180701D4072071
:10FAA00030BD2046FFF7E1FFD9074FF0010001D03C
:10FAB00084F82100590701D584F8270084F82850DC
:10FAC000002030BD70B50D46040012D02A216264BA
:10FAD000F7F760FBEDB1287984F82A00287B84F8D9
:10FAE0003400296839B10E2204F13600F7F72AFBF9
:10FAF00004E00E2070BD2046FFF753FFA86820B138
:10FB00000168E162406820630CE02046FFF740FF97
:10FB100008E02046FFF745FF2046FFF739FF0020A9
:10FB200084F82A0004F14800A0661F20A4F86C00A5
:10FB3000002070BD2DE9F04F93B00E4604464FF003
:10FB400000084546142106A8F7F724FB04F1360007
:10FB50000A902046FDF796FE010004F1680010901F
:10FB600010D002208DF818000796616C06A888470F
:10FB7000002010998ADF31462046FFF7E1FE13B0DE
:10FB8000BDE8F08F94F82800049094F8210094F8D0
:10FB900027B04FF0000AE0B194F82090B08B4FF0FE
:10FBA000010800270C9012E004EB4712B0690C9991
:10FBB000FAF705F848B19DF820004FF0010A40F02F
:10FBC00001008DF820006D1C03E07F1CFFB24F4543
:10FBD000EAD3BBF1000F36D004F122000F9094F865
:10FBE0002800119094F826B04FF00009B08B08F16E
:10FBF00001084F460E9012E00F980E9900EB870215
:10FC0000B069FAF731F830B109F1010000F0FF09ED
:10FC1000119858B101E0119828B97F1CFFB25F45D7
:10FC2000EAD3119810B1D94503D00CE0B9F1000F17
:10FC300009D09DF820006D1C40F00400EDB28DF855
:10FC400020004FF0010A0498079608B1454503D0FB
:10FC500004993AEA010007D000208DF818003146D7
:10FC60002046FFF76DFE02E003208DF81800616C5E
:10FC700009B106A88847002010998ADF7FE770B590
:10FC80000D46014601F108020C1D2846098836354B
:10FC900086B010291ED01B2907D01D292DD106B0F2
:10FCA0001146BDE87040FFF745BF0646142168467F
:10FCB000241DF7F76FFA207801281ED1706C0028F8
:10FCC0001BD004208DF80000049520788DF80400E6
:10FCD000716C10E0064614216846F7F75BFA0620BF
:10FCE0008DF80000201D01902088ADF808000495D3
:10FCF000716C002901D06846884706B070BD0000CD
:10FD000030B585B0040025D014216846F7F742FAD3
:10FD10008BDF2046FDF7B6FD012528B1616C19B1D6
:10FD20008DF800506846884704F1680104F13600F8
:10FD30008ADF044608280FD074B1084808492246D3
:10FD4000401AC00805EB004006A101F017FA204652
:10FD500005B030BD0E20FBE70020F9E740BC0300F2
:10FD600008BC030073645F626C655F6761705F73FA
:10FD700063616E5F73746172742072657475726E04
:10FD8000656420307825780010B5184608310832AF
:10FD9000F7F740FC002010BD70B50C4604F10800D8
:10FDA00015462021064602F03DFC002810D114F82B
:10FDB000080F314600F0F8002070E07F00F07F006F
:10FDC00040F04000E07705F10800F7F7F7FC00206D
:10FDD00070BD10B502F108000831F7F7EFFC002004
:10FDE00010BD70B50C4604F10800154620210646EA
:10FDF00002F018FC00280CD104F12800314604461A
:10FE0000F7F70AFE2022214605F10800F7F79AF9D4
:10FE1000002070BD70B50446083020220546F7F773
:10FE200091F9294604F12800F7F7F6FD002070BD8E
:10FE3000104610B5202208302831F7F783F900204A
:10FE400010BD0000024A2023A2F1200100F0AFBA49
:10FE50002C73030010B542680830936852799847B4
:10FE6000002010BD10B50C4641684A798B6800F13E
:10FE7000080120469847002010BD10B542680830A0
:10FE8000936892799847002010BD10B50C464168E0
:10FE90008A798B6800F1080120469847002010BD40
:10FEA00010B5184608310832F7F786FD002801D052
:10FEB00048F2165010BD70B501F108001446054611
:10FEC000FFF7C0FF002808D1294604F10800F7F722
:10FED0008FFD002801D048F2165070BD10B502F118
:10FEE00008000831F7F784FD002801D048F21650C9
:10FEF00010BD0000F0B540B190F8054048F2115037
:10FF0000002B06D019B12AB117E01C46F6E748F2DB
:10FF10001050F0BD48F21350F0BD0026651E07E0FA
:10FF20008F5D11F805C002F806C057556D1E761C8E
:10FF3000AE42F5D91B1B21442244A342EDD2002B33
:10FF4000EAD10020F0BD00002DE9F04188460646C8
:10FF50006C4617461D461146404600F0FBF8002847
:10FF6000A54616D12946404600F0F4F80028A546DB
:10FF70000FD198F80400144951F820C00C39BCF195
:10FF8000000F31F8100001D02EB10CE0A54648F268
:10FF90000350BDE8F08130B1C01D20F00700ADEB8B
:10FFA000000D6E4666B11A4639463046E04708B144
:10FFB000A546EEE705493960891FA5462960E8E7AF
:10FFC00048F21550A546E4E7947203007652464D78
:10FFD00070B516460C46054600F0BCF8002812D154
:10FFE000AA791946304600F0C2F800280BD12879CA
:10FFF000074951F820203AB1314620469047002861
:020000040003F7
:1000000001D10449216070BD48F2035070BD000069
:10001000C47203007052464D70B50D461446034637
:100020000C4900F08BF8002813D15E682146284661
:10003000B27900F0A7F800280BD13079064951F8C1
:10004000202022B12946BDE870401846104748F2EA
:10005000035070BD7052464DD07203002DE9F04739
:100060006C46884605460E46994617462149404645
:10007000D4F820A000F062F80028A5460ED11D4952
:100080003846891F00F05AF80028A54606D1766840
:100090007868864204D0A54648F24150BDE8F08712
:1000A00072795146484600F06DF80028A546F5D112
:1000B0003079114951F82060091F31F810000EB154
:1000C00025B10BE048F20350A546E7E730B1C01D6B
:1000D00020F00700ADEB000D6D4635B14B463A46BA
:1000E00041462846B047A546D8E748F21550A546F0
:1000F000D4E700007652464DF87203002DE9F04136
:100100000B480C4D0C4F401BC608012038700024D2
:1001100006E000BF55F834008047002805D1641C74
:10012000B442F7D3022038700020BDE8F08100000F
:10013000F8BB0300F0BB0300D92F002028B10068F2
:10014000884205D048F24050704748F2105070473E
:100150000020704728B139B10022C1E900201046C3
:10016000704748F21050704748F21350704720B162
:10017000914205D048F21150704748F21050704734
:100180000020704730B149B10868904205D248F26A
:100190001450704748F2135070470A6000207047AF
:1001A00005480178022904D00078012801D00020F8
:1001B0007047012070470000D92F002038B5041D7A
:1001C000002000F00FF900280ED12046FEF75FF85E
:1001D000002003460246009004492046FEF711F92C
:1001E000BDE8384005F0EAB838BD00005BBE02004B
:1001F00010B511461A46001DFEF7C2F8BDE81040C2
:1002000005F0DCB810B5001DFEF732F800F046F935
:10021000002010BD10B5001DFEF73DF8BDE81040F0
:1002200005F0CCB82DE9F0416C460D46074601F0CB
:100230004FFD70B11B481C49401AC008012101EB59
:1002400000401AA100F096FFA54648F21950BDE8FB
:10025000F081FFF7A5FF48B11B4A1C4E106848B15A
:100260005068B04206D10020A546F0E74FF40540A3
:10027000A546ECE748F21750002FA546E7D1002D20
:10028000A546E4D110491248083115461060FFF721
:1002900095FF0028A546DAD16E602A680D491160E5
:1002A000A546D4E7E0BC030008BC030053746163B7
:1002B0006B206F766572666C6F772064657465631A
:1002C0007465642E00000000DC2F00206572E54B91
:1002D000503E00206169614D2DE9F0416C461546A4
:1002E0000E46074601F0F4FC70B116481649401A54
:1002F000C008012101EB004014A100F03BFFA5461E
:1003000048F21950BDE8F08105B146B11648174AC8
:100310004168914207D048F20250A546F2E748F200
:100320001050A546EEE71FB148F21750A546E9E781
:100330000D492B46083132460068FFF759FFA546A4
:10034000E0E70000E0BC030008BC030053746163F5
:100350006B206F766572666C6F7720646574656379
:100360007465642E00000000DC2F00206572E54BF0
:100370000A4930B40A4B486848F20252984204D104
:100380000868084C0368A34202D030BC104670478E
:10039000002202604A6030BCFFF734BFDC2F00202F
:1003A0006572E54B6169614D0122FCF77BBC38B594
:1003B00001240094FCF7AAFC38BD70B50C46064633
:1003C0000CE0402C01D2254600E04025E9B2304641
:1003D00000F034F80028F9D1641B2E44002CF0D131
:1003E00070BD000038B5124C0025217809B1852078
:1003F00038BD00B90F480088A4F8010000208DF82E
:1004000000006846F9F792F901F0DEFB38B90A49B5
:10041000601C01F0FFFD0500EAD101F027FE01207C
:1004200020709DF80000F9F7A5F9284638BD0000B6
:10043000E82F00204C730300DD1F03002DE9F84373
:100440000F468046002542F2070600BF8DF8005097
:100450006846F9F76BF901F0B7FB58B19DF8000059
:10046000F9F788F93946404631DF0446B0420DD1EC
:1004700005240DE03A464146074801F036F90446A6
:1004800001F0F4FD9DF80000F9F774F9022CDDD0BD
:100490002046BDE8F88300003CBD030038B50024C9
:1004A0008DF800406846F9F741F901F08DFB18B965
:1004B00001F0ECFD01F0F4FD9DF80000F9F75AF9A8
:1004C000024801F031F90248047038BD3CBD030018
:1004D000E82F0020F0B505460478154889B0164687
:1004E00040F82420124A0869121DA2F1080742F8B8
:1004F0002400487F385520226846F6F723FE0494EE
:100500002878385C48B10EB10A4A00E000226946FA
:10051000281D01F01BFF09B0F0BD0EB1064A00E036
:100520000022694605F10C0001F0DAFDF3E7000056
:10053000F02F002061670300A96503000FB408B520
:100540000399002904D004AA00926A4600F00FF82B
:1005500001B05DF814FB10B582680446002A05D08E
:10056000D4E90403216898470020A06010BD2DE95C
:10057000FC4791460C00804676D014F8011B39B137
:1005800025290ED04046FAF7A5FD20780028F4D1A1
:1005900098F80C00002867D04046BDE8FC47FFF7FC
:1005A000DABF0020012221782B291BD02D2902D06F
:1005B000302908D102E040F0010001E040F00200E3
:1005C000641C002AEFD100252A290ED02178A1F140
:1005D00030020A2A11D205EB850201EB4205641CA8
:1005E000303DF1E740F00400EAE7D9F800100B1DB8
:1005F000C9F800300968641C0D44217800232E29B5
:100600000BD114F8011FA1F130020A2A05D203EB25
:10061000830201EB4203303BF3E76C290DD06829DC
:100620000BD0692921D00BDC252918D0582931D0CD
:1006300063290ED0642915D117E014F8011FECE7E7
:10064000702969D0732932D075291BD0782909D136
:1006500020E0D9F80000011DC9F8001001784046DB
:10066000FAF738FD641C90E76CE0D9F800100A1D19
:10067000C9F800200968CDE900500A224046FCF77D
:10068000E3FFEFE7D9F800100A1DC9F80020096858
:100690000A2206E0D9F800100A1DC9F800200968EE
:1006A0001022CDE90050404606F010F9DAE7D9F8FB
:1006B000001000270A1DC9F800200E68C00705D1E8
:1006C00012E04046761C7F1CFAF704FD31780029C1
:1006D000F7D104E0202140466D1EFAF7FBFCBD4235
:1006E000C0D9002DF6D1BDE74EB13046F6F75DFD1D
:1006F000074604E0202140466D1EFAF7EBFCBD42A0
:1007000006D9002DF6D103E04046761CFAF7E2FC4C
:1007100031780029F8D1A5E7D9F80000011DC9F802
:100720000010056830214046FAF7D4FC7821404695
:10073000FAF7D0FC08200021CDE900010346102281
:100740002946B0E7BDE8FC872DE9F8438846050057
:100750002C482D499946A0EB01004FEAD0004FF0FC
:100760000101164601EB004424D0286800282CD053
:10077000002E34D0696840464FF010070A68511EB9
:1007800011EA080F11D1014672432846F8F747FED7
:1007900000282ED028684B463246046901B04146F5
:1007A0002846A446BDE8F04360472046174B18A2F0
:1007B000009722E00E2000902046144B1EA220A19C
:1007C00000F0EBFC0E20BDE8F883082000902046E6
:1007D0000E4B26A21AA100F0E0FC0820F3E7092046
:1007E00000902046094B24A215A100F0D6FC092058
:1007F000E9E7064B214A2046009711A100F0CDFC05
:100800001020E0E7C8BC030008BC0300FB73030032
:10081000616464725F69735F706167655F616C6971
:10082000676E656428705F66732C20706167655F12
:100830006164647229000000705F6673000000004C
:10084000257320636865636B206661696C6564204D
:10085000696E202573282920776974682076616C79
:10086000756520307825782E00000000705F667373
:100870002D3E705F617069006C656E00E0A9030039
:1008800038B503001148124D4FF00E04A0EB0500DF
:100890004FEAD0004FF0010505EB004009D061B1EF
:1008A00019600C6801B0A446BDE8304011461846F6
:1008B0006047084B08A2009402E0064B08A200948F
:1008C00009A100F06AFC0E2038BD0000C8BC03007E
:1008D00008BC0300B0730300705F66730000000083
:1008E000705F617069000000257320636865636B49
:1008F000206661696C656420696E20257328292053
:10090000776974682076616C756520307825782E5B
:1009100000000000044801214174007A08B1002061
:100920007047012070470000C0420020012801D01C
:10093000032808D10449002201284A7400D000206D
:10094000087404F013BA7047C042002070B5024624
:10095000022801D0032A45D1234C207A002841D017
:10096000012833D0022831D120480023022A006810
:1009700002D0032A2AD11BE0E360017911B10129D9
:1009800024D10DE0D0E90565711B4FF48056B142CA
:1009900000D33146294481614569A9420ED015E052
:1009A0000169491C0161426991420FD1237213E030
:1009B000E168491CE160082908D9E3602372022A32
:1009C0000AD00D21FBF7C0FA04F0E8F8607C28B1EA
:1009D000BDE8704001F0FEB80021F3E7BDE87040CB
:1009E00004F0C4B970BD0000C04200208030002077
:1009F0002DE9F84F90468A463A493B4A0500A1EB5B
:100A000002014FEAD1014FF00102DDF828901E46A5
:100A10004FF00E0002EB01441AD0B8F1000F1CD0C9
:100A20002868002822D00920002E29D0696849684A
:100A3000B6FBF1F201FB1261002926D000902B4B8E
:100A400020462BA235A100F0A8FB0920BDE8F88FB5
:100A500000902046254B3CA203E00090234B20460B
:100A60003BA22EA100F099FB0E20EFE7082000909A
:100A700020461E4B38A229A100F08FFB0820E5E795
:100A800000902046194B37A2DCE75046F8F7C1FC2E
:100A9000102798B14046F8F7BCFCA0B13246514649
:100AA0002846F8F7BCFC98B1CDF80090286833468A
:100AB0004246C46851462846A047C7E720460B4B2C
:100AC00029A2009708E02046084B2DA2009703E0DA
:100AD000064B204633A2009710A100F05EFB1020C9
:100AE000B4E70000C8BC030008BC0300E8730300BF
:100AF00021286C656E202520705F66732D3E705F27
:100B0000666C6173685F696E666F2D3E70726F67A9
:100B100072616D5F756E6974290000002573206332
:100B20006865636B206661696C656420696E202569
:100B300073282920776974682076616C7565203088
:100B40007825782E00000000705F667300000000BA
:100B5000705F737263000000705F66732D3E705F9C
:100B6000617069006C656E00616464725F69735FD7
:100B7000616C69676E65643332286465737429003B
:100B8000616464725F69735F616C69676E65643329
:100B900032282875696E7433325F7429705F7372FE
:100BA00063290000616464725F69735F77697468C8
:100BB000696E5F626F756E647328705F66732C2058
:100BC000646573742C206C656E29000070B541EA71
:100BD0004201DDE904564FF0A04441EA830141EAB5
:100BE000052104EB800041EA0641C0F8001770BD02
:100BF00070B541EA4201DDE904564FF0A04441EAF4
:100C0000830141EA052104EB800041EA0641C0F876
:100C1000001770BD70B541EA4201DDE904564FF09E
:100C2000A04441EA830141EA052104EB800041EA46
:100C30000641C0F8001770BD70B541EA4201DDE918
:100C400004564FF0A04441EA830141EA052104EB38
:100C5000800041EA0641C0F8001770BD1CB50021B4
:100C600000910B4601220191FFF7D4FF1CBD1CB57A
:100C7000002100910B4601220191FFF7DDFF1CBD11
:100C80001CB500220B46009211460192FFF7C2FFED
:100C90001CBD1CB500220B46009211460192FFF7C5
:100CA000CBFF1CBD1CB5002100910B460122019118
:100CB0001146FFF7AFFF1CBD1CB5002100910B468C
:100CC000012201911146FFF7B7FF1CBD4FF0A04272
:100CD00002EB8000D0F8002722F44032C0F8002751
:100CE000D0F8002742EA0141C0F800177047000021
:100CF00038B5094B44181B6800936B4608E000BFE9
:100D000053F82010D1F8205520C2C1F82055401CBE
:100D10008442F5D838BD00005073030042094FF0FB
:100D2000000100D1491E00F01F00012282400A424A
:100D300001D0012070470020704701224FF0A043EE
:100D4000824011B1C3F808257047C3F80C257047DD
:100D5000034908B50844002101600068009008BDFF
:100D60000060004002494058012800D00020704730
:100D70000060004000210846FFF754BAFFF7F8BAB8
:100D800030B5154A01460020D2F8104423460AE047
:100D9000DB681D79854205D1401C0A28F6DB4FF03F
:100DA000FF3030BD1B68002BF2D1431CF9D0CB685B
:100DB0001871D2F8103443B1DB68CC681B6823602B
:100DC000D2F81024D268116030BDC2F81014C9687E
:100DD00000220A6030BD0000B8440020F0B595B094
:100DE0001C4615460F4608461A9E00F063FB182164
:100DF00009A8F6F7CFF90E96CDE909540023082289
:100E000003A9384600F06BFB05980690BDF810006A
:100E1000ADF81C00BDF81200ADF81E0000208DF8E2
:100E200021000398082600F00300012802D00228C0
:100E300018D032E003983346850AC0F3C2008DF81B
:100E4000200003980FA9C0F38314A200384600F0D5
:100E500046FB09A8009006AB22460FA9284600F0E1
:100E600085FA1AE00398840DC0F3C2008DF82000C3
:100E7000082C01D2254600E0082533462A460FA952
:100E8000384600F02CFB2E44641B09AB06AA294609
:100E90000FA800F0A3F9002CEAD1384600F010FBAF
:100EA00015B0F0BD7047012005F09CBB084810B597
:100EB0000178084A515C19B1001D01F0E1FA02E025
:100EC0000C3001F0DBF9BDE81040002005F08ABBD2
:100ED00094300020EC2F002008B5034A00928023B4
:100EE000024AFFF77BFF08BDA55A0300E04200203D
:100EF0000A4A012902EBC00007D0022907D00329C2
:100F000007D0042907D00020704702207047042032
:100F100070470079704740797047000008BC0300B3
:100F200010B5FFF7C0FF04210348FFF729FF02496E
:100F30000120C968487110BDF8BB03002DE9F04FCE
:100F40008DB0FAF7DFF818B100200DB0BDE8F08FD2
:100F50007E4C4FF0000BC4F818B4BFF34F8F7C49A0
:100F6000A06802900D68D846284004EB80000BE092
:100F7000D4F8180470B961680298814201D8A16060
:100F8000E2E7284004EB80000C3002A9FCF7F4FBF8
:100F90000028EDD1002005AA029901EA050304EB1F
:100FA0008303491CDB6842F82030401C0291022870
:100FB000F2D3059800F00300022802D001284DD09A
:100FC000AAE005985022810D8946B2EB905F00D8C7
:100FD00050210E4666F39F50059008315D4800F0A1
:100FE00020FA070078D000F065FA4346082205A9E8
:100FF000384600F07CFA029908F1080A2940681A7C
:101000008000001D864222D9504D0C3530B1C2B24D
:1010100004EB8101301A90460C3104E02946F2B20B
:10102000002590462846C6B25346384600F05FFA7F
:101030000AEB080325B132462946384600F057FA34
:10104000029909F1030001EB900002903BE004EBF0
:1010500081015346324638460C31EFE70598C0F31C
:101060008310062800D30620059960F38911C1F387
:101070008310801C05918100364800F0D2F90700EA
:101080004AD000F017FA4346082205A9384600F076
:101090002EFA08F1080800260FE00298434600EAFD
:1010A0000501401C04EB81010290042238460C31FA
:1010B00000F01DFA08F10408761C0598C0F38310AF
:1010C000B042EAD847B1D4F81054D4F8180478B133
:1010D000384600F0F5F934E01EE0E8684079012870
:1010E00004D12A682846394612689047E86805689E
:1010F000002DF2D1384600F0E3F98DF800B06846D3
:10110000F8F714FBD4F8180408B90298A0609DF809
:101110000000F8F72FFB14E0D4F8104405E0216834
:10112000204689688847E0680468002CF7D10A489F
:101130000A49401AC008022101EB004008A100F052
:1011400019F8F9F7DFFF80F00100FEE6B84400204F
:10115000B030002014BD0300E0BC030008BC030055
:101160004261636B656E647320666C757368656459
:101170000000000000231A4605F0DCB808B5012382
:1011800000926A4605F0D6F808BD1CB5CDE90023EB
:1011900002236A4605F0CEF81CBD3EB5069C8DE8DC
:1011A0001C0003236A4605F0C5F83EBD7FB5DDE9A6
:1011B00008458DE83C0004236A4605F0BBF87FBD76
:1011C000F0B587B00DF1300C9CE8F0008DE8FC0024
:1011D00006236A4605F0AEF807B0F0BD2DE9F047EA
:1011E0000E4680461C469246082940D894F80C903A
:1011F000002020731946104603F062FC0025B5421A
:1012000006D218F805201BA12046FFF797F903E046
:101210001AA12046FFF792F96D1C082DEFD318A1F3
:101220002046FFF78BF90025B54212D218F8057059
:101230007E2F08D8F5F782FF0068C05D10F03E0FE2
:1012400001D03A4600E02E220EA12046FFF776F9A3
:1012500003E00DA12046FFF771F96D1C082DE3D3C3
:1012600001222146504603F00DFC84F80C90BDE8A5
:10127000F087000020253032780000002020200078
:101280007C0000002563000020000000064910B526
:1012900000200870054800F011F9002803D1044827
:1012A00000F0A0FA002010BDB844002014BD0300D7
:1012B000CC75030002480349401AC008704700007B
:1012C00000BD030008BC030013B56846FDF7C2FD6E
:1012D00008B100201CBD0248009950F831001CBD27
:1012E00008BC030070B508480125D0F8104405700B
:1012F00007E0E06845712168204649688847E06852
:101300000468002CF5D170BDB84400201CB504461B
:101310001448007870B96CB12046F5F746FF401CC0
:10132000009001236A4601A90F4800F010FA18B195
:1013300000201CBD20461CBDDDE900202146F5F73C
:1013400001FFDDE900211144002001F8010C0648ED
:10135000009900F055FA0448009900F030FA01981D
:101360001CBD0000B8440020CC7503002DE9FF47E8
:1013700081460C9D00200C462F7B2873984616460C
:101380002946184603F09CFB072E42D2DFE806F000
:1013900004090F161F2A360049462846FFF7CEF8E3
:1013A00037E0494628462268FFF7C8F831E0D4E91B
:1013B000002349462846FFF7C1F82AE0A0680090BC
:1013C000D4E9002349462846FFF7B8F821E0D4E9DC
:1013D0000201CDE90001D4E9002349462846FFF780
:1013E000ADF816E004F1080007C88DE80700D4E95D
:1013F000002349462846FFF7A1F80AE004F1080057
:101400000FC88DE80F00D4E9002349462846FFF7AE
:1014100095F800222946404603F034FB2F73BDE8BF
:10142000FF872DE9F041058A80462D1F4819C01C11
:10143000B0FBF5F0C6B24046FDF78BFE041E19D096
:101440000020207101206071E58000272546761E6E
:10145000C4F800800BE04046FDF77BFE60B1617987
:10146000491C6171286005467F1CC0F80080B742A6
:10147000F1D32046BDE8F081204600F002F80020BC
:10148000F8E72DE9F041457901466B1E002201E0A5
:101490000968521C9A42FBD30F680146002605E0FA
:1014A00038460C68FDF777FE2146761CAE42F7D32E
:1014B000BDE8F0810121001DFDF71FBEFDF783BED1
:1014C00010B504460121001DFDF73DFE10F0FF0F91
:1014D00004D12046BDE81040FFF7D3BF10BD1CB5B6
:1014E00001920122009201AAFDF774FC1CBD1CB5FB
:1014F00001920022009201AAFDF76CFC1CBD0000C5
:10150000064910B500204870091D0860BFF35F8FC1
:101510000349044800F08AFB002010BD88300020F9
:1015200058740300D442002008B500208DF8000054
:101530006846F8F7FBF8F1EE100A20F09F00E1EEA4
:10154000100ABFF35F8F08494020C1F880029DF860
:101550000000F8F70FF900F037FB08B141DF08BDD4
:1015600020BF40BF20BF08BD04E000E02DE9F843E4
:101570000446002790460E468DF800706846F8F73E
:10158000D5F8204600F039F838B105279DF800005D
:10159000F8F7F0F83846BDE8F88320680568B8F138
:1015A000000F05D10168204600F03FF8216808606F
:1015B000E268012A0CD0022A0ED0042A11D06068F9
:1015C000082A13D005FB02013046F5F7BBFDDDE725
:1015D0006068405D3070D9E7606830F81500308091
:1015E000D4E7606850F825003060CFE700EBC50114
:1015F000D1E90001C6E90001C8E701680868496847
:10160000884201D1012070470020704701680A68B4
:1016100049688068884201D9491C00E00021914254
:1016200001D101207047002070478068884201D9AD
:10163000481C7047002070472DE9F84304464FF0DE
:1016400000080E468DF800806846F8F76FF82046CF
:10165000FFF7DCFF07000AD0207C40B14FF0040800
:101660009DF80000F8F786F84046BDE8F88320684A
:10167000456841682046FFF7D8FF2168486037B1C8
:10168000206801682046FFF7D0FF21680860E26803
:10169000012A14D0022A16D0042A19D0082A1CD0F4
:1016A0006068314605FB0200F5F74CFD204603F06B
:1016B000FFFB21688A688242D2D28860D0E76168E5
:1016C00030784855F2E76168308821F81500EDE779
:1016D0006168306841F82500E8E7D6E900016268F2
:1016E00002EBC502C2E90001E0E7F8B507464FF09A
:1016F000000415000E46204615D08DF800006846FF
:10170000F8F714F8384603F0D3FBA84205D32A466D
:101710003146384603F07AFB00E005249DF80000CE
:10172000F8F728F82046F8BD38B5054600248DF8AE
:1017300000406846F7F7FAFF286804604460846058
:101740009DF80000F8F716F838BDF7F785BF2DE9CA
:10175000F0411F0015460E46044606D0A068FDF76E
:10176000C9FC10B11120BDE8F081A068D0E90331B7
:101770006068A3EB010C421C944507D1002028604F
:1017800017B1A068FDF7ADFC0020ECE703EA00020A
:1017900001EA0007BA4201D3831A01E0181A0B1AB2
:1017A00028685B1C984200D203462B6020681044D6
:1017B0003060A0682A68C1681144C160E4E710B5D0
:1017C000826894681369E41AA14201D9042010BD0B
:1017D00019441161826851618068001DFDF781FC28
:1017E000002010BD826800219160826811618268CA
:1017F00051618268D1608268516080680160704781
:1018000070B58268456894681369E31AEB1A5B1C2B
:10181000994201D9042070BD214491608268D16051
:101820008068FDF761FC08B1002070BD082070BD24
:1018300008B5002242504058009008BD20B103492D
:1018400009680160002070470E2070475076030041
:10185000FEB502460E460846FFF7F0FF002867D1A6
:10186000002500958DF8002002208DF802000195DA
:101870000620ADF80400029569462020326869DF31
:101880002C492D4A891AC908012707EB014430B1B8
:1018900000F044FA024620462849FFF76FFC009505
:1018A0008DF801708DF80270019502958DF8037026
:1018B00069464020326869DF30B100F02FFA0246F5
:1018C00020461F49FFF75AFC0095019502958DF8B7
:1018D000005069460120326869DF30B100F01EFA1D
:1018E000024620461749FFF749FC4FF4B0600090CC
:1018F000019502956946A120326869DF30B100F098
:101900000DFA024620461049FFF738FC0095019574
:1019100002958DF800506946A020326869DF30B129
:1019200000F0FCF9024620460849FFF727FC00209A
:10193000FEBD0000F0BC030008BC030078AF03004C
:10194000C0AF0300D8AE030024AF030084AE030091
:101950002DE9F0410546076860DF804619491A48BD
:101960002A68081AC608BA4219D9022000EB0644B0
:1019700016A12046FFF7FEFB20463A461FA12B6822
:10198000FFF703FC4FF08050D0F80C01296880026B
:1019900000F10050421A204625A1FFF7EFFBB8F1F5
:1019A00000004FF001040AD000F0B8F9024604EB41
:1019B00006402AA1FFF7E2FB4046BDE8F0812F4830
:1019C0000470F9E7F0BC030008BC0300496E7375AE
:1019D0006666696369656E742052414D20616C6C66
:1019E0006F636174656420666F722074686520534C
:1019F0006F66744465766963652E00004368616EA6
:101A00006765207468652052414D2073746172745B
:101A1000206C6F636174696F6E2066726F6D203029
:101A200078257820746F20307825782E000000000B
:101A30004D6178696D756D2052414D2073697A65ED
:101A400020666F72206170706C69636174696F6E7B
:101A500020697320307825782E00000073645F625F
:101A60006C655F656E61626C6528292072657475AE
:101A7000726E65642025732E00000000073100207F
:101A800030B5144891B00078002820D05FF03405BC
:101A9000ADF8405010A903A861DF30B1052816D079
:101AA00011B0BDE83040F7F7D7BD03AC0A4968462E
:101AB00000F0BCF807E000BFD0E9002120469047C5
:101AC000684600F0CAF802980028E1D0F4E711B0A7
:101AD00030BD00000731002054760300F8B5134CE8
:101AE0002078C0B10120A07003F0E6FD112814D0C9
:101AF000022003F0F9FD00258DF800506846F7F745
:101B000015FE11DF064625709DF80000F7F732FE3E
:101B10002EB13046F8BD0820F8BD0020F8BDA570F4
:101B200004F09EFB032003F0DFFDF6E70431002004
:101B30007CB5194C207808B108207CBD0120A0702C
:101B4000002003F0B9FD112819D0002003F0CCFDCE
:101B500012480026006801908DF800606846F7F78B
:101B6000E5FD0F4901A810DF05000AD00020207014
:101B70009DF80000F7F7FEFD2DB128467CBD002042
:101B80007CBD0120F3E7A670667004F089FB01209C
:101B900003F0AAFDF3E7000004310020E87503001C
:101BA000D59502000EB50749684600F03FF805E0FC
:101BB000D0E900108847684600F04FF802980028E6
:101BC000F6D10EBD0476030001480078704700008E
:101BD000043100200548817819B1007818B1FFF769
:101BE0007DBF08207047FFF7A3BF0000043100202D
:101BF0001FB568464BDF30B1052814D004B0BDE8EE
:101C00001040F7F729BD084901A800F00FF806E0D9
:101C1000D0E900210098904701A800F01EF8039831
:101C20000028E6D0F4E71FBD707603000160096864
:101C30004160AFF3008010B5D0E9002153689942AC
:101C400001D1002104E0D1E90034A34202D01946B9
:101C5000816010BD08314160F0E7816800290BD038
:101C6000026892680A44826041684B689A4203D1D4
:101C700008314160FFF7DFBF704770B50D4606467B
:101C8000446804E0B2682946904718B12468206887
:101C90000028F7D120682860256070BD4068006882
:101CA000704741680868002801D002680A607047E0
:101CB00002460020526806E08B4203D1086810609B
:101CC000012070471A461368002BF5D170470000B9
:101CD00003496846884201D20120704700207047BE
:101CE000D84800200C4A10B502F594730EE0991AFA
:101CF000C91001EBD171491002EBC1010C6884429B
:101D000001D90B4602E005D201F108029A42EED356
:101D1000002010BD486810BD7874030000B5FFF7BF
:101D2000E1FF002800D1014800BD000064740300F9
:101D30004058002800D00120704708B500224250CA
:101D40004058009008BDD0F80403084000D001209E
:101D500070474058002800D00120704708B5002285
:101D600042504058009008BD002802D0014980012F
:101D700008477047817303002DE9F0410E46054680
:101D800001F060FF0028284619D0F9F745FA083815
:101D900002F070FE032802D001280ED007E04FF0B9
:101DA000A040D0F81005E84010F0010F05D0032145
:101DB0002846BDE8F041FEF789BF0221F8E701F0AF
:101DC0004DFF002822D02846F9F726FA04464FF4A2
:101DD000807000EB84000E4F81B207EB8400D0F8D6
:101DE000102542F00102C0F810250846FEF7B0FFAA
:101DF000002E0BD02846F9F70FFA064951F82000BB
:101E0000002803D00120A040C7F80403BDE8F081FA
:101E100000600040E43F00202DE9FC41DFF8B8807D
:101E2000044608EB0400002790F930001346C01761
:101E30000E46401C01D008274AE0B0781946C0F38E
:101E400040022046F9F7C4F90546401C3FD0B0785F
:101E5000410717D4C0070AD04FF0A04000EB840020
:101E6000D0F8001721F00201C0F8001707E00021A8
:101E70007378204600910A460191FEF7B9FE20468C
:101E800001F0D2FEB078800718D51448317800EB05
:101E90008500D0F81025124B1A40C0F810254FF4D9
:101EA000F8524FF4403302EA042203EA01410A43A4
:101EB000D0F810150A43C0F8102509E008EB05001A
:101EC000327810F8481F41EA8211017000E00427BF
:101ED0003846BDE8FC810000E43F0020006000407F
:101EE000FFE0FCFF4FF0A041D1F81015C14011F008
:101EF000010000D00120704770B5194D95F85800C9
:101F000008B1082070BD0024661E2046FEF706FFBB
:101F100010B1281980F83060641CE4B2202CF4D38E
:101F200000242046F9F746F9641CE4B20C2CF8D3DF
:101F300000200D4968650B4CC02081F80004012683
:101F40004020891FC1F800014FF4BE70FEF700FF6A
:101F5000A004C4F8040385F85860002070BD000098
:101F6000E43F00200060004006E000E0034890F8F5
:101F70005800002800D0012070470000E43F0020F6
:101F80000121B1EB507F01D1012070470020704743
:101F900038B50D4602F0E0FD040014D000208DF8A5
:101FA00000006846F7F7C2FB207928B19DF80000D1
:101FB000F7F7E0FB112038BD0120256020719DF866
:101FC0000000F7F7D7FB002038BD10B502F0C4FDC4
:101FD000002802D000210160017110BD01B582B05E
:101FE00000208DF800006846F7F7A0FBFFF7ECFD36
:101FF00048B902A90648FFF71FFB0548FFF706FB93
:1020000008B100F043F89DF80000F7F7B3FB0EBDF0
:102010003CBD0300114A13780BB185207047516015
:102020000178C90704D00E490B6843F001030B6027
:102030000C49D1F8003223F00103C1F80032407896
:102040000949400181F8000401204FF0E0234103D9
:10205000C3F800111070002070470000003000200D
:1020600004D5004000D000400DE000E0064908B56E
:10207000002204480A60096800910121C0F8041395
:10208000016008BD00D0004000D10040034901209C
:10209000C1F80803091D08607047000000D0004027
:1020A00009490120C1F80803091D086041034FF0E8
:1020B000E0220020C2F88011BFF34F8FBFF36F8F73
:1020C000024908707047000000D000400030002036
:1020D0000149024804F0AEBA404000200020004010
:1020E0002DE9F0410546007916460F4600EB400108
:1020F0002D4A01EBC00102EB810494F82A1011B1C2
:102100000820BDE8F081294951F820102868FFF720
:102110003FFF08B11120F4E739462846F7F744FBA2
:1021200066603869206030004FF001062FD03F7F95
:102130004FF48E712868FFF700FE4FF4A2712868F3
:10214000FFF7FBFD28681A49C0F8041328684FEA16
:10215000471140F30730002804DB00F1E02080F84D
:10216000001405E000F00F0000F1E02080F8141DDD
:10217000286840F30730002809DB00F01F0106FA49
:1021800001F14009800000F1E020C0F8001128684A
:102190000421C0F800150020A061E06184F8290046
:1021A00044F8140FA675ACE74040002054730300B8
:1021B000800002002DE9F05F054600790B4600EB38
:1021C000400101EBC000244901EB8004284600F0E7
:1021D00045F810B11120BDE8F09F62614FF0000991
:1021E000C4F82090A36084F828904FF48E784E466F
:1021F00041462868FFF7A1FD28684FF0010AC0F8A2
:1022000008A02146286804F0A5F9606808BBD5F845
:1022100000B067690FE000BF94F8280008B10F26EE
:1022200015E041465846FFF783FD0028F4D02146CB
:10223000584604F08FF9206AB842F2D35746414617
:102240002868FFF775FD0028F9D02868C760C4F832
:1022500014903046BFE7000040400020007900EBBA
:10226000400101EBC000044901EB800040690028F7
:1022700000D0012070470000404000202DE9F047C9
:10228000044600794FF0000900EB400101EBC0006B
:10229000284901EB80072068C0F800957868B0B144
:1022A00020682549C0F80813206840F3073000284B
:1022B0000DDB00F01F02012191404009800000F178
:1022C000E020C0F88011BFF34F8FBFF36F8F2068FD
:1022D000D0F80C25D0F81485D0F80865D0F8105542
:1022E0004FF0FF31C0F81415C0F80C152068C0F885
:1022F0000815C0F81015501C02D01046FEF7AEFCB1
:10230000B8F1FF3F02D04046FEF7A8FC681C02D09F
:102310002846FEF7A3FC701C02D03046FEF79EFC58
:102320002068FFF752FE87F82A90C7F80490BDE8AE
:10233000F08700004040002084020200014902486A
:1023400004F026BA6C400020002000402DE9F04146
:102350000546164600790F46154A00EBC00102EB10
:10236000810494F8201011B10820BDE8F0811149D2
:1023700051F820102868FFF70BFE08B11120F4E790
:1023800039462846F7F754FA6660386920601EB16E
:10239000397F2846FBF7ACF928680821C0F80015FA
:1023A0000020A061E0616061012184F82010DCE779
:1023B0006C400020587303002DE9F04704460E4698
:1023C0000079274900EBC00001EB80051746304635
:1023D000FFF7D6FD30B1204600F044F820B11120BF
:1023E000BDE8F0871020FBE76F61AE604FF4907797
:1023F0004FF0000839462068FFF7B0FC4FF4AC7688
:1024000031462068FFF7AAFC2068AA686969C0F80D
:102410004425C0F8481520684FF00109C0F808901D
:102420006868D0B9BA4651462068FFF792FC074663
:1024300031462068FFF78DFC0743F4D010B14FF010
:102440000F0808E02068C0F80C9031462068FFF7BC
:1024500080FC0028F9D0002068614046C0E70000F9
:102460006C4000200079054900EBC00001EB8000C2
:102470004069002800D00120704700006C40002017
:102480002DE9F047064600793D4900EBC00001EB1D
:102490008005346868680127A8B13A49C4F8081370
:1024A000306840F3073000280DDB00F01F0107FA09
:1024B00001F14009800000F1E020C0F88011BFF375
:1024C0004F8FBFF36F8FD4F8000220F02000C4F8C4
:1024D0000002A8694FF4A27820B141462046FFF7D8
:1024E0003DFC67604FF4AC7949462046FFF736FC67
:1024F000E760474649462046FFF72BFC0028F9D005
:10250000A86928B139462046FFF723FC0028F1D0FE
:102510004FF0000AC4F800A53068D0F80C25D0F8B8
:102520001495D0F80885D0F810754FF0FF31C0F839
:102530000C15C0F814153068C0F80815C0F810154F
:10254000501C02D01046FEF792FBB9F1FF3F02D0BB
:102550004846FEF78CFB781C02D03846FEF787FB16
:10256000B8F1FF3F02D04046FEF781FB2046FFF75F
:102570002CFD85F820A0C5F804A0BDE8F087000078
:102580006C4000201003420010B504460D480E4A6E
:10259000801AC008032202EB0040224621B10BA1A1
:1025A000FEF7ECFD012103E010A1FEF7E7FD00219D
:1025B0000022204680DF002803D0BDE81040F7F756
:1025C0004BB810BDE0BC030008BC03004E756D6540
:1025D000726963204D617463682E20436F6E6E20B4
:1025E00068616E646C653A20256400004E756D6507
:1025F0007269632052454A4543542E20436F6E6EE4
:102600002068616E646C653A2025640003490860A7
:10261000034801680029FCD07047000004E5014030
:1026200000E40140FDF7C0BE10B548B1032811D148
:102630000220F8F7EFFABDE810400320F8F7E2BAFD
:1026400003210548F7F71FFC002803D0BDE8104020
:10265000F7F702B810BD0000B4330020F8B50188C8
:10266000041D1F2956D030DC3148324A324EA0EBCF
:1026700002004FEAD0004FF003024FF6FF7702EB63
:102680000045102929D0112951D1237922882846C3
:102690002AA1FEF77AFD0120F8F7B4FA0020F8F736
:1026A000B9FA2088318888420BD130486A46032124
:1026B0008068009037802E48FDF784F908B1F6F75E
:1026C000CBFFBDE8F84002F0AFBF3B2926D056292A
:1026D0002DD18088132176DF23E02288284625A18A
:1026E000FEF74CFD3088B8420CD12288284629A13B
:1026F000FEF744FD104821882430F7F725FE08B185
:10270000F6F7AAFF0020F8F77DFABDE8F8400120AF
:10271000F8F780BA2088211D75DF02E08088132138
:1027200076DF002803D0BDE8F840F6F795BFF8BD86
:10273000E0BC030008BC0300CC28002043454E54F5
:1027400052414C3A20446973636F6E6E65637465E1
:10275000642C2068616E646C653A2025642C2072BC
:102760006561736F6E3A203078257800147003002D
:10277000E837002043454E5452414C3A20436F6E97
:102780006E65637465642C2068616E646C653A20C4
:1027900025642E0043454E5452414C3A2053656106
:1027A000726368696E6720666F7220485253206FAB
:1027B0006E20636F6E6E5F68616E646C652030784A
:1027C000257800002DE9F04387B00D460746F7F75E
:1027D000EDFC0646284601F003FE5749574B288872
:1027E000C91AC90803230022DFF8488103EB01441A
:1027F000172875D031DC5249102839D011285FD004
:10280000132862D0152825D1A8680490A889ADF8AE
:1028100014008DF8162004A8FEF778FD814658F8BC
:102820002600FEF773FD0246A87B4B4600F0010030
:102830000090204643A1FEF7B0FCA87BC00709D05A
:1028400020464FA1FEF796FC5948022E46D0012E95
:1028500000D1878007B0BDE8F083182848D0192838
:1028600050D02128F6D10092A88869468FDF1EE05B
:10287000012001F8370001EBC700A96840F8011FEB
:10288000A9898180A97B81714A4A394600204FF687
:10289000FF7300BF00EB400402EB840464889C4299
:1028A0000AD100EB400002EB8000FCF7C5FF0028D6
:1028B000D0D0F6F7D1FECDE7401C0228EAD3C9E715
:1028C00001EBC70002604260C4E758F82600FEF73B
:1028D0001DFD0246204638A111E001E04780B9E71E
:1028E00058F82600FEF712FD024620463BA106E0FE
:1028F00058F82600FEF70AFD0246204640A1FEF7E2
:102900003DFCA7E758F82600FEF700FD0246AB7A2B
:102910006E7A687B297BC6F380060390C3F3C003FD
:102920000096CDE901312B7A20463E49FEF748FC5E
:1029300090E70000C02E0020E0BC030008BC0300AC
:102940005838002025733A20424C455F4741505F7C
:102950004556545F504153534B45595F444953507A
:102960004C41593A20706173736B65793D25732032
:102970006D617463685F7265713D256400000000DD
:10298000507265737320427574746F6E20312074B9
:102990006F20636F6E6669726D2C20427574746F60
:1029A0006E203220746F2072656A656374000000C7
:1029B000CC2800209C33002025733A20424C455FF0
:1029C0004741505F4556545F5345435F5041524124
:1029D0004D535F52455155455354000025733A20DD
:1029E000424C455F4741505F4556545F41555448FE
:1029F0005F4B45595F524551554553540000000007
:102A000025733A20424C455F4741505F4556545F1D
:102A10004C4553435F44484B45595F5245515545DA
:102A2000535400009899030019491A4B10B5C91A5C
:102A30000288C908032303EB0144102A0ED0112A8F
:102A400019D03B2A1FD0562A21D18088132176DF46
:102A500000281CD0BDE81040F6F7FEBD8288204655
:102A60000DA1FEF78BFB0220F8F7CCF8BDE8104073
:102A70000320F8F7CFB8037A82882046BDE81040DB
:102A80000EA1FEF782BB8088132176DFE0E710BD40
:102A9000E0BC030008BC0300504552495048455271
:102AA000414C3A20436F6E6E65637465642C2068F8
:102AB000616E646C652025642E000000504552490B
:102AC00050484552414C3A20446973636F6E6E65BD
:102AD000637465642C2068616E646C652025642CC9
:102AE00020726561736F6E20307825782E000000AB
:102AF0002DE9F84F05460C460888B5F8CA128842F9
:102B000079D195F8C6024FF0000A00EB8001C1EBC5
:102B1000801005EB40066088002860D13079E2889B
:102B2000A71D8146D1B250FA82F2062A02D8084483
:102B3000307111E006203071374838493288401A28
:102B4000C108022000EB014080463549FEF716FB24
:102B500040463449FEF70EFB48460022D0461BE0B3
:102B600000EBC00102EB820307EB430306EB4101DC
:102B7000D3F802C0C1F80AC0D3F806C0C1F80EC02D
:102B80005B894B82A1F81480A1F81680A1F8188007
:102B9000401CA1F81A80521C31798142E0D895F886
:102BA000C61200EBC00001EB8102C2EB811105EB04
:102BB000410136F810000989884210D23079062880
:102BC0000DD085F8C50221882846F8F7F5FB0028C6
:102BD00011D022882946BDE8F84FF8F791BF85F853
:102BE000C5A2228869462846F8F798FE28B12288AF
:102BF0002946F8F785FFBDE8F88F9DF8000000280A
:102C0000F9D0228801212846F8F720FF218828469C
:102C100000F054FAEFE7000008BC030008BC030012
:102C2000F49903003C9A030070B58D88027900EB9B
:102C3000C5042273C97BA41D012902D0022904D135
:102C400001E0008800E0408820802188608881427F
:102C500011D92846A5DF0126B0B1112816D0FFF7FB
:102C60005DF802460B480C49401AC00806EB0040CC
:102C70000AA1FEF783FAA179E079814208D92846B2
:102C8000BDE87040F8F786BD6671F4E72671F2E79B
:102C900070BD000028BC030008BC030073645F62C1
:102CA0006C655F67617474635F65786368616E67A4
:102CB000655F6D74755F7265717565737428292021
:102CC00072657475726E65642025732E00000000B5
:102CD000F8B505460C460888B5F8CA12884255D1A1
:102CE00095F8C602A21D00EB8001C1EB801005EB38
:102CF000400695F8C50200EBC00006EB4001608875
:102D00000A3138B329E000BF00EB400302EB430374
:102D10009F88B7F5245F0CD06FF4245C17EB0C0789
:102D20000AD0012F02D0072F0BD108E05B884B811E
:102D300007E05B888B8104E05B88CB8101E05B88E6
:102D40000B824B892BB18B891BB1CB890BB10B8AC1
:102D50001BB9401C13888342D6D800208DF8000090
:102D600095F8C5023179401C884203D101208DF8C5
:102D7000000010E085F8C502228869462846F8F769
:102D8000CDFD20B122882946F8F7BAFEF8BD9DF89E
:102D900000000028FAD0228801212846F8F756FEC4
:102DA0002188284600F08AF9F8BD00002DE9F0419D
:102DB0000746402090B08046034609686A461A4894
:102DC000FDF798F80500194819494FF00106A0EBE6
:102DD00001004FEAD00006EB004408D020462A4606
:102DE00014A1FEF7CBF9284610B0BDE8F08107EB3F
:102DF000470000EB07111D48434600EB81010D46DB
:102E00006A460948FDF7E4F8020007D0204618A1F9
:102E1000FEF7B4F9002085F8490001E085F8496023
:102E200085F848600020DFE70073030038BC03002A
:102E300008BC03006E72665F63727970746F5F65C1
:102E400063635F627974655F6F726465725F696EF8
:102E50007665727428292072657475726E656420B7
:102E60006572726F7220307825782E00843B0020C6
:102E70006E72665F63727970746F5F6563635F70B3
:102E800075626C69635F6B65795F66726F6D5F72A7
:102E9000617728292072657475726E656420657289
:102EA000726F7220307825782E0000007CB50646BF
:102EB0008D88C88806EBC504A41D172800D21720EA
:102EC0002188814200D80846608000202071218836
:102ED0002846B5DF60B1FEF721FF02460F481049D2
:102EE000401AC008012101EB00400EA1FEF746F98F
:102EF0006079002810D1B06900280DD01549D1E9BA
:102F00000201CDE90001ADF802506088ADF804007F
:102F1000B2696946304690477CBD000028BC03007A
:102F200008BC030073645F626C655F6761747473EF
:102F30005F65786368616E67655F6D74755F726504
:102F4000706C7928292072657475726E656420250D
:102F5000732E00005C71030070B502888B888CB002
:102F60009A422BD14A8983889A4227D102228DF82E
:102F700000200288ADF8022000228DF806200A7C8D
:102F8000D30701F101021BD0128AADF804200323FC
:102F90000A7CD2060FD500226D46CC899C4208D906
:102FA000CC1805EB4206248A521C9B1C3481142A3F
:102FB000F3D38DF806208268694690470CB070BD47
:102FC0004A7CADF804200223E2E7000070B50A4C09
:102FD00061884FF6FF75A94205D001466088FFF76A
:102FE000D3FA658070BDA188A942FBD00146A088B4
:102FF000FFF7CAFAA58070BDCC28002070B5054641
:103000000C4690F8C602228800EB8001C1EB8010CC
:1030100005EB4001B5F8CA02824238D1608848B158
:1030200000212846F8F712FD21882846BDE87040A7
:1030300000F044B8E268C1F80620E28895F8C412AE
:10304000D0B251FA82F2062A03D8084485F8C402A5
:1030500011E0062085F8C4020D480E49401AC10847
:10306000022000EB01460CA13046FEF783F8304603
:103070001149FEF77FF821882846F8F79DF90028C6
:1030800005D022882946BDE87040F8F739BD70BDEB
:1030900008BC030008BC03004E6F7420656E6F759A
:1030A000676820737061636520666F722073657254
:1030B00076696365732E0000989A030070B588B036
:1030C0000D46044620216846F4F764F894F8C702D8
:1030D0001E4B401CC0B284F8C702DA68002190423F
:1030E0002CD284F8C51294F8C602194E401CC2B204
:1030F00002EB820084F8C622C0EB821006EB82024B
:1031000004EB400012680260017102218DF800108A
:103110000121ADF810100068CDF812000D48CDE97E
:1031200002042A4669469868FCF774F9002803D01F
:103130002A462146F8F7E4FC08B070BD84F8C812AE
:1031400029462046F8F76AFCF6E70000002F002029
:10315000A439002001BB020048B1064A016891422F
:1031600005D140680449401802D0012800D003204E
:1031700070470000DEC0ADDE02FEE10E8A7D022A4D
:1031800004D90289CB881A44D21C02814289C98899
:10319000511AC91E418170472DE9F0410D460221A7
:1031A000904600F58056298000F10804144F1BE07A
:1031B00031462046F9F746FF40B1B8F1000F02D082
:1031C000012288F80020022816D004E0A06879695E
:1031D000884200D97861288861880844C01C28800A
:1031E000608804EB80040C3431462046F9F740FF38
:1031F0000028DDD1BDE8F0814FF480602880F9E738
:103200005030002008B50021009101460823024AF1
:103210000248FDF7EDFB08BD987303001031002054
:1032200008B50020009004480823044A01680448B7
:10323000FDF7DEFB08BD000078300020907303002E
:10324000103100202DE9F05F0026DFF81891DFF83B
:1032500018B134464FF00308B2463746D9F80C008F
:1032600000EB07352846FFF777FF98B301284BD0CE
:10327000032869D12868411C02D03C49884205D105
:103280000120820255F82010491C0ED004EB840165
:103290000BEB8102A8F10100556003221FFA80F8B0
:1032A0000BF82120641CA4B24EE0401C9042E9D3EC
:1032B0002F48016879B104EB840002210BF820103B
:1032C0000BEB800045600181274828304480641C56
:1032D000A4B205E007E00221056081804FF0010AF9
:1032E00046F0010630E004EB840100220BF82120B7
:1032F0000BEB810101F110024D6028460831FFF708
:103300004BFF46F00206CDE7BAF1000F0FD004EBF9
:1033100084000221164A0BF820100BEB8000126883
:1033200042600181104828304480641CA4B21048D7
:103330000022011D05602846FFF72EFF0C488088FB
:1033400002280CD0082006437F1CBFB2032F85D370
:10335000B8F1020F00D20026F0B2BDE8F09F0420C1
:10336000F1E7000010310020EC410020DEC0ADDEAE
:103370007830002001494978F6F748BFC02F002077
:103380002DE9F04188461749174604468978F6F733
:103390003DFF08B1012600E0022604F5807080B2EE
:1033A000072100F09DF9050013D0052D11D0FEF77F
:1033B000B5FC02460C480D492346401AC0080121BD
:1033C00001EB00400A49FDF7E0FE2946204602F0E5
:1033D00055FB3B46424631462046BDE8F041F8F7F2
:1033E00061B90000C02F002068BC030008BC0300C6
:1033F000CCA5030000B585B002228DF8002002881C
:10340000ADF802204079400701D5012000E00220FC
:103410008DF808008DF809106846F8F7C1FE05B070
:1034200000BD002102F0FEBE30B5154685B00C4649
:10343000024605216846FBF787FD6846CDE902454F
:10344000F8F7BCFE05B030BD70B5054D064600244A
:10345000304655F824108847641C042CF8D370BDFE
:10346000A47103007CB5164D002400BF04EB44009A
:1034700005EB800003F06EFC641C042CF6D3502195
:1034800004208A00CDE900010F490E4B01F5A07020
:1034900000F022FC012468B1FEF740FC02460B4814
:1034A0000B49401AC00804EB00400AA1FDF766FE74
:1034B00003207CBD0348001F447000207CBD000039
:1034C000943D00204C2F0020443C002050BC0300C1
:1034D00008BC0300504D5F4255464645525F494E79
:1034E000495428292072657475726E6564202573AD
:1034F0002E00000070B504460025C1681A4A28460F
:1035000000EB400302EB83035B688B4204D100EBCA
:10351000400002EB800003E0401C0428F0DB0020A8
:103520002178082904D0092908D0132914D112E0E0
:10353000617A89B980B103F01BFC0DE0617A59B959
:1035400050B100214160817A41F002018172074946
:103550000120087003E001252046FFF775FF28468B
:10356000BDE8704001F00CBD943D0020482F0020C4
:10357000002300F089B900007CB5064600200190C8
:1035800001A9304603F0CEFB04461A481A49401AF6
:10359000C008012101EB004519E0A178304600F098
:1035A0009FF860B105280AD0FEF7B8FB0246A07864
:1035B0000090284633461149FDF7EFFD18E00198C9
:1035C00001A9401C0190304603F0ACFB0446002CDE
:1035D000E3D1304600F0F0F900280AD0072808D0DF
:1035E000FEF79CFB0346284632460549FDF7CDFD14
:1035F00003207CBD50BC030008BC0300B0A0030046
:1036000008A103002DE9F0471F00154681460E462C
:1036100004D0072E05D0082E06D102E00E20BDE80A
:10362000F0870DB1042D01D90720F8E74FF000080D
:10363000484603F05DFB041E04D0207AA8420BD05C
:103640000F20ECE7FF214FF6FF7003F051FB041E43
:1036500006D0A0F80090A670607AFF2802D00CE097
:103660001120DCE729461A4800F004FB01462046F9
:103670006172FF2913D04FF001082572617A144856
:1036800000F03CFB02000DD0ABB23146384600F0F2
:103690001FFAB8F1000F19D0082E10D016E003F071
:1036A00059FBDDE70B480C49627A401AC00801213A
:1036B00001EB00400949FDF761FD0320AFE73888C1
:1036C0006FF0050101EB8000796888800020A6E793
:1036D000843D002050BC030008BC03003CA0030054
:1036E00010B503F005FB18B103F042FB002010BD3C
:1036F000052010BD70B50C4606461546072901D0B9
:10370000082C0ED1104600F062F950B12146304627
:1037100003F0EEFA38B105808470BDE8704003F024
:1037200041BA072070BD052070BD00004FF6FF7143
:1037300041800149096808478C71030070B588B061
:103740002048F8F7DDFE02001F4820494FF0010530
:10375000A0EB01004FEAD00005EB004406D0204664
:103760001B49FDF70BFD032008B070BDF8F7E0FD25
:10377000020005D0204617A1FDF700FD8620F3E7E3
:1037800000F0F8F9002002904CF2070603900EE0DA
:10379000694604A8F8F782FE00988088A0F54040AA
:1037A00084B204A8F8F736FE204600F09FF902AA7A
:1037B00004A93046F8F759FE0028E9D015480570ED
:1037C0000020D1E7C9C1020048BC030008BC0300C7
:1037D000549F0300436F756C64206E6F7420696E94
:1037E000697469616C697A6520666C6173682073BD
:1037F000746F726167652E206664735F696E6974A9
:1038000028292072657475726E6564203078257879
:103810002E0000003C2F002000F08EB900F092B97D
:1038200070B586B014460E46054600F03FF940B12B
:1038300005F5404080B20F4A6946F8F716FE40B9D8
:1038400002E0012006B070BD03A96846F8F726FE25
:1038500008B10020F6E7A5700398408820800498FE
:10386000606003988088A0F5404030806846F8F793
:10387000D1FDE6E7402F0020024800214160816031
:10388000704700003C2F0020F0B587B01F4615465A
:1038900006460C46FF280AD8084600F007F930B162
:1038A00004AA2146304600F0E9F840B902E00720BA
:1038B00007B0F0BD02A904A8F8F7F0FD08B1052093
:1038C000F6E7AC700298408828807FB184003968A0
:1038D0002646B1EB800F00D20C4603992246686859
:1038E000F3F730FCB44203D20C20E1E703986860A0
:1038F00004A8F8F78FFD0020DAE7000070B586B065
:1039000016460D460446FF2828D8A87800F0CEF8C1
:1039100020B304F54040ADF80000A87803AA00F5F4
:103920004040ADF802006868019028880290A978AC
:10393000204600F0A3F80528694603A811D0F8F73F
:10394000D3FD024648F20661401A8A4226D00BDCBB
:10395000DAB1A2F5064002380AD121E0072006B00C
:1039600070BDF8F7C9FDECE7012815D0072813D082
:103970000C480D492346401AC008012101EB0040C4
:103980000A49FDF702FC0320E9E71EB1314603A80E
:10399000F8F77BFD0020E2E71120E0E78620DEE774
:1039A0001020DCE748BC030008BC0300989F03001C
:1039B0004FF6FF7000F09AB810B5FF2801D9072024
:1039C00010BD00F099F800F005F8002010BD00F0DF
:1039D000D7B80000F0B5244E8DB000207070029072
:1039E0004FF6FF750390284600F0A6F8044648F20B
:1039F000096706E0204600F091F8204600F09CF8A8
:103A00000446AC422BD004F5404080B202AA04A97F
:103A1000F8F733FDB842EDD004F5404080B2F8F736
:103A200043FC05460120A5F50641073919D0002DB4
:103A300015D00E490E4A2346891AC90800EB0140E9
:103A40002A460C49FDF7A1FB14220B4907A8F3F7FE
:103A500079FBADF8204007A80995FFF767FE0DB088
:103A6000F0BD7070FBE700003C2F002048BC030055
:103A700008BC0300F09F0300907103007CB505466D
:103A800016460C46084600F011F80020009005F597
:103A90004045019004F54044A8B2A1B26B463246BD
:103AA000F8F7DCFC002800D005207CBD07280DD0ED
:103AB00001280BD0082809D0052807D0062805D0F2
:103AC000092803D0042801D0002070470120704746
:103AD00010B503EB83034FF6FF7404EA0313817000
:103AE000DB1C99084260018010BD00000149F7F716
:103AF00099BC0000C43D002010B50446A0F57F40ED
:103B0000FF3807D004492046F7F78CFCA04201D1CA
:103B1000012010BD002010BDE43D002010B504467A
:103B2000044901F0C5FB03492046BDE8104020319F
:103B300001F0BEBBC43D00200149FBF71EBA0000E6
:103B4000E43D002070B50A49FBF717FA04464FF62A
:103B5000FF7507E000F01EF838B105492046FBF775
:103B60000CFA0446AC42F5D170BD204670BD000091
:103B7000C43D002001484021F3F70CBBC43D0020A8
:103B8000FF2803D801460248FBF796BA0020704789
:103B9000C43D0020FF2803D801460248FBF78CBA39
:103BA00000207047E43D00201CB500F023FC08B164
:103BB000F5F752FD0020009001909DF8000020F0E4
:103BC000780040F00700103020F080008DF80000F1
:103BD00007208DF8010010208DF802009DF80300E9
:103BE00040F003008DF803009DF8040040F003004E
:103BF0008DF80400684600F0D3FE08B1F5F72CFDFF
:103C0000034800F0B7FE002801D0F5F725FD1CBDE4
:103C1000893D03000068012803D0022801D000205C
:103C2000704701207047000010B50549C20800F038
:103C30000703885C01249C402043885410BD000089
:103C4000384000200449084490F93000082801DB7E
:103C50000120704700207047E43F002004490844D9
:103C600090F93000082801D20120704700207047E9
:103C7000E43F00202DE9F0410F4606002AD03068CD
:103C800040B3706830B3FF24002520E029467068F7
:103C9000FBF7DDF980F00100BFF35F8F48B1FF2C27
:103CA00000D12C46281B401CB8420ED12046BDE84E
:103CB000F081FF2C06D108E02146304600F032F8B2
:103CC000641CE4B2AC42F7D3FF246D1CEDB2B068C3
:103CD000A842DBD8FF20EAE770B5DDE9044558B11A
:103CE00051B14BB104FB05F6964205D824B11DB184
:103CF00080E83A00002070BD072070BD70B5040058
:103D00000D460DD0206858B1606848B1FF2D07D02E
:103D1000FBF7B8F820B1E168206805FB010070BD31
:103D2000002070BD70B504000D4613D02068002837
:103D300010D0606800280DD0FF2D0BD0FBF7A2F843
:103D4000002807D060682946BFF35F8FBDE8704048
:103D5000FBF772B970BD0000034A12780AB102F095
:103D60003FB8082070470000502F0020054A10B5CA
:103D700012782AB102F0B6F8082800D1112010BD3F
:103D8000082010BD502F002010B5044600F076F931
:103D9000204600F00FF8204600F040F820780C286C
:103DA00003D1BDE81040F5F747BB10BDF8F7E2B905
:103DB000F8F7E0B910B504460078032819D10D488A
:103DC0000D496288401AC008022101EB00400BA196
:103DD000FDF7D4F96088132176DF082809D0A0F513
:103DE0004051023905D0002803D0BDE81040F5F756
:103DF00033BC10BD60BC030008BC0300446973639E
:103E00006F6E6E656374696E6720636F6E6E5F6858
:103E1000616E646C652025642E0000002DE9F04180
:103E200005460178614C0020012686B004F1500758
:103E300015291AD2DFE801F00B19291919193419BB
:103E4000901990191919191919191992AB00A88804
:103E500000F044FC86280BD0112809D0062804D095
:103E6000072802D0132800D0F0BB06B0BDE8F081CF
:103E70006068A98827F81010401CC11700EB517129
:103E800021F00701401A60608AE0287A012801D0F9
:103E90000028EAD1A88806B0BDE8F04101F040B89A
:103EA00020780028E1D142484249401AC70803203F
:103EB00000EB0740804640A1FDF75CF9607870B9DF
:103EC0006846F8F735FB051E01D0F5F7C5FBBDF8D0
:103ED000060000B10120607080B1002DC5D1F8F757
:103EE00007FA002836D000E003E0A0F506410739C4
:103EF000BBD006B0BDE8F041F5F7AEBB00236A4683
:103F00001946184600F078FC05000ED14046BDF871
:103F1000002030A1FDF732F9BDF8000000F0D4FB1D
:103F2000051E0AD0F5F798FB6670052D07D0062D03
:103F300009D02846F5F790FB97E76670CFE706EBC8
:103F400007402FA103E0022000EB074034A1FDF75A
:103F500011F98AE7267088E7667086E7207060703E
:103F6000656800244FF6FF766019C11700EB5171A8
:103F700021F00701401A07EB40010888B04202D047
:103F80000E8000F0CDFF641C082CEDDB6DE7207087
:103F9000A868A0F506410D3902D0B0F5064FCBD187
:103FA00006B0BDE8F04100F05BB80000602F0020D3
:103FB00060BC030008BC0300417474656D707469D3
:103FC0006E6720746F20636C65616E20666C617330
:103FD000682E000044656C6574696E67206C6F77AD
:103FE0006573742072616E6B656420706565722004
:103FF00028706565725F69643A20256429000000B5
:10400000546865726520617265206E6F2070656509
:10401000727320746F2064656C6574652E000000F7
:10402000506565722072616E6B732066756E637485
:10403000696F6E616C69747920697320646973615A
:10404000626C65642C20736F206E6F2070656572E2
:1040500073206172652064656C657465642E000070
:1040600000B585B0142204496846F3F76BF868463A
:10407000FFF7D4FE05B000BDE071030010B50446A3
:1040800000F026F8207890B1072816D10B480C498B
:10409000401AC008012101EB00400AA1FDF76AF8AF
:1040A000A068002809D0BDE81040F5F7D5BA6088AF
:1040B000BDE810400021F7F717BB10BD60BC03003E
:1040C00008BC0300417373657274696E672E00004B
:1040D0002DE9FC5F044602785148524D0221401BF5
:1040E000C008DFF8389101EB00450323012109F1F5
:1040F0000C0B03EB004701EB0046A9F1080A09F19C
:104100001808152A71D2DFE802F019190B1B1919CA
:104110002A2D3448575B63691971191919197A00E6
:104120006088F6F743F8217A59F820205BF82100DF
:104130000090638838463CA1FDF72FF8BDE8FC9F4E
:104140006088F6F733F8237A59F8202061895BF804
:104150002300CDE900016388384643491AE0284628
:1041600042A137E0A068FDF7D9FD0246304645A1DF
:104170004BE0207CC00701D03AA100E04CA1627A5C
:104180005AF82200CDE90001217AA288384658F871
:1041900021304A49FDF70AF8D0E72069FDF7BEFD56
:1041A000627A5AF82210CDE90010217AA2882846B6
:1041B00058F821304249EDE7A288304641A124E079
:1041C000A068FDF7ABFD0346A288304647A111E089
:1041D000384652A1BDE8FC5FFCF7CCBFA068FDF7F4
:1041E0009DFD0246304652A10FE013E0A38862888D
:1041F000284658A102B0BDE8F05FFCF7C6BFA06832
:10420000FDF78CFD0246284661A102B0BDE8F05FD3
:10421000FCF7B4BF28466AA1F7E70000702F002022
:1042200060BC030008BC0300436F6E6E6563746975
:104230006F6E20736563757265643A20726F6C658A
:104240003A2025732C20636F6E6E5F68616E646C1C
:10425000653A2025642C2070726F63656475726501
:104260003A20257300000000C0A30300466C617370
:10427000682073746F726167652069732066756C5E
:104280006C000000556E6578706563746564206627
:104290006174616C206572726F72206F63637572F6
:1042A0007265643A206572726F723A20257300005D
:1042B0002C206E6F206368616E67650018A503008F
:1042C000CCA40300506565722064656C65746564F8
:1042D000207375636365737366756C6C793A2070CF
:1042E0006565725F69643A202564000050656572F7
:1042F0002064656C6574696F6E206661696C6564C5
:104300003A20706565725F69643A2025642C2065E7
:1043100072726F723A20257300000000416C6C20AD
:1043200070656572732064656C657465642E000049
:10433000416C6C20706565722064656C6574696F92
:104340006E206661696C65643A206572726F723ABC
:10435000202573004C6F63616C20444220636F75AD
:104360006C64206E6F74206265206170706C69658A
:10437000643A20636F6E6E5F68616E646C653A20AC
:1043800025642C20706565725F69643A202564009D
:10439000466C617368206761726261676520636F54
:1043A0006C6C656374696F6E206661696C6564200E
:1043B00077697468206572726F722025732E000011
:1043C000556E657870656374656420504D20657620
:1043D000656E742049443A20307825782E0000001C
:1043E0000188102903D180880021F7F77DB9704733
:1043F000F7F7C0BE70B5FFF7A1F92749274A891A18
:10440000C908012505EB014430B1FDF787FC0346DF
:104410002046234A23A130E0FFF724F830B1FDF70E
:104420007DFC034620461E4A29A126E001F02AFD14
:1044300030B1FDF773FC03462046194A2FA11CE05A
:1044400001F048FE30B1FDF769FC03462046144AEE
:1044500035A112E0F8F798FB30B1FDF75FFC034699
:1044600020460F4A3BA108E0F8F7FAFC48B1FDF7F7
:1044700055FC034620460A4A41A1FCF786FE03206C
:1044800070BD4A484FF6FF71818000218160417004
:104490000570084670BD000058BC030008BC03004E
:1044A000B47103002573206661696C6564206265E0
:1044B0006361757365207064735F696E6974282920
:1044C0002072657475726E65642025732E0000007D
:1044D0002573206661696C6564206265636175732C
:1044E00065207064625F696E697428292072657442
:1044F00075726E65642025732E000000257320669A
:1045000061696C6564206265636175736520736DB4
:104510005F696E697428292072657475726E6564AE
:104520002025732E000000002573206661696C65EC
:1045300064206265636175736520736D645F696E85
:10454000697428292072657475726E6564202573FC
:104550002E0000002573206661696C656420626529
:1045600063617573652067636D5F696E697428297F
:104570002072657475726E65642025732E000000CC
:104580002573206661696C6564206265636175737B
:1045900065206773636D5F696E6974282920726591
:1045A0007475726E65642025732E0000502F0020F4
:1045B0002DE9F041044686B001278088F8F7D6FE41
:1045C0006080207800263F4D082808D0092820D098
:1045D0004FF6FF780A2829D00B2853D158E0607A8B
:1045E00010B1012809D04DE0A86830B1E1688142DE
:1045F00003D1AE60A088A88016E06878E8B3A088F0
:10460000A98888423ED1207A06283BD100F096FC4A
:1046100038E0607A88BBA86878B3E168814231D11C
:10462000AE60E868401EE860E6602BE0A878E8B17C
:104630004046FFF7F3F84146404517D10846FFF7DB
:10464000EBF8404512D1AE7014216846F2F7A2FD96
:104650000C208DF80000ADF80480ADF80280002732
:104660002046F7F787FD6846F7F784FD687838B18C
:10467000A088A988884203D100E003E000F05EFC36
:10468000002F1CD006B02046BDE8F041F7F772BD00
:10469000A8780028F6D0AE7014216846F2F77AFDAB
:1046A0000D208DF80000ADF80480ADF80280A06800
:1046B00002902046F7F75EFD6846F7F75BFD06B00F
:1046C000BDE8F081502F00200349097809B1F8F7BF
:1046D000EDBE082070470000502F0020F0B5324C8E
:1046E000064687B0207838B13049D1E90201CDE9DA
:1046F0000501607818B104E0082007B0F0BD00F0B3
:104700001DFC6078A168401E084301D0112547E0D8
:10471000A088002786421CD1E068D0B10025142172
:104720006846F2F737FD08208DF800003046F8F7AC
:104730001DFEADF8020006208DF80800ADF80460FB
:104740008DF8097003978DF810706846F7F712FD21
:1047500026E0E068411C25D0401C134AE060083286
:1047600005A93046FFF7CAF8050019D0A760E06830
:10477000401EE060112D13D0862D11D0072D0FD0D3
:104780002846FDF7CBFA024609480A493346401A43
:10479000C008012101EB004007A1FCF7F6FC03254E
:1047A0002846AAE71325FBE7502F0020B471030029
:1047B00058BC030008BC0300436F756C64206E6F27
:1047C00074207570646174652072616E6B2E207048
:1047D00064625F7261775F73746F726528292072FB
:1047E000657475726E65642025732E207065657220
:1047F0005F69643A202564002DE9FF4F344885B095
:104800009946007892468B46C0B14FF6FF74204619
:10481000FFF704F8804600200421CDE90210009043
:1048200003A8019002AB6A4606214046FFF72CF828
:1048300000277E1E2546072804D017E0082009B06F
:10484000BDE8F08F0520FAE70398B84201D3074688
:104850004546B04201D2064644464046FEF7DEFFDA
:10486000804602AB6A460621FFF70EF80028EBD01F
:104870000528F2D04FF6FF71884519D18D4201D03D
:104880008C4201D1052000E00020059901B10D8086
:10489000BBF1000F01D0CBF80070BAF1000F01D0CE
:1048A000AAF80040B9F1000FC9D0C9F80060C6E706
:1048B000FDF734FA0246074807494346401AC00844
:1048C000012101EB00400549FCF75FFC0320B6E73E
:1048D000502F002058BC030008BC0300BCA10300FB
:1048E000F0B51F4E85B03078D0B101274FF6FF7478
:1048F000B7702046FEF792FF0546A0422BD100205C
:10490000B07014216846F2F745FC0C208DF80000C9
:10491000ADF80440ADF802406846F7F72BFC1CE008
:10492000082005B0F0BD00BFFFF7CEFE78B1FDF75F
:10493000F5F903460B480C490C4A401AC00807EB2E
:1049400000400B490095FCF728FC0320E9E72846C6
:10495000FEF764FF0546A542E6D10020E1E700002E
:10496000502F002058BC030008BC0300D071030086
:1049700004A20300084A117821B1D178032903D396
:104980000420704708207047044B43F82100491C5D
:10499000D170002070470000502F0020043E0020FE
:1049A0000349097809B101F0D9BA0820704700001D
:1049B000502F0020002801D0F7F7DCBB7047000023
:1049C0002DE9F05F2A4F06464FF0A04A4FF0010B49
:1049D0000024381990F95010491C3CD090F8500030
:1049E000314620F0C0052846FAF705FC20B32046E2
:1049F00000F040F881460AEB8500D0F80007C0F3CC
:104A00000148B8F1020F18D002212846FCF75EF9E0
:104A10000BFA05F1CAF820152846F6F7FDFB57F802
:104A200020204AB14846B9F1030F11D0B8F1020F66
:104A300005D0B8F1030F07D00DE00321E5E74846A4
:104A4000B9F1010F04D006E04846B9F1020F02D1D6
:104A5000014628469047641C042CBAD332460121F3
:104A60000020FCF745F930680028B1D1BDE8F09F7F
:104A7000E43F00200249084490F850008009704744
:104A8000E43F002010B50C46017A052908D0407A91
:104A900038B1084808A102682046FBF74FFD00E046
:104AA0001AB106A12046FBF749FD2046BDE810409B
:104AB000FBF751BDE0300020257300000D0A000017
:104AC00038B5C3880D46044633B114A0009015A232
:104AD00016A12846FBF732FD217A05291CD0607A01
:104AE00048B1A088FCF704FA164951F8202016A115
:104AF0002846FBF723FDA0880021FCF7E5FB0346D1
:104B00001049207A143951F8202001B02846BDE818
:104B100030400EA1FBF712BD38BD00001B5B306DAD
:104B2000000000001B5B313B33316D0025734C6F7F
:104B300067732064726F707065642028256429256E
:104B4000730D0A00E0300020257300003C25733E01
:104B50002025733A200000000349884201D1034810
:104B6000704700207047000000200040F82F002010
:104B70000146054810B50068FAF732FA04461C21D0
:104B8000F2F708FB204610BD887303000146024877
:104B90000068FAF746BA0000887303000348024928
:104BA0000068FAF728BA000084300020107403006F
:104BB000F0B591B00E46074601226946FCF7D6FCD7
:104BC00004005AD19DF8000004AD06285DD2DFE84C
:104BD00000F0030A181F2327BDF81220BDF810109B
:104BE0003046A1DF0BE008A806900146BDF816206C
:104BF00000230198FCF773FC29463046A3DF0446E6
:104C000026E0BDF8101030460DF112029BDFF6E7EA
:104C1000294630469DDFF2E7294630469EDFEEE723
:104C20000CA807900023022208A90198FCF757FC62
:104C300008A80690BDF82020022307990198FCF7E8
:104C40004EFCBDF820E029463046AEDF040016D009
:104C5000112C12D09DF80000114951F8200010B11C
:104C60000198FCF70EFC002269463846FCF77EFCF2
:104C700022463146684600F023FB11B0F0BDBDF876
:104C800020008645E6D00C24E4E706480649401A91
:104C9000C008022101EB004004A1FCF76BFAD9E740
:104CA0007471030030BC030008BC0300556E696DCD
:104CB000706C656D656E7465642047415454205274
:104CC0006571756573740000F0B5264D264E85B08C
:104CD00004460027686828B9224930680831FAF785
:104CE00095F9686001460078072817D2DFE800F0E0
:104CF000160408080E0E12002046F8F737FC02E0F2
:104D0000204602F0C5F8040029D009E02046F6F755
:104D1000BFFDF8E72046F7F7FFFCF4E748F20E6422
:104D200014216846F2F736FAA4F5E8501D3800D190
:104D30000024019469466868F7F7BCF86846F7F7FD
:104D4000F3F808496F60002408313068FAF753F926
:104D5000044801210C30FAF7F6F90028BAD105B061
:104D6000F0BD000050300020887303002DE9F041B1
:104D7000234C0025234E207A012730B92248311DCB
:104D80000068FAF743F9306038B1022020723168C8
:104D9000087928B101281ED116E06560BDE8F081D0
:104DA000D1E90503C01A4FF48052904200D3104657
:104DB000B7EB900F01D2820800E001220869C968B0
:104DC0001844194429DF03E0D1E90301084428DF2E
:104DD00058B1112812D003213068F7F7B5F82572C1
:104DE0006560BDE8F041FFF7D9BE207C0028D5D131
:104DF000BDE8F04100210220FBF7A8BD2772CDE7F6
:104E0000C042002080300020107403002DE9F047DC
:104E10000446006816468946076800212046F6F7D2
:104E200065FC0546D4F80C806068AE4207FB0801BB
:104E30000DD808FB06F24846F2F784F9A168B819C4
:104E4000884200D9002021680860BDE8F08708FB8F
:104E500005F842464846F2F775F9E268751B6A4361
:104E600009EB08006168F2F76DF920680560ECE76E
:104E700010B501210448FAF74CF9002803D1BDE828
:104E80001040FFF721BF10BD5C30002010B5074C6B
:104E9000201DFAF72FF9002806D1607C002803D1E5
:104EA000BDE81040FFF762BF10BD0000C042002007
:104EB00001680A684968914201D3881A704780687E
:104EC000801A0844401C704770B58CB00446C06816
:104ED000002209A9FCF74AFB104D1BE0BDF8241085
:104EE000A06801EB810100EB810607E09DF800005E
:104EF00055F8200010B10198FCF7C3FA002269466A
:104F00003046FCF733FB0028F0D0002209A9E06806
:104F1000FCF72CFB0028E1D00CB070BD74710300CD
:104F200010B586B0044614216846F2F733F9ADF89F
:104F300004406846FEF772FF06B010BD0B4910B57D
:104F400000231A46A1F10800FFF756FC07490C3967
:104F5000052803D038B10020487010BD4FF6FF700F
:104F600088800020C8600120F6E700005C2F002048
:104F700010B510461A46F2F7E5F8002010BD000003
:104F80002DE9F0438146234885B00178002936D0C9
:104F90000021214F01700D468046012605EB45009A
:104FA00007EB8004A07A810701D4C1072ED088F8CE
:104FB0000060800702D4B9F1000F27D0204601F02D
:104FC000F1FD18B34FF6FF71ADF802102188ADF86E
:104FD0000410862816D007218DF800100290FCF7E7
:104FE0009DFE02460D480E492388401AC00806EB74
:104FF00000400C49FCF7C9F86846FEF725FA05B0F1
:10500000BDE8F08306208DF80000F5E76D1C042D47
:10501000C4D3F4E7482F0020943D002050BC030087
:1050200008BC03005CA103002DE9F04707462048B7
:105030001C46154600780E4670B18DB184B1DFF87C
:1050400074804FF00009A08802282DD200EB800167
:1050500018F8210020BB1BE048F20160BDE8F08792
:1050600048F20460FAE720681FB181883A889142CB
:105070000ED11EB101883288914209D18068286022
:10508000206868600B482830008928810020E5E707
:10509000A088214600F060F80028E4D1C4F8009010
:1050A000A088401CA080CEE748F20960D6E7000047
:1050B00070300020EC410020F8B505464068244FD0
:1050C0000C46002648B32349CA68824225D809699C
:1050D000814222D3F8F7E2FBF8B128893989884266
:1050E0001BD1D5E900018A68904216D10020A7F1B2
:1050F000280200BF00EB800302EB83035B688B4256
:1051000005D203F580538B4201D9208011E0401C69
:1051100080B20228EED30020F8BD268000960AE077
:10512000009829688068884205D1009868603889AD
:1051300028810120F8BD2088694600F00DF800287C
:10514000EED12088401C80B220800228E6D3E2E71E
:10515000144200201031002070B50E4600EB800193
:10516000134800EB81004468306804F5805518B19D
:10517000418800EB810411E0083410E02946204604
:10518000F7F760FF20B1012805D0022807D10DE014
:105190000120346070BD608804EB80040C34294623
:1051A0002046F7F765FF0028E8D170BD002070BDEC
:1051B000EC41002038B50C46002100910146042343
:1051C000084A0948FBF714FC10B148F20D6038BDDD
:1051D000064A04EB840102EB8101012008740020DF
:1051E00038BD00008C73030010310020EC4100201A
:1051F0002DE9F047884600EB80011E481D4600EB74
:10520000810016464168DDF8209001F1080401F59F
:1052100080571BE039462046F7F714FF68B1012894
:1052200002D0022812D119E03088401C3080288832
:1052300061880844C01C288004E0B8F80000401CC5
:10524000A8F80000608804EB80040C34394620463E
:10525000F7F70EFF0028DDD1BDE8F0873088401C4D
:1052600030802988381B01EBA0002880012089F8B4
:105270000000F1E7EC41002070B50C4B00210A4A18
:10528000DC680DE002EB81058678AD78B54206D189
:1052900032F821500688B54201D1586870BD491CCA
:1052A000A142EFD3002070BDA4390020002F0020C0
:1052B0000A46FF2803D801461046F9F7BDBE7047DD
:1052C000F8B515000E46044616D00C480C4900955A
:1052D000401AC008012101EB0040227833460949F9
:1052E000FBF75BFFA368002B06D0E16801B03246F4
:1052F0002846BDE8F0401847F8BD000030BC030068
:1053000008BC0300C49E03002DE9F0410446007868
:105310000E46002504F11001062828D2DFE800F02F
:1053200003080B111418628A218A3046A1DF0DE0B0
:105330003046A3DF0AE0218A04F1120230469BDFE7
:1053400004E030469DDF01E030469EDF054605E083
:10535000A06907883046AEDF050002D0112D18D0B5
:105360000FE0A0690088B8420BD00C2509E00A487C
:105370000A49401AC008022101EB004008A1FBF7CE
:10538000F9FE2A4631462046FFF79AFF0120BDE884
:10539000F0810020FBE7000030BC030008BC0300E4
:1053A000556E696D706C656D656E746564204741FE
:1053B00054542052657175657374000010F1380FF4
:1053C00007D010F1360F07D0002801D048F2165050
:1053D000704748F21150704748F214507047084621
:1053E0007047000070B50546F6F7B7FC134C40B1A6
:1053F000D4E904024FF08071411842F10000C4E981
:10540000041000212846F6F7F5FB30B1606820B1A2
:10541000606801F00FF80020606001212846F6F76F
:10542000E9FB18B1F7F7D6FCC4E90601284601F0FC
:105430002DF82846BDE8704000F034B82030002038
:1054400070B5054600200C460870F7F7C3FCD5E997
:105450000223101A63EB010300263146361A9941E4
:1054600012DAB0F5350F03D3F4F702F90B494218FD
:105470004FF4960300210A48F6F77BFC10B10D2883
:1054800006D009E0012070BD00210548F6F7A8FB11
:10549000284600F0CFFF2070002070BDFFFFB40051
:1054A00028300020F8B51A4C074600261948FCF7AA
:1054B000F5FBD0B1616871B1D0E902106268D2E940
:1054C0000232C91A904120D26068007F18B1616829
:1054D0001048FCF7D2FB00F00FFF05466946FFF7C6
:1054E000AFFF98B1606840B10AE0606800280CD155
:1054F0003846BDE8F840F6F738BC3846F6F731FCD8
:1055000065609DF800000028D0D1F8BD6660CDE749
:10551000203000206C73030070B5054688690C4686
:1055200000284FF4847128460AD0FCF706FCD5F811
:105530001805626AE1688854606A401C606270BD48
:10554000FCF7FBFBD5F8180570BD1FB501238DF8DE
:105550000030CDE90121D0E90012684690471FBD17
:105560001FB501238DF80030CDE90121D0E90012EB
:10557000684690471FBD000010B5044606480179F3
:105580002046F4F743FE002804D12046BDE8104031
:1055900000F0FCBA10BD0000102F00200178052992
:1055A00004D14068002801D0F4F756B870470000D5
:1055B00000B51A4885B01A4A40680490002000904F
:1055C00001900290039001208DF804008DF80C00EA
:1055D00069461448FAF776FA08B1F4F73DF80F482F
:1055E000F1F7E3FD38B10D4A00210E48FAF7EAF968
:1055F00008B1F4F731F804AA03210A48FAF7E2F9EE
:1056000008B1F4F729F8002205210648FAF737FA1D
:10561000002801D0F4F720F805B000BD1470030095
:105620009D550300E837002010B50948FAF768FBDC
:1056300008B1F4F711F807480749BDE81040401ACF
:10564000C008032101EB004004A1FBF793BD00005B
:10565000E8370020E0BC030008BC03005363616E20
:105660006E696E670000000038B5114C58B1032810
:105670001CD100208DF800006846F4F757F8217817
:10568000012909D00EE0207801280FD1FCF7FEFC9B
:10569000BDE83840FCF704BD0649601CFCF7BAFCC5
:1056A000FCF7E4FC9DF80000F4F764F838BD000056
:1056B000E82F0020DD1F03003EB504460949684677
:1056C000FCF7B4FA08E000BFD0E90021204690477B
:1056D00030B16846FCF7C1FA02980028F4D13EBD0B
:1056E00011203EBDEC7503003EB5044608496846EE
:1056F000FCF79CFA07E000BFD0E900212046904764
:105700006846FCF7AAFA02980028F5D13EBD0000D1
:10571000F87503002DE9FE4304460C30002780464F
:10572000F7F7ECFE4FF6FF760546B042208803D12E
:10573000F7F7D2FE054602E02946F7F7ADFE2088CE
:105740000022012100F008F9B54214D001AA072176
:105750002846FDF70DFF70B9029EA07D3436C007C4
:1057600009D0307CC00705D1414606F11200F7F799
:105770007EFE00B13746002320881A46394686DF70
:105780001649174A0646891A4FEAD108082811D047
:10579000BEB1FCF7C3FA02460121009501EB0840B7
:1057A00023881049FBF7F9FC2088314600F066F9A0
:1057B000BDE8FE83022101EB08400B49FBF7DAFC50
:1057C000F6E7A07DC007F3D0002FF1D1208800229A
:1057D00041F20601F6F73CFBEAE7000068BC030073
:1057E00008BC03005CA50300E4A603002DE9FC4708
:1057F00088460646274828491C00A0EB01004FEACE
:10580000D0074FF00100914600EB074515D006F593
:10581000807080B26B4601220721FDF7F3FE11284C
:1058200009D080B1FCF77AFA0246284633461B4974
:10583000FBF7ABFC0320BDE8FC872846184A19A1FA
:10584000FBF79CFCF6E750210198F1F7A3FC0199C6
:1058500081F800800198C4F80C90343020600198E1
:10586000183020610198401C60611B48E06101997B
:1058700030461131F7F7F0FC0028DCD0FCF74EFA87
:105880000246022000EB074033461449FBF77DFC3B
:105890000820D0E768BC030008BC030000A8030090
:1058A0005C720300496E7465726E616C2065727281
:1058B0006F723A202573207265636569766564208E
:1058C0004E554C4C20666F7220705F7365635F6B42
:1058D00065797365742E0000103E002094A60300C5
:1058E000002835D00278910701D411062FD4C2F3D5
:1058F000021104292BD8930703D5032901D11106DE
:1059000025D5437881788B4221D8072B1FD31029C6
:105910001DD8C1784B071AD40079430717D40B0759
:1059200015D4030713D4D2074FEAC17201D042B194
:105930000FE062B989070AD4C10708D1800706D4ED
:1059400007E0890705D4C10703D1800701D40020EF
:105950007047012070470000F0B5154E14460F4601
:105960000A4685B005463178F4F768FC002F1AD056
:105970000CB1012200E0002271782846F4F75EFCA9
:10598000012C12D00022B1782846F4F757FC1422DB
:1059900008496846F1F7D6FBADF802508DF808408B
:1059A0006846F6F7FDFB05B0F0BD0122EBE700000D
:1059B000C02F0020F871030001490978F4F726BCD4
:1059C000C02F0020F8B50446144800252E468068F4
:1059D00008B36088F4F7A4FBA0B100200090207AFF
:1059E0009DF80020410861F3820260F3C302800841
:1059F00060F304128DF800206088694600F09AFA7E
:105A000080F00106608801B032462946BDE8F040CA
:105A10000123F7F775BF0125F4E70000C82F002028
:105A200010B586B0044614216846F1F7B3FB042094
:105A30008DF80000ADF802406846F6F7B1FB06B0FD
:105A400010BD000002498969002900D0084770474D
:105A50000C39002030B585B00C46054614220649A5
:105A60006846F1F76FFBADF8025068460294F6F70E
:105A700065FB05B030BD0000EC70030030B585B0AB
:105A80000C460546142206496846F1F75BFBADF863
:105A9000025068460294F6F783FB05B030BD000063
:105AA0000C72030070B50D4C0020D2B22070201D86
:105AB0000B4D0378EB5C1BB1001DFCF77DFC02E095
:105AC0000C30FCF777FB08B1F3F7C6FD60780028CF
:105AD00002D021780029FAD070BD0000903000205B
:105AE000EC2F0020034800220149C078F4F728BBBE
:105AF00079550300102F002070B51F4988B01F4C46
:105B0000D1E900014FF6FF76CDE9050130E0002232
:105B100005A9FDF7F3FE050026D014216846F1F72C
:105B200039FBA088ADF80400112D17D0862D17D0B1
:105B30002846FCF7F3F8024611481249A388401A98
:105B4000C008012101EB00400F49FBF71EFB0720B5
:105B50008DF8000002956846F6F7FEFA08B070BDB1
:105B600006208DF80000F6E7A088FDF757FEA0801C
:105B7000A088B042CBD1F1E740710300202F002074
:105B800018BC030008BC0300849C03002DE9F04FFF
:105B90008DB0054601270026F7F726FA044611289E
:105BA00021D005DC68B3062870D0082C08D134E079
:105BB000A4F54050023816D0A0F54070FF386CD0E4
:105BC0002046FCF7ABF80246364837492B46401AC8
:105BD000C008012101EB004034A1FBF7D6FA2146B1
:105BE0002846FFF737FF414C3A462846E178F4F75C
:105BF00025FB21790DB032462846BDE8F04FF4F779
:105C00001DBB14223A496846F1F79CFAADF80250E0
:105C100001266846F6F792FAE5E70DF114084FF011
:105C2000000901A8B3DFDFF8C8B001240DF1180A9C
:105C3000ABF1440B42F6052E1FE0DBF80C00CDE97A
:105C4000030A002206A92046B4DF70B9BDF8181077
:105C5000B9F1000F0BD0A1F5245002380BD103AAE3
:105C600021462846CDF81080ADDF58B10EE07145D1
:105C700001D14FF00109641CA4B2BDF804008442B4
:105C8000DBD303E0BDF814000028ACD10027284680
:105C9000F7F722FCF7F7D6F8A5E72846F7F74CFF09
:105CA000A1E7000010BC030008BC03006773636D2C
:105CB0005F736572766963655F6368616E6765646B
:105CC0005F696E645F73656E642829207265747500
:105CD000726E656420257320666F7220636F6E6E2E
:105CE0005F68616E646C653A20256400102F0020A7
:105CF000147103002DE9F0410746806A1446884676
:105D0000C8B3002531E000BFB96A05EB450001EBDF
:105D10008006B088801CFE2802D90C20BDE8F081E6
:105D20002288401C08F8020020881622401C80B2FD
:105D3000208008F800202088401C80B2208000EBE2
:105D40000801308800F0ADFD2188084480B2208031
:105D5000B28842B1B16871B14044F1F7F3F92088DB
:105D6000B188084420806D1CEDB297F82C00A84241
:105D7000CAD80020D2E7FFE70720CFE70A78062835
:105D800022F0FF020A7010D2DFE800F003050709D5
:105D90000B0D002008E0112006E0212004E0312056
:105DA00002E0122000E022200870704710B504467F
:105DB00000F004F92046F9F795FC074C002205494C
:105DC0002079F4F7BDF96078BDE81040002203495E
:105DD000F4F7B6B923340300C82F00200DDB02000E
:105DE0002DE9FC410C00074614D0F4F7F1F9060048
:105DF00013D03846F7F770FB05462078022E0FD0F7
:105E000020F00100A5F57F412070FF390BD040F054
:105E100008000AE00E20BDE8FC8143F20200FAE728
:105E200040F00100EEE720F0080020703846F4F75B
:105E300077F9217860F3410121703846F4F7A6F92B
:105E4000217860F3820121703846F4F78FF970B938
:105E50003846F4F765F970B128466A460721FDF720
:105E600087FB40B9019890F84400C00703D0207820
:105E700040F0100002E0207820F010002070002098
:105E8000C9E7000010B5F9F745FB002816D1114805
:105E9000F6F7B1FB0F48401CF6F7ADFB0D48801C30
:105EA000F6F7A9FB0B48C01CF6F7A5FB0948012132
:105EB000401E0279182A02D04171002010BD064808
:105EC000064A801AC00801EB00400549FBF752F969
:105ED000032010BDC92F002070BC030008BC0300C4
:105EE000E09A030000230A461946F7F709BD0000AF
:105EF00010B500780A2809D004DC082806D0092843
:105F000011D103E00B2801D013280CD1074C00223B
:105F100005492079F4F714F96078BDE810400022B3
:105F20000349F4F70DB910BD23340300C82F002036
:105F30000DDB020038B50C46074909680091694637
:105F4000FFF74EFF21789DF800209143084301D0D0
:105F5000002038BD012038BD8072030070B50B4CA5
:105F600005004FF001060CD0FFF7BAFC58B12868C5
:105F7000E0602879207404F10C00A06026700020F5
:105F800070BD0020F9E7072070BD0000C82F002079
:105F900010B504460078052802D0122809D105E082
:105FA0006088A168BDE8104000F03CB92046FFF7CA
:105FB00009FD2046BDE81040F6F700B930B50446AB
:105FC000008885B019284CD00BDC112822D013286A
:105FD0002BD014281CD105B0201DBDE83040FFF7A0
:105FE00099BB1A284ED01E2812D1A088FFF7E4FCD6
:105FF00000280DD1142235496846F1F7A3F8A0888E
:10600000ADF80200207A8DF808006846F6F7C8F867
:1060100005B030BD207A3D2804D04FF48851A088C7
:10602000002225E041F23D01F9E734F8040FF4F7CE
:10603000BDF8012809D12079C00701D0012200E074
:10604000022220880121FFF787FC204934F8045BF5
:10605000142224396846F1F775F8ADF8025002941D
:10606000D3E7217A201D41B14279008802F0030272
:1060700005B0BDE83040F7F72FBD05B0BDE83040B2
:10608000F3F71CBCA088FDF775F90028C0D1A088E3
:10609000F4F746F80028A08810D00D4900220978AE
:1060A000F4F7CCF802208DF80000A088ADF80200CB
:1060B00000208DF808008DF80900A6E705B0012240
:1060C000BDE8304041F20601F5F7C2BE6C72030034
:1060D000C02F002010B51548F6F784FA1348401C6D
:1060E000F6F780FA1148801CF6F77CFA0F48C01CBE
:1060F000F6F778FA0D4801210278182A0BD0427879
:10610000182A08D08278182A05D0C278182A02D016
:106110000171002010BD0648064A801AC00801EB34
:1061200000400549FBF726F8032010BDC02F0020D2
:1061300068BC030008BC0300E09A030070B5164673
:106140000C460546F4F732F801280BD0022802D09D
:1061500043F2020070BD324621462846BDE8704039
:10616000F7F73CBC21004FF00000F3D02846BDE813
:106170007040F7F72DBC00002DE9F04188B01746BC
:106180000D468046F4F712F80446002620216846A2
:10619000F1F700F8012C01D08CB105E01F48002276
:1061A000C1784046F4F74AF875B14046F7F794F9DC
:1061B000A0F57F41FF3915D0012C07D012E043F242
:1061C000020008B0BDE8F081852618E04046F3F7EC
:1061D000A9F938B94046FFF723FC4046F3F7A2F986
:1061E00000B985262878C00711D0852E07D06B46C8
:1061F0003A4621464046FFF7F9FA0028E1D1012C42
:1062000009D000226B46314640467FDFD9E704487B
:1062100003970790F3E72A46F4E70000C02F002019
:10622000103E00203EB505460C466846F8F782FE53
:106230006A4621462846FDF7F7F8F9F7B7FA02460D
:1062400028460099FFF798FF044601460122284698
:10625000F6F7F4F921462846009AF5F79FFE3EBD71
:1062600010B51620F3F712F848B10C4882684FF4C5
:10627000800152B1016821F48001016010BDBDE8C8
:10628000104042F20100F3F7E7B94FF0E020C0F808
:106290008011BFF34F8FBFF36F8F10BD28410020D7
:1062A00010B51620F2F7F2FFA0B1114890F80004E3
:1062B0004009082811D20121814011F0EC0F0CD0C7
:1062C0000C4882684FF480016AB1016841F4800192
:1062D000016010BD42F2010001E042F20200BDE89F
:1062E0001040F3F7B9B94FF0E020C0F8001110BD2D
:1062F00016E000E0284100200148FBF7D2BC000076
:106300006C730300C207002A03D000BF4FF00F02D6
:1063100001E04FF0F00201D04FEA0111044B03EB12
:106320005003187800EA020040EA01001870704734
:10633000B04000202DE9F84F074621489146884695
:1063400005681E46012269461846F4F779FEDFF813
:1063500074A060B3009800210446801C0AE000BFCE
:1063600000EA050259F821C00AEB8202401C491CD0
:10637000C2F80CC0B142F3D34FEA1749F5F726FC37
:10638000611C29400AEB810149EA00422C40CA60A5
:106390000AEB8401C86867F3C50066F3891068F3E7
:1063A0009F2020F00300401C20F00400C8609AF8F1
:1063B000000001E0FAF7C2FD0028FBD1BDE8F88F2C
:1063C000B0300020B84400207CB5054614480C4687
:1063D0000022D0E90510CDE9001012484179284685
:1063E000F3F72CFF14B10E48001D01E00C480830F3
:1063F00001902846F7F770F800226946FDF77EFA0B
:1064000000280CD0FBF78AFC024607480749401ACF
:10641000C008022101EB00400549FAF7AFFE7CBD40
:10642000D0700300102F002010BC030008BC030034
:10643000509B030070B50446124800250078F8B15F
:10644000F4B1207FE0B1F6F7C5FCD4E90223801A4D
:10645000994110D32069002600B92677D4E90510A8
:106460008847206960B1217F51B1D4E90221101819
:106470007141C4E9020121460348FBF7FEFB0125F7
:10648000284670BD203000206C730300F8B51B4C0B
:1064900069462068F8F7BAFD00260127184D29E063
:1064A000017821B101290CD002291BD114E04168E7
:1064B0000A7FBAB90F77416810480830FBF7DDFB57
:1064C00010E041686868814201D16E600AE00B48C3
:1064D0000830FBF7EDFB05E0FFF70EFF08B106778C
:1064E000FAE72F7069462068F8F785FD694620684D
:1064F000F8F78CFD0028D3D1F8BD000064730300C9
:1065000020300020F8B50B4C0D4606466946206841
:10651000F8F766FD58B10670456069462068F8F7DF
:1065200080FD10B10448F5F705FC0020F8BD0420FB
:10653000F8BD000064730300283000200348806821
:106540004108034800224068F3F7D2B80830002021
:106550005C73030070B50C4605464FF48E71FBF773
:10656000ECFB216AA068415C206A401C2062C5F8EF
:106570001C1570BD1FB500228DF8002002918168A6
:1065800001914261D0E90012684690471FBD1FB5D6
:1065900000228DF800200291816801914261D0E9CA
:1065A0000012684690471FBD1FB50A4601788DF856
:1065B000001041680191017A8DF80810C0680390BD
:1065C000044850F82210001F50F8222068469047D7
:1065D0001FBD0000F42F0020014901200870704702
:1065E0009030002010B588B0044620220E4968463D
:1065F000F0F7A8FD06200090C01F019002900390C4
:106600004FF0EB7006900CB1084A00E0002269469A
:106610000748F9F75FFF08B1F3F71EF80448001FB9
:10662000447008B010BD0000AC750300D9650300CC
:10663000943000202DE9FF470C4605464FF40071C9
:10664000FBF781FB01274FF40178002618B34FF4C4
:10665000927949462846FBF76BFBE0B1494628464C
:10666000FBF76BFBC5F8088394F8290000B96F604D
:1066700002208DF80000D5F88004C5F8800403904E
:10668000A0690290E0680190A661E661D4E9001279
:106690006846904728E004212846FBF754FB18B3CE
:1066A0004FF484712846FBF743FBE8B121462846A6
:1066B000FEF732FF616AA069884215D1E06938B1FE
:1066C000E268616AA0612069E6616662E06008E0F4
:1066D00094F8290000B96F60C5F80883A661E268E4
:1066E000616A2046FEF731FF4FF48E784146284616
:1066F000FBF71EFB80B16069216A814202D294F8E7
:10670000280028B341462846FBF717FB606918B1FB
:1067100061692046FFF72EFF4FF4A27841462846D4
:10672000FBF706FB002818D041462846FBF705FB7F
:1067300094F8290000B12F60A06900280DD0A6614F
:10674000E268616A04B02046BDE8F047FEF7FDBE8E
:1067500021462846FFF7FEFEDEE7BDE8FF87000082
:106760001FB50A4601788DF8001041680191017A41
:106770008DF80810C0680390044850F82210001FDC
:1067800050F82220684690471FBD0000F42F0020DB
:106790002DE9FF410C464FF4927705463946FBF749
:1067A000D8FA0026B8B139462846FBF7D7FA0220B6
:1067B0008DF80000D5F88004C5F880040390D5F862
:1067C0003C050290E0680190A661E661D4E9001200
:1067D0006846904723E04FF4887739462846FBF710
:1067E000B8FAE0B139462846FBF7B8FAD5F83C15B7
:1067F000A069884213D1E06960B1E268D5F800026F
:1068000020F02000C5F80002E069A0612069E6617F
:10681000E06001E0A661E2682046FEF7A1FE4FF4C9
:10682000A27739462846FBF794FA68B139462846DC
:10683000FBF794FAA06938B1A661E661D5F83C157A
:106840002046E268FEF78CFE4FF4907631462846EB
:10685000FBF77FFA60B131462846FBF77FFA01204B
:10686000E860606920B1D5F84C152046FFF78FFE2F
:106870004FF4AC7631462846FBF76BFA00280ED071
:1068800031462846FBF76AFA6069002807D0D5F838
:106890004C1504B02046BDE8F041FFF778BEBDE8D6
:1068A000FF810870000A48700220704710B514215B
:1068B0000448F0F76FFC04480068F8F776FB002006
:1068C00010BD0000C0420020107403002DE9F05FED
:1068D0008346DDE90A4A994690460D460846012757
:1068E00003E000BFB0FBF8F07F1C4045FAD2B94589
:1068F00000D94F465FEACA7012D18CB15FEA8A7044
:1069000002D5B9F1000F01D0202607E0302605E0BE
:1069100031465846641EF4F7DDFB0CB1A742F7D3AD
:106920005FF00106B9F1010F02D9A9F1010903E0F5
:10693000B5FBF6F0404502D306FB08F6F2E7DFF8B8
:106940003C9000BFB5FBF6F000FB165519F800109F
:106950005846F4F7BFFBB6FBF8F6002EF2D15FEA1B
:10696000CA7009D0002C07D0A74205D22021584672
:10697000641EF4F7AFFBF5E7BDE8F09FA0730300DA
:1069800010B5094C002207496078F3F7D9FB0028BD
:1069900006D16079BDE8104000220449F3F7D0BB6E
:1069A00010BD000061B80200102F002075B1020078
:1069B000F8B5054680B2F6F73DFE040013D0154E3B
:1069C000207A0027317B88420ED2A8B204F10A0156
:1069D00075DF28B1112806D0BDE8F840FFF732B8BE
:1069E000207A401C2072F8BD2772307C38B1A8B2E2
:1069F0003B2176DF18B1082801D0FFF723F8716931
:106A00000029F0D08DF80070ADF802506846884734
:106A1000F8BD00000C390020417939B190F82E14EE
:106A200021B990F8300408B1012070470020704768
:106A300001460148F8F740BB2839002030B404462D
:106A4000007A00280AD06088002166DF28B111286A
:106A500002D0616830BC08470120207230BC70470A
:106A600070B50C460546F4F759FB002807D042687C
:106A7000002A04D021462846BDE87040104770BD6A
:106A80002DE9FC411646DDE90854CDE900541F46C6
:106A90008046022200F00CF8002807D1CDE900540E
:106AA0003B4610223146404600F002F8BDE8FC812A
:106AB0002DE9FC5F0026DDE90C4B994692468E4697
:106AC00080462788354630E0D8F80400002200EBE5
:106AD000850069460068019001A864DF002830D174
:106AE0009DF8000050451FD10EB1002100E00221A9
:106AF000228808441118594522D846B9521C90B230
:106B0000208009F800E02088401C20800126218890
:106B100001A801EB0902694664DF002811D1208831
:106B20009DF80010084420806D1CB8F80000A842B1
:106B3000CADC56B12088C01B401E80B2FF2802D993
:106B40000C20BDE8FC9F09F807000020F9E70020B1
:106B5000704700002DE9F84F114D884681461E46CA
:106B600017466946DDF828A02868F8F739FA0400C6
:106B700013D01C21F0F70EFB00202071C4F8009008
:106B8000C4E90486C4E902A769462868F8F749FA07
:106B9000FEF77CF90020BDE8F88F0420FBE7000039
:106BA000107403002DE9FC41044600200090019080
:106BB000A0788DF80200617A2D48FDF79FF82D49E5
:106BC0002D4A891AC908012606EB014580B1024603
:106BD000A178237A6846FCF77BFF9DF80200012824
:106BE0000ED006280CD0072808D0082811D10AE0BA
:106BF000627A284621A1FAF7C1FA1FE0142006E0C4
:106C0000ADF8006005E00198808809308008ADF893
:106C100000002088221D6946FCF770FE88B1072815
:106C20000DD02649112811D0862818D0FBF776F808
:106C300002462388284622A1FAF7A7FA0320BDE8D6
:106C4000FC81A17A21F00301A172F8E7A07A20F07B
:106C5000010040F00200A0720E700020EFE7A27A5F
:106C600022F0020242F00102A2720E70E7E7000079
:106C7000843D002050BC030008BC0300706D5F62BF
:106C800075666665725F7074725F67657428292027
:106C9000636F756C64206E6F7420726574726965C1
:106CA00076652052414D206275666665722E2062BF
:106CB0006C6F636B5F69643A20256400482F002085
:106CC0007064735F706565725F646174615F737433
:106CD0006F726528292072657475726E656420254F
:106CE000732E20706565725F69643A202564000028
:106CF00038B505460C46002001E00098401C009085
:106D00006946284600F00EF800280AD08178A14292
:106D1000F3D1817A8A07F0D4C907EED141680029FE
:106D2000EBD138BD10B50A4B0A680CE002EB420407
:106D300033F82440844205D102EB420003EB80008B
:106D40000A6010BD521C042AF0D3002010BD0000C0
:106D5000943D00204FF6FF710180FF218170417248
:106D6000817A21F003018172002101724160704734
:106D700070B50546002406E0687A2044C1B2064892
:106D8000FCF7D0FF641C287AA042F5D82846BDE85D
:106D90007040FFF7DFBF0000843D00202DE9FC4775
:106DA000064639489846144600780D464FF00009CB
:106DB00078B37DB32888A0F57F41FF3933D0688848
:106DC00048B36868F6F76AFD80B384B32088ADF8ED
:106DD0000000678801A8FDF7CBFE040034D084F8DA
:106DE00000804FF0000A84F816A0BDF80000A082D1
:106DF00068682061244801210C38F8F77EF9E060CA
:106E0000288820816888A080E780B8F1030F23D00C
:106E100026E001E004E006E048F20160BDE8FC87FE
:106E200048F20460FAE748F20360F7E700E002E0A6
:106E300048F20260F2E72889694687B2384600F0D6
:106E4000AFF80028EAD1C5E7BDF80010384600F0D9
:106E50009BF848F20760E1E70420A0753068A06164
:106E6000A4F80A9001A8FDF791FE46B1C6F804A067
:106E7000E1680648316086F80AA000893081FDF794
:106E8000F7FF0020CAE70000703000201442002005
:106E90002DE9F8430D46898A384A01EB810102EB5E
:106EA000810638B129463046FCF768F94FF40640B0
:106EB000BDE8F88331897068002400EB81072F4812
:106EC000A97DA83848F20D6807294FD2DFE801F004
:106ED0000D2E172504414B004460A9690160274825
:106EE0002749A838FEF7E8F830B10220A875042336
:106EF00039462A1D009424E048F20960D8E7286941
:106F00002A4608B1032000E001209075042305F112
:106F10000C0207F10801009413E00120A875009409
:106F2000E88807F10C0183002A690AE028782A46DC
:106F300003280CD006209075042305F10802391DA2
:106F400000941048F9F754FDB0B1444610E0052014
:106F5000F1E70621A9750A4940680988FEF72AF970
:106F6000040005D108E041F61D5401E048F20E642A
:106F700029463046FCF702F9204699E7EC4100200B
:106F8000503000201031002001EB8102034901EB59
:106F900082014A89101AC01E48817047EC410020C6
:106FA00070B5C01C82B240F2FE30824202D948F273
:106FB000086070BD114B00204FF4806500EB800429
:106FC00013F8246096B903EB840634897689144457
:106FD0003444A4B2AC4209D8088000EB800003EB33
:106FE0008000418911444181002070BD401C80B265
:106FF0000228E3D348F2066070BD0000EC41002097
:10700000443200202431002008000000200000004D
:1070100001000000000000000D1801000D18010023
:10702000111213140D0E0F1068380020883800203C
:10703000B83800200D000300C5AC02000E000300AC
:10704000C5AC02000F000300C5AC02001000030035
:10705000C5AC0200010000000000000000000000BC
:107060000000000000000000000000000000000020
:107070000000000000000000000000000000000010
:107080000000000000000000000000000000000000
:1070900000000000000000000000000000000000F0
:1070A00000000000000000000000000000000000E0
:1070B00000000000000000000000000000000000D0
:1070C00000000000000000000000000000000000C0
:1070D0000100FFFF010000000000000002000000AE
:1070E000000000000100090000000000070000008F
:1070F0000000000000000000000000000000000090
:107100000600000000000000000000000000000079
:10711000000000001000000000000000000000005F
:10712000000000000000000011000000000000004E
:10713000000000000000000000000000010000004E
:10714000010001003C7103000100010050710300C7
:1071500000000000F14303004DCB0200770A00005D
:1071600000000000770A0000000000007ADA00004A
:107170000000000000000000ADC60200000000009A
:107180000000000000000000D9C60200F534030032
:1071900007000000000000000000000000000000E8
:1071A00000000000B1450300F15E0300B1CF020012
:1071B0001DCC0200706D5F696E69740001000600ED
:1071C0005C2F0020706D5F706565725F6E65770083
:1071D000706D5F70656572735F64656C6574650082
:1071E0000600000000000000000000000000000099
:1071F00000000000915F030001000000000000009B
:107200000000000000000000000000000700000077
:10721000000000000000000000000000000000006E
:107220000600000000000000000000000000000058
:10723000000000000300000000000000000000004B
:107240000000000000000000050000000000000039
:107250000000000000000000000000007365635F94
:107260006B65797365745F66696C6C001200000071
:10727000000000000000000000000000000000000E
:10728000E0000000B549030000000000000000001D
:1072900000000000B7FE020099FD0200E3FD0200BD
:1072A000DDFE0200D3FD020031FE020055FE0200A9
:1072B00055FE020015FE020065FE020065FE02009A
:1072C00065FE02007BFE02007BFE02007BFE0200E8
:1072D0008BFE02008BFE02008BFE0200000000000D
:1072E000000000000000000000000000000000009E
:1072F0000000000000000000A1FE020089FD020065
:1073000048002800002040004571020000000000F5
:10731000000000000000000000000000000000006D
:10732000000000000000000000000001FFFFFFFF60
:1073300000000000FFFFFFFFFFFFFFFFBCE6FAAD0C
:10734000A7179E84F3B9CAC2FC632550010600004A
:1073500000000050D12003003D2303000300000083
:1073600090400020C0400020010006000000000006
:107370004030002063B40200000000000000000064
:107380000338FDD870470000344100200000FFFFA3
:10739000DEC0ADDEFF011EF1DEC0ADDEFE011EF17E
:1073A000303132333435363738394142434445463B
:1073B0006E72665F6673746F726167655F696E692E
:1073C00074006E72665F6673746F726167655F7575
:1073D0006E696E6974006E72665F6673746F726157
:1073E00067655F72656164006E72665F6673746F75
:1073F000726167655F7772697465006E72665F6659
:1074000073746F726167655F657261736500000018
:1074100024420020001000000400000001000000D1
:1074200039D50200AD680300714F0300556B0300AE
:1074300069BE0200DF5303004F6B0300ADD70200AB
:10744000000000000000000000000000000000003C
:1074500000000000000000004074030058740300A6
:1074600004000000556E6B6E6F776E206572726F50
:107470007220636F6465000000000000A8AD030087
:107480000100000054AC03000200000048AA030001
:1074900003000000C8AC0300040000001CAD0300A2
:1074A00005000000FCAB03000600000098AB0300E1
:1074B0000700000004AD03000800000010AC03004A
:1074C0000900000074AC03000A00000090AD030046
:1074D0000B00000030AA03000C00000028AC0300E1
:1074E0000D000000F8AD03000E000000F4AC030036
:1074F0000F00000030AD03001000000064AD030079
:10750000110000000CAE030012000000E0AD03000B
:10751000130000007CAD030080000000B0AB03004E
:1075200081000000ECAA030082000000ACAA030066
:10753000830000008CAA030084000000C8AA030096
:1075400085000000D4AB030086000000DCAC030023
:107550009000000078AB0300910000006CAA0300CB
:10756000920000003CAC03000082000044AD030028
:107570000182000090AC030002820000ACAC03006A
:107580000084000008AB030001840000B4AD0300D8
:107590000284000050AB0300038400002CAB030006
:1075A000D90E0300AD0E0300A50E0300FFFFFFFF81
:1075B000FFFFFFFFFFFFFFFFFFFFFFFF00000000D7
:1075C000000000000000D601060100002044002059
:1075D0007F000000A0440020C0BD0300C8BD030020
:1075E000000000000000000001000007D875030043
:1075F000E875030008000000107603002076030001
:107600000800000020760300307603000800000028
:10761000E0BD0300F0BD030000000000000000001A
:10762000D0BD0300E0BD030000000000000000002A
:1076300050BD030058BD030058BD030098BD0300B2
:1076400098BD0300B8BD0300B8BD0300C0BD030072
:10765000C8280020307603005076030008000000A0
:10766000C8BD0300D0BD0300000000000000000002
:10767000607603007076030008000000637C777B6F
:10768000F26B6FC53001672BFED7AB76CA82C97D1E
:10769000FA5947F0ADD4A2AF9CA472C0B7FD9326AF
:1076A000363FF7CC34A5E5F171D8311504C723C3B3
:1076B0001896059A071280E2EB27B27509832C1AF7
:1076C0001B6E5AA0523BD6B329E32F8453D100ED51
:1076D00020FCB15B6ACBBE394A4C58CFD0EFAAFB35
:1076E000434D338545F9027F503C9FA851A3408FFD
:1076F000929D38F5BCB6DA2110FFF3D2CD0C13EC15
:107700005F974417C4A77E3D645D197360814FDCA9
:10771000222A908846EEB814DE5E0BDBE0323A0A8D
:107720004906245CC2D3AC629195E479E7C8376D11
:107730008DD54EA96C56F4EA657AAE08BA78252E36
:107740001CA6B4C6E8DD741F4BBD8B8A703EB566BF
:107750004803F60E613557B986C11D9EE1F89811B0
:1077600069D98E949B1E87E9CE5528DF8CA1890D9F
:10777000BFE6426841992D0FB054BB16C66363A59E
:10778000F87C7C84EE777799F67B7B8DFFF2F20DA7
:10779000D66B6BBDDE6F6FB191C5C5546030305094
:1077A00002010103CE6767A9562B2B7DE7FEFE1968
:1077B000B5D7D7624DABABE6EC76769A8FCACA45A1
:1077C0001F82829D89C9C940FA7D7D87EFFAFA152B
:1077D000B25959EB8E4747C9FBF0F00B41ADADEC08
:1077E000B3D4D4675FA2A2FD45AFAFEA239C9CBF90
:1077F00053A4A4F7E47272969BC0C05B75B7B7C27E
:10780000E1FDFD1C3D9393AE4C26266A6C36365A3C
:107810007E3F3F41F5F7F70283CCCC4F6834345CB0
:1078200051A5A5F4D1E5E534F9F1F108E2717193C0
:10783000ABD8D873623131532A15153F0804040CB4
:1078400095C7C752462323659DC3C35E30181828C9
:10785000379696A10A05050F2F9A9AB50E070709C4
:10786000241212361B80809BDFE2E23DCDEBEB263B
:107870004E2727697FB2B2CDEA75759F1209091BA1
:107880001D83839E582C2C74341A1A2E361B1B2DE4
:10789000DC6E6EB2B45A5AEE5BA0A0FBA45252F654
:1078A000763B3B4DB7D6D6617DB3B3CE5229297B0B
:1078B000DDE3E33E5E2F2F7113848497A65353F5C7
:1078C000B9D1D16800000000C1EDED2C402020604E
:1078D000E3FCFC1F79B1B1C8B65B5BEDD46A6ABE4C
:1078E0008DCBCB4667BEBED97239394B944A4ADE3E
:1078F000984C4CD4B05858E885CFCF4ABBD0D06B09
:10790000C5EFEF2A4FAAAAE5EDFBFB16864343C558
:107910009A4D4DD766333355118585948A4545CFA9
:10792000E9F9F91004020206FE7F7F81A05050F0B1
:10793000783C3C44259F9FBA4BA8A8E3A25151F341
:107940005DA3A3FE804040C0058F8F8A3F9292AD19
:10795000219D9DBC70383848F1F5F50463BCBCDF4F
:1079600077B6B6C1AFDADA75422121632010103044
:10797000E5FFFF1AFDF3F30EBFD2D26D81CDCD4CE2
:10798000180C0C1426131335C3ECEC2FBE5F5FE10B
:10799000359797A2884444CC2E17173993C4C457FF
:1079A00055A7A7F2FC7E7E827A3D3D47C86464AC51
:1079B000BA5D5DE73219192BE6737395C06060A05C
:1079C000198181989E4F4FD1A3DCDC7F442222662F
:1079D000542A2A7E3B9090AB0B8888838C4646CAFB
:1079E000C7EEEE296BB8B8D32814143CA7DEDE79B5
:1079F000BC5E5EE2160B0B1DADDBDB76DBE0E03B35
:107A000064323256743A3A4E140A0A1E924949DBDD
:107A10000C06060A4824246CB85C5CE49FC2C25D74
:107A2000BDD3D36E43ACACEFC46262A6399191A8CA
:107A3000319595A4D3E4E437F279798BD5E7E73231
:107A40008BC8C8436E373759DA6D6DB7018D8D8C91
:107A5000B1D5D5649C4E4ED249A9A9E0D86C6CB47E
:107A6000AC5656FAF3F4F407CFEAEA25CA6565AFD7
:107A7000F47A7A8E47AEAEE9100808186FBABAD514
:107A8000F07878884A25256F5C2E2E72381C1C24CD
:107A900057A6A6F173B4B4C797C6C651CBE8E8237E
:107AA000A1DDDD7CE874749C3E1F1F21964B4BDDED
:107AB00061BDBDDC0D8B8B860F8A8A85E07070906E
:107AC0007C3E3E4271B5B5C4CC6666AA904848D8A3
:107AD00006030305F7F6F6011C0E0E12C26161A340
:107AE0006A35355FAE5757F969B9B9D017868691AF
:107AF00099C1C1583A1D1D27279E9EB9D9E1E13889
:107B0000EBF8F8132B9898B322111133D26969BBA3
:107B1000A9D9D970078E8E89339494A72D9B9BB6D3
:107B20003C1E1E2215878792C9E9E92087CECE49DF
:107B3000AA5555FF50282878A5DFDF7A038C8C8F53
:107B400059A1A1F8098989801A0D0D1765BFBFDAFF
:107B5000D7E6E631844242C6D06868B8824141C364
:107B6000299999B05A2D2D771E0F0F117BB0B0CBEC
:107B7000A85454FC6DBBBBD62C16163AA5C663633D
:107B800084F87C7C99EE77778DF67B7B0DFFF2F2A3
:107B9000BDD66B6BB1DE6F6F5491C5C55060303090
:107BA00003020101A9CE67677D562B2B19E7FEFE64
:107BB00062B5D7D7E64DABAB9AEC7676458FCACA9D
:107BC0009D1F82824089C9C987FA7D7D15EFFAFA27
:107BD000EBB25959C98E47470BFBF0F0EC41ADAD04
:107BE00067B3D4D4FD5FA2A2EA45AFAFBF239C9C8C
:107BF000F753A4A496E472725B9BC0C0C275B7B77A
