Component: ARM Compiler 5.06 update 6 (build 750) Tool: armlink [4d35ed]

==============================================================================

Section Cross References

    main.o(i.advertising_start) refers to nrf_log_frontend.o(i.nrf_log_frontend_std_0) for nrf_log_frontend_std_0
    main.o(i.advertising_start) refers to peer_manager.o(i.pm_peers_delete) for pm_peers_delete
    main.o(i.advertising_start) refers to ble_advertising.o(i.ble_advertising_start) for ble_advertising_start
    main.o(i.advertising_start) refers to app_error.o(i.app_error_handler_bare) for app_error_handler_bare
    main.o(i.advertising_start) refers to nrf_log_frontend.o(log_const_data) for m_nrf_log_app_logs_data_const
    main.o(i.advertising_start) refers to main.o(.bss) for .bss
    main.o(i.assert_nrf_callback) refers to app_error_handler_keil.o(.emb_text) for app_error_handler
    main.o(i.ble_evt_handler) refers to nrf_log_frontend.o(i.nrf_log_frontend_std_0) for nrf_log_frontend_std_0
    main.o(i.ble_evt_handler) refers to bsp.o(i.bsp_indication_set) for bsp_indication_set
    main.o(i.ble_evt_handler) refers to app_error.o(i.app_error_handler_bare) for app_error_handler_bare
    main.o(i.ble_evt_handler) refers to nrf_ble_qwr.o(i.nrf_ble_qwr_conn_handle_assign) for nrf_ble_qwr_conn_handle_assign
    main.o(i.ble_evt_handler) refers to nrf_log_frontend.o(log_const_data) for m_nrf_log_app_logs_data_const
    main.o(i.ble_evt_handler) refers to main.o(.data) for .data
    main.o(i.ble_evt_handler) refers to main.o(.bss) for .bss
    main.o(i.bsp_event_handler) refers to main.o(i.sleep_mode_enter) for sleep_mode_enter
    main.o(i.bsp_event_handler) refers to app_error.o(i.app_error_handler_bare) for app_error_handler_bare
    main.o(i.bsp_event_handler) refers to ble_advertising.o(i.ble_advertising_restart_without_whitelist) for ble_advertising_restart_without_whitelist
    main.o(i.bsp_event_handler) refers to main.o(.data) for .data
==============================================================================

Removing Unused input sections from the image.

    Removing main.o(.rev16_text), (4 bytes).
    Removing main.o(.revsh_text), (4 bytes).
    Removing main.o(.rrx_text), (6 bytes).
    Removing main.o(i.assert_nrf_callback), (16 bytes).
    Removing boards.o(.rev16_text), (4 bytes).
    Removing boards.o(.revsh_text), (4 bytes).
    Removing boards.o(.rrx_text), (6 bytes).
    Removing boards.o(i.bsp_board_led_idx_to_pin), (12 bytes).
    Removing boards.o(i.bsp_board_pin_to_led_idx), (36 bytes).
    Removing bsp.o(.rev16_text), (4 bytes).
    Removing bsp.o(.revsh_text), (4 bytes).
    Removing bsp.o(.rrx_text), (6 bytes).
    Removing bsp.o(i.bsp_buttons_disable), (4 bytes).
    Removing bsp.o(i.bsp_buttons_enable), (4 bytes).
    Removing bsp.o(i.bsp_wakeup_button_disable), (6 bytes).
    Removing bsp_btn_ble.o(.rev16_text), (4 bytes).
    Removing bsp_btn_ble.o(.revsh_text), (4 bytes).
    Removing bsp_btn_ble.o(.rrx_text), (6 bytes).
==============================================================================

Image Symbol Table

    Local Symbols

    Symbol Name                              Value     Ov Type        Size  Object(Section)

    ../clib/../cmprslib/zerorunl2.c          0x00000000   Number         0  __dczerorl2.o ABSOLUTE
    ../clib/microlib/ctype/ctype.c           0x00000000   Number         0  isxdigit_o.o ABSOLUTE
    ../clib/microlib/ctype/ctype.c           0x00000000   Number         0  islower_o.o ABSOLUTE
    ../clib/microlib/ctype/ctype.c           0x00000000   Number         0  isalpha_o.o ABSOLUTE
    ../clib/microlib/ctype/ctype.c           0x00000000   Number         0  ctype_o.o ABSOLUTE
    ../clib/microlib/ctype/ctype.c           0x00000000   Number         0  isalnum_o.o ABSOLUTE
    ../clib/microlib/ctype/ctype.c           0x00000000   Number         0  isupper_o.o ABSOLUTE
    ../clib/microlib/ctype/ctype.c           0x00000000   Number         0  isblank_o.o ABSOLUTE
    ../clib/microlib/ctype/ctype.c           0x00000000   Number         0  isspace_o.o ABSOLUTE
    ../clib/microlib/ctype/ctype.c           0x00000000   Number         0  iscntrl_o.o ABSOLUTE
    ../clib/microlib/ctype/ctype.c           0x00000000   Number         0  isdigit_o.o ABSOLUTE
    ../clib/microlib/ctype/ctype.c           0x00000000   Number         0  ispunct_o.o ABSOLUTE
    ../clib/microlib/ctype/ctype.c           0x00000000   Number         0  isgraph_o.o ABSOLUTE
    ../clib/microlib/ctype/ctype.c           0x00000000   Number         0  isprint_o.o ABSOLUTE
    ../clib/microlib/division.c              0x00000000   Number         0  uldiv.o ABSOLUTE
    ../clib/microlib/init/entry.s            0x00000000   Number         0  entry10a.o ABSOLUTE
    ../clib/microlib/init/entry.s            0x00000000   Number         0  entry2.o ABSOLUTE
    ../clib/microlib/init/entry.s            0x00000000   Number         0  entry5.o ABSOLUTE
    ../clib/microlib/init/entry.s            0x00000000   Number         0  entry7a.o ABSOLUTE
    ../clib/microlib/init/entry.s            0x00000000   Number         0  entry7b.o ABSOLUTE
    ../clib/microlib/init/entry.s            0x00000000   Number         0  entry.o ABSOLUTE
    ../clib/microlib/init/entry.s            0x00000000   Number         0  entry8a.o ABSOLUTE
    ../clib/microlib/init/entry.s            0x00000000   Number         0  entry8b.o ABSOLUTE
    ../clib/microlib/init/entry.s            0x00000000   Number         0  entry9a.o ABSOLUTE
    ../clib/microlib/init/entry.s            0x00000000   Number         0  entry9b.o ABSOLUTE
    ../clib/microlib/init/entry.s            0x00000000   Number         0  entry11b.o ABSOLUTE
    ../clib/microlib/init/entry.s            0x00000000   Number         0  entry11a.o ABSOLUTE
    ../clib/microlib/init/entry.s            0x00000000   Number         0  entry10b.o ABSOLUTE
    ../clib/microlib/longlong.c              0x00000000   Number         0  llushr.o ABSOLUTE
    ../clib/microlib/longlong.c              0x00000000   Number         0  llshl.o ABSOLUTE
    ../clib/microlib/stdio/fflush.c          0x00000000   Number         0  fflush.o ABSOLUTE
    ../clib/microlib/stdio/fputc.c           0x00000000   Number         0  fputc.o ABSOLUTE
    ../clib/microlib/stdio/semi.s            0x00000000   Number         0  semi.o ABSOLUTE
    ../clib/microlib/stdio/streams.c         0x00000000   Number         0  stdout.o ABSOLUTE
    ../clib/microlib/string/memcmp.c         0x00000000   Number         0  memcmp.o ABSOLUTE
    ../clib/microlib/string/memcpy.c         0x00000000   Number         0  memcpya.o ABSOLUTE
    ../clib/microlib/string/memcpy.c         0x00000000   Number         0  memcpyb.o ABSOLUTE
    ../clib/microlib/string/memset.c         0x00000000   Number         0  memseta.o ABSOLUTE
    ../clib/microlib/string/strcmp.c         0x00000000   Number         0  strcmp.o ABSOLUTE
    ../clib/microlib/string/strcpy.c         0x00000000   Number         0  strcpy.o ABSOLUTE
    ../clib/microlib/string/strlen.c         0x00000000   Number         0  strlen.o ABSOLUTE
    ../clib/microlib/stubs.s                 0x00000000   Number         0  iusesemip.o ABSOLUTE
    ../clib/microlib/stubs.s                 0x00000000   Number         0  useno.o ABSOLUTE
    ..\..\..\..\..\..\components\ble\ble_advertising\ble_advertising.c 0x00000000   Number         0  ble_advertising.o ABSOLUTE
    ..\..\..\..\..\..\components\ble\common\ble_advdata.c 0x00000000   Number         0  ble_advdata.o ABSOLUTE
    ..\..\..\..\..\..\components\ble\common\ble_conn_params.c 0x00000000   Number         0  ble_conn_params.o ABSOLUTE
    ..\..\..\..\..\..\components\ble\common\ble_conn_state.c 0x00000000   Number         0  ble_conn_state.o ABSOLUTE
    ..\..\..\..\..\..\components\ble\common\ble_srv_common.c 0x00000000   Number         0  ble_srv_common.o ABSOLUTE
    ..\..\..\..\..\..\components\ble\nrf_ble_gatt\nrf_ble_gatt.c 0x00000000   Number         0  nrf_ble_gatt.o ABSOLUTE
    ..\..\..\..\..\..\components\ble\nrf_ble_qwr\nrf_ble_qwr.c 0x00000000   Number         0  nrf_ble_qwr.o ABSOLUTE
    ..\..\..\..\..\..\components\ble\peer_manager\auth_status_tracker.c 0x00000000   Number         0  auth_status_tracker.o ABSOLUTE
    ..\..\..\..\..\..\components\ble\peer_manager\gatt_cache_manager.c 0x00000000   Number         0  gatt_cache_manager.o ABSOLUTE
    ..\..\..\..\..\..\components\ble\peer_manager\gatts_cache_manager.c 0x00000000   Number         0  gatts_cache_manager.o ABSOLUTE
    ..\..\..\..\..\..\components\ble\peer_manager\id_manager.c 0x00000000   Number         0  id_manager.o ABSOLUTE
    ..\..\..\..\..\..\components\ble\peer_manager\peer_data_storage.c 0x00000000   Number         0  peer_data_storage.o ABSOLUTE
    ..\..\..\..\..\..\components\ble\peer_manager\peer_database.c 0x00000000   Number         0  peer_database.o ABSOLUTE
    ..\..\..\..\..\..\components\ble\peer_manager\peer_id.c 0x00000000   Number         0  peer_id.o ABSOLUTE
    ..\..\..\..\..\..\components\ble\peer_manager\peer_manager.c 0x00000000   Number         0  peer_manager.o ABSOLUTE
    ..\..\..\..\..\..\components\ble\peer_manager\peer_manager_handler.c 0x00000000   Number         0  peer_manager_handler.o ABSOLUTE
    ..\..\..\..\..\..\components\ble\peer_manager\pm_buffer.c 0x00000000   Number         0  pm_buffer.o ABSOLUTE
    ..\..\..\..\..\..\components\ble\peer_manager\security_dispatcher.c 0x00000000   Number         0  security_dispatcher.o ABSOLUTE
    ..\..\..\..\..\..\components\ble\peer_manager\security_manager.c 0x00000000   Number         0  security_manager.o ABSOLUTE
    ..\..\..\..\..\..\components\boards\boards.c 0x00000000   Number         0  boards.o ABSOLUTE
    ..\..\..\..\..\..\components\libraries\atomic\nrf_atomic.c 0x00000000   Number         0  nrf_atomic.o ABSOLUTE
    ..\..\..\..\..\..\components\libraries\atomic_fifo\nrf_atfifo.c 0x00000000   Number         0  nrf_atfifo.o ABSOLUTE
    ..\..\..\..\..\..\components\libraries\atomic_flags\nrf_atflags.c 0x00000000   Number         0  nrf_atflags.o ABSOLUTE
    ..\..\..\..\..\..\components\libraries\balloc\nrf_balloc.c 0x00000000   Number         0  nrf_balloc.o ABSOLUTE
    ..\..\..\..\..\..\components\libraries\bsp\bsp.c 0x00000000   Number         0  bsp.o ABSOLUTE
    ..\..\..\..\..\..\components\libraries\bsp\bsp_btn_ble.c 0x00000000   Number         0  bsp_btn_ble.o ABSOLUTE
    ..\..\..\..\..\..\components\libraries\button\app_button.c 0x00000000   Number         0  app_button.o ABSOLUTE
    ..\..\..\..\..\..\components\libraries\crc16\crc16.c 0x00000000   Number         0  crc16.o ABSOLUTE
    ..\..\..\..\..\..\components\libraries\experimental_section_vars\nrf_section_iter.c 0x00000000   Number         0  nrf_section_iter.o ABSOLUTE
    ..\..\..\..\..\..\components\libraries\fds\fds.c 0x00000000   Number         0  fds.o ABSOLUTE
    ..\..\..\..\..\..\components\libraries\fstorage\nrf_fstorage.c 0x00000000   Number         0  nrf_fstorage.o ABSOLUTE
    ..\..\..\..\..\..\components\libraries\fstorage\nrf_fstorage_sd.c 0x00000000   Number         0  nrf_fstorage_sd.o ABSOLUTE
    ..\..\..\..\..\..\components\libraries\hardfault\hardfault_implementation.c 0x00000000   Number         0  hardfault_implementation.o ABSOLUTE
    ..\..\..\..\..\..\components\libraries\log\src\nrf_log_backend_rtt.c 0x00000000   Number         0  nrf_log_backend_rtt.o ABSOLUTE
    ..\..\..\..\..\..\components\libraries\log\src\nrf_log_backend_serial.c 0x00000000   Number         0  nrf_log_backend_serial.o ABSOLUTE
    ..\..\..\..\..\..\components\libraries\log\src\nrf_log_backend_uart.c 0x00000000   Number         0  nrf_log_backend_uart.o ABSOLUTE
    ..\..\..\..\..\..\components\libraries\log\src\nrf_log_default_backends.c 0x00000000   Number         0  nrf_log_default_backends.o ABSOLUTE
    ..\..\..\..\..\..\components\libraries\log\src\nrf_log_frontend.c 0x00000000   Number         0  nrf_log_frontend.o ABSOLUTE
    ..\..\..\..\..\..\components\libraries\log\src\nrf_log_str_formatter.c 0x00000000   Number         0  nrf_log_str_formatter.o ABSOLUTE
    ..\..\..\..\..\..\components\libraries\memobj\nrf_memobj.c 0x00000000   Number         0  nrf_memobj.o ABSOLUTE
    ..\..\..\..\..\..\components\libraries\pwr_mgmt\nrf_pwr_mgmt.c 0x00000000   Number         0  nrf_pwr_mgmt.o ABSOLUTE
    ..\..\..\..\..\..\components\libraries\ringbuf\nrf_ringbuf.c 0x00000000   Number         0  nrf_ringbuf.o ABSOLUTE
    ..\..\..\..\..\..\components\libraries\scheduler\app_scheduler.c 0x00000000   Number         0  app_scheduler.o ABSOLUTE
    ..\..\..\..\..\..\components\libraries\sensorsim\sensorsim.c 0x00000000   Number         0  sensorsim.o ABSOLUTE
    ..\..\..\..\..\..\components\libraries\sortlist\nrf_sortlist.c 0x00000000   Number         0  nrf_sortlist.o ABSOLUTE
    ..\..\..\..\..\..\components\libraries\strerror\nrf_strerror.c 0x00000000   Number         0  nrf_strerror.o ABSOLUTE
    ..\..\..\..\..\..\components\libraries\timer\app_timer2.c 0x00000000   Number         0  app_timer2.o ABSOLUTE
    ..\..\..\..\..\..\components\libraries\timer\drv_rtc.c 0x00000000   Number         0  drv_rtc.o ABSOLUTE
    ..\..\..\..\..\..\components\libraries\util\app_error.c 0x00000000   Number         0  app_error.o ABSOLUTE
    ..\..\..\..\..\..\components\libraries\util\app_error_handler_keil.c 0x00000000   Number         0  app_error_handler_keil.o ABSOLUTE
    ..\..\..\..\..\..\components\libraries\util\app_error_weak.c 0x00000000   Number         0  app_error_weak.o ABSOLUTE
    ..\..\..\..\..\..\components\libraries\util\app_util_platform.c 0x00000000   Number         0  app_util_platform.o ABSOLUTE
    ..\..\..\..\..\..\components\libraries\util\nrf_assert.c 0x00000000   Number         0  nrf_assert.o ABSOLUTE
    ..\..\..\..\..\..\components\softdevice\common\nrf_sdh.c 0x00000000   Number         0  nrf_sdh.o ABSOLUTE
    ..\..\..\..\..\..\components\softdevice\common\nrf_sdh_ble.c 0x00000000   Number         0  nrf_sdh_ble.o ABSOLUTE
    ..\..\..\..\..\..\components\softdevice\common\nrf_sdh_soc.c 0x00000000   Number         0  nrf_sdh_soc.o ABSOLUTE
    ..\..\..\..\..\..\external\fprintf\nrf_fprintf.c 0x00000000   Number         0  nrf_fprintf.o ABSOLUTE
    ..\..\..\..\..\..\external\fprintf\nrf_fprintf_format.c 0x00000000   Number         0  nrf_fprintf_format.o ABSOLUTE
    ..\..\..\..\..\..\external\segger_rtt\SEGGER_RTT.c 0x00000000   Number         0  segger_rtt.o ABSOLUTE
    ..\..\..\..\..\..\external\segger_rtt\SEGGER_RTT_Syscalls_KEIL.c 0x00000000   Number         0  segger_rtt_syscalls_keil.o ABSOLUTE
    ..\..\..\..\..\..\external\segger_rtt\SEGGER_RTT_printf.c 0x00000000   Number         0  segger_rtt_printf.o ABSOLUTE
    ..\..\..\..\..\..\external\utf_converter\utf.c 0x00000000   Number         0  utf.o ABSOLUTE
    ..\..\..\..\..\..\integration\nrfx\legacy\nrf_drv_clock.c 0x00000000   Number         0  nrf_drv_clock.o ABSOLUTE
    ..\..\..\..\..\..\integration\nrfx\legacy\nrf_drv_uart.c 0x00000000   Number         0  nrf_drv_uart.o ABSOLUTE
    ..\..\..\..\..\..\modules\nrfx\drivers\src\nrfx_clock.c 0x00000000   Number         0  nrfx_clock.o ABSOLUTE
    ..\..\..\..\..\..\modules\nrfx\drivers\src\nrfx_gpiote.c 0x00000000   Number         0  nrfx_gpiote.o ABSOLUTE
    ..\..\..\..\..\..\modules\nrfx\drivers\src\nrfx_uart.c 0x00000000   Number         0  nrfx_uart.o ABSOLUTE
    ..\..\..\..\..\..\modules\nrfx\drivers\src\nrfx_uarte.c 0x00000000   Number         0  nrfx_uarte.o ABSOLUTE
    ..\..\..\..\..\..\modules\nrfx\drivers\src\prs\nrfx_prs.c 0x00000000   Number         0  nrfx_prs.o ABSOLUTE
    ..\..\..\..\..\..\modules\nrfx\soc\nrfx_atomic.c 0x00000000   Number         0  nrfx_atomic.o ABSOLUTE
    ..\..\..\main.c                          0x00000000   Number         0  main.o ABSOLUTE
    ..\\..\\..\\..\\..\\..\\components\\ble\\ble_advertising\\ble_advertising.c 0x00000000   Number         0  ble_advertising.o ABSOLUTE
    ..\\..\\..\\..\\..\\..\\components\\ble\\common\\ble_advdata.c 0x00000000   Number         0  ble_advdata.o ABSOLUTE
    ..\\..\\..\\..\\..\\..\\components\\ble\\common\\ble_conn_params.c 0x00000000   Number         0  ble_conn_params.o ABSOLUTE
    ..\\..\\..\\..\\..\\..\\components\\ble\\common\\ble_conn_state.c 0x00000000   Number         0  ble_conn_state.o ABSOLUTE
    ..\\..\\..\\..\\..\\..\\components\\ble\\common\\ble_srv_common.c 0x00000000   Number         0  ble_srv_common.o ABSOLUTE
    ..\\..\\..\\..\\..\\..\\components\\ble\\nrf_ble_gatt\\nrf_ble_gatt.c 0x00000000   Number         0  nrf_ble_gatt.o ABSOLUTE
    ..\\..\\..\\..\\..\\..\\components\\ble\\nrf_ble_qwr\\nrf_ble_qwr.c 0x00000000   Number         0  nrf_ble_qwr.o ABSOLUTE
    ..\\..\\..\\..\\..\\..\\components\\ble\\peer_manager\\auth_status_tracker.c 0x00000000   Number         0  auth_status_tracker.o ABSOLUTE
    ..\\..\\..\\..\\..\\..\\components\\ble\\peer_manager\\gatt_cache_manager.c 0x00000000   Number         0  gatt_cache_manager.o ABSOLUTE
    ..\\..\\..\\..\\..\\..\\components\\ble\\peer_manager\\gatts_cache_manager.c 0x00000000   Number         0  gatts_cache_manager.o ABSOLUTE
    ..\\..\\..\\..\\..\\..\\components\\ble\\peer_manager\\id_manager.c 0x00000000   Number         0  id_manager.o ABSOLUTE
    ..\\..\\..\\..\\..\\..\\components\\ble\\peer_manager\\peer_data_storage.c 0x00000000   Number         0  peer_data_storage.o ABSOLUTE
    ..\\..\\..\\..\\..\\..\\components\\ble\\peer_manager\\peer_database.c 0x00000000   Number         0  peer_database.o ABSOLUTE
    ..\\..\\..\\..\\..\\..\\components\\ble\\peer_manager\\peer_id.c 0x00000000   Number         0  peer_id.o ABSOLUTE
    ..\\..\\..\\..\\..\\..\\components\\ble\\peer_manager\\peer_manager.c 0x00000000   Number         0  peer_manager.o ABSOLUTE
    ..\\..\\..\\..\\..\\..\\components\\ble\\peer_manager\\peer_manager_handler.c 0x00000000   Number         0  peer_manager_handler.o ABSOLUTE
    ..\\..\\..\\..\\..\\..\\components\\ble\\peer_manager\\pm_buffer.c 0x00000000   Number         0  pm_buffer.o ABSOLUTE
    ..\\..\\..\\..\\..\\..\\components\\ble\\peer_manager\\security_dispatcher.c 0x00000000   Number         0  security_dispatcher.o ABSOLUTE
    ..\\..\\..\\..\\..\\..\\components\\ble\\peer_manager\\security_manager.c 0x00000000   Number         0  security_manager.o ABSOLUTE
    ..\\..\\..\\..\\..\\..\\components\\boards\\boards.c 0x00000000   Number         0  boards.o ABSOLUTE
    ..\\..\\..\\..\\..\\..\\components\\libraries\\atomic\\nrf_atomic.c 0x00000000   Number         0  nrf_atomic.o ABSOLUTE
    ..\\..\\..\\..\\..\\..\\components\\libraries\\atomic_fifo\\nrf_atfifo.c 0x00000000   Number         0  nrf_atfifo.o ABSOLUTE
    ..\\..\\..\\..\\..\\..\\components\\libraries\\atomic_flags\\nrf_atflags.c 0x00000000   Number         0  nrf_atflags.o ABSOLUTE
    ..\\..\\..\\..\\..\\..\\components\\libraries\\balloc\\nrf_balloc.c 0x00000000   Number         0  nrf_balloc.o ABSOLUTE
    ..\\..\\..\\..\\..\\..\\components\\libraries\\bsp\\bsp.c 0x00000000   Number         0  bsp.o ABSOLUTE
    ..\\..\\..\\..\\..\\..\\components\\libraries\\bsp\\bsp_btn_ble.c 0x00000000   Number         0  bsp_btn_ble.o ABSOLUTE
    ..\\..\\..\\..\\..\\..\\components\\libraries\\button\\app_button.c 0x00000000   Number         0  app_button.o ABSOLUTE
    ..\\..\\..\\..\\..\\..\\components\\libraries\\crc16\\crc16.c 0x00000000   Number         0  crc16.o ABSOLUTE
    ..\\..\\..\\..\\..\\..\\components\\libraries\\experimental_section_vars\\nrf_section_iter.c 0x00000000   Number         0  nrf_section_iter.o ABSOLUTE
    ..\\..\\..\\..\\..\\..\\components\\libraries\\fds\\fds.c 0x00000000   Number         0  fds.o ABSOLUTE
    ..\\..\\..\\..\\..\\..\\components\\libraries\\fstorage\\nrf_fstorage.c 0x00000000   Number         0  nrf_fstorage.o ABSOLUTE
    ..\\..\\..\\..\\..\\..\\components\\libraries\\fstorage\\nrf_fstorage_sd.c 0x00000000   Number         0  nrf_fstorage_sd.o ABSOLUTE
    ..\\..\\..\\..\\..\\..\\components\\libraries\\hardfault\\hardfault_implementation.c 0x00000000   Number         0  hardfault_implementation.o ABSOLUTE
    ..\\..\\..\\..\\..\\..\\components\\libraries\\log\\src\\nrf_log_backend_rtt.c 0x00000000   Number         0  nrf_log_backend_rtt.o ABSOLUTE
    ..\\..\\..\\..\\..\\..\\components\\libraries\\log\\src\\nrf_log_backend_serial.c 0x00000000   Number         0  nrf_log_backend_serial.o ABSOLUTE
    ..\\..\\..\\..\\..\\..\\components\\libraries\\log\\src\\nrf_log_backend_uart.c 0x00000000   Number         0  nrf_log_backend_uart.o ABSOLUTE
    ..\\..\\..\\..\\..\\..\\components\\libraries\\log\\src\\nrf_log_default_backends.c 0x00000000   Number         0  nrf_log_default_backends.o ABSOLUTE
    ..\\..\\..\\..\\..\\..\\components\\libraries\\log\\src\\nrf_log_frontend.c 0x00000000   Number         0  nrf_log_frontend.o ABSOLUTE
    ..\\..\\..\\..\\..\\..\\components\\libraries\\log\\src\\nrf_log_str_formatter.c 0x00000000   Number         0  nrf_log_str_formatter.o ABSOLUTE
    ..\\..\\..\\..\\..\\..\\components\\libraries\\memobj\\nrf_memobj.c 0x00000000   Number         0  nrf_memobj.o ABSOLUTE
    ..\\..\\..\\..\\..\\..\\components\\libraries\\pwr_mgmt\\nrf_pwr_mgmt.c 0x00000000   Number         0  nrf_pwr_mgmt.o ABSOLUTE
    ..\\..\\..\\..\\..\\..\\components\\libraries\\ringbuf\\nrf_ringbuf.c 0x00000000   Number         0  nrf_ringbuf.o ABSOLUTE
    ..\\..\\..\\..\\..\\..\\components\\libraries\\scheduler\\app_scheduler.c 0x00000000   Number         0  app_scheduler.o ABSOLUTE
    ..\\..\\..\\..\\..\\..\\components\\libraries\\sortlist\\nrf_sortlist.c 0x00000000   Number         0  nrf_sortlist.o ABSOLUTE
    ..\\..\\..\\..\\..\\..\\components\\libraries\\strerror\\nrf_strerror.c 0x00000000   Number         0  nrf_strerror.o ABSOLUTE
    ..\\..\\..\\..\\..\\..\\components\\libraries\\timer\\app_timer2.c 0x00000000   Number         0  app_timer2.o ABSOLUTE
    ..\\..\\..\\..\\..\\..\\components\\libraries\\timer\\drv_rtc.c 0x00000000   Number         0  drv_rtc.o ABSOLUTE
    ..\\..\\..\\..\\..\\..\\components\\libraries\\util\\app_error.c 0x00000000   Number         0  app_error.o ABSOLUTE
    ..\\..\\..\\..\\..\\..\\components\\libraries\\util\\app_error_handler_keil.c 0x00000000   Number         0  app_error_handler_keil.o ABSOLUTE
    ..\\..\\..\\..\\..\\..\\components\\libraries\\util\\app_error_weak.c 0x00000000   Number         0  app_error_weak.o ABSOLUTE
    ..\\..\\..\\..\\..\\..\\components\\libraries\\util\\app_util_platform.c 0x00000000   Number         0  app_util_platform.o ABSOLUTE
    ..\\..\\..\\..\\..\\..\\components\\libraries\\util\\nrf_assert.c 0x00000000   Number         0  nrf_assert.o ABSOLUTE
    ..\\..\\..\\..\\..\\..\\components\\softdevice\\common\\nrf_sdh.c 0x00000000   Number         0  nrf_sdh.o ABSOLUTE
    ..\\..\\..\\..\\..\\..\\components\\softdevice\\common\\nrf_sdh_ble.c 0x00000000   Number         0  nrf_sdh_ble.o ABSOLUTE
    ..\\..\\..\\..\\..\\..\\components\\softdevice\\common\\nrf_sdh_soc.c 0x00000000   Number         0  nrf_sdh_soc.o ABSOLUTE
    ..\\..\\..\\..\\..\\..\\external\\fprintf\\nrf_fprintf.c 0x00000000   Number         0  nrf_fprintf.o ABSOLUTE
    ..\\..\\..\\..\\..\\..\\external\\fprintf\\nrf_fprintf_format.c 0x00000000   Number         0  nrf_fprintf_format.o ABSOLUTE
    ..\\..\\..\\..\\..\\..\\external\\segger_rtt\\SEGGER_RTT.c 0x00000000   Number         0  segger_rtt.o ABSOLUTE
    ..\\..\\..\\..\\..\\..\\external\\segger_rtt\\SEGGER_RTT_Syscalls_KEIL.c 0x00000000   Number         0  segger_rtt_syscalls_keil.o ABSOLUTE
    ..\\..\\..\\..\\..\\..\\external\\segger_rtt\\SEGGER_RTT_printf.c 0x00000000   Number         0  segger_rtt_printf.o ABSOLUTE
    ..\\..\\..\\..\\..\\..\\integration\\nrfx\\legacy\\nrf_drv_clock.c 0x00000000   Number         0  nrf_drv_clock.o ABSOLUTE
    ..\\..\\..\\..\\..\\..\\integration\\nrfx\\legacy\\nrf_drv_uart.c 0x00000000   Number         0  nrf_drv_uart.o ABSOLUTE
    ..\\..\\..\\..\\..\\..\\modules\\nrfx\\drivers\\src\\nrfx_clock.c 0x00000000   Number         0  nrfx_clock.o ABSOLUTE
    ..\\..\\..\\..\\..\\..\\modules\\nrfx\\drivers\\src\\nrfx_gpiote.c 0x00000000   Number         0  nrfx_gpiote.o ABSOLUTE
    ..\\..\\..\\..\\..\\..\\modules\\nrfx\\drivers\\src\\nrfx_uart.c 0x00000000   Number         0  nrfx_uart.o ABSOLUTE
    ..\\..\\..\\..\\..\\..\\modules\\nrfx\\drivers\\src\\nrfx_uarte.c 0x00000000   Number         0  nrfx_uarte.o ABSOLUTE
    ..\\..\\..\\..\\..\\..\\modules\\nrfx\\drivers\\src\\prs\\nrfx_prs.c 0x00000000   Number         0  nrfx_prs.o ABSOLUTE
    ..\\..\\..\\..\\..\\..\\modules\\nrfx\\soc\\nrfx_atomic.c 0x00000000   Number         0  nrfx_atomic.o ABSOLUTE
    ..\\..\\..\\main.c                       0x00000000   Number         0  main.o ABSOLUTE
    RTE\Device\nRF52810_xxAA\arm_startup_nrf52810.s 0x00000000   Number         0  arm_startup_nrf52810.o ABSOLUTE
    RTE\Device\nRF52810_xxAA\system_nrf52810.c 0x00000000   Number         0  system_nrf52810.o ABSOLUTE
    RTE\\Device\\nRF52810_xxAA\\system_nrf52810.c 0x00000000   Number         0  system_nrf52810.o ABSOLUTE
    dc.s                                     0x00000000   Number         0  dc.o ABSOLUTE
    handlers.s                               0x00000000   Number         0  handlers.o ABSOLUTE
    init.s                                   0x00000000   Number         0  init.o ABSOLUTE
    RESET                                    0x00019000   Section      512  arm_startup_nrf52810.o(RESET)
    .ARM.Collect$$$$00000000                 0x00019200   Section        0  entry.o(.ARM.Collect$$$$00000000)
    .ARM.Collect$$$$00000001                 0x00019200   Section        4  entry2.o(.ARM.Collect$$$$00000001)
    .ARM.Collect$$$$00000004                 0x00019204   Section        4  entry5.o(.ARM.Collect$$$$00000004)
    .ARM.Collect$$$$00000008                 0x00019208   Section        0  entry7b.o(.ARM.Collect$$$$00000008)
    .ARM.Collect$$$$0000000A                 0x00019208   Section        0  entry8b.o(.ARM.Collect$$$$0000000A)
    .ARM.Collect$$$$0000000B                 0x00019208   Section        8  entry9a.o(.ARM.Collect$$$$0000000B)
    .ARM.Collect$$$$0000000D                 0x00019210   Section        0  entry10a.o(.ARM.Collect$$$$0000000D)
    .ARM.Collect$$$$0000000F                 0x00019210   Section        0  entry11a.o(.ARM.Collect$$$$0000000F)
    .ARM.Collect$$$$00002712                 0x00019210   Section        4  entry2.o(.ARM.Collect$$$$00002712)
    __lit__00000000                          0x00019210   Data           4  entry2.o(.ARM.Collect$$$$00002712)
    .emb_text                                0x00019214   Section      200  nrf_atfifo.o(.emb_text)
    .emb_text                                0x000192dc   Section      226  nrf_atomic.o(.emb_text)
    .text                                    0x000193c0   Section       84  arm_startup_nrf52810.o(.text)
    .text                                    0x00019414   Section        0  uldiv.o(.text)
    .text                                    0x00019476   Section        0  llshl.o(.text)
    .text                                    0x00019494   Section        0  ctype_o.o(.text)
    .text                                    0x0001949c   Section        0  memcpya.o(.text)
    .text                                    0x000194c0   Section        0  memseta.o(.text)
    .text                                    0x000194e4   Section        0  strlen.o(.text)
    .text                                    0x000194f2   Section        0  memcmp.o(.text)
    .text                                    0x0001950c   Section        0  strcpy.o(.text)
    .text                                    0x0001951e   Section        0  llushr.o(.text)
    .text                                    0x00019540   Section       36  init.o(.text)
    .text                                    0x00019564   Section        0  __dczerorl2.o(.text)
    i.GPIOTE_IRQHandler                      0x000195bc   Section        0  nrfx_gpiote.o(i.GPIOTE_IRQHandler)
    i.POWER_CLOCK_IRQHandler                 0x00019660   Section        0  nrfx_clock.o(i.POWER_CLOCK_IRQHandler)
    i.RTC1_IRQHandler                        0x000196b8   Section        0  drv_rtc.o(i.RTC1_IRQHandler)
    i.SEGGER_RTT_Init                        0x000196c8   Section        0  segger_rtt.o(i.SEGGER_RTT_Init)
    i.SEGGER_RTT_WriteNoLock                 0x000196cc   Section        0  segger_rtt.o(i.SEGGER_RTT_WriteNoLock)
    i.SWI2_IRQHandler                        0x00019728   Section        0  nrf_sdh.o(i.SWI2_IRQHandler)
    i.SystemInit                             0x0001972c   Section        0  system_nrf52810.o(i.SystemInit)
    i.UARTE0_UART0_IRQHandler                0x00019a84   Section        0  nrfx_prs.o(i.UARTE0_UART0_IRQHandler)
    i._DoInit                                0x00019a90   Section        0  segger_rtt.o(i._DoInit)
    _DoInit                                  0x00019a91   Thumb Code    76  segger_rtt.o(i._DoInit)
    i._GetAvailWriteSpace                    0x00019af8   Section        0  segger_rtt.o(i._GetAvailWriteSpace)
    _GetAvailWriteSpace                      0x00019af9   Thumb Code    22  segger_rtt.o(i._GetAvailWriteSpace)
    i._WriteBlocking                         0x00019b0e   Section        0  segger_rtt.o(i._WriteBlocking)
    _WriteBlocking                           0x00019b0f   Thumb Code    90  segger_rtt.o(i._WriteBlocking)
    i._WriteNoCheck                          0x00019b68   Section        0  segger_rtt.o(i._WriteNoCheck)
    _WriteNoCheck                            0x00019b69   Thumb Code    66  segger_rtt.o(i._WriteNoCheck)
    i.__NVIC_SystemReset                     0x00019bac   Section        0  system_nrf52810.o(i.__NVIC_SystemReset)
    __NVIC_SystemReset                       0x00019bad   Thumb Code    26  system_nrf52810.o(i.__NVIC_SystemReset)
    i.__scatterload_copy                     0x00019bd0   Section       14  handlers.o(i.__scatterload_copy)
    i.__scatterload_null                     0x00019bde   Section        2  handlers.o(i.__scatterload_null)
    i.__scatterload_zeroinit                 0x00019be0   Section       14  handlers.o(i.__scatterload_zeroinit)
    i.__sd_nvic_app_accessible_irq           0x00019bf0   Section        0  nrf_sdh.o(i.__sd_nvic_app_accessible_irq)
    __sd_nvic_app_accessible_irq             0x00019bf1   Thumb Code    32  nrf_sdh.o(i.__sd_nvic_app_accessible_irq)
    i._conn_secure                           0x00019c14   Section        0  peer_manager_handler.o(i._conn_secure)
    _conn_secure                             0x00019c15   Thumb Code   178  peer_manager_handler.o(i._conn_secure)
    i.addr_compare                           0x00019d50   Section        0  id_manager.o(i.addr_compare)
    i.addr_is_aligned32                      0x00019d76   Section        0  nrf_fstorage.o(i.addr_is_aligned32)
    addr_is_aligned32                        0x00019d77   Thumb Code    12  nrf_fstorage.o(i.addr_is_aligned32)
    i.addr_is_within_bounds                  0x00019d82   Section        0  nrf_fstorage.o(i.addr_is_within_bounds)
    addr_is_within_bounds                    0x00019d83   Thumb Code    24  nrf_fstorage.o(i.addr_is_within_bounds)
    i.adv_set_data_size_max_get              0x00019d9a   Section        0  ble_advertising.o(i.adv_set_data_size_max_get)
    adv_set_data_size_max_get                0x00019d9b   Thumb Code     8  ble_advertising.o(i.adv_set_data_size_max_get)
    i.advertising_buttons_configure          0x00019da2   Section        0  bsp_btn_ble.o(i.advertising_buttons_configure)
    advertising_buttons_configure            0x00019da3   Thumb Code    54  bsp_btn_ble.o(i.advertising_buttons_configure)
    i.advertising_start                      0x00019dd8   Section        0  main.o(i.advertising_start)
    advertising_start                        0x00019dd9   Thumb Code    52  main.o(i.advertising_start)
    i.ah                                     0x00019e28   Section        0  id_manager.o(i.ah)
    i.alert_timer_handler                    0x00019e7a   Section        0  bsp.o(i.alert_timer_handler)
    alert_timer_handler                      0x00019e7b   Thumb Code     6  bsp.o(i.alert_timer_handler)
    i.allow_repairing                        0x00019e80   Section        0  security_dispatcher.o(i.allow_repairing)
    allow_repairing                          0x00019e81   Thumb Code     8  security_dispatcher.o(i.allow_repairing)
    i.app_button_enable                      0x00019e8c   Section        0  app_button.o(i.app_button_enable)
    i.app_button_init                        0x00019eb0   Section        0  app_button.o(i.app_button_init)
    i.app_error_fault_handler                0x00019f30   Section        0  app_error_weak.o(i.app_error_fault_handler)
    i.app_error_handler_bare                 0x00019fb4   Section        0  app_error.o(i.app_error_handler_bare)
    i.app_timer_cnt_get                      0x00019fcc   Section        0  app_timer2.o(i.app_timer_cnt_get)
    i.app_timer_create                       0x00019fd8   Section        0  app_timer2.o(i.app_timer_create)
    i.app_timer_init                         0x00019ff0   Section        0  app_timer2.o(i.app_timer_init)
    i.app_timer_start                        0x0001a04c   Section        0  app_timer2.o(i.app_timer_start)
    i.app_timer_stop                         0x0001a07c   Section        0  app_timer2.o(i.app_timer_stop)
    i.app_util_critical_region_enter         0x0001a088   Section        0  app_util_platform.o(i.app_util_critical_region_enter)
    i.app_util_critical_region_exit          0x0001a0d0   Section        0  app_util_platform.o(i.app_util_critical_region_exit)
    i.apply_config                           0x0001a104   Section        0  nrfx_uart.o(i.apply_config)
    apply_config                             0x0001a105   Thumb Code   136  nrfx_uart.o(i.apply_config)
    i.apply_config                           0x0001a18c   Section        0  nrfx_uarte.o(i.apply_config)
    apply_config                             0x0001a18d   Thumb Code   136  nrfx_uarte.o(i.apply_config)
    i.apply_pending_handle                   0x0001a214   Section        0  gatt_cache_manager.o(i.apply_pending_handle)
    apply_pending_handle                     0x0001a215   Thumb Code     4  gatt_cache_manager.o(i.apply_pending_handle)
    i.auth_status_success_process            0x0001a218   Section        0  security_dispatcher.o(i.auth_status_success_process)
    auth_status_success_process              0x0001a219   Thumb Code   306  security_dispatcher.o(i.auth_status_success_process)
    i.ble_advdata_encode                     0x0001a398   Section        0  ble_advdata.o(i.ble_advdata_encode)
    i.ble_advdata_parse                      0x0001a51a   Section        0  ble_advdata.o(i.ble_advdata_parse)
    i.ble_advdata_search                     0x0001a53a   Section        0  ble_advdata.o(i.ble_advdata_search)
    i.ble_advertising_conn_cfg_tag_set       0x0001a580   Section        0  ble_advertising.o(i.ble_advertising_conn_cfg_tag_set)
    i.ble_advertising_init                   0x0001a586   Section        0  ble_advertising.o(i.ble_advertising_init)
    i.ble_advertising_on_ble_evt             0x0001a67e   Section        0  ble_advertising.o(i.ble_advertising_on_ble_evt)
    i.ble_advertising_restart_without_whitelist 0x0001a6e8   Section        0  ble_advertising.o(i.ble_advertising_restart_without_whitelist)
    i.ble_advertising_start                  0x0001a722   Section        0  ble_advertising.o(i.ble_advertising_start)
    i.ble_conn_params_init                   0x0001a924   Section        0  ble_conn_params.o(i.ble_conn_params_init)
    i.ble_conn_state_encrypted               0x0001a98c   Section        0  ble_conn_state.o(i.ble_conn_state_encrypted)
    i.ble_conn_state_for_each_set_user_flag  0x0001a9ac   Section        0  ble_conn_state.o(i.ble_conn_state_for_each_set_user_flag)
    i.ble_conn_state_lesc                    0x0001a9d8   Section        0  ble_conn_state.o(i.ble_conn_state_lesc)
    i.ble_conn_state_mitm_protected          0x0001a9f8   Section        0  ble_conn_state.o(i.ble_conn_state_mitm_protected)
    i.ble_conn_state_role                    0x0001aa18   Section        0  ble_conn_state.o(i.ble_conn_state_role)
    i.ble_conn_state_status                  0x0001aa28   Section        0  ble_conn_state.o(i.ble_conn_state_status)
    i.ble_conn_state_user_flag_acquire       0x0001aa4c   Section        0  ble_conn_state.o(i.ble_conn_state_user_flag_acquire)
    i.ble_conn_state_user_flag_get           0x0001aa64   Section        0  ble_conn_state.o(i.ble_conn_state_user_flag_get)
    i.ble_conn_state_user_flag_set           0x0001aa94   Section        0  ble_conn_state.o(i.ble_conn_state_user_flag_set)
    i.ble_conn_state_valid                   0x0001aacc   Section        0  ble_conn_state.o(i.ble_conn_state_valid)
    i.ble_device_addr_encode                 0x0001aae0   Section        0  ble_advdata.o(i.ble_device_addr_encode)
    ble_device_addr_encode                   0x0001aae1   Thumb Code    96  ble_advdata.o(i.ble_device_addr_encode)
    i.ble_evt_handler                        0x0001ab40   Section        0  main.o(i.ble_evt_handler)
    ble_evt_handler                          0x0001ab41   Thumb Code   136  main.o(i.ble_evt_handler)
    i.ble_evt_handler                        0x0001abf4   Section        0  bsp_btn_ble.o(i.ble_evt_handler)
    ble_evt_handler                          0x0001abf5   Thumb Code   106  bsp_btn_ble.o(i.ble_evt_handler)
    i.ble_evt_handler                        0x0001ac64   Section        0  ble_conn_params.o(i.ble_evt_handler)
    ble_evt_handler                          0x0001ac65   Thumb Code   242  ble_conn_params.o(i.ble_evt_handler)
    i.ble_evt_handler                        0x0001ad60   Section        0  ble_conn_state.o(i.ble_evt_handler)
    ble_evt_handler                          0x0001ad61   Thumb Code   258  ble_conn_state.o(i.ble_evt_handler)
    i.ble_evt_handler                        0x0001ae68   Section        0  peer_manager.o(i.ble_evt_handler)
    ble_evt_handler                          0x0001ae69   Thumb Code    36  peer_manager.o(i.ble_evt_handler)
    i.ble_srv_is_notification_enabled        0x0001ae90   Section        0  ble_srv_common.o(i.ble_srv_is_notification_enabled)
    i.bsp_board_button_idx_to_pin            0x0001ae98   Section        0  boards.o(i.bsp_board_button_idx_to_pin)
    i.bsp_board_button_state_get             0x0001aea4   Section        0  boards.o(i.bsp_board_button_state_get)
    i.bsp_board_init                         0x0001aec4   Section        0  boards.o(i.bsp_board_init)
    i.bsp_board_led_invert                   0x0001af18   Section        0  boards.o(i.bsp_board_led_invert)
    i.bsp_board_led_off                      0x0001af3c   Section        0  boards.o(i.bsp_board_led_off)
    i.bsp_board_led_on                       0x0001af4c   Section        0  boards.o(i.bsp_board_led_on)
    i.bsp_board_led_state_get                0x0001af5c   Section        0  boards.o(i.bsp_board_led_state_get)
    i.bsp_board_leds_off                     0x0001af7c   Section        0  boards.o(i.bsp_board_leds_off)
    i.bsp_board_leds_on                      0x0001af8e   Section        0  boards.o(i.bsp_board_leds_on)
    i.bsp_board_pin_to_button_idx            0x0001afa0   Section        0  boards.o(i.bsp_board_pin_to_button_idx)
    i.bsp_btn_ble_init                       0x0001afc4   Section        0  bsp_btn_ble.o(i.bsp_btn_ble_init)
    i.bsp_btn_ble_sleep_mode_prepare         0x0001affc   Section        0  bsp_btn_ble.o(i.bsp_btn_ble_sleep_mode_prepare)
    i.bsp_button_event_handler               0x0001b01c   Section        0  bsp.o(i.bsp_button_event_handler)
    bsp_button_event_handler                 0x0001b01d   Thumb Code   132  bsp.o(i.bsp_button_event_handler)
    i.bsp_button_is_pressed                  0x0001b0ac   Section        0  bsp.o(i.bsp_button_is_pressed)
    i.bsp_event_handler                      0x0001b0b8   Section        0  main.o(i.bsp_event_handler)
    bsp_event_handler                        0x0001b0b9   Thumb Code    66  main.o(i.bsp_event_handler)
    i.bsp_event_to_button_action_assign      0x0001b104   Section        0  bsp.o(i.bsp_event_to_button_action_assign)
    i.bsp_indication_set                     0x0001b148   Section        0  bsp.o(i.bsp_indication_set)
    i.bsp_init                               0x0001b160   Section        0  bsp.o(i.bsp_init)
    i.bsp_led_indication                     0x0001b1f4   Section        0  bsp.o(i.bsp_led_indication)
    bsp_led_indication                       0x0001b1f5   Thumb Code   446  bsp.o(i.bsp_led_indication)
    i.bsp_wakeup_button_enable               0x0001b3bc   Section        0  bsp.o(i.bsp_wakeup_button_enable)
    i.buf_prealloc                           0x0001b3c4   Section        0  nrf_log_frontend.o(i.buf_prealloc)
    buf_prealloc                             0x0001b3c5   Thumb Code   140  nrf_log_frontend.o(i.buf_prealloc)
    i.buffer_add                             0x0001b458   Section        0  nrf_fprintf_format.o(i.buffer_add)
    buffer_add                               0x0001b459   Thumb Code    46  nrf_fprintf_format.o(i.buffer_add)
    i.buffer_is_empty                        0x0001b488   Section        0  nrf_log_frontend.o(i.buffer_is_empty)
    i.button_get                             0x0001b4a0   Section        0  app_button.o(i.button_get)
    button_get                               0x0001b4a1   Thumb Code    36  app_button.o(i.button_get)
    i.button_timer_handler                   0x0001b4c8   Section        0  bsp.o(i.button_timer_handler)
    button_timer_handler                     0x0001b4c9   Thumb Code     8  bsp.o(i.button_timer_handler)
    i.car_update_needed                      0x0001b4d0   Section        0  gatt_cache_manager.o(i.car_update_needed)
    car_update_needed                        0x0001b4d1   Thumb Code    36  gatt_cache_manager.o(i.car_update_needed)
    i.car_update_pending_handle              0x0001b4f8   Section        0  gatt_cache_manager.o(i.car_update_pending_handle)
    car_update_pending_handle                0x0001b4f9   Thumb Code    54  gatt_cache_manager.o(i.car_update_pending_handle)
    i.channel_free                           0x0001b538   Section        0  nrfx_gpiote.o(i.channel_free)
    channel_free                             0x0001b539   Thumb Code    22  nrfx_gpiote.o(i.channel_free)
    i.channel_port_alloc                     0x0001b554   Section        0  nrfx_gpiote.o(i.channel_port_alloc)
    channel_port_alloc                       0x0001b555   Thumb Code    66  nrfx_gpiote.o(i.channel_port_alloc)
    i.channel_port_get                       0x0001b59c   Section        0  nrfx_gpiote.o(i.channel_port_get)
    channel_port_get                         0x0001b59d   Thumb Code    10  nrfx_gpiote.o(i.channel_port_get)
    i.claim                                  0x0001b5ac   Section        0  peer_id.o(i.claim)
    claim                                    0x0001b5ad   Thumb Code    62  peer_id.o(i.claim)
    i.clock_clk_started_notify               0x0001b5ec   Section        0  nrf_drv_clock.o(i.clock_clk_started_notify)
    clock_clk_started_notify                 0x0001b5ed   Thumb Code    34  nrf_drv_clock.o(i.clock_clk_started_notify)
    i.clock_irq_handler                      0x0001b614   Section        0  nrf_drv_clock.o(i.clock_irq_handler)
    clock_irq_handler                        0x0001b615   Thumb Code    24  nrf_drv_clock.o(i.clock_irq_handler)
    i.compare_func                           0x0001b630   Section        0  app_timer2.o(i.compare_func)
    compare_func                             0x0001b631   Thumb Code    24  app_timer2.o(i.compare_func)
    i.conn_handle_list_get                   0x0001b648   Section        0  ble_conn_state.o(i.conn_handle_list_get)
    i.conn_int_encode                        0x0001b686   Section        0  ble_advdata.o(i.conn_int_encode)
    conn_int_encode                          0x0001b687   Thumb Code   136  ble_advdata.o(i.conn_int_encode)
    i.conn_params_error_handler              0x0001b70e   Section        0  main.o(i.conn_params_error_handler)
    conn_params_error_handler                0x0001b70f   Thumb Code     4  main.o(i.conn_params_error_handler)
    i.conn_params_negotiation                0x0001b714   Section        0  ble_conn_params.o(i.conn_params_negotiation)
    conn_params_negotiation                  0x0001b715   Thumb Code    68  ble_conn_params.o(i.conn_params_negotiation)
    i.conn_sec_failure                       0x0001b75c   Section        0  security_dispatcher.o(i.conn_sec_failure)
    conn_sec_failure                         0x0001b75d   Thumb Code    60  security_dispatcher.o(i.conn_sec_failure)
    i.conn_secure                            0x0001b7a0   Section        0  peer_manager_handler.o(i.conn_secure)
    conn_secure                              0x0001b7a1   Thumb Code     4  peer_manager_handler.o(i.conn_secure)
    i.db_update_pending_handle               0x0001b7a4   Section        0  gatt_cache_manager.o(i.db_update_pending_handle)
    db_update_pending_handle                 0x0001b7a5   Thumb Code    42  gatt_cache_manager.o(i.db_update_pending_handle)
    i.delete_execute                         0x0001b7d4   Section        0  fds.o(i.delete_execute)
    delete_execute                           0x0001b7d5   Thumb Code   134  fds.o(i.delete_execute)
    i.detection_delay_timeout_handler        0x0001b860   Section        0  app_button.o(i.detection_delay_timeout_handler)
    detection_delay_timeout_handler          0x0001b861   Thumb Code    66  app_button.o(i.detection_delay_timeout_handler)
    i.dropped_sat16_get                      0x0001b8a8   Section        0  nrf_log_frontend.o(i.dropped_sat16_get)
    dropped_sat16_get                        0x0001b8a9   Thumb Code    16  nrf_log_frontend.o(i.dropped_sat16_get)
    i.drv_rtc_compare_disable                0x0001b8bc   Section        0  drv_rtc.o(i.drv_rtc_compare_disable)
    i.drv_rtc_compare_pending                0x0001b8d0   Section        0  drv_rtc.o(i.drv_rtc_compare_pending)
    i.drv_rtc_compare_set                    0x0001b8de   Section        0  drv_rtc.o(i.drv_rtc_compare_set)
    i.drv_rtc_counter_get                    0x0001b92e   Section        0  drv_rtc.o(i.drv_rtc_counter_get)
    i.drv_rtc_init                           0x0001b938   Section        0  drv_rtc.o(i.drv_rtc_init)
    i.drv_rtc_irq_trigger                    0x0001ba10   Section        0  drv_rtc.o(i.drv_rtc_irq_trigger)
    i.drv_rtc_overflow_enable                0x0001ba2e   Section        0  drv_rtc.o(i.drv_rtc_overflow_enable)
    i.drv_rtc_overflow_pending               0x0001ba36   Section        0  drv_rtc.o(i.drv_rtc_overflow_pending)
    i.drv_rtc_start                          0x0001ba3e   Section        0  drv_rtc.o(i.drv_rtc_start)
    i.drv_rtc_stop                           0x0001ba46   Section        0  drv_rtc.o(i.drv_rtc_stop)
    i.drv_rtc_windowed_compare_set           0x0001ba4e   Section        0  drv_rtc.o(i.drv_rtc_windowed_compare_set)
    i.encryption_failure                     0x0001bb2c   Section        0  security_dispatcher.o(i.encryption_failure)
    encryption_failure                       0x0001bb2d   Thumb Code    10  security_dispatcher.o(i.encryption_failure)
    i.erase                                  0x0001bb38   Section        0  nrf_fstorage_sd.o(i.erase)
    erase                                    0x0001bb39   Thumb Code    72  nrf_fstorage_sd.o(i.erase)
    i.event_prepare                          0x0001bb84   Section        0  fds.o(i.event_prepare)
    event_prepare                            0x0001bb85   Thumb Code   116  fds.o(i.event_prepare)
    i.event_send                             0x0001bbf8   Section        0  fds.o(i.event_send)
    event_send                               0x0001bbf9   Thumb Code    26  fds.o(i.event_send)
    i.event_send                             0x0001bc18   Section        0  nrf_fstorage_sd.o(i.event_send)
    event_send                               0x0001bc19   Thumb Code    84  nrf_fstorage_sd.o(i.event_send)
    i.events_send_from_err_code              0x0001bc6c   Section        0  security_manager.o(i.events_send_from_err_code)
    events_send_from_err_code                0x0001bc6d   Thumb Code   134  security_manager.o(i.events_send_from_err_code)
    i.evt_enable                             0x0001bd04   Section        0  drv_rtc.o(i.evt_enable)
    evt_enable                               0x0001bd05   Thumb Code    18  drv_rtc.o(i.evt_enable)
    i.evt_handle                             0x0001bd18   Section        0  app_button.o(i.evt_handle)
    i.evt_pending                            0x0001bdf8   Section        0  drv_rtc.o(i.evt_pending)
    evt_pending                              0x0001bdf9   Thumb Code    20  drv_rtc.o(i.evt_pending)
    i.evt_send                               0x0001be0c   Section        0  gatt_cache_manager.o(i.evt_send)
    evt_send                                 0x0001be0d   Thumb Code    24  gatt_cache_manager.o(i.evt_send)
    i.evt_send                               0x0001be28   Section        0  gatts_cache_manager.o(i.evt_send)
    evt_send                                 0x0001be29   Thumb Code    24  gatts_cache_manager.o(i.evt_send)
    i.evt_send                               0x0001be44   Section        0  peer_manager.o(i.evt_send)
    evt_send                                 0x0001be45   Thumb Code    36  peer_manager.o(i.evt_send)
    i.evt_send                               0x0001be70   Section        0  security_dispatcher.o(i.evt_send)
    evt_send                                 0x0001be71   Thumb Code    24  security_dispatcher.o(i.evt_send)
    i.evt_send                               0x0001be8c   Section        0  security_manager.o(i.evt_send)
    evt_send                                 0x0001be8d   Thumb Code     6  security_manager.o(i.evt_send)
    i.fds_evt_handler                        0x0001be98   Section        0  peer_data_storage.o(i.fds_evt_handler)
    fds_evt_handler                          0x0001be99   Thumb Code   218  peer_data_storage.o(i.fds_evt_handler)
    i.fds_file_delete                        0x0001bf78   Section        0  fds.o(i.fds_file_delete)
    i.fds_gc                                 0x0001bfc0   Section        0  fds.o(i.fds_gc)
    i.fds_init                               0x0001c000   Section        0  fds.o(i.fds_init)
    i.fds_record_close                       0x0001c0e4   Section        0  fds.o(i.fds_record_close)
    i.fds_record_find                        0x0001c12c   Section        0  fds.o(i.fds_record_find)
    i.fds_record_find_by_key                 0x0001c13a   Section        0  fds.o(i.fds_record_find_by_key)
    i.fds_record_find_in_file                0x0001c14a   Section        0  fds.o(i.fds_record_find_in_file)
    i.fds_record_id_from_desc                0x0001c15a   Section        0  fds.o(i.fds_record_id_from_desc)
    i.fds_record_open                        0x0001c16c   Section        0  fds.o(i.fds_record_open)
    i.fds_record_update                      0x0001c1b8   Section        0  fds.o(i.fds_record_update)
    i.fds_record_write                       0x0001c1c8   Section        0  fds.o(i.fds_record_write)
    i.fds_register                           0x0001c1d0   Section        0  fds.o(i.fds_register)
    i.fds_stat                               0x0001c200   Section        0  fds.o(i.fds_stat)
    i.file_id_within_pm_range                0x0001c2a0   Section        0  peer_data_storage.o(i.file_id_within_pm_range)
    file_id_within_pm_range                  0x0001c2a1   Thumb Code    20  peer_data_storage.o(i.file_id_within_pm_range)
    i.flag_id_init                           0x0001c2b4   Section        0  security_dispatcher.o(i.flag_id_init)
    flag_id_init                             0x0001c2b5   Thumb Code    18  security_dispatcher.o(i.flag_id_init)
    i.flag_id_init                           0x0001c2c6   Section        0  security_manager.o(i.flag_id_init)
    flag_id_init                             0x0001c2c7   Thumb Code    18  security_manager.o(i.flag_id_init)
    i.flag_toggle                            0x0001c2d8   Section        0  ble_conn_state.o(i.flag_toggle)
    flag_toggle                              0x0001c2d9   Thumb Code    10  ble_conn_state.o(i.flag_toggle)
    i.flags_set                              0x0001c2e2   Section        0  ble_advertising.o(i.flags_set)
    flags_set                                0x0001c2e3   Thumb Code    40  ble_advertising.o(i.flags_set)
    i.flags_set_from_err_code                0x0001c30c   Section        0  security_manager.o(i.flags_set_from_err_code)
    flags_set_from_err_code                  0x0001c30d   Thumb Code    42  security_manager.o(i.flags_set_from_err_code)
    i.for_each_set_flag                      0x0001c33c   Section        0  ble_conn_state.o(i.for_each_set_flag)
    for_each_set_flag                        0x0001c33d   Thumb Code    48  ble_conn_state.o(i.for_each_set_flag)
    i.fs_event_handler                       0x0001c36c   Section        0  fds.o(i.fs_event_handler)
    fs_event_handler                         0x0001c36d   Thumb Code     6  fds.o(i.fs_event_handler)
    i.gc_execute                             0x0001c374   Section        0  fds.o(i.gc_execute)
    gc_execute                               0x0001c375   Thumb Code   124  fds.o(i.gc_execute)
    i.gc_next_page                           0x0001c3f4   Section        0  fds.o(i.gc_next_page)
    gc_next_page                             0x0001c3f5   Thumb Code    70  fds.o(i.gc_next_page)
    i.gc_page_erase                          0x0001c440   Section        0  fds.o(i.gc_page_erase)
    gc_page_erase                            0x0001c441   Thumb Code    50  fds.o(i.gc_page_erase)
    i.gc_record_copy                         0x0001c480   Section        0  fds.o(i.gc_record_copy)
    gc_record_copy                           0x0001c481   Thumb Code    40  fds.o(i.gc_record_copy)
    i.gc_record_find_next                    0x0001c4b4   Section        0  fds.o(i.gc_record_find_next)
    gc_record_find_next                      0x0001c4b5   Thumb Code    30  fds.o(i.gc_record_find_next)
    i.gc_state_advance                       0x0001c4d8   Section        0  fds.o(i.gc_state_advance)
    gc_state_advance                         0x0001c4d9   Thumb Code   104  fds.o(i.gc_state_advance)
    i.gc_swap_pages                          0x0001c548   Section        0  fds.o(i.gc_swap_pages)
    gc_swap_pages                            0x0001c549   Thumb Code    40  fds.o(i.gc_swap_pages)
    i.gcm_ble_evt_handler                    0x0001c578   Section        0  gatt_cache_manager.o(i.gcm_ble_evt_handler)
    i.gcm_im_evt_handler                     0x0001c7a8   Section        0  gatt_cache_manager.o(i.gcm_im_evt_handler)
    i.gcm_init                               0x0001c7e4   Section        0  gatt_cache_manager.o(i.gcm_init)
    i.gcm_pdb_evt_handler                    0x0001c878   Section        0  gatt_cache_manager.o(i.gcm_pdb_evt_handler)
    i.get_now                                0x0001c900   Section        0  app_timer2.o(i.get_now)
    get_now                                  0x0001c901   Thumb Code    46  app_timer2.o(i.get_now)
    i.gpiote_event_handler                   0x0001c934   Section        0  app_button.o(i.gpiote_event_handler)
    gpiote_event_handler                     0x0001c935   Thumb Code    56  app_button.o(i.gpiote_event_handler)
    i.gscm_db_change_notification_done       0x0001c970   Section        0  gatts_cache_manager.o(i.gscm_db_change_notification_done)
    i.gscm_init                              0x0001c98c   Section        0  gatts_cache_manager.o(i.gscm_init)
    i.gscm_local_db_cache_apply              0x0001c9a0   Section        0  gatts_cache_manager.o(i.gscm_local_db_cache_apply)
    i.gscm_local_db_cache_update             0x0001ca30   Section        0  gatts_cache_manager.o(i.gscm_local_db_cache_update)
    i.gscm_pdb_evt_handler                   0x0001cadc   Section        0  gatts_cache_manager.o(i.gscm_pdb_evt_handler)
    i.gscm_service_changed_ind_needed        0x0001caf4   Section        0  gatts_cache_manager.o(i.gscm_service_changed_ind_needed)
    i.gscm_service_changed_ind_send          0x0001cb14   Section        0  gatts_cache_manager.o(i.gscm_service_changed_ind_send)
    i.header_check                           0x0001cb70   Section        0  fds.o(i.header_check)
    header_check                             0x0001cb71   Thumb Code    44  fds.o(i.header_check)
    i.header_has_next                        0x0001cb9c   Section        0  fds.o(i.header_has_next)
    header_has_next                          0x0001cb9d   Thumb Code    18  fds.o(i.header_has_next)
    i.im_address_resolve                     0x0001cbae   Section        0  id_manager.o(i.im_address_resolve)
    i.im_ble_addr_get                        0x0001cbf4   Section        0  id_manager.o(i.im_ble_addr_get)
    i.im_ble_evt_handler                     0x0001cc2c   Section        0  id_manager.o(i.im_ble_evt_handler)
    i.im_conn_handle_get                     0x0001cd08   Section        0  id_manager.o(i.im_conn_handle_get)
    i.im_find_duplicate_bonding_data         0x0001cd48   Section        0  id_manager.o(i.im_find_duplicate_bonding_data)
    i.im_is_duplicate_bonding_data           0x0001cd80   Section        0  id_manager.o(i.im_is_duplicate_bonding_data)
    i.im_master_id_is_valid                  0x0001cdf2   Section        0  id_manager.o(i.im_master_id_is_valid)
    i.im_master_ids_compare                  0x0001ce0a   Section        0  id_manager.o(i.im_master_ids_compare)
    i.im_new_peer_id                         0x0001ce34   Section        0  id_manager.o(i.im_new_peer_id)
    i.im_peer_free                           0x0001ce48   Section        0  id_manager.o(i.im_peer_free)
    i.im_peer_id_get_by_conn_handle          0x0001ce74   Section        0  id_manager.o(i.im_peer_id_get_by_conn_handle)
    i.im_peer_id_get_by_master_id            0x0001ce98   Section        0  id_manager.o(i.im_peer_id_get_by_master_id)
    i.init                                   0x0001ced4   Section        0  nrf_fstorage_sd.o(i.init)
    init                                     0x0001ced5   Thumb Code    42  nrf_fstorage_sd.o(i.init)
    i.init_execute                           0x0001cf08   Section        0  fds.o(i.init_execute)
    init_execute                             0x0001cf09   Thumb Code   188  fds.o(i.init_execute)
    i.instance_get                           0x0001cfd0   Section        0  ble_conn_params.o(i.instance_get)
    instance_get                             0x0001cfd1   Thumb Code    14  ble_conn_params.o(i.instance_get)
    i.int_print                              0x0001cfe4   Section        0  nrf_fprintf_format.o(i.int_print)
    int_print                                0x0001cfe5   Thumb Code   166  nrf_fprintf_format.o(i.int_print)
    i.interrupts_enable                      0x0001d08c   Section        0  nrfx_uarte.o(i.interrupts_enable)
    interrupts_enable                        0x0001d08d   Thumb Code   132  nrfx_uarte.o(i.interrupts_enable)
    i.invalid_packets_omit                   0x0001d114   Section        0  nrf_log_frontend.o(i.invalid_packets_omit)
    invalid_packets_omit                     0x0001d115   Thumb Code    52  nrf_log_frontend.o(i.invalid_packets_omit)
    i.is_busy                                0x0001d148   Section        0  nrf_fstorage_sd.o(i.is_busy)
    is_busy                                  0x0001d149   Thumb Code    12  nrf_fstorage_sd.o(i.is_busy)
    i.is_conn_params_ok                      0x0001d158   Section        0  ble_conn_params.o(i.is_conn_params_ok)
    is_conn_params_ok                        0x0001d159   Thumb Code    68  ble_conn_params.o(i.is_conn_params_ok)
    i.is_valid_irk                           0x0001d19c   Section        0  id_manager.o(i.is_valid_irk)
    i.is_word_aligned                        0x0001d1b0   Section        0  fds.o(i.is_word_aligned)
    is_word_aligned                          0x0001d1b1   Thumb Code    12  fds.o(i.is_word_aligned)
    i.leds_off                               0x0001d1bc   Section        0  bsp.o(i.leds_off)
    leds_off                                 0x0001d1bd   Thumb Code    42  bsp.o(i.leds_off)
    i.leds_timer_handler                     0x0001d1ec   Section        0  bsp.o(i.leds_timer_handler)
    leds_timer_handler                       0x0001d1ed   Thumb Code    16  bsp.o(i.leds_timer_handler)
    i.link_init                              0x0001d200   Section        0  nrf_ble_gatt.o(i.link_init)
    link_init                                0x0001d201   Thumb Code    14  nrf_ble_gatt.o(i.link_init)
    i.link_secure                            0x0001d210   Section        0  security_manager.o(i.link_secure)
    link_secure                              0x0001d211   Thumb Code   190  security_manager.o(i.link_secure)
    i.link_secure_failure                    0x0001d2e0   Section        0  security_dispatcher.o(i.link_secure_failure)
    link_secure_failure                      0x0001d2e1   Thumb Code    54  security_dispatcher.o(i.link_secure_failure)
    i.link_secure_pending_handle             0x0001d31c   Section        0  security_manager.o(i.link_secure_pending_handle)
    link_secure_pending_handle               0x0001d31d   Thumb Code    38  security_manager.o(i.link_secure_pending_handle)
    i.local_db_apply_in_evt                  0x0001d348   Section        0  gatt_cache_manager.o(i.local_db_apply_in_evt)
    local_db_apply_in_evt                    0x0001d349   Thumb Code   148  gatt_cache_manager.o(i.local_db_apply_in_evt)
    i.local_db_update                        0x0001d3f0   Section        0  gatt_cache_manager.o(i.local_db_update)
    local_db_update                          0x0001d3f1   Thumb Code    10  gatt_cache_manager.o(i.local_db_update)
    i.local_db_update_in_evt                 0x0001d400   Section        0  gatt_cache_manager.o(i.local_db_update_in_evt)
    local_db_update_in_evt                   0x0001d401   Thumb Code   134  gatt_cache_manager.o(i.local_db_update_in_evt)
    i.log_skip                               0x0001d50c   Section        0  nrf_log_frontend.o(i.log_skip)
    log_skip                                 0x0001d50d   Thumb Code   150  nrf_log_frontend.o(i.log_skip)
    i.main                                   0x0001d5b0   Section        0  main.o(i.main)
    i.manuf_specific_data_encode             0x0001d7a4   Section        0  ble_advdata.o(i.manuf_specific_data_encode)
    manuf_specific_data_encode               0x0001d7a5   Thumb Code   100  ble_advdata.o(i.manuf_specific_data_encode)
    i.memobj_op                              0x0001d808   Section        0  nrf_memobj.o(i.memobj_op)
    memobj_op                                0x0001d809   Thumb Code   126  nrf_memobj.o(i.memobj_op)
    i.module_idx_get                         0x0001d888   Section        0  nrf_log_frontend.o(i.module_idx_get)
    module_idx_get                           0x0001d889   Thumb Code    42  nrf_log_frontend.o(i.module_idx_get)
    i.mutex_lock_status_get                  0x0001d8b8   Section        0  pm_buffer.o(i.mutex_lock_status_get)
    mutex_lock_status_get                    0x0001d8b9   Thumb Code     8  pm_buffer.o(i.mutex_lock_status_get)
    i.name_encode                            0x0001d8c0   Section        0  ble_advdata.o(i.name_encode)
    name_encode                              0x0001d8c1   Thumb Code   166  ble_advdata.o(i.name_encode)
    i.new_context_get                        0x0001d968   Section        0  security_manager.o(i.new_context_get)
    new_context_get                          0x0001d969   Thumb Code    14  security_manager.o(i.new_context_get)
    i.new_evt                                0x0001d97c   Section        0  security_manager.o(i.new_evt)
    new_evt                                  0x0001d97d   Thumb Code    50  security_manager.o(i.new_evt)
    i.next_id_get                            0x0001d9ae   Section        0  peer_id.o(i.next_id_get)
    i.nrf_atfifo_clear                       0x0001d9de   Section        0  nrf_atfifo.o(i.nrf_atfifo_clear)
    i.nrf_atfifo_init                        0x0001d9ee   Section        0  nrf_atfifo.o(i.nrf_atfifo_init)
    i.nrf_atfifo_item_alloc                  0x0001da14   Section        0  nrf_atfifo.o(i.nrf_atfifo_item_alloc)
    i.nrf_atfifo_item_free                   0x0001da2a   Section        0  nrf_atfifo.o(i.nrf_atfifo_item_free)
    i.nrf_atfifo_item_get                    0x0001da40   Section        0  nrf_atfifo.o(i.nrf_atfifo_item_get)
    i.nrf_atfifo_item_put                    0x0001da56   Section        0  nrf_atfifo.o(i.nrf_atfifo_item_put)
    i.nrf_atflags_clear                      0x0001da6c   Section        0  nrf_atflags.o(i.nrf_atflags_clear)
    i.nrf_atflags_fetch_set                  0x0001da82   Section        0  nrf_atflags.o(i.nrf_atflags_fetch_set)
    i.nrf_atflags_find_and_set_flag          0x0001daa2   Section        0  nrf_atflags.o(i.nrf_atflags_find_and_set_flag)
    i.nrf_atflags_get                        0x0001daec   Section        0  nrf_atflags.o(i.nrf_atflags_get)
    i.nrf_atflags_set                        0x0001db02   Section        0  nrf_atflags.o(i.nrf_atflags_set)
    i.nrf_atomic_flag_clear_fetch            0x0001db16   Section        0  nrf_atomic.o(i.nrf_atomic_flag_clear_fetch)
    i.nrf_atomic_flag_set                    0x0001db1c   Section        0  nrf_atomic.o(i.nrf_atomic_flag_set)
    i.nrf_atomic_flag_set_fetch              0x0001db22   Section        0  nrf_atomic.o(i.nrf_atomic_flag_set_fetch)
    i.nrf_atomic_u32_add                     0x0001db28   Section        0  nrf_atomic.o(i.nrf_atomic_u32_add)
    i.nrf_atomic_u32_and                     0x0001db34   Section        0  nrf_atomic.o(i.nrf_atomic_u32_and)
    i.nrf_atomic_u32_fetch_add               0x0001db40   Section        0  nrf_atomic.o(i.nrf_atomic_u32_fetch_add)
    i.nrf_atomic_u32_fetch_and               0x0001db4a   Section        0  nrf_atomic.o(i.nrf_atomic_u32_fetch_and)
    i.nrf_atomic_u32_fetch_or                0x0001db54   Section        0  nrf_atomic.o(i.nrf_atomic_u32_fetch_or)
    i.nrf_atomic_u32_fetch_store             0x0001db5e   Section        0  nrf_atomic.o(i.nrf_atomic_u32_fetch_store)
    i.nrf_atomic_u32_or                      0x0001db68   Section        0  nrf_atomic.o(i.nrf_atomic_u32_or)
    i.nrf_atomic_u32_sub                     0x0001db74   Section        0  nrf_atomic.o(i.nrf_atomic_u32_sub)
    i.nrf_balloc_alloc                       0x0001db80   Section        0  nrf_balloc.o(i.nrf_balloc_alloc)
    i.nrf_balloc_free                        0x0001dbc4   Section        0  nrf_balloc.o(i.nrf_balloc_free)
    i.nrf_balloc_init                        0x0001dbf4   Section        0  nrf_balloc.o(i.nrf_balloc_init)
    i.nrf_bitmask_bit_is_set                 0x0001dc24   Section        0  nrfx_gpiote.o(i.nrf_bitmask_bit_is_set)
    nrf_bitmask_bit_is_set                   0x0001dc25   Thumb Code    16  nrfx_gpiote.o(i.nrf_bitmask_bit_is_set)
    i.nrf_ble_gatt_init                      0x0001dc34   Section        0  nrf_ble_gatt.o(i.nrf_ble_gatt_init)
    i.nrf_ble_gatt_on_ble_evt                0x0001dc58   Section        0  nrf_ble_gatt.o(i.nrf_ble_gatt_on_ble_evt)
    i.nrf_ble_qwr_conn_handle_assign         0x0001dd4c   Section        0  nrf_ble_qwr.o(i.nrf_ble_qwr_conn_handle_assign)
    i.nrf_ble_qwr_init                       0x0001dd62   Section        0  nrf_ble_qwr.o(i.nrf_ble_qwr_init)
    i.nrf_ble_qwr_on_ble_evt                 0x0001dd86   Section        0  nrf_ble_qwr.o(i.nrf_ble_qwr_on_ble_evt)
    i.nrf_clock_event_check                  0x0001de3c   Section        0  nrfx_clock.o(i.nrf_clock_event_check)
    nrf_clock_event_check                    0x0001de3d   Thumb Code    14  nrfx_clock.o(i.nrf_clock_event_check)
    i.nrf_clock_event_clear                  0x0001de4a   Section        0  nrfx_clock.o(i.nrf_clock_event_clear)
    nrf_clock_event_clear                    0x0001de4b   Thumb Code    16  nrfx_clock.o(i.nrf_clock_event_clear)
    i.nrf_drv_clock_init                     0x0001de5c   Section        0  nrf_drv_clock.o(i.nrf_drv_clock_init)
    i.nrf_drv_clock_lfclk_release            0x0001de9c   Section        0  nrf_drv_clock.o(i.nrf_drv_clock_lfclk_release)
    i.nrf_drv_uart_init                      0x0001ded0   Section        0  nrf_drv_uart.o(i.nrf_drv_uart_init)
    i.nrf_fprintf                            0x0001df38   Section        0  nrf_fprintf.o(i.nrf_fprintf)
    i.nrf_fprintf_buffer_flush               0x0001df52   Section        0  nrf_fprintf.o(i.nrf_fprintf_buffer_flush)
    i.nrf_fprintf_fmt                        0x0001df6a   Section        0  nrf_fprintf_format.o(i.nrf_fprintf_fmt)
    i.nrf_fstorage_erase                     0x0001e144   Section        0  nrf_fstorage.o(i.nrf_fstorage_erase)
    i.nrf_fstorage_init                      0x0001e27c   Section        0  nrf_fstorage.o(i.nrf_fstorage_init)
    i.nrf_fstorage_sdh_req_handler           0x0001e310   Section        0  nrf_fstorage_sd.o(i.nrf_fstorage_sdh_req_handler)
    i.nrf_fstorage_sdh_state_handler         0x0001e328   Section        0  nrf_fstorage_sd.o(i.nrf_fstorage_sdh_state_handler)
    i.nrf_fstorage_sys_evt_handler           0x0001e348   Section        0  nrf_fstorage_sd.o(i.nrf_fstorage_sys_evt_handler)
    i.nrf_fstorage_write                     0x0001e3ec   Section        0  nrf_fstorage.o(i.nrf_fstorage_write)
    i.nrf_gpio_cfg                           0x0001e5c8   Section        0  boards.o(i.nrf_gpio_cfg)
    nrf_gpio_cfg                             0x0001e5c9   Thumb Code    36  boards.o(i.nrf_gpio_cfg)
    i.nrf_gpio_cfg                           0x0001e5ec   Section        0  nrfx_gpiote.o(i.nrf_gpio_cfg)
    nrf_gpio_cfg                             0x0001e5ed   Thumb Code    36  nrfx_gpiote.o(i.nrf_gpio_cfg)
    i.nrf_gpio_cfg                           0x0001e610   Section        0  nrfx_uart.o(i.nrf_gpio_cfg)
    nrf_gpio_cfg                             0x0001e611   Thumb Code    36  nrfx_uart.o(i.nrf_gpio_cfg)
    i.nrf_gpio_cfg                           0x0001e634   Section        0  nrfx_uarte.o(i.nrf_gpio_cfg)
    nrf_gpio_cfg                             0x0001e635   Thumb Code    36  nrfx_uarte.o(i.nrf_gpio_cfg)
    i.nrf_gpio_cfg_default                   0x0001e658   Section        0  nrfx_uart.o(i.nrf_gpio_cfg_default)
    nrf_gpio_cfg_default                     0x0001e659   Thumb Code    18  nrfx_uart.o(i.nrf_gpio_cfg_default)
    i.nrf_gpio_cfg_default                   0x0001e66a   Section        0  nrfx_uarte.o(i.nrf_gpio_cfg_default)
    nrf_gpio_cfg_default                     0x0001e66b   Thumb Code    18  nrfx_uarte.o(i.nrf_gpio_cfg_default)
    i.nrf_gpio_cfg_input                     0x0001e67c   Section        0  nrfx_uart.o(i.nrf_gpio_cfg_input)
    nrf_gpio_cfg_input                       0x0001e67d   Thumb Code    18  nrfx_uart.o(i.nrf_gpio_cfg_input)
    i.nrf_gpio_cfg_input                     0x0001e68e   Section        0  nrfx_uarte.o(i.nrf_gpio_cfg_input)
    nrf_gpio_cfg_input                       0x0001e68f   Thumb Code    18  nrfx_uarte.o(i.nrf_gpio_cfg_input)
    i.nrf_gpio_cfg_output                    0x0001e6a0   Section        0  nrfx_uart.o(i.nrf_gpio_cfg_output)
    nrf_gpio_cfg_output                      0x0001e6a1   Thumb Code    20  nrfx_uart.o(i.nrf_gpio_cfg_output)
    i.nrf_gpio_cfg_output                    0x0001e6b4   Section        0  nrfx_uarte.o(i.nrf_gpio_cfg_output)
    nrf_gpio_cfg_output                      0x0001e6b5   Thumb Code    20  nrfx_uarte.o(i.nrf_gpio_cfg_output)
    i.nrf_gpio_cfg_sense_set                 0x0001e6c8   Section        0  nrfx_gpiote.o(i.nrf_gpio_cfg_sense_set)
    nrf_gpio_cfg_sense_set                   0x0001e6c9   Thumb Code    34  nrfx_gpiote.o(i.nrf_gpio_cfg_sense_set)
    i.nrf_gpio_latches_read_and_clear        0x0001e6ec   Section        0  nrfx_gpiote.o(i.nrf_gpio_latches_read_and_clear)
    nrf_gpio_latches_read_and_clear          0x0001e6ed   Thumb Code    38  nrfx_gpiote.o(i.nrf_gpio_latches_read_and_clear)
    i.nrf_gpio_pin_present_check             0x0001e718   Section        0  nrfx_gpiote.o(i.nrf_gpio_pin_present_check)
    nrf_gpio_pin_present_check               0x0001e719   Thumb Code    30  nrfx_gpiote.o(i.nrf_gpio_pin_present_check)
    i.nrf_gpio_pin_write                     0x0001e736   Section        0  boards.o(i.nrf_gpio_pin_write)
    nrf_gpio_pin_write                       0x0001e737   Thumb Code    22  boards.o(i.nrf_gpio_pin_write)
    i.nrf_gpiote_event_clear                 0x0001e74c   Section        0  nrfx_gpiote.o(i.nrf_gpiote_event_clear)
    nrf_gpiote_event_clear                   0x0001e74d   Thumb Code    16  nrfx_gpiote.o(i.nrf_gpiote_event_clear)
    i.nrf_gpiote_event_is_set                0x0001e760   Section        0  nrfx_gpiote.o(i.nrf_gpiote_event_is_set)
    nrf_gpiote_event_is_set                  0x0001e761   Thumb Code    12  nrfx_gpiote.o(i.nrf_gpiote_event_is_set)
    i.nrf_log_backend_add                    0x0001e770   Section        0  nrf_log_frontend.o(i.nrf_log_backend_add)
    i.nrf_log_backend_rtt_flush              0x0001e7cc   Section        0  nrf_log_backend_rtt.o(i.nrf_log_backend_rtt_flush)
    nrf_log_backend_rtt_flush                0x0001e7cd   Thumb Code     2  nrf_log_backend_rtt.o(i.nrf_log_backend_rtt_flush)
    i.nrf_log_backend_rtt_init               0x0001e7ce   Section        0  nrf_log_backend_rtt.o(i.nrf_log_backend_rtt_init)
    i.nrf_log_backend_rtt_panic_set          0x0001e7d2   Section        0  nrf_log_backend_rtt.o(i.nrf_log_backend_rtt_panic_set)
    nrf_log_backend_rtt_panic_set            0x0001e7d3   Thumb Code     2  nrf_log_backend_rtt.o(i.nrf_log_backend_rtt_panic_set)
    i.nrf_log_backend_rtt_put                0x0001e7d4   Section        0  nrf_log_backend_rtt.o(i.nrf_log_backend_rtt_put)
    nrf_log_backend_rtt_put                  0x0001e7d5   Thumb Code    16  nrf_log_backend_rtt.o(i.nrf_log_backend_rtt_put)
    i.nrf_log_backend_serial_put             0x0001e7ec   Section        0  nrf_log_backend_serial.o(i.nrf_log_backend_serial_put)
    i.nrf_log_backend_uart_flush             0x0001e8b4   Section        0  nrf_log_backend_uart.o(i.nrf_log_backend_uart_flush)
    nrf_log_backend_uart_flush               0x0001e8b5   Thumb Code     2  nrf_log_backend_uart.o(i.nrf_log_backend_uart_flush)
    i.nrf_log_backend_uart_init              0x0001e8b6   Section        0  nrf_log_backend_uart.o(i.nrf_log_backend_uart_init)
    i.nrf_log_backend_uart_panic_set         0x0001e8bc   Section        0  nrf_log_backend_uart.o(i.nrf_log_backend_uart_panic_set)
    nrf_log_backend_uart_panic_set           0x0001e8bd   Thumb Code    36  nrf_log_backend_uart.o(i.nrf_log_backend_uart_panic_set)
    i.nrf_log_backend_uart_put               0x0001e8e8   Section        0  nrf_log_backend_uart.o(i.nrf_log_backend_uart_put)
    nrf_log_backend_uart_put                 0x0001e8e9   Thumb Code    16  nrf_log_backend_uart.o(i.nrf_log_backend_uart_put)
    i.nrf_log_color_id_get                   0x0001e900   Section        0  nrf_log_frontend.o(i.nrf_log_color_id_get)
    i.nrf_log_default_backends_init          0x0001e930   Section        0  nrf_log_default_backends.o(i.nrf_log_default_backends_init)
    i.nrf_log_frontend_dequeue               0x0001e964   Section        0  nrf_log_frontend.o(i.nrf_log_frontend_dequeue)
    i.nrf_log_frontend_std_0                 0x0001eb9c   Section        0  nrf_log_frontend.o(i.nrf_log_frontend_std_0)
    i.nrf_log_frontend_std_1                 0x0001eba4   Section        0  nrf_log_frontend.o(i.nrf_log_frontend_std_1)
    i.nrf_log_frontend_std_2                 0x0001ebb2   Section        0  nrf_log_frontend.o(i.nrf_log_frontend_std_2)
    i.nrf_log_frontend_std_3                 0x0001ebc2   Section        0  nrf_log_frontend.o(i.nrf_log_frontend_std_3)
    i.nrf_log_frontend_std_4                 0x0001ebd4   Section        0  nrf_log_frontend.o(i.nrf_log_frontend_std_4)
    i.nrf_log_hexdump_entry_process          0x0001ebe8   Section        0  nrf_log_str_formatter.o(i.nrf_log_hexdump_entry_process)
    i.nrf_log_init                           0x0001ec98   Section        0  nrf_log_frontend.o(i.nrf_log_init)
    i.nrf_log_module_cnt_get                 0x0001ecc0   Section        0  nrf_log_frontend.o(i.nrf_log_module_cnt_get)
    i.nrf_log_module_name_get                0x0001ecd4   Section        0  nrf_log_frontend.o(i.nrf_log_module_name_get)
    i.nrf_log_panic                          0x0001ecf0   Section        0  nrf_log_frontend.o(i.nrf_log_panic)
    i.nrf_log_std_entry_process              0x0001ed18   Section        0  nrf_log_str_formatter.o(i.nrf_log_std_entry_process)
    i.nrf_memobj_alloc                       0x0001edce   Section        0  nrf_memobj.o(i.nrf_memobj_alloc)
    i.nrf_memobj_free                        0x0001ee2e   Section        0  nrf_memobj.o(i.nrf_memobj_free)
    i.nrf_memobj_get                         0x0001ee60   Section        0  nrf_memobj.o(i.nrf_memobj_get)
    i.nrf_memobj_pool_init                   0x0001ee68   Section        0  nrf_memobj.o(i.nrf_memobj_pool_init)
    i.nrf_memobj_put                         0x0001ee6c   Section        0  nrf_memobj.o(i.nrf_memobj_put)
    i.nrf_memobj_read                        0x0001ee8a   Section        0  nrf_memobj.o(i.nrf_memobj_read)
    i.nrf_memobj_write                       0x0001ee9a   Section        0  nrf_memobj.o(i.nrf_memobj_write)
    i.nrf_pwr_mgmt_init                      0x0001eeac   Section        0  nrf_pwr_mgmt.o(i.nrf_pwr_mgmt_init)
    i.nrf_pwr_mgmt_run                       0x0001eed4   Section        0  nrf_pwr_mgmt.o(i.nrf_pwr_mgmt_run)
    i.nrf_qwr_error_handler                  0x0001eee8   Section        0  main.o(i.nrf_qwr_error_handler)
    nrf_qwr_error_handler                    0x0001eee9   Thumb Code     4  main.o(i.nrf_qwr_error_handler)
    i.nrf_ringbuf_init                       0x0001eeec   Section        0  nrf_ringbuf.o(i.nrf_ringbuf_init)
    i.nrf_rtc_event_clear                    0x0001ef08   Section        0  drv_rtc.o(i.nrf_rtc_event_clear)
    nrf_rtc_event_clear                      0x0001ef09   Thumb Code    12  drv_rtc.o(i.nrf_rtc_event_clear)
    i.nrf_sdh_ble_app_ram_start_get          0x0001ef14   Section        0  nrf_sdh_ble.o(i.nrf_sdh_ble_app_ram_start_get)
    i.nrf_sdh_ble_default_cfg_set            0x0001ef28   Section        0  nrf_sdh_ble.o(i.nrf_sdh_ble_default_cfg_set)
    i.nrf_sdh_ble_enable                     0x0001f020   Section        0  nrf_sdh_ble.o(i.nrf_sdh_ble_enable)
    i.nrf_sdh_ble_evts_poll                  0x0001f150   Section        0  nrf_sdh_ble.o(i.nrf_sdh_ble_evts_poll)
    nrf_sdh_ble_evts_poll                    0x0001f151   Thumb Code    82  nrf_sdh_ble.o(i.nrf_sdh_ble_evts_poll)
    i.nrf_sdh_disable_request                0x0001f1ac   Section        0  nrf_sdh.o(i.nrf_sdh_disable_request)
    i.nrf_sdh_enable_request                 0x0001f200   Section        0  nrf_sdh.o(i.nrf_sdh_enable_request)
    i.nrf_sdh_evts_poll                      0x0001f274   Section        0  nrf_sdh.o(i.nrf_sdh_evts_poll)
    i.nrf_sdh_is_enabled                     0x0001f298   Section        0  nrf_sdh.o(i.nrf_sdh_is_enabled)
    i.nrf_sdh_request_continue               0x0001f2a4   Section        0  nrf_sdh.o(i.nrf_sdh_request_continue)
    i.nrf_sdh_soc_evts_poll                  0x0001f2c0   Section        0  nrf_sdh_soc.o(i.nrf_sdh_soc_evts_poll)
    nrf_sdh_soc_evts_poll                    0x0001f2c1   Thumb Code    56  nrf_sdh_soc.o(i.nrf_sdh_soc_evts_poll)
    i.nrf_section_iter_init                  0x0001f2fc   Section        0  nrf_section_iter.o(i.nrf_section_iter_init)
    i.nrf_section_iter_item_set              0x0001f306   Section        0  nrf_section_iter.o(i.nrf_section_iter_item_set)
    nrf_section_iter_item_set                0x0001f307   Thumb Code    36  nrf_section_iter.o(i.nrf_section_iter_item_set)
    i.nrf_section_iter_next                  0x0001f32a   Section        0  nrf_section_iter.o(i.nrf_section_iter_next)
    i.nrf_sortlist_add                       0x0001f34a   Section        0  nrf_sortlist.o(i.nrf_sortlist_add)
    i.nrf_sortlist_peek                      0x0001f36c   Section        0  nrf_sortlist.o(i.nrf_sortlist_peek)
    i.nrf_sortlist_pop                       0x0001f372   Section        0  nrf_sortlist.o(i.nrf_sortlist_pop)
    i.nrf_sortlist_remove                    0x0001f380   Section        0  nrf_sortlist.o(i.nrf_sortlist_remove)
    i.nrf_strerror_find                      0x0001f3a0   Section        0  nrf_strerror.o(i.nrf_strerror_find)
    i.nrf_strerror_get                       0x0001f3d8   Section        0  nrf_strerror.o(i.nrf_strerror_get)
    i.nrf_uart_event_check                   0x0001f3ec   Section        0  nrfx_uart.o(i.nrf_uart_event_check)
    nrf_uart_event_check                     0x0001f3ed   Thumb Code    10  nrfx_uart.o(i.nrf_uart_event_check)
    i.nrf_uart_event_clear                   0x0001f3f6   Section        0  nrfx_uart.o(i.nrf_uart_event_clear)
    nrf_uart_event_clear                     0x0001f3f7   Thumb Code    12  nrfx_uart.o(i.nrf_uart_event_clear)
    i.nrf_uart_int_enable_check              0x0001f402   Section        0  nrfx_uart.o(i.nrf_uart_int_enable_check)
    nrf_uart_int_enable_check                0x0001f403   Thumb Code    12  nrfx_uart.o(i.nrf_uart_int_enable_check)
    i.nrf_uarte_event_check                  0x0001f40e   Section        0  nrfx_uarte.o(i.nrf_uarte_event_check)
    nrf_uarte_event_check                    0x0001f40f   Thumb Code    10  nrfx_uarte.o(i.nrf_uarte_event_check)
    i.nrf_uarte_event_clear                  0x0001f418   Section        0  nrfx_uarte.o(i.nrf_uarte_event_clear)
    nrf_uarte_event_clear                    0x0001f419   Thumb Code    12  nrfx_uarte.o(i.nrf_uarte_event_clear)
    i.nrf_wdt_started                        0x0001f424   Section        0  nrf_drv_clock.o(i.nrf_wdt_started)
    nrf_wdt_started                          0x0001f425   Thumb Code    12  nrf_drv_clock.o(i.nrf_wdt_started)
    i.nrfx_clock_enable                      0x0001f434   Section        0  nrfx_clock.o(i.nrfx_clock_enable)
    i.nrfx_clock_init                        0x0001f460   Section        0  nrfx_clock.o(i.nrfx_clock_init)
    i.nrfx_clock_lfclk_stop                  0x0001f480   Section        0  nrfx_clock.o(i.nrfx_clock_lfclk_stop)
    i.nrfx_coredep_delay_us                  0x0001f4b0   Section        0  drv_rtc.o(i.nrfx_coredep_delay_us)
    nrfx_coredep_delay_us                    0x0001f4b1   Thumb Code    12  drv_rtc.o(i.nrfx_coredep_delay_us)
    i.nrfx_gpiote_in_event_enable            0x0001f4c0   Section        0  nrfx_gpiote.o(i.nrfx_gpiote_in_event_enable)
    i.nrfx_gpiote_in_init                    0x0001f560   Section        0  nrfx_gpiote.o(i.nrfx_gpiote_in_init)
    i.nrfx_gpiote_in_is_set                  0x0001f62c   Section        0  nrfx_gpiote.o(i.nrfx_gpiote_in_is_set)
    i.nrfx_gpiote_init                       0x0001f640   Section        0  nrfx_gpiote.o(i.nrfx_gpiote_init)
    i.nrfx_gpiote_is_init                    0x0001f6b4   Section        0  nrfx_gpiote.o(i.nrfx_gpiote_is_init)
    i.nrfx_is_in_ram                         0x0001f6c8   Section        0  nrfx_uarte.o(i.nrfx_is_in_ram)
    nrfx_is_in_ram                           0x0001f6c9   Thumb Code    16  nrfx_uarte.o(i.nrfx_is_in_ram)
    i.nrfx_prs_acquire                       0x0001f6d8   Section        0  nrfx_prs.o(i.nrfx_prs_acquire)
    i.nrfx_prs_release                       0x0001f712   Section        0  nrfx_prs.o(i.nrfx_prs_release)
    i.nrfx_uart_0_irq_handler                0x0001f724   Section        0  nrfx_uart.o(i.nrfx_uart_0_irq_handler)
    i.nrfx_uart_init                         0x0001f734   Section        0  nrfx_uart.o(i.nrfx_uart_init)
    i.nrfx_uart_tx                           0x0001f808   Section        0  nrfx_uart.o(i.nrfx_uart_tx)
    i.nrfx_uart_tx_in_progress               0x0001f8b0   Section        0  nrfx_uart.o(i.nrfx_uart_tx_in_progress)
    i.nrfx_uart_uninit                       0x0001f8d0   Section        0  nrfx_uart.o(i.nrfx_uart_uninit)
    i.nrfx_uarte_0_irq_handler               0x0001f990   Section        0  nrfx_uarte.o(i.nrfx_uarte_0_irq_handler)
    i.nrfx_uarte_init                        0x0001f9a0   Section        0  nrfx_uarte.o(i.nrfx_uarte_init)
    i.nrfx_uarte_tx                          0x0001fa0c   Section        0  nrfx_uarte.o(i.nrfx_uarte_tx)
    i.nrfx_uarte_tx_in_progress              0x0001fab8   Section        0  nrfx_uarte.o(i.nrfx_uarte_tx_in_progress)
    i.nrfx_uarte_uninit                      0x0001fad4   Section        0  nrfx_uarte.o(i.nrfx_uarte_uninit)
    i.on_adv_evt                             0x0001fbdc   Section        0  main.o(i.on_adv_evt)
    on_adv_evt                               0x0001fbdd   Thumb Code    56  main.o(i.on_adv_evt)
    i.on_conn_params_evt                     0x0001fc30   Section        0  main.o(i.on_conn_params_evt)
    on_conn_params_evt                       0x0001fc31   Thumb Code    24  main.o(i.on_conn_params_evt)
    i.on_connected_evt                       0x0001fc4c   Section        0  nrf_ble_gatt.o(i.on_connected_evt)
    on_connected_evt                         0x0001fc4d   Thumb Code    80  nrf_ble_gatt.o(i.on_connected_evt)
    i.on_exchange_mtu_request_evt            0x0001fcd8   Section        0  nrf_ble_gatt.o(i.on_exchange_mtu_request_evt)
    on_exchange_mtu_request_evt              0x0001fcd9   Thumb Code   114  nrf_ble_gatt.o(i.on_exchange_mtu_request_evt)
    i.page_identify                          0x0001fd88   Section        0  fds.o(i.page_identify)
    page_identify                            0x0001fd89   Thumb Code    26  fds.o(i.page_identify)
    i.page_offsets_update                    0x0001fdac   Section        0  fds.o(i.page_offsets_update)
    page_offsets_update                      0x0001fdad   Thumb Code    28  fds.o(i.page_offsets_update)
    i.page_scan                              0x0001fdc8   Section        0  fds.o(i.page_scan)
    page_scan                                0x0001fdc9   Thumb Code   104  fds.o(i.page_scan)
    i.page_tag_write_data                    0x0001fe34   Section        0  fds.o(i.page_tag_write_data)
    page_tag_write_data                      0x0001fe35   Thumb Code    20  fds.o(i.page_tag_write_data)
    i.page_tag_write_swap                    0x0001fe50   Section        0  fds.o(i.page_tag_write_swap)
    page_tag_write_swap                      0x0001fe51   Thumb Code    22  fds.o(i.page_tag_write_swap)
    i.pages_init                             0x0001fe74   Section        0  fds.o(i.pages_init)
    pages_init                               0x0001fe75   Thumb Code   286  fds.o(i.pages_init)
    i.pairing                                0x0001ffa4   Section        0  security_dispatcher.o(i.pairing)
    pairing                                  0x0001ffa5   Thumb Code     8  security_dispatcher.o(i.pairing)
    i.pairing_failure                        0x0001ffb0   Section        0  security_dispatcher.o(i.pairing_failure)
    pairing_failure                          0x0001ffb1   Thumb Code    98  security_dispatcher.o(i.pairing_failure)
    i.pairing_success_evt_send               0x00020024   Section        0  security_dispatcher.o(i.pairing_success_evt_send)
    pairing_success_evt_send                 0x00020025   Thumb Code    46  security_dispatcher.o(i.pairing_success_evt_send)
    i.params_reply_pending_handle            0x00020052   Section        0  security_manager.o(i.params_reply_pending_handle)
    params_reply_pending_handle              0x00020053   Thumb Code     6  security_manager.o(i.params_reply_pending_handle)
    i.params_req_send                        0x00020058   Section        0  security_manager.o(i.params_req_send)
    params_req_send                          0x00020059   Thumb Code    32  security_manager.o(i.params_req_send)
    i.pdb_evt_send                           0x00020078   Section        0  peer_database.o(i.pdb_evt_send)
    pdb_evt_send                             0x00020079   Thumb Code    24  peer_database.o(i.pdb_evt_send)
    i.pdb_init                               0x00020094   Section        0  peer_database.o(i.pdb_init)
    i.pdb_pds_evt_handler                    0x00020124   Section        0  peer_database.o(i.pdb_pds_evt_handler)
    i.pdb_peer_data_ptr_get                  0x000201a0   Section        0  peer_database.o(i.pdb_peer_data_ptr_get)
    i.pdb_peer_free                          0x000201a8   Section        0  peer_database.o(i.pdb_peer_free)
    i.pdb_write_buf_get                      0x00020234   Section        0  peer_database.o(i.pdb_write_buf_get)
    i.pdb_write_buf_release                  0x00020310   Section        0  peer_database.o(i.pdb_write_buf_release)
    i.pdb_write_buf_store                    0x00020324   Section        0  peer_database.o(i.pdb_write_buf_store)
    i.pds_evt_send                           0x0002035c   Section        0  peer_data_storage.o(i.pds_evt_send)
    pds_evt_send                             0x0002035d   Thumb Code    12  peer_data_storage.o(i.pds_evt_send)
    i.pds_init                               0x0002036c   Section        0  peer_data_storage.o(i.pds_init)
    i.pds_next_deleted_peer_id_get           0x00020448   Section        0  peer_data_storage.o(i.pds_next_deleted_peer_id_get)
    i.pds_next_peer_id_get                   0x0002044c   Section        0  peer_data_storage.o(i.pds_next_peer_id_get)
    i.pds_peer_data_iterate                  0x00020450   Section        0  peer_data_storage.o(i.pds_peer_data_iterate)
    i.pds_peer_data_iterate_prepare          0x000204a8   Section        0  peer_data_storage.o(i.pds_peer_data_iterate_prepare)
    i.pds_peer_data_read                     0x000204b8   Section        0  peer_data_storage.o(i.pds_peer_data_read)
    i.pds_peer_data_store                    0x0002052c   Section        0  peer_data_storage.o(i.pds_peer_data_store)
    i.pds_peer_id_allocate                   0x000205e0   Section        0  peer_data_storage.o(i.pds_peer_id_allocate)
    i.pds_peer_id_free                       0x000205e8   Section        0  peer_data_storage.o(i.pds_peer_id_free)
    i.pds_peer_id_is_allocated               0x000205fe   Section        0  peer_data_storage.o(i.pds_peer_id_is_allocated)
    i.peer_data_delete_process               0x00020604   Section        0  peer_data_storage.o(i.peer_data_delete_process)
    peer_data_delete_process                 0x00020605   Thumb Code   146  peer_data_storage.o(i.peer_data_delete_process)
    i.peer_data_find                         0x000206ac   Section        0  peer_data_storage.o(i.peer_data_find)
    peer_data_find                           0x000206ad   Thumb Code    48  peer_data_storage.o(i.peer_data_find)
    i.peer_data_id_is_valid                  0x000206dc   Section        0  peer_data_storage.o(i.peer_data_id_is_valid)
    peer_data_id_is_valid                    0x000206dd   Thumb Code    36  peer_data_storage.o(i.peer_data_id_is_valid)
    i.peer_data_point_to_buffer              0x00020700   Section        0  peer_database.o(i.peer_data_point_to_buffer)
    peer_data_point_to_buffer                0x00020701   Thumb Code    26  peer_database.o(i.peer_data_point_to_buffer)
    i.peer_id_allocate                       0x0002071c   Section        0  peer_id.o(i.peer_id_allocate)
    i.peer_id_delete                         0x00020728   Section        0  peer_id.o(i.peer_id_delete)
    i.peer_id_free                           0x0002074c   Section        0  peer_id.o(i.peer_id_free)
    i.peer_id_get_next_deleted               0x00020768   Section        0  peer_id.o(i.peer_id_get_next_deleted)
    i.peer_id_get_next_used                  0x00020774   Section        0  peer_id.o(i.peer_id_get_next_used)
    i.peer_id_init                           0x000207a4   Section        0  peer_id.o(i.peer_id_init)
    i.peer_id_is_allocated                   0x000207b0   Section        0  peer_id.o(i.peer_id_is_allocated)
    i.peer_id_is_deleted                     0x000207c4   Section        0  peer_id.o(i.peer_id_is_deleted)
    i.peer_manager_init                      0x000207d8   Section        0  main.o(i.peer_manager_init)
    peer_manager_init                        0x000207d9   Thumb Code   104  main.o(i.peer_manager_init)
    i.phy_is_valid                           0x00020844   Section        0  ble_advertising.o(i.phy_is_valid)
    phy_is_valid                             0x00020845   Thumb Code    18  ble_advertising.o(i.phy_is_valid)
    i.pin_configured_set                     0x00020858   Section        0  nrfx_gpiote.o(i.pin_configured_set)
    pin_configured_set                       0x00020859   Thumb Code    22  nrfx_gpiote.o(i.pin_configured_set)
    i.pin_in_use_by_port                     0x00020874   Section        0  nrfx_gpiote.o(i.pin_in_use_by_port)
    pin_in_use_by_port                       0x00020875   Thumb Code    20  nrfx_gpiote.o(i.pin_in_use_by_port)
    i.pin_in_use_by_te                       0x0002088c   Section        0  nrfx_gpiote.o(i.pin_in_use_by_te)
    pin_in_use_by_te                         0x0002088d   Thumb Code    20  nrfx_gpiote.o(i.pin_in_use_by_te)
    i.pm_buffer_block_acquire                0x000208a4   Section        0  pm_buffer.o(i.pm_buffer_block_acquire)
    i.pm_buffer_init                         0x00020908   Section        0  pm_buffer.o(i.pm_buffer_init)
    i.pm_buffer_ptr_get                      0x0002092c   Section        0  pm_buffer.o(i.pm_buffer_ptr_get)
    i.pm_buffer_release                      0x00020954   Section        0  pm_buffer.o(i.pm_buffer_release)
    i.pm_conn_sec_status_get                 0x00020988   Section        0  peer_manager.o(i.pm_conn_sec_status_get)
    i.pm_conn_secure                         0x0002099c   Section        0  peer_manager.o(i.pm_conn_secure)
    i.pm_evt_handler                         0x000209b8   Section        0  main.o(i.pm_evt_handler)
    pm_evt_handler                           0x000209b9   Thumb Code    32  main.o(i.pm_evt_handler)
    i.pm_gcm_evt_handler                     0x000209d8   Section        0  peer_manager.o(i.pm_gcm_evt_handler)
    i.pm_gscm_evt_handler                    0x000209dc   Section        0  peer_manager.o(i.pm_gscm_evt_handler)
    i.pm_handler_flash_clean                 0x000209e0   Section        0  peer_manager_handler.o(i.pm_handler_flash_clean)
    i.pm_handler_flash_clean_on_return       0x00020c24   Section        0  peer_manager_handler.o(i.pm_handler_flash_clean_on_return)
    i.pm_handler_on_pm_evt                   0x00020c40   Section        0  peer_manager_handler.o(i.pm_handler_on_pm_evt)
    i.pm_handler_pm_evt_log                  0x00020c94   Section        0  peer_manager_handler.o(i.pm_handler_pm_evt_log)
    i.pm_im_evt_handler                      0x00020fa4   Section        0  peer_manager.o(i.pm_im_evt_handler)
    i.pm_init                                0x00020fa8   Section        0  peer_manager.o(i.pm_init)
    i.pm_pdb_evt_handler                     0x00021164   Section        0  peer_manager.o(i.pm_pdb_evt_handler)
    i.pm_peer_delete                         0x0002127c   Section        0  peer_manager.o(i.pm_peer_delete)
    i.pm_peer_rank_highest                   0x00021290   Section        0  peer_manager.o(i.pm_peer_rank_highest)
    i.pm_peer_ranks_get                      0x000213ac   Section        0  peer_manager.o(i.pm_peer_ranks_get)
    i.pm_peers_delete                        0x00021494   Section        0  peer_manager.o(i.pm_peers_delete)
    i.pm_register                            0x00021528   Section        0  peer_manager.o(i.pm_register)
    i.pm_sec_params_set                      0x00021554   Section        0  peer_manager.o(i.pm_sec_params_set)
    i.pm_sm_evt_handler                      0x00021568   Section        0  peer_manager.o(i.pm_sm_evt_handler)
    i.port_event_handle                      0x00021574   Section        0  nrfx_gpiote.o(i.port_event_handle)
    port_event_handle                        0x00021575   Thumb Code   176  nrfx_gpiote.o(i.port_event_handle)
    i.port_handler_polarity_get              0x00021628   Section        0  nrfx_gpiote.o(i.port_handler_polarity_get)
    port_handler_polarity_get                0x00021629   Thumb Code    12  nrfx_gpiote.o(i.port_handler_polarity_get)
    i.postfix_process                        0x00021638   Section        0  nrf_log_str_formatter.o(i.postfix_process)
    postfix_process                          0x00021639   Thumb Code    48  nrf_log_str_formatter.o(i.postfix_process)
    i.prefix_process                         0x00021674   Section        0  nrf_log_str_formatter.o(i.prefix_process)
    prefix_process                           0x00021675   Thumb Code    90  nrf_log_str_formatter.o(i.prefix_process)
    i.prs_box_get                            0x0002170c   Section        0  nrfx_prs.o(i.prs_box_get)
    prs_box_get                              0x0002170d   Thumb Code    14  nrfx_prs.o(i.prs_box_get)
    i.queue_buf_get                          0x00021724   Section        0  fds.o(i.queue_buf_get)
    queue_buf_get                            0x00021725   Thumb Code    24  fds.o(i.queue_buf_get)
    i.queue_buf_store                        0x00021740   Section        0  fds.o(i.queue_buf_store)
    queue_buf_store                          0x00021741   Thumb Code    10  fds.o(i.queue_buf_store)
    i.queue_free                             0x00021750   Section        0  nrf_fstorage_sd.o(i.queue_free)
    queue_free                               0x00021751   Thumb Code    10  nrf_fstorage_sd.o(i.queue_free)
    i.queue_process                          0x00021764   Section        0  fds.o(i.queue_process)
    queue_process                            0x00021765   Thumb Code   154  fds.o(i.queue_process)
    i.queue_process                          0x00021808   Section        0  nrf_fstorage_sd.o(i.queue_process)
    queue_process                            0x00021809   Thumb Code   148  nrf_fstorage_sd.o(i.queue_process)
    i.queue_start                            0x000218a8   Section        0  fds.o(i.queue_start)
    queue_start                              0x000218a9   Thumb Code    24  fds.o(i.queue_start)
    i.queue_start                            0x000218c4   Section        0  nrf_fstorage_sd.o(i.queue_start)
    queue_start                              0x000218c5   Thumb Code    30  nrf_fstorage_sd.o(i.queue_start)
    i.rank_highest                           0x000218e8   Section        0  peer_manager_handler.o(i.rank_highest)
    rank_highest                             0x000218e9   Thumb Code    28  peer_manager_handler.o(i.rank_highest)
    i.rank_vars_update                       0x00021904   Section        0  peer_manager.o(i.rank_vars_update)
    rank_vars_update                         0x00021905   Thumb Code    46  peer_manager.o(i.rank_vars_update)
    i.read                                   0x00021938   Section        0  nrf_fstorage_sd.o(i.read)
    read                                     0x00021939   Thumb Code    14  nrf_fstorage_sd.o(i.read)
    i.reattempt_previous_operations          0x00021948   Section        0  peer_database.o(i.reattempt_previous_operations)
    reattempt_previous_operations            0x00021949   Thumb Code   148  peer_database.o(i.reattempt_previous_operations)
    i.record_find                            0x000219f0   Section        0  fds.o(i.record_find)
    record_find                              0x000219f1   Thumb Code   134  fds.o(i.record_find)
    i.record_find_by_desc                    0x00021a80   Section        0  fds.o(i.record_find_by_desc)
    record_find_by_desc                      0x00021a81   Thumb Code   152  fds.o(i.record_find_by_desc)
    i.record_find_next                       0x00021b20   Section        0  fds.o(i.record_find_next)
    record_find_next                         0x00021b21   Thumb Code    88  fds.o(i.record_find_next)
    i.record_header_flag_dirty               0x00021b7c   Section        0  fds.o(i.record_header_flag_dirty)
    record_header_flag_dirty                 0x00021b7d   Thumb Code    46  fds.o(i.record_header_flag_dirty)
    i.records_stat                           0x00021bb8   Section        0  fds.o(i.records_stat)
    records_stat                             0x00021bb9   Thumb Code   132  fds.o(i.records_stat)
    i.release                                0x00021c40   Section        0  peer_id.o(i.release)
    release                                  0x00021c41   Thumb Code    16  peer_id.o(i.release)
    i.rmap                                   0x00021c50   Section        0  nrf_fstorage_sd.o(i.rmap)
    rmap                                     0x00021c51   Thumb Code     4  nrf_fstorage_sd.o(i.rmap)
    i.rtc_irq                                0x00021c54   Section        0  app_timer2.o(i.rtc_irq)
    rtc_irq                                  0x00021c55   Thumb Code    88  app_timer2.o(i.rtc_irq)
    i.rtc_schedule                           0x00021cb0   Section        0  app_timer2.o(i.rtc_schedule)
    rtc_schedule                             0x00021cb1   Thumb Code    92  app_timer2.o(i.rtc_schedule)
    i.rtc_update                             0x00021d14   Section        0  app_timer2.o(i.rtc_update)
    rtc_update                               0x00021d15   Thumb Code   108  app_timer2.o(i.rtc_update)
    i.rx_byte                                0x00021d88   Section        0  nrfx_uart.o(i.rx_byte)
    rx_byte                                  0x00021d89   Thumb Code    50  nrfx_uart.o(i.rx_byte)
    i.rx_done_event                          0x00021dba   Section        0  nrfx_uart.o(i.rx_done_event)
    rx_done_event                            0x00021dbb   Thumb Code    22  nrfx_uart.o(i.rx_done_event)
    i.rx_done_event                          0x00021dd0   Section        0  nrfx_uarte.o(i.rx_done_event)
    rx_done_event                            0x00021dd1   Thumb Code    22  nrfx_uarte.o(i.rx_done_event)
    i.sc_send_pending_handle                 0x00021de8   Section        0  gatt_cache_manager.o(i.sc_send_pending_handle)
    sc_send_pending_handle                   0x00021de9   Thumb Code    30  gatt_cache_manager.o(i.sc_send_pending_handle)
    i.sd_state_evt_handler                   0x00021e0c   Section        0  nrf_drv_clock.o(i.sd_state_evt_handler)
    sd_state_evt_handler                     0x00021e0d   Thumb Code    84  nrf_drv_clock.o(i.sd_state_evt_handler)
    i.sdh_request_observer_notify            0x00021e64   Section        0  nrf_sdh.o(i.sdh_request_observer_notify)
    sdh_request_observer_notify              0x00021e65   Thumb Code    44  nrf_sdh.o(i.sdh_request_observer_notify)
    i.sdh_state_observer_notify              0x00021e94   Section        0  nrf_sdh.o(i.sdh_state_observer_notify)
    sdh_state_observer_notify                0x00021e95   Thumb Code    38  nrf_sdh.o(i.sdh_state_observer_notify)
    i.sec_info_request_process               0x00021ec0   Section        0  security_dispatcher.o(i.sec_info_request_process)
    sec_info_request_process                 0x00021ec1   Thumb Code   198  security_dispatcher.o(i.sec_info_request_process)
    i.sec_keyset_fill                        0x00021f98   Section        0  security_dispatcher.o(i.sec_keyset_fill)
    sec_keyset_fill                          0x00021f99   Thumb Code   168  security_dispatcher.o(i.sec_keyset_fill)
    i.sec_params_verify                      0x0002208c   Section        0  security_manager.o(i.sec_params_verify)
    sec_params_verify                        0x0002208d   Thumb Code   118  security_manager.o(i.sec_params_verify)
    i.sec_proc_start                         0x00022104   Section        0  security_dispatcher.o(i.sec_proc_start)
    sec_proc_start                           0x00022105   Thumb Code    86  security_dispatcher.o(i.sec_proc_start)
    i.sec_req_process                        0x00022164   Section        0  security_manager.o(i.sec_req_process)
    sec_req_process                          0x00022165   Thumb Code    86  security_manager.o(i.sec_req_process)
    i.send_config_req                        0x000221c0   Section        0  security_dispatcher.o(i.send_config_req)
    send_config_req                          0x000221c1   Thumb Code    34  security_dispatcher.o(i.send_config_req)
    i.send_error_evt                         0x000221e4   Section        0  ble_conn_params.o(i.send_error_evt)
    send_error_evt                           0x000221e5   Thumb Code    12  ble_conn_params.o(i.send_error_evt)
    i.send_unexpected_error                  0x000221f4   Section        0  gatt_cache_manager.o(i.send_unexpected_error)
    send_unexpected_error                    0x000221f5   Thumb Code    34  gatt_cache_manager.o(i.send_unexpected_error)
    i.send_unexpected_error                  0x0002221c   Section        0  security_dispatcher.o(i.send_unexpected_error)
    send_unexpected_error                    0x0002221d   Thumb Code    34  security_dispatcher.o(i.send_unexpected_error)
    i.serial_tx                              0x00022244   Section        0  nrf_log_backend_rtt.o(i.serial_tx)
    serial_tx                                0x00022245   Thumb Code    70  nrf_log_backend_rtt.o(i.serial_tx)
    i.serial_tx                              0x00022294   Section        0  nrf_log_backend_uart.o(i.serial_tx)
    serial_tx                                0x00022295   Thumb Code    54  nrf_log_backend_uart.o(i.serial_tx)
    i.service_changed_pending_flags_check    0x000222d4   Section        0  gatt_cache_manager.o(i.service_changed_pending_flags_check)
    service_changed_pending_flags_check      0x000222d5   Thumb Code    12  gatt_cache_manager.o(i.service_changed_pending_flags_check)
    i.service_changed_pending_set            0x000222e8   Section        0  gatts_cache_manager.o(i.service_changed_pending_set)
    service_changed_pending_set              0x000222e9   Thumb Code   128  gatts_cache_manager.o(i.service_changed_pending_set)
    i.service_changed_send_in_evt            0x0002237c   Section        0  gatt_cache_manager.o(i.service_changed_send_in_evt)
    service_changed_send_in_evt              0x0002237d   Thumb Code   278  gatt_cache_manager.o(i.service_changed_send_in_evt)
    i.service_data_encode                    0x000224e4   Section        0  ble_advdata.o(i.service_data_encode)
    service_data_encode                      0x000224e5   Thumb Code   136  ble_advdata.o(i.service_data_encode)
    i.sleep_mode_enter                       0x0002256c   Section        0  main.o(i.sleep_mode_enter)
    sleep_mode_enter                         0x0002256d   Thumb Code    40  main.o(i.sleep_mode_enter)
    i.sm_ble_evt_handler                     0x00022594   Section        0  security_manager.o(i.sm_ble_evt_handler)
    i.sm_conn_sec_status_get                 0x000225c0   Section        0  security_manager.o(i.sm_conn_sec_status_get)
    i.sm_init                                0x00022664   Section        0  security_manager.o(i.sm_init)
    i.sm_link_secure                         0x000226bc   Section        0  security_manager.o(i.sm_link_secure)
    i.sm_pdb_evt_handler                     0x000226c8   Section        0  security_manager.o(i.sm_pdb_evt_handler)
    i.sm_sec_is_sufficient                   0x0002270c   Section        0  security_manager.o(i.sm_sec_is_sufficient)
    i.sm_sec_params_set                      0x00022734   Section        0  security_manager.o(i.sm_sec_params_set)
    i.sm_smd_evt_handler                     0x00022768   Section        0  security_manager.o(i.sm_smd_evt_handler)
    i.smd_ble_evt_handler                    0x00022794   Section        0  security_dispatcher.o(i.smd_ble_evt_handler)
    i.smd_init                               0x00022888   Section        0  security_dispatcher.o(i.smd_init)
    i.smd_link_secure                        0x000228f0   Section        0  security_dispatcher.o(i.smd_link_secure)
    i.smd_params_reply                       0x00022918   Section        0  security_dispatcher.o(i.smd_params_reply)
    i.smd_params_reply_perform               0x000229c4   Section        0  security_manager.o(i.smd_params_reply_perform)
    smd_params_reply_perform                 0x000229c5   Thumb Code    58  security_manager.o(i.smd_params_reply_perform)
    i.soc_evt_handler                        0x00022a04   Section        0  nrf_drv_clock.o(i.soc_evt_handler)
    soc_evt_handler                          0x00022a05   Thumb Code    18  nrf_drv_clock.o(i.soc_evt_handler)
    i.softdevice_evt_irq_disable             0x00022a1c   Section        0  nrf_sdh.o(i.softdevice_evt_irq_disable)
    softdevice_evt_irq_disable               0x00022a1d   Thumb Code    60  nrf_sdh.o(i.softdevice_evt_irq_disable)
    i.softdevices_evt_irq_enable             0x00022a5c   Section        0  nrf_sdh.o(i.softdevices_evt_irq_enable)
    softdevices_evt_irq_enable               0x00022a5d   Thumb Code    80  nrf_sdh.o(i.softdevices_evt_irq_enable)
    i.sortlist_pop                           0x00022ab4   Section        0  app_timer2.o(i.sortlist_pop)
    sortlist_pop                             0x00022ab5   Thumb Code     6  app_timer2.o(i.sortlist_pop)
    i.state_set                              0x00022ac0   Section        0  app_button.o(i.state_set)
    state_set                                0x00022ac1   Thumb Code    44  app_button.o(i.state_set)
    i.std_n                                  0x00022af0   Section        0  nrf_log_frontend.o(i.std_n)
    std_n                                    0x00022af1   Thumb Code   140  nrf_log_frontend.o(i.std_n)
    i.store_car_value                        0x00022b84   Section        0  gatt_cache_manager.o(i.store_car_value)
    i.timer_expire                           0x00022bf0   Section        0  app_timer2.o(i.timer_expire)
    timer_expire                             0x00022bf1   Thumb Code    80  app_timer2.o(i.timer_expire)
    i.timer_req_process                      0x00022c48   Section        0  app_timer2.o(i.timer_req_process)
    timer_req_process                        0x00022c49   Thumb Code   110  app_timer2.o(i.timer_req_process)
    i.timer_req_schedule                     0x00022cc0   Section        0  app_timer2.o(i.timer_req_schedule)
    timer_req_schedule                       0x00022cc1   Thumb Code    46  app_timer2.o(i.timer_req_schedule)
    i.timer_start                            0x00022cf8   Section        0  app_button.o(i.timer_start)
    timer_start                              0x00022cf9   Thumb Code    16  app_button.o(i.timer_start)
    i.tx_byte                                0x00022d10   Section        0  nrfx_uart.o(i.tx_byte)
    tx_byte                                  0x00022d11   Thumb Code    32  nrfx_uart.o(i.tx_byte)
    i.tx_done_event                          0x00022d30   Section        0  nrfx_uart.o(i.tx_done_event)
    tx_done_event                            0x00022d31   Thumb Code    26  nrfx_uart.o(i.tx_done_event)
    i.tx_done_event                          0x00022d4a   Section        0  nrfx_uarte.o(i.tx_done_event)
    tx_done_event                            0x00022d4b   Thumb Code    26  nrfx_uarte.o(i.tx_done_event)
    i.uart_evt_handler                       0x00022d64   Section        0  nrf_drv_uart.o(i.uart_evt_handler)
    uart_evt_handler                         0x00022d65   Thumb Code    42  nrf_drv_uart.o(i.uart_evt_handler)
    i.uart_evt_handler                       0x00022d94   Section        0  nrf_log_backend_uart.o(i.uart_evt_handler)
    uart_evt_handler                         0x00022d95   Thumb Code     8  nrf_log_backend_uart.o(i.uart_evt_handler)
    i.uart_init                              0x00022da0   Section        0  nrf_log_backend_uart.o(i.uart_init)
    uart_init                                0x00022da1   Thumb Code    66  nrf_log_backend_uart.o(i.uart_init)
    i.uart_irq_handler                       0x00022df0   Section        0  nrfx_uart.o(i.uart_irq_handler)
    uart_irq_handler                         0x00022df1   Thumb Code   298  nrfx_uart.o(i.uart_irq_handler)
    i.uarte_evt_handler                      0x00022f1c   Section        0  nrf_drv_uart.o(i.uarte_evt_handler)
    uarte_evt_handler                        0x00022f1d   Thumb Code    42  nrf_drv_uart.o(i.uarte_evt_handler)
    i.uarte_irq_handler                      0x00022f4c   Section        0  nrfx_uarte.o(i.uarte_irq_handler)
    uarte_irq_handler                        0x00022f4d   Thumb Code   274  nrfx_uarte.o(i.uarte_irq_handler)
    i.uint16_encode                          0x0002305e   Section        0  ble_advdata.o(i.uint16_encode)
    uint16_encode                            0x0002305f   Thumb Code    10  ble_advdata.o(i.uint16_encode)
    i.uninit                                 0x00023068   Section        0  nrf_fstorage_sd.o(i.uninit)
    uninit                                   0x00023069   Thumb Code    22  nrf_fstorage_sd.o(i.uninit)
    i.unsigned_print                         0x00023088   Section        0  nrf_fprintf_format.o(i.unsigned_print)
    unsigned_print                           0x00023089   Thumb Code   176  nrf_fprintf_format.o(i.unsigned_print)
    i.update_pending_flags_check             0x0002313c   Section        0  gatt_cache_manager.o(i.update_pending_flags_check)
    update_pending_flags_check               0x0002313d   Thumb Code    34  gatt_cache_manager.o(i.update_pending_flags_check)
    i.update_timeout_handler                 0x0002316c   Section        0  ble_conn_params.o(i.update_timeout_handler)
    update_timeout_handler                   0x0002316d   Thumb Code    98  ble_conn_params.o(i.update_timeout_handler)
    i.use_whitelist                          0x000231d4   Section        0  ble_advertising.o(i.use_whitelist)
    use_whitelist                            0x000231d5   Thumb Code    24  ble_advertising.o(i.use_whitelist)
    i.user_flag_is_acquired                  0x000231ec   Section        0  ble_conn_state.o(i.user_flag_is_acquired)
    user_flag_is_acquired                    0x000231ed   Thumb Code     8  ble_conn_state.o(i.user_flag_is_acquired)
    i.user_mem_reply                         0x000231f8   Section        0  nrf_ble_qwr.o(i.user_mem_reply)
    user_mem_reply                           0x000231f9   Thumb Code    36  nrf_ble_qwr.o(i.user_mem_reply)
    i.usr_event                              0x0002321c   Section        0  app_button.o(i.usr_event)
    usr_event                                0x0002321d   Thumb Code    32  app_button.o(i.usr_event)
    i.uuid_list_encode                       0x0002323c   Section        0  ble_advdata.o(i.uuid_list_encode)
    uuid_list_encode                         0x0002323d   Thumb Code    48  ble_advdata.o(i.uuid_list_encode)
    i.uuid_list_sized_encode                 0x0002326c   Section        0  ble_advdata.o(i.uuid_list_sized_encode)
    uuid_list_sized_encode                   0x0002326d   Thumb Code   158  ble_advdata.o(i.uuid_list_sized_encode)
    i.wakeup_button_cfg                      0x0002330a   Section        0  bsp.o(i.wakeup_button_cfg)
    wakeup_button_cfg                        0x0002330b   Thumb Code    58  bsp.o(i.wakeup_button_cfg)
    i.wmap                                   0x00023344   Section        0  nrf_fstorage_sd.o(i.wmap)
    wmap                                     0x00023345   Thumb Code     4  nrf_fstorage_sd.o(i.wmap)
    i.write                                  0x00023348   Section        0  nrf_fstorage_sd.o(i.write)
    write                                    0x00023349   Thumb Code    74  nrf_fstorage_sd.o(i.write)
    i.write_buf_store                        0x00023398   Section        0  peer_database.o(i.write_buf_store)
    i.write_buffer_record_find               0x000234e4   Section        0  peer_database.o(i.write_buffer_record_find)
    write_buffer_record_find                 0x000234e5   Thumb Code    52  peer_database.o(i.write_buffer_record_find)
    i.write_buffer_record_find_next          0x00023518   Section        0  peer_database.o(i.write_buffer_record_find_next)
    write_buffer_record_find_next            0x00023519   Thumb Code    42  peer_database.o(i.write_buffer_record_find_next)
    i.write_buffer_record_invalidate         0x00023548   Section        0  peer_database.o(i.write_buffer_record_invalidate)
    write_buffer_record_invalidate           0x00023549   Thumb Code    28  peer_database.o(i.write_buffer_record_invalidate)
    i.write_buffer_record_release            0x00023564   Section        0  peer_database.o(i.write_buffer_record_release)
    write_buffer_record_release              0x00023565   Thumb Code    38  peer_database.o(i.write_buffer_record_release)
    i.write_enqueue                          0x00023590   Section        0  fds.o(i.write_enqueue)
    write_enqueue                            0x00023591   Thumb Code   234  fds.o(i.write_enqueue)
    i.write_execute                          0x00023684   Section        0  fds.o(i.write_execute)
    write_execute                            0x00023685   Thumb Code   236  fds.o(i.write_execute)
    i.write_space_free                       0x0002377c   Section        0  fds.o(i.write_space_free)
    write_space_free                         0x0002377d   Thumb Code    20  fds.o(i.write_space_free)
    i.write_space_reserve                    0x00023794   Section        0  fds.o(i.write_space_reserve)
    write_space_reserve                      0x00023795   Thumb Code    90  fds.o(i.write_space_reserve)
    .constdata                               0x000237f4   Section        8  boards.o(.constdata)
    m_board_led_list                         0x000237f4   Data           4  boards.o(.constdata)
    m_board_btn_list                         0x000237f8   Data           4  boards.o(.constdata)
    .constdata                               0x000237fc   Section       44  bsp.o(.constdata)
    m_bsp_leds_tmr                           0x000237fc   Data           4  bsp.o(.constdata)
    m_bsp_alert_tmr                          0x00023800   Data           4  bsp.o(.constdata)
    m_bsp_button_tmr                         0x00023804   Data           4  bsp.o(.constdata)
    app_buttons                              0x00023808   Data          32  bsp.o(.constdata)
    .constdata                               0x00023828   Section      108  gatt_cache_manager.o(.constdata)
    car_value_true                           0x0002382c   Data           4  gatt_cache_manager.o(.constdata)
    car_value_false                          0x00023830   Data           4  gatt_cache_manager.o(.constdata)
    .constdata                               0x00023894   Section        4  gatts_cache_manager.o(.constdata)
    service_changed_pending                  0x00023894   Data           4  gatts_cache_manager.o(.constdata)
    .constdata                               0x00023898   Section       16  gatts_cache_manager.o(.constdata)
    .constdata                               0x000238a8   Section        4  gatts_cache_manager.o(.constdata)
    service_changed_pending                  0x000238a8   Data           4  gatts_cache_manager.o(.constdata)
    .constdata                               0x000238ac   Section        8  id_manager.o(.constdata)
    m_evt_handlers                           0x000238ac   Data           8  id_manager.o(.constdata)
    .constdata                               0x000238b4   Section       14  nrf_ble_gatt.o(.constdata)
    .constdata                               0x000238c4   Section       24  peer_data_storage.o(.constdata)
    m_evt_handlers                           0x000238c4   Data           4  peer_data_storage.o(.constdata)
    .constdata                               0x000238dc   Section       16  peer_database.o(.constdata)
    m_evt_handlers                           0x000238dc   Data          16  peer_database.o(.constdata)
    .constdata                               0x000238ec   Section       44  peer_manager.o(.constdata)
    __func__                                 0x000238ec   Data           8  peer_manager.o(.constdata)
    __func__                                 0x000238fc   Data          12  peer_manager.o(.constdata)
    __func__                                 0x00023908   Data          16  peer_manager.o(.constdata)
    .constdata                               0x00023918   Section       20  peer_manager_handler.o(.constdata)
    .constdata                               0x0002392c   Section      120  security_dispatcher.o(.constdata)
    m_evt_handlers                           0x0002392c   Data           4  security_dispatcher.o(.constdata)
    __func__                                 0x00023994   Data          16  security_dispatcher.o(.constdata)
    .constdata                               0x000239a4   Section        8  security_manager.o(.constdata)
    m_evt_handlers                           0x000239a8   Data           4  security_manager.o(.constdata)
    .constdata                               0x000239ac   Section        4  nrfx_gpiote.o(.constdata)
    .constdata                               0x000239b0   Section        4  nrfx_uart.o(.constdata)
    irq_handlers                             0x000239b0   Data           4  nrfx_uart.o(.constdata)
    .constdata                               0x000239b4   Section        4  nrfx_uarte.o(.constdata)
    irq_handlers                             0x000239b4   Data           4  nrfx_uarte.o(.constdata)
    .constdata                               0x000239b8   Section        8  app_button.o(.constdata)
    m_detection_delay_timer_id               0x000239bc   Data           4  app_button.o(.constdata)
    .constdata                               0x000239c0   Section       20  app_timer2.o(.constdata)
    m_req_fifo                               0x000239c0   Data           4  app_timer2.o(.constdata)
    m_app_timer_sortlist                     0x000239c8   Data          12  app_timer2.o(.constdata)
    .constdata                               0x000239e0   Section        6  drv_rtc.o(.constdata)
    delay_machine_code                       0x000239e0   Data           6  drv_rtc.o(.constdata)
    .constdata                               0x000239e8   Section       24  fds.o(.constdata)
    m_queue                                  0x000239e8   Data           4  fds.o(.constdata)
    dirty_header                             0x000239ec   Data           4  fds.o(.constdata)
    page_tag_swap                            0x000239f0   Data           8  fds.o(.constdata)
    page_tag_data                            0x000239f8   Data           8  fds.o(.constdata)
    .constdata                               0x00023a00   Section       16  nrf_fprintf_format.o(.constdata)
    _aV2C                                    0x00023a00   Data          16  nrf_fprintf_format.o(.constdata)
    .constdata                               0x00023a10   Section       94  nrf_fstorage.o(.constdata)
    __func__                                 0x00023a10   Data          18  nrf_fstorage.o(.constdata)
    __func__                                 0x00023a22   Data          20  nrf_fstorage.o(.constdata)
    __func__                                 0x00023a36   Data          18  nrf_fstorage.o(.constdata)
    __func__                                 0x00023a48   Data          19  nrf_fstorage.o(.constdata)
    __func__                                 0x00023a5b   Data          19  nrf_fstorage.o(.constdata)
    .constdata                               0x00023a70   Section       16  nrf_fstorage_sd.o(.constdata)
    m_fifo                                   0x00023a70   Data           4  nrf_fstorage_sd.o(.constdata)
    m_flash_info                             0x00023a74   Data          12  nrf_fstorage_sd.o(.constdata)
    .constdata                               0x00023a80   Section       32  nrf_fstorage_sd.o(.constdata)
    .constdata                               0x00023aa0   Section       24  nrf_pwr_mgmt.o(.constdata)
    pwr_mgmt_data_array                      0x00023aa0   Data          24  nrf_pwr_mgmt.o(.constdata)
    .constdata                               0x00023ab8   Section       12  nrf_pwr_mgmt.o(.constdata)
    pwr_mgmt_data                            0x00023ab8   Data          12  nrf_pwr_mgmt.o(.constdata)
    .constdata                               0x00023ac4   Section      316  nrf_strerror.o(.constdata)
    m_unknown_str                            0x00023ac4   Data          19  nrf_strerror.o(.constdata)
    nrf_strerror_array                       0x00023ad8   Data         296  nrf_strerror.o(.constdata)
    .constdata                               0x00023c00   Section       12  nrf_log_backend_rtt.o(.constdata)
    .constdata                               0x00023c10   Section        6  nrf_log_backend_rtt.o(.constdata)
    delay_machine_code                       0x00023c10   Data           6  nrf_log_backend_rtt.o(.constdata)
    .constdata                               0x00023c18   Section       12  nrf_log_backend_uart.o(.constdata)
    .constdata                               0x00023c24   Section       32  nrf_log_backend_uart.o(.constdata)
    .constdata                               0x00023c44   Section       12  nrf_log_frontend.o(.constdata)
    m_log_push_ringbuf                       0x00023c44   Data          12  nrf_log_frontend.o(.constdata)
    .constdata                               0x00023c50   Section       16  nrf_sdh.o(.constdata)
    sdh_req_observers_array                  0x00023c50   Data          16  nrf_sdh.o(.constdata)
    .constdata                               0x00023c60   Section       40  nrf_sdh.o(.constdata)
    sdh_req_observers                        0x00023c64   Data          12  nrf_sdh.o(.constdata)
    sdh_state_observers                      0x00023c70   Data          12  nrf_sdh.o(.constdata)
    sdh_stack_observers                      0x00023c7c   Data          12  nrf_sdh.o(.constdata)
    .constdata                               0x00023c88   Section       16  nrf_sdh.o(.constdata)
    sdh_state_observers_array                0x00023c88   Data          16  nrf_sdh.o(.constdata)
    .constdata                               0x00023c98   Section       16  nrf_sdh.o(.constdata)
    sdh_stack_observers_array                0x00023c98   Data          16  nrf_sdh.o(.constdata)
    .constdata                               0x00023ca8   Section       32  nrf_sdh_ble.o(.constdata)
    sdh_ble_observers_array                  0x00023ca8   Data          32  nrf_sdh_ble.o(.constdata)
    .constdata                               0x00023cc8   Section       16  nrf_sdh_ble.o(.constdata)
    sdh_ble_observers                        0x00023ccc   Data          12  nrf_sdh_ble.o(.constdata)
    .constdata                               0x00023cd8   Section       16  nrf_sdh_soc.o(.constdata)
    sdh_soc_observers_array                  0x00023cd8   Data          16  nrf_sdh_soc.o(.constdata)
    .constdata                               0x00023ce8   Section       12  nrf_sdh_soc.o(.constdata)
    sdh_soc_observers                        0x00023ce8   Data          12  nrf_sdh_soc.o(.constdata)
    .constdata                               0x00023cf4   Section      129  ctype_o.o(.constdata)
    .constdata                               0x00023d78   Section        4  ctype_o.o(.constdata)
    table                                    0x00023d78   Data           4  ctype_o.o(.constdata)
    .conststring                             0x00023d7c   Section      420  gatt_cache_manager.o(.conststring)
    .conststring                             0x00023f20   Section      412  gatts_cache_manager.o(.conststring)
    .conststring                             0x000240bc   Section      232  peer_data_storage.o(.conststring)
    .conststring                             0x000241a4   Section      384  peer_database.o(.conststring)
    .conststring                             0x00024324   Section      144  peer_manager.o(.conststring)
    .conststring                             0x000243b4   Section      783  peer_manager_handler.o(.conststring)
    .conststring                             0x000246c4   Section      690  security_dispatcher.o(.conststring)
    .conststring                             0x00024978   Section      379  security_manager.o(.conststring)
    .conststring                             0x00024af4   Section       79  nrf_fstorage.o(.conststring)
    .conststring                             0x00024b44   Section     1003  nrf_strerror.o(.conststring)
    .conststring                             0x00024f30   Section      102  nrf_log_str_formatter.o(.conststring)
    .conststring                             0x00024f98   Section      392  nrf_sdh_ble.o(.conststring)
    .conststrlit                             0x00025120   Section       17  gatt_cache_manager.o(.conststrlit)
    .conststrlit                             0x00025134   Section       18  gatts_cache_manager.o(.conststrlit)
    .conststrlit                             0x00025148   Section       16  id_manager.o(.conststrlit)
    .conststrlit                             0x00025158   Section       13  nrf_ble_gatt.o(.conststrlit)
    .conststrlit                             0x00025168   Section       17  peer_data_storage.o(.conststrlit)
    .conststrlit                             0x0002517c   Section       17  peer_database.o(.conststrlit)
    .conststrlit                             0x00025190   Section       13  peer_manager.o(.conststrlit)
    .conststrlit                             0x000251a0   Section       21  peer_manager_handler.o(.conststrlit)
    .conststrlit                             0x000251b8   Section       17  security_dispatcher.o(.conststrlit)
    .conststrlit                             0x000251cc   Section       16  security_manager.o(.conststrlit)
    .conststrlit                             0x000251dc   Section        6  nrf_drv_clock.o(.conststrlit)
    .conststrlit                             0x000251e4   Section        6  nrfx_clock.o(.conststrlit)
    .conststrlit                             0x000251ec   Section        7  nrfx_gpiote.o(.conststrlit)
    .conststrlit                             0x000251f4   Section        4  nrfx_prs.o(.conststrlit)
    .conststrlit                             0x000251f8   Section        5  nrfx_uart.o(.conststrlit)
    .conststrlit                             0x00025200   Section        6  nrfx_uarte.o(.conststrlit)
    .conststrlit                             0x00025208   Section       11  app_button.o(.conststrlit)
    .conststrlit                             0x00025214   Section       10  app_timer2.o(.conststrlit)
    .conststrlit                             0x00025220   Section       13  nrf_fstorage.o(.conststrlit)
    .conststrlit                             0x00025230   Section        9  nrf_pwr_mgmt.o(.conststrlit)
    .conststrlit                             0x0002523c   Section        9  nrf_sortlist.o(.conststrlit)
    .conststrlit                             0x00025248   Section       33  nrf_log_default_backends.o(.conststrlit)
    .conststrlit                             0x0002526c   Section        4  nrf_log_frontend.o(.conststrlit)
    .conststrlit                             0x00025270   Section        8  nrf_sdh.o(.conststrlit)
    .conststrlit                             0x00025278   Section       12  nrf_sdh_ble.o(.conststrlit)
    .conststrlit                             0x00025284   Section       12  nrf_sdh_soc.o(.conststrlit)
    log_backends                             0x000252b0   Section       32  nrf_log_default_backends.o(log_backends)
    __tagsym$$used                           0x000252b0   Number         0  nrf_log_default_backends.o(log_backends)
    rtt_log_backend                          0x000252b0   Data          16  nrf_log_default_backends.o(log_backends)
    __tagsym$$used                           0x000252c0   Number         0  nrf_log_default_backends.o(log_backends)
    uart_log_backend                         0x000252c0   Data          16  nrf_log_default_backends.o(log_backends)
    log_const_data                           0x000252d0   Section        8  gatt_cache_manager.o(log_const_data)
    __tagsym$$used                           0x000252d0   Number         0  gatt_cache_manager.o(log_const_data)
    log_const_data                           0x000252d8   Section        8  gatts_cache_manager.o(log_const_data)
    __tagsym$$used                           0x000252d8   Number         0  gatts_cache_manager.o(log_const_data)
    log_const_data                           0x000252e0   Section        8  id_manager.o(log_const_data)
    __tagsym$$used                           0x000252e0   Number         0  id_manager.o(log_const_data)
    log_const_data                           0x000252e8   Section        8  nrf_ble_gatt.o(log_const_data)
    __tagsym$$used                           0x000252e8   Number         0  nrf_ble_gatt.o(log_const_data)
    log_const_data                           0x000252f0   Section        8  peer_data_storage.o(log_const_data)
    __tagsym$$used                           0x000252f0   Number         0  peer_data_storage.o(log_const_data)
    log_const_data                           0x000252f8   Section        8  peer_database.o(log_const_data)
    __tagsym$$used                           0x000252f8   Number         0  peer_database.o(log_const_data)
    log_const_data                           0x00025300   Section        8  peer_manager.o(log_const_data)
    __tagsym$$used                           0x00025300   Number         0  peer_manager.o(log_const_data)
    log_const_data                           0x00025308   Section        8  peer_manager_handler.o(log_const_data)
    __tagsym$$used                           0x00025308   Number         0  peer_manager_handler.o(log_const_data)
    log_const_data                           0x00025310   Section        8  security_dispatcher.o(log_const_data)
    __tagsym$$used                           0x00025310   Number         0  security_dispatcher.o(log_const_data)
    log_const_data                           0x00025318   Section        8  security_manager.o(log_const_data)
    __tagsym$$used                           0x00025318   Number         0  security_manager.o(log_const_data)
    log_const_data                           0x00025320   Section        8  nrf_drv_clock.o(log_const_data)
    __tagsym$$used                           0x00025320   Number         0  nrf_drv_clock.o(log_const_data)
    log_const_data                           0x00025328   Section        8  nrfx_clock.o(log_const_data)
    __tagsym$$used                           0x00025328   Number         0  nrfx_clock.o(log_const_data)
    log_const_data                           0x00025330   Section        8  nrfx_gpiote.o(log_const_data)
    __tagsym$$used                           0x00025330   Number         0  nrfx_gpiote.o(log_const_data)
    log_const_data                           0x00025338   Section        8  nrfx_prs.o(log_const_data)
    __tagsym$$used                           0x00025338   Number         0  nrfx_prs.o(log_const_data)
    log_const_data                           0x00025340   Section        8  nrfx_uart.o(log_const_data)
    __tagsym$$used                           0x00025340   Number         0  nrfx_uart.o(log_const_data)
    log_const_data                           0x00025348   Section        8  nrfx_uarte.o(log_const_data)
    __tagsym$$used                           0x00025348   Number         0  nrfx_uarte.o(log_const_data)
    log_const_data                           0x00025350   Section        8  app_button.o(log_const_data)
    __tagsym$$used                           0x00025350   Number         0  app_button.o(log_const_data)
    log_const_data                           0x00025358   Section        8  app_timer2.o(log_const_data)
    __tagsym$$used                           0x00025358   Number         0  app_timer2.o(log_const_data)
    log_const_data                           0x00025360   Section        8  nrf_fstorage.o(log_const_data)
    __tagsym$$used                           0x00025360   Number         0  nrf_fstorage.o(log_const_data)
    log_const_data                           0x00025368   Section        8  nrf_pwr_mgmt.o(log_const_data)
    __tagsym$$used                           0x00025368   Number         0  nrf_pwr_mgmt.o(log_const_data)
    log_const_data                           0x00025370   Section        8  nrf_sortlist.o(log_const_data)
    __tagsym$$used                           0x00025370   Number         0  nrf_sortlist.o(log_const_data)
    log_const_data                           0x00025378   Section        8  nrf_log_frontend.o(log_const_data)
    __tagsym$$used                           0x00025378   Number         0  nrf_log_frontend.o(log_const_data)
    log_const_data                           0x00025380   Section        8  nrf_sdh.o(log_const_data)
    __tagsym$$used                           0x00025380   Number         0  nrf_sdh.o(log_const_data)
    log_const_data                           0x00025388   Section        8  nrf_sdh_ble.o(log_const_data)
    __tagsym$$used                           0x00025388   Number         0  nrf_sdh_ble.o(log_const_data)
    log_const_data                           0x00025390   Section        8  nrf_sdh_soc.o(log_const_data)
    __tagsym$$used                           0x00025390   Number         0  nrf_sdh_soc.o(log_const_data)
    nrf_balloc                               0x00025398   Section       20  nrf_log_frontend.o(nrf_balloc)
    __tagsym$$used                           0x00025398   Number         0  nrf_log_frontend.o(nrf_balloc)
    sdh_ble_observers0                       0x000253ac   Section        8  ble_conn_state.o(sdh_ble_observers0)
    __tagsym$$used                           0x000253ac   Number         0  ble_conn_state.o(sdh_ble_observers0)
    m_ble_evt_observer                       0x000253ac   Data           8  ble_conn_state.o(sdh_ble_observers0)
    sdh_ble_observers1                       0x000253b4   Section       16  main.o(sdh_ble_observers1)
    __tagsym$$used                           0x000253b4   Number         0  main.o(sdh_ble_observers1)
    m_gatt_obs                               0x000253b4   Data           8  main.o(sdh_ble_observers1)
    __tagsym$$used                           0x000253bc   Number         0  main.o(sdh_ble_observers1)
    m_advertising_ble_obs                    0x000253bc   Data           8  main.o(sdh_ble_observers1)
    sdh_ble_observers1                       0x000253c4   Section        8  bsp_btn_ble.o(sdh_ble_observers1)
    __tagsym$$used                           0x000253c4   Number         0  bsp_btn_ble.o(sdh_ble_observers1)
    m_ble_observer                           0x000253c4   Data           8  bsp_btn_ble.o(sdh_ble_observers1)
    sdh_ble_observers1                       0x000253cc   Section        8  ble_conn_params.o(sdh_ble_observers1)
    __tagsym$$used                           0x000253cc   Number         0  ble_conn_params.o(sdh_ble_observers1)
    m_ble_observer                           0x000253cc   Data           8  ble_conn_params.o(sdh_ble_observers1)
    sdh_ble_observers1                       0x000253d4   Section        8  peer_manager.o(sdh_ble_observers1)
    __tagsym$$used                           0x000253d4   Number         0  peer_manager.o(sdh_ble_observers1)
    m_ble_evt_observer                       0x000253d4   Data           8  peer_manager.o(sdh_ble_observers1)
    sdh_ble_observers2                       0x000253dc   Section        8  main.o(sdh_ble_observers2)
    __tagsym$$used                           0x000253dc   Number         0  main.o(sdh_ble_observers2)
    m_qwr_obs                                0x000253dc   Data           8  main.o(sdh_ble_observers2)
    sdh_ble_observers3                       0x000253e4   Section        8  main.o(sdh_ble_observers3)
    __tagsym$$used                           0x000253e4   Number         0  main.o(sdh_ble_observers3)
    m_ble_observer                           0x000253e4   Data           8  main.o(sdh_ble_observers3)
    sdh_req_observers0                       0x000253ec   Section        8  nrf_fstorage_sd.o(sdh_req_observers0)
    __tagsym$$used                           0x000253ec   Number         0  nrf_fstorage_sd.o(sdh_req_observers0)
    sdh_soc_observers0                       0x000253f4   Section        8  nrf_drv_clock.o(sdh_soc_observers0)
    __tagsym$$used                           0x000253f4   Number         0  nrf_drv_clock.o(sdh_soc_observers0)
    m_soc_evt_observer                       0x000253f4   Data           8  nrf_drv_clock.o(sdh_soc_observers0)
    sdh_soc_observers0                       0x000253fc   Section        8  nrf_fstorage_sd.o(sdh_soc_observers0)
    __tagsym$$used                           0x000253fc   Number         0  nrf_fstorage_sd.o(sdh_soc_observers0)
    m_sys_obs                                0x000253fc   Data           8  nrf_fstorage_sd.o(sdh_soc_observers0)
    sdh_stack_observers0                     0x00025404   Section        8  nrf_sdh_ble.o(sdh_stack_observers0)
    __tagsym$$used                           0x00025404   Number         0  nrf_sdh_ble.o(sdh_stack_observers0)
    m_nrf_sdh_ble_evts_poll                  0x00025404   Data           8  nrf_sdh_ble.o(sdh_stack_observers0)
    sdh_stack_observers0                     0x0002540c   Section        8  nrf_sdh_soc.o(sdh_stack_observers0)
    __tagsym$$used                           0x0002540c   Number         0  nrf_sdh_soc.o(sdh_stack_observers0)
    m_nrf_sdh_soc_evts_poll                  0x0002540c   Data           8  nrf_sdh_soc.o(sdh_stack_observers0)
    sdh_state_observers0                     0x00025414   Section        8  nrf_drv_clock.o(sdh_state_observers0)
    __tagsym$$used                           0x00025414   Number         0  nrf_drv_clock.o(sdh_state_observers0)
    m_sd_state_observer                      0x00025414   Data           8  nrf_drv_clock.o(sdh_state_observers0)
    sdh_state_observers0                     0x0002541c   Section        8  nrf_fstorage_sd.o(sdh_state_observers0)
    __tagsym$$used                           0x0002541c   Number         0  nrf_fstorage_sd.o(sdh_state_observers0)
    m_state_obs                              0x0002541c   Data           8  nrf_fstorage_sd.o(sdh_state_observers0)
    .data                                    0x20001a40   Section        6  main.o(.data)
    m_conn_handle                            0x20001a40   Data           2  main.o(.data)
    m_adv_uuids                              0x20001a42   Data           4  main.o(.data)
    .data                                    0x20001a48   Section       16  bsp.o(.data)
    m_stable_state                           0x20001a48   Data           1  bsp.o(.data)
    m_leds_clear                             0x20001a49   Data           1  bsp.o(.data)
    m_alert_on                               0x20001a4a   Data           1  bsp.o(.data)
    current_long_push_pin_no                 0x20001a4b   Data           1  bsp.o(.data)
    m_indication_type                        0x20001a4c   Data           4  bsp.o(.data)
    m_registered_callback                    0x20001a50   Data           4  bsp.o(.data)
    release_event_at_push                    0x20001a54   Data           4  bsp.o(.data)
    .data                                    0x20001a58   Section        8  bsp_btn_ble.o(.data)
    m_error_handler                          0x20001a58   Data           4  bsp_btn_ble.o(.data)
    m_num_connections                        0x20001a5c   Data           4  bsp_btn_ble.o(.data)
    .data                                    0x20001a60   Section        8  ble_conn_params.o(.data)
    m_preferred_conn_params                  0x20001a60   Data           8  ble_conn_params.o(.data)
    .data                                    0x20001a68   Section       16  gatt_cache_manager.o(.data)
    m_module_initialized                     0x20001a68   Data           1  gatt_cache_manager.o(.data)
    m_flag_local_db_update_pending           0x20001a69   Data           1  gatt_cache_manager.o(.data)
    m_flag_local_db_apply_pending            0x20001a6a   Data           1  gatt_cache_manager.o(.data)
    m_flag_service_changed_pending           0x20001a6b   Data           1  gatt_cache_manager.o(.data)
    m_flag_service_changed_sent              0x20001a6c   Data           1  gatt_cache_manager.o(.data)
    m_flag_car_update_pending                0x20001a6d   Data           1  gatt_cache_manager.o(.data)
    m_flag_car_handle_queried                0x20001a6e   Data           1  gatt_cache_manager.o(.data)
    m_flag_car_value_queried                 0x20001a6f   Data           1  gatt_cache_manager.o(.data)
    m_evt_handlers                           0x20001a70   Data           4  gatt_cache_manager.o(.data)
    m_db_update_in_progress_mutex            0x20001a74   Data           4  gatt_cache_manager.o(.data)
    .data                                    0x20001a78   Section       12  gatts_cache_manager.o(.data)
    m_module_initialized                     0x20001a78   Data           1  gatts_cache_manager.o(.data)
    start_handle                             0x20001a7a   Data           2  gatts_cache_manager.o(.data)
    m_current_sc_store_peer_id               0x20001a7c   Data           2  gatts_cache_manager.o(.data)
    m_evt_handlers                           0x20001a80   Data           4  gatts_cache_manager.o(.data)
    .data                                    0x20001a84   Section       12  peer_data_storage.o(.data)
    m_module_initialized                     0x20001a84   Data           1  peer_data_storage.o(.data)
    m_peer_delete_deferred                   0x20001a85   Data           1  peer_data_storage.o(.data)
    m_fds_ftok                               0x20001a88   Data           8  peer_data_storage.o(.data)
    .data                                    0x20001a90   Section        8  peer_database.o(.data)
    m_pending_store                          0x20001a90   Data           1  peer_database.o(.data)
    m_module_initialized                     0x20001a91   Data           1  peer_database.o(.data)
    mutex_memory                             0x20001a94   Data           4  peer_database.o(.data)
    .data                                    0x20001a98   Section       16  peer_manager.o(.data)
    m_module_initialized                     0x20001a98   Data           1  peer_manager.o(.data)
    m_peer_rank_initialized                  0x20001a99   Data           1  peer_manager.o(.data)
    m_deleting_all                           0x20001a9a   Data           1  peer_manager.o(.data)
    m_n_registrants                          0x20001a9b   Data           1  peer_manager.o(.data)
    m_highest_ranked_peer                    0x20001a9c   Data           2  peer_manager.o(.data)
    m_peer_rank_token                        0x20001aa0   Data           4  peer_manager.o(.data)
    m_current_highest_peer_rank              0x20001aa4   Data           4  peer_manager.o(.data)
    .data                                    0x20001aa8   Section       96  peer_manager_handler.o(.data)
    flash_cleaning                           0x20001aa8   Data           1  peer_manager_handler.o(.data)
    flash_write_after_gc                     0x20001aa9   Data           1  peer_manager_handler.o(.data)
    rank_queue_wr                            0x20001aac   Data           4  peer_manager_handler.o(.data)
    m_data_action_str                        0x20001ab0   Data           8  peer_manager_handler.o(.data)
    m_roles_str                              0x20001ab8   Data          12  peer_manager_handler.o(.data)
    m_sec_procedure_str                      0x20001ac4   Data          12  peer_manager_handler.o(.data)
    m_data_id_str                            0x20001ad0   Data          40  peer_manager_handler.o(.data)
    rank_queue                               0x20001af8   Data          16  peer_manager_handler.o(.data)
    .data                                    0x20001b08   Section        5  security_dispatcher.o(.data)
    m_flag_sec_proc                          0x20001b08   Data           1  security_dispatcher.o(.data)
    m_flag_sec_proc_pairing                  0x20001b09   Data           1  security_dispatcher.o(.data)
    m_flag_sec_proc_bonding                  0x20001b0a   Data           1  security_dispatcher.o(.data)
    m_flag_allow_repairing                   0x20001b0b   Data           1  security_dispatcher.o(.data)
    m_module_initialized                     0x20001b0c   Data           1  security_dispatcher.o(.data)
    .data                                    0x20001b10   Section       21  security_manager.o(.data)
    m_sec_params_set                         0x20001b10   Data           1  security_manager.o(.data)
    m_flag_link_secure_pending_busy          0x20001b11   Data           1  security_manager.o(.data)
    m_flag_link_secure_force_repairing       0x20001b12   Data           1  security_manager.o(.data)
    m_flag_link_secure_null_params           0x20001b13   Data           1  security_manager.o(.data)
    m_flag_params_reply_pending_busy         0x20001b14   Data           1  security_manager.o(.data)
    m_module_initialized                     0x20001b15   Data           1  security_manager.o(.data)
    mp_sec_params                            0x20001b18   Data           4  security_manager.o(.data)
    m_p_public_key                           0x20001b1c   Data           4  security_manager.o(.data)
    m_sec_params                             0x20001b20   Data           5  security_manager.o(.data)
    .data                                    0x20001b28   Section       12  nrf_drv_uart.o(.data)
    m_handlers                               0x20001b2c   Data           4  nrf_drv_uart.o(.data)
    m_contexts                               0x20001b30   Data           4  nrf_drv_uart.o(.data)
    .data                                    0x20001b34   Section        8  nrfx_clock.o(.data)
    m_clock_cb                               0x20001b34   Data           8  nrfx_clock.o(.data)
    .data                                    0x20001b3c   Section        8  nrfx_prs.o(.data)
    m_prs_box_2                              0x20001b3c   Data           8  nrfx_prs.o(.data)
    .data                                    0x20001b48   Section       24  app_button.o(.data)
    m_button_count                           0x20001b48   Data           1  app_button.o(.data)
    mp_buttons                               0x20001b4c   Data           4  app_button.o(.data)
    m_detection_delay                        0x20001b50   Data           4  app_button.o(.data)
    m_pin_active                             0x20001b58   Data           8  app_button.o(.data)
    .data                                    0x20001b60   Section       32  app_timer2.o(.data)
    m_global_active                          0x20001b60   Data           1  app_timer2.o(.data)
    mp_active_timer                          0x20001b64   Data           4  app_timer2.o(.data)
    m_rtc_inst                               0x20001b68   Data           8  app_timer2.o(.data)
    m_base_counter                           0x20001b70   Data           8  app_timer2.o(.data)
    m_stamp64                                0x20001b78   Data           8  app_timer2.o(.data)
    .data                                    0x20001b80   Section        4  app_timer2.o(.data)
    m_app_timer_sortlist_sortlist_cb         0x20001b80   Data           4  app_timer2.o(.data)
    .data                                    0x20001b84   Section       12  drv_rtc.o(.data)
    m_handlers                               0x20001b84   Data           4  drv_rtc.o(.data)
    m_cb                                     0x20001b88   Data           8  drv_rtc.o(.data)
    .data                                    0x20001b90   Section       48  fds.o(.data)
    page                                     0x20001b90   Data           2  fds.o(.data)
    m_p_cur_op                               0x20001b94   Data           4  fds.o(.data)
    m_iget_ctx                               0x20001b98   Data           4  fds.o(.data)
    m_queued_op_cnt                          0x20001b9c   Data           4  fds.o(.data)
    m_users                                  0x20001ba0   Data           4  fds.o(.data)
    m_latest_rec_id                          0x20001ba4   Data           4  fds.o(.data)
    tok                                      0x20001ba8   Data           8  fds.o(.data)
    m_flags                                  0x20001bb0   Data           8  fds.o(.data)
    m_swap_page                              0x20001bb8   Data           8  fds.o(.data)
    .data                                    0x20001bc0   Section        8  nrf_fstorage_sd.o(.data)
    m_p_cur_op                               0x20001bc0   Data           4  nrf_fstorage_sd.o(.data)
    m_iget_ctx                               0x20001bc4   Data           4  nrf_fstorage_sd.o(.data)
    .data                                    0x20001bc8   Section        8  nrf_pwr_mgmt.o(.data)
    m_pwr_mgmt_evt                           0x20001bc8   Data           1  nrf_pwr_mgmt.o(.data)
    m_shutdown_started                       0x20001bc9   Data           1  nrf_pwr_mgmt.o(.data)
    m_sysoff_mtx                             0x20001bcc   Data           4  nrf_pwr_mgmt.o(.data)
    .data                                    0x20001bd0   Section        1  nrf_log_backend_rtt.o(.data)
    m_host_present                           0x20001bd0   Data           1  nrf_log_backend_rtt.o(.data)
    .data                                    0x20001bd4   Section       24  nrf_log_backend_uart.o(.data)
    m_xfer_done                              0x20001bd4   Data           1  nrf_log_backend_uart.o(.data)
    m_async_mode                             0x20001bd5   Data           1  nrf_log_backend_uart.o(.data)
    .data                                    0x20001bec   Section        8  nrf_log_default_backends.o(.data)
    log_backend_cb_rtt_log_backend           0x20001bec   Data           8  nrf_log_default_backends.o(.data)
    .data                                    0x20001bf4   Section        8  nrf_log_default_backends.o(.data)
    log_backend_cb_uart_log_backend          0x20001bf4   Data           8  nrf_log_default_backends.o(.data)
    .data                                    0x20001bfc   Section        4  nrf_log_frontend.o(.data)
    m_buffer_mask                            0x20001bfc   Data           4  nrf_log_frontend.o(.data)
    .data                                    0x20001c00   Section        8  nrf_log_frontend.o(.data)
    log_mempool_nrf_balloc_pool_stack        0x20001c00   Data           8  nrf_log_frontend.o(.data)
    .data                                    0x20001c08   Section        8  nrf_log_frontend.o(.data)
    log_mempool_nrf_balloc_cb                0x20001c08   Data           8  nrf_log_frontend.o(.data)
    .data                                    0x20001c10   Section       64  nrf_log_str_formatter.o(.data)
    m_freq                                   0x20001c10   Data           4  nrf_log_str_formatter.o(.data)
    m_timestamp_div                          0x20001c14   Data           4  nrf_log_str_formatter.o(.data)
    severity_names                           0x20001c18   Data          20  nrf_log_str_formatter.o(.data)
    m_colors                                 0x20001c2c   Data          36  nrf_log_str_formatter.o(.data)
    .data                                    0x20001c50   Section        3  nrf_sdh.o(.data)
    m_nrf_sdh_enabled                        0x20001c50   Data           1  nrf_sdh.o(.data)
    m_nrf_sdh_suspended                      0x20001c51   Data           1  nrf_sdh.o(.data)
    m_nrf_sdh_continue                       0x20001c52   Data           1  nrf_sdh.o(.data)
    .data                                    0x20001c53   Section        1  nrf_sdh_ble.o(.data)
    m_stack_is_enabled                       0x20001c53   Data           1  nrf_sdh_ble.o(.data)
    .data                                    0x20001c54   Section        4  system_nrf52810.o(.data)
    __tagsym$$used                           0x20001c54   Number         0  system_nrf52810.o(.data)
    fs_data                                  0x20001c58   Section       20  fds.o(fs_data)
    __tagsym$$used                           0x20001c58   Number         0  fds.o(fs_data)
    .bss                                     0x20001c6c   Section      276  main.o(.bss)
    m_gatt                                   0x20001c6c   Data          16  main.o(.bss)
    m_qwr                                    0x20001c7c   Data          12  main.o(.bss)
    m_advertising                            0x20001c88   Data         248  main.o(.bss)
    .bss                                     0x20001d80   Section       32  bsp.o(.bss)
    m_bsp_leds_tmr_data                      0x20001d80   Data          32  bsp.o(.bss)
    .bss                                     0x20001da0   Section       32  bsp.o(.bss)
    m_bsp_alert_tmr_data                     0x20001da0   Data          32  bsp.o(.bss)
    .bss                                     0x20001dc0   Section       12  bsp.o(.bss)
    m_events_list                            0x20001dc0   Data          12  bsp.o(.bss)
    .bss                                     0x20001dd0   Section       32  bsp.o(.bss)
    m_bsp_button_tmr_data                    0x20001dd0   Data          32  bsp.o(.bss)
    .bss                                     0x20001df0   Section       80  ble_conn_params.o(.bss)
    m_timer_data                             0x20001df0   Data          32  ble_conn_params.o(.bss)
    m_conn_params_instances                  0x20001e10   Data          20  ble_conn_params.o(.bss)
    m_conn_params_config                     0x20001e24   Data          28  ble_conn_params.o(.bss)
    .bss                                     0x20001e40   Section      124  ble_conn_state.o(.bss)
    m_bcs                                    0x20001e40   Data         124  ble_conn_state.o(.bss)
    .bss                                     0x20001ebc   Section      216  id_manager.o(.bss)
    m_connections                            0x20001ebc   Data         200  id_manager.o(.bss)
    m_wlisted_peers                          0x20001f84   Data          16  id_manager.o(.bss)
    .bss                                     0x20001f94   Section      384  peer_database.o(.bss)
    buffer_memory                            0x20001f94   Data         320  peer_database.o(.bss)
    m_write_buffer                           0x200020d4   Data          16  peer_database.o(.bss)
    m_write_buffer_records                   0x200020e4   Data          48  peer_database.o(.bss)
    .bss                                     0x20002114   Section       64  peer_id.o(.bss)
    m_pi                                     0x20002114   Data          64  peer_id.o(.bss)
    .bss                                     0x20002154   Section       12  peer_manager.o(.bss)
    m_evt_handlers                           0x20002154   Data          12  peer_manager.o(.bss)
    .bss                                     0x20002160   Section       64  security_dispatcher.o(.bss)
    m_peer_pk                                0x20002160   Data          64  security_dispatcher.o(.bss)
    .bss                                     0x200021a0   Section       20  nrf_drv_clock.o(.bss)
    m_clock_cb                               0x200021a0   Data          20  nrf_drv_clock.o(.bss)
    .bss                                     0x200021b4   Section       92  nrfx_gpiote.o(.bss)
    m_cb                                     0x200021b4   Data          92  nrfx_gpiote.o(.bss)
    .bss                                     0x20002210   Section       44  nrfx_uart.o(.bss)
    m_cb                                     0x20002210   Data          44  nrfx_uart.o(.bss)
    .bss                                     0x2000223c   Section       36  nrfx_uarte.o(.bss)
    m_cb                                     0x2000223c   Data          36  nrfx_uarte.o(.bss)
    .bss                                     0x20002260   Section       32  app_button.o(.bss)
    m_detection_delay_timer_id_data          0x20002260   Data          32  app_button.o(.bss)
    .bss                                     0x20002280   Section       16  app_button.o(.bss)
    m_pin_states                             0x20002280   Data          16  app_button.o(.bss)
    .bss                                     0x20002290   Section       16  app_timer2.o(.bss)
    m_req_fifo_inst                          0x20002290   Data          16  app_timer2.o(.bss)
    .bss                                     0x200022a0   Section       88  app_timer2.o(.bss)
    m_req_fifo_data                          0x200022a0   Data          88  app_timer2.o(.bss)
    .bss                                     0x200022f8   Section       12  app_util_platform.o(.bss)
    .bss                                     0x20002304   Section       16  fds.o(.bss)
    m_queue_inst                             0x20002304   Data          16  fds.o(.bss)
    .bss                                     0x20002314   Section      224  fds.o(.bss)
    desc                                     0x20002314   Data          12  fds.o(.bss)
    m_cb_table                               0x20002320   Data          16  fds.o(.bss)
    m_queue_data                             0x20002330   Data         140  fds.o(.bss)
    m_pages                                  0x200023bc   Data          40  fds.o(.bss)
    m_gc                                     0x200023e4   Data          16  fds.o(.bss)
    .bss                                     0x200023f4   Section       16  nrf_fstorage_sd.o(.bss)
    m_fifo_inst                              0x200023f4   Data          16  nrf_fstorage_sd.o(.bss)
    .bss                                     0x20002404   Section      160  nrf_fstorage_sd.o(.bss)
    m_fifo_data                              0x20002404   Data         140  nrf_fstorage_sd.o(.bss)
    m_flags                                  0x20002490   Data          20  nrf_fstorage_sd.o(.bss)
    .bss                                     0x200024a4   Section       12  nrf_pwr_mgmt.o(.bss)
    m_handlers_iter                          0x200024a4   Data          12  nrf_pwr_mgmt.o(.bss)
    .bss                                     0x200024b0   Section       64  nrf_log_backend_rtt.o(.bss)
    m_string_buff                            0x200024b0   Data          64  nrf_log_backend_rtt.o(.bss)
    .bss                                     0x200024f0   Section       64  nrf_log_backend_uart.o(.bss)
    m_string_buff                            0x200024f0   Data          64  nrf_log_backend_uart.o(.bss)
    .bss                                     0x20002530   Section      192  nrf_log_frontend.o(.bss)
    log_mempool_nrf_balloc_pool_mem          0x20002530   Data         192  nrf_log_frontend.o(.bss)
    .bss                                     0x200025f0   Section      128  nrf_log_frontend.o(.bss)
    m_log_push_ringbuf_buf                   0x200025f0   Data         128  nrf_log_frontend.o(.bss)
    .bss                                     0x20002670   Section       24  nrf_log_frontend.o(.bss)
    m_log_push_ringbuf_cb                    0x20002670   Data          24  nrf_log_frontend.o(.bss)
    .bss                                     0x20002688   Section     1056  nrf_log_frontend.o(.bss)
    m_log_data                               0x20002688   Data        1056  nrf_log_frontend.o(.bss)
    .bss                                     0x20002aa8   Section      648  segger_rtt.o(.bss)
    _acUpBuffer                              0x20002b20   Data         512  segger_rtt.o(.bss)
    _acDownBuffer                            0x20002d20   Data          16  segger_rtt.o(.bss)
    STACK                                    0x20002d30   Section     2048  arm_startup_nrf52810.o(STACK)

    Global Symbols

    Symbol Name                              Value     Ov Type        Size  Object(Section)

    BuildAttributes$$THM_ISAv4$E$P$D$K$B$S$7EM$PE$A:L22UL41UL21$X:L11$S22US41US21$IEEE1$IW$USESV6$~STKCKD$USESV7$~SHL$OSPACE$EBA8$MICROLIB$REQ8$EABIv2 0x00000000   Number         0  anon$$obj.o ABSOLUTE
    __ARM_use_no_argv                        0x00000000   Number         0  main.o ABSOLUTE
    __use_no_errno                           0x00000000   Number         0  useno.o ABSOLUTE
    __use_no_exception_handling              0x00000000   Number         0  useno.o ABSOLUTE
    __use_no_fp                              0x00000000   Number         0  useno.o ABSOLUTE
    __use_no_heap                            0x00000000   Number         0  useno.o ABSOLUTE
    __use_no_heap_region                     0x00000000   Number         0  useno.o ABSOLUTE
    __use_no_semihosting                     0x00000000   Number         0  useno.o ABSOLUTE
    __use_no_semihosting_swi                 0x00000000   Number         0  useno.o ABSOLUTE
    __use_no_signal_handling                 0x00000000   Number         0  useno.o ABSOLUTE
    __cpp_initialize__aeabi_                  - Undefined Weak Reference
    __cxa_finalize                            - Undefined Weak Reference
    _clock_init                               - Undefined Weak Reference
    _microlib_exit                            - Undefined Weak Reference
    log_dynamic_data$$Base                    - Undefined Reference
    pwr_mgmt_data0$$Base                      - Undefined Reference
    pwr_mgmt_data0$$Limit                     - Undefined Reference
    pwr_mgmt_data1$$Base                      - Undefined Reference
    pwr_mgmt_data1$$Limit                     - Undefined Reference
    pwr_mgmt_data2$$Base                      - Undefined Reference
    pwr_mgmt_data2$$Limit                     - Undefined Reference
    sdh_req_observers1$$Base                  - Undefined Reference
    sdh_req_observers1$$Limit                 - Undefined Reference
    sdh_soc_observers1$$Base                  - Undefined Reference
    sdh_soc_observers1$$Limit                 - Undefined Reference
    sdh_stack_observers1$$Base                - Undefined Reference
    sdh_stack_observers1$$Limit               - Undefined Reference
    sdh_state_observers1$$Base                - Undefined Reference
    sdh_state_observers1$$Limit               - Undefined Reference
    __Vectors_Size                           0x00000200   Number         0  arm_startup_nrf52810.o ABSOLUTE
    __Vectors                                0x00019000   Data           4  arm_startup_nrf52810.o(RESET)
    __Vectors_End                            0x00019200   Data           0  arm_startup_nrf52810.o(RESET)
    __main                                   0x00019201   Thumb Code     0  entry.o(.ARM.Collect$$$$00000000)
    _main_stk                                0x00019201   Thumb Code     0  entry2.o(.ARM.Collect$$$$00000001)
    _main_scatterload                        0x00019205   Thumb Code     0  entry5.o(.ARM.Collect$$$$00000004)
    __main_after_scatterload                 0x00019209   Thumb Code     0  entry5.o(.ARM.Collect$$$$00000004)
    _main_clock                              0x00019209   Thumb Code     0  entry7b.o(.ARM.Collect$$$$00000008)
    _main_cpp_init                           0x00019209   Thumb Code     0  entry8b.o(.ARM.Collect$$$$0000000A)
    _main_init                               0x00019209   Thumb Code     0  entry9a.o(.ARM.Collect$$$$0000000B)
    __rt_final_cpp                           0x00019211   Thumb Code     0  entry10a.o(.ARM.Collect$$$$0000000D)
    __rt_final_exit                          0x00019211   Thumb Code     0  entry11a.o(.ARM.Collect$$$$0000000F)
    __asm___12_nrf_atfifo_c_51f461e1__nrf_atfifo_wspace_req 0x00019215   Thumb Code    56  nrf_atfifo.o(.emb_text)
    __asm___12_nrf_atfifo_c_51f461e1__nrf_atfifo_wspace_close 0x0001924d   Thumb Code    18  nrf_atfifo.o(.emb_text)
    __asm___12_nrf_atfifo_c_51f461e1__nrf_atfifo_rspace_req 0x0001925f   Thumb Code    58  nrf_atfifo.o(.emb_text)
    __asm___12_nrf_atfifo_c_51f461e1__nrf_atfifo_rspace_close 0x00019299   Thumb Code    18  nrf_atfifo.o(.emb_text)
    __asm___12_nrf_atfifo_c_51f461e1__nrf_atfifo_space_clear 0x000192ab   Thumb Code    50  nrf_atfifo.o(.emb_text)
    __asm___12_nrf_atomic_c_85ca2469__nrf_atomic_internal_mov 0x000192dd   Thumb Code    24  nrf_atomic.o(.emb_text)
    __asm___12_nrf_atomic_c_85ca2469__nrf_atomic_internal_orr 0x000192f5   Thumb Code    26  nrf_atomic.o(.emb_text)
    __asm___12_nrf_atomic_c_85ca2469__nrf_atomic_internal_and 0x0001930f   Thumb Code    26  nrf_atomic.o(.emb_text)
    __asm___12_nrf_atomic_c_85ca2469__nrf_atomic_internal_eor 0x00019329   Thumb Code    26  nrf_atomic.o(.emb_text)
    __asm___12_nrf_atomic_c_85ca2469__nrf_atomic_internal_add 0x00019343   Thumb Code    26  nrf_atomic.o(.emb_text)
    __asm___12_nrf_atomic_c_85ca2469__nrf_atomic_internal_sub 0x0001935d   Thumb Code    26  nrf_atomic.o(.emb_text)
    __asm___12_nrf_atomic_c_85ca2469__nrf_atomic_internal_cmp_exch 0x00019377   Thumb Code    42  nrf_atomic.o(.emb_text)
    __asm___12_nrf_atomic_c_85ca2469__nrf_atomic_internal_sub_hs 0x000193a1   Thumb Code    30  nrf_atomic.o(.emb_text)
    Reset_Handler                            0x000193c1   Thumb Code    42  arm_startup_nrf52810.o(.text)
    NMI_Handler                              0x000193eb   Thumb Code     2  arm_startup_nrf52810.o(.text)
    HardFault_Handler                        0x000193ed   Thumb Code     2  arm_startup_nrf52810.o(.text)
    MemoryManagement_Handler                 0x000193ef   Thumb Code     2  arm_startup_nrf52810.o(.text)
    BusFault_Handler                         0x000193f1   Thumb Code     2  arm_startup_nrf52810.o(.text)
    UsageFault_Handler                       0x000193f3   Thumb Code     2  arm_startup_nrf52810.o(.text)
    SVC_Handler                              0x000193f5   Thumb Code     2  arm_startup_nrf52810.o(.text)
    DebugMon_Handler                         0x000193f7   Thumb Code     2  arm_startup_nrf52810.o(.text)
    PendSV_Handler                           0x000193f9   Thumb Code     2  arm_startup_nrf52810.o(.text)
    SysTick_Handler                          0x000193fb   Thumb Code     2  arm_startup_nrf52810.o(.text)
    CCM_AAR_IRQHandler                       0x000193fd   Thumb Code     0  arm_startup_nrf52810.o(.text)
    COMP_IRQHandler                          0x000193fd   Thumb Code     0  arm_startup_nrf52810.o(.text)
    ECB_IRQHandler                           0x000193fd   Thumb Code     0  arm_startup_nrf52810.o(.text)
    PDM_IRQHandler                           0x000193fd   Thumb Code     0  arm_startup_nrf52810.o(.text)
    PWM0_IRQHandler                          0x000193fd   Thumb Code     0  arm_startup_nrf52810.o(.text)
    QDEC_IRQHandler                          0x000193fd   Thumb Code     0  arm_startup_nrf52810.o(.text)
    RADIO_IRQHandler                         0x000193fd   Thumb Code     0  arm_startup_nrf52810.o(.text)
    RNG_IRQHandler                           0x000193fd   Thumb Code     0  arm_startup_nrf52810.o(.text)
    RTC0_IRQHandler                          0x000193fd   Thumb Code     0  arm_startup_nrf52810.o(.text)
    SAADC_IRQHandler                         0x000193fd   Thumb Code     0  arm_startup_nrf52810.o(.text)
    SPIM0_SPIS0_SPI0_IRQHandler              0x000193fd   Thumb Code     0  arm_startup_nrf52810.o(.text)
    SWI0_EGU0_IRQHandler                     0x000193fd   Thumb Code     0  arm_startup_nrf52810.o(.text)
    SWI1_EGU1_IRQHandler                     0x000193fd   Thumb Code     0  arm_startup_nrf52810.o(.text)
    SWI3_IRQHandler                          0x000193fd   Thumb Code     0  arm_startup_nrf52810.o(.text)
    SWI4_IRQHandler                          0x000193fd   Thumb Code     0  arm_startup_nrf52810.o(.text)
    SWI5_IRQHandler                          0x000193fd   Thumb Code     0  arm_startup_nrf52810.o(.text)
    TEMP_IRQHandler                          0x000193fd   Thumb Code     0  arm_startup_nrf52810.o(.text)
    TIMER0_IRQHandler                        0x000193fd   Thumb Code     0  arm_startup_nrf52810.o(.text)
    TIMER1_IRQHandler                        0x000193fd   Thumb Code     0  arm_startup_nrf52810.o(.text)
    TIMER2_IRQHandler                        0x000193fd   Thumb Code     0  arm_startup_nrf52810.o(.text)
    TWIM0_TWIS0_TWI0_IRQHandler              0x000193fd   Thumb Code     0  arm_startup_nrf52810.o(.text)
    WDT_IRQHandler                           0x000193fd   Thumb Code     0  arm_startup_nrf52810.o(.text)
    __aeabi_uldivmod                         0x00019415   Thumb Code    98  uldiv.o(.text)
    __aeabi_llsl                             0x00019477   Thumb Code    30  llshl.o(.text)
    _ll_shift_l                              0x00019477   Thumb Code     0  llshl.o(.text)
    __rt_ctype_table                         0x00019495   Thumb Code     4  ctype_o.o(.text)
    __aeabi_memcpy                           0x0001949d   Thumb Code    36  memcpya.o(.text)
    __aeabi_memcpy4                          0x0001949d   Thumb Code     0  memcpya.o(.text)
    __aeabi_memcpy8                          0x0001949d   Thumb Code     0  memcpya.o(.text)
    __aeabi_memset                           0x000194c1   Thumb Code    14  memseta.o(.text)
    __aeabi_memset4                          0x000194c1   Thumb Code     0  memseta.o(.text)
    __aeabi_memset8                          0x000194c1   Thumb Code     0  memseta.o(.text)
    __aeabi_memclr                           0x000194cf   Thumb Code     4  memseta.o(.text)
    __aeabi_memclr4                          0x000194cf   Thumb Code     0  memseta.o(.text)
    __aeabi_memclr8                          0x000194cf   Thumb Code     0  memseta.o(.text)
    _memset$wrapper                          0x000194d3   Thumb Code    18  memseta.o(.text)
    strlen                                   0x000194e5   Thumb Code    14  strlen.o(.text)
    memcmp                                   0x000194f3   Thumb Code    26  memcmp.o(.text)
    strcpy                                   0x0001950d   Thumb Code    18  strcpy.o(.text)
    __aeabi_llsr                             0x0001951f   Thumb Code    32  llushr.o(.text)
    _ll_ushift_r                             0x0001951f   Thumb Code     0  llushr.o(.text)
    __scatterload                            0x00019541   Thumb Code    28  init.o(.text)
    __scatterload_rt2                        0x00019541   Thumb Code     0  init.o(.text)
    __decompress                             0x00019565   Thumb Code     0  __dczerorl2.o(.text)
    __decompress1                            0x00019565   Thumb Code    86  __dczerorl2.o(.text)
    GPIOTE_IRQHandler                        0x000195bd   Thumb Code   154  nrfx_gpiote.o(i.GPIOTE_IRQHandler)
    POWER_CLOCK_IRQHandler                   0x00019661   Thumb Code    82  nrfx_clock.o(i.POWER_CLOCK_IRQHandler)
    RTC1_IRQHandler                          0x000196b9   Thumb Code    12  drv_rtc.o(i.RTC1_IRQHandler)
    SEGGER_RTT_Init                          0x000196c9   Thumb Code     4  segger_rtt.o(i.SEGGER_RTT_Init)
    SEGGER_RTT_WriteNoLock                   0x000196cd   Thumb Code    86  segger_rtt.o(i.SEGGER_RTT_WriteNoLock)
    SWI2_IRQHandler                          0x00019729   Thumb Code     4  nrf_sdh.o(i.SWI2_IRQHandler)
    SystemInit                               0x0001972d   Thumb Code   788  system_nrf52810.o(i.SystemInit)
    UARTE0_UART0_IRQHandler                  0x00019a85   Thumb Code     6  nrfx_prs.o(i.UARTE0_UART0_IRQHandler)
    __scatterload_copy                       0x00019bd1   Thumb Code    14  handlers.o(i.__scatterload_copy)
    __scatterload_null                       0x00019bdf   Thumb Code     2  handlers.o(i.__scatterload_null)
    __scatterload_zeroinit                   0x00019be1   Thumb Code    14  handlers.o(i.__scatterload_zeroinit)
    addr_compare                             0x00019d51   Thumb Code    38  id_manager.o(i.addr_compare)
    ah                                       0x00019e29   Thumb Code    82  id_manager.o(i.ah)
    app_button_enable                        0x00019e8d   Thumb Code    32  app_button.o(i.app_button_enable)
    app_button_init                          0x00019eb1   Thumb Code   106  app_button.o(i.app_button_init)
    app_error_fault_handler                  0x00019f31   Thumb Code    86  app_error_weak.o(i.app_error_fault_handler)
    app_error_handler_bare                   0x00019fb5   Thumb Code    22  app_error.o(i.app_error_handler_bare)
    app_timer_cnt_get                        0x00019fcd   Thumb Code     6  app_timer2.o(i.app_timer_cnt_get)
    app_timer_create                         0x00019fd9   Thumb Code    22  app_timer2.o(i.app_timer_create)
    app_timer_init                           0x00019ff1   Thumb Code    70  app_timer2.o(i.app_timer_init)
    app_timer_start                          0x0001a04d   Thumb Code    48  app_timer2.o(i.app_timer_start)
    app_timer_stop                           0x0001a07d   Thumb Code    12  app_timer2.o(i.app_timer_stop)
    app_util_critical_region_enter           0x0001a089   Thumb Code    64  app_util_platform.o(i.app_util_critical_region_enter)
    app_util_critical_region_exit            0x0001a0d1   Thumb Code    46  app_util_platform.o(i.app_util_critical_region_exit)
    ble_advdata_encode                       0x0001a399   Thumb Code   386  ble_advdata.o(i.ble_advdata_encode)
    ble_advdata_parse                        0x0001a51b   Thumb Code    32  ble_advdata.o(i.ble_advdata_parse)
    ble_advdata_search                       0x0001a53b   Thumb Code    70  ble_advdata.o(i.ble_advdata_search)
    ble_advertising_conn_cfg_tag_set         0x0001a581   Thumb Code     6  ble_advertising.o(i.ble_advertising_conn_cfg_tag_set)
    ble_advertising_init                     0x0001a587   Thumb Code   248  ble_advertising.o(i.ble_advertising_init)
    ble_advertising_on_ble_evt               0x0001a67f   Thumb Code   106  ble_advertising.o(i.ble_advertising_on_ble_evt)
    ble_advertising_restart_without_whitelist 0x0001a6e9   Thumb Code    58  ble_advertising.o(i.ble_advertising_restart_without_whitelist)
    ble_advertising_start                    0x0001a723   Thumb Code   514  ble_advertising.o(i.ble_advertising_start)
    ble_conn_params_init                     0x0001a925   Thumb Code    90  ble_conn_params.o(i.ble_conn_params_init)
    ble_conn_state_encrypted                 0x0001a98d   Thumb Code    26  ble_conn_state.o(i.ble_conn_state_encrypted)
    ble_conn_state_for_each_set_user_flag    0x0001a9ad   Thumb Code    38  ble_conn_state.o(i.ble_conn_state_for_each_set_user_flag)
    ble_conn_state_lesc                      0x0001a9d9   Thumb Code    26  ble_conn_state.o(i.ble_conn_state_lesc)
    ble_conn_state_mitm_protected            0x0001a9f9   Thumb Code    26  ble_conn_state.o(i.ble_conn_state_mitm_protected)
    ble_conn_state_role                      0x0001aa19   Thumb Code    16  ble_conn_state.o(i.ble_conn_state_role)
    ble_conn_state_status                    0x0001aa29   Thumb Code    32  ble_conn_state.o(i.ble_conn_state_status)
    ble_conn_state_user_flag_acquire         0x0001aa4d   Thumb Code    18  ble_conn_state.o(i.ble_conn_state_user_flag_acquire)
    ble_conn_state_user_flag_get             0x0001aa65   Thumb Code    44  ble_conn_state.o(i.ble_conn_state_user_flag_get)
    ble_conn_state_user_flag_set             0x0001aa95   Thumb Code    50  ble_conn_state.o(i.ble_conn_state_user_flag_set)
    ble_conn_state_valid                     0x0001aacd   Thumb Code    16  ble_conn_state.o(i.ble_conn_state_valid)
    ble_srv_is_notification_enabled          0x0001ae91   Thumb Code     8  ble_srv_common.o(i.ble_srv_is_notification_enabled)
    bsp_board_button_idx_to_pin              0x0001ae99   Thumb Code     6  boards.o(i.bsp_board_button_idx_to_pin)
    bsp_board_button_state_get               0x0001aea5   Thumb Code    28  boards.o(i.bsp_board_button_state_get)
    bsp_board_init                           0x0001aec5   Thumb Code    80  boards.o(i.bsp_board_init)
    bsp_board_led_invert                     0x0001af19   Thumb Code    32  boards.o(i.bsp_board_led_invert)
    bsp_board_led_off                        0x0001af3d   Thumb Code    10  boards.o(i.bsp_board_led_off)
    bsp_board_led_on                         0x0001af4d   Thumb Code    10  boards.o(i.bsp_board_led_on)
    bsp_board_led_state_get                  0x0001af5d   Thumb Code    28  boards.o(i.bsp_board_led_state_get)
    bsp_board_leds_off                       0x0001af7d   Thumb Code    18  boards.o(i.bsp_board_leds_off)
    bsp_board_leds_on                        0x0001af8f   Thumb Code    18  boards.o(i.bsp_board_leds_on)
    bsp_board_pin_to_button_idx              0x0001afa1   Thumb Code    30  boards.o(i.bsp_board_pin_to_button_idx)
    bsp_btn_ble_init                         0x0001afc5   Thumb Code    52  bsp_btn_ble.o(i.bsp_btn_ble_init)
    bsp_btn_ble_sleep_mode_prepare           0x0001affd   Thumb Code    30  bsp_btn_ble.o(i.bsp_btn_ble_sleep_mode_prepare)
    bsp_button_is_pressed                    0x0001b0ad   Thumb Code    12  bsp.o(i.bsp_button_is_pressed)
    bsp_event_to_button_action_assign        0x0001b105   Thumb Code    64  bsp.o(i.bsp_event_to_button_action_assign)
    bsp_indication_set                       0x0001b149   Thumb Code    20  bsp.o(i.bsp_indication_set)
    bsp_init                                 0x0001b161   Thumb Code   128  bsp.o(i.bsp_init)
    bsp_wakeup_button_enable                 0x0001b3bd   Thumb Code     6  bsp.o(i.bsp_wakeup_button_enable)
    buffer_is_empty                          0x0001b489   Thumb Code    18  nrf_log_frontend.o(i.buffer_is_empty)
    conn_handle_list_get                     0x0001b649   Thumb Code    62  ble_conn_state.o(i.conn_handle_list_get)
    drv_rtc_compare_disable                  0x0001b8bd   Thumb Code    20  drv_rtc.o(i.drv_rtc_compare_disable)
    drv_rtc_compare_pending                  0x0001b8d1   Thumb Code    14  drv_rtc.o(i.drv_rtc_compare_pending)
    drv_rtc_compare_set                      0x0001b8df   Thumb Code    80  drv_rtc.o(i.drv_rtc_compare_set)
    drv_rtc_counter_get                      0x0001b92f   Thumb Code     8  drv_rtc.o(i.drv_rtc_counter_get)
    drv_rtc_init                             0x0001b939   Thumb Code   148  drv_rtc.o(i.drv_rtc_init)
    drv_rtc_irq_trigger                      0x0001ba11   Thumb Code    30  drv_rtc.o(i.drv_rtc_irq_trigger)
    drv_rtc_overflow_enable                  0x0001ba2f   Thumb Code     8  drv_rtc.o(i.drv_rtc_overflow_enable)
    drv_rtc_overflow_pending                 0x0001ba37   Thumb Code     8  drv_rtc.o(i.drv_rtc_overflow_pending)
    drv_rtc_start                            0x0001ba3f   Thumb Code     8  drv_rtc.o(i.drv_rtc_start)
    drv_rtc_stop                             0x0001ba47   Thumb Code     8  drv_rtc.o(i.drv_rtc_stop)
    drv_rtc_windowed_compare_set             0x0001ba4f   Thumb Code   222  drv_rtc.o(i.drv_rtc_windowed_compare_set)
    evt_handle                               0x0001bd19   Thumb Code   216  app_button.o(i.evt_handle)
    fds_file_delete                          0x0001bf79   Thumb Code    68  fds.o(i.fds_file_delete)
    fds_gc                                   0x0001bfc1   Thumb Code    56  fds.o(i.fds_gc)
    fds_init                                 0x0001c001   Thumb Code   206  fds.o(i.fds_init)
    fds_record_close                         0x0001c0e5   Thumb Code    66  fds.o(i.fds_record_close)
    fds_record_find                          0x0001c12d   Thumb Code    14  fds.o(i.fds_record_find)
    fds_record_find_by_key                   0x0001c13b   Thumb Code    16  fds.o(i.fds_record_find_by_key)
    fds_record_find_in_file                  0x0001c14b   Thumb Code    16  fds.o(i.fds_record_find_in_file)
    fds_record_id_from_desc                  0x0001c15b   Thumb Code    18  fds.o(i.fds_record_id_from_desc)
    fds_record_open                          0x0001c16d   Thumb Code    70  fds.o(i.fds_record_open)
    fds_record_update                        0x0001c1b9   Thumb Code    16  fds.o(i.fds_record_update)
    fds_record_write                         0x0001c1c9   Thumb Code     8  fds.o(i.fds_record_write)
    fds_register                             0x0001c1d1   Thumb Code    38  fds.o(i.fds_register)
    fds_stat                                 0x0001c201   Thumb Code   152  fds.o(i.fds_stat)
    gcm_ble_evt_handler                      0x0001c579   Thumb Code   358  gatt_cache_manager.o(i.gcm_ble_evt_handler)
    gcm_im_evt_handler                       0x0001c7a9   Thumb Code    54  gatt_cache_manager.o(i.gcm_im_evt_handler)
    gcm_init                                 0x0001c7e5   Thumb Code   130  gatt_cache_manager.o(i.gcm_init)
    gcm_pdb_evt_handler                      0x0001c879   Thumb Code   130  gatt_cache_manager.o(i.gcm_pdb_evt_handler)
    gscm_db_change_notification_done         0x0001c971   Thumb Code    22  gatts_cache_manager.o(i.gscm_db_change_notification_done)
    gscm_init                                0x0001c98d   Thumb Code    16  gatts_cache_manager.o(i.gscm_init)
    gscm_local_db_cache_apply                0x0001c9a1   Thumb Code   130  gatts_cache_manager.o(i.gscm_local_db_cache_apply)
    gscm_local_db_cache_update               0x0001ca31   Thumb Code   158  gatts_cache_manager.o(i.gscm_local_db_cache_update)
    gscm_pdb_evt_handler                     0x0001cadd   Thumb Code    18  gatts_cache_manager.o(i.gscm_pdb_evt_handler)
    gscm_service_changed_ind_needed          0x0001caf5   Thumb Code    30  gatts_cache_manager.o(i.gscm_service_changed_ind_needed)
    gscm_service_changed_ind_send            0x0001cb15   Thumb Code    76  gatts_cache_manager.o(i.gscm_service_changed_ind_send)
    im_address_resolve                       0x0001cbaf   Thumb Code    70  id_manager.o(i.im_address_resolve)
    im_ble_addr_get                          0x0001cbf5   Thumb Code    50  id_manager.o(i.im_ble_addr_get)
    im_ble_evt_handler                       0x0001cc2d   Thumb Code   210  id_manager.o(i.im_ble_evt_handler)
    im_conn_handle_get                       0x0001cd09   Thumb Code    58  id_manager.o(i.im_conn_handle_get)
    im_find_duplicate_bonding_data           0x0001cd49   Thumb Code    56  id_manager.o(i.im_find_duplicate_bonding_data)
    im_is_duplicate_bonding_data             0x0001cd81   Thumb Code   114  id_manager.o(i.im_is_duplicate_bonding_data)
    im_master_id_is_valid                    0x0001cdf3   Thumb Code    24  id_manager.o(i.im_master_id_is_valid)
    im_master_ids_compare                    0x0001ce0b   Thumb Code    42  id_manager.o(i.im_master_ids_compare)
    im_new_peer_id                           0x0001ce35   Thumb Code    16  id_manager.o(i.im_new_peer_id)
    im_peer_free                             0x0001ce49   Thumb Code    40  id_manager.o(i.im_peer_free)
    im_peer_id_get_by_conn_handle            0x0001ce75   Thumb Code    32  id_manager.o(i.im_peer_id_get_by_conn_handle)
    im_peer_id_get_by_master_id              0x0001ce99   Thumb Code    60  id_manager.o(i.im_peer_id_get_by_master_id)
    is_valid_irk                             0x0001d19d   Thumb Code    20  id_manager.o(i.is_valid_irk)
    main                                     0x0001d5b1   Thumb Code   414  main.o(i.main)
    next_id_get                              0x0001d9af   Thumb Code    48  peer_id.o(i.next_id_get)
    nrf_atfifo_clear                         0x0001d9df   Thumb Code    16  nrf_atfifo.o(i.nrf_atfifo_clear)
    nrf_atfifo_init                          0x0001d9ef   Thumb Code    38  nrf_atfifo.o(i.nrf_atfifo_init)
    nrf_atfifo_item_alloc                    0x0001da15   Thumb Code    22  nrf_atfifo.o(i.nrf_atfifo_item_alloc)
    nrf_atfifo_item_free                     0x0001da2b   Thumb Code    22  nrf_atfifo.o(i.nrf_atfifo_item_free)
    nrf_atfifo_item_get                      0x0001da41   Thumb Code    22  nrf_atfifo.o(i.nrf_atfifo_item_get)
    nrf_atfifo_item_put                      0x0001da57   Thumb Code    22  nrf_atfifo.o(i.nrf_atfifo_item_put)
    nrf_atflags_clear                        0x0001da6d   Thumb Code    22  nrf_atflags.o(i.nrf_atflags_clear)
    nrf_atflags_fetch_set                    0x0001da83   Thumb Code    32  nrf_atflags.o(i.nrf_atflags_fetch_set)
    nrf_atflags_find_and_set_flag            0x0001daa3   Thumb Code    74  nrf_atflags.o(i.nrf_atflags_find_and_set_flag)
    nrf_atflags_get                          0x0001daed   Thumb Code    22  nrf_atflags.o(i.nrf_atflags_get)
    nrf_atflags_set                          0x0001db03   Thumb Code    20  nrf_atflags.o(i.nrf_atflags_set)
    nrf_atomic_flag_clear_fetch              0x0001db17   Thumb Code     6  nrf_atomic.o(i.nrf_atomic_flag_clear_fetch)
    nrf_atomic_flag_set                      0x0001db1d   Thumb Code     6  nrf_atomic.o(i.nrf_atomic_flag_set)
    nrf_atomic_flag_set_fetch                0x0001db23   Thumb Code     6  nrf_atomic.o(i.nrf_atomic_flag_set_fetch)
    nrf_atomic_u32_add                       0x0001db29   Thumb Code    12  nrf_atomic.o(i.nrf_atomic_u32_add)
    nrf_atomic_u32_and                       0x0001db35   Thumb Code    12  nrf_atomic.o(i.nrf_atomic_u32_and)
    nrf_atomic_u32_fetch_add                 0x0001db41   Thumb Code    10  nrf_atomic.o(i.nrf_atomic_u32_fetch_add)
    nrf_atomic_u32_fetch_and                 0x0001db4b   Thumb Code    10  nrf_atomic.o(i.nrf_atomic_u32_fetch_and)
    nrf_atomic_u32_fetch_or                  0x0001db55   Thumb Code    10  nrf_atomic.o(i.nrf_atomic_u32_fetch_or)
    nrf_atomic_u32_fetch_store               0x0001db5f   Thumb Code    10  nrf_atomic.o(i.nrf_atomic_u32_fetch_store)
    nrf_atomic_u32_or                        0x0001db69   Thumb Code    12  nrf_atomic.o(i.nrf_atomic_u32_or)
    nrf_atomic_u32_sub                       0x0001db75   Thumb Code    12  nrf_atomic.o(i.nrf_atomic_u32_sub)
    nrf_balloc_alloc                         0x0001db81   Thumb Code    68  nrf_balloc.o(i.nrf_balloc_alloc)
    nrf_balloc_free                          0x0001dbc5   Thumb Code    48  nrf_balloc.o(i.nrf_balloc_free)
    nrf_balloc_init                          0x0001dbf5   Thumb Code    48  nrf_balloc.o(i.nrf_balloc_init)
    nrf_ble_gatt_init                        0x0001dc35   Thumb Code    34  nrf_ble_gatt.o(i.nrf_ble_gatt_init)
    nrf_ble_gatt_on_ble_evt                  0x0001dc59   Thumb Code   180  nrf_ble_gatt.o(i.nrf_ble_gatt_on_ble_evt)
    nrf_ble_qwr_conn_handle_assign           0x0001dd4d   Thumb Code    22  nrf_ble_qwr.o(i.nrf_ble_qwr_conn_handle_assign)
    nrf_ble_qwr_init                         0x0001dd63   Thumb Code    36  nrf_ble_qwr.o(i.nrf_ble_qwr_init)
    nrf_ble_qwr_on_ble_evt                   0x0001dd87   Thumb Code   182  nrf_ble_qwr.o(i.nrf_ble_qwr_on_ble_evt)
    nrf_drv_clock_init                       0x0001de5d   Thumb Code    56  nrf_drv_clock.o(i.nrf_drv_clock_init)
    nrf_drv_clock_lfclk_release              0x0001de9d   Thumb Code    48  nrf_drv_clock.o(i.nrf_drv_clock_lfclk_release)
    nrf_drv_uart_init                        0x0001ded1   Thumb Code    90  nrf_drv_uart.o(i.nrf_drv_uart_init)
    nrf_fprintf                              0x0001df39   Thumb Code    26  nrf_fprintf.o(i.nrf_fprintf)
    nrf_fprintf_buffer_flush                 0x0001df53   Thumb Code    24  nrf_fprintf.o(i.nrf_fprintf_buffer_flush)
    nrf_fprintf_fmt                          0x0001df6b   Thumb Code   474  nrf_fprintf_format.o(i.nrf_fprintf_fmt)
    nrf_fstorage_erase                       0x0001e145   Thumb Code   188  nrf_fstorage.o(i.nrf_fstorage_erase)
    nrf_fstorage_init                        0x0001e27d   Thumb Code    74  nrf_fstorage.o(i.nrf_fstorage_init)
    nrf_fstorage_sdh_req_handler             0x0001e311   Thumb Code    18  nrf_fstorage_sd.o(i.nrf_fstorage_sdh_req_handler)
    nrf_fstorage_sdh_state_handler           0x0001e329   Thumb Code    28  nrf_fstorage_sd.o(i.nrf_fstorage_sdh_state_handler)
    nrf_fstorage_sys_evt_handler             0x0001e349   Thumb Code   154  nrf_fstorage_sd.o(i.nrf_fstorage_sys_evt_handler)
    nrf_fstorage_write                       0x0001e3ed   Thumb Code   242  nrf_fstorage.o(i.nrf_fstorage_write)
    nrf_log_backend_add                      0x0001e771   Thumb Code    86  nrf_log_frontend.o(i.nrf_log_backend_add)
    nrf_log_backend_rtt_init                 0x0001e7cf   Thumb Code     4  nrf_log_backend_rtt.o(i.nrf_log_backend_rtt_init)
    nrf_log_backend_serial_put               0x0001e7ed   Thumb Code   200  nrf_log_backend_serial.o(i.nrf_log_backend_serial_put)
    nrf_log_backend_uart_init                0x0001e8b7   Thumb Code     6  nrf_log_backend_uart.o(i.nrf_log_backend_uart_init)
    nrf_log_color_id_get                     0x0001e901   Thumb Code    42  nrf_log_frontend.o(i.nrf_log_color_id_get)
    nrf_log_default_backends_init            0x0001e931   Thumb Code    46  nrf_log_default_backends.o(i.nrf_log_default_backends_init)
    nrf_log_frontend_dequeue                 0x0001e965   Thumb Code   528  nrf_log_frontend.o(i.nrf_log_frontend_dequeue)
    nrf_log_frontend_std_0                   0x0001eb9d   Thumb Code     8  nrf_log_frontend.o(i.nrf_log_frontend_std_0)
    nrf_log_frontend_std_1                   0x0001eba5   Thumb Code    14  nrf_log_frontend.o(i.nrf_log_frontend_std_1)
    nrf_log_frontend_std_2                   0x0001ebb3   Thumb Code    16  nrf_log_frontend.o(i.nrf_log_frontend_std_2)
    nrf_log_frontend_std_3                   0x0001ebc3   Thumb Code    18  nrf_log_frontend.o(i.nrf_log_frontend_std_3)
    nrf_log_frontend_std_4                   0x0001ebd5   Thumb Code    20  nrf_log_frontend.o(i.nrf_log_frontend_std_4)
    nrf_log_hexdump_entry_process            0x0001ebe9   Thumb Code   150  nrf_log_str_formatter.o(i.nrf_log_hexdump_entry_process)
    nrf_log_init                             0x0001ec99   Thumb Code    28  nrf_log_frontend.o(i.nrf_log_init)
    nrf_log_module_cnt_get                   0x0001ecc1   Thumb Code    10  nrf_log_frontend.o(i.nrf_log_module_cnt_get)
    nrf_log_module_name_get                  0x0001ecd5   Thumb Code    24  nrf_log_frontend.o(i.nrf_log_module_name_get)
    nrf_log_panic                            0x0001ecf1   Thumb Code    36  nrf_log_frontend.o(i.nrf_log_panic)
    nrf_log_std_entry_process                0x0001ed19   Thumb Code   182  nrf_log_str_formatter.o(i.nrf_log_std_entry_process)
    nrf_memobj_alloc                         0x0001edcf   Thumb Code    96  nrf_memobj.o(i.nrf_memobj_alloc)
    nrf_memobj_free                          0x0001ee2f   Thumb Code    50  nrf_memobj.o(i.nrf_memobj_free)
    nrf_memobj_get                           0x0001ee61   Thumb Code     8  nrf_memobj.o(i.nrf_memobj_get)
    nrf_memobj_pool_init                     0x0001ee69   Thumb Code     4  nrf_memobj.o(i.nrf_memobj_pool_init)
    nrf_memobj_put                           0x0001ee6d   Thumb Code    30  nrf_memobj.o(i.nrf_memobj_put)
    nrf_memobj_read                          0x0001ee8b   Thumb Code    16  nrf_memobj.o(i.nrf_memobj_read)
    nrf_memobj_write                         0x0001ee9b   Thumb Code    16  nrf_memobj.o(i.nrf_memobj_write)
    nrf_pwr_mgmt_init                        0x0001eead   Thumb Code    28  nrf_pwr_mgmt.o(i.nrf_pwr_mgmt_init)
    nrf_pwr_mgmt_run                         0x0001eed5   Thumb Code    20  nrf_pwr_mgmt.o(i.nrf_pwr_mgmt_run)
    nrf_ringbuf_init                         0x0001eeed   Thumb Code    28  nrf_ringbuf.o(i.nrf_ringbuf_init)
    nrf_sdh_ble_app_ram_start_get            0x0001ef15   Thumb Code    16  nrf_sdh_ble.o(i.nrf_sdh_ble_app_ram_start_get)
    nrf_sdh_ble_default_cfg_set              0x0001ef29   Thumb Code   218  nrf_sdh_ble.o(i.nrf_sdh_ble_default_cfg_set)
    nrf_sdh_ble_enable                       0x0001f021   Thumb Code   116  nrf_sdh_ble.o(i.nrf_sdh_ble_enable)
    nrf_sdh_disable_request                  0x0001f1ad   Thumb Code    80  nrf_sdh.o(i.nrf_sdh_disable_request)
    nrf_sdh_enable_request                   0x0001f201   Thumb Code   102  nrf_sdh.o(i.nrf_sdh_enable_request)
    nrf_sdh_evts_poll                        0x0001f275   Thumb Code    32  nrf_sdh.o(i.nrf_sdh_evts_poll)
    nrf_sdh_is_enabled                       0x0001f299   Thumb Code     6  nrf_sdh.o(i.nrf_sdh_is_enabled)
    nrf_sdh_request_continue                 0x0001f2a5   Thumb Code    22  nrf_sdh.o(i.nrf_sdh_request_continue)
    nrf_section_iter_init                    0x0001f2fd   Thumb Code    10  nrf_section_iter.o(i.nrf_section_iter_init)
    nrf_section_iter_next                    0x0001f32b   Thumb Code    32  nrf_section_iter.o(i.nrf_section_iter_next)
    nrf_sortlist_add                         0x0001f34b   Thumb Code    34  nrf_sortlist.o(i.nrf_sortlist_add)
    nrf_sortlist_peek                        0x0001f36d   Thumb Code     6  nrf_sortlist.o(i.nrf_sortlist_peek)
    nrf_sortlist_pop                         0x0001f373   Thumb Code    14  nrf_sortlist.o(i.nrf_sortlist_pop)
    nrf_sortlist_remove                      0x0001f381   Thumb Code    30  nrf_sortlist.o(i.nrf_sortlist_remove)
    nrf_strerror_find                        0x0001f3a1   Thumb Code    52  nrf_strerror.o(i.nrf_strerror_find)
    nrf_strerror_get                         0x0001f3d9   Thumb Code    14  nrf_strerror.o(i.nrf_strerror_get)
    nrfx_clock_enable                        0x0001f435   Thumb Code    34  nrfx_clock.o(i.nrfx_clock_enable)
    nrfx_clock_init                          0x0001f461   Thumb Code    26  nrfx_clock.o(i.nrfx_clock_init)
    nrfx_clock_lfclk_stop                    0x0001f481   Thumb Code    38  nrfx_clock.o(i.nrfx_clock_lfclk_stop)
    nrfx_gpiote_in_event_enable              0x0001f4c1   Thumb Code   152  nrfx_gpiote.o(i.nrfx_gpiote_in_event_enable)
    nrfx_gpiote_in_init                      0x0001f561   Thumb Code   190  nrfx_gpiote.o(i.nrfx_gpiote_in_init)
    nrfx_gpiote_in_is_set                    0x0001f62d   Thumb Code    20  nrfx_gpiote.o(i.nrfx_gpiote_in_is_set)
    nrfx_gpiote_init                         0x0001f641   Thumb Code   102  nrfx_gpiote.o(i.nrfx_gpiote_init)
    nrfx_gpiote_is_init                      0x0001f6b5   Thumb Code    14  nrfx_gpiote.o(i.nrfx_gpiote_is_init)
    nrfx_prs_acquire                         0x0001f6d9   Thumb Code    58  nrfx_prs.o(i.nrfx_prs_acquire)
    nrfx_prs_release                         0x0001f713   Thumb Code    18  nrfx_prs.o(i.nrfx_prs_release)
