:020000040001F9
:1090000030350020C1930100EB930100ED93010086
:10901000EF930100F1930100F393010000000000C1
:10902000000000000000000000000000F5930100B7
:10903000F793010000000000F9930100FB93010089
:1090400061960100FD930100859A0100FD930100E6
:10905000FD93010000000000BD950100FD9301009B
:10906000FD930100FD930100FD930100FD930100BC
:10907000FD930100FD930100FD930100FD930100AC
:10908000FD930100B9960100FD930100FD930100DD
:10909000FD930100FD93010029970100FD9301005C
:1090A000FD930100FD93010000000000000000009E
:1090B000FD930100FD93010000000000000000008E
:1090C00000000000000000000000000000000000A0
:1090D0000000000000000000000000000000000090
:1090E0000000000000000000000000000000000080
:1090F0000000000000000000000000000000000070
:10910000000000000000000000000000000000005F
:10911000000000000000000000000000000000004F
:10912000000000000000000000000000000000003F
:10913000000000000000000000000000000000002F
:10914000000000000000000000000000000000001F
:10915000000000000000000000000000000000000F
:1091600000000000000000000000000000000000FF
:1091700000000000000000000000000000000000EF
:1091800000000000000000000000000000000000DF
:1091900000000000000000000000000000000000CF
:1091A00000000000000000000000000000000000BF
:1091B00000000000000000000000000000000000AF
:1091C000000000000000000000000000000000009F
:1091D000000000000000000000000000000000008F
:1091E000000000000000000000000000000000007F
:1091F000000000000000000000000000000000006F
:10920000DFF80CD000F09CF900480047B1D5010010
:109210003035002030B450E8012F93B2C489234484
:109220008489A34228BF1B1B0489A34202BFBFF34A
:109230002F8F002007E0C3EA020340E80134002C2E
:10924000E9D14FF001000A6030BC704750E8012FAF
:10925000C2EA024240E801210029F7D1704730B448
:1092600050E8022F1FFAA2F3C488A34202BFBFF343
:109270002F8F00200DE0C48923448489A34228BF96
:109280001B1BC2EA034340E80234002CE8D14FF034
:1092900001000A6030BC704750E8022FC2EA224247
:1092A00040E802210029F7D17047034653E8022F16
:1092B000D988B2EB324F4FF0000017BF92B241EAAB
:1092C000014142EA014104E05A68B2EB324F08BF63
:1092D000012043E80212002AE8D1704730B4044666
:1092E00054E8000F0D4644E80053002BF8D11560F8
:1092F00030BC704730B4044654E8000F40EA010522
:1093000044E80053002BF7D1156030BC704730B4EF
:10931000044654E8000F00EA010544E80053002B1E
:10932000F7D1156030BC704730B4044654E8000FE4
:1093300080EA010544E80053002BF7D1156030BCEA
:10934000704730B4044654E8000F00EB010544E8D0
:109350000053002BF7D1156030BC704730B4044681
:1093600054E8000FA0EB010544E80053002BF7D1AF
:10937000156030BC704770B404464FF0000054E8EC
:10938000006F0D68AE4207BF44E80023012044E8A7
:1093900000630E60002B1CBF0020F0E770BC70471C
:1093A00030B4044654E8000F88422CBF451A0546E5
:1093B00044E80053002BF5D1156030BC7047000025
:1093C0000F4800680F4909680A280AD1002908D106
:1093D0000D4802686FF070031A404FF040031A43C3
:1093E00002600A4880470A480047FEE7FEE7FEE7BA
:1093F000FEE7FEE7FEE7FEE7FEE7FEE7FEE700002A
:109400003001001034010010E40E00402D970100DF
:10941000019201002DE9F05F0546002092469B462F
:1094200088460646814640241BE02846414647467A
:10943000224600F074F853465A46C01A914110D3A0
:1094400011461846224600F016F82D1A67EB01085F
:109450004F4622460120002100F00DF817EB0009CD
:109460004E41201EA4F10104DFDC484631462A4665
:109470004346BDE8F09F202A04DB203A00FA02F1BF
:10948000002070479140C2F1200320FA03F31943F2
:109490009040704700487047783D020040EA010361
:1094A0009B0703D009E008C9121F08C0042AFAD29A
:1094B00003E011F8013B00F8013B521EF9D270475E
:1094C000D2B201E000F8012B491EFBD27047002206
:1094D000F6E710B513460A4604461946FFF7F0FFB3
:1094E000204610BD421C10F8011B0029FBD1801A38
:1094F000704730B504460020034600E05B1C9342F1
:1095000003D2E05CCD5C401BF8D030BD034611F8BF
:10951000012B00F8012B002AF9D118467047202AA8
:1095200004DB203A21FA02F00021704721FA02F30D
:10953000D040C2F120029140084319467047000014
:10954000064C074D06E0E06840F0010394E8070090
:1095500098471034AC42F6D3FFF756FE9052020003
:10956000B052020070B58C1810F8015B15F00703BB
:1095700001D110F8013B2A1106D110F8012B03E0AC
:1095800010F8016B01F8016B5B1EF9D12B0705D4B4
:109590000023521E0DD401F8013BFAE710F8013BFD
:1095A000CB1A921C03E013F8015B01F8015B521E19
:1095B000F9D5A142D8D3002070BD00002DE9F843B1
:1095C0000025DFF894804FF4807601242F46009523
:1095D000304605F0C5F838B1D8F80403204203D06E
:1095E000304605F0B3F82543361D64007F1CB6B243
:1095F000082FEDD34FF4BE74204605F0B1F848B102
:10960000204605F0A3F845F000456A4601210020F8
:1096100005F06CF815F0FF0F16D0012600242E423D
:109620000ED008EB8401D1F81005D1F81015C0F365
:1096300004200A4AC1F3014152F8242002B19047A4
:109640007600641C082CEAD3002D02DA684607F085
:1096500091FFBDE8F883000000600040B4210020C5
:1096600070B54FF48076304604F0E8FB114CB50538
:1096700060B1304604F0E9FB0120C5F808036079C9
:1096800020B9012060712168002088474FF482765C
:10969000304604F0D3FB00280AD0304604F0D5FB56
:1096A0000220C5F808032168BDE870400120084782
:1096B00070BD0000341B002002490248091F0968E0
:1096C00000680847881B002000F0E2B970B50E461C
:1096D000144900EB400001EBC0051446E86A183558
:1096E00020B101280FD0022805D113E0284600F050
:1096F00003FAA04201D2002411E022463146284656
:1097000000F032FA0BE0284600F0F6F9A042F4D25D
:109710000446F2E73146284600F0F9F904462046AF
:1097200070BD0000A82A002005F0A4BD2DE9F0417D
:10973000C34AC4494FF080551468D5F83001097800
:10974000D5F83421431CC1F3031106D08446012609
:109750000023BCF1060F03D00AE004F0FF0CF6E78B
:10976000B5F82473DFF8E0C2C7F30427CCF8007023
:10977000E7B2062F06D1032904D1DFF8D4C2B34FD4
:10978000CCF87470471C08D04FEA000CBCF1060FEF
:1097900006D0BCF10A0F03D00AE004F0FF0CF5E795
:1097A000D5F84472DFF8ACC2C7F34237CCF800708A
:1097B000E7B2062F08D1032906D1A74FD7F800C07A
:1097C0002CF0807CC7F800C0471C08D04FEA000C82
:1097D000BCF1060F06D0BCF10A0F03D00BE004F079
:1097E000FF0CF5E74FF08047C7F80C31C7F8103190
:1097F000984F3F1F3B60E7B2062F08D1032906D1DF
:10980000DFF850C203270CF1640CCCF80070E7B20B
:10981000062F11D103290FD1DFF840C20527CCF85C
:1098200000708E4F78373E608C4F08373B600CF1EC
:10983000040C3F27CCF80070471C08D0844617461C
:10984000BCF1060F07D0BCF10A0F08D081E004F08C
:10985000FF0C0F46F4E7032F7BD0042F79D0804F05
:109860003F68DFF800C2CCF800707D4F3F1D3F68B5
:109870000CF1040CCCF80070794F08373F680CF1FC
:10988000040CCCF80070764F0C373F680CF1040CD8
:10989000CCF80070724F10373F680CF1040CCCF814
:1098A00000706F4F14373F680CF1040CCCF8007057
:1098B0006B4F18373F68DFF8ACC10CF1200CCCF8C7
:1098C0000070674F1C373F680CF1040CCCF8007037
:1098D000634F20373F680CF1040CCCF80070604FE8
:1098E00024373F680CF1040CCCF800705C4F28372B
:1098F0003F680CF1040CCCF80070594F2C373F68CE
:109900000CF1040CCCF80070554F30373F68DFF88D
:1099100054C10CF1400CCCF80070514F34373F6803
:109920000CF1040CCCF800704D4F38373F680CF147
:10993000040CCCF800704A4F3C373F680CF1040C23
:10994000CCF80070464F40373F680CF1040CCCF85F
:109950000070471C05D08646434FBEF1060F03D06A
:1099600007E004F0FF0EF7E7D5F8585205F04F0571
:109970003D60451C05D00446062C04D00A2C02D0BC
:1099800008E0E4B2F8E739490C68E40702D06FF068
:1099900001040C6006280BD11146032A08D00429C3
:1099A00006D0052904D032490C6844F480640C6068
:1099B0000A2804D11AB1386840F00F0038604FF01F
:1099C0001021D1F800422B4A2B48002C03DBD1F8A0
:1099D0000442002C13DA16600468002CFCD0152415
:1099E000C1F800420568002DFCD0C1F804420168AE
:1099F0000029FCD0136001680029FCD019E091F81F
:109A00000042E40703D191F80442E40713D0166042
:109A10000468002CFCD0C1F800320468002CFCD093
:109A2000C1F8043201680029FCD0136001680029E4
:109A3000FCD000F0BBF8124910480860BDE8F08186
:109A4000E00F00F0E80F00F0403501400DF0ADBA36
:109A500000C007403C050040FCED00E0105600400F
:109A60000404001020C50040E40E00400004004043
:109A70003C17004004E5014000E401400090D003A1
:109A8000541C002001480068004700003C1B0020D7
:109A900010B5124C02202061606111A0A06104F198
:109AA0007800E0614FF4007020620020A0626062E4
:109AB0000BA1A164E06204F51E71E1641021A065B0
:109AC000C4E91410E06509A1E01DFFF71FFD08A11E
:109AD0002046FFF71BFD2020A07110BDA82A002002
:109AE0005465726D696E616C000000005254540040
:109AF00053454747455200000269C1688A4203D86E
:109B00008068401A104400E0501A401E70472DE94A
:109B1000F047C4681746894606464FF0000830698A
:109B2000A04201D9051B02E0B168201A0D1AB068E5
:109B30006D1E001BA84200D80546BD4200D33D461D
:109B400070682A4620444946FFF7A8FCB0687F1B8E
:109B50002C44A844A944A04200D10024F460002F62
:109B6000DDD14046BDE8F0872DE9F0410446884646
:109B7000D4E90207C51BE168606816460844B5428F
:109B800006D94146FFF78AFCB819E060BDE8F081CC
:109B90002A464146FFF782FC761B08EB0501324658
:109BA0006068FFF77BFCE660F0E70000BFF34F8FD3
:109BB00005480168054A01F4E06111430160BFF303
:109BC0004F8F00BFFDE700000CED00E00400FA0538
:109BD00002E008C8121F08C1002AFAD17047704776
:109BE000002001E001C1121F002AFBD170470000D4
:109BF0000121202803DA81400548014003E0402884
:109C000002DA2038814009B10120704700207047F6
:109C1000FC06FFBD2DE9F843804643F2020659B920
:109C2000694606F0B1FEB04202D008B100F0C2F9B8
:109C30009DF80000800744D40021404606F0AEFEA7
:109C400005003ED0112D3CD01F482049401AC708BE
:109C5000022000EB07440D2D0AD00B2D1DD0B5427C
:109C60001FD11B4920464246BDE8F84304F09ABF85
:109C700020464246174904F095FF1321404676DFFF
:109C800000281ED005F0A8FB024601B0204643463E
:109C9000BDE8F04310A104F08CBF204642461C49A9
:109CA000E2E7284605F098FB0246012000EB07405A
:109CB000434618A104F07DFF2846BDE8F84300F0B4
:109CC00079B9BDE8F883000008530200D0520200C1
:109CD00058440200E443020073645F626C655F678E
:109CE00061705F646973636F6E6E656374282920A9
:109CF00072657475726E6564202573206F6E2063C3
:109D00006F6E6E5F68616E646C652025642E000066
:109D1000A4440200417373657274696E672E2070EB
:109D20006D5F636F6E6E5F73656375726528292062
:109D300072657475726E6564202573206F6E206382
:109D40006F6E6E5F68616E646C652025642E000026
:109D500010B560B159B102780B785208B2EB530FCD
:109D600005D10622401C491CFFF7C3FB08B10020A7
:109D700010BD012010BD800701D0002070470120D8
:109D80007047C3688B4206D811440069491E81425E
:109D900001D8012070470020704790F824001F2050
:109DA000704710B501220221002001F0ABF908B183
:109DB000072810D107220221012001F0A3F908B1E0
:109DC000072808D100210A22084601F09BF908B1B2
:109DD000072800D1002010BD10B560B10B480C4918
:109DE000401AC008032101EB00400AA104F0D6FE8E
:109DF00007F050FB03E003210A4800F092FC002822
:109E000003D0BDE8104000F0D5B810BD7853020073
:109E1000D0520200457261736520626F6E647321D7
:109E200000000000881C002070B58CB015460E465E
:109E300000236C46C3F10F01415CE1545B1C102B05
:109E4000F8D30D2104F11000FFF741FB0020C0F111
:109E50000F02315C2244401C11740328F7D368467A
:109E600046DF0020C0F10F01214491F82010295451
:109E7000401C0328F6D30CB070BD022001F04CB892
:109E80000149C97800F0EEBD081B002070B5002420
:109E9000064D06E06868012110F8340005F010FB5B
:109EA000641C28788442F5D3002070BD481B002034
:109EB000F8B516460C4605460A2A01D20720F8BD19
:109EC00005F0F8FB18B905F0BBFB0028F7D1134FDC
:109ED000102113487D603C70BE60FFF7F8FA002047
:109EE000C7E904000F4E0DE005EBC4003168009196
:109EF00081788DF8011000780B4A694605F030FB37
:109F00000028DCD1641EE4B2EED2BDE8F84005487A
:109F10000021064A001D00F05FB80000481B002029
:109F200080220020B839020035C9010061B8010063
:109F300072B604F0DDFE00BF04F014FD0028FBD172
:109F400011481249401AC408012000EB044010A136
:109F500004F024FE11480068C00700D000BE0220B3
:109F600000EB04400EA104F019FEBFF34F8F0B4825
:109F7000E43801680E4A01F4E06111430160BFF367
:109F80004F8F00BFFDE7000078530200D05202005F
:109F9000466174616C206572726F7200F0ED00E0D2
:109FA00053797374656D20726573657400000000E9
:109FB0000400FA050EB500210091CDE901106A46B2
:109FC00044F20100FFF7B4FF0EBD0000014801F0AC
:109FD000AEBC0000681B00203AB100680129426154
:109FE00000D0002101610020704707207047000069
:109FF00038B5114808235822416800910F4900687C
:10A0000003F0F5FC002815D10D4A69460D4801F012
:10A0100093FC04000ED101210A4801F008FD012340
:10A02000094A1946074801F05AFC06490120083937
:10A030000870204638BD0000C0390200A022002070
:10A04000551C0200681B0020FFFF7F0070B504460E
:10A05000007F0D4608B1002070BDA26102F050FCE7
:10A06000401941F10001C4E90201206900B12561F4
:10A070002146BDE87040002008F022BE01460020C5
:10A080000877012008F01CBE30B5EFF3108172B6DE
:10A090000D4A9468012324B10370002900D162B6EF
:10A0A00030BD93604FF0E023D3F88051074C25403A
:10A0B0001560C3F88041D3F8844154605A17C3F83F
:10A0C000842100220270E8E7F8220020FC06FFBD90
:10A0D0000B498A68002A11D000280FD1EFF31080B5
:10A0E00072B60B684FF0E022C2F800314B68C2F83C
:10A0F000043100228A60002800D162B67047000057
:10A10000F82200202DE9F041064608680C46411C63
:10A110004FF0A0474FF0010506D005FA00F1C7F84F
:10A120000815206804F0BCFA6068411C02D00021C8
:10A1300004F0A4FA3168A069C1F82405607D227D8D
:10A1400031681043C1F86C05D4E900123068C0F8DA
:10A150001425C0F80C15207D012815D1A068411CDC
:10A1600002D0002104F08AFAE068411C05D0854045
:10A17000C7F80855E06804F093FAD4E90212306891
:10A18000C0F80825C0F81015BDE8F0812DE9F041B0
:10A19000064608680C46411C4FF0A0474FF00105E9
:10A1A00006D005FA00F1C7F80815206804F082FA15
:10A1B0006068411C02D0002104F069FA3168A0698E
:10A1C000C1F82405607D217D32680843C2F86C0522
:10A1D000D4E900123068C0F80C15C0F81425207DB1
:10A1E000012815D1A068411C02D0002104F04FFACB
:10A1F000E068411C05D08540C7F80855E06804F0C8
:10A2000059FAD4E902123068C0F80825C0F81015D0
:10A21000BDE8F08103F098B82DE9F0478146058844
:10A220004A484FF000088AB001784246284600F0BC
:10A2300031FC99F80500400701D4002176E005F5CE
:10A240008077B8B205AB0122072105F0F3FF0400C7
:10A250003F48404A4FF00101A0EB02004FEAD00016
:10A2600001EB00460AD0204605F0B6F8024630461B
:10A270002B46394904F09DFC214629E0284602F08E
:10A28000F9FD4FF6FF71044688422BD18A460698A5
:10A2900002F05AFD0446504510D00146284602F00F
:10A2A000C9FD2846FFF7ECFDE0B9284607F088FF16
:10A2B0002846FFF7E5FD0028BFD013E006F090F92F
:10A2C0000446504508D1304624A104F067FC04211F
:10A2D000284607F0A3FFB0E70146284602F0AAFD92
:10A2E0004FF00108B8B22246072106F01BF807001C
:10A2F0001BD0862F1ED005F06FF8024630462B4645
:10A300002349009404F05DFC3946284607F086FF97
:10A310000021484605F086FEB8F1000F02D0204625
:10A3200002F092FD0AB0BDE8F0870121484605F031
:10A3300079FEF7E7142217496846FFF7AFF8ADF842
:10A340000250684601F094FDEFE70000081B002072
:10A3500010530200D0520200A0470200436F756CF8
:10A3600064206E6F7420616C6C6F63617465206E25
:10A37000657720706565725F696420666F72206919
:10A380006E636F6D696E6720626F6E642E000000F1
:10A39000BC480200583902002DE9FC470025178807
:10A3A0000646158090F82D001446894630B13A468D
:10A3B0002146484600F094FB051E09D1B0784FF0C5
:10A3C0000C0A18B32088C846001DB84202D950466E
:10A3D000BDE8FC87684679DF0028F9D12088032191
:10A3E00008F8001020881921401C80B2208008F84D
:10A3F00000102088401C80B2208000EB0801BDF8CE
:10A40000000008F02CFE218808442080F078022209
:10A41000C8B1218896F9033001F1030C4846BC45C8
:10A42000D5D8425421884FF0010C491C89B22180B3
:10A4300000F801C02188491C89B2218009F8013047
:10A440002088401C20807068B8B1218890F90030C5
:10A4500001F1030C4846BC45B9D8425421880A2270
:10A46000491C89B2218042542188491C89B221802B
:10A4700009F801302088401C2080308950B1CDE996
:10A4800000474B460622022106F1080008F0D6FEDE
:10A49000051E9DD1308A50B1CDE900474B460722B9
:10A4A000032106F1100008F0C9FE051E90D1308B83
:10A4B00050B1CDE900474B461522142106F1180092
:10A4C00008F0BCFE051E83D1306A30B13B462246FF
:10A4D000494601F0D8F8051EDBD1706A30B13B4621
:10A4E0002246494603F05EF9051ED2D196F82C00AB
:10A4F00038B13B4622464946304607F0F3FF051E79
:10A50000C7D1307838B13B4622464946304603F041
:10A51000D7F9051EBDD128465AE718B504460020D4
:10A52000ADF8000013466A46204600F006F8002801
:10A5300002D0BDF80000204418BD70B5E0B1DAB11A
:10A54000002402E0045D2C44A4B2651C8D4206D2B6
:10A550001688A642F6D8061976789E42F2D18C4229
:10A560000AD2A31C005D9BB200B1401E0004000C87
:10A5700002D01C188C4201D9002070BD138070BD20
:10A5800080F8301070472DE9F0410D00044606D0E8
:10A590002CB195F87A000026012803D006E00E20A1
:10A5A000BDE8F08195F89800012829D0D5F8A000E1
:10A5B000042825D0D5F89C00042821D04FF00108AC
:10A5C000A6702C2205F17801201DFEF767FF84F8A4
:10A5D0003060D5F8A4006063D5F8A800A0634FF6FA
:10A5E000FF70A4F8E80004F1D400C4F8E400C4F853
:10A5F000EA60A4F8EE6084F8F060207810B104E01E
:10A600000720CDE7FF2084F8540004F155072046C9
:10A61000C4F8D470FFF7C1FBA4F8D80004F1D80245
:10A6200039462846FFF7B8FE0028B9D104F1930057
:10A63000C4F8DC002046FFF7B0FBA4F8E00004F10A
:10A64000E00205F13C00D4F8DC10FFF7A5FE00287D
:10A65000A6D184F85180208BA4F8480084F83C806F
:10A66000266484F85060606900216064454604F106
:10A670003C02781E72DF002892D1257090E710B559
:10A680000288102A1BD0112A20D0262A1DD1007A38
:10A690000C46012801D0022817D1A0780521401CC2
:10A6A000B0FBF1F201FB1201204600F03AF800285D
:10A6B0000BD0A16B002908D0BDE810400847C27B31
:10A6C000012A02D18088A1F8E80010BD0C460021C3
:10A6D00084F8F2108088B4F8E8108842F5D1207927
:10A6E0000028F2D10121DFE710B5044690F85400AC
:10A6F00074DF012084F8F200002084F8F40084F86C
:10A7000050000621204601F0ECFD002808D1A17878
:10A71000204600F006F810B1A16B01B18847002077
:10A7200010BD2DE9F05F044600780F4698B1A77080
:10A730000025C4F8EA50A4F8EE5084F8F050A0794F
:10A74000012608B1012F09D0E07980B1012F05D091
:10A75000022F03D00BE00820BDE8F09F616B21B110
:10A7600084F8F1600820884701E084F8F15004F192
:10A77000EB0100200A5C0AB1304603E0401C0628C9
:10A78000F8D300204FF002084FF0030A4FF0040BFB
:10A79000012F06D0022F0CD0032F0FD0042F15D17C
:10A7A00010E0A17929B194F8241011B908B130460C
:10A7B0000DE0E17911B108B1404608E0207A08B116
:10A7C000504604E0607A08B1584600E02846A07080
:10A7D000616B41B1032801D0042804D1607910B124
:10A7E00094F8F20098B184F8F35004F13C00182179
:10A7F0000746FEF76CFE84F83C6004F12C0006F07E
:10A8000021F858B194F82C0084F8510008E084F83D
:10A81000F45084F8F36007208847E6E784F8516035
:10A8200094F8240058B104F1280006F00BF820B188
:10A8300094F8280084F8520001E084F8526084F80B
:10A840005050A27804F1EA0104F1D409052A4DD24E
:10A85000DFE802F065030F1B320084F83160C4F8B2
:10A86000E450C4E9101584F83C808020A4F8480026
:10A870003EE084F8318087F800A0228ABA81C4F8CB
:10A88000E4507960E168B96032E06069B860208BBB
:10A89000B8813D4684F83C60204608F09BFC40B1FE
:10A8A00085F814800421204601F01BFDF0B9052134
:10A8B00015E084F831A017E0E069B860208CB88119
:10A8C0003D4684F83C60204608F084FC50B185F891
:10A8D00014800421204601F004FD38B9062184F8D3
:10A8E000311001E084F831B0C4F8E490A07878B178
:10A8F0003A4604F15400D4F8E41072DF00287FF4E3
:10A900002BAF94F8301094F8540073DF0028F6D180
:10A91000616B11B194F83100884700201CE784F87E
:10A920003150F5E770B5040012D001461C221448DE
:10A93000FEF7B4FD1248134D0560206850B17ADF70
:10A94000002806D12068016829604068686005E039
:10A950000E2070BD0B487BDF0028FAD108484FF667
:10A96000FF711438084A20F8041B05493439016086
:10A970000021FFF731FB0028EBD0032070BD000061
:10A98000241E0020601A00206D31020010B504461C
:10A9900000F09CF8002805D02146BDE81040024890
:10A9A00003F0A4B810BD0000501E002070B515467D
:10A9B0000E46044608F01AFC002809D0054800EBB2
:10A9C0008400C0692A463146BDE8704001F0B6BC3B
:10A9D00070BD0000401E002010B5044600F076F85F
:10A9E000002805D02146BDE81040024803F07EB89B
:10A9F00010BD0000581E002010B5044600F066F897
:10AA0000002805D02146BDE81040024803F06EB88A
:10AA100010BD0000541E002010B5002400F056F8B0
:10AA200000B10124204610BD70B50546002400F099
:10AA30004DF838B12946044803F058F808B102240B
:10AA400000E00124204670BD481E002010B51821EA
:10AA5000034803F026F8182800D0C0B210BD00004B
:10AA6000401E002070B505460C46084608F0BEFBA7
:10AA700060B1284600F02AF840B10548294600EBAD
:10AA80008400BDE870401C3003F030B8002070BD79
:10AA9000401E002070B5054616460C46084608F0D4
:10AAA000A5FB00280ED0284600F010F8002809D099
:10AAB0000548324600EB84002946BDE870401C3052
:10AAC00001F00ABC70BD0000401E0020142801D314
:10AAD000002070470146014803F008B8441E0020DA
:10AAE0007CB5054608880C460930904201D90C20F7
:10AAF0007CBD68466DDF0028FAD1218808206854A3
:10AB000020881B21401C80B2208029542088401CB2
:10AB100080B220802844DDF801100160BDF80510E6
:10AB200081802088801D80B220809DF80010490817
:10AB300000D0012129542088401C208000207CBDA9
:10AB400038B501880446212930D012DC1E481F4A3E
:10AB50001029A0EB02004FEAD0004FF0030202EBF5
:10AB600000400ED011292AD1BDE8384018A104F0C8
:10AB700015B83B2924D0562921D18088132176DFAE
:10AB80000EE017A104F00AF8072000F0DDFA08B182
:10AB9000FFF710FA1548A1880180154803F0D6F890
:10ABA00000280CD0BDE83840FFF704BA0020009020
:10ABB000A08869468FDF002801D0FFF7FBF938BD78
:10ABC0008088132176DFEBE778530200D052020031
:10ABD000446973636F6E6E65637465642E00000074
:10ABE000436F6E6E65637465642E0000401A00202A
:10ABF0007C1C002010B51A4C0188606810290ED00A
:10AC000011292BD1401E606028D1FFF7CAF8002817
:10AC100024D02168002921D0BDE810400847D0B9D0
:10AC200000210122084600F06DFA08B107280FD173
:10AC300007220221012000F065FA08B1072807D198
:10AC400004220221002000F05DFA20B1072802D082
:10AC5000216801B188476068401C606010BD000039
:10AC6000581A00202DE9F04701883B4E40F2F319B5
:10AC70004FF6FF7510291BD011293ED0122954D050
:10AC8000502946D1C188F289841D914241D1618900
:10AC900002293ED18688304602F09AF9050038D064
:10ACA00004F10C0000F0F4F8A8B3294630464EE059
:10ACB000C17B8788044601292BD1A846284602F08B
:10ACC00087F9050017D02F800020287223484346BB
:10ACD0004A460168C5F80A104068C5F80E0004F13C
:10ACE000100105F10A0002F037FA6872F0890028B5
:10ACF0000FD129462AE0042013E0808802F068F989
:10AD0000040006D06068FFF7B9F908B107F06AFAE5
:10AD10002580BDE8F087FFE76868FFF7AFF90028F6
:10AD2000F7D0BDE8F04707F05DBA87880646384699
:10AD300002F04EF90400ECD02B464A4606F1080119
:10AD400004F10A0002F008FA607221463846BDE8B4
:10AD5000F04700F0DFBC0000241E0020601A002035
:10AD60002DE9F04702888688DFF8F8A098B0102A0D
:10AD70000DD0112A46D00AF11003192A61D01A2ADF
:10AD80006CD1007A0409042C43D3012242E0354CF3
:10AD9000083CA068C0430B9061680BA802F0CAFE93
:10ADA0000B990CA800F050FC2C220CA96846FEF769
:10ADB00075FB0027E8460FE008EB47005FF0000551
:10ADC000B0F8049004EB85004946001D02F04EFEE9
:10ADD0006D1C1E2DF6D37F1C0098B842ECD8142EA3
:10ADE00005D318B00420BDE8F047FFF7E3B83146BB
:10ADF000504602F086FE18B03146201DBDE8F047EF
:10AE000002F07FBE18B031465046BDE8F04702F070
:10AE10002DBE00223146184601F05EFA032C01D304
:10AE2000012200E000220F4831460C3001F054FAB4
:10AE3000022C01D3012200E000220A4831460830EA
:10AE400007E0017A002909D1407A3146C0F3C002F7
:10AE5000184618B0BDE8F04701F03EBA18B0BDE89A
:10AE6000F0870000481E002010B50446074800780F
:10AE700000280AD0204601F0D9FE204607F08AFBC0
:10AE80002046BDE8104001F077BB10BD981A0020A5
:10AE9000007800F0010070470149085C704700002D
:10AEA000F83702000649095C4FF0A040D0F81005C1
:10AEB000C84010F0010000D0012080F00100704770
:10AEC000F83702002DE9FC410646C0074FF00005A7
:10AED0000ED0104F00240122385D0095002311464A
:10AEE000019503F071FB641C042CF4D300F046F8C8
:10AEF000B0070DD5074E0024361D0022305D032318
:10AF000000951146019503F05FFB641C042CF4D3FB
:10AF1000BDE8FC81F437020007490B5C4FF0A0410B
:10AF2000D1F804250120984020EA0203C1F8083531
:10AF30001040C1F80C057047F43702000249085C64
:10AF4000012103F0F8BB0000F43702000249085C5D
:10AF5000002103F0F0BB0000F43702000649095C51
:10AF60004FF0A040D0F80405C84010F0010000D018
:10AF7000012080F001007047F437020010B5002472
:10AF80002046FFF7DBFF641C042CF9D310BD10B57D
:10AF900000242046FFF7DAFF641C042CF9D310BD0F
:10AFA00010B50246064B4FF0FF3000215C5C944226
:10AFB00001D1084610BD491C0429F7D310BD00007B
:10AFC000F837020070B50C4E0C004FF000053060F1
:10AFD0000BD0012000F06AF808B1022004E0002044
:10AFE00000F064F800B10B202070706810B9FEF713
:10AFF000D8FE0546284670BD581A002010B500201E
:10B0000000F0DCF908B1062806D1012000F0D6F9DD
:10B0100008B1062800D1002010BD00002DE9F0473E
:10B020000D468146FFF7BCFF0446042836D2DFF800
:10B0300074801B481C4EA8F10C0725B3012D0ED0BF
:10B04000022D2BD104EB440030444578002D25D04F
:10B05000B968002922D02846BDE8F047084704EB2C
:10B060004401755C0E44717849B10E4A4FF4804139
:10B07000093A8068FEF7EAFF08B987F80390B178CB
:10B0800008F80410E2E78068FEF7F8FF04EB4401DB
:10B09000314418F804008D78A842D7D0BDE8F08775
:10B0A000FC370200541A0020C01D0020042801D2E1
:10B0B000FFF7F8BE002070470146104810B5008821
:10B0C000042907D007290ED00A2915D1BDE8104060
:10B0D00007F04CBA132176DF0CE000280CD0BDE855
:10B0E0001040FEF767BFA0F57F41FF3904D1044847
:10B0F000FFF7FAFA0828F0D110BD0000401A00202E
:10B10000881C002070B50023042810D20D4D00EBE0
:10B110004004012A02D101290CD00022094E00EB83
:10B120004000304461B1012906D0022906D007232E
:10B13000184670BD0E30C2B22A55F9E74270F7E7E3
:10B140008270F5E7C01D0020044A014600201279F4
:10B15000D20702D0084600F04DB87047481A0020C8
:10B1600070B506461E480024C0E90161B00720D52D
:10B170000025012211462846FFF7C4FF6D1C044636
:10B18000042D02D2002CF4D013E094B940F23332F3
:10B1900004211448FEF78CFE04000AD1FEF776FE67
:10B1A000040006D10F48104A0021001FFEF714FFCB
:10B1B0000446F00712D00120FFF784FE74B9094855
:10B1C0000A4A00210C38FEF707FF040006D10548A3
:10B1D000074A01210838FEF7FFFE0446204670BDED
:10B1E000481A002008380200C9B40100EDD101005E
:10B1F0007B9E01002DE9F05F6E4C054600266078CD
:10B20000B34618B184F801B001F0D8FF6A4F4FF48B
:10B210007A694FF4C87A4FF00108182D69D2DFE837
:10B2200005F00C1313384754696E727B727BC5842A
:10B2300084848484B3B6B9BCC5C501F0BFFF386847
:10B24000FEF71CFF06465CE00020FFF787FE0028A3
:10B250004FF0000008D0FFF771FE022D02D14FF42D
:10B26000E16008E0484606E0FFF770FE022D01D1DC
:10B27000C82000E05046410CC0034FF47A72801899
:10B2800041F10001257052000023FEF7C3F801468A
:10B290002AE00020FFF762FE00284FF0000004D0F3
:10B2A000FFF74CFE4FF44870E5E7FFF74FFEDFE78E
:10B2B0000020FFF753FE00284FF0000002D0FFF7F8
:10B2C0003DFECFE7FFF742FED4E70020FFF746FE42
:10B2D00000284FF0000002D0FFF730FE01E0FFF73A
:10B2E00035FE257040F6CD4100223868FEF7AEFEEF
:10B2F000064646E00020FFF70FFE257008E000201C
:10B3000051E025703DE084F801800120FFF704FE44
:10B31000002240F26661E8E784F801800120FFF72F
:10B32000FBFD00224FF40051DFE77868FEF7A6FE30
:10B330000646D5F1110000D02EB10220FFF7FEFD28
:10B3400084F802B01DE0012816D980B2C821484314
:10B35000C117C90341EA5041C0034FF47A72801803
:10B3600041F1000152000023FEF754F8014600228B
:10B370007868FEF76BFE06460220FFF7E7FD84F8CB
:10B3800002803046BDE8F09F01F018FFB9E701F0F8
:10B3900015FFB4E701F012FF04E001F00FFF0020F9
:10B3A000FFF7D4FD0120FFF7D1FDAAE7FFF7EFFD7E
:10B3B000A7E70000481A0020FC370200012107F02F
:10B3C000A4BF00002DE9F84F0546861C00208DF82B
:10B3D000000091460F464FF0010A6846FEF754FE02
:10B3E0001B4C04F21C4860683860D4E90101194F15
:10B3F000401A3968081A0EE00121404602F094FB19
:10B4000002F084F80146404602F08EFBD4E90101C7
:10B41000401A3968081A401C8642EDD8B9F1000F6D
:10B4200003D0052065F3891002E0062065F39F50E4
:10B4300061683A68114004EB8101C860606830447B
:10B4400060609DF80000FEF743FE5046BDE8F88FAF
:10B4500088260020FC1B002070B50D4604460A29F2
:10B4600002D10D21FFF7F8FFA0682268411CA160FE
:10B470001554D4E90101814204D32046BDE870404F
:10B4800002F067BD70BD00000448816840688142D9
:10B4900001D101207047002070470000882600205D
:10B4A000034630B5074800210478426806E000BF33
:10B4B00002EBC10005789D4203D0491CA142F7DB95
:10B4C000002030BD481B002000780221FFF7A6BDF8
:10B4D0001CB5044601F0CEFC00236A46092104F0A5
:10B4E000EBFF052805D10348012241792046FFF7EB
:10B4F000D1FA1CBD681A00201CB50446002000903B
:10B5000042F6A620ADF8000001208DF802000848A0
:10B5100001AA6946006801902046A0DF002805D1F5
:10B520000448012281792046FFF7B4FA1CBD0000CF
:10B5300028380200681A002005494FF0FF32082819
:10B5400041F8202002D3084480F8482070470000CA
:10B55000B4210020F0B54FF0FF3512B100230826CA
:10B5600001E008230C260C4C05E000BF54F82370C2
:10B570007F1C04D05B1CB342F8D32846F0BD2618CC
:10B580005DB286F8305044F82310002AF5D1E11856
:10B5900081F84800F1E70000B42100200249084486
:10B5A00090F9300070470000B421002070B50446C7
:10B5B0004FF6FF750A462846AC4209D14FF4807415
:10B5C0002146104602F06DFA80B2A0420BD070BD49
:10B5D000FF2CFCD82146104602F053FA90F0010FE0
:10B5E00001D0204670BD284670BD000070B5084CE3
:10B5F000050009D010342168002907D008682060B0
:10B60000496828468847F6E70834F4E770BD00002B
:10B61000A0210020054A012120B1012805D1917007
:10B62000FFF7E4BF51700020FAE77047A021002027
:10B6300010B5D0E90234D1E90220D11AA04101D3DA
:10B64000012010BD002010BD73B58CB0064600204F
:10B6500000900D9880B100246D4621460DA802F09F
:10B6600045FA30B1009805EB400084800098401CFA
:10B670000090641C142CF0D32C2269463046FDF750
:10B680000DFF0EB070BD2DE9F04117880646B81DBC
:10B6900014460D46984202D90C20BDE8F08131884D
:10B6A000072206290AD34FF4486C4FF6FF73614511
:10B6B00001D9994202D17088062801D21046ECE7E0
:10B6C000604501D99842F9D1994203D0984201D0FE
:10B6D0008142F3D80520E85520881221401C80B211
:10B6E000208029542088401C80B220804119308855
:10B6F00007F0B5FC2188084480B220804119708889
:10B7000007F0ADFC2188084420800020C5E7FEF743
:10B7100051BC000038B54A7A0F4B62B100220A7260
:10B720005969002906D001228DF80020ADF80200E9
:10B730006846884738BD0A7A62B19B684C68024601
:10B7400019462046FEF782FC0028F3D0BDE83840B9
:10B7500006F048BD5B68F1E7241E0020F0B585B017
:10B7600016460F4604461D4614220B496846FDF74F
:10B7700095FE0A488DF80870ADF80240ADF80A60F1
:10B780008DF80C50017800222046FFF783F96846B7
:10B7900000F06EFB05B0F0BD6C390200081B002004
:10B7A000FEF738BA70B504460948012102F0D7F90E
:10B7B000BFF35F8F0025002808D1204601F020FE4E
:10B7C000002803D1BFF35F8F0148056070BD000002
:10B7D000741A00202DE9FF410C4620B14FF40640B9
:10B7E00004B0BDE8F0812079002748F2096538B13E
:10B7F00041F61D5601281BD0022826D0681DEFE710
:10B800000220207102970397E0680190694601A821
:10B8100006F036F950B102988188E18000882081D5
:10B82000BDF80010029806F0A9F9D9E72846D7E735
:10B830000A4B6A460021A01D06F0DAF838B1074924
:10B8400018398F61CF61A842CAD13046C8E7034892
:10B850008188019806F092F9F5E70000A81B002006
:10B8600070B500240F4D10E0686800EBC406307816
:10B8700003F0DCFE7178012901D0012100E00021F4
:10B880004140307800F048FA641C28788442EBDBB1
:10B89000D5E90401084303D0BDE8704007F02CBA95
:10B8A00070BD0000481B002010B50021024802F0C6
:10B8B00056F980F3100010BDA42A00204FF4803206
:10B8C0008A400168C1F848230068C0F8082370471F
:10B8D0004FF4A07202EB810189B200F08DBA2DE91C
:10B8E000F04105460E464FF4A07000EB860081B291
:10B8F00028684FF48034B440984622F07F47C0F85F
:10B9000008432868C0F84843286803F0FDFA28680F
:10B9100000EB8600C0F840752868C0F84443B8F1D1
:10B92000000F02D02868C0F80443BDE8F081006829
:10B93000D0F804057047000070B54379234C44F8F3
:10B9400023204279231D03EBC202224C1579204AA1
:10B95000121BD4082DB10825022000EB04401EA1C3
:10B9600030E005680A88C5F8082590F90420897830
:10B97000002A4FEA411104DB02F1E02282F80014B0
:10B9800005E002F00F0202F1E02282F8141D90F9A6
:10B9900004100122002909DB01F01F0502FA05F558
:10B9A0004909890001F1E021C1F8005141790025E0
:10B9B00003EBC1010A71417943F83100032000EB28
:10B9C00004400EA103F0EAF8284670BD841B002055
:10B9D00058530200D052020052544320696E7374CF
:10B9E000616E636520616C726561647920696E695E
:10B9F0007469616C697A65642E0000005254433AA0
:10BA000020696E697469616C697A65642E00000052
:10BA100090F90400002809DB00F01F020121914089
:10BA20004009800000F1E020C0F8001270470A468B
:10BA3000022100F067B94FF4827100F0DDB90068AF
:10BA400001210160704700680121416070472DE9C4
:10BA5000F05F07460C464FF4A07000EB84001FFA1D
:10BA600080FA38684FF48036A6409B4622F07F4526
:10BA7000C0F848633868C0F808633868D0F80485AF
:10BA800000EB8402D2F84095C2F8408551463868F0
:10BA900003F03AFAA9EB080020F07F40012806D114
:10BAA000102003F005FD5146386803F02DFA386880
:10BAB000D0F80485C0F84463A5EB080121F07F416C
:10BAC0003868012900EB840010D0C0F84055386870
:10BAD000D0F804156FF07F4C6A1A521E22F07F4294
:10BAE000ACEB0B03934217D362B118E06D1CC0F8A6
:10BAF0004055102003F0DCFC3868D0F804054045C0
:10BB00000AD10CE000EB84006D1CC0F84055386889
:10BB1000D0F80405884202D00D20BDE8F09F012234
:10BB20003146384600F0EEF80020F6E713460A46A4
:10BB30000021FFF713BE00002DE9F843104D0F461A
:10BB400080461E4691466946286801F063FF04005E
:10BB500014D01C21FDF7BBFC01202071C4F8149007
:10BB6000380BC4F80080C4E902606946286801F017
:10BB700072FF05F0A7FE0020BDE8F8830420FBE774
:10BB8000703A020010B503780022072B06D2DFE8D6
:10BB900003F005040610202930000A7010BD0123AF
:10BBA0000B7003898B818388CB81C06888600A749D
:10BBB00010BD02220A7002898A818288CA81C26805
:10BBC0008A60807D062802D00020087410BD012004
:10BBD000FBE703220A70C2888A810289CA81C06891
:10BBE000886010BD04230B70C0888881CA818A6078
:10BBF00010BD0520087010BD70B5064D0646002426
:10BC000055F8241009B130468847641C042CF7D33A
:10BC100070BD00002023002030B50446006887B0C6
:10BC20000D46806800281FD018216846FDF74FFC9C
:10BC30000195A0680590207910B1012810D107E086
:10BC400001208DF8000020690290E068039005E073
:10BC500002208DF80000E068000302906069049003
:10BC6000206881686846884707B030BDF0B585B068
:10BC700017460C0005463AD0112C38D0082C36D087
:10BC80001C481D49401AC6080D2C11D0204603F04F
:10BC9000A3FB0246012000EB06402B46174902F0A9
:10BCA00088FF2A460721684601F068FE02941BE0DF
:10BCB000022000EB06402A46114902F073FF2A4693
:10BCC0000321684601F05AFE27B13878C00701D039
:10BCD000012000E002208DF8080000208DF80C0003
:10BCE00041F20110ADF80A00684600F0CFF805B047
:10BCF000F0BD000018530200D0520200884A020032
:10BD0000784902000368C3F84413002A02D000688F
:10BD1000C0F80413704700002DE9F84F0E4634496F
:10BD2000804601EB5001C007097801D00F0901E0FE
:10BD300001F00F074FF00009424601204946FDF788
:10BD40009AFBDFF8B0A004460D46052F4ED2DFE87F
:10BD500007F003161B282C00002E47D00121404677
:10BD600006F0AEFE8DF800906846FEF78DF950465D
:10BD7000D0E904120C431543CAE9044532E00EB180
:10BD8000022114E0002112E04EB10321404606F0EA
:10BD900097FE4046BDE8F84F012107F03FBA012168
:10BDA00005E0002E22D1042101E02EB103214046FE
:10BDB000BDE8F84F06F084BE0021404606F080FE44
:10BDC0000021404607F02AFA8DF800906846FEF7F9
:10BDD0005BF95046E243D0E904341A4024EA0501F5
:10BDE000CAE904219DF80000FEF772F9BDE8F88F5A
:10BDF00080220020481B002010B5006842581AB16C
:10BE000003F082F8012010BD002010BD10B50446DB
:10BE1000408801F02FF8A080024801682046BDE864
:10BE200010400847701A002010B50446808800F0C2
:10BE30006BFF6080024801682046BDE8104008475B
:10BE4000801A00202DE9F04107460024064E074DD8
:10BE500005E000BF56F8241038468847641CE8788F
:10BE60008442F7DBBDE8F08154210020981A0020BD
:10BE700010B50446408800F0FDFFA080024801682C
:10BE80002046BDE8104008472C39020001490968E6
:10BE900008470000A839020070B586B00446142196
:10BEA0006846FDF714FBA0890125A0F54040ADF8D8
:10BEB000040020782F4E062833D2DFE800F032034A
:10BEC00003032C4AA08900F0EBF930B9E08943F66E
:10BED000FE71A0F54040884223D8A07B8DF8080071
:10BEE000207803280FD000208DF80900A068039067
:10BEF000606850B109208DF80000606804906846C1
:10BF000004F02CFA0DE00120EEE708208DF8000087
:10BF10008DF81050F3E7A08900F0C2F908B1E0896C
:10BF200030B17078002801D004F06CFB06B070BD11
:10BF3000606830B10B208DF8000060680290757069
:10BF4000DDE70A208DF80000BDF8040004F0FEFBD8
:10BF5000F5E7606848B114208DF800006068029031
:10BF60004FF6FF70ADF80400C9E713208DF800000C
:10BF7000F6E70000841A002038B504460F48007820
:10BF8000B0B1A4F57F40FF380FD0684605F0CAFB7A
:10BF900088B10521017001210171C480684605F056
:10BFA000CFFB05F081FC002038BD48F2036038BDAE
:10BFB00048F2016038BD48F2076038BDB01B002070
:10BFC0000D4808B5007888B1684605F0ABFB80B134
:10BFD00006210170684605F0B3FB0848017809B1F5
:10BFE0000121017305F060FC002008BD48F20160EA
:10BFF00008BD48F2076008BDB01B0020E423002004
:10C00000F0B587B014216846FDF761FA304C20780E
:10C0100018B16846FFF7F0FD57E0201D01F081FDE3
:10C0200098BB40F6F8700168481C02D14FF0102010
:10C0300041694FF0805000694A1C02D100EB40007A
:10C040000101244800220161A1F54051C16022494B
:10C0500002F014F9002823D121481C238C221F4907
:10C06000006801F0C4FC03F005FF050016D0022DA6
:10C0700014D000270126062D14D005A805F052FB88
:10C0800098B106700C2D1BD200E01EE0DFE805F031
:10C0900018101810181718171812141248F20A60FE
:10C0A00007B0F0BD26706760B3E748F20760F7E7B6
:10C0B000077105E0032100E00221017100E0067133
:10C0C00005A805F03DFB05F0EFFB0020E8E70000C8
:10C0D000B01B0020581C0020803A020030230020B2
:10C0E000E839020038B5040014D0694605F0C8FCF0
:10C0F000B0B1BDF8000000EB80010B4800EB8100FF
:10C10000C16851B1A17A41B1C168491EC160002026
:10C11000A07238BD48F2046038BD48F2056038BDF1
:10C1200048F2096038BD0000BC2300201FB501A9FA
:10C13000684605F05DFC04B010BD07B513460A461D
:10C140006946002005F054FC0EBD07B513460A46AB
:10C150000021684605F04CFC0EBD20B119B1006805
:10C1600008600020704748F204607047F8B50D463B
:10C17000040018D0BDB1694605F082FCB0B1BDF82D
:10C1800000000C4900EB800001EB800001210C3025
:10C19000666801F0C9FC2E6060680C3068600120A0
:10C1A000A0720020F8BD48F20460F8BD48F20960B2
:10C1B000F8BD0000BC23002018B10323002207F0C3
:10C1C000E7B948F2046070470223002207F0E0B9A3
:10C1D000094910B50A69042A0AD0084A096942F8CF
:10C1E000210005480121103001F09EFC002010BD07
:10C1F00048F20B6010BD0000901B0020202300209F
:10C200002DE9F84F044624480078D8B1F4B1122142
:10C210002046FDF75CF90320DFF8809020800025A0
:10C2200004F1100804F10E0A05EB850109EB810603
:10C2300030897189084487B2706803F0A5FD03282E
:10C2400007D009E048F20160BDE8F88F48F20460C9
:10C25000FAE72088401E20806088F16808446080EA
:10C260002089718908442081608938446081C7F53C
:10C270008060A18980B2814200D2A0815346A21D74
:10C28000211D2846CDF8008005F096FC6D1CADB24E
:10C29000022DC9D30020D7E7B01B0020BC2300200B
:10C2A00043F6FE71A0F54040884201D80120704756
:10C2B0000020704710B504460078182802D1FEF718
:10C2C000C5FB207010BD10B504460078182802D1B7
:10C2D000FEF7BCFB207010BD0AB101F012BC01F0EA
:10C2E000C5BB70B50D460446B0F8D810D0F8D400E0
:10C2F0000122FEF712F900B1057004F13C0204F1CD
:10C30000D40104F1540072DF70BD000070B5134613
:10C3100000220546112900D10122074C33B12179B1
:10C32000FEF7B8FB00226178284600E06178BDE89E
:10C330007040FEF7AFBB0000101B0020F7B517469A
:10C340000E0011D00098002560B1002421466846F7
:10C3500001F0CCFB18B1A0B23946B0476D1C641C8B
:10C36000142CF3D32846FEBD0020FEBD406805F026
:10C37000F9B9000070B510B14FF4064070BD1C4C07
:10C380000025207B08B1257301E000F0A5F8207896
:10C3900008282AD2DFE800F02904080C102914220A
:10C3A000BDE8704000F026B8BDE8704000F082B8EB
:10C3B000BDE8704000F064B8BDE8704000F040B8DF
:10C3C0000620207060880A4900EB8000283901EBC4
:10C3D00080004068BDE8704003F02CBD072020704D
:10C3E0006560BDE8704003F033BD48F20E6070BD7B
:10C3F000E42300201149F0B48A1C00200346A1F177
:10C4000028050C18A67A4EB1A37200EB800405EB48
:10C410008404E66816B9247C012C0AD0401C80B242
:10C420000228EED30B704B804B60F0BC41F61D50E0
:10C4300070471080F0BC00F03DB80000E4230020FD
:10C440000C48418801EB8102A0F1280101EB820137
:10C45000CA6852B105210170074802218180016834
:10C4600000230122054801F06DBE042202704968D4
:10C47000F6E70000E4230020B81B0020581C002031
:10C4800038B50A49084803240B684268898803EBD9
:10C49000810153880470DB1C00201B0400909B0B5F
:10C4A000034801F0A3FF38BDE4230020B81B00209F
:10C4B000581C0020074910B54888091D05F030FBBD
:10C4C00018B1BDE81040FFF7DBBFBDE81040FFF733
:10C4D000B7BF0000E423002070B5194C012120787B
:10C4E00008281AD2DFE800F00419191C2529291898
:10C4F0002089134A401C2081002060802073283A44
:10C5000000EB800312F8233043B100232518401CB0
:10C5100080B2AB720228F3D3217070BD0123F5E71E
:10C520006068084940888A88C01C104488800220BE
:10C5300004E000F009F8062000E00720207070BD3C
:10C54000E4230020B81B00200A49094849880268F2
:10C5500001EB81030749283901EB83014B68036034
:10C560004A6082880A810222828000200874704713
:10C57000B81B0020E42300202DE9F0430646808804
:10C580003288DFF85C8185B00746502A37D010DC4E
:10C590005449554B06F10A05A1EB03014FEAD101BD
:10C5A0004FF0020303EB0144352A3AD0362A07D173
:10C5B00068E0522A02D0542AF9D102E000F0C4FE09
:10C5C00082E0142249496846FCF768FFADF8027022
:10C5D000384600F04FFCADF8040000F0C9F9002225
:10C5E000444698F804103846FEF754FA0022E178E1
:10C5F0003846FEF74FFA6846FFF708FC64E0307BE8
:10C60000012861D1B07A01285ED13089A0F524518A
:10C61000023959D10121384600F0EAFE06F08EFDBC
:10C6200052E098F80610FEF71DFA00284CD00022C0
:10C6300098F806103846FEF72DFAF288B2F5857F95
:10C6400017D012B120462AA10BE02A88012A03D074
:10C65000204636A102F0A6FA6A88012A04D02046B4
:10C6600041A102F09FFA04E0A98800223846A1DF28
:10C6700008B1002125E0012298F807103846FEF79E
:10C6800009FA21E04FF0000998F80710FEF7EAF9DF
:10C69000D0B1002298F807103846FEF7FBF9F2886F
:10C6A00012B1204612A104E0AA88012A04D0204633
:10C6B0002DA102F077FA03E0A87900B101208146AC
:10C6C0004946384606F05EFA0022364998F80200DC
:10C6D000FEF76CF905B0BDE8F04305F0FBBD0000C6
:10C6E000681A0020D0520200D052020080380200A6
:10C6F000556E6578706563746564204741545420B5
:10C70000737461747573207768696C6520676574EC
:10C7100074696E67204341522063686172207661BC
:10C720006C75653A20307825780000004D756C7482
:10C7300069706C6520282564292043415220636874
:10C740006172616374657269737469637320666F83
:10C75000756E642C207573696E6720746865206639
:10C76000697273742E000000556E6578706563748D
:10C77000656420434152206368617261637465722D
:10C7800069737469632076616C7565206C656E678A
:10C79000746820282564292C2073746F72652030FA
:10C7A0002E00000015A2010070B504460078002894
:10C7B00014D1608800F0C8FD6588284600F09AF919
:10C7C00028B107480122C1782846FEF763F960883E
:10C7D000FEF77EFEBDE8704006F0B0BC70BD000004
:10C7E000681A002070B5204C00252570FEF72EF940
:10C7F0006070FEF72BF9A070FEF728F9E070FEF7E5
:10C8000025F92071FEF722F96071FEF71FF9A0717A
:10C81000FEF71CF9E07162780121182A18D0A2787D
:10C82000182A15D0E278182A12D02279182A0FD0A7
:10C830006279182A0CD0A279182A09D0182807D0B2
:10C8400004F10C000560BFF35F8F2170002070BD04
:10C850000648074A801AC00801EB0040054902F06B
:10C860009DF9032070BD0000681A0020D05202001C
:10C87000D05202007C3D02007CB5044600780828B6
:10C8800037D1607A58BB207A1C4E4FF6FF750128CD
:10C8900011D0072802D008282BD121E0A08800F071
:10C8A00033FA0446A84224D0012100F0A1FD20461D
:10C8B000FEF70EFE1DE0A0886A46012103F070FC21
:10C8C00068B90198007850B1A08800F01DFAA8421C
:10C8D0000FD00122F178FEF7DDF805F0FBFC08E04F
:10C8E000F068012805D1BFF35F8F044900200C31A7
:10C8F0000860BDE87C4006F021BC0000681A0020FA
:10C9000010B50B48FFF713F8094A083AD2E9043486
:10C91000C018D2E9063244F10001C31A71EB0202D9
:10C9200004D24FF08072801841F1000110BD000068
:10C93000681B002010B5C0B2FEF7B2FD04460078B7
:10C9400002F074FE01466078012801D0012000E069
:10C95000002090EA010F08D00449D1E904010843FE
:10C9600003D1BDE8104006F0C7B910BD481B002038
:10C970001CB5054AD2E90212CDE90012002269462F
:10C9800003F0D4FD1CBD00009838020003484FF6A8
:10C99000FF7181800121017000207047781A00200A
:10C9A0002DE9FC41804600F065FA002403250127AB
:10C9B000A0F57F412646FF3908D06A46082103F0DA
:10C9C000EFFB18B90198841D8688056832462B460E
:10C9D00021464046B1DF042804D0082804D00B28A3
:10C9E00008D002E0112000E00020002F00D10B2031
:10C9F000BDE8FC810027A80701D50125E6E73443FF
:10CA000003D0002426460325E0E7064806494246AF
:10CA1000401AC008012101EB0040044902F0C2F8AD
:10CA2000E5E70000D8520200D05202004440020064
:10CA30002DE9FC41804600F01DFAA0F57F41064635
:10CA4000FF390ED001252A466D1C0027ADB26B467A
:10CA50000821304603F0EEFB040006D0072C33D04B
:10CA600033E043F20200BDE8FC81019903230A1D73
:10CA70000B604046891DB2DF040004D00C2C09D0A5
:10CA8000052C09D009E032460821104603F04AFC83
:10CA900004461AE0012700E000240821304603F094
:10CAA00037FC70B102F098FC034609480949324648
:10CAB000401AC008012101EB0040074902F079F853
:10CAC0000324002FBFD100E00C242046CBE7000058
:10CAD000D8520200D0520200C43F020004488088AD
:10CAE000A0F57F41FF3901D005F0FEBB7047000083
:10CAF000781A00200EB502A9019100F0BBF96A4630
:10CB0000012103F04DFB08B100200EBD0198007813
:10CB10000EBD00002DE9F04107464FF6FF761048A4
:10CB2000B3DF78B102F058FC02460E480E49401AB5
:10CB3000C008012101EB00400C4902F033F803204A
:10CB4000BDE8F081064C43F20305A41E324661881D
:10CB50003846AFDFA842F3D16088401C6080F5E71B
:10CB60007A1A0020D8520200D0520200783F020008
:10CB7000428800EB82020C328A4201D902207047BF
:10CB80008188A1F57F42FF3A06D0018821B18068F3
:10CB9000401C01D00020704701207047884204D219
:10CBA0000068401C01D001207047002070473EB54E
:10CBB000027802230C46B3EB520F17D1B0F80110E4
:10CBC000ADF80010C1788DF802108188ADF804101E
:10CBD00080798DF8060002AA01A92046FDF724F904
:10CBE000032202A96846FCF784FC08B100203EBD80
:10CBF00001203EBD70B50D460446142810D2FDF745
:10CC000065FF68B1084904EB840001EB4000D0F8EF
:10CC100002102960C188A980007AA871002070BD27
:10CC200043F2020070BD0000BC1E002070B50188F8
:10CC300090B0102961D1011D28226846FCF72EFC16
:10CC40009DF804004FF6FF7603213446B1EB500FF8
:10CC50002BD003F029FC9DF804006D4640080ED04F
:10CC600001280CD0022820D118E00C99281D113180
:10CC7000FDF76EF818B100BFBDF8284015E00BAA0B
:10CC80000AA9072003F0E4FB0028EED10DE00C997F
:10CC9000281D491CFFF78BFF0028EDD10BAA0AA91C
:10CCA000072003F0D5FB0028F1D1BDF80000B44205
:10CCB00000EB8001124820F8114000EB410001997F
:10CCC000C0F80210BDF80810C1809DF80A1001726A
:10CCD00013D0BDF80000ADF82A000020ADF82C40BC
:10CCE000084E8DF828000AAD044600BF56F82410FF
:10CCF00028468847641C022CF8D310B070BD000091
:10CD0000BC1E0020AC3802002DE9F0414FF6FF7642
:10CD10000546B04213D00B4F002400BF04EB840043
:10CD200037F81000A84206D12046FDF7CFFE10B11B
:10CD30002046BDE8F081641CA4B2142CEED330462A
:10CD4000F7E70000BC1E00203EB50C46054603F088
:10CD5000ABFB0BE0BDF80000A04207D028460299CB
:10CD600000F00EF810B1BDF800003EBD01AA694602
:10CD7000072003F06DFB0028ECD14FF6FF703EBD9D
:10CD80002DE9F0410C46054600F1110701F11106AD
:10CD90001022491C401CFCF7ACFB48B9681C00F091
:10CDA000FDF928B1601C00F0F9F908B1012400E098
:10CDB000002431463846FCF7CBFF3B780222B2EB29
:10CDC000530F0CD00321B1EB530F08D03378B2EBE3
:10CDD000530F04D0B1EB530F01D0012100E000212B
:10CDE000084201D18C4302D00120BDE8F08100202F
:10CDF000FBE7018811B9421892780AB10120704707
:10CE0000491C0829F7D30020704710B50C4603468B
:10CE1000FFF7EFFF00280AD018882188884205D143
:10CE20000822A11C981CFCF764FB08B1002010BD6F
:10CE3000012010BD142804D2024A00EB800022F821
:10CE400010107047BC1E002070B50546FFF75CFF50
:10CE50000446284603F0A8F9002808D1142C06D26D
:10CE6000034B04EB84024FF6FF7123F8121070BDE0
:10CE7000BC1E002010B50446142808D2FDF726FE7B
:10CE800028B1044904EB840031F8100010BD4FF6BE
:10CE9000FF7010BDBC1E00203EB5044603F004FB2D
:10CEA0000EE0019920464631FFF7AFFF28B90199FE
:10CEB00020462A31FFF7A9FF10B1BDF808003EBD9A
:10CEC0006A4602A9072003F0C3FA0028E9D14FF609
:10CED000FF703EBD10B50A4941600A4800F021FECE
:10CEE00058B902F0D9F907491C238C220874044868
:10CEF0008C39001F006800F07AFD002010BD000092
:10CF0000743A0200902400202DE9F0412D4F0025B5
:10CF100020B17D604FF40640BDE8F0810879012220
:10CF200058B1294E01280CD0264C4FF00208083485
:10CF3000022820D0032841D127E00A7102F088FF9F
:10CF40003AE0002000EB800116F82110022908D0F9
:10CF5000401C80B20228F5D33A707D6041F61D5026
:10CF6000DAE700EB800006F8205006EB800040680E
:10CF700002F060FF20E00D71A4F80480002301227C
:10CF80001248216801F0DEF816E00D71206802F009
:10CF900051FF0D4923682831498801EB810206EBD6
:10CFA0008201D1F804C0C4F800C04B60A3880B8193
:10CFB000A4F8048006F822500028ADD07D6048F225
:10CFC0000D60A9E7B01B0020BC230020581C0020E6
:10CFD0000146034802888A4200D0002070470000C2
:10CFE000101E00202DE9FC5F0E008346DDE90C4792
:10CFF000C6F1000098469246814600D408460125B5
:10D0000003E000BF90FBFAF06D1C5045FADAA8452A
:10D0100000D9454624B1002E01DB780700D5641EF7
:10D02000B80702D5B8F1000F0AD0F80708D13CB113
:10D03000A54205D220215846641EFEF70DFAF6E7F8
:10D04000002E02DA4E462D2102E0780703D52B216F
:10D050005846FEF701FA07F0030002280BD1B8F199
:10D06000000F08D13CB1A54205D230215846641EBC
:10D07000FEF7F2F9F6E7CDE900474346524631465E
:10D08000584606F001F8BDE8FC9F000070B50D465B
:10D09000044600684FF4887102F0BEF94FF49071B5
:10D0A000206802F0B9F94FF49271206802F0B4F9E7
:10D0B0004FF4A271206802F0AFF94FF4AC71206810
:10D0C00002F0AAF920681249C0F804132068690721
:10D0D00040F30730090E002804DB00F1E02080F85F
:10D0E000001405E000F00F0000F1E02080F8141DAE
:10D0F000206840F30730002809DB00F01F020121FF
:10D1000091404009800000F1E020C0F8001170BD9E
:10D1100010034200024600201268530713D502F0A4
:10D120000300012802D002280CD105E0C2F38310CD
:10D130000B68801C184404E00223086803EB925239
:10D1400010440860012070470248007A002800D08F
:10D150000120704790240020F0B58488A5189442DF
:10D1600000D82246A41AC288D6189A4200D813467C
:10D17000D21A4B880788BB420CD34088834209D817
:10D180008888A04206D3A84204D8C888904201D318
:10D19000B04201D90020F0BD0120F0BD0021425C69
:10D1A0000AB101207047491C1029F8D300207047AC
:10D1B000800701D000207047012070470A4810B551
:10D1C000807860B1002401E0022C06D02046FDF7F3
:10D1D000B5FE641C042CF7D310BD0324F6E7BDE8AC
:10D1E0001040FDF7CBBE0000481A0020034801792B
:10D1F000C90702D00078FDF7FDBF7047481A00202C
:10D2000017210180418000210171417170470000A8
:10D210002DE9FE4F2E4F984692460D00814601D0D3
:10D2200000260DE0684600F09FFB6A460021484654
:10D2300002F012FF3878009E10B99DF8090098B1ED
:10D2400052463146484605F053FB0446014600224B
:10D250004846FFF75BF80D2C37D008DCA4B3082C48
:10D2600033D00B2C09D130E00520BDE8FE8F112C06
:10D270001ED0A4F54050023827D0204602F0ACF86A
:10D280000246144814494B46401AC008012101EBDC
:10D290000040124901F08DFC5FF00305B8F1000F6A
:10D2A00004D0324621464846FEF7E0FC2846DCE73B
:10D2B0002A46F9784846FDF7EDFB5246B9784846CC
:10D2C000FDF7E8FB0025E9E7FFE72546E6E7000074
:10D2D000101B002018530200D0520200304A0200F6
:10D2E00070B50E460C49154604460978FDF7BAFBA1
:10D2F00000280FD0204602F055FE00282A4631466D
:10D30000204603D0BDE8704002F052BEBDE8704038
:10D31000FEF70CBC70BD0000081B002070B5094D65
:10D320000646A978FDF79EFB0446E9783046FDF7EE
:10D3300099FB014622463046BDE870400123FFF7C5
:10D3400067BF0000101B0020F0B585B00546002720
:10D3500014216846FCF7BBF8A5F57F40ADF80250F4
:10D36000FF3825D02846FFF71BFB040022D01B48BE
:10D370001B49401AC6080B2C22D0112C1ED0A4F534
:10D38000405002380ED0204602F026F80246012016
:10D3900000EB06402B46134901F00BFC21462846C2
:10D3A00004F028FF10483A4681782846FDF772FBC2
:10D3B00005B0F0BD0E208DF800000BE00127F1E76D
:10D3C0000F208DF80000022000EB06402A46074996
:10D3D00001F0E8FB6846FEF719FDE3E7D0520200D2
:10D3E000D05202004C3E0200681A0020A03E02000B
:10D3F0000A4602494978FDF74DBB0000681A002033
:10D400002DE9F041002786B080463E46FFF710FB2D
:10D41000040022D0112C22D01B481C49401AC508F8
:10D42000862C1ED0A4F5405002380ED0204601F0C4
:10D43000D3FF0246012000EB0540434614A101F052
:10D44000B8FB2146404604F0D5FE39464046FFF77A
:10D45000CFFF06B03046BDE8F0810126F5E7012791
:10D46000F3E714221A496846FCF718F80220ADF8D1
:10D47000028000EB0540424616A101F093FB68468E
:10D48000FEF7C4FCE1E70000D0520200D0520200D7
:10D490006773636D5F6C6F63616C5F64625F636130
:10D4A0006368655F757064617465282920726574AE
:10D4B00075726E656420257320666F7220636F6ECF
:10D4C0006E5F68616E646C653A2025640000000040
:10D4D00058380200466C6173682066756C6C2E20AB
:10D4E000436F756C64206E6F742073746F72652067
:10D4F0006461746120666F7220636F6E6E5F686135
:10D500006E646C653A202564000000002DE9FF413F
:10D510000026244800F002FB2248001F074600F0C6
:10D52000FDFA214C2149A06800900D6800E00098A8
:10D530006946284004EB80000C30FFF7EBFD002823
:10D54000F5D101AA009901EA050304EB8303491C04
:10D55000DB6842F82030401C00910228F2D3019889
:10D5600000F0030001280BD0022810D101980321FC
:10D5700001EB90500099BDF80A6001EB900005E0C6
:10D580000198BDF80A60C0F3831008440090384643
:10D5900000F0C1FA08B10098A06004B03046BDE8C0
:10D5A000F0810000A02A002088260020FC1B00201B
:10D5B000ACB04FF48041002001F06EFB08B1FCF7E5
:10D5C000F9FC01F0B5F9FCF713FD08B1FCF7F2FC2A
:10D5D0005F490320FDF7C4FD08B1FCF7EBFC694689
:10D5E0000020FDF7EFFC08B1FCF7E4FC9DF800001B
:10D5F00002287CD05FF0000501F058FC08B1FCF770
:10D60000D9FC01F0FDFD08B1FCF7D4FC002469460B
:10D610000120009401F088FC08B1FCF7CBFC6846BF
:10D6200001F0FEFC08B1FCF7C5FC9DF8080049A11B
:10D6300020F00F00401C20F0F00010308DF80800A2
:10D64000132202A87CDF08B1FCF7B4FC0094502040
:10D65000ADF80000A0200194ADF80200ADF8044040
:10D660004FF4C870ADF8060068467ADF08B1FCF7E1
:10D67000A1FC00213C4800F0DDFA08B1FCF79AFC5F
:10D68000AC216846FBF723FF02208DF80000012043
:10D690008DF802000621ADF810008DF87C008DF8A1
:10D6A00003104FF4967031492290059144F2506076
:10D6B00023902F4829902C4869461C30FCF763FFC3
:10D6C00008B1FCF777FC284801211C30FCF758FF13
:10D6D0002848009024486946103000F042FB08B109
:10D6E000FCF768FC1C216846FBF7F1FE00E02CE02B
:10D6F0004FF4A030CDE900404FF4F02002901E48D6
:10D70000059003261D488DF80C600690ADF80E407C
:10D710008DF810406846FDF705F908B1FCF74AFCA2
:10D7200003F05AF816481749401AC00806EB0040A3
:10D7300015A101F033FA2846FCF74EFB01F012F96F
:10D740000028FBD101F0C6FBF8E7012554E70000F3
:10D75000B9B001004E6F726469635F54656D706C9F
:10D7600061746520653935006C1C0020421A002068
:10D77000DDFB0100E9EE010031FC01000FB7010003
:10D7800078530200D052020054656D706C6174656C
:10D79000206578616D706C65207374617274656466
:10D7A0002E00000070B5144682880E46054620887B
:10D7B000111D0144921C994201D8FE2A01D90C2066
:10D7C00070BD521C32542088FF21401C80B2208042
:10D7D00031542088401C80B220808119288805F0AF
:10D7E0003EFC2188084480B22080AA8842B1A96802
:10D7F00041B13044FBF752FE2088A98808442080BC
:10D80000002070BD072070BD2DE9F047C5881E1DA2
:10D81000B6FBF5F78946B6FBF5F1044605FB176C38
:10D82000407916686843DDF820A0F718001F87428A
:10D8300000D9C61A166001E02468491E0029FBD1F0
:10D84000A5EB0C078846B74216D818E004EB0C008D
:10D85000001D09EB0803BAF1000F3A4602D0014659
:10D86000184600E01946FBF719FE2468F61B4FF036
:10D87000000CB844B54201D9374600E02F46002ECF
:10D88000E4D1BDE8F087000030B5024651B101F0A7
:10D8900017FA0021074C08E034F821301568AB4234
:10D8A00002D11160002030BD491C8142F4D3052013
:10D8B00030BD000000000000BFF35F8F00F016B91C
:10D8C000F8B50F46017814460546012901D168785C
:10D8D00030B12088821C9A4232D8012902D006E059
:10D8E0000720F8BD69780144891C994228D8181A84
:10D8F000801E86B2ADF800602188B81C08446946D5
:10D900007DDF0028EDD12978022904D06878BDF8A0
:10D910000020904205D3BDF80000B04201D8092094
:10D920000AE00820012905D16978B14202D8ADF892
:10D93000001001E0ADF80060BDF80010FE2901D92B
:10D940000C20F8BD2288491CB9542188491C89B291
:10D95000218078542088401C2080BDF800100844A5
:10D9600020800020F8BD0000034A00219268C0E931
:10D970000021816070470000101B002070B586B048
:10D980000D460646144614216846FBF7A0FD8DF8A7
:10D990000050ADF802402046FFF76CFAADF80400E5
:10D9A000142269463046FBF779FD06B070BD70B5AC
:10D9B0004FF6FF750E46A84201D1002000E0401C42
:10D9C00084B208E02146304600F090F808B12046C5
:10D9D00070BD641CA4B2FF2CF4D9284670BD10B5EC
:10D9E000FBF763FC08B1002010BD112010BD10B57D
:10D9F00031B1B2FBF3F403FB14241CB1092010BDB8
:10DA00000E2010BD01600021416081608281C381D0
:10DA1000084610BD70B50C460546FBF7FBFB002819
:10DA200002D021882868084470BD10B50A8849884A
:10DA30008A4203D1FBF730FC012010BD002010BD4D
:10DA400070B50C460546FBF70AFC002802D0618839
:10DA50002868084470BD10B50A8849888A4203D1F5
:10DA6000FBF7F4FB012010BD002010BD01F01F03E7
:10DA700001229A40D243490900EB8100114600F08F
:10DA800059B80A4601F01F030121994010B5520907
:10DA90000C4600EB820000F05DF8204000D0012031
:10DAA00010BD2DE9F04180460D460024481E01219D
:10DAB00001EB501716E058F82400C04390FAA0F08C
:10DAC000B0FA80F020280CD200EB4416AE4208D207
:10DAD00031464046FFF7D5FF0028ECD13046BDE87F
:10DAE000F081641CA742E6D82846F8E74A0950F8B6
:10DAF000220001F01F0201219140084000D00120C6
:10DB0000704701F01F0301229A40490900EB810090
:10DB1000114600F029B8002100F017B8012100F0EB
:10DB200023B8012100F016B808B56A46FBF709FCD6
:10DB3000009808BD08B56A46FBF7E9FB009808BDE8
:10DB400008B56A46FBF7FDFB08BD08B56A46FBF75A
:10DB5000DEFB08BD08B56A46FBF7CCFB08BD08B57F
:10DB60006A46FBF7BBFB08BD08B56A46FBF7C2FB7C
:10DB7000009808BD08B56A46FBF7F0FB009808BDA1
:10DB800038B5044600258DF800506846FCF77CFA4D
:10DB900021686268086890420ED9401E08600178CA
:10DBA000238AE26801FB0325227A2168101AC0B299
:10DBB0000A79824200D208719DF80000FCF788FAC9
:10DBC000284638BD38B5054600208DF800000C46C3
:10DBD0006846FCF759FAE868298A201AB0FBF1F187
:10DBE0002A681068431C136001709DF80000FCF760
:10DBF0006FFA38BD10B530B1017A42680368891AEE
:10DC0000C9B21A6006E00E2010BD03681A68541CE1
:10DC10001C601170491EC9B2F7D200680021017161
:10DC2000084610BDC20800F007030120895C984037
:10DC30000840704710B560B1C160172120F8021B81
:10DC400020F8021B1B2100F8021BFFF7D9FA002065
:10DC500010BD0E2010BD00007CB50C468188002947
:10DC600033D102880025102A06D0112A09D03A2A79
:10DC70000BD0552A2ED129E00146204601F0E6FFBF
:10DC800028E0A01DFFF7BCFA24E02246408934F8C2
:10DC9000063F834200D818466080172800D217201C
:10DCA0006080D06878B1607968B1184BD3E900031F
:10DCB000CDE90003ADF802106088ADF80400D36828
:10DCC000694610469847657125717CBD014620461E
:10DCD00002F002F8A07A0028F7D02846E188A5DFF4
:10DCE000012680B11128F0D001F076FB02460848E9
:10DCF000084902B0401AC00806EB0040BDE8704079
:10DD000005A100F04FBFA572E6727CBDB4380200D9
:10DD1000E8520200D052020073645F626C655F6774
:10DD2000617474635F65786368616E67655F6D7465
:10DD3000755F7265717565737428292072657475D5
:10DD4000726E65642025732E0000000020B10278F9
:10DD5000DE2A03D0082070470E2070474180002043
:10DD6000704760B159B10278DE2A0AD00968416073
:10DD7000DE2101704FF6FF714180002070470E20B8
:10DD80007047082070477FB5054600294DD0002D0B
:10DD90004BD008780C46DE2847D1A8886188884295
:10DDA00002D1204605F028FA2888012825D002282B
:10DDB0003BD011283AD0512837D135F8040F61886B
:10DDC000884232D1A978A81C02292ED1017A0429CF
:10DDD00003D0062901D0052927D100210091022274
:10DDE0008DF8002001914FF4C07202910391ADF8BB
:10DDF0000420007A05280FD010E0297A2046012956
:10DE000013D1A988428891420FD10121017204B037
:10DE1000BDE8704005F0F0B9ADF8041028886946F7
:10DE2000B0DF002801D0616888477FBDA88861887D
:10DE30008842FAD14FF6FF7060807FBD00F18040CC
:10DE40000068002800D00120704708B500F180402C
:10DE5000002101600068009008BD000070B50D4C05
:10DE60000125207808B185260EE00020A0606060C2
:10DE70002061E060084801F0F3FA064601F00CFA70
:10DE800008B901F0D7FA257001F0CCFA00B1A570FD
:10DE9000304670BDA021002015B6010038B5002520
:10DEA0008DF800506846FCF7EFF8084CE068401E1B
:10DEB000E060E06828B901F0B5FA10B901F0E0FAC5
:10DEC000A5709DF80000FCF703F938BDA0210020E3
:10DED000F0B505460478154889B0164640F8242068
:10DEE000124A0869121DA2F1080742F82400487F6F
:10DEF000385520226846FBF7D1FA04942878385C1C
:10DF000048B10EB10A4A00E000226946281D01F01E
:10DF100047FD09B0F0BD0EB1064A00E00022694697
:10DF200005F10C0001F006FCF3E700002C1B0020BB
:10DF30001D2F0200652D02000FB408B503990029BA
:10DF400004D004AA00926A4600F00FF801B05DF810
:10DF500014FB10B582680446002A05D0D4E90403F6
:10DF6000216898470020A06010BD2DE9FC4791462C
:10DF70000C00804676D014F8011B39B125290ED04B
:10DF80004046FDF769FA20780028F4D198F80C0093
:10DF9000002867D04046BDE8FC47FFF7DABF002005
:10DFA000012221782B291BD02D2902D0302908D11C
:10DFB00002E040F0010001E040F00200641C002A91
:10DFC000EFD100252A290ED02178A1F130020A2AAA
:10DFD00011D205EB850201EB4205641C303DF1E7EF
:10DFE00040F00400EAE7D9F800100B1DC9F8003032
:10DFF0000968641C0D44217800232E290BD114F8E4
:10E00000011FA1F130020A2A05D203EB830201EBC2
:10E010004203303BF3E76C290DD068290BD0692906
:10E0200021D00BDC252918D0582931D063290ED0F6
:10E03000642915D117E014F8011FECE7702969D0A5
:10E04000732932D075291BD0782909D120E0D9F85D
:10E050000000011DC9F8001001784046FDF7FCF9E9
:10E06000641C90E76CE0D9F800100A1DC9F8002084
:10E070000968CDE900500A224046FEF7B3FFEFE7FA
:10E08000D9F800100A1DC9F8002009680A2206E024
:10E09000D9F800100A1DC9F8002009681022CDE93E
:10E0A0000050404604F0F0FFDAE7D9F800100027EE
:10E0B0000A1DC9F800200E68C00705D112E04046CD
:10E0C000761C7F1CFDF7C8F931780029F7D104E0F0
:10E0D000202140466D1EFDF7BFF9BD42C0D9002D7D
:10E0E000F6D1BDE74EB13046FBF7FCF9074604E038
:10E0F000202140466D1EFDF7AFF9BD4206D9002D27
:10E10000F6D103E04046761CFDF7A6F931780029E8
:10E11000F8D1A5E7D9F80000011DC9F8001005687D
:10E1200030214046FDF798F978214046FDF794F9F3
:10E1300008200021CDE90001034610222946B0E75E
:10E14000BDE8FC872DE9F843884605002C482D4999
:10E150009946A0EB01004FEAD0004FF001011646AE
:10E1600001EB004424D0286800282CD0002E34D0A5
:10E17000696840464FF010070A68511E11EA080FFF
:10E1800011D1014672432846FBF7FBFD00282ED033
:10E1900028684B463246046901B041462846A446E9
:10E1A000BDE8F04360472046174B18A2009722E0D5
:10E1B0000E2000902046144B1EA220A100F001FD6D
:10E1C0000E20BDE8F8830820009020460E4B26A2C2
:10E1D0001AA100F0F6FC0820F3E709200090204681
:10E1E000094B24A215A100F0ECFC0920E9E7064B3D
:10E1F000214A2046009711A100F0E3FC1020E0E73F
:10E2000060530200D05202005B3A02006164647203
:10E210005F69735F706167655F616C69676E656494
:10E2200028705F66732C20706167655F616464723B
:10E2300029000000705F66730000000025732063F2
:10E240006865636B206661696C656420696E202572
:10E2500073282920776974682076616C7565203091
:10E260007825782E00000000705F66732D3E705F89
:10E27000617069006C656E00F44A020038B50300F5
:10E280001148124D4FF00E04A0EB05004FEAD000EC
:10E290004FF0010505EB004009D061B119600C6831
:10E2A00001B0A446BDE83040114618466047084B0F
:10E2B00008A2009402E0064B08A2009409A100F015
:10E2C00080FC0E2038BD000060530200D0520200D6
:10E2D000103A0200705F667300000000705F6170AA
:10E2E00069000000257320636865636B20666169BF
:10E2F0006C656420696E202573282920776974680D
:10E300002076616C756520307825782E000000003D
:10E31000044801214174007A08B1002070470120AF
:10E320007047000090240020012801D0032808D164
:10E330000449002201284A7400D00020087403F028
:10E3400063BA70479024002070B50246022801D0BD
:10E35000032A45D1234C207A002841D0012833D00C
:10E36000022831D120480023022A006802D0032A63
:10E370002AD11BE0E360017911B1012924D10DE01C
:10E38000D0E90565711B4FF48056B14200D3314688
:10E39000294481614569A9420ED015E00169491CF3
:10E3A0000161426991420FD1237213E0E168491C77
:10E3B000E160082908D9E3602372022A0AD00D21FE
:10E3C000FDF72AFC03F0C4F9607C28B1BDE8704079
:10E3D00000F068BF0021F3E7BDE8704003F014BA15
:10E3E00070BD000090240020C01B00202DE9F84FD4
:10E3F00090468A463A493B4A0500A1EB02014FEAA2
:10E40000D1014FF00102DDF828901E464FF00E00BA
:10E4100002EB01441AD0B8F1000F1CD02868002884
:10E4200022D00920002E29D069684968B6FBF1F294
:10E4300001FB1261002926D000902B4B20462BA215
:10E4400035A100F0BEFB0920BDE8F88F0090204602
:10E45000254B3CA203E00090234B20463BA22EA17B
:10E4600000F0AFFB0E20EFE70820009020461E4B87
:10E4700038A229A100F0A5FB0820E5E7009020467E
:10E48000194B37A2DCE75046FBF775FC102798B113
:10E490004046FBF770FCA0B1324651462846FBF7D8
:10E4A00070FC98B1CDF80090286833464246C468A5
:10E4B00051462846A047C7E720460B4B29A20097A4
:10E4C00008E02046084B2DA2009703E0064B2046AB
:10E4D00033A2009710A100F074FB1020B4E70000F5
:10E4E00060530200D0520200483A020021286C65B5
:10E4F0006E202520705F66732D3E705F666C6173C1
:10E50000685F696E666F2D3E70726F6772616D5FD6
:10E51000756E697429000000257320636865636B5C
:10E52000206661696C656420696E20257328292046
:10E53000776974682076616C756520307825782E4F
:10E5400000000000705F667300000000705F73726F
:10E5500063000000705F66732D3E705F617069003C
:10E560006C656E00616464725F69735F616C69679A
:10E570006E65643332286465737429006164647263
:10E580005F69735F616C69676E65643332282875F3
:10E59000696E7433325F7429705F7372632900008F
:10E5A000616464725F69735F77697468696E5F62E2
:10E5B0006F756E647328705F66732C206465737466
:10E5C0002C206C656E29000070B541EA4201DDE93E
:10E5D00004564FF0A04441EA830141EA052104EBCF
:10E5E000800041EA0641C0F8001770BD70B541EAED
:10E5F0004201DDE904564FF0A04441EA830141EABB
:10E60000052104EB800041EA0641C0F8001770BD07
:10E6100070B541EA4201DDE904564FF0A04441EAF9
:10E62000830141EA052104EB800041EA0641C0F87C
:10E63000001770BD70B541EA4201DDE904564FF0A4
:10E64000A04441EA830141EA052104EB800041EA4C
:10E650000641C0F8001770BD1CB5002100910B46A3
:10E6600001220191FFF7D4FF1CBD1CB500210091D0
:10E670000B4601220191FFF7DDFF1CBD1CB50022F6
:10E680000B46009211460192FFF7C2FF1CBD1CB55C
:10E6900000220B46009211460192FFF7CBFF1CBDF2
:10E6A0001CB5002100910B46012201911146FFF794
:10E6B000AFFF1CBD1CB5002100910B46012201914A
:10E6C0001146FFF7B7FF1CBD4FF0A04202EB8000E0
:10E6D000D0F8002722F44032C0F80027D0F80027F5
:10E6E00042EA0141C0F800177047000038B5094BF5
:10E6F00044181B6800936B4608E000BF53F82010D5
:10E70000D1F8205520C2C1F82055401C8442F5D8CC
:10E7100038BD0000AC39020042094FF0000100D1C1
:10E72000491E00F01F00012282400A4201D0012050
:10E7300070470020704701224FF0A043824011B182
:10E74000C3F808257047C3F80C257047034908B57E
:10E750000844002101600068009008BD006000408E
:10E7600002494058012800D0002070470060004056
:10E7700030B5154A01460020D2F8104423460AE07D
:10E78000DB681D79854205D1401C0A28F6DB4FF075
:10E79000FF3030BD1B68002BF2D1431CF9D0CB6891
:10E7A0001871D2F8103443B1DB68CC681B68236061
:10E7B000D2F81024D268116030BDC2F81014C968B4
:10E7C00000220A6030BD0000882600207047FAF75A
:10E7D0007BBF704708B5034A00924023024A00F00D
:10E7E00005F808BD45220200B0240020F0B595B020
:10E7F0001C4615460F4608461A9E00F031FB1821AC
:10E8000009A8FAF764FE0E96CDE909540023082200
:10E8100003A9384600F039FB05980690BDF81000B2
:10E82000ADF81C00BDF81200ADF81E0000208DF8F8
:10E8300021000398082600F00300012802D00228D6
:10E8400018D032E003983346850AC0F3C2008DF831
:10E85000200003980FA9C0F38314A200384600F0EB
:10E8600014FB09A8009006AB22460FA9284600F029
:10E8700053FA1AE00398840DC0F3C2008DF820000B
:10E88000082C01D2254600E0082533462A460FA968
:10E89000384600F0FAFA2E44641B09AB06AA294652
:10E8A0000FA800F0A1F9002CEAD1384600F0DEFAFA
:10E8B00015B0F0BD7047012004F072BA084810B5D9
:10E8C0000178084A515C19B1001D01F003F902E01A
:10E8D0000C3000F0FDFFBDE81040002004F060BAED
:10E8E000D81B0020281B002008B5034A00924023B3
:10E8F000024AFFF77BFF08BD95220200F0240020AA
:10E900000A4A012902EBC00007D0022907D00329D7
:10E9100007D0042907D00020704702207047042048
:10E92000704700797047407970470000D05202006C
:10E9300010B5FFF74CFF04210948FFF719FF0848FD
:10E940000124C0684471FFF7B6FF05480421103068
:10E95000FFF70EFF02481030C068447110BD000080
:10E96000B05202002DE9F04F8DB0FCF78DFD18B1CB
:10E9700000200DB0BDE8F08F7E4C4FF0000BC4F8C6
:10E9800018B4BFF34F8F7C49A06802900D68D84639
:10E99000284004EB80000BE0D4F8180470B96168DB
:10E9A0000298814201D8A160E2E7284004EB800090
:10E9B0000C3002A9FEF7AEFB0028EDD1002005AA1D
:10E9C000029901EA050304EB8303491CDB6842F862
:10E9D0002030401C02910228F2D3059800F0030079
:10E9E000022802D001284DD0AAE005985022810DBE
:10E9F0008946B2EB905F00D850210E4666F39F50D7
:10EA0000059008315D4800F0E2F9070078D000F089
:10EA100027FA4346082205A9384600F03EFA029933
:10EA200008F1080A2940681A8000001D864222D990
:10EA3000504D0C3530B1C2B204EB8101301A904612
:10EA40000C3104E02946F2B2002590462846C6B2B1
:10EA50005346384600F021FA0AEB080325B1324646
:10EA60002946384600F019FA029909F1030001EB32
:10EA7000900002903BE004EB810153463246384659
:10EA80000C31EFE70598C0F38310062800D3062069
:10EA9000059960F38911C1F38310801C05918100F1
:10EAA000364800F094F907004AD000F0D9F94346FF
:10EAB000082205A9384600F0F0F908F108080026F8
:10EAC0000FE00298434600EA0501401C04EB810177
:10EAD0000290042238460C3100F0DFF908F10408F6
:10EAE000761C0598C0F38310B042EAD847B1D4F839
:10EAF0001054D4F8180478B1384600F0B7F934E06F
:10EB00001EE0E8684079012804D12A682846394681
:10EB100012689047E8680568002DF2D1384600F089
:10EB2000A5F98DF800B06846FBF7AEFAD4F81804E2
:10EB300008B90298A0609DF80000FBF7C9FA14E03C
:10EB4000D4F8104405E02168204689688847E068C9
:10EB50000468002CF7D10A480A49401AC00802216B
:10EB600001EB004008A100F019F8FCF78DFC80F0E3
:10EB70000100FEE688260020FC1B002098530200BE
:10EB800078530200D05202004261636B656E647379
:10EB900020666C75736865640000000000231A46E7
:10EBA00003F0A6BF08B5012300926A4603F0A0FF58
:10EBB00008BD1CB5CDE9002302236A4603F098FF87
:10EBC0001CBD3EB5069C8DE81C0003236A4603F07D
:10EBD0008FFF3EBD7FB5DDE908458DE83C0004238D
:10EBE0006A4603F085FF7FBD2DE9F0470E4680465B
:10EBF0001C469246082940D894F80C9000202073B7
:10EC00001946104602F036FD0025B54206D218F826
:10EC100005201BA12046FFF78FF903E01AA120462B
:10EC2000FFF78AF96D1C082DEFD318A12046FFF7D6
:10EC300083F90025B54212D218F805707E2F08D846
:10EC4000FAF728FC0068C05D10F03E0F01D03A468C
:10EC500000E02E220EA12046FFF76EF903E00DA181
:10EC60002046FFF769F96D1C082DE3D301222146E8
:10EC7000504602F0E1FC84F80C90BDE8F0870000FB
:10EC80002025303278000000202020007C00000089
:10EC90002563000020000000064910B50020087020
:10ECA000054800F0E1F8002803D1044800F01EF9FF
:10ECB000002010BD8826002098530200443C02002A
:10ECC00002480349401AC0087047000098530200E8
:10ECD000D052020013B56846FEF7D6FD08B10020F9
:10ECE0001CBD0248009950F831001CBDD0520200F2
:10ECF00070B508480125D0F81044057007E0E068B9
:10ED000045712168204649688847E0680468002CFE
:10ED1000F5D170BD882600202DE9FF4781460C9D66
:10ED200000200C462F7B2873984616462946184625
:10ED300002F0A0FC072E42D2DFE806F004090F160D
:10ED40001F2A360049462846FFF7F6F837E04946BD
:10ED500028462268FFF7F0F831E0D4E9002349465D
:10ED60002846FFF7E9F82AE0A0680090D4E90023DC
:10ED700049462846FFF7E0F821E0D4E90201CDE951
:10ED80000001D4E9002349462846FFF7D5F816E0EC
:10ED900004F1080007C88DE80700D4E900234946BC
:10EDA0002846FFF7C9F80AE004F108000FC88DE80B
:10EDB0000F00D4E9002349462846FFF7BDF800229A
:10EDC0002946404602F038FC2F73BDE8FF872DE945
:10EDD000F041058A80462D1F4819C01CB0FBF5F094
:10EDE000C6B24046FEF7CCFE041E19D000202071AA
:10EDF00001206071E58000272546761EC4F800805A
:10EE00000BE04046FEF7BCFE60B16179491C6171C0
:10EE1000286005467F1CC0F80080B742F1D3204629
:10EE2000BDE8F081204600F002F80020F8E72DE967
:10EE3000F041457901466B1E002201E00968521C31
:10EE40009A42FBD30F680146002605E038460C685D
:10EE5000FEF7B8FE2146761CAE42F7D3BDE8F0813E
:10EE60000121001DFEF760BEFEF7C4BE10B50446CA
:10EE70000121001DFEF77EFE10F0FF0F04D1204699
:10EE8000BDE81040FFF7D3BF10BD1CB501920122B1
:10EE9000009201AAFEF7B8FC1CBD1CB5019200222D
:10EEA000009201AAFEF7B0FC1CBD0000064910B597
:10EEB00000204870091D0860BFF35F8F03490448B4
:10EEC00000F01CFA002010BDC81B0020B83A020058
:10EED000A424002010B500F0DFF908B141DF10BD17
:10EEE00020BF40BF20BF10BDFBF764B8826800217F
:10EEF000916082681161826851618268D160826824
:10EF0000516080680160704708B500224250405847
:10EF1000009008BD20B103490968016000207047D6
:10EF20000E207047C83C0200FEB502460E46084659
:10EF3000FFF7F0FF002863D1002500950195012718
:10EF400006208DF80020ADF8040002958DF80270BF
:10EF500069462020326869DF2A492B4A891AC90884
:10EF6000012202EB014430B100F036FA024620469D
:10EF70002649FFF717FE0095019502958DF801705F
:10EF800069464020326869DF30B100F025FA024658
:10EF900020461F49FFF706FE0095019502958DF862
:10EFA000005069460120326869DF30B100F014FA80
:10EFB000024620461749FFF7F5FD4FF4B060009078
:10EFC000019502956946A120326869DF30B100F0F1
:10EFD00003FA024620461049FFF7E4FD009501952B
:10EFE00002958DF800706946A020326869DF30B163
:10EFF00000F0F2F9024620460849FFF7D3FD002051
:10F00000FEBD000088530200D05202008C50020066
:10F01000D4500200EC4F020038500200984F02001A
:10F020002DE9F0410546076860DF804619491A4816
:10F030002A68081AC608BA4219D9022000EB064409
:10F0400016A12046FFF7AAFD20463A461FA12B68CD
:10F05000FFF7AFFD4FF08050D0F80C012968800217
:10F0600000F10050421A204625A1FFF79BFDB8F1A0
:10F0700000004FF001040AD000F0AEF9024604EBA4
:10F0800006402AA1FFF78EFD4046BDE8F0812F48DB
:10F090000470F9E788530200D0520200496E73757C
:10F0A0006666696369656E742052414D20616C6CBF
:10F0B0006F636174656420666F72207468652053A5
:10F0C0006F66744465766963652E00004368616EFF
:10F0D0006765207468652052414D207374617274B5
:10F0E000206C6F636174696F6E2066726F6D203083
:10F0F00078257820746F20307825782E0000000065
:10F100004D6178696D756D2052414D2073697A6546
:10F1100020666F72206170706C69636174696F6ED4
:10F1200020697320307825782E00000073645F62B8
:10F130006C655F656E61626C652829207265747507
:10F14000726E65642025732E00000000531C0020A1
:10F1500030B5144891B00078002820D05FF0340515
:10F16000ADF8405010A903A861DF30B1052816D0D2
:10F1700011B0BDE83040FAF71DBF03AC0A4968463C
:10F1800000F0BCF807E000BFD0E90021204690471E
:10F19000684600F0CAF802980028E1D0F4E711B000
:10F1A00030BD0000531C0020CC3C0200F8B5134CCD
:10F1B0002078C0B10120A07002F054FE112814D0B4
:10F1C000022002F067FE00258DF800506846FAF72D
:10F1D0005BFF11DF064625709DF80000FAF778FF07
:10F1E0002EB13046F8BD0820F8BD0020F8BDA5704E
:10F1F00003F014FC032002F04DFEF6E7501C002043
:10F200007CB5194C207808B108207CBD0120A07085
:10F21000002002F027FE112819D0002002F03AFE4B
:10F2200012480026006801908DF800606846FAF7E1
:10F230002BFF0F4901A810DF05000AD00020207025
:10F240009DF80000FAF744FF2DB128467CBD002050
:10F250007CBD0120F3E7A670667003F0FFFB012080
:10F2600002F018FEF3E70000501C0020603C020092
:10F27000319F01000EB50749684600F03FF805E0F0
:10F28000D0E900108847684600F04FF8029800283F
:10F29000F6D10EBD7C3C02000148007870470000AA
:10F2A000501C00200548817819B1007818B1FFF78B
:10F2B0007DBF08207047FFF7A3BF0000501C00204F
:10F2C0001FB568464BDF30B1052814D004B0BDE847
:10F2D0001040FAF76FBE084901A800F00FF806E0E9
:10F2E000D0E900210098904701A800F01EF803988B
:10F2F0000028E6D0F4E71FBDE83C02000160096881
:10F300004160AFF3008010B5D0E900215368994205
:10F3100001D1002104E0D1E90034A34202D0194612
:10F32000816010BD08314160F0E7816800290BD091
:10F33000026892680A44826041684B689A4203D12D
:10F3400008314160FFF7DFBF704770B50D460646D4
:10F35000446804E0B2682946904718B124682068E0
:10F360000028F7D120682860256070BD40680068DB
:10F37000704741680868002801D002680A60704739
:10F3800002460020526806E08B4203D108681060F4
:10F39000012070471A461368002BF5D17047000012
:10F3A0000C4A10B502F594730EE0991AC91001EBDE
:10F3B000D171491002EBC1010C68844201D90B469E
:10F3C00002E005D201F108029A42EED3002010BDFE
:10F3D000486810BDD83A020000B5FFF7E1FF0028E9
:10F3E00000D1014800BD0000C43A02004058002886
:10F3F00000D00120704708B50022425040580090CC
:10F4000008BDD0F80403084000D0012070474058E0
:10F41000002800D00120704708B500224250405813
:10F42000009008BD02480068002800D00120704705
:10F430000004014008480068012110F0010F06D1C6
:10F440004FF0E020C02280F800248430C1670349D7
:10F45000012008607047000000E100E0180500404E
:10F460000649024600200B790BB1852070470A60DF
:10F4700001220A7100224A7170470000341B0020EB
:10F48000022010B54107C1F808034FF48270FEF75F
:10F49000DCFC05490120086004480168C1F3004113
:10F4A0000029FAD110BD00000C00004018040040F3
:10F4B000002802D00149800108477047E139020065
:10F4C0002DE9F0410E46054601F0D4F90028284602
:10F4D00019D0FCF763F8083802F0A6F8032802D028
:10F4E00001280ED007E04FF0A040D0F81005E8400A
:10F4F00010F0010F05D003212846BDE8F041FFF7C9
:10F50000E3B80221F8E701F0C1F9002822D028462B
:10F51000FCF744F804464FF4807000EB84000E4F73
:10F5200081B207EB8400D0F8102542F00102C0F848
:10F5300010250846FFF70AF9002E0BD02846FCF7E5
:10F540002DF8064951F82000002803D00120A040E2
:10F55000C7F80403BDE8F08100600040B42100203A
:10F560002DE9FC41DFF8B880044608EB04000027D1
:10F5700090F930001346C0170E46401C01D00827F2
:10F580004AE0B0781946C0F340022046FBF7E2FF9C
:10F590000546401C3FD0B078410717D4C0070AD0B9
:10F5A0004FF0A04000EB8400D0F8001721F00201DA
:10F5B000C0F8001707E000217378204600910A4642
:10F5C0000191FFF713F8204601F046F9B078800763
:10F5D00018D51448317800EB8500D0F81025124B6F
:10F5E0001A40C0F810254FF4F8524FF4403302EAA5
:10F5F000042203EA01410A43D0F810150A43C0F877
:10F60000102509E008EB0500327810F8481F41EAA0
:10F610008211017000E004273846BDE8FC8100003B
:10F62000B421002000600040FFE0FCFF4FF0A0414B
:10F63000D1F81015C14011F0010000D00120704731
:10F6400070B5194D95F8580008B1082070BD002418
:10F65000661E2046FFF760F810B1281980F8306068
:10F66000641CE4B2202CF4D300242046FBF764FF92
:10F67000641CE4B20C2CF8D300200D4968650B4CD7
:10F68000C02081F8000401264020891FC1F8000134
:10F690004FF4BE70FFF75AF8A004C4F8040385F8CD
:10F6A0005860002070BD0000B421002000600040C0
:10F6B00006E000E0034890F85800002800D0012040
:10F6C00070470000B42100200121B1EB507F01D12F
:10F6D000012070470020704738B50D4602F016F83B
:10F6E000040014D000208DF800006846FAF7CCFC26
:10F6F000207928B19DF80000FAF7EAFC112038BD06
:10F700000120256020719DF80000FAF7E1FC00203F
:10F7100038BD10B501F0FAFF002802D000210160C9
:10F72000017110BD0149024803F062BB10220020A4
:10F73000002000402DE9F0410546007916460F46AD
:10F7400000EB40012D4A01EBC00102EB810494F86B
:10F750002A1011B10820BDE8F081294951F8201084
:10F760002868FFF7B9FF08B11120F4E739462846A9
:10F77000FAF7C8FC66603869206030004FF0010677
:10F780002FD03F7F4FF48E712868FFF734FE4FF47F
:10F79000A2712868FFF72FFE28681A49C0F80413E1
:10F7A00028684FEA471140F30730002804DB00F1D6
:10F7B000E02080F8001405E000F00F0000F1E020E8
:10F7C00080F8141D286840F30730002809DB00F09A
:10F7D0001F0106FA01F14009800000F1E020C0F8A5
:10F7E000001128680421C0F800150020A061E06124
:10F7F00084F8290044F8140FA675ACE71022002005
:10F80000B0390200800002002DE9F05F0546007962
:10F810000B4600EB400101EBC000244901EB8004E2
:10F82000284600F045F810B11120BDE8F09F626154
:10F830004FF00009C4F82090A36084F828904FF49A
:10F840008E784E4641462868FFF7D5FD28684FF070
:10F85000010AC0F808A02146286803F059FA606838
:10F8600008BBD5F800B067690FE000BF94F8280026
:10F8700008B10F2615E041465846FFF7B7FD0028AE
:10F88000F4D02146584603F043FA206AB842F2D336
:10F89000574641462868FFF7A9FD0028F9D0286897
:10F8A000C760C4F814903046BFE700001022002063
:10F8B000007900EB400101EBC000044901EB80003E
:10F8C0004069002800D0012070470000102200206D
:10F8D0002DE9F047044600794FF0000900EB4001A4
:10F8E00001EBC000284901EB80072068C0F80095B3
:10F8F0007868B0B120682549C0F80813206840F343
:10F90000073000280DDB00F01F0201219140400963
:10F91000800000F1E020C0F88011BFF34F8FBFF3EB
:10F920006F8F2068D0F80C25D0F81485D0F80865C2
:10F93000D0F810554FF0FF31C0F81415C0F80C1571
:10F940002068C0F80815C0F81015501C02D01046E9
:10F95000FEF782FEB8F1FF3F02D04046FEF77CFE84
:10F96000681C02D02846FEF777FE701C02D0304695
:10F97000FEF772FE2068FFF7CCFE87F82A90C7F8E2
:10F980000490BDE8F08700001022002084020200ED
:10F990000149024803F0DABA3C220020002000406E
:10F9A0002DE9F0410546164600790F46154A00EB51
:10F9B000C00102EB810494F8201011B10820BDE8C9
:10F9C000F081114951F820102868FFF785FE08B131
:10F9D0001120F4E739462846FAF7D8FB6660386903
:10F9E00020601EB1397F2846FDF750FB28680821AA
:10F9F000C0F800150020A061E0616061012184F879
:10FA00002010DCE73C220020B43902002DE9F04749
:10FA100004460E460079274900EBC00001EB800543
:10FA200017463046FFF750FE30B1204600F044F84C
:10FA300020B11120BDE8F0871020FBE76F61AE60B8
:10FA40004FF490774FF0000839462068FFF7E4FC48
:10FA50004FF4AC7631462068FFF7DEFC2068AA68D8
:10FA60006969C0F84425C0F8481520684FF00109BD
:10FA7000C0F808906868D0B9BA4651462068FFF7C8
:10FA8000C6FC074631462068FFF7C1FC0743F4D0A7
:10FA900010B14FF00F0808E02068C0F80C90314614
:10FAA0002068FFF7B4FC0028F9D0002068614046C8
:10FAB000C0E700003C2200200079054900EBC000AF
:10FAC00001EB80004069002800D001207047000051
:10FAD0003C2200202DE9F047064600793D4900EB25
:10FAE000C00001EB8005346868680127A8B13A4975
:10FAF000C4F80813306840F3073000280DDB00F02D
:10FB00001F0107FA01F14009800000F1E020C0F870
:10FB10008011BFF34F8FBFF36F8FD4F8000220F036
:10FB20002000C4F80002A8694FF4A27820B1414631
:10FB30002046FFF771FC67604FF4AC7949462046D8
:10FB4000FFF76AFCE760474649462046FFF75FFC3F
:10FB50000028F9D0A86928B139462046FFF757FC9C
:10FB60000028F1D04FF0000AC4F800A53068D0F8A2
:10FB70000C25D0F81495D0F80885D0F810754FF002
:10FB8000FF31C0F80C15C0F814153068C0F808151E
:10FB9000C0F81015501C02D01046FEF766FDB9F1F2
:10FBA000FF3F02D04846FEF760FD781C02D0384681
:10FBB000FEF75BFDB8F1FF3F02D04046FEF755FD72
:10FBC0002046FFF7A6FD85F820A0C5F804A0BDE8F3
:10FBD000F08700003C2200201003420010B5A0B1C5
:10FBE000032816D10B480C49401AC008032101EB29
:10FBF00000400AA1FEF7D2FF0220FBF7A5FA002879
:10FC000007D0BDE81040FAF7D5B9BDE8104002F0C2
:10FC1000ADBC10BD78530200D0520200466173742F
:10FC2000206164766572746973696E672E000000E6
:10FC30000078002807D104483B21008876DF00289F
:10FC400001D0FAF7B7B97047401A002070B50246E4
:10FC50008888C97B00EB400302EB4304A41D012903
:10FC600001D11188218021886288914213D9A5DFB2
:10FC7000012578B111280FD0FFF7AEFB02460748E7
:10FC80000749401AC00805EB0040BDE8704005A1D7
:10FC9000FEF788BF657170BD257170BDE852020026
:10FCA000D052020073645F626C655F676174746355
:10FCB0005F65786368616E67655F6D74755F7265B7
:10FCC000717565737428292072657475726E656428
:10FCD0002025732E000000007CB506468D88C8885C
:10FCE00005EB450106EB4104A41D172800D217209F
:10FCF0002188814200D80846608000202071218838
:10FD00002846B5DF60B1FFF767FB02460F48104990
:10FD1000401AC008012101EB00400EA1FEF742FF8E
:10FD20006079002810D1F06800280DD01549D1E97C
:10FD30000201CDE90001ADF802506088ADF8040081
:10FD4000F2686946304690477CBD0000E8520200E8
:10FD5000D052020073645F626C655F676174747394
:10FD60005F65786368616E67655F6D74755F726506
:10FD7000706C7928292072657475726E656420250F
:10FD8000732E0000B438020048B1064A016891425F
:10FD900005D140680449401802D0012800D0032052
:10FDA00070470000DEC0ADDE02FEE10E8A7D022A51
:10FDB00004D90289CB881A44D21C02814289C9889D
:10FDC000511AC91E418170472DE9F0410D460221AB
:10FDD000904600F58056298000F10804144F1BE07E
:10FDE00031462046FCF7C4FE40B1B8F1000F02D006
:10FDF000012288F80020022816D004E0A068796962
:10FE0000884200D97861288861880844C01C28800D
:10FE1000608804EB80040C3431462046FCF7BEFEBB
:10FE20000028DDD1BDE8F0814FF480602880F9E73B
:10FE3000901B002008B50021009101460823024ACA
:10FE40000248FEF7D3FA08BDF8390200581C00201A
:10FE500008B50020009004480823044A01680448BB
:10FE6000FEF7C4FA08BD0000B81B0020F0390200FC
:10FE7000581C00202DE9F05F0026DFF81891DFF80C
:10FE800018B134464FF00308B2463746D9F80C0093
:10FE900000EB07352846FFF777FF98B301284BD0D2
:10FEA000032869D12868411C02D03C49884205D109
:10FEB0000120820255F82010491C0ED004EB840169
:10FEC0000BEB8102A8F10100556003221FFA80F8B4
:10FED0000BF82120641CA4B24EE0401C9042E9D3F0
:10FEE0002F48016879B104EB840002210BF820103F
:10FEF0000BEB800045600181274828304480641C5A
:10FF0000A4B205E007E00221056081804FF0010AFC
:10FF100046F0010630E004EB840100220BF82120BA
:10FF20000BEB810101F110024D6028460831FFF70B
:10FF30004BFF46F00206CDE7BAF1000F0FD004EBFD
:10FF400084000221164A0BF820100BEB8000126887
:10FF500042600181104828304480641CA4B21048DB
:10FF60000022011D05602846FFF72EFF0C488088FF
:10FF700002280CD0082006437F1CBFB2032F85D374
:10FF8000B8F1020F00D20026F0B2BDE8F09F0420C5
:10FF9000F1E70000581C0020BC230020DEC0ADDECD
:10FFA000B81B002001494978FAF75CBD081B002006
:10FFB0002DE9F04188461749174604468978FAF733
:10FFC00051FD08B1012600E0022604F5807080B2E0
:10FFD000072100F09DF9050013D0052D11D0FFF782
:10FFE000FBF902460C480D492346401AC00801217E
:10FFF00001EB00400A49FEF7DCFD2946204602F0ED
:020000040002F8
:100000000DF93B46424631462046BDE8F041FBF73C
:10001000A5BB0000081B002010530200D0520200B4
:100020003447020000B585B002228DF80020028816
:10003000ADF802204079400701D5012000E0022000
:100040008DF808008DF809106846FBF711FF05B020
:1000500000BD002102F0B6BC30B5154685B00C4697
:10006000024605216846FDF789FC6846CDE9024550
:10007000FBF70CFF05B030BD70B5054D06460024FA
:10008000304655F824108847641C042CF8D370BD02
:10009000DC3802007CB5164D002400BF04EB4400A0
:1000A00005EB800003F050FA641C042CF6D35021B9
:1000B00004208A00CDE900010F490E4B01F5A07024
:1000C00000F022FC012468B1FFF786F902460B48D4
:1000D0000B49401AC00804EB00400AA1FEF762FD7C
:1000E00003207CBD0348001F447000207CBD00003D
:1000F000E4200020941A0020941F0020F8520200EF
:10010000D0520200504D5F4255464645525F494E1F
:10011000495428292072657475726E6564202573B0
:100120002E00000070B504460025C1681A4A284612
:1001300000EB400302EB83035B688B4204D100EBCE
:10014000400002EB800003E0401C0428F0DB0020AC
:100150002178082904D0092908D0132914D112E0E4
:10016000617A89B980B103F0FDF90DE0617A59B97E
:1001700050B100214160817A41F00201817207494A
:100180000120087003E001252046FFF775FF28468F
:10019000BDE8704001F0D8BBE4200020901A002098
:1001A000002300F089B900007CB5064600200190CC
:1001B00001A9304603F0B0F904461A481A49401A1A
:1001C000C008012101EB004519E0A178304600F09C
:1001D0009FF860B105280AD0FFF7FEF80246A07824
:1001E0000090284633461149FEF7EBFC18E00198D1
:1001F00001A9401C0190304603F08EF90446002C02
:10020000E3D1304600F0F0F900280AD0072808D0E2
:10021000FFF7E2F80346284632460549FEF7C9FCD7
:1002200003207CBDF8520200D052020018420200A6
:10023000704202002DE9F0471F00154681460E4628
:1002400004D0072E05D0082E06D102E00E20BDE80E
:10025000F0870DB1042D01D90720F8E74FF0000811
:10026000484603F03FF9041E04D0207AA8420BD080
:100270000F20ECE7FF214FF6FF7003F033F9041E67
:1002800006D0A0F80090A670607AFF2802D00CE09B
:100290001120DCE729461A4800F004FB01462046FD
:1002A0006172FF2913D04FF001082572617A14485A
:1002B00000F03CFB02000DD0ABB23146384600F0F6
:1002C0001FFAB8F1000F19D0082E10D016E003F075
:1002D0003BF9DDE70B480C49627A401AC00801215E
:1002E00001EB00400949FEF75DFC0320AFE73888C9
:1002F0006FF0050101EB8000796888800020A6E797
:10030000D4200020F8520200D0520200A441020082
:1003100010B503F0E7F818B103F024F9002010BD80
:10032000052010BD70B50C4606461546072901D0BC
:10033000082C0ED1104600F062F950B1214630462B
:1003400003F0D0F838B105808470BDE8704003F048
:1003500023B8072070BD052070BD00004FF6FF7167
:100360004180014909680847C438020070B588B067
:100370002048FBF72DFF02001F4820494FF00105E0
:10038000A0EB01004FEAD00005EB004406D0204668
:100390001B49FEF707FC032008B070BDFBF730FED9
:1003A000020005D0204617A1FEF7FCFB8620F3E7EC
:1003B00000F0F8F9002002904CF2070603900EE0DE
:1003C000694604A8FBF7D2FE00988088A0F540405B
:1003D00084B204A8FBF786FE204600F09FF902AA2B
:1003E00004A93046FBF7A9FE0028E9D0154805709E
:1003F0000020D1E799BE0100F0520200D052020065
:10040000BC400200436F756C64206E6F7420696E8F
:10041000697469616C697A6520666C6173682073C0
:10042000746F726167652E206664735F696E6974AC
:1004300028292072657475726E656420307825787D
:100440002E000000841A002000F08EB900F092B94E
:1004500070B586B014460E46054600F03FF940B12F
:1004600005F5404080B20F4A6946FBF766FE40B989
:1004700002E0012006B070BD03A96846FBF776FED6
:1004800008B10020F6E7A570039840882080049802
:10049000606003988088A0F5404030806846FBF794
:1004A00021FEE6E7881A00200248002141608160B1
:1004B00070470000841A0020F0B587B01F4615462B
:1004C00006460C46FF280AD8084600F007F930B166
:1004D00004AA2146304600F0E9F840B902E00720BE
:1004E00007B0F0BD02A904A8FBF740FE08B1052043
:1004F000F6E7AC700298408828807FB184003968A4
:100500002646B1EB800F00D20C460399224668685C
:10051000F8F7C4FFB44203D20C20E1E70398686007
:1005200004A8FBF7DFFD0020DAE7000070B586B015
:1005300016460D460446FF2828D8A87800F0CEF8C5
:1005400020B304F54040ADF80000A87803AA00F5F8
:100550004040ADF802006868019028880290A978B0
:10056000204600F0A3F80528694603A811D0FBF740
:1005700023FE024648F20661401A8A4226D00BDC6E
:10058000DAB1A2F5064002380AD121E0072006B010
:1005900070BDFBF719FEECE7012815D0072813D032
:1005A0000C480D492346401AC008012101EB0040C8
:1005B0000A49FEF7FEFA0320E9E71EB1314603A817
:1005C000FBF7CBFD0020E2E71120E0E78620DEE725
:1005D0001020DCE7F0520200D0520200004102007D
:1005E0004FF6FF7000F09AB810B5FF2801D9072028
:1005F00010BD00F099F800F005F8002010BD00F0E3
:10060000D7B80000F0B5244E8DB000207070029075
:100610004FF6FF750390284600F0A6F8044648F20E
:10062000096706E0204600F091F8204600F09CF8AB
:100630000446AC422BD004F5404080B202AA04A983
:10064000FBF783FDB842EDD004F5404080B2FBF7E4
:1006500093FC05460120A5F50641073919D0002D68
:1006600015D00E490E4A2346891AC90800EB0140ED
:100670002A460C49FEF79DFA14220B4907A8F8F701
:100680000DFFADF8204007A80995FFF767FE0DB0F4
:10069000F0BD7070FBE70000841A0020F0520200E9
:1006A000D052020058410200C83802007CB505460D
:1006B00016460C46084600F011F80020009005F59B
:1006C0004045019004F54044A8B2A1B26B463246C1
:1006D000FBF72CFD002800D005207CBD07280DD09D
:1006E00001280BD0082809D0052807D0062805D0F6
:1006F000092803D0042801D000207047012070474A
:1007000010B503EB83034FF6FF7404EA0313817003
:10071000DB1C99084260018010BD00000149FAF716
:1007200045BF00001421002010B50446A0F57F400D
:10073000FF3807D004492046FAF738FFA04201D11C
:10074000012010BD002010BD3421002010B504464A
:10075000044901F075FA03492046BDE810402031F4
:1007600001F06EBA142100200149FDF720B9000004
:100770003421002070B50A49FDF719F904464FF6F7
:10078000FF7507E000F01EF838B105492046FDF777
:100790000EF90446AC42F5D170BD204670BD000094
:1007A0001421002001484021F8F791BE14210020B7
:1007B000FF2803D801460248FDF798B9002070478A
:1007C00014210020FF2803D801460248FDF78EB906
:1007D00000207047342100201CB500F0E5FB08B173
:1007E000F9F7E8FB0020009001909DF8000020F050
:1007F0007E0040F00100303020F080008DF80000D5
:1008000007208DF8010010208DF802009DF80300EC
:1008100040F003008DF803009DF8040040F0030051
:100820008DF80400684600F095FE08B1F9F7C2FBA8
:10083000034800F079FE002801D0F9F7BBFB1CBD8E
:10084000B90902000068012803D0022801D0002065
:10085000704701207047000010B50549C20800F03C
:100860000703885C01249C402043885410BD00008D
:10087000082200200449084490F93000082801DBD0
:100880000120704700207047B4210020044908442B
:1008900090F93000082801D20120704700207047ED
:1008A000B42100202DE9F0410F4606002AD030681F
:1008B00040B3706830B3FF24002520E029467068FB
:1008C000FDF7DFF880F00100BFF35F8F48B1FF2C28
:1008D00000D12C46281B401CB8420ED12046BDE852
:1008E000F081FF2C06D108E02146304600F032F8B6
:1008F000641CE4B2AC42F7D3FF246D1CEDB2B068C7
:10090000A842DBD8FF20EAE770B5DDE9044558B11D
:1009100051B14BB104FB05F6964205D824B11DB187
:1009200080E83A00002070BD072070BD70B504005B
:100930000D460DD0206858B1606848B1FF2D07D032
:10094000FCF7BAFF20B1E168206805FB010070BD2B
:10095000002070BD70B504000D4613D0206800283B
:1009600010D0606800280DD0FF2D0BD0FCF7A4FF3D
:10097000002807D060682946BFF35F8FBDE870404C
:10098000FDF774B870BD0000034A12780AB101F097
:1009900017BE082070470000981A0020054A10B5BD
:1009A00012782AB101F08AFE082800D1112010BD6A
:1009B000082010BD981A002010B5044600F040F938
:1009C000204600F00DF820780C2804D1BDE8104036
:1009D0000020F9F701BA10BDFBF734BAFBF732BAC1
:1009E0002DE9F04105460178614C0020012686B0D2
:1009F00004F1500715291AD2DFE801F00B19291963
:100A000019193419901990191919191919191992D4
:100A1000AB00A88800F03CFC86280BD0112809D038
:100A2000062804D0072802D0132800D0F0BB06B057
:100A3000BDE8F0816068A98827F81010401CC11734
:100A400000EB517121F00701401A60608AE0287ABA
:100A5000012801D00028EAD1A88806B0BDE8F041FD
:100A600000F042BF20780028E1D142484249401AB4
:100A7000C708032000EB0740804640A1FEF78EF830
:100A8000607870B96846FBF7BBFB051E01D0F9F72B
:100A900091FABDF8060000B10120607080B1002D10
:100AA000C5D1FBF78DFA002836D000E003E0A0F5B1
:100AB00006410739BBD006B0BDE8F041F9F77ABA74
:100AC00000236A461946184600F070FC05000ED156
:100AD0004046BDF8002030A1FEF764F8BDF80000E4
:100AE00000F0CCFB051E0AD0F9F764FA6670052DFC
:100AF00007D0062D09D02846F9F75CFA97E766700B
:100B0000CFE706EB07402FA103E0022000EB0740F0
:100B100034A1FEF743F88AE7267088E7667086E717
:100B200020706070656800244FF6FF766019C11769
:100B300000EB517121F00701401A07EB40010888D2
:100B4000B04202D00E8000F0CFFE641C082CEDDB1A
:100B50006DE72070A868A0F506410D3902D0B0F508
:100B6000064FCBD106B0BDE8F04100F05BB8000005
:100B7000A81A002008530200D05202004174746584
:100B80006D7074696E6720746F20636C65616E2090
:100B9000666C6173682E000044656C6574696E67ED
:100BA000206C6F776573742072616E6B6564207062
:100BB0006565722028706565725F69643A202564F6
:100BC00029000000546865726520617265206E6FAF
:100BD00020706565727320746F2064656C65746540
:100BE0002E000000506565722072616E6B73206686
:100BF000756E6374696F6E616C69747920697320B6
:100C000064697361626C65642C20736F206E6F2061
:100C10007065657273206172652064656C657465CA
:100C2000642E000000B585B0142204496846F8F728
:100C300035FC6846FFF7D4FE05B000BD1839020048
:100C400010B5044600F026F8207890B1072816D198
:100C50000B480C49401AC008012101EB00400AA1D1
:100C6000FDF79CFFA068002809D0BDE81040F9F707
:100C7000A1B96088BDE810400021FAF791BD10BD10
:100C800008530200D0520200417373657274696E9A
:100C9000672E00002DE9FC5F044602785148524D52
:100CA0000221401BC008DFF8389101EB0045032307
:100CB000012109F10C0B03EB004701EB0046A9F100
:100CC000080A09F11808152A71D2DFE802F019198B
:100CD0000B1B19192A2D3448575B636919711919AF
:100CE00019197A006088F9F797FE217A59F82020BF
:100CF0005BF821000090638838463CA1FDF761FF56
:100D0000BDE8FC9F6088F9F787FE237A59F8202018
:100D100061895BF82300CDE90001638838464349C7
:100D20001AE0284642A137E0A068FEF755FB0246CC
:100D3000304645A14BE0207CC00701D03AA100E03D
:100D40004CA1627A5AF82200CDE90001217AA288EA
:100D5000384658F821304A49FDF73CFFD0E7206972
:100D6000FEF73AFB627A5AF82210CDE90010217A98
:100D7000A288284658F821304249EDE7A28830463B
:100D800041A124E0A068FEF727FB0346A288304675
:100D900047A111E0384652A1BDE8FC5FFDF7FEBE59
:100DA000A068FEF719FB0246304652A10FE013E09F
:100DB000A3886288284658A102B0BDE8F05FFDF71D
:100DC000F8BEA068FEF708FB0246284661A102B003
:100DD000BDE8F05FFDF7E6BE28466AA1F7E7000030
:100DE000B81A002008530200D0520200436F6E6E02
:100DF000656374696F6E20736563757265643A200C
:100E0000726F6C653A2025732C20636F6E6E5F687D
:100E1000616E646C653A2025642C2070726F636586
:100E2000647572653A2025730000000028450200B1
:100E3000466C6173682073746F72616765206973B3
:100E40002066756C6C000000556E65787065637483
:100E5000656420666174616C206572726F72206FC8
:100E6000636375727265643A206572726F723A20BC
:100E7000257300002C206E6F206368616E6765002B
:100E80008046020034460200506565722064656C3D
:100E900065746564207375636365737366756C6CE4
:100EA000793A20706565725F69643A2025640000B4
:100EB000506565722064656C6574696F6E2066614B
:100EC000696C65643A20706565725F69643A2025D3
:100ED000642C206572726F723A2025730000000046
:100EE000416C6C2070656572732064656C65746517
:100EF000642E0000416C6C20706565722064656C26
:100F00006574696F6E206661696C65643A2065720C
:100F1000726F723A202573004C6F63616C204442FB
:100F200020636F756C64206E6F7420626520617041
:100F3000706C6965643A20636F6E6E5F68616E64A1
:100F40006C653A2025642C20706565725F69643A8F
:100F500020256400466C6173682067617262616776
:100F60006520636F6C6C656374696F6E2066616980
:100F70006C65642077697468206572726F722025D1
:100F8000732E0000556E657870656374656420503B
:100F90004D206576656E742049443A203078257876
:100FA0002E000000FAF74EBF70B5FFF7DFF92749B2
:100FB000274A891AC908012505EB014430B1FEF71B
:100FC0000BFA03462046234A23A130E0FFF762F8DC
:100FD00030B1FEF701FA034620461E4A29A126E059
:100FE00001F040FB30B1FEF7F7F903462046194AFD
:100FF0002FA11CE001F048FC30B1FEF7EDF90346EB
:101000002046144A35A112E0FBF7ECFB30B1FEF7A5
:10101000E3F9034620460F4A3BA108E0FBF7B6FC84
:1010200048B1FEF7D9F9034620460A4A41A1FDF727
:10103000C0FD032070BD4A484FF6FF71818000213A
:10104000816041700570084670BD000000530200C9
:10105000D0520200EC3802002573206661696C658D
:10106000642062656361757365207064735F696E87
:10107000697428292072657475726E656420257301
:101080002E0000002573206661696C65642062652E
:101090006361757365207064625F696E6974282985
:1010A0002072657475726E65642025732E000000D1
:1010B0002573206661696C65642062656361757380
:1010C0006520736D5F696E69742829207265747577
:1010D000726E65642025732E000000002573206663
:1010E00061696C6564206265636175736520736D09
:1010F000645F696E697428292072657475726E6503
:10110000642025732E0000002573206661696C65DC
:101110006420626563617573652067636D5F696EE6
:10112000697428292072657475726E656420257350
:101130002E0000002573206661696C65642062657D
:101140006361757365206773636D5F696E69742889
:10115000292072657475726E65642025732E0000F7
:10116000981A00202DE9F041044686B001278088B6
:10117000FBF7CAFD6080207800263F4D082808D084
:10118000092820D04FF6FF780A2829D00B2853D100
:1011900058E0607A10B1012809D04DE0A86830B15C
:1011A000E168814203D1AE60A088A88016E068782B
:1011B000E8B3A088A98888423ED1207A06283BD18E
:1011C00000F0A0FB38E0607A88BBA86878B3E168DB
:1011D000814231D1AE60E868401EE860E6602BE0F5
:1011E000A878E8B14046FFF731F94146404517D1AC
:1011F0000846FFF729F9404512D1AE701421684620
:10120000F8F765F90C208DF80000ADF80480ADF812
:10121000028000272046FAF715FE6846FAF712FE0C
:10122000687838B1A088A988884203D100E003E03B
:1012300000F068FB002F1CD006B02046BDE8F0414E
:10124000FAF700BEA8780028F6D0AE7014216846E0
:10125000F8F73DF90D208DF80000ADF80480ADF8E9
:101260000280A06802902046FAF7ECFD6846FAF783
:10127000E9FD06B0BDE8F081981A0020034909781D
:1012800009B1FBF7E1BD082070470000981A002063
:10129000F0B5324C064687B0207838B13049D1E9F4
:1012A0000201CDE90501607818B104E0082007B01B
:1012B000F0BD00F027FB6078A168401E084301D014
:1012C000112547E0A088002786421CD1E068D0B1F4
:1012D000002514216846F8F7FAF808208DF8000078
:1012E0003046FBF711FDADF8020006208DF808002E
:1012F000ADF804608DF8097003978DF8107068469A
:10130000FAF7A0FD26E0E068411C25D0401C134AF6
:10131000E060083205A93046FFF708F9050019D04A
:10132000A760E068401EE060112D13D0862D11D01B
:10133000072D0FD02846FEF74FF8024609480A4904
:101340003346401AC008012101EB004007A1FDF718
:1013500030FC03252846AAE71325FBE7981A00204E
:10136000EC38020000530200D0520200436F756C4B
:1013700064206E6F74207570646174652072616E94
:101380006B2E207064625F7261775F73746F726539
:1013900028292072657475726E65642025732E206D
:1013A000706565725F69643A202564002DE9FF4F1E
:1013B000344885B09946007892468B46C0B14FF6C6
:1013C000FF742046FFF742F8804600200421CDE953
:1013D0000210009003A8019002AB6A460621404625
:1013E000FFF76AF800277E1E2546072804D017E07D
:1013F000082009B0BDE8F08F0520FAE70398B8424D
:1014000001D307464546B04201D20646444640460F
:10141000FFF71CF8804602AB6A460621FFF74CF83E
:101420000028EBD00528F2D04FF6FF71884519D17E
:101430008D4201D08C4201D1052000E000200599A9
:1014400001B10D80BBF1000F01D0CBF80070BAF1F3
:10145000000F01D0AAF80040B9F1000FC9D0C9F8B7
:101460000060C6E7FDF7B8FF024607480749434654
:10147000401AC008012101EB00400549FDF799FB26
:101480000320B6E7981A002000530200D052020051
:1014900024430200F0B51F4E85B03078D0B101274B
:1014A0004FF6FF74B7702046FEF7D0FF0546A04206
:1014B0002BD10020B07014216846F8F708F80C20F2
:1014C0008DF80000ADF80440ADF802406846FAF728
:1014D000B9FC1CE0082005B0F0BD00BFFFF7CEFE50
:1014E00078B1FDF779FF03460B480C490C4A401AC6
:1014F000C00807EB00400B490095FDF762FB032095
:10150000E9E72846FEF7A2FF0546A542E6D10020FE
:10151000E1E70000981A002000530200D0520200B8
:10152000083902006C430200084A117821B1D178D1
:10153000032903D30420704708207047044B43F865
:101540002100491CD170002070470000981A00202B
:10155000542100200349097809B101F0EBB80820B3
:1015600070470000981A0020002801D0FAF76ABCE2
:10157000704700002DE9F05F2A4F06464FF0A04A61
:101580004FF0010B0024381990F95010491C3CD041
:1015900090F85000314620F0C0052846FCF742FB89
:1015A00020B3204600F040F881460AEB8500D0F8D1
:1015B0000007C0F30148B8F1020F18D002212846F5
:1015C000FDF782F80BFA05F1CAF820152846F9F75D
:1015D000E5FF57F820204AB14846B9F1030F11D072
:1015E000B8F1020F05D0B8F1030F07D00DE00321C9
:1015F000E5E74846B9F1010F04D006E04846B9F1E5
:10160000020F02D1014628469047641C042CBAD32D
:10161000324601210020FDF769F830680028B1D179
:10162000BDE8F09FB42100200249084490F8500022
:1016300080097047B421002010B50C46017A0529B5
:1016400008D0407A38B1084808A102682046FCF763
:1016500073FC00E01AB106A12046FCF76DFC2046A1
:10166000BDE81040FCF775BC2C1C00202573000061
:101670000D0A000038B5C3880D46044633B114A0E6
:10168000009015A216A12846FCF756FC217A0529E0
:101690001CD0607A48B1A088FDF732F9164951F89C
:1016A000202016A12846FCF747FCA0880021FDF762
:1016B00011FB03461049207A143951F8202001B05B
:1016C0002846BDE830400EA1FCF736BC38BD00000E
:1016D0001B5B306D000000001B5B313B33316D0044
:1016E00025734C6F67732064726F70706564202877
:1016F00025642925730D0A002C1C00202573000089
:101700003C25733E2025733A20000000034988429F
:1017100001D10348704700207047000000200040BE
:101720003C1B00200146054810B50068FCF772F923
:1017300004461C21F7F7CBFE204610BDE839020015
:10174000014602480068FCF786B90000E83902004B
:10175000034802490068FCF768B90000C41B002078
:10176000703A0200F0B5264D264E85B0044600279B
:10177000686828B9224930680831FCF761F9686067
:1017800001460078072817D2DFE800F016040808A1
:101790000E0E12002046FBF7B7FB02E0204601F0D8
:1017A00071FF040029D009E02046FAF713F8F8E7A2
:1017B0002046FAF7DFFDF4E748F20E64142168468C
:1017C000F7F785FEA4F5E8501D3800D100240194F8
:1017D00069466868FAF7D6F96846FAF70DFA0849D3
:1017E0006F60002408313068FCF71FF904480121BC
:1017F0000C30FCF7BFF90028BAD105B0F0BD0000ED
:10180000901B0020E83902002DE9F041234C00250F
:10181000234E207A012730B92248311D0068FCF799
:101820000FF9306038B1022020723168087928B190
:1018300001281ED116E06560BDE8F081D1E90503FD
:10184000C01A4FF48052904200D31046B7EB900F6D
:1018500001D2820800E001220869C96818441944CD
:1018600029DF03E0D1E90301084428DF58B111283A
:1018700012D003213068FAF7CFF925726560BDE810
:10188000F041FFF765BF207C0028D5D1BDE8F041CD
:1018900000210220FCF758BD2772CDE790240020DC
:1018A000C01B0020703A020010B501210448FCF76B
:1018B00047F9002803D1BDE81040FFF753BF10BD22
:1018C0009C1B002010B5074C201DFCF72AF90028AE
:1018D00006D1607C002803D1BDE81040FFF794BF1B
:1018E00010BD00009024002010B586B004461421DD
:1018F0006846F7F7ECFDADF804406846FFF770F86E
:1019000006B010BD0B4910B500231A46A1F108001E
:10191000FFF74CFD07490C39052803D038B10020EA
:10192000487010BD4FF6FF7088800020C86001200D
:10193000F6E70000A41A002010B510461A46F7F783
:10194000ADFD002010BD00002DE9F0438146234885
:1019500085B00178002936D00021214F01700D4655
:101960008046012605EB450007EB8004A07A81073D
:1019700001D4C1072ED088F80060800702D4B9F1E5
:10198000000F27D0204601F007FD18B34FF6FF7176
:10199000ADF802102188ADF80410862816D0072172
:1019A0008DF800100290FDF717FD02460D480E4914
:1019B0002388401AC00806EB00400C49FDF7F9F8EF
:1019C0006846FEF759FB05B0BDE8F08306208DF8A8
:1019D0000000F5E76D1C042DC4D3F4E7901A002035
:1019E000E4200020F8520200D0520200C44202005B
:1019F0002DE9F047074620481C46154600780E465C
:101A000070B18DB184B1DFF874804FF00009A08807
:101A100002282DD200EB800118F8210020BB1BE02A
:101A200048F20160BDE8F08748F20460FAE72068F8
:101A30001FB181883A8891420ED11EB10188328847
:101A4000914209D180682860206868600B4828307E
:101A5000008928810020E5E7A088214600F060F891
:101A60000028E4D1C4F80090A088401CA080CEE7F4
:101A700048F20960D6E70000B01B0020BC2300201C
:101A8000F8B505464068244F0C46002648B3234964
:101A9000CA68824225D80969814222D3FBF788FBB4
:101AA000F8B12889398988421BD1D5E900018A68B3
:101AB000904216D10020A7F1280200BF00EB80035E
:101AC00002EB83035B688B4205D203F580538B42A4
:101AD00001D9208011E0401C80B20228EED3002002
:101AE000F8BD268000960AE0009829688068884240
:101AF00005D100986860388928810120F8BD2088C8
:101B0000694600F00DF80028EED12088401C80B214
:101B100020800228E6D3E2E7E4230020581C0020BE
:101B200070B50E4600EB8001134800EB810044685D
:101B3000306804F5805518B1418800EB810411E04C
:101B4000083410E029462046FBF712F820B101289E
:101B500005D0022807D10DE00120346070BD6088F7
:101B600004EB80040C3429462046FBF717F80028C4
:101B7000E8D170BD002070BDBC23002038B50C46F4
:101B80000021009101460423084A0948FCF72EFC75
:101B900010B148F20D6038BD064A04EB840102EB37
:101BA000810101200874002038BD0000EC390200DA
:101BB000581C0020BC2300202DE9F047884600EB8C
:101BC00080011E481D4600EB810016464168DDF885
:101BD000209001F1080401F580571BE039462046AA
:101BE000FAF7C6FF68B1012802D0022812D119E025
:101BF0003088401C3080288861880844C01C2880B8
:101C000004E0B8F80000401CA8F80000608804EB6D
:101C100080040C3439462046FAF7C0FF0028DDD195
:101C2000BDE8F0873088401C30802988381B01EBE4
:101C3000A0002880012089F80000F1E7BC230020E3
:101C40000A46FF2803D801461046FBF70FBF70472E
:101C50000846704770B50546F9F7EDFE134C40B1E4
:101C6000D4E904024FF08071411842F10000C4E948
:101C7000041000212846F9F72BFE30B1606820B12E
:101C8000606800F0B5FF0020606001212846F9F788
:101C90001FFE18B1FAF734FEC4E90601284600F029
:101CA000D3FF2846BDE8704000F034B8601B002028
:101CB00070B5054600200C460870FAF721FED5E9FC
:101CC0000223101A63EB010300263146361A9941AC
:101CD00012DAB0F5350F03D3F8F778F90B4942184B
:101CE0004FF4960300210A48F9F7B1FE10B10D2810
:101CF00006D009E0012070BD00210548F9F7DEFD9E
:101D0000284600F075FF2070002070BDFFFFB40072
:101D1000681B0020F8B51A4C074600261948FDF745
:101D200025FBD0B1616871B1D0E902106268D2E9D7
:101D30000232C91A904120D26068007F18B16168F0
:101D40001048FDF702FB00F0B5FE05466946FFF7B7
:101D5000AFFF98B1606840B10AE0606800280CD11C
:101D60003846BDE8F840F9F76EBE3846F9F767FE29
:101D700065609DF800000028D0D1F8BD6660CDE711
:101D8000601B0020C839020070B5054688690C4602
:101D900000284FF4847128460AD0FDF72CFBD5F8B3
:101DA0001805626AE1688854606A401C606270BD10
:101DB000FDF721FBD5F8180570BD1FB501238DF87F
:101DC0000030CDE90121D0E90012684690471FBDDF
:101DD0001FB501238DF80030CDE90121D0E90012B3
:101DE000684690471FBD000010B5044606480179BB
:101DF0002046F8F737FE002804D12046BDE8104001
:101E000000F0BCBA10BD0000681A002038B50021EF
:101E1000012548B1012810D003280DD1FDF70AFB98
:101E2000BDE83840FCF73AB84FF0E020C0F88051E8
:101E3000BFF34F8FBFF36F8F38BD8DF8001068462A
:101E4000F8F722F9064C207808B9FCF707F8E068A3
:101E5000401CE060A5709DF80000F8F739F938BD26
:101E6000A02100203EB5044609496846FDF746FA20
:101E700008E000BFD0E900212046904730B1684615
:101E8000FDF753FA02980028F4D13EBD11203EBD63
:101E9000643C02003EB5044608496846FDF72EFA48
:101EA00007E000BFD0E90021204690476846FDF7D3
:101EB0003CFA02980028F5D13EBD0000703C0200BB
:101EC0002DE9FE4304460C3000278046FAF7E4FF74
:101ED0004FF6FF760546B042208803D1FAF7CAFFD5
:101EE000054602E02946FAF7A5FF208800220121D5
:101EF00000F008F9B54214D001AA07212846FEF7E0
:101F00004FF970B9029EA07D3436C00709D0307CED
:101F1000C00705D1414606F11200FAF776FF00B17D
:101F20003746002320881A46394686DF1649174A65
:101F30000646891A4FEAD108082811D0BEB1FDF72C
:101F40004BFA02460121009501EB08402388104915
:101F5000FCF737FE2088314600F060F9BDE8FE83CB
:101F6000022101EB08400B49FCF718FEF6E7A07DC3
:101F7000C007F3D0002FF1D12088002241F20601E2
:101F8000F9F7D4FDEAE7000010530200D052020036
:101F9000C44602004C4802002DE9FC47884606462C
:101FA000274828491C00A0EB01004FEAD0074FF05A
:101FB0000100914600EB074515D006F5807080B210
:101FC0006B4601220721FEF735F9112809D080B1AF
:101FD000FDF702FA0246284633461B49FCF7E9FDA5
:101FE0000320BDE8FC872846184A19A1FCF7DAFD52
:101FF000F6E750210198F7F76AFA019981F8008015
:102000000198C4F80C903430206001981830206199
:102010000198401C60611B48E06101993046113114
:10202000FAF7E8FD0028DCD0FDF7D6F902460220D9
:1020300000EB074033461449FCF7BBFD0820D0E70E
:1020400010530200D05202001449020094390200D9
:10205000496E7465726E616C206572726F723A209F
:102060002573207265636569766564204E554C4C16
:1020700020666F7220705F7365635F6B657973654F
:10208000742E000060210020FC470200002835D09B
:102090000278910701D411062FD4C2F3021104294A
:1020A0002BD8930703D5032901D1110625D54378F1
:1020B00081788B4221D8072B1FD310291DD8C178D6
:1020C0004B071AD40079430717D40B0715D403071D
:1020D00013D4D2074FEAC17201D042B10FE062B906
:1020E00089070AD4C10708D1800706D407E0890709
:1020F00005D4C10703D1800701D400207047012017
:1021000070470000F0B5154E14460F460A4685B0DC
:1021100005463178F8F7BEFC002F1AD00CB1012229
:1021200000E0002271782846F8F7B4FC012C12D0A8
:102130000022B1782846F8F7ADFC14220849684619
:10214000F7F7ACF9ADF802508DF808406846F9F79A
:102150008FFE05B0F0BD0122EBE70000081B002058
:1021600030390200F8B50446144800252E46806830
:1021700008B36088F8F70AFCA0B100200090207A2C
:102180009DF80020410861F3820260F3C3028008D9
:1021900060F304128DF800206088694600F0B6FAFA
:1021A00080F00106608801B032462946BDE8F04063
:1021B0000123FBF72DB80125F4E70000101B0020D8
:1021C00010B586B0044614216846F7F780F904205C
:1021D0008DF80000ADF802406846F9F749FE06B0F8
:1021E00010BD000002498969002900D008477047E6
:1021F000241E002030B585B00C4605461422064941
:102200006846F7F74BF9ADF8025068460294F9F7C3
:10221000FDFD05B030BD00004438020030B585B08A
:102220000C460546142206496846F7F737F9ADF81B
:10223000025068460294F9F71BFE05B030BD00005D
:10224000443902002DE9F0411400884618D00025D9
:102250000E4F032608EB050122460020F7F736FA59
:102260000544241A40B93878002809D008494FF4A9
:102270007A408847761E05D001203870002CE9D1BD
:10228000BDE8F08100203870FAE70000D01B002084
:10229000113C020070B50D4C0020D2B22070201D00
:1022A0000B4D0378EB5C1BB1001DFDF7AFFB02E0AB
:1022B0000C30FDF7A9FA08B1F7F77CFE607800282A
:1022C00002D021780029FAD070BD0000D41B002074
:1022D000281B0020034800220149C078F8F766BB9C
:1022E000E91D0200681A002070B51F4988B01F4C14
:1022F000D1E900014FF6FF76CDE9050130E000227B
:1023000005A9FEF713F9050026D014216846F7F752
:10231000DEF8A088ADF80400112D17D0862D17D057
:102320002846FDF759F8024611481249A388401A79
:10233000C008012101EB00400F49FCF73AFC0720DF
:102340008DF8000002956846F9F76EFD08B070BD83
:1023500006208DF80000F6E7A088FEF777F8A08049
:10236000A088B042CBD1F1E798380200781A00205B
:10237000D8520200D0520200203F02002DE9F04F57
:102380008DB0054601270026FAF7C4FB0446112844
:1023900021D005DC68B3062870D0082C08D134E0C1
:1023A000A4F54050023816D0A0F54070FF386CD02C
:1023B0002046FDF711F80246364837492B46401AA9
:1023C000C008012101EB004034A1FCF7F2FB2146DB
:1023D0002846FFF70FFF414C3A462846E178F8F7C8
:1023E00059FB21790DB032462846BDE8F04FF8F789
:1023F00051BB14223A496846F7F750F8ADF802503D
:1024000001266846F9F702FDE5E70DF114084FF0E3
:10241000000901A8B3DFDFF8C8B001240DF1180AE4
:10242000ABF1440B42F6052E1FE0DBF80C00CDE9C2
:10243000030A002206A92046B4DF70B9BDF81810BF
:10244000B9F1000F0BD0A1F5245002380BD103AA2B
:1024500021462846CDF81080ADDF58B10EE0714519
:1024600001D14FF00109641CA4B2BDF804008442FC
:10247000DBD303E0BDF814000028ACD100272846C8
:10248000FAF7F8FCFAF774FAA5E72846FAF75CFFC2
:10249000A1E70000D0520200D05202006773636DC2
:1024A0005F736572766963655F6368616E676564B3
:1024B0005F696E645F73656E642829207265747548
:1024C000726E656420257320666F7220636F6E6E76
:1024D0005F68616E646C653A20256400681A0020AC
:1024E0006C3802002DE9F0410746806A14468846A0
:1024F000C8B3002531E000BFB96A05EB450001EB28
:102500008006B088801CFE2802D90C20BDE8F0812E
:102510002288401C08F8020020881622401C80B245
:10252000208008F800202088401C80B2208000EB2A
:102530000801308800F093FD2188084480B2208093
:10254000B28842B1B16871B14044F6F7A7FF208864
:10255000B188084420806D1CEDB297F82C00A84289
:10256000CAD80020D2E7FFE70720CFE710B5002048
:10257000F8F7EAFD08B1F7F71DFDF8F73FFD08B1E0
:10258000F7F718FD33DF002803D0BDE81040F7F758
:1025900011BD10BD10B500F0FDF8074C0022054933
:1025A0002079F8F703FA6078BDE81040002203496B
:1025B000F8F7FCB953000200101B00201DD30100E6
:1025C0002DE9FC410C00074614D0F8F72DFA06005F
:1025D00013D03846FAF74EFC05462078022E0FD06D
:1025E00020F00100A5F57F412070FF390BD040F0AD
:1025F00008000AE00E20BDE8FC8143F20200FAE781
:1026000040F00100EEE720F0080020703846F8F7AF
:10261000BDF9217860F3410121703846F8F7ECF9F3
:10262000217860F3820121703846F8F7D5F970B946
:102630003846F8F7ABF970B128466A460721FDF72E
:10264000AFFD40B9019890F84400C00703D020784E
:1026500040F0100002E0207820F0100020700020F0
:10266000C9E7000010B51148F9F72DFE0F48401CCE
:10267000F9F729FE0D48801CF9F725FE0B48C01C10
:10268000F9F721FE09480121401E0279182A02D0DB
:102690004171002010BD0648064A801AC00801EBAF
:1026A00000400549FCF77AFA032010BD111B0020F9
:1026B00018530200D05202007C3D020000230A465B
:1026C0001946FAF7A5BD000010B500780A2809D010
:1026D00004DC082806D0092811D103E00B2801D01A
:1026E00013280CD1074C002205492079F8F75EF930
:1026F0006078BDE8104000220349F8F757B910BDD3
:1027000053000200101B00201DD3010038B50C46F9
:102710000749096800916946FFF752FF21789DF843
:1027200000209143084301D0002038BD012038BD6E
:10273000A439020070B50B4C05004FF001060CD017
:10274000FFF7A4FC58B1286820612879207504F1AE
:102750001000A0602670002070BD0020F9E707205F
:1027600070BD0000101B002010B50446007805283D
:1027700002D0122809D105E06088A168BDE81040A8
:1027800000F020B92046FFF7EDFC2046BDE81040E0
:10279000F9F77CBB30B50446008885B014284FD0CB
:1027A0000ADC11282CD0132828D134F8040FF8F7AC
:1027B00033F901282FD038E0192847D01A281DD125
:1027C000A088FDF7EFFB002818D1A088F8F7DEF805
:1027D0000028A0884BD02A4900220978F8F75AF936
:1027E00002208DF80000A088ADF8020000208DF8CE
:1027F00008008DF809006846F9F73AFB05B030BDCE
:10280000207A3D2804D04FF48851A088002224E08B
:1028100041F23D01F9E72079C00701D0012200E033
:10282000022220880121FFF76DFC34F8045B14229A
:1028300014496846F6F732FEADF802500294DAE722
:1028400005B0201DBDE83040FFF73ABB217A201DBE
:1028500041B14279008802F0030205B0BDE8304082
:10286000FAF73EBD05B0BDE83040F7F7D5BC05B07E
:102870000122BDE8304041F20601F9F757B90000E6
:10288000081B00208039020010B51548F9F712FD29
:102890001348401CF9F70EFD1148801CF9F70AFD9A
:1028A0000F48C01CF9F706FD0D4801210278182ACF
:1028B0000BD04278182A08D08278182A05D0C2781E
:1028C000182A02D00171002010BD0648064A801A5D
:1028D000C00801EB00400549FCF760F9032010BD7A
:1028E000081B002010530200D05202007C3D020061
:1028F00070B50C460546F8F78FF8012802D043F270
:10290000020070BD21004FF00000FAD028467EDFA3
:102910000428F6D1112070BD2DE9F04188B017468A
:102920000D468046F8F778F80446002620216846D0
:10293000F6F7CDFD012C01D08CB105E01F48002237
:10294000C1784046F8F7A6F875B14046FAF792FA12
:10295000A0F57F41FF3915D0012C07D012E043F2DA
:10296000020008B0BDE8F081852618E04046F7F780
:1029700087FA38B94046FFF723FC4046F7F780FA5C
:1029800000B985262878C00711D0852E07D06B4660
:102990003A4621464046FFF7FFFA0028E1D1012CD4
:1029A00009D000226B46314640467FDFD9E7044814
:1029B00003970790F3E72A46F4E70000081B00207E
:1029C000602100203EB505460C466846FAF7CCFF6C
:1029D0006A4621462846FDF73FFB09480099C26830
:1029E0002846FFF799FF0446014601222846F9F7D9
:1029F0008DFC21462846009AF9F738F93EBD0000C3
:102A0000101B0020002805D1034901204870002038
:102A1000F8F7ECBD70470000A021002010B516208B
:102A2000F7F7E6F848B10C4882684FF4800152B1DC
:102A3000016821F48001016010BDBDE8104042F240
:102A40000100F7F7B7BA4FF0E020C0F88011BFF3EC
:102A50004F8FBFF36F8F10BDF822002010B51620E6
:102A6000F7F7C6F8A0B1114890F80004400908280B
:102A700011D20121814011F0EC0F0CD00C4882687A
:102A80004FF480016AB1016841F48001016010BD1A
:102A900042F2010001E042F20200BDE81040F7F707
:102AA00089BA4FF0E020C0F8001110BD16E000E038
:102AB000F82200200148FCF75CBC0000C839020085
:102AC000C207002A03D000BF4FF00F0201E04FF011
:102AD000F00201D04FEA0111044B03EB50031878C8
:102AE00000EA020040EA01001870704780220020CE
:102AF0002DE9F84F074621489146884605681E464D
:102B0000012269461846F8F75DFCDFF874A060B34F
:102B1000009800210446801C0AE000BF00EA05027C
:102B200059F821C00AEB8202401C491CC2F80CC0B3
:102B3000B142F3D34FEA1749F8F7B6FE611C2940BA
:102B40000AEB810149EA00422C40CA600AEB840189
:102B5000C86867F3C50066F3891068F39F2020F00A
:102B60000300401C20F00400C8609AF8000001E057
:102B7000FBF7F8FE0028FBD1BDE8F88FFC1B002016
:102B8000882600207CB5054614480C460022D0E972
:102B90000510CDE90010124841792846F7F77AFF71
:102BA00014B10E48001D01E00C4808300190284681
:102BB000FAF760F900226946FDF7B8FC00280CD04E
:102BC000FCF70AFC024607480749401AC0080221E0
:102BD00001EB00400549FBF7E5FF7CBD283802000A
:102BE000681A0020D0520200D0520200EC3D0200D0
:102BF00070B50446124800250078F8B1F4B1207F82
:102C0000E0B1F9F77DFED4E90223801A994110D38F
:102C10002069002600B92677D4E905108847206985
:102C200060B1217F51B1D4E9022110187141C4E98A
:102C3000020121460348FCF788FB0125284670BDA8
:102C4000601B0020C8390200F8B51B4C694620689B
:102C5000FAF7F6FE00260127184D29E0017821B188
:102C600001290CD002291BD114E041680A7FBAB9AE
:102C70000F77416810480830FCF767FB10E04168A7
:102C80006868814201D16E600AE00B480830FCF7A9
:102C900077FB05E0FFF70EFF08B10677FAE72F7024
:102CA00069462068FAF7C1FE69462068FAF7C8FE4F
:102CB0000028D3D1F8BD0000C0390200601B0020FD
:102CC000F8B50B4C0D46064669462068FAF7A2FE99
:102CD00058B10670456069462068FAF7BCFE10B12D
:102CE0000448F8F795FE0020F8BD0420F8BD000068
:102CF000C0390200681B002003488068410803486F
:102D000000224068F7F7A2B9481B0020B83902003A
:102D100070B50C4605464FF48E71FCF76CFB216ACA
:102D2000A068415C206A401C2062C5F81C1570BD7B
:102D30001FB500228DF80020029181680191426147
:102D4000D0E90012684690471FBD1FB500228DF8DC
:102D500000200291816801914261D0E90012684629
:102D600090471FBD1FB50A4601788DF800104168D5
:102D70000191017A8DF80810C0680390044850F85A
:102D80002210001F50F82220684690471FBD000007
:102D9000301B00200149012008707047D41B00201F
:102DA00010B588B0044620220E496846F6F776FB37
:102DB00006200090C01F0190029003904FF0EB702E
:102DC00006900CB1084A00E0002269460748FBF76C
:102DD0007FF808B1F7F7EEF80448001F447008B018
:102DE00010BD0000243C0200952D0200D81B0020DD
:102DF0002DE9FF470C4605464FF40071FCF701FB37
:102E000001274FF40178002618B34FF49279494610
:102E10002846FCF7EBFAE0B149462846FCF7EBFA06
:102E2000C5F8088394F8290000B96F6002208DF876
:102E30000000D5F88004C5F880040390A0690290D2
:102E4000E0680190A661E661D4E900126846904707
:102E500028E004212846FCF7D4FA18B34FF4847113
:102E60002846FCF7C3FAE8B121462846FEF78CFF56
:102E7000616AA069884215D1E06938B1E268616A87
:102E8000A0612069E6616662E06008E094F82900CC
:102E900000B96F60C5F80883A661E268616A2046E0
:102EA000FEF78BFF4FF48E7841462846FCF79EFADA
:102EB00080B16069216A814202D294F8280028B367
:102EC00041462846FCF797FA606918B161692046C7
:102ED000FFF72EFF4FF4A27841462846FCF786FA0A
:102EE000002818D041462846FCF785FA94F82900B6
:102EF00000B12F60A06900280DD0A661E268616A68
:102F000004B02046BDE8F047FEF757BF21462846EB
:102F1000FFF7FEFEDEE7BDE8FF8700001FB50A46AB
:102F200001788DF8001041680191017A8DF8081040
:102F3000C0680390044850F82210001F50F8222067
:102F4000684690471FBD0000301B00202DE9FF415F
:102F50000C464FF4927705463946FCF758FA00269E
:102F6000B8B139462846FCF757FA02208DF8000020
:102F7000D5F88004C5F880040390D5F83C0502908C
:102F8000E0680190A661E661D4E9001268469047C6
:102F900023E04FF4887739462846FCF738FAE0B149
:102FA00039462846FCF738FAD5F83C15A06988421E
:102FB00013D1E06960B1E268D5F8000220F020008A
:102FC000C5F80002E069A0612069E661E06001E007
:102FD000A661E2682046FEF7FBFE4FF4A277394671
:102FE0002846FCF714FA68B139462846FCF714FA6B
:102FF000A06938B1A661E661D5F83C152046E268C3
:10300000FEF7E6FE4FF4907631462846FCF7FFF9CE
:1030100060B131462846FCF7FFF90120E86060699D
:1030200020B1D5F84C152046FFF78FFE4FF4AC7653
:1030300031462846FCF7EBF900280ED031462846E9
:10304000FCF7EAF96069002807D0D5F84C1504B000
:103050002046BDE8F041FFF778BEBDE8FF8108706B
:10306000000A48700220704710B514210448F6F792
:103070002EFA04480068FAF7B2FC002010BD0000E8
:1030800090240020703A02002DE9F05F8346DDE9CC
:103090000A4A994690460D460846012703E000BFBC
:1030A000B0FBF8F07F1C4045FAD2B94500D94F4635
:1030B0005FEACA7012D18CB15FEA8A7002D5B9F1A9
:1030C000000F01D0202607E0302605E031465846A3
:1030D000641EF8F7C1F90CB1A742F7D35FF00106FF
:1030E000B9F1010F02D9A9F1010903E0B5FBF6F02E
:1030F000404502D306FB08F6F2E7DFF83C9000BF3C
:10310000B5FBF6F000FB165519F800105846F8F715
:10311000A3F9B6FBF8F6002EF2D15FEACA7009D027
:10312000002C07D0A74205D220215846641EF8F78C
:1031300093F9F5E7BDE8F09F003A020010B5094C9D
:10314000002207496078F7F731FC002806D1607942
:10315000BDE8104000220449F7F728BC10BD00006C
:10316000A5B70100681A0020F9B40100F8B50546BA
:1031700080B2F9F72DFF040013D0154E207A0027F6
:10318000317B88420ED2A8B204F10A0175DF28B162
:10319000112806D0BDE8F840FFF724B8207A401C7B
:1031A0002072F8BD2772307C38B1A8B23B2176DF9F
:1031B00018B1082801D0FFF715F871690029F0D07F
:1031C0008DF80070ADF8025068468847F8BD0000E1
:1031D000241E0020417939B190F8F21021B990F8FD
:1031E000F40008B1012070470020704701460148F3
:1031F000FAF77CBC401E002030B40446007A002858
:103200000AD06088002166DF28B1112802D06168E9
:1032100030BC08470120207230BC704770B50C46A6
:103220000546F8F73DF9002807D04268002A04D087
:1032300021462846BDE87040104770BD2DE9FC418D
:103240001646DDE90854CDE900541F4680460222A7
:1032500000F00CF8002807D1CDE900543B461022BD
:103260003146404600F002F8BDE8FC812DE9FC5FE4
:103270000026DDE90C4B994692468E46804627880B
:10328000354630E0D8F80400002200EB850069469E
:103290000068019001A864DF002830D19DF800008B
:1032A00050451FD10EB1002100E0022122880844C0
:1032B0001118594522D846B9521C90B2208009F8FD
:1032C00000E02088401C20800126218801A801EB15
:1032D0000902694664DF002811D120889DF800109A
:1032E000084420806D1CB8F80000A842CADC56B122
:1032F0002088C01B401E80B2FF2802D90C20BDE8E8
:10330000FC9F09F807000020F9E710B5042817D240
:1033100009B1032400E00024F7F7BEFD4FF0A041FF
:1033200001EB8000D0F8001721F44031C0F80017FD
:10333000D0F8001741EA0441C0F80017002010BD82
:10334000062010BD002070472DE9F84F114D88462A
:1033500081461E4617466946DDF828A02868FAF718
:1033600059FB040013D01C21F6F7B1F8002020719E
:10337000C4F80090C4E90486C4E902A76946286835
:10338000FAF769FBFEF79EFA0020BDE8F88F0420EB
:10339000FBE70000703A02002DE9FC4104460020E2
:1033A00000900190A0788DF80200617A2D48FDF719
:1033B000BDFA2D492D4A891AC908012606EB014597
:1033C00080B10246A178237A6846FDF799F99DF805
:1033D000020001280ED006280CD0072808D00828A3
:1033E00011D10AE0627A284621A1FBF7DBFB1FE03E
:1033F000142006E0ADF8006005E0019880880930EF
:103400008008ADF800002088221D6946FDF78EF87F
:1034100088B107280DD02649112811D0862818D048
:10342000FBF7DAFF02462388284622A1FBF7C1FBFF
:103430000320BDE8FC81A17A21F00301A172F8E725
:10344000A07A20F0010040F00200A0720E7000206F
:10345000EFE7A27A22F0020242F00102A2720E709D
:10346000E7E70000D4200020F8520200D05202000A
:10347000706D5F6275666665725F7074725F6765B6
:1034800074282920636F756C64206E6F74207265D8
:103490007472696576652052414D20627566666575
:1034A000722E20626C6F636B5F69643A2025640042
:1034B000901A00207064735F706565725F64617458
:1034C000615F73746F726528292072657475726EFE
:1034D00065642025732E20706565725F69643A20EB
:1034E0002564000038B505460C46002001E0009830
:1034F000401C00906946284600F00EF800280AD0CB
:103500008178A142F3D1817A8A07F0D4C907EED13C
:1035100041680029EBD138BD10B50A4B0A680CE0B0
:1035200002EB420433F82440844205D102EB42000E
:1035300003EB80000A6010BD521C042AF0D3002067
:1035400010BD0000E42000204FF6FF710180FF2134
:1035500081704172817A21F0030181720021017230
:103560004160704770B50546002406E0687A204443
:10357000C1B20648FDF7EEF9641C287AA042F5D8DE
:103580002846BDE87040FFF7DFBF0000D4200020D0
:103590002DE9FC47064639489846144600780D4602
:1035A0004FF0000978B37DB32888A0F57F41FF393B
:1035B00033D0688848B36868F9F7FAFD80B384B3FC
:1035C0002088ADF80000678801A8FEF7ABF804007A
:1035D00034D084F800804FF0000A84F816A0BDF8BB
:1035E0000000A08268682061244801210C38FAF7A5
:1035F0009BFAE060288820816888A080E780B8F185
:10360000030F23D026E001E004E006E048F2016069
:10361000BDE8FC8748F20460FAE748F20360F7E788
:1036200000E002E048F20260F2E72889694687B2CA
:10363000384600F0AFF80028EAD1C5E7BDF8001021
:10364000384600F09BF848F20760E1E70420A075D7
:103650003068A061A4F80A9001A8FEF771F846B19D
:10366000C6F804A0E1680648316086F80AA000891F
:103670003081FEF719F90020CAE70000B01B0020D6
:10368000E42300202DE9F8430D46898A384A01EBEE
:10369000810102EB810638B129463046FCF786FBF2
:1036A0004FF40640BDE8F88331897068002400EBD0
:1036B00081072F48A97DA83848F20D6807294FD205
:1036C000DFE801F00D2E172504414B004460A96985
:1036D000016027482749A838FEF7D2F930B1022007
:1036E000A875042339462A1D009424E048F2096095
:1036F000D8E728692A4608B1032000E00120907528
:10370000042305F10C0207F10801009413E00120E5
:10371000A8750094E88807F10C0183002A690AE083
:1037200028782A4603280CD006209075042305F13A
:103730000802391D00941048FAF758FEB0B144460B
:1037400010E00520F1E70621A9750A4940680988BB
:10375000FEF714FA040005D108E041F61D5401E01B
:1037600048F20E6429463046FCF720FB204699E7D4
:10377000BC230020901B0020581C002001EB81027C
:10378000034901EB82014A89101AC01E4881704723
:10379000BC23002070B5C01C82B240F2FE308242D1
:1037A00002D948F2086070BD114B00204FF48065CB
:1037B00000EB800413F8246096B903EB8406348987
:1037C000768914443444A4B2AC4209D8088000EB92
:1037D000800003EB8000418911444181002070BDCD
:1037E000401C80B20228E3D348F2066070BD00009E
:1037F000BC230020111213140D0E0F10801D002089
:10380000A01D0020D01D00200D0003001DB00100F0
:103810000E0003001DB001000F0003001DB00100E9
:10382000100003001DB001000100FFFF01000000B7
:10383000000000000200000000000000010009007C
:103840000000000007000000000000000000000071
:103850000000000000000000060000000000000062
:103860000000000000000000000000001000000048
:103870000000000000000000000000000000000048
:103880001100000000000000000000000000000027
:103890000000000001000000010001009438020057
:1038A00001000100A838020000000000A50F02007E
:1038B000A9C70100770A000000000000770A000095
:1038C00000000000250102000700000000000000C9
:1038D0000000000000000000000000006511020070
:1038E000C9260200DDCA010079C80100706D5F6958
:1038F0006E69740001000600A41A0020706D5F70EC
:103900006565725F6E657700706D5F706565727377
:103910005F64656C657465000600000000000000CF
:103920000000000000000000000000006927020005
:103930000100000000000000000000000000000086
:103940000000000007000000000000000000000070
:103950000000000000000000060000000000000061
:103960000000000000000000000000000300000054
:103970000000000000000000000000000000000047
:103980000500000000000000000000000000000032
:10399000000000007365635F6B65797365745F6633
:1039A000696C6C00E0000000691502000000005026
:1039B00025F7010091F901000300000060220020BA
:1039C000902200200100060000000000801B002063
:1039D00031B60100000000000000000000000000FF
:1039E0000338FDD870470000042300200000FFFFCB
:1039F000DEC0ADDEFF011EF1DEC0ADDEFE011EF158
:103A00003031323334353637383941424344454614
:103A10006E72665F6673746F726167655F696E6907
:103A200074006E72665F6673746F726167655F754E
:103A30006E696E6974006E72665F6673746F726130
:103A400067655F72656164006E72665F6673746F4E
:103A5000726167655F7772697465006E72665F6632
:103A600073746F726167655F6572617365000000F2
:103A7000F4230020001000000400000001000000FA
:103A8000D5CE010069300200391902004933020025
:103A900039BB0100511C02004533020049D101002D
:103AA0000000000000000000000000000000000016
:103AB0000000000000000000A03A0200B83A020036
:103AC00004000000556E6B6E6F776E206572726F2A
:103AD0007220636F6465000000000000BC4E0200AD
:103AE00001000000684D0200020000005C4B020073
:103AF00003000000DC4D020004000000304E020014
:103B000005000000104D020006000000AC4C020051
:103B100007000000184E020008000000244D0200BB
:103B200009000000884D02000A000000A44E0200B7
:103B30000B000000444B02000C0000003C4D020052
:103B40000D0000000C4F02000E000000084E0200A5
:103B50000F000000444E020010000000784E0200EA
:103B600011000000204F020012000000F44E02007D
:103B700013000000904E020080000000C44C0200C0
:103B800081000000004C020082000000C04B0200D7
:103B900083000000A04B020084000000DC4B020008
:103BA00085000000E84C020086000000F04D020095
:103BB000900000008C4C020091000000804B02003D
:103BC00092000000504D020000820000584E02009A
:103BD00001820000A44D020002820000C04D0200DC
:103BE000008400001C4C020001840000C84E02004A
:103BF00002840000644C020003840000404C020078
:103C0000D5E70100D3E70100CDE701000000000087
:103C10000338FDD870470000E9E80100BDE8010065
:103C2000B5E80100FFFFFFFFFFFFFFFFFFFFFFFF02
:103C3000FFFFFFFF00000000000000000000D601B1
:103C400006010000F02500207F0000007026002003
:103C5000EC530200F45302000000000000000000DA
:103C600001000007503C0200603C02000800000018
:103C7000883C0200983C020008000000983C0200CA
:103C8000A83C020008000000145402002454020062
:103C90000000000000000000045402001454020060
:103CA0000000000000000000AC530200B45302000A
:103CB000B4530200DC530200DC530200E453020060
:103CC000E4530200EC530200401A0020A83C02001A
:103CD000C83C020008000000F45302000454020033
:103CE0000000000000000000D83C0200E83C020098
:103CF00008000000004040404040404040404141FA
:103D000041414140404040404040404040404040B0
:103D1000404040404005020202020202020202024A
:103D20000202020202202020202020202020200247
:103D300002020202020290909090909010101010D7
:103D40001010101010101010101010101010101073
:103D50000202020202028888888888880808080807
:103D600008080808080808080808080808080808D3
:103D70000202020240000000F53C0200436F756C35
:103D800064206E6F74206163717569726520636F62
:103D90006E6E5F7374617465207573657220666CF6
:103DA0006167732E20496E63726561736520424CB2
:103DB000455F434F4E4E5F53544154455F55534505
:103DC000525F464C41475F434F554E5420696E2029
:103DD00074686520626C655F636F6E6E5F7374619B
:103DE0007465206D6F64756C652E00004341522030
:103DF000636861722076616C756520636F756C64B1
:103E00006E27742062652073746F72656420286564
:103E100072726F723A202573292E20526561747474
:103E2000656D70742077696C6C2068617070656E68
:103E3000206F6E20746865206E65787420636F6EE5
:103E40006E656374696F6E2E000000006773636DAA
:103E50005F6C6F63616C5F64625F63616368655F21
:103E60006170706C7928292072657475726E656452
:103E70002025732077686963682073686F756C64A8
:103E8000206E6F742068617070656E2E20636F6E97
:103E90006E5F68616E646C653A2025640000000006
:103EA000546865206C6F63616C2064617461626149
:103EB000736520686173206368616E6765642C2098
:103EC000736F20736F6D65207375627363726970B1
:103ED00074696F6E7320746F206E6F7469666963A6
:103EE0006174696F6E7320616E6420696E646963CA
:103EF0006174696F6E7320636F756C64206E6F748C
:103F000020626520726573746F72656420666F72DB
:103F100020636F6E6E5F68616E646C65202564005F
:103F20007064735F706565725F646174615F737400
:103F30006F726528292072657475726E656420251C
:103F400073207768696C652073746F72696E67207F
:103F500073657276696365206368616E6765647313
:103F60007461746520666F72207065657220696483
:103F70002025642E0000000073645F626C655F673B
:103F8000617474735F696E697469616C5F75736580
:103F9000725F68616E646C655F6765742829207262
:103FA000657475726E65642025732077686963682F
:103FB0002073686F756C64206E6F74206861707018
:103FC000656E2E0044696420616E6F7468657220AE
:103FD000746872656164206D616E6970756C61747E
:103FE0006520504D5F504545525F444154415F4903
:103FF000445F474154545F4C4F43414C20666F72BD
:1040000020706565725F6964202564206174207486
:1040100068652073616D652074696D653F2070640B
:10402000625F77726974655F6275665F72656C6501
:1040300061736528292072657475726E6564202528
:10404000732E000073645F626C655F6761747473E4
:104050005F7379735F617474725F7365742829206C
:1040600072657475726E6564204E52465F45525299
:104070004F525F494E56414C49445F4441544120A0
:10408000666F72204E554C4C20706F696E7465726D
:104090002077686963682073686F756C64206E654B
:1040A0007665722068617070656E2E20636F6E6E2B
:1040B0005F68616E646C653A20256400436F756CBF
:1040C00064206E6F7420696E697469616C697A65C9
:1040D00020666C6173682073746F726167652E204F
:1040E0006664735F726567697374657228292072EC
:1040F000657475726E656420307825782E00000036
:10410000436F756C64206E6F7420777269746520DC
:104110006461746120746F20666C6173682E206620
:1041200064735F7265636F72645F7B7772697465D5
:104130007C7570646174657D282920726574757260
:104140006E656420307825782E20706565725F6911
:10415000643A202564000000436F756C64206E6F24
:10416000742064656C657465207065657220646197
:1041700074612E206664735F66696C655F64656C4C
:1041800065746528292072657475726E65642030C7
:1041900078257820666F7220706565725F69643A71
:1041A0002025640043616E6E6F742073746F7265B6
:1041B000206461746120746F20666C617368206292
:1041C00065636175736520706D5F627566666572A3
:1041D0005F7074725F676574282920636F756C6403
:1041E000206E6F7420726574726965766520524125
:1041F0004D206275666665722E20497320626C6F71
:10420000636B5F6964202564206E6F7420616C6C41
:104210006F63617465643F007064625F7772697494
:10422000655F6275665F72656C65617365282920DC
:1042300072657475726E6564202573207768696392
:10424000682073686F756C64206E6F74206861708D
:1042500070656E2E20706565725F69643A20256412
:104260002C20646174615F69643A20256400000059
:104270005065657220494420256420776173206E63
:104280006F742070726F7065726C792072656C65E6
:10429000617365642E207064735F706565725F6919
:1042A000645F6672656528292072657475726E6533
:1042B000642025732E20706565725F69643A20253D
:1042C00064000000536F6D65207065657220646145
:1042D000746120776173206E6F742070726F7065E7
:1042E000726C79207772697474656E20746F2066C1
:1042F0006C6173682E2077726974655F6275665FA2
:1043000073746F726528292072657475726E6564A6
:1043100020257320666F7220706565725F69643A4C
:1043200020256400436F756C64206E6F7420726585
:104330007472656976652072616E6B732E2070648D
:10434000625F706565725F646174615F6C6F616408
:1043500028292072657475726E65642025732E207D
:10436000706565725F69643A2025640025732829A9
:10437000206661696C6564206265636175736520A0
:10438000612063616C6C20746F20706D5F70656577
:10439000725F64656C657465282920726574757236
:1043A0006E65642025732E20706565725F69643ABE
:1043B000202564004F757464617465642028302979
:1043C000000000004F757464617465642028322910
:1043D000000000004F7574646174656420283329FF
:1043E00000000000706D5F636F6E6E5F73656375D4
:1043F00072652829206661696C6564206265636165
:1044000075736520616E20534D502074696D656F22
:1044100075742069732070726576656E74696E6755
:10442000207365637572697479206F6E2074686596
:10443000206C696E6B2E20446973636F6E6E6563CA
:1044400074696E6720636F6E6E5F68616E646C6521
:104450002025642E00000000706D5F636F6E6E5F3C
:104460007365637572652829206661696C656420CF
:104470006265636175736520636F6E6E5F68616E00
:10448000646C65202564206973206E6F7420612040
:1044900076616C696420636F6E6E656374696F6EBC
:1044A0002E000000706D5F636F6E6E5F73656375E5
:1044B00072652829206661696C65642062656361A4
:1044C000757365207468652073746F726564206409
:1044D00061746120666F7220636F6E6E5F68616EDB
:1044E000646C6520256420646F6573206E6F742092
:1044F0006861766520612076616C6964206B6579FE
:104500002E000000426F6E64696E67206461746102
:10451000000000004170706C69636174696F6E2007
:104520006461746100000000436F6E6E65637469BE
:104530006F6E207365637572697479206661696C4A
:1045400065643A20726F6C653A2025732C20636F86
:104550006E6E5F68616E646C653A20307825782CE9
:104560002070726F6365647572653A2025732C2024
:104570006572726F723A202564000000496E7661A0
:104580006C696420526F6C650000000052656D6FAD
:104590007465206461746162617365004C6F63616E
:1045A0006C206461746162617365000055706461C0
:1045B0007465000044656C6574650000536572762F
:1045C000696365206368616E6765642070656E6409
:1045D000696E6720666C616700000000426F6E6460
:1045E000696E670050616972696E67005065657237
:1045F0002072616E6B0000005065726970686572B0
:10460000616C000043656E7472616C00456E63728C
:10461000797074696F6E000043656E7472616C200E
:1046200061646472657373207265736F6C7574690D
:104630006F6E000050656572206461746120757052
:104640006461746564206661696C65643A207065B4
:1046500065725F69643A2025642C20646174615F2F
:1046600069643A2025732C20616374696F6E3A2067
:1046700025732C206572726F723A2025730000003A
:104680005065657220646174612075706461746541
:104690006420696E20666C6173683A20706565728B
:1046A0005F69643A2025642C20646174615F6964E9
:1046B0003A2025732C20616374696F6E3A2025734C
:1046C00025730000436F756C64206E6F7420636FF8
:1046D0006D706C65746520656E6372797074696F56
:1046E0006E2070726F6365647572652E2073645FEF
:1046F000626C655F6761705F7365635F696E666F4B
:104700005F7265706C7928292072657475726E65A8
:10471000642025732E20636F6E6E5F68616E646C1B
:10472000653A2025642C20706565725F69643A20C3
:1047300025642E00436F756C64206E6F7420636C6B
:1047400065616E20757020616674657220666169AE
:104750006C656420626F6E64696E672070726F634F
:1047600065647572652E207064625F777269746526
:104770005F6275665F72656C65617365282920727A
:10478000657475726E65642025732E20636F6E6E7E
:104790005F68616E646C653A2025642E000000003D
:1047A00052414D2062756666657220666F72206E9A
:1047B000657720626F6E642077617320756E617615
:1047C00061696C61626C652E207064625F777269EA
:1047D00074655F6275665F67657428292072657409
:1047E00075726E65642025732E20636F6E6E5F6830
:1047F000616E646C653A2025642E0000696D5F620D
:104800006C655F616464725F6765742829207265F6
:104810007475726E65642025732E20636F6E6E5FF3
:1048200068616E646C653A2025642E204C696E6B5D
:1048300020776173206C696B656C792064697363A0
:104840006F6E6E65637465642E00000073645F6252
:104850006C655F6761705F7365635F696E666F5FEC
:104860007265706C7928292072657475726E656442
:10487000204E52465F45524F525F494E56414C4979
:10488000445F53544154452C20776869636820691C
:104890007320616E6572726F7220756E6C657373D2
:1048A00020746865206C696E6B206973206469737D
:1048B000636F6E6E656374696E672E00436F756C0F
:1048C00064206E6F742073746F726520626F6E6403
:1048D0002E207064625F77726974655F6275665FCF
:1048E00073746F726528292072657475726E6564C1
:1048F0002025732E20636F6E6E5F68616E646C6539
:104900003A2025642C20706565725F69643A202521
:1049100064000000436F756C64206E6F74207265D4
:104920007472696576652052414D206275666665D0
:104930007220666F7220696E636F6D696E672062A8
:104940006F6E642E207064625F77726974655F6257
:1049500075665F67657428292072657475726E6567
:10496000642025732E20636F6E6E5F68616E646CC9
:10497000653A20256400000043616E6E6F742073F9
:104980006563757265206C696E6B20626563617525
:10499000736520612070726576696F757320736529
:1049A0006375726974792070726F6365647572657E
:1049B00020656E64656420696E2074696D656F752D
:1049C000742E20446973636F6E6E65637420616E2C
:1049D000642072657472792E20736D645F706172E9
:1049E000616D735F7265706C792829206F72207316
:1049F0006D645F6C696E6B5F7365637572652829A2
:104A00002072657475726E6564204E52465F455221
:104A1000524F525F54494D454F55542E20636F6E8F
:104A20006E5F68616E646C653A202564000000006A
:104A3000436F756C64206E6F7420706572666F7260
:104A40006D2073656375726974792070726F636528
:104A5000647572652E20736D645F6C696E6B5F7335
:104A6000656375726528292072657475726E656458
:104A70002025732E20636F6E6E5F68616E646C65B7
:104A80003A20256400000000436F756C64206E6F4F
:104A90007420706572666F726D20736563757269DC
:104AA00074792070726F6365647572652E20736D02
:104AB000645F706172616D735F7265706C792829D3
:104AC000206F7220736D645F6C696E6B5F736563DA
:104AD00075726528292072657475726E656420256B
:104AE000732E20636F6E6E5F68616E646C653A2032
:104AF00025640000616464725F69735F776974683C
:104B0000696E5F626F756E647328705F66732C20C8
:104B1000706167655F616464722C20286C656E202B
:104B20002A20705F66732D3E705F666C6173685FEC
:104B3000696E666F2D3E65726173655F756E69742F
:104B4000292900004E52465F4552524F525F494E4E
:104B500056414C49445F4441544100004E52465F27
:104B60004552524F525F534F465444455649434570
:104B70005F4E4F545F454E41424C4544000000009B
:104B80004E52465F4552524F525F46454154555230
:104B9000455F4E4F545F454E41424C454400000036
:104BA0004E52465F4552524F525F4D555445585FE5
:104BB000554E4C4F434B5F4641494C454400000025
:104BC0004E52465F4552524F525F4D555445585FC5
:104BD0004C4F434B5F4641494C4544004E52465F63
:104BE0004552524F525F4D555445585F434F4E44C6
:104BF0005F494E49545F4641494C4544000000001E
:104C00004E52465F4552524F525F4D555445585F84
:104C1000494E49545F4641494C4544004E52465F17
:104C20004552524F525F424C455F495053505F527C
:104C3000585F504B545F5452554E434154454400C5
:104C40004E52465F4552524F525F424C455F49506B
:104C500053505F504545525F52454A454354454481
:104C6000000000004E52465F4552524F525F424C88
:104C7000455F495053505F4C494E4B5F4449534345
:104C80004F4E4E4543544544000000004E52465F8F
:104C90004552524F525F4150495F4E4F545F494D0C
:104CA000504C454D454E5445440000004E52465F21
:104CB0004552524F525F4E4F545F535550504F52D2
:104CC000544544004E52465F4552524F525F4D4F3D
:104CD00044554C455F4E4F545F494E495449414CF1
:104CE000495A4544000000004E52465F4552524F1B
:104CF000525F4D4F44554C455F414C5245414459DC
:104D00005F494E495449414C495A4544000000000E
:104D10004E52465F4552524F525F4E4F545F464F80
:104D2000554E44004E52465F4552524F525F494ED7
:104D300056414C49445F5354415445004E52465FDE
:104D40004552524F525F444154415F53495A4500C6
:104D50004E52465F4552524F525F494F5F50454E4B
:104D600044494E47000000004E52465F4552524FA4
:104D7000525F5356435F48414E444C45525F4D4944
:104D80005353494E470000004E52465F4552524F22
:104D9000525F494E56414C49445F4C454E4754483A
:104DA000000000004E52465F4552524F525F44523F
:104DB000565F5457495F4552525F414E41434B0045
:104DC0004E52465F4552524F525F4452565F5457BF
:104DD000495F4552525F444E41434B004E52465F3D
:104DE0004552524F525F494E5445524E414C00007D
:104DF0004E52465F4552524F525F53544F524147B5
:104E0000455F46554C4C00004E52465F4552524F4E
:104E1000525F4E554C4C00004E52465F4552524F29
:104E2000525F494E56414C49445F504152414D00FA
:104E30004E52465F4552524F525F4E4F5F4D454D69
:104E4000000000004E52465F4552524F525F464F9F
:104E50005242494444454E004E52465F4552524FDD
:104E6000525F4452565F5457495F4552525F4F5606
:104E7000455252554E0000004E52465F4552524F29
:104E8000525F494E56414C49445F414444520000F0
:104E90004E52465F4552524F525F5245534F555204
:104EA000434553004E52465F4552524F525F494E62
:104EB00056414C49445F464C414753004E52465F71
:104EC00053554343455353004E52465F4552524F4C
:104ED000525F424C455F495053505F4348414E4EEC
:104EE000454C5F414C52454144595F4558495354E4
:104EF000530000004E52465F4552524F525F434F9F
:104F00004E4E5F434F554E54000000004E52465FD8
:104F10004552524F525F54494D454F555400000081
:104F20004E52465F4552524F525F42555359000010
:104F30007761726E696E6700646562756700000074
:104F40001B5B313B33306D001B5B306D000000009C
:104F50001B5B313B33316D001B5B313B33326D00EA
:104F60001B5B313B33336D001B5B313B33346D00D6
:104F70001B5B313B33356D001B5B313B33366D00C2
:104F80001B5B313B33376D00696E666F00000000BC
:104F90006572726F7200000073645F626C655F63BC
:104FA00066675F73657428292072657475726E6513
:104FB00064202573207768656E20617474656D7058
:104FC00074696E6720746F2073657420424C455F6E
:104FD00047415454535F4346475F534552564943F4
:104FE000455F4348414E4745442E000073645F626D
:104FF0006C655F6366675F736574282920726574EA
:1050000075726E6564202573207768656E20617403
:1050100074656D7074696E6720746F207365742099
:10502000424C455F434F4D4D4F4E5F4346475F56A1
:10503000535F555549442E0073645F626C655F632E
:1050400066675F73657428292072657475726E6572
:1050500064202573207768656E20617474656D70B7
:1050600074696E6720746F2073657420424C455FCD
:1050700047415454535F4346475F415454525F5431
:1050800041425F53495A452E0000000073645F623D
:105090006C655F6366675F73657428292072657449
:1050A00075726E6564202573207768656E20617463
:1050B00074656D7074696E6720746F2073657420F9
:1050C000424C455F434F4E4E5F4346475F4741501A
:1050D0002E00000073645F626C655F6366675F73D8
:1050E000657428292072657475726E656420257355
:1050F000207768656E20617474656D7074696E6781
:1051000020746F2073657420424C455F4741505FA7
:105110004346475F524F4C455F434F554E542E0018
:10512000706565725F6D616E616765725F67636D03
:1051300000000000706565725F6D616E6167657289
:105140005F6773636D000000706565725F6D616E0F
:10515000616765725F696D006E72665F626C655F44
:105160006761747400000000706565725F6D616E48
:10517000616765725F70647300000000706565723E
:105180005F6D616E616765725F7064620000000050
:10519000706565725F6D616E616765720000000029
:1051A000706565725F6D616E616765725F68616E83
:1051B000646C657200000000706565725F6D616E01
:1051C000616765725F736D640000000070656572F1
:1051D0005F6D616E616765725F736D00636C6F63B5
:1051E0006B000000434C4F434B0000004750494FB9
:1051F00054450000505253005541525400000000E5
:1052000055415254450000006170705F62757474BE
:105210006F6E00006170705F74696D6572000000F0
:105220006E72665F6673746F72616765000000007E
:105230007077725F6D676D7400000000736F727439
:105240006C697374000000007274745F6C6F675F48
:105250006261636B656E6400756172745F6C6F6729
:105260005F6261636B656E640000000061707000D6
:105270006E72665F736468006E72665F7364685F07
:10528000626C65006E72665F7364685F736F630063
:1052900024540200401A00202C02000064950100F2
:1052A000C05402006C1C0020C4180000E09B0100E8
:1052B000003C02000000000048520200EC1B0020ED
:1052C000183C02000000000058520200F41B0020AD
:1052D00020510200000003033451020000000303C8
:1052E000485102000000030358510200000003036C
:1052F00068510200000003037C5102000000030318
:105300009051020000000303A051020000000303BB
:10531000B851020000000303CC5102000000030357
:10532000DC51020000000000E45102000000000017
:10533000EC51020000000000F451020000000000E7
:10534000F8510200000000000052020000000000BE
:105350000852020000000000145202000000000089
:10536000205202000000030330520200000000003F
:105370003C520200000000006C52020000000303D7
:105380007052020000000303785202000000030381
:105390008452020000000303081C0020001C0020AF
:1053A000081C0020302500201800000061AD01001D
:1053B0000000000059DC01006C1C00207FA60100E9
:1053C000881C0020F5AB01000000000065AC010066
:1053D0000000000069AE01000000000087DD010050
:1053E0007C1C002041AB01000000000011E3010023
:1053F00000000000052A02000000000049E301004F
:105400000000000051F1010000000000C1F20100A5
:10541000000000000D1E02000000000029E3010052
:1054200000000000062BFFFF0A1801D4D90902DA98
:10543000DD100119596514AC45021AB4041A7C0434
:105440001AF804140446021A0C041ADC0C2AE41C90
:105450001343021ABC081AC4081AD4041A140C1AEA
:105460008C042AEC2C19041A9C041A1830DAFF0157
:105470001A1801517909014F1510014011026E04EB
:105480001220BA4008319AFF08690C011814904F95
:10549000021A30041A88041A38041A48041A4004FC
:1054A0001A50041A58041A60041A68041A70041A6C
:1054B00078041A8004493983D003946DC301000035
:040000050001920163
:00000001FF
