:020000040002F8
:10600000F85D0020C1630200C9630200CB63020097
:10601000CD630200CF630200D163020000000000E4
:10602000000000000000000000000000D363020038
:10603000D563020000000000D7630200D9630200AC
:1060400031660200DB630200D5690200DB630200F7
:10605000DB630200DB6302008D650200DB6302008C
:10606000DB630200DB630200DB630200DB63020030
:10607000DB630200DB630200DB630200DB63020020
:10608000DB63020089660200DB630200DB6302005F
:10609000DB630200DB630200F9660200DB630200DF
:1060A000DB630200DB630200DB630200DB630200F0
:1060B000DB630200DB630200000000000000000060
:1060C000DB630200DB630200DB630200DB630200D0
:1060D000DB630200DB630200DB6302000000000000
:1060E00000000000000000000000000000000000B0
:1060F00000000000000000000000000000000000A0
:10610000000000000000000000000000000000008F
:10611000000000000000000000000000000000007F
:10612000000000000000000000000000000000006F
:10613000000000000000000000000000000000005F
:10614000000000000000000000000000000000004F
:10615000000000000000000000000000000000003F
:10616000000000000000000000000000000000002F
:10617000000000000000000000000000000000001F
:10618000000000000000000000000000000000000F
:1061900000000000000000000000000000000000FF
:1061A00000000000000000000000000000000000EF
:1061B00000000000000000000000000000000000DF
:1061C00000000000000000000000000000000000CF
:1061D00000000000000000000000000000000000BF
:1061E00000000000000000000000000000000000AF
:1061F000000000000000000000000000000000009F
:10620000DFF80CD000F084F90048004791910200BB
:10621000F85D002030B450E8012F93B2C4892344C4
:106220008489A34228BF1B1B0489A34202BFBFF37A
:106230002F8F002007E0C3EA020340E80134002C5E
:10624000E9D14FF001000A6030BC704750E8012FDF
:10625000C2EA024240E801210029F7D1704730B478
:1062600050E8022F1FFAA2F3C488A34202BFBFF373
:106270002F8F00200DE0C48923448489A34228BFC6
:106280001B1BC2EA034340E80234002CE8D14FF064
:1062900001000A6030BC704750E8022FC2EA224277
:1062A00040E802210029F7D17047034653E8022F46
:1062B000D988B2EB324F4FF0000017BF92B241EADB
:1062C000014142EA014104E05A68B2EB324F08BF93
:1062D000012043E80212002AE8D1704730B4044696
:1062E00054E8000F0D4644E80053002BF8D1156028
:1062F00030BC704730B4044654E8000F40EA010552
:1063000044E80053002BF7D1156030BC704730B41F
:10631000044654E8000F00EA010544E80053002B4E
:10632000F7D1156030BC704730B4044654E8000F14
:1063300080EA010544E80053002BF7D1156030BC1A
:10634000704730B4044654E8000F00EB010544E800
:106350000053002BF7D1156030BC704730B40446B1
:1063600054E8000FA0EB010544E80053002BF7D1DF
:10637000156030BC704770B404464FF0000054E81C
:10638000006F0D68AE4207BF44E80023012044E8D7
:1063900000630E60002B1CBF0020F0E770BC70474C
:1063A00030B4044654E8000F88422CBF451A054615
:1063B00044E80053002BF5D1156030BC7047000055
:1063C0000648804706480047FEE7FEE7FEE7FEE78F
:1063D000FEE7FEE7FEE7FEE7FEE7FEE7FD660200FA
:1063E000016202002DE9F05F0546002092469B46BF
:1063F00088460646814640241BE0284641464746DB
:10640000224600F074F853465A46C01A914110D300
:1064100011461846224600F016F82D1A67EB0108BF
:106420004F4622460120002100F00DF817EB00092D
:106430004E41201EA4F10104DFDC484631462A46C5
:106440004346BDE8F09F202A04DB203A00FA02F11F
:10645000002070479140C2F1200320FA03F3194352
:106460009040704700487047DCD9020040EA0103C1
:106470009B0703D009E008C9121F08C0042AFAD2FA
:1064800003E011F8013B00F8013B521EF9D27047BE
:10649000D2B201E000F8012B491EFBD27047002266
:1064A000F6E710B513460A4604461946FFF7F0FF13
:1064B000204610BD421C10F8011B0029FBD1801A98
:1064C000704730B504460020034600E05B1C934251
:1064D00003D2E05CCD5C401BF8D030BD034611F820
:1064E000012B00F8012B002AF9D118467047202A09
:1064F00004DB203A21FA02F00021704721FA02F36E
:10650000D040C2F120029140084319467047000074
:10651000064C074D06E0E06840F0010394E80700F0
:1065200098471034AC42F6D3FFF76EFEC0E4020089
:10653000E0E4020070B58C1810F8015B15F0070359
:1065400001D110F8013B2A1106D110F8012B03E00C
:1065500010F8016B01F8016B5B1EF9D12B0705D414
:106560000023521E0DD401F8013BFAE710F8013B5D
:10657000CB1A921C03E013F8015B01F8015B521E79
:10658000F9D5A142D8D3002070BD00002DE9F84311
:106590000025DFF894804FF4807601242F46009583
:1065A000304603F0EFFD38B1D8F80403204203D0A1
:1065B000304603F0DDFD2543361D64007F1CB6B276
:1065C000082FEDD34FF4BE74204603F0DBFD48B135
:1065D000204603F0CDFD45F000456A46012100202C
:1065E00003F096FD15F0FF0F16D0012600242E4271
:1065F0000ED008EB8401D1F81005D1F81015C0F3C6
:1066000004200A4AC1F3014152F8242002B1904704
:106610007600641C082CEAD3002D02DA684605F0E7
:1066200089FDBDE8F8830000006000403C34002094
:1066300070B54FF48076304603F046FB114CB5053B
:1066400060B1304603F047FB0120C5F808036079CC
:1066500020B9012060712168002088474FF48276BC
:10666000304603F031FB00280AD0304603F033FBFC
:106670000220C5F808032168BDE8704001200847E2
:1066800070BD00005C30002002490248091F096803
:1066900000680847CC30002000F0A2B970B50E4663
:1066A000144900EB400001EBC0051446E86A1835B8
:1066B00020B101280FD0022805D113E0284600F0B0
:1066C000C3F9A04201D2002411E0224631462846F7
:1066D00000F0F2F90BE0284600F0B6F9A042F4D23F
:1066E0000446F2E73146284600F0B9F90446204650
:1066F00070BD0000703B002004F0DABBF0B5A44987
:10670000A4484FF080540B68D4F830210078D4F8B6
:106710003411551CC0F3031006D0944601270026FF
:10672000BCF1060F03D00AE003F0FF0CF6E7B4F863
:106730002453DFF864C2C5F30425CCF80050DDB261
:10674000062D06D1032804D1DFF854C2934DCCF8AE
:106750007450551C04D09446BCF1060F03D00AE0D7
:1067600003F0FF0CF8E7D4F84452DFF838C2C5F361
:106770004235CCF80050DDB2062D08D1032806D1F1
:10678000894DD5F800C02CF0807CC5F800C0551CA0
:1067900004D09446BCF1060F03D00BE003F0FF0CCD
:1067A000F8E74FF08045C5F80C61C5F810617D4DE4
:1067B0002D1F2E60DDB2062D08D1032806D1DFF88B
:1067C000E4C103250CF1640CCCF80050DDB2062DB9
:1067D00010D103280ED1DFF8D4C10525CCF8005024
:1067E000724D78352F60714D08352E600CF104061E
:1067F0003F253560551C04D016460D46062E03D0A5
:106800005BE0DEB20546F9E7ED1E012D55D9684D76
:106810002D68684E3560664D2D1D2D68361D35601E
:10682000634D08352D68361D3560614D0C352D687A
:10683000361D35605E4D10352D68361D35605C4D5A
:1068400014352D68361D3560594D18352D68594E53
:1068500020363560564D1C352D68361D3560544D3B
:1068600020352D68361D3560514D24352D68361D77
:1068700035604F4D28352D68361D35604C4D2C3513
:106880002D68361D35604A4D30352D68494E4036ED
:106890003560474D34352D68361D3560444D3835EB
:1068A0002D68361D3560424D3C352D68361D3560EE
:1068B0003F4D40352D68361D3560551C03D01646BA
:1068C000062E02D007E0DEB2FAE7D4F858523A4E6C
:1068D00005F04F053560551C03D01346062B02D03A
:1068E00008E0DBB2FAE735480368DB0702D06FF057
:1068F00001030360062A07D1C91E022904D93048C2
:10690000016841F48061016027487438016841F4EE
:1069100070010160BFF34F8FBFF36F8FD4E94C104C
:106920004FF01022062907D1C01E032804D9D2F83F
:1069300008021C491C310860D2F80002002803DB61
:10694000D2F8040200281FDA012004F065FF1521A7
:10695000C2F800121B480368002BFCD0C2F80412D6
:1069600001680029FCD0002004F056FFBFF34F8FD0
:106970000D48F0380168144A01F4E06111430160E8
:10698000BFF34F8F00BFFDE7114910480860F0BD0D
:10699000E00F00F0E80F00F0403501400DF0ADBA17
:1069A00000C007403C050040FCED00E010560040F0
:1069B0000404001020C50040E40E00400004004024
:1069C0003C17004000E401400400FA050090D003A9
:1069D0004431002001480068004700006430002076
:1069E00010B5124C02202061606111A0A06104F179
:1069F0007800E0614FF4007020620020A0626062C5
:106A00000BA1A164E06204F51E71E1641021A06590
:106A1000C4E91410E06509A1E01DFFF75FFD08A1BE
:106A20002046FFF75BFD2020A07110BD703B0020C9
:106A30005465726D696E616C000000005254540020
:106A400053454747455200000269C1688A4203D84E
:106A50008068401A104400E0501A401E70472DE92B
:106A6000F047C4681746894606464FF0000830696B
:106A7000A04201D9051B02E0B168201A0D1AB068C6
:106A80006D1E001BA84200D80546BD4200D33D46FE
:106A900070682A4620444946FFF7E8FCB0687F1B2F
:106AA0002C44A844A944A04200D10024F460002F43
:106AB000DDD14046BDE8F0872DE9F0410446884627
:106AC000D4E90207C51BE168606816460844B54270
:106AD00006D94146FFF7CAFCB819E060BDE8F0816D
:106AE0002A464146FFF7C2FC761B08EB05013246F9
:106AF0006068FFF7BBFCE660F0E700000FB4054BF1
:106B000010B503A9044A029800F02AF810BC5DF8F9
:106B100014FB0000278C0200DC30002002E008C8D3
:106B2000121F08C1002AFAD170477047002001E007
:106B300001C1121F002AFBD170470000012120284B
:106B400003DA81400548014003E0402802DA20389A
:106B5000814009B10120704700207047FC06FFBD4D
:106B60002DE9FF4F8DB00F460546002606E025288B
:106B70000BD0DDE90F1290476D1C761C2878002899
:106B8000F5D111B03046BDE8F08F0024A246A146F1
:106B90000122EC4900E0044315F8013F203B02FAD2
:106BA00003F00842F7D128782A2810D06FF02F027E
:106BB0002878A0F13001092914D80AEB8A0102EBE8
:106BC000410144F0020400EB010A6D1CF0E701CF23
:106BD0005FEA000A03D544F40054CAF1000A44F005
:106BE00002046D1C28782E2817D115F8010F44F0E7
:106BF00004042A280ED06FF02F022878A0F130016B
:106C000009290AD809EB890102EB410100EB0109CE
:106C10006D1CF2E757F8049B6D1C28786C280FD088
:106C200006DC4C2817D068280DD06A2814D104E05F
:106C3000742810D07A280FD10DE044F400140AE033
:106C400044F4801401E044F440146978814202D194
:106C500004F580146D1C6D1C2A786E2A1FD00CDC84
:106C6000632A31D004DC002A8BD0582A11D1A3E04A
:106C7000642A68D0692A0CD165E0732A2ED004DC1E
:106C80006F2A73D0702A04D19BE0752A6FD0782ABE
:106C90006ED01046DDE90F129047761C50E1C4F328
:106CA0000250022806D0032809D0042801CF09D0B9
:106CB000066045E101CFF117C0E9006140E101CF75
:106CC00006803DE106703BE117F8040B8DF80000EB
:106CD00000208DF80100EB46012003E057F804BBCB
:106CE0004FF0FF3061074FF0000102D40DE008F1D2
:106CF0000101884649450FDA8045F8DB1BF808108A
:106D00000029F4D108E008F1010188468142FADB4C
:106D10001BF808100029F6D1DDE90F23AAEB0800C3
:106D20008146214600F036F9304400EB080604E0C5
:106D3000DDE90F121BF8010B9047B8F10108F7D2FB
:106D400021464846F7E00A21C4F302534FF0000BF6
:106D50000891022B04D001CFC117032B09D00AE000
:106D6000FF1D27F00707F7E8020108E032E01FE007
:106D700020E000B2C117042B01D140B2C117031E9D
:106D800071F1000307DA4FF0000CD0EB0C006CEB54
:106D900001012D2302E0230504D52B238DF8243097
:106DA000012303E0E30701D02023F7E7984658E0EA
:106DB0000A2110E010210EE010204FF0000B089087
:106DC0000CE010214FF0000B44F004044FF00809D0
:106DD000089103E008214FF0000B0891C4F302531F
:106DE000022B04D001CF0021032B06D006E0FF1DAB
:106DF00027F00707F7E8020103E080B2042B00D177
:106E0000C0B24FF0000823072BD5702A07D0DDF859
:106E100020C08CF0100C5CEA0B0C05D00EE0402377
:106E20008DF82430012308E050EA010306D0302316
:106E30008DF824308DF8252002239846DDF820C0F7
:106E40008CF0080C5CEA0B0C0BD150EA010301D169
:106E5000630706D530238DF824304FF00108A9F1DF
:106E60000109582A04D038A20B9208AA0A920BE012
:106E70003AA2F9E75B46089AFFF7B4FA0B9B9B5CD2
:106E80000A9A521E0A92137050EA0102F2D10A982D
:106E9000ADEB000000F1200B600702D524F4803434
:106EA00001E04FF00109D94502DDA9EB0B0000E03C
:106EB000002000EB0B0141440890AAEB010AE0031B
:106EC00006D4DDE90F232146504600F063F806445E
:106ED0004FF0000908E009A911F80900DDE90F12D7
:106EE000904709F10109761CC145F4DBE0030CD59C
:106EF000DDE90F232146504600F04CF8064404E03B
:106F0000DDE90F1230209047761C0899481E089042
:106F10000029F5DC08E00A980A990078491C0A91D2
:106F2000DDE90F129047761CBBF10001ABF1010BBC
:106F3000F1DC21465046DDE90F2300F019F8064444
:106F40006D1C1BE6092801003031323334353637E9
:106F500038396162636465660000000030313233A5
:106F60003435363738394142434445460000000045
:106F70002DE9F041044600251E461746880404D436
:106F800005E039462020B0476D1C641EF9D528461F
:106F9000BDE8F0812DE9F041044600251E469046EB
:106FA000C80301D5302700E02027880404D505E078
:106FB00041463846B0476D1C641EF9D52846BDE8E9
:106FC000F08110B501220221002000F0CFFF08B1AE
:106FD000072810D107220221012000F0C7FF08B1C5
:106FE000072808D100210A22084600F0BFFF08B197
:106FF000072800D1002010BD022000F0D3BE000001
:1070000070B50024064D06E06868012110F83400D0
:1070100004F066F8641C28788442F5D3002070BD23
:1070200070300020F8B516460C4605460A2A01D2F3
:107030000720F8BD04F04EF918B904F011F9002842
:10704000F7D1134F102113487D603C70BE60FFF7ED
:1070500026FA0020C7E904000F4E0DE005EBC4003E
:107060003168009181788DF8011000780B4A6946EB
:1070700004F086F80028DCD1641EE4B2EED2BDE84C
:10708000F84005480021064A001D00F087B80000BE
:107090007030002008350020C8D602008D8E020016
:1070A0005986020072B603F05BFB00BF03F03AF9A9
:1070B0000028FBD111481249401AC408012000EBF6
:1070C000044010A103F09EFA11480068C00700D0E8
:1070D00000BE022000EB04400EA103F093FABFF3C0
:1070E0004F8F0B48E43801680E4A01F4E061114308
:1070F0000160BFF34F8F00BFFDE7000068E50200AD
:10710000F0E40200466174616C206572726F720077
:10711000F0ED00E053797374656D207265736574EA
:10712000000000000400FA050EB500210091CDE931
:1071300001106A4644F20100FFF7B4FF0EBD10B51E
:107140008268C368934203D001F05AFD002010BD4D
:10715000052010BD29B112B1531E134203D00920DE
:1071600070470E2070470160838000218160C160FC
:107170000846704710B58268C3689A1A83889A4295
:1071800003D801F047FD002010BD042010BD000011
:10719000014801F0B2BB0000903000203AB1006815
:1071A0000129426100D000210161002070470720C1
:1071B0007047000038B511480823582241680091F3
:1071C0000F49006802F0F4F8002815D10D4A69460D
:1071D0000D4801F097FB04000ED101210A4801F08F
:1071E0000CFC0123094A1946074801F05EFB0649D9
:1071F000012008390870204638BD0000D0D60200B2
:1072000028350020E1C8020090300020FFFF7F00F9
:1072100070B50446007F0D4608B1002070BDA26124
:1072200001F01AFE401941F10001C4E90201206990
:1072300000B125612146BDE87040002005F09EBEEA
:10724000014600200877012005F098BE70B50A4E6F
:1072500001460A48B578FFF772FF04464DB1002099
:10726000B070711C0122C81D02F0ACFD08B1FFF71F
:107270005BFF204670BD0000AC3000208035002050
:10728000F0B5244E89B01F460D00044672603FD011
:10729000A888296882B22048FFF75CFF002835D112
:1072A000A889A96882B21C481030FFF753FF002854
:1072B0002CD1202219496846FFF7D8F8606906905A
:1072C000207C00B101208DF814008DF81C70607CCA
:1072D00000B10E208DF81500E0680290A0680390C0
:1072E00020680190606800900A480D4A694608309D
:1072F00002F034FD002809D1B0702068401C05D090
:1073000004490122491CC81D02F05CFD09B0F0BD12
:107310000720FBE7AC30002080350020E4D60200D7
:1073200049D1020010B501461048FFF723FF0400C1
:1073300019D10F480F4A0178515C19B1001D04F0B2
:107340005BFA02E00C3004F031F960B908490748F3
:107350000839FFF7F4FE30B905490122083904481D
:1073600002F040FD0446204610BD0000903500208C
:10737000B43000205030002030B5EFF3108172B6E9
:107380000D4A9468012324B10370002900D162B62C
:1073900030BD93604FF0E023D3F88051074C254077
:1073A0001560C3F88041D3F8844154605A17C3F87C
:1073B000842100220270E8E7A0350020FC06FFBD12
:1073C0000B498A68002A11D000280FD1EFF31080F2
:1073D00072B60B684FF0E022C2F800314B68C2F879
:1073E000043100228A60002800D162B67047000094
:1073F000A03500202DE9F041064608680C46411CE6
:107400004FF0A0474FF0010506D005FA00F1C7F88C
:107410000815206802F056FE6068411C02D0002169
:1074200002F03EFE3168A069C1F82405607D227D2E
:1074300031681043C1F86C05D4E900123068C0F817
:107440001425C0F80C15207D012815D1A068411C19
:1074500002D0002102F024FEE068411C05D08540E6
:10746000C7F80855E06802F02DFED4E90212306832
:10747000C0F80825C0F81015BDE8F0812DE9F041ED
:10748000064608680C46411C4FF0A0474FF0010526
:1074900006D005FA00F1C7F80815206802F01CFEB6
:1074A0006068411C02D0002102F003FE3168A0692F
:1074B000C1F82405607D217D32680843C2F86C055F
:1074C000D4E900123068C0F80C15C0F81425207DEE
:1074D000012815D1A068411C02D0002102F0E9FD6D
:1074E000E068411C05D08540C7F80855E06802F007
:1074F000F3FDD4E902123068C0F80825C0F8101571
:10750000BDE8F08170B5E0B1DAB1002402E0045DBD
:107510002C44A4B2651C8D4206D21688A642F6D829
:10752000061976789E42F2D18C420AD2A31C005DE5
:107530009BB200B1401E0004000C02D01C188C420B
:1075400001D9002070BD138070BD2DE9F0418AB0D3
:1075500006460020ADF814001346102088468DF82A
:1075600004000D4606AA01A9184664DFA6B398BB1D
:107570009DF80400022804D0042807D0102839D12F
:107580000DE003208DF81000022003E005208DF8A7
:10759000100004208DF81100002404AF0FE0072034
:1075A0008DF810000620F5E73B5D05AA4146304600
:1075B000FFF7A8FF641CE4B20546022C04D2BDF814
:1075C00014000028F0D003E0BDF81400002812D009
:1075D00080B2064400240BE00CE030199DF8042032
:1075E00006A9FEF76EFF48B19DF80400204484B25E
:1075F000AC42F2D300200AB0BDE8F0810120FAE7E6
:1076000070B540B10C4D297839B1044605F01CF82D
:1076100028B1002070BD0E2070BD082070BDE86844
:10762000062807D20549226801EB8001401C0A6048
:10763000E860EEE7042070BD4030002010340020E8
:1076400010B558B103684BB142683AB10449002003
:107650000124C8600C70C1E9013210BD0E2010BDBC
:1076600040300020002827D0002925D0134A127866
:10767000002A21D00A460188112911D0302907D0CB
:10768000322909D0332917D1011D104604F0C4BA9C
:10769000011D104604F03CBC011D104604F0C8B8A2
:1076A0008088B2F8CA12884206D1002082F8C80247
:1076B0004FF6FF70A2F8CA02704700004030002069
:1076C00048B1084A137843B1D26832B190F8C82261
:1076D0002AB1112070470E2070470820704701F032
:1076E00079B800004030002038B50288011D0446FA
:1076F0001F2A51D016DC102A28D0334B334D0320DB
:10770000EB1ADB0800EB0340112A37D0132A3DD0D7
:107710001B2A51D1097902294ED1BDE838402CA14C
:1077200002F070BF2849294B0420591AC90800EB00
:107730000140212A34D03B2A3FD0562A3CD12CA1EB
:1077400002F060FFA088132176DF11E0A1880022FB
:107750002D4800F029F908B1FFF7E6FC072000F0FA
:1077600027FC08B1FFF7E0FCA1882848FFF7A8FF35
:10777000002821D0BDE83840FFF7D6BC0B790A8835
:1077800001B023A1BDE8304002F047BF0023A0882C
:107790001A4685217FDFEBE731F8040B75DFE7E759
:1077A00027A102F02FFF00200090A08869468FDFFC
:1077B000002801D0FFF7B8FC38BD26A102F022FF57
:1077C000A088132176DFD3E7F0E4020068E5020029
:1077D000436F6E6E656374696F6E20526571756577
:1077E00073742074696D6564206F75742E000000D9
:1077F00047415454205365727665722054696D6513
:107800006F75742E00000000A83100202C2A002083
:10781000446973636F6E6E65637465642E20636F75
:107820006E6E5F68616E646C653A20307825782CE6
:1078300020726561736F6E3A203078257800000001
:107840005048592075706461746520726571756562
:1078500073742E004741545420436C69656E742044
:1078600054696D656F75742E0000000010B51A4CD8
:107870000188606810290ED011292BD1401E60604C
:1078800028D1FFF79EFB002824D02168002921D0B1
:10789000BDE810400847D0B900210122084600F099
:1078A00065FB08B107280FD107220221012000F053
:1078B0005DFB08B1072807D104220221002000F057
:1078C00055FB20B1072802D0216801B188476068C4
:1078D000401C606010BD00003830002070B50646C6
:1078E0001A481B4A0D46801AC0080978032202EB89
:1078F000004459B1012922D0022926D1204615A1E0
:1079000002F080FEBDE8704005F04CB9204615A19C
:1079100002F078FE698805F10E02304600F044F866
:1079200008B1FFF701FC304600F06EF908B1FFF72F
:10793000FBFB2046BDE870400FA102F063BEA989A1
:10794000A868BDE8704000F095B970BD68E5020018
:10795000F0E40200446973636F6E6E65637465647E
:107960002E000000446973636F7665727920636F3F
:107970006D706C6574652E00436F6E6E6563746523
:107980006420746F20646576696365207769746824
:10799000204E6F72646963205541525420536572C2
:1079A000766963652E00000050B141802AB153888A
:1079B000C3801388838092880281406901F046BEAB
:1079C0000E20704730B5154B0D4604000FCB85B027
:1079D0008DE80F001FD0F5B1A868E0B121466846D8
:1079E00062DF002815D120788DF812004FF6606014
:1079F000ADF810004FF6FF7060802868E06068689E
:107A000020610020A0802081A868606104A8FFF7A1
:107A1000F7FD05B030BD0E20FBE70000ACD602003C
:107A200030B5024685B008002DD0002A2BD0418801
:107A30004FF6FF74A14226D09388994223D115882E
:107A4000112D22D0392D1ED1818800291BD05389B8
:107A50008B4218D1C168002915D001218DF8001082
:107A600002F110010291D189ADF80C10C26869468B
:107A700090470C480C49401AC008042101EB004013
:107A80000AA102F0BFFD05B030BD8B42FBD1C16839
:107A90000029F8D002218DF800104480C2686946A0
:107AA0009047F0E710E50200F0E40200436C6965DE
:107AB0006E742073656E64696E6720646174612EF4
:107AC0000000000030B585B00C460546142168461C
:107AD000FEF7E5FC207804F10E01002835D1A088DE
:107AE000A0F57E42603A30D1A0792A7890422CD11C
:107AF00000221AE002EBC20031F8103003F29F13AB
:107B0000B3F5803302D0012B0ED105E001EB40002C
:107B10000089ADF8120007E001EB40000389ADF8E1
:107B20000E304089ADF81000521C207A9042E1D806
:107B3000E868002809D06088ADF8020000208DF8C0
:107B40000000EA6869462846904705B030BD00004D
:107B500070B588B015460E46040012D02021684644
:107B6000FEF79DFC19481A49401AC008022101EB92
:107B70000040202D07D917A102F044FD072008B0CE
:107B800070BD0E20FBE76288A2F57F43FF3B18D053
:107B9000154ACDE9022401208DF800002289ADF8B4
:107BA00012208DF81010ADF816500022ADF81420F8
:107BB00006968DF8110062886946606901F0A2FDA1
:107BC000DDE70AA102F01EFD0820D8E710E502005B
:107BD000F0E40200436F6E74656E7420746F6F2062
:107BE0006C6F6E672E000000358C0200436F6E6E66
:107BF000656374696F6E2068616E646C6520696E80
:107C000076616C69642E000010B58AB058B3418863
:107C1000A1F57F42FF3A28D0C18831B30446202124
:107C20006846FEF73CFC01218DF8201000208DF8FD
:107C300021000F4ACDE902248DF80010E288ADF84A
:107C400012200222ADF81620ADF814008DF81010A5
:107C500008A88DF81110069062886946606901F0E5
:107C600051FD0AB010BD0E20FBE70820F9E7000027
:107C7000358C02002DE9F0410F46064619481A4995
:107C8000401AC408042000EB0440054617A102F086
:107C9000B9FC28463A46314602F060FC0025012036
:107CA00000EB04480FE0705DFFF73CFB040009D0D7
:107CB000112CF8D040462A4610A102F0A7FC20461D
:107CC000FFF732FA6D1CBD42EDD3F01910F8010C2C
:107CD0000D2804D10A20FFF725FB1128FAD0BDE8B2
:107CE000F081000068E50200F0E40200526563657F
:107CF0006976696E6720646174612E006170705FDF
:107D0000756172745F707574206661696C6564205A
:107D1000666F7220696E646578203078253034781B
:107D20002E0000000149085C70470000D0D5020019
:107D30000649095C4FF0A040D0F81005C84010F08B
:107D4000010000D0012080F001007047D0D5020072
:107D50002DE9FC410646C0074FF000050ED0104F3C
:107D600000240122385D009500231146019502F0A0
:107D70004FF9641C042CF4D300F046F8B0070DD57D
:107D8000074E0024361D0022305D03230095114666
:107D9000019502F03DF9641C042CF4D3BDE8FC818C
:107DA000CCD5020007490B5C4FF0A041D1F8042567
:107DB0000120984020EA0203C1F808351040C1F8BC
:107DC0000C057047CCD502000249085C012102F085
:107DD000C4B90000CCD502000249085C002102F0C1
:107DE000BCB90000CCD502000649095C4FF0A040A8
:107DF000D0F80405C84010F0010000D0012080F048
:107E000001007047CCD5020010B500242046FFF7D2
:107E1000DBFF641C042CF9D310BD10B500242046F0
:107E2000FFF7DAFF641C042CF9D310BD10B502462D
:107E3000064B4FF0FF3000215C5C944201D10846B4
:107E400010BD491C0429F7D310BD0000D0D5020095
:107E500070B50C4E0C004FF0000530600BD00120C7
:107E600000F06AF808B1022004E0002000F064F895
:107E700000B10B202070706810B9FFF7A2F805461A
:107E8000284670BD3830002010B5002000F0CAF937
:107E900008B1062806D1012000F0C4F908B106286F
:107EA00000D1002010BD00002DE9F0470D468146AD
:107EB000FFF7BCFF0446042836D2DFF874801B4865
:107EC0001C4EA8F10C0725B3012D0ED0022D2BD18D
:107ED00004EB440030444578002D25D0B9680029D2
:107EE00022D02846BDE8F047084704EB4401755C02
:107EF0000E44717849B10E4A4FF48041093A8068C6
:107F0000FFF786F908B987F80390B17808F80410EC
:107F1000E2E78068FFF794F904EB4401314418F874
:107F200004008D78A842D7D0BDE8F087D4D50200F0
:107F300034300020E0330020042801D2FFF7F8BEDF
:107F400000207047042804D00A280CD1002002F039
:107F50001BBD05481321408876DF082803D0002880
:107F600001D0FFF7E1B87047A831002070B50023B9
:107F7000042810D20D4D00EB4004012A02D1012942
:107F80000CD00022094E00EB4000304461B10129C1
:107F900006D0022906D00723184670BD0E30C2B2A3
:107FA0002A55F9E74270F7E78270F5E7E0330020E1
:107FB000044A014600201279D20702D0084600F098
:107FC0004DB870472830002070B506461E48002482
:107FD000C0E90161B00720D50025012211462846DD
:107FE000FFF7C4FF6D1C0446042D02D2002CF4D010
:107FF00013E094B940F2333204211448FFF712F829
:1080000004000AD1FEF7FCFF040006D10F48104A15
:108010000021001FFFF7C2F80446F00712D001202C
:10802000FFF796FE74B909480A4A00210C38FFF799
:10803000B5F8040006D10548074A01210838FFF7C2
:10804000ADF80446204670BD28300020E0D502007F
:1080500031830200C1900200F96F02002DE9F05F48
:108060006E4C054600266078B34618B184F801B01E
:1080700001F00EF86A4F4FF47A694FF4C87A4FF066
:108080000108182D69D2DFE805F00C1313384754A6
:10809000696E727B727BC58484848484B3B6B9BCF8
:1080A000C5C500F0F5FF3868FFF7CAF806465CE082
:1080B0000020FFF799FE00284FF0000008D0FFF7DE
:1080C00083FE022D02D14FF4E16008E0484606E04D
:1080D000FFF782FE022D01D1C82000E05046410C7E
:1080E000C0034FF47A72801841F1000125705200EC
:1080F0000023FEF777F901462AE00020FFF774FE1F
:1081000000284FF0000004D0FFF75EFE4FF44870E7
:10811000E5E7FFF761FEDFE70020FFF765FE0028D7
:108120004FF0000002D0FFF74FFECFE7FFF754FEFD
:10813000D4E70020FFF758FE00284FF0000002D0DF
:10814000FFF742FE01E0FFF747FE257040F6CD4104
:1081500000223868FFF75CF8064646E00020FFF78B
:1081600021FE257008E0002051E025703DE084F8F4
:1081700001800120FFF716FE002240F26661E8E769
:1081800084F801800120FFF70DFE00224FF400511A
:10819000DFE77868FFF754F80646D5F1110000D004
:1081A0002EB10220FFF710FE84F802B01DE0012876
:1081B00016D980B2C8214843C117C90341EA5041CA
:1081C000C0034FF47A72801841F10001520000237D
:1081D000FEF708F9014600227868FFF719F806460D
:1081E0000220FFF7F9FD84F802803046BDE8F09FD9
:1081F00000F04EFFB9E700F04BFFB4E700F048FF96
:1082000004E000F045FF0020FFF7E6FD0120FFF746
:10821000E3FDAAE7FFF701FEA7E7000028300020F2
:10822000D4D50200012105F09BB900002DE9F84FDB
:108230000546861C00208DF8000091460F464FF041
:10824000010A6846FFF798F81B4C04F21C48606866
:108250003860D4E90101194F401A3968081A0EE054
:108260000121404601F0E9F800F040FF0146404698
:1082700001F0E3F8D4E90101401A3968081A401CFA
:108280008642EDD8B9F1000F03D0052065F38910BF
:1082900002E0062065F39F5061683A68114004EBE4
:1082A0008101C8606068304460609DF80000FFF79D
:1082B00087F85046BDE8F88F50370020EC3000209A
:1082C00070B50D4604460A2902D10D21FFF7F8FFCB
:1082D000A0682268411CA1601554D4E901018142C3
:1082E00004D32046BDE8704001F099BD70BD000088
:1082F000044881684068814201D101207047002014
:108300007047000050370020034630B50748002171
:108310000478426806E000BF02EBC10005789D4288
:1083200003D0491CA142F7DB002030BD7030002093
:1083300000780221FFF7B8BD05494FF0FF32082849
:1083400041F8202002D3084480F8482070470000FC
:108350003C340020F0B54FF0FF3512B10023082661
:1083600001E008230C260C4C05E000BF54F82370F4
:108370007F1C04D05B1CB342F8D32846F0BD2618FE
:108380005DB286F8305044F82310002AF5D1E11888
:1083900081F84800F1E700003C340020024908441D
:1083A00090F93000704700003C34002030B589B0AF
:1083B0000D46044620216846FEF771F894F8C6027F
:1083C000002300EB8001C1EB801094F8C51204EB90
:1083D000400041B1491EC9B201EBC10100EB4101AE
:1083E000498A491C00E0C188008961F30F0360F3EA
:1083F0001F4303208DF800000548CDE9020405481D
:1084000004932A466946806801F07CF909B030BDC2
:10841000858702004030002070B5084C050009D067
:1084200010342168002907D0086820604968284670
:108430008847F6E70834F4E770BD000028340020D0
:10844000054A012120B1012805D19170FFF7E4BF51
:1084500051700020FAE770472834002010B5D0E9A9
:108460000234D1E90220D11AA04101D3012010BD6C
:10847000002010BD10B502460020138806E05468A5
:1084800034F810408C4203D0401C80B28342F6D8AE
:1084900010BD0000F0B50C4606461E481E4987B0C8
:1084A000401AC708042000EB0740334622461BA1B0
:1084B00002F0B3F8002004900590ADF81040019050
:1084C0000290ADF8124001AA04A9304690DF0500E1
:1084D0001DD002F091FD0346012000EB0740044649
:1084E00032461A4902F099F8BDF8042012B9BDF8D5
:1084F000060028B1BDF80630204615A102F08DF81F
:10850000BDF808201AB12046214902F07FF807B0D3
:108510002846F0BDF8E40200F0E402005570646102
:1085200074696E672064617461206C656E6774683D
:1085300020746F202575206F6E20636F6E6E6563EB
:1085400074696F6E20307825782E0000B4DB02004D
:10855000546865207265717565737465642054583C
:108560002F5258207061636B6574206C656E677460
:108570006820697320746F6F206C6F6E672062795A
:108580002025752F2575206F63746574732E000088
:1085900000DC020001460148FFF794BAA831002030
:1085A0002DE9F04389B00F460546914620216846E3
:1085B000FDF775FF95F8C60295F8C54200EB8001FE
:1085C000C1EB801005EB400604EBC40006EB400154
:1085D0003279601C0A31904232D108AB0022284621
:1085E00000F024FD78B310E0401EA04201D100202D
:1085F00004E004EBC40006EB40001C308046024659
:1086000008AB284600F012FD90B10020387004201D
:108610008DF8000008984A46CDE903500C480290B6
:108620000C486946806801F06DF809B0BDE8F08338
:1086300095F8C5024146401C641C85F8C502E4B2A9
:108640003079A042D0D8012038700020EDE700003A
:10865000858702004030002070B500240F4D10E0E7
:10866000686800EBC406307802F0F0FD71780129EB
:1086700001D0012100E000214140307800F046FAAD
:10868000641C28788442EBDBD5E90401084303D05D
:10869000BDE8704004F08EBC70BD0000703000205A
:1086A00030B59FB00C4605467C216846FDF7F7FEC5
:1086B000ADF8024003208DF80000044801954168A0
:1086C000002901D0684688471FB030BD40300020E7
:1086D0002DE9F041044690F8C602884600EB80017F
:1086E000C1EB801004EB40061746304603F0ACFFA8
:1086F000050042D0D4F8CC0206283ED204EBC010CC
:108700007622A0F8D272D4F8CC02314604EBC01025
:1087100000F53570FDF7AAFE0026B8F1000F06D06F
:10872000D4F8CC0204EBC01080F8D06206E0D4F894
:10873000CC12022004EBC11181F8D002D4F8CC0293
:1087400004EBC010C0F84C53D4F8CC020C4D401CC4
:10875000C4F8CC02E96888420FD12746002407E01C
:1087600007EBC41101F53470D1F84C138847641C31
:10877000E8688442F4D3C7F8CC62BDE8F081000019
:1087800040300020F0B515469FB0002281F8C82285
:10879000074691F8C6020C4600EB8002C2EB80103F
:1087A00001EB400003F050FF060009D07C2208498D
:1087B0006846FDF75BFEADF8025068460197B0478A
:1087C0001FB029462046BDE8F040FFF769BF000012
:1087D00000D60200F0B50D4689B004464FF4BA61E8
:1087E000FDF75DFE20216846FDF759FE1B4E294628
:1087F000B06800F02BFF00282DD1A4F8CA52C4F8AD
:10880000CC0284F8C70284F8C60284F8C502144872
:1088100015492B460068206012482288401AC0087B
:10882000042101EB0040114901F0F7FE022001276D
:108830008DF80000ADF810702068CDF812000C48DB
:10884000CDE902042A466946B06800F05BFF0028C3
:1088500001D184F8C87209B0F0BD0000403000209A
:1088600010340020F0E40200F0E4020024DB0200F7
:108870008587020010B50021024800F0E9FD80F371
:10888000100010BD6C3B00204FF480328A4001681C
:10889000C1F848230068C0F8082370474FF4A0725D
:1088A00002EB810189B200F0A1B92DE9F041054642
:1088B0000E464FF4A07000EB860081B228684FF49A
:1088C0008034B440984622F07F47C0F808432868B7
:1088D000C0F84843286802F042F9286800EB860097
:1088E000C0F840752868C0F84443B8F1000F02D0C2
:1088F0002868C0F80443BDE8F0810068D0F804059A
:108900007047000070B54379234C44F82320427926
:10891000231D03EBC202224C1579204A121BD408F6
:108920002DB10825022000EB04401EA130E00568AF
:108930000A88C5F8082590F904208978002A4FEAAA
:10894000411104DB02F1E02282F8001405E002F09C
:108950000F0202F1E02282F8141D90F904100122A6
:10896000002909DB01F01F0502FA05F54909890014
:1089700001F1E021C1F800514179002503EBC1016B
:108980000A71417943F83100032000EB04400EA145
:1089900001F038FE284670BDC830002050E50200C6
:1089A000F0E4020052544320696E7374616E636593
:1089B00020616C726561647920696E697469616CAB
:1089C000697A65642E0000005254433A20696E694A
:1089D0007469616C697A65642E00000090F9040086
:1089E000002809DB00F01F020121914040098000AE
:1089F00000F1E020C0F8001270470A46022100F0A2
:108A00007BB84FF4827100F0F1B800680121016079
:108A1000704700680121416070472DE9F05F07460B
:108A20000C464FF4A07000EB84001FFA80FA3868FF
:108A30004FF48036A6409B4622F07F45C0F848633D
:108A40003868C0F808633868D0F8048500EB840201
:108A5000D2F84095C2F840855146386802F07FF858
:108A6000A9EB080020F07F40012806D1102002F079
:108A70002FFB5146386802F072F83868D0F8048548
:108A8000C0F84463A5EB080121F07F413868012953
:108A900000EB840010D0C0F840553868D0F80415B9
:108AA0006FF07F4C6A1A521E22F07F42ACEB0B0330
:108AB000934217D362B118E06D1CC0F840551020E6
:108AC00002F006FB3868D0F8040540450AD10CE0F6
:108AD00000EB84006D1CC0F840553868D0F80405E0
:108AE000884202D00D20BDE8F09F01223146384671
:108AF00000F002F80020F6E70368C3F84413002AE8
:108B000002D00068C0F80413704700002DE9F84F48
:108B10000E463449804601EB5001C007097801D068
:108B20000F0901E001F00F074FF000094246012054
:108B30004946FDF788FCDFF8B0A004460D46052F36
:108B40004ED2DFE807F003161B282C00002E47D07A
:108B50000121404604F048F98DF800906846FEF780
:108B60000BFC5046D0E904120C431543CAE90445F6
:108B700032E00EB1022114E0002112E04EB10321D7
:108B8000404604F031F94046BDE8F84F012104F0B9
:108B9000D7BC012105E0002E22D1042101E02EB135
:108BA00003214046BDE8F84F04F01EB900214046BD
:108BB00004F01AF90021404604F0C2FC8DF8009040
:108BC0006846FEF7D9FB5046E243D0E904341A4028
:108BD00024EA0501CAE904219DF80000FEF7F0FB34
:108BE000BDE8F88F083500207030002010B500680F
:108BF00042581AB101F0B3FF012010BD002010BD92
:108C0000826883881A4003689A5C0A708168491CEC
:108C100081607047C26883881A4003689954C168AC
:108C2000491CC160704710B50446C0B2FEF77AFB1C
:108C3000204610BD70B505460C4609480949401A42
:108C4000C008042101EB004007A101F0DFFC21690D
:108C5000002903D02846BDE87040084770BD0000D9
:108C600010E50200F0E40200412047415454204343
:108C70006C69656E74206572726F72206861732012
:108C80006F63637572726564206F6E20636F6E6EC2
:108C90005F68616E646C653A2030582558000000AA
:108CA00070B508880D46A0F52061773916D10C48BB
:108CB0000C49401AC108032000EB01440AA12046D8
:108CC00001F0A0FCA88810A1C01E82B20D48134676
:108CD00002802046BDE8704001F09FBC70BD0000DE
:108CE00068E50200F0E40200415454204D54552040
:108CF00065786368616E676520636F6D706C65741D
:108D000065642E00282A0020426C65204E555320B1
:108D10006D61782064617461206C656E6774682091
:108D200073657420746F20307825582825642900D5
:108D300010B50949094800F002FC08B1FEF7F4F942
:108D40002321064800F0EFFB002803D0BDE81040C7
:108D5000FEF7EAB910BD0000A18C0200C03100206E
:108D600070B50C4601F11005C98A102901D90920F6
:108D700070BD01F064FD606088B1EA880023A968D5
:108D800001F0C3FD074808496268401AC008042181
:108D900001EB004005A101F039FC002070BD04206A
:108DA00070BD000000E50200F0E40200506F696E43
:108DB00074657220746F20616C6C6F63617465649C
:108DC000206D656D6F727920626C6F636B3A202540
:108DD000702E000070B50C4601F1100589690988F4
:108DE000102901D9092070BD891C01F028FD60609F
:108DF000C0B100230222A96801F087FDA868E968D4
:108E000002230288606801F080FD07480749626814
:108E1000401AC008042101EB004005A101F0F6FB57
:108E2000002070BD042070BD00E50200F0E40200E7
:108E3000506F696E74657220746F20616C6C6F6323
:108E400061746564206D656D6F727920626C6F630B
:108E50006B3A2025702E000010B50B48FFF74DFD32
:108E6000094A083AD2E90434C018D2E9063244F17A
:108E70000001C31A71EB020204D24FF08072801815
:108E800041F1000110BD00009030002010B5C0B2CB
:108E9000FFF73AFA0446007802F0D8F90146607804
:108EA000012801D0012000E0002090EA010F08D045
:108EB0000449D1E90401084303D1BDE8104004F09E
:108EC00079B810BD703000202DE9FC5F0E0083469C
:108ED000DDE90C47C6F1000098469246814600D471
:108EE0000846012503E000BF90FBFAF06D1C5045D9
:108EF000FADAA84500D9454624B1002E01DB7807EF
:108F000000D5641EB80702D5B8F1000F0AD0F807E3
:108F100008D13CB1A54205D220215846641EFFF776
:108F2000CFF9F6E7002E02DA4E462D2102E078074F
:108F300003D52B215846FFF7C3F907F00300022899
:108F40000BD1B8F1000F08D13CB1A54205D23021B8
:108F50005846641EFFF7B4F9F6E7CDE900474346EB
:108F600052463146584604F091FABDE8FC9F000095
:108F700070B50D46044600684FF4887102F05CF845
:108F80004FF49071206802F057F84FF49271206806
:108F900002F052F84FF4A271206802F04DF84FF43D
:108FA000AC71206802F048F820681249C0F8041338
:108FB0002068690740F30730090E002804DB00F140
:108FC000E02080F8001405E000F00F0000F1E02040
:108FD00080F8141D206840F30730002809DB00F0FA
:108FE0001F02012191404009800000F1E020C0F8FB
:108FF000001170BD100342000246002012685307A2
:1090000013D502F00300012802D002280CD105E09C
:10901000C2F383100B68801C184404E00223086824
:1090200003EB9252104408600120704710B5098983
:109030002AB1D088491C814218D1002010BD90F877
:10904000C62202EB8204C4EB821200EB42021289B8
:109050009142F2D0491C198090F8C61201EB8102AE
:10906000C2EB811100EB4100008902E01980D08839
:10907000401E5880012010BD007DC0F3C1000128B2
:1090800003D0032801D00020704701207047000062
:109090000A4810B5807860B1002401E0022C06D0A7
:1090A0002046FEF791FE641C042CF7D310BD032468
:1090B000F6E7BDE81040FEF7A7BE0000283000200C
:1090C00003480179C90702D00078FEF7C7BF70478F
:1090D00028300020232101801721418000210171C7
:1090E0004171272181711B21C17170472DE9FF4119
:1090F0000026244800F09EF92248001F074600F091
:1091000099F9214C2149A06800900D6800E0009871
:109110006946284004EB80000C30FFF76DFF002803
:10912000F5D101AA009901EA050304EB8303491C68
:10913000DB6842F82030401C00910228F2D30198ED
:1091400000F0030001280BD0022810D10198032160
:1091500001EB90500099BDF80A6001EB900005E02A
:109160000198BDF80A60C0F38310084400903846A7
:1091700000F05DF908B10098A06004B03046BDE889
:10918000F0810000683B002050370020EC300020C8
:109190008AB04FF48041002001F0B6FA08B1FDF723
:1091A000C3FF01F0B1F8FEF705F808B1FDF7BCFF09
:1091B000182237496846FDF759F93648354906906F
:1091C00020202031CDE9070109900723324A06A962
:1091D0006846FEF755F808B1FDF7A6FF2F490120B4
:1091E000FEF7F2FE08B1FDF79FFF69460020FEF78B
:1091F0002FFE08B1FDF798FF2A4C2948CDE900045D
:1092000000256846FEF71CFA08B1FDF78DFF01F056
:1092100085FB08B1FDF788FF01F010FE08B1FDF7EE
:1092200083FF69460120009501F0AAFC08B1FDF713
:109230007BFF684601F03CFD08B1FDF775FFFFF7C5
:1092400077FD194800901948CDE901041148694695
:109250004030FEF7B7FB08B1FDF766FF03F076FC80
:1092600013A0FDF74BFC1B481B49401AC008032103
:1092700001EB004019A101F0C5F903F093FC00BF18
:1092800001F050F80028FBD101F05CFBF8E700008A
:10929000B4D502006831002021D00200457F0200D1
:1092A00095850200FC2F0020DD78020015B8020031
:1092B000424C4520554152542063656E7472616C76
:1092C000206578616D706C6520737461727465647B
:1092D0002E0D0A0068E50200F0E40200424C452031
:1092E000554152542063656E7472616C20657861DB
:1092F0006D706C6520737461727465642E0000007B
:109300002DE9F047C5881E1DB6FBF5F78946B6FB6B
:10931000F5F1044605FB176C407916686843DDF8E3
:1093200020A0F718001F874200D9C61A166001E076
:109330002468491E0029FBD1A5EB0C078846B742DB
:1093400016D818E004EB0C00001D09EB0803BAF175
:10935000000F3A4602D00146184600E01946FDF7D4
:1093600085F82468F61B4FF0000CB844B54201D9CB
:10937000374600E02F46002EE4D1BDE8F08700001C
:1093800030B5024651B101F0D3F90021074C08E095
:1093900034F821301568AB4202D11160002030BD95
:1093A000491C8142F4D3052030BD000000000000BC
:1093B00010B531B1B2FBF3F403FB14241CB1092046
:1093C00010BD0E2010BD01600021416081608281CE
:1093D000C381084610BD70B50C460546FCF71AFF60
:1093E000002802D021882868084470BD10B50A887A
:1093F00049888A4203D1FCF74FFF012010BD0020AD
:1094000010BD70B50C460546FCF729FF002802D0B8
:1094100061882868084470BD10B50A8849888A4266
:1094200003D1FCF713FF012010BD002010BD002167
:1094300000F009B8012100F010B808B56A46FCF741
:1094400080FF009808BD08B56A46FCF760FF08BDBC
:1094500008B56A46FCF742FF08BD08B56A46FCF746
:1094600049FF009808BD08B56A46FCF777FF0098E9
:1094700008BD38B5044600258DF800506846FDF754
:109480007BFF21686268086890420ED9401E086020
:109490000178238AE26801FB0325227A2168101AE9
:1094A000C0B20A79824200D208719DF80000FDF72F
:1094B00087FF284638BD38B5054600208DF80000E6
:1094C0000C466846FDF758FFE868298A201AB0FB69
:1094D000F1F12A681068431C136001709DF80000C8
:1094E000FDF76EFF38BD10B530B1017A42680368F0
:1094F000891AC9B21A6006E00E2010BD03681A6806
:10950000541C1C601170491EC9B2F7D200680021BA
:109510000171084610BDC20800F007030120895CF4
:1095200098400840704728B1A1F117020D2A03D3D3
:10953000072070470E20704741800020704710B50B
:1095400060B10161232120F8021B20F8021B2721B2
:1095500000F8021BFFF7BEFD002010BD0E2010BD5D
:1095600070B585880C46002D4FD1018824291FD065
:1095700006DC102909D011290CD0232921D11CE0A7
:109580003A290BD055291CD10DE00146204602F0A6
:10959000F7F916E0A01DFFF79DFD12E001462046F9
:1095A00002F060FC0DE00146204602F0B5FB08E049
:1095B0000146204602F068FA03E00146204602F028
:1095C000EDFAA07A002820D0E1882846A5DF0F49CF
:1095D0000F4A0126891ACD0858B1112815D001F07B
:1095E0000BFD024606EB0540BDE8704009A101F005
:1095F0000DB80023A372E6720420E28800EB054058
:10960000BDE87040104901F008B870BDF8E40200F0
:10961000F0E4020073645F626C655F676174746399
:109620005F65786368616E67655F6D74755F7265AD
:10963000717565737428292072657475726E65641E
:109640002025732E000000006CDB02002DE9F041A4
:10965000884604004FF0000519D002F089FF41460A
:109660002046FEF707FF218881422AD119481A496E
:109670000427401AC00807EB0040424617A100F03B
:10968000C5FF002005464FF6FF76218809E00E2031
:10969000BDE8F081626832F81020B24206D1401C69
:1096A00080B28142F6D8206901F016F900202288A4
:1096B0000BE0636833F81030B34204D1626822F8DB
:1096C00010802846E4E7401C80B28242F1D8384638
:1096D000DEE7000000E50200F0E402005265676981
:1096E00073746572696E6720636F6E6E656374690B
:1096F0006F6E2068616E646C653A20307825303476
:10970000580000002DE9F0470C4605462D482E492B
:109710009246401AC108042000EB01404FF00008B7
:1097200006462AA100F06EFF002D48D0002C46D03E
:10973000284602F01DFF51462846FEF79BFE217881
:10974000062902D22988814202D10720BDE8F0878C
:10975000A96800EB800701EB870001F07AF930B1CE
:109760005146204602F0DAFF08B14046EEE7217884
:10977000DFF87C9059F821202AB12869F8B12146F8
:1097800090470028E2D1A868214600EB870001F04D
:109790007FF95FEA00080BD0217859F8210038B131
:1097A000606801F07CF8304612A1626800F02EFF7C
:1097B000A868514600EB870002F094FDD5E70E2023
:1097C000C4E7000000E50200F0E4020041646469BF
:1097D0006E67206974656D20746F207468652072EF
:1097E000657175657374207175657565000000009D
:1097F00094D60200506F696E74657220746F206693
:1098000072656564206D656D6F727920626C6F633F
:109810006B3A2025702E0000F8B505000C4620D0CC
:10982000002C1ED02888112806D0A0F130011F2955
:1098300002D950381F2814D8AE8820463146FEF78A
:1098400019FEADF80000218881420AD0298811292B
:1098500008D0A16800EB800001EB8000314602F0E7
:1098600041FDF8BD62684FF6FF7122F8101069469D
:10987000E06801F00DF9F8BD2DE9F041044600F172
:10988000140600F10A07857C007A86B001F102080F
:10989000002825D08BDF14216846FCF700FE2B46FC
:1098A0003A46314640468CDF05460F480F49401A7C
:1098B000C108042000EB01460DA1304600F0A2FED5
:1098C00005208DF8000030462A460CA1019500F0D5
:1098D0009DFE002D04D0616A002901D068468847AA
:1098E00006B0BDE8F081000008E50200F0E40200E7
:1098F000436F6E6E656374696E670000436F6E6ED2
:10990000656374696F6E207374617475733A202592
:1099100064000000282101820621418118218181F3
:109920000021C1817047017DA022C282028321F003
:1099300018010022428341F00401017501214175A3
:10994000704700002DE9F04128B122B1032904D06D
:109950000720BDE8F0810E20FBE7034610F8045F06
:1099600004260DB13046F4E70021B2F800700C4631
:1099700033F821C0BC4501D12046EAE7491C11F06B
:10998000FF01F5D003EB85016D1C057010680860C0
:10999000054806491288401AC00806EB004004A199
:1099A00000F034FEE8E7000008E50200F0E4020001
:1099B00041646465642066696C746572206F6E2012
:1099C000555549442025780018B1002141710846B9
:1099D00070470E20704710B50B46040002D0980760
:1099E00002D009E00E2010BD580705D4D80603D4D4
:1099F000180701D4072010BD2046FFF7E5FF5807E0
:109A000001D501206071A271002010BD70B50D4616
:109A1000040010D00026266066606262EDB12879ED
:109A20002072287BA074296839B10E2204F1140039
:109A3000FCF71CFD04E00E2070BD2046FFF773FF0D
:109A4000A86830B10168C4F80A104068C4F80E0074
:109A500009E02046FFF75EFF05E0FFF764FF2046C0
:109A6000FFF758FF267204F12800A0641F20A4F815
:109A70004C00002070BD2DE9F04F044689B0002055
:109A800088460746069014216846FCF708FD04F155
:109A9000140004902046FFF7EFFA010004F148009B
:109AA000059011D002208DF80000CDF80480616A85
:109AB00068468847002005998ADF41462046FFF71F
:109AC000DBFE09B0BDE8F08FA07900210791617934
:109AD000834621B301210691824694F80490002622
:109AE000B8F81C003546089012E004EB8502D8F85F
:109AF00018000899FDF729FD28B1761CF6B2BAF1D5
:109B0000000F0DD002E0BAF1000F06D16D1CEDB2CE
:109B10004D45EAD3BAF1000F02D04E4501D009E01D
:109B200046B19DF8080040F004008DF808000120BF
:109B30007F1C0790CDF80480BBF1000F02D006987F
:109B4000874203D0079830EA0B0007D000208DF839
:109B5000000041462046FFF78FFE02E003208DF80B
:109B60000000616A09B168468847002005998ADFCC
:109B7000A7E70000F0B50A46014601F108030C1DF5
:109B8000098885B0104602F11405102927D01B2939
:109B900007D01D2936D105B01946BDE8F040FFF7C2
:109BA0006ABF064614216846241DFCF778FC20781D
:109BB000012827D1144815490427401AC00807EB8B
:109BC000004013A100F01EFD706A00281AD08DF825
:109BD0000070049520788DF80400716A10E0064644
:109BE00014216846FCF75BFC06208DF80000201D60
:109BF00001902088ADF808000495716A002901D011
:109C00006846884705B0F0BD08E50200F0E40200B0
:109C1000424C455F4741505F5343414E5F54494D6D
:109C2000454F55540000000030B585B0040025D0E4
:109C300014216846FCF733FC8BDF2046FFF71CFA43
:109C4000012528B1616A19B18DF80050684688472E
:109C500004F1480104F114008ADF04460C480D4960
:109C6000401AC108082C0BD054B105EB0140224624
:109C700009A100F0CBFC204605B030BD0E20FBE76B
:109C8000042000EB01400DA100F0BCFC0020F3E734
:109C900008E50200F0E4020073645F626C655F67D0
:109CA00061705F7363616E5F73746172742072655B
:109CB0007475726E65642030782578005363616E28
:109CC0006E696E670000000000F1804000680028A7
:109CD00000D00120704708B500F1804000210160EC
:109CE0000068009008BD000070B50D4C012520787B
:109CF00008B185260EE00020A06060602061E06071
:109D0000084801F0BDF9064601F0E4F808B901F091
:109D1000A1F9257001F096F900B1A570304670BD2B
:109D2000283400204184020038B500258DF8005009
:109D30006846FDF721FB084CE068401EE060E068E3
:109D400028B901F07FF910B901F0AAF9A5709DF8C2
:109D50000000FDF735FB38BD28340020F0B505467E
:109D60000478154889B0164640F82420124A08693C
:109D7000121DA2F1080742F82400487F385520221E
:109D80006846FCF773FB04942878385C48B10EB140
:109D90000A4A00E000226946281D01F01FFC09B0B4
:109DA000F0BD0EB1064A00E00022694605F10C0044
:109DB00001F0C8FAF3E700005430002049D3020054
:109DC000EDD1020030B40378054CE35C1BB130BC2C
:109DD000001D01F039BC30BC0C3001F01DBB00008F
:109DE0005030002030B40378054CE35C1BB130BC2C
:109DF000001D01F0ABBC30BC0C3001F083BB000097
:109E0000503000200FB408B50399002904D004AAEB
:109E100000926A4600F00FF801B05DF814FB10B52F
:109E200082680446002A05D0D4E9040321689847D3
:109E30000020A06010BD2DE9FC4791460C00804633
:109E400076D014F8011B39B125290ED04046FEF713
:109E500037FA20780028F4D198F80C00002867D051
:109E60004046BDE8FC47FFF7DABF00200122217819
:109E70002B291BD02D2902D0302908D102E040F037
:109E8000010001E040F00200641C002AEFD100252F
:109E90002A290ED02178A1F130020A2A11D205EB2D
:109EA000850201EB4205641C303DF1E740F00400FF
:109EB000EAE7D9F800100B1DC9F800300968641CE6
:109EC0000D44217800232E290BD114F8011FA1F194
:109ED00030020A2A05D203EB830201EB4203303B36
:109EE000F3E76C290DD068290BD0692921D00BDC50
:109EF000252918D0582931D063290ED0642915D1CD
:109F000017E014F8011FECE7702969D0732932D0EB
:109F100075291BD0782909D120E0D9F80000011D4E
:109F2000C9F8001001784046FEF7CAF9641C90E7B2
:109F30006CE0D9F800100A1DC9F800200968CDE9C5
:109F400000500A224046FEF7BFFFEFE7D9F80010A5
:109F50000A1DC9F8002009680A2206E0D9F8001095
:109F60000A1DC9F8002009681022CDE900504046BA
:109F700003F08CFADAE7D9F8001000270A1DC9F8B7
:109F800000200E68C00705D112E04046761C7F1CF9
:109F9000FEF796F931780029F7D104E020214046F8
:109FA0006D1EFEF78DF9BD42C0D9002DF6D1BDE77B
:109FB0004EB13046FCF77EFA074604E020214046C9
:109FC0006D1EFEF77DF9BD4206D9002DF6D103E0E6
:109FD0004046761CFEF774F931780029F8D1A5E7E0
:109FE000D9F80000011DC9F800100568302140466D
:109FF000FEF766F978214046FEF762F90820002155
:10A00000CDE90001034610222946B0E7BDE8FC87F0
:10A0100070B541EA4201DDE904564FF0A04441EA3F
:10A02000830141EA052104EB800041EA0641C0F8C2
:10A03000001770BD70B541EA4201DDE904564FF0EA
:10A04000A04441EA830141EA052104EB800041EA92
:10A050000641C0F8001770BD70B541EA4201DDE964
:10A0600004564FF0A04441EA830141EA052104EB84
:10A07000800041EA0641C0F8001770BD70B541EAA2
:10A080004201DDE904564FF0A04441EA830141EA70
:10A09000052104EB800041EA0641C0F8001770BDBD
:10A0A0001CB500220B46009211460192FFF7D4FF27
:10A0B0001CBD1CB500220B46009211460192FFF711
:10A0C000DDFF1CBD1CB5002100910B460122019152
:10A0D0001146FFF7C1FF1CBD1CB5002100910B46C6
:10A0E000012201911146FFF7C9FF1CBD4FF0A042AC
:10A0F00002EB8000D0F8002722F44032C0F800279D
:10A10000D0F8002742EA0141C0F80017704700006C
:10A1100038B5094B44181B6800936B4608E000BF34
:10A1200053F82010D1F8205520C2C1F82055401C0A
:10A130008442F5D838BD0000BCD6020042094FF079
:10A14000000100D1491E00F01F00012282400A4296
:10A1500001D0012070470020704701224FF0A0433A
:10A16000824011B1C3F808257047C3F80C25704729
:10A17000034908B50844002101600068009008BD4B
:10A180000060004002494058012800D0002070477C
:10A190000060004030B5154A01460020D2F8104456
:10A1A00023460AE0DB681D79854205D1401C0A2858
:10A1B000F6DB4FF0FF3030BD1B68002BF2D1431CA3
:10A1C000F9D0CB681871D2F8103443B1DB68CC6891
:10A1D0001B682360D2F81024D268116030BDC2F829
:10A1E0001014C96800220A6030BD000050370020FA
:10A1F0007047FCF751BA704708B5034A00924023F4
:10A20000024A00F005F808BD81CC0200B8350020F4
:10A21000F0B595B01C4615460F4608461A9E00F04C
:10A2200057FB182109A8FCF73AF90E96CDE9095415
:10A230000023082203A9384600F05FFB059806902A
:10A24000BDF81000ADF81C00BDF81200ADF81E00FE
:10A2500000208DF821000398082600F00300012853
:10A2600002D0022818D032E003983346850AC0F3A2
:10A27000C2008DF8200003980FA9C0F38314A20038
:10A28000384600F03AFB09A8009006AB22460FA919
:10A29000284600F079FA1AE00398840DC0F3C20052
:10A2A0008DF82000082C01D2254600E00825334611
:10A2B0002A460FA9384600F020FB2E44641B09AB48
:10A2C00006AA29460FA800F0C7F9002CEAD13846A3
:10A2D00000F004FB15B0F0BD0A4A012902EBC000F2
:10A2E00007D0022907D0032907D0042907D000206E
:10A2F000704702207047042070470079704740790A
:10A3000070470000F0E4020010B5FFF772FF04216F
:10A310000348FFF73FFF02490120C968487110BD9B
:10A32000E0E402002DE9F04F8DB0FDF7E1FF18B138
:10A3300000200DB0BDE8F08F7E4C4FF0000BC4F84C
:10A3400018B4BFF34F8F7C49A06802900D68D846BF
:10A35000284004EB80000BE0D4F8180470B9616861
:10A360000298814201D8A160E2E7284004EB800016
:10A370000C3002A9FEF740FE0028EDD1002005AA0E
:10A38000029901EA050304EB8303491CDB6842F8E8
:10A390002030401C02910228F2D3059800F00300FF
:10A3A000022802D001284DD0AAE005985022810D44
:10A3B0008946B2EB905F00D850210E4666F39F505D
:10A3C000059008315D4800F03AFA070078D000F0B7
:10A3D0007FFA4346082205A9384600F096FA02990A
:10A3E00008F1080A2940681A8000001D864222D917
:10A3F000504D0C3530B1C2B204EB8101301A904699
:10A400000C3104E02946F2B2002590462846C6B237
:10A410005346384600F079FA0AEB080325B1324674
:10A420002946384600F071FA029909F1030001EB60
:10A43000900002903BE004EB8101534632463846DF
:10A440000C31EFE70598C0F38310062800D30620EF
:10A45000059960F38911C1F38310801C0591810077
:10A46000364800F0ECF907004AD000F031FA4346D4
:10A47000082205A9384600F048FA08F10808002625
:10A480000FE00298434600EA0501401C04EB8101FD
:10A490000290042238460C3100F037FA08F1040823
:10A4A000761C0598C0F38310B042EAD847B1D4F8BF
:10A4B0001054D4F8180478B1384600F00FFA34E09C
:10A4C0001EE0E8684079012804D12A682846394608
:10A4D00012689047E8680568002DF2D1384600F010
:10A4E000FDF98DF800B06846FCF746FFD4F8180473
:10A4F00008B90298A0609DF80000FCF761FF14E025
:10A50000D4F8104405E02168204689688847E0684F
:10A510000468002CF7D10A480A49401AC0080221F1
:10A5200001EB004008A100F06DF8FDF7E1FE80F0BE
:10A530000100FEE650370020EC3000209CE50200D0
:10A5400068E50200F0E402004261636B656E6473CB
:10A5500020666C7573686564000000002DE9F84F93
:10A560008146264FD01C15468A468008002269463F
:10A570003E68FDF75BFEDFF88880B0B3009CA01C4E
:10A58000009039683040091A8F003F1DBD4208EB2A
:10A59000800002D82A46514608E03A4651460C301F
:10A5A000FBF764FF1648EA1B0AEB07010C30FBF7C8
:10A5B0005DFF4FEA1947FEF75DF947EA0042601C6C
:10A5C000304008EB8000344008EB8401C260C8686A
:10A5D0004FF6C07269F3C500904365F39F5020F0B9
:10A5E0000300801C20F00400C86098F8000001E01F
:10A5F000FFF798FE0028FBD1BDE8F88FEC30002073
:10A600005037002000231A4602F006BC08B501238B
:10A6100000926A4602F000FC08BD1CB5CDE900239B
:10A6200002236A4602F0F8FB1CBD3EB5069C8DE88D
:10A630001C0003236A4602F0EFFB3EBDF0B587B075
:10A640000DF1300C9CE8F0008DE8FC0006236A4612
:10A6500002F0E2FB07B0F0BD2DE9F0470E46804660
:10A660001C469246082940D894F80C90002020738C
:10A670001946104601F0DEFD0025B54206D218F855
:10A6800005201BA12046FFF7BDFB03E01AA12046D1
:10A69000FFF7B8FB6D1C082DEFD318A12046FFF77C
:10A6A000B1FB0025B54212D218F805707E2F08D8EC
:10A6B000FBF7D8FE0068C05D10F03E0F01D03A46AF
:10A6C00000E02E220EA12046FFF79CFB03E00DA127
:10A6D0002046FFF797FB6D1C082DE3D3012221468E
:10A6E000504601F089FD84F80C90BDE8F087000029
:10A6F0002025303278000000202020007C0000005F
:10A700002563000020000000064910B500200870F5
:10A71000054800F0E1F8002803D1044800F011FAE0
:10A72000002010BD503700209CE50200A8D8020090
:10A7300002480349401AC0087047000088E502003B
:10A74000F0E4020013B56846FEF71AFE08B10020D7
:10A750001CBD0248009950F831001CBDF0E4020015
:10A7600070B508480125D0F81044057007E0E0688E
:10A7700045712168204649688847E0680468002CD4
:10A78000F5D170BD503700202DE9FF4781460C9D63
:10A7900000200C462F7B28739846164629461846FB
:10A7A00001F048FD072E42D2DFE806F004090F163B
:10A7B0001F2A360049462846FFF724FB37E0494662
:10A7C00028462268FFF71EFB31E0D4E90023494602
:10A7D0002846FFF717FB2AE0A0680090D4E9002381
:10A7E00049462846FFF70EFB21E0D4E90201CDE9F6
:10A7F0000001D4E9002349462846FFF703FB16E091
:10A8000004F1080007C88DE80700D4E90023494691
:10A810002846FFF7F7FA0AE004F108000FC88DE8B0
:10A820000F00D4E9002349462846FFF7EBFA00223F
:10A830002946404601F0E0FC2F73BDE8FF872DE973
:10A84000F041058A80462D1F4819C01CB0FBF5F069
:10A85000C6B24046FEF70DFE041E19D0002020713E
:10A8600001206071E58000272546761EC4F800802F
:10A870000BE04046FEF7FDFD60B16179491C617156
:10A88000286005467F1CC0F80080B742F1D32046FF
:10A89000BDE8F081204600F002F80020F8E72DE93D
:10A8A000F041457901466B1E002201E00968521C07
:10A8B0009A42FBD30F680146002605E038460C6833
:10A8C000FEF7F9FD2146761CAE42F7D3BDE8F081D4
:10A8D0000121001DFEF7B1BDFEF705BE10B504460F
:10A8E0000121001DFEF7BFFD10F0FF0F04D120462F
:10A8F000BDE81040FFF7D3BF10BD1CB50192012287
:10A90000009201AAFEF7FCFC1CBD1CB501920022BE
:10A91000009201AAFEF7F4FC1CBD0000064910B528
:10A9200000204870091D0860BFF35F8F0349044889
:10A9300000F0F4FA002010BDD430002040D702000F
:10A94000AC35002008B500208DF800006846FCF703
:10A9500013FDF1EE100A20F09F00E1EE100ABFF3A4
:10A960005F8F08494020C1F880029DF80000FCF785
:10A9700027FD00F0AFFA08B141DF08BD20BF40BF9E
:10A9800020BF08BD04E000E070B504460C4801217A
:10A99000FEF75EFDBFF35F8F0025002809D101207F
:10A9A000074E042C08D0311F4A781AB1BFF35F8FCD
:10A9B000356070BD0C70487002F09AF9F6E700003F
:10A9C000D83000202DE9F8430446002790460E4673
:10A9D0008DF800706846FCF7CFFC204600F039F88F
:10A9E00038B105279DF80000FCF7EAFC3846BDE8C1
:10A9F000F88320680568B8F1000F05D1016820468A
:10AA000000F03FF821680860E268012A0CD0022AB1
:10AA10000ED0042A11D06068082A13D005FB020169
:10AA20003046FBF723FDDDE76068405D3070D9E715
:10AA3000606830F815003080D4E7606850F8250071
:10AA40003060CFE700EBC501D1E90001C6E90001A4
:10AA5000C8E7016808684968884201D10120704749
:10AA60000020704701680A6849688068884201D9F7
:10AA7000491C00E00021914201D1012070470020D3
:10AA800070478068884201D9481C70470020704791
:10AA90002DE9F84304464FF000080E468DF800807B
:10AAA0006846FCF769FC2046FFF7DCFF07000AD088
:10AAB000207C40B14FF004089DF80000FCF780FCBA
:10AAC0004046BDE8F8832068456841682046FFF7A6
:10AAD000D8FF2168486037B1206801682046FFF739
:10AAE000D0FF21680860E268012A14D0022A16D03B
:10AAF000042A19D0082A1CD06068314605FB0200E0
:10AB0000FBF7B4FC204601F027FD21688A688242E9
:10AB1000D2D28860D0E7616830784855F2E7616842
:10AB2000308821F81500EDE76168306841F82500AC
:10AB3000E8E7D6E90001626802EBC502C2E900015C
:10AB4000E0E782680021916082681161826851614A
:10AB50008268D1608268516080680160704708B582
:10AB6000002242504058009008BD000020B1034927
:10AB700009680160002070470E2070472CD9020040
:10AB80002DE9FE4307460E460846FFF7EFFF002873
:10AB90007BD100250095019506208DF800704FF0BF
:10ABA0000108ADF8040002958DF802806946202066
:10ABB000326869DF3649374A891AC908012202EB2F
:10ABC000014430B100F018FA024620463249FFF73E
:10ABD0001DFD00958DF801508DF8028001950295BC
:10ABE0008DF8038069464020326869DF30B100F09B
:10ABF00003FA024620462949FFF708FD00958DF823
:10AC00000070232001950295ADF802006946326874
:10AC100069DF30B100F0F0F9024620462049FFF725
:10AC2000F5FC0095019502958DF80080694601209C
:10AC3000326869DF30B100F0DFF902462046194979
:10AC4000FFF7E4FC4FF4B06000900195029569466F
:10AC5000A120326869DF30B100F0CEF9024620460B
:10AC60001149FFF7D3FC0095019502958DF800502E
:10AC70006946A020326869DF30B100F0BDF90246B4
:10AC800020460A49FFF7C2FC0020BDE8FE83000011
:10AC900078E50200F0E4020014E302005CE3020045
:10ACA000A8E3020074E20200C0E2020020E2020017
:10ACB0002DE9F0410546076860DF804619491A48CA
:10ACC0002A68081AC608BA4219D9022000EB0644BD
:10ACD00016A12046FFF796FC20463A461FA12B6896
:10ACE000FFF79BFC4FF08050D0F80C0129688002E0
:10ACF00000F10050421A204625A1FFF787FCB8F169
:10AD000000004FF001040AD000F076F9024604EB8F
:10AD100006402AA1FFF77AFC4046BDE8F0812F48A3
:10AD20000470F9E778E50200F0E40200496E7375FB
:10AD30006666696369656E742052414D20616C6C72
:10AD40006F636174656420666F7220746865205358
:10AD50006F66744465766963652E00004368616EB2
:10AD60006765207468652052414D20737461727468
:10AD7000206C6F636174696F6E2066726F6D203036
:10AD800078257820746F20307825782E0000000018
:10AD90004D6178696D756D2052414D2073697A65FA
:10ADA00020666F72206170706C69636174696F6E88
:10ADB00020697320307825782E00000073645F626C
:10ADC0006C655F656E61626C6528292072657475BB
:10ADD000726E65642025732E000000004331002050
:10ADE00030B5144897B00078002820D05FF04C05AB
:10ADF000ADF8585016A903A861DF30B1052816D068
:10AE000017B0BDE83040FCF78FB903AC0A4968467B
:10AE100000F084F807E000BFD0E900212046904709
:10AE2000684600F092F802980028E1D0F4E717B0E5
:10AE300030BD00004331002030D902007CB5194CF0
:10AE4000207808B108207CBD0120A070002001F00E
:10AE5000E9FE112819D0002001F0FCFE124800265E
:10AE6000006801908DF800606846FCF785FA0F498C
:10AE700001A810DF05000AD0002020709DF8000016
:10AE8000FCF79EFA2DB128467CBD00207CBD012038
:10AE9000F3E7A670667001F075FF012001F0DAFE9D
:10AEA000F3E7000040310020C4D80200A570020082
:10AEB0000EB50749684600F031F805E0D0E900100A
:10AEC0008847684600F041F802980028F6D10EBD88
:10AED000E0D80200014800787047000040310020AF
:10AEE0001FB568464BDF30B1052814D004B0BDE86B
:10AEF0001040FCF719B9084901A800F00FF806E066
:10AF0000D0E900210098904701A800F01EF80398AE
:10AF10000028E6D0F4E71FBD4CD9020001600968A3
:10AF20004160AFF3008010B5D0E900215368994229
:10AF300001D1002104E0D1E90034A34202D0194636
:10AF4000816010BD08314160F0E7816800290BD0B5
:10AF5000026892680A44826041684B689A4203D151
:10AF600008314160FFF7DFBF704770B50D460646F8
:10AF7000446804E0B2682946904718B12468206804
:10AF80000028F7D120682860256070BD40680068FF
:10AF9000704741680868002801D002680A6070475D
:10AFA00002460020526806E08B4203D10868106018
:10AFB000012070471A461368002BF5D17047000036
:10AFC0000C4A10B502F594730EE0991AC91001EB02
:10AFD000D171491002EBC1010C68844201D90B46C2
:10AFE00002E005D201F108029A42EED3002010BD22
:10AFF000486810BD60D7020000B5FFF7E1FF0028E8
:10B0000000D1014800BD00004CD702004058002884
:10B0100000D00120704708B50022425040580090EF
:10B0200008BDD0F80403084000D001207047405804
:10B03000002800D00120704708B500224250405837
:10B04000009008BD02480068002800D00120704729
:10B050000004014008480068012110F0010F06D1EA
:10B060004FF0E020C02280F800248430C1670349FB
:10B07000012008607047000000E100E01805004072
:10B080000649024600200B790BB1852070470A6003
:10B0900001220A7100224A71704700005C300020D2
:10B0A000022010B54107C1F808034FF48270FEF783
:10B0B00012FE05490120086004480168C1F30041FF
:10B0C0000029FAD110BD00000C0000401804004017
:10B0D000002802D0014980010847704711D70200BB
:10B0E0002DE9F0410E46054601F00CF800282846EF
:10B0F00019D0FDF753F9083801F076F8032802D08B
:10B1000001280ED007E04FF0A040D0F81005E8402D
:10B1100010F0010F05D003212846BDE8F041FEF7ED
:10B12000E5BF0221F8E700F0F9FF002822D0284609
:10B13000FDF734F904464FF4807000EB84000E4FA5
:10B1400081B207EB8400D0F8102542F00102C0F86C
:10B1500010250846FFF70CF8002E0BD02846FDF707
:10B160001DF9064951F82000002803D00120A04015
:10B17000C7F80403BDE8F081006000403C340020C3
:10B180002DE9FC41DFF8B880044608EB04000027F5
:10B1900090F930001346C0170E46401C01D0082716
:10B1A0004AE0B0781946C0F340022046FDF7D2F8D5
:10B1B0000546401C3FD0B078410717D4C0070AD0DD
:10B1C0004FF0A04000EB8400D0F8001721F00201FE
:10B1D000C0F8001707E000217378204600910A4666
:10B1E0000191FEF727FF204600F07EFFB078800730
:10B1F00018D51448317800EB8500D0F81025124B93
:10B200001A40C0F810254FF4F8524FF4403302EAC8
:10B21000042203EA01410A43D0F810150A43C0F89A
:10B22000102509E008EB0500327810F8481F41EAC4
:10B230008211017000E004273846BDE8FC8100005F
:10B240003C34002000600040FFE0FCFF4FF0A041D4
:10B25000D1F81015C14011F0010000D00120704755
:10B2600070B5194D95F8580008B1082070BD00243C
:10B27000661E2046FEF762FF10B1281980F8306084
:10B28000641CE4B2202CF4D300242046FDF754F8CB
:10B29000641CE4B20C2CF8D300200D4968650B4CFB
:10B2A000C02081F8000401264020891FC1F8000158
:10B2B0004FF4BE70FEF75CFFA004C4F8040385F8E9
:10B2C0005860002070BD00003C3400200060004049
:10B2D00006E000E0034890F85800002800D0012064
:10B2E000704700003C3400200121B1EB507F01D1B8
:10B2F000012070470020704738B50D4600F0E6FF8A
:10B30000040014D000208DF800006846FCF734F8E3
:10B31000207928B19DF80000FCF752F8112038BDC3
:10B320000120256020719DF80000FCF749F80020FD
:10B3300038BD00000149024801F070BF9834002078
:10B34000002000402DE9F0410546007916460F46E1
:10B3500000EB40012D4A01EBC00102EB810494F89F
:10B360002A1011B10820BDE8F081294951F82010B8
:10B370002868FFF7C1FF08B11120F4E739462846D5
:10B38000FCF738F866603869206030004FF001063D
:10B390002FD03F7F4FF48E712868FFF73CFE4FF4AB
:10B3A000A2712868FFF737FE28681A49C0F804130D
:10B3B00028684FEA471140F30730002804DB00F10A
:10B3C000E02080F8001405E000F00F0000F1E0201C
:10B3D00080F8141D286840F30730002809DB00F0CE
:10B3E0001F0106FA01F14009800000F1E020C0F8D9
:10B3F000001128680421C0F800150020A061E06158
:10B4000084F8290044F8140FA675ACE7983400209E
:10B41000C0D60200800002002DE9F05F05460079E9
:10B420004FF4017600EB400303EBC000344B03EB19
:10B4300080040020636813B12B68C3F80863A36914
:10B440004FF000096BB1E06938B1606810B128684D
:10B45000C0F804631120BDE8F09FE2610120216182
:10B4600005E0C4F82490A261E160C4F81C9094F84F
:10B470002910014302D1284601F0FBFA6068002838
:10B48000286803D0C0F804630020E4E74FF4A276F4
:10B490003146FFF7C0FDB2464FF4927B594628680B
:10B4A000FFF7B4FD06464FF484712868FFF7AEFD40
:10B4B000804651462868FFF7A9FD074648EA07007D
:10B4C0003043EBD056EA070007D12146286801F047
:10B4D000A1FAA169606A8142E0D8C4F818900EB15F
:10B4E0000320B8E70FB10F20B5E794F82910012029
:10B4F0000029296801D00860C6E74860C4E7000059
:10B50000983400202DE9F05F054600790B4600EBEA
:10B51000400101EBC000244901EB8004284600F003
:10B5200045F810B11120BDE8F09F62614FF00009AD
:10B53000C4F82090A36084F828904FF48E784E468B
:10B5400041462868FFF767FD28684FF0010AC0F8F8
:10B5500008A02146286801F039FD606808BBD5F8CD
:10B5600000B067690FE000BF94F8280008B10F260B
:10B5700015E041465846FFF749FD0028F4D0214622
:10B58000584601F023FD206AB842F2D3574641469F
:10B590002868FFF73BFD0028F9D02868C760C4F889
:10B5A00014903046BFE7000098340020007900EB8B
:10B5B000400101EBC000044901EB80004069002814
:10B5C00000D0012070470000983400200149024853
:10B5D00001F0D2BEC4340020002000402DE9F0412B
:10B5E0000546164600790F46154A00EBC00102EBEE
:10B5F000810494F8201011B10820BDE8F0811149B0
:10B6000051F820102868FFF777FE08B11120F4E701
:10B6100039462846FBF732FF6660386920601EB164
:10B62000397F2846FDF7A4FC28680821C0F80015DA
:10B630000020A061E0616061012184F82010DCE756
:10B64000C4340020C4D602002DE9F05F044600791E
:10B650000E4600EBC001DFF8F0A017460AEB8105AB
:10B660003046FFF741FEB0B168684FF000084FF474
:10B67000047910B12168C1F80893A8694FF0000B54
:10B6800080B1E86948B1686810B12068C0F80493D7
:10B690001120BDE8F09F1020FBE7EF614FF001089B
:10B6A0002E6102E0EE60C5E9067B00254FF488714B
:10B6B0002068FFF7C1FC4FF4A2712068FFF7BCFCC3
:10B6C0002068C0F83465C0F838752068B8F1000FFC
:10B6D00012D0D0F8001241F02001C0F800122079F9
:10B6E000D04600EBC0010AEB8100406838B1206809
:10B6F000C0F804932846CCE701210160EFE74FF43E
:10B70000887A4FF4A27951462068FFF790FC0746EB
:10B7100049462068FFF78BFC06464FF4927120687B
:10B72000FFF785FC014647EA06000843EBD0227983
:10B7300002EBC20308EB8302C2F818B001B1032583
:10B74000002ED7D00F25D5E7C43400202DE9F047CF
:10B7500004460E460079274900EBC00001EB800546
:10B7600017463046FFF7C0FD30B1204600F044F8E0
:10B7700020B11120BDE8F0871020FBE76F61AE60BB
:10B780004FF490774FF0000839462068FFF754FCDB
:10B790004FF4AC7631462068FFF74EFC2068AA686B
:10B7A0006969C0F84425C0F8481520684FF00109C0
:10B7B000C0F808906868D0B9BA4651462068FFF7CB
:10B7C00036FC074631462068FFF731FC0743F4D0CA
:10B7D00010B14FF00F0808E02068C0F80C90314617
:10B7E0002068FFF724FC0028F9D00020686140465B
:10B7F000C0E70000C43400200079054900EBC00018
:10B8000001EB80004069002800D001207047000053
:10B81000C4340020FBF788BC034908600348016872
:10B820000029FCD07047000004E5014000E401401D
:10B830002DE9F84F05460C460888B5F8CA1288422B
:10B840007BD195F8C602628800EB8001C1EB8010C5
:10B8500005EB4006454946484FF0000B081A4FEAF1
:10B86000D009EABB3079E288A71D8246D1B250FAEE
:10B8700082F2062A02D8084430710DE006203071A9
:10B88000022101EB0940328880463A49FEF7BEFEAC
:10B8900040463949FEF7B6FE50460022D8461BE026
:10B8A00000EBC00102EB820307EB430306EB41010F
:10B8B000D3F802C0C1F80AC0D3F806C0C1F80EC060
:10B8C0005B894B82A1F81480A1F81680A1F818803A
:10B8D000401CA1F81A80521C31798142E0D800E066
:10B8E0001FE095F8C61200EBC00001EB8102C2EB2D
:10B8F000811105EB410136F810000989884210D208
:10B90000307906280DD085F8C50221882846FCF735
:10B910004DFD002811D022882946BDE8F84FFCF7DC
:10B9200031BF85F8C5B2228869462846FCF738FE43
:10B9300028B122882946FCF725FFBDE8F88F9DF83D
:10B9400000000028F9D0042101EB09402388328847
:10B950000A49FEF762FE228801212846FCF7B8FE5C
:10B960002188284600F060FBE7E70000F0E40200D1
:10B97000F0E40200E0D9020028DA0200CCDA02008A
:10B980002DE9F0418D88027900EBC5042273C97B53
:10B99000A41D012902D0022904D101E0008800E0A1
:10B9A000408820802288608882421BD91648174927
:10B9B0002B46401A4FEAD008042101EB0840064606
:10B9C00013A1FEF72AFE21882846A5DF012790B1A2
:10B9D000112812D0FFF710FB024607EB08401CA10C
:10B9E000FEF714FEA179E07981420BD92846BDE823
:10B9F000F041FCF74FBD6771F4E7277130462A46E6
:10BA00002049EDE7BDE8F081F8E40200F0E402002F
:10BA100052657175657374696E6720746F207570F7
:10BA20006461746520415454204D545520746F2036
:10BA30002575206279746573206F6E20636F6E6E5A
:10BA4000656374696F6E20307825782E00000000E1
:10BA500073645F626C655F67617474635F6578636C
:10BA600068616E67655F6D74755F7265717565732A
:10BA70007428292072657475726E65642025732E92
:10BA80000000000058DC0200F0B58DB006462C2204
:10BA90006846091DFAF7EAFCBDF804001F49C2B266
:10BAA0001D48BDF80050401AC108042006EBC50728
:10BAB00000EB01447A732B4619A12046FEF7ADFD39
:10BAC000BDF80620204622A1FEF7A0FDBDF8042007
:10BAD000204624A1FEF79AFDBDF80A20204626A1A3
:10BAE000FEF794FDBDF80820204627A1FEF78EFD45
:10BAF000306900280DD02849D1E90401CDE90B01B6
:10BB0000ADF82E50787B8DF8300032690BA93046A5
:10BB100090470DB0F0BD0000F8E40200F0E4020030
:10BB200044617461206C656E67746820757064612F
:10BB300074656420746F202575206F6E20636F6EAE
:10BB40006E656374696F6E2030782530782E000042
:10BB50006D61785F72785F6F63746574733A2025E6
:10BB6000750000006D61785F74785F6F6374657451
:10BB7000733A2025750000006D61785F72785F74FC
:10BB8000696D653A202575006D61785F74785F7422
:10BB9000696D653A202575007CD6020070B58A88EB
:10BBA0000C1D00EBC2060D7A09480A492B46401AC3
:10BBB000C008042101EB004007A1FEF72EFD317BF8
:10BBC000A94200D329462088BDE87040FCF762BC3A
:10BBD000F8E40200F0E4020050656572206F6E2008
:10BBE000636F6E6E656374696F6E203078257820A0
:10BBF0007265717565737465642061206461746138
:10BC0000206C656E677468206F66202575206279E8
:10BC10007465732E00000000F8B505460C460888D0
:10BC2000B5F8CA12884255D195F8C602A21D00EB9C
:10BC30008001C1EB801005EB400695F8C50200EBD2
:10BC4000C00006EB400160880A3138B329E000BF2C
:10BC500000EB400302EB43039F88B7F5245F0CD051
:10BC60006FF4245C17EB0C070AD0012F02D0072FCA
:10BC70000BD108E05B884B8107E05B888B8104E097
:10BC80005B88CB8101E05B880B824B892BB18B8970
:10BC90001BB1CB890BB10B8A1BB9401C13888342A3
:10BCA000D6D800208DF8000095F8C5023179401CE7
:10BCB000884203D101208DF8000010E085F8C5020C
:10BCC000228869462846FCF76BFC20B12288294669
:10BCD000FCF758FDF8BD9DF800000028FAD00B488D
:10BCE0000B492388401AC008042101EB0040328828
:10BCF0000849FEF792FC228801212846FCF7E8FC5F
:10BD00002188284600F090F9F8BD0000F0E4020018
:10BD1000F0E40200CCDA02002DE9FC478E880746E9
:10BD2000CD8800EBC604214821492B46401A4FEA32
:10BD3000D009042101EB0940804632461DA1A41D13
:10BD4000FEF76BFC172D00D217252088A84200D8DB
:10BD50000546658000202071009623886288404651
:10BD600023A1FEF762FC21883046B5DF40B1FFF722
:10BD700043F90246012101EB09402DA1FEF746FCE3
:10BD80006079002810D1386900280DD03449D1E9F4
:10BD90000201CDE90001ADF802606088ADF8040051
:10BDA0003A69694638469047BDE8FC87F8E40200E6
:10BDB000F0E4020050656572206F6E20636F6E6E56
:10BDC000656374696F6E20307825782072657175AF
:10BDD000657374656420616E20415454204D545540
:10BDE000206F662025752062797465732E0000002F
:10BDF0005570646174696E6720415454204D5455E8
:10BE000020746F202575206279746573202864651D
:10BE100073697265643A20257529206F6E20636FFF
:10BE20006E6E656374696F6E20307825782E000021
:10BE300073645F626C655F67617474735F65786378
:10BE400068616E67655F6D74755F7265706C792887
:10BE5000292072657475726E65642025732E00004A
:10BE60007CD602007CB58D88064600EBC5044A8965
:10BE700034F8060F904200D802466280172A00D29A
:10BE80001722114811496280401AC008042101EBB1
:10BE900000402B460EA1FEF7C0FB306978B16079F7
:10BEA00068B11A49D1E90001CDE90001ADF80250AD
:10BEB0006088ADF80400326969463046904700203A
:10BEC000607120717CBD0000F8E40200F0E4020023
:10BED000415454204D54552075706461746564203C
:10BEE000746F202575206279746573206F6E2063EE
:10BEF0006F6E6E656374696F6E20307825782028C8
:10BF0000726573706F6E7365292E00007CD6020017
:10BF10002DE9F041054690F8C6020C4600EB800181
:10BF2000C1EB801005EB40062088B5F8CA128842A4
:10BF300043D12349234A0420511A6388CF08328809
:10BF400000EB07406BB120A1FEF760FB22880021C7
:10BF50002846FCF7BDFB21882846BDE8F04100F0EB
:10BF600063B821A1FEF752FBE168C6F80610E2882B
:10BF700095F8C412D0B251FA82F2062A03D80844C6
:10BF800085F8C4020DE0062085F8C402022000EB0B
:10BF900007461CA13046FEF735FB30462149FEF727
:10BFA00031FB21882846FCF701FA002805D02288B9
:10BFB0002946BDE8F041FCF7E5BBBDE8F081000093
:10BFC000F0E40200F0E402005365727669636520D4
:10BFD000555549442030782578206E6F7420666F5F
:10BFE000756E642E00000000466F756E64207365E8
:10BFF0007276696365205555494420307825782E3E
:10C00000000000004E6F7420656E6F7567682073C6
:10C010007061636520666F7220736572766963650F
:10C02000732E000084DA0200F0B589B00F46044692
:10C0300020216846FAF733FA94F8C702244E401CD0
:10C04000C1B284F8C712F2680020914238D284F855
:10C05000C50294F8C6123B46491CC9B201EB8102E5
:10C06000C2EB811204EB42051A4A84F8C61202EBB5
:10C070008101096829602871174818492A88401ADF
:10C08000C008042101EB00401549FEF7C6FA022062
:10C090008DF800000120ADF810002868CDF81200DE
:10C0A0001048CDE902043A466946B068FDF72AFB1C
:10C0B000002803D03A462146FCF764FB09B0F0BDE6
:10C0C00084F8C80239462046FCF7EAFAF6E7000091
:10C0D0004030002010340020F0E40200F0E40200C0
:10C0E00024DB02008587020010B50549C20800F074
:10C0F0000703885C01249C402043885410BD000045
:10C10000903400200449084490F93000082801DBED
:10C1100001207047002070473C3400200449084447
:10C1200090F93000082801D20120704700207047A4
:10C130003C3400202DE9F05F2A4F06464FF0A04A1C
:10C140004FF0010B0024381990F95010491C3CD0D5
:10C1500090F85000314620F0C0052846FDF7DBF985
:10C1600020B3204600F040F881460AEB8500D0F865
:10C170000007C0F30148B8F1020F18D00221284689
:10C18000FDF7B4FF0BFA05F1CAF820152846FCF7B5
:10C1900005F957F820204AB14846B9F1030F11D0EC
:10C1A000B8F1020F05D0B8F1030F07D00DE003215D
:10C1B000E5E74846B9F1010F04D006E04846B9F179
:10C1C000020F02D1014628469047641C042CBAD3C2
:10C1D000324601210020FDF79BFF30680028B1D1D5
:10C1E000BDE8F09F3C3400200249084490F850001C
:10C1F000800970473C34002010B50C46017A0529AF
:10C2000008D0407A38B1084808A102682046FDF7F6
:10C21000F9FD00E01AB106A12046FDF7F3FD204626
:10C22000BDE81040FDF7FBBD1C3100202573000068
:10C230000D0A000038B5C3880D46044633B114A07A
:10C24000009015A216A12846FDF7DCFD217A0529EC
:10C250001CD0607A48B1A088FEF73EF8164951F824
:10C26000202016A12846FDF7CDFDA0880021FEF76D
:10C2700069FA03461049207A143951F8202001B098
:10C280002846BDE830400EA1FDF7BCBD38BD00001A
:10C290001B5B306D000000001B5B313B33316D00D8
:10C2A00025734C6F67732064726F7070656420280B
:10C2B00025642925730D0A001C3100202573000018
:10C2C0003C25733E2025733A200000000349884234
:10C2D00001D1034870470020704700000020004053
:10C2E000643000202DE9F04388468146504851498A
:10C2F00091B0401AC708042000EB074004464EA145
:10C30000FEF780F9012269464846FEF75BFB05000F
:10C3100077D19DF8000004AE062861D2DFE800F076
:10C32000030E202B333B20464BA1FEF76BF9BDF8E3
:10C330001220BDF810104046A1DF0FE00DA80690B6
:10C340000146BDF8162000230198FEF7D6FA2046D4
:10C3500046A1FEF757F931464046A3DF054636E0D1
:10C36000204647A1FEF74EF9BDF8101040460DF1EA
:10C3700012029BDFF2E720464BA1FEF743F931465C
:10C3800040469DDFEAE7204651A1FEF73BF93146E2
:10C3900040469EDFE2E70DA807900023022209A98C
:10C3A0000198FEF7AAFA09A80690BDF824200223F6
:10C3B00007990198FEF7A1FABDF82470204651A113
:10C3C000FEF720F931464046AEDF050002D0112DC0
:10C3D00029D00BE0BDF82400874207D00C2505E0EA
:10C3E000022000EB07404AA1FEF70CF99DF800007F
:10C3F0004E4951F8200048B10198FEF750FA204606
:10C4000000E00DE04AA1019AFEF700F9002269461A
:10C410004846FEF7D7FA2A464146684600F030F90A
:10C4200011B0BDE8F08320464A49FEF7EBF8F7E784
:10C4300000E50200F0E4020050726F6365737369F7
:10C440006E672074686520726571756573742071FC
:10C45000756575652E2E2E00474154544320526554
:10C4600061642052657175657374000047415454CE
:10C470004320577269746520526571756573740045
:10C480004741545443205072696D6172792053655D
:10C49000727669636520446973636F76657279208B
:10C4A0005265717565737400474154544320436865
:10C4B000617261637465726973746963204469733E
:10C4C000636F7665727920526571756573740000CB
:10C4D00047415454432043686172616374657269D3
:10C4E000737469632044657363726970746F72203A
:10C4F000446973636F7665727920526571756573EF
:10C50000740000004741545453204856580000001E
:10C51000556E696D706C656D656E7465642047411C
:10C5200054542052657175657374000094D60200EE
:10C53000506F696E74657220746F206672656564F1
:10C54000206D656D6F727920626C6F636B3A202588
:10C55000702E0000F8DC020001680A684968914208
:10C5600001D3881A70478068801A0844401C7047BD
:10C57000F0B58DB00546C068002209A9FEF722FA81
:10C580001C491D4A891AC908042202EB01442CE007
:10C590002046BDF8242019A1FEF738F8BDF8241074
:10C5A000A86801EB810100EB810600226946304654
:10C5B000FEF708FA1A4F11E09DF8000057F8200026
:10C5C00038B10198FEF76BF9204616A1019AFEF7E3
:10C5D0001DF8002269463046FEF7F4F90028EBD03A
:10C5E000002209A9E868FEF7EDF90028D0D00DB0C7
:10C5F000F0BD000000E50200F0E402005075726733
:10C60000696E6720726571756573742071756575E3
:10C610006520776974682069643A20256400000009
:10C6200094D60200506F696E74657220746F206634
:10C6300072656564206D656D6F727920626C6F63E1
:10C640006B3A2025702E000070B50C4B00210A4A71
:10C65000DC680DE002EB81058678AD78B54206D145
:10C6600032F821500688B54201D1586870BD491C86
:10C67000A142EFD3002070BD1034002040300020D4
:10C68000F8B50E460446134813491500A0EB010007
:10C6900022784FEAD00011D0012101EB004033464F
:10C6A0000E490095FDF7C1FFA368002B10D0E1688B
:10C6B00001B032462846BDE8F040184701B0334685
:10C6C000BDE8F040042101EB004005A1FDF7A5BF46
:10C6D000F8BD000000E50200F0E40200ACDC02005E
:10C6E000534420474154542070726F6365647572DF
:10C6F0006520282564292073756363656564656416
:10C70000206F6E20636F6E6E656374696F6E206854
:10C71000616E646C653A2025642E00002DE9F047B7
:10C720008946064610F8101B80463148314B0422DA
:10C73000C01AC008002502EB0044062944D2DFE8F5
:10C7400001F0030C151F272F20462BA1FDF75AFFE0
:10C75000728A318A4846A1DF06E020462BA1FDF708
:10C7600051FF41464846A3DF054624E020462CA160
:10C77000FDF748FF318A06F1120248469BDFF3E7D6
:10C78000204632A1FDF73EFF414648469DDFEBE7DC
:10C79000204638A1FDF736FF414648469EDFE3E7D5
:10C7A000B0693EA107882046FDF72CFF4146484668
:10C7B000AEDF050002D0112D14D00BE0B069008867
:10C7C000B84207D00C2505E0022101EB00403CA156
:10C7D000FDF718FF2A4649463046FFF751FF012072
:10C7E000BDE8F08720463D49FDF70CFF0020F7E744
:10C7F00000E50200F0E40200474154544320526532
:10C80000616420526571756573740000474154542A
:10C8100043205772697465205265717565737400A1
:10C820004741545443205072696D617279205365B9
:10C8300072766963657320446973636F7665727994
:10C8400020526571756573740000000047415454AF
:10C8500043204368617261637465726973746963CC
:10C8600020446973636F76657279205265717565CE
:10C8700073740000474154544320436861726163FC
:10C880007465726973746963204465736372697057
:10C89000746F72205265717565737400474154540A
:10C8A00053204E6F74696669636174696F6E206F9F
:10C8B0007220496E6469636174696F6E00000000E4
:10C8C000556E696D706C656D656E74656420474169
:10C8D00054542052657175657374000064DD020064
:10C8E00070B50546FCF78DF8134C40B1D4E904024D
:10C8F0004FF08071411842F10000C4E9041000219A
:10C900002846FBF7CBFF30B1606820B1606800F0CB
:10C91000CDFA0020606001212846FBF7BFFF18B167
:10C92000FCF79AFAC4E90601284600F0EBFA28461B
:10C93000BDE8704000F034B88830002070B505467E
:10C9400000200C460870FCF787FAD5E90223101A7C
:10C9500063EB010300263146361A994112DAB0F52D
:10C96000350F03D3FAF714FC0B4942184FF4960322
:10C9700000210A48FCF751F810B10D2806D009E053
:10C98000012070BD00210548FBF77EFF284600F01E
:10C990008DFA2070002070BDFFFFB40090300020A1
:10C9A000F8B51A4C074600261948FEF7EFFAD0B141
:10C9B000616871B1D0E902106268D2E90232C91A25
:10C9C000904120D26068007F18B161681048FEF77E
:10C9D000CCFA00F003FA05466946FFF7AFFF98B1BD
:10C9E000606840B10AE0606800280CD13846BDE8B4
:10C9F000F840FCF70EB83846FCF707F865609DF87C
:10CA000000000028D0D1F8BD6660CDE78830002056
:10CA1000D8D6020070B5054688690C4600284FF448
:10CA2000847128460AD0FEF7F6FAD5F81805626A2E
:10CA3000E1688854606A401C606270BDFEF7EBFAE2
:10CA4000D5F8180570BD1FB501238DF80030CDE96C
:10CA50000121D0E90012684690471FBD1FB5012390
:10CA60008DF80030CDE90121D0E9001268469047E9
:10CA70001FBD10B5044600684FF49271FEF7CBFA63
:10CA80004FF484712068FEF7C6FA20680121016026
:10CA900010BD00007FB5014603781A481A4A801A73
:10CAA000C008032202EB0040042B23D0052B19D031
:10CAB000062B16D14C68E178A579637922798DE847
:10CAC0002E00A378627811A1FDF7B8FD2079A27934
:10CAD00061798DE80700E378A27861780BA0FAF716
:10CAE0000DF87FBD48680028FBD004B0BDE8704059
:10CAF000FAF71ABB11A1FDF785FDBDE87F4000F0F4
:10CB000051B8000068E50200F0E40200436F6E6E69
:10CB1000656374696E6720746F20746172676574F1
:10CB20002025303278253032782530327825303261
:10CB30007825303278253032780000005363616EFA
:10CB40002074696D6564206F75742E001FB5002018
:10CB5000009001900290039001208DF804008DF860
:10CB60000C000D4A69460D48FCF750FF08B1FAF772
:10CB7000DBFA0B4A03210948FCF7E4FE08B1FAF797
:10CB8000D3FA002204210548FCF725FF002801D034
:10CB9000FAF7CAFA1FBD000095CA0200D43100207E
:10CBA000B0D5020010B50848FDF73EF808B1FAF715
:10CBB000BBFA0120FBF7FCF9002803D0BDE81040C8
:10CBC000FAF7B2BA10BD0000D431002038B5002108
:10CBD000012548B1012810D003280DD1FEF73AFAFB
:10CBE000BDE83840FDF7A0B84FF0E020C0F8805114
:10CBF000BFF34F8FBFF36F8F38BD8DF800106846BD
:10CC0000FAF7BAFB064C207808B9FDF76DF8E06832
:10CC1000401CE060A5709DF80000FAF7D1FB38BD1C
:10CC2000283400203EB5044609496846FEF776F9E7
:10CC300008E000BFD0E900212046904730B16846A7
:10CC4000FEF783F902980028F4D13EBD11203EBDC5
:10CC5000C8D802003EB5044608496846FEF75EF9AA
:10CC600007E000BFD0E90021204690476846FEF764
:10CC70006CF902980028F5D13EBD0000D4D802001E
:10CC80002DE9F0411400884618D000250E4F0326E8
:10CC900008EB050122460020F9F700FD0544241A9F
:10CCA00040B93878002809D008494FF47A408847BD
:10CCB000761E05D001203870002CE9D1BDE8F08146
:10CCC00000203870FAE70000E0300020A1D8020010
:10CCD00010B504460020FBF76BF908B1FAF724FA07
:10CCE00024B9FBF7D1F808B1FAF71EFA012010BDFC
:10CCF00070B5194D194C07E0016820788847002865
:10CD000029D01548FEF721F9A8680028F4D1FDF7CD
:10CD100027FD00BFFDF706FB0028FBD12078032884
:10CD20000CD002280AD0FEF7D5F800B133DF0C4949
:10CD300001200860BFF34F8F20BFFDE7BFF34F8F87
:10CD400008480168084A01F4E06111430160BFF33B
:10CD50004F8F00BFFDE770BDAC350020D430002000
:10CD6000000500400CED00E00400FA05002805D1A4
:10CD70000349012048700020FBF74EBB70470000BC
:10CD80002834002010B51620F9F7D8FEA0B11148BC
:10CD900090F800044009082811D20121814011F0C7
:10CDA000EC0F0CD00C4882684FF480016AB1016826
:10CDB00041F48001016010BD42F2010001E042F245
:10CDC0000200BDE81040FAF7AFB94FF0E020C0F81C
:10CDD000001110BD16E000E0A03500200148FEF76C
:10CDE000D8B80000D8D60200C207002A03D000BF7E
:10CDF0004FF00F0201E04FF0F00201D04FEA0111B5
:10CE0000044B03EB5003187800EA020040EA0100EB
:10CE100018707047083500202DE9F84F0746214863
:10CE20009146884605681E46012269461846FBF76A
:10CE3000FDF9DFF874A060B3009800210446801C5F
:10CE40000AE000BF00EA050259F821C00AEB82029D
:10CE5000401C491CC2F80CC0B142F3D34FEA174939
:10CE6000FBF708FD611C29400AEB810149EA0042F9
:10CE70002C40CA600AEB8401C86867F3C50066F3FA
:10CE8000891068F39F2020F00300401C20F004006C
:10CE9000C8609AF8000001E0FDF744FA0028FBD1D1
:10CEA000BDE8F88FEC3000205037002070B5044604
:10CEB000124800250078F8B1F4B1207FE0B1FBF70B
:10CEC000CBFFD4E90223801A994110D320690026B0
:10CED00000B92677D4E905108847206960B1217F21
:10CEE00051B1D4E9022110187141C4E9020121466F
:10CEF0000348FEF73AF80125284670BD8830002027
:10CF0000D8D60200F8B51B4C69462068FCF779FAC0
:10CF100000260127184D29E0017821B101290CD004
:10CF200002291BD114E041680A7FBAB90F77416822
:10CF300010480830FEF719F810E04168686881422F
:10CF400001D16E600AE00B480830FEF729F805E0D1
:10CF5000FFF744FF08B10677FAE72F7069462068AB
:10CF6000FCF744FA69462068FCF74BFA0028D3D155
:10CF7000F8BD0000D0D6020088300020F8B50B4C78
:10CF80000D46064669462068FCF725FA58B106703A
:10CF9000456069462068FCF73FFA10B10448FBF78A
:10CFA0001DFD0020F8BD0420F8BD0000D0D6020011
:10CFB0009030002003488068410803480022406800
:10CFC000FAF726B970300020C8D6020070B50C46BA
:10CFD00005464FF48E71FEF71EF8216AA068415C89
:10CFE000206A401C2062C5F81C1570BD1FB50022C8
:10CFF0008DF800200291816801914261D0E9001210
:10D00000684690471FBD1FB500228DF80020029191
:10D01000816801914261D0E90012684690471FBDC6
:10D0200070B50446027824482449401AC5085AB10C
:10D03000214B0120591AC90800EB0140012A33D0C5
:10D04000022A30D11EA130E02B4C2A4E6088304499
:10D05000FAF7FCF86088401C80B23118608011F843
:10D06000011C0A2904D00D2902D0218888421AD334
:10D07000042000EB054521A12846FDF7C3FA284608
:10D0800062881C49FDF76AFA1A49628801F160005A
:10D09000FAF75EFD082804D01328F5D008B1FAF796
:10D0A00043F80020608070BD1CA1FDF7ABFA6068FA
:10D0B000BDE87040FAF738B868E50200F0E4020015
:10D0C000436F6D6D756E69636174696F6E20657213
:10D0D000726F72206F63637572726564207768691E
:10D0E0006C652068616E646C696E672055415254AE
:10D0F0002E00000048310020282A0020526561647B
:10D100007920746F2073656E642064617461206F90
:10D1100076657220424C45204E5553004572726F21
:10D1200072206F6363757272656420696E20464970
:10D13000464F206D6F64756C652075736564206261
:10D140007920554152542E007CB50178254DA1B36C
:10D1500001290BD002291DD18DF80010C068691C6F
:10D1600001900122C81DFCF72DFE30E0017A59B173
:10D17000406801781C48F9F7FDFF1B4C012650B1AF
:10D180008DF8006001900DE016490122491CC81D70
:10D19000FCF718FE7CBDA068E168814205D0002044
:10D1A0008DF80000696868468847A068E168081A39
:10D1B000A1888842E8D9AE707CBDFFE70A480949DA
:10D1C0001030F9F7BCFF30B103208DF8000069681A
:10D1D00068468847F0E70349012201F10800FCF79F
:10D1E00001FEE9E7AC300020803500201FB50A467B
:10D1F00001788DF8001041680191017A8DF80810CE
:10D20000C0680390044850F82210001F50F82220F4
:10D21000684690471FBD0000583000202DE9FF47A9
:10D220000C4605464FF40071FDF7FBFE01274FF455
:10D230000178002618B34FF4927949462846FDF745
:10D24000E5FEE0B149462846FDF7E5FEC5F808834E
:10D2500094F8290000B96F6002208DF80000D5F81D
:10D260008004C5F880040390A0690290E0680190F2
:10D27000A661E661D4E900126846904728E00421DF
:10D280002846FDF7CEFE18B34FF484712846FDF70B
:10D29000BDFEE8B121462846FFF7BCFB616AA069E4
:10D2A000884215D1E06938B1E268616AA0612069FD
:10D2B000E6616662E06008E094F8290000B96F60FA
:10D2C000C5F80883A661E268616A2046FFF7BBFBE8
:10D2D0004FF48E7841462846FDF798FE80B160698C
:10D2E000216A814202D294F8280028B34146284698
:10D2F000FDF791FE606918B161692046FFF776FE7F
:10D300004FF4A27841462846FDF780FE002818D049
:10D3100041462846FDF77FFE94F8290000B12F60B2
:10D32000A06900280DD0A661E268616A04B02046B9
:10D33000BDE8F047FFF787BB21462846FFF746FECA
:10D34000DEE7BDE8FF8700001FB50A4601788DF8CB
:10D35000001041680191017A8DF80810C0680390AF
:10D36000044850F82210001F50F8222068469047C9
:10D370001FBD0000583000202DE9FF410C464FF43E
:10D38000927705463946FDF752FE0026B8B1394678
:10D390002846FDF751FE02208DF80000D5F88004E4
:10D3A000C5F880040390D5F83C050290E068019030
:10D3B000A661E661D4E900126846904723E04FF485
:10D3C000887739462846FDF732FEE0B139462846CF
:10D3D000FDF732FED5F83C15A069884213D1E0690B
:10D3E00060B1E268D5F8000220F02000C5F8000224
:10D3F000E069A0612069E661E06001E0A661E268A1
:10D400002046FFF72BFB4FF4A27739462846FDF75D
:10D410000EFE68B139462846FDF70EFEA06938B108
:10D42000A661E661D5F83C152046E268FFF716FBD9
:10D430004FF4907631462846FDF7F9FD60B131464C
:10D440002846FDF7F9FD0120E860606920B1D5F8B4
:10D450004C152046FFF7D7FD4FF4AC7631462846F1
:10D46000FDF7E5FD00280ED031462846FDF7E4FD26
:10D470006069002807D0D5F84C1504B02046BDE8F7
:10D48000F041FFF7C0BDBDE8FF8100002DE9F05F6E
:10D490008346DDE90A4A994690460D46084601272B
:10D4A00003E000BFB0FBF8F07F1C4045FAD2B9455D
:10D4B00000D94F465FEACA7012D18CB15FEA8A7018
:10D4C00002D5B9F1000F01D0202607E0302605E093
:10D4D00031465846641EFAF7F3FE0CB1A742F7D363
:10D4E0005FF00106B9F1010F02D9A9F1010903E0CA
:10D4F000B5FBF6F0404502D306FB08F6F2E7DFF88D
:10D500003C9000BFB5FBF6F000FB165519F8001073
:10D510005846FAF7D5FEB6FBF8F6002EF2D15FEAD0
:10D52000CA7009D0002C07D0A74205D22021584646
:10D53000641EFAF7C5FEF5E7BDE8F09F16D70200B6
:10D5400070B50C460546FAF7DFFE002807D04268A2
:10D55000002A04D021462846BDE87040104770BD1F
:10D5600010B5042817D209B1032400E00024FAF70B
:10D57000D9FB4FF0A04101EB8000D0F8001721F457
:10D580004031C0F80017D0F8001741EA0441C0F854
:10D590000017002010BD062010BD0000C43200207E
:10D5A00024320020040000002000000001000000E0
:10D5B00060FE0100080000000600000005000000F9
:10D5C000070000000000000000E0D7011112131452
:10D5D0000D0E0F10A0330020C0330020F0330020C8
:10D5E0000D000300A97E02000E000300A97E0200C8
:10D5F0000F000300A97E020010000300A97E0200B4
:10D600000100000000000000000000000000000019
:10D61000000000000000000000000000000000000A
:10D6200000000000000000000000000000000000FA
:10D6300000000000000000000000000000000000EA
:10D6400000000000000000000000000000000000DA
:10D6500000000000000000000000000000000000CA
:10D6600000000000000000000000000000000000BA
:10D67000000000000000000000000000770A000029
:10D6800000000000770A0000000000007ADA0000C5
:10D690000000000000000000618D0200000000009A
:10D6A0000000000000000000D58D0200FB349B5FED
:10D6B000800000800010000000000000000000500A
:10D6C00035B30200CDB5020003000000E8340020AD
:10D6D000183500200100060000000000A8300020DE
:10D6E0005D840200FFFFFFFFFFFFFFFFFFFFFFFF63
:10D6F000FFFFFFFF00000000000000000000D60157
:10D700000601000000000000000000000000000012
:10D710000338FDD870473031323334353637383935
:10D720004142434445460000000000000000000064
:10D73000C4E50200C8E5020000000000000000008F
:10D7400028D7020040D7020004000000556E6B6E1F
:10D750006F776E206572726F7220636F6465000070
:10D760000000000044E1020001000000F0DF0200C0
:10D7700002000000E4DD02000300000064E002009B
:10D7800004000000B8E002000500000098DF02007D
:10D790000600000034DF020007000000A0E00200E5
:10D7A00008000000ACDF02000900000010E00200E9
:10D7B0000A0000002CE102000B000000CCDD02009A
:10D7C0000C000000C4DF02000D00000094E1020024
:10D7D0000E00000090E002000F000000CCE002000C
:10D7E0001000000000E1020011000000A8E10200AA
:10D7F000120000007CE102001300000018E10200AA
:10D80000800000004CDF02008100000088DE020082
:10D810008200000048DE02008300000028DE0200D3
:10D820008400000064DE02008500000070DF02005A
:10D830008600000078E002009000000014DF020083
:10D840009100000008DE020092000000D8DF020014
:10D8500000820000E0E00200018200002CE00200F3
:10D860000282000048E0020000840000A4DE020002
:10D870000184000050E1020002840000ECDE02009E
:10D8800003840000C8DE0200F9A10200F7A1020033
:10D89000F1A10200000000000000000000000000F4
:10D8A0000338FDD870470000B83600207F00000024
:10D8B00038370020000000000000000000000000D9
:10D8C0000000000001000007B4D80200C4D8020024
:10D8D00008000000ECD80200FCD80200080000009C
:10D8E000FCD802000CD902000800000018E6020073
:10D8F00020E60200000000000000000008E6020030
:10D9000018E6020000000000000000000000000017
:10D9100000000000C8E50200F0E50200F0E50200AA
:10D92000F8E50200F8E5020000E60200282A0020DF
:10D930000CD902002CD902000800000000E6020009
:10D9400008E6020000000000000000003CD90200D0
:10D950004CD90200080000000040404040404040D8
:10D9600040404141414141404040404040404040B2
:10D970004040404040404040400502020202020256
:10D9800002020202020202020220202020202020A5
:10D9900020202002020202020202909090909090B9
:10D9A0001010101010101010101010101010101077
:10D9B00010101010020202020202888888888888EB
:10D9C00008080808080808080808080808080808D7
:10D9D00008080808020202024000000059D90200AB
:10D9E0004E6F7420656E6F75676820737061636534
:10D9F00020666F7220636861726163746572697317
:10DA000074696373206173736F6369617465642003
:10DA1000776974682073657276696365203078254C
:10DA20003034582021000000496E637265617365CF
:10DA300020424C455F474154545F44425F4D41583A
:10DA40005F434841525320746F2062652061626CCD
:10DA50006520746F2073746F7265206D6F7265201E
:10DA6000636861726163746572697374696373205A
:10DA7000666F72206561636820736572766963659D
:10DA800021000000496E63726561736520424C4558
:10DA90005F44425F444953434F564552595F4D419D
:10DAA000585F53525620746F2062652061626C6526
:10DAB00020746F2073746F7265206D6F72652073B0
:10DAC00065727669636573210000000044697363C1
:10DAD0006F76657279206F6620736572766963650B
:10DAE000207769746820555549442030782578207E
:10DAF000636F6D706C6574656420776974682073FA
:10DB0000756363657373206F6E20636F6E6E6563FC
:10DB100074696F6E2068616E646C6520307825785A
:10DB20002E0000005374617274696E67206469731B
:10DB3000636F76657279206F6620736572766963AC
:10DB400065207769746820555549442030782578D8
:10DB5000206F6E20636F6E6E656374696F6E2068F0
:10DB6000616E646C6520307825782E005265717581
:10DB7000657374696E6720746F2075706461746575
:10DB800020415454204D545520746F202575206237
:10DB900079746573206F6E20636F6E6E6563746950
:10DBA0006F6E203078257820287265747279292E5E
:10DBB0000000000073645F626C655F6761705F64A2
:10DBC0006174615F6C656E6774685F7570646174C1
:10DBD00065282920287265717565737429206F6E18
:10DBE00020636F6E6E656374696F6E203078257880
:10DBF0002072657475726E65642025732E000000B6
:10DC00005468652072657175657374656420636F0F
:10DC10006D62696E6174696F6E206F662054582062
:10DC2000616E64205258207061636B6574206C656E
:10DC30006E6774687320697320746F6F206C6F6EE9
:10DC400067206279202575206D6963726F73656343
:10DC50006F6E64732E00000073645F626C655F67B3
:10DC6000617474635F65786368616E67655F6D7426
:10DC7000755F726571756573742829206F6E2063F6
:10DC80006F6E6E656374696F6E20307825782072D0
:10DC9000657475726E656420627573792C2077697E
:10DCA0006C6C2072657472792E000000534420471A
:10DCB0004154542070726F63656475726520282525
:10DCC0006429206661696C6564206F6E20636F6EE5
:10DCD0006E656374696F6E2068616E646C65202583
:10DCE000642077697468206572726F723A203078A8
:10DCF000253038582E000000534420697320637586
:10DD00007272656E746C7920627573792E20546816
:10DD10006520474154542072657175657374207095
:10DD2000726F6365647572652077696C6C206265DB
:10DD300020617474656D707465642020202020203B
:10DD400020202020202020202020202020202020D3
:10DD50002020202020616761696E206C61746572EB
:10DD60002E00000053442069732063757272656E43
:10DD7000746C7920627573792E2054686520474150
:10DD8000545420726571756573742070726F636589
:10DD9000647572652077696C6C20626520617474AB
:10DDA000656D7074656420202020202020202020B4
:10DDB000202020202020202020202020206167619A
:10DDC000696E206C617465722E0000004E52465FD1
:10DDD0004552524F525F494E56414C49445F44416F
:10DDE000544100004E52465F4552524F525F534FCE
:10DDF00046544445564943455F4E4F545F454E4156
:10DE0000424C4544000000004E52465F4552524F7E
:10DE1000525F464541545552455F4E4F545F454E03
:10DE200041424C45440000004E52465F4552524F1D
:10DE3000525F4D555445585F554E4C4F434B5F46CE
:10DE400041494C45440000004E52465F4552524FF6
:10DE5000525F4D555445585F4C4F434B5F464149C7
:10DE60004C4544004E52465F4552524F525F4D550D
:10DE70005445585F434F4E445F494E49545F4641B5
:10DE8000494C4544000000004E52465F4552524FF7
:10DE9000525F4D555445585F494E49545F4641497C
:10DEA0004C4544004E52465F4552524F525F424CE1
:10DEB000455F495053505F52585F504B545F545226
:10DEC000554E4341544544004E52465F4552524FD1
:10DED000525F424C455F495053505F504545525F39
:10DEE00052454A4543544544000000004E52465FA7
:10DEF0004552524F525F424C455F495053505F4C20
:10DF0000494E4B5F444953434F4E4E45435445445D
:10DF1000000000004E52465F4552524F525F415042
:10DF2000495F4E4F545F494D504C454D454E544509
:10DF3000440000004E52465F4552524F525F4E4FD2
:10DF4000545F535550504F52544544004E52465F13
:10DF50004552524F525F4D4F44554C455F4E4F54C2
:10DF60005F494E495449414C495A4544000000001C
:10DF70004E52465F4552524F525F4D4F44554C45AD
:10DF80005F414C52454144595F494E495449414CC7
:10DF9000495A4544000000004E52465F4552524FD8
:10DFA000525F4E4F545F464F554E44004E52465FAF
:10DFB0004552524F525F494E56414C49445F53546B
:10DFC000415445004E52465F4552524F525F4441C4
:10DFD00054415F53495A45004E52465F4552524F95
:10DFE000525F494F5F50454E44494E470000000084
:10DFF0004E52465F4552524F525F5356435F48411F
:10E000004E444C45525F4D495353494E4700000022
:10E010004E52465F4552524F525F494E56414C490F
:10E02000445F4C454E475448000000004E52465F46
:10E030004552524F525F4452565F5457495F4552C2
:10E04000525F414E41434B004E52465F4552524F44
:10E05000525F4452565F5457495F4552525F444E97
:10E0600041434B004E52465F4552524F525F494E1C
:10E070005445524E414C00004E52465F4552524F5D
:10E08000525F53544F524147455F46554C4C000038
:10E090004E52465F4552524F525F4E554C4C000017
:10E0A0004E52465F4552524F525F494E56414C497F
:10E0B000445F504152414D004E52465F4552524FCF
:10E0C000525F4E4F5F4D454D000000004E52465F7F
:10E0D0004552524F525F464F5242494444454E00CA
:10E0E0004E52465F4552524F525F4452565F54570C
:10E0F000495F4552525F4F56455252554E000000FF
:10E100004E52465F4552524F525F494E56414C491E
:10E11000445F4144445200004E52465F4552524FC4
:10E12000525F5245534F5552434553004E52465F3E
:10E130004552524F525F494E56414C49445F464CFE
:10E14000414753004E52465F535543434553530096
:10E150004E52465F4552524F525F424C455F4950C6
:10E1600053505F4348414E4E454C5F414C524541F0
:10E1700044595F4558495354530000004E52465F7E
:10E180004552524F525F434F4E4E5F434F554E5490
:10E19000000000004E52465F4552524F525F5449B4
:10E1A0004D454F55540000004E52465F4552524F68
:10E1B000525F4255535900007761726E696E670075
:10E1C00064656275670000001B5B313B33306D0096
:10E1D0001B5B306D000000001B5B313B33316D0079
:10E1E0001B5B313B33326D001B5B313B33336D00C6
:10E1F0001B5B313B33346D001B5B313B33356D00B2
:10E200001B5B313B33366D001B5B313B33376D009D
:10E21000696E666F000000006572726F7200000028
:10E2200073645F626C655F6366675F7365742829FA
:10E230002072657475726E65642025732077686539
:10E240006E20617474656D7074696E6720746F20E0
:10E2500073657420424C455F47415454535F4346B5
:10E26000475F534552564943455F4348414E4745F2
:10E27000442E000073645F626C655F6366675F7362
:10E28000657428292072657475726E656420257323
:10E29000207768656E20617474656D7074696E674F
:10E2A00020746F2073657420424C455F434F4D4D81
:10E2B0004F4E5F4346475F56535F555549442E00C6
:10E2C00073645F626C655F6366675F73657428295A
:10E2D0002072657475726E65642025732077686599
:10E2E0006E20617474656D7074696E6720746F2040
:10E2F00073657420424C455F47415454535F434615
:10E30000475F415454525F5441425F53495A452E2E
:10E310000000000073645F626C655F6366675F7333
:10E32000657428292072657475726E656420257382
:10E33000207768656E20617474656D7074696E67AE
:10E3400020746F2073657420424C455F434F4E4EDE
:10E350005F4346475F4741502E00000073645F6291
:10E360006C655F6366675F736574282920726574E6
:10E3700075726E6564202573207768656E20617400
:10E3800074656D7074696E6720746F207365742096
:10E39000424C455F4741505F4346475F524F4C45B3
:10E3A0005F434F554E542E0073645F626C655F632C
:10E3B00066675F73657428292072657475726E656F
:10E3C00064202573207768656E20617474656D70B4
:10E3D00074696E6720746F2073657420424C455FCA
:10E3E000434F4E4E5F4346475F474154542E000013
:10E3F000626C655F64625F64697363006E72665F1E
:10E40000626C655F67617474000000006E72665F25
:10E41000626C655F67710000626C655F7363616E5B
:10E4200000000000626C655F6E75735F6300000042
:10E43000636C6F636B000000434C4F434B00000064
:10E440004750494F544500005052530055415254D3
:10E450000000000055415254450000006170705F9B
:10E46000627574746F6E00006170705F74696D65C1
:10E47000720000007077725F6D676D7400000000BD
:10E48000736F72746C697374000000007274745F4F
:10E490006C6F675F6261636B656E640061707000D2
:10E4A0006E72665F736468006E72665F7364685F45
:10E4B000626C65006E72665F7364685F736F6300A1
:10E4C00020E60200282A0020200700003465020010
:10E4D00088E6020048310020B02C00002C6B0200BE
:10E4E00088D80200000000008CE40200E430002024
:10E4F000F0E3020000000404FCE302000000040456
:10E500000CE402000000040418E40200000004040B
:10E5100024E402000000040430E4020000000000D3
:10E5200038E402000000000040E4020000000000A7
:10E5300048E40200000000004CE40200000000007B
:10E5400054E40200000000005CE40200000000004F
:10E5500068E402000000000074E402000000000013
:10E5600080E40200000000009CE4020000000404BB
:10E57000A0E4020000000303A8E40200000003037B
:10E58000B4E4020000000303203000201630002015
:10E590001E300020DC32002018000000F83000207F
:10E5A000F0300020F8300020F8350020180000007E
:10E5B000D0320020123000200100000002000000D4
:10E5C00001000000D1CC020061950200C0310020A2
:10E5D000657602002C2A0020759B0200D4310020B1
:10E5E00019980200FC2F00206D7802000000000046
:10E5F000217A0200A8310020E97602000000000024
:10E600006DCD020000000000E1AD0200000000003E
:10E61000E1AE020000000000CDCB020000000000CF
:10E6200002FF1401FF01CF03FFFFFF01FF01FF7194
:10E63000320113103015209CD50214B0E5021A885F
:10E6400004037FFFFF15100140110222041220BABB
:10E650004008011F29D7091EDB1418E20214B8E193
:10E66000021A10081AC0081AD0041AC8041AD804CA
:10E670001AE0041AE8041AF0041AF8041119241A0A
:08E68000080451040090D003CE
:040000050002620192
:00000001FF
