Component: ARM Compiler 5.06 update 6 (build 750) Tool: armlink [4d35ed]

==============================================================================

Section Cross References

    main.o(i.application_timers_start) refers to app_timer2.o(i.app_timer_start) for app_timer_start
    main.o(i.application_timers_start) refers to app_error.o(i.app_error_handler_bare) for app_error_handler_bare
    main.o(i.application_timers_start) refers to main.o(.constdata) for .constdata
    main.o(i.assert_nrf_callback) refers to app_error_handler_keil.o(.emb_text) for app_error_handler
    main.o(i.battery_level_meas_timeout_handler) refers to sensorsim.o(i.sensorsim_measure) for sensorsim_measure
    main.o(i.battery_level_meas_timeout_handler) refers to ble_bas.o(i.ble_bas_battery_level_update) for ble_bas_battery_level_update
    main.o(i.battery_level_meas_timeout_handler) refers to app_error.o(i.app_error_handler_bare) for app_error_handler_bare
    main.o(i.battery_level_meas_timeout_handler) refers to main.o(.bss) for .bss
    main.o(i.battery_level_meas_timeout_handler) refers to main.o(.data) for .data
    main.o(i.ble_evt_handler) refers to nrf_log_frontend.o(i.nrf_log_frontend_std_1) for nrf_log_frontend_std_1
    main.o(i.ble_evt_handler) refers to nrf_log_frontend.o(i.nrf_log_frontend_std_0) for nrf_log_frontend_std_0
    main.o(i.ble_evt_handler) refers to bsp.o(i.bsp_indication_set) for bsp_indication_set
    main.o(i.ble_evt_handler) refers to app_error.o(i.app_error_handler_bare) for app_error_handler_bare
    main.o(i.ble_evt_handler) refers to nrf_ble_qwr.o(i.nrf_ble_qwr_conn_handle_assign) for nrf_ble_qwr_conn_handle_assign
    main.o(i.ble_evt_handler) refers to main.o(i.sleep_mode_enter) for sleep_mode_enter
    main.o(i.ble_evt_handler) refers to nrf_log_frontend.o(i.nrf_log_frontend_std_2) for nrf_log_frontend_std_2
    main.o(i.ble_evt_handler) refers to nrf_log_frontend.o(log_const_data) for m_nrf_log_app_logs_data_const
    main.o(i.ble_evt_handler) refers to main.o(.data) for .data
==============================================================================

Removing Unused input sections from the image.

    Removing main.o(.rev16_text), (4 bytes).
    Removing main.o(.revsh_text), (4 bytes).
    Removing main.o(.rrx_text), (6 bytes).
    Removing main.o(i.assert_nrf_callback), (16 bytes).
    Removing boards.o(.rev16_text), (4 bytes).
    Removing boards.o(.revsh_text), (4 bytes).
    Removing boards.o(.rrx_text), (6 bytes).
    Removing boards.o(i.bsp_board_led_idx_to_pin), (12 bytes).
    Removing boards.o(i.bsp_board_pin_to_led_idx), (36 bytes).
    Removing bsp.o(.rev16_text), (4 bytes).
    Removing bsp.o(.revsh_text), (4 bytes).
    Removing bsp.o(.rrx_text), (6 bytes).
    Removing bsp.o(i.bsp_buttons_disable), (4 bytes).
    Removing bsp.o(i.bsp_buttons_enable), (4 bytes).
    Removing bsp.o(i.bsp_wakeup_button_disable), (6 bytes).
    Removing bsp_btn_ble.o(.rev16_text), (4 bytes).
    Removing bsp_btn_ble.o(.revsh_text), (4 bytes).
    Removing bsp_btn_ble.o(.rrx_text), (6 bytes).
==============================================================================

Image Symbol Table

    Local Symbols

    Symbol Name                              Value     Ov Type        Size  Object(Section)

    ../clib/../cmprslib/zerorunl2.c          0x00000000   Number         0  __dczerorl2.o ABSOLUTE
    ../clib/microlib/ctype/ctype.c           0x00000000   Number         0  isalnum_o.o ABSOLUTE
    ../clib/microlib/ctype/ctype.c           0x00000000   Number         0  isxdigit_o.o ABSOLUTE
    ../clib/microlib/ctype/ctype.c           0x00000000   Number         0  isupper_o.o ABSOLUTE
    ../clib/microlib/ctype/ctype.c           0x00000000   Number         0  isdigit_o.o ABSOLUTE
    ../clib/microlib/ctype/ctype.c           0x00000000   Number         0  isgraph_o.o ABSOLUTE
    ../clib/microlib/ctype/ctype.c           0x00000000   Number         0  isspace_o.o ABSOLUTE
    ../clib/microlib/ctype/ctype.c           0x00000000   Number         0  iscntrl_o.o ABSOLUTE
    ../clib/microlib/ctype/ctype.c           0x00000000   Number         0  islower_o.o ABSOLUTE
    ../clib/microlib/ctype/ctype.c           0x00000000   Number         0  ispunct_o.o ABSOLUTE
    ../clib/microlib/ctype/ctype.c           0x00000000   Number         0  isprint_o.o ABSOLUTE
    ../clib/microlib/ctype/ctype.c           0x00000000   Number         0  ctype_o.o ABSOLUTE
    ../clib/microlib/ctype/ctype.c           0x00000000   Number         0  isalpha_o.o ABSOLUTE
    ../clib/microlib/ctype/ctype.c           0x00000000   Number         0  isblank_o.o ABSOLUTE
    ../clib/microlib/division.c              0x00000000   Number         0  uldiv.o ABSOLUTE
    ../clib/microlib/init/entry.s            0x00000000   Number         0  entry2.o ABSOLUTE
    ../clib/microlib/init/entry.s            0x00000000   Number         0  entry5.o ABSOLUTE
    ../clib/microlib/init/entry.s            0x00000000   Number         0  entry.o ABSOLUTE
    ../clib/microlib/init/entry.s            0x00000000   Number         0  entry11b.o ABSOLUTE
    ../clib/microlib/init/entry.s            0x00000000   Number         0  entry11a.o ABSOLUTE
    ../clib/microlib/init/entry.s            0x00000000   Number         0  entry10b.o ABSOLUTE
    ../clib/microlib/init/entry.s            0x00000000   Number         0  entry10a.o ABSOLUTE
    ../clib/microlib/init/entry.s            0x00000000   Number         0  entry9b.o ABSOLUTE
    ../clib/microlib/init/entry.s            0x00000000   Number         0  entry9a.o ABSOLUTE
    ../clib/microlib/init/entry.s            0x00000000   Number         0  entry8a.o ABSOLUTE
    ../clib/microlib/init/entry.s            0x00000000   Number         0  entry8b.o ABSOLUTE
    ../clib/microlib/init/entry.s            0x00000000   Number         0  entry7a.o ABSOLUTE
    ../clib/microlib/init/entry.s            0x00000000   Number         0  entry7b.o ABSOLUTE
    ../clib/microlib/longlong.c              0x00000000   Number         0  llshl.o ABSOLUTE
    ../clib/microlib/longlong.c              0x00000000   Number         0  llushr.o ABSOLUTE
    ../clib/microlib/stdio/fflush.c          0x00000000   Number         0  fflush.o ABSOLUTE
    ../clib/microlib/stdio/fputc.c           0x00000000   Number         0  fputc.o ABSOLUTE
    ../clib/microlib/stdio/semi.s            0x00000000   Number         0  semi.o ABSOLUTE
    ../clib/microlib/stdio/streams.c         0x00000000   Number         0  stdout.o ABSOLUTE
    ../clib/microlib/string/memcmp.c         0x00000000   Number         0  memcmp.o ABSOLUTE
    ../clib/microlib/string/memcpy.c         0x00000000   Number         0  memmovec.o ABSOLUTE
    ../clib/microlib/string/memcpy.c         0x00000000   Number         0  memmoveb.o ABSOLUTE
    ../clib/microlib/string/memcpy.c         0x00000000   Number         0  memcpyc.o ABSOLUTE
    ../clib/microlib/string/memcpy.c         0x00000000   Number         0  memcpyb.o ABSOLUTE
    ../clib/microlib/string/memcpy.c         0x00000000   Number         0  memmovea.o ABSOLUTE
    ../clib/microlib/string/memcpy.c         0x00000000   Number         0  memmove.o ABSOLUTE
    ../clib/microlib/string/memcpy.c         0x00000000   Number         0  memcpy.o ABSOLUTE
    ../clib/microlib/string/memcpy.c         0x00000000   Number         0  memcpya.o ABSOLUTE
    ../clib/microlib/string/memset.c         0x00000000   Number         0  memseta.o ABSOLUTE
    ../clib/microlib/string/memset.c         0x00000000   Number         0  memset.o ABSOLUTE
    ../clib/microlib/string/strcmp.c         0x00000000   Number         0  strcmp.o ABSOLUTE
    ../clib/microlib/string/strcpy.c         0x00000000   Number         0  strcpy.o ABSOLUTE
    ../clib/microlib/string/strlen.c         0x00000000   Number         0  strlen.o ABSOLUTE
    ../clib/microlib/stubs.s                 0x00000000   Number         0  useno.o ABSOLUTE
    ../clib/microlib/stubs.s                 0x00000000   Number         0  iusesemip.o ABSOLUTE
    ..\..\..\..\..\..\..\components\ble\ble_advertising\ble_advertising.c 0x00000000   Number         0  ble_advertising.o ABSOLUTE
    ..\..\..\..\..\..\..\components\ble\ble_services\ble_bas\ble_bas.c 0x00000000   Number         0  ble_bas.o ABSOLUTE
    ..\..\..\..\..\..\..\components\ble\ble_services\ble_dis\ble_dis.c 0x00000000   Number         0  ble_dis.o ABSOLUTE
    ..\..\..\..\..\..\..\components\ble\ble_services\ble_hrs\ble_hrs.c 0x00000000   Number         0  ble_hrs.o ABSOLUTE
    ..\..\..\..\..\..\..\components\ble\common\ble_advdata.c 0x00000000   Number         0  ble_advdata.o ABSOLUTE
    ..\..\..\..\..\..\..\components\ble\common\ble_conn_params.c 0x00000000   Number         0  ble_conn_params.o ABSOLUTE
    ..\..\..\..\..\..\..\components\ble\common\ble_conn_state.c 0x00000000   Number         0  ble_conn_state.o ABSOLUTE
    ..\..\..\..\..\..\..\components\ble\common\ble_srv_common.c 0x00000000   Number         0  ble_srv_common.o ABSOLUTE
    ..\..\..\..\..\..\..\components\ble\nrf_ble_gatt\nrf_ble_gatt.c 0x00000000   Number         0  nrf_ble_gatt.o ABSOLUTE
    ..\..\..\..\..\..\..\components\ble\nrf_ble_qwr\nrf_ble_qwr.c 0x00000000   Number         0  nrf_ble_qwr.o ABSOLUTE
    ..\..\..\..\..\..\..\components\ble\peer_manager\auth_status_tracker.c 0x00000000   Number         0  auth_status_tracker.o ABSOLUTE
    ..\..\..\..\..\..\..\components\ble\peer_manager\gatt_cache_manager.c 0x00000000   Number         0  gatt_cache_manager.o ABSOLUTE
    ..\..\..\..\..\..\..\components\ble\peer_manager\gatts_cache_manager.c 0x00000000   Number         0  gatts_cache_manager.o ABSOLUTE
    ..\..\..\..\..\..\..\components\ble\peer_manager\id_manager.c 0x00000000   Number         0  id_manager.o ABSOLUTE
    ..\..\..\..\..\..\..\components\ble\peer_manager\nrf_ble_lesc.c 0x00000000   Number         0  nrf_ble_lesc.o ABSOLUTE
    ..\..\..\..\..\..\..\components\ble\peer_manager\peer_data_storage.c 0x00000000   Number         0  peer_data_storage.o ABSOLUTE
    ..\..\..\..\..\..\..\components\ble\peer_manager\peer_database.c 0x00000000   Number         0  peer_database.o ABSOLUTE
    ..\..\..\..\..\..\..\components\ble\peer_manager\peer_id.c 0x00000000   Number         0  peer_id.o ABSOLUTE
    ..\..\..\..\..\..\..\components\ble\peer_manager\peer_manager.c 0x00000000   Number         0  peer_manager.o ABSOLUTE
    ..\..\..\..\..\..\..\components\ble\peer_manager\peer_manager_handler.c 0x00000000   Number         0  peer_manager_handler.o ABSOLUTE
    ..\..\..\..\..\..\..\components\ble\peer_manager\pm_buffer.c 0x00000000   Number         0  pm_buffer.o ABSOLUTE
    ..\..\..\..\..\..\..\components\ble\peer_manager\security_dispatcher.c 0x00000000   Number         0  security_dispatcher.o ABSOLUTE
    ..\..\..\..\..\..\..\components\ble\peer_manager\security_manager.c 0x00000000   Number         0  security_manager.o ABSOLUTE
    ..\..\..\..\..\..\..\components\boards\boards.c 0x00000000   Number         0  boards.o ABSOLUTE
    ..\..\..\..\..\..\..\components\libraries\atomic\nrf_atomic.c 0x00000000   Number         0  nrf_atomic.o ABSOLUTE
    ..\..\..\..\..\..\..\components\libraries\atomic_fifo\nrf_atfifo.c 0x00000000   Number         0  nrf_atfifo.o ABSOLUTE
    ..\..\..\..\..\..\..\components\libraries\atomic_flags\nrf_atflags.c 0x00000000   Number         0  nrf_atflags.o ABSOLUTE
    ..\..\..\..\..\..\..\components\libraries\balloc\nrf_balloc.c 0x00000000   Number         0  nrf_balloc.o ABSOLUTE
    ..\..\..\..\..\..\..\components\libraries\bsp\bsp.c 0x00000000   Number         0  bsp.o ABSOLUTE
    ..\..\..\..\..\..\..\components\libraries\bsp\bsp_btn_ble.c 0x00000000   Number         0  bsp_btn_ble.o ABSOLUTE
    ..\..\..\..\..\..\..\components\libraries\bsp\bsp_nfc.c 0x00000000   Number         0  bsp_nfc.o ABSOLUTE
    ..\..\..\..\..\..\..\components\libraries\button\app_button.c 0x00000000   Number         0  app_button.o ABSOLUTE
    ..\..\..\..\..\..\..\components\libraries\crc16\crc16.c 0x00000000   Number         0  crc16.o ABSOLUTE
    ..\..\..\..\..\..\..\components\libraries\crypto\backend\nrf_hw\nrf_hw_backend_init.c 0x00000000   Number         0  nrf_hw_backend_init.o ABSOLUTE
    ..\..\..\..\..\..\..\components\libraries\crypto\backend\nrf_hw\nrf_hw_backend_rng.c 0x00000000   Number         0  nrf_hw_backend_rng.o ABSOLUTE
    ..\..\..\..\..\..\..\components\libraries\crypto\backend\nrf_hw\nrf_hw_backend_rng_mbedtls.c 0x00000000   Number         0  nrf_hw_backend_rng_mbedtls.o ABSOLUTE
    ..\..\..\..\..\..\..\components\libraries\crypto\backend\oberon\oberon_backend_chacha_poly_aead.c 0x00000000   Number         0  oberon_backend_chacha_poly_aead.o ABSOLUTE
    ..\..\..\..\..\..\..\components\libraries\crypto\backend\oberon\oberon_backend_ecc.c 0x00000000   Number         0  oberon_backend_ecc.o ABSOLUTE
    ..\..\..\..\..\..\..\components\libraries\crypto\backend\oberon\oberon_backend_ecdh.c 0x00000000   Number         0  oberon_backend_ecdh.o ABSOLUTE
    ..\..\..\..\..\..\..\components\libraries\crypto\backend\oberon\oberon_backend_ecdsa.c 0x00000000   Number         0  oberon_backend_ecdsa.o ABSOLUTE
    ..\..\..\..\..\..\..\components\libraries\crypto\backend\oberon\oberon_backend_eddsa.c 0x00000000   Number         0  oberon_backend_eddsa.o ABSOLUTE
    ..\..\..\..\..\..\..\components\libraries\crypto\backend\oberon\oberon_backend_hash.c 0x00000000   Number         0  oberon_backend_hash.o ABSOLUTE
    ..\..\..\..\..\..\..\components\libraries\crypto\backend\oberon\oberon_backend_hmac.c 0x00000000   Number         0  oberon_backend_hmac.o ABSOLUTE
    ..\..\..\..\..\..\..\components\libraries\crypto\nrf_crypto_aead.c 0x00000000   Number         0  nrf_crypto_aead.o ABSOLUTE
    ..\..\..\..\..\..\..\components\libraries\crypto\nrf_crypto_aes.c 0x00000000   Number         0  nrf_crypto_aes.o ABSOLUTE
    ..\..\..\..\..\..\..\components\libraries\crypto\nrf_crypto_aes_shared.c 0x00000000   Number         0  nrf_crypto_aes_shared.o ABSOLUTE
    ..\..\..\..\..\..\..\components\libraries\crypto\nrf_crypto_ecc.c 0x00000000   Number         0  nrf_crypto_ecc.o ABSOLUTE
    ..\..\..\..\..\..\..\components\libraries\crypto\nrf_crypto_ecdh.c 0x00000000   Number         0  nrf_crypto_ecdh.o ABSOLUTE
    ..\..\..\..\..\..\..\components\libraries\crypto\nrf_crypto_ecdsa.c 0x00000000   Number         0  nrf_crypto_ecdsa.o ABSOLUTE
    ..\..\..\..\..\..\..\components\libraries\crypto\nrf_crypto_eddsa.c 0x00000000   Number         0  nrf_crypto_eddsa.o ABSOLUTE
    ..\..\..\..\..\..\..\components\libraries\crypto\nrf_crypto_error.c 0x00000000   Number         0  nrf_crypto_error.o ABSOLUTE
    ..\..\..\..\..\..\..\components\libraries\crypto\nrf_crypto_hash.c 0x00000000   Number         0  nrf_crypto_hash.o ABSOLUTE
    ..\..\..\..\..\..\..\components\libraries\crypto\nrf_crypto_hkdf.c 0x00000000   Number         0  nrf_crypto_hkdf.o ABSOLUTE
    ..\..\..\..\..\..\..\components\libraries\crypto\nrf_crypto_hmac.c 0x00000000   Number         0  nrf_crypto_hmac.o ABSOLUTE
    ..\..\..\..\..\..\..\components\libraries\crypto\nrf_crypto_init.c 0x00000000   Number         0  nrf_crypto_init.o ABSOLUTE
    ..\..\..\..\..\..\..\components\libraries\crypto\nrf_crypto_rng.c 0x00000000   Number         0  nrf_crypto_rng.o ABSOLUTE
    ..\..\..\..\..\..\..\components\libraries\crypto\nrf_crypto_shared.c 0x00000000   Number         0  nrf_crypto_shared.o ABSOLUTE
    ..\..\..\..\..\..\..\components\libraries\experimental_section_vars\nrf_section_iter.c 0x00000000   Number         0  nrf_section_iter.o ABSOLUTE
    ..\..\..\..\..\..\..\components\libraries\fds\fds.c 0x00000000   Number         0  fds.o ABSOLUTE
    ..\..\..\..\..\..\..\components\libraries\fstorage\nrf_fstorage.c 0x00000000   Number         0  nrf_fstorage.o ABSOLUTE
    ..\..\..\..\..\..\..\components\libraries\fstorage\nrf_fstorage_sd.c 0x00000000   Number         0  nrf_fstorage_sd.o ABSOLUTE
    ..\..\..\..\..\..\..\components\libraries\hardfault\hardfault_implementation.c 0x00000000   Number         0  hardfault_implementation.o ABSOLUTE
    ..\..\..\..\..\..\..\components\libraries\log\src\nrf_log_backend_rtt.c 0x00000000   Number         0  nrf_log_backend_rtt.o ABSOLUTE
    ..\..\..\..\..\..\..\components\libraries\log\src\nrf_log_backend_serial.c 0x00000000   Number         0  nrf_log_backend_serial.o ABSOLUTE
    ..\..\..\..\..\..\..\components\libraries\log\src\nrf_log_backend_uart.c 0x00000000   Number         0  nrf_log_backend_uart.o ABSOLUTE
    ..\..\..\..\..\..\..\components\libraries\log\src\nrf_log_default_backends.c 0x00000000   Number         0  nrf_log_default_backends.o ABSOLUTE
    ..\..\..\..\..\..\..\components\libraries\log\src\nrf_log_frontend.c 0x00000000   Number         0  nrf_log_frontend.o ABSOLUTE
    ..\..\..\..\..\..\..\components\libraries\log\src\nrf_log_str_formatter.c 0x00000000   Number         0  nrf_log_str_formatter.o ABSOLUTE
    ..\..\..\..\..\..\..\components\libraries\mem_manager\mem_manager.c 0x00000000   Number         0  mem_manager.o ABSOLUTE
    ..\..\..\..\..\..\..\components\libraries\memobj\nrf_memobj.c 0x00000000   Number         0  nrf_memobj.o ABSOLUTE
    ..\..\..\..\..\..\..\components\libraries\pwr_mgmt\nrf_pwr_mgmt.c 0x00000000   Number         0  nrf_pwr_mgmt.o ABSOLUTE
    ..\..\..\..\..\..\..\components\libraries\queue\nrf_queue.c 0x00000000   Number         0  nrf_queue.o ABSOLUTE
    ..\..\..\..\..\..\..\components\libraries\ringbuf\nrf_ringbuf.c 0x00000000   Number         0  nrf_ringbuf.o ABSOLUTE
    ..\..\..\..\..\..\..\components\libraries\scheduler\app_scheduler.c 0x00000000   Number         0  app_scheduler.o ABSOLUTE
    ..\..\..\..\..\..\..\components\libraries\sensorsim\sensorsim.c 0x00000000   Number         0  sensorsim.o ABSOLUTE
    ..\..\..\..\..\..\..\components\libraries\sortlist\nrf_sortlist.c 0x00000000   Number         0  nrf_sortlist.o ABSOLUTE
    ..\..\..\..\..\..\..\components\libraries\strerror\nrf_strerror.c 0x00000000   Number         0  nrf_strerror.o ABSOLUTE
    ..\..\..\..\..\..\..\components\libraries\timer\app_timer2.c 0x00000000   Number         0  app_timer2.o ABSOLUTE
    ..\..\..\..\..\..\..\components\libraries\timer\drv_rtc.c 0x00000000   Number         0  drv_rtc.o ABSOLUTE
    ..\..\..\..\..\..\..\components\libraries\util\app_error.c 0x00000000   Number         0  app_error.o ABSOLUTE
    ..\..\..\..\..\..\..\components\libraries\util\app_error_handler_keil.c 0x00000000   Number         0  app_error_handler_keil.o ABSOLUTE
    ..\..\..\..\..\..\..\components\libraries\util\app_error_weak.c 0x00000000   Number         0  app_error_weak.o ABSOLUTE
    ..\..\..\..\..\..\..\components\libraries\util\app_util_platform.c 0x00000000   Number         0  app_util_platform.o ABSOLUTE
    ..\..\..\..\..\..\..\components\libraries\util\nrf_assert.c 0x00000000   Number         0  nrf_assert.o ABSOLUTE
    ..\..\..\..\..\..\..\components\nfc\ndef\connection_handover\ac_rec\nfc_ac_rec.c 0x00000000   Number         0  nfc_ac_rec.o ABSOLUTE
    ..\..\..\..\..\..\..\components\nfc\ndef\connection_handover\ble_oob_advdata\nfc_ble_oob_advdata.c 0x00000000   Number         0  nfc_ble_oob_advdata.o ABSOLUTE
    ..\..\..\..\..\..\..\components\nfc\ndef\connection_handover\ble_pair_lib\nfc_ble_pair_lib.c 0x00000000   Number         0  nfc_ble_pair_lib.o ABSOLUTE
    ..\..\..\..\..\..\..\components\nfc\ndef\connection_handover\ble_pair_msg\nfc_ble_pair_msg.c 0x00000000   Number         0  nfc_ble_pair_msg.o ABSOLUTE
    ..\..\..\..\..\..\..\components\nfc\ndef\connection_handover\common\nfc_ble_pair_common.c 0x00000000   Number         0  nfc_ble_pair_common.o ABSOLUTE
    ..\..\..\..\..\..\..\components\nfc\ndef\connection_handover\ep_oob_rec\nfc_ep_oob_rec.c 0x00000000   Number         0  nfc_ep_oob_rec.o ABSOLUTE
    ..\..\..\..\..\..\..\components\nfc\ndef\connection_handover\hs_rec\nfc_hs_rec.c 0x00000000   Number         0  nfc_hs_rec.o ABSOLUTE
    ..\..\..\..\..\..\..\components\nfc\ndef\connection_handover\le_oob_rec\nfc_le_oob_rec.c 0x00000000   Number         0  nfc_le_oob_rec.o ABSOLUTE
    ..\..\..\..\..\..\..\components\nfc\ndef\generic\message\nfc_ndef_msg.c 0x00000000   Number         0  nfc_ndef_msg.o ABSOLUTE
    ..\..\..\..\..\..\..\components\nfc\ndef\generic\record\nfc_ndef_record.c 0x00000000   Number         0  nfc_ndef_record.o ABSOLUTE
    ..\..\..\..\..\..\..\components\nfc\platform\nfc_platform.c 0x00000000   Number         0  nfc_platform.o ABSOLUTE
    ..\..\..\..\..\..\..\components\softdevice\common\nrf_sdh.c 0x00000000   Number         0  nrf_sdh.o ABSOLUTE
    ..\..\..\..\..\..\..\components\softdevice\common\nrf_sdh_ble.c 0x00000000   Number         0  nrf_sdh_ble.o ABSOLUTE
    ..\..\..\..\..\..\..\components\softdevice\common\nrf_sdh_soc.c 0x00000000   Number         0  nrf_sdh_soc.o ABSOLUTE
    ..\..\..\..\..\..\..\external\fprintf\nrf_fprintf.c 0x00000000   Number         0  nrf_fprintf.o ABSOLUTE
    ..\..\..\..\..\..\..\external\fprintf\nrf_fprintf_format.c 0x00000000   Number         0  nrf_fprintf_format.o ABSOLUTE
    ..\..\..\..\..\..\..\external\mbedtls\library\aes.c 0x00000000   Number         0  aes.o ABSOLUTE
    ..\..\..\..\..\..\..\external\mbedtls\library\ctr_drbg.c 0x00000000   Number         0  ctr_drbg.o ABSOLUTE
    ..\..\..\..\..\..\..\external\mbedtls\library\platform_util.c 0x00000000   Number         0  platform_util.o ABSOLUTE
    ..\..\..\..\..\..\..\external\segger_rtt\SEGGER_RTT.c 0x00000000   Number         0  segger_rtt.o ABSOLUTE
    ..\..\..\..\..\..\..\external\segger_rtt\SEGGER_RTT_Syscalls_KEIL.c 0x00000000   Number         0  segger_rtt_syscalls_keil.o ABSOLUTE
    ..\..\..\..\..\..\..\external\segger_rtt\SEGGER_RTT_printf.c 0x00000000   Number         0  segger_rtt_printf.o ABSOLUTE
    ..\..\..\..\..\..\..\external\utf_converter\utf.c 0x00000000   Number         0  utf.o ABSOLUTE
    ..\..\..\..\..\..\..\integration\nrfx\legacy\nrf_drv_clock.c 0x00000000   Number         0  nrf_drv_clock.o ABSOLUTE
    ..\..\..\..\..\..\..\integration\nrfx\legacy\nrf_drv_rng.c 0x00000000   Number         0  nrf_drv_rng.o ABSOLUTE
    ..\..\..\..\..\..\..\integration\nrfx\legacy\nrf_drv_uart.c 0x00000000   Number         0  nrf_drv_uart.o ABSOLUTE
    ..\..\..\..\..\..\..\modules\nrfx\drivers\src\nrfx_clock.c 0x00000000   Number         0  nrfx_clock.o ABSOLUTE
    ..\..\..\..\..\..\..\modules\nrfx\drivers\src\nrfx_gpiote.c 0x00000000   Number         0  nrfx_gpiote.o ABSOLUTE
    ..\..\..\..\..\..\..\modules\nrfx\drivers\src\nrfx_nfct.c 0x00000000   Number         0  nrfx_nfct.o ABSOLUTE
    ..\..\..\..\..\..\..\modules\nrfx\drivers\src\nrfx_rng.c 0x00000000   Number         0  nrfx_rng.o ABSOLUTE
    ..\..\..\..\..\..\..\modules\nrfx\drivers\src\nrfx_timer.c 0x00000000   Number         0  nrfx_timer.o ABSOLUTE
    ..\..\..\..\..\..\..\modules\nrfx\drivers\src\nrfx_uart.c 0x00000000   Number         0  nrfx_uart.o ABSOLUTE
    ..\..\..\..\..\..\..\modules\nrfx\drivers\src\nrfx_uarte.c 0x00000000   Number         0  nrfx_uarte.o ABSOLUTE
    ..\..\..\..\..\..\..\modules\nrfx\drivers\src\prs\nrfx_prs.c 0x00000000   Number         0  nrfx_prs.o ABSOLUTE
    ..\..\..\..\..\..\..\modules\nrfx\soc\nrfx_atomic.c 0x00000000   Number         0  nrfx_atomic.o ABSOLUTE
    ..\..\..\main.c                          0x00000000   Number         0  main.o ABSOLUTE
    ..\\..\\..\\..\\..\\..\\..\\components\\ble\\ble_advertising\\ble_advertising.c 0x00000000   Number         0  ble_advertising.o ABSOLUTE
    ..\\..\\..\\..\\..\\..\\..\\components\\ble\\ble_services\\ble_bas\\ble_bas.c 0x00000000   Number         0  ble_bas.o ABSOLUTE
    ..\\..\\..\\..\\..\\..\\..\\components\\ble\\ble_services\\ble_dis\\ble_dis.c 0x00000000   Number         0  ble_dis.o ABSOLUTE
    ..\\..\\..\\..\\..\\..\\..\\components\\ble\\ble_services\\ble_hrs\\ble_hrs.c 0x00000000   Number         0  ble_hrs.o ABSOLUTE
    ..\\..\\..\\..\\..\\..\\..\\components\\ble\\common\\ble_advdata.c 0x00000000   Number         0  ble_advdata.o ABSOLUTE
    ..\\..\\..\\..\\..\\..\\..\\components\\ble\\common\\ble_conn_params.c 0x00000000   Number         0  ble_conn_params.o ABSOLUTE
    ..\\..\\..\\..\\..\\..\\..\\components\\ble\\common\\ble_conn_state.c 0x00000000   Number         0  ble_conn_state.o ABSOLUTE
    ..\\..\\..\\..\\..\\..\\..\\components\\ble\\common\\ble_srv_common.c 0x00000000   Number         0  ble_srv_common.o ABSOLUTE
    ..\\..\\..\\..\\..\\..\\..\\components\\ble\\nrf_ble_gatt\\nrf_ble_gatt.c 0x00000000   Number         0  nrf_ble_gatt.o ABSOLUTE
    ..\\..\\..\\..\\..\\..\\..\\components\\ble\\nrf_ble_qwr\\nrf_ble_qwr.c 0x00000000   Number         0  nrf_ble_qwr.o ABSOLUTE
    ..\\..\\..\\..\\..\\..\\..\\components\\ble\\peer_manager\\auth_status_tracker.c 0x00000000   Number         0  auth_status_tracker.o ABSOLUTE
    ..\\..\\..\\..\\..\\..\\..\\components\\ble\\peer_manager\\gatt_cache_manager.c 0x00000000   Number         0  gatt_cache_manager.o ABSOLUTE
    ..\\..\\..\\..\\..\\..\\..\\components\\ble\\peer_manager\\gatts_cache_manager.c 0x00000000   Number         0  gatts_cache_manager.o ABSOLUTE
    ..\\..\\..\\..\\..\\..\\..\\components\\ble\\peer_manager\\id_manager.c 0x00000000   Number         0  id_manager.o ABSOLUTE
    ..\\..\\..\\..\\..\\..\\..\\components\\ble\\peer_manager\\nrf_ble_lesc.c 0x00000000   Number         0  nrf_ble_lesc.o ABSOLUTE
    ..\\..\\..\\..\\..\\..\\..\\components\\ble\\peer_manager\\peer_data_storage.c 0x00000000   Number         0  peer_data_storage.o ABSOLUTE
    ..\\..\\..\\..\\..\\..\\..\\components\\ble\\peer_manager\\peer_database.c 0x00000000   Number         0  peer_database.o ABSOLUTE
    ..\\..\\..\\..\\..\\..\\..\\components\\ble\\peer_manager\\peer_id.c 0x00000000   Number         0  peer_id.o ABSOLUTE
    ..\\..\\..\\..\\..\\..\\..\\components\\ble\\peer_manager\\peer_manager.c 0x00000000   Number         0  peer_manager.o ABSOLUTE
    ..\\..\\..\\..\\..\\..\\..\\components\\ble\\peer_manager\\peer_manager_handler.c 0x00000000   Number         0  peer_manager_handler.o ABSOLUTE
    ..\\..\\..\\..\\..\\..\\..\\components\\ble\\peer_manager\\pm_buffer.c 0x00000000   Number         0  pm_buffer.o ABSOLUTE
    ..\\..\\..\\..\\..\\..\\..\\components\\ble\\peer_manager\\security_dispatcher.c 0x00000000   Number         0  security_dispatcher.o ABSOLUTE
    ..\\..\\..\\..\\..\\..\\..\\components\\ble\\peer_manager\\security_manager.c 0x00000000   Number         0  security_manager.o ABSOLUTE
    ..\\..\\..\\..\\..\\..\\..\\components\\boards\\boards.c 0x00000000   Number         0  boards.o ABSOLUTE
    ..\\..\\..\\..\\..\\..\\..\\components\\libraries\\atomic\\nrf_atomic.c 0x00000000   Number         0  nrf_atomic.o ABSOLUTE
    ..\\..\\..\\..\\..\\..\\..\\components\\libraries\\atomic_fifo\\nrf_atfifo.c 0x00000000   Number         0  nrf_atfifo.o ABSOLUTE
    ..\\..\\..\\..\\..\\..\\..\\components\\libraries\\atomic_flags\\nrf_atflags.c 0x00000000   Number         0  nrf_atflags.o ABSOLUTE
    ..\\..\\..\\..\\..\\..\\..\\components\\libraries\\balloc\\nrf_balloc.c 0x00000000   Number         0  nrf_balloc.o ABSOLUTE
    ..\\..\\..\\..\\..\\..\\..\\components\\libraries\\bsp\\bsp.c 0x00000000   Number         0  bsp.o ABSOLUTE
    ..\\..\\..\\..\\..\\..\\..\\components\\libraries\\bsp\\bsp_btn_ble.c 0x00000000   Number         0  bsp_btn_ble.o ABSOLUTE
    ..\\..\\..\\..\\..\\..\\..\\components\\libraries\\bsp\\bsp_nfc.c 0x00000000   Number         0  bsp_nfc.o ABSOLUTE
    ..\\..\\..\\..\\..\\..\\..\\components\\libraries\\button\\app_button.c 0x00000000   Number         0  app_button.o ABSOLUTE
    ..\\..\\..\\..\\..\\..\\..\\components\\libraries\\crc16\\crc16.c 0x00000000   Number         0  crc16.o ABSOLUTE
    ..\\..\\..\\..\\..\\..\\..\\components\\libraries\\crypto\\backend\\nrf_hw\\nrf_hw_backend_init.c 0x00000000   Number         0  nrf_hw_backend_init.o ABSOLUTE
    ..\\..\\..\\..\\..\\..\\..\\components\\libraries\\crypto\\backend\\nrf_hw\\nrf_hw_backend_rng.c 0x00000000   Number         0  nrf_hw_backend_rng.o ABSOLUTE
    ..\\..\\..\\..\\..\\..\\..\\components\\libraries\\crypto\\backend\\nrf_hw\\nrf_hw_backend_rng_mbedtls.c 0x00000000   Number         0  nrf_hw_backend_rng_mbedtls.o ABSOLUTE
    ..\\..\\..\\..\\..\\..\\..\\components\\libraries\\crypto\\backend\\oberon\\oberon_backend_chacha_poly_aead.c 0x00000000   Number         0  oberon_backend_chacha_poly_aead.o ABSOLUTE
    ..\\..\\..\\..\\..\\..\\..\\components\\libraries\\crypto\\backend\\oberon\\oberon_backend_ecc.c 0x00000000   Number         0  oberon_backend_ecc.o ABSOLUTE
    ..\\..\\..\\..\\..\\..\\..\\components\\libraries\\crypto\\backend\\oberon\\oberon_backend_ecdh.c 0x00000000   Number         0  oberon_backend_ecdh.o ABSOLUTE
    ..\\..\\..\\..\\..\\..\\..\\components\\libraries\\crypto\\backend\\oberon\\oberon_backend_ecdsa.c 0x00000000   Number         0  oberon_backend_ecdsa.o ABSOLUTE
    ..\\..\\..\\..\\..\\..\\..\\components\\libraries\\crypto\\backend\\oberon\\oberon_backend_eddsa.c 0x00000000   Number         0  oberon_backend_eddsa.o ABSOLUTE
    ..\\..\\..\\..\\..\\..\\..\\components\\libraries\\crypto\\backend\\oberon\\oberon_backend_hash.c 0x00000000   Number         0  oberon_backend_hash.o ABSOLUTE
    ..\\..\\..\\..\\..\\..\\..\\components\\libraries\\crypto\\backend\\oberon\\oberon_backend_hmac.c 0x00000000   Number         0  oberon_backend_hmac.o ABSOLUTE
    ..\\..\\..\\..\\..\\..\\..\\components\\libraries\\crypto\\nrf_crypto_aead.c 0x00000000   Number         0  nrf_crypto_aead.o ABSOLUTE
    ..\\..\\..\\..\\..\\..\\..\\components\\libraries\\crypto\\nrf_crypto_aes.c 0x00000000   Number         0  nrf_crypto_aes.o ABSOLUTE
    ..\\..\\..\\..\\..\\..\\..\\components\\libraries\\crypto\\nrf_crypto_aes_shared.c 0x00000000   Number         0  nrf_crypto_aes_shared.o ABSOLUTE
    ..\\..\\..\\..\\..\\..\\..\\components\\libraries\\crypto\\nrf_crypto_ecc.c 0x00000000   Number         0  nrf_crypto_ecc.o ABSOLUTE
    ..\\..\\..\\..\\..\\..\\..\\components\\libraries\\crypto\\nrf_crypto_ecdh.c 0x00000000   Number         0  nrf_crypto_ecdh.o ABSOLUTE
    ..\\..\\..\\..\\..\\..\\..\\components\\libraries\\crypto\\nrf_crypto_ecdsa.c 0x00000000   Number         0  nrf_crypto_ecdsa.o ABSOLUTE
    ..\\..\\..\\..\\..\\..\\..\\components\\libraries\\crypto\\nrf_crypto_eddsa.c 0x00000000   Number         0  nrf_crypto_eddsa.o ABSOLUTE
    ..\\..\\..\\..\\..\\..\\..\\components\\libraries\\crypto\\nrf_crypto_error.c 0x00000000   Number         0  nrf_crypto_error.o ABSOLUTE
    ..\\..\\..\\..\\..\\..\\..\\components\\libraries\\crypto\\nrf_crypto_hash.c 0x00000000   Number         0  nrf_crypto_hash.o ABSOLUTE
    ..\\..\\..\\..\\..\\..\\..\\components\\libraries\\crypto\\nrf_crypto_hkdf.c 0x00000000   Number         0  nrf_crypto_hkdf.o ABSOLUTE
    ..\\..\\..\\..\\..\\..\\..\\components\\libraries\\crypto\\nrf_crypto_hmac.c 0x00000000   Number         0  nrf_crypto_hmac.o ABSOLUTE
    ..\\..\\..\\..\\..\\..\\..\\components\\libraries\\crypto\\nrf_crypto_init.c 0x00000000   Number         0  nrf_crypto_init.o ABSOLUTE
    ..\\..\\..\\..\\..\\..\\..\\components\\libraries\\crypto\\nrf_crypto_rng.c 0x00000000   Number         0  nrf_crypto_rng.o ABSOLUTE
    ..\\..\\..\\..\\..\\..\\..\\components\\libraries\\crypto\\nrf_crypto_shared.c 0x00000000   Number         0  nrf_crypto_shared.o ABSOLUTE
    ..\\..\\..\\..\\..\\..\\..\\components\\libraries\\experimental_section_vars\\nrf_section_iter.c 0x00000000   Number         0  nrf_section_iter.o ABSOLUTE
    ..\\..\\..\\..\\..\\..\\..\\components\\libraries\\fds\\fds.c 0x00000000   Number         0  fds.o ABSOLUTE
    ..\\..\\..\\..\\..\\..\\..\\components\\libraries\\fstorage\\nrf_fstorage.c 0x00000000   Number         0  nrf_fstorage.o ABSOLUTE
    ..\\..\\..\\..\\..\\..\\..\\components\\libraries\\fstorage\\nrf_fstorage_sd.c 0x00000000   Number         0  nrf_fstorage_sd.o ABSOLUTE
    ..\\..\\..\\..\\..\\..\\..\\components\\libraries\\hardfault\\hardfault_implementation.c 0x00000000   Number         0  hardfault_implementation.o ABSOLUTE
    ..\\..\\..\\..\\..\\..\\..\\components\\libraries\\log\\src\\nrf_log_backend_rtt.c 0x00000000   Number         0  nrf_log_backend_rtt.o ABSOLUTE
    ..\\..\\..\\..\\..\\..\\..\\components\\libraries\\log\\src\\nrf_log_backend_serial.c 0x00000000   Number         0  nrf_log_backend_serial.o ABSOLUTE
    ..\\..\\..\\..\\..\\..\\..\\components\\libraries\\log\\src\\nrf_log_backend_uart.c 0x00000000   Number         0  nrf_log_backend_uart.o ABSOLUTE
    ..\\..\\..\\..\\..\\..\\..\\components\\libraries\\log\\src\\nrf_log_default_backends.c 0x00000000   Number         0  nrf_log_default_backends.o ABSOLUTE
    ..\\..\\..\\..\\..\\..\\..\\components\\libraries\\log\\src\\nrf_log_frontend.c 0x00000000   Number         0  nrf_log_frontend.o ABSOLUTE
    ..\\..\\..\\..\\..\\..\\..\\components\\libraries\\log\\src\\nrf_log_str_formatter.c 0x00000000   Number         0  nrf_log_str_formatter.o ABSOLUTE
    ..\\..\\..\\..\\..\\..\\..\\components\\libraries\\mem_manager\\mem_manager.c 0x00000000   Number         0  mem_manager.o ABSOLUTE
    ..\\..\\..\\..\\..\\..\\..\\components\\libraries\\memobj\\nrf_memobj.c 0x00000000   Number         0  nrf_memobj.o ABSOLUTE
    ..\\..\\..\\..\\..\\..\\..\\components\\libraries\\pwr_mgmt\\nrf_pwr_mgmt.c 0x00000000   Number         0  nrf_pwr_mgmt.o ABSOLUTE
    ..\\..\\..\\..\\..\\..\\..\\components\\libraries\\queue\\nrf_queue.c 0x00000000   Number         0  nrf_queue.o ABSOLUTE
    ..\\..\\..\\..\\..\\..\\..\\components\\libraries\\ringbuf\\nrf_ringbuf.c 0x00000000   Number         0  nrf_ringbuf.o ABSOLUTE
    ..\\..\\..\\..\\..\\..\\..\\components\\libraries\\scheduler\\app_scheduler.c 0x00000000   Number         0  app_scheduler.o ABSOLUTE
    ..\\..\\..\\..\\..\\..\\..\\components\\libraries\\sortlist\\nrf_sortlist.c 0x00000000   Number         0  nrf_sortlist.o ABSOLUTE
    ..\\..\\..\\..\\..\\..\\..\\components\\libraries\\strerror\\nrf_strerror.c 0x00000000   Number         0  nrf_strerror.o ABSOLUTE
    ..\\..\\..\\..\\..\\..\\..\\components\\libraries\\timer\\app_timer2.c 0x00000000   Number         0  app_timer2.o ABSOLUTE
    ..\\..\\..\\..\\..\\..\\..\\components\\libraries\\timer\\drv_rtc.c 0x00000000   Number         0  drv_rtc.o ABSOLUTE
    ..\\..\\..\\..\\..\\..\\..\\components\\libraries\\util\\app_error.c 0x00000000   Number         0  app_error.o ABSOLUTE
    ..\\..\\..\\..\\..\\..\\..\\components\\libraries\\util\\app_error_handler_keil.c 0x00000000   Number         0  app_error_handler_keil.o ABSOLUTE
    ..\\..\\..\\..\\..\\..\\..\\components\\libraries\\util\\app_error_weak.c 0x00000000   Number         0  app_error_weak.o ABSOLUTE
    ..\\..\\..\\..\\..\\..\\..\\components\\libraries\\util\\app_util_platform.c 0x00000000   Number         0  app_util_platform.o ABSOLUTE
    ..\\..\\..\\..\\..\\..\\..\\components\\libraries\\util\\nrf_assert.c 0x00000000   Number         0  nrf_assert.o ABSOLUTE
    ..\\..\\..\\..\\..\\..\\..\\components\\nfc\\ndef\\connection_handover\\ac_rec\\nfc_ac_rec.c 0x00000000   Number         0  nfc_ac_rec.o ABSOLUTE
    ..\\..\\..\\..\\..\\..\\..\\components\\nfc\\ndef\\connection_handover\\ble_oob_advdata\\nfc_ble_oob_advdata.c 0x00000000   Number         0  nfc_ble_oob_advdata.o ABSOLUTE
    ..\\..\\..\\..\\..\\..\\..\\components\\nfc\\ndef\\connection_handover\\ble_pair_lib\\nfc_ble_pair_lib.c 0x00000000   Number         0  nfc_ble_pair_lib.o ABSOLUTE
    ..\\..\\..\\..\\..\\..\\..\\components\\nfc\\ndef\\connection_handover\\ble_pair_msg\\nfc_ble_pair_msg.c 0x00000000   Number         0  nfc_ble_pair_msg.o ABSOLUTE
    ..\\..\\..\\..\\..\\..\\..\\components\\nfc\\ndef\\connection_handover\\common\\nfc_ble_pair_common.c 0x00000000   Number         0  nfc_ble_pair_common.o ABSOLUTE
    ..\\..\\..\\..\\..\\..\\..\\components\\nfc\\ndef\\connection_handover\\ep_oob_rec\\nfc_ep_oob_rec.c 0x00000000   Number         0  nfc_ep_oob_rec.o ABSOLUTE
    ..\\..\\..\\..\\..\\..\\..\\components\\nfc\\ndef\\connection_handover\\hs_rec\\nfc_hs_rec.c 0x00000000   Number         0  nfc_hs_rec.o ABSOLUTE
    ..\\..\\..\\..\\..\\..\\..\\components\\nfc\\ndef\\connection_handover\\le_oob_rec\\nfc_le_oob_rec.c 0x00000000   Number         0  nfc_le_oob_rec.o ABSOLUTE
    ..\\..\\..\\..\\..\\..\\..\\components\\nfc\\ndef\\generic\\message\\nfc_ndef_msg.c 0x00000000   Number         0  nfc_ndef_msg.o ABSOLUTE
    ..\\..\\..\\..\\..\\..\\..\\components\\nfc\\ndef\\generic\\record\\nfc_ndef_record.c 0x00000000   Number         0  nfc_ndef_record.o ABSOLUTE
    ..\\..\\..\\..\\..\\..\\..\\components\\nfc\\platform\\nfc_platform.c 0x00000000   Number         0  nfc_platform.o ABSOLUTE
    ..\\..\\..\\..\\..\\..\\..\\components\\softdevice\\common\\nrf_sdh.c 0x00000000   Number         0  nrf_sdh.o ABSOLUTE
    ..\\..\\..\\..\\..\\..\\..\\components\\softdevice\\common\\nrf_sdh_ble.c 0x00000000   Number         0  nrf_sdh_ble.o ABSOLUTE
    ..\\..\\..\\..\\..\\..\\..\\components\\softdevice\\common\\nrf_sdh_soc.c 0x00000000   Number         0  nrf_sdh_soc.o ABSOLUTE
    ..\\..\\..\\..\\..\\..\\..\\external\\fprintf\\nrf_fprintf.c 0x00000000   Number         0  nrf_fprintf.o ABSOLUTE
    ..\\..\\..\\..\\..\\..\\..\\external\\fprintf\\nrf_fprintf_format.c 0x00000000   Number         0  nrf_fprintf_format.o ABSOLUTE
    ..\\..\\..\\..\\..\\..\\..\\external\\segger_rtt\\SEGGER_RTT.c 0x00000000   Number         0  segger_rtt.o ABSOLUTE
    ..\\..\\..\\..\\..\\..\\..\\external\\segger_rtt\\SEGGER_RTT_Syscalls_KEIL.c 0x00000000   Number         0  segger_rtt_syscalls_keil.o ABSOLUTE
    ..\\..\\..\\..\\..\\..\\..\\external\\segger_rtt\\SEGGER_RTT_printf.c 0x00000000   Number         0  segger_rtt_printf.o ABSOLUTE
    ..\\..\\..\\..\\..\\..\\..\\integration\\nrfx\\legacy\\nrf_drv_clock.c 0x00000000   Number         0  nrf_drv_clock.o ABSOLUTE
    ..\\..\\..\\..\\..\\..\\..\\integration\\nrfx\\legacy\\nrf_drv_rng.c 0x00000000   Number         0  nrf_drv_rng.o ABSOLUTE
    ..\\..\\..\\..\\..\\..\\..\\integration\\nrfx\\legacy\\nrf_drv_uart.c 0x00000000   Number         0  nrf_drv_uart.o ABSOLUTE
    ..\\..\\..\\..\\..\\..\\..\\modules\\nrfx\\drivers\\src\\nrfx_clock.c 0x00000000   Number         0  nrfx_clock.o ABSOLUTE
    ..\\..\\..\\..\\..\\..\\..\\modules\\nrfx\\drivers\\src\\nrfx_gpiote.c 0x00000000   Number         0  nrfx_gpiote.o ABSOLUTE
    ..\\..\\..\\..\\..\\..\\..\\modules\\nrfx\\drivers\\src\\nrfx_nfct.c 0x00000000   Number         0  nrfx_nfct.o ABSOLUTE
    ..\\..\\..\\..\\..\\..\\..\\modules\\nrfx\\drivers\\src\\nrfx_rng.c 0x00000000   Number         0  nrfx_rng.o ABSOLUTE
    ..\\..\\..\\..\\..\\..\\..\\modules\\nrfx\\drivers\\src\\nrfx_timer.c 0x00000000   Number         0  nrfx_timer.o ABSOLUTE
    ..\\..\\..\\..\\..\\..\\..\\modules\\nrfx\\drivers\\src\\nrfx_uart.c 0x00000000   Number         0  nrfx_uart.o ABSOLUTE
    ..\\..\\..\\..\\..\\..\\..\\modules\\nrfx\\drivers\\src\\nrfx_uarte.c 0x00000000   Number         0  nrfx_uarte.o ABSOLUTE
    ..\\..\\..\\..\\..\\..\\..\\modules\\nrfx\\drivers\\src\\prs\\nrfx_prs.c 0x00000000   Number         0  nrfx_prs.o ABSOLUTE
    ..\\..\\..\\..\\..\\..\\..\\modules\\nrfx\\soc\\nrfx_atomic.c 0x00000000   Number         0  nrfx_atomic.o ABSOLUTE
    ..\\..\\..\\main.c                       0x00000000   Number         0  main.o ABSOLUTE
    ..\\nfc_t2t_lib.c                        0x00000000   Number         0  nfc_t2t_lib.o ABSOLUTE
    ..\\nfc_t2t_lib_al.c                     0x00000000   Number         0  nfc_t2t_lib_al.o ABSOLUTE
    ..\nfc_t2t_lib.c                         0x00000000   Number         0  nfc_t2t_lib.o ABSOLUTE
    ..\nfc_t2t_lib_al.c                      0x00000000   Number         0  nfc_t2t_lib_al.o ABSOLUTE
    RTE\Device\nRF52832_xxAA\arm_startup_nrf52.s 0x00000000   Number         0  arm_startup_nrf52.o ABSOLUTE
    RTE\Device\nRF52832_xxAA\system_nrf52.c  0x00000000   Number         0  system_nrf52.o ABSOLUTE
    RTE\\Device\\nRF52832_xxAA\\system_nrf52.c 0x00000000   Number         0  system_nrf52.o ABSOLUTE
    dc.s                                     0x00000000   Number         0  dc.o ABSOLUTE
    handlers.s                               0x00000000   Number         0  handlers.o ABSOLUTE
    init.s                                   0x00000000   Number         0  init.o ABSOLUTE
    ocrypto_chacha20.c                       0x00000000   Number         0  ocrypto_chacha20.c.obj ABSOLUTE
    ocrypto_chacha20_poly1305.c              0x00000000   Number         0  ocrypto_chacha20_poly1305.c.obj ABSOLUTE
    ocrypto_curve25519.c                     0x00000000   Number         0  ocrypto_curve25519.c.obj ABSOLUTE
    ocrypto_curve_p256.c                     0x00000000   Number         0  ocrypto_curve_p256.c.obj ABSOLUTE
    ocrypto_ecdh_p256.c                      0x00000000   Number         0  ocrypto_ecdh_p256.c.obj ABSOLUTE
    ocrypto_ecdsa_p256.c                     0x00000000   Number         0  ocrypto_ecdsa_p256.c.obj ABSOLUTE
    ocrypto_ed25519.c                        0x00000000   Number         0  ocrypto_ed25519.c.obj ABSOLUTE
    ocrypto_ge25519.c                        0x00000000   Number         0  ocrypto_ge25519.c.obj ABSOLUTE
    ocrypto_hkdf_sha256.c                    0x00000000   Number         0  ocrypto_hkdf_sha256.c.obj ABSOLUTE
    ocrypto_hkdf_sha512.c                    0x00000000   Number         0  ocrypto_hkdf_sha512.c.obj ABSOLUTE
    ocrypto_mod25519.c                       0x00000000   Number         0  ocrypto_mod25519.c.obj ABSOLUTE
    ocrypto_mod_p256.c                       0x00000000   Number         0  ocrypto_mod_p256.c.obj ABSOLUTE
    ocrypto_poly1305.c                       0x00000000   Number         0  ocrypto_poly1305.c.obj ABSOLUTE
    ocrypto_sc25519.c                        0x00000000   Number         0  ocrypto_sc25519.c.obj ABSOLUTE
    ocrypto_sc_p256.c                        0x00000000   Number         0  ocrypto_sc_p256.c.obj ABSOLUTE
    ocrypto_sha256.c                         0x00000000   Number         0  ocrypto_sha256.c.obj ABSOLUTE
    ocrypto_sha512.c                         0x00000000   Number         0  ocrypto_sha512.c.obj ABSOLUTE
    ocrypto_sha512_loop.c                    0x00000000   Number         0  ocrypto_sha512_loop.c.obj ABSOLUTE
    UseDspMul                                0x00000001   Number         0  ocrypto_mod25519_base.s.obj ABSOLUTE
    UseDspMul                                0x00000001   Number         0  ocrypto_poly1305_mul.s.obj ABSOLUTE
    UseDspMul                                0x00000001   Number         0  ocrypto_chacha20_loop.s.obj ABSOLUTE
    UseDspMul                                0x00000001   Number         0  ocrypto_mod_p256_base.s.obj ABSOLUTE
    UseDspMul                                0x00000001   Number         0  ocrypto_bigint256.s.obj ABSOLUTE
    UseFpuReg                                0x00000001   Number         0  ocrypto_chacha20_loop.s.obj ABSOLUTE
    UseFpuReg                                0x00000001   Number         0  ocrypto_bigint256.s.obj ABSOLUTE
    UseFpuReg                                0x00000001   Number         0  ocrypto_mod_p256_base.s.obj ABSOLUTE
    UseFpuReg                                0x00000001   Number         0  ocrypto_mod25519_base.s.obj ABSOLUTE
    __ARM_FEATURE_DSP                        0x00000001   Number         0  ocrypto_mod25519_base.s.obj ABSOLUTE
    __ARM_FEATURE_DSP                        0x00000001   Number         0  ocrypto_constant_time.s.obj ABSOLUTE
    __ARM_FEATURE_DSP                        0x00000001   Number         0  ocrypto_bigint256.s.obj ABSOLUTE
    __ARM_FEATURE_DSP                        0x00000001   Number         0  ocrypto_sha256_loop.s.obj ABSOLUTE
    __ARM_FEATURE_DSP                        0x00000001   Number         0  ocrypto_chacha20_loop.s.obj ABSOLUTE
    __ARM_FEATURE_DSP                        0x00000001   Number         0  ocrypto_mod_p256_base.s.obj ABSOLUTE
    __ARM_FEATURE_DSP                        0x00000001   Number         0  ocrypto_poly1305_mul.s.obj ABSOLUTE
    __ARM_FP                                 0x00000001   Number         0  ocrypto_mod_p256_base.s.obj ABSOLUTE
    __ARM_FP                                 0x00000001   Number         0  ocrypto_mod25519_base.s.obj ABSOLUTE
    __ARM_FP                                 0x00000001   Number         0  ocrypto_bigint256.s.obj ABSOLUTE
    __ARM_FP                                 0x00000001   Number         0  ocrypto_constant_time.s.obj ABSOLUTE
    __ARM_FP                                 0x00000001   Number         0  ocrypto_poly1305_mul.s.obj ABSOLUTE
    __ARM_FP                                 0x00000001   Number         0  ocrypto_chacha20_loop.s.obj ABSOLUTE
    __ARM_FP                                 0x00000001   Number         0  ocrypto_sha256_loop.s.obj ABSOLUTE
    RESET                                    0x00026000   Section      512  arm_startup_nrf52.o(RESET)
    .ARM.Collect$$$$00000000                 0x00026200   Section        0  entry.o(.ARM.Collect$$$$00000000)
    .ARM.Collect$$$$00000001                 0x00026200   Section        4  entry2.o(.ARM.Collect$$$$00000001)
    .ARM.Collect$$$$00000004                 0x00026204   Section        4  entry5.o(.ARM.Collect$$$$00000004)
    .ARM.Collect$$$$00000008                 0x00026208   Section        0  entry7b.o(.ARM.Collect$$$$00000008)
    .ARM.Collect$$$$0000000A                 0x00026208   Section        0  entry8b.o(.ARM.Collect$$$$0000000A)
    .ARM.Collect$$$$0000000B                 0x00026208   Section        8  entry9a.o(.ARM.Collect$$$$0000000B)
    .ARM.Collect$$$$0000000D                 0x00026210   Section        0  entry10a.o(.ARM.Collect$$$$0000000D)
    .ARM.Collect$$$$0000000F                 0x00026210   Section        0  entry11a.o(.ARM.Collect$$$$0000000F)
    .ARM.Collect$$$$00002712                 0x00026210   Section        4  entry2.o(.ARM.Collect$$$$00002712)
    __lit__00000000                          0x00026210   Data           4  entry2.o(.ARM.Collect$$$$00002712)
    .emb_text                                0x00026214   Section      200  nrf_atfifo.o(.emb_text)
    $v0                                      0x00026214   Number         0  nrf_atfifo.o(.emb_text)
    .emb_text                                0x000262dc   Section      226  nrf_atomic.o(.emb_text)
    $v0                                      0x000262dc   Number         0  nrf_atomic.o(.emb_text)
    .text                                    0x000263c0   Section       36  arm_startup_nrf52.o(.text)
    $v0                                      0x000263c0   Number         0  arm_startup_nrf52.o(.text)
    [Anonymous Symbol]                       0x000263e4   Section        0  ocrypto_bigint256.s.obj(.text)
    cswap64                                  0x00026569   Thumb Code     0  ocrypto_bigint256.s.obj(.text)
    [Anonymous Symbol]                       0x000267d8   Section        0  ocrypto_constant_time.s.obj(.text)
    constant_time_equal_loop                 0x000267de   Number         0  ocrypto_constant_time.s.obj(.text)
    constant_time_is_zero_loop               0x00026802   Number         0  ocrypto_constant_time.s.obj(.text)
    constant_time_copy_loop                  0x00026818   Number         0  ocrypto_constant_time.s.obj(.text)
    constant_time_fill_zero_loop             0x00026828   Number         0  ocrypto_constant_time.s.obj(.text)
    [Anonymous Symbol]                       0x00026834   Section        0  ocrypto_mod_p256_base.s.obj(.text)
    [Anonymous Symbol]                       0x00026cc8   Section        0  ocrypto_mod25519_base.s.obj(.text)
    .text                                    0x000270bc   Section        0  uldiv.o(.text)
    .text                                    0x0002711e   Section        0  llshl.o(.text)
    .text                                    0x0002713c   Section        0  llushr.o(.text)
    .text                                    0x0002715c   Section        0  ctype_o.o(.text)
    .text                                    0x00027164   Section        0  memmove.o(.text)
    .text                                    0x000271a6   Section        0  memseta.o(.text)
    .text                                    0x000271ca   Section        0  strlen.o(.text)
    .text                                    0x000271d8   Section        0  memcmp.o(.text)
    .text                                    0x000271f4   Section       36  init.o(.text)
    .text                                    0x00027218   Section        0  __dczerorl2.o(.text)
    [Anonymous Symbol]                       0x00027270   Section        0  ocrypto_ge25519.c.obj(.text.add_entry.constprop.0)
    add_entry.constprop.0                    0x00027271   Thumb Code    90  ocrypto_ge25519.c.obj(.text.add_entry.constprop.0)
    [Anonymous Symbol]                       0x000272cc   Section        0  ocrypto_ge25519.c.obj(.text.add_entry.constprop.1)
    add_entry.constprop.1                    0x000272cd   Thumb Code    90  ocrypto_ge25519.c.obj(.text.add_entry.constprop.1)
    [Anonymous Symbol]                       0x00027328   Section        0  ocrypto_ge25519.c.obj(.text.add_entry.constprop.2)
    add_entry.constprop.2                    0x00027329   Thumb Code    86  ocrypto_ge25519.c.obj(.text.add_entry.constprop.2)
    [Anonymous Symbol]                       0x00027380   Section        0  ocrypto_ge25519.c.obj(.text.dbl_p1p1)
    dbl_p1p1                                 0x00027381   Thumb Code   134  ocrypto_ge25519.c.obj(.text.dbl_p1p1)
    [Anonymous Symbol]                       0x00027408   Section        0  ocrypto_ge25519.c.obj(.text.get_entry)
    get_entry                                0x00027409   Thumb Code   104  ocrypto_ge25519.c.obj(.text.get_entry)
    [Anonymous Symbol]                       0x00027470   Section        0  ocrypto_ge25519.c.obj(.text.get_entry.constprop.0)
    get_entry.constprop.0                    0x00027471   Thumb Code    92  ocrypto_ge25519.c.obj(.text.get_entry.constprop.0)
    [Anonymous Symbol]                       0x000274cc   Section        0  ocrypto_sc25519.c.obj(.text.m_reduction_step)
    m_reduction_step                         0x000274cd   Thumb Code    96  ocrypto_sc25519.c.obj(.text.m_reduction_step)
    [Anonymous Symbol]                       0x0002752c   Section        0  ocrypto_ge25519.c.obj(.text.mixaddsub_p1p1)
    mixaddsub_p1p1                           0x0002752d   Thumb Code   204  ocrypto_ge25519.c.obj(.text.mixaddsub_p1p1)
    [Anonymous Symbol]                       0x000275f8   Section        0  ocrypto_curve25519.c.obj(.text.ocrypto_curve25519_scalarmult)
    [Anonymous Symbol]                       0x000277a0   Section        0  ocrypto_curve25519.c.obj(.text.ocrypto_curve25519_scalarmult_base)
    [Anonymous Symbol]                       0x000277ac   Section        0  ocrypto_curve_p256.c.obj(.text.ocrypto_curve_p256_from64bytes)
    [Anonymous Symbol]                       0x0002780c   Section        0  ocrypto_curve_p256.c.obj(.text.ocrypto_curve_p256_scalarmult)
    [Anonymous Symbol]                       0x00027970   Section        0  ocrypto_curve_p256.c.obj(.text.ocrypto_curve_p256_scalarmult_base)
    [Anonymous Symbol]                       0x0002797c   Section        0  ocrypto_curve_p256.c.obj(.text.ocrypto_curve_p256_to32bytes)
    [Anonymous Symbol]                       0x00027980   Section        0  ocrypto_curve_p256.c.obj(.text.ocrypto_curve_p256_to64bytes)
    [Anonymous Symbol]                       0x0002799c   Section        0  ocrypto_ecdh_p256.c.obj(.text.ocrypto_ecdh_p256_common_secret)
    [Anonymous Symbol]                       0x000279d4   Section        0  ocrypto_ecdh_p256.c.obj(.text.ocrypto_ecdh_p256_public_key)
    [Anonymous Symbol]                       0x000279fc   Section        0  ocrypto_ed25519.c.obj(.text.ocrypto_ed25519_public_key)
    [Anonymous Symbol]                       0x00027a44   Section        0  ocrypto_ge25519.c.obj(.text.ocrypto_ge25519_pack)
    [Anonymous Symbol]                       0x00027a88   Section        0  ocrypto_ge25519.c.obj(.text.ocrypto_ge25519_scalarmult_base)
    [Anonymous Symbol]                       0x00027b78   Section        0  ocrypto_mod25519.c.obj(.text.ocrypto_mod25519_fromBytes)
    [Anonymous Symbol]                       0x00027ba0   Section        0  ocrypto_mod25519.c.obj(.text.ocrypto_mod25519_getsign)
    [Anonymous Symbol]                       0x00027bb0   Section        0  ocrypto_mod25519.c.obj(.text.ocrypto_mod25519_init)
    [Anonymous Symbol]                       0x00027bc4   Section        0  ocrypto_mod25519.c.obj(.text.ocrypto_mod25519_neg)
    [Anonymous Symbol]                       0x00027be8   Section        0  ocrypto_mod25519.c.obj(.text.ocrypto_mod25519_power)
    [Anonymous Symbol]                       0x00027e0c   Section        0  ocrypto_mod25519.c.obj(.text.ocrypto_mod25519_toBytes)
    [Anonymous Symbol]                       0x00027e3c   Section        0  ocrypto_mod_p256.c.obj(.text.ocrypto_mod_p256_cneg)
    [Anonymous Symbol]                       0x00027e74   Section        0  ocrypto_mod_p256.c.obj(.text.ocrypto_mod_p256_fromBytes)
    [Anonymous Symbol]                       0x00027ea8   Section        0  ocrypto_mod_p256.c.obj(.text.ocrypto_mod_p256_invert)
    [Anonymous Symbol]                       0x00028008   Section        0  ocrypto_mod_p256.c.obj(.text.ocrypto_mod_p256_toBytes)
    [Anonymous Symbol]                       0x0002803c   Section        0  ocrypto_sc25519.c.obj(.text.ocrypto_sc25519_from32bytes)
    [Anonymous Symbol]                       0x0002809c   Section        0  ocrypto_sc25519.c.obj(.text.ocrypto_sc25519_window4)
    [Anonymous Symbol]                       0x000280e4   Section        0  ocrypto_sc_p256.c.obj(.text.ocrypto_sc_p256_from32bytes)
    [Anonymous Symbol]                       0x00028138   Section        0  ocrypto_sha512.c.obj(.text.ocrypto_sha512)
    [Anonymous Symbol]                       0x00028268   Section        0  ocrypto_sha512.c.obj(.text.ocrypto_sha512_final)
    [Anonymous Symbol]                       0x00028444   Section        0  ocrypto_sha512_loop.c.obj(.text.ocrypto_sha512_loop1)
    [Anonymous Symbol]                       0x00028634   Section        0  ocrypto_sha512_loop.c.obj(.text.ocrypto_sha512_loop2)
    [Anonymous Symbol]                       0x00028710   Section        0  ocrypto_curve_p256.c.obj(.text.p256_zaddc)
    p256_zaddc                               0x00028711   Thumb Code   204  ocrypto_curve_p256.c.obj(.text.p256_zaddc)
    [Anonymous Symbol]                       0x000287dc   Section        0  ocrypto_curve_p256.c.obj(.text.p256_zaddu)
    p256_zaddu                               0x000287dd   Thumb Code   152  ocrypto_curve_p256.c.obj(.text.p256_zaddu)
    [Anonymous Symbol]                       0x00028874   Section        0  ocrypto_curve_p256.c.obj(.text.p256_zdblu)
    p256_zdblu                               0x00028875   Thumb Code   184  ocrypto_curve_p256.c.obj(.text.p256_zdblu)
    [Anonymous Symbol]                       0x0002892c   Section        0  ocrypto_sha512.c.obj(.text.sha512_blocks)
    sha512_blocks                            0x0002892d   Thumb Code   796  ocrypto_sha512.c.obj(.text.sha512_blocks)
    [Anonymous Symbol]                       0x00028c48   Section        0  ocrypto_sha512.c.obj(.text.sha512_blocks.constprop.0)
    sha512_blocks.constprop.0                0x00028c49   Thumb Code   576  ocrypto_sha512.c.obj(.text.sha512_blocks.constprop.0)
    i.GPIOTE_IRQHandler                      0x00028e88   Section        0  nrfx_gpiote.o(i.GPIOTE_IRQHandler)
    i.NFCT_IRQHandler                        0x00028f2c   Section        0  nrfx_nfct.o(i.NFCT_IRQHandler)
    i.POWER_CLOCK_IRQHandler                 0x000290f4   Section        0  nrfx_clock.o(i.POWER_CLOCK_IRQHandler)
    i.RNG_IRQHandler                         0x0002914c   Section        0  nrfx_rng.o(i.RNG_IRQHandler)
    i.RTC1_IRQHandler                        0x00029174   Section        0  drv_rtc.o(i.RTC1_IRQHandler)
    i.SWI2_EGU2_IRQHandler                   0x00029184   Section        0  nrf_sdh.o(i.SWI2_EGU2_IRQHandler)
    i.SystemInit                             0x00029188   Section        0  system_nrf52.o(i.SystemInit)
    i.TIMER4_IRQHandler                      0x00029460   Section        0  nrfx_timer.o(i.TIMER4_IRQHandler)
    i.UARTE0_UART0_IRQHandler                0x000294b0   Section        0  nrfx_prs.o(i.UARTE0_UART0_IRQHandler)
    i._NRFX_IRQ_PENDING_CLEAR                0x000294bc   Section        0  nrfx_nfct.o(i._NRFX_IRQ_PENDING_CLEAR)
    _NRFX_IRQ_PENDING_CLEAR                  0x000294bd   Thumb Code    26  nrfx_nfct.o(i._NRFX_IRQ_PENDING_CLEAR)
    i.__scatterload_copy                     0x000294d6   Section       14  handlers.o(i.__scatterload_copy)
    i.__scatterload_null                     0x000294e4   Section        2  handlers.o(i.__scatterload_null)
    i.__scatterload_zeroinit                 0x000294e6   Section       14  handlers.o(i.__scatterload_zeroinit)
    i.__sd_nvic_app_accessible_irq           0x000294f4   Section        0  nrf_sdh.o(i.__sd_nvic_app_accessible_irq)
    __sd_nvic_app_accessible_irq             0x000294f5   Thumb Code    32  nrf_sdh.o(i.__sd_nvic_app_accessible_irq)
    i._conn_secure                           0x00029518   Section        0  peer_manager_handler.o(i._conn_secure)
    _conn_secure                             0x00029519   Thumb Code   178  peer_manager_handler.o(i._conn_secure)
    i.addr_compare                           0x00029654   Section        0  id_manager.o(i.addr_compare)
    i.addr_is_aligned32                      0x0002967a   Section        0  nrf_fstorage.o(i.addr_is_aligned32)
    addr_is_aligned32                        0x0002967b   Thumb Code    12  nrf_fstorage.o(i.addr_is_aligned32)
    i.addr_is_within_bounds                  0x00029686   Section        0  nrf_fstorage.o(i.addr_is_within_bounds)
    addr_is_within_bounds                    0x00029687   Thumb Code    24  nrf_fstorage.o(i.addr_is_within_bounds)
    i.adv_set_data_size_max_get              0x0002969e   Section        0  ble_advertising.o(i.adv_set_data_size_max_get)
    adv_set_data_size_max_get                0x0002969f   Thumb Code    16  ble_advertising.o(i.adv_set_data_size_max_get)
    i.advertising_buttons_configure          0x000296ae   Section        0  bsp_btn_ble.o(i.advertising_buttons_configure)
    advertising_buttons_configure            0x000296af   Thumb Code    54  bsp_btn_ble.o(i.advertising_buttons_configure)
    i.ah                                     0x000296e4   Section        0  id_manager.o(i.ah)
    i.alNfcCallback                          0x00029738   Section        0  nfc_t2t_lib.o(i.alNfcCallback)
    alNfcCallback                            0x00029739   Thumb Code   152  nfc_t2t_lib.o(i.alNfcCallback)
    i.alert_timer_handler                    0x000297d4   Section        0  bsp.o(i.alert_timer_handler)
    alert_timer_handler                      0x000297d5   Thumb Code     6  bsp.o(i.alert_timer_handler)
    i.allow_repairing                        0x000297dc   Section        0  security_dispatcher.o(i.allow_repairing)
    allow_repairing                          0x000297dd   Thumb Code     8  security_dispatcher.o(i.allow_repairing)
    i.app_button_enable                      0x000297e8   Section        0  app_button.o(i.app_button_enable)
    i.app_button_init                        0x0002980c   Section        0  app_button.o(i.app_button_init)
    i.app_error_fault_handler                0x0002988c   Section        0  app_error_weak.o(i.app_error_fault_handler)
    i.app_error_handler_bare                 0x00029910   Section        0  app_error.o(i.app_error_handler_bare)
    i.app_timer_cnt_get                      0x00029928   Section        0  app_timer2.o(i.app_timer_cnt_get)
    i.app_timer_create                       0x00029934   Section        0  app_timer2.o(i.app_timer_create)
    i.app_timer_init                         0x0002994c   Section        0  app_timer2.o(i.app_timer_init)
    i.app_timer_start                        0x000299a8   Section        0  app_timer2.o(i.app_timer_start)
    i.app_timer_stop                         0x000299d8   Section        0  app_timer2.o(i.app_timer_stop)
    i.app_util_critical_region_enter         0x000299e4   Section        0  app_util_platform.o(i.app_util_critical_region_enter)
    i.app_util_critical_region_exit          0x00029a2c   Section        0  app_util_platform.o(i.app_util_critical_region_exit)
    i.application_timers_start               0x00029a60   Section        0  main.o(i.application_timers_start)
    application_timers_start                 0x00029a61   Thumb Code    84  main.o(i.application_timers_start)
    i.apply_config                           0x00029ab8   Section        0  nrfx_uart.o(i.apply_config)
    apply_config                             0x00029ab9   Thumb Code   136  nrfx_uart.o(i.apply_config)
    i.apply_config                           0x00029b40   Section        0  nrfx_uarte.o(i.apply_config)
    apply_config                             0x00029b41   Thumb Code   136  nrfx_uarte.o(i.apply_config)
    i.apply_pending_handle                   0x00029bc8   Section        0  gatt_cache_manager.o(i.apply_pending_handle)
    apply_pending_handle                     0x00029bc9   Thumb Code     4  gatt_cache_manager.o(i.apply_pending_handle)
    i.auth_status_success_process            0x00029bcc   Section        0  security_dispatcher.o(i.auth_status_success_process)
    auth_status_success_process              0x00029bcd   Thumb Code   306  security_dispatcher.o(i.auth_status_success_process)
    i.battery_level_char_add                 0x00029d4c   Section        0  ble_bas.o(i.battery_level_char_add)
    battery_level_char_add                   0x00029d4d   Thumb Code   156  ble_bas.o(i.battery_level_char_add)
    i.battery_level_meas_timeout_handler     0x00029de8   Section        0  main.o(i.battery_level_meas_timeout_handler)
    battery_level_meas_timeout_handler       0x00029de9   Thumb Code    56  main.o(i.battery_level_meas_timeout_handler)
    i.battery_notification_send              0x00029e2c   Section        0  ble_bas.o(i.battery_notification_send)
    battery_notification_send                0x00029e2d   Thumb Code    10  ble_bas.o(i.battery_notification_send)
    i.ble_advdata_encode                     0x00029e36   Section        0  ble_advdata.o(i.ble_advdata_encode)
    i.ble_advdata_parse                      0x00029fb8   Section        0  ble_advdata.o(i.ble_advdata_parse)
    i.ble_advdata_search                     0x00029fd8   Section        0  ble_advdata.o(i.ble_advdata_search)
    i.ble_advertising_conn_cfg_tag_set       0x0002a01e   Section        0  ble_advertising.o(i.ble_advertising_conn_cfg_tag_set)
    i.ble_advertising_init                   0x0002a024   Section        0  ble_advertising.o(i.ble_advertising_init)
    i.ble_advertising_on_ble_evt             0x0002a11c   Section        0  ble_advertising.o(i.ble_advertising_on_ble_evt)
    i.ble_advertising_restart_without_whitelist 0x0002a186   Section        0  ble_advertising.o(i.ble_advertising_restart_without_whitelist)
    i.ble_advertising_start                  0x0002a1c0   Section        0  ble_advertising.o(i.ble_advertising_start)
    i.ble_bas_battery_level_update           0x0002a3f0   Section        0  ble_bas.o(i.ble_bas_battery_level_update)
    i.ble_bas_init                           0x0002a4b0   Section        0  ble_bas.o(i.ble_bas_init)
    i.ble_bas_on_ble_evt                     0x0002a4ee   Section        0  ble_bas.o(i.ble_bas_on_ble_evt)
    i.ble_conn_params_init                   0x0002a540   Section        0  ble_conn_params.o(i.ble_conn_params_init)
    i.ble_conn_state_conn_handles            0x0002a5a8   Section        0  ble_conn_state.o(i.ble_conn_state_conn_handles)
    i.ble_conn_state_encrypted               0x0002a5b4   Section        0  ble_conn_state.o(i.ble_conn_state_encrypted)
    i.ble_conn_state_for_each_set_user_flag  0x0002a5d4   Section        0  ble_conn_state.o(i.ble_conn_state_for_each_set_user_flag)
    i.ble_conn_state_lesc                    0x0002a600   Section        0  ble_conn_state.o(i.ble_conn_state_lesc)
    i.ble_conn_state_mitm_protected          0x0002a620   Section        0  ble_conn_state.o(i.ble_conn_state_mitm_protected)
    i.ble_conn_state_role                    0x0002a640   Section        0  ble_conn_state.o(i.ble_conn_state_role)
    i.ble_conn_state_status                  0x0002a664   Section        0  ble_conn_state.o(i.ble_conn_state_status)
    i.ble_conn_state_user_flag_acquire       0x0002a688   Section        0  ble_conn_state.o(i.ble_conn_state_user_flag_acquire)
    i.ble_conn_state_user_flag_get           0x0002a6a0   Section        0  ble_conn_state.o(i.ble_conn_state_user_flag_get)
    i.ble_conn_state_user_flag_set           0x0002a6d0   Section        0  ble_conn_state.o(i.ble_conn_state_user_flag_set)
    i.ble_conn_state_valid                   0x0002a708   Section        0  ble_conn_state.o(i.ble_conn_state_valid)
    i.ble_device_addr_encode                 0x0002a71c   Section        0  ble_advdata.o(i.ble_device_addr_encode)
    ble_device_addr_encode                   0x0002a71d   Thumb Code    96  ble_advdata.o(i.ble_device_addr_encode)
    i.ble_dis_init                           0x0002a77c   Section        0  ble_dis.o(i.ble_dis_init)
    i.ble_evt_handler                        0x0002a8b8   Section        0  main.o(i.ble_evt_handler)
    ble_evt_handler                          0x0002a8b9   Thumb Code   254  main.o(i.ble_evt_handler)
    i.ble_evt_handler                        0x0002aaac   Section        0  bsp_btn_ble.o(i.ble_evt_handler)
    ble_evt_handler                          0x0002aaad   Thumb Code   106  bsp_btn_ble.o(i.ble_evt_handler)
    i.ble_evt_handler                        0x0002ab1c   Section        0  ble_conn_params.o(i.ble_evt_handler)
    ble_evt_handler                          0x0002ab1d   Thumb Code   242  ble_conn_params.o(i.ble_evt_handler)
    i.ble_evt_handler                        0x0002ac18   Section        0  ble_conn_state.o(i.ble_evt_handler)
    ble_evt_handler                          0x0002ac19   Thumb Code   274  ble_conn_state.o(i.ble_evt_handler)
    i.ble_evt_handler                        0x0002ad30   Section        0  peer_manager.o(i.ble_evt_handler)
    ble_evt_handler                          0x0002ad31   Thumb Code    36  peer_manager.o(i.ble_evt_handler)
    i.ble_evt_handler                        0x0002ad58   Section        0  nfc_ble_pair_lib.o(i.ble_evt_handler)
    ble_evt_handler                          0x0002ad59   Thumb Code   108  nfc_ble_pair_lib.o(i.ble_evt_handler)
    i.ble_hrs_heart_rate_measurement_send    0x0002adcc   Section        0  ble_hrs.o(i.ble_hrs_heart_rate_measurement_send)
    i.ble_hrs_init                           0x0002ae28   Section        0  ble_hrs.o(i.ble_hrs_init)
    i.ble_hrs_on_ble_evt                     0x0002aefc   Section        0  ble_hrs.o(i.ble_hrs_on_ble_evt)
    i.ble_hrs_rr_interval_add                0x0002af4c   Section        0  ble_hrs.o(i.ble_hrs_rr_interval_add)
    i.ble_hrs_sensor_contact_detected_update 0x0002af82   Section        0  ble_hrs.o(i.ble_hrs_sensor_contact_detected_update)
    i.ble_srv_ascii_to_utf8                  0x0002af88   Section        0  ble_srv_common.o(i.ble_srv_ascii_to_utf8)
    i.ble_srv_is_notification_enabled        0x0002af9a   Section        0  ble_srv_common.o(i.ble_srv_is_notification_enabled)
    i.ble_srv_report_ref_encode              0x0002afa2   Section        0  ble_srv_common.o(i.ble_srv_report_ref_encode)
    i.block_cipher_df                        0x0002afae   Section        0  ctr_drbg.o(i.block_cipher_df)
    block_cipher_df                          0x0002afaf   Thumb Code   338  ctr_drbg.o(i.block_cipher_df)
    i.bsp_board_button_idx_to_pin            0x0002b100   Section        0  boards.o(i.bsp_board_button_idx_to_pin)
    i.bsp_board_button_state_get             0x0002b10c   Section        0  boards.o(i.bsp_board_button_state_get)
    i.bsp_board_init                         0x0002b12c   Section        0  boards.o(i.bsp_board_init)
    i.bsp_board_led_invert                   0x0002b180   Section        0  boards.o(i.bsp_board_led_invert)
    i.bsp_board_led_off                      0x0002b1a4   Section        0  boards.o(i.bsp_board_led_off)
    i.bsp_board_led_on                       0x0002b1b4   Section        0  boards.o(i.bsp_board_led_on)
    i.bsp_board_led_state_get                0x0002b1c4   Section        0  boards.o(i.bsp_board_led_state_get)
    i.bsp_board_leds_off                     0x0002b1e4   Section        0  boards.o(i.bsp_board_leds_off)
    i.bsp_board_leds_on                      0x0002b1f6   Section        0  boards.o(i.bsp_board_leds_on)
    i.bsp_board_pin_to_button_idx            0x0002b208   Section        0  boards.o(i.bsp_board_pin_to_button_idx)
    i.bsp_btn_ble_init                       0x0002b22c   Section        0  bsp_btn_ble.o(i.bsp_btn_ble_init)
    i.bsp_btn_ble_sleep_mode_prepare         0x0002b264   Section        0  bsp_btn_ble.o(i.bsp_btn_ble_sleep_mode_prepare)
    i.bsp_button_event_handler               0x0002b284   Section        0  bsp.o(i.bsp_button_event_handler)
    bsp_button_event_handler                 0x0002b285   Thumb Code   132  bsp.o(i.bsp_button_event_handler)
    i.bsp_button_is_pressed                  0x0002b314   Section        0  bsp.o(i.bsp_button_is_pressed)
    i.bsp_event_handler                      0x0002b320   Section        0  main.o(i.bsp_event_handler)
    i.bsp_event_to_button_action_assign      0x0002b36c   Section        0  bsp.o(i.bsp_event_to_button_action_assign)
    i.bsp_indication_set                     0x0002b3b0   Section        0  bsp.o(i.bsp_indication_set)
    i.bsp_init                               0x0002b3c8   Section        0  bsp.o(i.bsp_init)
    i.bsp_led_indication                     0x0002b45c   Section        0  bsp.o(i.bsp_led_indication)
    bsp_led_indication                       0x0002b45d   Thumb Code   446  bsp.o(i.bsp_led_indication)
    i.bsp_wakeup_button_enable               0x0002b624   Section        0  bsp.o(i.bsp_wakeup_button_enable)
    i.buf_prealloc                           0x0002b62c   Section        0  nrf_log_frontend.o(i.buf_prealloc)
    buf_prealloc                             0x0002b62d   Thumb Code   140  nrf_log_frontend.o(i.buf_prealloc)
    i.buffer_add                             0x0002b6c0   Section        0  nrf_fprintf_format.o(i.buffer_add)
    buffer_add                               0x0002b6c1   Thumb Code    46  nrf_fprintf_format.o(i.buffer_add)
    i.buffer_is_empty                        0x0002b6f0   Section        0  nrf_log_frontend.o(i.buffer_is_empty)
    i.button_get                             0x0002b708   Section        0  app_button.o(i.button_get)
    button_get                               0x0002b709   Thumb Code    36  app_button.o(i.button_get)
    i.button_timer_handler                   0x0002b730   Section        0  bsp.o(i.button_timer_handler)
    button_timer_handler                     0x0002b731   Thumb Code     8  bsp.o(i.button_timer_handler)
    i.car_update_needed                      0x0002b738   Section        0  gatt_cache_manager.o(i.car_update_needed)
    car_update_needed                        0x0002b739   Thumb Code    36  gatt_cache_manager.o(i.car_update_needed)
    i.car_update_pending_handle              0x0002b760   Section        0  gatt_cache_manager.o(i.car_update_pending_handle)
    car_update_pending_handle                0x0002b761   Thumb Code    54  gatt_cache_manager.o(i.car_update_pending_handle)
    i.channel_free                           0x0002b7a0   Section        0  nrfx_gpiote.o(i.channel_free)
    channel_free                             0x0002b7a1   Thumb Code    22  nrfx_gpiote.o(i.channel_free)
    i.channel_port_alloc                     0x0002b7bc   Section        0  nrfx_gpiote.o(i.channel_port_alloc)
    channel_port_alloc                       0x0002b7bd   Thumb Code    66  nrfx_gpiote.o(i.channel_port_alloc)
    i.channel_port_get                       0x0002b804   Section        0  nrfx_gpiote.o(i.channel_port_get)
    channel_port_get                         0x0002b805   Thumb Code    10  nrfx_gpiote.o(i.channel_port_get)
    i.char_add                               0x0002b814   Section        0  ble_dis.o(i.char_add)
    char_add                                 0x0002b815   Thumb Code    90  ble_dis.o(i.char_add)
    i.characteristic_add                     0x0002b874   Section        0  ble_srv_common.o(i.characteristic_add)
    i.claim                                  0x0002ba04   Section        0  peer_id.o(i.claim)
    claim                                    0x0002ba05   Thumb Code    62  peer_id.o(i.claim)
    i.clock_clk_started_notify               0x0002ba44   Section        0  nrf_drv_clock.o(i.clock_clk_started_notify)
    clock_clk_started_notify                 0x0002ba45   Thumb Code    34  nrf_drv_clock.o(i.clock_clk_started_notify)
    i.clock_event_handler                    0x0002ba6c   Section        0  nfc_platform.o(i.clock_event_handler)
    clock_event_handler                      0x0002ba6d   Thumb Code    10  nfc_platform.o(i.clock_event_handler)
    i.clock_irq_handler                      0x0002ba78   Section        0  nrf_drv_clock.o(i.clock_irq_handler)
    clock_irq_handler                        0x0002ba79   Thumb Code    24  nrf_drv_clock.o(i.clock_irq_handler)
    i.common_adv_data_create                 0x0002ba94   Section        0  nfc_ble_pair_msg.o(i.common_adv_data_create)
    common_adv_data_create                   0x0002ba95   Thumb Code    36  nfc_ble_pair_msg.o(i.common_adv_data_create)
    i.compare_func                           0x0002bab8   Section        0  app_timer2.o(i.compare_func)
    compare_func                             0x0002bab9   Thumb Code    24  app_timer2.o(i.compare_func)
    i.compute_and_give_dhkey                 0x0002bad0   Section        0  nrf_ble_lesc.o(i.compute_and_give_dhkey)
    compute_and_give_dhkey                   0x0002bad1   Thumb Code   120  nrf_ble_lesc.o(i.compute_and_give_dhkey)
    i.conn_handle_list_get                   0x0002bbc8   Section        0  ble_conn_state.o(i.conn_handle_list_get)
    i.conn_int_encode                        0x0002bc06   Section        0  ble_advdata.o(i.conn_int_encode)
    conn_int_encode                          0x0002bc07   Thumb Code   136  ble_advdata.o(i.conn_int_encode)
    i.conn_params_error_handler              0x0002bc8e   Section        0  main.o(i.conn_params_error_handler)
    conn_params_error_handler                0x0002bc8f   Thumb Code     4  main.o(i.conn_params_error_handler)
    i.conn_params_negotiation                0x0002bc94   Section        0  ble_conn_params.o(i.conn_params_negotiation)
    conn_params_negotiation                  0x0002bc95   Thumb Code    68  ble_conn_params.o(i.conn_params_negotiation)
    i.conn_sec_failure                       0x0002bcdc   Section        0  security_dispatcher.o(i.conn_sec_failure)
    conn_sec_failure                         0x0002bcdd   Thumb Code    60  security_dispatcher.o(i.conn_sec_failure)
    i.conn_secure                            0x0002bd20   Section        0  peer_manager_handler.o(i.conn_secure)
    conn_secure                              0x0002bd21   Thumb Code     4  peer_manager_handler.o(i.conn_secure)
    i.continous_items_get                    0x0002bd24   Section        0  nrf_queue.o(i.continous_items_get)
    continous_items_get                      0x0002bd25   Thumb Code    38  nrf_queue.o(i.continous_items_get)
    i.ctr_drbg_update_internal               0x0002bd4a   Section        0  ctr_drbg.o(i.ctr_drbg_update_internal)
    ctr_drbg_update_internal                 0x0002bd4b   Thumb Code   130  ctr_drbg.o(i.ctr_drbg_update_internal)
    i.data_length_update                     0x0002bdcc   Section        0  nrf_ble_gatt.o(i.data_length_update)
    data_length_update                       0x0002bdcd   Thumb Code   128  nrf_ble_gatt.o(i.data_length_update)
    i.db_update_pending_handle               0x0002becc   Section        0  gatt_cache_manager.o(i.db_update_pending_handle)
    db_update_pending_handle                 0x0002becd   Thumb Code    42  gatt_cache_manager.o(i.db_update_pending_handle)
    i.delete_execute                         0x0002befc   Section        0  fds.o(i.delete_execute)
    delete_execute                           0x0002befd   Thumb Code   134  fds.o(i.delete_execute)
    i.descriptor_add                         0x0002bf88   Section        0  ble_srv_common.o(i.descriptor_add)
    i.detection_delay_timeout_handler        0x0002c034   Section        0  app_button.o(i.detection_delay_timeout_handler)
    detection_delay_timeout_handler          0x0002c035   Thumb Code    66  app_button.o(i.detection_delay_timeout_handler)
    i.dropped_sat16_get                      0x0002c07c   Section        0  nrf_log_frontend.o(i.dropped_sat16_get)
    dropped_sat16_get                        0x0002c07d   Thumb Code    16  nrf_log_frontend.o(i.dropped_sat16_get)
    i.drv_rtc_compare_disable                0x0002c090   Section        0  drv_rtc.o(i.drv_rtc_compare_disable)
    i.drv_rtc_compare_pending                0x0002c0a4   Section        0  drv_rtc.o(i.drv_rtc_compare_pending)
    i.drv_rtc_compare_set                    0x0002c0b2   Section        0  drv_rtc.o(i.drv_rtc_compare_set)
    i.drv_rtc_counter_get                    0x0002c102   Section        0  drv_rtc.o(i.drv_rtc_counter_get)
    i.drv_rtc_init                           0x0002c10c   Section        0  drv_rtc.o(i.drv_rtc_init)
    i.drv_rtc_irq_trigger                    0x0002c1e4   Section        0  drv_rtc.o(i.drv_rtc_irq_trigger)
    i.drv_rtc_overflow_enable                0x0002c202   Section        0  drv_rtc.o(i.drv_rtc_overflow_enable)
    i.drv_rtc_overflow_pending               0x0002c20a   Section        0  drv_rtc.o(i.drv_rtc_overflow_pending)
    i.drv_rtc_start                          0x0002c212   Section        0  drv_rtc.o(i.drv_rtc_start)
    i.drv_rtc_stop                           0x0002c21a   Section        0  drv_rtc.o(i.drv_rtc_stop)
    i.drv_rtc_windowed_compare_set           0x0002c222   Section        0  drv_rtc.o(i.drv_rtc_windowed_compare_set)
    i.encryption_failure                     0x0002c300   Section        0  security_dispatcher.o(i.encryption_failure)
    encryption_failure                       0x0002c301   Thumb Code    10  security_dispatcher.o(i.encryption_failure)
    i.entropy_callback                       0x0002c30a   Section        0  nrf_hw_backend_rng_mbedtls.o(i.entropy_callback)
    entropy_callback                         0x0002c30b   Thumb Code    14  nrf_hw_backend_rng_mbedtls.o(i.entropy_callback)
    i.ep_oob_specific_adv_data_create        0x0002c318   Section        0  nfc_ble_pair_msg.o(i.ep_oob_specific_adv_data_create)
    ep_oob_specific_adv_data_create          0x0002c319   Thumb Code    14  nfc_ble_pair_msg.o(i.ep_oob_specific_adv_data_create)
    i.erase                                  0x0002c32c   Section        0  nrf_fstorage_sd.o(i.erase)
    erase                                    0x0002c32d   Thumb Code    72  nrf_fstorage_sd.o(i.erase)
    i.event_prepare                          0x0002c378   Section        0  fds.o(i.event_prepare)
    event_prepare                            0x0002c379   Thumb Code   116  fds.o(i.event_prepare)
    i.event_send                             0x0002c3ec   Section        0  fds.o(i.event_send)
    event_send                               0x0002c3ed   Thumb Code    26  fds.o(i.event_send)
    i.event_send                             0x0002c40c   Section        0  nrf_fstorage_sd.o(i.event_send)
    event_send                               0x0002c40d   Thumb Code    84  nrf_fstorage_sd.o(i.event_send)
    i.events_send_from_err_code              0x0002c460   Section        0  security_manager.o(i.events_send_from_err_code)
    events_send_from_err_code                0x0002c461   Thumb Code   134  security_manager.o(i.events_send_from_err_code)
    i.evt_enable                             0x0002c4f8   Section        0  drv_rtc.o(i.evt_enable)
    evt_enable                               0x0002c4f9   Thumb Code    18  drv_rtc.o(i.evt_enable)
    i.evt_handle                             0x0002c50c   Section        0  app_button.o(i.evt_handle)
    i.evt_pending                            0x0002c5ec   Section        0  drv_rtc.o(i.evt_pending)
    evt_pending                              0x0002c5ed   Thumb Code    20  drv_rtc.o(i.evt_pending)
    i.evt_send                               0x0002c600   Section        0  gatt_cache_manager.o(i.evt_send)
    evt_send                                 0x0002c601   Thumb Code    24  gatt_cache_manager.o(i.evt_send)
    i.evt_send                               0x0002c61c   Section        0  gatts_cache_manager.o(i.evt_send)
    evt_send                                 0x0002c61d   Thumb Code    24  gatts_cache_manager.o(i.evt_send)
    i.evt_send                               0x0002c638   Section        0  peer_manager.o(i.evt_send)
    evt_send                                 0x0002c639   Thumb Code    36  peer_manager.o(i.evt_send)
    i.evt_send                               0x0002c664   Section        0  security_dispatcher.o(i.evt_send)
    evt_send                                 0x0002c665   Thumb Code    24  security_dispatcher.o(i.evt_send)
    i.evt_send                               0x0002c680   Section        0  security_manager.o(i.evt_send)
    evt_send                                 0x0002c681   Thumb Code     6  security_manager.o(i.evt_send)
    i.fds_evt_handler                        0x0002c68c   Section        0  peer_data_storage.o(i.fds_evt_handler)
    fds_evt_handler                          0x0002c68d   Thumb Code   218  peer_data_storage.o(i.fds_evt_handler)
    i.fds_file_delete                        0x0002c76c   Section        0  fds.o(i.fds_file_delete)
    i.fds_gc                                 0x0002c7b4   Section        0  fds.o(i.fds_gc)
    i.fds_init                               0x0002c7f4   Section        0  fds.o(i.fds_init)
    i.fds_record_close                       0x0002c8d8   Section        0  fds.o(i.fds_record_close)
    i.fds_record_find                        0x0002c920   Section        0  fds.o(i.fds_record_find)
    i.fds_record_find_by_key                 0x0002c92e   Section        0  fds.o(i.fds_record_find_by_key)
    i.fds_record_find_in_file                0x0002c93e   Section        0  fds.o(i.fds_record_find_in_file)
    i.fds_record_id_from_desc                0x0002c94e   Section        0  fds.o(i.fds_record_id_from_desc)
    i.fds_record_open                        0x0002c960   Section        0  fds.o(i.fds_record_open)
    i.fds_record_update                      0x0002c9ac   Section        0  fds.o(i.fds_record_update)
    i.fds_record_write                       0x0002c9bc   Section        0  fds.o(i.fds_record_write)
    i.fds_register                           0x0002c9c4   Section        0  fds.o(i.fds_register)
    i.fds_stat                               0x0002c9f4   Section        0  fds.o(i.fds_stat)
    i.file_id_within_pm_range                0x0002ca94   Section        0  peer_data_storage.o(i.file_id_within_pm_range)
    file_id_within_pm_range                  0x0002ca95   Thumb Code    20  peer_data_storage.o(i.file_id_within_pm_range)
    i.flag_id_init                           0x0002caa8   Section        0  security_dispatcher.o(i.flag_id_init)
    flag_id_init                             0x0002caa9   Thumb Code    18  security_dispatcher.o(i.flag_id_init)
    i.flag_id_init                           0x0002caba   Section        0  security_manager.o(i.flag_id_init)
    flag_id_init                             0x0002cabb   Thumb Code    18  security_manager.o(i.flag_id_init)
    i.flag_toggle                            0x0002cacc   Section        0  ble_conn_state.o(i.flag_toggle)
    flag_toggle                              0x0002cacd   Thumb Code    10  ble_conn_state.o(i.flag_toggle)
    i.flags_set                              0x0002cad6   Section        0  ble_advertising.o(i.flags_set)
    flags_set                                0x0002cad7   Thumb Code    40  ble_advertising.o(i.flags_set)
    i.flags_set_from_err_code                0x0002cb00   Section        0  security_manager.o(i.flags_set_from_err_code)
    flags_set_from_err_code                  0x0002cb01   Thumb Code    42  security_manager.o(i.flags_set_from_err_code)
    i.for_each_set_flag                      0x0002cb30   Section        0  ble_conn_state.o(i.for_each_set_flag)
    for_each_set_flag                        0x0002cb31   Thumb Code    48  ble_conn_state.o(i.for_each_set_flag)
    i.fs_event_handler                       0x0002cb60   Section        0  fds.o(i.fs_event_handler)
    fs_event_handler                         0x0002cb61   Thumb Code     6  fds.o(i.fs_event_handler)
    i.gap_params_init                        0x0002cb68   Section        0  main.o(i.gap_params_init)
    gap_params_init                          0x0002cb69   Thumb Code    96  main.o(i.gap_params_init)
    i.gc_execute                             0x0002cbd8   Section        0  fds.o(i.gc_execute)
    gc_execute                               0x0002cbd9   Thumb Code   124  fds.o(i.gc_execute)
    i.gc_next_page                           0x0002cc58   Section        0  fds.o(i.gc_next_page)
    gc_next_page                             0x0002cc59   Thumb Code    70  fds.o(i.gc_next_page)
    i.gc_page_erase                          0x0002cca4   Section        0  fds.o(i.gc_page_erase)
    gc_page_erase                            0x0002cca5   Thumb Code    50  fds.o(i.gc_page_erase)
    i.gc_record_copy                         0x0002cce4   Section        0  fds.o(i.gc_record_copy)
    gc_record_copy                           0x0002cce5   Thumb Code    40  fds.o(i.gc_record_copy)
    i.gc_record_find_next                    0x0002cd18   Section        0  fds.o(i.gc_record_find_next)
    gc_record_find_next                      0x0002cd19   Thumb Code    30  fds.o(i.gc_record_find_next)
    i.gc_state_advance                       0x0002cd3c   Section        0  fds.o(i.gc_state_advance)
    gc_state_advance                         0x0002cd3d   Thumb Code   104  fds.o(i.gc_state_advance)
    i.gc_swap_pages                          0x0002cdac   Section        0  fds.o(i.gc_swap_pages)
    gc_swap_pages                            0x0002cdad   Thumb Code    40  fds.o(i.gc_swap_pages)
    i.gcm_ble_evt_handler                    0x0002cddc   Section        0  gatt_cache_manager.o(i.gcm_ble_evt_handler)
    i.gcm_im_evt_handler                     0x0002d00c   Section        0  gatt_cache_manager.o(i.gcm_im_evt_handler)
    i.gcm_init                               0x0002d048   Section        0  gatt_cache_manager.o(i.gcm_init)
    i.gcm_pdb_evt_handler                    0x0002d0dc   Section        0  gatt_cache_manager.o(i.gcm_pdb_evt_handler)
    i.generate                               0x0002d164   Section        0  nrf_crypto_rng.o(i.generate)
    generate                                 0x0002d165   Thumb Code    94  nrf_crypto_rng.o(i.generate)
    i.generate_in_range                      0x0002d1cc   Section        0  nrf_crypto_rng.o(i.generate_in_range)
    generate_in_range                        0x0002d1cd   Thumb Code   194  nrf_crypto_rng.o(i.generate_in_range)
    i.get_now                                0x0002d294   Section        0  app_timer2.o(i.get_now)
    get_now                                  0x0002d295   Thumb Code    46  app_timer2.o(i.get_now)
    i.gpiote_event_handler                   0x0002d2c8   Section        0  app_button.o(i.gpiote_event_handler)
    gpiote_event_handler                     0x0002d2c9   Thumb Code    56  app_button.o(i.gpiote_event_handler)
    i.gscm_db_change_notification_done       0x0002d304   Section        0  gatts_cache_manager.o(i.gscm_db_change_notification_done)
    i.gscm_init                              0x0002d320   Section        0  gatts_cache_manager.o(i.gscm_init)
    i.gscm_local_db_cache_apply              0x0002d334   Section        0  gatts_cache_manager.o(i.gscm_local_db_cache_apply)
    i.gscm_local_db_cache_update             0x0002d3c4   Section        0  gatts_cache_manager.o(i.gscm_local_db_cache_update)
    i.gscm_pdb_evt_handler                   0x0002d470   Section        0  gatts_cache_manager.o(i.gscm_pdb_evt_handler)
    i.gscm_service_changed_ind_needed        0x0002d488   Section        0  gatts_cache_manager.o(i.gscm_service_changed_ind_needed)
    i.gscm_service_changed_ind_send          0x0002d4a8   Section        0  gatts_cache_manager.o(i.gscm_service_changed_ind_send)
    i.header_check                           0x0002d504   Section        0  fds.o(i.header_check)
    header_check                             0x0002d505   Thumb Code    44  fds.o(i.header_check)
    i.header_has_next                        0x0002d530   Section        0  fds.o(i.header_has_next)
    header_has_next                          0x0002d531   Thumb Code    18  fds.o(i.header_has_next)
    i.heart_rate_meas_timeout_handler        0x0002d544   Section        0  main.o(i.heart_rate_meas_timeout_handler)
    heart_rate_meas_timeout_handler          0x0002d545   Thumb Code    78  main.o(i.heart_rate_meas_timeout_handler)
    i.hrm_encode                             0x0002d5a0   Section        0  ble_hrs.o(i.hrm_encode)
    hrm_encode                               0x0002d5a1   Thumb Code   152  ble_hrs.o(i.hrm_encode)
    i.im_address_resolve                     0x0002d638   Section        0  id_manager.o(i.im_address_resolve)
    i.im_ble_addr_get                        0x0002d680   Section        0  id_manager.o(i.im_ble_addr_get)
    i.im_ble_evt_handler                     0x0002d6b8   Section        0  id_manager.o(i.im_ble_evt_handler)
    i.im_conn_handle_get                     0x0002d794   Section        0  id_manager.o(i.im_conn_handle_get)
    i.im_find_duplicate_bonding_data         0x0002d7d4   Section        0  id_manager.o(i.im_find_duplicate_bonding_data)
    i.im_is_duplicate_bonding_data           0x0002d80c   Section        0  id_manager.o(i.im_is_duplicate_bonding_data)
    i.im_master_id_is_valid                  0x0002d87e   Section        0  id_manager.o(i.im_master_id_is_valid)
    i.im_master_ids_compare                  0x0002d896   Section        0  id_manager.o(i.im_master_ids_compare)
    i.im_new_peer_id                         0x0002d8c0   Section        0  id_manager.o(i.im_new_peer_id)
    i.im_peer_free                           0x0002d8d4   Section        0  id_manager.o(i.im_peer_free)
    i.im_peer_id_get_by_conn_handle          0x0002d900   Section        0  id_manager.o(i.im_peer_id_get_by_conn_handle)
    i.im_peer_id_get_by_master_id            0x0002d924   Section        0  id_manager.o(i.im_peer_id_get_by_master_id)
    i.init                                   0x0002d960   Section        0  nrf_fstorage_sd.o(i.init)
    init                                     0x0002d961   Thumb Code    42  nrf_fstorage_sd.o(i.init)
    i.init_execute                           0x0002d994   Section        0  fds.o(i.init_execute)
    init_execute                             0x0002d995   Thumb Code   188  fds.o(i.init_execute)
    i.instance_get                           0x0002da5c   Section        0  ble_conn_params.o(i.instance_get)
    instance_get                             0x0002da5d   Thumb Code    14  ble_conn_params.o(i.instance_get)
    i.int_print                              0x0002da70   Section        0  nrf_fprintf_format.o(i.int_print)
    int_print                                0x0002da71   Thumb Code   166  nrf_fprintf_format.o(i.int_print)
    i.interrupts_enable                      0x0002db18   Section        0  nrfx_uarte.o(i.interrupts_enable)
    interrupts_enable                        0x0002db19   Thumb Code   132  nrfx_uarte.o(i.interrupts_enable)
    i.invalid_packets_omit                   0x0002dba0   Section        0  nrf_log_frontend.o(i.invalid_packets_omit)
    invalid_packets_omit                     0x0002dba1   Thumb Code    52  nrf_log_frontend.o(i.invalid_packets_omit)
    i.is_busy                                0x0002dbd4   Section        0  nrf_fstorage_sd.o(i.is_busy)
    is_busy                                  0x0002dbd5   Thumb Code    12  nrf_fstorage_sd.o(i.is_busy)
    i.is_conn_params_ok                      0x0002dbe4   Section        0  ble_conn_params.o(i.is_conn_params_ok)
    is_conn_params_ok                        0x0002dbe5   Thumb Code    68  ble_conn_params.o(i.is_conn_params_ok)
    i.is_valid_irk                           0x0002dc28   Section        0  id_manager.o(i.is_valid_irk)
    i.is_vector_greater_or_equal             0x0002dc3c   Section        0  nrf_crypto_rng.o(i.is_vector_greater_or_equal)
    is_vector_greater_or_equal               0x0002dc3d   Thumb Code    36  nrf_crypto_rng.o(i.is_vector_greater_or_equal)
    i.is_word_aligned                        0x0002dc60   Section        0  fds.o(i.is_word_aligned)
    is_word_aligned                          0x0002dc61   Thumb Code    12  fds.o(i.is_word_aligned)
    i.item_enqueue                           0x0002dc6c   Section        0  nrf_drv_clock.o(i.item_enqueue)
    item_enqueue                             0x0002dc6d   Thumb Code    22  nrf_drv_clock.o(i.item_enqueue)
    i.le_oob_specific_adv_data_create        0x0002dc82   Section        0  nfc_ble_pair_msg.o(i.le_oob_specific_adv_data_create)
    le_oob_specific_adv_data_create          0x0002dc83   Thumb Code    24  nfc_ble_pair_msg.o(i.le_oob_specific_adv_data_create)
    i.le_role_encode                         0x0002dc9a   Section        0  nfc_ble_oob_advdata.o(i.le_role_encode)
    le_role_encode                           0x0002dc9b   Thumb Code    92  nfc_ble_oob_advdata.o(i.le_role_encode)
    i.leds_off                               0x0002dcf8   Section        0  bsp.o(i.leds_off)
    leds_off                                 0x0002dcf9   Thumb Code    42  bsp.o(i.leds_off)
    i.leds_timer_handler                     0x0002dd28   Section        0  bsp.o(i.leds_timer_handler)
    leds_timer_handler                       0x0002dd29   Thumb Code    16  bsp.o(i.leds_timer_handler)
    i.lesc_value_encode                      0x0002dd3c   Section        0  nfc_ble_oob_advdata.o(i.lesc_value_encode)
    lesc_value_encode                        0x0002dd3d   Thumb Code   136  nfc_ble_oob_advdata.o(i.lesc_value_encode)
    i.link_init                              0x0002ddc4   Section        0  nrf_ble_gatt.o(i.link_init)
    link_init                                0x0002ddc5   Thumb Code    20  nrf_ble_gatt.o(i.link_init)
    i.link_secure                            0x0002ddd8   Section        0  security_manager.o(i.link_secure)
    link_secure                              0x0002ddd9   Thumb Code   190  security_manager.o(i.link_secure)
    i.link_secure_failure                    0x0002dea8   Section        0  security_dispatcher.o(i.link_secure_failure)
    link_secure_failure                      0x0002dea9   Thumb Code    54  security_dispatcher.o(i.link_secure_failure)
    i.link_secure_pending_handle             0x0002dee4   Section        0  security_manager.o(i.link_secure_pending_handle)
    link_secure_pending_handle               0x0002dee5   Thumb Code    38  security_manager.o(i.link_secure_pending_handle)
    i.local_db_apply_in_evt                  0x0002df10   Section        0  gatt_cache_manager.o(i.local_db_apply_in_evt)
    local_db_apply_in_evt                    0x0002df11   Thumb Code   148  gatt_cache_manager.o(i.local_db_apply_in_evt)
    i.local_db_update                        0x0002dfb8   Section        0  gatt_cache_manager.o(i.local_db_update)
    local_db_update                          0x0002dfb9   Thumb Code    10  gatt_cache_manager.o(i.local_db_update)
    i.local_db_update_in_evt                 0x0002dfc8   Section        0  gatt_cache_manager.o(i.local_db_update_in_evt)
    local_db_update_in_evt                   0x0002dfc9   Thumb Code   134  gatt_cache_manager.o(i.local_db_update_in_evt)
    i.log_skip                               0x0002e0d4   Section        0  nrf_log_frontend.o(i.log_skip)
    log_skip                                 0x0002e0d5   Thumb Code   150  nrf_log_frontend.o(i.log_skip)
    i.main                                   0x0002e178   Section        0  main.o(i.main)
    i.manuf_specific_data_encode             0x0002e368   Section        0  ble_advdata.o(i.manuf_specific_data_encode)
    manuf_specific_data_encode               0x0002e369   Thumb Code   100  ble_advdata.o(i.manuf_specific_data_encode)
    i.mbedtls_aes_crypt_ecb                  0x0002e3cc   Section        0  aes.o(i.mbedtls_aes_crypt_ecb)
    i.mbedtls_aes_free                       0x0002e3e4   Section        0  aes.o(i.mbedtls_aes_free)
    i.mbedtls_aes_init                       0x0002e3f2   Section        0  aes.o(i.mbedtls_aes_init)
    i.mbedtls_aes_setkey_enc                 0x0002e3fc   Section        0  aes.o(i.mbedtls_aes_setkey_enc)
    i.mbedtls_ctr_drbg_free                  0x0002e598   Section        0  ctr_drbg.o(i.mbedtls_ctr_drbg_free)
    i.mbedtls_ctr_drbg_init                  0x0002e5b6   Section        0  ctr_drbg.o(i.mbedtls_ctr_drbg_init)
    i.mbedtls_ctr_drbg_random                0x0002e5be   Section        0  ctr_drbg.o(i.mbedtls_ctr_drbg_random)
    i.mbedtls_ctr_drbg_random_with_add       0x0002e5ca   Section        0  ctr_drbg.o(i.mbedtls_ctr_drbg_random_with_add)
    i.mbedtls_ctr_drbg_reseed                0x0002e6a8   Section        0  ctr_drbg.o(i.mbedtls_ctr_drbg_reseed)
    i.mbedtls_ctr_drbg_seed                  0x0002e72a   Section        0  ctr_drbg.o(i.mbedtls_ctr_drbg_seed)
    i.mbedtls_internal_aes_decrypt           0x0002e780   Section        0  aes.o(i.mbedtls_internal_aes_decrypt)
    i.mbedtls_internal_aes_encrypt           0x0002ec34   Section        0  aes.o(i.mbedtls_internal_aes_encrypt)
    i.mbedtls_platform_zeroize               0x0002f0e8   Section        0  platform_util.o(i.mbedtls_platform_zeroize)
    i.memobj_op                              0x0002f0fc   Section        0  nrf_memobj.o(i.memobj_op)
    memobj_op                                0x0002f0fd   Thumb Code   126  nrf_memobj.o(i.memobj_op)
    i.module_idx_get                         0x0002f17c   Section        0  nrf_log_frontend.o(i.module_idx_get)
    module_idx_get                           0x0002f17d   Thumb Code    42  nrf_log_frontend.o(i.module_idx_get)
    i.mutex_lock_status_get                  0x0002f1ac   Section        0  pm_buffer.o(i.mutex_lock_status_get)
    mutex_lock_status_get                    0x0002f1ad   Thumb Code     8  pm_buffer.o(i.mutex_lock_status_get)
    i.name_encode                            0x0002f1b4   Section        0  ble_advdata.o(i.name_encode)
    name_encode                              0x0002f1b5   Thumb Code   166  ble_advdata.o(i.name_encode)
    i.new_context_get                        0x0002f25c   Section        0  security_manager.o(i.new_context_get)
    new_context_get                          0x0002f25d   Thumb Code    14  security_manager.o(i.new_context_get)
    i.new_evt                                0x0002f270   Section        0  security_manager.o(i.new_evt)
    new_evt                                  0x0002f271   Thumb Code    50  security_manager.o(i.new_evt)
    i.next_id_get                            0x0002f2a2   Section        0  peer_id.o(i.next_id_get)
    i.nfcAddBytesToBuffer                    0x0002f2d2   Section        0  nfc_t2t_lib.o(i.nfcAddBytesToBuffer)
    nfcAddBytesToBuffer                      0x0002f2d3   Thumb Code    20  nfc_t2t_lib.o(i.nfcAddBytesToBuffer)
    i.nfcAddFixedValueToBuffer               0x0002f2e6   Section        0  nfc_t2t_lib.o(i.nfcAddFixedValueToBuffer)
    nfcAddFixedValueToBuffer                 0x0002f2e7   Thumb Code    22  nfc_t2t_lib.o(i.nfcAddFixedValueToBuffer)
    i.nfcCalculateAddresses                  0x0002f2fc   Section        0  nfc_t2t_lib.o(i.nfcCalculateAddresses)
    nfcCalculateAddresses                    0x0002f2fd   Thumb Code    48  nfc_t2t_lib.o(i.nfcCalculateAddresses)
    i.nfcChangeState                         0x0002f330   Section        0  nfc_t2t_lib.o(i.nfcChangeState)
    nfcChangeState                           0x0002f331   Thumb Code    54  nfc_t2t_lib.o(i.nfcChangeState)
    i.nfcHandleT2ReadCommand                 0x0002f370   Section        0  nfc_t2t_lib.o(i.nfcHandleT2ReadCommand)
    nfcHandleT2ReadCommand                   0x0002f371   Thumb Code    76  nfc_t2t_lib.o(i.nfcHandleT2ReadCommand)
    i.nfcPrepareInternalBytes                0x0002f3c0   Section        0  nfc_t2t_lib.o(i.nfcPrepareInternalBytes)
    nfcPrepareInternalBytes                  0x0002f3c1   Thumb Code    16  nfc_t2t_lib.o(i.nfcPrepareInternalBytes)
    i.nfcPrepareTxBuffer                     0x0002f3d4   Section        0  nfc_t2t_lib.o(i.nfcPrepareTxBuffer)
    nfcPrepareTxBuffer                       0x0002f3d5   Thumb Code   210  nfc_t2t_lib.o(i.nfcPrepareTxBuffer)
    i.nfcRegisterPayload                     0x0002f4ac   Section        0  nfc_t2t_lib.o(i.nfcRegisterPayload)
    nfcRegisterPayload                       0x0002f4ad   Thumb Code    40  nfc_t2t_lib.o(i.nfcRegisterPayload)
    i.nfcResetReadState                      0x0002f4d8   Section        0  nfc_t2t_lib.o(i.nfcResetReadState)
    nfcResetReadState                        0x0002f4d9   Thumb Code    66  nfc_t2t_lib.o(i.nfcResetReadState)
    i.nfcUpdateReadState                     0x0002f520   Section        0  nfc_t2t_lib.o(i.nfcUpdateReadState)
    nfcUpdateReadState                       0x0002f521   Thumb Code    88  nfc_t2t_lib.o(i.nfcUpdateReadState)
    i.nfc_ac_rec_payload_constructor         0x0002f57c   Section        0  nfc_ac_rec.o(i.nfc_ac_rec_payload_constructor)
    i.nfc_ble_full_handover_select_msg_encode 0x0002f614   Section        0  nfc_ble_pair_msg.o(i.nfc_ble_full_handover_select_msg_encode)
    i.nfc_ble_oob_adv_data_encode            0x0002f768   Section        0  nfc_ble_oob_advdata.o(i.nfc_ble_oob_adv_data_encode)
    i.nfc_ble_pair_data_set                  0x0002f8b8   Section        0  nfc_ble_pair_lib.o(i.nfc_ble_pair_data_set)
    i.nfc_ble_pair_default_msg_encode        0x0002f94c   Section        0  nfc_ble_pair_msg.o(i.nfc_ble_pair_default_msg_encode)
    i.nfc_ble_pair_init                      0x0002f9b8   Section        0  nfc_ble_pair_lib.o(i.nfc_ble_pair_init)
    i.nfc_ble_pair_msg_updatable_tk_encode   0x0002fa1c   Section        0  nfc_ble_pair_msg.o(i.nfc_ble_pair_msg_updatable_tk_encode)
    i.nfc_ble_pair_on_pm_params_req          0x0002fa54   Section        0  nfc_ble_pair_lib.o(i.nfc_ble_pair_on_pm_params_req)
    i.nfc_ble_simplified_ep_oob_msg_encode   0x0002faa0   Section        0  nfc_ble_pair_msg.o(i.nfc_ble_simplified_ep_oob_msg_encode)
    i.nfc_ble_simplified_le_oob_msg_encode   0x0002fb0c   Section        0  nfc_ble_pair_msg.o(i.nfc_ble_simplified_le_oob_msg_encode)
    i.nfc_callback                           0x0002fb78   Section        0  nfc_ble_pair_lib.o(i.nfc_callback)
    nfc_callback                             0x0002fb79   Thumb Code   106  nfc_ble_pair_lib.o(i.nfc_callback)
    i.nfc_ep_oob_payload_constructor         0x0002fbec   Section        0  nfc_ep_oob_rec.o(i.nfc_ep_oob_payload_constructor)
    i.nfc_hs_rec_local_record_add            0x0002fc90   Section        0  nfc_hs_rec.o(i.nfc_hs_rec_local_record_add)
    i.nfc_hs_rec_payload_constructor         0x0002fc98   Section        0  nfc_hs_rec.o(i.nfc_hs_rec_payload_constructor)
    i.nfc_le_oob_payload_constructor         0x0002fcd2   Section        0  nfc_le_oob_rec.o(i.nfc_le_oob_payload_constructor)
    i.nfc_lesc_data_update                   0x0002fd1c   Section        0  nfc_ble_pair_msg.o(i.nfc_lesc_data_update)
    i.nfc_lesc_pos_set                       0x0002fd50   Section        0  nfc_ble_pair_msg.o(i.nfc_lesc_pos_set)
    i.nfc_ndef_msg_encode                    0x0002fd68   Section        0  nfc_ndef_msg.o(i.nfc_ndef_msg_encode)
    i.nfc_ndef_msg_record_add                0x0002fdda   Section        0  nfc_ndef_msg.o(i.nfc_ndef_msg_record_add)
    i.nfc_ndef_record_encode                 0x0002fdf6   Section        0  nfc_ndef_record.o(i.nfc_ndef_record_encode)
    i.nfc_platform_event_handler             0x0002fea4   Section        0  nfc_platform.o(i.nfc_platform_event_handler)
    i.nfc_platform_setup                     0x0002fec0   Section        0  nfc_platform.o(i.nfc_platform_setup)
    i.nfc_t2t_emulation_start                0x0002fee8   Section        0  nfc_t2t_lib.o(i.nfc_t2t_emulation_start)
    i.nfc_t2t_internal_set                   0x0002ff00   Section        0  nfc_t2t_lib.o(i.nfc_t2t_internal_set)
    i.nfc_t2t_lib_al_internal_bytes_setup    0x0002ff1c   Section        0  nfc_t2t_lib_al.o(i.nfc_t2t_lib_al_internal_bytes_setup)
    nfc_t2t_lib_al_internal_bytes_setup      0x0002ff1d   Thumb Code   140  nfc_t2t_lib_al.o(i.nfc_t2t_lib_al_internal_bytes_setup)
    i.nfc_t2t_lib_al_send                    0x0002ffb0   Section        0  nfc_t2t_lib_al.o(i.nfc_t2t_lib_al_send)
    i.nfc_t2t_lib_al_setup                   0x0002ffc0   Section        0  nfc_t2t_lib_al.o(i.nfc_t2t_lib_al_setup)
    i.nfc_t2t_lib_al_start                   0x00030008   Section        0  nfc_t2t_lib_al.o(i.nfc_t2t_lib_al_start)
    i.nfc_t2t_payload_set                    0x0003000c   Section        0  nfc_t2t_lib.o(i.nfc_t2t_payload_set)
    i.nfc_t2t_setup                          0x0003004c   Section        0  nfc_t2t_lib.o(i.nfc_t2t_setup)
    i.nfc_tk_group_modifier_config           0x000300a0   Section        0  nfc_ble_pair_msg.o(i.nfc_tk_group_modifier_config)
    nfc_tk_group_modifier_config             0x000300a1   Thumb Code    12  nfc_ble_pair_msg.o(i.nfc_tk_group_modifier_config)
    i.nfc_tk_group_modifier_update           0x000300b0   Section        0  nfc_ble_pair_msg.o(i.nfc_tk_group_modifier_update)
    i.nfc_tk_to_group_add                    0x000300e0   Section        0  nfc_ble_pair_msg.o(i.nfc_tk_to_group_add)
    i.nfc_tk_value_payload_encode            0x00030104   Section        0  nfc_ble_oob_advdata.o(i.nfc_tk_value_payload_encode)
    i.nrf_atfifo_clear                       0x00030116   Section        0  nrf_atfifo.o(i.nrf_atfifo_clear)
    i.nrf_atfifo_init                        0x00030126   Section        0  nrf_atfifo.o(i.nrf_atfifo_init)
    i.nrf_atfifo_item_alloc                  0x0003014c   Section        0  nrf_atfifo.o(i.nrf_atfifo_item_alloc)
    i.nrf_atfifo_item_free                   0x00030162   Section        0  nrf_atfifo.o(i.nrf_atfifo_item_free)
    i.nrf_atfifo_item_get                    0x00030178   Section        0  nrf_atfifo.o(i.nrf_atfifo_item_get)
    i.nrf_atfifo_item_put                    0x0003018e   Section        0  nrf_atfifo.o(i.nrf_atfifo_item_put)
    i.nrf_atflags_clear                      0x000301a4   Section        0  nrf_atflags.o(i.nrf_atflags_clear)
    i.nrf_atflags_fetch_set                  0x000301ba   Section        0  nrf_atflags.o(i.nrf_atflags_fetch_set)
    i.nrf_atflags_find_and_set_flag          0x000301da   Section        0  nrf_atflags.o(i.nrf_atflags_find_and_set_flag)
    i.nrf_atflags_get                        0x00030224   Section        0  nrf_atflags.o(i.nrf_atflags_get)
    i.nrf_atflags_set                        0x0003023a   Section        0  nrf_atflags.o(i.nrf_atflags_set)
    i.nrf_atomic_flag_clear_fetch            0x0003024e   Section        0  nrf_atomic.o(i.nrf_atomic_flag_clear_fetch)
    i.nrf_atomic_flag_set                    0x00030254   Section        0  nrf_atomic.o(i.nrf_atomic_flag_set)
    i.nrf_atomic_flag_set_fetch              0x0003025a   Section        0  nrf_atomic.o(i.nrf_atomic_flag_set_fetch)
    i.nrf_atomic_u32_add                     0x00030260   Section        0  nrf_atomic.o(i.nrf_atomic_u32_add)
    i.nrf_atomic_u32_and                     0x0003026c   Section        0  nrf_atomic.o(i.nrf_atomic_u32_and)
    i.nrf_atomic_u32_fetch_add               0x00030278   Section        0  nrf_atomic.o(i.nrf_atomic_u32_fetch_add)
    i.nrf_atomic_u32_fetch_and               0x00030282   Section        0  nrf_atomic.o(i.nrf_atomic_u32_fetch_and)
    i.nrf_atomic_u32_fetch_or                0x0003028c   Section        0  nrf_atomic.o(i.nrf_atomic_u32_fetch_or)
    i.nrf_atomic_u32_fetch_store             0x00030296   Section        0  nrf_atomic.o(i.nrf_atomic_u32_fetch_store)
    i.nrf_atomic_u32_or                      0x000302a0   Section        0  nrf_atomic.o(i.nrf_atomic_u32_or)
    i.nrf_atomic_u32_sub                     0x000302ac   Section        0  nrf_atomic.o(i.nrf_atomic_u32_sub)
    i.nrf_balloc_alloc                       0x000302b8   Section        0  nrf_balloc.o(i.nrf_balloc_alloc)
    i.nrf_balloc_free                        0x000302fc   Section        0  nrf_balloc.o(i.nrf_balloc_free)
    i.nrf_balloc_init                        0x0003032c   Section        0  nrf_balloc.o(i.nrf_balloc_init)
    i.nrf_bitmask_bit_is_set                 0x0003035c   Section        0  nrfx_gpiote.o(i.nrf_bitmask_bit_is_set)
    nrf_bitmask_bit_is_set                   0x0003035d   Thumb Code    16  nrfx_gpiote.o(i.nrf_bitmask_bit_is_set)
    i.nrf_ble_gatt_init                      0x0003036c   Section        0  nrf_ble_gatt.o(i.nrf_ble_gatt_init)
    i.nrf_ble_gatt_on_ble_evt                0x00030390   Section        0  nrf_ble_gatt.o(i.nrf_ble_gatt_on_ble_evt)
    i.nrf_ble_lesc_init                      0x0003047c   Section        0  nrf_ble_lesc.o(i.nrf_ble_lesc_init)
    i.nrf_ble_lesc_keypair_generate          0x00030540   Section        0  nrf_ble_lesc.o(i.nrf_ble_lesc_keypair_generate)
    i.nrf_ble_lesc_on_ble_evt                0x000306a8   Section        0  nrf_ble_lesc.o(i.nrf_ble_lesc_on_ble_evt)
    i.nrf_ble_lesc_own_oob_data_generate     0x0003079c   Section        0  nrf_ble_lesc.o(i.nrf_ble_lesc_own_oob_data_generate)
    i.nrf_ble_lesc_own_oob_data_get          0x000307cc   Section        0  nrf_ble_lesc.o(i.nrf_ble_lesc_own_oob_data_get)
    i.nrf_ble_lesc_public_key_get            0x00030808   Section        0  nrf_ble_lesc.o(i.nrf_ble_lesc_public_key_get)
    i.nrf_ble_lesc_request_handler           0x00030844   Section        0  nrf_ble_lesc.o(i.nrf_ble_lesc_request_handler)
    i.nrf_ble_qwr_conn_handle_assign         0x00030894   Section        0  nrf_ble_qwr.o(i.nrf_ble_qwr_conn_handle_assign)
    i.nrf_ble_qwr_init                       0x000308aa   Section        0  nrf_ble_qwr.o(i.nrf_ble_qwr_init)
    i.nrf_ble_qwr_on_ble_evt                 0x000308ce   Section        0  nrf_ble_qwr.o(i.nrf_ble_qwr_on_ble_evt)
    i.nrf_clock_event_check                  0x00030984   Section        0  nrfx_clock.o(i.nrf_clock_event_check)
    nrf_clock_event_check                    0x00030985   Thumb Code    14  nrfx_clock.o(i.nrf_clock_event_check)
    i.nrf_clock_event_clear                  0x00030992   Section        0  nrfx_clock.o(i.nrf_clock_event_clear)
    nrf_clock_event_clear                    0x00030993   Thumb Code    16  nrfx_clock.o(i.nrf_clock_event_clear)
    i.nrf_crypto_backend_curve25519_ecdh_compute 0x000309a2   Section        0  oberon_backend_ecdh.o(i.nrf_crypto_backend_curve25519_ecdh_compute)
    i.nrf_crypto_backend_curve25519_key_pair_generate 0x000309b2   Section        0  oberon_backend_ecc.o(i.nrf_crypto_backend_curve25519_key_pair_generate)
    i.nrf_crypto_backend_curve25519_public_key_calculate 0x000309ec   Section        0  oberon_backend_ecc.o(i.nrf_crypto_backend_curve25519_public_key_calculate)
    i.nrf_crypto_backend_ed25519_key_pair_generate 0x000309fc   Section        0  oberon_backend_ecc.o(i.nrf_crypto_backend_ed25519_key_pair_generate)
    i.nrf_crypto_backend_ed25519_private_key_from_raw 0x00030a2e   Section        0  oberon_backend_ecc.o(i.nrf_crypto_backend_ed25519_private_key_from_raw)
    i.nrf_crypto_backend_ed25519_public_key_calculate 0x00030a4a   Section        0  oberon_backend_ecc.o(i.nrf_crypto_backend_ed25519_public_key_calculate)
    i.nrf_crypto_backend_oberon_ecc_secp256r1_rng 0x00030a5c   Section        0  oberon_backend_ecc.o(i.nrf_crypto_backend_oberon_ecc_secp256r1_rng)
    i.nrf_crypto_backend_oberon_private_key_from_raw 0x00030a6c   Section        0  oberon_backend_ecc.o(i.nrf_crypto_backend_oberon_private_key_from_raw)
    i.nrf_crypto_backend_oberon_private_key_to_raw 0x00030a7c   Section        0  oberon_backend_ecc.o(i.nrf_crypto_backend_oberon_private_key_to_raw)
    i.nrf_crypto_backend_oberon_public_key_from_raw 0x00030a92   Section        0  oberon_backend_ecc.o(i.nrf_crypto_backend_oberon_public_key_from_raw)
    i.nrf_crypto_backend_oberon_public_key_to_raw 0x00030aa2   Section        0  oberon_backend_ecc.o(i.nrf_crypto_backend_oberon_public_key_to_raw)
    i.nrf_crypto_backend_secp256r1_ecdh_compute 0x00030ab8   Section        0  oberon_backend_ecdh.o(i.nrf_crypto_backend_secp256r1_ecdh_compute)
    i.nrf_crypto_backend_secp256r1_key_pair_generate 0x00030ace   Section        0  oberon_backend_ecc.o(i.nrf_crypto_backend_secp256r1_key_pair_generate)
    i.nrf_crypto_backend_secp256r1_public_key_calculate 0x00030af4   Section        0  oberon_backend_ecc.o(i.nrf_crypto_backend_secp256r1_public_key_calculate)
    i.nrf_crypto_ecc_byte_order_invert       0x00030b0c   Section        0  nrf_crypto_ecc.o(i.nrf_crypto_ecc_byte_order_invert)
    i.nrf_crypto_ecc_key_pair_generate       0x00030b60   Section        0  nrf_crypto_ecc.o(i.nrf_crypto_ecc_key_pair_generate)
    i.nrf_crypto_ecc_public_key_from_raw     0x00030be8   Section        0  nrf_crypto_ecc.o(i.nrf_crypto_ecc_public_key_from_raw)
    i.nrf_crypto_ecc_public_key_to_raw       0x00030c30   Section        0  nrf_crypto_ecc.o(i.nrf_crypto_ecc_public_key_to_raw)
    i.nrf_crypto_ecdh_compute                0x00030c74   Section        0  nrf_crypto_ecdh.o(i.nrf_crypto_ecdh_compute)
    i.nrf_crypto_init                        0x00030d14   Section        0  nrf_crypto_init.o(i.nrf_crypto_init)
    i.nrf_crypto_internal_ecc_key_input_check 0x00030d54   Section        0  nrf_crypto_ecc.o(i.nrf_crypto_internal_ecc_key_input_check)
    i.nrf_crypto_internal_ecc_key_output_prepare 0x00030d6c   Section        0  nrf_crypto_ecc.o(i.nrf_crypto_internal_ecc_key_output_prepare)
    i.nrf_crypto_internal_ecc_raw_input_check 0x00030d86   Section        0  nrf_crypto_ecc.o(i.nrf_crypto_internal_ecc_raw_input_check)
    i.nrf_crypto_internal_ecc_raw_output_prepare 0x00030d9c   Section        0  nrf_crypto_ecc.o(i.nrf_crypto_internal_ecc_raw_output_prepare)
    i.nrf_crypto_is_initializing             0x00030db8   Section        0  nrf_crypto_init.o(i.nrf_crypto_is_initializing)
    i.nrf_crypto_rng_backend_init            0x00030dd4   Section        0  nrf_hw_backend_rng_mbedtls.o(i.nrf_crypto_rng_backend_init)
    i.nrf_crypto_rng_backend_reseed          0x00030e08   Section        0  nrf_hw_backend_rng_mbedtls.o(i.nrf_crypto_rng_backend_reseed)
    i.nrf_crypto_rng_backend_uninit          0x00030e1c   Section        0  nrf_hw_backend_rng_mbedtls.o(i.nrf_crypto_rng_backend_uninit)
    i.nrf_crypto_rng_backend_vector_generate 0x00030e2c   Section        0  nrf_hw_backend_rng_mbedtls.o(i.nrf_crypto_rng_backend_vector_generate)
    i.nrf_crypto_rng_init                    0x00030e3c   Section        0  nrf_crypto_rng.o(i.nrf_crypto_rng_init)
    i.nrf_crypto_rng_reseed                  0x00030ef0   Section        0  nrf_crypto_rng.o(i.nrf_crypto_rng_reseed)
    i.nrf_crypto_rng_uninit                  0x00030f88   Section        0  nrf_crypto_rng.o(i.nrf_crypto_rng_uninit)
    i.nrf_crypto_rng_vector_generate         0x00030fc0   Section        0  nrf_crypto_rng.o(i.nrf_crypto_rng_vector_generate)
    i.nrf_crypto_rng_vector_generate_in_range 0x00030fc6   Section        0  nrf_crypto_rng.o(i.nrf_crypto_rng_vector_generate_in_range)
    i.nrf_drv_clock_hfclk_release            0x00030fd4   Section        0  nrf_drv_clock.o(i.nrf_drv_clock_hfclk_release)
    i.nrf_drv_clock_hfclk_request            0x0003100c   Section        0  nrf_drv_clock.o(i.nrf_drv_clock_hfclk_request)
    i.nrf_drv_clock_init                     0x00031068   Section        0  nrf_drv_clock.o(i.nrf_drv_clock_init)
    i.nrf_drv_clock_lfclk_release            0x000310a8   Section        0  nrf_drv_clock.o(i.nrf_drv_clock_lfclk_release)
    i.nrf_drv_rng_block_rand                 0x000310dc   Section        0  nrf_drv_rng.o(i.nrf_drv_rng_block_rand)
    i.nrf_drv_rng_bytes_available            0x00031104   Section        0  nrf_drv_rng.o(i.nrf_drv_rng_bytes_available)
    i.nrf_drv_rng_init                       0x00031124   Section        0  nrf_drv_rng.o(i.nrf_drv_rng_init)
    i.nrf_drv_rng_rand                       0x0003117c   Section        0  nrf_drv_rng.o(i.nrf_drv_rng_rand)
    i.nrf_drv_rng_uninit                     0x000311dc   Section        0  nrf_drv_rng.o(i.nrf_drv_rng_uninit)
    i.nrf_drv_uart_init                      0x00031214   Section        0  nrf_drv_uart.o(i.nrf_drv_uart_init)
    i.nrf_fprintf                            0x0003127c   Section        0  nrf_fprintf.o(i.nrf_fprintf)
    i.nrf_fprintf_buffer_flush               0x00031296   Section        0  nrf_fprintf.o(i.nrf_fprintf_buffer_flush)
    i.nrf_fprintf_fmt                        0x000312ae   Section        0  nrf_fprintf_format.o(i.nrf_fprintf_fmt)
    i.nrf_fstorage_erase                     0x00031488   Section        0  nrf_fstorage.o(i.nrf_fstorage_erase)
    i.nrf_fstorage_init                      0x000315c0   Section        0  nrf_fstorage.o(i.nrf_fstorage_init)
    i.nrf_fstorage_sdh_req_handler           0x00031654   Section        0  nrf_fstorage_sd.o(i.nrf_fstorage_sdh_req_handler)
    i.nrf_fstorage_sdh_state_handler         0x0003166c   Section        0  nrf_fstorage_sd.o(i.nrf_fstorage_sdh_state_handler)
    i.nrf_fstorage_sys_evt_handler           0x0003168c   Section        0  nrf_fstorage_sd.o(i.nrf_fstorage_sys_evt_handler)
    i.nrf_fstorage_write                     0x00031730   Section        0  nrf_fstorage.o(i.nrf_fstorage_write)
    i.nrf_gpio_cfg                           0x0003190c   Section        0  boards.o(i.nrf_gpio_cfg)
    nrf_gpio_cfg                             0x0003190d   Thumb Code    36  boards.o(i.nrf_gpio_cfg)
    i.nrf_gpio_cfg                           0x00031930   Section        0  nrfx_gpiote.o(i.nrf_gpio_cfg)
    nrf_gpio_cfg                             0x00031931   Thumb Code    36  nrfx_gpiote.o(i.nrf_gpio_cfg)
    i.nrf_gpio_cfg                           0x00031954   Section        0  nrfx_uart.o(i.nrf_gpio_cfg)
    nrf_gpio_cfg                             0x00031955   Thumb Code    36  nrfx_uart.o(i.nrf_gpio_cfg)
    i.nrf_gpio_cfg                           0x00031978   Section        0  nrfx_uarte.o(i.nrf_gpio_cfg)
    nrf_gpio_cfg                             0x00031979   Thumb Code    36  nrfx_uarte.o(i.nrf_gpio_cfg)
    i.nrf_gpio_cfg_default                   0x0003199c   Section        0  nrfx_uart.o(i.nrf_gpio_cfg_default)
    nrf_gpio_cfg_default                     0x0003199d   Thumb Code    18  nrfx_uart.o(i.nrf_gpio_cfg_default)
    i.nrf_gpio_cfg_default                   0x000319ae   Section        0  nrfx_uarte.o(i.nrf_gpio_cfg_default)
    nrf_gpio_cfg_default                     0x000319af   Thumb Code    18  nrfx_uarte.o(i.nrf_gpio_cfg_default)
    i.nrf_gpio_cfg_input                     0x000319c0   Section        0  nrfx_uart.o(i.nrf_gpio_cfg_input)
    nrf_gpio_cfg_input                       0x000319c1   Thumb Code    18  nrfx_uart.o(i.nrf_gpio_cfg_input)
    i.nrf_gpio_cfg_input                     0x000319d2   Section        0  nrfx_uarte.o(i.nrf_gpio_cfg_input)
    nrf_gpio_cfg_input                       0x000319d3   Thumb Code    18  nrfx_uarte.o(i.nrf_gpio_cfg_input)
    i.nrf_gpio_cfg_output                    0x000319e4   Section        0  nrfx_uart.o(i.nrf_gpio_cfg_output)
    nrf_gpio_cfg_output                      0x000319e5   Thumb Code    20  nrfx_uart.o(i.nrf_gpio_cfg_output)
    i.nrf_gpio_cfg_output                    0x000319f8   Section        0  nrfx_uarte.o(i.nrf_gpio_cfg_output)
    nrf_gpio_cfg_output                      0x000319f9   Thumb Code    20  nrfx_uarte.o(i.nrf_gpio_cfg_output)
    i.nrf_gpio_cfg_sense_set                 0x00031a0c   Section        0  nrfx_gpiote.o(i.nrf_gpio_cfg_sense_set)
    nrf_gpio_cfg_sense_set                   0x00031a0d   Thumb Code    34  nrfx_gpiote.o(i.nrf_gpio_cfg_sense_set)
    i.nrf_gpio_latches_read_and_clear        0x00031a30   Section        0  nrfx_gpiote.o(i.nrf_gpio_latches_read_and_clear)
    nrf_gpio_latches_read_and_clear          0x00031a31   Thumb Code    38  nrfx_gpiote.o(i.nrf_gpio_latches_read_and_clear)
    i.nrf_gpio_pin_present_check             0x00031a5c   Section        0  nrfx_gpiote.o(i.nrf_gpio_pin_present_check)
    nrf_gpio_pin_present_check               0x00031a5d   Thumb Code    30  nrfx_gpiote.o(i.nrf_gpio_pin_present_check)
    i.nrf_gpio_pin_write                     0x00031a7a   Section        0  boards.o(i.nrf_gpio_pin_write)
    nrf_gpio_pin_write                       0x00031a7b   Thumb Code    22  boards.o(i.nrf_gpio_pin_write)
    i.nrf_gpiote_event_clear                 0x00031a90   Section        0  nrfx_gpiote.o(i.nrf_gpiote_event_clear)
    nrf_gpiote_event_clear                   0x00031a91   Thumb Code    16  nrfx_gpiote.o(i.nrf_gpiote_event_clear)
    i.nrf_gpiote_event_is_set                0x00031aa4   Section        0  nrfx_gpiote.o(i.nrf_gpiote_event_is_set)
    nrf_gpiote_event_is_set                  0x00031aa5   Thumb Code    12  nrfx_gpiote.o(i.nrf_gpiote_event_is_set)
    i.nrf_hw_backend_init                    0x00031ab4   Section        0  nrf_hw_backend_init.o(i.nrf_hw_backend_init)
    nrf_hw_backend_init                      0x00031ab5   Thumb Code     8  nrf_hw_backend_init.o(i.nrf_hw_backend_init)
    i.nrf_hw_backend_uninit                  0x00031abc   Section        0  nrf_hw_backend_init.o(i.nrf_hw_backend_uninit)
    nrf_hw_backend_uninit                    0x00031abd   Thumb Code     4  nrf_hw_backend_init.o(i.nrf_hw_backend_uninit)
    i.nrf_log_backend_add                    0x00031ac0   Section        0  nrf_log_frontend.o(i.nrf_log_backend_add)
    i.nrf_log_backend_serial_put             0x00031b1c   Section        0  nrf_log_backend_serial.o(i.nrf_log_backend_serial_put)
    i.nrf_log_backend_uart_flush             0x00031be4   Section        0  nrf_log_backend_uart.o(i.nrf_log_backend_uart_flush)
    nrf_log_backend_uart_flush               0x00031be5   Thumb Code     2  nrf_log_backend_uart.o(i.nrf_log_backend_uart_flush)
    i.nrf_log_backend_uart_init              0x00031be6   Section        0  nrf_log_backend_uart.o(i.nrf_log_backend_uart_init)
    i.nrf_log_backend_uart_panic_set         0x00031bec   Section        0  nrf_log_backend_uart.o(i.nrf_log_backend_uart_panic_set)
    nrf_log_backend_uart_panic_set           0x00031bed   Thumb Code    36  nrf_log_backend_uart.o(i.nrf_log_backend_uart_panic_set)
    i.nrf_log_backend_uart_put               0x00031c18   Section        0  nrf_log_backend_uart.o(i.nrf_log_backend_uart_put)
    nrf_log_backend_uart_put                 0x00031c19   Thumb Code    16  nrf_log_backend_uart.o(i.nrf_log_backend_uart_put)
    i.nrf_log_color_id_get                   0x00031c30   Section        0  nrf_log_frontend.o(i.nrf_log_color_id_get)
    i.nrf_log_default_backends_init          0x00031c60   Section        0  nrf_log_default_backends.o(i.nrf_log_default_backends_init)
    i.nrf_log_frontend_dequeue               0x00031c7c   Section        0  nrf_log_frontend.o(i.nrf_log_frontend_dequeue)
    i.nrf_log_frontend_std_0                 0x00031eb4   Section        0  nrf_log_frontend.o(i.nrf_log_frontend_std_0)
    i.nrf_log_frontend_std_1                 0x00031ebc   Section        0  nrf_log_frontend.o(i.nrf_log_frontend_std_1)
    i.nrf_log_frontend_std_2                 0x00031eca   Section        0  nrf_log_frontend.o(i.nrf_log_frontend_std_2)
    i.nrf_log_frontend_std_3                 0x00031eda   Section        0  nrf_log_frontend.o(i.nrf_log_frontend_std_3)
    i.nrf_log_frontend_std_4                 0x00031eec   Section        0  nrf_log_frontend.o(i.nrf_log_frontend_std_4)
    i.nrf_log_hexdump_entry_process          0x00031f00   Section        0  nrf_log_str_formatter.o(i.nrf_log_hexdump_entry_process)
    i.nrf_log_init                           0x00031fb0   Section        0  nrf_log_frontend.o(i.nrf_log_init)
    i.nrf_log_module_cnt_get                 0x00031fd8   Section        0  nrf_log_frontend.o(i.nrf_log_module_cnt_get)
    i.nrf_log_module_name_get                0x00031fec   Section        0  nrf_log_frontend.o(i.nrf_log_module_name_get)
    i.nrf_log_panic                          0x00032008   Section        0  nrf_log_frontend.o(i.nrf_log_panic)
    i.nrf_log_std_entry_process              0x00032030   Section        0  nrf_log_str_formatter.o(i.nrf_log_std_entry_process)
    i.nrf_memobj_alloc                       0x000320e6   Section        0  nrf_memobj.o(i.nrf_memobj_alloc)
    i.nrf_memobj_free                        0x00032146   Section        0  nrf_memobj.o(i.nrf_memobj_free)
    i.nrf_memobj_get                         0x00032178   Section        0  nrf_memobj.o(i.nrf_memobj_get)
    i.nrf_memobj_pool_init                   0x00032180   Section        0  nrf_memobj.o(i.nrf_memobj_pool_init)
    i.nrf_memobj_put                         0x00032184   Section        0  nrf_memobj.o(i.nrf_memobj_put)
    i.nrf_memobj_read                        0x000321a2   Section        0  nrf_memobj.o(i.nrf_memobj_read)
    i.nrf_memobj_write                       0x000321b2   Section        0  nrf_memobj.o(i.nrf_memobj_write)
    i.nrf_nfct_event_check                   0x000321c4   Section        0  nrfx_nfct.o(i.nrf_nfct_event_check)
    nrf_nfct_event_check                     0x000321c5   Thumb Code    12  nrfx_nfct.o(i.nrf_nfct_event_check)
    i.nrf_nfct_event_clear                   0x000321d4   Section        0  nrfx_nfct.o(i.nrf_nfct_event_clear)
    nrf_nfct_event_clear                     0x000321d5   Thumb Code    12  nrfx_nfct.o(i.nrf_nfct_event_clear)
    i.nrf_nfct_int_enable_check              0x000321e4   Section        0  nrfx_nfct.o(i.nrf_nfct_int_enable_check)
    nrf_nfct_int_enable_check                0x000321e5   Thumb Code    18  nrfx_nfct.o(i.nrf_nfct_int_enable_check)
    i.nrf_nfct_nfcid1_set                    0x000321fc   Section        0  nrfx_nfct.o(i.nrf_nfct_nfcid1_set)
    nrf_nfct_nfcid1_set                      0x000321fd   Thumb Code   100  nrfx_nfct.o(i.nrf_nfct_nfcid1_set)
    i.nrf_nfct_rx_frameend_handle            0x00032264   Section        0  nfc_t2t_lib_al.o(i.nrf_nfct_rx_frameend_handle)
    nrf_nfct_rx_frameend_handle              0x00032265   Thumb Code    84  nfc_t2t_lib_al.o(i.nrf_nfct_rx_frameend_handle)
    i.nrf_nfct_selres_protocol_set           0x000322c4   Section        0  nrfx_nfct.o(i.nrf_nfct_selres_protocol_set)
    nrf_nfct_selres_protocol_set             0x000322c5   Thumb Code    16  nrfx_nfct.o(i.nrf_nfct_selres_protocol_set)
    i.nrf_pwr_mgmt_init                      0x000322d8   Section        0  nrf_pwr_mgmt.o(i.nrf_pwr_mgmt_init)
    i.nrf_pwr_mgmt_run                       0x00032300   Section        0  nrf_pwr_mgmt.o(i.nrf_pwr_mgmt_run)
    i.nrf_queue_is_full                      0x00032344   Section        0  nrf_queue.o(i.nrf_queue_is_full)
    i.nrf_queue_next_idx                     0x00032362   Section        0  nrf_queue.o(i.nrf_queue_next_idx)
    nrf_queue_next_idx                       0x00032363   Thumb Code    14  nrf_queue.o(i.nrf_queue_next_idx)
    i.nrf_queue_push                         0x00032370   Section        0  nrf_queue.o(i.nrf_queue_push)
    i.nrf_queue_read                         0x00032422   Section        0  nrf_queue.o(i.nrf_queue_read)
    i.nrf_queue_reset                        0x00032460   Section        0  nrf_queue.o(i.nrf_queue_reset)
    i.nrf_queue_utilization_get              0x00032482   Section        0  nrf_queue.o(i.nrf_queue_utilization_get)
    i.nrf_qwr_error_handler                  0x000324a6   Section        0  main.o(i.nrf_qwr_error_handler)
    nrf_qwr_error_handler                    0x000324a7   Thumb Code     4  main.o(i.nrf_qwr_error_handler)
    i.nrf_ringbuf_init                       0x000324aa   Section        0  nrf_ringbuf.o(i.nrf_ringbuf_init)
    i.nrf_rtc_event_clear                    0x000324c6   Section        0  drv_rtc.o(i.nrf_rtc_event_clear)
    nrf_rtc_event_clear                      0x000324c7   Thumb Code    12  drv_rtc.o(i.nrf_rtc_event_clear)
    i.nrf_sdh_ble_app_ram_start_get          0x000324d4   Section        0  nrf_sdh_ble.o(i.nrf_sdh_ble_app_ram_start_get)
    i.nrf_sdh_ble_default_cfg_set            0x000324e8   Section        0  nrf_sdh_ble.o(i.nrf_sdh_ble_default_cfg_set)
    i.nrf_sdh_ble_enable                     0x000325e8   Section        0  nrf_sdh_ble.o(i.nrf_sdh_ble_enable)
    i.nrf_sdh_ble_evts_poll                  0x00032718   Section        0  nrf_sdh_ble.o(i.nrf_sdh_ble_evts_poll)
    nrf_sdh_ble_evts_poll                    0x00032719   Thumb Code    82  nrf_sdh_ble.o(i.nrf_sdh_ble_evts_poll)
    i.nrf_sdh_disable_request                0x00032774   Section        0  nrf_sdh.o(i.nrf_sdh_disable_request)
    i.nrf_sdh_enable_request                 0x000327c8   Section        0  nrf_sdh.o(i.nrf_sdh_enable_request)
    i.nrf_sdh_evts_poll                      0x0003283c   Section        0  nrf_sdh.o(i.nrf_sdh_evts_poll)
    i.nrf_sdh_is_enabled                     0x00032860   Section        0  nrf_sdh.o(i.nrf_sdh_is_enabled)
    i.nrf_sdh_request_continue               0x0003286c   Section        0  nrf_sdh.o(i.nrf_sdh_request_continue)
    i.nrf_sdh_soc_evts_poll                  0x00032888   Section        0  nrf_sdh_soc.o(i.nrf_sdh_soc_evts_poll)
    nrf_sdh_soc_evts_poll                    0x00032889   Thumb Code    56  nrf_sdh_soc.o(i.nrf_sdh_soc_evts_poll)
    i.nrf_section_iter_init                  0x000328c4   Section        0  nrf_section_iter.o(i.nrf_section_iter_init)
    i.nrf_section_iter_item_set              0x000328ce   Section        0  nrf_section_iter.o(i.nrf_section_iter_item_set)
    nrf_section_iter_item_set                0x000328cf   Thumb Code    36  nrf_section_iter.o(i.nrf_section_iter_item_set)
    i.nrf_section_iter_next                  0x000328f2   Section        0  nrf_section_iter.o(i.nrf_section_iter_next)
    i.nrf_sortlist_add                       0x00032912   Section        0  nrf_sortlist.o(i.nrf_sortlist_add)
    i.nrf_sortlist_peek                      0x00032934   Section        0  nrf_sortlist.o(i.nrf_sortlist_peek)
    i.nrf_sortlist_pop                       0x0003293a   Section        0  nrf_sortlist.o(i.nrf_sortlist_pop)
    i.nrf_sortlist_remove                    0x00032948   Section        0  nrf_sortlist.o(i.nrf_sortlist_remove)
    i.nrf_stack_info_overflowed              0x00032968   Section        0  nrf_crypto_rng.o(i.nrf_stack_info_overflowed)
    nrf_stack_info_overflowed                0x00032969   Thumb Code    16  nrf_crypto_rng.o(i.nrf_stack_info_overflowed)
    i.nrf_strerror_find                      0x0003297c   Section        0  nrf_strerror.o(i.nrf_strerror_find)
    i.nrf_strerror_get                       0x000329b4   Section        0  nrf_strerror.o(i.nrf_strerror_get)
    i.nrf_timer_event_clear                  0x000329c8   Section        0  nrfx_timer.o(i.nrf_timer_event_clear)
    nrf_timer_event_clear                    0x000329c9   Thumb Code    12  nrfx_timer.o(i.nrf_timer_event_clear)
    i.nrf_uart_event_check                   0x000329d4   Section        0  nrfx_uart.o(i.nrf_uart_event_check)
    nrf_uart_event_check                     0x000329d5   Thumb Code    10  nrfx_uart.o(i.nrf_uart_event_check)
    i.nrf_uart_event_clear                   0x000329de   Section        0  nrfx_uart.o(i.nrf_uart_event_clear)
    nrf_uart_event_clear                     0x000329df   Thumb Code    12  nrfx_uart.o(i.nrf_uart_event_clear)
    i.nrf_uart_int_enable_check              0x000329ea   Section        0  nrfx_uart.o(i.nrf_uart_int_enable_check)
    nrf_uart_int_enable_check                0x000329eb   Thumb Code    12  nrfx_uart.o(i.nrf_uart_int_enable_check)
    i.nrf_uarte_event_check                  0x000329f6   Section        0  nrfx_uarte.o(i.nrf_uarte_event_check)
    nrf_uarte_event_check                    0x000329f7   Thumb Code    10  nrfx_uarte.o(i.nrf_uarte_event_check)
    i.nrf_uarte_event_clear                  0x00032a00   Section        0  nrfx_uarte.o(i.nrf_uarte_event_clear)
    nrf_uarte_event_clear                    0x00032a01   Thumb Code    12  nrfx_uarte.o(i.nrf_uarte_event_clear)
    i.nrf_wdt_started                        0x00032a0c   Section        0  nrf_drv_clock.o(i.nrf_wdt_started)
    nrf_wdt_started                          0x00032a0d   Thumb Code    12  nrf_drv_clock.o(i.nrf_wdt_started)
    i.nrfx_clock_enable                      0x00032a1c   Section        0  nrfx_clock.o(i.nrfx_clock_enable)
    i.nrfx_clock_hfclk_start                 0x00032a48   Section        0  nrfx_clock.o(i.nrfx_clock_hfclk_start)
    i.nrfx_clock_hfclk_stop                  0x00032a60   Section        0  nrfx_clock.o(i.nrfx_clock_hfclk_stop)
    i.nrfx_clock_init                        0x00032a9c   Section        0  nrfx_clock.o(i.nrfx_clock_init)
    i.nrfx_clock_lfclk_stop                  0x00032abc   Section        0  nrfx_clock.o(i.nrfx_clock_lfclk_stop)
    i.nrfx_coredep_delay_us                  0x00032aec   Section        0  drv_rtc.o(i.nrfx_coredep_delay_us)
    nrfx_coredep_delay_us                    0x00032aed   Thumb Code    12  drv_rtc.o(i.nrfx_coredep_delay_us)
    i.nrfx_gpiote_in_event_enable            0x00032afc   Section        0  nrfx_gpiote.o(i.nrfx_gpiote_in_event_enable)
    i.nrfx_gpiote_in_init                    0x00032b9c   Section        0  nrfx_gpiote.o(i.nrfx_gpiote_in_init)
    i.nrfx_gpiote_in_is_set                  0x00032c68   Section        0  nrfx_gpiote.o(i.nrfx_gpiote_in_is_set)
    i.nrfx_gpiote_init                       0x00032c7c   Section        0  nrfx_gpiote.o(i.nrfx_gpiote_init)
    i.nrfx_gpiote_is_init                    0x00032cf0   Section        0  nrfx_gpiote.o(i.nrfx_gpiote_is_init)
    i.nrfx_is_in_ram                         0x00032d04   Section        0  nrfx_uarte.o(i.nrfx_is_in_ram)
    nrfx_is_in_ram                           0x00032d05   Thumb Code    16  nrfx_uarte.o(i.nrfx_is_in_ram)
    i.nrfx_nfct_enable                       0x00032d14   Section        0  nrfx_nfct.o(i.nrfx_nfct_enable)
    i.nrfx_nfct_evt_handler                  0x00032d38   Section        0  nfc_t2t_lib_al.o(i.nrfx_nfct_evt_handler)
    nrfx_nfct_evt_handler                    0x00032d39   Thumb Code   126  nfc_t2t_lib_al.o(i.nrfx_nfct_evt_handler)
    i.nrfx_nfct_field_check                  0x00032dc0   Section        0  nrfx_nfct.o(i.nrfx_nfct_field_check)
    i.nrfx_nfct_field_event_handler          0x00032dd0   Section        0  nrfx_nfct.o(i.nrfx_nfct_field_event_handler)
    nrfx_nfct_field_event_handler            0x00032dd1   Thumb Code   126  nrfx_nfct.o(i.nrfx_nfct_field_event_handler)
    i.nrfx_nfct_field_poll                   0x00032e5c   Section        0  nrfx_nfct.o(i.nrfx_nfct_field_poll)
    nrfx_nfct_field_poll                     0x00032e5d   Thumb Code    66  nrfx_nfct.o(i.nrfx_nfct_field_poll)
    i.nrfx_nfct_field_timer_handler          0x00032eac   Section        0  nrfx_nfct.o(i.nrfx_nfct_field_timer_handler)
    nrfx_nfct_field_timer_handler            0x00032ead   Thumb Code    12  nrfx_nfct.o(i.nrfx_nfct_field_timer_handler)
    i.nrfx_nfct_frame_delay_max_set          0x00032eb8   Section        0  nrfx_nfct.o(i.nrfx_nfct_frame_delay_max_set)
    nrfx_nfct_frame_delay_max_set            0x00032eb9   Thumb Code    18  nrfx_nfct.o(i.nrfx_nfct_frame_delay_max_set)
    i.nrfx_nfct_hw_init_setup                0x00032ed4   Section        0  nrfx_nfct.o(i.nrfx_nfct_hw_init_setup)
    nrfx_nfct_hw_init_setup                  0x00032ed5   Thumb Code    24  nrfx_nfct.o(i.nrfx_nfct_hw_init_setup)
    i.nrfx_nfct_init                         0x00032ef0   Section        0  nrfx_nfct.o(i.nrfx_nfct_init)
    i.nrfx_nfct_init_substate_force          0x00032f8c   Section        0  nrfx_nfct.o(i.nrfx_nfct_init_substate_force)
    i.nrfx_nfct_nfcid1_default_bytes_get     0x00032fc8   Section        0  nrfx_nfct.o(i.nrfx_nfct_nfcid1_default_bytes_get)
    i.nrfx_nfct_reset                        0x00033028   Section        0  nrfx_nfct.o(i.nrfx_nfct_reset)
    nrfx_nfct_reset                          0x00033029   Thumb Code   156  nrfx_nfct.o(i.nrfx_nfct_reset)
    i.nrfx_nfct_rx                           0x000330d0   Section        0  nrfx_nfct.o(i.nrfx_nfct_rx)
    i.nrfx_nfct_state_force                  0x00033104   Section        0  nrfx_nfct.o(i.nrfx_nfct_state_force)
    i.nrfx_nfct_tx                           0x00033110   Section        0  nrfx_nfct.o(i.nrfx_nfct_tx)
    i.nrfx_prs_acquire                       0x00033168   Section        0  nrfx_prs.o(i.nrfx_prs_acquire)
    i.nrfx_prs_release                       0x000331a2   Section        0  nrfx_prs.o(i.nrfx_prs_release)
    i.nrfx_rng_handler                       0x000331b4   Section        0  nrf_drv_rng.o(i.nrfx_rng_handler)
    nrfx_rng_handler                         0x000331b5   Thumb Code    52  nrf_drv_rng.o(i.nrfx_rng_handler)
    i.nrfx_rng_init                          0x000331ec   Section        0  nrfx_rng.o(i.nrfx_rng_init)
    i.nrfx_rng_start                         0x00033244   Section        0  nrfx_rng.o(i.nrfx_rng_start)
    i.nrfx_rng_stop                          0x00033264   Section        0  nrfx_rng.o(i.nrfx_rng_stop)
    i.nrfx_rng_uninit                        0x00033278   Section        0  nrfx_rng.o(i.nrfx_rng_uninit)
    i.nrfx_timer_clear                       0x000332a8   Section        0  nrfx_timer.o(i.nrfx_timer_clear)
    i.nrfx_timer_compare                     0x000332b0   Section        0  nrfx_timer.o(i.nrfx_timer_compare)
    i.nrfx_timer_disable                     0x000332ec   Section        0  nrfx_timer.o(i.nrfx_timer_disable)
    i.nrfx_timer_enable                      0x00033308   Section        0  nrfx_timer.o(i.nrfx_timer_enable)
    i.nrfx_timer_extended_compare            0x00033324   Section        0  nrfx_timer.o(i.nrfx_timer_extended_compare)
    i.nrfx_timer_init                        0x00033350   Section        0  nrfx_timer.o(i.nrfx_timer_init)
    i.nrfx_uart_0_irq_handler                0x00033410   Section        0  nrfx_uart.o(i.nrfx_uart_0_irq_handler)
    i.nrfx_uart_init                         0x00033420   Section        0  nrfx_uart.o(i.nrfx_uart_init)
    i.nrfx_uart_tx                           0x000334f4   Section        0  nrfx_uart.o(i.nrfx_uart_tx)
    i.nrfx_uart_tx_in_progress               0x0003359c   Section        0  nrfx_uart.o(i.nrfx_uart_tx_in_progress)
    i.nrfx_uart_uninit                       0x000335bc   Section        0  nrfx_uart.o(i.nrfx_uart_uninit)
    i.nrfx_uarte_0_irq_handler               0x0003367c   Section        0  nrfx_uarte.o(i.nrfx_uarte_0_irq_handler)
    i.nrfx_uarte_init                        0x0003368c   Section        0  nrfx_uarte.o(i.nrfx_uarte_init)
    i.nrfx_uarte_tx                          0x000336f8   Section        0  nrfx_uarte.o(i.nrfx_uarte_tx)
    i.nrfx_uarte_tx_in_progress              0x000337a4   Section        0  nrfx_uarte.o(i.nrfx_uarte_tx_in_progress)
    i.nrfx_uarte_uninit                      0x000337c0   Section        0  nrfx_uarte.o(i.nrfx_uarte_uninit)
    i.nvmc_config                            0x000338c8   Section        0  system_nrf52.o(i.nvmc_config)
    i.oberon_vector_generate                 0x000338e0   Section        0  oberon_backend_ecc.o(i.oberon_vector_generate)
    oberon_vector_generate                   0x000338e1   Thumb Code     4  oberon_backend_ecc.o(i.oberon_vector_generate)
    i.on_adv_evt                             0x000338e4   Section        0  main.o(i.on_adv_evt)
    on_adv_evt                               0x000338e5   Thumb Code    62  main.o(i.on_adv_evt)
    i.on_conn_params_evt                     0x00033958   Section        0  main.o(i.on_conn_params_evt)
    on_conn_params_evt                       0x00033959   Thumb Code    24  main.o(i.on_conn_params_evt)
    i.on_connected_evt                       0x00033974   Section        0  nrf_ble_gatt.o(i.on_connected_evt)
    on_connected_evt                         0x00033975   Thumb Code   136  nrf_ble_gatt.o(i.on_connected_evt)
    i.on_data_length_update_evt              0x00033a7c   Section        0  nrf_ble_gatt.o(i.on_data_length_update_evt)
    on_data_length_update_evt                0x00033a7d   Thumb Code   142  nrf_ble_gatt.o(i.on_data_length_update_evt)
    i.on_data_length_update_request_evt      0x00033b90   Section        0  nrf_ble_gatt.o(i.on_data_length_update_request_evt)
    on_data_length_update_request_evt        0x00033b91   Thumb Code    52  nrf_ble_gatt.o(i.on_data_length_update_request_evt)
    i.on_dhkey_request                       0x00033c0c   Section        0  nrf_ble_lesc.o(i.on_dhkey_request)
    on_dhkey_request                         0x00033c0d   Thumb Code   124  nrf_ble_lesc.o(i.on_dhkey_request)
    i.on_exchange_mtu_request_evt            0x00033d0c   Section        0  nrf_ble_gatt.o(i.on_exchange_mtu_request_evt)
    on_exchange_mtu_request_evt              0x00033d0d   Thumb Code   148  nrf_ble_gatt.o(i.on_exchange_mtu_request_evt)
    i.on_exchange_mtu_rsp_evt                0x00033e58   Section        0  nrf_ble_gatt.o(i.on_exchange_mtu_rsp_evt)
    on_exchange_mtu_rsp_evt                  0x00033e59   Thumb Code    98  nrf_ble_gatt.o(i.on_exchange_mtu_rsp_evt)
    i.page_identify                          0x00033f04   Section        0  fds.o(i.page_identify)
    page_identify                            0x00033f05   Thumb Code    26  fds.o(i.page_identify)
    i.page_offsets_update                    0x00033f28   Section        0  fds.o(i.page_offsets_update)
    page_offsets_update                      0x00033f29   Thumb Code    28  fds.o(i.page_offsets_update)
    i.page_scan                              0x00033f44   Section        0  fds.o(i.page_scan)
    page_scan                                0x00033f45   Thumb Code   104  fds.o(i.page_scan)
    i.page_tag_write_data                    0x00033fb0   Section        0  fds.o(i.page_tag_write_data)
    page_tag_write_data                      0x00033fb1   Thumb Code    20  fds.o(i.page_tag_write_data)
    i.page_tag_write_swap                    0x00033fcc   Section        0  fds.o(i.page_tag_write_swap)
    page_tag_write_swap                      0x00033fcd   Thumb Code    22  fds.o(i.page_tag_write_swap)
    i.pages_init                             0x00033ff0   Section        0  fds.o(i.pages_init)
    pages_init                               0x00033ff1   Thumb Code   286  fds.o(i.pages_init)
    i.pairing                                0x00034120   Section        0  security_dispatcher.o(i.pairing)
    pairing                                  0x00034121   Thumb Code     8  security_dispatcher.o(i.pairing)
    i.pairing_failure                        0x0003412c   Section        0  security_dispatcher.o(i.pairing_failure)
    pairing_failure                          0x0003412d   Thumb Code    98  security_dispatcher.o(i.pairing_failure)
    i.pairing_success_evt_send               0x000341a0   Section        0  security_dispatcher.o(i.pairing_success_evt_send)
    pairing_success_evt_send                 0x000341a1   Thumb Code    46  security_dispatcher.o(i.pairing_success_evt_send)
    i.params_reply_pending_handle            0x000341ce   Section        0  security_manager.o(i.params_reply_pending_handle)
    params_reply_pending_handle              0x000341cf   Thumb Code     6  security_manager.o(i.params_reply_pending_handle)
    i.params_req_send                        0x000341d4   Section        0  security_manager.o(i.params_req_send)
    params_req_send                          0x000341d5   Thumb Code    32  security_manager.o(i.params_req_send)
    i.pdb_evt_send                           0x000341f4   Section        0  peer_database.o(i.pdb_evt_send)
    pdb_evt_send                             0x000341f5   Thumb Code    24  peer_database.o(i.pdb_evt_send)
    i.pdb_init                               0x00034210   Section        0  peer_database.o(i.pdb_init)
    i.pdb_pds_evt_handler                    0x000342a0   Section        0  peer_database.o(i.pdb_pds_evt_handler)
    i.pdb_peer_data_ptr_get                  0x0003431c   Section        0  peer_database.o(i.pdb_peer_data_ptr_get)
    i.pdb_peer_free                          0x00034324   Section        0  peer_database.o(i.pdb_peer_free)
    i.pdb_write_buf_get                      0x000343b0   Section        0  peer_database.o(i.pdb_write_buf_get)
    i.pdb_write_buf_release                  0x0003448c   Section        0  peer_database.o(i.pdb_write_buf_release)
    i.pdb_write_buf_store                    0x000344a0   Section        0  peer_database.o(i.pdb_write_buf_store)
    i.pds_evt_send                           0x000344d8   Section        0  peer_data_storage.o(i.pds_evt_send)
    pds_evt_send                             0x000344d9   Thumb Code    12  peer_data_storage.o(i.pds_evt_send)
    i.pds_init                               0x000344e8   Section        0  peer_data_storage.o(i.pds_init)
    i.pds_next_deleted_peer_id_get           0x000345c4   Section        0  peer_data_storage.o(i.pds_next_deleted_peer_id_get)
    i.pds_next_peer_id_get                   0x000345c8   Section        0  peer_data_storage.o(i.pds_next_peer_id_get)
    i.pds_peer_data_iterate                  0x000345cc   Section        0  peer_data_storage.o(i.pds_peer_data_iterate)
    i.pds_peer_data_iterate_prepare          0x00034624   Section        0  peer_data_storage.o(i.pds_peer_data_iterate_prepare)
    i.pds_peer_data_read                     0x00034634   Section        0  peer_data_storage.o(i.pds_peer_data_read)
    i.pds_peer_data_store                    0x000346a8   Section        0  peer_data_storage.o(i.pds_peer_data_store)
    i.pds_peer_id_allocate                   0x0003475c   Section        0  peer_data_storage.o(i.pds_peer_id_allocate)
    i.pds_peer_id_free                       0x00034764   Section        0  peer_data_storage.o(i.pds_peer_id_free)
    i.pds_peer_id_is_allocated               0x0003477a   Section        0  peer_data_storage.o(i.pds_peer_id_is_allocated)
    i.peer_data_delete_process               0x00034780   Section        0  peer_data_storage.o(i.peer_data_delete_process)
    peer_data_delete_process                 0x00034781   Thumb Code   146  peer_data_storage.o(i.peer_data_delete_process)
    i.peer_data_find                         0x00034828   Section        0  peer_data_storage.o(i.peer_data_find)
    peer_data_find                           0x00034829   Thumb Code    48  peer_data_storage.o(i.peer_data_find)
    i.peer_data_id_is_valid                  0x00034858   Section        0  peer_data_storage.o(i.peer_data_id_is_valid)
    peer_data_id_is_valid                    0x00034859   Thumb Code    36  peer_data_storage.o(i.peer_data_id_is_valid)
    i.peer_data_point_to_buffer              0x0003487c   Section        0  peer_database.o(i.peer_data_point_to_buffer)
    peer_data_point_to_buffer                0x0003487d   Thumb Code    26  peer_database.o(i.peer_data_point_to_buffer)
    i.peer_id_allocate                       0x00034898   Section        0  peer_id.o(i.peer_id_allocate)
    i.peer_id_delete                         0x000348a4   Section        0  peer_id.o(i.peer_id_delete)
    i.peer_id_free                           0x000348c8   Section        0  peer_id.o(i.peer_id_free)
    i.peer_id_get_next_deleted               0x000348e4   Section        0  peer_id.o(i.peer_id_get_next_deleted)
    i.peer_id_get_next_used                  0x000348f0   Section        0  peer_id.o(i.peer_id_get_next_used)
    i.peer_id_init                           0x00034920   Section        0  peer_id.o(i.peer_id_init)
    i.peer_id_is_allocated                   0x0003492c   Section        0  peer_id.o(i.peer_id_is_allocated)
    i.peer_id_is_deleted                     0x00034940   Section        0  peer_id.o(i.peer_id_is_deleted)
    i.phy_is_valid                           0x00034954   Section        0  ble_advertising.o(i.phy_is_valid)
    phy_is_valid                             0x00034955   Thumb Code    18  ble_advertising.o(i.phy_is_valid)
    i.pin_configured_set                     0x00034968   Section        0  nrfx_gpiote.o(i.pin_configured_set)
    pin_configured_set                       0x00034969   Thumb Code    22  nrfx_gpiote.o(i.pin_configured_set)
    i.pin_in_use_by_port                     0x00034984   Section        0  nrfx_gpiote.o(i.pin_in_use_by_port)
    pin_in_use_by_port                       0x00034985   Thumb Code    20  nrfx_gpiote.o(i.pin_in_use_by_port)
    i.pin_in_use_by_te                       0x0003499c   Section        0  nrfx_gpiote.o(i.pin_in_use_by_te)
    pin_in_use_by_te                         0x0003499d   Thumb Code    20  nrfx_gpiote.o(i.pin_in_use_by_te)
    i.pm_buffer_block_acquire                0x000349b4   Section        0  pm_buffer.o(i.pm_buffer_block_acquire)
    i.pm_buffer_init                         0x00034a18   Section        0  pm_buffer.o(i.pm_buffer_init)
    i.pm_buffer_ptr_get                      0x00034a3c   Section        0  pm_buffer.o(i.pm_buffer_ptr_get)
    i.pm_buffer_release                      0x00034a64   Section        0  pm_buffer.o(i.pm_buffer_release)
    i.pm_conn_sec_params_reply               0x00034a98   Section        0  peer_manager.o(i.pm_conn_sec_params_reply)
    i.pm_conn_sec_status_get                 0x00034aac   Section        0  peer_manager.o(i.pm_conn_sec_status_get)
    i.pm_conn_secure                         0x00034ac0   Section        0  peer_manager.o(i.pm_conn_secure)
    i.pm_evt_handler                         0x00034adc   Section        0  main.o(i.pm_evt_handler)
    pm_evt_handler                           0x00034add   Thumb Code    40  main.o(i.pm_evt_handler)
    i.pm_gcm_evt_handler                     0x00034b04   Section        0  peer_manager.o(i.pm_gcm_evt_handler)
    i.pm_gscm_evt_handler                    0x00034b08   Section        0  peer_manager.o(i.pm_gscm_evt_handler)
    i.pm_handler_flash_clean                 0x00034b0c   Section        0  peer_manager_handler.o(i.pm_handler_flash_clean)
    i.pm_handler_flash_clean_on_return       0x00034d50   Section        0  peer_manager_handler.o(i.pm_handler_flash_clean_on_return)
    i.pm_handler_on_pm_evt                   0x00034d6c   Section        0  peer_manager_handler.o(i.pm_handler_on_pm_evt)
    i.pm_handler_pm_evt_log                  0x00034dc0   Section        0  peer_manager_handler.o(i.pm_handler_pm_evt_log)
    i.pm_im_evt_handler                      0x000350d0   Section        0  peer_manager.o(i.pm_im_evt_handler)
    i.pm_init                                0x000350d4   Section        0  peer_manager.o(i.pm_init)
    i.pm_pdb_evt_handler                     0x00035290   Section        0  peer_manager.o(i.pm_pdb_evt_handler)
    i.pm_peer_delete                         0x000353a8   Section        0  peer_manager.o(i.pm_peer_delete)
    i.pm_peer_rank_highest                   0x000353bc   Section        0  peer_manager.o(i.pm_peer_rank_highest)
    i.pm_peer_ranks_get                      0x000354d8   Section        0  peer_manager.o(i.pm_peer_ranks_get)
    i.pm_peers_delete                        0x000355c0   Section        0  peer_manager.o(i.pm_peers_delete)
    i.pm_register                            0x00035654   Section        0  peer_manager.o(i.pm_register)
    i.pm_sec_params_set                      0x00035680   Section        0  peer_manager.o(i.pm_sec_params_set)
    i.pm_secure_mode_set                     0x00035694   Section        0  nfc_ble_pair_lib.o(i.pm_secure_mode_set)
    pm_secure_mode_set                       0x00035695   Thumb Code   102  nfc_ble_pair_lib.o(i.pm_secure_mode_set)
    i.pm_sm_evt_handler                      0x00035700   Section        0  peer_manager.o(i.pm_sm_evt_handler)
    i.pnp_id_encode                          0x0003570a   Section        0  ble_dis.o(i.pnp_id_encode)
    pnp_id_encode                            0x0003570b   Thumb Code    52  ble_dis.o(i.pnp_id_encode)
    i.port_event_handle                      0x00035740   Section        0  nrfx_gpiote.o(i.port_event_handle)
    port_event_handle                        0x00035741   Thumb Code   176  nrfx_gpiote.o(i.port_event_handle)
    i.port_handler_polarity_get              0x000357f4   Section        0  nrfx_gpiote.o(i.port_handler_polarity_get)
    port_handler_polarity_get                0x000357f5   Thumb Code    12  nrfx_gpiote.o(i.port_handler_polarity_get)
    i.postfix_process                        0x00035804   Section        0  nrf_log_str_formatter.o(i.postfix_process)
    postfix_process                          0x00035805   Thumb Code    48  nrf_log_str_formatter.o(i.postfix_process)
    i.prefix_process                         0x00035840   Section        0  nrf_log_str_formatter.o(i.prefix_process)
    prefix_process                           0x00035841   Thumb Code    90  nrf_log_str_formatter.o(i.prefix_process)
    i.prs_box_get                            0x000358d8   Section        0  nrfx_prs.o(i.prs_box_get)
    prs_box_get                              0x000358d9   Thumb Code    14  nrfx_prs.o(i.prs_box_get)
    i.queue_buf_get                          0x000358f0   Section        0  fds.o(i.queue_buf_get)
    queue_buf_get                            0x000358f1   Thumb Code    24  fds.o(i.queue_buf_get)
    i.queue_buf_store                        0x0003590c   Section        0  fds.o(i.queue_buf_store)
    queue_buf_store                          0x0003590d   Thumb Code    10  fds.o(i.queue_buf_store)
    i.queue_free                             0x0003591c   Section        0  nrf_fstorage_sd.o(i.queue_free)
    queue_free                               0x0003591d   Thumb Code    10  nrf_fstorage_sd.o(i.queue_free)
    i.queue_process                          0x00035930   Section        0  fds.o(i.queue_process)
    queue_process                            0x00035931   Thumb Code   154  fds.o(i.queue_process)
    i.queue_process                          0x000359d4   Section        0  nrf_fstorage_sd.o(i.queue_process)
    queue_process                            0x000359d5   Thumb Code   148  nrf_fstorage_sd.o(i.queue_process)
    i.queue_read                             0x00035a74   Section        0  nrf_queue.o(i.queue_read)
    queue_read                               0x00035a75   Thumb Code   100  nrf_queue.o(i.queue_read)
    i.queue_start                            0x00035ad8   Section        0  fds.o(i.queue_start)
    queue_start                              0x00035ad9   Thumb Code    24  fds.o(i.queue_start)
    i.queue_start                            0x00035af4   Section        0  nrf_fstorage_sd.o(i.queue_start)
    queue_start                              0x00035af5   Thumb Code    30  nrf_fstorage_sd.o(i.queue_start)
    i.queue_utilization_get                  0x00035b18   Section        0  nrf_queue.o(i.queue_utilization_get)
    queue_utilization_get                    0x00035b19   Thumb Code    24  nrf_queue.o(i.queue_utilization_get)
    i.rank_highest                           0x00035b30   Section        0  peer_manager_handler.o(i.rank_highest)
    rank_highest                             0x00035b31   Thumb Code    28  peer_manager_handler.o(i.rank_highest)
    i.rank_vars_update                       0x00035b4c   Section        0  peer_manager.o(i.rank_vars_update)
    rank_vars_update                         0x00035b4d   Thumb Code    46  peer_manager.o(i.rank_vars_update)
    i.read                                   0x00035b80   Section        0  nrf_fstorage_sd.o(i.read)
    read                                     0x00035b81   Thumb Code    14  nrf_fstorage_sd.o(i.read)
    i.reattempt_previous_operations          0x00035b90   Section        0  peer_database.o(i.reattempt_previous_operations)
    reattempt_previous_operations            0x00035b91   Thumb Code   148  peer_database.o(i.reattempt_previous_operations)
    i.record_find                            0x00035c38   Section        0  fds.o(i.record_find)
    record_find                              0x00035c39   Thumb Code   134  fds.o(i.record_find)
    i.record_find_by_desc                    0x00035cc8   Section        0  fds.o(i.record_find_by_desc)
    record_find_by_desc                      0x00035cc9   Thumb Code   152  fds.o(i.record_find_by_desc)
    i.record_find_next                       0x00035d68   Section        0  fds.o(i.record_find_next)
    record_find_next                         0x00035d69   Thumb Code    88  fds.o(i.record_find_next)
    i.record_header_flag_dirty               0x00035dc4   Section        0  fds.o(i.record_header_flag_dirty)
    record_header_flag_dirty                 0x00035dc5   Thumb Code    46  fds.o(i.record_header_flag_dirty)
    i.records_stat                           0x00035e00   Section        0  fds.o(i.records_stat)
    records_stat                             0x00035e01   Thumb Code   132  fds.o(i.records_stat)
    i.release                                0x00035e88   Section        0  peer_id.o(i.release)
    release                                  0x00035e89   Thumb Code    16  peer_id.o(i.release)
    i.result_get                             0x00035e98   Section        0  nrf_hw_backend_rng_mbedtls.o(i.result_get)
    result_get                               0x00035e99   Thumb Code    34  nrf_hw_backend_rng_mbedtls.o(i.result_get)
    i.rmap                                   0x00035eba   Section        0  nrf_fstorage_sd.o(i.rmap)
    rmap                                     0x00035ebb   Thumb Code     4  nrf_fstorage_sd.o(i.rmap)
    i.rr_interval_timeout_handler            0x00035ec0   Section        0  main.o(i.rr_interval_timeout_handler)
    rr_interval_timeout_handler              0x00035ec1   Thumb Code    34  main.o(i.rr_interval_timeout_handler)
    i.rtc_irq                                0x00035ef0   Section        0  app_timer2.o(i.rtc_irq)
    rtc_irq                                  0x00035ef1   Thumb Code    88  app_timer2.o(i.rtc_irq)
    i.rtc_schedule                           0x00035f4c   Section        0  app_timer2.o(i.rtc_schedule)
    rtc_schedule                             0x00035f4d   Thumb Code    92  app_timer2.o(i.rtc_schedule)
    i.rtc_update                             0x00035fb0   Section        0  app_timer2.o(i.rtc_update)
    rtc_update                               0x00035fb1   Thumb Code   108  app_timer2.o(i.rtc_update)
    i.rx_byte                                0x00036024   Section        0  nrfx_uart.o(i.rx_byte)
    rx_byte                                  0x00036025   Thumb Code    50  nrfx_uart.o(i.rx_byte)
    i.rx_done_event                          0x00036056   Section        0  nrfx_uart.o(i.rx_done_event)
    rx_done_event                            0x00036057   Thumb Code    22  nrfx_uart.o(i.rx_done_event)
    i.rx_done_event                          0x0003606c   Section        0  nrfx_uarte.o(i.rx_done_event)
    rx_done_event                            0x0003606d   Thumb Code    22  nrfx_uarte.o(i.rx_done_event)
    i.sc_send_pending_handle                 0x00036084   Section        0  gatt_cache_manager.o(i.sc_send_pending_handle)
    sc_send_pending_handle                   0x00036085   Thumb Code    30  gatt_cache_manager.o(i.sc_send_pending_handle)
    i.sd_state_evt_handler                   0x000360a8   Section        0  nrf_drv_clock.o(i.sd_state_evt_handler)
    sd_state_evt_handler                     0x000360a9   Thumb Code    84  nrf_drv_clock.o(i.sd_state_evt_handler)
    i.sd_state_evt_handler                   0x00036100   Section        0  nrf_drv_rng.o(i.sd_state_evt_handler)
    sd_state_evt_handler                     0x00036101   Thumb Code    70  nrf_drv_rng.o(i.sd_state_evt_handler)
    i.sdh_request_observer_notify            0x00036150   Section        0  nrf_sdh.o(i.sdh_request_observer_notify)
    sdh_request_observer_notify              0x00036151   Thumb Code    44  nrf_sdh.o(i.sdh_request_observer_notify)
    i.sdh_state_observer_notify              0x00036180   Section        0  nrf_sdh.o(i.sdh_state_observer_notify)
    sdh_state_observer_notify                0x00036181   Thumb Code    38  nrf_sdh.o(i.sdh_state_observer_notify)
    i.sec_info_request_process               0x000361ac   Section        0  security_dispatcher.o(i.sec_info_request_process)
    sec_info_request_process                 0x000361ad   Thumb Code   198  security_dispatcher.o(i.sec_info_request_process)
    i.sec_keyset_fill                        0x00036284   Section        0  security_dispatcher.o(i.sec_keyset_fill)
    sec_keyset_fill                          0x00036285   Thumb Code   168  security_dispatcher.o(i.sec_keyset_fill)
    i.sec_params_verify                      0x00036378   Section        0  security_manager.o(i.sec_params_verify)
    sec_params_verify                        0x00036379   Thumb Code   118  security_manager.o(i.sec_params_verify)
    i.sec_proc_start                         0x000363f0   Section        0  security_dispatcher.o(i.sec_proc_start)
    sec_proc_start                           0x000363f1   Thumb Code    86  security_dispatcher.o(i.sec_proc_start)
    i.sec_req_process                        0x00036450   Section        0  security_manager.o(i.sec_req_process)
    sec_req_process                          0x00036451   Thumb Code    86  security_manager.o(i.sec_req_process)
    i.send_config_req                        0x000364ac   Section        0  security_dispatcher.o(i.send_config_req)
    send_config_req                          0x000364ad   Thumb Code    34  security_dispatcher.o(i.send_config_req)
    i.send_error_evt                         0x000364d0   Section        0  ble_conn_params.o(i.send_error_evt)
    send_error_evt                           0x000364d1   Thumb Code    12  ble_conn_params.o(i.send_error_evt)
    i.send_unexpected_error                  0x000364e0   Section        0  gatt_cache_manager.o(i.send_unexpected_error)
    send_unexpected_error                    0x000364e1   Thumb Code    34  gatt_cache_manager.o(i.send_unexpected_error)
    i.send_unexpected_error                  0x00036508   Section        0  security_dispatcher.o(i.send_unexpected_error)
    send_unexpected_error                    0x00036509   Thumb Code    34  security_dispatcher.o(i.send_unexpected_error)
    i.sensor_contact_detected_timeout_handler 0x00036530   Section        0  main.o(i.sensor_contact_detected_timeout_handler)
    sensor_contact_detected_timeout_handler  0x00036531   Thumb Code    16  main.o(i.sensor_contact_detected_timeout_handler)
    i.sensor_simulator_init                  0x00036548   Section        0  main.o(i.sensor_simulator_init)
    sensor_simulator_init                    0x00036549   Thumb Code    88  main.o(i.sensor_simulator_init)
    i.sensorsim_decrement                    0x000365a8   Section        0  sensorsim.o(i.sensorsim_decrement)
    i.sensorsim_increment                    0x000365c4   Section        0  sensorsim.o(i.sensorsim_increment)
    i.sensorsim_init                         0x000365e0   Section        0  sensorsim.o(i.sensorsim_init)
    i.sensorsim_measure                      0x000365f6   Section        0  sensorsim.o(i.sensorsim_measure)
    i.serial_tx                              0x00036610   Section        0  nrf_log_backend_uart.o(i.serial_tx)
    serial_tx                                0x00036611   Thumb Code    54  nrf_log_backend_uart.o(i.serial_tx)
    i.service_changed_pending_flags_check    0x00036650   Section        0  gatt_cache_manager.o(i.service_changed_pending_flags_check)
    service_changed_pending_flags_check      0x00036651   Thumb Code    12  gatt_cache_manager.o(i.service_changed_pending_flags_check)
    i.service_changed_pending_set            0x00036664   Section        0  gatts_cache_manager.o(i.service_changed_pending_set)
    service_changed_pending_set              0x00036665   Thumb Code   128  gatts_cache_manager.o(i.service_changed_pending_set)
    i.service_changed_send_in_evt            0x000366f8   Section        0  gatt_cache_manager.o(i.service_changed_send_in_evt)
    service_changed_send_in_evt              0x000366f9   Thumb Code   278  gatt_cache_manager.o(i.service_changed_send_in_evt)
    i.service_data_encode                    0x00036860   Section        0  ble_advdata.o(i.service_data_encode)
    service_data_encode                      0x00036861   Thumb Code   136  ble_advdata.o(i.service_data_encode)
    i.services_init                          0x000368e8   Section        0  main.o(i.services_init)
    services_init                            0x000368e9   Thumb Code   154  main.o(i.services_init)
    i.set_security_req                       0x000369a0   Section        0  ble_srv_common.o(i.set_security_req)
    set_security_req                         0x000369a1   Thumb Code    48  ble_srv_common.o(i.set_security_req)
    i.sleep_mode_enter                       0x000369d0   Section        0  main.o(i.sleep_mode_enter)
    sleep_mode_enter                         0x000369d1   Thumb Code    40  main.o(i.sleep_mode_enter)
    i.sm_ble_evt_handler                     0x000369f8   Section        0  security_manager.o(i.sm_ble_evt_handler)
    i.sm_conn_sec_status_get                 0x00036a2c   Section        0  security_manager.o(i.sm_conn_sec_status_get)
    i.sm_init                                0x00036ad0   Section        0  security_manager.o(i.sm_init)
    i.sm_link_secure                         0x00036b30   Section        0  security_manager.o(i.sm_link_secure)
    i.sm_pdb_evt_handler                     0x00036b3c   Section        0  security_manager.o(i.sm_pdb_evt_handler)
    i.sm_sec_is_sufficient                   0x00036b80   Section        0  security_manager.o(i.sm_sec_is_sufficient)
    i.sm_sec_params_reply                    0x00036ba8   Section        0  security_manager.o(i.sm_sec_params_reply)
    i.sm_sec_params_set                      0x00036bdc   Section        0  security_manager.o(i.sm_sec_params_set)
    i.sm_smd_evt_handler                     0x00036c10   Section        0  security_manager.o(i.sm_smd_evt_handler)
    i.smd_ble_evt_handler                    0x00036c3c   Section        0  security_dispatcher.o(i.smd_ble_evt_handler)
    i.smd_init                               0x00036d30   Section        0  security_dispatcher.o(i.smd_init)
    i.smd_link_secure                        0x00036d98   Section        0  security_dispatcher.o(i.smd_link_secure)
    i.smd_params_reply                       0x00036dc0   Section        0  security_dispatcher.o(i.smd_params_reply)
    i.smd_params_reply_perform               0x00036e6c   Section        0  security_manager.o(i.smd_params_reply_perform)
    smd_params_reply_perform                 0x00036e6d   Thumb Code    60  security_manager.o(i.smd_params_reply_perform)
    i.soc_evt_handler                        0x00036ea8   Section        0  nrf_drv_clock.o(i.soc_evt_handler)
    soc_evt_handler                          0x00036ea9   Thumb Code    18  nrf_drv_clock.o(i.soc_evt_handler)
    i.softdevice_evt_irq_disable             0x00036ec0   Section        0  nrf_sdh.o(i.softdevice_evt_irq_disable)
    softdevice_evt_irq_disable               0x00036ec1   Thumb Code    60  nrf_sdh.o(i.softdevice_evt_irq_disable)
    i.softdevices_evt_irq_enable             0x00036f00   Section        0  nrf_sdh.o(i.softdevices_evt_irq_enable)
    softdevices_evt_irq_enable               0x00036f01   Thumb Code    80  nrf_sdh.o(i.softdevices_evt_irq_enable)
    i.sortlist_pop                           0x00036f58   Section        0  app_timer2.o(i.sortlist_pop)
    sortlist_pop                             0x00036f59   Thumb Code     6  app_timer2.o(i.sortlist_pop)
    i.state_set                              0x00036f64   Section        0  app_button.o(i.state_set)
    state_set                                0x00036f65   Thumb Code    44  app_button.o(i.state_set)
    i.std_n                                  0x00036f94   Section        0  nrf_log_frontend.o(i.std_n)
    std_n                                    0x00036f95   Thumb Code   140  nrf_log_frontend.o(i.std_n)
    i.store_car_value                        0x00037028   Section        0  gatt_cache_manager.o(i.store_car_value)
    i.sys_id_encode                          0x00037094   Section        0  ble_dis.o(i.sys_id_encode)
    sys_id_encode                            0x00037095   Thumb Code    66  ble_dis.o(i.sys_id_encode)
    i.timer_expire                           0x000370d8   Section        0  app_timer2.o(i.timer_expire)
    timer_expire                             0x000370d9   Thumb Code    80  app_timer2.o(i.timer_expire)
    i.timer_req_process                      0x00037130   Section        0  app_timer2.o(i.timer_req_process)
    timer_req_process                        0x00037131   Thumb Code   110  app_timer2.o(i.timer_req_process)
    i.timer_req_schedule                     0x000371a8   Section        0  app_timer2.o(i.timer_req_schedule)
    timer_req_schedule                       0x000371a9   Thumb Code    46  app_timer2.o(i.timer_req_schedule)
    i.timer_start                            0x000371e0   Section        0  app_button.o(i.timer_start)
    timer_start                              0x000371e1   Thumb Code    16  app_button.o(i.timer_start)
    i.timers_init                            0x000371f8   Section        0  main.o(i.timers_init)
    timers_init                              0x000371f9   Thumb Code    90  main.o(i.timers_init)
    i.tk_value_encode                        0x00037268   Section        0  nfc_ble_oob_advdata.o(i.tk_value_encode)
    tk_value_encode                          0x00037269   Thumb Code    82  nfc_ble_oob_advdata.o(i.tk_value_encode)
    i.tx_byte                                0x000372ba   Section        0  nrfx_uart.o(i.tx_byte)
    tx_byte                                  0x000372bb   Thumb Code    32  nrfx_uart.o(i.tx_byte)
    i.tx_done_event                          0x000372da   Section        0  nrfx_uart.o(i.tx_done_event)
    tx_done_event                            0x000372db   Thumb Code    26  nrfx_uart.o(i.tx_done_event)
    i.tx_done_event                          0x000372f4   Section        0  nrfx_uarte.o(i.tx_done_event)
    tx_done_event                            0x000372f5   Thumb Code    26  nrfx_uarte.o(i.tx_done_event)
    i.uart_evt_handler                       0x00037310   Section        0  nrf_drv_uart.o(i.uart_evt_handler)
    uart_evt_handler                         0x00037311   Thumb Code    42  nrf_drv_uart.o(i.uart_evt_handler)
    i.uart_evt_handler                       0x00037340   Section        0  nrf_log_backend_uart.o(i.uart_evt_handler)
    uart_evt_handler                         0x00037341   Thumb Code     8  nrf_log_backend_uart.o(i.uart_evt_handler)
    i.uart_init                              0x0003734c   Section        0  nrf_log_backend_uart.o(i.uart_init)
    uart_init                                0x0003734d   Thumb Code    66  nrf_log_backend_uart.o(i.uart_init)
    i.uart_irq_handler                       0x0003739c   Section        0  nrfx_uart.o(i.uart_irq_handler)
    uart_irq_handler                         0x0003739d   Thumb Code   298  nrfx_uart.o(i.uart_irq_handler)
    i.uarte_evt_handler                      0x000374c8   Section        0  nrf_drv_uart.o(i.uarte_evt_handler)
    uarte_evt_handler                        0x000374c9   Thumb Code    42  nrf_drv_uart.o(i.uarte_evt_handler)
    i.uarte_irq_handler                      0x000374f8   Section        0  nrfx_uarte.o(i.uarte_irq_handler)
    uarte_irq_handler                        0x000374f9   Thumb Code   274  nrfx_uarte.o(i.uarte_irq_handler)
    i.uint16_encode                          0x0003760a   Section        0  ble_advdata.o(i.uint16_encode)
    uint16_encode                            0x0003760b   Thumb Code    10  ble_advdata.o(i.uint16_encode)
    i.uninit                                 0x00037614   Section        0  nrf_fstorage_sd.o(i.uninit)
    uninit                                   0x00037615   Thumb Code    22  nrf_fstorage_sd.o(i.uninit)
    i.unsigned_print                         0x00037634   Section        0  nrf_fprintf_format.o(i.unsigned_print)
    unsigned_print                           0x00037635   Thumb Code   176  nrf_fprintf_format.o(i.unsigned_print)
    i.update_pending_flags_check             0x000376e8   Section        0  gatt_cache_manager.o(i.update_pending_flags_check)
    update_pending_flags_check               0x000376e9   Thumb Code    34  gatt_cache_manager.o(i.update_pending_flags_check)
    i.update_timeout_handler                 0x00037718   Section        0  ble_conn_params.o(i.update_timeout_handler)
    update_timeout_handler                   0x00037719   Thumb Code    98  ble_conn_params.o(i.update_timeout_handler)
    i.use_whitelist                          0x00037780   Section        0  ble_advertising.o(i.use_whitelist)
    use_whitelist                            0x00037781   Thumb Code    24  ble_advertising.o(i.use_whitelist)
    i.user_flag_is_acquired                  0x00037798   Section        0  ble_conn_state.o(i.user_flag_is_acquired)
    user_flag_is_acquired                    0x00037799   Thumb Code     8  ble_conn_state.o(i.user_flag_is_acquired)
    i.user_mem_reply                         0x000377a4   Section        0  nrf_ble_qwr.o(i.user_mem_reply)
    user_mem_reply                           0x000377a5   Thumb Code    36  nrf_ble_qwr.o(i.user_mem_reply)
    i.usr_event                              0x000377c8   Section        0  app_button.o(i.usr_event)
    usr_event                                0x000377c9   Thumb Code    32  app_button.o(i.usr_event)
    i.uuid_list_encode                       0x000377e8   Section        0  ble_advdata.o(i.uuid_list_encode)
    uuid_list_encode                         0x000377e9   Thumb Code    48  ble_advdata.o(i.uuid_list_encode)
    i.uuid_list_sized_encode                 0x00037818   Section        0  ble_advdata.o(i.uuid_list_sized_encode)
    uuid_list_sized_encode                   0x00037819   Thumb Code   158  ble_advdata.o(i.uuid_list_sized_encode)
    i.wakeup_button_cfg                      0x000378b6   Section        0  bsp.o(i.wakeup_button_cfg)
    wakeup_button_cfg                        0x000378b7   Thumb Code    58  bsp.o(i.wakeup_button_cfg)
    i.wmap                                   0x000378f0   Section        0  nrf_fstorage_sd.o(i.wmap)
    wmap                                     0x000378f1   Thumb Code     4  nrf_fstorage_sd.o(i.wmap)
    i.write                                  0x000378f4   Section        0  nrf_fstorage_sd.o(i.write)
    write                                    0x000378f5   Thumb Code    74  nrf_fstorage_sd.o(i.write)
    i.write_buf_store                        0x00037944   Section        0  peer_database.o(i.write_buf_store)
    i.write_buffer_record_find               0x00037a90   Section        0  peer_database.o(i.write_buffer_record_find)
    write_buffer_record_find                 0x00037a91   Thumb Code    52  peer_database.o(i.write_buffer_record_find)
    i.write_buffer_record_find_next          0x00037ac4   Section        0  peer_database.o(i.write_buffer_record_find_next)
    write_buffer_record_find_next            0x00037ac5   Thumb Code    42  peer_database.o(i.write_buffer_record_find_next)
    i.write_buffer_record_invalidate         0x00037af4   Section        0  peer_database.o(i.write_buffer_record_invalidate)
    write_buffer_record_invalidate           0x00037af5   Thumb Code    28  peer_database.o(i.write_buffer_record_invalidate)
    i.write_buffer_record_release            0x00037b10   Section        0  peer_database.o(i.write_buffer_record_release)
    write_buffer_record_release              0x00037b11   Thumb Code    38  peer_database.o(i.write_buffer_record_release)
    i.write_enqueue                          0x00037b3c   Section        0  fds.o(i.write_enqueue)
    write_enqueue                            0x00037b3d   Thumb Code   234  fds.o(i.write_enqueue)
    i.write_execute                          0x00037c30   Section        0  fds.o(i.write_execute)
    write_execute                            0x00037c31   Thumb Code   236  fds.o(i.write_execute)
    i.write_space_free                       0x00037d28   Section        0  fds.o(i.write_space_free)
    write_space_free                         0x00037d29   Thumb Code    20  fds.o(i.write_space_free)
    i.write_space_reserve                    0x00037d40   Section        0  fds.o(i.write_space_reserve)
    write_space_reserve                      0x00037d41   Thumb Code    90  fds.o(i.write_space_reserve)
    .constdata                               0x00037da0   Section       16  main.o(.constdata)
    m_battery_timer_id                       0x00037da0   Data           4  main.o(.constdata)
    m_heart_rate_timer_id                    0x00037da4   Data           4  main.o(.constdata)
    m_rr_interval_timer_id                   0x00037da8   Data           4  main.o(.constdata)
    m_sensor_contact_timer_id                0x00037dac   Data           4  main.o(.constdata)
    .constdata                               0x00037db0   Section        8  boards.o(.constdata)
    m_board_led_list                         0x00037db0   Data           4  boards.o(.constdata)
    m_board_btn_list                         0x00037db4   Data           4  boards.o(.constdata)
    .constdata                               0x00037db8   Section       44  bsp.o(.constdata)
    m_bsp_leds_tmr                           0x00037db8   Data           4  bsp.o(.constdata)
    m_bsp_alert_tmr                          0x00037dbc   Data           4  bsp.o(.constdata)
    m_bsp_button_tmr                         0x00037dc0   Data           4  bsp.o(.constdata)
    app_buttons                              0x00037dc4   Data          32  bsp.o(.constdata)
    .constdata                               0x00037de4   Section      108  gatt_cache_manager.o(.constdata)
    car_value_true                           0x00037de8   Data           4  gatt_cache_manager.o(.constdata)
    car_value_false                          0x00037dec   Data           4  gatt_cache_manager.o(.constdata)
    .constdata                               0x00037e50   Section        4  gatts_cache_manager.o(.constdata)
    service_changed_pending                  0x00037e50   Data           4  gatts_cache_manager.o(.constdata)
    .constdata                               0x00037e54   Section       16  gatts_cache_manager.o(.constdata)
    .constdata                               0x00037e64   Section        4  gatts_cache_manager.o(.constdata)
    service_changed_pending                  0x00037e64   Data           4  gatts_cache_manager.o(.constdata)
    .constdata                               0x00037e68   Section        8  id_manager.o(.constdata)
    m_evt_handlers                           0x00037e68   Data           8  id_manager.o(.constdata)
    .constdata                               0x00037e70   Section       22  nrf_ble_gatt.o(.constdata)
    .constdata                               0x00037e88   Section       24  peer_data_storage.o(.constdata)
    m_evt_handlers                           0x00037e88   Data           4  peer_data_storage.o(.constdata)
    .constdata                               0x00037ea0   Section       16  peer_database.o(.constdata)
    m_evt_handlers                           0x00037ea0   Data          16  peer_database.o(.constdata)
    .constdata                               0x00037eb0   Section       44  peer_manager.o(.constdata)
    __func__                                 0x00037eb0   Data           8  peer_manager.o(.constdata)
    __func__                                 0x00037ec0   Data          12  peer_manager.o(.constdata)
    __func__                                 0x00037ecc   Data          16  peer_manager.o(.constdata)
    .constdata                               0x00037edc   Section       20  peer_manager_handler.o(.constdata)
    .constdata                               0x00037ef0   Section      120  security_dispatcher.o(.constdata)
    m_evt_handlers                           0x00037ef0   Data           4  security_dispatcher.o(.constdata)
    __func__                                 0x00037f58   Data          16  security_dispatcher.o(.constdata)
    .constdata                               0x00037f68   Section        8  security_manager.o(.constdata)
    m_evt_handlers                           0x00037f6c   Data           4  security_manager.o(.constdata)
    .constdata                               0x00037f70   Section      108  nrf_crypto_ecc.o(.constdata)
    key_pair_generate_context_size           0x00037f70   Data           6  nrf_crypto_ecc.o(.constdata)
    public_key_calculate_context_size        0x00037f76   Data           6  nrf_crypto_ecc.o(.constdata)
    key_pair_generate_impl                   0x00037f7c   Data          12  nrf_crypto_ecc.o(.constdata)
    public_key_calculate_impl                0x00037f88   Data          12  nrf_crypto_ecc.o(.constdata)
    private_key_from_raw_impl                0x00037f94   Data          12  nrf_crypto_ecc.o(.constdata)
    private_key_to_raw_impl                  0x00037fa0   Data          12  nrf_crypto_ecc.o(.constdata)
    public_key_from_raw_impl                 0x00037fac   Data          12  nrf_crypto_ecc.o(.constdata)
    public_key_to_raw_impl                   0x00037fb8   Data          12  nrf_crypto_ecc.o(.constdata)
    private_key_free_impl                    0x00037fc4   Data          12  nrf_crypto_ecc.o(.constdata)
    public_key_free_impl                     0x00037fd0   Data          12  nrf_crypto_ecc.o(.constdata)
    .constdata                               0x00037fdc   Section       12  nrf_crypto_ecdh.o(.constdata)
    compute_impl_context_size                0x00037fdc   Data           4  nrf_crypto_ecdh.o(.constdata)
    compute_impl                             0x00037fe0   Data           8  nrf_crypto_ecdh.o(.constdata)
    .constdata                               0x00037fe8   Section       12  oberon_backend_ecc.o(.constdata)
    .constdata                               0x00037ff4   Section       64  oberon_backend_ecc.o(.constdata)
    min_value                                0x00037ff4   Data          32  oberon_backend_ecc.o(.constdata)
    max_value                                0x00038014   Data          32  oberon_backend_ecc.o(.constdata)
    .constdata                               0x00038034   Section        2  nrf_drv_rng.o(.constdata)
    m_default_config                         0x00038034   Data           2  nrf_drv_rng.o(.constdata)
    .constdata                               0x00038038   Section        4  nrfx_gpiote.o(.constdata)
    .constdata                               0x0003803c   Section       88  nrfx_nfct.o(.constdata)
    .constdata                               0x00038094   Section        4  nrfx_uart.o(.constdata)
    irq_handlers                             0x00038094   Data           4  nrfx_uart.o(.constdata)
    .constdata                               0x00038098   Section        4  nrfx_uarte.o(.constdata)
    irq_handlers                             0x00038098   Data           4  nrfx_uarte.o(.constdata)
    .constdata                               0x0003809c   Section        8  app_button.o(.constdata)
    m_detection_delay_timer_id               0x000380a0   Data           4  app_button.o(.constdata)
    .constdata                               0x000380a4   Section       20  app_timer2.o(.constdata)
    m_req_fifo                               0x000380a4   Data           4  app_timer2.o(.constdata)
    m_app_timer_sortlist                     0x000380ac   Data          12  app_timer2.o(.constdata)
    .constdata                               0x000380c0   Section        6  drv_rtc.o(.constdata)
    delay_machine_code                       0x000380c0   Data           6  drv_rtc.o(.constdata)
    .constdata                               0x000380c8   Section       24  fds.o(.constdata)
    m_queue                                  0x000380c8   Data           4  fds.o(.constdata)
    dirty_header                             0x000380cc   Data           4  fds.o(.constdata)
    page_tag_swap                            0x000380d0   Data           8  fds.o(.constdata)
    page_tag_data                            0x000380d8   Data           8  fds.o(.constdata)
    .constdata                               0x000380e0   Section       16  nrf_fprintf_format.o(.constdata)
    _aV2C                                    0x000380e0   Data          16  nrf_fprintf_format.o(.constdata)
    .constdata                               0x000380f0   Section       94  nrf_fstorage.o(.constdata)
    __func__                                 0x000380f0   Data          18  nrf_fstorage.o(.constdata)
    __func__                                 0x00038102   Data          20  nrf_fstorage.o(.constdata)
    __func__                                 0x00038116   Data          18  nrf_fstorage.o(.constdata)
    __func__                                 0x00038128   Data          19  nrf_fstorage.o(.constdata)
    __func__                                 0x0003813b   Data          19  nrf_fstorage.o(.constdata)
    .constdata                               0x00038150   Section       16  nrf_fstorage_sd.o(.constdata)
    m_fifo                                   0x00038150   Data           4  nrf_fstorage_sd.o(.constdata)
    m_flash_info                             0x00038154   Data          12  nrf_fstorage_sd.o(.constdata)
    .constdata                               0x00038160   Section       32  nrf_fstorage_sd.o(.constdata)
    .constdata                               0x00038180   Section       24  nrf_pwr_mgmt.o(.constdata)
    pwr_mgmt_data_array                      0x00038180   Data          24  nrf_pwr_mgmt.o(.constdata)
    .constdata                               0x00038198   Section       12  nrf_pwr_mgmt.o(.constdata)
    pwr_mgmt_data                            0x00038198   Data          12  nrf_pwr_mgmt.o(.constdata)
    .constdata                               0x000381a4   Section      316  nrf_strerror.o(.constdata)
    m_unknown_str                            0x000381a4   Data          19  nrf_strerror.o(.constdata)
    nrf_strerror_array                       0x000381b8   Data         296  nrf_strerror.o(.constdata)
    .constdata                               0x000382e0   Section       12  nrf_log_backend_uart.o(.constdata)
    .constdata                               0x000382ec   Section       32  nrf_log_backend_uart.o(.constdata)
    .constdata                               0x0003830c   Section       12  nrf_log_frontend.o(.constdata)
    m_log_push_ringbuf                       0x0003830c   Data          12  nrf_log_frontend.o(.constdata)
    .constdata                               0x00038318   Section        2  nfc_ac_rec.o(.constdata)
    .constdata                               0x0003831a   Section       32  nfc_ble_pair_common.o(.constdata)
    .constdata                               0x0003833c   Section      268  nfc_ble_pair_msg.o(.constdata)
    sec_mgr_oob_flags                        0x0003833c   Data           1  nfc_ble_pair_msg.o(.constdata)
    .constdata                               0x00038448   Section       32  nfc_ep_oob_rec.o(.constdata)
    .constdata                               0x00038468   Section        2  nfc_hs_rec.o(.constdata)
    .constdata                               0x0003846c   Section       16  nrf_sdh.o(.constdata)
    sdh_req_observers_array                  0x0003846c   Data          16  nrf_sdh.o(.constdata)
    .constdata                               0x0003847c   Section       40  nrf_sdh.o(.constdata)
    sdh_req_observers                        0x00038480   Data          12  nrf_sdh.o(.constdata)
    sdh_state_observers                      0x0003848c   Data          12  nrf_sdh.o(.constdata)
    sdh_stack_observers                      0x00038498   Data          12  nrf_sdh.o(.constdata)
    .constdata                               0x000384a4   Section       16  nrf_sdh.o(.constdata)
    sdh_state_observers_array                0x000384a4   Data          16  nrf_sdh.o(.constdata)
    .constdata                               0x000384b4   Section       16  nrf_sdh.o(.constdata)
    sdh_stack_observers_array                0x000384b4   Data          16  nrf_sdh.o(.constdata)
    .constdata                               0x000384c4   Section       32  nrf_sdh_ble.o(.constdata)
    sdh_ble_observers_array                  0x000384c4   Data          32  nrf_sdh_ble.o(.constdata)
    .constdata                               0x000384e4   Section       16  nrf_sdh_ble.o(.constdata)
    sdh_ble_observers                        0x000384e8   Data          12  nrf_sdh_ble.o(.constdata)
    .constdata                               0x000384f4   Section       16  nrf_sdh_soc.o(.constdata)
    sdh_soc_observers_array                  0x000384f4   Data          16  nrf_sdh_soc.o(.constdata)
    .constdata                               0x00038504   Section       12  nrf_sdh_soc.o(.constdata)
    sdh_soc_observers                        0x00038504   Data          12  nrf_sdh_soc.o(.constdata)
    .constdata                               0x00038510   Section     8744  aes.o(.constdata)
    FSb                                      0x00038510   Data         256  aes.o(.constdata)
    FT0                                      0x00038610   Data        1024  aes.o(.constdata)
    FT1                                      0x00038a10   Data        1024  aes.o(.constdata)
    FT2                                      0x00038e10   Data        1024  aes.o(.constdata)
    FT3                                      0x00039210   Data        1024  aes.o(.constdata)
    RSb                                      0x00039610   Data         256  aes.o(.constdata)
    RT0                                      0x00039710   Data        1024  aes.o(.constdata)
    RT1                                      0x00039b10   Data        1024  aes.o(.constdata)
    RT2                                      0x00039f10   Data        1024  aes.o(.constdata)
    RT3                                      0x0003a310   Data        1024  aes.o(.constdata)
    RCON                                     0x0003a710   Data          40  aes.o(.constdata)
    .constdata                               0x0003a738   Section       10  nfc_t2t_lib.o(.constdata)
    nfclibDefaultId                          0x0003a738   Data          10  nfc_t2t_lib.o(.constdata)
    .constdata                               0x0003a744   Section       16  nfc_t2t_lib_al.o(.constdata)
    m_rx_desc                                0x0003a744   Data           8  nfc_t2t_lib_al.o(.constdata)
    .constdata                               0x0003a754   Section      129  ctype_o.o(.constdata)
    .constdata                               0x0003a7d8   Section        4  ctype_o.o(.constdata)
    table                                    0x0003a7d8   Data           4  ctype_o.o(.constdata)
    .conststring                             0x0003a7dc   Section      420  gatt_cache_manager.o(.conststring)
    .conststring                             0x0003a980   Section      412  gatts_cache_manager.o(.conststring)
    .conststring                             0x0003ab1c   Section      318  nrf_ble_gatt.o(.conststring)
    .conststring                             0x0003ac5c   Section      134  nrf_ble_lesc.o(.conststring)
    .conststring                             0x0003ace4   Section      232  peer_data_storage.o(.conststring)
    .conststring                             0x0003adcc   Section      384  peer_database.o(.conststring)
    .conststring                             0x0003af4c   Section      144  peer_manager.o(.conststring)
    .conststring                             0x0003afdc   Section      783  peer_manager_handler.o(.conststring)
    .conststring                             0x0003b2ec   Section      690  security_dispatcher.o(.conststring)
    .conststring                             0x0003b5a0   Section      379  security_manager.o(.conststring)
    .conststring                             0x0003b71c   Section       79  nrf_fstorage.o(.conststring)
    .conststring                             0x0003b76c   Section     1003  nrf_strerror.o(.conststring)
    .conststring                             0x0003bb58   Section      102  nrf_log_str_formatter.o(.conststring)
    .conststring                             0x0003bbc0   Section      392  nrf_sdh_ble.o(.conststring)
    .conststrlit                             0x0003bd48   Section       17  gatt_cache_manager.o(.conststrlit)
    .conststrlit                             0x0003bd5c   Section       18  gatts_cache_manager.o(.conststrlit)
    .conststrlit                             0x0003bd70   Section       16  id_manager.o(.conststrlit)
    .conststrlit                             0x0003bd80   Section       13  nrf_ble_gatt.o(.conststrlit)
    .conststrlit                             0x0003bd90   Section       13  nrf_ble_lesc.o(.conststrlit)
    .conststrlit                             0x0003bda0   Section       17  peer_data_storage.o(.conststrlit)
    .conststrlit                             0x0003bdb4   Section       17  peer_database.o(.conststrlit)
    .conststrlit                             0x0003bdc8   Section       13  peer_manager.o(.conststrlit)
    .conststrlit                             0x0003bdd8   Section       21  peer_manager_handler.o(.conststrlit)
    .conststrlit                             0x0003bdf0   Section       17  security_dispatcher.o(.conststrlit)
    .conststrlit                             0x0003be04   Section       16  security_manager.o(.conststrlit)
    .conststrlit                             0x0003be14   Section        8  ble_bas.o(.conststrlit)
    .conststrlit                             0x0003be1c   Section        6  nrf_drv_clock.o(.conststrlit)
    .conststrlit                             0x0003be24   Section        4  nrf_drv_rng.o(.conststrlit)
    .conststrlit                             0x0003be28   Section        6  nrfx_clock.o(.conststrlit)
    .conststrlit                             0x0003be30   Section        7  nrfx_gpiote.o(.conststrlit)
    .conststrlit                             0x0003be38   Section        5  nrfx_nfct.o(.conststrlit)
    .conststrlit                             0x0003be40   Section        4  nrfx_prs.o(.conststrlit)
    .conststrlit                             0x0003be44   Section        4  nrfx_rng.o(.conststrlit)
    .conststrlit                             0x0003be48   Section        6  nrfx_timer.o(.conststrlit)
    .conststrlit                             0x0003be50   Section        5  nrfx_uart.o(.conststrlit)
    .conststrlit                             0x0003be58   Section        6  nrfx_uarte.o(.conststrlit)
    .conststrlit                             0x0003be60   Section       11  app_button.o(.conststrlit)
    .conststrlit                             0x0003be6c   Section       10  app_timer2.o(.conststrlit)
    .conststrlit                             0x0003be78   Section        9  mem_manager.o(.conststrlit)
    .conststrlit                             0x0003be84   Section       13  nrf_fstorage.o(.conststrlit)
    .conststrlit                             0x0003be94   Section        9  nrf_pwr_mgmt.o(.conststrlit)
    .conststrlit                             0x0003bea0   Section        9  nrf_sortlist.o(.conststrlit)
    .conststrlit                             0x0003beac   Section       17  nrf_log_default_backends.o(.conststrlit)
    .conststrlit                             0x0003bec0   Section        4  nrf_log_frontend.o(.conststrlit)
    .conststrlit                             0x0003bec4   Section       13  nfc_ble_pair_lib.o(.conststrlit)
    .conststrlit                             0x0003bed4   Section        8  nrf_sdh.o(.conststrlit)
    .conststrlit                             0x0003bedc   Section       12  nrf_sdh_ble.o(.conststrlit)
    .conststrlit                             0x0003bee8   Section       12  nrf_sdh_soc.o(.conststrlit)
    [Anonymous Symbol]                       0x0003bef4   Section        0  ocrypto_curve25519.c.obj(.rodata.base)
    base                                     0x0003bef4   Data          32  ocrypto_curve25519.c.obj(.rodata.base)
    [Anonymous Symbol]                       0x0003bf14   Section        0  ocrypto_curve_p256.c.obj(.rodata.base_point)
    base_point                               0x0003bf14   Data          64  ocrypto_curve_p256.c.obj(.rodata.base_point)
    [Anonymous Symbol]                       0x0003bf58   Section        0  ocrypto_sha512.c.obj(.rodata.const_table)
    const_table                              0x0003bf58   Data         640  ocrypto_sha512.c.obj(.rodata.const_table)
    [Anonymous Symbol]                       0x0003c1d8   Section        0  ocrypto_curve_p256.c.obj(.rodata.cq)
    cq                                       0x0003c1d8   Data          32  ocrypto_curve_p256.c.obj(.rodata.cq)
    [Anonymous Symbol]                       0x0003c1f8   Section        0  ocrypto_curve_p256.c.obj(.rodata.inv_a)
    inv_a                                    0x0003c1f8   Data          32  ocrypto_curve_p256.c.obj(.rodata.inv_a)
    [Anonymous Symbol]                       0x0003c218   Section        0  ocrypto_sc25519.c.obj(.rodata.m)
    m                                        0x0003c218   Data          32  ocrypto_sc25519.c.obj(.rodata.m)
    [Anonymous Symbol]                       0x0003c238   Section        0  ocrypto_ge25519.c.obj(.rodata.ocrypto_ge25519_base_multiples)
    ocrypto_ge25519_base_multiples           0x0003c238   Data        1600  ocrypto_ge25519.c.obj(.rodata.ocrypto_ge25519_base_multiples)
    [Anonymous Symbol]                       0x0003c878   Section        0  ocrypto_ge25519.c.obj(.rodata.ocrypto_ge25519_ec2d)
    ocrypto_ge25519_ec2d                     0x0003c878   Data          32  ocrypto_ge25519.c.obj(.rodata.ocrypto_ge25519_ec2d)
    [Anonymous Symbol]                       0x0003c898   Section        0  ocrypto_curve_p256.c.obj(.rodata.param_a)
