:020000040002F8
:10600000805C0020C1630200C9630200CB63020010
:10601000CD630200CF630200D163020000000000E4
:10602000000000000000000000000000D363020038
:10603000D563020000000000D7630200D9630200AC
:10604000F5900200DB630200B1940200DB63020002
:10605000DB6302002D8F0200898E0200DB630200E9
:10606000DB630200DB630200DB630200DB63020030
:10607000DB6302004D910200DB630200DB63020080
:10608000DB63020075910200DB630200DB63020048
:10609000DB630200DB63020085910200DB63020028
:1060A000DB630200DB630200DB6302006194020039
:1060B000DB630200DB630200000000000000000060
:1060C000DB630200DB630200DB630200DB630200D0
:1060D000DB630200DB630200DB6302000000000000
:1060E00000000000000000000000000000000000B0
:1060F00000000000000000000000000000000000A0
:10610000000000000000000000000000000000008F
:10611000000000000000000000000000000000007F
:10612000000000000000000000000000000000006F
:10613000000000000000000000000000000000005F
:10614000000000000000000000000000000000004F
:10615000000000000000000000000000000000003F
:10616000000000000000000000000000000000002F
:10617000000000000000000000000000000000001F
:10618000000000000000000000000000000000000F
:1061900000000000000000000000000000000000FF
:1061A00000000000000000000000000000000000EF
:1061B00000000000000000000000000000000000DF
:1061C00000000000000000000000000000000000CF
:1061D00000000000000000000000000000000000BF
:1061E00000000000000000000000000000000000AF
:1061F000000000000000000000000000000000009F
:10620000DFF80CD000F0F6FF0048004779E102000B
:10621000805C002030B450E8012F93B2C48923443D
:106220008489A34228BF1B1B0489A34202BFBFF37A
:106230002F8F002007E0C3EA020340E80134002C5E
:10624000E9D14FF001000A6030BC704750E8012FDF
:10625000C2EA024240E801210029F7D1704730B478
:1062600050E8022F1FFAA2F3C488A34202BFBFF373
:106270002F8F00200DE0C48923448489A34228BFC6
:106280001B1BC2EA034340E80234002CE8D14FF064
:1062900001000A6030BC704750E8022FC2EA224277
:1062A00040E802210029F7D17047034653E8022F46
:1062B000D988B2EB324F4FF0000017BF92B241EADB
:1062C000014142EA014104E05A68B2EB324F08BF93
:1062D000012043E80212002AE8D1704730B4044696
:1062E00054E8000F0D4644E80053002BF8D1156028
:1062F00030BC704730B4044654E8000F40EA010552
:1063000044E80053002BF7D1156030BC704730B41F
:10631000044654E8000F00EA010544E80053002B4E
:10632000F7D1156030BC704730B4044654E8000F14
:1063300080EA010544E80053002BF7D1156030BC1A
:10634000704730B4044654E8000F00EB010544E800
:106350000053002BF7D1156030BC704730B40446B1
:1063600054E8000FA0EB010544E80053002BF7D1DF
:10637000156030BC704770B404464FF0000054E81C
:10638000006F0D68AE4207BF44E80023012044E8D7
:1063900000630E60002B1CBF0020F0E770BC70474C
:1063A00030B4044654E8000F88422CBF451A054615
:1063B00044E80053002BF5D1156030BC7047000055
:1063C0000648804706480047FEE7FEE7FEE7FEE78F
:1063D000FEE7FEE7FEE7FEE7FEE7FEE78991020043
:1063E0000162020070B491E87800B2E802105B1814
:1063F00054EB0C04B2E802104D4156EB0C0680E859
:1064000078008041013070BC704770B491E878002A
:10641000B2E802105B1A74EB0C04B2E802108D4172
:1064200076EB0C0680E878008041404270BC7047F3
:106430002DE9F00791E8F807B2E802105B1854EB79
:106440000C04B2E802104D4156EB0C06B2E8021003
:106450004F4158EB0C08B2E8021059EB01095AEB16
:106460000C0A80E8F80780410130BDE8F00770476A
:106470002DE9F00791E8F807B2E802105B1A74EB17
:106480000C04B2E802108D4176EB0C06B2E8021063
:106490008F4178EB0C08B2E8021079EB01097AEB36
:1064A0000C0A80E8F80780414042BDE8F0077047D9
:1064B0002DE9F007524290E87800B1E880071740D4
:1064C000DB1918EA020854EB080419EA020955EB33
:1064D00009051AEA020A56EB0A0678C090E8780025
:1064E000B1E8800717407B4118EA020854EB080422
:1064F00019EA020955EB09051AEA020A56EB0A06DF
:1065000078C080410130BDE8F00770472DE9F00701
:10651000524290E87800B1E880071740DB1B18EA88
:10652000020874EB080419EA020975EB09051AEA76
:10653000020A76EB0A0678C090E87800B1E8800796
:106540001740BB4118EA020874EB080419EA020973
:1065500075EB09051AEA020A76EB0A0678C0804153
:106560004042BDE8F007704790E8300091E8C00075
:10657000A31B1340E41AF618EB1B1340ED1AFF1887
:1065800030C0C0C17047F0B55242FFF7EDFFFFF7D2
:10659000EBFFFFF7E9FFFFF7E7FFF0BD2DE9F0079D
:1065A0003AC91668A1FB069A4FF0000CE3FB06AC53
:1065B0004FF00007E4FB06C74FF00008E5FB067844
:1065C00040F8049B56684FF00009E1FB06A9E3FB85
:1065D00066C9E4FB6679E5FB668940F804AB96681A
:1065E0004FF0000AE1FB06CAE3FB667AE4FB668A29
:1065F000E5FB669A40F804CBD6684FF0000CE1FB4F
:10660000067CE3FB668CE4FB669CE5FB66AC80E8FD
:106610008017BDE8F00770470A462DE9F04F40ECBF
:10662000171A92EC080A1EC910EE100AA1FB007896
:106630004FF00009E2FB00894FF0000AE3FB009AEB
:106640004FF0000BE4FB00AB12EE100A4FF0000C11
:10665000E1FB00BC4FF0000EE2FB00CE4FF0000566
:10666000E3FB00E54FF00006E4FB005604EE107A71
:1066700010EE900A4FF00007E1FB0087E2FB609705
:10668000E3FB60A7E4FB60B712EE900AE1FB60C792
:10669000E2FB60E7E3FB6057E4FB606704EE908A8F
:1066A00011EE100A4FF00008E1FB0098E2FB60A831
:1066B000E3FB60B8E4FB60C813EE100AE1FB60E89E
:1066C000E2FB6058E3FB6068E4FB607805EE109A3B
:1066D00011EE900A4FF00009E1FB00A9E2FB60B95E
:1066E000E3FB60C9E4FB60E913EE900AE1FB60594B
:1066F000E2FB6069E3FB6079E4FB608905EE90AA48
:1067000017EE101A01F110011EC910EE100A4FF019
:10671000000AE1FB00BAE2FB60CAE3FB60EAE4FBCB
:10672000605A12EE100AE1FB606AE2FB607AE3FB5A
:10673000608AE4FB609A06EE10BA10EE900A4FF001
:10674000000BE1FB00CBE2FB60EBE3FB605BE4FBF7
:10675000606B12EE900AE1FB607BE2FB608BE3FB77
:10676000609BE4FB60AB06EE90CA11EE100A4FF09E
:10677000000CE1FB00ECE2FB605CE3FB606CE4FB23
:10678000607C13EE100AE1FB608CE2FB609CE3FB93
:1067900060ACE4FB60BC07EE10EA11EE900A4FF02B
:1067A000000EE1FB005EE2FB606EE3FB607EE4FB5B
:1067B000608E13EE900AE1FB609EE2FB60AEE3FBAD
:1067C00060BEE4FB60CE17EE900AA0EC074A80E8BA
:1067D000E05FBDE8F08F00BF30B44FF0000310F869
:1067E000014B11F8015B013A84EA050443EA040312
:1067F000F5D1A3F101034FEAD37030BC70474FF0DD
:10680000000310F8012B013943EA0203F9D1A3F187
:1068100001034FEAD370704711F8013B00F8013BC8
:10682000013AF9D17047002200F8012B0139FBD160
:10683000704700BF2DE9F00791E8F807B2E80210B1
:106840005B1854EB0C04B2E802104D4156EB0C06F9
:10685000B2E802104F4158EB0C08B2E8021059EBB5
:1068600001095AEB0C0A8941B3F1FF3374F1FF348B
:1068700075F1FF3576F1000677F1000778F1000831
:1068800079F101097AF1FF3A51F100014A425B18AE
:106890004C414D4156F1000657F1000758F10008F0
:1068A00059EB02095AEB010A80E8F807BDE8F00746
:1068B00070472DE9F00791E8F807B2E802105B1A7B
:1068C00074EB0C04B2E802108D4176EB0C06B2E8D2
:1068D00002108F4178EB0C08B2E8021079EB010945
:1068E0007AEB0C0A89414A425B184C414D4156F102
:1068F000000657F1000758F1000859EB02095AEB5E
:10690000010A80E8F807BDE8F00770470A462DE95C
:10691000F04F40EC171A92EC080A1EC910EE100A4C
:10692000A1FB00784FF00009E2FB00894FF0000A5C
:10693000E3FB009A4FF0000BE4FB00AB12EE100AF1
:106940004FF0000CE1FB00BC4FF0000EE2FB00CE6C
:106950004FF00005E3FB00E54FF00006E4FB0056B6
:1069600004EE107A10EE900A4FF00007E1FB00876A
:10697000E2FB6097E3FB60A7E4FB60B712EE900ACE
:10698000E1FB60C7E2FB60E7E3FB6057E4FB6067A5
:1069900004EE908A11EE100A4FF00008E1FB009817
:1069A000E2FB60A8E3FB60B8E4FB60C813EE100AEA
:1069B000E1FB60E8E2FB6058E3FB6068E4FB6078C1
:1069C00005EE109A11EE900A4FF00009E1FB00A9C4
:1069D000E2FB60B9E3FB60C9E4FB60E913EE900AF7
:1069E000E1FB6059E2FB6069E3FB6079E4FB6089ED
:1069F00005EE90AA17EE101A01F110011EC910EE53
:106A0000100A4FF0000AE1FB00BAE2FB60CAE3FBA8
:106A100060EAE4FB605A12EE100AE1FB606AE2FBF6
:106A2000607AE3FB608AE4FB609A06EE10BA10EE2F
:106A3000900A4FF0000BE1FB00CBE2FB60EBE3FBC5
:106A4000605BE4FB606B12EE900AE1FB607BE2FBB3
:106A5000608BE3FB609BE4FB60AB06EE90CA11EE3B
:106A6000100A4FF0000CE1FB00ECE2FB605CE3FB82
:106A7000606CE4FB607C13EE100AE1FB608CE2FBCF
:106A8000609CE3FB60ACE4FB60BC07EE10EA11EE37
:106A9000900A4FF0000EE1FB005EE2FB606EE3FB4C
:106AA000607EE4FB608E13EE900AE1FB609EE2FBE9
:106AB00060AEE3FB60BEE4FB60CE53EC162A17EE3B
:106AC000104A12EB0A0253EB0B0354EB0C0455EB88
:106AD0000E05002040F1000012EB0B0253EB0C03FB
:106AE00054EB0E0455EB0E0546410020474158EB90
:106AF000000859EB0A0940F10000B2EB0E0273F1F5
:106B0000000374F1000475EB0A0576EB0B0677EBD6
:106B10000C0778EB0A0879EB0C0960F10000B5EB83
:106B20000B0576EB0C0677EB0E0778EB0B0879EB91
:106B30000E0960F100005FEAE07C7FEA0C0CDCF1FA
:106B4000000EB2EB0C0273EB0C0374EB0C0475F14A
:106B5000000576F1000677F1000778EB0E0879EB77
:106B60000C0960F100005FEAE07CDCF1000E12EB42
:106B70000C0253EB0C0354EB0C0455F1000556F1D9
:106B8000000657F1000758EB0E0859EB0C0940F1CD
:106B900000005FEAE07CDCF1000E12EB0C0253EB2C
:106BA0000C0354EB0C0455F1000556F1000657F1A7
:106BB000000758EB0E0859EB0C095BEC14AA51ECDA
:106BC000150A1AEB060A5BEB070B50EB080051EBBA
:106BD00009015FF0000C4CF1000C1AEB070A5BEBAB
:106BE000080B50EB090051EB090152EB0C025FF06E
:106BF000000C53EB0C0354EB0C0475414CF1000CEE
:106C0000BAEB090A7BF1000B70F10000B141BA4107
:106C100073EB0803B44175EB08056CF1000CC91B5C
:106C200072EB080273EB0903BC4175EB09056CF1CB
:106C3000000C5FEAEC787FEA0808D8F10009BAEBAB
:106C4000080A7BEB080B70EB080071F1000172F190
:106C5000000273F1000374EB090475EB08056CF195
:106C6000000C5FEAEC78D8F100091AEB080A5BEB3C
:106C7000080B50EB080051F1000152F1000253F1F2
:106C8000000354EB090455EB08054CF1000C5FEAD6
:106C9000EC78D8F100091AEB080A5BEB080B50EB13
:106CA000080051F1000152F1000253F1000354EBCE
:106CB000090455EB080517EE907AA7E8000C87E861
:106CC0003F00BDE8F08F00BF2DE9F00791E8F8071D
:106CD000B2E802105B1854EB0C04B2E802104D410C
:106CE00056EB0C06B2E802104F4158EB0C08B2E824
:106CF000021059EB01095AEB0C0A4FF0260261EB26
:106D0000010122EA01015B1854F1000455F100056C
:106D100056F1000657F1000758F1000859F1000933
:106D20005AF1000A61EB010122EA01010B4480E8FB
:106D3000F807BDE8F00770472DE9F00791E8F8077C
:106D4000B2E802105B1A74EB0C04B2E802108D4139
:106D500076EB0C06B2E802108F4178EB0C08B2E833
:106D6000021079EB01097AEB0C0A4FF0260261EB75
:106D7000010102EA01015B1A74F1000475F10005DA
:106D800076F1000677F1000778F1000879F1000943
:106D90007AF1000A61EB010102EA0101A3EB0103B0
:106DA00080E8F807BDE8F00770470A462DE9F04F84
:106DB00040EC171A92EC080A1EC910EE100AA1FB4B
:106DC00000784FF00009E2FB00894FF0000AE3FB76
:106DD000009A4FF0000BE4FB00AB12EE100A4FF0EC
:106DE000000CE1FB00BC4FF0000EE2FB00CE4FF0C8
:106DF0000005E3FB00E54FF00006E4FB005604EE5F
:106E0000107A10EE900A4FF00007E1FB0087E2FBDA
:106E10006097E3FB60A7E4FB60B712EE900AE1FB2A
:106E200060C7E2FB60E7E3FB6057E4FB606704EEEA
:106E3000908A11EE100A4FF00008E1FB0098E2FB87
:106E400060A8E3FB60B8E4FB60C813EE100AE1FB46
:106E500060E8E2FB6058E3FB6068E4FB607805EE05
:106E6000109A11EE900A4FF00009E1FB00A9E2FB35
:106E700060B9E3FB60C9E4FB60E913EE900AE1FB53
:106E80006059E2FB6069E3FB6079E4FB608905EE31
:106E900090AA17EE101A01F110011EC910EE100A87
:106EA0004FF0000AE1FB00BAE2FB60CAE3FB60EAD4
:106EB000E4FB605A12EE100AE1FB606AE2FB607AC2
:106EC000E3FB608AE4FB609A06EE10BA10EE900ACB
:106ED0004FF0000BE1FB00CBE2FB60EBE3FB605B00
:106EE000E4FB606B12EE900AE1FB607BE2FB608BDF
:106EF000E3FB609BE4FB60AB06EE90CA11EE100A68
:106F00004FF0000CE1FB00ECE2FB605CE3FB606C2B
:106F1000E4FB607C13EE100AE1FB608CE2FB609CFA
:106F2000E3FB60ACE4FB60BC07EE10EA11EE900AF4
:106F30004FF0000EE1FB005EE2FB606EE3FB607E63
:106F4000E4FB608E13EE900AE1FB609EE2FB60AE14
:106F5000E3FB60BEE4FB60CE4FF0260153EC142A45
:106F60004FF00000E6FB0120E7FB613057EC156AAB
:106F7000E8FB6160E9FB617059EC168AEAFB61800D
:106F8000EBFB619017EE10AAECFB61A0EEFB6150E9
:106F900000FB01F0121853F1000356F1000657F1FF
:106FA000000758F1000859F100095AF1000A55F19B
:106FB000000B60EB000021EA0000024417EE900A8B
:106FC00080E8CC0FBDE8F08F2DE9F00791E8F017CD
:106FD0004EF6A1514FEA4101A4FB01234FF00004FA
:106FE000E5FB01344FF00005E6FB01454FF00006DC
:106FF000E7FB01564FF00007E8FB01674FF0000880
:10700000E9FB01784FF00009EAFB01894FF0000A23
:10701000ECFB019A4FF026010AFB01FA12EB0A027F
:1070200053F1000354F1000455F1000556F1000638
:1070300057F1000758F1000859F100096AEB0A0AF4
:1070400021EA0A010A4480E8FC03BDE8F007704722
:107050002DE9F00390E8F8134FEAEC7202F0130206
:107060002CF0004C02F11301591854F1000155F1B4
:10707000000156F1000157F1000158F1000159F1EA
:1070800000015CF100014FEAE17101F013011144CC
:107090005B1854F1000455F1000556F1000657F154
:1070A000000758F1000859F100094CF1000C2CF0D0
:1070B000004C80E8F813BDE8F00370472DE9F05F5D
:1070C0000546002092469B46884606468146402457
:1070D0001BE0284641464746224600F02FF853461B
:1070E0005A46C01A914110D311461846224600F064
:1070F00016F82D1A67EB01084F46224601200021A1
:1071000000F00DF817EB00094E41201EA4F1010418
:10711000DFDC484631462A464346BDE8F09F202A38
:1071200004DB203A00FA02F1002070479140C2F1DE
:10713000200320FA03F3194390407047202A04DB10
:10714000203A21FA02F00021704721FA02F3D040E0
:10715000C2F1200291400843194670470048704729
:10716000D8A7030010B5441A0346944209D28418E4
:10717000114403E011F8013D04F8013D521EF9D21B
:1071800010BD40EA0104A40703D009E010C9121F92
:1071900010C3042AFAD203E011F8014B03F8014BA3
:1071A000521EF9D210BDD2B201E000F8012B491EE7
:1071B000FBD270470022F6E710B513460A46044694
:1071C0001946FFF7F0FF204610BD421C10F8011BC6
:1071D0000029FBD1801A704730B5044600200346D1
:1071E00000E05B1C934203D2E05CCD5C401BF8D016
:1071F00030BD0000064C074D06E0E06840F001039A
:1072000094E8070098471034AC42F6D3FEF7FCFF31
:1072100018C9030038C9030070B58C1810F8015B59
:1072200015F0070301D110F8013B2A1106D110F81F
:10723000012B03E010F8016B01F8016B5B1EF9D123
:107240002B0705D40023521E0DD401F8013BFAE7A9
:1072500010F8013BCB1A921C03E013F8015B01F814
:10726000015B521EF9D5A142D8D3002070BD0000A9
:107270002DE9F0410446B0B00D460A46684604F1D7
:107280002007002100F0C0F804F140083A462146EA
:1072900010A804F16006FFF789FD4146324618A8A0
:1072A000FFF784FD4246394620A8FFF77FFD3246AE
:1072B000214628A8FFF77AFDEB0F20466A4610A961
:1072C00000F034F930B0BDE8F08100BF2DE9F041A5
:1072D0000446B0B00D460A46684604F12007012175
:1072E00000F092F804F140083A46214610A804F153
:1072F0006006FFF75BFD4146324618A8FFF756FDD2
:107300004246394620A8FFF751FD3246214628A8BB
:10731000FFF74CFDEB0F20466A4610A900F006F976
:1073200030B0BDE8F08100BF2DE9F041B0B00446B7
:1073300000F1200768460D4604F1400800F098F877
:1073400004F160063A46214610A8FFF72FFD41469A
:10735000324618A8FFF72AFD4246394620A8FFF713
:1073600025FD3246214628A8FFF720FDEB0F2046D9
:107370006A4610A900F0DAF830B0BDE8F08100BF2D
:1073800070B5A0B0044601F1200668460D46FFF72F
:107390000CFD314608A8FFF708FD05F1400110A8D3
:1073A000FFF703FD10AA11461046FFF78DFC694652
:1073B00018A800F007FC324629462046FFF784FC57
:1073C00021462046FFF7F1FC6A4621462046FFF79A
:1073D000B3FC04F1400508AA21462046FFF7ACFCA7
:1073E000284608AA18A9FFF76FFC10AA294604F13D
:1073F0002000FFF7A1FC08AA18A904F16000FFF71C
:107400009BFC20B070BD00BF2DE9F04102EBE2759E
:1074100085EAE27582B00C460021064600F120079D
:1074200000F0C6FB691EC90F384600F0C1FB0F4BC8
:1074300003EB442440344FF0010885EA0802013A86
:10744000D20F21463046019208F10108FFF730F8CB
:1074500004F12001019A3846FFF72AF8B8F1090F24
:1074600004F14004E9D102B0BDE8F08138C2030064
:107470002DE9F04101EBE176074682B086EAE1763C
:10748000002100F095FB07F12008711EC90F40464E
:1074900000F08EFB0C4D012486EA0402013AD20F63
:1074A0002946384601920134FFF702F805F1200120
:1074B000019A4046FEF7FCFF092C05F14005EBD18F
:1074C00002B0BDE8F08100BF78C60300F0B5D1E995
:1074D00008328E6ACD69144F8DB00C46110F41EA07
:1074E00006114FEA137C1B014CEA021C43EA157398
:1074F0003A460546029104A86946360FCDF804C005
:1075000000930396FFF74AF8009B21461B0704AA45
:1075100028460B93FEF7ACFFEA693946D20F28469E
:10752000FEF7C6FF0DB0F0BD18C203002DE9F04113
:107530000D46A2B01646044620312A4602A81F4630
:1075400006F120080191FFF7F7FB01992A460AA8E6
:10755000FFF7BAFB4146324612A8FFF7EDFB414662
:1075600032461AA8FFF7B0FB3A461AA912A8FFF74D
:107570000AF802A912AA0846FFF718FC0AA91AAAD3
:107580000846FFF713FC4246314612A8FFF70EFCEF
:1075900012A905F160020846FFF708FC12A9084687
:1075A000144AFFF703FC05F1400211461AA8FFF741
:1075B0008BFB02AA0AA92046FFF7BEFB04F12005B7
:1075C00002AA0AA904F16000FFF77EFB40342846B6
:1075D00012AA1AA9FFF7B0FB12AA1AA92046FFF7B0
:1075E00073FB3A4629462046FEF7CDFF22B0BDE8A0
:1075F000F08100BF78C803002DE9F047CC7F91F8F7
:1076000000A0C2B00B4604F03F04D1F80110D3F83B
:1076100009E0D3F80DC0D3F80580D3F81560D3F88E
:107620001950D3F81170CDF8491044F040041146B8
:1076300081462AF0070202A893F81DA09B7FCDF88F
:1076400051E0CDF855C08DF866308DF867408DF863
:107650004820CDF84D80CDF85D60CDF86150CDF873
:1076600059708DF865A000F087FA202202A91AA8A7
:10767000FFF7D2F802A8012100F09AFA0AA8002127
:1076800000F096FA1AA922A82022FFF7C5F82AA826
:10769000012100F08DFA1AAE0DF1480806240025EC
:1076A00016F8017D47FA04F32A4603F001056A4003
:1076B00022A902A80192FEF766FF019A2AA90AA848
:1076C000FEF761FF0AAA02A932A8FFF7FDFA0AAA8B
:1076D000104602A9FFF730FB2AAA22A93AA8FFF711
:1076E000F3FA2AAA104622A9FFF726FB3AA9084670
:1076F0000AAAFFF75BFB2AA9084632AAFFF756FB46
:107700003AAA2AA922A8FFF7DFFA2AA93AAA084624
:10771000FFF712FB22A90846FFF747FB2AA90846F4
:10772000FFF743FB2AA91AAA0846FFF73FFB32A935
:107730000846FFF73AFB0AA93AA8FFF736FB3AAA30
:1077400032A902A8FFF732FB32A93AAA0846FFF78E
:10775000F3FA32A90AA8FFF737FC0AA908463AAAA1
:10776000FFF7B2FA0AA9013C32AA0846FFF71EFB4E
:10777000631C97D146454FF0070491D10AA90846EA
:10778000012200F031FA02A90AAA0846FFF70EFB0F
:1077900002A9484600F03AFB42B0BDE8F08700BFBE
:1077A000014AFFF729BF00BFF4BE030070B500F126
:1077B000200690B00D46044600F05CFB05F1200168
:1077C000304600F057FB214608A8FFF79FF808A9AC
:1077D00008460C4AFFF72EF808A922460846FFF78C
:1077E00096F808A9084A0846FFF724F83146684683
:1077F000FFF78CF8694608A82022FEF7EDFF013854
:1078000010B070BD98C80300B8C803002DE9F0435C
:10781000BBB089468046114612A8514AFEF728FEA1
:107820005049024612A8FEF743FE199E4C4900EA51
:10783000D6760746C6F1010212A8FEF739FE199D59
:107840004A462AA91AA8ED4301F014F8ED0F22A91F
:10785000C5F10102084600F0F1FAC7F10107FE2464
:1078600002AA1AA92AA800F0B9FF62113AAB03EBE9
:10787000820204F01F0152F8A03CCB402A4603F0DC
:1078800001056A402AA91AA80192FEF77CFE019A16
:1078900032A922A8FEF777FE013C2AA91AA800F017
:1078A00037FF631CDCD1C5F101020AA822A900F050
:1078B000C5FA754002AA1AA92AA800F08FFF2AA9C2
:1078C0002A461AA8FEF75FFE2A4632A922A8FEF72A
:1078D0005AFE0AA902AA0846FFF719F80AA908469B
:1078E00000F0E2FA0AA908F1200409F12002084692
:1078F000FFF70DF822A90AAA2046FFF708F80AAAFE
:107900001AA902A8FFF703F802A90846FEF7FEFF2E
:107910001AAA02A90AA8FEF7FAFF214602A8FEF752
:10792000F5FF0AAA02A91046FEF7C3FF0E4A0AA9EC
:1079300002A8FEF7BEFF20462021FEF760FF0AA93D
:107940004342024602A81F43FEF71DFE4046074A77
:1079500002A9FEF7DCFF38463BB0BDE8F08300BF6C
:10796000F8C80300D8C10300B8C80300F8C1030079
:107970000A460149FFF74ABF14BF030000F044BBA9
:1079800038B504460D4600F03FFB05F1200104F137
:107990002000BDE8384000F037BB00BF70B5A8B08C
:1079A00005466846164600F09DFB3146044618A879
:1079B000FFF7FCFE6A46034618A908A81C43FFF718
:1079C00025FF08A904432846FFF7D8FF204628B022
:1079D00070BD00BF30B599B00546684600F082FB27
:1079E0006946044608A8FFF7C3FF08A904432846D0
:1079F000FFF7C6FF204619B030BD00BF10B52022EA
:107A0000B0B004460DEB020000F096FB9DF83F304D
:107A10009DF8202003F07F0343F0400322F007028B
:107A200008A968468DF83F308DF8202000F006FB4D
:107A3000694618A800F028F818A9204600F002F8B6
:107A400030B010BD30B599B004460D4610A8403195
:107A5000012200F0C9F8294610AA6846FFF7A6F9E6
:107A600010AA05F1200108A8FFF7A0F908A92046EF
:107A700000F0CCF9684600F093F8E37F83EAC01089
:107A8000E07719B030BD00BF2DE9F041B0B0E84655
:107A90000446404600F002FB04F140069DF93F1009
:107AA0002046FFF7E5FC3046012100F081F804F1A3
:107AB00020070DF11505214610A8FFF761FC18AA53
:107AC00010A92046FFF772F928AA20A93846FFF727
:107AD0006DF920AA18A93046FFF768F9214610A8C9
:107AE000FFF74EFC18AA10A92046FFF75FF928AA55
:107AF00020A93846FFF75AF920AA18A93046FFF7FF
:107B000055F9214610A8FFF73BFC18AA10A92046FA
:107B1000FFF74CF928AA20A93846FFF747F920AA11
:107B200018A93046FFF742F9214610A8FFF728FCB4
:107B300015F9011D10A8FFF79BFB95F9151010A86A
:107B4000FFF7C4FB95F92A1010A8FFF7EDFB18AA60
:107B500010A92046FFF72AF928AA20A93846FFF7DE
:107B600025F920AA18A93046FFF720F9A845A2D187
:107B700030B0BDE8F08100BF0B6803604B68436024
:107B80008B688360CB68C3600B6903614B69436199
:107B90008B698361CB6923F00043C361704700BFE9
:107BA00010B50446FFF754FA206800F0010010BD3C
:107BB0000023C0E90013C0E90233C0E90433C0E97F
:107BC0000633704730B589B0002400250A4669465F
:107BD000CDE90045CDE90245CDE90445CDE90645AD
:107BE000FFF7AAF809B030BDF0B5A1B00446684669
:107BF00016460D46FFF7D9F8694618A8FFF7D5F8DD
:107C000018A90846FFF7D1F82A4618A908A8FFF7CF
:107C1000CDF86A4608A96846FFF7C8F8694618A86B
:107C2000FFF7C3F808AA104618A9FFF7BFF808A97C
:107C300018A8FFF7BAF818A90846FFF7B6F818A968
:107C40000846FFF7B2F818A90846FFF7AEF818A9DA
:107C50000846FFF7AAF808AA18A91046FFF7A6F8E1
:107C6000022708A900E0012718A8FFF79EF818A925
:107C70000846FFF79AF818A90846FFF796F818A9DA
:107C80000846FFF792F818A90846FFF78EF8012F6B
:107C900018A9E8D110A808AAFFF788F8042710A9A6
:107CA00018A8FFF782F818A90846FFF77EF818A968
:107CB0000846FFF77AF818A90846FFF776F818A9DA
:107CC0000846FFF772F8013F18A9E9D110AA084643
:107CD000FFF76CF8022700E0012718A90846FFF714
:107CE00064F818A90846FFF760F818A90846FFF7D6
:107CF0005CF818A90846FFF758F818A90846FFF7D6
:107D000054F8012FE8D118A908AA10A8FFF74EF8D7
:107D10000A2710A918A8FFF748F818A90846FFF77E
:107D200044F818A90846FFF740F818A90846FFF7D5
:107D30003CF818A90846FFF738F8013F18A9E9D11F
:107D400010AA08A8FFF732F8142708A918A8FFF707
:107D50002CF818A90846FFF728F818A90846FFF7D5
:107D600024F818A90846FFF720F818A90846FFF7D5
:107D70001CF8013F18A9E9D108AA0846FFF716F830
:107D80000A2718A90846FFF710F818A90846FFF7B0
:107D90000CF818A90846FFF708F818A90846FFF7D5
:107DA00004F818A90846FFF700F8013FE9D118A91F
:107DB000084610AAFEF7FAFF18A9084666B9FEF7AA
:107DC000F4FF18A90846FEF7F0FF2A4618A9204636
:107DD000FEF7ECFF21B0F0BDFEF7E7FF18A908465B
:107DE000FEF7E3FF18A90846FEF7DFFF18A90846CB
:107DF000FEF7DBFF18A90846FEF7D7FF6A4618A969
:107E00002046FEF7D3FF21B0F0BD00BF38B50C46C9
:107E100005460846FFF71CF923682B6063686B6012
:107E2000A368AB60E368EB6023692B6163696B61F6
:107E3000A369AB61E369EB6138BD00BF70B588B081
:107E400004460D46684620211646FEF7ECFC00234A
:107E50002946204620220093FEF7DEFC2A4669468A
:107E60006846FEF726FD324669462046FEF78BFB44
:107E700008B070BD0B681BBAC3614B681BBA836145
:107E80008B681BBA4361CB681BBA03610B691BBAD1
:107E9000C3604B691BBA83608B691BBA4360CB69B3
:107EA0001BBA0360704700BF70B598B00C4605461A
:107EB00010A8FEF72BFD224610A96846FEF727FD05
:107EC000694610A8FEF722FD10A90846FEF71EFD20
:107ED0006A4610A908A8FEF71AFD08A910A8FEF71F
:107EE00015FD10A90846FEF711FD10A90846FEF77A
:107EF0000DFD10A90846FEF709FD10A908AA0846BD
:107F0000FEF705FD10A90846FEF700FD10A908467A
:107F1000FEF7FCFC10A96A4608A8FEF7F8FC052647
:107F200008A910A8FEF7F2FC10A90846FEF7EEFC1F
:107F3000013E10A9F5D108AA0846FEF7E8FC05267F
:107F400010A90846FEF7E2FC10A90846FEF7DEFC81
:107F5000013EF5D110A908AA0846FEF7D8FC10A9E1
:107F600008A8FEF7D3FC08A90846FEF7CFFC08A92D
:107F70006A466846FEF7CBFC1026694610A8FEF755
:107F8000C5FC10A90846FEF7C1FC013E10A9F5D1B9
:107F900022460846FEF7BBFC402610A90846FEF71D
:107FA000B5FC10A90846FEF7B1FC013EF5D110A9B9
:107FB0006A460846FEF7ABFC102610A90846FEF7F5
:107FC000A5FC10A90846FEF7A1FC013EF5D110A9B9
:107FD0006A460846FEF79BFC102610A90846FEF7E5
:107FE00095FC10A90846FEF791FC013EF5D110A9B9
:107FF00008AA0846FEF78BFC224610A92846FEF781
:1080000086FC18B070BD00BFCB691BBA03608B69DA
:108010001BBA43604B691BBA83600B691BBAC36010
:10802000CB681BBA03618B681BBA43614B681BBAF0
:1080300083610B681BBAC361704700BFF0B54B0783
:108040008DB01AD1D1E90023D1E90245CDE9002351
:10805000D1E90467D1E90623CDE90245CDE90467FA
:10806000CDE906230022002300246946CDE9082338
:108070000A94FFF72BFA0DB0F0BD4C688A68CB6804
:108080000E694D69019402928C69CA6903930B6869
:108090000093CDE90465CDE90642E3E7F0B400259D
:1080A000471E2C462E46E30814F0070F08BF51F870
:1080B000235005F00F03334403F1080202F47F66F6
:1080C00001349B1B3F2C4FEA121607F8013F4FEA81
:1080D0001515C2F30712E6D12A4480F83F20F0BC00
:1080E000704700BF70B50B68124E1BBAC3614B6876
:1080F0001BBA83618B681BBA4361CB681BBA0361EF
:108100000B691BBAC3604B691BBA83608B691BBACE
:108110004360CB691BBA0360324601460446FEF752
:10812000A7F90546314620462A46FEF7C1F9681EE2
:1081300070BD00BFD8C803002DE9F04F0FF2E80B67
:10814000DBE900AB0FF2E809D9E90089B3B0CDE96A
:1081500000ABCDE902890FF2E00BDBE900AB0FF2D7
:10816000E009D9E90089CDE904ABCDE906890FF230
:10817000D80BDBE900AB0FF2D809D9E90089CDE9CA
:1081800008ABCDE90A890FF2D00BDBE900AB0FF2A7
:10819000D009D9E900890025CDE90CABCDE90E89DC
:1081A0000646319230955AB96F464FF0000C314671
:1081B0003846CDF8C0C000F057F833B0BDE8F08FB6
:1081C0006F4638461446884600F0B0FB241A8446B1
:1081D00044440028E9D0431E022B0FD920F00300AD
:1081E0002044234610AA53F8041B42F8041B834280
:1081F000F9D12CF0030565452C44D8D032AB2B4483
:10820000227803F8882C6B1C9C45D0D932AA1344E1
:108210000235627803F8882CAC45C8D932AB1D44CE
:10822000A37805F8883CC2E708C9BCF367E6096A89
:108230003BA7CA8485AE67BB2BF894FE72F36E3CF5
:10824000F1361D5F3AF54FA5D182E6AD7F520E5152
:108250001F6C3E2B8C68059B6BBD41FBABD9831F0C
:1082600079217E1319CDE05BF0B5D0F8C03004461B
:10827000C218581C8026702883B00D4682F84060D2
:108280006FD804F14001C0F17A03022BC0F17B07E3
:108290000FD900F14003234427F003021A440026BB
:1082A00043F8046B9A42FBD127F00303BB42184406
:1082B00011D0231800227A2883F8402000F101030E
:1082C00009D02344792800F1020683F8402002D027
:1082D000264486F84020D4F8C430580F5A0D84F84C
:1082E000BB0084F8BC20580B5A09DB0084F8BD00A1
:1082F00084F8BE2084F8BF30204600F0A5FCD4E905
:10830000002312BA1BBA6A602B60D4E9022312BAA6
:108310001BBAEA60AB60D4E9042312BA1BBA6A61E3
:108320002B61D4E9062312BA1BBAEA61AB61D4E926
:10833000082312BA1BBA6A622B62D4E90A2312BA62
:108340001BBAEA62AB62D4E90C2312BA1BBA6A63A5
:108350002B63D4E90E2312BA1BBAEA63AB6303B0F2
:10836000F0BD7F2862D8204400227E2B80F8402078
:1083700003F102015AD021447D2B03F1030081F85F
:10838000402053D020447C2B03F1040180F840208E
:108390004CD021447B2B03F1050081F8402045D0CF
:1083A00020447A2B03F1060180F840203ED021447E
:1083B000792B03F1070081F8402037D02044782B37
:1083C00003F1080180F8402030D02144772B03F1DD
:1083D000090081F8402029D02044762B80F84020E5
:1083E00003F10A0122D02144752B03F10B0081F81F
:1083F00040201BD02044742B03F10C0180F8402056
:1084000014D02144732B03F10D0081F840200DD0CE
:108410002044722B03F10E0180F8402006D0214445
:10842000702B81F8402001D184F8BF2004F1400175
:108430002046019100F008FC7A2801997FF623AFCD
:1084400049E700BF2DE9F04F93B0A1F108030C9369
:10845000D2E90EB30D93136B0393536B0493936A9A
:108460000593D36A069393690E93D3690F93936828
:108470000193D368099313690793D2E90876D2E987
:10848000005A53690893034680330A90119300956C
:10849000B44602975646CDF840B008E000990093E4
:1084A0000B9B0996019106460293CC461F460A99FA
:1084B0000C9C059DF4E90289F1E802ABB80BBB0CFA
:1084C0000A910C9440EA8C40039CF90543EA8C33F2
:1084D0001AEB080E83EA000341EA5C214BEB090B1F
:1084E0004B4084EA05094FEA9C304FEA9C414FEA31
:1084F000CC58049D41EA873148EA572840EA874032
:1085000009EA0709069F484085EA07040399009F86
:1085100004EA0C0413EB0E0389EA010984EA05045A
:1085200080EA08003D464FEA17784FEA877E4FEA17
:108530004761019F4BEB000013EB090344EB000084
:10854000B946109C2F4645EA090B079D1B194FEAB7
:1085500016794FEA86740BEA050B49EA07193D467E
:1085600044EA9704019F05EA070A0D9D099F40EB25
:10857000050528460E9D5D1948EA06180B954EEA3A
:10858000960E009D88EA0E0E4FEA466848EAD51816
:1085900041EAD611089D8EEA01014BEA0A0A46EA31
:1085A000070E06EA070B0F9F89EA04040EEA050E80
:1085B000059D156340EB0709079D069F576311EB67
:1085C0000A0A84EA08080399049C9163D4639561BC
:1085D000029F1091C2E90A7C019F1761009F0599D3
:1085E0000391C2E902760B9F069917624EEA0B0EC1
:1085F000029F089D049148EB0E0E0799D5611AEB76
:108600000303CDE9057C099D019F0E914EEB00000F
:1086100008990D940F91C2E900305561C2F8249079
:10862000079708950A99119CA1427FF437AF13B0C0
:10863000BDE8F08F2DE9F04FA0F1080685B00025C8
:10864000AA1E02F00F022B46013500EBC20105F015
:108650000F0450F832E04A6850F83410073B00EB42
:10866000C40403F00F0300EBC3034FEADE474FEAF5
:10867000CE0BD4F804C04BEA527BD3E9004A47EA58
:1086800042374FEA9E13F6E9028987EA0B0743EA6D
:1086900082637B404FEAD24B0393D30014EB080470
:1086A000CDE900894BEA4E3B4FEA112843EA5E7E52
:1086B0004FEA510348EA0C6843EACC738BEA0E0E8A
:1086C0004FEA5C094FEA1C2B83EA080349EAC179A7
:1086D0004FEAD1184BEA016B019F039948EA4C68B5
:1086E0004AEB070A8EEA9212611883EA080389EAC4
:1086F0000B044AEB020284EADC1CC91842EB0C02B0
:10870000102DC6E900129BD105B0BDE8F08F00BF67
:10871000F0B599B004460D460A4601466846FEF794
:10872000C8F869466846FEF7F1F821466A4608A887
:1087300005F1200604F12007FEF7E9F86A4629460C
:108740006846FEF7E4F83946324610A8FEF772F89C
:10875000324639463046FEF7ACF831462846FEF739
:10876000D5F86A4608A92046FEF764F8224629464D
:108770002846FEF79EF86A4608A96846FEF799F86B
:108780006A4639463846FEF7C2F82A4608A96846BE
:10879000FEF78FF86A4631463046FEF7B8F83A469B
:1087A00031463046FEF785F810A96846FEF7AEF868
:1087B000224669462046FEF77CF808A9224608466C
:1087C000FEF777F810A908AA0846FEF7A0F83A467F
:1087D00010A93846FEF76DF819B0F0BD2DE9F0414B
:1087E0000C4688B005469046014622466846FEF78C
:1087F00060F869466846FEF789F86A4629462846C1
:1088000004F12006FEF783F805F120076A462146A9
:108810006846FEF77CF8324630463946FEF749F89E
:1088200031462046FEF772F82A4621462046FEF7DA
:1088300040F86A4621462046FEF73BF86A4629463C
:108840004046FEF736F8424639463846FEF75FF8AE
:10885000224629466846FEF72CF86A4631463046DD
:10886000FEF755F83A4631463046FEF722F808B092
:10887000BDE8F0812DE9F04188B00C46064602F1D2
:108880002001684606F120079046FEF73FF86A4649
:1088900069466846FDF7CEFF38466946FEF736F86A
:1088A0003A463946384604F12005FDF7C3FF6A46CB
:1088B00069466846FDF7BEFF28464146FEF726F8A2
:1088C0006A4641463046FEF722F82A46294668465F
:1088D000FDF7B0FF2A4669466846FDF7ABFF124A2E
:1088E00069466846FDF7A6FF69462046FEF70EF882
:1088F000324621462046FDF7DCFF3246214620461F
:10890000FDF7D7FF224631462846FDF7D2FF6A46DB
:1089100029462846FDF7FBFF3A4629462846FDF73B
:10892000C8FF08B0BDE8F08198C803002DE9F04FFA
:10893000BDB07F2A0B9240F279818246A2F1800479
:10894000DAF818300193DAF81C300293DAF82030A4
:108950000393DAF824300493DAE90AB3D0E900206B
:10896000DAE9046524F07F0489468034DAE90217E5
:108970004C440593DAE90D8EDAF8303006930A9408
:10898000DAF83C30CDF81CB014462A463D4617466E
:10899000D9F80C200C94D9F8084008940D90119740
:1089A000D9F81400099017BA089A109616BA099ABD
:1089B0000F9515BA019A1292029A1392039A149281
:1089C000049A1592079A1692059A1792069AD9F860
:1089D00004B0D9F800C0D9F81040D9F81C000E91A5
:1089E000D9F81810CDE91828CDE91AE3D9F848309C
:1089F0000193D9F854300293D9F850300393D9F841
:108A00005C300493D9F858300593019BD9F8208045
:108A1000D9F82CE0D9F84C209BFA8BFB9CFA8CFC03
:108A200024BA00BA09BA1BBACDE91CBCCDE91E763E
:108A3000D9F824B0D9F828C0D9F83470D9F8306002
:108A4000CDE92054CDE92201D9F83C50D9F838407D
:108A5000D9F84400D9F840102F93029B1BBA3093E9
:108A6000039B1BBA3193049B1BBA3293059B98FA64
:108A700088F89EFA8EFE9CFA8CFC3FBA36BA2DBA64
:108A800024BA1BBA9BFA8BFBCDE926ECCDE92876FC
:108A9000D9F860E0D9F86CC0D9F86870D9F874607A
:108AA0003393CDE92A54D9F87830D9F87050D9F8F1
:108AB0007C40CDE924B8D9F8648000BA09BA12BA6A
:108AC0009EFA8EFE9CFA8CFC1BBACDE92C012E92EC
:108AD0001CA90CAA574898FA88F83FBA36BA2DBA9A
:108AE00024BACDE9348ECDE936C7CDE93865CDE974
:108AF0003A43FFF7A7FC1CA8FFF79CFD0CAA1CA992
:108B00004D48FFF79FFC1CA8FFF794FD0CAA1CA979
:108B10004A48FFF797FC1CA8FFF78CFD0CAA1CA97C
:108B20004748FFF78FFC1CA8FFF784FD45480CAAB7
:108B30001CA9FFF787FCDDE90C40DAF80020DAF821
:108B400008300E99119F1419DAF80420CAF8004071
:108B5000DAE9035642EB000059180F9BDAF824209B
:108B600043EB0505109BF618DAF8143043EB0707C2
:108B7000DAF81830CAF814709C46129B1CEB0303F9
:108B80000193DAF81C309C46139B4CEB030CDAF88B
:108B90002030CDF808C09C46149B1CEB030C159BA1
:108BA000CDF80CC043EB0202019B0492CAE901011B
:108BB000CAE90356CAF81830029BCAF81C30CAE941
:108BC00008C2169BDAF82820D3180793179ACAF818
:108BD0002830DAF82C3053410593189ACAF82C3013
:108BE000DAF830309B180693199ACAF83030DAF860
:108BF000343043EB0208DAF838201B9BCAF8348083
:108C000094461A9A1CEB020EDAF83C2042EB03035E
:108C10000A9A09F180099145CAE90EE37FF4B8AEDA
:108C20000B9B03F07F003DB0BDE8F08F10463DB0D8
:108C3000BDE8F08F58BF0300D8BF030058C0030041
:108C4000D8C0030058C103002DE9F041D1F804C099
:108C50000D68CC688A684B690F69CE69B0B08046F0
:108C60009CFA8CFC2DBA24BA12BA1BBACDE910C5F5
:108C7000CDE913231294D8E90223D8E900453FBA7D
:108C800036BACDE91576CDE90045D8E90467D8E9CB
:108C90000645CDE90223D8E90823CDE90467CDE9EB
:108CA0000645D8E90A67D8E90C45CDE90823886963
:108CB000D8E90E2300BACDE90A67CDE90C45179033
:108CC000CDE90E23CF6A8E6A4D6B0C6BC86B8A6B35
:108CD0004B6CD1F824E0D1F820C03FBA36BA2DBA97
:108CE00024BA00BA12BA1BBA1A971B960F6CCE6C34
:108CF0001C951D948D6C4C6D1E901F92086DCA6D55
:108D000020938B6D9EFA8EFE9CFA8CFC3FBA36BA8D
:108D10002DBA24BA00BA12BA1BBACDE92176CDE930
:108D20002354CDE92502CDE918EC2793D1F864E06E
:108D3000486FCA6F534CD1F860C0CF6E8E6E0D6F06
:108D40008B6F00BA11BA9EFA8EFE9CFA8CFC1BBA8D
:108D50006A462C902E91204610A93FBA36BA2DBAF9
:108D60002F93CDE928ECCDE92A762D95FFF76AFB04
:108D700010A8FFF75FFC6A4610A904F18000FFF716
:108D800061FB10A8FFF756FC6A4610A904F5807035
:108D9000FFF758FB10A8FFF74DFC6A4610A904F531
:108DA000C070FFF74FFB10A8FFF744FC6A4610A9FC
:108DB00004F50070FFF746FBD8F80000009DD8F8D6
:108DC0000410019ED8F80830029CD8F80C20D8F87E
:108DD0001070401946EB0101039DC8F8000004988B
:108DE000C8F804101B190599D8F81440D8F8186071
:108DF000C8F8083045EB0202069B079DC8F80C2016
:108E00003F1844EB0101D8F81C00089AC8F810700C
:108E1000D8F82070C8F81410F6180999D8F824303A
:108E2000C8F8186045EB0000BA1841EB0303C8E925
:108E30000702C8F82430D8E90A01DDE90A56D8F853
:108E400030300C9CD8F83420D8F83870401946EBF4
:108E500001010D9DC8F828000E98C8F82C101B19A8
:108E60000F99D8F83C40C8F8303045EB020238186A
:108E7000C8E90D2044EB01010020C8F83C1030B0D7
:108E8000BDE8F08158BF03002DE9F8430025DFF865
:108E900094804FF4807601242F460095304608F0E8
:108EA00001FE38B1D8F80403204203D0304608F060
:108EB000EFFD2543361D64007F1CB6B2082FEDD3AD
:108EC0004FF4BE74204608F0EDFD48B1204608F08E
:108ED000DFFD45F000456A460121002008F0A8FDAD
:108EE00015F0FF0F16D0012600242E420ED008EBFD
:108EF0008401D1F81005D1F81015C0F304200A4AF6
:108F0000C1F3014152F8242002B190477600641C5D
:108F1000082CEAD3002D02DA68460CF011FCBDE8FB
:108F2000F883000000600040143200202DE9FF5F4C
:108F30004FF48274204609F045F948B1022009F047
:108F400051F928B1204609F045F9022009F040FF07
:108F50004FF48C7009F036F9DFF88491614F624E5E
:108F6000624C4FF000084FF4947A4FF4867B78B34C
:108F7000402009F037F958B34FF48C7009F02AF902
:108F8000B069CDE90008D9F80000039054481430C6
:108F900000685546C0F30B001038C0F3CC000290B7
:108FA000504609F00FF960B1381509F01BF940B1CE
:108FB000386800F00D000190284609F00BF90D20EB
:108FC0003860616809B168468847584609F002F977
:108FD0004FF4887009F0F6F8A0B1102009F002F9FA
:108FE00080B14FF4887009F0F5F806F128000FC839
:108FF0008DE80F003E491820C1F80803616809B1E7
:10900000684688474FF4A67009F0DCF8354D083DF6
:1090100028B34FF4002009F0E5F800B34FF4A67030
:1090200009F0D8F84FF48C7009F0D4F8504609F0E4
:10903000D1F8584609F0CEF84FF4887009F0CAF814
:10904000002009F039FF0D203860286006F1380053
:109050000FC88DE80F00616809B1684688474FF472
:109060008E7A504609F0AEF8C0B1802009F0BAF807
:10907000A0B12F68504609F0ADF8483696E80F00C9
:109080008DE80F00F80707D0012028608DF80480D4
:10909000616809B1684688470D2028605D465846DA
:1090A00009F090F8002819D0082009F09BF8002852
:1090B00014D0284609F08EF8616800290ED00820E7
:1090C0000090D9F80000029005480C30006840F28A
:1090D000FF1202EAD000019068468847BDE8FF9F72
:1090E000105500400C5400403C80030070320020BA
:1090F0000050004070B54FF48076304607F042FCD7
:10910000114CB50560B1304607F043FC0120C5F8AD
:109110000803607920B90120607121680020884728
:109120004FF48276304607F02DFC00280AD03046F6
:1091300007F02FFC0220C5F808032168BDE8704045
:109140000120084770BD0000D0230020064882B0EF
:109150000021016000680090044800680449C0B222
:10916000496802B00847000000D1004008D500401F
:10917000EC23002002490248091F096800680847DB
:109180003824002009F05ABBF0B5A449A4484FF098
:1091900080540B68D4F830210078D4F83411551C71
:1091A000C0F3031006D0944601270026BCF1060F39
:1091B00003D00AE003F0FF0CF6E7B4F82453DFF81D
:1091C00064C2C5F30425CCF80050DDB2062D06D1EB
:1091D000032804D1DFF854C2934DCCF87450551CC9
:1091E00004D09446BCF1060F03D00AE003F0FF0C54
:1091F000F8E7D4F84452DFF838C2C5F34235CCF86A
:109200000050DDB2062D08D1032806D1894DD5F8CE
:1092100000C02CF0807CC5F800C0551C04D09446DA
:10922000BCF1060F03D00BE003F0FF0CF8E74FF0A2
:109230008045C5F80C61C5F810617D4D2D1F2E606D
:10924000DDB2062D08D1032806D1DFF8E4C10325DD
:109250000CF1640CCCF80050DDB2062D10D10328BF
:109260000ED1DFF8D4C10525CCF80050724D783509
:109270002F60714D08352E600CF104063F253560D6
:10928000551C04D016460D46062E03D05BE0DEB218
:109290000546F9E7ED1E012D55D9684D2D68684E3C
:1092A0003560664D2D1D2D68361D3560634D0835C2
:1092B0002D68361D3560614D0C352D68361D3560C5
:1092C0005E4D10352D68361D35605C4D14352D68AA
:1092D000361D3560594D18352D68594E203635608C
:1092E000564D1C352D68361D3560544D20352D6882
:1092F000361D3560514D24352D68361D35604F4D76
:1093000028352D68361D35604C4D2C352D68361DA1
:1093100035604A4D30352D68494E40363560474DF1
:1093200034352D68361D3560444D38352D68361D71
:109330003560424D3C352D68361D35603F4D40351A
:109340002D68361D3560551C03D01646062E02D0FA
:1093500007E0DEB2FAE7D4F858523A4E05F04F056E
:109360003560551C03D01346062B02D008E0DBB253
:10937000FAE735480368DB0702D06FF001030360AA
:10938000062A07D1C91E022904D93048016841F4D0
:109390008061016027487438016841F47001016000
:1093A000BFF34F8FBFF36F8FD4E94C104FF01022F3
:1093B000062907D1C01E032804D9D2F808021C4987
:1093C0001C310860D2F80002002803DBD2F8040246
:1093D00000281FDA01200AF077FA1521C2F80012DE
:1093E0001B480368002BFCD0C2F804120168002956
:1093F000FCD000200AF068FABFF34F8F0D48F03818
:109400000168144A01F4E06111430160BFF34F8F1A
:1094100000BFFDE7114910480860F0BDE00F00F003
:10942000E80F00F0403501400DF0ADBA00C0074034
:109430003C050040FCED00E0105600400404001024
:1094400020C50040E40E0040000400403C170040EE
:1094500000E401400400FA050090D0032C25002010
:109460002DE9F047104E062700244FF4A0784FF462
:10947000803900BF08EB840509FA04F0715961B125
:10948000D6F80413014208D02946304609F09CFA68
:109490000648D0E9002128469047641CE4B2BC424B
:1094A000E8D3BDE8F087000000B001408032002022
:1094B0000148006800470000E4230020002809DB81
:1094C00000F01F02012191404009800000F1E020DE
:1094D000C0F88012704702E008C8121F08C1002AB5
:1094E000FAD170477047002001E001C1121F002A25
:1094F000FBD170470121202803DA81400548014053
:1095000003E0402802DA2038814009B10120704789
:1095100000207047FC06FFBD2DE9F843804643F26A
:10952000020659B969460BF0C1FAB04202D008B13F
:1095300000F0EEF99DF80000800744D40021404679
:109540000BF0BEFA05003ED0112D3CD01F4820493B
:10955000401AC708022000EB07440D2D0AD00B2D3E
:109560001DD0B5421FD11B4920464246BDE8F843F5
:1095700008F0A4BC20464246174908F09FFC13217E
:10958000404676DF00281ED009F014FA024601B0EA
:1095900020464346BDE8F04310A108F096BC2046A3
:1095A00042461C49E2E7284609F004FA0246012037
:1095B00000EB0740434618A108F087FC2846BDE8A9
:1095C000F84300F0A5B9BDE8F883000090C9030096
:1095D00050C9030080B003000CB0030073645F62E5
:1095E0006C655F6761705F646973636F6E6E6563FE
:1095F0007428292072657475726E65642025732045
:109600006F6E20636F6E6E5F68616E646C6520259F
:10961000642E0000CCB00300417373657274696EF0
:10962000672E20706D5F636F6E6E5F73656375721A
:109630006528292072657475726E65642025732013
:109640006F6E20636F6E6E5F68616E646C6520255F
:10965000642E000010B560B159B102780B78520841
:10966000B2EB530F05D10622401C491CFDF7B4FD97
:1096700008B1002010BD012010BD800701D00020DE
:10968000704701207047C3688B4206D811440069B7
:10969000491E814201D8012070470020704790F890
:1096A0002400012801D01F207047EE20704710B51C
:1096B00001220221002001F059FE08B1072810D133
:1096C00007220221012001F051FE08B1072808D12C
:1096D00000210A22084601F049FE08B1072800D1FE
:1096E000002010BD70B58CB015460E4600236C46A8
:1096F000C3F10F01415CE1545B1C102BF8D30D2129
:1097000004F11000FDF756FD0020C0F10F02315C9E
:109710002244401C11740328F7D3684646DF00201A
:10972000C0F10F01214491F820102954401C032856
:10973000F6D30CB070BD000070B5254CA0421ED110
:10974000F1B1012936D0022928D0032917D10720E9
:1097500005F0EEFD002812D194F8680094F8691025
:1097600088420CD194F86A00002808D10023D4E97B
:1097700001501A460321A847012084F86A0070BDF1
:10978000052005F0D5FD0028F9D1A0686468002304
:10979000A446BDE870401A460121604710461900F2
:1097A000EDD00028EBD00278302AE8D1BDE8704037
:1097B00005F0DEBD082005F0BBFD28B9A068002338
:1097C00064681A460221A047BDE8704005F084BED7
:1097D000F83B0020022001F0D3BC00000149C97809
:1097E00000F05EBF4C23002070B50024064D06E05B
:1097F0006868012110F8340009F080F9641C2878A9
:109800008442F5D3002070BDF8230020F8B5164639
:109810000C4605460A2A01D20720F8BD09F068FA6D
:1098200018B909F02BFA0028F7D1134F102113486B
:109830007D603C70BE60FDF7BDFC0020C7E9040000
:109840000F4E0DE005EBC4003168009181788DF872
:10985000011000780B4A694609F0A0F90028DCD114
:10986000641EE4B2EED2BDE8F84005480021064A85
:10987000001D00F05FB80000F82300200033002036
:109880009C800300C9D2020035C0020072B608F005
:10989000BBFB00BF08F0F2F90028FBD111481249C8
:1098A000401AC408012000EB044010A108F002FB9C
:1098B00011480068C00700D000BE022000EB044041
:1098C0000EA108F0F7FABFF34F8F0B48E438016898
:1098D0000E4A01F4E06111430160BFF34F8F00BFF6
:1098E000FDE7000030CA030050C9030046617461FF
:1098F0006C206572726F7200F0ED00E05379737442
:10990000656D207265736574000000000400FA053F
:109910000EB500210091CDE901106A4644F2010024
:10992000FFF7B4FF0EBD0000014802F0EABB0000E3
:10993000182400203AB100680129426100D00021BA
:1099400001610020704707207047000038B51148BA
:1099500008235822416800910F49006806F0E3FB94
:10996000002815D10D4A69460D4802F0CFFB0400CE
:109970000ED101210A4802F044FC0123094A19468C
:10998000074802F096FB0649012008390870204676
:1099900038BD0000A480030020330020F15E0300E6
:1099A00018240020FFFF7F0070B50446007F0D469D
:1099B00008B1002070BDA26103F06CFC401941F1B8
:1099C0000001C4E90201206900B125612146BDE81A
:1099D000704000200DF0E8BB014600200877012010
:1099E0000DF0E2BB30B5EFF3108172B60D4A94680A
:1099F000012324B10370002900D162B630BD936009
:109A00004FF0E023D3F88051074C25401560C3F890
:109A10008041D3F8844154605A17C3F8842100224E
:109A20000270E8E778330020FC06FFBD0B498A6826
:109A3000002A11D000280FD1EFF3108072B60B6806
:109A40004FF0E022C2F800314B68C2F80431002226
:109A50008A60002800D162B6704700007833002089
:109A600010B5144C00224FF400412068FFF79CFF12
:109A700008B1FFF74DFF00224FF480416068FFF707
:109A800093FF08B1FFF744FF002241F23331A06891
:109A9000FFF78AFF08B1FFF73BFF00224FF4A03128
:109AA000E068FFF781FF002803D0BDE81040FFF712
:109AB0002FBF10BDA07D03002DE9F04106460868C8
:109AC0000C46411C4FF0A0474FF0010506D005FAA7
:109AD00000F1C7F80815206807F084FF6068411C92
:109AE00002D0002107F06CFF3168A069C1F824059D
:109AF000607D227D31681043C1F86C05D4E9001205
:109B00003068C0F81425C0F80C15207D012815D147
:109B1000A068411C02D0002107F052FFE068411C00
:109B200005D08540C7F80855E06807F05BFFD4E929
:109B300002123068C0F80825C0F81015BDE8F081A1
:109B40002DE9F041064608680C46411C4FF0A0473D
:109B50004FF0010506D005FA00F1C7F80815206896
:109B600007F04AFF6068411C02D0002107F031FF76
:109B70003168A069C1F82405607D217D3268084301
:109B8000C2F86C05D4E900123068C0F80C15C0F8B2
:109B90001425207D012815D1A068411C02D0002188
:109BA00007F017FFE068411C05D08540C7F808554D
:109BB000E06807F021FFD4E902123068C0F80825F8
:109BC000C0F81015BDE8F08104F0A2B92DE9F04706
:109BD000814605884A484FF000088AB0017842461D
:109BE000284600F075FD99F80500400701D40021D2
:109BF00076E005F58077B8B205AB012207210AF0BF
:109C0000D7FB04003F48404A4FF00101A0EB02009F
:109C10004FEAD00001EB00460AD0204608F0CAFE09
:109C2000024630462B46394908F04FF9214629E0D3
:109C3000284603F065FE4FF6FF71044688422BD19B
:109C40008A46069803F0C6FD0446504510D00146EA
:109C5000284603F035FE2846FFF7C0FDE0B9284648
:109C60000CF024FC2846FFF7B9FD0028BFD013E014
:109C70000AF074FD0446504508D1304624A108F08E
:109C800019F9042128460CF03FFCB0E701462846AC
:109C900003F016FE4FF00108B8B2224607210AF081
:109CA000FFFB07001BD0862F1ED008F083FE024664
:109CB00030462B462349009408F00FF939462846D0
:109CC0000CF022FC002148460AF06AFAB8F1000FB5
:109CD00002D0204603F0FEFD0AB0BDE8F087012166
:109CE00048460AF05DFAF7E7142217496846FDF77F
:109CF00039FAADF80250684602F0B4FCEFE7000014
:109D00004C23002098C9030050C90300C8B30300C6
:109D1000436F756C64206E6F7420616C6C6F63614F
:109D20007465206E657720706565725F6964206672
:109D30006F7220696E636F6D696E6720626F6E640B
:109D40002E000000E4B403001C7F030070B504463D
:109D500090B0087B0D468DF83800202105A8FDF74E
:109D600029FA42F61920ADF814000120ADF81800C8
:109D7000ADF81A000EA80790617C9DF82100A21D85
:109D800061F3041040F002008DF82100A87B8DF8EB
:109D90002700687B8DF82500A08805A901F06AFDE1
:109DA00000281CD1A968E1B10FA801F0FAF8064615
:109DB00014216846FDF7FEF942F60810ADF80000E0
:109DC000E87B8DF806000FA8ADF80A60ADF80E60CC
:109DD0000490E08804F10E02694602F0D5F810B054
:109DE00070BD0020E081FAE710B50D490D480CF078
:109DF00002FCC1B24FF6FE720B4800F0F9FA0028DF
:109E00000DD008280BD0132809D0112807D043F211
:109E10000141884203D0BDE81040FFF779BD10BD75
:109E2000B82A002058220020002600200A460146B9
:109E30001046AEDF70472DE9FC470025178806461F
:109E4000158090F82D001446894630B13A462146D7
:109E5000484600F063FC051E09D1B0784FF00C0AAB
:109E600018B32088C846001DB84202D95046BDE844
:109E7000FC87684679DF0028F9D12088032108F89B
:109E8000001020881921401C80B2208008F80010A2
:109E90002088401C80B2208000EB0801BDF8000043
:109EA0000DF0B3FB218808442080F0780222C8B16D
:109EB000218896F9033001F1030C4846BC45D5D8FA
:109EC000425421884FF0010C491C89B2218000F8CE
:109ED00001C02188491C89B2218009F801302088FD
:109EE000401C20807068B8B1218890F9003001F1E1
:109EF000030C4846BC45B9D8425421880A22491C63
:109F000089B2218042542188491C89B2218009F8F4
:109F100001302088401C2080308950B1CDE90047B5
:109F20004B460622022106F108000DF05DFC051EDD
:109F30009DD1308A50B1CDE900474B46072203211D
:109F400006F110000DF050FC051E90D1308B50B181
:109F5000CDE900474B461522142106F118000DF0FB
:109F600043FC051E83D1306A30B13B462246494648
:109F700001F049FE051EDBD1706A30B13B46224636
:109F8000494604F0F1F9051ED2D196F82C0038B1FB
:109F90003B462246494630460CF062FC051EC7D1BE
:109FA000307838B13B4622464946304605F002F942
:109FB000051EBDD128465AE718B504460020ADF865
:109FC000000013466A46204600F006F8002802D03A
:109FD000BDF80000204418BD70B5E0B1DAB100242E
:109FE00002E0045D2C44A4B2651C8D4206D21688A2
:109FF000A642F6D8061976789E42F2D18C420AD251
:10A00000A31C005D9BB200B1401E0004000C02D0F6
:10A010001C188C4201D9002070BD138070BD80F8DF
:10A02000301070472DE9F0410D00044606D02CB1E8
:10A0300095F87A000026012803D006E00E20BDE83E
:10A04000F08195F89800012829D0D5F8A0000428BF
:10A0500025D0D5F89C00042821D04FF00108A67027
:10A060002C2205F17801201DFDF77CF884F8306082
:10A07000D5F8A4006063D5F8A800A0634FF6FF7080
:10A08000A4F8240404F58260C4F82004C4F826640B
:10A09000A4F82A6484F82C64207810B104E0072026
:10A0A000CDE7FF2084F8540004F155072046C4F89A
:10A0B0001074FFF7F4FAA4F8140404F214423946B9
:10A0C0002846FFF7B8FE0028B9D104F23120C4F8C1
:10A0D00018042046FFF7E3FAA4F81C0404F21C421B
:10A0E00005F13C00D4F81814FFF7A5FE0028A6D10E
:10A0F00084F85180208BA4F8480084F83C802664C2
:10A1000084F85060606900216064454604F13C02B7
:10A11000781E72DF002892D1257090E710B5028872
:10A12000102A1BD0112A20D0262A1DD1007A0C46D5
:10A13000012801D0022817D1A0780521401CB0FBCE
:10A14000F1F201FB1201204600F03AF800280BD092
:10A15000A16B002908D0BDE810400847C27B012A46
:10A1600002D18088A1F8240410BD0C46002184F897
:10A170002E148088B4F824148842F5D12079002860
:10A18000F2D10121DFE710B5044690F8540074DFE6
:10A19000012084F82E04002084F8300484F8500054
:10A1A0000621204602F097FC002808D1A17820461D
:10A1B00000F006F810B1A16B01B18847002010BD76
:10A1C0002DE9F05F044600780F4698B1A77000258E
:10A1D000C4F82654A4F82A5484F82C54A0790126F3
:10A1E00008B1012F09D0E07980B1012F05D0022FED
:10A1F00003D00BE00820BDE8F09F616B21B184F82B
:10A200002D640820884701E084F82D5404F227418A
:10A2100000200A5C0AB1304603E0401C0628F8D34F
:10A2200000204FF002084FF0030B012F06D0022F41
:10A230000CD0032F0FD0042F15D110E0A17929B134
:10A2400094F8241011B908B130460DE0E17911B14C
:10A2500008B1404608E0207A08B1584604E0607A28
:10A2600008B1042000E02846A070616B41B10328CA
:10A2700001D0042804D1607910B194F82E0498B16B
:10A2800084F82F5404F13C0018210746FCF792FF94
:10A2900084F83C6004F12C000AF05CFB58B194F89F
:10A2A0002C0084F8510008E084F8305484F82F64BE
:10A2B00007208847E6E784F8516094F8240058B1F5
:10A2C00004F128000AF046FB20B194F8280084F835
:10A2D000520001E084F8526084F85050A27804F2F1
:10A2E000264104F582694FF0060A052A64D2DFE8A8
:10A2F00002F07C030F22420084F83160C4F820543D
:10A30000C4E9101584F83C808020A4F8480055E08A
:10A3100084F8318094F82420384612B10722027064
:10A3200001E080F800B0228A8281C4F820544160A4
:10A33000E168B96042E06069B860208BB88194F848
:10A3400024003D460028204602D084F83CA001E0CD
:10A3500084F83C600DF014FA50B185F814800421A3
:10A36000204602F0B8FB38BB052184F8311021E00B
:10A3700084F831B01EE0E069B860208CB88194F8B0
:10A3800024003D460028204602D084F83CA001E08D
:10A3900084F83C600DF0F4F948B185F8148004218C
:10A3A000204602F098FB38B984F831A002E004207E
:10A3B00084F83100C4F82094A07878B13A4604F1CA
:10A3C0005400D4F8201472DF00287FF414AF94F8FE
:10A3D000301094F8540073DF0028F6D1616B11B18E
:10A3E00094F831008847002005E784F83150F5E7FC
:10A3F000F7B594B0174605003CD0287C9DF8541062
:10A400000024884252D000264FF0010E0D9615A868
:10A41000ADF834E00E90ADF83660E9880DAA4FF63D
:10A42000FF70ACDF040026D19DF854002874687CCE
:10A43000A0B30F96109611961296E888ADF83C00DE
:10A44000BDF83600ADF840000DA811900E9812909E
:10A45000A7F57F408DF83EE0FE3805D039460FA8BD
:10A46000FFF7E4FC044621E0684600F09DF8002573
:10A470006F460FE00E2017B0F0BD00BF07EB45069A
:10A48000B08800F0EFF8022803D144B10FA9B088DA
:10A49000AEDF6D1C0098A842F0D807E005E0B18857
:10A4A0000FA8FFF7C3FC0446F3E708242046E2E7C1
:10A4B00038B50D46040018D0BDB128682060287951
:10A4C0006074FF20207401208DF8020041F60F0017
:10A4D000ADF80000221D69460120A8DF002803D145
:10A4E00029462046FFF732FC38BD0E2038BD38B56E
:10A4F000002924D0002822D00288502A1FD10546E6
:10A50000487C0C4600281AD0E9886289A81D91422F
:10A5100015D14189022912D1216800290FD00C30B0
:10A5200000F03BFD08B1002000E001208DF80000A4
:10A53000A888ADF80200226869462046904738BDD9
:10A5400070B5040012D001461C221448FCF70AFE24
:10A550001248134D0560206850B17ADF002806D1FB
:10A560002068016829604068686005E00E2070BDC1
:10A570000B487BDF0028FAD108484FF6FF711438EA
:10A58000084A20F8041B0549343901600021FFF70F
:10A59000D1F90028EBD0032070BD00008C2B0020E7
:10A5A00094220020197703000149496801F00CBB8F
:10A5B000A82B002010B5044600F0A6F8002805D00E
:10A5C0002146BDE81040024805F02CBE10BD000039
:10A5D000B82B002070B515460E4604460DF0DCF889
:10A5E000002809D0054800EB8400C0692A4631469E
:10A5F000BDE8704002F09CBA70BD0000A82B00209E
:10A6000010B5044600F080F8002805D02146BDE8CA
:10A610001040024805F006BE10BD0000C02B00200F
:10A6200010B5044600F070F8002805D02146BDE8BA
:10A630001040024805F0F6BD10BD0000BC2B002004
:10A6400070B50546002400F05FF838B1294604488B
:10A6500005F0E8FD08B1022400E00124204670BDA9
:10A66000B42B002070B50546002400F04DF838B139
:10A670002946044805F0D6FD08B1022400E0012473
:10A68000204670BDB02B002010B51821034805F0FE
:10A69000A4FD182800D0C0B210BD0000A82B0020D7
:10A6A00070B505460C4608460DF076F860B12846B0
:10A6B00000F02AF840B10548294600EB8400BDE8C7
:10A6C00070401C3005F0AEBD002070BDA82B0020EE
:10A6D00070B5054616460C4608460DF05DF8002894
:10A6E0000ED0284600F010F8002809D00548324660
:10A6F00000EB84002946BDE870401C3002F0E6B94A
:10A7000070BD0000A82B0020142801D30020704742
:10A710000146014805F086BDAC2B00207CB50546FE
:10A7200008880C460930904201D90C207CBD68464F
:10A730006DDF0028FAD121880820685420881B2169
:10A74000401C80B2208029542088401C80B2208088
:10A750002844DDF801100160BDF8051081802088D3
:10A76000801D80B220809DF80010490800D0012192
:10A7700029542088401C208000207CBD1FB5044641
:10A7800001208DF8060041F60A00ADF80400494AA0
:10A7900001A90120A8DF00287DD122885AB14548AF
:10A7A000801C009094F83C3042F62920616801F04A
:10A7B00031F800287BD122895AB13E480A300090F6
:10A7C00094F83C3042F62420E16801F023F8002898
:10A7D0006DD1228A5AB137481230009094F83C303B
:10A7E00042F62520616901F015F800285FD1228B1F
:10A7F0005AB130481A30009094F83C3042F6272085
:10A80000E16901F007F8002851D1228C5AB129489A
:10A810002230009094F83C3042F62620616A00F025
:10A82000F9FF002843D1228D5AB122482A300090E6
:10A8300094F83C3042F62820E16A00F0EBFF002853
:10A8400035D1216B79B102A80CF024FC19480822FB
:10A850003230009094F83C3002A942F6232000F0F8
:10A86000D9FF002823D1606B60B112493A310091C1
:10A870000279016894F83C3042F62A2000F0CAFFC1
:10A88000002814D1A16B89B102A80AF03EFF094843
:10A890004230009000E00AE094F83C30072202A920
:10A8A00042F6502000F0B6FF002800D1002004B08E
:10A8B00010BD000066230020F8B5054603883E4819
:10A8C0003E4A0321801AC00801EB00441A2B5ED0D7
:10A8D0000FDC3B4E102B20D0112B33D0192B4ED137
:10A8E0002A7A2046002A61D0BDE8F84035A107F059
:10A8F000E5BA3249304A0420511AC90800EB014038
:10A90000212B30D03B2B3BD0562B38D136A107F032
:10A91000D1FAA888132176DF0EE0204638A107F08F
:10A92000C9FA072000F044FD08B1FEF7F1FFA9883D
:10A930007180364805F0AEFF002820D0BDE8F84011
:10A94000FEF7E6BF204632A107F0B4FA002000F07F
:10A950002FFD08B1FEF7DCFF4FF6FF707080BDE8F9
:10A96000F8400CF035B82EA107F0A4FA00200090B2
:10A97000A88869468FDF002801D0FEF7C9FFF8BD1F
:10A980002CA107F097FAA888132176DFD4E7204698
:10A990002EA107F08FFA287A01B0030900F00F0208
:10A9A0002046BDE8F04030A107F08FBABDE8F8407E
:10A9B00037A107F07FBA000030CA030050C9030076
:10A9C00050220020417574686F72697A6174696FF2
:10A9D0006E206661696C6564207769746820636FB6
:10A9E00064653A202575210047415454205365720F
:10A9F0007665722054696D656F75742E00000000D5
:10AA0000436F6E6E656374656400000078260020F5
:10AA1000446973636F6E6E65637465640000000063
:10AA20005048592075706461746520726571756550
:10AA300073742E004741545420436C69656E742032
:10AA400054696D656F75742E00000000424C455FBF
:10AA50004741505F4556545F434F4E4E5F53454309
:10AA60005F5550444154450053656375726974796C
:10AA7000206D6F64653A2025752E205365637572CD
:10AA8000697479206C6576656C3A20257500000044
:10AA9000417574686F72697A6174696F6E2073753D
:10AAA00063636565646564210000000010B51A4C9D
:10AAB0000188606810290ED011292BD1401E6060DA
:10AAC00028D1FEF7F4FD002824D02168002921D0E8
:10AAD000BDE810400847D0B900210122084600F027
:10AAE00045FC08B107280FD107220221012000F000
:10AAF0003DFC08B1072807D104220221002000F004
:10AB000035FC20B1072802D0216801B18847606870
:10AB1000401C606010BD00008C2200202DE9F04731
:10AB200001883B4E40F2F3194FF6FF7510291BD0F8
:10AB300011293ED0122954D0502946D1C188F2891A
:10AB4000841D914241D1618902293ED186883046D7
:10AB500002F084FF050038D004F10C0000F01DFA6B
:10AB6000A8B3294630464EE0C17B878804460129B8
:10AB70002BD1A846284602F071FF050017D02F8080
:10AB800000202872234843464A460168C5F80A1047
:10AB90004068C5F80E0004F1100105F10A0003F049
:10ABA00021F86872F08900280FD129462AE0042094
:10ABB00013E0808802F052FF040006D06068FEF7C0
:10ABC0000BFF08B10BF084FC2580BDE8F087FFE7A0
:10ABD0006868FEF701FF0028F7D0BDE8F0470BF0EA
:10ABE00077BC87880646384602F038FF0400ECD070
:10ABF0002B464A4606F1080104F10A0002F0F2FF72
:10AC0000607221463846BDE8F04701F043B80000C5
:10AC10008C2B0020942200202DE9F04F04468688DA
:10AC20000188424897B0834610290CD0112950D092
:10AC3000103019296AD01A2974D1217A0C09042CF0
:10AC40004DD301224CE0394D083DA868C0430B901C
:10AC500069680BA805F00AFB0B990CA800F0B4FF7B
:10AC60002C220CA96846FCF77DFA0027E946A84685
:10AC700010E000BF09EB47005FF00005B0F804A04A
:10AC800008EB85005146001D05F08CFA6D1C1E2D49
:10AC9000F6D37F1C0098B842ECD8142E05D317B019
:10ACA0000420BDE8F04FFEF733BE3146584605F0AC
:10ACB000C4FA314608F1040005F0BFFAE07B02282F
:10ACC00030D117B03146BDE8F04F1848001D05F0EF
:10ACD000B4BA17B03146BDE8F04F05F063BA0022B0
:10ACE000314601F0F3FE032C01D3012200E00022E3
:10ACF0000E4831460C3001F0E9FE022C01D301224E
:10AD000000E0002209483146083006E0217A002997
:10AD100008D1617AC1F3C002314617B0BDE8F04FE7
:10AD200001F0D4BE17B0BDE8F08F0000B02B0020BA
:10AD300010B504460748007800280AD0204602F0E3
:10AD4000BBFC20460BF058FE2046BDE8104002F048
:10AD500045B810BDDC22002010B51A4C02882178BD
:10AD6000102A0CD0112A0DD0172A02D0192A05D189
:10AD70000AE08088144A022180DFF8B910BD491C1E
:10AD8000217010BD491E21706078032803D002286D
:10AD900001D00428F5D105F0D3FB68B96078032809
:10ADA00001D00428EDD105F0F9FC28B905F00EFD1D
:10ADB00004F0B4FF0028E4D01128E2D0BDE8104030
:10ADC000FEF7A6BDF4240020E83B002030B5044681
:10ADD000008C8BB0A0F57F42FF3A23D005AA204615
:10ADE00002F0DEFB0546ADF8000000200190029065
:10ADF000039004902189ADF804100121ADF80800FA
:10AE00008DF8061005A8CDF80CD00490208C01A96F
:10AE1000AEDF002804D1BDF80010A94200D00C20FC
:10AE20000BB030BD0820FBE7F0B504468FB00868D2
:10AE30002060087960714FF6FF702084002084F84C
:10AE40002200A4F84C001427012684F84E708DF8D7
:10AE5000226041F60D000D46ADF82000A21D08A9A4
:10AE60003046A8DF002847D120216846FCF7A2F928
:10AE700042F63720ADF80000ADF8047009AA0021B1
:10AE8000204602F08DFBADF8060009A802908DF86F
:10AE90000C609DF80D0004F1080240F010008DF8E0
:10AEA0000D00287B8DF81300E088694600F0E2FC75
:10AEB000002821D1A868F0B120216846FCF77AF972
:10AEC00042F63820ADF80460ADF80000ADF8066039
:10AED000A86802909DF80D0004F1100240F00200F5
:10AEE0008DF80D00687B8DF81100E088694600F050
:10AEF000C1FC002800D100200FB0F0BD38B5028899
:10AF0000102A15D0112A15D0502A16D130F8062F44
:10AF10008B899A4211D10C46418902290DD12168B1
:10AF200000290AD00C3000F038F838B1002006E0D3
:10AF3000808801E04FF6FF70088438BD01208DF84D
:10AF40000000226869462046904738BD70B5044627
:10AF5000B0F84C000D4614280AD104F1260126222F
:10AF6000881EFCF7FFF8B4F84C00401EA4F84C0013
:10AF7000B4F84C0004EB4001401CA4F84C008D8454
:10AF800070BD80F82210704770B504460D46084623
:10AF9000FCF71BF92080656070BD007800F00100AF
:10AFA00070470A78027049784170022070472DE995
:10AFB000F04FADF53F7D14460E468346B2F5C07F97
:10AFC00005D96FF037000DF53F7DBDE8F08F4FF4E8
:10AFD000D0716846FCF7EEF868A803F00AFA200E74
:10AFE0008DF81000200C8DF81100200A8DF8120049
:10AFF00020208DF8170006AD8DF81340224631460B
:10B000002846FCF7AFF88020285504F119080020E5
:10B01000BAA90854401C1028FBDB802268A803F062
:10B02000EDF9070051D10025AA466E46CDF8B8A229
:10B03000CDF8BCA2CDF8C0A244460DF52E79CDF8CE
:10B04000C4A217E000204946335C0A5C5A400A5407
:10B05000401C1028F8DB1036102C01D3102000E023
:10B060002046241AAEAB1A46012168A803F0AEF9B7
:10B0700007002AD1002CE5D1B2A828441022AEA99D
:10B08000FCF770F89DF803001035401C8DF80300A4
:10B09000202DCADB8022B2A968A803F0AFF907000F
:10B0A00013D1B6AE5C46002533461A46012168A886
:10B0B00003F08CF9070008D1102231462046FCF736
:10B0C00051F810341035202DEEDB68A803F08AF912
:10B0D0004FF4D071684604F007F82021B2A804F0BC
:10B0E00003F81021BAA803F0FFFF1021AEA803F067
:10B0F000FBFF1FB12021584603F0F6FF384662E7F8
:10B100000149085C70470000B47D03000649095CF2
:10B110004FF0A040D0F81005C84010F0010000D05A
:10B12000012080F001007047B47D03002DE9FC414F
:10B130000646C0074FF000050ED0104F0024012234
:10B14000385D009500231146019506F0DFFB641C75
:10B15000042CF4D300F046F8B0070DD5074E0024B8
:10B16000361D0022305D032300951146019506F03F
:10B17000CDFB641C042CF4D3BDE8FC81B07D03003E
:10B1800007490B5C4FF0A041D1F8042501209840FD
:10B1900020EA0203C1F808351040C1F80C057047D9
:10B1A000B07D03000249085C012106F066BC000086
:10B1B000B07D03000249085C002106F05EBC00007F
:10B1C000B07D03000649095C4FF0A040D0F80405AB
:10B1D000C84010F0010000D0012080F0010070474D
:10B1E000B07D030010B500242046FFF7DBFF641C90
:10B1F000042CF9D310BD10B500242046FFF7DAFF68
:10B20000641C042CF9D310BD10B50246064B4FF058
:10B21000FF3000215C5C944201D1084610BD491CFE
:10B220000429F7D310BD0000B47D030070B50C4EA7
:10B230000C004FF0000530600BD0012000F06AF8E0
:10B2400008B1022004E0002000F064F800B10B20F7
:10B250002070706810B9FEF72AFA0546284670BDBE
:10B260008C22002010B5002000F0DCF908B106287F
:10B2700006D1012000F0D6F908B1062800D100203F
:10B2800010BD00002DE9F0470D468146FFF7BCFFD9
:10B290000446042836D2DFF874801B481C4EA8F1FF
:10B2A0000C0725B3012D0ED0022D2BD104EB440049
:10B2B00030444578002D25D0B968002922D0284691
:10B2C000BDE8F047084704EB4401755C0E44717813
:10B2D00049B10E4A4FF48041093A8068FEF764FB99
:10B2E00008B987F80390B17808F80410E2E780689D
:10B2F000FEF772FB04EB4401314418F804008D782A
:10B30000A842D7D0BDE8F087B87D0300882200208E
:10B31000282B0020042801D2FFF7F8BE0020704738
:10B320000146104810B54088042907D007290ED0DF
:10B330000A2915D1BDE810400BF04ABB132176DF76
:10B340000CE000280CD0BDE81040FEF7E1BAA0F5F3
:10B350007F41FF3904D10448FEF715FF0828F0D1DA
:10B3600010BD0000502200208426002070B500236C
:10B37000042810D20D4D00EB4004012A02D101290E
:10B380000CD00022094E00EB4000304461B101298D
:10B3900006D0022906D00723184670BD0E30C2B26F
:10B3A0002A55F9E74270F7E78270F5E7282B00206D
:10B3B000044A014600201279D20702D0084600F064
:10B3C0004DB870477C22002070B506461E48002408
:10B3D000C0E90161B00720D50025012211462846A9
:10B3E000FFF7C4FF6D1C0446042D02D2002CF4D0DC
:10B3F00013E094B940F2333204211448FEF706FA00
:10B4000004000AD1FEF7F0F9040006D10F48104AF3
:10B410000021001FFEF78EFA0446F00712D001202B
:10B42000FFF784FE74B909480A4A00210C38FEF778
:10B4300081FA040006D10548074A01210838FEF7C1
:10B4400079FA0446204670BD7C220020C47D0300AA
:10B4500031B7020029DD0200D59702002DE9F05F27
:10B460006E4C054600266078B34618B184F801B0EA
:10B4700002F042FC6A4F4FF47A694FF4C87A4FF0F9
:10B480000108182D69D2DFE805F00C131338475472
:10B49000696E727B727BC58484848484B3B6B9BCC4
:10B4A000C5C502F029FC3868FEF796FA06465CE04E
:10B4B0000020FFF787FE00284FF0000008D0FFF7BC
:10B4C00071FE022D02D14FF4E16008E0484606E02B
:10B4D000FFF770FE022D01D1C82000E05046410C5C
:10B4E000C0034FF47A72801841F1000125705200B8
:10B4F0000023FBF7E3FD01462AE00020FFF762FE90
:10B5000000284FF0000004D0FFF74CFE4FF44870C5
:10B51000E5E7FFF74FFEDFE70020FFF753FE0028C7
:10B520004FF0000002D0FFF73DFECFE7FFF742FEED
:10B53000D4E70020FFF746FE00284FF0000002D0BD
:10B54000FFF730FE01E0FFF735FE257040F6CD41F4
:10B5500000223868FEF728FA064646E00020FFF78A
:10B560000FFE257008E0002051E025703DE084F8D2
:10B5700001800120FFF704FE002240F26661E8E747
:10B5800084F801800120FFF7FBFD00224FF40051F9
:10B59000DFE77868FEF720FA0646D5F1110000D003
:10B5A0002EB10220FFF7FEFD84F802B01DE0012855
:10B5B00016D980B2C8214843C117C90341EA504196
:10B5C000C0034FF47A72801841F100015200002349
:10B5D000FBF774FD014600227868FEF7E5F90646A0
:10B5E0000220FFF7E7FD84F802803046BDE8F09FB7
:10B5F00002F082FBB9E702F07FFBB4E702F07CFBCC
:10B6000004E002F079FB0020FFF7D4FD0120FFF7F2
:10B61000D1FDAAE7FFF7EFFDA7E700007C2200209D
:10B62000B87D030001210CF046B900002DE9F84F68
:10B630000546861C00208DF8000091460F464FF00D
:10B64000010A6846FEF7CEF91B4C04F21C486068FC
:10B650003860D4E90101194F401A3968081A0EE020
:10B660000121404604F0FCFD02F034FD0146404655
:10B6700004F0F6FDD4E90101401A3968081A401CAB
:10B680008642EDD8B9F1000F03D0052065F389108B
:10B6900002E0062065F39F5061683A68114004EBB0
:10B6A0008101C8606068304460609DF80000FEF76A
:10B6B000BDF95046BDE8F88FC8360020A024002010
:10B6C00070B50D4604460A2902D10D21FFF7F8FF97
:10B6D000A0682268411CA1601554D4E9010181428F
:10B6E00004D32046BDE8704005F0D5BD70BD000014
:10B6F000044881684068814201D1012070470020E0
:10B7000070470000C8360020034630B507480021C6
:10B710000478426806E000BF02EBC10005789D4254
:10B7200003D0491CA142F7DB002030BDF8230020E4
:10B7300000780221FFF7A6BD1CB5044602F0E0F830
:10B7400000236A46092108F075FF052805D1034842
:10B75000012241792046FEF7BBFF1CBD9C22002040
:10B760001CB504460020009042F6A620ADF800006B
:10B7700001208DF80200084801AA6946006801907E
:10B780002046A0DF002805D1044801228179204607
:10B79000FEF79EFF1CBD0000E47D03009C220020FC
:10B7A00005494FF0FF32082841F8202002D3084411
:10B7B00080F848207047000014320020F0B54FF0A8
:10B7C000FF3512B10023082601E008230C260C4C9B
:10B7D00005E000BF54F823707F1C04D05B1CB3420B
:10B7E000F8D32846F0BD26185DB286F8305044F8EC
:10B7F0002310002AF5D1E11881F84800F1E7000094
:10B80000143200200249084490F9300070470000CB
:10B81000143200202DE9F04188B01E46DDF8388052
:10B8200014460D00074602D10020FEF771F814B946
:10B830000020FEF76DF820216846FBF7BBFC9DF861
:10B840000D00ADF8044040F002008DF80D000848EE
:10B85000ADF80070ADF8064002958DF811604246D3
:10B860006946008800F006F808B0BDE8F0810000E5
:10B87000662300202DE9F0438146887891B09046F8
:10B880000C4600B901208DF83E002088ADF83C0040
:10B8900000250095607C69460BF082F86E46A07C1E
:10B8A000711C0BF07DF8E07B00289DF8020002D0AF
:10B8B00040F0080001E020F008008DF80200217C33
:10B8C00011B140F0100001E020F010008DF80200EE
:10B8D000217B11B140F0010001E020F001008DF862
:10B8E0000200217D09B1022100E0012161F3420043
:10B8F0008DF802001C2102A8FBF75CFC607BC106EE
:10B9000001D4800617D50E950EAFE07C791C0BF0A4
:10B9100047F89DF83800079720F00F00401C20F0F2
:10B92000F00010308DF838009DF83A0020F0060045
:10B93000801C8DF83A00607B8DF80800A07B8DF8A4
:10B940000900142109A8FBF735FC0FA8CDE9090669
:10B95000A088ADF83000A06820B1E088ADF82C00D8
:10B96000A0680D90A06998B301950088ADF810000B
:10B97000A06901AD01A94088ADF81200A069406836
:10B9800006950390A069007B0BF00AF8A069691C7A
:10B99000407B0BF005F8A069807A00289DF806002E
:10B9A00002D040F0080001E020F008008DF8060009
:10B9B000A169C97A11B140F0100001E020F0100037
:10B9C0008DF80600A169097A19B140F0010002E082
:10B9D0000DE020F001008DF80600A169897B09B116
:10B9E000022100E0012161F342008DF80600E069C8
:10B9F00000B10590434609AA02A94846AADF11B042
:10BA0000BDE8F08370B504464FF6FF750A46284638
:10BA1000AC4209D14FF480742146104604F0DDFB9E
:10BA200080B2A0420BD070BDFF2CFCD8214610463E
:10BA300004F0C3FB90F0010F01D0204670BD2846F2
:10BA400070BD000070B5084C050009D010342168A5
:10BA5000002907D008682060496828468847F6E72B
:10BA60000834F4E770BD0000B0310020002801D197
:10BA700007F048BB70470000054A012120B10128AA
:10BA800005D19170FFF7DEBF51700020FAE77047D3
:10BA9000B031002070B50E46054614463C211046D4
:10BAA000FBF788FB0120A07002202070002020639B
:10BAB00005B12563A66370BD10B5D0E90234D1E9A4
:10BAC0000220D11AA04101D3012010BD002010BDD9
:10BAD0007CB50E46202101911C491B4C4978002958
:10BAE00029D01B491B4A90F84930891ACD085BB10F
:10BAF000024601A915480091234604F12001001DCA
:10BB000005F0B8F8002818D0022000EB054012A17B
:10BB100006F0D0F92021204605F052FA002809D17C
:10BB2000032000EB0540324618A106F0C7F906498C
:10BB3000304681DF7CBD03207CBD22462023114698
:10BB4000204804F0E3FFE9E73C2D0020B822002064
:10BB500070C9030050C903004372656174696E6760
:10BB600020696E76616C6964207368617265642017
:10BB700073656372657420746F206D616B65204C12
:10BB8000455343206661696C2E00000043616C6C74
:10BB9000696E672073645F626C655F6761705F6C7C
:10BBA0006573635F64686B65795F7265706C79203B
:10BBB0006F6E20636F6E6E5F68616E646C653A20B5
:10BBC00025640000E87F030073B58CB006460020B2
:10BBD00000900D9880B100246D4621460DA804F018
:10BBE00021FB30B1009805EB400084800098401C98
:10BBF0000090641C142CF0D32C2269463046FBF7CD
:10BC0000B1FA0EB070BD2DE9F04117880646B81D97
:10BC100014460D46984202D90C20BDE8F0813188C7
:10BC2000072206290AD34FF4486C4FF6FF7361458B
:10BC300001D9994202D17088062801D21046ECE75A
:10BC4000604501D99842F9D1994203D0984201D078
:10BC50008142F3D80520E85520881221401C80B28B
:10BC6000208029542088401C80B2208041193088CF
:10BC70000BF0CBFC2188084480B2208041197088E9
:10BC80000BF0C3FC2188084420800020C5E7FDF7A5
:10BC90003FBE000038B54A7A0F4B62B100220A72EB
:10BCA0005969002906D001228DF80020ADF8020064
:10BCB0006846884738BD0A7A62B19B684C6802467C
:10BCC00019462046FDF770FE0028F3D0BDE8384045
:10BCD0000AF0FEBB5B68F1E78C2B0020F0B585B065
:10BCE00016460F4604461D4614220B496846FBF7CC
:10BCF00039FA0A488DF80870ADF80240ADF80A60CC
:10BD00008DF80C50017800222046FEF7E1FC6846D1
:10BD100000F0A8FC05B0F0BD307F03004C230020EC
:10BD2000FDF7FABB02681368526831B19A4202D338
:10BD30008068801A07E0981A70479A4201D3D01A97
:10BD400070478068C01A401C70472DE9F04389B0E5
:10BD5000884604466E4620213046FBF72BFA002524
:10BD600004F120091020211811F8012D521C12F0A5
:10BD7000FF020A7002D1401E0028F4DC334622463E
:10BD80000121484602F022FB070017D1103510367A
:10BD9000202DE7DB694618F800200B5C53400B545C
:10BDA000401C2028F7DB8022484602F027FB0700D2
:10BDB00004D104AD95E80F0084E80F002021684607
:10BDC00003F092F909B03846BDE8F083F0B50C46AF
:10BDD00006461E481E4987B0401AC708042000EBDB
:10BDE0000740334622461BA106F06FF8002004905E
:10BDF0000590ADF8104001900290ADF8124001AAF4
:10BE000004A9304690DF05001DD006F0D3FD03469F
:10BE1000012000EB0740044632461A4906F055F867
:10BE2000BDF8042012B9BDF8060028B1BDF80630EF
:10BE3000204615A106F049F8BDF808201AB12046A1
:10BE4000214906F03BF807B02846F0BD68C9030059
:10BE500050C903005570646174696E672064617431
:10BE600061206C656E67746820746F202575206F83
:10BE70006E20636F6E6E656374696F6E2030782517
:10BE8000782E000064AB03005468652072657175FC
:10BE900065737465642054582F5258207061636B29
:10BEA0006574206C656E67746820697320746F6FA9
:10BEB000206C6F6E672062792025752F2575206FA5
:10BEC00063746574732E0000B0AB030070B5044654
:10BED0000948012104F0DFF9BFF35F8F0025002836
:10BEE00008D1204602F070F8002803D1BFF35F8F1D
:10BEF0000148056070BD0000A82200202DE9FF4127
:10BF00000C4620B14FF4064004B0BDE8F081207922
:10BF1000002748F2096538B141F61D5601281BD0AB
:10BF2000022826D0681DEFE70220207102970397B0
:10BF3000E0680190694601A809F0C6FE50B1029878
:10BF40008188E18000882081BDF80010029809F006
:10BF500039FFD9E72846D7E70A4B6A460021A01DDA
:10BF600009F06AFE38B1074918398F61CF61A842DC
:10BF7000CAD13046C8E703488188019809F022FFFA
:10BF8000F5E7000058240020F0B587B00C460746BE
:10BF90001646142101A8FBF70DF9A07800B901207D
:10BFA0008DF81A002088ADF8180006A80190A07935
:10BFB00069460AF0F5FC6D46E079691C0AF0F0FC70
:10BFC000E07800289DF8020002D040F0080001E06F
:10BFD00020F008008DF80200217911B140F0100026
:10BFE00001E020F010008DF80200617911B140F0FD
:10BFF000010001E020F001008DF80200217A09B172
:10C00000022100E0012161F342008DF80200029557
:10C010006089ADF80C00A089ADF80E00E089ADF89C
:10C02000100020690590324601A93846ABDF07B001
:10C03000F0BD000070B500240F4D10E0686800EB03
:10C04000C406307806F010FE7178012901D0012174
:10C0500000E000214140307800F058FA641C287854
:10C060008442EBDBD5E90401084303D0BDE870400E
:10C070000BF0B6B870BD0000F823002010B5002109
:10C08000024804F008F980F3100010BDE43A0020E3
:10C090004FF480328A400168C1F848230068C0F834
:10C0A000082370474FF4A07202EB810189B200F0BF
:10C0B0009DBA2DE9F04105460E464FF4A07000EB05
:10C0C000860081B228684FF48034B440984622F04C
:10C0D0007F47C0F808432868C0F84843286806F03E
:10C0E000F2F9286800EB8600C0F840752868C0F8AF
:10C0F0004443B8F1000F02D02868C0F80443BDE8FB
:10C10000F0810068D0F804057047000070B54379ED
:10C11000234C44F823204279231D03EBC202224C16
:10C120001579204A121BD4082DB10825022000EBF6
:10C1300004401EA130E005680A88C5F8082590F97A
:10C1400004208978002A4FEA411104DB02F1E02241
:10C1500082F8001405E002F00F0202F1E02282F8FA
:10C16000141D90F904100122002909DB01F01F05BC
:10C1700002FA05F54909890001F1E021C1F80051F1
:10C180004179002503EBC1010A71417943F831007F
:10C19000032000EB04400EA105F08CFE284670BD84
:10C1A0003424002008CA030050C90300525443201D
:10C1B000696E7374616E636520616C726561647928
:10C1C00020696E697469616C697A65642E0000008B
:10C1D0005254433A20696E697469616C697A656486
:10C1E0002E00000090F90400002809DB00F01F0277
:10C1F000012191404009800000F1E020C0F80012C8
:10C2000070470A46022100F077B94FF4827100F0BE
:10C21000EDB90068012101607047006801214160AB
:10C2200070472DE9F05F07460C464FF4A07000EB15
:10C2300084001FFA80FA38684FF48036A6409B4687
:10C2400022F07F45C0F848633868C0F80863386852
:10C25000D0F8048500EB8402D2F84095C2F84085FE
:10C260005146386806F02FF9A9EB080020F07F400E
:10C27000012806D1102006F039FC5146386806F036
:10C2800022F93868D0F80485C0F84463A5EB0801AA
:10C2900021F07F413868012900EB840010D0C0F8FC
:10C2A00040553868D0F804156FF07F4C6A1A521E5A
:10C2B00022F07F42ACEB0B03934217D362B118E03C
:10C2C0006D1CC0F84055102006F010FC3868D0F8FE
:10C2D000040540450AD10CE000EB84006D1CC0F859
:10C2E00040553868D0F80405884202D00D20BDE8DA
:10C2F000F09F01223146384600F0FEF80020F6E7B4
:10C3000013460A460021FFF7E9BC10B5084611465E
:10C3100004F0E4FE002010BD10B51446FFF7BAFB90
:10C320000148606310BD00003C8303002DE9F84321
:10C33000104D0F4680461E4691466946286803F018
:10C3400005FF040014D01C21FAF734FF01202071EE
:10C35000C4F81490380BC4F80080C4E90260694640
:10C36000286803F014FF09F0C5FB0020BDE8F8833E
:10C370000420FBE75081030010B503780022072B4F
:10C3800006D2DFE803F005040610202930000A7009
:10C3900010BD01230B7003898B818388CB81C0681A
:10C3A00088600A7410BD02220A7002898A8182881C
:10C3B000CA81C2688A60807D062802D00020087485
:10C3C00010BD0120FBE703220A70C2888A8102891E
:10C3D000CA81C068886010BD04230B70C088888142
:10C3E000CA818A6010BD0520087010BD70B5064D69
:10C3F0000646002455F8241009B130468847641CCD
:10C40000042CF7D370BD0000A033002030B50446E3
:10C41000006887B00D46806800281FD01821684644
:10C42000FAF7C8FE0195A0680590207910B101289F
:10C4300010D107E001208DF8000020690290E0682B
:10C44000039005E002208DF80000E06800030290F0
:10C4500060690490206881686846884707B030BDED
:10C46000F0B585B017460C0005463AD0112C38D0EF
:10C47000082C36D01C481D49401AC6080D2C11D076
:10C48000204606F097FA0246012000EB06402B46B4
:10C49000174905F01AFD2A460721684602F0E8FE12
:10C4A00002941BE0022000EB06402A46114905F0E9
:10C4B00005FD2A460321684602F0DAFE27B13878E6
:10C4C000C00701D0012000E002208DF80800002004
:10C4D0008DF80C0041F20110ADF80A00684600F03A
:10C4E000CFF805B0F0BD0000A0C9030050C903009B
:10C4F000B0B60300A0B503000368C3F84413002AD4
:10C5000002D00068C0F80413704700002DE9F84F0E
:10C510000E463449804601EB5001C007097801D02E
:10C520000F0901E001F00F074FF00009424601201A
:10C530004946FAF7F4FDDFF8B0A004460D46052F92
:10C540004ED2DFE807F003161B282C00002E47D040
:10C55000012140460AF006FD8DF800906846FDF77F
:10C5600041FA5046D0E904120C431543CAE9044588
:10C5700032E00EB1022114E0002112E04EB103219D
:10C5800040460AF0EFFC4046BDE8F84F01210BF0B1
:10C590001BB9012105E0002E22D1042101E02EB1BA
:10C5A00003214046BDE8F84F0AF0DCBC00214046BC
:10C5B0000AF0D8FC002140460BF006F98DF80090F7
:10C5C0006846FDF70FFA5046E243D0E904341A40BA
:10C5D00024EA0501CAE904219DF80000FDF726FAC6
:10C5E000BDE8F88F00330020F823002010B5006864
:10C5F00042581AB105F067FF012010BD002010BDA0
:10C6000010B50446408801F07BF9A080024801681B
:10C610002046BDE810400847A422002010B504467B
:10C62000808801F0B7F86080024801682046BDE8C4
:10C6300010400847B42200202DE9F04107460024AD
:10C64000064E074D05E000BF56F8241038468847CF
:10C65000641CE8788442F7DBBDE8F08120300020DC
:10C66000DC22002010B50446408801F049F9A08082
:10C67000024801682046BDE810400847F07E0300EC
:10C6800001490968084700006C7F030070B586B057
:10C69000044614216846FAF78DFDA0890125A0F50E
:10C6A0004040ADF8040020782F4E062833D2DFE852
:10C6B00000F0320303032C4AA08900F0EBF930B9F3
:10C6C000E08943F6FE71A0F54040884223D8A07B64
:10C6D0008DF80800207803280FD000208DF809007D
:10C6E000A0680390606850B109208DF80000606870
:10C6F0000490684607F0F0FE0DE00120EEE7082008
:10C700008DF800008DF81050F3E7A08900F0C2F911
:10C7100008B1E08930B17078002801D008F030F815
:10C7200006B070BD606830B10B208DF80000606805
:10C7300002907570DDE70A208DF80000BDF8040056
:10C7400008F0C2F8F5E7606848B114208DF80000E1
:10C75000606802904FF6FF70ADF80400C9E713203F
:10C760008DF80000F6E70000C822002038B5044626
:10C770000F480078B0B1A4F57F40FF380FD068466D
:10C7800009F0B6F888B10521017001210171C4805A
:10C79000684609F0BBF809F09FF9002038BD48F25F
:10C7A000036038BD48F2016038BD48F2076038BD0B
:10C7B000602400200D4808B5007888B1684609F06B
:10C7C00097F880B106210170684609F09FF8084883
:10C7D000017809B10121017309F07EF9002008BD3B
:10C7E00048F2016008BD48F2076008BD60240020DF
:10C7F00064340020F0B587B014216846FAF7DAFCFB
:10C80000304C207818B16846FFF7F0FD57E0201D46
:10C8100003F023FD98BB40F6F8700168481C02D174
:10C820004FF0102041694FF08050026940694B1C65
:10C8300001D100FB02F1244800220161A1F5405121
:10C84000C160224904F0BCFE002823D121481C23EA
:10C850008C221F49006803F066FC07F0C9FB050045
:10C8600016D0022D14D000270126062D14D005A8BD
:10C8700009F03EF898B106700C2D1BD200E01EE0C6
:10C88000DFE805F0181018101817181718121412EE
:10C8900048F20A6007B0F0BD26706760B3E748F25F
:10C8A0000760F7E7077105E0032100E0022101714D
:10C8B00000E0067105A809F029F809F00DF900203B
:10C8C000E8E7000060240020682500206081030064
:10C8D000B0330020C880030038B5040014D0694686
:10C8E00009F0F2F9B0B1BDF8000000EB80010B488F
:10C8F00000EB8100C16851B1A17A41B1C168491E04
:10C90000C1600020A07238BD48F2046038BD48F212
:10C91000056038BD48F2096038BD00003C34002095
:10C920001FB501A9684609F087F904B010BD07B525
:10C9300013460A466946002009F07EF90EBD07B588
:10C9400013460A460021684609F076F90EBD20B16B
:10C9500019B1006808600020704748F20460704711
:10C96000F8B50D46040018D0BDB1694609F0ACF920
:10C97000B0B1BDF800000C4900EB800001EB800075
:10C9800001210C30666803F06BFC2E6060680C308F
:10C9900068600120A0720020F8BD48F20460F8BD74
:10C9A00048F20960F8BD00003C34002018B10323B0
:10C9B00000220BF0C3B848F2046070470223002243
:10C9C0000BF0BCB8094910B50A69042A0AD0084A14
:10C9D000096942F8210005480121103003F040FCAC
:10C9E000002010BD48F20B6010BD00004024002064
:10C9F000A03300202DE9F84F044624480078D8B130
:10CA0000F4B112212046FAF7D5FB0320DFF880901D
:10CA10002080002504F1100804F10E0A05EB8501C1
:10CA200009EB810630897189084487B2706807F084
:10CA300069FA032807D009E048F20160BDE8F88FE1
:10CA400048F20460FAE72088401E20806088F16880
:10CA500008446080208971890844208160893844B5
:10CA60006081C7F58060A18980B2814200D2A08137
:10CA70005346A21D211D2846CDF8008009F0C0F9BB
:10CA80006D1CADB2022DC9D30020D7E76024002071
:10CA90003C34002043F6FE71A0F54040884201D8A6
:10CAA000012070470020704710B504460078182810
:10CAB00002D1FDF7E9FD207010BD10B504460078E5
:10CAC000182802D1FDF7E0FD207010BD0AB103F077
:10CAD000B4BB03F067BB70B50D460446B0F8141440
:10CAE000D0F810040122FDF767FA00B1057004F1D7
:10CAF0003C0204F5826104F1540072DF70BD000055
:10CB000070B5134600220546112900D10122074CB9
:10CB100033B12179FDF7DCFD00226178284600E081
:10CB20006178BDE87040FDF7D3BD000054230020BC
:10CB3000F7B517460E0011D00098002560B100240B
:10CB40002146684603F06EFB18B1A0B23946B047E3
:10CB50006D1C641C142CF3D32846FEBD0020FEBDC2
:10CB6000406808F0E5BE00000EB517A19DF808006A
:10CB700020F00F00401C20F0F00010308DF808006D
:10CB80000E2202A87CDF08B1FCF7C2FE40F2413061
:10CB900078DF08B1FCF7BCFE0020009001904FF454
:10CBA000A071ADF80400ADF800104FF4C8704FF458
:10CBB0000271ADF80600ADF8021068467ADF002871
:10CBC00001D0FCF7A5FE0EBD4E6F726469635F482D
:10CBD000524D5F4E4643000070B510B14FF4064011
:10CBE00070BD1C4C0025207B08B1257301E000F0CE
:10CBF000A5F8207808282AD2DFE800F02904080CDC
:10CC000010291422BDE8704000F026B8BDE870403D
:10CC100000F082B8BDE8704000F064B8BDE8704034
:10CC200000F040B80620207060880A4900EB8000C0
:10CC3000283901EB80004068BDE8704007F0B8B9C2
:10CC4000072020706560BDE8704007F0BFB948F26A
:10CC50000E6070BD643400201149F0B48A1C0020BD
:10CC60000346A1F128050C18A67A4EB1A37200EB79
:10CC7000800405EB8404E66816B9247C012C0AD0F4
:10CC8000401C80B20228EED30B704B804B60F0BC8E
:10CC900041F61D5070471080F0BC00F03DB8000018
:10CCA000643400200C48418801EB8102A0F1280186
:10CCB00001EB8201CA6852B10521017007480221C7
:10CCC0008180016800230122054804F0DDBB0422B5
:10CCD00002704968F6E700006434002068240020F0
:10CCE0006825002038B50A49084803240B684268C3
:10CCF000898803EB810153880470DB1C00201B042E
:10CD000000909B0B034804F013FD38BD64340020F1
:10CD10006824002068250020074910B54888091DAF
:10CD200009F022F818B1BDE81040FFF7DBBFBDE8FD
:10CD30001040FFF7B7BF00006434002070B5194CF5
:10CD40000121207808281AD2DFE800F00419191C04
:10CD5000252929182089134A401C20810020608041
:10CD60002073283A00EB800312F8233043B10023EC
:10CD70002518401C80B2AB720228F3D3217070BD1D
:10CD80000123F5E76068084940888A88C01C104480
:10CD90008880022004E000F009F8062000E0072067
:10CDA000207070BD64340020682400200A490948BE
:10CDB0004988026801EB81030749283901EB8301A7
:10CDC0004B6803604A6082880A81022282800020C8
:10CDD0000874704768240020643400202DE9F04373
:10CDE000064680883288DFF85C8185B00746502A85
:10CDF00037D010DC5449554B06F10A05A1EB03016D
:10CE00004FEAD1014FF0020303EB0144352A3AD037
:10CE1000362A07D168E0522A02D0542AF9D102E01A
:10CE200001F076F882E0142249496846FAF79AF947
:10CE3000ADF80270384600F063FDADF8040000F074
:10CE400061FA0022444698F804103846FDF740FC89
:10CE50000022E1783846FDF73BFC6846FFF7D0FB3F
:10CE600064E0307B012861D1B07A01285ED130893D
:10CE7000A0F52451023959D10121384601F09CF81E
:10CE80000AF032FC52E098F80610FDF709FC002881
:10CE90004CD0002298F806103846FDF719FCF288AD
:10CEA000B2F5857F17D012B120462AA10BE02A885F
:10CEB000012A03D0204636A105F000F86A88012A2D
:10CEC00004D0204641A104F0F9FF04E0A988002223
:10CED0003846A1DF08B1002125E0012298F80710AB
:10CEE0003846FDF7F5FB21E04FF0000998F80710F0
:10CEF000FDF7D6FBD0B1002298F807103846FDF7B1
:10CF0000E7FBF28812B1204612A104E0AA88012AA8
:10CF100004D020462DA104F0D1FF03E0A87900B190
:10CF200001208146494638460AF07EF800223649FB
:10CF300098F80200FDF74EFB05B0BDE8F04309F09C
:10CF400087BB00009C22002050C9030050C9030089
:10CF50003C7E0300556E6578706563746564204798
:10CF600041545420737461747573207768696C65DB
:10CF70002067657474696E6720434152206368615D
:10CF8000722076616C75653A203078257800000053
:10CF90004D756C7469706C652028256429204341A7
:10CFA0005220636861726163746572697374696346
:10CFB0007320666F756E642C207573696E672074BC
:10CFC00068652066697273742E000000556E65787E
:10CFD00070656374656420434152206368617261C7
:10CFE0006374657269737469632076616C7565201A
:10CFF0006C656E67746820282564292C2073746F13
:10D00000726520302E000000C99B020070B50446F6
:10D010000078002814D1608800F07AFF65882846DF
:10D0200000F032FA28B107480122C1782846FDF7FE
:10D030004FFB6088FEF780FBBDE870400AF054BBF0
:10D0400070BD00009C22002070B5204C002525708A
:10D05000FDF71AFB6070FDF717FBA070FDF714FBDE
:10D06000E070FDF711FB2071FDF70EFB6071FDF71D
:10D070000BFBA071FDF708FBE07162780121182A13
:10D0800018D0A278182A15D0E278182A12D022795E
:10D09000182A0FD06279182A0CD0A279182A09D040
:10D0A000182807D004F10C000560BFF35F8F2170D2
:10D0B000002070BD0648074A801AC00801EB0040F6
:10D0C000054904F0F7FE032070BD00009C220020FB
:10D0D00050C9030050C90300DCA703007CB5044617
:10D0E0000078082837D1607A58BB207A1C4E4FF65A
:10D0F000FF75012811D0072802D008282BD121E084
:10D10000A08800F047FB0446A84224D0012100F08B
:10D1100053FF2046FEF710FB1DE0A0886A46012160
:10D1200007F0FCF868B90198007850B1A08800F0C9
:10D1300031FBA8420FD00122F178FDF7C9FA09F0BE
:10D1400087FA08E0F068012805D1BFF35F8F044932
:10D1500000200C310860BDE87C400AF0C5BA000030
:10D160009C2200202DE9F0410D460600174609D00B
:10D170005DB1144C14496068884209D048F20250ED
:10D18000BDE8F08148F21350FAE748F21450F7E78F
:10D1900013462A463146206803F048FEA0F50541B3
:10D1A0007139EDD100221146104603F0A1FE00288E
:10D1B000E6D13B462A4631462068BDE8F04103F0FF
:10D1C00035BE0000B42300206572E54B2DE9F04721
:10D1D0000024884607461E461546FF212046DDF8F6
:10D1E00020A005E02A5C0AB1295C03E0401C083459
:10D1F000B042F7D3002049000A0A03D1401C641C46
:10D200000828F8D3BFB3BEB3B8F1000148F21050FC
:10D210002FD0002D2DD03246284600F00FFD60B3F0
:10D22000DFF86C90534632463946D9F8000003F0D7
:10D23000FDFD00281DD1E1083846F9F7BBFF600766
:10D2400008D007EBD40004F007030178FF22DA408E
:10D250001140017041463246384600F0EFFC00288C
:10D26000E0D032463946284600F0E8FC0028D9D004
:10D270000020BDE8F08701E003E005E048F213502C
:10D28000F7E748F21450F4E748F21750F1E70000CE
:10D29000B423002010B50B48FEF733FF094A083AC3
:10D2A000D2E90434C018D2E9063244F10001C31AAD
:10D2B00071EB020204D24FF08072801841F100013C
:10D2C00010BD00001824002010B5C0B2FEF71CFAF3
:10D2D0000446007805F0C8FC01466078012801D0BA
:10D2E000012000E0002090EA010F08D00449D1E9B4
:10D2F0000401084303D1BDE8104009F071BF10BD1F
:10D30000F82300201CB5054AD2E90212CDE900122B
:10D310000022694607F0C8F91CBD0000547E0300D6
:10D3200003484FF6FF718180012101700020704792
:10D33000AC2200202DE9FC41804600F0E1FA0024F7
:10D3400003250127A0F57F412646FF3908D06A460C
:10D35000082106F0E3FF18B90198841D8688056846
:10D3600032462B4621464046B1DF042804D0082827
:10D3700004D00B2808D002E0112000E00020002F8C
:10D3800000D10B20BDE8FC810027A80701D50125AD
:10D39000E6E7344303D0002426460325E0E70648A9
:10D3A00006494246401AC008012101EB00400449E9
:10D3B00004F084FDE5E7000058C9030050C90300EC
:10D3C000A4AA03002DE9FC41804600F099FAA0F5DB
:10D3D0007F410646FF390ED001252A466D1C0027E5
:10D3E000ADB26B460821304606F0E2FF040006D0DD
:10D3F000072C33D033E043F20200BDE8FC810199F1
:10D4000003230A1D0B604046891DB2DF040004D0CF
:10D410000C2C09D0052C09D009E032460821104611
:10D4200007F03EF804461AE0012700E00024082136
:10D43000304607F02BF870B105F0BCFA03460948F6
:10D4400009493246401AC008012101EB0040074952
:10D4500004F03BFD0324002FBFD100E00C24204644
:10D46000CBE7000058C9030050C9030024AA0300F9
:10D4700004488088A0F57F41FF3901D009F0F2B857
:10D4800070470000AC2200200EB502A9019100F007
:10D4900037FA6A46012106F041FF08B100200EBDAF
:10D4A000019800780EBD00002DE9F04107464FF6C7
:10D4B000FF761048B3DF78B105F07CFA02460E48DB
:10D4C0000E49401AC008012101EB00400C4904F04C
:10D4D000F5FC0320BDE8F081064C43F20305A41ED1
:10D4E000324661883846AFDFA842F3D16088401CDD
:10D4F0006080F5E7AE22002058C9030050C9030040
:10D50000D8A90300428800EB82020C328A4201D97A
:10D51000022070478188A1F57F42FF3A06D001883A
:10D5200021B18068401C01D0002070470120704765
:10D53000884204D20068401C01D0012070470020BE
:10D540007047000010B51349134809F054F8124C05
:10D5500081B2103C6068401C60601048FDF736FCEA
:10D5600068B108280BD0132809D0112807D00F283C
:10D5700005D043F20141884201D0FCF7C9F9606847
:10D580000321B0FBF1F201FB120000B10120207079
:10D5900010BD0000C82A00206022002014260020B0
:10D5A0002DE9F041044640799046002500B104255C
:10D5B00094F8220008B145F00205CAB2FF2908D943
:10D5C000090A88F8012045F0010588F802100326B1
:10D5D00002E088F801200226B4F84C0008B145F0BA
:10D5E000100500271BE000BF94F84E10B21C9142BA
:10D5F0000BD2B4F84C0004EB4701C01B420004F10D
:10D6000024002431F9F7AEFD0DE004EB470008EBF0
:10D610000601808C0870000A4870D6B27F1CB4F8EE
:10D620004C00B842E0DC34F84C0FC01B208088F876
:10D6300000503046BDE8F0813EB5027802230C462A
:10D64000B3EB520F17D1B0F80110ADF80010C1784C
:10D650008DF802108188ADF8041080798DF80600ED
:10D6600002AA01A92046FCF73DF8032202A9684658
:10D67000F9F7B2FD08B100203EBD01203EBD00001B
:10D6800070B50D460446142810D2FDF73DF868B178
:10D69000084904EB840001EB4000D0F80210296037
:10D6A000C188A980007AA871002070BD43F20200F1
:10D6B00070BD0000242C002070B5018890B01029A6
:10D6C00061D1011D2C226846F9F74CFD9DF804003C
:10D6D0004FF6FF7603213446B1EB500F2BD006F006
:10D6E000A1FF9DF804006D4640080ED001280CD023
:10D6F000022820D118E00D99281D1131FBF7AAFF4F
:10D7000018B100BFBDF82C4015E00CAA0BA90720EA
:10D7100006F05CFF0028EED10DE00D99281D491C94
:10D72000FFF78AFF0028EDD10CAA0BA9072006F00D
:10D730004DFF0028F1D1BDF80000B44200EB80019C
:10D74000124820F8114000EB41000199C0F8021086
:10D75000BDF80810C1809DF80A10017213D0BDF801
:10D760000000ADF82E000020ADF83040084E8DF8D6
:10D770002C000BAD044600BF56F8241028468847FD
:10D78000641C022CF8D310B070BD0000242C0020C3
:10D79000687E03002DE9F0414FF6FF760546B04262
:10D7A00013D00B4F002400BF04EB840037F81000A7
:10D7B000A84206D12046FCF7A7FF10B12046BDE8DD
:10D7C000F081641CA4B2142CEED33046F7E70000BD
:10D7D000242C00203EB50C46054606F023FF0BE046
:10D7E000BDF80000A04207D02846029900F00EF8CC
:10D7F00010B1BDF800003EBD01AA6946072006F041
:10D80000E5FE0028ECD14FF6FF703EBD2DE9F0415A
:10D810000C46054600F1110701F111061022491CC2
:10D82000401CF9F7D9FC48B9681C00F0FDF928B193
:10D83000601C00F0F9F908B1012400E00024314631
:10D840003846FBF707FF3B780222B2EB530F0CD0B0
:10D850000321B1EB530F08D03378B2EB530F04D050
:10D86000B1EB530F01D0012100E00021084201D1AA
:10D870008C4302D00120BDE8F0810020FBE7018845
:10D8800011B9421892780AB101207047491C082941
:10D89000F7D30020704710B50C460346FFF7EFFFA3
:10D8A00000280AD018882188884205D10822A11CA6
:10D8B000981CF9F791FC08B1002010BD012010BDA3
:10D8C000142804D2024A00EB800022F8101070479E
:10D8D000242C002070B50546FFF75CFF044628465F
:10D8E00006F020FD002808D1142C06D2034B04EBCF
:10D8F00084024FF6FF7123F8121070BD242C002013
:10D9000010B50446142808D2FCF7FEFE28B10449DD
:10D9100004EB840031F8100010BD4FF6FF7010BD0D
:10D92000242C00203EB5044606F07CFE0EE0019952
:10D9300020464631FFF7AFFF28B9019920462A312A
:10D94000FFF7A9FF10B1BDF808003EBD6A4602A965
:10D95000072006F03BFE0028E9D14FF6FF703EBDE0
:10D9600010B50A4941600A4802F077FC58B904F042
:10D9700077FF07491C238C22087404488C39001F48
:10D98000006802F0D0FB002010BD000054810300AD
:10D99000103500202DE9F0412D4F002520B17D608C
:10D9A0004FF40640BDE8F0810879012258B1294EB4
:10D9B00001280CD0264C4FF002080834022820D051
:10D9C000032841D127E00A7106F000FB3AE000206D
:10D9D00000EB800116F82110022908D0401C80B20B
:10D9E0000228F5D33A707D6041F61D50DAE700EB6E
:10D9F000800006F8205006EB8000406806F0D8FA58
:10DA000020E00D71A4F8048000230122124821684F
:10DA100003F03AFD16E00D71206806F0C9FA0D49D1
:10DA200023682831498801EB810206EB8201D1F895
:10DA300004C0C4F800C04B60A3880B81A4F8048024
:10DA400006F822500028ADD07D6048F20D60A9E7AD
:10DA5000602400203C340020682500200146034853
:10DA600002888A4200D0002070470000782B0020F6
:10DA70002DE9FC5F0E008346DDE90C47C6F100008E
:10DA800098469246814600D40846012503E000BF2F
:10DA900090FBFAF06D1C5045FADAA84500D94546CE
:10DAA00024B1002E01DB780700D5641EB80702D52B
:10DAB000B8F1000F0AD0F80708D13CB1A54205D251
:10DAC00020215846641EFDF7FBFDF6E7002E02DA22
:10DAD0004E462D2102E0780703D52B215846FDF74D
:10DAE000EFFD07F0030002280BD1B8F1000F08D1B9
:10DAF0003CB1A54205D230215846641EFDF7E0FD39
:10DB0000F6E7CDE90047434652463146584609F00C
:10DB100091FDBDE8FC9F000070B50D46044600680D
:10DB20004FF4887104F06CFF4FF49071206804F09A
:10DB300067FF4FF49271206804F062FF4FF4A27106
:10DB4000206804F05DFF4FF4AC71206804F058FFCA
:10DB500020681249C0F804132068690740F30730B1
:10DB6000090E002804DB00F1E02080F8001405E035
:10DB700000F00F0000F1E02080F8141D206840F351
:10DB80000730002809DB00F01F0201219140400905
:10DB9000800000F1E020C0F8001170BD10034200C9
:10DBA000024600201268530713D502F00300012833
:10DBB00002D002280CD105E0C2F383100B68801C50
:10DBC000184404E00223086803EB925210440860F2
:10DBD000012070470248007A002800D001207047D9
:10DBE00010350020F0B58488A518944200D822464C
:10DBF000A41AC288D6189A4200D81346D21A4B8863
:10DC00000788BB420CD34088834209D88888A04249
:10DC100006D3A84204D8C888904201D3B04201D9A3
:10DC20000020F0BD0120F0BD0021425C0AB10120BE
:10DC30007047491C1029F8D30020704730B50023E5
:10DC40000AE0C45CCD5CAC4205D02006B0EB056FA9
:10DC500004D8002030BD5B1C9342F2D3012030BDBC
:10DC6000800701D0002070470120704702681346EA
:10DC700002E08A4204D01268002AFAD10B600160E7
:10DC8000704710B51446FDF705FF012084F82D00FC
:10DC900084F82E000420E07010BD30B514882546AD
:10DCA000E41C19B19C4203D90C2030BD148020E043
:10DCB00002244C5513881C255B1C9BB21380CD5449
:10DCC00013885B1C9BB21380012807D0022807D061
:10DCD000032807D0042807D0072030BD002004E027
:10DCE000012002E0CC5401E00320C8541088401CFD
:10DCF0001080002030BD00000A4810B5807860B167
:10DD0000002401E0022C06D02046FDF74BFA641CEB
:10DD1000042CF7D310BD0324F6E7BDE81040FDF74F
:10DD200061BA00007C22002003480179C90702D0B3
:10DD30000078FDF793BB70477C2200202DE9F0416D
:10DD4000064610880D00144600F1240104D09942C3
:10DD500005D90C20BDE8F08111800020FAE74FF0D2
:10DD6000110805F8008020882221401C80B2208004
:10DD7000295420881022401C80B22080284406F1BB
:10DD80001701F9F7EFF9208823214719103080B2E5
:10DD9000208005F8008020881022401C80B220805E
:10DDA00029542088F11D401C80B220802844F9F7B6
:10DDB000D9F920884119103020803846BDE8F0415B
:10DDC00001F0C6BF1721018041800021017141711E
:10DDD0001B218171C17170472DE9FE4F2E4F98466E
:10DDE00092460D00814601D000260DE0684601F004
:10DDF00035FA6A460021484606F0ECF93878009E6C
:10DE000010B99DF8090098B152463146484608F0CD
:10DE1000C3FF0446014600224846FEF771FE0D2C62
:10DE200037D008DCA4B3082C33D00B2C09D130E058
:10DE30000520BDE8FE8F112C1ED0A4F540500238FD
:10DE400027D0204604F0B6FD0246144814494B463C
:10DE5000401AC008012101EB0040124904F035F8D6
:10DE60005FF00305B8F1000F04D032462146484662
:10DE7000FEF7F6FA2846DCE72A46F9784846FCF72A
:10DE800027FC5246B9784846FCF722FC0025E9E712
:10DE9000FFE72546E6E7000054230020A0C9030061
:10DEA00050C9030058B6030070B50E460C4915461C
:10DEB00004460978FCF7F4FB00280FD0204606F052
:10DEC0002FF900282A463146204603D0BDE870408D
:10DED00006F02CB9BDE87040FEF712BA70BD000024
:10DEE0004C23002070B5094D0646A978FCF7D8FBF5
:10DEF0000446E9783046FCF7D3FB0146224630461B
:10DF0000BDE870400123FFF767BF000054230020E5
:10DF1000F0B585B00546002714216846F9F74AF99F
:10DF2000A5F57F40ADF80250FF3825D02846FFF711
:10DF300001FA040022D01B481B49401AC6080B2CCA
:10DF400022D0112C1ED0A4F5405002380ED020460D
:10DF500004F030FD0246012000EB06402B46134939
:10DF600003F0B3FF2146284608F0BAFA10483A46B3
:10DF700081782846FCF7ACFB05B0F0BD0E208DF88B
:10DF800000000BE00127F1E70F208DF800000220D0
:10DF900000EB06402A46074903F090FF6846FEF76B
:10DFA0002FFBE3E750C9030050C90300ACA80300EE
:10DFB0009C22002000A903000A4602494978FCF788
:10DFC00087BB00009C2200202DE9F041002786B08D
:10DFD00080463E46FFF7F6F9040022D0112C22D0ED
:10DFE0001B481C49401AC508862C1ED0A4F5405079
:10DFF00002380ED0204604F0DDFC0246012000EB82
:10E000000540434614A103F060FF2146404608F056
:10E0100067FA39464046FFF7CFFF06B03046BDE805
:10E02000F0810126F5E70127F3E714221A49684633
:10E03000F9F798F80220ADF8028000EB054042465F
:10E0400016A103F03BFF6846FEF7DAFAE1E70000AD
:10E0500050C9030050C903006773636D5F6C6F6341
:10E06000616C5F64625F63616368655F7570646162
:10E07000746528292072657475726E656420257335
:10E0800020666F7220636F6E6E5F68616E646C6590
:10E090003A20256400000000147E0300466C617382
:10E0A000682066756C6C2E20436F756C64206E6FF3
:10E0B000742073746F7265206461746120666F727E
:10E0C00020636F6E6E5F68616E646C653A202564D4
:10E0D000000000002DE9FF410026244802F0BAF8B4
:10E0E0002248001F074602F0B5F8214C2149A068DC
:10E0F00000900D6800E000986946284004EB80001D
:10E100000C30FFF74DFD0028F5D101AA009901EA76
:10E11000050304EB8303491CDB6842F82030401CF4
:10E1200000910228F2D3019800F0030001280BD0DF
:10E13000022810D10198032101EB90500099BDF8FD
:10E140000A6001EB900005E00198BDF80A60C0F399
:10E15000831008440090384602F079F808B100981E
:10E16000A06004B03046BDE8F0810000E03A002035
:10E17000C8360020A0240020ACB04FF4804100201D
:10E1800003F016FF08B1FBF7C3FB03F069FD09F0CC
:10E1900033F85F490320FDF717F908B1FBF7B8FB27
:10E1A00069460020FDF742F808B1FBF7B1FB9DF886
:10E1B000000002287ED0002404F08EF808B1FBF79E
:10E1C000A7FB04F001FB08B1FBF7A2FB002769469F
:10E1D0000120009704F088F908B1FBF799FB684625
:10E1E00004F002FA08B1FBF793FBFEF7BDFC002137
:10E1F000484802F0BBF808B1FBF78AFB06F06AFF5B
:10E2000008B1FBF785FB24B107F0DAF908B1FBF799
:10E210007FFB414807F01EFA08B1FBF779FB3F4846
:10E220003F49401AC008032606EB00451CB12846AA
:10E230003CA103F03FFEAC216846F8F7BBFF02208B
:10E240008DF8000001208DF8020006218DF80310E2
:10E2500038490591ADF810604FF49671229144F25F
:10E26000506123918DF87C008DF878003248299018
:10E27000284869462030FBF7D5FE08B1FBF748FB7C
:10E28000244801212030FBF7CAFE22480421203017
:10E2900001F092FB08B1FBF73BFB08F025FB08F00F
:10E2A00053F91C216846F8F785FF4FF4A030CDE9FB
:10E2B000007000E02AE04FF4F020029015488DF83D
:10E2C0000C6050388089ADF80E001C4805901C4841
:10E2D00006908DF810706846FCF732F908B1FBF72C
:10E2E00017FB284617A103F0E5FDFBF7B9FB00BFBC
:10E2F00002F0A8FA082802D008B1FBF709FB03F0E6
:10E30000BDFC0028F4D103F0FBFFF1E7012453E743
:10E3100021B3020064260020DD4A030030CA030056
:10E3200050C90300426F6E64732065726173656447
:10E330002100000070220020E53803005939030055
:10E340008FBC02004865617274205261746520536D
:10E35000656E736F72206578616D706C6520737483
:10E3600061727465642E000070B5144682880E4692
:10E3700005462088111D0144921C994201D8FE2AAD
:10E3800001D90C2070BD521C32542088FF21401C42
:10E3900080B2208031542088401C80B220808119B6
:10E3A000288809F032F92188084480B22080AA88A0
:10E3B00042B1A96841B13044F8F7D4FE2088A98859
:10E3C00008442080002070BD072070BD30B4144682
:10E3D00001291A46214602D030BC00F0D1B930BC28
:10E3E00000F028BC002803D04FF48C7100F07CBEF4
:10E3F00070474FF48C71F8F7DDBE0000F0B5802A4D
:10E4000007D0C02A07D0B2F5807F0BD06FF01F0075
:10E41000F0BD0A2300E00C23036000F10803002490
:10E4200043600AE00E23F7E701EB8405EE782D68E0
:10E4300066F31F6543F82450641CB4EB521FF3D3FA
:10E44000544A0168A2F508500A2904D00C292BD09F
:10E450000E2928D156E0002453F80C5B52F8241002
:10E460004D4002CBC1F30726C1F30747865DC75D68
:10E4700086EA0726754000EB1166367885EA064580
:10E4800050FA81F63678641C85EA06651D6053F8FB
:10E490000C6C6E405E6053F8085C75406940C3E9DF
:10E4A00002510A2CD8D373E05FF000041D6852F8C3
:10E4B00024104D405969C1F30726C1F30747865D13
:10E4C000C75D86EA0726754000EB1166367885EA57
:10E4D000064550FA81F63678641C85EA06659D612A
:10E4E0005E686E40DE619D6875401D62DE686E404C
:10E4F0005E621D6975406940C3E90A511833082CF2
:10E50000D4D345E05FF000051C6852F825104C405C
:10E51000D969C1F30726C1F30747865DC75D86EA5F
:10E520000726744000EB1166367884EA064450FAF8
:10E5300081F6367884EA06661E625C6874405C6226
:10E540009E6866409E62DC687440DC6250FA84F724
:10E550003F781E69C4F3074C7E40C4F3072710F8C8
:10E560000CC0C75D00EB14643F0287EA0C472478B7
:10E570007E4086EA04641C635E696D1C66405E63CF
:10E580009C6974406140C3E90E412033072DBBD321
:10E590000020F0BD10A7030010B504000AD004F15C
:10E5A0002000FFF71FFF2046BDE810404FF4A07188
:10E5B00000F09ABD10BD4FF4A071F8F7FBBD08B58F
:10E5C0000023009300F001F808BD2DE9F0418CB064
:10E5D0009846129F154604460E46B2F5806F04D940
:10E5E0006FF035000CB0BDE8F081B7F5807F02D93F
:10E5F0006FF03700F6E720216846F8F7DBFDE169A8
:10E600002069884201DC606938B13A4641462046BB
:10E6100000F04AF80028E5D12FE077B33A464146AA
:10E620006846FCF7C4FC070034D169462046FDF774
:10E630008CFB07002ED120E01020211811F8012DAD
:10E64000521C12F0FF020A7002D1401E0028F4DCB6
:10E6500008AB224601214046FFF7B8FE070019D15A
:10E66000102D01D9102700E02F463A4608A9304660
:10E67000F8F778FD3E44ED1B01E004F12008002D81
:10E68000DAD169462046FDF760FB070002D1206918
:10E69000401C20612021684600F026FD102108A8BA
:10E6A00000F022FD38469DE72DE9F04104468569DA
:10E6B0004FF4C070E0B016460F46854203D8C5F54A
:10E6C000C071B14204D26FF0370060B0BDE8F08194
:10E6D000804601466846F8F76DFDD4E94E302A467B
:10E6E0006946984710B16FF03300EEE7A5693FB176
:10E6F00036B10DEB050032463946F8F733FD3544A7
:10E7000069462A460846FCF752FC050007D16946CF
:10E710002046FDF71AFB050001D10120206141468A
:10E72000684600F0E1FC2846CFE72DE9FF470446A4
:10E730000020DDF83080009001900290039004F1F9
:10E7400020001F4616460D468146FFF752FEC4E9DB
:10E750004E56A06908B92020A0614FF6F070E06124
:10E76000802269464846FFF749FE002804D1424608
:10E7700039462046FFF798FF04B0BDE8F087000057
:10E78000F0B589B043680093CC780B6864F31F63DD
:10E79000009C019324685C40009B01941B1D009326
:10E7A000CC794B6864F31F63009C029324685C403F
:10E7B000009B02941B1D0093CC7A8B6864F31F634B
:10E7C000009C039324685C40009B03941B1D0093F2
:10E7D000CB7BC96863F31F61009B04911B684B40AE
:10E7E00000990493091D009100684FF0FF3101EB7F
:10E7F0006005FE4800F5806100F5006400F5406E9C
:10E80000E7E01E68019B039FDBB2C7F3074750F8A0
:10E81000233054F827705E40049BDDF810C0C3F32A
:10E820000723CCF3074C51F823307B405E40029B1A
:10E830001F0E73465EF827707E400596009E029F6D
:10E84000361D0096FFB2366850F8277054F82CC079
:10E850007E40019FC7F3072751F8277087EA0C070E
:10E860007E40039F3F0E53F827707E400696009E21
:10E87000039F361D0096FFB2366850F82770DDF80A
:10E8800004C07E40029FCCF3074CC7F3072754F81F
:10E890002CC051F8277087EA0C077E40049F3F0E7A
:10E8A00053F827707E400796009E049F361D009601
:10E8B000FFB2366850F82770DDF808C07E40039F2D
:10E8C000CCF3074CC7F3072754F82CC051F8277036
:10E8D00087EA0C077E40019FDDF81CC03F0ECCF399
:10E8E000074C53F827707E400896009E361D009610
:10E8F000059F3668FFB254F82CC050F827707E4050
:10E90000089FC7F3072751F8277087EA0C077E4056
:10E91000069FDDF820C03F0ECCF3074C53F827705C
:10E920007E400196009E069F361D0096FFB2366817
:10E9300050F8277054F82CC07E40059FC7F3072776
:10E9400051F8277087EA0C077E40079F3F0E53F867
:10E9500027707E400296009E079F361D0096FFB2EC
:10E96000366850F82770DDF814C07E40069FCCF35F
:10E97000074CC7F3072754F82CC051F8277087EAD3
:10E980000C077E40089F3F0E53F827707E40039689
:10E99000009E089F361D00963668FFB2DDF818C04D
:10E9A00050F82770CCF3074C7E40079F54F82CC0DA
:10E9B000C7F3072751F8277087EA0C077E40059FA9
:10E9C0003F0E5EF827305E40009B04961B1D6D1EB7
:10E9D0000093009B002D3FF714AF019D1B68EDB223
:10E9E000039E50F82550C6F307466B40049D54F82B
:10E9F0002660C5F3072551F8255075406B40029DF0
:10EA0000049E2D0EC6F307465EF825506B40059315
:10EA1000009B029D1B1D0093EDB21B6850F8255012
:10EA200054F826606B40019DC5F3072551F8255029
:10EA300075406B40039D2D0E5EF825506B4006938C
:10EA4000009B039D1B1D0093EDB21B6850F82550E1
:10EA5000019E6B40029DC6F30746C5F3072554F897
:10EA6000266051F8255075406B40049D2D0E5EF8D0
:10EA700025506B400793009B049D1B1D0093EDB236
:10EA80001B6850F8250043400398C0F3072051F855
:10EA900020000299C1F3074154F821104840434037
:10EAA0000198000E5EF82000434000980893001D76
:10EAB000009001684E48059B50FA83F31B78079C31
:10EAC0005940089BC4F30744C3F30723045DC35CA8
:10EAD0001B0283EA04435940069B00EB13631B7837
:10EAE00081EA036101910099069B091D0091096863
:10EAF00050FA83F31B78089C5940059BC4F30744E4
:10EB0000C3F30723045DC35C1B0283EA044359403B
:10EB1000079B00EB13631B7881EA03610291009964
:10EB2000079B091D0091096850FA83F31B78059C27
:10EB30005940069BC4F30744C3F30723045DC35C39
:10EB40001B0283EA04435940089B00EB13631B78C4
:10EB500081EA036103910099089B091D00910968EE
:10EB600050FA83F31B78069C5940079BC4F3074473
:10EB7000C3F30723045DC35C1B0283EA04435940CB
:10EB8000059B00EB1360007881EA00600490009818
:10EB9000001D0090019810700198000A50700198B3
:10EBA000000C90700198000ED07002981071010A4C
:10EBB0005171010C9171000ED07103981072010A0D
:10EBC0005172010C9172000ED07204981073010AF8
:10EBD0005173010C9173000ED073042101A800F051
:10EBE00083FA042102A800F07FFA03E010970300E3
:10EBF00010960300042103A800F076FA042104A86B
:10EC000000F072FA042105A800F06EFA042106A8AB
:10EC100000F06AFA042107A800F066FA042108A8A7
:10EC200000F062FA0421684600F05EFA09B00020A4
:10EC3000F0BD0000F0B589B043680093CC780B6854
:10EC400064F31F63009C019324685C40009B019463
:10EC50001B1D0093CC794B6864F31F63009C0293E7
:10EC600024685C40009B02941B1D0093CC7A8B6847
:10EC700064F31F63009C039324685C40009B03942F
:10EC80001B1D0093CB7BC96863F31F61009B04913C
:10EC90001B684B4000990493091D009100684FF0D8
:10ECA000FF3101EB6005FE4800F5806100F500646E
:10ECB00000F5406EE7E01E68019B039FDBB2C7F3DF
:10ECC000074750F8233054F827705E40029BDDF868
:10ECD00010C0C3F30723CCF3074C51F823307B401B
:10ECE0005E40049B1F0E73465EF827707E400596BB
:10ECF000009E029F361D0096FFB2366850F82770BE
:10ED000054F82CC07E40039FC7F3072751F82770A3
:10ED100087EA0C077E40019F3F0E53F827707E4024
:10ED20000696009E039F361D0096FFB2366850F887
:10ED30002770DDF804C07E40049FCCF3074CC7F376
:10ED4000072754F82CC051F8277087EA0C077E403B
:10ED5000029F3F0E53F827707E400796009E049F47
:10ED6000361D0096FFB2366850F82770DDF808C0EF
:10ED70007E40019FCCF3074CC7F3072754F82CC003
:10ED800051F8277087EA0C077E40039FDDF81CC00E
:10ED90003F0ECCF3074C53F827707E400896009E38
:10EDA000361D0096059F3668FFB254F82CC050F807
:10EDB00027707E40069FC7F3072751F8277087EA20
:10EDC0000C077E40089FDDF820C03F0ECCF3074CB7
:10EDD00053F827707E400196009E069F361D0096D0
:10EDE000FFB2366850F8277054F82CC07E40079F59
:10EDF000C7F3072751F8277087EA0C077E40059F65
:10EE00003F0E53F827707E400296009E079F361DE6
:10EE10000096FFB2366850F82770DDF814C07E40C7
:10EE2000089FCCF3074CC7F3072754F82CC051F8C0
:10EE3000277087EA0C077E40069F3F0E53F8277025
:10EE40007E400396009E089F361D00963668FFB2EE
:10EE5000DDF818C050F82770CCF3074C7E40059FB2
:10EE600054F82CC0C7F3072751F8277087EA0C071E
:10EE70007E40079F3F0E5EF827305E40009B049661
:10EE80001B1D6D1E0093009B002D3FF714AF019DCD
:10EE90001B68EDB2039E50F82550C6F307466B4041
:10EEA000029D54F82660C5F3072551F8255075409A
:10EEB0006B40049D049E2D0EC6F307465EF8255058
:10EEC0006B400593009B029D1B1D0093EDB21B68D8
:10EED00050F8255054F826606B40039DC5F3072574
:10EEE00051F8255075406B40019D2D0E5EF8255060
:10EEF0006B400693009B039D1B1D0093EDB21B68A6
:10EF000050F82550019E6B40049DC6F30746C5F39B
:10EF1000072554F8266051F8255075406B40029D36
:10EF20002D0E5EF825506B400793009B049D1B1D22
:10EF30000093EDB21B6850F8250043400198C0F3E0
:10EF4000072051F820000299C1F3074154F821101D
:10EF5000484043400398000E5EF82000434000986C
:10EF60000893001D009001684E48059B50FA83F3FA
:10EF70001B78079C5940069BC4F30744C3F307233F
:10EF8000045DC35C1B0283EA04435940089B00EB09
:10EF900013631B7881EA036101910099069B091DA7
:10EFA0000091096850FA83F31B78089C5940079B2D
:10EFB000C4F30744C3F30723045DC35C1B0283EA65
:10EFC00004435940059B00EB13631B7881EA0361FE
:10EFD00002910099079B091D0091096850FA83F37B
:10EFE0001B78059C5940089BC4F30744C3F30723CF
:10EFF000045DC35C1B0283EA04435940069B00EB9B
:10F0000013631B7881EA036103910099089B091D32
:10F010000091096850FA83F31B78069C5940059BC0
:10F02000C4F30744C3F30723045DC35C1B0283EAF4
:10F0300004435940079B00EB1360007881EA0060AD
:10F0400004900098001D0090019810700198000A2B
:10F0500050700198000C90700198000ED0700298CA
:10F060001071010A5171010C9171000ED071039859
:10F070001072010A5172010C9172000ED072049844
:10F080001073010A5173010C9173000ED0730421A7
:10F0900001A800F029F8042102A800F025F803E0F7
:10F0A0001086030010850300042103A800F01CF85B
:10F0B000042104A800F018F8042105A800F014F8B1
:10F0C000042106A800F010F8042107A800F00CF8AD
:10F0D000042108A800F008F80421684600F004F8AC
:10F0E00009B00020F0BD0000002904D0024B0A4600
:10F0F00000211B6818477047282500202DE9F0479C
:10F10000C5881E1DB6FBF5F78946B6FBF5F104462A
:10F1100005FB176C407916686843DDF820A0F718E6
:10F12000001F874200D9C61A166001E02468491EF4
:10F130000029FBD1A5EB0C078846B74216D818E08A
:10F1400004EB0C00001D09EB0803BAF1000F3A466E
:10F1500002D00146184600E01946F8F703F8246883
:10F16000F61B4FF0000CB844B54201D9374600E019
:10F170002F46002EE4D1BDE8F087000030B50246EE
:10F1800051B102F029FF0021074C08E034F821308A
:10F190001568AB4202D11160002030BD491C81428C
:10F1A000F4D3052030BD000000000000BFF35F8FE6
:10F1B00001F038B8F8B50F46017814460546012924
:10F1C00001D1687830B12088821C9A4232D8012956
:10F1D00002D006E00720F8BD69780144891C9942F5
:10F1E00028D8181A801E86B2ADF800602188B81C95
:10F1F000084469467DDF0028EDD12978022904D032
:10F200006878BDF80020904205D3BDF80000B042F8
:10F2100001D809200AE00820012905D16978B14206
:10F2200002D8ADF8001001E0ADF80060BDF80010A4
:10F23000FE2901D90C20F8BD2288491CB954218827
:10F24000491C89B2218078542088401C2080BDF858
:10F250000010084420800020F8BD0000034A00216F
:10F260009268C0E9002181607047000054230020AB
:10F2700070B586B00D460646144614216846F7F769
:10F2800099FF8DF80050ADF802402046FEF738FB9C
:10F29000ADF80400142269463046F7F763FF06B064
:10F2A00070BD70B54FF6FF750E46A84201D1002023
:10F2B00000E0401C84B208E02146304600F0B2FF76
:10F2C00008B1204670BD641CA4B2FF2CF4D92846B6
:10F2D00070BD10B51C46934200D914462246F7F77C
:10F2E00041FF204610BD10B51C46934200D914467C
:10F2F0000A462146F7F757FF204610BD0B4900F19B
:10F30000100213464A610A6913448B6128B14FF415
:10F310007C73CB614FF4806301E00023CB61C01CA0
:10F32000104480080B6281F869007047F83B0020A8
:10F3300070B50D4D0D4A00212C7800BF01EB410343
:10F34000D65CA6420AD113445B78834206D101EB16
:10F350004100104480782870002070BD491C0E299F
:10F36000ECD3082070BD0000F83B002030250020C1
:10F3700070B50446022920D10620FFF7D9FF0028E6
:10F380001BD10E4964784B69A2002046934208D8ED
:10F390008D69103D954204D3C968C3EB84000844CD
:10F3A00003E000F017F805483830102100F000FEA7
:10F3B0002046BDE8704000F0B3B870BDF83B0020B7
:10F3C000034902684A6242688A62008988857047F8
:10F3D000F83B00202DE9F041334E840010252946EA
:10F3E0003046F7F7E7FEA6F138077869A0420BD957
:10F3F000021B39192B4630462431FFF76AFFD0F142
:10F400001005044406444CD0B869A0420CD9786970
:10F410003969201A0A1AF9682B4601443046FFF769
:10F4200058FF2D1A04440644002D3AD0B869A04272
:10F430000ED1396A61B1F969884209D02B4601229F
:10F44000FE213046FFF74FFF2D1A0444064428D012
:10F45000F869A04209D9021B2B4600213046FFF76C
:10F4600042FF2D1A044406441BD0386AA04210D92A
:10F47000021B2B46FF213046FFF735FFF969611A61
:10F48000C1F10E01A94201D83F2272542D1A06443F
:10F4900007D02B463046BDE8F0411A460021FFF761
:10F4A00022BFBDE8F0810000303C002070B50C4662
:10F4B0000546914201D90C2070BD0120FFF738FFAD
:10F4C00008B1082070BD05B900240248C0E9035402
:10F4D000002070BDF83B002070B5002103230A46D0
:10F4E0000C460E4801260CE006FA03F50D43E9B27E
:10F4F0005B1E05D5831883F8481007230021521C92
:10F50000641C90F86950A542EEDC024482F8481071
:10F51000002100F8681F817070BD0000F83B0020DA
:10F52000F0B5C208514200EBC1010024124BC1F1F9
:10F5300007010125042813D305FA01F603EB020C99
:10F54000F7B29CF848603E4204D0BE438CF8486055
:10F550002E4600E0002693F868703E4483F8686009
:10F56000491E01D50721521C401C10F0FF0002D09B
:10F57000641C042CDEDBF0BDF83B00202DE9F047D5
:10F580000446904625790020627BED1C05E0236946
:10F590006D1C13F83030401C1D448242F7DCA9B3C7
:10F5A000D8F80000A84202D20420BDE8F0872078F5
:10F5B000820801D00720F8E701F8010B207901F853
:10F5C000010B0E4622793046A168F7F7CBFD207972
:10F5D00000270644607B06F8010B4FF0040912E097
:10F5E000206909EBC70110F8370006F8010B206904
:10F5F00010F8372041583046F7F7B4FD206910F86D
:10F6000037007F1C0644607BB842E9DC0020C8F864
:10F610000050CAE72DE9F041BEB0054630208DF814
:10F620001C00312090460C468DF820001E46142206
:10F630004B4909A8F7F796FD07A80B9038A8484949
:10F640000D90182214310EA8F7F78CFD09A8444933
:10F65000139014222C3114A8F7F784FD08A81690F3
:10F660003AA83F4918901822403119A8F7F77AFDB7
:10F670003B4914A82C311E90D1E90C01CDE92001A1
:10F680003CA81F90364836495438182240682290CA
:10F690001FA8239064316846F7F764FD22A80590FF
:10F6A0000EA9684600F0F4FA00284CD119A9684662
:10F6B00000F0EEFA002846D19DF81C008DF8A80055
:10F6C00008B1012700E00027254918227C3124A831
:10F6D000F7F748FD2AA88DF89170259029959DF897
:10F6E00020008DF8180008B1012700E000271C4910
:10F6F000182294312FA8F7F735FD19498DF8BD7000
:10F7000006A8AC3134943090D1E90101CDE92D0146
:10F7100035A82C9069462CA800F05FFB002812D178
:10F7200024A92CA800F059FB00280CD12FA92CA843
:10F7300000F053FB002806D125B11CB10948007820
:10F7400020B107E00E203EB0BDE8F0810021084660
:10F7500000F0A6FC324641462CA800F005FBF2E77B
:10F7600090830300082500202DE9F041A0B0044655
:10F77000178890460D460026ADF800603C222146D1
:10F7800001A8F7F7EFFC8DF832600E960D968DF814
:10F79000316001963C2110A80F96F7F70BFD3C2233
:10F7A00001A910A8F7F718FD18B1072020B0BDE88F
:10F7B000F081606B00B30178BDF8000025B1C21C78
:10F7C000BA4203D90C20F1E7C01C13E002232B54EA
:10F7D000BDF800001123401C80B2ADF800002B548E
:10F7E000BDF80000401C80B2ADF800002954BDF8FF
:10F7F0000000401CADF80000A06B30B13B466A46EB
:10F800002946FEF79BFA0028D0D1206B30B13B4649
:10F810006A46294607F028FD0028C7D194F82E0033
:10F8200030B13B466A462946FEF737FA0028BDD17B
:10F830008DB1BDF8000001AA391AADF804102918DD
:10F840002046FAF7F8FABDF80010BDF8042011447C
:10F85000A8F80010AAE794F82D10002021B1BDF8F7
:10F8600000100931ADF80010A17821B1BDF80010E9
:10F87000091DADF80010E17821B1BDF80010C91CD8
:10F88000ADF80010217869B10020C9B201290ED06D
:10F8900001A97DDFBDF80410BDF80020891C1144CA
:10F8A000ADF80010BDF80020A8F800207EE76178D0
:10F8B000ADF80410EEE700007FB505283DD24FF407
:10F8C000807101251E4E03AC0391052835D2DFE877
:10F8D00000F0160316071A001A4B002202951CE0CE
:10F8E00000F05CFF002824D100F070FF020022D05D
:10F8F000144B00940021084600F028F813E0114B47
:10F9000000220094F6E700F049FF002811D100F032
:10F910005DFF02000FD00B4B0295CDE900460A496E
:10F92000002000F07BF8002803D10648039900F07E
:10F930006DFB04B070BD0E20FBE70720F9E7000067
:10F94000FC240020E83A0020E83B002070B59EB07F
:10F950000E461D460100229C13464FF0000015D0B4
:10F9600001291ED002290FD16A4619463046FEF7FA
:10F9700088F90FAA00213046FCF7CEFC23462A4620
:10F980000FA96846FFF746FE1EB070BD6A461946CD
:10F990003046FEF776F922462946684600F0B6F86A
:10F9A000F2E70FAA00213046FCF7B6FC22462946B2
:10F9B0000FA800F075F8E7E710B50C46052901D34C
:10F9C000072010BD20B3134948604C70002001F09F
:10F9D000A9FB082803D0852801D00028F1D10021F7
:10F9E0000D4800F033FB0028EBD1204605F052FE15
:10F9F0000028E6D100F0D2FE08B1F9F789FF2046D1
:10FA0000FFF75AFF0028DCD1BDE8104000F06CBAC7
:10FA10000E2010BDF424002079FB02002DE9F843EC
:10FA200088468146DDE90901094C17460122089DF7
:10FA30001E46227000F034FB33463A4641464846A3
:10FA40000095FFF783FF00212170BDE8F8830000D7
:10FA500008250020114A10B552780021042A1BD134
:10FA600060B1816809784B070C4901F10C010A78F3
:10FA700006D522F0820242F0040205E00E2010BDFD
:10FA800022F0040242F082020A700449C2684088EF
:10FA90000C3105F001F80146084610BDF4240020A1
:10FAA000F0B50E4617498BB00446D1E90D01CDE9FA
:10FAB00007010AA813491546002706908DF82470FF
:10FAC00018223C316846F7F74DFB09A88DF8017004
:10FAD00001906946059406A800F07FF9002805D139
:10FAE0001CB10948007818B106E00E200BB0F0BD3B
:10FAF0000021084600F0D4FA2A46314606A800F054
:10FB000033F9F3E73C83030008250020F0B50E46E7
:10FB100017498BB00446D1E90401CDE907010AA8D1
:10FB200013491546002706908DF8247018221831C5
:10FB30006846F7F717FB09A88DF801700190694630
:10FB4000059406A800F049F9002805D11CB1094820
:10FB5000007818B106E00E200BB0F0BD0021084679
:10FB600000F09EFA2A46314606A800F0FDF8F3E7B9
:10FB70003C83030008250020F8B5012930D1194D38
:10FB80006878012801D004281BD1174E102468463C
:10FB900001F0B8FA9DF80000102800D8044621466C
:10FBA000304601F0EBFA08B1F9F7B2FE002000E0B0
:10FBB000401CA042FCD30C4800F07AFA08B1F9F7D7
:10FBC000A7FE287800280BD103216868FAF7F8FA15
:10FBD000082805D0002803D0BDE8F840F9F798BE02
:10FBE000F8BD0000F4240020E83B00202DE9FE438E
:10FBF0000C46034690F82D100026072017460129D1
:10FC000037D093F82E10002933D1596B002930D00A
:10FC1000D9784FF0000909B149072AD574B138687D
:10FC2000082825D3083804F10806ADF80800B0F517
:10FC3000803F03D34FF6FF70ADF8080002AA3146AB
:10FC40001846FFF791FD5FEA000812D1BDF80800E1
:10FC5000083085B2CCB104F8015B280A04F8010B26
:10FC6000301B80B2CDF80090CDF80490062802D267
:10FC70000420BDE8FE8368466DDF0028F9D1DDF879
:10FC800001002060BDF80500A08040463D60F0E71F
:10FC90004069406800F0A1B810B5144661B122680F
:10FCA000AAB14378027803F00F0343EA021201F885
:10FCB000012B2268521E22604068224600F054F850
:10FCC000002803D12068401C2060002010BD0420C3
:10FCD00010BD38B51446034690F82D200720002AA1
:10FCE0001BD093F82E20002A17D05A6B002A14D16B
:10FCF000DA780AB1520710D52068ADF80000B0F5E7
:10FD0000803F03D34FF6FF70ADF800006A461846F7
:10FD1000FFF72AFDBDF80010216038BD70B5040062
:10FD200012D00A4D286868B1696859B1102204F1EF
:10FD30001701F7F717FA1022E11D6868F7F712FAB2
:10FD4000002070BD082070BD0E2070BD0C25002065
:10FD500028B121B1034AC2E90001002070470E20FA
:10FD6000704700000C2500202DE9F8439046894695
:10FD700007004FF0000606D0B8F1000F03D03D6831
:10FD80000DB1002422E00E20BDE8F88324B1611CEF
:10FD9000884207D1402106E0012801D0802102E0FD
:10FDA000C02100E00021D8F800006B46801B0090C5
:10FDB0004A46286800F01FF80028E5D10098B9F1FC
:10FDC000000F064400D08144641C2D1DB868A04279
:10FDD000DCD80020C8F80060D6E7D0E901329A42AA
:10FDE00001D304207047036843F822108168491C3E
:10FDF0008160002070472DE9F843144698460A4672
:10FE000005004FF000074AD06878297A4618B61DD9
:10FE100000B1761C8CB332F0C00002D00720BDE8E0
:10FE2000F883D8F80000B04201D20420F7E722702E
:10FE30002B78601C1A4322702A7A00F8012B214685
:10FE40000746041D687828B104F8010B087840F0D3
:10FE5000080008702A7A2046E968F7F783F9287ABB
:10FE60006A7804442AB120466968F7F77BF9687814
:10FE70000444D8F80000801B00902B697BB16A46CF
:10FE80002146686998470028C9D114B1009800BA82
:10FE90003860009831180020C8F80010BFE70E2025
:10FEA000BDE700000068022803D0042804D101F057
:10FEB00091B8024801F0AAB8704700001C25002044
:10FEC000084810B5064941600021016001F0CCF8F6
:10FED000852803D0002800D0032010BD002010BDCD
:10FEE0006DBA02001C25002010B50420FFF720FA8F
:10FEF00008B1082010BD00F087F8002010BD0000F8
:10FF000010B518B10A2902D00C2010BD0248FFF725
:10FF100057FA002010BD000038A70300FEB52248A4
:10FF200047780A2F23D0214A0324072F16785578C3
:10FF30009378D1788DF800608DF8015086EA05003D
:10FF40008DF802301AD04B4058408DF803108DF8D0
:10FF50000400FF2204210DF10500F7F724F900BF8A
:10FF60008DF809400A216846FFF7CAFFFEBD03B0BD
:10FF70000A21BDE8F0400D48FFF7C2BF83F08803B7
:10FF800058408DF803008DF8041013798DF8053072
:10FF900050798DF8060092795940504041408DF8D3
:10FFA00007208DF80810DBE75C250020743C00205A
:10FFB0001CB5CDE900100321684603F0A9F81CBD6B
:10FFC0001CB50E4BD3E90223CDE900230C4AC2E94C
:10FFD0000101507838B9072050700A21094802F011
:10FFE000F3FF002808D1FFF799FFFFF769FF00280A
:10FFF00002D1684602F07CFF1CBD000044A703004C
:020000040003F7
:100000005C250020743C002002F084BE10B54FF443
:100010007772FFF74BFA040013D10B4803220169F2
:1000200000F8342FFE2902D84170022005E0FF229B
:1000300042700A0A8270C1700420FFF75FF9FFF76F
:100040004BFA204610BD0000F83B002070B50E466C
:10005000050005D00020FFF76BF918B1082070BD2E
:10006000072070BD0B4C0C48C4E901561434FFF74F
:10007000A7F9FF20A076E076E120207710206077B6
:100080007C20A0770F20E077BDE87040014903484D
:10009000FFF796BFF83B002038A70300399702000E
:1000A000024A106000201071517170471425002021
:1000B00070B50A4D0646286808B1002409E00E20F4
:1000C00070BD286850F82410304600F01BF8641CFE
:1000D000E4B22879A042F4D8002070BD1425002095
:1000E000074A10B513683BB111795479A14205D282
:1000F00043F82100491C1171002010BD042010BDDF
:10010000142500200022835C521CD2B201F8013B6E
:10011000102AF8D3704710B5F6F7C7F808B10020D9
:1001200010BD112010BD10B531B1B2FBF3F403FBCB
:1001300014241CB1092010BD0E2010BD0160002147
:10014000416081608281C381084610BD70B50C4654
:100150000546F6F75FF8002802D021882868084491
:1001600070BD10B50A8849888A4203D1F6F794F821
:10017000012010BD002010BD70B50C460546F6F7F5
:100180006EF8002802D061882868084470BD10B558
:100190000A8849888A4203D1F6F758F8012010BD31
:1001A000002010BD01F01F0301229A40D2434909EB
:1001B00000EB8100114600F059B80A4601F01F0318
:1001C0000121994010B552090C4600EB820000F065
:1001D0005DF8204000D0012010BD2DE9F04180469F
:1001E0000D460024481E012101EB501716E058F877
:1001F0002400C04390FAA0F0B0FA80F020280CD27E
:1002000000EB4416AE4208D231464046FFF7D5FF18
:100210000028ECD13046BDE8F081641CA742E6D846
:100220002846F8E74A0950F8220001F01F02012190
:100230009140084000D00120704701F01F030122C7
:100240009A40490900EB8100114600F029B80021CD
:1002500000F017B8012100F023B8012100F016B812
:1002600008B56A46F6F76DF8009808BD08B56A4605
:10027000F6F74DF8009808BD08B56A46F6F761F83C
:1002800008BD08B56A46F6F742F808BD08B56A46E3
:10029000F6F730F808BD08B56A46F6F71FF808BD4E
:1002A00008B56A46F6F726F8009808BD08B56A460C
:1002B000F6F754F8009808BD38B5044600258DF8C7
:1002C00000506846F9F78EFB216862680868904222
:1002D0000ED9401E08600178238AE26801FB0325DD
:1002E000227A2168101AC0B20A79824200D20871BB
:1002F0009DF80000F9F79AFB284638BD38B5054649
:1003000000208DF800000C466846F9F76BFBE868A2
:10031000298A201AB0FBF1F12A681068431C136087
:1003200001709DF80000F9F781FB38BD10B530B1C0
:10033000017A42680368891AC9B21A6006E00E2081
:1003400010BD03681A68541C1C601170491EC9B2A4
:10035000F7D2006800210171084610BDC20800F004
:1003600007030120895C98400840704710B560B1D0
:100370000161172120F8021B20F8021B1B2100F845
:10038000021BFDF71FFD002010BD0E2010BD000058
:1003900070B585880C46002D4FD1018824291FD0C7
:1003A00006DC102909D011290CD0232921D11CE009
:1003B0003A290BD055291CD10DE00146204603F007
:1003C000D9FA16E0A01DFDF7FDFC12E0014620461B
:1003D00003F042FD0DE00146204603F097FC08E0E3
:1003E0000146204603F04AFB03E00146204603F0A5
:1003F000CFFBA07A002820D0E1882846A5DF0F494E
:100400000F4A0126891ACD0858B1112815D002F0DB
:10041000D1FA024606EB0540BDE8704009A101F0A3
:100420004DBD0023A372E6720420E28800EB054074
:10043000BDE87040104901F048BD70BD68C90300B7
:1004400050C9030073645F626C655F6761747463B5
:100450005F65786368616E67655F6D74755F72650F
:10046000717565737428292072657475726E656480
:100470002025732E000000001CAB030010B54C219A
:100480001448F6F797FE00F045FC040012481349A3
:10049000A0EB01004FEAD00108D0012000EB0140A1
:1004A00022460FA101F00AFD204610BD042000EBFA
:1004B000014415A1204601F0FDFC204618A101F0E1
:1004C000F9FC1E49002008704870BDE8104000F09B
:1004D00037B80000EC2D002070C9030050C903009C
:1004E0006E72665F63727970746F5F696E6974288B
:1004F000292072657475726E6564206572726F7200
:1005000020307825782E0000496E697469616C6925
:100510007A6564206E72665F63727970746F2E0004
:10052000496E697469616C697A6564206E72665F90
:10053000626C655F6C6573632E000000B82200205A
:10054000F8B524494020009091F84910002009B1E5
:100550001120F8BD204E22497070B0701F48401A1B
:10056000C408042000EB04401EA101F0A3FC194BB9
:100570002249483BA3F1480206F1080000F0F0FAD6
:100580004FF00107050007EB044403D020462A463C
:100590001BA10BE00F496A46F03901F1A80000F0F9
:1005A00047FB050005D020462A4623A101F086FC22
:1005B0000DE0084A4023F03A1146104800F0A6FA30
:1005C000050003D020462A4629A1EFE77770284688
:1005D000F8BD0000EC2D0020B822002070C90300F7
:1005E00050C9030047656E65726174696E67204586
:1005F0004343206B6579207061697200E87F0300D6
:100600006E72665F63727970746F5F6563635F6B50
:1006100065795F706169725F67656E657261746547
:1006200028292072657475726E6564206572726F18
:100630007220307825782E006E72665F6372797052
:10064000746F5F6563635F7075626C69635F6B6530
:10065000795F746F5F726177282920726574757293
:100660006E6564206572726F7220307825782E0076
:100670006E72665F63727970746F5F6563635F62E9
:100680007974655F6F726465725F696E76657274A6
:1006900028292072657475726E6564206572726FA8
:1006A0007220307825782E002DE9F04704468688A0
:1006B000008811281BD0182826D11F481F49401A2E
:1006C0004FEAD008042000EB08401DA101F0F2FB26
:1006D000207B234DC0074FF0010724D0A87800B13C
:1006E0002048E968814689B1304688470FE006EB2B
:1006F000460101EB06121B4900204C3901EB820137
:1007000081F8490081F84800BDE8F08700200246E2
:100710004946304684DF020005D007EB084012A1AD
:1007200001F0CCFB2F7004F10801304603F06EFAA3
:100730000028E9D02F70E7E770C9030050C9030013
:10074000424C455F4741505F4556545F4C455343CB
:100750005F44484B45595F5245515545535400003D
:10076000B8220020382E002073645F626C655F67DA
:1007700061705F6C6573635F6F6F625F646174610A
:100780005F73657428292072657475726E656420C4
:100790006572726F7220307825782E0010B5094C82
:1007A00000210820A1706178002909D0064A4FF67F
:1007B000FF70A2F59E7183DF002801D10121A17095
:1007C00010BD0000B8220020382E0020094810B5C6
:1007D0008078002408B1084C09E008480849401A0C
:1007E000C008012101EB0040064901F063FB2046EF
:1007F00010BD0000B8220020382E002070C9030070
:1008000050C903005CAC0300094810B540780024CF
:1008100008B1084C09E008480849401AC0080121FD
:1008200001EB0040064901F045FB204610BD0000E9
:10083000B8220020FC2C002070C9030050C903001E
:10084000A0AC03002DE9F04110490020097811B156
:100850000320BDE8F08100240D4F264604EB44013F
:1008600001EB041107EB810595F8481041B12846CA
:100870002146FBF72DF905F8486F00286E70E8D186
:10088000641C2404240CE9D0E3E70000B822002013
:10089000EC2D002020B10278DE2A03D0082070471A
:1008A0000E20704741800020704760B159B1027836
:1008B000DE2A0AD009684160DE2101704FF6FF711F
:1008C0004180002070470E207047082070477FB598
:1008D000054600294DD0002D4BD008780C46DE2867
:1008E00047D1A8886188884202D1204606F05AFF85
:1008F0002888012825D002283BD011283AD0512839
:1009000037D135F8040F6188884232D1A978A81C04
:1009100002292ED1017A042903D0062901D0052904
:1009200027D10021009102228DF8002001914FF47F
:10093000C07202910391ADF80420007A05280FD00F
:1009400010E0297A2046012913D1A98842889142D2
:100950000FD10121017204B0BDE8704006F022BF42
:10096000ADF8041028886946B0DF002801D061681E
:1009700088477FBDA88861888842FAD14FF6FF700A
:1009800060807FBD00F180400068002800D0012019
:10099000704708B500F180400021016000680090B8
:1009A00008BD10B5184608310832F6F725FE0020BC
:1009B00010BD70B50C4604F108001546202106460E
:1009C00002F08EFF002810D114F8080F314600F015
:1009D000F8002070E07F00F07F0040F04000E077FA
:1009E00005F10800F6F7DCFE002070BD10B502F13D
:1009F00008000831F6F7D4FE002010BD70B50C4693
:100A000004F1080015462021064602F069FF00287F
:100A10000CD104F1280031460446F6F7EFFF2022FE
:100A2000214605F10800F6F79DFB002070BD70B56A
:100A30000446083020220546F6F794FB294604F1C7
:100A40002800F6F7DBFF002070BD104610B520220D
:100A500008302831F6F786FB002010BD024A20231B
:100A6000A2F1200100F0AFBA1480030010B5426873
:100A70000830936852799847002010BD10B50C4695
:100A800041684A798B6800F10801204698470020A8
:100A900010BD10B5426808309368927998470020DD
:100AA00010BD10B50C4641688A798B6800F10801C9
:100AB00020469847002010BD10B51846083108326E
:100AC000F6F76CFF002801D048F2165010BD70B543
:100AD00001F1080014460546FFF7C0FF002808D1C1
:100AE000294604F10800F6F775FF002801D048F206
:100AF000165070BD10B502F108000831F6F76AFF14
:100B0000002801D048F2165010BD0000F0B540B1E9
:100B100090F8054048F21150002B06D019B12AB1C7
:100B200017E01C46F6E748F21050F0BD48F21350AB
:100B3000F0BD0026651E07E08F5D11F805C002F8C4
:100B400006C057556D1E761CAE42F5D91B1B2144BD
:100B50002244A342EDD2002BEAD10020F0BD0000D8
:100B60002DE9F041884606466C4617461D4611465B
:100B7000404600F0FBF80028A54616D1294640461D
:100B800000F0F4F80028A5460FD198F804001449A5
:100B900051F820C00C39BCF1000F31F8100001D021
:100BA0002EB10CE0A54648F20350BDE8F08130B10B
:100BB000C01D20F00700ADEB000D6E4666B11A4671
:100BC00039463046E04708B1A546EEE705493960A9
:100BD000891FA5462960E8E748F21550A546E4E7D5
:100BE0007C7F03007652464D70B516460C4605468E
:100BF00000F0BCF8002812D1AA791946304600F05E
:100C0000C2F800280BD12879074951F820203AB1C1
:100C1000314620469047002801D10449216070BD2B
:100C200048F2035070BD0000AC7F03007052464D87
:100C300070B50D46144603460C4900F08BF80028A9
:100C400013D15E6821462846B27900F0A7F8002843
:100C50000BD13079064951F8202022B12946BDE850
:100C600070401846104748F2035070BD7052464D10
:100C7000B87F03002DE9F0476C46884605460E46CE
:100C80009946174621494046D4F820A000F062F862
:100C90000028A5460ED11D493846891F00F05AF894
:100CA0000028A54606D176687868864204D0A54615
:100CB00048F24150BDE8F08772795146484600F04D
:100CC0006DF80028A546F5D13079114951F820601A
:100CD000091F31F810000EB125B10BE048F20350A6
:100CE000A546E7E730B1C01D20F00700ADEB000DD1
:100CF0006D4635B14B463A4641462846B047A54673
:100D0000D8E748F21550A546D4E700007652464D84
:100D1000E07F03002DE9F0410B480C4D0C4F401BC8
:100D2000C60801203870002406E000BF55F83400E2
:100D30008047002805D1641CB442F7D302203870E4
:100D40000020BDE8F081000040C9030038C903005D
:100D5000B023002028B10068884205D048F24050F6
:100D6000704748F2105070470020704728B139B1E1
:100D70000022C1E900201046704748F21050704729
:100D800048F21350704720B1914205D048F21150FB
:100D9000704748F2105070470020704730B149B199
:100DA0000868904205D248F21450704748F2135038
:100DB00070470A600020704705480178022904D076
:100DC0000078012801D00020704701207047000002
:100DD000B023002038B5041D002000F0A3F900283E
:100DE0000ED12046FDF7E7FB0020034602460090A7
:100DF00004492046FDF799FCBDE8384005F04CB8A1
:100E000038BD00000BC3020010B511461A46001D84
:100E1000FDF74AFCBDE8104005F03EB810B5001DD6
:100E2000FDF7BAFB00F0DAF9002010BD10B5001D87
:100E3000FDF7C5FBBDE8104005F02EB82DE9F041E7
:100E40006C460D46074601F08FFD70B11B481C49EA
:100E5000401AC008012101EB00401AA101F02AF854
:100E6000A54648F21950BDE8F081FFF7A5FF48B14B
:100E70001B4A1C4E106848B15068B04206D1002091
:100E8000A546F0E74FF40540A546ECE748F21750B9
:100E9000002FA546E7D1002DA546E4D11049124800
:100EA000083115461060FFF795FF0028A546DAD1F6
:100EB0006E602A680D491160A546D4E730CA030068
:100EC00050C90300537461636B206F766572666C62
:100ED0006F772064657465637465642E000000009C
:100EE000B42300206572E54B6C3000206169614DD0
:100EF0002DE9F0416C4615460E46074601F034FDDB
:100F000070B116481649401AC008012101EB004093
:100F100014A100F0CFFFA54648F21950BDE8F081BA
:100F200005B146B11648174A4168914207D048F2C8
:100F30000250A546F2E748F21050A546EEE71FB171
:100F400048F21750A546E9E70D492B4608313246CD
:100F50000068FFF759FFA546E0E7000030CA03002C
:100F600050C90300537461636B206F766572666CC1
:100F70006F772064657465637465642E00000000FB
:100F8000B42300206572E54B0A4930B40A4B486827
:100F900048F20252984204D10868084C0368A34200
:100FA00002D030BC10467047002202604A6030BC5C
:100FB000FFF734BFB42300206572E54B6169614DD2
:100FC0000122FCF7CFB838B501240094FCF7FEF8F5
:100FD00038BD000038B500258DF800506846F8F798
:100FE00001FD094C6068401E6060606838B901F01E
:100FF00037FC08B143DF01E001F032FD65709DF878
:101000000000F8F713FD38BDB0310020F8B5154DDC
:1010100004466878002648B114B16168002088470A
:101020008DF800606846F8F7DDFC13E08DF800608D
:101030006846F8F7D7FC24B10A4821460830FCF787
:1010400015FE686830B901F00BFC08B142DF01E021
:1010500001F0FAFC6868401C68609DF80000F8F731
:10106000E5FCF8BDB031002070B50D4C01252078AD
:1010700008B185260EE00020A06060602061E0607D
:10108000084801F00BFD064601F0EAFB08B901F043
:10109000C5FC257001F0BAFC00B1A570304670BDEA
:1010A000B031002079BA020038B500258DF8005023
:1010B0006846F8F797FC084CE068401EE060E0687E
:1010C00028B901F0A3FC10B901F0F8FCA5709DF857
:1010D0000000F8F7ABFC38BDB031002070B50C460D
:1010E00006460CE0402C01D2254600E04025E9B23E
:1010F000304600F043F80028F9D1641B2E44002C40
:10110000F0D170BD10B5044601F0AAFB18B120461D
:1011100030DF002803D0024801F0B3F9207010BD81
:101120006CCA030038B5124C0025217809B185201E
:1011300038BD00B90F480088A4F8010000208DF8E0
:1011400000006846F8F74EFC01F08AFB38B90A49FE
:10115000601C02F04BF80500EAD102F073F80120A0
:1011600020709DF80000F8F761FC284638BD0000AB
:10117000C023002034800300B53103002DE9F8437B
:101180000F468046002542F2070600BF8DF800504A
:101190006846F8F727FC01F063FB58B19DF80000A2
:1011A000F8F744FC3946404631DF0446B0420DD1E1
:1011B00005240DE03A464146074801F032F904465D
:1011C00002F040F89DF80000F8F730FC022CDDD06A
:1011D0002046BDE8F88300006CCA030038B500243F
:1011E0008DF800406846F8F7FDFB01F039FB18B9AF
:1011F00002F038F802F040F89DF80000F8F716FC0D
:10120000024801F02DF90248047038BD6CCA030091
:10121000C0230020F0B505460478154889B016466D
:1012200040F82420124A0869121DA2F1080742F86A
:101230002400487F385520226846F5F793FF049430
:101240002878385C48B10EB10A4A00E000226946AD
:10125000281D02F01BFA09B0F0BD0EB1064A00E0ED
:101260000022694605F10C0002F0DAF8F3E700000D
:10127000C8230020C9740300117303000FB408B51C
:101280000399002904D004AA00926A4600F00FF8DE
:1012900001B05DF814FB10B582680446002A05D041
:1012A000D4E90403216898470020A06010BD2DE90F
:1012B000FC4791460C00804676D014F8011B39B1EA
:1012C00025290ED04046FAF7FBF920780028F4D102
:1012D00098F80C00002867D04046BDE8FC47FFF7AF
:1012E000DABF0020012221782B291BD02D2902D022
:1012F000302908D102E040F0010001E040F0020096
:10130000641C002AEFD100252A290ED02178A1F1F2
:1013100030020A2A11D205EB850201EB4205641C5A
:10132000303DF1E740F00400EAE7D9F800100B1D6A
:10133000C9F800300968641C0D44217800232E2967
:101340000BD114F8011FA1F130020A2A05D203EBD8
:10135000830201EB4203303BF3E76C290DD068298F
:101360000BD0692921D00BDC252918D0582931D080
:1013700063290ED0642915D117E014F8011FECE79A
:10138000702969D0732932D075291BD0782909D1E9
:1013900020E0D9F80000011DC9F80010017840468E
:1013A000FAF78EF9641C90E76CE0D9F800100A1D7A
:1013B000C9F800200968CDE900500A224046FCF730
:1013C00057FBEFE7D9F800100A1DC9F8002009689B
:1013D0000A2206E0D9F800100A1DC9F800200968A1
:1013E0001022CDE90050404606F024F9DAE7D9F89A
:1013F000001000270A1DC9F800200E68C00705D19B
:1014000012E04046761C7F1CFAF75AF93178002921
:10141000F7D104E0202140466D1EFAF751F9BD4294
:10142000C0D9002DF6D1BDE74EB13046F5F7CDFE5F
:10143000074604E0202140466D1EFAF741F9BD42FF
:1014400006D9002DF6D103E04046761CFAF738F9AC
:1014500031780029F8D1A5E7D9F80000011DC9F8B5
:101460000010056830214046FAF72AF978214046F5
:10147000FAF726F908200021CDE9000103461022E1
:101480002946B0E7BDE8FC872DE9F843884605000A
:101490002C482D499946A0EB01004FEAD0004FF0AF
:1014A0000101164601EB004424D0286800282CD006
:1014B000002E34D0696840464FF010070A68511E6C
:1014C00011EA080F11D1014672432846F8F7DBF8FC
:1014D00000282ED028684B463246046901B04146A8
:1014E0002846A446BDE8F04360472046174B18A2A3
:1014F000009722E00E2000902046144B1EA220A14F
:1015000000F0EBFC0E20BDE8F88308200090204698
:101510000E4B26A21AA100F0E0FC0820F3E70920F8
:1015200000902046094B24A215A100F0D6FC09200A
:10153000E9E7064B214A2046009711A100F0CDFCB7
:101540001020E0E718CA030050C903003B810300E4
:10155000616464725F69735F706167655F616C6924
:10156000676E656428705F66732C20706167655FC5
:101570006164647229000000705F667300000000FF
:10158000257320636865636B206661696C65642000
:10159000696E202573282920776974682076616C2C
:1015A000756520307825782E00000000705F667326
:1015B0002D3E705F617069006C656E001CB70300A2
:1015C00038B503001148124D4FF00E04A0EB050092
:1015D0004FEAD0004FF0010505EB004009D061B1A2
:1015E00019600C6801B0A446BDE8304011461846A9
:1015F0006047084B08A2009402E0064B08A2009442
:1016000009A100F06AFC0E2038BD000018CA0300D2
:1016100050C90300F0800300705F66730000000093
:10162000705F617069000000257320636865636BFB
:10163000206661696C656420696E20257328292005
:10164000776974682076616C756520307825782E0E
:1016500000000000044801214174007A08B1002014
:10166000704701207047000010350020012801D08C
:10167000032808D10449002201284A7400D0002020
:10168000087404F0A7B970471035002070B5024601
:10169000022801D0032A45D1234C207A002841D0CA
:1016A000012833D0022831D120480023022A0068C3
:1016B00002D0032A2AD11BE0E360017911B101298C
:1016C00024D10DE0D0E90565711B4FF48056B1427D
:1016D00000D33146294481614569A9420ED015E005
:1016E0000169491C0161426991420FD1237213E0E3
:1016F000E168491CE160082908D9E3602372022AE5
:101700000AD00D21FAF782FE04F008F9607C28B1B6
:10171000BDE8704001F0AAB80021F3E7BDE87040D1
:1017200004F058B970BD000010350020702400206E
:101730002DE9F84F90468A463A493B4A0500A1EB0D
:1017400002014FEAD1014FF00102DDF828901E4658
:101750004FF00E0002EB01441AD0B8F1000F1CD07C
:101760002868002822D00920002E29D069684968FD
:10177000B6FBF1F201FB1261002926D000902B4B41
:1017800020462BA235A100F0A8FB0920BDE8F88F68
:1017900000902046254B3CA203E00090234B2046BE
:1017A0003BA22EA100F099FB0E20EFE7082000904D
:1017B00020461E4B38A229A100F08FFB0820E5E748
:1017C00000902046194B37A2DCE75046F7F755FF4B
:1017D000102798B14046F7F750FFA0B13246514666
:1017E0002846F7F750FF98B1CDF8009028683346A7
:1017F0004246C46851462846A047C7E720460B4BDF
:1018000029A2009708E02046084B2DA2009703E08C
:10181000064B204633A2009710A100F05EFB10207B
:10182000B4E7000018CA030050C903002881030070
:1018300021286C656E202520705F66732D3E705FD9
:10184000666C6173685F696E666F2D3E70726F675C
:1018500072616D5F756E69742900000025732063E5
:101860006865636B206661696C656420696E20251C
:1018700073282920776974682076616C756520303B
:101880007825782E00000000705F6673000000006D
:10189000705F737263000000705F66732D3E705F4F
:1018A000617069006C656E00616464725F69735F8A
:1018B000616C69676E6564333228646573742900EE
:1018C000616464725F69735F616C69676E656433DC
:1018D00032282875696E7433325F7429705F7372B1
:1018E00063290000616464725F69735F776974687B
:1018F000696E5F626F756E647328705F66732C200B
:10190000646573742C206C656E29000070B541EA23
:101910004201DDE904564FF0A04441EA830141EA67
:10192000052104EB800041EA0641C0F8001770BDB4
:1019300070B541EA4201DDE904564FF0A04441EAA6
:10194000830141EA052104EB800041EA0641C0F829
:10195000001770BD70B541EA4201DDE904564FF051
:10196000A04441EA830141EA052104EB800041EAF9
:101970000641C0F8001770BD70B541EA4201DDE9CB
:1019800004564FF0A04441EA830141EA052104EBEB
:10199000800041EA0641C0F8001770BD1CB5002167
:1019A00000910B4601220191FFF7D4FF1CBD1CB52D
:1019B000002100910B4601220191FFF7DDFF1CBDC4
:1019C0001CB500220B46009211460192FFF7C2FFA0
:1019D0001CBD1CB500220B46009211460192FFF778
:1019E000CBFF1CBD1CB5002100910B4601220191CB
:1019F0001146FFF7AFFF1CBD1CB5002100910B463F
:101A0000012201911146FFF7B7FF1CBD4FF0A04224
:101A100002EB8000D0F8002722F44032C0F8002703
:101A2000D0F8002742EA0141C0F8001770470000D3
:101A300038B5094B44181B6800936B4608E000BF9B
:101A400053F82010D1F8205520C2C1F82055401C71
:101A50008442F5D838BD00003880030042094FF0B9
:101A6000000100D1491E00F01F00012282400A42FD
:101A700001D0012070470020704701224FF0A043A1
:101A8000824011B1C3F808257047C3F80C25704790
:101A9000034908B50844002101600068009008BDB2
:101AA0000060004002494058012800D000207047E3
:101AB0000060004000210846FFF7C0B9FFF764BA94
:101AC00030B5154A01460020D2F8104423460AE0FA
:101AD000DB681D79854205D1401C0A28F6DB4FF0F2
:101AE000FF3030BD1B68002BF2D1431CF9D0CB680E
:101AF0001871D2F8103443B1DB68CC681B682360DE
:101B0000D2F81024D268116030BDC2F81014C96830
:101B100000220A6030BD0000C8360020F0B595B044
:101B20001C4615460F4608461A9E00F025FB182154
:101B300009A8F5F73FFB0E96CDE9095400230822CA
:101B400003A9384600F02DFB05980690BDF810005B
:101B5000ADF81C00BDF81200ADF81E0000208DF895
:101B600021000398082600F00300012802D0022873
:101B700018D032E003983346850AC0F3C2008DF8CE
:101B8000200003980FA9C0F38314A200384600F088
:101B900008FB09A8009006AB22460FA9284600F0D2
:101BA00047FA1AE00398840DC0F3C2008DF82000B4
:101BB000082C01D2254600E0082533462A460FA905
:101BC000384600F0EEFA2E44641B09AB06AA2946FB
:101BD0000FA800F095F9002CEAD1384600F0D2FAAF
:101BE00015B0F0BD7047012005F0B0BB084810B536
:101BF0000178084A515C19B1001D01F0E1FD02E0D5
:101C00000C3001F0DBFCBDE81040002005F09EBB6D
:101C100084240020C423002008B5034A00924023F6
:101C2000024AFFF77BFF08BD116603003035002034
:101C30000A4A012902EBC00007D0022907D0032974
:101C400007D0042907D000207047022070470420E5
:101C500070470079704740797047000050C9030011
:101C600010B5FFF7C0FF04210348FFF729FF024921
:101C70000120C968487110BD40C903002DE9F04F2B
:101C80008DB0F9F735FD18B100200DB0BDE8F08F2B
:101C90007E4C4FF0000BC4F818B4BFF34F8F7C4953
:101CA000A06802900D68D846284004EB80000BE045
:101CB000D4F8180470B961680298814201D8A16013
:101CC000E2E7284004EB80000C3002A9FBF768FF34
:101CD0000028EDD1002005AA029901EA050304EBD2
:101CE0008303491CDB6842F82030401C0291022823
:101CF000F2D3059800F00300022802D001284DD04D
:101D0000AAE005985022810D8946B2EB905F00D879
:101D100050210E4666F39F50059008315D4800F053
:101D2000E2F9070078D000F027FA4346082205A917
:101D3000384600F03EFA029908F1080A2940681A6C
:101D40008000001D864222D9504D0C3530B1C2B200
:101D500004EB8101301A90460C3104E02946F2B2BE
:101D6000002590462846C6B25346384600F021FA70
:101D70000AEB080325B132462946384600F019FA25
:101D8000029909F1030001EB900002903BE004EBA3
:101D900081015346324638460C31EFE70598C0F3CF
:101DA0008310062800D30620059960F38911C1F33A
:101DB0008310801C05918100364800F094F90700DB
:101DC0004AD000F0D9F94346082205A9384600F068
:101DD000F0F908F1080800260FE00298434600EAEF
:101DE0000501401C04EB81010290042238460C31AD
:101DF00000F0DFF908F10408761C0598C0F38310A1
:101E0000B042EAD847B1D4F81054D4F8180478B1E5
:101E1000384600F0B7F934E01EE0E8684079012860
:101E200004D12A682846394612689047E868056850
:101E3000002DF2D1384600F0A5F98DF800B06846C3
:101E4000F7F7D0FDD4F8180408B90298A0609DF8FF
:101E50000000F7F7EBFD14E0D4F8104405E021682A
:101E6000204689688847E0680468002CF7D10A4852
:101E70000A49401AC008022101EB004008A100F005
:101E800019F8F9F735FC80F00100FEE6C8360020AD
:101E9000A024002058CA030030CA030050C9030020
:101EA0004261636B656E647320666C75736865640C
:101EB0000000000000231A4605F06CB808B50123A5
:101EC00000926A4605F066F808BD1CB5CDE900230E
:101ED00002236A4605F05EF81CBD3EB5069C8DE8FF
:101EE0001C0003236A4605F055F83EBD7FB5DDE9C9
:101EF00008458DE83C0004236A4605F04BF87FBD99
:101F00002DE9F0470E4680461C469246082940D8E7
:101F100094F80C90002020731946104603F090FCB2
:101F20000025B54206D218F805201BA12046FFF770
:101F3000A5F903E01AA12046FFF7A0F96D1C082DB2
:101F4000EFD318A12046FFF799F90025B54212D228
:101F500018F805707E2F08D8F5F700F90068C05D05
:101F600010F03E0F01D03A4600E02E220EA120468E
:101F7000FFF784F903E00DA12046FFF77FF96D1C00
:101F8000082DE3D301222146504603F03BFC84F8A0
:101F90000C90BDE8F087000020253032780000006A
:101FA000202020007C0000002563000020000000AD
:101FB000064910B500200870054800F0E1F8002837
:101FC00003D1044800F071FA002010BDC83600208B
:101FD00058CA03000C83030002480349401AC00892
:101FE0007047000058CA030050C9030013B5684683
:101FF000FDF7C4F808B100201CBD0248009950F854
:1020000031001CBD50C9030070B508480125D0F847
:102010001044057007E0E068457121682046496872
:102020008847E0680468002CF5D170BDC8360020F0
:102030002DE9FF4781460C9D00200C462F7B28731D
:10204000984616462946184603F0FAFB072E42D258
:10205000DFE806F004090F161F2A36004946284615
:10206000FFF70CF937E0494628462268FFF706F9E2
:1020700031E0D4E9002349462846FFF7FFF82AE07B
:10208000A0680090D4E9002349462846FFF7F6F8F7
:1020900021E0D4E90201CDE90001D4E90023494659
:1020A0002846FFF7EBF816E004F1080007C88DE8B2
:1020B0000700D4E9002349462846FFF7DFF80AE085
:1020C00004F108000FC88DE80F00D4E90023494649
:1020D0002846FFF7D3F800222946404603F092FB3A
:1020E0002F73BDE8FF872DE9F041058A80462D1F3B
:1020F0004819C01CB0FBF5F0C6B24046FEF7DCF84C
:10210000041E19D00020207101206071E580002795
:102110002546761EC4F800800BE04046FEF7CCF85A
:1021200060B16179491C6171286005467F1CC0F867
:102130000080B742F1D32046BDE8F081204600F090
:1021400002F80020F8E72DE9F041457901466B1EC1
:10215000002201E00968521C9A42FBD30F68014635
:10216000002605E038460C68FEF7C8F82146761CC4
:10217000AE42F7D3BDE8F0810121001DFEF770B833
:10218000FEF7D4B810B504460121001DFEF78EF805
:1021900010F0FF0F04D12046BDE81040FFF7D3BF79
:1021A00010BD1CB501920122009201AAFCF7A6FF06
:1021B0001CBD1CB501920022009201AAFCF79EFFF3
:1021C0001CBD000002494058002800D00120704783
:1021D00000500040024A00218150BFF34F8F7047EA
:1021E000005000400449D1F80413014201D00120FD
:1021F000704700207047000000500040C02903D005
:10220000E9B1802902D00DE040210BE010F8012B4C
:1022100010F8013B120442EA032210F8013B1A4372
:102220000F4B1A6010F8012B10F8013B120442EA20
:10223000032210F8013B1A43094B1B1F1A60026866
:10224000C07812BA22F0FF02024305480838026043
:1022500003480830026822F0C0020A430260704757
:102260009855004030B4016809B129201BE012499B
:102270000A78124C302A03D00A78A22A0AD00CE03D
:102280006568002D16D04368A068AC4630BC0A4A89
:10229000022160474068062808D008785028E4D119
:1022A00001202070282030BC00F070BE30BC0448F3
:1022B00000F00EBF30BC7047643C00205C2500205D
:1022C00044A7030003490A6822F0600242EA401072
:1022D00008607047A4550040064910B500204870BA
:1022E000091D0860BFF35F8F0349044800F0EAFA54
:1022F000002010BD782400209881030024350020A0
:1023000008B500208DF800006846F7F76BFBF1EE8A
:10231000100A20F09F00E1EE100ABFF35F8F08491A
:102320004020C1F880029DF80000F7F77FFB00F025
:1023300097FA08B141DF08BD20BF40BF20BF08BDEC
:1023400004E000E001680A6849688068884201D9B1
:10235000491C00E00021914201D10120704700207A
:1023600070478068884201D9481C70470020704738
:102370002DE9F84304464FF000080E468DF8008022
:102380006846F7F72FFB2046FFF7DCFF07000AD06F
:10239000207C40B14FF004089DF80000F7F746FBA1
:1023A0004046BDE8F8832068456841682046FFF74D
:1023B000D8FF2168486037B1206801682046FFF7E0
:1023C000D0FF21680860E268012A14D0022A16D0E2
:1023D000042A19D0082A1CD06068314605FB020087
:1023E000F4F7C0FE204603F097FB21688A6882421A
:1023F000D2D28860D0E7616830784855F2E76168EA
:10240000308821F81500EDE76168306841F8250053
:10241000E8E7D6E90001626802EBC502C2E9000103
:10242000E0E7F8B507464FF0000415000E462046D9
:1024300015D08DF800006846F7F7D4FA384603F057
:102440006BFBA84205D32A463146384603F012FBFF
:1024500000E005249DF80000F7F7E8FA2046F8BDF3
:1024600038B5054600248DF800406846F7F7BAFAFB
:1024700028680460446084609DF80000F7F7D6FA8D
:1024800038BD38B5044600208DF800006846F7F7DF
:10249000A9FA204603F040FB04469DF80000F7F738
:1024A000C5FA204638BDF7F733BA8268002191603B
:1024B00082681161826851618268D160826851606E
:1024C00080680160704708B5002242504058009073
:1024D00008BD000020B10349096801600020704771
:1024E0000E207047E4840300FEB502460E460846FF
:1024F000FFF7F0FF002867D1002400940194012722
:1025000006208DF80020ADF8040002948DF80270CA
:1025100069462020326869DF2C492D4A891AC9088A
:10252000012202EB014530B100F044FA0246284690
:102530002849FFF7C3FC00948DF801708DF8024024
:10254000019402948DF8034069464020326869DFA7
:1025500030B100F02FFA024628461F49FFF7AEFCC3
:102560000094019402948DF800406946012032687D
:1025700069DF30B100F01EFA024628461749FFF71E
:102580009DFC4FF4B0600090019402946946A12034
:10259000326869DF30B100F00DFA02462846104972
:1025A000FFF78CFC0094019402948DF8007069464A
:1025B000A020326869DF30B100F0FCF902462846FD
:1025C0000849FFF77BFC0020FEBD000048CA03005D
:1025D00050C90300B4BC0300FCBC030014BC0300DE
:1025E00060BC0300C0BB03002DE9F041054607684D
:1025F00060DF804619491A482A68081AC608BA4294
:1026000019D9022000EB064416A12046FFF752FC20
:1026100020463A461FA12B68FFF757FC4FF0805029
:10262000D0F80C012968800200F10050421A2046BF
:1026300025A1FFF743FCB8F100004FF001040AD0D8
:1026400000F0B8F9024604EB06402AA1FFF736FC79
:102650004046BDE8F0812F480470F9E748CA0300FE
:1026600050C90300496E73756666696369656E7467
:102670002052414D20616C6C6F636174656420660B
:102680006F722074686520536F6674446576696361
:10269000652E00004368616E67652074686520528E
:1026A000414D207374617274206C6F636174696F43
:1026B0006E2066726F6D203078257820746F203020
:1026C0007825782E000000004D6178696D756D20C9
:1026D00052414D2073697A6520666F722061707077
:1026E0006C69636174696F6E206973203078257836
:1026F0002E00000073645F626C655F656E61626CE2
:102700006528292072657475726E65642025732EA4
:10271000000000002725002030B5144891B0007853
:10272000002820D05FF03405ADF8405010A903A870
:1027300061DF30B1052816D011B0BDE83040F7F7A1
:10274000E7B803AC0A49684600F0BCF807E000BFF0
:10275000D0E9002120469047684600F0CAF8029868
:102760000028E1D0F4E711B030BD0000272500209B
:10277000E8840300F8B5134C2078C0B10120A070A4
:1027800003F0E6FC112814D0022003F0F9FC002528
:102790008DF800506846F7F725F911DF06462570D9
:1027A0009DF80000F7F742F92EB13046F8BD082039
:1027B000F8BD0020F8BDA57004F082FB032003F0F3
:1027C000DFFCF6E7242500207CB5194C207808B101
:1027D00008207CBD0120A070002003F0B9FC112866
:1027E00019D0002003F0CCFC1248002600680190AC
:1027F0008DF800606846F7F7F5F80F4901A810DF7B
:1028000005000AD0002020709DF80000F7F70EF9AF
:102810002DB128467CBD00207CBD0120F3E7A670C9
:10282000667004F06DFB012003F0AAFCF3E70000E2
:10283000242500207C8403008D9802000EB50749F2
:10284000684600F03FF805E0D0E900108847684688
:1028500000F04FF802980028F6D10EBD98840300CE
:102860000148007870470000242500200548817841
:1028700019B1007818B1FFF77DBF08207047FFF746
:10288000A3BF0000242500201FB568464BDF30B1F0
:10289000052814D004B0BDE81040F7F739B808494E
:1028A00001A800F00FF806E0D0E900210098904759
:1028B00001A800F01EF803980028E6D0F4E71FBD39
:1028C00004850300016009684160AFF3008010B522
:1028D000D0E900215368994201D1002104E0D1E9F7
:1028E0000034A34202D01946816010BD0831416016
:1028F000F0E7816800290BD0026892680A44826080
:1029000041684B689A4203D108314160FFF7DFBF4D
:10291000704770B50D460646446804E0B268294623
:10292000904718B1246820680028F7D120682860F3
:10293000256070BD406800687047416808680028DD
:1029400001D002680A60704702460020526806E023
:102950008B4203D108681060012070471A46136843
:10296000002BF5D17047000003496846884201D228
:102970000120704700207047803C00200C4A10B5B1
:1029800002F594730EE0991AC91001EBD171491048
:1029900002EBC1010C68844201D90B4602E005D26A
:1029A00001F108029A42EED3002010BD486810BD24
:1029B000B881030000B5FFF7E1FF002800D101480E
:1029C00000BD0000A481030008B500224250405819
:1029D000009008BD4058002800D00120704708B57D
:1029E000002242504058009008BDD0F8040308402F
:1029F00000D0012070474058002800D001207047C7
:102A000008B5002242504058009008BD02480068B6
:102A1000002800D0012070470004014008480068E9
:102A2000012110F0010F06D14FF0E020C02280F804
:102A300000248430C167034901200860704700000A
:102A400000E100E01805004010B54FF48070FDF77C
:102A5000A0FF01208107C1F80403086010BD000039
:102A6000012010B58107C1F808030002FDF791FFAE
:102A700007490120086007494FF001100A6802F079
:102A800001128242FAD004490020487110BD0000B2
:102A9000040000400C040040D023002006490246F8
:102AA00000200B790BB1852070470A6001220A7162
:102AB00000224A7170470000D0230020022010B588
:102AC0004107C1F808034FF48270FDF762FF054922
:102AD0000120086004480168C1F300410029FAD1CF
:102AE00010BD00000C00004018040040002802D077
:102AF0000149800108477047C18003002DE9F0417A
:102B00000E46054601F03EFF0028284619D0F8F78A
:102B100079FE083802F06EFE032802D001280ED09C
:102B200007E04FF0A040D0F81005E84010F0010F8A
:102B300005D003212846BDE8F041FEF767BF02211A
:102B4000F8E701F02BFF002822D02846F8F75AFEBC
:102B500004464FF4807000EB84000E4F81B207EB07
:102B60008400D0F8102542F00102C0F81025084674
:102B7000FEF78EFF002E0BD02846F8F743FE0649DD
:102B800051F82000002803D00120A040C7F804031A
:102B9000BDE8F08100600040143200202DE9FC41C6
:102BA000DFF8B880044608EB0400002790F93000F5
:102BB0001346C0170E46401C01D008274AE0B078E3
:102BC0001946C0F340022046F8F7F8FD0546401CC0
:102BD0003FD0B078410717D4C0070AD04FF0A040CB
:102BE00000EB8400D0F8001721F00201C0F80017B4
:102BF00007E000217378204600910A460191FEF714
:102C000097FE204601F0B0FEB078800718D5144832
:102C1000317800EB8500D0F81025124B1A40C0F82F
:102C200010254FF4F8524FF4403302EA042203EA2D
:102C300001410A43D0F810150A43C0F8102509E0F5
:102C400008EB0500327810F8481F41EA8211017044
:102C500000E004273846BDE8FC8100001432002063
:102C600000600040FFE0FCFF4FF0A041D1F81015DC
:102C7000C14011F0010000D00120704770B5194D1E
:102C800095F8580008B1082070BD0024661E204643
:102C9000FEF7E4FE10B1281980F83060641CE4B23D
:102CA000202CF4D300242046F8F77AFD641CE4B20B
:102CB0000C2CF8D300200D4968650B4CC02081F81E
:102CC000000401264020891FC1F800014FF4BE70A6
:102CD000FEF7DEFEA004C4F8040385F85860002067
:102CE00070BD0000143200200060004006E000E0EB
:102CF000034890F85800002800D0012070470000D9
:102D0000143200200121B1EB507F01D10120704726
:102D10000020704705490D200860054A012108324E
:102D2000034811600349C0F804137047045400407D
:102D3000005000408200080070B50546FDF7B2F86B
:102D400028681D4C40281DD00DDC04281FD01028F9
:102D500030D11A4800F0BCF96568002D2AD0002354
:102D60001A46032119E080281CD0B0F5002F21D18C
:102D7000124800F0ADF96568002D1BD000231A46FB
:102D800019460AE0281DBDE87040FFF76BBA656878
:102D9000002D0FD000231A460121A068AC46BDE8E3
:102DA000704060472879002804D12078002801D09D
:102DB0000020207070BD00005C25002044A70300A7
:102DC00002480068800700D0012070473C54004052
:102DD00071B585B09DF81400032807D1FFF7F0FF07
:102DE00008B1022000E001208DF814009DF81400C5
:102DF00000250126164C012814D0022810D1607A33
:102E000000280DD1134800F04FFA124800F07CFA68
:102E10001048856066720220009014E0684688477A
:102E200006B070BD607A0028FAD00B490A48083114
:102E30000E604FF48F61C0F8081365720420009093
:102E4000012000F039F861680029E7D1E8E70000C7
:102E500070320020D8230020005000407FB5FFF7DB
:102E6000AFFF0F49002508B18D607FBD8868401C09
:102E700088600728F9D90B4B0FCB8DE80F00084865
:102E800000F034FA084C6572012000F015F800F0EB
:102E9000CBF861680029E8D0684688477FBD00000C
:102EA000D82300204480030070320020B0F5A07FBA
:102EB00001D1FFF7D3BF7047044908B1881402E07D
:102EC0000348808980B208607047000008550040C0
:102ED00070320020054903200860044894300168DE
:102EE00021F01F0141F00401016070470C550040C2
:102EF000FEB5214C217A09B10820FEBDD0E90010B1
:102F000021606060FFF7E6FF0520F6F7D7FA1B495E
:102F1000C02081F8000401252020491FC1F80001CC
:102F20001749184AD1E90001CDE9010101A9164864
:102F300000F00EFA0028E0D113480068D0F8100520
:102F40000021C2B24FF4C860F4F7F8F8024601233A
:102F500000210D48009500F0E5F90721684600F0D2
:102F600033F80646C0216846FFF748F92572280362
:102F7000E0603046FEBD00007032002005E000E059
:102F80003C800300AD2E0300D823002010B50121A2
:102F90000B4C292801D0204408E00A480068C007EB
:102FA00002D00748283001E00548243001600120A4
:102FB000FFF782FF4FF48F60C4F8080310BD0000D4
:102FC000005000402054004030B5042905D00729A6
:102FD00003D00A2901D0092030BD124A1468121DFD
:102FE0001268104B08331B680470250A240C4570C6
:102FF0008470D4B2C470042912D0150A0571150C5E
:10300000120E457182710A2902D0882C06D007E081
:10301000C371190A0172190C417201E09921C17042
:10302000002030BD50040010F0B5264BA1B0186848
:10303000244982B2883168460C682249983109686F
:1030400011F0C00118D01F4D8C352D6880290BD18F
:103050001C4E90363668370C8DF80070370A8DF8A4
:1030600001708DF80260C01C2E0C00F8016B2E0A56
:1030700000F8016B00F8015B250E0570250C45700A
:10308000250A8570C4700F489C3000680E4DC0F34F
:103090004116D5F804430D4800270760076801274B
:1030A00007601A60684605F54175FFF7A7F83046D6
:1030B000FFF708F9FFF70EFF2C604FF48F60686090
:1030C00021B0F0BD0855004000500040FC5F0040BA
:1030D000094A416800881160111DC0F308000860AA
:1030E00006480749008800F48C60C1F804030449CD
:1030F00001201C31086070471055004070320020DC
:1031000000500040014A01218150704700500040AA
:1031100010B50268FAB1114C43682360231DC2F355
:1031200008021A6000884FF6FF7202EAC0000B4ADC
:10313000C0F30B000C321060201F016008480949E1
:10314000007800F01800C1F80403064901200C3192
:103150000860002010BD092010BD0000105500407F
:10316000703200200050004038B50D4602F0B4FB2C
:10317000040014D000208DF800006846F6F732FCF9
:10318000207928B19DF80000F6F750FC112038BDD9
:103190000120256020719DF80000F6F747FC002013
:1031A00038BD10B502F098FB002802D00021016064
:1031B000017110BD01B582B000208DF80000684695
:1031C000F6F710FCFFF74CFB48B902A90648FFF7D9
:1031D000CFF80548FFF7B6F808B100F043F89DF8BE
:1031E0000000F6F723FC0EBD6CCA0300114A1378E9
:1031F0000BB18520704751600178C90704D00E4992
:103200000B6843F001030B600C49D1F8003223F046
:103210000103C1F8003240780949400181F80004F7
:1032200001204FF0E0234103C3F80011107000208B
:1032300070470000EC23002004D5004000D000407F
:103240000DE000E0064908B5002204480A6009685C
:1032500000910121C0F80413016008BD00D00040B6
:1032600000D1004003490120C1F80803091D08608E
:103270007047000000D0004009490120C1F8080350
:10328000091D086041034FF0E0220020C2F88011C0
:10329000BFF34F8FBFF36F8F024908707047000074
:1032A00000D00040EC23002000680121C16070477D
:1032B0002DE9F04106460D464FF48034006817466C
:1032C000AC404BB14FF4A07101EB8501FFF77CFBE3
:1032D0003068C0F8044301E0C0F80843306800EBF0
:1032E0008500C0F84075BDE8F0810000026801214A
:1032F00011610079034A00EB400002EB800001728B
:103300007047000080320020016801220A600079C5
:10331000034A00EB400002EB80000221017270477B
:1033200080320020F0B40468049E40F20115D4F805
:1033300000728D40AF43C4F800720468D4F80052A4
:103340001D43C4F800523346F0BCFFF7B1BF000084
:103350002DE9F04104460E4600792C4900EB40006F
:1033600001EB8007387A10B10820BDE8F0813A609F
:10337000706800254FF4A078786006E008EB8501BE
:103380002068FFF721FB6D1CEDB26079A842F5D8EB
:103390002068F17840F3073000284FEA411104DB40
:1033A00000F1E02080F8001405E000F00F0000F1CB
:1033B000E02080F8141D2068012140F30730002828
:1033C00009DB00F01F0201FA02F24009800000F15F
:1033D000E020C0F8002120687278D0F8043562F34C
:1033E0000103C0F804352068B278D0F8083562F3DC
:1033F0000103C0F8083520683278D0F8103562F340
:103400000303C0F8103539720020AEE78032002087
:103410000149024803F0C2BF8C3200200020004066
:103420002DE9F0410546007916460F4600EB4001B4
:103430002D4A01EBC00102EB810494F82A1011B16E
:103440000820BDE8F081294951F820102868FFF7CD
:103450008BFE08B11120F4E739462846F6F72CFB1D
:1034600066603869206030004FF001062FD03F7F42
:103470004FF48E712868FFF7B2FA4FF4A2712868F2
:10348000FFF7ADFA28681A49C0F8041328684FEA14
:10349000471140F30730002804DB00F1E02080F8FA
:1034A000001405E000F00F0000F1E02080F8141D8A
:1034B000286840F30730002809DB00F01F0106FAF6
:1034C00001F14009800000F1E020C0F800112868F7
:1034D0000421C0F800150020A061E06184F82900F3
:1034E00044F8140FA675ACE78C32002094800300DA
:1034F000800002002DE9F05F054600790B4600EBE5
:10350000400101EBC000244901EB8004284600F093
:1035100045F810B11120BDE8F09F62614FF000093D
:10352000C4F82090A36084F828904FF48E784E461B
:1035300041462868FFF753FA28684FF0010AC0F89F
:1035400008A02146286803F0B8FE606808BBD5F8DB
:1035500000B067690FE000BF94F8280008B10F269B
:1035600015E041465846FFF735FA0028F4D02146C9
:10357000584603F0A2FE206AB842F2D357464146AD
:103580002868FFF727FA0028F9D02868C760C4F830
:1035900014903046BFE700008C320020007900EB29
:1035A000400101EBC000044901EB800040690028A4
:1035B00000D00120704700008C3200202DE9F04738
:1035C000044600794FF0000900EB400101EBC00018
:1035D000284901EB80072068C0F800957868B0B1F1
:1035E00020682549C0F80813206840F307300028F8
:1035F0000DDB00F01F02012191404009800000F125
:10360000E020C0F88011BFF34F8FBFF36F8F2068A9
:10361000D0F80C25D0F81485D0F80865D0F81055EE
:103620004FF0FF31C0F81415C0F80C152068C0F831
:103630000815C0F81015501C02D01046FEF7AEF960
:10364000B8F1FF3F02D04046FEF7A8F9681C02D04F
:103650002846FEF7A3F9701C02D03046FEF79EF90B
:103660002068FFF79EFD87F82A90C7F80490BDE810
:10367000F08700008C3200208402020001490248D9
:1036800003F03ABFB8320020002000402DE9F0419D
:103690000546164600790F46154A00EBC00102EBBD
:1036A000810494F8201011B10820BDE8F08111497F
:1036B00051F820102868FFF757FD08B11120F4E7F2
:1036C00039462846F6F73CFA6660386920601EB134
:1036D000397F2846FAF720FA28680821C0F8001533
:1036E0000020A061E0616061012184F82010DCE726
:1036F000B8320020988003002DE9F04704460E46BA
:103700000079274900EBC00001EB800517463046E1
:10371000FFF7F8FA30B1204600F044F820B111204C
:10372000BDE8F0871020FBE76F61AE604FF4907743
:103730004FF0000839462068FFF762F94FF4AC7685
:1037400031462068FFF75CF92068AA686969C0F80B
:103750004425C0F8481520684FF00109C0F80890CA
:103760006868D0B9BA4651462068FFF744F9074661
:1037700031462068FFF73FF90743F4D010B14FF00E
:103780000F0808E02068C0F80C9031462068FFF769
:1037900032F90028F9D0002068614046C0E70000F7
:1037A000B83200200079054900EBC00001EB800031
:1037B0004069002800D0012070470000B832002086
:1037C0002DE9F047064600793D4900EBC00001EBCA
:1037D0008005346868680127A8B13A49C4F808131D
:1037E000306840F3073000280DDB00F01F0107FAB6
:1037F00001F14009800000F1E020C0F88011BFF322
:103800004F8FBFF36F8FD4F8000220F02000C4F870
:103810000002A8694FF4A27820B141462046FFF784
:10382000EFF867604FF4AC7949462046FFF7E8F8B7
:10383000E760474649462046FFF7DDF80028F9D003
:10384000A86928B139462046FFF7D5F80028F1D0FD
:103850004FF0000AC4F800A53068D0F80C25D0F865
:103860001495D0F80885D0F810754FF0FF31C0F8E6
:103870000C15C0F814153068C0F80815C0F81015FC
:10388000501C02D01046FEF792F8B9F1FF3F02D06B
:103890004846FEF78CF8781C02D03846FEF787F8C9
:1038A000B8F1FF3F02D04046FEF781F82046FFF70F
:1038B00078FC85F820A0C5F804A0BDE8F0870000DA
:1038C000B832002010034200034908600348016831
:1038D0000029FCD07047000004E5014000E40140ED
:1038E000FDF76EBB0F49104B0322C91A10B5C9086A
:1038F00002EB014238B1032812D110460BA1FEF7AA
:10390000D9FA022004E010460DA1FEF7D3FA0020F8
:10391000F7F74EFD002803D0BDE81040F5F7F8BFDB
:1039200010BD000030CA030050C903004661737423
:10393000206164766572746973696E672E00000099
:103940004164766572746973696E672073746F7011
:103950007065642E000000000078002807D104483C
:103960003B21408876DF002801D0F5F7D1BF7047B2
:10397000502200202DE9F0418D88027900EBC5042A
:103980002273C97BA41D012902D0022904D101E0C0
:10399000008800E0408820802288608882421BD90D
:1039A000164817492B46401A4FEAD008042101EB6C
:1039B0000840064613A1FEF788FA21882846A5DFAD
:1039C000012790B1112812D0FEF7F4FF024607EB51
:1039D00008401CA1FEF772FAA179E07981420BD967
:1039E0002846BDE8F041F8F7F1B96771F4E72771AF
:1039F00030462A462049EDE7BDE8F08168C903005A
:103A000050C9030052657175657374696E672074DF
:103A10006F2075706461746520415454204D545575
:103A200020746F202575206279746573206F6E2075
:103A3000636F6E6E656374696F6E20307825782EC3
:103A40000000000073645F626C655F67617474639B
:103A50005F65786368616E67655F6D74755F7265D9
:103A6000717565737428292072657475726E65644A
:103A70002025732E0000000008AC0300F0B58DB0C7
:103A800006462C226846091DF3F76CFBBDF80400BE
:103A90001F49C2B21D48BDF80050401AC108042099
:103AA00006EBC50700EB01447A732B4619A12046AB
:103AB000FEF70BFABDF80620204622A1FEF7FEF91C
:103AC000BDF80420204624A1FEF7F8F9BDF80A202D
:103AD000204626A1FEF7F2F9BDF80820204627A1CE
:103AE000FEF7ECF9306900280DD02849D1E904012E
:103AF000CDE90B01ADF82E50787B8DF8300032699E
:103B00000BA9304690470DB0F0BD000068C9030016
:103B100050C9030044617461206C656E677468204D
:103B20007570646174656420746F202575206F6EF4
:103B300020636F6E6E656374696F6E203078253018
:103B4000782E00006D61785F72785F6F63746574C2
:103B5000733A2025750000006D61785F74785F6F9F
:103B600063746574733A2025750000006D61785F99
:103B700072785F74696D653A202575006D61785FB4
:103B800074785F74696D653A20257500707E030056
:103B900070B58A880C1D00EBC2060D7A09480A49E7
:103BA0002B46401AC008042101EB004007A1FEF794
:103BB0008CF9317BA94200D329462088BDE87040AA
:103BC000F8F704B968C9030050C90300506565726D
:103BD000206F6E20636F6E6E656374696F6E203048
:103BE000782578207265717565737465642061202D
:103BF00064617461206C656E677468206F6620254F
:103C0000752062797465732E000000002DE9F04183
:103C10000746402090B08046034609686A461A4825
:103C2000FCF774FF0500194819494FF00106A0EB95
:103C300001004FEAD00006EB004408D020462A4697
:103C400014A1FEF73BF9284610B0BDE8F08107EB60
:103C5000470000EB07111D48434600EB81010D466C
:103C60006A460948FCF7C0FF020007D0204618A1A9
:103C7000FEF724F9002085F8490001E085F8496045
:103C800085F848600020DFE7E87F030070C9030083
:103C900050C903006E72665F63727970746F5F65FE
:103CA00063635F627974655F6F726465725F696E8A
:103CB0007665727428292072657475726E65642049
:103CC0006572726F7220307825782E00EC2D0020FE
:103CD0006E72665F63727970746F5F6563635F7045
:103CE00075626C69635F6B65795F66726F6D5F7239
:103CF000617728292072657475726E65642065721B
:103D0000726F7220307825782E0000002DE9FC4774
:103D10008E880746CD8800EBC604214821492B46F2
:103D2000401A4FEAD009042101EB0940804632468F
:103D30001DA1A41DFEF7C9F8172D00D21725208854
:103D4000A84200D80546658000202071009623888F
:103D50006288404623A1FEF7C0F821883046B5DFCF
:103D600040B1FEF727FE0246012101EB09402DA1DB
:103D7000FEF7A4F86079002810D1386900280DD02A
:103D80003449D1E90201CDE90001ADF80260608853
:103D9000ADF804003A69694638469047BDE8FC87AB
:103DA00068C9030050C9030050656572206F6E201A
:103DB000636F6E6E656374696F6E2030782578204E
:103DC00072657175657374656420616E2041545429
:103DD000204D5455206F66202575206279746573D7
:103DE0002E0000005570646174696E672041545460
:103DF000204D545520746F202575206279746573A9
:103E00002028646573697265643A20257529206FDE
:103E10006E20636F6E6E656374696F6E20307825F7
:103E2000782E000073645F626C655F676174747301
:103E30005F65786368616E67655F6D74755F7265F5
:103E4000706C7928292072657475726E65642025FE
:103E5000732E0000707E03007CB58D88064600EB53
:103E6000C5044A8934F8060F904200D802466280A1
:103E7000172A00D21722114811496280401AC0083F
:103E8000042101EB00402B460EA1FEF71EF830691D
:103E900078B1607968B11A49D1E90001CDE9000132
:103EA000ADF802506088ADF80400326969463046CA
:103EB00090470020607120717CBD000068C903003C
:103EC00050C90300415454204D545520757064610D
:103ED00074656420746F2025752062797465732081
:103EE0006F6E20636F6E6E656374696F6E203078DD
:103EF00025782028726573706F6E7365292E000017
:103F0000707E030048B1064A0168914205D14068BD
:103F10000449401802D0012800D003207047000057
:103F2000DEC0ADDE02FEE10E8A7D022A04D90289DE
:103F3000CB881A44D21C02814289C988511AC91EF1
:103F4000418170472DE9F0410D460221904600F570
:103F50008056298000F10804144F1BE031462046AA
:103F6000F9F7D0FA40B1B8F1000F02D0012288F879
:103F70000020022816D004E0A0687969884200D9A0
:103F80007861288861880844C01C2880608804EB18
:103F900080040C3431462046F9F7CAFA0028DDD1F6
:103FA000BDE8F0814FF480602880F9E740240020CC
:103FB00008B50021009101460823024A0248FDF796
:103FC000B7FB08BDD88003006825002008B5002095
:103FD000009004480823044A01680448FDF7A8FB40
:103FE00008BD000068240020D08003006825002060
:103FF0002DE9F05F0026DFF81891DFF818B134469C
:104000004FF00308B2463746D9F80C0000EB0735ED
:104010002846FFF777FF98B301284BD0032869D1D2
:104020002868411C02D03C49884205D10120820207
:1040300055F82010491C0ED004EB84010BEB8102D3
:10404000A8F10100556003221FFA80F80BF8212027
:10405000641CA4B24EE0401C9042E9D32F48016892
:1040600079B104EB840002210BF820100BEB8000E7
:1040700045600181274828304480641CA4B205E0D3
:1040800007E00221056081804FF0010A46F0010639
:1040900030E004EB840100220BF821200BEB8101BE
:1040A00001F110024D6028460831FFF74BFF46F042
:1040B0000206CDE7BAF1000F0FD004EB8400022115
:1040C000164A0BF820100BEB800012684260018149
:1040D000104828304480641CA4B210480022011DFE
:1040E00005602846FFF72EFF0C48808802280CD078
:1040F000082006437F1CBFB2032F85D3B8F1020FFF
:1041000000D20026F0B2BDE8F09F0420F1E70000E5
:10411000682500203C340020DEC0ADDE682400208D
:1041200001494978F6F7BCBA4C2300202DE9F0414B
:1041300088461749174604468978F6F7B1FA08B158
:10414000012600E0022604F5807080B2072100F00D
:104150009DF9050013D0052D11D0FEF72BFC02466A
:104160000C480D492346401AC008012101EB0040CC
:104170000A49FDF7AAFE2946204602F0C5F93B464A
:10418000424631462046BDE8F041F7F7A7BD0000A2
:104190004C23002098C9030050C903005CB30300FE
:1041A00000B585B002228DF800200288ADF802200B
:1041B0004079400701D5012000E002208DF8080079
:1041C0008DF809106846F8F74DFA05B000BD0021DA
:1041D00002F04CBE30B5154685B00C4602460521AE
:1041E0006846FBF745F86846CDE90245F8F748FA16
:1041F00005B030BD70B5054D06460024304655F873
:1042000024108847641C042CF8D370BDA07E0300E2
:104210007CB5164D002400BF04EB440005EB800084
:1042200003F068FC641C042CF6D3502104208A009F
:10423000CDE900010F490E4B01F5A07000F0ECFB39
:10424000012468B1FEF7B6FB02460B480B49401A41
:10425000C00804EB00400AA1FDF730FE03207CBD3E
:104260000348001F447000207CBD0000B02F0020D8
:10427000D8220020602E002080C9030050C903000E
:10428000504D5F4255464645525F494E4954282994
:104290002072657475726E65642025732E000000AF
:1042A00070B504460025C1681A4A284600EB400351
:1042B00002EB83035B688B4204D100EB400002EB0E
:1042C000800003E0401C0428F0DB0020217808294E
:1042D00004D0092908D0132914D112E0617A89B9D0
:1042E00080B103F015FC0DE0617A59B950B100219D
:1042F0004160817A41F00201817207490120087012
:1043000003E001252046FFF775FF2846BDE8704011
:1043100001F03EBCB02F0020D4220020002300F08A
:1043200089B900007CB506460020019001A93046FD
:1043300003F0C8FB04461A481A49401AC008012174
:1043400001EB004519E0A178304600F09FF860B11C
:1043500005280AD0FEF72EFB0246A07800902846DA
:1043600033461149FDF7B9FD18E0019801A9401C39
:104370000190304603F0A6FB0446002CE3D1304602
:1043800000F0F0F900280AD0072808D0FEF712FB49
:104390000346284632460549FDF797FD03207CBDBC
:1043A00080C9030050C9030040AE030098AE03006B
:1043B0002DE9F0471F00154681460E4604D0072E12
:1043C00005D0082E06D102E00E20BDE8F0870DB121
:1043D000042D01D90720F8E74FF00008484603F004
:1043E00057FB041E04D0207AA8420BD00F20ECE724
:1043F000FF214FF6FF7003F04BFB041E06D0A0F820
:104400000090A670607AFF2802D00CE01120DCE753
:1044100029461A4800F0CEFA014620466172FF296B
:1044200013D04FF001082572617A144800F006FBA2
:1044300002000DD0ABB23146384600F01FFAB8F199
:10444000000F19D0082E10D016E003F053FBDDE763
:104450000B480C49627A401AC008012101EB004068
:104460000949FDF72BFD0320AFE738886FF0050100
:1044700001EB8000796888800020A6E7A02F00204B
:1044800080C9030050C90300CCAD030010B503F090
:10449000FFFA18B103F03CFB002010BD052010BD51
:1044A00070B50C4606461546072901D0082C0ED1DA
:1044B000104600F062F950B12146304603F0E8FAA8
:1044C00038B105808470BDE8704003F03BBA072026
:1044D00070BD052070BD00004FF6FF71418001499D
:1044E00009680847887E030070B588B02048F8F74F
:1044F00069FA02001F4820494FF00105A0EB0100B6
:104500004FEAD00005EB004406D020461B49FDF7DA
:10451000D5FC032008B070BDF8F76CF9020005D097
:10452000204617A1FDF7CAFC8620F3E700F0F8F952
:10453000002002904CF2070603900EE0694604A8A2
:10454000F8F70EFA00988088A0F5404084B204A8DD
:10455000F8F7C2F9204600F09FF902AA04A93046F4
:10456000F8F7E5F90028E9D0154805700020D1E7F3
:104570008DC6020078C9030050C90300E4AC0300F3
:10458000436F756C64206E6F7420696E6974696125
:104590006C697A6520666C6173682073746F7261F0
:1045A00067652E206664735F696E697428292072BE
:1045B000657475726E656420307825782E00000071
:1045C000C822002000F08EB900F092B970B586B014
:1045D00014460E46054600F03FF940B105F540404F
:1045E00080B20F4A6946F8F7A2F940B902E001200B
:1045F00006B070BD03A96846F8F7B2F908B100200B
:10460000F6E7A570039840882080049860600398BE
:104610008088A0F5404030806846F8F75DF9E6E70D
:10462000CC220020024800214160816070470000D8
:10463000C8220020F0B587B01F46154606460C4636
:10464000FF280AD8084600F007F930B104AA21462D
:10465000304600F0E9F840B902E0072007B0F0BDAD
:1046600002A904A8F8F77CF908B10520F6E7AC70B8
:104670000298408828807FB1840039682646B1EBD3
:10468000800F00D20C46039922466868F2F76AFD53
:10469000B44203D20C20E1E70398686004A8F8F75D
:1046A0001BF90020DAE7000070B586B016460D460B
:1046B0000446FF2828D8A87800F0CEF820B304F5E7
:1046C0004040ADF80000A87803AA00F54040ADF8DE
:1046D00002006868019028880290A978204600F0BE
:1046E000A3F80528694603A811D0F8F75FF9024638
:1046F00048F20661401A8A4226D00BDCDAB1A2F5F4
:10470000064002380AD121E0072006B070BDF8F754
:1047100055F9ECE7012815D0072813D00C480D49AE
:104720002346401AC008012101EB00400A49FDF769
:10473000CCFB0320E9E71EB1314603A8F8F707F9DF
:104740000020E2E71120E0E78620DEE71020DCE72A
:1047500078C9030050C9030028AD03004FF6FF706D
:1047600000F09AB810B5FF2801D9072010BD00F05D
:1047700099F800F005F8002010BD00F0D7B800004F
:10478000F0B5244E8DB00020707002904FF6FF758A
:104790000390284600F0A6F8044648F2096706E0B0
:1047A000204600F091F8204600F09CF80446AC4208
:1047B0002BD004F5404080B202AA04A9F8F7BFF854
:1047C000B842EDD004F5404080B2F7F7CFFF054680
:1047D0000120A5F50641073919D0002D15D00E4945
:1047E0000E4A2346891AC90800EB01402A460C49A3
:1047F000FDF76BFB14220B4907A8F2F7B3FCADF8E9
:10480000204007A80995FFF767FE0DB0F0BD707056
:10481000FBE70000C822002078C9030050C903004C
:1048200080AD03008C7E03007CB5054616460C4621
:10483000084600F011F80020009005F54045019071
:1048400004F54044A8B2A1B26B463246F8F768F8C6
:10485000002800D005207CBD07280DD001280BD0F2
:10486000082809D0052807D0062805D0092803D034
:10487000042801D0002070470120704710B503EBD9
:1048800083034FF6FF7404EA03138170DB1C99085D
:104890004260018010BD00000149F7F7B3B8000085
:1048A000E02F002010B50446A0F57F40FF3807D068
:1048B00004492046F7F7A6F8A04201D1012010BD17
:1048C000002010BD0030002010B50446044901F05E
:1048D000DBFA03492046BDE81040203101F0D4BA8C
:1048E000E02F00200149FAF7DCBC00000030002076
:1048F00070B50A49FAF7D5FC04464FF6FF7507E094
:1049000000F01EF838B105492046FAF7CAFC044603
:10491000AC42F5D170BD204670BD0000E02F0020F4
:1049200001484021F2F746BCE02F0020FF2803D8C1
:1049300001460248FBF776BC00207047E02F0020BC
:10494000FF2803D801460248FBF76CBC00207047E3
:10495000003000200068012803D0022801D0002088
:10496000704701207047000010B50549C20800F0EB
:104970000703885C01249C402043885410BD00003C
:10498000683200200449084490F93000082801DB0F
:104990000120704700207047143200200449084469
:1049A00090F93000082801D201207047002070479C
:1049B000143200202DE9F0410F4606002AD030685D
:1049C00040B3706830B3FF24002520E029467068AA
:1049D000FBF7F3FB80F00100BFF35F8F48B1FF2CC2
:1049E00000D12C46281B401CB8420ED12046BDE801
:1049F000F081FF2C06D108E02146304600F032F865
:104A0000641CE4B2AC42F7D3FF246D1CEDB2B06875
:104A1000A842DBD8FF20EAE770B5DDE9044558B1CC
:104A200051B14BB104FB05F6964205D824B11DB136
:104A300080E83A00002070BD072070BD70B504000A
:104A40000D460DD0206858B1606848B1FF2D07D0E1
:104A5000FAF7ACFB20B1E168206805FB010070BDEE
:104A6000002070BD70B504000D4613D020680028EA
:104A700010D0606800280DD0FF2D0BD0FAF796FB00
:104A8000002807D060682946BFF35F8FBDE87040FB
:104A9000FBF788BB70BD0000034B1B780BB102F025
:104AA00083B8082070470000DC220020034A1278F7
:104AB0000AB101F0BBBF082070470000DC220020D3
:104AC000054A10B512782AB102F032F8082800D150
:104AD000112010BD082010BDDC22002010B50446B6
:104AE00000F044F9204600F011F82078052808D19C
:104AF0002046FAF7AFFF002803D0BDE81040F4F7D6
:104B000007BF10BDF7F798BDF7F796BD2DE9F04147
:104B100005460178614C0020012686B004F150075B
:104B200015291AD2DFE801F00B19291919193419BE
:104B3000901990191919191919191992AB00A88807
:104B400000F03CFC86280BD0112809D0062804D0A0
:104B5000072802D0132800D0F0BB06B0BDE8F081D2
:104B60006068A98827F81010401CC11700EB51712C
:104B700021F00701401A60608AE0287A012801D0FC
:104B80000028EAD1A88806B0BDE8F04100F0D0BF07
:104B900020780028E1D142484249401AC708032042
:104BA00000EB0740804640A1FDF784F9607870B9BA
:104BB0006846F7F71FFF051E01D0F4F7A9FEBDF800
:104BC000060000B10120607080B1002DC5D1F7F75B
:104BD000F1FD002836D000E003E0A0F506410739DA
:104BE000BBD006B0BDE8F041F4F792BE00236A46A0
:104BF0001946184600F070FC05000ED14046BDF87D
:104C0000002030A1FDF75AF9BDF8000000F0CCFB00
:104C1000051E0AD0F4F77CFE6670052D07D0062D20
:104C200009D02846F4F774FE97E76670CFE706EBE5
:104C300007402FA103E0022000EB074034A1FDF75D
:104C400039F98AE7267088E7667086E72070607019
:104C5000656800244FF6FF766019C11700EB5171AB
:104C600021F00701401A07EB40010888B04202D04A
:104C70000E8000F05DFF641C082CEDDB6DE72070FA
:104C8000A868A0F506410D3902D0B0F5064FCBD18A
:104C900006B0BDE8F04100F05BB80000EC22002057
:104CA00090C9030050C90300417474656D70746944
:104CB0006E6720746F20636C65616E20666C617333
:104CC000682E000044656C6574696E67206C6F77B0
:104CD0006573742072616E6B656420706565722007
:104CE00028706565725F69643A20256429000000B8
:104CF000546865726520617265206E6F207065650D
:104D0000727320746F2064656C6574652E000000FA
:104D1000506565722072616E6B732066756E637488
:104D2000696F6E616C69747920697320646973615D
:104D3000626C65642C20736F206E6F2070656572E5
:104D400073206172652064656C657465642E000073
:104D500000B585B0142204496846F2F703FA6846A4
:104D6000FFF7D4FE05B000BDDC7E030010B504469D
:104D700000F026F8207890B1072816D10B480C498E
:104D8000401AC008012101EB00400AA1FDF792F88A
:104D9000A068002809D0BDE81040F4F7B9BD6088CC
:104DA000BDE810400021F6F7BBBF10BD90C903005D
:104DB00050C90300417373657274696E672E0000F9
:104DC0002DE9FC5F044602785148524D0221401BF8
:104DD000C008DFF8389101EB00450323012109F1F8
:104DE0000C0B03EB004701EB0046A9F1080A09F19F
:104DF0001808152A71D2DFE802F019190B1B1919CE
:104E00002A2D3448575B63691971191919197A00E9
:104E10006088F5F715FC217A59F820205BF821000D
:104E20000090638838463CA1FDF757F8BDE8FC9F29
:104E30006088F5F705FC237A59F8202061895BF832
:104E40002300CDE900016388384643491AE028462B
:104E500042A137E0A068FDF7ADFD0246304645A10E
:104E60004BE0207CC00701D03AA100E04CA1627A5F
:104E70005AF82200CDE90001217AA288384658F874
:104E800021304A49FDF732F8D0E72069FDF792FD5D
:104E9000627A5AF82210CDE90010217AA2882846B9
:104EA00058F821304249EDE7A288304641A124E07C
:104EB000A068FDF77FFD0346A288304647A111E0B8
:104EC000384652A1BDE8FC5FFCF7F4BFA068FDF7CF
:104ED00071FD0246304652A10FE013E0A3886288BC
:104EE000284658A102B0BDE8F05FFCF7EEBFA0680D
:104EF000FDF760FD0246284661A102B0BDE8F05F03
:104F0000FCF7DCBF28466AA1F7E70000FC2200207E
:104F100090C9030050C90300436F6E6E65637469E6
:104F20006F6E20736563757265643A20726F6C658D
:104F30003A2025732C20636F6E6E5F68616E646C1F
:104F4000653A2025642C2070726F63656475726504
:104F50003A2025730000000050B10300466C6173D5
:104F6000682073746F726167652069732066756C61
:104F70006C000000556E657870656374656420662A
:104F80006174616C206572726F72206F63637572F9
:104F90007265643A206572726F723A202573000060
:104FA0002C206E6F206368616E676500A8B20300F5
:104FB0005CB20300506565722064656C657465645D
:104FC000207375636365737366756C6C793A2070D2
:104FD0006565725F69643A202564000050656572FA
:104FE0002064656C6574696F6E206661696C6564C8
:104FF0003A20706565725F69643A2025642C2065EB
:1050000072726F723A20257300000000416C6C20B0
:1050100070656572732064656C657465642E00004C
:10502000416C6C20706565722064656C6574696F95
:105030006E206661696C65643A206572726F723ABF
:10504000202573004C6F63616C20444220636F75B0
:105050006C64206E6F74206265206170706C69658D
:10506000643A20636F6E6E5F68616E646C653A20AF
:1050700025642C20706565725F69643A20256400A0
:10508000466C617368206761726261676520636F57
:105090006C6C656374696F6E206661696C65642011
:1050A00077697468206572726F722025732E000014
:1050B000556E657870656374656420504D20657623
:1050C000656E742049443A20307825782E0000001F
:1050D000F7F7B2BA70B5FFF707FA2749274A891AD6
:1050E000C908012505EB014430B1FDF763FC034617
:1050F0002046234A23A130E0FFF78AF830B1FDF7BC
:1051000059FC034620461E4A29A126E001F0E0FC96
:1051100030B1FDF74FFC03462046194A2FA11CE091
:1051200001F006FE30B1FDF745FC03462046144A67
:1051300035A112E0F7F788FF30B1FDF73BFC0346DD
:1051400020460F4A3BA108E0F8F7EAF848B1FDF71E
:1051500031FC034620460A4A41A1FCF7B6FE032073
:1051600070BD4A484FF6FF71818000218160417017
:105170000570084670BD000088C9030050C90300CF
:10518000B07E03002573206661696C6564206265EA
:105190006361757365207064735F696E6974282933
:1051A0002072657475726E65642025732E00000090
:1051B0002573206661696C6564206265636175733F
:1051C00065207064625F696E697428292072657455
:1051D00075726E65642025732E00000025732066AD
:1051E00061696C6564206265636175736520736DC8
:1051F0005F696E697428292072657475726E6564C2
:105200002025732E000000002573206661696C65FF
:1052100064206265636175736520736D645F696E98
:10522000697428292072657475726E65642025730F
:105230002E0000002573206661696C65642062653C
:1052400063617573652067636D5F696E6974282992
:105250002072657475726E65642025732E000000DF
:105260002573206661696C6564206265636175738E
:1052700065206773636D5F696E69742829207265A4
:105280007475726E65642025732E0000DC22002088
:105290002DE9F041044686B001278088F8F77AFAB4
:1052A0006080207800263F4D082808D0092820D0AB
:1052B0004FF6FF780A2829D00B2853D158E0607A9E
:1052C00010B1012809D04DE0A86830B1E1688142F1
:1052D00003D1AE60A088A88016E06878E8B3A08803
:1052E000A98888423ED1207A06283BD100F02EFCC6
:1052F00038E0607A88BBA86878B3E168814231D130
:10530000AE60E868401EE860E6602BE0A878E8B18F
:105310004046FFF759F94146404517D10846FFF787
:1053200051F9404512D1AE7014216846F1F742FFA1
:105330000C208DF80000ADF80480ADF80280002745
:105340002046F7F779F96846F7F776F9687838B1C3
:10535000A088A988884203D100E003E000F0F6FBB2
:10536000002F1CD006B02046BDE8F041F7F764B925
:10537000A8780028F6D0AE7014216846F1F71AFF1D
:105380000D208DF80000ADF80480ADF80280A06813
:1053900002902046F7F750F96846F7F74DF906B046
:1053A000BDE8F081DC2200200349097809B1F8F753
:1053B00091BA082070470000DC220020F0B5324C82
:1053C000064687B0207838B13049D1E90201CDE9ED
:1053D0000501607818B104E0082007B0F0BD00F0C6
:1053E000B5FB6078A168401E084301D0112547E055
:1053F000A088002786421CD1E068D0B10025142186
:105400006846F1F7D7FE08208DF800003046F8F71F
:10541000C1F9ADF8020006208DF80800ADF804606F
:105420008DF8097003978DF810706846F7F704F946
:1054300026E0E068411C25D0401C134AE060083299
:1054400005A93046FFF730F9050019D0A760E068DC
:10545000401EE060112D13D0862D11D0072D0FD0E6
:105460002846FDF7A7FA024609480A493346401A7A
:10547000C008012101EB004007A1FCF726FD032530
:105480002846AAE71325FBE7DC220020B07E0300B4
:1054900088C9030050C90300436F756C64206E6FA8
:1054A00074207570646174652072616E6B2E20705B
:1054B00064625F7261775F73746F7265282920720E
:1054C000657475726E65642025732E207065657233
:1054D0005F69643A202564002DE9FF4F344885B0A8
:1054E0009946007892468B46C0B14FF6FF7420462D
:1054F000FFF76AF8804600200421CDE902100090F1
:1055000003A8019002AB6A4606214046FFF792F8D5
:1055100000277E1E2546072804D017E0082009B082
:10552000BDE8F08F0520FAE70398B84201D307469B
:105530004546B04201D2064644464046FFF744F88D
:10554000804602AB6A460621FFF774F80028EBD0CC
:105550000528F2D04FF6FF71884519D18D4201D050
:105560008C4201D1052000E00020059901B10D8099
:10557000BBF1000F01D0CBF80070BAF1000F01D0E1
:10558000AAF80040B9F1000FC9D0C9F80060C6E719
:10559000FDF710FA0246074807494346401AC0087B
:1055A000012101EB00400549FCF78FFC0320B6E721
:1055B000DC22002088C9030050C903004CAF03005F
:1055C000F0B51F4E85B03078D0B101274FF6FF748B
:1055D000B7702046FEF7F8FF0546A0422BD1002009
:1055E000B07014216846F1F7E5FD0C208DF800003D
:1055F000ADF80440ADF802406846F7F71DF81CE02E
:10560000082005B0F0BD00BFFFF7CEFE78B1FDF772
:10561000D1F903460B480C490C4A401AC00807EB65
:1056200000400B490095FCF758FC0320E9E72846A9
:10563000FEF7CAFF0546A542E6D10020E1E70000DB
:10564000DC22002088C9030050C90300CC7E03007F
:1056500094AF0300084A117821B1D178032903D30C
:105660000420704708207047044B43F82100491C70
:10567000D170002070470000DC2200202030002084
:105680000349097809B101F0A9BA08207047000060
:10569000DC22002005282ED21849002205280A60A5
:1056A0000A7128D2DFE800F0030721210D000878F5
:1056B00020F0820002E0087840F0820020F0040030
:1056C00008700720487010208870087820F0780053
:1056D000303040F001000870C87840F00300C87016
:1056E000032008710548FFF7CBBF087820F082003F
:1056F00040F00400E4E70720704700000025002088
:10570000002801D0F6F798BF704770B50D00044629
:1057100002D10020F4F7FCF814B90020F4F7F8F8EF
:105720002878207069886170090AA170A988E170E1
:10573000090A2171E8886071000AA07170BD00003B
:105740002DE9F05F2A4F06464FF0A04A4FF0010BBB
:105750000024381990F95010491C3CD090F85000A2
:10576000314620F0C0052846FAF7F8FD20B3204660
:1057700000F040F881460AEB8500D0F80007C0F33E
:105780000148B8F1020F18D002212846FCF73EF973
:105790000BFA05F1CAF820152846F6F733F857F842
:1057A00020204AB14846B9F1030F11D0B8F1020FD9
:1057B00005D0B8F1030F07D00DE00321E5E7484617
:1057C000B9F1010F04D006E04846B9F1020F02D149
:1057D000014628469047641C042CBAD33246012166
:1057E0000020FCF725F930680028B1D1BDE8F09F12
:1057F000143200200249084490F850008009704794
:105800001432002010B50C46017A052908D0407AE0
:1058100038B1084808A102682046FBF72FFD00E0D8
:105820001AB106A12046FBF729FD2046BDE810402D
:10583000FBF731BDD0240020257300000D0A0000C5
:1058400038B5C3880D46044633B114A0009015A2A4
:1058500016A12846FBF712FD217A05291CD0607A93
:1058600048B1A088FCF7E4F9164951F8202016A1A8
:105870002846FBF703FDA0880021FCF7B7FB034691
:105880001049207A143951F8202001B02846BDE88B
:1058900030400EA1FBF7F2BC38BD00001B5B306D41
:1058A000000000001B5B313B33316D0025734C6FF2
:1058B00067732064726F70706564202825642925E1
:1058C000730D0A00D0240020257300003C25733E90
:1058D0002025733A200000000349884201D1034883
:1058E000704700207047000000200040E4230020A3
:1058F0000146054810B50068FAF728FC04461C214B
:10590000F1F758FC204610BDC8800300014602484C
:105910000068FAF73CBC0000C88003000348024955
:105920000068FAF71EBC00007424002050810300B8
:10593000F0B5264D264E85B004460027686828B984
:10594000224930680831FAF717FC68600146007890
:10595000072817D2DFE800F0160408080E0E120020
:105960002046F8F717F802E0204602F061F904003B
:1059700029D009E02046F6F7C1FAF8E72046F7F704
:105980002BF9F4E748F20E6414216846F1F712FC93
:10599000A4F5E8501D3800D10024019469466868D8
:1059A000F6F7EAFC6846F6F721FD08496F60002427
:1059B00008313068FAF7D5FB044801210C30FAF7BA
:1059C00075FC0028BAD105B0F0BD000040240020CD
:1059D000C88003002DE9F041234C0025234E207A96
:1059E000012730B92248311D0068FAF7C5FB306045
:1059F00038B1022020723168087928B101281ED1FF
:105A000016E06560BDE8F081D1E90503C01A4FF4E6
:105A10008052904200D31046B7EB900F01D282081B
:105A200000E001220869C9681844194429DF03E02D
:105A3000D1E90301084428DF58B1112812D003210D
:105A40003068F6F7E3FC25726560BDE8F041FFF7CA
:105A500065BF207C0028D5D1BDE8F041002102209F
:105A6000FBF714BE2772CDE710350020702400200C
:105A7000508103002DE9F047044600681646894628
:105A8000076800212046F6F74DF90546D4F80C804A
:105A90006068AE4207FB08010DD808FB06F24846D5
:105AA000F1F760FBA168B819884200D9002021688D
:105AB0000860BDE8F08708FB05F842464846F1F764
:105AC00051FBE268751B6A4309EB08006168F1F756
:105AD00049FB20680560ECE710B501210448FAF79E
:105AE000CBFB002803D1BDE81040FFF721BF10BD5C
:105AF0004C24002010B5074C201DFAF7AEFB0028FF
:105B000006D1607C002803D1BDE81040FFF762BFDA
:105B100010BD00001035002001680A6849689142F4
:105B200001D3881A70478068801A0844401C704767
:105B300010B586B0044614216846F1F73BFBADF87A
:105B400004406846FEF7E2FF06B010BD0B4910B5F1
:105B500000231A46A1F10800FFF7BEFC07490C39E3
:105B6000052803D038B10020487010BD4FF6FF70F3
:105B700088800020C8600120F6E70000E8220020AD
:105B800010B510461A46F1F7EDFA002010BD0000DE
:105B90002DE9F0438146234885B00178002936D0AD
:105BA0000021214F01700D468046012605EB45007E
:105BB00007EB8004A07A810701D4C1072ED088F8B2
:105BC0000060800702D4B9F1000F27D0204601F011
:105BD000B9FE18B34FF6FF71ADF802102188ADF889
:105BE0000410862816D007218DF800100290FCF7CB
:105BF000E1FE02460D480E492388401AC00806EB14
:105C000000400C49FCF761F96846FEF7F3FA05B06D
:105C1000BDE8F08306208DF80000F5E76D1C042D2B
:105C2000C4D3F4E7D4220020B02F002080C90300A1
:105C300050C90300ECAE03002DE9F04707462048A9
:105C40001C46154600780E4670B18DB184B1DFF860
:105C500074804FF00009A08802282DD200EB80014B
:105C600018F8210020BB1BE048F20160BDE8F08776
:105C700048F20460FAE720681FB181883A889142AF
:105C80000ED11EB101883288914209D18068286006
:105C9000206868600B482830008928810020E5E7EB
:105CA000A088214600F060F80028E4D1C4F80090F4
:105CB000A088401CA080CEE748F20960D6E700002B
:105CC000602400203C340020F8B505464068244F8D
:105CD0000C46002648B32349CA68824225D8096980
:105CE000814222D3F7F7BCFFF8B12889398988426D
:105CF0001BD1D5E900018A68904216D10020A7F196
:105D0000280200BF00EB800302EB83035B688B4239
:105D100005D203F580538B4201D9208011E0401C4D
:105D200080B20228EED30020F8BD268000960AE05B
:105D3000009829688068884205D100986860388991
:105D400028810120F8BD2088694600F00DF8002860
:105D5000EED12088401C80B220800228E6D3E2E702
:105D6000643400206825002070B50E4600EB8001E9
:105D7000134800EB81004468306804F5805518B181
:105D8000418800EB810411E0083410E029462046E8
:105D9000F7F7B8FB20B1012805D0022807D10DE0A4
:105DA0000120346070BD608804EB80040C34294607
:105DB0002046F7F7BDFB0028E8D170BD002070BD7C
:105DC0003C34002038B50C460021009101460423E4
:105DD000084A0948FBF7ACFC10B148F20D6038BD29
:105DE000064A04EB840102EB8101012008740020C3
:105DF00038BD0000CC800300682500203C34002022
:105E00002DE9F047884600EB80011E481D4600EB57
:105E1000810016464168DDF8209001F1080401F583
:105E200080571BE039462046F7F76CFB68B1012824
:105E300002D0022812D119E03088401C3080288816
:105E400061880844C01C288004E0B8F80000401CA9
:105E5000A8F80000608804EB80040C343946204622
:105E6000F7F766FB0028DDD1BDE8F0873088401CDD
:105E700030802988381B01EBA0002880012089F898
:105E80000000F1E73C3400200A46FF2803D8014611
:105E90001046FAF787B9704710F1380F07D010F1A4
:105EA000360F07D0002801D048F21650704748F24C
:105EB0001150704748F21450704708467047000070
:105EC000084810B5007800280AD00648064918305E
:105ED00000F091FB81B2BDE810400448F5F736B8F8
:105EE00010BD000050220020D82A002014260020D7
:105EF00070B50546F6F789F9134C40B1D4E90402B0
:105F00004FF08071411842F10000C4E904100021F3
:105F10002846F6F7C7F830B1606820B1606801F034
:105F2000DBF80020606001212846F6F7BBF818B1C5
:105F3000F7F7B0F9C4E90601284601F0F9F8284658
:105F4000BDE8704000F034B81024002070B505465C
:105F500000200C460870F7F79DF9D5E90223101AC6
:105F600063EB010300263146361A994112DAB0F587
:105F7000350F03D3F3F7D8FC0B4942184FF49603BF
:105F800000210A48F6F74DF910B10D2806D009E0B6
:105F9000012070BD00210548F6F77AF8284601F087
:105FA0009BF82070002070BDFFFFB4001824002073
:105FB000F8B51A4C074600261948FCF7BBFCD0B1CF
:105FC000616871B1D0E902106268D2E90232C91A7F
:105FD000904120D26068007F18B161681048FCF7DA
:105FE00098FC00F0B9FF05466946FFF7AFFF98B18E
:105FF000606840B10AE0606800280CD13846BDE80E
:10600000F840F6F70AB93846F6F703F965609DF8E7
:1060100000000028D0D1F8BD6660CDE71024002034
:10602000AC80030070B5054688690C4600284FF423
:10603000847128460AD0FCF7D2FCD5F81805626AAC
:10604000E1688854606A401C606270BDFCF7C7FC60
:10605000D5F8180570BD1FB501238DF80030CDE9C6
:106060000121D0E90012684690471FBD1FB50123EA
:106070008DF80030CDE90121D0E900126846904743
:106080001FBD000010B50446064801792046F4F70C
:1060900007FB002804D12046BDE8104000F02CBBCF
:1060A00010BD00009C22002038B50021012548B118
:1060B000012810D003280DD1FCF7B0FCBDE8384012
:1060C000FAF7F2BF4FF0E020C0F88051BFF34F8FD6
:1060D000BFF36F8F38BD8DF800106846F3F782FC70
:1060E000064C207808B9FAF7BFFFE068401CE06072
:1060F000A5709DF80000F3F799FC38BDB031002081
:1061000038B5114C58B103281CD100208DF800007F
:106110006846F3F767FC2178012909D00EE0207862
:1061200001280FD1FDF79EF8BDE83840FDF7A4B86F
:106130000649601CFDF75AF8FDF784F89DF8000049
:10614000F3F774FC38BD0000C0230020B531030014
:106150003EB5044609496846FCF7B4FB08E000BFB9
:10616000D0E900212046904730B16846FCF7C1FBDA
:1061700002980028F4D13EBD11203EBD808403006A
:106180003EB5044608496846FCF79CFB07E000BFA3
:10619000D0E90021204690476846FCF7AAFB029808
:1061A0000028F5D13EBD00008C8403002DE9FE439C
:1061B00004460C3000278046F7F7B4FB4FF6FF7615
:1061C0000546B042208803D1F7F79AFB054602E066
:1061D0002946F7F775FB20880022012100F008F915
:1061E000B54214D001AA07212846FEF797F870B9E6
:1061F000029EA07D3436C00709D0307CC00705D18F
:10620000414606F11200F7F746FB00B1374600237E
:1062100020881A46394686DF1649174A0646891AE3
:106220004FEAD108082811D0BEB1FCF7C3FB0246E3
:106230000121009501EB084023881049FBF74DFE32
:106240002088314600F060F9BDE8FE83022101EBB1
:1062500008400B49FBF72EFEF6E7A07DC007F3D000
:10626000002FF1D12088002241F20601F6F748F80C
:10627000EAE7000098C9030050C90300ECB203002C
:1062800074B403002DE9FC47884606462748284990
:106290001C00A0EB01004FEAD0074FF0010091462F
:1062A00000EB074515D006F5807080B26B460122E1
:1062B0000721FEF77DF8112809D080B1FCF77AFBA1
:1062C0000246284633461B49FBF7FFFD0320BDE885
:1062D000FC872846184A19A1FBF7F0FDF6E7502184
:1062E0000198F0F767FF019981F800800198C4F8E0
:1062F0000C90343020600198183020610198401CC7
:1063000060611B48E061019930461131F7F7B8F937
:106310000028DCD0FCF74EFB0246022000EB0740D1
:1063200033461449FBF7D1FD0820D0E798C9030094
:1063300050C903003CB50300587F0300496E7465E3
:10634000726E616C206572726F723A2025732072D2
:1063500065636569766564204E554C4C20666F72A6
:1063600020705F7365635F6B65797365742E0000E1
:106370002C30002024B40300002835D00278910787
:1063800001D411062FD4C2F3021104292BD893078C
:1063900003D5032901D1110625D5437881788B4295
:1063A00021D8072B1FD310291DD8C1784B071AD429
:1063B0000079430717D40B0715D4030713D4D2076A
:1063C0004FEAC17201D042B10FE062B989070AD425
:1063D000C10708D1800706D407E0890705D4C107A3
:1063E00003D1800701D400207047012070470000CE
:1063F000F0B5154E14460F460A4685B0054631786D
:10640000F4F766F9002F1AD00CB1012200E0002247
:1064100071782846F4F75CF9012C12D00022B1788B
:106420002846F4F755F9142208496846F0F79AFE11
:10643000ADF802508DF808406846F6F713F905B03C
:10644000F0BD0122EBE700004C230020F47E0300A6
:10645000F8B50446144800252E46806808B36088C5
:10646000F4F7A8F8A0B100200090207A9DF8002051
:10647000410861F3820260F3C302800860F30412F2
:106480008DF800206088694600F07AFB80F00106F4
:10649000608801B032462946BDE8F0400123F7F795
:1064A0009BBC0125F4E700005423002010B586B002
:1064B000044614216846F0F77DFE04208DF80000A4
:1064C000ADF802406846F6F7CDF806B010BD000002
:1064D00002498969002900D0084770478C2B0020A9
:1064E00030B585B00C460546142206496846F0F7DB
:1064F00039FEADF8025068460294F6F781F805B00F
:1065000030BD0000007E030030B585B00C46054666
:10651000142206496846F0F725FEADF80250684699
:106520000294F6F79FF805B030BD0000087F030025
:106530000348417881F0010141700248F4F721BD20
:10654000502200201426002070B515480124512146
:1065500064258460C0E9001504730146114800F009
:106560003FF80F488C211030002601604FF49671DF
:1065700041600A218160067301460A48083000F034
:106580002FF807484FF4FA7120300560C0E9011474
:1065900006730146BDE870400248103000F020B894
:1065A000B82A00205822002010B503680A688968BC
:1065B0009C1A8C4202D9591A016010BD0121026057
:1065C000017110BD10B54B68026889689C1A8C4235
:1065D00002D91144016010BD00210360017110BD9A
:1065E0000A7B1AB149680160002102E00968016074
:1065F00001210171704710B504460079002820463A
:1066000002D0FFF7DFFF01E0FFF7CEFF206810BDEB
:1066100070B50D4C0020D2B22070201D0B4D0378B8
:10662000EB5C1BB1001DFDF767F802E00C30FCF7D6
:1066300061FF08B1F3F76CF96078002802D0217887
:106640000029FAD070BD000080240020C42300205F
:10665000034800220149C078F3F7BCBF85600300FE
:106660009C22002070B51F4988B01F4CD1E9000161
:106670004FF6FF76CDE9050130E0002205A9FEF7CF
:1066800013F8050026D014216846F0F793FDA08882
:10669000ADF80400112D17D0862D17D02846FCF731
:1066A00089F9024611481249A388401AC0080121FD
:1066B00001EB00400F49FBF708FC07208DF80000B4
:1066C00002956846F5F7AAFF08B070BD06208DF860
:1066D0000000F6E7A088FDF777FFA080A088B04211
:1066E000CBD1F1E7547E0300AC22002058C903004F
:1066F00050C9030080A903002DE9F04F8DB0054675
:1067000001270026F6F7D0FE0446112821D005DC2B
:1067100068B3062870D0082C08D134E0A4F54050A6
:10672000023816D0A0F54070FF386CD02046FCF738
:1067300041F90246364837492B46401AC008012124
:1067400001EB004034A1FBF7C0FB21462846FFF7D0
:10675000C7FE414C3A462846E178F3F7B9FF217964
:106760000DB032462846BDE8F04FF3F7B1BF142212
:106770003A496846F0F7F6FCADF802500126684643
:10678000F5F73EFFE5E70DF114084FF0000901A809
:10679000B3DFDFF8C8B001240DF1180AABF1440BE8
:1067A00042F6052E1FE0DBF80C00CDE9030A0022BB
:1067B00006A92046B4DF70B9BDF81810B9F1000F72
:1067C0000BD0A1F5245002380BD103AA214628464C
:1067D000CDF81080ADDF58B10EE0714501D14FF01A
:1067E0000109641CA4B2BDF804008442DBD303E0B9
:1067F000BDF814000028ACD100272846F7F780F830
:10680000F6F780FDA5E72846F7F782FBA1E7000031
:1068100050C9030050C903006773636D5F736572ED
:10682000766963655F6368616E6765645F696E64FE
:106830005F73656E6428292072657475726E656475
:1068400020257320666F7220636F6E6E5F68616EC5
:10685000646C653A202564009C220020287E030099
:106860002DE9F0410746806A14468846C8B30025E2
:1068700031E000BFB96A05EB450001EB8006B08846
:10688000801CFE2802D90C20BDE8F0812288401C23
:1068900008F8020020881622401C80B2208008F8E8
:1068A00000202088401C80B2208000EB0801308846
:1068B00000F0ABFE2188084480B22080B28842B14B
:1068C000B16871B14044F0F74DFC2088B1880844AC
:1068D00020806D1CEDB297F82C00A842CAD8002089
:1068E000D2E7FFE70720CFE730B59BB025481990E6
:1068F000002519A92448F9F7D8FF08B1F3F708F8DB
:1069000003208DF8680017958DF85C0001241AA902
:106910001D481595169114958DF854408DF85D40DD
:1069200014A96438F4F780FA08B1F2F7F1FF13956F
:106930008DF84D408DF84E408DF84F4064208DF815
:106940004C0011481195109512958DF8444010A9EE
:106950007838F3F7ADFD08B1F2F7DAFF4021684669
:10696000F0F728FC09A16846F4F70EFB8DF83C40CF
:106970006846F3F703FF002801D0F2F7C9FF1BB008
:1069800030BD0000A7240300782600204E6F7264FB
:10699000696353656D69636F6E647563746F7200CC
:1069A0000A78062822F0FF020A7010D2DFE800F011
:1069B000030507090B0D002008E0112006E0212047
:1069C00004E0312002E0122000E02220087070472D
:1069D00010B50020F4F7ECFC08B1F2F799FFF4F7DA
:1069E00041FC08B1F2F794FF33DF002803D0BDE883
:1069F0001040F2F78DBF10BD10B5044600F01EF92F
:106A00002046F9F751FE074C002205492079F3F79B
:106A1000E1FD6078BDE8104000220349F3F7DABDDC
:106A2000CF41030054230020E5DE02002DE9FC41A4
:106A30000C00074614D0F3F715FE060013D03846B5
:106A4000F6F75EFF05462078022E0FD020F00100F9
:106A5000A5F57F412070FF390BD040F008000AE017
:106A60000E20BDE8FC8143F20200FAE740F001008D
:106A7000EEE720F0080020703846F3F79BFD217800
:106A800060F3410121703846F3F7CAFD217860F3C5
:106A9000820121703846F3F7B3FD70B93846F3F739
:106AA00089FD70B128466A460721FDF737FC40B9D9
:106AB000019890F84400C00703D0207840F01000FF
:106AC00002E0207820F0100020700020C9E70000CC
:106AD00010B5F9F7D3FC002816D11148F5F7EDFFF2
:106AE0000F48401CF5F7E9FF0D48801CF5F7E5FF5E
:106AF0000B48C01CF5F7E1FF09480121401E02794F
:106B0000182A02D04171002010BD0648064A801A9A
:106B1000C00801EB00400549FBF7CCF9032010BD8C
:106B200055230020A0C9030050C90300DCA70300BF
:106B300000230A461946F7F74FB9000010B5007850
:106B40000A2809D004DC082806D0092811D103E05E
:106B50000B2801D013280CD1074C002205492079BD
:106B6000F3F738FD6078BDE8104000220349F3F7E1
:106B700031BD10BDCF41030054230020E5DE0200EB
:106B800038B50C460749096800916946FFF74EFF82
:106B900021789DF800209143084301D0002038BDA2
:106BA000012038BD687F030070B50D467AB11446E8
:106BB0007DB10846FFF7E0FB68B12868606028797E
:106BC0002072201D206001206072002070BD0E2008
:106BD00070BD0020F6E7072070BD000070B50B4CBB
:106BE00005004FF001060CD0FFF7C6FB58B128682E
:106BF000E0602879207404F10C00A0602670002069
:106C000070BD0020F9E7072070BD0000542300206C
:106C100010B504460078052802D0122809D105E0F5
:106C20006088A168BDE8104000F020B92046FFF759
:106C30000FFC2046BDE81040F5F722BD30B50446F4
:106C4000008885B014284FD00ADC11282CD01328D6
:106C500028D134F8040FF3F7F3FC01282FD038E0E3
:106C6000192847D01A281DD1A088FDF759FA002805
:106C700018D1A088F3F79EFC0028A0884BD02A49A1
:106C800000220978F3F724FD02208DF80000A08887
:106C9000ADF8020000208DF808008DF80900684664
:106CA000F5F7E0FC05B030BD207A3D2804D04FF464
:106CB0008851A088002224E041F23D01F9E72079C3
:106CC000C00701D0012200E0022220880121FFF745
:106CD0008FFB34F8045B142214496846F0F742FA3B
:106CE000ADF802500294DAE705B0201DBDE830404F
:106CF000FFF75CBA217A201D41B14279008802F089
:106D0000030205B0BDE83040F7F7CEB805B0BDE8E6
:106D10003040F2F75BBF05B00122BDE8304041F2E0
:106D20000601F5F7EDBA00004C230020447F030074
:106D300010B51548F5F7B8FE1348401CF5F7B4FE3A
:106D40001148801CF5F7B0FE0F48C01CF5F7ACFEEB
:106D50000D4801210278182A0BD04278182A08D051
:106D60008278182A05D0C278182A02D00171002032
:106D700010BD0648064A801AC00801EB00400549CC
:106D8000FBF798F8032010BD4C23002098C903009E
:106D900050C90300DCA7030070B50C460546F3F7A5
:106DA0004FFC012802D043F2020070BD21004FF0D9
:106DB0000000FAD028467EDF0428F6D1112070BDED
:106DC0002DE9F04188B017460D468046F3F738FCB0
:106DD0000446002620216846F0F7ECF9012C01D08A
:106DE0008CB105E01F480022C1784046F3F770FCE3
:106DF00075B14046F6F784FDA0F57F41FF3915D007
:106E0000012C07D012E043F2020008B0BDE8F08187
:106E1000852618E04046F2F7E1FC38B94046FFF716
:106E200045FB4046F2F7DAFC00B985262878C00712
:106E300011D0852E07D06B463A4621464046FFF7D3
:106E400021FA0028E1D1012C09D000226B463146FD
:106E500040467FDFD9E7044803970790F3E72A46C7
:106E6000F4E700004C2300202C3000203EB50546FE
:106E70000C466846F8F7F2F96A4621462846FDF7BF
:106E8000A9F9F9F7C1FC024628460099FFF798FFD7
:106E90000446014601222846F5F732FE21462846DF
:106EA000009AF5F7DDFA3EBD002805D1034901201F
:106EB00048700020F4F7C6BD70470000B0310020D4
:106EC00010B51620F2F716FB48B10C4882684FF453
:106ED000800152B1016821F48001016010BDBDE85C
:106EE000104042F20100F2F713BD4FF0E020C0F86D
:106EF0008011BFF34F8FBFF36F8F10BD7833002029
:106F000010B51620F2F7F6FAA0B1114890F8000477
:106F10004009082811D20121814011F0EC0F0CD05A
:106F20000C4882684FF480016AB1016841F4800125
:106F3000016010BD42F2010001E042F20200BDE832
:106F40001040F2F7E5BC4FF0E020C0F8001110BD92
:106F500016E000E0783300200148FBF7EEBC0000AB
:106F6000AC800300C207002A03D000BF4FF00F021D
:106F700001E04FF0F00201D04FEA0111044B03EBA6
:106F80005003187800EA020040EA010018707047C8
:106F9000003300202DE9F84F0746214891468846E6
:106FA00005681E46012269461846F4F73FFBDFF8E4
:106FB00074A060B3009800210446801C0AE000BF62
:106FC00000EA050259F821C00AEB8202401C491C64
:106FD000C2F80CC0B142F3D34FEA1749F5F74EF8A7
:106FE000611C29400AEB810149EA00422C40CA6039
:106FF0000AEB8401C86867F3C50066F3891068F37B
:107000009F2020F00300401C20F00400C8609AF884
:10701000000001E0FAF732FE0028FBD1BDE8F88F4E
:10702000A0240020C83600207CB5054614480C4634
:107030000022D0E90510CDE9001012484179284618
:10704000F3F746FB14B10E48001D01E00C48083070
:1070500001902846F6F754FC00226946FDF724FB10
:1070600000280CD0FBF7A6FC024607480749401A47
:10707000C008022101EB00400549FAF71FFF7CBD63
:10708000E47D03009C22002050C9030050C9030086
:107090004CA8030070B50C00054602D10020F2F7A1
:1070A00037FC15B90020F2F733FC207828702088CF
:1070B000000A68702068000CA8702068000EE87054
:1070C00020792871207A68712089000AA871A06847
:1070D000000CE87170BD000070B504461248002530
:1070E0000078F8B1F4B1207FE0B1F6F7D3F8D4E935
:1070F0000223801A994110D32069002600B926770F
:10710000D4E905108847206960B1217F51B1D4E9E5
:10711000022110187141C4E9020121460348FBF71E
:10712000F8FB0125284670BD10240020AC80030028
:10713000F8B51B4C69462068F9F71EF800260127B0
:10714000184D29E0017821B101290CD002291BD169
:1071500014E041680A7FBAB90F77416810480830D7
:10716000FBF7D7FB10E041686868814201D16E608F
:107170000AE00B480830FBF7E7FB05E0FFF7ECFE01
:1071800008B10677FAE72F7069462068F8F7E9FF3B
:1071900069462068F8F7F0FF0028D3D1F8BD000059
:1071A000A480030010240020F8B50B4C0D460646C1
:1071B00069462068F8F7CAFF58B10670456069460D
:1071C0002068F8F7E4FF10B10448F5F70BF8002049
:1071D000F8BD0420F8BD0000A4800300182400209E
:1071E000034880684108034800224068F2F7DCBB8E
:1071F000F82300209C80030010B5F2F7A7FB08B12C
:10720000F2F786FB134A01211348F2F793FB08B10A
:10721000F2F77EFB1048114A0121001DF2F78AFBAC
:1072200008B1F2F775FB0C480D4A01210830F2F75E
:1072300081FB08B1F2F76CFB07480A4A01210C30C8
:10724000F2F778FB002803D0BDE81040F2F760BBEE
:1072500010BD0000E99D0200A07D030045D502009D
:10726000C15E03003165030070B506461088144600
:107270000D0000F1120203D09A4203D90C2070BD18
:10728000228018E01121295420881021401C80B24E
:10729000208029542088401C80B220802844F8F7A0
:1072A0001FFF0028EBD1208841193046F8F72AFF4C
:1072B000208810302080002070BD70B50C46054637
:1072C0004FF48E71FBF78BFB216AA068415C206A4A
:1072D000401C2062C5F81C1570BD1FB500228DF83A
:1072E00000200291816801914261D0E90012684654
:1072F00090471FBD1FB500228DF8002002918168C4
:1073000001914261D0E90012684690471FBD00001C
:107310001FB50A4601788DF8001041680191017A85
:107320008DF80810C0680390044850F82210001F20
:1073300050F82220684690471FBD0000CC23002053
:1073400001490120087070478024002010B588B0E2
:10735000044620220E496846EFF704FF06200090FD
:10736000C01F0190029003904FF0EB7006900CB19B
:10737000084A00E0002269460748F9F74BFF08B1C8
:10738000F2F7C6FA0448001F447008B010BD0000B0
:10739000EC82030041730300842400202DE9FF47A1
:1073A0000C4605464FF40071FBF71FFB01274FF415
:1073B0000178002618B34FF4927949462846FBF726
:1073C00009FBE0B149462846FBF709FBC5F80883ED
:1073D00094F8290000B96F6002208DF80000D5F8FC
:1073E0008004C5F880040390A0690290E0680190D1
:1073F000A661E661D4E900126846904728E00421BE
:107400002846FBF7F2FA18B34FF484712846FBF7CD
:10741000E1FAE8B121462846FEF704FE616AA06958
:10742000884215D1E06938B1E268616AA0612069DB
:10743000E6616662E06008E094F8290000B96F60D8
:10744000C5F80883A661E268616A2046FEF703FE7C
:107450004FF48E7841462846FBF7BCFA80B160694C
:10746000216A814202D294F8280028B34146284676
:10747000FBF7B5FA606918B161692046FFF72DFF87
:107480004FF4A27841462846FBF7A4FA002818D00A
:1074900041462846FBF7A3FA94F8290000B12F6073
:1074A000A06900280DD0A661E268616A04B0204698
:1074B000BDE8F047FEF7CFBD21462846FFF7FDFEA9
:1074C000DEE7BDE8FF8700001FB50A4601788DF8AA
:1074D000001041680191017A8DF80810C06803908E
:1074E000044850F82210001F50F8222068469047A8
:1074F0001FBD0000CC2300202DE9FF410C464FF4B6
:10750000927705463946FBF776FA0026B8B1394638
:107510002846FBF775FA02208DF80000D5F88004A4
:10752000C5F880040390D5F83C050290E06801900E
:10753000A661E661D4E900126846904723E04FF463
:10754000887739462846FBF756FAE0B1394628468F
:10755000FBF756FAD5F83C15A069884213D1E069CB
:1075600060B1E268D5F8000220F02000C5F8000202
:10757000E069A0612069E661E06001E0A661E2687F
:107580002046FEF773FD4FF4A27739462846FBF7F5
:1075900032FA68B139462846FBF732FAA06938B1A9
:1075A000A661E661D5F83C152046E268FEF75EFD6F
:1075B0004FF4907631462846FBF71DFA60B131460C
:1075C0002846FBF71DFA0120E860606920B1D5F874
:1075D0004C152046FFF78EFE4FF4AC763146284618
:1075E000FBF709FA00280ED031462846FBF708FAC7
:1075F0006069002807D0D5F84C1504B02046BDE8D6
:10760000F041FFF777BEBDE8FF810870000A4870BF
:107610000220704710B514210448EFF7CBFD044851
:107620000068F8F778FD002010BD0000103500203C
:10763000508103002DE9F05F8346DDE90A4A99464F
:1076400090460D460846012703E000BFB0FBF8F066
:107650007F1C4045FAD2B94500D94F465FEACA704F
:1076600012D18CB15FEA8A7002D5B9F1000F01D056
:10767000202607E0302605E031465846641EF4F720
:107680001FF80CB1A742F7D35FF00106B9F1010F63
:1076900002D9A9F1010903E0B5FBF6F0404502D398
:1076A00006FB08F6F2E7DFF83C9000BFB5FBF6F00A
:1076B00000FB165519F800105846F4F701F8B6FB10
:1076C000F8F6002EF2D15FEACA7009D0002C07D07C
:1076D000A74205D220215846641EF3F7F1FFF5E7D3
:1076E000BDE8F09FE080030010B5094C0022074977
:1076F0006078F2F76FFF002806D16079BDE810408E
:1077000000220449F2F766BF10BD0000CDBE0200A2
:107710009C22002061B70200F8B5054680B2F6F75A
:107720009DF9040013D0154E207A0027317B884242
:107730000ED2A8B204F10A0175DF28B1112806D0D3
:10774000BDE8F840FEF7C4BE207A401C2072F8BDA8
:107750002772307C38B1A8B23B2176DF18B10828F7
:1077600001D0FEF7B5FE71690029F0D08DF80070E8
:10777000ADF8025068468847F8BD00008C2B002009
:10778000417939B190F82E1421B990F8300408B13C
:10779000012070470020704701460148F8F742BDBC
:1077A000A82B002030B40446007A00280AD0608854
:1077B000002166DF28B1112802D0616830BC08477B
:1077C0000120207230BC704770B50C460546F3F7B7
:1077D0009BFF002807D04268002A04D02146284693
:1077E000BDE87040104770BD2DE9FC411646DDE94B
:1077F0000854CDE900541F468046022200F00CF8E0
:10780000002807D1CDE900543B46102231464046BE
:1078100000F002F8BDE8FC812DE9FC5F0026DDE9FF
:107820000C4B994692468E4680462788354630E076
:10783000D8F80400002200EB85006946006801903A
:1078400001A864DF002830D19DF8000050451FD109
:107850000EB1002100E00221228808441118594588
:1078600022D846B9521C90B2208009F800E0208846
:10787000401C20800126218801A801EB09026946ED
:1078800064DF002811D120889DF800100844208072
:107890006D1CB8F80000A842CADC56B12088C01B95
:1078A000401E80B2FF2802D90C20BDE8FC9F09F8D9
:1078B00007000020F9E710B5042817D209B1032406
:1078C00000E00024F3F71CFC4FF0A04101EB800026
:1078D000D0F8001721F44031C0F80017D0F8001795
:1078E00041EA0441C0F80017002010BD062010BD79
:1078F000002070472DE9F84F114D884681461E46FD
:1079000017466946DDF828A02868F8F71FFC040030
:1079100013D01C21EFF74EFC00202071C4F800901A
:10792000C4E90486C4E902A769462868F8F72FFC71
:10793000FEF7E0F80020BDE8F88F0420FBE7000028
:10794000508103002DE9FC41044600200090019085
:10795000A0788DF80200617A2D48FDF76FF82D4967
:107960002D4A891AC908012606EB014580B1024655
:10797000A178237A6846FCF781FF9DF80200012870
:107980000ED006280CD0072808D0082811D10AE00C
:10799000627A284621A1FAF791FA1FE0142006E046
:1079A000ADF8006005E00198808809308008ADF8E6
:1079B00000002088221D6946FCF776FE88B1072862
:1079C0000DD02649112811D0862818D0FAF7F2FFD9
:1079D00002462388284622A1FAF777FA0320BDE859
:1079E000FC81A17A21F00301A172F8E7A07A20F0CE
:1079F000010040F00200A0720E700020EFE7A27AB2
:107A000022F0020242F00102A2720E70E7E70000CB
:107A1000A02F002080C9030050C90300706D5F6271
:107A200075666665725F7074725F67657428292079
:107A3000636F756C64206E6F742072657472696513
:107A400076652052414D206275666665722E206211
:107A50006C6F636B5F69643A20256400D422002058
:107A60007064735F706565725F646174615F737485
:107A70006F726528292072657475726E65642025A1
:107A8000732E20706565725F69643A20256400007A
:107A900038B505460C46002001E00098401C0090D7
:107AA0006946284600F00EF800280AD08178A142E5
:107AB000F3D1817A8A07F0D4C907EED14168002951
:107AC000EBD138BD10B50A4B0A680CE002EB42045A
:107AD00033F82440844205D102EB420003EB8000DE
:107AE0000A6010BD521C042AF0D3002010BD000013
:107AF000B02F00204FF6FF710180FF21817041728D
:107B0000817A21F003018172002101724160704786
:107B100070B50546002406E0687A2044C1B20648E4
:107B2000FCF7A0FF641C287AA042F5D82846BDE8DF
:107B30007040FFF7DFBF0000A02F00202DE9FC47B9
:107B4000064639489846144600780D464FF000091D
:107B500078B37DB32888A0F57F41FF3933D068889A
:107B600048B36868F6F77CF880B384B32088ADF832
:107B70000000678801A8FDF7BBFE040034D084F83C
:107B800000804FF0000A84F816A0BDF80000A08223
:107B900068682061244801210C38F8F761FBE06037
:107BA000288820816888A080E780B8F1030F23D05F
:107BB00026E001E004E006E048F20160BDE8FC8751
:107BC00048F20460FAE748F20360F7E700E002E0F9
:107BD00048F20260F2E72889694687B2384600F029
:107BE000AFF80028EAD1C5E7BDF80010384600F02C
:107BF0009BF848F20760E1E70420A0753068A061B7
