Component: ARM Compiler 5.06 update 6 (build 750) Tool: armlink [4d35ed]

==============================================================================

Section Cross References

    ble_m.o(i.addr_store_value_set) refers to strcpy.o(.text) for strcpy
    ble_m.o(i.addr_store_value_set) refers to ble_m.o(.bss) for .bss
    ble_m.o(i.addr_string_to_conn_handle) refers to ble_m.o(i.is_address_compare) for is_address_compare
    ble_m.o(i.addr_string_to_conn_handle) refers to ble_m.o(.bss) for .bss
    ble_m.o(i.adv_start) refers to boards.o(i.bsp_board_led_on) for bsp_board_led_on
    ble_m.o(i.adv_start) refers to ble_advertising.o(i.ble_advertising_start) for ble_advertising_start
    ble_m.o(i.adv_start) refers to app_error.o(i.app_error_handler_bare) for app_error_handler_bare
    ble_m.o(i.adv_start) refers to nrf_log_frontend.o(i.nrf_log_frontend_std_0) for nrf_log_frontend_std_0
    ble_m.o(i.adv_start) refers to ble_m.o(.bss) for .bss
    ble_m.o(i.adv_start) refers to nrf_log_frontend.o(log_const_data) for m_nrf_log_app_logs_data_const
    ble_m.o(i.adv_start) refers to nrf_log_frontend.o(log_dynamic_data) for m_nrf_log_app_logs_data_dynamic
    ble_m.o(i.adv_stop) refers to boards.o(i.bsp_board_led_off) for bsp_board_led_off
    ble_m.o(i.adv_stop) refers to app_error.o(i.app_error_handler_bare) for app_error_handler_bare
    ble_m.o(i.adv_stop) refers to ble_m.o(.bss) for .bss
    ble_m.o(i.advertising_init) refers to memseta.o(.text) for __aeabi_memclr4
    ble_m.o(i.advertising_init) refers to ble_advertising.o(i.ble_advertising_init) for ble_advertising_init
    ble_m.o(i.advertising_init) refers to app_error.o(i.app_error_handler_bare) for app_error_handler_bare
    ble_m.o(i.advertising_init) refers to ble_advertising.o(i.ble_advertising_conn_cfg_tag_set) for ble_advertising_conn_cfg_tag_set
==============================================================================

Removing Unused input sections from the image.

    Removing ble_m.o(.rev16_text), (4 bytes).
    Removing ble_m.o(.revsh_text), (4 bytes).
    Removing ble_m.o(.rrx_text), (6 bytes).
    Removing ble_m.o(i.assert_nrf_callback), (16 bytes).
    Removing ble_m.o(.data), (2 bytes).
    Removing ble_m.o(.data), (1 bytes).
    Removing cli_m.o(.rev16_text), (4 bytes).
    Removing cli_m.o(.revsh_text), (4 bytes).
    Removing cli_m.o(.rrx_text), (6 bytes).
    Removing cli_m.o(.bss), (20 bytes).
    Removing main.o(.rev16_text), (4 bytes).
    Removing main.o(.revsh_text), (4 bytes).
    Removing main.o(.rrx_text), (6 bytes).
    Removing nfc_central_m.o(.rev16_text), (4 bytes).
    Removing nfc_central_m.o(.revsh_text), (4 bytes).
    Removing nfc_central_m.o(.rrx_text), (6 bytes).
    Removing nfc_central_m.o(i.ch_ndef_msg_handle), (208 bytes).
    Removing nfc_central_m.o(i.ndef_data_analyze), (148 bytes).
==============================================================================

Image Symbol Table

    Local Symbols

    Symbol Name                              Value     Ov Type        Size  Object(Section)

    ../clib/../cmprslib/zerorunl2.c          0x00000000   Number         0  __dczerorl2.o ABSOLUTE
    ../clib/microlib/ctype/ctype.c           0x00000000   Number         0  isgraph_o.o ABSOLUTE
    ../clib/microlib/ctype/ctype.c           0x00000000   Number         0  ctype_o.o ABSOLUTE
    ../clib/microlib/ctype/ctype.c           0x00000000   Number         0  isxdigit_o.o ABSOLUTE
    ../clib/microlib/ctype/ctype.c           0x00000000   Number         0  isalnum_o.o ABSOLUTE
    ../clib/microlib/ctype/ctype.c           0x00000000   Number         0  isalpha_o.o ABSOLUTE
    ../clib/microlib/ctype/ctype.c           0x00000000   Number         0  isblank_o.o ABSOLUTE
    ../clib/microlib/ctype/ctype.c           0x00000000   Number         0  iscntrl_o.o ABSOLUTE
    ../clib/microlib/ctype/ctype.c           0x00000000   Number         0  isdigit_o.o ABSOLUTE
    ../clib/microlib/ctype/ctype.c           0x00000000   Number         0  islower_o.o ABSOLUTE
    ../clib/microlib/ctype/ctype.c           0x00000000   Number         0  isprint_o.o ABSOLUTE
    ../clib/microlib/ctype/ctype.c           0x00000000   Number         0  ispunct_o.o ABSOLUTE
    ../clib/microlib/ctype/ctype.c           0x00000000   Number         0  isspace_o.o ABSOLUTE
    ../clib/microlib/ctype/ctype.c           0x00000000   Number         0  isupper_o.o ABSOLUTE
    ../clib/microlib/ctype/tolower.c         0x00000000   Number         0  tolower.o ABSOLUTE
    ../clib/microlib/division.c              0x00000000   Number         0  uidiv.o ABSOLUTE
    ../clib/microlib/division.c              0x00000000   Number         0  uldiv.o ABSOLUTE
    ../clib/microlib/errno.c                 0x00000000   Number         0  errno.o ABSOLUTE
    ../clib/microlib/init/entry.s            0x00000000   Number         0  entry7b.o ABSOLUTE
    ../clib/microlib/init/entry.s            0x00000000   Number         0  entry9a.o ABSOLUTE
    ../clib/microlib/init/entry.s            0x00000000   Number         0  entry5.o ABSOLUTE
    ../clib/microlib/init/entry.s            0x00000000   Number         0  entry8a.o ABSOLUTE
    ../clib/microlib/init/entry.s            0x00000000   Number         0  entry9b.o ABSOLUTE
    ../clib/microlib/init/entry.s            0x00000000   Number         0  entry8b.o ABSOLUTE
    ../clib/microlib/init/entry.s            0x00000000   Number         0  entry10a.o ABSOLUTE
    ../clib/microlib/init/entry.s            0x00000000   Number         0  entry10b.o ABSOLUTE
    ../clib/microlib/init/entry.s            0x00000000   Number         0  entry.o ABSOLUTE
    ../clib/microlib/init/entry.s            0x00000000   Number         0  entry7a.o ABSOLUTE
    ../clib/microlib/init/entry.s            0x00000000   Number         0  entry11a.o ABSOLUTE
    ../clib/microlib/init/entry.s            0x00000000   Number         0  entry2.o ABSOLUTE
    ../clib/microlib/init/entry.s            0x00000000   Number         0  entry11b.o ABSOLUTE
    ../clib/microlib/longlong.c              0x00000000   Number         0  llshl.o ABSOLUTE
    ../clib/microlib/longlong.c              0x00000000   Number         0  llsshr.o ABSOLUTE
    ../clib/microlib/longlong.c              0x00000000   Number         0  llushr.o ABSOLUTE
    ../clib/microlib/printf/printf.c         0x00000000   Number         0  printf7.o ABSOLUTE
    ../clib/microlib/printf/printf.c         0x00000000   Number         0  printf3.o ABSOLUTE
    ../clib/microlib/printf/printf.c         0x00000000   Number         0  printf2.o ABSOLUTE
    ../clib/microlib/printf/printf.c         0x00000000   Number         0  printf6.o ABSOLUTE
    ../clib/microlib/printf/printf.c         0x00000000   Number         0  printfb.o ABSOLUTE
    ../clib/microlib/printf/printf.c         0x00000000   Number         0  printf0.o ABSOLUTE
    ../clib/microlib/printf/printf.c         0x00000000   Number         0  printf4.o ABSOLUTE
    ../clib/microlib/printf/printf.c         0x00000000   Number         0  printf5.o ABSOLUTE
    ../clib/microlib/printf/printf.c         0x00000000   Number         0  printfa.o ABSOLUTE
    ../clib/microlib/printf/printf.c         0x00000000   Number         0  printf8.o ABSOLUTE
    ../clib/microlib/printf/printf.c         0x00000000   Number         0  printf1.o ABSOLUTE
    ../clib/microlib/printf/stubs.s          0x00000000   Number         0  stubs.o ABSOLUTE
    ../clib/microlib/stdio/fflush.c          0x00000000   Number         0  fflush.o ABSOLUTE
    ../clib/microlib/stdio/fputc.c           0x00000000   Number         0  fputc.o ABSOLUTE
    ../clib/microlib/stdio/semi.s            0x00000000   Number         0  semi.o ABSOLUTE
    ../clib/microlib/stdio/streams.c         0x00000000   Number         0  stdout.o ABSOLUTE
    ../clib/microlib/stdlib/qsort.c          0x00000000   Number         0  qsort.o ABSOLUTE
    ../clib/microlib/string/memcmp.c         0x00000000   Number         0  memcmp.o ABSOLUTE
    ../clib/microlib/string/memcpy.c         0x00000000   Number         0  memmoveb.o ABSOLUTE
    ../clib/microlib/string/memcpy.c         0x00000000   Number         0  memcpy.o ABSOLUTE
    ../clib/microlib/string/memcpy.c         0x00000000   Number         0  memcpya.o ABSOLUTE
    ../clib/microlib/string/memcpy.c         0x00000000   Number         0  memmove.o ABSOLUTE
    ../clib/microlib/string/memcpy.c         0x00000000   Number         0  memmovea.o ABSOLUTE
    ../clib/microlib/string/memcpy.c         0x00000000   Number         0  memmovec.o ABSOLUTE
    ../clib/microlib/string/memcpy.c         0x00000000   Number         0  memcpyb.o ABSOLUTE
    ../clib/microlib/string/memcpy.c         0x00000000   Number         0  memcpyc.o ABSOLUTE
    ../clib/microlib/string/memset.c         0x00000000   Number         0  memset.o ABSOLUTE
    ../clib/microlib/string/memset.c         0x00000000   Number         0  memseta.o ABSOLUTE
    ../clib/microlib/string/strcat.c         0x00000000   Number         0  strcat.o ABSOLUTE
    ../clib/microlib/string/strchr.c         0x00000000   Number         0  strchr.o ABSOLUTE
    ../clib/microlib/string/strcmp.c         0x00000000   Number         0  strcmp.o ABSOLUTE
    ../clib/microlib/string/strcpy.c         0x00000000   Number         0  strcpy.o ABSOLUTE
    ../clib/microlib/string/strlen.c         0x00000000   Number         0  strlen.o ABSOLUTE
    ../clib/microlib/string/strncmp.c        0x00000000   Number         0  strncmp.o ABSOLUTE
    ../clib/microlib/stubs.s                 0x00000000   Number         0  iusesemip.o ABSOLUTE
    ../clib/microlib/stubs.s                 0x00000000   Number         0  iusefp.o ABSOLUTE
    ../clib/microlib/stubs.s                 0x00000000   Number         0  useno.o ABSOLUTE
    ../clib/scanf.c                          0x00000000   Number         0  atoi.o ABSOLUTE
    ../clib/scanf.c                          0x00000000   Number         0  _strtoul.o ABSOLUTE
    ../clib/scanf.c                          0x00000000   Number         0  _chval.o ABSOLUTE
    ../clib/scanf.c                          0x00000000   Number         0  strtol.o ABSOLUTE
    ../fplib/microlib/fpadd.c                0x00000000   Number         0  dadd.o ABSOLUTE
    ../fplib/microlib/fpdiv.c                0x00000000   Number         0  ddiv.o ABSOLUTE
    ../fplib/microlib/fpepilogue.c           0x00000000   Number         0  depilogue.o ABSOLUTE
    ../fplib/microlib/fpfix.c                0x00000000   Number         0  dfixul.o ABSOLUTE
    ../fplib/microlib/fpmul.c                0x00000000   Number         0  dmul.o ABSOLUTE
    ..\..\..\..\..\..\..\components\ble\ble_advertising\ble_advertising.c 0x00000000   Number         0  ble_advertising.o ABSOLUTE
    ..\..\..\..\..\..\..\components\ble\ble_services\ble_bas\ble_bas.c 0x00000000   Number         0  ble_bas.o ABSOLUTE
    ..\..\..\..\..\..\..\components\ble\common\ble_advdata.c 0x00000000   Number         0  ble_advdata.o ABSOLUTE
    ..\..\..\..\..\..\..\components\ble\common\ble_conn_params.c 0x00000000   Number         0  ble_conn_params.o ABSOLUTE
    ..\..\..\..\..\..\..\components\ble\common\ble_conn_state.c 0x00000000   Number         0  ble_conn_state.o ABSOLUTE
    ..\..\..\..\..\..\..\components\ble\common\ble_srv_common.c 0x00000000   Number         0  ble_srv_common.o ABSOLUTE
    ..\..\..\..\..\..\..\components\ble\nrf_ble_gatt\nrf_ble_gatt.c 0x00000000   Number         0  nrf_ble_gatt.o ABSOLUTE
    ..\..\..\..\..\..\..\components\ble\nrf_ble_scan\nrf_ble_scan.c 0x00000000   Number         0  nrf_ble_scan.o ABSOLUTE
    ..\..\..\..\..\..\..\components\ble\peer_manager\auth_status_tracker.c 0x00000000   Number         0  auth_status_tracker.o ABSOLUTE
    ..\..\..\..\..\..\..\components\ble\peer_manager\gatt_cache_manager.c 0x00000000   Number         0  gatt_cache_manager.o ABSOLUTE
    ..\..\..\..\..\..\..\components\ble\peer_manager\gatts_cache_manager.c 0x00000000   Number         0  gatts_cache_manager.o ABSOLUTE
    ..\..\..\..\..\..\..\components\ble\peer_manager\id_manager.c 0x00000000   Number         0  id_manager.o ABSOLUTE
    ..\..\..\..\..\..\..\components\ble\peer_manager\nrf_ble_lesc.c 0x00000000   Number         0  nrf_ble_lesc.o ABSOLUTE
    ..\..\..\..\..\..\..\components\ble\peer_manager\peer_data_storage.c 0x00000000   Number         0  peer_data_storage.o ABSOLUTE
    ..\..\..\..\..\..\..\components\ble\peer_manager\peer_database.c 0x00000000   Number         0  peer_database.o ABSOLUTE
    ..\..\..\..\..\..\..\components\ble\peer_manager\peer_id.c 0x00000000   Number         0  peer_id.o ABSOLUTE
    ..\..\..\..\..\..\..\components\ble\peer_manager\peer_manager.c 0x00000000   Number         0  peer_manager.o ABSOLUTE
    ..\..\..\..\..\..\..\components\ble\peer_manager\peer_manager_handler.c 0x00000000   Number         0  peer_manager_handler.o ABSOLUTE
    ..\..\..\..\..\..\..\components\ble\peer_manager\pm_buffer.c 0x00000000   Number         0  pm_buffer.o ABSOLUTE
    ..\..\..\..\..\..\..\components\ble\peer_manager\security_dispatcher.c 0x00000000   Number         0  security_dispatcher.o ABSOLUTE
    ..\..\..\..\..\..\..\components\ble\peer_manager\security_manager.c 0x00000000   Number         0  security_manager.o ABSOLUTE
    ..\..\..\..\..\..\..\components\boards\boards.c 0x00000000   Number         0  boards.o ABSOLUTE
    ..\..\..\..\..\..\..\components\libraries\atomic\nrf_atomic.c 0x00000000   Number         0  nrf_atomic.o ABSOLUTE
    ..\..\..\..\..\..\..\components\libraries\atomic_fifo\nrf_atfifo.c 0x00000000   Number         0  nrf_atfifo.o ABSOLUTE
    ..\..\..\..\..\..\..\components\libraries\atomic_flags\nrf_atflags.c 0x00000000   Number         0  nrf_atflags.o ABSOLUTE
    ..\..\..\..\..\..\..\components\libraries\balloc\nrf_balloc.c 0x00000000   Number         0  nrf_balloc.o ABSOLUTE
    ..\..\..\..\..\..\..\components\libraries\bsp\bsp.c 0x00000000   Number         0  bsp.o ABSOLUTE
    ..\..\..\..\..\..\..\components\libraries\bsp\bsp_btn_ble.c 0x00000000   Number         0  bsp_btn_ble.o ABSOLUTE
    ..\..\..\..\..\..\..\components\libraries\bsp\bsp_nfc.c 0x00000000   Number         0  bsp_nfc.o ABSOLUTE
    ..\..\..\..\..\..\..\components\libraries\button\app_button.c 0x00000000   Number         0  app_button.o ABSOLUTE
    ..\..\..\..\..\..\..\components\libraries\cli\nrf_cli.c 0x00000000   Number         0  nrf_cli.o ABSOLUTE
    ..\..\..\..\..\..\..\components\libraries\cli\rtt\nrf_cli_rtt.c 0x00000000   Number         0  nrf_cli_rtt.o ABSOLUTE
    ..\..\..\..\..\..\..\components\libraries\cli\uart\nrf_cli_uart.c 0x00000000   Number         0  nrf_cli_uart.o ABSOLUTE
    ..\..\..\..\..\..\..\components\libraries\crc16\crc16.c 0x00000000   Number         0  crc16.o ABSOLUTE
    ..\..\..\..\..\..\..\components\libraries\crypto\backend\nrf_hw\nrf_hw_backend_init.c 0x00000000   Number         0  nrf_hw_backend_init.o ABSOLUTE
    ..\..\..\..\..\..\..\components\libraries\crypto\backend\nrf_hw\nrf_hw_backend_rng.c 0x00000000   Number         0  nrf_hw_backend_rng.o ABSOLUTE
    ..\..\..\..\..\..\..\components\libraries\crypto\backend\nrf_hw\nrf_hw_backend_rng_mbedtls.c 0x00000000   Number         0  nrf_hw_backend_rng_mbedtls.o ABSOLUTE
    ..\..\..\..\..\..\..\components\libraries\crypto\backend\oberon\oberon_backend_chacha_poly_aead.c 0x00000000   Number         0  oberon_backend_chacha_poly_aead.o ABSOLUTE
    ..\..\..\..\..\..\..\components\libraries\crypto\backend\oberon\oberon_backend_ecc.c 0x00000000   Number         0  oberon_backend_ecc.o ABSOLUTE
    ..\..\..\..\..\..\..\components\libraries\crypto\backend\oberon\oberon_backend_ecdh.c 0x00000000   Number         0  oberon_backend_ecdh.o ABSOLUTE
    ..\..\..\..\..\..\..\components\libraries\crypto\backend\oberon\oberon_backend_ecdsa.c 0x00000000   Number         0  oberon_backend_ecdsa.o ABSOLUTE
    ..\..\..\..\..\..\..\components\libraries\crypto\backend\oberon\oberon_backend_eddsa.c 0x00000000   Number         0  oberon_backend_eddsa.o ABSOLUTE
    ..\..\..\..\..\..\..\components\libraries\crypto\backend\oberon\oberon_backend_hash.c 0x00000000   Number         0  oberon_backend_hash.o ABSOLUTE
    ..\..\..\..\..\..\..\components\libraries\crypto\backend\oberon\oberon_backend_hmac.c 0x00000000   Number         0  oberon_backend_hmac.o ABSOLUTE
    ..\..\..\..\..\..\..\components\libraries\crypto\nrf_crypto_aead.c 0x00000000   Number         0  nrf_crypto_aead.o ABSOLUTE
    ..\..\..\..\..\..\..\components\libraries\crypto\nrf_crypto_aes.c 0x00000000   Number         0  nrf_crypto_aes.o ABSOLUTE
    ..\..\..\..\..\..\..\components\libraries\crypto\nrf_crypto_aes_shared.c 0x00000000   Number         0  nrf_crypto_aes_shared.o ABSOLUTE
    ..\..\..\..\..\..\..\components\libraries\crypto\nrf_crypto_ecc.c 0x00000000   Number         0  nrf_crypto_ecc.o ABSOLUTE
    ..\..\..\..\..\..\..\components\libraries\crypto\nrf_crypto_ecdh.c 0x00000000   Number         0  nrf_crypto_ecdh.o ABSOLUTE
    ..\..\..\..\..\..\..\components\libraries\crypto\nrf_crypto_ecdsa.c 0x00000000   Number         0  nrf_crypto_ecdsa.o ABSOLUTE
    ..\..\..\..\..\..\..\components\libraries\crypto\nrf_crypto_eddsa.c 0x00000000   Number         0  nrf_crypto_eddsa.o ABSOLUTE
    ..\..\..\..\..\..\..\components\libraries\crypto\nrf_crypto_error.c 0x00000000   Number         0  nrf_crypto_error.o ABSOLUTE
    ..\..\..\..\..\..\..\components\libraries\crypto\nrf_crypto_hash.c 0x00000000   Number         0  nrf_crypto_hash.o ABSOLUTE
    ..\..\..\..\..\..\..\components\libraries\crypto\nrf_crypto_hkdf.c 0x00000000   Number         0  nrf_crypto_hkdf.o ABSOLUTE
    ..\..\..\..\..\..\..\components\libraries\crypto\nrf_crypto_hmac.c 0x00000000   Number         0  nrf_crypto_hmac.o ABSOLUTE
    ..\..\..\..\..\..\..\components\libraries\crypto\nrf_crypto_init.c 0x00000000   Number         0  nrf_crypto_init.o ABSOLUTE
    ..\..\..\..\..\..\..\components\libraries\crypto\nrf_crypto_rng.c 0x00000000   Number         0  nrf_crypto_rng.o ABSOLUTE
    ..\..\..\..\..\..\..\components\libraries\crypto\nrf_crypto_shared.c 0x00000000   Number         0  nrf_crypto_shared.o ABSOLUTE
    ..\..\..\..\..\..\..\components\libraries\experimental_section_vars\nrf_section_iter.c 0x00000000   Number         0  nrf_section_iter.o ABSOLUTE
    ..\..\..\..\..\..\..\components\libraries\fds\fds.c 0x00000000   Number         0  fds.o ABSOLUTE
    ..\..\..\..\..\..\..\components\libraries\fstorage\nrf_fstorage.c 0x00000000   Number         0  nrf_fstorage.o ABSOLUTE
    ..\..\..\..\..\..\..\components\libraries\fstorage\nrf_fstorage_sd.c 0x00000000   Number         0  nrf_fstorage_sd.o ABSOLUTE
    ..\..\..\..\..\..\..\components\libraries\hardfault\hardfault_implementation.c 0x00000000   Number         0  hardfault_implementation.o ABSOLUTE
    ..\..\..\..\..\..\..\components\libraries\hardfault\nrf52\handler\hardfault_handler_keil.c 0x00000000   Number         0  hardfault_handler_keil.o ABSOLUTE
    ..\..\..\..\..\..\..\components\libraries\log\src\nrf_log_backend_rtt.c 0x00000000   Number         0  nrf_log_backend_rtt.o ABSOLUTE
    ..\..\..\..\..\..\..\components\libraries\log\src\nrf_log_backend_serial.c 0x00000000   Number         0  nrf_log_backend_serial.o ABSOLUTE
    ..\..\..\..\..\..\..\components\libraries\log\src\nrf_log_backend_uart.c 0x00000000   Number         0  nrf_log_backend_uart.o ABSOLUTE
    ..\..\..\..\..\..\..\components\libraries\log\src\nrf_log_default_backends.c 0x00000000   Number         0  nrf_log_default_backends.o ABSOLUTE
    ..\..\..\..\..\..\..\components\libraries\log\src\nrf_log_frontend.c 0x00000000   Number         0  nrf_log_frontend.o ABSOLUTE
    ..\..\..\..\..\..\..\components\libraries\log\src\nrf_log_str_formatter.c 0x00000000   Number         0  nrf_log_str_formatter.o ABSOLUTE
    ..\..\..\..\..\..\..\components\libraries\mem_manager\mem_manager.c 0x00000000   Number         0  mem_manager.o ABSOLUTE
    ..\..\..\..\..\..\..\components\libraries\memobj\nrf_memobj.c 0x00000000   Number         0  nrf_memobj.o ABSOLUTE
    ..\..\..\..\..\..\..\components\libraries\mpu\nrf_mpu_lib.c 0x00000000   Number         0  nrf_mpu_lib.o ABSOLUTE
    ..\..\..\..\..\..\..\components\libraries\pwr_mgmt\nrf_pwr_mgmt.c 0x00000000   Number         0  nrf_pwr_mgmt.o ABSOLUTE
    ..\..\..\..\..\..\..\components\libraries\queue\nrf_queue.c 0x00000000   Number         0  nrf_queue.o ABSOLUTE
    ..\..\..\..\..\..\..\components\libraries\ringbuf\nrf_ringbuf.c 0x00000000   Number         0  nrf_ringbuf.o ABSOLUTE
    ..\..\..\..\..\..\..\components\libraries\scheduler\app_scheduler.c 0x00000000   Number         0  app_scheduler.o ABSOLUTE
    ..\..\..\..\..\..\..\components\libraries\sortlist\nrf_sortlist.c 0x00000000   Number         0  nrf_sortlist.o ABSOLUTE
    ..\..\..\..\..\..\..\components\libraries\stack_guard\nrf_stack_guard.c 0x00000000   Number         0  nrf_stack_guard.o ABSOLUTE
    ..\..\..\..\..\..\..\components\libraries\strerror\nrf_strerror.c 0x00000000   Number         0  nrf_strerror.o ABSOLUTE
    ..\..\..\..\..\..\..\components\libraries\timer\app_timer2.c 0x00000000   Number         0  app_timer2.o ABSOLUTE
    ..\..\..\..\..\..\..\components\libraries\timer\drv_rtc.c 0x00000000   Number         0  drv_rtc.o ABSOLUTE
    ..\..\..\..\..\..\..\components\libraries\util\app_error.c 0x00000000   Number         0  app_error.o ABSOLUTE
    ..\..\..\..\..\..\..\components\libraries\util\app_error_handler_keil.c 0x00000000   Number         0  app_error_handler_keil.o ABSOLUTE
    ..\..\..\..\..\..\..\components\libraries\util\app_error_weak.c 0x00000000   Number         0  app_error_weak.o ABSOLUTE
    ..\..\..\..\..\..\..\components\libraries\util\app_util_platform.c 0x00000000   Number         0  app_util_platform.o ABSOLUTE
    ..\..\..\..\..\..\..\components\libraries\util\nrf_assert.c 0x00000000   Number         0  nrf_assert.o ABSOLUTE
    ..\..\..\..\..\..\..\components\nfc\ndef\conn_hand_parser\ble_oob_advdata_parser\nfc_ble_oob_advdata_parser.c 0x00000000   Number         0  nfc_ble_oob_advdata_parser.o ABSOLUTE
    ..\..\..\..\..\..\..\components\nfc\ndef\conn_hand_parser\le_oob_rec_parser\nfc_le_oob_rec_parser.c 0x00000000   Number         0  nfc_le_oob_rec_parser.o ABSOLUTE
    ..\..\..\..\..\..\..\components\nfc\ndef\connection_handover\ac_rec\nfc_ac_rec.c 0x00000000   Number         0  nfc_ac_rec.o ABSOLUTE
    ..\..\..\..\..\..\..\components\nfc\ndef\connection_handover\ble_oob_advdata\nfc_ble_oob_advdata.c 0x00000000   Number         0  nfc_ble_oob_advdata.o ABSOLUTE
    ..\..\..\..\..\..\..\components\nfc\ndef\connection_handover\ble_pair_msg\nfc_ble_pair_msg.c 0x00000000   Number         0  nfc_ble_pair_msg.o ABSOLUTE
    ..\..\..\..\..\..\..\components\nfc\ndef\connection_handover\common\nfc_ble_pair_common.c 0x00000000   Number         0  nfc_ble_pair_common.o ABSOLUTE
    ..\..\..\..\..\..\..\components\nfc\ndef\connection_handover\ep_oob_rec\nfc_ep_oob_rec.c 0x00000000   Number         0  nfc_ep_oob_rec.o ABSOLUTE
    ..\..\..\..\..\..\..\components\nfc\ndef\connection_handover\hs_rec\nfc_hs_rec.c 0x00000000   Number         0  nfc_hs_rec.o ABSOLUTE
    ..\..\..\..\..\..\..\components\nfc\ndef\connection_handover\le_oob_rec\nfc_le_oob_rec.c 0x00000000   Number         0  nfc_le_oob_rec.o ABSOLUTE
    ..\..\..\..\..\..\..\components\nfc\ndef\generic\message\nfc_ndef_msg.c 0x00000000   Number         0  nfc_ndef_msg.o ABSOLUTE
    ..\..\..\..\..\..\..\components\nfc\ndef\generic\record\nfc_ndef_record.c 0x00000000   Number         0  nfc_ndef_record.o ABSOLUTE
    ..\..\..\..\..\..\..\components\nfc\ndef\parser\message\nfc_ndef_msg_parser.c 0x00000000   Number         0  nfc_ndef_msg_parser.o ABSOLUTE
    ..\..\..\..\..\..\..\components\nfc\ndef\parser\message\nfc_ndef_msg_parser_local.c 0x00000000   Number         0  nfc_ndef_msg_parser_local.o ABSOLUTE
    ..\..\..\..\..\..\..\components\nfc\ndef\parser\record\nfc_ndef_record_parser.c 0x00000000   Number         0  nfc_ndef_record_parser.o ABSOLUTE
    ..\..\..\..\..\..\..\components\nfc\platform\nfc_platform.c 0x00000000   Number         0  nfc_platform.o ABSOLUTE
    ..\..\..\..\..\..\..\components\nfc\t2t_parser\nfc_t2t_parser.c 0x00000000   Number         0  nfc_t2t_parser.o ABSOLUTE
    ..\..\..\..\..\..\..\components\softdevice\common\nrf_sdh.c 0x00000000   Number         0  nrf_sdh.o ABSOLUTE
    ..\..\..\..\..\..\..\components\softdevice\common\nrf_sdh_ble.c 0x00000000   Number         0  nrf_sdh_ble.o ABSOLUTE
    ..\..\..\..\..\..\..\components\softdevice\common\nrf_sdh_soc.c 0x00000000   Number         0  nrf_sdh_soc.o ABSOLUTE
    ..\..\..\..\..\..\..\external\fnmatch\fnmatch.c 0x00000000   Number         0  fnmatch.o ABSOLUTE
    ..\..\..\..\..\..\..\external\fprintf\nrf_fprintf.c 0x00000000   Number         0  nrf_fprintf.o ABSOLUTE
    ..\..\..\..\..\..\..\external\fprintf\nrf_fprintf_format.c 0x00000000   Number         0  nrf_fprintf_format.o ABSOLUTE
    ..\..\..\..\..\..\..\external\mbedtls\library\aes.c 0x00000000   Number         0  aes.o ABSOLUTE
    ..\..\..\..\..\..\..\external\mbedtls\library\ctr_drbg.c 0x00000000   Number         0  ctr_drbg.o ABSOLUTE
    ..\..\..\..\..\..\..\external\mbedtls\library\platform_util.c 0x00000000   Number         0  platform_util.o ABSOLUTE
    ..\..\..\..\..\..\..\external\nfc_adafruit_library\adafruit_pn532.c 0x00000000   Number         0  adafruit_pn532.o ABSOLUTE
    ..\..\..\..\..\..\..\external\segger_rtt\SEGGER_RTT.c 0x00000000   Number         0  segger_rtt.o ABSOLUTE
    ..\..\..\..\..\..\..\external\segger_rtt\SEGGER_RTT_Syscalls_KEIL.c 0x00000000   Number         0  segger_rtt_syscalls_keil.o ABSOLUTE
    ..\..\..\..\..\..\..\external\segger_rtt\SEGGER_RTT_printf.c 0x00000000   Number         0  segger_rtt_printf.o ABSOLUTE
    ..\..\..\..\..\..\..\integration\nrfx\legacy\nrf_drv_clock.c 0x00000000   Number         0  nrf_drv_clock.o ABSOLUTE
    ..\..\..\..\..\..\..\integration\nrfx\legacy\nrf_drv_rng.c 0x00000000   Number         0  nrf_drv_rng.o ABSOLUTE
    ..\..\..\..\..\..\..\integration\nrfx\legacy\nrf_drv_twi.c 0x00000000   Number         0  nrf_drv_twi.o ABSOLUTE
    ..\..\..\..\..\..\..\integration\nrfx\legacy\nrf_drv_uart.c 0x00000000   Number         0  nrf_drv_uart.o ABSOLUTE
    ..\..\..\..\..\..\..\modules\nrfx\drivers\src\nrfx_clock.c 0x00000000   Number         0  nrfx_clock.o ABSOLUTE
    ..\..\..\..\..\..\..\modules\nrfx\drivers\src\nrfx_gpiote.c 0x00000000   Number         0  nrfx_gpiote.o ABSOLUTE
    ..\..\..\..\..\..\..\modules\nrfx\drivers\src\nrfx_nfct.c 0x00000000   Number         0  nrfx_nfct.o ABSOLUTE
    ..\..\..\..\..\..\..\modules\nrfx\drivers\src\nrfx_rng.c 0x00000000   Number         0  nrfx_rng.o ABSOLUTE
    ..\..\..\..\..\..\..\modules\nrfx\drivers\src\nrfx_timer.c 0x00000000   Number         0  nrfx_timer.o ABSOLUTE
    ..\..\..\..\..\..\..\modules\nrfx\drivers\src\nrfx_twi.c 0x00000000   Number         0  nrfx_twi.o ABSOLUTE
    ..\..\..\..\..\..\..\modules\nrfx\drivers\src\nrfx_twim.c 0x00000000   Number         0  nrfx_twim.o ABSOLUTE
    ..\..\..\..\..\..\..\modules\nrfx\drivers\src\nrfx_uart.c 0x00000000   Number         0  nrfx_uart.o ABSOLUTE
    ..\..\..\..\..\..\..\modules\nrfx\drivers\src\nrfx_uarte.c 0x00000000   Number         0  nrfx_uarte.o ABSOLUTE
    ..\..\..\..\..\..\..\modules\nrfx\drivers\src\prs\nrfx_prs.c 0x00000000   Number         0  nrfx_prs.o ABSOLUTE
    ..\..\..\..\..\..\..\modules\nrfx\soc\nrfx_atomic.c 0x00000000   Number         0  nrfx_atomic.o ABSOLUTE
    ..\..\..\ble_m.c                         0x00000000   Number         0  ble_m.o ABSOLUTE
    ..\..\..\cli_m.c                         0x00000000   Number         0  cli_m.o ABSOLUTE
    ..\..\..\main.c                          0x00000000   Number         0  main.o ABSOLUTE
    ..\..\..\nfc_central_m.c                 0x00000000   Number         0  nfc_central_m.o ABSOLUTE
    ..\..\..\nfc_m.c                         0x00000000   Number         0  nfc_m.o ABSOLUTE
    ..\..\..\nfc_pair_lib_m.c                0x00000000   Number         0  nfc_pair_lib_m.o ABSOLUTE
    ..\..\..\pm_m.c                          0x00000000   Number         0  pm_m.o ABSOLUTE
    ..\\..\\..\\..\\..\\..\\..\\components\\ble\\ble_advertising\\ble_advertising.c 0x00000000   Number         0  ble_advertising.o ABSOLUTE
    ..\\..\\..\\..\\..\\..\\..\\components\\ble\\ble_services\\ble_bas\\ble_bas.c 0x00000000   Number         0  ble_bas.o ABSOLUTE
    ..\\..\\..\\..\\..\\..\\..\\components\\ble\\common\\ble_advdata.c 0x00000000   Number         0  ble_advdata.o ABSOLUTE
    ..\\..\\..\\..\\..\\..\\..\\components\\ble\\common\\ble_conn_params.c 0x00000000   Number         0  ble_conn_params.o ABSOLUTE
    ..\\..\\..\\..\\..\\..\\..\\components\\ble\\common\\ble_conn_state.c 0x00000000   Number         0  ble_conn_state.o ABSOLUTE
    ..\\..\\..\\..\\..\\..\\..\\components\\ble\\common\\ble_srv_common.c 0x00000000   Number         0  ble_srv_common.o ABSOLUTE
    ..\\..\\..\\..\\..\\..\\..\\components\\ble\\nrf_ble_gatt\\nrf_ble_gatt.c 0x00000000   Number         0  nrf_ble_gatt.o ABSOLUTE
    ..\\..\\..\\..\\..\\..\\..\\components\\ble\\nrf_ble_scan\\nrf_ble_scan.c 0x00000000   Number         0  nrf_ble_scan.o ABSOLUTE
    ..\\..\\..\\..\\..\\..\\..\\components\\ble\\peer_manager\\auth_status_tracker.c 0x00000000   Number         0  auth_status_tracker.o ABSOLUTE
    ..\\..\\..\\..\\..\\..\\..\\components\\ble\\peer_manager\\gatt_cache_manager.c 0x00000000   Number         0  gatt_cache_manager.o ABSOLUTE
    ..\\..\\..\\..\\..\\..\\..\\components\\ble\\peer_manager\\gatts_cache_manager.c 0x00000000   Number         0  gatts_cache_manager.o ABSOLUTE
    ..\\..\\..\\..\\..\\..\\..\\components\\ble\\peer_manager\\id_manager.c 0x00000000   Number         0  id_manager.o ABSOLUTE
    ..\\..\\..\\..\\..\\..\\..\\components\\ble\\peer_manager\\nrf_ble_lesc.c 0x00000000   Number         0  nrf_ble_lesc.o ABSOLUTE
    ..\\..\\..\\..\\..\\..\\..\\components\\ble\\peer_manager\\peer_data_storage.c 0x00000000   Number         0  peer_data_storage.o ABSOLUTE
    ..\\..\\..\\..\\..\\..\\..\\components\\ble\\peer_manager\\peer_database.c 0x00000000   Number         0  peer_database.o ABSOLUTE
    ..\\..\\..\\..\\..\\..\\..\\components\\ble\\peer_manager\\peer_id.c 0x00000000   Number         0  peer_id.o ABSOLUTE
    ..\\..\\..\\..\\..\\..\\..\\components\\ble\\peer_manager\\peer_manager.c 0x00000000   Number         0  peer_manager.o ABSOLUTE
    ..\\..\\..\\..\\..\\..\\..\\components\\ble\\peer_manager\\peer_manager_handler.c 0x00000000   Number         0  peer_manager_handler.o ABSOLUTE
    ..\\..\\..\\..\\..\\..\\..\\components\\ble\\peer_manager\\pm_buffer.c 0x00000000   Number         0  pm_buffer.o ABSOLUTE
    ..\\..\\..\\..\\..\\..\\..\\components\\ble\\peer_manager\\security_dispatcher.c 0x00000000   Number         0  security_dispatcher.o ABSOLUTE
    ..\\..\\..\\..\\..\\..\\..\\components\\ble\\peer_manager\\security_manager.c 0x00000000   Number         0  security_manager.o ABSOLUTE
    ..\\..\\..\\..\\..\\..\\..\\components\\boards\\boards.c 0x00000000   Number         0  boards.o ABSOLUTE
    ..\\..\\..\\..\\..\\..\\..\\components\\libraries\\atomic\\nrf_atomic.c 0x00000000   Number         0  nrf_atomic.o ABSOLUTE
    ..\\..\\..\\..\\..\\..\\..\\components\\libraries\\atomic_fifo\\nrf_atfifo.c 0x00000000   Number         0  nrf_atfifo.o ABSOLUTE
    ..\\..\\..\\..\\..\\..\\..\\components\\libraries\\atomic_flags\\nrf_atflags.c 0x00000000   Number         0  nrf_atflags.o ABSOLUTE
    ..\\..\\..\\..\\..\\..\\..\\components\\libraries\\balloc\\nrf_balloc.c 0x00000000   Number         0  nrf_balloc.o ABSOLUTE
    ..\\..\\..\\..\\..\\..\\..\\components\\libraries\\bsp\\bsp.c 0x00000000   Number         0  bsp.o ABSOLUTE
    ..\\..\\..\\..\\..\\..\\..\\components\\libraries\\bsp\\bsp_btn_ble.c 0x00000000   Number         0  bsp_btn_ble.o ABSOLUTE
    ..\\..\\..\\..\\..\\..\\..\\components\\libraries\\bsp\\bsp_nfc.c 0x00000000   Number         0  bsp_nfc.o ABSOLUTE
    ..\\..\\..\\..\\..\\..\\..\\components\\libraries\\button\\app_button.c 0x00000000   Number         0  app_button.o ABSOLUTE
    ..\\..\\..\\..\\..\\..\\..\\components\\libraries\\cli\\nrf_cli.c 0x00000000   Number         0  nrf_cli.o ABSOLUTE
    ..\\..\\..\\..\\..\\..\\..\\components\\libraries\\cli\\rtt\\nrf_cli_rtt.c 0x00000000   Number         0  nrf_cli_rtt.o ABSOLUTE
    ..\\..\\..\\..\\..\\..\\..\\components\\libraries\\cli\\uart\\nrf_cli_uart.c 0x00000000   Number         0  nrf_cli_uart.o ABSOLUTE
    ..\\..\\..\\..\\..\\..\\..\\components\\libraries\\crc16\\crc16.c 0x00000000   Number         0  crc16.o ABSOLUTE
    ..\\..\\..\\..\\..\\..\\..\\components\\libraries\\crypto\\backend\\nrf_hw\\nrf_hw_backend_init.c 0x00000000   Number         0  nrf_hw_backend_init.o ABSOLUTE
    ..\\..\\..\\..\\..\\..\\..\\components\\libraries\\crypto\\backend\\nrf_hw\\nrf_hw_backend_rng.c 0x00000000   Number         0  nrf_hw_backend_rng.o ABSOLUTE
    ..\\..\\..\\..\\..\\..\\..\\components\\libraries\\crypto\\backend\\nrf_hw\\nrf_hw_backend_rng_mbedtls.c 0x00000000   Number         0  nrf_hw_backend_rng_mbedtls.o ABSOLUTE
    ..\\..\\..\\..\\..\\..\\..\\components\\libraries\\crypto\\backend\\oberon\\oberon_backend_chacha_poly_aead.c 0x00000000   Number         0  oberon_backend_chacha_poly_aead.o ABSOLUTE
    ..\\..\\..\\..\\..\\..\\..\\components\\libraries\\crypto\\backend\\oberon\\oberon_backend_ecc.c 0x00000000   Number         0  oberon_backend_ecc.o ABSOLUTE
    ..\\..\\..\\..\\..\\..\\..\\components\\libraries\\crypto\\backend\\oberon\\oberon_backend_ecdh.c 0x00000000   Number         0  oberon_backend_ecdh.o ABSOLUTE
    ..\\..\\..\\..\\..\\..\\..\\components\\libraries\\crypto\\backend\\oberon\\oberon_backend_ecdsa.c 0x00000000   Number         0  oberon_backend_ecdsa.o ABSOLUTE
    ..\\..\\..\\..\\..\\..\\..\\components\\libraries\\crypto\\backend\\oberon\\oberon_backend_eddsa.c 0x00000000   Number         0  oberon_backend_eddsa.o ABSOLUTE
    ..\\..\\..\\..\\..\\..\\..\\components\\libraries\\crypto\\backend\\oberon\\oberon_backend_hash.c 0x00000000   Number         0  oberon_backend_hash.o ABSOLUTE
    ..\\..\\..\\..\\..\\..\\..\\components\\libraries\\crypto\\backend\\oberon\\oberon_backend_hmac.c 0x00000000   Number         0  oberon_backend_hmac.o ABSOLUTE
    ..\\..\\..\\..\\..\\..\\..\\components\\libraries\\crypto\\nrf_crypto_aead.c 0x00000000   Number         0  nrf_crypto_aead.o ABSOLUTE
    ..\\..\\..\\..\\..\\..\\..\\components\\libraries\\crypto\\nrf_crypto_aes.c 0x00000000   Number         0  nrf_crypto_aes.o ABSOLUTE
    ..\\..\\..\\..\\..\\..\\..\\components\\libraries\\crypto\\nrf_crypto_aes_shared.c 0x00000000   Number         0  nrf_crypto_aes_shared.o ABSOLUTE
    ..\\..\\..\\..\\..\\..\\..\\components\\libraries\\crypto\\nrf_crypto_ecc.c 0x00000000   Number         0  nrf_crypto_ecc.o ABSOLUTE
    ..\\..\\..\\..\\..\\..\\..\\components\\libraries\\crypto\\nrf_crypto_ecdh.c 0x00000000   Number         0  nrf_crypto_ecdh.o ABSOLUTE
    ..\\..\\..\\..\\..\\..\\..\\components\\libraries\\crypto\\nrf_crypto_ecdsa.c 0x00000000   Number         0  nrf_crypto_ecdsa.o ABSOLUTE
    ..\\..\\..\\..\\..\\..\\..\\components\\libraries\\crypto\\nrf_crypto_eddsa.c 0x00000000   Number         0  nrf_crypto_eddsa.o ABSOLUTE
    ..\\..\\..\\..\\..\\..\\..\\components\\libraries\\crypto\\nrf_crypto_error.c 0x00000000   Number         0  nrf_crypto_error.o ABSOLUTE
    ..\\..\\..\\..\\..\\..\\..\\components\\libraries\\crypto\\nrf_crypto_hash.c 0x00000000   Number         0  nrf_crypto_hash.o ABSOLUTE
    ..\\..\\..\\..\\..\\..\\..\\components\\libraries\\crypto\\nrf_crypto_hkdf.c 0x00000000   Number         0  nrf_crypto_hkdf.o ABSOLUTE
    ..\\..\\..\\..\\..\\..\\..\\components\\libraries\\crypto\\nrf_crypto_hmac.c 0x00000000   Number         0  nrf_crypto_hmac.o ABSOLUTE
    ..\\..\\..\\..\\..\\..\\..\\components\\libraries\\crypto\\nrf_crypto_init.c 0x00000000   Number         0  nrf_crypto_init.o ABSOLUTE
    ..\\..\\..\\..\\..\\..\\..\\components\\libraries\\crypto\\nrf_crypto_rng.c 0x00000000   Number         0  nrf_crypto_rng.o ABSOLUTE
    ..\\..\\..\\..\\..\\..\\..\\components\\libraries\\crypto\\nrf_crypto_shared.c 0x00000000   Number         0  nrf_crypto_shared.o ABSOLUTE
    ..\\..\\..\\..\\..\\..\\..\\components\\libraries\\experimental_section_vars\\nrf_section_iter.c 0x00000000   Number         0  nrf_section_iter.o ABSOLUTE
    ..\\..\\..\\..\\..\\..\\..\\components\\libraries\\fds\\fds.c 0x00000000   Number         0  fds.o ABSOLUTE
    ..\\..\\..\\..\\..\\..\\..\\components\\libraries\\fstorage\\nrf_fstorage.c 0x00000000   Number         0  nrf_fstorage.o ABSOLUTE
    ..\\..\\..\\..\\..\\..\\..\\components\\libraries\\fstorage\\nrf_fstorage_sd.c 0x00000000   Number         0  nrf_fstorage_sd.o ABSOLUTE
    ..\\..\\..\\..\\..\\..\\..\\components\\libraries\\hardfault\\hardfault_implementation.c 0x00000000   Number         0  hardfault_implementation.o ABSOLUTE
    ..\\..\\..\\..\\..\\..\\..\\components\\libraries\\hardfault\\nrf52\\handler\\hardfault_handler_keil.c 0x00000000   Number         0  hardfault_handler_keil.o ABSOLUTE
    ..\\..\\..\\..\\..\\..\\..\\components\\libraries\\log\\src\\nrf_log_backend_rtt.c 0x00000000   Number         0  nrf_log_backend_rtt.o ABSOLUTE
    ..\\..\\..\\..\\..\\..\\..\\components\\libraries\\log\\src\\nrf_log_backend_serial.c 0x00000000   Number         0  nrf_log_backend_serial.o ABSOLUTE
    ..\\..\\..\\..\\..\\..\\..\\components\\libraries\\log\\src\\nrf_log_backend_uart.c 0x00000000   Number         0  nrf_log_backend_uart.o ABSOLUTE
    ..\\..\\..\\..\\..\\..\\..\\components\\libraries\\log\\src\\nrf_log_default_backends.c 0x00000000   Number         0  nrf_log_default_backends.o ABSOLUTE
    ..\\..\\..\\..\\..\\..\\..\\components\\libraries\\log\\src\\nrf_log_frontend.c 0x00000000   Number         0  nrf_log_frontend.o ABSOLUTE
    ..\\..\\..\\..\\..\\..\\..\\components\\libraries\\log\\src\\nrf_log_str_formatter.c 0x00000000   Number         0  nrf_log_str_formatter.o ABSOLUTE
    ..\\..\\..\\..\\..\\..\\..\\components\\libraries\\mem_manager\\mem_manager.c 0x00000000   Number         0  mem_manager.o ABSOLUTE
    ..\\..\\..\\..\\..\\..\\..\\components\\libraries\\memobj\\nrf_memobj.c 0x00000000   Number         0  nrf_memobj.o ABSOLUTE
    ..\\..\\..\\..\\..\\..\\..\\components\\libraries\\mpu\\nrf_mpu_lib.c 0x00000000   Number         0  nrf_mpu_lib.o ABSOLUTE
    ..\\..\\..\\..\\..\\..\\..\\components\\libraries\\pwr_mgmt\\nrf_pwr_mgmt.c 0x00000000   Number         0  nrf_pwr_mgmt.o ABSOLUTE
    ..\\..\\..\\..\\..\\..\\..\\components\\libraries\\queue\\nrf_queue.c 0x00000000   Number         0  nrf_queue.o ABSOLUTE
    ..\\..\\..\\..\\..\\..\\..\\components\\libraries\\ringbuf\\nrf_ringbuf.c 0x00000000   Number         0  nrf_ringbuf.o ABSOLUTE
    ..\\..\\..\\..\\..\\..\\..\\components\\libraries\\scheduler\\app_scheduler.c 0x00000000   Number         0  app_scheduler.o ABSOLUTE
    ..\\..\\..\\..\\..\\..\\..\\components\\libraries\\sortlist\\nrf_sortlist.c 0x00000000   Number         0  nrf_sortlist.o ABSOLUTE
    ..\\..\\..\\..\\..\\..\\..\\components\\libraries\\stack_guard\\nrf_stack_guard.c 0x00000000   Number         0  nrf_stack_guard.o ABSOLUTE
    ..\\..\\..\\..\\..\\..\\..\\components\\libraries\\strerror\\nrf_strerror.c 0x00000000   Number         0  nrf_strerror.o ABSOLUTE
    ..\\..\\..\\..\\..\\..\\..\\components\\libraries\\timer\\app_timer2.c 0x00000000   Number         0  app_timer2.o ABSOLUTE
    ..\\..\\..\\..\\..\\..\\..\\components\\libraries\\timer\\drv_rtc.c 0x00000000   Number         0  drv_rtc.o ABSOLUTE
    ..\\..\\..\\..\\..\\..\\..\\components\\libraries\\util\\app_error.c 0x00000000   Number         0  app_error.o ABSOLUTE
    ..\\..\\..\\..\\..\\..\\..\\components\\libraries\\util\\app_error_handler_keil.c 0x00000000   Number         0  app_error_handler_keil.o ABSOLUTE
    ..\\..\\..\\..\\..\\..\\..\\components\\libraries\\util\\app_error_weak.c 0x00000000   Number         0  app_error_weak.o ABSOLUTE
    ..\\..\\..\\..\\..\\..\\..\\components\\libraries\\util\\app_util_platform.c 0x00000000   Number         0  app_util_platform.o ABSOLUTE
    ..\\..\\..\\..\\..\\..\\..\\components\\libraries\\util\\nrf_assert.c 0x00000000   Number         0  nrf_assert.o ABSOLUTE
    ..\\..\\..\\..\\..\\..\\..\\components\\nfc\\ndef\\conn_hand_parser\\ble_oob_advdata_parser\\nfc_ble_oob_advdata_parser.c 0x00000000   Number         0  nfc_ble_oob_advdata_parser.o ABSOLUTE
    ..\\..\\..\\..\\..\\..\\..\\components\\nfc\\ndef\\conn_hand_parser\\le_oob_rec_parser\\nfc_le_oob_rec_parser.c 0x00000000   Number         0  nfc_le_oob_rec_parser.o ABSOLUTE
    ..\\..\\..\\..\\..\\..\\..\\components\\nfc\\ndef\\connection_handover\\ac_rec\\nfc_ac_rec.c 0x00000000   Number         0  nfc_ac_rec.o ABSOLUTE
    ..\\..\\..\\..\\..\\..\\..\\components\\nfc\\ndef\\connection_handover\\ble_oob_advdata\\nfc_ble_oob_advdata.c 0x00000000   Number         0  nfc_ble_oob_advdata.o ABSOLUTE
    ..\\..\\..\\..\\..\\..\\..\\components\\nfc\\ndef\\connection_handover\\ble_pair_msg\\nfc_ble_pair_msg.c 0x00000000   Number         0  nfc_ble_pair_msg.o ABSOLUTE
    ..\\..\\..\\..\\..\\..\\..\\components\\nfc\\ndef\\connection_handover\\common\\nfc_ble_pair_common.c 0x00000000   Number         0  nfc_ble_pair_common.o ABSOLUTE
    ..\\..\\..\\..\\..\\..\\..\\components\\nfc\\ndef\\connection_handover\\ep_oob_rec\\nfc_ep_oob_rec.c 0x00000000   Number         0  nfc_ep_oob_rec.o ABSOLUTE
    ..\\..\\..\\..\\..\\..\\..\\components\\nfc\\ndef\\connection_handover\\hs_rec\\nfc_hs_rec.c 0x00000000   Number         0  nfc_hs_rec.o ABSOLUTE
    ..\\..\\..\\..\\..\\..\\..\\components\\nfc\\ndef\\connection_handover\\le_oob_rec\\nfc_le_oob_rec.c 0x00000000   Number         0  nfc_le_oob_rec.o ABSOLUTE
    ..\\..\\..\\..\\..\\..\\..\\components\\nfc\\ndef\\generic\\message\\nfc_ndef_msg.c 0x00000000   Number         0  nfc_ndef_msg.o ABSOLUTE
    ..\\..\\..\\..\\..\\..\\..\\components\\nfc\\ndef\\generic\\record\\nfc_ndef_record.c 0x00000000   Number         0  nfc_ndef_record.o ABSOLUTE
    ..\\..\\..\\..\\..\\..\\..\\components\\nfc\\ndef\\parser\\message\\nfc_ndef_msg_parser.c 0x00000000   Number         0  nfc_ndef_msg_parser.o ABSOLUTE
    ..\\..\\..\\..\\..\\..\\..\\components\\nfc\\ndef\\parser\\message\\nfc_ndef_msg_parser_local.c 0x00000000   Number         0  nfc_ndef_msg_parser_local.o ABSOLUTE
    ..\\..\\..\\..\\..\\..\\..\\components\\nfc\\ndef\\parser\\record\\nfc_ndef_record_parser.c 0x00000000   Number         0  nfc_ndef_record_parser.o ABSOLUTE
    ..\\..\\..\\..\\..\\..\\..\\components\\nfc\\platform\\nfc_platform.c 0x00000000   Number         0  nfc_platform.o ABSOLUTE
    ..\\..\\..\\..\\..\\..\\..\\components\\nfc\\t2t_parser\\nfc_t2t_parser.c 0x00000000   Number         0  nfc_t2t_parser.o ABSOLUTE
    ..\\..\\..\\..\\..\\..\\..\\components\\softdevice\\common\\nrf_sdh.c 0x00000000   Number         0  nrf_sdh.o ABSOLUTE
    ..\\..\\..\\..\\..\\..\\..\\components\\softdevice\\common\\nrf_sdh_ble.c 0x00000000   Number         0  nrf_sdh_ble.o ABSOLUTE
    ..\\..\\..\\..\\..\\..\\..\\components\\softdevice\\common\\nrf_sdh_soc.c 0x00000000   Number         0  nrf_sdh_soc.o ABSOLUTE
    ..\\..\\..\\..\\..\\..\\..\\external\\fprintf\\nrf_fprintf.c 0x00000000   Number         0  nrf_fprintf.o ABSOLUTE
    ..\\..\\..\\..\\..\\..\\..\\external\\fprintf\\nrf_fprintf_format.c 0x00000000   Number         0  nrf_fprintf_format.o ABSOLUTE
    ..\\..\\..\\..\\..\\..\\..\\external\\nfc_adafruit_library\\adafruit_pn532.c 0x00000000   Number         0  adafruit_pn532.o ABSOLUTE
    ..\\..\\..\\..\\..\\..\\..\\external\\segger_rtt\\SEGGER_RTT.c 0x00000000   Number         0  segger_rtt.o ABSOLUTE
    ..\\..\\..\\..\\..\\..\\..\\external\\segger_rtt\\SEGGER_RTT_Syscalls_KEIL.c 0x00000000   Number         0  segger_rtt_syscalls_keil.o ABSOLUTE
    ..\\..\\..\\..\\..\\..\\..\\external\\segger_rtt\\SEGGER_RTT_printf.c 0x00000000   Number         0  segger_rtt_printf.o ABSOLUTE
    ..\\..\\..\\..\\..\\..\\..\\integration\\nrfx\\legacy\\nrf_drv_clock.c 0x00000000   Number         0  nrf_drv_clock.o ABSOLUTE
    ..\\..\\..\\..\\..\\..\\..\\integration\\nrfx\\legacy\\nrf_drv_rng.c 0x00000000   Number         0  nrf_drv_rng.o ABSOLUTE
    ..\\..\\..\\..\\..\\..\\..\\integration\\nrfx\\legacy\\nrf_drv_twi.c 0x00000000   Number         0  nrf_drv_twi.o ABSOLUTE
    ..\\..\\..\\..\\..\\..\\..\\integration\\nrfx\\legacy\\nrf_drv_uart.c 0x00000000   Number         0  nrf_drv_uart.o ABSOLUTE
    ..\\..\\..\\..\\..\\..\\..\\modules\\nrfx\\drivers\\src\\nrfx_clock.c 0x00000000   Number         0  nrfx_clock.o ABSOLUTE
    ..\\..\\..\\..\\..\\..\\..\\modules\\nrfx\\drivers\\src\\nrfx_gpiote.c 0x00000000   Number         0  nrfx_gpiote.o ABSOLUTE
    ..\\..\\..\\..\\..\\..\\..\\modules\\nrfx\\drivers\\src\\nrfx_nfct.c 0x00000000   Number         0  nrfx_nfct.o ABSOLUTE
    ..\\..\\..\\..\\..\\..\\..\\modules\\nrfx\\drivers\\src\\nrfx_rng.c 0x00000000   Number         0  nrfx_rng.o ABSOLUTE
    ..\\..\\..\\..\\..\\..\\..\\modules\\nrfx\\drivers\\src\\nrfx_timer.c 0x00000000   Number         0  nrfx_timer.o ABSOLUTE
    ..\\..\\..\\..\\..\\..\\..\\modules\\nrfx\\drivers\\src\\nrfx_twi.c 0x00000000   Number         0  nrfx_twi.o ABSOLUTE
    ..\\..\\..\\..\\..\\..\\..\\modules\\nrfx\\drivers\\src\\nrfx_twim.c 0x00000000   Number         0  nrfx_twim.o ABSOLUTE
    ..\\..\\..\\..\\..\\..\\..\\modules\\nrfx\\drivers\\src\\nrfx_uart.c 0x00000000   Number         0  nrfx_uart.o ABSOLUTE
    ..\\..\\..\\..\\..\\..\\..\\modules\\nrfx\\drivers\\src\\nrfx_uarte.c 0x00000000   Number         0  nrfx_uarte.o ABSOLUTE
    ..\\..\\..\\..\\..\\..\\..\\modules\\nrfx\\drivers\\src\\prs\\nrfx_prs.c 0x00000000   Number         0  nrfx_prs.o ABSOLUTE
    ..\\..\\..\\..\\..\\..\\..\\modules\\nrfx\\soc\\nrfx_atomic.c 0x00000000   Number         0  nrfx_atomic.o ABSOLUTE
    ..\\..\\..\\ble_m.c                      0x00000000   Number         0  ble_m.o ABSOLUTE
    ..\\..\\..\\cli_m.c                      0x00000000   Number         0  cli_m.o ABSOLUTE
    ..\\..\\..\\main.c                       0x00000000   Number         0  main.o ABSOLUTE
    ..\\..\\..\\nfc_central_m.c              0x00000000   Number         0  nfc_central_m.o ABSOLUTE
    ..\\..\\..\\nfc_m.c                      0x00000000   Number         0  nfc_m.o ABSOLUTE
    ..\\..\\..\\nfc_pair_lib_m.c             0x00000000   Number         0  nfc_pair_lib_m.o ABSOLUTE
    ..\\..\\..\\pm_m.c                       0x00000000   Number         0  pm_m.o ABSOLUTE
    ..\\nfc_t2t_lib.c                        0x00000000   Number         0  nfc_t2t_lib.o ABSOLUTE
    ..\\nfc_t2t_lib_al.c                     0x00000000   Number         0  nfc_t2t_lib_al.o ABSOLUTE
    ..\nfc_t2t_lib.c                         0x00000000   Number         0  nfc_t2t_lib.o ABSOLUTE
    ..\nfc_t2t_lib_al.c                      0x00000000   Number         0  nfc_t2t_lib_al.o ABSOLUTE
    RTE\Device\nRF52832_xxAA\arm_startup_nrf52.s 0x00000000   Number         0  arm_startup_nrf52.o ABSOLUTE
    RTE\Device\nRF52832_xxAA\system_nrf52.c  0x00000000   Number         0  system_nrf52.o ABSOLUTE
    RTE\\Device\\nRF52832_xxAA\\system_nrf52.c 0x00000000   Number         0  system_nrf52.o ABSOLUTE
    cdrcmple.s                               0x00000000   Number         0  cdrcmple.o ABSOLUTE
    dc.s                                     0x00000000   Number         0  dc.o ABSOLUTE
    handlers.s                               0x00000000   Number         0  handlers.o ABSOLUTE
    init.s                                   0x00000000   Number         0  init.o ABSOLUTE
    ocrypto_chacha20.c                       0x00000000   Number         0  ocrypto_chacha20.c.obj ABSOLUTE
    ocrypto_chacha20_poly1305.c              0x00000000   Number         0  ocrypto_chacha20_poly1305.c.obj ABSOLUTE
    ocrypto_curve25519.c                     0x00000000   Number         0  ocrypto_curve25519.c.obj ABSOLUTE
    ocrypto_curve_p256.c                     0x00000000   Number         0  ocrypto_curve_p256.c.obj ABSOLUTE
    ocrypto_ecdh_p256.c                      0x00000000   Number         0  ocrypto_ecdh_p256.c.obj ABSOLUTE
    ocrypto_ecdsa_p256.c                     0x00000000   Number         0  ocrypto_ecdsa_p256.c.obj ABSOLUTE
    ocrypto_ed25519.c                        0x00000000   Number         0  ocrypto_ed25519.c.obj ABSOLUTE
    ocrypto_ge25519.c                        0x00000000   Number         0  ocrypto_ge25519.c.obj ABSOLUTE
    ocrypto_hkdf_sha256.c                    0x00000000   Number         0  ocrypto_hkdf_sha256.c.obj ABSOLUTE
    ocrypto_hkdf_sha512.c                    0x00000000   Number         0  ocrypto_hkdf_sha512.c.obj ABSOLUTE
    ocrypto_mod25519.c                       0x00000000   Number         0  ocrypto_mod25519.c.obj ABSOLUTE
    ocrypto_mod_p256.c                       0x00000000   Number         0  ocrypto_mod_p256.c.obj ABSOLUTE
    ocrypto_poly1305.c                       0x00000000   Number         0  ocrypto_poly1305.c.obj ABSOLUTE
    ocrypto_sc25519.c                        0x00000000   Number         0  ocrypto_sc25519.c.obj ABSOLUTE
    ocrypto_sc_p256.c                        0x00000000   Number         0  ocrypto_sc_p256.c.obj ABSOLUTE
    ocrypto_sha256.c                         0x00000000   Number         0  ocrypto_sha256.c.obj ABSOLUTE
    ocrypto_sha512.c                         0x00000000   Number         0  ocrypto_sha512.c.obj ABSOLUTE
    ocrypto_sha512_loop.c                    0x00000000   Number         0  ocrypto_sha512_loop.c.obj ABSOLUTE
    UseDspMul                                0x00000001   Number         0  ocrypto_chacha20_loop.s.obj ABSOLUTE
    UseDspMul                                0x00000001   Number         0  ocrypto_poly1305_mul.s.obj ABSOLUTE
    UseDspMul                                0x00000001   Number         0  ocrypto_mod_p256_base.s.obj ABSOLUTE
    UseDspMul                                0x00000001   Number         0  ocrypto_mod25519_base.s.obj ABSOLUTE
    UseDspMul                                0x00000001   Number         0  ocrypto_bigint256.s.obj ABSOLUTE
    UseFpuReg                                0x00000001   Number         0  ocrypto_mod25519_base.s.obj ABSOLUTE
    UseFpuReg                                0x00000001   Number         0  ocrypto_chacha20_loop.s.obj ABSOLUTE
    UseFpuReg                                0x00000001   Number         0  ocrypto_mod_p256_base.s.obj ABSOLUTE
    UseFpuReg                                0x00000001   Number         0  ocrypto_bigint256.s.obj ABSOLUTE
    __ARM_FEATURE_DSP                        0x00000001   Number         0  ocrypto_chacha20_loop.s.obj ABSOLUTE
    __ARM_FEATURE_DSP                        0x00000001   Number         0  ocrypto_constant_time.s.obj ABSOLUTE
    __ARM_FEATURE_DSP                        0x00000001   Number         0  ocrypto_bigint256.s.obj ABSOLUTE
    __ARM_FEATURE_DSP                        0x00000001   Number         0  ocrypto_poly1305_mul.s.obj ABSOLUTE
    __ARM_FEATURE_DSP                        0x00000001   Number         0  ocrypto_mod25519_base.s.obj ABSOLUTE
    __ARM_FEATURE_DSP                        0x00000001   Number         0  ocrypto_sha256_loop.s.obj ABSOLUTE
    __ARM_FEATURE_DSP                        0x00000001   Number         0  ocrypto_mod_p256_base.s.obj ABSOLUTE
    __ARM_FP                                 0x00000001   Number         0  ocrypto_constant_time.s.obj ABSOLUTE
    __ARM_FP                                 0x00000001   Number         0  ocrypto_mod_p256_base.s.obj ABSOLUTE
    __ARM_FP                                 0x00000001   Number         0  ocrypto_bigint256.s.obj ABSOLUTE
    __ARM_FP                                 0x00000001   Number         0  ocrypto_mod25519_base.s.obj ABSOLUTE
    __ARM_FP                                 0x00000001   Number         0  ocrypto_sha256_loop.s.obj ABSOLUTE
    __ARM_FP                                 0x00000001   Number         0  ocrypto_chacha20_loop.s.obj ABSOLUTE
    __ARM_FP                                 0x00000001   Number         0  ocrypto_poly1305_mul.s.obj ABSOLUTE
    RESET                                    0x00026000   Section      512  arm_startup_nrf52.o(RESET)
    .ARM.Collect$$$$00000000                 0x00026200   Section        0  entry.o(.ARM.Collect$$$$00000000)
    .ARM.Collect$$$$00000001                 0x00026200   Section        4  entry2.o(.ARM.Collect$$$$00000001)
    .ARM.Collect$$$$00000004                 0x00026204   Section        4  entry5.o(.ARM.Collect$$$$00000004)
    .ARM.Collect$$$$00000008                 0x00026208   Section        0  entry7b.o(.ARM.Collect$$$$00000008)
    .ARM.Collect$$$$0000000A                 0x00026208   Section        0  entry8b.o(.ARM.Collect$$$$0000000A)
    .ARM.Collect$$$$0000000B                 0x00026208   Section        8  entry9a.o(.ARM.Collect$$$$0000000B)
    .ARM.Collect$$$$0000000D                 0x00026210   Section        0  entry10a.o(.ARM.Collect$$$$0000000D)
    .ARM.Collect$$$$0000000F                 0x00026210   Section        0  entry11a.o(.ARM.Collect$$$$0000000F)
    .ARM.Collect$$$$00002712                 0x00026210   Section        4  entry2.o(.ARM.Collect$$$$00002712)
    __lit__00000000                          0x00026210   Data           4  entry2.o(.ARM.Collect$$$$00002712)
    .emb_text                                0x00026214   Section       52  hardfault_handler_keil.o(.emb_text)
    $v0                                      0x00026214   Number         0  hardfault_handler_keil.o(.emb_text)
    .emb_text                                0x00026248   Section      200  nrf_atfifo.o(.emb_text)
    $v0                                      0x00026248   Number         0  nrf_atfifo.o(.emb_text)
    .emb_text                                0x00026310   Section      226  nrf_atomic.o(.emb_text)
    $v0                                      0x00026310   Number         0  nrf_atomic.o(.emb_text)
    .text                                    0x000263f4   Section       36  arm_startup_nrf52.o(.text)
    $v0                                      0x000263f4   Number         0  arm_startup_nrf52.o(.text)
    [Anonymous Symbol]                       0x00026418   Section        0  ocrypto_bigint256.s.obj(.text)
    cswap64                                  0x0002659d   Thumb Code     0  ocrypto_bigint256.s.obj(.text)
    [Anonymous Symbol]                       0x0002680c   Section        0  ocrypto_constant_time.s.obj(.text)
    constant_time_equal_loop                 0x00026812   Number         0  ocrypto_constant_time.s.obj(.text)
    constant_time_is_zero_loop               0x00026836   Number         0  ocrypto_constant_time.s.obj(.text)
    constant_time_copy_loop                  0x0002684c   Number         0  ocrypto_constant_time.s.obj(.text)
    constant_time_fill_zero_loop             0x0002685c   Number         0  ocrypto_constant_time.s.obj(.text)
    [Anonymous Symbol]                       0x00026868   Section        0  ocrypto_mod_p256_base.s.obj(.text)
    [Anonymous Symbol]                       0x00026cfc   Section        0  ocrypto_mod25519_base.s.obj(.text)
    .text                                    0x000270f0   Section        0  uldiv.o(.text)
    .text                                    0x00027152   Section        0  llshl.o(.text)
    .text                                    0x00027170   Section        0  llushr.o(.text)
    .text                                    0x00027190   Section        0  ctype_o.o(.text)
    .text                                    0x00027198   Section        0  qsort.o(.text)
    .text                                    0x00027234   Section        0  memmove.o(.text)
    .text                                    0x00027276   Section        0  memseta.o(.text)
    .text                                    0x0002729a   Section        0  strcat.o(.text)
    .text                                    0x000272b2   Section        0  strlen.o(.text)
    .text                                    0x000272c0   Section        0  strcmp.o(.text)
    .text                                    0x000272dc   Section        0  memcmp.o(.text)
    .text                                    0x000272f6   Section        0  strcpy.o(.text)
    .text                                    0x00027308   Section        0  strncmp.o(.text)
    .text                                    0x00027326   Section        0  atoi.o(.text)
    .text                                    0x00027340   Section        0  strtol.o(.text)
    .text                                    0x000273b0   Section       36  init.o(.text)
    .text                                    0x000273d4   Section        0  _strtoul.o(.text)
    .text                                    0x00027472   Section        0  _chval.o(.text)
    .text                                    0x0002748e   Section        0  __dczerorl2.o(.text)
    [Anonymous Symbol]                       0x000274e4   Section        0  ocrypto_ge25519.c.obj(.text.add_entry.constprop.0)
    add_entry.constprop.0                    0x000274e5   Thumb Code    90  ocrypto_ge25519.c.obj(.text.add_entry.constprop.0)
    [Anonymous Symbol]                       0x00027540   Section        0  ocrypto_ge25519.c.obj(.text.add_entry.constprop.1)
    add_entry.constprop.1                    0x00027541   Thumb Code    90  ocrypto_ge25519.c.obj(.text.add_entry.constprop.1)
    [Anonymous Symbol]                       0x0002759c   Section        0  ocrypto_ge25519.c.obj(.text.add_entry.constprop.2)
    add_entry.constprop.2                    0x0002759d   Thumb Code    86  ocrypto_ge25519.c.obj(.text.add_entry.constprop.2)
    [Anonymous Symbol]                       0x000275f4   Section        0  ocrypto_ge25519.c.obj(.text.dbl_p1p1)
    dbl_p1p1                                 0x000275f5   Thumb Code   134  ocrypto_ge25519.c.obj(.text.dbl_p1p1)
    [Anonymous Symbol]                       0x0002767c   Section        0  ocrypto_ge25519.c.obj(.text.get_entry)
    get_entry                                0x0002767d   Thumb Code   104  ocrypto_ge25519.c.obj(.text.get_entry)
    [Anonymous Symbol]                       0x000276e4   Section        0  ocrypto_ge25519.c.obj(.text.get_entry.constprop.0)
    get_entry.constprop.0                    0x000276e5   Thumb Code    92  ocrypto_ge25519.c.obj(.text.get_entry.constprop.0)
    [Anonymous Symbol]                       0x00027740   Section        0  ocrypto_sc25519.c.obj(.text.m_reduction_step)
    m_reduction_step                         0x00027741   Thumb Code    96  ocrypto_sc25519.c.obj(.text.m_reduction_step)
    [Anonymous Symbol]                       0x000277a0   Section        0  ocrypto_ge25519.c.obj(.text.mixaddsub_p1p1)
    mixaddsub_p1p1                           0x000277a1   Thumb Code   204  ocrypto_ge25519.c.obj(.text.mixaddsub_p1p1)
    [Anonymous Symbol]                       0x0002786c   Section        0  ocrypto_curve25519.c.obj(.text.ocrypto_curve25519_scalarmult)
    [Anonymous Symbol]                       0x00027a14   Section        0  ocrypto_curve25519.c.obj(.text.ocrypto_curve25519_scalarmult_base)
    [Anonymous Symbol]                       0x00027a20   Section        0  ocrypto_curve_p256.c.obj(.text.ocrypto_curve_p256_from64bytes)
    [Anonymous Symbol]                       0x00027a80   Section        0  ocrypto_curve_p256.c.obj(.text.ocrypto_curve_p256_scalarmult)
    [Anonymous Symbol]                       0x00027be4   Section        0  ocrypto_curve_p256.c.obj(.text.ocrypto_curve_p256_scalarmult_base)
    [Anonymous Symbol]                       0x00027bf0   Section        0  ocrypto_curve_p256.c.obj(.text.ocrypto_curve_p256_to32bytes)
    [Anonymous Symbol]                       0x00027bf4   Section        0  ocrypto_curve_p256.c.obj(.text.ocrypto_curve_p256_to64bytes)
    [Anonymous Symbol]                       0x00027c10   Section        0  ocrypto_ecdh_p256.c.obj(.text.ocrypto_ecdh_p256_common_secret)
    [Anonymous Symbol]                       0x00027c48   Section        0  ocrypto_ecdh_p256.c.obj(.text.ocrypto_ecdh_p256_public_key)
    [Anonymous Symbol]                       0x00027c70   Section        0  ocrypto_ed25519.c.obj(.text.ocrypto_ed25519_public_key)
    [Anonymous Symbol]                       0x00027cb8   Section        0  ocrypto_ge25519.c.obj(.text.ocrypto_ge25519_pack)
    [Anonymous Symbol]                       0x00027cfc   Section        0  ocrypto_ge25519.c.obj(.text.ocrypto_ge25519_scalarmult_base)
    [Anonymous Symbol]                       0x00027dec   Section        0  ocrypto_mod25519.c.obj(.text.ocrypto_mod25519_fromBytes)
    [Anonymous Symbol]                       0x00027e14   Section        0  ocrypto_mod25519.c.obj(.text.ocrypto_mod25519_getsign)
    [Anonymous Symbol]                       0x00027e24   Section        0  ocrypto_mod25519.c.obj(.text.ocrypto_mod25519_init)
    [Anonymous Symbol]                       0x00027e38   Section        0  ocrypto_mod25519.c.obj(.text.ocrypto_mod25519_neg)
    [Anonymous Symbol]                       0x00027e5c   Section        0  ocrypto_mod25519.c.obj(.text.ocrypto_mod25519_power)
    [Anonymous Symbol]                       0x00028080   Section        0  ocrypto_mod25519.c.obj(.text.ocrypto_mod25519_toBytes)
    [Anonymous Symbol]                       0x000280b0   Section        0  ocrypto_mod_p256.c.obj(.text.ocrypto_mod_p256_cneg)
    [Anonymous Symbol]                       0x000280e8   Section        0  ocrypto_mod_p256.c.obj(.text.ocrypto_mod_p256_fromBytes)
    [Anonymous Symbol]                       0x0002811c   Section        0  ocrypto_mod_p256.c.obj(.text.ocrypto_mod_p256_invert)
    [Anonymous Symbol]                       0x0002827c   Section        0  ocrypto_mod_p256.c.obj(.text.ocrypto_mod_p256_toBytes)
    [Anonymous Symbol]                       0x000282b0   Section        0  ocrypto_sc25519.c.obj(.text.ocrypto_sc25519_from32bytes)
    [Anonymous Symbol]                       0x00028310   Section        0  ocrypto_sc25519.c.obj(.text.ocrypto_sc25519_window4)
    [Anonymous Symbol]                       0x00028358   Section        0  ocrypto_sc_p256.c.obj(.text.ocrypto_sc_p256_from32bytes)
    [Anonymous Symbol]                       0x000283b0   Section        0  ocrypto_sha512.c.obj(.text.ocrypto_sha512)
    [Anonymous Symbol]                       0x000284e0   Section        0  ocrypto_sha512.c.obj(.text.ocrypto_sha512_final)
    [Anonymous Symbol]                       0x000286bc   Section        0  ocrypto_sha512_loop.c.obj(.text.ocrypto_sha512_loop1)
    [Anonymous Symbol]                       0x000288ac   Section        0  ocrypto_sha512_loop.c.obj(.text.ocrypto_sha512_loop2)
    [Anonymous Symbol]                       0x00028988   Section        0  ocrypto_curve_p256.c.obj(.text.p256_zaddc)
    p256_zaddc                               0x00028989   Thumb Code   204  ocrypto_curve_p256.c.obj(.text.p256_zaddc)
    [Anonymous Symbol]                       0x00028a54   Section        0  ocrypto_curve_p256.c.obj(.text.p256_zaddu)
    p256_zaddu                               0x00028a55   Thumb Code   152  ocrypto_curve_p256.c.obj(.text.p256_zaddu)
    [Anonymous Symbol]                       0x00028aec   Section        0  ocrypto_curve_p256.c.obj(.text.p256_zdblu)
    p256_zdblu                               0x00028aed   Thumb Code   184  ocrypto_curve_p256.c.obj(.text.p256_zdblu)
    [Anonymous Symbol]                       0x00028ba4   Section        0  ocrypto_sha512.c.obj(.text.sha512_blocks)
    sha512_blocks                            0x00028ba5   Thumb Code   796  ocrypto_sha512.c.obj(.text.sha512_blocks)
    [Anonymous Symbol]                       0x00028ec0   Section        0  ocrypto_sha512.c.obj(.text.sha512_blocks.constprop.0)
    sha512_blocks.constprop.0                0x00028ec1   Thumb Code   576  ocrypto_sha512.c.obj(.text.sha512_blocks.constprop.0)
    i.GPIOTE_IRQHandler                      0x00029100   Section        0  nrfx_gpiote.o(i.GPIOTE_IRQHandler)
    i.HardFault_c_handler                    0x000291a4   Section        0  hardfault_implementation.o(i.HardFault_c_handler)
    i.HardFault_process                      0x0002939c   Section        0  hardfault_implementation.o(i.HardFault_process)
    i.NFCT_IRQHandler                        0x000293c0   Section        0  nrfx_nfct.o(i.NFCT_IRQHandler)
    i.POWER_CLOCK_IRQHandler                 0x00029588   Section        0  nrfx_clock.o(i.POWER_CLOCK_IRQHandler)
    i.RNG_IRQHandler                         0x000295e0   Section        0  nrfx_rng.o(i.RNG_IRQHandler)
    i.RTC1_IRQHandler                        0x00029608   Section        0  drv_rtc.o(i.RTC1_IRQHandler)
    i.SPIM0_SPIS0_TWIM0_TWIS0_SPI0_TWI0_IRQHandler 0x00029618   Section        0  nrfx_twi.o(i.SPIM0_SPIS0_TWIM0_TWIS0_SPI0_TWI0_IRQHandler)
    i.SWI2_EGU2_IRQHandler                   0x00029628   Section        0  nrf_sdh.o(i.SWI2_EGU2_IRQHandler)
    i.SystemInit                             0x0002962c   Section        0  system_nrf52.o(i.SystemInit)
    i.TIMER4_IRQHandler                      0x00029904   Section        0  nrfx_timer.o(i.TIMER4_IRQHandler)
    i.UARTE0_UART0_IRQHandler                0x00029954   Section        0  nrfx_prs.o(i.UARTE0_UART0_IRQHandler)
    i._NRFX_IRQ_PENDING_CLEAR                0x00029960   Section        0  nrfx_nfct.o(i._NRFX_IRQ_PENDING_CLEAR)
    _NRFX_IRQ_PENDING_CLEAR                  0x00029961   Thumb Code    26  nrfx_nfct.o(i._NRFX_IRQ_PENDING_CLEAR)
    i.__0sprintf$5                           0x0002997c   Section        0  printf5.o(i.__0sprintf$5)
    i.__aeabi_errno_addr                     0x000299a4   Section        0  errno.o(i.__aeabi_errno_addr)
    i.__scatterload_copy                     0x000299ac   Section       14  handlers.o(i.__scatterload_copy)
    i.__scatterload_null                     0x000299ba   Section        2  handlers.o(i.__scatterload_null)
    i.__scatterload_zeroinit                 0x000299bc   Section       14  handlers.o(i.__scatterload_zeroinit)
    i.__sd_nvic_app_accessible_irq           0x000299cc   Section        0  nrf_sdh.o(i.__sd_nvic_app_accessible_irq)
    __sd_nvic_app_accessible_irq             0x000299cd   Thumb Code    32  nrf_sdh.o(i.__sd_nvic_app_accessible_irq)
    i._conn_secure                           0x000299f0   Section        0  peer_manager_handler.o(i._conn_secure)
    _conn_secure                             0x000299f1   Thumb Code   216  peer_manager_handler.o(i._conn_secure)
    i._printf_core                           0x00029b54   Section        0  printf5.o(i._printf_core)
    _printf_core                             0x00029b55   Thumb Code   658  printf5.o(i._printf_core)
    i._sputc                                 0x00029e14   Section        0  printf5.o(i._sputc)
    _sputc                                   0x00029e15   Thumb Code    10  printf5.o(i._sputc)
    i.addr_compare                           0x00029e1e   Section        0  id_manager.o(i.addr_compare)
    i.addr_is_aligned32                      0x00029e44   Section        0  nrf_fstorage.o(i.addr_is_aligned32)
    addr_is_aligned32                        0x00029e45   Thumb Code    12  nrf_fstorage.o(i.addr_is_aligned32)
    i.addr_is_within_bounds                  0x00029e50   Section        0  nrf_fstorage.o(i.addr_is_within_bounds)
    addr_is_within_bounds                    0x00029e51   Thumb Code    24  nrf_fstorage.o(i.addr_is_within_bounds)
    i.addr_store_value_set                   0x00029e68   Section        0  ble_m.o(i.addr_store_value_set)
    i.addr_string_to_conn_handle             0x00029e74   Section        0  ble_m.o(i.addr_string_to_conn_handle)
    i.address_to_cmd_add                     0x00029ea0   Section        0  cli_m.o(i.address_to_cmd_add)
    i.adv_list_timer_handle                  0x00029eb0   Section        0  main.o(i.adv_list_timer_handle)
    adv_list_timer_handle                    0x00029eb1   Thumb Code    24  main.o(i.adv_list_timer_handle)
    i.adv_set_data_size_max_get              0x00029ec8   Section        0  ble_advertising.o(i.adv_set_data_size_max_get)
    adv_set_data_size_max_get                0x00029ec9   Thumb Code    16  ble_advertising.o(i.adv_set_data_size_max_get)
    i.adv_start                              0x00029ed8   Section        0  ble_m.o(i.adv_start)
    i.adv_stop                               0x00029f68   Section        0  ble_m.o(i.adv_stop)
    i.advertising_buttons_configure          0x00029f98   Section        0  bsp_btn_ble.o(i.advertising_buttons_configure)
    advertising_buttons_configure            0x00029f99   Thumb Code    54  bsp_btn_ble.o(i.advertising_buttons_configure)
    i.advertising_init                       0x00029fd0   Section        0  ble_m.o(i.advertising_init)
    i.ah                                     0x0002a030   Section        0  id_manager.o(i.ah)
    i.alNfcCallback                          0x0002a084   Section        0  nfc_t2t_lib.o(i.alNfcCallback)
    alNfcCallback                            0x0002a085   Thumb Code   152  nfc_t2t_lib.o(i.alNfcCallback)
    i.alert_timer_handler                    0x0002a120   Section        0  bsp.o(i.alert_timer_handler)
    alert_timer_handler                      0x0002a121   Thumb Code     6  bsp.o(i.alert_timer_handler)
    i.allow_repairing                        0x0002a128   Section        0  security_dispatcher.o(i.allow_repairing)
    allow_repairing                          0x0002a129   Thumb Code     8  security_dispatcher.o(i.allow_repairing)
    i.app_button_enable                      0x0002a134   Section        0  app_button.o(i.app_button_enable)
    i.app_button_init                        0x0002a158   Section        0  app_button.o(i.app_button_init)
    i.app_error_fault_handler                0x0002a1d8   Section        0  app_error_weak.o(i.app_error_fault_handler)
    i.app_error_handler_bare                 0x0002a26c   Section        0  app_error.o(i.app_error_handler_bare)
    i.app_timer_cnt_get                      0x0002a284   Section        0  app_timer2.o(i.app_timer_cnt_get)
    i.app_timer_create                       0x0002a290   Section        0  app_timer2.o(i.app_timer_create)
    i.app_timer_init                         0x0002a2a8   Section        0  app_timer2.o(i.app_timer_init)
    i.app_timer_start                        0x0002a304   Section        0  app_timer2.o(i.app_timer_start)
    i.app_timer_stop                         0x0002a336   Section        0  app_timer2.o(i.app_timer_stop)
    i.app_util_critical_region_enter         0x0002a344   Section        0  app_util_platform.o(i.app_util_critical_region_enter)
    i.app_util_critical_region_exit          0x0002a38c   Section        0  app_util_platform.o(i.app_util_critical_region_exit)
    i.apply_config                           0x0002a3c0   Section        0  nrfx_uart.o(i.apply_config)
    apply_config                             0x0002a3c1   Thumb Code   136  nrfx_uart.o(i.apply_config)
    i.apply_config                           0x0002a448   Section        0  nrfx_uarte.o(i.apply_config)
    apply_config                             0x0002a449   Thumb Code   136  nrfx_uarte.o(i.apply_config)
    i.apply_pending_handle                   0x0002a4d0   Section        0  gatt_cache_manager.o(i.apply_pending_handle)
    apply_pending_handle                     0x0002a4d1   Thumb Code     4  gatt_cache_manager.o(i.apply_pending_handle)
    i.auth_status_success_process            0x0002a4d4   Section        0  security_dispatcher.o(i.auth_status_success_process)
    auth_status_success_process              0x0002a4d5   Thumb Code   330  security_dispatcher.o(i.auth_status_success_process)
    i.backend_name_get                       0x0002a670   Section        0  nrf_log_frontend.o(i.backend_name_get)
    backend_name_get                         0x0002a671   Thumb Code    58  nrf_log_frontend.o(i.backend_name_get)
    i.battery_level_char_add                 0x0002a6b8   Section        0  ble_bas.o(i.battery_level_char_add)
    battery_level_char_add                   0x0002a6b9   Thumb Code   156  ble_bas.o(i.battery_level_char_add)
    i.battery_notification_send              0x0002a754   Section        0  ble_bas.o(i.battery_notification_send)
    battery_notification_send                0x0002a755   Thumb Code    10  ble_bas.o(i.battery_notification_send)
    i.ble_advdata_encode                     0x0002a75e   Section        0  ble_advdata.o(i.ble_advdata_encode)
    i.ble_advdata_parse                      0x0002a8e0   Section        0  ble_advdata.o(i.ble_advdata_parse)
    i.ble_advdata_search                     0x0002a900   Section        0  ble_advdata.o(i.ble_advdata_search)
    i.ble_advertising_conn_cfg_tag_set       0x0002a946   Section        0  ble_advertising.o(i.ble_advertising_conn_cfg_tag_set)
    i.ble_advertising_init                   0x0002a94c   Section        0  ble_advertising.o(i.ble_advertising_init)
    i.ble_advertising_on_ble_evt             0x0002aa44   Section        0  ble_advertising.o(i.ble_advertising_on_ble_evt)
    i.ble_advertising_start                  0x0002aaae   Section        0  ble_advertising.o(i.ble_advertising_start)
    i.ble_bas_battery_level_update           0x0002ace0   Section        0  ble_bas.o(i.ble_bas_battery_level_update)
    i.ble_bas_init                           0x0002ada0   Section        0  ble_bas.o(i.ble_bas_init)
    i.ble_bas_on_ble_evt                     0x0002adde   Section        0  ble_bas.o(i.ble_bas_on_ble_evt)
    i.ble_conn_params_init                   0x0002ae30   Section        0  ble_conn_params.o(i.ble_conn_params_init)
    i.ble_conn_state_conn_handles            0x0002aeb4   Section        0  ble_conn_state.o(i.ble_conn_state_conn_handles)
    i.ble_conn_state_encrypted               0x0002aec0   Section        0  ble_conn_state.o(i.ble_conn_state_encrypted)
    i.ble_conn_state_for_each_set_user_flag  0x0002aee0   Section        0  ble_conn_state.o(i.ble_conn_state_for_each_set_user_flag)
    i.ble_conn_state_lesc                    0x0002af0c   Section        0  ble_conn_state.o(i.ble_conn_state_lesc)
    i.ble_conn_state_mitm_protected          0x0002af2c   Section        0  ble_conn_state.o(i.ble_conn_state_mitm_protected)
    i.ble_conn_state_role                    0x0002af4c   Section        0  ble_conn_state.o(i.ble_conn_state_role)
    i.ble_conn_state_status                  0x0002af70   Section        0  ble_conn_state.o(i.ble_conn_state_status)
    i.ble_conn_state_user_flag_acquire       0x0002af94   Section        0  ble_conn_state.o(i.ble_conn_state_user_flag_acquire)
    i.ble_conn_state_user_flag_get           0x0002afac   Section        0  ble_conn_state.o(i.ble_conn_state_user_flag_get)
    i.ble_conn_state_user_flag_set           0x0002afdc   Section        0  ble_conn_state.o(i.ble_conn_state_user_flag_set)
    i.ble_conn_state_valid                   0x0002b014   Section        0  ble_conn_state.o(i.ble_conn_state_valid)
    i.ble_device_addr_encode                 0x0002b028   Section        0  ble_advdata.o(i.ble_device_addr_encode)
    ble_device_addr_encode                   0x0002b029   Thumb Code    96  ble_advdata.o(i.ble_device_addr_encode)
    i.ble_evt_handler                        0x0002b088   Section        0  ble_m.o(i.ble_evt_handler)
    ble_evt_handler                          0x0002b089   Thumb Code    58  ble_m.o(i.ble_evt_handler)
    i.ble_evt_handler                        0x0002b0c4   Section        0  nfc_pair_lib_m.o(i.ble_evt_handler)
    ble_evt_handler                          0x0002b0c5   Thumb Code   184  nfc_pair_lib_m.o(i.ble_evt_handler)
    i.ble_evt_handler                        0x0002b184   Section        0  bsp_btn_ble.o(i.ble_evt_handler)
    ble_evt_handler                          0x0002b185   Thumb Code   106  bsp_btn_ble.o(i.ble_evt_handler)
    i.ble_evt_handler                        0x0002b1f4   Section        0  ble_conn_params.o(i.ble_evt_handler)
    ble_evt_handler                          0x0002b1f5   Thumb Code   242  ble_conn_params.o(i.ble_evt_handler)
    i.ble_evt_handler                        0x0002b2f0   Section        0  ble_conn_state.o(i.ble_evt_handler)
    ble_evt_handler                          0x0002b2f1   Thumb Code   274  ble_conn_state.o(i.ble_evt_handler)
    i.ble_evt_handler                        0x0002b408   Section        0  peer_manager.o(i.ble_evt_handler)
    ble_evt_handler                          0x0002b409   Thumb Code    36  peer_manager.o(i.ble_evt_handler)
    i.ble_m_init                             0x0002b430   Section        0  ble_m.o(i.ble_m_init)
    i.ble_srv_is_notification_enabled        0x0002b588   Section        0  ble_srv_common.o(i.ble_srv_is_notification_enabled)
    i.ble_srv_report_ref_encode              0x0002b590   Section        0  ble_srv_common.o(i.ble_srv_report_ref_encode)
    i.block_cipher_df                        0x0002b59c   Section        0  ctr_drbg.o(i.block_cipher_df)
    block_cipher_df                          0x0002b59d   Thumb Code   338  ctr_drbg.o(i.block_cipher_df)
    i.bond_get                               0x0002b6f0   Section        0  cli_m.o(i.bond_get)
    i.bonds_delete                           0x0002b738   Section        0  cli_m.o(i.bonds_delete)
    i.bsp_board_init                         0x0002b758   Section        0  boards.o(i.bsp_board_init)
    i.bsp_board_led_invert                   0x0002b7ac   Section        0  boards.o(i.bsp_board_led_invert)
    i.bsp_board_led_off                      0x0002b7d0   Section        0  boards.o(i.bsp_board_led_off)
    i.bsp_board_led_on                       0x0002b7e0   Section        0  boards.o(i.bsp_board_led_on)
    i.bsp_board_led_state_get                0x0002b7f0   Section        0  boards.o(i.bsp_board_led_state_get)
    i.bsp_board_leds_off                     0x0002b810   Section        0  boards.o(i.bsp_board_leds_off)
    i.bsp_board_leds_on                      0x0002b822   Section        0  boards.o(i.bsp_board_leds_on)
    i.bsp_board_pin_to_button_idx            0x0002b834   Section        0  boards.o(i.bsp_board_pin_to_button_idx)
    i.bsp_button_event_handler               0x0002b858   Section        0  bsp.o(i.bsp_button_event_handler)
    bsp_button_event_handler                 0x0002b859   Thumb Code   132  bsp.o(i.bsp_button_event_handler)
    i.bsp_event_handler                      0x0002b8e8   Section        0  ble_m.o(i.bsp_event_handler)
    bsp_event_handler                        0x0002b8e9   Thumb Code    48  ble_m.o(i.bsp_event_handler)
    i.bsp_event_to_button_action_assign      0x0002b91c   Section        0  bsp.o(i.bsp_event_to_button_action_assign)
    i.bsp_init                               0x0002b960   Section        0  bsp.o(i.bsp_init)
    i.bsp_led_indication                     0x0002b9f4   Section        0  bsp.o(i.bsp_led_indication)
    bsp_led_indication                       0x0002b9f5   Thumb Code   446  bsp.o(i.bsp_led_indication)
    i.buf_prealloc                           0x0002bbbc   Section        0  nrf_log_frontend.o(i.buf_prealloc)
    buf_prealloc                             0x0002bbbd   Thumb Code   140  nrf_log_frontend.o(i.buf_prealloc)
    i.buffer_add                             0x0002bc50   Section        0  nrf_fprintf_format.o(i.buffer_add)
    buffer_add                               0x0002bc51   Thumb Code    46  nrf_fprintf_format.o(i.buffer_add)
    i.buffer_is_empty                        0x0002bc80   Section        0  nrf_log_frontend.o(i.buffer_is_empty)
    i.button_get                             0x0002bc98   Section        0  app_button.o(i.button_get)
    button_get                               0x0002bc99   Thumb Code    36  app_button.o(i.button_get)
    i.button_timer_handler                   0x0002bcc0   Section        0  bsp.o(i.button_timer_handler)
    button_timer_handler                     0x0002bcc1   Thumb Code     8  bsp.o(i.button_timer_handler)
    i.car_update_needed                      0x0002bcc8   Section        0  gatt_cache_manager.o(i.car_update_needed)
    car_update_needed                        0x0002bcc9   Thumb Code    36  gatt_cache_manager.o(i.car_update_needed)
    i.car_update_pending_handle              0x0002bcf0   Section        0  gatt_cache_manager.o(i.car_update_pending_handle)
    car_update_pending_handle                0x0002bcf1   Thumb Code    54  gatt_cache_manager.o(i.car_update_pending_handle)
    i.cccd_descriptors_discovery             0x0002bd30   Section        0  ble_m.o(i.cccd_descriptors_discovery)
    cccd_descriptors_discovery               0x0002bd31   Thumb Code    62  ble_m.o(i.cccd_descriptors_discovery)
    i.cccd_descriptors_handle_get            0x0002bd74   Section        0  ble_m.o(i.cccd_descriptors_handle_get)
    i.cccd_descriptors_search                0x0002bdd8   Section        0  ble_m.o(i.cccd_descriptors_search)
    cccd_descriptors_search                  0x0002bdd9   Thumb Code   168  ble_m.o(i.cccd_descriptors_search)
    i.cccd_set                               0x0002be84   Section        0  cli_m.o(i.cccd_set)
    cccd_set                                 0x0002be85   Thumb Code   110  cli_m.o(i.cccd_set)
    i.channel_free                           0x0002befc   Section        0  nrfx_gpiote.o(i.channel_free)
    channel_free                             0x0002befd   Thumb Code    22  nrfx_gpiote.o(i.channel_free)
    i.channel_port_alloc                     0x0002bf18   Section        0  nrfx_gpiote.o(i.channel_port_alloc)
    channel_port_alloc                       0x0002bf19   Thumb Code    66  nrfx_gpiote.o(i.channel_port_alloc)
    i.channel_port_get                       0x0002bf60   Section        0  nrfx_gpiote.o(i.channel_port_get)
    channel_port_get                         0x0002bf61   Thumb Code    10  nrfx_gpiote.o(i.channel_port_get)
    i.char_backspace                         0x0002bf70   Section        0  nrf_cli.o(i.char_backspace)
    char_backspace                           0x0002bf71   Thumb Code   170  nrf_cli.o(i.char_backspace)
    i.char_delete                            0x0002c028   Section        0  nrf_cli.o(i.char_delete)
    char_delete                              0x0002c029   Thumb Code   138  nrf_cli.o(i.char_delete)
    i.char_insert                            0x0002c0bc   Section        0  nrf_cli.o(i.char_insert)
    char_insert                              0x0002c0bd   Thumb Code   312  nrf_cli.o(i.char_insert)
    i.characteristic_add                     0x0002c1fc   Section        0  ble_srv_common.o(i.characteristic_add)
    i.characteristics_print                  0x0002c38c   Section        0  ble_m.o(i.characteristics_print)
    characteristics_print                    0x0002c38d   Thumb Code   264  ble_m.o(i.characteristics_print)
    i.claim                                  0x0002c564   Section        0  peer_id.o(i.claim)
    claim                                    0x0002c565   Thumb Code    62  peer_id.o(i.claim)
    i.cli_addr_from_command_remove           0x0002c5a2   Section        0  cli_m.o(i.cli_addr_from_command_remove)
    cli_addr_from_command_remove             0x0002c5a3   Thumb Code   126  cli_m.o(i.cli_addr_from_command_remove)
    i.cli_addr_string_to_command_add         0x0002c620   Section        0  cli_m.o(i.cli_addr_string_to_command_add)
    cli_addr_string_to_command_add           0x0002c621   Thumb Code   130  cli_m.o(i.cli_addr_string_to_command_add)
    i.cli_clear_eos                          0x0002c6ac   Section        0  nrf_cli.o(i.cli_clear_eos)
    cli_clear_eos                            0x0002c6ad   Thumb Code    10  nrf_cli.o(i.cli_clear_eos)
    i.cli_cursor_restore                     0x0002c6c0   Section        0  nrf_cli.o(i.cli_cursor_restore)
    cli_cursor_restore                       0x0002c6c1   Thumb Code    10  nrf_cli.o(i.cli_cursor_restore)
    i.cli_cursor_save                        0x0002c6d4   Section        0  nrf_cli.o(i.cli_cursor_save)
    cli_cursor_save                          0x0002c6d5   Thumb Code    10  nrf_cli.o(i.cli_cursor_save)
    i.cli_execute                            0x0002c6e8   Section        0  nrf_cli.o(i.cli_execute)
    cli_execute                              0x0002c6e9   Thumb Code   364  nrf_cli.o(i.cli_execute)
    i.cli_flag_echo_is_set                   0x0002c8b8   Section        0  nrf_cli.o(i.cli_flag_echo_is_set)
    cli_flag_echo_is_set                     0x0002c8b9   Thumb Code    12  nrf_cli.o(i.cli_flag_echo_is_set)
    i.cli_log_entry_process                  0x0002c8c4   Section        0  nrf_cli.o(i.cli_log_entry_process)
    cli_log_entry_process                    0x0002c8c5   Thumb Code   314  nrf_cli.o(i.cli_log_entry_process)
    i.cli_read                               0x0002ca30   Section        0  nrf_cli.o(i.cli_read)
    cli_read                                 0x0002ca31   Thumb Code    14  nrf_cli.o(i.cli_read)
    i.cli_state_collect                      0x0002ca3e   Section        0  nrf_cli.o(i.cli_state_collect)
    cli_state_collect                        0x0002ca3f   Thumb Code   628  nrf_cli.o(i.cli_state_collect)
    i.cli_state_set                          0x0002ccb4   Section        0  nrf_cli.o(i.cli_state_set)
    cli_state_set                            0x0002ccb5   Thumb Code    36  nrf_cli.o(i.cli_state_set)
    i.cli_strlen                             0x0002ccdc   Section        0  nrf_cli.o(i.cli_strlen)
    cli_strlen                               0x0002ccdd   Thumb Code    10  nrf_cli.o(i.cli_strlen)
    i.cli_tab_handle                         0x0002cce8   Section        0  nrf_cli.o(i.cli_tab_handle)
    cli_tab_handle                           0x0002cce9   Thumb Code   740  nrf_cli.o(i.cli_tab_handle)
    i.cli_transport_evt_handler              0x0002d000   Section        0  nrf_cli.o(i.cli_transport_evt_handler)
    cli_transport_evt_handler                0x0002d001   Thumb Code    20  nrf_cli.o(i.cli_transport_evt_handler)
    i.cli_uart_enable                        0x0002d014   Section        0  nrf_cli_uart.o(i.cli_uart_enable)
    cli_uart_enable                          0x0002d015   Thumb Code   104  nrf_cli_uart.o(i.cli_uart_enable)
    i.cli_uart_init                          0x0002d080   Section        0  nrf_cli_uart.o(i.cli_uart_init)
    cli_uart_init                            0x0002d081   Thumb Code    70  nrf_cli_uart.o(i.cli_uart_init)
    i.cli_uart_read                          0x0002d0cc   Section        0  nrf_cli_uart.o(i.cli_uart_read)
    cli_uart_read                            0x0002d0cd   Thumb Code    10  nrf_cli_uart.o(i.cli_uart_read)
    i.cli_uart_uninit                        0x0002d0d6   Section        0  nrf_cli_uart.o(i.cli_uart_uninit)
    cli_uart_uninit                          0x0002d0d7   Thumb Code    22  nrf_cli_uart.o(i.cli_uart_uninit)
    i.cli_uart_write                         0x0002d0ec   Section        0  nrf_cli_uart.o(i.cli_uart_write)
    cli_uart_write                           0x0002d0ed   Thumb Code    98  nrf_cli_uart.o(i.cli_uart_write)
    i.cli_write                              0x0002d154   Section        0  nrf_cli.o(i.cli_write)
    cli_write                                0x0002d155   Thumb Code    88  nrf_cli.o(i.cli_write)
    i.clock_clk_started_notify               0x0002d1ac   Section        0  nrf_drv_clock.o(i.clock_clk_started_notify)
    clock_clk_started_notify                 0x0002d1ad   Thumb Code    34  nrf_drv_clock.o(i.clock_clk_started_notify)
    i.clock_event_handler                    0x0002d1d4   Section        0  nfc_platform.o(i.clock_event_handler)
    clock_event_handler                      0x0002d1d5   Thumb Code    10  nfc_platform.o(i.clock_event_handler)
    i.clock_irq_handler                      0x0002d1e0   Section        0  nrf_drv_clock.o(i.clock_irq_handler)
    clock_irq_handler                        0x0002d1e1   Thumb Code    24  nrf_drv_clock.o(i.clock_irq_handler)
    i.cmd_advertise                          0x0002d1fc   Section        0  cli_m.o(i.cmd_advertise)
    cmd_advertise                            0x0002d1fd   Thumb Code    48  cli_m.o(i.cmd_advertise)
    i.cmd_advertise_off                      0x0002d248   Section        0  cli_m.o(i.cmd_advertise_off)
    cmd_advertise_off                        0x0002d249   Thumb Code    40  cli_m.o(i.cmd_advertise_off)
    i.cmd_advertise_on                       0x0002d2a0   Section        0  cli_m.o(i.cmd_advertise_on)
    cmd_advertise_on                         0x0002d2a1   Thumb Code    64  cli_m.o(i.cmd_advertise_on)
    i.cmd_all_bonds_delete                   0x0002d310   Section        0  cli_m.o(i.cmd_all_bonds_delete)
    cmd_all_bonds_delete                     0x0002d311   Thumb Code    64  cli_m.o(i.cmd_all_bonds_delete)
    i.cmd_bonded_devices_display             0x0002d384   Section        0  cli_m.o(i.cmd_bonded_devices_display)
    cmd_bonded_devices_display               0x0002d385   Thumb Code   146  cli_m.o(i.cmd_bonded_devices_display)
    i.cmd_char_get                           0x0002d45c   Section        0  cli_m.o(i.cmd_char_get)
    cmd_char_get                             0x0002d45d   Thumb Code    82  cli_m.o(i.cmd_char_get)
    i.cmd_char_read                          0x0002d4e4   Section        0  cli_m.o(i.cmd_char_read)
    cmd_char_read                            0x0002d4e5   Thumb Code    94  cli_m.o(i.cmd_char_read)
    i.cmd_char_write                         0x0002d588   Section        0  cli_m.o(i.cmd_char_write)
    cmd_char_write                           0x0002d589   Thumb Code   200  cli_m.o(i.cmd_char_write)
    i.cmd_connected_display                  0x0002d6b8   Section        0  cli_m.o(i.cmd_connected_display)
    cmd_connected_display                    0x0002d6b9   Thumb Code   114  cli_m.o(i.cmd_connected_display)
    i.cmd_connection_params_set              0x0002d784   Section        0  cli_m.o(i.cmd_connection_params_set)
    cmd_connection_params_set                0x0002d785   Thumb Code    88  cli_m.o(i.cmd_connection_params_set)
    i.cmd_data_length_set                    0x0002d85c   Section        0  cli_m.o(i.cmd_data_length_set)
    cmd_data_length_set                      0x0002d85d   Thumb Code    96  cli_m.o(i.cmd_data_length_set)
    i.cmd_device_connect                     0x0002d8f4   Section        0  cli_m.o(i.cmd_device_connect)
    cmd_device_connect                       0x0002d8f5   Thumb Code   100  cli_m.o(i.cmd_device_connect)
    i.cmd_device_disconnect                  0x0002d9ac   Section        0  cli_m.o(i.cmd_device_disconnect)
    cmd_device_disconnect                    0x0002d9ad   Thumb Code   110  cli_m.o(i.cmd_device_disconnect)
    i.cmd_device_name_set                    0x0002da78   Section        0  cli_m.o(i.cmd_device_name_set)
    cmd_device_name_set                      0x0002da79   Thumb Code   128  cli_m.o(i.cmd_device_name_set)
    i.cmd_device_pair                        0x0002dafc   Section        0  cli_m.o(i.cmd_device_pair)
    cmd_device_pair                          0x0002dafd   Thumb Code   222  cli_m.o(i.cmd_device_pair)
    i.cmd_device_remove                      0x0002dc58   Section        0  cli_m.o(i.cmd_device_remove)
    cmd_device_remove                        0x0002dc59   Thumb Code   104  cli_m.o(i.cmd_device_remove)
    i.cmd_devices_display                    0x0002dcc4   Section        0  cli_m.o(i.cmd_devices_display)
    cmd_devices_display                      0x0002dcc5   Thumb Code   128  cli_m.o(i.cmd_devices_display)
    i.cmd_gatt                               0x0002dd70   Section        0  cli_m.o(i.cmd_gatt)
    cmd_gatt                                 0x0002dd71   Thumb Code    48  cli_m.o(i.cmd_gatt)
    i.cmd_get                                0x0002ddbc   Section        0  nrf_cli.o(i.cmd_get)
    cmd_get                                  0x0002ddbd   Thumb Code   124  nrf_cli.o(i.cmd_get)
    i.cmd_ind                                0x0002de44   Section        0  cli_m.o(i.cmd_ind)
    cmd_ind                                  0x0002de45   Thumb Code    48  cli_m.o(i.cmd_ind)
    i.cmd_ind_off                            0x0002de90   Section        0  cli_m.o(i.cmd_ind_off)
    cmd_ind_off                              0x0002de91   Thumb Code    10  cli_m.o(i.cmd_ind_off)
    i.cmd_ind_on                             0x0002de9a   Section        0  cli_m.o(i.cmd_ind_on)
    cmd_ind_on                               0x0002de9b   Thumb Code    10  cli_m.o(i.cmd_ind_on)
    i.cmd_key_reply                          0x0002dea4   Section        0  cli_m.o(i.cmd_key_reply)
    cmd_key_reply                            0x0002dea5   Thumb Code   142  cli_m.o(i.cmd_key_reply)
    i.cmd_max_conn_interval_set              0x0002dfc8   Section        0  cli_m.o(i.cmd_max_conn_interval_set)
    cmd_max_conn_interval_set                0x0002dfc9   Thumb Code   128  cli_m.o(i.cmd_max_conn_interval_set)
    i.cmd_min_conn_interval_set              0x0002e0c8   Section        0  cli_m.o(i.cmd_min_conn_interval_set)
    cmd_min_conn_interval_set                0x0002e0c9   Thumb Code   128  cli_m.o(i.cmd_min_conn_interval_set)
    i.cmd_mtu_set                            0x0002e1c4   Section        0  cli_m.o(i.cmd_mtu_set)
    cmd_mtu_set                              0x0002e1c5   Thumb Code    94  cli_m.o(i.cmd_mtu_set)
    i.cmd_notify                             0x0002e254   Section        0  cli_m.o(i.cmd_notify)
    cmd_notify                               0x0002e255   Thumb Code    48  cli_m.o(i.cmd_notify)
    i.cmd_notify_off                         0x0002e2a0   Section        0  cli_m.o(i.cmd_notify_off)
    cmd_notify_off                           0x0002e2a1   Thumb Code    10  cli_m.o(i.cmd_notify_off)
    i.cmd_notify_on                          0x0002e2aa   Section        0  cli_m.o(i.cmd_notify_on)
    cmd_notify_on                            0x0002e2ab   Thumb Code    10  cli_m.o(i.cmd_notify_on)
    i.cmd_numeric                            0x0002e2b4   Section        0  cli_m.o(i.cmd_numeric)
    cmd_numeric                              0x0002e2b5   Thumb Code    48  cli_m.o(i.cmd_numeric)
    i.cmd_numeric_accept                     0x0002e2fc   Section        0  cli_m.o(i.cmd_numeric_accept)
    cmd_numeric_accept                       0x0002e2fd   Thumb Code    50  cli_m.o(i.cmd_numeric_accept)
    i.cmd_numeric_reject                     0x0002e380   Section        0  cli_m.o(i.cmd_numeric_reject)
    cmd_numeric_reject                       0x0002e381   Thumb Code    50  cli_m.o(i.cmd_numeric_reject)
    i.cmd_parameters                         0x0002e404   Section        0  cli_m.o(i.cmd_parameters)
    cmd_parameters                           0x0002e405   Thumb Code    48  cli_m.o(i.cmd_parameters)
    i.cmd_phy                                0x0002e450   Section        0  cli_m.o(i.cmd_phy)
    cmd_phy                                  0x0002e451   Thumb Code    48  cli_m.o(i.cmd_phy)
    i.cmd_phy_1m_set                         0x0002e49c   Section        0  cli_m.o(i.cmd_phy_1m_set)
    cmd_phy_1m_set                           0x0002e49d   Thumb Code    38  cli_m.o(i.cmd_phy_1m_set)
    i.cmd_phy_2m_set                         0x0002e4c2   Section        0  cli_m.o(i.cmd_phy_2m_set)
    cmd_phy_2m_set                           0x0002e4c3   Thumb Code    38  cli_m.o(i.cmd_phy_2m_set)
    i.cmd_privacy                            0x0002e4e8   Section        0  cli_m.o(i.cmd_privacy)
    cmd_privacy                              0x0002e4e9   Thumb Code    48  cli_m.o(i.cmd_privacy)
    i.cmd_privacy_off                        0x0002e534   Section        0  cli_m.o(i.cmd_privacy_off)
    cmd_privacy_off                          0x0002e535   Thumb Code    54  cli_m.o(i.cmd_privacy_off)
    i.cmd_privacy_on                         0x0002e56a   Section        0  cli_m.o(i.cmd_privacy_on)
    cmd_privacy_on                           0x0002e56b   Thumb Code    68  cli_m.o(i.cmd_privacy_on)
    i.cmd_remove                             0x0002e5b0   Section        0  cli_m.o(i.cmd_remove)
    cmd_remove                               0x0002e5b1   Thumb Code    48  cli_m.o(i.cmd_remove)
    i.cmd_scan                               0x0002e5fc   Section        0  cli_m.o(i.cmd_scan)
    cmd_scan                                 0x0002e5fd   Thumb Code    48  cli_m.o(i.cmd_scan)
    i.cmd_scan_off                           0x0002e648   Section        0  cli_m.o(i.cmd_scan_off)
    cmd_scan_off                             0x0002e649   Thumb Code    52  cli_m.o(i.cmd_scan_off)
    i.cmd_scan_on                            0x0002e6b0   Section        0  cli_m.o(i.cmd_scan_on)
    cmd_scan_on                              0x0002e6b1   Thumb Code    52  cli_m.o(i.cmd_scan_on)
    i.cmd_services_discovery                 0x0002e718   Section        0  cli_m.o(i.cmd_services_discovery)
    cmd_services_discovery                   0x0002e719   Thumb Code    72  cli_m.o(i.cmd_services_discovery)
    i.cmd_slave_latency_set                  0x0002e760   Section        0  cli_m.o(i.cmd_slave_latency_set)
    cmd_slave_latency_set                    0x0002e761   Thumb Code   104  cli_m.o(i.cmd_slave_latency_set)
    i.cmd_sup_timeout_set                    0x0002e830   Section        0  cli_m.o(i.cmd_sup_timeout_set)
    cmd_sup_timeout_set                      0x0002e831   Thumb Code   174  cli_m.o(i.cmd_sup_timeout_set)
    i.cmd_trim                               0x0002e9d4   Section        0  nrf_cli.o(i.cmd_trim)
    cmd_trim                                 0x0002e9d5   Thumb Code   154  nrf_cli.o(i.cmd_trim)
    i.common_adv_data_create                 0x0002ea6e   Section        0  nfc_ble_pair_msg.o(i.common_adv_data_create)
    common_adv_data_create                   0x0002ea6f   Thumb Code    36  nfc_ble_pair_msg.o(i.common_adv_data_create)
    i.compare_func                           0x0002ea92   Section        0  app_timer2.o(i.compare_func)
    compare_func                             0x0002ea93   Thumb Code    24  app_timer2.o(i.compare_func)
    i.completion_insert                      0x0002eaac   Section        0  nrf_cli.o(i.completion_insert)
    completion_insert                        0x0002eaad   Thumb Code   142  nrf_cli.o(i.completion_insert)
    i.compute_and_give_dhkey                 0x0002eb40   Section        0  nrf_ble_lesc.o(i.compute_and_give_dhkey)
    compute_and_give_dhkey                   0x0002eb41   Thumb Code   138  nrf_ble_lesc.o(i.compute_and_give_dhkey)
    i.conn_handle_is_valid                   0x0002ec50   Section        0  cli_m.o(i.conn_handle_is_valid)
    conn_handle_is_valid                     0x0002ec51   Thumb Code    30  cli_m.o(i.conn_handle_is_valid)
    i.conn_handle_list_get                   0x0002ec88   Section        0  ble_conn_state.o(i.conn_handle_list_get)
    i.conn_int_encode                        0x0002ecc6   Section        0  ble_advdata.o(i.conn_int_encode)
    conn_int_encode                          0x0002ecc7   Thumb Code   136  ble_advdata.o(i.conn_int_encode)
    i.conn_params_error_handler              0x0002ed4e   Section        0  ble_m.o(i.conn_params_error_handler)
    conn_params_error_handler                0x0002ed4f   Thumb Code     4  ble_m.o(i.conn_params_error_handler)
    i.conn_params_negotiation                0x0002ed54   Section        0  ble_conn_params.o(i.conn_params_negotiation)
    conn_params_negotiation                  0x0002ed55   Thumb Code    68  ble_conn_params.o(i.conn_params_negotiation)
    i.conn_sec_failure                       0x0002ed9c   Section        0  security_dispatcher.o(i.conn_sec_failure)
    conn_sec_failure                         0x0002ed9d   Thumb Code    60  security_dispatcher.o(i.conn_sec_failure)
    i.conn_secure                            0x0002ede0   Section        0  peer_manager_handler.o(i.conn_secure)
    conn_secure                              0x0002ede1   Thumb Code     4  peer_manager_handler.o(i.conn_secure)
    i.connect_addr_clear                     0x0002ede4   Section        0  cli_m.o(i.connect_addr_clear)
    i.connect_addr_get                       0x0002edf4   Section        0  cli_m.o(i.connect_addr_get)
    connect_addr_get                         0x0002edf5   Thumb Code    38  cli_m.o(i.connect_addr_get)
    i.connected_get                          0x0002ee38   Section        0  cli_m.o(i.connected_get)
    connected_get                            0x0002ee39   Thumb Code    36  cli_m.o(i.connected_get)
    i.connected_to_cmd_add                   0x0002ee60   Section        0  cli_m.o(i.connected_to_cmd_add)
    i.connected_to_cmd_remove                0x0002ee74   Section        0  cli_m.o(i.connected_to_cmd_remove)
    i.continous_items_get                    0x0002ee9c   Section        0  nrf_queue.o(i.continous_items_get)
    continous_items_get                      0x0002ee9d   Thumb Code    38  nrf_queue.o(i.continous_items_get)
    i.ctr_drbg_update_internal               0x0002eec2   Section        0  ctr_drbg.o(i.ctr_drbg_update_internal)
    ctr_drbg_update_internal                 0x0002eec3   Thumb Code   130  ctr_drbg.o(i.ctr_drbg_update_internal)
    i.cursor_down_move                       0x0002ef44   Section        0  nrf_cli.o(i.cursor_down_move)
    cursor_down_move                         0x0002ef45   Thumb Code    16  nrf_cli.o(i.cursor_down_move)
    i.cursor_end_position_move               0x0002ef5c   Section        0  nrf_cli.o(i.cursor_end_position_move)
    cursor_end_position_move                 0x0002ef5d   Thumb Code    82  nrf_cli.o(i.cursor_end_position_move)
    i.cursor_home_position_move              0x0002efae   Section        0  nrf_cli.o(i.cursor_home_position_move)
    cursor_home_position_move                0x0002efaf   Thumb Code    84  nrf_cli.o(i.cursor_home_position_move)
    i.cursor_in_empty_line                   0x0002f002   Section        0  nrf_cli.o(i.cursor_in_empty_line)
    cursor_in_empty_line                     0x0002f003   Thumb Code    38  nrf_cli.o(i.cursor_in_empty_line)
    i.cursor_left_move                       0x0002f028   Section        0  nrf_cli.o(i.cursor_left_move)
    cursor_left_move                         0x0002f029   Thumb Code    16  nrf_cli.o(i.cursor_left_move)
    i.cursor_next_line_move                  0x0002f040   Section        0  nrf_cli.o(i.cursor_next_line_move)
    cursor_next_line_move                    0x0002f041   Thumb Code     8  nrf_cli.o(i.cursor_next_line_move)
    i.cursor_position_get                    0x0002f04c   Section        0  nrf_cli.o(i.cursor_position_get)
    cursor_position_get                      0x0002f04d   Thumb Code   288  nrf_cli.o(i.cursor_position_get)
    i.cursor_position_synchronize            0x0002f170   Section        0  nrf_cli.o(i.cursor_position_synchronize)
    cursor_position_synchronize              0x0002f171   Thumb Code   106  nrf_cli.o(i.cursor_position_synchronize)
    i.cursor_right_move                      0x0002f1dc   Section        0  nrf_cli.o(i.cursor_right_move)
    cursor_right_move                        0x0002f1dd   Thumb Code    16  nrf_cli.o(i.cursor_right_move)
    i.cursor_up_move                         0x0002f1f4   Section        0  nrf_cli.o(i.cursor_up_move)
    cursor_up_move                           0x0002f1f5   Thumb Code    16  nrf_cli.o(i.cursor_up_move)
    i.data_length_update                     0x0002f20c   Section        0  nrf_ble_gatt.o(i.data_length_update)
    data_length_update                       0x0002f20d   Thumb Code   126  nrf_ble_gatt.o(i.data_length_update)
    i.db_update_pending_handle               0x0002f2e0   Section        0  gatt_cache_manager.o(i.db_update_pending_handle)
    db_update_pending_handle                 0x0002f2e1   Thumb Code    42  gatt_cache_manager.o(i.db_update_pending_handle)
    i.delete_bond_get                        0x0002f310   Section        0  cli_m.o(i.delete_bond_get)
    delete_bond_get                          0x0002f311   Thumb Code    38  cli_m.o(i.delete_bond_get)
    i.delete_execute                         0x0002f35c   Section        0  fds.o(i.delete_execute)
    delete_execute                           0x0002f35d   Thumb Code   134  fds.o(i.delete_execute)
    i.descriptor_add                         0x0002f3e8   Section        0  ble_srv_common.o(i.descriptor_add)
    i.detection_delay_timeout_handler        0x0002f494   Section        0  app_button.o(i.detection_delay_timeout_handler)
    detection_delay_timeout_handler          0x0002f495   Thumb Code    66  app_button.o(i.detection_delay_timeout_handler)
    i.device_to_list_add                     0x0002f4dc   Section        0  ble_m.o(i.device_to_list_add)
    device_to_list_add                       0x0002f4dd   Thumb Code   166  ble_m.o(i.device_to_list_add)
    i.dropped_sat16_get                      0x0002f588   Section        0  nrf_log_frontend.o(i.dropped_sat16_get)
    dropped_sat16_get                        0x0002f589   Thumb Code    16  nrf_log_frontend.o(i.dropped_sat16_get)
    i.drv_rtc_compare_disable                0x0002f59c   Section        0  drv_rtc.o(i.drv_rtc_compare_disable)
    i.drv_rtc_compare_pending                0x0002f5b0   Section        0  drv_rtc.o(i.drv_rtc_compare_pending)
    i.drv_rtc_compare_set                    0x0002f5be   Section        0  drv_rtc.o(i.drv_rtc_compare_set)
    i.drv_rtc_counter_get                    0x0002f60e   Section        0  drv_rtc.o(i.drv_rtc_counter_get)
    i.drv_rtc_init                           0x0002f618   Section        0  drv_rtc.o(i.drv_rtc_init)
    i.drv_rtc_irq_trigger                    0x0002f704   Section        0  drv_rtc.o(i.drv_rtc_irq_trigger)
    i.drv_rtc_overflow_enable                0x0002f722   Section        0  drv_rtc.o(i.drv_rtc_overflow_enable)
    i.drv_rtc_overflow_pending               0x0002f72a   Section        0  drv_rtc.o(i.drv_rtc_overflow_pending)
    i.drv_rtc_start                          0x0002f732   Section        0  drv_rtc.o(i.drv_rtc_start)
    i.drv_rtc_stop                           0x0002f73a   Section        0  drv_rtc.o(i.drv_rtc_stop)
    i.drv_rtc_windowed_compare_set           0x0002f742   Section        0  drv_rtc.o(i.drv_rtc_windowed_compare_set)
    i.encryption_failure                     0x0002f820   Section        0  security_dispatcher.o(i.encryption_failure)
    encryption_failure                       0x0002f821   Thumb Code    10  security_dispatcher.o(i.encryption_failure)
    i.entropy_callback                       0x0002f82a   Section        0  nrf_hw_backend_rng_mbedtls.o(i.entropy_callback)
    entropy_callback                         0x0002f82b   Thumb Code    14  nrf_hw_backend_rng_mbedtls.o(i.entropy_callback)
    i.ep_oob_specific_adv_data_create        0x0002f838   Section        0  nfc_ble_pair_msg.o(i.ep_oob_specific_adv_data_create)
    ep_oob_specific_adv_data_create          0x0002f839   Thumb Code    14  nfc_ble_pair_msg.o(i.ep_oob_specific_adv_data_create)
    i.erase                                  0x0002f84c   Section        0  nrf_fstorage_sd.o(i.erase)
    erase                                    0x0002f84d   Thumb Code    72  nrf_fstorage_sd.o(i.erase)
    i.event_prepare                          0x0002f898   Section        0  fds.o(i.event_prepare)
    event_prepare                            0x0002f899   Thumb Code   116  fds.o(i.event_prepare)
    i.event_send                             0x0002f90c   Section        0  fds.o(i.event_send)
    event_send                               0x0002f90d   Thumb Code    26  fds.o(i.event_send)
    i.event_send                             0x0002f92c   Section        0  nrf_fstorage_sd.o(i.event_send)
    event_send                               0x0002f92d   Thumb Code    84  nrf_fstorage_sd.o(i.event_send)
    i.events_send_from_err_code              0x0002f980   Section        0  security_manager.o(i.events_send_from_err_code)
    events_send_from_err_code                0x0002f981   Thumb Code   144  security_manager.o(i.events_send_from_err_code)
    i.evt_enable                             0x0002fa24   Section        0  drv_rtc.o(i.evt_enable)
    evt_enable                               0x0002fa25   Thumb Code    18  drv_rtc.o(i.evt_enable)
    i.evt_handle                             0x0002fa38   Section        0  app_button.o(i.evt_handle)
    i.evt_pending                            0x0002fb18   Section        0  drv_rtc.o(i.evt_pending)
    evt_pending                              0x0002fb19   Thumb Code    20  drv_rtc.o(i.evt_pending)
    i.evt_send                               0x0002fb2c   Section        0  gatt_cache_manager.o(i.evt_send)
    evt_send                                 0x0002fb2d   Thumb Code    24  gatt_cache_manager.o(i.evt_send)
    i.evt_send                               0x0002fb48   Section        0  gatts_cache_manager.o(i.evt_send)
    evt_send                                 0x0002fb49   Thumb Code    24  gatts_cache_manager.o(i.evt_send)
    i.evt_send                               0x0002fb64   Section        0  peer_manager.o(i.evt_send)
    evt_send                                 0x0002fb65   Thumb Code    36  peer_manager.o(i.evt_send)
    i.evt_send                               0x0002fb90   Section        0  security_dispatcher.o(i.evt_send)
    evt_send                                 0x0002fb91   Thumb Code    24  security_dispatcher.o(i.evt_send)
    i.evt_send                               0x0002fbac   Section        0  security_manager.o(i.evt_send)
    evt_send                                 0x0002fbad   Thumb Code     6  security_manager.o(i.evt_send)
    i.fds_evt_handler                        0x0002fbb8   Section        0  peer_data_storage.o(i.fds_evt_handler)
    fds_evt_handler                          0x0002fbb9   Thumb Code   218  peer_data_storage.o(i.fds_evt_handler)
    i.fds_file_delete                        0x0002fc98   Section        0  fds.o(i.fds_file_delete)
    i.fds_gc                                 0x0002fce0   Section        0  fds.o(i.fds_gc)
    i.fds_init                               0x0002fd20   Section        0  fds.o(i.fds_init)
    i.fds_record_close                       0x0002fe04   Section        0  fds.o(i.fds_record_close)
    i.fds_record_find                        0x0002fe4c   Section        0  fds.o(i.fds_record_find)
    i.fds_record_find_by_key                 0x0002fe5a   Section        0  fds.o(i.fds_record_find_by_key)
    i.fds_record_find_in_file                0x0002fe6a   Section        0  fds.o(i.fds_record_find_in_file)
    i.fds_record_id_from_desc                0x0002fe7a   Section        0  fds.o(i.fds_record_id_from_desc)
    i.fds_record_open                        0x0002fe8c   Section        0  fds.o(i.fds_record_open)
    i.fds_record_update                      0x0002fed8   Section        0  fds.o(i.fds_record_update)
    i.fds_record_write                       0x0002fee8   Section        0  fds.o(i.fds_record_write)
    i.fds_register                           0x0002fef0   Section        0  fds.o(i.fds_register)
    i.fds_stat                               0x0002ff20   Section        0  fds.o(i.fds_stat)
    i.file_id_within_pm_range                0x0002ffc0   Section        0  peer_data_storage.o(i.file_id_within_pm_range)
    file_id_within_pm_range                  0x0002ffc1   Thumb Code    20  peer_data_storage.o(i.file_id_within_pm_range)
    i.flag_id_init                           0x0002ffd4   Section        0  security_dispatcher.o(i.flag_id_init)
    flag_id_init                             0x0002ffd5   Thumb Code    18  security_dispatcher.o(i.flag_id_init)
    i.flag_id_init                           0x0002ffe6   Section        0  security_manager.o(i.flag_id_init)
    flag_id_init                             0x0002ffe7   Thumb Code    18  security_manager.o(i.flag_id_init)
    i.flag_toggle                            0x0002fff8   Section        0  ble_conn_state.o(i.flag_toggle)
    flag_toggle                              0x0002fff9   Thumb Code    10  ble_conn_state.o(i.flag_toggle)
    i.flags_set                              0x00030002   Section        0  ble_advertising.o(i.flags_set)
    flags_set                                0x00030003   Thumb Code    40  ble_advertising.o(i.flags_set)
    i.flags_set_from_err_code                0x0003002c   Section        0  security_manager.o(i.flags_set_from_err_code)
    flags_set_from_err_code                  0x0003002d   Thumb Code    42  security_manager.o(i.flags_set_from_err_code)
    i.for_each_set_flag                      0x0003005c   Section        0  ble_conn_state.o(i.for_each_set_flag)
    for_each_set_flag                        0x0003005d   Thumb Code    48  ble_conn_state.o(i.for_each_set_flag)
    i.format_offset_string_print             0x0003008c   Section        0  nrf_cli.o(i.format_offset_string_print)
    format_offset_string_print               0x0003008d   Thumb Code   242  nrf_cli.o(i.format_offset_string_print)
    i.fs_event_handler                       0x0003017e   Section        0  fds.o(i.fs_event_handler)
    fs_event_handler                         0x0003017f   Thumb Code     6  fds.o(i.fs_event_handler)
    i.full_line_cmd                          0x00030184   Section        0  nrf_cli.o(i.full_line_cmd)
    full_line_cmd                            0x00030185   Thumb Code    38  nrf_cli.o(i.full_line_cmd)
    i.gatt_evt_handler                       0x000301ac   Section        0  ble_m.o(i.gatt_evt_handler)
    gatt_evt_handler                         0x000301ad   Thumb Code    76  ble_m.o(i.gatt_evt_handler)
    i.gatt_mtu_set                           0x00030244   Section        0  ble_m.o(i.gatt_mtu_set)
    i.gc_execute                             0x000302ec   Section        0  fds.o(i.gc_execute)
    gc_execute                               0x000302ed   Thumb Code   124  fds.o(i.gc_execute)
    i.gc_next_page                           0x0003036c   Section        0  fds.o(i.gc_next_page)
    gc_next_page                             0x0003036d   Thumb Code    70  fds.o(i.gc_next_page)
    i.gc_page_erase                          0x000303b8   Section        0  fds.o(i.gc_page_erase)
    gc_page_erase                            0x000303b9   Thumb Code    50  fds.o(i.gc_page_erase)
    i.gc_record_copy                         0x000303f8   Section        0  fds.o(i.gc_record_copy)
    gc_record_copy                           0x000303f9   Thumb Code    40  fds.o(i.gc_record_copy)
    i.gc_record_find_next                    0x0003042c   Section        0  fds.o(i.gc_record_find_next)
    gc_record_find_next                      0x0003042d   Thumb Code    30  fds.o(i.gc_record_find_next)
    i.gc_state_advance                       0x00030450   Section        0  fds.o(i.gc_state_advance)
    gc_state_advance                         0x00030451   Thumb Code   104  fds.o(i.gc_state_advance)
    i.gc_swap_pages                          0x000304c0   Section        0  fds.o(i.gc_swap_pages)
    gc_swap_pages                            0x000304c1   Thumb Code    40  fds.o(i.gc_swap_pages)
    i.gcm_ble_evt_handler                    0x000304f0   Section        0  gatt_cache_manager.o(i.gcm_ble_evt_handler)
    i.gcm_im_evt_handler                     0x00030750   Section        0  gatt_cache_manager.o(i.gcm_im_evt_handler)
    i.gcm_init                               0x0003078c   Section        0  gatt_cache_manager.o(i.gcm_init)
    i.gcm_pdb_evt_handler                    0x00030828   Section        0  gatt_cache_manager.o(i.gcm_pdb_evt_handler)
    i.generate                               0x000308b0   Section        0  nrf_crypto_rng.o(i.generate)
    generate                                 0x000308b1   Thumb Code    94  nrf_crypto_rng.o(i.generate)
    i.generate_in_range                      0x00030918   Section        0  nrf_crypto_rng.o(i.generate_in_range)
    generate_in_range                        0x00030919   Thumb Code   194  nrf_crypto_rng.o(i.generate_in_range)
    i.get_lesc_oob_peer_data                 0x000309e0   Section        0  nfc_central_m.o(i.get_lesc_oob_peer_data)
    i.get_now                                0x000309e8   Section        0  app_timer2.o(i.get_now)
    get_now                                  0x000309e9   Thumb Code    46  app_timer2.o(i.get_now)
    i.gpiote_event_handler                   0x00030a1c   Section        0  app_button.o(i.gpiote_event_handler)
    gpiote_event_handler                     0x00030a1d   Thumb Code    56  app_button.o(i.gpiote_event_handler)
    i.gscm_db_change_notification_done       0x00030a58   Section        0  gatts_cache_manager.o(i.gscm_db_change_notification_done)
    i.gscm_init                              0x00030a74   Section        0  gatts_cache_manager.o(i.gscm_init)
    i.gscm_local_db_cache_apply              0x00030a88   Section        0  gatts_cache_manager.o(i.gscm_local_db_cache_apply)
    i.gscm_local_db_cache_update             0x00030b24   Section        0  gatts_cache_manager.o(i.gscm_local_db_cache_update)
    i.gscm_pdb_evt_handler                   0x00030bd8   Section        0  gatts_cache_manager.o(i.gscm_pdb_evt_handler)
    i.gscm_service_changed_ind_needed        0x00030bf0   Section        0  gatts_cache_manager.o(i.gscm_service_changed_ind_needed)
    i.gscm_service_changed_ind_send          0x00030c10   Section        0  gatts_cache_manager.o(i.gscm_service_changed_ind_send)
    i.handle_range_search                    0x00030c78   Section        0  ble_m.o(i.handle_range_search)
    i.handle_value_search                    0x00030cd0   Section        0  ble_m.o(i.handle_value_search)
    i.header_check                           0x00030d20   Section        0  fds.o(i.header_check)
    header_check                             0x00030d21   Thumb Code    44  fds.o(i.header_check)
    i.header_has_next                        0x00030d4c   Section        0  fds.o(i.header_has_next)
    header_has_next                          0x00030d4d   Thumb Code    18  fds.o(i.header_has_next)
    i.hex_addr_display                       0x00030d60   Section        0  ble_m.o(i.hex_addr_display)
    hex_addr_display                         0x00030d61   Thumb Code    94  ble_m.o(i.hex_addr_display)
    i.history_handle                         0x00030df0   Section        0  nrf_cli.o(i.history_handle)
    history_handle                           0x00030df1   Thumb Code   320  nrf_cli.o(i.history_handle)
    i.history_list_element_add               0x00030f34   Section        0  nrf_cli.o(i.history_list_element_add)
    history_list_element_add                 0x00030f35   Thumb Code   120  nrf_cli.o(i.history_list_element_add)
    i.history_list_element_oldest_remove     0x00030fac   Section        0  nrf_cli.o(i.history_list_element_oldest_remove)
    history_list_element_oldest_remove       0x00030fad   Thumb Code   104  nrf_cli.o(i.history_list_element_oldest_remove)
    i.history_save                           0x00031014   Section        0  nrf_cli.o(i.history_save)
    history_save                             0x00031015   Thumb Code   134  nrf_cli.o(i.history_save)
    i.im_address_resolve                     0x0003109a   Section        0  id_manager.o(i.im_address_resolve)
    i.im_ble_addr_get                        0x000310e0   Section        0  id_manager.o(i.im_ble_addr_get)
    i.im_ble_evt_handler                     0x00031118   Section        0  id_manager.o(i.im_ble_evt_handler)
    i.im_conn_handle_get                     0x000311f4   Section        0  id_manager.o(i.im_conn_handle_get)
    i.im_device_identities_list_set          0x00031234   Section        0  id_manager.o(i.im_device_identities_list_set)
    i.im_find_duplicate_bonding_data         0x00031334   Section        0  id_manager.o(i.im_find_duplicate_bonding_data)
    i.im_is_duplicate_bonding_data           0x0003136c   Section        0  id_manager.o(i.im_is_duplicate_bonding_data)
    i.im_master_id_is_valid                  0x000313de   Section        0  id_manager.o(i.im_master_id_is_valid)
    i.im_master_ids_compare                  0x000313f6   Section        0  id_manager.o(i.im_master_ids_compare)
    i.im_new_peer_id                         0x00031420   Section        0  id_manager.o(i.im_new_peer_id)
    i.im_peer_free                           0x00031434   Section        0  id_manager.o(i.im_peer_free)
    i.im_peer_id_get_by_conn_handle          0x00031460   Section        0  id_manager.o(i.im_peer_id_get_by_conn_handle)
    i.im_peer_id_get_by_master_id            0x00031484   Section        0  id_manager.o(i.im_peer_id_get_by_master_id)
    i.init                                   0x000314c0   Section        0  nrf_fstorage_sd.o(i.init)
    init                                     0x000314c1   Thumb Code    42  nrf_fstorage_sd.o(i.init)
    i.init_execute                           0x000314f4   Section        0  fds.o(i.init_execute)
    init_execute                             0x000314f5   Thumb Code   188  fds.o(i.init_execute)
    i.instance_get                           0x000315bc   Section        0  ble_conn_params.o(i.instance_get)
    instance_get                             0x000315bd   Thumb Code    36  ble_conn_params.o(i.instance_get)
    i.int_addr_to_hex_str                    0x000315e4   Section        0  ble_m.o(i.int_addr_to_hex_str)
    i.int_print                              0x00031640   Section        0  nrf_fprintf_format.o(i.int_print)
    int_print                                0x00031641   Thumb Code   166  nrf_fprintf_format.o(i.int_print)
    i.interrupts_enable                      0x000316e8   Section        0  nrfx_uarte.o(i.interrupts_enable)
    interrupts_enable                        0x000316e9   Thumb Code   132  nrfx_uarte.o(i.interrupts_enable)
    i.invalid_packets_omit                   0x00031770   Section        0  nrf_log_frontend.o(i.invalid_packets_omit)
    invalid_packets_omit                     0x00031771   Thumb Code    52  nrf_log_frontend.o(i.invalid_packets_omit)
    i.is_address_compare                     0x000317a4   Section        0  ble_m.o(i.is_address_compare)
    i.is_busy                                0x000317d4   Section        0  nrf_fstorage_sd.o(i.is_busy)
    is_busy                                  0x000317d5   Thumb Code    12  nrf_fstorage_sd.o(i.is_busy)
    i.is_completion_candidate                0x000317e4   Section        0  nrf_cli.o(i.is_completion_candidate)
    is_completion_candidate                  0x000317e5   Thumb Code    16  nrf_cli.o(i.is_completion_candidate)
    i.is_conn_params_ok                      0x000317f4   Section        0  ble_conn_params.o(i.is_conn_params_ok)
    is_conn_params_ok                        0x000317f5   Thumb Code    68  ble_conn_params.o(i.is_conn_params_ok)
    i.is_nfc_central_get                     0x00031838   Section        0  nfc_central_m.o(i.is_nfc_central_get)
    i.is_nfc_central_set                     0x00031844   Section        0  nfc_central_m.o(i.is_nfc_central_set)
    i.is_numeric_match_requested             0x00031850   Section        0  ble_m.o(i.is_numeric_match_requested)
    i.is_scanning                            0x0003185c   Section        0  ble_m.o(i.is_scanning)
    i.is_valid_irk                           0x00031868   Section        0  id_manager.o(i.is_valid_irk)
    i.is_vector_greater_or_equal             0x0003187c   Section        0  nrf_crypto_rng.o(i.is_vector_greater_or_equal)
    is_vector_greater_or_equal               0x0003187d   Thumb Code    36  nrf_crypto_rng.o(i.is_vector_greater_or_equal)
    i.is_whitelist_used                      0x000318a0   Section        0  nrf_ble_scan.o(i.is_whitelist_used)
    i.is_word_aligned                        0x000318b6   Section        0  fds.o(i.is_word_aligned)
    is_word_aligned                          0x000318b7   Thumb Code    12  fds.o(i.is_word_aligned)
    i.item_enqueue                           0x000318c2   Section        0  nrf_drv_clock.o(i.item_enqueue)
    item_enqueue                             0x000318c3   Thumb Code    22  nrf_drv_clock.o(i.item_enqueue)
    i.key_request_set                        0x000318d8   Section        0  cli_m.o(i.key_request_set)
    i.le_oob_specific_adv_data_create        0x000318e4   Section        0  nfc_ble_pair_msg.o(i.le_oob_specific_adv_data_create)
    le_oob_specific_adv_data_create          0x000318e5   Thumb Code    24  nfc_ble_pair_msg.o(i.le_oob_specific_adv_data_create)
    i.le_role_encode                         0x000318fc   Section        0  nfc_ble_oob_advdata.o(i.le_role_encode)
    le_role_encode                           0x000318fd   Thumb Code    92  nfc_ble_oob_advdata.o(i.le_role_encode)
    i.leds_off                               0x00031958   Section        0  bsp.o(i.leds_off)
    leds_off                                 0x00031959   Thumb Code    42  bsp.o(i.leds_off)
    i.leds_timer_handler                     0x00031988   Section        0  bsp.o(i.leds_timer_handler)
    leds_timer_handler                       0x00031989   Thumb Code    16  bsp.o(i.leds_timer_handler)
    i.lesc_value_encode                      0x0003199c   Section        0  nfc_ble_oob_advdata.o(i.lesc_value_encode)
    lesc_value_encode                        0x0003199d   Thumb Code   136  nfc_ble_oob_advdata.o(i.lesc_value_encode)
    i.link_init                              0x00031a24   Section        0  nrf_ble_gatt.o(i.link_init)
    link_init                                0x00031a25   Thumb Code    24  nrf_ble_gatt.o(i.link_init)
    i.link_layer_data_length_set             0x00031a3c   Section        0  ble_m.o(i.link_layer_data_length_set)
    i.link_secure                            0x00031ae4   Section        0  security_manager.o(i.link_secure)
    link_secure                              0x00031ae5   Thumb Code   194  security_manager.o(i.link_secure)
    i.link_secure_authenticate               0x00031bbc   Section        0  security_dispatcher.o(i.link_secure_authenticate)
    link_secure_authenticate                 0x00031bbd   Thumb Code    10  security_dispatcher.o(i.link_secure_authenticate)
    i.link_secure_central                    0x00031bc8   Section        0  security_dispatcher.o(i.link_secure_central)
    link_secure_central                      0x00031bc9   Thumb Code    98  security_dispatcher.o(i.link_secure_central)
    i.link_secure_central_encryption         0x00031c30   Section        0  security_dispatcher.o(i.link_secure_central_encryption)
    link_secure_central_encryption           0x00031c31   Thumb Code   142  security_dispatcher.o(i.link_secure_central_encryption)
    i.link_secure_failure                    0x00031cd0   Section        0  security_dispatcher.o(i.link_secure_failure)
    link_secure_failure                      0x00031cd1   Thumb Code    50  security_dispatcher.o(i.link_secure_failure)
    i.link_secure_pending_handle             0x00031d04   Section        0  security_manager.o(i.link_secure_pending_handle)
    link_secure_pending_handle               0x00031d05   Thumb Code    38  security_manager.o(i.link_secure_pending_handle)
    i.local_db_apply_in_evt                  0x00031d30   Section        0  gatt_cache_manager.o(i.local_db_apply_in_evt)
    local_db_apply_in_evt                    0x00031d31   Thumb Code   160  gatt_cache_manager.o(i.local_db_apply_in_evt)
    i.local_db_update                        0x00031de8   Section        0  gatt_cache_manager.o(i.local_db_update)
    local_db_update                          0x00031de9   Thumb Code    10  gatt_cache_manager.o(i.local_db_update)
    i.local_db_update_in_evt                 0x00031df8   Section        0  gatt_cache_manager.o(i.local_db_update_in_evt)
    local_db_update_in_evt                   0x00031df9   Thumb Code   152  gatt_cache_manager.o(i.local_db_update_in_evt)
    i.log_backend_ctrl                       0x00031f18   Section        0  nrf_log_frontend.o(i.log_backend_ctrl)
    log_backend_ctrl                         0x00031f19   Thumb Code     6  nrf_log_frontend.o(i.log_backend_ctrl)
    i.log_backend_go                         0x00031f24   Section        0  nrf_log_frontend.o(i.log_backend_go)
    log_backend_go                           0x00031f25   Thumb Code     6  nrf_log_frontend.o(i.log_backend_go)
    i.log_backend_halt                       0x00031f30   Section        0  nrf_log_frontend.o(i.log_backend_halt)
    log_backend_halt                         0x00031f31   Thumb Code     6  nrf_log_frontend.o(i.log_backend_halt)
    i.log_backend_status                     0x00031f3c   Section        0  nrf_log_frontend.o(i.log_backend_status)
    log_backend_status                       0x00031f3d   Thumb Code     6  nrf_log_frontend.o(i.log_backend_status)
    i.log_cmd                                0x00031f48   Section        0  nrf_log_frontend.o(i.log_cmd)
    log_cmd                                  0x00031f49   Thumb Code    54  nrf_log_frontend.o(i.log_cmd)
    i.log_cmd_backends_list                  0x00031fa4   Section        0  nrf_log_frontend.o(i.log_cmd_backends_list)
    log_cmd_backends_list                    0x00031fa5   Thumb Code   102  nrf_log_frontend.o(i.log_cmd_backends_list)
    i.log_config_load_cmd                    0x0003206c   Section        0  nrf_log_frontend.o(i.log_config_load_cmd)
    log_config_load_cmd                      0x0003206d   Thumb Code    50  nrf_log_frontend.o(i.log_config_load_cmd)
    i.log_config_store_cmd                   0x000320dc   Section        0  nrf_log_frontend.o(i.log_config_store_cmd)
    log_config_store_cmd                     0x000320dd   Thumb Code    50  nrf_log_frontend.o(i.log_config_store_cmd)
    i.log_ctrl                               0x00032150   Section        0  nrf_log_frontend.o(i.log_ctrl)
    log_ctrl                                 0x00032151   Thumb Code   304  nrf_log_frontend.o(i.log_ctrl)
    i.log_go                                 0x0003231c   Section        0  nrf_log_frontend.o(i.log_go)
    log_go                                   0x0003231d   Thumb Code     8  nrf_log_frontend.o(i.log_go)
    i.log_halt                               0x00032324   Section        0  nrf_log_frontend.o(i.log_halt)
    log_halt                                 0x00032325   Thumb Code     8  nrf_log_frontend.o(i.log_halt)
    i.log_self_ctrl                          0x0003232c   Section        0  nrf_log_frontend.o(i.log_self_ctrl)
    log_self_ctrl                            0x0003232d   Thumb Code    16  nrf_log_frontend.o(i.log_self_ctrl)
    i.log_self_go                            0x0003233c   Section        0  nrf_log_frontend.o(i.log_self_go)
    log_self_go                              0x0003233d   Thumb Code    10  nrf_log_frontend.o(i.log_self_go)
    i.log_self_halt                          0x00032346   Section        0  nrf_log_frontend.o(i.log_self_halt)
    log_self_halt                            0x00032347   Thumb Code    10  nrf_log_frontend.o(i.log_self_halt)
    i.log_self_status                        0x00032350   Section        0  nrf_log_frontend.o(i.log_self_status)
    log_self_status                          0x00032351   Thumb Code    16  nrf_log_frontend.o(i.log_self_status)
    i.log_skip                               0x00032360   Section        0  nrf_log_frontend.o(i.log_skip)
    log_skip                                 0x00032361   Thumb Code   150  nrf_log_frontend.o(i.log_skip)
    i.log_status                             0x00032404   Section        0  nrf_log_frontend.o(i.log_status)
    log_status                               0x00032405   Thumb Code   158  nrf_log_frontend.o(i.log_status)
    i.main                                   0x00032544   Section        0  main.o(i.main)
    i.make_argv                              0x000326a8   Section        0  nrf_cli.o(i.make_argv)
    make_argv                                0x000326a9   Thumb Code   346  nrf_cli.o(i.make_argv)
    i.manuf_specific_data_encode             0x00032802   Section        0  ble_advdata.o(i.manuf_specific_data_encode)
    manuf_specific_data_encode               0x00032803   Thumb Code   100  ble_advdata.o(i.manuf_specific_data_encode)
    i.mbedtls_aes_crypt_ecb                  0x00032866   Section        0  aes.o(i.mbedtls_aes_crypt_ecb)
    i.mbedtls_aes_free                       0x0003287e   Section        0  aes.o(i.mbedtls_aes_free)
    i.mbedtls_aes_init                       0x0003288c   Section        0  aes.o(i.mbedtls_aes_init)
    i.mbedtls_aes_setkey_enc                 0x00032894   Section        0  aes.o(i.mbedtls_aes_setkey_enc)
    i.mbedtls_ctr_drbg_free                  0x00032a30   Section        0  ctr_drbg.o(i.mbedtls_ctr_drbg_free)
    i.mbedtls_ctr_drbg_init                  0x00032a4e   Section        0  ctr_drbg.o(i.mbedtls_ctr_drbg_init)
    i.mbedtls_ctr_drbg_random                0x00032a56   Section        0  ctr_drbg.o(i.mbedtls_ctr_drbg_random)
    i.mbedtls_ctr_drbg_random_with_add       0x00032a62   Section        0  ctr_drbg.o(i.mbedtls_ctr_drbg_random_with_add)
    i.mbedtls_ctr_drbg_reseed                0x00032b40   Section        0  ctr_drbg.o(i.mbedtls_ctr_drbg_reseed)
    i.mbedtls_ctr_drbg_seed                  0x00032bc2   Section        0  ctr_drbg.o(i.mbedtls_ctr_drbg_seed)
    i.mbedtls_internal_aes_decrypt           0x00032c18   Section        0  aes.o(i.mbedtls_internal_aes_decrypt)
    i.mbedtls_internal_aes_encrypt           0x000330cc   Section        0  aes.o(i.mbedtls_internal_aes_encrypt)
    i.mbedtls_platform_zeroize               0x00033580   Section        0  platform_util.o(i.mbedtls_platform_zeroize)
    i.memobj_op                              0x00033594   Section        0  nrf_memobj.o(i.memobj_op)
    memobj_op                                0x00033595   Thumb Code   126  nrf_memobj.o(i.memobj_op)
    i.module_id_filter_set                   0x00033612   Section        0  nrf_log_frontend.o(i.module_id_filter_set)
    module_id_filter_set                     0x00033613   Thumb Code    38  nrf_log_frontend.o(i.module_id_filter_set)
    i.module_idx_get                         0x00033638   Section        0  nrf_log_frontend.o(i.module_idx_get)
    module_idx_get                           0x00033639   Thumb Code    42  nrf_log_frontend.o(i.module_idx_get)
    i.module_name_get                        0x00033668   Section        0  nrf_log_frontend.o(i.module_name_get)
    module_name_get                          0x00033669   Thumb Code    24  nrf_log_frontend.o(i.module_name_get)
    i.multiline_console_data_check           0x00033684   Section        0  nrf_cli.o(i.multiline_console_data_check)
    multiline_console_data_check             0x00033685   Thumb Code    80  nrf_cli.o(i.multiline_console_data_check)
    i.mutex_lock_status_get                  0x000336d4   Section        0  pm_buffer.o(i.mutex_lock_status_get)
    mutex_lock_status_get                    0x000336d5   Thumb Code     8  pm_buffer.o(i.mutex_lock_status_get)
    i.name_encode                            0x000336dc   Section        0  ble_advdata.o(i.name_encode)
    name_encode                              0x000336dd   Thumb Code   166  ble_advdata.o(i.name_encode)
    i.new_context_get                        0x00033784   Section        0  security_manager.o(i.new_context_get)
    new_context_get                          0x00033785   Thumb Code    14  security_manager.o(i.new_context_get)
    i.new_evt                                0x00033798   Section        0  security_manager.o(i.new_evt)
    new_evt                                  0x00033799   Thumb Code    50  security_manager.o(i.new_evt)
    i.next_id_get                            0x000337ca   Section        0  peer_id.o(i.next_id_get)
    i.nfcAddBytesToBuffer                    0x000337fa   Section        0  nfc_t2t_lib.o(i.nfcAddBytesToBuffer)
    nfcAddBytesToBuffer                      0x000337fb   Thumb Code    20  nfc_t2t_lib.o(i.nfcAddBytesToBuffer)
    i.nfcAddFixedValueToBuffer               0x0003380e   Section        0  nfc_t2t_lib.o(i.nfcAddFixedValueToBuffer)
    nfcAddFixedValueToBuffer                 0x0003380f   Thumb Code    22  nfc_t2t_lib.o(i.nfcAddFixedValueToBuffer)
    i.nfcCalculateAddresses                  0x00033824   Section        0  nfc_t2t_lib.o(i.nfcCalculateAddresses)
    nfcCalculateAddresses                    0x00033825   Thumb Code    48  nfc_t2t_lib.o(i.nfcCalculateAddresses)
    i.nfcChangeState                         0x00033858   Section        0  nfc_t2t_lib.o(i.nfcChangeState)
    nfcChangeState                           0x00033859   Thumb Code    54  nfc_t2t_lib.o(i.nfcChangeState)
    i.nfcHandleT2ReadCommand                 0x00033898   Section        0  nfc_t2t_lib.o(i.nfcHandleT2ReadCommand)
    nfcHandleT2ReadCommand                   0x00033899   Thumb Code    76  nfc_t2t_lib.o(i.nfcHandleT2ReadCommand)
    i.nfcPrepareInternalBytes                0x000338e8   Section        0  nfc_t2t_lib.o(i.nfcPrepareInternalBytes)
    nfcPrepareInternalBytes                  0x000338e9   Thumb Code    16  nfc_t2t_lib.o(i.nfcPrepareInternalBytes)
    i.nfcPrepareTxBuffer                     0x000338fc   Section        0  nfc_t2t_lib.o(i.nfcPrepareTxBuffer)
    nfcPrepareTxBuffer                       0x000338fd   Thumb Code   210  nfc_t2t_lib.o(i.nfcPrepareTxBuffer)
    i.nfcRegisterPayload                     0x000339d4   Section        0  nfc_t2t_lib.o(i.nfcRegisterPayload)
    nfcRegisterPayload                       0x000339d5   Thumb Code    40  nfc_t2t_lib.o(i.nfcRegisterPayload)
    i.nfcResetReadState                      0x00033a00   Section        0  nfc_t2t_lib.o(i.nfcResetReadState)
    nfcResetReadState                        0x00033a01   Thumb Code    66  nfc_t2t_lib.o(i.nfcResetReadState)
    i.nfcUpdateReadState                     0x00033a48   Section        0  nfc_t2t_lib.o(i.nfcUpdateReadState)
    nfcUpdateReadState                       0x00033a49   Thumb Code    88  nfc_t2t_lib.o(i.nfcUpdateReadState)
    i.nfc_ac_rec_payload_constructor         0x00033aa4   Section        0  nfc_ac_rec.o(i.nfc_ac_rec_payload_constructor)
    i.nfc_ble_full_handover_select_msg_encode 0x00033b3c   Section        0  nfc_ble_pair_msg.o(i.nfc_ble_full_handover_select_msg_encode)
    i.nfc_ble_oob_adv_data_encode            0x00033c90   Section        0  nfc_ble_oob_advdata.o(i.nfc_ble_oob_adv_data_encode)
    i.nfc_ble_pair_data_set                  0x00033de0   Section        0  nfc_pair_lib_m.o(i.nfc_ble_pair_data_set)
    i.nfc_ble_pair_default_msg_encode        0x00033e30   Section        0  nfc_ble_pair_msg.o(i.nfc_ble_pair_default_msg_encode)
    i.nfc_ble_pair_init                      0x00033e9c   Section        0  nfc_pair_lib_m.o(i.nfc_ble_pair_init)
    i.nfc_ble_pair_msg_updatable_tk_encode   0x00033ecc   Section        0  nfc_ble_pair_msg.o(i.nfc_ble_pair_msg_updatable_tk_encode)
    i.nfc_ble_pair_on_pm_params_req          0x00033f04   Section        0  nfc_pair_lib_m.o(i.nfc_ble_pair_on_pm_params_req)
    i.nfc_ble_pair_start                     0x00033f80   Section        0  nfc_m.o(i.nfc_ble_pair_start)
    i.nfc_ble_pair_stop                      0x00033f84   Section        0  nfc_m.o(i.nfc_ble_pair_stop)
    i.nfc_ble_simplified_ep_oob_msg_encode   0x00033f88   Section        0  nfc_ble_pair_msg.o(i.nfc_ble_simplified_ep_oob_msg_encode)
    i.nfc_ble_simplified_le_oob_msg_encode   0x00033ff4   Section        0  nfc_ble_pair_msg.o(i.nfc_ble_simplified_le_oob_msg_encode)
    i.nfc_callback                           0x00034060   Section        0  nfc_pair_lib_m.o(i.nfc_callback)
    nfc_callback                             0x00034061   Thumb Code    70  nfc_pair_lib_m.o(i.nfc_callback)
    i.nfc_central_connect                    0x000340b0   Section        0  ble_m.o(i.nfc_central_connect)
    nfc_central_connect                      0x000340b1   Thumb Code   102  ble_m.o(i.nfc_central_connect)
    i.nfc_ep_oob_payload_constructor         0x00034120   Section        0  nfc_ep_oob_rec.o(i.nfc_ep_oob_payload_constructor)
    i.nfc_hs_rec_local_record_add            0x000341c4   Section        0  nfc_hs_rec.o(i.nfc_hs_rec_local_record_add)
    i.nfc_hs_rec_payload_constructor         0x000341cc   Section        0  nfc_hs_rec.o(i.nfc_hs_rec_payload_constructor)
    i.nfc_le_oob_payload_constructor         0x00034206   Section        0  nfc_le_oob_rec.o(i.nfc_le_oob_payload_constructor)
    i.nfc_lesc_data_update                   0x00034250   Section        0  nfc_ble_pair_msg.o(i.nfc_lesc_data_update)
    i.nfc_lesc_pos_set                       0x00034284   Section        0  nfc_ble_pair_msg.o(i.nfc_lesc_pos_set)
    i.nfc_ndef_msg_encode                    0x0003429c   Section        0  nfc_ndef_msg.o(i.nfc_ndef_msg_encode)
    i.nfc_ndef_msg_record_add                0x0003430e   Section        0  nfc_ndef_msg.o(i.nfc_ndef_msg_record_add)
    i.nfc_ndef_record_encode                 0x0003432a   Section        0  nfc_ndef_record.o(i.nfc_ndef_record_encode)
    i.nfc_oob_pairing_tag_match              0x000343d8   Section        0  nfc_central_m.o(i.nfc_oob_pairing_tag_match)
    i.nfc_pairing_init                       0x000343fc   Section        0  nfc_m.o(i.nfc_pairing_init)
    i.nfc_platform_event_handler             0x00034410   Section        0  nfc_platform.o(i.nfc_platform_event_handler)
    i.nfc_platform_setup                     0x0003442c   Section        0  nfc_platform.o(i.nfc_platform_setup)
    i.nfc_t2t_emulation_start                0x00034454   Section        0  nfc_t2t_lib.o(i.nfc_t2t_emulation_start)
    i.nfc_t2t_emulation_stop                 0x0003446a   Section        0  nfc_t2t_lib.o(i.nfc_t2t_emulation_stop)
    i.nfc_t2t_internal_set                   0x00034480   Section        0  nfc_t2t_lib.o(i.nfc_t2t_internal_set)
    i.nfc_t2t_lib_al_internal_bytes_setup    0x0003449c   Section        0  nfc_t2t_lib_al.o(i.nfc_t2t_lib_al_internal_bytes_setup)
    nfc_t2t_lib_al_internal_bytes_setup      0x0003449d   Thumb Code   140  nfc_t2t_lib_al.o(i.nfc_t2t_lib_al_internal_bytes_setup)
    i.nfc_t2t_lib_al_send                    0x00034530   Section        0  nfc_t2t_lib_al.o(i.nfc_t2t_lib_al_send)
    i.nfc_t2t_lib_al_setup                   0x00034540   Section        0  nfc_t2t_lib_al.o(i.nfc_t2t_lib_al_setup)
    i.nfc_t2t_lib_al_start                   0x00034588   Section        0  nfc_t2t_lib_al.o(i.nfc_t2t_lib_al_start)
    i.nfc_t2t_lib_al_stop                    0x0003458c   Section        0  nfc_t2t_lib_al.o(i.nfc_t2t_lib_al_stop)
    i.nfc_t2t_payload_set                    0x00034590   Section        0  nfc_t2t_lib.o(i.nfc_t2t_payload_set)
    i.nfc_t2t_setup                          0x000345d0   Section        0  nfc_t2t_lib.o(i.nfc_t2t_setup)
    i.nfc_tk_group_modifier_config           0x00034624   Section        0  nfc_ble_pair_msg.o(i.nfc_tk_group_modifier_config)
    nfc_tk_group_modifier_config             0x00034625   Thumb Code    12  nfc_ble_pair_msg.o(i.nfc_tk_group_modifier_config)
    i.nfc_tk_group_modifier_update           0x00034634   Section        0  nfc_ble_pair_msg.o(i.nfc_tk_group_modifier_update)
    i.nfc_tk_to_group_add                    0x00034664   Section        0  nfc_ble_pair_msg.o(i.nfc_tk_to_group_add)
    i.nfc_tk_value_get                       0x00034688   Section        0  nfc_central_m.o(i.nfc_tk_value_get)
    i.nfc_tk_value_payload_encode            0x000346a4   Section        0  nfc_ble_oob_advdata.o(i.nfc_tk_value_payload_encode)
    i.nrf_atfifo_clear                       0x000346b6   Section        0  nrf_atfifo.o(i.nrf_atfifo_clear)
    i.nrf_atfifo_init                        0x000346c6   Section        0  nrf_atfifo.o(i.nrf_atfifo_init)
    i.nrf_atfifo_item_alloc                  0x000346ec   Section        0  nrf_atfifo.o(i.nrf_atfifo_item_alloc)
    i.nrf_atfifo_item_free                   0x00034702   Section        0  nrf_atfifo.o(i.nrf_atfifo_item_free)
    i.nrf_atfifo_item_get                    0x00034718   Section        0  nrf_atfifo.o(i.nrf_atfifo_item_get)
    i.nrf_atfifo_item_put                    0x0003472e   Section        0  nrf_atfifo.o(i.nrf_atfifo_item_put)
    i.nrf_atflags_clear                      0x00034744   Section        0  nrf_atflags.o(i.nrf_atflags_clear)
    i.nrf_atflags_fetch_set                  0x0003475a   Section        0  nrf_atflags.o(i.nrf_atflags_fetch_set)
    i.nrf_atflags_find_and_set_flag          0x0003477a   Section        0  nrf_atflags.o(i.nrf_atflags_find_and_set_flag)
    i.nrf_atflags_get                        0x000347c4   Section        0  nrf_atflags.o(i.nrf_atflags_get)
    i.nrf_atflags_set                        0x000347da   Section        0  nrf_atflags.o(i.nrf_atflags_set)
    i.nrf_atomic_flag_clear                  0x000347ee   Section        0  nrf_atomic.o(i.nrf_atomic_flag_clear)
    i.nrf_atomic_flag_clear_fetch            0x000347f4   Section        0  nrf_atomic.o(i.nrf_atomic_flag_clear_fetch)
    i.nrf_atomic_flag_set                    0x000347fa   Section        0  nrf_atomic.o(i.nrf_atomic_flag_set)
    i.nrf_atomic_flag_set_fetch              0x00034800   Section        0  nrf_atomic.o(i.nrf_atomic_flag_set_fetch)
    i.nrf_atomic_u32_add                     0x00034806   Section        0  nrf_atomic.o(i.nrf_atomic_u32_add)
    i.nrf_atomic_u32_and                     0x00034812   Section        0  nrf_atomic.o(i.nrf_atomic_u32_and)
    i.nrf_atomic_u32_fetch_add               0x0003481e   Section        0  nrf_atomic.o(i.nrf_atomic_u32_fetch_add)
    i.nrf_atomic_u32_fetch_and               0x00034828   Section        0  nrf_atomic.o(i.nrf_atomic_u32_fetch_and)
    i.nrf_atomic_u32_fetch_or                0x00034832   Section        0  nrf_atomic.o(i.nrf_atomic_u32_fetch_or)
    i.nrf_atomic_u32_fetch_store             0x0003483c   Section        0  nrf_atomic.o(i.nrf_atomic_u32_fetch_store)
    i.nrf_atomic_u32_or                      0x00034846   Section        0  nrf_atomic.o(i.nrf_atomic_u32_or)
    i.nrf_atomic_u32_sub                     0x00034852   Section        0  nrf_atomic.o(i.nrf_atomic_u32_sub)
    i.nrf_balloc_alloc                       0x0003485e   Section        0  nrf_balloc.o(i.nrf_balloc_alloc)
    i.nrf_balloc_free                        0x000348a2   Section        0  nrf_balloc.o(i.nrf_balloc_free)
    i.nrf_balloc_init                        0x000348d2   Section        0  nrf_balloc.o(i.nrf_balloc_init)
    i.nrf_balloc_status                      0x00034904   Section        0  nrf_balloc.o(i.nrf_balloc_status)
    nrf_balloc_status                        0x00034905   Thumb Code   168  nrf_balloc.o(i.nrf_balloc_status)
    i.nrf_bitmask_bit_is_set                 0x000349cc   Section        0  nrfx_gpiote.o(i.nrf_bitmask_bit_is_set)
    nrf_bitmask_bit_is_set                   0x000349cd   Thumb Code    16  nrfx_gpiote.o(i.nrf_bitmask_bit_is_set)
    i.nrf_ble_gatt_att_mtu_central_set       0x000349dc   Section        0  nrf_ble_gatt.o(i.nrf_ble_gatt_att_mtu_central_set)
    i.nrf_ble_gatt_att_mtu_periph_set        0x000349f4   Section        0  nrf_ble_gatt.o(i.nrf_ble_gatt_att_mtu_periph_set)
    i.nrf_ble_gatt_data_length_set           0x00034a0c   Section        0  nrf_ble_gatt.o(i.nrf_ble_gatt_data_length_set)
    i.nrf_ble_gatt_eff_mtu_get               0x00034a40   Section        0  nrf_ble_gatt.o(i.nrf_ble_gatt_eff_mtu_get)
    i.nrf_ble_gatt_init                      0x00034a52   Section        0  nrf_ble_gatt.o(i.nrf_ble_gatt_init)
    i.nrf_ble_gatt_on_ble_evt                0x00034a80   Section        0  nrf_ble_gatt.o(i.nrf_ble_gatt_on_ble_evt)
    i.nrf_ble_lesc_init                      0x00034bfc   Section        0  nrf_ble_lesc.o(i.nrf_ble_lesc_init)
    i.nrf_ble_lesc_keypair_generate          0x00034c7c   Section        0  nrf_ble_lesc.o(i.nrf_ble_lesc_keypair_generate)
    i.nrf_ble_lesc_on_ble_evt                0x00034df8   Section        0  nrf_ble_lesc.o(i.nrf_ble_lesc_on_ble_evt)
    i.nrf_ble_lesc_public_key_get            0x00034ecc   Section        0  nrf_ble_lesc.o(i.nrf_ble_lesc_public_key_get)
    i.nrf_ble_lesc_request_handler           0x00034f10   Section        0  nrf_ble_lesc.o(i.nrf_ble_lesc_request_handler)
    i.nrf_ble_scan_default_conn_param_set    0x00034f60   Section        0  nrf_ble_scan.o(i.nrf_ble_scan_default_conn_param_set)
    nrf_ble_scan_default_conn_param_set      0x00034f61   Thumb Code    22  nrf_ble_scan.o(i.nrf_ble_scan_default_conn_param_set)
    i.nrf_ble_scan_default_param_set         0x00034f76   Section        0  nrf_ble_scan.o(i.nrf_ble_scan_default_param_set)
    nrf_ble_scan_default_param_set           0x00034f77   Thumb Code    30  nrf_ble_scan.o(i.nrf_ble_scan_default_param_set)
    i.nrf_ble_scan_init                      0x00034f94   Section        0  nrf_ble_scan.o(i.nrf_ble_scan_init)
    i.nrf_ble_scan_on_adv_report             0x00034ffa   Section        0  nrf_ble_scan.o(i.nrf_ble_scan_on_adv_report)
    nrf_ble_scan_on_adv_report               0x00034ffb   Thumb Code   126  nrf_ble_scan.o(i.nrf_ble_scan_on_adv_report)
    i.nrf_ble_scan_on_ble_evt                0x00035078   Section        0  nrf_ble_scan.o(i.nrf_ble_scan_on_ble_evt)
    i.nrf_ble_scan_start                     0x000350f8   Section        0  nrf_ble_scan.o(i.nrf_ble_scan_start)
    i.nrf_ble_scan_stop                      0x0003518c   Section        0  nrf_ble_scan.o(i.nrf_ble_scan_stop)
    i.nrf_cli_backend_cmd_execute            0x00035190   Section        0  nrf_log_frontend.o(i.nrf_cli_backend_cmd_execute)
    nrf_cli_backend_cmd_execute              0x00035191   Thumb Code    92  nrf_log_frontend.o(i.nrf_cli_backend_cmd_execute)
    i.nrf_cli_build_in_cmd_common_executed   0x0003520c   Section        0  nrf_cli.o(i.nrf_cli_build_in_cmd_common_executed)
    nrf_cli_build_in_cmd_common_executed     0x0003520d   Thumb Code    46  nrf_cli.o(i.nrf_cli_build_in_cmd_common_executed)
    i.nrf_cli_cmd_clear                      0x00035258   Section        0  nrf_cli.o(i.nrf_cli_cmd_clear)
    nrf_cli_cmd_clear                        0x00035259   Thumb Code    60  nrf_cli.o(i.nrf_cli_cmd_clear)
    i.nrf_cli_cmd_cli                        0x0003529c   Section        0  nrf_cli.o(i.nrf_cli_cmd_cli)
    nrf_cli_cmd_cli                          0x0003529d   Thumb Code    36  nrf_cli.o(i.nrf_cli_cmd_cli)
    i.nrf_cli_cmd_cli_stats                  0x000352e0   Section        0  nrf_cli.o(i.nrf_cli_cmd_cli_stats)
    i.nrf_cli_cmd_cli_stats_reset            0x0003534c   Section        0  nrf_cli.o(i.nrf_cli_cmd_cli_stats_reset)
    i.nrf_cli_cmd_cli_stats_show             0x0003537c   Section        0  nrf_cli.o(i.nrf_cli_cmd_cli_stats_show)
    i.nrf_cli_cmd_colors                     0x00035404   Section        0  nrf_cli.o(i.nrf_cli_cmd_colors)
    nrf_cli_cmd_colors                       0x00035405   Thumb Code    68  nrf_cli.o(i.nrf_cli_cmd_colors)
    i.nrf_cli_cmd_colors_off                 0x0003546c   Section        0  nrf_cli.o(i.nrf_cli_cmd_colors_off)
    nrf_cli_cmd_colors_off                   0x0003546d   Thumb Code    42  nrf_cli.o(i.nrf_cli_cmd_colors_off)
    i.nrf_cli_cmd_colors_on                  0x00035496   Section        0  nrf_cli.o(i.nrf_cli_cmd_colors_on)
    nrf_cli_cmd_colors_on                    0x00035497   Thumb Code    42  nrf_cli.o(i.nrf_cli_cmd_colors_on)
    i.nrf_cli_cmd_echo                       0x000354c0   Section        0  nrf_cli.o(i.nrf_cli_cmd_echo)
    nrf_cli_cmd_echo                         0x000354c1   Thumb Code    86  nrf_cli.o(i.nrf_cli_cmd_echo)
    i.nrf_cli_cmd_echo_off                   0x00035558   Section        0  nrf_cli.o(i.nrf_cli_cmd_echo_off)
    nrf_cli_cmd_echo_off                     0x00035559   Thumb Code    42  nrf_cli.o(i.nrf_cli_cmd_echo_off)
    i.nrf_cli_cmd_echo_on                    0x00035582   Section        0  nrf_cli.o(i.nrf_cli_cmd_echo_on)
    nrf_cli_cmd_echo_on                      0x00035583   Thumb Code    42  nrf_cli.o(i.nrf_cli_cmd_echo_on)
    i.nrf_cli_cmd_history                    0x000355ac   Section        0  nrf_cli.o(i.nrf_cli_cmd_history)
    nrf_cli_cmd_history                      0x000355ad   Thumb Code   108  nrf_cli.o(i.nrf_cli_cmd_history)
    i.nrf_cli_cmd_resize                     0x00035624   Section        0  nrf_cli.o(i.nrf_cli_cmd_resize)
    nrf_cli_cmd_resize                       0x00035625   Thumb Code    98  nrf_cli.o(i.nrf_cli_cmd_resize)
    i.nrf_cli_cmd_resize_default             0x000356e8   Section        0  nrf_cli.o(i.nrf_cli_cmd_resize_default)
    nrf_cli_cmd_resize_default               0x000356e9   Thumb Code    50  nrf_cli.o(i.nrf_cli_cmd_resize_default)
    i.nrf_cli_fprintf                        0x00035724   Section        0  nrf_cli.o(i.nrf_cli_fprintf)
    i.nrf_cli_help_print                     0x00035774   Section        0  nrf_cli.o(i.nrf_cli_help_print)
    i.nrf_cli_help_requested                 0x000359f0   Section        0  cli_m.o(i.nrf_cli_help_requested)
    nrf_cli_help_requested                   0x000359f1   Thumb Code    12  cli_m.o(i.nrf_cli_help_requested)
    i.nrf_cli_help_requested                 0x000359fc   Section        0  nrf_log_frontend.o(i.nrf_cli_help_requested)
    nrf_cli_help_requested                   0x000359fd   Thumb Code    12  nrf_log_frontend.o(i.nrf_cli_help_requested)
    i.nrf_cli_init                           0x00035a08   Section        0  nrf_cli.o(i.nrf_cli_init)
    i.nrf_cli_instance_init                  0x00035a3c   Section        0  nrf_cli.o(i.nrf_cli_instance_init)
    nrf_cli_instance_init                    0x00035a3d   Thumb Code   170  nrf_cli.o(i.nrf_cli_instance_init)
    i.nrf_cli_print_stream                   0x00035afc   Section        0  nrf_cli.o(i.nrf_cli_print_stream)
    i.nrf_cli_process                        0x00035b04   Section        0  nrf_cli.o(i.nrf_cli_process)
    i.nrf_cli_start                          0x00035b78   Section        0  nrf_cli.o(i.nrf_cli_start)
    i.nrf_clock_event_check                  0x00035bc0   Section        0  nrfx_clock.o(i.nrf_clock_event_check)
    nrf_clock_event_check                    0x00035bc1   Thumb Code    14  nrfx_clock.o(i.nrf_clock_event_check)
    i.nrf_clock_event_clear                  0x00035bce   Section        0  nrfx_clock.o(i.nrf_clock_event_clear)
    nrf_clock_event_clear                    0x00035bcf   Thumb Code    16  nrfx_clock.o(i.nrf_clock_event_clear)
    i.nrf_crypto_backend_curve25519_ecdh_compute 0x00035bde   Section        0  oberon_backend_ecdh.o(i.nrf_crypto_backend_curve25519_ecdh_compute)
    i.nrf_crypto_backend_curve25519_key_pair_generate 0x00035bee   Section        0  oberon_backend_ecc.o(i.nrf_crypto_backend_curve25519_key_pair_generate)
    i.nrf_crypto_backend_curve25519_public_key_calculate 0x00035c28   Section        0  oberon_backend_ecc.o(i.nrf_crypto_backend_curve25519_public_key_calculate)
    i.nrf_crypto_backend_ed25519_key_pair_generate 0x00035c38   Section        0  oberon_backend_ecc.o(i.nrf_crypto_backend_ed25519_key_pair_generate)
    i.nrf_crypto_backend_ed25519_private_key_from_raw 0x00035c6a   Section        0  oberon_backend_ecc.o(i.nrf_crypto_backend_ed25519_private_key_from_raw)
    i.nrf_crypto_backend_ed25519_public_key_calculate 0x00035c86   Section        0  oberon_backend_ecc.o(i.nrf_crypto_backend_ed25519_public_key_calculate)
    i.nrf_crypto_backend_oberon_ecc_secp256r1_rng 0x00035c98   Section        0  oberon_backend_ecc.o(i.nrf_crypto_backend_oberon_ecc_secp256r1_rng)
    i.nrf_crypto_backend_oberon_private_key_from_raw 0x00035ca8   Section        0  oberon_backend_ecc.o(i.nrf_crypto_backend_oberon_private_key_from_raw)
    i.nrf_crypto_backend_oberon_private_key_to_raw 0x00035cb8   Section        0  oberon_backend_ecc.o(i.nrf_crypto_backend_oberon_private_key_to_raw)
    i.nrf_crypto_backend_oberon_public_key_from_raw 0x00035cce   Section        0  oberon_backend_ecc.o(i.nrf_crypto_backend_oberon_public_key_from_raw)
    i.nrf_crypto_backend_oberon_public_key_to_raw 0x00035cde   Section        0  oberon_backend_ecc.o(i.nrf_crypto_backend_oberon_public_key_to_raw)
    i.nrf_crypto_backend_secp256r1_ecdh_compute 0x00035cf4   Section        0  oberon_backend_ecdh.o(i.nrf_crypto_backend_secp256r1_ecdh_compute)
    i.nrf_crypto_backend_secp256r1_key_pair_generate 0x00035d0a   Section        0  oberon_backend_ecc.o(i.nrf_crypto_backend_secp256r1_key_pair_generate)
    i.nrf_crypto_backend_secp256r1_public_key_calculate 0x00035d30   Section        0  oberon_backend_ecc.o(i.nrf_crypto_backend_secp256r1_public_key_calculate)
    i.nrf_crypto_ecc_byte_order_invert       0x00035d48   Section        0  nrf_crypto_ecc.o(i.nrf_crypto_ecc_byte_order_invert)
    i.nrf_crypto_ecc_key_pair_generate       0x00035d9c   Section        0  nrf_crypto_ecc.o(i.nrf_crypto_ecc_key_pair_generate)
    i.nrf_crypto_ecc_public_key_from_raw     0x00035e24   Section        0  nrf_crypto_ecc.o(i.nrf_crypto_ecc_public_key_from_raw)
    i.nrf_crypto_ecc_public_key_to_raw       0x00035e6c   Section        0  nrf_crypto_ecc.o(i.nrf_crypto_ecc_public_key_to_raw)
    i.nrf_crypto_ecdh_compute                0x00035eb0   Section        0  nrf_crypto_ecdh.o(i.nrf_crypto_ecdh_compute)
    i.nrf_crypto_init                        0x00035f50   Section        0  nrf_crypto_init.o(i.nrf_crypto_init)
    i.nrf_crypto_internal_ecc_key_input_check 0x00035f90   Section        0  nrf_crypto_ecc.o(i.nrf_crypto_internal_ecc_key_input_check)
    i.nrf_crypto_internal_ecc_key_output_prepare 0x00035fa8   Section        0  nrf_crypto_ecc.o(i.nrf_crypto_internal_ecc_key_output_prepare)
    i.nrf_crypto_internal_ecc_raw_input_check 0x00035fc2   Section        0  nrf_crypto_ecc.o(i.nrf_crypto_internal_ecc_raw_input_check)
    i.nrf_crypto_internal_ecc_raw_output_prepare 0x00035fd8   Section        0  nrf_crypto_ecc.o(i.nrf_crypto_internal_ecc_raw_output_prepare)
    i.nrf_crypto_is_initializing             0x00035ff4   Section        0  nrf_crypto_init.o(i.nrf_crypto_is_initializing)
    i.nrf_crypto_rng_backend_init            0x00036010   Section        0  nrf_hw_backend_rng_mbedtls.o(i.nrf_crypto_rng_backend_init)
    i.nrf_crypto_rng_backend_reseed          0x00036044   Section        0  nrf_hw_backend_rng_mbedtls.o(i.nrf_crypto_rng_backend_reseed)
    i.nrf_crypto_rng_backend_uninit          0x00036058   Section        0  nrf_hw_backend_rng_mbedtls.o(i.nrf_crypto_rng_backend_uninit)
    i.nrf_crypto_rng_backend_vector_generate 0x00036068   Section        0  nrf_hw_backend_rng_mbedtls.o(i.nrf_crypto_rng_backend_vector_generate)
    i.nrf_crypto_rng_init                    0x00036078   Section        0  nrf_crypto_rng.o(i.nrf_crypto_rng_init)
    i.nrf_crypto_rng_reseed                  0x00036138   Section        0  nrf_crypto_rng.o(i.nrf_crypto_rng_reseed)
    i.nrf_crypto_rng_uninit                  0x000361d8   Section        0  nrf_crypto_rng.o(i.nrf_crypto_rng_uninit)
    i.nrf_crypto_rng_vector_generate         0x00036210   Section        0  nrf_crypto_rng.o(i.nrf_crypto_rng_vector_generate)
    i.nrf_crypto_rng_vector_generate_in_range 0x00036216   Section        0  nrf_crypto_rng.o(i.nrf_crypto_rng_vector_generate_in_range)
    i.nrf_drv_clock_hfclk_release            0x00036224   Section        0  nrf_drv_clock.o(i.nrf_drv_clock_hfclk_release)
    i.nrf_drv_clock_hfclk_request            0x0003625c   Section        0  nrf_drv_clock.o(i.nrf_drv_clock_hfclk_request)
    i.nrf_drv_clock_init                     0x000362b8   Section        0  nrf_drv_clock.o(i.nrf_drv_clock_init)
    i.nrf_drv_clock_lfclk_release            0x000362f8   Section        0  nrf_drv_clock.o(i.nrf_drv_clock_lfclk_release)
    i.nrf_drv_rng_block_rand                 0x0003632c   Section        0  nrf_drv_rng.o(i.nrf_drv_rng_block_rand)
    i.nrf_drv_rng_bytes_available            0x00036354   Section        0  nrf_drv_rng.o(i.nrf_drv_rng_bytes_available)
    i.nrf_drv_rng_init                       0x00036374   Section        0  nrf_drv_rng.o(i.nrf_drv_rng_init)
    i.nrf_drv_rng_rand                       0x000363cc   Section        0  nrf_drv_rng.o(i.nrf_drv_rng_rand)
    i.nrf_drv_rng_uninit                     0x0003642c   Section        0  nrf_drv_rng.o(i.nrf_drv_rng_uninit)
    i.nrf_drv_uart_init                      0x00036464   Section        0  nrf_drv_uart.o(i.nrf_drv_uart_init)
    i.nrf_drv_uart_tx                        0x000364cc   Section        0  nrf_cli_uart.o(i.nrf_drv_uart_tx)
    nrf_drv_uart_tx                          0x000364cd   Thumb Code    26  nrf_cli_uart.o(i.nrf_drv_uart_tx)
    i.nrf_drv_uart_uninit                    0x000364ec   Section        0  nrf_cli_uart.o(i.nrf_drv_uart_uninit)
    nrf_drv_uart_uninit                      0x000364ed   Thumb Code    20  nrf_cli_uart.o(i.nrf_drv_uart_uninit)
    i.nrf_fprintf                            0x00036504   Section        0  nrf_fprintf.o(i.nrf_fprintf)
    i.nrf_fprintf_buffer_flush               0x0003651e   Section        0  nrf_fprintf.o(i.nrf_fprintf_buffer_flush)
    i.nrf_fprintf_fmt                        0x00036536   Section        0  nrf_fprintf_format.o(i.nrf_fprintf_fmt)
    i.nrf_fstorage_erase                     0x00036710   Section        0  nrf_fstorage.o(i.nrf_fstorage_erase)
    i.nrf_fstorage_init                      0x00036860   Section        0  nrf_fstorage.o(i.nrf_fstorage_init)
    i.nrf_fstorage_sdh_req_handler           0x00036900   Section        0  nrf_fstorage_sd.o(i.nrf_fstorage_sdh_req_handler)
    i.nrf_fstorage_sdh_state_handler         0x00036918   Section        0  nrf_fstorage_sd.o(i.nrf_fstorage_sdh_state_handler)
    i.nrf_fstorage_sys_evt_handler           0x00036938   Section        0  nrf_fstorage_sd.o(i.nrf_fstorage_sys_evt_handler)
    i.nrf_fstorage_write                     0x000369dc   Section        0  nrf_fstorage.o(i.nrf_fstorage_write)
    i.nrf_gpio_cfg                           0x00036bdc   Section        0  boards.o(i.nrf_gpio_cfg)
    nrf_gpio_cfg                             0x00036bdd   Thumb Code    36  boards.o(i.nrf_gpio_cfg)
    i.nrf_gpio_cfg                           0x00036c00   Section        0  nrfx_gpiote.o(i.nrf_gpio_cfg)
    nrf_gpio_cfg                             0x00036c01   Thumb Code    36  nrfx_gpiote.o(i.nrf_gpio_cfg)
    i.nrf_gpio_cfg                           0x00036c24   Section        0  nrfx_uart.o(i.nrf_gpio_cfg)
    nrf_gpio_cfg                             0x00036c25   Thumb Code    36  nrfx_uart.o(i.nrf_gpio_cfg)
    i.nrf_gpio_cfg                           0x00036c48   Section        0  nrfx_uarte.o(i.nrf_gpio_cfg)
    nrf_gpio_cfg                             0x00036c49   Thumb Code    36  nrfx_uarte.o(i.nrf_gpio_cfg)
    i.nrf_gpio_cfg_default                   0x00036c6c   Section        0  nrfx_uart.o(i.nrf_gpio_cfg_default)
    nrf_gpio_cfg_default                     0x00036c6d   Thumb Code    18  nrfx_uart.o(i.nrf_gpio_cfg_default)
    i.nrf_gpio_cfg_default                   0x00036c7e   Section        0  nrfx_uarte.o(i.nrf_gpio_cfg_default)
    nrf_gpio_cfg_default                     0x00036c7f   Thumb Code    18  nrfx_uarte.o(i.nrf_gpio_cfg_default)
    i.nrf_gpio_cfg_input                     0x00036c90   Section        0  nrfx_uart.o(i.nrf_gpio_cfg_input)
    nrf_gpio_cfg_input                       0x00036c91   Thumb Code    18  nrfx_uart.o(i.nrf_gpio_cfg_input)
    i.nrf_gpio_cfg_input                     0x00036ca2   Section        0  nrfx_uarte.o(i.nrf_gpio_cfg_input)
    nrf_gpio_cfg_input                       0x00036ca3   Thumb Code    18  nrfx_uarte.o(i.nrf_gpio_cfg_input)
    i.nrf_gpio_cfg_output                    0x00036cb4   Section        0  nrfx_uart.o(i.nrf_gpio_cfg_output)
    nrf_gpio_cfg_output                      0x00036cb5   Thumb Code    20  nrfx_uart.o(i.nrf_gpio_cfg_output)
    i.nrf_gpio_cfg_output                    0x00036cc8   Section        0  nrfx_uarte.o(i.nrf_gpio_cfg_output)
    nrf_gpio_cfg_output                      0x00036cc9   Thumb Code    20  nrfx_uarte.o(i.nrf_gpio_cfg_output)
    i.nrf_gpio_cfg_sense_set                 0x00036cdc   Section        0  nrfx_gpiote.o(i.nrf_gpio_cfg_sense_set)
    nrf_gpio_cfg_sense_set                   0x00036cdd   Thumb Code    34  nrfx_gpiote.o(i.nrf_gpio_cfg_sense_set)
    i.nrf_gpio_latches_read_and_clear        0x00036d00   Section        0  nrfx_gpiote.o(i.nrf_gpio_latches_read_and_clear)
    nrf_gpio_latches_read_and_clear          0x00036d01   Thumb Code    38  nrfx_gpiote.o(i.nrf_gpio_latches_read_and_clear)
    i.nrf_gpio_pin_present_check             0x00036d2c   Section        0  nrfx_gpiote.o(i.nrf_gpio_pin_present_check)
    nrf_gpio_pin_present_check               0x00036d2d   Thumb Code    30  nrfx_gpiote.o(i.nrf_gpio_pin_present_check)
    i.nrf_gpio_pin_write                     0x00036d4a   Section        0  boards.o(i.nrf_gpio_pin_write)
    nrf_gpio_pin_write                       0x00036d4b   Thumb Code    22  boards.o(i.nrf_gpio_pin_write)
    i.nrf_gpiote_event_clear                 0x00036d60   Section        0  nrfx_gpiote.o(i.nrf_gpiote_event_clear)
    nrf_gpiote_event_clear                   0x00036d61   Thumb Code    16  nrfx_gpiote.o(i.nrf_gpiote_event_clear)
    i.nrf_gpiote_event_is_set                0x00036d74   Section        0  nrfx_gpiote.o(i.nrf_gpiote_event_is_set)
    nrf_gpiote_event_is_set                  0x00036d75   Thumb Code    12  nrfx_gpiote.o(i.nrf_gpiote_event_is_set)
    i.nrf_hw_backend_init                    0x00036d84   Section        0  nrf_hw_backend_init.o(i.nrf_hw_backend_init)
    nrf_hw_backend_init                      0x00036d85   Thumb Code     8  nrf_hw_backend_init.o(i.nrf_hw_backend_init)
    i.nrf_hw_backend_uninit                  0x00036d8c   Section        0  nrf_hw_backend_init.o(i.nrf_hw_backend_uninit)
    nrf_hw_backend_uninit                    0x00036d8d   Thumb Code     4  nrf_hw_backend_init.o(i.nrf_hw_backend_uninit)
    i.nrf_log_backend_add                    0x00036d90   Section        0  nrf_log_frontend.o(i.nrf_log_backend_add)
    i.nrf_log_backend_cli_flush              0x00036e20   Section        0  nrf_cli.o(i.nrf_log_backend_cli_flush)
    nrf_log_backend_cli_flush                0x00036e21   Thumb Code    10  nrf_cli.o(i.nrf_log_backend_cli_flush)
    i.nrf_log_backend_cli_panic_set          0x00036e2a   Section        0  nrf_cli.o(i.nrf_log_backend_cli_panic_set)
    nrf_log_backend_cli_panic_set            0x00036e2b   Thumb Code    30  nrf_cli.o(i.nrf_log_backend_cli_panic_set)
    i.nrf_log_backend_cli_put                0x00036e48   Section        0  nrf_cli.o(i.nrf_log_backend_cli_put)
    nrf_log_backend_cli_put                  0x00036e49   Thumb Code    82  nrf_cli.o(i.nrf_log_backend_cli_put)
    i.nrf_log_backend_serial_put             0x00036e9a   Section        0  nrf_log_backend_serial.o(i.nrf_log_backend_serial_put)
    i.nrf_log_backend_uart_flush             0x00036f62   Section        0  nrf_log_backend_uart.o(i.nrf_log_backend_uart_flush)
    nrf_log_backend_uart_flush               0x00036f63   Thumb Code     2  nrf_log_backend_uart.o(i.nrf_log_backend_uart_flush)
    i.nrf_log_backend_uart_panic_set         0x00036f64   Section        0  nrf_log_backend_uart.o(i.nrf_log_backend_uart_panic_set)
    nrf_log_backend_uart_panic_set           0x00036f65   Thumb Code    36  nrf_log_backend_uart.o(i.nrf_log_backend_uart_panic_set)
    i.nrf_log_backend_uart_put               0x00036f90   Section        0  nrf_log_backend_uart.o(i.nrf_log_backend_uart_put)
    nrf_log_backend_uart_put                 0x00036f91   Thumb Code    16  nrf_log_backend_uart.o(i.nrf_log_backend_uart_put)
    i.nrf_log_color_id_get                   0x00036fa8   Section        0  nrf_log_frontend.o(i.nrf_log_color_id_get)
    i.nrf_log_config_load                    0x00036fd8   Section        0  nrf_log_frontend.o(i.nrf_log_config_load)
    i.nrf_log_config_store                   0x0003708c   Section        0  nrf_log_frontend.o(i.nrf_log_config_store)
    i.nrf_log_frontend_dequeue               0x00037198   Section        0  nrf_log_frontend.o(i.nrf_log_frontend_dequeue)
    i.nrf_log_frontend_std_0                 0x00037414   Section        0  nrf_log_frontend.o(i.nrf_log_frontend_std_0)
    i.nrf_log_frontend_std_1                 0x0003741c   Section        0  nrf_log_frontend.o(i.nrf_log_frontend_std_1)
    i.nrf_log_frontend_std_2                 0x0003742a   Section        0  nrf_log_frontend.o(i.nrf_log_frontend_std_2)
    i.nrf_log_frontend_std_3                 0x0003743a   Section        0  nrf_log_frontend.o(i.nrf_log_frontend_std_3)
    i.nrf_log_frontend_std_4                 0x0003744c   Section        0  nrf_log_frontend.o(i.nrf_log_frontend_std_4)
    i.nrf_log_hexdump_entry_process          0x00037460   Section        0  nrf_log_str_formatter.o(i.nrf_log_hexdump_entry_process)
    i.nrf_log_init                           0x00037510   Section        0  nrf_log_frontend.o(i.nrf_log_init)
    i.nrf_log_module_cnt_get                 0x000375b0   Section        0  nrf_log_frontend.o(i.nrf_log_module_cnt_get)
    i.nrf_log_module_filter_get              0x000375c4   Section        0  nrf_log_frontend.o(i.nrf_log_module_filter_get)
    i.nrf_log_module_filter_set              0x0003760c   Section        0  nrf_log_frontend.o(i.nrf_log_module_filter_set)
    i.nrf_log_module_name_get                0x0003765c   Section        0  nrf_log_frontend.o(i.nrf_log_module_name_get)
    i.nrf_log_panic                          0x00037678   Section        0  nrf_log_frontend.o(i.nrf_log_panic)
    i.nrf_log_push                           0x000376a0   Section        0  nrf_log_frontend.o(i.nrf_log_push)
    i.nrf_log_std_entry_process              0x00037700   Section        0  nrf_log_str_formatter.o(i.nrf_log_std_entry_process)
    i.nrf_memobj_alloc                       0x000377b6   Section        0  nrf_memobj.o(i.nrf_memobj_alloc)
    i.nrf_memobj_free                        0x00037816   Section        0  nrf_memobj.o(i.nrf_memobj_free)
    i.nrf_memobj_get                         0x00037848   Section        0  nrf_memobj.o(i.nrf_memobj_get)
    i.nrf_memobj_pool_init                   0x00037850   Section        0  nrf_memobj.o(i.nrf_memobj_pool_init)
    i.nrf_memobj_put                         0x00037854   Section        0  nrf_memobj.o(i.nrf_memobj_put)
    i.nrf_memobj_read                        0x00037872   Section        0  nrf_memobj.o(i.nrf_memobj_read)
    i.nrf_memobj_write                       0x00037882   Section        0  nrf_memobj.o(i.nrf_memobj_write)
    i.nrf_nfct_event_check                   0x00037894   Section        0  nrfx_nfct.o(i.nrf_nfct_event_check)
    nrf_nfct_event_check                     0x00037895   Thumb Code    12  nrfx_nfct.o(i.nrf_nfct_event_check)
    i.nrf_nfct_event_clear                   0x000378a4   Section        0  nrfx_nfct.o(i.nrf_nfct_event_clear)
    nrf_nfct_event_clear                     0x000378a5   Thumb Code    12  nrfx_nfct.o(i.nrf_nfct_event_clear)
    i.nrf_nfct_int_enable_check              0x000378b4   Section        0  nrfx_nfct.o(i.nrf_nfct_int_enable_check)
    nrf_nfct_int_enable_check                0x000378b5   Thumb Code    18  nrfx_nfct.o(i.nrf_nfct_int_enable_check)
    i.nrf_nfct_nfcid1_set                    0x000378cc   Section        0  nrfx_nfct.o(i.nrf_nfct_nfcid1_set)
    nrf_nfct_nfcid1_set                      0x000378cd   Thumb Code   100  nrfx_nfct.o(i.nrf_nfct_nfcid1_set)
    i.nrf_nfct_rx_frameend_handle            0x00037934   Section        0  nfc_t2t_lib_al.o(i.nrf_nfct_rx_frameend_handle)
    nrf_nfct_rx_frameend_handle              0x00037935   Thumb Code    84  nfc_t2t_lib_al.o(i.nrf_nfct_rx_frameend_handle)
    i.nrf_nfct_selres_protocol_set           0x00037994   Section        0  nrfx_nfct.o(i.nrf_nfct_selres_protocol_set)
    nrf_nfct_selres_protocol_set             0x00037995   Thumb Code    16  nrfx_nfct.o(i.nrf_nfct_selres_protocol_set)
    i.nrf_pwr_mgmt_feed                      0x000379a8   Section        0  nrf_pwr_mgmt.o(i.nrf_pwr_mgmt_feed)
    i.nrf_pwr_mgmt_init                      0x000379ac   Section        0  nrf_pwr_mgmt.o(i.nrf_pwr_mgmt_init)
    i.nrf_pwr_mgmt_run                       0x000379d4   Section        0  nrf_pwr_mgmt.o(i.nrf_pwr_mgmt_run)
    i.nrf_queue_generic_pop                  0x00037a18   Section        0  nrf_queue.o(i.nrf_queue_generic_pop)
    i.nrf_queue_is_empty                     0x00037aa6   Section        0  nrf_queue.o(i.nrf_queue_is_empty)
    i.nrf_queue_is_full                      0x00037ab8   Section        0  nrf_queue.o(i.nrf_queue_is_full)
    i.nrf_queue_max_utilization_get          0x00037ad6   Section        0  nrf_queue.o(i.nrf_queue_max_utilization_get)
    i.nrf_queue_max_utilization_reset        0x00037adc   Section        0  nrf_queue.o(i.nrf_queue_max_utilization_reset)
    i.nrf_queue_next_idx                     0x00037ae4   Section        0  nrf_queue.o(i.nrf_queue_next_idx)
    nrf_queue_next_idx                       0x00037ae5   Thumb Code    14  nrf_queue.o(i.nrf_queue_next_idx)
    i.nrf_queue_push                         0x00037af2   Section        0  nrf_queue.o(i.nrf_queue_push)
    i.nrf_queue_read                         0x00037ba4   Section        0  nrf_queue.o(i.nrf_queue_read)
    i.nrf_queue_reset                        0x00037be2   Section        0  nrf_queue.o(i.nrf_queue_reset)
    i.nrf_queue_status                       0x00037c04   Section        0  nrf_queue.o(i.nrf_queue_status)
    nrf_queue_status                         0x00037c05   Thumb Code   168  nrf_queue.o(i.nrf_queue_status)
    i.nrf_queue_utilization_get              0x00037ce4   Section        0  nrf_queue.o(i.nrf_queue_utilization_get)
    i.nrf_ringbuf_alloc                      0x00037d08   Section        0  nrf_ringbuf.o(i.nrf_ringbuf_alloc)
    i.nrf_ringbuf_cpy_get                    0x00037d78   Section        0  nrf_ringbuf.o(i.nrf_ringbuf_cpy_get)
    i.nrf_ringbuf_cpy_put                    0x00037df4   Section        0  nrf_ringbuf.o(i.nrf_ringbuf_cpy_put)
    i.nrf_ringbuf_free                       0x00037e66   Section        0  nrf_ringbuf.o(i.nrf_ringbuf_free)
    i.nrf_ringbuf_get                        0x00037e8c   Section        0  nrf_ringbuf.o(i.nrf_ringbuf_get)
    i.nrf_ringbuf_init                       0x00037efc   Section        0  nrf_ringbuf.o(i.nrf_ringbuf_init)
    i.nrf_ringbuf_put                        0x00037f18   Section        0  nrf_ringbuf.o(i.nrf_ringbuf_put)
    i.nrf_rtc_event_clear                    0x00037f48   Section        0  drv_rtc.o(i.nrf_rtc_event_clear)
    nrf_rtc_event_clear                      0x00037f49   Thumb Code    12  drv_rtc.o(i.nrf_rtc_event_clear)
    i.nrf_sdh_ble_app_ram_start_get          0x00037f54   Section        0  nrf_sdh_ble.o(i.nrf_sdh_ble_app_ram_start_get)
    i.nrf_sdh_ble_default_cfg_set            0x00037f68   Section        0  nrf_sdh_ble.o(i.nrf_sdh_ble_default_cfg_set)
    i.nrf_sdh_ble_enable                     0x000380dc   Section        0  nrf_sdh_ble.o(i.nrf_sdh_ble_enable)
    i.nrf_sdh_ble_evts_poll                  0x00038230   Section        0  nrf_sdh_ble.o(i.nrf_sdh_ble_evts_poll)
    nrf_sdh_ble_evts_poll                    0x00038231   Thumb Code    88  nrf_sdh_ble.o(i.nrf_sdh_ble_evts_poll)
    i.nrf_sdh_disable_request                0x00038290   Section        0  nrf_sdh.o(i.nrf_sdh_disable_request)
    i.nrf_sdh_enable_request                 0x000382e4   Section        0  nrf_sdh.o(i.nrf_sdh_enable_request)
    i.nrf_sdh_evts_poll                      0x00038358   Section        0  nrf_sdh.o(i.nrf_sdh_evts_poll)
    i.nrf_sdh_is_enabled                     0x0003837c   Section        0  nrf_sdh.o(i.nrf_sdh_is_enabled)
    i.nrf_sdh_request_continue               0x00038388   Section        0  nrf_sdh.o(i.nrf_sdh_request_continue)
    i.nrf_sdh_soc_evts_poll                  0x000383a4   Section        0  nrf_sdh_soc.o(i.nrf_sdh_soc_evts_poll)
    nrf_sdh_soc_evts_poll                    0x000383a5   Thumb Code    56  nrf_sdh_soc.o(i.nrf_sdh_soc_evts_poll)
    i.nrf_section_iter_init                  0x000383e0   Section        0  nrf_section_iter.o(i.nrf_section_iter_init)
    i.nrf_section_iter_item_set              0x000383ea   Section        0  nrf_section_iter.o(i.nrf_section_iter_item_set)
    nrf_section_iter_item_set                0x000383eb   Thumb Code    36  nrf_section_iter.o(i.nrf_section_iter_item_set)
    i.nrf_section_iter_next                  0x0003840e   Section        0  nrf_section_iter.o(i.nrf_section_iter_next)
    i.nrf_sortlist_add                       0x0003842e   Section        0  nrf_sortlist.o(i.nrf_sortlist_add)
    i.nrf_sortlist_peek                      0x00038450   Section        0  nrf_sortlist.o(i.nrf_sortlist_peek)
    i.nrf_sortlist_pop                       0x00038456   Section        0  nrf_sortlist.o(i.nrf_sortlist_pop)
    i.nrf_sortlist_remove                    0x00038464   Section        0  nrf_sortlist.o(i.nrf_sortlist_remove)
    i.nrf_stack_info_overflowed              0x00038484   Section        0  nrf_crypto_rng.o(i.nrf_stack_info_overflowed)
    nrf_stack_info_overflowed                0x00038485   Thumb Code    16  nrf_crypto_rng.o(i.nrf_stack_info_overflowed)
    i.nrf_strerror_find                      0x00038498   Section        0  nrf_strerror.o(i.nrf_strerror_find)
    i.nrf_strerror_get                       0x000384d0   Section        0  nrf_strerror.o(i.nrf_strerror_get)
    i.nrf_timer_event_clear                  0x000384e4   Section        0  nrfx_timer.o(i.nrf_timer_event_clear)
    nrf_timer_event_clear                    0x000384e5   Thumb Code    12  nrfx_timer.o(i.nrf_timer_event_clear)
    i.nrf_twi_event_check                    0x000384f0   Section        0  nrfx_twi.o(i.nrf_twi_event_check)
    nrf_twi_event_check                      0x000384f1   Thumb Code    10  nrfx_twi.o(i.nrf_twi_event_check)
    i.nrf_twi_event_clear                    0x000384fa   Section        0  nrfx_twi.o(i.nrf_twi_event_clear)
    nrf_twi_event_clear                      0x000384fb   Thumb Code    12  nrfx_twi.o(i.nrf_twi_event_clear)
    i.nrf_uart_event_check                   0x00038506   Section        0  nrfx_uart.o(i.nrf_uart_event_check)
    nrf_uart_event_check                     0x00038507   Thumb Code    10  nrfx_uart.o(i.nrf_uart_event_check)
    i.nrf_uart_event_clear                   0x00038510   Section        0  nrfx_uart.o(i.nrf_uart_event_clear)
    nrf_uart_event_clear                     0x00038511   Thumb Code    12  nrfx_uart.o(i.nrf_uart_event_clear)
    i.nrf_uart_int_enable_check              0x0003851c   Section        0  nrfx_uart.o(i.nrf_uart_int_enable_check)
    nrf_uart_int_enable_check                0x0003851d   Thumb Code    12  nrfx_uart.o(i.nrf_uart_int_enable_check)
    i.nrf_uarte_event_check                  0x00038528   Section        0  nrfx_uarte.o(i.nrf_uarte_event_check)
    nrf_uarte_event_check                    0x00038529   Thumb Code    10  nrfx_uarte.o(i.nrf_uarte_event_check)
    i.nrf_uarte_event_clear                  0x00038532   Section        0  nrfx_uarte.o(i.nrf_uarte_event_clear)
    nrf_uarte_event_clear                    0x00038533   Thumb Code    12  nrfx_uarte.o(i.nrf_uarte_event_clear)
    i.nrf_wdt_started                        0x00038540   Section        0  nrf_drv_clock.o(i.nrf_wdt_started)
    nrf_wdt_started                          0x00038541   Thumb Code    12  nrf_drv_clock.o(i.nrf_wdt_started)
    i.nrfx_clock_enable                      0x00038550   Section        0  nrfx_clock.o(i.nrfx_clock_enable)
    i.nrfx_clock_hfclk_start                 0x0003857c   Section        0  nrfx_clock.o(i.nrfx_clock_hfclk_start)
    i.nrfx_clock_hfclk_stop                  0x00038594   Section        0  nrfx_clock.o(i.nrfx_clock_hfclk_stop)
    i.nrfx_clock_init                        0x000385d0   Section        0  nrfx_clock.o(i.nrfx_clock_init)
    i.nrfx_clock_lfclk_stop                  0x000385f0   Section        0  nrfx_clock.o(i.nrfx_clock_lfclk_stop)
    i.nrfx_coredep_delay_us                  0x00038620   Section        0  drv_rtc.o(i.nrfx_coredep_delay_us)
    nrfx_coredep_delay_us                    0x00038621   Thumb Code    12  drv_rtc.o(i.nrfx_coredep_delay_us)
    i.nrfx_gpiote_in_event_enable            0x00038630   Section        0  nrfx_gpiote.o(i.nrfx_gpiote_in_event_enable)
    i.nrfx_gpiote_in_init                    0x000386d0   Section        0  nrfx_gpiote.o(i.nrfx_gpiote_in_init)
    i.nrfx_gpiote_in_is_set                  0x0003879c   Section        0  nrfx_gpiote.o(i.nrfx_gpiote_in_is_set)
    i.nrfx_gpiote_init                       0x000387b0   Section        0  nrfx_gpiote.o(i.nrfx_gpiote_init)
    i.nrfx_gpiote_is_init                    0x00038824   Section        0  nrfx_gpiote.o(i.nrfx_gpiote_is_init)
    i.nrfx_is_in_ram                         0x00038838   Section        0  nrfx_uarte.o(i.nrfx_is_in_ram)
    nrfx_is_in_ram                           0x00038839   Thumb Code    16  nrfx_uarte.o(i.nrfx_is_in_ram)
    i.nrfx_nfct_disable                      0x00038848   Section        0  nrfx_nfct.o(i.nrfx_nfct_disable)
    i.nrfx_nfct_enable                       0x00038860   Section        0  nrfx_nfct.o(i.nrfx_nfct_enable)
    i.nrfx_nfct_evt_handler                  0x00038884   Section        0  nfc_t2t_lib_al.o(i.nrfx_nfct_evt_handler)
    nrfx_nfct_evt_handler                    0x00038885   Thumb Code   126  nfc_t2t_lib_al.o(i.nrfx_nfct_evt_handler)
    i.nrfx_nfct_field_check                  0x0003890c   Section        0  nrfx_nfct.o(i.nrfx_nfct_field_check)
    i.nrfx_nfct_field_event_handler          0x0003891c   Section        0  nrfx_nfct.o(i.nrfx_nfct_field_event_handler)
    nrfx_nfct_field_event_handler            0x0003891d   Thumb Code   126  nrfx_nfct.o(i.nrfx_nfct_field_event_handler)
    i.nrfx_nfct_field_poll                   0x000389a8   Section        0  nrfx_nfct.o(i.nrfx_nfct_field_poll)
    nrfx_nfct_field_poll                     0x000389a9   Thumb Code    66  nrfx_nfct.o(i.nrfx_nfct_field_poll)
    i.nrfx_nfct_field_timer_handler          0x000389f8   Section        0  nrfx_nfct.o(i.nrfx_nfct_field_timer_handler)
    nrfx_nfct_field_timer_handler            0x000389f9   Thumb Code    12  nrfx_nfct.o(i.nrfx_nfct_field_timer_handler)
    i.nrfx_nfct_frame_delay_max_set          0x00038a04   Section        0  nrfx_nfct.o(i.nrfx_nfct_frame_delay_max_set)
    nrfx_nfct_frame_delay_max_set            0x00038a05   Thumb Code    18  nrfx_nfct.o(i.nrfx_nfct_frame_delay_max_set)
    i.nrfx_nfct_hw_init_setup                0x00038a20   Section        0  nrfx_nfct.o(i.nrfx_nfct_hw_init_setup)
    nrfx_nfct_hw_init_setup                  0x00038a21   Thumb Code    24  nrfx_nfct.o(i.nrfx_nfct_hw_init_setup)
    i.nrfx_nfct_init                         0x00038a3c   Section        0  nrfx_nfct.o(i.nrfx_nfct_init)
    i.nrfx_nfct_init_substate_force          0x00038ad8   Section        0  nrfx_nfct.o(i.nrfx_nfct_init_substate_force)
    i.nrfx_nfct_nfcid1_default_bytes_get     0x00038b14   Section        0  nrfx_nfct.o(i.nrfx_nfct_nfcid1_default_bytes_get)
    i.nrfx_nfct_reset                        0x00038b74   Section        0  nrfx_nfct.o(i.nrfx_nfct_reset)
    nrfx_nfct_reset                          0x00038b75   Thumb Code   156  nrfx_nfct.o(i.nrfx_nfct_reset)
    i.nrfx_nfct_rx                           0x00038c1c   Section        0  nrfx_nfct.o(i.nrfx_nfct_rx)
    i.nrfx_nfct_state_force                  0x00038c50   Section        0  nrfx_nfct.o(i.nrfx_nfct_state_force)
    i.nrfx_nfct_tx                           0x00038c5c   Section        0  nrfx_nfct.o(i.nrfx_nfct_tx)
    i.nrfx_prs_acquire                       0x00038cb4   Section        0  nrfx_prs.o(i.nrfx_prs_acquire)
    i.nrfx_prs_release                       0x00038cee   Section        0  nrfx_prs.o(i.nrfx_prs_release)
    i.nrfx_rng_handler                       0x00038d00   Section        0  nrf_drv_rng.o(i.nrfx_rng_handler)
    nrfx_rng_handler                         0x00038d01   Thumb Code    52  nrf_drv_rng.o(i.nrfx_rng_handler)
    i.nrfx_rng_init                          0x00038d38   Section        0  nrfx_rng.o(i.nrfx_rng_init)
    i.nrfx_rng_start                         0x00038d90   Section        0  nrfx_rng.o(i.nrfx_rng_start)
    i.nrfx_rng_stop                          0x00038db0   Section        0  nrfx_rng.o(i.nrfx_rng_stop)
    i.nrfx_rng_uninit                        0x00038dc4   Section        0  nrfx_rng.o(i.nrfx_rng_uninit)
    i.nrfx_timer_clear                       0x00038df4   Section        0  nrfx_timer.o(i.nrfx_timer_clear)
    i.nrfx_timer_compare                     0x00038dfc   Section        0  nrfx_timer.o(i.nrfx_timer_compare)
    i.nrfx_timer_disable                     0x00038e38   Section        0  nrfx_timer.o(i.nrfx_timer_disable)
    i.nrfx_timer_enable                      0x00038e54   Section        0  nrfx_timer.o(i.nrfx_timer_enable)
    i.nrfx_timer_extended_compare            0x00038e70   Section        0  nrfx_timer.o(i.nrfx_timer_extended_compare)
    i.nrfx_timer_init                        0x00038e9c   Section        0  nrfx_timer.o(i.nrfx_timer_init)
    i.nrfx_uart_0_irq_handler                0x00038f5c   Section        0  nrfx_uart.o(i.nrfx_uart_0_irq_handler)
    i.nrfx_uart_init                         0x00038f6c   Section        0  nrfx_uart.o(i.nrfx_uart_init)
    i.nrfx_uart_rx                           0x00039040   Section        0  nrfx_uart.o(i.nrfx_uart_rx)
    i.nrfx_uart_rx_abort                     0x0003912c   Section        0  nrfx_uart.o(i.nrfx_uart_rx_abort)
    i.nrfx_uart_tx                           0x00039140   Section        0  nrfx_uart.o(i.nrfx_uart_tx)
    i.nrfx_uart_tx_in_progress               0x000391e8   Section        0  nrfx_uart.o(i.nrfx_uart_tx_in_progress)
    i.nrfx_uart_uninit                       0x00039208   Section        0  nrfx_uart.o(i.nrfx_uart_uninit)
    i.nrfx_uarte_0_irq_handler               0x000392c8   Section        0  nrfx_uarte.o(i.nrfx_uarte_0_irq_handler)
    i.nrfx_uarte_init                        0x000392d8   Section        0  nrfx_uarte.o(i.nrfx_uarte_init)
    i.nrfx_uarte_rx                          0x00039344   Section        0  nrfx_uarte.o(i.nrfx_uarte_rx)
    i.nrfx_uarte_rx_abort                    0x00039448   Section        0  nrfx_uarte.o(i.nrfx_uarte_rx_abort)
    i.nrfx_uarte_tx                          0x00039474   Section        0  nrfx_uarte.o(i.nrfx_uarte_tx)
    i.nrfx_uarte_tx_in_progress              0x00039520   Section        0  nrfx_uarte.o(i.nrfx_uarte_tx_in_progress)
    i.nrfx_uarte_uninit                      0x0003953c   Section        0  nrfx_uarte.o(i.nrfx_uarte_uninit)
    i.numeric_match_request_clear            0x00039644   Section        0  ble_m.o(i.numeric_match_request_clear)
    i.numeric_match_request_conn_handle_get  0x00039650   Section        0  ble_m.o(i.numeric_match_request_conn_handle_get)
    i.nvmc_config                            0x0003965c   Section        0  system_nrf52.o(i.nvmc_config)
    i.oberon_vector_generate                 0x00039674   Section        0  oberon_backend_ecc.o(i.oberon_vector_generate)
    oberon_vector_generate                   0x00039675   Thumb Code     4  oberon_backend_ecc.o(i.oberon_vector_generate)
    i.on_adv_evt                             0x00039678   Section        0  ble_m.o(i.on_adv_evt)
    on_adv_evt                               0x00039679   Thumb Code    12  ble_m.o(i.on_adv_evt)
    i.on_ble_central_evt                     0x00039684   Section        0  ble_m.o(i.on_ble_central_evt)
    on_ble_central_evt                       0x00039685   Thumb Code   340  ble_m.o(i.on_ble_central_evt)
    i.on_ble_evt                             0x000398cc   Section        0  ble_m.o(i.on_ble_evt)
    on_ble_evt                               0x000398cd   Thumb Code   526  ble_m.o(i.on_ble_evt)
    i.on_ble_peripheral_evt                  0x00039bf4   Section        0  ble_m.o(i.on_ble_peripheral_evt)
    on_ble_peripheral_evt                    0x00039bf5   Thumb Code   296  ble_m.o(i.on_ble_peripheral_evt)
    i.on_characteristics_discovery_rsp       0x00039de4   Section        0  ble_m.o(i.on_characteristics_discovery_rsp)
    on_characteristics_discovery_rsp         0x00039de5   Thumb Code   342  ble_m.o(i.on_characteristics_discovery_rsp)
    i.on_conn_params_evt                     0x00039f78   Section        0  ble_m.o(i.on_conn_params_evt)
    on_conn_params_evt                       0x00039f79   Thumb Code    24  ble_m.o(i.on_conn_params_evt)
    i.on_connected_evt                       0x00039f90   Section        0  nrf_ble_gatt.o(i.on_connected_evt)
    on_connected_evt                         0x00039f91   Thumb Code   112  nrf_ble_gatt.o(i.on_connected_evt)
    i.on_descriptor_discovery_rsp            0x0003a040   Section        0  ble_m.o(i.on_descriptor_discovery_rsp)
    on_descriptor_discovery_rsp              0x0003a041   Thumb Code   326  ble_m.o(i.on_descriptor_discovery_rsp)
    i.on_dhkey_request                       0x0003a1ec   Section        0  nrf_ble_lesc.o(i.on_dhkey_request)
    on_dhkey_request                         0x0003a1ed   Thumb Code   134  nrf_ble_lesc.o(i.on_dhkey_request)
    i.on_exchange_mtu_request_evt            0x0003a2fc   Section        0  nrf_ble_gatt.o(i.on_exchange_mtu_request_evt)
    on_exchange_mtu_request_evt              0x0003a2fd   Thumb Code   116  nrf_ble_gatt.o(i.on_exchange_mtu_request_evt)
    i.on_primary_srv_discovery_rsp           0x0003a3b0   Section        0  ble_m.o(i.on_primary_srv_discovery_rsp)
    on_primary_srv_discovery_rsp             0x0003a3b1   Thumb Code   190  ble_m.o(i.on_primary_srv_discovery_rsp)
    i.on_read_rsp                            0x0003a498   Section        0  ble_m.o(i.on_read_rsp)
    on_read_rsp                              0x0003a499   Thumb Code   480  ble_m.o(i.on_read_rsp)
    i.on_write_rsp                           0x0003a6bc   Section        0  ble_m.o(i.on_write_rsp)
    on_write_rsp                             0x0003a6bd   Thumb Code   112  ble_m.o(i.on_write_rsp)
    i.option_print                           0x0003a784   Section        0  nrf_cli.o(i.option_print)
    option_print                             0x0003a785   Thumb Code   128  nrf_cli.o(i.option_print)
    i.page_identify                          0x0003a814   Section        0  fds.o(i.page_identify)
    page_identify                            0x0003a815   Thumb Code    26  fds.o(i.page_identify)
    i.page_offsets_update                    0x0003a838   Section        0  fds.o(i.page_offsets_update)
    page_offsets_update                      0x0003a839   Thumb Code    28  fds.o(i.page_offsets_update)
    i.page_scan                              0x0003a854   Section        0  fds.o(i.page_scan)
    page_scan                                0x0003a855   Thumb Code   104  fds.o(i.page_scan)
    i.page_tag_write_data                    0x0003a8c0   Section        0  fds.o(i.page_tag_write_data)
    page_tag_write_data                      0x0003a8c1   Thumb Code    20  fds.o(i.page_tag_write_data)
    i.page_tag_write_swap                    0x0003a8dc   Section        0  fds.o(i.page_tag_write_swap)
    page_tag_write_swap                      0x0003a8dd   Thumb Code    22  fds.o(i.page_tag_write_swap)
    i.pages_init                             0x0003a900   Section        0  fds.o(i.pages_init)
    pages_init                               0x0003a901   Thumb Code   286  fds.o(i.pages_init)
    i.pairing                                0x0003aa30   Section        0  security_dispatcher.o(i.pairing)
    pairing                                  0x0003aa31   Thumb Code     8  security_dispatcher.o(i.pairing)
    i.pairing_failure                        0x0003aa3c   Section        0  security_dispatcher.o(i.pairing_failure)
    pairing_failure                          0x0003aa3d   Thumb Code   106  security_dispatcher.o(i.pairing_failure)
    i.pairing_get                            0x0003aabc   Section        0  cli_m.o(i.pairing_get)
    pairing_get                              0x0003aabd   Thumb Code    38  cli_m.o(i.pairing_get)
    i.pairing_success_evt_send               0x0003aaec   Section        0  security_dispatcher.o(i.pairing_success_evt_send)
    pairing_success_evt_send                 0x0003aaed   Thumb Code    46  security_dispatcher.o(i.pairing_success_evt_send)
    i.params_reply_pending_handle            0x0003ab1a   Section        0  security_manager.o(i.params_reply_pending_handle)
    params_reply_pending_handle              0x0003ab1b   Thumb Code     6  security_manager.o(i.params_reply_pending_handle)
    i.params_req_send                        0x0003ab20   Section        0  security_manager.o(i.params_req_send)
    params_req_send                          0x0003ab21   Thumb Code    32  security_manager.o(i.params_req_send)
    i.pdb_evt_send                           0x0003ab40   Section        0  peer_database.o(i.pdb_evt_send)
    pdb_evt_send                             0x0003ab41   Thumb Code    24  peer_database.o(i.pdb_evt_send)
    i.pdb_init                               0x0003ab5c   Section        0  peer_database.o(i.pdb_init)
    i.pdb_pds_evt_handler                    0x0003abf4   Section        0  peer_database.o(i.pdb_pds_evt_handler)
    i.pdb_peer_data_ptr_get                  0x0003ac70   Section        0  peer_database.o(i.pdb_peer_data_ptr_get)
    i.pdb_peer_free                          0x0003ac78   Section        0  peer_database.o(i.pdb_peer_free)
    i.pdb_write_buf_get                      0x0003ad18   Section        0  peer_database.o(i.pdb_write_buf_get)
    i.pdb_write_buf_release                  0x0003ae00   Section        0  peer_database.o(i.pdb_write_buf_release)
    i.pdb_write_buf_store                    0x0003ae14   Section        0  peer_database.o(i.pdb_write_buf_store)
    i.pds_evt_send                           0x0003ae4c   Section        0  peer_data_storage.o(i.pds_evt_send)
    pds_evt_send                             0x0003ae4d   Thumb Code    12  peer_data_storage.o(i.pds_evt_send)
    i.pds_init                               0x0003ae5c   Section        0  peer_data_storage.o(i.pds_init)
    i.pds_next_deleted_peer_id_get           0x0003af48   Section        0  peer_data_storage.o(i.pds_next_deleted_peer_id_get)
    i.pds_next_peer_id_get                   0x0003af4c   Section        0  peer_data_storage.o(i.pds_next_peer_id_get)
    i.pds_peer_count_get                     0x0003af50   Section        0  peer_data_storage.o(i.pds_peer_count_get)
    i.pds_peer_data_iterate                  0x0003af54   Section        0  peer_data_storage.o(i.pds_peer_data_iterate)
    i.pds_peer_data_iterate_prepare          0x0003afac   Section        0  peer_data_storage.o(i.pds_peer_data_iterate_prepare)
    i.pds_peer_data_read                     0x0003afbc   Section        0  peer_data_storage.o(i.pds_peer_data_read)
    i.pds_peer_data_store                    0x0003b030   Section        0  peer_data_storage.o(i.pds_peer_data_store)
    i.pds_peer_id_allocate                   0x0003b0f0   Section        0  peer_data_storage.o(i.pds_peer_id_allocate)
    i.pds_peer_id_free                       0x0003b0f8   Section        0  peer_data_storage.o(i.pds_peer_id_free)
    i.pds_peer_id_is_allocated               0x0003b10e   Section        0  peer_data_storage.o(i.pds_peer_id_is_allocated)
    i.pds_peer_id_is_deleted                 0x0003b112   Section        0  peer_data_storage.o(i.pds_peer_id_is_deleted)
    i.peer_data_delete_process               0x0003b118   Section        0  peer_data_storage.o(i.peer_data_delete_process)
    peer_data_delete_process                 0x0003b119   Thumb Code   152  peer_data_storage.o(i.peer_data_delete_process)
    i.peer_data_find                         0x0003b1c8   Section        0  peer_data_storage.o(i.peer_data_find)
    peer_data_find                           0x0003b1c9   Thumb Code    48  peer_data_storage.o(i.peer_data_find)
    i.peer_data_id_is_valid                  0x0003b1f8   Section        0  peer_data_storage.o(i.peer_data_id_is_valid)
    peer_data_id_is_valid                    0x0003b1f9   Thumb Code    36  peer_data_storage.o(i.peer_data_id_is_valid)
    i.peer_data_point_to_buffer              0x0003b21c   Section        0  peer_database.o(i.peer_data_point_to_buffer)
    peer_data_point_to_buffer                0x0003b21d   Thumb Code    26  peer_database.o(i.peer_data_point_to_buffer)
    i.peer_id_allocate                       0x0003b238   Section        0  peer_id.o(i.peer_id_allocate)
    i.peer_id_delete                         0x0003b244   Section        0  peer_id.o(i.peer_id_delete)
    i.peer_id_free                           0x0003b268   Section        0  peer_id.o(i.peer_id_free)
    i.peer_id_get_next_deleted               0x0003b284   Section        0  peer_id.o(i.peer_id_get_next_deleted)
    i.peer_id_get_next_used                  0x0003b290   Section        0  peer_id.o(i.peer_id_get_next_used)
    i.peer_id_init                           0x0003b2c0   Section        0  peer_id.o(i.peer_id_init)
    i.peer_id_is_allocated                   0x0003b2cc   Section        0  peer_id.o(i.peer_id_is_allocated)
    i.peer_id_is_deleted                     0x0003b2e0   Section        0  peer_id.o(i.peer_id_is_deleted)
    i.peer_id_n_ids                          0x0003b2f4   Section        0  peer_id.o(i.peer_id_n_ids)
    i.peer_manager_init                      0x0003b314   Section        0  pm_m.o(i.peer_manager_init)
    i.phy_is_valid                           0x0003b380   Section        0  ble_advertising.o(i.phy_is_valid)
    phy_is_valid                             0x0003b381   Thumb Code    18  ble_advertising.o(i.phy_is_valid)
    i.phy_set                                0x0003b394   Section        0  cli_m.o(i.phy_set)
    phy_set                                  0x0003b395   Thumb Code    40  cli_m.o(i.phy_set)
    i.phy_str                                0x0003b3d8   Section        0  ble_m.o(i.phy_str)
    i.pin_configured_set                     0x0003b400   Section        0  nrfx_gpiote.o(i.pin_configured_set)
    pin_configured_set                       0x0003b401   Thumb Code    22  nrfx_gpiote.o(i.pin_configured_set)
    i.pin_in_use_by_port                     0x0003b41c   Section        0  nrfx_gpiote.o(i.pin_in_use_by_port)
    pin_in_use_by_port                       0x0003b41d   Thumb Code    20  nrfx_gpiote.o(i.pin_in_use_by_port)
    i.pin_in_use_by_te                       0x0003b434   Section        0  nrfx_gpiote.o(i.pin_in_use_by_te)
    pin_in_use_by_te                         0x0003b435   Thumb Code    20  nrfx_gpiote.o(i.pin_in_use_by_te)
    i.pm_buffer_block_acquire                0x0003b44c   Section        0  pm_buffer.o(i.pm_buffer_block_acquire)
    i.pm_buffer_init                         0x0003b4b0   Section        0  pm_buffer.o(i.pm_buffer_init)
    i.pm_buffer_ptr_get                      0x0003b4d4   Section        0  pm_buffer.o(i.pm_buffer_ptr_get)
    i.pm_buffer_release                      0x0003b4fc   Section        0  pm_buffer.o(i.pm_buffer_release)
    i.pm_conn_sec_params_reply               0x0003b530   Section        0  peer_manager.o(i.pm_conn_sec_params_reply)
