:020000040002F8
:1060000098CA0020F5630200FD63020015620200D9
:106010000164020003640200056402000000000045
:106020000000000000000000000000000764020003
:1060300009640200000000000B6402000D6402000D
:10604000899502000F64020055990200199602001A
:106050000F640200C1930200019102000F6402006C
:106060000F6402000F6402000F6402000F6402005C
:106070000F640200E19502000F6402000F64020049
:106080000F640200099602000F6402000F64020010
:106090000F6402000F640200299602000F640200E0
:1060A0000F6402000F6402000F64020005990200F1
:1060B0000F6402000F6402000000000000000000F6
:1060C0000F6402000F6402000F6402000F640200FC
:1060D0000F6402000F6402000F6402000000000061
:1060E00000000000000000000000000000000000B0
:1060F00000000000000000000000000000000000A0
:10610000000000000000000000000000000000008F
:10611000000000000000000000000000000000007F
:10612000000000000000000000000000000000006F
:10613000000000000000000000000000000000005F
:10614000000000000000000000000000000000004F
:10615000000000000000000000000000000000003F
:10616000000000000000000000000000000000002F
:10617000000000000000000000000000000000001F
:10618000000000000000000000000000000000000F
:1061900000000000000000000000000000000000FF
:1061A00000000000000000000000000000000000EF
:1061B00000000000000000000000000000000000DF
:1061C00000000000000000000000000000000000CF
:1061D00000000000000000000000000000000000BF
:1061E00000000000000000000000000000000000AF
:1061F000000000000000000000000000000000009F
:10620000DFF80CD001F0D4F8004800474525030022
:1062100098CA0020094B1EF0040F1CBFEFF3098041
:106220001847EFF308800649064A884201D8904291
:1062300002D88D464FF0000018470000A5910200DB
:1062400098CA002098AA002030B450E8012F93B2D9
:10625000C48923448489A34228BF1B1B0489A34209
:1062600002BFBFF32F8F002007E0C3EA020340E81C
:106270000134002CE9D14FF001000A6030BC7047B6
:1062800050E8012FC2EA024240E801210029F7D17B
:10629000704730B450E8022F1FFAA2F3C488A3421B
:1062A00002BFBFF32F8F00200DE0C48923448489EF
:1062B000A34228BF1B1BC2EA034340E80234002C60
:1062C000E8D14FF001000A6030BC704750E8022F5F
:1062D000C2EA224240E802210029F7D17047034672
:1062E00053E8022FD988B2EB324F4FF0000017BFAE
:1062F00092B241EA014142EA014104E05A68B2EB3C
:10630000324F08BF012043E80212002AE8D170474B
:1063100030B4044654E8000F0D4644E80053002B07
:10632000F8D1156030BC704730B4044654E8000F13
:1063300040EA010544E80053002BF7D1156030BC5A
:10634000704730B4044654E8000F00EA010544E801
:106350000053002BF7D1156030BC704730B40446B1
:1063600054E8000F80EA010544E80053002BF7D100
:10637000156030BC704730B4044654E8000F00EBA1
:10638000010544E80053002BF7D1156030BC70477D
:1063900030B4044654E8000FA0EB010544E8005374
:1063A000002BF7D1156030BC704770B404464FF035
:1063B000000054E8006F0D68AE4207BF44E80023B8
:1063C000012044E800630E60002B1CBF0020F0E7B2
:1063D00070BC704730B4044654E8000F88422CBFAC
:1063E000451A054644E80053002BF5D1156030BC32
:1063F000704700000648804706480047FEE7FEE772
:10640000FEE7FEE7FEE7FEE7FEE7FEE7FEE7FEE764
:106410002D9602000162020070B491E87800B2E8A3
:1064200002105B1854EB0C04B2E802104D4156EB1D
:106430000C0680E878008041013070BC704770B471
:1064400091E87800B2E802105B1A74EB0C04B2E831
:1064500002108D4176EB0C0680E8780080414042C6
:1064600070BC70472DE9F00791E8F807B2E8021018
:106470005B1854EB0C04B2E802104D4156EB0C06CD
:10648000B2E802104F4158EB0C08B2E8021059EB89
:1064900001095AEB0C0A80E8F80780410130BDE899
:1064A000F00770472DE9F00791E8F807B2E802100D
:1064B0005B1A74EB0C04B2E802108D4176EB0C060B
:1064C000B2E802108F4178EB0C08B2E8021079EBC9
:1064D00001097AEB0C0A80E8F80780414042BDE8E8
:1064E000F00770472DE9F007524290E87800B1E8D4
:1064F00080071740DB1918EA020854EB080419EA70
:10650000020955EB09051AEA020A56EB0A0678C099
:1065100090E87800B1E8800717407B4118EA02084C
:1065200054EB080419EA020955EB09051AEA020AB4
:1065300056EB0A0678C080410130BDE8F00770478D
:106540002DE9F007524290E87800B1E88007174043
:10655000DB1B18EA020874EB080419EA020975EB60
:1065600009051AEA020A76EB0A0678C090E8780074
:10657000B1E880071740BB4118EA020874EB080431
:1065800019EA020975EB09051AEA020A76EB0A060E
:1065900078C080414042BDE8F007704790E8300085
:1065A00091E8C000A31B1340E41AF618EB1B13403C
:1065B000ED1AFF1830C0C0C17047F0B55242FFF766
:1065C000EDFFFFF7EBFFFFF7E9FFFFF7E7FFF0BD98
:1065D0002DE9F0073AC91668A1FB069A4FF0000CA6
:1065E000E3FB06AC4FF00007E4FB06C74FF00008E2
:1065F000E5FB067840F8049B56684FF00009E1FB84
:1066000006A9E3FB66C9E4FB6679E5FB668940F809
:1066100004AB96684FF0000AE1FB06CAE3FB667A1A
:10662000E4FB668AE5FB669A40F804CBD6684FF037
:10663000000CE1FB067CE3FB668CE4FB669CE5FB5F
:1066400066AC80E88017BDE8F00770470A462DE980
:10665000F04F40EC171A92EC080A1EC910EE100A0F
:10666000A1FB00784FF00009E2FB00894FF0000A1F
:10667000E3FB009A4FF0000BE4FB00AB12EE100AB4
:106680004FF0000CE1FB00BC4FF0000EE2FB00CE2F
:106690004FF00005E3FB00E54FF00006E4FB005679
:1066A00004EE107A10EE900A4FF00007E1FB00872D
:1066B000E2FB6097E3FB60A7E4FB60B712EE900A91
:1066C000E1FB60C7E2FB60E7E3FB6057E4FB606768
:1066D00004EE908A11EE100A4FF00008E1FB0098DA
:1066E000E2FB60A8E3FB60B8E4FB60C813EE100AAD
:1066F000E1FB60E8E2FB6058E3FB6068E4FB607884
:1067000005EE109A11EE900A4FF00009E1FB00A986
:10671000E2FB60B9E3FB60C9E4FB60E913EE900AB9
:10672000E1FB6059E2FB6069E3FB6079E4FB6089AF
:1067300005EE90AA17EE101A01F110011EC910EE15
:10674000100A4FF0000AE1FB00BAE2FB60CAE3FB6B
:1067500060EAE4FB605A12EE100AE1FB606AE2FBB9
:10676000607AE3FB608AE4FB609A06EE10BA10EEF2
:10677000900A4FF0000BE1FB00CBE2FB60EBE3FB88
:10678000605BE4FB606B12EE900AE1FB607BE2FB76
:10679000608BE3FB609BE4FB60AB06EE90CA11EEFE
:1067A000100A4FF0000CE1FB00ECE2FB605CE3FB45
:1067B000606CE4FB607C13EE100AE1FB608CE2FB92
:1067C000609CE3FB60ACE4FB60BC07EE10EA11EEFA
:1067D000900A4FF0000EE1FB005EE2FB606EE3FB0F
:1067E000607EE4FB608E13EE900AE1FB609EE2FBAC
:1067F00060AEE3FB60BEE4FB60CE17EE900AA0EC57
:10680000074A80E8E05FBDE8F08F00BF30B44FF08A
:10681000000310F8014B11F8015B013A84EA05040A
:1068200043EA0403F5D1A3F101034FEAD37030BC6E
:1068300070474FF0000310F8012B013943EA0203BF
:10684000F9D1A3F101034FEAD370704711F8013B6E
:1068500000F8013B013AF9D17047002200F8012B02
:106860000139FBD1704700BF2DE9F00791E8F80727
:10687000B2E802105B1854EB0C04B2E802104D4170
:1068800056EB0C06B2E802104F4158EB0C08B2E888
:10689000021059EB01095AEB0C0A8941B3F1FF339D
:1068A00074F1FF3475F1FF3576F1000677F10007DA
:1068B00078F1000879F101097AF1FF3A51F100010C
:1068C0004A425B184C414D4156F1000657F1000712
:1068D00058F1000859EB02095AEB010A80E8F80761
:1068E000BDE8F00770472DE9F00791E8F807B2E836
:1068F00002105B1A74EB0C04B2E802108D4176EBC7
:106900000C06B2E802108F4178EB0C08B2E80210D6
:1069100079EB01097AEB0C0A89414A425B184C4138
:106920004D4156F1000657F1000758F1000859EBA8
:1069300002095AEB010A80E8F807BDE8F007704742
:106940000A462DE9F04F40EC171A92EC080A1EC9CE
:1069500010EE100AA1FB00784FF00009E2FB00895D
:106960004FF0000AE3FB009A4FF0000BE4FB00AB92
:1069700012EE100A4FF0000CE1FB00BC4FF0000ECD
:10698000E2FB00CE4FF00005E3FB00E54FF0000610
:10699000E4FB005604EE107A10EE900A4FF0000768
:1069A000E1FB0087E2FB6097E3FB60A7E4FB60B7D5
:1069B00012EE900AE1FB60C7E2FB60E7E3FB605781
:1069C000E4FB606704EE908A11EE100A4FF00008B5
:1069D000E1FB0098E2FB60A8E3FB60B8E4FB60C861
:1069E00013EE100AE1FB60E8E2FB6058E3FB60682D
:1069F000E4FB607805EE109A11EE900A4FF0000962
:106A0000E1FB00A9E2FB60B9E3FB60C9E4FB60E9DC
:106A100013EE900AE1FB6059E2FB6069E3FB6079E9
:106A2000E4FB608905EE90AA17EE101A01F110013F
:106A30001EC910EE100A4FF0000AE1FB00BAE2FB9B
:106A400060CAE3FB60EAE4FB605A12EE100AE1FB65
:106A5000606AE2FB607AE3FB608AE4FB609A06EE20
:106A600010BA10EE900A4FF0000BE1FB00CBE2FBF6
:106A700060EBE3FB605BE4FB606B12EE900AE1FB12
:106A8000607BE2FB608BE3FB609BE4FB60AB06EEAC
:106A900090CA11EE100A4FF0000CE1FB00ECE2FB93
:106AA000605CE3FB606CE4FB607C13EE100AE1FBCE
:106AB000608CE2FB609CE3FB60ACE4FB60BC07EE37
:106AC00010EA11EE900A4FF0000EE1FB005EE2FBCF
:106AD000606EE3FB607EE4FB608E13EE900AE1FBE8
:106AE000609EE2FB60AEE3FB60BEE4FB60CE53EC75
:106AF000162A17EE104A12EB0A0253EB0B0354EB63
:106B00000C0455EB0E05002040F1000012EB0B02C7
:106B100053EB0C0354EB0E0455EB0E0546410020DD
:106B2000474158EB000859EB0A0940F10000B2EB6D
:106B30000E0273F1000374F1000475EB0A0576EBA5
:106B40000B0677EB0C0778EB0A0879EB0C0960F180
:106B50000000B5EB0B0576EB0C0677EB0E0778EB38
:106B60000B0879EB0E0960F100005FEAE07C7FEA38
:106B70000C0CDCF1000EB2EB0C0273EB0C0374EBAB
:106B80000C0475F1000576F1000677F1000778EB4B
:106B90000E0879EB0C0960F100005FEAE07CDCF1A3
:106BA000000E12EB0C0253EB0C0354EB0C0455F1EA
:106BB000000556F1000657F1000758EB0E0859EB97
:106BC0000C0940F100005FEAE07CDCF1000E12EB02
:106BD0000C0253EB0C0354EB0C0455F1000556F179
:106BE000000657F1000758EB0E0859EB0C095BEC57
:106BF00014AA51EC150A1AEB060A5BEB070B50EBD3
:106C0000080051EB09015FF0000C4CF1000C1AEB8D
:106C1000070A5BEB080B50EB090051EB090152EB43
:106C20000C025FF0000C53EB0C0354EB0C047541A9
:106C30004CF1000CBAEB090A7BF1000B70F100007B
:106C4000B141BA4173EB0803B44175EB08056CF12F
:106C5000000CC91B72EB080273EB0903BC4175EB16
:106C600009056CF1000C5FEAEC787FEA0808D8F1BE
:106C70000009BAEB080A7BEB080B70EB080071F116
:106C8000000172F1000273F1000374EB090475EB6B
:106C900008056CF1000C5FEAEC78D8F100091AEBFA
:106CA000080A5BEB080B50EB080051F1000152F1B0
:106CB000000253F1000354EB090455EB08054CF1B5
:106CC000000C5FEAEC78D8F100091AEB080A5BEBDC
:106CD000080B50EB080051F1000152F1000253F192
:106CE000000354EB090455EB080517EE907AA7E86A
:106CF000000C87E83F00BDE8F08F00BF2DE9F007EA
:106D000091E8F807B2E802105B1854EB0C04B2E803
:106D100002104D4156EB0C06B2E802104F4158EB01
:106D20000C08B2E8021059EB01095AEB0C0A4FF0BB
:106D3000260261EB010122EA01015B1854F1000413
:106D400055F1000556F1000657F1000758F100080B
:106D500059F100095AF1000A61EB010122EA01012F
:106D60000B4480E8F807BDE8F00770472DE9F0070D
:106D700091E8F807B2E802105B1A74EB0C04B2E871
:106D800002108D4176EB0C06B2E802108F4178EBD1
:106D90000C08B2E8021079EB01097AEB0C0A4FF00B
:106DA000260261EB010102EA01015B1A74F10004A1
:106DB00075F1000576F1000677F1000778F100081B
:106DC00079F100097AF1000A61EB010102EA01019F
:106DD000A3EB010380E8F807BDE8F00770470A4617
:106DE0002DE9F04F40EC171A92EC080A1EC910EE7C
:106DF000100AA1FB00784FF00009E2FB00894FF078
:106E0000000AE3FB009A4FF0000BE4FB00AB12EE2C
:106E1000100A4FF0000CE1FB00BC4FF0000EE2FB4B
:106E200000CE4FF00005E3FB00E54FF00006E4FB69
:106E3000005604EE107A10EE900A4FF00007E1FBC6
:106E40000087E2FB6097E3FB60A7E4FB60B712EE0C
:106E5000900AE1FB60C7E2FB60E7E3FB6057E4FBFD
:106E6000606704EE908A11EE100A4FF00008E1FB13
:106E70000098E2FB60A8E3FB60B8E4FB60C813EE97
:106E8000100AE1FB60E8E2FB6058E3FB6068E4FBAA
:106E9000607805EE109A11EE900A4FF00009E1FBC0
:106EA00000A9E2FB60B9E3FB60C9E4FB60E913EE13
:106EB000900AE1FB6059E2FB6069E3FB6079E4FB67
:106EC000608905EE90AA17EE101A01F110011EC993
:106ED00010EE100A4FF0000AE1FB00BAE2FB60CAB4
:106EE000E3FB60EAE4FB605A12EE100AE1FB606A21
:106EF000E2FB607AE3FB608AE4FB609A06EE10BA7C
:106F000010EE900A4FF0000BE1FB00CBE2FB60EBD0
:106F1000E3FB605BE4FB606B12EE900AE1FB607BDD
:106F2000E2FB608BE3FB609BE4FB60AB06EE90CA88
:106F300011EE100A4FF0000CE1FB00ECE2FB605C8C
:106F4000E3FB606CE4FB607C13EE100AE1FB608CF9
:106F5000E2FB609CE3FB60ACE4FB60BC07EE10EA84
:106F600011EE900A4FF0000EE1FB005EE2FB606E56
:106F7000E3FB607EE4FB608E13EE900AE1FB609E13
:106F8000E2FB60AEE3FB60BEE4FB60CE4FF02601A7
:106F900053EC142A4FF00000E6FB0120E7FB6130C0
:106FA00057EC156AE8FB6160E9FB617059EC168AE1
:106FB000EAFB6180EBFB619017EE10AAECFB61A08D
:106FC000EEFB615000FB01F0121853F1000356F183
:106FD000000657F1000758F1000859F100095AF16D
:106FE000000A55F1000B60EB000021EA00000244AA
:106FF00017EE900A80E8CC0FBDE8F08F2DE9F0077E
:1070000091E8F0174EF6A1514FEA4101A4FB01238C
:107010004FF00004E5FB01344FF00005E6FB0145AD
:107020004FF00006E7FB01564FF00007E8FB016751
:107030004FF00008E9FB01784FF00009EAFB0189F5
:107040004FF0000AECFB019A4FF026010AFB01FA0F
:1070500012EB0A0253F1000354F1000455F100054C
:1070600056F1000657F1000758F1000859F10009E0
:107070006AEB0A0A21EA0A010A4480E8FC03BDE837
:10708000F00770472DE9F00390E8F8134FEAEC722F
:1070900002F013022CF0004C02F11301591854F1C4
:1070A000000155F1000156F1000157F1000158F1BE
:1070B000000159F100015CF100014FEAE17101F0BA
:1070C000130111445B1854F1000455F1000556F109
:1070D000000657F1000758F1000859F100094CF17A
:1070E000000C2CF0004C80E8F813BDE8F00370476A
:1070F0002DE9F05F0546002092469B4688460646ED
:10710000814640241BE0284641464746224600F07F
:107110002FF853465A46C01A914110D311461846CB
:10712000224600F016F82D1A67EB01084F4622465A
:107130000120002100F00DF817EB00094E41201E40
:10714000A4F10104DFDC484631462A464346BDE847
:10715000F09F202A04DB203A00FA02F10020704759
:107160009140C2F1200320FA03F319439040704785
:10717000202A04DB203A21FA02F00021704721FA8C
:1071800002F3D040C2F120029140084319467047F3
:1071900000487047382204002DE9FE439946154601
:1071A0008846074601AC022942D3002D40D000207A
:1071B0000290A8F101004FF0FF36009022E000FBA2
:1071C000057201FB057011464A469047002805DC10
:1071D00054F82600304444F8260013E060682A463C
:1071E00000FB057154F8040C00FB057007E00B78F8
:1071F00090F800C001F801CB00F8013B521E002AB4
:10720000F5D1764254F8040C61688842D7DC4B46CD
:107210002A463846FFF7C0FF54F8040C4B46A8EB4B
:107220000001401C00FB05702A46491EFFF7B4FF11
:10723000BDE8FE8310B5441A0346944209D284186F
:10724000114403E011F8013D04F8013D521EF9D24A
:1072500010BD40EA0104A40703D009E010C9121FC1
:1072600010C3042AFAD203E011F8014B03F8014BD2
:10727000521EF9D210BDD2B201E000F8012B491E16
:10728000FBD270470022F6E710B513460A460446C3
:107290001946FFF7F0FF204610BD421E12F8013FCD
:1072A000002BFBD111F8013B02F8013B002BF9D177
:1072B0007047421C10F8011B0029FBD1801A70474F
:1072C00010B5002200E0521C835C8C5CA34201D10B
:1072D000002BF8D1D8B2E1B2401A10BD30B5044647
:1072E0000020034600E05B1C934203D2E05CCD5CCF
:1072F000401BF8D030BD034611F8012B00F8012BDC
:10730000002AF9D11846704730B5054600200346DB
:1073100000E05B1C934205D2EC5CC85C201A01D1F2
:10732000002CF6D130BD70B5064602F03BFB046878
:1073300005460A220021304600F002F82C6070BD9C
:107340002DE9F04791460F4680460446002614F882
:10735000015B2DB1FFF71CFF0068405DC007F6D14F
:107360002B2D02D02D2D18D0641E4A4639462046BA
:1073700000F030F827B13968A14201D1C7F8008088
:1073800071054FF002040BD54042002803DD02F0E6
:1073900009FB0460A007BDE8F08746F48066E4E7D7
:1073A0000028F8DA02F0FEFA04606FF00040F2E71D
:1073B000064C074D06E0E06840F0010394E8070042
:1073C00098471034AC42F6D3FEF71EFF405C040031
:1073D000605C04002DE9F05F8246007800271546C6
:1073E0008B460AF10104B946302801D09DB113E063
:1073F00014F8010B0127782803D0582801D045B193
:107400000AE00DB1102D07D10027102514F8010B4B
:1074100002E0082500E00A250026B0460EE005FB44
:10742000080005FB06F1012701EB10461FFA80F862
:10743000B6F5803F00D3B94614F8010B294600F099
:1074400018F80028EBDABBF1000F05D00FB1641E6D
:1074500000E05446CBF80040B9F1000F06D002F02E
:10746000A1FA02210160C81EBDE8F09F48EA06406B
:10747000FAE73A2800D2303820F02002412A01D31E
:10748000A2F13700884201D34FF0FF30704770B54A
:107490008C1810F8015B15F0070301D110F8013BBF
:1074A0002A1106D110F8012B03E010F8016B01F846
:1074B000016B5B1EF9D12B0705D40023521E0DD49E
:1074C00001F8013BFAE710F8013BCB1A921C03E0EC
:1074D00013F8015B01F8015B521EF9D5A142D8D324
:1074E000002070BD2DE9F0410446B0B00D460A46BB
:1074F000684604F12007002100F0C0F804F14008BC
:107500003A46214610A804F16006FFF769FC41469F
:10751000324618A8FFF764FC4246394620A8FFF718
:107520005FFC3246214628A8FFF75AFCEB0F2046A5
:107530006A4610A900F034F930B0BDE8F08100BF10
:107540002DE9F0410446B0B00D460A46684604F104
:107550002007012100F092F804F140083A46214644
:1075600010A804F16006FFF73BFC4146324618A81C
:10757000FFF736FC4246394620A8FFF731FC324679
:10758000214628A8FFF72CFCEB0F20466A4610A9DD
:1075900000F006F930B0BDE8F08100BF2DE9F04100
:1075A000B0B0044600F1200768460D4604F14008DB
:1075B00000F098F804F160063A46214610A8FFF75B
:1075C0000FFC4146324618A8FFF70AFC42463946EE
:1075D00020A8FFF705FC3246214628A8FFF700FC4B
:1075E000EB0F20466A4610A900F0DAF830B0BDE88B
:1075F000F08100BF70B5A0B0044601F120066846D6
:107600000D46FFF7ECFB314608A8FFF7E8FB05F154
:10761000400110A8FFF7E3FB10AA11461046FFF740
:107620006DFB694618A800F007FC32462946204643
:10763000FFF764FB21462046FFF7D1FB6A4621464F
:107640002046FFF793FB04F1400508AA2146204697
:10765000FFF78CFB284608AA18A9FFF74FFB10AAD2
:10766000294604F12000FFF781FB08AA18A904F1BC
:107670006000FFF77BFB20B070BD00BF2DE9F0413B
:1076800002EBE27585EAE27582B00C4600210646FF
:1076900000F1200700F0C6FB691EC90F384600F054
:1076A000C1FB0F4B03EB442440344FF0010885EA43
:1076B0000802013AD20F21463046019208F1010832
:1076C000FEF710FF04F12001019A3846FEF70AFF89
:1076D000B8F1090F04F14004E9D102B0BDE8F0812E
:1076E000605504002DE9F04101EBE176074682B0D8
:1076F00086EAE176002100F095FB07F12008711E73
:10770000C90F404600F08EFB0C4D012486EA0402AE
:10771000013AD20F2946384601920134FEF7E2FEC3
:1077200005F12001019A4046FEF7DCFE092C05F127
:107730004005EBD102B0BDE8F08100BFA0590400C4
:10774000F0B5D1E908328E6ACD69144F8DB00C4680
:10775000110F41EA06114FEA137C1B014CEA021C8F
:1077600043EA15733A460546029104A86946360F66
:10777000CDF804C000930396FEF72AFF009B214634
:107780001B0704AA28460B93FEF78CFEEA693946CC
:10779000D20F2846FEF7A6FE0DB0F0BD40550400FE
:1077A0002DE9F0410D46A2B01646044620312A4686
:1077B00002A81F4606F120080191FFF7D7FA0199A8
:1077C0002A460AA8FFF79AFA4146324612A8FFF75E
:1077D000CDFA414632461AA8FFF790FA3A461AA95E
:1077E00012A8FEF7EAFE02A912AA0846FFF7F8FA65
:1077F0000AA91AAA0846FFF7F3FA4246314612A828
:10780000FFF7EEFA12A905F160020846FFF7E8FA61
:1078100012A90846144AFFF7E3FA05F1400211469F
:107820001AA8FFF76BFA02AA0AA92046FFF79EFAE8
:1078300004F1200502AA0AA904F16000FFF75EFA2C
:107840004034284612AA1AA9FFF790FA12AA1AA9D8
:107850002046FFF753FA3A4629462046FEF7ADFE8A
:1078600022B0BDE8F08100BFA05B04002DE9F04725
:10787000CC7F91F800A0C2B00B4604F03F04D1F8D1
:107880000110D3F809E0D3F80DC0D3F80580D3F880
:107890001560D3F81950D3F81170CDF8491044F0A1
:1078A0004004114681462AF0070202A893F81DA061
:1078B0009B7FCDF851E0CDF855C08DF866308DF83E
:1078C00067408DF84820CDF84D80CDF85D60CDF84B
:1078D0006150CDF859708DF865A000F087FA20222C
:1078E00002A91AA8FEF7B2FF02A8012100F09AFA35
:1078F0000AA8002100F096FA1AA922A82022FEF771
:10790000A5FF2AA8012100F08DFA1AAE0DF1480852
:107910000624002516F8017D47FA04F32A4603F0F1
:1079200001056A4022A902A80192FEF746FE019ACB
:107930002AA90AA8FEF741FE0AAA02A932A8FFF75F
:10794000DDF90AAA104602A9FFF710FA2AAA22A90D
:107950003AA8FFF7D3F92AAA104622A9FFF706FA98
:107960003AA908460AAAFFF73BFA2AA9084632AA0A
:10797000FFF736FA3AAA2AA922A8FFF7BFF92AA9DF
:107980003AAA0846FFF7F2F922A90846FFF727FAB4
:107990002AA90846FFF723FA2AA91AAA0846FFF7D8
:1079A0001FFA32A90846FFF71AFA0AA93AA8FFF700
:1079B00016FA3AAA32A902A8FFF712FA32A93AAA8D
:1079C0000846FFF7D3F932A90AA8FFF717FB0AA95F
:1079D00008463AAAFFF792F90AA9013C32AA0846DA
:1079E000FFF7FEF9631C97D146454FF0070491D18C
:1079F0000AA90846012200F031FA02A90AAA08469B
:107A0000FFF7EEF902A9484600F03AFB42B0BDE8A4
:107A1000F08700BF014AFFF729BF00BF20520400D2
:107A200070B500F1200690B00D46044600F05CFBF6
:107A300005F12001304600F057FB214608A8FEF76B
:107A40007FFF08A908460C4AFEF70EFF08A9224648
:107A50000846FEF776FF08A9084A0846FEF704FF25
:107A600031466846FEF76CFF694608A82022FEF7FB
:107A7000CDFE013810B070BDC05B0400E05B0400B7
:107A80002DE9F043BBB089468046114612A8514A01
:107A9000FEF708FD5049024612A8FEF723FD199E85
:107AA0004C4900EAD6760746C6F1010212A8FEF755
:107AB00019FD199D4A462AA91AA8ED4301F016F8A6
:107AC000ED0F22A9C5F10102084600F0F1FAC7F155
:107AD0000107FE2402AA1AA92AA800F0BBFF62111E
:107AE0003AAB03EB820204F01F0152F8A03CCB40FA
:107AF0002A4603F001056A402AA91AA80192FEF756
:107B00005CFD019A32A922A8FEF757FD013C2AA983
:107B10001AA800F039FF631CDCD1C5F101020AA8E4
:107B200022A900F0C5FA754002AA1AA92AA800F0F5
:107B300091FF2AA92A461AA8FEF73FFD2A4632A934
:107B400022A8FEF73AFD0AA902AA0846FEF7F9FEA6
:107B50000AA9084600F0E2FA0AA908F1200409F18E
:107B600020020846FEF7EDFE22A90AAA2046FEF7EB
:107B7000E8FE0AAA1AA902A8FEF7E3FE02A908462F
:107B8000FEF7DEFE1AAA02A90AA8FEF7DAFE2146CF
:107B900002A8FEF7D5FE0AAA02A91046FEF7A3FE28
:107BA0000E4A0AA902A8FEF79EFE20462021FEF7F3
:107BB00040FE0AA94342024602A81F43FEF7FDFC0D
:107BC0004046074A02A9FEF7BCFE38463BB0BDE876
:107BD000F08300BF205C040000550400E05B04005B
:107BE000205504000A460149FFF74ABF40520400ED
:107BF00000F044BB38B504460D4600F03FFB05F1EC
:107C0000200104F12000BDE8384000F037BB00BF80
:107C100070B5A8B005466846164600F09DFB314693
:107C2000044618A8FFF7FCFE6A46034618A908A8F0
:107C30001C43FFF725FF08A904432846FFF7D8FF98
:107C4000204628B070BD00BF30B599B005466846E3
:107C500000F082FB6946044608A8FFF7C3FF08A9A5
:107C600004432846FFF7C6FF204619B030BD00BFC9
:107C700010B52022B0B004460DEB020000F098FBD6
:107C80009DF83F309DF8202003F07F0343F0400330
:107C900022F0070208A968468DF83F308DF82020B1
:107CA00000F006FB694618A800F028F818A920463D
:107CB00000F002F830B010BD30B599B004460D4662
:107CC00010A84031012200F0C9F8294610AA6846E0
:107CD000FFF786F810AA05F1200108A8FFF780F841
:107CE00008A9204600F0CCF9684600F093F8E37F3D
:107CF00083EAC010E07719B030BD00BF2DE9F04134
:107D0000B0B0E8460446404600F002FB04F14006ED
:107D10009DF93F102046FFF7E5FC3046012100F0B9
:107D200081F804F120070DF11505214610A8FFF791
:107D300061FC18AA10A92046FFF752F828AA20A92A
:107D40003846FFF74DF820AA18A93046FFF748F843
:107D5000214610A8FFF74EFC18AA10A92046FFF7ED
:107D60003FF828AA20A93846FFF73AF820AA18A910
:107D70003046FFF735F8214610A8FFF73BFC18AA5C
:107D800010A92046FFF72CF828AA20A93846FFF7AB
:107D900027F820AA18A93046FFF722F8214610A894
:107DA000FFF728FC15F9011D10A8FFF79BFB95F9BB
:107DB000151010A8FFF7C4FB95F92A1010A8FFF7BB
:107DC000EDFB18AA10A92046FFF70AF828AA20A957
:107DD0003846FFF705F820AA18A93046FFF700F843
:107DE000A845A2D130B0BDE8F08100BF0B680360A8
:107DF0004B6843608B688360CB68C3600B69036129
:107E00004B6943618B698361CB6923F00043C36194
:107E1000704700BF10B50446FFF734F9206800F042
:107E2000010010BD0023C0E90013C0E90233C0E91E
:107E30000433C0E90633704730B589B0002400250B
:107E40000A466946CDE90045CDE90245CDE904453C
:107E5000CDE90645FEF78AFF09B030BDF0B5A1B007
:107E60000446684616460D46FEF7B9FF694618A84F
:107E7000FEF7B5FF18A90846FEF7B1FF2A4618A974
:107E800008A8FEF7ADFF6A4608A96846FEF7A8FFF6
:107E9000694618A8FEF7A3FF08AA104618A9FEF71E
:107EA0009FFF08A918A8FEF79AFF18A90846FEF731
:107EB00096FF18A90846FEF792FF18A90846FEF794
:107EC0008EFF18A90846FEF78AFF08AA18A91046CF
:107ED000FEF786FF022708A900E0012718A8FEF791
:107EE0007EFF18A90846FEF77AFF18A90846FEF794
:107EF00076FF18A90846FEF772FF18A90846FEF794
:107F00006EFF012F18A9E8D110A808AAFEF768FF94
:107F1000042710A918A8FEF762FF18A90846FEF763
:107F20005EFF18A90846FEF75AFF18A90846FEF793
:107F300056FF18A90846FEF752FF013F18A9E9D1DC
:107F400010AA0846FEF74CFF022700E0012718A9F7
:107F50000846FEF744FF18A90846FEF740FF18A997
:107F60000846FEF73CFF18A90846FEF738FF18A997
:107F70000846FEF734FF012FE8D118A908AA10A877
:107F8000FEF72EFF0A2710A918A8FEF728FF18A948
:107F90000846FEF724FF18A90846FEF720FF18A997
:107FA0000846FEF71CFF18A90846FEF718FF013F18
:107FB00018A9E9D110AA08A8FEF712FF142708A9EA
:107FC00018A8FEF70CFF18A90846FEF708FF18A925
:107FD0000846FEF704FF18A90846FEF700FF18A997
:107FE0000846FEF7FCFE013F18A9E9D108AA084699
:107FF000FEF7F6FE0A2718A90846FEF7F0FE18A9B4
:108000000846FEF7ECFE18A90846FEF7E8FE18A998
:108010000846FEF7E4FE18A90846FEF7E0FE013F19
:10802000E9D118A9084610AAFEF7DAFE18A90846F1
:1080300066B9FEF7D4FE18A90846FEF7D0FE2A4618
:1080400018A92046FEF7CCFE21B0F0BDFEF7C7FE12
:1080500018A90846FEF7C3FE18A90846FEF7BFFE9A
:1080600018A90846FEF7BBFE18A90846FEF7B7FE9A
:108070006A4618A92046FEF7B3FE21B0F0BD00BF46
:1080800038B50C4605460846FEF7FCFF23682B6012
:1080900063686B60A368AB60E368EB6023692B6186
:1080A00063696B61A369AB61E369EB6138BD00BFD4
:1080B00070B588B004460D46684620211646FEF786
:1080C000CCFB00232946204620220093FEF7BEFB6E
:1080D0002A4669466846FEF706FC3246694620464F
:1080E000FEF76BFA08B070BD0B681BBAC3614B6832
:1080F0001BBA83618B681BBA4361CB681BBA0361EF
:108100000B691BBAC3604B691BBA83608B691BBACE
:108110004360CB691BBA0360704700BF70B598B06D
:108120000C46054610A8FEF70BFC224610A968462F
:10813000FEF707FC694610A8FEF702FC10A90846E6
:10814000FEF7FEFB6A4610A908A8FEF7FAFB08A98D
:1081500010A8FEF7F5FB10A90846FEF7F1FB10A9E1
:108160000846FEF7EDFB10A90846FEF7E9FB10A94B
:1081700008AA0846FEF7E5FB10A90846FEF7E0FB53
:1081800010A90846FEF7DCFB10A96A4608A8FEF70E
:10819000D8FB052608A910A8FEF7D2FB10A90846AF
:1081A000FEF7CEFB013E10A9F5D108AA0846FEF75E
:1081B000C8FB052610A90846FEF7C2FB10A9084611
:1081C000FEF7BEFB013EF5D110A908AA0846FEF74E
:1081D000B8FB10A908A8FEF7B3FB08A90846FEF7EC
:1081E000AFFB08A96A466846FEF7ABFB1026694656
:1081F00010A8FEF7A5FB10A90846FEF7A1FB013E5B
:1082000010A9F5D122460846FEF79BFB402610A98F
:108210000846FEF795FB10A90846FEF791FB013EC4
:10822000F5D110A96A460846FEF78BFB102610A967
:108230000846FEF785FB10A90846FEF781FB013EC4
:10824000F5D110A96A460846FEF77BFB102610A957
:108250000846FEF775FB10A90846FEF771FB013EC4
:10826000F5D110A908AA0846FEF76BFB224610A913
:108270002846FEF766FB18B070BD00BFCB691BBA7D
:1082800003608B691BBA43604B691BBA83600B693F
:108290001BBAC360CB681BBA03618B681BBA43610E
:1082A0004B681BBA83610B681BBAC361704700BF80
:1082B000F0B54B078DB01AD1D1E90023D1E90245C1
:1082C000CDE90023D1E90467D1E90623CDE90245D0
:1082D000CDE90467CDE90623002200230024694686
:1082E000CDE908230A94FFF72BFA0DB0F0BD4C68D6
:1082F0008A68CB680E694D69019402928C69CA69DB
:1083000003930B680093CDE90465CDE90642E3E7EA
:10831000F0B40025471E2C462E46E30814F0070F44
:1083200008BF51F8235005F00F03334403F108024E
:1083300002F47F6601349B1B3F2C4FEA121607F8AC
:10834000013F4FEA1515C2F30712E6D12A4480F81F
:108350003F20F0BC704700BF70B50B68124E1BBACF
:10836000C3614B681BBA83618B681BBA4361CB68DE
:108370001BBA03610B691BBAC3604B691BBA8360EC
:108380008B691BBA4360CB691BBA03603246014656
:108390000446FEF787F80546314620462A46FEF792
:1083A000A1F8681E70BD00BF005C04000000000062
:1083B0002DE9F04F0FF2E80BDBE900AB0FF2E80913
:1083C000D9E90089B3B0CDE900ABCDE902890FF25C
:1083D000E00BDBE900AB0FF2E009D9E90089CDE958
:1083E00004ABCDE906890FF2D80BDBE900AB0FF245
:1083F000D809D9E90089CDE908ABCDE90A890FF29E
:10840000D00BDBE900AB0FF2D009D9E900890025D8
:10841000CDE90CABCDE90E890646319230955AB9BB
:108420006F464FF0000C31463846CDF8C0C000F022
:1084300057F833B0BDE8F08F6F463846144688468B
:1084400000F0B0FB241A844644440028E9D0431EBF
:10845000022B0FD920F003002044234610AA53F822
:10846000041B42F8041B8342F9D12CF00305654537
:108470002C44D8D032AB2B44227803F8882C6B1CC8
:108480009C45D0D932AA13440235627803F8882C6F
:10849000AC45C8D932AB1D44A37805F8883CC2E787
:1084A00008C9BCF367E6096A3BA7CA8485AE67BB07
:1084B0002BF894FE72F36E3CF1361D5F3AF54FA532
:1084C000D182E6AD7F520E511F6C3E2B8C68059B0E
:1084D0006BBD41FBABD9831F79217E1319CDE05BC6
:1084E000F0B5D0F8C0300446C218581C8026702859
:1084F00083B00D4682F840606FD804F14001C0F1AE
:108500007A03022BC0F17B070FD900F1400323440B
:1085100027F003021A44002643F8046B9A42FBD169
:1085200027F00303BB42184411D0231800227A28F5
:1085300083F8402000F1010309D02344792800F199
:10854000020683F8402002D0264486F84020D4F862
:10855000C430580F5A0D84F8BB0084F8BC20580B67
:108560005A09DB0084F8BD0084F8BE2084F8BF30CF
:10857000204600F0A5FCD4E9002312BA1BBA6A60B9
:108580002B60D4E9022312BA1BBAEA60AB60D4E9CB
:10859000042312BA1BBA6A612B61D4E9062312BA0A
:1085A0001BBAEA61AB61D4E9082312BA1BBA6A624A
:1085B0002B62D4E90A2312BA1BBAEA62AB62D4E98D
:1085C0000C2312BA1BBA6A632B63D4E90E2312BAC6
:1085D0001BBAEA63AB6303B0F0BD7F2862D82044C6
:1085E00000227E2B80F8402003F102015AD0214462
:1085F0007D2B03F1030081F8402053D020447C2BD5
:1086000003F1040180F840204CD021447B2B03F17E
:10861000050081F8402045D020447A2B03F1060163
:1086200080F840203ED02144792B03F1070081F8E7
:10863000402037D02044782B03F1080180F84020F7
:1086400030D02144772B03F1090081F8402029D054
:108650002044762B80F8402003F10A0122D02144E7
:10866000752B03F10B0081F840201BD02044742BA4
:1086700003F10C0180F8402014D02144732B03F146
:108680000D0081F840200DD02044722B03F10E0123
:1086900080F8402006D02144702B81F8402001D181
:1086A00084F8BF2004F140012046019100F008FC4D
:1086B0007A2801997FF623AF49E700BF2DE9F04FF3
:1086C00093B0A1F108030C93D2E90EB30D93136B91
:1086D0000393536B0493936A0593D36A0693936948
:1086E0000E93D3690F9393680193D3680993136929
:1086F0000793D2E90876D2E9005A536908930346F2
:1087000080330A9011930095B44602975646CDF8EF
:1087100040B008E0009900930B9B09960191064632
:108720000293CC461F460A990C9C059DF4E90289E8
:10873000F1E802ABB80BBB0C0A910C9440EA8C40F8
:10874000039CF90543EA8C331AEB080E83EA000315
:1087500041EA5C214BEB090B4B4084EA05094FEAE7
:108760009C304FEA9C414FEACC58049D41EA873146
:1087700048EA572840EA874009EA0709069F484027
:1087800085EA07040399009F04EA0C0413EB0E0327
:1087900089EA010984EA050480EA08003D464FEAB7
:1087A00017784FEA877E4FEA4761019F4BEB000045
:1087B00013EB090344EB0000B946109C2F4645EA31
:1087C000090B079D1B194FEA16794FEA86740BEACD
:1087D000050B49EA07193D4644EA9704019F05EA5B
:1087E000070A0D9D099F40EB050528460E9D5D1962
:1087F00048EA06180B954EEA960E009D88EA0E0E82
:108800004FEA466848EAD51841EAD611089D8EEA33
:1088100001014BEA0A0A46EA070E06EA070B0F9F18
:1088200089EA04040EEA050E059D156340EB07096D
:10883000079D069F576311EB0A0A84EA080803990B
:10884000049C9163D4639561029F1091C2E90A7CF4
:10885000019F1761009F05990391C2E902760B9F62
:10886000069917624EEA0B0E029F089D049148EB91
:108870000E0E0799D5611AEB0303CDE9057C099D1E
:10888000019F0E914EEB000008990D940F91C2E9E3
:1088900000305561C2F82490079708950A99119CF9
:1088A000A1427FF437AF13B0BDE8F08F2DE9F04F50
:1088B000A0F1080685B00025AA1E02F00F022B4683
:1088C000013500EBC20105F00F0450F832E04A68B0
:1088D00050F83410073B00EBC40403F00F0300EB27
:1088E000C3034FEADE474FEACE0BD4F804C04BEA8D
:1088F000527BD3E9004A47EA42374FEA9E13F6E932
:10890000028987EA0B0743EA82637B404FEAD24B36
:108910000393D30014EB0804CDE900894BEA4E3BE6
:108920004FEA112843EA5E7E4FEA510348EA0C6899
:1089300043EACC738BEA0E0E4FEA5C094FEA1C2B1C
:1089400083EA080349EAC1794FEAD1184BEA016B7F
:10895000019F039948EA4C684AEB070A8EEA921293
:10896000611883EA080389EA0B044AEB020284EAED
:10897000DC1CC91842EB0C02102DC6E900129BD179
:1089800005B0BDE8F08F00BFF0B599B004460D46C4
:108990000A4601466846FDF7A6FF69466846FDF7A8
:1089A000CFFF21466A4608A805F1200604F12007FA
:1089B000FDF7C7FF6A4629466846FDF7C2FF3946FC
:1089C000324610A8FDF750FF324639463046FDF7D3
:1089D0008AFF31462846FDF7B3FF6A4608A92046BC
:1089E000FDF742FF224629462846FDF77CFF6A46EE
:1089F00008A96846FDF777FF6A4639463846FDF70D
:108A0000A0FF2A4608A96846FDF76DFF6A46314671
:108A10003046FDF796FF3A4631463046FDF763FF94
:108A200010A96846FDF78CFF224669462046FDF7EF
:108A30005AFF08A922460846FDF755FF10A908AAC3
:108A40000846FDF77EFF3A4610A93846FDF74BFF72
:108A500019B0F0BD2DE9F0410C4688B005469046AE
:108A6000014622466846FDF73EFF69466846FDF727
:108A700067FF6A462946284604F12006FDF761FF94
:108A800005F120076A4621466846FDF75AFF32463F
:108A900030463946FDF727FF31462046FDF750FFA7
:108AA0002A4621462046FDF71EFF6A4621462046FB
:108AB000FDF719FF6A4629464046FDF714FF424676
:108AC00039463846FDF73DFF224629466846FDF700
:108AD0000AFF6A4631463046FDF733FF3A463146D3
:108AE0003046FDF700FF08B0BDE8F0812DE9F04108
:108AF00088B00C46064602F12001684606F12007C0
:108B00009046FDF71DFF6A4669466846FDF7ACFED4
:108B100038466946FDF714FF3A463946384604F1AF
:108B20002005FDF7A1FE6A4669466846FDF79CFEF2
:108B300028464146FDF704FF6A4641463046FDF7A8
:108B400000FF2A4629466846FDF78EFE2A466946FA
:108B50006846FDF789FE124A69466846FDF784FEBD
:108B600069462046FDF7ECFE324621462046FDF7D9
:108B7000BAFE324621462046FDF7B5FE2246314672
:108B80002846FDF7B0FE6A4629462846FDF7D9FE7D
:108B90003A4629462846FDF7A6FE08B0BDE8F08112
:108BA000C05B04002DE9F04FBDB07F2A0B9240F26C
:108BB00079818246A2F18004DAF818300193DAF85C
:108BC0001C300293DAF820300393DAF8243004934F
:108BD000DAE90AB3D0E90020DAE9046524F07F0479
:108BE00089468034DAE902174C440593DAE90D8EA0
:108BF000DAF8303006930A94DAF83C30CDF81CB03D
:108C000014462A463D461746D9F80C200C94D9F84C
:108C1000084008940D901197D9F81400099017BADC
:108C2000089A109616BA099A0F9515BA019A1292D7
:108C3000029A1392039A1492049A1592079A169222
:108C4000059A1792069AD9F804B0D9F800C0D9F855
:108C50001040D9F81C000E91D9F81810CDE9182849
:108C6000CDE91AE3D9F848300193D9F8543002938A
:108C7000D9F850300393D9F85C300493D9F85830C0
:108C80000593019BD9F82080D9F82CE0D9F84C2025
:108C90009BFA8BFB9CFA8CFC24BA00BA09BA1BBA6B
:108CA000CDE91CBCCDE91E76D9F824B0D9F828C08E
:108CB000D9F83470D9F83060CDE92054CDE92201DB
:108CC000D9F83C50D9F83840D9F84400D9F84010C8
:108CD0002F93029B1BBA3093039B1BBA3193049BC7
:108CE0001BBA3293059B98FA88F89EFA8EFE9CFA7E
:108CF0008CFC3FBA36BA2DBA24BA1BBA9BFA8BFB4E
:108D0000CDE926ECCDE92876D9F860E0D9F86CC039
:108D1000D9F86870D9F874603393CDE92A54D9F83A
:108D20007830D9F87050D9F87C40CDE924B8D9F81A
:108D3000648000BA09BA12BA9EFA8EFE9CFA8CFCC4
:108D40001BBACDE92C012E921CA90CAA574898FAFF
:108D500088F83FBA36BA2DBA24BACDE9348ECDE9B7
:108D600036C7CDE93865CDE93A43FFF7A7FC1CA823
:108D7000FFF79CFD0CAA1CA94D48FFF79FFC1CA8FF
:108D8000FFF794FD0CAA1CA94A48FFF797FC1CA802
:108D9000FFF78CFD0CAA1CA94748FFF78FFC1CA805
:108DA000FFF784FD45480CAA1CA9FFF787FCDDE905
:108DB0000C40DAF80020DAF808300E99119F1419E7
:108DC000DAF80420CAF80040DAE9035642EB000062
:108DD00059180F9BDAF8242043EB0505109BF61871
:108DE000DAF8143043EB0707DAF81830CAF81470D1
:108DF0009C46129B1CEB03030193DAF81C309C4643
:108E0000139B4CEB030CDAF82030CDF808C09C46DD
:108E1000149B1CEB030C159BCDF80CC043EB02021A
:108E2000019B0492CAE90101CAE90356CAF8183045
:108E3000029BCAF81C30CAE908C2169BDAF828203F
:108E4000D3180793179ACAF82830DAF82C30534110
:108E50000593189ACAF82C30DAF830309B1806932C
:108E6000199ACAF83030DAF8343043EB0208DAF8ED
:108E700038201B9BCAF8348094461A9A1CEB020EC9
:108E8000DAF83C2042EB03030A9A09F18009914584
:108E9000CAE90EE37FF4B8AE0B9B03F07F003DB050
:108EA000BDE8F08F10463DB0BDE8F08F8052040061
:108EB0000053040080530400005404008054040054
:108EC0002DE9F041D1F804C00D68CC688A684B697F
:108ED0000F69CE69B0B080469CFA8CFC2DBA24BADA
:108EE00012BA1BBACDE910C5CDE913231294D8E903
:108EF0000223D8E900453FBA36BACDE91576CDE967
:108F00000045D8E90467D8E90645CDE90223D8E948
:108F10000823CDE90467CDE90645D8E90A67D8E911
:108F20000C45CDE908238869D8E90E2300BACDE9BC
:108F30000A67CDE90C451790CDE90E23CF6A8E6AFA
:108F40004D6B0C6BC86B8A6B4B6CD1F824E0D1F87D
:108F500020C03FBA36BA2DBA24BA00BA12BA1BBA28
:108F60001A971B960F6CCE6C1C951D948D6C4C6DD6
:108F70001E901F92086DCA6D20938B6D9EFA8EFE17
:108F80009CFA8CFC3FBA36BA2DBA24BA00BA12BA8F
:108F90001BBACDE92176CDE92354CDE92502CDE9EF
:108FA00018EC2793D1F864E0486FCA6F534CD1F89E
:108FB00060C0CF6E8E6E0D6F8B6F00BA11BA9EFAC5
:108FC0008EFE9CFA8CFC1BBA6A462C902E91204691
:108FD00010A93FBA36BA2DBA2F93CDE928ECCDE9C6
:108FE0002A762D95FFF76AFB10A8FFF75FFC6A460B
:108FF00010A904F18000FFF761FB10A8FFF756FCF1
:109000006A4610A904F58070FFF758FB10A8FFF717
:109010004DFC6A4610A904F5C070FFF74FFB10A87D
:10902000FFF744FC6A4610A904F50070FFF746FB01
:10903000D8F80000009DD8F80410019ED8F8083038
:10904000029CD8F80C20D8F81070401946EB0101AA
:10905000039DC8F800000498C8F804101B1905996E
:10906000D8F81440D8F81860C8F8083045EB020268
:10907000069B079DC8F80C203F1844EB0101D8F867
:109080001C00089AC8F81070D8F82070C8F814109E
:10909000F6180999D8F82430C8F8186045EB000094
:1090A000BA1841EB0303C8E90702C8F82430D8E92D
:1090B0000A01DDE90A56D8F830300C9CD8F8342083
:1090C000D8F83870401946EB01010D9DC8F828000A
:1090D0000E98C8F82C101B190F99D8F83C40C8F806
:1090E000303045EB02023818C8E90D2044EB01018D
:1090F0000020C8F83C1030B0BDE8F0818052040078
:109100002DE9F8430025DFF894804FF480760124A0
:109110002F46009530460DF02DFE38B1D8F80403E7
:10912000204203D030460DF01BFE2543361D64005F
:109130007F1CB6B2082FEDD34FF4BE7420460DF05D
:1091400019FE48B120460DF00BFE45F000456A4679
:10915000012100200DF0D4FD15F0FF0F16D00126DF
:1091600000242E420ED008EB8401D1F81005D1F86E
:109170001015C0F304200A4AC1F3014152F824201B
:1091800002B190477600641C082CEAD3002D02DA65
:10919000684613F0B7F8BDE8F883000000600040AF
:1091A00010A100201CB582460EF066FA0DF0F4FF07
:1091B0000028FBD136485FEA0A0507683648374978
:1091C000344EA0EB01004FEAD0004FF0010808EB4D
:1091D000004470881ED0002821D0204630A1AA6902
:1091E0000EF01CF97088002819D0D5E90201CDE9EC
:1091F0000001D5E9002320462FA10EF027F9708841
:1092000068B1E8690090D5E90423204638A10EF042
:1092100014F904E018B120463FA10EF0FBF81C48F9
:10922000001D0068800705D5708818B120464749A1
:109230000EF0F0F8DFF81891002500BF08FA05F0ED
:10924000384208D059F825202AB1708818B1204634
:1092500040A10EF0E3F86D1C1A2DEFD3380608D5A7
:10926000708830B10A480C30026820463CA10EF0EC
:10927000D5F8380408D5708830B105481030026838
:1092800020463FA10EF0CAF8504600F087F80000D3
:1092900028ED00E010800020905E0400385D04009E
:1092A00048415244204641554C5420617420307846
:1092B0002530385800000000202052303A2020305D
:1092C0007825303858202052313A20203078253007
:1092D0003858202052323A20203078253038582013
:1092E0002052333A202030782530385800000000D2
:1092F00020205231323A2030782530385820204C06
:10930000523A202030782530385820205053523A95
:109310002030782530385800537461636B207669AB
:109320006F6C6174696F6E3A20737461636B207047
:109330006F696E746572206F7574736964652073EC
:109340007461636B20617265612E0000A83C0400AB
:10935000687D002043617573653A2025732E0000F7
:109360004D656D4D616E616765204661756C742059
:10937000416464726573733A203078253038580040
:10938000427573204661756C742041646472657324
:10939000733A20307825303858000000BFF34F8FE3
:1093A00005480168054A01F4E06111430160BFF31B
:1093B0004F8F00BFFDE700000CED00E00400FA0550
:1093C0002DE9FF5F4FF4827420460EF063FA48B136
:1093D00002200EF06FFA28B120460EF063FA022048
:1093E0000FF09CFA4FF48C700EF054FADFF8849171
:1093F000614F624E624C4FF000084FF4947A4FF484
:10940000867B78B340200EF055FA58B34FF48C7039
:109410000EF048FAB069CDE90008D9F800000390D1
:109420005448143000685546C0F30B001038C0F3A0
:10943000CC00029050460EF02DFA60B138150EF0B7
:1094400039FA40B1386800F00D00019028460EF05E
:1094500029FA0D203860616809B168468847584686
:109460000EF020FA4FF488700EF014FAA0B110201C
:109470000EF020FA80B14FF488700EF013FA06F166
:1094800028000FC88DE80F003E491820C1F80803D6
:10949000616809B1684688474FF4A6700EF0FAF982
:1094A000354D083D28B34FF400200EF003FA00B309
:1094B0004FF4A6700EF0F6F94FF48C700EF0F2F93E
:1094C00050460EF0EFF958460EF0ECF94FF4887064
:1094D0000EF0E8F900200FF095FA0D2038602860B2
:1094E00006F138000FC88DE80F00616809B16846C1
:1094F00088474FF48E7A50460EF0CCF9C0B18020E8
:109500000EF0D8F9A0B12F6850460EF0CBF94836CE
:1095100096E80F008DE80F00F80707D001202860BB
:109520008DF80480616809B1684688470D2028607D
:109530005D4658460EF0AEF9002819D008200EF00E
:10954000B9F9002814D028460EF0ACF9616800295A
:109550000ED008200090D9F80000029005480C3089
:10956000006840F2FF1202EAD00001906846884786
:10957000BDE8FF9F105500400C54004000F7030069
:109580006CA100200050004070B54FF4807630464A
:109590000CF016FB114CB50560B130460CF017FB12
:1095A0000120C5F80803607920B9012060712168A5
:1095B000002088474FF4827630460CF001FB0028EB
:1095C0000AD030460CF003FB0220C5F808032168DE
:1095D000BDE870400120084770BD0000787C002085
:1095E000064882B0002101600068009004480068CD
:1095F0000449C0B2496802B00847000000D10040E9
:1096000008D50040947C002002490248091F0968DF
:10961000006808471C7D00200149024814F053BC33
:1096200088A10020003000400EF096BEF0B5A4499D
:10963000A4484FF080540B68D4F830210078D4F857
:109640003411551CC0F3031006D0944601270026A0
:10965000BCF1060F03D00AE003F0FF0CF6E7B4F804
:109660002453DFF864C2C5F30425CCF80050DDB202
:10967000062D06D1032804D1DFF854C2934DCCF84F
:109680007450551C04D09446BCF1060F03D00AE078
:1096900003F0FF0CF8E7D4F84452DFF838C2C5F302
:1096A0004235CCF80050DDB2062D08D1032806D192
:1096B000894DD5F800C02CF0807CC5F800C0551C41
:1096C00004D09446BCF1060F03D00BE003F0FF0C6E
:1096D000F8E74FF08045C5F80C61C5F810617D4D85
:1096E0002D1F2E60DDB2062D08D1032806D1DFF82C
:1096F000E4C103250CF1640CCCF80050DDB2062D5A
:1097000010D103280ED1DFF8D4C10525CCF80050C4
:10971000724D78352F60714D08352E600CF10406BE
:109720003F253560551C04D016460D46062E03D045
:109730005BE0DEB20546F9E7ED1E012D55D9684D17
:109740002D68684E3560664D2D1D2D68361D3560BF
:10975000634D08352D68361D3560614D0C352D681B
:10976000361D35605E4D10352D68361D35605C4DFB
:1097700014352D68361D3560594D18352D68594EF4
:1097800020363560564D1C352D68361D3560544DDC
:1097900020352D68361D3560514D24352D68361D18
:1097A00035604F4D28352D68361D35604C4D2C35B4
:1097B0002D68361D35604A4D30352D68494E40368E
:1097C0003560474D34352D68361D3560444D38358C
:1097D0002D68361D3560424D3C352D68361D35608F
:1097E0003F4D40352D68361D3560551C03D016465B
:1097F000062E02D007E0DEB2FAE7D4F858523A4E0D
:1098000005F04F053560551C03D01346062B02D0DA
:1098100008E0DBB2FAE735480368DB0702D06FF0F7
:1098200001030360062A07D1C91E022904D9304862
:10983000016841F48061016027487438016841F48F
:1098400070010160BFF34F8FBFF36F8FD4E94C10ED
:109850004FF01022062907D1C01E032804D9D2F8E0
:1098600008021C491C310860D2F80002002803DB02
:10987000D2F8040200281FDA01200FF0EFFE1521B4
:10988000C2F800121B480368002BFCD0C2F8041277
:1098900001680029FCD000200FF0E0FEBFF34F8FDD
:1098A0000D48F0380168144A01F4E0611143016089
:1098B000BFF34F8F00BFFDE7114910480860F0BDAE
:1098C000E00F00F0E80F00F0403501400DF0ADBAB8
:1098D00000C007403C050040FCED00E01056004091
:1098E0000404001020C50040E40E004000040040C5
:1098F0003C17004000E401400400FA050090D0034A
:10990000B87E00202DE9F047104E062700244FF4C2
:10991000A0784FF4803900BF08EB840509FA04F001
:10992000715961B1D6F80413014208D02946304676
:109930000EF0D8FD0648D0E9002128469047641C67
:10994000E4B2BC42E8D3BDE8F087000000B00140BB
:109950007CA1002001480068004700008C7C0020AA
:10996000002809DB00F01F0201219140400980001E
:1099700000F1E020C0F88012704700000FB4084BDF
:1099800010B504A902AA039800F0E4F8044602A95D
:10999000002000F03FFA204610BC5DF814FB0000E8
:1099A000159E020000487047F47E002002E008C8BF
:1099B000121F08C1002AFAD170477047002001E049
:1099C00001C1121F002AFBD170470000012120288D
:1099D00003DA81400548014003E0402802DA2038DC
:1099E000814009B10120704700207047FC06FFBD8F
:1099F0002DE9F843814643F2020759B9694611F04F
:109A0000A1FDB84202D008B100F030FC9DF8000082
:109A1000800757D40021484611F09EFD050051D023
:109A2000112D4FD029482A49DFF89C80401AC608DA
:109A3000022000EB06440D2D0ED00B2D29D0B8F8D6
:109A40000200BD422DD102283CD3224920464A467D
:109A5000BDE8F8430DF0E2BCB8F80200022804D3D8
:109A600020464A461C490DF0D9FC1321484676DFB2
:109A7000002827D0B8F80210022923D30EF028FDC1
:109A8000024601B020464B46BDE8F04313A10DF05D
:109A9000CCBCB8F80200022814D320464A461D491F
:109AA000D6E750B128460EF013FD0246012000EB28
:109AB00006404B4618A10DF0B8FC2846BDE8F84317
:109AC00000F0D4BBBDE8F883B47F0020D85D04006B
:109AD000385D0400E03404006C34040073645F6299
:109AE0006C655F6761705F646973636F6E6E6563F9
:109AF0007428292072657475726E65642025732040
:109B00006F6E20636F6E6E5F68616E646C6520259A
:109B1000642E00002C350400417373657274696E05
:109B2000672E20706D5F636F6E6E5F736563757215
:109B30006528292072657475726E6564202573200E
:109B40006F6E20636F6E6E5F68616E646C6520255A
:109B5000642E00002DE9FF4F8DB09B460F46044652
:109B6000002606E025280BD05A460F999047641C22
:109B7000761C20780028F5D111B03046BDE8F08F72
:109B80000025A8460122984900E0054314F8013F4A
:109B9000203B02FA03F00842F7D120782E2817D193
:109BA00014F8010F45F004052A280ED06FF02F029B
:109BB0002078A0F1300109290AD808EB880102EBCE
:109BC000410100EB0108641CF2E757F8048B641CA8
:109BD00020786C280DD004DC4C2812D06A2811D1D2
:109BE00004E074280DD07A280CD10AE045F4001561
:109BF00007E0617845F48015814202D1641C05F5C7
:109C00008015641C2278692A45D008DC002AB3D06C
:109C1000582A69D0632A10D0642A08D13BE0702A00
:109C200067D0732A13D0752A5CD0782A5CD010468E
:109C30005A460F999047761CD3E017F8040B8DF81D
:109C4000000000208DF80100E946012003E057F8EC
:109C5000049B4FF0FF3069074FF0000501D40AE084
:109C60006D1C45450DDA8542FADB19F8051000290F
:109C7000F6D106E06D1C8542FCDB19F805100029C1
:109C8000F8D12E4404E019F8010B5A460F99904779
:109C90006D1EF8D2A5E00A200021CDE90801C5F328
:109CA000025002280DD001CFC117031E71F100032D
:109CB0000DDA4FF0000CD0EB0C006CEB01012D2302
:109CC00008E0FF1D27F00707F7E80201EDE72B0585
:109CD00004D52B238DF8283001233BE0EB0739D046
:109CE0002023F7E70A2000E010200021CDE9080139
:109CF00007E01020002145F00405CDE908014FF0F0
:109D00000808C5F3025002280FD001CF00214FF000
:109D1000000A2B071FD5702A0DD0DDE908C38CF08F
:109D2000100C5CEA030C0CD015E0FF1D27F00707B0
:109D3000F7E80201EBE740228DF828204FF0010AF6
:109D40000BE050EA010306D030238DF828308DF85F
:109D5000292002239A46582A04D024A20DF1200972
:109D60000B9209E026A2F9E7DDE90823FDF7C0F927
:109D70000B9B9B5C09F8013D50EA0102F4D1ADEB6D
:109D8000090020300890680701D44FF001080899B5
:109D9000884502DDA8EB010000E000208046002598
:109DA00006E00AA85A46405D0F9990476D1C761C44
:109DB0005545F6DB04E030205A460F999047761C53
:109DC000B8F10001A8F10108F5DC05E019F8010B74
:109DD0005A460F999047761C0899481E089000290A
:109DE000F4DC641CC5E60000092801003031323380
:109DF00034353637383961626364656600000000C7
:109E000030313233343536373839414243444546B0
:109E1000000000000A68531C0B601070704710B5FA
:109E200060B159B102780B785208B2EB530F05D1EB
:109E30000622401C491CFDF751FA08B1002010BD54
:109E4000012010BD800701D000207047012070471D
:109E5000C3688B4206D811440069491E814201D86B
:109E6000012070470020704701460148FDF743BAC2
:109E70002488002070B5094D06460024C4EBC400B8
:109E80002844314607F08EFC08B1204670BD641CA2
:109E9000E4B2062CF2D34FF6FF7070BD9888002014
:109EA00000220249401C02F0BBBB0000FC890020DC
:109EB00010B507F0D3FC002805D004F093FFBDE8EF
:109EC000104012F035BF10BD90F82400012801D0D9
:109ED0001F207047EE20704770B5022001F080FC13
:109EE0000321104800F0E3FD0F49104B0322C91A6B
:109EF000C9080F4D02EB014412280BD008B100F045
:109F0000B5F9688803280BD320460AA1BDE8704044
:109F10000DF080BA6888032802D3204608A1F5E72F
:109F200070BD00008C810020D05E0400385D04000C
:109F3000308000204164766572746973696E6700D1
:109F40004D6178696D756D20636F6E6E65637469C0
:109F50006F6E20636F756E742065786365656465E8
:109F6000642E0D0A0000000010B5022001F030FC44
:109F7000084890F8540074DF002809D0082807D05A
:109F8000A0F54051043903D0BDE8104000F06EB98F
:109F900010BD00008C81002010B50122022100209C
:109FA00001F0BCFC08B1072810D1072202210120D2
:109FB00001F0B4FC08B1072808D100210A220846A4
:109FC00001F0ACFC08B1072800D1002010BD000052
:109FD00000B5ABB0AC216846FDF754F902208DF80E
:109FE000000001218DF802100622ADF810008DF856
:109FF00003200C4805904FF49670229044F2506074
:10A000008DF87C102390084829906946074800F095
:10A010009DFC08B100F02AF90121044800F093FCEE
:10A020002BB000BDDA790020799603008C810020E6
:10A0300070B58CB015460E4600236C46C3F10F0177
:10A04000415CE1545B1C102BF8D30D2104F110008E
:10A05000FDF718F90020C0F10F02315C2244401CCA
:10A0600011740328F7D3684646DF0020C0F10F01C2
:10A07000214491F820102954401C0328F6D30CB039
:10A0800070BD000070B5254CA0421ED1F1B1012970
:10A0900036D0022928D0032917D1072009F0DCFB8C
:10A0A000002812D194F8680094F8691088420CD105
:10A0B00094F86A00002808D10023D4E901501A4618
:10A0C0000321A847012084F86A0070BD052009F02B
:10A0D000C3FB0028F9D1A06864680023A446BDE84A
:10A0E00070401A460121604710461900EDD0002843
:10A0F000EBD00278302AE8D1BDE8704009F0CCBB43
:10A10000082009F0A9FB28B9A068002364681A4652
:10A110000221A047BDE8704009F072BC0CAA0020E3
:10A12000022001F043BB00000149C97800F03EBFA6
:10A13000407C002070B50024064D06E068680121CF
:10A1400010F834000EF074FA641C28788442F5D3B9
:10A15000002070BDA07C0020F8B516460C460546D0
:10A160000A2A01D20720F8BD0EF05CFB18B90EF0E8
:10A170001FFB0028F7D1134F102113487D603C705E
:10A18000BE60FDF77FF80020C7E904000F4E0DE028
:10A1900005EBC4003168009181788DF801100078DA
:10A1A0000B4A69460EF094FA0028DCD1641EE4B232
:10A1B000EED2BDE8F84005480021064A001D00F037
:10A1C00067B80000A07C002014A2002060F7030004
:10A1D0001D0A030095F4020072B60DF04DFA00BF9F
:10A1E0000CF0DAFF0028FBD1144D154915486A8898
:10A1F000081AC4082AB1012000EB044012A10DF096
:10A2000009F914480068C00700D000BE6888022819
:10A2100005D3022000EB04400FA10DF0FBF8BFF3C3
:10A220004F8F0C48E43801680F4A01F4E061114394
:10A230000160BFF34F8F00BFFDE7000030800020BA
:10A24000D05E0400385D0400466174616C20657264
:10A25000726F7200F0ED00E053797374656D2072D7
:10A2600065736574000000000400FA050EB5002156
:10A270000091CDE901106A4644F20100FFF7ACFFFE
:10A280000EBD0000014805F0C2B90000E87C0020C6
:10A290003AB100680129426100D00021016100202B
:10A2A000704707207047000038B51148082358222E
:10A2B000416800910F4900680AF005FA002815D19D
:10A2C0000D4A69460D4805F0A7F904000ED1012199
:10A2D0000A4805F026FA0123094A1946074805F0FD
:10A2E0006EF90649012008390870204638BD000083
:10A2F00068F7030024A2002001CB0300E87C0020C3
:10A30000FFFF7F0070B5044690F820000D4608B1AD
:10A31000002070BDA26106F067FB401941F1000109
:10A32000C4E90201206900B125612146BDE8704001
:10A33000002013F077BD0146002081F820000120A5
:10A3400013F070BD30B5EFF3108172B60D4A94680A
:10A35000012324B10370002900D162B630BD93609F
:10A360004FF0E023D3F88051074C25401560C3F827
:10A370008041D3F8844154605A17C3F884210022E5
:10A380000270E8E77CA20020FC06FFBD0B498A684A
:10A39000002A11D000280FD1EFF3108072B60B689D
:10A3A0004FF0E022C2F800314B68C2F804310022BD
:10A3B0008A60002800D162B6704700007CA20020AD
:10A3C0002DE9F041064608680C46411C4FF0A047B5
:10A3D0004FF0010506D005FA00F1C7F8081520680E
:10A3E0000CF068FC6068411C02D000210CF050FCAD
:10A3F0003168A069C1F82405607D227D3168104371
:10A40000C1F86C05D4E900123068C0F81425C0F812
:10A410000C15207D012815D1A068411C02D0002117
:10A420000CF036FCE068411C05D08540C7F80855A3
:10A43000E0680CF03FFCD4E902123068C0F808254F
:10A44000C0F81015BDE8F0812DE9F0410646086816
:10A450000C46411C4FF0A0474FF0010506D005FA0D
:10A4600000F1C7F8081520680CF02EFC6068411C4C
:10A4700002D000210CF015FC3168A069C1F8240558
:10A48000607D217D32680843C2F86C05D4E9001272
:10A490003068C0F80C15C0F81425207D012815D1AE
:10A4A000A068411C02D000210CF0FBFBE068411CBD
:10A4B00005D08540C7F80855E0680CF005FCD4E9E4
:10A4C00002123068C0F80825C0F81015BDE8F08108
:10A4D00007F02EBC2DE9F04F8246058850484FF01A
:10A4E000000889B001784246284600F077FD9AF8C6
:10A4F0000500400701D4002182E005F58077B8B25D
:10A5000005AB0122072110F007FC04004648474A2A
:10A510004FF00101A0EB0200DFF808914FEAD000F4
:10A5200001EB00460DD0B9F8020040B120460DF015
:10A53000CFFF024630462B463D490CF076FF2146C0
:10A540002CE0284606F08CFF4FF6FF710446884247
:10A550002ED18B46069806F0EDFE0446584510D0E5
:10A560000146284606F05CFF2846FFF7DDFDF8B9F6
:10A57000284612F045FE2846FFF7D6FD0028BAD03F
:10A5800016E010F0B5FD044658450BD1B9F80200AD
:10A5900018B1304627A10CF03DFF0421284612F0E7
:10A5A0005DFEA8E70146284606F03AFF4FF0010895
:10A5B000B8B22246072110F02DFC07001FD0862FCD
:10A5C00022D0B9F8020048B138460DF081FF0246AA
:10A5D00030462B46244900940CF02FFF394628467C
:10A5E00012F03CFE0021504610F080FAB8F1000F46
:10A5F00002D0204606F01EFF09B0BDE8F08F012111
:10A60000504610F073FAF7E7142218496846FCF731
:10A6100011FEADF80250684605F0BAFAEFE7000007
:10A62000407C0020B87F0020E05D0400385D04001D
:10A6300028380400436F756C64206E6F7420616C61
:10A640006C6F63617465206E657720706565725FFD
:10A65000696420666F7220696E636F6D696E672032
:10A66000626F6E642E00000044390400CCF50300D4
:10A67000F0B500220D4BCA60C1E901230C4B0D4D12
:10A680001446EE1A0A600CE003EB0215EF683F79FE
:10A69000FF2F05D0A04202D1A8680860F0BD641C5D
:10A6A000521CB2EB161FEFD3F0BD000008FC0300F4
:10A6B000185D0400385D040070B5044690B0087B56
:10A6C0000D468DF83800202105A8FCF7DBFD42F689
:10A6D0001920ADF814000120ADF81800ADF81A00EB
:10A6E0000EA80790617C9DF82100A21D61F3041063
:10A6F00040F002008DF82100A87B8DF82700687BD0
:10A700008DF82500A08805A901F078FD00281CD14E
:10A71000A968E1B10FA800F03BFF06461421684686
:10A72000FCF7B0FD42F60810ADF80000E87B8DF8AC
:10A7300006000FA8ADF80A60ADF80E600490E0883E
:10A7400004F10E02694604F04FFE10B070BD002007
:10A75000E081FAE70A4601461046AEDF70472DE970
:10A76000FC47002517880646158090F82D001446F2
:10A77000894630B13A462146484600F055FC051E50
:10A7800009D1B0784FF00C0A18B32088C846001DD4
:10A79000B84202D95046BDE8FC87684679DF0028F8
:10A7A000F9D12088032108F8001020881921401CC5
:10A7B00080B2208008F800102088401C80B22080E1
:10A7C00000EB0801BDF8000013F043FF21880844A6
:10A7D0002080F0780222C8B1218896F9033001F177
:10A7E000030C4846BC45D5D8425421884FF0010C93
:10A7F000491C89B2218000F801C02188491C89B216
:10A80000218009F801302088401C20807068B8B190
:10A81000218890F9003001F1030C4846BC45B9D8B5
:10A82000425421880A22491C89B22180425421883D
:10A83000491C89B2218009F801302088401C208001
:10A84000308950B1CDE900474B460622022106F17E
:10A85000080013F0DBFF051E9DD1308A50B1CDE911
:10A8600000474B460722032106F1100013F0CEFFEC
:10A87000051E90D1308B50B1CDE900474B461522D3
:10A88000142106F1180013F0C1FF051E83D1306AB0
:10A8900030B13B462246494604F015FA051EDBD18D
:10A8A000706A30B13B462246494607F0AAFF051EB2
:10A8B000D2D196F82C0038B13B4622464946304664
:10A8C00012F014FE051EC7D1307838B13B4622463F
:10A8D0004946304608F002FF051EBDD128465AE71A
:10A8E00018B504460020ADF8000013466A4620461D
:10A8F00000F006F8002802D0BDF80000204418BD82
:10A9000070B5E0B1DAB1002402E0045D2C44A4B2D9
:10A91000651C8D4206D21688A642F6D806197678AE
:10A920009E42F2D18C420AD2A31C005D9BB200B1C0
:10A93000401E0004000C02D01C188C4201D90020DB
:10A9400070BD138070BD80F8301070472DE9F04164
:10A950000D00044606D02CB195F87A000026012897
:10A9600003D006E00E20BDE8F08195F8980001289C
:10A9700029D0D5F8A000042825D0D5F89C000428BB
:10A9800021D04FF00108A6702C2205F17801201D7E
:10A99000FCF750FC84F83060D5F8A4006063D5F86B
:10A9A000A800A0634FF6FF70A4F8240404F58260A9
:10A9B000C4F82004C4F82664A4F82A6484F82C643B
:10A9C000207810B104E00720CDE7FF2084F8540080
:10A9D00004F155072046C4F81074FFF775FAA4F87F
:10A9E000140404F2144239462846FFF7B8FE002842
:10A9F000B9D104F23120C4F818042046FFF764FAF4
:10AA0000A4F81C0404F21C4205F13C00D4F818140C
:10AA1000FFF7A5FE0028A6D184F85180208BA4F86A
:10AA2000480084F83C80266484F850606069002106
:10AA30006064454604F13C02781E72DF002892D122
:10AA4000257090E710B50288102A1BD0112A20D05B
:10AA5000262A1DD1007A0C46012801D0022817D1E0
:10AA6000A0780521401CB0FBF1F201FB1201204649
:10AA700000F01DF800280BD0A16B002908D0BDE81C
:10AA800010400847C27B012A02D18088A1F8240423
:10AA900010BD0C46002184F82E148088B4F82414CC
:10AAA0008842F5D120790028F2D10121DFE72DE994
:10AAB000F05F044600780F4698B1A7700025C4F8EF
:10AAC0002654A4F82A5484F82C54A079012608B1FD
:10AAD000012F09D0E07980B1012F05D0022F03D0DA
:10AAE0000BE00820BDE8F09F616B21B184F82D6474
:10AAF0000820884701E084F82D5404F22741002003
:10AB00000A5C0AB1304603E0401C0628F8D3002056
:10AB10004FF002084FF0030B012F06D0022F0CD08C
:10AB2000032F0FD0042F15D110E0A17929B194F88B
:10AB3000241011B908B130460DE0E17911B108B126
:10AB4000404608E0207A08B1584604E0607A08B12F
:10AB5000042000E02846A070616B41B1032801D0B9
:10AB6000042804D1607910B194F82E0498B184F8C7
:10AB70002F5404F13C0018210746FCF783FB84F8AE
:10AB80003C6004F12C0010F0FBFB58B194F82C0051
:10AB900084F8510008E084F8305484F82F640720CA
:10ABA0008847E6E784F8516094F8240058B104F12E
:10ABB000280010F0E5FB20B194F8280084F852003A
:10ABC00001E084F8526084F85050A27804F22641E3
:10ABD00004F582694FF0060A052A64D2DFE802F024
:10ABE0007C030F22420084F83160C4F82054C4E989
:10ABF000101584F83C808020A4F8480055E084F8C3
:10AC0000318094F82420384612B10722027001E006
:10AC100080F800B0228A8281C4F820544160E16843
:10AC2000B96042E06069B860208BB88194F8240074
:10AC30003D460028204602D084F83CA001E084F87C
:10AC40003C6013F0C1FD50B185F81480042120460A
:10AC500005F0D7F938BB052184F8311021E084F8DC
:10AC600031B01EE0E069B860208CB88194F824000F
:10AC70003D460028204602D084F83CA001E084F83C
:10AC80003C6013F0A1FD48B185F8148004212046F2
:10AC900005F0B7F938B984F831A002E0042084F84F
:10ACA0003100C4F82094A07878B13A4604F15400F9
:10ACB000D4F8201472DF00287FF414AF94F8301019
:10ACC00094F8540073DF0028F6D1616B11B194F849
:10ACD00031008847002005E784F83150F5E700008F
:10ACE000F7B594B0174605003CD0287C9DF8541069
:10ACF0000024884252D000264FF0010E0D9615A870
:10AD0000ADF834E00E90ADF83660E9880DAA4FF644
:10AD1000FF70ACDF040026D19DF854002874687CD5
:10AD2000A0B30F96109611961296E888ADF83C00E5
:10AD3000BDF83600ADF840000DA811900E981290A5
:10AD4000A7F57F408DF83EE0FE3805D039460FA8C4
:10AD5000FFF700FD044621E0684600F0ABF800254F
:10AD60006F460FE00E2017B0F0BD00BF07EB4506A1
:10AD7000B08800F0FDF8022803D144B10FA9B088D3
:10AD8000AEDF6D1C0098A842F0D807E005E0B1885E
:10AD90000FA8FFF7DFFC0446F3E708242046E2E7AC
:10ADA00038B50D46040018D0BDB128682060287958
:10ADB0006074FF20207401208DF8020041F60F001E
:10ADC000ADF80000221D69460120A8DF002803D14C
:10ADD00029462046FFF770FC38BD0E2038BD38B537
:10ADE000002924D0002822D00288502A1FD10546ED
:10ADF000487C0C4600281AD0E9886289A81D914237
:10AE000015D14189022912D1216800290FD00C30B7
:10AE100000F0BAFB08B1002000E001208DF800002E
:10AE2000A888ADF80200226869462046904738BDE0
:10AE30002DE9F041040012D001461C221A48FCF70B
:10AE4000F9F91948194D0560206858B17ADF0028D2
:10AE500006D12068016829604068686006E00E201D
:10AE6000BDE8F08111487BDF0028F9D10E4D0024A8
:10AE70003C3D4FF6FF76A5F1780700BF04EB840157
:10AE800005EB810007EBC10120F8046B084A016063
:10AE90000021FFF7FDF908B10320E1E7641C032C52
:10AEA000ECD30020DCE700000C990020887B002018
:10AEB00061E703000149496803F0E6BE28990020D4
:10AEC00010B5044600F0A6F8002805D02146BDE8DC
:10AED0001040024809F076BC10BD000038990020EF
:10AEE00070B515460E46044613F07AFC002809D0CA
:10AEF000054800EB8400C0692A463146BDE8704031
:10AF000005F0ACB870BD00002899002010B50446CB
:10AF100000F080F8002805D02146BDE81040024826
:10AF200009F050BC10BD00004099002010B5044647
:10AF300000F070F8002805D02146BDE81040024816
:10AF400009F040BC10BD00003C99002070B50546DA
:10AF5000002400F05FF838B12946044809F032FCBB
:10AF600008B1022400E00124204670BD349900207D
:10AF700070B50546002400F04DF838B12946044864
:10AF800009F020FC08B1022400E00124204670BD35
:10AF90003099002010B51821034809F0EEFB18285D
:10AFA00000D0C0B210BD00002899002070B5054641
:10AFB0000C46084613F014FC60B1284600F02AF84D
:10AFC00040B10548294600EB8400BDE870401C30C4
:10AFD00009F0F8BB002070BD2899002070B5054627
:10AFE00016460C46084613F0FBFB00280ED02846F8
:10AFF00000F010F8002809D00548324600EB840024
:10B000002946BDE870401C3004F0F6BF70BD00005A
:10B0100028990020142801D30020704701460148D8
:10B0200009F0D0BB2C9900207CB5054608880C4659
:10B030000930904201D90C207CBD68466DDF0028A4
:10B04000FAD121880820685420881B21401C80B236
:10B05000208029542088401C80B220802844DDF8BC
:10B0600001100160BDF8051081802088801D80B22C
:10B0700020809DF80010490800D001212954208823
:10B08000401C208000207CBD70B586880446304678
:10B09000FFF75CFF0546214630460EF017FC012DF8
:10B0A00009D0022D02D020881D2809D12046BDE8F4
:10B0B00070400EF0E7BA2046BDE870400EF09ABD31
:10B0C00070BD0000F8B50446061D00882B4D1728FA
:10B0D0000ED0182827D019281BD14FF6FF7409F07D
:10B0E000F5FE0146264A204683DF0024B0BB36E049
:10B0F00006F0A2FB70B1684609F0C6FA08B1FFF786
:10B10000B5F830880221009A80DF002801D0FFF7CF
:10B11000ADF8F8BD28780028FBD0194AA088103A6D
:10B12000022180DF0CE0207BC007F2D0368806F0D9
:10B1300083FB58B105F054FC02460021304684DF01
:10B140000028E6D0BDE8F840FFF790B8287800283E
:10B15000DFD0A08800220A4984DFF1E703E0084835
:10B1600009F076F808B1FFF781F8002006F06AFBD5
:10B17000287800B12C7009F078F9E1E7E87A00202E
:10B180002398002010B51A4C0188606810290ED051
:10B1900011292BD1401E606028D1FEF7FDFE00284A
:10B1A00024D02168002921D0BDE810400847D0B93B
:10B1B00000210122084600F0B1FB08B107280FD199
:10B1C00007220221012000F0A9FB08B1072807D1BE
:10B1D00004220221002000F0A1FB20B1072802D0A8
:10B1E000216801B188476068401C606010BD0000A4
:10B1F000807B00202DE9F04701883B4E40F2F31997
:10B200004FF6FF7510291BD011293ED0122954D0BA
:10B21000502946D1C188F289841D914241D161896A
:10B2200002293ED18688304606F0C8F9050038D09C
:10B2300004F10C0000F0A8F9A8B3294630464EE00E
:10B24000C17B8788044601292BD1A846284606F0F1
:10B25000B5F9050017D02F800020287223484346F7
:10B260004A460168C5F80A104068C5F80E0004F1A6
:10B27000100105F10A0006F0BDFA6872F089002895
:10B280000FD129462AE0042013E0808806F096F9C1
:10B29000040006D06068FFF74EF808B111F0C2FF55
:10B2A0002580BDE8F087FFE76868FFF744F80028CD
:10B2B000F7D0BDE8F04711F0B5BF8788064638469D
:10B2C00006F07CF90400ECD02B464A4606F1080152
:10B2D00004F10A0006F08EFA607221463846BDE895
:10B2E000F04703F037BD00000C990020887B002058
:10B2F0002DE9F04F044686880188424897B083467E
:10B3000010290CD0112950D0103019296AD01A29CF
:10B3100074D1217A0C09042C4DD301224CE0394D13
:10B32000083DA868C0430B9069680BA809F071FA42
:10B330000B990CA803F0A8FC2C220CA96846FBF77B
:10B3400079FF0027E946A84610E000BF09EB470057
:10B350005FF00005B0F804A008EB85005146001D21
:10B3600009F0F0F96D1C1E2DF6D37F1C0098B84231
:10B37000ECD8142E05D317B00420BDE8F04FFEF72B
:10B3800075BF3146584609F028FA314608F10400E5
:10B3900009F023FAE07B022830D117B03146BDE82E
:10B3A000F04F1848001D09F018BA17B03146BDE833
:10B3B000F04F09F0C7B90022314604F01DFE032CFE
:10B3C00001D3012200E000220E4831460C3004F087
:10B3D00013FE022C01D3012200E00022094831466D
:10B3E000083006E0217A002908D1617AC1F3C00251
:10B3F000314617B0BDE8F04F04F0FEBD17B0BDE810
:10B40000F08F00003099002010B5044607480078FE
:10B4100000280AD0204605F07FFE204612F0D4F81E
:10B420002046BDE8104005F063B810BDD07B002079
:10B4300070B588B0474809F04CFA08B1FEF716FF1E
:10B440004549032000F08CFA08B1FEF70FFF0CF01D
:10B4500049FF08B1FEF70AFF002469460120009465
:10B460000CF082FD08B1FEF701FF68460CF036FED5
:10B4700008B1FEF7FBFE00221146384809F08AFDAC
:10B4800008B1FEF7F3FE9DF8080035A120F00F008B
:10B49000401C20F0F00010308DF80800162202A8A1
:10B4A0007CDF08B1FEF7E2FE00945020ADF800000A
:10B4B0004FF4C870ADF8020001940520ADF8040007
:10B4C0004FF41B70ADF8060068467ADF08B1FEF74E
:10B4D000CDFE2949294809F0BCFA08B1FEF7C6FE9D
:10B4E000642003948DF80C00032524480194012660
:10B4F0008DF80E50009402948DF804608DF80F5072
:10B5000069461438FFF74CFC08B1FEF7AFFE1C216A
:10B510006846FBF7B7FE4FF4A030CDE900404FF48A
:10B52000F02002908DF80C504FF6FF70ADF80E0031
:10B5300013480590134806908DF810606846FFF791
:10B5400077FC08B1FEF792FE08B0BDE87040FEF748
:10B550003FBD0000105F0400E9B80200C085002074
:10B560004E6F726469635F626C655F696E74657269
:10B570006163746976650000AD01030050810020AD
:10B58000799F03004FED0200007800F00100704742
:10B590000A78027049784170022070472DE9F04F17
:10B5A000ADF53F7D14460E468346B2F5C07F05D902
:10B5B0006FF037000DF53F7DBDE8F08F4FF4D0718F
:10B5C0006846FBF75FFE68A807F060F9200E8DF86B
:10B5D0001000200C8DF81100200A8DF81200202098
:10B5E0008DF8170006AD8DF81340224631462846E7
:10B5F000FBF720FE8020285504F119080020BAA985
:10B600000854401C1028FBDB802268A807F042F990
:10B61000070051D10025AA466E46CDF8B8A2CDF854
:10B62000BCA2CDF8C0A244460DF52E79CDF8C4A237
:10B6300017E000204946335C0A5C5A400A54401C1B
:10B640001028F8DB1036102C01D3102000E0204623
:10B65000241AAEAB1A46012168A807F004F90700C6
:10B660002AD1002CE5D1B2A828441022AEA9FBF7BC
:10B67000E1FD9DF803001035401C8DF80300202DDE
:10B68000CADB8022B2A968A807F004F9070013D129
:10B69000B6AE5C46002533461A46012168A807F07D
:10B6A000E2F8070008D1102231462046FBF7C2FD20
:10B6B00010341035202DEEDB68A807F0E0F84FF4C9
:10B6C000D071684607F05CFF2021B2A807F058FF50
:10B6D0001021BAA807F054FF1021AEA807F050FFC0
:10B6E0001FB12021584607F04BFF384662E70000A3
:10B6F00070B54FF6FF7594B0284610F0AFFB0446C6
:10B7000040F2A5110B48FBF7BDFD0DF112060DE04F
:10B710006946204610F04CFC20B90222054930460B
:10B7200000F07EFF204610F099FB0446AC42EFD1BA
:10B7300014B070BD468D002010B510F06FFD08B13B
:10B74000FEF794FDBDE8104040F2A5110148FBF75B
:10B7500099BD0000468D00202DE9FC410646C0073A
:10B760004FF000050ED0104F00240122385D0095E7
:10B770000023114601950BF031FA641C042CF4D31C
:10B7800000F046F8B0070DD5074E0024361D002204
:10B79000305D03230095114601950BF01FFA641CE0
:10B7A000042CF4D3BDE8FC8160F4030007490B5C72
:10B7B0004FF0A041D1F804250120984020EA02036F
:10B7C000C1F808351040C1F80C05704760F403005B
:10B7D0000249085C01210BF0B8BA000060F40300D4
:10B7E0000249085C00210BF0B0BA000060F40300CD
:10B7F0000649095C4FF0A040D0F80405C84010F09D
:10B80000010000D0012080F00100704760F40300C7
:10B8100010B500242046FFF7DBFF641C042CF9D38D
:10B8200010BD10B500242046FFF7DAFF641C042C7D
:10B83000F9D310BD10B50246064B4FF0FF30002182
:10B840005C5C944201D1084610BD491C0429F7D321
:10B8500010BD000064F403002DE9F0470D46814659
:10B86000FFF7E8FF0446042836D2DFF874801B484F
:10B870001C4EA8F10C0725B3012D0ED0022D2BD1A3
:10B8800004EB440030444578002D25D0B9680029E8
:10B8900022D02846BDE8F047084704EB4401755C18
:10B8A0000E44717849B10E4A4FF48041093A8068DC
:10B8B000FEF728FD08B987F80390B17808F804105E
:10B8C000E2E78068FEF737FD04EB4401314418F8E5
:10B8D00004008D78A842D7D0BDE8F08768F4030053
:10B8E000047B00204A98002010B50E2813D14FF693
:10B8F000FE7257210848FFF7F3F900280BD00828FB
:10B9000009D0132807D043F20141884203D0BDE893
:10B910001040FEF7ABBC10BD3C81002070B5002389
:10B92000042810D20D4D00EB4004012A02D1012958
:10B930000CD00022094E00EB4000304461B10129D7
:10B9400006D0022906D00723184670BD0E30C2B2B9
:10B950002A55F9E74270F7E78270F5E74A98002028
:10B9600070B506461E480024C0E90161B00720D525
:10B970000025012211462846FFF7D0FF6D1C044622
:10B98000042D02D2002CF4D013E094B940F23332EB
:10B9900004211448FEF7E0FB04000AD1FEF7CAFBBD
:10B9A000040006D10F48104A0021001FFEF770FC6A
:10B9B0000446F00712D00120FFF7CEFE74B9094803
:10B9C0000A4A00210C38FEF763FC040006D1054842
:10B9D000074A01210838FEF75BFC0446204670BD8B
:10B9E000F87A002074F40300C1BC02008919030036
:10B9F00021A102002DE9F05F6E4C0546002660781B
:10BA0000B34618B184F801B005F0A6FF6A4F4FF4B1
:10BA10007A694FF4C87A4FF00108182D69D2DFE82F
:10BA200005F00C1313384754696E727B727BC58422
:10BA300084848484B3B6B9BCC5C505F08DFF38686D
:10BA4000FEF779FC06465CE00020FFF7D1FE0028F7
:10BA50004FF0000008D0FFF7BBFE022D02D14FF4DB
:10BA6000E16008E0484606E0FFF7BAFE022D01D18A
:10BA7000C82000E05046410CC0034FF47A72801891
:10BA800041F10001257052000023FBF731FB014614
:10BA90002AE00020FFF7ACFE00284FF0000004D0A1
:10BAA000FFF796FE4FF44870E5E7FFF799FEDFE7F2
:10BAB0000020FFF79DFE00284FF0000002D0FFF7A6
:10BAC00087FECFE7FFF78CFED4E70020FFF790FE5C
:10BAD00000284FF0000002D0FFF77AFE01E0FFF7E8
:10BAE0007FFE257040F6CD4100223868FEF70AFC43
:10BAF000064646E00020FFF759FE257008E00020CA
:10BB000051E025703DE084F801800120FFF74EFEF2
:10BB1000002240F26661E8E784F801800120FFF727
:10BB200045FE00224FF40051DFE77868FEF703FC82
:10BB30000646D5F1110000D02EB10220FFF748FED5
:10BB400084F802B01DE0012816D980B2C82148430C
:10BB5000C117C90341EA5041C0034FF47A728018FB
:10BB600041F1000152000023FBF7C2FA0146002216
:10BB70007868FEF7C7FB06460220FFF731FE84F81F
:10BB800002803046BDE8F09F05F0E6FEB9E705F01B
:10BB9000E3FEB4E705F0E0FE04E005F0DDFE002082
:10BBA000FFF71EFE0120FFF71BFEAAE7FFF739FE95
:10BBB000A7E70000F87A002068F403002DE9F84FA9
:10BBC0000546861C00208DF8000091460F464FF078
:10BBD000010A6846FEF7B6FB1B4C04F21C4860687D
:10BBE0003860D4E90101194F401A3968081A0EE08B
:10BBF0000121404608F007FE06F0B2FB0146404630
:10BC000008F001FED4E90101401A3968081A401C05
:10BC10008642EDD8B9F1000F03D0052065F38910F5
:10BC200002E0062065F39F5061683A68114004EB1A
:10BC30008101C8606068304460609DF80000FEF7D4
:10BC4000A5FB5046BDE8F88FECA50020187E00202B
:10BC500070B50D4604460A2902D10D21FFF7F8FF01
:10BC6000A0682268411CA1601554D4E901018142F9
:10BC700004D32046BDE870400AF051BC70BD0000FE
:10BC8000044881684068814201D10120704700204A
:10BC900070470000ECA50020034630B5074800219E
:10BCA0000478426806E000BF02EBC10005789D42BF
:10BCB00003D0491CA142F7DB002030BDA07C00204E
:10BCC00000780221FFF7C8BD1CB5044605F0C8FB8B
:10BCD00000236A4609210FF071F9052805D10348B0
:10BCE000012241792046FFF779F91CBD907B0020A5
:10BCF0001CB504460020009042F6A620ADF80000D6
:10BD000001208DF80200084801AA694600680190E8
:10BD10002046A0DF002805D1044801228179204671
:10BD2000FFF75CF91CBD000094F40300907B002039
:10BD3000F0B40F4B002293F848100CE002EB4204E1
:10BD400003EB8404A57AEE0601D4AD0601D524895F
:10BD50002CB1521CD2B29142F0D8F0BC704701888D
:10BD600002EB420033F82000F0BC00F035B80000D0
:10BD7000368800202DE9FC4107460020009005464A
:10BD8000134C01901DE000BF05EB450611A134F8EE
:10BD900026206846FDF7F2FD39466846FBF790FA23
:10BDA00068B904EB8600807AC10601D4800606D506
:10BDB00005EB450004EB80000089BDE8FC816D1CAB
:10BDC000EDB294F84800A842DED80020F5E7000064
:10BDD0003688002025580000F8B5294B00240F466E
:10BDE0002546224693F8486010E000BF02EB42016E
:10BDF00033F82110814207D102EB420003EB8000AF
:10BE0000C088401C84B203E0521CD2B29642EDD8E6
:10BE1000761E964209DD02EB420003EB8000818929
:10BE200019B1008A401E85B21EE0154900224A3130
:10BE3000062051F82730042693F8301012E000BF96
:10BE400006EBC20C33F80CC0A44509D200EBC20CBF
:10BE500033F80CC0A44503D300EBC2001D5A03E025
:10BE6000521CD2B29142EBD8ADF80040ADF802506E
:10BE7000694638469EDF002801D0FEF7F7F9F8BD85
:10BE8000368800202DE9FF4106461F460C46104625
:10BE9000FDF7F0FF8046314602F0DAFE002824D09C
:10BEA00000250095019538460295FFF763FFF0B134
:10BEB00002228DF80C40210A8DF80D1001218DF819
:10BEC0000010ADF8020003A8ADF8062002908DF82E
:10BED0000110ADF8045069464046A3DF002804D0A5
:10BEE000044A0221304609F01DFCBDE8FF81024AE8
:10BEF000F7E70000D02B0400842B040005494FF025
:10BF0000FF32082841F8202002D3084480F8482056
:10BF10007047000010A10020F0B54FF0FF3512B1BE
:10BF20000023082601E008230C260C4C05E000BF86
:10BF300054F823707F1C04D05B1CB342F8D328460E
:10BF4000F0BD26185DB286F8305044F82310002A60
:10BF5000F5D1E11881F84800F1E7000010A10020B8
:10BF60000249084490F930007047000010A10020F9
:10BF700070B5816804468A7F002A4DD0C87F0028AA
:10BF80004AD0121A0844D5B200F120016A1C1F30B1
:10BF9000FBF750F9A068C17F491EC177A068817F77
:10BFA000491E81778DB308221C4920690AF0AAFA3C
:10BFB000204607F067FB8178C078814211D1A068E4
:10BFC00017A2C17F431808212046203309F0AAFB9D
:10BFD000204600F06BFB29462046BDE8704003F088
:10BFE00023B8204600F076FB204600F05FFBA068F7
:10BFF0000BA2C17F431808212046203309F092FB91
:10C000002046BDE8704000F05BBB2069BDE8704091
:10C01000044A03A10AF076BA70BD0000F8C102001C
:10C020002573000051F9030070B504468068827FD3
:10C03000C17F521A12F0FF053AD0084400F12101E5
:10C040002A462030FBF7F6F8A068817F491E8177E9
:10C05000204607F017FB8178C078814214D1A06890
:10C0600014A2C17F431808212046203309F05AFB4F
:10C07000114A10A120690AF045FA6D1EE9B2204666
:10C08000BDE8704002F0D0BF204600F023FB204600
:10C0900000F00CFBA06807A2C17F431808212046CE
:10C0A000203309F03FFB2046BDE8704000F008BB9C
:10C0B00070BD00002573000055F903002DE9F04123
:10C0C000044680680F46D0F84811C27F11F001067F
:10C0D000817FA1EB0203DDB20BD07F2901D3002DBC
:10C0E0007ED0A068C17F0844002180F8207066B12E
:10C0F00013E07F297CD2002DF3D0831803F12001B7
:10C100002A46481CFBF796F8EBE7A068827F521C92
:10C11000D2B28277A068203281544DB3204607F016
:10C12000B1FA8178C07881420ED1A06831A2C17F76
:10C13000431808212046203309F0F4FAA81BC1B2A5
:10C14000204602F071FF21E0204600F0C3FAA0680B
:10C1500028A2C17F431808212046203309F0E2FAC3
:10C16000204600F0ADFA0121204603F037F80DE03B
:10C170003EB1A068827F521CD2B28277A068203282
:10C1800081543A461CA120690AF0BCF9A168C87F15
:10C19000401CC877204602F034FF0028204603D018
:10C1A000BDE8F04102F04CBF03F0ECFF00281FD0C7
:10C1B000204607F067FA0546C078A978401A401E65
:10C1C000C1B2204602F0BEFE204602F039FFE878F8
:10C1D000A978401AC1B2204603F00CF8287800E094
:10C1E00006E0401EC1B22046BDE8F04102F0F6BFB5
:10C1F000BDE8F08125730000256300002DE9F043C0
:10C200008146887891B090460C4600B901208DF89F
:10C210003E002088ADF83C0000250095607C694612
:10C2200011F0A8F96E46A07C711C11F0A3F9E07B17
:10C2300000289DF8020002D040F0080001E020F044
:10C2400008008DF80200217C11B140F0100001E0DF
:10C2500020F010008DF80200217B11B140F00100A8
:10C2600001E020F001008DF80200217D09B10221DA
:10C2700000E0012161F342008DF802001C2102A8B8
:10C28000FBF700F8607BC10601D4800617D50E9538
:10C290000EAFE07C791C11F06DF99DF8380007971E
:10C2A00020F00F00401C20F0F00010308DF8380016
:10C2B0009DF83A0020F00600801C8DF83A00607B63
:10C2C0008DF80800A07B8DF80900142109A8FAF761
:10C2D000D9FF0FA8CDE90906A088ADF83000A06805
:10C2E00020B1E088ADF82C00A0680D90A06998B34B
:10C2F00001950088ADF81000A06901AD01A9408842
:10C30000ADF81200A069406806950390A069007B13
:10C3100011F030F9A069691C407B11F02BF9A0697C
:10C32000807A00289DF8060002D040F0080001E065
:10C3300020F008008DF80600A169C97A11B140F01B
:10C34000100001E020F010008DF80600A169097AC4
:10C3500019B140F0010002E00DE020F001008DF87D
:10C360000600A169897B09B1022100E0012161F386
:10C3700042008DF80600E06900B10590434609AA25
:10C3800002A94846AADF11B0BDE8F0832DE9F041CB
:10C39000414842490026401AC00805213D4F01EBA3
:10C3A00000443F4D65E000BF06EB460005EB800111
:10C3B00001F10A087988032959D335F8202020464D
:10C3C00038A10BF02BF87888032850D320463CA1E5
:10C3D0000BF020F87888032849D398F800003CA196
:10C3E00000F0010220460BF019F8788803283ED3AC
:10C3F00098F800003AA1C0F3400220460BF00EF876
:10C400007888032833D398F8000038A1C0F380025D
:10C4100020460BF003F87888032828D398F800000A
:10C4200037A1C0F3C00220460AF0F8FF788803283D
:10C430001DD398F8000035A1C0F3001220460AF081
:10C44000EDFF7888032812D398F8000033A1C0F3D9
:10C45000401220460AF0E2FF7888032807D398F8B4
:10C46000000032A1C0F3801220460AF0D7FF761CEC
:10C47000F6B295F84800B04296D87888032807D3DA
:10C4800095F848202046BDE8F0412EA10AF0C6BF2D
:10C49000BDE8F08130800020D05E0400385D0400EB
:10C4A00036880020436861726163746572697374D1
:10C4B000696320555549443A2025580D0A0000006B
:10C4C000506172616D65746572733A0D0A00000007
:10C4D00062726F6164636173743A202564200000A6
:10C4E000726561643A2025642000000077726974E7
:10C4F000655F776F5F726573703A20256420000076
:10C5000077726974653A2025642000006E6F746943
:10C5100066793A2025640D0A00000000696E64699E
:10C52000636174653A2025642000000061757468B9
:10C530005F7369676E65645F77723A2025640D0AE0
:10C54000000000004E756D626572206F66206368A2
:10C55000617261637465726973746963733A2025EB
:10C56000640D0A0070B504464FF6FF750A4628466A
:10C57000AC4209D14FF480742146104608F0FDF812
:10C5800080B2A0420BD070BDFF2CFCD821461046D3
:10C5900008F0E3F890F0010F01D0204670BD284666
:10C5A00070BD2DE9F041804601F5D2752AB1012A0E
:10C5B00005D0022A15D10A2602E0142600E006263C
:10C5C0000F4600240AE0C4EBC40000EB40003844EE
:10C5D0004146FAF775FE30B1641CE4B22878A042F7
:10C5E000F1D8BDE8F081761EB44206D1C4EBC40197
:10C5F00001EB4101002078540EE02878001BC0EBCD
:10C60000C00000EB4002C4EBC40000EB4000384423
:10C6100000F11501FAF70EFE2878401E2870E0E7B9
:10C62000F0B585B0064601F5D2742AB1012A05D0CD
:10C63000022A34D10A2502E0142500E006250F461F
:10C6400014216846FAF71EFE32460621684604F0B9
:10C65000C9FF2078A84222D200260BE0C6EBC60014
:10C6600000EB400038446946FAF72AFE002816D04D
:10C67000761CF6B2AE42F1D320786A46C0EBC00118
:10C6800001EB4101CB19401C207006A11846FDF7B3
:10C6900075F92178044B15223846FAF77DFD05B06F
:10C6A000F0BD000025730000C1DC03000069024AF0
:10C6B00002A109F027BF000049F90300257300001B
:10C6C0000069024A024909F01DBF000043F9030056
:10C6D000BCC602000069024A024909F013BF00000B
:10C6E00040F90300BCC602002DE9F04F4FF00009ED
:10C6F00095B005464F464C4602F06CF9284604F0CA
:10C7000089FC284602F02AFC284602F07AFC10B97F
:10C71000284602F095FCAA680C2301A90EA8203235
:10C7200005F0C2FF03460E9840B15BB149A2022159
:10C73000284608F0F7FF15B0BDE8F08F284602F054
:10C740007FFCF8E7494848490026A1EB00080DF1B5
:10C75000040A834613E008D345A0009049A20221B1
:10C760002846019B08F0DEFFE5E70BEBC604606896
:10C7700001685AF82900FAF7A3FD18B1761CB6EB48
:10C78000D80FE8D94FF000000F90A9684860886082
:10C79000C86008616168C86828B14AC9AA68C2E966
:10C7A0000360C2E90113606809F101044FF000065B
:10C7B000D0F808800E98844235D25AF8240033A16C
:10C7C000FAF77EFD40B35AF8240031A1FAF778FD5C
:10C7D00010B310A832460090761C0FAB214640469D
:10C7E00001F0ECFAFEB10F98E8B101685AF82400A4
:10C7F000FAF766FD0028DDD10F98C16839B190E8DD
:10C800004810AA682746C2E903C1C2E901360026DA
:10C81000641CD0F80880CDE7A868D0F8481141F032
:10C820000201C0F84811A868036933B10E980AEBF9
:10C830008702C11B2846984704E017A20221284618
:10C8400008F070FFA868D0F8481121F00201C0F884
:10C85000481170E76E6F74207465726D696E617453
:10C8600065643A2025630A00105D0400605C0400E2
:10C870003A20636F6D6D616E64206E6F7420666F19
:10C88000756E6400257325730A0000002D68000092
:10C890002D2D68656C700000506C656173652073A8
:10C8A000706563696679206120737562636F6D6D71
:10C8B000616E642E0A0000008068D0F84801C0F361
:10C8C000C00070472DE9F0410446C0688EB00D46A7
:10C8D000406800263246006801A90BF09DF818B1A7
:10C8E00000200EB0BDE8F0816DB101980AF0B2FFF2
:10C8F000A168D1F83801401CC1F8380100F00700E8
:10C9000001287AD10126204606F0BCFE0546807833
:10C91000012804D9401EC1B2204602F06BFC2878E1
:10C92000012804D9401EC1B2204602F07DFB2046FA
:10C93000FFF7BCFE2EB132A20221204608F0F2FE23
:10C940005BE04FF000080023082202A901980AF0DA
:10C9500090FF04980590BDF80C00ADF81800BDF8E4
:10C960000E00ADF81A008DF81D800298082700F01F
:10C970000300012802D0022818D032E002983B467A
:10C98000860AC0F3C2008DF81C00029808A9C0F303
:10C990008315AA0001980AF06CFF2069009005AB8E
:10C9A0002A4608A930460AF0ABFE1AE00298850D27
:10C9B000C0F3C2008DF81C00082D01D22E4600E005
:10C9C00008263B46324608A901980AF052FF374430
:10C9D000AD1B05AA314608A823690AF041FD002DC8
:10C9E000EAD101980AF036FFE068002201A9406808
:10C9F00000680BF011F80028A5D0012071E70000B5
:10CA00004C6F7374206C6F6773202D20696E637296
:10CA100065617365206C6F67206261636B656E642E
:10CA20002071756575652073697A652E0A000000AE
:10CA300030B4406804682469A44630BC60472DE9DE
:10CA4000FC41002604460127019601AB01226946FC
:10CA50002046FFF7EDFF0198002836D09DF8000032
:10CA60007F28F2D80AF0A0FFA068417821B10129FF
:10CA70006FD002296ED18DE09DF800500D2D09D0A8
:10CA80000A2D07D0D0F84821002161F38D12C0F89B
:10CA9000482122E0D0F84811C1F3871129B1D0F81C
:10CAA0004811C1F38711A94217D1D0F8481165F395
:10CAB0008D11C0F84811A068817F41B12046FFF771
:10CAC00013FE0221204600F0F5F8BDE8FC81C0F815
:10CAD0004461204602F0B4FAF3E7092D1ED004DCCD
:10CAE000002DB2D0082D04D121E01B2D12D07F2DB6
:10CAF00026D0FAF74DFB0068405D10F03E0FA4D041
:10CB00002046FFF7D9FE30B39DF800102046FFF70E
:10CB1000D5FA9AE7A1680120487096E72046FFF70A
:10CB2000CBFE002891D0204600F0DEF88DE72046AD
:10CB3000FFF7C2FE002888D02046FFF719FA84E7E5
:10CB40002046FFF7B9FE0028E3D02046FFF76CFA35
:10CB50007BE716E019E0A1689DF80020887F7F2818
:10CB6000D7D2C87F0B18401CC87783F82020A06854
:10CB7000C17F084480F82060A168887F401C8877C6
:10CB800063E79DF800105B2901D0002100E002213D
:10CB900041705AE7002141702046FFF78DFE0028C2
:10CBA00093D09DF80000422840D01BDC33287CD075
:10CBB00012DC312872D03228ABD1A1680320487032
:10CBC000A068D0F84811D0F8482127EA010161F3A4
:10CBD0000002C0F8482138E7342856D0412898D1BF
:10CBE000012124E0462853D01BDC432823D04428CD
:10CBF0008FD1204606F046FD05460078A979491CEC
:10CC0000884202D1A978012987D001284FF001017B
:10CC100020462FD002F008FAA168C87F401EC877CE
:10CC200013E748283DD04C2889D1C9E70021204688
:10CC300004F0DEF809E7204606F024FD05460078FA
:10CC40006978884203D1A978EA78914298D06979C5
:10CC500088424FF00101204606D102F073F969794C
:10CC6000204602F0E1F901E002F0B8FAA168C87FBD
:10CC7000401CD4E702F0BEFA6979204602F0AEFA11
:10CC8000A068C17F491EC177DFE6A1680320487014
:10CC9000204602F063F9D8E607E0FFE7A168032029
:10CCA0004870204602F083F9CFE6A168032048705F
:10CCB00046E700008268022911700CD182680021C9
:10CCC00082F820108268D1778268917702A20321CE
:10CCD000036808F027BD704725730000002801D0C5
:10CCE000FAF7E7BA704700002DE9F04F054600203B
:10CCF000A7B007461590064620900690A868817F49
:10CD0000C1F17F01C9B25FEA010970D0C27F00F1B1
:10CD10002001A030FAF78EFAA8680024C17F0844E9
:10CD200080F8A040FAF734FA21900168A8680C2333
:10CD3000C27F0244D27F895CC0F84441AA6801F0F6
:10CD4000010A07A916A8A03205F0AEFC0798FFF764
:10CD5000C5FF00F0FF08A34617941894169818B161
:10CD60005044401EB0426CD8BAF1000F01D00020F0
:10CD700005E007A850F82600FFF7B0FFC0B28046D4
:10CD8000002419A822460090641C17AB314658466F
:10CD900001F014F8179800286CD0016807A84246E3
:10CDA00050F8260004F01EFD0028EAD018987F1CD9
:10CDB000F0B117980068FFF791FF0699C0B288425A
:10CDC00000D90690B9F1000F2ED022A8009018AB20
:10CDD00031465846159A00F0F1FF179801681898E7
:10CDE00001EB08020168002001EB080316E08DE06A
:10CDF000601E209017980068FFF770FFC0B2069081
:10CE0000A0EB080048450FDAC0B20CE013F800C0F0
:10CE1000614506D1401C10F0FF0010D0115C0029C4
:10CE2000F4D1814500D98146601E1590179818905D
:10CE3000A7D266A20421284608F074FC1AE0FF205D
:10CE4000EFE7002419A822460090641C17AB314676
:10CE5000584600F0B3FFECB31798002856D001688D
:10CE600007A850F82600FAF72BFA0028EAD11798FD
:10CE7000D0F808B0BBF1000F09D0179838B1169957
:10CE8000761CF6B201EB0A008642FFF467AF002F72
:10CE90003CD0012F43D000212846069A0DF072FCA9
:10CEA000209C0DF11C0A19A822460090641C17ABA7
:10CEB0003146584600F082FF1798424601685AF8FA
:10CEC000260004F08FFC40B117987F1E069A016877
:10CED000284600E01DE00DF055FC002FE3D146A2EE
:10CEE000032128462B6808F01DFCAB6843A20821EB
:10CEF0002846203308F016FC284602F039F9189825
:10CF00004A4601682846414401F0D0FD27B0BDE8FB
:10CF1000F08F2EA20421284608F004FCF6E79BF8C7
:10CF2000000038B119A8009018AB31465846159A40
:10CF300000F044FF18980068FFF7D0FE404506D087
:10CF400018984A4601682846414401F0AFFD2198EF
:10CF5000A9680268C87F0B1893F82030D25CD2070A
:10CF600015D0897F8842D1D2284606F08BFB847881
:10CF7000A868C17F491CC177284606F083FB8078EA
:10CF8000A0421FD10121284602F028F9BEE7D1F8BE
:10CF90004801C00711D0D1F8480120F00100C1F8C4
:10CFA000480120212846FFF789F8A868D0F84811E1
:10CFB00041F00101C0F84811A8E720212846FFF7F9
:10CFC0007DF8A3E7284602F03BF89FE75461622012
:10CFD00066756E6374696F6E3A20636F6D6D616E16
:10CFE000647320636F756E746572206F7665726608
:10CFF0006C6F7765642E0A000A25730025730000A4
:10D00000002806D08868D0F8481141F02001C0F807
:10D010004811704770B5044640680D4690F82800E6
:10D0200030B1A0680068FDF786F908B108280CD176
:10D03000012685B1606909F059FA6168002208315A
:10D04000606909F00FFA08B1062070BD606880F8C9
:10D050002960002070BD606890F8280048B9074A30
:10D060000021A068FDF714F96168002881F82860A4
:10D07000F0D12046BDE870400FF01EBE8DDD0300EC
:10D0800070B5044640680D46026060680022436047
:10D09000606880F82820606880F829206068202275
:10D0A0000830FAF7C7F82C61074A2946606909F089
:10D0B000D9F9050005D1E0680AF020FF20690AF0DF
:10D0C0001DFF284670BD0000E9E203001A60C06839
:10D0D0001A460AF051BE10B50446406909F006FA36
:10D0E000A0680068BDE81040FDF725B97CB51A605E
:10D0F000044600691A460AF07DFE050025D16069E4
:10D10000134A0178515C19B1001D0CF009FA02E0D4
:10D110000C300CF069F8C0B9FF20009001236A467A
:10D1200001A920690AF0B2FE78B900980199C2B24B
:10D13000606909F0CBF90546606890F8290020B1D4
:10D140001DB9206900990AF08EFE28467CBD0000BA
:10D150006C7C00202DE9F8431E461546884607469C
:10D1600000241BE0786808EB04016B460268D2F8E3
:10D170000CC02A46E047009804442D1A70B9B868DC
:10D18000017803290AD000BFD0F848118906FBD5E1
:10D19000D0F8481121F02001C0F84811002DE1D14C
:10D1A000002E01D000983060BDE8F88370B5084CBF
:10D1B000050009D010342168002907D008682060D4
:10D1C000496828468847F6E70834F4E770BD000050
:10D1D000ACA00020002801D10BF03ABD7047000040
:10D1E000054A012120B1012805D19170FFF7DEBF6A
:10D1F00051700020FAE77047ACA0002038B5144603
:10D200000546012902D008F0F3FB30B12846BDE8FD
:10D2100038400022114608F0ADBA6068009003A3C0
:10D2200007A20221284608F07DFA38BD756E6B6EA4
:10D230006F776E20706172616D657465723A20005F
:10D24000257325730A00000010B50446012902D990
:10D2500007A2022108E0FCF787FE06F093FE0FF01C
:10D2600046FC09A208212046BDE8104008F05ABA41
:10D2700077726F6E6720706172616D657465722080
:10D28000636F756E74200A00416476657274697309
:10D29000696E672064697361626C65640A000000EE
:10D2A00010B50446012905D9BDE810400CA20221A1
:10D2B00008F038BAFCF758FE06F064FE0FF017FCD1
:10D2C0000DA20821204608F02DFAFCF705FE06F015
:10D2D00057FE002803D0BDE81040FCF7C7BF10BDC3
:10D2E00077726F6E6720706172616D657465722010
:10D2F000636F756E74200A00416476657274697399
:10D30000696E6720656E61626C65640A00000000EA
:10D3100038B514460546012909D008F069FB70B1FB
:10D320002846BDE838400022114608F023BA08A27A
:10D33000082108F0F7F9BDE83840FEF7FDB960684C
:10D34000009009A30DA20221284608F0EBF938BD90
:10D35000426F6E64696E6720646174612064656CFD
:10D36000657465640A000000756E6B6E6F776E20E1
:10D37000706172616D657465723A20002573257362
:10D380000A000000F0B599B00746012912D908F04B
:10D390002FFB38B119B03846BDE8F04000221146E5
:10D3A00008F0E8B919B03846BDE8F0401AA20221E9
:10D3B00008F0B8B90EF0F2FD03461DA20821384668
:10D3C00008F0B0F94FF6FF7528460EF047FD044609
:10D3D0000DF112061BE023461AA20821384608F078
:10D3E000A1F9694620460EF0E3FD08B1FCF73EFFC7
:10D3F00020460EF033FD04463246062114A804F000
:10D40000F1F814AB14A20821384608F08BF9AC42AD
:10D41000E1D119B0F0BD000077726F6E67207061C6
:10D4200072616D6574657220636F756E74200A0099
:10D43000506565727320636F756E743A20256420A1
:10D440000A00000049443A20256420206164647287
:10D450006573733A2000000025730A0070B5144606
:10D460000546012902D008F0C3FA30B12846BDE8CC
:10D4700070400022114608F07DB96068FCF7FAFCA4
:10D480000646294601F0E4FB00280FD03146A0688B
:10D4900003F0F2FB014630469DDF002806D0284607
:10D4A000BDE8704002A2022108F03CB970BD000046
:10D4B000696E636F727265637420736572766963F7
:10D4C000652055554944206F7220736572766963F3
:10D4D0006520646F6573206E6F742065786973745E
:10D4E0000A000000F8B514460546012902D008F0EC
:10D4F0007FFA30B12846BDE8F8400022114608F016
:10D5000039B96068FCF7B6FC0646294601F0A0FB75
:10D51000002815D0A06803F0DBFB010008D0002232
:10D520003046A1DF00280BD0BDE8F840FCF79EBED6
:10D53000A068009003A312A20221284608F0F2F886
:10D54000F8BD00005468652073656C65637465649C
:10D55000207365727669636520646F6573206E6FF2
:10D560007420636F6E7461696E20746865206368EF
:10D57000617261637465726973746963202D200040
:10D58000257325730A0000002DE9F04389B0144685
:10D590000D460646012902D008F02AFA38B10022C9
:10D5A0001146304608F0E6F809B0BDE8F0830027E0
:10D5B0002D1F019702970397ADB225A16068F9F777
:10D5C0007FFE4FF0010840B123A16068F9F778FEB3
:10D5D00038B1606822A3009021E002208DF8040099
:10D5E00001E08DF80480A068FCF744FC81463146D8
:10D5F00001F02EFB0028D7D0E06803F069FB58B19A
:10D60000ADF80A50ADF8060004AEADF80870039608
:10D610008DF80580002711E0E06816A3009024A291
:10D620000221304608F07EF8BEE700BF04EB870019
:10D630000069F9F778FEF0557F1CFFB2AF42F5D3D1
:10D6400001A94846A3DF0028AED0FCF70FFEABE7E8
:10D65000636F6D6D616E64007265717565737400E2
:10D66000756E6B6E6F776E20706172616D6574653B
:10D67000723A20005468652073656C656374656454
:10D68000207365727669636520646F6573206E6FC1
:10D690007420636F6E7461696E20746865206368BE
:10D6A000617261637465726973746963202D20000F
:10D6B000257325730A000000FEB5074608F098F9A7
:10D6C00028B100221146384608F054F8FEBD00206B
:10D6D000029016A20821384608F024F80024184EBB
:10D6E0001EE000BFC4EBC40000EB40003044054620
:10D6F000FCF7C0FB02A987DF28B112A2022138463D
:10D7000008F010F8FEBD9DF8080023460009CDE999
:10D71000005015A20821384608F004F8641CE4B251
:10D7200096F8A401A042DDD8FEBD0000436F6E6EE6
:10D73000656374656420646576696365733A0A009D
:10D74000A18B00205365637572697479206C6576CE
:10D75000656C2072656164696E672068617320661C
:10D7600061696C65640A000025642E2025732053CE
:10D7700065637572697479206C6576656C3A2025ED
:10D7800064200A0070B50446022902D013A20221C7
:10D790000FE05068FCF76EFB0546214601F058FA91
:10D7A00000281AD01349284675DF30B112A2022191
:10D7B0002046BDE8704007F0B5BF1AA208212046F8
:10D7C00007F0B0FF0B48502101804FF4C871418031
:10D7D000052181804FF41B71C18070BD77726F6E1F
:10D7E0006720706172616D6574657220636F756E1C
:10D7F00074200A001A7A0020436F6E6E65637469A4
:10D800006F6E20706172616D657465727320636FF5
:10D81000756C64206E6F74206265206368616E674A
:10D8200065640A0050726566657272656420636F94
:10D830006E6E656374696F6E20706172616D657480
:10D84000657273206368616E6765642073756363D6
:10D8500065737366756C6C790A00000070B51546C7
:10D860000646032902D015A202210CE0002410E094
:10D87000F9F78EFCA9680068095D405C202806D095
:10D8800014A202213046BDE8704007F04BBF641C73
:10D89000E4B2A868F9F70DFDA042E9D86868FCF782
:10D8A000E9FA0446314601F0D3F9002805D02146B3
:10D8B000A868BDE8704004F0C1B870BD77726F6EA3
:10D8C0006720706172616D6574657220636F756E3B
:10D8D00074200A0064617461206C656E677468204E
:10D8E0006D7573742062652061206E756D6265725E
:10D8F0000A000000F8B514460D460646012902D07C
:10D9000008F076F830B13046BDE8F8400022114604
:10D9100007F030BF022D01D00FA212E06068F9F7C6
:10D92000C8FC1128606807D2F9F7FDFCADF80000CB
:10D9300068460EF0BDFDF8BDF9F7BBFC112806D016
:10D940000BA23046BDE8F840022107F0EBBE60684C
:10D95000BDE8F840FCF788BA77726F6E6720706197
:10D9600072616D6574657220636F756E74200A0054
:10D9700077726F6E672061646472657373206C6583
:10D980006E677468202D20436F7272656374206621
:10D990006F726D61743A2058583A58583A58583A4C
:10D9A00058583A58583A58580A000000F8B51446E2
:10D9B0000D460646012902D008F01AF830B130466B
:10D9C000BDE8F8400022114607F0D4BE022D08D968
:10D9D00012A0009017A202213046236807F0A2FE91
:10D9E000F8BD6068F9F765FC112806D03046BDE83F
:10D9F000F84012A2022107F095BE6068FCF73AFADF
:10DA00000446314601F024F90028E9D013212046CC
:10DA100076DFBDE8F8400FF06AB8000077726F6EED
:10DA20006720706172616D6574657220636F756ED9
:10DA300074200A0025733A202573000077726F6EF8
:10DA4000672061646472657373206C656E677468C7
:10DA5000202D20436F727265637420666F726D6152
:10DA6000743A2058583A58583A58583A58583A58E8
:10DA7000583A58580A000000F0B587B016460D46CF
:10DA80000446012902D007F0B3FF30B1002211464D
:10DA9000204607F06FFE07B0F0BD14216846F9F785
:10DAA000F1FB9DF81400012420F00F00401C20F031
:10DAB000F00010308DF814006F1E0CE056F82410A2
:10DAC0006846F9F7EAFBBC4207D00BA16846F9F7B4
:10DAD000E4FB641CE4B2AC42F0D36846F9F7E9FB1E
:10DAE00082B2694605A87CDF0446FCF771FA200083
:10DAF000D1D0FCF7BBFBCEE7200000002DE9FC41B4
:10DB000015460746012902D007F072FF38B102B06E
:10DB10003846BDE8F0410022114607F02BBE2FA188
:10DB20006868F9F7CDFB2F4C80B12FA16868F9F731
:10DB3000C7FB78B169682EA0CDE9000130A20221AF
:10DB400038462B6807F0EEFDBDE8FC81207840F0F8
:10DB5000040002E0207820F004002070A868FCF7A0
:10DB600089F9204E3946361F708001F071F800287F
:10DB7000EAD026A1E868F9F7A3FB0028207809D0AD
:10DB800020F072003030207022A1E868F9F798FB8D
:10DB900030B10CE020F0700040F002004030F2E7BD
:10DBA000207820F0700040F08200303020700D4866
:10DBB0000EF098FB08B1FCF759FB002170880DF0BE
:10DBC000CBFC10B114A2022101E01FA2082102B077
:10DBD0003846BDE8F04107F0A5BD00004C45534371
:10DBE00000000000147A00204C45474143590000D2
:10DBF0002077726F6E6720636F6D6D616E642000B9
:10DC000025733A257325730A000000006D69746D51
:10DC1000000000006F6F62004465766963652069EB
:10DC200073206E6F7420636F6E6E6563746564201D
:10DC30006F7220697320616C726561647920706114
:10DC4000697265640A000000537461727420706127
:10DC50006972696E670A000070B594B01646044692
:10DC6000012902D007F0C4FE38B114B02046BDE847
:10DC700070400022114607F07DBD4FF6FF75284623
:10DC800017E069460EF094F908B1FCF7EFFA0DF1D0
:10DC90001100716803F086FD50B120460EF0A6F920
:10DCA00008B1FCF7E3FA022205497068FEF779FC37
:10DCB00020460EF0D3F80446A842E2D114B070BD5D
:10DCC000468D0020F0B587B014460646022916D3CB
:10DCD00007F08EFE38B107B03046BDE8F0400022B4
:10DCE000114607F047BD616816A0CDE9000119A2F1
:10DCF00002213046236807F015FD07B0F0BD0FF094
:10DD00001FF805465FF0000404EBC40000EB400779
:10DD1000E85D90B112A20821304607F003FD2F44C0
:10DD20007A1C062101A803F05DFCFF1D01AB0EA2C9
:10DD300008213046009707F0F5FC641CE4B2142C6F
:10DD4000E2D3DAE72062616420706172616D65740C
:10DD50006572200025733A257325730A00000000C0
:10DD6000446576696365200025732025730A0000E9
:10DD700038B514460546012902D007F039FE30B106
:10DD80002846BDE838400022114607F0F3BC606821
:10DD9000009003A307A20221284607F0C3FC38BD68
:10DDA000756E6B6E6F776E20706172616D657465F4
:10DDB000723A2000257325730A0000002DE9F05FF8
:10DDC0001C460A9E15464FF0000959B180B30178F0
:10DDD00039B342683146284690473068D8B126604A
:10DDE000BDE8F09F14491548A1EB0008B5EBD80F2A
:10DDF00011D2DFF84CA00026834609E00BEBC607E2
:10DE0000786801685AF82500F9F75AFA30B1761C9B
:10DE1000B6EBD80FF2D3C4F80090E1E77868206041
:10DE2000DEE7406800EB0210016809B11860D7E72F
:10DE3000FFE7C3F80090D3E7105D0400605C0400C6
:10DE4000F87E002038B514460546012902D007F0B7
:10DE5000CFFD30B12846BDE838400022114607F01A
:10DE600089BC6068009003A307A20221284607F03E
:10DE700059FC38BD756E6B6E6F776E207061726184
:10DE80006D657465723A2000257325730A000000E1
:10DE9000936852680021FDF7F5BF9368526802212C
:10DEA000FDF7F0BF2DE9FC4116460746022902D9CD
:10DEB00020A202213AE0012902D007F099FD30B1F9
:10DEC00000221146384607F055FCBDE8FC811F4D85
:10DED000287858B17068F9F7ECF9062808D01CA327
:10DEE00021A20221384607F01DFCEEE71FA20BE03D
:10DEF0000024F9F74DF901466A4670680B68005D29
:10DF00001B5C202B02D01DA202210EE01055641CC8
:10DF1000E4B2062CF1D30121688880DF002129704A
:10DF200008B11EA2F0E722A20821384607F0FAFB4A
:10DF3000CBE7000077726F6E6720706172616D656C
:10DF400074657220636F756E74200A00107A002069
:10DF5000696E76616C6964206B6579206C656E67AB
:10DF60007468210A00000000257300004E6F206BCA
:10DF7000657920726571756573740A00746865202F
:10DF80006B6579206D75737420636F6E736973743C
:10DF9000206F66206469676974730A004572726F46
:10DFA000722073656E64696E67206B65790A000084
:10DFB0004B65792073656E64696E67207375636362
:10DFC0006573730A000000007CB5154606460229F9
:10DFD00002D01DA202210CE0002411E0F9F7D8F8CC
:10DFE00069680068095D405C202807D01CA20221F6
:10DFF000304602B0BDE8704007F094BB641CE4B248
:10E000006868F9F756F9A042E8D86868F9F78BF91B
:10E010004FF47A71484340F2E24190FBF1F081B253
:10E02000081F40F6FD1290420BD34FF448610620C2
:10E03000CDE9000114A31FA20221304607F072FBB4
:10E040007CBD204841807CBD77726F6E6720706117
:10E0500072616D6574657220636F756E74200A005D
:10E060006D61785F636F6E6E5F696E746572766105
:10E070006C206D7573742062652061206E756D6211
:10E0800065722E0A000000004D6178696D756D2083
:10E09000636F6E6E656374696F6E20696E7465720E
:10E0A00076616C206D75737420626520626574778B
:10E0B00065656E00257320256420616E64202564EB
:10E0C0002E0A00001A7A00207CB515460646022961
:10E0D00002D01DA202210CE0002411E0F9F758F84B
:10E0E00069680068095D405C202807D01CA20221F5
:10E0F000304602B0BDE8704007F014BB641CE4B2C7
:10E100006868F9F7D6F8A042E8D86868F9F70BF91B
:10E110004FF47A71484340F2E24190FBF1F081B252
:10E12000081F40F6FD1290420BD34FF448610620C1
:10E13000CDE9000113A31EA20221304607F0F2FA36
:10E140007CBD1F4801807CBD77726F6E6720706157
:10E1500072616D6574657220636F756E74200A005C
:10E160006D696E5F636F6E6E5F696E746572766106
:10E170006C206D7573742062652061206E756D6210
:10E1800065720A004D696E696D756D20636F6E6E04
:10E19000656374696F6E20696E74657276616C2058
:10E1A0006D757374206265206265747765656E00B5
:10E1B000257320256420616E642025642E0A0000EA
:10E1C0001A7A002070B515460646022902D015A21B
:10E1D000022116E007F00CFC30B13046BDE870407B
:10E1E0000022114607F0C6BA002410E0F8F7D0FF6D
:10E1F00069680068095D405C202806D00FA20221F2
:10E200003046BDE8704007F08DBA641CE4B268681F
:10E21000F9F74FF8A042E9D86868BDE8704002F00D
:10E2200011B8000077726F6E6720706172616D6562
:10E2300074657220636F756E74200A004D5455200A
:10E240006D7573742062652061206E756D626572F4
:10E250000A00000038B514460546012902D007F02F
:10E26000C7FB30B12846BDE838400022114607F010
:10E2700081BA6068009003A307A20221284607F034
:10E2800051FA38BD756E6B6E6F776E20706172617A
:10E290006D657465723A2000257325730A000000CD
:10E2A000936852680021FDF7EDBD93685268012123
:10E2B000FDF7E8BD38B514460546012902D007F040
:10E2C00097FB30B12846BDE838400022114607F0E0
:10E2D00051BA6068009003A307A20221284607F004
:10E2E00021FA38BD756E6B6E6F776E20706172614A
:10E2F0006D657465723A200025730A0010B50446F6
:10E3000003F0A6FA80B10BF0A3F90022012180DF0F
:10E3100008B1FBF7ABFF0BF095F905A208212046E9
:10E32000BDE8104007F0FEB905A20221F7E70000A2
:10E330004E756D65726963204D617463680A0000F3
:10E340005468697320636F6D6D616E642063616EE4
:10E350002062652075736564206F6E6C7920776923
:10E360007468206E756D6572696320636F6D70618E
:10E370007269736F6E2070616972696E670A00005E
:10E3800010B5044603F064FA80B10BF061F9002285
:10E39000114680DF08B1FBF769FF0BF053F905A2C6
:10E3A00008212046BDE8104007F0BCB905A20221B3
:10E3B000F7E700004E756D657269632052656A6506
:10E3C00063740A005468697320636F6D6D616E64D5
:10E3D0002063616E2062652075736564206F6E6CCA
:10E3E000792077697468206E756D65726963206342
:10E3F0006F6D70617269736F6E2070616972696EA2
:10E40000670A000038B514460546012902D007F016
:10E41000EFFA30B12846BDE838400022114607F037
:10E42000A9B96068009003A307A20221284607F05B
:10E4300079F938BD756E6B6E6F776E2070617261A1
:10E440006D657465723A2000257325730A0000001B
:10E4500038B514460546012902D007F0C9FA30B193
:10E460002846BDE838400022114607F083B96068AD
:10E47000009003A307A20221284607F053F938BDF4
:10E48000756E6B6E6F776E20706172616D6574650D
:10E49000723A2000257325730A00000070B5044607
:10E4A0005068FBF7E7FC0546214600F0D1FB002849
:10E4B00006D02A462046BDE8704001210CF06ABF14
:10E4C00070BD70B504465068FBF7D4FC0546214684
:10E4D00000F0BEFB002806D02A462046BDE870406A
:10E4E00002210CF057BF70BD38B51446054601290E
:10E4F00002D007F07DFA30B12846BDE8384000224E
:10E50000114607F037B96068009003A307A2022103
:10E51000284607F007F938BD756E6B6E6F776E2071
:10E52000706172616D657465723A200025732573A0
:10E530000A0000001CB50EF03BFCFBF715FD8DDF5B
:10E540000EF0D5FA0020009001908DF80000012017
:10E550008DF801004FF46170ADF80200684670DF7D
:10E56000002801D0FBF782FE1CBD1CB50EF020FC7C
:10E57000FBF7FAFC8DDF0EF0BAFA00200090019054
:10E5800001208DF8000002208DF801001E20ADF85A
:10E590000200684670DF08B1FBF768FE0322002125
:10E5A00008466FDF002801D0FBF760FE1CBD0000AD
:10E5B00038B514460546012902D007F019FA30B1E2
:10E5C0002846BDE838400022114607F0D3B86068FD
:10E5D000009003A307A20221284607F0A3F838BD44
:10E5E000756E6B6E6F776E20706172616D657465AC
:10E5F000723A2000257325730A00000038B51446CE
:10E600000546012902D007F0F3F930B12846BDE8EC
:10E6100038400022114607F0ADB86068009003A3AF
:10E6200007A20221284607F07DF838BD756E6B6E93
:10E630006F776E20706172616D657465723A20004B
:10E64000257325730A0000001CB5044601290BD070
:10E650000AA11068CDE9000152F8043C0DA2022184
:10E66000204607F05FF81CBD0EF0A2FB02B020466A
:10E67000BDE810400AA2082107F054B877726F6E07
:10E680006720706172616D6574657220636F756E6D
:10E6900074200A0025732025733A2025730000009A
:10E6A0005363616E2073746F707065640A000000BC
:10E6B0001CB5044601290BD00AA11068CDE9000160
:10E6C00052F8043C0DA20221204607F02BF81CBD95
:10E6D0000EF03AFB02B02046BDE810400AA2082125
:10E6E00007F020B877726F6E6720706172616D6598
:10E6F00074657220636F756E74200A00257320257F
:10E70000733A2025730000005363616E20737461B7
:10E71000727465640A00000070B51446064601294B
:10E7200002D007F065F930B13046BDE870400022F4
:10E73000114607F01FB801256068FBF79BFB0446F4
:10E74000314600F085FA002809D0002229462046EB
:10E750009BDF002803D0BDE87040FBF787BD70BD8C
:10E76000F8B515460646022902D017A202210CE090
:10E77000002410E0F8F70CFD69680068095D405C52
:10E78000202806D016A202213046BDE8F84006F047
:10E79000C9BF641CE4B26868F8F78BFDA042E9D8F1
:10E7A0006868F8F7C0FD81B2B1F5FA7F09D340F28D
:10E7B000F310009012A31BA20221304606F0B2FF14
:10E7C000F8BD1A488180F8BD77726F6E672070615E
:10E7D00072616D6574657220636F756E74200A00D6
:10E7E000536C617665206C6174656E6379206D751C
:10E7F00073742062652061206E756D6265720A0017
:10E80000536C617665206C6174656E637920736802
:10E810006F756C64206265206C6573732074686129
:10E820006E3A2000257325642E0A00001A7A002013
:10E830007CB515460646022902D029A202210CE029
:10E84000002411E0F8F7A4FC69680068095D405CE9
:10E85000202807D028A20221304602B0BDE870402F
:10E8600006F060BF641CE4B26868F8F722FDA042BD
:10E87000E8D86868F8F757FD81B24FF47A704843DA
:10E8800042F21072B0FBF2F0254A40F2E24480B24C
:10E89000538863434FF47A74B3FBF4F39488641C95
:10E8A00063434FF6FF7404EA4303441EB4F5A07FAC
:10E8B00007D34FF448610A201AA324A2CDE900012E
:10E8C00006E0994209D825A0CDE900032FA33EA276
:10E8D0000221304606F026FF7CBDD0807CBD0000C2
:10E8E00077726F6E6720706172616D6574657220FA
:10E8F000636F756E74200A00537570657276697364
:10E90000696F6E2074696D652D6F7574206D7573F8
:10E91000742062652061206E756D6265722E0A003A
:10E920001A7A00205375706572766973696F6E206C
:10E9300074696D652D6F7574206D757374206265D3
:10E94000206265747765656E0000000025732020E5
:10E95000256420616E642025642E0A002831202B56
:10E9600020536C6176655F4C6174656E6379292014
:10E970002A20436F6E6E5F496E74657276616C5FBC
:10E980004D6178202A2032202D20000053757065BB
:10E9900072766973696F6E5F54696D656F75742007
:10E9A000696E206D696C6C697365636F6E6473204A
:10E9B0007368616C6C206265206C6172676572209F
:10E9C0007468616E3A0000002573200A257325647F
:10E9D0000A0000002DE9F04185680646002495F8FC
:10E9E0002000002811D0A046F8F7D2FB07460068A7
:10E9F00004F1200104F10104695CE4B2415CC9073F
:10EA000005D0002CF4D185F82080BDE8F081641E8B
:10EA100014F0FF040FD0A87F021B04F12000291876
:10EA200005F12000521CF8F705FCB168887F001B37
:10EA30008877B168C877B2683D68937FD0181F3077
:10EA40000446002102E0491CC9B2401E0778EF5D70
:10EA5000FF07F8D18442D8D05B1A203302F8038034
:10EA6000B268907F401A9077B168C877CDE770B5EB
:10EA70000E46054614463C211046F8F703FC0120DB
:10EA8000A070022020700020206305B12563A663DA
:10EA900070BD10B5D0E90234D1E90220D11AA041ED
:10EAA00001D3012010BD002010BD00002DE9F04170
:10EAB0000446806815460F46827FC17F531A2A4458
:10EAC000DEB27F2A37D8002D35D0084400F120016E
:10EAD00005F120021044721CF8F7ACFBA0682A462E
:10EAE000C17F084439462030F8F7A4FBA0682030E5
:10EAF000FEF7F4F8A16811A28877A068C17F4318D7
:10EB000008212046203306F00DFEA068C17F29446D
:10EB1000C177204600F075FA18B9204601F032FBA3
:10EB200010B1204600F08CFA002E04D02046BDE83B
:10EB3000F04100F01DBBBDE8F0810000257300002E
:10EB40002DE9FC410F462021019121491F4C4978B4
:10EB5000002931D02049214B90F849201D4EC91A77
:10EB6000CD085AB1024601A919480091234604F183
:10EB70002001001D07F09CF900281FD07088022892
:10EB800005D3022000EB054015A108F043FC20212D
:10EB9000204607F03DFB00280CD17088032806D3DF
:10EBA000032000EB05403A461AA108F037FC07495C
:10EBB000384681DFBDE8FC810320FBE722462023A5
:10EBC0001146224807F0C0F8E5E70000BC9A002093
:10EBD000AC7B0020A07F0020B05D0400385D040005
:10EBE0004372656174696E6720696E76616C6964F1
:10EBF0002073686172656420736563726574207444
:10EC00006F206D616B65204C455343206661696CD4
:10EC10002E00000043616C6C696E672073645F6254
:10EC20006C655F6761705F6C6573635F64686B657B
:10EC3000795F7265706C79206F6E20636F6E6E5FA6
:10EC400068616E646C653A2025640000ACF60300D0
:10EC500010B5A0F57F420B46FF3A01D0012010BD50
:10EC600003A20221184606F05DFD002010BD000041
:10EC7000496E76616C6964206465766963652061BC
:10EC80006464726573730A0073B58CB00646002025
:10EC900000900D9880B100246D4621460DA805F026
:10ECA00091FD30B1009805EB400084800098401C35
:10ECB0000090641C142CF0D32C2269463046F8F7DF
:10ECC000B9FA0EB070BD2DE9F04117880646B81D9F
:10ECD00014460D46984202D90C20BDE8F0813188D7
:10ECE000072206290AD34FF4486C4FF6FF7361459B
:10ECF00001D9994202D17088062801D21046ECE76A
:10ED0000604501D99842F9D1994203D0984201D087
:10ED10008142F3D80520E85520881221401C80B29A
:10ED2000208029542088401C80B2208041193088DE
:10ED30000FF08FFC2188084480B220804119708830
:10ED40000FF087FC2188084420800020C5E7FBF7EE
:10ED50008DBA000038B54A7A0F4B62B100220A72B0
:10ED60005969002906D001228DF80020ADF8020073
:10ED70006846884738BD0A7A62B19B684C6802468B
:10ED800019462046FBF7BEFA0028F3D0BDE838400C
:10ED90000EF048BA5B68F1E70C990020F0B585B039
:10EDA00016460F4604461D4614220B496846F8F7DE
:10EDB00041FA0A488DF80870ADF80240ADF80A60D3
:10EDC0008DF80C50017800222046FCF707F96846C0
:10EDD00000F0DEFE05B0F0BDE0F50300407C002051
:10EDE000FAF706BE40F2A5110148F8F74BBA000049
:10EDF000FC890020094A92F8A431834205D9C0EB6E
:10EE0000C00000EB4000104400E00020086000203B
:10EE1000C860886002A0486070470000FC8900203C
:10EE2000436F6E6E656374207769746820616464F3
:10EE3000726573732E000000084A92F8A431834271
:10EE400005D9C0EBC00000EB4000104400E00020FA
:10EE500008600020C860886048607047A18B00206F
:10EE6000C1EBC101084401220149401CFDF7D8BB98
:10EE7000A18B0020C1EBC10100B50A1885B00621A5
:10EE80006846521C02F0AEFB012203496846FDF7BA
:10EE900088FB05B000BD0000A18B0020026813684C
:10EEA000526831B19A4202D38068801A07E0981AFA
:10EEB00070479A4201D3D01A70478068C01A401C2C
:10EEC00070472DE9F04389B0884604466E462021FC
:10EED0003046F8F7D7F9002504F120091020211851
:10EEE00011F8012D521C12F0FF020A7002D1401ECF
:10EEF0000028F4DC334622460121484603F0B3FCE7
:10EF0000070017D110351036202DE7DB694618F8B9
:10EF100000200B5C53400B54401C2028F7DB802260
:10EF2000484603F0B7FC070004D104AD95E80F0094
:10EF300084E80F002021684604F022FB09B038461F
:10EF4000BDE8F083002904D00A46006901A107F05A
:10EF5000D9BA70471B5B25644200000070B50546B6
:10EF600004F090FB044600786178884203D1A078D1
:10EF7000E17888421AD0E178A078814204D9081A51
:10EF8000C1B22846FFF7DEFF20786178884205D9B4
:10EF9000401AC1B2284600F047F804E0081AC1B28E
:10EFA000284600F01BF9A868817FC17770BD70B555
:10EFB000054604F067FB044601788079401C8142D5
:10EFC00002D1A07801281BD0A078012804D9401EC6
:10EFD000C1B2284600F00EF92078A179884206D9FE
:10EFE000401A401EC1B2284600F01EF805E0081A7B
:10EFF000401CC1B2284600F0F1F8A9680020C8778B
:10F0000070BD10B504460068FDF768FE0146A068B3
:10F01000C27F407E1144B1FBF0F200FB121008B138
:10F02000002010BD012010BD002904D00A4600694F
:10F0300001A107F067BA70471B5B2564440000001C
:10F04000006901A107F05EBA0A0000002DE9FC4743
:10F05000002604468DF8046080683546B146B04607
:10F060008021A030F8F70EF94049206907F04AFAEC
:10F07000206907F054FA00276B46012201A92046B7
:10F08000FDF7D6FC0098D8B19DF804001B2806D0E7
:10F09000A16891F8A0101B29EED152281FD0A268B8
:10F0A00008F1A001505408F1010000F0FF08B8F188
:10F0B000090F0AD9A168042081F8A090BDE8FC8757
:10F0C0002A494FF6C0101031884700980028D3D144
:10F0D0007F1CBFB2B7F57A7FCED30D20EEE7A168D3
:10F0E00008F1A0004A4601F80090A16891F8A1003B
:10F0F0005B2803D081F8A0200B20DFE702206FF00F
:10F100002F0309E005EB850503EB4505401C3D4455
:10F11000C0B2ADB2802808D200F1A007CF5D3B2F6E
:10F12000F0D1401CC0B2802809D30C20C6E700BF34
:10F1300006EB860603EB46063E44B6B2F1E700F165
:10F14000A007CF5D002FF3D1FA20FA2E01D9087560
:10F1500000E00E75FA2D02D9A168887501E0A0685B
:10F160008575A06880F8A0200020A7E761F903005A
:10F1700070B5054604F086FA04468078E178884246
:10F1800001D1012600E000262846FFF73AFF18B912
:10F19000284600F0F7FF10B12846FFF751FF1EB1D7
:10F1A00060782178401A12E0E078A178401AC1B264
:10F1B000284600F01FF820786178884206D9401A66
:10F1C000C1B22846BDE8704000F008B8081AC1B2C4
:10F1D0002846BDE87040FFF727BF0000002904D093
:10F1E0000A46006901A107F08DB970471B5B2564D1
:10F1F00043000000002904D00A46006901A107F07D
:10F2000081B970471B5B256441000000F0B587B0F1
:10F210000746002005900690ADF81410ADF81610C2
:10F220000190029001AA05A9384690DF060029D076
:10F230001748184A154D801AC0086988012202EB48
:10F24000004441B1304609F043F9034620463A46AE
:10F25000114908F0EAF8BDF8042012B9BDF806001B
:10F2600038B1688828B1BDF8063020460BA108F0F7
:10F27000DCF8BDF808202AB1688818B12046174983
:10F2800008F0CCF807B03046F0BD00009C7F0020AD
:10F29000A85D0400385D04005C30040054686520FB
:10F2A0007265717565737465642054582F525820C7
:10F2B0007061636B6574206C656E67746820697338
:10F2C00020746F6F206C6F6E672062792025752F18
:10F2D0002575206F63746574732E0000A8300400D8
:10F2E00070B504460948012105F0A8FABFF35F8F05
:10F2F0000025002808D1204602F07EFD002803D119
:10F30000BFF35F8F0148056070BD00009C7B00204B
:10F31000094A92F8A431834205D9C0EBC00000EB42
:10F320004000104400E0002008600020C8608860B1
:10F3300002A0486070470000468D002044656C655F
:10F3400074652064657669636520626F6E6420620F
:10F350007920616464726573732E00002DE9FF41AA
:10F360000C4620B14FF4064004B0BDE8F08120798E
:10F37000002748F2096538B141F61D5601281BD017
:10F38000022826D0681DEFE702202071029703971C
:10F39000E0680190694601A80DF0B0FA50B10298FA
:10F3A0008188E18000882081BDF8001002980DF06E
:10F3B00023FBD9E72846D7E70A4B6A460021A01D60
:10F3C0000DF054FA38B1074918398F61CF61A8425E
:10F3D000CAD13046C8E70348818801980DF00CFB7C
:10F3E000F5E70000507D0020F0B587B00C460746D9
:10F3F0001646142101A8F7F745FFA07800B90120AF
:10F400008DF81A002088ADF8180006A80190A079A0
:10F4100069460EF0AFF86D46E079691C0EF0AAF867
:10F42000E07800289DF8020002D040F0080001E0DA
:10F4300020F008008DF80200217911B140F0100091
:10F4400001E020F010008DF80200617911B140F068
:10F45000010001E020F001008DF80200217A09B1DD
:10F46000022100E0012161F342008DF802000295C3
:10F470006089ADF80C00A089ADF80E00E089ADF808
:10F48000100020690590324601A93846ABDF07B06D
:10F49000F0BD000070B500240F4D10E0686800EB6F
:10F4A000C406307809F07AF97178012901D0012178
:10F4B00000E000214140307800F0BEFA641C28785A
:10F4C0008442EBDBD5E90401084303D0BDE870407A
:10F4D0000EF0C4BC70BD0000A07C00202DE9F843F4
:10F4E0000026ADF80060B0F81C90264CD0F81850FB
:10F4F0000746B04606EBC60000EB400001190622A5
:10F50000F81C491CF7F7EAFE00280FD0761CF6B26B
:10F51000142EEFD35FF0000000EBC00101EB4101BE
:10F52000615C29B1401CC0B21428F5D3BDE8F88352
:10F5300000EBC00000EB4000061957F8031FC6F8A7
:10F540000110B988A6F80510012121542846092385
:10F550006A464946FBF7D4F9040007D12846082338
:10F560006A464946FBF7CCF90400DFD0BDF800003D
:10F5700022462918F01DF7F75DFE311981F8078042
:10F58000D4E700000886002010B50021024805F0ED
:10F5900055F980F3100010BD08AA00204FF4803206
:10F5A0008A400168C1F848230068C0F80823704702
:10F5B0004FF4A07202EB810189B200F0ADBA2DE9DF
:10F5C000F04105460E464FF4A07000EB860081B274
:10F5D00028684FF48034B440984622F07F47C0F842
:10F5E00008432868C0F84843286808F0ADFC28683C
:10F5F00000EB8600C0F840752868C0F84443B8F1B5
:10F60000000F02D02868C0F80443BDE8F08100680C
:10F61000D0F804057047000070B54379274C2A4D97
:10F6200044F823204279231D03EBC202254C1679AE
:10F63000234A121BD40846B16888082602283AD308
:10F64000022000EB044021A133E006680A88C6F8D6
:10F65000082590F904208978002A4FEA411104DB3B
:10F6600002F1E02282F8001405E002F00F0202F13C
:10F67000E02282F8141D90F904100122002909DB10
:10F6800001F01F0602FA06F64909890001F1E0219E
:10F69000C1F800614179002603EBC1010A7141798B
:10F6A00043F831006888032805D3032000EB0440A9
:10F6B0000FA107F0AFFE304670BD0000187D00209E
:10F6C000785E0400385D040004800020525443201A
:10F6D000696E7374616E636520616C7265616479D3
:10F6E00020696E697469616C697A65642E00000036
:10F6F0005254433A20696E697469616C697A656431
:10F700002E00000090F90400002809DB00F01F0221
:10F71000012191404009800000F1E020C0F8001272
:10F7200070470A46022100F07DB94FF4827100F063
:10F73000F3B9006801210160704700680121416050
:10F7400070472DE9F05F07460C464FF4A07000EBC0
:10F7500084001FFA80FA38684FF48036A6409B4632
:10F7600022F07F45C0F848633868C0F808633868FD
:10F77000D0F8048500EB8402D2F84095C2F84085A9
:10F780005146386808F0E0FBA9EB080020F07F4004
:10F79000012806D1102008F043FF5146386808F0D0
:10F7A000D3FB3868D0F80485C0F84463A5EB0801A2
:10F7B00021F07F413868012900EB840010D0C0F8A7
:10F7C00040553868D0F804156FF07F4C6A1A521E05
:10F7D00022F07F42ACEB0B03934217D362B118E0E7
:10F7E0006D1CC0F84055102008F01AFF3868D0F89A
:10F7F000040540450AD10CE000EB84006D1CC0F804
:10F8000040553868D0F80405884202D00D20BDE884
:10F81000F09F01223146384600F004F90020F6E757
:10F8200013460A460021FFF7B9BA10B5084611463B
:10F8300006F07CFD002010BD10B51446FFF717F947
:10F840000148606310BD00009CFD03002DE9F843F2
:10F85000104D0F4680461E4691466946286804F0C2
:10F8600045FF040014D01C21F7F70CFD0120207186
:10F87000C4F81490380BC4F80080C4E902606946EB
:10F88000286804F054FF0CF07BFF0020BDE8F883EB
:10F890000420FBE70CFA030010B503780022072BC5
:10F8A00006D2DFE803F005040610202930000A70B4
:10F8B00010BD01230B7003898B818388CB81C068C5
:10F8C00088600A7410BD02220A7002898A818288C7
:10F8D000CA81C2688A60807D062802D00020087430
:10F8E00010BD0120FBE703220A70C2888A810289C9
:10F8F000CA81C068886010BD04230B70C0888881ED
:10F90000CA818A6010BD0520087010BD70B5064D13
:10F910000646002455F8241009B130468847641C77
:10F92000042CF7D370BD000094A2002030B504462B
:10F93000006887B00D46806800281FD018216846EF
:10F94000F7F7A0FC0195A0680590207910B1012877
:10F9500010D107E001208DF8000020690290E068D6
:10F96000039005E002208DF80000E068000302909B
:10F9700060690490206881686846884707B030BD98
:10F98000F0B585B017460C00054620D0112C1ED0CE
:10F99000082C1CD01F48204A1D49801AC6084888D8
:10F9A0000D2C16D050B1204608F092FD02460120E1
:10F9B00000EB06402B46194907F037FD2A46072180
:10F9C000684603F0E9FE0294684600F0EFF805B0DF
:10F9D000F0BD022806D3022000EB06402A4610495B
:10F9E00007F01CFD2A460321684603F0D5FE27B127
:10F9F0003878C00701D0012000E002208DF808000F
:10FA000000208DF80C0041F20110ADF80A00DBE790
:10FA1000BC7F0020E85D0400385D0400643B040006
:10FA2000543A04000368C3F84413002A02D0006863
:10FA3000C0F80413704700002DE9F84F0E46344912
:10FA4000804601EB5001C007097801D00F0901E0A1
:10FA500001F00F074FF00009424601204946F7F731
:10FA600078FBDFF8B0A004460D46052F4ED2DFE844
:10FA700007F003161B282C00002E47D0012140461A
:10FA80000EF080F88DF800906846FAF75BFC50465F
:10FA9000D0E904120C431543CAE9044532E00EB123
:10FAA000022114E0002112E04EB1032140460EF085
:10FAB00069F84046BDE8F84F01210EF097BE0121DC
:10FAC00005E0002E22D1042101E02EB103214046A1
:10FAD000BDE8F84F0EF056B8002140460EF052F83F
:10FAE000002140460EF082FE8DF800906846FAF73D
:10FAF00029FC5046E243D0E904341A4024EA0501C7
:10FB0000CAE904219DF80000FAF740FCBDE8F88F2F
:10FB100014A20020A07C002010B5006842581AB141
:10FB200008F012FA012010BD002010BD10B50446E7
:10FB3000408801F095FCA080024801682046BDE89D
:10FB400010400847987B002010B50446808801F0DB
:10FB500051FB6080024801682046BDE8104008471C
:10FB6000A87B00202DE9F04107460024064E074DF2
:10FB700005E000BF56F8241038468847641CE87832
:10FB80008442F7DBBDE8F0811C9F0020D07B002081
:10FB900010B50446408801F063FCA080024801686B
:10FBA0002046BDE810400847A0F503000149096858
:10FBB0000847000030F6030070B586B004461421F3
:10FBC0006846F7F75FFBA0890125A0F54040ADF836
:10FBD000040020782F4E062833D2DFE800F03203ED
:10FBE00003032C4AA08900F0EBF930B9E08943F611
:10FBF000FE71A0F54040884223D8A07B8DF8080014
:10FC0000207803280FD000208DF80900A068039009
:10FC1000606850B109208DF8000060680490684663
:10FC20000BF014F90DE00120EEE708208DF800003C
:10FC30008DF81050F3E7A08900F0C2F908B1E0890F
:10FC400030B17078002801D00BF066FA06B070BDB4
:10FC5000606830B10B208DF800006068029075700C
:10FC6000DDE70A208DF80000BDF804000BF0FCFA77
:10FC7000F5E7606848B114208DF8000060680290D4
:10FC80004FF6FF70ADF80400C9E713208DF80000AF
:10FC9000F6E70000BC7B002038B504460F4800782A
:10FCA000B0B1A4F57F40FF380FD068460CF066FC79
:10FCB00088B10521017001210171C48068460CF0F2
:10FCC0006BFC0CF04FFD002038BD48F2036038BDDE
:10FCD00048F2016038BD48F2076038BD587D002009
:10FCE0000D4808B5007888B168460CF047FC80B133
:10FCF0000621017068460CF04FFC0848017809B1F4
:10FD0000012101730CF02EFD002008BD48F20160B6
:10FD100008BD48F2076008BD587D002058A30020A8
:10FD2000F0B587B014216846F7F7ACFA304C20786C
:10FD300018B16846FFF7EAFD57E0201D04F060FDAA
:10FD400098BB40F6F8700168481C02D14FF01020B3
:10FD500041694FF08050026940694B1C01D100FBA2
:10FD600002F1244800220161A1F54051C1602249FD
:10FD700006F076FD002823D121481C238C221F4940
:10FD8000006804F0A0FC0AF0BBFD050016D0022DAF
:10FD900014D000270126062D14D005A80CF0EEFB88
:10FDA00098B106700C2D1BD200E01EE0DFE805F0D4
:10FDB00018101810181718171812141248F20A60A1
:10FDC00007B0F0BD26706760B3E748F20760F7E759
:10FDD000077105E0032100E00221017100E00671D6
:10FDE00005A80CF0D9FB0CF0BDFC0020E8E70000F2
:10FDF000587D0020507F00201CFA0300A4A20020A0
:10FE000088F7030038B5040014D069460CF076FD7D
:10FE1000B0B1BDF8000000EB80010B4800EB8100A1
:10FE2000C16851B1A17A41B1C168491EC1600020C9
:10FE3000A07238BD48F2046038BD48F2056038BD94
:10FE400048F2096038BD000030A300201FB501A9A9
:10FE500068460CF00BFD04B010BD07B513460A460A
:10FE6000694600200CF002FD0EBD07B513460A4698
:10FE7000002168460CF0FAFC0EBD20B119B10068F3
:10FE800008600020704748F204607047F8B50D46DE
:10FE9000040018D0BDB169460CF030FDB0B1BDF81A
:10FEA00000000C4900EB800001EB800001210C30C8
:10FEB000666804F0A8FC2E6060680C306860012061
:10FEC000A0720020F8BD48F20460F8BD48F2096055
:10FED000F8BD000030A3002018B1032300220EF06B
:10FEE00003BF48F204607047022300220EF0FCBEFC
:10FEF000094910B50A69042A0AD0084A096942F872
:10FF0000210005480121103004F07DFC002010BDC7
:10FF100048F20B6010BD0000387D002094A2002044
:10FF20002DE9F84F044624480078D8B1F4B11221E5
:10FF30002046F7F7A7F90320DFF8809020800025FE
:10FF400004F1100804F10E0A05EB850109EB8106A6
:10FF500030897189084487B270680AF05BFC032815
:10FF600007D009E048F20160BDE8F88F48F204606C
:10FF7000FAE72088401E20806088F168084460808D
:10FF80002089718908442081608938446081C7F5DF
:10FF90008060A18980B2814200D2A0815346A21D17
:10FFA000211D2846CDF800800CF044FD6D1CADB23B
:10FFB000022DC9D30020D7E7587D002030A30020B0
:10FFC00043F6FE71A0F54040884201D801207047F9
:10FFD0000020704710B504460078182802D1FAF7BF
:10FFE000D9FF207010BD10B504460078182802D142
:10FFF000FAF7D0FF207010BD0AB104F0EEBB04F098
:020000040003F7
:10000000A1BB70B50D460446B0F81414D0F8100426
:100010000122FAF765FC00B1057004F13C0204F519
:10002000826104F1540072DF70BD000070B51346A8
:1000300000220546112900D10122074C33B1217954
:10004000FAF7CCFF00226178284600E06178BDE82D
:100050007040FAF7C3BF0000487C0020F7B5174690
:100060000E0011D00098002560B10024214668469A
:1000700004F0A8FB18B1A0B23946B0476D1C641C4F
:10008000142CF3D32846FEBD0020FEBD2DE9F05F01
:1000900017460E00814670D013B1F9B2FFF79EF8F3
:1000A0000024F7F775F88246006800E0641C315DB3
:1000B000415CC907FAD100253046FCF70FFED9F89C
:1000C0000810001B4A7ED11B814228D306EB04088E
:1000D00005E000BF18F805100A290CD06D1C8542F8
:1000E000F8D33119D9F8100006F00CFA4846BDE8EB
:1000F000F05FFEF7A5BFD9F8100006F010FA4146F0
:1001000000232A464846FDF725F82C444846641C3F
:10011000FEF796FFF9B24846FFF760F8E1E78B4635
:10012000DAF8001006EB040818F805000B5CDB0792
:1001300002D0AB460A2804D0E819904201D26D1CC7
:10014000F2E7D9F8100006F0EAF9414600235A46D2
:100150004846FCF7FFFF5C44DAF8000000E0641C4E
:10016000315D415CC907FAD14846FEF769FFF9B233
:100170004846FFF733F89EE7FFE7BDE8F09F406889
:100180000CF01CBA10B504460068FCF7A7FD014648
:10019000A068827F407E1144B1FBF0F200FB121098
:1001A00008B1002010BD012010BD000030B4124A7B
:1001B0001248134C0B88001BC0085288A3F520631B
:1001C000773B0ED003F6FD73B3F5604F12D1032ACF
:1001D00010D30A79032101EB004030BC09A107F0DC
:1001E0001DB9032A06D3052101EB004030BC0EA146
:1001F00007F010B930BC704730800020D05E04009A
:10020000385D040044617461206C656E6774682019
:100210007570646174656420746F2025752062793F
:100220007465732E000000004D5455206368616EA4
:10023000676564207375636365737366756C6C7949
:100240000D0A0000F8B5F7F76EF885B21748184A9E
:10025000A5F11701801AC0080522164E02EB0044D2
:10026000E1290BD37088032807D3F720009020469C
:10027000172311A217A107F0E0F8F8BD2946194885
:1002800004F0ACFB08B1F9F7F1FF2946154804F07A
:10029000B1FB08B1F9F7EAFF70880328EDD32046D7
:1002A000BDE8F840104907F0B5B80000D05E040082
:1002B000385D0400308000204D54552076616C7507
:1002C00065206D757374206265206265747765655D
:1002D0006E0000002573202564202D202564200D4C
:1002E0000A000000508100203C22040070B510B1CB
:1002F0004FF4064070BD1C4C0025207B08B12573CF
:1003000001E000F0A5F8207808282AD2DFE800F004
:100310002904080C10291422BDE8704000F026B80A
:10032000BDE8704000F082B8BDE8704000F064B8ED
:10033000BDE8704000F040B80620207060880A498F
:1003400000EB8000283901EB80004068BDE8704078
:100350000AF0B6BA072020706560BDE870400AF068
:10036000BDBA48F20E6070BD58A300201149F0B428
:100370008A1C00200346A1F128050C18A67A4EB16C
:10038000A37200EB800405EB8404E66816B9247CB4
:10039000012C0AD0401C80B20228EED30B704B8097
:1003A0004B60F0BC41F61D5070471080F0BC00F06F
:1003B0003DB8000058A300200C48418801EB8102A1
:1003C000A0F1280101EB8201CA6852B10521017038
:1003D000074802218180016800230122054806F0B8
:1003E00097B9042202704968F6E7000058A300207C
:1003F000607D0020507F002038B50A49084803245A
:100400000B684268898803EB810153880470DB1C08
:1004100000201B0400909B0B034806F0DFFA38BD58
:1004200058A30020607D0020507F0020074910B5B0
:100430004888091D0CF0B2FA18B1BDE81040FFF76A
:10044000DBBFBDE81040FFF7B7BF000058A3002096
:1004500070B5194C0121207808281AD2DFE800F085
:100460000419191C252929182089134A401C2081A8
:10047000002060802073283A00EB800312F82330BC
:1004800043B100232518401C80B2AB720228F3D37D
:10049000217070BD0123F5E76068084940888A88AB
:1004A000C01C10448880022004E000F009F80620F7
:1004B00000E00720207070BD58A30020607D002060
:1004C0000A4909484988026801EB8103074928392C
:1004D00001EB83014B6803604A6082880A81022233
:1004E0008280002008747047607D002058A300209F
:1004F0002DE9F047064680883288DFF8889186B07B
:100500000746502A39D012DC6049614BDFF8788108
:10051000A1EB03014FEAD1014FF0020306F10A05F6
:1005200003EB0144352A3AD0362A07D174E0522A27
:1005300002D0542AF9D102E001F0FAFB96E014222D
:1005400054496846F6F776FEADF80270384600F07A
:1005500087FFADF8040000F07FFA00224C4699F8BE
:1005600004103846FAF73AFD0022E1783846FAF7E7
:1005700035FD6846FFF7DAFA78E0307B012875D15F
:10058000B07A012872D13089A0F5245102396DD199
:100590000121384601F028FC0EF0CAF866E099F80F
:1005A0000610FAF703FD002860D0002299F8061023
:1005B0003846FAF713FDF288B2F5857F23D032B1C1
:1005C000B8F8020002281ED3204633A113E02A887F
:1005D000012A07D0B8F80200022803D320463DA123
:1005E00006F01CFF6A88012A08D0B8F80200022829
:1005F00009D3204646A106F011FF04E0A988002295
:100600003846A1DF08B100212DE0012299F807103A
:100610003846FAF7E3FC29E04FF0000A99F8071092
:10062000FAF7C4FC10B3002299F807103846FAF71D
:10063000D5FCF28832B1B8F80200022812D3204665
:1006400015A108E0AA88012A08D0B8F802000228FB
:1006500008D320462EA106F0E1FE03E0A87900B100
:1006600001208246514638460DF0EEFA0022374905
:1006700099F80200FAF734FC06B0BDE8F0470CF038
:1006800021BE0000907B0020907F0020905D040040
:10069000385D0400ECF40300556E65787065637492
:1006A00065642047415454207374617475732077D6
:1006B00068696C652067657474696E672043415290
:1006C00020636861722076616C75653A2030782508
:1006D000780000004D756C7469706C652028256485
:1006E00029204341522063686172616374657269B5
:1006F000737469637320666F756E642C20757369FB
:100700006E67207468652066697273742E0000003D
:10071000556E65787065637465642043415220634B
:10072000686172616374657269737469632076616C
:100730006C7565206C656E67746820282564292CAB
:100740002073746F726520302E000000D1A4020067
:1007500070B504460078002814D1608801F0E8FAEA
:100760006588284600F044FA28B107480122C1787C
:100770002846FAF733FC6088FBF7A6FABDE870401C
:100780000DF0D6BF70BD0000907B002070B5214CED
:1007900000252570FAF7FEFB6070FAF7FBFBA070EE
:1007A000FAF7F8FBE070FAF7F5FB2071FAF7F2FBC5
:1007B0006071FAF7EFFBA071FAF7ECFBE071627879
:1007C0000121182A18D0A278182A15D0E278182A00
:1007D00012D02279182A0FD06279182A0CD0A27967
:1007E000182A09D0182807D004F10C000560BFF3BF
:1007F0005F8F2170002070BD0748408840B10748D6
:10080000074A801AC00801EB0040064906F002FEC4
:10081000032070BD907B0020907F0020905D04003D
:10082000385D04002C2C04007CB5044600780828B0
:1008300037D1607A58BB207A1C4E4FF6FF750128DD
:1008400011D0072802D008282BD121E0A08800F081
:10085000D1FC0446A84224D0012101F0C5FA20466B
:10086000FBF732FA1DE0A0886A4601210AF000FA7F
:1008700068B90198007850B1A08800F0BBFCA8428C
:100880000FD00122F178FAF7A9FB0CF01BFD08E06C
:10089000F068012805D1BFF35F8F044900200C31B7
:1008A0000860BDE87C400DF043BF0000907B002055
:1008B0002DE9F0410D460600174609D05DB1144CF4
:1008C00014496068884209D048F20250BDE8F081BE
:1008D00048F21350FAE748F21450F7E713462A4655
:1008E0003146206805F0C0FBA0F505417139EDD116
:1008F00000221146104605F01FFC0028E6D13B46B9
:100900002A4631462068BDE8F04105F0ADBB000045
:100910005C7C00206572E54B2DE9F0470024884699
:1009200007461E461546FF212046DDF820A005E0BB
:100930002A5C0AB1295C03E0401C0834B042F7D3BA
:10094000002049000A0A03D1401C641C0828F8D37F
:10095000BFB3BEB3B8F1000148F210502FD0002D44
:100960002DD03246284600F089FF60B3DFF86C9046
:10097000534632463946D9F8000005F075FB002889
:100980001DD1E1083846F6F77DFC600708D007EB7B
:10099000D40004F007030178FF22DA40114001700F
:1009A00041463246384600F069FF0028E0D0324622
:1009B0003946284600F062FF0028D9D00020BDE863
:1009C000F08701E003E005E048F21350F7E748F252
:1009D0001450F4E748F21750F1E700005C7C002067
:1009E00000487047EC96002010B50B48FEF70FFE4C
:1009F000094A083AD2E90434C018D2E9063244F16F
:100A00000001C31A71EB020204D24FF08072801809
:100A100041F1000110BD0000E87C002010B5C0B21B
:100A2000FBF73AF90446007807F0B8FE0146607813
:100A3000012801D0012000E0002090EA010F08D039
:100A40000449D1E90401084303D1BDE810400DF089
:100A500005BA10BDA07C00201CB5054AD2E90212DF
:100A6000CDE90012002269460AF0E2FA1CBD00003E
:100A700004F5030003484FF6FF71818001210170E6
:100A800000207047A07B00202DE9FC41804600F04B
:100A9000E7FC002403250127A0F57F412646FF3906
:100AA00008D06A4608210AF0E3F818B90198841DB5
:100AB0008688056832462B4621464046B1DF042829
:100AC00004D0082804D00B2808D002E0112000E050
:100AD0000020002F00D10B20BDE8FC810027A807D3
:100AE00001D50125E6E7344303D00024264603253B
:100AF000E0E7084840880028EDD00748074942460B
:100B0000401AC008012101EB0040054906F086FCAF
:100B1000E1E70000947F0020985D0400385D040048
:100B2000F42E04002DE9FC41804600F099FCA0F56C
:100B30007F410646FF390ED001252A466D1C00274D
:100B4000ADB26B46082130460AF0E6F8040006D044
:100B5000072C36D036E043F20200BDE8FC81019953
:100B600003230A1D0B604046891DB2DF040004D038
:100B70000C2C09D0052C09D009E03246082110467A
:100B80000AF048F904461DE0012700E0002408218E
:100B900030460AF035F988B10B49498869B107F048
:100BA00097FC034609480A493246401AC008012109
:100BB00001EB0040074906F038FC0324002FBCD1AC
:100BC00000E00C242046C8E7947F0020985D0400D4
:100BD000385D0400742E040004488088A0F57F412D
:100BE000FF3901D00CF078BB70470000A07B0020DB
:100BF0000EB502A9019100F033FC6A4601210AF00A
:100C000037F808B100200EBD019800780EBD000035
:100C10002DE9F04107464FF6FF761248B3DF90B159
:100C20001149498861B107F053FC02460F48104949
:100C3000401AC008012101EB00400E4906F0EEFB0E
:100C40000320BDE8F081074C43F20305A41E3246A1
:100C500061883846AFDFA842F3D16088401C6080CD
:100C6000F5E70000A27B0020947F0020985D04003F
:100C7000385D0400282E04002DE9FC4107460020C1
:100C80000E4600900446104D01900CE030F83420E0
:100C90000EA16846F8F772FE39466846F6F710FB73
:100CA00050B1641CE4B255F8260090F83010A1420F
:100CB000ECD80020BDE8FC8155F82600042101EBAA
:100CC000C4010844F6E70000808800202558000091
:100CD0007CB506460020009004460F4D01900EE0C2
:100CE00004EB44000DA135F820206846F8F746FED5
:100CF00031466846F6F7E4FA38B1641CE4B295F878
:100D00004800A042ECD800207CBD04EB440005EB79
:100D10008000C0887CBD0000368800202558000077
:100D2000428800EB82020C328A4201D902207047CD
:100D30008188A1F57F42FF3A06D0018821B1806801
:100D4000401C01D00020704701207047884204D227
:100D50000068401C01D0012070470020704700004F
:100D60002DE9F04180461748174A154E801A0F4664
:100D70007188C008052202EB0044032903D32046F2
:100D800012A106F047FB00250CE0032808D3791BCD
:100D900001EB080013A110F8012C204606F03EFBE1
:100DA0006D1CEDB27088BD42EFD3032805D32046F9
:100DB000BDE8F0410DA106F02DBBBDE8F0810000BB
:100DC00030800020D05E0400385D0400436F6E6EFA
:100DD000656374656420746F206164647265737305
:100DE0003A200000252E3258200000000D0A000095
:100DF000FEB5002604460096019602968068E9B387
:100E0000D0E950128A4272D0D0F83C0100286ED04E
:100E10002046FEF7CCF8A068D0F84451002D69D0E8
:100E2000002309226946284606F023FDA1689DF8A3
:100E300008500098C1F84401A06800230922D0F8A6
:100E40004401694606F015FDA1689DF808200923B4
:100E5000D1F844012031521C06F00BFDA1689DF829
:100E60000800C877A1689DF8080088779DF80800F9
:100E7000A84202D22046FBF719FC00E00BE0A36871
:100E80002BA208212046203304F04CFC2046FEF71C
:100E9000B8F868BB43E0D0F84401002847D02046AA
:100EA000FEF785F8A06800230922D0F844016946BE
:100EB00006F0DFFCA0680199C0F84411A068002981
:100EC000857FB9D1A030FBF709FF0028A06805D0C5
:100ED00000F1A0012030F6F70EFA01E080F8206062
:100EE000A0682030FBF7FAFE8DF80800B6E71EE098
:100EF0001AE0FFE72030FBF7F1FE10F0FF05A068D5
:100F0000D0F83C11C0F84411A06805D000F12001D0
:100F1000A030F6F7F0F98FE780F8A0608CE7204664
:100F2000FFF730F9002802D02046FEF789F8FEBD11
:100F300025730000FEB50D46816804460026D1F8F1
:100F40003C0138B300230922694606F092FC019562
:100F5000A06800230922D0F83C01694606F091FC04
:100F60000196A068D0F83C110091807F8DF80800B0
:100F7000A068C0F83C51002309226946284606F0C3
:100F800080FCA168092328468A7F2031521C06F084
:100F900078FCFEBDC1F83C51A068C0F840510096F5
:100FA0000196A068807F8DF80800E4E7FEB504464E
:100FB0008068D0F84061002E28D0002309226946BD
:100FC000304606F056FCA16801980025C1F84001A2
:100FD000009501952B46092269463046029506F098
:100FE00050FC304606F017FCA168D1F8400170B102
:100FF00000230922694606F03CFC0095A068002306
:101000000922D0F84001694606F03BFCFEBDC1F85C
:101010003C51FEBDFEB5044680682030FBF75EFE05
:1010200010F0FF05A0684FF00006C0F8446133D00F
:10103000A068D0F83C01E0B100230922694606F01F
:1010400018FC9DF80820AA4213D1A068092300F1DA
:10105000A001D0F83C01521C06F00BFCA06800F186
:10106000A0012030F6F72CF90028A06880F8A060D5
:1010700012D000260A352946606906F09CFB010063
:10108000204604D003B0BDE8F040FFF753BFFFF7A0
:101090008DFF761C082EEED3FEBD3EB502780223EE
:1010A0000C46B3EB520F17D1B0F80110ADF8001099
:1010B000C1788DF802108188ADF8041080798DF820
:1010C000060002AA01A92046F8F7B2FF032202A9EE
:1010D0006846F6F703F908B100203EBD01203EBD89
:1010E00070B50D460446142810D2F9F793FF68B185
:1010F000084904EB840001EB4000D0F8021029609D
:10110000C188A980007AA871002070BD43F2020056
:1011100070BD0000A499002070B5018890B010291E
:1011200061D1011D2C226846F6F784F89DF8040071
:101130004FF6FF7603213446B1EB500F2BD009F068
:1011400035FF9DF804006D4640080ED001280CD0F4
:10115000022820D118E00D99281D1131F8F75FFE03
:1011600018B100BFBDF82C4015E00CAA0BA9072050
:1011700009F0F0FE0028EED10DE00D99281D491C64
:10118000FFF78BFF0028EDD10CAA0BA9072009F06F
:10119000E1FE0028F1D1BDF80000B44200EB80016F
:1011A000124820F8114000EB41000199C0F80210EC
:1011B000BDF80810C1809DF80A10017213D0BDF867
:1011C0000000ADF82E000020ADF83040084E8DF83C
:1011D0002C000BAD044600BF56F824102846884763
:1011E000641C022CF8D310B070BD0000A49900203C
:1011F00018F503002DE9F0414FF6FF760546B042A1
:1012000013D00B4F002400BF04EB840037F810000C
:10121000A84206D12046F9F7FDFE10B12046BDE8F0
:10122000F081641CA4B2142CEED33046F7E7000022
:10123000A49900202DE9F047D0B00E4607460829B2
:1012400003D9072050B0BDE8F0871FB316B3502074
:101250004E90E846CDF834D1B82114A8F6F712F82C
:10126000002043AA0DF15001C0EBC00303EB0013B3
:101270000B4442F82030401C0828F5D329482A4A5C
:101280000024801AC0080222DFF8949002EB004587
:101290008A463EE00022114610466FDFD2E7502119
:1012A0006846F5F7EFFF37F814004EAB4CAA07215C
:1012B00009F084FE052814D0072812D09DF81100EB
:1012C00040081AD0012818D0B9F80200022805D326
:1012D00037F814202846154906F0A0F843F20220FA
:1012E000B0E7B9F80200022805D337F814202846E1
:1012F0000F4906F093F80520A4E7C4EBC40000EB07
:10130000041101EB0A00172208F10101F5F792FF21
:10131000641CB442C3D3F2B2002143A86FDF91E74B
:10132000987F0020A05D0400385D04006C2F04004D
:10133000F42F04003EB50C46054609F037FE0BE0DD
:10134000BDF80000A04207D02846029900F00EF830
:1013500010B1BDF800003EBD01AA6946072009F0A2
:10136000F9FD0028ECD14FF6FF703EBD2DE9F041AC
:101370000C46054600F1110701F111061022491C27
:10138000401CF5F7ABFF48B9681C00F06DFA28B1B6
:10139000601C00F069FA08B1012400E00024314625
:1013A0003846F8F73CFD3B780222B2EB530F0CD0E5
:1013B0000321B1EB530F08D03378B2EB530F04D0B5
:1013C000B1EB530F01D0012100E00021084201D10F
:1013D0008C4302D00120BDE8F0810020FBE70188AA
:1013E00011B9421892780AB101207047491C0829A6
:1013F000F7D30020704710B50C460346FFF7EFFF08
:1014000000280AD018882188884205D10822A11C0A
:10141000981CF5F763FF08B1002010BD012010BD36
:10142000142804D2024A00EB800022F81010704702
:10143000A499002070B50546FFF7DCFE0446284657
:1014400009F01AFC002808D1142C06D2034B04EB37
:1014500084024FF6FF7123F8121070BDA49900208A
:1014600010B50446142808D2F9F7D4FD28B1044970
:1014700004EB840031F8100010BD4FF6FF7010BD72
:10148000A49900203EB5044609F090FD0EE00199B4
:1014900020464631FFF7AFFF28B9019920462A318F
:1014A000FFF7A9FF10B1BDF808003EBD6A4602A9CA
:1014B000072009F04FFD0028E9D14FF6FF703EBD2F
:1014C00010B50A4941600A4803F09AF958B906F084
:1014D00055FF07491C238C22087404488C39001FCF
:1014E000006803F0F0F8002010BD000010FA0300BF
:1014F000F4A300202DE9F0412D4F002520B17D609F
:101500004FF40640BDE8F0810879012258B1294E18
:1015100001280CD0264C4FF002080834022820D0B5
:10152000032841D127E00A7109F0D8F93AE00020F8
:1015300000EB800116F82110022908D0401C80B26F
:101540000228F5D33A707D6041F61D50DAE700EBD2
:10155000800006F8205006EB8000406809F0B0F9E2
:1015600020E00D71A4F804800023012212482168B4
:1015700005F0CEF816E00D71206809F0A1F90D49CB
:1015800023682831498801EB810206EB8201D1F8FA
:1015900004C0C4F800C04B60A3880B81A4F8048089
:1015A00006F822500028ADD07D6048F20D60A9E712
:1015B000587D002030A30020507F0020084A0021E1
:1015C00001EB810332F82330834204D101EB810027
:1015D00002EB80007047491C0329F1D300207047BB
:1015E000D09800202DE9FC41164680460D4606297C
:1015F0001ED80020009001904046F5F743FE0024DD
:101600006F1E13E0281B30440AA110F8012C684615
:10161000F8F7B4F969464046F5F73FFEBC4203DAF5
:1016200006A14046F5F739FE641CE4B2AC42E9D3AA
:10163000BDE8FC81252E3258000000003A00000071
:101640002DE9FC5F0E008346DDE90C47C6F1000082
:1016500098469246814600D40846012503E000BF23
:1016600090FBFAF06D1C5045FADAA84500D94546C2
:1016700024B1002E01DB780700D5641EB80702D51F
:10168000B8F1000F0AD0F80708D13CB1A54205D245
:1016900020215846641EFAF7DBFAF6E7002E02DA3C
:1016A0004E462D2102E0780703D52B215846FAF744
:1016B000CFFA07F0030002280BD1B8F1000F08D1D0
:1016C0003CB1A54205D230215846641EFAF7C0FA53
:1016D000F6E7CDE9004743465246314658460CF0FE
:1016E000CDFFBDE8FC9F000070B50D4604460068C4
:1016F0004FF4887106F01DFF4FF49071206806F0DA
:1017000018FF4FF49271206806F013FF4FF4A27196
:10171000206806F00EFF4FF4AC71206806F009FF58
:1017200020681249C0F804132068690740F30730A5
:10173000090E002804DB00F1E02080F8001405E029
:1017400000F00F0000F1E02080F8141D206840F345
:101750000730002809DB00F01F02012191404009F9
:10176000800000F1E020C0F8001170BD10034200BD
:10177000024600201268530713D502F00300012827
:1017800002D002280CD105E0C2F383100B68801C44
:10179000184404E00223086803EB925210440860E6
:1017A0000120704730B585B00D46044614216846C7
:1017B000F5F768FD621C06216846FFF713FF122249
:1017C00029466846F5F78AFD10B1002005B030BD06
:1017D0000120FBE70248007A002800D00120704772
:1017E000F4A3002010B5F5F78FFD08B1002010BD5F
:1017F000012010BDF0B58488A518944200D8224677
:10180000A41AC288D6189A4200D81346D21A4B8816
:101810000788BB420CD34088834209D88888A042FD
:1018200006D3A84204D8C888904201D3B04201D957
:101830000020F0BD0120F0BD0148C07870470000D5
:10184000B87A00200149C87070470000B87A0020BB
:101850000148007870470000D079002001484078A6
:1018600070470000D07900200021425C0AB10120BD
:101870007047491C1029F8D30020704730B5002369
:101880000AE0C45CCD5CAC4205D02006B0EB056F2D
:1018900004D8002030BD5B1C9342F2D3012030BD40
:1018A000007BC0F3C100012803D0032801D0002031
:1018B000704701207047800701D000207047012049
:1018C00070470268134602E08A4204D01268002A78
:1018D000FAD10B6001607047014901200870704720
:1018E000107A002010B51446FDF7C1F8012084F8E5
:1018F0002D0084F82E000420E07010BD30B514884F
:101900002546E41C19B19C4203D90C2030BD14803B
:1019100020E002244C5513881C255B1C9BB21380CD
:10192000CD5413885B1C9BB21380012807D002287A
:1019300007D0032807D0042807D0072030BD002097
:1019400004E0012002E0CC5401E00320C8541088D8
:10195000401C1080002030BD0A4810B5807860B16E
:10196000002401E0022C06D02046F9F731FF641C68
:10197000042CF7D310BD0324F6E7BDE81040F9F7B7
:1019800047BF0000F87A002003480179C90702D058
:101990000078FAF72FB87047F87A00202DE9F04167
:1019A000064610880D00144600F1240104D0994227
:1019B00005D90C20BDE8F08111800020FAE74FF036
:1019C000110805F8008020882221401C80B2208068
:1019D000295420881022401C80B22080284406F11F
:1019E0001701F5F727FC208823214719103080B212
:1019F000208005F8008020881022401C80B22080C2
:101A000029542088F11D401C80B220802844F5F71D
:101A100011FC20884119103020803846BDE8F04183
:101A200002F030BCF72101801721418000210171B3
:101A30004171FB2181711B21C171704770B5064650
:101A40000D46154802F0FCFF04463046F5F76BFCE6
:101A5000C2B2201D824201D81B2A11D20F484088F1
:101A6000032817D30E480F491B23401AC00805212D
:101A7000221DBDE8704001EB00400BA105F0D5BC74
:101A80002946054802F0C2FF002803D0BDE8704097
:101A9000F8F7ECBB70BD00005081002030800020C2
:101AA000D05E0400385D040044617461204C656EB2
:101AB0006774682076616C7565206D75737420623B
:101AC00065206C657373207468616E2025642061E5
:101AD0006E6420626967676572207468616E202594
:101AE000640D0A002DE9FE4F2F4F984692460D00D7
:101AF000814601D000260DE0684601F043FE6A46AB
:101B00000021484609F00CF83878009E10B99DF87D
:101B1000090098B15246314648460BF043FF04464F
:101B2000014600224846FEF781FA0D2C39D008DC28
:101B3000B4B3082C35D00B2C09D132E00520BDE818
:101B4000FE8F112C20D0A4F54050023829D0174820
:101B5000408870B1204606F0BBFC02461448154987
:101B60004B46401AC008012101EB0040124905F024
:101B70005CFC0325B8F1000F04D0324621464846EC
:101B8000FDF7FEFE2846DAE72A46F9784846F9F7D7
:101B900025FA5246B9784846F9F720FA0025E9E7D0
:101BA000FFE72546E6E70000487C0020BC7F0020D8
:101BB000E85D0400385D04000C3B04007EDF04286F
:101BC00000D111207047000070B50D001446064684
:101BD00017D01648C1783046F9F700FA3046FFF7BB
:101BE0003FFC0146A0F57F40FF3800D074B1294684
:101BF0003046FFF7E3FF04462878C0070BD00122E8
:101C00000AE0BDE870400021FFF7D8BF304600F081
:101C10000FF8044605E002222CB1002130460BF0FB
:101C20008BFA204670BD0121F8E70000407C0020BF
:101C30007CB50E4605466A460721304609F018F87D
:101C4000040017D0052C21D0112C2FD01C4840881F
:101C500070B1204606F03CFC02461A481A49334649
:101C6000401AC008012101EB0040184905F0DDFBD6
:101C700003241BE0019C94F84400183410F0010088
:101C800001D0019C34340CB110B106E011240DE0F8
:101C900004F11200FFF7A3FB38B1224604F1120150
:101CA000284685DF040008D000E00B240021002234
:101CB00028460BF041FA20467CBD0121F7E70000E1
:101CC000B87F0020E05D0400385D04009C3904000A
:101CD00070B514460D4606460BF05EFA00280FD08C
:101CE000304608F0A5FE002822462946304603D09B
:101CF000BDE8704008F0A2BEBDE87040FDF790BDA1
:101D000070BD000070B5094D0646A978F9F74EF987
:101D10000446E9783046F9F749F90146224630464B
:101D2000BDE870400123FFF7DDBE0000487C0020C5
:101D3000F0B585B00546002714216846F5F7A2FAEC
:101D4000A5F57F40ADF80250FF3828D02846FEF7B1
:101D50009BFE040025D01F491F4A1D48891ACE0842
:101D60000B2C24D0112C20D0A4F54051023910D0D6
:101D7000408850B1204606F0ABFB0246012000EB44
:101D800006402B46154905F050FB214628460BF02E
:101D900051FA13483A4681782846F9F71FF905B0F9
:101DA000F0BD0E208DF800000EE00127F1E70F21B5
:101DB0008DF800104088022806D3022000EB064070
:101DC0002A46084905F02AFB6846FDF7AFFEE0E722
:101DD000907F0020905D0400385D0400FC2C04001E
:101DE000907B0020502D04000A4602494978F9F7FB
:101DF000F5B80000907B00202DE9F043002785B066
:101E000081463E46FEF78EFE040027D0112C27D0D7
:101E100020482149DFF87880401AC508862C21D057
:101E2000A4F54050023811D0B8F8020050B1204655
:101E300006F04EFB0246012000EB05404B4617A181
:101E400005F0F3FA214648460BF0F4F939464846C6
:101E5000FFF7CAFF05B03046BDE8F0830126F5E77D
:101E60000127F3E714221D496846F5F7E3F9ADF8B9
:101E70000290B8F80200022806D3022000EB0540C9
:101E80004A4617A105F0CAFA6846FDF74FFEDDE79E
:101E9000907F0020905D0400385D04006773636DDF
:101EA0005F6C6F63616C5F64625F63616368655FF1
:101EB00075706461746528292072657475726E6529
:101EC0006420257320666F7220636F6E6E5F686199
:101ED0006E646C653A20256400000000C4F40300C1
:101EE000466C6173682066756C6C2E20436F756C50
:101EF00064206E6F742073746F7265206461746106
:101F000020666F7220636F6E6E5F68616E646C65D1
:101F10003A20256400000000014B03F039B90000AD
:101F200051210300014B03F033B900001D230300CE
:101F3000014B03F02DB9000025230300014B03F0F2
:101F400027B90000052403007CB514460546012985
:101F500002D003F053FD38B102B02846BDE870400E
:101F60000022114603F006BC616805A0CDE900011E
:101F700009A202212846236803F0D4FB7CBD00009F
:101F800020756E6B6E6F776E20706172616D657417
:101F900065723A200000000025733A257325730D01
:101FA0000A0000002DE9FC41074603F027FD38B187
:101FB00002B03846BDE8F0410022114603F0DABB1A
:101FC0001248134E801B050900241AE006EB04108A
:101FD000C2681179FF2903D0527942B10DA207E0FE
:101FE00083680EA20821384603F09CFB08E013A288
:101FF000CDE90021836814A20821384603F092FB42
:10200000641CAC42E2D3BDE8FC810000385D0400F2
:10201000185D0400656E61626C65640025730D0ACD
:10202000092D205374617475733A2064656163747B
:102030006976617465640D0A0D0A00006469736154
:10204000626C65640000000025730D0A092D2053A1
:1020500074617475733A2025730D0A092D20494463
:102060003A2025640D0A0D0A0000000010B5044650
:1020700003F0C4FC30B120460022BDE810401146F8
:1020800003F078BB04F0A8FF30B105A2022120467E
:10209000BDE8104003F046BB0AA20821F7E70000A4
:1020A0004661696C656420746F206C6F6164207494
:1020B000686520636F6E66696775726174696F6EBB
:1020C0002E0D0A00436F6E66696775726174696FE1
:1020D0006E206C6F616465642E0D0A0010B50446B5
:1020E00003F08CFC30B120460022BDE810401146C0
:1020F00003F040BB04F0CAFF30B105A20221204624
:10210000BDE8104003F00EBB0BA20821F7E700006A
:102110004661696C656420746F2073746F7265200A
:1021200074686520636F6E66696775726174696F44
:102130006E2E0D0A00000000436F6E6669677572AF
:102140006174696F6E2073746F7265642E0D0A007E
:102150002DE9FF4FC86881B01D46007917004FF088
:102160000006009057D0072245A12868F5F7CCF863
:1021700078B1082244A12868F5F7C6F800282FD0C6
:102180002B6843A2019805B00221BDE8F04F03F08F
:10219000C9BA012F02D0022F08D008E0019805B07B
:1021A00041A2BDE8F04F022103F0BCBA0126DFF8DE
:1021B000108100240A2258F824106868F5F7A4F862
:1021C00010B1641C052CF5D3052C06D004F0FF09D2
:1021D0000224002E51D0002419E03AA26B68D1E706
:1021E000012F4FF00009F6D0012446E04A4621466F
:1021F000009801F00EFA48B90021204605F02EFAA9
:10220000034638A20221019803F08CFA641C05F001
:10221000CFF9A042EAD805B0BDE8F08F4FF0000A30
:1022200055F824B005F0C4F98046002609E00021E5
:10223000304605F013FA20225946F5F765F858B1F3
:10224000761C4645F3D3464508D04A465146009889
:1022500001F0DFF930B10FE0B246F4E755F8243071
:1022600029A205E00021504605F0F8F903461DA219
:102270000221019803F056FA641CBC42CED3CAE78F
:10228000656E61626C65000064697361626C650013
:10229000556E6B6E6F776E206F7074696F6E3A203B
:1022A00025730D0A000000004261642070617261B4
:1022B0006D6574657220636F756E742E0D0A000073
:1022C0001C7E0020556E6B6E6F776E207365766591
:1022D00072697479206C6576656C3A2025730D0AF5
:1022E000000000004C6576656C20756E6176616952
:1022F0006C61626C6520666F72206D6F64756C65D1
:102300003A2025730D0A0000556E6B6E6F776E20B4
:102310006D6F64756C653A25730D0A00C9680120FC
:1023200048717047C96800204871704730B413463F
:10233000C4680A46214630BCFFF70ABFC0680121C5
:10234000C06841717047C0680021C0684171704722
:1023500030B41346C4680A46214630BC00F052B877
:102360002DE9FF410026244802F047FA2248001FC9
:10237000074602F042FA214C2149A06800900D68FE
:1023800000E000986946284004EB80000C30FFF71D
:10239000EFF90028F5D101AA009901EA050304EB41
:1023A0008303491CDB6842F82030401C009102285E
:1023B000F2D3019800F0030001280BD0022810D1BD
:1023C0000198032101EB90500099BDF80A6001EBE0
:1023D000900005E00198BDF80A60C0F3831008443E
:1023E0000090384602F006FA08B10098A06004B0E8
:1023F0003046BDE8F081000004AA0020ECA50020D2
:10240000187E00202DE9FE4F8846824605F0D0F860
:102410000746D8F80C00407920B922A20221504684
:1024200003F080F924A327A20821504603F07AF98B
:102430002CA20821504603F075F900242DE000BFBE
:10244000D8F80C0001231A4605792146284605F0E4
:10245000B9F88146002301222146284605F0B2F84A
:102460000546032801D2064600E003260121204646
:1024700005F0F4F80346AE4201D22AA200E028A2F9
:10248000294850F8261050F829008DE8070027A2A7
:102490000821504603F046F9641CBC42D0D3BDE885
:1024A000FE8F00004C6F6773206172652068616C5D
:1024B000746564210D0A00006D6F64756C655F6E54
:1024C000616D6500252D343073207C206375727238
:1024D000656E74207C206275696C742D696E200DA8
:1024E0000A0000002D2D2D2D2D2D2D2D2D2D2D2DC6
:1024F0002D2D2D2D2D2D2D2D2D2D2D2D2D2D2D2D0C
:102500002D2D2D2D2D2D2D2D2D2D2D2D2D2D2D2DFB
:102510002D2D2D2D2D2D2D2D2D2D2D2D2D2D0D0A2E
:10252000000000002A0000001C7E0020252D343011
:1025300073207C20252D3773207C20257325730D77
:102540000A0000008AB005F031FA08B1F7F78EFEF4
:102550004FF48041354804F0DBFF08B1F7F786FE01
:10256000F7F7A2FE08B1F7F781FE314A01213148A1
:10257000F7F78EFE08B1F7F779FE2E4800224FF4E8
:1025800020310068F7F7BEFE08B1F7F76FFE294962
:1025900020221C3101A8F4F74DFE062001900820EE
:1025A000029000208DF8180003200090214801239C
:1025B0001A4601A9001D03F027FA08B1F7F756FEE5
:1025C0001C48001D03F0D8FA08B1F7F74FFEF8F7E2
:1025D0002FFF08F09FFE01F011FFF9F789F8164D63
:1025E0006888032811D315481549401AC1080520E9
:1025F00000EB0140044613A104F00CFF6888032897
:1026000003D320461DA104F005FF02F081FC08B1B0
:10261000F7F72CFE0748001D03F074FA04F0BCFD28
:102620000028F2D105F0D6F9EFE7000085A20200FC
:10263000B19E020024F4030030800020D05E04002C
:10264000385D0400424C45206170702077697468E1
:1026500020636F6D6D616E64206C696E6520696EBC
:1026600074657266616365206578616D706C652064
:10267000737461727465642E0D0A00005072657384
:10268000732054616220746F207669657720616CD5
:102690006C20617661696C61626C6520636F6D6D41
:1026A000616E64732E0D0A002DE9FF4F4FF0000894
:1026B00081B014468B468146C246C0F8008025781A
:1026C000002D71D0F4F764FD00900068405DC007F4
:1026D00002D004F801AB84E0D9F800008300401C6C
:1026E000C9F800004BF8034015E02678002E78D09A
:1026F000B8F1000F05D1222E10D0272E0ED05C2E5F
:102700001ED0B04514D12046FAF7E8FA0246611C03
:102710002046F4F78FFD4FF00008E6E72046FAF771
:10272000DDFA0246611C2046F4F784FDB046DCE782
:10273000B8F1000F50D05C2E61D16078404508D1CF
:102740002046FAF7CBFA0246611C2046F4F772FDE8
:1027500055E030281CD100270225605DA0F1300132
:10276000072906D86D1C41EAC701EDB2CFB2052D8D
:10277000F3D3022D0CD92046FAF7B0FA421B6119A7
:102780002046491E921CF4F755FD04F8017BACE786
:1027900078281ED100270225605DA0F130010929AB
:1027A00003D841EA07100DE021E0A0F161010529FD
:1027B00001D8573804E0A0F14101052907D837387E
:1027C00040EA07106D1CEDB2C7B2042DE4D3022D10
:1027D000D1D8B8F1000F12D100980068805DC00711
:1027E0000DD0D9F8001004988142FFF468AFD9F8F1
:1027F000002040464BF822A005B0BDE8F08F641CD5
:1028000073E770B5144682880E4605462088111D70
:102810000144921C994201D8FE2A01D90C2070BDB6
:10282000521C32542088FF21401C80B22080315439
:102830002088401C80B22080811928880BF009FF75
:102840002188084480B22080AA8842B1A96841B199
:102850003044F4F7EFFC2088A98808442080002049
:1028600070BD072070BD30B4144601291A462146B8
:1028700002D030BC00F0D0B930BC00F027BC00283A
:1028800003D04FF48C7100F07BBE70474FF48C7115
:10289000F4F7F8BCF0B5802A07D0C02A07D0B2F50B
:1028A000807F0BD06FF01F00F0BD0A2300E00C23E7
:1028B000036000F10803002443600AE00E23F7E7F9
:1028C00001EB8405EE782D6866F31F6543F824500C
:1028D000641CB4EB521FF3D3544A0168A2F50850AC
:1028E0000A2904D00C292BD00E2928D156E0002427
:1028F00053F80C5B52F824104D4002CBC1F307266D
:10290000C1F30747865DC75D86EA0726754000EB81
:102910001166367885EA064550FA81F63678641CE9
:1029200085EA06651D6053F80C6C6E405E6053F8D6
:10293000085C75406940C3E902510A2CD8D373E0A2
:102940005FF000041D6852F824104D405969C1F32E
:102950000726C1F30747865DC75D86EA07267540EF
:1029600000EB1166367885EA064550FA81F636782E
:10297000641C85EA06659D615E686E40DE619D6847
:1029800075401D62DE686E405E621D69754069407B
:10299000C3E90A511833082CD4D345E05FF0000591
:1029A0001C6852F825104C40D969C1F30726C1F3C1
:1029B0000747865DC75D86EA0726744000EB11660F
:1029C000367884EA064450FA81F6367884EA066658
:1029D0001E625C6874405C629E6866409E62DC6851
:1029E0007440DC6250FA84F73F781E69C4F3074CE8
:1029F0007E40C4F3072710F80CC0C75D00EB1464D9
:102A00003F0287EA0C4724787E4086EA04641C6310
:102A10005E696D1C66405E639C6974406140C3E9F9
:102A20000E412033072DBBD30020F0BD70210400E0
:102A300010B504000AD004F12000FFF720FF204663
:102A4000BDE810404FF4A07100F09ABD10BD4FF4E6
:102A5000A071F4F717BC08B50023009300F001F84B
:102A600008BD2DE9F0418CB09846129F15460446EA
:102A70000E46B2F5806F04D96FF035000CB0BDE89A
:102A8000F081B7F5807F02D96FF03700F6E720219B
:102A90006846F4F7F7FBE1692069884201DC606968
:102AA00038B13A464146204600F04AF80028E5D1C0
:102AB0002FE077B33A4641466846F8F76FFD0700C6
:102AC00034D169462046FCF7FCF907002ED120E0FE
:102AD0001020211811F8012D521C12F0FF020A706B
:102AE00002D1401E0028F4DC08AB224601214046FA
:102AF000FFF7B9FE070019D1102D01D9102700E00A
:102B00002F463A4608A93046F4F794FB3E44ED1BA5
:102B100001E004F12008002DDAD169462046FCF7D7
:102B2000D0F9070002D12069401C206120216846AD
:102B300000F026FD102108A800F022FD38469DE790
:102B40002DE9F041044685694FF4C070E0B01646A7
:102B50000F46854203D8C5F5C071B14204D26FF06B
:102B6000370060B0BDE8F081804601466846F4F762
:102B700089FBD4E94E302A466946984710B16FF078
:102B80003300EEE7A5693FB136B10DEB05003246E3
:102B90003946F4F74FFB354469462A460846F8F7AC
:102BA000FDFC050007D169462046FCF78AF90500BF
:102BB00001D1012020614146684600F0E1FC284631
:102BC000CFE72DE9FF4704460020DDF83080009074
:102BD00001900290039004F120001F4616460D4616
:102BE0008146FFF753FEC4E94E56A06908B920207C
:102BF000A0614FF6F070E061802269464846FFF719
:102C000049FE002804D1424639462046FFF798FF86
:102C100004B0BDE8F0870000F0B589B043680093C8
:102C2000CC780B6864F31F63009C019324685C40BC
:102C3000009B01941B1D0093CC794B6864F31F63C8
:102C4000009C029324685C40009B02941B1D00932F
:102C5000CC7A8B6864F31F63009C039324685C4008
:102C6000009B03941B1D0093CB7BC96863F31F611A
:102C7000009B04911B684B4000990493091D00912F
:102C800000684FF0FF3101EB6005FE4800F5806100
:102C900000F5006400F5406EE7E01E68019B039FAD
:102CA000DBB2C7F3074750F8233054F827705E4073
:102CB000049BDDF810C0C3F30723CCF3074C51F895
:102CC00023307B405E40029B1F0E73465EF82770E8
:102CD0007E400596009E029F361D0096FFB2366824
:102CE00050F8277054F82CC07E40019FC7F3072787
:102CF00051F8277087EA0C077E40039F3F0E53F878
:102D000027707E400696009E039F361D0096FFB2F8
:102D1000366850F82770DDF804C07E40029FCCF37F
:102D2000074CC7F3072754F82CC051F8277087EADF
:102D30000C077E40049F3F0E53F827707E40079695
:102D4000009E049F361D0096FFB2366850F827702B
:102D5000DDF808C07E40039FCCF3074CC7F307277C
:102D600054F82CC051F8277087EA0C077E40019F69
:102D7000DDF81CC03F0ECCF3074C53F827707E40A3
:102D80000896009E361D0096059F3668FFB254F8DF
:102D90002CC050F827707E40089FC7F3072751F8D2
:102DA000277087EA0C077E40069FDDF820C03F0EA3
:102DB000CCF3074C53F827707E400196009E069F87
:102DC000361D0096FFB2366850F8277054F82CC0B4
:102DD0007E40059FC7F3072751F8277087EA0C0745
:102DE0007E40079F3F0E53F827707E400296009E5C
:102DF000079F361D0096FFB2366850F82770DDF841
:102E000014C07E40069FCCF3074CC7F3072754F845
:102E10002CC051F8277087EA0C077E40089F3F0EB0
:102E200053F827707E400396009E089F361D00963B
:102E30003668FFB2DDF818C050F82770CCF3074CA5
:102E40007E40079F54F82CC0C7F3072751F827701E
:102E500087EA0C077E40059F3F0E5EF827305E40F4
:102E6000009B04961B1D6D1E0093009B002D3FF7D9
:102E700014AF019D1B68EDB2039E50F82550C6F3B8
:102E800007466B40049D54F82660C5F3072551F8AA
:102E9000255075406B40029D049E2D0EC6F30746DB
:102EA0005EF825506B400593009B029D1B1D00930F
:102EB000EDB21B6850F8255054F826606B40019D18
:102EC000C5F3072551F8255075406B40039D2D0E25
:102ED0005EF825506B400693009B039D1B1D0093DD
:102EE000EDB21B6850F82550019E6B40029DC6F361
:102EF0000746C5F3072554F8266051F8255075405C
:102F00006B40049D2D0E5EF825506B400793009B8F
:102F1000049D1B1D0093EDB21B6850F82500434033
:102F20000398C0F3072051F820000299C1F307412C
:102F300054F82110484043400198000E5EF82000EC
:102F4000434000980893001D009001684E48059B7F
:102F500050FA83F31B78079C5940089BC4F307443D
:102F6000C3F30723045DC35C1B0283EA0443594097
:102F7000069B00EB13631B7881EA036101910099C2
:102F8000069B091D0091096850FA83F31B78089C81
:102F90005940059BC4F30744C3F30723045DC35C96
:102FA0001B0283EA04435940079B00EB13631B7821
:102FB00081EA036102910099079B091D009109684C
:102FC00050FA83F31B78059C5940069BC4F30744D1
:102FD000C3F30723045DC35C1B0283EA0443594027
:102FE000089B00EB13631B7881EA0361039100994E
:102FF000089B091D0091096850FA83F31B78069C11
:103000005940079BC4F30744C3F30723045DC35C23
:103010001B0283EA04435940059B00EB13600078D0
:1030200081EA006004900098001D009001981070E3
:103030000198000A50700198000C90700198000EE1
:10304000D07002981071010A5171010C9171000E3B
:10305000D07103981072010A5172010C9172000E26
:10306000D07204981073010A5173010C9173000E11
:10307000D073042101A800F083FA042102A800F013
:103080007FFA03E07011040070100400042103A80B
:1030900000F076FA042104A800F072FA042105A8D1
:1030A00000F06EFA042106A800F06AFA042107A8CD
:1030B00000F066FA042108A800F062FA04216846CC
:1030C00000F05EFA09B00020F0BD0000F0B589B054
:1030D00043680093CC780B6864F31F63009C0193F2
:1030E00024685C40009B01941B1D0093CC794B68C5
:1030F00064F31F63009C029324685C40009B02946D
:103100001B1D0093CC7A8B6864F31F63009C0393B0
:1031100024685C40009B03941B1D0093CB7BC96813
:1031200063F31F61009B04911B684B40009904935B
:10313000091D009100684FF0FF3101EB6005FE486A
:1031400000F5806100F5006400F5406EE7E01E6860
:10315000019B039FDBB2C7F3074750F8233054F8B5
:1031600027705E40029BDDF810C0C3F30723CCF349
:10317000074C51F823307B405E40049B1F0E734682
:103180005EF827707E400596009E029F361D0096D1
:10319000FFB2366850F8277054F82CC07E40039F69
:1031A000C7F3072751F8277087EA0C077E40019F75
:1031B0003F0E53F827707E400696009E039F361DF3
:1031C0000096FFB2366850F82770DDF804C07E40E4
:1031D000049FCCF3074CC7F3072754F82CC051F8D1
:1031E000277087EA0C077E40029F3F0E53F8277036
:1031F0007E400796009E049F361D0096FFB23668FB
:1032000050F82770DDF808C07E40019FCCF3074CD2
:10321000C7F3072754F82CC051F8277087EA0C072A
:103220007E40039FDDF81CC03F0ECCF3074C53F8E3
:1032300027707E400896009E361D0096059F3668D2
:10324000FFB254F82CC050F827707E40069FC7F399
:10325000072751F8277087EA0C077E40089FDDF8A2
:1032600020C03F0ECCF3074C53F827707E400196E8
:10327000009E069F361D0096FFB2366850F82770F4
:1032800054F82CC07E40079FC7F3072751F82770DA
:1032900087EA0C077E40059F3F0E53F827707E405B
:1032A0000296009E079F361D0096FFB2366850F8C2
:1032B0002770DDF814C07E40089FCCF3074CC7F39D
:1032C000072754F82CC051F8277087EA0C077E4076
:1032D000069F3F0E53F827707E400396009E089F7E
:1032E000361D00963668FFB2DDF818C050F827701A
:1032F000CCF3074C7E40059F54F82CC0C7F307273A
:1033000051F8277087EA0C077E40079F3F0E5EF852
:1033100027305E40009B04961B1D6D1E0093009B92
:10332000002D3FF714AF019D1B68EDB2039E50F8CE
:103330002550C6F307466B40029D54F82660C5F33E
:10334000072551F8255075406B40049D049E2D0EB5
:10335000C6F307465EF825506B400593009B029D1F
:103360001B1D0093EDB21B6850F8255054F82660E1
:103370006B40039DC5F3072551F8255075406B4000
:10338000019D2D0E5EF825506B400693009B039D1A
:103390001B1D0093EDB21B6850F82550019E6B4039
:1033A000049DC6F30746C5F3072554F8266051F877
:1033B000255075406B40029D2D0E5EF825506B40E8
:1033C0000793009B049D1B1D0093EDB21B6850F8F2
:1033D000250043400198C0F3072051F820000299CE
:1033E000C1F3074154F82110484043400398000EB0
:1033F0005EF82000434000980893001D009001688B
:103400004E48059B50FA83F31B78079C5940069B56
:10341000C4F30744C3F30723045DC35C1B0283EAC0
:1034200004435940089B00EB13631B7881EA036156
:1034300001910099069B091D0091096850FA83F3D8
:103440001B78089C5940079BC4F30744C3F3072328
:10345000045DC35C1B0283EA04435940059B00EBF7
:1034600013631B7881EA036102910099079B091D90
:103470000091096850FA83F31B78059C5940089B1A
:10348000C4F30744C3F30723045DC35C1B0283EA50
:1034900004435940069B00EB13631B7881EA0361E8
:1034A00003910099089B091D0091096850FA83F364
:1034B0001B78069C5940059BC4F30744C3F30723BC
:1034C000045DC35C1B0283EA04435940079B00EB85
:1034D0001360007881EA006004900098001D00905D
:1034E000019810700198000A50700198000C9070BB
:1034F0000198000ED07002981071010A5171010CF0
:103500009171000ED07103981072010A5172010C72
:103510009172000ED07204981073010A5173010C5D
:103520009173000ED073042101A800F029F8042142
:1035300002A800F025F803E07000040070FF03000B
:10354000042103A800F01CF8042104A800F018F8D6
:10355000042105A800F014F8042106A800F010F8D2
:10356000042107A800F00CF8042108A800F008F8CE
:103570000421684600F004F809B00020F0BD000006
:10358000002904D0024B0A4600211B6818477047E7
:10359000B47E00202DE9F047C5881E1DB6FBF5F767
:1035A0008946B6FBF5F1044605FB176C40791668B1
:1035B0006843DDF820A0F718001F874200D9C61A1B
:1035C000166001E02468491E0029FBD1A5EB0C0719
:1035D0008846B74216D818E004EB0C00001D09EB32
:1035E0000803BAF1000F3A4602D00146184600E03F
:1035F0001946F3F71FFE2468F61B4FF0000CB84481
:10360000B54201D9374600E02F46002EE4D1BDE88F
:10361000F08770B5144600230D4606461A4603F09F
:10362000D1FF844201D9002070BD22462946304690
:1036300003F0ECFF012070BD30B5024651B103F03C
:10364000B7FF0021074C08E034F821301568AB4281
:1036500002D11160002030BD491C8142F4D3052005
:1036600030BD0000647F002010B50C460021E160F1
:1036700061600349A160012103F0F0FF206010BDEB
:1036800000FC030070B58468006804F11405F9F7C4
:1036900025FBC1B2A971E07F6A790844B0FBF2F35F
:1036A00002FB13035B1C2B70E07F0844B0FBF2F3BA
:1036B0005B1CAB70A07F0844B0FBF2F35B1CEB70AB
:1036C000A07F0844B0FBF2F102FB1101491C6970B4
:1036D000284670BDBFF35F8F01F074B8F8B50F4690
:1036E000017814460546012901D1687830B1208857
:1036F000821C9A4232D8012902D006E00720F8BD88
:1037000069780144891C994228D8181A801E86B20B
:10371000ADF800602188B81C084469467DDF0028A8
:10372000EDD12978022904D06878BDF800209042B4
:1037300005D3BDF80000B04201D809200AE00820F6
:10374000012905D16978B14202D8ADF8001001E035
:10375000ADF80060BDF80010FE2901D90C20F8BDBD
:103760002288491CB9542188491C89B22180785487
:103770002088401C2080BDF80010084420800020D4
:10378000F8BD0000034A00219268C0E90021816071
:1037900070470000487C002070B586B00D46064694
:1037A000144614216846F3F76DFD8DF80050ADF80E
:1037B00002402046FDF754FEADF80400142269468D
:1037C0003046F3F737FD06B070BD70B54FF6FF75A4
:1037D0000E46A84201D1002000E0401C84B208E05F
:1037E0002146304600F0EEFF08B1204670BD641C53
:1037F000A4B2FF2CF4D9284670BD10B51C469342E4
:1038000000D914462246F3F715FD204610BD10B529
:103810001C46934200D914460A462146F3F72BFD75
:10382000204610BD0B4900F1100213464A610A6997
:1038300013448B6128B14FF47C73CB614FF48063E8
:1038400001E00023CB61C01C104480080B6281F8AA
:10385000690070470CAA002070B50D4D0D4A00217B
:103860002C7800BF01EB4103D65CA6420AD1134479
:103870005B78834206D101EB4100104480782870C8
:10388000002070BD491C0E29ECD3082070BD00003B
:103890000CAA0020BC7E002070B50446022920D16D
:1038A0000620FFF7D9FF00281BD10E4964784B6929
:1038B000A2002046934208D88D69103D954204D35A
:1038C000C968C3EB8400084403E000F017F805481A
:1038D0003830102100F02CFE2046BDE8704000F08A
:1038E000B3B870BD0CAA0020034902684A6242685E
:1038F0008A620089888570470CAA00202DE9F04172
:10390000334E8400102529463046F3F7BBFCA6F160
:1039100038077869A0420BD9021B39192B4630466B
:103920002431FFF76AFFD0F11005044406444CD05F
:10393000B869A0420CD978693969201A0A1AF9685D
:103940002B4601443046FFF758FF2D1A0444064425
:10395000002D3AD0B869A0420ED1396A61B1F96937
:10396000884209D02B460122FE213046FFF74FFF47
:103970002D1A0444064428D0F869A04209D9021B34
:103980002B4600213046FFF742FF2D1A044406441F
:103990001BD0386AA04210D9021B2B46FF213046AB
:1039A000FFF735FFF969611AC1F10E01A94201D88B
:1039B0003F2272542D1A064407D02B463046BDE8EC
:1039C000F0411A460021FFF722BFBDE8F081000058
:1039D00044AA002070B50C460546914201D90C203E
:1039E00070BD0120FFF738FF08B1082070BD05B990
:1039F00000240248C0E90354002070BD0CAA002036
:103A000070B5002103230A460C460E4801260CE03F
:103A100006FA03F50D43E9B25B1E05D5831883F85A
:103A2000481007230021521C641C90F86950A542DD
:103A3000EEDC024482F84810002100F8681F817013
:103A400070BD00000CAA0020F0B5C208514200EB86
:103A5000C1010024124BC1F107010125042813D331
:103A600005FA01F603EB020CF7B29CF848603E42FF
:103A700004D0BE438CF848602E4600E0002693F840
:103A800068703E4483F86860491E01D50721521CC6
:103A9000401C10F0FF0002D0641C042CDEDBF0BDE3
:103AA0000CAA00202DE9F047044690462579002015
:103AB000627BED1C05E023696D1C13F83030401C5F
:103AC0001D448242F7DCA9B3D8F80000A84202D214
:103AD0000420BDE8F0872078820801D00720F8E7AD
:103AE00001F8010B207901F8010B0E4622793046CE
:103AF000A168F3F79FFB207900270644607B06F856
:103B0000010B4FF0040912E0206909EBC70110F81E
:103B1000370006F8010B206910F83720415830466D
:103B2000F3F788FB206910F837007F1C0644607BA0
:103B3000B842E9DC0020C8F80050CAE72DE9F0419E
:103B4000BEB0054630208DF81C00312090460C4652
:103B50008DF820001E4614224B4909A8F3F76AFB92
:103B600007A80B9038A848490D90182214310EA8C8
:103B7000F3F760FB09A84449139014222C3114A8D0
:103B8000F3F758FB08A816903AA83F491890182256
:103B9000403119A8F3F74EFB3B4914A82C311E9075
:103BA000D1E90C01CDE920013CA81F9036483649E7
:103BB00054381822406822901FA823906431684628
:103BC000F3F738FB22A805900EA9684600F0FAFA30
:103BD00000284CD119A9684600F0F4FA002846D113
:103BE0009DF81C008DF8A80008B1012700E000270F
:103BF000254918227C3124A8F3F71CFB2AA88DF84C
:103C00009170259029959DF820008DF8180008B135
:103C1000012700E000271C49182294312FA8F3F750
:103C200009FB19498DF8BD7006A8AC313494309069
:103C3000D1E90101CDE92D0135A82C9069462CA8C8
:103C400000F065FB002812D124A92CA800F05FFB2E
:103C500000280CD12FA92CA800F059FB002806D170
:103C600025B11CB10948007820B107E00E203EB014
:103C7000BDE8F0810021084600F0D4FC3246414600
:103C80002CA800F00BFBF2E7F0FD0300947E00206F
:103C90002DE9F041A0B00446178890460D46002655
:103CA000ADF800603C22214601A8F3F7C3FA8DF875
:103CB00032600E960D968DF8316001963C2110A869
:103CC0000F96F3F7DFFA3C2201A910A8F3F706FBE1
:103CD00018B1072020B0BDE8F081606B00B3017817
:103CE000BDF8000025B1C21CBA4203D90C20F1E78F
:103CF000C01C13E002232B54BDF800001123401C0C
:103D000080B2ADF800002B54BDF80000401C80B21A
:103D1000ADF800002954BDF80000401CADF80000CB
:103D2000A06B30B13B466A462946FDF737FE0028B6
:103D3000D0D1206B30B13B466A4629460AF09AF84A
:103D40000028C7D194F82E0030B13B466A46294678
:103D5000FDF7D4FD0028BDD18DB1BDF8000001AA4A
:103D6000391AADF8041029182046F6F7F8FCBDF80A
:103D70000010BDF804201144A8F80010AAE794F838
:103D80002D10002021B1BDF800100931ADF8001050
:103D9000A17821B1BDF80010091DADF80010E1783F
:103DA00021B1BDF80010C91CADF80010217869B12F
:103DB0000020C9B201290ED001A97DDFBDF8041091
:103DC000BDF80020891C1144ADF80010BDF800209A
:103DD000A8F800207EE76178ADF80410EEE7000057
:103DE0001FB54FF48070039001F070F801460D4A42
:103DF0004FF6FF7083DF002811D101220A4903A882
:103E00008DE80700074A094BA2F11001002000F0DD
:103E10005DF8002803D10548039900F0B9FB04B010
:103E200010BD000023980020EC7A0020139700209A
:103E300070B59EB00E461D460100229C13464FF001
:103E4000000015D001291ED002290FD16A4619465B
:103E50003046FDF747FD0FAA00213046FBF7ECFC8A
:103E600023462A460FA96846FFF768FE1EB070BDBC
:103E70006A4619463046FDF735FD22462946684612
:103E800000F0B8F8F2E70FAA00213046FBF7D4FCA7
:103E9000224629460FA800F077F8E7E710B5002082
:103EA00002F068FA082803D0852801D0002809D13B
:103EB0000021054800F08CFB002803D1BDE810402C
:103EC000FFF78EBF10BD0000614003002DE9F843ED
:103ED00088468146DDE90901094C17460122089D03
:103EE0001E46227000F09EFB33463A464146484645
:103EF0000095FFF79DFF00212170BDE8F8830000C9
:103F0000947E002070B504460025FDF795FC90BB1B
:103F10001A48007878B3A0681849007801F10801C0
:103F2000420706D5087820F0F00040F00600103077
:103F300007E000061FD5087820F0740040F08200EA
:103F4000303008700720487010208870087820F002
:103F5000080040F001000870C87840F00300C87005
:103F6000087940F003000871044960880831E2686C
:103F700007F0DEFA0546284670BD0000E87A00200A
:103F800000F068BA00F071BAF0B50E4617498BB070
:103F90000446D1E90D01CDE907010AA813491546E8
:103FA000002706908DF8247018223C316846F3F7FC
:103FB00041F909A88DF8017001906946059406A899
:103FC00000F0A5F9002805D11CB10948007818B106
:103FD00006E00E200BB0F0BD0021084600F022FBE9
:103FE0002A46314606A800F059F9F3E79CFD030084
:103FF000947E0020F0B50E4617498BB00446D1E9F7
:104000000401CDE907010AA81349154600270690C7
:104010008DF82470182218316846F3F70BF909A8B7
:104020008DF8017001906946059406A800F06FF9BB
:10403000002805D11CB10948007818B106E00E200F
:104040000BB0F0BD0021084600F0ECFA2A463146DC
:1040500006A800F023F9F3E79CFD0300947E0020FE
:1040600038B501291ED1104D1024684602F072F9AE
:104070009DF80000102800D804462146284602F08A
:10408000A5F908B1F6F7F2F8002000E0401CA042C4
:10409000FCD3054800F0CEFA08B1F6F7E7F803497B
:1040A0000120087038BD000013980020E87A002035
:1040B0002DE9F0418CB00026ADF80860078CC56989
:1040C0008846092302AA39462846F6F719FC040057
:1040D00007D1082302AA39462846F6F711FC040046
:1040E00016D0BDF808002246291804A8F3F7A2F854
:1040F00004A80655404600F06FF9002808D00123B7
:10410000054A064940468CDF002801D0F6F7AEF894
:104110000CB0BDE8F08100004CEF0300CC8500201E
:104120002DE9FE430C46034690F82D10002607208B
:104130001746012937D093F82E10002933D1596B37
:10414000002930D0D9784FF0000909B149072AD5A4
:1041500074B13868082825D3083804F10806ADF88A
:104160000800B0F5803F03D34FF6FF70ADF80800AC
:1041700002AA31461846FFF78BFD5FEA000812D10C
:10418000BDF80800083085B2CCB104F8015B280AFC
:1041900004F8010B301B80B2CDF80090CDF80490EC
:1041A000062802D20420BDE8FE8368466DDF0028A1
:1041B000F9D1DDF801002060BDF80500A08040467F
:1041C0003D60F0E74069406800F0A1B810B51446C2
:1041D00061B12268AAB14378027803F00F0343EA81
:1041E000021201F8012B2268521E2260406822460A
:1041F00000F054F8002803D12068401C2060002003
:1042000010BD042010BD38B51446034690F82D208B
:104210000720002A1BD093F82E20002A17D05A6BB3
:10422000002A14D1DA780AB1520710D52068ADF807
:104230000000B0F5803F03D34FF6FF70ADF80000EB
:104240006A461846FFF724FDBDF80010216038BD0E
:1042500070B5040012D00A4D286868B1696859B178
:10426000102204F11701F2F7E5FF1022E11D686842
:10427000F2F7E0FF002070BD082070BD0E2070BD79
:10428000987E002028B121B1034AC2E90001002034
:1042900070470E2070470000987E00202DE9F843FB
:1042A0009046894607004FF0000606D0B8F1000F8F
:1042B00003D03D680DB1002422E00E20BDE8F88354
:1042C00024B1611C884207D1402106E0012801D0B9
:1042D000802102E0C02100E00021D8F800006B46F8
:1042E000801B00904A46286800F01FF80028E5D19E
:1042F0000098B9F1000F064400D08144641C2D1DC4
:10430000B868A042DCD80020C8F80060D6E7D0E941
:1043100001329A4201D304207047036843F8221007
:104320008168491C8160002070472DE9F8431446DC
:1043300098460A4605004FF000074AD06878297A67
:104340004618B61D00B1761C8CB332F0C00002D006
:104350000720BDE8F883D8F80000B04201D204205D
:10436000F7E722702B78601C1A4322702A7A00F833
:10437000012B21460746041D687828B104F8010B7B
:10438000087840F0080008702A7A2046E968F2F7B9
:1043900051FF287A6A7804442AB120466968F2F706
:1043A00049FF68780444D8F80000801B00902B690E
:1043B0007BB16A462146686998470028C9D114B183
:1043C000009800BA3860009831180020C8F8001032
:1043D000BFE70E20BDE70000074910B5097831B1ED
:1043E00005490622491D401CF2F778FF08B100205C
:1043F00010BD012010BD0000B87A002010B5FFF7F5
:104400004DFD002803D0BDE81040F5F72FBF10BDCB
:104410000068022803D0042804D101F003BF024839
:1044200001F01CBF70470000A87E0020084810B5AE
:10443000064941600021016001F03EFF852803D05C
:10444000002800D0032010BD002010BDD5D10200EF
:10445000A87E002010B50420FFF7FEF908B108205F
:1044600010BD00F091F8002010BD10B500F08EF8DE
:104470000920FFF7F1F9002800D0082010BD000046
:1044800010B518B10A2902D00C2010BD0248FFF760
:104490002BFA002010BD000098210400FEB5224830
:1044A00047780A2F23D0214A0324072F16785578FE
:1044B0009378D1788DF800608DF8015086EA050078
:1044C0008DF802301AD04B4058408DF803108DF80B
:1044D0000400FF2204210DF10500F2F7CCFE00BF1D
:1044E0008DF809400A216846FFF7CAFFFEBD03B0F8
:1044F0000A21BDE8F0400D48FFF7C2BF83F08803F2
:1045000058408DF803008DF8041013798DF80530AC
:1045100050798DF8060092795940504041408DF80D
:1045200007208DF80810DBE7E87E002088AA00202D
:104530001CB5CDE900100321684604F08FFB1CBDBB
:104540001CB50E4BD3E90223CDE900230C4AC2E986
:104550000101507838B9072050700A21094804F049
:10456000D9FA002808D1FFF799FFFFF75FFF00286D
:1045700002D1684604F062FA1CBD0000A4210400C8
:10458000E87E002088AA002004F06AB904F05CB933
:1045900010B54FF47772FFF71DFA040013D10B48E2
:1045A0000322016900F8342FFE2902D8417002204D
:1045B00005E0FF2242700A0A8270C1700420FFF7F2
:1045C00031F9FFF71DFA204610BD00000CAA0020AB
:1045D00070B50E46050005D00020FFF73DF918B173
:1045E000082070BD072070BD0B4C0C48C4E9015673
:1045F0001434FFF779F9FF20A076E076E1202077E8
:10460000102060777C20A0770F20E077BDE8704015
:1046100001490348FFF794BF0CAA00209821040029
:1046200085A00200024A106000201071517170478D
:10463000A07E002070B50A4D0646286808B1002407
:1046400009E00E2070BD286850F82410304600F0B4
:1046500029F8641CE4B22879A042F4D8002070BD87
:10466000A07E0020074A10B513683BB11179547938
:10467000A14205D243F82100491C1171002010BD50
:10468000042010BDA07E00200449097819B1044916
:10469000016000207047052070470000B87A0020B4
:1046A000DC9600200022835C521CD2B201F8013B50
:1046B000102AF8D3704710B5F1F711FE08B10020A9
:1046C00010BD112010BD10B531B1B2FBF3F403FBE6
:1046D00014241CB1092010BD0E2010BD0160002162
:1046E000416081608281C381084610BD70B50C466F
:1046F0000546F1F7A9FD002802D021882868084462
:1047000070BD10B50A8849888A4203D1F1F7DEFDF1
:10471000012010BD002010BD70B50C460546F1F714
:10472000B8FD002802D061882868084470BD10B523
:104730000A8849888A4203D1F1F7A2FD012010BD01
:10474000002010BD01F01F0301229A40D243490905
:1047500000EB8100114600F05CB80A4601F01F032F
:104760000121994010B552090C4600EB820000F07F
:1047700060F8204000D0012010BD2DE9F0418046B6
:104780000D460024481E012101EB501716E058F891
:104790002400C04390FAA0F0B0FA80F020280CD298
:1047A00000EB4416AE4208D231464046FFF7D5FF33
:1047B0000028ECD13046BDE8F081641CA742E6D861
:1047C0002846F8E74A0950F8220001F01F020121AB
:1047D0009140084000D00120704701F01F030122E2
:1047E0009A40490900EB8100114600F02CB80021E5
:1047F00000F00FB8002100F017B8012100F023B835
:10480000012100F016B808B56A46F1F7B4FD00982A
:1048100008BD08B56A46F1F794FD009808BD08B5D3
:104820006A46F1F7A8FD08BD08B56A46F1F789FDAB
:1048300008BD08B56A46F1F777FD08BD08B56A46B8
:10484000F1F766FD08BD08B56A46F1F76DFD009801
:1048500008BD08B56A46F1F79BFD009808BD38B55C
:10486000044600258DF800506846F5F76BFD216879
:104870006268086890420ED9401E08600178238B58
:10488000E26801FB0325227A2168101AC0B20A7976
:10489000824200D208719DF80000F5F777FD2846A6
:1048A00038BD38B5054600208DF800000C46684636
:1048B000F5F748FDE868298B201AB0FBF1F12A686A
:1048C0001068431C136001709DF80000F5F75EFD51
:1048D00038BD10B530B1017A42680368891AC9B28F
:1048E0001A6006E00E2010BD03681A68541C1C6094
:1048F0001170491EC9B2F7D2006800210171084643
:1049000010BD00002DE9F0470646806888B0D0F859
:104910004801C0F3400038B108B03046BDE8F04768
:104920000022114600F026BF012907D908B0304601
:10493000BDE8F0471DA2022100F0F4BE2049DFF8D7
:1049400084A0A1EB0A001C21B0FBF1F5002428E0B3
:10495000C4EBC4010AEB81034FF000091F68D3E9DF
:1049600001103A793F78411AB3F81880C01B5B698F
:10497000C0B2642712FB07F7B7FBF1FC642710FBFA
:1049800007F7B7FBF1F7CDE90621CDE9041CCDE926
:1049900002700D4A08213046CDE9008900F0C2FEC0
:1049A000641CAC42D4D308B0BDE8F08742616420F7
:1049B000617267756D656E7420636F756E7400004B
:1049C000645F0400105F04003C410400C20800F072
:1049D00007030120895C98400840704728B1A1F185
:1049E0001702E12A03D3072070470E207047418049
:1049F0000020704728B1A1F11702E12A03D3072054
:104A000070470E2070470180002070470B4670B140
:104A1000A2F11B01E12905D2A3F57F41FF3903D0A3
:104A2000062B06D3072070470271002070470E2026
:104A3000704700EBC300114602731846FAF7E6BB55
:104A400008B1062901D30020704700EBC10000899E
:104A5000704770B5040010D0F720A16320806080FB
:104A6000FB202071002504EBC500801DFCF7DAFF58
:104A70006D1C062DF7D3002070BD0E2070BD000008
:104A80002DE9F04185888EB00C46062D7DD2018837
:104A9000494E4FF00008242940D006DC102909D0E7
:104AA00011290CD023295FD154E03A290DD0552982
:104AB0005AD12EE00146204605F06AFA54E004EB94
:104AC000C500801DFCF7AEFF4EE0294604EBC10790
:104AD000408937F8062F824200D810467880172880
:104AE00000D217207880A06B70B1787960B1D6E9D8
:104AF0000002CDE90002ADF802107888ADF804009C
:104B0000A26B20466946904787F8058087F80480A5
:104B10002AE00146204605F0F1FB25E0011D2C228C
:104B20006846F2F787FBBDF80000BDF8042004EBEF
:104B3000C0014A73A26BBAB1D6E90423CDE90B23B5
:104B4000ADF82E00487B8DF83000A26B20460BA9F3
:104B5000904709E004EBC503017A187B884200D234
:104B600001462846FAF752FB04EBC504A07A002858
:104B70001ED0E1882846A5DF0125B0B1112817D045
:104B80000E494988002913D000E011E003F0A0FC91
:104B900002460B480B490EB0401AC00805EB004016
:104BA000BDE8F04108A102F039BC84F80A80E57242
:104BB0000EB0BDE8F081000020F503009C7F0020CE
:104BC000A85D0400385D040073645F626C655F6714
:104BD000617474635F65786368616E67655F6D7447
:104BE000755F7265717565737428292072657475B7
:104BF000726E65642025732E0000000010B54FF41E
:104C0000E4710F48F2F73EFB01F0A2F904000FD067
:104C10000C48408850B10C480C492246401AC00844
:104C2000012101EB00400AA102F0F8FB204610BD73
:104C30001149002008704870BDE8104000F01EB80F
:104C40006C9B0020A07F0020B05D0400385D040054
:104C50006E72665F63727970746F5F696E697428D3
:104C6000292072657475726E6564206572726F7248
:104C700020307825782E0000AC7B00202DE9F84309
:104C8000402000902C49002000EB400202EB001273
:104C900001EB820292F8492012B11120BDE8F8839D
:104CA000401C0628F0D3DFF894800021224B88F8BE
:104CB000011088F80210483BA3F14802204908F18E
:104CC000080001F06BF805001F4820491D4EA0EBBD
:104CD00001004FEAD0004FF0010707EB004406D077
:104CE0007088002826D020462A4619A10EE01249D5
:104CF0006A46F03901F1A80001F0B8F8050008D0C3
:104D00007088002816D020462A461FA102F086FB94
:104D100010E0094A4023F03A1146094801F014F81E
:104D2000050005D0708828B120462A4624A1EDE769
:104D300088F801702846B1E76C9B0020AC7B00200E
:104D4000ACF60300A07F0020B05D0400385D0400D5
:104D50006E72665F63727970746F5F6563635F6BB9
:104D600065795F706169725F67656E6572617465B0
:104D700028292072657475726E6564206572726F81
:104D80007220307825782E006E72665F63727970BB
:104D9000746F5F6563635F7075626C69635F6B6599
:104DA000795F746F5F7261772829207265747572FC
:104DB0006E6564206572726F7220307825782E00DF
:104DC0006E72665F63727970746F5F6563635F6252
:104DD0007974655F6F726465725F696E766572740F
:104DE00028292072657475726E6564206572726F11
:104DF0007220307825782E002DE9F041044686880F
:104E00000088112810D018281AD1207B1C4DC0070B
:104E10004FF001072AD0A87800B11A48E968804607
:104E200081B1304688470EE006EB460101EB0612E1
:104E30001549002001EB820181F8490081F8480002
:104E4000BDE8F081002002464146304684DF020082
:104E50000CD00E48408840B10D480E49401AC00899
:104E600007EB00400CA102F0D9FA2F7004F1080101
:104E7000304605F0BBF90028E2D02F70E0E70000D3
:104E8000AC7B0020349D00206C9B0020A07F002084
:104E9000B05D0400385D040073645F626C655F6739
:104EA00061705F6C6573635F6F6F625F6461746193
:104EB0005F73657428292072657475726E6564204D
:104EC0006572726F7220307825782E000A4810B50E
:104ED0004078002408B1094C0CE00948408848B1EA
:104EE00008480949401AC008012101EB0040074960
:104EF00002F090FA204610BDAC7B00207C9A002086
:104F0000A07F0020B05D0400385D04000031040083
:104F10002DE9F04110490020097811B10320BDE8C6
:104F2000F08100240D4F264604EB440101EB0411EF
:104F300007EB810595F8481041B128462146F9F75D
:104F4000FFFD05F8486F00286E70E8D1641CA4B21C
:104F5000062CE9D3E3E70000AC7B00206C9B00202B
:104F60004FF41B710181502141804FF4C871818041
:104F70000521C1807047017BA022C281502202829C
:104F800021F018010022428241F004010173012145
:104F90004173704770B50D4604000DD0E261EDB16C
:104FA00028792070287BA072296839B10E2204F17B
:104FB0000C00F2F73FF904E00E2070BD2046FFF729
:104FC000DAFFA86830B10168C4F802104068C4F87C
:104FD00006000AE02046FFF7C3FF06E0FFF7CBFF1D
:104FE0002046FFF7BDFF0020207004F12000206460
:104FF0001F20A4F84400002070BD2DE9F0418AB0C4
:105000000E46044614216846F2F73CF904F10C07F9
:1050100020460497FCF744FC04F1400540B302200D
:105020008DF800000196E16968468847294600200E
:105030008ADFB8462078A51CA77AB61C002814D0B1
:105040008BDF142105A8F2F71DF93B462A4641469D
:1050500030468CDF05218DF814100690002804D00E
:10506000E169002901D005A888470AB0BDE8F081B0
:10507000294600208ADFF8E770B50D46014601F1A8
:1050800008020C1D284609880C3586B010291ED050
:105090001B2907D01D292DD106B01146BDE870404F
:1050A000FFF7ABBF064614216846241DF2F7EAF865
:1050B000207801281ED1F06900281BD004208DF82B
:1050C0000000049520788DF80400F16910E0064690
:1050D00014216846F2F7D6F806208DF80000201D4E
:1050E00001902088ADF808000495F169002901D0ED
:1050F0006846884706B070BD30B585B0040028D03A
:1051000014216846F2F7BEF88BDF2046FCF7C8FB97
:10511000012528B1E16919B18DF80050684688472A
:1051200004F1400104F10C008ADF0446082812D083
:105130008CB10A48408848B109480A492246401AB9
:10514000C00805EB004008A102F068F9204605B050
:1051500030BD0E20FBE70020F9E70000A47F00200F
:10516000B85D0400385D040073645F626C655F675E
:1051700061705F7363616E5F7374617274207265D6
:105180007475726E65642030782578008BDF704707
:105190002DE9FF5F8B46164814499A46091A0F09F4
:1051A000914652F8046C0025804607E008EB051490
:1051B0003046A168F2F784F818B16D1CBD42F5D3F2
:1051C0000BE0210009D0009804B04B465A46D44663
:1051D000BDE8F04F5DF804EB6047009804B033463B
:1051E000BDE8F05F03A2022100F09CBA385D040024
:1051F000185D0400496E76616C6964206261636BBE
:10520000656E643A2025730D0A00000070B51546DE
:105210008268D2F84841C4F3400424B11A462946B2
:1052200000F0A8FA05E031B1536804A2022100F0B1
:1052300079FA012070BD002070BD000025733A206E
:1052400077726F6E6720706172616D657465722030
:10525000636F756E740A000010B5044602290CD104
:10526000A068D0F84801C0F3400030B120460022C9
:10527000BDE81040114600F07DBA064A06A120693B
:1052800001F040F9034A2069BDE81040093202A14B
:1052900001F038B95DF9030025730000012907D03A
:1052A000022909D18168D1F84811C1F3400119B12F
:1052B0000022114600F05EBA01A2022100F032BACB
:1052C000506C6561736520737065636966792061F0
:1052D00020737562636F6D6D616E642E0A0000004D
:1052E0001CB5012905D002290BD014D94FF00101BA
:1052F00012E002B04FF00002BDE81040114600F08D
:1053000039BA536808A1CDE9001313680CA2022131
:1053100000F008FA1CBD002102B00023BDE81040D7
:105320001A46FFF773BF000020756E6B6E6F776EC5
:1053300020706172616D657465723A200000000032
:1053400025733A257325730A0000000010B5044642
:10535000012901D0012100E0002100231A46FFF7B6
:1053600055FF002809D1A168C1F83801E0684068FC
:105370000068BDE8104002F0B1BB10BD3EB5054667
:10538000012901D0012100E0002100231A46FFF786
:105390003DFF002818D1E86840680468204602F004
:1053A0009AFBC0B2642110FB01F2A168B2FBF1F2DA
:1053B000D2B20092CDE90101A86804A20021D0F880
:1053C0003831284600F0AEF93EBD00004C6F7374D2
:1053D000206C6F67733A2025750A4D6178206C6FD9
:1053E00067207175657565207574696C697A61747B
:1053F000696F6E3A2025752525205B25752F25754B
:105400005D0A00007CB514460546012903D0022937
:1054100008D0012107E002B00022BDE8704011462B
:1054200000F0A8B9002100231A46FFF7EFFE00287C
:1054300009D1616804A0CDE9000109A20221284632
:10544000236800F06FF97CBD20756E6B6E6F776E10
:1054500020706172616D657465723A200000000011
:1054600025733A257325730A0000000010B5044621
:10547000012901D0012100E0002100231A46FFF795
:10548000C5FE002806D1A068D0F8481121F004011B
:10549000C0F8481110BD10B50446012901D0012102
:1054A00000E0002100231A46FFF7B0FE002806D1D5
:1054B000A068D0F8481141F00401C0F8481110BDAF
:1054C0007CB514460D460646022901D9012100E0AB
:1054D000002100231A46FFF799FE002811D1022D62
:1054E00005D03046F7F7E8F960B10BA30BE061682F
:1054F0000AA0CDE900010FA202213046236800F086
:1055000011F97CBD0EA302B03046BDE870400DA27B
:10551000002100F007B900006F6E000020756E6B6F
:105520006E6F776E20706172616D657465723A207E
:105530000000000025733A257325730A000000005F
:105540006F6666004563686F207374617475733AA3
:105550002025730A0000000010B50446012901D07F
:10556000012100E0002100231A46FFF74FFE00282A
:1055700006D1A068D0F8481121F00801C0F8481100
:1055800010BD10B50446012901D0012100E0002121
:1055900000231A46FFF73AFE002806D1A068D0F88B
:1055A000481141F00801C0F8481110BD7FB504460C
:1055B000012901D0012100E0002100231A46FFF754
:1055C00025FE002827D1A0680026D0F84051F5B16B
:1055D00001E0082E1BD20023092201A9284602F06F
:1055E00048F99DF80C20A16809232846A031521CD7
:1055F00002F03FF9A0683346A0300090029D761C6F
:1056000005A20021204600F08DF8002DE1D1A1680F
:10561000002081F8A0007FBD5B2533645D202573E9
:105620000A0000007CB515460446012903D0022972
:1056300017D9012116E0A16801F11802193108F00B
:1056400045FB00281ED0A16850200FA24876A16813
:105650001820087602B02046BDE87040042100F012
:1056600061B8002100231A46FFF7D0FD002809D1B8
:10567000696814A0CDE9000118A2022120462B6818
:1056800000F050F87CBD00004E6F20726573706FA3
:105690006E73652066726F6D207468652074657224
:1056A0006D696E616C2C20617373756D6564203853
:1056B000307832342073637265656E2073697A6561
:1056C0000A00000020756E6B6E6F776E207061723D
:1056D000616D657465723A200000000025733A25FB
:1056E0007325730A0000000010B50446012901D09B
:1056F000012100E0002100231A46FFF787FD002862
:105700000AD1064A06A1206900F0FCFEA1685020DB
:105710004876A1681820087610BD000076F90300CD
:10572000257300000FB438B5044607A80090A068A0
:10573000D0F84821520717D5C27E8A4214D0B0F85B
:105740001B50204609F042F96A462069069900F08C
:10575000F2FEE9B2204609F039F9290A204609F09B
:1057600017F938BC5DF814FB6A462069069900F009
:10577000E2FEF6E72DE9F04F804689B017460C4669
:105780008648F7F7ABFA054684483638F7F7A6FAA5
:10579000281A1FFA80F9814881A223380090D8F88E
:1057A0000800082143684046FFF7BCFFD8F808000E
:1057B0004068F7F793FA054678482338F7F78EFAEA
:1057C000284482B2D8F80800002381684046FAF7DE
:1057D0005DFC75A200214046FFF7A4FF0FB304B3A0
:1057E00000251CE005EB450A04EB8A0BDBF80400FE
:1057F000F7F774FA064654F82A00F7F76FFA3118EB
:1058000049450BD9DBF80400F7F768FA064654F867
:105810002A00F7F763FA30441FFA80F96D1CBD4285
:10582000E0D35E483638F7F759FA4844801C1FFA2F
:1058300080F95A4800904B465EA208214046FFF787
:1058400071FF09F1030086B20790002332465BA185
:105850004046FAF71BFC002C52D000254EE000BF5A
:1058600005EB450A04EB8A0B54F82A00DBF80430F8
:105870006BB350B3494956A23639CDE9001008211F
:105880004046FFF74FFF09F102000090DBF80400EB
:10589000F7F724FA064654F82A00F7F71FFA0644E9
:1058A0003E483638F7F71AFA31180098401A801E29
:1058B000C1B24046F9F792FC3A224849D8F81000A4
:1058C00000F020FE0098401C0AE0009301E040B187
:1058D00000904B4637A208214046FFF723FF079868
:1058E00086B2DBF8081029B1002332464046FAF7A9
:1058F000CDFB02E04046F9F7A3FB6D1CBD42AFD3E0
:10590000D8F80800C068002845D081460020044629
:10591000064603AD02903246761C02AB0121484692
:105920000095F8F74BFA029850B10068F7F7D6F9EE
:10593000A042F0D902980068F7F7D0F984B2EAE7FC
:10594000012E28D026A200214046FFF7EBFE0026BC
:105950003246761C02AB012148460095F8F72EFA34
:105960000298002817D0A11C8FB2006800903B4617
:1059700010A208214046FFF7D5FE0298FF1CBAB2DC
:10598000416821B100234046FAF780FBE0E740463A
:10599000F9F756FBDCE709B0BDE8F08F7CF90300AE
:1059A00025732573000000004F7074696F6E733AA1
:1059B0000A0000002020252D2A733A0053686F77D3
:1059C00020636F6D6D616E642068656C702E0000E1
:1059D000202025732573257300000000F8C1020004
:1059E000537562636F6D6D616E64733A0A000000F7
:1059F0008068D0F84801C0F3400070478068D0F854
:105A00004801C0F3400070472DE9F0411E460546AD
:105A1000069F00F013F804000DD166B13946E8681E
:105A200001F0B6F9002802DA0420BDE8F081E86848
:105A30000121C06841712046F7E7000070B50446B7
:105A4000C06815462346406884606068026816682E
:105A5000254AB047002845D1606901F0F9FE0028C9
:105A600040D1A168C1F83C01A168C1F840014FF4E0
:105A7000A671A068F1F706FCA068D0F8481141F0C3
:105A80002001C0F84811A068D0F8481165F38201E0
:105A9000C0F84811A068D0F8481141F00801C0F8DA
:105AA0004811A1680120124B0870A1685020114ACA
:105AB0004876A1681820087600210C48D21A06E022
:105AC00003EBC1046468246840F82140491CB1EB31
:105AD000D20FF5D3072A04D9D108074B0422F1F7D6
:105AE0005BFB002070BD000001D00200F87E0020AA
:105AF000605C0400105D0400C5DC03000023F7F7C0
:105B000029BB000010B504468068102100F5A47080
:105B1000FEF799FEA0680078F8B101281DD0022890
:105B20001BD12046F6F78BFF00212046F6F7CAFE70
:105B300098B110A2032120462368FFF7F3FD204609
:105B4000F6F7BAFE48B1A3680AA20821204620331E
:105B5000FFF7E8FD2046F9F70BFB206900F0DFFCBA
:105B6000A068BDE810406FF0100100F5A470FEF7CA
:105B700050BE00002573000070B5044680680078B0
:105B8000012801D0082070BD606801688A68002182
:105B9000904705000FD10821204608F017FF01218A
:105BA000204608F0F5FE05A1206900F0ABFC0221BB
:105BB0002046F7F77FF8284670BD00000A0A00006B
:105BC00000F180400068002800D00120704708B52F
:105BD00000F18040002101600068009008BD10B510
:105BE000184608310832F1F741FE002010BD70B5AB
:105BF0000C4604F1080015462021064603F03AFD44
:105C0000002810D114F8080F314600F0F800207079
:105C1000E07F00F07F0040F04000E07705F10800F1
:105C2000F1F7F8FE002070BD10B502F10800083150
:105C3000F1F7F0FE002010BD70B50C4604F108002D
:105C400015462021064603F015FD00280CD104F16D
:105C5000280031460446F2F70BF82022214605F1D0
:105C60000800F1F7E7FA002070BD70B5044608306F
:105C700020220546F1F7DEFA294604F12800F1F763
:105C8000F7FF002070BD104610B5202208302831E3
:105C9000F1F7D0FA002010BD024A2023A2F1200122
:105CA00000F0B9BAD8F6030010B54268083093681E
:105CB00052799847002010BD10B50C4641684A79CA
:105CC0008B6800F1080120469847002010BD10B5F0
:105CD00042680830936892799847002010BD10B54B
:105CE0000C4641688A798B6800F108012046984784
:105CF000002010BD10B5184608310832F1F788FFB2
:105D0000002801D048F2165010BD70B501F108000E
:105D100014460546FFF7C0FF002808D1294604F1C4
:105D20000800F1F791FF002801D048F2165070BD2D
:105D300010B502F108000831F1F786FF002801D004
:105D400048F2165010BD0000F0B540B190F8054083
:105D500048F21150002B06D019B12AB117E01C46A9
:105D6000F6E748F21050F0BD48F21350F0BD00269F
:105D7000651E07E08F5D11F805C002F806C0575593
:105D80006D1E761CAE42F5D91B1B21442244A34252
:105D9000EDD2002BEAD10020F0BD00002DE9F0414A
:105DA000884606466C4617461D461146404600F09A
:105DB000FBF80028A54616D12946404600F0F4F825
:105DC0000028A5460FD198F80400144951F820C0C6
:105DD0000C39BCF1000F31F8100001D02EB10CE0ED
:105DE000A54648F20350BDE8F08130B1C01D20F057
:105DF0000700ADEB000D6E4666B11A4639463046D7
:105E0000E04708B1A546EEE705493960891FA54678
:105E10002960E8E748F21550A546E4E740F603009C
:105E20007652464D70B516460C46054600F0BCF855
:105E3000002812D1AA791946304600F0C2F800288D
:105E40000BD12879074951F820203AB13146204634
:105E50009047002801D10449216070BD48F20350E9
:105E600070BD000070F603007052464D70B50D46CF
:105E7000144603460C4900F08BF8002813D15E68E5
:105E800021462846B27900F0A7F800280BD13079D6
:105E9000064951F8202022B12946BDE87040184635
:105EA000104748F2035070BD7052464D7CF6030017
:105EB0002DE9F0476C46884605460E46994617463A
:105EC00021494046D4F820A000F062F80028A546F9
:105ED0000ED11D493846891F00F05AF80028A54602
:105EE00006D176687868864204D0A54648F24150CB
:105EF000BDE8F08772795146484600F06DF80028F9
:105F0000A546F5D13079114951F82060091F31F8C3
:105F100010000EB125B10BE048F20350A546E7E7AB
:105F200030B1C01D20F00700ADEB000D6D4635B15E
:105F30004B463A4641462846B047A546D8E748F280
:105F40001550A546D4E700007652464DA4F603004E
:105F50002DE9F0410B480C4D0C4F401BC6080120A9
:105F60003870002406E000BF55F834008047002850
:105F700005D1641CB442F7D3022038700020BDE87C
:105F8000F0810000185D0400105D0400597C0020C1
:105F900028B10068884205D048F24050704748F266
:105FA000105070470020704728B139B10022C1E974
:105FB00000201046704748F21050704748F21350C6
:105FC000704720B1914205D048F21150704748F215
:105FD000105070470020704730B149B108689042B6
:105FE00005D248F21450704748F2135070470A60C7
:105FF0000020704705480178022904D00078012864
:1060000001D000207047012070470000597C00201B
:1060100038B5041D002000F0ADF900280ED120464F
:10602000FCF715FD00200346024600900449204677
:10603000FCF7C7FDBDE8384006F048BD38BD00009C
:106040002BF8020010B511461A46001DFCF778FD2A
:10605000BDE8104006F03ABD10B5001DFCF7E8FCA5
:1060600000F0E4F9002010BD10B5001DFCF7F3FCB2
:10607000BDE8104006F02ABD2DE9F0416C460D4602
:10608000074602F0FFF988B11D48408848B11D4815
:106090001D49401AC008012101EB00401BA101F07D
:1060A000B9F9A54648F21950BDE8F081FFF7A2FF03
:1060B00048B11D4A1D4E106848B15068B04206D123
:1060C0000020A546F0E74FF40540A546ECE748F26E
:1060D0001750002FA546E7D1002DA546E4D112495F
:1060E0001348083115461060FFF792FF0028A546B7
:1060F000DAD16E602A680F491160A546D4E7000026
:1061000030800020D05E0400385D04005374616369
:106110006B206F766572666C6F772064657465635B
:106120007465642E000000005C7C00206572E54B05
:10613000689F00206169614D2DE9F0416C4615466C
:106140000E46074602F09EF988B11748408848B1CC
:1061500016481749401AC008012101EB004015A15B
:1061600001F058F9A54648F21950BDE8F08105B193
:1061700046B11748174A4168914207D048F2025089
:10618000A546F2E748F21050A546EEE71FB148F2E7
:106190001750A546E9E70E492B46083132460068FC
:1061A000FFF750FFA546E0E730800020D05E0400F6
:1061B000385D0400537461636B206F766572666CA2
:1061C0006F772064657465637465642E0000000059
:1061D0005C7C00206572E54B0A4930B40A4B486884
:1061E00048F20252984204D10868084C0368A3425E
:1061F00002D030BC10467047002202604A6030BCBA
:10620000FFF72ABF5C7C00206572E54B6169614D38
:106210000122FAF74DBB38B501240094FAF77CFB54
:1062200038BD000038B500258DF800506846F4F7F9
:1062300089F8094C6068401E6060606838B902F0F7
:106240009DF808B143DF01E002F0A4F965709DF804
:106250000000F4F79BF838BDACA00020F8B5154D50
:1062600004466878002648B114B161680020884768
:106270008DF800606846F4F765F813E08DF800606B
:106280006846F4F75FF824B10A4821460830FBF766
:1062900018FB686830B902F071F808B142DF01E01C
:1062A00002F06CF96868401C68609DF80000F4F723
:1062B0006DF8F8BDACA0002070B50D4C012520781C
:1062C00008B185260EE00020A06060602061E060DB
:1062D000084802F07DF9064602F050F808B902F0CD
:1062E00037F9257002F02CF900B1A570304670BD69
:1062F000ACA00020E1D1020038B500258DF8005097
:106300006846F4F71FF8084CE068401EE060E0685B
:1063100028B902F015F910B902F06AF9A5709DF8D4
:106320000000F4F733F838BDACA0002070B50C467F
:1063300006460CE0402C01D2254600E04025E9B29B
:10634000304600F043F80028F9D1641B2E44002C9D
:10635000F0D170BD10B5044602F010F818B1204617
:1063600030DF002803D0024801F0BCFC207010BDD3
:10637000805F040038B5124C0025217809B18520D2
:1063800038BD00B90F480088A4F8010000208DF83E
:1063900000006846F3F7D6FF01F0F0FF38B90A496C
:1063A000601C02F0C9FC0500EAD102F0F1FC0120FA
:1063B00020709DF80000F3F7E9FF284638BD000083
:1063C000687C0020F8F60300018D03002DE9F843F6
:1063D0000F468046002542F2070600BF8DF80050A8
:1063E0006846F3F7AFFF01F0C9FF58B19DF8000010
:1063F000F3F7CCFF3946404631DF0446B0420DD1B9
:1064000005240DE03A464146074801F0CBFB04461F
:1064100002F0BEFC9DF80000F3F7B8FF022CDDD0BF
:106420002046BDE8F8830000805F040038B50024F2
:106430008DF800406846F3F785FF01F09FFF18B91B
:1064400002F0B6FC02F0BEFC9DF80000F3F79EFFE0
:10645000024801F0C6FB0248047038BD805F0400AA
:10646000687C0020F0B505460478154889B01646CA
:1064700040F82420124A0869121DA2F1080742F8C8
:106480002400487F385520226846F0F7D3FE049454
:106490002878385C48B10EB10A4A00E0002269460B
:1064A000281D02F019FF09B0F0BD0EB1064A00E048
:1064B0000022694605F10C0002F058FDF3E70000E8
:1064C000707C002011E5030059E3030030B4037829
:1064D000054CE35C1BB130BC001D02F0CBBF30BCEF
:1064E0000C3002F02DBE00006C7C00200178044AC4
:1064F000515C11B1001D03F021B80C3002F084BED4
:106500006C7C00200FB408B50399002904D004AABC
:1065100000926A4600F00FF801B05DF814FB10B568
:1065200082680446002A05D0D4E90403216898470C
:106530000020A06010BD2DE9FC4791460C0080466C
:1065400076D014F8011B39B125290ED04046F5F755
:106550007FFB20780028F4D198F80C00002867D041
:106560004046BDE8FC47FFF7DABF00200122217852
:106570002B291BD02D2902D0302908D102E040F070
:10658000010001E040F00200641C002AEFD1002568
:106590002A290ED02178A1F130020A2A11D205EB66
:1065A000850201EB4205641C303DF1E740F0040038
:1065B000EAE7D9F800100B1DC9F800300968641C1F
:1065C0000D44217800232E290BD114F8011FA1F1CD
:1065D00030020A2A05D203EB830201EB4203303B6F
:1065E000F3E76C290DD068290BD0692921D00BDC89
:1065F000252918D0582931D063290ED0642915D106
:1066000017E014F8011FECE7702969D0732932D024
:1066100075291BD0782909D120E0D9F80000011D87
:10662000C9F8001001784046F5F712FB641C90E7AA
:106630006CE0D9F800100A1DC9F800200968CDE9FE
:1066400000500A224046FAF7FBFFEFE7D9F80010A6
:106650000A1DC9F8002009680A2206E0D9F80010CE
:106660000A1DC9F8002009681022CDE900504046F3
:1066700008F004F8DAE7D9F8001000270A1DC9F875
:1066800000200E68C00705D112E04046761C7F1C32
:10669000F5F7DEFA31780029F7D104E020214046F1
:1066A0006D1EF5F7D5FABD42C0D9002DF6D1BDE774
:1066B0004EB13046F0F7FDFD074604E0202140468C
:1066C0006D1EF5F7C5FABD4206D9002DF6D103E0DF
:1066D0004046761CF5F7BCFA31780029F8D1A5E7D9
:1066E000D9F80000011DC9F80010056830214046A6
:1066F000F5F7AEFA78214046F5F7AAFA082000210E
:10670000CDE90001034610222946B0E7BDE8FC8729
:106710002DE9F84F8946050032483349304FA0EB48
:1067200001004FEAD0004FF0010101EB00447888EE
:106730009A46164626D0296800292FD0002E38D038
:106740006A6849464FF010081268531E13EA090F91
:1067500010D172432846F3F77BFB002834D0286819
:1067600053463246046901B049462846A446BDE86E
:10677000F04F6047002831D020461C4B1CA2CDF8BA
:10678000008028E038B10E2000902046174B22A24E
:1067900023A100F052FE0E20BDE8F88F38B108208A
:1067A00000902046114B29A21DA100F046FE0820B2
:1067B000F2E738B10920009020460C4B26A218A120
:1067C00000F03BFE0920E7E7788838B1074B234A01
:1067D0002046CDF8008012A100F02FFE1020DBE74C
:1067E0001C800020A85E0400385D0400F7F9030057
:1067F000616464725F69735F706167655F616C6932
:10680000676E656428705F66732C20706167655FD2
:106810006164647229000000705F6673000000000C
:10682000257320636865636B206661696C6564200D
:10683000696E202573282920776974682076616C39
:10684000756520307825782E00000000705F667333
:106850002D3E705F617069006C656E007C440400C1
:10686000F8B503001448154E124CA0EB06004FEA91
:10687000D0004FF0010664884FF00E0506EB004093
:1068800009D069B119600C6801B0A446BDE8F040B8
:1068900011461846604754B1094B0AA2009503E01F
:1068A0002CB1074B09A200950AA100F0C6FD0E20ED
:1068B000F8BD00001C800020A85E0400385D0400C4
:1068C000ACF90300705F667300000000705F6170D8
:1068D00069000000257320636865636B2066616949
:1068E0006C656420696E2025732829207769746897
:1068F0002076616C756520307825782E00000000C8
:10690000044801214174007A08B100207047012039
:1069100070470000F4A30020012801D0032808D10B
:106920000449002201284A7400D00020087405F0B0
:1069300097BE7047F4A3002070B50246022801D02C
:10694000032A45D1234C207A002841D0012833D096
:10695000022831D120480023022A006802D0032AED
:106960002AD11BE0E360017911B1012924D10DE0A6
:10697000D0E90565711B4FF48056B14200D3314612
:10698000294481614569A9420ED015E00169491C7D
:106990000161426991420FD1237213E0E168491C01
:1069A000E160082908D9E3602372022A0AD00D2188
:1069B000F8F7BCFF05F0F8FD607C28B1BDE8704039
:1069C00001F0E2BC0021F3E7BDE8704005F048BEED
:1069D00070BD0000F4A30020E87D00202DE9F84FF1
:1069E000914605004348444A414EA0EB02004FEA5D
:1069F000D0004FF0010202EB00448B467088DDF8B6
:106A000028A098464FF00E011CD0B9F1000F1FD0FE
:106A10002968002926D00921B8F1000F2DD06A6815
:106A20005368B8FBF3F703FB1782002A2CD030B170
:106A3000324B204632A200913CA100F0FEFC09201E
:106A4000BDE8F88F60B120462C4B43A2009104E0D2
:106A500030B12A4B204642A2009134A100F0EDFC57
:106A60000E20EDE738B1082000902046234B3EA2CF
:106A70002EA100F0E2FC0820E2E70028DFD020464B
:106A80001E4B3CA20091D7E75846F3F7DBF91027DD
:106A900098B14846F3F7D6F9B8B142465946284668
:106AA000F3F7D6F9D8B1CDF800A0286843464A4696
:106AB000C46859462846A047C2E77088002815D008
:106AC00020460E4B2CA2009705E0708870B10B4B4E
:106AD00020462FA2009715A100F0AFFC06E07088B9
:106AE00020B12046054B33A20097F4E71020A7E71A
:106AF0001C800020A85E0400385D0400E4F9030057
:106B000021286C656E202520705F66732D3E705FB6
:106B1000666C6173685F696E666F2D3E70726F6739
:106B200072616D5F756E69742900000025732063C2
:106B30006865636B206661696C656420696E2025F9
:106B400073282920776974682076616C7565203018
:106B50007825782E00000000705F6673000000004A
:106B6000705F737263000000705F66732D3E705F2C
:106B7000617069006C656E00616464725F69735F67
:106B8000616C69676E6564333228646573742900CB
:106B9000616464725F69735F616C69676E656433B9
:106BA00032282875696E7433325F7429705F73728E
:106BB00063290000616464725F69735F7769746858
:106BC000696E5F626F756E647328705F66732C20E8
:106BD000646573742C206C656E29000070B541EA01
:106BE0004201DDE904564FF0A04441EA830141EA45
:106BF000052104EB800041EA0641C0F8001770BD92
:106C000070B541EA4201DDE904564FF0A04441EA83
:106C1000830141EA052104EB800041EA0641C0F806
:106C2000001770BD70B541EA4201DDE904564FF02E
:106C3000A04441EA830141EA052104EB800041EAD6
:106C40000641C0F8001770BD70B541EA4201DDE9A8
:106C500004564FF0A04441EA830141EA052104EBC8
:106C6000800041EA0641C0F8001770BD1CB5002144
:106C700000910B4601220191FFF7D4FF1CBD1CB50A
:106C8000002100910B4601220191FFF7DDFF1CBDA1
:106C90001CB500220B46009211460192FFF7C2FF7D
:106CA0001CBD1CB500220B46009211460192FFF755
:106CB000CBFF1CBD1CB5002100910B4601220191A8
:106CC0001146FFF7AFFF1CBD1CB5002100910B461C
:106CD000012201911146FFF7B7FF1CBD4FF0A04202
:106CE00002EB8000D0F8002722F44032C0F80027E1
:106CF000D0F8002742EA0141C0F8001770470000B1
:106D000038B5094B44181B6800936B4608E000BF78
:106D100053F82010D1F8205520C2C1F82055401C4E
:106D20008442F5D838BD0000FCF6030042094FF05C
:106D3000000100D1491E00F01F00012282400A42DA
:106D400001D0012070470020704701224FF0A0437E
:106D5000824011B1C3F808257047C3F80C2570476D
:106D6000034908B50844002101600068009008BD8F
:106D70000060004002494058012800D000207047C0
:106D80000060004000210846FFF776B9FFF724BAFB
:106D90002DE9F041054620480E460024D0F8103475
:106DA00019460AE0CA681179A14205D1641C0A2C6F
:106DB000F6DB4FF0FF342BE011680029F2D1611CA3
:106DC00026D0E9680C71D0F8101459B1C968EA6886
:106DD00009681160D0F81004C06805600027DFF86A
:106DE0003C8011E0C0F81054E96800200860F5E725
:106DF00008EBC700C279B24200D33246E868394690
:106E0000007900F003FC7F1C00F0D2FBB842EFD801
:106E10002046BDE8F0810000ECA50020385D0400AC
:106E2000406801218068F5F74DBD10B54068846861
:106E3000606801688A680121904718B10420A16840
:106E4000087010BD0320FAE72DE9F3414468A668F5
:106E5000B068007804281ED0032807D0002501A9B7
:106E6000206800F046FE85F0010709E00125F6E7FD
:106E700039463046F5F726FD01A9206800F039FEB5
:106E80000028F5D1019800F0DFFC002D03D000218F
:106E90003046F5F717FDBDE8FC81F0B595B01C460E
:106EA00015460F4608461A9E00F0CEFC182109A888
:106EB000F0F7E8F90E96CDE909540023082203A95A
:106EC000384600F0D6FC05980690BDF81000ADF8E5
:106ED0001C00BDF81200ADF81E0000208DF8210046
:106EE0000398082600F00300012802D0022818D0D9
:106EF00032E003983346850AC0F3C2008DF82000C3
:106F000003980FA9C0F38314A200384600F0B1FC27
:106F100009A8009006AB22460FA9284600F0F0FB16
:106F20001AE00398840DC0F3C2008DF82000082CED
:106F300001D2254600E0082533462A460FA93846E7
:106F400000F097FC2E44641B09AB06AA29460FA843
:106F500000F086FA002CEAD1384600F07BFC15B030
:106F6000F0BD7047084810B50178084A515C19B166
:106F7000001D02F0E3FA02E00C3002F045F9BDE832
:106F80001040002007F006BAFC7D00206C7C002039
:106F900008B5034A00928023024AFFF77EFF08BD2E
:106FA00085D2030014A400200A4A012902EBC00084
:106FB00007D0022907D0032907D0042907D00020D1
:106FC000704702207047042070470079704740796D
:106FD00070470000385D040010B588B000240394A9
:106FE00004940594069406AB03AA43F2274141F2A8
:106FF0006E000794F8F72AFFB0B1A0F506410939F1
:1070000002D0032008B010BD11484088022809D3DF
:1070100010481149401AC008022101EB00400FA19D
:1070200000F0F8F90520EDE7019401A903A8029406
:10703000F8F72CFF0028E5D11248134902468A1AB6
:107040000299F0F7F7F803A8F8F7DCFEDAE700009A
:1070500030800020D05E0400385D04004C6F67670C
:10706000657220636F6E66696775726174696F6EB1
:107070002066696C65206E6F7420666F756E642E75
:1070800000000000508000203C81002070B58AB0D4
:107090000020214902900090019007900890D1E9CA
:1070A0000701CDE904011D481D4907AB401A8008BE
:1070B00006906A4643F2274141F26E00F8F7C6FE99
:1070C00019491A4A174E891AC908032202EB0144CA
:1070D000A8B1A0F50641093903D003250AB0284616
:1070E00070BD04A96846F8F7FFFE054670880328BE
:1070F000F4D320462A460EA100F090F9EEE704A949
:107100006846F8F7E9FE054670880328E6D320466E
:107110002A4614A1F0E7000000FC03003C81002097
:107120005080002030800020D05E0400385D0400D4
:107130004C6F6767657220636F6E66696775726111
:1071400074696F6E2066696C652077726974746506
:107150006E207769746820726573756C743A256463
:10716000000000004C6F6767657220636F6E666990
:107170006775726174696F6E2066696C65207570E1
:107180006461746564207769746820726573756CD6
:10719000743A2564000000002DE9F04F8DB0F4F73B
:1071A0006FFD18B100200DB0BDE8F08F8D4C0020B0
:1071B000C4F81804BFF34F8F8B49A06802900D6884
:1071C0004FF00009284004EB80000BE0D4F81804CD
:1071D00070B961680298814201D8A160E2E7284055
:1071E00004EB80000C3002A9FAF7C2FA0028EDD1B6
:1071F000002003AAA046029901EA050308EB8303D5
:10720000491CDB6842F82030401C02910228F2D36E
:10721000039800F00300022802D0012850D0C2E0F9
:1072200003985022810D8A46B2EB905F00D850211E
:107230000C4664F39F50C0F3C207039008316B48BB
:1072400000F0B9FA0600EAD000F0FEFA4B46082238
:1072500003A9304600F015FB029909F1080B2940FB
:10726000681A8000001D844223D95E4D0C3530B170
:10727000C2B208EB8101201A91460C3104E0294684
:10728000E2B2002591462846C4B25B46304600F083
:10729000F8FA0BEB09032DB1224629464FEA060006
:1072A00000F0EFFA02990AF1030001EB900002905E
:1072B0003DE008EB81015B46224630460C31EFE7AA
:1072C0000398C0F38310062800D30620039960F3C7
:1072D0008911C1F38310C1F3C207801C039181009F
:1072E000424800F068FA06005DD000F0ADFA4B4667
:1072F000082203A9304600F0C4FA09F10809002465
:107300000FE002984B4600EA0501401C08EB8101A2
:107310000290042230460C3100F0B3FA09F104095E
:10732000641C0398C0F38310A042EAD8D6B3D8F8FF
:107330001044D8F818044546F8B1304600F08AFAEF
:107340004AE0E0684179012915D10179BDF81000C2
:10735000274A52F8200001EB4102072191400840E2
:10736000D040052F00D10327B84204D3216820461E
:107370000A6831469047E0680468002CE1D1304645
:1073800000F068FA00208DF800006846F2F7DAFF96
:10739000D5F8180408B90298A8609DF80000F2F723
:1073A000F5FF19E0FFE7D8F8104405E02168204612
:1073B00089688847E0680468002CF7D10D48408848
:1073C000022809D30C480D49401AC008022101EBDC
:1073D00000400BA100F01EF8F4F752FC80F0010011
:1073E000E1E60000ECA50020187E0020485F0400C4
:1073F0005080002030800020D05E0400385D040002
:107400004261636B656E647320666C757368656456
:107410000000000000231A4606F0CCBB08B501238B
:1074200000926A4606F0C6FB08BD1CB5CDE90023F4
:1074300002236A4606F0BEFB1CBD3EB5069C8DE8E5
:107440001C0003236A4606F0B5FB3EBD7FB5DDE9AF
:1074500008458DE83C0004236A4606F0ABFB7FBD7F
:107460002DE9F0470E4680461C469246082940D832
:1074700094F80C90002020731946104604F0CCFFBD
:107480000025B54206D218F805201BA12046FFF7BB
:1074900039F803E01AA12046FFF734F86D1C082DD7
:1074A000EFD318A12046FFF72DF80025B54212D2E0
:1074B00018F805707E2F08D8EFF76AFE0068C05DE7
:1074C00010F03E0F01D03A4600E02E220EA12046D9
:1074D000FFF718F803E00DA12046FFF713F86D1C25
:1074E000082DE3D301222146504604F06DFF84F8B5
:1074F0000C90BDE8F08700002025303278000000B5
:10750000202020007C0000002563000020000000F7
:107510002DE9F0471F494FF000081F4881F800800F
:1075200000F096F9002832D11C4800F0E7FC1C4915
:10753000DFF87090DFF870A0A1EB0900C608002406
:1075400014E000273D460CE0AC4209D059F8340065
:1075500059F835101422EFF7D7FE002800DD7F1C04
:107560006D1CB542F0D32AF82470641CB442E8D3F1
:107570000020414654460D4D06E000BF04EB80025A
:10758000518045F82010401CB042F7D30020BDE8E0
:10759000F0870000ECA50020485F040010FC030009
:1075A000105F0400385D0400647F002050800020DC
:1075B00002480349401AC00870470000105F0400E9
:1075C000385D04007FB505461146002401A873B15B
:1075D000FCF732F898B90B480199072250F82100BE
:1075E00005EB45018A401040C840C4B207E0FCF7F3
:1075F00023F820B90448019900EBC100847904B054
:10760000204670BD50800020385D040070B5114BDD
:1076100000EB400003EB81040F4B02F0070203EB89
:107620008101072303FA00F60D688240B5432A431F
:1076300000200A604FEA000103FA01F51540CD4031
:10764000ADB2854200D92846C91C0A29F4D360800E
:1076500070BD0000647F00205080002013B5684694
:10766000FBF7EAFF08B100201CBD0248009950F862
:1076700031001CBD385D040070B508480125D0F804
:107680001044057007E0E0684571216820464968AC
:107690008847E0680468002CF5D170BDECA5002097
:1076A0001CB504461448007870B96CB12046EFF759
:1076B00000FE401C009001236A4601A90F4800F01B
:1076C00023FB18B100201CBD20461CBDDDE90020B5
:1076D0002146EFF7AFFDDDE900211144002001F85C
:1076E000010C0648009900F017FC0448009900F0CE
:1076F000BAFB01981CBD0000ECA5002010FC0300A3
:107700002DE9FF4781460C9D00200C462F7B2873F6
:10771000984616462946184604F07EFE072E42D2A9
:10772000DFE806F004090F161F2A360049462846EE
:10773000FEF7E8FE37E0494628462268FEF7E2FEFB
:1077400031E0D4E9002349462846FEF7DBFE2AE073
:10775000A0680090D4E9002349462846FEF7D2FEEF
:1077600021E0D4E90201CDE90001D4E90023494632
:107770002846FEF7C7FE16E004F1080007C88DE8AA
:107780000700D4E9002349462846FEF7BBFE0AE07D
:1077900004F108000FC88DE80F00D4E90023494622
:1077A0002846FEF7AFFE00222946404604F00CFEB4
:1077B0002F73BDE8FF872DE9F041058B80462D1F13
:1077C0004819C01CB0FBF5F0C6B24046FDF747F8BB
:1077D000041E19D00020207101206071E58000276F
:1077E0002546761EC4F800800BE04046FDF737F8CA
:1077F00060B16179491C6171286005467F1CC0F841
:107800000080B742F1D32046BDE8F081204600F069
:1078100002F80020F8E72DE9F041457901466B1E9A
:10782000002201E00968521C9A42FBD30F6801460E
:10783000002605E038460C68FDF733F82146761C33
:10784000AE42F7D3BDE8F0810121001DFCF7DBBF9C
:10785000FDF73FB810B504460121001DFCF7F9FF04
:1078600010F0FF0F04D12046BDE81040FFF7D3BF52
:1078700010BD1CB501920122009201AAFBF78AFEFD
:107880001CBD1CB501920022009201AAFBF782FEEA
:107890001CBD000002494058002800D0012070475C
:1078A00000500040024A00218150BFF34F8F7047C3
:1078B000005000400449D1F80413014201D00120D6
:1078C000704700207047000000500040C02903D0DE
:1078D000E9B1802902D00DE040210BE010F8012B26
:1078E00010F8013B120442EA032210F8013B1A434C
:1078F0000F4B1A6010F8012B10F8013B120442EAFA
:10790000032210F8013B1A43094B1B1F1A6002683F
:10791000C07812BA22F0FF0202430548083802601C
:1079200003480830026822F0C0020A430260704730
:107930009855004030B4016809B129201BE0124974
:107940000A78124C302A03D00A78A22A0AD00CE016
:107950006568002D16D04368A068AC4630BC0A4A62
:10796000022160474068062808D008785028E4D1F2
:1079700001202070282030BC01F0AEB830BC044893
:1079800001F04CB930BC704778AA0020E87E002096
:10799000A421040003490A6822F0600242EA401070
:1079A00008607047A455004070470000064910B5B4
:1079B00000204870091D0860BFF35F8F0349044829
:1079C00000F00EFD002010BDF07D002054FA0300F1
:1079D00008A4002008B500208DF800006846F2F7E2
:1079E000B1FCF1EE100A20F09F00E1EE100ABFF3A7
:1079F0005F8F08494020C1F880029DF80000F2F72F
:107A0000C5FC00F0BBFC08B141DF08BD20BF40BF92
:107A100020BF08BD04E000E02DE9F843044600273C
:107A200090460E468DF800706846F2F78BFC2046B3
:107A300000F039F838B105279DF80000F2F7A6FCF0
:107A40003846BDE8F88320680568B8F1000F05D115
:107A50000168204600F046F821680860E268012AC3
:107A60000CD0022A0ED0042A11D06068082A13D044
:107A700005FB02013046EFF7DDFBDDE76068405DA6
:107A80003070D9E7606830F815003080D4E760685E
:107A900050F825003060CFE700EBC501D1E90001C7
:107AA000C6E90001C8E7016808684968884201D151
:107AB000012070470020704701680A6849688068A3
:107AC000884201D9491C00E00021914201D10120E6
:107AD0007047002070470068806870470068002188
:107AE000816070478068884201D9481C7047002037
:107AF00070472DE9F84304464FF000080E468DF814
:107B000000806846F2F71EFC2046FFF7D5FF07000D
:107B10000AD0207C40B14FF004089DF80000F2F735
:107B200035FC4046BDE8F88320684568416820463A
:107B3000FFF7D8FF2168486037B120680168204608
:107B4000FFF7D0FF21680860E268012A14D0022AFA
:107B500016D0042A19D0082A1CD06068314605FBCB
:107B60000200EFF767FB204604F01CFE21688A68DC
:107B70008242D2D28860D0E7616830784855F2E717
:107B80006168308821F81500EDE76168306841F8D8
:107B90002500E8E7D6E90001626802EBC502C2E908
:107BA0000001E0E7F8B507464FF0000415000E4667
:107BB000204615D08DF800006846F2F7C3FB384622
:107BC00004F0F0FDA84205D32A463146384604F0B9
:107BD00097FD00E005249DF80000F2F7D7FB204652
:107BE000F8BD38B5054600248DF800406846F2F728
:107BF000A9FB28680460446084609DF80000F2F7E7
