:020000040002F8
:1060000008720020C1630200C9630200CB63020072
:10601000CD630200CF630200D163020000000000E4
:10602000000000000000000000000000D363020038
:10603000D563020000000000D7630200D9630200AC
:10604000DB630200DB630200D9690200DB6302004C
:10605000DB630200DB630200DB630200DB63020040
:10606000DB630200DB630200DB630200DB63020030
:10607000DB630200DB630200DB630200DB63020020
:10608000DB630200ED660200DB630200DB630200FB
:10609000DB630200DB630200FD660200DB630200DB
:1060A000DB630200DB630200DB630200DB630200F0
:1060B000DB630200DB630200000000000000000060
:1060C000DB630200DB630200DB630200DB630200D0
:1060D000DB630200DB630200DB6302000000000000
:1060E00000000000000000000000000000000000B0
:1060F00000000000000000000000000000000000A0
:10610000000000000000000000000000000000008F
:10611000000000000000000000000000000000007F
:10612000000000000000000000000000000000006F
:10613000000000000000000000000000000000005F
:10614000000000000000000000000000000000004F
:10615000000000000000000000000000000000003F
:10616000000000000000000000000000000000002F
:10617000000000000000000000000000000000001F
:10618000000000000000000000000000000000000F
:1061900000000000000000000000000000000000FF
:1061A00000000000000000000000000000000000EF
:1061B00000000000000000000000000000000000DF
:1061C00000000000000000000000000000000000CF
:1061D00000000000000000000000000000000000BF
:1061E00000000000000000000000000000000000AF
:1061F000000000000000000000000000000000009F
:10620000DFF80CD000F026FA004800473D9B020062
:106210000872002030B450E8012F93B2C48923449F
:106220008489A34228BF1B1B0489A34202BFBFF37A
:106230002F8F002007E0C3EA020340E80134002C5E
:10624000E9D14FF001000A6030BC704750E8012FDF
:10625000C2EA024240E801210029F7D1704730B478
:1062600050E8022F1FFAA2F3C488A34202BFBFF373
:106270002F8F00200DE0C48923448489A34228BFC6
:106280001B1BC2EA034340E80234002CE8D14FF064
:1062900001000A6030BC704750E8022FC2EA224277
:1062A00040E802210029F7D17047034653E8022F46
:1062B000D988B2EB324F4FF0000017BF92B241EADB
:1062C000014142EA014104E05A68B2EB324F08BF93
:1062D000012043E80212002AE8D1704730B4044696
:1062E00054E8000F0D4644E80053002BF8D1156028
:1062F00030BC704730B4044654E8000F40EA010552
:1063000044E80053002BF7D1156030BC704730B41F
:10631000044654E8000F00EA010544E80053002B4E
:10632000F7D1156030BC704730B4044654E8000F14
:1063300080EA010544E80053002BF7D1156030BC1A
:10634000704730B4044654E8000F00EB010544E800
:106350000053002BF7D1156030BC704730B40446B1
:1063600054E8000FA0EB010544E80053002BF7D1DF
:10637000156030BC704770B404464FF0000054E81C
:10638000006F0D68AE4207BF44E80023012044E8D7
:1063900000630E60002B1CBF0020F0E770BC70474C
:1063A00030B4044654E8000F88422CBF451A054615
:1063B00044E80053002BF5D1156030BC7047000055
:1063C0000648804706480047FEE7FEE7FEE7FEE78F
:1063D000FEE7FEE7FEE7FEE7FEE7FEE701670200F5
:1063E0000162020000487047CCF702002DE9FE432D
:1063F000994615468846074601AC022942D3002D2E
:1064000040D000200290A8F101004FF0FF3600902C
:1064100022E000FB057201FB057011464A469047D9
:10642000002805DC54F82600304444F8260013E028
:1064300060682A4600FB057154F8040C00FB0570E7
:1064400007E00B7890F800C001F801CB00F8013BA1
:10645000521E002AF5D1764254F8040C6168884235
:10646000D7DC4B462A463846FFF7C0FF54F8040CE9
:106470004B46A8EB0001401C00FB05702A46491E54
:10648000FFF7B4FFBDE8FE8310B5431A934209D26B
:106490008318881803E010F8011D03F8011D521E2F
:1064A000F9D210BD40EA01039B0703D009E008C9F7
:1064B000121F08C0042AFAD203E011F8013B00F8C9
:1064C000013B521EF9D210BDD2B201E000F8012BFF
:1064D000491EFBD270470022F6E710B513460A4664
:1064E00004461946FFF7F0FF204610BD421C10F885
:1064F000011B0029FBD1801A704710B5002200E073
:10650000521C835C8C5CA34201D1002BF8D1D8B221
:10651000E1B2401A10BD034611F8012B00F8012B1F
:10652000002AF9D11846704730B5054600200346C9
:1065300000E05B1C934205D2EC5CC85C201A01D1E0
:10654000002CF6D130BD2DE9F04791460F4680462C
:106550000446002614F8015B2DB1FFF743FF0068E5
:10656000405DC007F6D12B2D02D02D2D18D0641E12
:106570004A463946204600F01EF827B13968A14244
:1065800001D1C7F8008071054FF002040BD54042DD
:10659000002803DD00F026FA0460A007BDE8F087BC
:1065A00046F48066E4E70028F8DA00F01BFA04609D
:1065B0006FF00040F2E72DE9F05F82460078002797
:1065C00015468B460AF10104B946302801D09DB129
:1065D00013E014F8010B0127782803D0582801D0C4
:1065E00045B10AE00DB1102D07D10027102514F890
:1065F000010B02E0082500E00A250026B0460EE067
:1066000005FB080005FB06F1012701EB10461FFA08
:1066100080F8B6F5803F00D3B94614F8010B29463F
:1066200000F02AF80028EBDABBF1000F05D00FB11B
:10663000641E00E05446CBF80040B9F1000F06D0CC
:1066400000F0D0F902210160C81EBDE8F09F48EAC1
:106650000640FAE7064C074D06E0E06840F001030B
:1066600094E8070098471034AC42F6D3FFF7CCFD0E
:10667000800B0300A00B03003A2800D2303820F032
:106680002002412A01D3A2F13700884201D34FF002
:10669000FF30704770B58C1810F8015B15F00703D8
:1066A00001D110F8013B2A1106D110F8012B03E0AB
:1066B00010F8016B01F8016B5B1EF9D12B0705D4B3
:1066C0000023521E0DD401F8013BFAE710F8013BFC
:1066D000CB1A921C03E013F8015B01F8015B521E18
:1066E000F9D5A142D8D3002070BD0000024902486C
:1066F000091F0968006808477423002006F066B97E
:10670000F0B5A449A4484FF080540B68D4F8302168
:106710000078D4F83411551CC0F3031006D0944609
:1067200001270026BCF1060F03D00AE003F0FF0C9E
:10673000F6E7B4F82453DFF864C2C5F30425CCF8B7
:106740000050DDB2062D06D1032804D1DFF854C273
:10675000934DCCF87450551C04D09446BCF1060FF0
:1067600003D00AE003F0FF0CF8E7D4F84452DFF856
:1067700038C2C5F34235CCF80050DDB2062D08D141
:10678000032806D1894DD5F800C02CF0807CC5F8CF
:1067900000C0551C04D09446BCF1060F03D00BE09A
:1067A00003F0FF0CF8E74FF08045C5F80C61C5F821
:1067B00010617D4D2D1F2E60DDB2062D08D10328FE
:1067C00006D1DFF8E4C103250CF1640CCCF80050CD
:1067D000DDB2062D10D103280ED1DFF8D4C1052576
:1067E000CCF80050724D78352F60714D08352E6011
:1067F0000CF104063F253560551C04D016460D46A5
:10680000062E03D05BE0DEB20546F9E7ED1E012D52
:1068100055D9684D2D68684E3560664D2D1D2D6823
:10682000361D3560634D08352D68361D3560614D68
:106830000C352D68361D35605E4D10352D68361DC2
:1068400035605C4D14352D68361D3560594D183551
:106850002D68594E20363560564D1C352D68361D35
:106860003560544D20352D68361D3560514D243529
:106870002D68361D35604F4D28352D68361D356025
:106880004C4D2C352D68361D35604A4D30352D6800
:10689000494E40363560474D34352D68361D3560DC
:1068A000444D38352D68361D3560424D3C352D68D8
:1068B000361D35603F4D40352D68361D3560551C01
:1068C00003D01646062E02D007E0DEB2FAE7D4F86F
:1068D00058523A4E05F04F053560551C03D013460B
:1068E000062B02D008E0DBB2FAE735480368DB0785
:1068F00002D06FF001030360062A07D1C91E0229E6
:1069000004D93048016841F4806101602748743837
:10691000016841F470010160BFF34F8FBFF36F8FC7
:10692000D4E94C104FF01022062907D1C01E0328CD
:1069300004D9D2F808021C491C310860D2F80002C0
:10694000002803DBD2F8040200281FDA012006F039
:10695000BFFC1521C2F800121B480368002BFCD0B5
:10696000C2F8041201680029FCD0002006F0B0FC37
:10697000BFF34F8F0D48F0380168144A01F4E0610D
:1069800011430160BFF34F8F00BFFDE7114910486D
:106990000860F0BDE00F00F0E80F00F04035014066
:1069A0000DF0ADBA00C007403C050040FCED00E032
:1069B000105600400404001020C50040E40E0040C2
:1069C000000400403C17004000E401400400FA05C8
:1069D0000090D00380240020014800680047000098
:1069E00030230020004870478424002002E008C8BB
:1069F000121F08C1002AFAD170477047002001E039
:106A000001C1121F002AFBD170470000012120287C
:106A100003DA81400548014003E0402802DA2038CB
:106A2000814009B10120704700207047FC06FFBD7E
:106A3000800701D00020704701207047C3688B4257
:106A400006D811440069491E814201D801207047CF
:106A50000020704772B605F09BFA00BF05F032F8CF
:106A60000028FBD1144D154915486A88081AC40836
:106A70002AB1012000EB044012A105F061F914488D
:106A80000068C00700D000BE6888022805D3022035
:106A900000EB04400FA105F053F9BFF34F8F0C48F2
:106AA000E43801680F4A01F4E06111430160BFF36B
:106AB0004F8F00BFFDE7000010250020A80C030049
:106AC000300C0300466174616C206572726F720055
:106AD000F0ED00E053797374656D20726573657431
:106AE000000000000400FA050EB500210091CDE978
:106AF00001106A4644F20100FFF7ACFF0EBD000032
:106B0000014801F062BC0000402300203AB1006857
:106B10000129426100D00021016100207047072057
:106B20007047000038B51148082358224168009189
:106B30000F49006803F064FB002815D10D4A69462F
:106B40000D4801F047FC04000ED101210A4801F074
:106B5000C6FC0123094A1946074801F00EFC064904
:106B6000012008390870204638BD0000B0F002004E
:106B70006C2A0020F9DF020040230020FFFF7F0085
:106B800070B5044690F820000D4608B1002070BD95
:106B9000A26102F0E7F9401941F10001C4E90201E4
:106BA000206900B125612146BDE87040002007F052
:106BB00009BD0146002081F82000012007F002BD38
:106BC00030B5EFF3108172B60D4A9468012324B1F9
:106BD0000370002900D162B630BD93604FF0E0230E
:106BE000D3F88051074C25401560C3F88041D3F895
:106BF000844154605A17C3F8842100220270E8E7E8
:106C0000C42A0020FC06FFBD0B498A68002A11D067
:106C100000280FD1EFF3108072B60B684FF0E0221E
:106C2000C2F800314B68C2F8043100228A600028A3
:106C300000D162B670470000C42A00202DE9F0415F
:106C4000064608680C46411C4FF0A0474FF001056E
:106C500006D005FA00F1C7F80815206804F01AFDFF
:106C60006068411C02D0002104F002FD3168A06977
:106C7000C1F82405607D227D31681043C1F86C05A0
:106C8000D4E900123068C0F81425C0F80C15207D36
:106C9000012815D1A068411C02D0002104F0E8FCB5
:106CA000E068411C05D08540C7F80855E06804F04D
:106CB000F1FCD4E902123068C0F80825C0F81015BC
:106CC000BDE8F0812DE9F041064608680C46411CFC
:106CD0004FF0A0474FF0010506D005FA00F1C7F8C4
:106CE0000815206804F0E0FC6068411C02D0002117
:106CF00004F0C7FC3168A069C1F82405607D217DDE
:106D000032680843C2F86C05D4E900123068C0F854
:106D10000C15C0F81425207D012815D1A068411C50
:106D200002D0002104F0ADFCE068411C05D0854094
:106D3000C7F80855E06804F0B7FCD4E902123068DF
:106D4000C0F80825C0F81015BDE8F081F0B50022A4
:106D50000D4BCA60C1E901230C4B0D4D1446EE1AD0
:106D60000A600CE003EB0215EF683F79FF2F05D0B6
:106D7000A04202D1A8680860F0BD641C521CB2EBAE
:106D8000161FEFD3F0BD000034F50200100C030015
:106D9000300C03002DE9F84F0546861C00208DF8C5
:106DA000000091460F464FF0010A6846FFF708FFC2
:106DB0001B4C04F21C4860683860D4E90101194F8B
:106DC000401A3968081A0EE00121404603F063FAC0
:106DD00002F0C2FD0146404603F05DFAD4E901012C
:106DE000401A3968081A401C8642EDD8B9F1000FE4
:106DF00003D0052065F3891002E0062065F39F505B
:106E000061683A68114004EB8101C86060683044F1
:106E100060609DF80000FFF7F7FE5046BDE8F88F70
:106E2000E82D00200024002070B50D4604460A29F4
:106E300002D10D21FFF7F8FFA0682268411CA16074
:106E40001554D4E90101814204D32046BDE87040C5
:106E500004F079B870BD0000044881684068814240
:106E600001D101207047002070470000E82D00206C
:106E700070B5816804468A7F002A4DD0C87F0028FB
:106E80004AD0121A0844D5B200F120016A1C1F3002
:106E9000FFF7FAFAA068C17F491EC177A068817F19
:106EA000491E81778DB308221C49206904F03EF801
:106EB000204603F075F98178C078814211D1A0682D
:106EC00017A2C17F431808212046203303F090FD0C
:106ED000204600F013F929462046BDE8704001F035
:106EE00059B8204600F01EF9204600F007F9A068C6
:106EF0000BA2C17F431808212046203303F078FD00
:106F00002046BDE8704000F003B92069BDE870403C
:106F1000044A03A104F00AB870BD0000F870020032
:106F200025730000A1F2020070B504468068827FDC
:106F3000C17F521A12F0FF053AD0084400F1210136
:106F40002A462030FFF7A0FAA068817F491E81778A
:106F5000204603F025F98178C078814214D1A068D9
:106F600014A2C17F431808212046203303F040FDBE
:106F7000114A10A1206903F0D9FF6D1EE9B2204625
:106F8000BDE8704001F006B8204600F0CBF820467E
:106F900000F0B4F8A06807A2C17F4318082120467A
:106FA000203303F025FD2046BDE8704000F0B0B866
:106FB00070BD000025730000A5F202002DE9F0412C
:106FC000044680680F46D0F84811C27F11F00106D0
:106FD000817FA1EB0203DDB20BD07F2901D3002D0D
:106FE0007ED0A068C17F0844002180F8207066B17F
:106FF00013E07F297CD2002DF3D0831803F1200108
:107000002A46481CFFF740FAEBE7A068827F521C33
:10701000D2B28277A068203281544DB3204603F06B
:10702000BFF88178C07881420ED1A06831A2C17FBB
:10703000431808212046203303F0DAFCA81BC1B214
:10704000204600F0A7FF21E0204600F06BF8A06882
:1070500028A2C17F431808212046203303F0C8FC32
:10706000204600F055F80121204601F06DF80DE0B2
:107070003EB1A068827F521CD2B28277A0682032D3
:1070800081543A461CA1206903F050FFA168C87FD3
:10709000401CC877204600F06AFF0028204603D035
:1070A000BDE8F04100F082BF01F020FE00281FD0B3
:1070B000204603F075F80546C078A978401A401EAE
:1070C000C1B2204600F0F4FE204600F06FFFE878E1
:1070D000A978401AC1B2204601F042F8287800E0B1
:1070E00006E0401EC1B22046BDE8F04101F02CB8D8
:1070F000BDE8F08125730000256300000069024AA5
:1071000002A103F013BF000099F2020025730000F2
:107110000069024A024903F009BF000093F202002D
:107120000C7102000069024A024903F0FFBE000030
:1071300090F202000C7102002DE9F04F4FF00009AF
:1071400095B005464F464C4600F0F2FD284602F049
:1071500055F8284600F0B8FE284600F008FF10B9A0
:10716000284600F023FFAA680C2301A90EA82032AC
:1071700002F0F0FE03460E9840B15BB149A2022135
:10718000284603F035FC15B0BDE8F08F284600F026
:107190000DFFF8E7494848490026A1EB00080DF12A
:1071A000040A834613E008D345A0009049A20221B7
:1071B0002846019B03F01CFCE5E70BEBC604606866
:1071C00001685AF82900FFF798F918B1761CB6EB58
:1071D000D80FE8D94FF000000F90A9684860886088
:1071E000C86008616168C86828B14AC9AA68C2E96C
:1071F0000360C2E90113606809F101044FF0000661
:10720000D0F808800E98844235D25AF8240033A171
:10721000FFF773F940B35AF8240031A1FFF76DF975
:1072200010B310A832460090761C0FAB21464046A2
:1072300000F03AFDFEB10F98E8B101685AF8240059
:10724000FFF75BF90028DDD10F98C16839B190E8EC
:107250004810AA682746C2E903C1C2E901360026E0
:10726000641CD0F80880CDE7A868D0F8481141F038
:107270000201C0F84811A868036933B10E980AEBFF
:107280008702C11B2846984704E017A2022128461E
:1072900003F0AEFBA868D0F8481121F00201C0F855
:1072A000481170E76E6F74207465726D696E617459
:1072B00065643A2025630A00100C0300A00B03004C
:1072C0003A20636F6D6D616E64206E6F7420666F1F
:1072D000756E6400257325730A0000002D68000098
:1072E0002D2D68656C700000506C656173652073AE
:1072F000706563696679206120737562636F6D6D77
:10730000616E642E0A0000008068D0F84801C0F366
:10731000C000704700B589B020220D4901A8FFF7D1
:10732000B3F8062001900820029000208DF8180084
:1073300003200090064801231A4601A9183803F0DB
:10734000C9FC002801D0FFF7CFFB09B000BD000049
:10735000C8EF02002DE9F0410446C0688EB00D462A
:10736000406800263246006801A904F0EFFE18B11B
:1073700000200EB0BDE8F0816DB1019804F0C6FEAA
:10738000A168D1F83801401CC1F8380100F00700AD
:1073900001287AD10126204602F002FF05468078B6
:1073A000012804D9401EC1B2204600F0D9FE287839
:1073B000012804D9401EC1B2204600F0EBFD204652
:1073C000FFF79CFE2EB132A20221204603F010FBF3
:1073D0005BE04FF000080023082202A9019804F0A6
:1073E000A4FE04980590BDF80C00ADF81800BDF897
:1073F0000E00ADF81A008DF81D800298082700F0E5
:107400000300012802D0022818D032E002983B463F
:10741000860AC0F3C2008DF81C00029808A9C0F3C8
:107420008315AA00019804F080FE2069009005AB46
:107430002A4608A9304604F0BFFD1AE00298850DDF
:10744000C0F3C2008DF81C00082D01D22E4600E0CA
:1074500008263B46324608A9019804F066FE3744E8
:10746000AD1B05AA314608A8236904F085FC002D50
:10747000EAD1019804F04AFEE068002201A94068C0
:10748000006804F063FE0028A5D0012071E7000029
:107490004C6F7374206C6F6773202D20696E63725C
:1074A00065617365206C6F67206261636B656E64F4
:1074B0002071756575652073697A652E0A00000074
:1074C000014803F085BC0000B0EF020030B4406812
:1074D00004682469A44630BC6047000010B5054824
:1074E00003F0B0FC002803D0BDE81040FFF7FCBA61
:1074F00010BD0000B0EF02002DE9FC41002604465B
:107500000127019601AB012269462046FFF7DEFF05
:107510000198002836D09DF800007F28F2D804F0AA
:1075200014FEA068417821B101296FD002296ED1E3
:107530008DE09DF800500D2D09D00A2D07D0D0F810
:107540004821002161F38D12C0F8482122E0D0F8D3
:107550004811C1F3871129B1D0F84811C1F387113F
:10756000A94217D1D0F8481165F38D11C0F8481120
:10757000A068817F41B12046FFF7DEFD0221204651
:1075800000F0F4F8BDE8FC81C0F84461204600F04A
:107590000DFDF3E7092D1ED004DC002DB2D0082D1F
:1075A00004D121E01B2D12D07F2D26D0FEF71AFF2B
:1075B0000068405D10F03E0FA4D02046FFF7A4FE07
:1075C00030B39DF800102046FFF7F8FC9AE7A16859
:1075D0000120487096E72046FFF796FE002891D0DC
:1075E000204600F0DDF88DE72046FFF78DFE0028ED
:1075F00088D02046FFF73CFC84E72046FFF784FE56
:107600000028E3D02046FFF78FFC7BE716E019E067
:10761000A1689DF80020887F7F28D7D2C87F0B18EB
:10762000401CC87783F82020A068C17F084480F8F8
:107630002060A168887F401C887763E79DF8001070
:107640005B2901D0002100E0022141705AE70021AE
:1076500041702046FFF758FE002893D09DF80000A7
:10766000422840D01BDC33287CD012DC312872D079
:107670003228ABD1A16803204870A068D0F8481127
:10768000D0F8482127EA010161F30002C0F848213F
:1076900038E7342856D0412898D1012124E04628E3
:1076A00053D01BDC432823D044288FD1204602F03E
:1076B00077FD05460078A979491C884202D1A9784E
:1076C000012987D001284FF0010120462FD000F07A
:1076D00061FCA168C87F401EC87713E748283DD0E9
:1076E0004C2889D1C9E70021204601F075FC09E743
:1076F000204602F055FD054600786978884203D19E
:10770000A978EA78914298D0697988424FF00101CE
:10771000204606D100F0CCFB6979204600F03AFC07
:1077200001E000F011FDA168C87F401CD4E700F023
:1077300017FD6979204600F007FDA068C17F491E4A
:10774000C177DFE6A16803204870204600F0BCFB4B
:10775000D8E607E0FFE7A16803204870204600F064
:10776000DCFBCFE6A1680320487046E78268022967
:1077700011700CD18268002182F820108268D177C4
:107780008268917702A20321036803F031B9704740
:1077900025730000002801D0FEF7A8BE7047000046
:1077A0002DE9F04F05460020A7B007461590064684
:1077B00020900690A868817FC1F17F01C9B25FEA7D
:1077C000010970D0C27F00F12001A030FEF75CFEFD
:1077D000A8680024C17F084480F8A040FEF702FE9C
:1077E00021900168A8680C23C27F0244D27F895C83
:1077F000C0F84441AA6801F0010A07A916A8A032FE
:1078000002F0A8FB0798FFF7C5FF00F0FF08A346AA
:1078100017941894169818B15044401EB0426CD872
:10782000BAF1000F01D0002005E007A850F82600AB
:10783000FFF7B0FFC0B28046002419A8224600908E
:10784000641C17AB3146584600F02EFA17980028F2
:107850006CD0016807A8424650F8260001F04AFEA5
:107860000028EAD018987F1CF0B117980068FFF73D
:1078700091FF0699C0B2884200D90690B9F1000F75
:107880002ED022A8009018AB31465846159A00F029
:107890000BFA17980168189801EB0802016800209C
:1078A00001EB080316E08DE0601E20901798006839
:1078B000FFF770FFC0B20690A0EB080048450FDA52
:1078C000C0B20CE013F800C0614506D1401C10F0B6
:1078D000FF0010D0115C0029F4D1814500D9814608
:1078E000601E159017981890A7D266A2042128460A
:1078F00003F07EF81AE0FF20EFE7002419A82246E3
:107900000090641C17AB3146584600F0CDF9ECB33B
:107910001798002856D0016807A850F82600FEF7EF
:10792000ECFD0028EAD11798D0F808B0BBF1000FA1
:1079300009D0179838B11699761CF6B201EB0A00F7
:107940008642FFF467AF002F3CD0012F43D00021C7
:107950002846069A05F0C8FC209C0DF11C0A19A8BF
:1079600022460090641C17AB3146584600F09CF943
:107970001798424601685AF8260001F0BBFD40B155
:1079800017987F1E069A0168284600E01DE005F062
:10799000ABFC002FE3D146A2032128462B6803F05D
:1079A00027F8AB6843A208212846203303F020F8CB
:1079B000284600F093FB18984A460168284641443F
:1079C00000F010FA27B0BDE8F08F2EA2042128465F
:1079D00003F00EF8F6E79BF8000038B119A8009004
:1079E00018AB31465846159A00F05EF918980068B1
:1079F000FFF7D0FE404506D018984A460168284651
:107A0000414400F0EFF92198A9680268C87F0B187B
:107A100093F82030D25CD20715D0897F8842D1D22A
:107A2000284602F0BDFB8478A868C17F491CC17755
:107A3000284602F0B5FB8078A0421FD101212846DC
:107A400000F082FBBEE7D1F84801C00711D0D1F8A1
:107A5000480120F00100C1F8480120212846FFF725
:107A6000ADFAA868D0F8481141F00101C0F84811FA
:107A7000A8E720212846FFF7A1FAA3E7284600F04F
:107A800095FA9FE75461622066756E6374696F6E44
:107A90003A20636F6D6D616E647320636F756E74F1
:107AA0006572206F766572666C6F7765642E0A006A
:107AB0000A25730025730000002806D08868D0F8D6
:107AC000481141F02001C0F84811704770B50446D4
:107AD00040680D4690F8280030B1A0680068FFF7B4
:107AE00068F808B108280CD1012685B1606903F057
:107AF00011FA616800220831606903F0C7F908B122
:107B0000062070BD606880F82960002070BD606844
:107B100090F8280048B9074A0021A068FEF7F6FF50
:107B20006168002881F82860F0D12046BDE87040E7
:107B300006F03EBB2DE5020070B5044640680D46D8
:107B40000260606800224360606880F828206068F6
:107B500080F82920606820220830FEF795FC2C610F
:107B6000074A2946606903F091F9050005D1E068EC
:107B700004F02EFD206904F02BFD284670BD0000A6
:107B800051E602001A60C0681A4604F05FBC10B5E6
:107B90000446406903F0BEF9A0680068BDE81040E3
:107BA000FFF707B87CB51A60044600691A4604F06E
:107BB0008BFC050025D16069134A0178515C19B12D
:107BC000001D05F0F3FA02E00C3005F053F9C0B9DE
:107BD000FF20009001236A4601A9206904F0C0FC3F
:107BE00078B900980199C2B2606903F083F905463B
:107BF000606890F8290020B11DB92069009904F04F
:107C00009CFC28467CBD0000242300202DE9F8437D
:107C10001E4615468846074600241BE0786808EB98
:107C200004016B460268D2F80CC02A46E04700986F
:107C300004442D1A70B9B868017803290AD000BF2E
:107C4000D0F848118906FBD5D0F8481121F0200161
:107C5000C0F84811002DE1D1002E01D0009830600D
:107C6000BDE8F88308B50B46009102A2022102F09C
:107C7000BFFE08BD25733A2077726F6E6720706172
:107C800072616D6574657220636F756E742E0A542F
:107C9000727920272573202D682720666F7220684F
:107CA000656C702E0A0000002DE9F05F1C460A9EEC
:107CB00015464FF0000959B180B3017839B34268D5
:107CC0003146284690473068D8B12660BDE8F09F1D
:107CD00014491548A1EB0008B5EBD80F11D2DFF815
:107CE0004CA00026834609E00BEBC60778680168C4
:107CF0005AF82500FEF701FC30B1761CB6EBD80F20
:107D0000F2D3C4F80090E1E778682060DEE74068CD
:107D100000EB0210016809B11860D7E7FFE7C3F86C
:107D20000090D3E7100C0300A00B03008824002070
:107D30002DE9F04185680646002495F820000028CA
:107D400011D0A046FEF74EFB0746006804F1200163
:107D500004F10104695CE4B2415CC90705D0002C60
:107D6000F4D185F82080BDE8F081641E14F0FF0492
:107D70000FD0A87F021B04F12000291805F1200074
:107D8000521CFEF781FBB168887F001B8877B168C1
:107D9000C877B2683D68937FD0181F300446002131
:107DA00002E0491CC9B2401E0778EF5DFF07F8D119
:107DB0008442D8D05B1A203302F80380B268907FE7
:107DC000401A9077B168C877CDE710B5D0E9023492
:107DD000D1E90220D11AA04101D3012010BD002019
:107DE00010BD00002DE9F0410446806815460F469D
:107DF000827FC17F531A2A44DEB27F2A37D8002DF2
:107E000035D0084400F1200105F120021044721C15
:107E1000FEF73AFBA0682A46C17F08443946203065
:107E2000FEF732FBA0682030FFF7B4FCA16811A276
:107E30008877A068C17F431808212046203302F0CC
:107E4000D7FDA068C17F2944C177204600F08FF894
:107E500018B9204600F04AFF10B1204600F0A6F8FD
:107E6000002E04D02046BDE8F04100F037B9BDE84F
:107E7000F08100002573000010B5044612B110888F
:107E8000002211E04FF6FF70FAE7030A43EA0023ED
:107E9000A05C5840C0F30313584080EA003080B221
:107EA000C3B280EA4310521C8A42EED310BD0000D8
:107EB000002904D00A46006901A103F037B87047D1
:107EC0001B5B25644200000070B5054602F068F9AE
:107ED000044600786178884203D1A078E17888422E
:107EE0001AD0E178A078814204D9081AC1B2284694
:107EF000FFF7DEFF20786178884205D9401AC1B2C9
:107F0000284600F047F804E0081AC1B2284600F0FD
:107F10001BF9A868817FC17770BD70B5054602F076
:107F20003FF9044601788079401C814202D1A07853
:107F300001281BD0A078012804D9401EC1B22846D0
:107F400000F00EF92078A179884206D9401A401E27
:107F5000C1B2284600F01EF805E0081A401CC1B264
:107F6000284600F0F1F8A9680020C87770BD10B568
:107F700004460068FFF70EFC0146A068C27F407E01
:107F80001144B1FBF0F200FB121008B1002010BD4B
:107F9000012010BD002904D00A46006901A102F0A9
:107FA000C5BF70471B5B256444000000006901A148
:107FB00002F0BCBF0A0000002DE9FC470026044681
:107FC0008DF8046080683546B146B0468021A03007
:107FD000FEF781FA4049206902F0A8FF206902F00B
:107FE000B2FF00276B46012201A92046FFF76EFA77
:107FF0000098D8B19DF804001B2806D0A16891F81C
:10800000A0101B29EED152281FD0A26808F1A001B0
:10801000505408F1010000F0FF08B8F1090F0AD927
:10802000A168042081F8A090BDE8FC872A494FF69A
:10803000C0101031884700980028D3D17F1CBFB2F0
:10804000B7F57A7FCED30D20EEE7A16808F1A00046
:108050004A4601F80090A16891F8A1005B2803D07E
:1080600081F8A0200B20DFE702206FF02F0309E04A
:1080700005EB850503EB4505401C3D44C0B2ADB2A0
:10808000802808D200F1A007CF5D3B2FF0D1401C23
:10809000C0B2802809D30C20C6E700BF06EB8606D5
:1080A00003EB46063E44B6B2F1E700F1A007CF5D10
:1080B000002FF3D1FA20FA2E01D9087500E00E75D1
:1080C000FA2D02D9A168887501E0A0688575A068BD
:1080D00080F8A0200020A7E7B1F2020070B50546A5
:1080E00002F05EF804468078E178884201D10126EA
:1080F00000E000262846FFF73AFF18B9284600F0AE
:10810000F5FD10B12846FFF751FF1EB160782178C8
:10811000401A12E0E078A178401AC1B2284600F077
:108120001FF820786178884206D9401AC1B22846E3
:10813000BDE8704000F008B8081AC1B22846BDE892
:108140007040FFF727BF0000002904D00A460069ED
:1081500001A102F0EBBE70471B5B256443000000E9
:10816000002904D00A46006901A102F0DFBE704771
:108170001B5B256441000000014901200870704725
:10818000B522002070B50C46054602F097FD30B1CF
:108190002846BDE870400022114602F051BC012C77
:1081A00005D02846BDE8704003A1FFF75BBDBDE8E0
:1081B0007040FFF7E1BF000064656C6574655F6146
:1081C0006C6C000070B5134D28786978F9B1002106
:1081D00008421ED01148124A0F4E801AC0087188FA
:1081E000032202EB0044032903D320460DA103F030
:1081F000A7FD05F02BFD287000280AD17088032800
:1082000007D32046BDE870400CA103F099BD0121C1
:10821000DEE770BDB522002010250020A80C030069
:10822000300C030044656C6574696E67206E657878
:1082300074207265636F72642E0000001B5B313B1B
:1082400033366D4E6F207265636F726473206C6598
:10825000667420746F2064656C6574652E00000080
:1082600070B515460C46064602F028FD30B1304682
:10827000BDE870400022114602F0E2BB032C05D29B
:108280003046BDE870400AA1FFF7ECBC1022002187
:108290006868FEF758F9044610220021A868FEF726
:1082A00052F9024621463046BDE8704005F058BC00
:1082B00064656C65746500002DE9FF410C4620B1D2
:1082C0004FF4064004B0BDE8F0812079002748F261
:1082D000096538B141F61D5601281BD0022826D069
:1082E000681DEFE70220207102970397E068019074
:1082F000694601A805F008FD50B102988188E18027
:1083000000882081BDF80010029805F07BFDD9E7B8
:108310002846D7E70A4B6A460021A01D05F0ACFCB1
:1083200038B1074918398F61CF61A842CAD13046A8
:10833000C8E703488188019805F064FDF5E700006F
:10834000A823002010B50021024801F0BFFF80F3F0
:10835000100010BD043200204FF480328A400168C2
:10836000C1F848230068C0F8082370474FF4A07292
:1083700002EB810189B200F0D4B92DE9F041054644
:108380000E464FF4A07000EB860081B228684FF4CF
:108390008034B440984622F07F47C0F808432868EC
:1083A000C0F84843286804F039F9286800EB8600D3
:1083B000C0F840752868C0F84443B8F1000F02D0F7
:1083C0002868C0F80443BDE8F0810068D0F80405CF
:1083D0007047000070B54379274C2A4D44F823209C
:1083E0004279231D03EBC202254C1679234A121B46
:1083F000D40846B16888082602283AD3022000EB48
:10840000044021A133E006680A88C6F8082590F9DF
:1084100004208978002A4FEA411104DB02F1E022AE
:1084200082F8001405E002F00F0202F1E02282F867
:10843000141D90F904100122002909DB01F01F0628
:1084400002FA06F64909890001F1E021C1F800614C
:108450004179002603EBC1010A71417943F83100EB
:108460006888032805D3032000EB04400FA103F024
:1084700067FC304670BD000070230020600C0300D4
:10848000300C0300EC24002052544320696E7374B6
:10849000616E636520616C726561647920696E69E3
:1084A0007469616C697A65642E0000005254433A25
:1084B00020696E697469616C697A65642E000000D8
:1084C00090F90400002809DB00F01F02012191400F
:1084D0004009800000F1E020C0F8001270470A4611
:1084E000022100F015B94FF4827100F01AB900684A
:1084F00001210160704700680121416070472DE94A
:10850000F05F07460C464FF4A07000EB84001FFAA2
:1085100080FA38684FF48036A6409B4622F07F45AB
:10852000C0F848633868C0F808633868D0F8048534
:1085300000EB8402D2F84095C2F840855146386875
:1085400004F06CF8A9EB080020F07F40012806D168
:10855000102004F013FB5146386804F05FF83868C7
:10856000D0F80485C0F84463A5EB080121F07F41F1
:108570003868012900EB840010D0C0F840553868F5
:10858000D0F804156FF07F4C6A1A521E22F07F4219
:10859000ACEB0B03934217D362B118E06D1CC0F82B
:1085A0004055102004F0EAFA3868D0F80405404538
:1085B0000AD10CE000EB84006D1CC0F8405538680F
:1085C000D0F80405884202D00D20BDE8F09F0122BA
:1085D0003146384600F09CF80020F6E72DE9F843D4
:1085E000104D0F4680461E4691466946286801F0A8
:1085F0001AFE040014D01C21FDF76DFF012020712C
:10860000C4F81490380BC4F80080C4E902606946CD
:10861000286801F029FE05F07DFA0020BDE8F88306
:108620000420FBE75CF3020010B503780022072B5F
:1086300006D2DFE803F005040610202930000A7096
:1086400010BD01230B7003898B818388CB81C068A7
:1086500088600A7410BD02220A7002898A818288A9
:10866000CA81C2688A60807D062802D00020087412
:1086700010BD0120FBE703220A70C2888A810289AB
:10868000CA81C068886010BD04230B70C0888881CF
:10869000CA818A6010BD0520087010BD70B5064DF6
:1086A0000646002455F8241009B130468847641C5A
:1086B000042CF7D370BD0000DC2A002030B504463E
:1086C000006887B00D46806800281FD018216846D2
:1086D000FDF701FF0195A0680590207910B10128F0
:1086E00010D107E001208DF8000020690290E068B9
:1086F000039005E002208DF80000E068000302907E
:1087000060690490206881686846884707B030BD7A
:108710000368C3F84413002A02D00068C0F80413A9
:10872000704710B5006842581AB103F077FF012076
:1087300010BD002010BD0000034901EB8000A0F532
:108740000830D0F800087047E822002070B53A4B96
:108750003A4C384E1B1B05464168DB08344A70888A
:10876000032404EB0344B1B103280AD30846FFF7FE
:10877000E3FF0346287832A152F82020204603F078
:10878000EAFA287888B1012817D0032814D168683C
:1087900000282FD046E00328F3D3287830A152F8E0
:1087A0002020204603F0D0FAEBE76868002803D1C8
:1087B0001F490120091F087070BD68680028FBD19F
:1087C00070880328F8D320462FA1AA6803F0BCFACA
:1087D00070880328F0D3AA89204630A103F0B4FAA8
:1087E00070880328E8D3EA892046BDE870402FA1AD
:1087F00003F0AABA7088032814D3204622A1AA68DD
:1088000003F0A2FA708803280CD3AA89204623A17A
:1088100003F09AFA7088032804D3EA89204623A13A
:1088200003F092FA02490020C91E487070BD000092
:10883000B822002010250020A80C0300300C0300F3
:108840001B5B313B33326D4576656E743A20257380
:1088500020726563656976656420282573290000A8
:108860001B5B313B33326D4576656E743A20257360
:1088700020726563656976656420284E52465F53B1
:1088800055434345535329005265636F7264204931
:10889000443A0930782530347800000046696C6528
:1088A0002049443A09307825303478005265636FA6
:1088B0007264206B65793A0930782530347800008D
:1088C0000D4808B5007888B1684605F053F880B1C6
:1088D00006210170684605F05BF80848017809B187
:1088E0000121017305F008F9002008BD48F201607C
:1088F00008BD48F2076008BDB0230020A02B00206F
:10890000F0B587B014216846FDF7E5FD304C2078BE
:1089100018B16846FFF7C2FE57E0201D01F0B8FC11
:1089200098BB40F6F8700168481C02D14FF0102047
:1089300041694FF08050026940694B1C01D100FB36
:1089400002F1244800220161A1F54051C160224991
:1089500002F09AFC002823D121481C238C221F49B5
:10896000006801F04DFC04F07DFD050016D0022DDD
:1089700014D000270126062D14D005A804F0FAFF14
:1089800098B106700C2D1BD200E01EE0DFE805F068
:1089900018101810181718171812141248F20A6035
:1089A00007B0F0BD26706760B3E748F20760F7E7ED
:1089B000077105E0032100E00221017100E006716A
:1089C00005A804F0E5FF05F097F80020E8E70000AF
:1089D000B0230020C02400206CF30200EC2A002009
:1089E000D8F0020038B5040014D0694605F08CF9BF
:1089F000B0B1BDF8000000EB80010B4800EB810036
:108A0000C16851B1A17A41B1C168491EC16000205D
:108A1000A07238BD48F2046038BD48F2056038BD28
:108A200048F2096038BD0000782B002038B50446B4
:108A30000E48007888B19CB1684604F09BFF90B165
:108A400004210170002101712168C160684604F0B1
:108A50009FFF05F051F8002038BD48F2016038BD95
:108A600048F2046038BD48F2076038BDB0230020EA
:108A70001FB501A9684605F0FFF804B010BD0B460C
:108A800002460021084605F0F7B800002DE9FC4138
:108A90000E4605002ED06EB301A905F035F978B366
:108AA0006C6800220621B4F8068067882046FFF72C
:108AB000E3F9B900ADF8000001276A4604F10800A7
:108AC000091DFFF7D9F9ADF80000404515D1BDF8F3
:108AD00004000D4900EB800001EB800001210C3007
:108AE00001F0D9FB346068680C307060AF72002010
:108AF000BDE8FC8148F20460FAE748F20C60F7E751
:108B0000FFE748F20960F3E7782B002018B1032350
:108B1000002206F0E3B848F2046070470223002206
:108B200006F0DCB8094910B50A69042A0AD0084AD7
:108B3000096942F8210005480121103001F0ABFB22
:108B4000002010BD48F20B6010BD000090230020F3
:108B5000DC2A00202DE9F84F044624480078D8B1DB
:108B6000F4B112212046FDF7B6FC0320DFF8809017
:108B70002080002504F1100804F10E0A05EB8501A0
:108B800009EB810630897189084487B2706804F066
:108B9000F3FB032807D009E048F20160BDE8F88F35
:108BA00048F20460FAE72088401E20806088F1685F
:108BB0000844608020897189084420816089384494
:108BC0006081C7F58060A18980B2814200D2A08116
:108BD0005346A21D211D2846CDF8008005F0C6F998
:108BE0006D1CADB2022DC9D30020D7E7B023002001
:108BF000782B00202DE9F05F17460E00814670D0DB
:108C000013B1F9B2FFF7A0FA0024FDF7EBFB82469F
:108C1000006800E0641C315D415CC907FAD10025A1
:108C20003046FEF7B7FDD9F80810001B4A7ED11B6D
:108C3000814228D306EB040805E000BF18F80510B0
:108C40000A290CD06D1C8542F8D33119D9F81000CF
:108C500002F06CF94846BDE8F05FFFF7A7B9D9F814
:108C6000100002F070F9414600232A464846FEF7FC
:108C7000CDFF2C444846641CFFF798F9F9B24846EA
:108C8000FFF762FAE1E78B46DAF8001006EB04081A
:108C900018F805000B5CDB0702D0AB460A2804D0AD
:108CA000E819904201D26D1CF2E7D9F8100002F0E9
:108CB0004AF9414600235A464846FEF7A7FF5C445E
:108CC000DAF8000000E0641C315D415CC907FAD1AC
:108CD0004846FFF76BF9F9B24846FFF735FA9EE7C9
:108CE000FFE7BDE8F09F406804F064BE10B504469D
:108CF0000068FEF74FFD0146A068827F407E114468
:108D0000B1FBF0F200FB121008B1002010BD0120F1
:108D100010BD000010B50446FFF7D2FD002809D0B1
:108D2000FFF70AFD03462046BDE8104002A20221DB
:108D300001F05EBE10BD00006572726F723A20676E
:108D400061726261676520636F6C6C656374696FE3
:108D50006E2072657475726E65642025730A00005A
:108D600070B510B14FF4064070BD1C4C0025207B3F
:108D700008B1257301E000F0A5F8207808282AD270
:108D8000DFE800F02904080C10291422BDE8704027
:108D900000F026B8BDE8704000F082B8BDE8704031
:108DA00000F064B8BDE8704000F040B806202070C4
:108DB00060880A4900EB8000283901EB8000406898
:108DC000BDE8704004F02EBB072020706560BDE850
:108DD000704004F035BB48F20E6070BDA02B00203F
:108DE0001149F0B48A1C00200346A1F128050C1893
:108DF000A67A4EB1A37200EB800405EB8404E6680A
:108E000016B9247C012C0AD0401C80B20228EED373
:108E10000B704B804B60F0BC41F61D5070471080CA
:108E2000F0BC00F03DB80000A02B00200C484188A9
:108E300001EB8102A0F1280101EB8201CA6852B165
:108E40000521017007480221818001680023012269
:108E5000054802F071B9042202704968F6E7000083
:108E6000A02B0020B8230020C024002038B50A49D8
:108E7000084803240B684268898803EB8101538802
:108E80000470DB1C00201B0400909B0B034802F0C5
:108E9000B9FA38BDA02B0020B8230020C024002040
:108EA000074910B54888091D04F07EFF18B1BDE8D8
:108EB0001040FFF7DBBFBDE81040FFF7B7BF000071
:108EC000A02B002070B5194C0121207808281AD257
:108ED000DFE800F00419191C252929182089134AF4
:108EE000401C2081002060802073283A00EB800322
:108EF00012F8233043B100232518401C80B2AB7216
:108F00000228F3D3217070BD0123F5E7606808499A
:108F100040888A88C01C10448880022004E000F049
:108F200009F8062000E00720207070BDA02B00206B
:108F3000B82300200A4909484988026801EB8103E7
:108F40000749283901EB83014B6803604A60828836
:108F50000A8102228280002008747047B823002012
:108F6000A02B002010B50B48FFF72FFA094A083A4A
:108F7000D2E90434C018D2E9063244F10001C31A20
:108F800071EB020204D24FF08072801841F10001AF
:108F900010BD000040230020428800EB82020C320A
:108FA0008A4201D9022070478188A1F57F42FF3AA9
:108FB00006D0018821B18068401C01D00020704794
:108FC00001207047884204D20068401C01D0012073
:108FD0007047002070470000FEB50026044600964A
:108FE000019602968068E9B3D0E950128A4272D0A5
:108FF000D0F83C0100286ED02046FEF78EFFA06816
:10900000D0F84451002D69D0002309226946284632
:1090100003F08BF8A1689DF808500098C1F844014E
:10902000A06800230922D0F84401694603F07DF8C6
:10903000A1689DF808200923D1F844012031521C71
:1090400003F073F8A1689DF80800C877A1689DF83F
:10905000080088779DF80800A84202D22046FEF753
:109060004DF800E00BE0A3682BA208212046203336
:1090700001F0BEFC2046FEF77AFF68BB43E0D0F863
:109080004401002847D02046FEF747FFA068002390
:109090000922D0F84401694603F047F8A068019915
:1090A000C0F84411A0680029857FB9D1A030FEF72F
:1090B00071FB0028A06805D000F1A0012030FDF769
:1090C0002AFA01E080F82060A0682030FEF762FBF9
:1090D0008DF80800B6E71EE01AE0FFE72030FEF743
:1090E00059FB10F0FF05A068D0F83C11C0F84411FE
:1090F000A06805D000F12001A030FDF70CFA8FE741
:1091000080F8A0608CE72046FFF7F0FD002802D031
:109110002046FEF74BFFFEBD25730000FEB50D4651
:10912000816804460026D1F83C0138B300230922A7
:10913000694602F0FAFF0195A06800230922D0F8E1
:109140003C01694602F0F9FF0196A068D0F83C1195
:109150000091807F8DF80800A068C0F83C51002382
:1091600009226946284602F0E8FFA168092328463B
:109170008A7F2031521C02F0E0FFFEBDC1F83C5155
:10918000A068C0F8405100960196A068807F8DF8D5
:109190000800E4E7FEB504468068D0F84061002E80
:1091A00028D0002309226946304602F0BEFFA1689C
:1091B00001980025C1F84001009501952B46092230
:1091C00069463046029502F0B8FF304602F07FFF54
:1091D000A168D1F8400170B100230922694602F06C
:1091E000A4FF0095A06800230922D0F84001694639
:1091F00002F0A3FFFEBDC1F83C51FEBDFEB5044622
:1092000080682030FEF7C6FA10F0FF05A0684FF026
:109210000006C0F8446133D0A068D0F83C01E0B14A
:1092200000230922694602F080FF9DF80820AA4227
:1092300013D1A068092300F1A001D0F83C01521C11
:1092400002F073FFA06800F1A0012030FDF755F98E
:109250000028A06880F8A06012D000260A352946B0
:10926000606902F004FF0100204604D003B0BDE8AD
:10927000F040FFF753BFFFF78DFF761C082EEED3AB
:10928000FEBD000010B50A4941600A4801F000F82F
:1092900058B903F0ADFB07491C238C22087404481D
:1092A0008C39001F006800F0ABFF002010BD0000EB
:1092B00060F302003C2C00202DE9F0412D4F0025E9
:1092C00020B17D604FF40640BDE8F08108790122AD
:1092D00058B1294E01280CD0264C4FF00208083412
:1092E000022820D0032841D127E00A7104F0A8F811
:1092F0003AE0002000EB800116F82110022908D086
:10930000401C80B20228F5D33A707D6041F61D50B2
:10931000DAE700EB800006F8205006EB800040689A
:1093200004F080F820E00D71A4F8048000230122ED
:109330001248216801F000FF16E00D71206804F06A
:1093400071F80D4923682831498801EB810206EB49
:109350008201D1F804C0C4F800C04B60A3880B811F
:10936000A4F8048006F822500028ADD07D6048F2B1
:109370000D60A9E7B0230020782B0020C024002036
:109380002DE9FC5F0E008346DDE90C47C6F10000C5
:1093900098469246814600D40846012503E000BF66
:1093A00090FBFAF06D1C5045FADAA84500D9454605
:1093B00024B1002E01DB780700D5641EB80702D562
:1093C000B8F1000F0AD0F80708D13CB1A54205D288
:1093D00020215846641EFDF727FDF6E7002E02DA2D
:1093E0004E462D2102E0780703D52B215846FDF784
:1093F0001BFD07F0030002280BD1B8F1000F08D1C4
:109400003CB1A54205D230215846641EFDF70CFD43
:10941000F6E7CDE90047434652463146584605F047
:10942000DDFABDE8FC9F000070B50D4604460068FB
:109430004FF4887103F09CFB4FF49071206803F0A7
:1094400097FB4FF49271206803F092FB4FF4A271E6
:10945000206803F08DFB4FF4AC71206803F088FBAB
:1094600020681249C0F804132068690740F30730E8
:10947000090E002804DB00F1E02080F8001405E06C
:1094800000F00F0000F1E02080F8141D206840F388
:109490000730002809DB00F01F020121914040093C
:1094A000800000F1E020C0F8001170BD1003420000
:1094B000024600201268530713D502F0030001286A
:1094C00002D002280CD105E0C2F383100B68801C87
:1094D000184404E00223086803EB92521044086029
:1094E000012070470248007A002800D00120704710
:1094F0003C2C002010B5FDF717F808B1002010BD76
:10950000012010BD800701D0002070470120704766
:10951000014B00F0A3BF000049970200014B00F08F
:109520009DBF000015990200014B00F097BF00009D
:109530001D990200014B00F091BF0000FD9902004F
:109540007CB514460546012902D001F0BDFB38B1B7
:1095500002B02846BDE870400022114601F070BA02
:10956000616805A0CDE9000109A20221284623680F
:1095700001F03EFA7CBD000020756E6B6E6F776E59
:1095800020706172616D657465723A2000000000A0
:1095900025733A257325730D0A0000002DE9FC415F
:1095A000074601F091FB38B102B03846BDE8F04102
:1095B0000022114601F044BA1248134E801B0509DF
:1095C00000241AE006EB0410C2681179FF2903D0C9
:1095D000527942B10DA207E083680EA208213846F5
:1095E00001F006FA08E013A2CDE90021836814A275
:1095F0000821384601F0FCF9641CAC42E2D3BDE816
:10960000FC810000300C0300100C0300656E6162E9
:109610006C65640025730D0A092D205374617475FF
:10962000733A2064656163746976617465640D0AD8
:109630000D0A000064697361626C656400000000DB
:1096400025730D0A092D205374617475733A202512
:10965000730D0A092D2049443A2025640D0A0D0A8C
:109660000000000010B5044601F02EFB30B120468A
:109670000022BDE81040114601F0E2B902F042F9C3
:1096800030B105A202212046BDE8104001F0B0B97A
:109690000AA20821F7E700004661696C656420743E
:1096A0006F206C6F61642074686520636F6E6669FB
:1096B0006775726174696F6E2E0D0A00436F6E6676
:1096C000696775726174696F6E206C6F616465643F
:1096D0002E0D0A0010B5044601F0F6FA30B120460E
:1096E0000022BDE81040114601F0AAB902F064F969
:1096F00030B105A202212046BDE8104001F078B942
:109700000BA20821F7E700004661696C65642074CC
:109710006F2073746F72652074686520636F6E6666
:10972000696775726174696F6E2E0D0A0000000022
:10973000436F6E66696775726174696F6E207374CA
:109740006F7265642E0D0A002DE9FF4FC86881B065
:109750001D46007917004FF00006009057D00722F1
:1097600045A12868FCF7E0FE78B1082244A12868EA
:10977000FCF7DAFE00282FD02B6843A2019805B031
:109780000221BDE8F04F01F033B9012F02D0022FC2
:1097900008D008E0019805B041A2BDE8F04F0221D1
:1097A00001F026B90126DFF8108100240A2258F8BA
:1097B00024106868FCF7B8FE10B1641C052CF5D3C2
:1097C000052C06D004F0FF090224002E51D00024FD
:1097D00019E03AA26B68D1E7012F4FF00009F6D0EB
:1097E000012446E04A462146009800F09FFC48B913
:1097F0000021204602F0BEFB034638A20221019858
:1098000001F0F6F8641C02F05FFBA042EAD805B054
:10981000BDE8F08F4FF0000A55F824B002F054FB79
:109820008046002609E00021304602F0A3FB2022FA
:109830005946FCF779FE58B1761C4645F3D34645A8
:1098400008D04A465146009800F070FC30B10FE055
:10985000B246F4E755F8243029A205E0002150462D
:1098600002F088FB03461DA20221019801F0C0F816
:10987000641CBC42CED3CAE7656E61626C650000B1
:1098800064697361626C6500556E6B6E6F776E20F4
:109890006F7074696F6E3A2025730D0A0000000026
:1098A00042616420706172616D6574657220636FDE
:1098B000756E742E0D0A000004240020556E6B6E28
:1098C0006F776E207365766572697479206C657642
:1098D000656C3A2025730D0A000000004C65766522
:1098E0006C20756E617661696C61626C6520666F73
:1098F00072206D6F64756C653A2025730D0A000047
:10990000556E6B6E6F776E206D6F64756C653A2562
:10991000730D0A00C968012048717047C9680020AA
:109920004871704730B41346C4680A46214630BCBB
:10993000FFF70ABFC0680121C06841717047C06865
:109940000021C0684171704730B41346C4680A46AC
:10995000214630BC00F052B82DE9FF4100262448D2
:1099600000F093FC2248001F074600F08EFC214CBB
:109970002149A06800900D6800E0009869462840E1
:1099800004EB80000C30FFF793FD0028F5D101AA0D
:10999000009901EA050304EB8303491CDB6842F8E4
:1099A0002030401C00910228F2D3019800F00300FF
:1099B00001280BD0022810D10198032101EB90500F
:1099C0000099BDF80A6001EB900005E00198BDF830
:1099D0000A60C0F3831008440090384600F052FC3F
:1099E00008B10098A06004B03046BDE8F0810000E6
:1099F00000320020E82D0020002400202DE9FE4F39
:109A00008846824602F060FA0746D8F80C00407992
:109A100020B922A20221504600F0EAFF24A327A287
:109A20000821504600F0E4FF2CA20821504600F027
:109A3000DFFF00242DE000BFD8F80C0001231A46F8
:109A400005792146284602F049FA81460023012281
:109A50002146284602F042FA0546032801D206466E
:109A600000E003260121204602F084FA0346AE42BC
:109A700001D22AA200E028A2294850F8261050F866
:109A800029008DE8070027A20821504600F0B0FF0A
:109A9000641CBC42D0D3BDE8FE8F00004C6F6773DE
:109AA000206172652068616C746564210D0A000094
:109AB0006D6F64756C655F6E616D6500252D34306A
:109AC00073207C2063757272656E74207C206275D1
:109AD000696C742D696E200D0A0000002D2D2D2D4E
:109AE0002D2D2D2D2D2D2D2D2D2D2D2D2D2D2D2DA6
:109AF0002D2D2D2D2D2D2D2D2D2D2D2D2D2D2D2D96
:109B00002D2D2D2D2D2D2D2D2D2D2D2D2D2D2D2D85
:109B10002D2D2D2D2D2D0D0A000000002A000000F6
:109B200004240020252D343073207C20252D37730C
:109B3000207C20257325730D0A0000008EB002F0F2
:109B40000BFF08B1FCF7D0FF06A9012002F076FD5B
:109B500008B1FCF7C9FF06A802F0FCFD08B1FCF74C
:109B6000C3FFFCF7DFFF08B1FCF7BEFF4FF48041F5
:109B7000002002F059F908B1FCF7B6FFFDF7CAFB67
:109B80007348744A714D801AC0086988032202EB39
:109B90000044032903D320466FA102F0D1F8744892
:109BA000FEF7C0FF6888032803D3204671A102F0A6
:109BB000C7F8FEF7A5FE08B1FCF796FF724E3078A5
:109BC00000287CD06888032842D320466FA102F089
:109BD000B7F8688803283BD3204671A102F0B0F89B
:109BE0006888032834D3204674A102F0A9F8688855
:109BF00003282DD320467AA102F0A2F86888032812
:109C000026D320467EA102F09BF8688803281FD344
:109C1000204681A102F094F86888032818D32046D2
:109C200084A102F08DF86888032811D3204688A10A
:109C300002F086F8688803280AD320468CA102F037
:109C40007FF86888032803D3204691A102F078F8B2
:109C500014216846FCF73FFC6846FEF77BFF08B11D
:109C6000FCF742FF688803280ED3BDF80420204685
:109C700090A102F069F86888032805D3BDF8062092
:109C8000204692A102F060F80027079708970997ED
:109C90000A970AAB07AA47F2100148F210000B9787
:109CA000FEF7E6FE48F20666C8B16888032803D3CB
:109CB000204694A102F044F8984907A800E00CE07F
:109CC000FEF72CFF90B3B04231D16888032830D31F
:109CD0002046934902F034F82BE041DF6FE70C9700
:109CE0000CA907A80D97FEF7D1FE08B1FCF7FCFE02
:109CF000254818221C300D99FCF7C6FB224F6888B6
:109D00001C37032804D3204686A13A6802F01CF8C9
:109D10003868401C386007A8FEF764FE08B1FCF7FD
:109D2000E3FE7E4907A8FEF7F1FECBE701E0FCF772
:109D3000DBFEFDF7D3FB00BF01F0C4FE00B941DF3D
:109D4000FDF7BEFBFEF73EFAF6E700001025002007
:109D5000A80C0300300C0300464453206578616D65
:109D6000706C6520737461727465642E000000006D
:109D70004D870200496E697469616C697A696E6722
:109D8000206664732E2E2E00B42200204176616975
:109D90006C61626C6520636F6D6D616E64733A0017
:109DA0002D207072696E7420616C6C090970726983
:109DB0006E74207265636F72647300002D20707280
:109DC000696E7420636F6E666967097072696E747C
:109DD00020636F6E66696775726174696F6E0000EB
:109DE0002D2075706461746509097570646174650E
:109DF00020636F6E66696775726174696F6E0000CB
:109E00002D2073746174090973686F77207374610E
:109E100074697374696373002D20777269746509BE
:109E20000977726974652061206E657720726563B9
:109E30006F7264002D2064656C6574650909646542
:109E40006C6574652061207265636F726400000048
:109E50002D2064656C6574655F616C6C0964656C6C
:109E600065746520616C6C207265636F7264730049
:109E70002D206763090972756E20676172626167E0
:109E80006520636F6C6C656374696F6E0000000021
:109E900052656164696E6720666C617368207573D2
:109EA00061676520737461746973746963732E2EBE
:109EB0002E000000466F756E642025642076616C6C
:109EC0006964207265636F7264732E00466F756EED
:109ED00064202564206469727479207265636F72EE
:109EE00064732028726561647920746F2062652034
:109EF0006761726261676520636F6C6C656374652E
:109F000064292E0057726974696E6720636F6E66EC
:109F100069672066696C652E2E2E00009CF0020099
:109F200024FB0200436F6E6669672066696C6520DA
:109F3000666F756E642C207570646174696E67203D
:109F4000626F6F7420636F756E7420746F20256468
:109F50002E0000002DE9FF4F4FF0000881B014469D
:109F60008B468146C246C0F800802578002D71D00E
:109F7000FCF738FA00900068405DC00702D004F892
:109F800001AB84E0D9F800008300401CC9F8000050
:109F90004BF8034015E02678002E78D0B8F1000F7A
:109FA00005D1222E10D0272E0ED05C2E1ED0B0450B
:109FB00014D12046FDF7EEFB0246611C2046FCF75B
:109FC00063FA4FF00008E6E72046FDF7E3FB0246A0
:109FD000611C2046FCF758FAB046DCE7B8F1000FE8
:109FE00050D05C2E61D16078404508D12046FDF705
:109FF000D1FB0246611C2046FCF746FA55E03028AA
:10A000001CD100270225605DA0F13001072906D888
:10A010006D1C41EAC701EDB2CFB2052DF3D3022D7D
:10A020000CD92046FDF7B6FB421B61192046491E9C
:10A03000921CFCF729FA04F8017BACE778281ED1C2
:10A0400000270225605DA0F13001092903D841EA0B
:10A0500007100DE021E0A0F16101052901D8573872
:10A0600004E0A0F14101052907D8373840EA07107C
:10A070006D1CEDB2C7B2042DE4D3022DD1D8B8F1D6
:10A08000000F12D100980068805DC0070DD0D9F88C
:10A09000001004988142FFF468AFD9F800204046D0
:10A0A0004BF822A005B0BDE8F08F641C73E72DE9E2
:10A0B000F047C5881E1DB6FBF5F78946B6FBF5F1DE
:10A0C000044605FB176C407916686843DDF820A04C
:10A0D000F718001F874200D9C61A166001E02468ED
:10A0E000491E0029FBD1A5EB0C078846B74216D8BC
:10A0F00018E004EB0C00001D09EB0803BAF1000F97
:10A100003A4602D00146184600E01946FCF7BCF971
:10A110002468F61B4FF0000CB844B54201D937460D
:10A1200000E02F46002EE4D1BDE8F08770B514465C
:10A1300000230D4606461A4601F0D0FE844201D99E
:10A14000002070BD22462946304601F0EBFE01207A
:10A1500070BD000030B5024651B101F0B5FE0021DE
:10A16000074C08E034F821301568AB4202D1116089
:10A17000002030BD491C8142F4D3052030BD0000D1
:10A18000D424002010B50C460021E1606160034931
:10A19000A160012101F0EEFE206010BD2CF502004F
:10A1A00070B58468006804F11405FDF7F3FAC1B2D4
:10A1B000A971E07F6A790844B0FBF2F302FB130354
:10A1C0005B1C2B70E07F0844B0FBF2F35B1CAB70B0
:10A1D000A07F0844B0FBF2F35B1CEB70A07F084447
:10A1E000B0FBF2F102FB1101491C6970284670BDF9
:10A1F00010B5FCF75AF808B1002010BD112010BDB1
:10A2000010B531B1B2FBF3F403FB14241CB10920E7
:10A2100010BD0E2010BD016000214160816082816F
:10A22000C381084610BD70B50C460546FBF7F2FF2A
:10A23000002802D021882868084470BD10B50A881B
:10A2400049888A4203D1FCF727F8012010BD00207D
:10A2500010BD70B50C460546FCF701F8002802D089
:10A2600061882868084470BD10B50A8849888A4208
:10A2700003D1FBF7EBFF012010BD002010BD002132
:10A2800000F00FB8002100F017B8012100F023B84A
:10A29000012100F016B808B56A46FCF752F800989C
:10A2A00008BD08B56A46FCF732F8009808BD08B545
:10A2B0006A46FCF746F808BD08B56A46FCF727F879
:10A2C00008BD08B56A46FCF715F808BD08B56A462A
:10A2D000FCF704F808BD08B56A46FCF70BF80098CF
:10A2E00008BD08B56A46FCF739F8009808BD38B5CE
:10A2F000044600258DF800506846FCF761FC216893
:10A300006268086890420ED9401E08600178238B6D
:10A31000E26801FB0325227A2168101AC0B20A798B
:10A32000824200D208719DF80000FCF76DFC2846BF
:10A3300038BD38B5054600208DF800000C4668464B
:10A34000FCF73EFCE868298B201AB0FBF1F12A6883
:10A350001068431C136001709DF80000FCF754FC6A
:10A3600038BD10B530B1017A42680368891AC9B2A4
:10A370001A6006E00E2010BD03681A68541C1C60A9
:10A380001170491EC9B2F7D2006800210171084658
:10A3900010BD00002DE9F0470646806888B0D0F86F
:10A3A0004801C0F3400038B108B03046BDE8F0477E
:10A3B0000022114600F044BB012907D908B03046FD
:10A3C000BDE8F0471DA2022100F012BB2049DFF8D2
:10A3D00084A0A1EB0A001C21B0FBF1F5002428E0C9
:10A3E000C4EBC4010AEB81034FF000091F68D3E9F5
:10A3F00001103A793F78411AB3F81880C01B5B69A5
:10A40000C0B2642712FB07F7B7FBF1FC642710FB0F
:10A4100007F7B7FBF1F7CDE90621CDE9041CCDE93B
:10A4200002700D4A08213046CDE9008900F0E0FABB
:10A43000641CAC42D4D308B0BDE8F087426164200C
:10A44000617267756D656E7420636F756E74000060
:10A45000000D0300C80C030084FD02002DE9FF5F1E
:10A460008B46164814499A46091A0F09914652F824
:10A47000046C0025804607E008EB05143046A1680F
:10A48000FCF73BF818B16D1CBD42F5D30BE0210081
:10A4900009D0009804B04B465A46D446BDE8F04F68
:10A4A0005DF804EB6047009804B03346BDE8F05F08
:10A4B00003A2022100F09CBA300C0300100C030030
:10A4C000496E76616C6964206261636B656E643AA3
:10A4D0002025730D0A00000070B515468268D2F879
:10A4E0004841C4F3400424B11A46294600F0A8FAB2
:10A4F00005E031B1536804A2022100F079FA01208D
:10A5000070BD002070BD000025733A2077726F6E19
:10A510006720706172616D6574657220636F756E1E
:10A52000740A000010B5044602290CD1A068D0F8C6
:10A530004801C0F3400030B120460022BDE8104081
:10A54000114600F07DBA064A06A1206900F0EEFC33
:10A55000034A2069BDE81040093202A100F0E6BCC0
:10A56000ADF2020025730000012907D0022909D1AC
:10A570008168D1F84811C1F3400119B10022114698
:10A5800000F05EBA01A2022100F032BA506C65619F
:10A5900073652073706563696679206120737562E5
:10A5A000636F6D6D616E642E0A0000001CB5012999
:10A5B00005D002290BD014D94FF0010112E002B0EE
:10A5C0004FF00002BDE81040114600F039BA536860
:10A5D00008A1CDE9001313680CA2022100F008FACB
:10A5E0001CBD002102B00023BDE810401A46FFF751
:10A5F00073BF000020756E6B6E6F776E2070617296
:10A60000616D657465723A200000000025733A257B
:10A610007325730A0000000010B50446012901D01B
:10A62000012100E0002100231A46FFF755FF002812
:10A6300009D1A168C1F83801E06840680068BDE848
:10A64000104001F0E5BD10BD3EB50546012901D021
:10A65000012100E0002100231A46FFF73DFF0028FA
:10A6600018D1E86840680468204601F0CEFDC0B209
:10A67000642110FB01F2A168B2FBF1F2D2B20092A8
:10A68000CDE90101A86804A20021D0F8383128469C
:10A6900000F0AEF93EBD00004C6F7374206C6F6724
:10A6A000733A2025750A4D6178206C6F67207175AB
:10A6B000657565207574696C697A6174696F6E3A45
:10A6C0002025752525205B25752F25755D0A000041
:10A6D0007CB514460546012903D0022908D0012182
:10A6E00007E002B00022BDE87040114600F0A8B9B2
:10A6F000002100231A46FFF7EFFE002809D1616808
:10A7000004A0CDE9000109A202212846236800F037
:10A710006FF97CBD20756E6B6E6F776E2070617205
:10A72000616D657465723A200000000025733A255A
:10A730007325730A0000000010B50446012901D0FA
:10A74000012100E0002100231A46FFF7C5FE002882
:10A7500006D1A068D0F8481121F00401C0F84811D2
:10A7600010BD10B50446012901D0012100E00021EF
:10A7700000231A46FFF7B0FE002806D1A068D0F8E3
:10A78000481141F00401C0F8481110BD7CB51446D1
:10A790000D460646022901D9012100E000210023CF
:10A7A0001A46FFF799FE002811D1022D05D0304638
:10A7B000FCF7AAFD60B10BA30BE061680AA0CDE92C
:10A7C00000010FA202213046236800F011F97CBD80
:10A7D0000EA302B03046BDE870400DA2002100F08B
:10A7E00007B900006F6E000020756E6B6E6F776E9C
:10A7F00020706172616D657465723A20000000001E
:10A8000025733A257325730A000000006F66660001
:10A810004563686F207374617475733A2025730AF9
:10A820000000000010B50446012901D0012100E01C
:10A83000002100231A46FFF74FFE002806D1A0682A
:10A84000D0F8481121F00801C0F8481110BD10B52A
:10A850000446012901D0012100E0002100231A460D
:10A86000FFF73AFE002806D1A068D0F8481141F061
:10A870000801C0F8481110BD7FB50446012901D078
:10A88000012100E0002100231A46FFF725FE0028E1
:10A8900027D1A0680026D0F84051F5B101E0082E7C
:10A8A0001BD20023092201A9284601F03EFC9DF895
:10A8B0000C20A16809232846A031521C01F035FC68
:10A8C000A0683346A0300090029D761C05A20021AE
:10A8D000204600F08DF8002DE1D1A168002081F81C
:10A8E000A0007FBD5B2533645D2025730A00000056
:10A8F0007CB515460446012903D0022917D9012148
:10A9000016E0A16801F11802193103F0AFFD00282B
:10A910001ED0A16850200FA24876A16818200876A2
:10A9200002B02046BDE87040042100F061B800216B
:10A9300000231A46FFF7D0FD002809D1696814A04A
:10A94000CDE9000118A2022120462B6800F050F842
:10A950007CBD00004E6F20726573706F6E73652052
:10A9600066726F6D20746865207465726D696E61C2
:10A970006C2C20617373756D6564203830783234C7
:10A980002073637265656E2073697A650A00000042
:10A9900020756E6B6E6F776E20706172616D65747D
:10A9A00065723A200000000025733A257325730A6A
:10A9B0000000000010B50446012901D0012100E08B
:10A9C000002100231A46FFF787FD00280AD1064A16
:10A9D00006A1206900F0AAFAA16850204876A16873
:10A9E0001820087610BD0000C6F202002573000092
:10A9F0000FB438B5044607A80090A068D0F84821E5
:10AA0000520717D5C27E8A4214D0B0F81B50204698
:10AA100004F0C8F86A462069069900F0A0FAE9B285
:10AA2000204604F0BFF8290A204604F09DF838BCFF
:10AA30005DF814FB6A462069069900F090FAF6E783
:10AA40002DE9F04F804689B017460C468648FCF742
:10AA5000A1FE054684483638FCF79CFE281A1FFAEA
:10AA600080F9814881A223380090D8F80800082195
:10AA700043684046FFF7BCFFD8F808004068FCF781
:10AA800089FE054678482338FCF784FE284482B2C4
:10AA9000D8F80800002381684046FEF7ABF875A29D
:10AAA00000214046FFF7A4FF0FB304B300251CE0CC
:10AAB00005EB450A04EB8A0BDBF80400FCF76AFEA1
:10AAC000064654F82A00FCF765FE311849450BD9B3
:10AAD000DBF80400FCF75EFE064654F82A00FCF79B
:10AAE00059FE30441FFA80F96D1CBD42E0D35E4828
:10AAF0003638FCF74FFE4844801C1FFA80F95A484C
:10AB000000904B465EA208214046FFF771FF09F115
:10AB1000030086B20790002332465BA14046FEF751
:10AB200069F8002C52D000254EE000BF05EB450A25
:10AB300004EB8A0B54F82A00DBF804306BB350B3F3
:10AB4000494956A23639CDE9001008214046FFF7A1
:10AB50004FFF09F102000090DBF80400FCF71AFE39
:10AB6000064654F82A00FCF715FE06443E483638DF
:10AB7000FCF710FE31180098401A801EC1B2404602
:10AB8000FDF7E2FA3A224849D8F8100000F0CEF971
:10AB90000098401C0AE0009301E040B100904B4651
:10ABA00037A208214046FFF723FF079886B2DBF85B
:10ABB000081029B1002332464046FEF71BF802E098
:10ABC0004046FDF7F3F96D1CBD42AFD3D8F808003D
:10ABD000C068002845D0814600200446064603ADE3
:10ABE00002903246761C02AB012148460095FDF7E3
:10ABF0005BF8029850B10068FCF7CCFDA042F0D998
:10AC000002980068FCF7C6FD84B2EAE7012E28D05E
:10AC100026A200214046FFF7EBFE00263246761CB6
:10AC200002AB012148460095FDF73EF80298002846
:10AC300017D0A11C8FB2006800903B4610A20821DB
:10AC40004046FFF7D5FE0298FF1CBAB2416821B119
:10AC500000234046FDF7CEFFE0E74046FDF7A6F9AA
:10AC6000DCE709B0BDE8F08FCCF202002573257354
:10AC7000000000004F7074696F6E733A0A000000A4
:10AC80002020252D2A733A0053686F7720636F6D5B
:10AC90006D616E642068656C702E00002020257345
:10ACA0002573257300000000F8700200537562637D
:10ACB0006F6D6D616E64733A0A0000008068D0F8B1
:10ACC0004801C0F3400070478068D0F84801C0F3E5
:10ACD000400070472DE9F0411E460546069F00F0F2
:10ACE00013F804000DD166B13946E86800F0E6FCBF
:10ACF000002802DA0420BDE8F081E8680121C0687C
:10AD000041712046F7E7000070B50446C06815465B
:10AD1000234640688460606802681668254AB04728
:10AD2000002845D1606901F0EFF9002840D1A16801
:10AD3000C1F83C01A168C1F840014FF4A671A068B8
:10AD4000FBF7C9FBA068D0F8481141F02001C0F81A
:10AD50004811A068D0F8481165F38201C0F8481185
:10AD6000A068D0F8481141F00801C0F84811A16866
:10AD70000120124B0870A1685020114A4876A16842
:10AD80001820087600210C48D21A06E003EBC10413
:10AD90006468246840F82140491CB1EBD20FF5D318
:10ADA000072A04D9D108074B0422FBF71FFB002018
:10ADB00070BD0000B97A020088240020A00B0300B7
:10ADC000100C030065E402000023FCF71FBF000025
:10ADD00010B504468068102100F5A470FFF77BFAD7
:10ADE000A0680078F8B101281DD002281BD12046A8
:10ADF000FCF782FB00212046FCF7ACFA98B110A2C8
:10AE0000032120462368FFF7F3FD2046FCF77CFA78
:10AE100048B1A3680AA2082120462033FFF7E8FDC5
:10AE20002046FDF75BF9206900F08DF8A068BDE8C9
:10AE300010406FF0100100F5A470FFF732BA000067
:10AE40002573000070B5044680680078012801D0A1
:10AE5000082070BD606801688A680021904705007D
:10AE60000FD10821204603F09DFE0121204603F06A
:10AE70007BFE05A1206900F059F802212046FCF76D
:10AE800075FC284670BD00000A0A0000F0B50546B2
:10AE90000478154889B0164640F82420124A0869FB
:10AEA000121DA2F1080742F82400487F38552022DD
:10AEB0006846FBF7E9FA04942878385C48B10EB18B
:10AEC0000A4A00E000226946281D02F04BF809B04A
:10AED000F0BD0EB1064A00E00022694605F10C0003
:10AEE00001F08AFEF3E700002823002079E8020041
:10AEF000C1E6020030B40378054CE35C1BB130BC02
:10AF0000001D02F0FDB830BC0C3001F05FBF000046
:10AF1000242300200178044A515C11B1001D02F085
:10AF200053B90C3001F0B6BF242300200FB408B58C
:10AF30000399002904D004AA00926A4600F00FF891
:10AF400001B05DF814FB10B582680446002A05D0F4
:10AF5000D4E90403216898470020A06010BD2DE9C2
:10AF6000FC4791460C00804676D014F8011B39B19D
:10AF700025290ED04046FBF757FF20780028F4D152
:10AF800098F80C00002867D04046BDE8FC47FFF762
:10AF9000DABF0020012221782B291BD02D2902D0D5
:10AFA000302908D102E040F0010001E040F0020049
:10AFB000641C002AEFD100252A290ED02178A1F1A6
:10AFC00030020A2A11D205EB850201EB4205641C0E
:10AFD000303DF1E740F00400EAE7D9F800100B1D1E
:10AFE000C9F800300968641C0D44217800232E291B
:10AFF0000BD114F8011FA1F130020A2A05D203EB8C
:10B00000830201EB4203303BF3E76C290DD0682942
:10B010000BD0692921D00BDC252918D0582931D033
:10B0200063290ED0642915D117E014F8011FECE74D
:10B03000702969D0732932D075291BD0782909D19C
:10B0400020E0D9F80000011DC9F800100178404641
:10B05000FBF7EAFE641C90E76CE0D9F800100A1DCB
:10B06000C9F800200968CDE900500A224046FEF7E1
:10B0700087F9EFE7D9F800100A1DC9F80020096820
:10B080000A2206E0D9F800100A1DC9F80020096854
:10B090001022CDE90050404603F0A0FCDAE7D9F8D1
:10B0A000001000270A1DC9F800200E68C00705D14E
:10B0B00012E04046761C7F1CFBF7B6FE3178002973
:10B0C000F7D104E0202140466D1EFBF7ADFEBD42E6
:10B0D000C0D9002DF6D1BDE74EB13046FBF706FAD8
:10B0E000074604E0202140466D1EFBF79DFEBD4251
:10B0F00006D9002DF6D103E04046761CFBF794FEFE
:10B1000031780029F8D1A5E7D9F80000011DC9F868
:10B110000010056830214046FBF786FE7821404646
:10B12000FBF782FE08200021CDE900010346102232
:10B130002946B0E7BDE8FC872DE9F84F89460500B0
:10B1400032483349304FA0EB01004FEAD0004FF0B6
:10B15000010101EB004478889A46164626D02968FA
:10B1600000292FD0002E38D06A6849464FF01008C9
:10B170001268531E13EA090F10D172432846FBF7D9
:10B180005DFC002834D0286853463246046901B07B
:10B1900049462846A446BDE8F04F6047002831D014
:10B1A00020461C4B1CA2CDF8008028E038B10E20B0
:10B1B00000902046174B22A223A100F0D4FD0E20C0
:10B1C000BDE8F88F38B1082000902046114B29A225
:10B1D0001DA100F0C8FD0820F2E738B10920009059
:10B1E00020460C4B26A218A100F0BDFD0920E7E780
:10B1F000788838B1074B234A2046CDF8008012A149
:10B2000000F0B1FD1020DBE7FC240020800C0300DF
:10B21000300C030047F30200616464725F69735F7E
:10B22000706167655F616C69676E656428705F66F1
:10B23000732C20706167655F61646472290000008F
:10B24000705F667300000000257320636865636BA0
:10B25000206661696C656420696E20257328292049
:10B26000776974682076616C756520307825782E52
:10B2700000000000705F66732D3E705F61706900B2
:10B280006C656E00CC000300F8B503001448154E41
:10B29000124CA0EB06004FEAD0004FF00106648884
:10B2A0004FF00E0506EB004009D069B119600C683B
:10B2B00001B0A446BDE8F04011461846604754B1BD
:10B2C000094B0AA2009503E02CB1074B09A2009597
:10B2D0000AA100F048FD0E20F8BD0000FC2400206B
:10B2E000800C0300300C0300FCF20200705F6673F8
:10B2F00000000000705F617069000000257320632A
:10B300006865636B206661696C656420696E2025E1
:10B3100073282920776974682076616C7565203000
:10B320007825782E00000000044801214174007A3D
:10B3300008B1002070470120704700003C2C00201D
:10B34000012801D0032808D10449002201284A74A9
:10B3500000D00020087402F07FBB70473C2C002016
:10B3600070B50246022801D0032A45D1234C207A29
:10B37000002841D0012833D0022831D120480023B1
:10B38000022A006802D0032A2AD11BE0E360017977
:10B3900011B1012924D10DE0D0E90565711B4FF4ED
:10B3A0008056B14200D33146294481614569A942A2
:10B3B0000ED015E00169491C0161426991420FD12B
:10B3C000237213E0E168491CE160082908D9E360B1
:10B3D0002372022A0AD00D21FDF770F902F0E0FA7B
:10B3E000607C28B1BDE8704001F008BB0021F3E7A4
:10B3F000BDE8704002F030BB70BD00003C2C002066
:10B40000D82300202DE9F84F914605004348444ACF
:10B41000414EA0EB02004FEAD0004FF0010202EBD8
:10B4200000448B467088DDF828A098464FF00E0146
:10B430001CD0B9F1000F1FD02968002926D009219E
:10B44000B8F1000F2DD06A685368B8FBF3F703FB1F
:10B450001782002A2CD030B1324B204632A2009104
:10B460003CA100F080FC0920BDE8F88F60B12046C7
:10B470002C4B43A2009104E030B12A4B204642A25B
:10B48000009134A100F06FFC0E20EDE738B10820E8
:10B4900000902046234B3EA22EA100F064FC082021
:10B4A000E2E70028DFD020461E4B3CA20091D7E700
:10B4B0005846FBF7BDFA102798B14846FBF7B8FA93
:10B4C000B8B1424659462846FBF7B8FAD8B1CDF88C
:10B4D00000A0286843464A46C46859462846A04703
:10B4E000C2E77088002815D020460E4B2CA200978A
:10B4F00005E0708870B10B4B20462FA2009715A174
:10B5000000F031FC06E0708820B12046054B33A2E4
:10B510000097F4E71020A7E7FC240020800C03002C
:10B52000300C030034F3020021286C656E202520C6
:10B53000705F66732D3E705F666C6173685F696EE5
:10B54000666F2D3E70726F6772616D5F756E6974A4
:10B5500029000000257320636865636B20666169BC
:10B560006C656420696E20257328292077697468CA
:10B570002076616C756520307825782E00000000FB
:10B58000705F667300000000705F737263000000FC
:10B59000705F66732D3E705F617069006C656E0050
:10B5A000616464725F69735F616C69676E6564335F
:10B5B0003228646573742900616464725F69735F23
:10B5C000616C69676E65643332282875696E7433FF
:10B5D000325F7429705F7372632900006164647262
:10B5E0005F69735F77697468696E5F626F756E64B7
:10B5F0007328705F66732C20646573742C206C65EF
:10B600006E29000070B541EA4201DDE904564FF0B1
:10B61000A04441EA830141EA052104EB800041EAAC
:10B620000641C0F8001770BD70B541EA4201DDE97E
:10B6300004564FF0A04441EA830141EA052104EB9E
:10B64000800041EA0641C0F8001770BD1CB500211A
:10B6500000910B4601220191FFF7D4FF1CBD1CB5E0
:10B66000002100910B4601220191FFF7DDFF1CBD77
:10B670001CB500220B46009211460192FFF7C2FF53
:10B680001CBD1CB500220B46009211460192FFF72B
:10B69000CBFF1CBD1CB5002100910B46012201917E
:10B6A0001146FFF7AFFF1CBD1CB5002100910B46F2
:10B6B000012201911146FFF7B7FF1CBD2DE9F041B2
:10B6C000054620480E460024D0F8103419460AE0FA
:10B6D000CA681179A14205D1641C0A2CF6DB4FF02F
:10B6E000FF342BE011680029F2D1611C26D0E968F3
:10B6F0000C71D0F8101459B1C968EA680968116072
:10B70000D0F81004C06805600027DFF83C8011E025
:10B71000C0F81054E96800200860F5E708EBC7009E
:10B72000C279B24200D33246E8683946007900F067
:10B73000F9FB7F1C00F0C8FBB842EFD82046BDE8FB
:10B74000F0810000E82D0020300C0300406801214A
:10B750008068FBF7FFBD10B54068846860680168C9
:10B760008A680121904718B10420A168087010BDB3
:10B770000320FAE72DE9F3414468A668B068007831
:10B7800004281ED0032807D0002501A9206800F056
:10B790004AFD85F0010709E00125F6E73946304604
:10B7A000FBF7D8FD01A9206800F03DFD0028F5D188
:10B7B000019800F0A5FC002D03D000213046FBF7D6
:10B7C000C9FDBDE8FC81F0B595B01C4615460F4695
:10B7D00008461A9E00F094FC182109A8FAF77BFE8F
:10B7E0000E96CDE909540023082203A9384600F03B
:10B7F0009CFC05980690BDF81000ADF81C00BDF843
:10B800001200ADF81E0000208DF8210003980826D4
:10B8100000F00300012802D0022818D032E003987B
:10B820003346850AC0F3C2008DF8200003980FA9A3
:10B83000C0F38314A200384600F077FC09A80090FA
:10B8400006AB22460FA9284600F0B6FB1AE0039883
:10B85000840DC0F3C2008DF82000082C01D22546CB
:10B8600000E0082533462A460FA9384600F05DFC63
:10B870002E44641B09AB06AA29460FA800F07CFAE7
:10B88000002CEAD1384600F041FC15B0F0BD7047FD
:10B89000084810B50178084A515C19B1001D01F043
:10B8A00093FC02E00C3001F0F5FABDE810400020F6
:10B8B00002F024BFE42300202423002008B5034A1B
:10B8C00000924023024AFFF77EFF08BD61E20200BA
:10B8D000502C00200A4A012902EBC00007D002299F
:10B8E00007D0032907D0042907D000207047022081
:10B8F0007047042070470079704740797047000016
:10B90000300C030010B588B000240394049405940F
:10B91000069406AB03AA43F2274141F26E00079456
:10B92000FDF7A6F8B0B1A0F50641093902D0032011
:10B9300008B010BD11484088022809D310481149A9
:10B94000401AC008022101EB00400FA100F0F8F9F5
:10B950000520EDE7019401A903A80294FDF796F8EC
:10B960000028E5D11248134902468A1A0299FAF7CB
:10B970008BFD03A8FDF736F8DAE70000102500205C
:10B98000A80C0300300C03004C6F676765722063DE
:10B990006F6E66696775726174696F6E2066696C37
:10B9A00065206E6F7420666F756E642E0000000057
:10B9B000202500206C25002070B58AB00020214988
:10B9C00002900090019007900890D1E90701CDE91D
:10B9D00004011D481D4907AB401A800806906A46BD
:10B9E00043F2274141F26E00FDF742F819491A4A25
:10B9F000174E891AC908032202EB0144A8B1A0F529
:10BA00000641093903D003250AB0284670BD04A9B0
:10BA10006846FDF783F8054670880328F4D320466E
:10BA20002A460EA100F090F9EEE704A96846FDF75A
:10BA30006DF8054670880328E6D320462A4614A1EF
:10BA4000F0E700002CF502006C25002020250020E6
:10BA500010250020A80C0300300C03004C6F676712
:10BA6000657220636F6E66696775726174696F6E67
:10BA70002066696C65207772697474656E207769D9
:10BA8000746820726573756C743A25640000000058
:10BA90004C6F6767657220636F6E66696775726168
:10BAA00074696F6E2066696C652075706461746579
:10BAB00064207769746820726573756C743A2564C4
:10BAC000000000002DE9F04F8DB0FBF7C5F918B16B
:10BAD00000200DB0BDE8F08F8D4C0020C4F8180494
:10BAE000BFF34F8F8B49A06802900D684FF000099B
:10BAF000284004EB80000BE0D4F8180470B96168AA
:10BB00000298814201D8A160E2E7284004EB80005E
:10BB10000C3002A9FDF7CCFC0028EDD1002003AACF
:10BB2000A046029901EA050308EB8303491CDB6880
:10BB300042F82030401C02910228F2D3039800F012
:10BB40000300022802D0012850D0C2E003985022FE
:10BB5000810D8A46B2EB905F00D850210C4664F309
:10BB60009F50C0F3C207039008316B4800F07FFA82
:10BB70000600EAD000F0C4FA4B46082203A930467A
:10BB800000F0DBFA029909F1080B2940681A8000DD
:10BB9000001D844223D95E4D0C3530B1C2B208EB92
:10BBA0008101201A91460C3104E02946E2B20025B9
:10BBB00091462846C4B25B46304600F0BEFA0BEB15
:10BBC00009032DB1224629464FEA060000F0B5FAD6
:10BBD00002990AF1030001EB900002903DE008EBAE
:10BBE00081015B46224630460C31EFE70398C0F3F3
:10BBF0008310062800D30620039960F38911C1F34E
:10BC00008310C1F3C207801C03918100424800F0F9
:10BC10002EFA06005DD000F073FA4B46082203A905
:10BC2000304600F08AFA09F1080900240FE0029872
:10BC30004B4600EA0501401C08EB810102900422FA
:10BC400030460C3100F079FA09F10409641C0398BC
:10BC5000C0F38310A042EAD8D6B3D8F81044D8F87D
:10BC600018044546F8B1304600F050FA4AE0E06862
:10BC70004179012915D10179BDF81000274A52F800
:10BC8000200001EB4102072191400840D040052FE0
:10BC900000D10327B84204D3216820460A68314600
:10BCA0009047E0680468002CE1D1304600F02EFA9D
:10BCB00000208DF800006846FAF782FFD5F81804D6
:10BCC00008B90298A8609DF80000FAF79DFF19E0F6
:10BCD000FFE7D8F8104405E02168204689688847C6
:10BCE000E0680468002CF7D10D484088022809D389
:10BCF0000C480D49401AC008022101EB00400BA17D
:10BD000000F01EF8FBF7A8F880F00100E1E6000063
:10BD1000E82D002000240020E40C03002025002052
:10BD200010250020A80C0300300C03004261636B57
:10BD3000656E647320666C7573686564000000004E
:10BD400000231A4602F044BB08B5012300926A465C
:10BD500002F03EFB08BD1CB5CDE9002302236A4674
:10BD600002F036FB1CBD3EB5069C8DE81C0003238B
:10BD70006A4602F02DFB3EBD2DE9F0470E46804697
:10BD80001C469246082940D894F80C900020207355
:10BD90001946104601F01CFC0025B54206D218F8E1
:10BDA00005201BA12046FFF7C1F803E01AA1204699
:10BDB000FFF7BCF86D1C082DEFD318A12046FFF744
:10BDC000B5F80025B54212D218F805707E2F08D8B4
:10BDD000FAF708FB0068C05D10F03E0F01D03A464C
:10BDE00000E02E220EA12046FFF7A0F803E00DA1EF
:10BDF0002046FFF79BF86D1C082DE3D30122214656
:10BE0000504601F0C7FB84F80C90BDE8F0870000B5
:10BE10002025303278000000202020007C00000027
:10BE200025630000200000002DE9F0471F494FF076
:10BE300000081F4881F8008000F066F9002832D120
:10BE40001C4800F0C5FB1C49DFF87090DFF870A0BB
:10BE5000A1EB0900C608002414E000273D460CE0D1
:10BE6000AC4209D059F8340059F835101422FAF7C9
:10BE70005BFB002800DD7F1C6D1CB542F0D32AF867
:10BE80002470641CB442E8D30020414654460D4D52
:10BE900006E000BF04EB8002518045F82010401CF2
:10BEA000B042F7D30020BDE8F0870000E82D002065
:10BEB000E40C03003CF50200C80C0300300C030046
:10BEC000D42400202025002002480349401AC0083D
:10BED00070470000C80C0300300C03007FB5054616
:10BEE0001146002401A873B1FEF734F998B90B4844
:10BEF0000199072250F8210005EB45018A401040C6
:10BF0000C840C4B207E0FEF725F920B904480199FA
:10BF100000EBC100847904B0204670BD20250020CC
:10BF2000300C030070B5114B00EB400003EB8104B3
:10BF30000F4B02F0070203EB8101072303FA00F61F
:10BF40000D688240B5432A4300200A604FEA000191
:10BF500003FA01F51540CD40ADB2854200D928461F
:10BF6000C91C0A29F4D3608070BD0000D4240020CD
:10BF70002025002013B56846FEF7ECF808B1002034
:10BF80001CBD0248009950F831001CBD300C030064
:10BF900070B508480125D0F81044057007E0E06846
:10BFA00045712168204649688847E0680468002C8C
:10BFB000F5D170BDE82D00202DE9FF4781460C9D8D
:10BFC00000200C462F7B28739846164629461846B3
:10BFD00001F0FEFA072E42D2DFE806F004090F1640
:10BFE0001F2A360049462846FEF7A0FF37E049469B
:10BFF00028462268FEF79AFF31E0D4E9002349463B
:10C000002846FEF793FF2AE0A0680090D4E90023B9
:10C0100049462846FEF78AFF21E0D4E90201CDE92E
:10C020000001D4E9002349462846FEF77FFF16E0C9
:10C0300004F1080007C88DE80700D4E90023494649
:10C040002846FEF773FF0AE004F108000FC88DE8E8
:10C050000F00D4E9002349462846FEF767FF002277
:10C060002946404601F096FA2F73BDE8FF872DE977
:10C07000F041058B80462D1F4819C01CB0FBF5F020
:10C08000C6B24046FEF733F9041E19D000202071D5
:10C0900001206071E58000272546761EC4F80080E7
:10C0A0000BE04046FEF723F960B16179491C6171EC
:10C0B000286005467F1CC0F80080B742F1D32046B7
:10C0C000BDE8F081204600F002F80020F8E72DE9F5
:10C0D000F041457901466B1E002201E00968521CBF
:10C0E0009A42FBD30F680146002605E038460C68EB
:10C0F000FEF71FF92146761CAE42F7D3BDE8F0816A
:10C100000121001DFEF7C7B8FEF72BB910B5044694
:10C110000121001DFEF7E5F810F0FF0F04D12046C5
:10C12000BDE81040FFF7D3BF10BD1CB5019201223E
:10C13000009201AAFDF7BBFF1CBD1CB501920022B5
:10C14000009201AAFDF7B3FF1CBD70472DE9F8432B
:10C150000446002790460E468DF800706846FAF7B0
:10C160002FFD204600F039F838B105279DF8000072
:10C17000FAF74AFD3846BDE8F88320680568B8F14B
:10C18000000F05D10168204600F046F821680860DC
:10C19000E268012A0CD0022A0ED0042A11D060686D
:10C1A000082A13D005FB02013046FAF76DF9DDE7E6
:10C1B0006068405D3070D9E7606830F81500308005
:10C1C000D4E7606850F825003060CFE700EBC50188
:10C1D000D1E90001C6E90001C8E7016808684968BB
:10C1E000884201D1012070470020704701680A6829
:10C1F00049688068884201D9491C00E000219142C9
:10C2000001D10120704700207047006880687047A6
:10C2100000680021816070478068884201D9481C0D
:10C220007047002070472DE9F84304464FF000089E
:10C230000E468DF800806846FAF7C2FC2046FFF7EC
:10C24000D5FF07000AD0207C40B14FF004089DF8CC
:10C250000000FAF7D9FC4046BDE8F883206845683D
:10C2600041682046FFF7D8FF2168486037B1206851
:10C2700001682046FFF7D0FF21680860E268012AC4
:10C2800014D0022A16D0042A19D0082A1CD06068BB
:10C29000314605FB0200FAF7F7F8204601F04CFCA6
:10C2A00021688A688242D2D28860D0E7616830789B
:10C2B0004855F2E76168308821F81500EDE76168BC
:10C2C000306841F82500E8E7D6E90001626802EB32
:10C2D000C502C2E90001E0E72DE9F04F8146806820
:10C2E00089B0D0F84801C0F3400038B109B04846E1
:10C2F000BDE8F04F00221146FEF7A2BB012907D985
:10C3000009B04846BDE8F04F1DA20221FEF770BB00
:10C310002049DFF884B0A1EB0B001C21B0FBF1F841
:10C32000002526E0C5EBC5010BEB81042068D4E9AC
:10C33000026A8768204600F03FF86421794364224E
:10C340004243B1FBF6F1B2FBF6F26369247CACB177
:10C3500012A400BFCDE90664CDF800A00597CDE991
:10C360000120CDE90361104A08214846FEF740FB51
:10C370006D1C4545D6D309B0BDE8F08F0BA4E9E7A5
:10C3800042616420617267756D656E7420636F75BC
:10C390006E7400001C0D0300000D03004E6F206F33
:10C3A000766572666C6F7700480103004F766572A0
:10C3B000666C6F770000000038B5044600208DF8E9
:10C3C00000006846FAF7FCFB204601F0B5FB044686
:10C3D0009DF80000FAF718FC204638BD2DE9F04121
:10C3E0001F0015460E46044606D0A068FDF750FF14
:10C3F00010B11120BDE8F081A068D0E90331606878
:10C40000A3EB010C421C944507D10020286017B112
:10C41000A068FDF734FF0020ECE703EA000201EA20
:10C420000007BA4201D3831A01E0181A0B1A2868D0
:10C430005B1C984200D203462B6020681044306099
:10C44000A0682A68C1681144C160E4E72DE9F041A1
:10C450000546806817468846001DFDF719FF10B194
:10C460001120BDE8F081A868816800690C1A38685D
:10C47000A04200D204463C60AA68696810699268CC
:10C4800008400A40824201D9161A01E00E1A761CB1
:10C49000B44208D92968324601444046F9F7F4FF0E
:10C4A000A41B0020B0442968224601444046F9F705
:10C4B000EBFFA8683A68016911440161A868001D92
:10C4C000FDF7DDFE0020CCE72DE9F04105461746DB
:10C4D00088468068FDF7DCFE10B11120BDE8F081D0
:10C4E000A86881680069081A69680C1A3868641CB1
:10C4F000A04200D204463C60A86869688068084091
:10C500000E1A761CB44208D92968324608444146BE
:10C51000F9F7BAFFA41B0020B0442968224608445A
:10C520004146F9F7B1FFA8683A6881681144816013
:10C53000A868FDF7A4FE0020D0E710B582689468D3
:10C540001369E41AA14201D9042010BD19441161F4
:10C55000826851618068001DFDF791FE002010BDCA
:10C560002DE9F0411E0014460F46054607D0A86885
:10C57000001DFDF78DFE10B11120BDE8F081A86807
:10C58000816840690A1A09D06B68184019408142D5
:10C590000DD9266896420AD9226010E0002020605A
:10C5A0001EB1A868001DFDF76AFE0020E5E7814284
:10C5B00005D8191A2268491C8A4200D921602968C5
:10C5C00008443860A8682268416911444161ECE779
:10C5D000826800219160826811618268516182687D
:10C5E000D1608268516080680160704770B5826870
:10C5F000456894681369E31AEB1A5B1C994201D9E8
:10C60000042070BD214491608268D1608068FDF78C
:10C6100039FE08B1002070BD082070BD08B50022A9
:10C6200042504058009008BD20B10349096801609C
:10C63000002070470E2070471CF70200FEB502462E
:10C640000E460846FFF7F0FF002872D10024009440
:10C650008DF8002001208DF8020001940620ADF82D
:10C660000400029469462020326869DF3249334A67
:10C67000304F891AC908012202EB014540B179887F
:10C6800031B100F055FA024628462D49FFF75CFB10
:10C6900000948DF801408DF80240019402948DF8C9
:10C6A000034069464020326869DF40B1798831B182
:10C6B00000F03EFA024628462249FFF745FB009467
:10C6C000019402948DF8004069460120326869DFC8
:10C6D00040B1798831B100F02BFA024628461A4958
:10C6E000FFF732FB4FF4B06000900194029469466A
:10C6F000A120326869DF40B1798831B100F018FAC1
:10C70000024628461149FFF71FFB0094019402944A
:10C710008DF800406946A020326869DF40B1798811
:10C7200031B100F005FA024628460949FFF70CFB33
:10C730000020FEBD18250020B80C0300300C0300BB
:10C74000540903009C090300B40803000009030016
:10C75000600803002DE9F0470546D0F8008060DF4F
:10C760002249234A2B68891ADFF87C90CE080746B5
:10C77000434525D9B9F80200022821D3022000EB55
:10C78000064004461BA1FFF7DBFAB9F802000228B5
:10C7900016D32046424623A12B68FFF7DCFAB9F8EE
:10C7A000020002280CD34FF08050D0F80C01296809
:10C7B000800200F10050421A204627A1FFF7C4FA78
:10C7C000012477B1B9F8020040B1384600F0B0F961
:10C7D000024604EB06402BA1FFF7B6FA3846BDE847
:10C7E000F08730480470F9E718250020B80C0300E2
:10C7F000300C0300496E73756666696369656E7413
:10C800002052414D20616C6C6F63617465642066D9
:10C810006F722074686520536F667444657669632F
:10C82000652E00004368616E67652074686520525C
:10C83000414D207374617274206C6F636174696F11
:10C840006E2066726F6D203078257820746F2030EE
:10C850007825782E000000004D6178696D756D2097
:10C8600052414D2073697A6520666F722061707045
:10C870006C69636174696F6E206973203078257804
:10C880002E00000073645F626C655F656E61626CB0
:10C890006528292072657475726E65642025732E73
:10C8A000000000007F24002030B5144891B00078CB
:10C8B000002820D05FF03405ADF8405010A903A83F
:10C8C00061DF30B1052816D011B0BDE83040FAF76D
:10C8D0000BB903AC0A49684600F0BCF807E000BF9A
:10C8E000D0E9002120469047684600F0CAF8029837
:10C8F0000028E1D0F4E711B030BD00007F24002013
:10C9000020F70200F8B5134C2078C0B10120A070C8
:10C9100001F078FC112814D0022001F08BFC0025D6
:10C920008DF800506846FAF74BF911DF064625707E
:10C930009DF80000FAF768F92EB13046F8BD0820DE
:10C94000F8BD0020F8BDA57001F0BCFC032001F08B
:10C9500071FCF6E77C2400207CB5194C207808B1E6
:10C9600008207CBD0120A070002001F04BFC1128A4
:10C9700019D0002001F05EFC1248002600680190EA
:10C980008DF800606846FAF71BF90F4901A810DF1F
:10C9900005000AD0002020709DF80000FAF734F955
:10C9A0002DB128467CBD00207CBD0120F3E7A67098
:10C9B000667001F0A7FC012001F03CFCF3E70000E9
:10C9C0007C240020B4F60200556A02000EB5074927
:10C9D000684600F03FF805E0D0E900108847684657
:10C9E00000F04FF802980028F6D10EBDD0F60200F4
:10C9F00001480078704700007C24002005488178B9
:10CA000019B1007818B1FFF77DBF08207047FFF714
:10CA1000A3BF00007C2400201FB568464BDF30B167
:10CA2000052814D004B0BDE81040FAF75DB80849F5
:10CA300001A800F00FF806E0D0E900210098904727
:10CA400001A800F01EF803980028E6D0F4E71FBD07
:10CA50003CF70200016009684160AFF3008010B547
:10CA6000D0E900215368994201D1002104E0D1E9C5
:10CA70000034A34202D01946816010BD08314160E4
:10CA8000F0E7816800290BD0026892680A4482604E
:10CA900041684B689A4203D108314160FFF7DFBF1C
:10CAA000704770B50D460646446804E0B2682946F2
:10CAB000904718B1246820680028F7D120682860C2
:10CAC000256070BD406800687047416808680028AC
:10CAD00001D002680A60704702460020526806E0F2
:10CAE0008B4203D108681060012070471A46136812
:10CAF000002BF5D1704700000C4A10B502F5947375
:10CB00000EE0991AC91001EBD171491002EBC10175
:10CB10000C68844201D90B4602E005D201F10802FB
:10CB20009A42EED3002010BD486810BDD8F3020031
:10CB300000B5FFF7E1FF002800D1014800BD00006B
:10CB4000C4F302004058002800D00120704708B507
:10CB5000002242504058009008BDD0F8040308401D
:10CB600000D0012070474058002800D001207047B5
:10CB700008B5002242504058009008BD002802D05D
:10CB80000149800108477047D1F002000121B1EB53
:10CB9000507F01D1012070470020704738B50D4605
:10CBA00000F0DCFE040014D000208DF80000684680
:10CBB000FAF706F8207928B19DF80000FAF724F872
:10CBC000112038BD0120256020719DF80000FAF782
:10CBD0001BF8002038BD10B500F0C0FE002802D0C0
:10CBE00000210160017110BD0149024801F0AEBD94
:10CBF0001C2A0020002000402DE9F0410546007964
:10CC000016460F4600EB40012D4A01EBC00102EB36
:10CC1000810494F82A1011B10820BDE8F081294957
:10CC200051F820102868FFF7B9FF08B11120F4E788
:10CC300039462846FAF702F8666038692060300005
:10CC40004FF001062FD03F7F4FF48E712868FFF719
:10CC50007EFF4FF4A2712868FFF779FF28681A4910
:10CC6000C0F8041328684FEA471140F30730002842
:10CC700004DB00F1E02080F8001405E000F00F0074
:10CC800000F1E02080F8141D286840F307300028E8
:10CC900009DB00F01F0106FA01F14009800000F1F4
:10CCA000E020C0F8001128680421C0F80015002019
:10CCB000A061E06184F8290044F8140FA675ACE780
:10CCC0001C2A0020A8F00200800002002DE9F05F7D
:10CCD000054600794FF4017600EB400303EBC000FA
:10CCE000344B03EB80040020636813B12B68C3F856
:10CCF0000863A3694FF000096BB1E06938B160685F
:10CD000010B12868C0F804631120BDE8F09FE2610B
:10CD10000120216105E0C4F82490A261E160C4F81B
:10CD20001C9094F82910014302D1284601F02FFAF3
:10CD300060680028286803D0C0F804630020E4E796
:10CD40004FF4A2763146FFF702FFB2464FF4927BD2
:10CD500059462868FFF7F6FE06464FF484712868A6
:10CD6000FFF7F0FE804651462868FFF7EBFE0746C6
:10CD700048EA07003043EBD056EA070007D12146C6
:10CD8000286801F0D5F9A169606A8142E0D8C4F849
:10CD900018900EB10320B8E70FB10F20B5E794F853
:10CDA000291001200029296801D00860C6E74860E1
:10CDB000C4E700001C2A002001684FF40172C1F88A
:10CDC0000823006801214160704700002DE9F05FF1
:10CDD000054600790B4600EB400101EBC0002449F9
:10CDE00001EB8004284600F045F810B11120BDE8A1
:10CDF000F09F62614FF00009C4F82090A36084F8AE
:10CE000028904FF48E784E4641462868FFF79FFEE3
:10CE100028684FF0010AC0F808A02146286801F0F0
:10CE2000EDFB606808BBD5F800B067690FE000BF94
:10CE300094F8280008B10F2615E041465846FFF740
:10CE400081FE0028F4D02146584601F0D7FB206A25
:10CE5000B842F2D3574641462868FFF773FE0028D0
:10CE6000F9D02868C760C4F814903046BFE70000C6
:10CE70001C2A0020007900EB400101EBC0000449AE
:10CE800001EB80004069002800D0012070470000BD
:10CE90001C2A00202DE9F047044600794FF00009D4
:10CEA00000EB400101EBC000284901EB800720683E
:10CEB000C0F800957868B0B120682549C0F808131B
:10CEC000206840F3073000280DDB00F01F0201212D
:10CED00091404009800000F1E020C0F88011BFF3CC
:10CEE0004F8FBFF36F8F2068D0F80C25D0F81485D2
:10CEF000D0F80865D0F810554FF0FF31C0F8141580
:10CF0000C0F80C152068C0F80815C0F81015501CA2
:10CF100002D01046FEF79AFBB8F1FF3F02D0404620
:10CF2000FEF794FB681C02D02846FEF78FFB701CAE
:10CF300002D03046FEF78AFB2068FFF74CFE87F8E8
:10CF40002A90C7F80490BDE8F08700001C2A002052
:10CF5000840202000149024801F0A6BC482A0020D0
:10CF6000002000402DE9F0410546164600790F46A5
:10CF7000154A00EBC00102EB810494F8201011B1B6
:10CF80000820BDE8F081114951F820102868FFF70A
:10CF900005FE08B11120F4E739462846F9F792FE5C
:10CFA0006660386920601EB1397F2846FCF73CFA7C
:10CFB00028680821C0F800150020A061E0616061C8
:10CFC000012184F82010DCE7482A0020ACF00200A0
:10CFD0002DE9F05F044600790E4600EBC001DFF852
:10CFE000F0A017460AEB81053046FFF7CFFDB0B140
:10CFF00068684FF000084FF4047910B12168C1F857
:10D000000893A8694FF0000B80B1E86948B16868DF
:10D0100010B12068C0F804931120BDE8F09F1020E3
:10D02000FBE7EF614FF001082E6102E0EE60C5E919
:10D03000067B00254FF488712068FFF799FD4FF4B7
:10D04000A2712068FFF794FD2068C0F83465C0F82D
:10D0500038752068B8F1000F12D0D0F8001241F0F6
:10D060002001C0F800122079D04600EBC0010AEB85
:10D070008100406838B12068C0F804932846CCE7A6
:10D0800001210160EFE74FF4887A4FF4A27951460D
:10D090002068FFF768FD074649462068FFF763FDF3
:10D0A00006464FF492712068FFF75DFD014647EA9E
:10D0B00006000843EBD0227902EBC20308EB83029F
:10D0C000C2F818B001B10325002ED7D00F25D5E73F
:10D0D000482A00200179094A01EBC10102EB8101D4
:10D0E000C96931B10168D1F8002222F02002C1F8EB
:10D0F000002200680121416070470000482A00209A
:10D100002DE9F04704460E460079274900EBC000A0
:10D1100001EB800517463046FFF738FD30B1204659
:10D1200000F044F820B11120BDE8F0871020FBE7A3
:10D130006F61AE604FF490774FF000083946206879
:10D14000FFF716FD4FF4AC7631462068FFF710FD6F
:10D150002068AA686969C0F84425C0F848152068A5
:10D160004FF00109C0F808906868D0B9BA46514636
:10D170002068FFF7F8FC074631462068FFF7F3FC0C
:10D180000743F4D010B14FF00F0808E02068C0F852
:10D190000C9031462068FFF7E6FC0028F9D000200B
:10D1A00068614046C0E70000482A00200079054930
:10D1B00000EBC00001EB80004069002800D0012096
:10D1C00070470000482A00202DE9F0470646007904
:10D1D0003D4900EBC00001EB800534686868012719
:10D1E000A8B13A49C4F80813306840F30730002862
:10D1F0000DDB00F01F0107FA01F14009800000F18A
:10D20000E020C0F88011BFF34F8FBFF36F8FD4F8C9
:10D21000000220F02000C4F80002A8694FF4A278B0
:10D2200020B141462046FFF7A3FC67604FF4AC797C
:10D2300049462046FFF79CFCE760474649462046A2
:10D24000FFF791FC0028F9D0A86928B1394620469B
:10D25000FFF789FC0028F1D04FF0000AC4F800A5C0
:10D260003068D0F80C25D0F81495D0F80885D0F89F
:10D2700010754FF0FF31C0F80C15C0F81415306868
:10D28000C0F80815C0F81015501C02D01046FEF763
:10D29000E6F9B9F1FF3F02D04846FEF7E0F9781C05
:10D2A00002D03846FEF7DBF9B8F1FF3F02D0404626
:10D2B000FEF7D5F92046FFF78EFC85F820A0C5F8CB
:10D2C00004A0BDE8F0870000482A002010034200B7
:10D2D00003490860034801680029FCD0704700003A
:10D2E00004E5014000E401402DE9F84317460C0035
:10D2F00005462BD0DFF870804646D8F80000FAF7D4
:10D3000049FA3844C7B23068FAF744FAA968497E46
:10D31000081AB0FBF7F0C6B22046FAF73BFAA96844
:10D32000381AC7B2487FB0FBF6F206FB1202401C67
:10D33000487782B123460DA207212846FDF758FB06
:10D3400039462846BDE8F843FAF7FEBEA968002032
:10D350004877BDE8F883009405A207212846D8F84D
:10D360000030FDF745FBEBE7C023002025730000EC
:10D370000A2573257300000048B1064A01689142EE
:10D3800005D140680449401802D0012800D003208C
:10D3900070470000DEC0ADDE02FEE10E8A7D022A8B
:10D3A00004D90289CB881A44D21C02814289C988D7
:10D3B000511AC91E418170472DE9F0410D460221E5
:10D3C000904600F58056298000F10804144F1BE0B8
:10D3D00031462046FBF7E0FD40B1B8F1000F02D026
:10D3E000012288F80020022816D004E0A06879699C
:10D3F000884200D97861288861880844C01C288048
:10D40000608804EB80040C3431462046FBF7DAFDDB
:10D410000028DDD1BDE8F0814FF480602880F9E775
:10D420009023002008B50021009101460823024AFC
:10D430000248FDF7E7FF08BDE8F00200C024002025
:10D4400008B50020009004480823044A01680448F5
:10D45000FDF7D8FF08BD0000B8230020E0F002006F
:10D46000C02400202DE9F05F0026DFF81891DFF8D6
:10D4700018B134464FF00308B2463746D9F80C00CD
:10D4800000EB07352846FFF777FF98B301284BD00C
:10D49000032869D12868411C02D03C49884205D143
:10D4A0000120820255F82010491C0ED004EB8401A3
:10D4B0000BEB8102A8F10100556003221FFA80F8EE
:10D4C0000BF82120641CA4B24EE0401C9042E9D32A
:10D4D0002F48016879B104EB840002210BF8201079
:10D4E0000BEB800045600181274828304480641C94
:10D4F000A4B205E007E00221056081804FF0010A37
:10D5000046F0010630E004EB840100220BF82120F4
:10D510000BEB810101F110024D6028460831FFF745
:10D520004BFF46F00206CDE7BAF1000F0FD004EB37
:10D5300084000221164A0BF820100BEB80001268C1
:10D5400042600181104828304480641CA4B2104815
:10D550000022011D05602846FFF72EFF0C48808839
:10D5600002280CD0082006437F1CBFB2032F85D3AE
:10D57000B8F1020F00D20026F0B2BDE8F09F0420FF
:10D58000F1E70000C0240020782B0020DEC0ADDED3
:10D59000B823002010B50C46017A052908D0407A3E
:10D5A00038B1084808A102682046FDF7BFFC00E03A
:10D5B0001AB106A12046FDF7B9FC2046BDE810408F
:10D5C000FDF7C1BC58240020257300000D0A00009F
:10D5D00038B5C3880D46044633B114A0009015A297
:10D5E00016A12846FDF7A2FC217A05291CD0607AF5
:10D5F00048B1A088FEF76EF9164951F8202016A10F
:10D600002846FDF793FCA0880021FEF7B3FC0346F3
:10D610001049207A143951F8202001B02846BDE87D
:10D6200030400EA1FDF782BC38BD00001B5B306DA1
:10D63000000000001B5B313B33316D0025734C6FE4
:10D6400067732064726F70706564202825642925D3
:10D65000730D0A0058240020257300003C25733EFA
:10D660002025733A2000000070B58AB000240646D9
:10D67000089409940594069422A221460794FDF784
:10D68000B7F948F2096534E0039403A905A80494A6
:10D69000FBF7FCF9B0B1A0F5064109390CD003291C
:10D6A00008D0FBF749F803461FA202213046FDF7D8
:10D6B0009FF91EE023A200E029A202213046FDF7D7
:10D6C00097F916E003980399039A4088098892888D
:10D6D00080000092CDE90110039828A20021836800
:10D6E0003046FDF785F905A8FBF77CF908B1F9F795
:10D6F000FBF908A905A8FBF7C2F9A842C4D10AB0F2
:10D7000070BD00007265632E206964090966696C4A
:10D710006520696409097265632E206B6579096C5F
:10D72000656E6774680A00006572726F723A2075E0
:10D730006E65787065637465206572726F722025FE
:10D74000732E0A006572726F723A2043524320634F
:10D750006865636B206661696C6564210A0000007E
:10D760006572726F723A207265636F7264206E6FB9
:10D770007420666F756E64210A00000020307825E1
:10D780003034780909203078253034780909203080
:10D79000782530347809092025347520627974653C
:10D7A000730A0000F0B58BB000240394049407467C
:10D7B0000594089447F2100548F21006099438E0E1
:10D7C000069406A903A80794FBF760F9B0B1A0F589
:10D7D000064109390CD0032908D0FAF7ADFF0346FA
:10D7E00019A202213846FDF703F922E01DA200E04C
:10D7F00023A202213846FDF7FBF81AE00798021D24
:10D80000437D01680BB125A300E025A30093CDE97A
:10D810000112007D08B121A300E021A321A2002173
:10D820003846FDF7E5F803A8FBF7DCF808B1F9F78F
:10D830005BF908AB03AA29463046FBF719F9002823
:10D84000BED00BB0F0BD00006572726F723A2075E9
:10D850006E65787065637465206572726F722025DD
:10D86000732E0A006572726F723A2043524320632E
:10D870006865636B206661696C6564210A0000005D
:10D880006572726F723A207265636F7264206E6F98
:10D890007420666F756E64210A0000006F6E0000D0
:10D8A0006F666600636F6E666967313A0925730AB1
:10D8B000636F6E666967323A0925730A626F6F7427
:10D8C00020636F756E743A0925750A64657669631D
:10D8D00065206E616D653A0925730A007CB51546B1
:10D8E0000E460446FDF7EAF938B102B02046BDE81D
:10D8F000704000221146FDF7A3B8022E05D0204645
:10D90000BDE87C4006A1FAF7ADB905A36968CDE989
:10D910000013204604A20221FDF76AF87CBD000036
:10D920007072696E7400000025733A20756E6B6E1C
:10D930006F776E20706172616D6574657220272546
:10D9400073270A54727920272573202D68272066B3
:10D950006F722068656C702E0A00000003498842CF
:10D9600001D10348704700207047000000200040AC
:10D97000302300200146054810B50068FCF753FC31
:10D9800004461C21F8F7A7FD204610BDD8F0020080
:10D99000014602480068FCF767BC0000D8F00200AE
:10D9A000034802490068FCF749BC0000DC23002062
:10D9B0005CF30200F0B5264D264E85B004460027E4
:10D9C000686828B9224930680831FCF742FC686071
:10D9D00001460078072817D2DFE800F0160408088F
:10D9E0000E0E12002046FBF767FC02E0204601F015
:10D9F00003FA040029D009E02046FAF75DFCF8E7B5
:10DA00002046FBF7ADF9F4E748F20E6414216846AE
:10DA1000F8F761FDA4F5E8501D3800D10024019409
:10DA200069466868FAF700FE6846FAF737FE084963
:10DA30006F60002408313068FCF700FC04480121C5
:10DA40000C30FCF74EFC0028BAD105B0F0BD000048
:10DA500090230020D8F002002DE9F041234C00254E
:10DA6000234E207A012730B92248311D0068FCF787
:10DA7000F0FB306038B1022020723168087928B19B
:10DA800001281ED116E06560BDE8F081D1E90503EB
:10DA9000C01A4FF48052904200D31046B7EB900F5B
:10DAA00001D2820800E001220869C96818441944BB
:10DAB00029DF03E0D1E90301084428DF58B1112828
:10DAC00012D003213068FAF7F9FD25726560BDE8D0
:10DAD000F041FFF765BF207C0028D5D1BDE8F041BB
:10DAE00000210220FDF73CBC2772CDE73C2C002032
:10DAF000D82300205CF3020010B501210448FCF794
:10DB0000D6FB002803D1BDE81040FFF753BF10BD7E
:10DB10009C23002010B5074C201DFCF7B9FB002802
:10DB200006D1607C002803D1BDE81040FFF794BF08
:10DB300010BD00003C2C002001680A684968914231
:10DB400001D3881A70478068801A0844401C7047C7
:10DB500010B510461A46F8F797FC002010BD0000DB
:10DB600070B5064686B0002005900D460B4614465B
:10DB700004900190029000920390014611A2304659
:10DB8000FCF736FFA1B2A8B204AB01AAFAF770FF06
:10DB900030B117A202213046FCF72AFF06B070BD53
:10DBA00001A8FAF743FF28B1FAF7C6FD034617A20A
:10DBB000022102E0019B20A200213046FCF718FF61
:10DBC000ECE7000064656C6574696E6720726563DC
:10DBD0006F72642E2E2E0A66696C653A20307825A5
:10DBE000782C206B65793A20307825780A0000007F
:10DBF0006572726F723A207265636F7264206E6F25
:10DC00007420666F756E64210A0000006572726F81
:10DC1000723A206664735F7265636F72645F6465F5
:10DC20006C65746528292072657475726E65642050
:10DC300025732E0A000000007265636F726420690C
:10DC4000643A20307825780A0000000000B585B0DD
:10DC500000200390049000900190029003A9684670
:10DC6000FAF70DFF18B96846FAF7E0FE10B1002088
:10DC700005B000BD0120FBE72DE9F047074620482D
:10DC80001C46154600780E4670B18DB184B1DFF8A0
:10DC900074804FF00009A08802282DD200EB80018B
:10DCA00018F8210020BB1BE048F20160BDE8F087B6
:10DCB00048F20460FAE720681FB181883A889142EF
:10DCC0000ED11EB101883288914209D18068286046
:10DCD000206868600B482830008928810020E5E72B
:10DCE000A088214600F060F80028E4D1C4F8009034
:10DCF000A088401CA080CEE748F20960D6E700006B
:10DD0000B0230020782B0020F8B505464068244F4A
:10DD10000C46002648B32349CA68824225D80969BF
:10DD2000814222D3FBF7EEFBF8B12889398988427A
:10DD30001BD1D5E900018A68904216D10020A7F1D5
:10DD4000280200BF00EB800302EB83035B688B4279
:10DD500005D203F580538B4201D9208011E0401C8D
:10DD600080B20228EED30020F8BD268000960AE09B
:10DD7000009829688068884205D1009868603889D1
:10DD800028810120F8BD2088694600F00DF80028A0
:10DD9000EED12088401C80B220800228E6D3E2E742
:10DDA000A02B0020C024002070B50E4600EB80019F
:10DDB000134800EB81004468306804F5805518B1C1
:10DDC000418800EB810411E0083410E02946204628
:10DDD000FBF7E2F820B1012805D0022807D10DE0B9
:10DDE0000120346070BD608804EB80040C34294647
:10DDF0002046FBF7E7F80028E8D170BD002070BD91
:10DE0000782B002038B50C460021009101460423F0
:10DE1000084A0948FDF7F6FA10B148F20D6038BD1E
:10DE2000064A04EB840102EB810101200874002002
:10DE300038BD0000DCF00200C0240020782B002058
:10DE400030B589B004460020019002900D46009044
:10DE50000690079006AB6A4647F2100148F21000A0
:10DE6000FAF706FE30B10EA202212046FCF7C0FDF3
:10DE700009B030BD1349886B096C0390CDE904519A
:10DE800003A96846FAF742FE0028F1D0FAF754FCDD
:10DE900003460DA202212046FCF7AAFDE8E7000098
:10DEA0006572726F723A20636F756C64206E6F7466
:10DEB0002066696E6420636F6E6669672066696CB0
:10DEC000652E0A00B0EF02006572726F723A20662A
:10DED00064735F7265636F72645F757064617465AB
:10DEE00028292072657475726E65642025732E0A68
:10DEF0000000000030B587B004460A980092C51CA7
:10DF0000AD08ADF80C10CDE90435ADF80E20CDE923
:10DF100001300B460A4A00212046FCF769FD03A99F
:10DF20000020FAF7FBFD002807D0FAF705FC0346AE
:10DF300004A202212046FCF75BFD07B030BD0000C3
:10DF40008CF802006572726F723A206664735F72B9
:10DF500065636F72645F77726974652829207265E2
:10DF60007475726E65642025732E0A002DE9F047E2
:10DF7000884600EB80011E481D4600EB81001646D6
:10DF80004168DDF8209001F1080401F580571BE09D
:10DF900039462046FBF700F868B1012802D0022874
:10DFA00012D119E03088401C3080288861880844EC
:10DFB000C01C288004E0B8F80000401CA8F800004D
:10DFC000608804EB80040C3439462046FAF7FAFFE7
:10DFD0000028DDD1BDE8F0873088401C30802988DA
:10DFE000381B01EBA0002880012089F80000F1E730
:10DFF000782B00200846704770B50546FAF773FA8B
:10E00000134C40B1D4E904024FF08071411842F141
:10E010000000C4E9041000212846FAF7A7F930B13E
:10E02000606820B1606800F051FA00206060012152
:10E030002846FAF79BF918B1FAF794FFC4E90601EC
:10E04000284600F081FA2846BDE8704000F034B858
:10E050003823002070B5054600200C460870FAF7FA
:10E0600081FFD5E90223101A63EB01030026314634
:10E07000361A994112DAB0F5350F03D3F8F740FD9F
:10E080000B4942184FF4960300210A48FAF737FA71
:10E0900010B10D2806D009E0012070BD002105480F
:10E0A000FAF75AF9284600F011FA2070002070BDE6
:10E0B000FFFFB40040230020F8B51B4C07460026A4
:10E0C0001A48FEF7FFFCD8B1616879B1D0E90210B7
:10E0D0006268D2E90232C91A904121D2606890F890
:10E0E000200018B161681148FEF7DBFC00F036F93A
:10E0F00005466946FFF7AEFF98B1606840B10AE097
:10E10000606800280CD13846BDE8F840FAF7F3B94A
:10E110003846FAF7ECF965609DF800000028CFD189
:10E12000F8BD6660CCE7000038230020B8F002009C
:10E1300070B5054688690C4600284FF4847128465E
:10E140000AD0FEF704FDD5F81805626AE168885424
:10E15000606A401C606270BDFEF7F9FCD5F81805D6
:10E1600070BD1FB501238DF80030CDE90121D0E944
:10E170000012684690471FBD1FB501238DF800307F
:10E18000CDE90121D0E90012684690471FBD10B5C6
:10E19000044600684FF49271FEF7D9FC4FF4847185
:10E1A0002068FEF7D4FC20680121016010BD00004A
:10E1B0007CB50446FF20009001236A4601A9E0686F
:10E1C000FEF70CF9002819D1009A002A16D06069D0
:10E1D0000B4D01990378D2B2EB5C1BB1001DFEF729
:10E1E000F7FE02E00C30FEF771FD002806D1A068B2
:10E1F000224640F266610068F8F7C2FC7CBD000070
:10E20000242300203EB5044609496846FEF722FC57
:10E2100008E000BFD0E900212046904730B16846B1
:10E22000FEF72FFC02980028F4D13EBD11203EBD20
:10E23000B8F602003EB5044608496846FEF70AFCF7
:10E2400007E000BFD0E90021204690476846FEF76E
:10E2500018FC02980028F5D13EBD0000C4F602006B
:10E2600070B50D4C0020D2B22070201D0B4D0378EC
:10E27000EB5C1BB1001DFEF743FF02E00C30FEF724
:10E28000A5FD08B1F8F730FC6078002802D02178AD
:10E290000029FAD070BD0000E023002024230020D4
:10E2A0000022CA604A60054A8A60052803D2044AEF
:10E2B00052F8200000E00020086070472CF50200B2
:10E2C0001824002010B51620F8F7A0FB48B10C4820
:10E2D00082684FF4800152B1016821F4800101602D
:10E2E00010BDBDE8104042F20100F8F7FDBB4FF051
:10E2F000E020C0F88011BFF34F8FBFF36F8F10BDC8
:10E30000C42A002010B51620F8F780FBA0B11148F0
:10E3100090F800044009082811D20121814011F031
:10E32000EC0F0CD00C4882684FF480016AB1016890
:10E3300041F48001016010BD42F2010001E042F2AF
:10E340000200BDE81040F8F7CFBB4FF0E020C0F866
:10E35000001110BD16E000E0C42A00200148FEF7BD
:10E36000B4BB0000B8F0020010B58CB00446FCF756
:10E37000A5FC38B10CB020460022BDE81040114683
:10E38000FCF75EBB142106A8F8F7A5F806A8FAF773
:10E39000E1FB08B1F8F7A8FBBDF82430BDF8260072
:10E3A000BDF81E108200CDE90402CDE90213BDF8CC
:10E3B0001C00064A0144CDE90010BDF818300021C8
:10E3C0002046FCF715FB0CB010BD000014F802004D
:10E3D0002DE9F84F074621489146884605681E46B4
:10E3E000012269461846F8F7D5FCDFF874A060B33F
:10E3F000009800210446801C0AE000BF00EA0502E4
:10E4000059F821C00AEB8202401C491CC2F80CC01A
:10E41000B142F3D34FEA1749F9F794FF611C294041
:10E420000AEB810149EA00422C40CA600AEB8401F0
:10E43000C86867F3C50066F3891068F39F2020F071
:10E440000300401C20F00400C8609AF8000001E0BE
:10E45000FDF738FB0028FBD1BDE8F88F0024002031
:10E46000E82D002009680068F8F747B82DE9F04169
:10E4700015460E460446F9F79FFD78B9A068FA21C3
:10E48000077D90F816802046F9F75EFEFA212046B7
:10E49000F9F70EFD2046F9F78FFD10B10620BDE813
:10E4A000F081A068007D3070A068807D2870307891
:10E4B000C01BC1B22046F9F76DFD2978A1EB080019
:10E4C000C1B22046F9F74CFE0020E8E770B50446DB
:10E4D00014480025007810B30CB394F82000F0B174
:10E4E000FAF740FDD4E90223801A994112D320693A
:10E4F000002608B984F82060D4E90510884720690F
:10E5000068B194F8201051B1D4E90221101871417A
:10E51000C4E9020121460448FEF7C3FA0125284652
:10E5200070BD000038230020B8F002004069054AA1
:10E530000178515C11B1001DFEF7CCBD0C30FEF727
:10E540003BBC000024230020F8B51C4C6946206821
:10E55000FBF77FFE00260127194D2CE0017821B141
:10E5600001290ED002291ED116E0416891F8202021
:10E57000CAB981F82070416810480830FEF791FA56
:10E5800011E041686868814201D16E600BE00B4880
:10E590000830FEF7A1FA06E0FFF7E0FE10B180F8C0
:10E5A0002060F9E72F7069462068FBF747FE69464F
:10E5B0002068FBF74EFE0028D0D1F8BDB0F0020075
:10E5C00038230020F8B50B4C0D46064669462068F6
:10E5D000FBF729FE58B10670456069462068FBF7D5
:10E5E00043FE10B10448F9F76BFF0020F8BD04208A
:10E5F000F8BD0000B0F002004023002070B50C46CA
:10E6000005464FF48E71FEF7A2FA216AA068415CBC
:10E61000206A401C2062C5F81C1570BD1FB5002281
:10E620008DF800200291816801914261D0E90012C9
:10E63000684690471FBD1FB500228DF8002002914B
:10E64000816801914261D0E90012684690471FBD80
:10E650007CB5FF260546009600780C46B8B1012827
:10E6600006D0022812D1297AE068FDF7BFFF0AE040
:10E67000297AE068FDF7BAFF287A20B16068D0E90E
:10E680000021002090472046FFF792FD7CBD297AAB
:10E690002069FDF752FF009601236A4601A920690F
:10E6A000FDF75EFF009820B1C2B260690199FCF7E6
:10E6B00021FC6068D0E90021012090477CBD00006A
:10E6C0001FB50A4601788DF8001041680191017A62
:10E6D0008DF80810C0680390044850F82210001FFD
:10E6E00050F82220684690471FBD00002C230020D0
:10E6F0000149012008707047E023002010B588B060
:10E70000044620220E496846F7F7BEFE0620009018
:10E71000C01F0190029003904FF0EB7006900CB177
:10E72000084A00E0002269460748FCF7AFFB08B141
:10E73000F8F7DAF90448001F447008B010BD000073
:10E740000CF50200F1E60200E42300202DE9FF476A
:10E750000C4605464FF40071FEF7FFF901274FF410
:10E760000178002618B34FF4927949462846FEF7FF
:10E77000E9F9E0B149462846FEF7E9F9C5F808830A
:10E7800094F8290000B96F6002208DF80000D5F8D8
:10E790008004C5F880040390A0690290E0680190AD
:10E7A000A661E661D4E900126846904728E004219A
:10E7B0002846FEF7D2F918B34FF484712846FEF7C5
:10E7C000C1F9E8B121462846FFF7B2FC616AA069A9
:10E7D000884215D1E06938B1E268616AA0612069B8
:10E7E000E6616662E06008E094F8290000B96F60B5
:10E7F000C5F80883A661E268616A2046FFF7B1FCAC
:10E800004FF48E7841462846FEF79CF980B1606946
:10E81000216A814202D294F8280028B34146284652
:10E82000FEF795F9606918B161692046FFF7F6FEB9
:10E830004FF4A27841462846FEF784F9002818D004
:10E8400041462846FEF783F994F8290000B12F606D
:10E85000A06900280DD0A661E268616A04B0204674
:10E86000BDE8F047FFF77DBC21462846FFF7C6FE0E
:10E87000DEE7BDE8FF8700001FB50A4601788DF886
:10E88000001041680191017A8DF80810C06803906A
:10E89000044850F82210001F50F822206846904784
:10E8A0001FBD00002C2300202DE9FF410C464FF432
:10E8B000927705463946FEF756F90026B8B1394633
:10E8C0002846FEF755F902208DF80000D5F880049F
:10E8D000C5F880040390D5F83C050290E0680190EB
:10E8E000A661E661D4E900126846904723E04FF440
:10E8F000887739462846FEF736F9E0B1394628468A
:10E90000FEF736F9D5F83C15A069884213D1E069C5
:10E9100060B1E268D5F8000220F02000C5F80002DE
:10E92000E069A0612069E661E06001E0A661E2685B
:10E930002046FFF721FC4FF4A27739462846FEF720
:10E9400012F968B139462846FEF712F9A06938B1C4
:10E95000A661E661D5F83C152046E268FFF70CFC9D
:10E960004FF4907631462846FEF7FDF860B1314607
:10E970002846FEF7FDF80120E860606920B1D5F86F
:10E980004C152046FFF757FE4FF4AC76314628462B
:10E99000FEF7E9F800280ED031462846FEF7E8F8E1
:10E9A0006069002807D0D5F84C1504B02046BDE8B2
:10E9B000F041FFF740BEBDE8FF81000010B5142113
:10E9C0000448F7F788FD04480068FBF711FC0020B5
:10E9D00010BD00003C2C00205CF302002DE9F05F2C
:10E9E0008346DDE90A4A994690460D4608460127C6
:10E9F00003E000BFB0FBF8F07F1C4045FAD2B945F8
:10EA000000D94F465FEACA7012D18CB15FEA8A70B2
:10EA100002D5B9F1000F01D0202607E0302605E02D
:10EA200031465846641EF8F7FFF90CB1A742F7D3F8
:10EA30005FF00106B9F1010F02D9A9F1010903E064
:10EA4000B5FBF6F0404502D306FB08F6F2E7DFF827
:10EA50003C9000BFB5FBF6F000FB165519F800100E
:10EA60005846F8F7E1F9B6FBF8F6002EF2D15FEA66
:10EA7000CA7009D0002C07D0A74205D220215846E1
:10EA8000641EF8F7D1F9F5E7BDE8F09FECF202005B
:10EA9000FEB515460C460646FCF710F938B103B032
:10EAA0003046BDE8F04000221146FBF7C9BF052CF7
:10EAB00006D003B03046BDE8F04025A1F9F7D2B842
:10EAC00018212548F7F707FD24A16868F7F715FD19
:10EAD000C0B10020204C21A12075A868F7F70DFDDA
:10EAE00090B1002060750A220021E868F7F72BFD3D
:10EAF00020602869F7F7FAFC102807D22869F7F791
:10EB0000F5FC04E00120E5E70120EBE7102082B2EC
:10EB1000201D2969F7F7B8FC0F48627D2168001DA8
:10EB20000AB10EA200E00EA20092CDE90110207DF4
:10EB300008B10AA300E00AA30A4A00213046FBF705
:10EB400057FF03B03046BDE8F0400349FFF778B9FE
:10EB500075706461746500006C2600206F6E0000A3
:10EB60006F666600D0F702001CB5002913D08268DA
:10EB7000127F8A420FD008A3D3E90023CDE90023F6
:10EB800001F12F028DF803208268117700696A462F
:10EB900003A1FCF7CBF91CBD1B5B34006D0000002A
:10EBA000257300001CB5826899B1D27E8A420FD0CD
:10EBB0000CA2D2E90032CDE9003201F12F028DF82A
:10EBC00005208268D17600696A4608A1FCF7AEF993
:10EBD0001CBDD176006902B0054ABDE8104003A112
:10EBE000FCF7A4B91B5B313B33006D0025730000BB
:10EBF0009DF20200002070472DE9F84F114D884624
:10EC000081461E4617466946DDF828A02868FBF7AE
:10EC10000AFB040013D01C21F7F75DFC00202071D3
:10EC2000C4F80090C4E90486C4E902A769462868CC
:10EC3000FBF71AFBFEF76EFF0020BDE8F88F0420FB
:10EC4000FBE700005CF302002DE9F84314460D4693
:10EC50008146FCF733F830B14846BDE8F84300225E
:10EC60001146FBF7EDBE042D05D04846BDE8F8433C
:10EC700017A1F8F7F7BF102200216068F7F763FCCF
:10EC80001FFA80F810220021A068F7F75CFC85B21B
:10EC9000E068F7F72BFC4FF48076FF2803D8E06894
:10ECA000F7F724FC00E03046074631460A48F7F7FC
:10ECB00012FC3A460848E168F7F7E6FB064B2A469D
:10ECC000414648460097FFF715F9BDE8F883000074
:10ECD00077726974650000006C2500202DE9FE4301
:10ECE000064643484FF00009ADF80090007898467A
:10ECF00014460D4668B385B32888A0F57F41FF39D7
:10ED000032D0688850B36868FAF7FCFB38B33CB37C
:10ED10002088ADF80400678802A8FEF72BFE0400E7
:10ED200031D084F8008084F81690BDF80400A082E9
:10ED3000686820612E4801210C38FBF7ACFAE060CE
:10ED4000288820816888A080E780B8F1030F22D04E
:10ED500025E048F20160BDE8FE8302E004E006E041
:10ED600008E048F20460F6E748F20360F3E748F28F
:10ED70000260F0E7288901A987B2384600F0C4F89C
:10ED80000028E8D1C8E7BDF80410384600F0B0F814
:10ED900048F20760DFE70420A0753068A061002218
:10EDA0000621201DF9F768F8ADF800006A46042135
:10EDB00004F10C00F9F760F8ADF80000A8686A46A5
:10EDC00081006868F9F758F8ADF80000608102A882
:10EDD000FEF7DEFD46B1C6F80490E16805483160F3
:10EDE00086F80A9000893081FEF786FE0020B2E79F
:10EDF000B0230020A02B00202DE9F8430D46898A7E
:10EE0000384A01EB810102EB810638B129463046D0
:10EE1000FEF7C4FA4FF40640BDE8F8833189706804
:10EE2000002400EB81072F48A97DA83848F20D681F
:10EE300007294FD2DFE801F00D2E172504414B00C2
:10EE40004460A969016027482749A838FEF75CFF9C
:10EE500030B10220A875042339462A1D009424E00D
:10EE600048F20960D8E728692A4608B1032000E083
:10EE700001209075042305F10C0207F108010094AC
:10EE800013E00120A8750094E88807F10C018300C5
:10EE90002A690AE028782A4603280CD006209075B3
:10EEA000042305F10802391D00941048FCF7AAFA62
:10EEB000B0B1444610E00520F1E70621A9750A49E2
:10EEC00040680988FEF79EFF040005D108E041F67E
:10EED0001D5401E048F20E6429463046FEF75EFA02
:10EEE000204699E7782B002090230020C0240020A2
:10EEF00001EB8102034901EB82014A89101AC01E0D
:10EF000048817047782B002070B5C01C82B240F257
:10EF1000FE30824202D948F2086070BD114B0020D9
:10EF20004FF4806500EB800413F8246096B903EB7E
:10EF300084063489768914443444A4B2AC4209D896
:10EF4000088000EB800003EB80004189114441817F
:10EF5000002070BD401C80B20228E3D348F2066056
:10EF600070BD0000782B0020502200208426002055
:10EF70003F000000C4260020DC2600200F00000017
:10EF8000EC260020000000000020004000000000EF
:10EF90000020004000000000D8F2020004270020FA
:10EFA00068EF020078EF02006CEF020084EF0200CD
:10EFB000D4F8020098EF020030270020100C030064
:10EFC00078220020C80C0300FFFFFFFFFFFFFFFFB8
:10EFD000FFFFFFFFFFFFFFFF000000000000000039
:10EFE0000000D60106010000108010700000000033
:10EFF0000600000000000000FCEF020038F90200EB
:10F0000014F902000000000069D602000CF90200A9
:10F01000E4F8020000000000A5D702000000000094
:10F0200000000000000000000000000064F9020081
:10F030003CF90200F4EF0200DDD802006CF9020096
:10F0400074F902000000000049EC020038FA0200E6
:10F05000F0F902000000000091EA0200A0FA0200AC
:10F0600040FA02000000000061820200D0FA0200B3
:10F07000A8FA0200000000008581020000FB0200E7
:10F08000DCFA020000000000158D02001CFB0200EB
:10F0900004FB02000000000069E302001080107011
:10F0A000D022002006000000E9CB020055CF02006C
:10F0B0005823002001000600000000006C230020FF
:10F0C000CB7D0200000000000000000000000000F6
:10F0D0000338FDD8704700007C2300200000FFFFAC
:10F0E000DEC0ADDEFF011EF1DEC0ADDEFE011EF1B1
:10F0F00000000000F8F0020054FD020030FD0200A4
:10F100000000000095A302000000000000000000C5
:10F1100000000000000000005CFD020064FD020031
:10F12000F0F0020095A3020075B7020057B7020085
:10F130004DB70200000000003CF1020044FE020056
:10F140002CFE02000000000039A7020048FE020069
:10F1500014FE02000000000063A70200000000008F
:10F16000000000000000000000000000000000009F
:10F1700074F1020044FE02004CFE02000000000098
:10F1800025A8020048FE0200A8FE020000000000C0
:10F190004FA8020000000000000000000000000076
:10F1A0000000000000000000ACF1020014FF0200AB
:10F1B000E8FE02000000000019A602001CFF020089
:10F1C000BCFE02000000000049A602000000000092
:10F1D000000000000000000000000000000000002F
:10F1E000E4F1020068FF020048FF020034F102006F
:10F1F000D1A6020060FF020024FF02006CF10200B1
:10F200008DA7020070FF020038FF0200A4F1020087
:10F21000ADA502000000000000000000000000009A
:10F2200000000000000000002CF20200BCFF020001
:10F2300078FF020000000000B5A9020000000000F5
:10F24000000000000000000000000000D4FF0200E9
:10F25000C4FF02000000000025A50200000003001A
:10F26000DCFF0200DCF1020069A5020018000300C7
:10F27000040003000000000079A80200C0000300A1
:10F280002000030024F20200F1A8020000000000A8
:10F290001B37001B38002C20001B5B4A001B5B6DDA
:10F2A00000082008001B5B4B00202D20001B5B4842
:10F2B000001B5B366E001B5B324A00000000000042
:10F2C0000338FDD870471B5B3F336C002D682C2042
:10F2D0002D2D68656C700000397B02008F7B020069
:10F2E000CD7A0200A57B0200857B020030313233EB
:10F2F0003435363738394142434445466E72665F8D
:10F300006673746F726167655F696E6974006E72AF
:10F31000665F6673746F726167655F756E696E694B
:10F3200074006E72665F6673746F726167655F7298
:10F33000656164006E72665F6673746F72616765A3
:10F340005F7772697465006E72665F6673746F7260
:10F350006167655F6572617365000000C42300200A
:10F36000001000000400000001000000859202006F
:10F37000BDE9020051DB0200F9EB0200DD8502006D
:10F38000F5DF0200F5EB0200E5940200000000004A
:10F3900094F3020054FD02001C0103000000000071
:10F3A000D9C20200000000000000000000000000C0
:10F3B000000000004001030064FD02008CF3020025
:10F3C000D9C20200556E6B6E6F776E206572726FD8
:10F3D0007220636F64650000000000003C050300BC
:10F3E00001000000E803030002000000DC0103004C
:10F3F000030000005C04030004000000B0040300EC
:10F400000500000090030300060000002C03030029
:10F41000070000009804030008000000A403030094
:10F4200009000000080403000A000000240503008E
:10F430000B000000C40103000C000000BC0303002B
:10F440000D0000008C0503000E000000880403007E
:10F450000F000000C404030010000000F8040300C3
:10F4600011000000A0050300120000007405030055
:10F470001300000010050300800000004403030097
:10F4800081000000800203008200000040020300AF
:10F490008300000020020300840000005C020300DF
:10F4A000850000006803030086000000700403006C
:10F4B000900000000C030300910000000002030014
:10F4C00092000000D003030000820000D804030073
:10F4D00001820000240403000282000040040300B3
:10F4E000008400009C020300018400004805030022
:10F4F00002840000E402030003840000C002030051
:10F50000BDB8020091B802008FB80200FFFFFFFFF4
:10F51000FFFFFFFFFFFFFFFFFFFFFFFF00000000F7
:10F52000000000000000D6010601000001000000FC
:10F5300085A10200000000005CF50200502D0020B3
:10F540007F000000D02D00206E10273420250020E1
:10F550000000000001000000A1E20200D00603004C
:10F560005C0603002CF5020011950200C80603009A
:10F57000D805030054F5020011950200F8060300B7
:10F58000D8060300000000001D9502000C070300D0
:10F59000E8060300000000002995020054FD020067
:10F5A000FC0603000000000035950200000000008A
:10F5B000000000000000000000000000010000004A
:10F5C0004D6D020000000000CCF502007C07030036
:10F5D0001407030000000000659602008407030082
:10F5E0004807030000000000D5960200000000005C
:10F5F000000000000000000000000000000000000B
:10F6000004F60200C00703008C070300BCF50200EB
:10F61000000000000CF90200C8070300C4F5020056
:10F6200000000000D00603005C0603002CF5020079
:10F6300025990200C8060300D805030054F502000E
:10F6400025990200F8060300D80603000000000018
:10F65000359902000C070300E806030000000000D3
:10F660003F990200E4070300A80703000000000020
:10F670009D95020054FD0200FC06030000000000FE
:10F680004999020000000000000000000000000096
:10F6900000000000F4070300F8070300FCF5020077
:10F6A000419502001C0D0300240D03000000000022
:10F6B0000000000001000007A4F60200B4F60200FA
:10F6C00008000000DCF60200ECF602000800000072
:10F6D000ECF60200FCF60200080000003C0D0300FE
:10F6E000440D030000000000000000002C0D03008A
:10F6F0003C0D0300000000000000000000000000BE
:10F7000000000000000000000000000000000000F9
:10F710000000000000000000000000005022002057
:10F72000FCF602001CF7020008000000240D030094
:10F730002C0D030000000000000000002CF7020068
:10F740003CF70200080000000040404040404040BC
:10F7500040404141414141404040404040404040A4
:10F760004040404040404040400502020202020248
:10F770000202020202020202022020202020202097
:10F7800020202002020202020202909090909090AB
:10F790001010101010101010101010101010101069
:10F7A00010101010020202020202888888888888DD
:10F7B00008080808080808080808080808080808C9
:10F7C00008080808020202024000000049F702008F
:10F7D0007570646174696E6720636F6E66696775C2
:10F7E000726174696F6E3A2025732C2025732C206A
:10F7F000626F6F745F636F756E743D25752C206446
:10F8000065766963655F6E616D653D222573220AC9
:10F8100000000000746F74616C2070616765733A5A
:10F820000925750A746F74616C207265636F726468
:10F83000733A0925750A76616C6964207265636F95
:10F840007264733A0925750A646972747920726565
:10F85000636F7264733A0925750A6C617267657328
:10F860007420636F6E7469673A0925750A6672655C
:10F870006561626C6520776F7264733A0925752043
:10F88000282575206279746573290A007772697476
:10F89000696E67207265636F726420746F20666C96
:10F8A0006173682E2E2E0A66696C653A20307825C1
:10F8B000782C206B65793A20307825782C20222509
:10F8C00073222C206C656E3A202575206279746550
:10F8D000730A0000666473206578616D706C653A28
:10F8E0007E2420007072696E7420636F6E66696793
:10F8F00075726174696F6E0A75736167653A20701D
:10F9000072696E7420636F6E66696700636F6E66FE
:10F91000696700007072696E7420616C6C2072659A
:10F92000636F7264730A75736167653A20707269F8
:10F930006E7420616C6C0000616C6C007072696E9A
:10F9400074207265636F7264730A75736167653AD8
:10F95000207072696E7420616C6C7C636F6E666976
:10F96000670000007072696E74000000777269743D
:10F970006500000077726974652061207265636FAD
:10F9800072640A75736167653A20777269746520DD
:10F9900066696C655F6964206B65792022646174B7
:10F9A00061220A2D2066696C655F69643A0966699F
:10F9B0006C652049442C20696E204845580A2D204A
:10F9C0006B65793A097265636F7264206B65792C97
:10F9D00020696E204845580A2D20646174613A09F7
:10F9E0007265636F726420636F6E74656E7473000A
:10F9F00075706461746520636F6E666967757261A6
:10FA000074696F6E0A75736167653A207570646119
:10FA10007465206F6E7C6F6666206F6E7C6F6666A5
:10FA200020626F6F745F636F756E742064657669B2
:10FA300063655F6E616D650075706461746500007B
:10FA400064656C6574652061207265636F72640A19
:10FA500075736167653A2064656C657465206669D5
:10FA60006C655F6964206B65790A2D2066696C6539
:10FA70005F69643A0966696C652049442C20696EA7
:10FA8000204845580A2D206B65793A097265636FE5
:10FA90007264206B65792C20696E204845580A00F5
:10FAA00064656C657465000064656C6574652061EF
:10FAB0006C6C207265636F7264730A75736167653D
:10FAC0003A2064656C6574655F616C6C00000000D1
:10FAD00064656C6574655F616C6C000072756E20A6
:10FAE0006761726261676520636F6C6C65637469DE
:10FAF0006F6E0A75736167653A20676300000000E6
:10FB0000676300007072696E742073746174697346
:10FB1000746963730A75736167653A2073746174FD
:10FB2000000000004E6F20737061636520696E20D5
:10FB3000666C6173682C2064656C65746520736FF6
:10FB40006D65207265636F72647320746F207570C9
:10FB5000646174652074686520636F6E66696720F0
:10FB600066696C652E0000004644535F4556545F3D
:10FB7000474300004644535F4552525F5553455238
:10FB80005F4C494D49545F5245414348454400004C
:10FB90004644535F4552525F4352435F4348454397
:10FBA0004B5F4641494C4544000000004644535FCA
:10FBB0004552525F4E4F545F494E495449414C495A
:10FBC0005A4544004644535F4552525F4E4F545F7E
:10FBD000464F554E440000004644535F4556545F1F
:10FBE00044454C5F5245434F524400004644535FE6
:10FBF0004552525F5245434F52445F544F4F5F4C02
:10FC000041524745000000004644535F4556545F4B
:10FC100044454C5F46494C45000000004644535F54
:10FC20004556545F55504441544500004644535F87
:10FC30004556545F57524954450000004644535FAF
:10FC40004552525F494E56414C49445F415247002C
:10FC50004644535F4552525F4E554C4C5F415247AC
:10FC6000000000004644535F4552525F4E4F5F53C1
:10FC7000504143455F494E5F464C415348000000A8
:10FC80004644535F4552525F494E5445524E414C93
:10FC9000000000004644535F4552525F554E414CB0
:10FCA00049474E45445F4144445200004644535F37
:10FCB0004552525F4E4F5F4F50454E5F5245434F46
:10FCC000524453004644535F4552525F4E4F5F507B
:10FCD00041474553000000004644535F4552525F80
:10FCE0004E4F5F53504143455F494E5F5155455517
:10FCF000455300004644535F4556545F494E4954AE
:10FD0000000000004644535F4552525F4F50455239
:10FD10004154494F4E5F54494D454F5554000000E2
:10FD20004644535F4552525F42555359000000000C
:10FD30005072696E7420737461747573206F6620DD
:10FD400062616C6C6F6320696E7374616E6365735E
:10FD50002E000000737461747573000062616C6C36
:10FD60006F630000436F6D6D616E647320666F7228
:10FD70002042414C4C4F43206D616E6167656D655B
:10FD80006E74000025730D0A092D20456C656D65A4
:10FD90006E742073697A653A092564202B202564E6
:10FDA000206279746573206F6620646562756720D0
:10FDB000696E666F726D6174696F6E0D0A092D2030
:10FDC00055736167653A0925752525202825752015
:10FDD0006F7574206F6620257520656C656D656E86
:10FDE0007473290D0A092D204D6178696D756D3A7E
:10FDF000092575252520282575206F7574206F66C7
:10FE000020257520656C656D656E7473290D0A0D6E
:10FE10000A000000456E61626C6520636F6C6F7252
:10FE200065642073796E7461782E00004469736193
:10FE3000626C6520636F6C6F7265642073796E7499
:10FE400061782E006F6666006F6E00004469736112
:10FE5000626C6520434C49206563686F2E204172B7
:10FE6000726F777320616E6420627574746F6E7345
:10FE70003A204261636B73706163652C2044656C4A
:10FE80006574652C20456E642C20486F6D652C20B0
:10FE9000496E7365727420617265206E6F7420689C
:10FEA000616E646C65642E00456E61626C65204312
:10FEB0004C49206563686F2E000000004765742080
:10FEC000434C492073746174697374696373206669
:10FED0006F7220746865204C6F67676572206D6F64
:10FEE00064756C652E000000526573657420434C88
:10FEF00049207374617469737469637320666F72E7
:10FF000020746865204C6F67676572206D6F64753B
:10FF10006C652E00726573657400000073686F77FE
:10FF200000000000546F67676C6520434C492065F2
:10FF300063686F2E00000000434C492073746174A5
:10FF40006973746963732E00546F67676C6520630F
:10FF50006F6C6F7265642073796E7461782E000027
:10FF60006563686F00000000636F6C6F7273000060
:10FF70007374617473000000417373756D6520388C
:10FF8000302063686172732073637265656E2077D9
:10FF90006964746820616E642073656E642074689F
:10FFA00069732073657474696E6720746F20746858
:10FFB00065207465726D696E616C2E0064656661A2
:10FFC000756C7400436C6561722073637265656E55
:10FFD0002E000000636C6561720000005573656659
:10FFE000756C2C206E6F7420556E69782D6C696B62
:10FFF0006520434C4920636F6D6D616E64732E0004
:020000040003F7
:10000000636C6900436F6D6D616E64206869737421
:100010006F72792E00000000686973746F72790046
:10002000436F6E736F6C65206765747320746572BF
:100030006D696E616C2073637265656E2073697A99
:1000400065206F7220617373756D65732038302081
:10005000696E2063617365207468652072656164F0
:100060006F7574206661696C732E204974206D75FC
:1000700073742062652065786563757465642061BA
:10008000667465722065616368207465726D696E5F
:10009000616C207769647468206368616E676520AD
:1000A000746F20656E7375726520636F727265631D
:1000B00074207465787420646973706C61792E00A3
:1000C000726573697A6500002020000061646472C3
:1000D0005F69735F77697468696E5F626F756E647C
:1000E0007328705F66732C20706167655F6164645C
:1000F000722C20286C656E202A20705F66732D3E5E
:10010000705F666C6173685F696E666F2D3E6572C5
:100110006173655F756E6974292900005072696E9C
:100120007420737461747573206F662071756575C2
:100130006520696E7374616E6365732E0000000044
:10014000717565756500000025730D0A092D204540
:100150006C656D656E742073697A653A0925640D66
:100160000A092D2055736167653A092575252520F3
:10017000282575206F7574206F6620257520656CA5
:10018000656D656E7473290D0A092D204D617869BE
:100190006D756D3A092575252520282575206F7503
:1001A00074206F6620257520656C656D656E7473AF
:1001B000290D0A092D204D6F64653A090925730D33
:1001C0000A0D0A004E52465F4552524F525F494E49
:1001D00056414C49445F4441544100004E52465FF1
:1001E0004552524F525F534F46544445564943453A
:1001F0005F4E4F545F454E41424C45440000000065
:100200004E52465F4552524F525F464541545552F9
:10021000455F4E4F545F454E41424C4544000000FF
:100220004E52465F4552524F525F4D555445585FAE
:10023000554E4C4F434B5F4641494C4544000000EE
:100240004E52465F4552524F525F4D555445585F8E
:100250004C4F434B5F4641494C4544004E52465F2C
:100260004552524F525F4D555445585F434F4E448F
:100270005F494E49545F4641494C454400000000E7
:100280004E52465F4552524F525F4D555445585F4E
:10029000494E49545F4641494C4544004E52465FE1
:1002A0004552524F525F424C455F495053505F5246
:1002B000585F504B545F5452554E4341544544008F
:1002C0004E52465F4552524F525F424C455F495035
:1002D00053505F504545525F52454A45435445444B
:1002E000000000004E52465F4552524F525F424C52
:1002F000455F495053505F4C494E4B5F444953430F
:100300004F4E4E4543544544000000004E52465F58
:100310004552524F525F4150495F4E4F545F494DD5
:10032000504C454D454E5445440000004E52465FEA
:100330004552524F525F4E4F545F535550504F529B
:10034000544544004E52465F4552524F525F4D4F06
:1003500044554C455F4E4F545F494E495449414CBA
:10036000495A4544000000004E52465F4552524FE4
:10037000525F4D4F44554C455F414C5245414459A5
:100380005F494E495449414C495A454400000000D8
:100390004E52465F4552524F525F4E4F545F464F4A
:1003A000554E44004E52465F4552524F525F494EA1
:1003B00056414C49445F5354415445004E52465FA8
:1003C0004552524F525F444154415F53495A450090
:1003D0004E52465F4552524F525F494F5F50454E15
:1003E00044494E47000000004E52465F4552524F6E
:1003F000525F5356435F48414E444C45525F4D490E
:100400005353494E470000004E52465F4552524FEB
:10041000525F494E56414C49445F4C454E47544803
:10042000000000004E52465F4552524F525F445208
:10043000565F5457495F4552525F414E41434B000E
:100440004E52465F4552524F525F4452565F545788
:10045000495F4552525F444E41434B004E52465F06
:100460004552524F525F494E5445524E414C000046
:100470004E52465F4552524F525F53544F5241477E
:10048000455F46554C4C00004E52465F4552524F18
:10049000525F4E554C4C00004E52465F4552524FF3
:1004A000525F494E56414C49445F504152414D00C4
:1004B0004E52465F4552524F525F4E4F5F4D454D33
:1004C000000000004E52465F4552524F525F464F69
:1004D0005242494444454E004E52465F4552524FA7
:1004E000525F4452565F5457495F4552525F4F56D0
:1004F000455252554E0000004E52465F4552524FF3
:10050000525F494E56414C49445F414444520000B9
:100510004E52465F4552524F525F5245534F5552CD
:10052000434553004E52465F4552524F525F494E2B
:1005300056414C49445F464C414753004E52465F3A
:1005400053554343455353004E52465F4552524F15
:10055000525F424C455F495053505F4348414E4EB5
:10056000454C5F414C52454144595F4558495354AD
:10057000530000004E52465F4552524F525F434F68
:100580004E4E5F434F554E54000000004E52465FA2
:100590004552524F525F54494D454F55540000004B
:1005A0004E52465F4552524F525F425553590000DA
:1005B0006E6F6E65000000007761726E696E670095
:1005C0006465627567000000696E666F0000000078
:1005D0006572726F72000000276C6F6720656E6134
:1005E000626C65203C6C6576656C3E203C6D6F648A
:1005F000756C655F303E202E2E2E20203C6D6F6482
:10060000756C655F6E3E2720656E61626C65732058
:100610006C6F677320757020746F20676976656EE4
:10062000206C6576656C20696E2073706563696601
:10063000696564206D6F64756C65732028616C6CEE
:10064000206966206E6F206D6F64756C6573207312
:100650007065636966696564292E0000276C6F67A1
:100660002064697361626C65203C6D6F64756C65B4
:100670005F303E202E2E203C6D6F64756C655F6E82
:100680003E272064697361626C6573206C6F6773C9
:1006900020696E20737065636966696564206D6F9B
:1006A00064756C65732028616C6C206966206E6FC0
:1006B000206D6F64756C657320737065636966691E
:1006C0006564292E00000000656E61626C650000A3
:1006D00064697361626C6500526573756D65206C49
:1006E0006F6767696E67000048616C74206C6F67A4
:1006F00067696E6700000000676F00004C6F6767F6
:1007000065722073746174757300000068616C74A5
:10071000000000004C6F616420636F6E666967754E
:10072000726174696F6E2073746F72656420696E94
:10073000206E6F6E2D766F6C6174696C65206D65CF
:100740006D6F72792E00000053746F7265206375AF
:100750007272656E7420636F6E666967757261741C
:10076000696F6E20696E206E6F6E2D766F6C61748E
:10077000696C65206D656D6F72792E006C6F6164B8
:100780000000000073746F72650000004C6F6767B3
:100790006572206261636B656E647320636F6D6D5B
:1007A000616E64732E0000004C69737473206C6F6B
:1007B00067676572206261636B656E64732E00000B
:1007C0006261636B656E64004D616E616765206C8C
:1007D0006F6767657220636F6E66696775726174B3
:1007E000696F6E006C6973745F6261636B656E64E0
:1007F000730000006C6F6700436F6D6D616E647312
:1008000020666F7220636F6E74726F6C6C696E67B6
:10081000206C6F67676572001B5B313B33306D0086
:100820001B5B306D000000001B5B313B33316D0002
:100830001B5B313B33326D001B5B313B33336D004F
:100840001B5B313B33346D001B5B313B33356D003B
:100850001B5B313B33366D001B5B313B33376D0027
:1008600073645F626C655F6366675F736574282994
:100870002072657475726E656420257320776865D3
:100880006E20617474656D7074696E6720746F207A
:1008900073657420424C455F47415454535F43464F
:1008A000475F534552564943455F4348414E47458C
:1008B000442E000073645F626C655F6366675F73FC
:1008C000657428292072657475726E6564202573BD
:1008D000207768656E20617474656D7074696E67E9
:1008E00020746F2073657420424C455F434F4D4D1B
:1008F0004F4E5F4346475F56535F555549442E0060
:1009000073645F626C655F6366675F7365742829F3
:100910002072657475726E65642025732077686532
:100920006E20617474656D7074696E6720746F20D9
:1009300073657420424C455F47415454535F4346AE
:10094000475F415454525F5441425F53495A452EC8
:100950000000000073645F626C655F6366675F73CD
:10096000657428292072657475726E65642025731C
:10097000207768656E20617474656D7074696E6748
:1009800020746F2073657420424C455F434F4E4E78
:100990005F4346475F4741502E00000073645F622B
:1009A0006C655F6366675F73657428292072657480
:1009B00075726E6564202573207768656E2061749A
:1009C00074656D7074696E6720746F207365742030
:1009D000424C455F4741505F4346475F524F4C454D
:1009E0005F434F554E542E006170705F74696D65A2
:1009F000722E636C695F756172745F74696D657284
:100A00000000000071756575652E6D5F636C695F30
:100A1000756172745F6C6F675F6261636B656E6452
:100A20005F7175657565000062616C6C6F632E6D3A
:100A30005F636C695F756172745F636D645F686941
:100A400073745F6D656D6F626A0000006D5F636C4B
:100A5000695F756172745F6C6F675F6261636B651C
:100A60006E645F7175657565000000006D5F636C95
:100A7000695F756172745F6C6F675F6261636B65FC
:100A80006E6400006D5F636C695F756172745F63B3
:100A90006D645F686973745F6D656D6F626A000095
:100AA00050525300554152540000000055415254D9
:100AB000450000006170705F74696D657200000030
:100AC00061746669666F2E6D5F7265715F666966D7
:100AD0006F00000061746669666F2E6D5F717565E9
:100AE00075650000636C695F7561727400000000D9
:100AF0006E72665F6673746F7261676500000000F6
:100B000061746669666F2E6D5F6669666F000000CE
:100B10007077725F6D676D7400000000736F7274A0
:100B20006C69737400000000756172745F6C6F67AC
:100B30005F6261636B656E640000000062616C6CF3
:100B40006F632E6C6F675F6D656D706F6F6C00000B
:100B5000617070006C6F675F6D656D706F6F6C00BA
:100B60006E72665F736468006E72665F7364685F5E
:100B7000626C65006E72665F7364685F736F6300BA
:100B8000440D0300502200201C0300009466020064
:100B9000140E03006C2500209C4C0000FC69020030
:100BA000000000002CF00200000000003CF00200F9
:100BB000000000004CF00200000000005CF00200A9
:100BC000000000006CF00200000000007CF0020059
:100BD000000000008CF002000000000018F102008C
:100BE000000000004CF20200000000005CF2020075
:100BF000000000006CF20200000000007CF2020025
:100C000000000000B4F302000000000094F60200AF
:100C100028F10200902200206C0A03009C22002090
:100C200000F5020000000000280B0300F82300205C
:100C3000E809030000000003040A030000000003A9
:100C4000280A030000000003A00A030000000000BF
:100C5000A40A030000000000AC0A0300000000002A
:100C6000B40A030000000000C00A030000000003F3
:100C7000D40A030000000003E40A0300000000009F
:100C8000F00A030000000303000B03000000000350
:100C9000100B0300000000001C0B0300000000000C
:100CA0003C0B030000000003500B03000000030393
:100CB000600B030000000303680B03000000030344
:100CC000740B030000000303AC220020A4220020C8
:100CD000AC2200209C280020DC240020840A030091
:100CE00030000000342400202C2400203424002074
:100CF000902C00200C250020540B0300180000004D
:100D0000902800207C28002004000000040000003F
:100D1000010000004C0A0300D824002029B302007F
:100D20000000000061B3020000000000A9C802003A
:100D30000000000019CA02000000000041B30200D8
:100D400000000000011C13D4248220135028B3207B
:100D50001714B0EF0224C9AD02D30D030217FF141C
:100D6000F4FC021A2C041A1C0414D8FB021A0808FA
:100D70001A680841C664756D6D7922011404FD027C
:100D80001AAC201A94281A3C041A50041AAC042AEB
:100D9000644019041AEC1C2AC404190C1A74081AA9
:100DA00090041A20341A8010011D15100140110200
:100DB00021049AF0FC01180A21F424011012C8023F
:100DC00012030A1125481220BA4008315AFF0414B0
:100DD000B005031AD0041AB8041AC8045AC004296A
:100DE0001429102920291C011CE940142008031A89
:100DF00018041A28041A30041A38041A40041A482D
:100E0000041A50041A5804510B1C90D0590127049D
:040E1000A1E78C02C8
:040000050002620192
:00000001FF
