Component: ARM Compiler 5.06 update 6 (build 750) Tool: armlink [4d35ed]

==============================================================================

Section Cross References

    cli.o(i.cli_init) refers to memmovea.o(.text) for __aeabi_memcpy4
    cli.o(i.cli_init) refers to nrf_cli.o(i.nrf_cli_init) for nrf_cli_init
    cli.o(i.cli_init) refers to app_error.o(i.app_error_handler_bare) for app_error_handler_bare
    cli.o(i.cli_init) refers to cli.o(.constdata) for .constdata
    cli.o(i.cli_process) refers to nrf_cli.o(i.nrf_cli_process) for nrf_cli_process
    cli.o(i.cli_process) refers to cli.o(.constdata) for .constdata
    cli.o(i.cli_start) refers to nrf_cli.o(i.nrf_cli_start) for nrf_cli_start
    cli.o(i.cli_start) refers to app_error.o(i.app_error_handler_bare) for app_error_handler_bare
    cli.o(i.cli_start) refers to cli.o(.constdata) for .constdata
    cli.o(i.cli_wrong_param_count_help) refers to nrf_cli.o(i.nrf_cli_fprintf) for nrf_cli_fprintf
    cli.o(i.delete_all_cmd) refers to cli.o(i.nrf_cli_help_requested) for nrf_cli_help_requested
    cli.o(i.delete_all_cmd) refers to nrf_cli.o(i.nrf_cli_help_print) for nrf_cli_help_print
    cli.o(i.delete_all_cmd) refers to cli.o(i.cli_wrong_param_count_help) for cli_wrong_param_count_help
    cli.o(i.delete_all_cmd) refers to main.o(i.delete_all_begin) for delete_all_begin
    cli.o(i.delete_cmd) refers to cli.o(i.nrf_cli_help_requested) for nrf_cli_help_requested
    cli.o(i.delete_cmd) refers to nrf_cli.o(i.nrf_cli_help_print) for nrf_cli_help_print
    cli.o(i.delete_cmd) refers to cli.o(i.cli_wrong_param_count_help) for cli_wrong_param_count_help
    cli.o(i.delete_cmd) refers to strtol.o(.text) for strtol
==============================================================================

Removing Unused input sections from the image.

    Removing cli.o(.rev16_text), (4 bytes).
    Removing cli.o(.revsh_text), (4 bytes).
    Removing cli.o(.rrx_text), (6 bytes).
    Removing main.o(.rev16_text), (4 bytes).
    Removing main.o(.revsh_text), (4 bytes).
    Removing main.o(.rrx_text), (6 bytes).
    Removing boards.o(.rev16_text), (4 bytes).
    Removing boards.o(.revsh_text), (4 bytes).
    Removing boards.o(.rrx_text), (6 bytes).
    Removing boards.o(i.bsp_board_button_idx_to_pin), (12 bytes).
    Removing boards.o(i.bsp_board_button_state_get), (32 bytes).
    Removing boards.o(i.bsp_board_init), (84 bytes).
    Removing boards.o(i.bsp_board_led_idx_to_pin), (12 bytes).
    Removing boards.o(i.bsp_board_led_invert), (36 bytes).
    Removing boards.o(i.bsp_board_led_off), (16 bytes).
    Removing boards.o(i.bsp_board_led_on), (16 bytes).
    Removing boards.o(i.bsp_board_led_state_get), (32 bytes).
    Removing boards.o(i.bsp_board_leds_off), (18 bytes).
==============================================================================

Image Symbol Table

    Local Symbols

    Symbol Name                              Value     Ov Type        Size  Object(Section)

    ../clib/../cmprslib/zerorunl2.c          0x00000000   Number         0  __dczerorl2.o ABSOLUTE
    ../clib/microlib/ctype/ctype.c           0x00000000   Number         0  isprint_o.o ABSOLUTE
    ../clib/microlib/ctype/ctype.c           0x00000000   Number         0  isblank_o.o ABSOLUTE
    ../clib/microlib/ctype/ctype.c           0x00000000   Number         0  isalnum_o.o ABSOLUTE
    ../clib/microlib/ctype/ctype.c           0x00000000   Number         0  isspace_o.o ABSOLUTE
    ../clib/microlib/ctype/ctype.c           0x00000000   Number         0  isalpha_o.o ABSOLUTE
    ../clib/microlib/ctype/ctype.c           0x00000000   Number         0  isxdigit_o.o ABSOLUTE
    ../clib/microlib/ctype/ctype.c           0x00000000   Number         0  iscntrl_o.o ABSOLUTE
    ../clib/microlib/ctype/ctype.c           0x00000000   Number         0  isdigit_o.o ABSOLUTE
    ../clib/microlib/ctype/ctype.c           0x00000000   Number         0  isgraph_o.o ABSOLUTE
    ../clib/microlib/ctype/ctype.c           0x00000000   Number         0  islower_o.o ABSOLUTE
    ../clib/microlib/ctype/ctype.c           0x00000000   Number         0  ispunct_o.o ABSOLUTE
    ../clib/microlib/ctype/ctype.c           0x00000000   Number         0  isupper_o.o ABSOLUTE
    ../clib/microlib/ctype/ctype.c           0x00000000   Number         0  ctype_o.o ABSOLUTE
    ../clib/microlib/ctype/tolower.c         0x00000000   Number         0  tolower.o ABSOLUTE
    ../clib/microlib/errno.c                 0x00000000   Number         0  errno.o ABSOLUTE
    ../clib/microlib/init/entry.s            0x00000000   Number         0  entry7a.o ABSOLUTE
    ../clib/microlib/init/entry.s            0x00000000   Number         0  entry11b.o ABSOLUTE
    ../clib/microlib/init/entry.s            0x00000000   Number         0  entry11a.o ABSOLUTE
    ../clib/microlib/init/entry.s            0x00000000   Number         0  entry10b.o ABSOLUTE
    ../clib/microlib/init/entry.s            0x00000000   Number         0  entry10a.o ABSOLUTE
    ../clib/microlib/init/entry.s            0x00000000   Number         0  entry9b.o ABSOLUTE
    ../clib/microlib/init/entry.s            0x00000000   Number         0  entry9a.o ABSOLUTE
    ../clib/microlib/init/entry.s            0x00000000   Number         0  entry8b.o ABSOLUTE
    ../clib/microlib/init/entry.s            0x00000000   Number         0  entry8a.o ABSOLUTE
    ../clib/microlib/init/entry.s            0x00000000   Number         0  entry7b.o ABSOLUTE
    ../clib/microlib/init/entry.s            0x00000000   Number         0  entry5.o ABSOLUTE
    ../clib/microlib/init/entry.s            0x00000000   Number         0  entry2.o ABSOLUTE
    ../clib/microlib/init/entry.s            0x00000000   Number         0  entry.o ABSOLUTE
    ../clib/microlib/stdlib/qsort.c          0x00000000   Number         0  qsort.o ABSOLUTE
    ../clib/microlib/string/memcpy.c         0x00000000   Number         0  memmoveb.o ABSOLUTE
    ../clib/microlib/string/memcpy.c         0x00000000   Number         0  memcpyb.o ABSOLUTE
    ../clib/microlib/string/memcpy.c         0x00000000   Number         0  memcpya.o ABSOLUTE
    ../clib/microlib/string/memcpy.c         0x00000000   Number         0  memmovea.o ABSOLUTE
    ../clib/microlib/string/memset.c         0x00000000   Number         0  memseta.o ABSOLUTE
    ../clib/microlib/string/strchr.c         0x00000000   Number         0  strchr.o ABSOLUTE
    ../clib/microlib/string/strcmp.c         0x00000000   Number         0  strcmp.o ABSOLUTE
    ../clib/microlib/string/strcpy.c         0x00000000   Number         0  strcpy.o ABSOLUTE
    ../clib/microlib/string/strlen.c         0x00000000   Number         0  strlen.o ABSOLUTE
    ../clib/microlib/string/strncmp.c        0x00000000   Number         0  strncmp.o ABSOLUTE
    ../clib/scanf.c                          0x00000000   Number         0  _chval.o ABSOLUTE
    ../clib/scanf.c                          0x00000000   Number         0  _strtoul.o ABSOLUTE
    ../clib/scanf.c                          0x00000000   Number         0  strtol.o ABSOLUTE
    ..\..\..\..\..\..\components\boards\boards.c 0x00000000   Number         0  boards.o ABSOLUTE
    ..\..\..\..\..\..\components\libraries\atomic\nrf_atomic.c 0x00000000   Number         0  nrf_atomic.o ABSOLUTE
    ..\..\..\..\..\..\components\libraries\atomic_fifo\nrf_atfifo.c 0x00000000   Number         0  nrf_atfifo.o ABSOLUTE
    ..\..\..\..\..\..\components\libraries\balloc\nrf_balloc.c 0x00000000   Number         0  nrf_balloc.o ABSOLUTE
    ..\..\..\..\..\..\components\libraries\cli\nrf_cli.c 0x00000000   Number         0  nrf_cli.o ABSOLUTE
    ..\..\..\..\..\..\components\libraries\cli\uart\nrf_cli_uart.c 0x00000000   Number         0  nrf_cli_uart.o ABSOLUTE
    ..\..\..\..\..\..\components\libraries\crc16\crc16.c 0x00000000   Number         0  crc16.o ABSOLUTE
    ..\..\..\..\..\..\components\libraries\experimental_section_vars\nrf_section_iter.c 0x00000000   Number         0  nrf_section_iter.o ABSOLUTE
    ..\..\..\..\..\..\components\libraries\fds\fds.c 0x00000000   Number         0  fds.o ABSOLUTE
    ..\..\..\..\..\..\components\libraries\fstorage\nrf_fstorage.c 0x00000000   Number         0  nrf_fstorage.o ABSOLUTE
    ..\..\..\..\..\..\components\libraries\fstorage\nrf_fstorage_sd.c 0x00000000   Number         0  nrf_fstorage_sd.o ABSOLUTE
    ..\..\..\..\..\..\components\libraries\log\src\nrf_log_backend_serial.c 0x00000000   Number         0  nrf_log_backend_serial.o ABSOLUTE
    ..\..\..\..\..\..\components\libraries\log\src\nrf_log_backend_uart.c 0x00000000   Number         0  nrf_log_backend_uart.o ABSOLUTE
    ..\..\..\..\..\..\components\libraries\log\src\nrf_log_default_backends.c 0x00000000   Number         0  nrf_log_default_backends.o ABSOLUTE
    ..\..\..\..\..\..\components\libraries\log\src\nrf_log_frontend.c 0x00000000   Number         0  nrf_log_frontend.o ABSOLUTE
    ..\..\..\..\..\..\components\libraries\log\src\nrf_log_str_formatter.c 0x00000000   Number         0  nrf_log_str_formatter.o ABSOLUTE
    ..\..\..\..\..\..\components\libraries\memobj\nrf_memobj.c 0x00000000   Number         0  nrf_memobj.o ABSOLUTE
    ..\..\..\..\..\..\components\libraries\pwr_mgmt\nrf_pwr_mgmt.c 0x00000000   Number         0  nrf_pwr_mgmt.o ABSOLUTE
    ..\..\..\..\..\..\components\libraries\queue\nrf_queue.c 0x00000000   Number         0  nrf_queue.o ABSOLUTE
    ..\..\..\..\..\..\components\libraries\ringbuf\nrf_ringbuf.c 0x00000000   Number         0  nrf_ringbuf.o ABSOLUTE
    ..\..\..\..\..\..\components\libraries\scheduler\app_scheduler.c 0x00000000   Number         0  app_scheduler.o ABSOLUTE
    ..\..\..\..\..\..\components\libraries\sortlist\nrf_sortlist.c 0x00000000   Number         0  nrf_sortlist.o ABSOLUTE
    ..\..\..\..\..\..\components\libraries\strerror\nrf_strerror.c 0x00000000   Number         0  nrf_strerror.o ABSOLUTE
    ..\..\..\..\..\..\components\libraries\timer\app_timer2.c 0x00000000   Number         0  app_timer2.o ABSOLUTE
    ..\..\..\..\..\..\components\libraries\timer\drv_rtc.c 0x00000000   Number         0  drv_rtc.o ABSOLUTE
    ..\..\..\..\..\..\components\libraries\util\app_error.c 0x00000000   Number         0  app_error.o ABSOLUTE
    ..\..\..\..\..\..\components\libraries\util\app_error_handler_keil.c 0x00000000   Number         0  app_error_handler_keil.o ABSOLUTE
    ..\..\..\..\..\..\components\libraries\util\app_error_weak.c 0x00000000   Number         0  app_error_weak.o ABSOLUTE
    ..\..\..\..\..\..\components\libraries\util\app_util_platform.c 0x00000000   Number         0  app_util_platform.o ABSOLUTE
    ..\..\..\..\..\..\components\libraries\util\nrf_assert.c 0x00000000   Number         0  nrf_assert.o ABSOLUTE
    ..\..\..\..\..\..\components\softdevice\common\nrf_sdh.c 0x00000000   Number         0  nrf_sdh.o ABSOLUTE
    ..\..\..\..\..\..\components\softdevice\common\nrf_sdh_ble.c 0x00000000   Number         0  nrf_sdh_ble.o ABSOLUTE
    ..\..\..\..\..\..\components\softdevice\common\nrf_sdh_soc.c 0x00000000   Number         0  nrf_sdh_soc.o ABSOLUTE
    ..\..\..\..\..\..\external\fnmatch\fnmatch.c 0x00000000   Number         0  fnmatch.o ABSOLUTE
    ..\..\..\..\..\..\external\fprintf\nrf_fprintf.c 0x00000000   Number         0  nrf_fprintf.o ABSOLUTE
    ..\..\..\..\..\..\external\fprintf\nrf_fprintf_format.c 0x00000000   Number         0  nrf_fprintf_format.o ABSOLUTE
    ..\..\..\..\..\..\integration\nrfx\legacy\nrf_drv_uart.c 0x00000000   Number         0  nrf_drv_uart.o ABSOLUTE
    ..\..\..\..\..\..\modules\nrfx\drivers\src\nrfx_uart.c 0x00000000   Number         0  nrfx_uart.o ABSOLUTE
    ..\..\..\..\..\..\modules\nrfx\drivers\src\nrfx_uarte.c 0x00000000   Number         0  nrfx_uarte.o ABSOLUTE
    ..\..\..\..\..\..\modules\nrfx\drivers\src\prs\nrfx_prs.c 0x00000000   Number         0  nrfx_prs.o ABSOLUTE
    ..\..\..\..\..\..\modules\nrfx\soc\nrfx_atomic.c 0x00000000   Number         0  nrfx_atomic.o ABSOLUTE
    ..\..\..\cli.c                           0x00000000   Number         0  cli.o ABSOLUTE
    ..\..\..\main.c                          0x00000000   Number         0  main.o ABSOLUTE
    ..\\..\\..\\..\\..\\..\\components\\boards\\boards.c 0x00000000   Number         0  boards.o ABSOLUTE
    ..\\..\\..\\..\\..\\..\\components\\libraries\\atomic\\nrf_atomic.c 0x00000000   Number         0  nrf_atomic.o ABSOLUTE
    ..\\..\\..\\..\\..\\..\\components\\libraries\\atomic_fifo\\nrf_atfifo.c 0x00000000   Number         0  nrf_atfifo.o ABSOLUTE
    ..\\..\\..\\..\\..\\..\\components\\libraries\\balloc\\nrf_balloc.c 0x00000000   Number         0  nrf_balloc.o ABSOLUTE
    ..\\..\\..\\..\\..\\..\\components\\libraries\\cli\\nrf_cli.c 0x00000000   Number         0  nrf_cli.o ABSOLUTE
    ..\\..\\..\\..\\..\\..\\components\\libraries\\cli\\uart\\nrf_cli_uart.c 0x00000000   Number         0  nrf_cli_uart.o ABSOLUTE
    ..\\..\\..\\..\\..\\..\\components\\libraries\\crc16\\crc16.c 0x00000000   Number         0  crc16.o ABSOLUTE
    ..\\..\\..\\..\\..\\..\\components\\libraries\\experimental_section_vars\\nrf_section_iter.c 0x00000000   Number         0  nrf_section_iter.o ABSOLUTE
    ..\\..\\..\\..\\..\\..\\components\\libraries\\fds\\fds.c 0x00000000   Number         0  fds.o ABSOLUTE
    ..\\..\\..\\..\\..\\..\\components\\libraries\\fstorage\\nrf_fstorage.c 0x00000000   Number         0  nrf_fstorage.o ABSOLUTE
    ..\\..\\..\\..\\..\\..\\components\\libraries\\fstorage\\nrf_fstorage_sd.c 0x00000000   Number         0  nrf_fstorage_sd.o ABSOLUTE
    ..\\..\\..\\..\\..\\..\\components\\libraries\\log\\src\\nrf_log_backend_serial.c 0x00000000   Number         0  nrf_log_backend_serial.o ABSOLUTE
    ..\\..\\..\\..\\..\\..\\components\\libraries\\log\\src\\nrf_log_backend_uart.c 0x00000000   Number         0  nrf_log_backend_uart.o ABSOLUTE
    ..\\..\\..\\..\\..\\..\\components\\libraries\\log\\src\\nrf_log_default_backends.c 0x00000000   Number         0  nrf_log_default_backends.o ABSOLUTE
    ..\\..\\..\\..\\..\\..\\components\\libraries\\log\\src\\nrf_log_frontend.c 0x00000000   Number         0  nrf_log_frontend.o ABSOLUTE
    ..\\..\\..\\..\\..\\..\\components\\libraries\\log\\src\\nrf_log_str_formatter.c 0x00000000   Number         0  nrf_log_str_formatter.o ABSOLUTE
    ..\\..\\..\\..\\..\\..\\components\\libraries\\memobj\\nrf_memobj.c 0x00000000   Number         0  nrf_memobj.o ABSOLUTE
    ..\\..\\..\\..\\..\\..\\components\\libraries\\pwr_mgmt\\nrf_pwr_mgmt.c 0x00000000   Number         0  nrf_pwr_mgmt.o ABSOLUTE
    ..\\..\\..\\..\\..\\..\\components\\libraries\\queue\\nrf_queue.c 0x00000000   Number         0  nrf_queue.o ABSOLUTE
    ..\\..\\..\\..\\..\\..\\components\\libraries\\ringbuf\\nrf_ringbuf.c 0x00000000   Number         0  nrf_ringbuf.o ABSOLUTE
    ..\\..\\..\\..\\..\\..\\components\\libraries\\scheduler\\app_scheduler.c 0x00000000   Number         0  app_scheduler.o ABSOLUTE
    ..\\..\\..\\..\\..\\..\\components\\libraries\\sortlist\\nrf_sortlist.c 0x00000000   Number         0  nrf_sortlist.o ABSOLUTE
    ..\\..\\..\\..\\..\\..\\components\\libraries\\strerror\\nrf_strerror.c 0x00000000   Number         0  nrf_strerror.o ABSOLUTE
    ..\\..\\..\\..\\..\\..\\components\\libraries\\timer\\app_timer2.c 0x00000000   Number         0  app_timer2.o ABSOLUTE
    ..\\..\\..\\..\\..\\..\\components\\libraries\\timer\\drv_rtc.c 0x00000000   Number         0  drv_rtc.o ABSOLUTE
    ..\\..\\..\\..\\..\\..\\components\\libraries\\util\\app_error.c 0x00000000   Number         0  app_error.o ABSOLUTE
    ..\\..\\..\\..\\..\\..\\components\\libraries\\util\\app_error_handler_keil.c 0x00000000   Number         0  app_error_handler_keil.o ABSOLUTE
    ..\\..\\..\\..\\..\\..\\components\\libraries\\util\\app_error_weak.c 0x00000000   Number         0  app_error_weak.o ABSOLUTE
    ..\\..\\..\\..\\..\\..\\components\\libraries\\util\\app_util_platform.c 0x00000000   Number         0  app_util_platform.o ABSOLUTE
    ..\\..\\..\\..\\..\\..\\components\\libraries\\util\\nrf_assert.c 0x00000000   Number         0  nrf_assert.o ABSOLUTE
    ..\\..\\..\\..\\..\\..\\components\\softdevice\\common\\nrf_sdh.c 0x00000000   Number         0  nrf_sdh.o ABSOLUTE
    ..\\..\\..\\..\\..\\..\\components\\softdevice\\common\\nrf_sdh_ble.c 0x00000000   Number         0  nrf_sdh_ble.o ABSOLUTE
    ..\\..\\..\\..\\..\\..\\components\\softdevice\\common\\nrf_sdh_soc.c 0x00000000   Number         0  nrf_sdh_soc.o ABSOLUTE
    ..\\..\\..\\..\\..\\..\\external\\fprintf\\nrf_fprintf.c 0x00000000   Number         0  nrf_fprintf.o ABSOLUTE
    ..\\..\\..\\..\\..\\..\\external\\fprintf\\nrf_fprintf_format.c 0x00000000   Number         0  nrf_fprintf_format.o ABSOLUTE
    ..\\..\\..\\..\\..\\..\\integration\\nrfx\\legacy\\nrf_drv_uart.c 0x00000000   Number         0  nrf_drv_uart.o ABSOLUTE
    ..\\..\\..\\..\\..\\..\\modules\\nrfx\\drivers\\src\\nrfx_uart.c 0x00000000   Number         0  nrfx_uart.o ABSOLUTE
    ..\\..\\..\\..\\..\\..\\modules\\nrfx\\drivers\\src\\nrfx_uarte.c 0x00000000   Number         0  nrfx_uarte.o ABSOLUTE
    ..\\..\\..\\..\\..\\..\\modules\\nrfx\\drivers\\src\\prs\\nrfx_prs.c 0x00000000   Number         0  nrfx_prs.o ABSOLUTE
    ..\\..\\..\\..\\..\\..\\modules\\nrfx\\soc\\nrfx_atomic.c 0x00000000   Number         0  nrfx_atomic.o ABSOLUTE
    ..\\..\\..\\cli.c                        0x00000000   Number         0  cli.o ABSOLUTE
    ..\\..\\..\\main.c                       0x00000000   Number         0  main.o ABSOLUTE
    RTE\Device\nRF52832_xxAA\arm_startup_nrf52.s 0x00000000   Number         0  arm_startup_nrf52.o ABSOLUTE
    RTE\Device\nRF52832_xxAA\system_nrf52.c  0x00000000   Number         0  system_nrf52.o ABSOLUTE
    RTE\\Device\\nRF52832_xxAA\\system_nrf52.c 0x00000000   Number         0  system_nrf52.o ABSOLUTE
    dc.s                                     0x00000000   Number         0  dc.o ABSOLUTE
    handlers.s                               0x00000000   Number         0  handlers.o ABSOLUTE
    init.s                                   0x00000000   Number         0  init.o ABSOLUTE
    RESET                                    0x00026000   Section      512  arm_startup_nrf52.o(RESET)
    .ARM.Collect$$$$00000000                 0x00026200   Section        0  entry.o(.ARM.Collect$$$$00000000)
    .ARM.Collect$$$$00000001                 0x00026200   Section        4  entry2.o(.ARM.Collect$$$$00000001)
    .ARM.Collect$$$$00000004                 0x00026204   Section        4  entry5.o(.ARM.Collect$$$$00000004)
    .ARM.Collect$$$$00000008                 0x00026208   Section        0  entry7b.o(.ARM.Collect$$$$00000008)
    .ARM.Collect$$$$0000000A                 0x00026208   Section        0  entry8b.o(.ARM.Collect$$$$0000000A)
    .ARM.Collect$$$$0000000B                 0x00026208   Section        8  entry9a.o(.ARM.Collect$$$$0000000B)
    .ARM.Collect$$$$0000000D                 0x00026210   Section        0  entry10a.o(.ARM.Collect$$$$0000000D)
    .ARM.Collect$$$$0000000F                 0x00026210   Section        0  entry11a.o(.ARM.Collect$$$$0000000F)
    .ARM.Collect$$$$00002712                 0x00026210   Section        4  entry2.o(.ARM.Collect$$$$00002712)
    __lit__00000000                          0x00026210   Data           4  entry2.o(.ARM.Collect$$$$00002712)
    .emb_text                                0x00026214   Section      200  nrf_atfifo.o(.emb_text)
    $v0                                      0x00026214   Number         0  nrf_atfifo.o(.emb_text)
    .emb_text                                0x000262dc   Section      226  nrf_atomic.o(.emb_text)
    $v0                                      0x000262dc   Number         0  nrf_atomic.o(.emb_text)
    .text                                    0x000263c0   Section       36  arm_startup_nrf52.o(.text)
    $v0                                      0x000263c0   Number         0  arm_startup_nrf52.o(.text)
    .text                                    0x000263e4   Section        0  ctype_o.o(.text)
    .text                                    0x000263ec   Section        0  qsort.o(.text)
    .text                                    0x00026488   Section        0  memmovea.o(.text)
    .text                                    0x000264c8   Section        0  memseta.o(.text)
    .text                                    0x000264ec   Section        0  strlen.o(.text)
    .text                                    0x000264fa   Section        0  strcmp.o(.text)
    .text                                    0x00026516   Section        0  strcpy.o(.text)
    .text                                    0x00026528   Section        0  strncmp.o(.text)
    .text                                    0x00026546   Section        0  strtol.o(.text)
    .text                                    0x000265b6   Section        0  _strtoul.o(.text)
    .text                                    0x00026654   Section       36  init.o(.text)
    .text                                    0x00026678   Section        0  _chval.o(.text)
    .text                                    0x00026694   Section        0  __dczerorl2.o(.text)
    i.RTC1_IRQHandler                        0x000266ec   Section        0  drv_rtc.o(i.RTC1_IRQHandler)
    i.SWI2_EGU2_IRQHandler                   0x000266fc   Section        0  nrf_sdh.o(i.SWI2_EGU2_IRQHandler)
    i.SystemInit                             0x00026700   Section        0  system_nrf52.o(i.SystemInit)
    i.UARTE0_UART0_IRQHandler                0x000269d8   Section        0  nrfx_prs.o(i.UARTE0_UART0_IRQHandler)
    i.__aeabi_errno_addr                     0x000269e4   Section        0  errno.o(i.__aeabi_errno_addr)
    i.__scatterload_copy                     0x000269ec   Section       14  handlers.o(i.__scatterload_copy)
    i.__scatterload_null                     0x000269fa   Section        2  handlers.o(i.__scatterload_null)
    i.__scatterload_zeroinit                 0x000269fc   Section       14  handlers.o(i.__scatterload_zeroinit)
    i.__sd_nvic_app_accessible_irq           0x00026a0c   Section        0  nrf_sdh.o(i.__sd_nvic_app_accessible_irq)
    __sd_nvic_app_accessible_irq             0x00026a0d   Thumb Code    32  nrf_sdh.o(i.__sd_nvic_app_accessible_irq)
    i.addr_is_aligned32                      0x00026a30   Section        0  nrf_fstorage.o(i.addr_is_aligned32)
    addr_is_aligned32                        0x00026a31   Thumb Code    12  nrf_fstorage.o(i.addr_is_aligned32)
    i.addr_is_within_bounds                  0x00026a3c   Section        0  nrf_fstorage.o(i.addr_is_within_bounds)
    addr_is_within_bounds                    0x00026a3d   Thumb Code    24  nrf_fstorage.o(i.addr_is_within_bounds)
    i.app_error_fault_handler                0x00026a54   Section        0  app_error_weak.o(i.app_error_fault_handler)
    i.app_error_handler_bare                 0x00026ae8   Section        0  app_error.o(i.app_error_handler_bare)
    i.app_timer_cnt_get                      0x00026b00   Section        0  app_timer2.o(i.app_timer_cnt_get)
    i.app_timer_create                       0x00026b0c   Section        0  app_timer2.o(i.app_timer_create)
    i.app_timer_init                         0x00026b24   Section        0  app_timer2.o(i.app_timer_init)
    i.app_timer_start                        0x00026b80   Section        0  app_timer2.o(i.app_timer_start)
    i.app_timer_stop                         0x00026bb2   Section        0  app_timer2.o(i.app_timer_stop)
    i.app_util_critical_region_enter         0x00026bc0   Section        0  app_util_platform.o(i.app_util_critical_region_enter)
    i.app_util_critical_region_exit          0x00026c08   Section        0  app_util_platform.o(i.app_util_critical_region_exit)
    i.apply_config                           0x00026c3c   Section        0  nrfx_uart.o(i.apply_config)
    apply_config                             0x00026c3d   Thumb Code   136  nrfx_uart.o(i.apply_config)
    i.apply_config                           0x00026cc4   Section        0  nrfx_uarte.o(i.apply_config)
    apply_config                             0x00026cc5   Thumb Code   136  nrfx_uarte.o(i.apply_config)
    i.backend_name_get                       0x00026d4c   Section        0  nrf_log_frontend.o(i.backend_name_get)
    backend_name_get                         0x00026d4d   Thumb Code    58  nrf_log_frontend.o(i.backend_name_get)
    i.buf_prealloc                           0x00026d94   Section        0  nrf_log_frontend.o(i.buf_prealloc)
    buf_prealloc                             0x00026d95   Thumb Code   140  nrf_log_frontend.o(i.buf_prealloc)
    i.buffer_add                             0x00026e28   Section        0  nrf_fprintf_format.o(i.buffer_add)
    buffer_add                               0x00026e29   Thumb Code    46  nrf_fprintf_format.o(i.buffer_add)
    i.buffer_is_empty                        0x00026e58   Section        0  nrf_log_frontend.o(i.buffer_is_empty)
    i.char_backspace                         0x00026e70   Section        0  nrf_cli.o(i.char_backspace)
    char_backspace                           0x00026e71   Thumb Code   170  nrf_cli.o(i.char_backspace)
    i.char_delete                            0x00026f28   Section        0  nrf_cli.o(i.char_delete)
    char_delete                              0x00026f29   Thumb Code   138  nrf_cli.o(i.char_delete)
    i.char_insert                            0x00026fbc   Section        0  nrf_cli.o(i.char_insert)
    char_insert                              0x00026fbd   Thumb Code   312  nrf_cli.o(i.char_insert)
    i.cli_clear_eos                          0x000270fc   Section        0  nrf_cli.o(i.cli_clear_eos)
    cli_clear_eos                            0x000270fd   Thumb Code    10  nrf_cli.o(i.cli_clear_eos)
    i.cli_cursor_restore                     0x00027110   Section        0  nrf_cli.o(i.cli_cursor_restore)
    cli_cursor_restore                       0x00027111   Thumb Code    10  nrf_cli.o(i.cli_cursor_restore)
    i.cli_cursor_save                        0x00027124   Section        0  nrf_cli.o(i.cli_cursor_save)
    cli_cursor_save                          0x00027125   Thumb Code    10  nrf_cli.o(i.cli_cursor_save)
    i.cli_execute                            0x00027138   Section        0  nrf_cli.o(i.cli_execute)
    cli_execute                              0x00027139   Thumb Code   364  nrf_cli.o(i.cli_execute)
    i.cli_flag_echo_is_set                   0x00027308   Section        0  nrf_cli.o(i.cli_flag_echo_is_set)
    cli_flag_echo_is_set                     0x00027309   Thumb Code    12  nrf_cli.o(i.cli_flag_echo_is_set)
    i.cli_init                               0x00027314   Section        0  cli.o(i.cli_init)
    i.cli_log_entry_process                  0x00027354   Section        0  nrf_cli.o(i.cli_log_entry_process)
    cli_log_entry_process                    0x00027355   Thumb Code   314  nrf_cli.o(i.cli_log_entry_process)
    i.cli_process                            0x000274c0   Section        0  cli.o(i.cli_process)
    i.cli_read                               0x000274cc   Section        0  nrf_cli.o(i.cli_read)
    cli_read                                 0x000274cd   Thumb Code    14  nrf_cli.o(i.cli_read)
    i.cli_start                              0x000274dc   Section        0  cli.o(i.cli_start)
    i.cli_state_collect                      0x000274f8   Section        0  nrf_cli.o(i.cli_state_collect)
    cli_state_collect                        0x000274f9   Thumb Code   628  nrf_cli.o(i.cli_state_collect)
    i.cli_state_set                          0x0002776c   Section        0  nrf_cli.o(i.cli_state_set)
    cli_state_set                            0x0002776d   Thumb Code    36  nrf_cli.o(i.cli_state_set)
    i.cli_strlen                             0x00027794   Section        0  nrf_cli.o(i.cli_strlen)
    cli_strlen                               0x00027795   Thumb Code    10  nrf_cli.o(i.cli_strlen)
    i.cli_tab_handle                         0x000277a0   Section        0  nrf_cli.o(i.cli_tab_handle)
    cli_tab_handle                           0x000277a1   Thumb Code   740  nrf_cli.o(i.cli_tab_handle)
    i.cli_transport_evt_handler              0x00027ab8   Section        0  nrf_cli.o(i.cli_transport_evt_handler)
    cli_transport_evt_handler                0x00027ab9   Thumb Code    20  nrf_cli.o(i.cli_transport_evt_handler)
    i.cli_uart_enable                        0x00027acc   Section        0  nrf_cli_uart.o(i.cli_uart_enable)
    cli_uart_enable                          0x00027acd   Thumb Code   104  nrf_cli_uart.o(i.cli_uart_enable)
    i.cli_uart_init                          0x00027b38   Section        0  nrf_cli_uart.o(i.cli_uart_init)
    cli_uart_init                            0x00027b39   Thumb Code    70  nrf_cli_uart.o(i.cli_uart_init)
    i.cli_uart_read                          0x00027b84   Section        0  nrf_cli_uart.o(i.cli_uart_read)
    cli_uart_read                            0x00027b85   Thumb Code    10  nrf_cli_uart.o(i.cli_uart_read)
    i.cli_uart_uninit                        0x00027b8e   Section        0  nrf_cli_uart.o(i.cli_uart_uninit)
    cli_uart_uninit                          0x00027b8f   Thumb Code    22  nrf_cli_uart.o(i.cli_uart_uninit)
    i.cli_uart_write                         0x00027ba4   Section        0  nrf_cli_uart.o(i.cli_uart_write)
    cli_uart_write                           0x00027ba5   Thumb Code    98  nrf_cli_uart.o(i.cli_uart_write)
    i.cli_write                              0x00027c0c   Section        0  nrf_cli.o(i.cli_write)
    cli_write                                0x00027c0d   Thumb Code    88  nrf_cli.o(i.cli_write)
    i.cli_wrong_param_count_help             0x00027c64   Section        0  cli.o(i.cli_wrong_param_count_help)
    cli_wrong_param_count_help               0x00027c65   Thumb Code    16  cli.o(i.cli_wrong_param_count_help)
    i.cmd_get                                0x00027ca8   Section        0  nrf_cli.o(i.cmd_get)
    cmd_get                                  0x00027ca9   Thumb Code   124  nrf_cli.o(i.cmd_get)
    i.cmd_trim                               0x00027d30   Section        0  nrf_cli.o(i.cmd_trim)
    cmd_trim                                 0x00027d31   Thumb Code   154  nrf_cli.o(i.cmd_trim)
    i.compare_func                           0x00027dca   Section        0  app_timer2.o(i.compare_func)
    compare_func                             0x00027dcb   Thumb Code    24  app_timer2.o(i.compare_func)
    i.completion_insert                      0x00027de4   Section        0  nrf_cli.o(i.completion_insert)
    completion_insert                        0x00027de5   Thumb Code   142  nrf_cli.o(i.completion_insert)
    i.crc16_compute                          0x00027e78   Section        0  crc16.o(i.crc16_compute)
    i.cursor_down_move                       0x00027eb0   Section        0  nrf_cli.o(i.cursor_down_move)
    cursor_down_move                         0x00027eb1   Thumb Code    16  nrf_cli.o(i.cursor_down_move)
    i.cursor_end_position_move               0x00027ec8   Section        0  nrf_cli.o(i.cursor_end_position_move)
    cursor_end_position_move                 0x00027ec9   Thumb Code    82  nrf_cli.o(i.cursor_end_position_move)
    i.cursor_home_position_move              0x00027f1a   Section        0  nrf_cli.o(i.cursor_home_position_move)
    cursor_home_position_move                0x00027f1b   Thumb Code    84  nrf_cli.o(i.cursor_home_position_move)
    i.cursor_in_empty_line                   0x00027f6e   Section        0  nrf_cli.o(i.cursor_in_empty_line)
    cursor_in_empty_line                     0x00027f6f   Thumb Code    38  nrf_cli.o(i.cursor_in_empty_line)
    i.cursor_left_move                       0x00027f94   Section        0  nrf_cli.o(i.cursor_left_move)
    cursor_left_move                         0x00027f95   Thumb Code    16  nrf_cli.o(i.cursor_left_move)
    i.cursor_next_line_move                  0x00027fac   Section        0  nrf_cli.o(i.cursor_next_line_move)
    cursor_next_line_move                    0x00027fad   Thumb Code     8  nrf_cli.o(i.cursor_next_line_move)
    i.cursor_position_get                    0x00027fb8   Section        0  nrf_cli.o(i.cursor_position_get)
    cursor_position_get                      0x00027fb9   Thumb Code   288  nrf_cli.o(i.cursor_position_get)
    i.cursor_position_synchronize            0x000280dc   Section        0  nrf_cli.o(i.cursor_position_synchronize)
    cursor_position_synchronize              0x000280dd   Thumb Code   106  nrf_cli.o(i.cursor_position_synchronize)
    i.cursor_right_move                      0x00028148   Section        0  nrf_cli.o(i.cursor_right_move)
    cursor_right_move                        0x00028149   Thumb Code    16  nrf_cli.o(i.cursor_right_move)
    i.cursor_up_move                         0x00028160   Section        0  nrf_cli.o(i.cursor_up_move)
    cursor_up_move                           0x00028161   Thumb Code    16  nrf_cli.o(i.cursor_up_move)
    i.delete_all_begin                       0x00028178   Section        0  main.o(i.delete_all_begin)
    i.delete_all_cmd                         0x00028184   Section        0  cli.o(i.delete_all_cmd)
    delete_all_cmd                           0x00028185   Thumb Code    50  cli.o(i.delete_all_cmd)
    i.delete_all_process                     0x000281c4   Section        0  main.o(i.delete_all_process)
    i.delete_cmd                             0x00028260   Section        0  cli.o(i.delete_cmd)
    delete_cmd                               0x00028261   Thumb Code    80  cli.o(i.delete_cmd)
    i.delete_execute                         0x000282b8   Section        0  fds.o(i.delete_execute)
    delete_execute                           0x000282b9   Thumb Code   134  fds.o(i.delete_execute)
    i.dropped_sat16_get                      0x00028344   Section        0  nrf_log_frontend.o(i.dropped_sat16_get)
    dropped_sat16_get                        0x00028345   Thumb Code    16  nrf_log_frontend.o(i.dropped_sat16_get)
    i.drv_rtc_compare_disable                0x00028358   Section        0  drv_rtc.o(i.drv_rtc_compare_disable)
    i.drv_rtc_compare_pending                0x0002836c   Section        0  drv_rtc.o(i.drv_rtc_compare_pending)
    i.drv_rtc_compare_set                    0x0002837a   Section        0  drv_rtc.o(i.drv_rtc_compare_set)
    i.drv_rtc_counter_get                    0x000283ca   Section        0  drv_rtc.o(i.drv_rtc_counter_get)
    i.drv_rtc_init                           0x000283d4   Section        0  drv_rtc.o(i.drv_rtc_init)
    i.drv_rtc_irq_trigger                    0x000284c0   Section        0  drv_rtc.o(i.drv_rtc_irq_trigger)
    i.drv_rtc_overflow_enable                0x000284de   Section        0  drv_rtc.o(i.drv_rtc_overflow_enable)
    i.drv_rtc_overflow_pending               0x000284e6   Section        0  drv_rtc.o(i.drv_rtc_overflow_pending)
    i.drv_rtc_start                          0x000284ee   Section        0  drv_rtc.o(i.drv_rtc_start)
    i.drv_rtc_stop                           0x000284f6   Section        0  drv_rtc.o(i.drv_rtc_stop)
    i.drv_rtc_windowed_compare_set           0x000284fe   Section        0  drv_rtc.o(i.drv_rtc_windowed_compare_set)
    i.erase                                  0x000285dc   Section        0  nrf_fstorage_sd.o(i.erase)
    erase                                    0x000285dd   Thumb Code    72  nrf_fstorage_sd.o(i.erase)
    i.event_prepare                          0x00028628   Section        0  fds.o(i.event_prepare)
    event_prepare                            0x00028629   Thumb Code   116  fds.o(i.event_prepare)
    i.event_send                             0x0002869c   Section        0  fds.o(i.event_send)
    event_send                               0x0002869d   Thumb Code    26  fds.o(i.event_send)
    i.event_send                             0x000286bc   Section        0  nrf_fstorage_sd.o(i.event_send)
    event_send                               0x000286bd   Thumb Code    84  nrf_fstorage_sd.o(i.event_send)
    i.evt_enable                             0x00028710   Section        0  drv_rtc.o(i.evt_enable)
    evt_enable                               0x00028711   Thumb Code    18  drv_rtc.o(i.evt_enable)
    i.evt_pending                            0x00028722   Section        0  drv_rtc.o(i.evt_pending)
    evt_pending                              0x00028723   Thumb Code    20  drv_rtc.o(i.evt_pending)
    i.fds_err_str                            0x00028738   Section        0  main.o(i.fds_err_str)
    i.fds_evt_handler                        0x0002874c   Section        0  main.o(i.fds_evt_handler)
    fds_evt_handler                          0x0002874d   Thumb Code   226  main.o(i.fds_evt_handler)
    i.fds_gc                                 0x000288c0   Section        0  fds.o(i.fds_gc)
    i.fds_init                               0x00028900   Section        0  fds.o(i.fds_init)
    i.fds_record_close                       0x000289e4   Section        0  fds.o(i.fds_record_close)
    i.fds_record_delete                      0x00028a2c   Section        0  fds.o(i.fds_record_delete)
    i.fds_record_find                        0x00028a70   Section        0  fds.o(i.fds_record_find)
    i.fds_record_iterate                     0x00028a7e   Section        0  fds.o(i.fds_record_iterate)
    i.fds_record_open                        0x00028a8c   Section        0  fds.o(i.fds_record_open)
    i.fds_record_update                      0x00028b0c   Section        0  fds.o(i.fds_record_update)
    i.fds_record_write                       0x00028b1c   Section        0  fds.o(i.fds_record_write)
    i.fds_register                           0x00028b24   Section        0  fds.o(i.fds_register)
    i.fds_stat                               0x00028b54   Section        0  fds.o(i.fds_stat)
    i.format_offset_string_print             0x00028bf4   Section        0  nrf_cli.o(i.format_offset_string_print)
    format_offset_string_print               0x00028bf5   Thumb Code   242  nrf_cli.o(i.format_offset_string_print)
    i.fs_event_handler                       0x00028ce6   Section        0  fds.o(i.fs_event_handler)
    fs_event_handler                         0x00028ce7   Thumb Code     6  fds.o(i.fs_event_handler)
    i.full_line_cmd                          0x00028cec   Section        0  nrf_cli.o(i.full_line_cmd)
    full_line_cmd                            0x00028ced   Thumb Code    38  nrf_cli.o(i.full_line_cmd)
    i.gc_cmd                                 0x00028d14   Section        0  cli.o(i.gc_cmd)
    gc_cmd                                   0x00028d15   Thumb Code    34  cli.o(i.gc_cmd)
    i.gc_execute                             0x00028d60   Section        0  fds.o(i.gc_execute)
    gc_execute                               0x00028d61   Thumb Code   124  fds.o(i.gc_execute)
    i.gc_next_page                           0x00028de0   Section        0  fds.o(i.gc_next_page)
    gc_next_page                             0x00028de1   Thumb Code    70  fds.o(i.gc_next_page)
    i.gc_page_erase                          0x00028e2c   Section        0  fds.o(i.gc_page_erase)
    gc_page_erase                            0x00028e2d   Thumb Code    50  fds.o(i.gc_page_erase)
    i.gc_record_copy                         0x00028e6c   Section        0  fds.o(i.gc_record_copy)
    gc_record_copy                           0x00028e6d   Thumb Code    40  fds.o(i.gc_record_copy)
    i.gc_record_find_next                    0x00028ea0   Section        0  fds.o(i.gc_record_find_next)
    gc_record_find_next                      0x00028ea1   Thumb Code    30  fds.o(i.gc_record_find_next)
    i.gc_state_advance                       0x00028ec4   Section        0  fds.o(i.gc_state_advance)
    gc_state_advance                         0x00028ec5   Thumb Code   104  fds.o(i.gc_state_advance)
    i.gc_swap_pages                          0x00028f34   Section        0  fds.o(i.gc_swap_pages)
    gc_swap_pages                            0x00028f35   Thumb Code    40  fds.o(i.gc_swap_pages)
    i.get_now                                0x00028f64   Section        0  app_timer2.o(i.get_now)
    get_now                                  0x00028f65   Thumb Code    46  app_timer2.o(i.get_now)
    i.header_check                           0x00028f98   Section        0  fds.o(i.header_check)
    header_check                             0x00028f99   Thumb Code    44  fds.o(i.header_check)
    i.header_has_next                        0x00028fc4   Section        0  fds.o(i.header_has_next)
    header_has_next                          0x00028fc5   Thumb Code    18  fds.o(i.header_has_next)
    i.history_handle                         0x00028fd8   Section        0  nrf_cli.o(i.history_handle)
    history_handle                           0x00028fd9   Thumb Code   320  nrf_cli.o(i.history_handle)
    i.history_list_element_add               0x0002911c   Section        0  nrf_cli.o(i.history_list_element_add)
    history_list_element_add                 0x0002911d   Thumb Code   120  nrf_cli.o(i.history_list_element_add)
    i.history_list_element_oldest_remove     0x00029194   Section        0  nrf_cli.o(i.history_list_element_oldest_remove)
    history_list_element_oldest_remove       0x00029195   Thumb Code   104  nrf_cli.o(i.history_list_element_oldest_remove)
    i.history_save                           0x000291fc   Section        0  nrf_cli.o(i.history_save)
    history_save                             0x000291fd   Thumb Code   134  nrf_cli.o(i.history_save)
    i.init                                   0x00029284   Section        0  nrf_fstorage_sd.o(i.init)
    init                                     0x00029285   Thumb Code    42  nrf_fstorage_sd.o(i.init)
    i.init_execute                           0x000292b8   Section        0  fds.o(i.init_execute)
    init_execute                             0x000292b9   Thumb Code   188  fds.o(i.init_execute)
    i.int_print                              0x00029380   Section        0  nrf_fprintf_format.o(i.int_print)
    int_print                                0x00029381   Thumb Code   166  nrf_fprintf_format.o(i.int_print)
    i.interrupts_enable                      0x00029428   Section        0  nrfx_uarte.o(i.interrupts_enable)
    interrupts_enable                        0x00029429   Thumb Code   132  nrfx_uarte.o(i.interrupts_enable)
    i.invalid_packets_omit                   0x000294b0   Section        0  nrf_log_frontend.o(i.invalid_packets_omit)
    invalid_packets_omit                     0x000294b1   Thumb Code    52  nrf_log_frontend.o(i.invalid_packets_omit)
    i.is_busy                                0x000294e4   Section        0  nrf_fstorage_sd.o(i.is_busy)
    is_busy                                  0x000294e5   Thumb Code    12  nrf_fstorage_sd.o(i.is_busy)
    i.is_completion_candidate                0x000294f4   Section        0  nrf_cli.o(i.is_completion_candidate)
    is_completion_candidate                  0x000294f5   Thumb Code    16  nrf_cli.o(i.is_completion_candidate)
    i.is_word_aligned                        0x00029504   Section        0  fds.o(i.is_word_aligned)
    is_word_aligned                          0x00029505   Thumb Code    12  fds.o(i.is_word_aligned)
    i.log_backend_ctrl                       0x00029510   Section        0  nrf_log_frontend.o(i.log_backend_ctrl)
    log_backend_ctrl                         0x00029511   Thumb Code     6  nrf_log_frontend.o(i.log_backend_ctrl)
    i.log_backend_go                         0x0002951c   Section        0  nrf_log_frontend.o(i.log_backend_go)
    log_backend_go                           0x0002951d   Thumb Code     6  nrf_log_frontend.o(i.log_backend_go)
    i.log_backend_halt                       0x00029528   Section        0  nrf_log_frontend.o(i.log_backend_halt)
    log_backend_halt                         0x00029529   Thumb Code     6  nrf_log_frontend.o(i.log_backend_halt)
    i.log_backend_status                     0x00029534   Section        0  nrf_log_frontend.o(i.log_backend_status)
    log_backend_status                       0x00029535   Thumb Code     6  nrf_log_frontend.o(i.log_backend_status)
    i.log_cmd                                0x00029540   Section        0  nrf_log_frontend.o(i.log_cmd)
    log_cmd                                  0x00029541   Thumb Code    54  nrf_log_frontend.o(i.log_cmd)
    i.log_cmd_backends_list                  0x0002959c   Section        0  nrf_log_frontend.o(i.log_cmd_backends_list)
    log_cmd_backends_list                    0x0002959d   Thumb Code   102  nrf_log_frontend.o(i.log_cmd_backends_list)
    i.log_config_load_cmd                    0x00029664   Section        0  nrf_log_frontend.o(i.log_config_load_cmd)
    log_config_load_cmd                      0x00029665   Thumb Code    50  nrf_log_frontend.o(i.log_config_load_cmd)
    i.log_config_store_cmd                   0x000296d4   Section        0  nrf_log_frontend.o(i.log_config_store_cmd)
    log_config_store_cmd                     0x000296d5   Thumb Code    50  nrf_log_frontend.o(i.log_config_store_cmd)
    i.log_ctrl                               0x00029748   Section        0  nrf_log_frontend.o(i.log_ctrl)
    log_ctrl                                 0x00029749   Thumb Code   304  nrf_log_frontend.o(i.log_ctrl)
    i.log_go                                 0x00029914   Section        0  nrf_log_frontend.o(i.log_go)
    log_go                                   0x00029915   Thumb Code     8  nrf_log_frontend.o(i.log_go)
    i.log_halt                               0x0002991c   Section        0  nrf_log_frontend.o(i.log_halt)
    log_halt                                 0x0002991d   Thumb Code     8  nrf_log_frontend.o(i.log_halt)
    i.log_self_ctrl                          0x00029924   Section        0  nrf_log_frontend.o(i.log_self_ctrl)
    log_self_ctrl                            0x00029925   Thumb Code    16  nrf_log_frontend.o(i.log_self_ctrl)
    i.log_self_go                            0x00029934   Section        0  nrf_log_frontend.o(i.log_self_go)
    log_self_go                              0x00029935   Thumb Code    10  nrf_log_frontend.o(i.log_self_go)
    i.log_self_halt                          0x0002993e   Section        0  nrf_log_frontend.o(i.log_self_halt)
    log_self_halt                            0x0002993f   Thumb Code    10  nrf_log_frontend.o(i.log_self_halt)
    i.log_self_status                        0x00029948   Section        0  nrf_log_frontend.o(i.log_self_status)
    log_self_status                          0x00029949   Thumb Code    16  nrf_log_frontend.o(i.log_self_status)
    i.log_skip                               0x00029958   Section        0  nrf_log_frontend.o(i.log_skip)
    log_skip                                 0x00029959   Thumb Code   150  nrf_log_frontend.o(i.log_skip)
    i.log_status                             0x000299fc   Section        0  nrf_log_frontend.o(i.log_status)
    log_status                               0x000299fd   Thumb Code   158  nrf_log_frontend.o(i.log_status)
    i.main                                   0x00029b3c   Section        0  main.o(i.main)
    i.make_argv                              0x00029f54   Section        0  nrf_cli.o(i.make_argv)
    make_argv                                0x00029f55   Thumb Code   346  nrf_cli.o(i.make_argv)
    i.memobj_op                              0x0002a0ae   Section        0  nrf_memobj.o(i.memobj_op)
    memobj_op                                0x0002a0af   Thumb Code   126  nrf_memobj.o(i.memobj_op)
    i.module_id_filter_set                   0x0002a12c   Section        0  nrf_log_frontend.o(i.module_id_filter_set)
    module_id_filter_set                     0x0002a12d   Thumb Code    38  nrf_log_frontend.o(i.module_id_filter_set)
    i.module_idx_get                         0x0002a154   Section        0  nrf_log_frontend.o(i.module_idx_get)
    module_idx_get                           0x0002a155   Thumb Code    42  nrf_log_frontend.o(i.module_idx_get)
    i.module_name_get                        0x0002a184   Section        0  nrf_log_frontend.o(i.module_name_get)
    module_name_get                          0x0002a185   Thumb Code    24  nrf_log_frontend.o(i.module_name_get)
    i.multiline_console_data_check           0x0002a1a0   Section        0  nrf_cli.o(i.multiline_console_data_check)
    multiline_console_data_check             0x0002a1a1   Thumb Code    80  nrf_cli.o(i.multiline_console_data_check)
    i.nrf_atfifo_clear                       0x0002a1f0   Section        0  nrf_atfifo.o(i.nrf_atfifo_clear)
    i.nrf_atfifo_init                        0x0002a200   Section        0  nrf_atfifo.o(i.nrf_atfifo_init)
    i.nrf_atfifo_item_alloc                  0x0002a226   Section        0  nrf_atfifo.o(i.nrf_atfifo_item_alloc)
    i.nrf_atfifo_item_free                   0x0002a23c   Section        0  nrf_atfifo.o(i.nrf_atfifo_item_free)
    i.nrf_atfifo_item_get                    0x0002a252   Section        0  nrf_atfifo.o(i.nrf_atfifo_item_get)
    i.nrf_atfifo_item_put                    0x0002a268   Section        0  nrf_atfifo.o(i.nrf_atfifo_item_put)
    i.nrf_atomic_flag_clear                  0x0002a27e   Section        0  nrf_atomic.o(i.nrf_atomic_flag_clear)
    i.nrf_atomic_flag_clear_fetch            0x0002a284   Section        0  nrf_atomic.o(i.nrf_atomic_flag_clear_fetch)
    i.nrf_atomic_flag_set                    0x0002a28a   Section        0  nrf_atomic.o(i.nrf_atomic_flag_set)
    i.nrf_atomic_flag_set_fetch              0x0002a290   Section        0  nrf_atomic.o(i.nrf_atomic_flag_set_fetch)
    i.nrf_atomic_u32_add                     0x0002a296   Section        0  nrf_atomic.o(i.nrf_atomic_u32_add)
    i.nrf_atomic_u32_and                     0x0002a2a2   Section        0  nrf_atomic.o(i.nrf_atomic_u32_and)
    i.nrf_atomic_u32_fetch_add               0x0002a2ae   Section        0  nrf_atomic.o(i.nrf_atomic_u32_fetch_add)
    i.nrf_atomic_u32_fetch_and               0x0002a2b8   Section        0  nrf_atomic.o(i.nrf_atomic_u32_fetch_and)
    i.nrf_atomic_u32_fetch_or                0x0002a2c2   Section        0  nrf_atomic.o(i.nrf_atomic_u32_fetch_or)
    i.nrf_atomic_u32_fetch_store             0x0002a2cc   Section        0  nrf_atomic.o(i.nrf_atomic_u32_fetch_store)
    i.nrf_atomic_u32_or                      0x0002a2d6   Section        0  nrf_atomic.o(i.nrf_atomic_u32_or)
    i.nrf_atomic_u32_sub                     0x0002a2e2   Section        0  nrf_atomic.o(i.nrf_atomic_u32_sub)
    i.nrf_balloc_alloc                       0x0002a2ee   Section        0  nrf_balloc.o(i.nrf_balloc_alloc)
    i.nrf_balloc_free                        0x0002a332   Section        0  nrf_balloc.o(i.nrf_balloc_free)
    i.nrf_balloc_init                        0x0002a362   Section        0  nrf_balloc.o(i.nrf_balloc_init)
    i.nrf_balloc_status                      0x0002a394   Section        0  nrf_balloc.o(i.nrf_balloc_status)
    nrf_balloc_status                        0x0002a395   Thumb Code   168  nrf_balloc.o(i.nrf_balloc_status)
    i.nrf_cli_backend_cmd_execute            0x0002a45c   Section        0  nrf_log_frontend.o(i.nrf_cli_backend_cmd_execute)
    nrf_cli_backend_cmd_execute              0x0002a45d   Thumb Code    92  nrf_log_frontend.o(i.nrf_cli_backend_cmd_execute)
    i.nrf_cli_build_in_cmd_common_executed   0x0002a4d8   Section        0  nrf_cli.o(i.nrf_cli_build_in_cmd_common_executed)
    nrf_cli_build_in_cmd_common_executed     0x0002a4d9   Thumb Code    46  nrf_cli.o(i.nrf_cli_build_in_cmd_common_executed)
    i.nrf_cli_cmd_clear                      0x0002a524   Section        0  nrf_cli.o(i.nrf_cli_cmd_clear)
    nrf_cli_cmd_clear                        0x0002a525   Thumb Code    60  nrf_cli.o(i.nrf_cli_cmd_clear)
    i.nrf_cli_cmd_cli                        0x0002a568   Section        0  nrf_cli.o(i.nrf_cli_cmd_cli)
    nrf_cli_cmd_cli                          0x0002a569   Thumb Code    36  nrf_cli.o(i.nrf_cli_cmd_cli)
    i.nrf_cli_cmd_cli_stats                  0x0002a5ac   Section        0  nrf_cli.o(i.nrf_cli_cmd_cli_stats)
    i.nrf_cli_cmd_cli_stats_reset            0x0002a618   Section        0  nrf_cli.o(i.nrf_cli_cmd_cli_stats_reset)
    i.nrf_cli_cmd_cli_stats_show             0x0002a648   Section        0  nrf_cli.o(i.nrf_cli_cmd_cli_stats_show)
    i.nrf_cli_cmd_colors                     0x0002a6d0   Section        0  nrf_cli.o(i.nrf_cli_cmd_colors)
    nrf_cli_cmd_colors                       0x0002a6d1   Thumb Code    68  nrf_cli.o(i.nrf_cli_cmd_colors)
    i.nrf_cli_cmd_colors_off                 0x0002a738   Section        0  nrf_cli.o(i.nrf_cli_cmd_colors_off)
    nrf_cli_cmd_colors_off                   0x0002a739   Thumb Code    42  nrf_cli.o(i.nrf_cli_cmd_colors_off)
    i.nrf_cli_cmd_colors_on                  0x0002a762   Section        0  nrf_cli.o(i.nrf_cli_cmd_colors_on)
    nrf_cli_cmd_colors_on                    0x0002a763   Thumb Code    42  nrf_cli.o(i.nrf_cli_cmd_colors_on)
    i.nrf_cli_cmd_echo                       0x0002a78c   Section        0  nrf_cli.o(i.nrf_cli_cmd_echo)
    nrf_cli_cmd_echo                         0x0002a78d   Thumb Code    86  nrf_cli.o(i.nrf_cli_cmd_echo)
    i.nrf_cli_cmd_echo_off                   0x0002a824   Section        0  nrf_cli.o(i.nrf_cli_cmd_echo_off)
    nrf_cli_cmd_echo_off                     0x0002a825   Thumb Code    42  nrf_cli.o(i.nrf_cli_cmd_echo_off)
    i.nrf_cli_cmd_echo_on                    0x0002a84e   Section        0  nrf_cli.o(i.nrf_cli_cmd_echo_on)
    nrf_cli_cmd_echo_on                      0x0002a84f   Thumb Code    42  nrf_cli.o(i.nrf_cli_cmd_echo_on)
    i.nrf_cli_cmd_history                    0x0002a878   Section        0  nrf_cli.o(i.nrf_cli_cmd_history)
    nrf_cli_cmd_history                      0x0002a879   Thumb Code   108  nrf_cli.o(i.nrf_cli_cmd_history)
    i.nrf_cli_cmd_resize                     0x0002a8f0   Section        0  nrf_cli.o(i.nrf_cli_cmd_resize)
    nrf_cli_cmd_resize                       0x0002a8f1   Thumb Code    98  nrf_cli.o(i.nrf_cli_cmd_resize)
    i.nrf_cli_cmd_resize_default             0x0002a9b4   Section        0  nrf_cli.o(i.nrf_cli_cmd_resize_default)
    nrf_cli_cmd_resize_default               0x0002a9b5   Thumb Code    50  nrf_cli.o(i.nrf_cli_cmd_resize_default)
    i.nrf_cli_fprintf                        0x0002a9f0   Section        0  nrf_cli.o(i.nrf_cli_fprintf)
    i.nrf_cli_help_print                     0x0002aa40   Section        0  nrf_cli.o(i.nrf_cli_help_print)
    i.nrf_cli_help_requested                 0x0002acbc   Section        0  cli.o(i.nrf_cli_help_requested)
    nrf_cli_help_requested                   0x0002acbd   Thumb Code    12  cli.o(i.nrf_cli_help_requested)
    i.nrf_cli_help_requested                 0x0002acc8   Section        0  nrf_log_frontend.o(i.nrf_cli_help_requested)
    nrf_cli_help_requested                   0x0002acc9   Thumb Code    12  nrf_log_frontend.o(i.nrf_cli_help_requested)
    i.nrf_cli_init                           0x0002acd4   Section        0  nrf_cli.o(i.nrf_cli_init)
    i.nrf_cli_instance_init                  0x0002ad08   Section        0  nrf_cli.o(i.nrf_cli_instance_init)
    nrf_cli_instance_init                    0x0002ad09   Thumb Code   170  nrf_cli.o(i.nrf_cli_instance_init)
    i.nrf_cli_print_stream                   0x0002adc8   Section        0  nrf_cli.o(i.nrf_cli_print_stream)
    i.nrf_cli_process                        0x0002add0   Section        0  nrf_cli.o(i.nrf_cli_process)
    i.nrf_cli_start                          0x0002ae44   Section        0  nrf_cli.o(i.nrf_cli_start)
    i.nrf_drv_uart_init                      0x0002ae8c   Section        0  nrf_drv_uart.o(i.nrf_drv_uart_init)
    i.nrf_drv_uart_tx                        0x0002aef4   Section        0  nrf_cli_uart.o(i.nrf_drv_uart_tx)
    nrf_drv_uart_tx                          0x0002aef5   Thumb Code    26  nrf_cli_uart.o(i.nrf_drv_uart_tx)
    i.nrf_drv_uart_uninit                    0x0002af14   Section        0  nrf_cli_uart.o(i.nrf_drv_uart_uninit)
    nrf_drv_uart_uninit                      0x0002af15   Thumb Code    20  nrf_cli_uart.o(i.nrf_drv_uart_uninit)
    i.nrf_fprintf                            0x0002af2c   Section        0  nrf_fprintf.o(i.nrf_fprintf)
    i.nrf_fprintf_buffer_flush               0x0002af46   Section        0  nrf_fprintf.o(i.nrf_fprintf_buffer_flush)
    i.nrf_fprintf_fmt                        0x0002af5e   Section        0  nrf_fprintf_format.o(i.nrf_fprintf_fmt)
    i.nrf_fstorage_erase                     0x0002b138   Section        0  nrf_fstorage.o(i.nrf_fstorage_erase)
    i.nrf_fstorage_init                      0x0002b288   Section        0  nrf_fstorage.o(i.nrf_fstorage_init)
    i.nrf_fstorage_sdh_req_handler           0x0002b328   Section        0  nrf_fstorage_sd.o(i.nrf_fstorage_sdh_req_handler)
    i.nrf_fstorage_sdh_state_handler         0x0002b340   Section        0  nrf_fstorage_sd.o(i.nrf_fstorage_sdh_state_handler)
    i.nrf_fstorage_sys_evt_handler           0x0002b360   Section        0  nrf_fstorage_sd.o(i.nrf_fstorage_sys_evt_handler)
    i.nrf_fstorage_write                     0x0002b404   Section        0  nrf_fstorage.o(i.nrf_fstorage_write)
    i.nrf_gpio_cfg                           0x0002b604   Section        0  nrfx_uart.o(i.nrf_gpio_cfg)
    nrf_gpio_cfg                             0x0002b605   Thumb Code    36  nrfx_uart.o(i.nrf_gpio_cfg)
    i.nrf_gpio_cfg                           0x0002b628   Section        0  nrfx_uarte.o(i.nrf_gpio_cfg)
    nrf_gpio_cfg                             0x0002b629   Thumb Code    36  nrfx_uarte.o(i.nrf_gpio_cfg)
    i.nrf_gpio_cfg_default                   0x0002b64c   Section        0  nrfx_uart.o(i.nrf_gpio_cfg_default)
    nrf_gpio_cfg_default                     0x0002b64d   Thumb Code    18  nrfx_uart.o(i.nrf_gpio_cfg_default)
    i.nrf_gpio_cfg_default                   0x0002b65e   Section        0  nrfx_uarte.o(i.nrf_gpio_cfg_default)
    nrf_gpio_cfg_default                     0x0002b65f   Thumb Code    18  nrfx_uarte.o(i.nrf_gpio_cfg_default)
    i.nrf_gpio_cfg_input                     0x0002b670   Section        0  nrfx_uart.o(i.nrf_gpio_cfg_input)
    nrf_gpio_cfg_input                       0x0002b671   Thumb Code    18  nrfx_uart.o(i.nrf_gpio_cfg_input)
    i.nrf_gpio_cfg_input                     0x0002b682   Section        0  nrfx_uarte.o(i.nrf_gpio_cfg_input)
    nrf_gpio_cfg_input                       0x0002b683   Thumb Code    18  nrfx_uarte.o(i.nrf_gpio_cfg_input)
    i.nrf_gpio_cfg_output                    0x0002b694   Section        0  nrfx_uart.o(i.nrf_gpio_cfg_output)
    nrf_gpio_cfg_output                      0x0002b695   Thumb Code    20  nrfx_uart.o(i.nrf_gpio_cfg_output)
    i.nrf_gpio_cfg_output                    0x0002b6a8   Section        0  nrfx_uarte.o(i.nrf_gpio_cfg_output)
    nrf_gpio_cfg_output                      0x0002b6a9   Thumb Code    20  nrfx_uarte.o(i.nrf_gpio_cfg_output)
    i.nrf_log_backend_add                    0x0002b6bc   Section        0  nrf_log_frontend.o(i.nrf_log_backend_add)
    i.nrf_log_backend_cli_flush              0x0002b74c   Section        0  nrf_cli.o(i.nrf_log_backend_cli_flush)
    nrf_log_backend_cli_flush                0x0002b74d   Thumb Code    10  nrf_cli.o(i.nrf_log_backend_cli_flush)
    i.nrf_log_backend_cli_panic_set          0x0002b756   Section        0  nrf_cli.o(i.nrf_log_backend_cli_panic_set)
    nrf_log_backend_cli_panic_set            0x0002b757   Thumb Code    30  nrf_cli.o(i.nrf_log_backend_cli_panic_set)
    i.nrf_log_backend_cli_put                0x0002b774   Section        0  nrf_cli.o(i.nrf_log_backend_cli_put)
    nrf_log_backend_cli_put                  0x0002b775   Thumb Code    82  nrf_cli.o(i.nrf_log_backend_cli_put)
    i.nrf_log_backend_serial_put             0x0002b7c6   Section        0  nrf_log_backend_serial.o(i.nrf_log_backend_serial_put)
    i.nrf_log_backend_uart_flush             0x0002b88e   Section        0  nrf_log_backend_uart.o(i.nrf_log_backend_uart_flush)
    nrf_log_backend_uart_flush               0x0002b88f   Thumb Code     2  nrf_log_backend_uart.o(i.nrf_log_backend_uart_flush)
    i.nrf_log_backend_uart_panic_set         0x0002b890   Section        0  nrf_log_backend_uart.o(i.nrf_log_backend_uart_panic_set)
    nrf_log_backend_uart_panic_set           0x0002b891   Thumb Code    36  nrf_log_backend_uart.o(i.nrf_log_backend_uart_panic_set)
    i.nrf_log_backend_uart_put               0x0002b8bc   Section        0  nrf_log_backend_uart.o(i.nrf_log_backend_uart_put)
    nrf_log_backend_uart_put                 0x0002b8bd   Thumb Code    16  nrf_log_backend_uart.o(i.nrf_log_backend_uart_put)
    i.nrf_log_color_id_get                   0x0002b8d4   Section        0  nrf_log_frontend.o(i.nrf_log_color_id_get)
    i.nrf_log_config_load                    0x0002b904   Section        0  nrf_log_frontend.o(i.nrf_log_config_load)
    i.nrf_log_config_store                   0x0002b9b8   Section        0  nrf_log_frontend.o(i.nrf_log_config_store)
    i.nrf_log_frontend_dequeue               0x0002bac4   Section        0  nrf_log_frontend.o(i.nrf_log_frontend_dequeue)
    i.nrf_log_frontend_std_0                 0x0002bd40   Section        0  nrf_log_frontend.o(i.nrf_log_frontend_std_0)
    i.nrf_log_frontend_std_1                 0x0002bd48   Section        0  nrf_log_frontend.o(i.nrf_log_frontend_std_1)
    i.nrf_log_frontend_std_2                 0x0002bd56   Section        0  nrf_log_frontend.o(i.nrf_log_frontend_std_2)
    i.nrf_log_frontend_std_3                 0x0002bd66   Section        0  nrf_log_frontend.o(i.nrf_log_frontend_std_3)
    i.nrf_log_hexdump_entry_process          0x0002bd78   Section        0  nrf_log_str_formatter.o(i.nrf_log_hexdump_entry_process)
    i.nrf_log_init                           0x0002be28   Section        0  nrf_log_frontend.o(i.nrf_log_init)
    i.nrf_log_module_cnt_get                 0x0002bec8   Section        0  nrf_log_frontend.o(i.nrf_log_module_cnt_get)
    i.nrf_log_module_filter_get              0x0002bedc   Section        0  nrf_log_frontend.o(i.nrf_log_module_filter_get)
    i.nrf_log_module_filter_set              0x0002bf24   Section        0  nrf_log_frontend.o(i.nrf_log_module_filter_set)
    i.nrf_log_module_name_get                0x0002bf74   Section        0  nrf_log_frontend.o(i.nrf_log_module_name_get)
    i.nrf_log_panic                          0x0002bf90   Section        0  nrf_log_frontend.o(i.nrf_log_panic)
    i.nrf_log_std_entry_process              0x0002bfb8   Section        0  nrf_log_str_formatter.o(i.nrf_log_std_entry_process)
    i.nrf_memobj_alloc                       0x0002c06e   Section        0  nrf_memobj.o(i.nrf_memobj_alloc)
    i.nrf_memobj_free                        0x0002c0ce   Section        0  nrf_memobj.o(i.nrf_memobj_free)
    i.nrf_memobj_get                         0x0002c100   Section        0  nrf_memobj.o(i.nrf_memobj_get)
    i.nrf_memobj_pool_init                   0x0002c108   Section        0  nrf_memobj.o(i.nrf_memobj_pool_init)
    i.nrf_memobj_put                         0x0002c10c   Section        0  nrf_memobj.o(i.nrf_memobj_put)
    i.nrf_memobj_read                        0x0002c12a   Section        0  nrf_memobj.o(i.nrf_memobj_read)
    i.nrf_memobj_write                       0x0002c13a   Section        0  nrf_memobj.o(i.nrf_memobj_write)
    i.nrf_pwr_mgmt_feed                      0x0002c14a   Section        0  nrf_pwr_mgmt.o(i.nrf_pwr_mgmt_feed)
    i.nrf_queue_generic_pop                  0x0002c14c   Section        0  nrf_queue.o(i.nrf_queue_generic_pop)
    i.nrf_queue_is_empty                     0x0002c1da   Section        0  nrf_queue.o(i.nrf_queue_is_empty)
    i.nrf_queue_is_full                      0x0002c1ec   Section        0  nrf_queue.o(i.nrf_queue_is_full)
    i.nrf_queue_max_utilization_get          0x0002c20a   Section        0  nrf_queue.o(i.nrf_queue_max_utilization_get)
    i.nrf_queue_max_utilization_reset        0x0002c210   Section        0  nrf_queue.o(i.nrf_queue_max_utilization_reset)
    i.nrf_queue_next_idx                     0x0002c218   Section        0  nrf_queue.o(i.nrf_queue_next_idx)
    nrf_queue_next_idx                       0x0002c219   Thumb Code    14  nrf_queue.o(i.nrf_queue_next_idx)
    i.nrf_queue_push                         0x0002c226   Section        0  nrf_queue.o(i.nrf_queue_push)
    i.nrf_queue_status                       0x0002c2d8   Section        0  nrf_queue.o(i.nrf_queue_status)
    nrf_queue_status                         0x0002c2d9   Thumb Code   168  nrf_queue.o(i.nrf_queue_status)
    i.nrf_queue_utilization_get              0x0002c3b8   Section        0  nrf_queue.o(i.nrf_queue_utilization_get)
    i.nrf_ringbuf_alloc                      0x0002c3dc   Section        0  nrf_ringbuf.o(i.nrf_ringbuf_alloc)
    i.nrf_ringbuf_cpy_get                    0x0002c44c   Section        0  nrf_ringbuf.o(i.nrf_ringbuf_cpy_get)
    i.nrf_ringbuf_cpy_put                    0x0002c4c8   Section        0  nrf_ringbuf.o(i.nrf_ringbuf_cpy_put)
    i.nrf_ringbuf_free                       0x0002c53a   Section        0  nrf_ringbuf.o(i.nrf_ringbuf_free)
    i.nrf_ringbuf_get                        0x0002c560   Section        0  nrf_ringbuf.o(i.nrf_ringbuf_get)
    i.nrf_ringbuf_init                       0x0002c5d0   Section        0  nrf_ringbuf.o(i.nrf_ringbuf_init)
    i.nrf_ringbuf_put                        0x0002c5ec   Section        0  nrf_ringbuf.o(i.nrf_ringbuf_put)
    i.nrf_rtc_event_clear                    0x0002c61c   Section        0  drv_rtc.o(i.nrf_rtc_event_clear)
    nrf_rtc_event_clear                      0x0002c61d   Thumb Code    12  drv_rtc.o(i.nrf_rtc_event_clear)
    i.nrf_sdh_ble_app_ram_start_get          0x0002c628   Section        0  nrf_sdh_ble.o(i.nrf_sdh_ble_app_ram_start_get)
    i.nrf_sdh_ble_default_cfg_set            0x0002c63c   Section        0  nrf_sdh_ble.o(i.nrf_sdh_ble_default_cfg_set)
    i.nrf_sdh_ble_enable                     0x0002c754   Section        0  nrf_sdh_ble.o(i.nrf_sdh_ble_enable)
    i.nrf_sdh_ble_evts_poll                  0x0002c8a8   Section        0  nrf_sdh_ble.o(i.nrf_sdh_ble_evts_poll)
    nrf_sdh_ble_evts_poll                    0x0002c8a9   Thumb Code    82  nrf_sdh_ble.o(i.nrf_sdh_ble_evts_poll)
    i.nrf_sdh_disable_request                0x0002c904   Section        0  nrf_sdh.o(i.nrf_sdh_disable_request)
    i.nrf_sdh_enable_request                 0x0002c958   Section        0  nrf_sdh.o(i.nrf_sdh_enable_request)
    i.nrf_sdh_evts_poll                      0x0002c9cc   Section        0  nrf_sdh.o(i.nrf_sdh_evts_poll)
    i.nrf_sdh_is_enabled                     0x0002c9f0   Section        0  nrf_sdh.o(i.nrf_sdh_is_enabled)
    i.nrf_sdh_request_continue               0x0002c9fc   Section        0  nrf_sdh.o(i.nrf_sdh_request_continue)
    i.nrf_sdh_soc_evts_poll                  0x0002ca18   Section        0  nrf_sdh_soc.o(i.nrf_sdh_soc_evts_poll)
    nrf_sdh_soc_evts_poll                    0x0002ca19   Thumb Code    56  nrf_sdh_soc.o(i.nrf_sdh_soc_evts_poll)
    i.nrf_section_iter_init                  0x0002ca54   Section        0  nrf_section_iter.o(i.nrf_section_iter_init)
    i.nrf_section_iter_item_set              0x0002ca5e   Section        0  nrf_section_iter.o(i.nrf_section_iter_item_set)
    nrf_section_iter_item_set                0x0002ca5f   Thumb Code    36  nrf_section_iter.o(i.nrf_section_iter_item_set)
    i.nrf_section_iter_next                  0x0002ca82   Section        0  nrf_section_iter.o(i.nrf_section_iter_next)
    i.nrf_sortlist_add                       0x0002caa2   Section        0  nrf_sortlist.o(i.nrf_sortlist_add)
    i.nrf_sortlist_peek                      0x0002cac4   Section        0  nrf_sortlist.o(i.nrf_sortlist_peek)
    i.nrf_sortlist_pop                       0x0002caca   Section        0  nrf_sortlist.o(i.nrf_sortlist_pop)
    i.nrf_sortlist_remove                    0x0002cad8   Section        0  nrf_sortlist.o(i.nrf_sortlist_remove)
    i.nrf_strerror_find                      0x0002caf8   Section        0  nrf_strerror.o(i.nrf_strerror_find)
    i.nrf_strerror_get                       0x0002cb30   Section        0  nrf_strerror.o(i.nrf_strerror_get)
    i.nrf_uart_event_check                   0x0002cb44   Section        0  nrfx_uart.o(i.nrf_uart_event_check)
    nrf_uart_event_check                     0x0002cb45   Thumb Code    10  nrfx_uart.o(i.nrf_uart_event_check)
    i.nrf_uart_event_clear                   0x0002cb4e   Section        0  nrfx_uart.o(i.nrf_uart_event_clear)
    nrf_uart_event_clear                     0x0002cb4f   Thumb Code    12  nrfx_uart.o(i.nrf_uart_event_clear)
    i.nrf_uart_int_enable_check              0x0002cb5a   Section        0  nrfx_uart.o(i.nrf_uart_int_enable_check)
    nrf_uart_int_enable_check                0x0002cb5b   Thumb Code    12  nrfx_uart.o(i.nrf_uart_int_enable_check)
    i.nrf_uarte_event_check                  0x0002cb66   Section        0  nrfx_uarte.o(i.nrf_uarte_event_check)
    nrf_uarte_event_check                    0x0002cb67   Thumb Code    10  nrfx_uarte.o(i.nrf_uarte_event_check)
    i.nrf_uarte_event_clear                  0x0002cb70   Section        0  nrfx_uarte.o(i.nrf_uarte_event_clear)
    nrf_uarte_event_clear                    0x0002cb71   Thumb Code    12  nrfx_uarte.o(i.nrf_uarte_event_clear)
    i.nrfx_coredep_delay_us                  0x0002cb7c   Section        0  drv_rtc.o(i.nrfx_coredep_delay_us)
    nrfx_coredep_delay_us                    0x0002cb7d   Thumb Code    12  drv_rtc.o(i.nrfx_coredep_delay_us)
    i.nrfx_is_in_ram                         0x0002cb8c   Section        0  nrfx_uarte.o(i.nrfx_is_in_ram)
    nrfx_is_in_ram                           0x0002cb8d   Thumb Code    16  nrfx_uarte.o(i.nrfx_is_in_ram)
    i.nrfx_prs_acquire                       0x0002cb9c   Section        0  nrfx_prs.o(i.nrfx_prs_acquire)
    i.nrfx_prs_release                       0x0002cbd6   Section        0  nrfx_prs.o(i.nrfx_prs_release)
    i.nrfx_uart_0_irq_handler                0x0002cbe8   Section        0  nrfx_uart.o(i.nrfx_uart_0_irq_handler)
    i.nrfx_uart_init                         0x0002cbf8   Section        0  nrfx_uart.o(i.nrfx_uart_init)
    i.nrfx_uart_rx                           0x0002cccc   Section        0  nrfx_uart.o(i.nrfx_uart_rx)
    i.nrfx_uart_rx_abort                     0x0002cdb8   Section        0  nrfx_uart.o(i.nrfx_uart_rx_abort)
    i.nrfx_uart_tx                           0x0002cdcc   Section        0  nrfx_uart.o(i.nrfx_uart_tx)
    i.nrfx_uart_tx_in_progress               0x0002ce74   Section        0  nrfx_uart.o(i.nrfx_uart_tx_in_progress)
    i.nrfx_uart_uninit                       0x0002ce94   Section        0  nrfx_uart.o(i.nrfx_uart_uninit)
    i.nrfx_uarte_0_irq_handler               0x0002cf54   Section        0  nrfx_uarte.o(i.nrfx_uarte_0_irq_handler)
    i.nrfx_uarte_init                        0x0002cf64   Section        0  nrfx_uarte.o(i.nrfx_uarte_init)
    i.nrfx_uarte_rx                          0x0002cfd0   Section        0  nrfx_uarte.o(i.nrfx_uarte_rx)
    i.nrfx_uarte_rx_abort                    0x0002d0d4   Section        0  nrfx_uarte.o(i.nrfx_uarte_rx_abort)
    i.nrfx_uarte_tx                          0x0002d100   Section        0  nrfx_uarte.o(i.nrfx_uarte_tx)
    i.nrfx_uarte_tx_in_progress              0x0002d1ac   Section        0  nrfx_uarte.o(i.nrfx_uarte_tx_in_progress)
    i.nrfx_uarte_uninit                      0x0002d1c8   Section        0  nrfx_uarte.o(i.nrfx_uarte_uninit)
    i.nvmc_config                            0x0002d2d0   Section        0  system_nrf52.o(i.nvmc_config)
    i.option_print                           0x0002d2e8   Section        0  nrf_cli.o(i.option_print)
    option_print                             0x0002d2e9   Thumb Code   128  nrf_cli.o(i.option_print)
    i.page_identify                          0x0002d378   Section        0  fds.o(i.page_identify)
    page_identify                            0x0002d379   Thumb Code    26  fds.o(i.page_identify)
    i.page_offsets_update                    0x0002d39c   Section        0  fds.o(i.page_offsets_update)
    page_offsets_update                      0x0002d39d   Thumb Code    28  fds.o(i.page_offsets_update)
    i.page_scan                              0x0002d3b8   Section        0  fds.o(i.page_scan)
    page_scan                                0x0002d3b9   Thumb Code   104  fds.o(i.page_scan)
    i.page_tag_write_data                    0x0002d424   Section        0  fds.o(i.page_tag_write_data)
    page_tag_write_data                      0x0002d425   Thumb Code    20  fds.o(i.page_tag_write_data)
    i.page_tag_write_swap                    0x0002d440   Section        0  fds.o(i.page_tag_write_swap)
    page_tag_write_swap                      0x0002d441   Thumb Code    22  fds.o(i.page_tag_write_swap)
    i.pages_init                             0x0002d464   Section        0  fds.o(i.pages_init)
    pages_init                               0x0002d465   Thumb Code   286  fds.o(i.pages_init)
    i.postfix_process                        0x0002d594   Section        0  nrf_log_str_formatter.o(i.postfix_process)
    postfix_process                          0x0002d595   Thumb Code    48  nrf_log_str_formatter.o(i.postfix_process)
    i.prefix_process                         0x0002d5d0   Section        0  nrf_log_str_formatter.o(i.prefix_process)
    prefix_process                           0x0002d5d1   Thumb Code    90  nrf_log_str_formatter.o(i.prefix_process)
    i.print_all_cmd                          0x0002d668   Section        0  cli.o(i.print_all_cmd)
    print_all_cmd                            0x0002d669   Thumb Code   154  cli.o(i.print_all_cmd)
    i.print_cfg_cmd                          0x0002d7a4   Section        0  cli.o(i.print_cfg_cmd)
    print_cfg_cmd                            0x0002d7a5   Thumb Code   162  cli.o(i.print_cfg_cmd)
    i.print_cmd                              0x0002d8dc   Section        0  cli.o(i.print_cmd)
    print_cmd                                0x0002d8dd   Thumb Code    66  cli.o(i.print_cmd)
    i.prs_box_get                            0x0002d95c   Section        0  nrfx_prs.o(i.prs_box_get)
    prs_box_get                              0x0002d95d   Thumb Code    14  nrfx_prs.o(i.prs_box_get)
    i.queue_buf_get                          0x0002d974   Section        0  fds.o(i.queue_buf_get)
    queue_buf_get                            0x0002d975   Thumb Code    24  fds.o(i.queue_buf_get)
    i.queue_buf_store                        0x0002d990   Section        0  fds.o(i.queue_buf_store)
    queue_buf_store                          0x0002d991   Thumb Code    10  fds.o(i.queue_buf_store)
    i.queue_free                             0x0002d9a0   Section        0  nrf_fstorage_sd.o(i.queue_free)
    queue_free                               0x0002d9a1   Thumb Code    10  nrf_fstorage_sd.o(i.queue_free)
    i.queue_process                          0x0002d9b4   Section        0  fds.o(i.queue_process)
    queue_process                            0x0002d9b5   Thumb Code   154  fds.o(i.queue_process)
    i.queue_process                          0x0002da58   Section        0  nrf_fstorage_sd.o(i.queue_process)
    queue_process                            0x0002da59   Thumb Code   148  nrf_fstorage_sd.o(i.queue_process)
    i.queue_start                            0x0002daf8   Section        0  fds.o(i.queue_start)
    queue_start                              0x0002daf9   Thumb Code    24  fds.o(i.queue_start)
    i.queue_start                            0x0002db14   Section        0  nrf_fstorage_sd.o(i.queue_start)
    queue_start                              0x0002db15   Thumb Code    30  nrf_fstorage_sd.o(i.queue_start)
    i.queue_utilization_get                  0x0002db38   Section        0  nrf_queue.o(i.queue_utilization_get)
    queue_utilization_get                    0x0002db39   Thumb Code    24  nrf_queue.o(i.queue_utilization_get)
    i.read                                   0x0002db50   Section        0  nrf_fstorage_sd.o(i.read)
    read                                     0x0002db51   Thumb Code    14  nrf_fstorage_sd.o(i.read)
    i.record_delete                          0x0002db60   Section        0  cli.o(i.record_delete)
    record_delete                            0x0002db61   Thumb Code    98  cli.o(i.record_delete)
    i.record_delete_next                     0x0002dc4c   Section        0  cli.o(i.record_delete_next)
    i.record_find                            0x0002dc78   Section        0  fds.o(i.record_find)
    record_find                              0x0002dc79   Thumb Code   134  fds.o(i.record_find)
    i.record_find_by_desc                    0x0002dd08   Section        0  fds.o(i.record_find_by_desc)
    record_find_by_desc                      0x0002dd09   Thumb Code   152  fds.o(i.record_find_by_desc)
    i.record_find_next                       0x0002dda8   Section        0  fds.o(i.record_find_next)
    record_find_next                         0x0002dda9   Thumb Code    88  fds.o(i.record_find_next)
    i.record_header_flag_dirty               0x0002de04   Section        0  fds.o(i.record_header_flag_dirty)
    record_header_flag_dirty                 0x0002de05   Thumb Code    46  fds.o(i.record_header_flag_dirty)
    i.record_update                          0x0002de40   Section        0  cli.o(i.record_update)
    record_update                            0x0002de41   Thumb Code    94  cli.o(i.record_update)
    i.record_write                           0x0002def4   Section        0  cli.o(i.record_write)
    record_write                             0x0002def5   Thumb Code    74  cli.o(i.record_write)
    i.records_stat                           0x0002df6c   Section        0  fds.o(i.records_stat)
    records_stat                             0x0002df6d   Thumb Code   132  fds.o(i.records_stat)
    i.rmap                                   0x0002dff4   Section        0  nrf_fstorage_sd.o(i.rmap)
    rmap                                     0x0002dff5   Thumb Code     4  nrf_fstorage_sd.o(i.rmap)
    i.rtc_irq                                0x0002dff8   Section        0  app_timer2.o(i.rtc_irq)
    rtc_irq                                  0x0002dff9   Thumb Code    88  app_timer2.o(i.rtc_irq)
    i.rtc_schedule                           0x0002e054   Section        0  app_timer2.o(i.rtc_schedule)
    rtc_schedule                             0x0002e055   Thumb Code    92  app_timer2.o(i.rtc_schedule)
    i.rtc_update                             0x0002e0b8   Section        0  app_timer2.o(i.rtc_update)
    rtc_update                               0x0002e0b9   Thumb Code   110  app_timer2.o(i.rtc_update)
    i.rx_byte                                0x0002e130   Section        0  nrfx_uart.o(i.rx_byte)
    rx_byte                                  0x0002e131   Thumb Code    50  nrfx_uart.o(i.rx_byte)
    i.rx_done_event                          0x0002e162   Section        0  nrfx_uart.o(i.rx_done_event)
    rx_done_event                            0x0002e163   Thumb Code    22  nrfx_uart.o(i.rx_done_event)
    i.rx_done_event                          0x0002e178   Section        0  nrfx_uarte.o(i.rx_done_event)
    rx_done_event                            0x0002e179   Thumb Code    22  nrfx_uarte.o(i.rx_done_event)
    i.rx_enable                              0x0002e18e   Section        0  nrfx_uart.o(i.rx_enable)
    rx_enable                                0x0002e18f   Thumb Code    32  nrfx_uart.o(i.rx_enable)
    i.rx_try                                 0x0002e1b0   Section        0  nrf_cli_uart.o(i.rx_try)
    rx_try                                   0x0002e1b1   Thumb Code    78  nrf_cli_uart.o(i.rx_try)
    i.sdh_request_observer_notify            0x0002e204   Section        0  nrf_sdh.o(i.sdh_request_observer_notify)
    sdh_request_observer_notify              0x0002e205   Thumb Code    44  nrf_sdh.o(i.sdh_request_observer_notify)
    i.sdh_state_observer_notify              0x0002e234   Section        0  nrf_sdh.o(i.sdh_state_observer_notify)
    sdh_state_observer_notify                0x0002e235   Thumb Code    38  nrf_sdh.o(i.sdh_state_observer_notify)
    i.serial_tx                              0x0002e260   Section        0  nrf_log_backend_uart.o(i.serial_tx)
    serial_tx                                0x0002e261   Thumb Code    54  nrf_log_backend_uart.o(i.serial_tx)
    i.severity_lvl_get                       0x0002e2a0   Section        0  nrf_log_frontend.o(i.severity_lvl_get)
    severity_lvl_get                         0x0002e2a1   Thumb Code    28  nrf_log_frontend.o(i.severity_lvl_get)
    i.softdevice_evt_irq_disable             0x0002e2c4   Section        0  nrf_sdh.o(i.softdevice_evt_irq_disable)
    softdevice_evt_irq_disable               0x0002e2c5   Thumb Code    60  nrf_sdh.o(i.softdevice_evt_irq_disable)
    i.softdevices_evt_irq_enable             0x0002e304   Section        0  nrf_sdh.o(i.softdevices_evt_irq_enable)
    softdevices_evt_irq_enable               0x0002e305   Thumb Code    80  nrf_sdh.o(i.softdevices_evt_irq_enable)
    i.sortlist_pop                           0x0002e35c   Section        0  app_timer2.o(i.sortlist_pop)
    sortlist_pop                             0x0002e35d   Thumb Code     6  app_timer2.o(i.sortlist_pop)
    i.stat_cmd                               0x0002e368   Section        0  cli.o(i.stat_cmd)
    stat_cmd                                 0x0002e369   Thumb Code    98  cli.o(i.stat_cmd)
    i.std_n                                  0x0002e3d0   Section        0  nrf_log_frontend.o(i.std_n)
    std_n                                    0x0002e3d1   Thumb Code   140  nrf_log_frontend.o(i.std_n)
    i.string_cmp                             0x0002e464   Section        0  nrf_cli.o(i.string_cmp)
    string_cmp                               0x0002e465   Thumb Code     8  nrf_cli.o(i.string_cmp)
    i.terminal_size_get                      0x0002e46c   Section        0  nrf_cli.o(i.terminal_size_get)
    terminal_size_get                        0x0002e46d   Thumb Code    96  nrf_cli.o(i.terminal_size_get)
    i.timer_expire                           0x0002e4cc   Section        0  app_timer2.o(i.timer_expire)
    timer_expire                             0x0002e4cd   Thumb Code    86  app_timer2.o(i.timer_expire)
    i.timer_handler                          0x0002e52c   Section        0  nrf_cli_uart.o(i.timer_handler)
    timer_handler                            0x0002e52d   Thumb Code    22  nrf_cli_uart.o(i.timer_handler)
    i.timer_req_process                      0x0002e548   Section        0  app_timer2.o(i.timer_req_process)
    timer_req_process                        0x0002e549   Thumb Code   116  app_timer2.o(i.timer_req_process)
    i.timer_req_schedule                     0x0002e5c4   Section        0  app_timer2.o(i.timer_req_schedule)
    timer_req_schedule                       0x0002e5c5   Thumb Code    46  app_timer2.o(i.timer_req_schedule)
    i.tx_byte                                0x0002e5fc   Section        0  nrfx_uart.o(i.tx_byte)
    tx_byte                                  0x0002e5fd   Thumb Code    32  nrfx_uart.o(i.tx_byte)
    i.tx_done_event                          0x0002e61c   Section        0  nrfx_uart.o(i.tx_done_event)
    tx_done_event                            0x0002e61d   Thumb Code    26  nrfx_uart.o(i.tx_done_event)
    i.tx_done_event                          0x0002e636   Section        0  nrfx_uarte.o(i.tx_done_event)
    tx_done_event                            0x0002e637   Thumb Code    26  nrfx_uarte.o(i.tx_done_event)
    i.uart_event_handler                     0x0002e650   Section        0  nrf_cli_uart.o(i.uart_event_handler)
    uart_event_handler                       0x0002e651   Thumb Code   110  nrf_cli_uart.o(i.uart_event_handler)
    i.uart_evt_handler                       0x0002e6c0   Section        0  nrf_drv_uart.o(i.uart_evt_handler)
    uart_evt_handler                         0x0002e6c1   Thumb Code    42  nrf_drv_uart.o(i.uart_evt_handler)
    i.uart_evt_handler                       0x0002e6f0   Section        0  nrf_log_backend_uart.o(i.uart_evt_handler)
    uart_evt_handler                         0x0002e6f1   Thumb Code     8  nrf_log_backend_uart.o(i.uart_evt_handler)
    i.uart_init                              0x0002e6fc   Section        0  nrf_log_backend_uart.o(i.uart_init)
    uart_init                                0x0002e6fd   Thumb Code    66  nrf_log_backend_uart.o(i.uart_init)
    i.uart_irq_handler                       0x0002e74c   Section        0  nrfx_uart.o(i.uart_irq_handler)
    uart_irq_handler                         0x0002e74d   Thumb Code   298  nrfx_uart.o(i.uart_irq_handler)
    i.uarte_evt_handler                      0x0002e878   Section        0  nrf_drv_uart.o(i.uarte_evt_handler)
    uarte_evt_handler                        0x0002e879   Thumb Code    42  nrf_drv_uart.o(i.uarte_evt_handler)
    i.uarte_irq_handler                      0x0002e8a8   Section        0  nrfx_uarte.o(i.uarte_irq_handler)
    uarte_irq_handler                        0x0002e8a9   Thumb Code   274  nrfx_uarte.o(i.uarte_irq_handler)
    i.uninit                                 0x0002e9bc   Section        0  nrf_fstorage_sd.o(i.uninit)
    uninit                                   0x0002e9bd   Thumb Code    22  nrf_fstorage_sd.o(i.uninit)
    i.unsigned_print                         0x0002e9dc   Section        0  nrf_fprintf_format.o(i.unsigned_print)
    unsigned_print                           0x0002e9dd   Thumb Code   176  nrf_fprintf_format.o(i.unsigned_print)
    i.update_cmd                             0x0002ea90   Section        0  cli.o(i.update_cmd)
    update_cmd                               0x0002ea91   Thumb Code   192  cli.o(i.update_cmd)
    i.vt100_bgcolor_set                      0x0002eb68   Section        0  nrf_cli.o(i.vt100_bgcolor_set)
    vt100_bgcolor_set                        0x0002eb69   Thumb Code    48  nrf_cli.o(i.vt100_bgcolor_set)
    i.vt100_color_set                        0x0002eba4   Section        0  nrf_cli.o(i.vt100_color_set)
    vt100_color_set                          0x0002eba5   Thumb Code    64  nrf_cli.o(i.vt100_color_set)
    i.wmap                                   0x0002ebf4   Section        0  nrf_fstorage_sd.o(i.wmap)
    wmap                                     0x0002ebf5   Thumb Code     4  nrf_fstorage_sd.o(i.wmap)
    i.write                                  0x0002ebf8   Section        0  nrf_fstorage_sd.o(i.write)
    write                                    0x0002ebf9   Thumb Code    74  nrf_fstorage_sd.o(i.write)
    i.write_cmd                              0x0002ec48   Section        0  cli.o(i.write_cmd)
    write_cmd                                0x0002ec49   Thumb Code   134  cli.o(i.write_cmd)
    i.write_enqueue                          0x0002ecdc   Section        0  fds.o(i.write_enqueue)
    write_enqueue                            0x0002ecdd   Thumb Code   276  fds.o(i.write_enqueue)
    i.write_execute                          0x0002edf8   Section        0  fds.o(i.write_execute)
    write_execute                            0x0002edf9   Thumb Code   236  fds.o(i.write_execute)
    i.write_space_free                       0x0002eef0   Section        0  fds.o(i.write_space_free)
    write_space_free                         0x0002eef1   Thumb Code    20  fds.o(i.write_space_free)
    i.write_space_reserve                    0x0002ef08   Section        0  fds.o(i.write_space_reserve)
    write_space_reserve                      0x0002ef09   Thumb Code    90  fds.o(i.write_space_reserve)
    .constdata                               0x0002ef68   Section        4  cli.o(.constdata)
    cli_uart_timer                           0x0002ef68   Data           4  cli.o(.constdata)
    .constdata                               0x0002ef6c   Section       12  cli.o(.constdata)
    cli_uart_tx_ringbuf                      0x0002ef6c   Data          12  cli.o(.constdata)
    .constdata                               0x0002ef78   Section       12  cli.o(.constdata)
    cli_uart_rx_ringbuf                      0x0002ef78   Data          12  cli.o(.constdata)
    .constdata                               0x0002ef84   Section       20  cli.o(.constdata)
    cli_uart_uart                            0x0002ef84   Data          20  cli.o(.constdata)
    .constdata                               0x0002ef98   Section       24  cli.o(.constdata)
    cli_uart                                 0x0002ef98   Data          24  cli.o(.constdata)
    .constdata                               0x0002efb0   Section       68  cli.o(.constdata)
    m_cli_uart                               0x0002efb0   Data          24  cli.o(.constdata)
    .constdata                               0x0002eff4   Section        8  cli.o(.constdata)
    m_print                                  0x0002eff4   Data           8  cli.o(.constdata)
    .constdata                               0x0002effc   Section       48  cli.o(.constdata)
    m_print_raw                              0x0002effc   Data          48  cli.o(.constdata)
    .constdata                               0x0002f02c   Section       16  cli.o(.constdata)
    .constdata                               0x0002f03c   Section       16  cli.o(.constdata)
    .constdata                               0x0002f04c   Section       16  cli.o(.constdata)
    .constdata                               0x0002f05c   Section       16  cli.o(.constdata)
    .constdata                               0x0002f06c   Section       16  cli.o(.constdata)
    .constdata                               0x0002f07c   Section       16  cli.o(.constdata)
    .constdata                               0x0002f08c   Section       16  cli.o(.constdata)
    .constdata                               0x0002f09c   Section       12  main.o(.constdata)
    m_dummy_record                           0x0002f09c   Data          12  main.o(.constdata)
    .constdata                               0x0002f0a8   Section        4  nrfx_uart.o(.constdata)
    irq_handlers                             0x0002f0a8   Data           4  nrfx_uart.o(.constdata)
    .constdata                               0x0002f0ac   Section        4  nrfx_uarte.o(.constdata)
    irq_handlers                             0x0002f0ac   Data           4  nrfx_uarte.o(.constdata)
    .constdata                               0x0002f0b0   Section       20  app_timer2.o(.constdata)
    m_req_fifo                               0x0002f0b0   Data           4  app_timer2.o(.constdata)
    m_app_timer_sortlist                     0x0002f0b8   Data          12  app_timer2.o(.constdata)
    .constdata                               0x0002f0d0   Section        6  drv_rtc.o(.constdata)
    delay_machine_code                       0x0002f0d0   Data           6  drv_rtc.o(.constdata)
    .constdata                               0x0002f0d8   Section       24  fds.o(.constdata)
    m_queue                                  0x0002f0d8   Data           4  fds.o(.constdata)
    dirty_header                             0x0002f0dc   Data           4  fds.o(.constdata)
    page_tag_swap                            0x0002f0e0   Data           8  fds.o(.constdata)
    page_tag_data                            0x0002f0e8   Data           8  fds.o(.constdata)
    .constdata                               0x0002f0f0   Section        8  nrf_balloc.o(.constdata)
    nrf_balloc_commands                      0x0002f0f0   Data           8  nrf_balloc.o(.constdata)
    .constdata                               0x0002f0f8   Section       32  nrf_balloc.o(.constdata)
    nrf_balloc_commands_raw                  0x0002f0f8   Data          32  nrf_balloc.o(.constdata)
    .constdata                               0x0002f118   Section       16  nrf_balloc.o(.constdata)
    .constdata                               0x0002f128   Section       12  nrf_cli.o(.constdata)
    .constdata                               0x0002f134   Section        8  nrf_cli.o(.constdata)
    m_sub_colors                             0x0002f134   Data           8  nrf_cli.o(.constdata)
    .constdata                               0x0002f13c   Section       48  nrf_cli.o(.constdata)
    m_sub_colors_raw                         0x0002f13c   Data          48  nrf_cli.o(.constdata)
    .constdata                               0x0002f16c   Section        8  nrf_cli.o(.constdata)
    m_sub_echo                               0x0002f16c   Data           8  nrf_cli.o(.constdata)
    .constdata                               0x0002f174   Section       48  nrf_cli.o(.constdata)
    m_sub_echo_raw                           0x0002f174   Data          48  nrf_cli.o(.constdata)
    .constdata                               0x0002f1a4   Section        8  nrf_cli.o(.constdata)
    m_sub_cli_stats                          0x0002f1a4   Data           8  nrf_cli.o(.constdata)
    .constdata                               0x0002f1ac   Section       48  nrf_cli.o(.constdata)
    m_sub_cli_stats_raw                      0x0002f1ac   Data          48  nrf_cli.o(.constdata)
    .constdata                               0x0002f1dc   Section        8  nrf_cli.o(.constdata)
    m_sub_cli                                0x0002f1dc   Data           8  nrf_cli.o(.constdata)
    .constdata                               0x0002f1e4   Section       64  nrf_cli.o(.constdata)
    m_sub_cli_raw                            0x0002f1e4   Data          64  nrf_cli.o(.constdata)
    .constdata                               0x0002f224   Section        8  nrf_cli.o(.constdata)
    m_sub_resize                             0x0002f224   Data           8  nrf_cli.o(.constdata)
    .constdata                               0x0002f22c   Section       32  nrf_cli.o(.constdata)
    m_sub_resize_raw                         0x0002f22c   Data          32  nrf_cli.o(.constdata)
    .constdata                               0x0002f24c   Section       16  nrf_cli.o(.constdata)
    .constdata                               0x0002f25c   Section       16  nrf_cli.o(.constdata)
    .constdata                               0x0002f26c   Section       16  nrf_cli.o(.constdata)
    .constdata                               0x0002f27c   Section       16  nrf_cli.o(.constdata)
    .constdata                               0x0002f290   Section       71  nrf_cli.o(.constdata)
    cmd                                      0x0002f290   Data           3  nrf_cli.o(.constdata)
    cmd                                      0x0002f293   Data           3  nrf_cli.o(.constdata)
    opt_sep                                  0x0002f296   Data           3  nrf_cli.o(.constdata)
    cmd                                      0x0002f299   Data           4  nrf_cli.o(.constdata)
    cmd                                      0x0002f29d   Data           4  nrf_cli.o(.constdata)
    cmd_bspace                               0x0002f2a1   Data           4  nrf_cli.o(.constdata)
    cmd                                      0x0002f2a5   Data           4  nrf_cli.o(.constdata)
    cmd_sep                                  0x0002f2a9   Data           4  nrf_cli.o(.constdata)
    cmd                                      0x0002f2ad   Data           4  nrf_cli.o(.constdata)
    cmd_get_terminal_size                    0x0002f2b1   Data           5  nrf_cli.o(.constdata)
    cmd                                      0x0002f2b6   Data           5  nrf_cli.o(.constdata)
    delay_machine_code                       0x0002f2c0   Data           6  nrf_cli.o(.constdata)
    cmd                                      0x0002f2c6   Data           6  nrf_cli.o(.constdata)
    help                                     0x0002f2cc   Data          11  nrf_cli.o(.constdata)
    .constdata                               0x0002f2d8   Section       20  nrf_cli_uart.o(.constdata)
    .constdata                               0x0002f2ec   Section       16  nrf_fprintf_format.o(.constdata)
    _aV2C                                    0x0002f2ec   Data          16  nrf_fprintf_format.o(.constdata)
    .constdata                               0x0002f2fc   Section       94  nrf_fstorage.o(.constdata)
    __func__                                 0x0002f2fc   Data          18  nrf_fstorage.o(.constdata)
    __func__                                 0x0002f30e   Data          20  nrf_fstorage.o(.constdata)
    __func__                                 0x0002f322   Data          18  nrf_fstorage.o(.constdata)
    __func__                                 0x0002f334   Data          19  nrf_fstorage.o(.constdata)
    __func__                                 0x0002f347   Data          19  nrf_fstorage.o(.constdata)
    .constdata                               0x0002f35c   Section       16  nrf_fstorage_sd.o(.constdata)
    m_fifo                                   0x0002f35c   Data           4  nrf_fstorage_sd.o(.constdata)
    m_flash_info                             0x0002f360   Data          12  nrf_fstorage_sd.o(.constdata)
    .constdata                               0x0002f36c   Section       32  nrf_fstorage_sd.o(.constdata)
    .constdata                               0x0002f38c   Section        8  nrf_queue.o(.constdata)
    nrf_queue_commands                       0x0002f38c   Data           8  nrf_queue.o(.constdata)
    .constdata                               0x0002f394   Section       32  nrf_queue.o(.constdata)
    nrf_queue_commands_raw                   0x0002f394   Data          32  nrf_queue.o(.constdata)
    .constdata                               0x0002f3b4   Section       16  nrf_queue.o(.constdata)
    .constdata                               0x0002f3c4   Section      316  nrf_strerror.o(.constdata)
    m_unknown_str                            0x0002f3c4   Data          19  nrf_strerror.o(.constdata)
    nrf_strerror_array                       0x0002f3d8   Data         296  nrf_strerror.o(.constdata)
    .constdata                               0x0002f500   Section       12  nrf_log_backend_uart.o(.constdata)
    .constdata                               0x0002f50c   Section       32  nrf_log_backend_uart.o(.constdata)
    .constdata                               0x0002f52c   Section       40  nrf_log_frontend.o(.constdata)
    m_module_name                            0x0002f52c   Data           8  nrf_log_frontend.o(.constdata)
    m_sub_log_backend                        0x0002f534   Data           8  nrf_log_frontend.o(.constdata)
    m_log_push_ringbuf                       0x0002f53c   Data          12  nrf_log_frontend.o(.constdata)
    .constdata                               0x0002f554   Section        8  nrf_log_frontend.o(.constdata)
    m_severity_lvl                           0x0002f554   Data           8  nrf_log_frontend.o(.constdata)
    .constdata                               0x0002f55c   Section       96  nrf_log_frontend.o(.constdata)
    m_sub_log_backend_raw                    0x0002f55c   Data          96  nrf_log_frontend.o(.constdata)
    .constdata                               0x0002f5bc   Section        8  nrf_log_frontend.o(.constdata)
    m_backend_name_dynamic                   0x0002f5bc   Data           8  nrf_log_frontend.o(.constdata)
    .constdata                               0x0002f5c4   Section        8  nrf_log_frontend.o(.constdata)
    m_sub_log_config                         0x0002f5c4   Data           8  nrf_log_frontend.o(.constdata)
    .constdata                               0x0002f5cc   Section       48  nrf_log_frontend.o(.constdata)
    m_sub_log_config_raw                     0x0002f5cc   Data          48  nrf_log_frontend.o(.constdata)
    .constdata                               0x0002f5fc   Section        8  nrf_log_frontend.o(.constdata)
    m_sub_log_stat                           0x0002f5fc   Data           8  nrf_log_frontend.o(.constdata)
    .constdata                               0x0002f604   Section      144  nrf_log_frontend.o(.constdata)
    m_sub_log_stat_raw                       0x0002f604   Data         144  nrf_log_frontend.o(.constdata)
    .constdata                               0x0002f694   Section       16  nrf_log_frontend.o(.constdata)
    .constdata                               0x0002f6a4   Section       16  nrf_sdh.o(.constdata)
    sdh_req_observers_array                  0x0002f6a4   Data          16  nrf_sdh.o(.constdata)
    .constdata                               0x0002f6b4   Section       40  nrf_sdh.o(.constdata)
    sdh_req_observers                        0x0002f6b8   Data          12  nrf_sdh.o(.constdata)
    sdh_state_observers                      0x0002f6c4   Data          12  nrf_sdh.o(.constdata)
    sdh_stack_observers                      0x0002f6d0   Data          12  nrf_sdh.o(.constdata)
    .constdata                               0x0002f6dc   Section       16  nrf_sdh.o(.constdata)
    sdh_state_observers_array                0x0002f6dc   Data          16  nrf_sdh.o(.constdata)
    .constdata                               0x0002f6ec   Section       16  nrf_sdh.o(.constdata)
    sdh_stack_observers_array                0x0002f6ec   Data          16  nrf_sdh.o(.constdata)
    .constdata                               0x0002f6fc   Section       32  nrf_sdh_ble.o(.constdata)
    sdh_ble_observers_array                  0x0002f6fc   Data          32  nrf_sdh_ble.o(.constdata)
    .constdata                               0x0002f71c   Section       16  nrf_sdh_ble.o(.constdata)
    sdh_ble_observers                        0x0002f720   Data          12  nrf_sdh_ble.o(.constdata)
    .constdata                               0x0002f72c   Section       16  nrf_sdh_soc.o(.constdata)
    sdh_soc_observers_array                  0x0002f72c   Data          16  nrf_sdh_soc.o(.constdata)
    .constdata                               0x0002f73c   Section       12  nrf_sdh_soc.o(.constdata)
    sdh_soc_observers                        0x0002f73c   Data          12  nrf_sdh_soc.o(.constdata)
    .constdata                               0x0002f748   Section      129  ctype_o.o(.constdata)
    .constdata                               0x0002f7cc   Section        4  ctype_o.o(.constdata)
    table                                    0x0002f7cc   Data           4  ctype_o.o(.constdata)
    .conststring                             0x0002f7d0   Section      276  cli.o(.conststring)
    .conststring                             0x0002f8e4   Section       88  cli.o(.conststring)
    .conststring                             0x0002f93c   Section       46  cli.o(.conststring)
    .conststring                             0x0002f96c   Section      132  cli.o(.conststring)
    .conststring                             0x0002f9f0   Section       79  cli.o(.conststring)
    .conststring                             0x0002fa40   Section      103  cli.o(.conststring)
    .conststring                             0x0002faa8   Section       51  cli.o(.conststring)
    .conststring                             0x0002fadc   Section       39  cli.o(.conststring)
    .conststring                             0x0002fb04   Section       29  cli.o(.conststring)
    .conststring                             0x0002fb24   Section      521  main.o(.conststring)
    .conststring                             0x0002fd30   Section       43  nrf_balloc.o(.conststring)
    .conststring                             0x0002fd5c   Section       39  nrf_balloc.o(.conststring)
    .conststring                             0x0002fd84   Section      142  nrf_balloc.o(.conststring)
    .conststring                             0x0002fe14   Section       55  nrf_cli.o(.conststring)
    .conststring                             0x0002fe4c   Section      109  nrf_cli.o(.conststring)
    .conststring                             0x0002febc   Section      101  nrf_cli.o(.conststring)
    .conststring                             0x0002ff24   Section       82  nrf_cli.o(.conststring)
    .conststring                             0x0002ff78   Section       76  nrf_cli.o(.conststring)
    .conststring                             0x0002ffc4   Section       22  nrf_cli.o(.conststring)
    .conststring                             0x0002ffdc   Section       40  nrf_cli.o(.conststring)
    .conststring                             0x00030004   Section       28  nrf_cli.o(.conststring)
    .conststring                             0x00030020   Section      167  nrf_cli.o(.conststring)
    .conststring                             0x000300c8   Section        3  nrf_cli.o(.conststring)
    .conststring                             0x000300cc   Section       79  nrf_fstorage.o(.conststring)
    .conststring                             0x0003011c   Section       33  nrf_queue.o(.conststring)
    .conststring                             0x00030140   Section        6  nrf_queue.o(.conststring)
    .conststring                             0x00030148   Section      124  nrf_queue.o(.conststring)
    .conststring                             0x000301c4   Section     1003  nrf_strerror.o(.conststring)
    .conststring                             0x000305b0   Section       38  nrf_log_frontend.o(.conststring)
    .conststring                             0x000305d8   Section      313  nrf_log_frontend.o(.conststring)
    .conststring                             0x00030714   Section      118  nrf_log_frontend.o(.conststring)
    .conststring                             0x0003078c   Section      102  nrf_log_frontend.o(.conststring)
    .conststring                             0x000307f4   Section       36  nrf_log_frontend.o(.conststring)
    .conststring                             0x00030818   Section       72  nrf_log_str_formatter.o(.conststring)
    .conststring                             0x00030860   Section      392  nrf_sdh_ble.o(.conststring)
    .conststrlit                             0x000309e8   Section      183  cli.o(.conststrlit)
    .conststrlit                             0x00030aa0   Section        4  nrfx_prs.o(.conststrlit)
    .conststrlit                             0x00030aa4   Section        5  nrfx_uart.o(.conststrlit)
    .conststrlit                             0x00030aac   Section        6  nrfx_uarte.o(.conststrlit)
    .conststrlit                             0x00030ab4   Section       30  app_timer2.o(.conststrlit)
    .conststrlit                             0x00030ad4   Section       15  fds.o(.conststrlit)
    .conststrlit                             0x00030ae4   Section        9  nrf_cli_uart.o(.conststrlit)
    .conststrlit                             0x00030af0   Section       13  nrf_fstorage.o(.conststrlit)
    .conststrlit                             0x00030b00   Section       14  nrf_fstorage_sd.o(.conststrlit)
    .conststrlit                             0x00030b10   Section        9  nrf_pwr_mgmt.o(.conststrlit)
    .conststrlit                             0x00030b1c   Section        9  nrf_sortlist.o(.conststrlit)
    .conststrlit                             0x00030b28   Section       17  nrf_log_default_backends.o(.conststrlit)
    .conststrlit                             0x00030b3c   Section       36  nrf_log_frontend.o(.conststrlit)
    .conststrlit                             0x00030b60   Section        8  nrf_sdh.o(.conststrlit)
    .conststrlit                             0x00030b68   Section       12  nrf_sdh_ble.o(.conststrlit)
    .conststrlit                             0x00030b74   Section       12  nrf_sdh_soc.o(.conststrlit)
    cli_command                              0x00030ba0   Section       56  cli.o(cli_command)
    __tagsym$$used                           0x00030ba0   Number         0  cli.o(cli_command)
    __tagsym$$used                           0x00030ba8   Number         0  cli.o(cli_command)
    __tagsym$$used                           0x00030bb0   Number         0  cli.o(cli_command)
    __tagsym$$used                           0x00030bb8   Number         0  cli.o(cli_command)
    __tagsym$$used                           0x00030bc0   Number         0  cli.o(cli_command)
    __tagsym$$used                           0x00030bc8   Number         0  cli.o(cli_command)
    __tagsym$$used                           0x00030bd0   Number         0  cli.o(cli_command)
    cli_command                              0x00030bd8   Section        8  nrf_balloc.o(cli_command)
    __tagsym$$used                           0x00030bd8   Number         0  nrf_balloc.o(cli_command)
    cli_command                              0x00030be0   Section       32  nrf_cli.o(cli_command)
    __tagsym$$used                           0x00030be0   Number         0  nrf_cli.o(cli_command)
    __tagsym$$used                           0x00030be8   Number         0  nrf_cli.o(cli_command)
    __tagsym$$used                           0x00030bf0   Number         0  nrf_cli.o(cli_command)
    __tagsym$$used                           0x00030bf8   Number         0  nrf_cli.o(cli_command)
    cli_command                              0x00030c00   Section        8  nrf_queue.o(cli_command)
    __tagsym$$used                           0x00030c00   Number         0  nrf_queue.o(cli_command)
    cli_command                              0x00030c08   Section        8  nrf_log_frontend.o(cli_command)
    __tagsym$$used                           0x00030c08   Number         0  nrf_log_frontend.o(cli_command)
    log_backends                             0x00030c10   Section       16  cli.o(log_backends)
    __tagsym$$used                           0x00030c10   Number         0  cli.o(log_backends)
    m_cli_uart_log_backend                   0x00030c10   Data          16  cli.o(log_backends)
    log_backends                             0x00030c20   Section       16  nrf_log_default_backends.o(log_backends)
    __tagsym$$used                           0x00030c20   Number         0  nrf_log_default_backends.o(log_backends)
    uart_log_backend                         0x00030c20   Data          16  nrf_log_default_backends.o(log_backends)
    log_const_data                           0x00030c30   Section       24  cli.o(log_const_data)
    __tagsym$$used                           0x00030c30   Number         0  cli.o(log_const_data)
    __tagsym$$used                           0x00030c38   Number         0  cli.o(log_const_data)
    __tagsym$$used                           0x00030c40   Number         0  cli.o(log_const_data)
    log_const_data                           0x00030c48   Section        8  nrfx_prs.o(log_const_data)
    __tagsym$$used                           0x00030c48   Number         0  nrfx_prs.o(log_const_data)
    log_const_data                           0x00030c50   Section        8  nrfx_uart.o(log_const_data)
    __tagsym$$used                           0x00030c50   Number         0  nrfx_uart.o(log_const_data)
    log_const_data                           0x00030c58   Section        8  nrfx_uarte.o(log_const_data)
    __tagsym$$used                           0x00030c58   Number         0  nrfx_uarte.o(log_const_data)
    log_const_data                           0x00030c60   Section       16  app_timer2.o(log_const_data)
    __tagsym$$used                           0x00030c60   Number         0  app_timer2.o(log_const_data)
    __tagsym$$used                           0x00030c68   Number         0  app_timer2.o(log_const_data)
    log_const_data                           0x00030c70   Section        8  fds.o(log_const_data)
    __tagsym$$used                           0x00030c70   Number         0  fds.o(log_const_data)
    log_const_data                           0x00030c78   Section        8  nrf_cli_uart.o(log_const_data)
    __tagsym$$used                           0x00030c78   Number         0  nrf_cli_uart.o(log_const_data)
    log_const_data                           0x00030c80   Section        8  nrf_fstorage.o(log_const_data)
    __tagsym$$used                           0x00030c80   Number         0  nrf_fstorage.o(log_const_data)
    log_const_data                           0x00030c88   Section        8  nrf_fstorage_sd.o(log_const_data)
    __tagsym$$used                           0x00030c88   Number         0  nrf_fstorage_sd.o(log_const_data)
    log_const_data                           0x00030c90   Section        8  nrf_pwr_mgmt.o(log_const_data)
    __tagsym$$used                           0x00030c90   Number         0  nrf_pwr_mgmt.o(log_const_data)
    log_const_data                           0x00030c98   Section        8  nrf_sortlist.o(log_const_data)
    __tagsym$$used                           0x00030c98   Number         0  nrf_sortlist.o(log_const_data)
    log_const_data                           0x00030ca0   Section       16  nrf_log_frontend.o(log_const_data)
    __tagsym$$used                           0x00030ca0   Number         0  nrf_log_frontend.o(log_const_data)
    __tagsym$$used                           0x00030ca8   Number         0  nrf_log_frontend.o(log_const_data)
    log_const_data                           0x00030cb0   Section        8  nrf_sdh.o(log_const_data)
    __tagsym$$used                           0x00030cb0   Number         0  nrf_sdh.o(log_const_data)
    log_const_data                           0x00030cb8   Section        8  nrf_sdh_ble.o(log_const_data)
    __tagsym$$used                           0x00030cb8   Number         0  nrf_sdh_ble.o(log_const_data)
    log_const_data                           0x00030cc0   Section        8  nrf_sdh_soc.o(log_const_data)
    __tagsym$$used                           0x00030cc0   Number         0  nrf_sdh_soc.o(log_const_data)
    nrf_balloc                               0x00030cc8   Section       28  cli.o(nrf_balloc)
    __tagsym$$used                           0x00030cc8   Number         0  cli.o(nrf_balloc)
    nrf_balloc                               0x00030ce4   Section       28  nrf_log_frontend.o(nrf_balloc)
    __tagsym$$used                           0x00030ce4   Number         0  nrf_log_frontend.o(nrf_balloc)
    nrf_queue                                0x00030d00   Section       28  cli.o(nrf_queue)
    __tagsym$$used                           0x00030d00   Number         0  cli.o(nrf_queue)
    sdh_req_observers0                       0x00030d1c   Section        8  nrf_fstorage_sd.o(sdh_req_observers0)
    __tagsym$$used                           0x00030d1c   Number         0  nrf_fstorage_sd.o(sdh_req_observers0)
    sdh_soc_observers0                       0x00030d24   Section        8  nrf_fstorage_sd.o(sdh_soc_observers0)
    __tagsym$$used                           0x00030d24   Number         0  nrf_fstorage_sd.o(sdh_soc_observers0)
    m_sys_obs                                0x00030d24   Data           8  nrf_fstorage_sd.o(sdh_soc_observers0)
    sdh_stack_observers0                     0x00030d2c   Section        8  nrf_sdh_ble.o(sdh_stack_observers0)
    __tagsym$$used                           0x00030d2c   Number         0  nrf_sdh_ble.o(sdh_stack_observers0)
    m_nrf_sdh_ble_evts_poll                  0x00030d2c   Data           8  nrf_sdh_ble.o(sdh_stack_observers0)
    sdh_stack_observers0                     0x00030d34   Section        8  nrf_sdh_soc.o(sdh_stack_observers0)
    __tagsym$$used                           0x00030d34   Number         0  nrf_sdh_soc.o(sdh_stack_observers0)
    m_nrf_sdh_soc_evts_poll                  0x00030d34   Data           8  nrf_sdh_soc.o(sdh_stack_observers0)
    sdh_state_observers0                     0x00030d3c   Section        8  nrf_fstorage_sd.o(sdh_state_observers0)
    __tagsym$$used                           0x00030d3c   Number         0  nrf_fstorage_sd.o(sdh_state_observers0)
    m_state_obs                              0x00030d3c   Data           8  nrf_fstorage_sd.o(sdh_state_observers0)
    .data                                    0x20002250   Section       40  cli.o(.data)
    cli_uart_timer_data                      0x20002250   Data          40  cli.o(.data)
    .data                                    0x20002278   Section       24  cli.o(.data)
    m_cli_uart_fprintf_ctx                   0x20002278   Data          24  cli.o(.data)
    .data                                    0x20002290   Section       12  cli.o(.data)
    cli_log_backendm_cli_uart_log_backend    0x20002290   Data          12  cli.o(.data)
    .data                                    0x2000229c   Section        8  cli.o(.data)
    log_backend_cb_m_cli_uart_log_backend    0x2000229c   Data           8  cli.o(.data)
    .data                                    0x200022a4   Section        8  cli.o(.data)
    m_cli_uart_cmd_hist_memobj_nrf_balloc_pool_stack 0x200022a4   Data           8  cli.o(.data)
    .data                                    0x200022ac   Section        8  cli.o(.data)
    m_cli_uart_cmd_hist_memobj_nrf_balloc_cb 0x200022ac   Data           8  cli.o(.data)
    .data                                    0x200022b4   Section      112  main.o(.data)
    m_fds_initialized                        0x200022b4   Data           1  main.o(.data)
    m_delete_all                             0x200022b5   Data           2  main.o(.data)
    fds_evt_str                              0x200022b8   Data          24  main.o(.data)
    m_dummy_cfg                              0x200022d0   Data          24  main.o(.data)
    err_str                                  0x200022e8   Data          60  main.o(.data)
    .data                                    0x20002324   Section       12  nrf_drv_uart.o(.data)
    m_handlers                               0x20002328   Data           4  nrf_drv_uart.o(.data)
    m_contexts                               0x2000232c   Data           4  nrf_drv_uart.o(.data)
    .data                                    0x20002330   Section        8  nrfx_prs.o(.data)
    m_prs_box_4                              0x20002330   Data           8  nrfx_prs.o(.data)
    .data                                    0x20002338   Section       32  app_timer2.o(.data)
    m_global_active                          0x20002338   Data           1  app_timer2.o(.data)
    mp_active_timer                          0x2000233c   Data           4  app_timer2.o(.data)
    m_rtc_inst                               0x20002340   Data           8  app_timer2.o(.data)
    m_base_counter                           0x20002348   Data           8  app_timer2.o(.data)
    m_stamp64                                0x20002350   Data           8  app_timer2.o(.data)
    .data                                    0x20002358   Section       20  app_timer2.o(.data)
    m_req_fifo_inst                          0x20002358   Data          20  app_timer2.o(.data)
    .data                                    0x2000236c   Section        4  app_timer2.o(.data)
    m_app_timer_sortlist_sortlist_cb         0x2000236c   Data           4  app_timer2.o(.data)
    .data                                    0x20002370   Section       12  drv_rtc.o(.data)
    m_handlers                               0x20002370   Data           4  drv_rtc.o(.data)
    m_cb                                     0x20002374   Data           8  drv_rtc.o(.data)
    .data                                    0x2000237c   Section       20  fds.o(.data)
    m_queue_inst                             0x2000237c   Data          20  fds.o(.data)
    .data                                    0x20002390   Section       48  fds.o(.data)
    page                                     0x20002390   Data           2  fds.o(.data)
    m_p_cur_op                               0x20002394   Data           4  fds.o(.data)
    m_iget_ctx                               0x20002398   Data           4  fds.o(.data)
    m_queued_op_cnt                          0x2000239c   Data           4  fds.o(.data)
    m_users                                  0x200023a0   Data           4  fds.o(.data)
    m_latest_rec_id                          0x200023a4   Data           4  fds.o(.data)
    tok                                      0x200023a8   Data           8  fds.o(.data)
    m_flags                                  0x200023b0   Data           8  fds.o(.data)
    m_swap_page                              0x200023b8   Data           8  fds.o(.data)
    .data                                    0x200023c0   Section        4  nrf_cli.o(.data)
    tab                                      0x200023c0   Data           4  nrf_cli.o(.data)
    .data                                    0x200023c4   Section       20  nrf_fstorage_sd.o(.data)
    m_fifo_inst                              0x200023c4   Data          20  nrf_fstorage_sd.o(.data)
    .data                                    0x200023d8   Section        8  nrf_fstorage_sd.o(.data)
    m_p_cur_op                               0x200023d8   Data           4  nrf_fstorage_sd.o(.data)
    m_iget_ctx                               0x200023dc   Data           4  nrf_fstorage_sd.o(.data)
    .data                                    0x200023e0   Section       24  nrf_log_backend_uart.o(.data)
    m_xfer_done                              0x200023e0   Data           1  nrf_log_backend_uart.o(.data)
    m_async_mode                             0x200023e1   Data           1  nrf_log_backend_uart.o(.data)
    .data                                    0x200023f8   Section        8  nrf_log_default_backends.o(.data)
    log_backend_cb_uart_log_backend          0x200023f8   Data           8  nrf_log_default_backends.o(.data)
    .data                                    0x20002400   Section       44  nrf_log_frontend.o(.data)
    m_buffer_mask                            0x20002400   Data           4  nrf_log_frontend.o(.data)
    m_severity_lvls                          0x20002404   Data          20  nrf_log_frontend.o(.data)
    m_severity_lvls_sorted                   0x20002418   Data          20  nrf_log_frontend.o(.data)
    .data                                    0x2000242c   Section        8  nrf_log_frontend.o(.data)
    log_mempool_nrf_balloc_pool_stack        0x2000242c   Data           8  nrf_log_frontend.o(.data)
    .data                                    0x20002434   Section        8  nrf_log_frontend.o(.data)
    log_mempool_nrf_balloc_cb                0x20002434   Data           8  nrf_log_frontend.o(.data)
    .data                                    0x2000243c   Section       64  nrf_log_str_formatter.o(.data)
    m_freq                                   0x2000243c   Data           4  nrf_log_str_formatter.o(.data)
    m_timestamp_div                          0x20002440   Data           4  nrf_log_str_formatter.o(.data)
    severity_names                           0x20002444   Data          20  nrf_log_str_formatter.o(.data)
    m_colors                                 0x20002458   Data          36  nrf_log_str_formatter.o(.data)
    .data                                    0x2000247c   Section        3  nrf_sdh.o(.data)
    m_nrf_sdh_enabled                        0x2000247c   Data           1  nrf_sdh.o(.data)
    m_nrf_sdh_suspended                      0x2000247d   Data           1  nrf_sdh.o(.data)
    m_nrf_sdh_continue                       0x2000247e   Data           1  nrf_sdh.o(.data)
    .data                                    0x2000247f   Section        1  nrf_sdh_ble.o(.data)
    m_stack_is_enabled                       0x2000247f   Data           1  nrf_sdh_ble.o(.data)
    .data                                    0x20002480   Section        4  system_nrf52.o(.data)
    __tagsym$$used                           0x20002480   Number         0  system_nrf52.o(.data)
    .data                                    0x20002484   Section        4  errno.o(.data)
    _errno                                   0x20002484   Data           4  errno.o(.data)
    cli_sorted_cmd_ptrs                      0x20002488   Section       28  cli.o(cli_sorted_cmd_ptrs)
    __tagsym$$used                           0x20002488   Number         0  cli.o(cli_sorted_cmd_ptrs)
    __tagsym$$used                           0x2000248c   Number         0  cli.o(cli_sorted_cmd_ptrs)
    __tagsym$$used                           0x20002490   Number         0  cli.o(cli_sorted_cmd_ptrs)
    __tagsym$$used                           0x20002494   Number         0  cli.o(cli_sorted_cmd_ptrs)
    __tagsym$$used                           0x20002498   Number         0  cli.o(cli_sorted_cmd_ptrs)
    __tagsym$$used                           0x2000249c   Number         0  cli.o(cli_sorted_cmd_ptrs)
    __tagsym$$used                           0x200024a0   Number         0  cli.o(cli_sorted_cmd_ptrs)
    cli_sorted_cmd_ptrs                      0x200024a4   Section        4  nrf_balloc.o(cli_sorted_cmd_ptrs)
    __tagsym$$used                           0x200024a4   Number         0  nrf_balloc.o(cli_sorted_cmd_ptrs)
    cli_sorted_cmd_ptrs                      0x200024a8   Section       16  nrf_cli.o(cli_sorted_cmd_ptrs)
    __tagsym$$used                           0x200024a8   Number         0  nrf_cli.o(cli_sorted_cmd_ptrs)
    __tagsym$$used                           0x200024ac   Number         0  nrf_cli.o(cli_sorted_cmd_ptrs)
    __tagsym$$used                           0x200024b0   Number         0  nrf_cli.o(cli_sorted_cmd_ptrs)
    __tagsym$$used                           0x200024b4   Number         0  nrf_cli.o(cli_sorted_cmd_ptrs)
    cli_sorted_cmd_ptrs                      0x200024b8   Section        4  nrf_queue.o(cli_sorted_cmd_ptrs)
    __tagsym$$used                           0x200024b8   Number         0  nrf_queue.o(cli_sorted_cmd_ptrs)
    cli_sorted_cmd_ptrs                      0x200024bc   Section        4  nrf_log_frontend.o(cli_sorted_cmd_ptrs)
    __tagsym$$used                           0x200024bc   Number         0  nrf_log_frontend.o(cli_sorted_cmd_ptrs)
    fs_data                                  0x200024c0   Section       20  fds.o(fs_data)
    __tagsym$$used                           0x200024c0   Number         0  fds.o(fs_data)
    log_dynamic_data                         0x200024d4   Section       12  cli.o(log_dynamic_data)
    __tagsym$$used                           0x200024d4   Number         0  cli.o(log_dynamic_data)
    __tagsym$$used                           0x200024d8   Number         0  cli.o(log_dynamic_data)
    __tagsym$$used                           0x200024dc   Number         0  cli.o(log_dynamic_data)
    log_dynamic_data                         0x200024e0   Section        4  nrfx_prs.o(log_dynamic_data)
    __tagsym$$used                           0x200024e0   Number         0  nrfx_prs.o(log_dynamic_data)
    log_dynamic_data                         0x200024e4   Section        4  nrfx_uart.o(log_dynamic_data)
    __tagsym$$used                           0x200024e4   Number         0  nrfx_uart.o(log_dynamic_data)
    log_dynamic_data                         0x200024e8   Section        4  nrfx_uarte.o(log_dynamic_data)
    __tagsym$$used                           0x200024e8   Number         0  nrfx_uarte.o(log_dynamic_data)
    log_dynamic_data                         0x200024ec   Section        8  app_timer2.o(log_dynamic_data)
    __tagsym$$used                           0x200024ec   Number         0  app_timer2.o(log_dynamic_data)
    __tagsym$$used                           0x200024f0   Number         0  app_timer2.o(log_dynamic_data)
    log_dynamic_data                         0x200024f4   Section        4  fds.o(log_dynamic_data)
    __tagsym$$used                           0x200024f4   Number         0  fds.o(log_dynamic_data)
    log_dynamic_data                         0x200024f8   Section        4  nrf_cli_uart.o(log_dynamic_data)
    __tagsym$$used                           0x200024f8   Number         0  nrf_cli_uart.o(log_dynamic_data)
    log_dynamic_data                         0x200024fc   Section        4  nrf_fstorage.o(log_dynamic_data)
    __tagsym$$used                           0x200024fc   Number         0  nrf_fstorage.o(log_dynamic_data)
    log_dynamic_data                         0x20002500   Section        4  nrf_fstorage_sd.o(log_dynamic_data)
    __tagsym$$used                           0x20002500   Number         0  nrf_fstorage_sd.o(log_dynamic_data)
    log_dynamic_data                         0x20002504   Section        4  nrf_pwr_mgmt.o(log_dynamic_data)
    __tagsym$$used                           0x20002504   Number         0  nrf_pwr_mgmt.o(log_dynamic_data)
    log_dynamic_data                         0x20002508   Section        4  nrf_sortlist.o(log_dynamic_data)
    __tagsym$$used                           0x20002508   Number         0  nrf_sortlist.o(log_dynamic_data)
    log_dynamic_data                         0x2000250c   Section        8  nrf_log_frontend.o(log_dynamic_data)
    __tagsym$$used                           0x2000250c   Number         0  nrf_log_frontend.o(log_dynamic_data)
    __tagsym$$used                           0x20002510   Number         0  nrf_log_frontend.o(log_dynamic_data)
    log_dynamic_data                         0x20002514   Section        4  nrf_sdh.o(log_dynamic_data)
    __tagsym$$used                           0x20002514   Number         0  nrf_sdh.o(log_dynamic_data)
    log_dynamic_data                         0x20002518   Section        4  nrf_sdh_ble.o(log_dynamic_data)
    __tagsym$$used                           0x20002518   Number         0  nrf_sdh_ble.o(log_dynamic_data)
    log_dynamic_data                         0x2000251c   Section        4  nrf_sdh_soc.o(log_dynamic_data)
    __tagsym$$used                           0x2000251c   Number         0  nrf_sdh_soc.o(log_dynamic_data)
    log_filter_data                          0x20002520   Section       12  cli.o(log_filter_data)
    __tagsym$$used                           0x20002520   Number         0  cli.o(log_filter_data)
    __tagsym$$used                           0x20002524   Number         0  cli.o(log_filter_data)
    __tagsym$$used                           0x20002528   Number         0  cli.o(log_filter_data)
    log_filter_data                          0x2000252c   Section        4  nrfx_prs.o(log_filter_data)
    __tagsym$$used                           0x2000252c   Number         0  nrfx_prs.o(log_filter_data)
    log_filter_data                          0x20002530   Section        4  nrfx_uart.o(log_filter_data)
    __tagsym$$used                           0x20002530   Number         0  nrfx_uart.o(log_filter_data)
    log_filter_data                          0x20002534   Section        4  nrfx_uarte.o(log_filter_data)
    __tagsym$$used                           0x20002534   Number         0  nrfx_uarte.o(log_filter_data)
    log_filter_data                          0x20002538   Section        8  app_timer2.o(log_filter_data)
    __tagsym$$used                           0x20002538   Number         0  app_timer2.o(log_filter_data)
    __tagsym$$used                           0x2000253c   Number         0  app_timer2.o(log_filter_data)
    log_filter_data                          0x20002540   Section        4  fds.o(log_filter_data)
    __tagsym$$used                           0x20002540   Number         0  fds.o(log_filter_data)
    log_filter_data                          0x20002544   Section        4  nrf_cli_uart.o(log_filter_data)
    __tagsym$$used                           0x20002544   Number         0  nrf_cli_uart.o(log_filter_data)
    log_filter_data                          0x20002548   Section        4  nrf_fstorage.o(log_filter_data)
    __tagsym$$used                           0x20002548   Number         0  nrf_fstorage.o(log_filter_data)
    log_filter_data                          0x2000254c   Section        4  nrf_fstorage_sd.o(log_filter_data)
    __tagsym$$used                           0x2000254c   Number         0  nrf_fstorage_sd.o(log_filter_data)
    log_filter_data                          0x20002550   Section        4  nrf_pwr_mgmt.o(log_filter_data)
    __tagsym$$used                           0x20002550   Number         0  nrf_pwr_mgmt.o(log_filter_data)
    log_filter_data                          0x20002554   Section        4  nrf_sortlist.o(log_filter_data)
    __tagsym$$used                           0x20002554   Number         0  nrf_sortlist.o(log_filter_data)
    log_filter_data                          0x20002558   Section        8  nrf_log_frontend.o(log_filter_data)
    __tagsym$$used                           0x20002558   Number         0  nrf_log_frontend.o(log_filter_data)
    __tagsym$$used                           0x2000255c   Number         0  nrf_log_frontend.o(log_filter_data)
    log_filter_data                          0x20002560   Section        4  nrf_sdh.o(log_filter_data)
    __tagsym$$used                           0x20002560   Number         0  nrf_sdh.o(log_filter_data)
    log_filter_data                          0x20002564   Section        4  nrf_sdh_ble.o(log_filter_data)
    __tagsym$$used                           0x20002564   Number         0  nrf_sdh_ble.o(log_filter_data)
    log_filter_data                          0x20002568   Section        4  nrf_sdh_soc.o(log_filter_data)
    __tagsym$$used                           0x20002568   Number         0  nrf_sdh_soc.o(log_filter_data)
    .bss                                     0x2000256c   Section      280  cli.o(.bss)
    m_data                                   0x2000256c   Data         256  cli.o(.bss)
    cfg                                      0x2000266c   Data          24  cli.o(.bss)
    .bss                                     0x20002684   Section       64  cli.o(.bss)
    cli_uart_tx_ringbuf_buf                  0x20002684   Data          64  cli.o(.bss)
    .bss                                     0x200026c4   Section       24  cli.o(.bss)
    cli_uart_tx_ringbuf_cb                   0x200026c4   Data          24  cli.o(.bss)
    .bss                                     0x200026dc   Section       16  cli.o(.bss)
    cli_uart_rx_ringbuf_buf                  0x200026dc   Data          16  cli.o(.bss)
    .bss                                     0x200026ec   Section       24  cli.o(.bss)
    cli_uart_rx_ringbuf_cb                   0x200026ec   Data          24  cli.o(.bss)
    .bss                                     0x20002704   Section       44  cli.o(.bss)
    cli_uart_cb                              0x20002704   Data          44  cli.o(.bss)
    .bss                                     0x20002730   Section      332  cli.o(.bss)
    m_cli_uart_ctx                           0x20002730   Data         332  cli.o(.bss)
    .bss                                     0x2000287c   Section       20  cli.o(.bss)
    m_cli_uart_log_backend_queue_nrf_queue_buffer 0x2000287c   Data          20  cli.o(.bss)
    .bss                                     0x20002890   Section       12  cli.o(.bss)
    m_cli_uart_log_backend_queue_nrf_queue_cb 0x20002890   Data          12  cli.o(.bss)
    .bss                                     0x2000289c   Section      384  cli.o(.bss)
    m_cli_uart_cmd_hist_memobj_nrf_balloc_pool_mem 0x2000289c   Data         384  cli.o(.bss)
    .bss                                     0x20002a1c   Section       44  nrfx_uart.o(.bss)
    m_cb                                     0x20002a1c   Data          44  nrfx_uart.o(.bss)
    .bss                                     0x20002a48   Section       36  nrfx_uarte.o(.bss)
    m_cb                                     0x20002a48   Data          36  nrfx_uarte.o(.bss)
    .bss                                     0x20002a6c   Section       88  app_timer2.o(.bss)
    m_req_fifo_data                          0x20002a6c   Data          88  app_timer2.o(.bss)
    .bss                                     0x20002ac4   Section       12  app_util_platform.o(.bss)
    .bss                                     0x20002ad0   Section      224  fds.o(.bss)
    desc                                     0x20002ad0   Data          12  fds.o(.bss)
    m_cb_table                               0x20002adc   Data          16  fds.o(.bss)
    m_queue_data                             0x20002aec   Data         140  fds.o(.bss)
    m_pages                                  0x20002b78   Data          40  fds.o(.bss)
    m_gc                                     0x20002ba0   Data          16  fds.o(.bss)
    .bss                                     0x20002bb0   Section      160  nrf_fstorage_sd.o(.bss)
    m_fifo_data                              0x20002bb0   Data         140  nrf_fstorage_sd.o(.bss)
    m_flags                                  0x20002c3c   Data          20  nrf_fstorage_sd.o(.bss)
    .bss                                     0x20002c50   Section       64  nrf_log_backend_uart.o(.bss)
    m_string_buff                            0x20002c50   Data          64  nrf_log_backend_uart.o(.bss)
    .bss                                     0x20002c90   Section      192  nrf_log_frontend.o(.bss)
    log_mempool_nrf_balloc_pool_mem          0x20002c90   Data         192  nrf_log_frontend.o(.bss)
    .bss                                     0x20002d50   Section      128  nrf_log_frontend.o(.bss)
    m_log_push_ringbuf_buf                   0x20002d50   Data         128  nrf_log_frontend.o(.bss)
    .bss                                     0x20002dd0   Section       24  nrf_log_frontend.o(.bss)
    m_log_push_ringbuf_cb                    0x20002dd0   Data          24  nrf_log_frontend.o(.bss)
    .bss                                     0x20002de8   Section     1056  nrf_log_frontend.o(.bss)
    m_log_data                               0x20002de8   Data        1056  nrf_log_frontend.o(.bss)
    STACK                                    0x20003208   Section    16384  arm_startup_nrf52.o(STACK)

    Global Symbols

    Symbol Name                              Value     Ov Type        Size  Object(Section)

    BuildAttributes$$THM_ISAv4$E$P$D$K$B$S$7EM$VFPi3$EXTD16$VFPS$VFMA$PE$A:L22UL41UL21$X:L11$S22US41US21$IEEE1$IW$USESV6$~STKCKD$USESV7$~SHL$OSPACE$EBA8$MICROLIB$REQ8$EABIv2 0x00000000   Number         0  anon$$obj.o ABSOLUTE
    __ARM_use_no_argv                        0x00000000   Number         0  main.o ABSOLUTE
    __cpp_initialize__aeabi_                  - Undefined Weak Reference
    __cxa_finalize                            - Undefined Weak Reference
    _clock_init                               - Undefined Weak Reference
    _microlib_exit                            - Undefined Weak Reference
    pwr_mgmt_data0$$Base                      - Undefined Reference
    pwr_mgmt_data0$$Limit                     - Undefined Reference
    pwr_mgmt_data1$$Base                      - Undefined Reference
    pwr_mgmt_data1$$Limit                     - Undefined Reference
    pwr_mgmt_data2$$Base                      - Undefined Reference
    pwr_mgmt_data2$$Limit                     - Undefined Reference
    sdh_ble_observers0$$Base                  - Undefined Reference
    sdh_ble_observers0$$Limit                 - Undefined Reference
    sdh_ble_observers1$$Base                  - Undefined Reference
    sdh_ble_observers1$$Limit                 - Undefined Reference
    sdh_ble_observers2$$Base                  - Undefined Reference
    sdh_ble_observers2$$Limit                 - Undefined Reference
    sdh_ble_observers3$$Base                  - Undefined Reference
    sdh_ble_observers3$$Limit                 - Undefined Reference
    sdh_req_observers1$$Base                  - Undefined Reference
    sdh_req_observers1$$Limit                 - Undefined Reference
    sdh_soc_observers1$$Base                  - Undefined Reference
    sdh_soc_observers1$$Limit                 - Undefined Reference
    sdh_stack_observers1$$Base                - Undefined Reference
    sdh_stack_observers1$$Limit               - Undefined Reference
    sdh_state_observers1$$Base                - Undefined Reference
    sdh_state_observers1$$Limit               - Undefined Reference
    __Vectors_Size                           0x00000200   Number         0  arm_startup_nrf52.o ABSOLUTE
    __Vectors                                0x00026000   Data           4  arm_startup_nrf52.o(RESET)
    __Vectors_End                            0x00026200   Data           0  arm_startup_nrf52.o(RESET)
    __main                                   0x00026201   Thumb Code     0  entry.o(.ARM.Collect$$$$00000000)
    _main_stk                                0x00026201   Thumb Code     0  entry2.o(.ARM.Collect$$$$00000001)
    _main_scatterload                        0x00026205   Thumb Code     0  entry5.o(.ARM.Collect$$$$00000004)
    __main_after_scatterload                 0x00026209   Thumb Code     0  entry5.o(.ARM.Collect$$$$00000004)
    _main_clock                              0x00026209   Thumb Code     0  entry7b.o(.ARM.Collect$$$$00000008)
    _main_cpp_init                           0x00026209   Thumb Code     0  entry8b.o(.ARM.Collect$$$$0000000A)
    _main_init                               0x00026209   Thumb Code     0  entry9a.o(.ARM.Collect$$$$0000000B)
    __rt_final_cpp                           0x00026211   Thumb Code     0  entry10a.o(.ARM.Collect$$$$0000000D)
    __rt_final_exit                          0x00026211   Thumb Code     0  entry11a.o(.ARM.Collect$$$$0000000F)
    __asm___12_nrf_atfifo_c_51f461e1__nrf_atfifo_wspace_req 0x00026215   Thumb Code    56  nrf_atfifo.o(.emb_text)
    __asm___12_nrf_atfifo_c_51f461e1__nrf_atfifo_wspace_close 0x0002624d   Thumb Code    18  nrf_atfifo.o(.emb_text)
    __asm___12_nrf_atfifo_c_51f461e1__nrf_atfifo_rspace_req 0x0002625f   Thumb Code    58  nrf_atfifo.o(.emb_text)
    __asm___12_nrf_atfifo_c_51f461e1__nrf_atfifo_rspace_close 0x00026299   Thumb Code    18  nrf_atfifo.o(.emb_text)
    __asm___12_nrf_atfifo_c_51f461e1__nrf_atfifo_space_clear 0x000262ab   Thumb Code    50  nrf_atfifo.o(.emb_text)
    __asm___12_nrf_atomic_c_85ca2469__nrf_atomic_internal_mov 0x000262dd   Thumb Code    24  nrf_atomic.o(.emb_text)
    __asm___12_nrf_atomic_c_85ca2469__nrf_atomic_internal_orr 0x000262f5   Thumb Code    26  nrf_atomic.o(.emb_text)
    __asm___12_nrf_atomic_c_85ca2469__nrf_atomic_internal_and 0x0002630f   Thumb Code    26  nrf_atomic.o(.emb_text)
    __asm___12_nrf_atomic_c_85ca2469__nrf_atomic_internal_eor 0x00026329   Thumb Code    26  nrf_atomic.o(.emb_text)
    __asm___12_nrf_atomic_c_85ca2469__nrf_atomic_internal_add 0x00026343   Thumb Code    26  nrf_atomic.o(.emb_text)
    __asm___12_nrf_atomic_c_85ca2469__nrf_atomic_internal_sub 0x0002635d   Thumb Code    26  nrf_atomic.o(.emb_text)
    __asm___12_nrf_atomic_c_85ca2469__nrf_atomic_internal_cmp_exch 0x00026377   Thumb Code    42  nrf_atomic.o(.emb_text)
    __asm___12_nrf_atomic_c_85ca2469__nrf_atomic_internal_sub_hs 0x000263a1   Thumb Code    30  nrf_atomic.o(.emb_text)
    Reset_Handler                            0x000263c1   Thumb Code     8  arm_startup_nrf52.o(.text)
    NMI_Handler                              0x000263c9   Thumb Code     2  arm_startup_nrf52.o(.text)
    HardFault_Handler                        0x000263cb   Thumb Code     2  arm_startup_nrf52.o(.text)
    MemoryManagement_Handler                 0x000263cd   Thumb Code     2  arm_startup_nrf52.o(.text)
    BusFault_Handler                         0x000263cf   Thumb Code     2  arm_startup_nrf52.o(.text)
    UsageFault_Handler                       0x000263d1   Thumb Code     2  arm_startup_nrf52.o(.text)
    SVC_Handler                              0x000263d3   Thumb Code     2  arm_startup_nrf52.o(.text)
    DebugMon_Handler                         0x000263d5   Thumb Code     2  arm_startup_nrf52.o(.text)
    PendSV_Handler                           0x000263d7   Thumb Code     2  arm_startup_nrf52.o(.text)
    SysTick_Handler                          0x000263d9   Thumb Code     2  arm_startup_nrf52.o(.text)
    CCM_AAR_IRQHandler                       0x000263db   Thumb Code     0  arm_startup_nrf52.o(.text)
    COMP_LPCOMP_IRQHandler                   0x000263db   Thumb Code     0  arm_startup_nrf52.o(.text)
    ECB_IRQHandler                           0x000263db   Thumb Code     0  arm_startup_nrf52.o(.text)
    FPU_IRQHandler                           0x000263db   Thumb Code     0  arm_startup_nrf52.o(.text)
    GPIOTE_IRQHandler                        0x000263db   Thumb Code     0  arm_startup_nrf52.o(.text)
    I2S_IRQHandler                           0x000263db   Thumb Code     0  arm_startup_nrf52.o(.text)
    MWU_IRQHandler                           0x000263db   Thumb Code     0  arm_startup_nrf52.o(.text)
    NFCT_IRQHandler                          0x000263db   Thumb Code     0  arm_startup_nrf52.o(.text)
    PDM_IRQHandler                           0x000263db   Thumb Code     0  arm_startup_nrf52.o(.text)
    POWER_CLOCK_IRQHandler                   0x000263db   Thumb Code     0  arm_startup_nrf52.o(.text)
    PWM0_IRQHandler                          0x000263db   Thumb Code     0  arm_startup_nrf52.o(.text)
    PWM1_IRQHandler                          0x000263db   Thumb Code     0  arm_startup_nrf52.o(.text)
    PWM2_IRQHandler                          0x000263db   Thumb Code     0  arm_startup_nrf52.o(.text)
    QDEC_IRQHandler                          0x000263db   Thumb Code     0  arm_startup_nrf52.o(.text)
    RADIO_IRQHandler                         0x000263db   Thumb Code     0  arm_startup_nrf52.o(.text)
    RNG_IRQHandler                           0x000263db   Thumb Code     0  arm_startup_nrf52.o(.text)
    RTC0_IRQHandler                          0x000263db   Thumb Code     0  arm_startup_nrf52.o(.text)
    RTC2_IRQHandler                          0x000263db   Thumb Code     0  arm_startup_nrf52.o(.text)
    SAADC_IRQHandler                         0x000263db   Thumb Code     0  arm_startup_nrf52.o(.text)
    SPIM0_SPIS0_TWIM0_TWIS0_SPI0_TWI0_IRQHandler 0x000263db   Thumb Code     0  arm_startup_nrf52.o(.text)
    SPIM1_SPIS1_TWIM1_TWIS1_SPI1_TWI1_IRQHandler 0x000263db   Thumb Code     0  arm_startup_nrf52.o(.text)
    SPIM2_SPIS2_SPI2_IRQHandler              0x000263db   Thumb Code     0  arm_startup_nrf52.o(.text)
    SWI0_EGU0_IRQHandler                     0x000263db   Thumb Code     0  arm_startup_nrf52.o(.text)
    SWI1_EGU1_IRQHandler                     0x000263db   Thumb Code     0  arm_startup_nrf52.o(.text)
    SWI3_EGU3_IRQHandler                     0x000263db   Thumb Code     0  arm_startup_nrf52.o(.text)
    SWI4_EGU4_IRQHandler                     0x000263db   Thumb Code     0  arm_startup_nrf52.o(.text)
    SWI5_EGU5_IRQHandler                     0x000263db   Thumb Code     0  arm_startup_nrf52.o(.text)
    TEMP_IRQHandler                          0x000263db   Thumb Code     0  arm_startup_nrf52.o(.text)
    TIMER0_IRQHandler                        0x000263db   Thumb Code     0  arm_startup_nrf52.o(.text)
    TIMER1_IRQHandler                        0x000263db   Thumb Code     0  arm_startup_nrf52.o(.text)
    TIMER2_IRQHandler                        0x000263db   Thumb Code     0  arm_startup_nrf52.o(.text)
    TIMER3_IRQHandler                        0x000263db   Thumb Code     0  arm_startup_nrf52.o(.text)
    TIMER4_IRQHandler                        0x000263db   Thumb Code     0  arm_startup_nrf52.o(.text)
    WDT_IRQHandler                           0x000263db   Thumb Code     0  arm_startup_nrf52.o(.text)
    __rt_ctype_table                         0x000263e5   Thumb Code     4  ctype_o.o(.text)
    qsort                                    0x000263ed   Thumb Code   156  qsort.o(.text)
    ___aeabi_memcpy8$move                    0x00026489   Thumb Code     0  memmovea.o(.text)
    __aeabi_memcpy                           0x00026489   Thumb Code    64  memmovea.o(.text)
    __aeabi_memcpy4                          0x00026489   Thumb Code     0  memmovea.o(.text)
    __aeabi_memmove                          0x00026489   Thumb Code     0  memmovea.o(.text)
    __aeabi_memmove4                         0x00026489   Thumb Code     0  memmovea.o(.text)
    __aeabi_memmove8                         0x00026489   Thumb Code     0  memmovea.o(.text)
    __aeabi_memset                           0x000264c9   Thumb Code    14  memseta.o(.text)
    __aeabi_memset4                          0x000264c9   Thumb Code     0  memseta.o(.text)
    __aeabi_memset8                          0x000264c9   Thumb Code     0  memseta.o(.text)
    __aeabi_memclr                           0x000264d7   Thumb Code     4  memseta.o(.text)
    __aeabi_memclr4                          0x000264d7   Thumb Code     0  memseta.o(.text)
    __aeabi_memclr8                          0x000264d7   Thumb Code     0  memseta.o(.text)
    _memset$wrapper                          0x000264db   Thumb Code    18  memseta.o(.text)
    strlen                                   0x000264ed   Thumb Code    14  strlen.o(.text)
    strcmp                                   0x000264fb   Thumb Code    28  strcmp.o(.text)
    strcpy                                   0x00026517   Thumb Code    18  strcpy.o(.text)
    strncmp                                  0x00026529   Thumb Code    30  strncmp.o(.text)
    strtol                                   0x00026547   Thumb Code   112  strtol.o(.text)
    _strtoul                                 0x000265b7   Thumb Code   158  _strtoul.o(.text)
    __scatterload                            0x00026655   Thumb Code    28  init.o(.text)
    __scatterload_rt2                        0x00026655   Thumb Code     0  init.o(.text)
    _chval                                   0x00026679   Thumb Code    28  _chval.o(.text)
    __decompress                             0x00026695   Thumb Code     0  __dczerorl2.o(.text)
    __decompress1                            0x00026695   Thumb Code    86  __dczerorl2.o(.text)
    RTC1_IRQHandler                          0x000266ed   Thumb Code    12  drv_rtc.o(i.RTC1_IRQHandler)
    SWI2_EGU2_IRQHandler                     0x000266fd   Thumb Code     4  nrf_sdh.o(i.SWI2_EGU2_IRQHandler)
    SystemInit                               0x00026701   Thumb Code   660  system_nrf52.o(i.SystemInit)
    UARTE0_UART0_IRQHandler                  0x000269d9   Thumb Code     6  nrfx_prs.o(i.UARTE0_UART0_IRQHandler)
    __aeabi_errno_addr                       0x000269e5   Thumb Code     4  errno.o(i.__aeabi_errno_addr)
    __rt_errno_addr                          0x000269e5   Thumb Code     0  errno.o(i.__aeabi_errno_addr)
    __scatterload_copy                       0x000269ed   Thumb Code    14  handlers.o(i.__scatterload_copy)
    __scatterload_null                       0x000269fb   Thumb Code     2  handlers.o(i.__scatterload_null)
    __scatterload_zeroinit                   0x000269fd   Thumb Code    14  handlers.o(i.__scatterload_zeroinit)
    app_error_fault_handler                  0x00026a55   Thumb Code    98  app_error_weak.o(i.app_error_fault_handler)
    app_error_handler_bare                   0x00026ae9   Thumb Code    22  app_error.o(i.app_error_handler_bare)
    app_timer_cnt_get                        0x00026b01   Thumb Code     6  app_timer2.o(i.app_timer_cnt_get)
    app_timer_create                         0x00026b0d   Thumb Code    22  app_timer2.o(i.app_timer_create)
    app_timer_init                           0x00026b25   Thumb Code    70  app_timer2.o(i.app_timer_init)
    app_timer_start                          0x00026b81   Thumb Code    50  app_timer2.o(i.app_timer_start)
    app_timer_stop                           0x00026bb3   Thumb Code    14  app_timer2.o(i.app_timer_stop)
    app_util_critical_region_enter           0x00026bc1   Thumb Code    64  app_util_platform.o(i.app_util_critical_region_enter)
    app_util_critical_region_exit            0x00026c09   Thumb Code    46  app_util_platform.o(i.app_util_critical_region_exit)
    buffer_is_empty                          0x00026e59   Thumb Code    18  nrf_log_frontend.o(i.buffer_is_empty)
    cli_init                                 0x00027315   Thumb Code    58  cli.o(i.cli_init)
    cli_process                              0x000274c1   Thumb Code     6  cli.o(i.cli_process)
    cli_start                                0x000274dd   Thumb Code    22  cli.o(i.cli_start)
    crc16_compute                            0x00027e79   Thumb Code    54  crc16.o(i.crc16_compute)
    delete_all_begin                         0x00028179   Thumb Code     8  main.o(i.delete_all_begin)
    delete_all_process                       0x000281c5   Thumb Code    80  main.o(i.delete_all_process)
    drv_rtc_compare_disable                  0x00028359   Thumb Code    20  drv_rtc.o(i.drv_rtc_compare_disable)
    drv_rtc_compare_pending                  0x0002836d   Thumb Code    14  drv_rtc.o(i.drv_rtc_compare_pending)
    drv_rtc_compare_set                      0x0002837b   Thumb Code    80  drv_rtc.o(i.drv_rtc_compare_set)
    drv_rtc_counter_get                      0x000283cb   Thumb Code     8  drv_rtc.o(i.drv_rtc_counter_get)
    drv_rtc_init                             0x000283d5   Thumb Code   162  drv_rtc.o(i.drv_rtc_init)
    drv_rtc_irq_trigger                      0x000284c1   Thumb Code    30  drv_rtc.o(i.drv_rtc_irq_trigger)
    drv_rtc_overflow_enable                  0x000284df   Thumb Code     8  drv_rtc.o(i.drv_rtc_overflow_enable)
    drv_rtc_overflow_pending                 0x000284e7   Thumb Code     8  drv_rtc.o(i.drv_rtc_overflow_pending)
    drv_rtc_start                            0x000284ef   Thumb Code     8  drv_rtc.o(i.drv_rtc_start)
    drv_rtc_stop                             0x000284f7   Thumb Code     8  drv_rtc.o(i.drv_rtc_stop)
    drv_rtc_windowed_compare_set             0x000284ff   Thumb Code   222  drv_rtc.o(i.drv_rtc_windowed_compare_set)
    fds_err_str                              0x00028739   Thumb Code    16  main.o(i.fds_err_str)
    fds_gc                                   0x000288c1   Thumb Code    56  fds.o(i.fds_gc)
    fds_init                                 0x00028901   Thumb Code   206  fds.o(i.fds_init)
    fds_record_close                         0x000289e5   Thumb Code    66  fds.o(i.fds_record_close)
    fds_record_delete                        0x00028a2d   Thumb Code    64  fds.o(i.fds_record_delete)
    fds_record_find                          0x00028a71   Thumb Code    14  fds.o(i.fds_record_find)
    fds_record_iterate                       0x00028a7f   Thumb Code    12  fds.o(i.fds_record_iterate)
    fds_record_open                          0x00028a8d   Thumb Code   124  fds.o(i.fds_record_open)
    fds_record_update                        0x00028b0d   Thumb Code    16  fds.o(i.fds_record_update)
    fds_record_write                         0x00028b1d   Thumb Code     8  fds.o(i.fds_record_write)
    fds_register                             0x00028b25   Thumb Code    38  fds.o(i.fds_register)
    fds_stat                                 0x00028b55   Thumb Code   152  fds.o(i.fds_stat)
    main                                     0x00029b3d   Thumb Code   526  main.o(i.main)
    nrf_atfifo_clear                         0x0002a1f1   Thumb Code    16  nrf_atfifo.o(i.nrf_atfifo_clear)
    nrf_atfifo_init                          0x0002a201   Thumb Code    38  nrf_atfifo.o(i.nrf_atfifo_init)
    nrf_atfifo_item_alloc                    0x0002a227   Thumb Code    22  nrf_atfifo.o(i.nrf_atfifo_item_alloc)
    nrf_atfifo_item_free                     0x0002a23d   Thumb Code    22  nrf_atfifo.o(i.nrf_atfifo_item_free)
    nrf_atfifo_item_get                      0x0002a253   Thumb Code    22  nrf_atfifo.o(i.nrf_atfifo_item_get)
    nrf_atfifo_item_put                      0x0002a269   Thumb Code    22  nrf_atfifo.o(i.nrf_atfifo_item_put)
    nrf_atomic_flag_clear                    0x0002a27f   Thumb Code     6  nrf_atomic.o(i.nrf_atomic_flag_clear)
    nrf_atomic_flag_clear_fetch              0x0002a285   Thumb Code     6  nrf_atomic.o(i.nrf_atomic_flag_clear_fetch)
    nrf_atomic_flag_set                      0x0002a28b   Thumb Code     6  nrf_atomic.o(i.nrf_atomic_flag_set)
    nrf_atomic_flag_set_fetch                0x0002a291   Thumb Code     6  nrf_atomic.o(i.nrf_atomic_flag_set_fetch)
    nrf_atomic_u32_add                       0x0002a297   Thumb Code    12  nrf_atomic.o(i.nrf_atomic_u32_add)
    nrf_atomic_u32_and                       0x0002a2a3   Thumb Code    12  nrf_atomic.o(i.nrf_atomic_u32_and)
    nrf_atomic_u32_fetch_add                 0x0002a2af   Thumb Code    10  nrf_atomic.o(i.nrf_atomic_u32_fetch_add)
    nrf_atomic_u32_fetch_and                 0x0002a2b9   Thumb Code    10  nrf_atomic.o(i.nrf_atomic_u32_fetch_and)
    nrf_atomic_u32_fetch_or                  0x0002a2c3   Thumb Code    10  nrf_atomic.o(i.nrf_atomic_u32_fetch_or)
    nrf_atomic_u32_fetch_store               0x0002a2cd   Thumb Code    10  nrf_atomic.o(i.nrf_atomic_u32_fetch_store)
    nrf_atomic_u32_or                        0x0002a2d7   Thumb Code    12  nrf_atomic.o(i.nrf_atomic_u32_or)
    nrf_atomic_u32_sub                       0x0002a2e3   Thumb Code    12  nrf_atomic.o(i.nrf_atomic_u32_sub)
    nrf_balloc_alloc                         0x0002a2ef   Thumb Code    68  nrf_balloc.o(i.nrf_balloc_alloc)
    nrf_balloc_free                          0x0002a333   Thumb Code    48  nrf_balloc.o(i.nrf_balloc_free)
    nrf_balloc_init                          0x0002a363   Thumb Code    48  nrf_balloc.o(i.nrf_balloc_init)
    nrf_cli_cmd_cli_stats                    0x0002a5ad   Thumb Code    70  nrf_cli.o(i.nrf_cli_cmd_cli_stats)
    nrf_cli_cmd_cli_stats_reset              0x0002a619   Thumb Code    48  nrf_cli.o(i.nrf_cli_cmd_cli_stats_reset)
    nrf_cli_cmd_cli_stats_show               0x0002a649   Thumb Code    78  nrf_cli.o(i.nrf_cli_cmd_cli_stats_show)
    nrf_cli_fprintf                          0x0002a9f1   Thumb Code    80  nrf_cli.o(i.nrf_cli_fprintf)
    nrf_cli_help_print                       0x0002aa41   Thumb Code   552  nrf_cli.o(i.nrf_cli_help_print)
    nrf_cli_init                             0x0002acd5   Thumb Code    50  nrf_cli.o(i.nrf_cli_init)
    nrf_cli_print_stream                     0x0002adc9   Thumb Code     6  nrf_cli.o(i.nrf_cli_print_stream)
    nrf_cli_process                          0x0002add1   Thumb Code   110  nrf_cli.o(i.nrf_cli_process)
    nrf_cli_start                            0x0002ae45   Thumb Code    66  nrf_cli.o(i.nrf_cli_start)
    nrf_drv_uart_init                        0x0002ae8d   Thumb Code    90  nrf_drv_uart.o(i.nrf_drv_uart_init)
    nrf_fprintf                              0x0002af2d   Thumb Code    26  nrf_fprintf.o(i.nrf_fprintf)
    nrf_fprintf_buffer_flush                 0x0002af47   Thumb Code    24  nrf_fprintf.o(i.nrf_fprintf_buffer_flush)
    nrf_fprintf_fmt                          0x0002af5f   Thumb Code   474  nrf_fprintf_format.o(i.nrf_fprintf_fmt)
    nrf_fstorage_erase                       0x0002b139   Thumb Code   208  nrf_fstorage.o(i.nrf_fstorage_erase)
    nrf_fstorage_init                        0x0002b289   Thumb Code    82  nrf_fstorage.o(i.nrf_fstorage_init)
    nrf_fstorage_sdh_req_handler             0x0002b329   Thumb Code    18  nrf_fstorage_sd.o(i.nrf_fstorage_sdh_req_handler)
    nrf_fstorage_sdh_state_handler           0x0002b341   Thumb Code    28  nrf_fstorage_sd.o(i.nrf_fstorage_sdh_state_handler)
    nrf_fstorage_sys_evt_handler             0x0002b361   Thumb Code   154  nrf_fstorage_sd.o(i.nrf_fstorage_sys_evt_handler)
    nrf_fstorage_write                       0x0002b405   Thumb Code   276  nrf_fstorage.o(i.nrf_fstorage_write)
    nrf_log_backend_add                      0x0002b6bd   Thumb Code   134  nrf_log_frontend.o(i.nrf_log_backend_add)
    nrf_log_backend_serial_put               0x0002b7c7   Thumb Code   200  nrf_log_backend_serial.o(i.nrf_log_backend_serial_put)
    nrf_log_color_id_get                     0x0002b8d5   Thumb Code    42  nrf_log_frontend.o(i.nrf_log_color_id_get)
    nrf_log_config_load                      0x0002b905   Thumb Code   118  nrf_log_frontend.o(i.nrf_log_config_load)
    nrf_log_config_store                     0x0002b9b9   Thumb Code   138  nrf_log_frontend.o(i.nrf_log_config_store)
    nrf_log_frontend_dequeue                 0x0002bac5   Thumb Code   586  nrf_log_frontend.o(i.nrf_log_frontend_dequeue)
    nrf_log_frontend_std_0                   0x0002bd41   Thumb Code     8  nrf_log_frontend.o(i.nrf_log_frontend_std_0)
    nrf_log_frontend_std_1                   0x0002bd49   Thumb Code    14  nrf_log_frontend.o(i.nrf_log_frontend_std_1)
    nrf_log_frontend_std_2                   0x0002bd57   Thumb Code    16  nrf_log_frontend.o(i.nrf_log_frontend_std_2)
    nrf_log_frontend_std_3                   0x0002bd67   Thumb Code    18  nrf_log_frontend.o(i.nrf_log_frontend_std_3)
    nrf_log_hexdump_entry_process            0x0002bd79   Thumb Code   150  nrf_log_str_formatter.o(i.nrf_log_hexdump_entry_process)
    nrf_log_init                             0x0002be29   Thumb Code   130  nrf_log_frontend.o(i.nrf_log_init)
    nrf_log_module_cnt_get                   0x0002bec9   Thumb Code    10  nrf_log_frontend.o(i.nrf_log_module_cnt_get)
    nrf_log_module_filter_get                0x0002bedd   Thumb Code    64  nrf_log_frontend.o(i.nrf_log_module_filter_get)
    nrf_log_module_filter_set                0x0002bf25   Thumb Code    70  nrf_log_frontend.o(i.nrf_log_module_filter_set)
    nrf_log_module_name_get                  0x0002bf75   Thumb Code    24  nrf_log_frontend.o(i.nrf_log_module_name_get)
    nrf_log_panic                            0x0002bf91   Thumb Code    36  nrf_log_frontend.o(i.nrf_log_panic)
    nrf_log_std_entry_process                0x0002bfb9   Thumb Code   182  nrf_log_str_formatter.o(i.nrf_log_std_entry_process)
    nrf_memobj_alloc                         0x0002c06f   Thumb Code    96  nrf_memobj.o(i.nrf_memobj_alloc)
    nrf_memobj_free                          0x0002c0cf   Thumb Code    50  nrf_memobj.o(i.nrf_memobj_free)
    nrf_memobj_get                           0x0002c101   Thumb Code     8  nrf_memobj.o(i.nrf_memobj_get)
    nrf_memobj_pool_init                     0x0002c109   Thumb Code     4  nrf_memobj.o(i.nrf_memobj_pool_init)
    nrf_memobj_put                           0x0002c10d   Thumb Code    30  nrf_memobj.o(i.nrf_memobj_put)
    nrf_memobj_read                          0x0002c12b   Thumb Code    16  nrf_memobj.o(i.nrf_memobj_read)
    nrf_memobj_write                         0x0002c13b   Thumb Code    16  nrf_memobj.o(i.nrf_memobj_write)
    nrf_pwr_mgmt_feed                        0x0002c14b   Thumb Code     2  nrf_pwr_mgmt.o(i.nrf_pwr_mgmt_feed)
    nrf_queue_generic_pop                    0x0002c14d   Thumb Code   142  nrf_queue.o(i.nrf_queue_generic_pop)
    nrf_queue_is_empty                       0x0002c1db   Thumb Code    18  nrf_queue.o(i.nrf_queue_is_empty)
    nrf_queue_is_full                        0x0002c1ed   Thumb Code    30  nrf_queue.o(i.nrf_queue_is_full)
    nrf_queue_max_utilization_get            0x0002c20b   Thumb Code     6  nrf_queue.o(i.nrf_queue_max_utilization_get)
    nrf_queue_max_utilization_reset          0x0002c211   Thumb Code     8  nrf_queue.o(i.nrf_queue_max_utilization_reset)
    nrf_queue_push                           0x0002c227   Thumb Code   178  nrf_queue.o(i.nrf_queue_push)
    nrf_queue_utilization_get                0x0002c3b9   Thumb Code    36  nrf_queue.o(i.nrf_queue_utilization_get)
    nrf_ringbuf_alloc                        0x0002c3dd   Thumb Code   112  nrf_ringbuf.o(i.nrf_ringbuf_alloc)
    nrf_ringbuf_cpy_get                      0x0002c44d   Thumb Code   124  nrf_ringbuf.o(i.nrf_ringbuf_cpy_get)
    nrf_ringbuf_cpy_put                      0x0002c4c9   Thumb Code   114  nrf_ringbuf.o(i.nrf_ringbuf_cpy_put)
    nrf_ringbuf_free                         0x0002c53b   Thumb Code    38  nrf_ringbuf.o(i.nrf_ringbuf_free)
    nrf_ringbuf_get                          0x0002c561   Thumb Code   112  nrf_ringbuf.o(i.nrf_ringbuf_get)
    nrf_ringbuf_init                         0x0002c5d1   Thumb Code    28  nrf_ringbuf.o(i.nrf_ringbuf_init)
    nrf_ringbuf_put                          0x0002c5ed   Thumb Code    48  nrf_ringbuf.o(i.nrf_ringbuf_put)
    nrf_sdh_ble_app_ram_start_get            0x0002c629   Thumb Code    16  nrf_sdh_ble.o(i.nrf_sdh_ble_app_ram_start_get)
    nrf_sdh_ble_default_cfg_set              0x0002c63d   Thumb Code   248  nrf_sdh_ble.o(i.nrf_sdh_ble_default_cfg_set)
    nrf_sdh_ble_enable                       0x0002c755   Thumb Code   148  nrf_sdh_ble.o(i.nrf_sdh_ble_enable)
    nrf_sdh_disable_request                  0x0002c905   Thumb Code    80  nrf_sdh.o(i.nrf_sdh_disable_request)
    nrf_sdh_enable_request                   0x0002c959   Thumb Code   102  nrf_sdh.o(i.nrf_sdh_enable_request)
    nrf_sdh_evts_poll                        0x0002c9cd   Thumb Code    32  nrf_sdh.o(i.nrf_sdh_evts_poll)
    nrf_sdh_is_enabled                       0x0002c9f1   Thumb Code     6  nrf_sdh.o(i.nrf_sdh_is_enabled)
    nrf_sdh_request_continue                 0x0002c9fd   Thumb Code    22  nrf_sdh.o(i.nrf_sdh_request_continue)
    nrf_section_iter_init                    0x0002ca55   Thumb Code    10  nrf_section_iter.o(i.nrf_section_iter_init)
    nrf_section_iter_next                    0x0002ca83   Thumb Code    32  nrf_section_iter.o(i.nrf_section_iter_next)
    nrf_sortlist_add                         0x0002caa3   Thumb Code    34  nrf_sortlist.o(i.nrf_sortlist_add)
    nrf_sortlist_peek                        0x0002cac5   Thumb Code     6  nrf_sortlist.o(i.nrf_sortlist_peek)
    nrf_sortlist_pop                         0x0002cacb   Thumb Code    14  nrf_sortlist.o(i.nrf_sortlist_pop)
    nrf_sortlist_remove                      0x0002cad9   Thumb Code    30  nrf_sortlist.o(i.nrf_sortlist_remove)
    nrf_strerror_find                        0x0002caf9   Thumb Code    52  nrf_strerror.o(i.nrf_strerror_find)
    nrf_strerror_get                         0x0002cb31   Thumb Code    14  nrf_strerror.o(i.nrf_strerror_get)
    nrfx_prs_acquire                         0x0002cb9d   Thumb Code    58  nrfx_prs.o(i.nrfx_prs_acquire)
    nrfx_prs_release                         0x0002cbd7   Thumb Code    18  nrfx_prs.o(i.nrfx_prs_release)
    nrfx_uart_0_irq_handler                  0x0002cbe9   Thumb Code     8  nrfx_uart.o(i.nrfx_uart_0_irq_handler)
    nrfx_uart_init                           0x0002cbf9   Thumb Code   200  nrfx_uart.o(i.nrfx_uart_init)
    nrfx_uart_rx                             0x0002cccd   Thumb Code   230  nrfx_uart.o(i.nrfx_uart_rx)
    nrfx_uart_rx_abort                       0x0002cdb9   Thumb Code    18  nrfx_uart.o(i.nrfx_uart_rx_abort)
    nrfx_uart_tx                             0x0002cdcd   Thumb Code   162  nrfx_uart.o(i.nrfx_uart_tx)
    nrfx_uart_tx_in_progress                 0x0002ce75   Thumb Code    26  nrfx_uart.o(i.nrfx_uart_tx_in_progress)
    nrfx_uart_uninit                         0x0002ce95   Thumb Code   182  nrfx_uart.o(i.nrfx_uart_uninit)
    nrfx_uarte_0_irq_handler                 0x0002cf55   Thumb Code     8  nrfx_uarte.o(i.nrfx_uarte_0_irq_handler)
    nrfx_uarte_init                          0x0002cf65   Thumb Code   100  nrfx_uarte.o(i.nrfx_uarte_init)
    nrfx_uarte_rx                            0x0002cfd1   Thumb Code   256  nrfx_uarte.o(i.nrfx_uarte_rx)
    nrfx_uarte_rx_abort                      0x0002d0d5   Thumb Code    38  nrfx_uarte.o(i.nrfx_uarte_rx_abort)
    nrfx_uarte_tx                            0x0002d101   Thumb Code   166  nrfx_uarte.o(i.nrfx_uarte_tx)
    nrfx_uarte_tx_in_progress                0x0002d1ad   Thumb Code    22  nrfx_uarte.o(i.nrfx_uarte_tx_in_progress)
    nrfx_uarte_uninit                        0x0002d1c9   Thumb Code   254  nrfx_uarte.o(i.nrfx_uarte_uninit)
    nvmc_config                              0x0002d2d1   Thumb Code    14  system_nrf52.o(i.nvmc_config)
    record_delete_next                       0x0002dc4d   Thumb Code    44  cli.o(i.record_delete_next)
    nrf_cli_print_raw                        0x0002f02c   Data          16  cli.o(.constdata)
    nrf_cli_write_raw                        0x0002f03c   Data          16  cli.o(.constdata)
    nrf_cli_update_raw                       0x0002f04c   Data          16  cli.o(.constdata)
    nrf_cli_delete_raw                       0x0002f05c   Data          16  cli.o(.constdata)
    nrf_cli_delete_all_raw                   0x0002f06c   Data          16  cli.o(.constdata)
    nrf_cli_gc_raw                           0x0002f07c   Data          16  cli.o(.constdata)
    nrf_cli_stat_raw                         0x0002f08c   Data          16  cli.o(.constdata)
    nrf_cli_balloc_raw                       0x0002f118   Data          16  nrf_balloc.o(.constdata)
    nrf_log_backend_cli_api                  0x0002f128   Data          12  nrf_cli.o(.constdata)
    nrf_cli_clear_raw                        0x0002f24c   Data          16  nrf_cli.o(.constdata)
    nrf_cli_cli_raw                          0x0002f25c   Data          16  nrf_cli.o(.constdata)
    nrf_cli_history_raw                      0x0002f26c   Data          16  nrf_cli.o(.constdata)
    nrf_cli_resize_raw                       0x0002f27c   Data          16  nrf_cli.o(.constdata)
    nrf_cli_uart_transport_api               0x0002f2d8   Data          20  nrf_cli_uart.o(.constdata)
    nrf_fstorage_sd                          0x0002f36c   Data          32  nrf_fstorage_sd.o(.constdata)
    nrf_cli_queue_raw                        0x0002f3b4   Data          16  nrf_queue.o(.constdata)
    nrf_log_backend_uart_api                 0x0002f500   Data          12  nrf_log_backend_uart.o(.constdata)
    nrf_cli_log_raw                          0x0002f694   Data          16  nrf_log_frontend.o(.constdata)
    m_ram_start                              0x0002f71c   Data           4  nrf_sdh_ble.o(.constdata)
    __ctype_table                            0x0002f748   Data         129  ctype_o.o(.constdata)
    Region$$Table$$Base                      0x00030b80   Number         0  anon$$obj.o(Region$$Table)
    Region$$Table$$Limit                     0x00030ba0   Number         0  anon$$obj.o(Region$$Table)
    cli_command$$Base                        0x00030ba0   Number         0  cli.o(cli_command)
    nrf_cli_print_const                      0x00030ba0   Data           8  cli.o(cli_command)
    nrf_cli_write_const                      0x00030ba8   Data           8  cli.o(cli_command)
    nrf_cli_update_const                     0x00030bb0   Data           8  cli.o(cli_command)
    nrf_cli_delete_const                     0x00030bb8   Data           8  cli.o(cli_command)
    nrf_cli_delete_all_const                 0x00030bc0   Data           8  cli.o(cli_command)
    nrf_cli_gc_const                         0x00030bc8   Data           8  cli.o(cli_command)
    nrf_cli_stat_const                       0x00030bd0   Data           8  cli.o(cli_command)
    nrf_cli_balloc_const                     0x00030bd8   Data           8  nrf_balloc.o(cli_command)
    nrf_cli_clear_const                      0x00030be0   Data           8  nrf_cli.o(cli_command)
    nrf_cli_cli_const                        0x00030be8   Data           8  nrf_cli.o(cli_command)
    nrf_cli_history_const                    0x00030bf0   Data           8  nrf_cli.o(cli_command)
    nrf_cli_resize_const                     0x00030bf8   Data           8  nrf_cli.o(cli_command)
    nrf_cli_queue_const                      0x00030c00   Data           8  nrf_queue.o(cli_command)
    nrf_cli_log_const                        0x00030c08   Data           8  nrf_log_frontend.o(cli_command)
    cli_command$$Limit                       0x00030c10   Number         0  nrf_log_frontend.o(cli_command)
    log_backends$$Base                       0x00030c10   Number         0  cli.o(log_backends)
    log_backends$$Limit                      0x00030c30   Number         0  nrf_log_default_backends.o(log_backends)
    log_const_data$$Base                     0x00030c30   Number         0  cli.o(log_const_data)
    m_nrf_log_app_timer_cli_uart_timer_logs_data_const 0x00030c30   Data           8  cli.o(log_const_data)
    m_nrf_log_queue_m_cli_uart_log_backend_queue_logs_data_const 0x00030c38   Data           8  cli.o(log_const_data)
    m_nrf_log_balloc_m_cli_uart_cmd_hist_memobj_logs_data_const 0x00030c40   Data           8  cli.o(log_const_data)
    m_nrf_log_PRS_logs_data_const            0x00030c48   Data           8  nrfx_prs.o(log_const_data)
    m_nrf_log_UART_logs_data_const           0x00030c50   Data           8  nrfx_uart.o(log_const_data)
    m_nrf_log_UARTE_logs_data_const          0x00030c58   Data           8  nrfx_uarte.o(log_const_data)
    m_nrf_log_app_timer_logs_data_const      0x00030c60   Data           8  app_timer2.o(log_const_data)
    m_nrf_log_atfifo_m_req_fifo_logs_data_const 0x00030c68   Data           8  app_timer2.o(log_const_data)
    m_nrf_log_atfifo_m_queue_logs_data_const 0x00030c70   Data           8  fds.o(log_const_data)
    m_nrf_log_cli_uart_logs_data_const       0x00030c78   Data           8  nrf_cli_uart.o(log_const_data)
    m_nrf_log_nrf_fstorage_logs_data_const   0x00030c80   Data           8  nrf_fstorage.o(log_const_data)
    m_nrf_log_atfifo_m_fifo_logs_data_const  0x00030c88   Data           8  nrf_fstorage_sd.o(log_const_data)
    m_nrf_log_pwr_mgmt_logs_data_const       0x00030c90   Data           8  nrf_pwr_mgmt.o(log_const_data)
    m_nrf_log_sortlist_logs_data_const       0x00030c98   Data           8  nrf_sortlist.o(log_const_data)
    m_nrf_log_balloc_log_mempool_logs_data_const 0x00030ca0   Data           8  nrf_log_frontend.o(log_const_data)
    m_nrf_log_app_logs_data_const            0x00030ca8   Data           8  nrf_log_frontend.o(log_const_data)
    m_nrf_log_nrf_sdh_logs_data_const        0x00030cb0   Data           8  nrf_sdh.o(log_const_data)
    m_nrf_log_nrf_sdh_ble_logs_data_const    0x00030cb8   Data           8  nrf_sdh_ble.o(log_const_data)
    m_nrf_log_nrf_sdh_soc_logs_data_const    0x00030cc0   Data           8  nrf_sdh_soc.o(log_const_data)
    log_const_data$$Limit                    0x00030cc8   Number         0  nrf_sdh_soc.o(log_const_data)
    m_cli_uart_cmd_hist_memobj               0x00030cc8   Data          28  cli.o(nrf_balloc)
    nrf_balloc$$Base                         0x00030cc8   Number         0  cli.o(nrf_balloc)
    log_mempool                              0x00030ce4   Data          28  nrf_log_frontend.o(nrf_balloc)
    m_cli_uart_log_backend_queue             0x00030d00   Data          28  cli.o(nrf_queue)
    nrf_balloc$$Limit                        0x00030d00   Number         0  nrf_log_frontend.o(nrf_balloc)
    nrf_queue$$Base                          0x00030d00   Number         0  cli.o(nrf_queue)
    m_req_obs                                0x00030d1c   Data           8  nrf_fstorage_sd.o(sdh_req_observers0)
    nrf_queue$$Limit                         0x00030d1c   Number         0  cli.o(nrf_queue)
    sdh_req_observers0$$Base                 0x00030d1c   Number         0  nrf_fstorage_sd.o(sdh_req_observers0)
    sdh_req_observers0$$Limit                0x00030d24   Number         0  nrf_fstorage_sd.o(sdh_req_observers0)
    sdh_soc_observers0$$Base                 0x00030d24   Number         0  nrf_fstorage_sd.o(sdh_soc_observers0)
    sdh_soc_observers0$$Limit                0x00030d2c   Number         0  nrf_fstorage_sd.o(sdh_soc_observers0)
    sdh_stack_observers0$$Base               0x00030d2c   Number         0  nrf_sdh_ble.o(sdh_stack_observers0)
    sdh_stack_observers0$$Limit              0x00030d3c   Number         0  nrf_sdh_soc.o(sdh_stack_observers0)
    sdh_state_observers0$$Base               0x00030d3c   Number         0  nrf_fstorage_sd.o(sdh_state_observers0)
    sdh_state_observers0$$Limit              0x00030d44   Number         0  nrf_fstorage_sd.o(sdh_state_observers0)
    Image$$RW_IRAM1$$Base                    0x20002250   Number         0  anon$$obj.o ABSOLUTE
    nrf_drv_uart_use_easy_dma                0x20002324   Data           1  nrf_drv_uart.o(.data)
    m_uart                                   0x200023e4   Data          20  nrf_log_backend_uart.o(.data)
    SystemCoreClock                          0x20002480   Data           4  system_nrf52.o(.data)
    cli_sorted_cmd_ptrs$$Base                0x20002488   Number         0  cli.o(cli_sorted_cmd_ptrs)
    print_str_ptr                            0x20002488   Data           4  cli.o(cli_sorted_cmd_ptrs)
    write_str_ptr                            0x2000248c   Data           4  cli.o(cli_sorted_cmd_ptrs)
    update_str_ptr                           0x20002490   Data           4  cli.o(cli_sorted_cmd_ptrs)
    delete_str_ptr                           0x20002494   Data           4  cli.o(cli_sorted_cmd_ptrs)
    delete_all_str_ptr                       0x20002498   Data           4  cli.o(cli_sorted_cmd_ptrs)
    gc_str_ptr                               0x2000249c   Data           4  cli.o(cli_sorted_cmd_ptrs)
    stat_str_ptr                             0x200024a0   Data           4  cli.o(cli_sorted_cmd_ptrs)
    balloc_str_ptr                           0x200024a4   Data           4  nrf_balloc.o(cli_sorted_cmd_ptrs)
    clear_str_ptr                            0x200024a8   Data           4  nrf_cli.o(cli_sorted_cmd_ptrs)
    cli_str_ptr                              0x200024ac   Data           4  nrf_cli.o(cli_sorted_cmd_ptrs)
    history_str_ptr                          0x200024b0   Data           4  nrf_cli.o(cli_sorted_cmd_ptrs)
    resize_str_ptr                           0x200024b4   Data           4  nrf_cli.o(cli_sorted_cmd_ptrs)
    queue_str_ptr                            0x200024b8   Data           4  nrf_queue.o(cli_sorted_cmd_ptrs)
    log_str_ptr                              0x200024bc   Data           4  nrf_log_frontend.o(cli_sorted_cmd_ptrs)
    fs_data$$Base                            0x200024c0   Number         0  fds.o(fs_data)
    m_fs                                     0x200024c0   Data          20  fds.o(fs_data)
    fs_data$$Limit                           0x200024d4   Number         0  fds.o(fs_data)
    log_dynamic_data$$Base                   0x200024d4   Number         0  cli.o(log_dynamic_data)
    m_nrf_log_app_timer_cli_uart_timer_logs_data_dynamic 0x200024d4   Data           4  cli.o(log_dynamic_data)
    m_nrf_log_queue_m_cli_uart_log_backend_queue_logs_data_dynamic 0x200024d8   Data           4  cli.o(log_dynamic_data)
    m_nrf_log_balloc_m_cli_uart_cmd_hist_memobj_logs_data_dynamic 0x200024dc   Data           4  cli.o(log_dynamic_data)
    m_nrf_log_PRS_logs_data_dynamic          0x200024e0   Data           4  nrfx_prs.o(log_dynamic_data)
    m_nrf_log_UART_logs_data_dynamic         0x200024e4   Data           4  nrfx_uart.o(log_dynamic_data)
    m_nrf_log_UARTE_logs_data_dynamic        0x200024e8   Data           4  nrfx_uarte.o(log_dynamic_data)
    m_nrf_log_app_timer_logs_data_dynamic    0x200024ec   Data           4  app_timer2.o(log_dynamic_data)
    m_nrf_log_atfifo_m_req_fifo_logs_data_dynamic 0x200024f0   Data           4  app_timer2.o(log_dynamic_data)
    m_nrf_log_atfifo_m_queue_logs_data_dynamic 0x200024f4   Data           4  fds.o(log_dynamic_data)
    m_nrf_log_cli_uart_logs_data_dynamic     0x200024f8   Data           4  nrf_cli_uart.o(log_dynamic_data)
    m_nrf_log_nrf_fstorage_logs_data_dynamic 0x200024fc   Data           4  nrf_fstorage.o(log_dynamic_data)
    m_nrf_log_atfifo_m_fifo_logs_data_dynamic 0x20002500   Data           4  nrf_fstorage_sd.o(log_dynamic_data)
    m_nrf_log_pwr_mgmt_logs_data_dynamic     0x20002504   Data           4  nrf_pwr_mgmt.o(log_dynamic_data)
    m_nrf_log_sortlist_logs_data_dynamic     0x20002508   Data           4  nrf_sortlist.o(log_dynamic_data)
    m_nrf_log_balloc_log_mempool_logs_data_dynamic 0x2000250c   Data           4  nrf_log_frontend.o(log_dynamic_data)
    m_nrf_log_app_logs_data_dynamic          0x20002510   Data           4  nrf_log_frontend.o(log_dynamic_data)
    m_nrf_log_nrf_sdh_logs_data_dynamic      0x20002514   Data           4  nrf_sdh.o(log_dynamic_data)
    m_nrf_log_nrf_sdh_ble_logs_data_dynamic  0x20002518   Data           4  nrf_sdh_ble.o(log_dynamic_data)
    m_nrf_log_nrf_sdh_soc_logs_data_dynamic  0x2000251c   Data           4  nrf_sdh_soc.o(log_dynamic_data)
    log_filter_data$$Base                    0x20002520   Number         0  cli.o(log_filter_data)
    m_nrf_log_app_timer_cli_uart_timer_logs_data_filter 0x20002520   Data           4  cli.o(log_filter_data)
    m_nrf_log_queue_m_cli_uart_log_backend_queue_logs_data_filter 0x20002524   Data           4  cli.o(log_filter_data)
    m_nrf_log_balloc_m_cli_uart_cmd_hist_memobj_logs_data_filter 0x20002528   Data           4  cli.o(log_filter_data)
    m_nrf_log_PRS_logs_data_filter           0x2000252c   Data           4  nrfx_prs.o(log_filter_data)
    m_nrf_log_UART_logs_data_filter          0x20002530   Data           4  nrfx_uart.o(log_filter_data)
    m_nrf_log_UARTE_logs_data_filter         0x20002534   Data           4  nrfx_uarte.o(log_filter_data)
    m_nrf_log_app_timer_logs_data_filter     0x20002538   Data           4  app_timer2.o(log_filter_data)
    m_nrf_log_atfifo_m_req_fifo_logs_data_filter 0x2000253c   Data           4  app_timer2.o(log_filter_data)
    m_nrf_log_atfifo_m_queue_logs_data_filter 0x20002540   Data           4  fds.o(log_filter_data)
    m_nrf_log_cli_uart_logs_data_filter      0x20002544   Data           4  nrf_cli_uart.o(log_filter_data)
    m_nrf_log_nrf_fstorage_logs_data_filter  0x20002548   Data           4  nrf_fstorage.o(log_filter_data)
    m_nrf_log_atfifo_m_fifo_logs_data_filter 0x2000254c   Data           4  nrf_fstorage_sd.o(log_filter_data)
    m_nrf_log_pwr_mgmt_logs_data_filter      0x20002550   Data           4  nrf_pwr_mgmt.o(log_filter_data)
    m_nrf_log_sortlist_logs_data_filter      0x20002554   Data           4  nrf_sortlist.o(log_filter_data)
    m_nrf_log_balloc_log_mempool_logs_data_filter 0x20002558   Data           4  nrf_log_frontend.o(log_filter_data)
    m_nrf_log_app_logs_data_filter           0x2000255c   Data           4  nrf_log_frontend.o(log_filter_data)
    m_nrf_log_nrf_sdh_logs_data_filter       0x20002560   Data           4  nrf_sdh.o(log_filter_data)
    m_nrf_log_nrf_sdh_ble_logs_data_filter   0x20002564   Data           4  nrf_sdh_ble.o(log_filter_data)
    m_nrf_log_nrf_sdh_soc_logs_data_filter   0x20002568   Data           4  nrf_sdh_soc.o(log_filter_data)
    log_filter_data$$Limit                   0x2000256c   Number         0  nrf_sdh_soc.o(log_filter_data)
    nrf_nvic_state                           0x20002ac4   Data          12  app_util_platform.o(.bss)
    __initial_sp                             0x20007208   Data           0  arm_startup_nrf52.o(STACK)



==============================================================================

Memory Map of the image

  Image Entry point : 0x00026201

  Load Region LR_IROM1 (Base: 0x00026000, Size: 0x0000b060, Max: 0x0005a000, ABSOLUTE, COMPRESSED[0x0000ae14])

    Execution Region ER_IROM1 (Exec base: 0x00026000, Load base: 0x00026000, Size: 0x0000ad44, Max: 0x0005a000, ABSOLUTE)

    Exec Addr    Load Addr    Size         Type   Attr      Idx    E Section Name        Object

    0x00026000   0x00026000   0x00000200   Data   RO         4571    RESET               arm_startup_nrf52.o
    0x00026200   0x00026200   0x00000000   Code   RO         4640  * .ARM.Collect$$$$00000000  mc_w.l(entry.o)
    0x00026200   0x00026200   0x00000004   Code   RO         4697    .ARM.Collect$$$$00000001  mc_w.l(entry2.o)
    0x00026204   0x00026204   0x00000004   Code   RO         4700    .ARM.Collect$$$$00000004  mc_w.l(entry5.o)
    0x00026208   0x00026208   0x00000000   Code   RO         4702    .ARM.Collect$$$$00000008  mc_w.l(entry7b.o)
    0x00026208   0x00026208   0x00000000   Code   RO         4704    .ARM.Collect$$$$0000000A  mc_w.l(entry8b.o)
    0x00026208   0x00026208   0x00000008   Code   RO         4705    .ARM.Collect$$$$0000000B  mc_w.l(entry9a.o)
    0x00026210   0x00026210   0x00000000   Code   RO         4707    .ARM.Collect$$$$0000000D  mc_w.l(entry10a.o)
    0x00026210   0x00026210   0x00000000   Code   RO         4709    .ARM.Collect$$$$0000000F  mc_w.l(entry11a.o)
    0x00026210   0x00026210   0x00000004   Code   RO         4698    .ARM.Collect$$$$00002712  mc_w.l(entry2.o)
    0x00026214   0x00026214   0x000000c8   Code   RO         2268    .emb_text           nrf_atfifo.o
    0x000262dc   0x000262dc   0x000000e2   Code   RO         2338    .emb_text           nrf_atomic.o
    0x000263be   0x000263be   0x00000002   PAD
    0x000263c0   0x000263c0   0x00000024   Code   RO         4572    .text               arm_startup_nrf52.o
    0x000263e4   0x000263e4   0x00000008   Code   RO         4643    .text               mc_w.l(ctype_o.o)
    0x000263ec   0x000263ec   0x0000009c   Code   RO         4673    .text               mc_w.l(qsort.o)
    0x00026488   0x00026488   0x00000040   Code   RO         4677    .text               mc_w.l(memmovea.o)
    0x000264c8   0x000264c8   0x00000024   Code   RO         4679    .text               mc_w.l(memseta.o)
    0x000264ec   0x000264ec   0x0000000e   Code   RO         4683    .text               mc_w.l(strlen.o)
    0x000264fa   0x000264fa   0x0000001c   Code   RO         4685    .text               mc_w.l(strcmp.o)
    0x00026516   0x00026516   0x00000012   Code   RO         4687    .text               mc_w.l(strcpy.o)
    0x00026528   0x00026528   0x0000001e   Code   RO         4689    .text               mc_w.l(strncmp.o)
    0x00026546   0x00026546   0x00000070   Code   RO         4695    .text               mc_w.l(strtol.o)
    0x000265b6   0x000265b6   0x0000009e   Code   RO         4718    .text               mc_w.l(_strtoul.o)
    0x00026654   0x00026654   0x00000024   Code   RO         4720    .text               mc_w.l(init.o)
    0x00026678   0x00026678   0x0000001c   Code   RO         4722    .text               mc_w.l(_chval.o)
    0x00026694   0x00026694   0x00000056   Code   RO         4732    .text               mc_w.l(__dczerorl2.o)
    0x000266ea   0x000266ea   0x00000002   PAD
    0x000266ec   0x000266ec   0x00000010   Code   RO         1710    i.RTC1_IRQHandler   drv_rtc.o
    0x000266fc   0x000266fc   0x00000004   Code   RO         4344    i.SWI2_EGU2_IRQHandler  nrf_sdh.o
    0x00026700   0x00026700   0x000002d8   Code   RO         4580    i.SystemInit        system_nrf52.o
    0x000269d8   0x000269d8   0x0000000c   Code   RO          860    i.UARTE0_UART0_IRQHandler  nrfx_prs.o
    0x000269e4   0x000269e4   0x00000008   Code   RO         4711    i.__aeabi_errno_addr  mc_w.l(errno.o)
    0x000269ec   0x000269ec   0x0000000e   Code   RO         4726    i.__scatterload_copy  mc_w.l(handlers.o)
    0x000269fa   0x000269fa   0x00000002   Code   RO         4727    i.__scatterload_null  mc_w.l(handlers.o)
    0x000269fc   0x000269fc   0x0000000e   Code   RO         4728    i.__scatterload_zeroinit  mc_w.l(handlers.o)
    0x00026a0a   0x00026a0a   0x00000002   PAD
    0x00026a0c   0x00026a0c   0x00000024   Code   RO         4345    i.__sd_nvic_app_accessible_irq  nrf_sdh.o
    0x00026a30   0x00026a30   0x0000000c   Code   RO         3151    i.addr_is_aligned32  nrf_fstorage.o
    0x00026a3c   0x00026a3c   0x00000018   Code   RO         3152    i.addr_is_within_bounds  nrf_fstorage.o
    0x00026a54   0x00026a54   0x00000094   Code   RO         1355    i.app_error_fault_handler  app_error_weak.o
    0x00026ae8   0x00026ae8   0x00000016   Code   RO         1282    i.app_error_handler_bare  app_error.o
    0x00026afe   0x00026afe   0x00000002   PAD
    0x00026b00   0x00026b00   0x0000000c   Code   RO         1470    i.app_timer_cnt_get  app_timer2.o
    0x00026b0c   0x00026b0c   0x00000016   Code   RO         1471    i.app_timer_create  app_timer2.o
    0x00026b22   0x00026b22   0x00000002   PAD
    0x00026b24   0x00026b24   0x0000005c   Code   RO         1472    i.app_timer_init    app_timer2.o
    0x00026b80   0x00026b80   0x00000032   Code   RO         1475    i.app_timer_start   app_timer2.o
    0x00026bb2   0x00026bb2   0x0000000e   Code   RO         1476    i.app_timer_stop    app_timer2.o
    0x00026bc0   0x00026bc0   0x00000048   Code   RO         1615    i.app_util_critical_region_enter  app_util_platform.o
    0x00026c08   0x00026c08   0x00000034   Code   RO         1616    i.app_util_critical_region_exit  app_util_platform.o
    0x00026c3c   0x00026c3c   0x00000088   Code   RO          931    i.apply_config      nrfx_uart.o
    0x00026cc4   0x00026cc4   0x00000088   Code   RO         1124    i.apply_config      nrfx_uarte.o
    0x00026d4c   0x00026d4c   0x00000048   Code   RO         3965    i.backend_name_get  nrf_log_frontend.o
    0x00026d94   0x00026d94   0x00000094   Code   RO         3966    i.buf_prealloc      nrf_log_frontend.o
    0x00026e28   0x00026e28   0x0000002e   Code   RO         3111    i.buffer_add        nrf_fprintf_format.o
    0x00026e56   0x00026e56   0x00000002   PAD
    0x00026e58   0x00026e58   0x00000018   Code   RO         3967    i.buffer_is_empty   nrf_log_frontend.o
    0x00026e70   0x00026e70   0x000000b8   Code   RO         2539    i.char_backspace    nrf_cli.o
    0x00026f28   0x00026f28   0x00000094   Code   RO         2540    i.char_delete       nrf_cli.o
    0x00026fbc   0x00026fbc   0x00000140   Code   RO         2541    i.char_insert       nrf_cli.o
    0x000270fc   0x000270fc   0x00000014   Code   RO         2542    i.cli_clear_eos     nrf_cli.o
    0x00027110   0x00027110   0x00000014   Code   RO         2543    i.cli_cursor_restore  nrf_cli.o
    0x00027124   0x00027124   0x00000014   Code   RO         2544    i.cli_cursor_save   nrf_cli.o
    0x00027138   0x00027138   0x000001d0   Code   RO         2545    i.cli_execute       nrf_cli.o
    0x00027308   0x00027308   0x0000000c   Code   RO         2546    i.cli_flag_echo_is_set  nrf_cli.o
    0x00027314   0x00027314   0x00000040   Code   RO            4    i.cli_init          cli.o
    0x00027354   0x00027354   0x0000016c   Code   RO         2547    i.cli_log_entry_process  nrf_cli.o
    0x000274c0   0x000274c0   0x0000000c   Code   RO            5    i.cli_process       cli.o
    0x000274cc   0x000274cc   0x0000000e   Code   RO         2548    i.cli_read          nrf_cli.o
    0x000274da   0x000274da   0x00000002   PAD
    0x000274dc   0x000274dc   0x0000001c   Code   RO            6    i.cli_start         cli.o
    0x000274f8   0x000274f8   0x00000274   Code   RO         2549    i.cli_state_collect  nrf_cli.o
    0x0002776c   0x0002776c   0x00000028   Code   RO         2550    i.cli_state_set     nrf_cli.o
    0x00027794   0x00027794   0x0000000a   Code   RO         2551    i.cli_strlen        nrf_cli.o
    0x0002779e   0x0002779e   0x00000002   PAD
    0x000277a0   0x000277a0   0x00000318   Code   RO         2552    i.cli_tab_handle    nrf_cli.o
    0x00027ab8   0x00027ab8   0x00000014   Code   RO         2553    i.cli_transport_evt_handler  nrf_cli.o
    0x00027acc   0x00027acc   0x0000006c   Code   RO         2983    i.cli_uart_enable   nrf_cli_uart.o
    0x00027b38   0x00027b38   0x0000004c   Code   RO         2984    i.cli_uart_init     nrf_cli_uart.o
    0x00027b84   0x00027b84   0x0000000a   Code   RO         2985    i.cli_uart_read     nrf_cli_uart.o
    0x00027b8e   0x00027b8e   0x00000016   Code   RO         2986    i.cli_uart_uninit   nrf_cli_uart.o
    0x00027ba4   0x00027ba4   0x00000068   Code   RO         2987    i.cli_uart_write    nrf_cli_uart.o
    0x00027c0c   0x00027c0c   0x00000058   Code   RO         2554    i.cli_write         nrf_cli.o
    0x00027c64   0x00027c64   0x00000044   Code   RO            7    i.cli_wrong_param_count_help  cli.o
    0x00027ca8   0x00027ca8   0x00000088   Code   RO         2555    i.cmd_get           nrf_cli.o
    0x00027d30   0x00027d30   0x0000009a   Code   RO         2556    i.cmd_trim          nrf_cli.o
    0x00027dca   0x00027dca   0x00000018   Code   RO         1478    i.compare_func      app_timer2.o
    0x00027de2   0x00027de2   0x00000002   PAD
    0x00027de4   0x00027de4   0x00000094   Code   RO         2557    i.completion_insert  nrf_cli.o
    0x00027e78   0x00027e78   0x00000036   Code   RO         1683    i.crc16_compute     crc16.o
    0x00027eae   0x00027eae   0x00000002   PAD
    0x00027eb0   0x00027eb0   0x00000018   Code   RO         2558    i.cursor_down_move  nrf_cli.o
    0x00027ec8   0x00027ec8   0x00000052   Code   RO         2559    i.cursor_end_position_move  nrf_cli.o
    0x00027f1a   0x00027f1a   0x00000054   Code   RO         2560    i.cursor_home_position_move  nrf_cli.o
    0x00027f6e   0x00027f6e   0x00000026   Code   RO         2561    i.cursor_in_empty_line  nrf_cli.o
    0x00027f94   0x00027f94   0x00000018   Code   RO         2562    i.cursor_left_move  nrf_cli.o
    0x00027fac   0x00027fac   0x0000000c   Code   RO         2563    i.cursor_next_line_move  nrf_cli.o
    0x00027fb8   0x00027fb8   0x00000124   Code   RO         2564    i.cursor_position_get  nrf_cli.o
    0x000280dc   0x000280dc   0x0000006a   Code   RO         2565    i.cursor_position_synchronize  nrf_cli.o
    0x00028146   0x00028146   0x00000002   PAD
    0x00028148   0x00028148   0x00000018   Code   RO         2566    i.cursor_right_move  nrf_cli.o
    0x00028160   0x00028160   0x00000018   Code   RO         2567    i.cursor_up_move    nrf_cli.o
    0x00028178   0x00028178   0x0000000c   Code   RO          417    i.delete_all_begin  main.o
    0x00028184   0x00028184   0x00000040   Code   RO            8    i.delete_all_cmd    cli.o
    0x000281c4   0x000281c4   0x0000009c   Code   RO          418    i.delete_all_process  main.o
    0x00028260   0x00028260   0x00000058   Code   RO            9    i.delete_cmd        cli.o
    0x000282b8   0x000282b8   0x0000008c   Code   RO         1879    i.delete_execute    fds.o
    0x00028344   0x00028344   0x00000014   Code   RO         3968    i.dropped_sat16_get  nrf_log_frontend.o
    0x00028358   0x00028358   0x00000014   Code   RO         1711    i.drv_rtc_compare_disable  drv_rtc.o
    0x0002836c   0x0002836c   0x0000000e   Code   RO         1714    i.drv_rtc_compare_pending  drv_rtc.o
    0x0002837a   0x0002837a   0x00000050   Code   RO         1715    i.drv_rtc_compare_set  drv_rtc.o
    0x000283ca   0x000283ca   0x00000008   Code   RO         1716    i.drv_rtc_counter_get  drv_rtc.o
    0x000283d2   0x000283d2   0x00000002   PAD
    0x000283d4   0x000283d4   0x000000ec   Code   RO         1717    i.drv_rtc_init      drv_rtc.o
    0x000284c0   0x000284c0   0x0000001e   Code   RO         1718    i.drv_rtc_irq_trigger  drv_rtc.o
    0x000284de   0x000284de   0x00000008   Code   RO         1720    i.drv_rtc_overflow_enable  drv_rtc.o
    0x000284e6   0x000284e6   0x00000008   Code   RO         1721    i.drv_rtc_overflow_pending  drv_rtc.o
    0x000284ee   0x000284ee   0x00000008   Code   RO         1722    i.drv_rtc_start     drv_rtc.o
    0x000284f6   0x000284f6   0x00000008   Code   RO         1723    i.drv_rtc_stop      drv_rtc.o
    0x000284fe   0x000284fe   0x000000de   Code   RO         1728    i.drv_rtc_windowed_compare_set  drv_rtc.o
    0x000285dc   0x000285dc   0x0000004c   Code   RO         3236    i.erase             nrf_fstorage_sd.o
    0x00028628   0x00028628   0x00000074   Code   RO         1880    i.event_prepare     fds.o
    0x0002869c   0x0002869c   0x00000020   Code   RO         1881    i.event_send        fds.o
    0x000286bc   0x000286bc   0x00000054   Code   RO         3237    i.event_send        nrf_fstorage_sd.o
    0x00028710   0x00028710   0x00000012   Code   RO         1729    i.evt_enable        drv_rtc.o
    0x00028722   0x00028722   0x00000014   Code   RO         1730    i.evt_pending       drv_rtc.o
    0x00028736   0x00028736   0x00000002   PAD
    0x00028738   0x00028738   0x00000014   Code   RO          419    i.fds_err_str       main.o
    0x0002874c   0x0002874c   0x00000174   Code   RO          420    i.fds_evt_handler   main.o
    0x000288c0   0x000288c0   0x00000040   Code   RO         1884    i.fds_gc            fds.o
    0x00028900   0x00028900   0x000000e4   Code   RO         1885    i.fds_init          fds.o
    0x000289e4   0x000289e4   0x00000048   Code   RO         1886    i.fds_record_close  fds.o
    0x00028a2c   0x00028a2c   0x00000044   Code   RO         1887    i.fds_record_delete  fds.o
    0x00028a70   0x00028a70   0x0000000e   Code   RO         1888    i.fds_record_find   fds.o
    0x00028a7e   0x00028a7e   0x0000000c   Code   RO         1892    i.fds_record_iterate  fds.o
    0x00028a8a   0x00028a8a   0x00000002   PAD
    0x00028a8c   0x00028a8c   0x00000080   Code   RO         1893    i.fds_record_open   fds.o
    0x00028b0c   0x00028b0c   0x00000010   Code   RO         1894    i.fds_record_update  fds.o
    0x00028b1c   0x00028b1c   0x00000008   Code   RO         1895    i.fds_record_write  fds.o
    0x00028b24   0x00028b24   0x00000030   Code   RO         1897    i.fds_register      fds.o
    0x00028b54   0x00028b54   0x000000a0   Code   RO         1900    i.fds_stat          fds.o
    0x00028bf4   0x00028bf4   0x000000f2   Code   RO         2568    i.format_offset_string_print  nrf_cli.o
    0x00028ce6   0x00028ce6   0x00000006   Code   RO         1901    i.fs_event_handler  fds.o
    0x00028cec   0x00028cec   0x00000026   Code   RO         2569    i.full_line_cmd     nrf_cli.o
    0x00028d12   0x00028d12   0x00000002   PAD
    0x00028d14   0x00028d14   0x0000004c   Code   RO           10    i.gc_cmd            cli.o
    0x00028d60   0x00028d60   0x00000080   Code   RO         1902    i.gc_execute        fds.o
    0x00028de0   0x00028de0   0x0000004c   Code   RO         1903    i.gc_next_page      fds.o
    0x00028e2c   0x00028e2c   0x00000040   Code   RO         1904    i.gc_page_erase     fds.o
    0x00028e6c   0x00028e6c   0x00000034   Code   RO         1905    i.gc_record_copy    fds.o
    0x00028ea0   0x00028ea0   0x00000024   Code   RO         1906    i.gc_record_find_next  fds.o
    0x00028ec4   0x00028ec4   0x00000070   Code   RO         1907    i.gc_state_advance  fds.o
    0x00028f34   0x00028f34   0x00000030   Code   RO         1908    i.gc_swap_pages     fds.o
    0x00028f64   0x00028f64   0x00000034   Code   RO         1479    i.get_now           app_timer2.o
    0x00028f98   0x00028f98   0x0000002c   Code   RO         1909    i.header_check      fds.o
    0x00028fc4   0x00028fc4   0x00000012   Code   RO         1910    i.header_has_next   fds.o
    0x00028fd6   0x00028fd6   0x00000002   PAD
    0x00028fd8   0x00028fd8   0x00000144   Code   RO         2570    i.history_handle    nrf_cli.o
    0x0002911c   0x0002911c   0x00000078   Code   RO         2571    i.history_list_element_add  nrf_cli.o
    0x00029194   0x00029194   0x00000068   Code   RO         2572    i.history_list_element_oldest_remove  nrf_cli.o
    0x000291fc   0x000291fc   0x00000086   Code   RO         2573    i.history_save      nrf_cli.o
    0x00029282   0x00029282   0x00000002   PAD
    0x00029284   0x00029284   0x00000034   Code   RO         3238    i.init              nrf_fstorage_sd.o
    0x000292b8   0x000292b8   0x000000c8   Code   RO         1911    i.init_execute      fds.o
    0x00029380   0x00029380   0x000000a6   Code   RO         3112    i.int_print         nrf_fprintf_format.o
    0x00029426   0x00029426   0x00000002   PAD
    0x00029428   0x00029428   0x00000088   Code   RO         1125    i.interrupts_enable  nrfx_uarte.o
    0x000294b0   0x000294b0   0x00000034   Code   RO         3969    i.invalid_packets_omit  nrf_log_frontend.o
    0x000294e4   0x000294e4   0x00000010   Code   RO         3239    i.is_busy           nrf_fstorage_sd.o
    0x000294f4   0x000294f4   0x00000010   Code   RO         2574    i.is_completion_candidate  nrf_cli.o
    0x00029504   0x00029504   0x0000000c   Code   RO         1912    i.is_word_aligned   fds.o
