Component: ARM Compiler 5.06 update 6 (build 750) Tool: armlink [4d35ed]

==============================================================================

Section Cross References

    main.o(i.flash_page_init) refers to nrf_nvmc.o(i.nrf_nvmc_page_erase) for nrf_nvmc_page_erase
    main.o(i.flash_page_init) refers to main.o(.bss) for .bss
    main.o(i.flashwrite_cmd) refers to nrf_cli.o(i.nrf_cli_help_print) for nrf_cli_help_print
    main.o(i.flashwrite_cmd) refers to nrf_cli.o(i.nrf_cli_fprintf) for nrf_cli_fprintf
    main.o(i.flashwrite_erase_cmd) refers to nrf_nvmc.o(i.nrf_nvmc_page_erase) for nrf_nvmc_page_erase
    main.o(i.flashwrite_erase_cmd) refers to main.o(.bss) for .bss
    main.o(i.flashwrite_read_cmd) refers to nrf_cli.o(i.nrf_cli_fprintf) for nrf_cli_fprintf
    main.o(i.flashwrite_read_cmd) refers to main.o(.bss) for .bss
    main.o(i.flashwrite_write_cmd) refers to nrf_cli.o(i.nrf_cli_fprintf) for nrf_cli_fprintf
    main.o(i.flashwrite_write_cmd) refers to strlen.o(.text) for strlen
    main.o(i.flashwrite_write_cmd) refers to nrf_nvmc.o(i.nrf_nvmc_write_word) for nrf_nvmc_write_word
    main.o(i.flashwrite_write_cmd) refers to main.o(.bss) for .bss
    main.o(i.main) refers to nrf_log_frontend.o(i.nrf_log_init) for nrf_log_init
    main.o(i.main) refers to app_error.o(i.app_error_handler_bare) for app_error_handler_bare
    main.o(i.main) refers to app_timer2.o(i.app_timer_init) for app_timer_init
    main.o(i.main) refers to nrf_drv_clock.o(i.nrf_drv_clock_init) for nrf_drv_clock_init
    main.o(i.main) refers to nrf_drv_clock.o(i.nrf_drv_clock_lfclk_request) for nrf_drv_clock_lfclk_request
    main.o(i.main) refers to main.o(i.flash_page_init) for flash_page_init
==============================================================================

Removing Unused input sections from the image.

    Removing main.o(.rev16_text), (4 bytes).
    Removing main.o(.revsh_text), (4 bytes).
    Removing main.o(.rrx_text), (6 bytes).
    Removing boards.o(.rev16_text), (4 bytes).
    Removing boards.o(.revsh_text), (4 bytes).
    Removing boards.o(.rrx_text), (6 bytes).
    Removing boards.o(i.bsp_board_button_idx_to_pin), (12 bytes).
    Removing boards.o(i.bsp_board_button_state_get), (32 bytes).
    Removing boards.o(i.bsp_board_init), (84 bytes).
    Removing boards.o(i.bsp_board_led_idx_to_pin), (12 bytes).
    Removing boards.o(i.bsp_board_led_invert), (36 bytes).
    Removing boards.o(i.bsp_board_led_off), (16 bytes).
    Removing boards.o(i.bsp_board_led_on), (16 bytes).
    Removing boards.o(i.bsp_board_led_state_get), (32 bytes).
    Removing boards.o(i.bsp_board_leds_off), (18 bytes).
    Removing boards.o(i.bsp_board_leds_on), (18 bytes).
    Removing boards.o(i.bsp_board_pin_to_button_idx), (36 bytes).
    Removing boards.o(i.bsp_board_pin_to_led_idx), (36 bytes).
==============================================================================

Image Symbol Table

    Local Symbols

    Symbol Name                              Value     Ov Type        Size  Object(Section)

    ../clib/../cmprslib/zerorunl2.c          0x00000000   Number         0  __dczerorl2.o ABSOLUTE
    ../clib/microlib/ctype/ctype.c           0x00000000   Number         0  isgraph_o.o ABSOLUTE
    ../clib/microlib/ctype/ctype.c           0x00000000   Number         0  ispunct_o.o ABSOLUTE
    ../clib/microlib/ctype/ctype.c           0x00000000   Number         0  isspace_o.o ABSOLUTE
    ../clib/microlib/ctype/ctype.c           0x00000000   Number         0  ctype_o.o ABSOLUTE
    ../clib/microlib/ctype/ctype.c           0x00000000   Number         0  isblank_o.o ABSOLUTE
    ../clib/microlib/ctype/ctype.c           0x00000000   Number         0  isupper_o.o ABSOLUTE
    ../clib/microlib/ctype/ctype.c           0x00000000   Number         0  isalnum_o.o ABSOLUTE
    ../clib/microlib/ctype/ctype.c           0x00000000   Number         0  islower_o.o ABSOLUTE
    ../clib/microlib/ctype/ctype.c           0x00000000   Number         0  isprint_o.o ABSOLUTE
    ../clib/microlib/ctype/ctype.c           0x00000000   Number         0  isxdigit_o.o ABSOLUTE
    ../clib/microlib/ctype/ctype.c           0x00000000   Number         0  isdigit_o.o ABSOLUTE
    ../clib/microlib/ctype/ctype.c           0x00000000   Number         0  iscntrl_o.o ABSOLUTE
    ../clib/microlib/ctype/ctype.c           0x00000000   Number         0  isalpha_o.o ABSOLUTE
    ../clib/microlib/ctype/tolower.c         0x00000000   Number         0  tolower.o ABSOLUTE
    ../clib/microlib/init/entry.s            0x00000000   Number         0  entry5.o ABSOLUTE
    ../clib/microlib/init/entry.s            0x00000000   Number         0  entry9a.o ABSOLUTE
    ../clib/microlib/init/entry.s            0x00000000   Number         0  entry8b.o ABSOLUTE
    ../clib/microlib/init/entry.s            0x00000000   Number         0  entry8a.o ABSOLUTE
    ../clib/microlib/init/entry.s            0x00000000   Number         0  entry7b.o ABSOLUTE
    ../clib/microlib/init/entry.s            0x00000000   Number         0  entry.o ABSOLUTE
    ../clib/microlib/init/entry.s            0x00000000   Number         0  entry2.o ABSOLUTE
    ../clib/microlib/init/entry.s            0x00000000   Number         0  entry7a.o ABSOLUTE
    ../clib/microlib/init/entry.s            0x00000000   Number         0  entry10a.o ABSOLUTE
    ../clib/microlib/init/entry.s            0x00000000   Number         0  entry9b.o ABSOLUTE
    ../clib/microlib/init/entry.s            0x00000000   Number         0  entry10b.o ABSOLUTE
    ../clib/microlib/init/entry.s            0x00000000   Number         0  entry11a.o ABSOLUTE
    ../clib/microlib/init/entry.s            0x00000000   Number         0  entry11b.o ABSOLUTE
    ../clib/microlib/stdio/fflush.c          0x00000000   Number         0  fflush.o ABSOLUTE
    ../clib/microlib/stdio/fputc.c           0x00000000   Number         0  fputc.o ABSOLUTE
    ../clib/microlib/stdio/semi.s            0x00000000   Number         0  semi.o ABSOLUTE
    ../clib/microlib/stdio/streams.c         0x00000000   Number         0  stdout.o ABSOLUTE
    ../clib/microlib/stdlib/qsort.c          0x00000000   Number         0  qsort.o ABSOLUTE
    ../clib/microlib/string/memcpy.c         0x00000000   Number         0  memmoveb.o ABSOLUTE
    ../clib/microlib/string/memcpy.c         0x00000000   Number         0  memcpyb.o ABSOLUTE
    ../clib/microlib/string/memcpy.c         0x00000000   Number         0  memmovea.o ABSOLUTE
    ../clib/microlib/string/memcpy.c         0x00000000   Number         0  memcpya.o ABSOLUTE
    ../clib/microlib/string/memset.c         0x00000000   Number         0  memseta.o ABSOLUTE
    ../clib/microlib/string/strchr.c         0x00000000   Number         0  strchr.o ABSOLUTE
    ../clib/microlib/string/strcmp.c         0x00000000   Number         0  strcmp.o ABSOLUTE
    ../clib/microlib/string/strcpy.c         0x00000000   Number         0  strcpy.o ABSOLUTE
    ../clib/microlib/string/strlen.c         0x00000000   Number         0  strlen.o ABSOLUTE
    ../clib/microlib/string/strncmp.c        0x00000000   Number         0  strncmp.o ABSOLUTE
    ../clib/microlib/stubs.s                 0x00000000   Number         0  useno.o ABSOLUTE
    ../clib/microlib/stubs.s                 0x00000000   Number         0  iusesemip.o ABSOLUTE
    ..\..\..\..\..\..\components\boards\boards.c 0x00000000   Number         0  boards.o ABSOLUTE
    ..\..\..\..\..\..\components\drivers_nrf\nrf_soc_nosd\nrf_nvic.c 0x00000000   Number         0  nrf_nvic.o ABSOLUTE
    ..\..\..\..\..\..\components\drivers_nrf\nrf_soc_nosd\nrf_soc.c 0x00000000   Number         0  nrf_soc.o ABSOLUTE
    ..\..\..\..\..\..\components\libraries\atomic\nrf_atomic.c 0x00000000   Number         0  nrf_atomic.o ABSOLUTE
    ..\..\..\..\..\..\components\libraries\atomic_fifo\nrf_atfifo.c 0x00000000   Number         0  nrf_atfifo.o ABSOLUTE
    ..\..\..\..\..\..\components\libraries\balloc\nrf_balloc.c 0x00000000   Number         0  nrf_balloc.o ABSOLUTE
    ..\..\..\..\..\..\components\libraries\cli\nrf_cli.c 0x00000000   Number         0  nrf_cli.o ABSOLUTE
    ..\..\..\..\..\..\components\libraries\cli\uart\nrf_cli_uart.c 0x00000000   Number         0  nrf_cli_uart.o ABSOLUTE
    ..\..\..\..\..\..\components\libraries\experimental_section_vars\nrf_section_iter.c 0x00000000   Number         0  nrf_section_iter.o ABSOLUTE
    ..\..\..\..\..\..\components\libraries\log\src\nrf_log_backend_rtt.c 0x00000000   Number         0  nrf_log_backend_rtt.o ABSOLUTE
    ..\..\..\..\..\..\components\libraries\log\src\nrf_log_backend_serial.c 0x00000000   Number         0  nrf_log_backend_serial.o ABSOLUTE
    ..\..\..\..\..\..\components\libraries\log\src\nrf_log_backend_uart.c 0x00000000   Number         0  nrf_log_backend_uart.o ABSOLUTE
    ..\..\..\..\..\..\components\libraries\log\src\nrf_log_default_backends.c 0x00000000   Number         0  nrf_log_default_backends.o ABSOLUTE
    ..\..\..\..\..\..\components\libraries\log\src\nrf_log_frontend.c 0x00000000   Number         0  nrf_log_frontend.o ABSOLUTE
    ..\..\..\..\..\..\components\libraries\log\src\nrf_log_str_formatter.c 0x00000000   Number         0  nrf_log_str_formatter.o ABSOLUTE
    ..\..\..\..\..\..\components\libraries\memobj\nrf_memobj.c 0x00000000   Number         0  nrf_memobj.o ABSOLUTE
    ..\..\..\..\..\..\components\libraries\pwr_mgmt\nrf_pwr_mgmt.c 0x00000000   Number         0  nrf_pwr_mgmt.o ABSOLUTE
    ..\..\..\..\..\..\components\libraries\queue\nrf_queue.c 0x00000000   Number         0  nrf_queue.o ABSOLUTE
    ..\..\..\..\..\..\components\libraries\ringbuf\nrf_ringbuf.c 0x00000000   Number         0  nrf_ringbuf.o ABSOLUTE
    ..\..\..\..\..\..\components\libraries\scheduler\app_scheduler.c 0x00000000   Number         0  app_scheduler.o ABSOLUTE
    ..\..\..\..\..\..\components\libraries\sortlist\nrf_sortlist.c 0x00000000   Number         0  nrf_sortlist.o ABSOLUTE
    ..\..\..\..\..\..\components\libraries\strerror\nrf_strerror.c 0x00000000   Number         0  nrf_strerror.o ABSOLUTE
    ..\..\..\..\..\..\components\libraries\timer\app_timer2.c 0x00000000   Number         0  app_timer2.o ABSOLUTE
    ..\..\..\..\..\..\components\libraries\timer\drv_rtc.c 0x00000000   Number         0  drv_rtc.o ABSOLUTE
    ..\..\..\..\..\..\components\libraries\util\app_error.c 0x00000000   Number         0  app_error.o ABSOLUTE
    ..\..\..\..\..\..\components\libraries\util\app_error_handler_keil.c 0x00000000   Number         0  app_error_handler_keil.o ABSOLUTE
    ..\..\..\..\..\..\components\libraries\util\app_error_weak.c 0x00000000   Number         0  app_error_weak.o ABSOLUTE
    ..\..\..\..\..\..\components\libraries\util\app_util_platform.c 0x00000000   Number         0  app_util_platform.o ABSOLUTE
    ..\..\..\..\..\..\components\libraries\util\nrf_assert.c 0x00000000   Number         0  nrf_assert.o ABSOLUTE
    ..\..\..\..\..\..\external\fnmatch\fnmatch.c 0x00000000   Number         0  fnmatch.o ABSOLUTE
    ..\..\..\..\..\..\external\fprintf\nrf_fprintf.c 0x00000000   Number         0  nrf_fprintf.o ABSOLUTE
    ..\..\..\..\..\..\external\fprintf\nrf_fprintf_format.c 0x00000000   Number         0  nrf_fprintf_format.o ABSOLUTE
    ..\..\..\..\..\..\external\segger_rtt\SEGGER_RTT.c 0x00000000   Number         0  segger_rtt.o ABSOLUTE
    ..\..\..\..\..\..\external\segger_rtt\SEGGER_RTT_Syscalls_KEIL.c 0x00000000   Number         0  segger_rtt_syscalls_keil.o ABSOLUTE
    ..\..\..\..\..\..\external\segger_rtt\SEGGER_RTT_printf.c 0x00000000   Number         0  segger_rtt_printf.o ABSOLUTE
    ..\..\..\..\..\..\integration\nrfx\legacy\nrf_drv_clock.c 0x00000000   Number         0  nrf_drv_clock.o ABSOLUTE
    ..\..\..\..\..\..\integration\nrfx\legacy\nrf_drv_uart.c 0x00000000   Number         0  nrf_drv_uart.o ABSOLUTE
    ..\..\..\..\..\..\modules\nrfx\drivers\src\nrfx_clock.c 0x00000000   Number         0  nrfx_clock.o ABSOLUTE
    ..\..\..\..\..\..\modules\nrfx\drivers\src\nrfx_uart.c 0x00000000   Number         0  nrfx_uart.o ABSOLUTE
    ..\..\..\..\..\..\modules\nrfx\drivers\src\nrfx_uarte.c 0x00000000   Number         0  nrfx_uarte.o ABSOLUTE
    ..\..\..\..\..\..\modules\nrfx\drivers\src\prs\nrfx_prs.c 0x00000000   Number         0  nrfx_prs.o ABSOLUTE
    ..\..\..\..\..\..\modules\nrfx\hal\nrf_nvmc.c 0x00000000   Number         0  nrf_nvmc.o ABSOLUTE
    ..\..\..\..\..\..\modules\nrfx\soc\nrfx_atomic.c 0x00000000   Number         0  nrfx_atomic.o ABSOLUTE
    ..\..\..\main.c                          0x00000000   Number         0  main.o ABSOLUTE
    ..\\..\\..\\..\\..\\..\\components\\boards\\boards.c 0x00000000   Number         0  boards.o ABSOLUTE
    ..\\..\\..\\..\\..\\..\\components\\drivers_nrf\\nrf_soc_nosd\\nrf_nvic.c 0x00000000   Number         0  nrf_nvic.o ABSOLUTE
    ..\\..\\..\\..\\..\\..\\components\\drivers_nrf\\nrf_soc_nosd\\nrf_soc.c 0x00000000   Number         0  nrf_soc.o ABSOLUTE
    ..\\..\\..\\..\\..\\..\\components\\libraries\\atomic\\nrf_atomic.c 0x00000000   Number         0  nrf_atomic.o ABSOLUTE
    ..\\..\\..\\..\\..\\..\\components\\libraries\\atomic_fifo\\nrf_atfifo.c 0x00000000   Number         0  nrf_atfifo.o ABSOLUTE
    ..\\..\\..\\..\\..\\..\\components\\libraries\\balloc\\nrf_balloc.c 0x00000000   Number         0  nrf_balloc.o ABSOLUTE
    ..\\..\\..\\..\\..\\..\\components\\libraries\\cli\\nrf_cli.c 0x00000000   Number         0  nrf_cli.o ABSOLUTE
    ..\\..\\..\\..\\..\\..\\components\\libraries\\cli\\uart\\nrf_cli_uart.c 0x00000000   Number         0  nrf_cli_uart.o ABSOLUTE
    ..\\..\\..\\..\\..\\..\\components\\libraries\\experimental_section_vars\\nrf_section_iter.c 0x00000000   Number         0  nrf_section_iter.o ABSOLUTE
    ..\\..\\..\\..\\..\\..\\components\\libraries\\log\\src\\nrf_log_backend_rtt.c 0x00000000   Number         0  nrf_log_backend_rtt.o ABSOLUTE
    ..\\..\\..\\..\\..\\..\\components\\libraries\\log\\src\\nrf_log_backend_serial.c 0x00000000   Number         0  nrf_log_backend_serial.o ABSOLUTE
    ..\\..\\..\\..\\..\\..\\components\\libraries\\log\\src\\nrf_log_backend_uart.c 0x00000000   Number         0  nrf_log_backend_uart.o ABSOLUTE
    ..\\..\\..\\..\\..\\..\\components\\libraries\\log\\src\\nrf_log_default_backends.c 0x00000000   Number         0  nrf_log_default_backends.o ABSOLUTE
    ..\\..\\..\\..\\..\\..\\components\\libraries\\log\\src\\nrf_log_frontend.c 0x00000000   Number         0  nrf_log_frontend.o ABSOLUTE
    ..\\..\\..\\..\\..\\..\\components\\libraries\\log\\src\\nrf_log_str_formatter.c 0x00000000   Number         0  nrf_log_str_formatter.o ABSOLUTE
    ..\\..\\..\\..\\..\\..\\components\\libraries\\memobj\\nrf_memobj.c 0x00000000   Number         0  nrf_memobj.o ABSOLUTE
    ..\\..\\..\\..\\..\\..\\components\\libraries\\pwr_mgmt\\nrf_pwr_mgmt.c 0x00000000   Number         0  nrf_pwr_mgmt.o ABSOLUTE
    ..\\..\\..\\..\\..\\..\\components\\libraries\\queue\\nrf_queue.c 0x00000000   Number         0  nrf_queue.o ABSOLUTE
    ..\\..\\..\\..\\..\\..\\components\\libraries\\ringbuf\\nrf_ringbuf.c 0x00000000   Number         0  nrf_ringbuf.o ABSOLUTE
    ..\\..\\..\\..\\..\\..\\components\\libraries\\scheduler\\app_scheduler.c 0x00000000   Number         0  app_scheduler.o ABSOLUTE
    ..\\..\\..\\..\\..\\..\\components\\libraries\\sortlist\\nrf_sortlist.c 0x00000000   Number         0  nrf_sortlist.o ABSOLUTE
    ..\\..\\..\\..\\..\\..\\components\\libraries\\strerror\\nrf_strerror.c 0x00000000   Number         0  nrf_strerror.o ABSOLUTE
    ..\\..\\..\\..\\..\\..\\components\\libraries\\timer\\app_timer2.c 0x00000000   Number         0  app_timer2.o ABSOLUTE
    ..\\..\\..\\..\\..\\..\\components\\libraries\\timer\\drv_rtc.c 0x00000000   Number         0  drv_rtc.o ABSOLUTE
    ..\\..\\..\\..\\..\\..\\components\\libraries\\util\\app_error.c 0x00000000   Number         0  app_error.o ABSOLUTE
    ..\\..\\..\\..\\..\\..\\components\\libraries\\util\\app_error_handler_keil.c 0x00000000   Number         0  app_error_handler_keil.o ABSOLUTE
    ..\\..\\..\\..\\..\\..\\components\\libraries\\util\\app_error_weak.c 0x00000000   Number         0  app_error_weak.o ABSOLUTE
    ..\\..\\..\\..\\..\\..\\components\\libraries\\util\\app_util_platform.c 0x00000000   Number         0  app_util_platform.o ABSOLUTE
    ..\\..\\..\\..\\..\\..\\components\\libraries\\util\\nrf_assert.c 0x00000000   Number         0  nrf_assert.o ABSOLUTE
    ..\\..\\..\\..\\..\\..\\external\\fprintf\\nrf_fprintf.c 0x00000000   Number         0  nrf_fprintf.o ABSOLUTE
    ..\\..\\..\\..\\..\\..\\external\\fprintf\\nrf_fprintf_format.c 0x00000000   Number         0  nrf_fprintf_format.o ABSOLUTE
    ..\\..\\..\\..\\..\\..\\external\\segger_rtt\\SEGGER_RTT.c 0x00000000   Number         0  segger_rtt.o ABSOLUTE
    ..\\..\\..\\..\\..\\..\\external\\segger_rtt\\SEGGER_RTT_Syscalls_KEIL.c 0x00000000   Number         0  segger_rtt_syscalls_keil.o ABSOLUTE
    ..\\..\\..\\..\\..\\..\\external\\segger_rtt\\SEGGER_RTT_printf.c 0x00000000   Number         0  segger_rtt_printf.o ABSOLUTE
    ..\\..\\..\\..\\..\\..\\integration\\nrfx\\legacy\\nrf_drv_clock.c 0x00000000   Number         0  nrf_drv_clock.o ABSOLUTE
    ..\\..\\..\\..\\..\\..\\integration\\nrfx\\legacy\\nrf_drv_uart.c 0x00000000   Number         0  nrf_drv_uart.o ABSOLUTE
    ..\\..\\..\\..\\..\\..\\modules\\nrfx\\drivers\\src\\nrfx_clock.c 0x00000000   Number         0  nrfx_clock.o ABSOLUTE
    ..\\..\\..\\..\\..\\..\\modules\\nrfx\\drivers\\src\\nrfx_uart.c 0x00000000   Number         0  nrfx_uart.o ABSOLUTE
    ..\\..\\..\\..\\..\\..\\modules\\nrfx\\drivers\\src\\nrfx_uarte.c 0x00000000   Number         0  nrfx_uarte.o ABSOLUTE
    ..\\..\\..\\..\\..\\..\\modules\\nrfx\\drivers\\src\\prs\\nrfx_prs.c 0x00000000   Number         0  nrfx_prs.o ABSOLUTE
    ..\\..\\..\\..\\..\\..\\modules\\nrfx\\hal\\nrf_nvmc.c 0x00000000   Number         0  nrf_nvmc.o ABSOLUTE
    ..\\..\\..\\..\\..\\..\\modules\\nrfx\\soc\\nrfx_atomic.c 0x00000000   Number         0  nrfx_atomic.o ABSOLUTE
    ..\\..\\..\\main.c                       0x00000000   Number         0  main.o ABSOLUTE
    RTE\Device\nRF52832_xxAA\arm_startup_nrf52.s 0x00000000   Number         0  arm_startup_nrf52.o ABSOLUTE
    RTE\Device\nRF52832_xxAA\system_nrf52.c  0x00000000   Number         0  system_nrf52.o ABSOLUTE
    RTE\\Device\\nRF52832_xxAA\\system_nrf52.c 0x00000000   Number         0  system_nrf52.o ABSOLUTE
    dc.s                                     0x00000000   Number         0  dc.o ABSOLUTE
    handlers.s                               0x00000000   Number         0  handlers.o ABSOLUTE
    init.s                                   0x00000000   Number         0  init.o ABSOLUTE
    RESET                                    0x00026000   Section      512  arm_startup_nrf52.o(RESET)
    .ARM.Collect$$$$00000000                 0x00026200   Section        0  entry.o(.ARM.Collect$$$$00000000)
    .ARM.Collect$$$$00000001                 0x00026200   Section        4  entry2.o(.ARM.Collect$$$$00000001)
    .ARM.Collect$$$$00000004                 0x00026204   Section        4  entry5.o(.ARM.Collect$$$$00000004)
    .ARM.Collect$$$$00000008                 0x00026208   Section        0  entry7b.o(.ARM.Collect$$$$00000008)
    .ARM.Collect$$$$0000000A                 0x00026208   Section        0  entry8b.o(.ARM.Collect$$$$0000000A)
    .ARM.Collect$$$$0000000B                 0x00026208   Section        8  entry9a.o(.ARM.Collect$$$$0000000B)
    .ARM.Collect$$$$0000000D                 0x00026210   Section        0  entry10a.o(.ARM.Collect$$$$0000000D)
    .ARM.Collect$$$$0000000F                 0x00026210   Section        0  entry11a.o(.ARM.Collect$$$$0000000F)
    .ARM.Collect$$$$00002712                 0x00026210   Section        4  entry2.o(.ARM.Collect$$$$00002712)
    __lit__00000000                          0x00026210   Data           4  entry2.o(.ARM.Collect$$$$00002712)
    .emb_text                                0x00026214   Section      200  nrf_atfifo.o(.emb_text)
    $v0                                      0x00026214   Number         0  nrf_atfifo.o(.emb_text)
    .emb_text                                0x000262dc   Section      226  nrf_atomic.o(.emb_text)
    $v0                                      0x000262dc   Number         0  nrf_atomic.o(.emb_text)
    .text                                    0x000263c0   Section       36  arm_startup_nrf52.o(.text)
    $v0                                      0x000263c0   Number         0  arm_startup_nrf52.o(.text)
    .text                                    0x000263e4   Section        0  ctype_o.o(.text)
    .text                                    0x000263ec   Section        0  qsort.o(.text)
    .text                                    0x00026488   Section        0  memmovea.o(.text)
    .text                                    0x000264c8   Section        0  memseta.o(.text)
    .text                                    0x000264ec   Section        0  strlen.o(.text)
    .text                                    0x000264fa   Section        0  strcmp.o(.text)
    .text                                    0x00026516   Section        0  strcpy.o(.text)
    .text                                    0x00026528   Section        0  strncmp.o(.text)
    .text                                    0x00026548   Section       36  init.o(.text)
    .text                                    0x0002656c   Section        0  __dczerorl2.o(.text)
    i.POWER_CLOCK_IRQHandler                 0x000265c4   Section        0  nrfx_clock.o(i.POWER_CLOCK_IRQHandler)
    i.RTC1_IRQHandler                        0x0002661c   Section        0  drv_rtc.o(i.RTC1_IRQHandler)
    i.SystemInit                             0x0002662c   Section        0  system_nrf52.o(i.SystemInit)
    i.UARTE0_UART0_IRQHandler                0x00026954   Section        0  nrfx_prs.o(i.UARTE0_UART0_IRQHandler)
    i.__scatterload_copy                     0x00026960   Section       14  handlers.o(i.__scatterload_copy)
    i.__scatterload_null                     0x0002696e   Section        2  handlers.o(i.__scatterload_null)
    i.__scatterload_zeroinit                 0x00026970   Section       14  handlers.o(i.__scatterload_zeroinit)
    i.app_error_fault_handler                0x00026980   Section        0  app_error_weak.o(i.app_error_fault_handler)
    i.app_error_handler_bare                 0x00026a14   Section        0  app_error.o(i.app_error_handler_bare)
    i.app_timer_cnt_get                      0x00026a2c   Section        0  app_timer2.o(i.app_timer_cnt_get)
    i.app_timer_create                       0x00026a38   Section        0  app_timer2.o(i.app_timer_create)
    i.app_timer_init                         0x00026a50   Section        0  app_timer2.o(i.app_timer_init)
    i.app_timer_start                        0x00026aac   Section        0  app_timer2.o(i.app_timer_start)
    i.app_timer_stop                         0x00026ade   Section        0  app_timer2.o(i.app_timer_stop)
    i.app_util_critical_region_enter         0x00026aec   Section        0  app_util_platform.o(i.app_util_critical_region_enter)
    i.app_util_critical_region_exit          0x00026af0   Section        0  app_util_platform.o(i.app_util_critical_region_exit)
    i.app_util_disable_irq                   0x00026af4   Section        0  app_util_platform.o(i.app_util_disable_irq)
    i.app_util_enable_irq                    0x00026b04   Section        0  app_util_platform.o(i.app_util_enable_irq)
    i.apply_config                           0x00026b18   Section        0  nrfx_uart.o(i.apply_config)
    apply_config                             0x00026b19   Thumb Code   136  nrfx_uart.o(i.apply_config)
    i.apply_config                           0x00026ba0   Section        0  nrfx_uarte.o(i.apply_config)
    apply_config                             0x00026ba1   Thumb Code   136  nrfx_uarte.o(i.apply_config)
    i.backend_name_get                       0x00026c28   Section        0  nrf_log_frontend.o(i.backend_name_get)
    backend_name_get                         0x00026c29   Thumb Code    58  nrf_log_frontend.o(i.backend_name_get)
    i.buf_prealloc                           0x00026c70   Section        0  nrf_log_frontend.o(i.buf_prealloc)
    buf_prealloc                             0x00026c71   Thumb Code   132  nrf_log_frontend.o(i.buf_prealloc)
    i.buffer_add                             0x00026cfc   Section        0  nrf_fprintf_format.o(i.buffer_add)
    buffer_add                               0x00026cfd   Thumb Code    46  nrf_fprintf_format.o(i.buffer_add)
    i.buffer_is_empty                        0x00026d2c   Section        0  nrf_log_frontend.o(i.buffer_is_empty)
    i.char_backspace                         0x00026d44   Section        0  nrf_cli.o(i.char_backspace)
    char_backspace                           0x00026d45   Thumb Code   170  nrf_cli.o(i.char_backspace)
    i.char_delete                            0x00026dfc   Section        0  nrf_cli.o(i.char_delete)
    char_delete                              0x00026dfd   Thumb Code   138  nrf_cli.o(i.char_delete)
    i.char_insert                            0x00026e90   Section        0  nrf_cli.o(i.char_insert)
    char_insert                              0x00026e91   Thumb Code   312  nrf_cli.o(i.char_insert)
    i.cli_clear_eos                          0x00026fd0   Section        0  nrf_cli.o(i.cli_clear_eos)
    cli_clear_eos                            0x00026fd1   Thumb Code    10  nrf_cli.o(i.cli_clear_eos)
    i.cli_cursor_restore                     0x00026fe4   Section        0  nrf_cli.o(i.cli_cursor_restore)
    cli_cursor_restore                       0x00026fe5   Thumb Code    10  nrf_cli.o(i.cli_cursor_restore)
    i.cli_cursor_save                        0x00026ff8   Section        0  nrf_cli.o(i.cli_cursor_save)
    cli_cursor_save                          0x00026ff9   Thumb Code    10  nrf_cli.o(i.cli_cursor_save)
    i.cli_execute                            0x0002700c   Section        0  nrf_cli.o(i.cli_execute)
    cli_execute                              0x0002700d   Thumb Code   364  nrf_cli.o(i.cli_execute)
    i.cli_flag_echo_is_set                   0x000271dc   Section        0  nrf_cli.o(i.cli_flag_echo_is_set)
    cli_flag_echo_is_set                     0x000271dd   Thumb Code    12  nrf_cli.o(i.cli_flag_echo_is_set)
    i.cli_log_entry_process                  0x000271e8   Section        0  nrf_cli.o(i.cli_log_entry_process)
    cli_log_entry_process                    0x000271e9   Thumb Code   314  nrf_cli.o(i.cli_log_entry_process)
    i.cli_read                               0x00027354   Section        0  nrf_cli.o(i.cli_read)
    cli_read                                 0x00027355   Thumb Code    14  nrf_cli.o(i.cli_read)
    i.cli_state_collect                      0x00027362   Section        0  nrf_cli.o(i.cli_state_collect)
    cli_state_collect                        0x00027363   Thumb Code   628  nrf_cli.o(i.cli_state_collect)
    i.cli_state_set                          0x000275d8   Section        0  nrf_cli.o(i.cli_state_set)
    cli_state_set                            0x000275d9   Thumb Code    36  nrf_cli.o(i.cli_state_set)
    i.cli_strlen                             0x00027600   Section        0  nrf_cli.o(i.cli_strlen)
    cli_strlen                               0x00027601   Thumb Code    10  nrf_cli.o(i.cli_strlen)
    i.cli_tab_handle                         0x0002760c   Section        0  nrf_cli.o(i.cli_tab_handle)
    cli_tab_handle                           0x0002760d   Thumb Code   740  nrf_cli.o(i.cli_tab_handle)
    i.cli_transport_evt_handler              0x00027924   Section        0  nrf_cli.o(i.cli_transport_evt_handler)
    cli_transport_evt_handler                0x00027925   Thumb Code    20  nrf_cli.o(i.cli_transport_evt_handler)
    i.cli_uart_enable                        0x00027938   Section        0  nrf_cli_uart.o(i.cli_uart_enable)
    cli_uart_enable                          0x00027939   Thumb Code   104  nrf_cli_uart.o(i.cli_uart_enable)
    i.cli_uart_init                          0x000279a4   Section        0  nrf_cli_uart.o(i.cli_uart_init)
    cli_uart_init                            0x000279a5   Thumb Code    70  nrf_cli_uart.o(i.cli_uart_init)
    i.cli_uart_read                          0x000279f0   Section        0  nrf_cli_uart.o(i.cli_uart_read)
    cli_uart_read                            0x000279f1   Thumb Code    10  nrf_cli_uart.o(i.cli_uart_read)
    i.cli_uart_uninit                        0x000279fa   Section        0  nrf_cli_uart.o(i.cli_uart_uninit)
    cli_uart_uninit                          0x000279fb   Thumb Code    22  nrf_cli_uart.o(i.cli_uart_uninit)
    i.cli_uart_write                         0x00027a10   Section        0  nrf_cli_uart.o(i.cli_uart_write)
    cli_uart_write                           0x00027a11   Thumb Code    98  nrf_cli_uart.o(i.cli_uart_write)
    i.cli_write                              0x00027a78   Section        0  nrf_cli.o(i.cli_write)
    cli_write                                0x00027a79   Thumb Code    88  nrf_cli.o(i.cli_write)
    i.clock_clk_started_notify               0x00027ad0   Section        0  nrf_drv_clock.o(i.clock_clk_started_notify)
    clock_clk_started_notify                 0x00027ad1   Thumb Code    34  nrf_drv_clock.o(i.clock_clk_started_notify)
    i.clock_irq_handler                      0x00027af8   Section        0  nrf_drv_clock.o(i.clock_irq_handler)
    clock_irq_handler                        0x00027af9   Thumb Code    24  nrf_drv_clock.o(i.clock_irq_handler)
    i.cmd_get                                0x00027b14   Section        0  nrf_cli.o(i.cmd_get)
    cmd_get                                  0x00027b15   Thumb Code   124  nrf_cli.o(i.cmd_get)
    i.cmd_trim                               0x00027b9c   Section        0  nrf_cli.o(i.cmd_trim)
    cmd_trim                                 0x00027b9d   Thumb Code   154  nrf_cli.o(i.cmd_trim)
    i.compare_func                           0x00027c36   Section        0  app_timer2.o(i.compare_func)
    compare_func                             0x00027c37   Thumb Code    24  app_timer2.o(i.compare_func)
    i.completion_insert                      0x00027c50   Section        0  nrf_cli.o(i.completion_insert)
    completion_insert                        0x00027c51   Thumb Code   142  nrf_cli.o(i.completion_insert)
    i.cursor_down_move                       0x00027ce4   Section        0  nrf_cli.o(i.cursor_down_move)
    cursor_down_move                         0x00027ce5   Thumb Code    16  nrf_cli.o(i.cursor_down_move)
    i.cursor_end_position_move               0x00027cfc   Section        0  nrf_cli.o(i.cursor_end_position_move)
    cursor_end_position_move                 0x00027cfd   Thumb Code    82  nrf_cli.o(i.cursor_end_position_move)
    i.cursor_home_position_move              0x00027d4e   Section        0  nrf_cli.o(i.cursor_home_position_move)
    cursor_home_position_move                0x00027d4f   Thumb Code    84  nrf_cli.o(i.cursor_home_position_move)
    i.cursor_in_empty_line                   0x00027da2   Section        0  nrf_cli.o(i.cursor_in_empty_line)
    cursor_in_empty_line                     0x00027da3   Thumb Code    38  nrf_cli.o(i.cursor_in_empty_line)
    i.cursor_left_move                       0x00027dc8   Section        0  nrf_cli.o(i.cursor_left_move)
    cursor_left_move                         0x00027dc9   Thumb Code    16  nrf_cli.o(i.cursor_left_move)
    i.cursor_next_line_move                  0x00027de0   Section        0  nrf_cli.o(i.cursor_next_line_move)
    cursor_next_line_move                    0x00027de1   Thumb Code     8  nrf_cli.o(i.cursor_next_line_move)
    i.cursor_position_get                    0x00027dec   Section        0  nrf_cli.o(i.cursor_position_get)
    cursor_position_get                      0x00027ded   Thumb Code   288  nrf_cli.o(i.cursor_position_get)
    i.cursor_position_synchronize            0x00027f10   Section        0  nrf_cli.o(i.cursor_position_synchronize)
    cursor_position_synchronize              0x00027f11   Thumb Code   106  nrf_cli.o(i.cursor_position_synchronize)
    i.cursor_right_move                      0x00027f7c   Section        0  nrf_cli.o(i.cursor_right_move)
    cursor_right_move                        0x00027f7d   Thumb Code    16  nrf_cli.o(i.cursor_right_move)
    i.cursor_up_move                         0x00027f94   Section        0  nrf_cli.o(i.cursor_up_move)
    cursor_up_move                           0x00027f95   Thumb Code    16  nrf_cli.o(i.cursor_up_move)
    i.dropped_sat16_get                      0x00027fac   Section        0  nrf_log_frontend.o(i.dropped_sat16_get)
    dropped_sat16_get                        0x00027fad   Thumb Code    16  nrf_log_frontend.o(i.dropped_sat16_get)
    i.drv_rtc_compare_disable                0x00027fc0   Section        0  drv_rtc.o(i.drv_rtc_compare_disable)
    i.drv_rtc_compare_pending                0x00027fd4   Section        0  drv_rtc.o(i.drv_rtc_compare_pending)
    i.drv_rtc_compare_set                    0x00027fe2   Section        0  drv_rtc.o(i.drv_rtc_compare_set)
    i.drv_rtc_counter_get                    0x00028032   Section        0  drv_rtc.o(i.drv_rtc_counter_get)
    i.drv_rtc_init                           0x0002803c   Section        0  drv_rtc.o(i.drv_rtc_init)
    i.drv_rtc_irq_trigger                    0x00028128   Section        0  drv_rtc.o(i.drv_rtc_irq_trigger)
    i.drv_rtc_overflow_enable                0x00028146   Section        0  drv_rtc.o(i.drv_rtc_overflow_enable)
    i.drv_rtc_overflow_pending               0x0002814e   Section        0  drv_rtc.o(i.drv_rtc_overflow_pending)
    i.drv_rtc_start                          0x00028156   Section        0  drv_rtc.o(i.drv_rtc_start)
    i.drv_rtc_stop                           0x0002815e   Section        0  drv_rtc.o(i.drv_rtc_stop)
    i.drv_rtc_windowed_compare_set           0x00028166   Section        0  drv_rtc.o(i.drv_rtc_windowed_compare_set)
    i.evt_enable                             0x00028244   Section        0  drv_rtc.o(i.evt_enable)
    evt_enable                               0x00028245   Thumb Code    18  drv_rtc.o(i.evt_enable)
    i.evt_pending                            0x00028256   Section        0  drv_rtc.o(i.evt_pending)
    evt_pending                              0x00028257   Thumb Code    20  drv_rtc.o(i.evt_pending)
    i.flash_page_init                        0x0002826c   Section        0  main.o(i.flash_page_init)
    flash_page_init                          0x0002826d   Thumb Code    58  main.o(i.flash_page_init)
    i.flashwrite_cmd                         0x000282b4   Section        0  main.o(i.flashwrite_cmd)
    flashwrite_cmd                           0x000282b5   Thumb Code    52  main.o(i.flashwrite_cmd)
    i.flashwrite_erase_cmd                   0x0002830c   Section        0  main.o(i.flashwrite_erase_cmd)
    flashwrite_erase_cmd                     0x0002830d   Thumb Code    16  main.o(i.flashwrite_erase_cmd)
    i.flashwrite_read_cmd                    0x00028320   Section        0  main.o(i.flashwrite_read_cmd)
    flashwrite_read_cmd                      0x00028321   Thumb Code   108  main.o(i.flashwrite_read_cmd)
    i.flashwrite_write_cmd                   0x000283d8   Section        0  main.o(i.flashwrite_write_cmd)
    flashwrite_write_cmd                     0x000283d9   Thumb Code   218  main.o(i.flashwrite_write_cmd)
    i.format_offset_string_print             0x000285ac   Section        0  nrf_cli.o(i.format_offset_string_print)
    format_offset_string_print               0x000285ad   Thumb Code   242  nrf_cli.o(i.format_offset_string_print)
    i.full_line_cmd                          0x0002869e   Section        0  nrf_cli.o(i.full_line_cmd)
    full_line_cmd                            0x0002869f   Thumb Code    38  nrf_cli.o(i.full_line_cmd)
    i.get_now                                0x000286c4   Section        0  app_timer2.o(i.get_now)
    get_now                                  0x000286c5   Thumb Code    46  app_timer2.o(i.get_now)
    i.history_handle                         0x000286f8   Section        0  nrf_cli.o(i.history_handle)
    history_handle                           0x000286f9   Thumb Code   320  nrf_cli.o(i.history_handle)
    i.history_list_element_add               0x0002883c   Section        0  nrf_cli.o(i.history_list_element_add)
    history_list_element_add                 0x0002883d   Thumb Code   120  nrf_cli.o(i.history_list_element_add)
    i.history_list_element_oldest_remove     0x000288b4   Section        0  nrf_cli.o(i.history_list_element_oldest_remove)
    history_list_element_oldest_remove       0x000288b5   Thumb Code   104  nrf_cli.o(i.history_list_element_oldest_remove)
    i.history_save                           0x0002891c   Section        0  nrf_cli.o(i.history_save)
    history_save                             0x0002891d   Thumb Code   134  nrf_cli.o(i.history_save)
    i.int_print                              0x000289a4   Section        0  nrf_fprintf_format.o(i.int_print)
    int_print                                0x000289a5   Thumb Code   166  nrf_fprintf_format.o(i.int_print)
    i.interrupts_enable                      0x00028a4c   Section        0  nrfx_uarte.o(i.interrupts_enable)
    interrupts_enable                        0x00028a4d   Thumb Code   132  nrfx_uarte.o(i.interrupts_enable)
    i.invalid_packets_omit                   0x00028ad4   Section        0  nrf_log_frontend.o(i.invalid_packets_omit)
    invalid_packets_omit                     0x00028ad5   Thumb Code    52  nrf_log_frontend.o(i.invalid_packets_omit)
    i.is_completion_candidate                0x00028b08   Section        0  nrf_cli.o(i.is_completion_candidate)
    is_completion_candidate                  0x00028b09   Thumb Code    16  nrf_cli.o(i.is_completion_candidate)
    i.item_enqueue                           0x00028b18   Section        0  nrf_drv_clock.o(i.item_enqueue)
    item_enqueue                             0x00028b19   Thumb Code    22  nrf_drv_clock.o(i.item_enqueue)
    i.log_backend_ctrl                       0x00028b30   Section        0  nrf_log_frontend.o(i.log_backend_ctrl)
    log_backend_ctrl                         0x00028b31   Thumb Code     6  nrf_log_frontend.o(i.log_backend_ctrl)
    i.log_backend_go                         0x00028b3c   Section        0  nrf_log_frontend.o(i.log_backend_go)
    log_backend_go                           0x00028b3d   Thumb Code     6  nrf_log_frontend.o(i.log_backend_go)
    i.log_backend_halt                       0x00028b48   Section        0  nrf_log_frontend.o(i.log_backend_halt)
    log_backend_halt                         0x00028b49   Thumb Code     6  nrf_log_frontend.o(i.log_backend_halt)
    i.log_backend_status                     0x00028b54   Section        0  nrf_log_frontend.o(i.log_backend_status)
    log_backend_status                       0x00028b55   Thumb Code     6  nrf_log_frontend.o(i.log_backend_status)
    i.log_cmd                                0x00028b60   Section        0  nrf_log_frontend.o(i.log_cmd)
    log_cmd                                  0x00028b61   Thumb Code    54  nrf_log_frontend.o(i.log_cmd)
    i.log_cmd_backends_list                  0x00028bbc   Section        0  nrf_log_frontend.o(i.log_cmd_backends_list)
    log_cmd_backends_list                    0x00028bbd   Thumb Code   102  nrf_log_frontend.o(i.log_cmd_backends_list)
    i.log_config_load_cmd                    0x00028c84   Section        0  nrf_log_frontend.o(i.log_config_load_cmd)
    log_config_load_cmd                      0x00028c85   Thumb Code    38  nrf_log_frontend.o(i.log_config_load_cmd)
    i.log_config_store_cmd                   0x00028cc0   Section        0  nrf_log_frontend.o(i.log_config_store_cmd)
    log_config_store_cmd                     0x00028cc1   Thumb Code    38  nrf_log_frontend.o(i.log_config_store_cmd)
    i.log_ctrl                               0x00028cfc   Section        0  nrf_log_frontend.o(i.log_ctrl)
    log_ctrl                                 0x00028cfd   Thumb Code   304  nrf_log_frontend.o(i.log_ctrl)
    i.log_go                                 0x00028ec8   Section        0  nrf_log_frontend.o(i.log_go)
    log_go                                   0x00028ec9   Thumb Code     8  nrf_log_frontend.o(i.log_go)
    i.log_halt                               0x00028ed0   Section        0  nrf_log_frontend.o(i.log_halt)
    log_halt                                 0x00028ed1   Thumb Code     8  nrf_log_frontend.o(i.log_halt)
    i.log_self_ctrl                          0x00028ed8   Section        0  nrf_log_frontend.o(i.log_self_ctrl)
    log_self_ctrl                            0x00028ed9   Thumb Code    16  nrf_log_frontend.o(i.log_self_ctrl)
    i.log_self_go                            0x00028ee8   Section        0  nrf_log_frontend.o(i.log_self_go)
    log_self_go                              0x00028ee9   Thumb Code    10  nrf_log_frontend.o(i.log_self_go)
    i.log_self_halt                          0x00028ef2   Section        0  nrf_log_frontend.o(i.log_self_halt)
    log_self_halt                            0x00028ef3   Thumb Code    10  nrf_log_frontend.o(i.log_self_halt)
    i.log_self_status                        0x00028efc   Section        0  nrf_log_frontend.o(i.log_self_status)
    log_self_status                          0x00028efd   Thumb Code    16  nrf_log_frontend.o(i.log_self_status)
    i.log_skip                               0x00028f0c   Section        0  nrf_log_frontend.o(i.log_skip)
    log_skip                                 0x00028f0d   Thumb Code   150  nrf_log_frontend.o(i.log_skip)
    i.log_status                             0x00028fb0   Section        0  nrf_log_frontend.o(i.log_status)
    log_status                               0x00028fb1   Thumb Code   158  nrf_log_frontend.o(i.log_status)
    i.main                                   0x000290f0   Section        0  main.o(i.main)
    i.make_argv                              0x000291d4   Section        0  nrf_cli.o(i.make_argv)
    make_argv                                0x000291d5   Thumb Code   346  nrf_cli.o(i.make_argv)
    i.memobj_op                              0x0002932e   Section        0  nrf_memobj.o(i.memobj_op)
    memobj_op                                0x0002932f   Thumb Code   126  nrf_memobj.o(i.memobj_op)
    i.module_id_filter_set                   0x000293ac   Section        0  nrf_log_frontend.o(i.module_id_filter_set)
    module_id_filter_set                     0x000293ad   Thumb Code    38  nrf_log_frontend.o(i.module_id_filter_set)
    i.module_idx_get                         0x000293d4   Section        0  nrf_log_frontend.o(i.module_idx_get)
    module_idx_get                           0x000293d5   Thumb Code    42  nrf_log_frontend.o(i.module_idx_get)
    i.module_name_get                        0x00029404   Section        0  nrf_log_frontend.o(i.module_name_get)
    module_name_get                          0x00029405   Thumb Code    24  nrf_log_frontend.o(i.module_name_get)
    i.multiline_console_data_check           0x00029420   Section        0  nrf_cli.o(i.multiline_console_data_check)
    multiline_console_data_check             0x00029421   Thumb Code    80  nrf_cli.o(i.multiline_console_data_check)
    i.nrf_atfifo_init                        0x00029470   Section        0  nrf_atfifo.o(i.nrf_atfifo_init)
    i.nrf_atfifo_item_alloc                  0x00029496   Section        0  nrf_atfifo.o(i.nrf_atfifo_item_alloc)
    i.nrf_atfifo_item_free                   0x000294ac   Section        0  nrf_atfifo.o(i.nrf_atfifo_item_free)
    i.nrf_atfifo_item_get                    0x000294c2   Section        0  nrf_atfifo.o(i.nrf_atfifo_item_get)
    i.nrf_atfifo_item_put                    0x000294d8   Section        0  nrf_atfifo.o(i.nrf_atfifo_item_put)
    i.nrf_atomic_flag_clear                  0x000294ee   Section        0  nrf_atomic.o(i.nrf_atomic_flag_clear)
    i.nrf_atomic_flag_clear_fetch            0x000294f4   Section        0  nrf_atomic.o(i.nrf_atomic_flag_clear_fetch)
    i.nrf_atomic_flag_set                    0x000294fa   Section        0  nrf_atomic.o(i.nrf_atomic_flag_set)
    i.nrf_atomic_flag_set_fetch              0x00029500   Section        0  nrf_atomic.o(i.nrf_atomic_flag_set_fetch)
    i.nrf_atomic_u32_add                     0x00029506   Section        0  nrf_atomic.o(i.nrf_atomic_u32_add)
    i.nrf_atomic_u32_and                     0x00029512   Section        0  nrf_atomic.o(i.nrf_atomic_u32_and)
    i.nrf_atomic_u32_fetch_and               0x0002951e   Section        0  nrf_atomic.o(i.nrf_atomic_u32_fetch_and)
    i.nrf_atomic_u32_fetch_or                0x00029528   Section        0  nrf_atomic.o(i.nrf_atomic_u32_fetch_or)
    i.nrf_atomic_u32_fetch_store             0x00029532   Section        0  nrf_atomic.o(i.nrf_atomic_u32_fetch_store)
    i.nrf_atomic_u32_or                      0x0002953c   Section        0  nrf_atomic.o(i.nrf_atomic_u32_or)
    i.nrf_atomic_u32_sub                     0x00029548   Section        0  nrf_atomic.o(i.nrf_atomic_u32_sub)
    i.nrf_balloc_alloc                       0x00029554   Section        0  nrf_balloc.o(i.nrf_balloc_alloc)
    i.nrf_balloc_free                        0x00029592   Section        0  nrf_balloc.o(i.nrf_balloc_free)
    i.nrf_balloc_init                        0x000295bc   Section        0  nrf_balloc.o(i.nrf_balloc_init)
    i.nrf_balloc_status                      0x000295ec   Section        0  nrf_balloc.o(i.nrf_balloc_status)
    nrf_balloc_status                        0x000295ed   Thumb Code   168  nrf_balloc.o(i.nrf_balloc_status)
    i.nrf_cli_backend_cmd_execute            0x000296b4   Section        0  nrf_log_frontend.o(i.nrf_cli_backend_cmd_execute)
    nrf_cli_backend_cmd_execute              0x000296b5   Thumb Code    92  nrf_log_frontend.o(i.nrf_cli_backend_cmd_execute)
    i.nrf_cli_build_in_cmd_common_executed   0x00029730   Section        0  nrf_cli.o(i.nrf_cli_build_in_cmd_common_executed)
    nrf_cli_build_in_cmd_common_executed     0x00029731   Thumb Code    46  nrf_cli.o(i.nrf_cli_build_in_cmd_common_executed)
    i.nrf_cli_cmd_clear                      0x0002977c   Section        0  nrf_cli.o(i.nrf_cli_cmd_clear)
    nrf_cli_cmd_clear                        0x0002977d   Thumb Code    60  nrf_cli.o(i.nrf_cli_cmd_clear)
    i.nrf_cli_cmd_cli                        0x000297c0   Section        0  nrf_cli.o(i.nrf_cli_cmd_cli)
    nrf_cli_cmd_cli                          0x000297c1   Thumb Code    36  nrf_cli.o(i.nrf_cli_cmd_cli)
    i.nrf_cli_cmd_cli_stats                  0x00029804   Section        0  nrf_cli.o(i.nrf_cli_cmd_cli_stats)
    i.nrf_cli_cmd_cli_stats_reset            0x00029870   Section        0  nrf_cli.o(i.nrf_cli_cmd_cli_stats_reset)
    i.nrf_cli_cmd_cli_stats_show             0x000298a0   Section        0  nrf_cli.o(i.nrf_cli_cmd_cli_stats_show)
    i.nrf_cli_cmd_colors                     0x00029928   Section        0  nrf_cli.o(i.nrf_cli_cmd_colors)
    nrf_cli_cmd_colors                       0x00029929   Thumb Code    68  nrf_cli.o(i.nrf_cli_cmd_colors)
    i.nrf_cli_cmd_colors_off                 0x00029990   Section        0  nrf_cli.o(i.nrf_cli_cmd_colors_off)
    nrf_cli_cmd_colors_off                   0x00029991   Thumb Code    42  nrf_cli.o(i.nrf_cli_cmd_colors_off)
    i.nrf_cli_cmd_colors_on                  0x000299ba   Section        0  nrf_cli.o(i.nrf_cli_cmd_colors_on)
    nrf_cli_cmd_colors_on                    0x000299bb   Thumb Code    42  nrf_cli.o(i.nrf_cli_cmd_colors_on)
    i.nrf_cli_cmd_echo                       0x000299e4   Section        0  nrf_cli.o(i.nrf_cli_cmd_echo)
    nrf_cli_cmd_echo                         0x000299e5   Thumb Code    86  nrf_cli.o(i.nrf_cli_cmd_echo)
    i.nrf_cli_cmd_echo_off                   0x00029a7c   Section        0  nrf_cli.o(i.nrf_cli_cmd_echo_off)
    nrf_cli_cmd_echo_off                     0x00029a7d   Thumb Code    42  nrf_cli.o(i.nrf_cli_cmd_echo_off)
    i.nrf_cli_cmd_echo_on                    0x00029aa6   Section        0  nrf_cli.o(i.nrf_cli_cmd_echo_on)
    nrf_cli_cmd_echo_on                      0x00029aa7   Thumb Code    42  nrf_cli.o(i.nrf_cli_cmd_echo_on)
    i.nrf_cli_cmd_history                    0x00029ad0   Section        0  nrf_cli.o(i.nrf_cli_cmd_history)
    nrf_cli_cmd_history                      0x00029ad1   Thumb Code   108  nrf_cli.o(i.nrf_cli_cmd_history)
    i.nrf_cli_cmd_resize                     0x00029b48   Section        0  nrf_cli.o(i.nrf_cli_cmd_resize)
    nrf_cli_cmd_resize                       0x00029b49   Thumb Code    98  nrf_cli.o(i.nrf_cli_cmd_resize)
    i.nrf_cli_cmd_resize_default             0x00029c0c   Section        0  nrf_cli.o(i.nrf_cli_cmd_resize_default)
    nrf_cli_cmd_resize_default               0x00029c0d   Thumb Code    50  nrf_cli.o(i.nrf_cli_cmd_resize_default)
    i.nrf_cli_fprintf                        0x00029c48   Section        0  nrf_cli.o(i.nrf_cli_fprintf)
    i.nrf_cli_help_print                     0x00029c98   Section        0  nrf_cli.o(i.nrf_cli_help_print)
    i.nrf_cli_help_requested                 0x00029f14   Section        0  nrf_log_frontend.o(i.nrf_cli_help_requested)
    nrf_cli_help_requested                   0x00029f15   Thumb Code    12  nrf_log_frontend.o(i.nrf_cli_help_requested)
    i.nrf_cli_init                           0x00029f20   Section        0  nrf_cli.o(i.nrf_cli_init)
    i.nrf_cli_instance_init                  0x00029f54   Section        0  nrf_cli.o(i.nrf_cli_instance_init)
    nrf_cli_instance_init                    0x00029f55   Thumb Code   170  nrf_cli.o(i.nrf_cli_instance_init)
    i.nrf_cli_print_stream                   0x0002a014   Section        0  nrf_cli.o(i.nrf_cli_print_stream)
    i.nrf_cli_process                        0x0002a01c   Section        0  nrf_cli.o(i.nrf_cli_process)
    i.nrf_cli_start                          0x0002a090   Section        0  nrf_cli.o(i.nrf_cli_start)
    i.nrf_clock_event_check                  0x0002a0d8   Section        0  nrfx_clock.o(i.nrf_clock_event_check)
    nrf_clock_event_check                    0x0002a0d9   Thumb Code    14  nrfx_clock.o(i.nrf_clock_event_check)
    i.nrf_clock_event_clear                  0x0002a0e6   Section        0  nrfx_clock.o(i.nrf_clock_event_clear)
    nrf_clock_event_clear                    0x0002a0e7   Thumb Code    16  nrfx_clock.o(i.nrf_clock_event_clear)
    i.nrf_drv_clock_init                     0x0002a0f8   Section        0  nrf_drv_clock.o(i.nrf_drv_clock_init)
    i.nrf_drv_clock_lfclk_request            0x0002a134   Section        0  nrf_drv_clock.o(i.nrf_drv_clock_lfclk_request)
    i.nrf_drv_uart_init                      0x0002a17c   Section        0  nrf_drv_uart.o(i.nrf_drv_uart_init)
    i.nrf_drv_uart_tx                        0x0002a1e4   Section        0  nrf_cli_uart.o(i.nrf_drv_uart_tx)
    nrf_drv_uart_tx                          0x0002a1e5   Thumb Code    26  nrf_cli_uart.o(i.nrf_drv_uart_tx)
    i.nrf_drv_uart_uninit                    0x0002a204   Section        0  nrf_cli_uart.o(i.nrf_drv_uart_uninit)
    nrf_drv_uart_uninit                      0x0002a205   Thumb Code    20  nrf_cli_uart.o(i.nrf_drv_uart_uninit)
    i.nrf_fprintf                            0x0002a21c   Section        0  nrf_fprintf.o(i.nrf_fprintf)
    i.nrf_fprintf_buffer_flush               0x0002a236   Section        0  nrf_fprintf.o(i.nrf_fprintf_buffer_flush)
    i.nrf_fprintf_fmt                        0x0002a24e   Section        0  nrf_fprintf_format.o(i.nrf_fprintf_fmt)
    i.nrf_gpio_cfg                           0x0002a428   Section        0  nrfx_uart.o(i.nrf_gpio_cfg)
    nrf_gpio_cfg                             0x0002a429   Thumb Code    36  nrfx_uart.o(i.nrf_gpio_cfg)
    i.nrf_gpio_cfg                           0x0002a44c   Section        0  nrfx_uarte.o(i.nrf_gpio_cfg)
    nrf_gpio_cfg                             0x0002a44d   Thumb Code    36  nrfx_uarte.o(i.nrf_gpio_cfg)
    i.nrf_gpio_cfg_default                   0x0002a470   Section        0  nrfx_uart.o(i.nrf_gpio_cfg_default)
    nrf_gpio_cfg_default                     0x0002a471   Thumb Code    18  nrfx_uart.o(i.nrf_gpio_cfg_default)
    i.nrf_gpio_cfg_default                   0x0002a482   Section        0  nrfx_uarte.o(i.nrf_gpio_cfg_default)
    nrf_gpio_cfg_default                     0x0002a483   Thumb Code    18  nrfx_uarte.o(i.nrf_gpio_cfg_default)
    i.nrf_gpio_cfg_input                     0x0002a494   Section        0  nrfx_uart.o(i.nrf_gpio_cfg_input)
    nrf_gpio_cfg_input                       0x0002a495   Thumb Code    18  nrfx_uart.o(i.nrf_gpio_cfg_input)
    i.nrf_gpio_cfg_input                     0x0002a4a6   Section        0  nrfx_uarte.o(i.nrf_gpio_cfg_input)
    nrf_gpio_cfg_input                       0x0002a4a7   Thumb Code    18  nrfx_uarte.o(i.nrf_gpio_cfg_input)
    i.nrf_gpio_cfg_output                    0x0002a4b8   Section        0  nrfx_uart.o(i.nrf_gpio_cfg_output)
    nrf_gpio_cfg_output                      0x0002a4b9   Thumb Code    20  nrfx_uart.o(i.nrf_gpio_cfg_output)
    i.nrf_gpio_cfg_output                    0x0002a4cc   Section        0  nrfx_uarte.o(i.nrf_gpio_cfg_output)
    nrf_gpio_cfg_output                      0x0002a4cd   Thumb Code    20  nrfx_uarte.o(i.nrf_gpio_cfg_output)
    i.nrf_log_backend_add                    0x0002a4e0   Section        0  nrf_log_frontend.o(i.nrf_log_backend_add)
    i.nrf_log_backend_cli_flush              0x0002a570   Section        0  nrf_cli.o(i.nrf_log_backend_cli_flush)
    nrf_log_backend_cli_flush                0x0002a571   Thumb Code    10  nrf_cli.o(i.nrf_log_backend_cli_flush)
    i.nrf_log_backend_cli_panic_set          0x0002a57a   Section        0  nrf_cli.o(i.nrf_log_backend_cli_panic_set)
    nrf_log_backend_cli_panic_set            0x0002a57b   Thumb Code    30  nrf_cli.o(i.nrf_log_backend_cli_panic_set)
    i.nrf_log_backend_cli_put                0x0002a598   Section        0  nrf_cli.o(i.nrf_log_backend_cli_put)
    nrf_log_backend_cli_put                  0x0002a599   Thumb Code    82  nrf_cli.o(i.nrf_log_backend_cli_put)
    i.nrf_log_backend_serial_put             0x0002a5ea   Section        0  nrf_log_backend_serial.o(i.nrf_log_backend_serial_put)
    i.nrf_log_backend_uart_flush             0x0002a6b2   Section        0  nrf_log_backend_uart.o(i.nrf_log_backend_uart_flush)
    nrf_log_backend_uart_flush               0x0002a6b3   Thumb Code     2  nrf_log_backend_uart.o(i.nrf_log_backend_uart_flush)
    i.nrf_log_backend_uart_panic_set         0x0002a6b4   Section        0  nrf_log_backend_uart.o(i.nrf_log_backend_uart_panic_set)
    nrf_log_backend_uart_panic_set           0x0002a6b5   Thumb Code    36  nrf_log_backend_uart.o(i.nrf_log_backend_uart_panic_set)
    i.nrf_log_backend_uart_put               0x0002a6e0   Section        0  nrf_log_backend_uart.o(i.nrf_log_backend_uart_put)
    nrf_log_backend_uart_put                 0x0002a6e1   Thumb Code    16  nrf_log_backend_uart.o(i.nrf_log_backend_uart_put)
    i.nrf_log_color_id_get                   0x0002a6f8   Section        0  nrf_log_frontend.o(i.nrf_log_color_id_get)
    i.nrf_log_frontend_dequeue               0x0002a728   Section        0  nrf_log_frontend.o(i.nrf_log_frontend_dequeue)
    i.nrf_log_frontend_std_0                 0x0002a99c   Section        0  nrf_log_frontend.o(i.nrf_log_frontend_std_0)
    i.nrf_log_hexdump_entry_process          0x0002a9a4   Section        0  nrf_log_str_formatter.o(i.nrf_log_hexdump_entry_process)
    i.nrf_log_init                           0x0002aa54   Section        0  nrf_log_frontend.o(i.nrf_log_init)
    i.nrf_log_module_cnt_get                 0x0002aaf4   Section        0  nrf_log_frontend.o(i.nrf_log_module_cnt_get)
    i.nrf_log_module_filter_get              0x0002ab08   Section        0  nrf_log_frontend.o(i.nrf_log_module_filter_get)
    i.nrf_log_module_filter_set              0x0002ab50   Section        0  nrf_log_frontend.o(i.nrf_log_module_filter_set)
    i.nrf_log_module_name_get                0x0002aba0   Section        0  nrf_log_frontend.o(i.nrf_log_module_name_get)
    i.nrf_log_panic                          0x0002abbc   Section        0  nrf_log_frontend.o(i.nrf_log_panic)
    i.nrf_log_std_entry_process              0x0002abe4   Section        0  nrf_log_str_formatter.o(i.nrf_log_std_entry_process)
    i.nrf_memobj_alloc                       0x0002ac9a   Section        0  nrf_memobj.o(i.nrf_memobj_alloc)
    i.nrf_memobj_free                        0x0002acfa   Section        0  nrf_memobj.o(i.nrf_memobj_free)
    i.nrf_memobj_get                         0x0002ad2c   Section        0  nrf_memobj.o(i.nrf_memobj_get)
    i.nrf_memobj_pool_init                   0x0002ad34   Section        0  nrf_memobj.o(i.nrf_memobj_pool_init)
    i.nrf_memobj_put                         0x0002ad38   Section        0  nrf_memobj.o(i.nrf_memobj_put)
    i.nrf_memobj_read                        0x0002ad56   Section        0  nrf_memobj.o(i.nrf_memobj_read)
    i.nrf_memobj_write                       0x0002ad66   Section        0  nrf_memobj.o(i.nrf_memobj_write)
    i.nrf_nvmc_page_erase                    0x0002ad78   Section        0  nrf_nvmc.o(i.nrf_nvmc_page_erase)
    i.nrf_nvmc_write_word                    0x0002ada8   Section        0  nrf_nvmc.o(i.nrf_nvmc_write_word)
    i.nrf_pwr_mgmt_feed                      0x0002add8   Section        0  nrf_pwr_mgmt.o(i.nrf_pwr_mgmt_feed)
    i.nrf_queue_generic_pop                  0x0002adda   Section        0  nrf_queue.o(i.nrf_queue_generic_pop)
    i.nrf_queue_is_empty                     0x0002ae62   Section        0  nrf_queue.o(i.nrf_queue_is_empty)
    i.nrf_queue_is_full                      0x0002ae74   Section        0  nrf_queue.o(i.nrf_queue_is_full)
    i.nrf_queue_max_utilization_get          0x0002ae92   Section        0  nrf_queue.o(i.nrf_queue_max_utilization_get)
    i.nrf_queue_max_utilization_reset        0x0002ae98   Section        0  nrf_queue.o(i.nrf_queue_max_utilization_reset)
    i.nrf_queue_next_idx                     0x0002aea0   Section        0  nrf_queue.o(i.nrf_queue_next_idx)
    nrf_queue_next_idx                       0x0002aea1   Thumb Code    14  nrf_queue.o(i.nrf_queue_next_idx)
    i.nrf_queue_push                         0x0002aeae   Section        0  nrf_queue.o(i.nrf_queue_push)
    i.nrf_queue_status                       0x0002af5c   Section        0  nrf_queue.o(i.nrf_queue_status)
    nrf_queue_status                         0x0002af5d   Thumb Code   168  nrf_queue.o(i.nrf_queue_status)
    i.nrf_queue_utilization_get              0x0002b03c   Section        0  nrf_queue.o(i.nrf_queue_utilization_get)
    i.nrf_ringbuf_alloc                      0x0002b058   Section        0  nrf_ringbuf.o(i.nrf_ringbuf_alloc)
    i.nrf_ringbuf_cpy_get                    0x0002b0c8   Section        0  nrf_ringbuf.o(i.nrf_ringbuf_cpy_get)
    i.nrf_ringbuf_cpy_put                    0x0002b144   Section        0  nrf_ringbuf.o(i.nrf_ringbuf_cpy_put)
    i.nrf_ringbuf_free                       0x0002b1b6   Section        0  nrf_ringbuf.o(i.nrf_ringbuf_free)
    i.nrf_ringbuf_get                        0x0002b1dc   Section        0  nrf_ringbuf.o(i.nrf_ringbuf_get)
    i.nrf_ringbuf_init                       0x0002b24c   Section        0  nrf_ringbuf.o(i.nrf_ringbuf_init)
    i.nrf_ringbuf_put                        0x0002b268   Section        0  nrf_ringbuf.o(i.nrf_ringbuf_put)
    i.nrf_rtc_event_clear                    0x0002b298   Section        0  drv_rtc.o(i.nrf_rtc_event_clear)
    nrf_rtc_event_clear                      0x0002b299   Thumb Code    12  drv_rtc.o(i.nrf_rtc_event_clear)
    i.nrf_sortlist_add                       0x0002b2a4   Section        0  nrf_sortlist.o(i.nrf_sortlist_add)
    i.nrf_sortlist_peek                      0x0002b2c6   Section        0  nrf_sortlist.o(i.nrf_sortlist_peek)
    i.nrf_sortlist_pop                       0x0002b2cc   Section        0  nrf_sortlist.o(i.nrf_sortlist_pop)
    i.nrf_sortlist_remove                    0x0002b2da   Section        0  nrf_sortlist.o(i.nrf_sortlist_remove)
    i.nrf_uart_event_check                   0x0002b2f8   Section        0  nrfx_uart.o(i.nrf_uart_event_check)
    nrf_uart_event_check                     0x0002b2f9   Thumb Code    10  nrfx_uart.o(i.nrf_uart_event_check)
    i.nrf_uart_event_clear                   0x0002b302   Section        0  nrfx_uart.o(i.nrf_uart_event_clear)
    nrf_uart_event_clear                     0x0002b303   Thumb Code    12  nrfx_uart.o(i.nrf_uart_event_clear)
    i.nrf_uart_int_enable_check              0x0002b30e   Section        0  nrfx_uart.o(i.nrf_uart_int_enable_check)
    nrf_uart_int_enable_check                0x0002b30f   Thumb Code    12  nrfx_uart.o(i.nrf_uart_int_enable_check)
    i.nrf_uarte_event_check                  0x0002b31a   Section        0  nrfx_uarte.o(i.nrf_uarte_event_check)
    nrf_uarte_event_check                    0x0002b31b   Thumb Code    10  nrfx_uarte.o(i.nrf_uarte_event_check)
    i.nrf_uarte_event_clear                  0x0002b324   Section        0  nrfx_uarte.o(i.nrf_uarte_event_clear)
    nrf_uarte_event_clear                    0x0002b325   Thumb Code    12  nrfx_uarte.o(i.nrf_uarte_event_clear)
    i.nrf_wdt_started                        0x0002b330   Section        0  nrf_drv_clock.o(i.nrf_wdt_started)
    nrf_wdt_started                          0x0002b331   Thumb Code    12  nrf_drv_clock.o(i.nrf_wdt_started)
    i.nrfx_clock_enable                      0x0002b340   Section        0  nrfx_clock.o(i.nrfx_clock_enable)
    i.nrfx_clock_init                        0x0002b36c   Section        0  nrfx_clock.o(i.nrfx_clock_init)
    i.nrfx_clock_lfclk_start                 0x0002b38c   Section        0  nrfx_clock.o(i.nrfx_clock_lfclk_start)
    i.nrfx_coredep_delay_us                  0x0002b3d8   Section        0  drv_rtc.o(i.nrfx_coredep_delay_us)
    nrfx_coredep_delay_us                    0x0002b3d9   Thumb Code    12  drv_rtc.o(i.nrfx_coredep_delay_us)
    i.nrfx_is_in_ram                         0x0002b3e8   Section        0  nrfx_uarte.o(i.nrfx_is_in_ram)
    nrfx_is_in_ram                           0x0002b3e9   Thumb Code    16  nrfx_uarte.o(i.nrfx_is_in_ram)
    i.nrfx_prs_acquire                       0x0002b3f8   Section        0  nrfx_prs.o(i.nrfx_prs_acquire)
    i.nrfx_prs_release                       0x0002b428   Section        0  nrfx_prs.o(i.nrfx_prs_release)
    i.nrfx_uart_0_irq_handler                0x0002b43c   Section        0  nrfx_uart.o(i.nrfx_uart_0_irq_handler)
    i.nrfx_uart_init                         0x0002b44c   Section        0  nrfx_uart.o(i.nrfx_uart_init)
    i.nrfx_uart_rx                           0x0002b520   Section        0  nrfx_uart.o(i.nrfx_uart_rx)
    i.nrfx_uart_rx_abort                     0x0002b60c   Section        0  nrfx_uart.o(i.nrfx_uart_rx_abort)
    i.nrfx_uart_tx                           0x0002b620   Section        0  nrfx_uart.o(i.nrfx_uart_tx)
    i.nrfx_uart_tx_in_progress               0x0002b6c8   Section        0  nrfx_uart.o(i.nrfx_uart_tx_in_progress)
    i.nrfx_uart_uninit                       0x0002b6e8   Section        0  nrfx_uart.o(i.nrfx_uart_uninit)
    i.nrfx_uarte_0_irq_handler               0x0002b7a8   Section        0  nrfx_uarte.o(i.nrfx_uarte_0_irq_handler)
    i.nrfx_uarte_init                        0x0002b7b8   Section        0  nrfx_uarte.o(i.nrfx_uarte_init)
    i.nrfx_uarte_rx                          0x0002b824   Section        0  nrfx_uarte.o(i.nrfx_uarte_rx)
    i.nrfx_uarte_rx_abort                    0x0002b928   Section        0  nrfx_uarte.o(i.nrfx_uarte_rx_abort)
    i.nrfx_uarte_tx                          0x0002b954   Section        0  nrfx_uarte.o(i.nrfx_uarte_tx)
    i.nrfx_uarte_tx_in_progress              0x0002ba00   Section        0  nrfx_uarte.o(i.nrfx_uarte_tx_in_progress)
    i.nrfx_uarte_uninit                      0x0002ba1c   Section        0  nrfx_uarte.o(i.nrfx_uarte_uninit)
    i.option_print                           0x0002bb24   Section        0  nrf_cli.o(i.option_print)
    option_print                             0x0002bb25   Thumb Code   128  nrf_cli.o(i.option_print)
    i.postfix_process                        0x0002bbb4   Section        0  nrf_log_str_formatter.o(i.postfix_process)
    postfix_process                          0x0002bbb5   Thumb Code    48  nrf_log_str_formatter.o(i.postfix_process)
    i.prefix_process                         0x0002bbf0   Section        0  nrf_log_str_formatter.o(i.prefix_process)
    prefix_process                           0x0002bbf1   Thumb Code    90  nrf_log_str_formatter.o(i.prefix_process)
    i.prs_box_get                            0x0002bc88   Section        0  nrfx_prs.o(i.prs_box_get)
    prs_box_get                              0x0002bc89   Thumb Code    14  nrfx_prs.o(i.prs_box_get)
    i.queue_utilization_get                  0x0002bca0   Section        0  nrf_queue.o(i.queue_utilization_get)
    queue_utilization_get                    0x0002bca1   Thumb Code    24  nrf_queue.o(i.queue_utilization_get)
    i.rtc_irq                                0x0002bcb8   Section        0  app_timer2.o(i.rtc_irq)
    rtc_irq                                  0x0002bcb9   Thumb Code    88  app_timer2.o(i.rtc_irq)
    i.rtc_schedule                           0x0002bd14   Section        0  app_timer2.o(i.rtc_schedule)
    rtc_schedule                             0x0002bd15   Thumb Code    92  app_timer2.o(i.rtc_schedule)
    i.rtc_update                             0x0002bd78   Section        0  app_timer2.o(i.rtc_update)
    rtc_update                               0x0002bd79   Thumb Code   110  app_timer2.o(i.rtc_update)
    i.rx_byte                                0x0002bdf0   Section        0  nrfx_uart.o(i.rx_byte)
    rx_byte                                  0x0002bdf1   Thumb Code    50  nrfx_uart.o(i.rx_byte)
    i.rx_done_event                          0x0002be22   Section        0  nrfx_uart.o(i.rx_done_event)
    rx_done_event                            0x0002be23   Thumb Code    22  nrfx_uart.o(i.rx_done_event)
    i.rx_done_event                          0x0002be38   Section        0  nrfx_uarte.o(i.rx_done_event)
    rx_done_event                            0x0002be39   Thumb Code    22  nrfx_uarte.o(i.rx_done_event)
    i.rx_enable                              0x0002be4e   Section        0  nrfx_uart.o(i.rx_enable)
    rx_enable                                0x0002be4f   Thumb Code    32  nrfx_uart.o(i.rx_enable)
    i.rx_try                                 0x0002be70   Section        0  nrf_cli_uart.o(i.rx_try)
    rx_try                                   0x0002be71   Thumb Code    78  nrf_cli_uart.o(i.rx_try)
    i.serial_tx                              0x0002bec4   Section        0  nrf_log_backend_uart.o(i.serial_tx)
    serial_tx                                0x0002bec5   Thumb Code    54  nrf_log_backend_uart.o(i.serial_tx)
    i.severity_lvl_get                       0x0002bf04   Section        0  nrf_log_frontend.o(i.severity_lvl_get)
    severity_lvl_get                         0x0002bf05   Thumb Code    28  nrf_log_frontend.o(i.severity_lvl_get)
    i.sortlist_pop                           0x0002bf28   Section        0  app_timer2.o(i.sortlist_pop)
    sortlist_pop                             0x0002bf29   Thumb Code     6  app_timer2.o(i.sortlist_pop)
    i.std_n                                  0x0002bf34   Section        0  nrf_log_frontend.o(i.std_n)
    std_n                                    0x0002bf35   Thumb Code   140  nrf_log_frontend.o(i.std_n)
    i.string_cmp                             0x0002bfc8   Section        0  nrf_cli.o(i.string_cmp)
    string_cmp                               0x0002bfc9   Thumb Code     8  nrf_cli.o(i.string_cmp)
    i.terminal_size_get                      0x0002bfd0   Section        0  nrf_cli.o(i.terminal_size_get)
    terminal_size_get                        0x0002bfd1   Thumb Code    96  nrf_cli.o(i.terminal_size_get)
    i.timer_expire                           0x0002c030   Section        0  app_timer2.o(i.timer_expire)
    timer_expire                             0x0002c031   Thumb Code    86  app_timer2.o(i.timer_expire)
    i.timer_handler                          0x0002c090   Section        0  nrf_cli_uart.o(i.timer_handler)
    timer_handler                            0x0002c091   Thumb Code    22  nrf_cli_uart.o(i.timer_handler)
    i.timer_req_process                      0x0002c0ac   Section        0  app_timer2.o(i.timer_req_process)
    timer_req_process                        0x0002c0ad   Thumb Code   116  app_timer2.o(i.timer_req_process)
    i.timer_req_schedule                     0x0002c128   Section        0  app_timer2.o(i.timer_req_schedule)
    timer_req_schedule                       0x0002c129   Thumb Code    46  app_timer2.o(i.timer_req_schedule)
    i.tx_byte                                0x0002c160   Section        0  nrfx_uart.o(i.tx_byte)
    tx_byte                                  0x0002c161   Thumb Code    32  nrfx_uart.o(i.tx_byte)
    i.tx_done_event                          0x0002c180   Section        0  nrfx_uart.o(i.tx_done_event)
    tx_done_event                            0x0002c181   Thumb Code    26  nrfx_uart.o(i.tx_done_event)
    i.tx_done_event                          0x0002c19a   Section        0  nrfx_uarte.o(i.tx_done_event)
    tx_done_event                            0x0002c19b   Thumb Code    26  nrfx_uarte.o(i.tx_done_event)
    i.uart_event_handler                     0x0002c1b4   Section        0  nrf_cli_uart.o(i.uart_event_handler)
    uart_event_handler                       0x0002c1b5   Thumb Code   110  nrf_cli_uart.o(i.uart_event_handler)
    i.uart_evt_handler                       0x0002c224   Section        0  nrf_drv_uart.o(i.uart_evt_handler)
    uart_evt_handler                         0x0002c225   Thumb Code    42  nrf_drv_uart.o(i.uart_evt_handler)
    i.uart_evt_handler                       0x0002c254   Section        0  nrf_log_backend_uart.o(i.uart_evt_handler)
    uart_evt_handler                         0x0002c255   Thumb Code     8  nrf_log_backend_uart.o(i.uart_evt_handler)
    i.uart_init                              0x0002c260   Section        0  nrf_log_backend_uart.o(i.uart_init)
    uart_init                                0x0002c261   Thumb Code    66  nrf_log_backend_uart.o(i.uart_init)
    i.uart_irq_handler                       0x0002c2b0   Section        0  nrfx_uart.o(i.uart_irq_handler)
    uart_irq_handler                         0x0002c2b1   Thumb Code   298  nrfx_uart.o(i.uart_irq_handler)
    i.uarte_evt_handler                      0x0002c3dc   Section        0  nrf_drv_uart.o(i.uarte_evt_handler)
    uarte_evt_handler                        0x0002c3dd   Thumb Code    42  nrf_drv_uart.o(i.uarte_evt_handler)
    i.uarte_irq_handler                      0x0002c40c   Section        0  nrfx_uarte.o(i.uarte_irq_handler)
    uarte_irq_handler                        0x0002c40d   Thumb Code   274  nrfx_uarte.o(i.uarte_irq_handler)
    i.unsigned_print                         0x0002c520   Section        0  nrf_fprintf_format.o(i.unsigned_print)
    unsigned_print                           0x0002c521   Thumb Code   176  nrf_fprintf_format.o(i.unsigned_print)
    i.vt100_bgcolor_set                      0x0002c5d4   Section        0  nrf_cli.o(i.vt100_bgcolor_set)
    vt100_bgcolor_set                        0x0002c5d5   Thumb Code    48  nrf_cli.o(i.vt100_bgcolor_set)
    i.vt100_color_set                        0x0002c610   Section        0  nrf_cli.o(i.vt100_color_set)
    vt100_color_set                          0x0002c611   Thumb Code    64  nrf_cli.o(i.vt100_color_set)
    .constdata                               0x0002c660   Section        4  main.o(.constdata)
    m_cli_uart_transport_timer               0x0002c660   Data           4  main.o(.constdata)
    .constdata                               0x0002c664   Section       12  main.o(.constdata)
    m_cli_uart_transport_tx_ringbuf          0x0002c664   Data          12  main.o(.constdata)
    .constdata                               0x0002c670   Section       12  main.o(.constdata)
    m_cli_uart_transport_rx_ringbuf          0x0002c670   Data          12  main.o(.constdata)
    .constdata                               0x0002c67c   Section       20  main.o(.constdata)
    m_cli_uart_transport_uart                0x0002c67c   Data          20  main.o(.constdata)
    .constdata                               0x0002c690   Section       24  main.o(.constdata)
    m_cli_uart_transport                     0x0002c690   Data          24  main.o(.constdata)
    .constdata                               0x0002c6a8   Section       56  main.o(.constdata)
    m_cli_uart                               0x0002c6a8   Data          24  main.o(.constdata)
    .constdata                               0x0002c6e0   Section        8  main.o(.constdata)
    m_sub_flash                              0x0002c6e0   Data           8  main.o(.constdata)
    .constdata                               0x0002c6e8   Section       64  main.o(.constdata)
    m_sub_flash_raw                          0x0002c6e8   Data          64  main.o(.constdata)
    .constdata                               0x0002c728   Section       16  main.o(.constdata)
    .constdata                               0x0002c738   Section        4  nrfx_uart.o(.constdata)
    irq_handlers                             0x0002c738   Data           4  nrfx_uart.o(.constdata)
    .constdata                               0x0002c73c   Section        4  nrfx_uarte.o(.constdata)
    irq_handlers                             0x0002c73c   Data           4  nrfx_uarte.o(.constdata)
    .constdata                               0x0002c740   Section       20  app_timer2.o(.constdata)
    m_req_fifo                               0x0002c740   Data           4  app_timer2.o(.constdata)
    m_app_timer_sortlist                     0x0002c748   Data          12  app_timer2.o(.constdata)
    .constdata                               0x0002c760   Section        6  drv_rtc.o(.constdata)
    delay_machine_code                       0x0002c760   Data           6  drv_rtc.o(.constdata)
    .constdata                               0x0002c768   Section        8  nrf_balloc.o(.constdata)
    nrf_balloc_commands                      0x0002c768   Data           8  nrf_balloc.o(.constdata)
    .constdata                               0x0002c770   Section       32  nrf_balloc.o(.constdata)
    nrf_balloc_commands_raw                  0x0002c770   Data          32  nrf_balloc.o(.constdata)
    .constdata                               0x0002c790   Section       16  nrf_balloc.o(.constdata)
    .constdata                               0x0002c7a0   Section       12  nrf_cli.o(.constdata)
    .constdata                               0x0002c7ac   Section        8  nrf_cli.o(.constdata)
    m_sub_colors                             0x0002c7ac   Data           8  nrf_cli.o(.constdata)
    .constdata                               0x0002c7b4   Section       48  nrf_cli.o(.constdata)
    m_sub_colors_raw                         0x0002c7b4   Data          48  nrf_cli.o(.constdata)
    .constdata                               0x0002c7e4   Section        8  nrf_cli.o(.constdata)
    m_sub_echo                               0x0002c7e4   Data           8  nrf_cli.o(.constdata)
    .constdata                               0x0002c7ec   Section       48  nrf_cli.o(.constdata)
    m_sub_echo_raw                           0x0002c7ec   Data          48  nrf_cli.o(.constdata)
    .constdata                               0x0002c81c   Section        8  nrf_cli.o(.constdata)
    m_sub_cli_stats                          0x0002c81c   Data           8  nrf_cli.o(.constdata)
    .constdata                               0x0002c824   Section       48  nrf_cli.o(.constdata)
    m_sub_cli_stats_raw                      0x0002c824   Data          48  nrf_cli.o(.constdata)
    .constdata                               0x0002c854   Section        8  nrf_cli.o(.constdata)
    m_sub_cli                                0x0002c854   Data           8  nrf_cli.o(.constdata)
    .constdata                               0x0002c85c   Section       64  nrf_cli.o(.constdata)
    m_sub_cli_raw                            0x0002c85c   Data          64  nrf_cli.o(.constdata)
    .constdata                               0x0002c89c   Section        8  nrf_cli.o(.constdata)
    m_sub_resize                             0x0002c89c   Data           8  nrf_cli.o(.constdata)
    .constdata                               0x0002c8a4   Section       32  nrf_cli.o(.constdata)
    m_sub_resize_raw                         0x0002c8a4   Data          32  nrf_cli.o(.constdata)
    .constdata                               0x0002c8c4   Section       16  nrf_cli.o(.constdata)
    .constdata                               0x0002c8d4   Section       16  nrf_cli.o(.constdata)
    .constdata                               0x0002c8e4   Section       16  nrf_cli.o(.constdata)
    .constdata                               0x0002c8f4   Section       16  nrf_cli.o(.constdata)
    .constdata                               0x0002c910   Section       71  nrf_cli.o(.constdata)
    cmd                                      0x0002c910   Data           3  nrf_cli.o(.constdata)
    cmd                                      0x0002c913   Data           3  nrf_cli.o(.constdata)
    opt_sep                                  0x0002c916   Data           3  nrf_cli.o(.constdata)
    cmd                                      0x0002c919   Data           4  nrf_cli.o(.constdata)
    cmd                                      0x0002c91d   Data           4  nrf_cli.o(.constdata)
    cmd_bspace                               0x0002c921   Data           4  nrf_cli.o(.constdata)
    cmd                                      0x0002c925   Data           4  nrf_cli.o(.constdata)
    cmd_sep                                  0x0002c929   Data           4  nrf_cli.o(.constdata)
    cmd                                      0x0002c92d   Data           4  nrf_cli.o(.constdata)
    cmd_get_terminal_size                    0x0002c931   Data           5  nrf_cli.o(.constdata)
    cmd                                      0x0002c936   Data           5  nrf_cli.o(.constdata)
    delay_machine_code                       0x0002c940   Data           6  nrf_cli.o(.constdata)
    cmd                                      0x0002c946   Data           6  nrf_cli.o(.constdata)
    help                                     0x0002c94c   Data          11  nrf_cli.o(.constdata)
    .constdata                               0x0002c958   Section       20  nrf_cli_uart.o(.constdata)
    .constdata                               0x0002c96c   Section       16  nrf_fprintf_format.o(.constdata)
    _aV2C                                    0x0002c96c   Data          16  nrf_fprintf_format.o(.constdata)
    .constdata                               0x0002c97c   Section        8  nrf_queue.o(.constdata)
    nrf_queue_commands                       0x0002c97c   Data           8  nrf_queue.o(.constdata)
    .constdata                               0x0002c984   Section       32  nrf_queue.o(.constdata)
    nrf_queue_commands_raw                   0x0002c984   Data          32  nrf_queue.o(.constdata)
    .constdata                               0x0002c9a4   Section       16  nrf_queue.o(.constdata)
    .constdata                               0x0002c9b4   Section       12  nrf_log_backend_uart.o(.constdata)
    .constdata                               0x0002c9c0   Section       32  nrf_log_backend_uart.o(.constdata)
    .constdata                               0x0002c9e0   Section       28  nrf_log_frontend.o(.constdata)
    m_module_name                            0x0002c9e0   Data           8  nrf_log_frontend.o(.constdata)
    m_sub_log_backend                        0x0002c9e8   Data           8  nrf_log_frontend.o(.constdata)
    m_log_push_ringbuf                       0x0002c9f0   Data          12  nrf_log_frontend.o(.constdata)
    .constdata                               0x0002c9fc   Section        8  nrf_log_frontend.o(.constdata)
    m_severity_lvl                           0x0002c9fc   Data           8  nrf_log_frontend.o(.constdata)
    .constdata                               0x0002ca04   Section       96  nrf_log_frontend.o(.constdata)
    m_sub_log_backend_raw                    0x0002ca04   Data          96  nrf_log_frontend.o(.constdata)
    .constdata                               0x0002ca64   Section        8  nrf_log_frontend.o(.constdata)
    m_backend_name_dynamic                   0x0002ca64   Data           8  nrf_log_frontend.o(.constdata)
    .constdata                               0x0002ca6c   Section        8  nrf_log_frontend.o(.constdata)
    m_sub_log_config                         0x0002ca6c   Data           8  nrf_log_frontend.o(.constdata)
    .constdata                               0x0002ca74   Section       48  nrf_log_frontend.o(.constdata)
    m_sub_log_config_raw                     0x0002ca74   Data          48  nrf_log_frontend.o(.constdata)
    .constdata                               0x0002caa4   Section        8  nrf_log_frontend.o(.constdata)
    m_sub_log_stat                           0x0002caa4   Data           8  nrf_log_frontend.o(.constdata)
    .constdata                               0x0002caac   Section      144  nrf_log_frontend.o(.constdata)
    m_sub_log_stat_raw                       0x0002caac   Data         144  nrf_log_frontend.o(.constdata)
    .constdata                               0x0002cb3c   Section       16  nrf_log_frontend.o(.constdata)
    .constdata                               0x0002cb4c   Section      129  ctype_o.o(.constdata)
    .constdata                               0x0002cbd0   Section        4  ctype_o.o(.constdata)
    table                                    0x0002cbd0   Data           4  ctype_o.o(.constdata)
    .conststring                             0x0002cbd4   Section      113  main.o(.conststring)
    .conststring                             0x0002cc48   Section      158  main.o(.conststring)
    .conststring                             0x0002cce8   Section       30  main.o(.conststring)
    .conststring                             0x0002cd08   Section       43  nrf_balloc.o(.conststring)
    .conststring                             0x0002cd34   Section       39  nrf_balloc.o(.conststring)
    .conststring                             0x0002cd5c   Section      142  nrf_balloc.o(.conststring)
    .conststring                             0x0002cdec   Section       55  nrf_cli.o(.conststring)
    .conststring                             0x0002ce24   Section      109  nrf_cli.o(.conststring)
    .conststring                             0x0002ce94   Section      101  nrf_cli.o(.conststring)
    .conststring                             0x0002cefc   Section       82  nrf_cli.o(.conststring)
    .conststring                             0x0002cf50   Section       76  nrf_cli.o(.conststring)
    .conststring                             0x0002cf9c   Section       22  nrf_cli.o(.conststring)
    .conststring                             0x0002cfb4   Section       40  nrf_cli.o(.conststring)
    .conststring                             0x0002cfdc   Section       28  nrf_cli.o(.conststring)
    .conststring                             0x0002cff8   Section      167  nrf_cli.o(.conststring)
    .conststring                             0x0002d0a0   Section        3  nrf_cli.o(.conststring)
    .conststring                             0x0002d0a4   Section       33  nrf_queue.o(.conststring)
    .conststring                             0x0002d0c8   Section        6  nrf_queue.o(.conststring)
    .conststring                             0x0002d0d0   Section      124  nrf_queue.o(.conststring)
    .conststring                             0x0002d14c   Section       38  nrf_log_frontend.o(.conststring)
    .conststring                             0x0002d174   Section      313  nrf_log_frontend.o(.conststring)
    .conststring                             0x0002d2b0   Section      118  nrf_log_frontend.o(.conststring)
    .conststring                             0x0002d328   Section      110  nrf_log_frontend.o(.conststring)
    .conststring                             0x0002d398   Section       36  nrf_log_frontend.o(.conststring)
    .conststring                             0x0002d3bc   Section       72  nrf_log_str_formatter.o(.conststring)
    .conststrlit                             0x0002d404   Section      195  main.o(.conststrlit)
    .conststrlit                             0x0002d4c8   Section        6  nrf_drv_clock.o(.conststrlit)
    .conststrlit                             0x0002d4d0   Section        6  nrfx_clock.o(.conststrlit)
    .conststrlit                             0x0002d4d8   Section        4  nrfx_prs.o(.conststrlit)
    .conststrlit                             0x0002d4dc   Section        5  nrfx_uart.o(.conststrlit)
    .conststrlit                             0x0002d4e4   Section        6  nrfx_uarte.o(.conststrlit)
    .conststrlit                             0x0002d4ec   Section       30  app_timer2.o(.conststrlit)
    .conststrlit                             0x0002d50c   Section        9  nrf_cli_uart.o(.conststrlit)
    .conststrlit                             0x0002d518   Section        9  nrf_pwr_mgmt.o(.conststrlit)
    .conststrlit                             0x0002d524   Section        9  nrf_sortlist.o(.conststrlit)
    .conststrlit                             0x0002d530   Section       17  nrf_log_default_backends.o(.conststrlit)
    .conststrlit                             0x0002d544   Section       36  nrf_log_frontend.o(.conststrlit)
    cli_command                              0x0002d588   Section        8  main.o(cli_command)
    __tagsym$$used                           0x0002d588   Number         0  main.o(cli_command)
    cli_command                              0x0002d590   Section        8  nrf_balloc.o(cli_command)
    __tagsym$$used                           0x0002d590   Number         0  nrf_balloc.o(cli_command)
    cli_command                              0x0002d598   Section       32  nrf_cli.o(cli_command)
    __tagsym$$used                           0x0002d598   Number         0  nrf_cli.o(cli_command)
    __tagsym$$used                           0x0002d5a0   Number         0  nrf_cli.o(cli_command)
    __tagsym$$used                           0x0002d5a8   Number         0  nrf_cli.o(cli_command)
    __tagsym$$used                           0x0002d5b0   Number         0  nrf_cli.o(cli_command)
    cli_command                              0x0002d5b8   Section        8  nrf_queue.o(cli_command)
    __tagsym$$used                           0x0002d5b8   Number         0  nrf_queue.o(cli_command)
    cli_command                              0x0002d5c0   Section        8  nrf_log_frontend.o(cli_command)
    __tagsym$$used                           0x0002d5c0   Number         0  nrf_log_frontend.o(cli_command)
    log_backends                             0x0002d5c8   Section       16  main.o(log_backends)
    __tagsym$$used                           0x0002d5c8   Number         0  main.o(log_backends)
    m_cli_uart_log_backend                   0x0002d5c8   Data          16  main.o(log_backends)
    log_backends                             0x0002d5d8   Section       16  nrf_log_default_backends.o(log_backends)
    __tagsym$$used                           0x0002d5d8   Number         0  nrf_log_default_backends.o(log_backends)
    uart_log_backend                         0x0002d5d8   Data          16  nrf_log_default_backends.o(log_backends)
    log_const_data                           0x0002d5e8   Section       24  main.o(log_const_data)
    __tagsym$$used                           0x0002d5e8   Number         0  main.o(log_const_data)
    __tagsym$$used                           0x0002d5f0   Number         0  main.o(log_const_data)
    __tagsym$$used                           0x0002d5f8   Number         0  main.o(log_const_data)
    log_const_data                           0x0002d600   Section        8  nrf_drv_clock.o(log_const_data)
    __tagsym$$used                           0x0002d600   Number         0  nrf_drv_clock.o(log_const_data)
    log_const_data                           0x0002d608   Section        8  nrfx_clock.o(log_const_data)
    __tagsym$$used                           0x0002d608   Number         0  nrfx_clock.o(log_const_data)
    log_const_data                           0x0002d610   Section        8  nrfx_prs.o(log_const_data)
    __tagsym$$used                           0x0002d610   Number         0  nrfx_prs.o(log_const_data)
    log_const_data                           0x0002d618   Section        8  nrfx_uart.o(log_const_data)
    __tagsym$$used                           0x0002d618   Number         0  nrfx_uart.o(log_const_data)
    log_const_data                           0x0002d620   Section        8  nrfx_uarte.o(log_const_data)
    __tagsym$$used                           0x0002d620   Number         0  nrfx_uarte.o(log_const_data)
    log_const_data                           0x0002d628   Section       16  app_timer2.o(log_const_data)
    __tagsym$$used                           0x0002d628   Number         0  app_timer2.o(log_const_data)
    __tagsym$$used                           0x0002d630   Number         0  app_timer2.o(log_const_data)
    log_const_data                           0x0002d638   Section        8  nrf_cli_uart.o(log_const_data)
    __tagsym$$used                           0x0002d638   Number         0  nrf_cli_uart.o(log_const_data)
    log_const_data                           0x0002d640   Section        8  nrf_pwr_mgmt.o(log_const_data)
    __tagsym$$used                           0x0002d640   Number         0  nrf_pwr_mgmt.o(log_const_data)
    log_const_data                           0x0002d648   Section        8  nrf_sortlist.o(log_const_data)
    __tagsym$$used                           0x0002d648   Number         0  nrf_sortlist.o(log_const_data)
    log_const_data                           0x0002d650   Section       16  nrf_log_frontend.o(log_const_data)
    __tagsym$$used                           0x0002d650   Number         0  nrf_log_frontend.o(log_const_data)
    __tagsym$$used                           0x0002d658   Number         0  nrf_log_frontend.o(log_const_data)
    nrf_balloc                               0x0002d660   Section       28  main.o(nrf_balloc)
    __tagsym$$used                           0x0002d660   Number         0  main.o(nrf_balloc)
    nrf_balloc                               0x0002d67c   Section       28  nrf_log_frontend.o(nrf_balloc)
    __tagsym$$used                           0x0002d67c   Number         0  nrf_log_frontend.o(nrf_balloc)
    nrf_queue                                0x0002d698   Section       28  main.o(nrf_queue)
    __tagsym$$used                           0x0002d698   Number         0  main.o(nrf_queue)
    .data                                    0x20002998   Section       40  main.o(.data)
    m_cli_uart_transport_timer_data          0x20002998   Data          40  main.o(.data)
    .data                                    0x200029c0   Section       24  main.o(.data)
    m_cli_uart_fprintf_ctx                   0x200029c0   Data          24  main.o(.data)
    .data                                    0x200029d8   Section       12  main.o(.data)
    cli_log_backendm_cli_uart_log_backend    0x200029d8   Data          12  main.o(.data)
    .data                                    0x200029e4   Section        8  main.o(.data)
    log_backend_cb_m_cli_uart_log_backend    0x200029e4   Data           8  main.o(.data)
    .data                                    0x200029ec   Section        8  main.o(.data)
    m_cli_uart_cmd_hist_memobj_nrf_balloc_pool_stack 0x200029ec   Data           8  main.o(.data)
    .data                                    0x200029f4   Section        8  main.o(.data)
    m_cli_uart_cmd_hist_memobj_nrf_balloc_cb 0x200029f4   Data           8  main.o(.data)
    .data                                    0x200029fc   Section       12  nrf_drv_uart.o(.data)
    m_handlers                               0x20002a00   Data           4  nrf_drv_uart.o(.data)
    m_contexts                               0x20002a04   Data           4  nrf_drv_uart.o(.data)
    .data                                    0x20002a08   Section        8  nrfx_clock.o(.data)
    m_clock_cb                               0x20002a08   Data           8  nrfx_clock.o(.data)
    .data                                    0x20002a10   Section        8  nrfx_prs.o(.data)
    m_prs_box_4                              0x20002a10   Data           8  nrfx_prs.o(.data)
    .data                                    0x20002a18   Section       32  app_timer2.o(.data)
    m_global_active                          0x20002a18   Data           1  app_timer2.o(.data)
    mp_active_timer                          0x20002a1c   Data           4  app_timer2.o(.data)
    m_rtc_inst                               0x20002a20   Data           8  app_timer2.o(.data)
    m_base_counter                           0x20002a28   Data           8  app_timer2.o(.data)
    m_stamp64                                0x20002a30   Data           8  app_timer2.o(.data)
    .data                                    0x20002a38   Section       20  app_timer2.o(.data)
    m_req_fifo_inst                          0x20002a38   Data          20  app_timer2.o(.data)
    .data                                    0x20002a4c   Section        4  app_timer2.o(.data)
    m_app_timer_sortlist_sortlist_cb         0x20002a4c   Data           4  app_timer2.o(.data)
    .data                                    0x20002a50   Section        4  app_util_platform.o(.data)
    m_in_critical_region                     0x20002a50   Data           4  app_util_platform.o(.data)
    .data                                    0x20002a54   Section       12  drv_rtc.o(.data)
    m_handlers                               0x20002a54   Data           4  drv_rtc.o(.data)
    m_cb                                     0x20002a58   Data           8  drv_rtc.o(.data)
    .data                                    0x20002a60   Section        4  nrf_cli.o(.data)
    tab                                      0x20002a60   Data           4  nrf_cli.o(.data)
    .data                                    0x20002a64   Section       24  nrf_log_backend_uart.o(.data)
    m_xfer_done                              0x20002a64   Data           1  nrf_log_backend_uart.o(.data)
    m_async_mode                             0x20002a65   Data           1  nrf_log_backend_uart.o(.data)
    .data                                    0x20002a7c   Section        8  nrf_log_default_backends.o(.data)
    log_backend_cb_uart_log_backend          0x20002a7c   Data           8  nrf_log_default_backends.o(.data)
    .data                                    0x20002a84   Section       44  nrf_log_frontend.o(.data)
    m_buffer_mask                            0x20002a84   Data           4  nrf_log_frontend.o(.data)
    m_severity_lvls                          0x20002a88   Data          20  nrf_log_frontend.o(.data)
    m_severity_lvls_sorted                   0x20002a9c   Data          20  nrf_log_frontend.o(.data)
    .data                                    0x20002ab0   Section        8  nrf_log_frontend.o(.data)
    log_mempool_nrf_balloc_pool_stack        0x20002ab0   Data           8  nrf_log_frontend.o(.data)
    .data                                    0x20002ab8   Section        8  nrf_log_frontend.o(.data)
    log_mempool_nrf_balloc_cb                0x20002ab8   Data           8  nrf_log_frontend.o(.data)
    .data                                    0x20002ac0   Section       64  nrf_log_str_formatter.o(.data)
    m_freq                                   0x20002ac0   Data           4  nrf_log_str_formatter.o(.data)
    m_timestamp_div                          0x20002ac4   Data           4  nrf_log_str_formatter.o(.data)
    severity_names                           0x20002ac8   Data          20  nrf_log_str_formatter.o(.data)
    m_colors                                 0x20002adc   Data          36  nrf_log_str_formatter.o(.data)
    .data                                    0x20002b00   Section        4  system_nrf52.o(.data)
    __tagsym$$used                           0x20002b00   Number         0  system_nrf52.o(.data)
    cli_sorted_cmd_ptrs                      0x20002b04   Section        4  main.o(cli_sorted_cmd_ptrs)
    __tagsym$$used                           0x20002b04   Number         0  main.o(cli_sorted_cmd_ptrs)
    cli_sorted_cmd_ptrs                      0x20002b08   Section        4  nrf_balloc.o(cli_sorted_cmd_ptrs)
    __tagsym$$used                           0x20002b08   Number         0  nrf_balloc.o(cli_sorted_cmd_ptrs)
    cli_sorted_cmd_ptrs                      0x20002b0c   Section       16  nrf_cli.o(cli_sorted_cmd_ptrs)
    __tagsym$$used                           0x20002b0c   Number         0  nrf_cli.o(cli_sorted_cmd_ptrs)
    __tagsym$$used                           0x20002b10   Number         0  nrf_cli.o(cli_sorted_cmd_ptrs)
    __tagsym$$used                           0x20002b14   Number         0  nrf_cli.o(cli_sorted_cmd_ptrs)
    __tagsym$$used                           0x20002b18   Number         0  nrf_cli.o(cli_sorted_cmd_ptrs)
    cli_sorted_cmd_ptrs                      0x20002b1c   Section        4  nrf_queue.o(cli_sorted_cmd_ptrs)
    __tagsym$$used                           0x20002b1c   Number         0  nrf_queue.o(cli_sorted_cmd_ptrs)
    cli_sorted_cmd_ptrs                      0x20002b20   Section        4  nrf_log_frontend.o(cli_sorted_cmd_ptrs)
    __tagsym$$used                           0x20002b20   Number         0  nrf_log_frontend.o(cli_sorted_cmd_ptrs)
    log_dynamic_data                         0x20002b24   Section       12  main.o(log_dynamic_data)
    __tagsym$$used                           0x20002b24   Number         0  main.o(log_dynamic_data)
    __tagsym$$used                           0x20002b28   Number         0  main.o(log_dynamic_data)
    __tagsym$$used                           0x20002b2c   Number         0  main.o(log_dynamic_data)
    log_dynamic_data                         0x20002b30   Section        4  nrf_drv_clock.o(log_dynamic_data)
    __tagsym$$used                           0x20002b30   Number         0  nrf_drv_clock.o(log_dynamic_data)
    log_dynamic_data                         0x20002b34   Section        4  nrfx_clock.o(log_dynamic_data)
    __tagsym$$used                           0x20002b34   Number         0  nrfx_clock.o(log_dynamic_data)
    log_dynamic_data                         0x20002b38   Section        4  nrfx_prs.o(log_dynamic_data)
    __tagsym$$used                           0x20002b38   Number         0  nrfx_prs.o(log_dynamic_data)
    log_dynamic_data                         0x20002b3c   Section        4  nrfx_uart.o(log_dynamic_data)
    __tagsym$$used                           0x20002b3c   Number         0  nrfx_uart.o(log_dynamic_data)
    log_dynamic_data                         0x20002b40   Section        4  nrfx_uarte.o(log_dynamic_data)
    __tagsym$$used                           0x20002b40   Number         0  nrfx_uarte.o(log_dynamic_data)
    log_dynamic_data                         0x20002b44   Section        8  app_timer2.o(log_dynamic_data)
    __tagsym$$used                           0x20002b44   Number         0  app_timer2.o(log_dynamic_data)
    __tagsym$$used                           0x20002b48   Number         0  app_timer2.o(log_dynamic_data)
    log_dynamic_data                         0x20002b4c   Section        4  nrf_cli_uart.o(log_dynamic_data)
    __tagsym$$used                           0x20002b4c   Number         0  nrf_cli_uart.o(log_dynamic_data)
    log_dynamic_data                         0x20002b50   Section        4  nrf_pwr_mgmt.o(log_dynamic_data)
    __tagsym$$used                           0x20002b50   Number         0  nrf_pwr_mgmt.o(log_dynamic_data)
    log_dynamic_data                         0x20002b54   Section        4  nrf_sortlist.o(log_dynamic_data)
    __tagsym$$used                           0x20002b54   Number         0  nrf_sortlist.o(log_dynamic_data)
    log_dynamic_data                         0x20002b58   Section        8  nrf_log_frontend.o(log_dynamic_data)
    __tagsym$$used                           0x20002b58   Number         0  nrf_log_frontend.o(log_dynamic_data)
    __tagsym$$used                           0x20002b5c   Number         0  nrf_log_frontend.o(log_dynamic_data)
    log_filter_data                          0x20002b60   Section       12  main.o(log_filter_data)
    __tagsym$$used                           0x20002b60   Number         0  main.o(log_filter_data)
    __tagsym$$used                           0x20002b64   Number         0  main.o(log_filter_data)
    __tagsym$$used                           0x20002b68   Number         0  main.o(log_filter_data)
    log_filter_data                          0x20002b6c   Section        4  nrf_drv_clock.o(log_filter_data)
    __tagsym$$used                           0x20002b6c   Number         0  nrf_drv_clock.o(log_filter_data)
    log_filter_data                          0x20002b70   Section        4  nrfx_clock.o(log_filter_data)
    __tagsym$$used                           0x20002b70   Number         0  nrfx_clock.o(log_filter_data)
    log_filter_data                          0x20002b74   Section        4  nrfx_prs.o(log_filter_data)
    __tagsym$$used                           0x20002b74   Number         0  nrfx_prs.o(log_filter_data)
    log_filter_data                          0x20002b78   Section        4  nrfx_uart.o(log_filter_data)
    __tagsym$$used                           0x20002b78   Number         0  nrfx_uart.o(log_filter_data)
    log_filter_data                          0x20002b7c   Section        4  nrfx_uarte.o(log_filter_data)
    __tagsym$$used                           0x20002b7c   Number         0  nrfx_uarte.o(log_filter_data)
    log_filter_data                          0x20002b80   Section        8  app_timer2.o(log_filter_data)
    __tagsym$$used                           0x20002b80   Number         0  app_timer2.o(log_filter_data)
    __tagsym$$used                           0x20002b84   Number         0  app_timer2.o(log_filter_data)
    log_filter_data                          0x20002b88   Section        4  nrf_cli_uart.o(log_filter_data)
    __tagsym$$used                           0x20002b88   Number         0  nrf_cli_uart.o(log_filter_data)
    log_filter_data                          0x20002b8c   Section        4  nrf_pwr_mgmt.o(log_filter_data)
    __tagsym$$used                           0x20002b8c   Number         0  nrf_pwr_mgmt.o(log_filter_data)
    log_filter_data                          0x20002b90   Section        4  nrf_sortlist.o(log_filter_data)
    __tagsym$$used                           0x20002b90   Number         0  nrf_sortlist.o(log_filter_data)
    log_filter_data                          0x20002b94   Section        8  nrf_log_frontend.o(log_filter_data)
    __tagsym$$used                           0x20002b94   Number         0  nrf_log_frontend.o(log_filter_data)
    __tagsym$$used                           0x20002b98   Number         0  nrf_log_frontend.o(log_filter_data)
    .bss                                     0x20002b9c   Section       64  main.o(.bss)
    m_cli_uart_transport_tx_ringbuf_buf      0x20002b9c   Data          64  main.o(.bss)
    .bss                                     0x20002bdc   Section       24  main.o(.bss)
    m_cli_uart_transport_tx_ringbuf_cb       0x20002bdc   Data          24  main.o(.bss)
    .bss                                     0x20002bf4   Section       16  main.o(.bss)
    m_cli_uart_transport_rx_ringbuf_buf      0x20002bf4   Data          16  main.o(.bss)
    .bss                                     0x20002c04   Section       24  main.o(.bss)
    m_cli_uart_transport_rx_ringbuf_cb       0x20002c04   Data          24  main.o(.bss)
    .bss                                     0x20002c1c   Section       44  main.o(.bss)
    m_cli_uart_transport_cb                  0x20002c1c   Data          44  main.o(.bss)
    .bss                                     0x20002c48   Section      332  main.o(.bss)
    m_cli_uart_ctx                           0x20002c48   Data         332  main.o(.bss)
    .bss                                     0x20002d94   Section       20  main.o(.bss)
    m_cli_uart_log_backend_queue_nrf_queue_buffer 0x20002d94   Data          20  main.o(.bss)
    .bss                                     0x20002da8   Section       12  main.o(.bss)
    m_cli_uart_log_backend_queue_nrf_queue_cb 0x20002da8   Data          12  main.o(.bss)
    .bss                                     0x20002db4   Section      384  main.o(.bss)
    m_cli_uart_cmd_hist_memobj_nrf_balloc_pool_mem 0x20002db4   Data         384  main.o(.bss)
    .bss                                     0x20002f34   Section       16  main.o(.bss)
    m_data                                   0x20002f34   Data          16  main.o(.bss)
    .bss                                     0x20002f44   Section       20  nrf_drv_clock.o(.bss)
    m_clock_cb                               0x20002f44   Data          20  nrf_drv_clock.o(.bss)
    .bss                                     0x20002f58   Section       44  nrfx_uart.o(.bss)
    m_cb                                     0x20002f58   Data          44  nrfx_uart.o(.bss)
    .bss                                     0x20002f84   Section       36  nrfx_uarte.o(.bss)
    m_cb                                     0x20002f84   Data          36  nrfx_uarte.o(.bss)
    .bss                                     0x20002fa8   Section       88  app_timer2.o(.bss)
    m_req_fifo_data                          0x20002fa8   Data          88  app_timer2.o(.bss)
    .bss                                     0x20003000   Section       64  nrf_log_backend_uart.o(.bss)
    m_string_buff                            0x20003000   Data          64  nrf_log_backend_uart.o(.bss)
    .bss                                     0x20003040   Section      192  nrf_log_frontend.o(.bss)
    log_mempool_nrf_balloc_pool_mem          0x20003040   Data         192  nrf_log_frontend.o(.bss)
    .bss                                     0x20003100   Section      128  nrf_log_frontend.o(.bss)
    m_log_push_ringbuf_buf                   0x20003100   Data         128  nrf_log_frontend.o(.bss)
    .bss                                     0x20003180   Section       24  nrf_log_frontend.o(.bss)
    m_log_push_ringbuf_cb                    0x20003180   Data          24  nrf_log_frontend.o(.bss)
    .bss                                     0x20003198   Section     1056  nrf_log_frontend.o(.bss)
    m_log_data                               0x20003198   Data        1056  nrf_log_frontend.o(.bss)
    STACK                                    0x200035b8   Section     8192  arm_startup_nrf52.o(STACK)

    Global Symbols

    Symbol Name                              Value     Ov Type        Size  Object(Section)

    BuildAttributes$$THM_ISAv4$E$P$D$K$B$S$7EM$VFPi3$EXTD16$VFPS$VFMA$PE$A:L22UL41UL21$X:L11$S22US41US21$IEEE1$IW$USESV6$~STKCKD$USESV7$~SHL$OSPACE$EBA8$MICROLIB$REQ8$EABIv2 0x00000000   Number         0  anon$$obj.o ABSOLUTE
    __ARM_use_no_argv                        0x00000000   Number         0  main.o ABSOLUTE
    __use_no_errno                           0x00000000   Number         0  useno.o ABSOLUTE
    __use_no_exception_handling              0x00000000   Number         0  useno.o ABSOLUTE
    __use_no_fp                              0x00000000   Number         0  useno.o ABSOLUTE
    __use_no_heap                            0x00000000   Number         0  useno.o ABSOLUTE
    __use_no_heap_region                     0x00000000   Number         0  useno.o ABSOLUTE
    __use_no_semihosting                     0x00000000   Number         0  useno.o ABSOLUTE
    __use_no_semihosting_swi                 0x00000000   Number         0  useno.o ABSOLUTE
    __use_no_signal_handling                 0x00000000   Number         0  useno.o ABSOLUTE
    __cpp_initialize__aeabi_                  - Undefined Weak Reference
    __cxa_finalize                            - Undefined Weak Reference
    _clock_init                               - Undefined Weak Reference
    _microlib_exit                            - Undefined Weak Reference
    pwr_mgmt_data0$$Base                      - Undefined Reference
    pwr_mgmt_data0$$Limit                     - Undefined Reference
    pwr_mgmt_data1$$Base                      - Undefined Reference
    pwr_mgmt_data1$$Limit                     - Undefined Reference
    pwr_mgmt_data2$$Base                      - Undefined Reference
    pwr_mgmt_data2$$Limit                     - Undefined Reference
    __Vectors_Size                           0x00000200   Number         0  arm_startup_nrf52.o ABSOLUTE
    __Vectors                                0x00026000   Data           4  arm_startup_nrf52.o(RESET)
    __Vectors_End                            0x00026200   Data           0  arm_startup_nrf52.o(RESET)
    __main                                   0x00026201   Thumb Code     0  entry.o(.ARM.Collect$$$$00000000)
    _main_stk                                0x00026201   Thumb Code     0  entry2.o(.ARM.Collect$$$$00000001)
    _main_scatterload                        0x00026205   Thumb Code     0  entry5.o(.ARM.Collect$$$$00000004)
    __main_after_scatterload                 0x00026209   Thumb Code     0  entry5.o(.ARM.Collect$$$$00000004)
    _main_clock                              0x00026209   Thumb Code     0  entry7b.o(.ARM.Collect$$$$00000008)
    _main_cpp_init                           0x00026209   Thumb Code     0  entry8b.o(.ARM.Collect$$$$0000000A)
    _main_init                               0x00026209   Thumb Code     0  entry9a.o(.ARM.Collect$$$$0000000B)
    __rt_final_cpp                           0x00026211   Thumb Code     0  entry10a.o(.ARM.Collect$$$$0000000D)
    __rt_final_exit                          0x00026211   Thumb Code     0  entry11a.o(.ARM.Collect$$$$0000000F)
    __asm___12_nrf_atfifo_c_51f461e1__nrf_atfifo_wspace_req 0x00026215   Thumb Code    56  nrf_atfifo.o(.emb_text)
    __asm___12_nrf_atfifo_c_51f461e1__nrf_atfifo_wspace_close 0x0002624d   Thumb Code    18  nrf_atfifo.o(.emb_text)
    __asm___12_nrf_atfifo_c_51f461e1__nrf_atfifo_rspace_req 0x0002625f   Thumb Code    58  nrf_atfifo.o(.emb_text)
    __asm___12_nrf_atfifo_c_51f461e1__nrf_atfifo_rspace_close 0x00026299   Thumb Code    18  nrf_atfifo.o(.emb_text)
    __asm___12_nrf_atfifo_c_51f461e1__nrf_atfifo_space_clear 0x000262ab   Thumb Code    50  nrf_atfifo.o(.emb_text)
    __asm___12_nrf_atomic_c_85ca2469__nrf_atomic_internal_mov 0x000262dd   Thumb Code    24  nrf_atomic.o(.emb_text)
    __asm___12_nrf_atomic_c_85ca2469__nrf_atomic_internal_orr 0x000262f5   Thumb Code    26  nrf_atomic.o(.emb_text)
    __asm___12_nrf_atomic_c_85ca2469__nrf_atomic_internal_and 0x0002630f   Thumb Code    26  nrf_atomic.o(.emb_text)
    __asm___12_nrf_atomic_c_85ca2469__nrf_atomic_internal_eor 0x00026329   Thumb Code    26  nrf_atomic.o(.emb_text)
    __asm___12_nrf_atomic_c_85ca2469__nrf_atomic_internal_add 0x00026343   Thumb Code    26  nrf_atomic.o(.emb_text)
    __asm___12_nrf_atomic_c_85ca2469__nrf_atomic_internal_sub 0x0002635d   Thumb Code    26  nrf_atomic.o(.emb_text)
    __asm___12_nrf_atomic_c_85ca2469__nrf_atomic_internal_cmp_exch 0x00026377   Thumb Code    42  nrf_atomic.o(.emb_text)
    __asm___12_nrf_atomic_c_85ca2469__nrf_atomic_internal_sub_hs 0x000263a1   Thumb Code    30  nrf_atomic.o(.emb_text)
    Reset_Handler                            0x000263c1   Thumb Code     8  arm_startup_nrf52.o(.text)
    NMI_Handler                              0x000263c9   Thumb Code     2  arm_startup_nrf52.o(.text)
    HardFault_Handler                        0x000263cb   Thumb Code     2  arm_startup_nrf52.o(.text)
    MemoryManagement_Handler                 0x000263cd   Thumb Code     2  arm_startup_nrf52.o(.text)
    BusFault_Handler                         0x000263cf   Thumb Code     2  arm_startup_nrf52.o(.text)
    UsageFault_Handler                       0x000263d1   Thumb Code     2  arm_startup_nrf52.o(.text)
    SVC_Handler                              0x000263d3   Thumb Code     2  arm_startup_nrf52.o(.text)
    DebugMon_Handler                         0x000263d5   Thumb Code     2  arm_startup_nrf52.o(.text)
    PendSV_Handler                           0x000263d7   Thumb Code     2  arm_startup_nrf52.o(.text)
    SysTick_Handler                          0x000263d9   Thumb Code     2  arm_startup_nrf52.o(.text)
    CCM_AAR_IRQHandler                       0x000263db   Thumb Code     0  arm_startup_nrf52.o(.text)
    COMP_LPCOMP_IRQHandler                   0x000263db   Thumb Code     0  arm_startup_nrf52.o(.text)
    ECB_IRQHandler                           0x000263db   Thumb Code     0  arm_startup_nrf52.o(.text)
    FPU_IRQHandler                           0x000263db   Thumb Code     0  arm_startup_nrf52.o(.text)
    GPIOTE_IRQHandler                        0x000263db   Thumb Code     0  arm_startup_nrf52.o(.text)
    I2S_IRQHandler                           0x000263db   Thumb Code     0  arm_startup_nrf52.o(.text)
    MWU_IRQHandler                           0x000263db   Thumb Code     0  arm_startup_nrf52.o(.text)
    NFCT_IRQHandler                          0x000263db   Thumb Code     0  arm_startup_nrf52.o(.text)
    PDM_IRQHandler                           0x000263db   Thumb Code     0  arm_startup_nrf52.o(.text)
    PWM0_IRQHandler                          0x000263db   Thumb Code     0  arm_startup_nrf52.o(.text)
    PWM1_IRQHandler                          0x000263db   Thumb Code     0  arm_startup_nrf52.o(.text)
    PWM2_IRQHandler                          0x000263db   Thumb Code     0  arm_startup_nrf52.o(.text)
    QDEC_IRQHandler                          0x000263db   Thumb Code     0  arm_startup_nrf52.o(.text)
    RADIO_IRQHandler                         0x000263db   Thumb Code     0  arm_startup_nrf52.o(.text)
    RNG_IRQHandler                           0x000263db   Thumb Code     0  arm_startup_nrf52.o(.text)
    RTC0_IRQHandler                          0x000263db   Thumb Code     0  arm_startup_nrf52.o(.text)
    RTC2_IRQHandler                          0x000263db   Thumb Code     0  arm_startup_nrf52.o(.text)
    SAADC_IRQHandler                         0x000263db   Thumb Code     0  arm_startup_nrf52.o(.text)
    SPIM0_SPIS0_TWIM0_TWIS0_SPI0_TWI0_IRQHandler 0x000263db   Thumb Code     0  arm_startup_nrf52.o(.text)
    SPIM1_SPIS1_TWIM1_TWIS1_SPI1_TWI1_IRQHandler 0x000263db   Thumb Code     0  arm_startup_nrf52.o(.text)
    SPIM2_SPIS2_SPI2_IRQHandler              0x000263db   Thumb Code     0  arm_startup_nrf52.o(.text)
    SWI0_EGU0_IRQHandler                     0x000263db   Thumb Code     0  arm_startup_nrf52.o(.text)
    SWI1_EGU1_IRQHandler                     0x000263db   Thumb Code     0  arm_startup_nrf52.o(.text)
    SWI2_EGU2_IRQHandler                     0x000263db   Thumb Code     0  arm_startup_nrf52.o(.text)
    SWI3_EGU3_IRQHandler                     0x000263db   Thumb Code     0  arm_startup_nrf52.o(.text)
    SWI4_EGU4_IRQHandler                     0x000263db   Thumb Code     0  arm_startup_nrf52.o(.text)
    SWI5_EGU5_IRQHandler                     0x000263db   Thumb Code     0  arm_startup_nrf52.o(.text)
    TEMP_IRQHandler                          0x000263db   Thumb Code     0  arm_startup_nrf52.o(.text)
    TIMER0_IRQHandler                        0x000263db   Thumb Code     0  arm_startup_nrf52.o(.text)
    TIMER1_IRQHandler                        0x000263db   Thumb Code     0  arm_startup_nrf52.o(.text)
    TIMER2_IRQHandler                        0x000263db   Thumb Code     0  arm_startup_nrf52.o(.text)
    TIMER3_IRQHandler                        0x000263db   Thumb Code     0  arm_startup_nrf52.o(.text)
    TIMER4_IRQHandler                        0x000263db   Thumb Code     0  arm_startup_nrf52.o(.text)
    WDT_IRQHandler                           0x000263db   Thumb Code     0  arm_startup_nrf52.o(.text)
    __rt_ctype_table                         0x000263e5   Thumb Code     4  ctype_o.o(.text)
    qsort                                    0x000263ed   Thumb Code   156  qsort.o(.text)
    ___aeabi_memcpy8$move                    0x00026489   Thumb Code     0  memmovea.o(.text)
    __aeabi_memcpy                           0x00026489   Thumb Code    64  memmovea.o(.text)
    __aeabi_memcpy4                          0x00026489   Thumb Code     0  memmovea.o(.text)
    __aeabi_memmove                          0x00026489   Thumb Code     0  memmovea.o(.text)
    __aeabi_memmove4                         0x00026489   Thumb Code     0  memmovea.o(.text)
    __aeabi_memmove8                         0x00026489   Thumb Code     0  memmovea.o(.text)
    __aeabi_memset                           0x000264c9   Thumb Code    14  memseta.o(.text)
    __aeabi_memset4                          0x000264c9   Thumb Code     0  memseta.o(.text)
    __aeabi_memset8                          0x000264c9   Thumb Code     0  memseta.o(.text)
    __aeabi_memclr                           0x000264d7   Thumb Code     4  memseta.o(.text)
    __aeabi_memclr4                          0x000264d7   Thumb Code     0  memseta.o(.text)
    __aeabi_memclr8                          0x000264d7   Thumb Code     0  memseta.o(.text)
    _memset$wrapper                          0x000264db   Thumb Code    18  memseta.o(.text)
    strlen                                   0x000264ed   Thumb Code    14  strlen.o(.text)
    strcmp                                   0x000264fb   Thumb Code    28  strcmp.o(.text)
    strcpy                                   0x00026517   Thumb Code    18  strcpy.o(.text)
    strncmp                                  0x00026529   Thumb Code    30  strncmp.o(.text)
    __scatterload                            0x00026549   Thumb Code    28  init.o(.text)
    __scatterload_rt2                        0x00026549   Thumb Code     0  init.o(.text)
    __decompress                             0x0002656d   Thumb Code     0  __dczerorl2.o(.text)
    __decompress1                            0x0002656d   Thumb Code    86  __dczerorl2.o(.text)
    POWER_CLOCK_IRQHandler                   0x000265c5   Thumb Code    82  nrfx_clock.o(i.POWER_CLOCK_IRQHandler)
    RTC1_IRQHandler                          0x0002661d   Thumb Code    12  drv_rtc.o(i.RTC1_IRQHandler)
    SystemInit                               0x0002662d   Thumb Code   736  system_nrf52.o(i.SystemInit)
    UARTE0_UART0_IRQHandler                  0x00026955   Thumb Code     6  nrfx_prs.o(i.UARTE0_UART0_IRQHandler)
    __scatterload_copy                       0x00026961   Thumb Code    14  handlers.o(i.__scatterload_copy)
    __scatterload_null                       0x0002696f   Thumb Code     2  handlers.o(i.__scatterload_null)
    __scatterload_zeroinit                   0x00026971   Thumb Code    14  handlers.o(i.__scatterload_zeroinit)
    app_error_fault_handler                  0x00026981   Thumb Code    98  app_error_weak.o(i.app_error_fault_handler)
    app_error_handler_bare                   0x00026a15   Thumb Code    22  app_error.o(i.app_error_handler_bare)
    app_timer_cnt_get                        0x00026a2d   Thumb Code     6  app_timer2.o(i.app_timer_cnt_get)
    app_timer_create                         0x00026a39   Thumb Code    22  app_timer2.o(i.app_timer_create)
    app_timer_init                           0x00026a51   Thumb Code    70  app_timer2.o(i.app_timer_init)
    app_timer_start                          0x00026aad   Thumb Code    50  app_timer2.o(i.app_timer_start)
    app_timer_stop                           0x00026adf   Thumb Code    14  app_timer2.o(i.app_timer_stop)
    app_util_critical_region_enter           0x00026aed   Thumb Code     4  app_util_platform.o(i.app_util_critical_region_enter)
    app_util_critical_region_exit            0x00026af1   Thumb Code     4  app_util_platform.o(i.app_util_critical_region_exit)
    app_util_disable_irq                     0x00026af5   Thumb Code    12  app_util_platform.o(i.app_util_disable_irq)
    app_util_enable_irq                      0x00026b05   Thumb Code    14  app_util_platform.o(i.app_util_enable_irq)
    buffer_is_empty                          0x00026d2d   Thumb Code    18  nrf_log_frontend.o(i.buffer_is_empty)
    drv_rtc_compare_disable                  0x00027fc1   Thumb Code    20  drv_rtc.o(i.drv_rtc_compare_disable)
    drv_rtc_compare_pending                  0x00027fd5   Thumb Code    14  drv_rtc.o(i.drv_rtc_compare_pending)
    drv_rtc_compare_set                      0x00027fe3   Thumb Code    80  drv_rtc.o(i.drv_rtc_compare_set)
    drv_rtc_counter_get                      0x00028033   Thumb Code     8  drv_rtc.o(i.drv_rtc_counter_get)
    drv_rtc_init                             0x0002803d   Thumb Code   162  drv_rtc.o(i.drv_rtc_init)
    drv_rtc_irq_trigger                      0x00028129   Thumb Code    30  drv_rtc.o(i.drv_rtc_irq_trigger)
    drv_rtc_overflow_enable                  0x00028147   Thumb Code     8  drv_rtc.o(i.drv_rtc_overflow_enable)
    drv_rtc_overflow_pending                 0x0002814f   Thumb Code     8  drv_rtc.o(i.drv_rtc_overflow_pending)
    drv_rtc_start                            0x00028157   Thumb Code     8  drv_rtc.o(i.drv_rtc_start)
    drv_rtc_stop                             0x0002815f   Thumb Code     8  drv_rtc.o(i.drv_rtc_stop)
    drv_rtc_windowed_compare_set             0x00028167   Thumb Code   222  drv_rtc.o(i.drv_rtc_windowed_compare_set)
    main                                     0x000290f1   Thumb Code   174  main.o(i.main)
    nrf_atfifo_init                          0x00029471   Thumb Code    38  nrf_atfifo.o(i.nrf_atfifo_init)
    nrf_atfifo_item_alloc                    0x00029497   Thumb Code    22  nrf_atfifo.o(i.nrf_atfifo_item_alloc)
    nrf_atfifo_item_free                     0x000294ad   Thumb Code    22  nrf_atfifo.o(i.nrf_atfifo_item_free)
    nrf_atfifo_item_get                      0x000294c3   Thumb Code    22  nrf_atfifo.o(i.nrf_atfifo_item_get)
    nrf_atfifo_item_put                      0x000294d9   Thumb Code    22  nrf_atfifo.o(i.nrf_atfifo_item_put)
    nrf_atomic_flag_clear                    0x000294ef   Thumb Code     6  nrf_atomic.o(i.nrf_atomic_flag_clear)
    nrf_atomic_flag_clear_fetch              0x000294f5   Thumb Code     6  nrf_atomic.o(i.nrf_atomic_flag_clear_fetch)
    nrf_atomic_flag_set                      0x000294fb   Thumb Code     6  nrf_atomic.o(i.nrf_atomic_flag_set)
    nrf_atomic_flag_set_fetch                0x00029501   Thumb Code     6  nrf_atomic.o(i.nrf_atomic_flag_set_fetch)
    nrf_atomic_u32_add                       0x00029507   Thumb Code    12  nrf_atomic.o(i.nrf_atomic_u32_add)
    nrf_atomic_u32_and                       0x00029513   Thumb Code    12  nrf_atomic.o(i.nrf_atomic_u32_and)
    nrf_atomic_u32_fetch_and                 0x0002951f   Thumb Code    10  nrf_atomic.o(i.nrf_atomic_u32_fetch_and)
    nrf_atomic_u32_fetch_or                  0x00029529   Thumb Code    10  nrf_atomic.o(i.nrf_atomic_u32_fetch_or)
    nrf_atomic_u32_fetch_store               0x00029533   Thumb Code    10  nrf_atomic.o(i.nrf_atomic_u32_fetch_store)
    nrf_atomic_u32_or                        0x0002953d   Thumb Code    12  nrf_atomic.o(i.nrf_atomic_u32_or)
    nrf_atomic_u32_sub                       0x00029549   Thumb Code    12  nrf_atomic.o(i.nrf_atomic_u32_sub)
    nrf_balloc_alloc                         0x00029555   Thumb Code    62  nrf_balloc.o(i.nrf_balloc_alloc)
    nrf_balloc_free                          0x00029593   Thumb Code    42  nrf_balloc.o(i.nrf_balloc_free)
    nrf_balloc_init                          0x000295bd   Thumb Code    48  nrf_balloc.o(i.nrf_balloc_init)
    nrf_cli_cmd_cli_stats                    0x00029805   Thumb Code    70  nrf_cli.o(i.nrf_cli_cmd_cli_stats)
    nrf_cli_cmd_cli_stats_reset              0x00029871   Thumb Code    48  nrf_cli.o(i.nrf_cli_cmd_cli_stats_reset)
    nrf_cli_cmd_cli_stats_show               0x000298a1   Thumb Code    78  nrf_cli.o(i.nrf_cli_cmd_cli_stats_show)
    nrf_cli_fprintf                          0x00029c49   Thumb Code    80  nrf_cli.o(i.nrf_cli_fprintf)
    nrf_cli_help_print                       0x00029c99   Thumb Code   552  nrf_cli.o(i.nrf_cli_help_print)
    nrf_cli_init                             0x00029f21   Thumb Code    50  nrf_cli.o(i.nrf_cli_init)
    nrf_cli_print_stream                     0x0002a015   Thumb Code     6  nrf_cli.o(i.nrf_cli_print_stream)
    nrf_cli_process                          0x0002a01d   Thumb Code   110  nrf_cli.o(i.nrf_cli_process)
    nrf_cli_start                            0x0002a091   Thumb Code    66  nrf_cli.o(i.nrf_cli_start)
    nrf_drv_clock_init                       0x0002a0f9   Thumb Code    50  nrf_drv_clock.o(i.nrf_drv_clock_init)
    nrf_drv_clock_lfclk_request              0x0002a135   Thumb Code    68  nrf_drv_clock.o(i.nrf_drv_clock_lfclk_request)
    nrf_drv_uart_init                        0x0002a17d   Thumb Code    90  nrf_drv_uart.o(i.nrf_drv_uart_init)
    nrf_fprintf                              0x0002a21d   Thumb Code    26  nrf_fprintf.o(i.nrf_fprintf)
    nrf_fprintf_buffer_flush                 0x0002a237   Thumb Code    24  nrf_fprintf.o(i.nrf_fprintf_buffer_flush)
    nrf_fprintf_fmt                          0x0002a24f   Thumb Code   474  nrf_fprintf_format.o(i.nrf_fprintf_fmt)
    nrf_log_backend_add                      0x0002a4e1   Thumb Code   134  nrf_log_frontend.o(i.nrf_log_backend_add)
    nrf_log_backend_serial_put               0x0002a5eb   Thumb Code   200  nrf_log_backend_serial.o(i.nrf_log_backend_serial_put)
    nrf_log_color_id_get                     0x0002a6f9   Thumb Code    42  nrf_log_frontend.o(i.nrf_log_color_id_get)
    nrf_log_frontend_dequeue                 0x0002a729   Thumb Code   578  nrf_log_frontend.o(i.nrf_log_frontend_dequeue)
    nrf_log_frontend_std_0                   0x0002a99d   Thumb Code     8  nrf_log_frontend.o(i.nrf_log_frontend_std_0)
    nrf_log_hexdump_entry_process            0x0002a9a5   Thumb Code   150  nrf_log_str_formatter.o(i.nrf_log_hexdump_entry_process)
    nrf_log_init                             0x0002aa55   Thumb Code   130  nrf_log_frontend.o(i.nrf_log_init)
    nrf_log_module_cnt_get                   0x0002aaf5   Thumb Code    10  nrf_log_frontend.o(i.nrf_log_module_cnt_get)
    nrf_log_module_filter_get                0x0002ab09   Thumb Code    64  nrf_log_frontend.o(i.nrf_log_module_filter_get)
    nrf_log_module_filter_set                0x0002ab51   Thumb Code    70  nrf_log_frontend.o(i.nrf_log_module_filter_set)
    nrf_log_module_name_get                  0x0002aba1   Thumb Code    24  nrf_log_frontend.o(i.nrf_log_module_name_get)
    nrf_log_panic                            0x0002abbd   Thumb Code    36  nrf_log_frontend.o(i.nrf_log_panic)
    nrf_log_std_entry_process                0x0002abe5   Thumb Code   182  nrf_log_str_formatter.o(i.nrf_log_std_entry_process)
    nrf_memobj_alloc                         0x0002ac9b   Thumb Code    96  nrf_memobj.o(i.nrf_memobj_alloc)
    nrf_memobj_free                          0x0002acfb   Thumb Code    50  nrf_memobj.o(i.nrf_memobj_free)
    nrf_memobj_get                           0x0002ad2d   Thumb Code     8  nrf_memobj.o(i.nrf_memobj_get)
    nrf_memobj_pool_init                     0x0002ad35   Thumb Code     4  nrf_memobj.o(i.nrf_memobj_pool_init)
    nrf_memobj_put                           0x0002ad39   Thumb Code    30  nrf_memobj.o(i.nrf_memobj_put)
    nrf_memobj_read                          0x0002ad57   Thumb Code    16  nrf_memobj.o(i.nrf_memobj_read)
    nrf_memobj_write                         0x0002ad67   Thumb Code    16  nrf_memobj.o(i.nrf_memobj_write)
    nrf_nvmc_page_erase                      0x0002ad79   Thumb Code    40  nrf_nvmc.o(i.nrf_nvmc_page_erase)
    nrf_nvmc_write_word                      0x0002ada9   Thumb Code    38  nrf_nvmc.o(i.nrf_nvmc_write_word)
    nrf_pwr_mgmt_feed                        0x0002add9   Thumb Code     2  nrf_pwr_mgmt.o(i.nrf_pwr_mgmt_feed)
    nrf_queue_generic_pop                    0x0002addb   Thumb Code   136  nrf_queue.o(i.nrf_queue_generic_pop)
    nrf_queue_is_empty                       0x0002ae63   Thumb Code    18  nrf_queue.o(i.nrf_queue_is_empty)
    nrf_queue_is_full                        0x0002ae75   Thumb Code    30  nrf_queue.o(i.nrf_queue_is_full)
    nrf_queue_max_utilization_get            0x0002ae93   Thumb Code     6  nrf_queue.o(i.nrf_queue_max_utilization_get)
    nrf_queue_max_utilization_reset          0x0002ae99   Thumb Code     8  nrf_queue.o(i.nrf_queue_max_utilization_reset)
    nrf_queue_push                           0x0002aeaf   Thumb Code   172  nrf_queue.o(i.nrf_queue_push)
    nrf_queue_utilization_get                0x0002b03d   Thumb Code    28  nrf_queue.o(i.nrf_queue_utilization_get)
    nrf_ringbuf_alloc                        0x0002b059   Thumb Code   112  nrf_ringbuf.o(i.nrf_ringbuf_alloc)
    nrf_ringbuf_cpy_get                      0x0002b0c9   Thumb Code   124  nrf_ringbuf.o(i.nrf_ringbuf_cpy_get)
    nrf_ringbuf_cpy_put                      0x0002b145   Thumb Code   114  nrf_ringbuf.o(i.nrf_ringbuf_cpy_put)
    nrf_ringbuf_free                         0x0002b1b7   Thumb Code    38  nrf_ringbuf.o(i.nrf_ringbuf_free)
    nrf_ringbuf_get                          0x0002b1dd   Thumb Code   112  nrf_ringbuf.o(i.nrf_ringbuf_get)
    nrf_ringbuf_init                         0x0002b24d   Thumb Code    28  nrf_ringbuf.o(i.nrf_ringbuf_init)
    nrf_ringbuf_put                          0x0002b269   Thumb Code    48  nrf_ringbuf.o(i.nrf_ringbuf_put)
    nrf_sortlist_add                         0x0002b2a5   Thumb Code    34  nrf_sortlist.o(i.nrf_sortlist_add)
    nrf_sortlist_peek                        0x0002b2c7   Thumb Code     6  nrf_sortlist.o(i.nrf_sortlist_peek)
    nrf_sortlist_pop                         0x0002b2cd   Thumb Code    14  nrf_sortlist.o(i.nrf_sortlist_pop)
    nrf_sortlist_remove                      0x0002b2db   Thumb Code    30  nrf_sortlist.o(i.nrf_sortlist_remove)
    nrfx_clock_enable                        0x0002b341   Thumb Code    34  nrfx_clock.o(i.nrfx_clock_enable)
    nrfx_clock_init                          0x0002b36d   Thumb Code    26  nrfx_clock.o(i.nrfx_clock_init)
    nrfx_clock_lfclk_start                   0x0002b38d   Thumb Code    64  nrfx_clock.o(i.nrfx_clock_lfclk_start)
    nrfx_prs_acquire                         0x0002b3f9   Thumb Code    48  nrfx_prs.o(i.nrfx_prs_acquire)
    nrfx_prs_release                         0x0002b429   Thumb Code    18  nrfx_prs.o(i.nrfx_prs_release)
    nrfx_uart_0_irq_handler                  0x0002b43d   Thumb Code     8  nrfx_uart.o(i.nrfx_uart_0_irq_handler)
    nrfx_uart_init                           0x0002b44d   Thumb Code   200  nrfx_uart.o(i.nrfx_uart_init)
    nrfx_uart_rx                             0x0002b521   Thumb Code   230  nrfx_uart.o(i.nrfx_uart_rx)
    nrfx_uart_rx_abort                       0x0002b60d   Thumb Code    18  nrfx_uart.o(i.nrfx_uart_rx_abort)
    nrfx_uart_tx                             0x0002b621   Thumb Code   162  nrfx_uart.o(i.nrfx_uart_tx)
    nrfx_uart_tx_in_progress                 0x0002b6c9   Thumb Code    26  nrfx_uart.o(i.nrfx_uart_tx_in_progress)
    nrfx_uart_uninit                         0x0002b6e9   Thumb Code   182  nrfx_uart.o(i.nrfx_uart_uninit)
    nrfx_uarte_0_irq_handler                 0x0002b7a9   Thumb Code     8  nrfx_uarte.o(i.nrfx_uarte_0_irq_handler)
    nrfx_uarte_init                          0x0002b7b9   Thumb Code   100  nrfx_uarte.o(i.nrfx_uarte_init)
    nrfx_uarte_rx                            0x0002b825   Thumb Code   256  nrfx_uarte.o(i.nrfx_uarte_rx)
    nrfx_uarte_rx_abort                      0x0002b929   Thumb Code    38  nrfx_uarte.o(i.nrfx_uarte_rx_abort)
    nrfx_uarte_tx                            0x0002b955   Thumb Code   166  nrfx_uarte.o(i.nrfx_uarte_tx)
    nrfx_uarte_tx_in_progress                0x0002ba01   Thumb Code    22  nrfx_uarte.o(i.nrfx_uarte_tx_in_progress)
    nrfx_uarte_uninit                        0x0002ba1d   Thumb Code   254  nrfx_uarte.o(i.nrfx_uarte_uninit)
    nrf_cli_flash_raw                        0x0002c728   Data          16  main.o(.constdata)
    nrf_cli_balloc_raw                       0x0002c790   Data          16  nrf_balloc.o(.constdata)
    nrf_log_backend_cli_api                  0x0002c7a0   Data          12  nrf_cli.o(.constdata)
    nrf_cli_clear_raw                        0x0002c8c4   Data          16  nrf_cli.o(.constdata)
    nrf_cli_cli_raw                          0x0002c8d4   Data          16  nrf_cli.o(.constdata)
    nrf_cli_history_raw                      0x0002c8e4   Data          16  nrf_cli.o(.constdata)
    nrf_cli_resize_raw                       0x0002c8f4   Data          16  nrf_cli.o(.constdata)
    nrf_cli_uart_transport_api               0x0002c958   Data          20  nrf_cli_uart.o(.constdata)
    nrf_cli_queue_raw                        0x0002c9a4   Data          16  nrf_queue.o(.constdata)
    nrf_log_backend_uart_api                 0x0002c9b4   Data          12  nrf_log_backend_uart.o(.constdata)
    nrf_cli_log_raw                          0x0002cb3c   Data          16  nrf_log_frontend.o(.constdata)
    __ctype_table                            0x0002cb4c   Data         129  ctype_o.o(.constdata)
    Region$$Table$$Base                      0x0002d568   Number         0  anon$$obj.o(Region$$Table)
    Region$$Table$$Limit                     0x0002d588   Number         0  anon$$obj.o(Region$$Table)
    cli_command$$Base                        0x0002d588   Number         0  main.o(cli_command)
    nrf_cli_flash_const                      0x0002d588   Data           8  main.o(cli_command)
    nrf_cli_balloc_const                     0x0002d590   Data           8  nrf_balloc.o(cli_command)
    nrf_cli_clear_const                      0x0002d598   Data           8  nrf_cli.o(cli_command)
    nrf_cli_cli_const                        0x0002d5a0   Data           8  nrf_cli.o(cli_command)
    nrf_cli_history_const                    0x0002d5a8   Data           8  nrf_cli.o(cli_command)
    nrf_cli_resize_const                     0x0002d5b0   Data           8  nrf_cli.o(cli_command)
    nrf_cli_queue_const                      0x0002d5b8   Data           8  nrf_queue.o(cli_command)
    nrf_cli_log_const                        0x0002d5c0   Data           8  nrf_log_frontend.o(cli_command)
    cli_command$$Limit                       0x0002d5c8   Number         0  nrf_log_frontend.o(cli_command)
    log_backends$$Base                       0x0002d5c8   Number         0  main.o(log_backends)
    log_backends$$Limit                      0x0002d5e8   Number         0  nrf_log_default_backends.o(log_backends)
    log_const_data$$Base                     0x0002d5e8   Number         0  main.o(log_const_data)
    m_nrf_log_app_timer_m_cli_uart_transport_timer_logs_data_const 0x0002d5e8   Data           8  main.o(log_const_data)
    m_nrf_log_queue_m_cli_uart_log_backend_queue_logs_data_const 0x0002d5f0   Data           8  main.o(log_const_data)
    m_nrf_log_balloc_m_cli_uart_cmd_hist_memobj_logs_data_const 0x0002d5f8   Data           8  main.o(log_const_data)
    m_nrf_log_clock_logs_data_const          0x0002d600   Data           8  nrf_drv_clock.o(log_const_data)
    m_nrf_log_CLOCK_logs_data_const          0x0002d608   Data           8  nrfx_clock.o(log_const_data)
    m_nrf_log_PRS_logs_data_const            0x0002d610   Data           8  nrfx_prs.o(log_const_data)
    m_nrf_log_UART_logs_data_const           0x0002d618   Data           8  nrfx_uart.o(log_const_data)
    m_nrf_log_UARTE_logs_data_const          0x0002d620   Data           8  nrfx_uarte.o(log_const_data)
    m_nrf_log_app_timer_logs_data_const      0x0002d628   Data           8  app_timer2.o(log_const_data)
    m_nrf_log_atfifo_m_req_fifo_logs_data_const 0x0002d630   Data           8  app_timer2.o(log_const_data)
    m_nrf_log_cli_uart_logs_data_const       0x0002d638   Data           8  nrf_cli_uart.o(log_const_data)
    m_nrf_log_pwr_mgmt_logs_data_const       0x0002d640   Data           8  nrf_pwr_mgmt.o(log_const_data)
    m_nrf_log_sortlist_logs_data_const       0x0002d648   Data           8  nrf_sortlist.o(log_const_data)
    m_nrf_log_balloc_log_mempool_logs_data_const 0x0002d650   Data           8  nrf_log_frontend.o(log_const_data)
    m_nrf_log_app_logs_data_const            0x0002d658   Data           8  nrf_log_frontend.o(log_const_data)
    log_const_data$$Limit                    0x0002d660   Number         0  nrf_log_frontend.o(log_const_data)
    m_cli_uart_cmd_hist_memobj               0x0002d660   Data          28  main.o(nrf_balloc)
    nrf_balloc$$Base                         0x0002d660   Number         0  main.o(nrf_balloc)
    log_mempool                              0x0002d67c   Data          28  nrf_log_frontend.o(nrf_balloc)
    m_cli_uart_log_backend_queue             0x0002d698   Data          28  main.o(nrf_queue)
    nrf_balloc$$Limit                        0x0002d698   Number         0  nrf_log_frontend.o(nrf_balloc)
    nrf_queue$$Base                          0x0002d698   Number         0  main.o(nrf_queue)
    nrf_queue$$Limit                         0x0002d6b4   Number         0  main.o(nrf_queue)
    nrf_drv_uart_use_easy_dma                0x200029fc   Data           1  nrf_drv_uart.o(.data)
    m_uart                                   0x20002a68   Data          20  nrf_log_backend_uart.o(.data)
    SystemCoreClock                          0x20002b00   Data           4  system_nrf52.o(.data)
    cli_sorted_cmd_ptrs$$Base                0x20002b04   Number         0  main.o(cli_sorted_cmd_ptrs)
    flash_str_ptr                            0x20002b04   Data           4  main.o(cli_sorted_cmd_ptrs)
    balloc_str_ptr                           0x20002b08   Data           4  nrf_balloc.o(cli_sorted_cmd_ptrs)
    clear_str_ptr                            0x20002b0c   Data           4  nrf_cli.o(cli_sorted_cmd_ptrs)
    cli_str_ptr                              0x20002b10   Data           4  nrf_cli.o(cli_sorted_cmd_ptrs)
    history_str_ptr                          0x20002b14   Data           4  nrf_cli.o(cli_sorted_cmd_ptrs)
    resize_str_ptr                           0x20002b18   Data           4  nrf_cli.o(cli_sorted_cmd_ptrs)
    queue_str_ptr                            0x20002b1c   Data           4  nrf_queue.o(cli_sorted_cmd_ptrs)
    log_str_ptr                              0x20002b20   Data           4  nrf_log_frontend.o(cli_sorted_cmd_ptrs)
    log_dynamic_data$$Base                   0x20002b24   Number         0  main.o(log_dynamic_data)
    m_nrf_log_app_timer_m_cli_uart_transport_timer_logs_data_dynamic 0x20002b24   Data           4  main.o(log_dynamic_data)
    m_nrf_log_queue_m_cli_uart_log_backend_queue_logs_data_dynamic 0x20002b28   Data           4  main.o(log_dynamic_data)
    m_nrf_log_balloc_m_cli_uart_cmd_hist_memobj_logs_data_dynamic 0x20002b2c   Data           4  main.o(log_dynamic_data)
    m_nrf_log_clock_logs_data_dynamic        0x20002b30   Data           4  nrf_drv_clock.o(log_dynamic_data)
    m_nrf_log_CLOCK_logs_data_dynamic        0x20002b34   Data           4  nrfx_clock.o(log_dynamic_data)
    m_nrf_log_PRS_logs_data_dynamic          0x20002b38   Data           4  nrfx_prs.o(log_dynamic_data)
    m_nrf_log_UART_logs_data_dynamic         0x20002b3c   Data           4  nrfx_uart.o(log_dynamic_data)
    m_nrf_log_UARTE_logs_data_dynamic        0x20002b40   Data           4  nrfx_uarte.o(log_dynamic_data)
    m_nrf_log_app_timer_logs_data_dynamic    0x20002b44   Data           4  app_timer2.o(log_dynamic_data)
    m_nrf_log_atfifo_m_req_fifo_logs_data_dynamic 0x20002b48   Data           4  app_timer2.o(log_dynamic_data)
    m_nrf_log_cli_uart_logs_data_dynamic     0x20002b4c   Data           4  nrf_cli_uart.o(log_dynamic_data)
    m_nrf_log_pwr_mgmt_logs_data_dynamic     0x20002b50   Data           4  nrf_pwr_mgmt.o(log_dynamic_data)
    m_nrf_log_sortlist_logs_data_dynamic     0x20002b54   Data           4  nrf_sortlist.o(log_dynamic_data)
    m_nrf_log_balloc_log_mempool_logs_data_dynamic 0x20002b58   Data           4  nrf_log_frontend.o(log_dynamic_data)
    m_nrf_log_app_logs_data_dynamic          0x20002b5c   Data           4  nrf_log_frontend.o(log_dynamic_data)
    log_filter_data$$Base                    0x20002b60   Number         0  main.o(log_filter_data)
    m_nrf_log_app_timer_m_cli_uart_transport_timer_logs_data_filter 0x20002b60   Data           4  main.o(log_filter_data)
    m_nrf_log_queue_m_cli_uart_log_backend_queue_logs_data_filter 0x20002b64   Data           4  main.o(log_filter_data)
    m_nrf_log_balloc_m_cli_uart_cmd_hist_memobj_logs_data_filter 0x20002b68   Data           4  main.o(log_filter_data)
    m_nrf_log_clock_logs_data_filter         0x20002b6c   Data           4  nrf_drv_clock.o(log_filter_data)
    m_nrf_log_CLOCK_logs_data_filter         0x20002b70   Data           4  nrfx_clock.o(log_filter_data)
    m_nrf_log_PRS_logs_data_filter           0x20002b74   Data           4  nrfx_prs.o(log_filter_data)
    m_nrf_log_UART_logs_data_filter          0x20002b78   Data           4  nrfx_uart.o(log_filter_data)
    m_nrf_log_UARTE_logs_data_filter         0x20002b7c   Data           4  nrfx_uarte.o(log_filter_data)
    m_nrf_log_app_timer_logs_data_filter     0x20002b80   Data           4  app_timer2.o(log_filter_data)
    m_nrf_log_atfifo_m_req_fifo_logs_data_filter 0x20002b84   Data           4  app_timer2.o(log_filter_data)
    m_nrf_log_cli_uart_logs_data_filter      0x20002b88   Data           4  nrf_cli_uart.o(log_filter_data)
    m_nrf_log_pwr_mgmt_logs_data_filter      0x20002b8c   Data           4  nrf_pwr_mgmt.o(log_filter_data)
    m_nrf_log_sortlist_logs_data_filter      0x20002b90   Data           4  nrf_sortlist.o(log_filter_data)
    m_nrf_log_balloc_log_mempool_logs_data_filter 0x20002b94   Data           4  nrf_log_frontend.o(log_filter_data)
    m_nrf_log_app_logs_data_filter           0x20002b98   Data           4  nrf_log_frontend.o(log_filter_data)
    __initial_sp                             0x200055b8   Data           0  arm_startup_nrf52.o(STACK)



==============================================================================

Memory Map of the image

  Image Entry point : 0x00026201

  Load Region LR_IROM1 (Base: 0x00026000, Size: 0x000078b8, Max: 0x0000a000, ABSOLUTE, COMPRESSED[0x00007728])

    Execution Region ER_IROM1 (Exec base: 0x00026000, Load base: 0x00026000, Size: 0x000076b4, Max: 0x0000a000, ABSOLUTE)

    Exec Addr    Load Addr    Size         Type   Attr      Idx    E Section Name        Object

    0x00026000   0x00026000   0x00000200   Data   RO         4296    RESET               arm_startup_nrf52.o
    0x00026200   0x00026200   0x00000000   Code   RO         4352  * .ARM.Collect$$$$00000000  mc_w.l(entry.o)
    0x00026200   0x00026200   0x00000004   Code   RO         4412    .ARM.Collect$$$$00000001  mc_w.l(entry2.o)
    0x00026204   0x00026204   0x00000004   Code   RO         4415    .ARM.Collect$$$$00000004  mc_w.l(entry5.o)
    0x00026208   0x00026208   0x00000000   Code   RO         4417    .ARM.Collect$$$$00000008  mc_w.l(entry7b.o)
    0x00026208   0x00026208   0x00000000   Code   RO         4419    .ARM.Collect$$$$0000000A  mc_w.l(entry8b.o)
    0x00026208   0x00026208   0x00000008   Code   RO         4420    .ARM.Collect$$$$0000000B  mc_w.l(entry9a.o)
    0x00026210   0x00026210   0x00000000   Code   RO         4422    .ARM.Collect$$$$0000000D  mc_w.l(entry10a.o)
    0x00026210   0x00026210   0x00000000   Code   RO         4424    .ARM.Collect$$$$0000000F  mc_w.l(entry11a.o)
    0x00026210   0x00026210   0x00000004   Code   RO         4413    .ARM.Collect$$$$00002712  mc_w.l(entry2.o)
    0x00026214   0x00026214   0x000000c8   Code   RO         2075    .emb_text           nrf_atfifo.o
    0x000262dc   0x000262dc   0x000000e2   Code   RO         2145    .emb_text           nrf_atomic.o
    0x000263be   0x000263be   0x00000002   PAD
    0x000263c0   0x000263c0   0x00000024   Code   RO         4297    .text               arm_startup_nrf52.o
    0x000263e4   0x000263e4   0x00000008   Code   RO         4360    .text               mc_w.l(ctype_o.o)
    0x000263ec   0x000263ec   0x0000009c   Code   RO         4390    .text               mc_w.l(qsort.o)
    0x00026488   0x00026488   0x00000040   Code   RO         4394    .text               mc_w.l(memmovea.o)
    0x000264c8   0x000264c8   0x00000024   Code   RO         4396    .text               mc_w.l(memseta.o)
    0x000264ec   0x000264ec   0x0000000e   Code   RO         4400    .text               mc_w.l(strlen.o)
    0x000264fa   0x000264fa   0x0000001c   Code   RO         4402    .text               mc_w.l(strcmp.o)
    0x00026516   0x00026516   0x00000012   Code   RO         4404    .text               mc_w.l(strcpy.o)
    0x00026528   0x00026528   0x0000001e   Code   RO         4406    .text               mc_w.l(strncmp.o)
    0x00026546   0x00026546   0x00000002   PAD
    0x00026548   0x00026548   0x00000024   Code   RO         4428    .text               mc_w.l(init.o)
    0x0002656c   0x0002656c   0x00000056   Code   RO         4438    .text               mc_w.l(__dczerorl2.o)
    0x000265c2   0x000265c2   0x00000002   PAD
    0x000265c4   0x000265c4   0x00000058   Code   RO          953    i.POWER_CLOCK_IRQHandler  nrfx_clock.o
    0x0002661c   0x0002661c   0x00000010   Code   RO         1846    i.RTC1_IRQHandler   drv_rtc.o
    0x0002662c   0x0002662c   0x00000328   Code   RO         4305    i.SystemInit        system_nrf52.o
    0x00026954   0x00026954   0x0000000c   Code   RO         1090    i.UARTE0_UART0_IRQHandler  nrfx_prs.o
    0x00026960   0x00026960   0x0000000e   Code   RO         4432    i.__scatterload_copy  mc_w.l(handlers.o)
    0x0002696e   0x0002696e   0x00000002   Code   RO         4433    i.__scatterload_null  mc_w.l(handlers.o)
    0x00026970   0x00026970   0x0000000e   Code   RO         4434    i.__scatterload_zeroinit  mc_w.l(handlers.o)
    0x0002697e   0x0002697e   0x00000002   PAD
    0x00026980   0x00026980   0x00000094   Code   RO         1562    i.app_error_fault_handler  app_error_weak.o
    0x00026a14   0x00026a14   0x00000016   Code   RO         1486    i.app_error_handler_bare  app_error.o
    0x00026a2a   0x00026a2a   0x00000002   PAD
    0x00026a2c   0x00026a2c   0x0000000c   Code   RO         1645    i.app_timer_cnt_get  app_timer2.o
    0x00026a38   0x00026a38   0x00000016   Code   RO         1646    i.app_timer_create  app_timer2.o
    0x00026a4e   0x00026a4e   0x00000002   PAD
    0x00026a50   0x00026a50   0x0000005c   Code   RO         1647    i.app_timer_init    app_timer2.o
    0x00026aac   0x00026aac   0x00000032   Code   RO         1650    i.app_timer_start   app_timer2.o
    0x00026ade   0x00026ade   0x0000000e   Code   RO         1651    i.app_timer_stop    app_timer2.o
    0x00026aec   0x00026aec   0x00000004   Code   RO         1784    i.app_util_critical_region_enter  app_util_platform.o
    0x00026af0   0x00026af0   0x00000004   Code   RO         1785    i.app_util_critical_region_exit  app_util_platform.o
    0x00026af4   0x00026af4   0x00000010   Code   RO         1786    i.app_util_disable_irq  app_util_platform.o
    0x00026b04   0x00026b04   0x00000014   Code   RO         1787    i.app_util_enable_irq  app_util_platform.o
    0x00026b18   0x00026b18   0x00000088   Code   RO         1142    i.apply_config      nrfx_uart.o
    0x00026ba0   0x00026ba0   0x00000088   Code   RO         1328    i.apply_config      nrfx_uarte.o
    0x00026c28   0x00026c28   0x00000048   Code   RO         3575    i.backend_name_get  nrf_log_frontend.o
    0x00026c70   0x00026c70   0x0000008c   Code   RO         3576    i.buf_prealloc      nrf_log_frontend.o
    0x00026cfc   0x00026cfc   0x0000002e   Code   RO         2916    i.buffer_add        nrf_fprintf_format.o
    0x00026d2a   0x00026d2a   0x00000002   PAD
    0x00026d2c   0x00026d2c   0x00000018   Code   RO         3577    i.buffer_is_empty   nrf_log_frontend.o
    0x00026d44   0x00026d44   0x000000b8   Code   RO         2347    i.char_backspace    nrf_cli.o
    0x00026dfc   0x00026dfc   0x00000094   Code   RO         2348    i.char_delete       nrf_cli.o
    0x00026e90   0x00026e90   0x00000140   Code   RO         2349    i.char_insert       nrf_cli.o
    0x00026fd0   0x00026fd0   0x00000014   Code   RO         2350    i.cli_clear_eos     nrf_cli.o
    0x00026fe4   0x00026fe4   0x00000014   Code   RO         2351    i.cli_cursor_restore  nrf_cli.o
    0x00026ff8   0x00026ff8   0x00000014   Code   RO         2352    i.cli_cursor_save   nrf_cli.o
    0x0002700c   0x0002700c   0x000001d0   Code   RO         2353    i.cli_execute       nrf_cli.o
    0x000271dc   0x000271dc   0x0000000c   Code   RO         2354    i.cli_flag_echo_is_set  nrf_cli.o
    0x000271e8   0x000271e8   0x0000016c   Code   RO         2355    i.cli_log_entry_process  nrf_cli.o
    0x00027354   0x00027354   0x0000000e   Code   RO         2356    i.cli_read          nrf_cli.o
    0x00027362   0x00027362   0x00000274   Code   RO         2357    i.cli_state_collect  nrf_cli.o
    0x000275d6   0x000275d6   0x00000002   PAD
    0x000275d8   0x000275d8   0x00000028   Code   RO         2358    i.cli_state_set     nrf_cli.o
    0x00027600   0x00027600   0x0000000a   Code   RO         2359    i.cli_strlen        nrf_cli.o
    0x0002760a   0x0002760a   0x00000002   PAD
    0x0002760c   0x0002760c   0x00000318   Code   RO         2360    i.cli_tab_handle    nrf_cli.o
    0x00027924   0x00027924   0x00000014   Code   RO         2361    i.cli_transport_evt_handler  nrf_cli.o
    0x00027938   0x00027938   0x0000006c   Code   RO         2791    i.cli_uart_enable   nrf_cli_uart.o
    0x000279a4   0x000279a4   0x0000004c   Code   RO         2792    i.cli_uart_init     nrf_cli_uart.o
    0x000279f0   0x000279f0   0x0000000a   Code   RO         2793    i.cli_uart_read     nrf_cli_uart.o
    0x000279fa   0x000279fa   0x00000016   Code   RO         2794    i.cli_uart_uninit   nrf_cli_uart.o
    0x00027a10   0x00027a10   0x00000068   Code   RO         2795    i.cli_uart_write    nrf_cli_uart.o
    0x00027a78   0x00027a78   0x00000058   Code   RO         2362    i.cli_write         nrf_cli.o
    0x00027ad0   0x00027ad0   0x00000028   Code   RO          458    i.clock_clk_started_notify  nrf_drv_clock.o
    0x00027af8   0x00027af8   0x0000001c   Code   RO          459    i.clock_irq_handler  nrf_drv_clock.o
    0x00027b14   0x00027b14   0x00000088   Code   RO         2363    i.cmd_get           nrf_cli.o
    0x00027b9c   0x00027b9c   0x0000009a   Code   RO         2364    i.cmd_trim          nrf_cli.o
    0x00027c36   0x00027c36   0x00000018   Code   RO         1653    i.compare_func      app_timer2.o
    0x00027c4e   0x00027c4e   0x00000002   PAD
    0x00027c50   0x00027c50   0x00000094   Code   RO         2365    i.completion_insert  nrf_cli.o
    0x00027ce4   0x00027ce4   0x00000018   Code   RO         2366    i.cursor_down_move  nrf_cli.o
    0x00027cfc   0x00027cfc   0x00000052   Code   RO         2367    i.cursor_end_position_move  nrf_cli.o
    0x00027d4e   0x00027d4e   0x00000054   Code   RO         2368    i.cursor_home_position_move  nrf_cli.o
    0x00027da2   0x00027da2   0x00000026   Code   RO         2369    i.cursor_in_empty_line  nrf_cli.o
    0x00027dc8   0x00027dc8   0x00000018   Code   RO         2370    i.cursor_left_move  nrf_cli.o
    0x00027de0   0x00027de0   0x0000000c   Code   RO         2371    i.cursor_next_line_move  nrf_cli.o
    0x00027dec   0x00027dec   0x00000124   Code   RO         2372    i.cursor_position_get  nrf_cli.o
    0x00027f10   0x00027f10   0x0000006a   Code   RO         2373    i.cursor_position_synchronize  nrf_cli.o
    0x00027f7a   0x00027f7a   0x00000002   PAD
    0x00027f7c   0x00027f7c   0x00000018   Code   RO         2374    i.cursor_right_move  nrf_cli.o
    0x00027f94   0x00027f94   0x00000018   Code   RO         2375    i.cursor_up_move    nrf_cli.o
    0x00027fac   0x00027fac   0x00000014   Code   RO         3578    i.dropped_sat16_get  nrf_log_frontend.o
    0x00027fc0   0x00027fc0   0x00000014   Code   RO         1847    i.drv_rtc_compare_disable  drv_rtc.o
    0x00027fd4   0x00027fd4   0x0000000e   Code   RO         1850    i.drv_rtc_compare_pending  drv_rtc.o
    0x00027fe2   0x00027fe2   0x00000050   Code   RO         1851    i.drv_rtc_compare_set  drv_rtc.o
    0x00028032   0x00028032   0x00000008   Code   RO         1852    i.drv_rtc_counter_get  drv_rtc.o
    0x0002803a   0x0002803a   0x00000002   PAD
    0x0002803c   0x0002803c   0x000000ec   Code   RO         1853    i.drv_rtc_init      drv_rtc.o
    0x00028128   0x00028128   0x0000001e   Code   RO         1854    i.drv_rtc_irq_trigger  drv_rtc.o
    0x00028146   0x00028146   0x00000008   Code   RO         1856    i.drv_rtc_overflow_enable  drv_rtc.o
    0x0002814e   0x0002814e   0x00000008   Code   RO         1857    i.drv_rtc_overflow_pending  drv_rtc.o
    0x00028156   0x00028156   0x00000008   Code   RO         1858    i.drv_rtc_start     drv_rtc.o
    0x0002815e   0x0002815e   0x00000008   Code   RO         1859    i.drv_rtc_stop      drv_rtc.o
    0x00028166   0x00028166   0x000000de   Code   RO         1864    i.drv_rtc_windowed_compare_set  drv_rtc.o
    0x00028244   0x00028244   0x00000012   Code   RO         1865    i.evt_enable        drv_rtc.o
    0x00028256   0x00028256   0x00000014   Code   RO         1866    i.evt_pending       drv_rtc.o
    0x0002826a   0x0002826a   0x00000002   PAD
    0x0002826c   0x0002826c   0x00000048   Code   RO            4    i.flash_page_init   main.o
    0x000282b4   0x000282b4   0x00000058   Code   RO            5    i.flashwrite_cmd    main.o
    0x0002830c   0x0002830c   0x00000014   Code   RO            6    i.flashwrite_erase_cmd  main.o
    0x00028320   0x00028320   0x000000b8   Code   RO            7    i.flashwrite_read_cmd  main.o
    0x000283d8   0x000283d8   0x000001d4   Code   RO            8    i.flashwrite_write_cmd  main.o
    0x000285ac   0x000285ac   0x000000f2   Code   RO         2376    i.format_offset_string_print  nrf_cli.o
    0x0002869e   0x0002869e   0x00000026   Code   RO         2377    i.full_line_cmd     nrf_cli.o
    0x000286c4   0x000286c4   0x00000034   Code   RO         1654    i.get_now           app_timer2.o
    0x000286f8   0x000286f8   0x00000144   Code   RO         2378    i.history_handle    nrf_cli.o
    0x0002883c   0x0002883c   0x00000078   Code   RO         2379    i.history_list_element_add  nrf_cli.o
    0x000288b4   0x000288b4   0x00000068   Code   RO         2380    i.history_list_element_oldest_remove  nrf_cli.o
    0x0002891c   0x0002891c   0x00000086   Code   RO         2381    i.history_save      nrf_cli.o
    0x000289a2   0x000289a2   0x00000002   PAD
    0x000289a4   0x000289a4   0x000000a6   Code   RO         2917    i.int_print         nrf_fprintf_format.o
    0x00028a4a   0x00028a4a   0x00000002   PAD
    0x00028a4c   0x00028a4c   0x00000088   Code   RO         1329    i.interrupts_enable  nrfx_uarte.o
    0x00028ad4   0x00028ad4   0x00000034   Code   RO         3579    i.invalid_packets_omit  nrf_log_frontend.o
    0x00028b08   0x00028b08   0x00000010   Code   RO         2382    i.is_completion_candidate  nrf_cli.o
    0x00028b18   0x00028b18   0x00000016   Code   RO          460    i.item_enqueue      nrf_drv_clock.o
    0x00028b2e   0x00028b2e   0x00000002   PAD
    0x00028b30   0x00028b30   0x0000000c   Code   RO         3580    i.log_backend_ctrl  nrf_log_frontend.o
    0x00028b3c   0x00028b3c   0x0000000c   Code   RO         3581    i.log_backend_go    nrf_log_frontend.o
    0x00028b48   0x00028b48   0x0000000c   Code   RO         3582    i.log_backend_halt  nrf_log_frontend.o
    0x00028b54   0x00028b54   0x0000000c   Code   RO         3583    i.log_backend_status  nrf_log_frontend.o
    0x00028b60   0x00028b60   0x0000005c   Code   RO         3584    i.log_cmd           nrf_log_frontend.o
    0x00028bbc   0x00028bbc   0x000000c8   Code   RO         3585    i.log_cmd_backends_list  nrf_log_frontend.o
    0x00028c84   0x00028c84   0x0000003c   Code   RO         3586    i.log_config_load_cmd  nrf_log_frontend.o
    0x00028cc0   0x00028cc0   0x0000003c   Code   RO         3587    i.log_config_store_cmd  nrf_log_frontend.o
    0x00028cfc   0x00028cfc   0x000001cc   Code   RO         3588    i.log_ctrl          nrf_log_frontend.o
    0x00028ec8   0x00028ec8   0x00000008   Code   RO         3589    i.log_go            nrf_log_frontend.o
    0x00028ed0   0x00028ed0   0x00000008   Code   RO         3590    i.log_halt          nrf_log_frontend.o
    0x00028ed8   0x00028ed8   0x00000010   Code   RO         3591    i.log_self_ctrl     nrf_log_frontend.o
    0x00028ee8   0x00028ee8   0x0000000a   Code   RO         3592    i.log_self_go       nrf_log_frontend.o
    0x00028ef2   0x00028ef2   0x0000000a   Code   RO         3593    i.log_self_halt     nrf_log_frontend.o
    0x00028efc   0x00028efc   0x00000010   Code   RO         3594    i.log_self_status   nrf_log_frontend.o
    0x00028f0c   0x00028f0c   0x000000a4   Code   RO         3595    i.log_skip          nrf_log_frontend.o
    0x00028fb0   0x00028fb0   0x00000140   Code   RO         3596    i.log_status        nrf_log_frontend.o
    0x000290f0   0x000290f0   0x000000e4   Code   RO            9    i.main              main.o
    0x000291d4   0x000291d4   0x0000015a   Code   RO         2383    i.make_argv         nrf_cli.o
    0x0002932e   0x0002932e   0x0000007e   Code   RO         2956    i.memobj_op         nrf_memobj.o
    0x000293ac   0x000293ac   0x00000026   Code   RO         3597    i.module_id_filter_set  nrf_log_frontend.o
    0x000293d2   0x000293d2   0x00000002   PAD
    0x000293d4   0x000293d4   0x00000030   Code   RO         3598    i.module_idx_get    nrf_log_frontend.o
    0x00029404   0x00029404   0x0000001c   Code   RO         3599    i.module_name_get   nrf_log_frontend.o
    0x00029420   0x00029420   0x00000050   Code   RO         2384    i.multiline_console_data_check  nrf_cli.o
    0x00029470   0x00029470   0x00000026   Code   RO         2079    i.nrf_atfifo_init   nrf_atfifo.o
    0x00029496   0x00029496   0x00000016   Code   RO         2080    i.nrf_atfifo_item_alloc  nrf_atfifo.o
    0x000294ac   0x000294ac   0x00000016   Code   RO         2081    i.nrf_atfifo_item_free  nrf_atfifo.o
    0x000294c2   0x000294c2   0x00000016   Code   RO         2082    i.nrf_atfifo_item_get  nrf_atfifo.o
    0x000294d8   0x000294d8   0x00000016   Code   RO         2083    i.nrf_atfifo_item_put  nrf_atfifo.o
    0x000294ee   0x000294ee   0x00000006   Code   RO         2146    i.nrf_atomic_flag_clear  nrf_atomic.o
    0x000294f4   0x000294f4   0x00000006   Code   RO         2147    i.nrf_atomic_flag_clear_fetch  nrf_atomic.o
    0x000294fa   0x000294fa   0x00000006   Code   RO         2148    i.nrf_atomic_flag_set  nrf_atomic.o
    0x00029500   0x00029500   0x00000006   Code   RO         2149    i.nrf_atomic_flag_set_fetch  nrf_atomic.o
    0x00029506   0x00029506   0x0000000c   Code   RO         2150    i.nrf_atomic_u32_add  nrf_atomic.o
    0x00029512   0x00029512   0x0000000c   Code   RO         2151    i.nrf_atomic_u32_and  nrf_atomic.o
    0x0002951e   0x0002951e   0x0000000a   Code   RO         2154    i.nrf_atomic_u32_fetch_and  nrf_atomic.o
    0x00029528   0x00029528   0x0000000a   Code   RO         2155    i.nrf_atomic_u32_fetch_or  nrf_atomic.o
    0x00029532   0x00029532   0x0000000a   Code   RO         2156    i.nrf_atomic_u32_fetch_store  nrf_atomic.o
    0x0002953c   0x0002953c   0x0000000c   Code   RO         2160    i.nrf_atomic_u32_or  nrf_atomic.o
    0x00029548   0x00029548   0x0000000c   Code   RO         2162    i.nrf_atomic_u32_sub  nrf_atomic.o
    0x00029554   0x00029554   0x0000003e   Code   RO         2281    i.nrf_balloc_alloc  nrf_balloc.o
    0x00029592   0x00029592   0x0000002a   Code   RO         2282    i.nrf_balloc_free   nrf_balloc.o
    0x000295bc   0x000295bc   0x00000030   Code   RO         2283    i.nrf_balloc_init   nrf_balloc.o
    0x000295ec   0x000295ec   0x000000c8   Code   RO         2284    i.nrf_balloc_status  nrf_balloc.o
    0x000296b4   0x000296b4   0x0000007c   Code   RO         3600    i.nrf_cli_backend_cmd_execute  nrf_log_frontend.o
    0x00029730   0x00029730   0x0000004c   Code   RO         2385    i.nrf_cli_build_in_cmd_common_executed  nrf_cli.o
    0x0002977c   0x0002977c   0x00000044   Code   RO         2386    i.nrf_cli_cmd_clear  nrf_cli.o
    0x000297c0   0x000297c0   0x00000044   Code   RO         2387    i.nrf_cli_cmd_cli   nrf_cli.o
    0x00029804   0x00029804   0x0000006c   Code   RO         2388    i.nrf_cli_cmd_cli_stats  nrf_cli.o
    0x00029870   0x00029870   0x00000030   Code   RO         2389    i.nrf_cli_cmd_cli_stats_reset  nrf_cli.o
    0x000298a0   0x000298a0   0x00000088   Code   RO         2390    i.nrf_cli_cmd_cli_stats_show  nrf_cli.o
    0x00029928   0x00029928   0x00000068   Code   RO         2391    i.nrf_cli_cmd_colors  nrf_cli.o
    0x00029990   0x00029990   0x0000002a   Code   RO         2392    i.nrf_cli_cmd_colors_off  nrf_cli.o
    0x000299ba   0x000299ba   0x0000002a   Code   RO         2393    i.nrf_cli_cmd_colors_on  nrf_cli.o
    0x000299e4   0x000299e4   0x00000098   Code   RO         2394    i.nrf_cli_cmd_echo  nrf_cli.o
    0x00029a7c   0x00029a7c   0x0000002a   Code   RO         2395    i.nrf_cli_cmd_echo_off  nrf_cli.o
    0x00029aa6   0x00029aa6   0x0000002a   Code   RO         2396    i.nrf_cli_cmd_echo_on  nrf_cli.o
    0x00029ad0   0x00029ad0   0x00000078   Code   RO         2397    i.nrf_cli_cmd_history  nrf_cli.o
    0x00029b48   0x00029b48   0x000000c4   Code   RO         2398    i.nrf_cli_cmd_resize  nrf_cli.o
    0x00029c0c   0x00029c0c   0x0000003c   Code   RO         2399    i.nrf_cli_cmd_resize_default  nrf_cli.o
    0x00029c48   0x00029c48   0x00000050   Code   RO         2400    i.nrf_cli_fprintf   nrf_cli.o
    0x00029c98   0x00029c98   0x0000027c   Code   RO         2401    i.nrf_cli_help_print  nrf_cli.o
    0x00029f14   0x00029f14   0x0000000c   Code   RO         3601    i.nrf_cli_help_requested  nrf_log_frontend.o
    0x00029f20   0x00029f20   0x00000032   Code   RO         2402    i.nrf_cli_init      nrf_cli.o
    0x00029f52   0x00029f52   0x00000002   PAD
    0x00029f54   0x00029f54   0x000000c0   Code   RO         2403    i.nrf_cli_instance_init  nrf_cli.o
    0x0002a014   0x0002a014   0x00000006   Code   RO         2405    i.nrf_cli_print_stream  nrf_cli.o
    0x0002a01a   0x0002a01a   0x00000002   PAD
    0x0002a01c   0x0002a01c   0x00000074   Code   RO         2406    i.nrf_cli_process   nrf_cli.o
    0x0002a090   0x0002a090   0x00000048   Code   RO         2407    i.nrf_cli_start     nrf_cli.o
    0x0002a0d8   0x0002a0d8   0x0000000e   Code   RO          954    i.nrf_clock_event_check  nrfx_clock.o
    0x0002a0e6   0x0002a0e6   0x00000010   Code   RO          955    i.nrf_clock_event_clear  nrfx_clock.o
    0x0002a0f6   0x0002a0f6   0x00000002   PAD
    0x0002a0f8   0x0002a0f8   0x0000003c   Code   RO          466    i.nrf_drv_clock_init  nrf_drv_clock.o
    0x0002a134   0x0002a134   0x00000048   Code   RO          471    i.nrf_drv_clock_lfclk_request  nrf_drv_clock.o
    0x0002a17c   0x0002a17c   0x00000068   Code   RO          603    i.nrf_drv_uart_init  nrf_drv_uart.o
    0x0002a1e4   0x0002a1e4   0x00000020   Code   RO         2796    i.nrf_drv_uart_tx   nrf_cli_uart.o
    0x0002a204   0x0002a204   0x00000018   Code   RO         2797    i.nrf_drv_uart_uninit  nrf_cli_uart.o
    0x0002a21c   0x0002a21c   0x0000001a   Code   RO         2886    i.nrf_fprintf       nrf_fprintf.o
    0x0002a236   0x0002a236   0x00000018   Code   RO         2887    i.nrf_fprintf_buffer_flush  nrf_fprintf.o
    0x0002a24e   0x0002a24e   0x000001da   Code   RO         2918    i.nrf_fprintf_fmt   nrf_fprintf_format.o
    0x0002a428   0x0002a428   0x00000024   Code   RO         1143    i.nrf_gpio_cfg      nrfx_uart.o
    0x0002a44c   0x0002a44c   0x00000024   Code   RO         1330    i.nrf_gpio_cfg      nrfx_uarte.o
    0x0002a470   0x0002a470   0x00000012   Code   RO         1144    i.nrf_gpio_cfg_default  nrfx_uart.o
    0x0002a482   0x0002a482   0x00000012   Code   RO         1331    i.nrf_gpio_cfg_default  nrfx_uarte.o
    0x0002a494   0x0002a494   0x00000012   Code   RO         1145    i.nrf_gpio_cfg_input  nrfx_uart.o
    0x0002a4a6   0x0002a4a6   0x00000012   Code   RO         1332    i.nrf_gpio_cfg_input  nrfx_uarte.o
    0x0002a4b8   0x0002a4b8   0x00000014   Code   RO         1146    i.nrf_gpio_cfg_output  nrfx_uart.o
    0x0002a4cc   0x0002a4cc   0x00000014   Code   RO         1333    i.nrf_gpio_cfg_output  nrfx_uarte.o
    0x0002a4e0   0x0002a4e0   0x00000090   Code   RO         3602    i.nrf_log_backend_add  nrf_log_frontend.o
    0x0002a570   0x0002a570   0x0000000a   Code   RO         2411    i.nrf_log_backend_cli_flush  nrf_cli.o
    0x0002a57a   0x0002a57a   0x0000001e   Code   RO         2412    i.nrf_log_backend_cli_panic_set  nrf_cli.o
    0x0002a598   0x0002a598   0x00000052   Code   RO         2413    i.nrf_log_backend_cli_put  nrf_cli.o
    0x0002a5ea   0x0002a5ea   0x000000c8   Code   RO         3435    i.nrf_log_backend_serial_put  nrf_log_backend_serial.o
    0x0002a6b2   0x0002a6b2   0x00000002   Code   RO         3472    i.nrf_log_backend_uart_flush  nrf_log_backend_uart.o
    0x0002a6b4   0x0002a6b4   0x0000002c   Code   RO         3474    i.nrf_log_backend_uart_panic_set  nrf_log_backend_uart.o
    0x0002a6e0   0x0002a6e0   0x00000018   Code   RO         3475    i.nrf_log_backend_uart_put  nrf_log_backend_uart.o
    0x0002a6f8   0x0002a6f8   0x00000030   Code   RO         3604    i.nrf_log_color_id_get  nrf_log_frontend.o
    0x0002a728   0x0002a728   0x00000274   Code   RO         3605    i.nrf_log_frontend_dequeue  nrf_log_frontend.o
    0x0002a99c   0x0002a99c   0x00000008   Code   RO         3607    i.nrf_log_frontend_std_0  nrf_log_frontend.o
    0x0002a9a4   0x0002a9a4   0x000000b0   Code   RO         3891    i.nrf_log_hexdump_entry_process  nrf_log_str_formatter.o
    0x0002aa54   0x0002aa54   0x000000a0   Code   RO         3614    i.nrf_log_init      nrf_log_frontend.o
    0x0002aaf4   0x0002aaf4   0x00000014   Code   RO         3615    i.nrf_log_module_cnt_get  nrf_log_frontend.o
    0x0002ab08   0x0002ab08   0x00000048   Code   RO         3616    i.nrf_log_module_filter_get  nrf_log_frontend.o
    0x0002ab50   0x0002ab50   0x00000050   Code   RO         3617    i.nrf_log_module_filter_set  nrf_log_frontend.o
    0x0002aba0   0x0002aba0   0x0000001c   Code   RO         3618    i.nrf_log_module_name_get  nrf_log_frontend.o
    0x0002abbc   0x0002abbc   0x00000028   Code   RO         3619    i.nrf_log_panic     nrf_log_frontend.o
    0x0002abe4   0x0002abe4   0x000000b6   Code   RO         3892    i.nrf_log_std_entry_process  nrf_log_str_formatter.o
    0x0002ac9a   0x0002ac9a   0x00000060   Code   RO         2957    i.nrf_memobj_alloc  nrf_memobj.o
    0x0002acfa   0x0002acfa   0x00000032   Code   RO         2958    i.nrf_memobj_free   nrf_memobj.o
    0x0002ad2c   0x0002ad2c   0x00000008   Code   RO         2959    i.nrf_memobj_get    nrf_memobj.o
    0x0002ad34   0x0002ad34   0x00000004   Code   RO         2960    i.nrf_memobj_pool_init  nrf_memobj.o
    0x0002ad38   0x0002ad38   0x0000001e   Code   RO         2961    i.nrf_memobj_put    nrf_memobj.o
    0x0002ad56   0x0002ad56   0x00000010   Code   RO         2962    i.nrf_memobj_read   nrf_memobj.o
    0x0002ad66   0x0002ad66   0x00000010   Code   RO         2963    i.nrf_memobj_write  nrf_memobj.o
    0x0002ad76   0x0002ad76   0x00000002   PAD
    0x0002ad78   0x0002ad78   0x00000030   Code   RO          739    i.nrf_nvmc_page_erase  nrf_nvmc.o
    0x0002ada8   0x0002ada8   0x00000030   Code   RO          742    i.nrf_nvmc_write_word  nrf_nvmc.o
    0x0002add8   0x0002add8   0x00000002   Code   RO         3031    i.nrf_pwr_mgmt_feed  nrf_pwr_mgmt.o
    0x0002adda   0x0002adda   0x00000088   Code   RO         3104    i.nrf_queue_generic_pop  nrf_queue.o
    0x0002ae62   0x0002ae62   0x00000012   Code   RO         3106    i.nrf_queue_is_empty  nrf_queue.o
    0x0002ae74   0x0002ae74   0x0000001e   Code   RO         3107    i.nrf_queue_is_full  nrf_queue.o
    0x0002ae92   0x0002ae92   0x00000006   Code   RO         3108    i.nrf_queue_max_utilization_get  nrf_queue.o
    0x0002ae98   0x0002ae98   0x00000008   Code   RO         3109    i.nrf_queue_max_utilization_reset  nrf_queue.o
    0x0002aea0   0x0002aea0   0x0000000e   Code   RO         3110    i.nrf_queue_next_idx  nrf_queue.o
    0x0002aeae   0x0002aeae   0x000000ac   Code   RO         3112    i.nrf_queue_push    nrf_queue.o
    0x0002af5a   0x0002af5a   0x00000002   PAD
    0x0002af5c   0x0002af5c   0x000000e0   Code   RO         3115    i.nrf_queue_status  nrf_queue.o
    0x0002b03c   0x0002b03c   0x0000001c   Code   RO         3116    i.nrf_queue_utilization_get  nrf_queue.o
    0x0002b058   0x0002b058   0x00000070   Code   RO         3235    i.nrf_ringbuf_alloc  nrf_ringbuf.o
    0x0002b0c8   0x0002b0c8   0x0000007c   Code   RO         3236    i.nrf_ringbuf_cpy_get  nrf_ringbuf.o
    0x0002b144   0x0002b144   0x00000072   Code   RO         3237    i.nrf_ringbuf_cpy_put  nrf_ringbuf.o
    0x0002b1b6   0x0002b1b6   0x00000026   Code   RO         3238    i.nrf_ringbuf_free  nrf_ringbuf.o
    0x0002b1dc   0x0002b1dc   0x00000070   Code   RO         3239    i.nrf_ringbuf_get   nrf_ringbuf.o
    0x0002b24c   0x0002b24c   0x0000001c   Code   RO         3240    i.nrf_ringbuf_init  nrf_ringbuf.o
    0x0002b268   0x0002b268   0x00000030   Code   RO         3241    i.nrf_ringbuf_put   nrf_ringbuf.o
    0x0002b298   0x0002b298   0x0000000c   Code   RO         1867    i.nrf_rtc_event_clear  drv_rtc.o
    0x0002b2a4   0x0002b2a4   0x00000022   Code   RO         3330    i.nrf_sortlist_add  nrf_sortlist.o
    0x0002b2c6   0x0002b2c6   0x00000006   Code   RO         3332    i.nrf_sortlist_peek  nrf_sortlist.o
    0x0002b2cc   0x0002b2cc   0x0000000e   Code   RO         3333    i.nrf_sortlist_pop  nrf_sortlist.o
    0x0002b2da   0x0002b2da   0x0000001e   Code   RO         3334    i.nrf_sortlist_remove  nrf_sortlist.o
    0x0002b2f8   0x0002b2f8   0x0000000a   Code   RO         1147    i.nrf_uart_event_check  nrfx_uart.o
    0x0002b302   0x0002b302   0x0000000c   Code   RO         1148    i.nrf_uart_event_clear  nrfx_uart.o
    0x0002b30e   0x0002b30e   0x0000000c   Code   RO         1149    i.nrf_uart_int_enable_check  nrfx_uart.o
    0x0002b31a   0x0002b31a   0x0000000a   Code   RO         1334    i.nrf_uarte_event_check  nrfx_uarte.o
    0x0002b324   0x0002b324   0x0000000c   Code   RO         1335    i.nrf_uarte_event_clear  nrfx_uarte.o
    0x0002b330   0x0002b330   0x00000010   Code   RO          473    i.nrf_wdt_started   nrf_drv_clock.o
    0x0002b340   0x0002b340   0x0000002c   Code   RO          960    i.nrfx_clock_enable  nrfx_clock.o
    0x0002b36c   0x0002b36c   0x00000020   Code   RO          963    i.nrfx_clock_init   nrfx_clock.o
    0x0002b38c   0x0002b38c   0x0000004c   Code   RO          965    i.nrfx_clock_lfclk_start  nrfx_clock.o
    0x0002b3d8   0x0002b3d8   0x00000010   Code   RO         1868    i.nrfx_coredep_delay_us  drv_rtc.o
    0x0002b3e8   0x0002b3e8   0x00000010   Code   RO         1336    i.nrfx_is_in_ram    nrfx_uarte.o
    0x0002b3f8   0x0002b3f8   0x00000030   Code   RO         1091    i.nrfx_prs_acquire  nrfx_prs.o
    0x0002b428   0x0002b428   0x00000012   Code   RO         1092    i.nrfx_prs_release  nrfx_prs.o
    0x0002b43a   0x0002b43a   0x00000002   PAD
    0x0002b43c   0x0002b43c   0x00000010   Code   RO         1150    i.nrfx_uart_0_irq_handler  nrfx_uart.o
    0x0002b44c   0x0002b44c   0x000000d4   Code   RO         1152    i.nrfx_uart_init    nrfx_uart.o
    0x0002b520   0x0002b520   0x000000ec   Code   RO         1153    i.nrfx_uart_rx      nrfx_uart.o
    0x0002b60c   0x0002b60c   0x00000012   Code   RO         1154    i.nrfx_uart_rx_abort  nrfx_uart.o
    0x0002b61e   0x0002b61e   0x00000002   PAD
    0x0002b620   0x0002b620   0x000000a8   Code   RO         1158    i.nrfx_uart_tx      nrfx_uart.o
    0x0002b6c8   0x0002b6c8   0x00000020   Code   RO         1160    i.nrfx_uart_tx_in_progress  nrfx_uart.o
    0x0002b6e8   0x0002b6e8   0x000000c0   Code   RO         1161    i.nrfx_uart_uninit  nrfx_uart.o
    0x0002b7a8   0x0002b7a8   0x00000010   Code   RO         1337    i.nrfx_uarte_0_irq_handler  nrfx_uarte.o
    0x0002b7b8   0x0002b7b8   0x0000006c   Code   RO         1339    i.nrfx_uarte_init   nrfx_uarte.o
    0x0002b824   0x0002b824   0x00000104   Code   RO         1340    i.nrfx_uarte_rx     nrfx_uarte.o
    0x0002b928   0x0002b928   0x0000002c   Code   RO         1341    i.nrfx_uarte_rx_abort  nrfx_uarte.o
    0x0002b954   0x0002b954   0x000000ac   Code   RO         1343    i.nrfx_uarte_tx     nrfx_uarte.o
    0x0002ba00   0x0002ba00   0x0000001c   Code   RO         1345    i.nrfx_uarte_tx_in_progress  nrfx_uarte.o
    0x0002ba1c   0x0002ba1c   0x00000108   Code   RO         1346    i.nrfx_uarte_uninit  nrfx_uarte.o
    0x0002bb24   0x0002bb24   0x00000090   Code   RO         2414    i.option_print      nrf_cli.o
    0x0002bbb4   0x0002bbb4   0x0000003c   Code   RO         3894    i.postfix_process   nrf_log_str_formatter.o
    0x0002bbf0   0x0002bbf0   0x00000098   Code   RO         3895    i.prefix_process    nrf_log_str_formatter.o
    0x0002bc88   0x0002bc88   0x00000018   Code   RO         1093    i.prs_box_get       nrfx_prs.o
    0x0002bca0   0x0002bca0   0x00000018   Code   RO         3119    i.queue_utilization_get  nrf_queue.o
    0x0002bcb8   0x0002bcb8   0x0000005c   Code   RO         1655    i.rtc_irq           app_timer2.o
    0x0002bd14   0x0002bd14   0x00000064   Code   RO         1656    i.rtc_schedule      app_timer2.o
    0x0002bd78   0x0002bd78   0x00000078   Code   RO         1657    i.rtc_update        app_timer2.o
    0x0002bdf0   0x0002bdf0   0x00000032   Code   RO         1162    i.rx_byte           nrfx_uart.o
    0x0002be22   0x0002be22   0x00000016   Code   RO         1163    i.rx_done_event     nrfx_uart.o
    0x0002be38   0x0002be38   0x00000016   Code   RO         1347    i.rx_done_event     nrfx_uarte.o
    0x0002be4e   0x0002be4e   0x00000020   Code   RO         1164    i.rx_enable         nrfx_uart.o
    0x0002be6e   0x0002be6e   0x00000002   PAD
    0x0002be70   0x0002be70   0x00000054   Code   RO         2798    i.rx_try            nrf_cli_uart.o
    0x0002bec4   0x0002bec4   0x00000040   Code   RO         3476    i.serial_tx         nrf_log_backend_uart.o
    0x0002bf04   0x0002bf04   0x00000024   Code   RO         3621    i.severity_lvl_get  nrf_log_frontend.o
    0x0002bf28   0x0002bf28   0x0000000c   Code   RO         1658    i.sortlist_pop      app_timer2.o
    0x0002bf34   0x0002bf34   0x00000094   Code   RO         3622    i.std_n             nrf_log_frontend.o
    0x0002bfc8   0x0002bfc8   0x00000008   Code   RO         2415    i.string_cmp        nrf_cli.o
    0x0002bfd0   0x0002bfd0   0x00000060   Code   RO         2416    i.terminal_size_get  nrf_cli.o
    0x0002c030   0x0002c030   0x00000060   Code   RO         1659    i.timer_expire      app_timer2.o
    0x0002c090   0x0002c090   0x0000001c   Code   RO         2799    i.timer_handler     nrf_cli_uart.o
    0x0002c0ac   0x0002c0ac   0x0000007c   Code   RO         1660    i.timer_req_process  app_timer2.o
    0x0002c128   0x0002c128   0x00000038   Code   RO         1661    i.timer_req_schedule  app_timer2.o
    0x0002c160   0x0002c160   0x00000020   Code   RO         1165    i.tx_byte           nrfx_uart.o
    0x0002c180   0x0002c180   0x0000001a   Code   RO         1166    i.tx_done_event     nrfx_uart.o
    0x0002c19a   0x0002c19a   0x0000001a   Code   RO         1348    i.tx_done_event     nrfx_uarte.o
    0x0002c1b4   0x0002c1b4   0x0000006e   Code   RO         2800    i.uart_event_handler  nrf_cli_uart.o
    0x0002c222   0x0002c222   0x00000002   PAD
    0x0002c224   0x0002c224   0x00000030   Code   RO          604    i.uart_evt_handler  nrf_drv_uart.o
    0x0002c254   0x0002c254   0x0000000c   Code   RO         3477    i.uart_evt_handler  nrf_log_backend_uart.o
    0x0002c260   0x0002c260   0x00000050   Code   RO         3478    i.uart_init         nrf_log_backend_uart.o
    0x0002c2b0   0x0002c2b0   0x0000012a   Code   RO         1167    i.uart_irq_handler  nrfx_uart.o
    0x0002c3da   0x0002c3da   0x00000002   PAD
    0x0002c3dc   0x0002c3dc   0x00000030   Code   RO          605    i.uarte_evt_handler  nrf_drv_uart.o
    0x0002c40c   0x0002c40c   0x00000112   Code   RO         1349    i.uarte_irq_handler  nrfx_uarte.o
    0x0002c51e   0x0002c51e   0x00000002   PAD
    0x0002c520   0x0002c520   0x000000b4   Code   RO         2919    i.unsigned_print    nrf_fprintf_format.o
    0x0002c5d4   0x0002c5d4   0x0000003c   Code   RO         2417    i.vt100_bgcolor_set  nrf_cli.o
    0x0002c610   0x0002c610   0x00000050   Code   RO         2418    i.vt100_color_set   nrf_cli.o
    0x0002c660   0x0002c660   0x00000004   Data   RO           20    .constdata          main.o
    0x0002c664   0x0002c664   0x0000000c   Data   RO           21    .constdata          main.o
    0x0002c670   0x0002c670   0x0000000c   Data   RO           22    .constdata          main.o
    0x0002c67c   0x0002c67c   0x00000014   Data   RO           23    .constdata          main.o
    0x0002c690   0x0002c690   0x00000018   Data   RO           24    .constdata          main.o
    0x0002c6a8   0x0002c6a8   0x00000038   Data   RO           25    .constdata          main.o
    0x0002c6e0   0x0002c6e0   0x00000008   Data   RO           26    .constdata          main.o
    0x0002c6e8   0x0002c6e8   0x00000040   Data   RO           27    .constdata          main.o
    0x0002c728   0x0002c728   0x00000010   Data   RO           28    .constdata          main.o
    0x0002c738   0x0002c738   0x00000004   Data   RO         1170    .constdata          nrfx_uart.o
    0x0002c73c   0x0002c73c   0x00000004   Data   RO         1352    .constdata          nrfx_uarte.o
    0x0002c740   0x0002c740   0x00000014   Data   RO         1663    .constdata          app_timer2.o
    0x0002c754   0x0002c754   0x0000000c   PAD
    0x0002c760   0x0002c760   0x00000006   Data   RO         1869    .constdata          drv_rtc.o
    0x0002c766   0x0002c766   0x00000002   PAD
    0x0002c768   0x0002c768   0x00000008   Data   RO         2285    .constdata          nrf_balloc.o
    0x0002c770   0x0002c770   0x00000020   Data   RO         2286    .constdata          nrf_balloc.o
    0x0002c790   0x0002c790   0x00000010   Data   RO         2287    .constdata          nrf_balloc.o
    0x0002c7a0   0x0002c7a0   0x0000000c   Data   RO         2419    .constdata          nrf_cli.o
    0x0002c7ac   0x0002c7ac   0x00000008   Data   RO         2420    .constdata          nrf_cli.o
    0x0002c7b4   0x0002c7b4   0x00000030   Data   RO         2421    .constdata          nrf_cli.o
    0x0002c7e4   0x0002c7e4   0x00000008   Data   RO         2422    .constdata          nrf_cli.o
    0x0002c7ec   0x0002c7ec   0x00000030   Data   RO         2423    .constdata          nrf_cli.o
    0x0002c81c   0x0002c81c   0x00000008   Data   RO         2424    .constdata          nrf_cli.o
    0x0002c824   0x0002c824   0x00000030   Data   RO         2425    .constdata          nrf_cli.o
    0x0002c854   0x0002c854   0x00000008   Data   RO         2426    .constdata          nrf_cli.o
    0x0002c85c   0x0002c85c   0x00000040   Data   RO         2427    .constdata          nrf_cli.o
    0x0002c89c   0x0002c89c   0x00000008   Data   RO         2428    .constdata          nrf_cli.o
    0x0002c8a4   0x0002c8a4   0x00000020   Data   RO         2429    .constdata          nrf_cli.o
    0x0002c8c4   0x0002c8c4   0x00000010   Data   RO         2430    .constdata          nrf_cli.o
    0x0002c8d4   0x0002c8d4   0x00000010   Data   RO         2431    .constdata          nrf_cli.o
    0x0002c8e4   0x0002c8e4   0x00000010   Data   RO         2432    .constdata          nrf_cli.o
    0x0002c8f4   0x0002c8f4   0x00000010   Data   RO         2433    .constdata          nrf_cli.o
    0x0002c904   0x0002c904   0x0000000c   PAD
    0x0002c910   0x0002c910   0x00000047   Data   RO         2434    .constdata          nrf_cli.o
    0x0002c957   0x0002c957   0x00000001   PAD
    0x0002c958   0x0002c958   0x00000014   Data   RO         2801    .constdata          nrf_cli_uart.o
    0x0002c96c   0x0002c96c   0x00000010   Data   RO         2920    .constdata          nrf_fprintf_format.o
    0x0002c97c   0x0002c97c   0x00000008   Data   RO         3121    .constdata          nrf_queue.o
    0x0002c984   0x0002c984   0x00000020   Data   RO         3122    .constdata          nrf_queue.o
    0x0002c9a4   0x0002c9a4   0x00000010   Data   RO         3123    .constdata          nrf_queue.o
    0x0002c9b4   0x0002c9b4   0x0000000c   Data   RO         3480    .constdata          nrf_log_backend_uart.o
    0x0002c9c0   0x0002c9c0   0x00000020   Data   RO         3481    .constdata          nrf_log_backend_uart.o
    0x0002c9e0   0x0002c9e0   0x0000001c   Data   RO         3627    .constdata          nrf_log_frontend.o
    0x0002c9fc   0x0002c9fc   0x00000008   Data   RO         3628    .constdata          nrf_log_frontend.o
    0x0002ca04   0x0002ca04   0x00000060   Data   RO         3629    .constdata          nrf_log_frontend.o
    0x0002ca64   0x0002ca64   0x00000008   Data   RO         3630    .constdata          nrf_log_frontend.o
    0x0002ca6c   0x0002ca6c   0x00000008   Data   RO         3631    .constdata          nrf_log_frontend.o
    0x0002ca74   0x0002ca74   0x00000030   Data   RO         3632    .constdata          nrf_log_frontend.o
    0x0002caa4   0x0002caa4   0x00000008   Data   RO         3633    .constdata          nrf_log_frontend.o
    0x0002caac   0x0002caac   0x00000090   Data   RO         3634    .constdata          nrf_log_frontend.o
    0x0002cb3c   0x0002cb3c   0x00000010   Data   RO         3635    .constdata          nrf_log_frontend.o
    0x0002cb4c   0x0002cb4c   0x00000081   Data   RO         4361    .constdata          mc_w.l(ctype_o.o)
    0x0002cbcd   0x0002cbcd   0x00000003   PAD
    0x0002cbd0   0x0002cbd0   0x00000004   Data   RO         4362    .constdata          mc_w.l(ctype_o.o)
    0x0002cbd4   0x0002cbd4   0x00000071   Data   RO           29    .conststring        main.o
    0x0002cc45   0x0002cc45   0x00000003   PAD
    0x0002cc48   0x0002cc48   0x0000009e   Data   RO           30    .conststring        main.o
    0x0002cce6   0x0002cce6   0x00000002   PAD
    0x0002cce8   0x0002cce8   0x0000001e   Data   RO           31    .conststring        main.o
    0x0002cd06   0x0002cd06   0x00000002   PAD
    0x0002cd08   0x0002cd08   0x0000002b   Data   RO         2288    .conststring        nrf_balloc.o
    0x0002cd33   0x0002cd33   0x00000001   PAD
    0x0002cd34   0x0002cd34   0x00000027   Data   RO         2289    .conststring        nrf_balloc.o
    0x0002cd5b   0x0002cd5b   0x00000001   PAD
    0x0002cd5c   0x0002cd5c   0x0000008e   Data   RO         2290    .conststring        nrf_balloc.o
    0x0002cdea   0x0002cdea   0x00000002   PAD
    0x0002cdec   0x0002cdec   0x00000037   Data   RO         2435    .conststring        nrf_cli.o
    0x0002ce23   0x0002ce23   0x00000001   PAD
    0x0002ce24   0x0002ce24   0x0000006d   Data   RO         2436    .conststring        nrf_cli.o
    0x0002ce91   0x0002ce91   0x00000003   PAD
    0x0002ce94   0x0002ce94   0x00000065   Data   RO         2437    .conststring        nrf_cli.o
    0x0002cef9   0x0002cef9   0x00000003   PAD
    0x0002cefc   0x0002cefc   0x00000052   Data   RO         2438    .conststring        nrf_cli.o
    0x0002cf4e   0x0002cf4e   0x00000002   PAD
    0x0002cf50   0x0002cf50   0x0000004c   Data   RO         2439    .conststring        nrf_cli.o
    0x0002cf9c   0x0002cf9c   0x00000016   Data   RO         2440    .conststring        nrf_cli.o
    0x0002cfb2   0x0002cfb2   0x00000002   PAD
    0x0002cfb4   0x0002cfb4   0x00000028   Data   RO         2441    .conststring        nrf_cli.o
    0x0002cfdc   0x0002cfdc   0x0000001c   Data   RO         2442    .conststring        nrf_cli.o
    0x0002cff8   0x0002cff8   0x000000a7   Data   RO         2443    .conststring        nrf_cli.o
    0x0002d09f   0x0002d09f   0x00000001   PAD
    0x0002d0a0   0x0002d0a0   0x00000003   Data   RO         2444    .conststring        nrf_cli.o
    0x0002d0a3   0x0002d0a3   0x00000001   PAD
    0x0002d0a4   0x0002d0a4   0x00000021   Data   RO         3124    .conststring        nrf_queue.o
    0x0002d0c5   0x0002d0c5   0x00000003   PAD
    0x0002d0c8   0x0002d0c8   0x00000006   Data   RO         3125    .conststring        nrf_queue.o
    0x0002d0ce   0x0002d0ce   0x00000002   PAD
    0x0002d0d0   0x0002d0d0   0x0000007c   Data   RO         3126    .conststring        nrf_queue.o
    0x0002d14c   0x0002d14c   0x00000026   Data   RO         3636    .conststring        nrf_log_frontend.o
    0x0002d172   0x0002d172   0x00000002   PAD
    0x0002d174   0x0002d174   0x00000139   Data   RO         3637    .conststring        nrf_log_frontend.o
    0x0002d2ad   0x0002d2ad   0x00000003   PAD
    0x0002d2b0   0x0002d2b0   0x00000076   Data   RO         3638    .conststring        nrf_log_frontend.o
    0x0002d326   0x0002d326   0x00000002   PAD
    0x0002d328   0x0002d328   0x0000006e   Data   RO         3639    .conststring        nrf_log_frontend.o
    0x0002d396   0x0002d396   0x00000002   PAD
    0x0002d398   0x0002d398   0x00000024   Data   RO         3640    .conststring        nrf_log_frontend.o
    0x0002d3bc   0x0002d3bc   0x00000048   Data   RO         3896    .conststring        nrf_log_str_formatter.o
    0x0002d404   0x0002d404   0x000000c3   Data   RO           32    .conststrlit        main.o
    0x0002d4c7   0x0002d4c7   0x00000001   PAD
    0x0002d4c8   0x0002d4c8   0x00000006   Data   RO          479    .conststrlit        nrf_drv_clock.o
    0x0002d4ce   0x0002d4ce   0x00000002   PAD
    0x0002d4d0   0x0002d4d0   0x00000006   Data   RO          970    .conststrlit        nrfx_clock.o
    0x0002d4d6   0x0002d4d6   0x00000002   PAD
    0x0002d4d8   0x0002d4d8   0x00000004   Data   RO         1095    .conststrlit        nrfx_prs.o
    0x0002d4dc   0x0002d4dc   0x00000005   Data   RO         1173    .conststrlit        nrfx_uart.o
    0x0002d4e1   0x0002d4e1   0x00000003   PAD
    0x0002d4e4   0x0002d4e4   0x00000006   Data   RO         1355    .conststrlit        nrfx_uarte.o
    0x0002d4ea   0x0002d4ea   0x00000002   PAD
    0x0002d4ec   0x0002d4ec   0x0000001e   Data   RO         1664    .conststrlit        app_timer2.o
    0x0002d50a   0x0002d50a   0x00000002   PAD
    0x0002d50c   0x0002d50c   0x00000009   Data   RO         2802    .conststrlit        nrf_cli_uart.o
    0x0002d515   0x0002d515   0x00000003   PAD
    0x0002d518   0x0002d518   0x00000009   Data   RO         3039    .conststrlit        nrf_pwr_mgmt.o
    0x0002d521   0x0002d521   0x00000003   PAD
    0x0002d524   0x0002d524   0x00000009   Data   RO         3335    .conststrlit        nrf_sortlist.o
    0x0002d52d   0x0002d52d   0x00000003   PAD
    0x0002d530   0x0002d530   0x00000011   Data   RO         3540    .conststrlit        nrf_log_default_backends.o
    0x0002d541   0x0002d541   0x00000003   PAD
    0x0002d544   0x0002d544   0x00000024   Data   RO         3641    .conststrlit        nrf_log_frontend.o
    0x0002d568   0x0002d568   0x00000020   Data   RO         4430    Region$$Table       anon$$obj.o
    0x0002d588   0x0002d588   0x00000008   Data   RO           39    cli_command         main.o
    0x0002d590   0x0002d590   0x00000008   Data   RO         2291    cli_command         nrf_balloc.o
    0x0002d598   0x0002d598   0x00000020   Data   RO         2446    cli_command         nrf_cli.o
    0x0002d5b8   0x0002d5b8   0x00000008   Data   RO         3127    cli_command         nrf_queue.o
    0x0002d5c0   0x0002d5c0   0x00000008   Data   RO         3645    cli_command         nrf_log_frontend.o
    0x0002d5c8   0x0002d5c8   0x00000010   Data   RO           41    log_backends        main.o
    0x0002d5d8   0x0002d5d8   0x00000010   Data   RO         3542    log_backends        nrf_log_default_backends.o
    0x0002d5e8   0x0002d5e8   0x00000018   Data   RO           42    log_const_data      main.o
    0x0002d600   0x0002d600   0x00000008   Data   RO          480    log_const_data      nrf_drv_clock.o
    0x0002d608   0x0002d608   0x00000008   Data   RO          972    log_const_data      nrfx_clock.o
    0x0002d610   0x0002d610   0x00000008   Data   RO         1097    log_const_data      nrfx_prs.o
    0x0002d618   0x0002d618   0x00000008   Data   RO         1174    log_const_data      nrfx_uart.o
    0x0002d620   0x0002d620   0x00000008   Data   RO         1356    log_const_data      nrfx_uarte.o
    0x0002d628   0x0002d628   0x00000010   Data   RO         1668    log_const_data      app_timer2.o
    0x0002d638   0x0002d638   0x00000008   Data   RO         2803    log_const_data      nrf_cli_uart.o
    0x0002d640   0x0002d640   0x00000008   Data   RO         3041    log_const_data      nrf_pwr_mgmt.o
    0x0002d648   0x0002d648   0x00000008   Data   RO         3336    log_const_data      nrf_sortlist.o
    0x0002d650   0x0002d650   0x00000010   Data   RO         3647    log_const_data      nrf_log_frontend.o
    0x0002d660   0x0002d660   0x0000001c   Data   RO           45    nrf_balloc          main.o
    0x0002d67c   0x0002d67c   0x0000001c   Data   RO         3650    nrf_balloc          nrf_log_frontend.o
    0x0002d698   0x0002d698   0x0000001c   Data   RO           46    nrf_queue           main.o


    Execution Region RW_IRAM1 (Exec base: 0x20002998, Load base: 0x0002d6b4, Size: 0x00002c20, Max: 0x00003000, ABSOLUTE, COMPRESSED[0x00000074])

    Exec Addr    Load Addr    Size         Type   Attr      Idx    E Section Name        Object

    0x20002998   COMPRESSED   0x00000028   Data   RW           33    .data               main.o
    0x200029c0   COMPRESSED   0x00000018   Data   RW           34    .data               main.o
    0x200029d8   COMPRESSED   0x0000000c   Data   RW           35    .data               main.o
    0x200029e4   COMPRESSED   0x00000008   Data   RW           36    .data               main.o
    0x200029ec   COMPRESSED   0x00000008   Data   RW           37    .data               main.o
    0x200029f4   COMPRESSED   0x00000008   Data   RW           38    .data               main.o
    0x200029fc   COMPRESSED   0x0000000c   Data   RW          606    .data               nrf_drv_uart.o
    0x20002a08   COMPRESSED   0x00000008   Data   RW          971    .data               nrfx_clock.o
    0x20002a10   COMPRESSED   0x00000008   Data   RW         1096    .data               nrfx_prs.o
    0x20002a18   COMPRESSED   0x00000020   Data   RW         1665    .data               app_timer2.o
    0x20002a38   COMPRESSED   0x00000014   Data   RW         1666    .data               app_timer2.o
    0x20002a4c   COMPRESSED   0x00000004   Data   RW         1667    .data               app_timer2.o
    0x20002a50   COMPRESSED   0x00000004   Data   RW         1790    .data               app_util_platform.o
    0x20002a54   COMPRESSED   0x0000000c   Data   RW         1870    .data               drv_rtc.o
    0x20002a60   COMPRESSED   0x00000004   Data   RW         2445    .data               nrf_cli.o
    0x20002a64   COMPRESSED   0x00000018   Data   RW         3482    .data               nrf_log_backend_uart.o
    0x20002a7c   COMPRESSED   0x00000008   Data   RW         3541    .data               nrf_log_default_backends.o
    0x20002a84   COMPRESSED   0x0000002c   Data   RW         3642    .data               nrf_log_frontend.o
    0x20002ab0   COMPRESSED   0x00000008   Data   RW         3643    .data               nrf_log_frontend.o
    0x20002ab8   COMPRESSED   0x00000008   Data   RW         3644    .data               nrf_log_frontend.o
    0x20002ac0   COMPRESSED   0x00000040   Data   RW         3897    .data               nrf_log_str_formatter.o
    0x20002b00   COMPRESSED   0x00000004   Data   RW         4306    .data               system_nrf52.o
    0x20002b04   COMPRESSED   0x00000004   Data   RW           40    cli_sorted_cmd_ptrs  main.o
    0x20002b08   COMPRESSED   0x00000004   Data   RW         2292    cli_sorted_cmd_ptrs  nrf_balloc.o
    0x20002b0c   COMPRESSED   0x00000010   Data   RW         2447    cli_sorted_cmd_ptrs  nrf_cli.o
    0x20002b1c   COMPRESSED   0x00000004   Data   RW         3128    cli_sorted_cmd_ptrs  nrf_queue.o
    0x20002b20   COMPRESSED   0x00000004   Data   RW         3646    cli_sorted_cmd_ptrs  nrf_log_frontend.o
    0x20002b24   COMPRESSED   0x0000000c   Data   RW           43    log_dynamic_data    main.o
    0x20002b30   COMPRESSED   0x00000004   Data   RW          481    log_dynamic_data    nrf_drv_clock.o
    0x20002b34   COMPRESSED   0x00000004   Data   RW          973    log_dynamic_data    nrfx_clock.o
    0x20002b38   COMPRESSED   0x00000004   Data   RW         1098    log_dynamic_data    nrfx_prs.o
    0x20002b3c   COMPRESSED   0x00000004   Data   RW         1175    log_dynamic_data    nrfx_uart.o
    0x20002b40   COMPRESSED   0x00000004   Data   RW         1357    log_dynamic_data    nrfx_uarte.o
    0x20002b44   COMPRESSED   0x00000008   Data   RW         1669    log_dynamic_data    app_timer2.o
    0x20002b4c   COMPRESSED   0x00000004   Data   RW         2804    log_dynamic_data    nrf_cli_uart.o
    0x20002b50   COMPRESSED   0x00000004   Data   RW         3042    log_dynamic_data    nrf_pwr_mgmt.o
    0x20002b54   COMPRESSED   0x00000004   Data   RW         3337    log_dynamic_data    nrf_sortlist.o
    0x20002b58   COMPRESSED   0x00000008   Data   RW         3648    log_dynamic_data    nrf_log_frontend.o
    0x20002b60   COMPRESSED   0x0000000c   Data   RW           44    log_filter_data     main.o
    0x20002b6c   COMPRESSED   0x00000004   Data   RW          482    log_filter_data     nrf_drv_clock.o
    0x20002b70   COMPRESSED   0x00000004   Data   RW          974    log_filter_data     nrfx_clock.o
    0x20002b74   COMPRESSED   0x00000004   Data   RW         1099    log_filter_data     nrfx_prs.o
    0x20002b78   COMPRESSED   0x00000004   Data   RW         1176    log_filter_data     nrfx_uart.o
    0x20002b7c   COMPRESSED   0x00000004   Data   RW         1358    log_filter_data     nrfx_uarte.o
    0x20002b80   COMPRESSED   0x00000008   Data   RW         1670    log_filter_data     app_timer2.o
    0x20002b88   COMPRESSED   0x00000004   Data   RW         2805    log_filter_data     nrf_cli_uart.o
    0x20002b8c   COMPRESSED   0x00000004   Data   RW         3043    log_filter_data     nrf_pwr_mgmt.o
    0x20002b90   COMPRESSED   0x00000004   Data   RW         3338    log_filter_data     nrf_sortlist.o
    0x20002b94   COMPRESSED   0x00000008   Data   RW         3649    log_filter_data     nrf_log_frontend.o
    0x20002b9c        -       0x00000040   Zero   RW           10    .bss                main.o
    0x20002bdc        -       0x00000018   Zero   RW           11    .bss                main.o
    0x20002bf4        -       0x00000010   Zero   RW           12    .bss                main.o
    0x20002c04        -       0x00000018   Zero   RW           13    .bss                main.o
    0x20002c1c        -       0x0000002c   Zero   RW           14    .bss                main.o
    0x20002c48        -       0x0000014c   Zero   RW           15    .bss                main.o
    0x20002d94        -       0x00000014   Zero   RW           16    .bss                main.o
    0x20002da8        -       0x0000000c   Zero   RW           17    .bss                main.o
    0x20002db4        -       0x00000180   Zero   RW           18    .bss                main.o
    0x20002f34        -       0x00000010   Zero   RW           19    .bss                main.o
    0x20002f44        -       0x00000014   Zero   RW          474    .bss                nrf_drv_clock.o
    0x20002f58        -       0x0000002c   Zero   RW         1168    .bss                nrfx_uart.o
    0x20002f84        -       0x00000024   Zero   RW         1350    .bss                nrfx_uarte.o
    0x20002fa8        -       0x00000058   Zero   RW         1662    .bss                app_timer2.o
    0x20003000        -       0x00000040   Zero   RW         3479    .bss                nrf_log_backend_uart.o
    0x20003040        -       0x000000c0   Zero   RW         3623    .bss                nrf_log_frontend.o
    0x20003100        -       0x00000080   Zero   RW         3624    .bss                nrf_log_frontend.o
    0x20003180        -       0x00000018   Zero   RW         3625    .bss                nrf_log_frontend.o
    0x20003198        -       0x00000420   Zero   RW         3626    .bss                nrf_log_frontend.o
    0x200035b8        -       0x00002000   Zero   RW         4294    STACK               arm_startup_nrf52.o


==============================================================================

Image component sizes


      Code (inc. data)   RO Data    RW Data    ZI Data      Debug   Object Name

        22          0          0          0          0       2557   app_error.o
         0          0          0          0          0        392   app_error_handler_keil.o
       148         50          0          0          0      30921   app_error_weak.o
       866         90         66         72         88      17431   app_timer2.o
        44         10          0          4          0       3436   app_util_platform.o
        36          8        512          0       8192        936   arm_startup_nrf52.o
         0          0          0          0          0        524   boards.o
       724         82          6         12          0      48989   drv_rtc.o
      1060        434        816        128        936     108370   main.o
       326          0          0          0          0       6043   nrf_atfifo.o
       328          0          0          0          0      10227   nrf_atomic.o
       352         32        288          4          0      20851   nrf_balloc.o
      8662        880       1142         20          0      81668   nrf_cli.o
       598         38         37          8          0      28527   nrf_cli_uart.o
       238         28         14          8         20      12956   nrf_drv_clock.o
       200         26          0         12          0      12816   nrf_drv_uart.o
        50          0          0          0          0       2025   nrf_fprintf.o
       866          4         16          0          0       6630   nrf_fprintf_format.o
       200          0          0          0          0      11021   nrf_log_backend_serial.o
       226         44         44         24         64       9450   nrf_log_backend_uart.o
         0          0         33          8          0       2553   nrf_log_default_backends.o
      3442        758       1067         80       1400      58809   nrf_log_frontend.o
