:020000040002F8
:10600000C85E0020C1630200C9630200CB630200C6
:10601000CD630200CF630200D163020000000000E4
:10602000000000000000000000000000D363020038
:10603000D563020000000000D7630200D9630200AC
:1060400031660200DB630200D5690200DB630200F7
:10605000DB630200DB6302008D650200DB6302008C
:10606000DB630200DB630200DB630200DB63020030
:10607000DB630200DB630200DB630200DB63020020
:10608000DB63020089660200DB630200DB6302005F
:10609000DB630200DB630200F9660200DB630200DF
:1060A000DB630200DB630200DB630200DB630200F0
:1060B000DB630200DB630200000000000000000060
:1060C000DB630200DB630200DB630200DB630200D0
:1060D000DB630200DB630200DB6302000000000000
:1060E00000000000000000000000000000000000B0
:1060F00000000000000000000000000000000000A0
:10610000000000000000000000000000000000008F
:10611000000000000000000000000000000000007F
:10612000000000000000000000000000000000006F
:10613000000000000000000000000000000000005F
:10614000000000000000000000000000000000004F
:10615000000000000000000000000000000000003F
:10616000000000000000000000000000000000002F
:10617000000000000000000000000000000000001F
:10618000000000000000000000000000000000000F
:1061900000000000000000000000000000000000FF
:1061A00000000000000000000000000000000000EF
:1061B00000000000000000000000000000000000DF
:1061C00000000000000000000000000000000000CF
:1061D00000000000000000000000000000000000BF
:1061E00000000000000000000000000000000000AF
:1061F000000000000000000000000000000000009F
:10620000DFF80CD000F084F900480047318D02001F
:10621000C85E002030B450E8012F93B2C4892344F3
:106220008489A34228BF1B1B0489A34202BFBFF37A
:106230002F8F002007E0C3EA020340E80134002C5E
:10624000E9D14FF001000A6030BC704750E8012FDF
:10625000C2EA024240E801210029F7D1704730B478
:1062600050E8022F1FFAA2F3C488A34202BFBFF373
:106270002F8F00200DE0C48923448489A34228BFC6
:106280001B1BC2EA034340E80234002CE8D14FF064
:1062900001000A6030BC704750E8022FC2EA224277
:1062A00040E802210029F7D17047034653E8022F46
:1062B000D988B2EB324F4FF0000017BF92B241EADB
:1062C000014142EA014104E05A68B2EB324F08BF93
:1062D000012043E80212002AE8D1704730B4044696
:1062E00054E8000F0D4644E80053002BF8D1156028
:1062F00030BC704730B4044654E8000F40EA010552
:1063000044E80053002BF7D1156030BC704730B41F
:10631000044654E8000F00EA010544E80053002B4E
:10632000F7D1156030BC704730B4044654E8000F14
:1063300080EA010544E80053002BF7D1156030BC1A
:10634000704730B4044654E8000F00EB010544E800
:106350000053002BF7D1156030BC704730B40446B1
:1063600054E8000FA0EB010544E80053002BF7D1DF
:10637000156030BC704770B404464FF0000054E81C
:10638000006F0D68AE4207BF44E80023012044E8D7
:1063900000630E60002B1CBF0020F0E770BC70474C
:1063A00030B4044654E8000F88422CBF451A054615
:1063B00044E80053002BF5D1156030BC7047000055
:1063C0000648804706480047FEE7FEE7FEE7FEE78F
:1063D000FEE7FEE7FEE7FEE7FEE7FEE7FD660200FA
:1063E000016202002DE9F05F0546002092469B46BF
:1063F00088460646814640241BE0284641464746DB
:10640000224600F074F853465A46C01A914110D300
:1064100011461846224600F016F82D1A67EB0108BF
:106420004F4622460120002100F00DF817EB00092D
:106430004E41201EA4F10104DFDC484631462A46C5
:106440004346BDE8F09F202A04DB203A00FA02F11F
:10645000002070479140C2F1200320FA03F3194352
:1064600090407047004870476CD5020040EA010335
:106470009B0703D009E008C9121F08C0042AFAD2FA
:1064800003E011F8013B00F8013B521EF9D27047BE
:10649000D2B201E000F8012B491EFBD27047002266
:1064A000F6E710B513460A4604461946FFF7F0FF13
:1064B000204610BD421C10F8011B0029FBD1801A98
:1064C000704730B504460020034600E05B1C934251
:1064D00003D2E05CCD5C401BF8D030BD034611F820
:1064E000012B00F8012B002AF9D118467047202A09
:1064F00004DB203A21FA02F00021704721FA02F36E
:10650000D040C2F120029140084319467047000074
:10651000064C074D06E0E06840F0010394E80700F0
:1065200098471034AC42F6D3FFF76EFE50E00200FD
:1065300070E0020070B58C1810F8015B15F00703CD
:1065400001D110F8013B2A1106D110F8012B03E00C
:1065500010F8016B01F8016B5B1EF9D12B0705D414
:106560000023521E0DD401F8013BFAE710F8013B5D
:10657000CB1A921C03E013F8015B01F8015B521E79
:10658000F9D5A142D8D3002070BD00002DE9F84311
:106590000025DFF894804FF4807601242F46009583
:1065A000304603F0C1FB38B1D8F80403204203D0D1
:1065B000304603F0AFFB2543361D64007F1CB6B2A6
:1065C000082FEDD34FF4BE74204603F0ADFB48B165
:1065D000204603F09FFB45F000456A46012100205C
:1065E00003F068FB15F0FF0F16D0012600242E42A1
:1065F0000ED008EB8401D1F81005D1F81015C0F3C6
:1066000004200A4AC1F3014152F8242002B1904704
:106610007600641C082CEAD3002D02DA684605F0E7
:106620005DFBBDE8F8830000006000400C350020F1
:1066300070B54FF48076304603F018F9114CB5056B
:1066400060B1304603F019F90120C5F808036079FC
:1066500020B9012060712168002088474FF48276BC
:10666000304603F003F900280AD0304603F005F95C
:106670000220C5F808032168BDE8704001200847E2
:1066800070BD00005C30002002490248091F096803
:1066900000680847CC30002000F0A2B970B50E4663
:1066A000144900EB400001EBC0051446E86A1835B8
:1066B00020B101280FD0022805D113E0284600F0B0
:1066C000C3F9A04201D2002411E0224631462846F7
:1066D00000F0F2F90BE0284600F0B6F9A042F4D23F
:1066E0000446F2E73146284600F0B9F90446204650
:1066F00070BD0000403C002004F0AEB9F0B5A449E4
:10670000A4484FF080540B68D4F830210078D4F8B6
:106710003411551CC0F3031006D0944601270026FF
:10672000BCF1060F03D00AE003F0FF0CF6E7B4F863
:106730002453DFF864C2C5F30425CCF80050DDB261
:10674000062D06D1032804D1DFF854C2934DCCF8AE
:106750007450551C04D09446BCF1060F03D00AE0D7
:1067600003F0FF0CF8E7D4F84452DFF838C2C5F361
:106770004235CCF80050DDB2062D08D1032806D1F1
:10678000894DD5F800C02CF0807CC5F800C0551CA0
:1067900004D09446BCF1060F03D00BE003F0FF0CCD
:1067A000F8E74FF08045C5F80C61C5F810617D4DE4
:1067B0002D1F2E60DDB2062D08D1032806D1DFF88B
:1067C000E4C103250CF1640CCCF80050DDB2062DB9
:1067D00010D103280ED1DFF8D4C10525CCF8005024
:1067E000724D78352F60714D08352E600CF104061E
:1067F0003F253560551C04D016460D46062E03D0A5
:106800005BE0DEB20546F9E7ED1E012D55D9684D76
:106810002D68684E3560664D2D1D2D68361D35601E
:10682000634D08352D68361D3560614D0C352D687A
:10683000361D35605E4D10352D68361D35605C4D5A
:1068400014352D68361D3560594D18352D68594E53
:1068500020363560564D1C352D68361D3560544D3B
:1068600020352D68361D3560514D24352D68361D77
:1068700035604F4D28352D68361D35604C4D2C3513
:106880002D68361D35604A4D30352D68494E4036ED
:106890003560474D34352D68361D3560444D3835EB
:1068A0002D68361D3560424D3C352D68361D3560EE
:1068B0003F4D40352D68361D3560551C03D01646BA
:1068C000062E02D007E0DEB2FAE7D4F858523A4E6C
:1068D00005F04F053560551C03D01346062B02D03A
:1068E00008E0DBB2FAE735480368DB0702D06FF057
:1068F00001030360062A07D1C91E022904D93048C2
:10690000016841F48061016027487438016841F4EE
:1069100070010160BFF34F8FBFF36F8FD4E94C104C
:106920004FF01022062907D1C01E032804D9D2F83F
:1069300008021C491C310860D2F80002002803DB61
:10694000D2F8040200281FDA012004F039FD1521D5
:10695000C2F800121B480368002BFCD0C2F80412D6
:1069600001680029FCD0002004F02AFDBFF34F8FFE
:106970000D48F0380168144A01F4E06111430160E8
:10698000BFF34F8F00BFFDE7114910480860F0BD0D
:10699000E00F00F0E80F00F0403501400DF0ADBA17
:1069A00000C007403C050040FCED00E010560040F0
:1069B0000404001020C50040E40E00400004004024
:1069C0003C17004000E401400400FA050090D003A9
:1069D0004431002001480068004700006430002076
:1069E00010B5124C02202061606111A0A06104F179
:1069F0007800E0614FF4007020620020A0626062C5
:106A00000BA1A164E06204F51E71E1641021A06590
:106A1000C4E91410E06509A1E01DFFF75FFD08A1BE
:106A20002046FFF75BFD2020A07110BD403C0020F8
:106A30005465726D696E616C000000005254540020
:106A400053454747455200000269C1688A4203D84E
:106A50008068401A104400E0501A401E70472DE92B
:106A6000F047C4681746894606464FF0000830696B
:106A7000A04201D9051B02E0B168201A0D1AB068C6
:106A80006D1E001BA84200D80546BD4200D33D46FE
:106A900070682A4620444946FFF7E8FCB0687F1B2F
:106AA0002C44A844A944A04200D10024F460002F43
:106AB000DDD14046BDE8F0872DE9F0410446884627
:106AC000D4E90207C51BE168606816460844B54270
:106AD00006D94146FFF7CAFCB819E060BDE8F0816D
:106AE0002A464146FFF7C2FC761B08EB05013246F9
:106AF0006068FFF7BBFCE660F0E70000014A02496E
:106B000000F026B8C7870200DC30002002E008C889
:106B1000121F08C1002AFAD170477047002001E017
:106B200001C1121F002AFBD170470000012120285B
:106B300003DA81400548014003E0402802DA2038AA
:106B4000814009B10120704700207047FC06FFBD5D
:106B50002DE9F04116460F460446002503E039466C
:106B6000B047641C6D1C20780028F8D12846BDE889
:106B7000F08110B501220221002000F0C7FF08B10A
:106B8000072810D107220221012000F0BFFF08B121
:106B9000072808D100210A22084600F0B7FF08B1F3
:106BA000072800D1002010BD022000F0CBBE00005D
:106BB00070B50024064D06E06868012110F8340025
:106BC00004F062F8641C28788442F5D3002070BD7C
:106BD00070300020F8B516460C4605460A2A01D248
:106BE0000720F8BD04F04AF918B904F00DF900289F
:106BF000F7D1134F102113487D603C70BE60FFF742
:106C00004EFC0020C7E904000F4E0DE005EBC40068
:106C10003168009181788DF8011000780B4A69463F
:106C200004F082F80028DCD1641EE4B2EED2BDE8A4
:106C3000F84005480021064A001D00F087B8000012
:106C400070300020D835002058D202002D8A020072
:106C5000F981020072B603F055FB00BF03F034F96E
:106C60000028FBD111481249401AC408012000EB4A
:106C7000044010A103F098FA11480068C00700D042
:106C800000BE022000EB04400EA103F08DFABFF31A
:106C90004F8F0B48E43801680E4A01F4E06111435C
:106CA0000160BFF34F8F00BFFDE70000F8E0020076
:106CB00080E00200466174616C206572726F720040
:106CC000F0ED00E053797374656D2072657365743F
:106CD000000000000400FA050EB500210091CDE986
:106CE00001106A4644F20100FFF7B4FF0EBD10B573
:106CF0008268C368934203D001F052FD002010BDAA
:106D0000052010BD29B112B1531E134203D0092032
:106D100070470E2070470160838000218160C16050
:106D20000846704710B58268C3689A1A83889A42E9
:106D300003D801F03FFD002010BD042010BD00006D
:106D4000014801F0AABB0000903000203AB1006871
:106D50000129426100D00021016100207047072015
:106D60007047000038B51148082358224168009147
:106D70000F49006802F0ECF8002815D10D4A694669
:106D80000D4801F08FFB04000ED101210A4801F0EB
:106D900004FC0123094A1946074801F056FB06493D
:106DA000012008390870204638BD000060D202007A
:106DB000F835002089C4020090300020FFFF7F00DA
:106DC00070B50446007F0D4608B1002070BDA26179
:106DD00001F012FE401941F10001C4E902012069ED
:106DE00000B125612146BDE87040002005F08EBE4F
:106DF000014600200877012005F088BE70B50A4ED4
:106E000001460A48B578FFF772FF04464DB10020ED
:106E1000B070711C0122C81D02F0A6FD08B1FFF779
:106E20005BFF204670BD0000AC30002050360020D3
:106E3000F0B5244E89B01F460D00044672603FD065
:106E4000A888296882B22048FFF75CFF002835D166
:106E5000A889A96882B21C481030FFF753FF0028A8
:106E60002CD1202219496846FFF700FB6069069083
:106E7000207C00B101208DF814008DF81C70607C1E
:106E800000B10E208DF81500E0680290A068039014
:106E900020680190606800900A480D4A69460830F1
:106EA00002F02EFD002809D1B0702068401C05D0EA
:106EB00004490122491CC81D02F056FD09B0F0BD6D
:106EC0000720FBE7AC3000205036002074D20200CF
:106ED000D9CC020010B501461048FFF723FF04008B
:106EE00019D10F480F4A0178515C19B1001D04F007
:106EF00057FA02E00C3004F02DF960B90849074850
:106F00000839FFF7F4FE30B9054901220839044871
:106F100002F03AFD0446204610BD00006036002015
:106F2000B43000205030002030B5EFF3108172B63D
:106F30000D4A9468012324B10370002900D162B680
:106F400030BD93604FF0E023D3F88051074C2540CB
:106F50001560C3F88041D3F8844154605A17C3F8D0
:106F6000842100220270E8E770360020FC06FFBD95
:106F70000B498A68002A11D000280FD1EFF3108046
:106F800072B60B684FF0E022C2F800314B68C2F8CD
:106F9000043100228A60002800D162B670470000E8
:106FA000703600202DE9F041064608680C46411C69
:106FB0004FF0A0474FF0010506D005FA00F1C7F8E1
:106FC0000815206802F050FE6068411C02D00021C4
:106FD00002F038FE3168A069C1F82405607D227D89
:106FE00031681043C1F86C05D4E900123068C0F86C
:106FF0001425C0F80C15207D012815D1A068411C6E
:1070000002D0002102F01EFEE068411C05D0854040
:10701000C7F80855E06802F027FED4E9021230688C
:10702000C0F80825C0F81015BDE8F0812DE9F04141
:10703000064608680C46411C4FF0A0474FF001057A
:1070400006D005FA00F1C7F80815206802F016FE10
:107050006068411C02D0002102F0FDFD3168A0698A
:10706000C1F82405607D217D32680843C2F86C05B3
:10707000D4E900123068C0F80C15C0F81425207D42
:10708000012815D1A068411C02D0002102F0E3FDC7
:10709000E068411C05D08540C7F80855E06802F05B
:1070A000EDFDD4E902123068C0F80825C0F81015CB
:1070B000BDE8F08170B5E0B1DAB1002402E0045D12
:1070C0002C44A4B2651C8D4206D21688A642F6D87E
:1070D000061976789E42F2D18C420AD2A31C005D3A
:1070E0009BB200B1401E0004000C02D01C188C4260
:1070F00001D9002070BD138070BD2DE9F0418AB028
:1071000006460020ADF814001346102088468DF87E
:1071100004000D4606AA01A9184664DFA6B398BB71
:107120009DF80400022804D0042807D0102839D183
:107130000DE003208DF81000022003E005208DF8FB
:10714000100004208DF81100002404AF0FE0072088
:107150008DF810000620F5E73B5D05AA4146304654
:10716000FFF7A8FF641CE4B20546022C04D2BDF868
:1071700014000028F0D003E0BDF81400002812D05D
:1071800080B2064400240BE00CE030199DF8042086
:1071900006A9FFF796F948B19DF80400204484B28F
:1071A000AC42F2D300200AB0BDE8F0810120FAE73A
:1071B00070B540B10C4D297839B1044605F018F886
:1071C00028B1002070BD0E2070BD082070BDE86899
:1071D000062807D20549226801EB8001401C0A609D
:1071E000E860EEE7042070BD40300020E03400206D
:1071F00010B558B103684BB142683AB10449002058
:107200000124C8600C70C1E9013210BD0E2010BD10
:1072100040300020002827D0002925D0134A1278BA
:10722000002A21D00A460188112911D0302907D01F
:10723000322909D0332917D1011D104604F0C0BAF4
:10724000011D104604F038BC011D104604F0C4B8FE
:107250008088B2F8CA12884206D1002082F8C8029B
:107260004FF6FF70A2F8CA027047000040300020BD
:1072700048B1084A137843B1D26832B190F8C822B5
:107280002AB1112070470E2070470820704701F086
:1072900071B800004030002038B50288011D044656
:1072A0001F2A51D016DC102A28D0334B334D03202F
:1072B000EB1ADB0800EB0340112A37D0132A3DD02C
:1072C0001B2A51D1097902294ED1BDE838402CA1A1
:1072D00002F06ABF2849294B0420591AC90800EB5B
:1072E0000140212A34D03B2A3FD0562A3CD12CA140
:1072F00002F05AFFA088132176DF11E0A188002256
:107300002D4800F029F908B1FFF7E6FC072000F04E
:107310001FFC08B1FFF7E0FCA1882848FFF7A8FF91
:10732000002821D0BDE83840FFF7D6BC0B790A8889
:1073300001B023A1BDE8304002F041BF0023A08886
:107340001A4685217FDFEBE731F8040B75DFE7E7AD
:1073500027A102F029FF00200090A08869468FDF56
:10736000002801D0FFF7B8FC38BD26A102F01CFFB1
:10737000A088132176DFD3E780E00200F8E0020066
:10738000436F6E6E656374696F6E205265717565CB
:1073900073742074696D6564206F75742E0000002D
:1073A00047415454205365727665722054696D6567
:1073B0006F75742E000000007C3200202C2A002003
:1073C000446973636F6E6E65637465642E20636FCA
:1073D0006E6E5F68616E646C653A20307825782C3B
:1073E00020726561736F6E3A203078257800000056
:1073F00050485920757064617465207265717565B7
:1074000073742E004741545420436C69656E742098
:1074100054696D656F75742E0000000010B51A4C2C
:107420000188606810290ED011292BD1401E6060A0
:1074300028D1FFF79EFB002824D02168002921D005
:10744000BDE810400847D0B900210122084600F0ED
:107450005DFB08B107280FD107220221012000F0AF
:1074600055FB08B1072807D104220221002000F0B3
:107470004DFB20B1072802D0216801B18847606820
:10748000401C606010BD00003830002070B506461A
:107490001A481B4A0D46801AC0080978032202EBDD
:1074A000004459B1012922D0022926D1204615A134
:1074B00002F07AFEBDE8704005F03CB9204615A107
:1074C00002F072FE698805F10E02304600F044F8C1
:1074D00008B1FFF701FC304600F066F908B1FFF78C
:1074E000FBFB2046BDE870400FA102F05DBEA989FC
:1074F000A868BDE8704000F08DB970BDF8E00200EA
:1075000080E00200446973636F6E6E656374656446
:107510002E000000446973636F7665727920636F93
:107520006D706C6574652E00436F6E6E6563746577
:107530006420746F20646576696365207769746878
:10754000204E6F7264696320554152542053657216
:10755000766963652E00000050B141802AB15388DE
:10756000C3801388838092880281406901F03EBE07
:107570000E20704730B5144B0D4604000FCB85B07C
:107580008DE80F001ED0EDB1A868D8B1214668463D
:1075900062DF002814D120788DF812000120ADF8A8
:1075A00010004FF6FF7060802868E0606868206116
:1075B0000020A0802081A868606104A8FFF7F8FD82
:1075C00005B030BD0E20FBE73CD2020030B50246CC
:1075D00085B008002DD0002A2BD041884FF6FF74CB
:1075E000A14226D09388994223D11588112D22D00B
:1075F000392D1ED1818800291BD053898B4218D187
:10760000C168002915D001218DF8001002F1100188
:107610000291D189ADF80C10C268694690470C48B8
:107620000C49401AC008042101EB00400AA102F0F5
:10763000BBFD05B030BD8B42FBD1C1680029F8D03D
:1076400002218DF800104480C26869469047F0E737
:10765000A0E0020080E00200436C69656E74207354
:10766000656E64696E6720646174612E00000000BD
:1076700030B585B00C46054614216846FEF70FFF6D
:10768000207804F10E01002830D1A08801282DD1E6
:10769000A0792A78904229D1002217E002EBC2009B
:1076A00031F81030022B02D0032B0ED105E001EB94
:1076B00040000089ADF8120007E001EB40000389AB
:1076C000ADF80E304089ADF81000521C207A90427F
:1076D000E4D8E868002809D06088ADF802000020EE
:1076E0008DF80000EA6869462846904705B030BD2D
:1076F00070B588B015460E46040012D020216846A9
:10770000FEF7CDFE19481A49401AC008022101EBC4
:107710000040F42D07D917A102F046FD072008B05C
:1077200070BD0E20FBE76288A2F57F43FF3B18D0B7
:10773000154ACDE9022401208DF800002289ADF818
:1077400012208DF81010ADF816500022ADF814205C
:1077500006968DF8110062886946606901F0A2FD05
:10776000DDE70AA102F020FD0820D8E7A0E0020032
:1077700080E00200436F6E74656E7420746F6F203A
:107780006C6F6E672E000000D5870200436F6E6E2F
:10779000656374696F6E2068616E646C6520696EE4
:1077A00076616C69642E000010B58AB058B34188C8
:1077B000A1F57F42FF3A28D0C18831B30446202189
:1077C0006846FEF76CFE01218DF8201000208DF830
:1077D00021000F4ACDE902248DF80010E288ADF8AF
:1077E00012200222ADF81620ADF814008DF810100A
:1077F00008A88DF81110069062886946606901F04A
:1078000051FD0AB010BD0E20FBE70820F9E700008B
:10781000D58702002DE9F0410F46064619481A495E
:10782000401AC408042000EB0440054617A102F0EA
:10783000BBFC28463A46314602F062FC0025012096
:1078400000EB04480FE0705DFFF744FB040009D033
:10785000112CF8D040462A4610A102F0A9FC20467F
:10786000FFF73AFA6D1CBD42EDD3F01910F8010C88
:107870000D2804D10A20FFF72DFB1128FAD0BDE80E
:10788000F0810000F8E0020080E0020052656365CC
:107890006976696E6720646174612E006170705F43
:1078A000756172745F707574206661696C656420BF
:1078B000666F7220696E6465782030782530347880
:1078C0002E0000000149085C7047000060D10200F2
:1078D0000649095C4FF0A040D0F81005C84010F0F0
:1078E000010000D0012080F00100704760D102004B
:1078F0002DE9FC410646C0074FF000050ED0104FA1
:1079000000240122385D009500231146019502F004
:1079100051F9641C042CF4D300F046F8B0070DD5DF
:10792000074E0024361D0022305D032300951146CA
:10793000019502F03FF9641C042CF4D3BDE8FC81EE
:107940005CD1020007490B5C4FF0A041D1F804253F
:107950000120984020EA0203C1F808351040C1F820
:107960000C0570475CD102000249085C012102F05D
:10797000C6B900005CD102000249085C002102F097
:10798000BEB900005CD102000649095C4FF0A0407E
:10799000D0F80405C84010F0010000D0012080F0AC
:1079A000010070475CD1020010B500242046FFF7AB
:1079B000DBFF641C042CF9D310BD10B50024204655
:1079C000FFF7DAFF641C042CF9D310BD10B5024692
:1079D000064B4FF0FF3000215C5C944201D1084619
:1079E00010BD491C0429F7D310BD000060D102006E
:1079F00070B50C4E0C004FF0000530600BD001202C
:107A000000F06AF808B1022004E0002000F064F8F9
:107A100000B10B202070706810B9FFF7AAF8054676
:107A2000284670BD3830002010B5002000F0CAF99B
:107A300008B1062806D1012000F0C4F908B10628D3
:107A400000D1002010BD00002DE9F0470D46814611
:107A5000FFF7BCFF0446042836D2DFF874801B48C9
:107A60001C4EA8F10C0725B3012D0ED0022D2BD1F1
:107A700004EB440030444578002D25D0B968002936
:107A800022D02846BDE8F047084704EB4401755C66
:107A90000E44717849B10E4A4FF48041093A80682A
:107AA000FFF78EF908B987F80390B17808F8041049
:107AB000E2E78068FFF79CF904EB4401314418F8D1
:107AC00004008D78A842D7D0BDE8F08764D10200C9
:107AD00034300020B0340020042801D2FFF7F8BE73
:107AE00000207047042804D00A280CD1002002F09E
:107AF0001DBD05481321408876DF082803D00028E3
:107B000001D0FFF7E9B870477C32002070B5002340
:107B1000042810D20D4D00EB4004012A02D10129A6
:107B20000CD00022094E00EB4000304461B1012925
:107B300006D0022906D00723184670BD0E30C2B207
:107B40002A55F9E74270F7E78270F5E7B034002074
:107B5000044A014600201279D20702D0084600F0FC
:107B60004DB870472830002070B506461E480024E6
:107B7000C0E90161B00720D5002501221146284641
:107B8000FFF7C4FF6D1C0446042D02D2002CF4D074
:107B900013E094B940F2333204211448FFF71AF885
:107BA00004000AD1FFF704F8040006D10F48104A78
:107BB0000021001FFFF7CAF80446F00712D0012089
:107BC000FFF796FE74B909480A4A00210C38FFF7FE
:107BD000BDF8040006D10548074A01210838FFF71F
:107BE000B5F80446204670BD2830002070D1020050
:107BF000D17E0200618C0200A96B02002DE9F05FCA
:107C00006E4C054600266078B34618B184F801B082
:107C100001F00EF86A4F4FF47A694FF4C87A4FF0CA
:107C20000108182D69D2DFE805F00C13133847540A
:107C3000696E727B727BC58484848484B3B6B9BC5C
:107C4000C5C500F0F5FF3868FFF7D2F806465CE0DE
:107C50000020FFF799FE00284FF0000008D0FFF742
:107C600083FE022D02D14FF4E16008E0484606E0B1
:107C7000FFF782FE022D01D1C82000E05046410CE2
:107C8000C0034FF47A72801841F100012570520050
:107C90000023FEF7A7FB01462AE00020FFF774FE51
:107CA00000284FF0000004D0FFF75EFE4FF448704C
:107CB000E5E7FFF761FEDFE70020FFF765FE00283C
:107CC0004FF0000002D0FFF74FFECFE7FFF754FE62
:107CD000D4E70020FFF758FE00284FF0000002D044
:107CE000FFF742FE01E0FFF747FE257040F6CD4169
:107CF00000223868FFF764F8064646E00020FFF7E8
:107D000021FE257008E0002051E025703DE084F858
:107D100001800120FFF716FE002240F26661E8E7CD
:107D200084F801800120FFF70DFE00224FF400517E
:107D3000DFE77868FFF75CF80646D5F1110000D060
:107D40002EB10220FFF710FE84F802B01DE00128DA
:107D500016D980B2C8214843C117C90341EA50412E
:107D6000C0034FF47A72801841F1000152000023E1
:107D7000FEF738FB014600227868FFF721F8064637
:107D80000220FFF7F9FD84F802803046BDE8F09F3D
:107D900000F04EFFB9E700F04BFFB4E700F048FFFA
:107DA00004E000F045FF0020FFF7E6FD0120FFF7AB
:107DB000E3FDAAE7FFF701FEA7E700002830002057
:107DC00064D10200012105F093B900002DE9F84FBC
:107DD0000546861C00208DF8000091460F464FF0A6
:107DE000010A6846FFF7A0F81B4C04F21C486068C3
:107DF0003860D4E90101194F401A3968081A0EE0B9
:107E00000121404601F0E9F800F040FF01464046FC
:107E100001F0E3F8D4E90101401A3968081A401C5E
:107E20008642EDD8B9F1000F03D0052065F3891023
:107E300002E0062065F39F5061683A68114004EB48
:107E40008101C8606068304460609DF80000FFF701
:107E50008FF85046BDE8F88F20380020EC30002025
:107E600070B50D4604460A2902D10D21FFF7F8FF2F
:107E7000A0682268411CA1601554D4E90101814227
:107E800004D32046BDE8704001F09BBD70BD0000EA
:107E9000044881684068814201D101207047002078
:107EA0007047000020380020034630B50748002105
:107EB0000478426806E000BF02EBC10005789D42ED
:107EC00003D0491CA142F7DB002030BD70300020F8
:107ED00000780221FFF7B8BD05494FF0FF320828AE
:107EE00041F8202002D3084480F848207047000061
:107EF0000C350020F0B54FF0FF3512B100230826F5
:107F000001E008230C260C4C05E000BF54F8237058
:107F10007F1C04D05B1CB342F8D32846F0BD261862
:107F20005DB286F8305044F82310002AF5D1E118EC
:107F300081F84800F1E700000C35002002490844B0
:107F400090F93000704700000C35002030B589B042
:107F50000D46044620216846FEF7A1FA94F8C602B1
:107F6000002300EB8001C1EB801094F8C51204EBF4
:107F7000400041B1491EC9B201EBC10100EB410112
:107F8000498A491C00E0C188008961F30F0360F34E
:107F90001F4303208DF800000548CDE90204054881
:107FA00004932A466946806801F07CF909B030BD27
:107FB000258302004030002070B5084C050009D030
:107FC00010342168002907D00868206049682846D5
:107FD0008847F6E70834F4E770BD0000F834002065
:107FE000054A012120B1012805D19170FFF7E4BFB6
:107FF00051700020FAE77047F834002010B5D0E93E
:108000000234D1E90220D11AA04101D3012010BDD0
:10801000002010BD10B502460020138806E0546809
:1080200034F810408C4203D0401C80B28342F6D812
:1080300010BD0000F0B50C4606461E481E4987B02C
:10804000401AC708042000EB0740334622461BA114
:1080500002F0B5F8002004900590ADF810400190B2
:108060000290ADF8124001AA04A9304690DF050045
:108070001DD002F095FD0346012000EB07400446A9
:1080800032461A4902F09BF8BDF8042012B9BDF837
:10809000060028B1BDF80630204615A102F08FF881
:1080A000BDF808201AB12046214902F081F807B036
:1080B0002846F0BD88E0020080E00200557064614F
:1080C00074696E672064617461206C656E677468A2
:1080D00020746F202575206F6E20636F6E6E656350
:1080E00074696F6E20307825782E000044D7020026
:1080F00054686520726571756573746564205458A1
:108100002F5258207061636B6574206C656E6774C4
:108110006820697320746F6F206C6F6E67206279BE
:108120002025752F2575206F63746574732E0000EC
:1081300090D7020001460148FFF79ABA7C3200202E
:108140002DE9F04389B00F46054691462021684647
:10815000FEF7A5F995F8C60295F8C54200EB800137
:10816000C1EB801005EB400604EBC40006EB4001B8
:108170003279601C0A31904232D108AB0022284685
:1081800000F024FD78B310E0401EA04201D1002091
:1081900004E004EBC40006EB40001C3080460246BD
:1081A00008AB284600F012FD90B100203870042082
:1081B0008DF8000008984A46CDE903500C4802901B
:1081C0000C486946806801F06DF809B0BDE8F0839D
:1081D00095F8C5024146401C641C85F8C502E4B20E
:1081E0003079A042D0D8012038700020EDE700009F
:1081F000258302004030002070B500240F4D10E0B0
:10820000686800EBC406307802F0F4FD717801294B
:1082100001D0012100E000214140307800F046FA11
:10822000641C28788442EBDBD5E90401084303D0C1
:10823000BDE8704004F086BC70BD000070300020C6
:1082400030B59FB00C4605467C216846FEF727F9FD
:10825000ADF8024003208DF8000004480195416804
:10826000002901D0684688471FB030BD403000204B
:108270002DE9F041044690F8C602884600EB8001E3
:10828000C1EB801004EB40061746304603F0B0FF08
:10829000050042D0D4F8CC0206283ED204EBC01030
:1082A0007622A0F8D272D4F8CC02314604EBC0108A
:1082B00000F53570FEF7DAF80026B8F1000F06D0A9
:1082C000D4F8CC0204EBC01080F8D06206E0D4F8F9
:1082D000CC12022004EBC11181F8D002D4F8CC02F8
:1082E00004EBC010C0F84C53D4F8CC020C4D401C29
:1082F000C4F8CC02E96888420FD12746002407E081
:1083000007EBC41101F53470D1F84C138847641C95
:10831000E8688442F4D3C7F8CC62BDE8F08100007D
:1083200040300020F0B515469FB0002281F8C822E9
:10833000074691F8C6020C4600EB8002C2EB8010A3
:1083400001EB400003F054FF060009D07C220849ED
:108350006846FEF78BF8ADF8025068460197B047C3
:108360001FB029462046BDE8F040FFF769BF000076
:1083700090D10200F0B50D4689B004464FF4BA61C1
:10838000FEF78DF820216846FEF789F81B4E294636
:10839000B06800F02BFF00282DD1A4F8CA52C4F811
:1083A000CC0284F8C70284F8C60284F8C5021448D7
:1083B00015492B460068206012482288401AC008E0
:1083C000042101EB0040114901F0F9FE02200127D0
:1083D0008DF80000ADF810702068CDF812000C4840
:1083E000CDE902042A466946B06800F05BFF002828
:1083F00001D184F8C87209B0F0BD000040300020FF
:10840000E034002080E0020080E00200B4D60200E8
:108410002583020010B50021024800F0E9FD80F339
:10842000100010BD3C3C00204FF480328A400168AF
:10843000C1F848230068C0F8082370474FF4A072C1
:1084400002EB810189B200F0A1B92DE9F0410546A6
:108450000E464FF4A07000EB860081B228684FF4FE
:108460008034B440984622F07F47C0F8084328681B
:10847000C0F84843286802F044F9286800EB8600F9
:10848000C0F840752868C0F84443B8F1000F02D026
:108490002868C0F80443BDE8F0810068D0F80405FE
:1084A0007047000070B54379234C44F8232042798B
:1084B000231D03EBC202224C1579204A121BD4085B
:1084C0002DB10825022000EB04401EA130E0056814
:1084D0000A88C5F8082590F904208978002A4FEA0F
:1084E000411104DB02F1E02282F8001405E002F001
:1084F0000F0202F1E02282F8141D90F9041001220B
:10850000002909DB01F01F0502FA05F54909890078
:1085100001F1E021C1F800514179002503EBC101CF
:108520000A71417943F83100032000EB04400EA1A9
:1085300001F03AFE284670BDC8300020E0E002009D
:1085400080E0020052544320696E7374616E63656B
:1085500020616C726561647920696E697469616C0F
:10856000697A65642E0000005254433A20696E69AE
:108570007469616C697A65642E00000090F90400EA
:10858000002809DB00F01F02012191404009800012
:1085900000F1E020C0F8001270470A46022100F006
:1085A0007BB84FF4827100F0F1B8006801210160DE
:1085B000704700680121416070472DE9F05F074670
:1085C0000C464FF4A07000EB84001FFA80FA386864
:1085D0004FF48036A6409B4622F07F45C0F84863A2
:1085E0003868C0F808633868D0F8048500EB840266
:1085F000D2F84095C2F840855146386802F081F8BB
:10860000A9EB080020F07F40012806D1102002F0DD
:1086100033FB5146386802F074F83868D0F80485A6
:10862000C0F84463A5EB080121F07F4138680129B7
:1086300000EB840010D0C0F840553868D0F804151D
:108640006FF07F4C6A1A521E22F07F42ACEB0B0394
:10865000934217D362B118E06D1CC0F8405510204A
:1086600002F00AFB3868D0F8040540450AD10CE056
:1086700000EB84006D1CC0F840553868D0F8040544
:10868000884202D00D20BDE8F09F012231463846D5
:1086900000F002F80020F6E70368C3F84413002A4C
:1086A00002D00068C0F80413704700002DE9F84FAD
:1086B0000E463449804601EB5001C007097801D0CD
:1086C0000F0901E001F00F074FF0000942460120B9
:1086D0004946FDF7B8FEDFF8B0A004460D46052F69
:1086E0004ED2DFE807F003161B282C00002E47D0DF
:1086F0000121404604F040F98DF800906846FEF7ED
:1087000013FC5046D0E904120C431543CAE9044552
:1087100032E00EB1022114E0002112E04EB103213B
:10872000404604F029F94046BDE8F84F012104F025
:10873000CFBC012105E0002E22D1042101E02EB1A1
:1087400003214046BDE8F84F04F016B90021404629
:1087500004F012F90021404604F0BAFC8DF80090B4
:108760006846FEF7E1FB5046E243D0E904341A4084
:1087700024EA0501CAE904219DF80000FEF7F8FB90
:10878000BDE8F88FD83500207030002010B50068A3
:1087900042581AB101F0B5FF012010BD002010BDF4
:1087A000826883881A4003689A5C0A708168491C51
:1087B00081607047C26883881A4003689954C16811
:1087C000491CC160704710B50446C0B2FEF782FB79
:1087D000204610BD70B505460C4609480949401AA7
:1087E000C008042101EB004007A101F0E1FC216970
:1087F000002903D02846BDE87040084770BD00003E
:10880000A0E0020080E00200412047415454204390
:108810006C69656E74206572726F72206861732076
:108820006F63637572726564206F6E20636F6E6E26
:108830005F68616E646C653A20305825580000000E
:1088400070B508880D46A0F52061773916D10C481F
:108850000C49401AC108032000EB01440AA120463C
:1088600001F0A2FCA88810A1C01E82B20D481346D8
:1088700002802046BDE8704001F0A1BC70BD000040
:10888000F8E0020080E00200415454204D5455208D
:1088900065786368616E676520636F6D706C657481
:1088A00065642E00282A0020426C65204E55532016
:1088B0006D61782064617461206C656E67746820F6
:1088C00073657420746F203078255828256429003A
:1088D00010B50949094800F002FC08B1FEF7FCF99F
:1088E000F721064800F0EFFB002803D0BDE8104058
:1088F000FEF7F2B910BD000041880200943200205A
:1089000070B50C4601F11005C98A102901D909205A
:1089100070BD01F066FD606088B1EA880023A96837
:1089200001F0C5FD074808496268401AC0080421E3
:1089300001EB004005A101F03BFC002070BD0420CC
:1089400070BD000090E0020080E00200506F696E90
:1089500074657220746F20616C6C6F636174656400
:10896000206D656D6F727920626C6F636B3A2025A4
:10897000702E000070B50C4601F110058969098858
:10898000102901D9092070BD891C01F02AFD606001
:10899000C0B100230222A96801F089FDA868E96836
:1089A00002230288606801F082FD07480749626877
:1089B000401AC008042101EB004005A101F0F8FBBA
:1089C000002070BD042070BD90E0020080E0020035
:1089D000506F696E74657220746F20616C6C6F6388
:1089E00061746564206D656D6F727920626C6F6370
:1089F0006B3A2025702E000010B50B48FFF74DFD97
:108A0000094A083AD2E90434C018D2E9063244F1DE
:108A10000001C31A71EB020204D24FF08072801879
:108A200041F1000110BD00009030002010B5C0B22F
:108A3000FFF73AFA0446007802F0DCF90146607864
:108A4000012801D0012000E0002090EA010F08D0A9
:108A50000449D1E90401084303D1BDE8104004F002
:108A600071B810BD703000202DE9FC5F0E00834608
:108A7000DDE90C47C6F1000098469246814600D4D5
:108A80000846012503E000BF90FBFAF06D1C50453D
:108A9000FADAA84500D9454624B1002E01DB780753
:108AA00000D5641EB80702D5B8F1000F0AD0F80748
:108AB00008D13CB1A54205D220215846641EFFF7DB
:108AC000CFF9F6E7002E02DA4E462D2102E07807B4
:108AD00003D52B215846FFF7C3F907F003000228FE
:108AE0000BD1B8F1000F08D13CB1A54205D230211D
:108AF0005846641EFFF7B4F9F6E7CDE90047434650
:108B000052463146584604F089FABDE8FC9F000001
:108B100070B50D46044600684FF4887102F060F8A5
:108B20004FF49071206802F05BF84FF49271206866
:108B300002F056F84FF4A271206802F051F84FF499
:108B4000AC71206802F04CF820681249C0F8041398
:108B50002068690740F30730090E002804DB00F1A4
:108B6000E02080F8001405E000F00F0000F1E020A4
:108B700080F8141D206840F30730002809DB00F05E
:108B80001F02012191404009800000F1E020C0F85F
:108B9000001170BD10034200024600201268530706
:108BA00013D502F00300012802D002280CD105E001
:108BB000C2F383100B68801C184404E00223086889
:108BC00003EB9252104408600120704710B50989E8
:108BD0002AB1D088491C814218D1002010BD90F8DC
:108BE000C62202EB8204C4EB821200EB420212891D
:108BF0009142F2D0491C198090F8C61201EB810213
:108C0000C2EB811100EB4100008902E01980D0889D
:108C1000401E5880012010BD007DC0F3C100012816
:108C200003D0032801D000207047012070470000C6
:108C30000A4810B5807860B1002401E0022C06D00B
:108C40002046FEF791FE641C042CF7D310BD0324CC
:108C5000F6E7BDE81040FEF7A7BE00002830002070
:108C600003480179C90702D00078FEF7C7BF7047F3
:108C700028300020F7210180172141800021017157
:108C80004171FB2181711B21C17170472DE9FF41A9
:108C90000026244800F09EF92248001F074600F0F5
:108CA00099F9214C2149A06800900D6800E00098D6
:108CB0006946284004EB80000C30FFF76DFF002868
:108CC000F5D101AA009901EA050304EB8303491CCD
:108CD000DB6842F82030401C00910228F2D3019852
:108CE00000F0030001280BD0022810D101980321C5
:108CF00001EB90500099BDF80A6001EB900005E08F
:108D00000198BDF80A60C0F383100844009038460B
:108D100000F05DF908B10098A06004B03046BDE8ED
:108D2000F0810000383C002020380020EC3000208A
:108D30008AB04FF48041002001F0B8FA08B1FDF785
:108D4000CBFF01F0B3F8FEF70DF808B1FDF7C4FF53
:108D5000182237496846FDF789FB364835490690A1
:108D600020202031CDE9070109900723324A06A9C6
:108D70006846FEF75DF808B1FDF7AEFF2F49012008
:108D8000FEF7F2FE08B1FDF7A7FF69460020FEF7E7
:108D90002FFE08B1FDF7A0FF2A4C2948CDE90004B9
:108DA00000256846FEF724FA08B1FDF795FF01F0AB
:108DB00087FB08B1FDF790FF01F014FE08B1FDF745
:108DC0008BFF69460120009501F0ACFC08B1FDF76E
:108DD00083FF684601F03EFD08B1FDF77DFFFFF718
:108DE00077FD194800901948CDE9010411486946FA
:108DF0004030FEF7BFFB08B1FDF76EFF03F06EFCDD
:108E000013A0FDF77BFE1B481B49401AC008032135
:108E100001EB004019A101F0C7F903F08BFC00BF82
:108E200001F052F80028FBD101F05EFBF8E70000EA
:108E300044D102003C320020B1CB0200E57A0200AE
:108E400035810200FC2F00208D740200BDB30200AA
:108E5000424C4520554152542063656E7472616CDA
:108E6000206578616D706C652073746172746564DF
:108E70002E0D0A00F8E0020080E00200424C45207E
:108E8000554152542063656E7472616C206578613F
:108E90006D706C6520737461727465642E000000DF
:108EA0002DE9F047C5881E1DB6FBF5F78946B6FBD0
:108EB000F5F1044605FB176C407916686843DDF848
:108EC00020A0F718001F874200D9C61A166001E0DB
:108ED0002468491E0029FBD1A5EB0C078846B74240
:108EE00016D818E004EB0C00001D09EB0803BAF1DA
:108EF000000F3A4602D00146184600E01946FDF739
:108F0000B5FA2468F61B4FF0000CB844B54201D9FD
:108F1000374600E02F46002EE4D1BDE8F087000080
:108F200030B5024651B101F0D5F90021074C08E0F7
:108F300034F821301568AB4202D11160002030BDF9
:108F4000491C8142F4D3052030BD00000000000020
:108F500010B531B1B2FBF3F403FB14241CB10920AA
:108F600010BD0E2010BD0160002141608160828132
:108F7000C381084610BD70B50C460546FDF74AF999
:108F8000002802D021882868084470BD10B50A88DE
:108F900049888A4203D1FDF77FF9012010BD0020E6
:108FA00010BD70B50C460546FDF759F9002802D0F2
:108FB00061882868084470BD10B50A8849888A42CB
:108FC00003D1FDF743F9012010BD002010BD0021A1
:108FD00000F009B8012100F010B808B56A46FDF7A5
:108FE000B0F9009808BD08B56A46FDF790F908BDCC
:108FF00008B56A46FDF772F908BD08B56A46FDF77F
:1090000079F9009808BD08B56A46FDF7A7F90098F8
:1090100008BD38B5044600258DF800506846FDF7B8
:1090200083FF21686268086890420ED9401E08607C
:109030000178238AE26801FB0325227A2168101A4D
:10904000C0B20A79824200D208719DF80000FDF793
:109050008FFF284638BD38B5054600208DF8000042
:109060000C466846FDF760FFE868298A201AB0FBC5
:10907000F1F12A681068431C136001709DF800002C
:10908000FDF776FF38BD10B530B1017A426803684C
:10909000891AC9B21A6006E00E2010BD03681A686A
:1090A000541C1C601170491EC9B2F7D2006800211F
:1090B0000171084610BDC20800F007030120895C59
:1090C00098400840704728B1A1F11702E12A03D364
:1090D000072070470E20704741800020704710B570
:1090E00060B10161F72120F8021B20F8021BFB216F
:1090F00000F8021BFFF7BEFD002010BD0E2010BDC2
:1091000070B585880C46002D4FD1018824291FD0C9
:1091100006DC102909D011290CD0232921D11CE00B
:109120003A290BD055291CD10DE00146204602F00A
:10913000FBF916E0A01DFFF79DFD12E00146204659
:1091400002F064FC0DE00146204602F0B9FB08E0A5
:109150000146204602F06CFA03E00146204602F088
:10916000F1FAA07A002820D0E1882846A5DF0F492F
:109170000F4A0126891ACD0858B1112815D001F0DF
:109180000FFD024606EB0540BDE8704009A101F065
:109190000FB80023A372E6720420E28800EB0540BA
:1091A000BDE87040104901F00AB870BD88E00200C7
:1091B00080E0020073645F626C655F676174746372
:1091C0005F65786368616E67655F6D74755F726512
:1091D000717565737428292072657475726E656483
:1091E0002025732E00000000FCD602002DE9F0417E
:1091F000884604004FF0000519D002F08DFF41466B
:109200002046FEF707FF218881422AD119481A49D2
:109210000427401AC00807EB0040424617A100F09F
:10922000C7FF002005464FF6FF76218809E00E2093
:10923000BDE8F081626832F81020B24206D1401CCD
:1092400080B28142F6D8206901F018F90020228806
:109250000BE0636833F81030B34204D1626822F83F
:1092600010802846E4E7401C80B28242F1D838469C
:10927000DEE7000090E0020080E0020052656769CE
:1092800073746572696E6720636F6E6E656374696F
:109290006F6E2068616E646C653A203078253034DA
:1092A000580000002DE9F0470C4605462D482E4990
:1092B0009246401AC108042000EB01404FF000081C
:1092C00006462AA100F070FF002D48D0002C46D0A1
:1092D000284602F021FF51462846FEF79BFE2178E2
:1092E000062902D22988814202D10720BDE8F087F1
:1092F000A96800EB800701EB870001F07CF930B131
:109300005146204602F0DEFF08B14046EEE72178E4
:10931000DFF87C9059F821202AB12869F8B121465C
:1093200090470028E2D1A868214600EB870001F0B1
:1093300081F95FEA00080BD0217859F8210038B193
:10934000606801F07EF8304612A1626800F030FFDC
:10935000A868514600EB870002F098FDD5E70E2083
:10936000C4E7000090E0020080E00200416464690C
:109370006E67206974656D20746F20746865207253
:109380006571756573742071756575650000000001
:1093900024D20200506F696E74657220746F20666B
:1093A00072656564206D656D6F727920626C6F63A4
:1093B0006B3A2025702E0000F8B505000C4620D031
:1093C000002C1ED02888112806D0A0F130011F29BA
:1093D00002D950381F2814D8AE8820463146FEF7EF
:1093E00019FEADF80000218881420AD02988112990
:1093F00008D0A16800EB800001EB8000314602F04C
:1094000045FDF8BD62684FF6FF7122F810106946FD
:10941000E06801F00FF9F8BD2DE9F041044600F1D4
:10942000140600F10A07857C007A86B001F1020873
:10943000002825D08BDF14216846FDF730F82B4635
:109440003A46314640468CDF05460F480F49401AE0
:10945000C108042000EB01460DA1304600F0A4FE37
:1094600005208DF8000030462A460CA1019500F039
:109470009FFE002D04D0616A002901D0684688470C
:1094800006B0BDE8F081000098E0020080E0020034
:10949000436F6E6E656374696E670000436F6E6E36
:1094A000656374696F6E207374617475733A2025F7
:1094B000640000004FF4C871018206214181182127
:1094C00081810021C1817047017DA022C28250228A
:1094D000028321F018010022428341F0040101754A
:1094E00001214175704700002DE9F04128B122B1FA
:1094F000032904D00720BDE8F0810E20FBE70346D6
:1095000010F8045F04260DB13046F4E70021B2F8EC
:1095100000700C4633F821C0BC4501D12046EAE773
:10952000491C11F0FF01F5D003EB85016D1C05709E
:1095300010680860054806491288401AC00806EB02
:10954000004004A100F034FEE8E7000098E00200CB
:1095500080E0020041646465642066696C74657231
:10956000206F6E20555549442025780018B1002100
:109570004171084670470E20704710B50B46040035
:1095800002D0980702D009E00E2010BD580705D47C
:10959000D80603D4180701D4072010BD2046FFF7D2
:1095A000E5FF580701D501206071A271002010BDB0
:1095B00070B50D46040010D0002626606660626219
:1095C000EDB128792072287BA074296839B10E2268
:1095D00004F11400FCF74AFF04E00E2070BD2046A1
:1095E000FFF772FFA86830B10168C4F80A1040683C
:1095F000C4F80E0009E02046FFF75CFF05E0FFF726
:1096000063FF2046FFF756FF267204F12800A0648E
:109610001F20A4F84C00002070BD2DE9F04F044637
:1096200089B0002088460746069014216846FCF75A
:1096300036FF04F1140004902046FFF7EDFA010014
:1096400004F14800059011D002208DF80000CDF8FB
:109650000480616A68468847002005998ADF414690
:109660002046FFF7D9FE09B0BDE8F08FA0790021B0
:1096700007916179834621B301210691824694F8CE
:1096800004900026B8F81C003546089012E004EB60
:109690008502D8F818000899FDF72FFD28B1761C2F
:1096A000F6B2BAF1000F0DD002E0BAF1000F06D108
:1096B0006D1CEDB24D45EAD3BAF1000F02D04E4514
:1096C00001D009E046B19DF8080040F004008DF893
:1096D000080001207F1C0790CDF80480BBF1000F2B
:1096E00002D00698874203D0079830EA0B0007D0D3
:1096F00000208DF8000041462046FFF78DFE02E075
:1097000003208DF80000616A09B16846884700208F
:1097100005998ADFA7E70000F0B50A46014601F186
:1097200008030C1D098885B0104602F114051029A4
:1097300027D01B2907D01D2936D105B01946BDE811
:10974000F040FFF76ABF064614216846241DFCF767
:10975000A6FE2078012827D1144815490427401A6D
:10976000C00807EB004013A100F01EFD706A00283E
:109770001AD08DF80070049520788DF80400716A75
:1097800010E0064614216846FCF789FE06208DF895
:109790000000201D01902088ADF808000495716A32
:1097A000002901D06846884705B0F0BD98E0020066
:1097B00080E00200424C455F4741505F5343414EB9
:1097C0005F54494D454F55540000000030B585B0F9
:1097D000040025D014216846FCF761FE8BDF20468B
:1097E000FFF71AFA012528B1616A19B18DF8005006
:1097F0006846884704F1480104F114008ADF0446F2
:109800000C480D49401AC108082C0BD054B105EB87
:109810000140224609A100F0CBFC204605B030BD36
:109820000E20FBE7042000EB01400DA100F0BCFC82
:109830000020F3E798E0020080E0020073645F62BA
:109840006C655F6761705F7363616E5F7374617293
:10985000742072657475726E6564203078257800A6
:109860005363616E6E696E670000000000F1804016
:109870000068002800D00120704708B500F1804042
:10988000002101600068009008BD000070B50D4C1B
:109890000125207808B185260EE00020A0606060D8
:1098A0002061E060084801F0BFF9064601F0E6F8E3
:1098B00008B901F0A3F9257001F098F900B1A5707D
:1098C000304670BDF8340020E17F020038B5002535
:1098D0008DF800506846FDF727FB084CE068401EF5
:1098E000E060E06828B901F081F910B901F0ACF945
:1098F000A5709DF80000FDF73BFB38BDF834002053
:10990000F0B505460478154889B0164640F824207D
:10991000124A0869121DA2F1080742F82400487F84
:10992000385520226846FCF7A1FD04942878385C5D
:1099300048B10EB10A4A00E000226946281D01F034
:1099400021FC09B0F0BD0EB1064A00E000226946D4
:1099500005F10C0001F0CAFAF3E7000054300020D2
:10996000D9CE02007DCD020030B40378054CE35C13
:109970001BB130BC001D01F03BBC30BC0C3001F011
:109980001FBB00005030002030B40378054CE35C6E
:109990001BB130BC001D01F0ADBC30BC0C3001F07F
:1099A00085BB0000503000200FB408B50399002992
:1099B00004D004AA00926A4600F00FF801B05DF8E6
:1099C00014FB10B582680446002A05D0D4E90403CC
:1099D000216898470020A06010BD2DE9FC47914602
:1099E0000C00804676D014F8011B39B125290ED021
:1099F0004046FEF735FA20780028F4D198F80C009C
:109A0000002867D04046BDE8FC47FFF7DABF0020DA
:109A1000012221782B291BD02D2902D0302908D1F1
:109A200002E040F0010001E040F00200641C002A66
:109A3000EFD100252A290ED02178A1F130020A2A7F
:109A400011D205EB850201EB4205641C303DF1E7C4
:109A500040F00400EAE7D9F800100B1DC9F8003007
:109A60000968641C0D44217800232E290BD114F8B9
:109A7000011FA1F130020A2A05D203EB830201EB98
:109A80004203303BF3E76C290DD068290BD06929DC
:109A900021D00BDC252918D0582931D063290ED0CC
:109AA000642915D117E014F8011FECE7702969D07B
:109AB000732932D075291BD0782909D120E0D9F833
:109AC0000000011DC9F8001001784046FEF7C8F9F2
:109AD000641C90E76CE0D9F800100A1DC9F800205A
:109AE0000968CDE900500A224046FEF7BDFFEFE7C6
:109AF000D9F800100A1DC9F8002009680A2206E0FA
:109B0000D9F800100A1DC9F8002009681022CDE913
:109B10000050404603F082FADAE7D9F80010002737
:109B20000A1DC9F800200E68C00705D112E04046A2
:109B3000761C7F1CFEF794F931780029F7D104E0F8
:109B4000202140466D1EFEF78BF9BD42C0D9002D85
:109B5000F6D1BDE74EB13046FCF7ACFC074604E059
:109B6000202140466D1EFEF77BF9BD4206D9002D2F
:109B7000F6D103E04046761CFEF772F931780029F1
:109B8000F8D1A5E7D9F80000011DC9F80010056853
:109B900030214046FEF764F978214046FEF760F92F
:109BA00008200021CDE90001034610222946B0E734
:109BB000BDE8FC8770B541EA4201DDE904564FF08B
:109BC000A04441EA830141EA052104EB800041EA17
:109BD0000641C0F8001770BD70B541EA4201DDE9E9
:109BE00004564FF0A04441EA830141EA052104EB09
:109BF000800041EA0641C0F8001770BD70B541EA27
:109C00004201DDE904564FF0A04441EA830141EAF4
:109C1000052104EB800041EA0641C0F8001770BD41
:109C200070B541EA4201DDE904564FF0A04441EA33
:109C3000830141EA052104EB800041EA0641C0F8B6
:109C4000001770BD1CB500220B4600921146019210
:109C5000FFF7D4FF1CBD1CB500220B460092114635
:109C60000192FFF7DDFF1CBD1CB5002100910B46E2
:109C7000012201911146FFF7C1FF1CBD1CB5002157
:109C800000910B46012201911146FFF7C9FF1CBD4F
:109C90004FF0A04202EB8000D0F8002722F44032BF
:109CA000C0F80027D0F8002742EA0141C0F80017A9
:109CB0007047000038B5094B44181B6800936B4689
:109CC00008E000BF53F82010D1F8205520C2C1F899
:109CD0002055401C8442F5D838BD00004CD202000B
:109CE00042094FF0000100D1491E00F01F0001227F
:109CF00082400A4201D001207047002070470122B3
:109D00004FF0A043824011B1C3F808257047C3F853
:109D10000C257047034908B508440021016000681C
:109D2000009008BD0060004002494058012800D062
:109D3000002070470060004030B5154A0146002001
:109D4000D2F8104423460AE0DB681D79854205D12C
:109D5000401C0A28F6DB4FF0FF3030BD1B68002B9B
:109D6000F2D1431CF9D0CB681871D2F8103443B14A
:109D7000DB68CC681B682360D2F81024D2681160BD
:109D800030BDC2F81014C96800220A6030BD00005E
:109D9000203800207047FCF77FBC704708B5034AA5
:109DA00000924023024A00F005F808BD11C80200E5
:109DB00088360020F0B595B01C4615460F4608467B
:109DC0001A9E00F057FB182109A8FCF768FB0E96B5
:109DD000CDE909540023082203A9384600F05FFBAF
:109DE00005980690BDF81000ADF81C00BDF81200F3
:109DF000ADF81E0000208DF821000398082600F021
:109E00000300012802D0022818D032E0039833461C
:109E1000850AC0F3C2008DF8200003980FA9C0F393
:109E20008314A200384600F03AFB09A8009006AB64
:109E300022460FA9284600F079FA1AE00398840D0B
:109E4000C0F3C2008DF82000082C01D2254600E0A6
:109E5000082533462A460FA9384600F020FB2E4439
:109E6000641B09AB06AA29460FA800F0C7F9002C0D
:109E7000EAD1384600F004FB15B0F0BD0A4A0129CA
:109E800002EBC00007D0022907D0032907D004291C
:109E900007D00020704702207047042070470079E7
:109EA000704740797047000080E0020010B5FFF76E
:109EB00072FF04210348FFF73FFF02490120C968F0
:109EC000487110BD70E002002DE9F04F8DB0FDF734
:109ED000DFFF18B100200DB0BDE8F08F7E4C4FF0D1
:109EE000000BC4F818B4BFF34F8F7C49A0680290F0
:109EF0000D68D846284004EB80000BE0D4F8180425
:109F000070B961680298814201D8A160E2E72840F7
:109F100004EB80000C3002A9FEF73EFE0028EDD1D4
:109F2000002005AA029901EA050304EB8303491CFA
:109F3000DB6842F82030401C02910228F2D30598D9
:109F400000F00300022802D001284DD0AAE00598B5
:109F50005022810D8946B2EB905F00D850210E4609
:109F600066F39F50059008315D4800F03AFA07000B
:109F700078D000F07FFA4346082205A9384600F061
:109F800096FA029908F1080A2940681A8000001D13
:109F9000864222D9504D0C3530B1C2B204EB81015A
:109FA000301A90460C3104E02946F2B20025904662
:109FB0002846C6B25346384600F079FA0AEB080341
:109FC00025B132462946384600F071FA029909F166
:109FD000030001EB900002903BE004EB810153464B
:109FE000324638460C31EFE70598C0F38310062857
:109FF00000D30620059960F38911C1F38310801CFA
:10A0000005918100364800F0ECF907004AD000F0D5
:10A0100031FA4346082205A9384600F048FA08F10B
:10A02000080800260FE00298434600EA0501401C9C
:10A0300004EB81010290042238460C3100F037FA1B
:10A0400008F10408761C0598C0F38310B042EAD8E2
:10A0500047B1D4F81054D4F8180478B1384600F059
:10A060000FFA34E01EE0E8684079012804D12A683C
:10A070002846394612689047E8680568002DF2D1F5
:10A08000384600F0FDF98DF800B06846FCF74CFF4B
:10A09000D4F8180408B90298A0609DF80000FCF7F5
:10A0A00067FF14E0D4F8104405E021682046896871
:10A0B0008847E0680468002CF7D10A480A49401A2A
:10A0C000C008022101EB004008A100F06DF8FDF787
:10A0D000DFFE80F00100FEE620380020EC3000209A
:10A0E0002CE10200F8E0020080E002004261636BB4
:10A0F000656E647320666C757368656400000000AB
:10A100002DE9F84F8146264FD01C15468A46800817
:10A11000002269463E68FDF759FEDFF88880B0B33B
:10A12000009CA01C009039683040091A8F003F1D28
:10A13000BD4208EB800002D82A46514608E03A4664
:10A1400051460C30FCF792F91648EA1B0AEB07015E
:10A150000C30FCF78BF94FEA1947FEF75BF947EA39
:10A160000042601C304008EB8000344008EB840162
:10A17000C260C8684FF6C07269F3C500904365F3CA
:10A180009F5020F00300801C20F00400C86098F865
:10A19000000001E0FFF798FE0028FBD1BDE8F88F32
:10A1A000EC3000202038002000231A4602F0FCBBCF
:10A1B00008B5012300926A4602F0F6FB08BD1CB503
:10A1C000CDE9002302236A4602F0EEFB1CBD3EB53A
:10A1D000069C8DE81C0003236A4602F0E5FB3EBDA9
:10A1E000F0B587B00DF1300C9CE8F0008DE8FC0074
:10A1F00006236A4602F0D8FB07B0F0BD2DE9F04710
:10A200000E4680461C469246082940D894F80C9089
:10A21000002020731946104601F0E0FD0025B542EC
:10A2200006D218F805201BA12046FFF7BDFB03E06E
:10A230001AA12046FFF7B8FB6D1C082DEFD318A11B
:10A240002046FFF7B1FB0025B54212D218F8057081
:10A250007E2F08D8FCF706F90068C05D10F03E0FAD
:10A2600001D03A4600E02E220EA12046FFF79CFBCB
:10A2700003E00DA12046FFF797FB6D1C082DE3D3EB
:10A2800001222146504601F08BFD84F80C90BDE878
:10A29000F0870000202530327800000020202000C8
:10A2A0007C0000002563000020000000064910B576
:10A2B00000200870054800F0E1F8002803D10448A8
:10A2C00000F011FA002010BD203800202CE102001F
:10A2D00038D4020002480349401AC0087047000001
:10A2E00018E1020080E0020013B56846FEF718FE90
:10A2F00008B100201CBD0248009950F831001CBD77
:10A3000080E0020070B508480125D0F810440570BF
:10A3100007E0E06845712168204649688847E068A1
:10A320000468002CF5D170BD203800202DE9FF47CE
:10A3300081460C9D00200C462F7B287398461646BC
:10A340002946184601F04AFD072E42D2DFE806F002
:10A3500004090F161F2A360049462846FFF724FB3A
:10A3600037E0494628462268FFF71EFB31E0D4E972
:10A37000002349462846FFF717FB2AE0A068009013
:10A38000D4E9002349462846FFF70EFB21E0D4E933
:10A390000201CDE90001D4E9002349462846FFF730
:10A3A00003FB16E004F1080007C88DE80700D4E9B4
:10A3B000002349462846FFF7F7FA0AE004F10800AF
:10A3C0000FC88DE80F00D4E9002349462846FFF75F
:10A3D000EBFA00222946404601F0E2FC2F73BDE86B
:10A3E000FF872DE9F041058A80462D1F4819C01CC2
:10A3F000B0FBF5F0C6B24046FEF70BFE041E19D0C6
:10A400000020207101206071E58000272546761E1E
:10A41000C4F800800BE04046FEF7FBFD60B16179B7
:10A42000491C6171286005467F1CC0F80080B74256
:10A43000F1D32046BDE8F081204600F002F800206C
:10A44000F8E72DE9F041457901466B1E002201E055
:10A450000968521C9A42FBD30F680146002605E0AA
:10A4600038460C68FEF7F7FD2146761CAE42F7D35E
:10A47000BDE8F0810121001DFEF7AFBDFEF703BE70
:10A4800010B504460121001DFEF7BDFD10F0FF0FC1
:10A4900004D12046BDE81040FFF7D3BF10BD1CB566
:10A4A00001920122009201AAFEF7FAFC1CBD1CB524
:10A4B00001920022009201AAFEF7F2FC1CBD0000EE
:10A4C000064910B500204870091D0860BFF35F8F72
:10A4D0000349044800F0F6FA002010BDD4300020F3
:10A4E000D0D202007C36002008B500208DF8000094
:10A4F0006846FCF719FDF1EE100A20F09F00E1EE2E
:10A50000100ABFF35F8F08494020C1F880029DF810
:10A510000000FCF72DFD00F0B1FA08B141DF08BDE5
:10A5200020BF40BF20BF08BD04E000E070B5044676
:10A530000C480121FEF75CFDBFF35F8F002500286A
:10A5400009D10120074E042C08D0311F4A781AB1D6
:10A55000BFF35F8F356070BD0C70487002F090F9EA
:10A56000F6E70000D83000202DE9F8430446002724
:10A5700090460E468DF800706846FCF7D5FC2046E4
:10A5800000F039F838B105279DF80000FCF7F0FC21
:10A590003846BDE8F88320680568B8F1000F05D19A
:10A5A0000168204600F03FF821680860E268012A4F
:10A5B0000CD0022A0ED0042A11D06068082A13D0C9
:10A5C00005FB02013046FBF751FFDDE76068405DA7
:10A5D0003070D9E7606830F815003080D4E76068E3
:10A5E00050F825003060CFE700EBC501D1E900014C
:10A5F000C6E90001C8E7016808684968884201D1D6
:10A60000012070470020704701680A684968806827
:10A61000884201D9491C00E00021914201D101206A
:10A620007047002070478068884201D9481C7047F5
:10A63000002070472DE9F84304464FF000080E460D
:10A640008DF800806846FCF76FFC2046FFF7DCFFC2
:10A6500007000AD0207C40B14FF004089DF80000AC
:10A66000FCF786FC4046BDE8F883206845684168F1
:10A670002046FFF7D8FF2168486037B1206801689D
:10A680002046FFF7D0FF21680860E268012A14D055
:10A69000022A16D0042A19D0082A1CD06068314634
:10A6A00005FB0200FBF7E2FE204601F029FD2168D0
:10A6B0008A688242D2D28860D0E761683078485593
:10A6C000F2E76168308821F81500EDE761683068CD
:10A6D00041F82500E8E7D6E90001626802EBC5020F
:10A6E000C2E90001E0E7826800219160826811619F
:10A6F000826851618268D1608268516080680160BF
:10A70000704708B5002242504058009008BD000034
:10A7100020B1034909680160002070470E2070478E
:10A72000BCD402002DE9FE4307460E460846FFF75B
:10A73000EFFF00287CD100250095019506208DF8BB
:10A7400000704FF00108ADF8040002958DF802800A
:10A7500069462020326869DF3649374A891AC908B4
:10A76000012202EB014430B100F01AFA0246204601
:10A770003249FFF71DFD00958DF801508DF80280DC
:10A78000019502958DF8038069464020326869DFA3
:10A7900030B100F005FA024620462949FFF708FDCE
:10A7A00000958DF80070F720ADF802000195029534
:10A7B00069462320326869DF30B100F0F1F90246C2
:10A7C00020462049FFF7F4FC0095019502958DF88D
:10A7D000008069460120326869DF30B100F0E0F99D
:10A7E000024620461849FFF7E3FC4FF4B0600090A2
:10A7F000019502956946A120326869DF30B100F009
:10A80000CFF9024620461149FFF7D2FC0095019589
:10A8100002958DF800506946A020326869DF30B19A
:10A8200000F0BEF9024620460949FFF7C1FC0020AE
:10A83000BDE8FE8308E1020080E00200A4DE020021
:10A84000ECDE020038DF020004DE020050DE02000F
:10A85000B0DD02002DE9F0410546076860DF804663
:10A8600019491A482A68081AC608BA4219D9022092
:10A8700000EB064416A12046FFF796FC20463A4618
:10A880001FA12B68FFF79BFC4FF08050D0F80C0104
:10A890002968800200F10050421A204625A1FFF7E6
:10A8A00087FCB8F100004FF001040AD000F078F9FD
:10A8B000024604EB06402AA1FFF77AFC4046BDE8B9
:10A8C000F0812F480470F9E708E1020080E00200FF
:10A8D000496E73756666696369656E742052414D91
:10A8E00020616C6C6F636174656420666F722074A4
:10A8F000686520536F66744465766963652E000051
:10A900004368616E6765207468652052414D20730D
:10A9100074617274206C6F636174696F6E2066720B
:10A920006F6D203078257820746F20307825782E50
:10A93000000000004D6178696D756D2052414D2019
:10A9400073697A6520666F72206170706C696361EB
:10A9500074696F6E20697320307825782E000000AE
:10A9600073645F626C655F656E61626C6528292047
:10A9700072657475726E65642025732E0000000088
:10A980004331002030B51548ADF5017D0078002831
:10A9900021D04FF4FA7500BFADF8005280A9684687
:10A9A00061DF38B1052816D00DF5017DBDE83040D6
:10A9B000FCF792B96C460A497DA800F083F806E0DE
:10A9C000D0E90021204690477DA800F092F87F98BA
:10A9D0000028E1D0F4E70DF5017D30BD43310020C2
:10A9E000C0D402007CB5194C207808B108207CBD89
:10A9F0000120A070002001F0DDFE112819D00020F8
:10AA000001F0F0FE12480026006801908DF8006009
:10AA10006846FCF789FA0F4901A810DF05000AD043
:10AA2000002020709DF80000FCF7A2FA2DB1284606
:10AA30007CBD00207CBD0120F3E7A670667001F0AC
:10AA400069FF012001F0CEFEF3E700004031002055
:10AA500054D40200556C02000EB50749684600F058
:10AA600031F805E0D0E900108847684600F041F869
:10AA700002980028F6D10EBD70D40200014800787B
:10AA800070470000403100201FB568464BDF30B1F1
:10AA9000052814D004B0BDE81040FCF71DB90849E2
:10AAA00001A800F00FF806E0D0E9002100989047D7
:10AAB00001A800F01EF803980028E6D0F4E71FBDB7
:10AAC000DCD40200016009684160AFF3008010B57A
:10AAD000D0E900215368994201D1002104E0D1E975
:10AAE0000034A34202D01946816010BD0831416094
:10AAF000F0E7816800290BD0026892680A448260FE
:10AB000041684B689A4203D108314160FFF7DFBFCB
:10AB1000704770B50D460646446804E0B2682946A1
:10AB2000904718B1246820680028F7D12068286071
:10AB3000256070BD4068006870474168086800285B
:10AB400001D002680A60704702460020526806E0A1
:10AB50008B4203D108681060012070471A461368C1
:10AB6000002BF5D1704700000C4A10B502F5947324
:10AB70000EE0991AC91001EBD171491002EBC10125
:10AB80000C68844201D90B4602E005D201F10802AB
:10AB90009A42EED3002010BD486810BDF0D20200EA
:10ABA00000B5FFF7E1FF002800D1014800BD00001B
:10ABB000DCD202004058002800D00120704708B5C0
:10ABC000002242504058009008BDD0F804030840CD
:10ABD00000D0012070474058002800D00120704765
:10ABE00008B5002242504058009008BD0248006855
:10ABF000002800D001207047000401400848006888
:10AC0000012110F0010F06D14FF0E020C02280F8A2
:10AC100000248430C16703490120086070470000A8
:10AC200000E100E0180500400649024600200B79CB
:10AC30000BB1852070470A6001220A7100224A7117
:10AC4000704700005C300020022010B54107C1F8B9
:10AC500008034FF48270FEF710FE054901200860DA
:10AC600004480168C1F300410029FAD110BD000079
:10AC70000C00004018040040002802D00149800167
:10AC800008477047A1D202002DE9F0410E46054663
:10AC900001F00CF80028284619D0FDF74FF90838C4
:10ACA00001F076F8032802D001280ED007E04FF01B
:10ACB000A040D0F81005E84010F0010F05D00321A6
:10ACC0002846BDE8F041FEF7E3BF0221F8E700F0B7
:10ACD000F9FF002822D02846FDF730F904464FF44A
:10ACE000807000EB84000E4F81B207EB8400D0F837
:10ACF000102542F00102C0F810250846FFF70AF8B7
:10AD0000002E0BD02846FDF719F9064951F820000E
:10AD1000002803D00120A040C7F80403BDE8F0815B
:10AD2000006000400C3500202DE9FC41DFF8B880C0
:10AD3000044608EB0400002790F930001346C017C2
:10AD40000E46401C01D008274AE0B0781946C0F3EF
:10AD500040022046FDF7CEF80546401C3FD0B078B3
:10AD6000410717D4C0070AD04FF0A04000EB840081
:10AD7000D0F8001721F00201C0F8001707E0002109
:10AD80007378204600910A460191FEF725FF204680
:10AD900000F07EFFB078800718D51448317800EBBA
:10ADA0008500D0F81025124B1A40C0F810254FF43A
:10ADB000F8524FF4403302EA042203EA01410A4305
:10ADC000D0F810150A43C0F8102509E008EB05007B
:10ADD000327810F8481F41EA8211017000E0042720
:10ADE0003846BDE8FC8100000C35002000600040C2
:10ADF000FFE0FCFF4FF0A041D1F81015C14011F069
:10AE0000010000D00120704770B5194D95F8580029
:10AE100008B1082070BD0024661E2046FEF760FFC2
:10AE200010B1281980F83060641CE4B2202CF4D3EF
:10AE300000242046FDF750F8641CE4B20C2CF8D333
:10AE400000200D4968650B4CC02081F800040126E4
:10AE50004020891FC1F800014FF4BE70FEF75AFF71
:10AE6000A004C4F8040385F85860002070BD0000F9
:10AE70000C3500200060004006E000E0034890F838
:10AE80005800002800D00120704700000C35002039
:10AE90000121B1EB507F01D10120704700207047A4
:10AEA00038B50D4600F0E6FF040014D000208DF800
:10AEB00000006846FCF738F8207928B19DF80000BA
:10AEC000FCF756F8112038BD0120256020719DF84F
:10AED0000000FCF74DF8002038BD00000149024891
:10AEE00001F064BF68350020002000402DE9F041EA
:10AEF0000546007916460F4600EB40012D4A01EB4E
:10AF0000C00102EB810494F82A1011B10820BDE8B9
:10AF1000F081294951F820102868FFF7C1FF08B1D6
:10AF20001120F4E739462846FCF73CF8666038699A
:10AF3000206030004FF001062FD03F7F4FF48E711C
:10AF40002868FFF73CFE4FF4A2712868FFF737FE30
:10AF500028681A49C0F8041328684FEA471140F3DB
:10AF60000730002804DB00F1E02080F8001405E041
:10AF700000F00F0000F1E02080F8141D286840F375
:10AF80000730002809DB00F01F0106FA01F1400933
:10AF9000800000F1E020C0F8001128680421C0F80A
:10AFA00000150020A061E06184F8290044F8140F26
:10AFB000A675ACE76835002050D202008000020080
:10AFC0002DE9F05F054600794FF4017600EB400370
:10AFD00003EBC000344B03EB80040020636813B123
:10AFE0002B68C3F80863A3694FF000096BB1E069EF
:10AFF00038B1606810B12868C0F804631120BDE85A
:10B00000F09FE2610120216105E0C4F82490A26173
:10B01000E160C4F81C9094F82910014302D128463D
:10B0200001F0FBFA60680028286803D0C0F80463C8
:10B030000020E4E74FF4A2763146FFF7C0FDB246A8
:10B040004FF4927B59462868FFF7B4FD06464FF44B
:10B0500084712868FFF7AEFD804651462868FFF7E7
:10B06000A9FD074648EA07003043EBD056EA07003F
:10B0700007D12146286801F0A1FAA169606A8142DE
:10B08000E0D8C4F818900EB10320B8E70FB10F2034
:10B09000B5E794F8291001200029296801D008603B
:10B0A000C6E74860C4E70000683500202DE9F05F7E
:10B0B000054600790B4600EB400101EBC000244936
:10B0C00001EB8004284600F045F810B11120BDE8DE
:10B0D000F09F62614FF00009C4F82090A36084F8EB
:10B0E00028904FF48E784E4641462868FFF767FD5A
:10B0F00028684FF0010AC0F808A02146286801F02E
:10B100002DFD606808BBD5F800B067690FE000BF8F
:10B1100094F8280008B10F2615E041465846FFF77D
:10B1200049FD0028F4D02146584601F017FD206A59
:10B13000B842F2D3574641462868FFF73BFD002846
:10B14000F9D02868C760C4F814903046BFE7000003
:10B1500068350020007900EB400101EBC000044994
:10B1600001EB80004069002800D0012070470000FA
:10B17000683500200149024801F0C6BE9435002020
:10B18000002000402DE9F0410546164600790F46A3
:10B19000154A00EBC00102EB810494F8201011B1B4
:10B1A0000820BDE8F081114951F820102868FFF708
:10B1B00077FE08B11120F4E739462846FBF736FF41
:10B1C0006660386920601EB1397F2846FDF7A0FC13
:10B1D00028680821C0F800150020A061E0616061C6
:10B1E000012184F82010DCE79435002054D20200BD
:10B1F0002DE9F05F044600790E4600EBC001DFF850
:10B20000F0A017460AEB81053046FFF741FEB0B1CA
:10B2100068684FF000084FF4047910B12168C1F854
:10B220000893A8694FF0000B80B1E86948B16868DD
:10B2300010B12068C0F804931120BDE8F09F1020E1
:10B24000FBE7EF614FF001082E6102E0EE60C5E917
:10B25000067B00254FF488712068FFF7C1FC4FF48E
:10B26000A2712068FFF7BCFC2068C0F83465C0F804
:10B2700038752068B8F1000F12D0D0F8001241F0F4
:10B280002001C0F800122079D04600EBC0010AEB83
:10B290008100406838B12068C0F804932846CCE7A4
:10B2A00001210160EFE74FF4887A4FF4A27951460B
:10B2B0002068FFF790FC074649462068FFF78BFCA3
:10B2C00006464FF492712068FFF785FC014647EA75
:10B2D00006000843EBD0227902EBC20308EB83029D
:10B2E000C2F818B001B10325002ED7D00F25D5E73D
:10B2F000943500202DE9F04704460E460079274991
:10B3000000EBC00001EB800517463046FFF7C0FD9B
:10B3100030B1204600F044F820B11120BDE8F0879C
:10B320001020FBE76F61AE604FF490774FF000089C
:10B3300039462068FFF754FC4FF4AC76314620685C
:10B34000FFF74EFC2068AA686969C0F84425C0F878
:10B35000481520684FF00109C0F808906868D0B916
:10B36000BA4651462068FFF736FC0746314620684A
:10B37000FFF731FC0743F4D010B14FF00F0808E09D
:10B380002068C0F80C9031462068FFF724FC0028A4
:10B39000F9D0002068614046C0E7000094350020E5
:10B3A0000079054900EBC00001EB800040690028EE
:10B3B00000D001207047000094350020FBF78CBCC2
:10B3C00003490860034801680029FCD07047000069
:10B3D00004E5014000E401402DE9F84F05460C4624
:10B3E0000888B5F8CA1288427BD195F8C6026288EF
:10B3F00000EB8001C1EB801005EB40064549464853
:10B400004FF0000B081A4FEAD009EABB3079E28806
:10B41000A71D8246D1B250FA82F2062A02D8084409
:10B4200030710DE006203071022101EB09403288B5
:10B4300080463A49FEF7BCFE40463949FEF7B4FE65
:10B4400050460022D8461BE000EBC00102EB82030D
:10B4500007EB430306EB4101D3F802C0C1F80AC071
:10B46000D3F806C0C1F80EC05B894B82A1F81480E6
:10B47000A1F81680A1F81880401CA1F81A80521C6F
:10B4800031798142E0D800E01FE095F8C61200EB68
:10B49000C00001EB8102C2EB811105EB410136F8DE
:10B4A00010000989884210D2307906280DD085F81D
:10B4B000C50221882846FCF749FD002811D02288C2
:10B4C0002946BDE8F84FFCF72DBF85F8C5B22288A4
:10B4D00069462846FCF734FE28B122882946FCF745
:10B4E00021FFBDE8F88F9DF800000028F9D0042165
:10B4F00001EB0940238832880A49FEF760FE228862
:10B5000001212846FCF7B4FE2188284600F060FBA4
:10B51000E7E7000080E0020080E0020070D5020052
:10B52000B8D502005CD602002DE9F0418D88027981
:10B5300000EBC5042273C97BA41D012902D0022996
:10B5400004D101E0008800E04088208022886088E3
:10B5500082421BD9164817492B46401A4FEAD00899
:10B56000042101EB0840064613A1FEF728FE2188BE
:10B570002846A5DF012790B1112812D0FFF710FB54
:10B58000024607EB08401CA1FEF712FEA179E07904
:10B5900081420BD92846BDE8F041FCF74BBD6771ED
:10B5A000F4E7277130462A462049EDE7BDE8F081EF
:10B5B00088E0020080E0020052657175657374696D
:10B5C0006E6720746F2075706461746520415454F7
:10B5D000204D545520746F20257520627974657351
:10B5E000206F6E20636F6E6E656374696F6E2030BE
:10B5F0007825782E0000000073645F626C655F67D9
:10B60000617474635F65786368616E67655F6D74AC
:10B61000755F72657175657374282920726574751C
:10B62000726E65642025732E00000000E8D70200CA
:10B63000F0B58DB006462C226846091DFAF716FFB4
:10B64000BDF804001F49C2B21D48BDF80050401AA1
:10B65000C108042006EBC50700EB01447A732B46B2
:10B6600019A12046FEF7ABFDBDF80620204622A119
:10B67000FEF79EFDBDF80420204624A1FEF798FDAC
:10B68000BDF80A20204626A1FEF792FDBDF808204D
:10B69000204627A1FEF78CFD306900280DD02849EF
:10B6A000D1E90401CDE90B01ADF82E50787B8DF87E
:10B6B000300032690BA9304690470DB0F0BD000054
:10B6C00088E0020080E0020044617461206C656ED5
:10B6D000677468207570646174656420746F2025D8
:10B6E00075206F6E20636F6E6E656374696F6E2078
:10B6F00030782530782E00006D61785F72785F6F4A
:10B7000063746574733A2025750000006D61785F7D
:10B7100074785F6F63746574733A20257500000058
:10B720006D61785F72785F74696D653A2025750088
:10B730006D61785F74785F74696D653A2025750076
:10B740000CD2020070B58A880C1D00EBC2060D7A7F
:10B7500009480A492B46401AC008042101EB004061
:10B7600007A1FEF72CFD317BA94200D32946208892
:10B77000BDE87040FCF75EBC88E0020080E002009B
:10B7800050656572206F6E20636F6E6E65637469BD
:10B790006F6E2030782578207265717565737465D9
:10B7A0006420612064617461206C656E6774682038
:10B7B0006F662025752062797465732E0000000085
:10B7C000F8B505460C460888B5F8CA12884255D126
:10B7D00095F8C602A21D00EB8001C1EB801005EBBD
:10B7E000400695F8C50200EBC00006EB40016088FA
:10B7F0000A3138B329E000BF00EB400302EB4303FA
:10B800009F88B7F5245F0CD06FF4245C17EB0C070E
:10B810000AD0012F02D0072F0BD108E05B884B81A3
:10B8200007E05B888B8104E05B88CB8101E05B886B
:10B830000B824B892BB18B891BB1CB890BB10B8A46
:10B840001BB9401C13888342D6D800208DF8000015
:10B8500095F8C5023179401C884203D101208DF84A
:10B86000000010E085F8C502228869462846FCF7EA
:10B8700067FC20B122882946FCF754FDF8BD9DF8ED
:10B8800000000028FAD00B480B492388401AC00852
:10B89000042101EB004032880849FEF790FC228821
:10B8A00001212846FCF7E4FC2188284600F090F9A5
:10B8B000F8BD000080E0020080E002005CD60200DB
:10B8C0002DE9FC478E880746CD8800EBC604214849
:10B8D00021492B46401A4FEAD009042101EB0940C7
:10B8E000804632461DA1A41DFEF769FC172D00D22B
:10B8F00017252088A84200D80546658000202071C1
:10B90000009623886288404623A1FEF760FC2188C8
:10B910003046B5DF40B1FFF743F90246012101EBA4
:10B9200009402DA1FEF744FC6079002810D1386948
:10B9300000280DD03449D1E90201CDE90001ADF86C
:10B9400002606088ADF804003A696946384690475D
:10B95000BDE8FC8788E0020080E002005065657267
:10B96000206F6E20636F6E6E656374696F6E20303A
:10B970007825782072657175657374656420616ED1
:10B9800020415454204D5455206F66202575206267
:10B99000797465732E0000005570646174696E6778
:10B9A00020415454204D545520746F202575206239
:10B9B000797465732028646573697265643A20251B
:10B9C0007529206F6E20636F6E6E656374696F6E8C
:10B9D00020307825782E000073645F626C655F67A5
:10B9E000617474735F65786368616E67655F6D74B9
:10B9F000755F7265706C7928292072657475726E36
:10BA000065642025732E00000CD202007CB58D8861
:10BA1000064600EBC5044A8934F8060F904200D868
:10BA200002466280172A00D217221148114962800B
:10BA3000401AC008042101EB00402B460EA1FEF77E
:10BA4000BEFB306978B1607968B11A49D1E900016B
:10BA5000CDE90001ADF802506088ADF8040032690C
:10BA60006946304690470020607120717CBD00001F
:10BA700088E0020080E00200415454204D545520DB
:10BA80007570646174656420746F20257520627917
:10BA9000746573206F6E20636F6E6E656374696F7B
:10BAA0006E20307825782028726573706F6E73650C
:10BAB000292E00000CD202002DE9F041054690F835
:10BAC000C6020C4600EB8001C1EB801005EB40067E
:10BAD0002088B5F8CA12884243D12349234A04205A
:10BAE000511A6388CF08328800EB07406BB120A160
:10BAF000FEF75EFB228800212846FCF7B9FB21886F
:10BB00002846BDE8F04100F063B821A1FEF750FBE4
:10BB1000E168C6F80610E28895F8C412D0B251FA6E
:10BB200082F2062A03D8084485F8C4020DE00620F4
:10BB300085F8C402022000EB07461CA13046FEF740
:10BB400033FB30462149FEF72FFB21882846FCF7BE
:10BB5000FDF9002805D022882946BDE8F041FCF710
:10BB6000E1BBBDE8F081000080E0020080E002005F
:10BB700053657276696365205555494420307825B0
:10BB800078206E6F7420666F756E642E0000000062
:10BB9000466F756E642073657276696365205555CE
:10BBA000494420307825782E000000004E6F742024
:10BBB000656E6F75676820737061636520666F726C
:10BBC0002073657276696365732E000014D60200D7
:10BBD000F0B589B00F46044620216846FAF75FFCAD
:10BBE00094F8C702244E401CC1B284F8C712F26810
:10BBF0000020914238D284F8C50294F8C6123B4620
:10BC0000491CC9B201EB8102C2EB811204EB42056F
:10BC10001A4A84F8C61202EB81010968296028716A
:10BC2000174818492A88401AC008042101EB00402F
:10BC30001549FEF7C4FA02208DF800000120ADF886
:10BC400010002868CDF812001048CDE902043A46E9
:10BC50006946B068FDF726FB002803D03A46214626
:10BC6000FCF760FB09B0F0BD84F8C80239462046F5
:10BC7000FCF7E6FAF6E7000040300020E034002050
:10BC800080E0020080E00200B4D6020025830200BA
:10BC900010B50549C20800F00703885C01249C40E8
:10BCA0002043885410BD000060350020044908443A
:10BCB00090F93000082801DB012070470020704710
:10BCC0000C3500200449084490F93000082801D2BE
:10BCD00001207047002070470C3500202DE9F05FEF
:10BCE0002A4F06464FF0A04A4FF0010B00243819A6
:10BCF00090F95010491C3CD090F85000314620F08B
:10BD0000C0052846FDF7D7F920B3204600F040F8DB
:10BD100081460AEB8500D0F80007C0F30148B8F16E
:10BD2000020F18D002212846FDF7B2FF0BFA05F1E9
:10BD3000CAF820152846FCF701F957F820204AB127
:10BD40004846B9F1030F11D0B8F1020F05D0B8F190
:10BD5000030F07D00DE00321E5E74846B9F1010FD5
:10BD600004D006E04846B9F1020F02D10146284648
:10BD70009047641C042CBAD3324601210020FDF701
:10BD800099FF30680028B1D1BDE8F09F0C35002044
:10BD90000249084490F85000800970470C35002093
:10BDA00010B50C46017A052908D0407A38B1084808
:10BDB00008A102682046FDF7F7FD00E01AB106A1D0
:10BDC0002046FDF7F1FD2046BDE81040FDF7F9BD26
:10BDD0001C310020257300000D0A000038B5C3880F
:10BDE0000D46044633B114A0009015A216A12846B2
:10BDF000FDF7DAFD217A05291CD0607A48B1A088C8
:10BE0000FEF73CF8164951F8202016A12846FDF708
:10BE1000CBFDA0880021FEF767FA03461049207A7F
:10BE2000143951F8202001B02846BDE830400EA159
:10BE3000FDF7BABD38BD00001B5B306D000000008F
:10BE40001B5B313B33316D0025734C6F677320648E
:10BE5000726F70706564202825642925730D0A00AF
:10BE60001C310020257300003C25733E2025733AC9
:10BE7000200000000349884201D103487047002098
:10BE80007047000000200040643000202DE9F0439E
:10BE9000884681465048514991B0401AC70804204D
:10BEA00000EB074004464EA1FEF77EF901226946E9
:10BEB0004846FEF759FB050077D19DF8000004AE17
:10BEC000062861D2DFE800F0030E202B333B20462A
:10BED0004BA1FEF769F9BDF81220BDF810104046DD
:10BEE000A1DF0FE00DA806900146BDF81620002343
:10BEF0000198FEF7D4FA204646A1FEF755F93146DF
:10BF00004046A3DF054636E0204647A1FEF74CF940
:10BF1000BDF8101040460DF112029BDFF2E72046FB
:10BF20004BA1FEF741F9314640469DDFEAE7204646
:10BF300051A1FEF739F9314640469EDFE2E70DA8F0
:10BF400007900023022209A90198FEF7A8FA09A880
:10BF50000690BDF82420022307990198FEF79FFA66
:10BF6000BDF82470204651A1FEF71EF93146404627
:10BF7000AEDF050002D0112D29D00BE0BDF8240062
:10BF8000874207D00C2505E0022000EB07404AA1BC
:10BF9000FEF70AF99DF800004E4951F8200048B11B
:10BFA0000198FEF74EFA204600E00DE04AA1019A02
:10BFB000FEF7FEF8002269464846FEF7D5FA2A4603
:10BFC0004146684600F030F911B0BDE8F0832046E4
:10BFD0004A49FEF7E9F8F7E790E0020080E0020046
:10BFE00050726F63657373696E6720746865207241
:10BFF0006571756573742071756575652E2E2E00DB
:10C0000047415454432052656164205265717565FF
:10C01000737400004741545443205772697465207B
:10C0200052657175657374004741545443205072D2
:10C03000696D617279205365727669636520446920
:10C0400073636F76657279205265717565737400DC
:10C050004741545443204368617261637465726957
:10C060007374696320446973636F766572792052D3
:10C0700065717565737400004741545443204368EB
:10C080006172616374657269737469632044657376
:10C0900063726970746F7220446973636F7665723E
:10C0A00079205265717565737400000047415454DE
:10C0B0005320485658000000556E696D706C656DD0
:10C0C000656E7465642047415454205265717565EE
:10C0D0007374000024D20200506F696E7465722080
:10C0E000746F206672656564206D656D6F7279206E
:10C0F000626C6F636B3A2025702E000088D80200B6
:10C1000001680A684968914201D3881A70478068BB
:10C11000801A0844401C7047F0B58DB00546C068D1
:10C12000002209A9FEF720FA1C491D4A891AC908EC
:10C13000042202EB01442CE02046BDF8242019A182
:10C14000FEF736F8BDF82410A86801EB810100EB7A
:10C150008106002269463046FEF706FA1A4F11E0C2
:10C160009DF8000057F8200038B10198FEF769F9F2
:10C17000204616A1019AFEF71BF8002269463046B8
:10C18000FEF7F2F90028EBD0002209A9E868FEF7D3
:10C19000EBF90028D0D00DB0F0BD000090E0020017
:10C1A00080E0020050757267696E67207265717574
:10C1B0006573742071756575652077697468206989
:10C1C000643A20256400000024D20200506F696E9A
:10C1D00074657220746F206672656564206D656D8C
:10C1E0006F727920626C6F636B3A2025702E0000AD
:10C1F00070B50C4B00210A4ADC680DE002EB8105AA
:10C200008678AD78B54206D132F821500688B5421D
:10C2100001D1586870BD491CA142EFD3002070BD08
:10C22000E034002040300020F8B50E4604461348A4
:10C2300013491500A0EB010022784FEAD00011D07D
:10C24000012101EB004033460E490095FDF7BFFF89
:10C25000A368002B10D0E16801B032462846BDE843
:10C26000F040184701B03346BDE8F040042101EB2F
:10C27000004005A1FDF7A3BFF8BD000090E002005B
:10C2800080E002003CD8020053442047415454202F
:10C2900070726F6365647572652028256429207348
:10C2A0007563636565646564206F6E20636F6E6E91
:10C2B000656374696F6E2068616E646C653A2025F1
:10C2C000642E00002DE9F0478946064610F8101B41
:10C2D00080463148314B0422C01AC008002502EBC9
:10C2E0000044062944D2DFE801F0030C151F272F74
:10C2F00020462BA1FDF758FF728A318A4846A1DFFC
:10C3000006E020462BA1FDF74FFF41464846A3DF3C
:10C31000054624E020462CA1FDF746FF318A06F1B0
:10C32000120248469BDFF3E7204632A1FDF73CFFAF
:10C33000414648469DDFEBE7204638A1FDF734FF34
:10C34000414648469EDFE3E7B0693EA107882046A4
:10C35000FDF72AFF41464846AEDF050002D0112D09
:10C3600014D00BE0B0690088B84207D00C2505E076
:10C37000022101EB00403CA1FDF716FF2A46494689
:10C380003046FFF751FF0120BDE8F08720463D49C8
:10C39000FDF70AFF0020F7E790E0020080E00200CE
:10C3A000474154544320526561642052657175655C
:10C3B00073740000474154544320577269746520D8
:10C3C000526571756573740047415454432050722F
:10C3D000696D617279205365727669636573204473
:10C3E0006973636F766572792052657175657374D0
:10C3F0000000000047415454432043686172616368
:10C40000746572697374696320446973636F7665D8
:10C4100072792052657175657374000047415454F8
:10C420004320436861726163746572697374696300
:10C430002044657363726970746F72205265717500
:10C44000657374004741545453204E6F7469666994
:10C45000636174696F6E206F7220496E64696361F5
:10C4600074696F6E00000000556E696D706C656DCB
:10C47000656E74656420474154542052657175653A
:10C4800073740000F4D8020070B50546FCF789F813
:10C49000134C40B1D4E904024FF08071411842F1CD
:10C4A0000000C4E9041000212846FBF7C7FF30B1A3
:10C4B000606820B1606800F0C1FA0020606001216E
:10C4C0002846FBF7BBFF18B1FCF796FAC4E9060152
:10C4D000284600F0DFFA2846BDE8704000F034B886
:10C4E0008830002070B5054600200C460870FCF727
:10C4F00083FAD5E90223101A63EB010300263146C3
:10C50000361A994112DAB0F5350F03D3FAF718FC51
:10C510000B4942184FF4960300210A48FCF74DF8E6
:10C5200010B10D2806D009E0012070BD002105489A
:10C53000FBF77AFF284600F081FA2070002070BDDA
:10C54000FFFFB40090300020F8B51A4C07460026D3
:10C550001948FEF7EFFAD0B1616871B1D0E9021065
:10C560006268D2E90232C91A904120D26068007F25
:10C5700018B161681048FEF7CCFA00F0F7F90546EB
:10C580006946FFF7AFFF98B1606840B10AE06068A4
:10C5900000280CD13846BDE8F840FCF70AB8384608
:10C5A000FCF703F865609DF800000028D0D1F8BDC5
:10C5B0006660CDE78830002068D2020070B505467D
:10C5C00088690C4600284FF4847128460AD0FEF78B
:10C5D000F6FAD5F81805626AE1688854606A401C6A
:10C5E000606270BDFEF7EBFAD5F8180570BD1FB597
:10C5F00001238DF80030CDE90121D0E90012684611
:10C6000090471FBD1FB501238DF80030CDE90121F2
:10C61000D0E90012684690471FBD10B50446006877
:10C620004FF49271FEF7CBFA4FF484712068FEF755
:10C63000C6FA20680121016010BD00007FB50146E7
:10C6400003781448144A801AC008032202EB004001
:10C65000042B18D0052B0ED0062B0BD14968CA78B5
:10C660008D794C790B798DE83C008B784A780BA159
:10C67000FDF7B6FD7FBD48680028FBD004B0BDE8DB
:10C680007040FAF729BB11A1FDF78EFDBDE87F4090
:10C6900000F050B8F8E0020080E00200436F6E6ED8
:10C6A000656374696E6720746F2074617267657466
:10C6B00020253032782530327825303278253032D6
:10C6C0007825303278253032780000005363616E6F
:10C6D0002074696D6564206F75742E001FB500208D
:10C6E000009001900290039001208DF804008DF8D5
:10C6F0000C000D4A69460D48FCF75AFF08B1FAF7DD
:10C70000EBFA0B4A03210948FCF7EEFE08B1FAF7F1
:10C71000E3FA002204210548FCF72FFF002801D08E
:10C72000FAF7DAFA1FBD00003DC60200A832002069
:10C7300040D1020010B50848FDF748F808B1FAF7F3
:10C74000CBFA0120FBF704FA002803D0BDE8104023
:10C75000FAF7C2BA10BD0000A832002038B5002197
:10C76000012548B1012810D003280DD1FEF746FA63
:10C77000BDE83840FDF7AAB84FF0E020C0F880517E
:10C78000BFF34F8FBFF36F8F38BD8DF80010684631
:10C79000FAF7CAFB064C207808B9FDF777F8E0688D
:10C7A000401CE060A5709DF80000FAF7E1FB38BD81
:10C7B000F83400203EB5044609496846FEF782F980
:10C7C00008E000BFD0E900212046904730B168461C
:10C7D000FEF78FF902980028F4D13EBD11203EBD2E
:10C7E00058D402003EB5044608496846FEF76AF987
:10C7F00007E000BFD0E90021204690476846FEF7D9
:10C8000078F902980028F5D13EBD000064D40200FA
:10C810002DE9F0411400884618D000250E4F03265C
:10C8200008EB050122460020F9F738FF0544241AD9
:10C8300040B93878002809D008494FF47A40884731
:10C84000761E05D001203870002CE9D1BDE8F081BA
:10C8500000203870FAE70000E030002031D40200F8
:10C8600010B504460020FBF773F908B1FAF734FA63
:10C8700024B9FBF7D9F808B1FAF72EFA012010BD58
:10C8800070B5194D194C07E00168207888470028D9
:10C8900029D01548FEF72DF9A8680028F4D1FDF736
:10C8A00031FD00BFFDF710FB0028FBD120780328E5
:10C8B0000CD002280AD0FEF7E1F800B133DF0C49B2
:10C8C00001200860BFF34F8F20BFFDE7BFF34F8FFC
:10C8D00008480168084A01F4E06111430160BFF3B0
:10C8E0004F8F00BFFDE770BD7C360020D4300020A4
:10C8F000000500400CED00E00400FA05002805D119
:10C900000349012048700020FBF756BB7047000028
:10C91000F834002010B51620FAF708F9A0B1114834
:10C9200090F800044009082811D20121814011F03B
:10C93000EC0F0CD00C4882684FF480016AB101689A
:10C9400041F48001016010BD42F2010001E042F2B9
:10C950000200BDE81040FAF7BFB94FF0E020C0F880
:10C96000001110BD16E000E0703600200148FEF70F
:10C97000E4B8000068D20200C207002A03D000BF5A
:10C980004FF00F0201E04FF0F00201D04FEA011129
:10C99000044B03EB5003187800EA020040EA010060
:10C9A00018707047D83500202DE9F84F0746214808
:10C9B0009146884605681E46012269461846FBF7DF
:10C9C00005FADFF874A060B3009800210446801CCB
:10C9D0000AE000BF00EA050259F821C00AEB820212
:10C9E000401C491CC2F80CC0B142F3D34FEA1749AE
:10C9F000FBF710FD611C29400AEB810149EA004266
:10CA00002C40CA600AEB8401C86867F3C50066F36E
:10CA1000891068F39F2020F00300401C20F00400E0
:10CA2000C8609AF8000001E0FDF74EFA0028FBD13B
:10CA3000BDE8F88FEC3000202038002070B50446A7
:10CA4000124800250078F8B1F4B1207FE0B1FBF77F
:10CA5000D3FFD4E90223801A994110D3206900261C
:10CA600000B92677D4E905108847206960B1217F95
:10CA700051B1D4E9022110187141C4E902012146E3
:10CA80000348FEF746F80125284670BD883000208F
:10CA900068D20200F8B51B4C69462068FCF781FAA1
:10CAA00000260127184D29E0017821B101290CD079
:10CAB00002291BD114E041680A7FBAB90F77416897
:10CAC00010480830FEF725F810E041686868814298
:10CAD00001D16E600AE00B480830FEF735F805E03A
:10CAE000FFF744FF08B10677FAE72F706946206820
:10CAF000FCF74CFA69462068FCF753FA0028D3D1BA
:10CB0000F8BD000060D2020088300020F8B50B4C60
:10CB10000D46064669462068FCF72DFA58B10670A6
:10CB2000456069462068FCF747FA10B10448FBF7F6
:10CB300025FD0020F8BD0420F8BD000060D20200F1
:10CB40009030002003488068410803480022406874
:10CB5000FAF736B97030002058D2020070B50C4692
:10CB600005464FF48E71FEF72AF8216AA068415CF1
:10CB7000206A401C2062C5F81C1570BD1FB500223C
:10CB80008DF800200291816801914261D0E9001284
:10CB9000684690471FBD1FB500228DF80020029106
:10CBA000816801914261D0E90012684690471FBD3B
:10CBB00070B50446027824482449401AC5085AB181
:10CBC000214B0120591AC90800EB0140012A33D03A
:10CBD000022A30D11EA130E02B4C2A4E608830440E
:10CBE000FAF70CF96088401C80B23118608011F8A7
:10CBF000011C0A2904D00D2902D0218888421AD3A9
:10CC0000042000EB054521A12846FDF7CDFA284672
:10CC100062881C49FDF774FA1A49628801F59A7016
:10CC2000FAF766FD082804D01328F5D008B1FAF702
:10CC300053F80020608070BD1CA1FDF7B5FA606854
:10CC4000BDE87040FAF748B8F8E0020080E0020062
:10CC5000436F6D6D756E69636174696F6E20657287
:10CC6000726F72206F636375727265642077686992
:10CC70006C652068616E646C696E67205541525422
:10CC80002E00000048310020282A002052656164EF
:10CC90007920746F2073656E642064617461206F05
:10CCA00076657220424C45204E5553004572726F96
:10CCB00072206F6363757272656420696E204649E5
:10CCC000464F206D6F64756C6520757365642062D6
:10CCD0007920554152542E007CB50178254DA1B3E1
:10CCE00001290BD002291DD18DF80010C068691CE4
:10CCF00001900122C81DFCF737FE30E0017A59B1DE
:10CD0000406801781C48FAF70DF81B4C012650B119
:10CD10008DF8006001900DE016490122491CC81DE4
:10CD2000FCF722FE7CBDA068E168814205D00020AE
:10CD30008DF80000696868468847A068E168081AAD
:10CD4000A1888842E8D9AE707CBDFFE70A4809494E
:10CD50001030F9F7CCFF30B103208DF8000069687E
:10CD600068468847F0E70349012201F10800FCF713
:10CD70000BFEE9E7AC300020503600201FB50A4614
:10CD800001788DF8001041680191017A8DF8081042
:10CD9000C0680390044850F82210001F50F8222069
:10CDA000684690471FBD0000583000202DE9FF471E
:10CDB0000C4605464FF40071FDF707FF01274FF4BD
:10CDC0000178002618B34FF4927949462846FDF7BA
:10CDD000F1FEE0B149462846FDF7F1FEC5F80883AB
:10CDE00094F8290000B96F6002208DF80000D5F892
:10CDF0008004C5F880040390A0690290E068019067
:10CE0000A661E661D4E900126846904728E0042153
:10CE10002846FDF7DAFE18B34FF484712846FDF773
:10CE2000C9FEE8B121462846FFF7C8FB616AA06940
:10CE3000884215D1E06938B1E268616AA061206971
:10CE4000E6616662E06008E094F8290000B96F606E
:10CE5000C5F80883A661E268616A2046FFF7C7FB50
:10CE60004FF48E7841462846FDF7A4FE80B16069F4
:10CE7000216A814202D294F8280028B3414628460C
:10CE8000FDF79DFE606918B161692046FFF776FEE7
:10CE90004FF4A27841462846FDF78CFE002818D0B2
:10CEA00041462846FDF78BFE94F8290000B12F601B
:10CEB000A06900280DD0A661E268616A04B020462E
:10CEC000BDE8F047FFF793BB21462846FFF746FE33
:10CED000DEE7BDE8FF8700001FB50A4601788DF840
:10CEE000001041680191017A8DF80810C068039024
:10CEF000044850F82210001F50F82220684690473E
:10CF00001FBD0000583000202DE9FF410C464FF4B2
:10CF1000927705463946FDF75EFE0026B8B13946E0
:10CF20002846FDF75DFE02208DF80000D5F880044C
:10CF3000C5F880040390D5F83C050290E0680190A4
:10CF4000A661E661D4E900126846904723E04FF4F9
:10CF5000887739462846FDF73EFEE0B13946284637
:10CF6000FDF73EFED5F83C15A069884213D1E06973
:10CF700060B1E268D5F8000220F02000C5F8000298
:10CF8000E069A0612069E661E06001E0A661E26815
:10CF90002046FFF737FB4FF4A27739462846FDF7C6
:10CFA0001AFE68B139462846FDF71AFEA06938B165
:10CFB000A661E661D5F83C152046E268FFF722FB42
:10CFC0004FF4907631462846FDF705FE60B13146B4
:10CFD0002846FDF705FE0120E860606920B1D5F81C
:10CFE0004C152046FFF7D7FD4FF4AC763146284666
:10CFF000FDF7F1FD00280ED031462846FDF7F0FD83
:10D000006069002807D0D5F84C1504B02046BDE86B
:10D01000F041FFF7C0BDBDE8FF8100002DE9F05FE2
:10D020008346DDE90A4A994690460D46084601279F
:10D0300003E000BFB0FBF8F07F1C4045FAD2B945D1
:10D0400000D94F465FEACA7012D18CB15FEA8A708C
:10D0500002D5B9F1000F01D0202607E0302605E007
:10D0600031465846641EFAF7FBFE0CB1A742F7D3CF
:10D070005FF00106B9F1010F02D9A9F1010903E03E
:10D08000B5FBF6F0404502D306FB08F6F2E7DFF801
:10D090003C9000BFB5FBF6F000FB165519F80010E8
:10D0A0005846FAF7DDFEB6FBF8F6002EF2D15FEA3D
:10D0B000CA7009D0002C07D0A74205D220215846BB
:10D0C000641EFAF7CDFEF5E7BDE8F09FA6D2020098
:10D0D00070B50C460546FAF7E7FE002807D042680F
:10D0E000002A04D021462846BDE87040104770BD94
:10D0F00010B5042817D209B1032400E00024FAF780
:10D10000E1FB4FF0A04101EB8000D0F8001721F4C3
:10D110004031C0F80017D0F8001741EA0441C0F8C8
:10D120000017002010BD062010BD0000983300201D
:10D13000F832002004000000200000000100000080
:10D1400001000200080000000600000005000000C9
:10D15000070000000000000000E0D70111121314C6
:10D160000D0E0F107034002090340020C0340020C9
:10D170000D000300497A02000E000300497A020004
:10D180000F000300497A020010000300497A0200F0
:10D19000010000000000000000000000000000008E
:10D1A000000000000000000000000000000000007F
:10D1B000000000000000000000000000000000006F
:10D1C000000000000000000000000000000000005F
:10D1D000000000000000000000000000000000004F
:10D1E000000000000000000000000000000000003F
:10D1F000000000000000000000000000000000002F
:10D20000000000000000000000000000770A00009D
:10D2100000000000770A0000000000007ADA000039
:10D220000000000000000000018902000000000072
:10D230000000000000000000758902009ECADC2486
:10D240000EE5A9E093F3A3B50000406E0000005086
:10D25000DDAE020075B1020003000000B835002009
:10D26000E83500200100060000000000A830002082
:10D27000FD7F0200FFFFFFFFFFFFFFFFFFFFFFFF3C
:10D28000FFFFFFFF00000000000000000000D601CB
:10D290000601000000000000000000000000000087
:10D2A0000338FDD8704730313233343536373839AA
:10D2B00041424344454600000000000000000000D9
:10D2C00054E1020058E102000000000000000000EC
:10D2D000B8D20200D0D2020004000000556E6B6E7E
:10D2E0006F776E206572726F7220636F64650000E5
:10D2F00000000000D4DC02000100000080DB02001E
:10D300000200000074D9020003000000F4DB0200F8
:10D310000400000048DC02000500000028DB0200D9
:10D3200006000000C4DA02000700000030DC020042
:10D33000080000003CDB020009000000A0DB020046
:10D340000A000000BCDC02000B0000005CD90200F7
:10D350000C00000054DB02000D00000024DD020080
:10D360000E00000020DC02000F0000005CDC020068
:10D370001000000090DC02001100000038DD020007
:10D38000120000000CDD020013000000A8DC020007
:10D3900080000000DCDA02008100000018DA0200E0
:10D3A00082000000D8D9020083000000B8D9020032
:10D3B00084000000F4D902008500000000DB0200B8
:10D3C0008600000008DC020090000000A4DA0200E1
:10D3D0009100000098D902009200000068DB020072
:10D3E0000082000070DC020001820000BCDB020051
:10D3F00002820000D8DB02000084000034DA020060
:10D4000001840000E0DC0200028400007CDA0200FB
:10D410000384000058DA02009D9D02009B9D0200DB
:10D42000959D0200000000000000000000000000C8
:10D430000338FDD870470000883700207F000000C7
:10D44000083800200000000000000000000000007C
:10D45000000000000100000744D4020054D4020080
:10D46000080000007CD402008CD4020008000000F8
:10D470008CD402009CD4020008000000A8E1020045
:10D48000B0E10200000000000000000098E102008E
:10D49000A8E1020000000000000000000000000001
:10D4A0000000000058E1020080E1020080E102007B
:10D4B00088E1020088E1020090E10200282A0020B1
:10D4C0009CD40200BCD402000800000090E10200DD
:10D4D00098E102000000000000000000CCD402002F
:10D4E000DCD40200080000000040404040404040C2
:10D4F0004040414141414140404040404040404027
:10D5000040404040404040404005020202020202CA
:10D510000202020202020202022020202020202019
:10D52000202020020202020202029090909090902D
:10D5300010101010101010101010101010101010EB
:10D54000101010100202020202028888888888885F
:10D55000080808080808080808080808080808084B
:10D56000080808080202020240000000E9D4020094
:10D570004E6F7420656E6F756768207370616365A8
:10D5800020666F722063686172616374657269738B
:10D5900074696373206173736F6369617465642078
:10D5A00077697468207365727669636520307825C1
:10D5B0003034582021000000496E63726561736544
:10D5C00020424C455F474154545F44425F4D4158AF
:10D5D0005F434841525320746F2062652061626C42
:10D5E0006520746F2073746F7265206D6F72652093
:10D5F00063686172616374657269737469637320CF
:10D60000666F722065616368207365727669636511
:10D6100021000000496E63726561736520424C45CC
:10D620005F44425F444953434F564552595F4D4111
:10D63000585F53525620746F2062652061626C659A
:10D6400020746F2073746F7265206D6F7265207324
:10D650006572766963657321000000004469736335
:10D660006F76657279206F6620736572766963657F
:10D6700020776974682055554944203078257820F2
:10D68000636F6D706C65746564207769746820736E
:10D69000756363657373206F6E20636F6E6E656371
:10D6A00074696F6E2068616E646C652030782578CF
:10D6B0002E0000005374617274696E672064697390
:10D6C000636F76657279206F662073657276696321
:10D6D000652077697468205555494420307825784D
:10D6E000206F6E20636F6E6E656374696F6E206865
:10D6F000616E646C6520307825782E0052657175F6
:10D70000657374696E6720746F20757064617465E9
:10D7100020415454204D545520746F2025752062AB
:10D7200079746573206F6E20636F6E6E65637469C4
:10D730006F6E203078257820287265747279292ED2
:10D740000000000073645F626C655F6761705F6416
:10D750006174615F6C656E6774685F757064617435
:10D7600065282920287265717565737429206F6E8C
:10D7700020636F6E6E656374696F6E2030782578F4
:10D780002072657475726E65642025732E0000002A
:10D790005468652072657175657374656420636F84
:10D7A0006D62696E6174696F6E206F6620545820D7
:10D7B000616E64205258207061636B6574206C65E3
:10D7C0006E6774687320697320746F6F206C6F6E5E
:10D7D00067206279202575206D6963726F736563B8
:10D7E0006F6E64732E00000073645F626C655F6728
:10D7F000617474635F65786368616E67655F6D749B
:10D80000755F726571756573742829206F6E20636A
:10D810006F6E6E656374696F6E2030782578207244
:10D82000657475726E656420627573792C207769F2
:10D830006C6C2072657472792E000000534420478E
:10D840004154542070726F63656475726520282599
:10D850006429206661696C6564206F6E20636F6E59
:10D860006E656374696F6E2068616E646C652025F7
:10D87000642077697468206572726F723A2030781C
:10D88000253038582E0000005344206973206375FA
:10D890007272656E746C7920627573792E2054688B
:10D8A000652047415454207265717565737420700A
:10D8B000726F6365647572652077696C6C20626550
:10D8C00020617474656D70746564202020202020B0
:10D8D0002020202020202020202020202020202048
:10D8E0002020202020616761696E206C6174657260
:10D8F0002E00000053442069732063757272656EB8
:10D90000746C7920627573792E20546865204741C4
:10D91000545420726571756573742070726F6365FD
:10D92000647572652077696C6C206265206174741F
:10D93000656D707465642020202020202020202028
:10D94000202020202020202020202020206167610E
:10D95000696E206C617465722E0000004E52465F45
:10D960004552524F525F494E56414C49445F4441E3
:10D97000544100004E52465F4552524F525F534F42
:10D9800046544445564943455F4E4F545F454E41CA
:10D99000424C4544000000004E52465F4552524FF3
:10D9A000525F464541545552455F4E4F545F454E78
:10D9B00041424C45440000004E52465F4552524F92
:10D9C000525F4D555445585F554E4C4F434B5F4643
:10D9D00041494C45440000004E52465F4552524F6B
:10D9E000525F4D555445585F4C4F434B5F4641493C
:10D9F0004C4544004E52465F4552524F525F4D5582
:10DA00005445585F434F4E445F494E49545F464129
:10DA1000494C4544000000004E52465F4552524F6B
:10DA2000525F4D555445585F494E49545F464149F0
:10DA30004C4544004E52465F4552524F525F424C55
:10DA4000455F495053505F52585F504B545F54529A
:10DA5000554E4341544544004E52465F4552524F45
:10DA6000525F424C455F495053505F504545525FAD
:10DA700052454A4543544544000000004E52465F1B
:10DA80004552524F525F424C455F495053505F4C94
:10DA9000494E4B5F444953434F4E4E4543544544D2
:10DAA000000000004E52465F4552524F525F4150B7
:10DAB000495F4E4F545F494D504C454D454E54457E
:10DAC000440000004E52465F4552524F525F4E4F47
:10DAD000545F535550504F52544544004E52465F88
:10DAE0004552524F525F4D4F44554C455F4E4F5437
:10DAF0005F494E495449414C495A45440000000091
:10DB00004E52465F4552524F525F4D4F44554C4521
:10DB10005F414C52454144595F494E495449414C3B
:10DB2000495A4544000000004E52465F4552524F4C
:10DB3000525F4E4F545F464F554E44004E52465F23
:10DB40004552524F525F494E56414C49445F5354DF
:10DB5000415445004E52465F4552524F525F444138
:10DB600054415F53495A45004E52465F4552524F09
:10DB7000525F494F5F50454E44494E4700000000F8
:10DB80004E52465F4552524F525F5356435F484193
:10DB90004E444C45525F4D495353494E4700000097
:10DBA0004E52465F4552524F525F494E56414C4984
:10DBB000445F4C454E475448000000004E52465FBB
:10DBC0004552524F525F4452565F5457495F455237
:10DBD000525F414E41434B004E52465F4552524FB9
:10DBE000525F4452565F5457495F4552525F444E0C
:10DBF00041434B004E52465F4552524F525F494E91
:10DC00005445524E414C00004E52465F4552524FD1
:10DC1000525F53544F524147455F46554C4C0000AC
:10DC20004E52465F4552524F525F4E554C4C00008B
:10DC30004E52465F4552524F525F494E56414C49F3
:10DC4000445F504152414D004E52465F4552524F43
:10DC5000525F4E4F5F4D454D000000004E52465FF3
:10DC60004552524F525F464F5242494444454E003E
:10DC70004E52465F4552524F525F4452565F545780
:10DC8000495F4552525F4F56455252554E00000073
:10DC90004E52465F4552524F525F494E56414C4993
:10DCA000445F4144445200004E52465F4552524F39
:10DCB000525F5245534F5552434553004E52465FB3
:10DCC0004552524F525F494E56414C49445F464C73
:10DCD000414753004E52465F53554343455353000B
:10DCE0004E52465F4552524F525F424C455F49503B
:10DCF00053505F4348414E4E454C5F414C52454165
:10DD000044595F4558495354530000004E52465FF2
:10DD10004552524F525F434F4E4E5F434F554E5404
:10DD2000000000004E52465F4552524F525F544928
:10DD30004D454F55540000004E52465F4552524FDC
:10DD4000525F4255535900007761726E696E6700E9
:10DD500064656275670000001B5B313B33306D000A
:10DD60001B5B306D000000001B5B313B33316D00ED
:10DD70001B5B313B33326D001B5B313B33336D003A
:10DD80001B5B313B33346D001B5B313B33356D0026
:10DD90001B5B313B33366D001B5B313B33376D0012
:10DDA000696E666F000000006572726F720000009D
:10DDB00073645F626C655F6366675F73657428296F
:10DDC0002072657475726E656420257320776865AE
:10DDD0006E20617474656D7074696E6720746F2055
:10DDE00073657420424C455F47415454535F43462A
:10DDF000475F534552564943455F4348414E474567
:10DE0000442E000073645F626C655F6366675F73D6
:10DE1000657428292072657475726E656420257397
:10DE2000207768656E20617474656D7074696E67C3
:10DE300020746F2073657420424C455F434F4D4DF5
:10DE40004F4E5F4346475F56535F555549442E003A
:10DE500073645F626C655F6366675F7365742829CE
:10DE60002072657475726E6564202573207768650D
:10DE70006E20617474656D7074696E6720746F20B4
:10DE800073657420424C455F47415454535F434689
:10DE9000475F415454525F5441425F53495A452EA3
:10DEA0000000000073645F626C655F6366675F73A8
:10DEB000657428292072657475726E6564202573F7
:10DEC000207768656E20617474656D7074696E6723
:10DED00020746F2073657420424C455F434F4E4E53
:10DEE0005F4346475F4741502E00000073645F6206
:10DEF0006C655F6366675F7365742829207265745B
:10DF000075726E6564202573207768656E20617474
:10DF100074656D7074696E6720746F20736574200A
:10DF2000424C455F4741505F4346475F524F4C4527
:10DF30005F434F554E542E0073645F626C655F63A0
:10DF400066675F73657428292072657475726E65E3
:10DF500064202573207768656E20617474656D7028
:10DF600074696E6720746F2073657420424C455F3E
:10DF7000434F4E4E5F4346475F474154542E000087
:10DF8000626C655F64625F64697363006E72665F92
:10DF9000626C655F67617474000000006E72665F9A
:10DFA000626C655F67710000626C655F7363616ED0
:10DFB00000000000626C655F6E75735F63000000B7
:10DFC000636C6F636B000000434C4F434B000000D9
:10DFD0004750494F54450000505253005541525448
:10DFE0000000000055415254450000006170705F10
:10DFF000627574746F6E00006170705F74696D6536
:10E00000720000007077725F6D676D740000000031
:10E01000736F72746C697374000000007274745FC3
:10E020006C6F675F6261636B656E64006170700046
:10E030006E72665F736468006E72665F7364685FB9
:10E04000626C65006E72665F7364685F736F630015
:10E05000B0E10200282A00202007000034650200F9
:10E0600018E2020048310020802D00001C6B0200E5
:10E0700018D40200000000001CE00200E430002080
:10E0800080DF0200000004048CDF020000000404B2
:10E090009CDF020000000404A8DF0200000004046A
:10E0A000B4DF020000000404C0DF02000000000032
:10E0B000C8DF020000000000D0DF02000000000006
:10E0C000D8DF020000000000DCDF020000000000DA
:10E0D000E4DF020000000000ECDF020000000000AE
:10E0E000F8DF02000000000004E002000000000071
:10E0F00010E00200000000002CE002000000040418
:10E1000030E002000000030338E0020000000303D7
:10E1100044E00200000003032030002016300020FD
:10E120001E300020B033002018000000F83000201E
:10E13000F0300020F8300020C83600201800000021
:10E14000A433002012300020010000000200000073
:10E150000100000061C80200019102009432002019
:10E16000157202002C2A002019970200A832002004
:10E17000B9930200FC2F00201D7402000000000073
:10E18000CD7502007C320020997202000000000070
:10E19000FDC802000000000085A902000000000088
:10E1A00089AA0200000000005DC702000000000014
:10E1B00002FF1401FF01CF03FFFFFF01FF01FF7109
:10E1C000320113103015202CD1021440E1021A182C
:10E1D00004037FFFFF15100140110222041220BA30
:10E1E0004008011F29D7091EDB14A8DD021A4804C4
:10E1F0001AA0041A50041A60041A58041A68041A5F
:10E2000070041A78041A80041A88041A90041A9860
:08E210000451040090D003004A
:040000050002620192
:00000001FF
