:020000040000FA
:10000000B00A0020150200001D0200001F020000BF
:100010002102000023020000250200000000000071
:1000200000000000000000000000000027020000A7
:1000300029020000000000002B0200002D02000039
:100040002F0200002F020000110400002F02000008
:100050002F020000000000002F0200002F0200000D
:100060002F0200002F0200002F0200002F020000CC
:100070002F0200002F0200002F0200002F020000BC
:100080002F0200002F0200002F02000000000000DD
:100090002F0200002F0200002F0200002F0200009C
:1000A0002F0200002F0200000000000000000000EE
:1000B0000000000000000000000000000000000040
:1000C0000000000000000000000000000000000030
:1000D0000000000000000000000000000000000020
:1000E0000000000000000000000000000000000010
:1000F0000000000000000000000000000000000000
:1001000000000000000000000000000000000000EF
:1001100000000000000000000000000000000000DF
:1001200000000000000000000000000000000000CF
:1001300000000000000000000000000000000000BF
:1001400000000000000000000000000000000000AF
:10015000000000000000000000000000000000009F
:10016000000000000000000000000000000000008F
:10017000000000000000000000000000000000007F
:10018000000000000000000000000000000000006F
:10019000000000000000000000000000000000005F
:1001A000000000000000000000000000000000004F
:1001B000000000000000000000000000000000003F
:1001C000000000000000000000000000000000002F
:1001D000000000000000000000000000000000001F
:1001E000000000000000000000000000000000000F
:1001F00000000000000000000000000000000000FF
:10020000DFF80CD000F02AF8004800475108000041
:10021000B00A00200648804706480047FEE7FEE790
:10022000FEE7FEE7FEE7FEE7FEE7FEE7FEE7FEE7A6
:10023000810200000102000040EA01039B0703D095
:1002400009E008C9121F08C0042AFAD203E011F815
:10025000013B00F8013B521EF9D27047064C074D96
:1002600006E0E06840F0010394E807009847103486
:10027000AC42F6D3FFF7C8FF0814000028140000B2
:1002800030B54FF080540123D4E94C1000220F29DF
:1002900005D1D4F84442534DC4F342342C600F29A5
:1002A00008D14FF08044C4F80C21C4F810214D4C03
:1002B000241F22600F2955D14B4C24684B4D2C60D4
:1002C000494C241D24682D1D2C60474C083424689B
:1002D0002D1D2C60444C0C3424682D1D2C60424C88
:1002E000103424682D1D2C603F4C143424682D1DBF
:1002F0002C603D4C183424683C4D20352C603A4C21
:100300001C3424682D1D2C60374C203424682D1D8E
:100310002C60354C243424682D1D2C60324C28343C
:1003200024682D1D2C60304C2C3424682D1D2C602D
:100330002D4C303424682D4D40352C602A4C3434FB
:1003400024682D1D2C60284C383424682D1D2C6009
:10035000254C3C3424682D1D2C60234C40342468EB
:100360002D1D2C600F2906D1214C2568ED0702D0E8
:100370006FF0010525600F2904D11E48016841F086
:100380000F0101604FF01021D1F80002002803DBBB
:10039000D1F80402002821DA174C236017480368BB
:1003A000002BFCD01523C1F800320568002DFCD0CD
:1003B000C1F8043201680029FCD0226001680029DC
:1003C000FCD0BFF34F8F0E4801680E4A01F4E06184
:1003D00011430160BFF34F8F00BFFDE70B490A488F
:1003E000086030BD3C0500400404001020C50040FA
:1003F00000040040E40E004004E5014000E4014038
:100400000CED00E00400FA050090D0033800002055
:1004100001480068004700000C000020014A024922
:1004200000F013B8BB0700003400002002E008C849
:10043000121F08C1002AFAD170477047002001E05E
:1004400001C1121F002AFBD170472DE9F041164669
:100450000F460446002503E03946B047641C6D1C76
:1004600020780028F8D12846BDE8F08172B6094806
:100470000068C00700D000BEBFF34F8F0548E438C6
:100480000168054A01F4E06111430160BFF34F8F39
:1004900000BFFDE7F0ED00E00400FA050EB5002115
:1004A0000091CDE901106A4644F20100FFF7DEFF3A
:1004B0000EBD10B58268C368934203D000F06AF99C
:1004C000002010BD052010BD29B112B1531E1342EA
:1004D00003D0092070470E207047016083800021FF
:1004E0008160C1600846704710B58268C3689A1A77
:1004F00083889A4203D800F057F9002010BD0420E9
:1005000010BD000070B50A4E01460A48B578FFF7E5
:10051000D0FF04464DB10020B070711C0122C81DEF
:1005200000F01AFA08B1FFF7B9FF204670BD0000CD
:10053000140000208C020020F0B5244E89B01F4624
:100540000D00044672603FD0A888296882B2204816
:10055000FFF7BAFF002835D1A889A96882B21C48E4
:100560001030FFF7B1FF00282CD12022194968462E
:10057000FFF762FE60690690207C00B101208DF8D3
:1005800014008DF81C70607C00B10E208DF81500F1
:10059000E0680290A0680390206801906068009075
:1005A0000A480D4A6946083000F0A2F9002809D12E
:1005B000B0702068401C05D004490122491CC81DA8
:1005C00000F0CAF909B0F0BD0720FBE714000020D5
:1005D0008C020020E81300008110000010B50146D5
:1005E0001048FFF781FF040019D10F480F4A017826
:1005F000515C19B1001D00F0B7FC02E00C3000F0B6
:100600008DFB60B9084907480839FFF752FF30B938
:10061000054901220839044800F0AEF90446204695
:1006200010BD00009C0200201C00002000000020E3
:1006300000F002B800F008B872B602480168491C20
:10064000016070473000002003490868401E0860C0
:1006500000D162B670470000300000202DE9F04163
:10066000064608680C46411C4FF0A0474FF00105B4
:1006700006D005FA00F1C7F80815206800F0C2F9A5
:100680006068411C02D0002100F0AAF93168A0691D
:10069000C1F82405607D227D31681043C1F86C05E6
:1006A000D4E900123068C0F81425C0F80C15207D7C
:1006B000012815D1A068411C02D0002100F090F95A
:1006C000E068411C05D08540C7F80855E06800F097
:1006D00099F9D4E902123068C0F80825C0F810155D
:1006E000BDE8F0812DE9F041064608680C46411C42
:1006F0004FF0A0474FF0010506D005FA00F1C7F80A
:100700000815206800F088F96068411C02D00021BB
:1007100000F06FF93168A069C1F82405607D217D82
:1007200032680843C2F86C05D4E900123068C0F89A
:100730000C15C0F81425207D012815D1A068411C96
:1007400002D0002100F055F9E068411C05D0854039
:10075000C7F80855E06800F05FF9D4E90212306884
:10076000C0F80825C0F81015BDE8F08110B5800765
:100770000CD50020064C4FF0A0420C23215C02EB6C
:100780008101C1F80037401C0428F7D310BD0000D8
:10079000DC130000826883881A4003689A5C0A7040
:1007A0008168491C81607047C26883881A40036869
:1007B0009954C168491CC160704710B50446C0B265
:1007C000FFF70CFF204610BD70B50D4604460068CB
:1007D0004FF4887100F040F94FF49071206800F0F8
:1007E0003BF94FF49271206800F036F94FF4A27192
:1007F000206800F031F94FF4AC71206800F02CF95A
:1008000020681249C0F804132068690740F30730D4
:10081000090E002804DB00F1E02080F8001405E058
:1008200000F00F0000F1E02080F8141D206840F374
:100830000730002809DB00F01F0201219140400928
:10084000800000F1E020C0F8001170BD10034200EC
:100850008AB00120FFF78AFF182217496846FFF780
:10086000EBFC1648069016494FF48070CDE907015D
:1008700009900723134A06A96846FFF75DFE08B1F1
:10088000FFF70CFE10A0FFF7C9FD06A8FFF73AFE20
:100890000028FAD19DF81800401CC0B2FFF79EFE58
:1008A0000028F7D19DF81800712801D05128ECD10B
:1008B0000CA0FFF7B3FDFEE7C41300003C000020CE
:1008C0003C0100206F1000000D0A55415254206574
:1008D00078616D706C6520737461727465642E0D3F
:1008E0000A000000200D0A45786974210D0A0000F5
:1008F000F0B505460478154889B0164640F824201E
:10090000124A0869121DA2F1080742F82400487F24
:10091000385520226846FFF78FFC04942878385C0D
:1009200048B10EB10A4A00E000226946281D00F0D5
:100930000DFA09B0F0BD0EB1064A00E0002269468A
:1009400005F10C0000F0B6F8F3E700000400002009
:10095000811200002511000030B40378054CE35CDF
:100960001BB130BC001D00F027BA30BC0C3000F0C9
:100970000BB900000000002030B40378054CE35CA4
:100980001BB130BC001D00F099BA30BC0C3000F037
:1009900071B900000000002070B541EA4201DDE9B4
:1009A00004564FF0A04441EA830141EA052104EBDB
:1009B000800041EA0641C0F8001770BD70B541EAF9
:1009C0004201DDE904564FF0A04441EA830141EAC7
:1009D000052104EB800041EA0641C0F8001770BD14
:1009E0001CB500220B46009211460192FFF7D4FF7E
:1009F0001CBD1CB500220B46009211460192FFF768
:100A0000DDFF1CBD1CB5002100910B4601220191A8
:100A10001146FFF7C1FF1CBD1CB5002100910B461C
:100A2000012201911146FFF7C9FF1CBD4058002863
:100A300000D00120704708B5002242504058009075
:100A400008BDD0F80403084000D00120704740588A
:100A5000002800D00120704708B5002242504058BD
:100A6000009008BD0121B1EB507F01D101207047FA
:100A70000020704770B50D4600F084FA04000FD0D6
:100A80000020FFF7D5FD207920B10020FFF7D2FD2F
:100A9000112070BD0120256020710020FFF7CAFDE4
:100AA000002070BD0149024800F054BB3C02002008
:100AB000002000402DE9F0410546007916460F461A
:100AC00000EB40012D4A01EBC00102EB810494F8D8
:100AD0002A1011B10820BDE8F081294951F82010F1
:100AE0002868FFF7C7FF08B11120F4E73946284608
:100AF000FFF7B4FD66603869206030004FF00106F2
:100B00002FD03F7F4FF48E712868FFF794FF4FF48A
:100B1000A2712868FFF78FFF28681A49C0F80413EC
:100B200028684FEA471140F30730002804DB00F142
:100B3000E02080F8001405E000F00F0000F1E02054
:100B400080F8141D286840F30730002809DB00F006
:100B50001F0106FA01F14009800000F1E020C0F811
:100B6000001128680421C0F800150020A061E06190
:100B700084F8290044F8140FA675ACE73C02002065
:100B8000E0130000800002002DE9F05F05460079C7
:100B90004FF4017600EB400303EBC000344B03EB52
:100BA00080040020636813B12B68C3F80863A3694D
:100BB0004FF000096BB1E06938B1606810B1286886
:100BC000C0F804631120BDE8F09FE26101202161BB
:100BD00005E0C4F82490A261E160C4F81C9094F888
:100BE0002910014302D1284600F007FA6068002866
:100BF000286803D0C0F804630020E4E74FF4A2762D
:100C00003146FFF718FFB2464FF4927B59462868E9
:100C1000FFF70CFF06464FF484712868FFF706FFC4
:100C2000804651462868FFF701FF074648EA07005B
:100C30003043EBD056EA070007D12146286800F080
:100C4000ADF9A169606A8142E0D8C4F818900EB18C
:100C50000320B8E70FB10F20B5E794F82910012061
:100C60000029296801D00860C6E74860C4E7000091
:100C70003C0200202DE9F05F054600790B4600EBB1
:100C8000400101EBC000244901EB8004284600F03C
:100C900045F810B11120BDE8F09F62614FF00009E6
:100CA000C4F82090A36084F828904FF48E784E46C4
:100CB00041462868FFF7BFFE28684FF0010AC0F8D8
:100CC00008A02146286800F0A8F9606808BBD5F89C
:100CD00000B067690FE000BF94F8280008B10F2644
:100CE00015E041465846FFF7A1FE0028F4D0214602
:100CF000584600F092F9206AB842F2D3574641466E
:100D00002868FFF793FE0028F9D02868C760C4F868
:100D100014903046BFE700003C020020007900EB51
:100D2000400101EBC000044901EB8000406900284C
:100D300000D00120704700003C0200200149024819
:100D400000F0B6BA68020020002000402DE9F04112
:100D50000546164600790F46154A00EBC00102EB26
:100D6000810494F8201011B10820BDE8F0811149E8
:100D700051F820102868FFF77DFE08B11120F4E734
:100D800039462846FFF7AEFC6660386920601EB120
:100D9000397F2846FFF718FD28680821C0F800159C
:100DA0000020A061E0616061012184F82010DCE78F
:100DB00068020020E41300002DE9F05F044600798A
:100DC0000E4600EBC001DFF8F0A017460AEB8105E4
:100DD0003046FFF747FEB0B168684FF000084FF4A7
:100DE000047910B12168C1F80893A8694FF0000B8D
:100DF00080B1E86948B1686810B12068C0F8049310
:100E00001120BDE8F09F1020FBE7EF614FF00108D3
:100E10002E6102E0EE60C5E9067B00254FF4887183
:100E20002068FFF719FE4FF4A2712068FFF714FE47
:100E30002068C0F83465C0F838752068B8F1000F34
:100E400012D0D0F8001241F02001C0F80012207931
:100E5000D04600EBC0010AEB8100406838B1206841
:100E6000C0F804932846CCE701210160EFE74FF476
:100E7000887A4FF4A27951462068FFF7E8FD0746CB
:100E800049462068FFF7E3FD06464FF4927120685B
:100E9000FFF7DDFD014647EA06000843EBD0227963
:100EA00002EBC20308EB8302C2F818B001B10325BC
:100EB000002ED7D00F25D5E7680200202DE9F04796
:100EC00004460E460079274900EBC00001EB80057F
:100ED00017463046FFF7C6FD30B1204600F044F813
:100EE00020B11120BDE8F0871020FBE76F61AE60F4
:100EF0004FF490774FF0000839462068FFF7ACFDBB
:100F00004FF4AC7631462068FFF7A6FD2068AA684A
:100F10006969C0F84425C0F8481520684FF00109F8
:100F2000C0F808906868D0B9BA4651462068FFF703
:100F30008EFD074631462068FFF789FD0743F4D050
:100F400010B14FF00F0808E02068C0F80C9031464F
:100F50002068FFF77CFD0028F9D00020686140463A
:100F6000C0E70000680200200079054900EBC000DE
:100F700001EB80004069002800D00120704700008C
:100F8000680200200349884201D1034870470020CD
:100F900070470000002000400C00002070B505469E
:100FA00088690C4600284FF4847128460AD0FFF760
:100FB00042FDD5F81805626AE1688854606A401CF1
:100FC000606270BDFFF737FDD5F8180570BD1FB51D
:100FD00001238DF80030CDE90121D0E900126846E7
:100FE00090471FBD1FB501238DF80030CDE90121C9
:100FF000D0E90012684690471FBD10B5044600684E
:101000004FF49271FFF717FD4FF484712068FFF7DA
:1010100012FD20680121016010BD70B50C46054627
:101020004FF48E71FFF707FD216AA068415C206ACA
:10103000401C2062C5F81C1570BD1FB500228DF83C
:1010400000200291816801914261D0E90012684656
:1010500090471FBD1FB500228DF8002002918168C6
:1010600001914261D0E90012684690471FBD0178A6
:10107000022901D0012902D14068FFF70FBA704759
:101080007CB50178254DA1B301290BD002291DD1D2
:101090008DF80010C068691C01900122C81DFFF77F
:1010A0005BFC30E0017A59B1406801781C48FFF7D9
:1010B0001BFA1B4C012650B18DF8006001900DE029
:1010C00016490122491CC81DFFF746FC7CBDA068DB
:1010D000E168814205D000208DF80000696868460B
:1010E0008847A068E168081AA1888842E8D9AE70EC
:1010F0007CBDFFE70A4809491030FFF7DAF930B143
:1011000003208DF80000696868468847F0E70349C6
:10111000012201F10800FFF72FFCE9E7140000208D
:101120008C0200201FB50A4601788DF80010416836
:101130000191017A8DF80810C0680390044850F8B6
:101140002210001F50F82220684690471FBD000063
:10115000080000202DE9FF470C4605464FF40071BA
:10116000FFF76FFC01274FF40178002618B34FF406
:10117000927949462846FFF759FCE0B1494628468E
:10118000FFF759FCC5F8088394F8290000B96F608F
:1011900002208DF80000D5F88004C5F88004039083
:1011A000A0690290E0680190A661E661D4E90012AE
:1011B0006846904728E004212846FFF742FC18B310
:1011C0004FF484712846FFF731FCE8B121462846E8
:1011D000FFF7E4FE616AA069884215D1E06938B181
:1011E000E268616AA0612069E6616662E06008E029
:1011F00094F8290000B96F60C5F80883A661E26819
:10120000616A2046FFF7E3FE4FF48E784146284698
:10121000FFF70CFC80B16069216A814202D294F828
:10122000280028B341462846FFF705FC606918B13D
:1012300061692046FFF701FF4FF4A2784146284636
:10124000FFF7F4FB002818D041462846FFF7F3FBD0
:1012500094F8290000B12F60A06900280DD0A66184
:10126000E268616A04B02046BDE8F047FFF7AFBE10
:1012700021462846FFF7D1FEDEE7BDE8FF870000E4
:101280001FB50A4601788DF8001041680191017A76
:101290008DF80810C0680390044850F82210001F11
:1012A00050F82220684690471FBD0000080000202B
:1012B0002DE9FF410C464FF4927705463946FFF77A
:1012C000C6FB0026B8B139462846FFF7C5FB022009
:1012D0008DF80000D5F88004C5F880040390D5F897
:1012E0003C050290E0680190A661E661D4E9001235
:1012F0006846904723E04FF4887739462846FFF741
:10130000A6FBE0B139462846FFF7A6FBD5F83C1509
:10131000A069884213D1E06960B1E268D5F80002A3
:1013200020F02000C5F80002E069A0612069E661B4
:10133000E06001E0A661E2682046FFF753FE4FF44B
:10134000A27739462846FFF782FB68B1394628461E
:10135000FFF782FBA06938B1A661E661D5F83C15BC
:101360002046E268FFF73EFE4FF49076314628466D
:10137000FFF76DFB60B131462846FFF76DFB01209A
:10138000E860606920B1D5F84C152046FFF762FE91
:101390004FF4AC7631462846FFF759FB00280ED0B3
:1013A00031462846FFF758FB6069002807D0D5F87A
:1013B0004C1504B02046BDE8F041FFF74BBEBDE838
:1013C000FF810000050000000C0000000500000087
:1013D000070000000000000000E0D7010D0E0F1014
:1013E000A50A00003D0D0000FFFFFFFFFFFFFFFF0C
:1013F000FFFFFFFFFFFFFFFF0000000000000000F5
:101400000000D601060100002814000000000020A2
:101410003C0000002C040000641400003C0000208C
:10142000740A00003C0400000000000000000000FE
:1014300000000000000000000000000000000000AC
:10144000000000000000000000200040000000003C
:10145000002000400000000000000000000000002C
:041460000090D00325
:0400000500000201F4
:00000001FF
