Component: ARM Compiler 5.06 update 6 (build 750) Tool: armlink [4d35ed]

==============================================================================

Section Cross References

    main.o(i.main) refers to boards.o(i.bsp_board_init) for bsp_board_init
    main.o(i.main) refers to memcpya.o(.text) for __aeabi_memcpy4
    main.o(i.main) refers to app_uart_fifo.o(i.app_uart_init) for app_uart_init
    main.o(i.main) refers to app_error.o(i.app_error_handler_bare) for app_error_handler_bare
    main.o(i.main) refers to printfb.o(i.__0printf$bare) for __2printf
    main.o(i.main) refers to app_uart_fifo.o(i.app_uart_get) for app_uart_get
    main.o(i.main) refers to app_uart_fifo.o(i.app_uart_put) for app_uart_put
    main.o(i.main) refers to main.o(.constdata) for .constdata
    main.o(i.main) refers to main.o(.bss) for .bss
    main.o(i.main) refers to main.o(i.uart_error_handle) for uart_error_handle
    main.o(i.uart_error_handle) refers to app_error.o(i.app_error_handler_bare) for app_error_handler_bare
    boards.o(i.bsp_board_button_idx_to_pin) refers to boards.o(.constdata) for .constdata
    boards.o(i.bsp_board_button_state_get) refers to boards.o(.constdata) for .constdata
    boards.o(i.bsp_board_init) refers to boards.o(.constdata) for .constdata
    boards.o(i.bsp_board_pin_to_button_idx) refers to boards.o(.constdata) for .constdata
    nrf_drv_uart.o(i.nrf_drv_uart_init) refers to memcpya.o(.text) for __aeabi_memcpy4
    nrf_drv_uart.o(i.nrf_drv_uart_init) refers to nrfx_uarte.o(i.nrfx_uarte_init) for nrfx_uarte_init
    nrf_drv_uart.o(i.nrf_drv_uart_init) refers to nrfx_uart.o(i.nrfx_uart_init) for nrfx_uart_init
==============================================================================

Removing Unused input sections from the image.

    Removing main.o(.rev16_text), (4 bytes).
    Removing main.o(.revsh_text), (4 bytes).
    Removing main.o(.rrx_text), (6 bytes).
    Removing boards.o(.rev16_text), (4 bytes).
    Removing boards.o(.revsh_text), (4 bytes).
    Removing boards.o(.rrx_text), (6 bytes).
    Removing boards.o(i.bsp_board_button_idx_to_pin), (12 bytes).
    Removing boards.o(i.bsp_board_button_state_get), (32 bytes).
    Removing boards.o(i.bsp_board_pin_to_button_idx), (36 bytes).
    Removing nrf_drv_uart.o(.rev16_text), (4 bytes).
    Removing nrf_drv_uart.o(.revsh_text), (4 bytes).
    Removing nrf_drv_uart.o(.rrx_text), (6 bytes).
    Removing nrfx_atomic.o(.rev16_text), (4 bytes).
    Removing nrfx_atomic.o(.revsh_text), (4 bytes).
    Removing nrfx_atomic.o(.rrx_text), (6 bytes).
    Removing nrfx_atomic.o(.emb_text), (226 bytes).
    Removing nrfx_atomic.o(i.nrfx_atomic_flag_clear), (6 bytes).
    Removing nrfx_atomic.o(i.nrfx_atomic_flag_clear_fetch), (6 bytes).
==============================================================================

Image Symbol Table

    Local Symbols

    Symbol Name                              Value     Ov Type        Size  Object(Section)

    RESET                                    0x00000000   Section      512  arm_startup_nrf52805.o(RESET)
    ../clib/microlib/division.c              0x00000000   Number         0  uidiv.o ABSOLUTE
    ../clib/microlib/division.c              0x00000000   Number         0  uldiv.o ABSOLUTE
    ../clib/microlib/init/entry.s            0x00000000   Number         0  entry5.o ABSOLUTE
    ../clib/microlib/init/entry.s            0x00000000   Number         0  entry.o ABSOLUTE
    ../clib/microlib/init/entry.s            0x00000000   Number         0  entry11b.o ABSOLUTE
    ../clib/microlib/init/entry.s            0x00000000   Number         0  entry2.o ABSOLUTE
    ../clib/microlib/init/entry.s            0x00000000   Number         0  entry7a.o ABSOLUTE
    ../clib/microlib/init/entry.s            0x00000000   Number         0  entry10a.o ABSOLUTE
    ../clib/microlib/init/entry.s            0x00000000   Number         0  entry7b.o ABSOLUTE
    ../clib/microlib/init/entry.s            0x00000000   Number         0  entry11a.o ABSOLUTE
    ../clib/microlib/init/entry.s            0x00000000   Number         0  entry8b.o ABSOLUTE
    ../clib/microlib/init/entry.s            0x00000000   Number         0  entry10b.o ABSOLUTE
    ../clib/microlib/init/entry.s            0x00000000   Number         0  entry9b.o ABSOLUTE
    ../clib/microlib/init/entry.s            0x00000000   Number         0  entry9a.o ABSOLUTE
    ../clib/microlib/init/entry.s            0x00000000   Number         0  entry8a.o ABSOLUTE
    ../clib/microlib/longlong.c              0x00000000   Number         0  llsshr.o ABSOLUTE
    ../clib/microlib/longlong.c              0x00000000   Number         0  llushr.o ABSOLUTE
    ../clib/microlib/longlong.c              0x00000000   Number         0  llshl.o ABSOLUTE
    ../clib/microlib/printf/printf.c         0x00000000   Number         0  printf7.o ABSOLUTE
    ../clib/microlib/printf/printf.c         0x00000000   Number         0  printf6.o ABSOLUTE
    ../clib/microlib/printf/printf.c         0x00000000   Number         0  printfa.o ABSOLUTE
    ../clib/microlib/printf/printf.c         0x00000000   Number         0  printfb.o ABSOLUTE
    ../clib/microlib/printf/printf.c         0x00000000   Number         0  printf0.o ABSOLUTE
    ../clib/microlib/printf/printf.c         0x00000000   Number         0  printf1.o ABSOLUTE
    ../clib/microlib/printf/printf.c         0x00000000   Number         0  printf2.o ABSOLUTE
    ../clib/microlib/printf/printf.c         0x00000000   Number         0  printf8.o ABSOLUTE
    ../clib/microlib/printf/printf.c         0x00000000   Number         0  printf3.o ABSOLUTE
    ../clib/microlib/printf/printf.c         0x00000000   Number         0  printf4.o ABSOLUTE
    ../clib/microlib/printf/printf.c         0x00000000   Number         0  printf5.o ABSOLUTE
    ../clib/microlib/string/memcpy.c         0x00000000   Number         0  memcpya.o ABSOLUTE
    ../clib/microlib/string/memcpy.c         0x00000000   Number         0  memcpyb.o ABSOLUTE
    ../clib/microlib/string/strlen.c         0x00000000   Number         0  strlen.o ABSOLUTE
    ../clib/microlib/stubs.s                 0x00000000   Number         0  iusefp.o ABSOLUTE
    ../fplib/microlib/fpadd.c                0x00000000   Number         0  dadd.o ABSOLUTE
    ../fplib/microlib/fpdiv.c                0x00000000   Number         0  ddiv.o ABSOLUTE
    ../fplib/microlib/fpepilogue.c           0x00000000   Number         0  depilogue.o ABSOLUTE
    ../fplib/microlib/fpfix.c                0x00000000   Number         0  dfixul.o ABSOLUTE
    ../fplib/microlib/fpmul.c                0x00000000   Number         0  dmul.o ABSOLUTE
    ..\..\..\..\..\..\components\boards\boards.c 0x00000000   Number         0  boards.o ABSOLUTE
    ..\..\..\..\..\..\components\libraries\atomic\nrf_atomic.c 0x00000000   Number         0  nrf_atomic.o ABSOLUTE
    ..\..\..\..\..\..\components\libraries\balloc\nrf_balloc.c 0x00000000   Number         0  nrf_balloc.o ABSOLUTE
    ..\..\..\..\..\..\components\libraries\fifo\app_fifo.c 0x00000000   Number         0  app_fifo.o ABSOLUTE
    ..\..\..\..\..\..\components\libraries\log\src\nrf_log_frontend.c 0x00000000   Number         0  nrf_log_frontend.o ABSOLUTE
    ..\..\..\..\..\..\components\libraries\log\src\nrf_log_str_formatter.c 0x00000000   Number         0  nrf_log_str_formatter.o ABSOLUTE
    ..\..\..\..\..\..\components\libraries\memobj\nrf_memobj.c 0x00000000   Number         0  nrf_memobj.o ABSOLUTE
    ..\..\..\..\..\..\components\libraries\ringbuf\nrf_ringbuf.c 0x00000000   Number         0  nrf_ringbuf.o ABSOLUTE
    ..\..\..\..\..\..\components\libraries\strerror\nrf_strerror.c 0x00000000   Number         0  nrf_strerror.o ABSOLUTE
    ..\..\..\..\..\..\components\libraries\uart\app_uart_fifo.c 0x00000000   Number         0  app_uart_fifo.o ABSOLUTE
    ..\..\..\..\..\..\components\libraries\uart\retarget.c 0x00000000   Number         0  retarget.o ABSOLUTE
    ..\..\..\..\..\..\components\libraries\util\app_error.c 0x00000000   Number         0  app_error.o ABSOLUTE
    ..\..\..\..\..\..\components\libraries\util\app_error_handler_keil.c 0x00000000   Number         0  app_error_handler_keil.o ABSOLUTE
    ..\..\..\..\..\..\components\libraries\util\app_error_weak.c 0x00000000   Number         0  app_error_weak.o ABSOLUTE
    ..\..\..\..\..\..\components\libraries\util\app_util_platform.c 0x00000000   Number         0  app_util_platform.o ABSOLUTE
    ..\..\..\..\..\..\components\libraries\util\nrf_assert.c 0x00000000   Number         0  nrf_assert.o ABSOLUTE
    ..\..\..\..\..\..\external\fprintf\nrf_fprintf.c 0x00000000   Number         0  nrf_fprintf.o ABSOLUTE
    ..\..\..\..\..\..\external\fprintf\nrf_fprintf_format.c 0x00000000   Number         0  nrf_fprintf_format.o ABSOLUTE
    ..\..\..\..\..\..\integration\nrfx\legacy\nrf_drv_uart.c 0x00000000   Number         0  nrf_drv_uart.o ABSOLUTE
    ..\..\..\..\..\..\modules\nrfx\drivers\src\nrfx_uart.c 0x00000000   Number         0  nrfx_uart.o ABSOLUTE
    ..\..\..\..\..\..\modules\nrfx\drivers\src\nrfx_uarte.c 0x00000000   Number         0  nrfx_uarte.o ABSOLUTE
    ..\..\..\..\..\..\modules\nrfx\drivers\src\prs\nrfx_prs.c 0x00000000   Number         0  nrfx_prs.o ABSOLUTE
    ..\..\..\..\..\..\modules\nrfx\soc\nrfx_atomic.c 0x00000000   Number         0  nrfx_atomic.o ABSOLUTE
    ..\..\..\main.c                          0x00000000   Number         0  main.o ABSOLUTE
    ..\\..\\..\\..\\..\\..\\components\\boards\\boards.c 0x00000000   Number         0  boards.o ABSOLUTE
    ..\\..\\..\\..\\..\\..\\components\\libraries\\atomic\\nrf_atomic.c 0x00000000   Number         0  nrf_atomic.o ABSOLUTE
    ..\\..\\..\\..\\..\\..\\components\\libraries\\balloc\\nrf_balloc.c 0x00000000   Number         0  nrf_balloc.o ABSOLUTE
    ..\\..\\..\\..\\..\\..\\components\\libraries\\fifo\\app_fifo.c 0x00000000   Number         0  app_fifo.o ABSOLUTE
    ..\\..\\..\\..\\..\\..\\components\\libraries\\log\\src\\nrf_log_frontend.c 0x00000000   Number         0  nrf_log_frontend.o ABSOLUTE
    ..\\..\\..\\..\\..\\..\\components\\libraries\\log\\src\\nrf_log_str_formatter.c 0x00000000   Number         0  nrf_log_str_formatter.o ABSOLUTE
    ..\\..\\..\\..\\..\\..\\components\\libraries\\memobj\\nrf_memobj.c 0x00000000   Number         0  nrf_memobj.o ABSOLUTE
    ..\\..\\..\\..\\..\\..\\components\\libraries\\ringbuf\\nrf_ringbuf.c 0x00000000   Number         0  nrf_ringbuf.o ABSOLUTE
    ..\\..\\..\\..\\..\\..\\components\\libraries\\strerror\\nrf_strerror.c 0x00000000   Number         0  nrf_strerror.o ABSOLUTE
    ..\\..\\..\\..\\..\\..\\components\\libraries\\uart\\app_uart_fifo.c 0x00000000   Number         0  app_uart_fifo.o ABSOLUTE
    ..\\..\\..\\..\\..\\..\\components\\libraries\\uart\\retarget.c 0x00000000   Number         0  retarget.o ABSOLUTE
    ..\\..\\..\\..\\..\\..\\components\\libraries\\util\\app_error.c 0x00000000   Number         0  app_error.o ABSOLUTE
    ..\\..\\..\\..\\..\\..\\components\\libraries\\util\\app_error_handler_keil.c 0x00000000   Number         0  app_error_handler_keil.o ABSOLUTE
    ..\\..\\..\\..\\..\\..\\components\\libraries\\util\\app_error_weak.c 0x00000000   Number         0  app_error_weak.o ABSOLUTE
    ..\\..\\..\\..\\..\\..\\components\\libraries\\util\\app_util_platform.c 0x00000000   Number         0  app_util_platform.o ABSOLUTE
    ..\\..\\..\\..\\..\\..\\components\\libraries\\util\\nrf_assert.c 0x00000000   Number         0  nrf_assert.o ABSOLUTE
    ..\\..\\..\\..\\..\\..\\external\\fprintf\\nrf_fprintf.c 0x00000000   Number         0  nrf_fprintf.o ABSOLUTE
    ..\\..\\..\\..\\..\\..\\external\\fprintf\\nrf_fprintf_format.c 0x00000000   Number         0  nrf_fprintf_format.o ABSOLUTE
    ..\\..\\..\\..\\..\\..\\integration\\nrfx\\legacy\\nrf_drv_uart.c 0x00000000   Number         0  nrf_drv_uart.o ABSOLUTE
    ..\\..\\..\\..\\..\\..\\modules\\nrfx\\drivers\\src\\nrfx_uart.c 0x00000000   Number         0  nrfx_uart.o ABSOLUTE
    ..\\..\\..\\..\\..\\..\\modules\\nrfx\\drivers\\src\\nrfx_uarte.c 0x00000000   Number         0  nrfx_uarte.o ABSOLUTE
    ..\\..\\..\\..\\..\\..\\modules\\nrfx\\drivers\\src\\prs\\nrfx_prs.c 0x00000000   Number         0  nrfx_prs.o ABSOLUTE
    ..\\..\\..\\..\\..\\..\\modules\\nrfx\\soc\\nrfx_atomic.c 0x00000000   Number         0  nrfx_atomic.o ABSOLUTE
    ..\\..\\..\\main.c                       0x00000000   Number         0  main.o ABSOLUTE
    RTE\Device\nRF52805_xxAA\arm_startup_nrf52805.s 0x00000000   Number         0  arm_startup_nrf52805.o ABSOLUTE
    RTE\Device\nRF52805_xxAA\system_nrf52805.c 0x00000000   Number         0  system_nrf52805.o ABSOLUTE
    RTE\\Device\\nRF52805_xxAA\\system_nrf52805.c 0x00000000   Number         0  system_nrf52805.o ABSOLUTE
    cdrcmple.s                               0x00000000   Number         0  cdrcmple.o ABSOLUTE
    dc.s                                     0x00000000   Number         0  dc.o ABSOLUTE
    handlers.s                               0x00000000   Number         0  handlers.o ABSOLUTE
    init.s                                   0x00000000   Number         0  init.o ABSOLUTE
    .ARM.Collect$$$$00000000                 0x00000200   Section        0  entry.o(.ARM.Collect$$$$00000000)
    .ARM.Collect$$$$00000001                 0x00000200   Section        4  entry2.o(.ARM.Collect$$$$00000001)
    .ARM.Collect$$$$00000004                 0x00000204   Section        4  entry5.o(.ARM.Collect$$$$00000004)
    .ARM.Collect$$$$00000008                 0x00000208   Section        0  entry7b.o(.ARM.Collect$$$$00000008)
    .ARM.Collect$$$$0000000A                 0x00000208   Section        0  entry8b.o(.ARM.Collect$$$$0000000A)
    .ARM.Collect$$$$0000000B                 0x00000208   Section        8  entry9a.o(.ARM.Collect$$$$0000000B)
    .ARM.Collect$$$$0000000D                 0x00000210   Section        0  entry10a.o(.ARM.Collect$$$$0000000D)
    .ARM.Collect$$$$0000000F                 0x00000210   Section        0  entry11a.o(.ARM.Collect$$$$0000000F)
    .ARM.Collect$$$$00002712                 0x00000210   Section        4  entry2.o(.ARM.Collect$$$$00002712)
    __lit__00000000                          0x00000210   Data           4  entry2.o(.ARM.Collect$$$$00002712)
    .text                                    0x00000214   Section       36  arm_startup_nrf52805.o(.text)
    .text                                    0x00000238   Section        0  memcpya.o(.text)
    .text                                    0x0000025c   Section       36  init.o(.text)
    i.SystemInit                             0x00000280   Section        0  system_nrf52805.o(i.SystemInit)
    i.UARTE0_UART0_IRQHandler                0x00000410   Section        0  nrfx_prs.o(i.UARTE0_UART0_IRQHandler)
    i.__0printf$bare                         0x0000041c   Section        0  printfb.o(i.__0printf$bare)
    i.__scatterload_copy                     0x0000042c   Section       14  handlers.o(i.__scatterload_copy)
    i.__scatterload_null                     0x0000043a   Section        2  handlers.o(i.__scatterload_null)
    i.__scatterload_zeroinit                 0x0000043c   Section       14  handlers.o(i.__scatterload_zeroinit)
    i._printf_core                           0x0000044a   Section        0  printfb.o(i._printf_core)
    _printf_core                             0x0000044b   Thumb Code    34  printfb.o(i._printf_core)
    i.app_error_fault_handler                0x0000046c   Section        0  app_error_weak.o(i.app_error_fault_handler)
    i.app_error_handler_bare                 0x0000049c   Section        0  app_error.o(i.app_error_handler_bare)
    i.app_fifo_get                           0x000004b2   Section        0  app_fifo.o(i.app_fifo_get)
    i.app_fifo_init                          0x000004c8   Section        0  app_fifo.o(i.app_fifo_init)
    i.app_fifo_put                           0x000004e8   Section        0  app_fifo.o(i.app_fifo_put)
    i.app_uart_get                           0x00000504   Section        0  app_uart_fifo.o(i.app_uart_get)
    i.app_uart_init                          0x00000538   Section        0  app_uart_fifo.o(i.app_uart_init)
    i.app_uart_put                           0x000005dc   Section        0  app_uart_fifo.o(i.app_uart_put)
    i.app_util_critical_region_enter         0x00000630   Section        0  app_util_platform.o(i.app_util_critical_region_enter)
    i.app_util_critical_region_exit          0x00000634   Section        0  app_util_platform.o(i.app_util_critical_region_exit)
    i.app_util_disable_irq                   0x00000638   Section        0  app_util_platform.o(i.app_util_disable_irq)
    i.app_util_enable_irq                    0x00000648   Section        0  app_util_platform.o(i.app_util_enable_irq)
    i.apply_config                           0x0000065c   Section        0  nrfx_uart.o(i.apply_config)
    apply_config                             0x0000065d   Thumb Code   136  nrfx_uart.o(i.apply_config)
    i.apply_config                           0x000006e4   Section        0  nrfx_uarte.o(i.apply_config)
    apply_config                             0x000006e5   Thumb Code   136  nrfx_uarte.o(i.apply_config)
    i.bsp_board_init                         0x0000076c   Section        0  boards.o(i.bsp_board_init)
    i.fifo_get                               0x00000794   Section        0  app_fifo.o(i.fifo_get)
    fifo_get                                 0x00000795   Thumb Code    20  app_fifo.o(i.fifo_get)
    i.fifo_put                               0x000007a8   Section        0  app_fifo.o(i.fifo_put)
    fifo_put                                 0x000007a9   Thumb Code    18  app_fifo.o(i.fifo_put)
    i.fputc                                  0x000007ba   Section        0  retarget.o(i.fputc)
    i.interrupts_enable                      0x000007c8   Section        0  nrfx_uarte.o(i.interrupts_enable)
    interrupts_enable                        0x000007c9   Thumb Code   132  nrfx_uarte.o(i.interrupts_enable)
    i.main                                   0x00000850   Section        0  main.o(i.main)
    i.nrf_drv_uart_init                      0x000008f0   Section        0  nrf_drv_uart.o(i.nrf_drv_uart_init)
    i.nrf_drv_uart_rx                        0x00000958   Section        0  app_uart_fifo.o(i.nrf_drv_uart_rx)
    nrf_drv_uart_rx                          0x00000959   Thumb Code    26  app_uart_fifo.o(i.nrf_drv_uart_rx)
    i.nrf_drv_uart_tx                        0x00000978   Section        0  app_uart_fifo.o(i.nrf_drv_uart_tx)
    nrf_drv_uart_tx                          0x00000979   Thumb Code    26  app_uart_fifo.o(i.nrf_drv_uart_tx)
    i.nrf_gpio_cfg                           0x00000998   Section        0  nrfx_uart.o(i.nrf_gpio_cfg)
    nrf_gpio_cfg                             0x00000999   Thumb Code    36  nrfx_uart.o(i.nrf_gpio_cfg)
    i.nrf_gpio_cfg                           0x000009bc   Section        0  nrfx_uarte.o(i.nrf_gpio_cfg)
    nrf_gpio_cfg                             0x000009bd   Thumb Code    36  nrfx_uarte.o(i.nrf_gpio_cfg)
    i.nrf_gpio_cfg_input                     0x000009e0   Section        0  nrfx_uart.o(i.nrf_gpio_cfg_input)
    nrf_gpio_cfg_input                       0x000009e1   Thumb Code    18  nrfx_uart.o(i.nrf_gpio_cfg_input)
    i.nrf_gpio_cfg_input                     0x000009f2   Section        0  nrfx_uarte.o(i.nrf_gpio_cfg_input)
    nrf_gpio_cfg_input                       0x000009f3   Thumb Code    18  nrfx_uarte.o(i.nrf_gpio_cfg_input)
    i.nrf_gpio_cfg_output                    0x00000a04   Section        0  nrfx_uart.o(i.nrf_gpio_cfg_output)
    nrf_gpio_cfg_output                      0x00000a05   Thumb Code    20  nrfx_uart.o(i.nrf_gpio_cfg_output)
    i.nrf_gpio_cfg_output                    0x00000a18   Section        0  nrfx_uarte.o(i.nrf_gpio_cfg_output)
    nrf_gpio_cfg_output                      0x00000a19   Thumb Code    20  nrfx_uarte.o(i.nrf_gpio_cfg_output)
    i.nrf_uart_event_check                   0x00000a2c   Section        0  nrfx_uart.o(i.nrf_uart_event_check)
    nrf_uart_event_check                     0x00000a2d   Thumb Code    10  nrfx_uart.o(i.nrf_uart_event_check)
    i.nrf_uart_event_clear                   0x00000a36   Section        0  nrfx_uart.o(i.nrf_uart_event_clear)
    nrf_uart_event_clear                     0x00000a37   Thumb Code    12  nrfx_uart.o(i.nrf_uart_event_clear)
    i.nrf_uart_int_enable_check              0x00000a42   Section        0  nrfx_uart.o(i.nrf_uart_int_enable_check)
    nrf_uart_int_enable_check                0x00000a43   Thumb Code    12  nrfx_uart.o(i.nrf_uart_int_enable_check)
    i.nrf_uarte_event_check                  0x00000a4e   Section        0  nrfx_uarte.o(i.nrf_uarte_event_check)
    nrf_uarte_event_check                    0x00000a4f   Thumb Code    10  nrfx_uarte.o(i.nrf_uarte_event_check)
    i.nrf_uarte_event_clear                  0x00000a58   Section        0  nrfx_uarte.o(i.nrf_uarte_event_clear)
    nrf_uarte_event_clear                    0x00000a59   Thumb Code    12  nrfx_uarte.o(i.nrf_uarte_event_clear)
    i.nrfx_is_in_ram                         0x00000a64   Section        0  nrfx_uarte.o(i.nrfx_is_in_ram)
    nrfx_is_in_ram                           0x00000a65   Thumb Code    16  nrfx_uarte.o(i.nrfx_is_in_ram)
    i.nrfx_prs_acquire                       0x00000a74   Section        0  nrfx_prs.o(i.nrfx_prs_acquire)
    i.nrfx_uart_0_irq_handler                0x00000aa4   Section        0  nrfx_uart.o(i.nrfx_uart_0_irq_handler)
    i.nrfx_uart_init                         0x00000ab4   Section        0  nrfx_uart.o(i.nrfx_uart_init)
    i.nrfx_uart_rx                           0x00000b88   Section        0  nrfx_uart.o(i.nrfx_uart_rx)
    i.nrfx_uart_tx                           0x00000c74   Section        0  nrfx_uart.o(i.nrfx_uart_tx)
    i.nrfx_uart_tx_in_progress               0x00000d1c   Section        0  nrfx_uart.o(i.nrfx_uart_tx_in_progress)
    i.nrfx_uarte_0_irq_handler               0x00000d3c   Section        0  nrfx_uarte.o(i.nrfx_uarte_0_irq_handler)
    i.nrfx_uarte_init                        0x00000d4c   Section        0  nrfx_uarte.o(i.nrfx_uarte_init)
    i.nrfx_uarte_rx                          0x00000db8   Section        0  nrfx_uarte.o(i.nrfx_uarte_rx)
    i.nrfx_uarte_tx                          0x00000ebc   Section        0  nrfx_uarte.o(i.nrfx_uarte_tx)
    i.nrfx_uarte_tx_in_progress              0x00000f68   Section        0  nrfx_uarte.o(i.nrfx_uarte_tx_in_progress)
    i.prs_box_get                            0x00000f84   Section        0  nrfx_prs.o(i.prs_box_get)
    prs_box_get                              0x00000f85   Thumb Code    14  nrfx_prs.o(i.prs_box_get)
    i.rx_byte                                0x00000f9c   Section        0  nrfx_uart.o(i.rx_byte)
    rx_byte                                  0x00000f9d   Thumb Code    50  nrfx_uart.o(i.rx_byte)
    i.rx_done_event                          0x00000fce   Section        0  nrfx_uart.o(i.rx_done_event)
    rx_done_event                            0x00000fcf   Thumb Code    22  nrfx_uart.o(i.rx_done_event)
    i.rx_done_event                          0x00000fe4   Section        0  nrfx_uarte.o(i.rx_done_event)
    rx_done_event                            0x00000fe5   Thumb Code    22  nrfx_uarte.o(i.rx_done_event)
    i.rx_enable                              0x00000ffa   Section        0  nrfx_uart.o(i.rx_enable)
    rx_enable                                0x00000ffb   Thumb Code    32  nrfx_uart.o(i.rx_enable)
    i.tx_byte                                0x0000101a   Section        0  nrfx_uart.o(i.tx_byte)
    tx_byte                                  0x0000101b   Thumb Code    32  nrfx_uart.o(i.tx_byte)
    i.tx_done_event                          0x0000103a   Section        0  nrfx_uart.o(i.tx_done_event)
    tx_done_event                            0x0000103b   Thumb Code    26  nrfx_uart.o(i.tx_done_event)
    i.tx_done_event                          0x00001054   Section        0  nrfx_uarte.o(i.tx_done_event)
    tx_done_event                            0x00001055   Thumb Code    26  nrfx_uarte.o(i.tx_done_event)
    i.uart_error_handle                      0x0000106e   Section        0  main.o(i.uart_error_handle)
    i.uart_event_handler                     0x00001080   Section        0  app_uart_fifo.o(i.uart_event_handler)
    uart_event_handler                       0x00001081   Thumb Code   156  app_uart_fifo.o(i.uart_event_handler)
    i.uart_evt_handler                       0x00001124   Section        0  nrf_drv_uart.o(i.uart_evt_handler)
    uart_evt_handler                         0x00001125   Thumb Code    42  nrf_drv_uart.o(i.uart_evt_handler)
    i.uart_irq_handler                       0x00001154   Section        0  nrfx_uart.o(i.uart_irq_handler)
    uart_irq_handler                         0x00001155   Thumb Code   298  nrfx_uart.o(i.uart_irq_handler)
    i.uarte_evt_handler                      0x00001280   Section        0  nrf_drv_uart.o(i.uarte_evt_handler)
    uarte_evt_handler                        0x00001281   Thumb Code    42  nrf_drv_uart.o(i.uarte_evt_handler)
    i.uarte_irq_handler                      0x000012b0   Section        0  nrfx_uarte.o(i.uarte_irq_handler)
    uarte_irq_handler                        0x000012b1   Thumb Code   274  nrfx_uarte.o(i.uarte_irq_handler)
    .constdata                               0x000013c4   Section       24  main.o(.constdata)
    .constdata                               0x000013dc   Section        4  boards.o(.constdata)
    m_board_btn_list                         0x000013dc   Data           4  boards.o(.constdata)
    .constdata                               0x000013e0   Section        4  nrfx_uart.o(.constdata)
    irq_handlers                             0x000013e0   Data           4  nrfx_uart.o(.constdata)
    .constdata                               0x000013e4   Section        4  nrfx_uarte.o(.constdata)
    irq_handlers                             0x000013e4   Data           4  nrfx_uarte.o(.constdata)
    .constdata                               0x000013e8   Section       32  app_uart_fifo.o(.constdata)
    .data                                    0x20000000   Section       12  nrf_drv_uart.o(.data)
    m_handlers                               0x20000004   Data           4  nrf_drv_uart.o(.data)
    m_contexts                               0x20000008   Data           4  nrf_drv_uart.o(.data)
    .data                                    0x2000000c   Section        8  nrfx_prs.o(.data)
    m_prs_box_2                              0x2000000c   Data           8  nrfx_prs.o(.data)
    .data                                    0x20000014   Section       28  app_uart_fifo.o(.data)
    tx_buffer                                0x20000014   Data           1  app_uart_fifo.o(.data)
    rx_buffer                                0x20000015   Data           1  app_uart_fifo.o(.data)
    m_rx_ovf                                 0x20000016   Data           1  app_uart_fifo.o(.data)
    m_event_handler                          0x20000018   Data           4  app_uart_fifo.o(.data)
    app_uart_inst                            0x2000001c   Data          20  app_uart_fifo.o(.data)
    .data                                    0x20000030   Section        4  app_util_platform.o(.data)
    m_in_critical_region                     0x20000030   Data           4  app_util_platform.o(.data)
    .data                                    0x20000034   Section        4  retarget.o(.data)
    .data                                    0x20000038   Section        4  system_nrf52805.o(.data)
    __tagsym$$used                           0x20000038   Number         0  system_nrf52805.o(.data)
    .bss                                     0x2000003c   Section      512  main.o(.bss)
    rx_buf                                   0x2000003c   Data         256  main.o(.bss)
    tx_buf                                   0x2000013c   Data         256  main.o(.bss)
    .bss                                     0x2000023c   Section       44  nrfx_uart.o(.bss)
    m_cb                                     0x2000023c   Data          44  nrfx_uart.o(.bss)
    .bss                                     0x20000268   Section       36  nrfx_uarte.o(.bss)
    m_cb                                     0x20000268   Data          36  nrfx_uarte.o(.bss)
    .bss                                     0x2000028c   Section       32  app_uart_fifo.o(.bss)
    m_rx_fifo                                0x2000028c   Data          16  app_uart_fifo.o(.bss)
    m_tx_fifo                                0x2000029c   Data          16  app_uart_fifo.o(.bss)
    STACK                                    0x200002b0   Section     2048  arm_startup_nrf52805.o(STACK)

    Global Symbols

    Symbol Name                              Value     Ov Type        Size  Object(Section)

    BuildAttributes$$THM_ISAv4$E$P$D$K$B$S$7EM$PE$A:L22UL41UL21$X:L11$S22US41US21$IEEE1$IW$USESV6$~STKCKD$USESV7$~SHL$OSPACE$ROPI$EBA8$MICROLIB$REQ8$EABIv2 0x00000000   Number         0  anon$$obj.o ABSOLUTE
    __ARM_use_no_argv                        0x00000000   Number         0  main.o ABSOLUTE
    __Vectors                                0x00000000   Data           4  arm_startup_nrf52805.o(RESET)
    __cpp_initialize__aeabi_                  - Undefined Weak Reference
    __cxa_finalize                            - Undefined Weak Reference
    __decompress                              - Undefined Weak Reference
    _clock_init                               - Undefined Weak Reference
    _microlib_exit                            - Undefined Weak Reference
    __Vectors_End                            0x00000200   Data           0  arm_startup_nrf52805.o(RESET)
    __Vectors_Size                           0x00000200   Number         0  arm_startup_nrf52805.o ABSOLUTE
    __main                                   0x00000201   Thumb Code     0  entry.o(.ARM.Collect$$$$00000000)
    _main_stk                                0x00000201   Thumb Code     0  entry2.o(.ARM.Collect$$$$00000001)
    _main_scatterload                        0x00000205   Thumb Code     0  entry5.o(.ARM.Collect$$$$00000004)
    __main_after_scatterload                 0x00000209   Thumb Code     0  entry5.o(.ARM.Collect$$$$00000004)
    _main_clock                              0x00000209   Thumb Code     0  entry7b.o(.ARM.Collect$$$$00000008)
    _main_cpp_init                           0x00000209   Thumb Code     0  entry8b.o(.ARM.Collect$$$$0000000A)
    _main_init                               0x00000209   Thumb Code     0  entry9a.o(.ARM.Collect$$$$0000000B)
    __rt_final_cpp                           0x00000211   Thumb Code     0  entry10a.o(.ARM.Collect$$$$0000000D)
    __rt_final_exit                          0x00000211   Thumb Code     0  entry11a.o(.ARM.Collect$$$$0000000F)
    Reset_Handler                            0x00000215   Thumb Code     8  arm_startup_nrf52805.o(.text)
    NMI_Handler                              0x0000021d   Thumb Code     2  arm_startup_nrf52805.o(.text)
    HardFault_Handler                        0x0000021f   Thumb Code     2  arm_startup_nrf52805.o(.text)
    MemoryManagement_Handler                 0x00000221   Thumb Code     2  arm_startup_nrf52805.o(.text)
    BusFault_Handler                         0x00000223   Thumb Code     2  arm_startup_nrf52805.o(.text)
    UsageFault_Handler                       0x00000225   Thumb Code     2  arm_startup_nrf52805.o(.text)
    SVC_Handler                              0x00000227   Thumb Code     2  arm_startup_nrf52805.o(.text)
    DebugMon_Handler                         0x00000229   Thumb Code     2  arm_startup_nrf52805.o(.text)
    PendSV_Handler                           0x0000022b   Thumb Code     2  arm_startup_nrf52805.o(.text)
    SysTick_Handler                          0x0000022d   Thumb Code     2  arm_startup_nrf52805.o(.text)
    CCM_AAR_IRQHandler                       0x0000022f   Thumb Code     0  arm_startup_nrf52805.o(.text)
    ECB_IRQHandler                           0x0000022f   Thumb Code     0  arm_startup_nrf52805.o(.text)
    GPIOTE_IRQHandler                        0x0000022f   Thumb Code     0  arm_startup_nrf52805.o(.text)
    POWER_CLOCK_IRQHandler                   0x0000022f   Thumb Code     0  arm_startup_nrf52805.o(.text)
    QDEC_IRQHandler                          0x0000022f   Thumb Code     0  arm_startup_nrf52805.o(.text)
    RADIO_IRQHandler                         0x0000022f   Thumb Code     0  arm_startup_nrf52805.o(.text)
    RNG_IRQHandler                           0x0000022f   Thumb Code     0  arm_startup_nrf52805.o(.text)
    RTC0_IRQHandler                          0x0000022f   Thumb Code     0  arm_startup_nrf52805.o(.text)
    RTC1_IRQHandler                          0x0000022f   Thumb Code     0  arm_startup_nrf52805.o(.text)
    SAADC_IRQHandler                         0x0000022f   Thumb Code     0  arm_startup_nrf52805.o(.text)
    SPIM0_SPIS0_SPI0_IRQHandler              0x0000022f   Thumb Code     0  arm_startup_nrf52805.o(.text)
    SWI0_EGU0_IRQHandler                     0x0000022f   Thumb Code     0  arm_startup_nrf52805.o(.text)
    SWI1_EGU1_IRQHandler                     0x0000022f   Thumb Code     0  arm_startup_nrf52805.o(.text)
    SWI2_IRQHandler                          0x0000022f   Thumb Code     0  arm_startup_nrf52805.o(.text)
    SWI3_IRQHandler                          0x0000022f   Thumb Code     0  arm_startup_nrf52805.o(.text)
    SWI4_IRQHandler                          0x0000022f   Thumb Code     0  arm_startup_nrf52805.o(.text)
    SWI5_IRQHandler                          0x0000022f   Thumb Code     0  arm_startup_nrf52805.o(.text)
    TEMP_IRQHandler                          0x0000022f   Thumb Code     0  arm_startup_nrf52805.o(.text)
    TIMER0_IRQHandler                        0x0000022f   Thumb Code     0  arm_startup_nrf52805.o(.text)
    TIMER1_IRQHandler                        0x0000022f   Thumb Code     0  arm_startup_nrf52805.o(.text)
    TIMER2_IRQHandler                        0x0000022f   Thumb Code     0  arm_startup_nrf52805.o(.text)
    TWIM0_TWIS0_TWI0_IRQHandler              0x0000022f   Thumb Code     0  arm_startup_nrf52805.o(.text)
    WDT_IRQHandler                           0x0000022f   Thumb Code     0  arm_startup_nrf52805.o(.text)
    __aeabi_memcpy                           0x00000239   Thumb Code    36  memcpya.o(.text)
    __aeabi_memcpy4                          0x00000239   Thumb Code     0  memcpya.o(.text)
    __aeabi_memcpy8                          0x00000239   Thumb Code     0  memcpya.o(.text)
    __scatterload                            0x0000025d   Thumb Code    28  init.o(.text)
    __scatterload_rt2                        0x0000025d   Thumb Code     0  init.o(.text)
    SystemInit                               0x00000281   Thumb Code   356  system_nrf52805.o(i.SystemInit)
    UARTE0_UART0_IRQHandler                  0x00000411   Thumb Code     6  nrfx_prs.o(i.UARTE0_UART0_IRQHandler)
    __0printf$bare                           0x0000041d   Thumb Code     8  printfb.o(i.__0printf$bare)
    __1printf$bare                           0x0000041d   Thumb Code     0  printfb.o(i.__0printf$bare)
    __2printf                                0x0000041d   Thumb Code     0  printfb.o(i.__0printf$bare)
    __scatterload_copy                       0x0000042d   Thumb Code    14  handlers.o(i.__scatterload_copy)
    __scatterload_null                       0x0000043b   Thumb Code     2  handlers.o(i.__scatterload_null)
    __scatterload_zeroinit                   0x0000043d   Thumb Code    14  handlers.o(i.__scatterload_zeroinit)
    app_error_fault_handler                  0x0000046d   Thumb Code    40  app_error_weak.o(i.app_error_fault_handler)
    app_error_handler_bare                   0x0000049d   Thumb Code    22  app_error.o(i.app_error_handler_bare)
    app_fifo_get                             0x000004b3   Thumb Code    22  app_fifo.o(i.app_fifo_get)
    app_fifo_init                            0x000004c9   Thumb Code    32  app_fifo.o(i.app_fifo_init)
    app_fifo_put                             0x000004e9   Thumb Code    26  app_fifo.o(i.app_fifo_put)
    app_uart_get                             0x00000505   Thumb Code    42  app_uart_fifo.o(i.app_uart_get)
    app_uart_init                            0x00000539   Thumb Code   148  app_uart_fifo.o(i.app_uart_init)
    app_uart_put                             0x000005dd   Thumb Code    70  app_uart_fifo.o(i.app_uart_put)
    app_util_critical_region_enter           0x00000631   Thumb Code     4  app_util_platform.o(i.app_util_critical_region_enter)
    app_util_critical_region_exit            0x00000635   Thumb Code     4  app_util_platform.o(i.app_util_critical_region_exit)
    app_util_disable_irq                     0x00000639   Thumb Code    12  app_util_platform.o(i.app_util_disable_irq)
    app_util_enable_irq                      0x00000649   Thumb Code    14  app_util_platform.o(i.app_util_enable_irq)
    bsp_board_init                           0x0000076d   Thumb Code    34  boards.o(i.bsp_board_init)
    fputc                                    0x000007bb   Thumb Code    14  retarget.o(i.fputc)
    main                                     0x00000851   Thumb Code   104  main.o(i.main)
    nrf_drv_uart_init                        0x000008f1   Thumb Code    90  nrf_drv_uart.o(i.nrf_drv_uart_init)
    nrfx_prs_acquire                         0x00000a75   Thumb Code    48  nrfx_prs.o(i.nrfx_prs_acquire)
    nrfx_uart_0_irq_handler                  0x00000aa5   Thumb Code     8  nrfx_uart.o(i.nrfx_uart_0_irq_handler)
    nrfx_uart_init                           0x00000ab5   Thumb Code   200  nrfx_uart.o(i.nrfx_uart_init)
    nrfx_uart_rx                             0x00000b89   Thumb Code   230  nrfx_uart.o(i.nrfx_uart_rx)
    nrfx_uart_tx                             0x00000c75   Thumb Code   162  nrfx_uart.o(i.nrfx_uart_tx)
    nrfx_uart_tx_in_progress                 0x00000d1d   Thumb Code    26  nrfx_uart.o(i.nrfx_uart_tx_in_progress)
    nrfx_uarte_0_irq_handler                 0x00000d3d   Thumb Code     8  nrfx_uarte.o(i.nrfx_uarte_0_irq_handler)
    nrfx_uarte_init                          0x00000d4d   Thumb Code   100  nrfx_uarte.o(i.nrfx_uarte_init)
    nrfx_uarte_rx                            0x00000db9   Thumb Code   256  nrfx_uarte.o(i.nrfx_uarte_rx)
    nrfx_uarte_tx                            0x00000ebd   Thumb Code   166  nrfx_uarte.o(i.nrfx_uarte_tx)
    nrfx_uarte_tx_in_progress                0x00000f69   Thumb Code    22  nrfx_uarte.o(i.nrfx_uarte_tx_in_progress)
    uart_error_handle                        0x0000106f   Thumb Code    18  main.o(i.uart_error_handle)
    Region$$Table$$Base                      0x00001408   Number         0  anon$$obj.o(Region$$Table)
    Region$$Table$$Limit                     0x00001428   Number         0  anon$$obj.o(Region$$Table)
    nrf_drv_uart_use_easy_dma                0x20000000   Data           1  nrf_drv_uart.o(.data)
    __stdout                                 0x20000034   Data           4  retarget.o(.data)
    SystemCoreClock                          0x20000038   Data           4  system_nrf52805.o(.data)
    __initial_sp                             0x20000ab0   Data           0  arm_startup_nrf52805.o(STACK)



==============================================================================

Memory Map of the image

  Image Entry point : 0x00000201

  Load Region LR_IROM1 (Base: 0x00000000, Size: 0x00001464, Max: 0x00030000, ABSOLUTE)

    Execution Region ER_IROM1 (Exec base: 0x00000000, Load base: 0x00000000, Size: 0x00001428, Max: 0x00030000, ABSOLUTE)

    Exec Addr    Load Addr    Size         Type   Attr      Idx    E Section Name        Object

    0x00000000   0x00000000   0x00000200   Data   RO         1730    RESET               arm_startup_nrf52805.o
    0x00000200   0x00000200   0x00000000   Code   RO         1786  * .ARM.Collect$$$$00000000  mc_w.l(entry.o)
    0x00000200   0x00000200   0x00000004   Code   RO         2055    .ARM.Collect$$$$00000001  mc_w.l(entry2.o)
    0x00000204   0x00000204   0x00000004   Code   RO         2058    .ARM.Collect$$$$00000004  mc_w.l(entry5.o)
    0x00000208   0x00000208   0x00000000   Code   RO         2060    .ARM.Collect$$$$00000008  mc_w.l(entry7b.o)
    0x00000208   0x00000208   0x00000000   Code   RO         2062    .ARM.Collect$$$$0000000A  mc_w.l(entry8b.o)
    0x00000208   0x00000208   0x00000008   Code   RO         2063    .ARM.Collect$$$$0000000B  mc_w.l(entry9a.o)
    0x00000210   0x00000210   0x00000000   Code   RO         2065    .ARM.Collect$$$$0000000D  mc_w.l(entry10a.o)
    0x00000210   0x00000210   0x00000000   Code   RO         2067    .ARM.Collect$$$$0000000F  mc_w.l(entry11a.o)
    0x00000210   0x00000210   0x00000004   Code   RO         2056    .ARM.Collect$$$$00002712  mc_w.l(entry2.o)
    0x00000214   0x00000214   0x00000024   Code   RO         1731    .text               arm_startup_nrf52805.o
    0x00000238   0x00000238   0x00000024   Code   RO         1789    .text               mc_w.l(memcpya.o)
    0x0000025c   0x0000025c   0x00000024   Code   RO         2084    .text               mc_w.l(init.o)
    0x00000280   0x00000280   0x00000190   Code   RO         1739    i.SystemInit        system_nrf52805.o
    0x00000410   0x00000410   0x0000000c   Code   RO          435    i.UARTE0_UART0_IRQHandler  nrfx_prs.o
    0x0000041c   0x0000041c   0x00000010   Code   RO         1796    i.__0printf$bare    mc_w.l(printfb.o)
    0x0000042c   0x0000042c   0x0000000e   Code   RO         2096    i.__scatterload_copy  mc_w.l(handlers.o)
    0x0000043a   0x0000043a   0x00000002   Code   RO         2097    i.__scatterload_null  mc_w.l(handlers.o)
    0x0000043c   0x0000043c   0x0000000e   Code   RO         2098    i.__scatterload_zeroinit  mc_w.l(handlers.o)
    0x0000044a   0x0000044a   0x00000022   Code   RO         1803    i._printf_core      mc_w.l(printfb.o)
    0x0000046c   0x0000046c   0x00000030   Code   RO          929    i.app_error_fault_handler  app_error_weak.o
    0x0000049c   0x0000049c   0x00000016   Code   RO          863    i.app_error_handler_bare  app_error.o
    0x000004b2   0x000004b2   0x00000016   Code   RO          981    i.app_fifo_get      app_fifo.o
    0x000004c8   0x000004c8   0x00000020   Code   RO          982    i.app_fifo_init     app_fifo.o
    0x000004e8   0x000004e8   0x0000001a   Code   RO          984    i.app_fifo_put      app_fifo.o
    0x00000502   0x00000502   0x00000002   PAD
    0x00000504   0x00000504   0x00000034   Code   RO         1058    i.app_uart_get      app_uart_fifo.o
    0x00000538   0x00000538   0x000000a4   Code   RO         1059    i.app_uart_init     app_uart_fifo.o
    0x000005dc   0x000005dc   0x00000054   Code   RO         1060    i.app_uart_put      app_uart_fifo.o
    0x00000630   0x00000630   0x00000004   Code   RO         1133    i.app_util_critical_region_enter  app_util_platform.o
    0x00000634   0x00000634   0x00000004   Code   RO         1134    i.app_util_critical_region_exit  app_util_platform.o
    0x00000638   0x00000638   0x00000010   Code   RO         1135    i.app_util_disable_irq  app_util_platform.o
    0x00000648   0x00000648   0x00000014   Code   RO         1136    i.app_util_enable_irq  app_util_platform.o
    0x0000065c   0x0000065c   0x00000088   Code   RO          514    i.apply_config      nrfx_uart.o
    0x000006e4   0x000006e4   0x00000088   Code   RO          706    i.apply_config      nrfx_uarte.o
    0x0000076c   0x0000076c   0x00000028   Code   RO          186    i.bsp_board_init    boards.o
    0x00000794   0x00000794   0x00000014   Code   RO          987    i.fifo_get          app_fifo.o
    0x000007a8   0x000007a8   0x00000012   Code   RO          988    i.fifo_put          app_fifo.o
    0x000007ba   0x000007ba   0x0000000e   Code   RO         1658    i.fputc             retarget.o
    0x000007c8   0x000007c8   0x00000088   Code   RO          707    i.interrupts_enable  nrfx_uarte.o
    0x00000850   0x00000850   0x000000a0   Code   RO            4    i.main              main.o
    0x000008f0   0x000008f0   0x00000068   Code   RO          244    i.nrf_drv_uart_init  nrf_drv_uart.o
    0x00000958   0x00000958   0x00000020   Code   RO         1061    i.nrf_drv_uart_rx   app_uart_fifo.o
    0x00000978   0x00000978   0x00000020   Code   RO         1062    i.nrf_drv_uart_tx   app_uart_fifo.o
    0x00000998   0x00000998   0x00000024   Code   RO          515    i.nrf_gpio_cfg      nrfx_uart.o
    0x000009bc   0x000009bc   0x00000024   Code   RO          708    i.nrf_gpio_cfg      nrfx_uarte.o
    0x000009e0   0x000009e0   0x00000012   Code   RO          517    i.nrf_gpio_cfg_input  nrfx_uart.o
    0x000009f2   0x000009f2   0x00000012   Code   RO          710    i.nrf_gpio_cfg_input  nrfx_uarte.o
    0x00000a04   0x00000a04   0x00000014   Code   RO          518    i.nrf_gpio_cfg_output  nrfx_uart.o
    0x00000a18   0x00000a18   0x00000014   Code   RO          711    i.nrf_gpio_cfg_output  nrfx_uarte.o
    0x00000a2c   0x00000a2c   0x0000000a   Code   RO          519    i.nrf_uart_event_check  nrfx_uart.o
    0x00000a36   0x00000a36   0x0000000c   Code   RO          520    i.nrf_uart_event_clear  nrfx_uart.o
    0x00000a42   0x00000a42   0x0000000c   Code   RO          521    i.nrf_uart_int_enable_check  nrfx_uart.o
    0x00000a4e   0x00000a4e   0x0000000a   Code   RO          712    i.nrf_uarte_event_check  nrfx_uarte.o
    0x00000a58   0x00000a58   0x0000000c   Code   RO          713    i.nrf_uarte_event_clear  nrfx_uarte.o
    0x00000a64   0x00000a64   0x00000010   Code   RO          714    i.nrfx_is_in_ram    nrfx_uarte.o
    0x00000a74   0x00000a74   0x00000030   Code   RO          436    i.nrfx_prs_acquire  nrfx_prs.o
    0x00000aa4   0x00000aa4   0x00000010   Code   RO          522    i.nrfx_uart_0_irq_handler  nrfx_uart.o
    0x00000ab4   0x00000ab4   0x000000d4   Code   RO          524    i.nrfx_uart_init    nrfx_uart.o
    0x00000b88   0x00000b88   0x000000ec   Code   RO          525    i.nrfx_uart_rx      nrfx_uart.o
    0x00000c74   0x00000c74   0x000000a8   Code   RO          530    i.nrfx_uart_tx      nrfx_uart.o
    0x00000d1c   0x00000d1c   0x00000020   Code   RO          532    i.nrfx_uart_tx_in_progress  nrfx_uart.o
    0x00000d3c   0x00000d3c   0x00000010   Code   RO          715    i.nrfx_uarte_0_irq_handler  nrfx_uarte.o
    0x00000d4c   0x00000d4c   0x0000006c   Code   RO          717    i.nrfx_uarte_init   nrfx_uarte.o
    0x00000db8   0x00000db8   0x00000104   Code   RO          718    i.nrfx_uarte_rx     nrfx_uarte.o
    0x00000ebc   0x00000ebc   0x000000ac   Code   RO          721    i.nrfx_uarte_tx     nrfx_uarte.o
    0x00000f68   0x00000f68   0x0000001c   Code   RO          723    i.nrfx_uarte_tx_in_progress  nrfx_uarte.o
    0x00000f84   0x00000f84   0x00000018   Code   RO          438    i.prs_box_get       nrfx_prs.o
    0x00000f9c   0x00000f9c   0x00000032   Code   RO          534    i.rx_byte           nrfx_uart.o
    0x00000fce   0x00000fce   0x00000016   Code   RO          535    i.rx_done_event     nrfx_uart.o
    0x00000fe4   0x00000fe4   0x00000016   Code   RO          725    i.rx_done_event     nrfx_uarte.o
    0x00000ffa   0x00000ffa   0x00000020   Code   RO          536    i.rx_enable         nrfx_uart.o
    0x0000101a   0x0000101a   0x00000020   Code   RO          537    i.tx_byte           nrfx_uart.o
    0x0000103a   0x0000103a   0x0000001a   Code   RO          538    i.tx_done_event     nrfx_uart.o
    0x00001054   0x00001054   0x0000001a   Code   RO          726    i.tx_done_event     nrfx_uarte.o
    0x0000106e   0x0000106e   0x00000012   Code   RO            5    i.uart_error_handle  main.o
    0x00001080   0x00001080   0x000000a4   Code   RO         1063    i.uart_event_handler  app_uart_fifo.o
    0x00001124   0x00001124   0x00000030   Code   RO          245    i.uart_evt_handler  nrf_drv_uart.o
    0x00001154   0x00001154   0x0000012a   Code   RO          539    i.uart_irq_handler  nrfx_uart.o
    0x0000127e   0x0000127e   0x00000002   PAD
    0x00001280   0x00001280   0x00000030   Code   RO          246    i.uarte_evt_handler  nrf_drv_uart.o
    0x000012b0   0x000012b0   0x00000112   Code   RO          727    i.uarte_irq_handler  nrfx_uarte.o
    0x000013c2   0x000013c2   0x00000002   PAD
    0x000013c4   0x000013c4   0x00000018   Data   RO            7    .constdata          main.o
    0x000013dc   0x000013dc   0x00000004   Data   RO          188    .constdata          boards.o
    0x000013e0   0x000013e0   0x00000004   Data   RO          542    .constdata          nrfx_uart.o
    0x000013e4   0x000013e4   0x00000004   Data   RO          730    .constdata          nrfx_uarte.o
    0x000013e8   0x000013e8   0x00000020   Data   RO         1065    .constdata          app_uart_fifo.o
    0x00001408   0x00001408   0x00000020   Data   RO         2094    Region$$Table       anon$$obj.o


    Execution Region RW_IRAM1 (Exec base: 0x20000000, Load base: 0x00001428, Size: 0x00000ab0, Max: 0x00006000, ABSOLUTE)

    Exec Addr    Load Addr    Size         Type   Attr      Idx    E Section Name        Object

    0x20000000   0x00001428   0x0000000c   Data   RW          247    .data               nrf_drv_uart.o
    0x2000000c   0x00001434   0x00000008   Data   RW          440    .data               nrfx_prs.o
    0x20000014   0x0000143c   0x0000001c   Data   RW         1066    .data               app_uart_fifo.o
    0x20000030   0x00001458   0x00000004   Data   RW         1139    .data               app_util_platform.o
    0x20000034   0x0000145c   0x00000004   Data   RW         1659    .data               retarget.o
    0x20000038   0x00001460   0x00000004   Data   RW         1740    .data               system_nrf52805.o
    0x2000003c        -       0x00000200   Zero   RW            6    .bss                main.o
    0x2000023c        -       0x0000002c   Zero   RW          540    .bss                nrfx_uart.o
    0x20000268        -       0x00000024   Zero   RW          728    .bss                nrfx_uarte.o
    0x2000028c        -       0x00000020   Zero   RW         1064    .bss                app_uart_fifo.o
    0x200002ac   0x00001464   0x00000004   PAD
    0x200002b0        -       0x00000800   Zero   RW         1728    STACK               arm_startup_nrf52805.o


==============================================================================

Image component sizes


      Code (inc. data)   RO Data    RW Data    ZI Data      Debug   Object Name

        22          0          0          0          0       2493   app_error.o
         0          0          0          0          0        392   app_error_handler_keil.o
        48          8          0          0          0      30853   app_error_weak.o
       118          0          0          0          0       4822   app_fifo.o
       528         60         32         28         32      15898   app_uart_fifo.o
        44         10          0          4          0       3200   app_util_platform.o
        36          8        512          0       2048        888   arm_startup_nrf52805.o
        40          6          4          0          0       6045   boards.o
       178         56         24          0        512      39523   main.o
       200         26          0         12          0      17764   nrf_drv_uart.o
        84         16          0          8          0       3525   nrfx_prs.o
      1368         38          4          0         44      62003   nrfx_uart.o
      1290         36          4          0         36      24501   nrfx_uarte.o
        14          0          0          4          0       2850   retarget.o
       400         44          0          4          0      10975   system_nrf52805.o

    ----------------------------------------------------------------------
      4376        308        612         60       2676     225732   Object Totals
         0          0         32          0          0          0   (incl. Generated)
         6          0          0          0          4          0   (incl. Padding)

    ----------------------------------------------------------------------

      Code (inc. data)   RO Data    RW Data    ZI Data      Debug   Library Member Name

         0          0          0          0          0          0   entry.o
         0          0          0          0          0          0   entry10a.o
         0          0          0          0          0          0   entry11a.o
         8          4          0          0          0          0   entry2.o
         4          0          0          0          0          0   entry5.o
         0          0          0          0          0          0   entry7b.o
         0          0          0          0          0          0   entry8b.o
         8          4          0          0          0          0   entry9a.o
        30          0          0          0          0          0   handlers.o
        36          8          0          0          0         68   init.o
        36          0          0          0          0         68   memcpya.o
        50          8          0          0          0        152   printfb.o

    ----------------------------------------------------------------------
       172         24          0          0          0        288   Library Totals
         0          0          0          0          0          0   (incl. Padding)

    ----------------------------------------------------------------------

      Code (inc. data)   RO Data    RW Data    ZI Data      Debug   Library Name

       172         24          0          0          0        288   mc_w.l

    ----------------------------------------------------------------------
       172         24          0          0          0        288   Library Totals

    ----------------------------------------------------------------------

==============================================================================


      Code (inc. data)   RO Data    RW Data    ZI Data      Debug   

      4548        332        612         60       2676     223000   Grand Totals
      4548        332        612         60       2676     223000   ELF Image Totals
      4548        332        612         60          0          0   ROM Totals

==============================================================================

    Total RO  Size (Code + RO Data)                 5160 (   5.04kB)
    Total RW  Size (RW Data + ZI Data)              2736 (   2.67kB)
    Total ROM Size (Code + RO Data + RW Data)       5220 (   5.10kB)

==============================================================================

