Component: ARM Compiler 5.06 update 6 (build 750) Tool: armlink [4d35ed]

==============================================================================

Section Cross References

    main.o(i.advertising_start) refers to ble_advertising.o(i.ble_advertising_start) for ble_advertising_start
    main.o(i.advertising_start) refers to app_error.o(i.app_error_handler_bare) for app_error_handler_bare
    main.o(i.advertising_start) refers to main.o(.bss) for .bss
    main.o(i.assert_nrf_callback) refers to app_error_handler_keil.o(.emb_text) for app_error_handler
    main.o(i.at_command_handle) refers to strcmp.o(.text) for strcmp
    main.o(i.at_command_handle) refers to strncmp.o(.text) for strncmp
    main.o(i.at_command_handle) refers to main.o(i.erase_writename) for erase_writename
    main.o(i.at_command_handle) refers to strcpy.o(.text) for strcpy
    main.o(i.at_command_handle) refers to strcat.o(.text) for strcat
    main.o(i.at_command_handle) refers to main.o(.bss) for .bss
    main.o(i.at_command_handle) refers to main.o(.data) for .data
    main.o(i.at_command_handle) refers to main.o(.conststring) for .conststring
    main.o(i.at_command_handle) refers to main.o(.constdata) for .constdata
    main.o(i.at_command_handle) refers to main.o(i.nrf_delay_ms) for nrf_delay_ms
    main.o(i.at_command_handle) refers to app_uart_fifo.o(i.app_uart_close) for app_uart_close
    main.o(i.at_command_handle) refers to main.o(i.uart_init) for uart_init
    main.o(i.at_command_handle) refers to main.o(i.erase_writemac) for erase_writemac
    main.o(i.at_command_handle) refers to main.o(i.scan_start) for scan_start
==============================================================================

Removing Unused input sections from the image.

    Removing main.o(.rev16_text), (4 bytes).
    Removing main.o(.revsh_text), (4 bytes).
    Removing main.o(.rrx_text), (6 bytes).
    Removing main.o(i.assert_nrf_callback), (16 bytes).
    Removing main.o(i.get_tick_1ms), (12 bytes).
    Removing boards.o(.rev16_text), (4 bytes).
    Removing boards.o(.revsh_text), (4 bytes).
    Removing boards.o(.rrx_text), (6 bytes).
    Removing boards.o(i.bsp_board_button_state_get), (32 bytes).
    Removing boards.o(i.bsp_board_init), (40 bytes).
    Removing boards.o(i.bsp_board_pin_to_button_idx), (36 bytes).
    Removing bsp.o(.rev16_text), (4 bytes).
    Removing bsp.o(.revsh_text), (4 bytes).
    Removing bsp.o(.rrx_text), (6 bytes).
    Removing bsp.o(i.bsp_button_event_handler), (144 bytes).
    Removing bsp.o(i.bsp_button_is_pressed), (12 bytes).
    Removing bsp.o(i.bsp_buttons_disable), (4 bytes).
    Removing bsp.o(i.bsp_buttons_enable), (4 bytes).
==============================================================================

Image Symbol Table

    Local Symbols

    Symbol Name                              Value     Ov Type        Size  Object(Section)

    ../clib/../cmprslib/zerorunl2.c          0x00000000   Number         0  __dczerorl2.o ABSOLUTE
    ../clib/microlib/division.c              0x00000000   Number         0  uidiv.o ABSOLUTE
    ../clib/microlib/division.c              0x00000000   Number         0  uldiv.o ABSOLUTE
    ../clib/microlib/init/entry.s            0x00000000   Number         0  entry7b.o ABSOLUTE
    ../clib/microlib/init/entry.s            0x00000000   Number         0  entry10b.o ABSOLUTE
    ../clib/microlib/init/entry.s            0x00000000   Number         0  entry10a.o ABSOLUTE
    ../clib/microlib/init/entry.s            0x00000000   Number         0  entry2.o ABSOLUTE
    ../clib/microlib/init/entry.s            0x00000000   Number         0  entry11a.o ABSOLUTE
    ../clib/microlib/init/entry.s            0x00000000   Number         0  entry5.o ABSOLUTE
    ../clib/microlib/init/entry.s            0x00000000   Number         0  entry11b.o ABSOLUTE
    ../clib/microlib/init/entry.s            0x00000000   Number         0  entry7a.o ABSOLUTE
    ../clib/microlib/init/entry.s            0x00000000   Number         0  entry8a.o ABSOLUTE
    ../clib/microlib/init/entry.s            0x00000000   Number         0  entry8b.o ABSOLUTE
    ../clib/microlib/init/entry.s            0x00000000   Number         0  entry.o ABSOLUTE
    ../clib/microlib/init/entry.s            0x00000000   Number         0  entry9a.o ABSOLUTE
    ../clib/microlib/init/entry.s            0x00000000   Number         0  entry9b.o ABSOLUTE
    ../clib/microlib/longlong.c              0x00000000   Number         0  llsshr.o ABSOLUTE
    ../clib/microlib/longlong.c              0x00000000   Number         0  llushr.o ABSOLUTE
    ../clib/microlib/longlong.c              0x00000000   Number         0  llshl.o ABSOLUTE
    ../clib/microlib/printf/printf.c         0x00000000   Number         0  printf2.o ABSOLUTE
    ../clib/microlib/printf/printf.c         0x00000000   Number         0  printf1.o ABSOLUTE
    ../clib/microlib/printf/printf.c         0x00000000   Number         0  printf0.o ABSOLUTE
    ../clib/microlib/printf/printf.c         0x00000000   Number         0  printfb.o ABSOLUTE
    ../clib/microlib/printf/printf.c         0x00000000   Number         0  printf6.o ABSOLUTE
    ../clib/microlib/printf/printf.c         0x00000000   Number         0  printf4.o ABSOLUTE
    ../clib/microlib/printf/printf.c         0x00000000   Number         0  printfa.o ABSOLUTE
    ../clib/microlib/printf/printf.c         0x00000000   Number         0  printf8.o ABSOLUTE
    ../clib/microlib/printf/printf.c         0x00000000   Number         0  printf7.o ABSOLUTE
    ../clib/microlib/printf/printf.c         0x00000000   Number         0  printf5.o ABSOLUTE
    ../clib/microlib/printf/printf.c         0x00000000   Number         0  printf3.o ABSOLUTE
    ../clib/microlib/printf/stubs.s          0x00000000   Number         0  stubs.o ABSOLUTE
    ../clib/microlib/string/memcmp.c         0x00000000   Number         0  memcmp.o ABSOLUTE
    ../clib/microlib/string/memcpy.c         0x00000000   Number         0  memcpyb.o ABSOLUTE
    ../clib/microlib/string/memcpy.c         0x00000000   Number         0  memcpya.o ABSOLUTE
    ../clib/microlib/string/memset.c         0x00000000   Number         0  memseta.o ABSOLUTE
    ../clib/microlib/string/strcat.c         0x00000000   Number         0  strcat.o ABSOLUTE
    ../clib/microlib/string/strcmp.c         0x00000000   Number         0  strcmp.o ABSOLUTE
    ../clib/microlib/string/strcpy.c         0x00000000   Number         0  strcpy.o ABSOLUTE
    ../clib/microlib/string/strlen.c         0x00000000   Number         0  strlen.o ABSOLUTE
    ../clib/microlib/string/strncmp.c        0x00000000   Number         0  strncmp.o ABSOLUTE
    ../clib/microlib/string/strstr.c         0x00000000   Number         0  strstr.o ABSOLUTE
    ../clib/microlib/stubs.s                 0x00000000   Number         0  iusefp.o ABSOLUTE
    ../fplib/microlib/fpadd.c                0x00000000   Number         0  dadd.o ABSOLUTE
    ../fplib/microlib/fpdiv.c                0x00000000   Number         0  ddiv.o ABSOLUTE
    ../fplib/microlib/fpepilogue.c           0x00000000   Number         0  depilogue.o ABSOLUTE
    ../fplib/microlib/fpfix.c                0x00000000   Number         0  dfixul.o ABSOLUTE
    ../fplib/microlib/fpmul.c                0x00000000   Number         0  dmul.o ABSOLUTE
    ..\..\..\..\..\..\components\ble\ble_advertising\ble_advertising.c 0x00000000   Number         0  ble_advertising.o ABSOLUTE
    ..\..\..\..\..\..\components\ble\ble_db_discovery\ble_db_discovery.c 0x00000000   Number         0  ble_db_discovery.o ABSOLUTE
    ..\..\..\..\..\..\components\ble\ble_link_ctx_manager\ble_link_ctx_manager.c 0x00000000   Number         0  ble_link_ctx_manager.o ABSOLUTE
    ..\..\..\..\..\..\components\ble\common\ble_advdata.c 0x00000000   Number         0  ble_advdata.o ABSOLUTE
    ..\..\..\..\..\..\components\ble\common\ble_conn_params.c 0x00000000   Number         0  ble_conn_params.o ABSOLUTE
    ..\..\..\..\..\..\components\ble\common\ble_conn_state.c 0x00000000   Number         0  ble_conn_state.o ABSOLUTE
    ..\..\..\..\..\..\components\ble\common\ble_srv_common.c 0x00000000   Number         0  ble_srv_common.o ABSOLUTE
    ..\..\..\..\..\..\components\ble\nrf_ble_gatt\nrf_ble_gatt.c 0x00000000   Number         0  nrf_ble_gatt.o ABSOLUTE
    ..\..\..\..\..\..\components\ble\nrf_ble_gq\nrf_ble_gq.c 0x00000000   Number         0  nrf_ble_gq.o ABSOLUTE
    ..\..\..\..\..\..\components\ble\nrf_ble_qwr\nrf_ble_qwr.c 0x00000000   Number         0  nrf_ble_qwr.o ABSOLUTE
    ..\..\..\..\..\..\components\ble\nrf_ble_scan\nrf_ble_scan.c 0x00000000   Number         0  nrf_ble_scan.o ABSOLUTE
    ..\..\..\..\..\..\components\ble\peer_manager\auth_status_tracker.c 0x00000000   Number         0  auth_status_tracker.o ABSOLUTE
    ..\..\..\..\..\..\components\ble\peer_manager\nrf_ble_lesc.c 0x00000000   Number         0  nrf_ble_lesc.o ABSOLUTE
    ..\..\..\..\..\..\components\boards\boards.c 0x00000000   Number         0  boards.o ABSOLUTE
    ..\..\..\..\..\..\components\libraries\atomic\nrf_atomic.c 0x00000000   Number         0  nrf_atomic.o ABSOLUTE
    ..\..\..\..\..\..\components\libraries\atomic_fifo\nrf_atfifo.c 0x00000000   Number         0  nrf_atfifo.o ABSOLUTE
    ..\..\..\..\..\..\components\libraries\atomic_flags\nrf_atflags.c 0x00000000   Number         0  nrf_atflags.o ABSOLUTE
    ..\..\..\..\..\..\components\libraries\balloc\nrf_balloc.c 0x00000000   Number         0  nrf_balloc.o ABSOLUTE
    ..\..\..\..\..\..\components\libraries\bsp\bsp.c 0x00000000   Number         0  bsp.o ABSOLUTE
    ..\..\..\..\..\..\components\libraries\bsp\bsp_btn_ble.c 0x00000000   Number         0  bsp_btn_ble.o ABSOLUTE
    ..\..\..\..\..\..\components\libraries\button\app_button.c 0x00000000   Number         0  app_button.o ABSOLUTE
    ..\..\..\..\..\..\components\libraries\experimental_section_vars\nrf_section_iter.c 0x00000000   Number         0  nrf_section_iter.o ABSOLUTE
    ..\..\..\..\..\..\components\libraries\fifo\app_fifo.c 0x00000000   Number         0  app_fifo.o ABSOLUTE
    ..\..\..\..\..\..\components\libraries\fstorage\nrf_fstorage.c 0x00000000   Number         0  nrf_fstorage.o ABSOLUTE
    ..\..\..\..\..\..\components\libraries\fstorage\nrf_fstorage_sd.c 0x00000000   Number         0  nrf_fstorage_sd.o ABSOLUTE
    ..\..\..\..\..\..\components\libraries\hardfault\hardfault_implementation.c 0x00000000   Number         0  hardfault_implementation.o ABSOLUTE
    ..\..\..\..\..\..\components\libraries\log\src\nrf_log_backend_rtt.c 0x00000000   Number         0  nrf_log_backend_rtt.o ABSOLUTE
    ..\..\..\..\..\..\components\libraries\log\src\nrf_log_backend_serial.c 0x00000000   Number         0  nrf_log_backend_serial.o ABSOLUTE
    ..\..\..\..\..\..\components\libraries\log\src\nrf_log_default_backends.c 0x00000000   Number         0  nrf_log_default_backends.o ABSOLUTE
    ..\..\..\..\..\..\components\libraries\log\src\nrf_log_frontend.c 0x00000000   Number         0  nrf_log_frontend.o ABSOLUTE
    ..\..\..\..\..\..\components\libraries\log\src\nrf_log_str_formatter.c 0x00000000   Number         0  nrf_log_str_formatter.o ABSOLUTE
    ..\..\..\..\..\..\components\libraries\memobj\nrf_memobj.c 0x00000000   Number         0  nrf_memobj.o ABSOLUTE
    ..\..\..\..\..\..\components\libraries\pwr_mgmt\nrf_pwr_mgmt.c 0x00000000   Number         0  nrf_pwr_mgmt.o ABSOLUTE
    ..\..\..\..\..\..\components\libraries\queue\nrf_queue.c 0x00000000   Number         0  nrf_queue.o ABSOLUTE
    ..\..\..\..\..\..\components\libraries\ringbuf\nrf_ringbuf.c 0x00000000   Number         0  nrf_ringbuf.o ABSOLUTE
    ..\..\..\..\..\..\components\libraries\scheduler\app_scheduler.c 0x00000000   Number         0  app_scheduler.o ABSOLUTE
    ..\..\..\..\..\..\components\libraries\sortlist\nrf_sortlist.c 0x00000000   Number         0  nrf_sortlist.o ABSOLUTE
    ..\..\..\..\..\..\components\libraries\strerror\nrf_strerror.c 0x00000000   Number         0  nrf_strerror.o ABSOLUTE
    ..\..\..\..\..\..\components\libraries\timer\app_timer2.c 0x00000000   Number         0  app_timer2.o ABSOLUTE
    ..\..\..\..\..\..\components\libraries\timer\drv_rtc.c 0x00000000   Number         0  drv_rtc.o ABSOLUTE
    ..\..\..\..\..\..\components\libraries\uart\app_uart_fifo.c 0x00000000   Number         0  app_uart_fifo.o ABSOLUTE
    ..\..\..\..\..\..\components\libraries\uart\retarget.c 0x00000000   Number         0  retarget.o ABSOLUTE
    ..\..\..\..\..\..\components\libraries\util\app_error.c 0x00000000   Number         0  app_error.o ABSOLUTE
    ..\..\..\..\..\..\components\libraries\util\app_error_handler_keil.c 0x00000000   Number         0  app_error_handler_keil.o ABSOLUTE
    ..\..\..\..\..\..\components\libraries\util\app_error_weak.c 0x00000000   Number         0  app_error_weak.o ABSOLUTE
    ..\..\..\..\..\..\components\libraries\util\app_util_platform.c 0x00000000   Number         0  app_util_platform.o ABSOLUTE
    ..\..\..\..\..\..\components\libraries\util\nrf_assert.c 0x00000000   Number         0  nrf_assert.o ABSOLUTE
    ..\..\..\..\..\..\components\softdevice\common\nrf_sdh.c 0x00000000   Number         0  nrf_sdh.o ABSOLUTE
    ..\..\..\..\..\..\components\softdevice\common\nrf_sdh_ble.c 0x00000000   Number         0  nrf_sdh_ble.o ABSOLUTE
    ..\..\..\..\..\..\components\softdevice\common\nrf_sdh_soc.c 0x00000000   Number         0  nrf_sdh_soc.o ABSOLUTE
    ..\..\..\..\..\..\external\fprintf\nrf_fprintf.c 0x00000000   Number         0  nrf_fprintf.o ABSOLUTE
    ..\..\..\..\..\..\external\fprintf\nrf_fprintf_format.c 0x00000000   Number         0  nrf_fprintf_format.o ABSOLUTE
    ..\..\..\..\..\..\external\segger_rtt\SEGGER_RTT.c 0x00000000   Number         0  segger_rtt.o ABSOLUTE
    ..\..\..\..\..\..\external\segger_rtt\SEGGER_RTT_Syscalls_KEIL.c 0x00000000   Number         0  segger_rtt_syscalls_keil.o ABSOLUTE
    ..\..\..\..\..\..\external\segger_rtt\SEGGER_RTT_printf.c 0x00000000   Number         0  segger_rtt_printf.o ABSOLUTE
    ..\..\..\..\..\..\external\utf_converter\utf.c 0x00000000   Number         0  utf.o ABSOLUTE
    ..\..\..\..\..\..\integration\nrfx\legacy\nrf_drv_clock.c 0x00000000   Number         0  nrf_drv_clock.o ABSOLUTE
    ..\..\..\..\..\..\integration\nrfx\legacy\nrf_drv_uart.c 0x00000000   Number         0  nrf_drv_uart.o ABSOLUTE
    ..\..\..\..\..\..\modules\nrfx\drivers\src\nrfx_clock.c 0x00000000   Number         0  nrfx_clock.o ABSOLUTE
    ..\..\..\..\..\..\modules\nrfx\drivers\src\nrfx_gpiote.c 0x00000000   Number         0  nrfx_gpiote.o ABSOLUTE
    ..\..\..\..\..\..\modules\nrfx\drivers\src\nrfx_uart.c 0x00000000   Number         0  nrfx_uart.o ABSOLUTE
    ..\..\..\..\..\..\modules\nrfx\drivers\src\nrfx_uarte.c 0x00000000   Number         0  nrfx_uarte.o ABSOLUTE
    ..\..\..\..\..\..\modules\nrfx\drivers\src\prs\nrfx_prs.c 0x00000000   Number         0  nrfx_prs.o ABSOLUTE
    ..\..\..\..\..\..\modules\nrfx\soc\nrfx_atomic.c 0x00000000   Number         0  nrfx_atomic.o ABSOLUTE
    ..\..\..\ble_nus\ble_nus.c               0x00000000   Number         0  ble_nus.o ABSOLUTE
    ..\..\..\ble_nus_c\ble_nus_c.c           0x00000000   Number         0  ble_nus_c.o ABSOLUTE
    ..\..\..\main.c                          0x00000000   Number         0  main.o ABSOLUTE
    ..\\..\\..\\..\\..\\..\\components\\ble\\ble_advertising\\ble_advertising.c 0x00000000   Number         0  ble_advertising.o ABSOLUTE
    ..\\..\\..\\..\\..\\..\\components\\ble\\ble_db_discovery\\ble_db_discovery.c 0x00000000   Number         0  ble_db_discovery.o ABSOLUTE
    ..\\..\\..\\..\\..\\..\\components\\ble\\ble_link_ctx_manager\\ble_link_ctx_manager.c 0x00000000   Number         0  ble_link_ctx_manager.o ABSOLUTE
    ..\\..\\..\\..\\..\\..\\components\\ble\\common\\ble_advdata.c 0x00000000   Number         0  ble_advdata.o ABSOLUTE
    ..\\..\\..\\..\\..\\..\\components\\ble\\common\\ble_conn_params.c 0x00000000   Number         0  ble_conn_params.o ABSOLUTE
    ..\\..\\..\\..\\..\\..\\components\\ble\\common\\ble_conn_state.c 0x00000000   Number         0  ble_conn_state.o ABSOLUTE
    ..\\..\\..\\..\\..\\..\\components\\ble\\common\\ble_srv_common.c 0x00000000   Number         0  ble_srv_common.o ABSOLUTE
    ..\\..\\..\\..\\..\\..\\components\\ble\\nrf_ble_gatt\\nrf_ble_gatt.c 0x00000000   Number         0  nrf_ble_gatt.o ABSOLUTE
    ..\\..\\..\\..\\..\\..\\components\\ble\\nrf_ble_gq\\nrf_ble_gq.c 0x00000000   Number         0  nrf_ble_gq.o ABSOLUTE
    ..\\..\\..\\..\\..\\..\\components\\ble\\nrf_ble_qwr\\nrf_ble_qwr.c 0x00000000   Number         0  nrf_ble_qwr.o ABSOLUTE
    ..\\..\\..\\..\\..\\..\\components\\ble\\nrf_ble_scan\\nrf_ble_scan.c 0x00000000   Number         0  nrf_ble_scan.o ABSOLUTE
    ..\\..\\..\\..\\..\\..\\components\\ble\\peer_manager\\auth_status_tracker.c 0x00000000   Number         0  auth_status_tracker.o ABSOLUTE
    ..\\..\\..\\..\\..\\..\\components\\ble\\peer_manager\\nrf_ble_lesc.c 0x00000000   Number         0  nrf_ble_lesc.o ABSOLUTE
    ..\\..\\..\\..\\..\\..\\components\\boards\\boards.c 0x00000000   Number         0  boards.o ABSOLUTE
    ..\\..\\..\\..\\..\\..\\components\\libraries\\atomic\\nrf_atomic.c 0x00000000   Number         0  nrf_atomic.o ABSOLUTE
    ..\\..\\..\\..\\..\\..\\components\\libraries\\atomic_fifo\\nrf_atfifo.c 0x00000000   Number         0  nrf_atfifo.o ABSOLUTE
    ..\\..\\..\\..\\..\\..\\components\\libraries\\atomic_flags\\nrf_atflags.c 0x00000000   Number         0  nrf_atflags.o ABSOLUTE
    ..\\..\\..\\..\\..\\..\\components\\libraries\\balloc\\nrf_balloc.c 0x00000000   Number         0  nrf_balloc.o ABSOLUTE
    ..\\..\\..\\..\\..\\..\\components\\libraries\\bsp\\bsp.c 0x00000000   Number         0  bsp.o ABSOLUTE
    ..\\..\\..\\..\\..\\..\\components\\libraries\\bsp\\bsp_btn_ble.c 0x00000000   Number         0  bsp_btn_ble.o ABSOLUTE
    ..\\..\\..\\..\\..\\..\\components\\libraries\\button\\app_button.c 0x00000000   Number         0  app_button.o ABSOLUTE
    ..\\..\\..\\..\\..\\..\\components\\libraries\\experimental_section_vars\\nrf_section_iter.c 0x00000000   Number         0  nrf_section_iter.o ABSOLUTE
    ..\\..\\..\\..\\..\\..\\components\\libraries\\fifo\\app_fifo.c 0x00000000   Number         0  app_fifo.o ABSOLUTE
    ..\\..\\..\\..\\..\\..\\components\\libraries\\fstorage\\nrf_fstorage.c 0x00000000   Number         0  nrf_fstorage.o ABSOLUTE
    ..\\..\\..\\..\\..\\..\\components\\libraries\\fstorage\\nrf_fstorage_sd.c 0x00000000   Number         0  nrf_fstorage_sd.o ABSOLUTE
    ..\\..\\..\\..\\..\\..\\components\\libraries\\hardfault\\hardfault_implementation.c 0x00000000   Number         0  hardfault_implementation.o ABSOLUTE
    ..\\..\\..\\..\\..\\..\\components\\libraries\\log\\src\\nrf_log_backend_rtt.c 0x00000000   Number         0  nrf_log_backend_rtt.o ABSOLUTE
    ..\\..\\..\\..\\..\\..\\components\\libraries\\log\\src\\nrf_log_backend_serial.c 0x00000000   Number         0  nrf_log_backend_serial.o ABSOLUTE
    ..\\..\\..\\..\\..\\..\\components\\libraries\\log\\src\\nrf_log_default_backends.c 0x00000000   Number         0  nrf_log_default_backends.o ABSOLUTE
    ..\\..\\..\\..\\..\\..\\components\\libraries\\log\\src\\nrf_log_frontend.c 0x00000000   Number         0  nrf_log_frontend.o ABSOLUTE
    ..\\..\\..\\..\\..\\..\\components\\libraries\\log\\src\\nrf_log_str_formatter.c 0x00000000   Number         0  nrf_log_str_formatter.o ABSOLUTE
    ..\\..\\..\\..\\..\\..\\components\\libraries\\memobj\\nrf_memobj.c 0x00000000   Number         0  nrf_memobj.o ABSOLUTE
    ..\\..\\..\\..\\..\\..\\components\\libraries\\pwr_mgmt\\nrf_pwr_mgmt.c 0x00000000   Number         0  nrf_pwr_mgmt.o ABSOLUTE
    ..\\..\\..\\..\\..\\..\\components\\libraries\\queue\\nrf_queue.c 0x00000000   Number         0  nrf_queue.o ABSOLUTE
    ..\\..\\..\\..\\..\\..\\components\\libraries\\ringbuf\\nrf_ringbuf.c 0x00000000   Number         0  nrf_ringbuf.o ABSOLUTE
    ..\\..\\..\\..\\..\\..\\components\\libraries\\scheduler\\app_scheduler.c 0x00000000   Number         0  app_scheduler.o ABSOLUTE
    ..\\..\\..\\..\\..\\..\\components\\libraries\\sortlist\\nrf_sortlist.c 0x00000000   Number         0  nrf_sortlist.o ABSOLUTE
    ..\\..\\..\\..\\..\\..\\components\\libraries\\strerror\\nrf_strerror.c 0x00000000   Number         0  nrf_strerror.o ABSOLUTE
    ..\\..\\..\\..\\..\\..\\components\\libraries\\timer\\app_timer2.c 0x00000000   Number         0  app_timer2.o ABSOLUTE
    ..\\..\\..\\..\\..\\..\\components\\libraries\\timer\\drv_rtc.c 0x00000000   Number         0  drv_rtc.o ABSOLUTE
    ..\\..\\..\\..\\..\\..\\components\\libraries\\uart\\app_uart_fifo.c 0x00000000   Number         0  app_uart_fifo.o ABSOLUTE
    ..\\..\\..\\..\\..\\..\\components\\libraries\\uart\\retarget.c 0x00000000   Number         0  retarget.o ABSOLUTE
    ..\\..\\..\\..\\..\\..\\components\\libraries\\util\\app_error.c 0x00000000   Number         0  app_error.o ABSOLUTE
    ..\\..\\..\\..\\..\\..\\components\\libraries\\util\\app_error_handler_keil.c 0x00000000   Number         0  app_error_handler_keil.o ABSOLUTE
    ..\\..\\..\\..\\..\\..\\components\\libraries\\util\\app_error_weak.c 0x00000000   Number         0  app_error_weak.o ABSOLUTE
    ..\\..\\..\\..\\..\\..\\components\\libraries\\util\\app_util_platform.c 0x00000000   Number         0  app_util_platform.o ABSOLUTE
    ..\\..\\..\\..\\..\\..\\components\\libraries\\util\\nrf_assert.c 0x00000000   Number         0  nrf_assert.o ABSOLUTE
    ..\\..\\..\\..\\..\\..\\components\\softdevice\\common\\nrf_sdh.c 0x00000000   Number         0  nrf_sdh.o ABSOLUTE
    ..\\..\\..\\..\\..\\..\\components\\softdevice\\common\\nrf_sdh_ble.c 0x00000000   Number         0  nrf_sdh_ble.o ABSOLUTE
    ..\\..\\..\\..\\..\\..\\components\\softdevice\\common\\nrf_sdh_soc.c 0x00000000   Number         0  nrf_sdh_soc.o ABSOLUTE
    ..\\..\\..\\..\\..\\..\\external\\fprintf\\nrf_fprintf.c 0x00000000   Number         0  nrf_fprintf.o ABSOLUTE
    ..\\..\\..\\..\\..\\..\\external\\fprintf\\nrf_fprintf_format.c 0x00000000   Number         0  nrf_fprintf_format.o ABSOLUTE
    ..\\..\\..\\..\\..\\..\\external\\segger_rtt\\SEGGER_RTT.c 0x00000000   Number         0  segger_rtt.o ABSOLUTE
    ..\\..\\..\\..\\..\\..\\external\\segger_rtt\\SEGGER_RTT_printf.c 0x00000000   Number         0  segger_rtt_printf.o ABSOLUTE
    ..\\..\\..\\..\\..\\..\\integration\\nrfx\\legacy\\nrf_drv_clock.c 0x00000000   Number         0  nrf_drv_clock.o ABSOLUTE
    ..\\..\\..\\..\\..\\..\\integration\\nrfx\\legacy\\nrf_drv_uart.c 0x00000000   Number         0  nrf_drv_uart.o ABSOLUTE
    ..\\..\\..\\..\\..\\..\\modules\\nrfx\\drivers\\src\\nrfx_clock.c 0x00000000   Number         0  nrfx_clock.o ABSOLUTE
    ..\\..\\..\\..\\..\\..\\modules\\nrfx\\drivers\\src\\nrfx_gpiote.c 0x00000000   Number         0  nrfx_gpiote.o ABSOLUTE
    ..\\..\\..\\..\\..\\..\\modules\\nrfx\\drivers\\src\\nrfx_uart.c 0x00000000   Number         0  nrfx_uart.o ABSOLUTE
    ..\\..\\..\\..\\..\\..\\modules\\nrfx\\drivers\\src\\nrfx_uarte.c 0x00000000   Number         0  nrfx_uarte.o ABSOLUTE
    ..\\..\\..\\..\\..\\..\\modules\\nrfx\\drivers\\src\\prs\\nrfx_prs.c 0x00000000   Number         0  nrfx_prs.o ABSOLUTE
    ..\\..\\..\\..\\..\\..\\modules\\nrfx\\soc\\nrfx_atomic.c 0x00000000   Number         0  nrfx_atomic.o ABSOLUTE
    ..\\..\\..\\ble_nus\\ble_nus.c           0x00000000   Number         0  ble_nus.o ABSOLUTE
    ..\\..\\..\\ble_nus_c\\ble_nus_c.c       0x00000000   Number         0  ble_nus_c.o ABSOLUTE
    ..\\..\\..\\main.c                       0x00000000   Number         0  main.o ABSOLUTE
    RTE\Device\nRF52805_xxAA\arm_startup_nrf52805.s 0x00000000   Number         0  arm_startup_nrf52805.o ABSOLUTE
    RTE\Device\nRF52805_xxAA\system_nrf52.c  0x00000000   Number         0  system_nrf52.o ABSOLUTE
    RTE\\Device\\nRF52805_xxAA\\system_nrf52.c 0x00000000   Number         0  system_nrf52.o ABSOLUTE
    cdrcmple.s                               0x00000000   Number         0  cdrcmple.o ABSOLUTE
    dc.s                                     0x00000000   Number         0  dc.o ABSOLUTE
    handlers.s                               0x00000000   Number         0  handlers.o ABSOLUTE
    init.s                                   0x00000000   Number         0  init.o ABSOLUTE
    RESET                                    0x00026000   Section      512  arm_startup_nrf52805.o(RESET)
    .ARM.Collect$$$$00000000                 0x00026200   Section        0  entry.o(.ARM.Collect$$$$00000000)
    .ARM.Collect$$$$00000001                 0x00026200   Section        4  entry2.o(.ARM.Collect$$$$00000001)
    .ARM.Collect$$$$00000004                 0x00026204   Section        4  entry5.o(.ARM.Collect$$$$00000004)
    .ARM.Collect$$$$00000008                 0x00026208   Section        0  entry7b.o(.ARM.Collect$$$$00000008)
    .ARM.Collect$$$$0000000A                 0x00026208   Section        0  entry8b.o(.ARM.Collect$$$$0000000A)
    .ARM.Collect$$$$0000000B                 0x00026208   Section        8  entry9a.o(.ARM.Collect$$$$0000000B)
    .ARM.Collect$$$$0000000D                 0x00026210   Section        0  entry10a.o(.ARM.Collect$$$$0000000D)
    .ARM.Collect$$$$0000000F                 0x00026210   Section        0  entry11a.o(.ARM.Collect$$$$0000000F)
    .ARM.Collect$$$$00002712                 0x00026210   Section        4  entry2.o(.ARM.Collect$$$$00002712)
    __lit__00000000                          0x00026210   Data           4  entry2.o(.ARM.Collect$$$$00002712)
    .emb_text                                0x00026214   Section      200  nrf_atfifo.o(.emb_text)
    .emb_text                                0x000262dc   Section      226  nrf_atomic.o(.emb_text)
    .text                                    0x000263c0   Section       36  arm_startup_nrf52805.o(.text)
    .text                                    0x000263e4   Section        0  llshl.o(.text)
    .text                                    0x00026402   Section        0  memcpya.o(.text)
    .text                                    0x00026426   Section        0  memseta.o(.text)
    .text                                    0x0002644a   Section        0  strcat.o(.text)
    .text                                    0x00026462   Section        0  strstr.o(.text)
    .text                                    0x00026486   Section        0  strlen.o(.text)
    .text                                    0x00026494   Section        0  strcmp.o(.text)
    .text                                    0x000264b0   Section        0  memcmp.o(.text)
    .text                                    0x000264ca   Section        0  strcpy.o(.text)
    .text                                    0x000264dc   Section        0  strncmp.o(.text)
    .text                                    0x000264fa   Section        0  uldiv.o(.text)
    .text                                    0x0002655c   Section       36  init.o(.text)
    .text                                    0x00026580   Section        0  llushr.o(.text)
    .text                                    0x000265a0   Section        0  __dczerorl2.o(.text)
    i.GPIOTE_IRQHandler                      0x000265f8   Section        0  nrfx_gpiote.o(i.GPIOTE_IRQHandler)
    i.POWER_CLOCK_IRQHandler                 0x0002669c   Section        0  nrfx_clock.o(i.POWER_CLOCK_IRQHandler)
    i.RTC1_IRQHandler                        0x000266ec   Section        0  drv_rtc.o(i.RTC1_IRQHandler)
    i.SWI2_IRQHandler                        0x000266fc   Section        0  nrf_sdh.o(i.SWI2_IRQHandler)
    i.SystemInit                             0x00026700   Section        0  system_nrf52.o(i.SystemInit)
    i.UARTE0_UART0_IRQHandler                0x00026984   Section        0  nrfx_prs.o(i.UARTE0_UART0_IRQHandler)
    i.__0printf$8                            0x00026990   Section        0  printf8.o(i.__0printf$8)
    i.__scatterload_copy                     0x000269b0   Section       14  handlers.o(i.__scatterload_copy)
    i.__scatterload_null                     0x000269be   Section        2  handlers.o(i.__scatterload_null)
    i.__scatterload_zeroinit                 0x000269c0   Section       14  handlers.o(i.__scatterload_zeroinit)
    i.__sd_nvic_app_accessible_irq           0x000269d0   Section        0  nrf_sdh.o(i.__sd_nvic_app_accessible_irq)
    __sd_nvic_app_accessible_irq             0x000269d1   Thumb Code    32  nrf_sdh.o(i.__sd_nvic_app_accessible_irq)
    i._printf_core                           0x000269f4   Section        0  printf8.o(i._printf_core)
    _printf_core                             0x000269f5   Thumb Code   996  printf8.o(i._printf_core)
    i._printf_post_padding                   0x00026e04   Section        0  printf8.o(i._printf_post_padding)
    _printf_post_padding                     0x00026e05   Thumb Code    36  printf8.o(i._printf_post_padding)
    i._printf_pre_padding                    0x00026e28   Section        0  printf8.o(i._printf_pre_padding)
    _printf_pre_padding                      0x00026e29   Thumb Code    46  printf8.o(i._printf_pre_padding)
    i.addr_is_aligned32                      0x00026e56   Section        0  nrf_fstorage.o(i.addr_is_aligned32)
    addr_is_aligned32                        0x00026e57   Thumb Code    12  nrf_fstorage.o(i.addr_is_aligned32)
    i.addr_is_within_bounds                  0x00026e62   Section        0  nrf_fstorage.o(i.addr_is_within_bounds)
    addr_is_within_bounds                    0x00026e63   Thumb Code    24  nrf_fstorage.o(i.addr_is_within_bounds)
    i.adv_set_data_size_max_get              0x00026e7a   Section        0  ble_advertising.o(i.adv_set_data_size_max_get)
    adv_set_data_size_max_get                0x00026e7b   Thumb Code    16  ble_advertising.o(i.adv_set_data_size_max_get)
    i.advertising_buttons_configure          0x00026e8a   Section        0  bsp_btn_ble.o(i.advertising_buttons_configure)
    advertising_buttons_configure            0x00026e8b   Thumb Code    54  bsp_btn_ble.o(i.advertising_buttons_configure)
    i.advertising_start                      0x00026ec0   Section        0  main.o(i.advertising_start)
    advertising_start                        0x00026ec1   Thumb Code    24  main.o(i.advertising_start)
    i.app_error_fault_handler                0x00026edc   Section        0  app_error_weak.o(i.app_error_fault_handler)
    i.app_error_handler_bare                 0x00026f0c   Section        0  app_error.o(i.app_error_handler_bare)
    i.app_fifo_get                           0x00026f22   Section        0  app_fifo.o(i.app_fifo_get)
    i.app_fifo_init                          0x00026f38   Section        0  app_fifo.o(i.app_fifo_init)
    i.app_fifo_put                           0x00026f58   Section        0  app_fifo.o(i.app_fifo_put)
    i.app_timer_cnt_get                      0x00026f74   Section        0  app_timer2.o(i.app_timer_cnt_get)
    i.app_timer_create                       0x00026f80   Section        0  app_timer2.o(i.app_timer_create)
    i.app_timer_init                         0x00026f98   Section        0  app_timer2.o(i.app_timer_init)
    i.app_timer_start                        0x00026ff4   Section        0  app_timer2.o(i.app_timer_start)
    i.app_timer_stop                         0x00027024   Section        0  app_timer2.o(i.app_timer_stop)
    i.app_uart_close                         0x00027030   Section        0  app_uart_fifo.o(i.app_uart_close)
    i.app_uart_get                           0x00027058   Section        0  app_uart_fifo.o(i.app_uart_get)
    i.app_uart_init                          0x0002708c   Section        0  app_uart_fifo.o(i.app_uart_init)
    i.app_uart_put                           0x00027130   Section        0  app_uart_fifo.o(i.app_uart_put)
    i.app_util_critical_region_enter         0x00027184   Section        0  app_util_platform.o(i.app_util_critical_region_enter)
    i.app_util_critical_region_exit          0x000271cc   Section        0  app_util_platform.o(i.app_util_critical_region_exit)
    i.apply_config                           0x00027200   Section        0  nrfx_uart.o(i.apply_config)
    apply_config                             0x00027201   Thumb Code   136  nrfx_uart.o(i.apply_config)
    i.apply_config                           0x00027288   Section        0  nrfx_uarte.o(i.apply_config)
    apply_config                             0x00027289   Thumb Code   136  nrfx_uarte.o(i.apply_config)
    i.at_command_handle                      0x00027310   Section        0  main.o(i.at_command_handle)
    i.blcm_link_ctx_get                      0x00027a80   Section        0  ble_link_ctx_manager.o(i.blcm_link_ctx_get)
    i.ble_advdata_encode                     0x00027ac8   Section        0  ble_advdata.o(i.ble_advdata_encode)
    i.ble_advdata_name_find                  0x00027c4a   Section        0  ble_advdata.o(i.ble_advdata_name_find)
    i.ble_advdata_parse                      0x00027c8e   Section        0  ble_advdata.o(i.ble_advdata_parse)
    i.ble_advdata_search                     0x00027cae   Section        0  ble_advdata.o(i.ble_advdata_search)
    i.ble_advdata_uuid_find                  0x00027cf4   Section        0  ble_advdata.o(i.ble_advdata_uuid_find)
    i.ble_advertising_conn_cfg_tag_set       0x00027daa   Section        0  ble_advertising.o(i.ble_advertising_conn_cfg_tag_set)
    i.ble_advertising_init                   0x00027db0   Section        0  ble_advertising.o(i.ble_advertising_init)
    i.ble_advertising_on_ble_evt             0x00027ea8   Section        0  ble_advertising.o(i.ble_advertising_on_ble_evt)
    i.ble_advertising_start                  0x00027f12   Section        0  ble_advertising.o(i.ble_advertising_start)
    i.ble_central_evt_handler                0x00028144   Section        0  main.o(i.ble_central_evt_handler)
    ble_central_evt_handler                  0x00028145   Thumb Code   142  main.o(i.ble_central_evt_handler)
    i.ble_conn_params_init                   0x000281dc   Section        0  ble_conn_params.o(i.ble_conn_params_init)
    i.ble_conn_state_conn_idx                0x00028244   Section        0  ble_conn_state.o(i.ble_conn_state_conn_idx)
    i.ble_conn_state_role                    0x00028258   Section        0  ble_conn_state.o(i.ble_conn_state_role)
    i.ble_conn_state_valid                   0x0002827c   Section        0  ble_conn_state.o(i.ble_conn_state_valid)
    i.ble_db_discovery_evt_register          0x00028290   Section        0  ble_db_discovery.o(i.ble_db_discovery_evt_register)
    i.ble_db_discovery_init                  0x000282d0   Section        0  ble_db_discovery.o(i.ble_db_discovery_init)
    i.ble_db_discovery_on_ble_evt            0x000282f4   Section        0  ble_db_discovery.o(i.ble_db_discovery_on_ble_evt)
    i.ble_db_discovery_start                 0x00028350   Section        0  ble_db_discovery.o(i.ble_db_discovery_start)
    i.ble_device_addr_encode                 0x00028378   Section        0  ble_advdata.o(i.ble_device_addr_encode)
    ble_device_addr_encode                   0x00028379   Thumb Code    96  ble_advdata.o(i.ble_device_addr_encode)
    i.ble_evt_handler                        0x000283d8   Section        0  main.o(i.ble_evt_handler)
    ble_evt_handler                          0x000283d9   Thumb Code    56  main.o(i.ble_evt_handler)
    i.ble_evt_handler                        0x00028410   Section        0  bsp_btn_ble.o(i.ble_evt_handler)
    ble_evt_handler                          0x00028411   Thumb Code   106  bsp_btn_ble.o(i.ble_evt_handler)
    i.ble_evt_handler                        0x00028480   Section        0  ble_conn_params.o(i.ble_evt_handler)
    ble_evt_handler                          0x00028481   Thumb Code   242  ble_conn_params.o(i.ble_evt_handler)
    i.ble_evt_handler                        0x0002857c   Section        0  ble_conn_state.o(i.ble_evt_handler)
    ble_evt_handler                          0x0002857d   Thumb Code   274  ble_conn_state.o(i.ble_evt_handler)
    i.ble_nus_c_evt_handler                  0x00028694   Section        0  main.o(i.ble_nus_c_evt_handler)
    ble_nus_c_evt_handler                    0x00028695   Thumb Code    90  main.o(i.ble_nus_c_evt_handler)
    i.ble_nus_c_handles_assign               0x000286f4   Section        0  ble_nus_c.o(i.ble_nus_c_handles_assign)
    i.ble_nus_c_init                         0x00028710   Section        0  ble_nus_c.o(i.ble_nus_c_init)
    i.ble_nus_c_on_ble_evt                   0x0002876c   Section        0  ble_nus_c.o(i.ble_nus_c_on_ble_evt)
    i.ble_nus_c_on_db_disc_evt               0x000287d8   Section        0  ble_nus_c.o(i.ble_nus_c_on_db_disc_evt)
    i.ble_nus_c_string_send                  0x00028860   Section        0  ble_nus_c.o(i.ble_nus_c_string_send)
    i.ble_nus_c_tx_notif_enable              0x000288c8   Section        0  ble_nus_c.o(i.ble_nus_c_tx_notif_enable)
    i.ble_nus_data_send                      0x00028934   Section        0  ble_nus.o(i.ble_nus_data_send)
    i.ble_nus_init                           0x0002899c   Section        0  ble_nus.o(i.ble_nus_init)
    i.ble_nus_on_ble_evt                     0x00028a78   Section        0  ble_nus.o(i.ble_nus_on_ble_evt)
    i.ble_peripheral_evt_handler             0x00028af0   Section        0  main.o(i.ble_peripheral_evt_handler)
    ble_peripheral_evt_handler               0x00028af1   Thumb Code   210  main.o(i.ble_peripheral_evt_handler)
    i.ble_srv_is_notification_enabled        0x00028bcc   Section        0  ble_srv_common.o(i.ble_srv_is_notification_enabled)
    i.bsp_board_button_idx_to_pin            0x00028bd4   Section        0  boards.o(i.bsp_board_button_idx_to_pin)
    i.bsp_btn_ble_sleep_mode_prepare         0x00028be0   Section        0  bsp_btn_ble.o(i.bsp_btn_ble_sleep_mode_prepare)
    i.bsp_event_to_button_action_assign      0x00028c00   Section        0  bsp.o(i.bsp_event_to_button_action_assign)
    i.bsp_indication_set                     0x00028c44   Section        0  bsp.o(i.bsp_indication_set)
    i.bsp_wakeup_button_enable               0x00028c48   Section        0  bsp.o(i.bsp_wakeup_button_enable)
    i.channel_port_get                       0x00028c50   Section        0  nrfx_gpiote.o(i.channel_port_get)
    channel_port_get                         0x00028c51   Thumb Code    10  nrfx_gpiote.o(i.channel_port_get)
    i.characteristic_add                     0x00028c60   Section        0  ble_srv_common.o(i.characteristic_add)
    i.characteristics_discover               0x00028df0   Section        0  ble_db_discovery.o(i.characteristics_discover)
    characteristics_discover                 0x00028df1   Thumb Code   100  ble_db_discovery.o(i.characteristics_discover)
    i.clock_clk_started_notify               0x00028e5c   Section        0  nrf_drv_clock.o(i.clock_clk_started_notify)
    clock_clk_started_notify                 0x00028e5d   Thumb Code    34  nrf_drv_clock.o(i.clock_clk_started_notify)
    i.clock_irq_handler                      0x00028e84   Section        0  nrf_drv_clock.o(i.clock_irq_handler)
    clock_irq_handler                        0x00028e85   Thumb Code    24  nrf_drv_clock.o(i.clock_irq_handler)
    i.compare_func                           0x00028ea0   Section        0  app_timer2.o(i.compare_func)
    compare_func                             0x00028ea1   Thumb Code    24  app_timer2.o(i.compare_func)
    i.conn_handle_id_find                    0x00028eb8   Section        0  nrf_ble_gq.o(i.conn_handle_id_find)
    conn_handle_id_find                      0x00028eb9   Thumb Code    30  nrf_ble_gq.o(i.conn_handle_id_find)
    i.conn_handle_list_get                   0x00028ed6   Section        0  ble_conn_state.o(i.conn_handle_list_get)
    i.conn_int_encode                        0x00028f14   Section        0  ble_advdata.o(i.conn_int_encode)
    conn_int_encode                          0x00028f15   Thumb Code   136  ble_advdata.o(i.conn_int_encode)
    i.conn_params_error_handler              0x00028f9c   Section        0  main.o(i.conn_params_error_handler)
    conn_params_error_handler                0x00028f9d   Thumb Code     4  main.o(i.conn_params_error_handler)
    i.conn_params_negotiation                0x00028fa0   Section        0  ble_conn_params.o(i.conn_params_negotiation)
    conn_params_negotiation                  0x00028fa1   Thumb Code    68  ble_conn_params.o(i.conn_params_negotiation)
    i.data_length_update                     0x00028fe8   Section        0  nrf_ble_gatt.o(i.data_length_update)
    data_length_update                       0x00028fe9   Thumb Code    30  nrf_ble_gatt.o(i.data_length_update)
    i.db_disc_handler                        0x00029008   Section        0  main.o(i.db_disc_handler)
    db_disc_handler                          0x00029009   Thumb Code     8  main.o(i.db_disc_handler)
    i.descriptors_discover                   0x00029014   Section        0  ble_db_discovery.o(i.descriptors_discover)
    descriptors_discover                     0x00029015   Thumb Code   174  ble_db_discovery.o(i.descriptors_discover)
    i.discovery_available_evt_trigger        0x000290cc   Section        0  ble_db_discovery.o(i.discovery_available_evt_trigger)
    discovery_available_evt_trigger          0x000290cd   Thumb Code    44  ble_db_discovery.o(i.discovery_available_evt_trigger)
    i.discovery_complete_evt_trigger         0x000290fc   Section        0  ble_db_discovery.o(i.discovery_complete_evt_trigger)
    discovery_complete_evt_trigger           0x000290fd   Thumb Code   174  ble_db_discovery.o(i.discovery_complete_evt_trigger)
    i.discovery_error_handler                0x000291b0   Section        0  ble_db_discovery.o(i.discovery_error_handler)
    discovery_error_handler                  0x000291b1   Thumb Code    74  ble_db_discovery.o(i.discovery_error_handler)
    i.discovery_start                        0x00029200   Section        0  ble_db_discovery.o(i.discovery_start)
    discovery_start                          0x00029201   Thumb Code   110  ble_db_discovery.o(i.discovery_start)
    i.drv_rtc_compare_disable                0x0002927c   Section        0  drv_rtc.o(i.drv_rtc_compare_disable)
    i.drv_rtc_compare_pending                0x00029290   Section        0  drv_rtc.o(i.drv_rtc_compare_pending)
    i.drv_rtc_compare_set                    0x0002929e   Section        0  drv_rtc.o(i.drv_rtc_compare_set)
    i.drv_rtc_counter_get                    0x000292ee   Section        0  drv_rtc.o(i.drv_rtc_counter_get)
    i.drv_rtc_init                           0x000292f8   Section        0  drv_rtc.o(i.drv_rtc_init)
    i.drv_rtc_irq_trigger                    0x00029374   Section        0  drv_rtc.o(i.drv_rtc_irq_trigger)
    i.drv_rtc_overflow_enable                0x00029392   Section        0  drv_rtc.o(i.drv_rtc_overflow_enable)
    i.drv_rtc_overflow_pending               0x0002939a   Section        0  drv_rtc.o(i.drv_rtc_overflow_pending)
    i.drv_rtc_start                          0x000293a2   Section        0  drv_rtc.o(i.drv_rtc_start)
    i.drv_rtc_stop                           0x000293aa   Section        0  drv_rtc.o(i.drv_rtc_stop)
    i.drv_rtc_windowed_compare_set           0x000293b2   Section        0  drv_rtc.o(i.drv_rtc_windowed_compare_set)
    i.erase                                  0x00029490   Section        0  nrf_fstorage_sd.o(i.erase)
    erase                                    0x00029491   Thumb Code    72  nrf_fstorage_sd.o(i.erase)
    i.erase_writemac                         0x000294dc   Section        0  main.o(i.erase_writemac)
    i.erase_writename                        0x0002954c   Section        0  main.o(i.erase_writename)
    i.event_send                             0x000295c4   Section        0  nrf_fstorage_sd.o(i.event_send)
    event_send                               0x000295c5   Thumb Code    84  nrf_fstorage_sd.o(i.event_send)
    i.evt_enable                             0x00029618   Section        0  drv_rtc.o(i.evt_enable)
    evt_enable                               0x00029619   Thumb Code    18  drv_rtc.o(i.evt_enable)
    i.evt_pending                            0x0002962a   Section        0  drv_rtc.o(i.evt_pending)
    evt_pending                              0x0002962b   Thumb Code    20  drv_rtc.o(i.evt_pending)
    i.fifo_get                               0x0002963e   Section        0  app_fifo.o(i.fifo_get)
    fifo_get                                 0x0002963f   Thumb Code    20  app_fifo.o(i.fifo_get)
    i.fifo_put                               0x00029652   Section        0  app_fifo.o(i.fifo_put)
    fifo_put                                 0x00029653   Thumb Code    18  app_fifo.o(i.fifo_put)
    i.flag_toggle                            0x00029664   Section        0  ble_conn_state.o(i.flag_toggle)
    flag_toggle                              0x00029665   Thumb Code    10  ble_conn_state.o(i.flag_toggle)
    i.flags_set                              0x0002966e   Section        0  ble_advertising.o(i.flags_set)
    flags_set                                0x0002966f   Thumb Code    40  ble_advertising.o(i.flags_set)
    i.fputc                                  0x00029696   Section        0  retarget.o(i.fputc)
    i.fstorage_evt_handler                   0x000296a4   Section        0  main.o(i.fstorage_evt_handler)
    fstorage_evt_handler                     0x000296a5   Thumb Code     2  main.o(i.fstorage_evt_handler)
    i.gatt_error_handler                     0x000296a6   Section        0  ble_nus_c.o(i.gatt_error_handler)
    gatt_error_handler                       0x000296a7   Thumb Code    10  ble_nus_c.o(i.gatt_error_handler)
    i.gatt_evt_handler                       0x000296b0   Section        0  main.o(i.gatt_evt_handler)
    i.gatt_init                              0x000296c8   Section        0  main.o(i.gatt_init)
    i.gattc_write_alloc                      0x000296f8   Section        0  nrf_ble_gq.o(i.gattc_write_alloc)
    gattc_write_alloc                        0x000296f9   Thumb Code    44  nrf_ble_gq.o(i.gattc_write_alloc)
    i.gatts_hvx_alloc                        0x00029724   Section        0  nrf_ble_gq.o(i.gatts_hvx_alloc)
    gatts_hvx_alloc                          0x00029725   Thumb Code    62  nrf_ble_gq.o(i.gatts_hvx_alloc)
    i.get_now                                0x00029764   Section        0  app_timer2.o(i.get_now)
    get_now                                  0x00029765   Thumb Code    46  app_timer2.o(i.get_now)
    i.init                                   0x00029798   Section        0  nrf_fstorage_sd.o(i.init)
    init                                     0x00029799   Thumb Code    42  nrf_fstorage_sd.o(i.init)
    i.instance_get                           0x000297cc   Section        0  ble_conn_params.o(i.instance_get)
    instance_get                             0x000297cd   Thumb Code    14  ble_conn_params.o(i.instance_get)
    i.interrupts_enable                      0x000297e0   Section        0  nrfx_uarte.o(i.interrupts_enable)
    interrupts_enable                        0x000297e1   Thumb Code   132  nrfx_uarte.o(i.interrupts_enable)
    i.is_busy                                0x00029868   Section        0  nrf_fstorage_sd.o(i.is_busy)
    is_busy                                  0x00029869   Thumb Code    12  nrf_fstorage_sd.o(i.is_busy)
    i.is_conn_params_ok                      0x00029878   Section        0  ble_conn_params.o(i.is_conn_params_ok)
    is_conn_params_ok                        0x00029879   Thumb Code    68  ble_conn_params.o(i.is_conn_params_ok)
    i.is_desc_discovery_reqd                 0x000298bc   Section        0  ble_db_discovery.o(i.is_desc_discovery_reqd)
    is_desc_discovery_reqd                   0x000298bd   Thumb Code    76  ble_db_discovery.o(i.is_desc_discovery_reqd)
    i.is_whitelist_used                      0x00029908   Section        0  nrf_ble_scan.o(i.is_whitelist_used)
    i.link_init                              0x00029920   Section        0  nrf_ble_gatt.o(i.link_init)
    link_init                                0x00029921   Thumb Code    24  nrf_ble_gatt.o(i.link_init)
    i.main                                   0x00029938   Section        0  main.o(i.main)
    i.manuf_specific_data_encode             0x00029b54   Section        0  ble_advdata.o(i.manuf_specific_data_encode)
    manuf_specific_data_encode               0x00029b55   Thumb Code   100  ble_advdata.o(i.manuf_specific_data_encode)
    i.memobj_op                              0x00029bb8   Section        0  nrf_memobj.o(i.memobj_op)
    memobj_op                                0x00029bb9   Thumb Code   126  nrf_memobj.o(i.memobj_op)
    i.my_fstorage_init                       0x00029c38   Section        0  main.o(i.my_fstorage_init)
    i.name_encode                            0x00029c80   Section        0  ble_advdata.o(i.name_encode)
    name_encode                              0x00029c81   Thumb Code   166  ble_advdata.o(i.name_encode)
    i.nrf52_errata_136                       0x00029d28   Section        0  system_nrf52.o(i.nrf52_errata_136)
    nrf52_errata_136                         0x00029d29   Thumb Code    34  system_nrf52.o(i.nrf52_errata_136)
    i.nrf52_errata_31                        0x00029d50   Section        0  system_nrf52.o(i.nrf52_errata_31)
    nrf52_errata_31                          0x00029d51   Thumb Code    34  system_nrf52.o(i.nrf52_errata_31)
    i.nrf52_errata_36                        0x00029d78   Section        0  system_nrf52.o(i.nrf52_errata_36)
    nrf52_errata_36                          0x00029d79   Thumb Code    34  system_nrf52.o(i.nrf52_errata_36)
    i.nrf52_errata_66                        0x00029da0   Section        0  system_nrf52.o(i.nrf52_errata_66)
    nrf52_errata_66                          0x00029da1   Thumb Code    56  system_nrf52.o(i.nrf52_errata_66)
    i.nrf5_flash_end_addr_get                0x00029ddc   Section        0  main.o(i.nrf5_flash_end_addr_get)
    nrf5_flash_end_addr_get                  0x00029ddd   Thumb Code    34  main.o(i.nrf5_flash_end_addr_get)
    i.nrf_atfifo_clear                       0x00029dfe   Section        0  nrf_atfifo.o(i.nrf_atfifo_clear)
    i.nrf_atfifo_init                        0x00029e0e   Section        0  nrf_atfifo.o(i.nrf_atfifo_init)
    i.nrf_atfifo_item_alloc                  0x00029e34   Section        0  nrf_atfifo.o(i.nrf_atfifo_item_alloc)
    i.nrf_atfifo_item_free                   0x00029e4a   Section        0  nrf_atfifo.o(i.nrf_atfifo_item_free)
    i.nrf_atfifo_item_get                    0x00029e60   Section        0  nrf_atfifo.o(i.nrf_atfifo_item_get)
    i.nrf_atfifo_item_put                    0x00029e76   Section        0  nrf_atfifo.o(i.nrf_atfifo_item_put)
    i.nrf_atflags_clear                      0x00029e8c   Section        0  nrf_atflags.o(i.nrf_atflags_clear)
    i.nrf_atflags_get                        0x00029ea2   Section        0  nrf_atflags.o(i.nrf_atflags_get)
    i.nrf_atflags_set                        0x00029eb8   Section        0  nrf_atflags.o(i.nrf_atflags_set)
    i.nrf_atomic_flag_set_fetch              0x00029ecc   Section        0  nrf_atomic.o(i.nrf_atomic_flag_set_fetch)
    i.nrf_atomic_u32_and                     0x00029ed2   Section        0  nrf_atomic.o(i.nrf_atomic_u32_and)
    i.nrf_atomic_u32_fetch_or                0x00029ede   Section        0  nrf_atomic.o(i.nrf_atomic_u32_fetch_or)
    i.nrf_atomic_u32_or                      0x00029ee8   Section        0  nrf_atomic.o(i.nrf_atomic_u32_or)
    i.nrf_balloc_alloc                       0x00029ef4   Section        0  nrf_balloc.o(i.nrf_balloc_alloc)
    i.nrf_balloc_free                        0x00029f38   Section        0  nrf_balloc.o(i.nrf_balloc_free)
    i.nrf_balloc_init                        0x00029f68   Section        0  nrf_balloc.o(i.nrf_balloc_init)
    i.nrf_bitmask_bit_is_set                 0x00029f98   Section        0  nrfx_gpiote.o(i.nrf_bitmask_bit_is_set)
    nrf_bitmask_bit_is_set                   0x00029f99   Thumb Code    16  nrfx_gpiote.o(i.nrf_bitmask_bit_is_set)
    i.nrf_ble_gatt_att_mtu_central_set       0x00029fa8   Section        0  nrf_ble_gatt.o(i.nrf_ble_gatt_att_mtu_central_set)
    i.nrf_ble_gatt_init                      0x00029fc0   Section        0  nrf_ble_gatt.o(i.nrf_ble_gatt_init)
    i.nrf_ble_gatt_on_ble_evt                0x00029fec   Section        0  nrf_ble_gatt.o(i.nrf_ble_gatt_on_ble_evt)
    i.nrf_ble_gq_conn_handle_register        0x0002a194   Section        0  nrf_ble_gq.o(i.nrf_ble_gq_conn_handle_register)
    i.nrf_ble_gq_item_add                    0x0002a204   Section        0  nrf_ble_gq.o(i.nrf_ble_gq_item_add)
    i.nrf_ble_gq_on_ble_evt                  0x0002a2a4   Section        0  nrf_ble_gq.o(i.nrf_ble_gq_on_ble_evt)
    i.nrf_ble_qwr_conn_handle_assign         0x0002a304   Section        0  nrf_ble_qwr.o(i.nrf_ble_qwr_conn_handle_assign)
    i.nrf_ble_qwr_init                       0x0002a31a   Section        0  nrf_ble_qwr.o(i.nrf_ble_qwr_init)
    i.nrf_ble_qwr_on_ble_evt                 0x0002a33e   Section        0  nrf_ble_qwr.o(i.nrf_ble_qwr_on_ble_evt)
    i.nrf_ble_scan_addr_filter_add           0x0002a3f4   Section        0  nrf_ble_scan.o(i.nrf_ble_scan_addr_filter_add)
    nrf_ble_scan_addr_filter_add             0x0002a3f5   Thumb Code   148  nrf_ble_scan.o(i.nrf_ble_scan_addr_filter_add)
    i.nrf_ble_scan_address_type_decode       0x0002a488   Section        0  nrf_ble_scan.o(i.nrf_ble_scan_address_type_decode)
    nrf_ble_scan_address_type_decode         0x0002a489   Thumb Code    36  nrf_ble_scan.o(i.nrf_ble_scan_address_type_decode)
    i.nrf_ble_scan_connect_with_target       0x0002a4ac   Section        0  nrf_ble_scan.o(i.nrf_ble_scan_connect_with_target)
    nrf_ble_scan_connect_with_target         0x0002a4ad   Thumb Code    80  nrf_ble_scan.o(i.nrf_ble_scan_connect_with_target)
    i.nrf_ble_scan_default_conn_param_set    0x0002a4fc   Section        0  nrf_ble_scan.o(i.nrf_ble_scan_default_conn_param_set)
    nrf_ble_scan_default_conn_param_set      0x0002a4fd   Thumb Code    20  nrf_ble_scan.o(i.nrf_ble_scan_default_conn_param_set)
    i.nrf_ble_scan_default_param_set         0x0002a510   Section        0  nrf_ble_scan.o(i.nrf_ble_scan_default_param_set)
    nrf_ble_scan_default_param_set           0x0002a511   Thumb Code    30  nrf_ble_scan.o(i.nrf_ble_scan_default_param_set)
    i.nrf_ble_scan_filter_set                0x0002a530   Section        0  nrf_ble_scan.o(i.nrf_ble_scan_filter_set)
    i.nrf_ble_scan_filters_disable           0x0002a5e2   Section        0  nrf_ble_scan.o(i.nrf_ble_scan_filters_disable)
    i.nrf_ble_scan_filters_enable            0x0002a5fa   Section        0  nrf_ble_scan.o(i.nrf_ble_scan_filters_enable)
    i.nrf_ble_scan_init                      0x0002a648   Section        0  nrf_ble_scan.o(i.nrf_ble_scan_init)
    i.nrf_ble_scan_on_adv_report             0x0002a6bc   Section        0  nrf_ble_scan.o(i.nrf_ble_scan_on_adv_report)
    nrf_ble_scan_on_adv_report               0x0002a6bd   Thumb Code   424  nrf_ble_scan.o(i.nrf_ble_scan_on_adv_report)
    i.nrf_ble_scan_on_ble_evt                0x0002a864   Section        0  nrf_ble_scan.o(i.nrf_ble_scan_on_ble_evt)
    i.nrf_ble_scan_start                     0x0002a8e4   Section        0  nrf_ble_scan.o(i.nrf_ble_scan_start)
    i.nrf_ble_scan_stop                      0x0002a928   Section        0  nrf_ble_scan.o(i.nrf_ble_scan_stop)
    i.nrf_clock_event_check                  0x0002a92c   Section        0  nrfx_clock.o(i.nrf_clock_event_check)
    nrf_clock_event_check                    0x0002a92d   Thumb Code    14  nrfx_clock.o(i.nrf_clock_event_check)
    i.nrf_clock_event_clear                  0x0002a93a   Section        0  nrfx_clock.o(i.nrf_clock_event_clear)
    nrf_clock_event_clear                    0x0002a93b   Thumb Code    16  nrfx_clock.o(i.nrf_clock_event_clear)
    i.nrf_delay_ms                           0x0002a94c   Section        0  main.o(i.nrf_delay_ms)
    nrf_delay_ms                             0x0002a94d   Thumb Code    28  main.o(i.nrf_delay_ms)
    i.nrf_drv_clock_init                     0x0002a96c   Section        0  nrf_drv_clock.o(i.nrf_drv_clock_init)
    i.nrf_drv_clock_lfclk_release            0x0002a9ac   Section        0  nrf_drv_clock.o(i.nrf_drv_clock_lfclk_release)
    i.nrf_drv_uart_init                      0x0002a9e0   Section        0  nrf_drv_uart.o(i.nrf_drv_uart_init)
    i.nrf_drv_uart_rx                        0x0002aa48   Section        0  app_uart_fifo.o(i.nrf_drv_uart_rx)
    nrf_drv_uart_rx                          0x0002aa49   Thumb Code    26  app_uart_fifo.o(i.nrf_drv_uart_rx)
    i.nrf_drv_uart_tx                        0x0002aa68   Section        0  app_uart_fifo.o(i.nrf_drv_uart_tx)
    nrf_drv_uart_tx                          0x0002aa69   Thumb Code    26  app_uart_fifo.o(i.nrf_drv_uart_tx)
    i.nrf_fstorage_erase                     0x0002aa88   Section        0  nrf_fstorage.o(i.nrf_fstorage_erase)
    i.nrf_fstorage_init                      0x0002aad6   Section        0  nrf_fstorage.o(i.nrf_fstorage_init)
    i.nrf_fstorage_is_busy                   0x0002aae8   Section        0  nrf_fstorage.o(i.nrf_fstorage_is_busy)
    i.nrf_fstorage_read                      0x0002ab38   Section        0  nrf_fstorage.o(i.nrf_fstorage_read)
    i.nrf_fstorage_sdh_req_handler           0x0002ab88   Section        0  nrf_fstorage_sd.o(i.nrf_fstorage_sdh_req_handler)
    i.nrf_fstorage_sdh_state_handler         0x0002aba0   Section        0  nrf_fstorage_sd.o(i.nrf_fstorage_sdh_state_handler)
    i.nrf_fstorage_sys_evt_handler           0x0002abc0   Section        0  nrf_fstorage_sd.o(i.nrf_fstorage_sys_evt_handler)
    i.nrf_fstorage_write                     0x0002ac64   Section        0  nrf_fstorage.o(i.nrf_fstorage_write)
    i.nrf_gpio_cfg                           0x0002acca   Section        0  nrfx_uart.o(i.nrf_gpio_cfg)
    nrf_gpio_cfg                             0x0002accb   Thumb Code    36  nrfx_uart.o(i.nrf_gpio_cfg)
    i.nrf_gpio_cfg                           0x0002acee   Section        0  nrfx_uarte.o(i.nrf_gpio_cfg)
    nrf_gpio_cfg                             0x0002acef   Thumb Code    36  nrfx_uarte.o(i.nrf_gpio_cfg)
    i.nrf_gpio_cfg_default                   0x0002ad12   Section        0  nrfx_uart.o(i.nrf_gpio_cfg_default)
    nrf_gpio_cfg_default                     0x0002ad13   Thumb Code    18  nrfx_uart.o(i.nrf_gpio_cfg_default)
    i.nrf_gpio_cfg_default                   0x0002ad24   Section        0  nrfx_uarte.o(i.nrf_gpio_cfg_default)
    nrf_gpio_cfg_default                     0x0002ad25   Thumb Code    18  nrfx_uarte.o(i.nrf_gpio_cfg_default)
    i.nrf_gpio_cfg_input                     0x0002ad36   Section        0  nrfx_uart.o(i.nrf_gpio_cfg_input)
    nrf_gpio_cfg_input                       0x0002ad37   Thumb Code    18  nrfx_uart.o(i.nrf_gpio_cfg_input)
    i.nrf_gpio_cfg_input                     0x0002ad48   Section        0  nrfx_uarte.o(i.nrf_gpio_cfg_input)
    nrf_gpio_cfg_input                       0x0002ad49   Thumb Code    18  nrfx_uarte.o(i.nrf_gpio_cfg_input)
    i.nrf_gpio_cfg_output                    0x0002ad5a   Section        0  nrfx_uart.o(i.nrf_gpio_cfg_output)
    nrf_gpio_cfg_output                      0x0002ad5b   Thumb Code    20  nrfx_uart.o(i.nrf_gpio_cfg_output)
    i.nrf_gpio_cfg_output                    0x0002ad6e   Section        0  nrfx_uarte.o(i.nrf_gpio_cfg_output)
    nrf_gpio_cfg_output                      0x0002ad6f   Thumb Code    20  nrfx_uarte.o(i.nrf_gpio_cfg_output)
    i.nrf_gpio_cfg_sense_set                 0x0002ad82   Section        0  nrfx_gpiote.o(i.nrf_gpio_cfg_sense_set)
    nrf_gpio_cfg_sense_set                   0x0002ad83   Thumb Code    34  nrfx_gpiote.o(i.nrf_gpio_cfg_sense_set)
    i.nrf_gpio_latches_read_and_clear        0x0002ada4   Section        0  nrfx_gpiote.o(i.nrf_gpio_latches_read_and_clear)
    nrf_gpio_latches_read_and_clear          0x0002ada5   Thumb Code    38  nrfx_gpiote.o(i.nrf_gpio_latches_read_and_clear)
    i.nrf_gpiote_event_clear                 0x0002add0   Section        0  nrfx_gpiote.o(i.nrf_gpiote_event_clear)
    nrf_gpiote_event_clear                   0x0002add1   Thumb Code    16  nrfx_gpiote.o(i.nrf_gpiote_event_clear)
    i.nrf_gpiote_event_is_set                0x0002ade4   Section        0  nrfx_gpiote.o(i.nrf_gpiote_event_is_set)
    nrf_gpiote_event_is_set                  0x0002ade5   Thumb Code    12  nrfx_gpiote.o(i.nrf_gpiote_event_is_set)
    i.nrf_memobj_alloc                       0x0002adf4   Section        0  nrf_memobj.o(i.nrf_memobj_alloc)
    i.nrf_memobj_free                        0x0002ae54   Section        0  nrf_memobj.o(i.nrf_memobj_free)
    i.nrf_memobj_pool_init                   0x0002ae86   Section        0  nrf_memobj.o(i.nrf_memobj_pool_init)
    i.nrf_memobj_read                        0x0002ae8a   Section        0  nrf_memobj.o(i.nrf_memobj_read)
    i.nrf_memobj_write                       0x0002ae9a   Section        0  nrf_memobj.o(i.nrf_memobj_write)
    i.nrf_pwr_mgmt_init                      0x0002aeac   Section        0  nrf_pwr_mgmt.o(i.nrf_pwr_mgmt_init)
    i.nrf_pwr_mgmt_run                       0x0002aed4   Section        0  nrf_pwr_mgmt.o(i.nrf_pwr_mgmt_run)
    i.nrf_queue_generic_pop                  0x0002aee8   Section        0  nrf_queue.o(i.nrf_queue_generic_pop)
    i.nrf_queue_is_empty                     0x0002af76   Section        0  nrf_queue.o(i.nrf_queue_is_empty)
    i.nrf_queue_is_full                      0x0002af88   Section        0  nrf_queue.o(i.nrf_queue_is_full)
    i.nrf_queue_next_idx                     0x0002afa6   Section        0  nrf_queue.o(i.nrf_queue_next_idx)
    nrf_queue_next_idx                       0x0002afa7   Thumb Code    14  nrf_queue.o(i.nrf_queue_next_idx)
    i.nrf_queue_push                         0x0002afb4   Section        0  nrf_queue.o(i.nrf_queue_push)
    i.nrf_qwr_error_handler                  0x0002b066   Section        0  main.o(i.nrf_qwr_error_handler)
    nrf_qwr_error_handler                    0x0002b067   Thumb Code     4  main.o(i.nrf_qwr_error_handler)
    i.nrf_rtc_event_clear                    0x0002b06a   Section        0  drv_rtc.o(i.nrf_rtc_event_clear)
    nrf_rtc_event_clear                      0x0002b06b   Thumb Code    12  drv_rtc.o(i.nrf_rtc_event_clear)
    i.nrf_sdh_ble_app_ram_start_get          0x0002b078   Section        0  nrf_sdh_ble.o(i.nrf_sdh_ble_app_ram_start_get)
    i.nrf_sdh_ble_default_cfg_set            0x0002b08c   Section        0  nrf_sdh_ble.o(i.nrf_sdh_ble_default_cfg_set)
    i.nrf_sdh_ble_enable                     0x0002b12c   Section        0  nrf_sdh_ble.o(i.nrf_sdh_ble_enable)
    i.nrf_sdh_ble_evts_poll                  0x0002b140   Section        0  nrf_sdh_ble.o(i.nrf_sdh_ble_evts_poll)
    nrf_sdh_ble_evts_poll                    0x0002b141   Thumb Code    88  nrf_sdh_ble.o(i.nrf_sdh_ble_evts_poll)
    i.nrf_sdh_disable_request                0x0002b1a0   Section        0  nrf_sdh.o(i.nrf_sdh_disable_request)
    i.nrf_sdh_enable_request                 0x0002b1f4   Section        0  nrf_sdh.o(i.nrf_sdh_enable_request)
    i.nrf_sdh_evts_poll                      0x0002b268   Section        0  nrf_sdh.o(i.nrf_sdh_evts_poll)
    i.nrf_sdh_is_enabled                     0x0002b28c   Section        0  nrf_sdh.o(i.nrf_sdh_is_enabled)
    i.nrf_sdh_request_continue               0x0002b298   Section        0  nrf_sdh.o(i.nrf_sdh_request_continue)
    i.nrf_sdh_soc_evts_poll                  0x0002b2b4   Section        0  nrf_sdh_soc.o(i.nrf_sdh_soc_evts_poll)
    nrf_sdh_soc_evts_poll                    0x0002b2b5   Thumb Code    56  nrf_sdh_soc.o(i.nrf_sdh_soc_evts_poll)
    i.nrf_section_iter_init                  0x0002b2f0   Section        0  nrf_section_iter.o(i.nrf_section_iter_init)
    i.nrf_section_iter_item_set              0x0002b2fa   Section        0  nrf_section_iter.o(i.nrf_section_iter_item_set)
    nrf_section_iter_item_set                0x0002b2fb   Thumb Code    36  nrf_section_iter.o(i.nrf_section_iter_item_set)
    i.nrf_section_iter_next                  0x0002b31e   Section        0  nrf_section_iter.o(i.nrf_section_iter_next)
    i.nrf_sortlist_add                       0x0002b33e   Section        0  nrf_sortlist.o(i.nrf_sortlist_add)
    i.nrf_sortlist_peek                      0x0002b360   Section        0  nrf_sortlist.o(i.nrf_sortlist_peek)
    i.nrf_sortlist_pop                       0x0002b366   Section        0  nrf_sortlist.o(i.nrf_sortlist_pop)
    i.nrf_sortlist_remove                    0x0002b374   Section        0  nrf_sortlist.o(i.nrf_sortlist_remove)
    i.nrf_uart_event_check                   0x0002b392   Section        0  nrfx_uart.o(i.nrf_uart_event_check)
    nrf_uart_event_check                     0x0002b393   Thumb Code    10  nrfx_uart.o(i.nrf_uart_event_check)
    i.nrf_uart_event_clear                   0x0002b39c   Section        0  nrfx_uart.o(i.nrf_uart_event_clear)
    nrf_uart_event_clear                     0x0002b39d   Thumb Code    12  nrfx_uart.o(i.nrf_uart_event_clear)
    i.nrf_uart_int_enable_check              0x0002b3a8   Section        0  nrfx_uart.o(i.nrf_uart_int_enable_check)
    nrf_uart_int_enable_check                0x0002b3a9   Thumb Code    12  nrfx_uart.o(i.nrf_uart_int_enable_check)
    i.nrf_uarte_event_check                  0x0002b3b4   Section        0  nrfx_uarte.o(i.nrf_uarte_event_check)
    nrf_uarte_event_check                    0x0002b3b5   Thumb Code    10  nrfx_uarte.o(i.nrf_uarte_event_check)
    i.nrf_uarte_event_clear                  0x0002b3be   Section        0  nrfx_uarte.o(i.nrf_uarte_event_clear)
    nrf_uarte_event_clear                    0x0002b3bf   Thumb Code    12  nrfx_uarte.o(i.nrf_uarte_event_clear)
    i.nrf_wdt_started                        0x0002b3cc   Section        0  nrf_drv_clock.o(i.nrf_wdt_started)
    nrf_wdt_started                          0x0002b3cd   Thumb Code    12  nrf_drv_clock.o(i.nrf_wdt_started)
    i.nrfx_clock_enable                      0x0002b3dc   Section        0  nrfx_clock.o(i.nrfx_clock_enable)
    i.nrfx_clock_init                        0x0002b408   Section        0  nrfx_clock.o(i.nrfx_clock_init)
    i.nrfx_clock_lfclk_stop                  0x0002b424   Section        0  nrfx_clock.o(i.nrfx_clock_lfclk_stop)
    i.nrfx_coredep_delay_us                  0x0002b454   Section        0  drv_rtc.o(i.nrfx_coredep_delay_us)
    nrfx_coredep_delay_us                    0x0002b455   Thumb Code    12  drv_rtc.o(i.nrfx_coredep_delay_us)
    i.nrfx_is_in_ram                         0x0002b464   Section        0  nrfx_uarte.o(i.nrfx_is_in_ram)
    nrfx_is_in_ram                           0x0002b465   Thumb Code    16  nrfx_uarte.o(i.nrfx_is_in_ram)
    i.nrfx_prs_acquire                       0x0002b474   Section        0  nrfx_prs.o(i.nrfx_prs_acquire)
    i.nrfx_prs_release                       0x0002b4ae   Section        0  nrfx_prs.o(i.nrfx_prs_release)
    i.nrfx_uart_0_irq_handler                0x0002b4c0   Section        0  nrfx_uart.o(i.nrfx_uart_0_irq_handler)
    i.nrfx_uart_init                         0x0002b4d0   Section        0  nrfx_uart.o(i.nrfx_uart_init)
    i.nrfx_uart_rx                           0x0002b5a4   Section        0  nrfx_uart.o(i.nrfx_uart_rx)
    i.nrfx_uart_tx                           0x0002b690   Section        0  nrfx_uart.o(i.nrfx_uart_tx)
    i.nrfx_uart_tx_in_progress               0x0002b738   Section        0  nrfx_uart.o(i.nrfx_uart_tx_in_progress)
    i.nrfx_uart_uninit                       0x0002b758   Section        0  nrfx_uart.o(i.nrfx_uart_uninit)
    i.nrfx_uarte_0_irq_handler               0x0002b818   Section        0  nrfx_uarte.o(i.nrfx_uarte_0_irq_handler)
    i.nrfx_uarte_init                        0x0002b828   Section        0  nrfx_uarte.o(i.nrfx_uarte_init)
    i.nrfx_uarte_rx                          0x0002b894   Section        0  nrfx_uarte.o(i.nrfx_uarte_rx)
    i.nrfx_uarte_tx                          0x0002b998   Section        0  nrfx_uarte.o(i.nrfx_uarte_tx)
    i.nrfx_uarte_tx_in_progress              0x0002ba44   Section        0  nrfx_uarte.o(i.nrfx_uarte_tx_in_progress)
    i.nrfx_uarte_uninit                      0x0002ba60   Section        0  nrfx_uarte.o(i.nrfx_uarte_uninit)
    i.nus_data_handler                       0x0002bb68   Section        0  main.o(i.nus_data_handler)
    nus_data_handler                         0x0002bb69   Thumb Code    66  main.o(i.nus_data_handler)
    i.nus_error_handler                      0x0002bbaa   Section        0  main.o(i.nus_error_handler)
    nus_error_handler                        0x0002bbab   Thumb Code     4  main.o(i.nus_error_handler)
    i.nvmc_config                            0x0002bbb0   Section        0  system_nrf52.o(i.nvmc_config)
    i.on_adv_evt                             0x0002bbc8   Section        0  main.o(i.on_adv_evt)
    on_adv_evt                               0x0002bbc9   Thumb Code    36  main.o(i.on_adv_evt)
    i.on_characteristic_discovery_rsp        0x0002bbec   Section        0  ble_db_discovery.o(i.on_characteristic_discovery_rsp)
    on_characteristic_discovery_rsp          0x0002bbed   Thumb Code   252  ble_db_discovery.o(i.on_characteristic_discovery_rsp)
    i.on_conn_params_evt                     0x0002bce8   Section        0  main.o(i.on_conn_params_evt)
    on_conn_params_evt                       0x0002bce9   Thumb Code    24  main.o(i.on_conn_params_evt)
    i.on_connect                             0x0002bd04   Section        0  ble_nus.o(i.on_connect)
    on_connect                               0x0002bd05   Thumb Code   106  ble_nus.o(i.on_connect)
    i.on_descriptor_discovery_rsp            0x0002bd70   Section        0  ble_db_discovery.o(i.on_descriptor_discovery_rsp)
    on_descriptor_discovery_rsp              0x0002bd71   Thumb Code   218  ble_db_discovery.o(i.on_descriptor_discovery_rsp)
    i.on_primary_srv_discovery_rsp           0x0002be4a   Section        0  ble_db_discovery.o(i.on_primary_srv_discovery_rsp)
    on_primary_srv_discovery_rsp             0x0002be4b   Thumb Code   114  ble_db_discovery.o(i.on_primary_srv_discovery_rsp)
    i.on_srv_disc_completion                 0x0002bebc   Section        0  ble_db_discovery.o(i.on_srv_disc_completion)
    on_srv_disc_completion                   0x0002bebd   Thumb Code   142  ble_db_discovery.o(i.on_srv_disc_completion)
    i.on_write                               0x0002bf58   Section        0  ble_nus.o(i.on_write)
    on_write                                 0x0002bf59   Thumb Code   132  ble_nus.o(i.on_write)
    i.phy_is_valid                           0x0002bfdc   Section        0  ble_advertising.o(i.phy_is_valid)
    phy_is_valid                             0x0002bfdd   Thumb Code    18  ble_advertising.o(i.phy_is_valid)
    i.port_event_handle                      0x0002bff0   Section        0  nrfx_gpiote.o(i.port_event_handle)
    port_event_handle                        0x0002bff1   Thumb Code   176  nrfx_gpiote.o(i.port_event_handle)
    i.port_handler_polarity_get              0x0002c0a4   Section        0  nrfx_gpiote.o(i.port_handler_polarity_get)
    port_handler_polarity_get                0x0002c0a5   Thumb Code    12  nrfx_gpiote.o(i.port_handler_polarity_get)
    i.prs_box_get                            0x0002c0b4   Section        0  nrfx_prs.o(i.prs_box_get)
    prs_box_get                              0x0002c0b5   Thumb Code    14  nrfx_prs.o(i.prs_box_get)
    i.queue_free                             0x0002c0cc   Section        0  nrf_fstorage_sd.o(i.queue_free)
    queue_free                               0x0002c0cd   Thumb Code    10  nrf_fstorage_sd.o(i.queue_free)
    i.queue_process                          0x0002c0e0   Section        0  nrf_ble_gq.o(i.queue_process)
    queue_process                            0x0002c0e1   Thumb Code   218  nrf_ble_gq.o(i.queue_process)
    i.queue_process                          0x0002c1c0   Section        0  nrf_fstorage_sd.o(i.queue_process)
    queue_process                            0x0002c1c1   Thumb Code   148  nrf_fstorage_sd.o(i.queue_process)
    i.queue_start                            0x0002c260   Section        0  nrf_fstorage_sd.o(i.queue_start)
    queue_start                              0x0002c261   Thumb Code    30  nrf_fstorage_sd.o(i.queue_start)
    i.queue_utilization_get                  0x0002c284   Section        0  nrf_queue.o(i.queue_utilization_get)
    queue_utilization_get                    0x0002c285   Thumb Code    24  nrf_queue.o(i.queue_utilization_get)
    i.queues_purge                           0x0002c29c   Section        0  nrf_ble_gq.o(i.queues_purge)
    queues_purge                             0x0002c29d   Thumb Code    84  nrf_ble_gq.o(i.queues_purge)
    i.read                                   0x0002c2f4   Section        0  nrf_fstorage_sd.o(i.read)
    read                                     0x0002c2f5   Thumb Code    14  nrf_fstorage_sd.o(i.read)
    i.read_name                              0x0002c304   Section        0  main.o(i.read_name)
    i.registered_handler_get                 0x0002c3b4   Section        0  ble_db_discovery.o(i.registered_handler_get)
    registered_handler_get                   0x0002c3b5   Thumb Code    48  ble_db_discovery.o(i.registered_handler_get)
    i.request_err_code_handle                0x0002c3ec   Section        0  nrf_ble_gq.o(i.request_err_code_handle)
    request_err_code_handle                  0x0002c3ed   Thumb Code    30  nrf_ble_gq.o(i.request_err_code_handle)
    i.request_process                        0x0002c40a   Section        0  nrf_ble_gq.o(i.request_process)
    request_process                          0x0002c40b   Thumb Code   114  nrf_ble_gq.o(i.request_process)
    i.rmap                                   0x0002c47c   Section        0  nrf_fstorage_sd.o(i.rmap)
    rmap                                     0x0002c47d   Thumb Code     4  nrf_fstorage_sd.o(i.rmap)
    i.rtc_irq                                0x0002c480   Section        0  app_timer2.o(i.rtc_irq)
    rtc_irq                                  0x0002c481   Thumb Code    88  app_timer2.o(i.rtc_irq)
    i.rtc_schedule                           0x0002c4dc   Section        0  app_timer2.o(i.rtc_schedule)
    rtc_schedule                             0x0002c4dd   Thumb Code    92  app_timer2.o(i.rtc_schedule)
    i.rtc_update                             0x0002c540   Section        0  app_timer2.o(i.rtc_update)
    rtc_update                               0x0002c541   Thumb Code   108  app_timer2.o(i.rtc_update)
    i.rx_byte                                0x0002c5b4   Section        0  nrfx_uart.o(i.rx_byte)
    rx_byte                                  0x0002c5b5   Thumb Code    50  nrfx_uart.o(i.rx_byte)
    i.rx_done_event                          0x0002c5e6   Section        0  nrfx_uart.o(i.rx_done_event)
    rx_done_event                            0x0002c5e7   Thumb Code    22  nrfx_uart.o(i.rx_done_event)
    i.rx_done_event                          0x0002c5fc   Section        0  nrfx_uarte.o(i.rx_done_event)
    rx_done_event                            0x0002c5fd   Thumb Code    22  nrfx_uarte.o(i.rx_done_event)
    i.rx_enable                              0x0002c612   Section        0  nrfx_uart.o(i.rx_enable)
    rx_enable                                0x0002c613   Thumb Code    32  nrfx_uart.o(i.rx_enable)
    i.scan_evt_handler                       0x0002c634   Section        0  main.o(i.scan_evt_handler)
    scan_evt_handler                         0x0002c635   Thumb Code   126  main.o(i.scan_evt_handler)
    i.scan_init                              0x0002c6f0   Section        0  main.o(i.scan_init)
    scan_init                                0x0002c6f1   Thumb Code   118  main.o(i.scan_init)
    i.scan_start                             0x0002c774   Section        0  main.o(i.scan_start)
    scan_start                               0x0002c775   Thumb Code    34  main.o(i.scan_start)
    i.sd_state_evt_handler                   0x0002c79c   Section        0  nrf_drv_clock.o(i.sd_state_evt_handler)
    sd_state_evt_handler                     0x0002c79d   Thumb Code    84  nrf_drv_clock.o(i.sd_state_evt_handler)
    i.sdh_request_observer_notify            0x0002c7f4   Section        0  nrf_sdh.o(i.sdh_request_observer_notify)
    sdh_request_observer_notify              0x0002c7f5   Thumb Code    44  nrf_sdh.o(i.sdh_request_observer_notify)
    i.sdh_state_observer_notify              0x0002c824   Section        0  nrf_sdh.o(i.sdh_state_observer_notify)
    sdh_state_observer_notify                0x0002c825   Thumb Code    38  nrf_sdh.o(i.sdh_state_observer_notify)
    i.send_error_evt                         0x0002c850   Section        0  ble_conn_params.o(i.send_error_evt)
    send_error_evt                           0x0002c851   Thumb Code    12  ble_conn_params.o(i.send_error_evt)
    i.service_data_encode                    0x0002c860   Section        0  ble_advdata.o(i.service_data_encode)
    service_data_encode                      0x0002c861   Thumb Code   136  ble_advdata.o(i.service_data_encode)
    i.set_security_req                       0x0002c8e8   Section        0  ble_srv_common.o(i.set_security_req)
    set_security_req                         0x0002c8e9   Thumb Code    48  ble_srv_common.o(i.set_security_req)
    i.shutdown_handler                       0x0002c918   Section        0  main.o(i.shutdown_handler)
    shutdown_handler                         0x0002c919   Thumb Code    32  main.o(i.shutdown_handler)
    i.soc_evt_handler                        0x0002c938   Section        0  nrf_drv_clock.o(i.soc_evt_handler)
    soc_evt_handler                          0x0002c939   Thumb Code    18  nrf_drv_clock.o(i.soc_evt_handler)
    i.softdevice_evt_irq_disable             0x0002c950   Section        0  nrf_sdh.o(i.softdevice_evt_irq_disable)
    softdevice_evt_irq_disable               0x0002c951   Thumb Code    60  nrf_sdh.o(i.softdevice_evt_irq_disable)
    i.softdevices_evt_irq_enable             0x0002c990   Section        0  nrf_sdh.o(i.softdevices_evt_irq_enable)
    softdevices_evt_irq_enable               0x0002c991   Thumb Code    80  nrf_sdh.o(i.softdevices_evt_irq_enable)
    i.sortlist_pop                           0x0002c9e8   Section        0  app_timer2.o(i.sortlist_pop)
    sortlist_pop                             0x0002c9e9   Thumb Code     6  app_timer2.o(i.sortlist_pop)
    i.timer_1ms_handle                       0x0002c9f4   Section        0  main.o(i.timer_1ms_handle)
    i.timer_expire                           0x0002ca80   Section        0  app_timer2.o(i.timer_expire)
    timer_expire                             0x0002ca81   Thumb Code    80  app_timer2.o(i.timer_expire)
    i.timer_req_process                      0x0002cad8   Section        0  app_timer2.o(i.timer_req_process)
    timer_req_process                        0x0002cad9   Thumb Code   110  app_timer2.o(i.timer_req_process)
    i.timer_req_schedule                     0x0002cb50   Section        0  app_timer2.o(i.timer_req_schedule)
    timer_req_schedule                       0x0002cb51   Thumb Code    46  app_timer2.o(i.timer_req_schedule)
    i.tx_byte                                0x0002cb88   Section        0  nrfx_uart.o(i.tx_byte)
    tx_byte                                  0x0002cb89   Thumb Code    32  nrfx_uart.o(i.tx_byte)
    i.tx_done_event                          0x0002cba8   Section        0  nrfx_uart.o(i.tx_done_event)
    tx_done_event                            0x0002cba9   Thumb Code    26  nrfx_uart.o(i.tx_done_event)
    i.tx_done_event                          0x0002cbc2   Section        0  nrfx_uarte.o(i.tx_done_event)
    tx_done_event                            0x0002cbc3   Thumb Code    26  nrfx_uarte.o(i.tx_done_event)
    i.uart_event_handle                      0x0002cbdc   Section        0  main.o(i.uart_event_handle)
    i.uart_event_handler                     0x0002cc74   Section        0  app_uart_fifo.o(i.uart_event_handler)
    uart_event_handler                       0x0002cc75   Thumb Code   156  app_uart_fifo.o(i.uart_event_handler)
    i.uart_evt_handler                       0x0002cd18   Section        0  nrf_drv_uart.o(i.uart_evt_handler)
    uart_evt_handler                         0x0002cd19   Thumb Code    42  nrf_drv_uart.o(i.uart_evt_handler)
    i.uart_init                              0x0002cd48   Section        0  main.o(i.uart_init)
    uart_init                                0x0002cd49   Thumb Code    54  main.o(i.uart_init)
    i.uart_irq_handler                       0x0002cd90   Section        0  nrfx_uart.o(i.uart_irq_handler)
    uart_irq_handler                         0x0002cd91   Thumb Code   298  nrfx_uart.o(i.uart_irq_handler)
    i.uarte_evt_handler                      0x0002cebc   Section        0  nrf_drv_uart.o(i.uarte_evt_handler)
    uarte_evt_handler                        0x0002cebd   Thumb Code    42  nrf_drv_uart.o(i.uarte_evt_handler)
    i.uarte_irq_handler                      0x0002ceec   Section        0  nrfx_uarte.o(i.uarte_irq_handler)
    uarte_irq_handler                        0x0002ceed   Thumb Code   274  nrfx_uarte.o(i.uarte_irq_handler)
    i.uint16_encode                          0x0002cffe   Section        0  ble_advdata.o(i.uint16_encode)
    uint16_encode                            0x0002cfff   Thumb Code    10  ble_advdata.o(i.uint16_encode)
    i.uninit                                 0x0002d008   Section        0  nrf_fstorage_sd.o(i.uninit)
    uninit                                   0x0002d009   Thumb Code    22  nrf_fstorage_sd.o(i.uninit)
    i.update_timeout_handler                 0x0002d028   Section        0  ble_conn_params.o(i.update_timeout_handler)
    update_timeout_handler                   0x0002d029   Thumb Code    98  ble_conn_params.o(i.update_timeout_handler)
    i.use_whitelist                          0x0002d090   Section        0  ble_advertising.o(i.use_whitelist)
    use_whitelist                            0x0002d091   Thumb Code    24  ble_advertising.o(i.use_whitelist)
    i.user_mem_reply                         0x0002d0a8   Section        0  nrf_ble_qwr.o(i.user_mem_reply)
    user_mem_reply                           0x0002d0a9   Thumb Code    36  nrf_ble_qwr.o(i.user_mem_reply)
    i.uuid_list_encode                       0x0002d0cc   Section        0  ble_advdata.o(i.uuid_list_encode)
    uuid_list_encode                         0x0002d0cd   Thumb Code    48  ble_advdata.o(i.uuid_list_encode)
    i.uuid_list_sized_encode                 0x0002d0fc   Section        0  ble_advdata.o(i.uuid_list_sized_encode)
    uuid_list_sized_encode                   0x0002d0fd   Thumb Code   158  ble_advdata.o(i.uuid_list_sized_encode)
    i.wait_for_flash_ready                   0x0002d19a   Section        0  main.o(i.wait_for_flash_ready)
    i.wakeup_button_cfg                      0x0002d1aa   Section        0  bsp.o(i.wakeup_button_cfg)
    wakeup_button_cfg                        0x0002d1ab   Thumb Code    58  bsp.o(i.wakeup_button_cfg)
    i.wmap                                   0x0002d1e4   Section        0  nrf_fstorage_sd.o(i.wmap)
    wmap                                     0x0002d1e5   Thumb Code     4  nrf_fstorage_sd.o(i.wmap)
    i.write                                  0x0002d1e8   Section        0  nrf_fstorage_sd.o(i.write)
    write                                    0x0002d1e9   Thumb Code    74  nrf_fstorage_sd.o(i.write)
    .constdata                               0x0002d238   Section       20  main.o(.constdata)
    m_ble_gatt_queuereq_queue                0x0002d238   Data          20  main.o(.constdata)
    .constdata                               0x0002d250   Section       76  main.o(.constdata)
    m_nus_uuid                               0x0002d250   Data           4  main.o(.constdata)
    my_timer                                 0x0002d254   Data           4  main.o(.constdata)
    delay_machine_code                       0x0002d260   Data           6  main.o(.constdata)
    m_target_periph_addr                     0x0002d26e   Data           7  main.o(.constdata)
    m_target_periph_name                     0x0002d275   Data          13  main.o(.constdata)
    .constdata                               0x0002d29c   Section        4  boards.o(.constdata)
    m_board_btn_list                         0x0002d29c   Data           4  boards.o(.constdata)
    .constdata                               0x0002d2a0   Section      124  ble_db_discovery.o(.constdata)
    .constdata                               0x0002d31c   Section       22  nrf_ble_gatt.o(.constdata)
    .constdata                               0x0002d334   Section       24  nrf_ble_gq.o(.constdata)
    m_req_data_alloc                         0x0002d334   Data          24  nrf_ble_gq.o(.constdata)
    .constdata                               0x0002d34c   Section       16  ble_nus_c.o(.constdata)
    .constdata                               0x0002d35c   Section       16  ble_nus.o(.constdata)
    .constdata                               0x0002d36c   Section        4  nrfx_gpiote.o(.constdata)
    .constdata                               0x0002d370   Section        4  nrfx_uart.o(.constdata)
    irq_handlers                             0x0002d370   Data           4  nrfx_uart.o(.constdata)
    .constdata                               0x0002d374   Section        4  nrfx_uarte.o(.constdata)
    irq_handlers                             0x0002d374   Data           4  nrfx_uarte.o(.constdata)
    .constdata                               0x0002d378   Section       16  nrf_fstorage_sd.o(.constdata)
    m_fifo                                   0x0002d378   Data           4  nrf_fstorage_sd.o(.constdata)
    m_flash_info                             0x0002d37c   Data          12  nrf_fstorage_sd.o(.constdata)
    .constdata                               0x0002d388   Section       32  nrf_fstorage_sd.o(.constdata)
    .constdata                               0x0002d3a8   Section       20  app_timer2.o(.constdata)
    m_req_fifo                               0x0002d3a8   Data           4  app_timer2.o(.constdata)
    m_app_timer_sortlist                     0x0002d3b0   Data          12  app_timer2.o(.constdata)
    .constdata                               0x0002d3bc   Section       32  app_uart_fifo.o(.constdata)
    .constdata                               0x0002d3e0   Section        6  drv_rtc.o(.constdata)
    delay_machine_code                       0x0002d3e0   Data           6  drv_rtc.o(.constdata)
    .constdata                               0x0002d3e8   Section       24  nrf_pwr_mgmt.o(.constdata)
    pwr_mgmt_data_array                      0x0002d3e8   Data          24  nrf_pwr_mgmt.o(.constdata)
    .constdata                               0x0002d400   Section       12  nrf_pwr_mgmt.o(.constdata)
    pwr_mgmt_data                            0x0002d400   Data          12  nrf_pwr_mgmt.o(.constdata)
    .constdata                               0x0002d40c   Section       16  nrf_sdh.o(.constdata)
    sdh_req_observers_array                  0x0002d40c   Data          16  nrf_sdh.o(.constdata)
    .constdata                               0x0002d41c   Section       40  nrf_sdh.o(.constdata)
    sdh_req_observers                        0x0002d420   Data          12  nrf_sdh.o(.constdata)
    sdh_state_observers                      0x0002d42c   Data          12  nrf_sdh.o(.constdata)
    sdh_stack_observers                      0x0002d438   Data          12  nrf_sdh.o(.constdata)
    .constdata                               0x0002d444   Section       16  nrf_sdh.o(.constdata)
    sdh_state_observers_array                0x0002d444   Data          16  nrf_sdh.o(.constdata)
    .constdata                               0x0002d454   Section       16  nrf_sdh.o(.constdata)
    sdh_stack_observers_array                0x0002d454   Data          16  nrf_sdh.o(.constdata)
    .constdata                               0x0002d464   Section       32  nrf_sdh_ble.o(.constdata)
    sdh_ble_observers_array                  0x0002d464   Data          32  nrf_sdh_ble.o(.constdata)
    .constdata                               0x0002d484   Section       16  nrf_sdh_ble.o(.constdata)
    sdh_ble_observers                        0x0002d488   Data          12  nrf_sdh_ble.o(.constdata)
    .constdata                               0x0002d494   Section       16  nrf_sdh_soc.o(.constdata)
    sdh_soc_observers_array                  0x0002d494   Data          16  nrf_sdh_soc.o(.constdata)
    .constdata                               0x0002d4a4   Section       12  nrf_sdh_soc.o(.constdata)
    sdh_soc_observers                        0x0002d4a4   Data          12  nrf_sdh_soc.o(.constdata)
    .conststring                             0x0002d4b0   Section      575  main.o(.conststring)
    nrf_balloc                               0x0002d710   Section       20  main.o(nrf_balloc)
    __tagsym$$used                           0x0002d710   Number         0  main.o(nrf_balloc)
    nrf_queue                                0x0002d724   Section       20  main.o(nrf_queue)
    __tagsym$$used                           0x0002d724   Number         0  main.o(nrf_queue)
    pwr_mgmt_data1                           0x0002d738   Section        4  main.o(pwr_mgmt_data1)
    __tagsym$$used                           0x0002d738   Number         0  main.o(pwr_mgmt_data1)
    shutdown_handler_handler_function        0x0002d738   Data           4  main.o(pwr_mgmt_data1)
    sdh_ble_observers0                       0x0002d73c   Section        8  ble_conn_state.o(sdh_ble_observers0)
    __tagsym$$used                           0x0002d73c   Number         0  ble_conn_state.o(sdh_ble_observers0)
    m_ble_evt_observer                       0x0002d73c   Data           8  ble_conn_state.o(sdh_ble_observers0)
    sdh_ble_observers1                       0x0002d744   Section       40  main.o(sdh_ble_observers1)
    __tagsym$$used                           0x0002d744   Number         0  main.o(sdh_ble_observers1)
    m_gatt_obs                               0x0002d744   Data           8  main.o(sdh_ble_observers1)
    __tagsym$$used                           0x0002d74c   Number         0  main.o(sdh_ble_observers1)
    m_db_disc_obs                            0x0002d74c   Data           8  main.o(sdh_ble_observers1)
    __tagsym$$used                           0x0002d754   Number         0  main.o(sdh_ble_observers1)
    m_scan_ble_obs                           0x0002d754   Data           8  main.o(sdh_ble_observers1)
    __tagsym$$used                           0x0002d75c   Number         0  main.o(sdh_ble_observers1)
    m_ble_gatt_queue_obs                     0x0002d75c   Data           8  main.o(sdh_ble_observers1)
    __tagsym$$used                           0x0002d764   Number         0  main.o(sdh_ble_observers1)
    m_advertising_ble_obs                    0x0002d764   Data           8  main.o(sdh_ble_observers1)
    sdh_ble_observers1                       0x0002d76c   Section        8  bsp_btn_ble.o(sdh_ble_observers1)
    __tagsym$$used                           0x0002d76c   Number         0  bsp_btn_ble.o(sdh_ble_observers1)
    m_ble_observer                           0x0002d76c   Data           8  bsp_btn_ble.o(sdh_ble_observers1)
    sdh_ble_observers1                       0x0002d774   Section        8  ble_conn_params.o(sdh_ble_observers1)
    __tagsym$$used                           0x0002d774   Number         0  ble_conn_params.o(sdh_ble_observers1)
    m_ble_observer                           0x0002d774   Data           8  ble_conn_params.o(sdh_ble_observers1)
    sdh_ble_observers2                       0x0002d77c   Section       24  main.o(sdh_ble_observers2)
    __tagsym$$used                           0x0002d77c   Number         0  main.o(sdh_ble_observers2)
    m_ble_nus_c_obs                          0x0002d77c   Data           8  main.o(sdh_ble_observers2)
    __tagsym$$used                           0x0002d784   Number         0  main.o(sdh_ble_observers2)
    m_nus_obs                                0x0002d784   Data           8  main.o(sdh_ble_observers2)
    __tagsym$$used                           0x0002d78c   Number         0  main.o(sdh_ble_observers2)
    m_qwr_obs                                0x0002d78c   Data           8  main.o(sdh_ble_observers2)
    sdh_ble_observers3                       0x0002d794   Section        8  main.o(sdh_ble_observers3)
    __tagsym$$used                           0x0002d794   Number         0  main.o(sdh_ble_observers3)
    m_ble_observer                           0x0002d794   Data           8  main.o(sdh_ble_observers3)
    sdh_req_observers0                       0x0002d79c   Section        8  nrf_fstorage_sd.o(sdh_req_observers0)
    __tagsym$$used                           0x0002d79c   Number         0  nrf_fstorage_sd.o(sdh_req_observers0)
    sdh_soc_observers0                       0x0002d7a4   Section        8  nrf_drv_clock.o(sdh_soc_observers0)
    __tagsym$$used                           0x0002d7a4   Number         0  nrf_drv_clock.o(sdh_soc_observers0)
    m_soc_evt_observer                       0x0002d7a4   Data           8  nrf_drv_clock.o(sdh_soc_observers0)
    sdh_soc_observers0                       0x0002d7ac   Section        8  nrf_fstorage_sd.o(sdh_soc_observers0)
    __tagsym$$used                           0x0002d7ac   Number         0  nrf_fstorage_sd.o(sdh_soc_observers0)
    m_sys_obs                                0x0002d7ac   Data           8  nrf_fstorage_sd.o(sdh_soc_observers0)
    sdh_stack_observers0                     0x0002d7b4   Section        8  nrf_sdh_ble.o(sdh_stack_observers0)
    __tagsym$$used                           0x0002d7b4   Number         0  nrf_sdh_ble.o(sdh_stack_observers0)
    m_nrf_sdh_ble_evts_poll                  0x0002d7b4   Data           8  nrf_sdh_ble.o(sdh_stack_observers0)
    sdh_stack_observers0                     0x0002d7bc   Section        8  nrf_sdh_soc.o(sdh_stack_observers0)
    __tagsym$$used                           0x0002d7bc   Number         0  nrf_sdh_soc.o(sdh_stack_observers0)
    m_nrf_sdh_soc_evts_poll                  0x0002d7bc   Data           8  nrf_sdh_soc.o(sdh_stack_observers0)
    sdh_state_observers0                     0x0002d7c4   Section        8  nrf_drv_clock.o(sdh_state_observers0)
    __tagsym$$used                           0x0002d7c4   Number         0  nrf_drv_clock.o(sdh_state_observers0)
    m_sd_state_observer                      0x0002d7c4   Data           8  nrf_drv_clock.o(sdh_state_observers0)
    sdh_state_observers0                     0x0002d7cc   Section        8  nrf_fstorage_sd.o(sdh_state_observers0)
    __tagsym$$used                           0x0002d7cc   Number         0  nrf_fstorage_sd.o(sdh_state_observers0)
    m_state_obs                              0x0002d7cc   Data           8  nrf_fstorage_sd.o(sdh_state_observers0)
    .data                                    0x200039c8   Section     1644  main.o(.data)
    rf_receive_eable                         0x200039c8   Data           1  main.o(.data)
    ble_adv_enable                           0x200039c9   Data           1  main.o(.data)
    m_ble_nus_max_data_len                   0x200039ca   Data           2  main.o(.data)
    m_conn_handle                            0x200039cc   Data           2  main.o(.data)
    uart_event_index                         0x200039ce   Data           2  main.o(.data)
    m_adv_uuids                              0x200039d0   Data           4  main.o(.data)
    uart_event_tick_pre                      0x200039d4   Data           4  main.o(.data)
    mac_name_active                          0x200039f2   Data          64  main.o(.data)
    m_db_disc                                0x20003a34   Data        1488  main.o(.data)
    m_ble_gatt_queue                         0x20004004   Data          20  main.o(.data)
    m_nus                                    0x20004018   Data          28  main.o(.data)
    .data                                    0x20004034   Section        2  main.o(.data)
    m_ble_gatt_queueconn_handles_arr         0x20004034   Data           2  main.o(.data)
    .data                                    0x20004038   Section        8  main.o(.data)
    m_nus_link_ctx_storage                   0x20004038   Data           8  main.o(.data)
    .data                                    0x20004040   Section        4  main.o(.data)
    m_ble_gatt_queuepurge_queue_nrf_queue_buffer 0x20004040   Data           4  main.o(.data)
    .data                                    0x20004044   Section        8  main.o(.data)
    m_ble_gatt_queuepool_nrf_balloc_pool_stack 0x20004044   Data           8  main.o(.data)
    .data                                    0x2000404c   Section        8  main.o(.data)
    m_ble_gatt_queuepool_nrf_balloc_cb       0x2000404c   Data           8  main.o(.data)
    .data                                    0x20004054   Section        8  main.o(.data)
    m_nus_link_ctx_storage_ctx_data_pool     0x20004054   Data           8  main.o(.data)
    .data                                    0x2000405c   Section        8  bsp_btn_ble.o(.data)
    m_error_handler                          0x2000405c   Data           4  bsp_btn_ble.o(.data)
    m_num_connections                        0x20004060   Data           4  bsp_btn_ble.o(.data)
    .data                                    0x20004064   Section       16  ble_db_discovery.o(.data)
    m_initialized                            0x20004064   Data           1  ble_db_discovery.o(.data)
    m_evt_handler                            0x20004068   Data           4  ble_db_discovery.o(.data)
    mp_gatt_queue                            0x2000406c   Data           4  ble_db_discovery.o(.data)
    m_num_of_handlers_reg                    0x20004070   Data           4  ble_db_discovery.o(.data)
    .data                                    0x20004074   Section        8  ble_conn_params.o(.data)
    m_preferred_conn_params                  0x20004074   Data           8  ble_conn_params.o(.data)
    .data                                    0x2000407c   Section       12  nrf_drv_uart.o(.data)
    m_handlers                               0x20004080   Data           4  nrf_drv_uart.o(.data)
    m_contexts                               0x20004084   Data           4  nrf_drv_uart.o(.data)
    .data                                    0x20004088   Section        8  nrfx_clock.o(.data)
    m_clock_cb                               0x20004088   Data           8  nrfx_clock.o(.data)
    .data                                    0x20004090   Section        8  nrfx_prs.o(.data)
    m_prs_box_2                              0x20004090   Data           8  nrfx_prs.o(.data)
    .data                                    0x20004098   Section        8  nrf_fstorage_sd.o(.data)
    m_p_cur_op                               0x20004098   Data           4  nrf_fstorage_sd.o(.data)
    m_iget_ctx                               0x2000409c   Data           4  nrf_fstorage_sd.o(.data)
    .data                                    0x200040a0   Section       32  app_timer2.o(.data)
    m_global_active                          0x200040a0   Data           1  app_timer2.o(.data)
    mp_active_timer                          0x200040a4   Data           4  app_timer2.o(.data)
    m_rtc_inst                               0x200040a8   Data           8  app_timer2.o(.data)
    m_base_counter                           0x200040b0   Data           8  app_timer2.o(.data)
    m_stamp64                                0x200040b8   Data           8  app_timer2.o(.data)
    .data                                    0x200040c0   Section        4  app_timer2.o(.data)
    m_app_timer_sortlist_sortlist_cb         0x200040c0   Data           4  app_timer2.o(.data)
    .data                                    0x200040c4   Section       28  app_uart_fifo.o(.data)
    tx_buffer                                0x200040c4   Data           1  app_uart_fifo.o(.data)
    rx_buffer                                0x200040c5   Data           1  app_uart_fifo.o(.data)
    m_rx_ovf                                 0x200040c6   Data           1  app_uart_fifo.o(.data)
    m_event_handler                          0x200040c8   Data           4  app_uart_fifo.o(.data)
    app_uart_inst                            0x200040cc   Data          20  app_uart_fifo.o(.data)
    .data                                    0x200040e0   Section       12  drv_rtc.o(.data)
    m_handlers                               0x200040e0   Data           4  drv_rtc.o(.data)
    m_cb                                     0x200040e4   Data           8  drv_rtc.o(.data)
    .data                                    0x200040ec   Section        8  nrf_pwr_mgmt.o(.data)
    m_pwr_mgmt_evt                           0x200040ec   Data           1  nrf_pwr_mgmt.o(.data)
    m_shutdown_started                       0x200040ed   Data           1  nrf_pwr_mgmt.o(.data)
    m_sysoff_mtx                             0x200040f0   Data           4  nrf_pwr_mgmt.o(.data)
    .data                                    0x200040f4   Section        4  retarget.o(.data)
    .data                                    0x200040f8   Section        3  nrf_sdh.o(.data)
    m_nrf_sdh_enabled                        0x200040f8   Data           1  nrf_sdh.o(.data)
    m_nrf_sdh_suspended                      0x200040f9   Data           1  nrf_sdh.o(.data)
    m_nrf_sdh_continue                       0x200040fa   Data           1  nrf_sdh.o(.data)
    .data                                    0x200040fb   Section        1  nrf_sdh_ble.o(.data)
    m_stack_is_enabled                       0x200040fb   Data           1  nrf_sdh_ble.o(.data)
    .data                                    0x200040fc   Section        4  system_nrf52.o(.data)
    __tagsym$$used                           0x200040fc   Number         0  system_nrf52.o(.data)
    fs_data                                  0x20004100   Section       20  main.o(fs_data)
    __tagsym$$used                           0x20004100   Number         0  main.o(fs_data)
    .bss                                     0x20004118   Section       32  main.o(.bss)
    my_timer_data                            0x20004118   Data          32  main.o(.bss)
    .bss                                     0x20004138   Section     2212  main.o(.bss)
    paired_broadcast                         0x20004138   Data          32  main.o(.bss)
    rx_buf                                   0x20004158   Data         256  main.o(.bss)
    tx_buf                                   0x20004258   Data         256  main.o(.bss)
    result                                   0x20004358   Data          30  main.o(.bss)
    mac_name_read_flash                      0x20004376   Data          64  main.o(.bss)
    m_ble_nus_c                              0x200043b8   Data          24  main.o(.bss)
    m_gatt                                   0x200043d0   Data          28  main.o(.bss)
    m_scan                                   0x200043ec   Data         124  main.o(.bss)
    m_qwr                                    0x20004468   Data          12  main.o(.bss)
    m_advertising                            0x20004474   Data        1076  main.o(.bss)
    uart_event_data_array                    0x200048a8   Data         244  main.o(.bss)
    fstorage_data_write_temp                 0x2000499c   Data          64  main.o(.bss)
    .bss                                     0x200049dc   Section      160  main.o(.bss)
    m_ble_gatt_queuereq_queue0_nrf_queue_buffer 0x200049dc   Data         160  main.o(.bss)
    .bss                                     0x20004a7c   Section       12  main.o(.bss)
    m_ble_gatt_queuereq_queue0_nrf_queue_cb  0x20004a7c   Data          12  main.o(.bss)
    .bss                                     0x20004a88   Section       12  main.o(.bss)
    m_ble_gatt_queuepurge_queue_nrf_queue_cb 0x20004a88   Data          12  main.o(.bss)
    .bss                                     0x20004a94   Section      192  main.o(.bss)
    m_ble_gatt_queuepool_nrf_balloc_pool_mem 0x20004a94   Data         192  main.o(.bss)
    .bss                                     0x20004b54   Section       12  bsp.o(.bss)
    m_events_list                            0x20004b54   Data          12  bsp.o(.bss)
    .bss                                     0x20004b60   Section       24  ble_db_discovery.o(.bss)
    m_registered_handlers                    0x20004b60   Data          24  ble_db_discovery.o(.bss)
    .bss                                     0x20004b78   Section       80  ble_conn_params.o(.bss)
    m_timer_data                             0x20004b78   Data          32  ble_conn_params.o(.bss)
    m_conn_params_instances                  0x20004b98   Data          20  ble_conn_params.o(.bss)
    m_conn_params_config                     0x20004bac   Data          28  ble_conn_params.o(.bss)
    .bss                                     0x20004bc8   Section      124  ble_conn_state.o(.bss)
    m_bcs                                    0x20004bc8   Data         124  ble_conn_state.o(.bss)
    .bss                                     0x20004c44   Section       20  nrf_drv_clock.o(.bss)
    m_clock_cb                               0x20004c44   Data          20  nrf_drv_clock.o(.bss)
    .bss                                     0x20004c58   Section       92  nrfx_gpiote.o(.bss)
    m_cb                                     0x20004c58   Data          92  nrfx_gpiote.o(.bss)
    .bss                                     0x20004cb4   Section       44  nrfx_uart.o(.bss)
    m_cb                                     0x20004cb4   Data          44  nrfx_uart.o(.bss)
    .bss                                     0x20004ce0   Section       36  nrfx_uarte.o(.bss)
    m_cb                                     0x20004ce0   Data          36  nrfx_uarte.o(.bss)
    .bss                                     0x20004d04   Section       16  nrf_fstorage_sd.o(.bss)
    m_fifo_inst                              0x20004d04   Data          16  nrf_fstorage_sd.o(.bss)
    .bss                                     0x20004d14   Section      160  nrf_fstorage_sd.o(.bss)
    m_fifo_data                              0x20004d14   Data         140  nrf_fstorage_sd.o(.bss)
    m_flags                                  0x20004da0   Data          20  nrf_fstorage_sd.o(.bss)
    .bss                                     0x20004db4   Section       16  app_timer2.o(.bss)
    m_req_fifo_inst                          0x20004db4   Data          16  app_timer2.o(.bss)
    .bss                                     0x20004dc4   Section       88  app_timer2.o(.bss)
    m_req_fifo_data                          0x20004dc4   Data          88  app_timer2.o(.bss)
    .bss                                     0x20004e1c   Section       32  app_uart_fifo.o(.bss)
    m_rx_fifo                                0x20004e1c   Data          16  app_uart_fifo.o(.bss)
    m_tx_fifo                                0x20004e2c   Data          16  app_uart_fifo.o(.bss)
    .bss                                     0x20004e3c   Section       12  app_util_platform.o(.bss)
    .bss                                     0x20004e48   Section       12  nrf_pwr_mgmt.o(.bss)
    m_handlers_iter                          0x20004e48   Data          12  nrf_pwr_mgmt.o(.bss)
    STACK                                    0x20004e58   Section     3072  arm_startup_nrf52805.o(STACK)

    Global Symbols

    Symbol Name                              Value     Ov Type        Size  Object(Section)

    BuildAttributes$$THM_ISAv4$E$P$D$K$B$S$7EM$PE$A:L22UL41UL21$X:L11$S22US41US21$IEEE1$IW$USESV6$~STKCKD$USESV7$~SHL$OSPACE$ROPI$EBA8$MICROLIB$REQ8$EABIv2 0x00000000   Number         0  anon$$obj.o ABSOLUTE
    __ARM_use_no_argv                        0x00000000   Number         0  main.o ABSOLUTE
    _printf_a                                0x00000000   Number         0  stubs.o ABSOLUTE
    _printf_c                                0x00000000   Number         0  stubs.o ABSOLUTE
    _printf_charcount                        0x00000000   Number         0  stubs.o ABSOLUTE
    _printf_d                                0x00000000   Number         0  stubs.o ABSOLUTE
    _printf_e                                0x00000000   Number         0  stubs.o ABSOLUTE
    _printf_f                                0x00000000   Number         0  stubs.o ABSOLUTE
    _printf_flags                            0x00000000   Number         0  stubs.o ABSOLUTE
    _printf_fp_dec                           0x00000000   Number         0  stubs.o ABSOLUTE
    _printf_fp_hex                           0x00000000   Number         0  stubs.o ABSOLUTE
    _printf_g                                0x00000000   Number         0  stubs.o ABSOLUTE
    _printf_i                                0x00000000   Number         0  stubs.o ABSOLUTE
    _printf_int_dec                          0x00000000   Number         0  stubs.o ABSOLUTE
    _printf_l                                0x00000000   Number         0  stubs.o ABSOLUTE
    _printf_lc                               0x00000000   Number         0  stubs.o ABSOLUTE
    _printf_ll                               0x00000000   Number         0  stubs.o ABSOLUTE
    _printf_lld                              0x00000000   Number         0  stubs.o ABSOLUTE
    _printf_lli                              0x00000000   Number         0  stubs.o ABSOLUTE
    _printf_llo                              0x00000000   Number         0  stubs.o ABSOLUTE
    _printf_llu                              0x00000000   Number         0  stubs.o ABSOLUTE
    _printf_llx                              0x00000000   Number         0  stubs.o ABSOLUTE
    _printf_longlong_dec                     0x00000000   Number         0  stubs.o ABSOLUTE
    _printf_longlong_hex                     0x00000000   Number         0  stubs.o ABSOLUTE
    _printf_longlong_oct                     0x00000000   Number         0  stubs.o ABSOLUTE
    _printf_ls                               0x00000000   Number         0  stubs.o ABSOLUTE
    _printf_mbtowc                           0x00000000   Number         0  stubs.o ABSOLUTE
    _printf_n                                0x00000000   Number         0  stubs.o ABSOLUTE
    _printf_o                                0x00000000   Number         0  stubs.o ABSOLUTE
    _printf_p                                0x00000000   Number         0  stubs.o ABSOLUTE
    _printf_percent                          0x00000000   Number         0  stubs.o ABSOLUTE
    _printf_pre_padding                      0x00000000   Number         0  stubs.o ABSOLUTE
    _printf_return_value                     0x00000000   Number         0  stubs.o ABSOLUTE
    _printf_s                                0x00000000   Number         0  stubs.o ABSOLUTE
    _printf_sizespec                         0x00000000   Number         0  stubs.o ABSOLUTE
    _printf_str                              0x00000000   Number         0  stubs.o ABSOLUTE
    _printf_truncate_signed                  0x00000000   Number         0  stubs.o ABSOLUTE
    _printf_truncate_unsigned                0x00000000   Number         0  stubs.o ABSOLUTE
    _printf_u                                0x00000000   Number         0  stubs.o ABSOLUTE
    _printf_wc                               0x00000000   Number         0  stubs.o ABSOLUTE
    _printf_wctomb                           0x00000000   Number         0  stubs.o ABSOLUTE
    _printf_widthprec                        0x00000000   Number         0  stubs.o ABSOLUTE
    _printf_x                                0x00000000   Number         0  stubs.o ABSOLUTE
    __cpp_initialize__aeabi_                  - Undefined Weak Reference
    __cxa_finalize                            - Undefined Weak Reference
    _clock_init                               - Undefined Weak Reference
    _microlib_exit                            - Undefined Weak Reference
    pwr_mgmt_data0$$Base                      - Undefined Reference
    pwr_mgmt_data0$$Limit                     - Undefined Reference
    pwr_mgmt_data2$$Base                      - Undefined Reference
    pwr_mgmt_data2$$Limit                     - Undefined Reference
    sdh_req_observers1$$Base                  - Undefined Reference
    sdh_req_observers1$$Limit                 - Undefined Reference
    sdh_soc_observers1$$Base                  - Undefined Reference
    sdh_soc_observers1$$Limit                 - Undefined Reference
    sdh_stack_observers1$$Base                - Undefined Reference
    sdh_stack_observers1$$Limit               - Undefined Reference
    sdh_state_observers1$$Base                - Undefined Reference
    sdh_state_observers1$$Limit               - Undefined Reference
    __Vectors_Size                           0x00000200   Number         0  arm_startup_nrf52805.o ABSOLUTE
    __Vectors                                0x00026000   Data           4  arm_startup_nrf52805.o(RESET)
    __Vectors_End                            0x00026200   Data           0  arm_startup_nrf52805.o(RESET)
    __main                                   0x00026201   Thumb Code     0  entry.o(.ARM.Collect$$$$00000000)
    _main_stk                                0x00026201   Thumb Code     0  entry2.o(.ARM.Collect$$$$00000001)
    _main_scatterload                        0x00026205   Thumb Code     0  entry5.o(.ARM.Collect$$$$00000004)
    __main_after_scatterload                 0x00026209   Thumb Code     0  entry5.o(.ARM.Collect$$$$00000004)
    _main_clock                              0x00026209   Thumb Code     0  entry7b.o(.ARM.Collect$$$$00000008)
    _main_cpp_init                           0x00026209   Thumb Code     0  entry8b.o(.ARM.Collect$$$$0000000A)
    _main_init                               0x00026209   Thumb Code     0  entry9a.o(.ARM.Collect$$$$0000000B)
    __rt_final_cpp                           0x00026211   Thumb Code     0  entry10a.o(.ARM.Collect$$$$0000000D)
    __rt_final_exit                          0x00026211   Thumb Code     0  entry11a.o(.ARM.Collect$$$$0000000F)
    __asm___12_nrf_atfifo_c_51f461e1__nrf_atfifo_wspace_req 0x00026215   Thumb Code    56  nrf_atfifo.o(.emb_text)
    __asm___12_nrf_atfifo_c_51f461e1__nrf_atfifo_wspace_close 0x0002624d   Thumb Code    18  nrf_atfifo.o(.emb_text)
    __asm___12_nrf_atfifo_c_51f461e1__nrf_atfifo_rspace_req 0x0002625f   Thumb Code    58  nrf_atfifo.o(.emb_text)
    __asm___12_nrf_atfifo_c_51f461e1__nrf_atfifo_rspace_close 0x00026299   Thumb Code    18  nrf_atfifo.o(.emb_text)
    __asm___12_nrf_atfifo_c_51f461e1__nrf_atfifo_space_clear 0x000262ab   Thumb Code    50  nrf_atfifo.o(.emb_text)
    __asm___12_nrf_atomic_c_85ca2469__nrf_atomic_internal_mov 0x000262dd   Thumb Code    24  nrf_atomic.o(.emb_text)
    __asm___12_nrf_atomic_c_85ca2469__nrf_atomic_internal_orr 0x000262f5   Thumb Code    26  nrf_atomic.o(.emb_text)
    __asm___12_nrf_atomic_c_85ca2469__nrf_atomic_internal_and 0x0002630f   Thumb Code    26  nrf_atomic.o(.emb_text)
    __asm___12_nrf_atomic_c_85ca2469__nrf_atomic_internal_eor 0x00026329   Thumb Code    26  nrf_atomic.o(.emb_text)
    __asm___12_nrf_atomic_c_85ca2469__nrf_atomic_internal_add 0x00026343   Thumb Code    26  nrf_atomic.o(.emb_text)
    __asm___12_nrf_atomic_c_85ca2469__nrf_atomic_internal_sub 0x0002635d   Thumb Code    26  nrf_atomic.o(.emb_text)
    __asm___12_nrf_atomic_c_85ca2469__nrf_atomic_internal_cmp_exch 0x00026377   Thumb Code    42  nrf_atomic.o(.emb_text)
    __asm___12_nrf_atomic_c_85ca2469__nrf_atomic_internal_sub_hs 0x000263a1   Thumb Code    30  nrf_atomic.o(.emb_text)
    Reset_Handler                            0x000263c1   Thumb Code     8  arm_startup_nrf52805.o(.text)
    NMI_Handler                              0x000263c9   Thumb Code     2  arm_startup_nrf52805.o(.text)
    HardFault_Handler                        0x000263cb   Thumb Code     2  arm_startup_nrf52805.o(.text)
    MemoryManagement_Handler                 0x000263cd   Thumb Code     2  arm_startup_nrf52805.o(.text)
    BusFault_Handler                         0x000263cf   Thumb Code     2  arm_startup_nrf52805.o(.text)
    UsageFault_Handler                       0x000263d1   Thumb Code     2  arm_startup_nrf52805.o(.text)
    SVC_Handler                              0x000263d3   Thumb Code     2  arm_startup_nrf52805.o(.text)
    DebugMon_Handler                         0x000263d5   Thumb Code     2  arm_startup_nrf52805.o(.text)
    PendSV_Handler                           0x000263d7   Thumb Code     2  arm_startup_nrf52805.o(.text)
    SysTick_Handler                          0x000263d9   Thumb Code     2  arm_startup_nrf52805.o(.text)
    CCM_AAR_IRQHandler                       0x000263db   Thumb Code     0  arm_startup_nrf52805.o(.text)
    ECB_IRQHandler                           0x000263db   Thumb Code     0  arm_startup_nrf52805.o(.text)
    QDEC_IRQHandler                          0x000263db   Thumb Code     0  arm_startup_nrf52805.o(.text)
    RADIO_IRQHandler                         0x000263db   Thumb Code     0  arm_startup_nrf52805.o(.text)
    RNG_IRQHandler                           0x000263db   Thumb Code     0  arm_startup_nrf52805.o(.text)
    RTC0_IRQHandler                          0x000263db   Thumb Code     0  arm_startup_nrf52805.o(.text)
    SAADC_IRQHandler                         0x000263db   Thumb Code     0  arm_startup_nrf52805.o(.text)
    SPIM0_SPIS0_SPI0_IRQHandler              0x000263db   Thumb Code     0  arm_startup_nrf52805.o(.text)
    SWI0_EGU0_IRQHandler                     0x000263db   Thumb Code     0  arm_startup_nrf52805.o(.text)
    SWI1_EGU1_IRQHandler                     0x000263db   Thumb Code     0  arm_startup_nrf52805.o(.text)
    SWI3_IRQHandler                          0x000263db   Thumb Code     0  arm_startup_nrf52805.o(.text)
    SWI4_IRQHandler                          0x000263db   Thumb Code     0  arm_startup_nrf52805.o(.text)
    SWI5_IRQHandler                          0x000263db   Thumb Code     0  arm_startup_nrf52805.o(.text)
    TEMP_IRQHandler                          0x000263db   Thumb Code     0  arm_startup_nrf52805.o(.text)
    TIMER0_IRQHandler                        0x000263db   Thumb Code     0  arm_startup_nrf52805.o(.text)
    TIMER1_IRQHandler                        0x000263db   Thumb Code     0  arm_startup_nrf52805.o(.text)
    TIMER2_IRQHandler                        0x000263db   Thumb Code     0  arm_startup_nrf52805.o(.text)
    TWIM0_TWIS0_TWI0_IRQHandler              0x000263db   Thumb Code     0  arm_startup_nrf52805.o(.text)
    WDT_IRQHandler                           0x000263db   Thumb Code     0  arm_startup_nrf52805.o(.text)
    __aeabi_llsl                             0x000263e5   Thumb Code    30  llshl.o(.text)
    _ll_shift_l                              0x000263e5   Thumb Code     0  llshl.o(.text)
    __aeabi_memcpy                           0x00026403   Thumb Code    36  memcpya.o(.text)
    __aeabi_memcpy4                          0x00026403   Thumb Code     0  memcpya.o(.text)
    __aeabi_memcpy8                          0x00026403   Thumb Code     0  memcpya.o(.text)
    __aeabi_memset                           0x00026427   Thumb Code    14  memseta.o(.text)
    __aeabi_memset4                          0x00026427   Thumb Code     0  memseta.o(.text)
    __aeabi_memset8                          0x00026427   Thumb Code     0  memseta.o(.text)
    __aeabi_memclr                           0x00026435   Thumb Code     4  memseta.o(.text)
    __aeabi_memclr4                          0x00026435   Thumb Code     0  memseta.o(.text)
    __aeabi_memclr8                          0x00026435   Thumb Code     0  memseta.o(.text)
    _memset$wrapper                          0x00026439   Thumb Code    18  memseta.o(.text)
    strcat                                   0x0002644b   Thumb Code    24  strcat.o(.text)
    strstr                                   0x00026463   Thumb Code    36  strstr.o(.text)
    strlen                                   0x00026487   Thumb Code    14  strlen.o(.text)
    strcmp                                   0x00026495   Thumb Code    28  strcmp.o(.text)
    memcmp                                   0x000264b1   Thumb Code    26  memcmp.o(.text)
    strcpy                                   0x000264cb   Thumb Code    18  strcpy.o(.text)
    strncmp                                  0x000264dd   Thumb Code    30  strncmp.o(.text)
    __aeabi_uldivmod                         0x000264fb   Thumb Code    98  uldiv.o(.text)
    __scatterload                            0x0002655d   Thumb Code    28  init.o(.text)
    __scatterload_rt2                        0x0002655d   Thumb Code     0  init.o(.text)
    __aeabi_llsr                             0x00026581   Thumb Code    32  llushr.o(.text)
    _ll_ushift_r                             0x00026581   Thumb Code     0  llushr.o(.text)
    __decompress                             0x000265a1   Thumb Code     0  __dczerorl2.o(.text)
    __decompress1                            0x000265a1   Thumb Code    86  __dczerorl2.o(.text)
    GPIOTE_IRQHandler                        0x000265f9   Thumb Code   154  nrfx_gpiote.o(i.GPIOTE_IRQHandler)
    POWER_CLOCK_IRQHandler                   0x0002669d   Thumb Code    74  nrfx_clock.o(i.POWER_CLOCK_IRQHandler)
    RTC1_IRQHandler                          0x000266ed   Thumb Code    12  drv_rtc.o(i.RTC1_IRQHandler)
    SWI2_IRQHandler                          0x000266fd   Thumb Code     4  nrf_sdh.o(i.SWI2_IRQHandler)
    SystemInit                               0x00026701   Thumb Code   576  system_nrf52.o(i.SystemInit)
    UARTE0_UART0_IRQHandler                  0x00026985   Thumb Code     6  nrfx_prs.o(i.UARTE0_UART0_IRQHandler)
    __0printf$8                              0x00026991   Thumb Code    22  printf8.o(i.__0printf$8)
    __1printf$8                              0x00026991   Thumb Code     0  printf8.o(i.__0printf$8)
    __2printf                                0x00026991   Thumb Code     0  printf8.o(i.__0printf$8)
    __scatterload_copy                       0x000269b1   Thumb Code    14  handlers.o(i.__scatterload_copy)
    __scatterload_null                       0x000269bf   Thumb Code     2  handlers.o(i.__scatterload_null)
    __scatterload_zeroinit                   0x000269c1   Thumb Code    14  handlers.o(i.__scatterload_zeroinit)
    app_error_fault_handler                  0x00026edd   Thumb Code    40  app_error_weak.o(i.app_error_fault_handler)
    app_error_handler_bare                   0x00026f0d   Thumb Code    22  app_error.o(i.app_error_handler_bare)
    app_fifo_get                             0x00026f23   Thumb Code    22  app_fifo.o(i.app_fifo_get)
    app_fifo_init                            0x00026f39   Thumb Code    32  app_fifo.o(i.app_fifo_init)
    app_fifo_put                             0x00026f59   Thumb Code    26  app_fifo.o(i.app_fifo_put)
    app_timer_cnt_get                        0x00026f75   Thumb Code     6  app_timer2.o(i.app_timer_cnt_get)
    app_timer_create                         0x00026f81   Thumb Code    22  app_timer2.o(i.app_timer_create)
    app_timer_init                           0x00026f99   Thumb Code    70  app_timer2.o(i.app_timer_init)
    app_timer_start                          0x00026ff5   Thumb Code    48  app_timer2.o(i.app_timer_start)
    app_timer_stop                           0x00027025   Thumb Code    12  app_timer2.o(i.app_timer_stop)
    app_uart_close                           0x00027031   Thumb Code    30  app_uart_fifo.o(i.app_uart_close)
    app_uart_get                             0x00027059   Thumb Code    42  app_uart_fifo.o(i.app_uart_get)
    app_uart_init                            0x0002708d   Thumb Code   148  app_uart_fifo.o(i.app_uart_init)
    app_uart_put                             0x00027131   Thumb Code    70  app_uart_fifo.o(i.app_uart_put)
    app_util_critical_region_enter           0x00027185   Thumb Code    64  app_util_platform.o(i.app_util_critical_region_enter)
    app_util_critical_region_exit            0x000271cd   Thumb Code    46  app_util_platform.o(i.app_util_critical_region_exit)
    at_command_handle                        0x00027311   Thumb Code  1792  main.o(i.at_command_handle)
    blcm_link_ctx_get                        0x00027a81   Thumb Code    72  ble_link_ctx_manager.o(i.blcm_link_ctx_get)
    ble_advdata_encode                       0x00027ac9   Thumb Code   386  ble_advdata.o(i.ble_advdata_encode)
    ble_advdata_name_find                    0x00027c4b   Thumb Code    68  ble_advdata.o(i.ble_advdata_name_find)
    ble_advdata_parse                        0x00027c8f   Thumb Code    32  ble_advdata.o(i.ble_advdata_parse)
    ble_advdata_search                       0x00027caf   Thumb Code    70  ble_advdata.o(i.ble_advdata_search)
    ble_advdata_uuid_find                    0x00027cf5   Thumb Code   182  ble_advdata.o(i.ble_advdata_uuid_find)
    ble_advertising_conn_cfg_tag_set         0x00027dab   Thumb Code     6  ble_advertising.o(i.ble_advertising_conn_cfg_tag_set)
    ble_advertising_init                     0x00027db1   Thumb Code   248  ble_advertising.o(i.ble_advertising_init)
    ble_advertising_on_ble_evt               0x00027ea9   Thumb Code   106  ble_advertising.o(i.ble_advertising_on_ble_evt)
    ble_advertising_start                    0x00027f13   Thumb Code   560  ble_advertising.o(i.ble_advertising_start)
    ble_conn_params_init                     0x000281dd   Thumb Code    90  ble_conn_params.o(i.ble_conn_params_init)
    ble_conn_state_conn_idx                  0x00028245   Thumb Code    18  ble_conn_state.o(i.ble_conn_state_conn_idx)
    ble_conn_state_role                      0x00028259   Thumb Code    32  ble_conn_state.o(i.ble_conn_state_role)
    ble_conn_state_valid                     0x0002827d   Thumb Code    16  ble_conn_state.o(i.ble_conn_state_valid)
    ble_db_discovery_evt_register            0x00028291   Thumb Code    56  ble_db_discovery.o(i.ble_db_discovery_evt_register)
    ble_db_discovery_init                    0x000282d1   Thumb Code    32  ble_db_discovery.o(i.ble_db_discovery_init)
    ble_db_discovery_on_ble_evt              0x000282f5   Thumb Code    86  ble_db_discovery.o(i.ble_db_discovery_on_ble_evt)
    ble_db_discovery_start                   0x00028351   Thumb Code    34  ble_db_discovery.o(i.ble_db_discovery_start)
    ble_nus_c_handles_assign                 0x000286f5   Thumb Code    28  ble_nus_c.o(i.ble_nus_c_handles_assign)
    ble_nus_c_init                           0x00028711   Thumb Code    86  ble_nus_c.o(i.ble_nus_c_init)
    ble_nus_c_on_ble_evt                     0x0002876d   Thumb Code   106  ble_nus_c.o(i.ble_nus_c_on_ble_evt)
    ble_nus_c_on_db_disc_evt                 0x000287d9   Thumb Code   134  ble_nus_c.o(i.ble_nus_c_on_db_disc_evt)
    ble_nus_c_string_send                    0x00028861   Thumb Code   100  ble_nus_c.o(i.ble_nus_c_string_send)
    ble_nus_c_tx_notif_enable                0x000288c9   Thumb Code   102  ble_nus_c.o(i.ble_nus_c_tx_notif_enable)
    ble_nus_data_send                        0x00028935   Thumb Code   102  ble_nus.o(i.ble_nus_data_send)
    ble_nus_init                             0x0002899d   Thumb Code   214  ble_nus.o(i.ble_nus_init)
    ble_nus_on_ble_evt                       0x00028a79   Thumb Code   118  ble_nus.o(i.ble_nus_on_ble_evt)
    ble_srv_is_notification_enabled          0x00028bcd   Thumb Code     8  ble_srv_common.o(i.ble_srv_is_notification_enabled)
    bsp_board_button_idx_to_pin              0x00028bd5   Thumb Code     6  boards.o(i.bsp_board_button_idx_to_pin)
    bsp_btn_ble_sleep_mode_prepare           0x00028be1   Thumb Code    30  bsp_btn_ble.o(i.bsp_btn_ble_sleep_mode_prepare)
    bsp_event_to_button_action_assign        0x00028c01   Thumb Code    64  bsp.o(i.bsp_event_to_button_action_assign)
    bsp_indication_set                       0x00028c45   Thumb Code     4  bsp.o(i.bsp_indication_set)
    bsp_wakeup_button_enable                 0x00028c49   Thumb Code     6  bsp.o(i.bsp_wakeup_button_enable)
    characteristic_add                       0x00028c61   Thumb Code   400  ble_srv_common.o(i.characteristic_add)
    conn_handle_list_get                     0x00028ed7   Thumb Code    62  ble_conn_state.o(i.conn_handle_list_get)
    drv_rtc_compare_disable                  0x0002927d   Thumb Code    20  drv_rtc.o(i.drv_rtc_compare_disable)
    drv_rtc_compare_pending                  0x00029291   Thumb Code    14  drv_rtc.o(i.drv_rtc_compare_pending)
    drv_rtc_compare_set                      0x0002929f   Thumb Code    80  drv_rtc.o(i.drv_rtc_compare_set)
    drv_rtc_counter_get                      0x000292ef   Thumb Code     8  drv_rtc.o(i.drv_rtc_counter_get)
    drv_rtc_init                             0x000292f9   Thumb Code   118  drv_rtc.o(i.drv_rtc_init)
    drv_rtc_irq_trigger                      0x00029375   Thumb Code    30  drv_rtc.o(i.drv_rtc_irq_trigger)
    drv_rtc_overflow_enable                  0x00029393   Thumb Code     8  drv_rtc.o(i.drv_rtc_overflow_enable)
    drv_rtc_overflow_pending                 0x0002939b   Thumb Code     8  drv_rtc.o(i.drv_rtc_overflow_pending)
    drv_rtc_start                            0x000293a3   Thumb Code     8  drv_rtc.o(i.drv_rtc_start)
    drv_rtc_stop                             0x000293ab   Thumb Code     8  drv_rtc.o(i.drv_rtc_stop)
    drv_rtc_windowed_compare_set             0x000293b3   Thumb Code   222  drv_rtc.o(i.drv_rtc_windowed_compare_set)
    erase_writemac                           0x000294dd   Thumb Code    94  main.o(i.erase_writemac)
    erase_writename                          0x0002954d   Thumb Code   102  main.o(i.erase_writename)
    fputc                                    0x00029697   Thumb Code    14  retarget.o(i.fputc)
    gatt_evt_handler                         0x000296b1   Thumb Code    20  main.o(i.gatt_evt_handler)
    gatt_init                                0x000296c9   Thumb Code    38  main.o(i.gatt_init)
    is_whitelist_used                        0x00029909   Thumb Code    24  nrf_ble_scan.o(i.is_whitelist_used)
    main                                     0x00029939   Thumb Code   438  main.o(i.main)
    my_fstorage_init                         0x00029c39   Thumb Code    60  main.o(i.my_fstorage_init)
    nrf_atfifo_clear                         0x00029dff   Thumb Code    16  nrf_atfifo.o(i.nrf_atfifo_clear)
    nrf_atfifo_init                          0x00029e0f   Thumb Code    38  nrf_atfifo.o(i.nrf_atfifo_init)
    nrf_atfifo_item_alloc                    0x00029e35   Thumb Code    22  nrf_atfifo.o(i.nrf_atfifo_item_alloc)
    nrf_atfifo_item_free                     0x00029e4b   Thumb Code    22  nrf_atfifo.o(i.nrf_atfifo_item_free)
    nrf_atfifo_item_get                      0x00029e61   Thumb Code    22  nrf_atfifo.o(i.nrf_atfifo_item_get)
    nrf_atfifo_item_put                      0x00029e77   Thumb Code    22  nrf_atfifo.o(i.nrf_atfifo_item_put)
    nrf_atflags_clear                        0x00029e8d   Thumb Code    22  nrf_atflags.o(i.nrf_atflags_clear)
    nrf_atflags_get                          0x00029ea3   Thumb Code    22  nrf_atflags.o(i.nrf_atflags_get)
    nrf_atflags_set                          0x00029eb9   Thumb Code    20  nrf_atflags.o(i.nrf_atflags_set)
    nrf_atomic_flag_set_fetch                0x00029ecd   Thumb Code     6  nrf_atomic.o(i.nrf_atomic_flag_set_fetch)
    nrf_atomic_u32_and                       0x00029ed3   Thumb Code    12  nrf_atomic.o(i.nrf_atomic_u32_and)
    nrf_atomic_u32_fetch_or                  0x00029edf   Thumb Code    10  nrf_atomic.o(i.nrf_atomic_u32_fetch_or)
    nrf_atomic_u32_or                        0x00029ee9   Thumb Code    12  nrf_atomic.o(i.nrf_atomic_u32_or)
    nrf_balloc_alloc                         0x00029ef5   Thumb Code    68  nrf_balloc.o(i.nrf_balloc_alloc)
    nrf_balloc_free                          0x00029f39   Thumb Code    48  nrf_balloc.o(i.nrf_balloc_free)
    nrf_balloc_init                          0x00029f69   Thumb Code    48  nrf_balloc.o(i.nrf_balloc_init)
    nrf_ble_gatt_att_mtu_central_set         0x00029fa9   Thumb Code    24  nrf_ble_gatt.o(i.nrf_ble_gatt_att_mtu_central_set)
    nrf_ble_gatt_init                        0x00029fc1   Thumb Code    44  nrf_ble_gatt.o(i.nrf_ble_gatt_init)
    nrf_ble_gatt_on_ble_evt                  0x00029fed   Thumb Code   418  nrf_ble_gatt.o(i.nrf_ble_gatt_on_ble_evt)
    nrf_ble_gq_conn_handle_register          0x0002a195   Thumb Code   110  nrf_ble_gq.o(i.nrf_ble_gq_conn_handle_register)
    nrf_ble_gq_item_add                      0x0002a205   Thumb Code   154  nrf_ble_gq.o(i.nrf_ble_gq_item_add)
    nrf_ble_gq_on_ble_evt                    0x0002a2a5   Thumb Code    96  nrf_ble_gq.o(i.nrf_ble_gq_on_ble_evt)
    nrf_ble_qwr_conn_handle_assign           0x0002a305   Thumb Code    22  nrf_ble_qwr.o(i.nrf_ble_qwr_conn_handle_assign)
    nrf_ble_qwr_init                         0x0002a31b   Thumb Code    36  nrf_ble_qwr.o(i.nrf_ble_qwr_init)
    nrf_ble_qwr_on_ble_evt                   0x0002a33f   Thumb Code   182  nrf_ble_qwr.o(i.nrf_ble_qwr_on_ble_evt)
    nrf_ble_scan_filter_set                  0x0002a531   Thumb Code   178  nrf_ble_scan.o(i.nrf_ble_scan_filter_set)
    nrf_ble_scan_filters_disable             0x0002a5e3   Thumb Code    24  nrf_ble_scan.o(i.nrf_ble_scan_filters_disable)
    nrf_ble_scan_filters_enable              0x0002a5fb   Thumb Code    78  nrf_ble_scan.o(i.nrf_ble_scan_filters_enable)
    nrf_ble_scan_init                        0x0002a649   Thumb Code   116  nrf_ble_scan.o(i.nrf_ble_scan_init)
    nrf_ble_scan_on_ble_evt                  0x0002a865   Thumb Code   128  nrf_ble_scan.o(i.nrf_ble_scan_on_ble_evt)
    nrf_ble_scan_start                       0x0002a8e5   Thumb Code    68  nrf_ble_scan.o(i.nrf_ble_scan_start)
    nrf_ble_scan_stop                        0x0002a929   Thumb Code     4  nrf_ble_scan.o(i.nrf_ble_scan_stop)
    nrf_drv_clock_init                       0x0002a96d   Thumb Code    56  nrf_drv_clock.o(i.nrf_drv_clock_init)
    nrf_drv_clock_lfclk_release              0x0002a9ad   Thumb Code    48  nrf_drv_clock.o(i.nrf_drv_clock_lfclk_release)
    nrf_drv_uart_init                        0x0002a9e1   Thumb Code    90  nrf_drv_uart.o(i.nrf_drv_uart_init)
    nrf_fstorage_erase                       0x0002aa89   Thumb Code    78  nrf_fstorage.o(i.nrf_fstorage_erase)
    nrf_fstorage_init                        0x0002aad7   Thumb Code    16  nrf_fstorage.o(i.nrf_fstorage_init)
    nrf_fstorage_is_busy                     0x0002aae9   Thumb Code    70  nrf_fstorage.o(i.nrf_fstorage_is_busy)
    nrf_fstorage_read                        0x0002ab39   Thumb Code    80  nrf_fstorage.o(i.nrf_fstorage_read)
    nrf_fstorage_sdh_req_handler             0x0002ab89   Thumb Code    18  nrf_fstorage_sd.o(i.nrf_fstorage_sdh_req_handler)
    nrf_fstorage_sdh_state_handler           0x0002aba1   Thumb Code    28  nrf_fstorage_sd.o(i.nrf_fstorage_sdh_state_handler)
    nrf_fstorage_sys_evt_handler             0x0002abc1   Thumb Code   154  nrf_fstorage_sd.o(i.nrf_fstorage_sys_evt_handler)
    nrf_fstorage_write                       0x0002ac65   Thumb Code   102  nrf_fstorage.o(i.nrf_fstorage_write)
    nrf_memobj_alloc                         0x0002adf5   Thumb Code    96  nrf_memobj.o(i.nrf_memobj_alloc)
    nrf_memobj_free                          0x0002ae55   Thumb Code    50  nrf_memobj.o(i.nrf_memobj_free)
    nrf_memobj_pool_init                     0x0002ae87   Thumb Code     4  nrf_memobj.o(i.nrf_memobj_pool_init)
    nrf_memobj_read                          0x0002ae8b   Thumb Code    16  nrf_memobj.o(i.nrf_memobj_read)
    nrf_memobj_write                         0x0002ae9b   Thumb Code    16  nrf_memobj.o(i.nrf_memobj_write)
    nrf_pwr_mgmt_init                        0x0002aead   Thumb Code    28  nrf_pwr_mgmt.o(i.nrf_pwr_mgmt_init)
    nrf_pwr_mgmt_run                         0x0002aed5   Thumb Code    20  nrf_pwr_mgmt.o(i.nrf_pwr_mgmt_run)
    nrf_queue_generic_pop                    0x0002aee9   Thumb Code   142  nrf_queue.o(i.nrf_queue_generic_pop)
    nrf_queue_is_empty                       0x0002af77   Thumb Code    18  nrf_queue.o(i.nrf_queue_is_empty)
    nrf_queue_is_full                        0x0002af89   Thumb Code    30  nrf_queue.o(i.nrf_queue_is_full)
    nrf_queue_push                           0x0002afb5   Thumb Code   178  nrf_queue.o(i.nrf_queue_push)
    nrf_sdh_ble_app_ram_start_get            0x0002b079   Thumb Code    16  nrf_sdh_ble.o(i.nrf_sdh_ble_app_ram_start_get)
    nrf_sdh_ble_default_cfg_set              0x0002b08d   Thumb Code   158  nrf_sdh_ble.o(i.nrf_sdh_ble_default_cfg_set)
    nrf_sdh_ble_enable                       0x0002b12d   Thumb Code    14  nrf_sdh_ble.o(i.nrf_sdh_ble_enable)
    nrf_sdh_disable_request                  0x0002b1a1   Thumb Code    80  nrf_sdh.o(i.nrf_sdh_disable_request)
    nrf_sdh_enable_request                   0x0002b1f5   Thumb Code   102  nrf_sdh.o(i.nrf_sdh_enable_request)
    nrf_sdh_evts_poll                        0x0002b269   Thumb Code    32  nrf_sdh.o(i.nrf_sdh_evts_poll)
    nrf_sdh_is_enabled                       0x0002b28d   Thumb Code     6  nrf_sdh.o(i.nrf_sdh_is_enabled)
    nrf_sdh_request_continue                 0x0002b299   Thumb Code    22  nrf_sdh.o(i.nrf_sdh_request_continue)
    nrf_section_iter_init                    0x0002b2f1   Thumb Code    10  nrf_section_iter.o(i.nrf_section_iter_init)
    nrf_section_iter_next                    0x0002b31f   Thumb Code    32  nrf_section_iter.o(i.nrf_section_iter_next)
    nrf_sortlist_add                         0x0002b33f   Thumb Code    34  nrf_sortlist.o(i.nrf_sortlist_add)
    nrf_sortlist_peek                        0x0002b361   Thumb Code     6  nrf_sortlist.o(i.nrf_sortlist_peek)
    nrf_sortlist_pop                         0x0002b367   Thumb Code    14  nrf_sortlist.o(i.nrf_sortlist_pop)
    nrf_sortlist_remove                      0x0002b375   Thumb Code    30  nrf_sortlist.o(i.nrf_sortlist_remove)
    nrfx_clock_enable                        0x0002b3dd   Thumb Code    34  nrfx_clock.o(i.nrfx_clock_enable)
    nrfx_clock_init                          0x0002b409   Thumb Code    22  nrfx_clock.o(i.nrfx_clock_init)
    nrfx_clock_lfclk_stop                    0x0002b425   Thumb Code    38  nrfx_clock.o(i.nrfx_clock_lfclk_stop)
    nrfx_prs_acquire                         0x0002b475   Thumb Code    58  nrfx_prs.o(i.nrfx_prs_acquire)
    nrfx_prs_release                         0x0002b4af   Thumb Code    18  nrfx_prs.o(i.nrfx_prs_release)
    nrfx_uart_0_irq_handler                  0x0002b4c1   Thumb Code     8  nrfx_uart.o(i.nrfx_uart_0_irq_handler)
    nrfx_uart_init                           0x0002b4d1   Thumb Code   200  nrfx_uart.o(i.nrfx_uart_init)
    nrfx_uart_rx                             0x0002b5a5   Thumb Code   230  nrfx_uart.o(i.nrfx_uart_rx)
    nrfx_uart_tx                             0x0002b691   Thumb Code   162  nrfx_uart.o(i.nrfx_uart_tx)
    nrfx_uart_tx_in_progress                 0x0002b739   Thumb Code    26  nrfx_uart.o(i.nrfx_uart_tx_in_progress)
    nrfx_uart_uninit                         0x0002b759   Thumb Code   182  nrfx_uart.o(i.nrfx_uart_uninit)
    nrfx_uarte_0_irq_handler                 0x0002b819   Thumb Code     8  nrfx_uarte.o(i.nrfx_uarte_0_irq_handler)
    nrfx_uarte_init                          0x0002b829   Thumb Code   100  nrfx_uarte.o(i.nrfx_uarte_init)
    nrfx_uarte_rx                            0x0002b895   Thumb Code   256  nrfx_uarte.o(i.nrfx_uarte_rx)
    nrfx_uarte_tx                            0x0002b999   Thumb Code   166  nrfx_uarte.o(i.nrfx_uarte_tx)
    nrfx_uarte_tx_in_progress                0x0002ba45   Thumb Code    22  nrfx_uarte.o(i.nrfx_uarte_tx_in_progress)
    nrfx_uarte_uninit                        0x0002ba61   Thumb Code   254  nrfx_uarte.o(i.nrfx_uarte_uninit)
    nvmc_config                              0x0002bbb1   Thumb Code    14  system_nrf52.o(i.nvmc_config)
    read_name                                0x0002c305   Thumb Code   104  main.o(i.read_name)
    timer_1ms_handle                         0x0002c9f5   Thumb Code   128  main.o(i.timer_1ms_handle)
    uart_event_handle                        0x0002cbdd   Thumb Code   138  main.o(i.uart_event_handle)
    wait_for_flash_ready                     0x0002d19b   Thumb Code    16  main.o(i.wait_for_flash_ready)
    nrf_fstorage_sd                          0x0002d388   Data          32  nrf_fstorage_sd.o(.constdata)
    m_ram_start                              0x0002d484   Data           4  nrf_sdh_ble.o(.constdata)
    Region$$Table$$Base                      0x0002d6f0   Number         0  anon$$obj.o(Region$$Table)
    Region$$Table$$Limit                     0x0002d710   Number         0  anon$$obj.o(Region$$Table)
    m_ble_gatt_queuepool                     0x0002d710   Data          20  main.o(nrf_balloc)
    m_ble_gatt_queuepurge_queue              0x0002d724   Data          20  main.o(nrf_queue)
    pwr_mgmt_data1$$Base                     0x0002d738   Number         0  main.o(pwr_mgmt_data1)
    pwr_mgmt_data1$$Limit                    0x0002d73c   Number         0  main.o(pwr_mgmt_data1)
    sdh_ble_observers0$$Base                 0x0002d73c   Number         0  ble_conn_state.o(sdh_ble_observers0)
    sdh_ble_observers0$$Limit                0x0002d744   Number         0  ble_conn_state.o(sdh_ble_observers0)
    sdh_ble_observers1$$Base                 0x0002d744   Number         0  main.o(sdh_ble_observers1)
    sdh_ble_observers1$$Limit                0x0002d77c   Number         0  ble_conn_params.o(sdh_ble_observers1)
    sdh_ble_observers2$$Base                 0x0002d77c   Number         0  main.o(sdh_ble_observers2)
    sdh_ble_observers2$$Limit                0x0002d794   Number         0  main.o(sdh_ble_observers2)
    sdh_ble_observers3$$Base                 0x0002d794   Number         0  main.o(sdh_ble_observers3)
    m_req_obs                                0x0002d79c   Data           8  nrf_fstorage_sd.o(sdh_req_observers0)
    sdh_ble_observers3$$Limit                0x0002d79c   Number         0  main.o(sdh_ble_observers3)
    sdh_req_observers0$$Base                 0x0002d79c   Number         0  nrf_fstorage_sd.o(sdh_req_observers0)
    sdh_req_observers0$$Limit                0x0002d7a4   Number         0  nrf_fstorage_sd.o(sdh_req_observers0)
    sdh_soc_observers0$$Base                 0x0002d7a4   Number         0  nrf_drv_clock.o(sdh_soc_observers0)
    sdh_soc_observers0$$Limit                0x0002d7b4   Number         0  nrf_fstorage_sd.o(sdh_soc_observers0)
    sdh_stack_observers0$$Base               0x0002d7b4   Number         0  nrf_sdh_ble.o(sdh_stack_observers0)
    sdh_stack_observers0$$Limit              0x0002d7c4   Number         0  nrf_sdh_soc.o(sdh_stack_observers0)
    sdh_state_observers0$$Base               0x0002d7c4   Number         0  nrf_drv_clock.o(sdh_state_observers0)
    sdh_state_observers0$$Limit              0x0002d7d4   Number         0  nrf_fstorage_sd.o(sdh_state_observers0)
    Image$$RW_IRAM1$$Base                    0x200039c8   Number         0  anon$$obj.o ABSOLUTE
    mac_name_address                         0x200039d8   Data           4  main.o(.data)
    tick_1ms                                 0x200039dc   Data           4  main.o(.data)
    p_fs_api                                 0x200039e0   Data           4  main.o(.data)
    uart_rec_ok                              0x200039e4   Data          14  main.o(.data)
    nrf_drv_uart_use_easy_dma                0x2000407c   Data           1  nrf_drv_uart.o(.data)
    __stdout                                 0x200040f4   Data           4  retarget.o(.data)
    SystemCoreClock                          0x200040fc   Data           4  system_nrf52.o(.data)
    fs_data$$Base                            0x20004100   Number         0  main.o(fs_data)
    fstorage                                 0x20004100   Data          20  main.o(fs_data)
    fs_data$$Limit                           0x20004114   Number         0  main.o(fs_data)
    nrf_nvic_state                           0x20004e3c   Data          12  app_util_platform.o(.bss)
    __initial_sp                             0x20005a58   Data           0  arm_startup_nrf52805.o(STACK)



==============================================================================

Memory Map of the image

  Image Entry point : 0x00026201

  Load Region LR_IROM1 (Base: 0x00026000, Size: 0x00007f20, Max: 0x0000a000, ABSOLUTE, COMPRESSED[0x00007858])

    Execution Region ER_IROM1 (Exec base: 0x00026000, Load base: 0x00026000, Size: 0x000077d4, Max: 0x0000a000, ABSOLUTE)

    Exec Addr    Load Addr    Size         Type   Attr      Idx    E Section Name        Object

    0x00026000   0x00026000   0x00000200   Data   RO         5592    RESET               arm_startup_nrf52805.o
    0x00026200   0x00026200   0x00000000   Code   RO         5684  * .ARM.Collect$$$$00000000  mc_w.l(entry.o)
    0x00026200   0x00026200   0x00000004   Code   RO         5970    .ARM.Collect$$$$00000001  mc_w.l(entry2.o)
    0x00026204   0x00026204   0x00000004   Code   RO         5973    .ARM.Collect$$$$00000004  mc_w.l(entry5.o)
    0x00026208   0x00026208   0x00000000   Code   RO         5975    .ARM.Collect$$$$00000008  mc_w.l(entry7b.o)
    0x00026208   0x00026208   0x00000000   Code   RO         5977    .ARM.Collect$$$$0000000A  mc_w.l(entry8b.o)
    0x00026208   0x00026208   0x00000008   Code   RO         5978    .ARM.Collect$$$$0000000B  mc_w.l(entry9a.o)
    0x00026210   0x00026210   0x00000000   Code   RO         5980    .ARM.Collect$$$$0000000D  mc_w.l(entry10a.o)
    0x00026210   0x00026210   0x00000000   Code   RO         5982    .ARM.Collect$$$$0000000F  mc_w.l(entry11a.o)
    0x00026210   0x00026210   0x00000004   Code   RO         5971    .ARM.Collect$$$$00002712  mc_w.l(entry2.o)
    0x00026214   0x00026214   0x000000c8   Code   RO         4169    .emb_text           nrf_atfifo.o
    0x000262dc   0x000262dc   0x000000e2   Code   RO         4239    .emb_text           nrf_atomic.o
    0x000263be   0x000263be   0x00000002   PAD
    0x000263c0   0x000263c0   0x00000024   Code   RO         5593    .text               arm_startup_nrf52805.o
    0x000263e4   0x000263e4   0x0000001e   Code   RO         5687    .text               mc_w.l(llshl.o)
    0x00026402   0x00026402   0x00000024   Code   RO         5689    .text               mc_w.l(memcpya.o)
    0x00026426   0x00026426   0x00000024   Code   RO         5691    .text               mc_w.l(memseta.o)
    0x0002644a   0x0002644a   0x00000018   Code   RO         5693    .text               mc_w.l(strcat.o)
    0x00026462   0x00026462   0x00000024   Code   RO         5695    .text               mc_w.l(strstr.o)
    0x00026486   0x00026486   0x0000000e   Code   RO         5697    .text               mc_w.l(strlen.o)
    0x00026494   0x00026494   0x0000001c   Code   RO         5699    .text               mc_w.l(strcmp.o)
    0x000264b0   0x000264b0   0x0000001a   Code   RO         5701    .text               mc_w.l(memcmp.o)
    0x000264ca   0x000264ca   0x00000012   Code   RO         5703    .text               mc_w.l(strcpy.o)
    0x000264dc   0x000264dc   0x0000001e   Code   RO         5705    .text               mc_w.l(strncmp.o)
    0x000264fa   0x000264fa   0x00000062   Code   RO         5986    .text               mc_w.l(uldiv.o)
    0x0002655c   0x0002655c   0x00000024   Code   RO         5999    .text               mc_w.l(init.o)
    0x00026580   0x00026580   0x00000020   Code   RO         6001    .text               mc_w.l(llushr.o)
    0x000265a0   0x000265a0   0x00000056   Code   RO         6015    .text               mc_w.l(__dczerorl2.o)
    0x000265f6   0x000265f6   0x00000002   PAD
    0x000265f8   0x000265f8   0x000000a4   Code   RO         2440    i.GPIOTE_IRQHandler  nrfx_gpiote.o
    0x0002669c   0x0002669c   0x00000050   Code   RO         2304    i.POWER_CLOCK_IRQHandler  nrfx_clock.o
    0x000266ec   0x000266ec   0x00000010   Code   RO         3959    i.RTC1_IRQHandler   drv_rtc.o
    0x000266fc   0x000266fc   0x00000004   Code   RO         5392    i.SWI2_IRQHandler   nrf_sdh.o
    0x00026700   0x00026700   0x00000284   Code   RO         5601    i.SystemInit        system_nrf52.o
    0x00026984   0x00026984   0x0000000c   Code   RO         2742    i.UARTE0_UART0_IRQHandler  nrfx_prs.o
    0x00026990   0x00026990   0x00000020   Code   RO         5916    i.__0printf$8       mc_w.l(printf8.o)
    0x000269b0   0x000269b0   0x0000000e   Code   RO         6009    i.__scatterload_copy  mc_w.l(handlers.o)
    0x000269be   0x000269be   0x00000002   Code   RO         6010    i.__scatterload_null  mc_w.l(handlers.o)
    0x000269c0   0x000269c0   0x0000000e   Code   RO         6011    i.__scatterload_zeroinit  mc_w.l(handlers.o)
    0x000269ce   0x000269ce   0x00000002   PAD
    0x000269d0   0x000269d0   0x00000024   Code   RO         5393    i.__sd_nvic_app_accessible_irq  nrf_sdh.o
    0x000269f4   0x000269f4   0x00000410   Code   RO         5923    i._printf_core      mc_w.l(printf8.o)
    0x00026e04   0x00026e04   0x00000024   Code   RO         5924    i._printf_post_padding  mc_w.l(printf8.o)
    0x00026e28   0x00026e28   0x0000002e   Code   RO         5925    i._printf_pre_padding  mc_w.l(printf8.o)
    0x00026e56   0x00026e56   0x0000000c   Code   RO         3171    i.addr_is_aligned32  nrf_fstorage.o
    0x00026e62   0x00026e62   0x00000018   Code   RO         3172    i.addr_is_within_bounds  nrf_fstorage.o
    0x00026e7a   0x00026e7a   0x00000010   Code   RO         1437    i.adv_set_data_size_max_get  ble_advertising.o
    0x00026e8a   0x00026e8a   0x00000036   Code   RO          723    i.advertising_buttons_configure  bsp_btn_ble.o
    0x00026ec0   0x00026ec0   0x0000001c   Code   RO            4    i.advertising_start  main.o
    0x00026edc   0x00026edc   0x00000030   Code   RO         3524    i.app_error_fault_handler  app_error_weak.o
    0x00026f0c   0x00026f0c   0x00000016   Code   RO         3468    i.app_error_handler_bare  app_error.o
    0x00026f22   0x00026f22   0x00000016   Code   RO         3555    i.app_fifo_get      app_fifo.o
    0x00026f38   0x00026f38   0x00000020   Code   RO         3556    i.app_fifo_init     app_fifo.o
    0x00026f58   0x00026f58   0x0000001a   Code   RO         3558    i.app_fifo_put      app_fifo.o
    0x00026f72   0x00026f72   0x00000002   PAD
    0x00026f74   0x00026f74   0x0000000c   Code   RO         3679    i.app_timer_cnt_get  app_timer2.o
    0x00026f80   0x00026f80   0x00000016   Code   RO         3680    i.app_timer_create  app_timer2.o
    0x00026f96   0x00026f96   0x00000002   PAD
    0x00026f98   0x00026f98   0x0000005c   Code   RO         3681    i.app_timer_init    app_timer2.o
    0x00026ff4   0x00026ff4   0x00000030   Code   RO         3684    i.app_timer_start   app_timer2.o
    0x00027024   0x00027024   0x0000000c   Code   RO         3685    i.app_timer_stop    app_timer2.o
    0x00027030   0x00027030   0x00000028   Code   RO         3814    i.app_uart_close    app_uart_fifo.o
    0x00027058   0x00027058   0x00000034   Code   RO         3816    i.app_uart_get      app_uart_fifo.o
    0x0002708c   0x0002708c   0x000000a4   Code   RO         3817    i.app_uart_init     app_uart_fifo.o
    0x00027130   0x00027130   0x00000054   Code   RO         3818    i.app_uart_put      app_uart_fifo.o
    0x00027184   0x00027184   0x00000048   Code   RO         3891    i.app_util_critical_region_enter  app_util_platform.o
    0x000271cc   0x000271cc   0x00000034   Code   RO         3892    i.app_util_critical_region_exit  app_util_platform.o
    0x00027200   0x00027200   0x00000088   Code   RO         2793    i.apply_config      nrfx_uart.o
    0x00027288   0x00027288   0x00000088   Code   RO         2978    i.apply_config      nrfx_uarte.o
    0x00027310   0x00027310   0x00000770   Code   RO            6    i.at_command_handle  main.o
    0x00027a80   0x00027a80   0x00000048   Code   RO         1773    i.blcm_link_ctx_get  ble_link_ctx_manager.o
    0x00027ac8   0x00027ac8   0x00000182   Code   RO          833    i.ble_advdata_encode  ble_advdata.o
    0x00027c4a   0x00027c4a   0x00000044   Code   RO          834    i.ble_advdata_name_find  ble_advdata.o
    0x00027c8e   0x00027c8e   0x00000020   Code   RO          835    i.ble_advdata_parse  ble_advdata.o
    0x00027cae   0x00027cae   0x00000046   Code   RO          836    i.ble_advdata_search  ble_advdata.o
    0x00027cf4   0x00027cf4   0x000000b6   Code   RO          838    i.ble_advdata_uuid_find  ble_advdata.o
    0x00027daa   0x00027daa   0x00000006   Code   RO         1439    i.ble_advertising_conn_cfg_tag_set  ble_advertising.o
    0x00027db0   0x00027db0   0x000000f8   Code   RO         1440    i.ble_advertising_init  ble_advertising.o
    0x00027ea8   0x00027ea8   0x0000006a   Code   RO         1442    i.ble_advertising_on_ble_evt  ble_advertising.o
    0x00027f12   0x00027f12   0x00000230   Code   RO         1445    i.ble_advertising_start  ble_advertising.o
    0x00028142   0x00028142   0x00000002   PAD
    0x00028144   0x00028144   0x00000098   Code   RO            7    i.ble_central_evt_handler  main.o
    0x000281dc   0x000281dc   0x00000068   Code   RO         1530    i.ble_conn_params_init  ble_conn_params.o
    0x00028244   0x00028244   0x00000012   Code   RO         1605    i.ble_conn_state_conn_idx  ble_conn_state.o
    0x00028256   0x00028256   0x00000002   PAD
    0x00028258   0x00028258   0x00000024   Code   RO         1614    i.ble_conn_state_role  ble_conn_state.o
    0x0002827c   0x0002827c   0x00000014   Code   RO         1619    i.ble_conn_state_valid  ble_conn_state.o
    0x00028290   0x00028290   0x00000040   Code   RO          946    i.ble_db_discovery_evt_register  ble_db_discovery.o
    0x000282d0   0x000282d0   0x00000024   Code   RO          947    i.ble_db_discovery_init  ble_db_discovery.o
    0x000282f4   0x000282f4   0x0000005c   Code   RO          948    i.ble_db_discovery_on_ble_evt  ble_db_discovery.o
    0x00028350   0x00028350   0x00000028   Code   RO          949    i.ble_db_discovery_start  ble_db_discovery.o
    0x00028378   0x00028378   0x00000060   Code   RO          839    i.ble_device_addr_encode  ble_advdata.o
    0x000283d8   0x000283d8   0x00000038   Code   RO            8    i.ble_evt_handler   main.o
    0x00028410   0x00028410   0x00000070   Code   RO          724    i.ble_evt_handler   bsp_btn_ble.o
    0x00028480   0x00028480   0x000000fc   Code   RO         1532    i.ble_evt_handler   ble_conn_params.o
    0x0002857c   0x0002857c   0x00000118   Code   RO         1620    i.ble_evt_handler   ble_conn_state.o
    0x00028694   0x00028694   0x00000060   Code   RO            9    i.ble_nus_c_evt_handler  main.o
    0x000286f4   0x000286f4   0x0000001c   Code   RO         1838    i.ble_nus_c_handles_assign  ble_nus_c.o
    0x00028710   0x00028710   0x0000005c   Code   RO         1839    i.ble_nus_c_init    ble_nus_c.o
    0x0002876c   0x0002876c   0x0000006a   Code   RO         1840    i.ble_nus_c_on_ble_evt  ble_nus_c.o
    0x000287d6   0x000287d6   0x00000002   PAD
    0x000287d8   0x000287d8   0x00000086   Code   RO         1841    i.ble_nus_c_on_db_disc_evt  ble_nus_c.o
    0x0002885e   0x0002885e   0x00000002   PAD
    0x00028860   0x00028860   0x00000068   Code   RO         1842    i.ble_nus_c_string_send  ble_nus_c.o
    0x000288c8   0x000288c8   0x0000006c   Code   RO         1843    i.ble_nus_c_tx_notif_enable  ble_nus_c.o
    0x00028934   0x00028934   0x00000066   Code   RO         1908    i.ble_nus_data_send  ble_nus.o
    0x0002899a   0x0002899a   0x00000002   PAD
    0x0002899c   0x0002899c   0x000000dc   Code   RO         1909    i.ble_nus_init      ble_nus.o
    0x00028a78   0x00028a78   0x00000076   Code   RO         1910    i.ble_nus_on_ble_evt  ble_nus.o
    0x00028aee   0x00028aee   0x00000002   PAD
    0x00028af0   0x00028af0   0x000000dc   Code   RO           10    i.ble_peripheral_evt_handler  main.o
    0x00028bcc   0x00028bcc   0x00000008   Code   RO         1088    i.ble_srv_is_notification_enabled  ble_srv_common.o
    0x00028bd4   0x00028bd4   0x0000000c   Code   RO          564    i.bsp_board_button_idx_to_pin  boards.o
    0x00028be0   0x00028be0   0x0000001e   Code   RO          726    i.bsp_btn_ble_sleep_mode_prepare  bsp_btn_ble.o
    0x00028bfe   0x00028bfe   0x00000002   PAD
    0x00028c00   0x00028c00   0x00000044   Code   RO          632    i.bsp_event_to_button_action_assign  bsp.o
    0x00028c44   0x00028c44   0x00000004   Code   RO          633    i.bsp_indication_set  bsp.o
    0x00028c48   0x00028c48   0x00000006   Code   RO          636    i.bsp_wakeup_button_enable  bsp.o
    0x00028c4e   0x00028c4e   0x00000002   PAD
    0x00028c50   0x00028c50   0x00000010   Code   RO         2443    i.channel_port_get  nrfx_gpiote.o
    0x00028c60   0x00028c60   0x00000190   Code   RO         1090    i.characteristic_add  ble_srv_common.o
    0x00028df0   0x00028df0   0x0000006c   Code   RO          950    i.characteristics_discover  ble_db_discovery.o
    0x00028e5c   0x00028e5c   0x00000028   Code   RO         1962    i.clock_clk_started_notify  nrf_drv_clock.o
    0x00028e84   0x00028e84   0x0000001c   Code   RO         1963    i.clock_irq_handler  nrf_drv_clock.o
    0x00028ea0   0x00028ea0   0x00000018   Code   RO         3687    i.compare_func      app_timer2.o
    0x00028eb8   0x00028eb8   0x0000001e   Code   RO         1238    i.conn_handle_id_find  nrf_ble_gq.o
    0x00028ed6   0x00028ed6   0x0000003e   Code   RO         1621    i.conn_handle_list_get  ble_conn_state.o
    0x00028f14   0x00028f14   0x00000088   Code   RO          840    i.conn_int_encode   ble_advdata.o
    0x00028f9c   0x00028f9c   0x00000004   Code   RO           11    i.conn_params_error_handler  main.o
    0x00028fa0   0x00028fa0   0x00000048   Code   RO         1533    i.conn_params_negotiation  ble_conn_params.o
    0x00028fe8   0x00028fe8   0x0000001e   Code   RO         1148    i.data_length_update  nrf_ble_gatt.o
    0x00029006   0x00029006   0x00000002   PAD
    0x00029008   0x00029008   0x0000000c   Code   RO           12    i.db_disc_handler   main.o
    0x00029014   0x00029014   0x000000b8   Code   RO          951    i.descriptors_discover  ble_db_discovery.o
    0x000290cc   0x000290cc   0x00000030   Code   RO          952    i.discovery_available_evt_trigger  ble_db_discovery.o
    0x000290fc   0x000290fc   0x000000b4   Code   RO          953    i.discovery_complete_evt_trigger  ble_db_discovery.o
    0x000291b0   0x000291b0   0x00000050   Code   RO          954    i.discovery_error_handler  ble_db_discovery.o
    0x00029200   0x00029200   0x0000007c   Code   RO          955    i.discovery_start   ble_db_discovery.o
    0x0002927c   0x0002927c   0x00000014   Code   RO         3960    i.drv_rtc_compare_disable  drv_rtc.o
    0x00029290   0x00029290   0x0000000e   Code   RO         3963    i.drv_rtc_compare_pending  drv_rtc.o
    0x0002929e   0x0002929e   0x00000050   Code   RO         3964    i.drv_rtc_compare_set  drv_rtc.o
    0x000292ee   0x000292ee   0x00000008   Code   RO         3965    i.drv_rtc_counter_get  drv_rtc.o
    0x000292f6   0x000292f6   0x00000002   PAD
    0x000292f8   0x000292f8   0x0000007c   Code   RO         3966    i.drv_rtc_init      drv_rtc.o
    0x00029374   0x00029374   0x0000001e   Code   RO         3967    i.drv_rtc_irq_trigger  drv_rtc.o
    0x00029392   0x00029392   0x00000008   Code   RO         3969    i.drv_rtc_overflow_enable  drv_rtc.o
    0x0002939a   0x0002939a   0x00000008   Code   RO         3970    i.drv_rtc_overflow_pending  drv_rtc.o
    0x000293a2   0x000293a2   0x00000008   Code   RO         3971    i.drv_rtc_start     drv_rtc.o
    0x000293aa   0x000293aa   0x00000008   Code   RO         3972    i.drv_rtc_stop      drv_rtc.o
    0x000293b2   0x000293b2   0x000000de   Code   RO         3977    i.drv_rtc_windowed_compare_set  drv_rtc.o
    0x00029490   0x00029490   0x0000004c   Code   RO         3257    i.erase             nrf_fstorage_sd.o
    0x000294dc   0x000294dc   0x00000070   Code   RO           13    i.erase_writemac    main.o
    0x0002954c   0x0002954c   0x00000078   Code   RO           14    i.erase_writename   main.o
    0x000295c4   0x000295c4   0x00000054   Code   RO         3258    i.event_send        nrf_fstorage_sd.o
    0x00029618   0x00029618   0x00000012   Code   RO         3978    i.evt_enable        drv_rtc.o
    0x0002962a   0x0002962a   0x00000014   Code   RO         3979    i.evt_pending       drv_rtc.o
    0x0002963e   0x0002963e   0x00000014   Code   RO         3561    i.fifo_get          app_fifo.o
    0x00029652   0x00029652   0x00000012   Code   RO         3562    i.fifo_put          app_fifo.o
    0x00029664   0x00029664   0x0000000a   Code   RO         1622    i.flag_toggle       ble_conn_state.o
    0x0002966e   0x0002966e   0x00000028   Code   RO         1447    i.flags_set         ble_advertising.o
    0x00029696   0x00029696   0x0000000e   Code   RO         4934    i.fputc             retarget.o
    0x000296a4   0x000296a4   0x00000002   Code   RO           15    i.fstorage_evt_handler  main.o
    0x000296a6   0x000296a6   0x0000000a   Code   RO         1844    i.gatt_error_handler  ble_nus_c.o
    0x000296b0   0x000296b0   0x00000018   Code   RO           16    i.gatt_evt_handler  main.o
    0x000296c8   0x000296c8   0x00000030   Code   RO           17    i.gatt_init         main.o
    0x000296f8   0x000296f8   0x0000002c   Code   RO         1239    i.gattc_write_alloc  nrf_ble_gq.o
    0x00029724   0x00029724   0x0000003e   Code   RO         1240    i.gatts_hvx_alloc   nrf_ble_gq.o
    0x00029762   0x00029762   0x00000002   PAD
    0x00029764   0x00029764   0x00000034   Code   RO         3688    i.get_now           app_timer2.o
    0x00029798   0x00029798   0x00000034   Code   RO         3259    i.init              nrf_fstorage_sd.o
    0x000297cc   0x000297cc   0x00000014   Code   RO         1534    i.instance_get      ble_conn_params.o
    0x000297e0   0x000297e0   0x00000088   Code   RO         2979    i.interrupts_enable  nrfx_uarte.o
    0x00029868   0x00029868   0x00000010   Code   RO         3260    i.is_busy           nrf_fstorage_sd.o
    0x00029878   0x00029878   0x00000044   Code   RO         1535    i.is_conn_params_ok  ble_conn_params.o
    0x000298bc   0x000298bc   0x0000004c   Code   RO          956    i.is_desc_discovery_reqd  ble_db_discovery.o
    0x00029908   0x00029908   0x00000018   Code   RO         1315    i.is_whitelist_used  nrf_ble_scan.o
    0x00029920   0x00029920   0x00000018   Code   RO         1149    i.link_init         nrf_ble_gatt.o
    0x00029938   0x00029938   0x0000021c   Code   RO           19    i.main              main.o
    0x00029b54   0x00029b54   0x00000064   Code   RO          841    i.manuf_specific_data_encode  ble_advdata.o
    0x00029bb8   0x00029bb8   0x0000007e   Code   RO         4491    i.memobj_op         nrf_memobj.o
    0x00029c36   0x00029c36   0x00000002   PAD
    0x00029c38   0x00029c38   0x00000048   Code   RO           20    i.my_fstorage_init  main.o
    0x00029c80   0x00029c80   0x000000a6   Code   RO          842    i.name_encode       ble_advdata.o
    0x00029d26   0x00029d26   0x00000002   PAD
    0x00029d28   0x00029d28   0x00000028   Code   RO         5602    i.nrf52_errata_136  system_nrf52.o
    0x00029d50   0x00029d50   0x00000028   Code   RO         5603    i.nrf52_errata_31   system_nrf52.o
    0x00029d78   0x00029d78   0x00000028   Code   RO         5604    i.nrf52_errata_36   system_nrf52.o
    0x00029da0   0x00029da0   0x0000003c   Code   RO         5605    i.nrf52_errata_66   system_nrf52.o
    0x00029ddc   0x00029ddc   0x00000022   Code   RO           21    i.nrf5_flash_end_addr_get  main.o
    0x00029dfe   0x00029dfe   0x00000010   Code   RO         4171    i.nrf_atfifo_clear  nrf_atfifo.o
    0x00029e0e   0x00029e0e   0x00000026   Code   RO         4173    i.nrf_atfifo_init   nrf_atfifo.o
    0x00029e34   0x00029e34   0x00000016   Code   RO         4174    i.nrf_atfifo_item_alloc  nrf_atfifo.o
    0x00029e4a   0x00029e4a   0x00000016   Code   RO         4175    i.nrf_atfifo_item_free  nrf_atfifo.o
    0x00029e60   0x00029e60   0x00000016   Code   RO         4176    i.nrf_atfifo_item_get  nrf_atfifo.o
    0x00029e76   0x00029e76   0x00000016   Code   RO         4177    i.nrf_atfifo_item_put  nrf_atfifo.o
    0x00029e8c   0x00029e8c   0x00000016   Code   RO         4971    i.nrf_atflags_clear  nrf_atflags.o
    0x00029ea2   0x00029ea2   0x00000016   Code   RO         4976    i.nrf_atflags_get   nrf_atflags.o
    0x00029eb8   0x00029eb8   0x00000014   Code   RO         4978    i.nrf_atflags_set   nrf_atflags.o
    0x00029ecc   0x00029ecc   0x00000006   Code   RO         4243    i.nrf_atomic_flag_set_fetch  nrf_atomic.o
    0x00029ed2   0x00029ed2   0x0000000c   Code   RO         4245    i.nrf_atomic_u32_and  nrf_atomic.o
    0x00029ede   0x00029ede   0x0000000a   Code   RO         4249    i.nrf_atomic_u32_fetch_or  nrf_atomic.o
    0x00029ee8   0x00029ee8   0x0000000c   Code   RO         4254    i.nrf_atomic_u32_or  nrf_atomic.o
    0x00029ef4   0x00029ef4   0x00000044   Code   RO         4375    i.nrf_balloc_alloc  nrf_balloc.o
    0x00029f38   0x00029f38   0x00000030   Code   RO         4376    i.nrf_balloc_free   nrf_balloc.o
    0x00029f68   0x00029f68   0x00000030   Code   RO         4377    i.nrf_balloc_init   nrf_balloc.o
    0x00029f98   0x00029f98   0x00000010   Code   RO         2444    i.nrf_bitmask_bit_is_set  nrfx_gpiote.o
    0x00029fa8   0x00029fa8   0x00000018   Code   RO         1150    i.nrf_ble_gatt_att_mtu_central_set  nrf_ble_gatt.o
    0x00029fc0   0x00029fc0   0x0000002c   Code   RO         1155    i.nrf_ble_gatt_init  nrf_ble_gatt.o
    0x00029fec   0x00029fec   0x000001a8   Code   RO         1156    i.nrf_ble_gatt_on_ble_evt  nrf_ble_gatt.o
    0x0002a194   0x0002a194   0x0000006e   Code   RO         1241    i.nrf_ble_gq_conn_handle_register  nrf_ble_gq.o
    0x0002a202   0x0002a202   0x00000002   PAD
    0x0002a204   0x0002a204   0x000000a0   Code   RO         1242    i.nrf_ble_gq_item_add  nrf_ble_gq.o
    0x0002a2a4   0x0002a2a4   0x00000060   Code   RO         1243    i.nrf_ble_gq_on_ble_evt  nrf_ble_gq.o
    0x0002a304   0x0002a304   0x00000016   Code   RO         1797    i.nrf_ble_qwr_conn_handle_assign  nrf_ble_qwr.o
    0x0002a31a   0x0002a31a   0x00000024   Code   RO         1798    i.nrf_ble_qwr_init  nrf_ble_qwr.o
    0x0002a33e   0x0002a33e   0x000000b6   Code   RO         1799    i.nrf_ble_qwr_on_ble_evt  nrf_ble_qwr.o
    0x0002a3f4   0x0002a3f4   0x00000094   Code   RO         1316    i.nrf_ble_scan_addr_filter_add  nrf_ble_scan.o
    0x0002a488   0x0002a488   0x00000024   Code   RO         1317    i.nrf_ble_scan_address_type_decode  nrf_ble_scan.o
    0x0002a4ac   0x0002a4ac   0x00000050   Code   RO         1319    i.nrf_ble_scan_connect_with_target  nrf_ble_scan.o
    0x0002a4fc   0x0002a4fc   0x00000014   Code   RO         1321    i.nrf_ble_scan_default_conn_param_set  nrf_ble_scan.o
    0x0002a510   0x0002a510   0x0000001e   Code   RO         1322    i.nrf_ble_scan_default_param_set  nrf_ble_scan.o
    0x0002a52e   0x0002a52e   0x00000002   PAD
    0x0002a530   0x0002a530   0x000000b2   Code   RO         1324    i.nrf_ble_scan_filter_set  nrf_ble_scan.o
    0x0002a5e2   0x0002a5e2   0x00000018   Code   RO         1325    i.nrf_ble_scan_filters_disable  nrf_ble_scan.o
    0x0002a5fa   0x0002a5fa   0x0000004e   Code   RO         1326    i.nrf_ble_scan_filters_enable  nrf_ble_scan.o
    0x0002a648   0x0002a648   0x00000074   Code   RO         1327    i.nrf_ble_scan_init  nrf_ble_scan.o
    0x0002a6bc   0x0002a6bc   0x000001a8   Code   RO         1328    i.nrf_ble_scan_on_adv_report  nrf_ble_scan.o
    0x0002a864   0x0002a864   0x00000080   Code   RO         1329    i.nrf_ble_scan_on_ble_evt  nrf_ble_scan.o
    0x0002a8e4   0x0002a8e4   0x00000044   Code   RO         1331    i.nrf_ble_scan_start  nrf_ble_scan.o
    0x0002a928   0x0002a928   0x00000004   Code   RO         1332    i.nrf_ble_scan_stop  nrf_ble_scan.o
    0x0002a92c   0x0002a92c   0x0000000e   Code   RO         2305    i.nrf_clock_event_check  nrfx_clock.o
    0x0002a93a   0x0002a93a   0x00000010   Code   RO         2306    i.nrf_clock_event_clear  nrfx_clock.o
    0x0002a94a   0x0002a94a   0x00000002   PAD
    0x0002a94c   0x0002a94c   0x00000020   Code   RO           22    i.nrf_delay_ms      main.o
    0x0002a96c   0x0002a96c   0x00000040   Code   RO         1970    i.nrf_drv_clock_init  nrf_drv_clock.o
    0x0002a9ac   0x0002a9ac   0x00000034   Code   RO         1974    i.nrf_drv_clock_lfclk_release  nrf_drv_clock.o
    0x0002a9e0   0x0002a9e0   0x00000068   Code   RO         2113    i.nrf_drv_uart_init  nrf_drv_uart.o
    0x0002aa48   0x0002aa48   0x00000020   Code   RO         3819    i.nrf_drv_uart_rx   app_uart_fifo.o
    0x0002aa68   0x0002aa68   0x00000020   Code   RO         3820    i.nrf_drv_uart_tx   app_uart_fifo.o
    0x0002aa88   0x0002aa88   0x0000004e   Code   RO         3173    i.nrf_fstorage_erase  nrf_fstorage.o
    0x0002aad6   0x0002aad6   0x00000010   Code   RO         3174    i.nrf_fstorage_init  nrf_fstorage.o
    0x0002aae6   0x0002aae6   0x00000002   PAD
    0x0002aae8   0x0002aae8   0x00000050   Code   RO         3175    i.nrf_fstorage_is_busy  nrf_fstorage.o
    0x0002ab38   0x0002ab38   0x00000050   Code   RO         3176    i.nrf_fstorage_read  nrf_fstorage.o
    0x0002ab88   0x0002ab88   0x00000018   Code   RO         3261    i.nrf_fstorage_sdh_req_handler  nrf_fstorage_sd.o
    0x0002aba0   0x0002aba0   0x00000020   Code   RO         3262    i.nrf_fstorage_sdh_state_handler  nrf_fstorage_sd.o
    0x0002abc0   0x0002abc0   0x000000a4   Code   RO         3263    i.nrf_fstorage_sys_evt_handler  nrf_fstorage_sd.o
    0x0002ac64   0x0002ac64   0x00000066   Code   RO         3180    i.nrf_fstorage_write  nrf_fstorage.o
    0x0002acca   0x0002acca   0x00000024   Code   RO         2794    i.nrf_gpio_cfg      nrfx_uart.o
    0x0002acee   0x0002acee   0x00000024   Code   RO         2980    i.nrf_gpio_cfg      nrfx_uarte.o
    0x0002ad12   0x0002ad12   0x00000012   Code   RO         2795    i.nrf_gpio_cfg_default  nrfx_uart.o
    0x0002ad24   0x0002ad24   0x00000012   Code   RO         2981    i.nrf_gpio_cfg_default  nrfx_uarte.o
    0x0002ad36   0x0002ad36   0x00000012   Code   RO         2796    i.nrf_gpio_cfg_input  nrfx_uart.o
    0x0002ad48   0x0002ad48   0x00000012   Code   RO         2982    i.nrf_gpio_cfg_input  nrfx_uarte.o
    0x0002ad5a   0x0002ad5a   0x00000014   Code   RO         2797    i.nrf_gpio_cfg_output  nrfx_uart.o
    0x0002ad6e   0x0002ad6e   0x00000014   Code   RO         2983    i.nrf_gpio_cfg_output  nrfx_uarte.o
    0x0002ad82   0x0002ad82   0x00000022   Code   RO         2447    i.nrf_gpio_cfg_sense_set  nrfx_gpiote.o
    0x0002ada4   0x0002ada4   0x0000002c   Code   RO         2448    i.nrf_gpio_latches_read_and_clear  nrfx_gpiote.o
    0x0002add0   0x0002add0   0x00000014   Code   RO         2450    i.nrf_gpiote_event_clear  nrfx_gpiote.o
    0x0002ade4   0x0002ade4   0x00000010   Code   RO         2451    i.nrf_gpiote_event_is_set  nrfx_gpiote.o
    0x0002adf4   0x0002adf4   0x00000060   Code   RO         4492    i.nrf_memobj_alloc  nrf_memobj.o
    0x0002ae54   0x0002ae54   0x00000032   Code   RO         4493    i.nrf_memobj_free   nrf_memobj.o
    0x0002ae86   0x0002ae86   0x00000004   Code   RO         4495    i.nrf_memobj_pool_init  nrf_memobj.o
    0x0002ae8a   0x0002ae8a   0x00000010   Code   RO         4497    i.nrf_memobj_read   nrf_memobj.o
    0x0002ae9a   0x0002ae9a   0x00000010   Code   RO         4498    i.nrf_memobj_write  nrf_memobj.o
    0x0002aeaa   0x0002aeaa   0x00000002   PAD
    0x0002aeac   0x0002aeac   0x00000028   Code   RO         4570    i.nrf_pwr_mgmt_init  nrf_pwr_mgmt.o
    0x0002aed4   0x0002aed4   0x00000014   Code   RO         4571    i.nrf_pwr_mgmt_run  nrf_pwr_mgmt.o
    0x0002aee8   0x0002aee8   0x0000008e   Code   RO         4634    i.nrf_queue_generic_pop  nrf_queue.o
    0x0002af76   0x0002af76   0x00000012   Code   RO         4636    i.nrf_queue_is_empty  nrf_queue.o
    0x0002af88   0x0002af88   0x0000001e   Code   RO         4637    i.nrf_queue_is_full  nrf_queue.o
    0x0002afa6   0x0002afa6   0x0000000e   Code   RO         4640    i.nrf_queue_next_idx  nrf_queue.o
    0x0002afb4   0x0002afb4   0x000000b2   Code   RO         4642    i.nrf_queue_push    nrf_queue.o
    0x0002b066   0x0002b066   0x00000004   Code   RO           23    i.nrf_qwr_error_handler  main.o
    0x0002b06a   0x0002b06a   0x0000000c   Code   RO         3980    i.nrf_rtc_event_clear  drv_rtc.o
    0x0002b076   0x0002b076   0x00000002   PAD
    0x0002b078   0x0002b078   0x00000014   Code   RO         5510    i.nrf_sdh_ble_app_ram_start_get  nrf_sdh_ble.o
    0x0002b08c   0x0002b08c   0x0000009e   Code   RO         5511    i.nrf_sdh_ble_default_cfg_set  nrf_sdh_ble.o
    0x0002b12a   0x0002b12a   0x00000002   PAD
    0x0002b12c   0x0002b12c   0x00000014   Code   RO         5512    i.nrf_sdh_ble_enable  nrf_sdh_ble.o
    0x0002b140   0x0002b140   0x00000060   Code   RO         5513    i.nrf_sdh_ble_evts_poll  nrf_sdh_ble.o
    0x0002b1a0   0x0002b1a0   0x00000054   Code   RO         5394    i.nrf_sdh_disable_request  nrf_sdh.o
    0x0002b1f4   0x0002b1f4   0x00000074   Code   RO         5395    i.nrf_sdh_enable_request  nrf_sdh.o
    0x0002b268   0x0002b268   0x00000024   Code   RO         5396    i.nrf_sdh_evts_poll  nrf_sdh.o
    0x0002b28c   0x0002b28c   0x0000000c   Code   RO         5397    i.nrf_sdh_is_enabled  nrf_sdh.o
    0x0002b298   0x0002b298   0x0000001c   Code   RO         5399    i.nrf_sdh_request_continue  nrf_sdh.o
    0x0002b2b4   0x0002b2b4   0x0000003c   Code   RO         5561    i.nrf_sdh_soc_evts_poll  nrf_sdh_soc.o
    0x0002b2f0   0x0002b2f0   0x0000000a   Code   RO         4813    i.nrf_section_iter_init  nrf_section_iter.o
    0x0002b2fa   0x0002b2fa   0x00000024   Code   RO         4814    i.nrf_section_iter_item_set  nrf_section_iter.o
    0x0002b31e   0x0002b31e   0x00000020   Code   RO         4815    i.nrf_section_iter_next  nrf_section_iter.o
    0x0002b33e   0x0002b33e   0x00000022   Code   RO         4848    i.nrf_sortlist_add  nrf_sortlist.o
    0x0002b360   0x0002b360   0x00000006   Code   RO         4850    i.nrf_sortlist_peek  nrf_sortlist.o
    0x0002b366   0x0002b366   0x0000000e   Code   RO         4851    i.nrf_sortlist_pop  nrf_sortlist.o
    0x0002b374   0x0002b374   0x0000001e   Code   RO         4852    i.nrf_sortlist_remove  nrf_sortlist.o
    0x0002b392   0x0002b392   0x0000000a   Code   RO         2798    i.nrf_uart_event_check  nrfx_uart.o
    0x0002b39c   0x0002b39c   0x0000000c   Code   RO         2799    i.nrf_uart_event_clear  nrfx_uart.o
    0x0002b3a8   0x0002b3a8   0x0000000c   Code   RO         2800    i.nrf_uart_int_enable_check  nrfx_uart.o
    0x0002b3b4   0x0002b3b4   0x0000000a   Code   RO         2984    i.nrf_uarte_event_check  nrfx_uarte.o
    0x0002b3be   0x0002b3be   0x0000000c   Code   RO         2985    i.nrf_uarte_event_clear  nrfx_uarte.o
    0x0002b3ca   0x0002b3ca   0x00000002   PAD
    0x0002b3cc   0x0002b3cc   0x00000010   Code   RO         1977    i.nrf_wdt_started   nrf_drv_clock.o
    0x0002b3dc   0x0002b3dc   0x0000002c   Code   RO         2311    i.nrfx_clock_enable  nrfx_clock.o
    0x0002b408   0x0002b408   0x0000001c   Code   RO         2314    i.nrfx_clock_init   nrfx_clock.o
    0x0002b424   0x0002b424   0x00000030   Code   RO         2317    i.nrfx_clock_lfclk_stop  nrfx_clock.o
    0x0002b454   0x0002b454   0x00000010   Code   RO         3981    i.nrfx_coredep_delay_us  drv_rtc.o
    0x0002b464   0x0002b464   0x00000010   Code   RO         2986    i.nrfx_is_in_ram    nrfx_uarte.o
    0x0002b474   0x0002b474   0x0000003a   Code   RO         2743    i.nrfx_prs_acquire  nrfx_prs.o
    0x0002b4ae   0x0002b4ae   0x00000012   Code   RO         2744    i.nrfx_prs_release  nrfx_prs.o
    0x0002b4c0   0x0002b4c0   0x00000010   Code   RO         2801    i.nrfx_uart_0_irq_handler  nrfx_uart.o
    0x0002b4d0   0x0002b4d0   0x000000d4   Code   RO         2803    i.nrfx_uart_init    nrfx_uart.o
    0x0002b5a4   0x0002b5a4   0x000000ec   Code   RO         2804    i.nrfx_uart_rx      nrfx_uart.o
    0x0002b690   0x0002b690   0x000000a8   Code   RO         2809    i.nrfx_uart_tx      nrfx_uart.o
    0x0002b738   0x0002b738   0x00000020   Code   RO         2811    i.nrfx_uart_tx_in_progress  nrfx_uart.o
    0x0002b758   0x0002b758   0x000000c0   Code   RO         2812    i.nrfx_uart_uninit  nrfx_uart.o
    0x0002b818   0x0002b818   0x00000010   Code   RO         2987    i.nrfx_uarte_0_irq_handler  nrfx_uarte.o
    0x0002b828   0x0002b828   0x0000006c   Code   RO         2989    i.nrfx_uarte_init   nrfx_uarte.o
    0x0002b894   0x0002b894   0x00000104   Code   RO         2990    i.nrfx_uarte_rx     nrfx_uarte.o
    0x0002b998   0x0002b998   0x000000ac   Code   RO         2993    i.nrfx_uarte_tx     nrfx_uarte.o
    0x0002ba44   0x0002ba44   0x0000001c   Code   RO         2995    i.nrfx_uarte_tx_in_progress  nrfx_uarte.o
    0x0002ba60   0x0002ba60   0x00000108   Code   RO         2996    i.nrfx_uarte_uninit  nrfx_uarte.o
    0x0002bb68   0x0002bb68   0x00000042   Code   RO           24    i.nus_data_handler  main.o
    0x0002bbaa   0x0002bbaa   0x00000004   Code   RO           25    i.nus_error_handler  main.o
    0x0002bbae   0x0002bbae   0x00000002   PAD
    0x0002bbb0   0x0002bbb0   0x00000018   Code   RO         5606    i.nvmc_config       system_nrf52.o
    0x0002bbc8   0x0002bbc8   0x00000024   Code   RO           26    i.on_adv_evt        main.o
    0x0002bbec   0x0002bbec   0x000000fc   Code   RO          957    i.on_characteristic_discovery_rsp  ble_db_discovery.o
    0x0002bce8   0x0002bce8   0x0000001c   Code   RO           27    i.on_conn_params_evt  main.o
    0x0002bd04   0x0002bd04   0x0000006a   Code   RO         1911    i.on_connect        ble_nus.o
    0x0002bd6e   0x0002bd6e   0x00000002   PAD
    0x0002bd70   0x0002bd70   0x000000da   Code   RO          958    i.on_descriptor_discovery_rsp  ble_db_discovery.o
    0x0002be4a   0x0002be4a   0x00000072   Code   RO          959    i.on_primary_srv_discovery_rsp  ble_db_discovery.o
    0x0002bebc   0x0002bebc   0x0000009c   Code   RO          960    i.on_srv_disc_completion  ble_db_discovery.o
    0x0002bf58   0x0002bf58   0x00000084   Code   RO         1912    i.on_write          ble_nus.o
    0x0002bfdc   0x0002bfdc   0x00000012   Code   RO         1448    i.phy_is_valid      ble_advertising.o
    0x0002bfee   0x0002bfee   0x00000002   PAD
    0x0002bff0   0x0002bff0   0x000000b4   Code   RO         2484    i.port_event_handle  nrfx_gpiote.o
    0x0002c0a4   0x0002c0a4   0x00000010   Code   RO         2485    i.port_handler_polarity_get  nrfx_gpiote.o
    0x0002c0b4   0x0002c0b4   0x00000018   Code   RO         2745    i.prs_box_get       nrfx_prs.o
    0x0002c0cc   0x0002c0cc   0x00000014   Code   RO         3264    i.queue_free        nrf_fstorage_sd.o
    0x0002c0e0   0x0002c0e0   0x000000e0   Code   RO         1244    i.queue_process     nrf_ble_gq.o
    0x0002c1c0   0x0002c1c0   0x000000a0   Code   RO         3265    i.queue_process     nrf_fstorage_sd.o
    0x0002c260   0x0002c260   0x00000024   Code   RO         3266    i.queue_start       nrf_fstorage_sd.o
    0x0002c284   0x0002c284   0x00000018   Code   RO         4648    i.queue_utilization_get  nrf_queue.o
    0x0002c29c   0x0002c29c   0x00000058   Code   RO         1245    i.queues_purge      nrf_ble_gq.o
    0x0002c2f4   0x0002c2f4   0x0000000e   Code   RO         3267    i.read              nrf_fstorage_sd.o
    0x0002c302   0x0002c302   0x00000002   PAD
    0x0002c304   0x0002c304   0x000000b0   Code   RO           28    i.read_name         main.o
    0x0002c3b4   0x0002c3b4   0x00000038   Code   RO          961    i.registered_handler_get  ble_db_discovery.o
    0x0002c3ec   0x0002c3ec   0x0000001e   Code   RO         1246    i.request_err_code_handle  nrf_ble_gq.o
    0x0002c40a   0x0002c40a   0x00000072   Code   RO         1247    i.request_process   nrf_ble_gq.o
    0x0002c47c   0x0002c47c   0x00000004   Code   RO         3268    i.rmap              nrf_fstorage_sd.o
    0x0002c480   0x0002c480   0x0000005c   Code   RO         3689    i.rtc_irq           app_timer2.o
    0x0002c4dc   0x0002c4dc   0x00000064   Code   RO         3690    i.rtc_schedule      app_timer2.o
    0x0002c540   0x0002c540   0x00000074   Code   RO         3691    i.rtc_update        app_timer2.o
    0x0002c5b4   0x0002c5b4   0x00000032   Code   RO         2813    i.rx_byte           nrfx_uart.o
    0x0002c5e6   0x0002c5e6   0x00000016   Code   RO         2814    i.rx_done_event     nrfx_uart.o
    0x0002c5fc   0x0002c5fc   0x00000016   Code   RO         2997    i.rx_done_event     nrfx_uarte.o
    0x0002c612   0x0002c612   0x00000020   Code   RO         2815    i.rx_enable         nrfx_uart.o
    0x0002c632   0x0002c632   0x00000002   PAD
    0x0002c634   0x0002c634   0x000000bc   Code   RO           29    i.scan_evt_handler  main.o
    0x0002c6f0   0x0002c6f0   0x00000084   Code   RO           30    i.scan_init         main.o
    0x0002c774   0x0002c774   0x00000028   Code   RO           31    i.scan_start        main.o
    0x0002c79c   0x0002c79c   0x00000058   Code   RO         1978    i.sd_state_evt_handler  nrf_drv_clock.o
    0x0002c7f4   0x0002c7f4   0x00000030   Code   RO         5402    i.sdh_request_observer_notify  nrf_sdh.o
    0x0002c824   0x0002c824   0x0000002c   Code   RO         5403    i.sdh_state_observer_notify  nrf_sdh.o
    0x0002c850   0x0002c850   0x00000010   Code   RO         1536    i.send_error_evt    ble_conn_params.o
    0x0002c860   0x0002c860   0x00000088   Code   RO          843    i.service_data_encode  ble_advdata.o
    0x0002c8e8   0x0002c8e8   0x00000030   Code   RO         1092    i.set_security_req  ble_srv_common.o
    0x0002c918   0x0002c918   0x00000020   Code   RO           32    i.shutdown_handler  main.o
    0x0002c938   0x0002c938   0x00000018   Code   RO         1979    i.soc_evt_handler   nrf_drv_clock.o
    0x0002c950   0x0002c950   0x00000040   Code   RO         5404    i.softdevice_evt_irq_disable  nrf_sdh.o
    0x0002c990   0x0002c990   0x00000058   Code   RO         5405    i.softdevices_evt_irq_enable  nrf_sdh.o
    0x0002c9e8   0x0002c9e8   0x0000000c   Code   RO         3692    i.sortlist_pop      app_timer2.o
    0x0002c9f4   0x0002c9f4   0x0000008c   Code   RO           33    i.timer_1ms_handle  main.o
    0x0002ca80   0x0002ca80   0x00000058   Code   RO         3693    i.timer_expire      app_timer2.o
    0x0002cad8   0x0002cad8   0x00000078   Code   RO         3694    i.timer_req_process  app_timer2.o
    0x0002cb50   0x0002cb50   0x00000038   Code   RO         3695    i.timer_req_schedule  app_timer2.o
    0x0002cb88   0x0002cb88   0x00000020   Code   RO         2816    i.tx_byte           nrfx_uart.o
    0x0002cba8   0x0002cba8   0x0000001a   Code   RO         2817    i.tx_done_event     nrfx_uart.o
    0x0002cbc2   0x0002cbc2   0x0000001a   Code   RO         2998    i.tx_done_event     nrfx_uarte.o
    0x0002cbdc   0x0002cbdc   0x00000098   Code   RO           34    i.uart_event_handle  main.o
    0x0002cc74   0x0002cc74   0x000000a4   Code   RO         3821    i.uart_event_handler  app_uart_fifo.o
    0x0002cd18   0x0002cd18   0x00000030   Code   RO         2114    i.uart_evt_handler  nrf_drv_uart.o
    0x0002cd48   0x0002cd48   0x00000048   Code   RO           35    i.uart_init         main.o
    0x0002cd90   0x0002cd90   0x0000012a   Code   RO         2818    i.uart_irq_handler  nrfx_uart.o
    0x0002ceba   0x0002ceba   0x00000002   PAD
    0x0002cebc   0x0002cebc   0x00000030   Code   RO         2115    i.uarte_evt_handler  nrf_drv_uart.o
    0x0002ceec   0x0002ceec   0x00000112   Code   RO         2999    i.uarte_irq_handler  nrfx_uarte.o
    0x0002cffe   0x0002cffe   0x0000000a   Code   RO          844    i.uint16_encode     ble_advdata.o
    0x0002d008   0x0002d008   0x00000020   Code   RO         3269    i.uninit            nrf_fstorage_sd.o
    0x0002d028   0x0002d028   0x00000068   Code   RO         1537    i.update_timeout_handler  ble_conn_params.o
    0x0002d090   0x0002d090   0x00000018   Code   RO         1449    i.use_whitelist     ble_advertising.o
    0x0002d0a8   0x0002d0a8   0x00000024   Code   RO         1800    i.user_mem_reply    nrf_ble_qwr.o
    0x0002d0cc   0x0002d0cc   0x00000030   Code   RO          845    i.uuid_list_encode  ble_advdata.o
    0x0002d0fc   0x0002d0fc   0x0000009e   Code   RO          846    i.uuid_list_sized_encode  ble_advdata.o
    0x0002d19a   0x0002d19a   0x00000010   Code   RO           36    i.wait_for_flash_ready  main.o
    0x0002d1aa   0x0002d1aa   0x0000003a   Code   RO          638    i.wakeup_button_cfg  bsp.o
    0x0002d1e4   0x0002d1e4   0x00000004   Code   RO         3270    i.wmap              nrf_fstorage_sd.o
    0x0002d1e8   0x0002d1e8   0x00000050   Code   RO         3271    i.write             nrf_fstorage_sd.o
    0x0002d238   0x0002d238   0x00000014   Data   RO           43    .constdata          main.o
    0x0002d24c   0x0002d24c   0x00000004   PAD
    0x0002d250   0x0002d250   0x0000004c   Data   RO           44    .constdata          main.o
    0x0002d29c   0x0002d29c   0x00000004   Data   RO          568    .constdata          boards.o
    0x0002d2a0   0x0002d2a0   0x0000007c   Data   RO          963    .constdata          ble_db_discovery.o
    0x0002d31c   0x0002d31c   0x00000016   Data   RO         1157    .constdata          nrf_ble_gatt.o
    0x0002d332   0x0002d332   0x00000002   PAD
    0x0002d334   0x0002d334   0x00000018   Data   RO         1248    .constdata          nrf_ble_gq.o
    0x0002d34c   0x0002d34c   0x00000010   Data   RO         1845    .constdata          ble_nus_c.o
    0x0002d35c   0x0002d35c   0x00000010   Data   RO         1913    .constdata          ble_nus.o
    0x0002d36c   0x0002d36c   0x00000004   Data   RO         2487    .constdata          nrfx_gpiote.o
    0x0002d370   0x0002d370   0x00000004   Data   RO         2821    .constdata          nrfx_uart.o
    0x0002d374   0x0002d374   0x00000004   Data   RO         3002    .constdata          nrfx_uarte.o
    0x0002d378   0x0002d378   0x00000010   Data   RO         3274    .constdata          nrf_fstorage_sd.o
    0x0002d388   0x0002d388   0x00000020   Data   RO         3275    .constdata          nrf_fstorage_sd.o
    0x0002d3a8   0x0002d3a8   0x00000014   Data   RO         3698    .constdata          app_timer2.o
    0x0002d3bc   0x0002d3bc   0x00000020   Data   RO         3823    .constdata          app_uart_fifo.o
    0x0002d3dc   0x0002d3dc   0x00000004   PAD
    0x0002d3e0   0x0002d3e0   0x00000006   Data   RO         3982    .constdata          drv_rtc.o
    0x0002d3e6   0x0002d3e6   0x00000002   PAD
    0x0002d3e8   0x0002d3e8   0x00000018   Data   RO         4575    .constdata          nrf_pwr_mgmt.o
    0x0002d400   0x0002d400   0x0000000c   Data   RO         4576    .constdata          nrf_pwr_mgmt.o
    0x0002d40c   0x0002d40c   0x00000010   Data   RO         5406    .constdata          nrf_sdh.o
    0x0002d41c   0x0002d41c   0x00000028   Data   RO         5407    .constdata          nrf_sdh.o
    0x0002d444   0x0002d444   0x00000010   Data   RO         5408    .constdata          nrf_sdh.o
    0x0002d454   0x0002d454   0x00000010   Data   RO         5409    .constdata          nrf_sdh.o
    0x0002d464   0x0002d464   0x00000020   Data   RO         5514    .constdata          nrf_sdh_ble.o
    0x0002d484   0x0002d484   0x00000010   Data   RO         5515    .constdata          nrf_sdh_ble.o
    0x0002d494   0x0002d494   0x00000010   Data   RO         5562    .constdata          nrf_sdh_soc.o
    0x0002d4a4   0x0002d4a4   0x0000000c   Data   RO         5563    .constdata          nrf_sdh_soc.o
    0x0002d4b0   0x0002d4b0   0x0000023f   Data   RO           45    .conststring        main.o
    0x0002d6ef   0x0002d6ef   0x00000001   PAD
    0x0002d6f0   0x0002d6f0   0x00000020   Data   RO         6007    Region$$Table       anon$$obj.o
    0x0002d710   0x0002d710   0x00000014   Data   RO           54    nrf_balloc          main.o
    0x0002d724   0x0002d724   0x00000014   Data   RO           55    nrf_queue           main.o
    0x0002d738   0x0002d738   0x00000004   Data   RO           56    pwr_mgmt_data1      main.o
    0x0002d73c   0x0002d73c   0x00000008   Data   RO         1626    sdh_ble_observers0  ble_conn_state.o
    0x0002d744   0x0002d744   0x00000028   Data   RO           57    sdh_ble_observers1  main.o
    0x0002d76c   0x0002d76c   0x00000008   Data   RO          728    sdh_ble_observers1  bsp_btn_ble.o
    0x0002d774   0x0002d774   0x00000008   Data   RO         1540    sdh_ble_observers1  ble_conn_params.o
    0x0002d77c   0x0002d77c   0x00000018   Data   RO           58    sdh_ble_observers2  main.o
    0x0002d794   0x0002d794   0x00000008   Data   RO           59    sdh_ble_observers3  main.o
    0x0002d79c   0x0002d79c   0x00000008   Data   RO         3277    sdh_req_observers0  nrf_fstorage_sd.o
    0x0002d7a4   0x0002d7a4   0x00000008   Data   RO         1985    sdh_soc_observers0  nrf_drv_clock.o
    0x0002d7ac   0x0002d7ac   0x00000008   Data   RO         3278    sdh_soc_observers0  nrf_fstorage_sd.o
    0x0002d7b4   0x0002d7b4   0x00000008   Data   RO         5517    sdh_stack_observers0  nrf_sdh_ble.o
    0x0002d7bc   0x0002d7bc   0x00000008   Data   RO         5564    sdh_stack_observers0  nrf_sdh_soc.o
    0x0002d7c4   0x0002d7c4   0x00000008   Data   RO         1986    sdh_state_observers0  nrf_drv_clock.o
    0x0002d7cc   0x0002d7cc   0x00000008   Data   RO         3279    sdh_state_observers0  nrf_fstorage_sd.o


    Execution Region RW_IRAM1 (Exec base: 0x200039c8, Load base: 0x0002d7d4, Size: 0x00002090, Max: 0x00002638, ABSOLUTE, COMPRESSED[0x00000084])

    Exec Addr    Load Addr    Size         Type   Attr      Idx    E Section Name        Object

    0x200039c8   COMPRESSED   0x0000066c   Data   RW           46    .data               main.o
    0x20004034   COMPRESSED   0x00000002   Data   RW           47    .data               main.o
    0x20004036   COMPRESSED   0x00000002   PAD
    0x20004038   COMPRESSED   0x00000008   Data   RW           48    .data               main.o
    0x20004040   COMPRESSED   0x00000004   Data   RW           49    .data               main.o
    0x20004044   COMPRESSED   0x00000008   Data   RW           50    .data               main.o
    0x2000404c   COMPRESSED   0x00000008   Data   RW           51    .data               main.o
    0x20004054   COMPRESSED   0x00000008   Data   RW           52    .data               main.o
    0x2000405c   COMPRESSED   0x00000008   Data   RW          727    .data               bsp_btn_ble.o
    0x20004064   COMPRESSED   0x00000010   Data   RW          964    .data               ble_db_discovery.o
    0x20004074   COMPRESSED   0x00000008   Data   RW         1539    .data               ble_conn_params.o
    0x2000407c   COMPRESSED   0x0000000c   Data   RW         2116    .data               nrf_drv_uart.o
    0x20004088   COMPRESSED   0x00000008   Data   RW         2321    .data               nrfx_clock.o
    0x20004090   COMPRESSED   0x00000008   Data   RW         2747    .data               nrfx_prs.o
    0x20004098   COMPRESSED   0x00000008   Data   RW         3276    .data               nrf_fstorage_sd.o
    0x200040a0   COMPRESSED   0x00000020   Data   RW         3699    .data               app_timer2.o
    0x200040c0   COMPRESSED   0x00000004   Data   RW         3700    .data               app_timer2.o
    0x200040c4   COMPRESSED   0x0000001c   Data   RW         3824    .data               app_uart_fifo.o
    0x200040e0   COMPRESSED   0x0000000c   Data   RW         3983    .data               drv_rtc.o
    0x200040ec   COMPRESSED   0x00000008   Data   RW         4577    .data               nrf_pwr_mgmt.o
    0x200040f4   COMPRESSED   0x00000004   Data   RW         4935    .data               retarget.o
    0x200040f8   COMPRESSED   0x00000003   Data   RW         5410    .data               nrf_sdh.o
    0x200040fb   COMPRESSED   0x00000001   Data   RW         5516    .data               nrf_sdh_ble.o
    0x200040fc   COMPRESSED   0x00000004   Data   RW         5608    .data               system_nrf52.o
    0x20004100   COMPRESSED   0x00000014   Data   RW           53    fs_data             main.o
    0x20004114   COMPRESSED   0x00000004   PAD
    0x20004118        -       0x00000020   Zero   RW           37    .bss                main.o
    0x20004138        -       0x000008a4   Zero   RW           38    .bss                main.o
    0x200049dc        -       0x000000a0   Zero   RW           39    .bss                main.o
    0x20004a7c        -       0x0000000c   Zero   RW           40    .bss                main.o
    0x20004a88        -       0x0000000c   Zero   RW           41    .bss                main.o
    0x20004a94        -       0x000000c0   Zero   RW           42    .bss                main.o
    0x20004b54        -       0x0000000c   Zero   RW          639    .bss                bsp.o
    0x20004b60        -       0x00000018   Zero   RW          962    .bss                ble_db_discovery.o
    0x20004b78        -       0x00000050   Zero   RW         1538    .bss                ble_conn_params.o
    0x20004bc8        -       0x0000007c   Zero   RW         1625    .bss                ble_conn_state.o
    0x20004c44        -       0x00000014   Zero   RW         1980    .bss                nrf_drv_clock.o
    0x20004c58        -       0x0000005c   Zero   RW         2486    .bss                nrfx_gpiote.o
    0x20004cb4        -       0x0000002c   Zero   RW         2819    .bss                nrfx_uart.o
    0x20004ce0        -       0x00000024   Zero   RW         3000    .bss                nrfx_uarte.o
    0x20004d04        -       0x00000010   Zero   RW         3272    .bss                nrf_fstorage_sd.o
    0x20004d14        -       0x000000a0   Zero   RW         3273    .bss                nrf_fstorage_sd.o
    0x20004db4        -       0x00000010   Zero   RW         3696    .bss                app_timer2.o
    0x20004dc4        -       0x00000058   Zero   RW         3697    .bss                app_timer2.o
    0x20004e1c        -       0x00000020   Zero   RW         3822    .bss                app_uart_fifo.o
    0x20004e3c        -       0x0000000c   Zero   RW         3897    .bss                app_util_platform.o
    0x20004e48        -       0x0000000c   Zero   RW         4574    .bss                nrf_pwr_mgmt.o
    0x20004e54   COMPRESSED   0x00000004   PAD
    0x20004e58        -       0x00000c00   Zero   RW         5590    STACK               arm_startup_nrf52805.o


==============================================================================

Image component sizes


      Code (inc. data)   RO Data    RW Data    ZI Data      Debug   Object Name

        22          0          0          0          0       2581   app_error.o
        48          8          0          0          0       4122   app_error_weak.o
       118          0          0          0          0       5130   app_fifo.o
       846         88         20         36        104      14743   app_timer2.o
       568         70         32         28         32      17187   app_uart_fifo.o
       124         14          0          0         12      10850   app_util_platform.o
        36          8        512          0       3072        932   arm_startup_nrf52805.o
      1588          0          0          0          0      56444   ble_advdata.o
      1018          6          0          0          0      10243   ble_advertising.o
       636         44          8          8         80       9455   ble_conn_params.o
       426         14          8          0        124       8665   ble_conn_state.o
      1828         94        124         16         24      32279   ble_db_discovery.o
        72          0          0          0          0       1708   ble_link_ctx_manager.o
       678          6         16          0          0       6172   ble_nus.o
       582         16         16          0          0      11582   ble_nus_c.o
       456          6          0          0          0       3435   ble_srv_common.o
        12          6          4          0          0       2118   boards.o
       136          4          0          0         12       9620   bsp.o
       196          6          8          8          0       4061   bsp_btn_ble.o
       612         14          6         12          0      48889   drv_rtc.o
      4542       1124        787       1702       2620     250066   main.o
       342          0          0          0          0       6786   nrf_atfifo.o
        64          0          0          0          0       3104   nrf_atflags.o
       266          0          0          0          0       5100   nrf_atomic.o
       164          0          0          0          0       3696   nrf_balloc.o
       546          6         22          0          0      36445   nrf_ble_gatt.o
       958         28         24          0          0      11036   nrf_ble_gq.o
       276          0          0          0          0       4761   nrf_ble_qwr.o
      1358          0          0          0          0      16818   nrf_ble_scan.o
       312         36         16          0         20      43918   nrf_drv_clock.o
       200         26          0         12          0      18204   nrf_drv_uart.o
       392         10          0          0          0       7620   nrf_fstorage.o
       798         82         72          8        176      18255   nrf_fstorage_sd.o
       308          0          0          0          0       8189   nrf_memobj.o
        60         12         36          8         12       5178   nrf_pwr_mgmt.o
       406          0          0          0          0       6495   nrf_queue.o
       560         60         88          3          0      45495   nrf_sdh.o
       294         18         56          1          0       5691   nrf_sdh_ble.o
        60          4         36          0          0       2460   nrf_sdh_soc.o
        78          0          0          0          0       2848   nrf_section_iter.o
        84          0          0          0          0       3800   nrf_sortlist.o
       230         32          0          8          0      45902   nrfx_clock.o
       506         38          4          0         92      21710   nrfx_gpiote.o
       112         16          0          8          0       4512   nrfx_prs.o
      1578         48          4          0         44      33175   nrfx_uart.o
      1572         46          4          0         36      27981   nrfx_uarte.o
        14          0          0          4          0       2982   retarget.o
       848        100          0          4          0      35245   system_nrf52.o

    ----------------------------------------------------------------------
     26990       2090       1948       1868       6468     937688   Object Totals
         0          0         32          0          0          0   (incl. Generated)
        60          0         13          2          8          0   (incl. Padding)

