:020000040002F8
:10600000585A0020C1630200C9630200CB6302003A
:10601000CD630200CF630200D163020000000000E4
:10602000000000000000000000000000D363020038
:10603000D563020000000000D7630200D9630200AC
:106040009D660200DB63020085690200DB630200DB
:10605000DB63020000000000F9650200DB63020060
:10606000DB630200DB630200DB630200DB63020030
:10607000DB630200DB630200DB630200DB63020020
:10608000DB630200ED660200DB630200000000003B
:10609000DB630200DB630200FD660200DB630200DB
:1060A000DB630200DB630200000000000000000070
:1060B00000000000000000000000000000000000E0
:1060C00000000000000000000000000000000000D0
:1060D00000000000000000000000000000000000C0
:1060E00000000000000000000000000000000000B0
:1060F00000000000000000000000000000000000A0
:10610000000000000000000000000000000000008F
:10611000000000000000000000000000000000007F
:10612000000000000000000000000000000000006F
:10613000000000000000000000000000000000005F
:10614000000000000000000000000000000000004F
:10615000000000000000000000000000000000003F
:10616000000000000000000000000000000000002F
:10617000000000000000000000000000000000001F
:10618000000000000000000000000000000000000F
:1061900000000000000000000000000000000000FF
:1061A00000000000000000000000000000000000EF
:1061B00000000000000000000000000000000000DF
:1061C00000000000000000000000000000000000CF
:1061D00000000000000000000000000000000000BF
:1061E00000000000000000000000000000000000AF
:1061F000000000000000000000000000000000009F
:10620000DFF80CD000F0AAF90048004725980200FA
:10621000585A002030B450E8012F93B2C489234467
:106220008489A34228BF1B1B0489A34202BFBFF37A
:106230002F8F002007E0C3EA020340E80134002C5E
:10624000E9D14FF001000A6030BC704750E8012FDF
:10625000C2EA024240E801210029F7D1704730B478
:1062600050E8022F1FFAA2F3C488A34202BFBFF373
:106270002F8F00200DE0C48923448489A34228BFC6
:106280001B1BC2EA034340E80234002CE8D14FF064
:1062900001000A6030BC704750E8022FC2EA224277
:1062A00040E802210029F7D17047034653E8022F46
:1062B000D988B2EB324F4FF0000017BF92B241EADB
:1062C000014142EA014104E05A68B2EB324F08BF93
:1062D000012043E80212002AE8D1704730B4044696
:1062E00054E8000F0D4644E80053002BF8D1156028
:1062F00030BC704730B4044654E8000F40EA010552
:1063000044E80053002BF7D1156030BC704730B41F
:10631000044654E8000F00EA010544E80053002B4E
:10632000F7D1156030BC704730B4044654E8000F14
:1063300080EA010544E80053002BF7D1156030BC1A
:10634000704730B4044654E8000F00EB010544E800
:106350000053002BF7D1156030BC704730B40446B1
:1063600054E8000FA0EB010544E80053002BF7D1DF
:10637000156030BC704770B404464FF0000054E81C
:10638000006F0D68AE4207BF44E80023012044E8D7
:1063900000630E60002B1CBF0020F0E770BC70474C
:1063A00030B4044654E8000F88422CBF451A054615
:1063B00044E80053002BF5D1156030BC7047000055
:1063C0000648804706480047FEE7FEE7FEE7FEE78F
:1063D000FEE7FEE7FEE7FEE7FEE7FEE701670200F5
:1063E00001620200202A04DB203A00FA02F10020B8
:1063F00070479140C2F1200320FA03F31943904003
:10640000704740EA01039B0703D009E008C9121F47
:1064100008C0042AFAD203E011F8013B00F8013B5E
:10642000521EF9D27047D2B201E000F8012B491E8A
:10643000FBD270470022F6E710B513460A46044621
:106440001946FFF7F0FF204610BD421E12F8013F2B
:10645000002BFBD111F8013B02F8013B002BF9D1D5
:10646000704730B505462A460B4612F8010B13F863
:10647000014B08B1A042F8D01CB1002802D06D1C1D
:10648000F1E7284630BD421C10F8011B0029FBD162
:10649000801A704710B5002200E0521C835C8C5CAF
:1064A000A34201D1002BF8D1D8B2E1B2401A10BDFD
:1064B00030B504460020034600E05B1C934203D243
:1064C000E05CCD5C401BF8D030BD034611F8012BD9
:1064D00000F8012B002AF9D11846704730B505465F
:1064E0000020034600E05B1C934205D2EC5CC85CD4
:1064F000201A01D1002CF6D130BD2DE9F05F054600
:10650000002092469B4688460646814640241BE072
:10651000284641464746224600F032F853465A463E
:10652000C01A914110D3114618462246FFF75AFF70
:106530002D1A67EB01084F46224601200021FFF784
:1065400051FF17EB00094E41201EA4F10104DFDCCE
:10655000484631462A464346BDE8F09F064C074D63
:1065600006E0E06840F0010394E807009847103423
:10657000AC42F6D3FFF748FE80D50200A0D502005A
:10658000202A04DB203A21FA02F00021704721FA88
:1065900002F3D040C2F120029140084319467047EF
:1065A00070B58C1810F8015B15F0070301D110F8D5
:1065B000013B2A1106D110F8012B03E010F8016B02
:1065C00001F8016B5B1EF9D12B0705D40023521E85
:1065D0000DD401F8013BFAE710F8013BCB1A921CED
:1065E00003E013F8015B01F8015B521EF9D5A142EB
:1065F000D8D3002070BD00002DE9F8430025DFF856
:1066000094804FF4807601242F460095304604F0A4
:106610005DFB38B1D8F80403204203D0304604F0C3
:106620004BFB2543361D64007F1CB6B2082FEDD30B
:106630004FF4BE74204604F049FB48B1204604F0F4
:106640003BFB45F000456A460121002004F01EFB9B
:1066500015F0FF0F16D0012600242E420ED008EBB5
:106660008401D1F81005D1F81015C0F304200A4AAE
:10667000C1F3014152F8242002B190477600641C16
:10668000082CEAD3002D02DA684605F025FCBDE8A7
:10669000F883000000600040584C002070B54FF4B3
:1066A0008076304604F0B6F80F4DB40540B1304660
:1066B00004F0B7F80120C4F80803296800208847CF
:1066C0004FF48276304604F0A5F800280AD0304610
:1066D00004F0A7F80220C4F808032968BDE8704058
:1066E0000120084770BD0000884000200249024890
:1066F000091F096800680847E440002004F028BD2D
:106700002DE9F0418F4E4FF080548D4DD4F830116B
:1067100030782B684F1CC0F3031200D1D9B2002788
:106720004FF00108062905D1B4F824038649C0F3C7
:1067300004200860D8B2062804D1032A02D1844973
:106740008248486703F07AFA28B1D4F844028149B4
:10675000C0F342300860297830780629C0F303106E
:1067600006D1032804D17C48016821F080710160C2
:1067700003F078FA40B14FF08040C0F80C71C0F8D7
:1067800010717448001F076029683078CAB2C0F3DE
:106790000310062A05D1032803D16E4B032264336C
:1067A0001A60C9B206290ED103280CD16B4A052103
:1067B00011606A497831C1F8008068480830076084
:1067C000111D3F20086003F061FAE8B364480068D7
:1067D000644908606248001D0068091D086060483F
:1067E00008300068091D08605D480C300068091D0C
:1067F00008605B4810300068091D08605848143074
:106800000068091D08605648183000685549203155
:10681000086053481C300068091D0860504820304B
:106820000068091D08604E4824300068091D086092
:106830004B4828300068091D086049482C30006822
:10684000091D0860464800E018E0303000684549FE
:1068500040310860424834300068091D08604048F3
:1068600038300068091D08603D483C300068091D4B
:1068700008603B4840300068091D0860D4F83011BA
:10688000481C00D12978384D062904D1D4F8580283
:1068900000F04F00286003F0BDF930B133480168C3
:1068A000C90702D06FF001010160D4E94C1006293C
:1068B00007D1C21E022A04D92D4A136843F480630B
:1068C00013600F2903D12A6842F00F022A604FF0AB
:1068D0001022062907D1C01E032804D9D2F80802C5
:1068E0001C491C310860D2F80002002803DBD2F8F2
:1068F000040200281FDA012005F0CEF81521C2F8A5
:1069000000121C480368002BFCD0C2F80412016876
:106910000029FCD0002005F0BFF8BFF34F8F0E48D0
:10692000F0380168144A01F4E06111430160BFF3DB
:106930004F8F00BFFDE7124910480860BDE8F081A5
:10694000E00F00F0E80F00F0403501400DF0ADBA67
:1069500000C007403C050040FCED00E01056004040
:106960000404001020C50040E40E00400004004074
:106970003C17004000E401400400FA050090D003F9
:10698000FC400020014800680047000090400020C3
:106990000FB4054B10B503A9044A029800F02AF879
:1069A00010BC5DF814FB000083950200F440002049
:1069B00002E008C8121F08C1002AFAD170477047C8
:1069C000002001E001C1121F002AFBD17047000026
:1069D0000121202803DA81400548014003E04028D6
:1069E00002DA2038814009B1012070470020704749
:1069F000FC06FFBD2DE9FF4F8DB00F460546002672
:106A000006E025280BD0DDE90F1290476D1C761C9F
:106A100028780028F5D111B03046BDE8F08F002469
:106A2000A246A1460122EC4900E0044315F8013FCB
:106A3000203B02FA03F00842F7D128782A2810D028
:106A40006FF02F022878A0F13001092914D80AEB41
:106A50008A0102EB410144F0020400EB010A6D1CC3
:106A6000F0E701CF5FEA000A03D544F40054CAF10D
:106A7000000A44F002046D1C28782E2817D115F85E
:106A8000010F44F004042A280ED06FF02F0228785A
:106A9000A0F1300109290AD809EB890102EB410173
:106AA00000EB01096D1CF2E757F8049B6D1C287878
:106AB0006C280FD006DC4C2817D068280DD06A2827
:106AC00014D104E0742810D07A280FD10DE044F4DA
:106AD00000140AE044F4801401E044F4401469789E
:106AE000814202D104F580146D1C6D1C2A786E2A37
:106AF0001FD00CDC632A31D004DC002A8BD0582A4A
:106B000011D1A3E0642A68D0692A0CD165E0732A08
:106B10002ED004DC6F2A73D0702A04D19BE0752A32
:106B20006FD0782A6ED01046DDE90F129047761CA0
:106B300050E1C4F30250022806D0032809D00428EB
:106B400001CF09D0066045E101CFF117C0E900612E
:106B500040E101CF06803DE106703BE117F8040BF0
:106B60008DF8000000208DF80100EB46012003E0C5
:106B700057F804BB4FF0FF3061074FF0000102D41B
:106B80000DE008F10101884649450FDA8045F8DB40
:106B90001BF808100029F4D108E008F1010188462B
:106BA0008142FADB1BF808100029F6D1DDE90F233A
:106BB000AAEB08008146214600F036F9304400EB8C
:106BC000080604E0DDE90F121BF8010B9047B8F14D
:106BD0000108F7D221464846F7E00A21C4F30253E0
:106BE0004FF0000B0891022B04D001CFC117032BEB
:106BF00009D00AE0FF1D27F00707F7E8020108E0C7
:106C000032E01FE020E000B2C117042B01D140B2F6
:106C1000C117031E71F1000307DA4FF0000CD0EB2F
:106C20000C006CEB01012D2302E0230504D52B237E
:106C30008DF82430012303E0E30701D02023F7E798
:106C4000984658E00A2110E010210EE010204FF085
:106C5000000B08900CE010214FF0000B44F00404EE
:106C60004FF00809089103E008214FF0000B08914C
:106C7000C4F30253022B04D001CF0021032B06D012
:106C800006E0FF1D27F00707F7E8020103E080B2E6
:106C9000042B00D1C0B24FF0000823072BD5702A77
:106CA00007D0DDF820C08CF0100C5CEA0B0C05D08E
:106CB0000EE040238DF82430012308E050EA010360
:106CC00006D030238DF824308DF8252002239846F5
:106CD000DDF820C08CF0080C5CEA0B0C0BD150EAFC
:106CE000010301D1630706D530238DF824304FF01E
:106CF0000108A9F10109582A04D038A20B9208AA68
:106D00000A920BE03AA2F9E75B46089AFFF7F5FB17
:106D10000B9B9B5C0A9A521E0A92137050EA010266
:106D2000F2D10A98ADEB000000F1200B600702D50C
:106D300024F4803401E04FF00109D94502DDA9EBCC
:106D40000B0000E0002000EB0B0141440890AAEB8F
:106D5000010AE00306D4DDE90F232146504600F086
:106D600063F806444FF0000908E009A911F809008A
:106D7000DDE90F12904709F10109761CC145F4DBEA
:106D8000E0030CD5DDE90F232146504600F04CF816
:106D9000064404E0DDE90F1230209047761C089984
:106DA000481E08900029F5DC08E00A980A99007846
:106DB000491C0A91DDE90F129047761CBBF10001D6
:106DC000ABF1010BF1DC21465046DDE90F2300F069
:106DD00019F806446D1C1BE60928010030313233D6
:106DE0003435363738396162636465660000000007
:106DF00030313233343536373839414243444546F1
:106E0000000000002DE9F041044600251E4617460B
:106E1000880404D405E039462020B0476D1C641E68
:106E2000F9D52846BDE8F0812DE9F041044600255A
:106E30001E469046C80301D5302700E0202788046D
:106E400004D505E041463846B0476D1C641EF9D5AF
:106E50002846BDE8F081800701D00020704701205E
:106E60007047C3688B4206D811440069491E8142AD
:106E700001D8012070470020704790F824000128B5
:106E800001D01F207047EE20704710B5012202216B
:106E9000002001F02FFE08B1072810D1072202219F
:106EA000012001F027FE08B1072808D100210A229D
:106EB000084601F01FFE08B1072800D1002010BDD0
:106EC00010B50321044800F09EFF002803D0BDE860
:106ED000104000F01BB810BD7444002072B6094881
:106EE0000068C00700D000BEBFF34F8F0548E438EC
:106EF0000168054A01F4E06111430160BFF34F8F5F
:106F000000BFFDE7F0ED00E00400FA050EB500213A
:106F10000091CDE901106A4644F20100FFF7DEFF5F
:106F20000EBD10B58268C368934203D002F0FDFA2B
:106F3000002010BD052010BD29B112B1531E13420F
:106F400003D0092070470E20704701608380002124
:106F50008160C1600846704710B58268C3689A1A9C
:106F600083889A4203D802F0EAFA002010BD042078
:106F700010BD0000014802F034B90000A840002014
:106F80003AB100680129426100D00021016100206E
:106F9000704707207047000038B511480823582271
:106FA000416800910F49006802F0A7FE002815D142
:106FB0000D4A69460D4802F019F904000ED101216D
:106FC0000A4802F060F90123094A1946074802F00D
:106FD000E0F80649012008390870204638BD000055
:106FE00038D20200C44D00200DC30200A84000208A
:106FF000FFFF7F0070B50446007F0D4608B10020FA
:1070000070BDA26102F024FB401941F10001C4E906
:107010000201206900B125612146BDE870400020D1
:1070200005F0DABC014600200877012005F0D4BC49
:10703000074810B50178074A515C19B1001D04F0EA
:1070400083FC02E00C3004F0FBFA002010BD0000CD
:10705000CC4000207C40002070B50A4E01460A4812
:10706000B578FFF75EFF04464DB10020B070711C8B
:107070000122C81D03F05CFC08B1FFF747FF204662
:1070800070BD0000C44000201C4E0020F0B5244E0E
:1070900089B01F460D00044672603FD0A888296859
:1070A00082B22048FFF748FF002835D1A889A96897
:1070B00082B21C481030FFF73FFF00282CD120225D
:1070C00019496846FFF79DF960690690207C00B178
:1070D00001208DF814008DF81C70607C00B10E202A
:1070E0008DF81500E0680290A06803902068019078
:1070F000606800900A480D4A6946083003F0E4FBD6
:10710000002809D1B0702068401C05D00449012234
:10711000491CC81D03F00CFC09B0F0BD0720FBE7BB
:10712000C44000201C4E00204CD20200FDCA0200C8
:1071300010B501461048FFF70FFF040019D10F48A2
:107140000F4A0178515C19B1001D04F0EFFB02E019
:107150000C3004F065FA60B9084907480839FFF7B0
:10716000E0FE30B9054901220839044803F0F0FB7C
:107170000446204610BD00002C4E0020CC400020CC
:107180007C40002030B5EFF3108172B60D4A946850
:10719000012324B10370002900D162B630BD936091
:1071A0004FF0E023D3F88051074C25401560C3F819
:1071B0008041D3F8844154605A17C3F884210022D7
:1071C0000270E8E73C4E0020FC06FFBD0B498A68D0
:1071D000002A11D000280FD1EFF3108072B60B688F
:1071E0004FF0E022C2F800314B68C2F804310022AF
:1071F0008A60002800D162B6704700003C4E002033
:107200002DE9F041064608680C46411C4FF0A047A6
:107210004FF0010506D005FA00F1C7F808152068FF
:1072200003F00FFD6068411C02D0002103F0F7FC61
:107230003168A069C1F82405607D227D3168104362
:10724000C1F86C05D4E900123068C0F81425C0F804
:107250000C15207D012815D1A068411C02D0002109
:1072600003F0DDFCE068411C05D08540C7F80855F7
:10727000E06803F0E6FCD4E902123068C0F80825A3
:10728000C0F81015BDE8F0812DE9F0410646086808
:107290000C46411C4FF0A0474FF0010506D005FAFF
:1072A00000F1C7F80815206803F0D5FC6068411CA0
:1072B00002D0002103F0BCFC3168A069C1F82405AC
:1072C000607D217D32680843C2F86C05D4E9001264
:1072D0003068C0F80C15C0F81425207D012815D1A0
:1072E000A068411C02D0002103F0A2FCE068411C10
:1072F00005D08540C7F80855E06803F0ACFCD4E938
:1073000002123068C0F80825C0F81015BDE8F081F9
:107310002DE9FC5FFE4D0F462E464FF0000986F822
:107320000090044600F80790FAA1FFF7B3F8002890
:107330007ED0F9A12046FFF7ADF8002879D0F8A15A
:107340002046FFF7A7F8002874D0F7A12046FFF7E2
:10735000A1F80028F8D0F6A12046FFF79BF80028F6
:1073600069D0F6A12046FFF795F800287DD0F6A158
:107370002046FFF78FF8DFF8E0834FF0010B00287D
:1073800074D0F6A12046FFF785F800286FD00822B8
:107390002146F6A0FFF7A2F8002869D0F6A1204602
:1073A000FFF778F8A5F1200A00287BD007222146B4
:1073B000F3A0FFF793F8002875D0F3A12046FFF75C
:1073C00069F8002870D00B222146F1A0FFF786F85B
:1073D00000286AD0F1A12046FFF75CF800286FD0A2
:1073E0000A222146F0A0FFF779F8002869D0F1A120
:1073F0002046FFF74FF8002871D00C222146F0A05C
:10740000FFF76CF800286BD00C222146F0A0FFF7A4
:1074100065F800287ED0F2A12046FFF73BF800284F
:1074200079D0F2A12046FFF735F8002874D003E0A8
:107430003CE03DE03EE03FE0EEA12046FFF72AF8C9
:1074400000286AD0EDA12046FFF724F8002873D069
:10745000ECA12046FFF71EF800286ED0EDA12046D3
:10746000FFF718F8002869D003E027E02AE0B6E02B
:107470002BE0ECA12046FFF70DF8002811D0ECA17D
:107480002046FFF707F80028F8D0EDA12046FFF7C7
:1074900001F8002877D0EEA12046FEF7FBFF002878
:1074A00072D0F6E04EE05AE09CE0ACE0EDA5F0E0F2
:1074B000EDA5EEE0F04DECE0F04DEAE0F04DE8E057
:1074C000B1E0B6E088F801B089E0207A222804D142
:1074D000E01910F8010C222803D0EAA130E0BCE04A
:1074E000C2E0272F2BD29C4900202A3106E00B183E
:1074F000401CC0B283F82020272803D22218527AD9
:10750000222AF4D1084480F8209093484A3001F0B0
:1075100093FF03E0ACE0AFE0BEE0C1E0DCA17C485B
:10752000FEF7D3FFE11C301DFEF7CFFFD1A1F0190C
:107530000988A0F80110ACE0BAE0C4E0C5E0D6A12B
:107540007348A4E0D2A17248FEF7BFFFE11C301DD2
:10755000FEF7BBFFD3A10988AAF8281076E0132F05
:1075600069D1D1494E46D1E90601CDE9000100209B
:107570000546072369460E54E25CA2F13007092F45
:1075800003D80F5409E0A2E0E0E1A2F14107052F82
:1075900002D8373A0A5400E001250A5C5B1C120746
:1075A000170EDBB20F54E25CA2F1300CBCF1090FF4
:1075B00002D83A44303A06E0A2F1410CBCF1050F82
:1075C00003D83A44373A0A5400E001255B1C401CBA
:1075D000DBB2C0B2132BCED30DB1B4A559E05E4DD2
:1075E0001C3556E0AAA14A48FEF76FFFE11C301D8A
:1075F000FEF76BFFABA10988AAF827109DA10988A7
:10760000AAF82E1045E00C2F15D1E07A382808D2C0
:10761000E11C3F48FEF759FF96A10988AAF82910F6
:1076200037E0A6A535E0E11C3948FEF74EFFAAA1D8
:107630002CE00B2F01D098A52BE0A07AA0F130010F
:10764000052908D2E11C3248FEF73FFF89A13048E6
:10765000FEF7FBFE1DE0A3A51BE0E11C2C48FEF796
:1076600034FFA7A1B01D12E088F80190A5A510E095
:1076700088F801B0A5A50CE0E11C2548FEF725FF20
:1076800098F8010008B1A3A100E0A3A1F01DFEF746
:107690001CFF2846BDE8FC9F88F800909FA102E0EF
:1076A00088F800B09FA11A48FEF70FFF9FA147E797
:1076B000E11C1748FEF709FF98F8000008B199A1EE
:1076C0003EE796A13CE79AA13AE79CA138E7322031
:1076D00003F0B0F8FFF7ACFC4FF0A0444FF4805635
:1076E000C4F80C6598490320C1F800074FF47A7775
:1076F000384604F5A16403F09DF8384603F09AF883
:107700002660384603F096F805F062FAC1E70000FB
:10771000584300204154000041542B56455200006C
:107720004154202F3F00000041542B48454C50004D
:1077300041542B48454C503D3100000041542B48EA
:10774000454C503D3200000041542B424C455F4CAB
:10775000494E4B3D30000000C839002041543D4E99
:10776000414D455F494E49540000000041542B4EA5
:10777000414D453D0000000041542B4E414D450018
:1077800041542B4D41433D0041542B4D414300009A
:1077900041542B424C455F5057523D0041542B42BF
:1077A0004C455F505752000041542B52465F505792
:1077B000523D000041542B52465F5057520000008A
:1077C00041542B424C455F4144563D30000000007F
:1077D00041542B424C455F4144563D31000000006E
:1077E00041542B424C455F414456000041542B52BA
:1077F000463D300041542B52463D310041542B52FE
:107800004600000041542B52465F4D4F443D4653C5
:107810004B00000041542B52465F4D4F443D4D53A9
:107820004B00000041542B52465F4D4F4400000076
:1078300041542B4138313037534C454550000000FE
:1078400041542B4F54413D4D41494E5F4D435500EE
:1078500041542B52454D4F54455F504149523D30A4
:10786000000000004F4B0A005645523D3230323185
:10787000313132320A00000098D4020040D30200B5
:107880002CD4020053594E544158204552520A00FC
:10789000424C455F000000004C454E47544820458F
:1078A00052520A003D000000E0D002004144445220
:1078B000455353204552520A000000000A65727277
:1078C000212064617461207368616C6C20626520A2
:1078D000307E370A000000003D756E6B6E6F776E6C
:1078E0000A0000000A6572722120646174612073CD
:1078F00068616C6C20626520307E340A00000000F4
:107900003D3F0A004144563D300A00004144563D87
:10791000310A00003D310A003D300A0052463D3038
:107920000A00000052463D310A0000004F4B0000A3
:1079300052465F4D4F443D46534B0A0052465F4D01
:107940004F443D4D534B0A003000005002A001F05F
:107950003FFD03A1F4E50000FFFFFFFF0000000072
:1079600052454D4F544520495320434C45415245C3
:10797000440A000070B51500044609D000202860B4
:1079800034B1206820B1A079800703D0072070BDF2
:107990000E2070BD084600F0CFFBC0B2142804D002
:1079A0002179814203D8042070BD052070BDE28892
:1079B000216800FB02102860002070BD2DE9FC4703
:1079C000002517880646158090F82D001446894634
:1079D00030B13A462146484600F048FC051E09D120
:1079E000B0784FF00C0A18B32088C846001DB84282
:1079F00002D95046BDE8FC87684679DF0028F9D1F6
:107A00002088032108F8001020881921401C80B22A
:107A1000208008F800102088401C80B2208000EBF5
:107A20000801BDF8000005F02EFA218808442080E6
:107A3000F0780222C8B1218896F9033001F1030CD5
:107A40004846BC45D5D8425421884FF0010C491C0A
:107A500089B2218000F801C02188491C89B22180A7
:107A600009F801302088401C20807068B8B1218856
:107A700090F9003001F1030C4846BC45B9D8425496
:107A800021880A22491C89B2218042542188491C3C
:107A900089B2218009F801302088401C208030897B
:107AA00050B1CDE900474B460622022106F10800FD
:107AB00005F050FA051E9DD1308A50B1CDE900473E
:107AC0004B460722032106F1100005F043FA051E7C
:107AD00090D1308B50B1CDE900474B46152214218F
:107AE00006F1180005F036FA051E83D1306A30B170
:107AF0003B462246494601F087F9051EDBD1706AF4
:107B000030B13B462246494601F09AFF051ED2D1CC
:107B100096F82C0038B13B4622464946304604F0E0
:107B2000E3FD051EC7D1307838B13B4622464946B1
:107B3000304602F01BF8051EBDD128465AE7F8B5BD
:107B400006464FF000001500ADF8000015D00923DF
:107B50006A46304600F025F80446BDF800000644A9
:107B600058B154B12846FEF78EFCA04205D12246FA
:107B700031462846FEF79CFC08B10020F8BD0120E4
:107B8000F8BD18B504460020ADF8000013466A465B
:107B9000204600F006F8002802D0BDF8000020447E
:107BA00018BD70B5E0B1DAB1002402E0045D2C44E8
:107BB000A4B2651C8D4206D21688A642F6D80619D4
:107BC00076789E42F2D18C420AD2A31C005D9BB211
:107BD00000B1401E0004000C02D01C188C4201D9D8
:107BE000002070BD138070BD2DE9F0418AB00646BB
:107BF0000020ADF814001346102088468DF80400CC
:107C00000D4606AA01A9184664DFA6B398BB9DF8E5
:107C10000400022804D0042807D0102839D10DE030
:107C200003208DF81000022003E005208DF81000DD
:107C300004208DF81100002404AF0FE007208DF818
:107C400010000620F5E73B5D05AA41463046FFF7E8
:107C5000A8FF641CE4B20546022C04D2BDF814004F
:107C60000028F0D003E0BDF81400002812D080B244
:107C7000064400240BE00CE030199DF8042006A90E
:107C8000FEF716FC48B19DF80400204484B2AC42D3
:107C9000F2D300200AB0BDE8F0810120FAE780F8B5
:107CA000301070472DE9F0410D00044606D02CB18C
:107CB00095F87A000026012803D006E00E20BDE8E2
:107CC000F08195F89800012829D0D5F8A000042863
:107CD00025D0D5F89C00042821D04FF00108A670CB
:107CE0002C2205F17801201DFEF78BFB84F8306013
:107CF000D5F8A4006063D5F8A800A0634FF6FF7024
:107D0000A4F8240404F58260C4F82004C4F82664AE
:107D1000A4F82A6484F82C64207810B104E00720C9
:107D2000CDE7FF2084F8540004F155072046C4F83D
:107D30001074FFF7A2F8A4F8140404F214423946B0
:107D40002846FFF73BFE0028B9D104F23120C4F8E1
:107D500018042046FFF791F8A4F81C0404F21C4212
:107D600005F13C00D4F81814FFF728FE0028A6D12E
:107D700084F85180208BA4F8480084F83C80266465
:107D800084F85060606900216064454604F13C025B
:107D9000781E72DF002892D1257090E710B5028816
:107DA000102A1BD0112A20D0262A1DD1007A0C4679
:107DB000012801D0022817D1A0780521401CB0FB72
:107DC000F1F201FB1201204600F01DF800280BD053
:107DD000A16B002908D0BDE810400847C27B012AEA
:107DE00002D18088A1F8240410BD0C46002184F83B
:107DF0002E148088B4F824148842F5D12079002804
:107E0000F2D10121DFE72DE9F05F044600780F464B
:107E100098B1A7700025C4F82654A4F82A5484F811
:107E20002C54A079012608B1012F09D0E07980B146
:107E3000012F05D0022F03D00BE00820BDE8F09FF2
:107E4000616B21B184F82D640820884701E084F833
:107E50002D5404F2274100200A5C0AB1304603E0A9
:107E6000401C0628F8D300204FF002084FF0030B07
:107E7000012F06D0022F0CD0032F0FD0042F15D1C5
:107E800010E0A17929B194F8241011B908B1304655
:107E90000DE0E17911B108B1404608E0207A08B15F
:107EA000584604E0607A08B1042000E02846A0703B
:107EB000616B41B1032801D0042804D1607910B16D
:107EC00094F82E0498B184F82F5404F13C00182142
:107ED0000746FEF7AFFA84F83C6004F12C0003F08B
:107EE000F1FF58B194F82C0084F8510008E084F8B0
:107EF000305484F82F6407208847E6E784F85160FF
:107F000094F8240058B104F1280003F0DBFF20B1FD
:107F100094F8280084F8520001E084F8526084F854
:107F20005050A27804F2264104F582694FF0060A07
:107F3000052A64D2DFE802F07C030F22420084F8B5
:107F40003160C4F82054C4E9101584F83C808020C6
:107F5000A4F8480055E084F8318094F8242038468D
:107F600012B10722027001E080F800B0228A8281FB
:107F7000C4F820544160E168B96042E06069B860CB
:107F8000208BB88194F824003D460028204602D07A
:107F900084F83CA001E084F83C6004F0BDFF50B1DF
:107FA00085F814800421204601F0D7FA38BB05215A
:107FB00084F8311021E084F831B01EE0E069B86047
:107FC000208CB88194F824003D460028204602D039
:107FD00084F83CA001E084F83C6004F09DFF48B1C7
:107FE00085F814800421204601F0B7FA38B984F8E6
:107FF00031A002E0042084F83100C4F82094A07875
:1080000078B13A4604F15400D4F8201472DF002805
:108010007FF414AF94F8301094F8540073DF002804
:10802000F6D1616B11B194F831008847002005E763
:1080300084F83150F5E7000038B50446011D00888A
:108040001F282ED00BDC102813D0112836D013286F
:1080500034D10023A0881A4685217FDF1BE0212828
:1080600023D03B282BD0562828D1A088132176DF97
:1080700011E0A1880022144800F0BCFA08B1FEF714
:1080800045FF072000F058FD08B1FEF73FFFA1882B
:108090000E4800F0D7F8002810D0BDE83840FEF7B1
:1080A00035BF31F8040B75DFF5E700200090A0889C
:1080B00069468FDF002801D0FEF728FF38BDA08871
:1080C000132176DFE7E70000B8430020343A0020B0
:1080D00070B5040012D001461C221448FEF791F935
:1080E0001248134D0560206850B17ADF002806D190
:1080F0002068016829604068686005E00E2070BD56
:108100000B487BDF0028FAD108484FF6FF7114387E
:10811000084A20F8041B0549343901600021FEF7A4
:108120002FFF0028EBD0032070BD0000AC4B0020D7
:1081300074400020B1CE020010B5044600F018F8DB
:1081400008B1204610BD142010BD000070B50546D2
:10815000002400F00DF838B12946044801F017FE5C
:1081600008B1022400E00124204670BDD44B002059
:10817000142801D3002070470146014801F007BED2
:10818000CC4B002070B540B10C4D297839B1044674
:1081900004F056F828B1002070BD0E2070BD0820F4
:1081A00070BDE868062807D20549226801EB800106
:1081B000401C0A60E860EEE7042070BD64400020C7
:1081C000604B002010B558B103684BB142683AB11A
:1081D000044900200124C8600C70C1E9013210BDBF
:1081E0000E2010BD64400020002827D0002925D093
:1081F000134A1278002A21D00A460188112911D089
:10820000302907D0322909D0332917D1011D104652
:1082100003F022BD011D104603F08BBD011D104669
:1082200003F058BC8088B2F8CA12884206D10020F8
:1082300082F8C8024FF6FF70A2F8CA027047000029
:108240006440002048B1084A137843B1D26832B183
:1082500090F8C8222AB1112070470E2070470820DC
:10826000704700F047BF0000644000207CB5054621
:1082700008880C460930904201D90C207CBD684624
:108280006DDF0028FAD121880820685420881B213E
:10829000401C80B2208029542088401C80B220805D
:1082A0002844DDF801100160BDF8051081802088A8
:1082B000801D80B220809DF80010490800D0012167
:1082C00029542088401C208000207CBD70B50446C5
:1082D0000D468088FFF73AFF01280CD02188262917
:1082E00009D0022801D01D290BD129462046BDE81E
:1082F0007040FFF7A1BE29462046BDE8704000F05F
:1083000077BB70BD10B51A4C0188606810290ED07B
:1083100011292BD1401E606028D1FEF7B6FD002840
:1083200024D02168002921D0BDE810400847D0B9E9
:1083300000210122084600F0DDFB08B107280FD11B
:1083400007220221012000F0D5FB08B1072807D140
:1083500004220221002000F0CDFB20B1072802D02A
:10836000216801B188476068401C606010BD000052
:108370005C4000202DE9F04701883B4E40F2F319A4
:108380004FF6FF7510291BD011293ED0122954D069
:10839000502946D1C188F289841D914241D1618919
:1083A00002293ED18688304601F086F9050038D092
:1083B00004F10C0000F084FBA8B3294630464EE0DF
:1083C000C17B8788044601292BD1A846284601F0A5
:1083D00073F9050017D02F800020287223484346E8
:1083E0004A460168C5F80A104068C5F80E0004F155
:1083F000100105F10A0001F0B5F96872F089002852
:108400000FD129462AE0042013E0808801F054F9B6
:10841000040006D06068FEF705FE08B104F05CF9C0
:108420002580BDE8F087FFE76868FEF7FBFD0028C0
:10843000F7D0BDE8F04704F04FB9878806463846C4
:1084400001F03AF90400ECD02B464A4606F1080147
:1084500004F10A0001F086F9607221463846BDE851
:10846000F04700F017BD0000AC4B00207440002026
:108470002DE9F04F044686880188424897B083462C
:1084800010290CD0112950D0103019296AD01A297E
:1084900074D1217A0C09042C4DD301224CE0394DC2
:1084A000083DA868C0430B9069680BA801F087FCE1
:1084B0000B990CA800F089FC2C220CA96846FDF74A
:1084C000A0FF0027E946A84610E000BF09EB4700DF
:1084D0005FF00005B0F804A008EB85005146001DD0
:1084E00001F04AFC6D1C1E2DF6D37F1C0098B8428B
:1084F000ECD8142E05D317B00420BDE8F04FFEF7DA
:1085000005BD3146584601F04DFC314608F10400E6
:1085100001F048FCE07B022830D117B03146BDE8BD
:10852000F04F1848001D01F03DBC17B03146BDE8C2
:10853000F04F01F021BC0022314601F009F8032C74
:1085400001D3012200E000220E4831460C3000F039
:10855000FFFF022C01D3012200E00022094831462E
:10856000083006E0217A002908D1617AC1F3C002FF
:10857000314617B0BDE8F04F00F0EABF17B0BDE8D4
:10858000F08F0000D04B002070B50446087838B159
:10859000012818D0022829D1BDE8704004F02EB877
:1085A000488801F10E020146204600F023F808B188
:1085B000FEF7ACFC204600F007F9002816D0BDE815
:1085C0007040FEF7A3BC0A488E898D6800780028A9
:1085D0000CD0002408E0285DFEF7AAFD18B1112890
:1085E000F9D0FEF793FC641CB442F4D370BD0000D4
:1085F000C839002050B141802AB15388C380138804
:10860000838092880281406901F03ABD0E20704754
:1086100030B5154B0D4604000FCB85B08DE80F002B
:108620001FD0F5B1A868E0B12146684662DF002896
:1086300015D120788DF812004FF47F40ADF810006E
:108640004FF6FF7060802868E06068682061002055
:10865000A0802081A868606104A8FFF793FD05B0A1
:1086600030BD0E20FBE70000DCD1020030B5024631
:1086700085B008002DD0002A2BD041884FF6FF741A
:10868000A14226D09388994223D11588112D14D068
:10869000392D1ED1818800291BD053898B4218D1D6
:1086A000C168002915D001218DF8001002F11001D8
:1086B0000291D189ADF80C1008E08B4209D1C16854
:1086C000002906D002218DF800104480C268694656
:1086D000904705B030BD000070B586B00C46054629
:1086E00014216846FDF7A6FE207804F10E0100284B
:1086F00033D1A088B0F57F4F2FD1A0792A7890424E
:108700002BD100226FF47F4317E000BF02EBC200C1
:1087100031F81060F61807D0012E0DD101EB4000A2
:108720000089ADF8120007E001EB40000689ADF8C2
:108730000E604089ADF81000521C207A9042E5D8B6
:10874000E868002809D06088ADF8020000208DF8A4
:108750000000EA6869462846904706B070BD0000F0
:1087600070B588B015460E46040008D02021684632
:10877000FDF760FEF42D04D9072008B070BD0E206F
:10878000FBE76088A0F57F41FF3919D00D49CDE99D
:10879000021401208DF800002189ADF81210ADF807
:1087A00016500021ADF8141002218DF81010069615
:1087B0008DF8110062886946606901F099FCDCE778
:1087C0000820DAE79395020010B58AB058B34188C3
:1087D000A1F57F42FF3A28D0C18831B30446202159
:1087E0006846FDF727FE01218DF8201000208DF846
:1087F00021000F4ACDE902248DF80010E288ADF87F
:1088000012200222ADF81620ADF814008DF81010D9
:1088100008A88DF81110069062886946606901F019
:1088200067FC0AB010BD0E20FBE70820F9E7000046
:1088300093950200F0B585B016460F4604001D461C
:1088400014D004AA19466069FFF794F800280BD1E8
:10885000A5F57F40FF380BD0049848B1007848B1A7
:108860003088F42808D9072005B0F0BD0E20FBE7BA
:108870000520F9E70820F7E700200090019002901A
:108880000390A088ADF8000001208DF80200CDE92A
:10889000026769462846AEDFE6E7000070B5354D51
:1088A00004008EB02DCD08AE86E82D005FD0E9B370
:1088B0000868A061214608A862DF002855D1207809
:1088C0008DF832004FF6F070ADF83000A21C0CA904
:1088D0000120A8DF002848D120216846FDF7AAFD25
:1088E0004FF6F270ADF80000207801258DF80200F7
:1088F0008DF80C509DF80D00F426ADF8046040F0A2
:108900000C008DF81150ADF806508DF80D008DF863
:108910001250608804F10C02694600F01BF900282F
:1089200023D120216846FDF785FD00E01FE04FF6CA
:10893000F170ADF8000020788DF802008DF80C5031
:108940009DF80D008DF81150ADF8046040F0100056
:108950008DF81250ADF806508DF80D008DF81350BB
:108960006088221D694600F0F5F80EB070BD0E203B
:10897000FBE70000ECD1020070B588B00446002986
:1089800027D0002C25D008462188102923D0502933
:1089900027D057291DD10546A188406906AAFEF7B0
:1089A000E9FF002815D1069E3078002811D0A8696B
:1089B00000280ED018216846FDF73CFD01208DF8F7
:1089C00000000195A088ADF808000396A9696846E3
:1089D000884708B070BD08B02146BDE8704003F07C
:1089E00005B908B02146BDE8704003F029BA00007F
:1089F000F0B5314D044600880026AF8889B03B2889
:108A00003ED011DC102819D0112829D013282BD0E2
:108A1000212807D10096A08869468FDF002801D061
:108A2000FEF774FA09B0F0BD50282DD0522821D09D
:108A30005628F7D1A088132176DF0AE0072000F03E
:108A40007BF808B1FEF762FAA188A9801B4801F003
:108A5000CFFB0028E6D009B0BDE8F040FEF756BADB
:108A60004FF6FF70A880DDE700231A4685213846BF
:108A70007FDFEEE700231A4619463846B1DFE8E704
:108A8000A088132176DFE4E72089B0F5285FC9D1FB
:108A9000228A022AC6D904F112016846FDF7B1FC08
:108AA0009DF800007B28BDD2208A0DF80060684642
:108AB00000F0C2FCB6E70000C8390020684400207E
:108AC000007800F0010070470149085C7047000021
:108AD0002CD1020010B5002000F030F808B10628B3
:108AE00006D1012000F02AF808B1062800D10020A4
:108AF00010BD000070B50023042810D20D4D00EB0E
:108B00004004012A02D101290CD00022094E00EBB9
:108B10004000304461B1012906D0022906D0072364
:108B2000184670BD0E30C2B22A55F9E74270F7E719
:108B30008270F5E7544B002000207047012104F0BB
:108B400078BA00000249084490F9300070470000EC
:108B5000584C00202DE9F0438146887891B090462A
:108B60000C4600B901208DF83E002088ADF83C008D
:108B700000250095607C694603F0FAFD6E46A07CF6
:108B8000711C03F0F5FDE07B00289DF8020002D087
:108B900040F0080001E020F008008DF80200217C80
:108BA00011B140F0100001E020F010008DF802003B
:108BB000217B11B140F0010001E020F001008DF8AF
:108BC0000200217D09B1022100E0012161F3420090
:108BD0008DF802001C2102A8FDF72CFC607BC10669
:108BE00001D4800617D50E950EAFE07C791C03F0FA
:108BF000BFFD9DF83800079720F00F00401C20F0C3
:108C0000F00010308DF838009DF83A0020F0060092
:108C1000801C8DF83A00607B8DF80800A07B8DF8F1
:108C20000900142109A8FDF705FC0FA8CDE90906E4
:108C3000A088ADF83000A06820B1E088ADF82C0025
:108C4000A0680D90A06998B301950088ADF8100058
:108C5000A06901AD01A94088ADF81200A069406883
:108C600006950390A069007B03F082FDA069691C52
:108C7000407B03F07DFDA069807A00289DF8060006
:108C800002D040F0080001E020F008008DF8060056
:108C9000A169C97A11B140F0100001E020F0100084
:108CA0008DF80600A169097A19B140F0010002E0CF
:108CB0000DE020F001008DF80600A169897B09B163
:108CC000022100E0012161F342008DF80600E06915
:108CD00000B10590434609AA02A94846AADF11B08F
:108CE000BDE8F08330B589B00D46044620216846C2
:108CF000FDF7A0FB94F8C602002300EB8001C1EB56
:108D0000801094F8C51204EB400041B1491EC9B26D
:108D100001EBC10100EB4101498A491C00E0C18817
:108D2000008961F30F0360F31F4303208DF80000F7
:108D30000548CDE90204054804932A46694680683F
:108D400001F0D6F909B030BDA590020064400020C2
:108D500070B5084C050009D010342168002907D0EF
:108D600008682060496828468847F6E70834F4E731
:108D700070BD0000444C0020054A012120B10128AB
:108D800005D19170FFF7E4BF51700020FAE77047FA
:108D9000444C002010B5D0E90234D1E90220D11AA8
:108DA000A04101D3012010BD002010BD10B5024626
:108DB0000020138806E0546834F810408C4203D039
:108DC000401C80B28342F6D810BD73B58CB0064605
:108DD000002000900D9880B100246D4621460DA81A
:108DE00000F0D5FF30B1009805EB4000848000987A
:108DF000401C0090641C142CF0D32C226946304691
:108E0000FDF7FFFA0EB070BD2DE9F0411788064658
:108E1000B81D14460D46984202D90C20BDE8F081D9
:108E20003188072206290AD34FF4486C4FF6FF73A6
:108E3000614501D9994202D17088062801D21046B5
:108E4000ECE7604501D99842F9D1994203D09842A4
:108E500001D08142F3D80520E85520881221401C1A
:108E600080B2208029542088401C80B22080411983
:108E7000308804F008F82188084480B22080411925
:108E8000708804F000F82188084420800020C5E79D
:108E9000FEF73CB838B54A7A0F4B62B100220A722D
:108EA0005969002906D001228DF80020ADF8020092
:108EB0006846884738BD0A7A62B19B684C680246AA
:108EC00019462046FEF796F80028F3D0BDE8384052
:108ED00003F002BC5B68F1E7AC4B00201FB5002239
:108EE0000092ADF800100192ADF8021002920392C8
:108EF00002AA694690DF04B010BD00000146014897
:108F0000FFF7EABBB84300202DE9F04389B00F46D4
:108F10000546914620216846FDF78CFA95F8C60271
:108F200095F8C54200EB8001C1EB801005EB4006CF
:108F300004EBC40006EB40013279601C0A31904218
:108F400032D108AB0022284600F02EFC78B310E0A6
:108F5000401EA04201D1002004E004EBC40006EB57
:108F600040001C308046024608AB284600F01CFC3E
:108F700090B10020387004208DF8000008984A460F
:108F8000CDE903500C4802900C486946806801F016
:108F9000AFF809B0BDE8F08395F8C5024146401C22
:108FA000641C85F8C502E4B23079A042D0D8012013
:108FB00038700020EDE70000A5900200644000201A
:108FC00030B59FB00C4605467C216846FDF732FA65
:108FD000ADF8024003208DF8000004480195416877
:108FE000002901D0684688471FB030BD644000208A
:108FF0002DE9F041044690F8C602884600EB800156
:10900000C1EB801004EB40061746304603F018F918
:10901000050042D0D4F8CC0206283ED204EBC010A2
:109020007622A0F8D272D4F8CC02314604EBC010FC
:1090300000F53570FDF7E5F90026B8F1000F06D010
:10904000D4F8CC0204EBC01080F8D06206E0D4F86B
:10905000CC12022004EBC11181F8D002D4F8CC026A
:1090600004EBC010C0F84C53D4F8CC020C4D401C9B
:10907000C4F8CC02E96888420FD12746002407E0F3
:1090800007EBC41101F53470D1F84C138847641C08
:10909000E8688442F4D3C7F8CC62BDE8F0810000F0
:1090A00064400020F0B515469FB0002281F8C82228
:1090B000074691F8C6020C4600EB8002C2EB801016
:1090C00001EB400003F0BCF8060009D07C220849FF
:1090D0006846FDF796F9ADF8025068460197B0472B
:1090E0001FB029462046BDE8F040FFF769BF0000E9
:1090F00030D10200F0B50D4689B004464FF4BA6194
:10910000FDF798F920216846FDF794F9154E294698
:10911000B06800F0B5FF002821D1A4F8CA52C4F805
:10912000CC0284F8C70284F8C60284F8C5020E484F
:1091300001272A460068206002208DF80000ADF863
:1091400010702068CDF812000848CDE90204694685
:10915000B06800F0CDFF002801D184F8C87209B0D2
:10916000F0BD000064400020604B0020A59002008C
:109170004FF480328A400168C1F848230068C0F883
:10918000082370474FF4A07202EB810189B200F00E
:10919000C2B92DE9F04105460E464FF4A07000EB30
:1091A000860081B228684FF48034B440984622F09B
:1091B0007F47C0F808432868C0F84843286801F092
:1091C000C8FE286800EB8600C0F840752868C0F823
:1091D0004443B8F1000F02D02868C0F80443BDE84A
:1091E000F0810068D0F804057047000010B543799D
:1091F0001C4C44F823204279231D03EBC202127950
:109200000AB1082010BD02680C88C2F8084590F920
:1092100004208978002A4FEA411104DB02F1E022A0
:1092200082F8001405E002F00F0202F1E02282F859
:10923000141D90F904100122002909DB01F01F041C
:1092400002FA04F44909890001F1E021C1F8004162
:10925000417903EBC1010A71417943F831000020E3
:1092600010BD0000E040002090F90400002809DB58
:1092700000F01F02012191404009800000F1E02030
:10928000C0F8001270470A46022100F03BB94FF4C3
:10929000827100F040B900680121016070470068E8
:1092A0000121416070472DE9F05F07460C464FF4FD
:1092B000A07000EB84001FFA80FA38684FF4803603
:1092C000A6409B4622F07F45C0F848633868C0F846
:1092D00008633868D0F8048500EB8402D2F8409522
:1092E000C2F840855146386801F033FEA9EB08000A
:1092F00020F07F40012806D1102002F01FF85146CF
:10930000386801F026FE3868D0F80485C0F8446358
:10931000A5EB080121F07F413868012900EB8400AA
:1093200010D0C0F840553868D0F804156FF07F4C65
:109330006A1A521E22F07F42ACEB0B03934217D302
:1093400062B118E06D1CC0F84055102001F0F6FF26
:109350003868D0F8040540450AD10CE000EB8400E1
:109360006D1CC0F840553868D0F80405884202D01A
:109370000D20BDE8F09F01223146384600F0C2F8CA
:109380000020F6E72DE9F843104D0F4680461E46B3
:1093900091466946286800F0C3FC040014D01C21E3
:1093A000FDF748F801202071C4F81490380BC4F878
:1093B0000080C4E902606946286800F0D2FC02F02F
:1093C000C3FE0020BDE8F8830420FBE708D20200BA
:1093D00038B50446144800230122C16801F0C8FAD8
:1093E00008B1FDF793FD202221461048FDF709F84A
:1093F000202221460E48FDF704F80C49402201F2D4
:109400002660FCF7FEFF00200090094840232A3820
:10941000084A0169044801F099FB002803D0BDE81F
:109420003840FDF773BD38BD004100207643002071
:10943000F23900209C49002038B505461848002321
:109440000122C16801F094FA08B1FDF75FFD2846DA
:10945000FDF719F8C4B21C2C00D91C242246294659
:109460001048FCF7CEFF0F480E4920382044002555
:1094700080F820502039402201F22660FCF7C1FF1D
:109480000A48009540230169074A054801F05EFB40
:10949000002803D0BDE83840FDF738BD38BD0000D6
:1094A00000410020964300209C490020C83900203C
:1094B00030B50446006887B00D46806800281FD08C
:1094C00018216846FCF7B6FF0195A0680590207941
:1094D00010B1012810D107E001208DF800002069AB
:1094E0000290E068039005E002208DF80000E0683B
:1094F000000302906069049020688168684688478C
:1095000007B030BD0368C3F84413002A02D00068D6
:10951000C0F80413704710B5006842581AB101F042
:1095200018FD012010BD002010BD826883881A40FC
:1095300003689A5C0A708168491C81607047C26840
:1095400083881A4003689954C168491CC1607047F8
:109550000AB100F027BC00F00FBC70B50D46044600
:10956000B0F81414D0F810040122FEF70AFB00B181
:10957000057004F13C0204F5826104F1540072DFCD
:1095800070BD10B50446C0B2FDF7D2FD204610BD37
:1095900070470969002900D0084770470888A0F57E
:1095A0002062773A03D188880149C01E48807047FD
:1095B000C839002010B50949094800F077FC08B106
:1095C000FDF7A4FCF721064800F064FC002803D056
:1095D000BDE81040FDF79ABC10BD00009D9502004B
:1095E000D043002070B50D4601F11004C98A10293E
:1095F00001D9092070BD01F071FB686030B1E288CB
:109600000023A16801F0BDFB002070BD042070BDE7
:1096100070B50D4601F1100489690988102901D936
:10962000092070BD891C01F059FB686068B10023F6
:109630000222A16801F0A5FBA068E168022302886C
:10964000686801F09EFB002070BD042070BD000022
:1096500010B50B48FFF7C5FD094A083AD2E90434B2
:10966000C018D2E9063244F10001C31A71EB0202BC
:1096700004D24FF08072801841F1000110BD00004B
:10968000A840002010B50A4941600A4800F094FB48
:1096900058B901F06FFD07491C238C220874044857
:1096A0008C39001F006800F028FB002010BD00006E
:1096B0000CD20200A04D00200146034802888A42D5
:1096C00000D0002070470000984B002070B50D4678
:1096D000044600684FF4887101F0E5FD4FF4907185
:1096E000206801F0E0FD4FF49271206801F0DBFD8D
:1096F0004FF4A271206801F0D6FD4FF4AC712068E0
:1097000001F0D1FD20681249C0F8041320686907F0
:1097100040F30730090E002804DB00F1E02080F858
:10972000001405E000F00F0000F1E02080F8141DA7
:10973000206840F30730002809DB00F01F020121F8
:1097400091404009800000F1E020C0F8001170BD98
:10975000100342000248007A002800D00120704720
:10976000A04D0020F0B58488A518944200D8224668
:10977000A41AC288D6189A4200D81346D21A4B8827
:109780000788BB420CD34088834209D88888A0420E
:1097900006D3A84204D8C888904201D3B04201D968
:1097A0000020F0BD0120F0BD10B509892AB1D08894
:1097B000491C814218D1002010BD90F8C62202EB4E
:1097C0008204C4EB821200EB420212899142F2D071
:1097D000491C198090F8C61201EB8102C2EB81117D
:1097E00000EB4100008902E01980D088401E5880BB
:1097F000012010BD90F84000C0F3C100012803D043
:10980000032801D00020704701207047F721018014
:1098100017214180002101714171FB2181711B21C0
:10982000C1717047ACB0FDF7B7FB08B1FDF76EFB37
:1098300003F0CEF96A4D6948CDE900050024684679
:10984000FEF7C0FC08B1FDF761FB01F0A3FA08B117
:10985000FDF75CFB01F042FC08B1FDF757FB6946E0
:109860000120009401F086FB08B1FDF74FFB68462C
:1098700001F0D0FB08B1FDF749FB00F053F902F00D
:10988000B5FC9DF8080020F00F00401C20F0F0000F
:1098900010308DF8080053480646FCF7F4FD82B2FC
:1098A000314602A87CDF08B1FDF730FB00941020A0
:1098B000ADF8000050200194ADF80200ADF804406E
:1098C0004FF4C870ADF8060068467ADF08B1FDF7BE
:1098D0001DFBFFF76FFE4448019001A9434800F0CB
:1098E00092FC08B1FDF712FB414800903C486946E4
:1098F0001430FEF7D3FF08B1FDF708FBAC21684632
:10990000FCF798FD02208DF800008DF8024005203C
:109910008DF803000120ADF84C0032498DF87C0031
:10992000402042392290149144F2506023903148F3
:1099300029902E4869460C30FEF7B4F908B1FDF7BE
:10994000E5FA2A4801210C30FEF7A9F91C216846E6
:10995000FCF770FD4FF4A030CDE900404FF4F0204B
:10996000029003208DF80C002348059023480690B0
:10997000ADF80E408DF810406846FEF7A9FB08B11F
:10998000FDF7C4FAFDF79CFA1D4800901D48CDE98B
:10999000010516486946B038FEF73AFE08B1FDF7F2
:1099A000B5FA02F0E9FD642000F044FF16A0FCF7D0
:1099B000EFFF18A0FCF7ECFF02F020FE1E4A012189
:1099C0001E48FDF7DDFA1D480022001F10214068E7
:1099D000FDF710FB01F0F2F9FCE70000FD8E02003C
:1099E00004400020123A00204FAF020068440020DB
:1099F00051BA0200B1BA0200D1BB0200918E02003E
:109A00008985020093BA02000F0F0F0F0808810426
:109A100000000000424C4520554152542063656EC1
:109A20007472616C206578616D706C65207374610F
:109A3000727465642E0D0A007DC80200E4D0020035
:109A400070B5144682880E4605462088111D0144D3
:109A5000921C994201D8FE2A01D90C2070BD521CDB
:109A600032542088FF21401C80B22080315420884D
:109A7000401C80B220808119288803F004FA2188D4
:109A8000084480B22080AA8842B1A96841B130441C
:109A9000FCF7B7FC2088A98808442080002070BD0E
:109AA000072070BD2DE9F047C5881E1DB6FBF5F7F0
:109AB0008946B6FBF5F1044605FB176C407916683C
:109AC0006843DDF820A0F718001F874200D9C61AA6
:109AD000166001E02468491E0029FBD1A5EB0C07A4
:109AE0008846B74216D818E004EB0C00001D09EBBD
:109AF0000803BAF1000F3A4602D00146184600E0CA
:109B00001946FCF77EFC2468F61B4FF0000CB844A5
:109B1000B54201D9374600E02F46002EE4D1BDE81A
:109B2000F087000070B50F4C0D48A06100F0CCF834
:109B30000D4DA0F58050E86000F0C6F8401E286189
:109B400000F0C2F84038206100222846A16900F0E8
:109B500036FF002803D0BDE87040FDF7D7B970BDCF
:109B600018D20200C839002000410020F8B50F4685
:109B7000017814460546012901D1687830B1208862
:109B8000821C9A4232D8012902D006E00720F8BD93
:109B900069780144891C994228D8181A801E86B217
:109BA000ADF800602188B81C084469467DDF0028B4
:109BB000EDD12978022904D06878BDF800209042C0
:109BC00005D3BDF80000B04201D809200AE0082002
:109BD000012905D16978B14202D8ADF8001001E041
:109BE000ADF80060BDF80010FE2901D90C20F8BDC9
:109BF0002288491CB9542188491C89B22180785493
:109C00002088401C2080BDF80010084420800020DF
:109C1000F8BD00004FF08050D0F830114A1C05D03C
:109C2000062906D00F2904D0002070470248017889
:109C3000F6E7012070470000E00F00F04FF0805081
:109C4000D0F830114A1C05D0062906D00F2904D0BF
:109C50000020704702480178F6E7012070470000B5
:109C6000E00F00F04FF08050D0F830114A1C05D0C2
:109C7000062906D00F2904D0002070470248017839
:109C8000F6E7012070470000E00F00F04FF0805031
:109C9000D0F830114A1C06D0D0F8340106290AD079
:109CA0000F290BD00CE007480178064808300078EF
:109CB000C0F30310F2E7C01E012801D9012070474C
:109CC00000207047E00F00F040F6F8700068411C7B
:109CD00002D14FF0102040694FF080510A69496964
:109CE000431C01D101FB02F0704710B5FCF7DDFA0F
:109CF00008B1002010BD112010BD10B531B1B2FB6C
:109D0000F3F403FB14241CB1092010BD0E2010BD78
:109D100001600021416081608281C381084610BDDD
:109D200070B50C460546FCF775FA002802D021886C
:109D30002868084470BD10B50A8849888A4203D152
:109D4000FCF7AAFA012010BD002010BD70B50C462A
:109D50000546FCF784FA002802D061882868084488
:109D600070BD10B50A8849888A4203D1FCF76EFAA3
:109D7000012010BD002010BD01F01F0301229A40F8
:109D8000D243490900EB8100114600F018B84A0996
:109D900050F8220001F01F0201219140084000D03C
:109DA0000120704701F01F0301229A40490900EB8E
:109DB0008100114600F00EB8012100F006B808B588
:109DC0006A46FCF7A4FA009808BD08B56A46FCF795
:109DD00091FA08BD08B56A46FCF78CFA009808BDF0
:109DE00038B5044600258DF800506846FDF7CAF9DD
:109DF00021686268086890420ED9401E08600178A8
:109E0000238AE26801FB0325227A2168101AC0B276
:109E10000A79824200D208719DF80000FDF7D6F958
:109E2000284638BD38B5054600208DF800000C46A0
:109E30006846FDF7A7F9E868298A201AB0FBF1F116
:109E40002A681068431C136001709DF80000FDF73C
:109E5000BDF938BD10B530B1017A42680368891A7E
:109E6000C9B21A6006E00E2010BD03681A68541CBF
:109E70001C601170491EC9B2F7D20068002101713F
:109E8000084610BDC20800F007030120895C984015
:109E90000840704728B1A1F11702E12A03D3072037
:109EA00070470E20704741800020704770B5040055
:109EB00010D0F720A16120806080FB202071002558
:109EC00004EBC500801DFFF7A1FC6D1C022DF7D32C
:109ED000002070BD0E2070BD2DE9F04785888EB042
:109EE0000C462E46022D7DD20188DFF89091002786
:109EF0004FF0010A242976D006DC102909D0112957
:109F000034D0232931D1AFE03A2935D055292CD18D
:109F100054E004EBC608217988F80C10C07B08F1E6
:109F20000608012802D0022805D101E0208800E0BF
:109F30006088A8F80000B8F80010B8F80200814264
:109F40000AD93046A5DF10B1112803D004E088F803
:109F500005A001E088F804A098F8061098F807001A
:109F6000814271D93046FEF7B9FF6DE004EBC600BF
:109F7000801DFFF74BFC67E0314604EBC1064089CA
:109F800036F8062F824200D810467080172800D27B
:109F900017207080A06970B1707960B1D9E9002094
:109FA000CDE90020ADF802107088ADF80400A26978
:109FB0002046694690477771377145E0C08804EBC9
:109FC000C60808F10608172800D21720B8F80010B4
:109FD000814200D80846A8F8020088F80470B8F852
:109FE000001001E03DE014E03046B5DF98F80500D0
:109FF00050BBA06940B3D9E90210CDE90010ADF81B
:10A000000260B8F80200ADF8040020466946A26973
:10A0100019E0011D2C226846FCF7F3F9BDF8000099
:10A02000BDF8042004EBC0014A73A26962B1D9E90A
:10A030000432CDE90B32ADF82E00487B8DF83000AC
:10A04000A26920460BA9904704EBC504A07A00281A
:10A0500007D0E1882846A5DF002802D1A77284F83E
:10A060000BA00EB0BDE8F08704EBC602017A107BAE
:10A070008842BFF477AF014674E70000ACD102001C
:10A080002DE9F0410F4604004FF000050DD002F01D
:10A0900079F839462046FEF789FE218881421ED193
:10A0A000002005464FF6FF7609E00E20BDE8F0815E
:10A0B000626832F81020B24206D1401C80B2814260
:10A0C000F6D8206900F053FE002021880BE062687A
:10A0D00032F81020B24204D1616821F8107028468D
:10A0E000E4E7401C80B28142F1D80420DEE70000A2
:10A0F0002DE9F04791460D4604004FF0000742D08D
:10A10000EDB302F03FF849462046FEF74FFE2978AE
:10A11000062902D22188814202D10720BDE8F087BA
:10A12000A16800EB800601EB860000F098FE30B1DC
:10A130004946284602F0AFF808B13846EEE72978DC
:10A14000DFF8488058F821202AB12069B8B12946A3
:10A1500090470028E2D1A068294600EB860000F075
:10A160009DFE070006D0297858F8210010B16868D4
:10A1700000F0E4FDA068494600EB860000E002E044
:10A1800001F022FFD9E70E20C8E70000C4D1020089
:10A19000F8B505000C4620D0002C1ED028881128C8
:10A1A00006D0A0F130011F2902D950381F2814D839
:10A1B000AE8820463146FEF7F9FDADF80000218853
:10A1C00081420AD02988112908D0A16800EB8000BB
:10A1D00001EB8000314601F0F7FEF8BD62684FF6F2
:10A1E000FF7122F810106946E06800F057FEF8BDD4
:10A1F00020B10278DE2A03D0082070470E20704775
:10A2000041800020704760B159B10278DE2A0AD03F
:10A2100009684160DE2101704FF6FF714180002026
:10A2200070470E207047082070477FB5054600290B
:10A230004DD0002D4BD008780C46DE2847D1A88899
:10A240006188884202D1204602F072FE28880128E7
:10A2500025D002283BD011283AD0512837D135F8E3
:10A26000040F6188884232D1A978A81C02292ED116
:10A27000017A042903D0062901D0052927D100211C
:10A28000009102228DF8002001914FF4C0720291DA
:10A290000391ADF80420007A05280FD010E0297A48
:10A2A0002046012913D1A988428891420FD101216A
:10A2B000017204B0BDE8704002F03ABEADF804107F
:10A2C00028886946B0DF002801D0616888477FBDD3
:10A2D000A88861888842FAD14FF6FF7060807FBD00
:10A2E0002DE9FC4100F12205EC1D0E46207810B14D
:10A2F0000420BDE8FC810027C7EBC70028440622E4
:10A300003146401CFCF7D4F80028F2D07F1C17F02F
:10A31000FF07F1D000206946C0F10502B25C0A5483
:10A32000401CC0B20628F7D3084600F023F843F2D9
:10A330000221884201D10846DBE72178C1EBC10147
:10A340006A5C60F347026A5400202278315CC2EBF9
:10A35000C2022A440244401CC0B251700628F4D301
:10A360000020401CC0B20628FBD32078401C20707F
:10A370000020BEE70078800908D0012808D0022814
:10A3800003D0032806D043F2022070470320704711
:10A3900000207047012070472DE9F041044600F18C
:10A3A000400700F1360590F83E6090F8340086B022
:10A3B00001F10208002814D08BDF14216846FCF755
:10A3C00039F833462A46394640468CDF05218DF858
:10A3D00000100190002804D0216D002901D06846AA
:10A3E000884706B0BDE8F0814FF4C8718187062127
:10A3F000C1861821018700214187704710F8401F4E
:10A40000A0224280828021F018010022C28041F007
:10A410000401017001214170704700002DE9F041F5
:10A4200050B14AB10025042641B1022930D0032998
:10A4300033D00720BDE8F0810E20FBE7074600F18E
:10A44000200490461046FCF71EF810F0FF0001D0E3
:10A45000202801D90C20EDE7207818BB5FF000061A
:10A4600007EB46104146FCF715F818B3761C16F0BA
:10A47000FF06F5D04046FCF706F802462078414634
:10A4800007EB4013401C20701846FBF7BAFF11E0A1
:10A49000BDE8F0411146FFF723BF00F12C0410F88E
:10A4A000303F0BB13046C5E71688002134F82170E3
:10A4B000B74201D12846BDE7491C11F0FF01F5D094
:10A4C00004EB83015B1C037010680860F2E740B185
:10A4D000212100220A542A210A5480F831201046F2
:10A4E00070470E20704730B515460B46040002D069
:10A4F000980702D009E00E2030BD580705D4D806D1
:10A5000003D4180701D4072030BD2046FFF7DFFF32
:10A5100099074FF0010001D584F82A00D90701D02E
:10A5200084F82100590701D584F8310084F83250AD
:10A53000002030BD70B50D46040012D034212265D4
:10A54000FBF778FFFDB1287984F83400287B84F884
:10A550003E00296839B10E2204F14000FBF751FF9B
:10A5600004E00E2070BD2046FFF748FFA86830B118
:10A570000168C4F836104068C4F83A000CE0204680
:10A58000FFF732FF08E02046FFF738FF2046FFF7CD
:10A590002BFF002084F8340004F1540060671F2072
:10A5A000A4F87800002070BD2DE9F04F8BB00D4667
:10A5B000044600273E4614216846FBF73BFF04F1A2
:10A5C000400004902046FFF715F9010004F17400E3
:10A5D000059010D002208DF800000195216D68468D
:10A5E0008847002005998ADF29462046FFF7D4FED8
:10A5F0000BB0BDE8F08F94F83200069094F82A0072
:10A6000094F82110089194F831104FF00009079147
:10A61000E0B1012704F1220B94F829A0002012E0F8
:10A62000C8EBC80202EB0B00AB7802785208B2EB21
:10A63000530F05D10622E91C401CFBF739FF78B106
:10A6400008F10100C0B280465045E9D3089810B324
:10A6500094F820A0B5F81CB04FF000087F1C1FE054
:10A660009DF808004FF0010940F002008DF8080045
:10A67000761CEBE704EB48125946A869FDF75FFA30
:10A6800050B19DF80800761C40F00100F6B28DF83C
:10A6900008004FF0010905E008F1010000F0FF0893
:10A6A000D045E7D3079848B304F12C00099094F8FB
:10A6B0003200079094F830B04FF0000AA88BD046D3
:10A6C0007F1C089014E00998089900EB8802A8699B
:10A6D000FDF78AFA30B10AF1010000F0FF0A07988D
:10A6E00068B101E0079838B908F1010000F0FF08EF
:10A6F000D845E8D3079810B1DA4503D00CE0BAF199
:10A70000000F09D09DF80800761C40F00400F6B256
:10A710008DF808004FF001090195069808B1BE4276
:10A7200003D0069939EA010007D000208DF8000017
:10A7300029462046FFF730FE02E003208DF8000096
:10A74000216D09B168468847002005998ADF4FE7E7
:10A7500070B50D46014601F108020C1D2846098816
:10A76000403586B010291ED01B2907D01D292DD1B8
:10A7700006B01146BDE87040FFF716BF064614212B
:10A780006846241DFBF756FE207801281ED1306D47
:10A7900000281BD004208DF80000049520788DF847
:10A7A0000400316D10E0064614216846FBF742FEB6
:10A7B00006208DF80000201D01902088ADF80800CB
:10A7C0000495316D002901D06846884706B070BDF8
:10A7D00010B586B004001BD014216846FBF72AFE92
:10A7E0008BDF2046FFF706F830B1216D21B1012043
:10A7F0008DF800006846884704F1740104F14000B8
:10A800008ADF082801D0002800D1002006B010BD42
:10A810000E20FBE700F180400068002800D00120F6
:10A82000704708B500F18040002101600068009089
:10A8300008BD00002DE9F041040007D0044E4FF49C
:10A840007A47751C3846A847641EFAD1BDE8F081E6
:10A85000F0D0020070B50D4C0125207808B1852696
:10A860000EE00020A06060602061E060084800F019
:10A870003FFD064600F07EFC08B900F023FD257080
:10A8800000F018FD00B1A570304670BD444C0020AA
:10A89000798D020038B500258DF800506846FCF728
:10A8A00071FC084CE068401EE060E06828B900F0E8
:10A8B00001FD10B900F02AFDA5709DF80000FCF71D
:10A8C00085FC38BD444C0020F0B505460478154899
:10A8D00089B0164640F82420124A0869121DA2F1D8
:10A8E000080742F82400487F385520226846FBF7C5
:10A8F00088FD04942878385C48B10EB10A4A00E01B
:10A9000000226946281D00F003FF09B0F0BD0EB11A
:10A91000064A00E00022694605F10C0000F04CFDFB
:10A92000F3E700008040002045CD0200A1CB0200EB
:10A9300030B40378054CE35C1BB130BC001D00F063
:10A940001DBF30BC0C3000F0A1BD00007C400020D9
:10A9500030B40378054CE35C1BB130BC001D00F043
:10A960008FBF30BC0C3000F007BE00007C400020E0
:10A970002DE9F0411F46164604000D4616D020680A
:10A98000B8B1C6B160680268501E284215D1724342
:10A990002046FCF766FA80B120683B463246D0F884
:10A9A00010C029462046BDE8F04160470E20BDE8B2
:10A9B000F0810820FBE70920F9E71020F7E720B134
:10A9C00019B101600B68114618470E20704700004E
:10A9D0002DE9F04128B1016819B1C969BDE8F0411C
:10A9E00008470D4D0D480024461B14270DE000BFFD
:10A9F00004EB840005EB8000016829B1C969884730
:10AA000010B10120BDE8F081641CB6FBF7F0A04254
:10AA1000EED80020F6E7000000410020144100209D
:10AA20002DE9F0411D46164604000F4617D0B6B179
:10AA30002068B8B1C5B10846FCF70DFAB0B12A4696
:10AA400039462046FCF70DFA80B120682B46324685
:10AA5000D0F808C039462046BDE8F04160470E20D6
:10AA6000BDE8F0810820FBE70920F9E71020F7E7AF
:10AA7000044801214174007A08B100207047012088
:10AA800070470000A04D0020012801D0032808D104
:10AA90000449002201284A7400D00020087401F003
:10AAA00003BB7047A04D002070B50246022801D0BC
:10AAB000032A45D1234C207A002841D0012833D0E5
:10AAC000022831D120480023022A006802D0032A3C
:10AAD0002AD11BE0E360017911B1012924D10DE0F5
:10AAE000D0E90565711B4FF48056B14200D3314661
:10AAF000294481614569A9420ED015E00169491CCC
:10AB00000161426991420FD1237213E0E168491C4F
:10AB1000E160082908D9E3602372022A0AD00D21D6
:10AB2000FEF7C6FC01F046FA607C28B1BDE8704033
:10AB300000F026BB0021F3E7BDE8704001F0B4BA95
:10AB400070BD0000A04D0020984000202DE9F84382
:10AB50001D46089F1646884604000DD066B1206841
:10AB600060B135B160684068B5FBF0F100FB115091
:10AB700030B10920BDE8F8830E20FBE70820F9E793
:10AB80004046FCF768F990B13046FCF764F970B1C3
:10AB90002A4641462046FCF764F940B100972068F8
:10ABA0002B463246C76841462046B847E2E71020A8
:10ABB000E0E770B541EA4201DDE904564FF0A044F8
:10ABC00041EA830141EA052104EB800041EA0641A4
:10ABD000C0F8001770BD70B541EA4201DDE90456C6
:10ABE0004FF0A04441EA830141EA052104EB8000D3
:10ABF00041EA0641C0F8001770BD1CB50021009164
:10AC00000B4601220191FFF7D4FF1CBD1CB50021AA
:10AC100000910B4601220191FFF7DDFF1CBD1CB521
:10AC200000220B46009211460192FFF7C2FF1CBDA5
:10AC30001CB500220B46009211460192FFF7CBFF94
:10AC40001CBD1CB5002100910B460122019111464B
:10AC5000FFF7AFFF1CBD1CB5002100910B46012280
:10AC600001911146FFF7B7FF1CBD4FF0A04202EB68
:10AC70008000D0F8002722F44032C0F80027D0F836
:10AC8000002742EA0141C0F80017704738B5094B68
:10AC900044181B6800936B4608E000BF53F820106F
:10ACA000D1F8205520C2C1F82055401C8442F5D867
:10ACB00038BD0000FCD10200034908B5084400215A
:10ACC00001600068009008BD0060004002494058E3
:10ACD000012800D000207047006000402DE9F041BD
:10ACE000058A80462D1F4819C01CB0FBF5F0C6B27E
:10ACF0004046FFF775F8041E19D00020207101208E
:10AD00006071E58000272546761EC4F800800BE0C0
:10AD10004046FFF765F860B16179491C61712860B0
:10AD200005467F1CC0F80080B742F1D32046BDE83D
:10AD3000F081204600F002F80020F8E72DE9F0410C
:10AD4000457901466B1E002201E00968521C9A42B7
:10AD5000FBD30F680146002605E038460C68FFF774
:10AD600061F82146761CAE42F7D3BDE8F081FFF7CB
:10AD700071B81CB501920122009201AAFEF792FE61
:10AD80001CBD1CB501920022009201AAFEF78AFEAA
:10AD90001CBD0000064910B500204870091D086060
:10ADA000BFF35F8F0349044800F016FA002010BD7E
:10ADB000EC40002090D20200484E002010B500F078
:10ADC000D9F908B141DF10BD20BF40BF20BF10BD81
:10ADD0002DE9F8430446002790460E468DF8007092
:10ADE0006846FCF7CFF9204600F039F838B105275E
:10ADF0009DF80000FCF7EAF93846BDE8F8832068C2
:10AE00000568B8F1000F05D10168204600F03FF851
:10AE100021680860E268012A0CD0022A0ED0042AB8
:10AE200011D06068082A13D005FB02013046FBF7F9
:10AE3000E8FADDE76068405D3070D9E7606830F8B7
:10AE400015003080D4E7606850F825003060CFE707
:10AE500000EBC501D1E90001C6E90001C8E70168BE
:10AE600008684968884201D1012070470020704776
:10AE700001680A6849688068884201D9491C00E075
:10AE80000021914201D10120704700207047806865
:10AE9000884201D9481C7047002070472DE9F843CB
:10AEA00004464FF000080E468DF800806846FCF717
:10AEB00069F92046FFF7DCFF07000AD0207C40B18B
:10AEC0004FF004089DF80000FCF780F94046BDE80B
:10AED000F8832068456841682046FFF7D8FF21685D
:10AEE000486037B1206801682046FFF7D0FF21682D
:10AEF0000860E268012A14D0022A16D0042A19D068
:10AF0000082A1CD06068314605FB0200FBF779FA7D
:10AF1000204601F02BF921688A688242D2D28860EB
:10AF2000D0E7616830784855F2E76168308821F8E9
:10AF30001500EDE76168306841F82500E8E7D6E9DB
:10AF40000001626802EBC502C2E90001E0E7FBF71D
:10AF5000DDBF08B5002242504058009008BD0000F7
:10AF600020B1034909680160002070470E20704736
:10AF700014D30200FEB507460C460846FFF7F0FF63
:10AF8000002845D1002500958DF8007002208DF82D
:10AF9000020001950620ADF80400029569462020C4
:10AFA000226869DF012600958DF801608DF8026046
:10AFB000019502958DF8036069464020226869DF9B
:10AFC00000958DF80070F720ADF80200019502950C
:10AFD00069462320226869DF0095019502958DF866
:10AFE000006069460120226869DF4FF4B06000907C
:10AFF000019502956946A120226869DF00950195B7
:10B0000002958DF800506946A020226869DF002073
:10B01000FEBD000060DF002802D1024A012111704C
:10B0200070470000FB40002030B51548ADF5017DAC
:10B030000078002821D04FF4FA7500BFADF8005217
:10B0400080A9684661DF38B1052816D00DF5017D6D
:10B05000BDE83040FBF75ABF6C460A497DA800F0B6
:10B06000BBF806E0D0E90021204690477DA800F01B
:10B07000CAF87F980028E1D0F4E70DF5017D30BDD6
:10B08000FB40002018D30200F8B5134C2078C0B163
:10B090000120A07001F0F2FA112814D0022001F072
:10B0A00005FB00258DF800506846FCF76BF811DFB2
:10B0B000064625709DF80000FCF788F82EB1304652
:10B0C000F8BD0820F8BD0020F8BDA57001F084FB94
:10B0D000032001F0EBFAF6E7F84000207CB5194CAC
:10B0E000207808B108207CBD0120A070002001F06C
:10B0F000C5FA112819D0002001F0D8FA124800260C
:10B10000006801908DF800606846FCF73BF80F4935
:10B1100001A810DF05000AD0002020709DF8000073
:10B12000FCF754F82DB128467CBD00207CBD0120E1
:10B13000F3E7A670667001F06FFB012001F0B6FA2C
:10B14000F3E70000F8400020ACD20200DD6E020000
:10B150000EB50749684600F03FF805E0D0E9001059
:10B160008847684600F04FF802980028F6D10EBDD7
:10B17000C8D202000148007870470000F840002063
:10B180000548817819B1007818B1FFF77DBF082014
:10B190007047FFF7A3BF0000F84000201FB56846C6
:10B1A0004BDF30B1052814D004B0BDE81040FBF7E8
:10B1B000ADBE084901A800F00FF806E0D0E9002173
:10B1C0000098904701A800F01EF803980028E6D0E8
:10B1D000F4E71FBD34D30200016009684160AFF39A
:10B1E000008010B5D0E900215368994201D10021B7
:10B1F00004E0D1E90034A34202D01946816010BDB9
:10B2000008314160F0E7816800290BD0026892683C
:10B210000A44826041684B689A4203D10831416018
:10B22000FFF7DFBF704770B50D460646446804E07F
:10B23000B2682946904718B1246820680028F7D1E1
:10B2400020682860256070BD4068006870474168CC
:10B250000868002801D002680A6070470246002092
:10B26000526806E08B4203D10868106001207047E5
:10B270001A461368002BF5D170474058002800D0BB
:10B280000120704708B5002242504058009008BD88
:10B29000D0F80403084000D001207047405800282F
:10B2A00000D00120704708B500224250405800905D
:10B2B00008BD000002480068002800D00120704747
:10B2C0000004014008480068012110F0010F06D178
:10B2D0004FF0E020C02280F800248430C167034989
:10B2E000012008607047000000E100E01805004000
:10B2F0000549024600200B790BB1852070470A6092
:10B3000001220A717047000088400020022010B519
:10B310004107C1F808034FF48270FFF782FA05492C
:10B320000120086004480168C1F300410029FAD1F6
:10B3300010BD00000C00004018040040002802D09E
:10B34000014980010847704771D202000121B1EB29
:10B35000507F01D1012070470020704738B50D465D
:10B3600000F01CFE040014D000208DF80000684698
:10B37000FBF708FF207928B19DF80000FBF726FFB6
:10B38000112038BD0120256020719DF80000FBF7D9
:10B390001DFF002038BD10B500F000FE002802D0CF
:10B3A00000210160017110BD0149024801F034BC67
:10B3B000B44C0020002000402DE9F0410546007902
:10B3C00016460F4600EB40012D4A01EBC00102EB8F
:10B3D000810494F82A1011B10820BDE8F0812949B0
:10B3E00051F820102868FFF7B9FF08B11120F4E7E1
:10B3F00039462846FBF704FF666038692060300054
:10B400004FF001062FD03F7F4FF48E712868FFF771
:10B4100039FF4FF4A2712868FFF734FF28681A49F2
:10B42000C0F8041328684FEA471140F3073000289A
:10B4300004DB00F1E02080F8001405E000F00F00CC
:10B4400000F1E02080F8141D286840F30730002840
:10B4500009DB00F01F0106FA01F14009800000F14C
:10B46000E020C0F8001128680421C0F80015002071
:10B47000A061E06184F8290044F8140FA675ACE7D8
:10B48000B44C002000D20200800002002DE9F05FE1
:10B49000054600794FF4017600EB400303EBC00052
:10B4A000344B03EB80040020636813B12B68C3F8AE
:10B4B0000863A3694FF000096BB1E06938B16068B7
:10B4C00010B12868C0F804631120BDE8F09FE26164
:10B4D0000120216105E0C4F82490A261E160C4F874
:10B4E0001C9094F82910014302D1284600F0D7FFA0
:10B4F00060680028286803D0C0F804630020E4E7EF
:10B500004FF4A2763146FFF7BDFEB2464FF4927B70
:10B5100059462868FFF7B1FE06464FF48471286843
:10B52000FFF7ABFE804651462868FFF7A6FE0746A8
:10B5300048EA07003043EBD056EA070007D121461E
:10B54000286800F07DFFA169606A8142E0D8C4F8F4
:10B5500018900EB10320B8E70FB10F20B5E794F8AB
:10B56000291001200029296801D00860C6E7486039
:10B57000C4E70000B44C00202DE9F05F05460079D7
:10B580000B4600EB400101EBC000244901EB8004B5
:10B59000284600F045F810B11120BDE8F09F626127
:10B5A0004FF00009C4F82090A36084F828904FF46D
:10B5B0008E784E4641462868FFF764FE28684FF0B3
:10B5C000010AC0F808A02146286801F021FA606845
:10B5D00008BBD5F800B067690FE000BF94F82800F9
:10B5E00008B10F2615E041465846FFF746FE0028F1
:10B5F000F4D02146584601F00BFA206AB842F2D343
:10B60000574641462868FFF738FE0028F9D02868D9
:10B61000C760C4F814903046BFE70000B44C002067
:10B62000007900EB400101EBC000044901EB800010
:10B630004069002800D0012070470000B44C002071
:10B640002DE9F047044600794FF0000900EB400176
:10B6500001EBC000284901EB80072068C0F8009585
:10B660007868B0B120682549C0F80813206840F315
:10B67000073000280DDB00F01F0201219140400936
:10B68000800000F1E020C0F88011BFF34F8FBFF3BE
:10B690006F8F2068D0F80C25D0F81485D0F8086595
:10B6A000D0F810554FF0FF31C0F81415C0F80C1544
:10B6B0002068C0F80815C0F81015501C02D01046BC
:10B6C000FFF79BFAB8F1FF3F02D04046FFF795FA2B
:10B6D000681C02D02846FFF790FA701C02D0304652
:10B6E000FFF78BFA2068FFF756FE87F82A90C7F815
:10B6F0000490BDE8F0870000B44C002084020200F2
:10B700000149024801F036BBE04C00200020004017
:10B710002DE9F0410546164600790F46154A00EB23
:10B72000C00102EB810494F8201011B10820BDE89B
:10B73000F081114951F820102868FFF70FFE08B179
:10B740001120F4E739462846FBF79EFD666038690C
:10B7500020601EB1397F2846FDF7B8FF2868082110
:10B76000C0F800150020A061E0616061012184F84B
:10B770002010DCE7E04C002004D202002DE9F05F4D
:10B78000044600790E4600EBC001DFF8F0A0174632
:10B790000AEB81053046FFF7D9FDB0B168684FF07C
:10B7A00000084FF4047910B12168C1F80893A86922
:10B7B0004FF0000B80B1E86948B1686810B12068AB
:10B7C000C0F804931120BDE8F09F1020FBE7EF6163
:10B7D0004FF001082E6102E0EE60C5E9067B00250E
:10B7E0004FF488712068FFF75EFD4FF4A271206866
:10B7F000FFF759FD2068C0F83465C0F83875206837
:10B80000B8F1000F12D0D0F8001241F02001C0F8BA
:10B8100000122079D04600EBC0010AEB810040689D
:10B8200038B12068C0F804932846CCE701210160B4
:10B83000EFE74FF4887A4FF4A27951462068FFF77A
:10B840002DFD074649462068FFF728FD06464FF4C0
:10B8500092712068FFF722FD014647EA060008437F
:10B86000EBD0227902EBC20308EB8302C2F818B0D6
:10B8700001B10325002ED7D00F25D5E7E04C0020DD
:10B880002DE9F04704460E460079274900EBC00039
:10B8900001EB800517463046FFF758FD30B12046D2
:10B8A00000F044F820B11120BDE8F0871020FBE73C
:10B8B0006F61AE604FF490774FF000083946206812
:10B8C000FFF7F1FC4FF4AC7631462068FFF7EBFC54
:10B8D0002068AA686969C0F84425C0F8481520683E
:10B8E0004FF00109C0F808906868D0B9BA465146CF
:10B8F0002068FFF7D3FC074631462068FFF7CEFCEF
:10B900000743F4D010B14FF00F0808E02068C0F8EA
:10B910000C9031462068FFF7C1FC0028F9D00020C8
:10B9200068614046C0E70000E04C0020007905490E
:10B9300000EBC00001EB80004069002800D001202E
:10B9400070470000E04C00202DE9F04706460079E2
:10B950003D4900EBC00001EB8005346868680127B1
:10B96000A8B13A49C4F80813306840F307300028FA
:10B970000DDB00F01F0107FA01F14009800000F122
:10B98000E020C0F88011BFF34F8FBFF36F8FD4F862
:10B99000000220F02000C4F80002A8694FF4A27849
:10B9A00020B141462046FFF77EFC67604FF4AC793A
:10B9B00049462046FFF777FCE76047464946204660
:10B9C000FFF76CFC0028F9D0A86928B13946204659
:10B9D000FFF764FC0028F1D04FF0000AC4F800A57E
:10B9E0003068D0F80C25D0F81495D0F80885D0F838
:10B9F00010754FF0FF31C0F80C15C0F81415306801
:10BA0000C0F80815C0F81015501C02D01046FFF7FA
:10BA1000FDF8B9F1FF3F02D04846FFF7F7F8781C70
:10BA200002D03846FFF7F2F8B8F1FF3F02D04046A7
:10BA3000FFF7ECF82046FFF7AEFC85F820A0C5F82C
:10BA400004A0BDE8F0870000E04C00201003420095
:10BA500070B50446007800281AD1002509E0206955
:10BA6000405DFBF765FB18B11128F8D0FBF74EFAE3
:10BA70006D1CA08AA842F2D8A18A2069084410F857
:10BA8000010C0D2804D10A20FBF752FB1128FAD033
:10BA900070BDFBF73BBA000003490860034801682A
:10BAA0000029FCD07047000004E5014000E401409B
:10BAB00010B550B103280CD10220FDF73DF8002845
:10BAC00007D0BDE81040FBF721BABDE81040FBF7F6
:10BAD000F7B910BDF8B505460C460888B5F8CA1286
:10BAE000884266D195F8C6024FF0000E00EB800147
:10BAF000C1EB801005EB40016088E8BBE68808795F
:10BB0000A21DF3B250FA86F6062E01D8034400E0D7
:10BB100006230B7100261BE000EBC00306EB860733
:10BB200002EB470701EB4303D7F802C0C3F80AC092
:10BB3000D7F806C0C3F80EC07F895F82A3F814E06F
:10BB4000A3F816E0A3F818E0401CA3F81AE0761C4E
:10BB50000B798342E0D895F8C62200EBC00002EBD7
:10BB60008203C3EB821205EB420231F81000128906
:10BB7000904212D2087900E00FE006280DD085F837
:10BB8000C50221882846FDF7ADF8002811D022888B
:10BB90002946BDE8F840FDF785BA85F8C5E2228858
:10BBA00069462846FDF7B0F920B122882946FDF7FD
:10BBB00079FAF8BD9DF800000028FAD0228801210A
:10BBC0002846FDF715FA2188284600F0EBF8F8BD65
:10BBD0000078002807D104483B21808876DF0028C0
:10BBE00001D0FBF793B97047C8390020F0B58BB08E
:10BBF000002601960D4604468988406901AAFBF794
:10BC0000B9FE0AA8CDE908600227ADF82070ADF8AA
:10BC100022602189A88808AAADDF002819D1A0696F
:10BC2000002816D00998FCF74BFF002811D0019E80
:10BC30000EB101203070182102A8FAF7FBFB8DF835
:10BC400008700394A888ADF810000596A16902A8B1
:10BC500088470BB0F0BD0000F8B505460C460888D3
:10BC6000B5F8CA12884255D195F8C602A21D00EB5C
:10BC70008001C1EB801005EB400695F8C50200EB92
:10BC8000C00006EB400160880A3138B329E000BFEC
:10BC900000EB400302EB43039F88B7F5245F0CD011
:10BCA0006FF4245C17EB0C070AD0012F02D0072F8A
:10BCB0000BD108E05B884B8107E05B888B8104E057
:10BCC0005B88CB8101E05B880B824B892BB18B8930
:10BCD0001BB1CB890BB10B8A1BB9401C1388834263
:10BCE000D6D800208DF8000095F8C5023179401CA7
:10BCF000884203D101208DF8000010E085F8C502CC
:10BD0000228869462846FDF7FFF820B12288294697
:10BD1000FDF7C8F9F8BD9DF800000028FAD0228888
:10BD200001212846FDF764F92188284600F03AF8F9
:10BD3000F8BD70B505460C4690F8C602228800EBA7
:10BD40008001C1EB801005EB4001B5F8CA028242C8
:10BD500027D1608848B100212846FDF749F921889C
:10BD60002846BDE8704000F01DB8E268C1F8062022
:10BD7000E28895F8C412D0B251FA82F2062A01D8AC
:10BD8000084400E0062085F8C40221882846FCF714
:10BD9000A9FF002805D022882946BDE87040FDF79C
:10BDA00081B970BD70B588B00D4604462021684643
:10BDB000FAF740FB94F8C7021E4B401CC0B284F84F
:10BDC000C702DA68002190422CD284F8C51294F898
:10BDD000C602194E401CC2B202EB820084F8C62291
:10BDE000C0EB821006EB820204EB40001268026096
:10BDF000017102218DF800100121ADF810100068CA
:10BE0000CDF812000D48CDE902042A46694698682B
:10BE1000FEF76EF9002803D02A462146FDF742F9C5
:10BE200008B070BD84F8C81229462046FDF7C8F84E
:10BE3000F6E7000064400020604B0020A59002005F
:10BE4000F0B587B00C4605468E1D8988406906AA64
:10BE5000FBF790FD18216846FAF7ECFA0195A088E7
:10BE6000069AADF80800039231882B89002704F167
:10BE70001200994202D17389022B0DD0AA899142F6
:10BE80001ED1A96900291BD08DF80070049070891B
:10BE9000ADF81400A96911E0002A11D0FCF710FEDA
:10BEA00020B1069901200870022002E00698077070
:10BEB00003208DF80000A969002901D06846884751
:10BEC00007B0F0BD0068012803D0022801D000208F
:10BED00070470120704700002DE9F05F2A4F0646A9
:10BEE0004FF0A04A4FF0010B0024381990F9501080
:10BEF000491C3CD090F85000314620F0C00528463F
:10BF0000FDF7C0FF20B3204600F040F881460AEB61
:10BF10008500D0F80007C0F30148B8F1020F18D02F
:10BF200002212846FEF7A1FE0BFA05F1CAF82015FA
:10BF30002846FCF707FE57F820204AB14846B9F1D9
:10BF4000030F11D0B8F1020F05D0B8F1030F07D0DD
:10BF50000DE00321E5E74846B9F1010F04D006E002
:10BF60004846B9F1020F02D1014628469047641CA9
:10BF7000042CBAD3324601210020FEF787FE306838
:10BF80000028B1D1BDE8F09F584C00200249084478
:10BF900090F8500080097047584C002003498842AF
:10BFA00001D1034870470020704700000020004086
:10BFB00090400020034802490068FDF7BCBE000025
:10BFC0009C40002008D20200F0B591B00E46074612
:10BFD00001226946FEF7FCFE04005AD19DF80000DC
:10BFE00004AD062842D2DFE800F0030A181F232719
:10BFF000BDF81220BDF810103046A1DF0BE00CA8F0
:10C0000006900146BDF8162000230198FEF7B1FE08
:10C0100029463046A3DF044626E0BDF8101030461E
:10C020000DF112029BDFF6E7294630469DDFF2E76D
:10C03000294630469EDFEEE70CA807900023022237
:10C0400008A90198FEF795FE08A80690BDF82020E3
:10C05000022307990198FEF78CFEBDF820E02946DF
:10C060003046AEDF040016D0112C12D09DF800002F
:10C070000C4951F8200010B10198FEF75FFE002234
:10C0800069463846FEF7A4FE22463146684600F06F
:10C09000F3F811B0F0BDBDF820008645E6D00C24C1
:10C0A000E4E70000C4D102002DE9F041234C002553
:10C0B000234E207A012730B92248311D0068FDF750
:10C0C00045FE306038B1022020723168087928B10D
:10C0D00001281ED116E06560BDE8F081D1E90503B5
:10C0E000C01A4FF48052904200D31046B7EB900F25
:10C0F00001D2820800E001220869C9681844194485
:10C1000029DF03E0D1E90301084428DF58B11128F1
:10C1100012D003213068FDF7CBF925726560BDE8C8
:10C12000F041FFF747BF207C0028D5D1BDE8F041A2
:10C1300000210220FEF7B8BC2772CDE7A04D0020F9
:10C140009840002008D2020010B5074C201DFDF7D2
:10C1500033FE002806D1607C002803D1BDE81040E2
:10C16000FFF7A2BF10BD0000A04D002001680A68C3
:10C170004968914201D3881A70478068801A084440
:10C18000401C704770B58CB00446C068002209A9F5
:10C19000FEF71EFE104D1BE0BDF82410A06801EB59
:10C1A000810100EB810607E09DF8000055F82000B2
:10C1B00010B10198FEF7C2FD002269463046FEF735
:10C1C00007FE0028F0D0002209A9E068FEF700FE73
:10C1D0000028E1D00CB070BDC4D1020010B51046EB
:10C1E0001A46FAF70EF9002010BD000010B5104CE9
:10C1F00040230E4A0F482169FEF712FC002813D194
:10C200000C4800F00EFF3022084904F12A00FAF72A
:10C21000F8F804F12A000078FF2805D106A000688C
:10C2200044F82A0F0020207110BD00007643002042
:10C23000C83900200041002003FF015A000000001F
:10C2400070B50C4B00210A4ADC680DE002EB810559
:10C250008678AD78B54206D132F821500688B542CD
:10C2600001D1586870BD491CA142EFD3002070BDB8
:10C27000604B00206440002030B4130009D0846873
:10C28000002C06D0C0680A46A446014630BC1846B9
:10C29000604730BC704770B5044600780E460022F7
:10C2A00004F11001062827D2DFE800F003080B1183
:10C2B0001418628A218A3046A1DF0DE03046A3DFE0
:10C2C0000AE0218A04F1120230469BDF04E0304686
:10C2D0009DDF01E030469EDF024605E0A06905884B
:10C2E0003046AEDF020002D0112A0BD004E0A06974
:10C2F0000088A84200D00C2231462046FFF7BCFF40
:10C30000012070BD002070BD0846704770B505461D
:10C31000FCF7BDFF134C40B1D4E904024FF080712B
:10C32000411842F10000C4E9041000212846FCF73E
:10C3300029FF30B1606820B1606800F0E5FA0020A4
:10C34000606001212846FCF71DFF18B1FDF780F958
:10C35000C4E90601284600F003FB2846BDE870400A
:10C3600000F034B8A040002070B5054600200C460F
:10C370000870FDF76DF9D5E90223101A63EB01038C
:10C3800000263146361A994112DAB0F5350F03D33B
:10C39000FAF7F0FD0B4942184FF4960300210A48C2
:10C3A000FCF781FF10B10D2806D009E0012070BD17
:10C3B00000210548FCF7DCFE284600F0A5FA2070B5
:10C3C000002070BDFFFFB400A8400020F8B51A4C53
:10C3D000074600261948FEF737FFD0B1616871B1F2
:10C3E000D0E902106268D2E90232C91A904120D223
:10C3F0006068007F18B161681048FEF714FF00F014
:10C4000037FA05466946FFF7AFFF98B1606840B15B
:10C410000AE0606800280CD13846BDE8F840FCF717
:10C420003EBF3846FCF737FF65609DF800000028E6
:10C43000D0D1F8BD6660CDE7A040002040D2020018
:10C4400070B5054688690C4600284FF4847128466B
:10C450000AD0FEF717FFD5F81805626AE16888541C
:10C46000606A401C606270BDFEF70CFFD5F81805CD
:10C4700070BD1FB501238DF80030CDE90121D0E951
:10C480000012684690471FBD1FB501238DF800308C
:10C49000CDE90121D0E90012684690471FBD10B5D3
:10C4A000044600684FF49271FEF7ECFE4FF484717D
:10C4B0002068FEF7E7FE20680121016010BD000042
:10C4C000FEB50546066944680078032813D00428A1
:10C4D0000ED005280DD006280AD12079A2796179DD
:10C4E0008DE80700E378A278617814A0FAF750FA93
:10C4F000FEBD20461CE01D49A069F9F7B2FF0028E7
:10C50000F6D01B490978FF290CD1A521C170002163
:10C5100001716868202281691648F9F772FF154891
:10C52000FCF756FF124A0123AC323146A01C8CDFC7
:10C530000028DDD0BDE8FE40FAF7E8BC436F6E6E20
:10C54000656374696E6720746F20746172676574C7
:10C550002025303278253032782530327825303237
:10C56000782530327825303278000000F23900200A
:10C5700076430020384100201FB500200090019034
:10C580000290039001208DF804008DF80C00184AE9
:10C5900069461848FDF7CEFF08B1FAF7B7FC164810
:10C5A000F9F771FF38B1144A00211248FDF736FF40
:10C5B00008B1FAF7ABFC104A0321253A0D48FDF704
:10C5C0002DFF08B1FAF7A2FC0B4A0221921F09487D
:10C5D000FDF724FF08B1FAF799FC00220121054874
:10C5E000FDF781FF002801D0FAF790FC1FBD000085
:10C5F000C1C40200EC43002005D1020010B5084878
:10C60000FEF7E6F808B1FAF781FC0120FCF794FA8E
:10C61000002803D0BDE81040FAF778BC10BD000038
:10C62000EC43002038B50021012548B1012810D085
:10C6300003280DD1FEF746FEBDE83840FEF72AB9C3
:10C640004FF0E020C0F88051BFF34F8FBFF36F8FE2
:10C6500038BD8DF800106846FAF794FD064C207836
:10C6600008B9FEF7F7F8E068401CE060A5709DF897
:10C670000000FAF7ABFD38BD444C00203EB504463F
:10C6800009496846FEF7A8FD08E000BFD0E900218F
:10C690002046904730B16846FEF7B5FD0298002865
:10C6A000F4D13EBD11203EBDB0D202003EB50446DD
:10C6B00008496846FEF790FD07E000BFD0E9002179
:10C6C000204690476846FEF79EFD02980028F5D167
:10C6D0003EBD0000BCD2020002498969002900D099
:10C6E00008477047AC4B00202DE9F0410746806AAF
:10C6F00014468846C8B3002531E000BFB96A05EB8F
:10C70000450001EB8006B088801CFE2802D90C2071
:10C71000BDE8F0812288401C08F80200208816221B
:10C72000401C80B2208008F800202088401C80B285
:10C73000208000EB0801308800F0A5FB2188084428
:10C7400080B22080B28842B1B16871B14044F9F73B
:10C7500058FE2088B188084420806D1CEDB297F8FF
:10C760002C00A842CAD80020D2E7FFE70720CFE775
:10C770000A78062822F0FF020A7010D2DFE800F0E3
:10C78000030507090B0D002008E0112006E0212019
:10C7900004E0312002E0122000E0222008707047FF
:10C7A00010B504460020FCF7C7F908B1FAF7AEFB54
:10C7B00024B9FCF78FF908B1FAF7A8FB012010BDE6
:10C7C000002805D10349012048700020FCF7C0BAB9
:10C7D00070470000444C002010B51620FAF7F8F816
:10C7E00048B10C4882684FF4800152B1016821F4CD
:10C7F0008001016010BDBDE8104042F20100FAF76F
:10C8000085BB4FF0E020C0F88011BFF34F8FBFF31E
:10C810006F8F10BD3C4E002010B51620FAF7D8F8E7
:10C82000A0B1114890F800044009082811D2012154
:10C83000814011F0EC0F0CD00C4882684FF480015D
:10C840006AB1016841F48001016010BD42F201004B
:10C8500001E042F20200BDE81040FAF757BB4FF08A
:10C86000E020C0F8001110BD16E000E03C4E0020B2
:10C870000148FEF7ECBC000040D20200F8B51F4CA6
:10C880000A216069401CB0FBF1F201FB12016061FA
:10C89000002932D1E168401A0A282ED3E08850B32B
:10C8A000A1791748FAF734FDFAF772F81449E288CB
:10C8B000A1F59E60FBF754FF0646082804D0132E0E
:10C8C00002D008B1FAF722FBE088ADF80000A38897
:10C8D0006A460B490B48FBF7ADFF0546082806D012
:10C8E000132D04D0052D02D008B1FAF70FFB132E3B
:10C8F000D6D0132DD4D00020E080F8BDC839002058
:10C90000A84800201840002070B5044612480025B1
:10C910000078F8B1F4B1207FE0B1FCF799FED4E9DA
:10C920000223801A994110D32069002600B9267786
:10C93000D4E905108847206960B1217F51B1D4E95D
:10C94000022110187141C4E9020121460348FEF793
:10C950006AFC0125284670BDA040002040D202009C
:10C96000F8B51B4C69462068FDF7F0F90026012751
:10C97000184D29E0017821B101290CD002291BD1E1
:10C9800014E041680A7FBAB90F774168104808304F
:10C99000FEF749FC10E041686868814201D16E6091
:10C9A0000AE00B480830FEF759FC05E0FFF760FF8E
:10C9B00008B10677FAE72F7069462068FDF7BBF9E2
:10C9C00069462068FDF7C2F90028D3D1F8BD000000
:10C9D00038D20200A0400020F8B50B4C0D460646A8
:10C9E00069462068FDF79CF958B1067045606946B4
:10C9F0002068FDF7B6F910B10448FCF735FC0020BB
:10CA0000F8BD0420F8BD000038D20200A840002084
:10CA100070B50C4605464FF48E71FEF733FC216A63
:10CA2000A068415C206A401C2062C5F81C1570BDDE
:10CA30001FB500228DF800200291816801914261AA
:10CA4000D0E90012684690471FBD1FB500228DF83F
:10CA500000200291816801914261D0E9001268468C
:10CA600090471FBDF8B5017841B1012901D00229D5
:10CA70003CD14068BDE8F840FAF748BA1D4C1C4864
:10CA8000E1880844FAF7E8FAE088401C80B2E080C8
:10CA90006169E1606188884228D3012824D914495A
:10CAA000E288A1F59E60FBF75BFE0646082804D0ED
:10CAB000132E02D008B1FAF729FAE088ADF8000089
:10CAC000A3886A460A490C48FBF7B4FE05460828C5
:10CAD00006D0132D04D0052D02D008B1FAF716FAAE
:10CAE000132EDCD0132DDAD00020E080F8BD00003A
:10CAF000A8480020C8390020184000207CB50178E3
:10CB0000254DA1B301290BD002291DD18DF80010AC
:10CB1000C068691C01900122C81DFDF709FF30E0C3
:10CB2000017A59B1406801781C48FAF715FA1B4C94
:10CB3000012650B18DF8006001900DE016490122E8
:10CB4000491CC81DFDF7F4FE7CBDA068E168814268
:10CB500005D000208DF80000696868468847A06805
:10CB6000E168081AA1888842E8D9AE707CBDFFE769
:10CB70000A4809491030FAF7D4F930B103208DF88A
:10CB80000000696868468847F0E70349012201F11F
:10CB90000800FDF7DDFEE9E7C44000201C4E002040
:10CBA0001FB50A4601788DF8001041680191017A9D
:10CBB0008DF80810C0680390044850F82210001F38
:10CBC00050F82220684690471FBD00008440002096
:10CBD00000B58BB018220C496846F9F712FC0B48D7
:10CBE00006900B494FF48070CDE9070109900723A7
:10CBF000084A06A96846FAF749FA002801D0FAF768
:10CC000085F90BB000BD000014D10200584100208E
:10CC10005842002065CA02002DE9FF470C46054630
:10CC20004FF40071FEF734FB01274FF40178002622
:10CC300018B34FF4927949462846FEF71EFBE0B13F
:10CC400049462846FEF71EFBC5F8088394F82900DC
:10CC500000B96F6002208DF80000D5F88004C5F897
:10CC600080040390A0690290E0680190A661E661EB
:10CC7000D4E900126846904728E004212846FEF7D0
:10CC800007FB18B34FF484712846FEF7F6FAE8B1B3
:10CC900021462846FFF7D4FB616AA069884215D176
:10CCA000E06938B1E268616AA0612069E6616662A4
:10CCB000E06008E094F8290000B96F60C5F80883C7
:10CCC000A661E268616A2046FFF7D3FB4FF48E78D5
:10CCD00041462846FEF7D1FA80B16069216A814257
:10CCE00002D294F8280028B341462846FEF7CAFA33
:10CCF000606918B161692046FFF79AFE4FF4A27887
:10CD000041462846FEF7B9FA002818D04146284681
:10CD1000FEF7B8FA94F8290000B12F60A069002846
:10CD20000DD0A661E268616A04B02046BDE8F04714
:10CD3000FFF79FBB21462846FFF76AFEDEE7BDE806
:10CD4000FF8700001FB50A4601788DF80010416882
:10CD50000191017A8DF80810C0680390044850F8DA
:10CD60002210001F50F82220684690471FBD000087
:10CD7000844000202DE9FF410C464FF49277054690
:10CD80003946FEF78BFA0026B8B139462846FEF739
:10CD90008AFA02208DF80000D5F88004C5F88004D6
:10CDA0000390D5F83C050290E0680190A661E66129
:10CDB000D4E900126846904723E04FF4887739465B
:10CDC0002846FEF76BFAE0B139462846FEF76BFAC3
:10CDD000D5F83C15A069884213D1E06960B1E268DA
:10CDE000D5F8000220F02000C5F80002E069A0613B
:10CDF0002069E661E06001E0A661E2682046FFF795
:10CE000043FB4FF4A27739462846FEF747FA68B14C
:10CE100039462846FEF747FAA06938B1A661E661AF
:10CE2000D5F83C152046E268FFF72EFB4FF49076CC
:10CE300031462846FEF732FA60B131462846FEF701
:10CE400032FA0120E860606920B1D5F84C1520461F
:10CE5000FFF7FBFD4FF4AC7631462846FEF71EFA8D
:10CE600000280ED031462846FEF71DFA60690028DA
:10CE700007D0D5F84C1504B02046BDE8F041FFF7C7
:10CE8000E4BDBDE8FF810870000A487002207047C9
:10CE900010B514210448F9F7CDFA04480068FCF7EE
:10CEA00024FF002010BD0000A04D002008D2020089
:10CEB000F8B5054680B2FCF7FFFB040013D0154E11
:10CEC000207A0027317B88420ED2A8B204F10A01F1
:10CED00075DF28B1112806D0BDE8F840FFF7FCBB8C
:10CEE000207A401C2072F8BD2772307C38B1A8B27D
:10CEF0003B2176DF18B1082801D0FFF7EDFB7169FF
:10CF00000029F0D08DF80070ADF8025068468847CF
:10CF1000F8BD0000AC4B0020417939B190F82E14D7
:10CF200021B990F8300408B1012070470020704703
:10CF300030B40446007A00280AD06088002166DFF9
:10CF400028B1112802D0616830BC08470120207246
:10CF500030BC70472DE9FC411646DDE90854CDE9A7
:10CF600000541F468046022200F00CF8002807D12A
:10CF7000CDE900543B4610223146404600F002F80D
:10CF8000BDE8FC812DE9FC5F0026DDE90C4B9946EC
:10CF900092468E4680462788354630E0D8F8040011
:10CFA000002200EB850069460068019001A864DF5B
:10CFB000002830D19DF8000050451FD10EB100214E
:10CFC00000E00221228808441118594522D846B9A8
:10CFD000521C90B2208009F800E02088401C20807C
:10CFE0000126218801A801EB0902694664DF0028B7
:10CFF00011D120889DF80010084420806D1CB8F8DD
:10D000000000A842CADC56B12088C01B401E80B276
:10D01000FF2802D90C20BDE8FC9F09F8070000207A
:10D02000F9E710B504462046FDF7D2FC0028FAD1F6
:10D0300010BD10B5042817D209B1032400E0002464
:10D04000FBF742FD4FF0A04101EB8000D0F8001744
:10D0500021F44031C0F80017D0F8001741EA04412C
:10D06000C0F80017002010BD062010BD002070473A
:10D070002DE9F84F114D884681461E4617466946F0
:10D08000DDF828A02868FCF74BFE040013D01C2113
:10D09000F9F7D0F900202071C4F80090C4E90486A3
:10D0A000C4E902A769462868FCF75BFEFFF74CF865
:10D0B0000020BDE8F88F0420FBE7000008D2020042
:10D0C0007C4A0020DC490020040000002000000011
:10D0D000010000000000000000000000000000004F
:10D0E00000FF0100184100200000000000000000C7
:10D0F0000738FDD87047000012345600000002F1D6
:10D100001146971B30424C45204465766963652083
:10D110002A000000050000000C00000005000000CF
:10D12000070000000000000000E0D7010D0E0F1006
:10D1300001000000000000000000000000000000EE
:10D1400000000000000000000000000000000000DF
:10D1500000000000000000000000000000000000CF
:10D1600000000000000000000000000000000000BF
:10D1700000000000000000000000000000000000AF
:10D18000000000000000000000000000000000009F
:10D19000000000000000000000000000000000008F
:10D1A000000000000000000000000000770A0000FE
:10D1B00000000000770A0000000000007ADA00009A
:10D1C0000000000000000000E595020000000000E3
:10D1D000000000000000000011960200FB349B5F7D
:10D1E000800000800010000000000000FB349B5F06
:10D1F00080000080001000000000000000000050CF
:10D20000A9B3020001B70200044D00200010000085
:10D2100004000000010000008596020091CE02008B
:10D22000DDC1020071D002008593020009C3020033
:10D230006DD0020055970200B44D00200100060099
:10D2400000000000C0400020958D0200FFFFFFFF9E
:10D25000FFFFFFFFFFFFFFFFFFFFFFFF00000000DA
:10D26000000000000000D6010601000000000000E0
:10D270000738FDD8704700000000000000000000E3
:10D28000C8D50200CCD5020000000000000000005C
:10D2900078D2020090D20200040000002CD60200D6
:10D2A00034D6020000000000000000000010020060
:10D2B0009CD20200ACD2020008000000D4D20200CE
:10D2C000E4D2020008000000E4D20200F4D202001E
:10D2D0000800000054D6020064D6020000000000DE
:10D2E0000000000044D6020054D6020000000000F6
:10D2F00000000000CCD50200D4D50200D4D5020035
:10D300000CD602000CD6020024D6020024D602005D
:10D310002CD60200C8390020F4D2020014D3020037
:10D320000800000034D6020044D6020000000000CD
:10D330000000000024D3020034D3020008000000E3
:10D340000A44657369676E656420627920415845B7
:10D350004E540A41542B424C455F4144563D312FB7
:10D36000302C73657420626C652062726F61646337
:10D37000617374206F6E2F6F66660A41542B424CA6
:10D38000455F4144562C726574726965766520620A
:10D390006C652062726F6164636173742073746181
:10D3A00074650A41542B424C455F5057523D307EC4
:10D3B000372C73657420626C6520706F7765720A14
:10D3C00041542B52465F5057523D307E342C73658A
:10D3D0007420726620706F7765720A41542B524632
:10D3E0005F5057522C72657472696576652072665B
:10D3F00020706F7765720A41542B52463D312F30B1
:10D400002C5246206D6F64756C65204F4E2F4F4631
:10D41000460A41542B52462C7265747269657665D2
:10D420002072662073746174650A00000A44657393
:10D4300069676E6564206279204158454E540A41FF
:10D44000542B52465F4D4F443D46534B2F4D534B4B
:10D450002C52465F6D6F64756C6174696F6E0A4122
:10D46000542B424C455F4C494E4B3D302C626C6511
:10D47000207465726D696E6174650A41542B413880
:10D48000313037534C4545502C524620425420737E
:10D490006C6565700A0000000A44657369676E6513
:10D4A00064206279204158454E540A417574686F72
:10D4B000723A204C69616F204A696E74616E670A26
:10D4C000415420636F6D6D616E6420696E74726F7C
:10D4D000647563653A0A41542C726573706F6E739C
:10D4E00065204F4B0A41542B5645522C7265737080
:10D4F0006F6E73652056455253494F4E0A41542B67
:10D500004E414D453D226E616D65220A2C73657456
:10D5100020424C45206E616D6541542B4E414D4576
:10D520002C726574726965766520626C65206E6127
:10D530006D650A41542B4D41433D414142424343B5
:10D540004444454546462C73657420424C45206D45
:10D5500061630A2E2E2E7573652041542B48454C6D
:10D56000503D312F322F2E2E2E20666F72206D6F80
:10D57000726520696E666F726D6174696F6E00000E
:10D5800064D60200C83900204C070000A0650200E4
:10D59000E8D602001441002044190000C0690200CE
:10D5A0004C400020444000204C400020944A002081
:10D5B00018000000884A00204040002001000000C0
:10D5C0000200000001000000A1C7020071840200F7
:10D5D00000000000D99E0200D0430020E981020033
:10D5E000343A002051A70200EC43002091A1020030
:10D5F000044000209D7D0200744400200583020049
:10D600000000000075830200000000006D8602002B
:10D61000B843002079890200184000202BA20200A4
:10D6200068440020CD8202000000000071AA0200C0
:10D6300000000000C1C7020000000000A9AA02000B
:10D640000000000029B00200000000009DB10200AF
:10D650000000000025C602000000000089AA0200A8
:10D66000000000001401011423FFFF54F0FF019497
:10D67000C0FF035D324F4B20011B363426290101C8
:10D680001A38154158454E545F4E4F524449435F36
:10D6900035323830355F300101FF01FF01D503FF1E
:10D6A000FFFF01FF01FF7132011334401520C0D08C
:10D6B0000214B4D5021AA00401141A38244123FF1D
:10D6C000FF1A540C1202026A040D2210014011705C
:10D6D0001220BA4008011C8490D0031B9195F41BC2
:08D6E000E003DC12030000006E
:040000050002620192
:00000001FF
