Component: ARM Compiler 5.06 update 6 (build 750) Tool: armlink [4d35ed]

==============================================================================

Section Cross References

    main.o(i.advertising_init) refers to memseta.o(.text) for __aeabi_memclr4
    main.o(i.advertising_init) refers to ble_advertising.o(i.ble_advertising_init) for ble_advertising_init
    main.o(i.advertising_init) refers to app_error.o(i.app_error_handler_bare) for app_error_handler_bare
    main.o(i.advertising_init) refers to ble_advertising.o(i.ble_advertising_conn_cfg_tag_set) for ble_advertising_conn_cfg_tag_set
    main.o(i.advertising_init) refers to main.o(.data) for m_adv_uuids
    main.o(i.advertising_init) refers to main.o(i.on_adv_evt) for on_adv_evt
    main.o(i.advertising_init) refers to main.o(.bss) for m_advertising
    main.o(i.advertising_start) refers to main.o(i.delete_bonds) for delete_bonds
    main.o(i.advertising_start) refers to ble_advertising.o(i.ble_advertising_start) for ble_advertising_start
    main.o(i.advertising_start) refers to app_error.o(i.app_error_handler_bare) for app_error_handler_bare
    main.o(i.advertising_start) refers to main.o(.bss) for m_advertising
    main.o(i.assert_nrf_callback) refers to app_error_handler_keil.o(.emb_text) for app_error_handler
    main.o(i.ble_evt_handler) refers to nrf_log_frontend.o(i.nrf_log_frontend_std_0) for nrf_log_frontend_std_0
    main.o(i.ble_evt_handler) refers to bsp.o(i.bsp_indication_set) for bsp_indication_set
    main.o(i.ble_evt_handler) refers to app_error.o(i.app_error_handler_bare) for app_error_handler_bare
    main.o(i.ble_evt_handler) refers to nrf_ble_qwr.o(i.nrf_ble_qwr_conn_handle_assign) for nrf_ble_qwr_conn_handle_assign
    main.o(i.ble_evt_handler) refers to nrf_log_frontend.o(log_const_data) for m_nrf_log_app_logs_data_const
    main.o(i.ble_evt_handler) refers to main.o(.data) for m_conn_handle
==============================================================================

Removing Unused input sections from the image.

    Removing main.o(.rev16_text), (4 bytes).
    Removing main.o(.revsh_text), (4 bytes).
    Removing main.o(.rrx_text), (6 bytes).
    Removing main.o(i.assert_nrf_callback), (24 bytes).
    Removing boards.o(.rev16_text), (4 bytes).
    Removing boards.o(.revsh_text), (4 bytes).
    Removing boards.o(.rrx_text), (6 bytes).
    Removing boards.o(i.bsp_board_buttons_init), (76 bytes).
    Removing boards.o(i.bsp_board_init), (16 bytes).
    Removing bsp.o(.rev16_text), (4 bytes).
    Removing bsp.o(.revsh_text), (4 bytes).
    Removing bsp.o(.rrx_text), (6 bytes).
    Removing bsp.o(i.bsp_buttons_disable), (8 bytes).
    Removing bsp.o(i.bsp_buttons_enable), (8 bytes).
    Removing bsp.o(i.bsp_wakeup_button_disable), (14 bytes).
    Removing bsp_btn_ble.o(.rev16_text), (4 bytes).
    Removing bsp_btn_ble.o(.revsh_text), (4 bytes).
    Removing bsp_btn_ble.o(.rrx_text), (6 bytes).
==============================================================================

Image Symbol Table

    Local Symbols

    Symbol Name                              Value     Ov Type        Size  Object(Section)

    ../clib/../cmprslib/zerorunl2.c          0x00000000   Number         0  __dczerorl2.o ABSOLUTE
    ../clib/microlib/ctype/ctype.c           0x00000000   Number         0  isupper_o.o ABSOLUTE
    ../clib/microlib/ctype/ctype.c           0x00000000   Number         0  isspace_o.o ABSOLUTE
    ../clib/microlib/ctype/ctype.c           0x00000000   Number         0  ispunct_o.o ABSOLUTE
    ../clib/microlib/ctype/ctype.c           0x00000000   Number         0  isprint_o.o ABSOLUTE
    ../clib/microlib/ctype/ctype.c           0x00000000   Number         0  ctype_o.o ABSOLUTE
    ../clib/microlib/ctype/ctype.c           0x00000000   Number         0  isalnum_o.o ABSOLUTE
    ../clib/microlib/ctype/ctype.c           0x00000000   Number         0  isalpha_o.o ABSOLUTE
    ../clib/microlib/ctype/ctype.c           0x00000000   Number         0  islower_o.o ABSOLUTE
    ../clib/microlib/ctype/ctype.c           0x00000000   Number         0  isxdigit_o.o ABSOLUTE
    ../clib/microlib/ctype/ctype.c           0x00000000   Number         0  isgraph_o.o ABSOLUTE
    ../clib/microlib/ctype/ctype.c           0x00000000   Number         0  isdigit_o.o ABSOLUTE
    ../clib/microlib/ctype/ctype.c           0x00000000   Number         0  iscntrl_o.o ABSOLUTE
    ../clib/microlib/ctype/ctype.c           0x00000000   Number         0  isblank_o.o ABSOLUTE
    ../clib/microlib/division.c              0x00000000   Number         0  uldiv.o ABSOLUTE
    ../clib/microlib/division.c              0x00000000   Number         0  uidiv.o ABSOLUTE
    ../clib/microlib/init/entry.s            0x00000000   Number         0  entry11a.o ABSOLUTE
    ../clib/microlib/init/entry.s            0x00000000   Number         0  entry9a.o ABSOLUTE
    ../clib/microlib/init/entry.s            0x00000000   Number         0  entry8b.o ABSOLUTE
    ../clib/microlib/init/entry.s            0x00000000   Number         0  entry8a.o ABSOLUTE
    ../clib/microlib/init/entry.s            0x00000000   Number         0  entry10b.o ABSOLUTE
    ../clib/microlib/init/entry.s            0x00000000   Number         0  entry7b.o ABSOLUTE
    ../clib/microlib/init/entry.s            0x00000000   Number         0  entry.o ABSOLUTE
    ../clib/microlib/init/entry.s            0x00000000   Number         0  entry2.o ABSOLUTE
    ../clib/microlib/init/entry.s            0x00000000   Number         0  entry5.o ABSOLUTE
    ../clib/microlib/init/entry.s            0x00000000   Number         0  entry7a.o ABSOLUTE
    ../clib/microlib/init/entry.s            0x00000000   Number         0  entry11b.o ABSOLUTE
    ../clib/microlib/init/entry.s            0x00000000   Number         0  entry9b.o ABSOLUTE
    ../clib/microlib/init/entry.s            0x00000000   Number         0  entry10a.o ABSOLUTE
    ../clib/microlib/longlong.c              0x00000000   Number         0  llsshr.o ABSOLUTE
    ../clib/microlib/longlong.c              0x00000000   Number         0  llushr.o ABSOLUTE
    ../clib/microlib/longlong.c              0x00000000   Number         0  llshl.o ABSOLUTE
    ../clib/microlib/printf/printf.c         0x00000000   Number         0  printf5.o ABSOLUTE
    ../clib/microlib/printf/printf.c         0x00000000   Number         0  printfa.o ABSOLUTE
    ../clib/microlib/printf/printf.c         0x00000000   Number         0  printf8.o ABSOLUTE
    ../clib/microlib/printf/printf.c         0x00000000   Number         0  printf7.o ABSOLUTE
    ../clib/microlib/printf/printf.c         0x00000000   Number         0  printf6.o ABSOLUTE
    ../clib/microlib/printf/printf.c         0x00000000   Number         0  printf4.o ABSOLUTE
    ../clib/microlib/printf/printf.c         0x00000000   Number         0  printf3.o ABSOLUTE
    ../clib/microlib/printf/printf.c         0x00000000   Number         0  printf2.o ABSOLUTE
    ../clib/microlib/printf/printf.c         0x00000000   Number         0  printf1.o ABSOLUTE
    ../clib/microlib/printf/printf.c         0x00000000   Number         0  printf0.o ABSOLUTE
    ../clib/microlib/printf/printf.c         0x00000000   Number         0  printfb.o ABSOLUTE
    ../clib/microlib/printf/stubs.s          0x00000000   Number         0  stubs.o ABSOLUTE
    ../clib/microlib/stdio/fflush.c          0x00000000   Number         0  fflush.o ABSOLUTE
    ../clib/microlib/stdio/fputc.c           0x00000000   Number         0  fputc.o ABSOLUTE
    ../clib/microlib/stdio/semi.s            0x00000000   Number         0  semi.o ABSOLUTE
    ../clib/microlib/stdio/streams.c         0x00000000   Number         0  stdout.o ABSOLUTE
    ../clib/microlib/string/memcmp.c         0x00000000   Number         0  memcmp.o ABSOLUTE
    ../clib/microlib/string/memcpy.c         0x00000000   Number         0  memcpya.o ABSOLUTE
    ../clib/microlib/string/memcpy.c         0x00000000   Number         0  memcpyb.o ABSOLUTE
    ../clib/microlib/string/memset.c         0x00000000   Number         0  memseta.o ABSOLUTE
    ../clib/microlib/string/strcmp.c         0x00000000   Number         0  strcmp.o ABSOLUTE
    ../clib/microlib/string/strcpy.c         0x00000000   Number         0  strcpy.o ABSOLUTE
    ../clib/microlib/string/strlen.c         0x00000000   Number         0  strlen.o ABSOLUTE
    ../clib/microlib/stubs.s                 0x00000000   Number         0  iusefp.o ABSOLUTE
    ../clib/microlib/stubs.s                 0x00000000   Number         0  iusesemip.o ABSOLUTE
    ../clib/microlib/stubs.s                 0x00000000   Number         0  useno.o ABSOLUTE
    ../fplib/microlib/fpadd.c                0x00000000   Number         0  dadd.o ABSOLUTE
    ../fplib/microlib/fpdiv.c                0x00000000   Number         0  ddiv.o ABSOLUTE
    ../fplib/microlib/fpepilogue.c           0x00000000   Number         0  depilogue.o ABSOLUTE
    ../fplib/microlib/fpfix.c                0x00000000   Number         0  dfixul.o ABSOLUTE
    ../fplib/microlib/fpmul.c                0x00000000   Number         0  dmul.o ABSOLUTE
    ..\..\..\..\..\..\components\ble\ble_advertising\ble_advertising.c 0x00000000   Number         0  ble_advertising.o ABSOLUTE
    ..\..\..\..\..\..\components\ble\common\ble_advdata.c 0x00000000   Number         0  ble_advdata.o ABSOLUTE
    ..\..\..\..\..\..\components\ble\common\ble_conn_params.c 0x00000000   Number         0  ble_conn_params.o ABSOLUTE
    ..\..\..\..\..\..\components\ble\common\ble_conn_state.c 0x00000000   Number         0  ble_conn_state.o ABSOLUTE
    ..\..\..\..\..\..\components\ble\common\ble_srv_common.c 0x00000000   Number         0  ble_srv_common.o ABSOLUTE
    ..\..\..\..\..\..\components\ble\nrf_ble_gatt\nrf_ble_gatt.c 0x00000000   Number         0  nrf_ble_gatt.o ABSOLUTE
    ..\..\..\..\..\..\components\ble\nrf_ble_qwr\nrf_ble_qwr.c 0x00000000   Number         0  nrf_ble_qwr.o ABSOLUTE
    ..\..\..\..\..\..\components\ble\peer_manager\auth_status_tracker.c 0x00000000   Number         0  auth_status_tracker.o ABSOLUTE
    ..\..\..\..\..\..\components\ble\peer_manager\gatt_cache_manager.c 0x00000000   Number         0  gatt_cache_manager.o ABSOLUTE
    ..\..\..\..\..\..\components\ble\peer_manager\gatts_cache_manager.c 0x00000000   Number         0  gatts_cache_manager.o ABSOLUTE
    ..\..\..\..\..\..\components\ble\peer_manager\id_manager.c 0x00000000   Number         0  id_manager.o ABSOLUTE
    ..\..\..\..\..\..\components\ble\peer_manager\peer_data_storage.c 0x00000000   Number         0  peer_data_storage.o ABSOLUTE
    ..\..\..\..\..\..\components\ble\peer_manager\peer_database.c 0x00000000   Number         0  peer_database.o ABSOLUTE
    ..\..\..\..\..\..\components\ble\peer_manager\peer_id.c 0x00000000   Number         0  peer_id.o ABSOLUTE
    ..\..\..\..\..\..\components\ble\peer_manager\peer_manager.c 0x00000000   Number         0  peer_manager.o ABSOLUTE
    ..\..\..\..\..\..\components\ble\peer_manager\peer_manager_handler.c 0x00000000   Number         0  peer_manager_handler.o ABSOLUTE
    ..\..\..\..\..\..\components\ble\peer_manager\pm_buffer.c 0x00000000   Number         0  pm_buffer.o ABSOLUTE
    ..\..\..\..\..\..\components\ble\peer_manager\security_dispatcher.c 0x00000000   Number         0  security_dispatcher.o ABSOLUTE
    ..\..\..\..\..\..\components\ble\peer_manager\security_manager.c 0x00000000   Number         0  security_manager.o ABSOLUTE
    ..\..\..\..\..\..\components\boards\boards.c 0x00000000   Number         0  boards.o ABSOLUTE
    ..\..\..\..\..\..\components\libraries\atomic\nrf_atomic.c 0x00000000   Number         0  nrf_atomic.o ABSOLUTE
    ..\..\..\..\..\..\components\libraries\atomic_fifo\nrf_atfifo.c 0x00000000   Number         0  nrf_atfifo.o ABSOLUTE
    ..\..\..\..\..\..\components\libraries\atomic_flags\nrf_atflags.c 0x00000000   Number         0  nrf_atflags.o ABSOLUTE
    ..\..\..\..\..\..\components\libraries\balloc\nrf_balloc.c 0x00000000   Number         0  nrf_balloc.o ABSOLUTE
    ..\..\..\..\..\..\components\libraries\bsp\bsp.c 0x00000000   Number         0  bsp.o ABSOLUTE
    ..\..\..\..\..\..\components\libraries\bsp\bsp_btn_ble.c 0x00000000   Number         0  bsp_btn_ble.o ABSOLUTE
    ..\..\..\..\..\..\components\libraries\button\app_button.c 0x00000000   Number         0  app_button.o ABSOLUTE
    ..\..\..\..\..\..\components\libraries\crc16\crc16.c 0x00000000   Number         0  crc16.o ABSOLUTE
    ..\..\..\..\..\..\components\libraries\experimental_section_vars\nrf_section_iter.c 0x00000000   Number         0  nrf_section_iter.o ABSOLUTE
    ..\..\..\..\..\..\components\libraries\fds\fds.c 0x00000000   Number         0  fds.o ABSOLUTE
    ..\..\..\..\..\..\components\libraries\fstorage\nrf_fstorage.c 0x00000000   Number         0  nrf_fstorage.o ABSOLUTE
    ..\..\..\..\..\..\components\libraries\fstorage\nrf_fstorage_sd.c 0x00000000   Number         0  nrf_fstorage_sd.o ABSOLUTE
    ..\..\..\..\..\..\components\libraries\hardfault\hardfault_implementation.c 0x00000000   Number         0  hardfault_implementation.o ABSOLUTE
    ..\..\..\..\..\..\components\libraries\log\src\nrf_log_backend_rtt.c 0x00000000   Number         0  nrf_log_backend_rtt.o ABSOLUTE
    ..\..\..\..\..\..\components\libraries\log\src\nrf_log_backend_serial.c 0x00000000   Number         0  nrf_log_backend_serial.o ABSOLUTE
    ..\..\..\..\..\..\components\libraries\log\src\nrf_log_backend_uart.c 0x00000000   Number         0  nrf_log_backend_uart.o ABSOLUTE
    ..\..\..\..\..\..\components\libraries\log\src\nrf_log_default_backends.c 0x00000000   Number         0  nrf_log_default_backends.o ABSOLUTE
    ..\..\..\..\..\..\components\libraries\log\src\nrf_log_frontend.c 0x00000000   Number         0  nrf_log_frontend.o ABSOLUTE
    ..\..\..\..\..\..\components\libraries\log\src\nrf_log_str_formatter.c 0x00000000   Number         0  nrf_log_str_formatter.o ABSOLUTE
    ..\..\..\..\..\..\components\libraries\memobj\nrf_memobj.c 0x00000000   Number         0  nrf_memobj.o ABSOLUTE
    ..\..\..\..\..\..\components\libraries\pwr_mgmt\nrf_pwr_mgmt.c 0x00000000   Number         0  nrf_pwr_mgmt.o ABSOLUTE
    ..\..\..\..\..\..\components\libraries\ringbuf\nrf_ringbuf.c 0x00000000   Number         0  nrf_ringbuf.o ABSOLUTE
    ..\..\..\..\..\..\components\libraries\scheduler\app_scheduler.c 0x00000000   Number         0  app_scheduler.o ABSOLUTE
    ..\..\..\..\..\..\components\libraries\sensorsim\sensorsim.c 0x00000000   Number         0  sensorsim.o ABSOLUTE
    ..\..\..\..\..\..\components\libraries\sortlist\nrf_sortlist.c 0x00000000   Number         0  nrf_sortlist.o ABSOLUTE
    ..\..\..\..\..\..\components\libraries\strerror\nrf_strerror.c 0x00000000   Number         0  nrf_strerror.o ABSOLUTE
    ..\..\..\..\..\..\components\libraries\timer\app_timer2.c 0x00000000   Number         0  app_timer2.o ABSOLUTE
    ..\..\..\..\..\..\components\libraries\timer\drv_rtc.c 0x00000000   Number         0  drv_rtc.o ABSOLUTE
    ..\..\..\..\..\..\components\libraries\util\app_error.c 0x00000000   Number         0  app_error.o ABSOLUTE
    ..\..\..\..\..\..\components\libraries\util\app_error_handler_keil.c 0x00000000   Number         0  app_error_handler_keil.o ABSOLUTE
    ..\..\..\..\..\..\components\libraries\util\app_error_weak.c 0x00000000   Number         0  app_error_weak.o ABSOLUTE
    ..\..\..\..\..\..\components\libraries\util\app_util_platform.c 0x00000000   Number         0  app_util_platform.o ABSOLUTE
    ..\..\..\..\..\..\components\libraries\util\nrf_assert.c 0x00000000   Number         0  nrf_assert.o ABSOLUTE
    ..\..\..\..\..\..\components\softdevice\common\nrf_sdh.c 0x00000000   Number         0  nrf_sdh.o ABSOLUTE
    ..\..\..\..\..\..\components\softdevice\common\nrf_sdh_ble.c 0x00000000   Number         0  nrf_sdh_ble.o ABSOLUTE
    ..\..\..\..\..\..\components\softdevice\common\nrf_sdh_soc.c 0x00000000   Number         0  nrf_sdh_soc.o ABSOLUTE
    ..\..\..\..\..\..\external\fprintf\nrf_fprintf.c 0x00000000   Number         0  nrf_fprintf.o ABSOLUTE
    ..\..\..\..\..\..\external\fprintf\nrf_fprintf_format.c 0x00000000   Number         0  nrf_fprintf_format.o ABSOLUTE
    ..\..\..\..\..\..\external\segger_rtt\SEGGER_RTT.c 0x00000000   Number         0  segger_rtt.o ABSOLUTE
    ..\..\..\..\..\..\external\segger_rtt\SEGGER_RTT_Syscalls_KEIL.c 0x00000000   Number         0  segger_rtt_syscalls_keil.o ABSOLUTE
    ..\..\..\..\..\..\external\segger_rtt\SEGGER_RTT_printf.c 0x00000000   Number         0  segger_rtt_printf.o ABSOLUTE
    ..\..\..\..\..\..\external\utf_converter\utf.c 0x00000000   Number         0  utf.o ABSOLUTE
    ..\..\..\..\..\..\integration\nrfx\legacy\nrf_drv_clock.c 0x00000000   Number         0  nrf_drv_clock.o ABSOLUTE
    ..\..\..\..\..\..\integration\nrfx\legacy\nrf_drv_uart.c 0x00000000   Number         0  nrf_drv_uart.o ABSOLUTE
    ..\..\..\..\..\..\modules\nrfx\drivers\src\nrfx_clock.c 0x00000000   Number         0  nrfx_clock.o ABSOLUTE
    ..\..\..\..\..\..\modules\nrfx\drivers\src\nrfx_gpiote.c 0x00000000   Number         0  nrfx_gpiote.o ABSOLUTE
    ..\..\..\..\..\..\modules\nrfx\drivers\src\nrfx_uart.c 0x00000000   Number         0  nrfx_uart.o ABSOLUTE
    ..\..\..\..\..\..\modules\nrfx\drivers\src\nrfx_uarte.c 0x00000000   Number         0  nrfx_uarte.o ABSOLUTE
    ..\..\..\..\..\..\modules\nrfx\drivers\src\prs\nrfx_prs.c 0x00000000   Number         0  nrfx_prs.o ABSOLUTE
    ..\..\..\..\..\..\modules\nrfx\soc\nrfx_atomic.c 0x00000000   Number         0  nrfx_atomic.o ABSOLUTE
    ..\..\..\main.c                          0x00000000   Number         0  main.o ABSOLUTE
    ..\\..\\..\\..\\..\\..\\components\\ble\\ble_advertising\\ble_advertising.c 0x00000000   Number         0  ble_advertising.o ABSOLUTE
    ..\\..\\..\\..\\..\\..\\components\\ble\\common\\ble_advdata.c 0x00000000   Number         0  ble_advdata.o ABSOLUTE
    ..\\..\\..\\..\\..\\..\\components\\ble\\common\\ble_conn_params.c 0x00000000   Number         0  ble_conn_params.o ABSOLUTE
    ..\\..\\..\\..\\..\\..\\components\\ble\\common\\ble_conn_state.c 0x00000000   Number         0  ble_conn_state.o ABSOLUTE
    ..\\..\\..\\..\\..\\..\\components\\ble\\common\\ble_srv_common.c 0x00000000   Number         0  ble_srv_common.o ABSOLUTE
    ..\\..\\..\\..\\..\\..\\components\\ble\\nrf_ble_gatt\\nrf_ble_gatt.c 0x00000000   Number         0  nrf_ble_gatt.o ABSOLUTE
    ..\\..\\..\\..\\..\\..\\components\\ble\\nrf_ble_qwr\\nrf_ble_qwr.c 0x00000000   Number         0  nrf_ble_qwr.o ABSOLUTE
    ..\\..\\..\\..\\..\\..\\components\\ble\\peer_manager\\auth_status_tracker.c 0x00000000   Number         0  auth_status_tracker.o ABSOLUTE
    ..\\..\\..\\..\\..\\..\\components\\ble\\peer_manager\\gatt_cache_manager.c 0x00000000   Number         0  gatt_cache_manager.o ABSOLUTE
    ..\\..\\..\\..\\..\\..\\components\\ble\\peer_manager\\gatts_cache_manager.c 0x00000000   Number         0  gatts_cache_manager.o ABSOLUTE
    ..\\..\\..\\..\\..\\..\\components\\ble\\peer_manager\\id_manager.c 0x00000000   Number         0  id_manager.o ABSOLUTE
    ..\\..\\..\\..\\..\\..\\components\\ble\\peer_manager\\peer_data_storage.c 0x00000000   Number         0  peer_data_storage.o ABSOLUTE
    ..\\..\\..\\..\\..\\..\\components\\ble\\peer_manager\\peer_database.c 0x00000000   Number         0  peer_database.o ABSOLUTE
    ..\\..\\..\\..\\..\\..\\components\\ble\\peer_manager\\peer_id.c 0x00000000   Number         0  peer_id.o ABSOLUTE
    ..\\..\\..\\..\\..\\..\\components\\ble\\peer_manager\\peer_manager.c 0x00000000   Number         0  peer_manager.o ABSOLUTE
    ..\\..\\..\\..\\..\\..\\components\\ble\\peer_manager\\peer_manager_handler.c 0x00000000   Number         0  peer_manager_handler.o ABSOLUTE
    ..\\..\\..\\..\\..\\..\\components\\ble\\peer_manager\\pm_buffer.c 0x00000000   Number         0  pm_buffer.o ABSOLUTE
    ..\\..\\..\\..\\..\\..\\components\\ble\\peer_manager\\security_dispatcher.c 0x00000000   Number         0  security_dispatcher.o ABSOLUTE
    ..\\..\\..\\..\\..\\..\\components\\ble\\peer_manager\\security_manager.c 0x00000000   Number         0  security_manager.o ABSOLUTE
    ..\\..\\..\\..\\..\\..\\components\\boards\\boards.c 0x00000000   Number         0  boards.o ABSOLUTE
    ..\\..\\..\\..\\..\\..\\components\\libraries\\atomic\\nrf_atomic.c 0x00000000   Number         0  nrf_atomic.o ABSOLUTE
    ..\\..\\..\\..\\..\\..\\components\\libraries\\atomic_fifo\\nrf_atfifo.c 0x00000000   Number         0  nrf_atfifo.o ABSOLUTE
    ..\\..\\..\\..\\..\\..\\components\\libraries\\atomic_flags\\nrf_atflags.c 0x00000000   Number         0  nrf_atflags.o ABSOLUTE
    ..\\..\\..\\..\\..\\..\\components\\libraries\\balloc\\nrf_balloc.c 0x00000000   Number         0  nrf_balloc.o ABSOLUTE
    ..\\..\\..\\..\\..\\..\\components\\libraries\\bsp\\bsp.c 0x00000000   Number         0  bsp.o ABSOLUTE
    ..\\..\\..\\..\\..\\..\\components\\libraries\\bsp\\bsp_btn_ble.c 0x00000000   Number         0  bsp_btn_ble.o ABSOLUTE
    ..\\..\\..\\..\\..\\..\\components\\libraries\\button\\app_button.c 0x00000000   Number         0  app_button.o ABSOLUTE
    ..\\..\\..\\..\\..\\..\\components\\libraries\\crc16\\crc16.c 0x00000000   Number         0  crc16.o ABSOLUTE
    ..\\..\\..\\..\\..\\..\\components\\libraries\\experimental_section_vars\\nrf_section_iter.c 0x00000000   Number         0  nrf_section_iter.o ABSOLUTE
    ..\\..\\..\\..\\..\\..\\components\\libraries\\fds\\fds.c 0x00000000   Number         0  fds.o ABSOLUTE
    ..\\..\\..\\..\\..\\..\\components\\libraries\\fstorage\\nrf_fstorage.c 0x00000000   Number         0  nrf_fstorage.o ABSOLUTE
    ..\\..\\..\\..\\..\\..\\components\\libraries\\fstorage\\nrf_fstorage_sd.c 0x00000000   Number         0  nrf_fstorage_sd.o ABSOLUTE
    ..\\..\\..\\..\\..\\..\\components\\libraries\\hardfault\\hardfault_implementation.c 0x00000000   Number         0  hardfault_implementation.o ABSOLUTE
    ..\\..\\..\\..\\..\\..\\components\\libraries\\log\\src\\nrf_log_backend_rtt.c 0x00000000   Number         0  nrf_log_backend_rtt.o ABSOLUTE
    ..\\..\\..\\..\\..\\..\\components\\libraries\\log\\src\\nrf_log_backend_serial.c 0x00000000   Number         0  nrf_log_backend_serial.o ABSOLUTE
    ..\\..\\..\\..\\..\\..\\components\\libraries\\log\\src\\nrf_log_backend_uart.c 0x00000000   Number         0  nrf_log_backend_uart.o ABSOLUTE
    ..\\..\\..\\..\\..\\..\\components\\libraries\\log\\src\\nrf_log_default_backends.c 0x00000000   Number         0  nrf_log_default_backends.o ABSOLUTE
    ..\\..\\..\\..\\..\\..\\components\\libraries\\log\\src\\nrf_log_frontend.c 0x00000000   Number         0  nrf_log_frontend.o ABSOLUTE
    ..\\..\\..\\..\\..\\..\\components\\libraries\\log\\src\\nrf_log_str_formatter.c 0x00000000   Number         0  nrf_log_str_formatter.o ABSOLUTE
    ..\\..\\..\\..\\..\\..\\components\\libraries\\memobj\\nrf_memobj.c 0x00000000   Number         0  nrf_memobj.o ABSOLUTE
    ..\\..\\..\\..\\..\\..\\components\\libraries\\pwr_mgmt\\nrf_pwr_mgmt.c 0x00000000   Number         0  nrf_pwr_mgmt.o ABSOLUTE
    ..\\..\\..\\..\\..\\..\\components\\libraries\\ringbuf\\nrf_ringbuf.c 0x00000000   Number         0  nrf_ringbuf.o ABSOLUTE
    ..\\..\\..\\..\\..\\..\\components\\libraries\\scheduler\\app_scheduler.c 0x00000000   Number         0  app_scheduler.o ABSOLUTE
    ..\\..\\..\\..\\..\\..\\components\\libraries\\sortlist\\nrf_sortlist.c 0x00000000   Number         0  nrf_sortlist.o ABSOLUTE
    ..\\..\\..\\..\\..\\..\\components\\libraries\\strerror\\nrf_strerror.c 0x00000000   Number         0  nrf_strerror.o ABSOLUTE
    ..\\..\\..\\..\\..\\..\\components\\libraries\\timer\\app_timer2.c 0x00000000   Number         0  app_timer2.o ABSOLUTE
    ..\\..\\..\\..\\..\\..\\components\\libraries\\timer\\drv_rtc.c 0x00000000   Number         0  drv_rtc.o ABSOLUTE
    ..\\..\\..\\..\\..\\..\\components\\libraries\\util\\app_error.c 0x00000000   Number         0  app_error.o ABSOLUTE
    ..\\..\\..\\..\\..\\..\\components\\libraries\\util\\app_error_handler_keil.c 0x00000000   Number         0  app_error_handler_keil.o ABSOLUTE
    ..\\..\\..\\..\\..\\..\\components\\libraries\\util\\app_error_weak.c 0x00000000   Number         0  app_error_weak.o ABSOLUTE
    ..\\..\\..\\..\\..\\..\\components\\libraries\\util\\app_util_platform.c 0x00000000   Number         0  app_util_platform.o ABSOLUTE
    ..\\..\\..\\..\\..\\..\\components\\libraries\\util\\nrf_assert.c 0x00000000   Number         0  nrf_assert.o ABSOLUTE
    ..\\..\\..\\..\\..\\..\\components\\softdevice\\common\\nrf_sdh.c 0x00000000   Number         0  nrf_sdh.o ABSOLUTE
    ..\\..\\..\\..\\..\\..\\components\\softdevice\\common\\nrf_sdh_ble.c 0x00000000   Number         0  nrf_sdh_ble.o ABSOLUTE
    ..\\..\\..\\..\\..\\..\\components\\softdevice\\common\\nrf_sdh_soc.c 0x00000000   Number         0  nrf_sdh_soc.o ABSOLUTE
    ..\\..\\..\\..\\..\\..\\external\\fprintf\\nrf_fprintf.c 0x00000000   Number         0  nrf_fprintf.o ABSOLUTE
    ..\\..\\..\\..\\..\\..\\external\\fprintf\\nrf_fprintf_format.c 0x00000000   Number         0  nrf_fprintf_format.o ABSOLUTE
    ..\\..\\..\\..\\..\\..\\external\\segger_rtt\\SEGGER_RTT.c 0x00000000   Number         0  segger_rtt.o ABSOLUTE
    ..\\..\\..\\..\\..\\..\\external\\segger_rtt\\SEGGER_RTT_Syscalls_KEIL.c 0x00000000   Number         0  segger_rtt_syscalls_keil.o ABSOLUTE
    ..\\..\\..\\..\\..\\..\\external\\segger_rtt\\SEGGER_RTT_printf.c 0x00000000   Number         0  segger_rtt_printf.o ABSOLUTE
    ..\\..\\..\\..\\..\\..\\integration\\nrfx\\legacy\\nrf_drv_clock.c 0x00000000   Number         0  nrf_drv_clock.o ABSOLUTE
    ..\\..\\..\\..\\..\\..\\integration\\nrfx\\legacy\\nrf_drv_uart.c 0x00000000   Number         0  nrf_drv_uart.o ABSOLUTE
    ..\\..\\..\\..\\..\\..\\modules\\nrfx\\drivers\\src\\nrfx_clock.c 0x00000000   Number         0  nrfx_clock.o ABSOLUTE
    ..\\..\\..\\..\\..\\..\\modules\\nrfx\\drivers\\src\\nrfx_gpiote.c 0x00000000   Number         0  nrfx_gpiote.o ABSOLUTE
    ..\\..\\..\\..\\..\\..\\modules\\nrfx\\drivers\\src\\nrfx_uart.c 0x00000000   Number         0  nrfx_uart.o ABSOLUTE
    ..\\..\\..\\..\\..\\..\\modules\\nrfx\\drivers\\src\\nrfx_uarte.c 0x00000000   Number         0  nrfx_uarte.o ABSOLUTE
    ..\\..\\..\\..\\..\\..\\modules\\nrfx\\drivers\\src\\prs\\nrfx_prs.c 0x00000000   Number         0  nrfx_prs.o ABSOLUTE
    ..\\..\\..\\..\\..\\..\\modules\\nrfx\\soc\\nrfx_atomic.c 0x00000000   Number         0  nrfx_atomic.o ABSOLUTE
    ..\\..\\..\\main.c                       0x00000000   Number         0  main.o ABSOLUTE
    RTE\Device\nRF52805_xxAA\arm_startup_nrf52805.s 0x00000000   Number         0  arm_startup_nrf52805.o ABSOLUTE
    RTE\Device\nRF52805_xxAA\system_nrf52805.c 0x00000000   Number         0  system_nrf52805.o ABSOLUTE
    RTE\\Device\\nRF52805_xxAA\\system_nrf52805.c 0x00000000   Number         0  system_nrf52805.o ABSOLUTE
    cdrcmple.s                               0x00000000   Number         0  cdrcmple.o ABSOLUTE
    dc.s                                     0x00000000   Number         0  dc.o ABSOLUTE
    handlers.s                               0x00000000   Number         0  handlers.o ABSOLUTE
    init.s                                   0x00000000   Number         0  init.o ABSOLUTE
    RESET                                    0x00019000   Section      512  arm_startup_nrf52805.o(RESET)
    .ARM.Collect$$$$00000000                 0x00019200   Section        0  entry.o(.ARM.Collect$$$$00000000)
    .ARM.Collect$$$$00000001                 0x00019200   Section        4  entry2.o(.ARM.Collect$$$$00000001)
    .ARM.Collect$$$$00000004                 0x00019204   Section        4  entry5.o(.ARM.Collect$$$$00000004)
    .ARM.Collect$$$$00000008                 0x00019208   Section        0  entry7b.o(.ARM.Collect$$$$00000008)
    .ARM.Collect$$$$0000000A                 0x00019208   Section        0  entry8b.o(.ARM.Collect$$$$0000000A)
    .ARM.Collect$$$$0000000B                 0x00019208   Section        8  entry9a.o(.ARM.Collect$$$$0000000B)
    .ARM.Collect$$$$0000000D                 0x00019210   Section        0  entry10a.o(.ARM.Collect$$$$0000000D)
    .ARM.Collect$$$$0000000F                 0x00019210   Section        0  entry11a.o(.ARM.Collect$$$$0000000F)
    .ARM.Collect$$$$00002712                 0x00019210   Section        4  entry2.o(.ARM.Collect$$$$00002712)
    __lit__00000000                          0x00019210   Data           4  entry2.o(.ARM.Collect$$$$00002712)
    .emb_text                                0x00019214   Section      200  nrf_atfifo.o(.emb_text)
    .emb_text                                0x000192dc   Section      226  nrf_atomic.o(.emb_text)
    .text                                    0x000193c0   Section       36  arm_startup_nrf52805.o(.text)
    .text                                    0x000193e4   Section        0  llshl.o(.text)
    .text                                    0x00019404   Section        0  ctype_o.o(.text)
    .text                                    0x0001940c   Section        0  memcpya.o(.text)
    .text                                    0x00019430   Section        0  memseta.o(.text)
    .text                                    0x00019454   Section        0  strlen.o(.text)
    .text                                    0x00019462   Section        0  memcmp.o(.text)
    .text                                    0x0001947c   Section        0  strcpy.o(.text)
    .text                                    0x00019490   Section       36  init.o(.text)
    .text                                    0x000194b4   Section        0  __dczerorl2.o(.text)
    i.GPIOTE_IRQHandler                      0x0001950c   Section        0  nrfx_gpiote.o(i.GPIOTE_IRQHandler)
    i.POWER_CLOCK_IRQHandler                 0x000195c8   Section        0  nrfx_clock.o(i.POWER_CLOCK_IRQHandler)
    i.RTC1_IRQHandler                        0x00019610   Section        0  drv_rtc.o(i.RTC1_IRQHandler)
    i.SEGGER_RTT_Init                        0x00019628   Section        0  segger_rtt.o(i.SEGGER_RTT_Init)
    i.SEGGER_RTT_WriteNoLock                 0x00019630   Section        0  segger_rtt.o(i.SEGGER_RTT_WriteNoLock)
    i.SWI2_IRQHandler                        0x000196b4   Section        0  nrf_sdh.o(i.SWI2_IRQHandler)
    i.SystemCoreClockUpdate                  0x000196bc   Section        0  system_nrf52805.o(i.SystemCoreClockUpdate)
    i.SystemInit                             0x000196cc   Section        0  system_nrf52805.o(i.SystemInit)
    i.UARTE0_UART0_IRQHandler                0x000198a4   Section        0  nrfx_prs.o(i.UARTE0_UART0_IRQHandler)
    i._DoInit                                0x000198b4   Section        0  segger_rtt.o(i._DoInit)
    _DoInit                                  0x000198b5   Thumb Code    74  segger_rtt.o(i._DoInit)
    i._GetAvailWriteSpace                    0x00019924   Section        0  segger_rtt.o(i._GetAvailWriteSpace)
    _GetAvailWriteSpace                      0x00019925   Thumb Code    28  segger_rtt.o(i._GetAvailWriteSpace)
    i._WriteBlocking                         0x00019940   Section        0  segger_rtt.o(i._WriteBlocking)
    _WriteBlocking                           0x00019941   Thumb Code   114  segger_rtt.o(i._WriteBlocking)
    i._WriteNoCheck                          0x000199b2   Section        0  segger_rtt.o(i._WriteNoCheck)
    _WriteNoCheck                            0x000199b3   Thumb Code    76  segger_rtt.o(i._WriteNoCheck)
    i.__scatterload_copy                     0x000199fe   Section       14  handlers.o(i.__scatterload_copy)
    i.__scatterload_null                     0x00019a0c   Section        2  handlers.o(i.__scatterload_null)
    i.__scatterload_zeroinit                 0x00019a0e   Section       14  handlers.o(i.__scatterload_zeroinit)
    i.__sd_nvic_app_accessible_irq           0x00019a1c   Section        0  nrf_sdh.o(i.__sd_nvic_app_accessible_irq)
    __sd_nvic_app_accessible_irq             0x00019a1d   Thumb Code    52  nrf_sdh.o(i.__sd_nvic_app_accessible_irq)
    i.__sd_nvic_irq_disable                  0x00019a54   Section        0  app_util_platform.o(i.__sd_nvic_irq_disable)
    __sd_nvic_irq_disable                    0x00019a55   Thumb Code    12  app_util_platform.o(i.__sd_nvic_irq_disable)
    i._conn_secure                           0x00019a60   Section        0  peer_manager_handler.o(i._conn_secure)
    _conn_secure                             0x00019a61   Thumb Code   262  peer_manager_handler.o(i._conn_secure)
    i.addr_compare                           0x00019bf0   Section        0  id_manager.o(i.addr_compare)
    i.addr_is_aligned32                      0x00019c22   Section        0  nrf_fstorage.o(i.addr_is_aligned32)
    addr_is_aligned32                        0x00019c23   Thumb Code    16  nrf_fstorage.o(i.addr_is_aligned32)
    i.addr_is_page_aligned                   0x00019c32   Section        0  nrf_fstorage.o(i.addr_is_page_aligned)
    addr_is_page_aligned                     0x00019c33   Thumb Code    20  nrf_fstorage.o(i.addr_is_page_aligned)
    i.addr_is_valid                          0x00019c46   Section        0  ble_advertising.o(i.addr_is_valid)
    addr_is_valid                            0x00019c47   Thumb Code    24  ble_advertising.o(i.addr_is_valid)
    i.addr_is_within_bounds                  0x00019c5e   Section        0  nrf_fstorage.o(i.addr_is_within_bounds)
    addr_is_within_bounds                    0x00019c5f   Thumb Code    28  nrf_fstorage.o(i.addr_is_within_bounds)
    i.address_is_valid                       0x00019c7c   Section        0  fds.o(i.address_is_valid)
    address_is_valid                         0x00019c7d   Thumb Code    38  fds.o(i.address_is_valid)
    i.adv_mode_next_avail_get                0x00019ca8   Section        0  ble_advertising.o(i.adv_mode_next_avail_get)
    adv_mode_next_avail_get                  0x00019ca9   Thumb Code    88  ble_advertising.o(i.adv_mode_next_avail_get)
    i.adv_mode_next_get                      0x00019d00   Section        0  ble_advertising.o(i.adv_mode_next_get)
    adv_mode_next_get                        0x00019d01   Thumb Code    18  ble_advertising.o(i.adv_mode_next_get)
    i.adv_set_data_size_max_get              0x00019d12   Section        0  ble_advertising.o(i.adv_set_data_size_max_get)
    adv_set_data_size_max_get                0x00019d13   Thumb Code    18  ble_advertising.o(i.adv_set_data_size_max_get)
    i.advertising_buttons_configure          0x00019d24   Section        0  bsp_btn_ble.o(i.advertising_buttons_configure)
    advertising_buttons_configure            0x00019d25   Thumb Code    84  bsp_btn_ble.o(i.advertising_buttons_configure)
    i.advertising_init                       0x00019d78   Section        0  main.o(i.advertising_init)
    advertising_init                         0x00019d79   Thumb Code   102  main.o(i.advertising_init)
    i.advertising_start                      0x00019dec   Section        0  main.o(i.advertising_start)
    advertising_start                        0x00019ded   Thumb Code    46  main.o(i.advertising_start)
    i.ah                                     0x00019e20   Section        0  id_manager.o(i.ah)
    i.allow_repairing                        0x00019e78   Section        0  security_dispatcher.o(i.allow_repairing)
    allow_repairing                          0x00019e79   Thumb Code    16  security_dispatcher.o(i.allow_repairing)
    i.app_button_enable                      0x00019e8c   Section        0  app_button.o(i.app_button_enable)
    i.app_button_init                        0x00019eb8   Section        0  app_button.o(i.app_button_init)
    i.app_error_fault_handler                0x00019f68   Section        0  app_error_weak.o(i.app_error_fault_handler)
    i.app_error_handler_bare                 0x0001a024   Section        0  app_error.o(i.app_error_handler_bare)
    i.app_timer_cnt_get                      0x0001a040   Section        0  app_timer2.o(i.app_timer_cnt_get)
    i.app_timer_create                       0x0001a050   Section        0  app_timer2.o(i.app_timer_create)
    i.app_timer_init                         0x0001a070   Section        0  app_timer2.o(i.app_timer_init)
    i.app_timer_start                        0x0001a0dc   Section        0  app_timer2.o(i.app_timer_start)
    i.app_timer_stop                         0x0001a112   Section        0  app_timer2.o(i.app_timer_stop)
    i.app_util_critical_region_enter         0x0001a126   Section        0  app_util_platform.o(i.app_util_critical_region_enter)
    i.app_util_critical_region_exit          0x0001a134   Section        0  app_util_platform.o(i.app_util_critical_region_exit)
    i.appearance_encode                      0x0001a17c   Section        0  ble_advdata.o(i.appearance_encode)
    appearance_encode                        0x0001a17d   Thumb Code    82  ble_advdata.o(i.appearance_encode)
    i.application_timers_start               0x0001a1ce   Section        0  main.o(i.application_timers_start)
    application_timers_start                 0x0001a1cf   Thumb Code     2  main.o(i.application_timers_start)
    i.apply_config                           0x0001a1d0   Section        0  nrfx_uart.o(i.apply_config)
    apply_config                             0x0001a1d1   Thumb Code   124  nrfx_uart.o(i.apply_config)
    i.apply_config                           0x0001a24c   Section        0  nrfx_uarte.o(i.apply_config)
    apply_config                             0x0001a24d   Thumb Code   124  nrfx_uarte.o(i.apply_config)
    i.apply_pending_handle                   0x0001a2c8   Section        0  gatt_cache_manager.o(i.apply_pending_handle)
    apply_pending_handle                     0x0001a2c9   Thumb Code    14  gatt_cache_manager.o(i.apply_pending_handle)
    i.auth_status_failure_process            0x0001a2d6   Section        0  security_dispatcher.o(i.auth_status_failure_process)
    auth_status_failure_process              0x0001a2d7   Thumb Code    20  security_dispatcher.o(i.auth_status_failure_process)
    i.auth_status_process                    0x0001a2ea   Section        0  security_dispatcher.o(i.auth_status_process)
    auth_status_process                      0x0001a2eb   Thumb Code    28  security_dispatcher.o(i.auth_status_process)
    i.auth_status_success_process            0x0001a308   Section        0  security_dispatcher.o(i.auth_status_success_process)
    auth_status_success_process              0x0001a309   Thumb Code   372  security_dispatcher.o(i.auth_status_success_process)
    i.backend_id_assign                      0x0001a4c4   Section        0  nrf_log_frontend.o(i.backend_id_assign)
    backend_id_assign                        0x0001a4c5   Thumb Code    56  nrf_log_frontend.o(i.backend_id_assign)
    i.ble_advdata_encode                     0x0001a500   Section        0  ble_advdata.o(i.ble_advdata_encode)
    i.ble_advdata_parse                      0x0001a66c   Section        0  ble_advdata.o(i.ble_advdata_parse)
    i.ble_advdata_search                     0x0001a694   Section        0  ble_advdata.o(i.ble_advdata_search)
    i.ble_advertising_conn_cfg_tag_set       0x0001a6f0   Section        0  ble_advertising.o(i.ble_advertising_conn_cfg_tag_set)
    i.ble_advertising_init                   0x0001a6f6   Section        0  ble_advertising.o(i.ble_advertising_init)
    i.ble_advertising_on_ble_evt             0x0001a7f6   Section        0  ble_advertising.o(i.ble_advertising_on_ble_evt)
    i.ble_advertising_restart_without_whitelist 0x0001a832   Section        0  ble_advertising.o(i.ble_advertising_restart_without_whitelist)
    i.ble_advertising_start                  0x0001a87c   Section        0  ble_advertising.o(i.ble_advertising_start)
    i.ble_conn_params_init                   0x0001a9f0   Section        0  ble_conn_params.o(i.ble_conn_params_init)
    i.ble_conn_state_encrypted               0x0001aa8c   Section        0  ble_conn_state.o(i.ble_conn_state_encrypted)
    i.ble_conn_state_for_each_set_user_flag  0x0001aaac   Section        0  ble_conn_state.o(i.ble_conn_state_for_each_set_user_flag)
    i.ble_conn_state_lesc                    0x0001aad4   Section        0  ble_conn_state.o(i.ble_conn_state_lesc)
    i.ble_conn_state_mitm_protected          0x0001aaf4   Section        0  ble_conn_state.o(i.ble_conn_state_mitm_protected)
    i.ble_conn_state_role                    0x0001ab14   Section        0  ble_conn_state.o(i.ble_conn_state_role)
    i.ble_conn_state_status                  0x0001ab28   Section        0  ble_conn_state.o(i.ble_conn_state_status)
    i.ble_conn_state_user_flag_acquire       0x0001ab54   Section        0  ble_conn_state.o(i.ble_conn_state_user_flag_acquire)
    i.ble_conn_state_user_flag_get           0x0001ab70   Section        0  ble_conn_state.o(i.ble_conn_state_user_flag_get)
    i.ble_conn_state_user_flag_set           0x0001ab9c   Section        0  ble_conn_state.o(i.ble_conn_state_user_flag_set)
    i.ble_conn_state_valid                   0x0001abc8   Section        0  ble_conn_state.o(i.ble_conn_state_valid)
    i.ble_device_addr_encode                 0x0001abe4   Section        0  ble_advdata.o(i.ble_device_addr_encode)
    ble_device_addr_encode                   0x0001abe5   Thumb Code   118  ble_advdata.o(i.ble_device_addr_encode)
    i.ble_evt_handler                        0x0001ac5c   Section        0  main.o(i.ble_evt_handler)
    ble_evt_handler                          0x0001ac5d   Thumb Code   300  main.o(i.ble_evt_handler)
    i.ble_evt_handler                        0x0001adf8   Section        0  bsp_btn_ble.o(i.ble_evt_handler)
    ble_evt_handler                          0x0001adf9   Thumb Code   112  bsp_btn_ble.o(i.ble_evt_handler)
    i.ble_evt_handler                        0x0001ae70   Section        0  ble_conn_params.o(i.ble_evt_handler)
    ble_evt_handler                          0x0001ae71   Thumb Code    64  ble_conn_params.o(i.ble_evt_handler)
    i.ble_evt_handler                        0x0001aeb0   Section        0  ble_conn_state.o(i.ble_evt_handler)
    ble_evt_handler                          0x0001aeb1   Thumb Code   162  ble_conn_state.o(i.ble_evt_handler)
    i.ble_evt_handler                        0x0001af58   Section        0  peer_manager.o(i.ble_evt_handler)
    ble_evt_handler                          0x0001af59   Thumb Code    40  peer_manager.o(i.ble_evt_handler)
    i.ble_srv_is_notification_enabled        0x0001af84   Section        0  ble_srv_common.o(i.ble_srv_is_notification_enabled)
    i.ble_stack_init                         0x0001af96   Section        0  main.o(i.ble_stack_init)
    ble_stack_init                           0x0001af97   Thumb Code    86  main.o(i.ble_stack_init)
    i.bsp_board_button_idx_to_pin            0x0001afec   Section        0  boards.o(i.bsp_board_button_idx_to_pin)
    i.bsp_board_button_state_get             0x0001aff8   Section        0  boards.o(i.bsp_board_button_state_get)
    i.bsp_board_pin_to_button_idx            0x0001b028   Section        0  boards.o(i.bsp_board_pin_to_button_idx)
    i.bsp_btn_ble_init                       0x0001b04c   Section        0  bsp_btn_ble.o(i.bsp_btn_ble_init)
    i.bsp_btn_ble_sleep_mode_prepare         0x0001b078   Section        0  bsp_btn_ble.o(i.bsp_btn_ble_sleep_mode_prepare)
    i.bsp_button_event_handler               0x0001b0ac   Section        0  bsp.o(i.bsp_button_event_handler)
    bsp_button_event_handler                 0x0001b0ad   Thumb Code   176  bsp.o(i.bsp_button_event_handler)
    i.bsp_button_is_pressed                  0x0001b170   Section        0  bsp.o(i.bsp_button_is_pressed)
    i.bsp_event_handler                      0x0001b184   Section        0  main.o(i.bsp_event_handler)
    bsp_event_handler                        0x0001b185   Thumb Code   106  main.o(i.bsp_event_handler)
    i.bsp_event_to_button_action_assign      0x0001b1f8   Section        0  bsp.o(i.bsp_event_to_button_action_assign)
    i.bsp_indication_set                     0x0001b254   Section        0  bsp.o(i.bsp_indication_set)
    i.bsp_init                               0x0001b25c   Section        0  bsp.o(i.bsp_init)
    i.bsp_wakeup_button_enable               0x0001b2c8   Section        0  bsp.o(i.bsp_wakeup_button_enable)
    i.buf_prealloc                           0x0001b2d8   Section        0  nrf_log_frontend.o(i.buf_prealloc)
    buf_prealloc                             0x0001b2d9   Thumb Code   220  nrf_log_frontend.o(i.buf_prealloc)
    i.buffer_add                             0x0001b3c0   Section        0  nrf_fprintf_format.o(i.buffer_add)
    buffer_add                               0x0001b3c1   Thumb Code    44  nrf_fprintf_format.o(i.buffer_add)
    i.buffer_is_empty                        0x0001b3ec   Section        0  nrf_log_frontend.o(i.buffer_is_empty)
    i.button_get                             0x0001b404   Section        0  app_button.o(i.button_get)
    button_get                               0x0001b405   Thumb Code    36  app_button.o(i.button_get)
    i.button_timer_handler                   0x0001b430   Section        0  bsp.o(i.button_timer_handler)
    button_timer_handler                     0x0001b431   Thumb Code    14  bsp.o(i.button_timer_handler)
    i.buttons_leds_init                      0x0001b440   Section        0  main.o(i.buttons_leds_init)
    buttons_leds_init                        0x0001b441   Thumb Code    78  main.o(i.buttons_leds_init)
    i.car_update_needed                      0x0001b494   Section        0  gatt_cache_manager.o(i.car_update_needed)
    car_update_needed                        0x0001b495   Thumb Code    40  gatt_cache_manager.o(i.car_update_needed)
    i.car_update_pending_handle              0x0001b4c0   Section        0  gatt_cache_manager.o(i.car_update_pending_handle)
    car_update_pending_handle                0x0001b4c1   Thumb Code    56  gatt_cache_manager.o(i.car_update_pending_handle)
    i.cccd_written                           0x0001b500   Section        0  gatt_cache_manager.o(i.cccd_written)
    cccd_written                             0x0001b501   Thumb Code    32  gatt_cache_manager.o(i.cccd_written)
    i.channel_free                           0x0001b520   Section        0  nrfx_gpiote.o(i.channel_free)
    channel_free                             0x0001b521   Thumb Code    26  nrfx_gpiote.o(i.channel_free)
    i.channel_handler_get                    0x0001b540   Section        0  nrfx_gpiote.o(i.channel_handler_get)
    channel_handler_get                      0x0001b541   Thumb Code    10  nrfx_gpiote.o(i.channel_handler_get)
    i.channel_port_alloc                     0x0001b550   Section        0  nrfx_gpiote.o(i.channel_port_alloc)
    channel_port_alloc                       0x0001b551   Thumb Code   122  nrfx_gpiote.o(i.channel_port_alloc)
    i.channel_port_get                       0x0001b5d0   Section        0  nrfx_gpiote.o(i.channel_port_get)
    channel_port_get                         0x0001b5d1   Thumb Code     8  nrfx_gpiote.o(i.channel_port_get)
    i.claim                                  0x0001b5dc   Section        0  peer_id.o(i.claim)
    claim                                    0x0001b5dd   Thumb Code    76  peer_id.o(i.claim)
    i.clock_clk_started_notify               0x0001b628   Section        0  nrf_drv_clock.o(i.clock_clk_started_notify)
    clock_clk_started_notify                 0x0001b629   Thumb Code    42  nrf_drv_clock.o(i.clock_clk_started_notify)
    i.clock_irq_handler                      0x0001b658   Section        0  nrf_drv_clock.o(i.clock_irq_handler)
    clock_irq_handler                        0x0001b659   Thumb Code    34  nrf_drv_clock.o(i.clock_irq_handler)
    i.compare_func                           0x0001b680   Section        0  app_timer2.o(i.compare_func)
    compare_func                             0x0001b681   Thumb Code    38  app_timer2.o(i.compare_func)
    i.config_is_valid                        0x0001b6a6   Section        0  ble_advertising.o(i.config_is_valid)
    config_is_valid                          0x0001b6a7   Thumb Code    40  ble_advertising.o(i.config_is_valid)
    i.conn_handle_list_get                   0x0001b6ce   Section        0  ble_conn_state.o(i.conn_handle_list_get)
    i.conn_int_check                         0x0001b70a   Section        0  ble_advdata.o(i.conn_int_check)
    conn_int_check                           0x0001b70b   Thumb Code    90  ble_advdata.o(i.conn_int_check)
    i.conn_int_encode                        0x0001b764   Section        0  ble_advdata.o(i.conn_int_encode)
    conn_int_encode                          0x0001b765   Thumb Code   104  ble_advdata.o(i.conn_int_encode)
    i.conn_params_error_handler              0x0001b7cc   Section        0  main.o(i.conn_params_error_handler)
    conn_params_error_handler                0x0001b7cd   Thumb Code    16  main.o(i.conn_params_error_handler)
    i.conn_params_init                       0x0001b7dc   Section        0  main.o(i.conn_params_init)
    conn_params_init                         0x0001b7dd   Thumb Code    82  main.o(i.conn_params_init)
    i.conn_params_negotiation                0x0001b838   Section        0  ble_conn_params.o(i.conn_params_negotiation)
    conn_params_negotiation                  0x0001b839   Thumb Code    78  ble_conn_params.o(i.conn_params_negotiation)
    i.conn_sec_failure                       0x0001b88c   Section        0  security_dispatcher.o(i.conn_sec_failure)
    conn_sec_failure                         0x0001b88d   Thumb Code    60  security_dispatcher.o(i.conn_sec_failure)
    i.conn_sec_update_process                0x0001b8d0   Section        0  security_dispatcher.o(i.conn_sec_update_process)
    conn_sec_update_process                  0x0001b8d1   Thumb Code    84  security_dispatcher.o(i.conn_sec_update_process)
    i.conn_secure                            0x0001b928   Section        0  peer_manager_handler.o(i.conn_secure)
    conn_secure                              0x0001b929   Thumb Code    16  peer_manager_handler.o(i.conn_secure)
    i.connection_buttons_configure           0x0001b938   Section        0  bsp_btn_ble.o(i.connection_buttons_configure)
    connection_buttons_configure             0x0001b939   Thumb Code    84  bsp_btn_ble.o(i.connection_buttons_configure)
    i.db_update_pending_handle               0x0001b98c   Section        0  gatt_cache_manager.o(i.db_update_pending_handle)
    db_update_pending_handle                 0x0001b98d   Thumb Code    70  gatt_cache_manager.o(i.db_update_pending_handle)
    i.delete_bonds                           0x0001b9d8   Section        0  main.o(i.delete_bonds)
    delete_bonds                             0x0001b9d9   Thumb Code    48  main.o(i.delete_bonds)
    i.delete_execute                         0x0001ba20   Section        0  fds.o(i.delete_execute)
    delete_execute                           0x0001ba21   Thumb Code    82  fds.o(i.delete_execute)
    i.detection_delay_timeout_handler        0x0001ba74   Section        0  app_button.o(i.detection_delay_timeout_handler)
    detection_delay_timeout_handler          0x0001ba75   Thumb Code    84  app_button.o(i.detection_delay_timeout_handler)
    i.disconnect_process                     0x0001bad4   Section        0  security_dispatcher.o(i.disconnect_process)
    disconnect_process                       0x0001bad5   Thumb Code    34  security_dispatcher.o(i.disconnect_process)
    i.dropped_sat16_get                      0x0001baf8   Section        0  nrf_log_frontend.o(i.dropped_sat16_get)
    dropped_sat16_get                        0x0001baf9   Thumb Code    18  nrf_log_frontend.o(i.dropped_sat16_get)
    i.drv_rtc_compare_disable                0x0001bb10   Section        0  drv_rtc.o(i.drv_rtc_compare_disable)
    i.drv_rtc_compare_pending                0x0001bb26   Section        0  drv_rtc.o(i.drv_rtc_compare_pending)
    i.drv_rtc_compare_set                    0x0001bb40   Section        0  drv_rtc.o(i.drv_rtc_compare_set)
    i.drv_rtc_counter_get                    0x0001bb9c   Section        0  drv_rtc.o(i.drv_rtc_counter_get)
    i.drv_rtc_init                           0x0001bba8   Section        0  drv_rtc.o(i.drv_rtc_init)
    i.drv_rtc_irq_trigger                    0x0001bcd0   Section        0  drv_rtc.o(i.drv_rtc_irq_trigger)
    i.drv_rtc_overflow_enable                0x0001bcf4   Section        0  drv_rtc.o(i.drv_rtc_overflow_enable)
    i.drv_rtc_overflow_pending               0x0001bd06   Section        0  drv_rtc.o(i.drv_rtc_overflow_pending)
    i.drv_rtc_start                          0x0001bd16   Section        0  drv_rtc.o(i.drv_rtc_start)
    i.drv_rtc_stop                           0x0001bd24   Section        0  drv_rtc.o(i.drv_rtc_stop)
    i.drv_rtc_windowed_compare_set           0x0001bd32   Section        0  drv_rtc.o(i.drv_rtc_windowed_compare_set)
    i.encryption_failure                     0x0001be2e   Section        0  security_dispatcher.o(i.encryption_failure)
    encryption_failure                       0x0001be2f   Thumb Code    22  security_dispatcher.o(i.encryption_failure)
    i.erase                                  0x0001be44   Section        0  nrf_fstorage_sd.o(i.erase)
    erase                                    0x0001be45   Thumb Code    80  nrf_fstorage_sd.o(i.erase)
    i.erase_execute                          0x0001be9c   Section        0  nrf_fstorage_sd.o(i.erase_execute)
    erase_execute                            0x0001be9d   Thumb Code    14  nrf_fstorage_sd.o(i.erase_execute)
    i.event_prepare                          0x0001beaa   Section        0  fds.o(i.event_prepare)
    event_prepare                            0x0001beab   Thumb Code   126  fds.o(i.event_prepare)
    i.event_send                             0x0001bf28   Section        0  fds.o(i.event_send)
    event_send                               0x0001bf29   Thumb Code    34  fds.o(i.event_send)
    i.event_send                             0x0001bf50   Section        0  nrf_fstorage_sd.o(i.event_send)
    event_send                               0x0001bf51   Thumb Code   100  nrf_fstorage_sd.o(i.event_send)
    i.events_send_from_err_code              0x0001bfb8   Section        0  security_manager.o(i.events_send_from_err_code)
    events_send_from_err_code                0x0001bfb9   Thumb Code   144  security_manager.o(i.events_send_from_err_code)
    i.evt_disable                            0x0001c058   Section        0  drv_rtc.o(i.evt_disable)
    evt_disable                              0x0001c059   Thumb Code    24  drv_rtc.o(i.evt_disable)
    i.evt_enable                             0x0001c070   Section        0  drv_rtc.o(i.evt_enable)
    evt_enable                               0x0001c071   Thumb Code    28  drv_rtc.o(i.evt_enable)
    i.evt_forward                            0x0001c08c   Section        0  security_manager.o(i.evt_forward)
    evt_forward                              0x0001c08d   Thumb Code    12  security_manager.o(i.evt_forward)
    i.evt_handle                             0x0001c098   Section        0  app_button.o(i.evt_handle)
    i.evt_pending                            0x0001c188   Section        0  drv_rtc.o(i.evt_pending)
    evt_pending                              0x0001c189   Thumb Code    28  drv_rtc.o(i.evt_pending)
    i.evt_send                               0x0001c1a4   Section        0  gatt_cache_manager.o(i.evt_send)
    evt_send                                 0x0001c1a5   Thumb Code    34  gatt_cache_manager.o(i.evt_send)
    i.evt_send                               0x0001c1cc   Section        0  gatts_cache_manager.o(i.evt_send)
    evt_send                                 0x0001c1cd   Thumb Code    34  gatts_cache_manager.o(i.evt_send)
    i.evt_send                               0x0001c1f4   Section        0  id_manager.o(i.evt_send)
    evt_send                                 0x0001c1f5   Thumb Code    26  id_manager.o(i.evt_send)
    i.evt_send                               0x0001c214   Section        0  peer_manager.o(i.evt_send)
    evt_send                                 0x0001c215   Thumb Code    30  peer_manager.o(i.evt_send)
    i.evt_send                               0x0001c23c   Section        0  security_dispatcher.o(i.evt_send)
    evt_send                                 0x0001c23d   Thumb Code    34  security_dispatcher.o(i.evt_send)
    i.evt_send                               0x0001c264   Section        0  security_manager.o(i.evt_send)
    evt_send                                 0x0001c265   Thumb Code    26  security_manager.o(i.evt_send)
    i.fds_evt_handler                        0x0001c284   Section        0  peer_data_storage.o(i.fds_evt_handler)
    fds_evt_handler                          0x0001c285   Thumb Code   238  peer_data_storage.o(i.fds_evt_handler)
    i.fds_file_delete                        0x0001c378   Section        0  fds.o(i.fds_file_delete)
    i.fds_gc                                 0x0001c3c4   Section        0  fds.o(i.fds_gc)
    i.fds_init                               0x0001c408   Section        0  fds.o(i.fds_init)
    i.fds_record_close                       0x0001c4d4   Section        0  fds.o(i.fds_record_close)
    i.fds_record_find                        0x0001c53c   Section        0  fds.o(i.fds_record_find)
    i.fds_record_find_by_key                 0x0001c552   Section        0  fds.o(i.fds_record_find_by_key)
    i.fds_record_find_in_file                0x0001c566   Section        0  fds.o(i.fds_record_find_in_file)
    i.fds_record_id_from_desc                0x0001c57a   Section        0  fds.o(i.fds_record_id_from_desc)
    i.fds_record_open                        0x0001c590   Section        0  fds.o(i.fds_record_open)
    i.fds_record_update                      0x0001c5e0   Section        0  fds.o(i.fds_record_update)
    i.fds_record_write                       0x0001c5fc   Section        0  fds.o(i.fds_record_write)
    i.fds_register                           0x0001c610   Section        0  fds.o(i.fds_register)
    i.fds_stat                               0x0001c644   Section        0  fds.o(i.fds_stat)
    i.file_find_and_delete                   0x0001c708   Section        0  fds.o(i.file_find_and_delete)
    file_find_and_delete                     0x0001c709   Thumb Code    46  fds.o(i.file_find_and_delete)
    i.file_id_to_peer_id                     0x0001c73c   Section        0  peer_data_storage.o(i.file_id_to_peer_id)
    file_id_to_peer_id                       0x0001c73d   Thumb Code    10  peer_data_storage.o(i.file_id_to_peer_id)
    i.file_id_within_pm_range                0x0001c746   Section        0  peer_data_storage.o(i.file_id_within_pm_range)
    file_id_within_pm_range                  0x0001c747   Thumb Code    24  peer_data_storage.o(i.file_id_within_pm_range)
    i.flag_id_init                           0x0001c75e   Section        0  security_dispatcher.o(i.flag_id_init)
    flag_id_init                             0x0001c75f   Thumb Code    18  security_dispatcher.o(i.flag_id_init)
    i.flag_id_init                           0x0001c770   Section        0  security_manager.o(i.flag_id_init)
    flag_id_init                             0x0001c771   Thumb Code    18  security_manager.o(i.flag_id_init)
    i.flag_toggle                            0x0001c782   Section        0  ble_conn_state.o(i.flag_toggle)
    flag_toggle                              0x0001c783   Thumb Code    30  ble_conn_state.o(i.flag_toggle)
    i.flags_encode                           0x0001c7a0   Section        0  ble_advdata.o(i.flags_encode)
    flags_encode                             0x0001c7a1   Thumb Code    54  ble_advdata.o(i.flags_encode)
    i.flags_set                              0x0001c7d6   Section        0  ble_advertising.o(i.flags_set)
    flags_set                                0x0001c7d7   Thumb Code    42  ble_advertising.o(i.flags_set)
    i.flags_set_from_err_code                0x0001c800   Section        0  security_manager.o(i.flags_set_from_err_code)
    flags_set_from_err_code                  0x0001c801   Thumb Code    66  security_manager.o(i.flags_set_from_err_code)
    i.flash_bounds_set                       0x0001c84c   Section        0  fds.o(i.flash_bounds_set)
    flash_bounds_set                         0x0001c84d   Thumb Code    24  fds.o(i.flash_bounds_set)
    i.flash_end_addr                         0x0001c868   Section        0  fds.o(i.flash_end_addr)
    flash_end_addr                           0x0001c869   Thumb Code    54  fds.o(i.flash_end_addr)
    i.flash_subsystem_init                   0x0001c8a0   Section        0  fds.o(i.flash_subsystem_init)
    flash_subsystem_init                     0x0001c8a1   Thumb Code    18  fds.o(i.flash_subsystem_init)
    i.for_each_set_flag                      0x0001c8bc   Section        0  ble_conn_state.o(i.for_each_set_flag)
    for_each_set_flag                        0x0001c8bd   Thumb Code    50  ble_conn_state.o(i.for_each_set_flag)
    i.fs_event_handler                       0x0001c8ee   Section        0  fds.o(i.fs_event_handler)
    fs_event_handler                         0x0001c8ef   Thumb Code    12  fds.o(i.fs_event_handler)
    i.gap_params_init                        0x0001c8fc   Section        0  main.o(i.gap_params_init)
    gap_params_init                          0x0001c8fd   Thumb Code   116  main.o(i.gap_params_init)
    i.gatt_init                              0x0001c984   Section        0  main.o(i.gatt_init)
    gatt_init                                0x0001c985   Thumb Code    32  main.o(i.gatt_init)
    i.gc_execute                             0x0001c9a8   Section        0  fds.o(i.gc_execute)
    gc_execute                               0x0001c9a9   Thumb Code   110  fds.o(i.gc_execute)
    i.gc_init                                0x0001ca1c   Section        0  fds.o(i.gc_init)
    gc_init                                  0x0001ca1d   Thumb Code    54  fds.o(i.gc_init)
    i.gc_next_page                           0x0001ca5c   Section        0  fds.o(i.gc_next_page)
    gc_next_page                             0x0001ca5d   Thumb Code    34  fds.o(i.gc_next_page)
    i.gc_page_erase                          0x0001ca84   Section        0  fds.o(i.gc_page_erase)
    gc_page_erase                            0x0001ca85   Thumb Code    62  fds.o(i.gc_page_erase)
    i.gc_page_next                           0x0001cad0   Section        0  fds.o(i.gc_page_next)
    gc_page_next                             0x0001cad1   Thumb Code    70  fds.o(i.gc_page_next)
    i.gc_record_copy                         0x0001cb20   Section        0  fds.o(i.gc_record_copy)
    gc_record_copy                           0x0001cb21   Thumb Code    50  fds.o(i.gc_record_copy)
    i.gc_record_find_next                    0x0001cb60   Section        0  fds.o(i.gc_record_find_next)
    gc_record_find_next                      0x0001cb61   Thumb Code    32  fds.o(i.gc_record_find_next)
    i.gc_state_advance                       0x0001cb84   Section        0  fds.o(i.gc_state_advance)
    gc_state_advance                         0x0001cb85   Thumb Code    82  fds.o(i.gc_state_advance)
    i.gc_swap_erase                          0x0001cbdc   Section        0  fds.o(i.gc_swap_erase)
    gc_swap_erase                            0x0001cbdd   Thumb Code    30  fds.o(i.gc_swap_erase)
    i.gc_swap_pages                          0x0001cc08   Section        0  fds.o(i.gc_swap_pages)
    gc_swap_pages                            0x0001cc09   Thumb Code    84  fds.o(i.gc_swap_pages)
    i.gc_swap_promote                        0x0001cc68   Section        0  fds.o(i.gc_swap_promote)
    gc_swap_promote                          0x0001cc69   Thumb Code    28  fds.o(i.gc_swap_promote)
    i.gc_tag_new_swap                        0x0001cc8c   Section        0  fds.o(i.gc_tag_new_swap)
    gc_tag_new_swap                          0x0001cc8d   Thumb Code    18  fds.o(i.gc_tag_new_swap)
    i.gc_update_swap_offset                  0x0001cca4   Section        0  fds.o(i.gc_update_swap_offset)
    gc_update_swap_offset                    0x0001cca5   Thumb Code    22  fds.o(i.gc_update_swap_offset)
    i.gcm_ble_evt_handler                    0x0001ccc4   Section        0  gatt_cache_manager.o(i.gcm_ble_evt_handler)
    i.gcm_im_evt_handler                     0x0001cf5c   Section        0  gatt_cache_manager.o(i.gcm_im_evt_handler)
    i.gcm_init                               0x0001cf84   Section        0  gatt_cache_manager.o(i.gcm_init)
    i.gcm_pdb_evt_handler                    0x0001d068   Section        0  gatt_cache_manager.o(i.gcm_pdb_evt_handler)
    i.get_now                                0x0001d104   Section        0  app_timer2.o(i.get_now)
    get_now                                  0x0001d105   Thumb Code    46  app_timer2.o(i.get_now)
    i.gpiote_event_handler                   0x0001d140   Section        0  app_button.o(i.gpiote_event_handler)
    gpiote_event_handler                     0x0001d141   Thumb Code    66  app_button.o(i.gpiote_event_handler)
    i.gscm_db_change_notification_done       0x0001d188   Section        0  gatts_cache_manager.o(i.gscm_db_change_notification_done)
    i.gscm_init                              0x0001d1a4   Section        0  gatts_cache_manager.o(i.gscm_init)
    i.gscm_local_db_cache_apply              0x0001d1b8   Section        0  gatts_cache_manager.o(i.gscm_local_db_cache_apply)
    i.gscm_local_db_cache_update             0x0001d270   Section        0  gatts_cache_manager.o(i.gscm_local_db_cache_update)
    i.gscm_pdb_evt_handler                   0x0001d338   Section        0  gatts_cache_manager.o(i.gscm_pdb_evt_handler)
    i.gscm_service_changed_ind_needed        0x0001d354   Section        0  gatts_cache_manager.o(i.gscm_service_changed_ind_needed)
    i.gscm_service_changed_ind_send          0x0001d37c   Section        0  gatts_cache_manager.o(i.gscm_service_changed_ind_send)
    i.header_check                           0x0001d3f0   Section        0  fds.o(i.header_check)
    header_check                             0x0001d3f1   Thumb Code    48  fds.o(i.header_check)
    i.header_has_next                        0x0001d420   Section        0  fds.o(i.header_has_next)
    header_has_next                          0x0001d421   Thumb Code    22  fds.o(i.header_has_next)
    i.header_jump                            0x0001d436   Section        0  fds.o(i.header_jump)
    header_jump                              0x0001d437   Thumb Code    14  fds.o(i.header_jump)
    i.idle_state_handle                      0x0001d444   Section        0  main.o(i.idle_state_handle)
    idle_state_handle                        0x0001d445   Thumb Code    14  main.o(i.idle_state_handle)
    i.im_address_resolve                     0x0001d452   Section        0  id_manager.o(i.im_address_resolve)
    i.im_ble_addr_get                        0x0001d4a0   Section        0  id_manager.o(i.im_ble_addr_get)
    i.im_ble_evt_handler                     0x0001d4d8   Section        0  id_manager.o(i.im_ble_evt_handler)
    i.im_conn_handle_get                     0x0001d5c4   Section        0  id_manager.o(i.im_conn_handle_get)
    i.im_find_duplicate_bonding_data         0x0001d604   Section        0  id_manager.o(i.im_find_duplicate_bonding_data)
    i.im_is_duplicate_bonding_data           0x0001d63c   Section        0  id_manager.o(i.im_is_duplicate_bonding_data)
    i.im_master_id_is_valid                  0x0001d6cc   Section        0  id_manager.o(i.im_master_id_is_valid)
    i.im_master_ids_compare                  0x0001d6ee   Section        0  id_manager.o(i.im_master_ids_compare)
    i.im_new_peer_id                         0x0001d720   Section        0  id_manager.o(i.im_new_peer_id)
    i.im_peer_free                           0x0001d734   Section        0  id_manager.o(i.im_peer_free)
    i.im_peer_id_get_by_conn_handle          0x0001d764   Section        0  id_manager.o(i.im_peer_id_get_by_conn_handle)
    i.im_peer_id_get_by_master_id            0x0001d78c   Section        0  id_manager.o(i.im_peer_id_get_by_master_id)
    i.init                                   0x0001d7cc   Section        0  nrf_fstorage_sd.o(i.init)
    init                                     0x0001d7cd   Thumb Code    44  nrf_fstorage_sd.o(i.init)
    i.init_execute                           0x0001d808   Section        0  fds.o(i.init_execute)
    init_execute                             0x0001d809   Thumb Code   286  fds.o(i.init_execute)
    i.instance_get                           0x0001d93c   Section        0  ble_conn_params.o(i.instance_get)
    instance_get                             0x0001d93d   Thumb Code    40  ble_conn_params.o(i.instance_get)
    i.int_print                              0x0001d968   Section        0  nrf_fprintf_format.o(i.int_print)
    int_print                                0x0001d969   Thumb Code   190  nrf_fprintf_format.o(i.int_print)
    i.internal_state_reset                   0x0001da28   Section        0  gatt_cache_manager.o(i.internal_state_reset)
    internal_state_reset                     0x0001da29   Thumb Code     8  gatt_cache_manager.o(i.internal_state_reset)
    i.internal_state_reset                   0x0001da34   Section        0  gatts_cache_manager.o(i.internal_state_reset)
    internal_state_reset                     0x0001da35   Thumb Code    16  gatts_cache_manager.o(i.internal_state_reset)
    i.internal_state_reset                   0x0001da4c   Section        0  peer_database.o(i.internal_state_reset)
    internal_state_reset                     0x0001da4d   Thumb Code    28  peer_database.o(i.internal_state_reset)
    i.internal_state_reset                   0x0001da6c   Section        0  peer_id.o(i.internal_state_reset)
    internal_state_reset                     0x0001da6d   Thumb Code    14  peer_id.o(i.internal_state_reset)
    i.internal_state_reset                   0x0001da7c   Section        0  peer_manager.o(i.internal_state_reset)
    internal_state_reset                     0x0001da7d   Thumb Code    16  peer_manager.o(i.internal_state_reset)
    i.interrupts_disable                     0x0001da94   Section        0  nrfx_uart.o(i.interrupts_disable)
    interrupts_disable                       0x0001da95   Thumb Code    80  nrfx_uart.o(i.interrupts_disable)
    i.interrupts_disable                     0x0001daec   Section        0  nrfx_uarte.o(i.interrupts_disable)
    interrupts_disable                       0x0001daed   Thumb Code    80  nrfx_uarte.o(i.interrupts_disable)
    i.interrupts_enable                      0x0001db44   Section        0  nrfx_uart.o(i.interrupts_enable)
    interrupts_enable                        0x0001db45   Thumb Code   136  nrfx_uart.o(i.interrupts_enable)
    i.interrupts_enable                      0x0001dbd8   Section        0  nrfx_uarte.o(i.interrupts_enable)
    interrupts_enable                        0x0001dbd9   Thumb Code   166  nrfx_uarte.o(i.interrupts_enable)
    i.invalid_packets_omit                   0x0001dc8c   Section        0  nrf_log_frontend.o(i.invalid_packets_omit)
    invalid_packets_omit                     0x0001dc8d   Thumb Code    70  nrf_log_frontend.o(i.invalid_packets_omit)
    i.is_busy                                0x0001dcd4   Section        0  nrf_fstorage_sd.o(i.is_busy)
    is_busy                                  0x0001dcd5   Thumb Code    16  nrf_fstorage_sd.o(i.is_busy)
    i.is_conn_params_ok                      0x0001dce8   Section        0  ble_conn_params.o(i.is_conn_params_ok)
    is_conn_params_ok                        0x0001dce9   Thumb Code   114  ble_conn_params.o(i.is_conn_params_ok)
    i.is_valid_irk                           0x0001dd5a   Section        0  id_manager.o(i.is_valid_irk)
    i.is_word_aligned                        0x0001dd72   Section        0  fds.o(i.is_word_aligned)
    is_word_aligned                          0x0001dd73   Thumb Code    16  fds.o(i.is_word_aligned)
    i.item_dequeue                           0x0001dd82   Section        0  nrf_drv_clock.o(i.item_dequeue)
    item_dequeue                             0x0001dd83   Thumb Code    12  nrf_drv_clock.o(i.item_dequeue)
    i.key_is_lesc                            0x0001dd8e   Section        0  security_manager.o(i.key_is_lesc)
    key_is_lesc                              0x0001dd8f   Thumb Code    38  security_manager.o(i.key_is_lesc)
    i.latch_pending_read_and_check           0x0001ddb4   Section        0  nrfx_gpiote.o(i.latch_pending_read_and_check)
    latch_pending_read_and_check             0x0001ddb5   Thumb Code    38  nrfx_gpiote.o(i.latch_pending_read_and_check)
    i.lfclk_stop                             0x0001dddc   Section        0  nrf_drv_clock.o(i.lfclk_stop)
    lfclk_stop                               0x0001dddd   Thumb Code    20  nrf_drv_clock.o(i.lfclk_stop)
    i.link_init                              0x0001ddf4   Section        0  nrf_ble_gatt.o(i.link_init)
    link_init                                0x0001ddf5   Thumb Code    14  nrf_ble_gatt.o(i.link_init)
    i.link_secure                            0x0001de04   Section        0  security_manager.o(i.link_secure)
    link_secure                              0x0001de05   Thumb Code   208  security_manager.o(i.link_secure)
    i.link_secure_authenticate               0x0001deec   Section        0  security_dispatcher.o(i.link_secure_authenticate)
    link_secure_authenticate                 0x0001deed   Thumb Code    24  security_dispatcher.o(i.link_secure_authenticate)
    i.link_secure_failure                    0x0001df04   Section        0  security_dispatcher.o(i.link_secure_failure)
    link_secure_failure                      0x0001df05   Thumb Code    54  security_dispatcher.o(i.link_secure_failure)
    i.link_secure_pending_handle             0x0001df40   Section        0  security_manager.o(i.link_secure_pending_handle)
    link_secure_pending_handle               0x0001df41   Thumb Code    50  security_manager.o(i.link_secure_pending_handle)
    i.link_secure_peripheral                 0x0001df7c   Section        0  security_dispatcher.o(i.link_secure_peripheral)
    link_secure_peripheral                   0x0001df7d   Thumb Code    24  security_dispatcher.o(i.link_secure_peripheral)
    i.local_db_apply_in_evt                  0x0001df94   Section        0  gatt_cache_manager.o(i.local_db_apply_in_evt)
    local_db_apply_in_evt                    0x0001df95   Thumb Code   176  gatt_cache_manager.o(i.local_db_apply_in_evt)
    i.local_db_update                        0x0001e058   Section        0  gatt_cache_manager.o(i.local_db_update)
    local_db_update                          0x0001e059   Thumb Code    20  gatt_cache_manager.o(i.local_db_update)
    i.local_db_update_in_evt                 0x0001e070   Section        0  gatt_cache_manager.o(i.local_db_update_in_evt)
    local_db_update_in_evt                   0x0001e071   Thumb Code   156  gatt_cache_manager.o(i.local_db_update_in_evt)
    i.log_init                               0x0001e190   Section        0  main.o(i.log_init)
    log_init                                 0x0001e191   Thumb Code    38  main.o(i.log_init)
    i.log_skip                               0x0001e1b8   Section        0  nrf_log_frontend.o(i.log_skip)
    log_skip                                 0x0001e1b9   Thumb Code   190  nrf_log_frontend.o(i.log_skip)
    i.main                                   0x0001e284   Section        0  main.o(i.main)
    i.manuf_specific_data_encode             0x0001e300   Section        0  ble_advdata.o(i.manuf_specific_data_encode)
    manuf_specific_data_encode               0x0001e301   Thumb Code   118  ble_advdata.o(i.manuf_specific_data_encode)
    i.memobj_op                              0x0001e376   Section        0  nrf_memobj.o(i.memobj_op)
    memobj_op                                0x0001e377   Thumb Code   202  nrf_memobj.o(i.memobj_op)
    i.module_idx_get                         0x0001e440   Section        0  nrf_log_frontend.o(i.module_idx_get)
    module_idx_get                           0x0001e441   Thumb Code    52  nrf_log_frontend.o(i.module_idx_get)
    i.mutex_lock                             0x0001e478   Section        0  pm_buffer.o(i.mutex_lock)
    mutex_lock                               0x0001e479   Thumb Code    38  pm_buffer.o(i.mutex_lock)
    i.mutex_lock_status_get                  0x0001e49e   Section        0  pm_buffer.o(i.mutex_lock_status_get)
    mutex_lock_status_get                    0x0001e49f   Thumb Code    32  pm_buffer.o(i.mutex_lock_status_get)
    i.mutex_unlock                           0x0001e4be   Section        0  pm_buffer.o(i.mutex_unlock)
    mutex_unlock                             0x0001e4bf   Thumb Code    32  pm_buffer.o(i.mutex_unlock)
    i.name_encode                            0x0001e4de   Section        0  ble_advdata.o(i.name_encode)
    name_encode                              0x0001e4df   Thumb Code   200  ble_advdata.o(i.name_encode)
    i.new_context_get                        0x0001e5a8   Section        0  security_manager.o(i.new_context_get)
    new_context_get                          0x0001e5a9   Thumb Code    26  security_manager.o(i.new_context_get)
    i.new_evt                                0x0001e5c8   Section        0  security_manager.o(i.new_evt)
    new_evt                                  0x0001e5c9   Thumb Code    50  security_manager.o(i.new_evt)
    i.next_id_get                            0x0001e5fa   Section        0  peer_id.o(i.next_id_get)
    i.nrf52_errata_136                       0x0001e630   Section        0  system_nrf52805.o(i.nrf52_errata_136)
    nrf52_errata_136                         0x0001e631   Thumb Code    96  system_nrf52805.o(i.nrf52_errata_136)
    i.nrf52_errata_217                       0x0001e698   Section        0  system_nrf52805.o(i.nrf52_errata_217)
    nrf52_errata_217                         0x0001e699   Thumb Code    30  system_nrf52805.o(i.nrf52_errata_217)
    i.nrf52_errata_31                        0x0001e6bc   Section        0  system_nrf52805.o(i.nrf52_errata_31)
    nrf52_errata_31                          0x0001e6bd   Thumb Code    96  system_nrf52805.o(i.nrf52_errata_31)
    i.nrf52_errata_36                        0x0001e724   Section        0  system_nrf52805.o(i.nrf52_errata_36)
    nrf52_errata_36                          0x0001e725   Thumb Code    96  system_nrf52805.o(i.nrf52_errata_36)
    i.nrf52_errata_66                        0x0001e78c   Section        0  system_nrf52805.o(i.nrf52_errata_66)
    nrf52_errata_66                          0x0001e78d   Thumb Code    96  system_nrf52805.o(i.nrf52_errata_66)
    i.nrf_atfifo_clear                       0x0001e7f4   Section        0  nrf_atfifo.o(i.nrf_atfifo_clear)
    i.nrf_atfifo_init                        0x0001e80a   Section        0  nrf_atfifo.o(i.nrf_atfifo_init)
    i.nrf_atfifo_item_alloc                  0x0001e832   Section        0  nrf_atfifo.o(i.nrf_atfifo_item_alloc)
    i.nrf_atfifo_item_free                   0x0001e84e   Section        0  nrf_atfifo.o(i.nrf_atfifo_item_free)
    i.nrf_atfifo_item_get                    0x0001e86a   Section        0  nrf_atfifo.o(i.nrf_atfifo_item_get)
    i.nrf_atfifo_item_put                    0x0001e886   Section        0  nrf_atfifo.o(i.nrf_atfifo_item_put)
    i.nrf_atflags_clear                      0x0001e8a2   Section        0  nrf_atflags.o(i.nrf_atflags_clear)
    i.nrf_atflags_fetch_set                  0x0001e8c0   Section        0  nrf_atflags.o(i.nrf_atflags_fetch_set)
    i.nrf_atflags_find_and_set_flag          0x0001e8ee   Section        0  nrf_atflags.o(i.nrf_atflags_find_and_set_flag)
    i.nrf_atflags_get                        0x0001e94e   Section        0  nrf_atflags.o(i.nrf_atflags_get)
    i.nrf_atflags_set                        0x0001e96c   Section        0  nrf_atflags.o(i.nrf_atflags_set)
    i.nrf_atomic_flag_clear_fetch            0x0001e98a   Section        0  nrf_atomic.o(i.nrf_atomic_flag_clear_fetch)
    i.nrf_atomic_flag_set                    0x0001e998   Section        0  nrf_atomic.o(i.nrf_atomic_flag_set)
    i.nrf_atomic_flag_set_fetch              0x0001e9a6   Section        0  nrf_atomic.o(i.nrf_atomic_flag_set_fetch)
    i.nrf_atomic_u32_add                     0x0001e9b4   Section        0  nrf_atomic.o(i.nrf_atomic_u32_add)
    i.nrf_atomic_u32_and                     0x0001e9ca   Section        0  nrf_atomic.o(i.nrf_atomic_u32_and)
    i.nrf_atomic_u32_fetch_add               0x0001e9e0   Section        0  nrf_atomic.o(i.nrf_atomic_u32_fetch_add)
    i.nrf_atomic_u32_fetch_and               0x0001e9f6   Section        0  nrf_atomic.o(i.nrf_atomic_u32_fetch_and)
    i.nrf_atomic_u32_fetch_or                0x0001ea0c   Section        0  nrf_atomic.o(i.nrf_atomic_u32_fetch_or)
    i.nrf_atomic_u32_fetch_store             0x0001ea22   Section        0  nrf_atomic.o(i.nrf_atomic_u32_fetch_store)
    i.nrf_atomic_u32_or                      0x0001ea38   Section        0  nrf_atomic.o(i.nrf_atomic_u32_or)
    i.nrf_atomic_u32_sub                     0x0001ea4e   Section        0  nrf_atomic.o(i.nrf_atomic_u32_sub)
    i.nrf_balloc_alloc                       0x0001ea64   Section        0  nrf_balloc.o(i.nrf_balloc_alloc)
    i.nrf_balloc_block2idx                   0x0001eab6   Section        0  nrf_balloc.o(i.nrf_balloc_block2idx)
    nrf_balloc_block2idx                     0x0001eab7   Thumb Code    16  nrf_balloc.o(i.nrf_balloc_block2idx)
    i.nrf_balloc_free                        0x0001eac6   Section        0  nrf_balloc.o(i.nrf_balloc_free)
    i.nrf_balloc_idx2block                   0x0001eaf6   Section        0  nrf_balloc.o(i.nrf_balloc_idx2block)
    nrf_balloc_idx2block                     0x0001eaf7   Thumb Code    12  nrf_balloc.o(i.nrf_balloc_idx2block)
    i.nrf_balloc_init                        0x0001eb02   Section        0  nrf_balloc.o(i.nrf_balloc_init)
    i.nrf_bitmask_bit_is_set                 0x0001eb3e   Section        0  nrfx_gpiote.o(i.nrf_bitmask_bit_is_set)
    nrf_bitmask_bit_is_set                   0x0001eb3f   Thumb Code    22  nrfx_gpiote.o(i.nrf_bitmask_bit_is_set)
    i.nrf_ble_gatt_init                      0x0001eb54   Section        0  nrf_ble_gatt.o(i.nrf_ble_gatt_init)
    i.nrf_ble_gatt_on_ble_evt                0x0001eb8c   Section        0  nrf_ble_gatt.o(i.nrf_ble_gatt_on_ble_evt)
    i.nrf_ble_qwr_conn_handle_assign         0x0001eca8   Section        0  nrf_ble_qwr.o(i.nrf_ble_qwr_conn_handle_assign)
    i.nrf_ble_qwr_init                       0x0001ecc8   Section        0  nrf_ble_qwr.o(i.nrf_ble_qwr_init)
    i.nrf_ble_qwr_on_ble_evt                 0x0001ecfa   Section        0  nrf_ble_qwr.o(i.nrf_ble_qwr_on_ble_evt)
    i.nrf_clock_event_check                  0x0001ed76   Section        0  nrfx_clock.o(i.nrf_clock_event_check)
    nrf_clock_event_check                    0x0001ed77   Thumb Code    18  nrfx_clock.o(i.nrf_clock_event_check)
    i.nrf_clock_event_clear                  0x0001ed88   Section        0  nrfx_clock.o(i.nrf_clock_event_clear)
    nrf_clock_event_clear                    0x0001ed89   Thumb Code    18  nrfx_clock.o(i.nrf_clock_event_clear)
    i.nrf_clock_int_disable                  0x0001ed9c   Section        0  nrfx_clock.o(i.nrf_clock_int_disable)
    nrf_clock_int_disable                    0x0001ed9d   Thumb Code     6  nrfx_clock.o(i.nrf_clock_int_disable)
    i.nrf_clock_task_trigger                 0x0001eda8   Section        0  nrfx_clock.o(i.nrf_clock_task_trigger)
    nrf_clock_task_trigger                   0x0001eda9   Thumb Code     8  nrfx_clock.o(i.nrf_clock_task_trigger)
    i.nrf_drv_clock_init                     0x0001edb0   Section        0  nrf_drv_clock.o(i.nrf_drv_clock_init)
    i.nrf_drv_clock_lfclk_release            0x0001edfc   Section        0  nrf_drv_clock.o(i.nrf_drv_clock_lfclk_release)
    i.nrf_drv_uart_init                      0x0001ee2c   Section        0  nrf_drv_uart.o(i.nrf_drv_uart_init)
    i.nrf_fprintf                            0x0001eeb8   Section        0  nrf_fprintf.o(i.nrf_fprintf)
    i.nrf_fprintf_buffer_flush               0x0001eee2   Section        0  nrf_fprintf.o(i.nrf_fprintf_buffer_flush)
    i.nrf_fprintf_fmt                        0x0001eefe   Section        0  nrf_fprintf_format.o(i.nrf_fprintf_fmt)
    i.nrf_fstorage_erase                     0x0001f0f0   Section        0  nrf_fstorage.o(i.nrf_fstorage_erase)
    i.nrf_fstorage_init                      0x0001f260   Section        0  nrf_fstorage.o(i.nrf_fstorage_init)
    i.nrf_fstorage_sdh_req_handler           0x0001f30c   Section        0  nrf_fstorage_sd.o(i.nrf_fstorage_sdh_req_handler)
    i.nrf_fstorage_sdh_state_handler         0x0001f328   Section        0  nrf_fstorage_sd.o(i.nrf_fstorage_sdh_state_handler)
    i.nrf_fstorage_sys_evt_handler           0x0001f354   Section        0  nrf_fstorage_sd.o(i.nrf_fstorage_sys_evt_handler)
    i.nrf_fstorage_write                     0x0001f3e0   Section        0  nrf_fstorage.o(i.nrf_fstorage_write)
    i.nrf_gpio_cfg                           0x0001f644   Section        0  nrfx_gpiote.o(i.nrf_gpio_cfg)
    nrf_gpio_cfg                             0x0001f645   Thumb Code    40  nrfx_gpiote.o(i.nrf_gpio_cfg)
    i.nrf_gpio_cfg                           0x0001f66c   Section        0  nrfx_uart.o(i.nrf_gpio_cfg)
    nrf_gpio_cfg                             0x0001f66d   Thumb Code    40  nrfx_uart.o(i.nrf_gpio_cfg)
    i.nrf_gpio_cfg                           0x0001f694   Section        0  nrfx_uarte.o(i.nrf_gpio_cfg)
    nrf_gpio_cfg                             0x0001f695   Thumb Code    40  nrfx_uarte.o(i.nrf_gpio_cfg)
    i.nrf_gpio_cfg_default                   0x0001f6bc   Section        0  nrfx_uart.o(i.nrf_gpio_cfg_default)
    nrf_gpio_cfg_default                     0x0001f6bd   Thumb Code    24  nrfx_uart.o(i.nrf_gpio_cfg_default)
    i.nrf_gpio_cfg_default                   0x0001f6d4   Section        0  nrfx_uarte.o(i.nrf_gpio_cfg_default)
    nrf_gpio_cfg_default                     0x0001f6d5   Thumb Code    24  nrfx_uarte.o(i.nrf_gpio_cfg_default)
    i.nrf_gpio_cfg_input                     0x0001f6ec   Section        0  nrfx_uart.o(i.nrf_gpio_cfg_input)
    nrf_gpio_cfg_input                       0x0001f6ed   Thumb Code    26  nrfx_uart.o(i.nrf_gpio_cfg_input)
    i.nrf_gpio_cfg_input                     0x0001f706   Section        0  nrfx_uarte.o(i.nrf_gpio_cfg_input)
    nrf_gpio_cfg_input                       0x0001f707   Thumb Code    26  nrfx_uarte.o(i.nrf_gpio_cfg_input)
    i.nrf_gpio_cfg_output                    0x0001f720   Section        0  nrfx_uart.o(i.nrf_gpio_cfg_output)
    nrf_gpio_cfg_output                      0x0001f721   Thumb Code    24  nrfx_uart.o(i.nrf_gpio_cfg_output)
    i.nrf_gpio_cfg_output                    0x0001f738   Section        0  nrfx_uarte.o(i.nrf_gpio_cfg_output)
    nrf_gpio_cfg_output                      0x0001f739   Thumb Code    24  nrfx_uarte.o(i.nrf_gpio_cfg_output)
    i.nrf_gpio_cfg_sense_set                 0x0001f750   Section        0  nrfx_gpiote.o(i.nrf_gpio_cfg_sense_set)
    nrf_gpio_cfg_sense_set                   0x0001f751   Thumb Code    50  nrfx_gpiote.o(i.nrf_gpio_cfg_sense_set)
    i.nrf_gpio_latches_read_and_clear        0x0001f784   Section        0  nrfx_gpiote.o(i.nrf_gpio_latches_read_and_clear)
    nrf_gpio_latches_read_and_clear          0x0001f785   Thumb Code    46  nrfx_gpiote.o(i.nrf_gpio_latches_read_and_clear)
    i.nrf_gpio_pin_present_check             0x0001f7b8   Section        0  nrfx_gpiote.o(i.nrf_gpio_pin_present_check)
    nrf_gpio_pin_present_check               0x0001f7b9   Thumb Code    34  nrfx_gpiote.o(i.nrf_gpio_pin_present_check)
    i.nrf_gpio_pin_read                      0x0001f7da   Section        0  nrfx_gpiote.o(i.nrf_gpio_pin_read)
    nrf_gpio_pin_read                        0x0001f7db   Thumb Code    24  nrfx_gpiote.o(i.nrf_gpio_pin_read)
    i.nrf_gpio_pin_set                       0x0001f7f2   Section        0  nrfx_uart.o(i.nrf_gpio_pin_set)
    nrf_gpio_pin_set                         0x0001f7f3   Thumb Code    22  nrfx_uart.o(i.nrf_gpio_pin_set)
    i.nrf_gpio_pin_set                       0x0001f808   Section        0  nrfx_uarte.o(i.nrf_gpio_pin_set)
    nrf_gpio_pin_set                         0x0001f809   Thumb Code    22  nrfx_uarte.o(i.nrf_gpio_pin_set)
    i.nrf_gpiote_event_addr_get              0x0001f820   Section        0  nrfx_gpiote.o(i.nrf_gpiote_event_addr_get)
    nrf_gpiote_event_addr_get                0x0001f821   Thumb Code     8  nrfx_gpiote.o(i.nrf_gpiote_event_addr_get)
    i.nrf_gpiote_event_clear                 0x0001f82c   Section        0  nrfx_gpiote.o(i.nrf_gpiote_event_clear)
    nrf_gpiote_event_clear                   0x0001f82d   Thumb Code    28  nrfx_gpiote.o(i.nrf_gpiote_event_clear)
    i.nrf_gpiote_event_is_set                0x0001f848   Section        0  nrfx_gpiote.o(i.nrf_gpiote_event_is_set)
    nrf_gpiote_event_is_set                  0x0001f849   Thumb Code    22  nrfx_gpiote.o(i.nrf_gpiote_event_is_set)
    i.nrf_gpiote_int_enable                  0x0001f860   Section        0  nrfx_gpiote.o(i.nrf_gpiote_int_enable)
    nrf_gpiote_int_enable                    0x0001f861   Thumb Code     6  nrfx_gpiote.o(i.nrf_gpiote_int_enable)
    i.nrf_log_backend_add                    0x0001f86c   Section        0  nrf_log_frontend.o(i.nrf_log_backend_add)
    i.nrf_log_backend_enable                 0x0001f8c0   Section        0  nrf_log_default_backends.o(i.nrf_log_backend_enable)
    nrf_log_backend_enable                   0x0001f8c1   Thumb Code     8  nrf_log_default_backends.o(i.nrf_log_backend_enable)
    i.nrf_log_backend_rtt_flush              0x0001f8c8   Section        0  nrf_log_backend_rtt.o(i.nrf_log_backend_rtt_flush)
    nrf_log_backend_rtt_flush                0x0001f8c9   Thumb Code     2  nrf_log_backend_rtt.o(i.nrf_log_backend_rtt_flush)
    i.nrf_log_backend_rtt_init               0x0001f8ca   Section        0  nrf_log_backend_rtt.o(i.nrf_log_backend_rtt_init)
    i.nrf_log_backend_rtt_panic_set          0x0001f8d2   Section        0  nrf_log_backend_rtt.o(i.nrf_log_backend_rtt_panic_set)
    nrf_log_backend_rtt_panic_set            0x0001f8d3   Thumb Code     2  nrf_log_backend_rtt.o(i.nrf_log_backend_rtt_panic_set)
    i.nrf_log_backend_rtt_put                0x0001f8d4   Section        0  nrf_log_backend_rtt.o(i.nrf_log_backend_rtt_put)
    nrf_log_backend_rtt_put                  0x0001f8d5   Thumb Code    24  nrf_log_backend_rtt.o(i.nrf_log_backend_rtt_put)
    i.nrf_log_backend_serial_put             0x0001f8f4   Section        0  nrf_log_backend_serial.o(i.nrf_log_backend_serial_put)
    i.nrf_log_backend_uart_flush             0x0001f9e6   Section        0  nrf_log_backend_uart.o(i.nrf_log_backend_uart_flush)
    nrf_log_backend_uart_flush               0x0001f9e7   Thumb Code     2  nrf_log_backend_uart.o(i.nrf_log_backend_uart_flush)
    i.nrf_log_backend_uart_init              0x0001f9e8   Section        0  nrf_log_backend_uart.o(i.nrf_log_backend_uart_init)
    i.nrf_log_backend_uart_panic_set         0x0001f9f4   Section        0  nrf_log_backend_uart.o(i.nrf_log_backend_uart_panic_set)
    nrf_log_backend_uart_panic_set           0x0001f9f5   Thumb Code    48  nrf_log_backend_uart.o(i.nrf_log_backend_uart_panic_set)
    i.nrf_log_backend_uart_put               0x0001fa2c   Section        0  nrf_log_backend_uart.o(i.nrf_log_backend_uart_put)
    nrf_log_backend_uart_put                 0x0001fa2d   Thumb Code    24  nrf_log_backend_uart.o(i.nrf_log_backend_uart_put)
    i.nrf_log_color_id_get                   0x0001fa4c   Section        0  nrf_log_frontend.o(i.nrf_log_color_id_get)
    i.nrf_log_default_backends_init          0x0001fa84   Section        0  nrf_log_default_backends.o(i.nrf_log_default_backends_init)
    i.nrf_log_frontend_dequeue               0x0001fabc   Section        0  nrf_log_frontend.o(i.nrf_log_frontend_dequeue)
    i.nrf_log_frontend_std_0                 0x0001fdd8   Section        0  nrf_log_frontend.o(i.nrf_log_frontend_std_0)
    i.nrf_log_frontend_std_1                 0x0001fdec   Section        0  nrf_log_frontend.o(i.nrf_log_frontend_std_1)
    i.nrf_log_frontend_std_2                 0x0001fe04   Section        0  nrf_log_frontend.o(i.nrf_log_frontend_std_2)
    i.nrf_log_frontend_std_3                 0x0001fe24   Section        0  nrf_log_frontend.o(i.nrf_log_frontend_std_3)
    i.nrf_log_frontend_std_4                 0x0001fe4c   Section        0  nrf_log_frontend.o(i.nrf_log_frontend_std_4)
    i.nrf_log_hexdump_entry_process          0x0001fe78   Section        0  nrf_log_str_formatter.o(i.nrf_log_hexdump_entry_process)
    i.nrf_log_init                           0x0001ff34   Section        0  nrf_log_frontend.o(i.nrf_log_init)
    i.nrf_log_module_cnt_get                 0x0001ff7c   Section        0  nrf_log_frontend.o(i.nrf_log_module_cnt_get)
    i.nrf_log_module_name_get                0x0001ff90   Section        0  nrf_log_frontend.o(i.nrf_log_module_name_get)
    i.nrf_log_panic                          0x0001ffb4   Section        0  nrf_log_frontend.o(i.nrf_log_panic)
    i.nrf_log_std_entry_process              0x0001ffe8   Section        0  nrf_log_str_formatter.o(i.nrf_log_std_entry_process)
    i.nrf_memobj_alloc                       0x000200b0   Section        0  nrf_memobj.o(i.nrf_memobj_alloc)
    i.nrf_memobj_free                        0x0002012a   Section        0  nrf_memobj.o(i.nrf_memobj_free)
    i.nrf_memobj_get                         0x0002016a   Section        0  nrf_memobj.o(i.nrf_memobj_get)
    i.nrf_memobj_pool_init                   0x0002017a   Section        0  nrf_memobj.o(i.nrf_memobj_pool_init)
    i.nrf_memobj_put                         0x00020186   Section        0  nrf_memobj.o(i.nrf_memobj_put)
    i.nrf_memobj_read                        0x000201a4   Section        0  nrf_memobj.o(i.nrf_memobj_read)
    i.nrf_memobj_write                       0x000201c6   Section        0  nrf_memobj.o(i.nrf_memobj_write)
    i.nrf_mtx_unlock                         0x000201e8   Section        0  gatt_cache_manager.o(i.nrf_mtx_unlock)
    nrf_mtx_unlock                           0x000201e9   Thumb Code    22  gatt_cache_manager.o(i.nrf_mtx_unlock)
    i.nrf_pwr_mgmt_init                      0x00020200   Section        0  nrf_pwr_mgmt.o(i.nrf_pwr_mgmt_init)
    i.nrf_pwr_mgmt_run                       0x00020240   Section        0  nrf_pwr_mgmt.o(i.nrf_pwr_mgmt_run)
    i.nrf_qwr_error_handler                  0x00020256   Section        0  main.o(i.nrf_qwr_error_handler)
    nrf_qwr_error_handler                    0x00020257   Thumb Code    16  main.o(i.nrf_qwr_error_handler)
    i.nrf_ringbuf_init                       0x00020266   Section        0  nrf_ringbuf.o(i.nrf_ringbuf_init)
    i.nrf_rtc_cc_get                         0x00020282   Section        0  drv_rtc.o(i.nrf_rtc_cc_get)
    nrf_rtc_cc_get                           0x00020283   Thumb Code    12  drv_rtc.o(i.nrf_rtc_cc_get)
    i.nrf_rtc_cc_set                         0x0002028e   Section        0  drv_rtc.o(i.nrf_rtc_cc_set)
    nrf_rtc_cc_set                           0x0002028f   Thumb Code    10  drv_rtc.o(i.nrf_rtc_cc_set)
    i.nrf_rtc_counter_get                    0x00020298   Section        0  drv_rtc.o(i.nrf_rtc_counter_get)
    nrf_rtc_counter_get                      0x00020299   Thumb Code     8  drv_rtc.o(i.nrf_rtc_counter_get)
    i.nrf_rtc_event_clear                    0x000202a0   Section        0  drv_rtc.o(i.nrf_rtc_event_clear)
    nrf_rtc_event_clear                      0x000202a1   Thumb Code    14  drv_rtc.o(i.nrf_rtc_event_clear)
    i.nrf_rtc_event_disable                  0x000202ae   Section        0  drv_rtc.o(i.nrf_rtc_event_disable)
    nrf_rtc_event_disable                    0x000202af   Thumb Code     6  drv_rtc.o(i.nrf_rtc_event_disable)
    i.nrf_rtc_event_enable                   0x000202b4   Section        0  drv_rtc.o(i.nrf_rtc_event_enable)
    nrf_rtc_event_enable                     0x000202b5   Thumb Code     6  drv_rtc.o(i.nrf_rtc_event_enable)
    i.nrf_rtc_int_disable                    0x000202ba   Section        0  drv_rtc.o(i.nrf_rtc_int_disable)
    nrf_rtc_int_disable                      0x000202bb   Thumb Code     6  drv_rtc.o(i.nrf_rtc_int_disable)
    i.nrf_rtc_int_enable                     0x000202c0   Section        0  drv_rtc.o(i.nrf_rtc_int_enable)
    nrf_rtc_int_enable                       0x000202c1   Thumb Code     6  drv_rtc.o(i.nrf_rtc_int_enable)
    i.nrf_rtc_task_trigger                   0x000202c6   Section        0  drv_rtc.o(i.nrf_rtc_task_trigger)
    nrf_rtc_task_trigger                     0x000202c7   Thumb Code     6  drv_rtc.o(i.nrf_rtc_task_trigger)
    i.nrf_sdh_ble_app_ram_start_get          0x000202cc   Section        0  nrf_sdh_ble.o(i.nrf_sdh_ble_app_ram_start_get)
    i.nrf_sdh_ble_default_cfg_set            0x000202e4   Section        0  nrf_sdh_ble.o(i.nrf_sdh_ble_default_cfg_set)
    i.nrf_sdh_ble_enable                     0x00020438   Section        0  nrf_sdh_ble.o(i.nrf_sdh_ble_enable)
    i.nrf_sdh_ble_evts_poll                  0x00020584   Section        0  nrf_sdh_ble.o(i.nrf_sdh_ble_evts_poll)
    nrf_sdh_ble_evts_poll                    0x00020585   Thumb Code   102  nrf_sdh_ble.o(i.nrf_sdh_ble_evts_poll)
    i.nrf_sdh_disable_request                0x000205f4   Section        0  nrf_sdh.o(i.nrf_sdh_disable_request)
    i.nrf_sdh_enable_request                 0x00020658   Section        0  nrf_sdh.o(i.nrf_sdh_enable_request)
    i.nrf_sdh_evts_poll                      0x000206dc   Section        0  nrf_sdh.o(i.nrf_sdh_evts_poll)
    i.nrf_sdh_is_enabled                     0x0002070c   Section        0  nrf_sdh.o(i.nrf_sdh_is_enabled)
    i.nrf_sdh_request_continue               0x00020718   Section        0  nrf_sdh.o(i.nrf_sdh_request_continue)
    i.nrf_sdh_soc_evts_poll                  0x00020740   Section        0  nrf_sdh_soc.o(i.nrf_sdh_soc_evts_poll)
    nrf_sdh_soc_evts_poll                    0x00020741   Thumb Code    80  nrf_sdh_soc.o(i.nrf_sdh_soc_evts_poll)
    i.nrf_section_iter_get                   0x00020794   Section        0  nrf_sdh.o(i.nrf_section_iter_get)
    nrf_section_iter_get                     0x00020795   Thumb Code     6  nrf_sdh.o(i.nrf_section_iter_get)
    i.nrf_section_iter_init                  0x0002079a   Section        0  nrf_section_iter.o(i.nrf_section_iter_init)
    i.nrf_section_iter_item_set              0x000207ae   Section        0  nrf_section_iter.o(i.nrf_section_iter_item_set)
    nrf_section_iter_item_set                0x000207af   Thumb Code    46  nrf_section_iter.o(i.nrf_section_iter_item_set)
    i.nrf_section_iter_next                  0x000207dc   Section        0  nrf_section_iter.o(i.nrf_section_iter_next)
    i.nrf_sortlist_add                       0x0002080a   Section        0  nrf_sortlist.o(i.nrf_sortlist_add)
    i.nrf_sortlist_peek                      0x00020832   Section        0  nrf_sortlist.o(i.nrf_sortlist_peek)
    i.nrf_sortlist_pop                       0x0002083a   Section        0  nrf_sortlist.o(i.nrf_sortlist_pop)
    i.nrf_sortlist_remove                    0x00020852   Section        0  nrf_sortlist.o(i.nrf_sortlist_remove)
    i.nrf_strerror_find                      0x00020878   Section        0  nrf_strerror.o(i.nrf_strerror_find)
    i.nrf_strerror_get                       0x000208b8   Section        0  nrf_strerror.o(i.nrf_strerror_get)
    i.nrf_uart_errorsrc_get_and_clear        0x000208d4   Section        0  nrfx_uart.o(i.nrf_uart_errorsrc_get_and_clear)
    nrf_uart_errorsrc_get_and_clear          0x000208d5   Thumb Code    12  nrfx_uart.o(i.nrf_uart_errorsrc_get_and_clear)
    i.nrf_uart_event_check                   0x000208e0   Section        0  nrfx_uart.o(i.nrf_uart_event_check)
    nrf_uart_event_check                     0x000208e1   Thumb Code    14  nrfx_uart.o(i.nrf_uart_event_check)
    i.nrf_uart_event_clear                   0x000208ee   Section        0  nrfx_uart.o(i.nrf_uart_event_clear)
    nrf_uart_event_clear                     0x000208ef   Thumb Code    14  nrfx_uart.o(i.nrf_uart_event_clear)
    i.nrf_uart_hwfc_pins_set                 0x000208fc   Section        0  nrfx_uart.o(i.nrf_uart_hwfc_pins_set)
    nrf_uart_hwfc_pins_set                   0x000208fd   Thumb Code    12  nrfx_uart.o(i.nrf_uart_hwfc_pins_set)
    i.nrf_uart_int_disable                   0x00020908   Section        0  nrfx_uart.o(i.nrf_uart_int_disable)
    nrf_uart_int_disable                     0x00020909   Thumb Code     6  nrfx_uart.o(i.nrf_uart_int_disable)
    i.nrf_uart_int_enable                    0x0002090e   Section        0  nrfx_uart.o(i.nrf_uart_int_enable)
    nrf_uart_int_enable                      0x0002090f   Thumb Code     6  nrfx_uart.o(i.nrf_uart_int_enable)
    i.nrf_uart_int_enable_check              0x00020914   Section        0  nrfx_uart.o(i.nrf_uart_int_enable_check)
    nrf_uart_int_enable_check                0x00020915   Thumb Code    18  nrfx_uart.o(i.nrf_uart_int_enable_check)
    i.nrf_uart_task_trigger                  0x00020926   Section        0  nrfx_uart.o(i.nrf_uart_task_trigger)
    nrf_uart_task_trigger                    0x00020927   Thumb Code     6  nrfx_uart.o(i.nrf_uart_task_trigger)
    i.nrf_uart_txrx_pins_set                 0x0002092c   Section        0  nrfx_uart.o(i.nrf_uart_txrx_pins_set)
    nrf_uart_txrx_pins_set                   0x0002092d   Thumb Code    14  nrfx_uart.o(i.nrf_uart_txrx_pins_set)
    i.nrf_uarte_errorsrc_get_and_clear       0x0002093a   Section        0  nrfx_uarte.o(i.nrf_uarte_errorsrc_get_and_clear)
    nrf_uarte_errorsrc_get_and_clear         0x0002093b   Thumb Code    12  nrfx_uarte.o(i.nrf_uarte_errorsrc_get_and_clear)
    i.nrf_uarte_event_check                  0x00020946   Section        0  nrfx_uarte.o(i.nrf_uarte_event_check)
    nrf_uarte_event_check                    0x00020947   Thumb Code    14  nrfx_uarte.o(i.nrf_uarte_event_check)
    i.nrf_uarte_event_clear                  0x00020954   Section        0  nrfx_uarte.o(i.nrf_uarte_event_clear)
    nrf_uarte_event_clear                    0x00020955   Thumb Code    14  nrfx_uarte.o(i.nrf_uarte_event_clear)
    i.nrf_uarte_hwfc_pins_set                0x00020962   Section        0  nrfx_uarte.o(i.nrf_uarte_hwfc_pins_set)
    nrf_uarte_hwfc_pins_set                  0x00020963   Thumb Code    12  nrfx_uarte.o(i.nrf_uarte_hwfc_pins_set)
    i.nrf_uarte_int_disable                  0x0002096e   Section        0  nrfx_uarte.o(i.nrf_uarte_int_disable)
    nrf_uarte_int_disable                    0x0002096f   Thumb Code     6  nrfx_uarte.o(i.nrf_uarte_int_disable)
    i.nrf_uarte_int_enable                   0x00020974   Section        0  nrfx_uarte.o(i.nrf_uarte_int_enable)
    nrf_uarte_int_enable                     0x00020975   Thumb Code     6  nrfx_uarte.o(i.nrf_uarte_int_enable)
    i.nrf_uarte_rx_amount_get                0x0002097a   Section        0  nrfx_uarte.o(i.nrf_uarte_rx_amount_get)
    nrf_uarte_rx_amount_get                  0x0002097b   Thumb Code    10  nrfx_uarte.o(i.nrf_uarte_rx_amount_get)
    i.nrf_uarte_shorts_disable               0x00020984   Section        0  nrfx_uarte.o(i.nrf_uarte_shorts_disable)
    nrf_uarte_shorts_disable                 0x00020985   Thumb Code    12  nrfx_uarte.o(i.nrf_uarte_shorts_disable)
    i.nrf_uarte_task_trigger                 0x00020990   Section        0  nrfx_uarte.o(i.nrf_uarte_task_trigger)
    nrf_uarte_task_trigger                   0x00020991   Thumb Code     6  nrfx_uarte.o(i.nrf_uarte_task_trigger)
    i.nrf_uarte_tx_amount_get                0x00020996   Section        0  nrfx_uarte.o(i.nrf_uarte_tx_amount_get)
    nrf_uarte_tx_amount_get                  0x00020997   Thumb Code    10  nrfx_uarte.o(i.nrf_uarte_tx_amount_get)
    i.nrf_uarte_txrx_pins_set                0x000209a0   Section        0  nrfx_uarte.o(i.nrf_uarte_txrx_pins_set)
    nrf_uarte_txrx_pins_set                  0x000209a1   Thumb Code    14  nrfx_uarte.o(i.nrf_uarte_txrx_pins_set)
    i.nrf_wdt_started                        0x000209b0   Section        0  nrf_drv_clock.o(i.nrf_wdt_started)
    nrf_wdt_started                          0x000209b1   Thumb Code    14  nrf_drv_clock.o(i.nrf_wdt_started)
    i.nrfx_clock_enable                      0x000209c4   Section        0  nrfx_clock.o(i.nrfx_clock_enable)
    i.nrfx_clock_init                        0x000209d8   Section        0  nrfx_clock.o(i.nrfx_clock_init)
    i.nrfx_clock_lfclk_stop                  0x000209f8   Section        0  nrfx_clock.o(i.nrfx_clock_lfclk_stop)
    i.nrfx_coredep_delay_us                  0x00020a24   Section        0  drv_rtc.o(i.nrfx_coredep_delay_us)
    nrfx_coredep_delay_us                    0x00020a25   Thumb Code    20  drv_rtc.o(i.nrfx_coredep_delay_us)
    i.nrfx_get_irq_number                    0x00020a3c   Section        0  nrfx_clock.o(i.nrfx_get_irq_number)
    nrfx_get_irq_number                      0x00020a3d   Thumb Code     8  nrfx_clock.o(i.nrfx_get_irq_number)
    i.nrfx_get_irq_number                    0x00020a44   Section        0  nrfx_gpiote.o(i.nrfx_get_irq_number)
    nrfx_get_irq_number                      0x00020a45   Thumb Code     8  nrfx_gpiote.o(i.nrfx_get_irq_number)
    i.nrfx_get_irq_number                    0x00020a4c   Section        0  nrfx_uart.o(i.nrfx_get_irq_number)
    nrfx_get_irq_number                      0x00020a4d   Thumb Code     8  nrfx_uart.o(i.nrfx_get_irq_number)
    i.nrfx_get_irq_number                    0x00020a54   Section        0  nrfx_uarte.o(i.nrfx_get_irq_number)
    nrfx_get_irq_number                      0x00020a55   Thumb Code     8  nrfx_uarte.o(i.nrfx_get_irq_number)
    i.nrfx_gpiote_in_event_enable            0x00020a5c   Section        0  nrfx_gpiote.o(i.nrfx_gpiote_in_event_enable)
    i.nrfx_gpiote_in_init                    0x00020b08   Section        0  nrfx_gpiote.o(i.nrfx_gpiote_in_init)
    i.nrfx_gpiote_in_is_set                  0x00020bfc   Section        0  nrfx_gpiote.o(i.nrfx_gpiote_in_is_set)
    i.nrfx_gpiote_init                       0x00020c10   Section        0  nrfx_gpiote.o(i.nrfx_gpiote_init)
    i.nrfx_gpiote_is_init                    0x00020ce4   Section        0  nrfx_gpiote.o(i.nrfx_gpiote_is_init)
    i.nrfx_is_in_ram                         0x00020cf8   Section        0  nrfx_uarte.o(i.nrfx_is_in_ram)
    nrfx_is_in_ram                           0x00020cf9   Thumb Code    20  nrfx_uarte.o(i.nrfx_is_in_ram)
    i.nrfx_power_clock_irq_init              0x00020d0c   Section        0  nrfx_clock.o(i.nrfx_power_clock_irq_init)
    nrfx_power_clock_irq_init                0x00020d0d   Thumb Code   168  nrfx_clock.o(i.nrfx_power_clock_irq_init)
    i.nrfx_prs_acquire                       0x00020dbc   Section        0  nrfx_prs.o(i.nrfx_prs_acquire)
    i.nrfx_prs_release                       0x00020e0a   Section        0  nrfx_prs.o(i.nrfx_prs_release)
    i.nrfx_uart_0_irq_handler                0x00020e20   Section        0  nrfx_uart.o(i.nrfx_uart_0_irq_handler)
    i.nrfx_uart_init                         0x00020e34   Section        0  nrfx_uart.o(i.nrfx_uart_init)
    i.nrfx_uart_tx                           0x00020ebc   Section        0  nrfx_uart.o(i.nrfx_uart_tx)
    i.nrfx_uart_tx_in_progress               0x00020f48   Section        0  nrfx_uart.o(i.nrfx_uart_tx_in_progress)
    i.nrfx_uart_uninit                       0x00020f6c   Section        0  nrfx_uart.o(i.nrfx_uart_uninit)
    i.nrfx_uarte_0_irq_handler               0x00020fb0   Section        0  nrfx_uarte.o(i.nrfx_uarte_0_irq_handler)
    i.nrfx_uarte_init                        0x00020fc4   Section        0  nrfx_uarte.o(i.nrfx_uarte_init)
    i.nrfx_uarte_tx                          0x00021044   Section        0  nrfx_uarte.o(i.nrfx_uarte_tx)
    i.nrfx_uarte_tx_in_progress              0x00021104   Section        0  nrfx_uarte.o(i.nrfx_uarte_tx_in_progress)
    i.nrfx_uarte_uninit                      0x00021124   Section        0  nrfx_uarte.o(i.nrfx_uarte_uninit)
    i.on_adv_evt                             0x000211b8   Section        0  main.o(i.on_adv_evt)
    on_adv_evt                               0x000211b9   Thumb Code    70  main.o(i.on_adv_evt)
    i.on_compare1_evt                        0x0002121c   Section        0  app_timer2.o(i.on_compare1_evt)
    on_compare1_evt                          0x0002121d   Thumb Code    14  app_timer2.o(i.on_compare1_evt)
    i.on_compare_evt                         0x00021230   Section        0  app_timer2.o(i.on_compare_evt)
    on_compare_evt                           0x00021231   Thumb Code    26  app_timer2.o(i.on_compare_evt)
    i.on_conn_params_evt                     0x00021250   Section        0  main.o(i.on_conn_params_evt)
    on_conn_params_evt                       0x00021251   Thumb Code    38  main.o(i.on_conn_params_evt)
    i.on_conn_params_update                  0x0002127c   Section        0  ble_conn_params.o(i.on_conn_params_update)
    on_conn_params_update                    0x0002127d   Thumb Code    48  ble_conn_params.o(i.on_conn_params_update)
    i.on_connect                             0x000212ac   Section        0  ble_conn_params.o(i.on_connect)
    on_connect                               0x000212ad   Thumb Code   102  ble_conn_params.o(i.on_connect)
    i.on_connected                           0x0002131c   Section        0  ble_advertising.o(i.on_connected)
    on_connected                             0x0002131d   Thumb Code    14  ble_advertising.o(i.on_connected)
    i.on_connected_evt                       0x0002132c   Section        0  nrf_ble_gatt.o(i.on_connected_evt)
    on_connected_evt                         0x0002132d   Thumb Code   154  nrf_ble_gatt.o(i.on_connected_evt)
    i.on_disconnect                          0x00021448   Section        0  ble_conn_params.o(i.on_disconnect)
    on_disconnect                            0x00021449   Thumb Code    50  ble_conn_params.o(i.on_disconnect)
    i.on_disconnected                        0x0002147a   Section        0  ble_advertising.o(i.on_disconnected)
    on_disconnected                          0x0002147b   Thumb Code    50  ble_advertising.o(i.on_disconnected)
    i.on_disconnected_evt                    0x000214ac   Section        0  nrf_ble_gatt.o(i.on_disconnected_evt)
    on_disconnected_evt                      0x000214ad   Thumb Code    24  nrf_ble_gatt.o(i.on_disconnected_evt)
    i.on_exchange_mtu_request_evt            0x000214c4   Section        0  nrf_ble_gatt.o(i.on_exchange_mtu_request_evt)
    on_exchange_mtu_request_evt              0x000214c5   Thumb Code   200  nrf_ble_gatt.o(i.on_exchange_mtu_request_evt)
    i.on_exchange_mtu_rsp_evt                0x00021644   Section        0  nrf_ble_gatt.o(i.on_exchange_mtu_rsp_evt)
    on_exchange_mtu_rsp_evt                  0x00021645   Thumb Code   122  nrf_ble_gatt.o(i.on_exchange_mtu_rsp_evt)
    i.on_operation_failure                   0x00021708   Section        0  nrf_fstorage_sd.o(i.on_operation_failure)
    on_operation_failure                     0x00021709   Thumb Code    32  nrf_fstorage_sd.o(i.on_operation_failure)
    i.on_operation_success                   0x0002172c   Section        0  nrf_fstorage_sd.o(i.on_operation_success)
    on_operation_success                     0x0002172d   Thumb Code    92  nrf_fstorage_sd.o(i.on_operation_success)
    i.on_overflow_evt                        0x0002178c   Section        0  app_timer2.o(i.on_overflow_evt)
    on_overflow_evt                          0x0002178d   Thumb Code    24  app_timer2.o(i.on_overflow_evt)
    i.on_rw_authorize_request                0x000217a8   Section        0  nrf_ble_qwr.o(i.on_rw_authorize_request)
    on_rw_authorize_request                  0x000217a9   Thumb Code   106  nrf_ble_qwr.o(i.on_rw_authorize_request)
    i.on_terminated                          0x00021812   Section        0  ble_advertising.o(i.on_terminated)
    on_terminated                            0x00021813   Thumb Code    64  ble_advertising.o(i.on_terminated)
    i.on_user_mem_release                    0x00021852   Section        0  nrf_ble_qwr.o(i.on_user_mem_release)
    on_user_mem_release                      0x00021853   Thumb Code     2  nrf_ble_qwr.o(i.on_user_mem_release)
    i.on_user_mem_request                    0x00021854   Section        0  nrf_ble_qwr.o(i.on_user_mem_request)
    on_user_mem_request                      0x00021855   Thumb Code    32  nrf_ble_qwr.o(i.on_user_mem_request)
    i.on_write                               0x00021874   Section        0  ble_conn_params.o(i.on_write)
    on_write                                 0x00021875   Thumb Code    82  ble_conn_params.o(i.on_write)
    i.page_can_tag                           0x000218cc   Section        0  fds.o(i.page_can_tag)
    page_can_tag                             0x000218cd   Thumb Code    48  fds.o(i.page_can_tag)
    i.page_from_record                       0x00021900   Section        0  fds.o(i.page_from_record)
    page_from_record                         0x00021901   Thumb Code    66  fds.o(i.page_from_record)
    i.page_has_space                         0x00021948   Section        0  fds.o(i.page_has_space)
    page_has_space                           0x00021949   Thumb Code    46  fds.o(i.page_has_space)
    i.page_identify                          0x0002197c   Section        0  fds.o(i.page_identify)
    page_identify                            0x0002197d   Thumb Code    38  fds.o(i.page_identify)
    i.page_offsets_update                    0x000219ac   Section        0  fds.o(i.page_offsets_update)
    page_offsets_update                      0x000219ad   Thumb Code    28  fds.o(i.page_offsets_update)
    i.page_scan                              0x000219c8   Section        0  fds.o(i.page_scan)
    page_scan                                0x000219c9   Thumb Code   116  fds.o(i.page_scan)
    i.page_tag_write_data                    0x00021a40   Section        0  fds.o(i.page_tag_write_data)
    page_tag_write_data                      0x00021a41   Thumb Code    22  fds.o(i.page_tag_write_data)
    i.page_tag_write_swap                    0x00021a60   Section        0  fds.o(i.page_tag_write_swap)
    page_tag_write_swap                      0x00021a61   Thumb Code    22  fds.o(i.page_tag_write_swap)
    i.pages_init                             0x00021a84   Section        0  fds.o(i.pages_init)
    pages_init                               0x00021a85   Thumb Code   352  fds.o(i.pages_init)
    i.pairing                                0x00021bf4   Section        0  security_dispatcher.o(i.pairing)
    pairing                                  0x00021bf5   Thumb Code    16  security_dispatcher.o(i.pairing)
    i.pairing_failure                        0x00021c08   Section        0  security_dispatcher.o(i.pairing_failure)
    pairing_failure                          0x00021c09   Thumb Code   110  security_dispatcher.o(i.pairing_failure)
    i.pairing_success_evt_send               0x00021c88   Section        0  security_dispatcher.o(i.pairing_success_evt_send)
    pairing_success_evt_send                 0x00021c89   Thumb Code    52  security_dispatcher.o(i.pairing_success_evt_send)
    i.params_reply_pending_handle            0x00021cbc   Section        0  security_manager.o(i.params_reply_pending_handle)
    params_reply_pending_handle              0x00021cbd   Thumb Code    16  security_manager.o(i.params_reply_pending_handle)
    i.params_req_send                        0x00021ccc   Section        0  security_manager.o(i.params_req_send)
    params_req_send                          0x00021ccd   Thumb Code    34  security_manager.o(i.params_req_send)
    i.pdb_evt_send                           0x00021cf0   Section        0  peer_database.o(i.pdb_evt_send)
    pdb_evt_send                             0x00021cf1   Thumb Code    26  peer_database.o(i.pdb_evt_send)
    i.pdb_init                               0x00021d10   Section        0  peer_database.o(i.pdb_init)
    i.pdb_pds_evt_handler                    0x00021d98   Section        0  peer_database.o(i.pdb_pds_evt_handler)
    i.pdb_peer_data_ptr_get                  0x00021e04   Section        0  peer_database.o(i.pdb_peer_data_ptr_get)
    i.pdb_peer_free                          0x00021e1c   Section        0  peer_database.o(i.pdb_peer_free)
    i.pdb_write_buf_get                      0x00021ec8   Section        0  peer_database.o(i.pdb_write_buf_get)
    i.pdb_write_buf_release                  0x00021fb8   Section        0  peer_database.o(i.pdb_write_buf_release)
    i.pdb_write_buf_store                    0x00021fd8   Section        0  peer_database.o(i.pdb_write_buf_store)
    i.pds_evt_send                           0x0002201c   Section        0  peer_data_storage.o(i.pds_evt_send)
    pds_evt_send                             0x0002201d   Thumb Code    32  peer_data_storage.o(i.pds_evt_send)
    i.pds_init                               0x00022040   Section        0  peer_data_storage.o(i.pds_init)
    i.pds_next_deleted_peer_id_get           0x000220f0   Section        0  peer_data_storage.o(i.pds_next_deleted_peer_id_get)
    i.pds_next_peer_id_get                   0x000220fc   Section        0  peer_data_storage.o(i.pds_next_peer_id_get)
    i.pds_peer_data_iterate                  0x00022108   Section        0  peer_data_storage.o(i.pds_peer_data_iterate)
    i.pds_peer_data_iterate_prepare          0x00022174   Section        0  peer_data_storage.o(i.pds_peer_data_iterate_prepare)
    i.pds_peer_data_read                     0x00022184   Section        0  peer_data_storage.o(i.pds_peer_data_read)
    i.pds_peer_data_store                    0x00022220   Section        0  peer_data_storage.o(i.pds_peer_data_store)
    i.pds_peer_id_allocate                   0x000222f4   Section        0  peer_data_storage.o(i.pds_peer_id_allocate)
    i.pds_peer_id_free                       0x00022300   Section        0  peer_data_storage.o(i.pds_peer_id_free)
    i.pds_peer_id_is_allocated               0x0002231e   Section        0  peer_data_storage.o(i.pds_peer_id_is_allocated)
    i.peer_data_const_point_to_buffer        0x0002232a   Section        0  peer_database.o(i.peer_data_const_point_to_buffer)
    peer_data_const_point_to_buffer          0x0002232b   Thumb Code    28  peer_database.o(i.peer_data_const_point_to_buffer)
    i.peer_data_delete_process               0x00022348   Section        0  peer_data_storage.o(i.peer_data_delete_process)
    peer_data_delete_process                 0x00022349   Thumb Code   150  peer_data_storage.o(i.peer_data_delete_process)
    i.peer_data_find                         0x000223f0   Section        0  peer_data_storage.o(i.peer_data_find)
    peer_data_find                           0x000223f1   Thumb Code    64  peer_data_storage.o(i.peer_data_find)
    i.peer_data_id_is_valid                  0x00022430   Section        0  peer_data_storage.o(i.peer_data_id_is_valid)
    peer_data_id_is_valid                    0x00022431   Thumb Code    38  peer_data_storage.o(i.peer_data_id_is_valid)
    i.peer_data_id_to_record_key             0x00022456   Section        0  peer_data_storage.o(i.peer_data_id_to_record_key)
    peer_data_id_to_record_key               0x00022457   Thumb Code    10  peer_data_storage.o(i.peer_data_id_to_record_key)
    i.peer_data_point_to_buffer              0x00022460   Section        0  peer_database.o(i.peer_data_point_to_buffer)
    peer_data_point_to_buffer                0x00022461   Thumb Code    26  peer_database.o(i.peer_data_point_to_buffer)
    i.peer_id_allocate                       0x0002247c   Section        0  peer_id.o(i.peer_id_allocate)
    i.peer_id_delete                         0x00022490   Section        0  peer_id.o(i.peer_id_delete)
    i.peer_id_free                           0x000224bc   Section        0  peer_id.o(i.peer_id_free)
    i.peer_id_get_next_deleted               0x000224d8   Section        0  peer_id.o(i.peer_id_get_next_deleted)
    i.peer_id_get_next_used                  0x000224ec   Section        0  peer_id.o(i.peer_id_get_next_used)
    i.peer_id_init                           0x00022524   Section        0  peer_id.o(i.peer_id_init)
    i.peer_id_is_allocated                   0x00022534   Section        0  peer_id.o(i.peer_id_is_allocated)
    i.peer_id_is_deleted                     0x00022550   Section        0  peer_id.o(i.peer_id_is_deleted)
    i.peer_id_to_file_id                     0x0002256c   Section        0  peer_data_storage.o(i.peer_id_to_file_id)
    peer_id_to_file_id                       0x0002256d   Thumb Code    10  peer_data_storage.o(i.peer_id_to_file_id)
    i.peer_ids_load                          0x00022576   Section        0  peer_data_storage.o(i.peer_ids_load)
    peer_ids_load                            0x00022577   Thumb Code    70  peer_data_storage.o(i.peer_ids_load)
    i.peer_manager_init                      0x000225bc   Section        0  main.o(i.peer_manager_init)
    peer_manager_init                        0x000225bd   Thumb Code   230  main.o(i.peer_manager_init)
    i.phy_is_valid                           0x000226a8   Section        0  ble_advertising.o(i.phy_is_valid)
    phy_is_valid                             0x000226a9   Thumb Code    22  ble_advertising.o(i.phy_is_valid)
    i.pin_configured_set                     0x000226c0   Section        0  nrfx_gpiote.o(i.pin_configured_set)
    pin_configured_set                       0x000226c1   Thumb Code    28  nrfx_gpiote.o(i.pin_configured_set)
    i.pin_in_use_by_gpiote                   0x000226e0   Section        0  nrfx_gpiote.o(i.pin_in_use_by_gpiote)
    pin_in_use_by_gpiote                     0x000226e1   Thumb Code    22  nrfx_gpiote.o(i.pin_in_use_by_gpiote)
    i.pin_in_use_by_port                     0x000226fc   Section        0  nrfx_gpiote.o(i.pin_in_use_by_port)
    pin_in_use_by_port                       0x000226fd   Thumb Code    18  nrfx_gpiote.o(i.pin_in_use_by_port)
    i.pin_in_use_by_te                       0x00022714   Section        0  nrfx_gpiote.o(i.pin_in_use_by_te)
    pin_in_use_by_te                         0x00022715   Thumb Code    26  nrfx_gpiote.o(i.pin_in_use_by_te)
    i.pin_in_use_clear                       0x00022734   Section        0  nrfx_gpiote.o(i.pin_in_use_clear)
    pin_in_use_clear                         0x00022735   Thumb Code     8  nrfx_gpiote.o(i.pin_in_use_clear)
    i.pins_to_default                        0x00022740   Section        0  nrfx_uart.o(i.pins_to_default)
    pins_to_default                          0x00022741   Thumb Code   126  nrfx_uart.o(i.pins_to_default)
    i.pins_to_default                        0x000227be   Section        0  nrfx_uarte.o(i.pins_to_default)
    pins_to_default                          0x000227bf   Thumb Code   126  nrfx_uarte.o(i.pins_to_default)
    i.pm_buffer_block_acquire                0x0002283c   Section        0  pm_buffer.o(i.pm_buffer_block_acquire)
    i.pm_buffer_init                         0x0002289e   Section        0  pm_buffer.o(i.pm_buffer_init)
    i.pm_buffer_ptr_get                      0x000228c8   Section        0  pm_buffer.o(i.pm_buffer_ptr_get)
    i.pm_buffer_release                      0x000228f8   Section        0  pm_buffer.o(i.pm_buffer_release)
    i.pm_conn_sec_status_get                 0x00022920   Section        0  peer_manager.o(i.pm_conn_sec_status_get)
    i.pm_conn_secure                         0x00022944   Section        0  peer_manager.o(i.pm_conn_secure)
    i.pm_evt_handler                         0x00022970   Section        0  main.o(i.pm_evt_handler)
    pm_evt_handler                           0x00022971   Thumb Code    36  main.o(i.pm_evt_handler)
    i.pm_gcm_evt_handler                     0x00022994   Section        0  peer_manager.o(i.pm_gcm_evt_handler)
    i.pm_gscm_evt_handler                    0x000229a0   Section        0  peer_manager.o(i.pm_gscm_evt_handler)
    i.pm_handler_flash_clean                 0x000229ac   Section        0  peer_manager_handler.o(i.pm_handler_flash_clean)
    i.pm_handler_flash_clean_on_return       0x00022cc4   Section        0  peer_manager_handler.o(i.pm_handler_flash_clean_on_return)
    i.pm_handler_on_pm_evt                   0x00022ce0   Section        0  peer_manager_handler.o(i.pm_handler_on_pm_evt)
    i.pm_handler_pm_evt_log                  0x00022d3c   Section        0  peer_manager_handler.o(i.pm_handler_pm_evt_log)
    i.pm_im_evt_handler                      0x00023114   Section        0  peer_manager.o(i.pm_im_evt_handler)
    i.pm_init                                0x00023120   Section        0  peer_manager.o(i.pm_init)
    i.pm_pdb_evt_handler                     0x0002335c   Section        0  peer_manager.o(i.pm_pdb_evt_handler)
    i.pm_peer_delete                         0x000234d8   Section        0  peer_manager.o(i.pm_peer_delete)
    i.pm_peer_rank_highest                   0x000234f8   Section        0  peer_manager.o(i.pm_peer_rank_highest)
    i.pm_peer_ranks_get                      0x0002363c   Section        0  peer_manager.o(i.pm_peer_ranks_get)
    i.pm_peers_delete                        0x00023750   Section        0  peer_manager.o(i.pm_peers_delete)
    i.pm_register                            0x00023804   Section        0  peer_manager.o(i.pm_register)
    i.pm_sec_params_set                      0x00023844   Section        0  peer_manager.o(i.pm_sec_params_set)
    i.pm_sm_evt_handler                      0x00023868   Section        0  peer_manager.o(i.pm_sm_evt_handler)
    i.port_event_handle                      0x00023880   Section        0  nrfx_gpiote.o(i.port_event_handle)
    port_event_handle                        0x00023881   Thumb Code   186  nrfx_gpiote.o(i.port_event_handle)
    i.port_handler_pin_get                   0x00023940   Section        0  nrfx_gpiote.o(i.port_handler_pin_get)
    port_handler_pin_get                     0x00023941   Thumb Code    12  nrfx_gpiote.o(i.port_handler_pin_get)
    i.port_handler_polarity_get              0x00023950   Section        0  nrfx_gpiote.o(i.port_handler_polarity_get)
    port_handler_polarity_get                0x00023951   Thumb Code    10  nrfx_gpiote.o(i.port_handler_polarity_get)
    i.postfix_process                        0x00023960   Section        0  nrf_log_str_formatter.o(i.postfix_process)
    postfix_process                          0x00023961   Thumb Code    58  nrf_log_str_formatter.o(i.postfix_process)
    i.power_management_init                  0x000239a8   Section        0  main.o(i.power_management_init)
    power_management_init                    0x000239a9   Thumb Code    28  main.o(i.power_management_init)
    i.prefix_process                         0x000239c4   Section        0  nrf_log_str_formatter.o(i.prefix_process)
    prefix_process                           0x000239c5   Thumb Code    98  nrf_log_str_formatter.o(i.prefix_process)
    i.prs_box_get                            0x00023a68   Section        0  nrfx_prs.o(i.prs_box_get)
    prs_box_get                              0x00023a69   Thumb Code    16  nrfx_prs.o(i.prs_box_get)
    i.queue_buf_get                          0x00023a80   Section        0  fds.o(i.queue_buf_get)
    queue_buf_get                            0x00023a81   Thumb Code    28  fds.o(i.queue_buf_get)
    i.queue_buf_store                        0x00023aa0   Section        0  fds.o(i.queue_buf_store)
    queue_buf_store                          0x00023aa1   Thumb Code    16  fds.o(i.queue_buf_store)
    i.queue_free                             0x00023ab4   Section        0  fds.o(i.queue_free)
    queue_free                               0x00023ab5   Thumb Code    16  fds.o(i.queue_free)
    i.queue_free                             0x00023ac8   Section        0  nrf_fstorage_sd.o(i.queue_free)
    queue_free                               0x00023ac9   Thumb Code    14  nrf_fstorage_sd.o(i.queue_free)
    i.queue_has_next                         0x00023ae0   Section        0  fds.o(i.queue_has_next)
    queue_has_next                           0x00023ae1   Thumb Code    20  fds.o(i.queue_has_next)
    i.queue_init                             0x00023af8   Section        0  fds.o(i.queue_init)
    queue_init                               0x00023af9   Thumb Code    18  fds.o(i.queue_init)
    i.queue_load                             0x00023b14   Section        0  fds.o(i.queue_load)
    queue_load                               0x00023b15   Thumb Code    16  fds.o(i.queue_load)
    i.queue_load_next                        0x00023b28   Section        0  nrf_fstorage_sd.o(i.queue_load_next)
    queue_load_next                          0x00023b29   Thumb Code    30  nrf_fstorage_sd.o(i.queue_load_next)
    i.queue_process                          0x00023b54   Section        0  fds.o(i.queue_process)
    queue_process                            0x00023b55   Thumb Code   186  fds.o(i.queue_process)
    i.queue_process                          0x00023c18   Section        0  nrf_fstorage_sd.o(i.queue_process)
    queue_process                            0x00023c19   Thumb Code   134  nrf_fstorage_sd.o(i.queue_process)
    i.queue_start                            0x00023ca8   Section        0  fds.o(i.queue_start)
    queue_start                              0x00023ca9   Thumb Code    20  fds.o(i.queue_start)
    i.queue_start                            0x00023cc0   Section        0  nrf_fstorage_sd.o(i.queue_start)
    queue_start                              0x00023cc1   Thumb Code    24  nrf_fstorage_sd.o(i.queue_start)
    i.ram_end_address_get                    0x00023cdc   Section        0  nrf_sdh_ble.o(i.ram_end_address_get)
    ram_end_address_get                      0x00023cdd   Thumb Code    12  nrf_sdh_ble.o(i.ram_end_address_get)
    i.rank_highest                           0x00023cec   Section        0  peer_manager_handler.o(i.rank_highest)
    rank_highest                             0x00023ced   Thumb Code    28  peer_manager_handler.o(i.rank_highest)
    i.rank_init                              0x00023d08   Section        0  peer_manager.o(i.rank_init)
    rank_init                                0x00023d09   Thumb Code     8  peer_manager.o(i.rank_init)
    i.rank_vars_update                       0x00023d10   Section        0  peer_manager.o(i.rank_vars_update)
    rank_vars_update                         0x00023d11   Thumb Code    52  peer_manager.o(i.rank_vars_update)
    i.read                                   0x00023d50   Section        0  nrf_fstorage_sd.o(i.read)
    read                                     0x00023d51   Thumb Code    28  nrf_fstorage_sd.o(i.read)
    i.reattempt_previous_operations          0x00023d6c   Section        0  peer_database.o(i.reattempt_previous_operations)
    reattempt_previous_operations            0x00023d6d   Thumb Code   110  peer_database.o(i.reattempt_previous_operations)
    i.record_activate                        0x00023de4   Section        0  ble_conn_state.o(i.record_activate)
    record_activate                          0x00023de5   Thumb Code    34  ble_conn_state.o(i.record_activate)
    i.record_find                            0x00023e0c   Section        0  fds.o(i.record_find)
    record_find                              0x00023e0d   Thumb Code   134  fds.o(i.record_find)
    i.record_find_and_delete                 0x00023ea0   Section        0  fds.o(i.record_find_and_delete)
    record_find_and_delete                   0x00023ea1   Thumb Code    60  fds.o(i.record_find_and_delete)
    i.record_find_by_desc                    0x00023edc   Section        0  fds.o(i.record_find_by_desc)
    record_find_by_desc                      0x00023edd   Thumb Code   118  fds.o(i.record_find_by_desc)
    i.record_find_next                       0x00023f58   Section        0  fds.o(i.record_find_next)
    record_find_next                         0x00023f59   Thumb Code   116  fds.o(i.record_find_next)
    i.record_header_flag_dirty               0x00023fd0   Section        0  fds.o(i.record_header_flag_dirty)
    record_header_flag_dirty                 0x00023fd1   Thumb Code    50  fds.o(i.record_header_flag_dirty)
    i.record_header_write_begin              0x00024010   Section        0  fds.o(i.record_header_write_begin)
    record_header_write_begin                0x00024011   Thumb Code    40  fds.o(i.record_header_write_begin)
    i.record_header_write_finalize           0x0002403c   Section        0  fds.o(i.record_header_write_finalize)
    record_header_write_finalize             0x0002403d   Thumb Code    52  fds.o(i.record_header_write_finalize)
    i.record_header_write_id                 0x00024074   Section        0  fds.o(i.record_header_write_id)
    record_header_write_id                   0x00024075   Thumb Code    52  fds.o(i.record_header_write_id)
    i.record_id_new                          0x000240ac   Section        0  fds.o(i.record_id_new)
    record_id_new                            0x000240ad   Thumb Code    12  fds.o(i.record_id_new)
    i.record_invalidate                      0x000240bc   Section        0  ble_conn_state.o(i.record_invalidate)
    record_invalidate                        0x000240bd   Thumb Code    28  ble_conn_state.o(i.record_invalidate)
    i.record_key_to_peer_data_id             0x000240dc   Section        0  peer_data_storage.o(i.record_key_to_peer_data_id)
    record_key_to_peer_data_id               0x000240dd   Thumb Code     6  peer_data_storage.o(i.record_key_to_peer_data_id)
    i.record_key_within_pm_range             0x000240e2   Section        0  peer_data_storage.o(i.record_key_within_pm_range)
    record_key_within_pm_range               0x000240e3   Thumb Code    24  peer_data_storage.o(i.record_key_within_pm_range)
    i.record_purge_disconnected              0x000240fc   Section        0  ble_conn_state.o(i.record_purge_disconnected)
    record_purge_disconnected                0x000240fd   Thumb Code    66  ble_conn_state.o(i.record_purge_disconnected)
    i.record_set_disconnected                0x00024144   Section        0  ble_conn_state.o(i.record_set_disconnected)
    record_set_disconnected                  0x00024145   Thumb Code    14  ble_conn_state.o(i.record_set_disconnected)
    i.record_write_data                      0x00024158   Section        0  fds.o(i.record_write_data)
    record_write_data                        0x00024159   Thumb Code    44  fds.o(i.record_write_data)
    i.records_stat                           0x00024188   Section        0  fds.o(i.records_stat)
    records_stat                             0x00024189   Thumb Code   160  fds.o(i.records_stat)
    i.release                                0x0002422c   Section        0  peer_id.o(i.release)
    release                                  0x0002422d   Thumb Code    20  peer_id.o(i.release)
    i.rmap                                   0x00024240   Section        0  nrf_fstorage_sd.o(i.rmap)
    rmap                                     0x00024241   Thumb Code     6  nrf_fstorage_sd.o(i.rmap)
    i.rtc_irq                                0x00024246   Section        0  app_timer2.o(i.rtc_irq)
    rtc_irq                                  0x00024247   Thumb Code    62  app_timer2.o(i.rtc_irq)
    i.rtc_schedule                           0x00024284   Section        0  app_timer2.o(i.rtc_schedule)
    rtc_schedule                             0x00024285   Thumb Code   116  app_timer2.o(i.rtc_schedule)
    i.rtc_update                             0x00024300   Section        0  app_timer2.o(i.rtc_update)
    rtc_update                               0x00024301   Thumb Code   154  app_timer2.o(i.rtc_update)
    i.rx_byte                                0x000243a4   Section        0  nrfx_uart.o(i.rx_byte)
    rx_byte                                  0x000243a5   Thumb Code    62  nrfx_uart.o(i.rx_byte)
    i.rx_done_event                          0x000243e2   Section        0  nrfx_uart.o(i.rx_done_event)
    rx_done_event                            0x000243e3   Thumb Code    28  nrfx_uart.o(i.rx_done_event)
    i.rx_done_event                          0x000243fe   Section        0  nrfx_uarte.o(i.rx_done_event)
    rx_done_event                            0x000243ff   Thumb Code    28  nrfx_uarte.o(i.rx_done_event)
    i.sc_send_pending_handle                 0x0002441c   Section        0  gatt_cache_manager.o(i.sc_send_pending_handle)
    sc_send_pending_handle                   0x0002441d   Thumb Code    26  gatt_cache_manager.o(i.sc_send_pending_handle)
    i.sd_nvic_DisableIRQ                     0x0002443c   Section        0  nrf_sdh.o(i.sd_nvic_DisableIRQ)
    sd_nvic_DisableIRQ                       0x0002443d   Thumb Code   114  nrf_sdh.o(i.sd_nvic_DisableIRQ)
    i.sd_nvic_EnableIRQ                      0x000244b8   Section        0  nrf_sdh.o(i.sd_nvic_EnableIRQ)
    sd_nvic_EnableIRQ                        0x000244b9   Thumb Code   150  nrf_sdh.o(i.sd_nvic_EnableIRQ)
    i.sd_nvic_critical_region_enter          0x0002455c   Section        0  app_util_platform.o(i.sd_nvic_critical_region_enter)
    sd_nvic_critical_region_enter            0x0002455d   Thumb Code    90  app_util_platform.o(i.sd_nvic_critical_region_enter)
    i.sd_state_evt_handler                   0x000245c4   Section        0  nrf_drv_clock.o(i.sd_state_evt_handler)
    sd_state_evt_handler                     0x000245c5   Thumb Code   136  nrf_drv_clock.o(i.sd_state_evt_handler)
    i.sdh_request_observer_notify            0x00024654   Section        0  nrf_sdh.o(i.sdh_request_observer_notify)
    sdh_request_observer_notify              0x00024655   Thumb Code    56  nrf_sdh.o(i.sdh_request_observer_notify)
    i.sdh_state_observer_notify              0x00024690   Section        0  nrf_sdh.o(i.sdh_state_observer_notify)
    sdh_state_observer_notify                0x00024691   Thumb Code    48  nrf_sdh.o(i.sdh_state_observer_notify)
    i.sec_info_request_process               0x000246c4   Section        0  security_dispatcher.o(i.sec_info_request_process)
    sec_info_request_process                 0x000246c5   Thumb Code   232  security_dispatcher.o(i.sec_info_request_process)
    i.sec_keyset_fill                        0x000247bc   Section        0  security_dispatcher.o(i.sec_keyset_fill)
    sec_keyset_fill                          0x000247bd   Thumb Code   196  security_dispatcher.o(i.sec_keyset_fill)
    i.sec_params_request_process             0x000248cc   Section        0  security_dispatcher.o(i.sec_params_request_process)
    sec_params_request_process               0x000248cd   Thumb Code    48  security_dispatcher.o(i.sec_params_request_process)
    i.sec_params_verify                      0x000248fc   Section        0  security_manager.o(i.sec_params_verify)
    sec_params_verify                        0x000248fd   Thumb Code   232  security_manager.o(i.sec_params_verify)
    i.sec_proc_start                         0x000249e4   Section        0  security_dispatcher.o(i.sec_proc_start)
    sec_proc_start                           0x000249e5   Thumb Code    74  security_dispatcher.o(i.sec_proc_start)
    i.sec_req_process                        0x00024a3c   Section        0  security_manager.o(i.sec_req_process)
    sec_req_process                          0x00024a3d   Thumb Code   100  security_manager.o(i.sec_req_process)
    i.sec_start_send                         0x00024aa4   Section        0  security_dispatcher.o(i.sec_start_send)
    sec_start_send                           0x00024aa5   Thumb Code    36  security_dispatcher.o(i.sec_start_send)
    i.send_config_req                        0x00024acc   Section        0  security_dispatcher.o(i.send_config_req)
    send_config_req                          0x00024acd   Thumb Code    34  security_dispatcher.o(i.send_config_req)
    i.send_error_evt                         0x00024af0   Section        0  ble_conn_params.o(i.send_error_evt)
    send_error_evt                           0x00024af1   Thumb Code    20  ble_conn_params.o(i.send_error_evt)
    i.send_params_req                        0x00024b08   Section        0  security_dispatcher.o(i.send_params_req)
    send_params_req                          0x00024b09   Thumb Code    34  security_dispatcher.o(i.send_params_req)
    i.send_storage_full_evt                  0x00024b30   Section        0  security_dispatcher.o(i.send_storage_full_evt)
    send_storage_full_evt                    0x00024b31   Thumb Code    30  security_dispatcher.o(i.send_storage_full_evt)
    i.send_unexpected_error                  0x00024b54   Section        0  gatt_cache_manager.o(i.send_unexpected_error)
    send_unexpected_error                    0x00024b55   Thumb Code    34  gatt_cache_manager.o(i.send_unexpected_error)
    i.send_unexpected_error                  0x00024b7c   Section        0  peer_data_storage.o(i.send_unexpected_error)
    send_unexpected_error                    0x00024b7d   Thumb Code    34  peer_data_storage.o(i.send_unexpected_error)
    i.send_unexpected_error                  0x00024ba4   Section        0  security_dispatcher.o(i.send_unexpected_error)
    send_unexpected_error                    0x00024ba5   Thumb Code    34  security_dispatcher.o(i.send_unexpected_error)
    i.send_unexpected_error                  0x00024bcc   Section        0  security_manager.o(i.send_unexpected_error)
    send_unexpected_error                    0x00024bcd   Thumb Code    30  security_manager.o(i.send_unexpected_error)
    i.send_update_request                    0x00024bea   Section        0  ble_conn_params.o(i.send_update_request)
    send_update_request                      0x00024beb   Thumb Code    36  ble_conn_params.o(i.send_update_request)
    i.serial_tx                              0x00024c10   Section        0  nrf_log_backend_rtt.o(i.serial_tx)
    serial_tx                                0x00024c11   Thumb Code   124  nrf_log_backend_rtt.o(i.serial_tx)
    i.serial_tx                              0x00024c94   Section        0  nrf_log_backend_uart.o(i.serial_tx)
    serial_tx                                0x00024c95   Thumb Code   112  nrf_log_backend_uart.o(i.serial_tx)
    i.service_changed_cccd                   0x00024d14   Section        0  gatt_cache_manager.o(i.service_changed_cccd)
    service_changed_cccd                     0x00024d15   Thumb Code   112  gatt_cache_manager.o(i.service_changed_cccd)
    i.service_changed_needed                 0x00024d88   Section        0  gatt_cache_manager.o(i.service_changed_needed)
    service_changed_needed                   0x00024d89   Thumb Code    26  gatt_cache_manager.o(i.service_changed_needed)
    i.service_changed_pending_flags_check    0x00024da8   Section        0  gatt_cache_manager.o(i.service_changed_pending_flags_check)
    service_changed_pending_flags_check      0x00024da9   Thumb Code    16  gatt_cache_manager.o(i.service_changed_pending_flags_check)
    i.service_changed_pending_set            0x00024dc0   Section        0  gatts_cache_manager.o(i.service_changed_pending_set)
    service_changed_pending_set              0x00024dc1   Thumb Code   148  gatts_cache_manager.o(i.service_changed_pending_set)
    i.service_changed_send_in_evt            0x00024e68   Section        0  gatt_cache_manager.o(i.service_changed_send_in_evt)
    service_changed_send_in_evt              0x00024e69   Thumb Code   206  gatt_cache_manager.o(i.service_changed_send_in_evt)
    i.service_data_encode                    0x00024f8c   Section        0  ble_advdata.o(i.service_data_encode)
    service_data_encode                      0x00024f8d   Thumb Code   150  ble_advdata.o(i.service_data_encode)
    i.services_init                          0x00025024   Section        0  main.o(i.services_init)
    services_init                            0x00025025   Thumb Code    40  main.o(i.services_init)
    i.set_adv_mode_directed                  0x00025054   Section        0  ble_advertising.o(i.set_adv_mode_directed)
    set_adv_mode_directed                    0x00025055   Thumb Code    36  ble_advertising.o(i.set_adv_mode_directed)
    i.set_adv_mode_directed_high_duty        0x00025078   Section        0  ble_advertising.o(i.set_adv_mode_directed_high_duty)
    set_adv_mode_directed_high_duty          0x00025079   Thumb Code    36  ble_advertising.o(i.set_adv_mode_directed_high_duty)
    i.set_adv_mode_fast                      0x0002509c   Section        0  ble_advertising.o(i.set_adv_mode_fast)
    set_adv_mode_fast                        0x0002509d   Thumb Code    78  ble_advertising.o(i.set_adv_mode_fast)
    i.set_adv_mode_slow                      0x000250ea   Section        0  ble_advertising.o(i.set_adv_mode_slow)
    set_adv_mode_slow                        0x000250eb   Thumb Code    78  ble_advertising.o(i.set_adv_mode_slow)
    i.sleep_mode_enter                       0x00025138   Section        0  main.o(i.sleep_mode_enter)
    sleep_mode_enter                         0x00025139   Thumb Code    76  main.o(i.sleep_mode_enter)
    i.sm_ble_evt_handler                     0x00025184   Section        0  security_manager.o(i.sm_ble_evt_handler)
    i.sm_conn_sec_status_get                 0x000251b8   Section        0  security_manager.o(i.sm_conn_sec_status_get)
    i.sm_init                                0x00025254   Section        0  security_manager.o(i.sm_init)
    i.sm_link_secure                         0x000252b8   Section        0  security_manager.o(i.sm_link_secure)
    i.sm_pdb_evt_handler                     0x000252d0   Section        0  security_manager.o(i.sm_pdb_evt_handler)
    i.sm_sec_is_sufficient                   0x00025328   Section        0  security_manager.o(i.sm_sec_is_sufficient)
    i.sm_sec_params_set                      0x00025358   Section        0  security_manager.o(i.sm_sec_params_set)
    i.sm_smd_evt_handler                     0x000253a0   Section        0  security_manager.o(i.sm_smd_evt_handler)
    i.smd_ble_evt_handler                    0x000253d2   Section        0  security_dispatcher.o(i.smd_ble_evt_handler)
    i.smd_init                               0x00025420   Section        0  security_dispatcher.o(i.smd_init)
    i.smd_link_secure                        0x0002549c   Section        0  security_dispatcher.o(i.smd_link_secure)
    i.smd_params_reply                       0x000254c4   Section        0  security_dispatcher.o(i.smd_params_reply)
    i.smd_params_reply_perform               0x00025584   Section        0  security_manager.o(i.smd_params_reply_perform)
    smd_params_reply_perform                 0x00025585   Thumb Code    60  security_manager.o(i.smd_params_reply_perform)
    i.soc_evt_handler                        0x000255c4   Section        0  nrf_drv_clock.o(i.soc_evt_handler)
    soc_evt_handler                          0x000255c5   Thumb Code    22  nrf_drv_clock.o(i.soc_evt_handler)
    i.softdevice_evt_irq_disable             0x000255e0   Section        0  nrf_sdh.o(i.softdevice_evt_irq_disable)
    softdevice_evt_irq_disable               0x000255e1   Thumb Code    30  nrf_sdh.o(i.softdevice_evt_irq_disable)
    i.softdevices_evt_irq_enable             0x000255fe   Section        0  nrf_sdh.o(i.softdevices_evt_irq_enable)
    softdevices_evt_irq_enable               0x000255ff   Thumb Code    30  nrf_sdh.o(i.softdevices_evt_irq_enable)
    i.sorted_list_stop_all                   0x0002561c   Section        0  app_timer2.o(i.sorted_list_stop_all)
    sorted_list_stop_all                     0x0002561d   Thumb Code    20  app_timer2.o(i.sorted_list_stop_all)
    i.sortlist_pop                           0x00025630   Section        0  app_timer2.o(i.sortlist_pop)
    sortlist_pop                             0x00025631   Thumb Code    20  app_timer2.o(i.sortlist_pop)
    i.startup_event_extract                  0x00025648   Section        0  bsp_btn_ble.o(i.startup_event_extract)
    startup_event_extract                    0x00025649   Thumb Code    38  bsp_btn_ble.o(i.startup_event_extract)
    i.state_get                              0x00025670   Section        0  app_button.o(i.state_get)
    state_get                                0x00025671   Thumb Code    28  app_button.o(i.state_get)
    i.state_set                              0x00025690   Section        0  app_button.o(i.state_set)
    state_set                                0x00025691   Thumb Code    68  app_button.o(i.state_set)
    i.std_header_set                         0x000256d8   Section        0  nrf_log_frontend.o(i.std_header_set)
    std_header_set                           0x000256d9   Thumb Code    96  nrf_log_frontend.o(i.std_header_set)
    i.std_n                                  0x0002573c   Section        0  nrf_log_frontend.o(i.std_n)
    std_n                                    0x0002573d   Thumb Code   104  nrf_log_frontend.o(i.std_n)
    i.store_car_value                        0x000257ac   Section        0  gatt_cache_manager.o(i.store_car_value)
    i.string_print                           0x00025824   Section        0  nrf_fprintf_format.o(i.string_print)
    string_print                             0x00025825   Thumb Code   116  nrf_fprintf_format.o(i.string_print)
    i.ticks_sub                              0x00025898   Section        0  drv_rtc.o(i.ticks_sub)
    ticks_sub                                0x00025899   Thumb Code    10  drv_rtc.o(i.ticks_sub)
    i.timer_expire                           0x000258a4   Section        0  app_timer2.o(i.timer_expire)
    timer_expire                             0x000258a5   Thumb Code    98  app_timer2.o(i.timer_expire)
    i.timer_req_process                      0x00025910   Section        0  app_timer2.o(i.timer_req_process)
    timer_req_process                        0x00025911   Thumb Code   130  app_timer2.o(i.timer_req_process)
    i.timer_req_schedule                     0x000259a4   Section        0  app_timer2.o(i.timer_req_schedule)
    timer_req_schedule                       0x000259a5   Thumb Code    56  app_timer2.o(i.timer_req_schedule)
    i.timer_start                            0x000259e4   Section        0  app_button.o(i.timer_start)
    timer_start                              0x000259e5   Thumb Code    22  app_button.o(i.timer_start)
    i.timers_init                            0x00025a04   Section        0  main.o(i.timers_init)
    timers_init                              0x00025a05   Thumb Code    28  main.o(i.timers_init)
    i.timestamp_print                        0x00025a20   Section        0  nrf_log_str_formatter.o(i.timestamp_print)
    timestamp_print                          0x00025a21   Thumb Code     2  nrf_log_str_formatter.o(i.timestamp_print)
    i.tx_blocking                            0x00025a22   Section        0  nrfx_uart.o(i.tx_blocking)
    tx_blocking                              0x00025a23   Thumb Code    54  nrfx_uart.o(i.tx_blocking)
    i.tx_byte                                0x00025a58   Section        0  nrfx_uart.o(i.tx_byte)
    tx_byte                                  0x00025a59   Thumb Code    38  nrfx_uart.o(i.tx_byte)
    i.tx_done_event                          0x00025a7e   Section        0  nrfx_uart.o(i.tx_done_event)
    tx_done_event                            0x00025a7f   Thumb Code    32  nrfx_uart.o(i.tx_done_event)
    i.tx_done_event                          0x00025a9e   Section        0  nrfx_uarte.o(i.tx_done_event)
    tx_done_event                            0x00025a9f   Thumb Code    32  nrfx_uarte.o(i.tx_done_event)
    i.tx_power_level_encode                  0x00025abe   Section        0  ble_advdata.o(i.tx_power_level_encode)
    tx_power_level_encode                    0x00025abf   Thumb Code    54  ble_advdata.o(i.tx_power_level_encode)
    i.uart_evt_handler                       0x00025af4   Section        0  nrf_drv_uart.o(i.uart_evt_handler)
    uart_evt_handler                         0x00025af5   Thumb Code    46  nrf_drv_uart.o(i.uart_evt_handler)
    i.uart_evt_handler                       0x00025b2c   Section        0  nrf_log_backend_uart.o(i.uart_evt_handler)
    uart_evt_handler                         0x00025b2d   Thumb Code     8  nrf_log_backend_uart.o(i.uart_evt_handler)
    i.uart_init                              0x00025b38   Section        0  nrf_log_backend_uart.o(i.uart_init)
    uart_init                                0x00025b39   Thumb Code    82  nrf_log_backend_uart.o(i.uart_init)
    i.uart_irq_handler                       0x00025b9c   Section        0  nrfx_uart.o(i.uart_irq_handler)
    uart_irq_handler                         0x00025b9d   Thumb Code   334  nrfx_uart.o(i.uart_irq_handler)
    i.uarte_evt_handler                      0x00025cec   Section        0  nrf_drv_uart.o(i.uarte_evt_handler)
    uarte_evt_handler                        0x00025ced   Thumb Code    46  nrf_drv_uart.o(i.uarte_evt_handler)
    i.uarte_irq_handler                      0x00025d24   Section        0  nrfx_uarte.o(i.uarte_irq_handler)
    uarte_irq_handler                        0x00025d25   Thumb Code   308  nrfx_uarte.o(i.uarte_irq_handler)
    i.uint16_decode                          0x00025e58   Section        0  ble_srv_common.o(i.uint16_decode)
    uint16_decode                            0x00025e59   Thumb Code    12  ble_srv_common.o(i.uint16_decode)
    i.uint16_encode                          0x00025e64   Section        0  ble_advdata.o(i.uint16_encode)
    uint16_encode                            0x00025e65   Thumb Code    12  ble_advdata.o(i.uint16_encode)
    i.uninit                                 0x00025e70   Section        0  nrf_fstorage_sd.o(i.uninit)
    uninit                                   0x00025e71   Thumb Code    26  nrf_fstorage_sd.o(i.uninit)
    i.unsigned_print                         0x00025e94   Section        0  nrf_fprintf_format.o(i.unsigned_print)
    unsigned_print                           0x00025e95   Thumb Code   178  nrf_fprintf_format.o(i.unsigned_print)
    i.update_pending_flags_check             0x00025f4c   Section        0  gatt_cache_manager.o(i.update_pending_flags_check)
    update_pending_flags_check               0x00025f4d   Thumb Code    36  gatt_cache_manager.o(i.update_pending_flags_check)
    i.update_timeout_handler                 0x00025f80   Section        0  ble_conn_params.o(i.update_timeout_handler)
    update_timeout_handler                   0x00025f81   Thumb Code   110  ble_conn_params.o(i.update_timeout_handler)
    i.use_whitelist                          0x00025ff4   Section        0  ble_advertising.o(i.use_whitelist)
    use_whitelist                            0x00025ff5   Thumb Code    30  ble_advertising.o(i.use_whitelist)
    i.user_flag_is_acquired                  0x00026014   Section        0  ble_conn_state.o(i.user_flag_is_acquired)
    user_flag_is_acquired                    0x00026015   Thumb Code    14  ble_conn_state.o(i.user_flag_is_acquired)
    i.user_mem_reply                         0x00026028   Section        0  nrf_ble_qwr.o(i.user_mem_reply)
    user_mem_reply                           0x00026029   Thumb Code    44  nrf_ble_qwr.o(i.user_mem_reply)
    i.usr_event                              0x00026054   Section        0  app_button.o(i.usr_event)
    usr_event                                0x00026055   Thumb Code    30  app_button.o(i.usr_event)
    i.uuid_list_encode                       0x00026072   Section        0  ble_advdata.o(i.uuid_list_encode)
    uuid_list_encode                         0x00026073   Thumb Code    78  ble_advdata.o(i.uuid_list_encode)
    i.uuid_list_sized_encode                 0x000260c0   Section        0  ble_advdata.o(i.uuid_list_sized_encode)
    uuid_list_sized_encode                   0x000260c1   Thumb Code   214  ble_advdata.o(i.uuid_list_sized_encode)
    i.wakeup_button_cfg                      0x00026196   Section        0  bsp.o(i.wakeup_button_cfg)
    wakeup_button_cfg                        0x00026197   Thumb Code    86  bsp.o(i.wakeup_button_cfg)
    i.whitelist_has_entries                  0x000261ec   Section        0  ble_advertising.o(i.whitelist_has_entries)
    whitelist_has_entries                    0x000261ed   Thumb Code     8  ble_advertising.o(i.whitelist_has_entries)
    i.wmap                                   0x000261f4   Section        0  nrf_fstorage_sd.o(i.wmap)
    wmap                                     0x000261f5   Thumb Code     6  nrf_fstorage_sd.o(i.wmap)
    i.write                                  0x000261fc   Section        0  nrf_fstorage_sd.o(i.write)
    write                                    0x000261fd   Thumb Code    80  nrf_fstorage_sd.o(i.write)
    i.write_buf_length_words_set             0x00026250   Section        0  peer_database.o(i.write_buf_length_words_set)
    write_buf_length_words_set               0x00026251   Thumb Code    56  peer_database.o(i.write_buf_length_words_set)
    i.write_buf_store                        0x00026288   Section        0  peer_database.o(i.write_buf_store)
    i.write_buf_store_in_event               0x000263e8   Section        0  peer_database.o(i.write_buf_store_in_event)
    write_buf_store_in_event                 0x000263e9   Thumb Code    98  peer_database.o(i.write_buf_store_in_event)
    i.write_buffer_record_acquire            0x00026458   Section        0  peer_database.o(i.write_buffer_record_acquire)
    write_buffer_record_acquire              0x00026459   Thumb Code    36  peer_database.o(i.write_buffer_record_acquire)
    i.write_buffer_record_find               0x0002647c   Section        0  peer_database.o(i.write_buffer_record_find)
    write_buffer_record_find                 0x0002647d   Thumb Code    76  peer_database.o(i.write_buffer_record_find)
    i.write_buffer_record_find_next          0x000264c8   Section        0  peer_database.o(i.write_buffer_record_find_next)
    write_buffer_record_find_next            0x000264c9   Thumb Code    46  peer_database.o(i.write_buffer_record_find_next)
    i.write_buffer_record_find_stored        0x000264fc   Section        0  peer_database.o(i.write_buffer_record_find_stored)
    write_buffer_record_find_stored          0x000264fd   Thumb Code    42  peer_database.o(i.write_buffer_record_find_stored)
    i.write_buffer_record_find_unused        0x0002652c   Section        0  peer_database.o(i.write_buffer_record_find_unused)
    write_buffer_record_find_unused          0x0002652d   Thumb Code    14  peer_database.o(i.write_buffer_record_find_unused)
    i.write_buffer_record_invalidate         0x0002653a   Section        0  peer_database.o(i.write_buffer_record_invalidate)
    write_buffer_record_invalidate           0x0002653b   Thumb Code    36  peer_database.o(i.write_buffer_record_invalidate)
    i.write_buffer_record_release            0x00026560   Section        0  peer_database.o(i.write_buffer_record_release)
    write_buffer_record_release              0x00026561   Thumb Code    36  peer_database.o(i.write_buffer_record_release)
    i.write_enqueue                          0x00026588   Section        0  fds.o(i.write_enqueue)
    write_enqueue                            0x00026589   Thumb Code   224  fds.o(i.write_enqueue)
    i.write_execute                          0x00026670   Section        0  fds.o(i.write_execute)
    write_execute                            0x00026671   Thumb Code   188  fds.o(i.write_execute)
    i.write_execute                          0x00026738   Section        0  nrf_fstorage_sd.o(i.write_execute)
    write_execute                            0x00026739   Thumb Code    82  nrf_fstorage_sd.o(i.write_execute)
    i.write_space_free                       0x00026790   Section        0  fds.o(i.write_space_free)
    write_space_free                         0x00026791   Thumb Code    32  fds.o(i.write_space_free)
    i.write_space_reserve                    0x000267b4   Section        0  fds.o(i.write_space_reserve)
    write_space_reserve                      0x000267b5   Thumb Code   118  fds.o(i.write_space_reserve)
    .constdata                               0x00026830   Section        4  boards.o(.constdata)
    m_board_btn_list                         0x00026830   Data           4  boards.o(.constdata)
    .constdata                               0x00026834   Section       36  bsp.o(.constdata)
    m_bsp_button_tmr                         0x00026834   Data           4  bsp.o(.constdata)
    app_buttons                              0x00026838   Data          32  bsp.o(.constdata)
    .constdata                               0x00026858   Section      108  gatt_cache_manager.o(.constdata)
    car_value_true                           0x000268a0   Data           4  gatt_cache_manager.o(.constdata)
    car_value_false                          0x000268a4   Data           4  gatt_cache_manager.o(.constdata)
    .constdata                               0x000268c4   Section       24  gatts_cache_manager.o(.constdata)
    service_changed_pending                  0x000268c4   Data           4  gatts_cache_manager.o(.constdata)
    service_changed_pending                  0x000268d0   Data           4  gatts_cache_manager.o(.constdata)
    .constdata                               0x000268dc   Section        8  id_manager.o(.constdata)
    m_evt_handlers                           0x000268dc   Data           8  id_manager.o(.constdata)
    .constdata                               0x000268e4   Section       14  nrf_ble_gatt.o(.constdata)
    .constdata                               0x000268f4   Section       24  peer_data_storage.o(.constdata)
    m_evt_handlers                           0x000268f4   Data           4  peer_data_storage.o(.constdata)
    .constdata                               0x0002690c   Section       16  peer_database.o(.constdata)
    m_evt_handlers                           0x0002690c   Data          16  peer_database.o(.constdata)
    .constdata                               0x0002691c   Section       44  peer_manager.o(.constdata)
    __func__                                 0x0002691c   Data           8  peer_manager.o(.constdata)
    __func__                                 0x00026924   Data          12  peer_manager.o(.constdata)
    __func__                                 0x00026930   Data          16  peer_manager.o(.constdata)
    .constdata                               0x00026948   Section       52  peer_manager_handler.o(.constdata)
    m_pm_sec_error_str                       0x00026948   Data          32  peer_manager_handler.o(.constdata)
    .constdata                               0x0002697c   Section      120  security_dispatcher.o(.constdata)
    m_evt_handlers                           0x0002697c   Data           4  security_dispatcher.o(.constdata)
    __func__                                 0x000269e4   Data          16  security_dispatcher.o(.constdata)
    .constdata                               0x000269f4   Section        5  security_manager.o(.constdata)
    m_evt_handlers                           0x000269f4   Data           4  security_manager.o(.constdata)
    .constdata                               0x000269fc   Section       62  nrfx_gpiote.o(.constdata)
    __func__                                 0x00026a00   Data          17  nrfx_gpiote.o(.constdata)
    __func__                                 0x00026a11   Data          21  nrfx_gpiote.o(.constdata)
    __func__                                 0x00026a26   Data          20  nrfx_gpiote.o(.constdata)
    .constdata                               0x00026a3c   Section       46  nrfx_uart.o(.constdata)
    __func__                                 0x00026a3c   Data          15  nrfx_uart.o(.constdata)
    irq_handlers                             0x00026a4c   Data           4  nrfx_uart.o(.constdata)
    __func__                                 0x00026a50   Data          13  nrfx_uart.o(.constdata)
    __func__                                 0x00026a5d   Data          13  nrfx_uart.o(.constdata)
    .constdata                               0x00026a6c   Section       48  nrfx_uarte.o(.constdata)
    __func__                                 0x00026a6c   Data          16  nrfx_uarte.o(.constdata)
    irq_handlers                             0x00026a7c   Data           4  nrfx_uarte.o(.constdata)
    __func__                                 0x00026a80   Data          14  nrfx_uarte.o(.constdata)
    __func__                                 0x00026a8e   Data          14  nrfx_uarte.o(.constdata)
    .constdata                               0x00026a9c   Section        7  app_button.o(.constdata)
    m_detection_delay_timer_id               0x00026a9c   Data           4  app_button.o(.constdata)
    .constdata                               0x00026aa4   Section       20  app_timer2.o(.constdata)
    m_req_fifo                               0x00026aa4   Data           4  app_timer2.o(.constdata)
    m_app_timer_sortlist                     0x00026aa8   Data          12  app_timer2.o(.constdata)
    .constdata                               0x00026ac0   Section        6  drv_rtc.o(.constdata)
    delay_machine_code                       0x00026ac0   Data           6  drv_rtc.o(.constdata)
    .constdata                               0x00026ac8   Section       24  fds.o(.constdata)
    m_queue                                  0x00026ac8   Data           4  fds.o(.constdata)
    page_tag_swap                            0x00026acc   Data           8  fds.o(.constdata)
    page_tag_data                            0x00026ad4   Data           8  fds.o(.constdata)
    dirty_header                             0x00026adc   Data           4  fds.o(.constdata)
    .constdata                               0x00026ae0   Section       16  nrf_fprintf_format.o(.constdata)
    _aV2C                                    0x00026ae0   Data          16  nrf_fprintf_format.o(.constdata)
    .constdata                               0x00026af0   Section       94  nrf_fstorage.o(.constdata)
    __func__                                 0x00026af0   Data          18  nrf_fstorage.o(.constdata)
    __func__                                 0x00026b02   Data          20  nrf_fstorage.o(.constdata)
    __func__                                 0x00026b16   Data          18  nrf_fstorage.o(.constdata)
    __func__                                 0x00026b28   Data          19  nrf_fstorage.o(.constdata)
    __func__                                 0x00026b3b   Data          19  nrf_fstorage.o(.constdata)
    .constdata                               0x00026b50   Section       48  nrf_fstorage_sd.o(.constdata)
    m_flash_info                             0x00026b50   Data          12  nrf_fstorage_sd.o(.constdata)
    m_fifo                                   0x00026b5c   Data           4  nrf_fstorage_sd.o(.constdata)
    .constdata                               0x00026b80   Section       36  nrf_pwr_mgmt.o(.constdata)
    pwr_mgmt_data_array                      0x00026b80   Data          24  nrf_pwr_mgmt.o(.constdata)
    pwr_mgmt_data                            0x00026b98   Data          12  nrf_pwr_mgmt.o(.constdata)
    .constdata                               0x00026ba4   Section      316  nrf_strerror.o(.constdata)
    m_unknown_str                            0x00026ba4   Data          19  nrf_strerror.o(.constdata)
    nrf_strerror_array                       0x00026bb8   Data         296  nrf_strerror.o(.constdata)
    .constdata                               0x00026ce0   Section       22  nrf_log_backend_rtt.o(.constdata)
    delay_machine_code                       0x00026cf0   Data           6  nrf_log_backend_rtt.o(.constdata)
    .constdata                               0x00026cf8   Section       44  nrf_log_backend_uart.o(.constdata)
    .constdata                               0x00026d24   Section       12  nrf_log_frontend.o(.constdata)
    m_log_push_ringbuf                       0x00026d24   Data          12  nrf_log_frontend.o(.constdata)
    .constdata                               0x00026d30   Section       88  nrf_sdh.o(.constdata)
    sdh_req_observers_array                  0x00026d30   Data          16  nrf_sdh.o(.constdata)
    sdh_req_observers                        0x00026d40   Data          12  nrf_sdh.o(.constdata)
    sdh_state_observers_array                0x00026d4c   Data          16  nrf_sdh.o(.constdata)
    sdh_state_observers                      0x00026d5c   Data          12  nrf_sdh.o(.constdata)
    sdh_stack_observers_array                0x00026d68   Data          16  nrf_sdh.o(.constdata)
    sdh_stack_observers                      0x00026d78   Data          12  nrf_sdh.o(.constdata)
    .constdata                               0x00026d88   Section       48  nrf_sdh_ble.o(.constdata)
    sdh_ble_observers_array                  0x00026d88   Data          32  nrf_sdh_ble.o(.constdata)
    sdh_ble_observers                        0x00026da8   Data          12  nrf_sdh_ble.o(.constdata)
    .constdata                               0x00026db8   Section       28  nrf_sdh_soc.o(.constdata)
    sdh_soc_observers_array                  0x00026db8   Data          16  nrf_sdh_soc.o(.constdata)
    sdh_soc_observers                        0x00026dc8   Data          12  nrf_sdh_soc.o(.constdata)
    .constdata                               0x00026dd4   Section      129  ctype_o.o(.constdata)
    .constdata                               0x00026e58   Section        4  ctype_o.o(.constdata)
    table                                    0x00026e58   Data           4  ctype_o.o(.constdata)
    .conststring                             0x00026e5c   Section      420  gatt_cache_manager.o(.conststring)
    .conststring                             0x00027000   Section      412  gatts_cache_manager.o(.conststring)
    .conststring                             0x0002719c   Section      154  nrf_ble_gatt.o(.conststring)
    .conststring                             0x00027238   Section      232  peer_data_storage.o(.conststring)
    .conststring                             0x00027320   Section      384  peer_database.o(.conststring)
    .conststring                             0x000274a0   Section      144  peer_manager.o(.conststring)
    .conststring                             0x00027530   Section     1555  peer_manager_handler.o(.conststring)
    .conststring                             0x00027b44   Section      690  security_dispatcher.o(.conststring)
    .conststring                             0x00027df8   Section      379  security_manager.o(.conststring)
    .conststring                             0x00027f74   Section       79  nrf_fstorage.o(.conststring)
    .conststring                             0x00027fc4   Section     1003  nrf_strerror.o(.conststring)
    .conststring                             0x000283b0   Section      102  nrf_log_str_formatter.o(.conststring)
    .conststring                             0x00028418   Section      392  nrf_sdh_ble.o(.conststring)
    .conststrlit                             0x000285a0   Section       17  gatt_cache_manager.o(.conststrlit)
    .conststrlit                             0x000285b4   Section       18  gatts_cache_manager.o(.conststrlit)
    .conststrlit                             0x000285c8   Section       16  id_manager.o(.conststrlit)
    .conststrlit                             0x000285d8   Section       13  nrf_ble_gatt.o(.conststrlit)
    .conststrlit                             0x000285e8   Section       17  peer_data_storage.o(.conststrlit)
    .conststrlit                             0x000285fc   Section       17  peer_database.o(.conststrlit)
    .conststrlit                             0x00028610   Section       13  peer_manager.o(.conststrlit)
    .conststrlit                             0x00028620   Section       21  peer_manager_handler.o(.conststrlit)
    .conststrlit                             0x00028638   Section       17  security_dispatcher.o(.conststrlit)
    .conststrlit                             0x0002864c   Section       16  security_manager.o(.conststrlit)
    .conststrlit                             0x0002865c   Section        6  nrf_drv_clock.o(.conststrlit)
    .conststrlit                             0x00028664   Section        6  nrfx_clock.o(.conststrlit)
    .conststrlit                             0x0002866c   Section        7  nrfx_gpiote.o(.conststrlit)
    .conststrlit                             0x00028674   Section        4  nrfx_prs.o(.conststrlit)
    .conststrlit                             0x00028678   Section        5  nrfx_uart.o(.conststrlit)
    .conststrlit                             0x00028680   Section        6  nrfx_uarte.o(.conststrlit)
    .conststrlit                             0x00028688   Section       11  app_button.o(.conststrlit)
    .conststrlit                             0x00028694   Section       10  app_timer2.o(.conststrlit)
    .conststrlit                             0x000286a0   Section       13  nrf_fstorage.o(.conststrlit)
    .conststrlit                             0x000286b0   Section        9  nrf_pwr_mgmt.o(.conststrlit)
    .conststrlit                             0x000286bc   Section        9  nrf_sortlist.o(.conststrlit)
    .conststrlit                             0x000286c8   Section       33  nrf_log_default_backends.o(.conststrlit)
    .conststrlit                             0x000286ec   Section        4  nrf_log_frontend.o(.conststrlit)
    .conststrlit                             0x000286f0   Section        8  nrf_sdh.o(.conststrlit)
    .conststrlit                             0x000286f8   Section       12  nrf_sdh_ble.o(.conststrlit)
    .conststrlit                             0x00028704   Section       12  nrf_sdh_soc.o(.conststrlit)
    log_backends                             0x00028730   Section       32  nrf_log_default_backends.o(log_backends)
    __tagsym$$used                           0x00028730   Number         0  nrf_log_default_backends.o(log_backends)
    rtt_log_backend                          0x00028730   Data          16  nrf_log_default_backends.o(log_backends)
    __tagsym$$used                           0x00028740   Number         0  nrf_log_default_backends.o(log_backends)
    uart_log_backend                         0x00028740   Data          16  nrf_log_default_backends.o(log_backends)
    log_const_data                           0x00028750   Section        8  gatt_cache_manager.o(log_const_data)
    __tagsym$$used                           0x00028750   Number         0  gatt_cache_manager.o(log_const_data)
    log_const_data                           0x00028758   Section        8  gatts_cache_manager.o(log_const_data)
    __tagsym$$used                           0x00028758   Number         0  gatts_cache_manager.o(log_const_data)
    log_const_data                           0x00028760   Section        8  id_manager.o(log_const_data)
    __tagsym$$used                           0x00028760   Number         0  id_manager.o(log_const_data)
    log_const_data                           0x00028768   Section        8  nrf_ble_gatt.o(log_const_data)
    __tagsym$$used                           0x00028768   Number         0  nrf_ble_gatt.o(log_const_data)
    log_const_data                           0x00028770   Section        8  peer_data_storage.o(log_const_data)
    __tagsym$$used                           0x00028770   Number         0  peer_data_storage.o(log_const_data)
    log_const_data                           0x00028778   Section        8  peer_database.o(log_const_data)
    __tagsym$$used                           0x00028778   Number         0  peer_database.o(log_const_data)
    log_const_data                           0x00028780   Section        8  peer_manager.o(log_const_data)
    __tagsym$$used                           0x00028780   Number         0  peer_manager.o(log_const_data)
    log_const_data                           0x00028788   Section        8  peer_manager_handler.o(log_const_data)
    __tagsym$$used                           0x00028788   Number         0  peer_manager_handler.o(log_const_data)
    log_const_data                           0x00028790   Section        8  security_dispatcher.o(log_const_data)
    __tagsym$$used                           0x00028790   Number         0  security_dispatcher.o(log_const_data)
    log_const_data                           0x00028798   Section        8  security_manager.o(log_const_data)
    __tagsym$$used                           0x00028798   Number         0  security_manager.o(log_const_data)
    log_const_data                           0x000287a0   Section        8  nrf_drv_clock.o(log_const_data)
    __tagsym$$used                           0x000287a0   Number         0  nrf_drv_clock.o(log_const_data)
    log_const_data                           0x000287a8   Section        8  nrfx_clock.o(log_const_data)
    __tagsym$$used                           0x000287a8   Number         0  nrfx_clock.o(log_const_data)
    log_const_data                           0x000287b0   Section        8  nrfx_gpiote.o(log_const_data)
    __tagsym$$used                           0x000287b0   Number         0  nrfx_gpiote.o(log_const_data)
    log_const_data                           0x000287b8   Section        8  nrfx_prs.o(log_const_data)
    __tagsym$$used                           0x000287b8   Number         0  nrfx_prs.o(log_const_data)
    log_const_data                           0x000287c0   Section        8  nrfx_uart.o(log_const_data)
    __tagsym$$used                           0x000287c0   Number         0  nrfx_uart.o(log_const_data)
    log_const_data                           0x000287c8   Section        8  nrfx_uarte.o(log_const_data)
    __tagsym$$used                           0x000287c8   Number         0  nrfx_uarte.o(log_const_data)
    log_const_data                           0x000287d0   Section        8  app_button.o(log_const_data)
    __tagsym$$used                           0x000287d0   Number         0  app_button.o(log_const_data)
    log_const_data                           0x000287d8   Section        8  app_timer2.o(log_const_data)
    __tagsym$$used                           0x000287d8   Number         0  app_timer2.o(log_const_data)
    log_const_data                           0x000287e0   Section        8  nrf_fstorage.o(log_const_data)
    __tagsym$$used                           0x000287e0   Number         0  nrf_fstorage.o(log_const_data)
    log_const_data                           0x000287e8   Section        8  nrf_pwr_mgmt.o(log_const_data)
    __tagsym$$used                           0x000287e8   Number         0  nrf_pwr_mgmt.o(log_const_data)
    log_const_data                           0x000287f0   Section        8  nrf_sortlist.o(log_const_data)
    __tagsym$$used                           0x000287f0   Number         0  nrf_sortlist.o(log_const_data)
    log_const_data                           0x000287f8   Section        8  nrf_log_frontend.o(log_const_data)
    __tagsym$$used                           0x000287f8   Number         0  nrf_log_frontend.o(log_const_data)
    log_const_data                           0x00028800   Section        8  nrf_sdh.o(log_const_data)
    __tagsym$$used                           0x00028800   Number         0  nrf_sdh.o(log_const_data)
    log_const_data                           0x00028808   Section        8  nrf_sdh_ble.o(log_const_data)
    __tagsym$$used                           0x00028808   Number         0  nrf_sdh_ble.o(log_const_data)
    log_const_data                           0x00028810   Section        8  nrf_sdh_soc.o(log_const_data)
    __tagsym$$used                           0x00028810   Number         0  nrf_sdh_soc.o(log_const_data)
    nrf_balloc                               0x00028818   Section       20  nrf_log_frontend.o(nrf_balloc)
    __tagsym$$used                           0x00028818   Number         0  nrf_log_frontend.o(nrf_balloc)
    sdh_ble_observers0                       0x0002882c   Section        8  ble_conn_state.o(sdh_ble_observers0)
    __tagsym$$used                           0x0002882c   Number         0  ble_conn_state.o(sdh_ble_observers0)
    m_ble_evt_observer                       0x0002882c   Data           8  ble_conn_state.o(sdh_ble_observers0)
    sdh_ble_observers1                       0x00028834   Section       16  main.o(sdh_ble_observers1)
    __tagsym$$used                           0x00028834   Number         0  main.o(sdh_ble_observers1)
    m_gatt_obs                               0x00028834   Data           8  main.o(sdh_ble_observers1)
    __tagsym$$used                           0x0002883c   Number         0  main.o(sdh_ble_observers1)
    m_advertising_ble_obs                    0x0002883c   Data           8  main.o(sdh_ble_observers1)
    sdh_ble_observers1                       0x00028844   Section        8  bsp_btn_ble.o(sdh_ble_observers1)
    __tagsym$$used                           0x00028844   Number         0  bsp_btn_ble.o(sdh_ble_observers1)
    m_ble_observer                           0x00028844   Data           8  bsp_btn_ble.o(sdh_ble_observers1)
    sdh_ble_observers1                       0x0002884c   Section        8  ble_conn_params.o(sdh_ble_observers1)
    __tagsym$$used                           0x0002884c   Number         0  ble_conn_params.o(sdh_ble_observers1)
    m_ble_observer                           0x0002884c   Data           8  ble_conn_params.o(sdh_ble_observers1)
    sdh_ble_observers1                       0x00028854   Section        8  peer_manager.o(sdh_ble_observers1)
    __tagsym$$used                           0x00028854   Number         0  peer_manager.o(sdh_ble_observers1)
    m_ble_evt_observer                       0x00028854   Data           8  peer_manager.o(sdh_ble_observers1)
    sdh_ble_observers2                       0x0002885c   Section        8  main.o(sdh_ble_observers2)
    __tagsym$$used                           0x0002885c   Number         0  main.o(sdh_ble_observers2)
    m_qwr_obs                                0x0002885c   Data           8  main.o(sdh_ble_observers2)
    sdh_ble_observers3                       0x00028864   Section        8  main.o(sdh_ble_observers3)
    __tagsym$$used                           0x00028864   Number         0  main.o(sdh_ble_observers3)
    m_ble_observer                           0x00028864   Data           8  main.o(sdh_ble_observers3)
    sdh_req_observers0                       0x0002886c   Section        8  nrf_fstorage_sd.o(sdh_req_observers0)
    __tagsym$$used                           0x0002886c   Number         0  nrf_fstorage_sd.o(sdh_req_observers0)
    sdh_soc_observers0                       0x00028874   Section        8  nrf_drv_clock.o(sdh_soc_observers0)
    __tagsym$$used                           0x00028874   Number         0  nrf_drv_clock.o(sdh_soc_observers0)
    m_soc_evt_observer                       0x00028874   Data           8  nrf_drv_clock.o(sdh_soc_observers0)
    sdh_soc_observers0                       0x0002887c   Section        8  nrf_fstorage_sd.o(sdh_soc_observers0)
    __tagsym$$used                           0x0002887c   Number         0  nrf_fstorage_sd.o(sdh_soc_observers0)
    m_sys_obs                                0x0002887c   Data           8  nrf_fstorage_sd.o(sdh_soc_observers0)
    sdh_stack_observers0                     0x00028884   Section        8  nrf_sdh_ble.o(sdh_stack_observers0)
    __tagsym$$used                           0x00028884   Number         0  nrf_sdh_ble.o(sdh_stack_observers0)
    m_nrf_sdh_ble_evts_poll                  0x00028884   Data           8  nrf_sdh_ble.o(sdh_stack_observers0)
    sdh_stack_observers0                     0x0002888c   Section        8  nrf_sdh_soc.o(sdh_stack_observers0)
    __tagsym$$used                           0x0002888c   Number         0  nrf_sdh_soc.o(sdh_stack_observers0)
    m_nrf_sdh_soc_evts_poll                  0x0002888c   Data           8  nrf_sdh_soc.o(sdh_stack_observers0)
    sdh_state_observers0                     0x00028894   Section        8  nrf_drv_clock.o(sdh_state_observers0)
    __tagsym$$used                           0x00028894   Number         0  nrf_drv_clock.o(sdh_state_observers0)
    m_sd_state_observer                      0x00028894   Data           8  nrf_drv_clock.o(sdh_state_observers0)
    sdh_state_observers0                     0x0002889c   Section        8  nrf_fstorage_sd.o(sdh_state_observers0)
    __tagsym$$used                           0x0002889c   Number         0  nrf_fstorage_sd.o(sdh_state_observers0)
    m_state_obs                              0x0002889c   Data           8  nrf_fstorage_sd.o(sdh_state_observers0)
    .data                                    0x20001a40   Section        6  main.o(.data)
    m_conn_handle                            0x20001a40   Data           2  main.o(.data)
    m_adv_uuids                              0x20001a42   Data           4  main.o(.data)
    .data                                    0x20001a48   Section        9  bsp.o(.data)
    m_registered_callback                    0x20001a48   Data           4  bsp.o(.data)
    current_long_push_pin_no                 0x20001a4c   Data           1  bsp.o(.data)
    release_event_at_push                    0x20001a4d   Data           4  bsp.o(.data)
    .data                                    0x20001a54   Section        8  bsp_btn_ble.o(.data)
    m_error_handler                          0x20001a54   Data           4  bsp_btn_ble.o(.data)
    m_num_connections                        0x20001a58   Data           4  bsp_btn_ble.o(.data)
    .data                                    0x20001a5c   Section        8  ble_conn_params.o(.data)
    m_preferred_conn_params                  0x20001a5c   Data           8  ble_conn_params.o(.data)
    .data                                    0x20001a64   Section       19  gatt_cache_manager.o(.data)
    m_evt_handlers                           0x20001a64   Data           4  gatt_cache_manager.o(.data)
    m_module_initialized                     0x20001a68   Data           1  gatt_cache_manager.o(.data)
    m_db_update_in_progress_mutex            0x20001a6c   Data           4  gatt_cache_manager.o(.data)
    m_flag_local_db_update_pending           0x20001a70   Data           1  gatt_cache_manager.o(.data)
    m_flag_local_db_apply_pending            0x20001a71   Data           1  gatt_cache_manager.o(.data)
    m_flag_service_changed_pending           0x20001a72   Data           1  gatt_cache_manager.o(.data)
    m_flag_service_changed_sent              0x20001a73   Data           1  gatt_cache_manager.o(.data)
    m_flag_car_update_pending                0x20001a74   Data           1  gatt_cache_manager.o(.data)
    m_flag_car_handle_queried                0x20001a75   Data           1  gatt_cache_manager.o(.data)
    m_flag_car_value_queried                 0x20001a76   Data           1  gatt_cache_manager.o(.data)
    .data                                    0x20001a78   Section       10  gatts_cache_manager.o(.data)
    m_evt_handlers                           0x20001a78   Data           4  gatts_cache_manager.o(.data)
    m_module_initialized                     0x20001a7c   Data           1  gatts_cache_manager.o(.data)
    m_current_sc_store_peer_id               0x20001a7e   Data           2  gatts_cache_manager.o(.data)
    start_handle                             0x20001a80   Data           2  gatts_cache_manager.o(.data)
    .data                                    0x20001a84   Section       12  peer_data_storage.o(.data)
    m_module_initialized                     0x20001a84   Data           1  peer_data_storage.o(.data)
    m_peer_delete_deferred                   0x20001a85   Data           1  peer_data_storage.o(.data)
    m_fds_ftok                               0x20001a88   Data           8  peer_data_storage.o(.data)
    .data                                    0x20001a90   Section        8  peer_database.o(.data)
    m_module_initialized                     0x20001a90   Data           1  peer_database.o(.data)
    m_pending_store                          0x20001a91   Data           1  peer_database.o(.data)
    mutex_memory                             0x20001a94   Data           4  peer_database.o(.data)
    .data                                    0x20001a98   Section       15  peer_manager.o(.data)
    m_module_initialized                     0x20001a98   Data           1  peer_manager.o(.data)
    m_peer_rank_initialized                  0x20001a99   Data           1  peer_manager.o(.data)
    m_deleting_all                           0x20001a9a   Data           1  peer_manager.o(.data)
    m_peer_rank_token                        0x20001a9c   Data           4  peer_manager.o(.data)
    m_current_highest_peer_rank              0x20001aa0   Data           4  peer_manager.o(.data)
    m_highest_ranked_peer                    0x20001aa4   Data           2  peer_manager.o(.data)
    m_n_registrants                          0x20001aa6   Data           1  peer_manager.o(.data)
    .data                                    0x20001aa8   Section      180  peer_manager_handler.o(.data)
    m_roles_str                              0x20001aa8   Data          12  peer_manager_handler.o(.data)
    m_sec_procedure_str                      0x20001ab4   Data          12  peer_manager_handler.o(.data)
    m_event_str                              0x20001ac0   Data          84  peer_manager_handler.o(.data)
    m_data_id_str                            0x20001b14   Data          40  peer_manager_handler.o(.data)
    m_data_action_str                        0x20001b3c   Data           8  peer_manager_handler.o(.data)
    flash_cleaning                           0x20001b44   Data           1  peer_manager_handler.o(.data)
    flash_write_after_gc                     0x20001b45   Data           1  peer_manager_handler.o(.data)
    rank_queue                               0x20001b46   Data          16  peer_manager_handler.o(.data)
    rank_queue_wr                            0x20001b58   Data           4  peer_manager_handler.o(.data)
    .data                                    0x20001b5c   Section        5  security_dispatcher.o(.data)
    m_module_initialized                     0x20001b5c   Data           1  security_dispatcher.o(.data)
    m_flag_sec_proc                          0x20001b5d   Data           1  security_dispatcher.o(.data)
    m_flag_sec_proc_pairing                  0x20001b5e   Data           1  security_dispatcher.o(.data)
    m_flag_sec_proc_bonding                  0x20001b5f   Data           1  security_dispatcher.o(.data)
    m_flag_allow_repairing                   0x20001b60   Data           1  security_dispatcher.o(.data)
    .data                                    0x20001b64   Section       24  security_manager.o(.data)
    m_module_initialized                     0x20001b64   Data           1  security_manager.o(.data)
    m_sec_params                             0x20001b65   Data           5  security_manager.o(.data)
    mp_sec_params                            0x20001b6c   Data           4  security_manager.o(.data)
    m_sec_params_set                         0x20001b70   Data           1  security_manager.o(.data)
    m_p_public_key                           0x20001b74   Data           4  security_manager.o(.data)
    m_flag_link_secure_pending_busy          0x20001b78   Data           1  security_manager.o(.data)
    m_flag_link_secure_force_repairing       0x20001b79   Data           1  security_manager.o(.data)
    m_flag_link_secure_null_params           0x20001b7a   Data           1  security_manager.o(.data)
    m_flag_params_reply_pending_busy         0x20001b7b   Data           1  security_manager.o(.data)
    .data                                    0x20001b7c   Section        9  nrf_drv_uart.o(.data)
    m_handlers                               0x20001b7c   Data           4  nrf_drv_uart.o(.data)
    m_contexts                               0x20001b80   Data           4  nrf_drv_uart.o(.data)
    .data                                    0x20001b88   Section        8  nrfx_clock.o(.data)
    m_clock_cb                               0x20001b88   Data           8  nrfx_clock.o(.data)
    .data                                    0x20001b90   Section        8  nrfx_prs.o(.data)
    m_prs_box_2                              0x20001b90   Data           8  nrfx_prs.o(.data)
    .data                                    0x20001b98   Section       24  app_button.o(.data)
    mp_buttons                               0x20001b98   Data           4  app_button.o(.data)
    m_button_count                           0x20001b9c   Data           1  app_button.o(.data)
    m_detection_delay                        0x20001ba0   Data           4  app_button.o(.data)
    m_pin_active                             0x20001ba8   Data           8  app_button.o(.data)
    .data                                    0x20001bb0   Section       36  app_timer2.o(.data)
    m_rtc_inst                               0x20001bb0   Data           8  app_timer2.o(.data)
    mp_active_timer                          0x20001bb8   Data           4  app_timer2.o(.data)
    m_global_active                          0x20001bbc   Data           1  app_timer2.o(.data)
    m_base_counter                           0x20001bc0   Data           8  app_timer2.o(.data)
    m_stamp64                                0x20001bc8   Data           8  app_timer2.o(.data)
    m_app_timer_sortlist_sortlist_cb         0x20001bd0   Data           4  app_timer2.o(.data)
    .data                                    0x20001bd4   Section       12  drv_rtc.o(.data)
    m_handlers                               0x20001bd4   Data           4  drv_rtc.o(.data)
    m_cb                                     0x20001bd8   Data           8  drv_rtc.o(.data)
    .data                                    0x20001be0   Section       48  fds.o(.data)
    m_flags                                  0x20001be0   Data           8  fds.o(.data)
    m_queued_op_cnt                          0x20001be8   Data           4  fds.o(.data)
    m_users                                  0x20001bec   Data           4  fds.o(.data)
    m_latest_rec_id                          0x20001bf0   Data           4  fds.o(.data)
    m_swap_page                              0x20001bf4   Data           8  fds.o(.data)
    tok                                      0x20001bfc   Data           8  fds.o(.data)
    page                                     0x20001c04   Data           2  fds.o(.data)
    m_p_cur_op                               0x20001c08   Data           4  fds.o(.data)
    m_iget_ctx                               0x20001c0c   Data           4  fds.o(.data)
    .data                                    0x20001c10   Section        8  nrf_fstorage_sd.o(.data)
    m_p_cur_op                               0x20001c10   Data           4  nrf_fstorage_sd.o(.data)
    m_iget_ctx                               0x20001c14   Data           4  nrf_fstorage_sd.o(.data)
    .data                                    0x20001c18   Section        9  nrf_pwr_mgmt.o(.data)
    m_pwr_mgmt_evt                           0x20001c18   Data           1  nrf_pwr_mgmt.o(.data)
    m_sysoff_mtx                             0x20001c1c   Data           4  nrf_pwr_mgmt.o(.data)
    m_shutdown_started                       0x20001c20   Data           1  nrf_pwr_mgmt.o(.data)
    .data                                    0x20001c21   Section        1  nrf_log_backend_rtt.o(.data)
    m_host_present                           0x20001c21   Data           1  nrf_log_backend_rtt.o(.data)
    .data                                    0x20001c24   Section       22  nrf_log_backend_uart.o(.data)
    m_xfer_done                              0x20001c38   Data           1  nrf_log_backend_uart.o(.data)
    m_async_mode                             0x20001c39   Data           1  nrf_log_backend_uart.o(.data)
    .data                                    0x20001c3c   Section       16  nrf_log_default_backends.o(.data)
    log_backend_cb_rtt_log_backend           0x20001c3c   Data           8  nrf_log_default_backends.o(.data)
    log_backend_cb_uart_log_backend          0x20001c44   Data           8  nrf_log_default_backends.o(.data)
    .data                                    0x20001c4c   Section       20  nrf_log_frontend.o(.data)
    log_mempool_nrf_balloc_pool_stack        0x20001c4c   Data           8  nrf_log_frontend.o(.data)
    log_mempool_nrf_balloc_cb                0x20001c54   Data           8  nrf_log_frontend.o(.data)
    m_buffer_mask                            0x20001c5c   Data           4  nrf_log_frontend.o(.data)
    .data                                    0x20001c60   Section       64  nrf_log_str_formatter.o(.data)
    severity_names                           0x20001c60   Data          20  nrf_log_str_formatter.o(.data)
    m_colors                                 0x20001c74   Data          36  nrf_log_str_formatter.o(.data)
    m_freq                                   0x20001c98   Data           4  nrf_log_str_formatter.o(.data)
    m_timestamp_div                          0x20001c9c   Data           4  nrf_log_str_formatter.o(.data)
    .data                                    0x20001ca0   Section        3  nrf_sdh.o(.data)
    m_nrf_sdh_enabled                        0x20001ca0   Data           1  nrf_sdh.o(.data)
    m_nrf_sdh_suspended                      0x20001ca1   Data           1  nrf_sdh.o(.data)
    m_nrf_sdh_continue                       0x20001ca2   Data           1  nrf_sdh.o(.data)
    .data                                    0x20001ca3   Section        1  nrf_sdh_ble.o(.data)
    m_stack_is_enabled                       0x20001ca3   Data           1  nrf_sdh_ble.o(.data)
    .data                                    0x20001ca4   Section        4  system_nrf52805.o(.data)
    __tagsym$$used                           0x20001ca4   Number         0  system_nrf52805.o(.data)
    fs_data                                  0x20001ca8   Section       20  fds.o(fs_data)
    __tagsym$$used                           0x20001ca8   Number         0  fds.o(fs_data)
    .bss                                     0x20001cbc   Section      276  main.o(.bss)
    m_gatt                                   0x20001cbc   Data          16  main.o(.bss)
    m_qwr                                    0x20001ccc   Data          12  main.o(.bss)
    m_advertising                            0x20001cd8   Data         248  main.o(.bss)
    .bss                                     0x20001dd0   Section       48  bsp.o(.bss)
    m_events_list                            0x20001dd0   Data          12  bsp.o(.bss)
    m_bsp_button_tmr_data                    0x20001de0   Data          32  bsp.o(.bss)
    .bss                                     0x20001e00   Section       80  ble_conn_params.o(.bss)
    m_timer_data                             0x20001e00   Data          32  ble_conn_params.o(.bss)
    m_conn_params_instances                  0x20001e20   Data          20  ble_conn_params.o(.bss)
    m_conn_params_config                     0x20001e34   Data          28  ble_conn_params.o(.bss)
    .bss                                     0x20001e50   Section      124  ble_conn_state.o(.bss)
    m_bcs                                    0x20001e50   Data         124  ble_conn_state.o(.bss)
    .bss                                     0x20001ecc   Section      216  id_manager.o(.bss)
