:020000040001F9
:1090000040350020C1930100C9930100CB930100BA
:10901000CD930100CF930100D19301000000000027
:10902000000000000000000000000000D3930100D9
:10903000D593010000000000D7930100D9930100EF
:10904000C9950100DB930100A5980100DB930100A5
:10905000DB930100000000000D950100DB9301008F
:10906000DB930100DB930100DB930100DB93010044
:10907000DB930100DB930100DB930100DB93010034
:10908000DB93010011960100DB930100000000005A
:10909000DB930100DB930100B5960100DB93010037
:1090A000DB930100DB9301000000000000000000E2
:1090B00000000000000000000000000000000000B0
:1090C00000000000000000000000000000000000A0
:1090D0000000000000000000000000000000000090
:1090E0000000000000000000000000000000000080
:1090F0000000000000000000000000000000000070
:10910000000000000000000000000000000000005F
:10911000000000000000000000000000000000004F
:10912000000000000000000000000000000000003F
:10913000000000000000000000000000000000002F
:10914000000000000000000000000000000000001F
:10915000000000000000000000000000000000000F
:1091600000000000000000000000000000000000FF
:1091700000000000000000000000000000000000EF
:1091800000000000000000000000000000000000DF
:1091900000000000000000000000000000000000CF
:1091A00000000000000000000000000000000000BF
:1091B00000000000000000000000000000000000AF
:1091C000000000000000000000000000000000009F
:1091D000000000000000000000000000000000008F
:1091E000000000000000000000000000000000007F
:1091F000000000000000000000000000000000006F
:10920000DFF80CD000F044F90048004785E2010087
:109210004035002030B450E8012F93B2C489234474
:109220008489A34228BF1B1B0489A34202BFBFF34A
:109230002F8F002007E0C3EA020340E80134002C2E
:10924000E9D14FF001000A6030BC704750E8012FAF
:10925000C2EA024240E801210029F7D1704730B448
:1092600050E8022F1FFAA2F3C488A34202BFBFF343
:109270002F8F00200DE0C48923448489A34228BF96
:109280001B1BC2EA034340E80234002CE8D14FF034
:1092900001000A6030BC704750E8022FC2EA224247
:1092A00040E802210029F7D17047034653E8022F16
:1092B000D988B2EB324F4FF0000017BF92B241EAAB
:1092C000014142EA014104E05A68B2EB324F08BF63
:1092D000012043E80212002AE8D1704730B4044666
:1092E00054E8000F0D4644E80053002BF8D11560F8
:1092F00030BC704730B4044654E8000F40EA010522
:1093000044E80053002BF7D1156030BC704730B4EF
:10931000044654E8000F00EA010544E80053002B1E
:10932000F7D1156030BC704730B4044654E8000FE4
:1093300080EA010544E80053002BF7D1156030BCEA
:10934000704730B4044654E8000F00EB010544E8D0
:109350000053002BF7D1156030BC704730B4044681
:1093600054E8000FA0EB010544E80053002BF7D1AF
:10937000156030BC704770B404464FF0000054E8EC
:10938000006F0D68AE4207BF44E80023012044E8A7
:1093900000630E60002B1CBF0020F0E770BC70471C
:1093A00030B4044654E8000F88422CBF451A0546E5
:1093B00044E80053002BF5D1156030BC7047000025
:1093C0000648804706480047FEE7FEE7FEE7FEE75F
:1093D000FEE7FEE7FEE7FEE7FEE7FEE7CD960100CB
:1093E00001920100202A04DB203A00FA02F1002059
:1093F00070479140C2F1200320FA03F319439040D3
:109400007047000000487047586E020040EA0103B0
:109410009B0703D009E008C9121F08C0042AFAD22A
:1094200003E011F8013B00F8013B521EF9D27047EE
:10943000D2B201E000F8012B491EFBD27047002296
:10944000F6E710B513460A4604461946FFF7F0FF43
:10945000204610BD421C10F8011B0029FBD1801AC8
:10946000704730B504460020034600E05B1C934281
:1094700003D2E05CCD5C401BF8D030BD034611F850
:10948000012B00F8012B002AF9D118467047000083
:10949000064C074D06E0E06840F0010394E8070041
:1094A00098471034AC42F6D3FFF7AEFE10870200A7
:1094B0003087020070B58C1810F8015B15F00703B7
:1094C00001D110F8013B2A1106D110F8012B03E05D
:1094D00010F8016B01F8016B5B1EF9D12B0705D465
:1094E0000023521E0DD401F8013BFAE710F8013BAE
:1094F000CB1A921C03E013F8015B01F8015B521ECA
:10950000F9D5A142D8D3002070BD00002DE9F84F55
:109510000026002000904FF480770125002410E001
:10952000384606F091F940B100BF25480068284050
:1095300018B1384606F07AF92E436D00381D87B20F
:10954000641C082CECD34FF4BE7006F07DF950B1CA
:109550004FF4BE7006F06AF946F000466A460121F3
:10956000002006F00FF9F0B210B3012500241DE031
:1095700005EA0600C0B100BF124850F82400C0F34D
:109580000420814600BF0F4850F82400C0F301407A
:109590008246204601F0D4FF8046B8F1000F02D089
:1095A00051464846C04700BF6D00641C082CDFD3FD
:1095B00006F0004010B168460AF062F9BDE8F88F85
:1095C000046300401065004010B54FF4807005F052
:1095D000D2FB50B14FF4807005F0D6FB012005F0AE
:1095E000DDFB0A480168002088474FF4827005F0CF
:1095F000C2FB50B14FF4827005F0C6FB022005F0AB
:10960000CDFB024801680120884710BD881B00205F
:1096100010B5034A1068034A1168884710BD00005E
:10962000D81B0020D41B002010B500F043F910BD5A
:109630002DE9F047074688461646C24607EB470124
:109640001B4800EBC109D9F8140020B1012811D042
:10965000022826D11EE0484600F064F90546B542CE
:1096600001D2002405E0344632465146484600F017
:10967000A0F918E0484600F055F90546B54201D278
:10968000284600E03046044622465146484600F04F
:1096900090F908E032465146484600F051F9044638
:1096A00001E0002400BF00BF2046BDE8F0870000B5
:1096B000D02A002010B507F011F810BD014802496A
:1096C000086070470090D003A41C002010B504F07F
:1096D000F5FF28B167480068C0F34230664908606A
:1096E00005F020F848B10020644908604FF080413F
:1096F000C1F810016049091F086005F047F800280B
:1097000055D05F4800685F4908605D48001D0068EB
:10971000091D08605A4808300068091D086058484B
:109720000C300068091D0860554810300068091D9C
:109730000860534814300068091D0860504818300C
:1097400000685049203108604D481C300068091DF0
:1097500008604B4820300068091D086048482430E4
:109760000068091D0860464828300068091D086027
:1097700043482C300068091D0860414830300068BB
:109780004049403108603E4834300068091D086097
:109790003B4838300068091D086039483C30006893
:1097A000091D0860364840300068091D086004F053
:1097B0003FFF40B13448006800F0010018B16FF07D
:1097C00001003149086004F067FF28B12F480068A4
:1097D00040F00F002D4908602D48006800F000405F
:1097E00030B92B48001D006800F0004000283ED032
:1097F00001202849086000BF274800680028FBD0E6
:1098000015202349086000BF234800680028FBD0CA
:1098100015211F48001D016000BF1F480068002877
:10982000FBD000201B49086000BF1B4800680028CF
:10983000FBD000BF00BF00BF00BF00BFBFF34F8F12
:1098400000BF00BF00BF1548006800F4E060144985
:109850000843001D1149086000BF00BF00BFBFF3EF
:109860004F8F00BF00BF00BF00BF00BFFDE7FFF785
:1098700025FF10BD440200103C0500400C010040D3
:109880000404001020C5004000040040E40E004025
:109890000012001004E5014000E401400CED00E07E
:1098A0000000FA0510B502490868804710BD0000A5
:1098B000901B002010B5124C02202061606111A0A5
:1098C000A0611349E1614FF4007121620021A1629E
:1098D0006162E1620BA0A0640E49E1641021216580
:1098E0000021A1656165E1650BA1E01DFFF7C6FDE3
:1098F0000AA12046FFF7C2FD2020A07110BD000084
:10990000B82A00205465726D696E616C0000000019
:10991000302B0020302D002052545400534547472F
:109920004552000010B501460A69CB689A4204D836
:109930008C68641EE41AA01801E0D41A601E10BDE1
:109940002DE9F0470446894617464FF0000AE568BE
:1099500000BFD4F81080A84503D9A8EB0500461E27
:1099600004E0A5EB0800401CA1680E1AA068401B8B
:10997000B04201D9304601E0A068401B0646BE4215
:1099800001D2304600E03846064661684819324642
:109990004946FFF73BFDB244B144BF1B3544A068C4
:1099A000A84200D10025E560002FD2D15046BDE885
:1099B000F0872DE9F047044689461546E668A06819
:1099C000871BAF4208D9616888192A464946FFF7C4
:1099D0001DFD7019E06010E0B846616888194246C4
:1099E0004946FFF713FDA5EB070809EB07014246BF
:1099F0006068FFF70BFDC4F80C80BDE8F08702E05B
:109A000008C8121F08C1002AFAD170477047002009
:109A100001E001C1121F002AFBD170470146202935
:109A200008DA012088400A4A104008B10120704736
:109A30000020FCE7402909DAA1F12000012202FA06
:109A400000F008B10120F2E70020F0E70120EEE786
:109A5000FC06FFBD00BFEFF31081084672B67047E9
:109A6000F8B505460E46C6B96946284608F058FFBF
:109A7000044643F202018C4208D000BF274627B1BA
:109A800000BF384600F0CEFA00BF00BF9DF80000CE
:109A9000C0F3400000B1F8BD00BF0021284608F027
:109AA00051FF0446002C5CD0112C5AD00D2C21D132
:109AB0002D492E4A891AC908022242EA01402A4643
:109AC0002B4906F093F91321284676DF0446002C33
:109AD00047D0204606F0F0FE07462349234A891A5C
:109AE000C908022242EA01402B463A4621A106F06B
:109AF00089F936E00B2C0BD11B491C4A891AC9087D
:109B0000022242EA01402A46284906F06FF928E07D
:109B100043F2020084420BD11349144A891AC9083E
:109B2000022242EA01402A46214906F05FF918E084
:109B3000204606F0C1FE07460B490C4A891AC9089F
:109B4000012242EA01402B463A461AA106F05AF990
:109B500000BF274627B100BF384600F063FA00BFB8
:109B600000BF00BF97E7000088870200508702000F
:109B70006075020073645F626C655F6761705F644B
:109B80006973636F6E6E65637428292072657475DE
:109B9000726E6564202573206F6E20636F6E6E5F3A
:109BA00068616E646C652025642E000020760200DA
:109BB000D4750200417373657274696E672E2070EC
:109BC0006D5F636F6E6E5F736563757265282920C4
:109BD00072657475726E6564202573206F6E2063E4
:109BE0006F6E6E5F68616E646C652025642E000088
:109BF00070B505460C4605B10CB9002070BD28783B
:109C000040082178B0EB510F01D00020F6E7062282
:109C1000611C681CFFF725FC08B90120EEE7002055
:109C2000ECE7014601F0030008B90120704700206D
:109C3000FCE7024650680068401E084008B9012051
:109C400070470020FCE70246002104E0505C08B1A8
:109C500001207047491C0629F8D30020F9E710B508
:109C60000346D868884206D88818401E1C69A0425E
:109C700001D8012010BD0020FCE7000010B504460B
:109C80006CB10848C068A04209D806480069A042E3
:109C900005D3204604F06DF808B1012010BD002066
:109CA000FCE70000A81C002070B504460D4604F136
:109CB000EB00FFF7C8FF0646012D06D0022D0DD0A0
:109CC000032D11D0042D19D113E0A07928B194F8F7
:109CD000240010B90EB1012070BD00BFE07910B1B1
:109CE0000EB10220F8E700BF207A08B10320F3E7A5
:109CF00000BF607A08B10420EEE700BF0020EBE768
:109D00000146481C052290FBF2F302FB1300C0B28F
:109D10007047014691F82420012A01D11F2000E05C
:109D20001F20704710B501220221002001F064FAC3
:109D3000044600BF1CB1072C01D0204610BD00BF57
:109D400007220221012001F057FA044600BF1CB18E
:109D5000072C01D02046F1E700BF0A220021084667
:109D600001F04AFA044600BF1CB1072C01D020467E
:109D7000E4E700BF0020E1E730B5ABB0AC216846B6
:109D8000FFF75DFB02208DF8000001208DF8020036
:109D900006208DF803000120ADF810001049059150
:109DA00001218DF87C104FF49671229144F250619C
:109DB00023910C48299069460B4800F09CFC04460E
:109DC00000BF254625B100BF284600F02BF900BF93
:109DD00000BF0121044800F08BFC2BB030BD000017
:109DE000421A0020B9110200D81C002070B50446A8
:109DF000012C02D101F0F0FD0EE00321074800F034
:109E00003DFD054600BF2E4626B100BF304600F09E
:109E100009F900BF00BF00BF70BD0000D81C0020C2
:109E200070B58CB004460D461646002005E0C0F122
:109E30000F01615C0DF80010401C1028F7D30D21B4
:109E400004A8FFF7FCFA002005E02A5CC0F10F032C
:109E500004A9CA54401C0328F7D3684646DF0020F3
:109E600005E0C0F10F0208A9895C3154401C0328A9
:109E7000F7D30CB070BD000010B50446024801785D
:109E8000204600F075FE10BD601B002010B50024B8
:109E900007E00749096811F83400012106F0DEFDEA
:109EA000641C044800788442F3D3002010BD0000F5
:109EB000981B00209C1B00202DE9F84306460D4608
:109EC00017460A2F02D20720BDE8F88306F00AFFE2
:109ED00038B906F09DFE044600BF204600B1F3E706
:109EE00000BF1848066018480570184807601848F1
:109EF0000021016041608160C160164A11605160BB
:109F000015E006EBC50814480068009098F80200B8
:109F10008DF8010098F80000104A694606F0F4FD3B
:109F2000044600BF204600B1CEE700BF00BF281E98
:109F3000A5F10101CDB2E4D1094A0021094800F0A0
:109F400087F8C1E7981B00209C1B0020A01B002065
:109F500090220020A81B0020A06A020041D101002D
:109F600075BA01009C6A020072B600BF06F022F8C2
:109F700000BF00BF05F0A2FD0028FBD100BF00BF5D
:109F80001D491E4A891AC908012242EA01401CA142
:109F900005F022FF00BF1D48006800F0010000B17D
:109FA00000BE00BF1449154A891AC908022242EAB4
:109FB000014017A105F010FF00BF00BF00BF00BFA8
:109FC00000BFBFF34F8F00BF00BF00BF0F48E43892
:109FD000006800F4E06012490843001D0B49E439B1
:109FE000086000BF00BF00BFBFF34F8F00BF00BFBE
:109FF00000BF00BF00BFFDE7F887020050870200E6
:10A00000466174616C206572726F7200F0ED00E061
:10A0100053797374656D2072657365740000000078
:10A020000000FA053EB50446002000900190029021
:10A0300002946A46002144F20100FFF795FF3EBDFD
:10A0400010B5024801F0AAFD10BD0000B01B0020B1
:10A0500010B503460C460AB9072010BD19684A61BD
:10A06000012C01D1012000E0002008610020F4E76C
:10A0700038B5134800680090082358221149124847
:10A08000006804F0C2FB04460CB1204638BD0F4AFC
:10A0900069460F4801F088FD04460CB12046F5E7FB
:10A0A00001210B4801F026FE01230A4A19460848FF
:10A0B00001F046FD0120084908702046E6E700004F
:10A0C000B46A0200A0220020A46A020047420200F3
:10A0D000B01B0020FFFF7F00BC1B00202DE9F041DA
:10A0E00006460D4617463446207F10B10020BDE8D5
:10A0F000F081A76103F006F8401941F10001C4E9BD
:10A100000201206900B12561214600200BF04AFCC4
:10A11000EDE770B504462546002028772946012042
:10A120000BF040FC70BD10B5044620460AF016FA4C
:10A1300010BD000070B5044625460E488068B0B1D9
:10A14000ADB9FFF787FC06460A4800680A4908606F
:10A15000084840684FF0E021C1F80401002005499B
:10A1600088601EB900BF62B600BF00BF00BF00BF5D
:10A1700070BD00000823002000E100E0F8B50546AE
:10A180000C4617462088001DB84201D90C20F8BDA6
:10A19000684679DF064600BF304600B1F7E700BFEA
:10A1A0000320218868542088401C208019202188A1
:10A1B00068542088401C208020884119BDF8000088
:10A1C0000BF050FE2188084420800020DFE7704714
:10A1D00070B505460C462068401C28B1206805F083
:10A1E00008FB206805F09CFA6068401C18B100214B
:10A1F000606805F07BFA2868A169C0F8241500BFE3
:10A20000617D227D286841EA0203C0F86C3500BFF9
:10A21000D4E90012286806F089FB207D012814D1BA
:10A22000A068401C18B10021A06805F05FFAE06842
:10A23000401C28B1E06805F0DCFAE06805F070FA2F
:10A24000D4E90221286806F059FB70BD70B50546B7
:10A250000C462068401C28B1206805F0D5FA20681B
:10A2600005F06AFA6068401C18B10021606805F0CA
:10A270004AFA2868A169C0F8241500BF617D227DD3
:10A28000286841EA0203C0F86C3500BFD4E9001227
:10A29000286806F085FB207D012814D1A068401CA9
:10A2A00018B10021A06805F02EFAE068401C28B122
:10A2B000E06805F0A9FAE06805F03EFAD4E9022169
:10A2C000286806F04EFB70BD70B504460D4620466A
:10A2D00003F060FE70BD10B50446637903F003021D
:10A2E0002179208803F00EFE10BD10B504462079B8
:10A2F00018B9204600F008F803E02046FFF7EBFF0E
:10A3000000BF00BF10BD00002DE9FE4307463E8898
:10A310004FF00008002259480178304600F03EFC1A
:10A320007879C0F3800028B90021384607F0ACFCEA
:10A33000BDE8FE8306F5807188B201AB01220721DA
:10A3400007F0C2FD0546C5B1284606F0B5FA8146BC
:10A350004B494C4A891AC908012242EA0140334656
:10A360004A46494905F04EFD294630460AF01AFC96
:10A370000021384607F088FCDAE7304603F0F2F9AE
:10A3800004464FF6FF718C421BD1029803F03AF954
:10A3900004464FF6FF70844213D02146304603F046
:10A3A000BFF93046FFF768FD58B930460AF08EFB1A
:10A3B0003046FFF761FD20B90021384607F064FC04
:10A3C000B6E74FF6FF7084421FD107F093FF0446B3
:10A3D0004FF6FF70844212D129492A4A891AC908C6
:10A3E000012242EA014029A105F0F6FC0421304691
:10A3F0000AF0D8FB0021384607F046FC98E72146D2
:10A40000304603F08DF94FF0010806F5807188B2EF
:10A410002246072107F0E0FD054625B9012138460F
:10A4200007F032FC28E0862D07D130460AF080FB89
:10A430000121384607F028FC1EE0284606F03CFAC9
:10A4400081460F490F4A891AC908012242EA014090
:10A4500033464A461A49009405F0E4FC2946304642
:10A460000AF0A0FB0021384607F00EFCB8F1000FFF
:10A4700002D0204603F05EF900BF59E75D1B0020C3
:10A480009087020050870200207C0200436F756CA9
:10A4900064206E6F7420616C6C6F63617465206EF4
:10A4A000657720706565725F696420666F722069E8
:10A4B0006E636F6D696E6720626F6E642E000000C0
:10A4C0003C7D0200002114E00C48D0F81024012348
:10A4D00008E000BFD0680079884201D1002303E082
:10A4E000D0680268002AF4D100BF0BB1084670475B
:10A4F000491C0A29E8DB4FF0FF30F8E798260020D6
:10A500002DE9FC4105468846164600243788002080
:10A51000308095F82D0058B13A463146404600F05B
:10A5200061FB044600BF204608B1BDE8FC8100BFC6
:10A53000A87850B13A4631464046FFF71FFE044620
:10A5400000BF204600B1F0E700BFE87860B1E978CD
:10A5500048B23B463246414602F022F9044600BF6B
:10A56000204600B1E1E700BF686868B1696891F909
:10A5700000003B46324641460BF0A1FA044600BFBC
:10A58000204600B1D1E700BF288900280EDD4346F0
:10A590000622022105F10800CDE900670BF069FDF4
:10A5A000044600BF204600B1BFE700BF288A00284C
:10A5B0000EDD43460722032105F11000CDE90067B7
:10A5C0000BF057FD044600BF204600B1ADE700BFC9
:10A5D000288B00280EDD43461522142105F11800B2
:10A5E000CDE900670BF045FD044600BF204600B1F1
:10A5F0009BE700BF286A58B13B4632464146286A6D
:10A6000001F0B0F8044600BF204600B18DE700BF5E
:10A61000686A58B13B4632464146686A03F070FEAC
:10A62000044600BF204600B17FE700BF95F82C002C
:10A6300000280BDD3B463246414628460AF0A6FC80
:10A64000044600BF204600B16FE700BF287858B12C
:10A650003B4632464146284603F041FF044600BFD0
:10A66000204600B161E700BF20465EE7F8B504462A
:10A670000E461546002000902B466A46314620467D
:10A6800000F008F807460FB90020F8BDBDF800003B
:10A690002044FAE7F0B504460D461E4604B10AB957
:10A6A0000020F0BD002103E0605C401C084481B242
:10A6B000481CA84206DA10888842F5DC481C205C59
:10A6C000B042F1D1A94201DB0020EAE7881C87B241
:10A6D000605C10B1605C401E00E0002083B213B1EA
:10A6E000F818A84201DD0020DBE717801846D8E7FC
:10A6F00080F83010704770B504460D4605B10CB9AE
:10A700000E2070BD05F1780000F0CDFF08B90720DC
:10A71000F7E70020A0702C2205F17801201DFEF73C
:10A7200075FE002084F83000D5F8A4006063D5F8E9
:10A73000A800A0634FF6FF70A4F8E80004F1D4006D
:10A74000C4F8E4000021F020C4F8EA10A4F8EE10E8
:10A750000155207810B9FF2084F8540004F1550009
:10A76000C4F8D4002046FFF7D4FAD821085304F1E6
:10A77000D80204F155012846FFF7C2FE064600BF85
:10A78000304600B1BDE700BF04F19300DC21085161
:10A790002046FFF7BEFAA4F8E000DC20015904F1DE
:10A7A000E00205F13C00FFF7ABFE064600BF304675
:10A7B00000B1A6E700BF012151200155208B81B2D5
:10A7C00048200153012084F83C00002121645020DE
:10A7D00001556169616404F13C02002104F15400F7
:10A7E00072DF064600BF304600B18AE700BF012095
:10A7F0002070304685E770B504460D462E46208809
:10A80000102804D0112807D026280FD109E02146AE
:10A81000304606F083FD0AE02146304606F02DFE64
:10A8200005E02146304606F0F4FF00E000BF00BF1F
:10A8300070BD70B5044694F8540074DF012084F8AC
:10A84000F200002084F8F400002150200155062178
:10A85000204601F0C0FF054600BF284600B170BD8C
:10A8600000BFA178204600F009F8054625B1A06B8D
:10A8700010B12846A16B88470020F0E770B5044668
:10A880000E46207808B9082070BDA6700021F0207F
:10A89000C4F8EA10A4F8EE100155A07910B1A07820
:10A8A000012809D0E07910B1A078012804D0E0791E
:10A8B00070B1A07802280BD1606B30B1012084F810
:10A8C000F1000820616B884702E0002084F8F10065
:10A8D00031462046FFF7E8F9A070606BA0B1A07880
:10A8E000032802D0A07804280ED1607960B194F8D2
:10A8F000F20048B9002084F8F400012084F8F30045
:10A900000720616B884702E0002084F8F3001821DB
:10A9100004F13C00FEF793FD012084F83C0004F1B3
:10A920002C0007F0C1FE20B194F82C1051200155E5
:10A9300002E001215120015594F8240060B104F196
:10A94000280007F0B1FE20B194F8281052200155DC
:10A9500002E0012152200155002150200155A0782C
:10A96000052824D2DFE800F01F030A11180004F1C3
:10A970003C0120460AF080FB054619E004F13C0149
:10A9800020460AF067FB054612E004F13C01204630
:10A990000AF084FB05460BE004F13C0120460AF076
:10A9A000A4FB054604E0002084F8310000E000BF6D
:10A9B00000BFA07898B104F13C0204F15400D4F82F
:10A9C000E41072DF05460DB128465DE794F83010BB
:10A9D00094F8540073DF05460DB1284654E7606BC8
:10A9E00018B194F83100616B884700204CE70000F3
:10A9F0002DE9F041044600BF14B90E20BDE8F081F6
:10AA000000BF1C2221461C48FEF700FD1B481A49C6
:10AA10000860206860B120687ADF05460DB12846DD
:10AA2000ECE7164821680A6802604968416005E061
:10AA300012487BDF05460DB12846DFE7002617E008
:10AA400006EB86000E4901EB800700BF4FF6FF7052
:10AA5000388000BF0B4800EB461078600A4A00219E
:10AA6000381DFFF7F5FA05460DB10320C6E7761C41
:10AA7000002EE5D00020C1E7341E00205C1A002023
:10AA8000201E0020001E0020815F020010B5044639
:10AA9000204600F099F820B12146034803F057FF03
:10AAA00010BD0020FCE70000601E002070B50446C9
:10AAB0000D46164620460BF0ADFA08B9002070BDD1
:10AAC000034951F824003246294601F0F7FEF6E723
:10AAD0006C1E002010B50446204600F075F820B129
:10AAE0002146034803F033FF10BD0020FCE70000BF
:10AAF000681E002010B50446204600F065F820B11D
:10AB00002146034803F023FF10BD0020FCE70000AE
:10AB1000641E002070B504460025204600F054F85D
:10AB200000B10125284670BD70B5044600252046B9
:10AB300000F04AF850B12146054803F008FF0646E8
:10AB40000EB1022000E00120054600BF284670BD7E
:10AB5000581E002010B51821044803F0C8FE044612
:10AB6000182C00D110BDE0B2FCE70000501E002000
:10AB700070B505460C4620460BF04CFA50B12846FD
:10AB800000F022F830B1044901EB8400294603F0BB
:10AB9000DEFE70BD0020FCE76C1E002070B505468F
:10ABA0000C46164620460BF035FA50B1284600F008
:10ABB0000BF830B1034901EB84003246294601F01D
:10ABC000E0FD70BD6C1E002010B50446142C01DBA6
:10ABD000002010BD2146024803F0B9FEF9E700004D
:10ABE000541E00202DE9FC4105460C4617462088DE
:10ABF0000930B84202D90C20BDE8FC8168466DDFFF
:10AC0000064600BF304600B1F6E700BF08202188A5
:10AC100068542088401C20801B202188685420888C
:10AC2000401C208020882844DDF801100160BDF818
:10AC3000051081802088801D20809DF8000040083C
:10AC400018B900202188685402E001202188685446
:10AC50002088401C20800020CEE70000F8B5054683
:10AC60000F460024288821283FD004DC102812D069
:10AC700011287DD104E03B2851D05628F9D166E057
:10AC80004149424A891AC908032242EA014040A1C7
:10AC900005F0A2F876E03C493C4A891AC90803222B
:10ACA00042EA01403EA105F097F8072000F0D2FAF1
:10ACB000044600BF264626B100BF3046FFF7B2F972
:10ACC00000BF00BFA8883949088008460188384875
:10ACD00003F0EAFF044600BF264626B100BF304617
:10ACE000FFF7A0F900BF00BF4CE02749274A891AA7
:10ACF000C908042242EA01402EA105F06DF80020A7
:10AD00000090A88869468FDF044600BF264626B11A
:10AD100000BF3046FFF786F900BF00BF32E01A4996
:10AD20001A4A891AC908042242EA014026A105F0FC
:10AD300053F8A888132176DF044600BF264626B1C3
:10AD400000BF3046FFF76EF900BF00BF1AE00E49A2
:10AD50000E4A891AC908042242EA014020A105F0DE
:10AD60003BF8A888132176DF044600BF264600E0A2
:10AD700007E026B100BF3046FFF754F900BF00BF1F
:10AD800000E000BF00BFF8BDF88702005087020056
:10AD9000446973636F6E6E65637465642E000000B2
:10ADA000436F6E6E65637465642E0000401A002068
:10ADB000CC1C002050485920757064617465207265
:10ADC0006571756573742E004741545420436C6956
:10ADD000656E742054696D656F75742E00000000F7
:10ADE00047415454205365727665722054696D65ED
:10ADF0006F75742E0000000070B505460E46288859
:10AE0000102802D011282CD115E01748006860B92D
:10AE100000F092FD044600BF34B11448006818B138
:10AE2000204612490968884700BF0F480068401C47
:10AE30000D49086016E00C480068401E0A49086089
:10AE40000846006860B9FEF76DFF044600BF34B1E4
:10AE50000648006818B1204604490968884700BFC1
:10AE600000E000BF00BF70BD581A0020541A002037
:10AE700070B504460D462088102806D0112808D049
:10AE800012280ED0502810D107E0204606F00EFA06
:10AE90000CE0204606F0D8FA08E0204606F0EAFC6E
:10AEA00004E0204606F0EAF900E000BF00BF70BDF4
:10AEB0002DE9F04104460F46A6882088102806D0C8
:10AEC000112810D0192835D01A283FD10FE009F0E9
:10AED00015F9304608F086FF20B900BF0420FFF7BF
:10AEE000A1F800BF32E0304609F02CF92EE0207ABC
:10AEF0000509042D01DB012000E000200246314657
:10AF0000144801F03EFC032D01DB012000E000208D
:10AF1000024631460F48001F01F033FC022D01DBD1
:10AF2000012000E00020024631460A48083801F0BE
:10AF300028FC0BE0207A40B9607AC0F3C0052A46AD
:10AF40003146044801F01DFC00BF00BF00BFBDE852
:10AF5000F0810000681E002070B504460D4600BF59
:10AF60000748007800B970BD00BF204602F0B4FA6F
:10AF700020460AF007F9204601F0A4FE00BFF2E7E0
:10AF8000981A002070B5044620460AF065FF054671
:10AF900005F0010070BD38B505F05EFB044600BF4A
:10AFA000254625B100BF2846FFF73CF800BF00BF8B
:10AFB000002000906946012005F094F9044600BF86
:10AFC000254625B100BF2846FFF72CF800BF00BF7B
:10AFD000684605F031FA044600BF254625B100BF9A
:10AFE0002846FFF71FF800BF00BF38BD01460148E3
:10AFF000405C70473068020010B50146094B585C50
:10B0000000BF4FF0A044234600BFD3F81045C44012
:10B0100004F001040CB1012000E00020024682F09F
:10B02000010010BD3068020002464FF0FF300021E1
:10B0300006E0054B5B5C934201D1084602E0491CE7
:10B040000429F6D300BF70473068020070B505468A
:10B050000C4600260648056014B120460AF0F4FAB2
:10B060000448006810B9FEF75DFE0646304670BD24
:10B07000541A0020581A002010B5002000F024F9BE
:10B08000044600BF1CB1062C01D0204610BD00BFF5
:10B09000012000F019F9044600BF1CB1062C01D0B4
:10B0A0002046F3E700BF0020F0E700002DE9F04163
:10B0B00006460F464FF0000800243046FFF7B4FF65
:10B0C0000446042C3ED20FB3012F02D0022F38D1F8
:10B0D00030E004EB4400214911F8008004EB440007
:10B0E0000844407850B11E4A4FF480411D48006822
:10B0F000FEF7F4FF05460DB91948067004EB44004D
:10B10000164908448078184908551AE0154800681F
:10B11000FEF7FFFF1448005D04EB44010F4A1144A1
:10B120008978884205D104EB44001146084490F820
:10B13000028006E004EB44000849084490F80180CE
:10B1400000BF00BFB8F1000F06D00848006818B172
:10B150004046064909688847BDE8F081D01D0020B7
:10B160004C1A0020346802004D1A0020481A0020B2
:10B1700010B50446042C03D22046FFF73DFF10BD56
:10B180000020FCE770B50546042D06D0072D15D02C
:10B190000A2D29D109F0D0FF27E013211448008897
:10B1A00076DF0446082C08D000BF264626B100BF33
:10B1B0003046FEF737FF00BF00BF16E00C4800889E
:10B1C0004FF6FF7188420ED10A48FFF732FB044662
:10B1D000082C08D000BF264626B100BF3046FEF737
:10B1E00021FF00BF00BF00E000BF00BF70BD000036
:10B1F000401A0020D81C002030B503460020042B44
:10B2000023D2012A07D1012903D103F10E04E4B2AC
:10B2100000E00024224679B1012902D0022911D18F
:10B2200004E003EB43040A4D2A550DE003EB43040D
:10B23000074D2C44627007E003EB4304044D2C449B
:10B24000A27001E0072000BF00E0072030BD000031
:10B25000D01D002001460020704700002DE9F0417C
:10B2600006460F4600241448076006F0020000B3AB
:10B27000002506E0012211462846FFF7BDFF0446DF
:10B280006D1C042D01D2002CF4D034B940F23332BD
:10B2900004210A48FEF710FE044614B9FEF7F6FD35
:10B2A00004462CB9064A00210648FEF7D1FE0446A2
:10B2B00000BF2046BDE8F081481A0020386802002F
:10B2C00031B401003468020010B504460121204663
:10B2D0000AF061FF10BD00002DE9FC4704460D4651
:10B2E0001646A71C4FF001080020019001A8FEF7A8
:10B2F0001AFF3048406828602E4840682D49896808
:10B30000411A2D480068401CA0EB010915E00121FD
:10B310002A4803F04FFB02F04FFF82465146274870
:10B3200003F048FB2348406822498968411A2248B3
:10B330000068401CA0EB010900BF4F45E7D8B8F1F9
:10B34000000F30D00021009176B1009921F0030167
:10B35000491C0091009921F00401091D00910099F8
:10B3600064F3891100910DE0009921F00301891C1B
:10B370000091009921F00401091D0091009964F3E6
:10B380009F5100910B4949680B4A12681140094AC4
:10B390000C3202EB8100009901600649496839448A
:10B3A0000C3A516000BF9DF80400FEF7C3FE404612
:10B3B000BDE8FC87982600205C1C0020B42A0020F1
:10B3C00070B504460D460A2D03D10D212046FFF726
:10B3D000F7FFA168481CA06020684554D4E901101B
:10B3E000884202D3204603F07CFD70BD044880688B
:10B3F00003494968884201D1012070470020FCE7D9
:10B40000982600200246002108E0074B1B6803EB4A
:10B41000C1000378934200D17047491C034800786B
:10B420008142F2DB0020F7E7981B00209C1B0020E4
:10B4300010B5044620780221FFF738FE10BD000049
:10B44000F8B5054612490320FFF708FF044600BF80
:10B45000264626B100BF3046FEF7E4FD00BF00BF20
:10B4600069460020FFF7F2FD044600BF264626B1DC
:10B4700000BF3046FEF7D6FD00BF00BF9DF80000BC
:10B48000022801D1012000E000202870F8BD000052
:10B4900085B101007CB50446204602F063F90546FB
:10B4A00000236A46092106F06DFE052805D1012218
:10B4B000024801782046FFF771FB7CBD741A00201A
:10B4C0007CB504460E460020019042F6A620ADF859
:10B4D000040001208DF806000748006800906A46C5
:10B4E00001A92046A0DF05462DB9012203480178B5
:10B4F0002046FFF753FB7CBD9C680200751A0020B4
:10B5000001468879012809D10879012806D148889F
:10B5100042F60212904201D1012070470020FCE760
:10B520004FF0FF31054A42F82010082804DBFF23C2
:10B53000A0F108015032535470470000C42100208C
:10B540000146024850F8210070470000C421002045
:10B550002DE9F04F03460C464FF0FF390AB10020A9
:10B5600000E0082084460AB1082000E00C20804654
:10B57000614624E0154850F82100401CF0B91D46F2
:10B580000846274616464FFA80FBDFF840A00AF12E
:10B59000300A0AF805B0DFF834A04AF820704EB936
:10B5A0004FFA85FBA0F1080ADFF820E00EF1500EFB
:10B5B0000EF80AB000BF4FFA81F902E0491C41457C
:10B5C000D8D300BF4846BDE8F08F0000C42100205A
:10B5D0000146014840567047F42100202DE9F04112
:10B5E00004460D464FF6FF76304684420AD14FF4AA
:10B5F0008071284603F07BF986B2B6F5807F10D1C2
:10B6000026460EE0FF2C0CDC2146284603F058F9B4
:10B6100080F001070FB1204601E04FF6FF700646AB
:10B6200000BF3046BDE8F08170B505460DB9094C44
:10B6300001E0084C083409E0204602F0A2FB06466F
:10B6400006B904E028467168884700BFF4E700BFE8
:10B6500070BD0000B821002010B504462CB90120AF
:10B66000064948700020FFF7DFFF012C04D10120BC
:10B6700002498870FFF7D8FF10BD0000B0210020FC
:10B680002DE9F047024613468C46D3E90245DCE932
:10B690000267B6EB040877EB050002D30120BDE892
:10B6A000F0870020FBE701468878012805D191F852
:10B6B0002000012801D100207047886A042802D0A8
:10B6C000486A042801D10020F6E70120F4E733B5E9
:10B6D0008BB00546002000900C9878B100240BE058
:10B6E00021460CA803F033F928B1009A501C0090B1
:10B6F00001A820F81240641C142CF1D32C226946B6
:10B700002846FDF783FE0DB030BD014608880628A7
:10B7100008DB0888B0F5486F06DD08884FF6FF7231
:10B72000904201D0072070474888062808DB4888E7
:10B73000B0F5486F06DD48884FF6FF72904201D0A1
:10B740000720F0E708884FF6FF72904208D048883B
:10B75000904205D008884A88904201DD0720E2E740
:10B760000020E0E72DE9F04107460D4614469846D3
:10B770002088801D404502D90C20BDE8F081384664
:10B78000FFF7C3FF064600BF304600B1F5E700BF34
:10B790000520218868542088401C208012202188A0
:10B7A00068542088401C20802288511938880AF06B
:10B7B00059FB2188084420802288511978880AF092
:10B7C00051FB2188084420800020D6E710B50446AC
:10B7D00000BF2046FEF726FC00BF10BD30B587B085
:10B7E0001C216846FDF72BFE002000904FF4A0308E
:10B7F00001904FF4F020029003208DF80C000020FF
:10B80000ADF80E008DF81000094805900948069023
:10B810006846FFF7EDF8044600BF254625B100BF96
:10B820002846FEF7FFFB00BF00BF07B030BD000099
:10B8300051120200CDB70100F8B505460C46607AFA
:10B8400088B9207A10B91048476801E00E48876827
:10B850002A4639466068FEF741FC064616B1304676
:10B8600009F046F90EE0002020720748406948B10F
:10B8700001208DF80000ADF8025003484169684688
:10B88000884700BFF8BD0000341E0020F0B585B029
:10B8900004460D4617461E4614220B496846FDF71E
:10B8A000B5FDADF802408DF80850ADF80A708DF87E
:10B8B0000C600022054801782046FFF76FF96846C2
:10B8C00000F0BCFC05B0F0BDBC6902005D1B0020AF
:10B8D00010B586B00446208806F08CF900BB20889D
:10B8E000FFF7D4F830B92088012241F2060100F0B8
:10B8F0009EFA15E0208800220A490978FFF74EF9E0
:10B9000002208DF804002088ADF8060000208DF894
:10B910000C0000218DF80D1001A800F08FFC00BF75
:10B9200006B010BD5D1B002070B504460D462946CB
:10B930002046FEF795F870BD10B50122002108469B
:10B94000FFF75AFC044600BF1CB1072C01D020466B
:10B9500010BD00BF072202210120FFF74DFC044665
:10B9600000BF1CB1072C01D02046F1E700BF042224
:10B9700002210020FFF740FC044600BF1CB1072C49
:10B9800001D02046E4E700BF0020E1E72DE9F041C7
:10B9900005460F460F4C0121204603F042F80646AB
:10B9A00000BF00BF00BF00BFBFF35F8F00BF00BF7D
:10B9B00000BF0EB9012000E0002040B1284602F08F
:10B9C00057FB08B1BDE8F081024804F00DFC00BF50
:10B9D000F8E700006C1A002070B50B490B4A891A71
:10B9E000C908032242EA014009A104F0F5F907F071
:10B9F000AFFE044600BF254625B100BF2846FEF72E
:10BA000011FB00BF00BF70BDF88702005087020025
:10BA1000457261736520626F6E64732100000000DF
:10BA200070B506460D4616B14FF4064070BD287934
:10BA300020B1012809D0022815D111E00220287177
:10BA4000284608F02DFA044610E0284600F05CFE77
:10BA5000044648F20960844201D141F61D5405E0D4
:10BA600041F61D5402E048F20E6400BF00BF2046BC
:10BA7000DCE700002DE9F0418046002414E0124884
:10BA8000006800EBC405287805F0B8F80746687828
:10BA9000012800D100E00020784080F001062878DD
:10BAA000314600F0F9FA641C084800788442E6DB6D
:10BAB0000748D0E90010002359405840014301D005
:10BAC00009F090FFBDE8F081981B00209C1B00202E
:10BAD000A81B002070B5044620793D2802D141F210
:10BAE0003D0001E04FF48850054620880022294699
:10BAF00002F008FA70BD000010B50021034802F002
:10BB000090FF044684F3100010BD0000B42A00200A
:10BB100070B505460C464FF4803000FA04F1284613
:10BB200000F09AFA70BD70B505460C464FF4A0704F
:10BB300000EB840086B23146284600F025FB70BD3C
:10BB40002DE9F04704460D4616461F464FF4803057
:10BB500000FA05F84FF4A07000EB85001FFA80F999
:10BB600026F07F464146206804F0A7FB4146206846
:10BB700004F09DFB4946206804F092FB32462946BA
:10BB8000206804F084FB4146206804F093FB1FB159
:10BB90004146206804F094FBBDE8F08710B50446E8
:10BBA000206804F079FB10BD2DE9F04704460D46EE
:10BBB00017466079324941F820706079314901EBCC
:10BBC000C000007968B108262F49304A891AC9088F
:10BBD000022242EA01402EA104F0FEF83046BDE800
:10BBE000F08729882068C0F8081500BF94F9042060
:10BBF000AB7810461946002808DB4FEA417C4FEA33
:10BC00001C68DFF8B0C00CF800800BE04FEA417C04
:10BC10004FEA1C69DFF8A0C000F00F08A8F1040883
:10BC20000CF8089000BF00BF94F9041008460028E3
:10BC30000DDB00BF00BF00F01F0301229A40430943
:10BC40009B0003F1E023C3F8002100BF00BF00BF49
:10BC500000BF012061790B4A02EBC10108716079D4
:10BC6000114641F8304000260749084A891AC90898
:10BC7000032242EA014011A104F0AEF83046AEE7DB
:10BC8000D41B0020D81B0020D88702005087020058
:10BC900052544320696E7374616E636520616C72E7
:10BCA0006561647920696E697469616C697A65643B
:10BCB0002E00000000E400E018ED00E05254433A8A
:10BCC00020696E697469616C697A65642E00000090
:10BCD00010B5014691F90400002807DB00F01F03AE
:10BCE00001229A40024B440943F8242000BF10BDB2
:10BCF00000E200E070B505460C46224602212846C7
:10BD000000F0B6F970BD10B504464FF482712046BC
:10BD100000F03AFA10BD10B504460021206804F086
:10BD2000D2FA10BD10B504460421206804F0CBFA05
:10BD300010BD2DE9F84F04468846154699464FF444
:10BD4000803000FA08FA4FF4A07000EB88001FFA68
:10BD500080FB25F07F455146204600F07DF92068A4
:10BD600004F09AFA06464146206804F08AFA0090E8
:10BD700032464146206804F08AFA5946206804F0A9
:10BD80008FFA3146009809F087FD012806D110206E
:10BD900004F048FE5946206804F082FA206804F056
:10BDA0007BFA06463146284609F076FD074651469D
:10BDB000206804F07FFA012F0FD16A1C41462068E9
:10BDC00004F065FA102004F02DFE206804F064FAF7
:10BDD000B04225D00D20BDE8F88F2A4641462068A4
:10BDE00004F055FA206804F057FA0646681E3146FA
:10BDF00009F052FD07466FF07F40A0EB0900B84202
:10BE000001D20D20E7E75FB96A1C4146206804F0C3
:10BE10003EFA206804F040FAB04201D00D20DAE783
:10BE200001225146204600F023F90020D3E770B5E7
:10BE300006460C4615462B46224600213046FFF7A3
:10BE400025FD70BD2DE9F84305460E461746984678
:10BE500069461048006802F0ECFC044614B904205E
:10BE6000BDE8F8831C212046FDF7E9FA0120207186
:10BE70002560C4F8088008480068B6FBF0F0E06070
:10BE8000676169460348006802F0FDFC07F018FF8F
:10BE90000020E5E75C6B0200506B020010B5044621
:10BEA000D4E90321501828DF10BD0278072A38D2C0
:10BEB000DFE802F037040712222B340000220A7058
:10BEC00030E001220A7003898B818388CB81C268AC
:10BED0008A6000230B7425E002220A7003898B819B
:10BEE0008388CB81C2688A60827D062A01D10123C2
:10BEF00000E000230B7415E003220A70C3888B81D5
:10BF00000389CB81C2688A600CE004220A70C3886E
:10BF10008B810023CB8100228A6003E005220A7016
:10BF200000E000BF00BF704770B50546002409E07F
:10BF3000064850F8240020B1044850F82410284640
:10BF40008847641C042CF3D370BD00001423002028
:10BF500030B587B004460D462068806808B907B040
:10BF600030BD182101A8FDF76AFA0295A068069075
:10BF7000207910B1012815D109E001208DF80400C5
:10BF800020690390E0680490606905900BE002204E
:10BF90008DF804000749E068096848430390606928
:10BFA000059000E000BF00BF2068816801A88847B5
:10BFB00000BFD4E7506B0200F0B585B005460C46D3
:10BFC0001646002C3ED0112C3CD0082C3AD00D2C1B
:10BFD00024D11D491D4A891AC908022242EA01409A
:10BFE0002A461B4903F002FF2A460321684602F055
:10BFF000EBFA2EB1307800F0010008B1012000E02A
:10C0000002208DF8080000218DF80C1041F201117A
:10C01000ADF80A10684600F025F913E0204604F058
:10C020004BFC07460849094A891AC908012242EA15
:10C0300001402B463A46074903F0E4FE21462846D4
:10C0400008F0C4FD05B0F0BD9887020050870200DB
:10C05000F87D0200087F020070B504460D462946AF
:10C06000206804F024F92946206804F026F970BD00
:10C0700070B504460E4615463146206804F01AF99C
:10C080001DB13146206804F01BF970BD10B504469F
:10C09000204600F0E7F810BDF8B505460C462846E6
:10C0A00009F0E6FA05286AD2DFE800F003212A3910
:10C0B0003F00DCB10121284609F0EAFA0020009097
:10C0C0006846FEF730F82A460126002730463946F2
:10C0D000FDF788F92B4AD2E9003218431143294A67
:10C0E00003C29DF80000FEF725F800BF47E00CB141
:10C0F000022000E000200146284609F0C9FA3EE08F
:10C1000044B10321284609F0C3FA0121284609F069
:10C11000A1FF03E00121284609F0BAFA2FE01CB97B
:10C120000421284609F0B4FA29E024B10321284665
:10C1300009F0AEFA22E00021284609F0A9FA002110
:10C14000284609F087FF002000906846FDF7EBFFC6
:10C150002A460126002730463946FDF743F90A46AC
:10C16000C143D043074B0CCB11401840054AC2E9EC
:10C1700000109DF80000FDF7DDFF00BF00BF00BF0D
:10C18000F8BD0000A81B002070B505460C462868C5
:10C19000015929B12146286804F082F8012070BDB8
:10C1A0000020FCE770B50446608801F0DBFAA0804F
:10C1B000002505E0044850F82510204688476D1CEE
:10C1C000002DF7D070BD0000641A002070B5044641
:10C1D000A08801F0F7F96080002505E0044850F8D8
:10C1E0002510204688476D1C002DF7D070BD00003B
:10C1F000781A002070B50546002405E0044850F880
:10C20000241028468847641C022CF7D370BD000018
:10C21000DC68020070B50546002405E0054850F8CA
:10C22000241028468847641C034800788442F5DBC4
:10C2300070BD000064210020A61A002070B50446DD
:10C24000608801F08FFAA080002505E0044850F8CE
:10C250002510204688476D1C002DF7D070BD0000CA
:10C260007C69020070B50546002405E0044850F8DA
:10C27000241028468847641C002CF7D070BD0000AD
:10C28000F469020010B586B00446142101A8FDF738
:10C29000D6F8A08900F052FAADF8080020780628F8
:10C2A0005ED2DFE800F05D0304052E4A00BF00BF48
:10C2B000A08900F048FA18B9E08907F012FFF8B138
:10C2C000E08907F00BFF8DF80C002078032801D1DE
:10C2D000012100E000218DF80D10A1680491606833
:10C2E00030B908208DF8040001218DF8141004E005
:10C2F00009208DF804006168059101A805F08EFE03
:10C300002FE0A08900F01FFAB0B1E089A0B9606801
:10C3100038B90A208DF80400BDF8080006F0CEF800
:10C3200004E00B208DF8040060680390012011499F
:10C33000087001A805F072FE13E0606818B91320B8
:10C340008DF8040004E014208DF804006068039068
:10C350004FF6FF70ADF8080001A805F05FFE00E0A1
:10C3600000BF00BF0348007808B105F0EDFF06B03C
:10C3700010BD0000851A002038B505461048007829
:10C3800010B948F2016038BD4FF6FF70854202D106
:10C3900048F20360F7E7684607F072FB044614B9F9
:10C3A00048F20760EFE70520207001202071E5804A
:10C3B000684607F075FB07F077FC0020E3E7000014
:10C3C000E01B002038B50E48007810B948F2016033
:10C3D00038BD684607F054FB044614B948F20760BC
:10C3E000F6E706202070684607F05AFB05480078FB
:10C3F00010B101200349087307F056FC0020E7E75D
:10C40000E01B0020E823002070B586B0142101A8AD
:10C41000FDF715F82E48007828B101A8FFF784FD34
:10C42000002006B070BD2A48001D02F0BCFA08B119
:10C430000020F6E700F034FA06460EB13046F0E789
:10C4400007F05AFB05F01EFB054625B1022D03D06F
:10C45000062D0ED103E000BF48F20A60E1E701209B
:10C460001B4908700020486001A8FFF75DFD00200F
:10C47000D7E700BF00BF684607F002FB044614B9C7
:10C4800048F20760CDE7012020700C2D16D2DFE8BE
:10C4900005F01506150715111512150A0E0B00BF2C
:10C4A000002020710BE000BF0320207107E0022074
:10C4B000207104E000BF0120207100E000BF00BF38
:10C4C000684607F0EDFA07F0EFFB0020A9E700004F
:10C4D000E01B002038B5044614B948F2046038BDAA
:10C4E0006946204607F0FAFC08B3BDF8000000EBEF
:10C4F0008000114901EB8000C068A8B1A07A98B112
:10C50000BDF8000000EB800001EB8000C068401E19
:10C51000BDF8001001EB8101074A02EB8101C86000
:10C520000020A072002504E048F2056501E048F211
:10C5300009652846D3E70000C02300207FB51446D4
:10C540001D462B46224601A9684607F05FFC04B051
:10C5500070BD37B50C4615462B462246694600206D
:10C5600007F054FC3EBD37B50C4615462B46224617
:10C570000021684607F04AFC3EBD024602B111B9EF
:10C5800048F204607047106808600020FAE7000075
:10C59000F8B504460D4604B115B948F20460F8BD7B
:10C5A0006946204607F09AFCA0B16668BDF8001005
:10C5B00001EB8101094A02EB810101F10C0001212B
:10C5C00002F0F8F92E6060680C3068600120A072FB
:10C5D0000020E4E748F20960E1E70000C023002002
:10C5E00070B504460D4614B948F2046070BD0323CB
:10C5F00000222946204609F0C7FFF7E770B5044638
:10C600000D46022300222946204609F0BDFF70BDD9
:10C6100070B5054609480068042802D148F20B6449
:10C6200009E007480549096840F8215001210348FD
:10C6300002F0C0F90024204670BD0000EC1B002071
:10C64000142300202DE9F84304464FF480680026A7
:10C650002B48007818B948F20160BDE8F88314B996
:10C6600048F20460F9E712212046FCF7E8FE0320B7
:10C67000208000253FE005EB8500224901EB80008A
:10C68000008905EB85011F4A02EB810149890844B5
:10C6900087B205EB850102EB8101486805F06EF970
:10C6A000032802D12088401E2080608805EB850188
:10C6B000144A02EB8101C96808446080208905EBB7
:10C6C000850102EB81014989084420816089384451
:10C6D0006081C7F5806086B2A089B04200DAA68189
:10C6E00004F11000831EA21D211D0090284607F0B2
:10C6F0004BFD681C85B2022DBDDB0020ADE70000BC
:10C70000E01B0020C02300203EB504460A4B6A46C9
:10C710000021A01D07F07AFB054635B9064A91882D
:10C72000019807F055FC054603E00348002101602D
:10C73000416028463EBD0000FC1B00200146A1F5DB
:10C74000404080B270470146B1F5404F05DB4FF6DF
:10C75000FE70814201DC012070470020FCE710B52B
:10C7600004462078182802D1FEF7F4F9207010BD95
:10C7700010B504462078182802D1FEF7EBF9207096
:10C7800010BD70B505460E46144624B13146284604
:10C7900002F0ECF803E03146284602F082F870BD62
:10C7A00030B504461088C01C984201D90C2030BD19
:10C7B0000220158848551088401C108001201588DB
:10C7C00048551088401C108015884C551088401C16
:10C7D00010800020EBE770B504460D46D822115BAF
:10C7E0000122D4F8D400FDF741FF064606B13570AA
:10C7F00004F13C0204F1D40104F1540072DF70BD75
:10C800002DE9F04106460C4615460027112C01D1B2
:10C81000012700E0002765B13A460A480178304612
:10C82000FEF7BCF90022084801783046FEF7B6F959
:10C8300005E03A46044801783046FEF7AFF9BDE816
:10C84000F08100007B1B0020781B002010B54FF406
:10C85000405400F009F80349086108460069001BCC
:10C86000C86010BDA81C002010B540F6F870006824
:10C87000401C18B94FF01020406902E040F6F870F3
:10C88000006803464FF0805001694269581C08B1A6
:10C89000184601E002FB01F00446204610BD0000EE
:10C8A00010B5FFF7D3FF00220249034802F0D8FC7D
:10C8B00010BD0000606B0200A81C0020F7B50D46FB
:10C8C00017460DB90020FEBD0026009868B100246F
:10C8D00009E02146684602F03AF818B1A0B239469C
:10C8E000A847761C641C142CF3D33046EBE710B534
:10C8F0000446606807F02EF910BD00003EB500BF89
:10C900009DF8000020F00F00401C00909DF80000F2
:10C9100020F0F0001030009000BF132214A16846F0
:10C920007CDF044600BF254625B100BF2846FDF741
:10C9300079FB00BF00BF0020019002905020ADF8AD
:10C940000400A020ADF806000020ADF808004FF468
:10C95000C870ADF80A0001A87ADF044600BF25467A
:10C9600025B100BF2846FDF75DFB00BF00BF3EBDFF
:10C970004E6F726469635F54656D706C617465209D
:10C980006539350070B50021064802F0E3F8044629
:10C9900000BF254625B100BF2846FDF743FB00BF79
:10C9A00000BF70BDBC1C002070B5054615B14FF42A
:10C9B000064070BD1848007B18B100201649087366
:10C9C00001E000F0DFF81448007808281DD2DFE805
:10C9D00000F01C04080C101C141800F03FF804466A
:10C9E00016E000F0BDF8044612E000F099F80446A5
:10C9F0000EE000F047F804460AE000F035F904467E
:10CA000006E000F043F9044602E048F20E6400BF7D
:10CA100000BF2046CDE70000E82300200D48008934
:10CA2000401C0C49088100204880087300BF0DE0BD
:10CA300000EB8001084A12F8211009B9012200E038
:10CA4000002204490A310A54411C88B20228EFDB53
:10CA500070470000E8230020C023002010B50848DC
:10CA600000F036F840B900200549891E087048805A
:10CA7000486041F61D5010BD00F072F8FBE7000061
:10CA8000EA23002070B50F48458805EB85000E4964
:10CA900001EB8000C06878B904200A49087005EBF2
:10CAA0008500094A02EB8000002301224168074803
:10CAB00002F01EFB044602E000F090F80446204617
:10CAC00070BD0000E8230020C0230020A81C002027
:10CAD00010B501460022002018E00F4B1B5C9BB1F3
:10CAE00000240D4B1C5400EB80030C4C04EB83031F
:10CAF000DB684BB900EB800304EB83031B7C012B49
:10CB000002D10880012203E0431C98B20228E4DB32
:10CB100000BF104610BD0000F2230020C0230020FB
:10CB2000F8B50C4844680C4800680B49898800EB4C
:10CB300081056088C01C86B2032006490870002069
:10CB4000B3000090084629464268044802F048FCB9
:10CB5000F8BD0000E8230020F41B0020A81C0020E2
:10CB600010B507494888091D07F0F6F918B1FFF715
:10CB7000D7FF044602E0FFF785FF0446204610BDBC
:10CB8000E823002010B514480078082820D2DFE8F8
:10CB900000F0041F1F0A1016171BFFF73FFF0120AC
:10CBA0000D49087015E000F07DF802200A49087070
:10CBB0000FE000F029F806200749087009E000BFDF
:10CBC00007200549087004E001200349087000E0CF
:10CBD00000BF00BF10BD0000E823002010B50520F5
:10CBE0000649087002200649888008460023012271
:10CBF0000168044802F07CFA10BD0000E823002020
:10CC0000F41B0020A81C0020144908681449498816
:10CC100001EB8101134A02EB810149680F4A11605F
:10CC20000F49498801EB81010E4A02EB81014860FE
:10CC30000A4989880A4A528802EB8202094B03EBAF
:10CC4000820211810221054A91800021044A528802
:10CC500002EB820203EB820211747047F41B002086
:10CC6000E8230020C023002010B5062005490870E5
:10CC7000498801EB8101044A02EB8101486804F014
:10CC8000DFFE10BDE8230020C023002010B50720E0
:10CC9000034908700020486004F0E2FE10BD000067
:10CCA000E8230020054A50684288D21C91B2044A09
:10CCB00092880A44024B9A8070470000E8230020C3
:10CCC000F41B00202DE9F04186B00446A688208898
:10CCD00050282ED004DC352836D0362808D189E0FB
:10CCE000522802D05428F9D103E0304601F052F91D
:10CCF000B9E01422634901A8FCF788FBADF806608F
:10CD0000304600F02FFDADF80800BDF8080000F037
:10CD10003BFA00225C4801783046FDF73FFF0022D5
:10CD20005A4801783046FDF739FF01A8FFF73AFA73
:10CD300099E0A01DFEF7E4FB28B10121304601F087
:10CD40008BF909F003F98EE00027A68804F10A05A3
:10CD50004F4801783046FDF70BFF00B983E0002211
:10CD60004B4801783046FDF719FFE088B0F5857F24
:10CD70003AD0E08858B1E2884649474BC91AC908F9
:10CD8000022343EA014045A103F030F82CE0288853
:10CD900001280AD02A883F493F4BC91AC9080223F3
:10CDA00043EA01404CA103F021F8688801280BD028
:10CDB0006A883849384BC91AC908022343EA014036
:10CDC00054A103F013F80FE0A98800223046A1DF38
:10CDD0008046B8F1000F06D1012701225C48017896
:10CDE0003046FDF7DBFE00BF1FB90021304608F0DA
:10CDF000DDFC38E00027A68804F10A0554480178D4
:10CE00003046FDF7B5FE00B92DE00022504801780C
:10CE10003046FDF7C3FEE08858B1E2881D491E4B3D
:10CE2000C91AC908022343EA01401CA102F0DEFF2F
:10CE300014E0A88801280BD0AA881649164BC91AF5
:10CE4000C908022343EA014032A102F0CFFF05E006
:10CE5000A87908B1012000E0002007463946304695
:10CE600008F0A4FC00BF00BF00BF002239493A48C7
:10CE70000078FDF71BFE00BF07F096FF06B0BDE887
:10CE8000F0810000B0680200731A0020721A0020BE
:10CE9000751A00205087020050870200556E657891
:10CEA00070656374656420474154542073746174E1
:10CEB0007573207768696C652067657474696E673F
:10CEC0002043415220636861722076616C75653A37
:10CED00020307825780000004D756C7469706C65A1
:10CEE00020282564292043415220636861726163D0
:10CEF00074657269737469637320666F756E642CF0
:10CF0000207573696E672074686520666972737432
:10CF10002E000000556E657870656374656420436B
:10CF200041522063686172616374657269737469E8
:10CF3000632076616C7565206C656E677468202867
:10CF40002564292C2073746F726520302E00000038
:10CF5000761A0020C9A20100711A002010B50446FB
:10CF6000207858B9608801F015F8608807F00CFF48
:10CF70006088FEF78FFA08F0E9FF00E000BF00BF0D
:10CF800010BD000010B500F04FFDFDF7E3FD2A498C
:10CF90000870FDF7DFFD29490870FDF7DBFD284922
:10CFA0000870FDF7D7FD27490870FDF7D3FD264926
:10CFB0000870FDF7CFFD25490870FDF7CBFD24492A
:10CFC00008701D480078182817D01C4800781828C9
:10CFD00013D01B48007818280FD01A48007818285A
:10CFE0000BD019480078182807D01848007818285E
:10CFF00003D00846007818280BD11649164A891A1A
:10D00000C908012242EA0140144902F0E5FE03206A
:10D0100010BD00BF00201249086000BF00BF00BF64
:10D0200000BFBFF35F8F00BF00BF00BF00BF012084
:10D030000C4908700020EBE7701A0020711A0020DC
:10D04000721A0020731A0020741A0020751A00202A
:10D05000761A002050870200508702005C6E0200A2
:10D060006C1A0020681A00207CB504462078082835
:10D0700040D1607A00283DD1207A012814D00728B9
:10D0800002D0082834D12BE0A08800F09BFA054696
:10D090004FF6FF70854206D00121284600F0DCFFE4
:10D0A0002846FEF7F7F924E0A0886A46012104F03B
:10D0B000A9FE06469EB90198007880B1A08800F0CC
:10D0C00081FA05464FF6FF70854207D001220B48D2
:10D0D00001782846FDF762FD07F066FE00BF08E014
:10D0E00007480068012802D1054803F07DF800E0F8
:10D0F00000BF00BF08F02AFF7CBD0000721A0020AC
:10D100006C1A002070B50B48FEF748FD0A4B0CCB9B
:10D11000841843F10005094903C9201A75EB010081
:10D1200004D24FF08073E41845F1000520462946EB
:10D1300070BD0000B01B0020C01B0020C81B0020D9
:10D140002DE9F04104468846E0B2FEF75BF905465A
:10D15000287803F053FD07466878012800D100E0E5
:10D160000020784080F001064EB10648D0E900105A
:10D17000002359405840014301D108F033FCBDE879
:10D18000F0810000A81B00201CB50446044903C917
:10D19000CDE9000100226946204605F041F81CBD9A
:10D1A000D468020010B500F045FC01200149087068
:10D1B000002010BD7C1A00202DE9FC4705462846BA
:10D1C00000F0D0FA06460027B8464FF003094FF0AA
:10D1D000010A4FF6FF7086420DD06A46082130469C
:10D1E00004F010FE044634B90198871DB0F804809D
:10D1F000D0F8009000BF00BF4B4642463946284653
:10D20000B1DF0446042C01D1112422E0082C01D105
:10D2100000241EE00B2C1CD14FF0000A09F0020084
:10D2200010B14FF0010914E017B9B8F1000F04D0A4
:10D230000027B8464FF003090BE00A490A4A891A49
:10D24000C908012242EA01402A46084902F0CEFDFF
:10D2500003240B2CD0D0BAF1000F00D10B242046B0
:10D26000BDE8FC8758870200508702002471020045
:10D270002DE9FC5F8046404600F074FA06464FF602
:10D28000FF70864203D143F20200BDE8FC9F4FF0DD
:10D2900001094FF0000A00BF4FF0000A4A46511C36
:10D2A0001FFA81F96B460821304604F00DFE044652
:10D2B000002C31D1019D032028602A1DA91D404664
:10D2C0002B68B2DF044634B932460821304604F0F8
:10D2D00083FE04461FE00C2C02D14FF0010A02E04D
:10D2E000052C00D100240821304604F065FE0746D5
:10D2F00087B1384603F0E0FA83460C490C4A891A94
:10D30000C908012242EA01405B463246094902F05F
:10D3100079FD032400BF02E0072C00D10C24BAF1F0
:10D32000000FB9D100BF2046AFE7000058870200C8
:10D3300050870200A470020010B50446044800881B
:10D340004FF6FF71884201D007F03AFD10BD000092
:10D350007E1A0020FEB5044602A80190204600F087
:10D3600001FA06466A460121304604F04BFD0546A7
:10D370000DB10020FEBD01980078FBE72DE9F041DA
:10D3800005464FF6FF761648B3DF04468CB12046BB
:10D3900003F092FA07461349134A891AC908012271
:10D3A00042EA01403A46114902F020FD0320BDE85F
:10D3B000F08100BF4FF6FF72094801882846AFDFB1
:10D3C000044643F20300844204D105480088401C0F
:10D3D0000349088043F203008442EBD02046E6E78D
:10D3E000801A0020588702005087020058700200FF
:10D3F00070B504460D46204600F01DF8A84201D93C
:10D40000022070BDA0884FF6FF71884204D02088AA
:10D4100010B1A068401C08B90120F2E70020F0E735
:10D42000024613468B4204D21868401C08B1012002
:10D4300070470020FCE701464A8801F10C0000EB30
:10D440008200704710B502F039FB08B902F0F8FE0F
:10D4500010BD3EB504460D4620780221B1EB500FB9
:10D4600001D000203EBDB4F80100ADF80800E0781E
:10D470008DF80A00A188ADF80010A0798DF802009F
:10D4800001AA69462846FCF7CBFC032201A902A8A1
:10D49000FBF7E7FF08B90120E4E70020E2E700001E
:10D4A00070B504460D46142C03DA2046FDF78CFBBC
:10D4B00010B943F2020070BD04EB8400054901EB92
:10D4C0004000D0F802102960C188A980007AA871B4
:10D4D0000020F0E7CC1E002030B58FB0054628882C
:10D4E000102801D00FB030BD2822291D05A8FBF758
:10D4F0008DFF4FF6FF749DF818000321B1EB500F1C
:10D5000035D004F037FE9DF81800400820B10128FE
:10D5100003D0022828D114E000BF09E0039800F1ED
:10D52000110106A8FCF764FB10B1BDF8104006E03D
:10D5300002AA04A9072004F0E7FD0028EED100BFED
:10D5400013E008E00398411C06A8FFF782FF10B122
:10D55000BDF8104006E002AA04A9072004F0D4FD9B
:10D560000028EFD100BF00E000BF00BF00BFBDF842
:10D57000140000EB8000124921F81040BDF814009F
:10D5800000EB800001EB40000699C0F80210BDF8E6
:10D590001C10C1809DF81E1001724FF6FF7084426E
:10D5A0000CD0BDF81400ADF80200ADF80440002026
:10D5B0008DF800006846FEF71DFE00BF00BF91E732
:10D5C000CC1E002070B505464FF6FF70854200D195
:10D5D00070BD00240EE004EB8400094931F810000E
:10D5E000A84205D12046FDF7EFFA08B12046EFE743
:10D5F000601C84B2142CEEDB4FF6FF70E8E70000ED
:10D60000CC1E00203EB505460C4604F0B3FD0BE0F1
:10D61000BDF80800A04207D02846019900F00EF896
:10D6200010B1BDF808003EBD6A4602A9072004F00B
:10D630006BFD0028ECD14FF6FF70F4E72DE9F047C1
:10D6400004460D4604F1110605F111071022691C6C
:10D65000601CFBF706FF48B9601C00F07EFB28B198
:10D66000681C00F07AFB08B1012000E0002082462F
:10D6700039463046FCF7BCFA804630780221B1EBDF
:10D68000500F10D030780321B1EB500F0BD0387809
:10D690000221B1EB500F06D038780321B1EB500FC7
:10D6A00001D0012000E000208146B8F1000F02D037
:10D6B000B9F1000F05D1BAF1000F05D0B9F1000F93
:10D6C00002D10120BDE8F0870020FBE70246108868
:10D6D00008B101207047002105E0901C405C08B1B2
:10D6E0000120F7E7491C0829F7D30020F2E770B5BD
:10D6F00005460C462846FFF7E9FF08B9002070BD33
:10D7000028882188884201D00020F8E70822A11C3F
:10D71000A81CFBF7A6FE08B90120F0E70020EEE701
:10D72000142804DA00EB8002014B23F81210704732
:10D73000CC1E002070B506463046FFF743FF044676
:10D74000304604F06BFB054645B9142C06DA4FF65B
:10D75000FF7004EB8401024A22F81100284670BDD4
:10D76000CC1E002010B50446142C03DA2046FDF729
:10D770002BFA10B94FF6FF7010BD04EB840002497C
:10D7800031F81000F8E70000CC1E00203EB504463A
:10D7900004F0F0FC10E0019800F146012046FFF78C
:10D7A000A6FF30B9019800F12A012046FFF79FFF3C
:10D7B00010B1BDF808003EBD6A4602A9072004F07A
:10D7C000A3FC0028E7D14FF6FF70F4E770B50446DC
:10D7D0000D4609486060094801F0E5F850B902F0CB
:10D7E00095FF064908741C238C22054905480068EA
:10D7F00001F00BF8002070BD506B0200A024002047
:10D80000042400205C6B02002DE9F04106460C4622
:10D8100048F20E6736B10020434948604FF4064095
:10D82000BDE8F081207930B101280AD0022835D036
:10D8300003286DD140E00120207104F011F9074662
:10D8400067E04FF00008002519E005EB8500374937
:10D8500011F82000022810D1002005EB8501334A81
:10D8600002F821004FF0010805EB850102EB810170
:10D87000486804F0E5F8074603E0681C85B2022D0D
:10D88000E3DB00BFB8F1000F07D101202649087083
:10D890000020486041F61D50C2E73AE000202071A8
:10D8A000022023498880084600230122016821487C
:10D8B00001F01EFC07462CE0002020711C4908687E
:10D8C00004F0BEF807461C4845881948D0F8008087
:10D8D00005EB8500154901EB80004068144908609C
:10D8E00005EB8500114901EB8000C0F80480104869
:10D8F000808805EB85010D4A02EB81010881022039
:10D900000B498880002005EB850102F8210000E02A
:10D9100000BF00BF2FB100200349486048F20D60EE
:10D920007EE700207CE70000E01B0020C0230020F1
:10D93000F41B0020A81C0020E82300200246002140
:10D940000CE001EB8100074B33F82000904204D13A
:10D9500001EB810003EB80007047491C0029F0D0E7
:10D960000020F9E7201E00202DE9FC5F83460E46CB
:10D9700091461F46DDE90C45002E01DA704200E0B9
:10D98000304682464FF0010803E09AFBF9FA08F1AD
:10D990000108CA45F9DA474500D9B84634B1002E26
:10D9A00003DB05F00400042800D1641E05F002002A
:10D9B00000B167B105F0010048B944B104E0641E4C
:10D9C00020215846FDF7FCFC0CB1A045F7D3002EF2
:10D9D00005DA76422D215846FDF7F2FC07E005F006
:10D9E0000400042803D12B215846FDF7E9FC05F07B
:10D9F000020002280DD105F0010050B94FB944B121
:10DA000004E0641E30215846FDF7DAFC0CB1A04555
:10DA1000F7D33B464A4631465846CDE9004508F023
:10DA200039FABDE8FC9F00000020014908707047EA
:10DA3000681A00200020034908704FF6FF70024961
:10DA4000088070477C1A00207E1A002010B5002440
:10DA500007E004EB4401044A02EB810008F06DFD8D
:10DA6000641C042CF5D310BDB41F002010B504466F
:10DA700040212046FBF7E3FC10BD00004FF6FF708D
:10DA8000024908800020024908607047A41A00205B
:10DA90009C1A002070B505461249286802F034FF30
:10DAA000286802F0D3FF04462046002817DB00F068
:10DAB0001F02012191400C4A430942F8231000BF84
:10DAC00000BF00BFBFF34F8F00BF00BF00BF00BF4C
:10DAD00000BF00BFBFF36F8F00BF00BF00BF00BF1C
:10DAE00000BF70BD8402020080E100E070B5054611
:10DAF0001249286802F03BFF286802F0ABFF044699
:10DB00002046002817DB00F01F02012191400C4A3B
:10DB1000430942F8231000BF00BF00BFBFF34F8F7F
:10DB200000BF00BF00BF00BF00BF00BFBFF36F8FCB
:10DB300000BF00BF00BF00BF00BF70BD10034200A8
:10DB400080E100E02DE9F04104460E464FF48E716D
:10DB5000206802F0CCFE4FF4A271206802F0C7FEEC
:10DB60001A49206802F0D3FE206802F06FFF0546D4
:10DB7000374628463946002804DB4A07130E144A64
:10DB8000135408E04A074FEA126C124A00F00F03E0
:10DB90001B1F02F803C000BF00BF206802F056FF41
:10DBA0000546284600280DDB00BF00BF00F01F021D
:10DBB000012191404209920002F1E022C2F80011D5
:10DBC00000BF00BF00BF00BFBDE8F08180000200C1
:10DBD00000E400E018ED00E02DE9F04104460E46B7
:10DBE0004FF48871206802F0B5FE4FF49071206800
:10DBF00002F0B0FE4FF49271206802F0ABFE4FF4D9
:10DC0000A271206802F0A6FE4FF4AC71206802F009
:10DC1000A1FE1B49206802F0ADFE206802F01AFF49
:10DC20000546374628463946002804DB4A07130EC6
:10DC3000144A135408E04A074FEA126C124A00F0E3
:10DC40000F031B1F02F803C000BF00BF206802F0D3
:10DC500001FF0546284600280DDB00BF00BF00F08D
:10DC60001F02012191404209920002F1E022C2F814
:10DC7000001100BF00BF00BF00BFBDE8F081000081
:10DC80001003420000E400E018ED00E030B5024669
:10DC900000201378C3F38003D3B1137803F0030398
:10DCA000012B02D0022B10D107E01388C3F383139A
:10DCB0009B1C0C6823440B6008E00B680225146869
:10DCC00005EB945423440B6000E000BF00BF01202B
:10DCD00030BD000001460348007A08B101207047BA
:10DCE0000020FCE7A02400202DE9F0410446A08894
:10DCF00000EB020CB4F80480904501DD104600E012
:10DD0000A088A8EB0005E088C618B4F806809845FE
:10DD100001DD184600E0E088A8EB00074888B4F869
:10DD20000080404504DB4888B4F80280404502DDAD
:10DD30000020BDE8F0818888A84202D38888604529
:10DD400001D90020F5E7C888B84202D3C888B0429C
:10DD500001D90020EDE70120EBE70246002104E0B5
:10DD6000505C08B101207047491C1029F8D30020ED
:10DD7000F9E7014601F0030008B9012070470020CF
:10DD8000FCE70146086808B102680A6070477CB584
:10DD900004466A460721204604F034F805463DB99A
:10DDA000019890F8440000F0010008B101207CBD0A
:10DDB0000020FCE710B5044622460121002001F0B6
:10DDC000E1FC002105E054F8210008B1012010BD5C
:10DDD000491C0029F7D00020F9E7000010B502F037
:10DDE000E7FD20B902F008FE00200149887010BD4F
:10DDF000B021002017210180418000210171417173
:10DE0000704700002DE9FE4F80460F469246994626
:10DE10000FB1002612E0684600F0C6FB6A460021FA
:10DE2000404603F053FF009E2A48007828B99DF829
:10DE3000090010B90520BDE8FE8F00BF52463146EB
:10DE4000404607F02BFB0446002221464046FEF7E1
:10DE5000D7FC0D2C1CD005DCCCB1082C1AD00B2C17
:10DE60001BD118E0112C04D0A4F540500238A0B901
:10DE70000FE03A46184801784046FCF78FFE5246BC
:10DE8000164801784046FCF789FE002517E000BFE0
:10DE900000BF00BF00BF254611E0204602F00CFD88
:10DEA00083460F490F4A891AC908012242EA0140F4
:10DEB00043465A460C4901F0A5FF032500BF00BFA9
:10DEC000B9F1000F04D0324621464046FEF774F8FF
:10DED0002846B0E7701B00207A1B0020791B002029
:10DEE0009887020050870200B07E020070B5054698
:10DEF0000E46314628467EDF0446042C00D111240C
:10DF0000204670BD70B504460D46164600BF0B484E
:10DF100001782046FCF72CFE70B1204603F06AFE23
:10DF200028B132462946204603F06EFE04E0324610
:10DF300029462046FDF77BFF70BD00005D1B0020D9
:10DF40002DE9F041044688460A4801782046FCF74E
:10DF50000FFE0646084801782046FCF709FE0746F2
:10DF60000123324639462046FFF74CFF0546BDE8FF
:10DF7000F0810000791B00207A1B002070B5054657
:10DF80000C46002624B121462846FFF7AFFF06467F
:10DF9000304670BDF0B585B00446002614216846B1
:10DFA000FBF74DFAADF802404FF6FF70844201D105
:10DFB00005B0F0BD2046FFF7FFF8054645B10B2D33
:10DFC0000FD0112D0BD0A5F540500238E0B91AE062
:10DFD0000E208DF800006846FEF7E4F829E00126DF
:10DFE00027E00F208DF800001649174A891AC90842
:10DFF000022242EA01402246144901F0F7FE684637
:10E00000FEF7D0F815E014E0284602F055FC07466C
:10E010000C490D4A891AC908012242EA01402346E7
:10E020003A460B4901F0EEFE2946204606F092FDE5
:10E0300000BF00BF3246074801782046FCF7AEFD1E
:10E0400000BFB5E75087020050870200806F0200D2
:10E050002C6F0200711A002070B505460C4622464E
:10E06000024801782846FCF799FD70BD701A00201F
:10E070002DE9F04186B00446002600272046FFF730
:10E08000F7F805464DB1112D0AD0862D0AD0A5F519
:10E090004050023800281BD101E001272DE02CE080
:10E0A00001262AE01422194901A8FBF7AFF9ADF8BF
:10E0B00006401749174A891AC908022242EA014054
:10E0C000224615A101F092FE01A8FEF76BF814E0BC
:10E0D000284602F0F1FB80460D490E4A891AC9080C
:10E0E000012242EA01402346424619A101F08AFE7C
:10E0F0002946204606F02EFD00BF00BF31462046CF
:10E10000FFF7AAFF384606B0BDE8F0816C68020050
:10E110005087020050870200466C61736820667564
:10E120006C6C2E20436F756C64206E6F742073745A
:10E130006F7265206461746120666F7220636F6E18
:10E140006E5F68616E646C653A20256400000000B3
:10E150006773636D5F6C6F63616C5F64625F636163
:10E160006368655F757064617465282920726574E1
:10E1700075726E656420257320666F7220636F6E02
:10E180006E5F68616E646C653A2025640000000073
:10E1900070B54FF48041002001F0CCFE044600BF72
:10E1A000254625B100BF2846FBF73CFF00BF00BF56
:10E1B00001F068FC70BD00002DE9FF4100272E48EA
:10E1C00000F0EAFB2C48001F00F0E6FB2B488068BB
:10E1D00003902B4805680398284028490C3101EB2F
:10E1E000800800BF03A94046FFF750FD30B10398F7
:10E1F000284022490C3101EB800800E000E0F1E703
:10E2000000BF00240AE00398411C284003911B49E9
:10E210000C3151F820004DF82400641C022CF2D37C
:10E22000009800F0030001280DD0022814D1BDF899
:10E2300006700421009801EB9050401E039901EBF9
:10E240009000039009E0BDF806700098C0F38310B9
:10E2500003990844039000E000BF00BF0648001F78
:10E2600000F093FB064616B10449039888603846CF
:10E2700004B0BDE8F0810000B02A002098260020FC
:10E280005C1C002008B5FFF783FF07F0BBFB684666
:10E29000FDF7D6F805F088FBFCF77DFEFEF72EFBB8
:10E2A000FEF770FBFBF768FD06F0BCFEFDF796FA83
:10E2B00004F084F909490A4A891AC908032242EA82
:10E2C000014008A101F088FDFBF781FF9DF80000E7
:10E2D000FBF78CFD00BFFFF7B5F8FCE7F8870200FD
:10E2E0005087020054656D706C61746520657861BB
:10E2F0006D706C6520737461727465642E0000002B
:10E300002DE9F04105460E4614469846A888871C1C
:10E310002088801C3844404502D90C20BDE8F0819B
:10E32000FE2F01D90C20F9E7781C21887054208831
:10E33000401C2080FF20218870542088401C2080B1
:10E3400022889119288807F08DFD218808442080B3
:10E35000A88800280DDDA86808B90720DEE7AA888C
:10E3600023889819A968FBF751F82088A9880844E0
:10E3700020800020D2E72DE9FF4F87B00446914668
:10E380001E46A2462546BAF806009AF805104843EC
:10E39000001F0690BAF806B0301DB0FBFBF00590E8
:10E3A000301DB0FBFBF10BFB11000490D9F800000D
:10E3B00081190698814202D90698801B01E0D9F89C
:10E3C00000000746C9F8007003E02D680598401E5C
:10E3D000059005980028F8D103900498ABEB00084D
:10E3E000B84501D9384600E04046804623E003990D
:10E3F000089808440290281D049908440190149834
:10E4000028B14246DDE90110FBF700F804E042467E
:10E41000DDE90101FAF7FAFF002004902D68A7EB6F
:10E420000807039840440390BB4501D9384600E0F3
:10E430005846804600BF002FD9D10BB0BDE8F08F01
:10E4400070B503460C469CB101F098FD05460022CC
:10E450000AE0084800EB820108881E68B04202D139
:10E460001A60002070BD521CAA42F2D30520F9E7C1
:10E470000020F7E70000000070B504460D4629466D
:10E48000204600F01DFA80F0010600BF00BF00BF6B
:10E49000BFF35F8F00BF00BF00BF304670BD70B5D7
:10E4A00004460D4600BF00BF00BFBFF35F8F00BF33
:10E4B00000BF00BF2946204600F049FA70BD70B584
:10E4C00004460D4600BF00BF00BFBFF35F8F00BF13
:10E4D00000BF00BF2946204600F0E3F970BD2DE9DA
:10E4E000F84F05460F46144698462878012804D16F
:10E4F000687810B90720BDE8F88F2088801C404557
:10E5000008D82878012807D12088801C6978084419
:10E51000404501D90C20EEE72088A8EB0000801EC2
:10E5200086B200962188891CC81969467DDF81461C
:10E5300000BF484600B1DEE700BF2878022804D0BB
:10E540006878BDF80010884206DBBDF80000B042D4
:10E5500002DC4FF0090A0BE04FF0080A2878012886
:10E5600005D16878B04202DC6878009000E000963F
:10E57000BDF80000FE2801D90C20BCE7BDF8000062
:10E58000401C218878542088401C2080208807F86F
:10E5900000A02088401C20802088BDF8001008447E
:10E5A00020800020A7E700000EB500210091019116
:10E5B00002910449096800919DE80E0080E80E0070
:10E5C0000EBD00006C1B002070B586B006460D46DF
:10E5D0001446142101A8FAF732FF8DF80450ADF863
:10E5E00006402046FFF7BEF8ADF80800142201A946
:10E5F0003046FAF70BFF06B070BD70B505460E4603
:10E600004FF6FF70854201D1002000E0681C84B203
:10E6100008E02146304600F09AF908B1204670BD66
:10E62000601C84B2FF2CF4DD4FF6FF70F7E70000AA
:10E6300017480068401C38B916480178154808305A
:10E640000078C0F3031205E0114801684FF08050D4
:10E65000D0F83421062912D1032A06D0042A06D084
:10E66000052A06D0062A08D105E0012070470120BE
:10E67000FCE70120FAE70120F8E70120F6E70F297F
:10E6800004D10AB90120F1E70120EFE70020EDE70E
:10E6900030010010E00F00F0074802684FF0805092
:10E6A000D0F834110F2A04D109B901207047012094
:10E6B000FCE70020FAE7000030010010174800686E
:10E6C000401C38B916480178154808300078C0F366
:10E6D000031205E0114801684FF08050D0F8342152
:10E6E000062912D1032A06D0042A06D0052A06D00C
:10E6F000062A08D105E0012070470120FCE701202F
:10E70000FAE70120F8E70120F6E70F2904D10AB95A
:10E710000120F1E70120EFE70020EDE730010010D4
:10E72000E00F00F017480068401C38B9164801781F
:10E73000154808300078C0F3031205E0114801685D
:10E740004FF08050D0F83421062912D1032A06D088
:10E75000042A06D0052A06D0062A08D105E00120A1
:10E7600070470120FCE70120FAE70120F8E70120CB
:10E77000F6E70F2904D10AB90120F1E70120EFE7FC
:10E780000020EDE730010010E00F00F017480068AE
:10E79000401C38B916480178154808300078C0F395
:10E7A000031205E0114801684FF08050D0F8342181
:10E7B000062912D1032A06D0042A06D0052A06D03B
:10E7C000062A08D105E0002070470020FCE7012060
:10E7D000FAE70120F8E70120F6E70F2904D10AB98A
:10E7E0000120F1E70120EFE70020EDE73001001004
:10E7F000E00F00F070B504462046FAF756FD0546D6
:10E800000DB1002070BD1120FCE710B5044609B918
:10E810000E2010BD92FBF3F003FB102008B109207D
:10E82000F7E7216000206060A060A281E38100BF63
:10E83000EFE770B504460D4629462046FAF7EAFC94
:10E8400018B12A882168881870BD0020FCE770B5CF
:10E8500005460C4620886188884204D12846FAF78C
:10E860001BFD012070BD0020FCE770B504460D467D
:10E8700029462046FAF7F3FC18B16A8821688818FF
:10E8800070BD0020FCE770B505460C462088618805
:10E89000884204D12846FAF7D9FC012070BD002037
:10E8A000FCE770B505460C4604F01F0301229A40B0
:10E8B000D143620905EB820000F087F8064670BD7F
:10E8C00070B505460C4604F01F03012202FA03F15D
:10E8D000620905EB820000F099F804F01F020121A3
:10E8E0009140084008B1012070BD0020FCE72DE9EF
:10E8F000F04106460D46002421E056F82400C043AE
:10E9000090FAA0F0B0FA80F814E008EB4417AF4298
:10E9100000D312E039463046FFF7D2FF10B938462F
:10E92000BDE8F08156F82400C04390FAA0F0B0FA98
:10E9300080F800BFB8F1200FE7D300BF641C681E49
:10E94000012101EB5010A042D7D82846E8E710B5C6
:10E950000246480952F8200001F01F040123A34099
:10E96000184008B1012010BD0020FCE770B5054635
:10E970000C4604F01F03012202FA03F1620905EBC1
:10E98000820000F059F8064670BD10B5044600211B
:10E99000204600F030F810BD10B504460121204695
:10E9A00000F04AF810BD10B504460121204600F0E1
:10E9B0002DF810BDF8B504460D466A462946204696
:10E9C000FAF7BFFC06460098F8BDF8B504460D46B8
:10E9D0006A4629462046FAF79AFC06460098F8BD92
:10E9E000F8B504460D466A4629462046FAF7A9FCC2
:10E9F00006463046F8BDF8B504460D466A46294637
:10EA00002046FAF784FC06463046F8BDF8B50446C1
:10EA10000D466A4629462046FAF76CFC0646304603
:10EA2000F8BDF8B504460D466A4629462046FAF771
:10EA300055FC06463046F8BDF8B504460D466A4614
:10EA400029462046FAF756FC06460098F8BDF8B568
:10EA500004460D466A4629462046FAF77FFC0646DC
:10EA60000098F8BDF8B504460026002000906846DE
:10EA7000FBF759FB206800686168884215D9206857
:10EA80000068401E226810600178204600F033F8CC
:10EA90000646207A21680978401AC5B220680079B4
:10EAA000A84201DA2068057100BF9DF80000FBF75D
:10EAB00041FB3046F8BD0246D068081A138AB0FB05
:10EAC000F3F0C0B27047F8B504460D462E4600205C
:10EAD00000906846FBF727FB31462046FFF7EBFF27
:10EAE00021680A68511C2368196010709DF80000A5
:10EAF000FBF720FBF8BD0246138AD06801FB030038
:10EB0000704710B5014600BF09B90E2010BD00BF07
:10EB1000087A0B79C01AC2B2D1E90030186005E05A
:10EB200008680368581C0C6820601A70101EA2F157
:10EB30000103DAB2F4D10B68187100BFE6E730B513
:10EB400002460B46D40802F00702012090401D5DEA
:10EB5000284030BD70B504460E4600BF0CB90E20EB
:10EB600070BD00BFE6601720208060801B202071F0
:10EB7000002507E005EB4502A11D01EB4200FFF770
:10EB800039F96D1C002DF5D00020E9E72DE9F0479B
:10EB9000064688464546B488012C01DBBDE8F0876F
:10EBA0003088102806D0112809D03A280CD05528D2
:10EBB00014D10EE03146284602F0B8FB0FE0314692
:10EBC000284602F073FC0AE03146284602F03AFD7E
:10EBD00005E03146284602F075FC00E000BF00BFAA
:10EBE00004EB4401A81D00EB41000079002839D056
:10EBF00004EB4402A81D30F812102046A5DF07469A
:10EC0000F7B9002104EB4402A81D00EB420001719A
:10EC1000012104EB4402A81D00EB4200417104EB0A
:10EC20004403A91D31F813200F49104BC91AC90814
:10EC3000042343EA014023460D4901F0E3F810E0C4
:10EC4000112F0ED0384601F037FE81460649074A9B
:10EC5000891AC908012242EA01404A4605A101F089
:10EC6000C5F800BF00BF99E768870200508702001F
:10EC70009C71020073645F626C655F6761747463AA
:10EC80005F65786368616E67655F6D74755F7265F7
:10EC9000717565737428292072657475726E656468
:10ECA0002025732E00000000024600BF0AB90E2086
:10ECB000704700BF00BF1078DE2801D00820F7E7BA
:10ECC00000BF51800020F3E7024600BF0AB90E20C2
:10ECD000704700BF00BF09B90E20F9E700BF1078E8
:10ECE000DE2801D10820F3E708685060DE201070AC
:10ECF0004FF6FF7050800020EAE770B504460E46DC
:10ED000000BF06B970BD00BF00BF04B9FAE700BF7D
:10ED1000354600BF2878DE2800D0F3E700BFA08882
:10ED20006988884202D1284607F07EF920880128A8
:10ED300006D0022809D0112811D0512817D109E096
:10ED4000211D284602F086FD12E0211D284602F012
:10ED500080FD0DE0211D284602F026FD08E0A08878
:10ED60006988884202D14FF6FF70688000E000BFDA
:10ED700000BF00BFC6E701464FF08040405808B1D1
:10ED8000012070470020FCE708B500224FF08041C9
:10ED90000A500958009100BF08BD000001490860F1
:10EDA0007047000008030040012291070A50704795
:10EDB00010B500240F48007808B1852411E0002028
:10EDC0000C49886048600861C8600B4801F004FE87
:10EDD000044601F09BFC08B901F0F4FD012005494F
:10EDE000087001F0E5FD10B101200249887020464D
:10EDF00010BD0000B021002059B6010008B5002068
:10EE000000906846FBF78FF90748C068401E064926
:10EE1000C8600846C06808B9FEF7E0FF9DF800002A
:10EE2000FBF788F908BD0000B02100202DE9F04172
:10EE300088B004460F46154626781A4840F82650F2
:10EE40001949386941F82600787F184988552022E9
:10EE500039466846FAF7DAFA04964FF00008207847
:10EE60001249085C50B10DB1114800E00020024683
:10EE70006946201D02F0A6F880460EE020780B4976
:10EE8000085C50B90DB10B4800E00020024669460D
:10EE900004F10C0001F0CEFF8046404608B0BDE80A
:10EEA000F08100007C1B0020801B0020841B0020C0
:10EEB000ED5C0200F55A02000FB438B5044605981F
:10EEC00010B938BC5DF814FB0020009006A8009033
:10EED0006A462046059900F012F80020009000BF15
:10EEE000EFE770B50446A06800B970BDD4E904032B
:10EEF000A268216898470020A06000BFF5E72DE9CF
:10EF0000FC5F82460D4614460DB9BDE8FC9F00BF6C
:10EF10002E786D1C06B9E1E0252E70D100274FF048
:10EF2000010900BF2E782B2E0CD02D2E02D0302EB2
:10EF30000CD103E047F001076D1C0AE047F002071F
:10EF40006D1C06E047F004076D1C02E04FF000095D
:10EF500000BF00BFB9F1000FE4D14FF0000800BFBF
:10EF60002A2E06D12168081D2060086880446D1C87
:10EF70000DE02E78302E01DB392E00DD07E06D1C10
:10EF8000A6F1300008EB880100EB4108E8E700BF7C
:10EF90004FF0000B2E782E2E10D16D1C00BF2E7856
:10EFA000302E01DB392E00DD07E06D1CA6F13000AC
:10EFB0000BEB8B0100EB410BF1E700BF2E7800BF9C
:10EFC0006C2E01D0682E02D16D1C2E7800E000E07E
:10EFD000F6E700BF692E21D008DC252E6DD0582E13
:10EFE00039D0632E0CD0642E6CD116E0702E4CD02C
:10EFF000732E3ED0752E1FD0782E63D12AE065E0A7
:10F000002168081D2060D1F8009009F0FF000190F0
:10F0100050460199FCF7D4F955E000BF2168081D5E
:10F020002060D1F800905B460A2249465046CDE95F
:10F030000087FEF799FC46E02168081D2060D1F8A2
:10F0400000905B460A2249465046CDE9008706F00B
:10F0500021FF38E000BF2168081D2060D1F8009032
:10F060005B46102249465046CDE9008706F012FF64
:10F0700029E02168081D2060086801903B4642464F
:10F080005046019906F0CEFB1DE02168081D206066
:10F09000D1F8009030215046FCF792F97821504683
:10F0A000FCF78EF9002008210B461022CDE9001054
:10F0B0004946504606F0EEFE05E025215046FCF795
:10F0C0007FF900E000BF00BF6D1C03E031465046F1
:10F0D000FCF776F9287800287FF41AAF00BF9AF879
:10F0E0000C0010B15046FFF7FCFE00BF0DE700001A
:10F0F000F8B504460E4615461F4600BF7CB90E20E3
:10F100003849394A891AC9080122009042EA014067
:10F11000364B37A238A100F085FE0E20F8BD00BFA7
:10F1200000BF206878B908202E492F4A891AC908DB
:10F130000122009042EA01402C4B3AA22EA100F09D
:10F1400071FE0820EAE700BF00BF7DB9092025490C
:10F15000254A891AC9080122009042EA0140234B3E
:10F1600033A225A100F05EFE0920D7E700BF00BF53
:10F1700031462046FAF75DFD78B9102019491A4A40
:10F18000891AC9080122009042EA0140174B29A2BE
:10F1900019A100F047FE1020C0E700BF00BF606863
:10F1A000006800FB05F231462046FAF758FD78B9B1
:10F1B00010200C490C4A891AC9080122009042EA21
:10F1C00001400A4B254A0CA100F02CFE1020A5E7B7
:10F1D00000BF20683B462A463146D0F810C0204682
:10F1E000E0479BE7E0870200508702003B6B02008C
:10F1F000705F667300000000257320636865636BB1
:10F20000206661696C656420696E20257328292059
:10F21000776974682076616C756520307825782E62
:10F2200000000000705F66732D3E705F61706900C2
:10F230006C656E00616464725F69735F70616765BD
:10F240005F616C69676E656428705F66732C2070FF
:10F250006167655F6164647229000000747F020069
:10F26000F8B504460D46164600BF7CB90E20154978
:10F27000154A891AC9080122009042EA0140134B3D
:10F2800013A215A100F0CEFD0E20F8BD00BF00BFF7
:10F290007DB90E200B490C4A891AC9080122009039
:10F2A00042EA0140094B17A20BA100F0BBFD0E2062
:10F2B000EBE700BF25602068314602682046904792
:10F2C000E3E70000E087020050870200F06A0200D6
:10F2D000705F667300000000257320636865636BD0
:10F2E000206661696C656420696E20257328292079
:10F2F000776974682076616C756520307825782E82
:10F3000000000000705F617069000000024601208B
:10F31000044B58741846007A08B901207047002041
:10F32000FCE70000A024002070B504460D46012C27
:10F3300001D0032C0BD1002005494874012C01D1C8
:10F34000012000E000200249087404F065FC70BD53
:10F35000A024002070B504460E46022C02D0032CD7
:10F3600000D070BD1C48007A20B1012803D00228CB
:10F3700026D101E0F5E723E00025022C02D0032C82
:10F380000CD105E01548006802F0D0F9054606E00A
:10F390001248006802F0B8F9054600E000BF00BF5F
:10F3A0006DB100200C490872022C00D100E00D2044
:10F3B00001460A480068FCF7CBFD04F085FB00BF5E
:10F3C00000BF0548407C10B904F026FC01E001F0C4
:10F3D000A3F900BFC5E70000A0240020101C0020F6
:10F3E0002DE9F84304460F4616461D46DDF82080F9
:10F3F00000BF84B90E205949594A891AC908012207
:10F40000009042EA0140574B57A259A100F00AFD73
:10F410000E20BDE8F88300BF00BF7EB90E204F4923
:10F420004F4A891AC9080122009042EA01404D4B17
:10F430005AA24FA100F0F6FC0E20EAE700BF00BF81
:10F44000206878B908204549454A891AC908012227
:10F45000009042EA0140434B52A245A100F0E2FC79
:10F460000820D6E700BF00BF7DB909203B493C4AD0
:10F47000891AC9080122009042EA0140394B4CA286
:10F480003BA100F0CFFC0920C3E700BF00BF6068CC
:10F490004068B5FBF0F100FB115078B109202F490D
:10F4A0002F4A891AC9080122009042EA01402D4BD7
:10F4B00040A22FA100F0B6FC0920AAE700BF00BFC0
:10F4C0003846FAF7AEFB78B910202449244A891A45
:10F4D000C9080122009042EA0140224B40A224A127
:10F4E00000F0A0FC102094E700BF00BF3046FAF700
:10F4F00098FB78B910201949194A891AC9080122BC
:10F50000009042EA0140174B3BA219A100F08AFC8F
:10F5100010207EE700BF00BF2A4639462046FAF792
:10F520009EFB78B910200D490D4A891AC90801229D
:10F53000009042EA01400B4B38A20DA100F072FC92
:10F54000102066E700BFCDF8008020682B463246C9
:10F550003946D0F80CC02046E0475AE7E087020061
:10F5600050870200286B0200705F66730000000085
:10F57000257320636865636B206661696C65642030
:10F58000696E202573282920776974682076616C5C
:10F59000756520307825782E00000000705F73724A
:10F5A00063000000705F66732D3E705F61706900DC
:10F5B0006C656E0021286C656E202520705F667377
:10F5C0002D3E705F666C6173685F696E666F2D3E7D
:10F5D00070726F6772616D5F756E697429000000EB
:10F5E000616464725F69735F616C69676E656433DF
:10F5F0003228646573742900616464725F69735FA3
:10F60000616C69676E65643332282875696E74337E
:10F61000325F7429705F73726329000061646472E1
:10F620005F69735F77697468696E5F626F756E6436
:10F630007328705F66732C20646573742C206C656E
:10F640006E290000F0B5DDE9054500BF4FF0A04789
:10F650003E4641EA420747EA830747EA042747EA6A
:10F66000054C06F5E06747F820C0F0BDF0B5DDE9D0
:10F67000054500BF4FF0A0473E4641EA420747EA32
:10F68000830747EA042747EA054C06F5E06747F891
:10F6900020C0F0BDF0B5DDE9054500BF4FF0A04743
:10F6A0003E4641EA420747EA830747EA042747EA1A
:10F6B000054C06F5E06747F820C0F0BD1CB50446D0
:10F6C0000020009003460122014601902046FFF7EA
:10F6D000CDFF1CBD1CB5044600200090034601224E
:10F6E000014601902046FFF7D5FF1CBD7CB50546BD
:10F6F0000C46002000902346024601460190284611
:10F70000FFF7B4FF7CBD7CB505460C460020009099
:10F7100023460246014601902846FFF7BBFF7CBD09
:10F720001CB50446002000900346012211460190BA
:10F730002046FFF79BFF1CBD1CB50446002000902F
:10F7400003460122114601902046FFF7A3FF1CBD8E
:10F7500010B50A4600BF4FF0A043194601F5E0631B
:10F7600053F8203023F4403401F5E06343F820409F
:10F7700053F8203043EA024401F5E06343F82040A7
:10F7800010BD000038B503460A4C246800941846A2
:10F790000BE05DF82040D4F8204514605DF820505F
:10F7A0001468C5F82045121D401C5C188442F0D82E
:10F7B00038BD0000FC69020001464A0900230AB96D
:10F7C0005B1E00BF00BF01F01F01012088401840F0
:10F7D00008B1012070470020FCE7014600BF4FF050
:10F7E000A040024600BFD2F81005C84000F001005A
:10F7F000704700BF4FF0A0410A46012303FA00F111
:10F80000C2F8081500BF704700BF4FF0A0410A467C
:10F81000012303FA00F1C2F8081500BF7047000089
:10F8200001460148084470470060004038B504466E
:10F830002046FFF7F5FF002101602046FFF7F0FFAB
:10F840000068009000BF38BD10B504462046FFF7A1
:10F85000E7FF0068012800D110BD0020FCE7000090
:10F8600001490860704700000463004070B5044619
:10F870000E46FAF727FE0546681C08B9284670BDF3
:10F88000E8B2E168087100BF0C48D0F8100430B944
:10F890000A48C0F810440020E16808600BE00748FF
:10F8A000D0F81004C0680068E16808600348D0F828
:10F8B0001004C06804602846E1E700009826002094
:10F8C0000121C26851717047704710B5F9F7ACFE5D
:10F8D00010BD704738B504460D4604484023044A1D
:10F8E00029460090204600F005F838BD114C020072
:10F8F000C02400202DE9F04F93B082460E461746F3
:10F900009846DDF87090304600F02FFC18210DA8C5
:10F91000F9F795FD0D97CDF83880CDF84890002582
:10F920002B46082207A9304600F03CFC0825099820
:10F930000A90BDF82000ADF82C00BDF82200ADF80B
:10F940002E0000208DF83100079800F003000128F8
:10F950001BD107984FEA902B0798C0F3C2008DF88F
:10F9600030000798C0F38314A2002B4601A930464B
:10F9700000F018FC05EB84050DA80AAB224601A98E
:10F980000090584600F030FB27E0079800F0030095
:10F99000022822D107984FEA905B0798C0F3C20073
:10F9A0008DF8300000BFBBF1080F01D2584600E0CF
:10F9B000082004462B46224605A9304600F0F2FBFB
:10F9C0002544ABEB040B0DAB0AAA214605A800F0B9
:10F9D00053FABBF1000FE6D100BF304600F0D3FB75
:10F9E00013B0BDE8F08F704710B50124204606F033
:10F9F000A3F810BD70B505460A4C20780A49085C8A
:10FA000018B1201D01F08EFB07E020780649085C44
:10FA100018B904F10C0001F0A9FA00BF002006F0AB
:10FA20008BF870BD241C0020841B002038B50446D0
:10FA30000D4604484023044A294600902046FFF71B
:10FA400059FF38BD954C02000025002010B5024634
:10FA50000B4C04EBC203012906D0022906D003296E
:10FA600006D0042908D105E0022007E0042005E0C3
:10FA7000187903E0587901E0002000BF00BF10BDF5
:10FA80005087020010B54FF0FF34FFF71EFF04212E
:10FA90000848FFF7EBFE04460648FFF711FFFFF7A3
:10FAA000A3FF04210448FFF7E1FE04460248FFF7E4
:10FAB00007FF10BD30870200408702002DE9F04F9C
:10FAC0008BB0FBF793FC18B100200BB0BDE8F08FB2
:10FAD0000020B749C1F8180400BF00BF00BFBFF342
:10FAE0004F8F00BF00BF00BF084680680A90B14832
:10FAF00004680A9820400C3101EB800A002500269A
:10FB00000020069000BF0AA95046FEF7BFF8A8B132
:10FB1000A748D0F8180488B9A54840680A998842CF
:10FB200005D8A3484068A24988600020CDE70A981C
:10FB300020409F490C3101EB800A00E000E0E2E741
:10FB400000BF00270BE00A98411C20400A91984909
:10FB50000C3151F8200007A941F827007F1C022F23
:10FB6000F1D3079800F0030002287CD10798800D9C
:10FB7000059050210798B1EB905F02DD0798800D4A
:10FB800000E050208146079869F39F50079009F1E3
:10FB9000080004900798C0F3C200069086480499B4
:10FBA00000F086FA0546002D5BD0284600F0DDFA0D
:10FBB0003346082207A9284600F005FB08360A98B4
:10FBC0002040611C081A4FEA8008C14535D9B8F1B8
:10FBD000000F06D00A98204075490C3101EB8000D7
:10FBE00001E073480C300390B8F1000F01D040469B
:10FBF00000E0484600F0FF0BB8F1000F02D06C485F
:10FC00000C3000E000200290B8F1000F02D0A9EB08
:10FC1000080000E00020C0B2019033465A46284652
:10FC2000039900F0D0FA5E44029828B13346284682
:10FC3000DDE9012100F0C7FA0CE00A9820405C4998
:10FC40000C3101EB800B33464A465946284600F0FA
:10FC5000BAFA00BF0598C01C0A9901EB90000A90FF
:10FC600000BF44E0FFE7079800F0030001283ED101
:10FC70000798C0F38310062803DA0798C0F38310AF
:10FC800000E00620079960F3891107910798C0F3F7
:10FC9000831000F102080798C0F3C20006904FEAF3
:10FCA0008801454800F004FA0546FDB1284600F0F9
:10FCB0005CFA3346082207A9284600F084FA083681
:10FCC00000270EE00A98421C20400A92384A0C3263
:10FCD00002EB800133460422284600F074FA361DF8
:10FCE0007F1C0798C0F38310B842EBD800BFE5B380
:10FCF0002F48D0F81084D0F8180418B1284600F026
:10FD000042FA31E019E04FF0000900BFD8F80C00CA
:10FD10004079012800D18146B9F1000F08D000BF19
:10FD2000D8F80000294602684046904700BF00BF4F
:10FD3000D8F80C00D0F8008000BFB8F1000FE2D175
:10FD4000284600F020FA0020059005A8FAF7EBF904
:10FD50001748D0F8180410B915490A9888609DF81A
:10FD60001400FAF7E7F900BF1DE0FFE71048D0F8EC
:10FD700010840AE0C146D9F80000816848468847E7
:10FD800000BFD8F80C00D0F80080B8F1000FF1D116
:10FD90000A490B4A891AC908022242EA014009A10C
:10FDA00000F01AF800BFFBF721FB80F001008CE6A1
:10FDB000982600205C1C002018880200F8870200AA
:10FDC000508702004261636B656E647320666C75D8
:10FDD000736865640000000070B504460D4600239A
:10FDE0001A462946204605F0A9FC70BDF8B505461F
:10FDF0000E461446009401236A463146284605F013
:10FE00009DFCF8BD2DE9FC4106460F4614461D46F3
:10FE10000094019502236A463946304605F08EFC6F
:10FE2000BDE8FC812DE9FE4306460F4614461D46FB
:10FE3000DDF8288000940195CDF8088003236A46F8
:10FE40003946304605F07AFCBDE8FE832DE9FF47D0
:10FE500006460F4614461D46DDE90C8900940195BF
:10FE6000CDF80880CDF80C9004236A463946304618
:10FE700005F064FCBDE8FF872DE9F05F07460E46FC
:10FE800090461D46082E01D9BDE8F09F95F80C90CC
:10FE9000002028732946404603F094FD00240CE01E
:10FEA000B44205D23A5D1DA12846FFF705F803E0EC
:10FEB0001CA12846FFF700F8641C082CF0D31AA1F7
:10FEC0002846FEF7F9FF00241DE0B44216D217F8C9
:10FED00004A0BAF17E0F09DCF9F794FA006810F873
:10FEE0000A0000F03E0008B1504600E02E20834694
:10FEF0005A460EA12846FEF7DFFF03E00CA1284674
:10FF0000FEF7DAFF641C082CDFD3012229464046A5
:10FF100003F026FD85F80C9000BFB5E720253032B0
:10FF200078000000202020007C00000025630000F5
:10FF3000200000002DE9F04106460F4600BF0020DA
:10FF400009490870094800F018F9044614B1204620
:10FF5000BDE8F081064800F086F906480649401AD7
:10FF6000C5080020F4E70000982600201888020049
:10FF7000246D0200188802005087020002480349DD
:10FF8000401AC0087047000018880200508702001D
:10FF900013B50C4621466846FEF752FA28B90448C4
:10FFA000009A00EBC20108681CBD0020FCE70000BD
:10FFB0005087020070B50B48D0F810440120094961
:10FFC00008700CE000BF0120E168487100BF2546C1
:10FFD000286841682846884700BFE0680468002C0C
:10FFE000F0D170BD982600202DE9FF4707460C464A
:10FFF000164698460C9D95F80C90002028732946CB
:020000040002F8
:10000000404603F0DFFC072E47D2DFE806F0040984
:100010000F161F2A370039462846FEF74DFF3DE0F0
:10002000394628462268FEF747FF37E0394628461A
:10003000D4E90023FEF740FF30E0A0680090394685
:100040002846D4E90023FEF737FF27E0D4E9020170
:10005000CDE9000139462846D4E90023FEF72CFFFC
:100060001CE0D4E902122069CDE900120290394661
:100070002846D4E90023FEF71FFF0FE0D4E902234E
:10008000D4E90410CDE90023CDE902103946284611
:10009000D4E90023FEF710FF00E000BF00BF0022FC
:1000A0002946404603F05CFC85F80C90BDE8FF87CC
:1000B0002DE9F84F07468A46388AA0F104080AF16C
:1000C00004004044401EB0FBF8F0C0B20090384637
:1000D000FEF7C8FC044614B90020BDE8F88F0020E4
:1000E000207101216171A4F8068025460098A0F1D5
:1000F000010B2C462F604FF0000912E03846FEF746
:10010000B1FC064636B16079401C60712E603760E4
:10011000354604E0204600F008F80020DDE709F14C
:100120000109D945EAD32046D7E72DE9F05F044617
:10013000274697F805802646A8F1010B002501E027
:1001400036686D1C5D45FBD3D6F800A02646002519
:1001500007E0D6F8009031465046FEF7B4FC4E4614
:100160006D1C4545F5D3BDE8F09F70B504462546A6
:100170000121281DFEF71EFC70BD10B50446204667
:10018000FEF7BFFC10BDF8B5044626460121301D20
:10019000FEF75DFC00906D46287810B92046FFF709
:1001A000C4FFF8BD2DE9FC4105460E4614461F4626
:1001B000019401203B4601AA314600902846FEF7F3
:1001C000DAF8BDE8FC812DE9FC4105460E461446EF
:1001D0001F46019400203B4601AA31460090284664
:1001E000FEF7C9F8BDE8FC8100BF00BF00BFBFF348
:1001F0005F8F00BF00BF00BF00210160704700009B
:1002000010B500200A49087000BF0A49086000BF05
:1002100000BF00BF00BFBFF35F8F00BF00BF00BFC4
:1002200000BF0549054800F0B8FA002010BD0000E5
:10023000201C00201C1C0020986B0200B42400200D
:1002400010B500F063FA10B141DF044602E020BFB0
:1002500040BF20BF10BD10B5044600BF2046F9F7CF
:10026000E1FE00BF10BD00218268916082681161CB
:10027000826851618268D1608268516082681160D1
:100280007047024602F5A86050F82100704700F55B
:10029000A86343F8212070470146D1F80405704750
:1002A00008B5002242504258009200BF08BDC0F875
:1002B00048137047C0F844137047C0F808137047DC
:1002C000C0F804137047012242507047014609B933
:1002D0000E2070470248006808600020F9E700001F
:1002E000B46D0200FEB506460C462046FFF7EEFF51
:1002F00005460DB12846FEBD0020009001900290F9
:100300008DF8006001208DF802000621ADF8041080
:1003100069462020226869DF054675B1284600F04D
:10032000CBFA07463D493E4A891AC908012242EAEA
:1003300001403A463B49FFF759FD002000900190EB
:10034000029001208DF8010069464020226869DF93
:10035000054675B1284600F0AFFA07462F49304AE6
:10036000891AC908012242EA01403A462E49FFF79C
:100370003DFD00200090019002908DF8000069463C
:100380000120226869DF054675B1284600F094FA1D
:1003900007462249224A891AC908012242EA014035
:1003A0003A462249FFF722FD00200090019002907A
:1003B0004FF4B06000906946A120226869DF0546CD
:1003C00075B1284600F078FA07461449144A891A8C
:1003D000C908012242EA01403A461549FFF706FDE5
:1003E000002000900190029001208DF800006946E5
:1003F000A020226869DF054675B1284600F05CFA46
:1004000007460649064A891AC908012242EA0140FC
:100410003A460849FFF7EAFC00206CE7088802002A
:10042000508702000C850200548502006C84020093
:10043000B8840200188402002DE9F04104462568C2
:10044000204660DF06462068A84225D91E491F4A7B
:10045000891AC908022242EA01401DA1FFF7BCFC2B
:1004600019491A4A891AC908022242EA01402A4651
:1004700023A12368FFF7C6FC03F030FC2168471A6C
:100480001149124A891AC908022242EA01403A4631
:1004900028A1FFF7ABFC00E000BF1EB901203049E6
:1004A00008700EE0304600F007FA07460649074A92
:1004B000891AC908012242EA01403A4629A1FFF7F8
:1004C00095FC3046BDE8F0810888020050870200A4
:1004D000496E73756666696369656E742052414D35
:1004E00020616C6C6F636174656420666F72207448
:1004F000686520536F66744465766963652E0000F5
:100500004368616E6765207468652052414D2073B1
:1005100074617274206C6F636174696F6E206672AF
:100520006F6D203078257820746F20307825782EF4
:10053000000000004D6178696D756D2052414D20BD
:1005400073697A6520666F72206170706C6963618F
:1005500074696F6E20697320307825782E00000052
:10056000A31C002073645F626C655F656E61626CE2
:100570006528292072657475726E65642025732E56
:10058000000000002DE9F04192B080461748007845
:1005900010B912B0BDE8F0811CE03420049004A929
:1005A00005A861DF044604B115E005AD104901A8B6
:1005B00000F0F3F809E000BF0398064637682846C4
:1005C0007168B84701A800F009F900BF0398002836
:1005D000F1D100BFE1E700BF052C04D000BF2046E9
:1005E000F9F720FD00BF00BFD3E70000A31C0020E7
:1005F000A86D020038B51648007808B9082038BD43
:1006000001201449087004F025F8112801D10020B8
:10061000F5E7022004F03CF8002000906846F9F766
:1006200082FD11DF04460020094908709DF8000092
:10063000F9F780FD0CB12046E1E70020054908707C
:1006400004F0CEFF032004F023F80020D7E70000D9
:10065000A01C0020A21C00201CB51B48007808B17B
:1006600008201CBD012019490870002003F0F2FF8A
:10067000112801D10020F4E7002004F009F8144803
:1006800000680190002000906846F9F74CFD114980
:1006900001A810DF04460CB9012000E000200A493F
:1006A00008709DF80000F9F745FD0CB12046D8E729
:1006B0000020064908700849087004F0A0FF0120D6
:1006C00003F0E6FF0020CCE7A01C0020A21C0020C5
:1006D000846D0200699F0100A11C00203EB50A49FB
:1006E000684600F05AF809E0684600F053F80446FE
:1006F00025686068A847684600F070F8684600F012
:1007000049F80028F0D13EBD786D0200014800781C
:1007100070470000A01C002010B50748007808B9F9
:10072000082010BD0548007810B1FFF763FFF8E717
:10073000FFF792FFF5E70000A21C0020A01C00209C
:100740002DE9FF41074618E003A84BDF044604B13A
:1007500014E00F49684600F020F809E000BF029855
:1007600005462E6869680398B047684600F036F879
:1007700000BF02980028F1D100BFE5E700BF052CBB
:1007800004D000BF2046F9F74DFC00BFBDE8FF8153
:10079000C86D020001468868704770B504460D4672
:1007A000256028686060204600F001F870BD14E004
:1007B000D0E900215268914202D100218160704746
:1007C0004168096842685268914203D041680968EB
:1007D0008160F4E7416808314160E9E710B50446FB
:1007E000A06800B910BD2168A06889680844A060AD
:1007F000D4E901104968884205D16068083060601A
:100800002046FFF7D4FF00BFECE770B505460E4663
:100810006C6806E020683146AA68904700B903E09A
:10082000246820680028F5D100BF20683060266069
:1008300070BD014648680068704701464A68106804
:100840004A68126822B14A68126812684B681A60D6
:10085000704710B503460A460020596807E00C6847
:10086000944203D114680C60012003E009680C680D
:10087000002CF4D100BF10BD70B502460D4B03F53E
:10088000947413E0E61AF01000EBD076761003EBC8
:10089000C6010D68954201D90C4606E0954202D288
:1008A00001F1080301E0486870BD00BFA342E9D32D
:1008B0000020F9E7B86B020030B504462046FFF788
:1008C000DBFF05460DB9024830BD2846FCE70000B5
:1008D000A46B02000146D1F88004C1F8800470477F
:1008E0000246505808B1012070470020FCE708B5C7
:1008F000002242504258009200BF08BDC0F80815BF
:100900004FF4A2631A507047C0F808137047C0F83C
:10091000041370470246D2F80403084008B10120CE
:1009200070470020FCE701224250704740F2145308
:100930001A5040F20C53195070470146D1F8800408
:10094000C1F8800470470246505808B10120704732
:100950000020FCE708B5002242504258009200BF38
:1009600008BDC0F808154FF4A2631A507047C0F8CC
:1009700008137047C0F804137047014640F23C501A
:1009800040587047D0F800228A43C0F800227047D0
:10099000012242507047014640F24C504058704787
:1009A00040F20C53195040F214531A507047000093
:1009B0000348006808B1012070470020FCE70000F0
:1009C0000004014010B500F0A1F9012001490860C0
:1009D00000BF10BD1805004001460020054A1279ED
:1009E0000AB1852004E0034A11600122014B1A710B
:1009F00070470000881B002010B50220FEF7CEF9DA
:100A00004FF48270FEF7C0F90C20FEF7CDF900BF5D
:100A100000BF03480068C0F300400028F8D110BDB3
:100A20001804004070B5044604B970BD024EA5011B
:100A30002846B04700BFF8E7C16A02000146080B2C
:100A400040B270470146080B40B270470146080BA0
:100A500040B270470146080B40B270472DE9F0479D
:100A600006460D46304601F049FEF0B13046FAF731
:100A7000AFFDA0F10808404602F06AFF0446032CCF
:100A800008D13046FEF7A9FE08B1032000E002209D
:100A9000074605E0012C01D1022000E003200746B3
:100AA00039463046FEF754FE2AE0304601F032FE69
:100AB00030B33046FAF78CFD0446A00000F5807094
:100AC00087B220460F4951F8201041F001020D492C
:100AD00041F8202000BF3846FEF7A8FE7DB1304621
:100AE000FAF776FD8146FAF72BFD8046B8F1000F44
:100AF00004D0012101FA04F0FEF7B2FE00BF00BFEE
:100B0000BDE8F087106500402DE9FC4704460E461D
:100B100017464FF00008204601F0E2FD10B14FF0FB
:100B2000080862E0B078C0F3400239462046FAF780
:100B30000FFD0546681C002854D0B078C0F3800033
:100B400020BBB07800F0010080B100BF00BF4FF0C3
:100B5000A042104600F5E06252F8242022F0020183
:100B600000F5E06242F8241000BF0CE096F8019016
:100B7000002000904B460246014601902046FEF7B9
:100B800061FD00BF00BF204601F09AFDB078C0F3C0
:100B90004000D0B13078164951F82510154A11405F
:100BA000134A42F82510114651F825104FF4F85217
:100BB00002EA04224FF4403303EA00431A4311438C
:100BC0000B4A42F8251000BF0EE0A5F108000A49C3
:100BD000085C317840EA811042B2A5F1080006496C
:100BE0000A5401E04FF0040800BF4046BDE8FC870E
:100BF00010650040FFE0FCFF1422002010B5044601
:100C00002046FEF7EAFD08B1012010BD0020FCE7F8
:100C10002DE9F0412F4890F8580018B108263046C9
:100C2000BDE8F081002408E02046FEF7C5FD10B1C4
:100C3000204601F07FFD601CC4B2202CF4DB0024B0
:100C400004E02046FAF76CFC601CC4B20C2CF8DB04
:100C50002048002141652048FFF7F4FE054606279D
:100C600028463946002804DB4A07130E1B4A135452
:100C700008E04A074FEA126C194A00F00F031B1FE5
:100C800002F803C000BF00BF1348FFF7DBFE0546B4
:100C9000284600280DDB00BF00BF00F01F02012125
:100CA00091404209920002F1E022C2F8001100BF17
:100CB00000BF00BF00BF4FF4BE70FEF7B7FD4FF09E
:100CC0000040FEF7CDFD0120024981F858000026C2
:100CD0003046A5E7C42100200060004000E400E0A9
:100CE00018ED00E0034890F8580008B10120704763
:100CF0000020FCE7C4210020014601F06040B0F173
:100D0000005F01D1012070470020FCE72DE9F04190
:100D100006254FF08040FFF791FE04462046E2177B
:100D200004EBD2625211920002F1E022D2F80021CB
:100D30002146E31704EBD3635B11A4EB43160123B5
:100D4000B3401A400AB1012200E0002282BB4FF0FA
:100D50008040FFF773FE04462E46204631460028A9
:100D600004DB4A07130E134A135406E04A07170E12
:100D7000114A00F00F031B1FD75400BF00BF4FF0F4
:100D80008040FFF75BFE0446204600280DDB00BFD5
:100D900000BF00F01F02012191404209920002F1C0
:100DA000E022C2F8001100BF00BF00BF00BF00BFBB
:100DB000BDE8F08100E400E018ED00E02DE9F84323
:100DC00007460E46384602F04FFE0446D4B14FF0B7
:100DD0000008002000906846F9F7A5F9207910B1C5
:100DE0004FF0010802E02660012020719DF800000C
:100DF000F9F7A0F9B8F1000F03D011252846BDE896
:100E0000F88300BF00252846F9E770B50546284657
:100E100002F02AFE044614B100202060207170BD4B
:100E200010B50249024804F0B9FE10BD202200208E
:100E3000002000402DE9F04105460E46174628796E
:100E400000EB400101EBC0001A4901EB80044FF0B8
:100E5000000894F82A0020B14FF008084046BDE889
:100E6000F0812A79144B53F822102868FFF7A6FF67
:100E700018B14FF011084046F1E731462846F9F71E
:100E8000A7F9676030692060606818B1317F284633
:100E9000FCF758FE28680421C0F8001500BF0020A8
:100EA000A061E06184F829006061012084F82A00D3
:100EB0004046D4E7202200204C6A02002DE9F04190
:100EC00004460F469046207900EB400101EBC0003C
:100ED0001C4901EB8005204600F036F818B11126B8
:100EE0003046BDE8F081C5F81480AF60002028626C
:100EF00085F8280000264FF48E712068FFF7F7FC74
:100F000008212068FFF70FFD2946206804F0A4FDA2
:100F10006868A0B92946206804F083FD08B90F2647
:100F20000BE000BF4FF48E712068FFF7D9FC00285A
:100F3000F8D00C212068FFF7F6FC002068613046ED
:100F4000CFE70000202200200146087900EB400294
:100F500002EBC000044A02EB8000406908B10120A6
:100F600070470020FCE700002022002070B50446F6
:100F7000207900EB400101EBC0000C4901EB80053A
:100F800020680021C0F8001500BF686810B1204635
:100F9000FCF780FD204601F0D3FB2068FFF735FF0A
:100FA000002085F82A00686070BD00002022002023
:100FB00010B50249024804F0B5FE10BD4C220020D5
:100FC000002000402DE9F04105460E4617462879DD
:100FD00000EBC000194901EB80044FF0000894F8C1
:100FE000200020B14FF008084046BDE8F0812A7982
:100FF000134B53F822102868FFF7E0FE18B14FF0AA
:1010000011084046F1E731462846F9F71FF96760B5
:1010100030692060606818B1317F2846FCF7DCFD3C
:1010200028680821C0F8001500BF0020A061E06119
:101030006061012084F820004046D6E74C22002061
:101040007C6A02002DE9F0470446884691462079E3
:1010500000EBC0002A4901EB80054046FFF74CFE3B
:1010600018B910263046BDE8F087204600F04AF84F
:1010700010B111263046F6E7C5F81490C5F808807F
:1010800000264FF490712068FFF764FC4FF4AC71B8
:101090002068FFF75FFC20686A69A968C0F84415FA
:1010A0004FF4A9631A5000BF08212068FFF770FCB5
:1010B000686818BB00BF4FF490712068FFF743FCCD
:1010C00082464FF4AC712068FFF73DFC0746BAF149
:1010D000000F01D1002FEED00FB10F260BE00C2135
:1010E0002068FFF755FC00BF4FF4AC712068FFF794
:1010F0002AFC0028F8D00020686100BF3046B2E723
:101100004C2200200146087900EBC000044A02EBA3
:101110008000406908B1012070470020FCE7000012
:101120004C22002070B50546287900EBC00021490B
:1011300001EB80042E68606810B12846FCF7D6FCED
:1011400020213046FFF71EFCA06940B14FF4A27188
:101150003046FFF7FFFB04213046FFF719FC4FF440
:10116000AC713046FFF7F6FB0C213046FFF710FC60
:1011700000BF4FF4AC713046FFF7E5FB0028F8D014
:10118000A06930B14FF4A2713046FFF7DCFB0028B4
:10119000EFD000BF0020C6F8000500BF284601F0D0
:1011A0000EFB3046FFF731FE002084F8200060601F
:1011B00070BD00004C22002070B50546CDB1032D56
:1011C0001AD10F490F4A891AC908032242EA01407D
:1011D0000DA1FEF701FE0220FAF73CF8044600BF1D
:1011E000264626B100BF3046F8F71CFF00BF00BFFF
:1011F00003E003F0A1FF00E000BF00BF70BD0000EE
:10120000F88702005087020046617374206164769B
:101210006572746973696E672E00000010B504462C
:10122000FBF770FF014A03C210BD0000C81B00207D
:1012300010B504460548006830B10448006804F061
:1012400031FB00200149086010BD0000B81B0020E0
:1012500070B50546287868B93B210748008876DFD5
:10126000044600BF264626B100BF3046F8F7DAFE36
:1012700000BF00BF70BD0000401A002070B50546D9
:10128000AE883046FCF75AFB044674B14FF6FF7344
:1012900040F2F31205F1080104F10A00FCF724FD05
:1012A000607221463046FAF7C7FA70BD2DE9F04169
:1012B0000546EF7BAE88012F01D0BDE8F0814FF6E7
:1012C000FF70FCF73BFB04461CB9042003F010FC44
:1012D000F3E700BF2680002020720E480168C4F8A2
:1012E0000A104068C4F80E0000BF4FF6FF7340F2CA
:1012F000F31205F1100104F10A00FCF7F5FC60722D
:101300000548C08918B921463046FAF795FA00BF5A
:10131000D3E700005C1A0020341E0020CA7B012A9B
:1013200002D18A88A0F8E820704700002DE9F04734
:1013300007468846B8F8046006EB4601B81D00EB86
:10134000410498F80F00012802D13888208000E07D
:1013500000BF00BF20886188884232DD22881A4998
:101360001A4BC91AC908042343EA0140334618A19D
:10137000FEF748FD21883046A5DF054615B9012056
:1013800060711EE0112D0DD1012020710E490F4A10
:10139000891AC908042242EA014032461C49FEF774
:1013A00025FD0EE02846FFF787FA81460649074AE1
:1013B000891AC908012242EA01404A4615A1FEF7EE
:1013C00015FDBDE8F0870000688702005087020025
:1013D00052657175657374696E6720746F207570DE
:1013E0006461746520415454204D545520746F201D
:1013F0002575206279746573206F6E20636F6E6E41
:10140000656374696F6E20307825782E00000000C7
:10141000E471020073645F626C655F67617474639A
:101420005F65786368616E67655F6D74755F72652F
:10143000717565737428292072657475726E6564A0
:101440002025732E000000002DE9F0410646B788E4
:101450003846FCF773FA05466DB16868F8F759FE2F
:10146000044614B1204603F043FB00BF4FF6FF7063
:10147000288000BF00BFBDE8F08170B504460E466D
:10148000002084F8F200B088B4F8E81088420CD14B
:10149000207950B901212046F9F7F0F9054625B128
:1014A000A06B10B12846A16B884770BD70B504468B
:1014B0000D46A98801EB4102A11D01EB4200FCF79A
:1014C00099FC70BD2DE9FC4706460F46BD88B7F86C
:1014D000069005EB4501B01D00EB41042B492C4A59
:1014E000891AC908042242EA01404B462A4629A12A
:1014F000FEF788FCB9F1170F01DA172000E0484623
:1015000081462088484501DD484600E0208860800B
:10151000002020710095238862881C49DFF870C084
:10152000A1EB0C01C9084FF0040C4CEA014028A1C2
:10153000FEF778FC21882846B5DF8046B8F1000F19
:101540000ED04046FFF7B8F982461049104A891A72
:10155000C908012242EA014052462DA1FEF746FC8D
:10156000607908B1BDE8FC87F06868B1344903C907
:10157000CDE90001ADF802506088ADF8040069467D
:101580003046F268904700BF00BFEBE76887020073
:101590005087020050656572206F6E20636F6E6E1B
:1015A000656374696F6E2030782578207265717577
:1015B000657374656420616E20415454204D545508
:1015C000206F662025752062797465732E000000F7
:1015D0005570646174696E6720415454204D5455B0
:1015E00020746F20257520627974657320286465E6
:1015F00073697265643A20257529206F6E20636FC8
:101600006E6E656374696F6E20307825782E0000E9
:1016100073645F626C655F67617474735F65786340
:1016200068616E67655F6D74755F7265706C79284F
:10163000292072657475726E65642025732E000012
:10164000EC6802002DE9FC4105460E46B788B6F865
:101650000A8007EB4701A81D00EB410420884045A4
:1016600001DD404600E0208860806088172801DAAC
:10167000172000E06088608062881149114BC91A08
:10168000C908042343EA01403B460FA1FEF7BAFB19
:10169000E86878B1607968B11A4903C9CDE90001F9
:1016A000ADF802706088ADF8040069462846EA6823
:1016B000904700BF002060712071BDE8FC810000F0
:1016C0006887020050870200415454204D54552031
:1016D0007570646174656420746F2025752062796B
:1016E000746573206F6E20636F6E6E656374696FCF
:1016F0006E20307825782028726573706F6E736560
:10170000292E0000E468020001460748C068401C1A
:10171000054AD0601046C068082803D90020D06070
:10172000012070470020FCE7A02400200146002093
:10173000154AD060087910B1012821D116E0D1E90D
:101740000530181AB0F5805F03D2D1E90530181AB8
:1017500001E04FF480500246886983188B61D1E91B
:101760000503834201D1012070470AE00869401C4B
:101770000861D1E90420824201D10120F4E700E0B0
:1017800000BF00BF0020EFE7A02400200548D0E9FB
:1017900000304FF080729A1840F100000149C1E911
:1017A00000207047C01B00202DE9FF4106460D4672
:1017B00028887188884201D0BDE8FF81AC1C207860
:1017C000022800D0F8E7207A042806D0207A0628DC
:1017D00003D0207A052800D0EEE700200090019089
:1017E0000290039002208DF800004FF4C070ADF815
:1017F0000400207A052802D10020ADF804002888D2
:101800006946B0DF074617B138467168884700BFA0
:10181000D2E72DE9F04104460D462888262801D05C
:10182000BDE8F081287A012802D0287A02280ED15A
:10183000A078F8F765FA074639462046F9F71EF80A
:10184000064626B1A06B10B13046A16B884700BF99
:10185000E6E7704770B504460D462879012808D19F
:1018600028886188884204D101202072204604F033
:10187000DBFB70BD2DE9F0410446A51D2888124907
:10188000C98988421DD1688902281AD1B4F8048018
:101890004046FCF753F8064696B105F10C00F9F7FF
:1018A00071FB20B131464046F9F7C6FF08E0706889
:1018B000F8F72FFC074617B1384603F019F900BFB7
:1018C00000BFBDE8F0810000341E0020014608681A
:1018D000401C28B1094A0868904201D00020704796
:1018E000012206E051F82200401C08B10020F6E772
:1018F000521CB2F5806FF5D30120F0E7DEC0ADDEFB
:1019000030B5024648F20963002015E000EB800480
:101910000C4D05EB840464688C420BD200EB800410
:1019200005EB8404646804F580548C4202D90023DA
:10193000108003E0441CA0B20228E7DB00BF184679
:1019400030BD0000C0230020024602EB82000A4B9B
:1019500003EB80000089084481B202EB820003EBB4
:1019600080004089084481B2B1F5806F01DC01201C
:1019700070470020FCE70000C0230020014619B199
:10198000084A0868904201D003207047064A486818
:10199000104410B1012802D1F7E70020F5E7032039
:1019A000F3E70000DEC0ADDE02FEE10E8A7D022A12
:1019B00004DD0389CA88D21C1A4402814389CA887B
:1019C000D21C9A1A428170472DE9F04705460C4611
:1019D000174605F580590835022020802E4625E05F
:1019E00049463046FBF704FD8046B8F1000F08D1A8
:1019F0001249B068096888420ED91049B068086079
:101A00000AE00FB101203870B8F1020F04D14FF491
:101A100080602080BDE8F08721887088C01C084461
:101A200020803046FBF707FD064600BF494630469A
:101A3000FBF7F6FC0028D3D100BFEBE7F01B00203A
:101A400038B5044600200823034A21460090034885
:101A5000FDF7C6FC38BD0000D46A0200A81C0020B7
:101A600008B50020009004480823044A016804488F
:101A7000FDF7B6FC08BD0000F41B0020CC6A020094
:101A8000A81C00202DE9F047002600244FF0030891
:101A9000A14600279CE05348C06800EB0735284664
:101AA000FFF76CFF8246BAF1000F40D0BAF1010F88
:101AB0005ED0BAF1030F7DD12846FFF707FF18B3B8
:101AC00049480068B0B1022004EB8401474A02F89B
:101AD000210004EB8400114601EB800045600220E8
:101AE00004EB840102EB8101088141484480601CC1
:101AF00084B206E03C48056002203B4988804FF0F4
:101B0000010946F0010611E0A8F101001FFA80F872
:101B100004EB8400354901EB80004560032004EBB1
:101B20008401324A02F82100601C84B24DE000209A
:101B300004EB84012D4A02F8210004EB84001146D5
:101B400001EB8000456004EB84000B4603EB800052
:101B500000F1100204EB840003EB800000F10801A7
:101B60002846FFF731FF46F00206601C84B22CE0E5
:101B7000B9F1000F16D0022004EB84011B4A02F8D1
:101B800021001948006804EB840102EB81014860E0
:101B9000022004EB840102EB810108811448448097
:101BA000601C84B2104805600022011D2846FFF722
:101BB0000BFF00E008E00C488088022801D10420D7
:101BC00000E00820064300E000BF00BF781C87B299
:101BD000032FFFF660AFB8F1020F00DA0026F0B273
:101BE000BDE8F087A81C0020F41B0020C0230020C3
:101BF000E823002010B50446024801782046F8F793
:101C0000B7FF10BD5E1B00202DE9F04704460E46CD
:101C10001746002500BF184801782046F8F7A8FFAE
:101C200008B1012000E00220804604F5807188B2EE
:101C3000072100F0C1F90546ADB1052D13D02846A6
:101C4000FEF73AFE81460D490D4A891AC90801225C
:101C500042EA014023464A460A49FEF7D3F829469C
:101C6000204602F09FFF3B46324641462046F9F7A8
:101C70000DFEBDE8F08700005F1B0020908702008A
:101C800050870200B47B020030B585B004460D4693
:101C900002208DF800002088ADF802006079C0F3C2
:101CA000800008B1012000E002208DF808008DF8C6
:101CB00009506846FAF7C2FA05B030BD70B504465F
:101CC0000D460021204603F05DFC70BD70B586B066
:101CD00004460D4616462246052101A8FCF774FC71
:101CE0000395049601A8FAF7BDFA06B070BD00008E
:101CF00070B50546002405E0044850F82410284635
:101D00008847641C042CF7D370BD00000C690200E6
:101D10007CB5FBF79BFE00BF50200421104B8200D6
:101D2000CDE900100F49104800F0B9FD044600BF8E
:101D300084B12046FEF7C0FD05460C490C4A891ABD
:101D4000C908012242EA01402A460AA1FEF74EF8DC
:101D500003207CBD01200F4908700020F9E7000036
:101D6000941A0020E41F0020A41F0020788702009E
:101D700050870200504D5F4255464645525F494EDE
:101D8000495428292072657475726E656420257324
:101D90002E000000901A00202DE9F0410546012692
:101DA0000027E86804F0AAFB04462878082804D035
:101DB000092809D0132818D115E0687A18B914B188
:101DC000204604F0CDFB11E0687A58B954B10020E8
:101DD0006060A07A20F00200801CA07201200849F7
:101DE0000870002602E0012700E000BF00BF16B126
:101DF0002846FFF77DFF384601F0B8FFBDE8F081C7
:101E0000911A002070B504460D461646002332464E
:101E10002946204600F0B6F970BD00002DE9FC41CE
:101E200005460020019001A9284604F04DFB064616
:101E300024E0B178284600F0BFF80446B4B1052C80
:101E400014D02046FEF738FD0746B0781A491B4AE1
:101E5000891AC9080122009042EA01402B463A46FD
:101E60001749FDF7DFFF0320BDE8FC810198401C06
:101E7000019001A9284604F027FB0646002ED8D180
:101E8000284600F03DFA04460CB1072C01D120464B
:101E9000EAE72046FEF710FD07460749074A891A78
:101EA000C908012242EA01403B462A460549FDF79E
:101EB000A9FF0320D8E700007887020050870200BE
:101EC00094730200EC7302002DE9F84380460D463E
:101ED00014461E4600BF16B90E20BDE8F88300BFA9
:101EE00000BF072D03D0082D01D00720F5E700BF64
:101EF0000CB1042C01D90720EFE74FF00009294667
:101F0000404604F0BBFA0090009840B92A4641468A
:101F1000684604F0A1FA009838B91120DDE700986E
:101F2000007AA04201D00F20D7E70098407AFF281E
:101F300010D121461C4800F081FC0099487200989D
:101F4000407AFF2804D1009804F0F7FA1120C4E782
:101F50004FF0010900990C720098417A124800F084
:101F6000B3FC07466FB900994A7A1049104BC91A59
:101F7000C908012343EA01400E49FDF737FF03205A
:101F8000ABE7A3B23A462946304600F069FAB9F108
:101F9000000F07D0082D05D130880621C1EB800045
:101FA00071688880002098E7A41F002078870200CD
:101FB000508702002073020070B505460E46314678
:101FC000284604F05BFA04460CB9052070BD204693
:101FD00004F0C6FA0020F9E72DE9F04107460D4666
:101FE000164600BF072D04D0082D02D00720BDE8FB
:101FF000F08100BF304600F092F908B90720F6E7FB
:102000002946384604F03AFA04460CB90520EEE7B2
:102010002680A570204604F037F9E8E770B505463C
:102020004FF6FF706880002405E0044850F8241043
:1020300028468847641C002CF7D070BDF468020065
:1020400010B51648FAF7E4FA044664B11449154A83
:10205000891AC908012242EA014022461249FDF7C5
:10206000C5FE032010BDFAF7CFF9044664B10C4950
:102070000C4A891AC908012242EA014022460BA1F2
:10208000FDF7B4FE8620EDE700F04CFA00F073FA9D
:102090000120164908700020E4E7000085C2010015
:1020A000708702005087020038720200436F756C1F
:1020B00064206E6F7420696E697469616C697A65F9
:1020C00020666C6173682073746F726167652E207F
:1020D0006664735F696E697428292072657475720D
:1020E0006E656420307825782E000000841A002068
:1020F00010B50446204600F0EFF910BD10B50446B7
:10210000204600F0F3F910BD2DE9F04186B00646F7
:102110000F46144600BF304600F08AF918B9012076
:1021200006B0BDE8F08100BF304600F094F980466B
:102130000F4A03A94046FAF70CFA08B10020EFE76E
:1021400001A903A8FAF724FA05460DB10020E7E734
:10215000A670019840882080029860600199888864
:10216000FAF7ECFA388003A8FAF7B4F90120D7E7B8
:10217000881A002002480021016041607047000079
:10218000881A00202DE9F04786B080460F46144695
:102190001D4600BFB8F1FF0F03DD072006B0BDE804
:1021A000F08700BF00BF384600F042F908B90720A9
:1021B000F4E700BF03AA3946404600F019F9064685
:1021C0000EB10520EAE701A903A8FAF7E1F90646EE
:1021D0000EB10520E2E7A77001984088208015B96C
:1021E0000298606016E020884FEA800A20882968FB
:1021F000B1EB800F01D2286801E020888000814681
:1022000002994A466068F7F701F9D14501D20C20DE
:10221000C4E700BF03A8FAF75DF90020BEE700009D
:10222000F0B587B006460C46174600BFFF2E02DD0C
:10223000072007B0F0BD00BF00BFA07800F0F8F89D
:1022400008B90720F5E700BF304600F08FF9ADF878
:102250001000A07800F0FFF8ADF81200606805905B
:1022600021880691A17801AA304600F0C1F8054600
:10227000052D05D104A901A8FAF7C0F9054604E027
:1022800004A901A8FAF7ACF9054648F20661681AF4
:102290008D4216D006DC55B1A5F50640A0F102002E
:1022A00098B910E001280AD007280ED106E01FB126
:1022B000394601A8FAF761F90020BAE700BF1120FA
:1022C000B7E78620B5E71020B3E70749074A891A20
:1022D000C908012242EA014033462A460449FDF773
:1022E00091FD0320A5E700007087020050870200DF
:1022F0007C72020010B54FF6FF7000F0BFF810BD01
:1023000010B5044600BFFF2C01DD072010BD00BF43
:10231000204600F0BDF800F017F80020F6E710B5F1
:102320000446204600F006F910BD2DE9F0410546AF
:102330000E4617461C46A3B23A463146284600F0E0
:102340008FF8BDE8F0810000F0B585B00020244989
:102350000870009001904FF6FF7000F0BDF8054640
:1023600006E0284600F0AAF8284600F0B5F8054631
:102370004FF6FF7085420BD0284600F0F7F807466D
:102380006A4602A9FAF7EFF848F209618842E8D0F4
:102390004FF6FF70854220D0284600F0E7F8064649
:1023A0003046F9F7E9FF044648F20760844203D15A
:1023B00001200B49087010E07CB10A490A4A891AC9
:1023C000C908012242EA01402B4622460749FDF78F
:1023D00019FD2146284602F0D1FB05B0F0BD0000F2
:1023E000851A00207087020050870200D472020014
:1023F0002DE9FC4705460C461646204600F018F825
:10240000002000900190284600F0B0F88046204659
:1024100000F021F881466B46324649464046FAF7BD
:102420008DF8074617B10520BDE8FC870020FBE7C3
:10243000014607290BD0012909D0082907D0052911
:1024400005D0062903D0092901D0042901D1012092
:1024500070470020FCE7014601F5404080B270471C
:1024600070B503EB83054FF6FF7606EA051481701D
:102470004260E51CAD10058070BD000010B504463B
:1024800002492046F9F7AAF810BD000024210020D7
:1024900070B504464FF6FF70844201D1002070BD34
:1024A00005492046F9F79AF80546A54201D10120D1
:1024B000F5E70020F3E700004421002010B50446B2
:1024C0000449204601F0B2FE02492031204601F0C5
:1024D000ADFE10BD2421002010B50446024920465F
:1024E000FCF78BF810BD00004421002010B5044615
:1024F0000B492046FCF781F804460AE0204600F02C
:1025000027F808B9204610BD05492046FCF775F8A4
:1025100004464FF6FF708442F0D12046F3E70000F6
:102520002421002010B50248FBF7A0FA10BD0000DE
:102530002421002010B50446FF2C04DC214603486A
:10254000FCF705FA10BD0020FCE700002421002064
:1025500010B50446FF2C04DC21460348FCF7F7F9CC
:1025600010BD0020FCE7000044210020014601F5D9
:10257000404080B2704730B587B000200090019095
:102580000720FFF768FF04460FE002A904A8F9F747
:10259000FFFF02998888FAF7D1F8054604A8F9F7F1
:1025A00099FF2846FFF76AFF00BF6A4604A9204644
:1025B000F9F7CFFF0028E8D007B030BD7CB500F0B8
:1025C000AFFD044600BF254625B100BF2846F7F7FA
:1025D00029FD00BF00BF0020009001909DF8000081
:1025E00020F00100401C8DF800009DF8000020F054
:1025F00002008DF800009DF8000020F004008DF826
:1026000000009DF8000020F008008DF800009DF803
:10261000000020F0700030308DF800009DF80000C0
:1026200020F080008DF8000007208DF801001020B8
:102630008DF802009DF8030020F00100401C8DF889
:1026400003009DF8030020F00200801C8DF80300B9
:102650009DF8040020F00100401C8DF804009DF856
:10266000040020F00200801C8DF80400684601F090
:10267000E9F8044600BF254625B100BF2846F7F714
:10268000D1FC00BF00BF074801F0BCF8044600BF02
:10269000254625B100BF2846F7F7C4FC00BF00BFA0
:1026A0007CBD00007129020001460868012802D0A3
:1026B0000868022801D1012070470020FCE70000D3
:1026C00070B5024605490B46D40802F007021D5DAD
:1026D0000126964035431D5500BF70BD18220020CD
:1026E000014605484056012202EBE07008B1012086
:1026F00070470020FCE70000F42100200146044858
:102700004056082801DB012070470020FCE700004C
:10271000F4210020014606484056002805DB044805
:102720004056082801DA012070470020FCE700002D
:10273000F4210020FF2201490A547047F4210020AF
:102740002DE9F0470446206840F20C5109580D4627
:10275000206840F2145109580E462068D0F8081538
:102760000F4620684FF4A26109588846D4F80090BB
:102770004FF0FF3211464846FEF7D8F800BFD4F8B4
:1027800000904FF0FF3211464846FEF7B7F800BF01
:10279000681C10B12846FCF791FF701C10B1304640
:1027A000FCF78CFF08F1010010B14046FCF786FFF2
:1027B000781C10B13846FCF781FFBDE8F0872DE9A1
:1027C000F0470446206840F20C5109580D46206835
:1027D00040F2145109580E462068D0F808150F46EB
:1027E00020684FF4A26109588846D4F800904FF051
:1027F000FF3211464846FEF7D3F800BFD4F80090E8
:102800004FF0FF3211464846FEF7ABF800BF681C98
:1028100010B12846FCF75EFF701C10B13046FCF783
:1028200059FF08F1010010B14046FCF753FF781C36
:1028300010B13846FCF74EFFBDE8F0872DE9F041B6
:10284000044688461CB1206808B1606810B9FF20B2
:10285000BDE8F081FF2500261CE031466068FBF7EB
:102860000BFE40B1FF2D00D13546701B401C40458A
:102870000ED12846ECE7FF2D0AD02F4605E0394659
:10288000204600F039F8781CC7B2B742F7DBFF25C5
:10289000701CC6B2A068B042DFD8FF20D8E770B580
:1028A0000446DDE904566CB161B15BB105FB06F08D
:1028B000904207D835B12EB121606360A560E66013
:1028C000002070BD0720FCE770B504460D461CB122
:1028D000206808B1606808B9002070BDFF2D09D0DC
:1028E00029466068FBF7DBFD20B1E168206805FB45
:1028F0000100F2E70020F0E770B504460D4674B120
:10290000206860B1606850B1FF2D08D0294660682A
:10291000FBF7C5FD18B129466068FBF7D0FD70BD17
:1029200070B504460D4600BF0548007808B9082078
:1029300070BD00BF2946204602F03EFCF8E70000CB
:10294000981A002070B505460E4600BF074800786B
:1029500008B9082070BD00BF3146284602F0ACFC23
:102960000446082C00D111242046F3E7981A0020D1
:1029700010B50446204600F0B3F9204600F016F8E2
:1029800020780C2803D10020F7F730FA00E000BFD0
:1029900000BF10BD10B504462046F9F73BFC10BD42
:1029A00010B504462046F9F735FC10BD2DE9F0417D
:1029B00086B00546287815287ED2DFE800F00B3770
:1029C0003841424344D3D4D8D9DDDEDFE0E1E2E34D
:1029D000E4E5EE00A88800F08FFD0446862C01D0C7
:1029E000112C13D1A8888749874A126821F8120050
:1029F00085490968481CC11700EB5171C910A0EB4B
:102A0000C101814A116000F05DF90EE0062C0CD086
:102A1000072C0AD0132C08D000BF264626B100BFD1
:102A20003046F7F7FFFA00BF00BFE7E0E6E0287A9C
:102A3000012801D0287A10B9A88801F057F9DDE003
:102A400000BF00BFDAE07148007800287BD1002485
:102A50006F49704A891AC908032242EA01406EA1EF
:102A6000FDF7BAF973480078B0B901A8F9F7EAFDA3
:102A7000044600BF264626B100BF3046F7F7D2FA1B
:102A800000BF00BFBDF80A00002801DD012000E002
:102A900000206849087000BF6648007800284AD1C5
:102AA000002305AA1946184600F0C8FD0446F4B9EB
:102AB0005749584A891A00E09FE0C908032242EAB0
:102AC0000140BDF814205CA1FDF790F9BDF8140099
:102AD00000F002FD044600BF264626B100BF304686
:102AE000F7F7A0FA00BF00BF012052490870052C7B
:102AF0000AD14749474A891AC908012242EA0140D6
:102B000058A1FDF769F915E0062C0AD14049414A60
:102B1000891AC908022242EA01405AA1FDF75CF96C
:102B200008E000BF264626B100BF3046F7F77AFA24
:102B300000BF00BF00BF34B9F9F744FC04461CB91C
:102B40000120324908700CE048F20760844208D046
:102B500000BF264626B100BF3046F7F763FA00BF34
:102B600000BF4BE04AE001203249087046E045E0F2
:102B700001203049087041E000BF00BF00BF00BF26
:102B800000BF00BF00BF39E000202049087029497C
:102B900008701D48076800261DE01FE0F019C117E6
:102BA00000EB5171C910A0EBC101164A32F8118037
:102BB0004FF6FF7080450DD00146F019C21700EBAB
:102BC0005272D210A0EBC2020E4B23F812104046F4
:102BD00001F08CF8761C082EE0DB0FE000200B499A
:102BE000087048F20D61A868884203D0A868B0F563
:102BF000064F01D100F066F800E000BF00BF06B04C
:102C0000BDE8F081461B0020581B0020441B00201B
:102C10008887020050870200417474656D70746982
:102C20006E6720746F20636C65616E20666C6173E3
:102C3000682E0000451B002044656C6574696E6752
:102C4000206C6F776573742072616E6B65642070A1
:102C50006565722028706565725F69643A20256435
:102C600029000000546865726520617265206E6FEE
:102C700020706565727320746F2064656C6574657F
:102C80002E000000506565722072616E6B732066C5
:102C9000756E6374696F6E616C69747920697320F5
:102CA00064697361626C65642C20736F206E6F20A1
:102CB0007065657273206172652064656C6574650A
:102CC000642E000000B585B0142204496846F6F76A
:102CD0009DFB6846FFF76AFE05B000BD686902000B
:102CE00070B50446204600F029F8207820B96088A5
:102CF0000021F8F719FE15E02078072812D10A49BB
:102D00000A4A891AC908012242EA014008A1FDF7CE
:102D100063F800BFA56825B100BF2846F7F782F920
:102D200000BF00BF70BD000088870200508702000E
:102D3000417373657274696E672E00007CB504463A
:102D4000207815287AD2DFE800F00B0C0D253F40E3
:102D5000414C5C7A94A0B1BCCCCDDADBDCDDDE008A
:102D6000EDE0ECE06088F7F7D5FE764951F82050A9
:102D7000207A754951F82000009063887349744A9D
:102D8000891AC908032242EA01402A4671A1FDF7C7
:102D900049F8D4E06088F7F7BDFE6A4951F8205041
:102DA0006089217A684A52F82110CDE900106388C1
:102DB0006649674A891AC908032242EA01402A463D
:102DC0007449FDF743F8BAE0B9E0B8E05F49604AFA
:102DD000891AC908022242EA01406FA1FCF7FCFFF0
:102DE000ADE0A068FDF768FD05465849584A891AC4
:102DF000C908012242EA01402A466DA1FCF7F6FF0C
:102E00009DE0207C00F0010008B161A100E073A109
:102E1000607A754A52F82000CDE90001217A734D9D
:102E200055F82130A2884949494D491BC908032555
:102E300045EA01406E49FDF709F880E073E020693A
:102E4000FDF73AFD0546607A674951F82000CDE963
:102E50000005217A654E56F82130A2883B493C4E48
:102E6000891BC908022646EA01406249FCF7EEFFC9
:102E700065E0A2883549364BC91AC908012343EADF
:102E800001405DA1FCF7B2FF59E0A068FDF714FD19
:102E90000546A2882D492E4BC91AC908012343EAC9
:102EA00001402B465EA1FCF7ADFF48E02749284AC8
:102EB000891AC908032242EA014065A1FCF78CFF88
:102EC0003DE0A068FDF7F8FC05462049204A891A34
:102ED000C908012242EA01402A4662A1FCF786FFA6
:102EE0002DE02CE0A38862881849194D491BC908B8
:102EF000022545EA014064A1FCF784FF1FE01EE0C3
:102F00001DE01CE01BE0A068FDF7D6FC05460F495C
:102F10000F4A891AC908022242EA01402A4669A1D9
:102F2000FCF764FF0BE022780849094BC91AC9086D
:102F3000022343EA01406FA1FCF758FF00BF00BF26
:102F40007CBD0000A81A0020B41A00208887020067
:102F500050870200436F6E6E656374696F6E2073F5
:102F60006563757265643A20726F6C653A202573EB
:102F70002C20636F6E6E5F68616E646C653A20250D
:102F8000642C2070726F6365647572653A202573D6
:102F900000000000A8790200466C61736820737419
:102FA0006F726167652069732066756C6C00000044
:102FB000556E657870656374656420666174616CD4
:102FC000206572726F72206F636375727265643A06
:102FD000206572726F723A20257300002C206E6F8C
:102FE000206368616E6765003C1B0020141B002095
:102FF000007B0200B47A0200506565722064656C43
:1030000065746564207375636365737366756C6C52
:10301000793A20706565725F69643A202564000022
:10302000506565722064656C6574696F6E206661B9
:10303000696C65643A20706565725F69643A202541
:10304000642C206572726F723A20257300000000B4
:10305000416C6C2070656572732064656C65746585
:10306000642E0000416C6C20706565722064656C94
:103070006574696F6E206661696C65643A2065727B
:10308000726F723A202573004C6F63616C2044426A
:1030900020636F756C64206E6F74206265206170B0
:1030A000706C6965643A20636F6E6E5F68616E6410
:1030B0006C653A2025642C20706565725F69643AFE
:1030C00020256400466C61736820676172626167E5
:1030D0006520636F6C6C656374696F6E20666169EF
:1030E0006C65642077697468206572726F72202540
:1030F000732E0000556E65787065637465642050AA
:103100004D206576656E742049443A2030782578E4
:103110002E00000010B504462046F9F77BF810BDDC
:1031200070B5FEF78DFF04468CB12046FDF7C4FB59
:1031300005464349434A891AC908012242EA014027
:103140002B46414A41A1FCF75DFE032070BDFEF70E
:10315000DFFD04468CB12046FDF7AEFB054638493D
:10316000384A891AC908012242EA01402B46364AE8
:1031700041A1FCF747FE0320E8E702F06BF80446A4
:103180008CB12046FDF798FB05462D492D4A891A3A
:10319000C908012242EA01402B462B4A41A1FCF713
:1031A00031FE0320D2E702F03BF904468CB1204601
:1031B000FDF782FB05462249224A891AC9080122E5
:1031C00042EA01402B46204A41A1FCF71BFE0320A6
:1031D000BCE7F9F7D7FE04468CB12046FDF76CFB3F
:1031E00005461749174A891AC908012242EA0140CF
:1031F0002B46154A41A1FCF705FE0320A6E7F9F787
:10320000D1FF04468CB12046FDF756FB05460C491C
:103210000C4A891AC908012242EA01402B460A4A8F
:1032200041A1FCF7EFFD032090E7FAF727FC00200F
:1032300048490870012048490870002086E70000CE
:1032400080870200508702001C69020025732066F7
:1032500061696C6564206265636175736520706483
:10326000735F696E697428292072657475726E6562
:10327000642025732E0000002573206661696C654B
:10328000642062656361757365207064625F696E56
:10329000697428292072657475726E6564202573BF
:1032A0002E0000002573206661696C6564206265EC
:1032B000636175736520736D5F696E697428292079
:1032C00072657475726E65642025732E00000000AF
:1032D0002573206661696C6564206265636175733E
:1032E0006520736D645F696E697428292072657446
:1032F00075726E65642025732E00000025732066AC
:1033000061696C65642062656361757365206763DC
:103310006D5F696E697428292072657475726E65B7
:10332000642025732E0000002573206661696C659A
:10333000642062656361757365206773636D5F699F
:103340006E697428292072657475726E6564202513
:10335000732E0000991A0020981A002030B585B00D
:1033600004460125A088FAF72DF960802078082806
:1033700006D0092836D00A2849D00B287BD17BE01B
:10338000607AF0B94F48006868B14E49E068096852
:10339000884208D100204B490860A0884A4908802B
:1033A0000021E1601DE049480078D0B1A08846497D
:1033B0000988884215D1207A062812D100F0A8FC8D
:1033C0000FE0607A01280CD14048007848B1A0880D
:1033D0003D490988884204D1207A062801D100F0AD
:1033E00097FC68E0607A88B93648006870B1354962
:1033F000E0680968884209D10020324908603448F1
:103400000068401E324908600021E16053E0314805
:10341000007828B34FF6FF70FEF770FE4FF6FF718D
:1034200088421DD1FEF764FE4FF6FF71884217D126
:1034300000202849087014216846F6F700F80C208F
:103440008DF800004FF6FF70ADF80400ADF80200F3
:1034500000252046F8F7DEFE6846F8F7DBFE00BFE1
:103460001A48007830B1A08817490988884201D1EC
:1034700000F04EFC1FE01DE016480078C8B10020A7
:103480001449087014216846F5F7D9FF0D208DF80E
:1034900000004FF6FF70ADF80400ADF80200A06820
:1034A000029000252046F8F7B5FE6846F8F7B2FE10
:1034B00000BF00E000BF00BF15B12046F8F7AAFE2C
:1034C00005B030BD9C1A0020A41A0020991A0020D3
:1034D000A01A00209A1A002010B5044600BF054823
:1034E000007808B9082010BD00BF2046FAF722F97D
:1034F000F9E70000981A002070B588B0054600BFB3
:103500003648007810B9082008B070BD00BF3449B3
:1035100003C9CDE906013348007808B900F0F4FB8F
:103520003048007810B13048006808B1112453E0E9
:103530002E48008885421ED12D480068D8B100244D
:10354000142101A8F5F77BFF08208DF80400284618
:10355000FAF738F8ADF80600ADF8085006208DF8F7
:103560000C0000218DF80D1004918DF8141001A8A5
:10357000F8F750FE30E01E480068401C08B91324DC
:103580002AE01B480068401C19490860164A06A931
:103590002846FEF745FE0446F4B1002012490860B3
:1035A00013480068401E12490860112C14D0862C64
:1035B00012D0072C10D02046FDF77EF906460D49A3
:1035C0000D4A891AC908012242EA01402B463246B7
:1035D0000AA1FCF717FC0324204695E7981A00205F
:1035E00040690200991A00209C1A0020A41A0020A9
:1035F000A01A00208087020050870200436F756C7C
:1036000064206E6F74207570646174652072616EE1
:103610006B2E207064625F7261775F73746F726586
:1036200028292072657475726E65642025732E20BA
:10363000706565725F69643A202564002DE9F04F7A
:1036400087B006460F469046994600BF3C48007832
:1036500018B9082007B0BDE8F08F00BF4FF6FF7023
:10366000FEF74CFD04460020069004200590002043
:103670000390049006A8049005AB03AA06212046F7
:10368000FEF780FD0546002002904FF0FF3A4FF60E
:10369000FF7B4FF6FF700190072D01D10520D9E780
:1036A00018E065B906990298814202D30698029003
:1036B000A3460698504502D2DDF818A00194204692
:1036C000FEF71CFD044605AB03AA06212046FEF7C3
:1036D00059FD0546002DE4D0052DE2D04FF6FF70D0
:1036E00084421AD1834503D021460198884201D1F2
:1036F000052500E000250EB1A6F800B00FB1029834
:103700003860B8F1000F02D00198A8F80000B9F1B4
:10371000000F13D0C9F800A010E02846FDF7CCF840
:103720000849094A891AC9080122009042EA014061
:1037300023460649009AFCF765FB0325284689E7DE
:10374000981A00208087020050870200A0740200AF
:1037500070B586B000BF2548007810B9082006B0C3
:1037600070BD00BF0120224908704FF6FF70FEF7C0
:10377000C5FC04464FF6FF70844212D100201C495C
:103780000870142101A8F5F75AFE0C208DF80400EA
:103790002046ADF80800ADF8060001A8F8F73AFD9C
:1037A00000BF1CE02046FFF797FE054695B128466E
:1037B000FDF782F806460F490F4A891AC908012207
:1037C00042EA014033460D4A0D490094FCF72AFBBA
:1037D0000320C4E72046FEF791FC044600BF4FF6E5
:1037E000FF708442DED10020B9E70000981A002063
:1037F0009A1A002080870200508702003069020078
:10380000E8740200014600BF0B48007808B90820A0
:10381000704700BF09480078032801DB0420F7E760
:103820000748064A127840F8221004480078401CE5
:10383000024A10700020EBE7981A0020A61A002018
:103840006421002070B5044600BF0648007808B91E
:10385000082070BD00BF204601F07EFD05462846C9
:10386000F7E70000981A002010B5044600BF04B91D
:1038700010BD00BF2046F8F7CDFC00BFF8E7000000
:103880002DE9F05F814600BF00254DE02B484057F1
:10389000401C00B947E0284600F052F8044649466B
:1038A0002046FBF74CF900283CD0284600F050F8A1
:1038B000064600BF00BF4FF0A041084600F5E0619A
:1038C00051F82410C1F301418846B8F1020F01D12B
:1038D000032000E00220824651462046FBF738FFD5
:1038E00000BF00BF4FF0A04108460121A140C0F831
:1038F000201500BF2046F7F76BFE8346F7F720FE42
:10390000074677B1032E09D0B8F1020F01D1012E7D
:1039100004D0B8F1030F04D1022E02D13146204663
:10392000B84700BF00BF6D1C042DAFD34846FAF75F
:1039300041FA0028A8D1BDE8F09F00001422002021
:1039400001460248425C22F0C00070471422002069
:1039500001460248425C9009704700001422002092
:1039600070B504460D461646207A05280CD0607ABC
:1039700028B10A480AA102682846FBF79DFA09A166
:103980002846FBF799FA04E01EB106A12846FBF78A
:1039900093FA2846FBF7A5FA70BD0000741C0020BE
:1039A000257300000D0A000070B5FCF729FC0446E1
:1039B00000BF254625B100BF2846F6F733FB00BF00
:1039C00000BF70BDF8B504460D46E08838B116A0BA
:1039D0000090E38816A218A12846FBF76DFA207A1A
:1039E00005281FD0607A58B1217AA088FCF72EF8FC
:1039F000174951F82060324616A12846FBF75CFAB9
:103A00002846216802F00CF8A0880021FCF7C0FAD3
:103A10000646207A104951F8202033460FA1284647
:103A2000FBF74AFAF8BD00001B5B306D0000000098
:103A30001B5B313B33316D0025734C6F6773206422
:103A4000726F70706564202825642925730D0A0043
:103A5000741C002025730000601C00203C25733E70
:103A60002025733A2000000001460348814201D11D
:103A7000024870470020FCE700200040901B002017
:103A800070B50446214605480068FAF7D2FE05469F
:103A90001C212846F5F7D3FC284670BDC86A0200F1
:103AA00010B50446214602480068FAF7ECFE10BD46
:103AB000C86A020010B50446214602480068FAF7B9
:103AC000C6FE10BDC86A020010B50349034800686D
:103AD000FAF7BDFE10BD0000141C00205C6B020054
:103AE00010B501210348FAF7B2FF08B1012010BD5B
:103AF0000020FCE7E81B002010B51C238C220349A2
:103B000003480068FAF781FE10BD0000242300205E
:103B1000C86A020010B50446214602480068FAF758
:103B2000A4FE10BDC86A020010B507490748006826
:103B3000FAF79BFE064908600846006808B10120B4
:103B400010BD0020FCE70000141C00205C6B02008C
:103B5000101C002010B586B0044654E02C480068C4
:103B600020B92C48FFF7D6FF29490860284800688B
:103B70000078072821D2DFE800F020040B0C131492
:103B80001B00234801682046F9F73EFE044617E073
:103B900000BF1F480168204602F06AFD04460FE09E
:103BA00000BF1B4801682046F7F73AFF044607E0CC
:103BB0002046F8F7F9FE044602E048F20E6400BF22
:103BC00000BF04B920E0142101A8F5F738FC41F644
:103BD0001D50844201D1002000E02046029001A93E
:103BE0000B480068F8F761F901A8F8F79DF9002083
:103BF0000749086000240748FFF75CFFFFF770FFE4
:103C000000B901E000BFA9E700BF06B010BD000089
:103C1000081C00200C1C002010B52148007A30B987
:103C2000FFF782FF18B900201D49486010BD02202F
:103C30001B4908721B480068007910B101280CD19B
:103C400005E01848006802F077FD044607E01548D3
:103C50000068F8F723F9044601E0032400BF00BF21
:103C600014B1112C0CD107E00D48007C18B90021CB
:103C70000220FBF76FFB0FE00120094908720BE0FF
:103C8000032108480068F8F763F900200449087226
:103C90004860FFF719FF00BF00BF00BFC6E7000084
:103CA000A0240020101C002010B501210348FAF7C1
:103CB00097FE10B90020FFF74DFF10BDE81B002054
:103CC00010B50548FAF76FFE28B90348001F407C7D
:103CD00008B9FFF7A1FF10BDA42400200248006826
:103CE000810201F1005070470C01001010B586B040
:103CF0000446142101A8F5F7A2FBADF8084001A87D
:103D0000FEF754FE06B010BD10B500F001F810BD6E
:103D100010B500231A460B490B48FFF78FFC0446E9
:103D2000052C06D14FF6FF70074908800020054991
:103D300008600CB1052C01D1012000E000200349EE
:103D4000087010BDA01A0020A41A0020991A0020A3
:103D50002DE9F04107460E4614461D462A463146D7
:103D60002046F5F753FB0020BDE8F08170B505460D
:103D70001A48007800B970BD002018490870002466
:103D800027E004EB4400164901EB8000807AC0F381
:103D9000400038B904EB440001EB8000807A00F069
:103DA0000100A8B101200D49087004EB44000C4942
:103DB00001EB8000807AC0F3400000B945B104EB0C
:103DC0004401074A02EB810002F00EFB00B9D2E782
:103DD000641C042CD5D300BFCDE70000911A00204D
:103DE000B41F002010B50446142C01DB002010BDC8
:103DF00021460548FAF7BAFD21460348001FFAF7A5
:103E0000B5FD0120F3E70000581E00202DE9F04128
:103E100006460F4615461C461E48007818B948F25B
:103E20000160BDE8F08105B114B948F20460F8E71B
:103E300029E0A08800EB8000174911F8200000B1AC
:103E40001EE015E0216826B188883288904200D0B3
:103E50000EE027B108883A88904200D008E08868D0
:103E60002860206868600D48008928810020D8E714
:103E7000A088214600F070F80028E3D1206000BF40
:103E8000A088401CA080A0880228D2DB48F20960EC
:103E9000C7E70000E01B0020C0230020E82300202B
:103EA0007FB504460020009001900290E0680090E9
:103EB00003A9684600F012F858B1019EB188E1806C
:103EC00031882181BDF80C10019800F081F8054679
:103ED00001E048F20965284604B070BD38B50446D3
:103EE0000D466068F5F7CAFE90B120891949098925
:103EF00088420DD1D4E900018968884208D128465A
:103F00006168FDF7FDFC08B9012038BD0020FCE721
:103F10000020288018E0002000900CE000998868BC
:103F20002268904206D1009860600A48008920818A
:103F30000120EAE700BF2888694600F00DF8002854
:103F4000ECD12888401C288028880228E3DB002048
:103F5000DBE70000E82300202DE9F04104460D4690
:103F600004EB8400194901EB8000406800F580579C
:103F70002E6826B13046F9F75EFA064607E004EBF4
:103F80008400124901EB8000406800F1080615E04A
:103F900039463046F9F72CFA20B1012806D002281C
:103FA0000BD108E02E600120BDE8F0813046F9F722
:103FB00042FA064601E00020F6E700BF39463046E7
:103FC000F9F72EFA0028E3D100BFEDE7C023002067
:103FD000F8B504460D46002004230A4A2146009005
:103FE0000948FBF7FDF9064616B148F20D60F8BD29
:103FF000012005EB8501054A02EB810108740020D0
:10400000F5E70000DC6A0200A81C0020C0230020A5
:10401000F8B504460D460221A17500200423221D97
:10402000294600900448FBF7DBF906460EB900204C
:10403000F8BD48F20D60FBE7A81C0020F8B5044667
:104040000E462078032801D1052100E00621A17544
:104050000020042304F10802311D00900448FBF7FE
:10406000BFF905460DB90020F8BD48F20D60FBE729
:10407000A81C0020F8B504460E46206908B10321AB
:1040800000E00121A1750020042304F10C0206F1D7
:10409000080100900448FBF7A3F905460DB900207C
:1040A000F8BD48F20D60FBE7A81C002010B5012107
:1040B0000148FAF77FFC10BDF01B002070B50546E3
:1040C000002406E0044901EB84002946FAF7E9FBE5
:1040D000641C1E2CF6D370BD541E00200146C8B2CD
:1040E00070470146B1F5404F05DB4FF6FE70814247
:1040F00001DC012070470020FCE7000010B598B0FB
:104100000F488068C04317900D48416817A8FAF718
:104110005CFC179901A8F7F7DAFA2C2201A90CA880
:10412000F5F774F9002405E00DA931F81400FFF744
:10413000C5FF641C0C98A042F6D818B010BD000052
:10414000501E002010B5044621460248FAF7A9FB8C
:1041500010BD0000581E0020F8B504460D46012190
:10416000A17500200090E088830005F10C0105484E
:104170002269FBF735F906460EB90020F8BD48F272
:104180000D60FBE7A81C00202DE9F04706460F460E
:1041900014461D46DDF820A006EB8600224901EBFF
:1041A0008000406800F1080806EB860001EB800003
:1041B000406800F580592FE049464046F9F718F964
:1041C00090B1012802D0022824D115E02088401C9B
:1041D00020802988B8F80200C01C08442880404686
:1041E000F9F729F9804616E03888401C38804046A7
:1041F000F9F721F980460EE02088401C20802888AD
:10420000A9EB080100EBA100288001208AF800003A
:10421000BDE8F08700BF00BF49464046F9F700F906
:104220000028C9D100BFF3E7C023002070B50446C1
:104230000D46FF2C03DC21462846FAF732FB70BD01
:1042400002460846704710B504462046F7F75BFD66
:1042500008B1FDF79BFA00212046F7F764FC10B186
:104260002046FCF7E5FF01212046F7F75CFC10B182
:104270002046FCF7D3FF204601F04AFB204600F021
:104280003FF810BD2DE9F04706460F464FF00D08E8
:1042900000203870F8F736FFD6E902321C1A62EBBC
:1042A000010500210846091BA84118DAB4F5350FAD
:1042B00004D3F5F7C5FE1049084400E0B068814614
:1042C0004FF496034A4600210C48F7F732FD80462A
:1042D000B8F1000F02D10120BDE8F08703E0002112
:1042E0000648F7F715FCB8F10D0F03D1304601F081
:1042F000D9FA38700020EFE7FFFFB400B01B0020B0
:10430000F8B5074646E000BF2448FCF792FA064697
:104310000EB1304600E0002004460025002C31D0CC
:104320001F48006808B9012512E01D49D4E9023090
:104330000A68D2E90212591A904109D20125184897
:104340000068007F20B1164801681448FCF75DFA48
:10435000BDB101F06DF9044669462046FFF792FFB2
:1043600058B10F48006810B93846F7F7D4FC0C482C
:1043700004609DF8000018B90DE0002008490860AD
:1043800007E008E00648006810B93846F7F7CAFCAD
:1043900001E000BFB7E700BFF8BD0000A86A020057
:1043A000B81B002070B505460C46A06940B94FF413
:1043B00084712846FCF79BFA00BFD5F8180570BD3C
:1043C0004FF484712846FCF792FA00BFD5F818051F
:1043D000C0B2626AE1688854606A401C606200BFD3
:1043E000EDE77FB504460D46164601208DF8000026
:1043F000029501966846D4E9001290477FBD7FB5CB
:1044000004460D46164601208DF8000002950196DF
:104410006846D4E9001290477FBD000070B504469D
:104420000D46054801782046F6F7A2FB10B9204654
:1044300000F01AFD70BD0000731A002010B504468C
:104440002046F5F7EBFA10B942F2010010BD18480A
:10445000806868B16009164951F8200004F01F0215
:104460000121914088436109114A42F821001CE072
:104470002046002817DB00F01F02012191400D4A61
:10448000430942F8231000BF00BF00BFBFF34F8FA6
:1044900000BF00BF00BF00BF00BF00BFBFF36F8FF2
:1044A00000BF00BF00BF00BF00BF0020CEE700007C
:1044B0000823002080E100E010B504462046F5F70F
:1044C000ADFA10B942F2010010BD2046002803DB0E
:1044D0001F4A125C520905E01E4A00F00F031B1F21
:1044E000D25C52091146082904D20120884000F00C
:1044F000EC0008B9002000E0012010B942F20200EF
:10450000E2E71548806868B16009134951F8200056
:1045100004F01F0201219140084361090E4A42F84C
:10452000210012E0204600280DDB00BF00BF00F094
:104530001F02012191404209920002F1E022C2F8DB
:10454000001100BF00BF00BF00BF0020BCE700009B
:1045500000E400E018ED00E00823002070B50446F8
:10456000F5F778FA054614488068D8B90120124951
:10457000886012480068124908400F4908601048D6
:104580004FF0E021C1F880010C488038D0F8840059
:10459000094948604FF0FF310848001D01600020C4
:1045A000207001E0012020701DB900BF62B600BF7D
:1045B00000BF002070BD00000823002080E100E063
:1045C000FC06FFBD38B504460D4624B1012C1FD0B2
:1045D000032C38D132E00020002817DB00F01F0246
:1045E00001219140194A430942F8231000BF00BF3E
:1045F00000BFBFF34F8F00BF00BF00BF00BF00BFB1
:1046000000BFBFF36F8F00BF00BF00BF00BF1BE044
:10461000002000906846F5F786FD0D48007808B93F
:10462000FAF7C6FB0A48C068401C0949C860012067
:1046300088709DF80000F5F77DFD05E0FCF7C2F9F4
:10464000FAF7DCFB00E000BF00BF38BD80E100E00E
:10465000B0210020FEB505460C496846FCF79DF8E0
:104660000DE06846FCF796F804462668284661681F
:10467000B04708B91120FEBD6846FCF7AFF86846A0
:10468000FCF788F80028ECD100BFF4E7406D020089
:10469000FEB505460A496846FCF77FF80AE0684619
:1046A000FCF778F80446266828466168B0476846F3
:1046B000FCF794F86846FCF76DF80028EFD1FEBDD2
:1046C0005C6D02002DE9FE4304464FF0000804F142
:1046D0000C00F9F75BF806464FF6FF70864204D1EE
:1046E0002088F9F73FF8064603E020883146F9F7BD
:1046F00017F820880022012100F074F94FF6FF70AE
:1047000086421AD001AA07213046FDF77BFB0546F9
:104710009DB9029800F13407A07D00F0010058B166
:10472000387C00F0010030B904F10C0107F11200EF
:10473000F8F7DDFF00B1B84600BF208800231A4615
:10474000414686DF0546082D0AD11849184A891ABC
:10475000C908022242EA01401649FBF73DFB23E06B
:10476000ADB12846FCF7A8F80746009623880F4904
:104770000F4A891AC908012242EA01403A460E4905
:10478000FBF750FB2088294600F00CFA0CE0A07DD6
:1047900000F0010040B1B8F1000F05D120880022DF
:1047A00041F20601F7F743FBBDE8FE839087020064
:1047B00050870200CC7C0200447B02002DE9FC47BC
:1047C00006460F4690461C466CB92D492D4A891A5B
:1047D000C908012242EA01402B4A2CA1FBF706FB43
:1047E0000320BDE8FC8706F5807188B26B46012284
:1047F0000721FDF769FB0546112D3FD08DB12846F5
:10480000FCF75AF881461E491E4A891AC908012236
:1048100042EA014033464A462949FBF7F3FA0325A9
:104820002CE050210198F4F70AFE019807700198D6
:1048300034302060C4F80C80019818302061019851
:10484000401C60611F49E161019800F1110130468F
:10485000F8F726FE05468DB12846FCF72DF881466F
:104860000749084A891AC908022242EA0140334628
:104870004A461549FBF7C6FA0820B2E72846B0E7D2
:104880009087020050870200E4690200496E746557
:10489000726E616C206572726F723A20257320729D
:1048A00065636569766564204E554C4C20666F7271
:1048B00020705F7365635F6B65797365742E0000AC
:1048C000947D0200702100207C7C020010B504461B
:1048D0002088F6F71FF901280BD1217901F0010199
:1048E00009B1012100E002210A462088012100F0DF
:1048F00079F82088211D00F007F910BD014609B99B
:10490000002070470878C0F3400020B90878C0093B
:1049100008B10020F5E70878C0F30210042801DD93
:104920000020EEE70878C0F3400048B10878C0F3F3
:104930000210032804D10878C00908B90020E0E774
:1049400048788A78904201DD0020DAE74878072825
:1049500001DA0020D5E78878102801DD0020D0E7B3
:10496000C878C0F3800018B90879C0F3800008B196
:104970000020C6E7C878C0F3C00018B90879C0F3B2
:10498000C00008B10020BCE7087800F0010088B939
:10499000C87800F0010058B9C878C0F3400038B9B1
:1049A000087900F0010018B90879C0F3400008B197
:1049B0000020A6E7087800F0010088B1C87800F070
:1049C000010068B9C878C0F3400048B9087900F020
:1049D000010028B90879C0F3400008B9002090E729
:1049E00001208EE770B506460D4614462A4610484B
:1049F00001783046F6F7D2F8C5B10CB1012000E0DD
:104A0000002002460B4801783046F6F7C7F8012C23
:104A100001D1012000E0002002460748017830461D
:104A2000F6F7BCF82146304600F03CF870BD0000B7
:104A30005D1B00205E1B00205F1B0020F8B50446B4
:104A4000002500261648006808B9012520E0608886
:104A5000F6F71CF8E0B100200090207A41089DF89C
:104A6000000061F382000090207A9DF8001060F34E
:104A7000C3010091207A81089DF8000061F30410C1
:104A800000906088694600F04FFC80F0010600BF8E
:104A90006088012332462946F9F7B4F90746F8BD84
:104AA0006C1B002030B585B005460C461422064923
:104AB0006846F4F7ABFCADF802508DF80840684644
:104AC000F7F7BCFB05B030BD8069020010B586B0B9
:104AD0000446142101A8F4F7B2FC04208DF8040068
:104AE000ADF8064001A8F7F7A9FB06B010BD00001D
:104AF00010B504460348806918B102488169204610
:104B0000884710BD341E002030B585B005460C46E0
:104B1000142206496846F4F779FCADF80250029475
:104B20006846F7F78BFB05B030BD0000D069020086
:104B300010B586B004461422054901A8F4F766FCB6
:104B4000ADF8064001A8F7F779FB06B010BD0000EC
:104B5000A869020030B585B005460C461422064906
:104B60006846F4F753FCADF8025002946846F7F734
:104B700019FB05B030BD00005868020030B585B0A3
:104B800005460C46142206496846F4F73FFCADF88A
:104B9000045002946846FDF741FA05B030BD0000AC
:104BA000F868020030B585B005460C461422064967
:104BB0006846F4F72BFCADF8025002946846F7F70C
:104BC0003DFB05B030BD00009469020030B585B0F2
:104BD00004460D46224607216846F9F7F5FC029582
:104BE0006846F7F73FFB05B030BD70B505460E4689
:104BF0003146284675DF044624B1112C02D02046E8
:104C0000FFF776FF0CB9012070BD0020FCE7000023
:104C10002DE9F84F88461546002D35D04FF0000994
:104C20000320009000BF08EB09012A460020F4F79A
:104C3000FFFC0446A1442D1BFCB91448007800B9C0
:104C400020E0012606B90FE000BF4FF47A7707B9DC
:104C500006E0DFF83CA04FEA871B5846D04700BF6C
:104C6000701E061EF1D100BF0098401E00900098F3
:104C700018B900200549087004E0012003490870B4
:104C8000002DD0D100BF00BFBDE8F88F211C00204F
:104C9000F16C02002DE9F05F0E46174607F0FF0A9F
:104CA000002018490870184CB046D1468346207839
:104CB0001649085C30B14A464146201DFCF7C2F94E
:104CC00083460AE020781149085C30B94A464146DB
:104CD00004F10C00FCF7F2F883465D4600BF00BF0C
:104CE0002C4624B100BF2046F5F79CF900BF00BF59
:104CF00000BF0748007818B1024800780028F8D0B3
:104D0000BDE8F09F381C0020241C0020841B0020DC
:104D1000391C00202DE9FF4180460D46002603A8DE
:104D2000B3DF0746012427E0164903C9CDE9000196
:104D300002A80190002202A92046B4DF07461FB155
:104D4000384604B0BDE8F0813EB9BDF8080042F62F
:104D50000521884201D101260CE05EB1BDF80800B2
:104D600042F60211884205D101956A462146404625
:104D7000ADDFE6E7601C84B2BDF80C008442D3DBF3
:104D80000520DEE78068020010B504462046F8F7EB
:104D9000E1FA28B10122034801782046F5F7FEFE2A
:104DA00010BD0000721A002010B50022024903480D
:104DB0000078F5F77BFE10BD1D440200721A00203A
:104DC00030B587B0234903C9CDE9050139E0002298
:104DD00005A921480088FDF723FA04465CB3142195
:104DE0006846F4F72CFB1C480088ADF80400112C31
:104DF00020D0862C06D106208DF800006846F7F7F3
:104E0000E5F917E02046FBF757FD05461349144A1C
:104E1000891AC908012242EA01400F490B882A4633
:104E20001049FAF7EFFF07208DF80000029468465A
:104E3000F7F7CCF90BE008480088FDF75FF9064961
:104E40000880054800884FF6FF718842BFD100BF37
:104E500007B030BDC86802007E1A002058870200E3
:104E600050870200007002002DE9F04186B005462F
:104E7000012600272846F8F781FA04462046112C1F
:104E80001AD005DC60B1062823D008282ED114E002
:104E9000A0F54050023840B3A0F2FF3030BB20E014
:104EA0001422254901A8F4F7B1FAADF806500127FC
:104EB00001A8F7F777F92EE02DE005A92846FFF7BE
:104EC00029FF04461CB9BDF8140000B123E000BF5F
:104ED00000BF00262846F8F745FC8046F8F754F94D
:104EE00019E02846F9F756F815E014E02046FBF7DC
:104EF000E3FC80461149124A891AC908012242EA94
:104F000001402B4642460FA1FAF77CFF2146284676
:104F1000FFF720FE00BF00BF32461A48017828463E
:104F2000F5F73CFE3A46184801782846F5F736FE74
:104F300006B0BDE8F08100008868020050870200DA
:104F4000508702006773636D5F736572766963658E
:104F50005F6368616E6765645F696E645F73656EE9
:104F60006428292072657475726E6564202573202B
:104F7000666F7220636F6E6E5F68616E646C653A17
:104F800020256400721A0020731A00202DE9F047D2
:104F900007460E4614469A46B86A10B90720BDE87F
:104FA000F0874FF0000836E008EB4801B86A00EBE4
:104FB0008105A88800F10209B9F1FE0F01D90C2082
:104FC000EDE709F10100218870542088401C208001
:104FD0001620218870542088401C20802288911936
:104FE000288800F03FFF218808442080A8880028F6
:104FF0000DDDA86808B90720D1E7AA882388981989
:10500000A968F4F703FA2088A9880844208008F1E9
:10501000010000F0FF0897F82C004045C4DC002098
:10502000BDE7000038B500200090084800906946B0
:105030000748F9F749FE044600BF254625B100BFE1
:105040002846F4F7EFFF00BF00BF38BD570202004B
:10505000CC1C00200246022082F831000320087098
:10506000108A88810020C2F8E40002F1EA0048605A
:10507000D0688860002070470246012082F8310025
:105080000020C2F8E40002F1EA00486000208860D5
:1050900002200870802088810020704770B5044687
:1050A0000D466069A860208BA881012084F83C002F
:1050B000204600F09FFF78B1022028750421204689
:1050C000F7F789FB064600BF304600B170BD00BF50
:1050D000052084F8310002E0032084F8310004F157
:1050E000D400C4F8E4000020F0E770B504460D4693
:1050F000E069A860208CA881012084F83C0020464B
:1051000000F078FF78B10220287504212046F7F7D7
:1051100062FB064600BF304600B170BD00BF0620EE
:1051200084F8310002E0042084F8310004F1D40056
:10513000C4F8E4000020F0E770B50020F6F78AF824
:10514000044600BF254625B100BF2846F4F76AFF94
:1051500000BF00BFF5F790FF044600BF254625B10C
:1051600000BF2846F4F75EFF00BF00BF33DF0446F0
:1051700000BF254625B100BF2846F4F753FF00BF06
:1051800000BF70BD10B50446204600F022F9002291
:10519000054906480078F5F789FC002204490548CE
:1051A0000078F5F783FC10BDBD1C02007B1B0020BE
:1051B00041DF0100781B00202DE9F04107460C4635
:1051C00000BF14B90E20BDE8F08100BF3846F5F7E6
:1051D000ABFC054615B943F20200F4E73846F8F790
:1051E000C1FA0646022D01D1012000E000202178FD
:1051F00060F3000121704FF6FF70864201D001205C
:1052000000E00020217860F3C30121703846F5F7F3
:105210003DFC217860F3410121703846F5F76AFCC6
:10522000217860F3820121703846F5F753FC38B9D4
:105230003846F5F72BFC28B13046F8F7A8FD08B141
:10524000012000E00020217860F30411217000208B
:10525000B9E7000010B51048F7F78AFA0F48F7F7DA
:1052600087FA0F48F7F784FA0E48F7F781FA0D48E6
:10527000007818280BD10C490C4A891AC908012258
:1052800042EA01400A49FAF7A7FD032010BD0120B8
:10529000084908700020F9E7781B0020791B0020DE
:1052A0007A1B00207B1B0020988702005087020099
:1052B0005C6E0200641B002070B505460C4600239E
:1052C000224619462846F8F79DFD0646304670BD31
:1052D00010B5044620780A280CD004DC082807D032
:1052E000092815D105E00B2805D0132810D100BFDF
:1052F00000BF00BF00BF0022074908480078F5F74B
:10530000D5FB0022064907480078F5F7CFFB00E0FF
:1053100000BF00BF10BD0000BD1C02007B1B0020B1
:1053200041DF0100781B0020F8B505460C4609480E
:105330000068009069462846FFF73EFF0646207841
:105340009DF8001020EA010716B90FB90120F8BD39
:105350000020FCE7F869020010B504463CB90020C3
:105360000C49086001200C490870002010BD20463F
:10537000FFF7C4FA58B10948216801602179017129
:10538000044908600120044908700020EEE7072066
:10539000ECE700006C1B0020701B0020651B002048
:1053A00010B504462078052802D012280BD106E05B
:1053B00000BF6088A16800F0E5F800BF07E0204664
:1053C000FFF73CFB00BF2046F6F760FE00BF00BFC2
:1053D00010BD10B504462088142812D004DC112812
:1053E00007D0132819D108E019280ED01A2814D193
:1053F0000FE0201DF6F76EFB0FE0201DFFF766FAA9
:105400000BE0201DFFF75EF907E0201DF4F76DFFAC
:1054100003E0201DF6F75CFA00BF00BF10BD0000DE
:1054200010B51648F7F79BF91548F7F798F915489E
:10543000F7F795F91448F7F792F91048007818280B
:105440000BD00F480078182807D00E48007818288D
:1054500003D00D48007818280BD10C490C4A891A42
:10546000C908012242EA01400A49FAF7B5FC0320C3
:1054700010BD0120084908700020F9E75D1B0020DD
:105480005E1B00205F1B0020601B00209087020035
:10549000508702005C6E02005C1B00202DE9F04189
:1054A00004460D4617462046F5F734FB0646012E06
:1054B00005D129462046F8F761FDBDE8F08143F2A9
:1054C0000200FAE72DE9F04788B081460D461646FE
:1054D0004846F5F71FFB04460027B84620216846DA
:1054E000F3F7ADFF012C05D100222448017848468E
:1054F000F5F754FB24B943F2020008B0BDE8F08789
:1055000015B94FF0850827E04846F8F72BF94FF614
:10551000FF7188420ED0012C0CD14846F4F7ACFC48
:1055200040B94846FFF7D2FA4846F4F7A5FC08B957
:105530004FF08508287800F0010018B9039610494B
:10554000079109E0B8F1850F06D06B463246214637
:105550004846FFF733F9074677B94FF0000A012CA8
:1055600001D1284600E0002082466B465246414663
:1055700048467FDF074600BF3846BEE7601B002075
:1055800070210020FEB504460D466846F9F70CF878
:105590006A4629462046FCF799FB094806683246C8
:1055A00020460099FFF78EFF074601223946204624
:1055B000F7F726F939462046009AF6F7FDFCFEBDBE
:1055C000741B002070B504460D462CB90120034918
:1055D00048700020F6F728F870BD0000B0210020C8
:1055E00070B51620FEF72AFF044600BF254625B1F8
:1055F00000BF2846F4F716FD00BF00BF70BD70B5B0
:105600001620FEF759FF044600BF254625B100BF0E
:105610002846F4F707FD00BF00BF70BD10B500BFFE
:1056200000F006F808B1002101770028F8D110BD7C
:1056300010B50448FBF701F904460CB1204610BD33
:105640000020FCE7A86A020010B504460120F5F727
:105650008FFD10B10220207008E00020F5F788FDD2
:1056600010B10B20207001E00020207010BD000060
:105670000146064B03EB61031A7801F001030BB1FD
:10568000131101E002F00F0318467047902200202A
:1056900030B500F001040CB10F2400E0F0242346E3
:1056A00000F001040CB10C0100E00C46E2B2094C20
:1056B00004EB600424781C40064D05EB60052C705B
:1056C000044C04EB600424781443024D05EB6005A0
:1056D0002C7030BD902200202DE9F05F05460E466B
:1056E00090461F46DDF828904FEA154AF6F704FA6F
:1056F00083464AEA0B42781C00EA09000E4941F849
:10570000202007EA090001EB8004206865F3C5004A
:105710002060206868F389102060206866F39F206D
:105720002060206820F00300401C2060206820F0EA
:1057300004002060BDE8F09FA42600202DE9FC476E
:105740008046894616461C4616480768012201A96C
:105750002046F5F7C1FDC0B1019800F1020A00250D
:1057600009E056F8252050460AF1010A38400E4952
:1057700041F820206D1CA542F3D3009722464946EC
:105780004046019BFFF7A8FF00BF07480C38007890
:1057900030B100BF00BFFAF791F90028FBD100BF7C
:1057A000BDE8FC875C1C0020A42600202DE9FC41FC
:1057B00006460D46144903C9CDE9000100221348ED
:1057C00001783046F5F7EAF90DB1114800E01148CB
:1057D00001903046F7F7C6FF074600226946FCF7FE
:1057E0001FFD044674B12046FBF766F807460A49D8
:1057F0000A4A891AC908022242EA01403A4608497F
:10580000FAF7F4FABDE8FC81A8680200741A0020D7
:10581000A0680200A46802005087020050870200BE
:10582000CC6E02002DE9F04781460C46154698469D
:10583000002608F00100A0B105E0641C761C394682
:105840004846F5F7BDFD2778002FF6D104E06D1E20
:1058500020214846F5F7B4FDB5421BD9002DF6D1FD
:1058600018E01CB12046F3F7F5FD064604E06D1E76
:1058700020214846F5F7A4FDB54201D9002DF6D107
:1058800005E0641C761C39464846F5F799FD2778F3
:10589000002FF6D1BDE8F0870246501A20F07F4075
:1058A0007047000070B504460025174800780128AD
:1058B00027D104B3207FF0B1F7F724FCD4E9022309
:1058C000801A994118D3206908B900202077D4E9BB
:1058D00005108847206970B1207F60B1D4E902309B
:1058E0002169591840F10000C4E902102146074817
:1058F000FAF78BFF012504E021460448FAF785FFFB
:105900000125284670BD0000BC1B0020A86A0200CB
:10591000F8B5064669461F480068F8F7A6FF044632
:1059200034E0207820B101280DD0022821D11AE0DE
:105930006068007F30B901206168087716486168A7
:10594000FAF763FF16E0154960680968884203D1D9
:1059500000201249086005E00F486168FAF779FFF6
:10596000054600BF06E0FFF759FE01200C4908700C
:1059700000E000BF00BF694606480068F8F767FF0F
:10598000694604480068F8F770FF0446002CC8D147
:10599000F8BD0000A46A0200A86A0200B81B00203B
:1059A000BC1B0020F8B505460E4669460B4800684A
:1059B000F8F73FFF04467CB12570666069460748EA
:1059C0000068F8F760FF28B100BF0548F6F780F9D6
:1059D00000BF00BF0020F8BD0420FCE7A46A02005D
:1059E000B01B002010B5054800684108002204489B
:1059F0000068F4F773FB044610BD0000A01B0020F4
:105A00009C6A020070B5F4F733FB044600BF2546DC
:105A100025B100BF2846F4F705FB00BF00BF70BDED
:105A2000704770B505460C46666910E004E094F8CE
:105A3000280008B1002070BD4FF48E712846FAF797
:105A40004FFF0028F3D02146284600F005F8206AD1
:105A5000B042EBD30120EEE770B505460C464FF49B
:105A60008E712846FAF743FF216AA068465C206AD7
:105A7000401C20623046C5F81C0500BF70BD7FB5D4
:105A800004460D4600208DF800000295A0680190A4
:105A9000002060616846D4E9001290477FBD7FB561
:105AA00004460D4600208DF800000295A068019084
:105AB000002060616846D4E9001290477FBD30B590
:105AC00004461088C01C984201D90C2030BD022029
:105AD000158848551088401C10800A2015884855A4
:105AE0001088401C108015884C551088401C108070
:105AF0000020EBE77FB504460D462E4620788DF852
:105B0000000060680190217A8DF80810E168039127
:105B1000044850F82610044850F82620684690475C
:105B20007FBD0000801B00207C1B00200122014B58
:105B30001A707047381C002070B588B005462022C6
:105B400012496846F3F762FC0C2000904FF0FF30DA
:105B50000190029003904FF0EB7006900DB10C484D
:105B600000E00020024669460A48F9F75FF904465A
:105B700000BF264626B100BF3046F4F753FA00BFF7
:105B800000BF0548057008B070BD0000046D02003C
:105B90002D5B0200241C0020391C00202DE9FF4150
:105BA00005460C464FF400712846FAF7B3FE48B399
:105BB0004FF492712846FAF793FE18B34FF492719E
:105BC0002846FAF794FE4FF401712846FAF79CFE36
:105BD00094F8290018B904212846FAF7A4FE0220F7
:105BE0008DF800002846FAF775FE0390A16902912E
:105BF000E06801900020A061E0616846D4E90012ED
:105C0000904737E004212846FAF784FE002831D077
:105C10004FF484712846FAF763FE58B321462846AC
:105C2000FEF7C0FB616AA069884223D1E06970B1C8
:105C3000E668676AE069A0612069E0600020E061D1
:105C40006062324639462046FEF7CBFB12E094F8FC
:105C5000290018B904212846FAF765FE4FF40171AE
:105C60002846FAF751FE0020A061E268616A2046EA
:105C7000FEF7B7FB4FF48E712846FAF731FEB8B144
:105C80006669206AB04207D294F8280020B92146FC
:105C90002846FFF7E1FE0AE04FF48E712846FAF736
:105CA00026FE606918B161692046FFF7E8FE00BF73
:105CB0004FF4A2712846FAF713FEA0B14FF4A27177
:105CC0002846FAF714FE94F8290018B10021284656
:105CD000FAF729FEA06930B10020A061E268616A8C
:105CE0002046FEF77EFBBDE8FF8100007FB504463D
:105CF0000D462E4620788DF8000060680190217ACC
:105D00008DF80810E1680391044850F82610044803
:105D100050F82620684690477FBD0000801B002079
:105D20007C1B00202DE9FF4106460C464FF4927182
:105D30003046FAF708FEC8B14FF492713046FAF7D0
:105D400009FE02208DF800003046FAF7F6FD0390B8
:105D50003046FAF712FE0290E06801900020A06140
:105D6000E0616846D4E9001290472CE04FF4887156
:105D70003046FAF7E8FD30B34FF488713046FAF751
:105D8000E9FD3046FAF7F9FD0546A069A84219D1A8
:105D9000E06980B1E76820213046FAF7F3FDE06959
:105DA000A0612069E0600020E0613A462946204673
:105DB000FEF725FB06E00020A06129462046E268A8
:105DC000FEF71DFB00BF4FF4A2713046FAF7BBFD92
:105DD00090B14FF4A2713046FAF7BCFDA06958B1FA
:105DE0000020A061E0613046FAF7C7FD054629466C
:105DF0002046E268FEF703FB4FF490713046FAF755
:105E0000A2FD90B14FF490713046FAF7A3FD0C213A
:105E10003046FAF7BDFD606938B13046FAF7BBFD90
:105E2000054629462046FFF73AFE4FF4AC7130464E
:105E3000FAF789FD70B14FF4AC713046FAF78AFD7C
:105E4000606938B13046FAF7A6FD05462946204676
:105E5000FFF725FEBDE8FF81014608784A7840EA51
:105E60000220704702460A70100A487002207047EC
:105E700070B504460D4614210448F3F7E0FA0448CF
:105E80000068F8F7B7FC002070BD0000A0240020D7
:105E90005C6B02002DE9FF4F81B0884616461F4615
:105EA000DDE90E4B45464FF0010A03E0B5FBF6F580
:105EB0000AF1010AB542F9D2574500D9BA460BF0AA
:105EC000010098B994B10BF00200022803D117B970
:105ED0003020009001E02020009004E0641EDDE905
:105EE0000010F5F76DFA0CB1A245F7D3012509E0D2
:105EF000012F01D97F1E04E0B8FBF5F9B14500D2AE
:105F000001E07543F4E700BF00BFB8FBF5F909FBFA
:105F100015880D4810F809100198F5F751FAB5FBEE
:105F2000F6F5002DF1D10BF0010048B144B104E0C9
:105F3000641E20210198F5F743FA0CB1A245F7D36E
:105F400005B0BDE8F08F0000E06A020010B5002245
:105F5000074908480078F4F7A9FD04463CB9002237
:105F6000054906480078F4F7A1FD044600BF10BDBE
:105F70008DB90100701A0020C1B40100741A00200C
:105F8000F8B506463546A8B2F7F7D8FC04466CB318
:105F9000207A1749097B88420ADAA8B204F10A017B
:105FA000FEF723FE074617B1207A401C20721DE041
:105FB000002020720E48007C50B1A8B23B2176DF51
:105FC000074627B1082F02D03846FEF791FD00BFE3
:105FD0000748406950B100208DF80000A8B2ADF824
:105FE0000200034841696846884700BFF8BD0000C9
:105FF000341E002010B50446607940B194F8F200D8
:1060000028B9204600F0F2F808B1012010BD0020A8
:10601000FCE7000010B5044621460248F8F797FC5B
:1060200010BD0000501E002070B50446207A80B1DB
:106030006088002166DF054615B90020207207E060
:10604000112D02D10120207202E0284661688847A4
:1060500000BF70BD70B505460E462846F5F7D2F96B
:1060600004462CB1606818B13146284662689047F2
:1060700070BD2DE9FC478046894615469A46DDE904
:106080000A675346022249464046CDE9006700F0C0
:1060900017F8044600BF204608B1BDE8FC8700BFE2
:1060A0005346102229464046CDE9006700F008F823
:1060B000044600BF204600B1EFE700BF0020ECE738
:1060C0002DE9FF5F07468B4696461D460E9C4FF016
:1060D000000920880390C84647E0786800EB8800F4
:1060E00000680190002202A901A864DF064600BFF3
:1060F000304610B104B0BDE8F09F00BF9DF8080025
:10610000704530D1B9F1000F01D0002000E002202D
:10611000009020889DF808100144009801440F98D1
:10612000814201DD0C20E5E7B9F1000F0AD120889A
:10613000401C2080208805F800B02088401C20806A
:106140004FF001092088421902A901A864DF064620
:1061500000BF304600B1CDE700BF21889DF80800A0
:106160000844208000BF08F1010838884045B4DCAD
:10617000B9F1000F0DD021880398401C081A1FFAAE
:1061800080FABAF1FF0F01DD0C20B3E7039805F8A0
:1061900000A00020AEE72DE9F04106460F46042E90
:1061A00022D20FB1032000E0002005463046F4F76C
:1061B0001DFF044600BF4FF0A041084600F5E06116
:1061C00051F8241021F4403200F5E06141F8242018
:1061D00051F8241041EA054200F5E06141F824201D
:1061E00000BF0020BDE8F0810620FBE7014691F8E2
:1061F000F400704702460020704700002DE9F84384
:1062000005460E4617469846DDF8209069460F4829
:106210000068F8F70EFB044614B90420BDE8F883C3
:106220001C212046F3F70BF9002020712560C4F8EB
:1062300008902661E760C4F8148069460348006846
:10624000F8F721FBFDF73CFD0020E7E75C6B02005F
:106250008178012909D006290AD0072902D0082906
:106260000FD108E0142101800CE00121018009E038
:106270000121018006E0416889880931890801808F
:1062800000E000BF00BF70472DE9FC410446002537
:10629000002000900190A0788DF80200617A3248C9
:1062A000FCF712FB06466EB9627A3049304BC91AC8
:1062B000C908012343EA01402EA1F9F797FD032005
:1062C000BDE8FC81237AA17832466846FCF72DF8B8
:1062D0006846FFF7BDFF2088221D6946FBF7A0FF37
:1062E000054635B1072D28D0112D0BD0862D25D18F
:1062F00016E0A07A20F00200A072A07A20F001003F
:10630000A0722DE0A07A20F00200801CA072A07A7A
:1063100020F00100A07201202649087000251FE02E
:10632000A07A20F00200A072A07A20F00100401CA8
:10633000A07201201F49087012E011E02846FAF708
:10634000BBFA074623880949094A891AC908012264
:1063500042EA01403A4618A1F9F754FD032500BF6F
:1063600000BF2846ACE70000A41F00207887020089
:1063700050870200706D5F6275666665725F70744B
:10638000725F676574282920636F756C64206E6F77
:10639000742072657472696576652052414D206281
:1063A00075666665722E20626C6F636B5F69643A16
:1063B00020256400911A00207064735F7065657217
:1063C0005F646174615F73746F7265282920726500
:1063D0007475726E65642025732E20706565725F1A
:1063E00069643A202564000070B586B005462846E9
:1063F000FFF74AFF044634B34FF6FF70ADF80600CE
:106400002888ADF80800862C03D106208DF80400FA
:1064100013E007208DF8040003942046FAF74CFAA5
:1064200006462B8809490A4A891AC908012242EA04
:10643000014032460749F9F7E5FC01A8FBF758FC93
:10644000002006B070BD0120FBE700007887020045
:10645000508702004074020070B504460D4616468F
:1064600004B970BD00F062F82060206800B9F8E758
:10647000206805802068867000BFF2E7F8B5064600
:106480000D46002000906946304600F01DF8044695
:1064900007E00098401C00906946304600F014F870
:1064A00004467CB1A078A842F3D1A07AC0F34000A2
:1064B0000028EED1A07A00F001000028E9D1606840
:1064C0000028E6D12046F8BD10B503460A461168FB
:1064D0000DE001EB4100084C34F82000984205D152
:1064E000116001EB410004EB800010BD491C042940
:1064F000EFD30020F9E70000B41F0020024600217E
:106500000DE001EB4100084B03EB80004068904236
:1065100004D101EB410003EB80007047491C0429C2
:10652000EFDB0020F9E70000B41F002010B5FF21C9
:106530004FF6FF70FFF7A2FF10BD4FF6FF7101800D
:10654000FF2181704172817A21F002018172817A8A
:1065500021F0010181720021017241607047000049
:1065600070B50446002506E0607A2844C1B20548AB
:10657000FCF7C2F96D1C207AA842F5D82046FFF737
:10658000DCFF70BDA41F00202DE9FC5F06460D4610
:10659000174698464FF0000BDA463348007818B992
:1065A00048F20160BDE8FC9F15B948F20460F9E7C4
:1065B00028884FF6FF71884201D0688810B948F2E8
:1065C0000360EFE76868F7F7D4FB10B948F20260A0
:1065D000E8E767B928891FFA80FA01A9504600F058
:1065E000E9F88146B9F1000F05D04846DAE7388866
:1065F0000190B7F802A06846FDF742FA04463CB99C
:10660000BDF80410504600F0C3F848F20760C9E72F
:1066100084F800800021A175BDF80410A18269688A
:106620002161FDF743FDE060298821816888A08011
:10663000A4F806A0B8F1030F03D10421A1753168B5
:10664000A161A4F80AB06846FDF72AFA46B1002015
:106650007060E06830600020B072044800893081CA
:10666000FDF722FB00209DE7E01B0020E82300202F
:106670002DE9F04107460D46A88A00EB80002B4922
:1066800001EB80063FB129463046FBF78FF94FF406
:106690000640BDE8F0813189706800EB8108A87D73
:1066A000072838D2DFE800F01224181E042A34002C
:1066B00000201F494860A86908601E491C48FDF772
:1066C0000DFC10B948F20960E3E700BF41462846D7
:1066D000FDF79EFC044621E041462846FDF7CAFC32
:1066E00004461BE041462846FDF736FD044615E00A
:1066F00041462846FDF7A2FC04460FE00621A97595
:106700000B4948680B490988FDF762FC044605E01F
:1067100041F61D5402E048F20E6400BF00BF1CB1F8
:1067200029463046FBF742F92046B2E7C023002055
:10673000F8230020041C00202DE9F0410446D4E990
:106740000510081AB0F5805F03D2D4E90510081AC5
:1067500001E04FF4805005460C484068B5FBF0F06E
:10676000012804D909484068B5FBF0F000E0012099
:1067700005462169A0690E18E168A0690F182A462C
:106780003946304629DFBDE8F0810000506B020039
:1067900010B501EB8102064B03EB82025389C21C48
:1067A0009A1A01EB8103024C04EB83035A8110BD5A
:1067B000C02300202DE9F04107460E464FF00008A7
:1067C000F81C85B240F2FE30854203DD48F20860D5
:1067D000BDE8F08100241DE004EB8400134911F8AA
:1067E0002000A8B929462046FBF7AEF880B14FF04B
:1067F0000108348004EB84000C4901EB80004089DF
:10680000284404EB8401094A02EB8101488103E03A
:10681000601C84B2022CDFDB00BFB8F1000F01D096
:106820000020D5E748F20660D2E70000C023002030
:106830000D0E0F10E01D00200D000300ADB0010093
:106840000E000300ADB001000F000300ADB0010069
:1068500010000300ADB001000700000000000000C0
:106860000000000000000000000000000600000022
:106870000000000000000000000000000000000018
:1068800002000000000000001000000000000000F6
:106890000000000000000000000000000100FFFFF9
:1068A00001000000000000000100090000000000DD
:1068B00011000000000000000000000000000000C7
:1068C000000000000100000001000100C468020097
:1068D0000000000001000100D06802001531020034
:1068E0005DCF0100770A000000000000770A000079
:1068F00000000000991D02000700000000000000D9
:106900000000000000000000000000005D330200F5
:10691000D152020039D3010069D00100706D5F6966
:106920006E697400706D5F706565725F6E6577008B
:10693000706D5F70656572735F64656C657465002A
:1069400001000600A01A0020061000007C7802005A
:106950003D1000005C780200001100000C7902007C
:106960000111000064790200060000000000000030
:10697000000000000000000000000000A153020021
:106980000100000000000000000000000000000006
:1069900000000000070000000000000000000000F0
:1069A00000000000000000000600000000000000E1
:1069B00000000000000000000000000003000000D4
:1069C00000000000000000000000000000000000C7
:1069D00005000000000000000000000000000000B2
:1069E000000000007365635F6B65797365745F66B3
:1069F000696C6C0069380200E00000000000005083
:106A00006E7266785F6770696F74655F696E6974CE
:106A1000006E7266785F6770696F74655F6F75741A
:106A20005F696E6974006E7266785F6770696F7413
:106A3000655F696E5F696E69740000006E726678EA
:106A40005F756172745F696E69740000210E0200E7
:106A50006E7266785F756172745F7478006E7266CC
:106A6000785F756172745F72780000006E7266788C
:106A70005F75617274655F696E697400B10F0200C1
:106A80006E7266785F75617274655F7478006E729D
:106A900066785F75617274655F727800702200209D
:106AA00003000000F822002000000000D01B00209E
:106AB00081B6010001000600000000000000000097
:106AC0000738FDD870470000B0230020DEC0ADDEDF
:106AD000FF011EF1DEC0ADDEFE011EF10000FFFF72
:106AE0003031323334353637383941424344454604
:106AF0006E72665F6673746F726167655F696E69F7
:106B000074006E72665F6673746F726167655F753D
:106B10006E696E6974006E72665F6673746F72611F
:106B200067655F72656164006E72665F6673746F3D
:106B3000726167655F7772697465006E72665F6621
:106B400073746F726167655F6572617365000000E1
:106B5000001000000400000001000000902400204C
:106B6000CDD70100715E0200513D0200FD610200BF
:106B700045BE010041420200F5610200D5DC010082
:106B80000000000000000000000000000000000005
:106B90000000000000000000806B0200986B020003
:106BA00004000000556E6B6E6F776E206572726F19
:106BB0007220636F64650000000000003C830200E7
:106BC00001000000E881020002000000DC7F0200FA
:106BD000030000005C82020004000000B08202009A
:106BE0000500000090810200060000002C810200D8
:106BF000070000009882020008000000A481020043
:106C000009000000088202000A000000248302003C
:106C10000B000000C47F02000C000000BC810200D9
:106C20000D0000008C8302000E000000888202002C
:106C30000F000000C482020010000000F882020071
:106C400011000000A0830200120000007483020003
:106C50001300000010830200800000004481020045
:106C6000810000008080020082000000408002005D
:106C70008300000020800200840000005C8002008D
:106C8000850000006881020086000000708202001A
:106C9000900000000C8102009100000000800200C2
:106CA00092000000D081020000820000D882020021
:106CB0000182000024820200028200004082020061
:106CC000008400009C8002000184000048830200D0
:106CD00002840000E480020003840000C0800200FF
:106CE000D5F80100D3F80100C9F801000000000048
:106CF0000738FDD8704700002DFA0100F5F90100B2
:106D0000E7F90100FFFFFFFFFFFFFFFFFFFFFFFFAE
:106D1000FFFFFFFF00000000000000000000D601A0
:106D200006010000002600207F00000080260020D1
:106D30006C8802007488020000000000000000005F
:106D4000306D0200406D02000800000094880200CF
:106D5000A488020000000000000000004C6D02004A
:106D60005C6D020008000000848802009488020024
:106D70000000000000000000686D0200786D020055
:106D800008000000001002002C8802003488020075
:106D9000348802005C8802005C880200648802007B
:106DA000648802006C880200886D0200A86D0200F1
:106DB00008000000401A0020748802008488020045
:106DC0000000000000000000B86D0200C86D020065
:106DD00008000000004040404040404040404141E9
:106DE00041414140404040404040404040404040A0
:106DF000404040404005020202020202020202023A
:106E00000202020202202020202020202020200236
:106E100002020202020290909090909010101010C6
:106E20001010101010101010101010101010101062
:106E300002020202020288888888888808080808F6
:106E400008080808080808080808080808080808C2
:106E50000202020240000000D56D0200436F756C13
:106E600064206E6F74206163717569726520636F51
:106E70006E6E5F7374617465207573657220666CE5
:106E80006167732E20496E63726561736520424CA1
:106E9000455F434F4E4E5F53544154455F555345F4
:106EA000525F464C41475F434F554E5420696E2018
:106EB00074686520626C655F636F6E6E5F7374618A
:106EC0007465206D6F64756C652E0000434152201F
:106ED000636861722076616C756520636F756C64A0
:106EE0006E27742062652073746F72656420286554
:106EF00072726F723A202573292E20526561747464
:106F0000656D70742077696C6C2068617070656E57
:106F1000206F6E20746865206E65787420636F6ED4
:106F20006E656374696F6E2E000000006773636D99
:106F30005F6C6F63616C5F64625F63616368655F10
:106F40006170706C7928292072657475726E656441
:106F50002025732077686963682073686F756C6497
:106F6000206E6F742068617070656E2E20636F6E86
:106F70006E5F68616E646C653A20256400000000F5
:106F8000546865206C6F63616C2064617461626138
:106F9000736520686173206368616E6765642C2087
:106FA000736F20736F6D65207375627363726970A0
:106FB00074696F6E7320746F206E6F746966696395
:106FC0006174696F6E7320616E6420696E646963B9
:106FD0006174696F6E7320636F756C64206E6F747B
:106FE00020626520726573746F72656420666F72CB
:106FF00020636F6E6E5F68616E646C65202564004F
:107000007064735F706565725F646174615F7374EF
:107010006F726528292072657475726E656420250B
:1070200073207768696C652073746F72696E67206E
:1070300073657276696365206368616E6765647302
:107040007461746520666F72207065657220696472
:107050002025642E0000000073645F626C655F672A
:10706000617474735F696E697469616C5F7573656F
:10707000725F68616E646C655F6765742829207251
:10708000657475726E65642025732077686963681E
:107090002073686F756C64206E6F74206861707007
:1070A000656E2E0044696420616E6F74686572209D
:1070B000746872656164206D616E6970756C61746D
:1070C0006520504D5F504545525F444154415F49F2
:1070D000445F474154545F4C4F43414C20666F72AC
:1070E00020706565725F6964202564206174207476
:1070F00068652073616D652074696D653F207064FB
:10710000625F77726974655F6275665F72656C65F0
:1071100061736528292072657475726E6564202517
:10712000732E000073645F626C655F6761747473D3
:107130005F7379735F617474725F7365742829205B
:1071400072657475726E6564204E52465F45525288
:107150004F525F494E56414C49445F44415441208F
:10716000666F72204E554C4C20706F696E7465725C
:107170002077686963682073686F756C64206E653A
:107180007665722068617070656E2E20636F6E6E1A
:107190005F68616E646C653A2025640052657175A4
:1071A000657374696E6720746F20757064617465AF
:1071B00020415454204D545520746F202575206271
:1071C00079746573206F6E20636F6E6E656374698A
:1071D0006F6E203078257820287265747279292E98
:1071E0000000000073645F626C655F6761747463C4
:1071F0005F65786368616E67655F6D74755F726502
:1072000071756573742829206F6E20636F6E6E65CB
:107210006374696F6E20307825782072657475729A
:107220006E656420627573792C2077696C6C2072AE
:10723000657472792E000000436F756C64206E6F68
:107240007420696E697469616C697A6520666C6125
:1072500073682073746F726167652E206664735F54
:107260007265676973746572282920726574757216
:107270006E656420307825782E000000436F756CB1
:1072800064206E6F74207772697465206461746124
:1072900020746F20666C6173682E206664735F7261
:1072A00065636F72645F7B77726974657C75706407
:1072B0006174657D28292072657475726E6564201D
:1072C000307825782E20706565725F69643A2025D4
:1072D00064000000436F756C64206E6F74206465F9
:1072E0006C657465207065657220646174612E2020
:1072F0006664735F66696C655F64656C6574652858
:10730000292072657475726E656420307825782046
:10731000666F7220706565725F69643A202564004B
:1073200043616E6E6F742073746F72652064617454
:107330006120746F20666C6173682062656361759B
:10734000736520706D5F6275666665725F707472DA
:107350005F676574282920636F756C64206E6F7495
:107360002072657472696576652052414D206275A0
:10737000666665722E20497320626C6F636B5F696D
:1073800064202564206E6F7420616C6C6F6361747F
:1073900065643F007064625F77726974655F6275EF
:1073A000665F72656C656173652829207265747506
:1073B000726E65642025732077686963682073683E
:1073C0006F756C64206E6F742068617070656E2ECE
:1073D00020706565725F69643A2025642C206461C1
:1073E00074615F69643A202564000000506565722D
:1073F00020494420256420776173206E6F742070CB
:10740000726F7065726C792072656C65617365640A
:107410002E207064735F706565725F69645F667269
:10742000656528292072657475726E656420257300
:107430002E20706565725F69643A20256400000043
:10744000536F6D652070656572206461746120778B
:107450006173206E6F742070726F7065726C79202A
:107460007772697474656E20746F20666C617368DE
:107470002E2077726974655F6275665F73746F72D0
:107480006528292072657475726E656420257320E5
:10749000666F7220706565725F69643A20256400CA
:1074A000436F756C64206E6F7420726574726569C9
:1074B00076652072616E6B732E207064625F7065FA
:1074C00065725F646174615F6C6F6164282920720A
:1074D000657475726E65642025732E207065657203
:1074E0005F69643A20256400257328292066616954
:1074F0006C656420626563617573652061206361FA
:107500006C6C20746F20706D5F706565725F646570
:107510006C65746528292072657475726E656420C7
:1075200025732E20706565725F69643A20256400BA
:107530004F75746461746564202830290000000070
:107540004F7574646174656420283229000000005E
:107550004F7574646174656420283329000000004D
:10756000706D5F636F6E6E5F7365637572652829FA
:10757000206661696C65642062656361757365206E
:10758000616E20534D502074696D656F757420696C
:10759000732070726576656E74696E6720736563BB
:1075A0007572697479206F6E20746865206C696EDD
:1075B0006B2E20446973636F6E6E656374696E67CA
:1075C00020636F6E6E5F68616E646C652025642E4B
:1075D00000000000706D5F636F6E6E5F73656375B2
:1075E00072652829206661696C6564206265636143
:1075F00075736520636F6E6E5F68616E646C652085
:107600002564206973206E6F7420612076616C6937
:107610006420636F6E6E656374696F6E2E00000088
:10762000706D5F636F6E6E5F736563757265282939
:10763000206661696C6564206265636175736520AD
:107640007468652073746F7265642064617461206E
:10765000666F7220636F6E6E5F68616E646C65202A
:10766000256420646F6573206E6F74206861766591
:1076700020612076616C6964206B65792E000000C2
:10768000504D5F4556545F434F4E4E5F5345435FE9
:10769000535543434545444544000000504D5F4524
:1076A00056545F504545525F444154415F555044E4
:1076B0004154455F5355434345454445440000000C
:1076C000504D5F4556545F504545525F44454C45CB
:1076D00054455F535543434545444544000000002D
:1076E000504D5F4556545F50454552535F44454C9D
:1076F0004554455F535543434545444544000000C8
:10770000504D5F4556545F4C4F43414C5F44425F80
:1077100043414348455F4150504C494544000000B7
:10772000504D5F4556545F434F4E4E5F5345435F48
:107730004641494C45440000504D5F4556545F500A
:107740004545525F444154415F5550444154455F63
:107750004641494C45440000504D5F4556545F50EA
:107760004545525F44454C4554455F4641494C456B
:1077700044000000504D5F4556545F5045455253FC
:107780005F44454C4554455F4641494C45440000E3
:10779000504D5F4556545F464C4153485F474152F8
:1077A000424147455F434F4C4C454354494F4E5F20
:1077B0004641494C45440000504D5F4556545F4C8E
:1077C0004F43414C5F44425F43414348455F415012
:1077D000504C595F4641494C45440000504D5F456F
:1077E00056545F534552564943455F4348414E47BF
:1077F00045445F494E445F434F4E4649524D4544D0
:1078000000000000504D5F4556545F464C415348C0
:107810005F474152424147455F434F4C4C454354BB
:1078200045440000504D5F4556545F424F4E44451D
:10783000445F504545525F434F4E4E454354454487
:1078400000000000504D5F4556545F4552524F5264
:107850005F554E455850454354454400504D5F4395
:107860004F4E4E5F5345435F4552524F525F4D4915
:10787000435F4641494C555245000000504D5F431F
:107880004F4E4E5F5345435F4552524F525F5049F2
:107890004E5F4F525F4B45595F4D495353494E47D9
:1078A00000000000504D5F4556545F53544F524105
:1078B00047455F46554C4C00504D5F4556545F431D
:1078C0004F4E4E5F5345435F434F4E4649475F52CD
:1078D00045510000504D5F4556545F434F4E4E5F3B
:1078E0005345435F504152414D535F524551000053
:1078F000504D5F4556545F534C4156455F53454389
:1079000055524954595F524551000000504D5F4354
:107910004F4E4E5F5345435F4552524F525F44496D
:1079200053434F4E4E45435400000000504D5F45B9
:1079300056545F534552564943455F4348414E476D
:1079400045445F494E445F53454E5400504D5F459A
:1079500056545F434F4E4E5F5345435F535441521D
:1079600054000000504D5F434F4E4E5F5345435F00
:107970004552524F525F534D505F54494D454F55FC
:1079800054000000426F6E64696E67206461746128
:10799000000000004170706C69636174696F6E2053
:1079A0006461746100000000436F6E6E656374690A
:1079B0006F6E207365637572697479206661696C96
:1079C00065643A20726F6C653A2025732C20636FD2
:1079D0006E6E5F68616E646C653A20307825782C35
:1079E0002070726F6365647572653A2025732C2070
:1079F0006572726F723A202564000000496E7661EC
:107A00006C696420526F6C650000000052656D6FF8
:107A10007465206461746162617365004C6F6361B9
:107A20006C2064617461626173650000557064610B
:107A30007465000044656C6574650000536572767A
:107A4000696365206368616E6765642070656E6454
:107A5000696E6720666C616700000000426F6E64AB
:107A6000696E670050616972696E67005065657282
:107A70002072616E6B0000005065726970686572FB
:107A8000616C000043656E7472616C00456E6372D8
:107A9000797074696F6E000043656E7472616C205A
:107AA00061646472657373207265736F6C75746959
:107AB0006F6E00005065657220646174612075709E
:107AC0006461746564206661696C65643A20706500
:107AD00065725F69643A2025642C20646174615F7B
:107AE00069643A2025732C20616374696F6E3A20B3
:107AF00025732C206572726F723A20257300000086
:107B0000506565722064617461207570646174658C
:107B10006420696E20666C6173683A2070656572D6
:107B20005F69643A2025642C20646174615F696434
:107B30003A2025732C20616374696F6E3A20257397
:107B400025730000436F756C64206E6F7420636F43
:107B50006D706C65746520656E6372797074696FA1
:107B60006E2070726F6365647572652E2073645F3A
:107B7000626C655F6761705F7365635F696E666F96
:107B80005F7265706C7928292072657475726E65F4
:107B9000642025732E20636F6E6E5F68616E646C67
:107BA000653A2025642C20706565725F69643A200F
:107BB00025642E00436F756C64206E6F7420636CB7
:107BC00065616E20757020616674657220666169FA
:107BD0006C656420626F6E64696E672070726F639B
:107BE00065647572652E207064625F777269746572
:107BF0005F6275665F72656C6561736528292072C6
:107C0000657475726E65642025732E20636F6E6EC9
:107C10005F68616E646C653A2025642E0000000088
:107C200052414D2062756666657220666F72206EE5
:107C3000657720626F6E642077617320756E617660
:107C400061696C61626C652E207064625F77726935
:107C500074655F6275665F67657428292072657454
:107C600075726E65642025732E20636F6E6E5F687B
:107C7000616E646C653A2025642E0000696D5F6258
:107C80006C655F616464725F676574282920726542
:107C90007475726E65642025732E20636F6E6E5F3F
:107CA00068616E646C653A2025642E204C696E6BA9
:107CB00020776173206C696B656C792064697363EC
:107CC0006F6E6E65637465642E00000073645F629E
:107CD0006C655F6761705F7365635F696E666F5F38
:107CE0007265706C7928292072657475726E65648E
:107CF000204E52465F45524F525F494E56414C49C5
:107D0000445F53544154452C207768696368206967
:107D10007320616E6572726F7220756E6C6573731D
:107D200020746865206C696E6B20697320646973C8
:107D3000636F6E6E656374696E672E00436F756C5A
:107D400064206E6F742073746F726520626F6E644E
:107D50002E207064625F77726974655F6275665F1A
:107D600073746F726528292072657475726E65640C
:107D70002025732E20636F6E6E5F68616E646C6584
:107D80003A2025642C20706565725F69643A20256D
:107D900064000000436F756C64206E6F7420726520
:107DA0007472696576652052414D2062756666651C
:107DB0007220666F7220696E636F6D696E672062F4
:107DC0006F6E642E207064625F77726974655F62A3
:107DD00075665F67657428292072657475726E65B3
:107DE000642025732E20636F6E6E5F68616E646C15
:107DF000653A20256400000043616E6E6F74207345
:107E00006563757265206C696E6B20626563617570
:107E1000736520612070726576696F757320736574
:107E20006375726974792070726F636564757265C9
:107E300020656E64656420696E2074696D656F7578
:107E4000742E20446973636F6E6E65637420616E77
:107E5000642072657472792E20736D645F70617234
:107E6000616D735F7265706C792829206F72207361
:107E70006D645F6C696E6B5F7365637572652829ED
:107E80002072657475726E6564204E52465F45526D
:107E9000524F525F54494D454F55542E20636F6EDB
:107EA0006E5F68616E646C653A20256400000000B6
:107EB000436F756C64206E6F7420706572666F72AC
:107EC0006D2073656375726974792070726F636574
:107ED000647572652E20736D645F6C696E6B5F7381
:107EE000656375726528292072657475726E6564A4
:107EF0002025732E20636F6E6E5F68616E646C6503
:107F00003A20256400000000436F756C64206E6F9A
:107F10007420706572666F726D2073656375726927
:107F200074792070726F6365647572652E20736D4D
:107F3000645F706172616D735F7265706C7928291E
:107F4000206F7220736D645F6C696E6B5F73656325
:107F500075726528292072657475726E65642025B6
:107F6000732E20636F6E6E5F68616E646C653A207D
:107F700025640000616464725F69735F7769746887
:107F8000696E5F626F756E647328705F66732C2014
:107F9000706167655F616464722C20286C656E2077
:107FA0002A20705F66732D3E705F666C6173685F38
:107FB000696E666F2D3E65726173655F756E69747B
:107FC000292900004E52465F4552524F525F494E9A
:107FD00056414C49445F4441544100004E52465F73
:107FE0004552524F525F534F4654444556494345BC
:107FF0005F4E4F545F454E41424C454400000000E7
:108000004E52465F4552524F525F4645415455527B
:10801000455F4E4F545F454E41424C454400000081
:108020004E52465F4552524F525F4D555445585F30
:10803000554E4C4F434B5F4641494C454400000070
:108040004E52465F4552524F525F4D555445585F10
:108050004C4F434B5F4641494C4544004E52465FAE
:108060004552524F525F4D555445585F434F4E4411
:108070005F494E49545F4641494C45440000000069
:108080004E52465F4552524F525F4D555445585FD0
:10809000494E49545F4641494C4544004E52465F63
:1080A0004552524F525F424C455F495053505F52C8
:1080B000585F504B545F5452554E43415445440011
:1080C0004E52465F4552524F525F424C455F4950B7
:1080D00053505F504545525F52454A4543544544CD
:1080E000000000004E52465F4552524F525F424CD4
:1080F000455F495053505F4C494E4B5F4449534391
:108100004F4E4E4543544544000000004E52465FDA
:108110004552524F525F4150495F4E4F545F494D57
:10812000504C454D454E5445440000004E52465F6C
:108130004552524F525F4E4F545F535550504F521D
:10814000544544004E52465F4552524F525F4D4F88
:1081500044554C455F4E4F545F494E495449414C3C
:10816000495A4544000000004E52465F4552524F66
:10817000525F4D4F44554C455F414C524541445927
:108180005F494E495449414C495A4544000000005A
:108190004E52465F4552524F525F4E4F545F464FCC
:1081A000554E44004E52465F4552524F525F494E23
:1081B00056414C49445F5354415445004E52465F2A
:1081C0004552524F525F444154415F53495A450012
:1081D0004E52465F4552524F525F494F5F50454E97
:1081E00044494E47000000004E52465F4552524FF0
:1081F000525F5356435F48414E444C45525F4D4990
:108200005353494E470000004E52465F4552524F6D
:10821000525F494E56414C49445F4C454E47544885
:10822000000000004E52465F4552524F525F44528A
:10823000565F5457495F4552525F414E41434B0090
:108240004E52465F4552524F525F4452565F54570A
:10825000495F4552525F444E41434B004E52465F88
:108260004552524F525F494E5445524E414C0000C8
:108270004E52465F4552524F525F53544F52414700
:10828000455F46554C4C00004E52465F4552524F9A
:10829000525F4E554C4C00004E52465F4552524F75
:1082A000525F494E56414C49445F504152414D0046
:1082B0004E52465F4552524F525F4E4F5F4D454DB5
:1082C000000000004E52465F4552524F525F464FEB
:1082D0005242494444454E004E52465F4552524F29
:1082E000525F4452565F5457495F4552525F4F5652
:1082F000455252554E0000004E52465F4552524F75
:10830000525F494E56414C49445F4144445200003B
:108310004E52465F4552524F525F5245534F55524F
:10832000434553004E52465F4552524F525F494EAD
:1083300056414C49445F464C414753004E52465FBC
:1083400053554343455353004E52465F4552524F97
:10835000525F424C455F495053505F4348414E4E37
:10836000454C5F414C52454144595F45584953542F
:10837000530000004E52465F4552524F525F434FEA
:108380004E4E5F434F554E54000000004E52465F24
:108390004552524F525F54494D454F5554000000CD
:1083A0004E52465F4552524F525F4255535900005C
:1083B0007761726E696E67006465627567000000C0
:1083C0001B5B313B33306D001B5B306D00000000E8
:1083D0001B5B313B33316D001B5B313B33326D0036
:1083E0001B5B313B33336D001B5B313B33346D0022
:1083F0001B5B313B33356D001B5B313B33366D000E
:108400001B5B313B33376D00696E666F0000000007
:108410006572726F7200000073645F626C655F6307
:1084200066675F73657428292072657475726E655E
:1084300064202573207768656E20617474656D70A3
:1084400074696E6720746F2073657420424C455FB9
:1084500047415454535F4346475F5345525649433F
:10846000455F4348414E4745442E000073645F62B8
:108470006C655F6366675F73657428292072657435
:1084800075726E6564202573207768656E2061744F
:1084900074656D7074696E6720746F2073657420E5
:1084A000424C455F434F4D4D4F4E5F4346475F56ED
:1084B000535F555549442E0073645F626C655F637A
:1084C00066675F73657428292072657475726E65BE
:1084D00064202573207768656E20617474656D7003
:1084E00074696E6720746F2073657420424C455F19
:1084F00047415454535F4346475F415454525F547D
:1085000041425F53495A452E0000000073645F6288
:108510006C655F6366675F73657428292072657494
:1085200075726E6564202573207768656E206174AE
:1085300074656D7074696E6720746F207365742044
:10854000424C455F434F4E4E5F4346475F47415065
:108550002E00000073645F626C655F6366675F7323
:10856000657428292072657475726E6564202573A0
:10857000207768656E20617474656D7074696E67CC
:1085800020746F2073657420424C455F4741505FF3
:108590004346475F524F4C455F434F554E542E0064
:1085A000706565725F6D616E616765725F67636D4F
:1085B00000000000706565725F6D616E61676572D5
:1085C0005F6773636D000000706565725F6D616E5B
:1085D000616765725F696D006E72665F626C655F90
:1085E0006761747400000000706565725F6D616E94
:1085F000616765725F70647300000000706565728A
:108600005F6D616E616765725F706462000000009B
:10861000706565725F6D616E616765720000000074
:10862000706565725F6D616E616765725F68616ECE
:10863000646C657200000000706565725F6D616E4C
:10864000616765725F736D6400000000706565723C
:108650005F6D616E616765725F736D00636C6F6300
:108660006B000000434C4F434B0000004750494F04
:108670005445000050525300554152540000000030
:1086800055415254450000006170705F627574740A
:108690006F6E00006170705F74696D65720000003C
:1086A0006E72665F6673746F7261676500000000CA
:1086B0007077725F6D676D7400000000736F727485
:1086C0006C697374000000007274745F6C6F675F94
:1086D0006261636B656E6400756172745F6C6F6775
:1086E0005F6261636B656E64000000006170700022
:1086F0006E72665F736468006E72665F7364685F53
:10870000626C65006E72665F7364685F736F6300AE
:10871000A4880200401A00207C020000B4940100EA
:1087200088890200BC1C0020841800000E9A0100F9
:10873000E06C020000000000C88602003C1C002023
:10874000F86C020000000000D8860200441C0020E3
:10875000A085020000000303B485020000000303AB
:10876000C885020000000303D8850200000004044D
:10877000E885020000000303FC85020000000303FB
:10878000108602000000030320860200000003039D
:1087900038860200000003034C8602000000030339
:1087A0005C860200000000006486020000000000F9
:1087B0006C860200000000007486020000000000C9
:1087C00078860200000000008086020000000000A1
:1087D000888602000000000094860200000000006D
:1087E000A086020000000404B08602000000000021
:1087F000BC86020000000000EC86020000000404B9
:10880000F086020000000303F88602000000030364
:108810000487020000000303541C00204C1C0020AD
:10882000541C00204025002018000000B1AE0100BB
:10883000000000008DEB0100BC1C0020F7A7010028
:10884000D81C0020F9AD01000000000071AE01004D
:108850000000000059AF010000000000FBEC010027
:10886000CC1C00205DAC0100000000000DF30100F5
:1088700000000000C55502000000000055F3010093
:108880000000000085050200000000004107020012
:1088900000000000C54502000000000029F30100AF
:1088A00000000000061FFFFF0A18010411952902AD
:1088B0000A11A114011C14FC790214787A021A849A
:1088C000041A8C041A5C041A6404142478021A4CE6
:1088D0001C14807602142077021AB8101AD4041AD5
:1088E000A4041A44041A9C181A38181AC0081A58F2
:1088F000081AE0081A740811292C19041A2C3C1AB9
:10890000DC081AF02C1A04041A900C143075021AA0
:108910003C5C1A40081A50041A94241A0C102A6C51
:1089200080190C1A1C081A98041A2C041A34041101
:10893000DB01FF01711A1801011709191B011E152E
:10894000100140110272041220BA40087169EB69EB
:108950000809121C1410840214B083021A08081AA1
:10896000B8081AC8041AC0041AD0041AD8041AE0A5
:10897000041AE8041AF0041AF804111928D1849092
:08898000D00394EFC8010000D0
:040000050001920163
:00000001FF
