:020000040001F9
:10900000283B0020C1930100EB930100ED93010088
:10901000EF930100F1930100F393010000000000C1
:10902000000000000000000000000000F5930100B7
:10903000F793010000000000F9930100FB93010089
:1090400045960100FD930100699A0100FD9301001E
:10905000FD93010000000000A1950100FD930100B7
:10906000FD930100FD930100FD930100FD930100BC
:10907000FD930100FD930100FD930100FD930100AC
:10908000FD9301009D960100FD930100FD930100F9
:10909000FD930100FD9301000D970100FD93010078
:1090A000FD930100FD93010000000000000000009E
:1090B000FD930100FD93010000000000000000008E
:1090C00000000000000000000000000000000000A0
:1090D0000000000000000000000000000000000090
:1090E0000000000000000000000000000000000080
:1090F0000000000000000000000000000000000070
:10910000000000000000000000000000000000005F
:10911000000000000000000000000000000000004F
:10912000000000000000000000000000000000003F
:10913000000000000000000000000000000000002F
:10914000000000000000000000000000000000001F
:10915000000000000000000000000000000000000F
:1091600000000000000000000000000000000000FF
:1091700000000000000000000000000000000000EF
:1091800000000000000000000000000000000000DF
:1091900000000000000000000000000000000000CF
:1091A00000000000000000000000000000000000BF
:1091B00000000000000000000000000000000000AF
:1091C000000000000000000000000000000000009F
:1091D000000000000000000000000000000000008F
:1091E000000000000000000000000000000000007F
:1091F000000000000000000000000000000000006F
:10920000DFF80CD000F08EF900480047DDBE010009
:10921000283B002030B450E8012F93B2C489234486
:109220008489A34228BF1B1B0489A34202BFBFF34A
:109230002F8F002007E0C3EA020340E80134002C2E
:10924000E9D14FF001000A6030BC704750E8012FAF
:10925000C2EA024240E801210029F7D1704730B448
:1092600050E8022F1FFAA2F3C488A34202BFBFF343
:109270002F8F00200DE0C48923448489A34228BF96
:109280001B1BC2EA034340E80234002CE8D14FF034
:1092900001000A6030BC704750E8022FC2EA224247
:1092A00040E802210029F7D17047034653E8022F16
:1092B000D988B2EB324F4FF0000017BF92B241EAAB
:1092C000014142EA014104E05A68B2EB324F08BF63
:1092D000012043E80212002AE8D1704730B4044666
:1092E00054E8000F0D4644E80053002BF8D11560F8
:1092F00030BC704730B4044654E8000F40EA010522
:1093000044E80053002BF7D1156030BC704730B4EF
:10931000044654E8000F00EA010544E80053002B1E
:10932000F7D1156030BC704730B4044654E8000FE4
:1093300080EA010544E80053002BF7D1156030BCEA
:10934000704730B4044654E8000F00EB010544E8D0
:109350000053002BF7D1156030BC704730B4044681
:1093600054E8000FA0EB010544E80053002BF7D1AF
:10937000156030BC704770B404464FF0000054E8EC
:10938000006F0D68AE4207BF44E80023012044E8A7
:1093900000630E60002B1CBF0020F0E770BC70471C
:1093A00030B4044654E8000F88422CBF451A0546E5
:1093B00044E80053002BF5D1156030BC7047000025
:1093C0000F4800680F4909680A280AD1002908D106
:1093D0000D4802686FF070031A404FF040031A43C3
:1093E00002600A4880470A480047FEE7FEE7FEE7BA
:1093F000FEE7FEE7FEE7FEE7FEE7FEE7FEE700002A
:109400003001001034010010E40E004011970100FB
:10941000019201002DE9F05F0546002092469B462F
:1094200088460646814640241BE02846414647467A
:10943000224600F067F853465A46C01A914110D3AD
:1094400011461846224600F016F82D1A67EB01085F
:109450004F4622460120002100F00DF817EB0009CD
:109460004E41201EA4F10104DFDC484631462A4665
:109470004346BDE8F09F202A04DB203A00FA02F1BF
:10948000002070479140C2F1200320FA03F31943F2
:1094900090407047004870478CF4010040EA010397
:1094A0009B0703D009E008C9121F08C0042AFAD29A
:1094B00003E011F8013B00F8013B521EF9D270475E
:1094C000D2B201E000F8012B491EFBD27047002206
:1094D000F6E710B513460A4604461946FFF7F0FFB3
:1094E000204610BD421C10F8011B0029FBD1801A38
:1094F0007047034611F8012B00F8012B002AF9D11F
:1095000018467047202A04DB203A21FA02F0002195
:10951000704721FA02F3D040C2F120029140084383
:1095200019467047064C074D06E0E06840F001031D
:1095300094E8070098471034AC42F6D3FFF764FE76
:109540005CFB01007CFB010070B58C1810F8015B1E
:1095500015F0070301D110F8013B2A1106D110F8CC
:10956000012B03E010F8016B01F8016B5B1EF9D1D0
:109570002B0705D40023521E0DD401F8013BFAE756
:1095800010F8013BCB1A921C03E013F8015B01F8C1
:10959000015B521EF9D5A142D8D3002070BD000056
:1095A0002DE9F8430025DFF894804FF480760124FC
:1095B0002F460095304603F0E3FA38B1D8F804039B
:1095C000204203D0304603F0D1FA2543361D640013
:1095D0007F1CB6B2082FEDD34FF4BE74204603F0C3
:1095E000CFFA48B1204603F0C1FA45F000456A467B
:1095F0000121002003F08AFA15F0FF0F16D0012692
:1096000000242E420ED008EB8401D1F81005D1F8C9
:109610001015C0F304200A4AC1F3014152F8242076
:1096200002B190477600641C082CEAD3002D02DAC0
:10963000684604F03FFEBDE8F8830000006000408B
:109640006829002070B54FF48076304603F03AF870
:10965000114CB50560B1304603F03BF80120C5F868
:109660000803607920B901206071216800208847D3
:109670004FF48276304603F025F800280AD03046B1
:1096800003F027F80220C5F808032168BDE8704000
:109690000120084770BD000028230020024902482D
:1096A000091F0968006808479423002000F0E2B908
:1096B00070B50E46144900EB400001EBC00514469E
:1096C000E86A183520B101280FD0022805D113E02F
:1096D000284600F003FAA04201D2002411E02246FD
:1096E0003146284600F032FA0BE0284600F0F6F941
:1096F000A042F4D20446F2E73146284600F0F9F9D8
:109700000446204670BD0000A030002003F06EBF6C
:109710002DE9F041C34AC4494FF080551468D5F88B
:1097200030010978D5F83421431CC1F3031106D068
:10973000844601260023BCF1060F03D00AE004F0A2
:10974000FF0CF6E7B5F82473DFF8E0C2C7F304278F
:10975000CCF80070E7B2062F06D1032904D1DFF858
:10976000D4C2B34FCCF87470471C08D04FEA000C39
:10977000BCF1060F06D0BCF10A0F03D00AE004F0DA
:10978000FF0CF5E7D5F84472DFF8ACC2C7F34237F7
:10979000CCF80070E7B2062F08D1032906D1A74FF5
:1097A000D7F800C02CF0807CC7F800C0471C08D058
:1097B0004FEA000CBCF1060F06D0BCF10A0F03D033
:1097C0000BE004F0FF0CF5E74FF08047C7F80C31D1
:1097D000C7F81031984F3F1F3B60E7B2062F08D102
:1097E000032906D1DFF850C203270CF1640CCCF832
:1097F0000070E7B2062F11D103290FD1DFF840C264
:109800000527CCF800708E4F78373E608C4F0837B4
:109810003B600CF1040C3F27CCF80070471C08D0CB
:1098200084461746BCF1060F07D0BCF10A0F08D0DA
:1098300081E004F0FF0C0F46F4E7032F7BD0042FE8
:1098400079D0804F3F68DFF800C2CCF800707D4FC0
:109850003F1D3F680CF1040CCCF80070794F0837BD
:109860003F680CF1040CCCF80070764F0C373F6861
:109870000CF1040CCCF80070724F10373F680CF1FB
:10988000040CCCF800706F4F14373F680CF1040CD7
:10989000CCF800706B4F18373F68DFF8ACC10CF1A3
:1098A000200CCCF80070674F1C373F680CF1040C9B
:1098B000CCF80070634F20373F680CF1040CCCF8F3
:1098C0000070604F24373F680CF1040CCCF8007036
:1098D0005C4F28373F680CF1040CCCF80070594FEE
:1098E0002C373F680CF1040CCCF80070554F303722
:1098F0003F68DFF854C10CF1400CCCF80070514FB8
:1099000034373F680CF1040CCCF800704D4F3837F9
:109910003F680CF1040CCCF800704A4F3C373F68AC
:109920000CF1040CCCF80070464F40373F680CF146
:10993000040CCCF80070471C05D08646434FBEF19E
:10994000060F03D007E004F0FF0EF7E7D5F85852F2
:1099500005F04F053D60451C05D00446062C04D09B
:109960000A2C02D008E0E4B2F8E739490C68E407B1
:1099700002D06FF001040C6006280BD11146032AB7
:1099800008D0042906D0052904D032490C6844F4D3
:1099900080640C600A2804D11AB1386840F00F00C6
:1099A00038604FF01021D1F800422B4A2B48002C90
:1099B00003DBD1F80442002C13DA16600468002C93
:1099C000FCD01524C1F800420568002DFCD0C1F878
:1099D000044201680029FCD0136001680029FCD012
:1099E00019E091F80042E40703D191F80442E4073A
:1099F00013D016600468002CFCD0C1F80032046853
:109A0000002CFCD0C1F8043201680029FCD013609E
:109A100001680029FCD000F0C3F812491048086022
:109A2000BDE8F081E00F00F0E80F00F040350140A4
:109A30000DF0ADBA00C007403C050040FCED00E071
:109A4000105600400404001020C50040E40E004001
:109A5000000400403C17004004E5014000E40140E0
:109A60000090D0030C24002001480068004700004B
:109A70003023002010B5124C02202061606111A03B
:109A8000A06104F17800E0614FF4007020620020D2
:109A9000A06260620BA1A164E06204F51E71E16442
:109AA0001021A065C4E91410E06509A1E01DFFF7CD
:109AB00020FD08A12046FFF71CFD2020A07110BD4D
:109AC000A03000205465726D696E616C000000006A
:109AD0005254540053454747455200000269C1683B
:109AE0008A4203D88068401A104400E0501A401E91
:109AF00070472DE9F047C4681746894606464FF07F
:109B000000083069A04201D9051B02E0B168201AA3
:109B10000D1AB0686D1E001BA84200D80546BD4254
:109B200000D33D4670682A4620444946FFF7B6FCFC
:109B3000B0687F1B2C44A844A944A04200D1002453
:109B4000F460002FDDD14046BDE8F0872DE9F041FB
:109B500004468846D4E90207C51BE16860681646DA
:109B60000844B54206D94146FFF798FCB819E060B1
:109B7000BDE8F0812A464146FFF790FC761B08EBD2
:109B8000050132466068FFF789FCE660F0E70000F7
:109B9000014A024900F038B81DBB0100A42300208F
:109BA000BFF34F8F05480168054A01F4E061114396
:109BB0000160BFF34F8F00BFFDE700000CED00E038
:109BC0000400FA0502E008C8121F08C1002AFAD1F1
:109BD00070477047002001E001C1121F002AFBD12D
:109BE000704700000121202803DA81400548014028
:109BF00003E0402802DA2038814009B10120704793
:109C000000207047FC06FFBD2DE9F04116460F46C7
:109C10000446002503E03946B047641C6D1C2078DB
:109C20000028F8D12846BDE8F08190F824001F20D4
:109C3000704710B501220221002001F0B9F908B1E6
:109C4000072810D107220221012001F0B1F908B143
:109C5000072808D100210A22084601F0A9F908B115
:109C6000072800D1002010BD022001F0ABB8000091
:109C700070B50024064D06E06868012110F8340034
:109C800003F0CCFD641C28788442F5D3002070BD1D
:109C900038230020F8B516460C4605460A2A01D29C
:109CA0000720F8BD03F0B4FE18B903F077FE0028D2
:109CB000F7D1134F102113487D603C70BE60FFF751
:109CC00006FC0020C7E904000F4E0DE005EBC400C0
:109CD0003168009181788DF8011000780B4A69464F
:109CE00003F0ECFD0028DCD1641EE4B2EED2BDE846
:109CF000F84005480021064A001D00F087B8000022
:109D000038230020382A00207CF10100EDBB01003F
:109D1000F1B6010072B603F0B7F900BF03F000F826
:109D20000028FBD111481249401AC408012000EB59
:109D3000044010A103F010F911480068C00700D0DA
:109D400000BE022000EB04400EA103F005F9BFF3B2
:109D50004F8F0B48E43801680E4A01F4E06111436B
:109D60000160BFF34F8F00BFFDE70000ECFB010077
:109D70008CFB0100466174616C206572726F720029
:109D8000F0ED00E053797374656D2072657365744E
:109D9000000000000400FA050EB500210091CDE995
:109DA00001106A4644F20100FFF7B4FF0EBD10B582
:109DB0008268C368934203D001F084FE002010BD86
:109DC000052010BD29B112B1531E134203D0092042
:109DD00070470E2070470160838000218160C16060
:109DE0000846704710B58268C3689A1A83889A42F9
:109DF00003D801F071FE002010BD042010BD00004A
:109E0000014801F0DCBC0000582300203AB1006892
:109E10000129426100D00021016100207047072024
:109E20007047000038B51148082358224168009156
:109E30000F49006802F055FA002815D10D4A69460D
:109E40000D4801F0C1FC04000ED101210A4801F0C7
:109E500036FD0123094A1946074801F088FC0649E6
:109E6000012008390870204638BD000084F1010047
:109E7000582A002065E4010058230020FFFF7F00DE
:109E800070B50446007F0D4608B1002070BDA26188
:109E900001F092FE401941F10001C4E9020120697C
:109EA00000B125612146BDE87040002004F0B6BD38
:109EB000014600200877012004F0B0BD70B50A4EBD
:109EC00001460A48B578FFF772FF04464DB10020FD
:109ED000B070711C0122C81D02F072FC08B1FFF7BE
:109EE0005BFF204670BD000074230020B02A0020D4
:109EF000F0B5244E89B01F460D00044672603FD075
:109F0000A888296882B22048FFF75CFF002835D175
:109F1000A889A96882B21C481030FFF753FF0028B7
:109F20002CD1202219496846FFF7B8FA60690690DB
:109F3000207C00B101208DF814008DF81C70607C2D
:109F400000B10E208DF81500E0680290A068039023
:109F500020680190606800900A480D4A6946083000
:109F600002F0FAFB002809D1B0702068401C05D02F
:109F700004490122491CC81D02F022FC09B0F0BDB1
:109F80000720FBE774230020B02A002098F101008D
:109F900039EB010010B501461048FFF723FF04001C
:109FA00019D10F480F4A0178515C19B1001D03F017
:109FB000C1FF02E00C3003F097FE60B90849074882
:109FC0000839FFF7F4FE30B9054901220839044881
:109FD00002F006FC0446204610BD0000C02A002006
:109FE0007C2300201C23002030B5EFF3108172B6D3
:109FF0000D4A9468012324B10370002900D162B690
:10A0000030BD93604FF0E023D3F88051074C2540DA
:10A010001560C3F88041D3F8844154605A17C3F8DF
:10A02000842100220270E8E7D02A0020FC06FFBD50
:10A030000B498A68002A11D000280FD1EFF3108055
:10A0400072B60B684FF0E022C2F800314B68C2F8DC
:10A05000043100228A60002800D162B670470000F7
:10A06000D02A00202DE9F041064608680C46411C24
:10A070004FF0A0474FF0010506D005FA00F1C7F8F0
:10A080000815206802F01CFD6068411C02D0002108
:10A0900002F004FD3168A069C1F82405607D227DCD
:10A0A00031681043C1F86C05D4E900123068C0F87B
:10A0B0001425C0F80C15207D012815D1A068411C7D
:10A0C00002D0002102F0EAFCE068411C05D0854086
:10A0D000C7F80855E06802F0F3FCD4E902123068D2
:10A0E000C0F80825C0F81015BDE8F0812DE9F04151
:10A0F000064608680C46411C4FF0A0474FF001058A
:10A1000006D005FA00F1C7F80815206802F0E2FC55
:10A110006068411C02D0002102F0C9FC3168A069CE
:10A12000C1F82405607D217D32680843C2F86C05C2
:10A13000D4E900123068C0F80C15C0F81425207D51
:10A14000012815D1A068411C02D0002102F0AFFC0B
:10A15000E068411C05D08540C7F80855E06802F06A
:10A16000B9FCD4E902123068C0F80825C0F810150F
:10A17000BDE8F08170B51500044609D000202860C4
:10A1800034B1206820B1A079800703D0072070BDCA
:10A190000E2070BD084600F00BFBC0B2142804D09E
:10A1A0002179814203D8042070BD052070BDE2886A
:10A1B000216800FB02102860002070BD2DE9FC47DB
:10A1C000002517880646158090F82D00144689460C
:10A1D00030B13A462146484600F0FEFA051E09D144
:10A1E000B0784FF00C0A18B32088C846001DB8425A
:10A1F00002D95046BDE8FC87684679DF0028F9D1CE
:10A200002088032108F8001020881921401C80B202
:10A21000208008F800102088401C80B2208000EBCD
:10A220000801BDF8000004F028FE218808442080C1
:10A23000F0780222C8B1218896F9033001F1030CAD
:10A240004846BC45D5D8425421884FF0010C491CE2
:10A2500089B2218000F801C02188491C89B221807F
:10A2600009F801302088401C20807068B8B121882E
:10A2700090F9003001F1030C4846BC45B9D842546E
:10A2800021880A22491C89B2218042542188491C14
:10A2900089B2218009F801302088401C2080308953
:10A2A00050B1CDE900474B460622022106F10800D5
:10A2B00004F0A4FE051E9DD1308A50B1CDE90047BF
:10A2C0004B460722032106F1100004F097FE051EFD
:10A2D00090D1308B50B1CDE900474B461522142167
:10A2E00006F1180004F08AFE051E83D1306A30B1F1
:10A2F0003B462246494601F090F9051EDBD1706AC3
:10A3000030B13B462246494601F00EFF051ED2D130
:10A3100096F82C0038B13B4622464946304604F0B8
:10A3200005FA051EC7D1307838B13B46224649466A
:10A33000304601F083FF051EBDD128465AE718B507
:10A3400004460020ADF8000013466A46204600F09F
:10A3500006F8002802D0BDF80000204418BD70B5F2
:10A36000E0B1DAB1002402E0045D2C44A4B2651C23
:10A370008D4206D21688A642F6D8061976789E42F5
:10A38000F2D18C420AD2A31C005D9BB200B1401EE8
:10A390000004000C02D01C188C4201D9002070BDB2
:10A3A000138070BD80F8301070472DE9F0410D002A
:10A3B000044606D02CB195F87A000026012803D077
:10A3C00006E00E20BDE8F08195F89800012829D01C
:10A3D000D5F8A000042825D0D5F89C00042821D069
:10A3E0004FF00108A6702C2205F17801201DFFF71F
:10A3F00055F884F83060D5F8A4006063D5F8A8005B
:10A40000A0634FF6FF70A4F8E80004F1D400C4F88C
:10A41000E400C4F8EA60A4F8EE6084F8F060207804
:10A4200010B104E00720CDE7FF2084F8540004F1C8
:10A4300055072046C4F8D470FFF7F7FBA4F8D800FE
:10A4400004F1D80239462846FFF7B8FE0028B9D1F2
:10A4500004F19300C4F8DC002046FFF7E6FBA4F803
:10A46000E00004F1E00205F13C00D4F8DC10FFF755
:10A47000A5FE0028A6D184F85180208BA4F84800BE
:10A4800084F83C80266484F8506060690021606430
:10A49000454604F13C02781E72DF002892D12570F7
:10A4A00090E710B50288102A1BD0112A20D0262A46
:10A4B0001DD1007A0C46012801D0022817D1A078BE
:10A4C0000521401CB0FBF1F201FB1201204600F017
:10A4D0003AF800280BD0A16B002908D0BDE8104045
:10A4E0000847C27B012A02D18088A1F8E80010BD8C
:10A4F0000C46002184F8F2108088B4F8E8108842F5
:10A50000F5D120790028F2D10121DFE710B504460A
:10A5100090F8540074DF012084F8F200002084F8E1
:10A52000F40084F850000621204601F0E3FA0028E8
:10A5300008D1A178204600F006F810B1A16B01B156
:10A540008847002010BD2DE9F05F044600780F46D3
:10A5500098B1A7700025C4F8EA50A4F8EE5084F82A
:10A56000F050A079012608B1012F09D0E07980B11F
:10A57000012F05D0022F03D00BE00820BDE8F09F8B
:10A58000616B21B184F8F1600820884701E084F80C
:10A59000F15004F1EB0100200A5C0AB1304603E0FF
:10A5A000401C0628F8D300204FF002084FF0030AA1
:10A5B0004FF0040B012F06D0022F0CD0032F0FD029
:10A5C000042F15D110E0A17929B194F8241011B904
:10A5D00008B130460DE0E17911B108B1404608E01C
:10A5E000207A08B1504604E0607A08B1584600E08D
:10A5F0002846A070616B41B1032801D0042804D122
:10A60000607910B194F8F20098B184F8F35004F135
:10A610003C0018210746FEF75AFF84F83C6004F11D
:10A620002C0003F017FE58B194F82C0084F8510068
:10A6300008E084F8F45084F8F36007208847E6E7E0
:10A6400084F8516094F8240058B104F1280003F014
:10A6500001FE20B194F8280084F8520001E084F84B
:10A66000526084F85050A27804F1EA0104F1D40950
:10A67000052A4DD2DFE802F065030F1B320084F893
:10A680003160C4F8E450C4E9101584F83C8080209F
:10A69000A4F848003EE084F8318087F800A0228AC0
:10A6A000BA81C4F8E4507960E168B96032E0606969
:10A6B000B860208BB8813D4684F83C60204604F0A9
:10A6C0006FFC40B185F814800421204601F012FA95
:10A6D000F0B9052115E084F831A017E0E069B86011
:10A6E000208CB8813D4684F83C60204604F058FC3C
:10A6F00050B185F814800421204601F0FBF938B9E7
:10A70000062184F8311001E084F831B0C4F8E490F7
:10A71000A07878B13A4604F15400D4F8E41072DF1E
:10A7200000287FF42BAF94F8301094F8540073DFB6
:10A730000028F6D1616B11B194F8310088470020F0
:10A740001CE784F83150F5E770B5040012D00146DB
:10A750001C221448FEF7A2FE1248134D0560206823
:10A7600050B17ADF002806D120680168296040686E
:10A77000686005E00E2070BD0B487BDF0028FAD131
:10A7800008484FF6FF711438084A20F8041B0549A1
:10A79000343901600021FFF739FB0028EBD003209A
:10A7A00070BD0000BC2800201423002039EF0100F8
:10A7B00010B5044600F006F808B1204610BD14207C
:10A7C00010BD0000142801D3002070470146014845
:10A7D00001F0D1BDDC2800207CB5054608880C4678
:10A7E0000930904201D90C207CBD68466DDF0028FD
:10A7F000FAD121880820685420881B21401C80B28F
:10A80000208029542088401C80B220802844DDF814
:10A8100001100160BDF8051081802088801D80B284
:10A8200020809DF80010490800D00121295420887B
:10A83000401C208000207CBDF8B52B4D01880446CB
:10A840006E8821293BD015DC2848294A1029A0EB25
:10A8500002004FEAD0004FF0030202EB004013D099
:10A86000112925D0132929D100231A4685213046E4
:10A870007FDF17E03B2932D052292AD056291DD13B
:10A880008088132176DF0DE01AA102F065FB072016
:10A8900000F0B0FB08B1FFF77FFAA1886980184883
:10A8A00001F098FE002809D0BDE8F840FFF774BA1F
:10A8B00014A102F051FB4FF6FF706880F8BD002034
:10A8C0000090A08869468FDF0028F7D0FFF764FA70
:10A8D000F8BD00231A4619463046B1DFE2E780880A
:10A8E000132176DFDEE70000D0220020ECFB010020
:10A8F0008CFB0100436F6E6E65637465640000003D
:10A9000014270020446973636F6E6E656374656419
:10A910000000000010B51A4C0188606810290ED0A4
:10A9200011292BD1401E606028D1FFF782F9002841
:10A9300024D02168002921D0BDE810400847D0B9B3
:10A9400000210122084600F033FB08B107280FD18F
:10A9500007220221012000F02BFB08B1072807D1B4
:10A9600004220221002000F023FB20B1072802D09E
:10A97000216801B188476068401C606010BD00001C
:10A980000C2300202DE9F04701883B4E40F2F319DB
:10A990004FF6FF7510291BD011293ED0122954D033
:10A9A000502946D1C188F289841D914241D16189E3
:10A9B00002293ED18688304601F036F9050038D0AC
:10A9C00004F10C0000F0B9F9A8B3294630464EE076
:10A9D000C17B8788044601292BD1A846284601F06F
:10A9E00023F9050017D02F80002028722348434602
:10A9F0004A460168C5F80A104068C5F80E0004F11F
:10AA0000100105F10A0001F0CBF96872F089002805
:10AA10000FD129462AE0042013E0808801F004F9D0
:10AA2000040006D06068FFF743FA08B103F04EFE59
:10AA30002580BDE8F087FFE76868FFF739FA00284E
:10AA4000F7D0BDE8F04703F041BE87880646384698
:10AA500001F0EAF80400ECD02B464A4606F1080162
:10AA600004F10A0001F09CF9607221463846BDE805
:10AA7000F04700F019BE0000BC280020142300207D
:10AA80002DE9F04702888688DFF8F8A098B0102AF0
:10AA90000DD0112A46D00AF11003192A61D01A2AC2
:10AAA0006CD1007A0409042C43D3012242E0354CD6
:10AAB000083CA068C0430B9061680BA801F07CFCC7
:10AAC0000B990CA800F08AFD2C220CA96846FEF711
:10AAD000E5FC0027E8460FE008EB47005FF00005C3
:10AAE000B0F8049004EB85004946001D01F038FCE5
:10AAF0006D1C1E2DF6D37F1C0098B842ECD8142E86
:10AB000005D318B00420BDE8F047FFF745B931463A
:10AB1000504601F03BFC18B03146201DBDE8F0471F
:10AB200001F034BC18B031465046BDE8F04701F0A2
:10AB300017BC00223146184600F0D7FF032C01D382
:10AB4000012200E000220F4831460C3000F0CDFF1A
:10AB5000022C01D3012200E000220A4831460830CD
:10AB600007E0017A002909D1407A3146C0F3C002DA
:10AB7000184618B0BDE8F04700F0B7BF18B0BDE800
:10AB8000F0870000E0280020F0B585B016460F469B
:10AB900004001D4614D004AA19466069FFF7EAFABA
:10ABA00000280BD1A5F57F40FF380BD0049848B1A1
:10ABB000007848B13088F42808D9072005B0F0BDE6
:10ABC0000E20FBE70520F9E70820F7E700200090BA
:10ABD000019002900390A088ADF8000001208DF84C
:10ABE0000200CDE9026769462846AEDFE6E70000CD
:10ABF00070B5334D04008EB02DCD08AE86E82D0023
:10AC00005BD0E9B30868A061214608A862DF00288C
:10AC100051D1207801258DF83200ADF83050A21CBA
:10AC20000CA92846A8DF002845D120216846FEF758
:10AC30004EFC0220ADF8000020788DF802008DF85F
:10AC40000C509DF80D00F426ADF8046040F00C00A7
:10AC50008DF81150ADF806508DF80D008DF812509A
:10AC6000608804F10C02694600F0C2FB002822D182
:10AC700020216846FEF72BFC0320ADF8000000E021
:10AC80001BE020788DF802008DF80C509DF80D0027
:10AC90008DF81150ADF8046040F010008DF812509E
:10ACA000ADF806508DF80D008DF813506088221D08
:10ACB000694600F09DFB0EB070BD0E20FBE7000062
:10ACC00060F1010070B588B00446002927D0002C3F
:10ACD00025D008462188102923D0502927D057296C
:10ACE0001DD10546A188406906AAFFF743FA00284E
:10ACF00015D1069E3078002811D0A86900280ED002
:10AD000018216846FEF7E3FB01208DF8000001954D
:10AD1000A088ADF808000396A9696846884708B07E
:10AD200070BD08B02146BDE8704003F07DB908B0A1
:10AD30002146BDE8704003F04BBA007800F00100F6
:10AD4000704700000149085C7047000020F10100D5
:10AD50000649095C4FF0A040D0F81005C84010F03B
:10AD6000010000D0012080F00100704720F10100B7
:10AD70002DE9FC410646C0074FF000050ED0104FEC
:10AD800000240122385D009500231146019501F051
:10AD90003DFE641C042CF4D300F046F8B0070DD53A
:10ADA000074E0024361D0022305D03230095114616
:10ADB000019501F02BFE641C042CF4D3BDE8FC814A
:10ADC0001CF1010007490B5C4FF0A041D1F80425AC
:10ADD0000120984020EA0203C1F808351040C1F86C
:10ADE0000C0570471CF101000249085C012101F0CB
:10ADF000B2BE00001CF101000249085C002101F014
:10AE0000AABE00001CF101000649095C4FF0A040F9
:10AE1000D0F80405C84010F0010000D0012080F0F7
:10AE2000010070471CF1010010B500242046FFF717
:10AE3000DBFF641C042CF9D310BD10B500242046A0
:10AE4000FFF7DAFF641C042CF9D310BD10B50246DD
:10AE5000064B4FF0FF3000215C5C944201D1084664
:10AE600010BD491C0429F7D310BD000020F10100DA
:10AE700070B50C4E0C004FF0000530600BD0012077
:10AE800000F06AF808B1022004E0002000F064F845
:10AE900000B10B202070706810B9FEF7CAFE05469D
:10AEA000284670BD0C23002010B5002000F0DCF90E
:10AEB00008B1062806D1012000F0D6F908B106280D
:10AEC00000D1002010BD00002DE9F0470D4681465D
:10AED000FFF7BCFF0446042836D2DFF874801B4815
:10AEE0001C4EA8F10C0725B3012D0ED0022D2BD13D
:10AEF00004EB440030444578002D25D0B968002982
:10AF000022D02846BDE8F047084704EB4401755CB1
:10AF10000E44717849B10E4A4FF48041093A806875
:10AF2000FEF7AEFF08B987F80390B17808F804106F
:10AF3000E2E78068FEF7BCFF04EB4401314418F8F7
:10AF400004008D78A842D7D0BDE8F08724F1010035
:10AF50000823002058280020042801D2FFF7F8BE5B
:10AF6000002070470146104810B54088042907D0DA
:10AF700007290ED00A2915D1BDE8104003F032BCD4
:10AF8000132176DF0CE000280CD0BDE81040FEF75E
:10AF900003BFA0F57F41FF3904D10448FFF7B6FA9B
:10AFA0000828F0D110BD0000D0220020202700206A
:10AFB00070B50023042810D20D4D00EB4004012A87
:10AFC00002D101290CD00022094E00EB4000304490
:10AFD00061B1012906D0022906D00723184670BDA9
:10AFE0000E30C2B22A55F9E74270F7E78270F5E7F2
:10AFF00058280020044A014600201279D20702D0C6
:10B00000084600F04DB87047FC22002070B5064697
:10B010001E480024C0E90161B00720D500250122A7
:10B0200011462846FFF7C4FF6D1C0446042D02D2CA
:10B03000002CF4D013E094B940F2333204211448C8
:10B04000FEF728FE04000AD1FEF712FE040006D126
:10B050000F48104A0021001FFEF7D8FE0446F007F3
:10B0600012D00120FFF784FE74B909480A4A002172
:10B070000C38FEF7CBFE040006D10548074A012133
:10B080000838FEF7C3FE0446204670BDFC220020AF
:10B0900030F1010075B3010015BE0100699C01008B
:10B0A0002DE9F05F6E4C054600266078B34618B176
:10B0B00084F801B000F096FE6A4F4FF47A694FF4BD
:10B0C000C87A4FF00108182D69D2DFE805F00C139B
:10B0D00013384754696E727B727BC5848484848480
:10B0E000B3B6B9BCC5C500F07DFE3868FEF7E0FE1A
:10B0F00006465CE00020FFF787FE00284FF00000C6
:10B1000008D0FFF771FE022D02D14FF4E16008E094
:10B11000484606E0FFF770FE022D01D1C82000E08E
:10B120005046410CC0034FF47A72801841F100017F
:10B13000257052000023FEF76DF901462AE0002039
:10B14000FFF762FE00284FF0000004D0FFF74CFE2E
:10B150004FF44870E5E7FFF74FFEDFE70020FFF709
:10B1600053FE00284FF0000002D0FFF73DFECFE76E
:10B17000FFF742FED4E70020FFF746FE00284FF01D
:10B18000000002D0FFF730FE01E0FFF735FE25702A
:10B1900040F6CD4100223868FEF772FE064646E0D2
:10B1A0000020FFF70FFE257008E0002051E0257019
:10B1B0003DE084F801800120FFF704FE002240F208
:10B1C0006661E8E784F801800120FFF7FBFD0022BB
:10B1D0004FF40051DFE77868FEF76AFE0646D5F1C6
:10B1E000110000D02EB10220FFF7FEFD84F802B05E
:10B1F0001DE0012816D980B2C8214843C117C903F0
:10B2000041EA5041C0034FF47A72801841F10001C5
:10B2100052000023FEF7FEF8014600227868FEF790
:10B220002FFE06460220FFF7E7FD84F80280304635
:10B23000BDE8F09F00F0D6FDB9E700F0D3FDB4E71C
:10B2400000F0D0FD04E000F0CDFD0020FFF7D4FDBC
:10B250000120FFF7D1FDAAE7FFF7EFFDA7E7000008
:10B26000FC22002024F10100012103F02EBF000088
:10B270002DE9F84F0546861C00208DF80000914608
:10B280000F464FF0010A6846FEF7AEFE1B4C04F273
:10B290001C4860683860D4E90101194F401A3968C8
:10B2A000081A0EE00121404601F080F800F0C4FDCC
:10B2B0000146404601F07AF8D4E90101401A3968A4
:10B2C000081A401C8642EDD8B9F1000F03D00520C2
:10B2D00065F3891002E0062065F39F5061683A68C3
:10B2E000114004EB8101C8606068304460609DF8E3
:10B2F0000000FEF79DFE5046BDE8F88F802C002030
:10B30000B423002070B50D4604460A2902D10D2150
:10B31000FFF7F8FFA0682268411CA1601554D4E92A
:10B320000101814204D32046BDE8704001F075BAA6
:10B3300070BD0000044881684068814201D101204D
:10B340007047002070470000802C0020034630B575
:10B35000074800210478426806E000BF02EBC10004
:10B3600005789D4203D0491CA142F7DB002030BD87
:10B370003823002000780221FFF7A6BD05494FF0D1
:10B38000FF32082841F8202002D3084480F84820E2
:10B390007047000068290020F0B54FF0FF3512B16A
:10B3A0000023082601E008230C260C4C05E000BF12
:10B3B00054F823707F1C04D05B1CB342F8D328469A
:10B3C000F0BD26185DB286F8305044F82310002AEC
:10B3D000F5D1E11881F84800F1E700006829002064
:10B3E0000249084490F930007047000068290020A5
:10B3F0002DE9F0438146887891B090460C4600B91B
:10B4000001208DF83E002088ADF83C000025009515
:10B41000607C694603F0CEF96E46A07C711C03F097
:10B42000C9F9E07B00289DF8020002D040F0080036
:10B4300001E020F008008DF80200217C11B140F0FD
:10B44000100001E020F010008DF80200217B11B106
:10B4500040F0010001E020F001008DF80200217DA4
:10B4600009B1022100E0012161F342008DF80200E0
:10B470001C2102A8FEF72BF8607BC10601D48006D0
:10B4800017D50E950EAFE07C791C03F093F99DF86B
:10B490003800079720F00F00401C20F0F00010301B
:10B4A0008DF838009DF83A0020F00600801C8DF8D9
:10B4B0003A00607B8DF80800A07B8DF8090014210C
:10B4C00009A8FEF704F80FA8CDE90906A088ADF891
:10B4D0003000A06820B1E088ADF82C00A0680D9085
:10B4E000A06998B301950088ADF81000A06901AD7E
:10B4F00001A94088ADF81200A06940680695039044
:10B50000A069007B03F056F9A069691C407B03F039
:10B5100051F9A069807A00289DF8060002D040F019
:10B52000080001E020F008008DF80600A169C97A42
:10B5300011B140F0100001E020F010008DF806007D
:10B54000A169097A19B140F0010002E00DE020F094
:10B5500001008DF80600A169897B09B1022100E094
:10B56000012161F342008DF80600E06900B1059009
:10B57000434609AA02A94846AADF11B0BDE8F083F4
:10B5800070B5084C050009D010342168002907D097
:10B5900008682060496828468847F6E70834F4E7D9
:10B5A00070BD000054290020054A012120B1012866
:10B5B00005D19170FFF7E4BF51700020FAE77047A2
:10B5C0005429002010B5D0E90234D1E90220D11A63
:10B5D000A04101D3012010BD002010BD73B58CB077
:10B5E0000646002000900D9880B100246D4621464B
:10B5F0000DA800F0C0FE30B1009805EB400084803B
:10B600000098401C0090641C142CF0D32C22694636
:10B610003046FDF743FF0EB070BD2DE9F0411788AD
:10B620000646B81D14460D46984202D90C20BDE8C6
:10B63000F0813188072206290AD34FF4486C4FF66F
:10B64000FF73614501D9994202D17088062801D261
:10B650001046ECE7604501D99842F9D1994203D0F0
:10B66000984201D08142F3D80520E8552088122164
:10B67000401C80B2208029542088401C80B2208049
:10B680004119308803F0F9FB2188084480B22080FA
:10B690004119708803F0F1FB2188084420800020C4
:10B6A000C5E7FEF779BB000038B54A7A0F4B62B1A7
:10B6B00000220A725969002906D001228DF8002063
:10B6C000ADF802006846884738BD0A7A62B19B68C7
:10B6D0004C68024619462046FEF7D2FB0028F3D0FC
:10B6E000BDE8384002F0F2BF5B68F1E7BC280020FB
:10B6F00070B500240F4D10E0686800EBC406307888
:10B7000002F042F97178012901D0012100E0002105
:10B710004140307800F05CF9641C28788442EBDB0F
:10B72000D5E90401084303D0BDE8704003F092B9A5
:10B7300070BD00003823002010B50021024800F041
:10B7400046FE80F3100010BD9C3000204FF4803284
:10B750008A400168C1F848230068C0F80823704790
:10B760004FF4A07202EB810189B200F0A1B92DE97A
:10B77000F04105460E464FF4A07000EB860081B202
:10B7800028684FF48034B440984622F07F47C0F8D0
:10B7900008432868C0F84843286801F081FD2868FC
:10B7A00000EB8600C0F840752868C0F84443B8F143
:10B7B000000F02D02868C0F80443BDE8F08100689B
:10B7C000D0F804057047000070B54379234C44F865
:10B7D00023204279231D03EBC202224C1579204A13
:10B7E000121BD4082DB10825022000EB04401EA135
:10B7F00030E005680A88C5F8082590F904208978A2
:10B80000002A4FEA411104DB02F1E02282F8001421
:10B8100005E002F00F0202F1E02282F8141D90F917
:10B8200004100122002909DB01F01F0502FA05F5C9
:10B830004909890001F1E021C1F800514179002551
:10B8400003EBC1010A71417943F83100032000EB99
:10B8500004400EA101F080FB284670BD902300201B
:10B86000D4FB01008CFB010052544320696E7374B9
:10B87000616E636520616C726561647920696E69CF
:10B880007469616C697A65642E0000005254433A11
:10B8900020696E697469616C697A65642E000000C4
:10B8A00090F90400002809DB00F01F0201219140FB
:10B8B0004009800000F1E020C0F8001270470A46FD
:10B8C000022100F07BB84FF4827100F0F1B80068FB
:10B8D00001210160704700680121416070472DE936
:10B8E000F05F07460C464FF4A07000EB84001FFA8F
:10B8F00080FA38684FF48036A6409B4622F07F4598
:10B90000C0F848633868C0F808633868D0F8048520
:10B9100000EB8402D2F84095C2F840855146386861
:10B9200001F0BEFCA9EB080020F07F40012806D101
:10B93000102001F06BFF5146386801F0B1FC386807
:10B94000D0F80485C0F84463A5EB080121F07F41DD
:10B950003868012900EB840010D0C0F840553868E1
:10B96000D0F804156FF07F4C6A1A521E22F07F4205
:10B97000ACEB0B03934217D362B118E06D1CC0F817
:10B980004055102001F042FF3868D0F804054045CA
:10B990000AD10CE000EB84006D1CC0F840553868FB
:10B9A000D0F80405884202D00D20BDE8F09F0122A6
:10B9B0003146384600F002F80020F6E70368C3F885
:10B9C0004413002A02D00068C0F804137047000036
:10B9D0002DE9F84F0E463449804601EB5001C0076F
:10B9E000097801D00F0901E001F00F074FF00009BD
:10B9F000424601204946FDF73EFDDFF8B0A004466F
:10BA00000D46052F4ED2DFE807F003161B282C0049
:10BA1000002E47D00121404602F036FF8DF80090FD
:10BA20006846FEF7E1FA5046D0E904120C4315438C
:10BA3000CAE9044532E00EB1022114E0002112E00F
:10BA40004EB10321404602F01FFF4046BDE8F84FCB
:10BA5000012103F0C3BA012105E0002E22D1042107
:10BA600001E02EB103214046BDE8F84F02F00CBFC3
:10BA70000021404602F008FF0021404603F0AEFAE4
:10BA80008DF800906846FEF7AFFA5046E243D0E9E1
:10BA900004341A4024EA0501CAE904219DF8000093
:10BAA000FEF7C6FABDE8F88F382A002038230020B8
:10BAB00010B5006842581AB101F0F2FB012010BD28
:10BAC000002010BD826883881A4003689A5C0A705F
:10BAD0008168491C81607047C26883881A40036886
:10BAE0009954C168491CC16070470AB100F04EBC4E
:10BAF00000F036BC70B50D460446B0F8D810D0F84A
:10BB0000D4000122FEF71BFC00B1057004F13C02D9
:10BB100004F1D40104F1540072DF70BD10B5044685
:10BB2000C0B2FEF737FA204610BD00000C484A8824
:10BB300043889A4213D10A88A2F52063773B0ED13D
:10BB40008988C91E8AB28280064807491346401A6E
:10BB5000C008032101EB004004A101F008BA7047BE
:10BB6000D0220020ECFB01008CFB010044617461D9
:10BB7000206C656E2069732073657420746F2030AB
:10BB8000782558282564290010B50949094800F08E
:10BB900095FC08B1FEF700F9F721064800F082FC99
:10BBA000002803D0BDE81040FEF7F6B810BD000035
:10BBB0002DBB01000427002010B50B48FFF7FFFD47
:10BBC000094A083AD2E90434C018D2E9063244F1ED
:10BBD0000001C31A71EB020204D24FF08072801888
:10BBE00041F1000110BD00005823002010B5C0B283
:10BBF000FFF7ACFB0446007801F0C6FE0146607812
:10BC0000012801D0012000E0002090EA010F08D0B7
:10BC10000449D1E90401084303D1BDE8104002F012
:10BC200019BF10BD382300200146034802888A420C
:10BC300000D0002070470000A82800202DE9FC5FFC
:10BC40000E008346DDE90C47C6F100009846924697
:10BC5000814600D40846012503E000BF90FBFAF0BE
:10BC60006D1C5045FADAA84500D9454624B1002E8E
:10BC700001DB780700D5641EB80702D5B8F1000FC4
:10BC80000AD0F80708D13CB1A54205D22021584678
:10BC9000641EFFF737FBF6E7002E02DA4E462D2131
:10BCA00002E0780703D52B215846FFF72BFB07F05E
:10BCB000030002280BD1B8F1000F08D13CB1A54216
:10BCC00005D230215846641EFFF71CFBF6E7CDE98C
:10BCD0000047434652463146584603F0D3F8BDE884
:10BCE000FC9F000070B50D46044600684FF4887153
:10BCF00001F040FD4FF49071206801F03BFD4FF4DE
:10BD00009271206801F036FD4FF4A271206801F0B5
:10BD100031FD4FF4AC71206801F02CFD2068124910
:10BD2000C0F804132068690740F30730090E0028A3
:10BD300004DB00F1E02080F8001405E000F00F00C3
:10BD400000F1E02080F8141D206840F3073000283F
:10BD500009DB00F01F02012191404009800000F141
:10BD6000E020C0F8001170BD100342000246002020
:10BD70001268530713D502F00300012802D00228ED
:10BD80000CD105E0C2F383100B68801C184404E05A
:10BD90000223086803EB92521044086001207047A8
:10BDA000F0B58488A518944200D82246A41AC28807
:10BDB000D6189A4200D81346D21A4B880788BB423D
:10BDC0000CD34088834209D88888A04206D3A84271
:10BDD00004D8C888904201D3B04201D90020F0BDF8
:10BDE0000120F0BD0A4810B5807860B1002401E060
:10BDF000022C06D02046FEF7F7FF641C042CF7D374
:10BE000010BD0324F6E7BDE81040FFF70DB80000B1
:10BE1000FC22002003480179C90702D00078FFF70F
:10BE20003FB97047FC220020F72101801721418093
:10BE300000210171417170472DE9FF41002624481E
:10BE400000F0B1FA2248001F074600F0ACFA214C7E
:10BE50002149A06800900D6800E0009869462840DC
:10BE600004EB80000C30FFF781FF0028F5D101AA18
:10BE7000009901EA050304EB8303491CDB6842F8DF
:10BE80002030401C00910228F2D3019800F00300FA
:10BE900001280BD0022810D10198032101EB90500A
:10BEA0000099BDF80A6001EB900005E00198BDF82B
:10BEB0000A60C0F3831008440090384600F070FA1E
:10BEC00008B10098A06004B03046BDE8F0810000E1
:10BED00098300020802C0020B4230020ACB0182221
:10BEE00070496846FDF7DAFA6F4806906F494FF4DB
:10BEF0008070CDE90701099007236D4A06A96846BD
:10BF0000FDF7F6FF08B1FDF747FF4FF48041002031
:10BF100001F08EF808B1FDF73FFF00F0F3FEFDF7EA
:10BF200081FF08B1FDF738FF62490320FFF76EF883
:10BF300008B1FDF731FF69460020FEF799FF08B10F
:10BF4000FDF72AFF01F07EF908B1FDF725FF01F0AA
:10BF500013FB08B1FDF720FF00246946012000947F
:10BF600001F0AEF908B1FDF717FF684601F03CFAA1
:10BF700008B1FDF711FF9DF808004FA120F00F0058
:10BF8000401C20F0F00010308DF808000B2202A8B1
:10BF90007CDF08B1FDF700FF00941020ADF8000031
:10BFA0003C200194ADF80200ADF804404FF4C87095
:10BFB000ADF8060068467ADF08B1FDF7EDFEFFF741
:10BFC000E3FD4048019001A93F4800F00EFB08B195
:10BFD000FDF7E2FE3D48009069463D48FEF708FE49
:10BFE00008B1FDF7D9FEAC216846FDF770FA0220D2
:10BFF0008DF800008DF8024005208DF80300012027
:10C00000ADF84C0032498DF87C004020891F229009
:10C01000149144F2506023902E4829902A48694692
:10C020000C30FEF7C2F908B1FDF7B6FE2648012133
:10C030000C30FEF7B7F91C216846FDF748FA4FF4BB
:10C04000A030CDE900404FF4F02002902248059046
:10C05000032522488DF80C500690ADF80E408DF85F
:10C0600010406846FEF770FB08B1FDF795FE1CA076
:10C07000FDF78EFD1F482049401AC00805EB00401F
:10C080001EA100F069FF104803210C30FEF75BFA97
:10C0900008B1FDF781FE00F043FE0028FBD101F05E
:10C0A000E5F8F8E704F1010004250020042600204B
:10C0B000C1EA010065AF01004E6F726469635F55AC
:10C0C0004152540081D201001427002051DF0100A9
:10C0D000DC220020E9DF01000DE00100A3B6010031
:10C0E0000D0A5541525420737461727465642E0DAB
:10C0F0000A000000ECFB01008CFB01004465627546
:10C1000067206C6F6767696E6720666F72205541A4
:10C110005254206F766572205254542073746172A9
:10C120007465642E0000000070B5144682880E46C7
:10C1300005462088111D0144921C994201D8FE2A0F
:10C1400001D90C2070BD521C32542088FF21401CA4
:10C1500080B2208031542088401C80B22080811918
:10C16000288802F08AFE2188084480B22080AA88AC
:10C1700042B1A96841B13044FDF790F92088A988FF
:10C1800008442080002070BD072070BD2DE9F047D5
:10C19000C5881E1DB6FBF5F78946B6FBF5F10446CA
:10C1A00005FB176C407916686843DDF820A0F71886
:10C1B000001F874200D9C61A166001E02468491E94
:10C1C0000029FBD1A5EB0C078846B74216D818E02A
:10C1D00004EB0C00001D09EB0803BAF1000F3A460E
:10C1E00002D00146184600E01946FDF757F92468C9
:10C1F000F61B4FF0000CB844B54201D9374600E0B9
:10C200002F46002EE4D1BDE8F087000030B502468D
:10C2100051B100F021FF0021074C08E034F8213033
:10C220001568AB4202D11160002030BD491C81422B
:10C23000F4D3052030BD000000000000F8B50F4623
:10C24000017814460546012901D1687830B120886B
:10C25000821C9A4232D8012902D006E00720F8BD9C
:10C2600069780144891C994228D8181A801E86B220
:10C27000ADF800602188B81C084469467DDF0028BD
:10C28000EDD12978022904D06878BDF800209042C9
:10C2900005D3BDF80000B04201D809200AE008200B
:10C2A000012905D16978B14202D8ADF8001001E04A
:10C2B000ADF80060BDF80010FE2901D90C20F8BDD2
:10C2C0002288491CB9542188491C89B2218078549C
:10C2D0002088401C2080BDF80010084420800020E9
:10C2E000F8BD10B531B1B2FBF3F403FB14241CB15B
:10C2F000092010BD0E2010BD016000214160816049
:10C300008281C381084610BD70B50C460546FCF716
:10C3100081FF002802D021882868084470BD10B52C
:10C320000A8849888A4203D1FCF7B6FF012010BD74
:10C33000002010BD70B50C460546FCF790FF0028A4
:10C3400002D061882868084470BD10B50A88498801
:10C350008A4203D1FCF77AFF012010BD002010BDF6
:10C3600001F01F0301229A40D243490900EB8100EA
:10C37000114600F021B84A0950F8220001F01F02CE
:10C3800001219140084000D00120704701F01F03B7
:10C3900001229A40490900EB8100114600F01CB8C7
:10C3A000002100F00FB8012100F016B808B56A4668
:10C3B000FCF7C7FF009808BD08B56A46FCF7A7FF61
:10C3C000009808BD08B56A46FCF7A1FF08BD08B58E
:10C3D0006A46FCF783FF08BD08B56A46FCF78AFF8A
:10C3E000009808BD08B56A46FCF7B8FF009808BD7C
:10C3F00038B5044600258DF800506846FDF7F4FD79
:10C4000021686268086890420ED9401E0860017871
:10C41000238AE26801FB0325227A2168101AC0B240
:10C420000A79824200D208719DF80000FDF700FEF3
:10C43000284638BD38B5054600208DF800000C466A
:10C440006846FDF7D1FDE868298A201AB0FBF1F1B2
:10C450002A681068431C136001709DF80000FDF706
:10C46000E7FD38BD10B530B1017A42680368891A1A
:10C47000C9B21A6006E00E2010BD03681A68541C89
:10C480001C601170491EC9B2F7D200680021017109
:10C49000084610BDC20800F007030120895C9840DF
:10C4A0000840704728B1A1F11702E12A03D3072001
:10C4B00070470E20704701800020704710B560B1B2
:10C4C000C160F72120F8021B20F8021BFB2100F8B5
:10C4D000021BFFF7A9FC002010BD0E2010BD0000BC
:10C4E0007CB50C468188002933D102880025102AAA
:10C4F00006D0112A09D03A2A0BD0552A2ED129E08C
:10C500000146204601F0C6FD28E0A01DFFF78CFC87
:10C5100024E02246408934F8063F834200D818467A
:10C520006080172800D217206080D06878B16079C9
:10C5300068B1184BD3E90003CDE90003ADF8021050
:10C540006088ADF80400D368694610469847657165
:10C5500025717CBD0146204601F0E2FDA07A00284D
:10C56000F7D02846E188A5DF012680B11128F0D058
:10C5700001F0E0F802460848084902B0401AC00835
:10C5800006EB0040BDE8704005A100F0E9BCA572D3
:10C59000E6727CBD50F101008CFB01008CFB0100B8
:10C5A00073645F626C655F67617474635F65786311
:10C5B00068616E67655F6D74755F726571756573CF
:10C5C0007428292072657475726E65642025732E37
:10C5D0000000000020B10278DE2A03D00820704756
:10C5E0000E20704741800020704760B159B1027839
:10C5F000DE2A0AD009684160DE2101704FF6FF7122
:10C600004180002070470E207047082070477FB59A
:10C61000054600294DD0002D4BD008780C46DE2869
:10C6200047D1A8886188884202D1204602F0C4FC24
:10C630002888012825D002283BD011283AD051283B
:10C6400037D135F8040F6188884232D1A978A81C07
:10C6500002292ED1017A042903D0062901D0052907
:10C6600027D10021009102228DF8002001914FF482
:10C67000C07202910391ADF80420007A05280FD012
:10C6800010E0297A2046012913D1A98842889142D5
:10C690000FD10121017204B0BDE8704002F08CBCE2
:10C6A000ADF8041028886946B0DF002801D0616821
:10C6B00088477FBDA88861888842FAD14FF6FF700D
:10C6C00060807FBD00F180400068002800D001201C
:10C6D000704708B500F180400021016000680090BB
:10C6E00008BD000070B50D4C0125207808B18526E5
:10C6F0000EE00020A06060602061E060084801F06A
:10C700005DF8064600F084FF08B901F041F8257095
:10C7100001F036F800B1A570304670BD54290020F4
:10C72000A9B5010038B500258DF800506846FDF721
:10C730005BFC084CE068401EE060E06828B901F04E
:10C740001FF810B901F04AF8A5709DF80000FDF738
:10C750006FFC38BD54290020F0B505460478154813
:10C7600089B0164640F82420124A0869121DA2F129
:10C77000080742F82400487F385520226846FCF715
:10C780008DFE04942878385C48B10EB10A4A00E066
:10C7900000226946281D01F0BFFA09B0F0BD0EB1B4
:10C7A000064A00E00022694605F10C0001F068F934
:10C7B000F3E700002023002039ED0100DDEB01004C
:10C7C00030B40378054CE35C1BB130BC001D01F0B4
:10C7D000D9BA30BC0C3001F0BDB900001C230020D8
:10C7E00030B40378054CE35C1BB130BC001D01F094
:10C7F0004BBB30BC0C3001F023BA00001C230020DE
:10C800000FB408B50399002904D004AA00926A461F
:10C8100000F00FF801B05DF814FB10B58268044613
:10C82000002A05D0D4E90403216898470020A060BD
:10C8300010BD2DE9FC4791460C00804676D014F8D7
:10C84000011B39B125290ED04046FEF75BFD20784B
:10C850000028F4D198F80C00002867D04046BDE8C5
:10C86000FC47FFF7DABF0020012221782B291BD0DB
:10C870002D2902D0302908D102E040F0010001E06A
:10C8800040F00200641C002AEFD100252A290ED0B6
:10C890002178A1F130020A2A11D205EB850201EBC1
:10C8A0004205641C303DF1E740F00400EAE7D9F8A6
:10C8B00000100B1DC9F800300968641C0D44217874
:10C8C00000232E290BD114F8011FA1F130020A2AEE
:10C8D00005D203EB830201EB4203303BF3E76C2903
:10C8E0000DD068290BD0692921D00BDC252918D05F
:10C8F000582931D063290ED0642915D117E014F8D6
:10C90000011FECE7702969D0732932D075291BD03B
:10C91000782909D120E0D9F80000011DC9F80010DC
:10C9200001784046FEF7EEFC641C90E76CE0D9F815
:10C9300000100A1DC9F800200968CDE900500A223C
:10C940004046FFF77BF9EFE7D9F800100A1DC9F858
:10C95000002009680A2206E0D9F800100A1DC9F86B
:10C96000002009681022CDE90050404602F08AFA02
:10C97000DAE7D9F8001000270A1DC9F800200E6870
:10C98000C00705D112E04046761C7F1CFEF7BAFCBA
:10C9900031780029F7D104E0202140466D1EFEF7D2
:10C9A000B1FCBD42C0D9002DF6D1BDE74EB1304635
:10C9B000FCF798FD074604E0202140466D1EFEF777
:10C9C000A1FCBD4206D9002DF6D103E04046761CFD
:10C9D000FEF798FC31780029F8D1A5E7D9F80000D6
:10C9E000011DC9F80010056830214046FEF78AFC99
:10C9F00078214046FEF786FC08200021CDE90001A1
:10CA0000034610222946B0E7BDE8FC8770B541EA2D
:10CA10004201DDE904564FF0A04441EA830141EAB6
:10CA2000052104EB800041EA0641C0F8001770BD03
:10CA300070B541EA4201DDE904564FF0A04441EAF5
:10CA4000830141EA052104EB800041EA0641C0F878
:10CA5000001770BD70B541EA4201DDE904564FF0A0
:10CA6000A04441EA830141EA052104EB800041EA48
:10CA70000641C0F8001770BD70B541EA4201DDE91A
:10CA800004564FF0A04441EA830141EA052104EB3A
:10CA9000800041EA0641C0F8001770BD1CB50022B5
:10CAA0000B46009211460192FFF7D4FF1CBD1CB546
:10CAB00000220B46009211460192FFF7DDFF1CBDDC
:10CAC0001CB5002100910B46012201911146FFF790
:10CAD000C1FF1CBD1CB5002100910B460122019134
:10CAE0001146FFF7C9FF1CBD4FF0A04202EB8000CA
:10CAF000D0F8002722F44032C0F80027D0F80027F1
:10CB000042EA0141C0F800177047000038B5094BF0
:10CB100044181B6800936B4608E000BF53F82010D0
:10CB2000D1F8205520C2C1F82055401C8442F5D8C8
:10CB300038BD000070F1010042094FF0000100D142
:10CB4000491E00F01F00012282400A4201D001204C
:10CB500070470020704701224FF0A043824011B17E
:10CB6000C3F808257047C3F80C257047034908B57A
:10CB70000844002101600068009008BD006000408A
:10CB800002494058012800D0002070470060004052
:10CB900030B5154A01460020D2F8104423460AE079
:10CBA000DB681D79854205D1401C0A28F6DB4FF071
:10CBB000FF3030BD1B68002BF2D1431CF9D0CB688D
:10CBC0001871D2F8103443B1DB68CC681B6823605D
:10CBD000D2F81024D268116030BDC2F81014C968B0
:10CBE00000220A6030BD0000802C00207047FCF756
:10CBF0005DBD704708B5034A00924023024A00F029
:10CC000005F808BDDDE60100E82A0020F0B595B082
:10CC10001C4615460F4608461A9E00F0EDFA1821EC
:10CC200009A8FCF754FC0E96CDE90954002308220C
:10CC300003A9384600F0F5FA05980690BDF81000F3
:10CC4000ADF81C00BDF81200ADF81E0000208DF8F4
:10CC500021000398082600F00300012802D00228D2
:10CC600018D032E003983346850AC0F3C2008DF82D
:10CC7000200003980FA9C0F38314A200384600F0E7
:10CC8000D0FA09A8009006AB22460FA9284600F06A
:10CC90000FFA1AE00398840DC0F3C2008DF820004B
:10CCA000082C01D2254600E0082533462A460FA964
:10CCB000384600F0B6FA2E44641B09AB06AA294692
:10CCC0000FA800F05DF9002CEAD1384600F09AFA7E
:10CCD00015B0F0BD0A4A012902EBC00007D00229B5
:10CCE00007D0032907D0042907D00020704702206D
:10CCF0007047042070470079704740797047000002
:10CD00008CFB010010B5FFF772FF04210348FFF709
:10CD10003FFF02490120C968487110BD7CFB01003A
:10CD20002DE9F04F8DB0FEF705FB18B100200DB0D6
:10CD3000BDE8F08F7E4C4FF0000BC4F818B4BFF381
:10CD40004F8F7C49A06802900D68D846284004EBBC
:10CD500080000BE0D4F8180470B961680298814231
:10CD600001D8A160E2E7284004EB80000C3002A962
:10CD7000FEF7FCFF0028EDD1002005AA029901EA88
:10CD8000050304EB8303491CDB6842F82030401C98
:10CD900002910228F2D3059800F00300022802D085
:10CDA00001284DD0AAE005985022810D8946B2EBAA
:10CDB000905F00D850210E4666F39F5005900831D1
:10CDC0005D4800F0D0F9070078D000F015FA43462E
:10CDD000082205A9384600F02CFA029908F1080A41
:10CDE0002940681A8000001D864222D9504D0C351A
:10CDF00030B1C2B204EB8101301A90460C3104E02C
:10CE00002946F2B2002590462846C6B25346384617
:10CE100000F00FFA0AEB080325B1324629463846DE
:10CE200000F007FA029909F1030001EB900002906B
:10CE30003BE004EB81015346324638460C31EFE7C4
:10CE40000598C0F38310062800D30620059960F3E7
:10CE50008911C1F38310801C05918100364800F0D0
:10CE600082F907004AD000F0C7F94346082205A915
:10CE7000384600F0DEF908F1080800260FE00298B5
:10CE8000434600EA0501401C04EB810102900422A4
:10CE900038460C3100F0CDF908F10408761C0598ED
:10CEA000C0F38310B042EAD847B1D4F81054D4F894
:10CEB000180478B1384600F0A5F934E01EE0E868BF
:10CEC0004079012804D12A682846394612689047DB
:10CED000E8680568002DF2D1384600F093F98DF826
:10CEE00000B06846FDF780F8D4F8180408B9029835
:10CEF000A0609DF80000FDF79BF814E0D4F8104402
:10CF000005E02168204689688847E0680468002CAD
:10CF1000F7D10A480A49401AC008022101EB004033
:10CF200008A100F019F8FEF705FA80F00100FEE60E
:10CF3000802C0020B42300200CFC0100ECFB01003D
:10CF40008CFB01004261636B656E647320666C75D7
:10CF5000736865640000000000231A4601F0ACBC51
:10CF600008B5012300926A4601F0A6FC08BD1CB575
:10CF7000CDE9002302236A4601F09EFC1CBD00009F
:10CF80002DE9F0470E4680461C469246082940D8B7
:10CF900094F80C90002020731946104601F00AFA0C
:10CFA0000025B54206D218F805201BA12046FFF740
:10CFB00027FC03E01AA12046FFF722FC6D1C082D78
:10CFC000EFD318A12046FFF71BFC0025B54212D273
:10CFD00018F805707E2F08D8FCF75CFA0068C05D71
:10CFE00010F03E0F01D03A4600E02E220EA120465E
:10CFF000FFF706FC03E00DA12046FFF701FC6D1CC6
:10D00000082DE3D301222146504601F0B5F984F8FA
:10D010000C90BDE8F0870000202530327800000039
:10D02000202020007C00000025630000200000007C
:10D03000064910B500200870054800F0E1F8002806
:10D0400003D1044800F01EF9002010BD802C002000
:10D050000CFC010058F3010002480349401AC008C3
:10D06000704700000CFC01008CFB010013B5684602
:10D07000FFF7CCF808B100201CBD0248009950F819
:10D0800031001CBD8CFB010070B508480125D0F8AB
:10D090001044057007E0E068457121682046496842
:10D0A0008847E0680468002CF5D170BD802C002012
:10D0B0002DE9FF4781460C9D00200C462F7B2873ED
:10D0C000984616462946184601F074F9072E42D2B2
:10D0D000DFE806F004090F161F2A360049462846E5
:10D0E000FFF78EFB37E0494628462268FFF788FBAA
:10D0F00031E0D4E9002349462846FFF781FB2AE0C6
:10D10000A0680090D4E9002349462846FFF778FB41
:10D1100021E0D4E90201CDE90001D4E90023494628
:10D120002846FFF76DFB16E004F1080007C88DE8FC
:10D130000700D4E9002349462846FFF761FB0AE0CF
:10D1400004F108000FC88DE80F00D4E90023494618
:10D150002846FFF755FB00222946404601F00CF90E
:10D160002F73BDE8FF872DE9F041058A80462D1F0A
:10D170004819C01CB0FBF5F0C6B24046FFF738F9BD
:10D18000041E19D00020207101206071E580002765
:10D190002546761EC4F800800BE04046FFF728F9CC
:10D1A00060B16179491C6171286005467F1CC0F837
:10D1B0000080B742F1D32046BDE8F081204600F060
:10D1C00002F80020F8E72DE9F041457901466B1E91
:10D1D000002201E00968521C9A42FBD30F68014605
:10D1E000002605E038460C68FFF724F92146761C36
:10D1F000AE42F7D3BDE8F0810121001DFFF7D6B89C
:10D20000FFF730B910B504460121001DFFF7EAF819
:10D2100010F0FF0F04D12046BDE81040FFF7D3BF48
:10D2200010BD1CB501920122009201AAFEF7AEFFCB
:10D230001CBD1CB501920022009201AAFEF7A6FFB8
:10D240001CBD0000064910B500204870091D08608B
:10D25000BFF35F8F0349044800F0FEF9002010BDC2
:10D260009C230020F0F10100DC2A002010B500F022
:10D27000CFF908B141DF10BD20BF40BF20BF10BDB6
:10D28000FCF78ABD82680021916082681161826822
:10D2900051618268D1608268516080680160704726
:10D2A00008B5002242504058009008BD20B1034903
:10D2B00009680160002070470E207047DCF3010010
:10D2C0002DE9FE4307460E460846FFF7EFFF00280C
:10D2D00078D100250095019506208DF800704FF05B
:10D2E0000108ADF8040002958DF8028069462020FF
:10D2F000326869DF3449354A891AC908012202EBCC
:10D30000014430B100F016FA024620463049FFF7DA
:10D3100027FE0095019502958DF801806946402011
:10D32000326869DF30B100F005FA0246204629492B
:10D33000FFF716FE00958DF80070F720ADF802009B
:10D340000195029569462320326869DF30B100F00B
:10D35000F1F9024620462049FFF702FE00950195AB
:10D3600002958DF8008069460120326869DF30B18E
:10D3700000F0E0F9024620461849FFF7F1FD4FF4AE
:10D38000B0600090019502956946A120326869DF7E
:10D3900030B100F0CFF9024620461149FFF7E0FD19
:10D3A0000095019502958DF800506946A0203268DD
:10D3B00069DF30B100F0BEF9024620460949FFF7A7
:10D3C000CFFD0020BDE8FE83FCFB01008CFB0100CB
:10D3D000D8F9010020FA01006CFA010038F90100C7
:10D3E00084F90100E4F801002DE9F04105460768E1
:10D3F00060DF804619491A482A68081AC608BA42E6
:10D4000019D9022000EB064416A12046FFF7A4FD1F
:10D4100020463A461FA12B68FFF7A9FD4FF0805028
:10D42000D0F80C012968800200F10050421A204611
:10D4300025A1FFF795FDB8F100004FF001040AD0D7
:10D4400000F078F9024604EB06402AA1FFF788FDB8
:10D450004046BDE8F0812F480470F9E7FCFB01006D
:10D460008CFB0100496E73756666696369656E744D
:10D470002052414D20616C6C6F636174656420665D
:10D480006F722074686520536F66744465766963B3
:10D49000652E00004368616E6765207468652052E0
:10D4A000414D207374617274206C6F636174696F95
:10D4B0006E2066726F6D203078257820746F203072
:10D4C0007825782E000000004D6178696D756D201B
:10D4D00052414D2073697A6520666F7220617070C9
:10D4E0006C69636174696F6E206973203078257888
:10D4F0002E00000073645F626C655F656E61626C34
:10D500006528292072657475726E65642025732EF6
:10D51000000000000B24002030B51548ADF5017D5A
:10D520000078002821D04FF4FA7500BFADF8005202
:10D5300080A9684661DF38B1052816D00DF5017D58
:10D54000BDE83040FCF728BC6C460A497DA800F0D5
:10D5500083F806E0D0E90021204690477DA800F03E
:10D5600092F87F980028E1D0F4E70DF5017D30BDF9
:10D570000B240020E0F301007CB5194C207808B1A1
:10D5800008207CBD0120A070002001F071F8112856
:10D5900019D0002001F084F812480026006801909C
:10D5A0008DF800606846FCF71FFD0F4901A810DFE9
:10D5B00005000AD0002020709DF80000FCF738FD1F
:10D5C0002DB128467CBD00207CBD0120F3E7A6706C
:10D5D000667001F027F9012001F062F8F3E700001E
:10D5E0000824002074F30100159D01000EB50749C1
:10D5F000684600F031F805E0D0E900108847684639
:10D6000000F041F802980028F6D10EBD90F3010019
:10D610000148007870470000082400201FB56846C4
:10D620004BDF30B1052814D004B0BDE81040FCF742
:10D63000B3BB084901A800F00FF806E0D0E90021CB
:10D640000098904701A800F01EF803980028E6D043
:10D65000F4E71FBDFCF30100016009684160AFF30E
:10D66000008010B5D0E900215368994201D1002112
:10D6700004E0D1E90034A34202D01946816010BD14
:10D6800008314160F0E7816800290BD00268926898
:10D690000A44826041684B689A4203D10831416074
:10D6A000FFF7DFBF704770B50D460646446804E0DB
:10D6B000B2682946904718B1246820680028F7D13D
:10D6C00020682860256070BD406800687047416828
:10D6D0000868002801D002680A60704702460020EE
:10D6E000526806E08B4203D1086810600120704741
:10D6F0001A461368002BF5D1704700000C4A10B58C
:10D7000002F594730EE0991AC91001EBD17149101A
:10D7100002EBC1010C68844201D90B4602E005D23C
:10D7200001F108029A42EED3002010BD486810BDF6
:10D7300010F2010000B5FFF7E1FF002800D1014819
:10D7400000BD0000FCF101004058002800D001207D
:10D75000704708B5002242504058009008BDD0F8EC
:10D760000403084000D0012070474058002800D032
:10D770000120704708B5002242504058009008BD73
:10D7800002480068002800D00120704700040140D2
:10D7900008480068012110F0010F06D14FF0E02089
:10D7A000C02280F800248430C1670349012008604A
:10D7B0007047000000E100E01805004006490246FD
:10D7C00000200B790BB1852070470A6001220A7195
:10D7D00000224A717047000028230020022010B563
:10D7E0004107C1F808034FF48270FEF772FF054944
:10D7F0000120086004480168C1F300410029FAD102
:10D8000010BD00000C00004018040040002802D0A9
:10D810000149800108477047C1F101002DE9F0413D
:10D820000E46054600F02EFD0028284619D0FDF7CB
:10D83000D7FD083800F098FD032802D001280ED04B
:10D8400007E04FF0A040D0F81005E84010F0010FBD
:10D8500005D003212846BDE8F041FFF745B9022174
:10D86000F8E700F01BFD002822D02846FDF7B8FDA0
:10D8700004464FF4807000EB84000E4F81B207EB3A
:10D880008400D0F8102542F00102C0F810250846A7
:10D89000FFF76CF9002E0BD02846FDF7A1FD0649D5
:10D8A00051F82000002803D00120A040C7F804034D
:10D8B000BDE8F08100600040682900202DE9FC41AE
:10D8C000DFF8B880044608EB0400002790F9300028
:10D8D0001346C0170E46401C01D008274AE0B07816
:10D8E0001946C0F340022046FDF756FD0546401C90
:10D8F0003FD0B078410717D4C0070AD04FF0A040FE
:10D9000000EB8400D0F8001721F00201C0F80017E6
:10D9100007E000217378204600910A460191FFF745
:10D9200087F8204600F0A0FCB078800718D514488E
:10D93000317800EB8500D0F81025124B1A40C0F862
:10D9400010254FF4F8524FF4403302EA042203EA60
:10D9500001410A43D0F810150A43C0F8102509E028
:10D9600008EB0500327810F8481F41EA8211017077
:10D9700000E004273846BDE8FC810000682900204B
:10D9800000600040FFE0FCFF4FF0A041D1F810150F
:10D99000C14011F0010000D00120704770B5194D51
:10D9A00095F8580008B1082070BD0024661E204676
:10D9B000FFF7C2F810B1281980F83060641CE4B297
:10D9C000202CF4D300242046FDF7D8FC641CE4B2DC
:10D9D0000C2CF8D300200D4968650B4CC02081F851
:10D9E000000401264020891FC1F800014FF4BE70D9
:10D9F000FFF7BCF8A004C4F8040385F858600020C1
:10DA000070BD0000682900200060004006E000E0D2
:10DA1000034890F85800002800D00120704700000B
:10DA2000682900200121B1EB507F01D1012070470E
:10DA30000020704738B50D4600F008FD040014D0F2
:10DA400000208DF800006846FCF7CEFA207928B156
:10DA50009DF80000FCF7ECFA112038BD012025608C
:10DA600020719DF80000FCF7E3FA002038BD0000AB
:10DA70000149024801F0CAB8C42900200020004032
:10DA80002DE9F0410546007916460F4600EB4001AE
:10DA90002D4A01EBC00102EB810494F82A1011B168
:10DAA0000820BDE8F081294951F820102868FFF7C7
:10DAB000C1FF08B11120F4E739462846FCF7D2FA35
:10DAC00066603869206030004FF001062FD03F7F3C
:10DAD0004FF48E712868FFF73CFE4FF4A27128685E
:10DAE000FFF737FE28681A49C0F8041328684FEA80
:10DAF000471140F30730002804DB00F1E02080F8F4
:10DB0000001405E000F00F0000F1E02080F8141D83
:10DB1000286840F30730002809DB00F01F0106FAEF
:10DB200001F14009800000F1E020C0F800112868F0
:10DB30000421C0F800150020A061E06184F82900EC
:10DB400044F8140FA675ACE7C429002074F1010055
:10DB5000800002002DE9F05F054600794FF4017660
:10DB600000EB400303EBC000344B03EB80040020C8
:10DB7000636813B12B68C3F80863A3694FF0000909
:10DB80006BB1E06938B1606810B12868C0F804630F
:10DB90001120BDE8F09FE2610120216105E0C4F899
:10DBA0002490A261E160C4F81C9094F8291001430C
:10DBB00002D1284600F01FFD60680028286803D0C5
:10DBC000C0F804630020E4E74FF4A2763146FFF783
:10DBD000C0FDB2464FF4927B59462868FFF7B4FD6A
:10DBE00006464FF484712868FFF7AEFD8046514623
:10DBF0002868FFF7A9FD074648EA07003043EBD045
:10DC000056EA070007D12146286800F0C5FCA16943
:10DC1000606A8142E0D8C4F818900EB10320B8E7DA
:10DC20000FB10F20B5E794F82910012000292968C9
:10DC300001D00860C6E74860C4E70000C42900209E
:10DC40002DE9F05F054600790B4600EB400101EB42
:10DC5000C000244901EB8004284600F045F810B1CB
:10DC60001120BDE8F09F62614FF00009C4F82090D8
:10DC7000A36084F828904FF48E784E464146286879
:10DC8000FFF767FD28684FF0010AC0F808A0214699
:10DC9000286800F0EBFE606808BBD5F800B0676943
:10DCA0000FE000BF94F8280008B10F2615E04146A8
:10DCB0005846FFF749FD0028F4D02146584600F0A9
:10DCC000D5FE206AB842F2D3574641462868FFF78E
:10DCD0003BFD0028F9D02868C760C4F8149030468E
:10DCE000BFE70000C4290020007900EB400101EBF0
:10DCF000C000044901EB80004069002800D00120E9
:10DD000070470000C42900200149024801F02CB8E6
:10DD1000F0290020002000402DE9F041054616467C
:10DD200000790F46154A00EBC00102EB810494F81C
:10DD3000201011B10820BDE8F081114951F82010E0
:10DD40002868FFF777FE08B11120F4E73946284626
:10DD5000FCF7CCF96660386920601EB1397F28462F
:10DD6000FDF7C0FF28680821C0F800150020A06159
:10DD7000E0616061012184F82010DCE7F0290020D7
:10DD800078F101002DE9F05F044600790E4600EBC2
:10DD9000C001DFF8F0A017460AEB81053046FFF717
:10DDA00041FEB0B168684FF000084FF4047910B13B
:10DDB0002168C1F80893A8694FF0000B80B1E869A9
:10DDC00048B1686810B12068C0F804931120BDE81C
:10DDD000F09F1020FBE7EF614FF001082E6102E099
:10DDE000EE60C5E9067B00254FF488712068FFF7D7
:10DDF000C1FC4FF4A2712068FFF7BCFC2068C0F89A
:10DE00003465C0F838752068B8F1000F12D0D0F82A
:10DE1000001241F02001C0F800122079D04600EB3A
:10DE2000C0010AEB8100406838B12068C0F8049353
:10DE30002846CCE701210160EFE74FF4887A4FF4E0
:10DE4000A27951462068FFF790FC074649462068B2
:10DE5000FFF78BFC06464FF492712068FFF785FCB4
:10DE6000014647EA06000843EBD0227902EBC203E1
:10DE700008EB8302C2F818B001B10325002ED7D0F9
:10DE80000F25D5E7F02900202DE9F04704460E467E
:10DE90000079274900EBC00001EB800517463046AA
:10DEA000FFF7C0FD30B1204600F044F820B111204A
:10DEB000BDE8F0871020FBE76F61AE604FF490770C
:10DEC0004FF0000839462068FFF754FC4FF4AC7659
:10DED00031462068FFF74EFC2068AA686969C0F8DF
:10DEE0004425C0F8481520684FF00109C0F8089093
:10DEF0006868D0B9BA4651462068FFF736FC074635
:10DF000031462068FFF731FC0743F4D010B14FF0E1
:10DF10000F0808E02068C0F80C9031462068FFF731
:10DF200024FC0028F9D0002068614046C0E70000CA
:10DF3000F02900200079054900EBC00001EB8000CA
:10DF40004069002800D0012070470000F02900201F
:10DF50002DE9F04105460078002828D115481649DA
:10DF60000026401AC008012101EB004710E0286993
:10DF7000805DFCF70FF8040009D0112CF7D038466B
:10DF800022460EA1FEF7ECFF2046FBF705FF761CAC
:10DF9000A88AB042EBD8A98A2869084410F8010C75
:10DFA0000D2804D10A20FBF7F5FF1128FAD0BDE8AF
:10DFB000F0810000ECFB01008CFB01004661696C04
:10DFC000656420726563656976696E67204E555396
:10DFD000206D6573736167652E204572726F7220C4
:10DFE000307825782E20000010B550B103280CD1D0
:10DFF0000220FCF7FFFF002807D0BDE81040FBF728
:10E00000CBBEBDE8104000F0EDBB10BD007800288D
:10E0100007D104483B21408876DF002801D0FBF778
:10E02000BBBE7047D0220020F0B58BB00026019611
:10E030000D4604468988406901AAFCF79BF80AA8A6
:10E04000CDE908600227ADF82070ADF82260218983
:10E05000A88808AAADDF002819D1A069002816D029
:10E060000998FCF76AFE002811D0019E0EB101202C
:10E070003070182102A8FBF72AFA8DF80870039473
:10E08000A888ADF810000596A16902A888470BB0D2
:10E09000F0BD000070B502468888C97B00EB4003E4
:10E0A00002EB4304A41D012901D11188218021889C
:10E0B0006288914213D9A5DF012578B111280FD0CC
:10E0C000FFF738FB024607480749401AC00805EB2E
:10E0D0000040BDE8704005A1FEF742BF657170BD0C
:10E0E000257170BD8CFB01008CFB010073645F62C5
:10E0F0006C655F67617474635F65786368616E67A0
:10E10000655F6D74755F726571756573742829201C
:10E1100072657475726E65642025732E00000000B0
:10E120007CB506468D88C88805EB450106EB4104A1
:10E13000A41D172800D217202188814200D8084644
:10E1400060800020207121882846B5DF60B1FFF78C
:10E15000F1FA02460F481049401AC008012101EBAC
:10E1600000400EA1FEF7FCFE6079002810D1F06897
:10E1700000280DD01549D1E90201CDE90001ADF823
:10E1800002506088ADF80400F26869463046904756
:10E190007CBD00008CFB01008CFB010073645F629E
:10E1A0006C655F67617474735F65786368616E67DF
:10E1B000655F6D74755F7265706C79282920726572
:10E1C0007475726E65642025732E000050F1010095
:10E1D000F0B587B00C4605468E1D8988406906AAB1
:10E1E000FBF7C8FF18216846FBF771F90195A08875
:10E1F000069AADF80800039231882B89002704F1B4
:10E200001200994202D17389022B0DD0AA89914242
:10E210001ED1A96900291BD08DF800700490708967
:10E22000ADF81400A96911E0002A11D0FCF785FDB2
:10E2300020B1069901200870022002E006980770BC
:10E2400003208DF80000A969002901D0684688479D
:10E2500007B0F0BD0068012803D0022801D00020DB
:10E26000704701207047000010B50549C20800F052
:10E270000703885C01249C402043885410BD0000A3
:10E28000BC2900200449084490F93000082801DB2B
:10E290000120704700207047682900200449084485
:10E2A00090F93000082801D2012070470020704703
:10E2B000682900202DE9F05F2A4F06464FF0A04A5A
:10E2C0004FF0010B0024381990F95010491C3CD034
:10E2D00090F85000314620F0C0052846FEF7DAF8E5
:10E2E00020B3204600F040F881460AEB8500D0F8C4
:10E2F0000007C0F30148B8F1020F18D002212846E8
:10E30000FEF7F2FB0BFA05F1CAF820152846FDF7D7
:10E3100067F857F820204AB14846B9F1030F11D0E9
:10E32000B8F1020F05D0B8F1030F07D00DE00321BB
:10E33000E5E74846B9F1010F04D006E04846B9F1D7
:10E34000020F02D1014628469047641C042CBAD320
:10E35000324601210020FEF7D9FB30680028B1D1F8
:10E36000BDE8F09F682900200249084490F8500059
:10E37000800970476829002010B50C46017A0529EC
:10E3800008D0407A38B1084808A102682046FEF754
:10E3900037FA00E01AB106A12046FEF731FA20460E
:10E3A000BDE81040FEF739BAE423002025730000D1
:10E3B0000D0A000038B5C3880D46044633B114A0D9
:10E3C000009015A216A12846FEF71AFA217A05290F
:10E3D0001CD0607A48B1A088FEF77CFC164951F841
:10E3E000202016A12846FEF70BFAA0880021FEF790
:10E3F0003DFE03461049207A143951F8202001B01F
:10E400002846BDE830400EA1FEF7FAB938BD00003D
:10E410001B5B306D000000001B5B313B33316D0036
:10E4200025734C6F67732064726F70706564202869
:10E4300025642925730D0A00E423002025730000BC
:10E440003C25733E2025733A200000000349884292
:10E4500001D10348704700207047000000200040B1
:10E460003023002070B50546FDF72DFA134C40B15E
:10E47000D4E904024FF08071411842F10000C4E970
:10E48000041000212846FDF76BF930B1606820B117
:10E49000606800F05BFA0020606001212846FDF70B
:10E4A0005FF918B1FDF788FBC4E90601284600F0C2
:10E4B00079FA2846BDE8704000F034B850230020B7
:10E4C00070B5054600200C460870FDF775FBD5E9D0
:10E4D0000223101A63EB010300263146361A9941D4
:10E4E00012DAB0F5350F03D3FBF78AFC0B4942185B
:10E4F0004FF4960300210A48FDF7F1F910B10D28F9
:10E5000006D009E0012070BD00210548FDF71EF985
:10E51000284600F01BFA2070002070BDFFFFB400F9
:10E5200058230020F8B51A4C074600261948FFF773
:10E53000CBF8D0B1616871B1D0E902106268D2E95C
:10E540000232C91A904120D26068007F18B1616818
:10E550001048FFF7A8F800F091F905466946FFF763
:10E56000AFFF98B1606840B10AE0606800280CD144
:10E570003846BDE8F840FDF7AEB93846FDF7A7F9D3
:10E5800065609DF800000028D0D1F8BD6660CDE739
:10E59000502300208CF1010070B5054688690C46B7
:10E5A00000284FF4847128460AD0FFF7D2F8D5F836
:10E5B0001805626AE1688854606A401C606270BD38
:10E5C000FFF7C7F8D5F8180570BD1FB501238DF802
:10E5D0000030CDE90121D0E90012684690471FBD07
:10E5E0001FB501238DF80030CDE90121D0E90012DB
:10E5F000684690471FBD10B5044600684FF49271FD
:10E60000FFF7A7F84FF484712068FFF7A2F820689D
:10E610000121016010BD000038B50021012548B17D
:10E62000012810D003280DD1FFF7B2F8BDE838401B
:10E63000FEF778B84FF0E020C0F88051BFF34F8F5D
:10E64000BFF36F8F38BD8DF800106846FBF7CCFC28
:10E65000064C207808B9FEF745F8E068401CE060F9
:10E66000A5709DF80000FBF7E3FC38BD542900209D
:10E670003EB5044609496846FEF7EEFF08E000BFD4
:10E68000D0E900212046904730B16846FEF7FBFFF5
:10E6900002980028F4D13EBD11203EBD78F3010060
:10E6A0003EB5044608496846FEF7D6FF07E000BFBE
:10E6B000D0E90021204690476846FEF7E4FF029823
:10E6C0000028F5D13EBD000084F3010002498969AC
:10E6D000002900D008477047BC2800202DE9F041F0
:10E6E0001400884618D000250E4F032608EB0501BC
:10E6F00022460020FAF7DCFF0544241A40B9387896
:10E70000002809D008494FF47A408847761E05D082
:10E7100001203870002CE9D1BDE8F081002038706C
:10E72000FAE70000A823002051F301002DE9F04191
:10E730000746806A14468846C8B3002531E000BF0A
:10E74000B96A05EB450001EB8006B088801CFE2805
:10E7500002D90C20BDE8F0812288401C08F8020094
:10E7600020881622401C80B2208008F800202088D3
:10E77000401C80B2208000EB0801308800F07DFB57
:10E780002188084480B22080B28842B1B16871B15A
:10E790004044FAF783FE2088B188084420806D1C2D
:10E7A000EDB297F82C00A842CAD80020D2E7FFE7C4
:10E7B0000720CFE70A78062822F0FF020A7010D25D
:10E7C000DFE800F0030507090B0D002008E0112029
:10E7D00006E0212004E0312002E0122000E02220A7
:10E7E0000870704710B50020FCF704FC08B1FBF777
:10E7F000D3FAFCF759FB08B1FBF7CEFA33DF002858
:10E8000003D0BDE81040FBF7C7BA10BD002805D102
:10E810000349012048700020FCF7B2BE7047000099
:10E820005429002010B51620FBF7DCF9A0B11148DF
:10E8300090F800044009082811D20121814011F00C
:10E84000EC0F0CD00C4882684FF480016AB101686B
:10E8500041F48001016010BD42F2010001E042F28A
:10E860000200BDE81040FBF797BA4FF0E020C0F877
:10E87000001110BD16E000E0D02A00200148FEF78C
:10E8800026BF00008CF10100C207002A03D000BFA0
:10E890004FF00F0201E04FF0F00201D04FEA0111FA
:10E8A000044B03EB5003187800EA020040EA010031
:10E8B00018707047382A00202DE9F84F0746214884
:10E8C0009146884605681E46012269461846FCF7AF
:10E8D000CFFCDFF874A060B3009800210446801CD0
:10E8E0000AE000BF00EA050259F821C00AEB8202E3
:10E8F000401C491CC2F80CC0B142F3D34FEA17497F
:10E90000FCF71AFF611C29400AEB810149EA004229
:10E910002C40CA600AEB8401C86867F3C50066F33F
:10E92000891068F39F2020F00300401C20F00400B1
:10E93000C8609AF8000001E0FEF7F2F90028FBD168
:10E94000BDE8F88FB4230020802C002070B5044669
:10E95000124800250078F8B1F4B1207FE0B1FDF74E
:10E960002BF9D4E90223801A994110D3206900269B
:10E9700000B92677D4E905108847206960B1217F66
:10E9800051B1D4E9022110187141C4E902012146B4
:10E990000348FEF788FE0125284670BD502300205D
:10E9A0008CF10100F8B51B4C69462068FDF7C2FCEC
:10E9B00000260127184D29E0017821B101290CD04A
:10E9C00002291BD114E041680A7FBAB90F77416868
:10E9D00010480830FEF767FE10E041686868814221
:10E9E00001D16E600AE00B480830FEF777FE05E0C3
:10E9F000FFF744FF08B10677FAE72F7069462068F1
:10EA0000FDF78DFC69462068FDF794FC0028D3D102
:10EA1000F8BD000084F1010050230020F8B50B4C34
:10EA20000D46064669462068FDF76EFC58B1067033
:10EA3000456069462068FDF788FC10B10448FCF782
:10EA40002FFF0020F8BD0420F8BD000084F1010074
:10EA5000582300200348806841080348002240688A
:10EA6000FBF70EBA382300207CF1010070B50C468C
:10EA700005464FF48E71FEF76CFE216AA068415C7A
:10EA8000206A401C2062C5F81C1570BD1FB500220D
:10EA90008DF800200291816801914261D0E9001255
:10EAA000684690471FBD1FB500228DF800200291D7
:10EAB000816801914261D0E90012684690471FBD0C
:10EAC00038B5017841B1012901D002292FD1406820
:10EAD000BDE83840FBF760B9164C154D2078284446
:10EAE000FBF7ECF92078401CC0B22918207011F80F
:10EAF000011C0A2904D00D2902D0A188884216D30E
:10EB0000012812D92078ADF800000A4863886A46C7
:10EB100007490C30FCF738F8082806D01328F1D044
:10EB2000052802D008B1FBF737F90020207038BD66
:10EB300010240020D02200207CB50178254DA1B3FF
:10EB400001290BD002291DD18DF80010C068691C65
:10EB500001900122C81DFDF733FE30E0017A59B162
:10EB6000406801781C48FBF73DF91B4C012650B169
:10EB70008DF8006001900DE016490122491CC81D66
:10EB8000FDF71EFE7CBDA068E168814205D0002033
:10EB90008DF80000696868468847A068E168081A2F
:10EBA000A1888842E8D9AE707CBDFFE70A480949D0
:10EBB0001030FBF7FCF830B103208DF800006968D5
:10EBC00068468847F0E70349012201F10800FDF794
:10EBD00007FEE9E774230020B02A00201FB50A468B
:10EBE00001788DF8001041680191017A8DF80810C4
:10EBF000C0680390044850F82210001F50F82220EB
:10EC0000684690471FBD0000242300202DE9FF47E0
:10EC10000C4605464FF40071FEF7A1FD01274FF4A5
:10EC20000178002618B34FF4927949462846FEF73A
:10EC30008BFDE0B149462846FEF78BFDC5F80883F9
:10EC400094F8290000B96F6002208DF80000D5F813
:10EC50008004C5F880040390A0690290E0680190E8
:10EC6000A661E661D4E900126846904728E00421D5
:10EC70002846FEF774FD18B34FF484712846FEF75A
:10EC800063FDE8B121462846FFF786FC616AA0696A
:10EC9000884215D1E06938B1E268616AA0612069F3
:10ECA000E6616662E06008E094F8290000B96F60F0
:10ECB000C5F80883A661E268616A2046FFF785FC13
:10ECC0004FF48E7841462846FEF73EFD80B16069DC
:10ECD000216A814202D294F8280028B3414628468E
:10ECE000FEF737FD606918B161692046FFF7CEFE77
:10ECF0004FF4A27841462846FEF726FD002818D09A
:10ED000041462846FEF725FD94F8290000B12F6002
:10ED1000A06900280DD0A661E268616A04B02046AF
:10ED2000BDE8F047FFF751BC21462846FFF79EFE9D
:10ED3000DEE7BDE8FF8700001FB50A4601788DF8C1
:10ED4000001041680191017A8DF80810C0680390A5
:10ED5000044850F82210001F50F8222068469047BF
:10ED60001FBD0000242300202DE9FF410C464FF475
:10ED7000927705463946FEF7F8FC0026B8B13946C9
:10ED80002846FEF7F7FC02208DF80000D5F8800435
:10ED9000C5F880040390D5F83C050290E068019026
:10EDA000A661E661D4E900126846904723E04FF47B
:10EDB000887739462846FEF7D8FCE0B13946284620
:10EDC000FEF7D8FCD5F83C15A069884213D1E0695C
:10EDD00060B1E268D5F8000220F02000C5F800021A
:10EDE000E069A0612069E661E06001E0A661E26897
:10EDF0002046FFF7F5FB4FF4A27739462846FEF789
:10EE0000B4FC68B139462846FEF7B4FCA06938B1B5
:10EE1000A661E661D5F83C152046E268FFF7E0FB05
:10EE20004FF4907631462846FEF79FFC60B131469C
:10EE30002846FEF79FFC0120E860606920B1D5F804
:10EE40004C152046FFF72FFE4FF4AC76314628468E
:10EE5000FEF78BFC00280ED031462846FEF78AFCD0
:10EE60006069002807D0D5F84C1504B02046BDE8ED
:10EE7000F041FFF718BEBDE8FF810870000A487036
:10EE8000022070472DE9F05F8346DDE90A4A994682
:10EE900090460D460846012703E000BFB0FBF8F09E
:10EEA0007F1C4045FAD2B94500D94F465FEACA7087
:10EEB00012D18CB15FEA8A7002D5B9F1000F01D08E
:10EEC000202607E0302605E031465846641EFCF750
:10EED00019FA0CB1A742F7D35FF00106B9F1010F9F
:10EEE00002D9A9F1010903E0B5FBF6F0404502D3D0
:10EEF00006FB08F6F2E7DFF83C9000BFB5FBF6F042
:10EF000000FB165519F800105846FCF7FBF9B6FB44
:10EF1000F8F6002EF2D15FEACA7009D0002C07D0B3
:10EF2000A74205D220215846641EFCF7EBF9F5E70D
:10EF3000BDE8F09FC6F10100F8B5054680B2FCF7C8
:10EF400073FE040013D0154E207A0027317B8842CF
:10EF50000ED2A8B204F10A0175DF28B1112806D03B
:10EF6000BDE8F840FFF7B2BB207A401C2072F8BD24
:10EF70002772307C38B1A8B23B2176DF18B108285F
:10EF800001D0FFF7A3FB71690029F0D08DF8007064
:10EF9000ADF8025068468847F8BD0000BC28002044
:10EFA000417939B190F8F21021B990F8F40008B124
:10EFB000012070470020704730B40446007A0028D2
:10EFC0000AD06088002166DF28B1112802D061686C
:10EFD00030BC08470120207230BC704770B50C4629
:10EFE0000546FCF7B3F9002807D04268002A04D090
:10EFF00021462846BDE87040104770BD2DE9FC4110
:10F000001646DDE90854CDE900541F468046022229
:10F0100000F00CF8002807D1CDE900543B4610223F
:10F020003146404600F002F8BDE8FC812DE9FC5F66
:10F030000026DDE90C4B994692468E46804627888D
:10F04000354630E0D8F80400002200EB8500694620
:10F050000068019001A864DF002830D19DF800000D
:10F0600050451FD10EB1002100E002212288084442
:10F070001118594522D846B9521C90B2208009F87F
:10F0800000E02088401C20800126218801A801EB97
:10F090000902694664DF002811D120889DF800101C
:10F0A000084420806D1CB8F80000A842CADC56B1A4
:10F0B0002088C01B401E80B2FF2802D90C20BDE86A
:10F0C000FC9F09F807000020F9E710B5042817D2C3
:10F0D00009B1032400E00024FBF734FE4FF0A04107
:10F0E00001EB8000D0F8001721F44031C0F8001780
:10F0F000D0F8001741EA0441C0F80017002010BD05
:10F10000062010BD080000000600000005000000F9
:10F11000070000000000000000E0D70111121314E6
:10F120000D0E0F1018280020382800206828002015
:10F130000D000300C9AE01000E000300C9AE0100BE
:10F140000F000300C9AE010010000300C9AE0100AA
:10F15000770A000000000000770A000000000000AD
:10F160009ECADC240EE5A9E093F3A3B50000406E2F
:10F170000000005071DA010009DD01000300000009
:10F18000182A0020482A0020010006000000000084
:10F1900070230020C5B50100FFFFFFFFFFFFFFFF49
:10F1A000FFFFFFFFFFFFFFFF000000000000000067
:10F1B0000000D60106010000000000000000000071
:10F1C0000338FDD87047303132333435363738396B
:10F1D000414243444546000000000000000000009A
:10F1E000000000000000000000000000000000001F
:10F1F000D8F10100F0F1010004000000556E6B6EC3
:10F200006F776E206572726F7220636F64650000A5
:10F210000000000008F8010001000000B4F6010041
:10F2200002000000A8F401000300000028F701001C
:10F23000040000007CF70100050000005CF60100FE
:10F2400006000000F8F501000700000064F7010067
:10F250000800000070F6010009000000D4F601006B
:10F260000A000000F0F701000B00000090F401001C
:10F270000C00000088F601000D00000058F80100A5
:10F280000E00000054F701000F00000090F701008D
:10F2900010000000C4F70100110000006CF801002C
:10F2A0001200000040F8010013000000DCF701002C
:10F2B0008000000010F60100810000004CF5010004
:10F2C000820000000CF5010083000000ECF4010056
:10F2D0008400000028F501008500000034F60100DC
:10F2E000860000003CF7010090000000D8F5010006
:10F2F00091000000CCF40100920000009CF6010097
:10F3000000820000A4F7010001820000F0F6010075
:10F31000028200000CF701000084000068F5010083
:10F320000184000014F8010002840000B0F501001F
:10F33000038400008CF50100F5CB0100F3CB010044
:10F34000EDCB010000000000000000000000000004
:10F350000338FDD870470000E82B00207F00000034
:10F36000682C0020000000000000000000000000E9
:10F37000000000000100000764F3010074F30100C5
:10F38000080000009CF30100ACF30100080000003D
:10F39000ACF30100BCF301000800000078FC0100A0
:10F3A00080FC0100000000000000000068FC01007B
:10F3B00078FC0100000000000000000020FC0100BB
:10F3C00028FC010028FC010048FC010048FC010069
:10F3D00058FC010058FC010060FC0100C82200201C
:10F3E000BCF30100DCF301000800000060FC010038
:10F3F00068FC01000000000000000000ECF30100C8
:10F40000FCF3010008000000004040404040404044
:10F4100040404141414141404040404040404040E7
:10F42000404040404040404040050202020202028B
:10F4300002020202020202020220202020202020DA
:10F4400020202002020202020202909090909090EE
:10F4500010101010101010101010101010101010AC
:10F460001010101002020202020288888888888820
:10F47000080808080808080808080808080808080C
:10F4800008080808020202024000000009F4010016
:10F490004E52465F4552524F525F494E56414C497B
:10F4A000445F4441544100004E52465F4552524F22
:10F4B000525F534F46544445564943455F4E4F545F
:10F4C0005F454E41424C4544000000004E52465FAD
:10F4D0004552524F525F464541545552455F4E4F3B
:10F4E000545F454E41424C45440000004E52465F39
:10F4F0004552524F525F4D555445585F554E4C4FF3
:10F50000434B5F4641494C45440000004E52465F24
:10F510004552524F525F4D555445585F4C4F434BE7
:10F520005F4641494C4544004E52465F4552524F5A
:10F53000525F4D555445585F434F4E445F494E49C5
:10F54000545F4641494C4544000000004E52465F1E
:10F550004552524F525F4D555445585F494E49549C
:10F560005F4641494C4544004E52465F4552524F1A
:10F57000525F424C455F495053505F52585F504B69
:10F58000545F5452554E4341544544004E52465FD9
:10F590004552524F525F424C455F495053505F5065
:10F5A0004545525F52454A454354454400000000DA
:10F5B0004E52465F4552524F525F424C455F495052
:10F5C00053505F4C494E4B5F444953434F4E4E4559
:10F5D00043544544000000004E52465F4552524F8E
:10F5E000525F4150495F4E4F545F494D504C454D1D
:10F5F000454E5445440000004E52465F4552524F1E
:10F60000525F4E4F545F535550504F525445440033
:10F610004E52465F4552524F525F4D4F44554C45F6
:10F620005F4E4F545F494E495449414C495A4544F5
:10F63000000000004E52465F4552524F525F4D4F00
:10F6400044554C455F414C52454144595F494E49F0
:10F650005449414C495A4544000000004E52465F0F
:10F660004552524F525F4E4F545F464F554E4400E5
:10F670004E52465F4552524F525F494E56414C4999
:10F68000445F5354415445004E52465F4552524FD9
:10F69000525F444154415F53495A45004E52465FC0
:10F6A0004552524F525F494F5F50454E44494E4775
:10F6B000000000004E52465F4552524F525F535673
:10F6C000435F48414E444C45525F4D495353494E68
:10F6D000470000004E52465F4552524F525F494E1E
:10F6E00056414C49445F4C454E4754480000000089
:10F6F0004E52465F4552524F525F4452565F5457E6
:10F70000495F4552525F414E41434B004E52465F66
:10F710004552524F525F4452565F5457495F4552CB
:10F72000525F444E41434B004E52465F4552524F4A
:10F73000525F494E5445524E414C00004E52465F76
:10F740004552524F525F53544F524147455F4655C1
:10F750004C4C00004E52465F4552524F525F4E5540
:10F760004C4C00004E52465F4552524F525F494E3C
:10F7700056414C49445F504152414D004E52465F04
:10F780004552524F525F4E4F5F4D454D00000000B5
:10F790004E52465F4552524F525F464F5242494485
:10F7A00044454E004E52465F4552524F525F4452BE
:10F7B000565F5457495F4552525F4F564552525516
:10F7C0004E0000004E52465F4552524F525F494E26
:10F7D00056414C49445F4144445200004E52465FFA
:10F7E0004552524F525F5245534F55524345530075
:10F7F0004E52465F4552524F525F494E56414C4918
:10F80000445F464C414753004E52465F5355434375
:10F81000455353004E52465F4552524F525F424C41
:10F82000455F495053505F4348414E4E454C5F4100
:10F830004C52454144595F455849535453000000C8
:10F840004E52465F4552524F525F434F4E4E5F43BA
:10F850004F554E54000000004E52465F4552524FE5
:10F86000525F54494D454F55540000004E52465F7B
:10F870004552524F525F4255535900007761726EA4
:10F88000696E670064656275670000001B5B313B51
:10F8900033306D001B5B306D000000001B5B313BA3
:10F8A00033316D001B5B313B33326D001B5B313BF1
:10F8B00033336D001B5B313B33346D001B5B313BDD
:10F8C00033356D001B5B313B33366D001B5B313BC9
:10F8D00033376D00696E666F000000006572726FED
:10F8E0007200000073645F626C655F6366675F73DC
:10F8F000657428292072657475726E65642025739D
:10F90000207768656E20617474656D7074696E67C8
:10F9100020746F2073657420424C455F47415454F6
:10F92000535F4346475F534552564943455F4348FB
:10F93000414E4745442E000073645F626C655F630F
:10F9400066675F73657428292072657475726E65C9
:10F9500064202573207768656E20617474656D700E
:10F9600074696E6720746F2073657420424C455F24
:10F97000434F4D4D4F4E5F4346475F56535F55557E
:10F9800049442E0073645F626C655F6366675F73F2
:10F99000657428292072657475726E6564202573FC
:10F9A000207768656E20617474656D7074696E6728
:10F9B00020746F2073657420424C455F4741545456
:10F9C000535F4346475F415454525F5441425F5333
:10F9D000495A452E0000000073645F626C655F63E6
:10F9E00066675F73657428292072657475726E6529
:10F9F00064202573207768656E20617474656D706E
:10FA000074696E6720746F2073657420424C455F83
:10FA1000434F4E4E5F4346475F4741502E00000024
:10FA200073645F626C655F6366675F7365742829E2
:10FA30002072657475726E65642025732077686521
:10FA40006E20617474656D7074696E6720746F20C8
:10FA500073657420424C455F4741505F4346475FA2
:10FA6000524F4C455F434F554E542E0073645F62B6
:10FA70006C655F6366675F736574282920726574BF
:10FA800075726E6564202573207768656E206174D9
:10FA900074656D7074696E6720746F20736574206F
:10FAA000424C455F434F4E4E5F4346475F4741548C
:10FAB000542E00006E72665F626C655F67617474DD
:10FAC00000000000626C655F6E757300636C6F63AD
:10FAD0006B000000434C4F434B0000004750494F20
:10FAE000544500005052530055415254000000004C
:10FAF00055415254450000006170705F6275747426
:10FB00006F6E00006170705F74696D657200000057
:10FB10007077725F6D676D7400000000736F7274B0
:10FB20006C697374000000007274745F6C6F675FBF
:10FB30006261636B656E6400617070006E72665F17
:10FB4000736468006E72665F7364685F626C650000
:10FB50006E72665F7364685F736F630080FC0100A0
:10FB6000C82200204801000048950100D8FC01008F
:10FB70001024002018170000D49B010038F3010066
:10FB80000000000028FB0100AC230020B4FA0100B3
:10FB900000000303C4FA010000000000CCFA0100D9
:10FBA00000000000D4FA010000000000DCFA0100AF
:10FBB00000000000E4FA010000000000E8FA010083
:10FBC00000000000F0FA010000000000F8FA010057
:10FBD0000000000004FB01000000000010FB010019
:10FBE000000000001CFB01000000000038FB0100C9
:10FBF000000003033CFB01000000030344FB010081
:10FC00000000030350FB010000000303C023002099
:10FC1000B8230020C0230020282B0020180000005B
:10FC200081AA010000000000E1C4010004270020B7
:10FC3000A3A401002027002015A901000000000056
:10FC400085A9010000000000C5AC0100DC220020F5
:10FC50000FC601001427002039A801000000000091
:10FC60000DE801000000000019D5010000000000AF
:10FC70001DD601000000000019E601000000000090
:10FC800013F822132001320414FFFF14120102178B
:10FC9000021AC82801653D1001401190011F122071
:10FCA000BA4008011F5AFF04011C14DCF8011A7C39
:10FCB000041AD4041A84041A94041A8C041A9C0496
:10FCC0001AA4041AAC041AB4041ABC041AC4041A00
:08FCD000CC0451040090D003A4
:040000050001920163
:00000001FF
