:020000040001F9
:10900000F03A0020C1930100C9930100CB93010005
:10901000CD930100CF930100D19301000000000027
:10902000000000000000000000000000D3930100D9
:10903000D593010000000000D7930100D9930100EF
:10904000AD950100DB93010089980100DB930100DD
:10905000DB93010000000000F1940100DB930100AC
:10906000DB930100DB930100DB930100DB93010044
:10907000DB930100DB930100DB930100DB93010034
:10908000DB930100F5950100DB9301000000000077
:10909000DB930100DB93010099960100DB93010053
:1090A000DB930100DB9301000000000000000000E2
:1090B00000000000000000000000000000000000B0
:1090C00000000000000000000000000000000000A0
:1090D0000000000000000000000000000000000090
:1090E0000000000000000000000000000000000080
:1090F0000000000000000000000000000000000070
:10910000000000000000000000000000000000005F
:10911000000000000000000000000000000000004F
:10912000000000000000000000000000000000003F
:10913000000000000000000000000000000000002F
:10914000000000000000000000000000000000001F
:10915000000000000000000000000000000000000F
:1091600000000000000000000000000000000000FF
:1091700000000000000000000000000000000000EF
:1091800000000000000000000000000000000000DF
:1091900000000000000000000000000000000000CF
:1091A00000000000000000000000000000000000BF
:1091B00000000000000000000000000000000000AF
:1091C000000000000000000000000000000000009F
:1091D000000000000000000000000000000000008F
:1091E000000000000000000000000000000000007F
:1091F000000000000000000000000000000000006F
:10920000DFF80CD000F036F900480047ADC301008C
:10921000F03A002030B450E8012F93B2C4892344BF
:109220008489A34228BF1B1B0489A34202BFBFF34A
:109230002F8F002007E0C3EA020340E80134002C2E
:10924000E9D14FF001000A6030BC704750E8012FAF
:10925000C2EA024240E801210029F7D1704730B448
:1092600050E8022F1FFAA2F3C488A34202BFBFF343
:109270002F8F00200DE0C48923448489A34228BF96
:109280001B1BC2EA034340E80234002CE8D14FF034
:1092900001000A6030BC704750E8022FC2EA224247
:1092A00040E802210029F7D17047034653E8022F16
:1092B000D988B2EB324F4FF0000017BF92B241EAAB
:1092C000014142EA014104E05A68B2EB324F08BF63
:1092D000012043E80212002AE8D1704730B4044666
:1092E00054E8000F0D4644E80053002BF8D11560F8
:1092F00030BC704730B4044654E8000F40EA010522
:1093000044E80053002BF7D1156030BC704730B4EF
:10931000044654E8000F00EA010544E80053002B1E
:10932000F7D1156030BC704730B4044654E8000FE4
:1093300080EA010544E80053002BF7D1156030BCEA
:10934000704730B4044654E8000F00EB010544E8D0
:109350000053002BF7D1156030BC704730B4044681
:1093600054E8000FA0EB010544E80053002BF7D1AF
:10937000156030BC704770B404464FF0000054E8EC
:10938000006F0D68AE4207BF44E80023012044E8A7
:1093900000630E60002B1CBF0020F0E770BC70471C
:1093A00030B4044654E8000F88422CBF451A0546E5
:1093B00044E80053002BF5D1156030BC7047000025
:1093C0000648804706480047FEE7FEE7FEE7FEE75F
:1093D000FEE7FEE7FEE7FEE7FEE7FEE7B1960100E7
:1093E00001920100202A04DB203A00FA02F1002059
:1093F00070479140C2F1200320FA03F319439040D3
:1094000070470000004870475C0F020040EA01030B
:109410009B0703D009E008C9121F08C0042AFAD22A
:1094200003E011F8013B00F8013B521EF9D27047EE
:10943000D2B201E000F8012B491EFBD27047002296
:10944000F6E710B513460A4604461946FFF7F0FF43
:10945000204610BD421C10F8011B0029FBD1801AC8
:109460007047034611F8012B00F8012B002AF9D1AF
:1094700018467047064C074D06E0E06840F00103CF
:1094800094E8070098471034AC42F6D3FFF7BCFECF
:109490002C1602004C16020070B58C1810F8015BF7
:1094A00015F0070301D110F8013B2A1106D110F87D
:1094B000012B03E010F8016B01F8016B5B1EF9D181
:1094C0002B0705D40023521E0DD401F8013BFAE707
:1094D00010F8013BCB1A921C03E013F8015B01F872
:1094E000015B521EF9D5A142D8D3002070BD000007
:1094F0002DE9F84F0026002000904FF480770125D9
:10950000002410E0384603F0F9FE40B100BF2548C2
:109510000068284018B1384603F0E2FE2E436D0083
:10952000381D87B2641C082CECD34FF4BE7003F0D6
:10953000E5FE50B14FF4BE7003F0D2FE46F0004697
:109540006A460121002003F077FEF0B210B3012536
:1095500000241DE005EA0600C0B100BF124850F823
:109560002400C0F30420814600BF0F4850F82400B7
:10957000C0F301408246204601F0AEFE8046B8F1BD
:10958000000F02D051464846C04700BF6D00641C22
:10959000082CDFD306F0004010B1684605F03CFF10
:1095A000BDE8F88F046300401065004010B54FF42B
:1095B000807003F0BAFB50B14FF4807003F0BEFB33
:1095C000012003F0C5FB0A480168002088474FF4DA
:1095D000827003F0AAFB50B14FF4827003F0AEFB2F
:1095E000022003F0B5FB024801680120884710BD46
:1095F0002423002010B5034A1068034A11688847E5
:1096000010BD0000942300209023002010B500F02E
:1096100043F910BD2DE9F047074688461646C24675
:1096200007EB47011B4800EBC109D9F8140020B132
:10963000012811D0022826D11EE0484600F064F926
:109640000546B54201D2002405E034463246514673
:10965000484600F0A0F918E0484600F055F90546E4
:10966000B54201D2284600E0304604462246514623
:10967000484600F090F908E032465146484600F06E
:1096800051F9044601E0002400BF00BF2046BDE8B8
:10969000F08700008030002010B504F0F5FC10BD0C
:1096A00001480249086070470090D003142400204C
:1096B00010B503F04FF828B167480068C0F3423096
:1096C0006649086003F07AF848B1002064490860F0
:1096D0004FF08041C1F810016049091F086003F094
:1096E000A1F8002855D05F4800685F4908605D48D0
:1096F000001D0068091D08605A4808300068091DEF
:10970000086058480C300068091D08605548103042
:109710000068091D0860534814300068091D08607E
:109720005048183000685049203108604D481C30BE
:109730000068091D08604B4820300068091D08605A
:10974000484824300068091D0860464828300068F1
:10975000091D086043482C300068091D0860414815
:10976000303000684049403108603E48343000687D
:10977000091D08603B4838300068091D08603948F9
:109780003C300068091D0860364840300068091DFB
:10979000086002F099FF40B13448006800F0010011
:1097A00018B16FF001003149086002F0C1FF28B123
:1097B0002F48006840F00F002D4908602D480068D0
:1097C00000F0004030B92B48001D006800F0004058
:1097D00000283ED001202849086000BF27480068C3
:1097E0000028FBD015202349086000BF23480068EB
:1097F0000028FBD015211F48001D016000BF1F4835
:1098000000680028FBD000201B49086000BF1B48EF
:1098100000680028FBD000BF00BF00BF00BF00BF32
:10982000BFF34F8F00BF00BF00BF1548006800F4B2
:10983000E06014490843001D1149086000BF00BFE3
:1098400000BFBFF34F8F00BF00BF00BF00BF00BF0E
:10985000FDE7FFF725FF10BD440200103C05004066
:109860000C0100400404001020C50040000400402A
:10987000E40E00400012001004E5014000E4014045
:109880000CED00E00000FA0510B5024908688047B9
:1098900010BD00002C23002010B5124C02202061C6
:1098A000606111A0A0611349E1614FF40071216270
:1098B0000021A1626162E1620BA0A0640E49E16433
:1098C000102121650021A1656165E1650BA1E01D05
:1098D000FFF7C7FD0AA12046FFF7C3FD2020A071B6
:1098E00010BD0000683000205465726D696E616CB7
:1098F00000000000E0300020E0320020525454000C
:10990000534547474552000010B501460A69CB68E8
:109910009A4204D88C68641EE41AA01801E0D41A94
:10992000601E10BD2DE9F0470446894617464FF0EA
:10993000000AE56800BFD4F81080A84503D9A8EB59
:109940000500461E04E0A5EB0800401CA1680E1AA5
:10995000A068401BB04201D9304601E0A068401B1E
:109960000646BE4201D2304600E0384606466168EF
:10997000481932464946FFF749FDB244B144BF1B7E
:109980003544A068A84200D10025E560002FD2D15F
:109990005046BDE8F0872DE9F04704468946154654
:1099A000E668A068871BAF4208D9616888192A4613
:1099B0004946FFF72BFD7019E06010E0B84661687A
:1099C000881942464946FFF721FDA5EB070809EB38
:1099D000070142466068FFF719FDC4F80C80BDE836
:1099E000F0870000014A024900F036B89BBD010033
:1099F000A823002002E008C8121F08C1002AFAD1DB
:109A000070477047002001E001C1121F002AFBD1FE
:109A1000704700000146202908DA012088400A4AE0
:109A2000104008B1012070470020FCE7402909DA06
:109A3000A1F12000012202FA00F008B10120F2E7B2
:109A40000020F0E70120EEE7FC06FFBD00BFEFF3CA
:109A50001081084672B670472DE9F04116460F4650
:109A60000446002503E03946B047641C6D1C20788D
:109A70000028F8D12846BDE8F0810246002104E024
:109A8000505C08B101207047491C0629F8D300201A
:109A9000F9E770B504460D4604F1EB00FFF7EDFF62
:109AA0000646012D06D0022D0DD0032D11D0042D18
:109AB00019D113E0A07928B194F8240010B90EB19F
:109AC000012070BD00BFE07910B10EB10220F8E7AF
:109AD00000BF207A08B10320F3E700BF607A08B125
:109AE0000420EEE700BF0020EBE70146481C0522FA
:109AF00090FBF2F302FB1300C0B27047014691F8ED
:109B00002420012A01D11F2000E01F20704710B53A
:109B100001220221002001F081FA044600BF1CB19D
:109B2000072C01D0204610BD00BF072202210120D2
:109B300001F074FA044600BF1CB1072C01D0204686
:109B4000F1E700BF0A220021084601F067FA044647
:109B500000BF1CB1072C01D02046E4E700BF002065
:109B6000E1E7000030B5ABB0AC216846FFF767FC19
:109B700002208DF8000000208DF8020005208DF8ED
:109B800003000121ADF84C100F49149101218DF80B
:109B90007C104021229144F2506123910B4829907E
:109BA00069460B4800F095FC044600BF254625B1E8
:109BB00000BF284600F0ECF800BF00BF01210448B8
:109BC00000F084FC2BB030BDF422002055ED0100E4
:109BD0003424002070B50321064800F03DFD044602
:109BE00000BF254625B100BF284600F0D1F800BFD0
:109BF00000BF70BD3424002010B5002407E00749E1
:109C0000096811F83400012104F0EAFB641C0448DF
:109C100000788442F3D3002010BD000038230020D8
:109C20003C2300202DE9F84306460D4617460A2F2F
:109C300002D20720BDE8F88304F016FD38B904F01D
:109C4000A9FC044600BF204600B1F3E700BF184856
:109C50000660184805701848076018480021016020
:109C600041608160C160164A1160516015E006EBE9
:109C7000C50814480068009098F802008DF80100AB
:109C800098F80000104A694604F000FC044600BF42
:109C9000204600B1CEE700BF00BF281EA5F101019C
:109CA000CDB2E4D1094A0021094800F0B9F8C1E772
:109CB000382300203C23002040230020002A0020DD
:109CC000482300204C0C020019BF0100F5B7010029
:109CD000480C020072B600BF03F05EFE00BF00BF7A
:109CE00003F008FC0028FBD100BF00BF1D491E4A3D
:109CF000891AC908012242EA01401CA103F088FD2B
:109D000000BF1D48006800F0010000B100BE00BFA8
:109D10001449154A891AC908022242EA014017A1CA
:109D200003F076FD00BF00BF00BF00BF00BFBFF360
:109D30004F8F00BF00BF00BF0F48E438006800F439
:109D4000E06012490843001D0B49E439086000BF78
:109D500000BF00BFBFF34F8F00BF00BF00BF00BFF9
:109D600000BFFDE7BC1602005C160200466174618C
:109D70006C206572726F7200F0ED00E053797374BD
:109D8000656D207265736574000000000000FA05BF
:109D90003EB50446002000900190029002946A466D
:109DA000002144F20100FFF795FF3EBD70B5044667
:109DB0000D46204601F096FF28B12946204601F0C5
:109DC00085FF002070BD0520FCE7034609B90E2081
:109DD000704712B1501E104008B10920F8E7196011
:109DE000501E988000209860D86000BFF0E770B5E2
:109DF00004460D46204601F075FFA188884205D82B
:109E00002946204601F081FF002070BD0420FCE7B8
:109E100010B5024801F070FD10BD00005023002075
:109E200010B503460C460AB9072010BD19684A61EF
:109E3000012C01D1012000E0002008610020F4E79E
:109E400038B5134800680090082358221149124879
:109E5000006802F01BFD04460CB1204638BD0F4AD5
:109E600069460F4801F04EFD04460CB12046F5E767
:109E700001210B4801F0ECFD01230A4A194608486C
:109E800001F00CFD0120084908702046E6E70000BB
:109E9000600C0200102A0020500C0200CDF60100D8
:109EA00050230020FFFF7F005C2300202DE9F041BC
:109EB00006460D4617463446207F10B10020BDE807
:109EC000F081A76102F00AF8401941F10001C4E9EC
:109ED0000201206900B125612146002006F070F9D9
:109EE000EDE770B504462546002028772946012075
:109EF00006F066F970BD00002DE9F04104460F48F8
:109F0000077821460E48FFF751FF804697B10020A1
:109F10000A49087001220B490B4802F0A7FF0546C9
:109F200000BF2E4626B100BF3046FFF731FF00BF0D
:109F300000BF00BF4046BDE8F08100008E23002036
:109F4000782A00208D230020742300202DE9F04181
:109F500088B004460E46174698462B4807601EB93F
:109F6000072008B0BDE8F081B08882B22748316888
:109F7000FFF72BFF054600BF284600B1F1E700BF01
:109F8000B08982B22248B168FFF71FFF054600BFC3
:109F9000284600B1E5E700BF20221E496846FFF7CA
:109FA00035FA60690690207C08B1012000E00020AD
:109FB0008DF814008DF81C80607C08B10E2000E044
:109FC00000208DF81500E0680290A06803902068DA
:109FD000019060680090104A6946104802F000FF46
:109FE000054600BF284600B1BBE700BF00200C4972
:109FF00008702068401C28B101220A49074802F075
:10A0000035FFAEE70020ACE788230020782A002047
:10A01000882A0020640C0200DD0302007423002063
:10A020008E2300208D2300202DE9F041054629468E
:10A030001448FFF7DCFE064606BB134C00272078C9
:10A040001249085C20B1201D04F020FE074608E0FC
:10A0500020780E49085C20B904F10C0004F0BEFC25
:10A06000074600BF57B90A490648FFF79FFE28B9BF
:10A0700001220749044802F01BFF06463046BDE8AE
:10A08000F0810000882A0020742300202023002073
:10A090008C23002010B50446204605F065FC10BD59
:10A0A00070B5044625460E488068B0B1ADB9FFF7DB
:10A0B000CDFC06460A4800680A490860084840681E
:10A0C0004FF0E021C1F804010020054988601EB965
:10A0D00000BF62B600BF00BF00BF00BF70BD000080
:10A0E000982A002000E100E0F8B505460C46174626
:10A0F0002088001DB84201D90C20F8BD684679DFE0
:10A10000064600BF304600B1F7E700BF03202188B4
:10A1100068542088401C2080192021886854208899
:10A12000401C208020884119BDF8000006F076FB15
:10A130002188084420800020DFE770B505460C46E2
:10A140002068401C28B1206803F0ADF8206803F0B7
:10A1500042F86068401C18B10021606803F021F8E3
:10A160002868A169C0F8241500BF617D227D286898
:10A1700041EA0203C0F86C3500BFD4E90012286838
:10A1800004F096F8207D012814D1A068401C18B175
:10A190000021A06803F005F8E068401C28B1E068E1
:10A1A00003F081F8E06803F016F8D4E9022128688A
:10A1B00004F066F870BD70B505460C462068401C7A
:10A1C00028B1206803F07AF8206803F010F860687E
:10A1D000401C18B10021606802F0F0FF2868A169F6
:10A1E000C0F8241500BF617D227D286841EA020382
:10A1F000C0F86C3500BFD4E90012286804F092F86A
:10A20000207D012814D1A068401C18B10021A0684D
:10A2100002F0D4FFE068401C28B1E06803F04EF87B
:10A22000E06802F0E4FFD4E90221286804F05BF85A
:10A2300070BD0000002114E00C48D0F81024012368
:10A2400008E000BFD0680079884201D1002303E014
:10A25000D0680268002AF4D100BF0BB108467047ED
:10A26000491C0A29E8DB4FF0FF30F8E7482C0020B2
:10A270002DE9F04104460F46154615B90E20BDE8FC
:10A28000F0810020286000BF0CB90E20F7E700BF66
:10A2900000BF206808B90E20F1E700BF00BFE088CA
:10A2A000C11700EB91718910A0EB810109B1072062
:10A2B000E5E700BF384600F0D7FAC6B2142E01D148
:10A2C0000520DCE72079B04201DC0420D7E7E188F3
:10A2D000206806FB010028600020D0E72DE9FC4142
:10A2E000054688461646002437880020308095F8B9
:10A2F0002D0058B13A463146404600F0CDFA0446AA
:10A3000000BF204608B1BDE8FC8100BFA87850B16D
:10A310003A4631464046FFF7E7FE044600BF204676
:10A3200000B1F0E700BFE87860B1E97848B23B4699
:10A330003246414601F001FD044600BF204600B10F
:10A34000E1E700BF686868B1696891F900003B46C1
:10A350003246414605F0C1FF044600BF204600B129
:10A36000D1E700BF288900280EDD434606220221DE
:10A3700005F10800CDE9006706F020FB044600BFA8
:10A38000204600B1BFE700BF288A00280EDD434603
:10A390000722032105F11000CDE9006706F00EFB4E
:10A3A000044600BF204600B1ADE700BF288B00285F
:10A3B0000EDD43461522142105F11800CDE9006792
:10A3C00006F0FCFA044600BF204600B19BE700BF40
:10A3D000286A58B13B4632464146286A01F04CF99A
:10A3E000044600BF204600B18DE700BF686A58B13F
:10A3F0003B4632464146686A02F046F8044600BFD2
:10A40000204600B17FE700BF95F82C0000280BDD47
:10A410003B4632464146284605F0BAFB044600BF9B
:10A42000204600B16FE700BF287858B13B4632465E
:10A430004146284602F0E4F8044600BF204600B139
:10A4400061E700BF20465EE7F8B504460E461546B4
:10A45000002000902B466A463146204600F008F85E
:10A4600007460FB90020F8BDBDF800002044FAE708
:10A47000F0B504460D461E4604B10AB90020F0BDF1
:10A48000002103E0605C401C084481B2481CA842E3
:10A4900006DA10888842F5DC481C205CB042F1D115
:10A4A000A94201DB0020EAE7881C87B2605C10B19A
:10A4B000605C401E00E0002083B213B1F818A8428F
:10A4C00001DD0020DBE717801846D8E780F8301060
:10A4D000704770B504460D4605B10CB90E2070BD2D
:10A4E00005F1780001F069F808B90720F7E70020C6
:10A4F000A0702C2205F17801201DFEF787FF0020B7
:10A5000084F83000D5F8A4006063D5F8A800A063F3
:10A510004FF6FF70A4F8E80004F1D400C4F8E4009A
:10A520000021F020C4F8EA10A4F8EE1001552078BC
:10A5300010B9FF2084F8540004F15500C4F8D40089
:10A540002046FFF7DBFAD821085304F1D80204F1C2
:10A5500055012846FFF7C2FE064600BF304600B14F
:10A56000BDE700BF04F19300DC2108512046FFF74E
:10A57000C5FAA4F8E000DC20015904F1E00205F17D
:10A580003C00FFF7ABFE064600BF304600B1A6E731
:10A5900000BF012151200155208B81B24820015379
:10A5A000012084F83C00002121645020015561699C
:10A5B000616404F13C02002104F1540072DF06469C
:10A5C00000BF304600B18AE700BF0120207030464E
:10A5D00085E770B504460D462E462088102804D025
:10A5E000112807D026280FD109E02146304604F073
:10A5F00085FC0AE02146304604F0F5FC05E02146E2
:10A60000304604F016FE00E000BF00BF70BD70B51C
:10A61000044694F8540074DF012084F8F20000200E
:10A6200084F8F4000021502001550621204601F055
:10A630009FFB054600BF284600B170BD00BFA17852
:10A64000204600F009F8054625B1A06B10B1284658
:10A65000A16B88470020F0E770B504460E462078CD
:10A6600008B9082070BDA6700021F020C4F8EA10D7
:10A67000A4F8EE100155A07910B1A078012809D0F6
:10A68000E07910B1A078012804D0E07970B1A07809
:10A6900002280BD1606B30B1012084F8F100082052
:10A6A000616B884702E0002084F8F10031462046C3
:10A6B000FFF7EFF9A070606BA0B1A078032802D07B
:10A6C000A07804280ED1607960B194F8F20048B9FE
:10A6D000002084F8F400012084F8F3000720616B67
:10A6E000884702E0002084F8F300182104F13C00C0
:10A6F000FEF7A5FE012084F83C0004F12C0004F0D4
:10A700003FFE20B194F82C105120015502E00121A8
:10A710005120015594F8240060B104F1280004F0A0
:10A720002FFE20B194F828105220015502E001219B
:10A7300052200155002150200155A078052824D22F
:10A74000DFE800F01F030A11180004F13C01204665
:10A7500005F0AAFA054619E004F13C01204605F08F
:10A7600091FA054612E004F13C01204605F0AEFAEC
:10A7700005460BE004F13C01204605F0CEFA054603
:10A7800004E0002084F8310000E000BF00BFA078A2
:10A7900098B104F13C0204F15400D4F8E41072DFE3
:10A7A00005460DB128465DE794F8301094F8540042
:10A7B00073DF05460DB1284654E7606B18B194F875
:10A7C0003100616B884700204CE700002DE9F04123
:10A7D000044600BF14B90E20BDE8F08100BF1C2262
:10A7E00021461C48FEF712FE1B481A4908602068E3
:10A7F00060B120687ADF05460DB12846ECE71648BF
:10A8000021680A6802604968416005E012487BDF00
:10A8100005460DB12846DFE7002617E006EB860067
:10A820000E4901EB800700BF4FF6FF70388000BF74
:10A830000B4800EB461078600A4A0021381DFFF7EC
:10A84000EFFA05460DB10320C6E7761C002EE5D0D1
:10A850000020C1E784280020102300207028002059
:10A8600050280020E108020010B50446204600F000
:10A8700005F808B1204610BD1420FCE710B50446C9
:10A88000142C01DB002010BD2146024802F059F8CB
:10A89000F9E70000A42800202DE9FC4105460C46FC
:10A8A000174620880930B84202D90C20BDE8FC8147
:10A8B00068466DDF064600BF304600B1F6E700BFD0
:10A8C0000820218868542088401C20801B20218873
:10A8D00068542088401C208020882844DDF801101E
:10A8E0000160BDF8051081802088801D20809DF8C2
:10A8F0000000400818B900202188685402E00120B7
:10A90000218868542088401C20800020CEE7000069
:10A91000F8B505460F462888212847D006DC1028C0
:10A920000BD0112833D0132872D14FE03B2871D0BF
:10A9300052285CD05628F7D17AE04649464A891A0F
:10A94000C908032242EA014044A102F061FF072046
:10A9500000F092FB044600BF264626B100BF3046F9
:10A96000FFF716FA00BF00BFA8883F4908800846D5
:10A9700001883E4802F072F9044600BF264626B11F
:10A9800000BF3046FFF704FA00BF00BF5FE0314967
:10A99000314A891AC908032242EA014034A102F06F
:10A9A00037FF4FF6FF703049088050E000200090DC
:10A9B000A88869468FDF044600BF264626B100BF3F
:10A9C0003046FFF7E5F900BF00BF40E000231A461C
:10A9D0008521254800887FDF044600BF264626B132
:10A9E00000BF3046FFF7D4F900BF00BF2FE00023BF
:10A9F0001A4619461C480088B1DF044600BF2646A7
:10AA000026B100BF3046FFF7C3F900BF00BF1EE00C
:10AA10001CE0FFE7A888132176DF044600BF264626
:10AA200026B100BF3046FFF7B3F900BF00BF0EE00C
:10AA3000A888132176DF044600BF264626B100BF52
:10AA40003046FFF7A5F900BF00BF00E000BF00BF20
:10AA5000F8BD0000BC1602005C160200436F6E6E6B
:10AA60006563746564000000F02200202824002043
:10AA7000446973636F6E6E65637465640000000003
:10AA800070B505460E462888102802D011282CD112
:10AA900015E01748006860B900F082FE044600BF68
:10AAA00034B11448006818B1204612490968884733
:10AAB00000BF0F480068401C0D49086016E00C48B4
:10AAC0000068401E0A4908600846006860B9FFF740
:10AAD0001EF8044600BF34B10648006818B120468D
:10AAE00004490968884700BF00E000BF00BF70BD8F
:10AAF0000C2300200823002070B504460D46208852
:10AB0000102806D0112808D012280ED0502810D1B5
:10AB100007E0204604F080F90CE0204604F04AFAF1
:10AB200008E0204604F0B6FB04E0204604F05CF99F
:10AB300000E000BF00BF70BD2DE9F04104460F46A4
:10AB4000A6882088102806D0112810D0192835D0C2
:10AB50001A283FD10FE004F08BFD304604F064FD6D
:10AB600020B900BF0420FFF713F900BF32E03046E0
:10AB700004F0A2FD2EE0207A0509042D01DB01205E
:10AB800000E0002002463146144801F0C7F8032DCA
:10AB900001DB012000E00020024631460F48001F83
:10ABA00001F0BCF8022D01DB012000E0002002468C
:10ABB00031460A48083801F0B1F80BE0207A40B974
:10ABC000607AC0F3C0052A463146044801F0A6F871
:10ABD00000BF00BF00BFBDE8F0810000B828002022
:10ABE0002DE9F04186B00446884617461D4600BF51
:10ABF0001CB90E2006B0BDE8F08100BF01AA2946AD
:10AC00006069FFF735FB064600BF304600B1F1E74B
:10AC100000BF4FF6FF70854201D0019808B90520AA
:10AC2000E8E70198007808B90820E3E73888F428B5
:10AC300001DD0720DEE700200290039004900590DC
:10AC4000A088ADF80800CDF81480049701208DF895
:10AC50000A0002A92846AEDFCCE7000070B58EB02E
:10AC600004460E463E4B0FCB09AD0FC500BF14B9CD
:10AC70000E200EB070BD00BF00BF0EB90E20F8E769
:10AC800000BF3068A061214609A862DF054600BF09
:10AC9000284600B1EDE700BF20788DF8360001208E
:10ACA000ADF83400A21C0DA9A8DF054600BF284658
:10ACB00000B1DEE700BF202101A8FEF7C0FB0220A3
:10ACC000ADF8040020788DF80600F420ADF80800F7
:10ACD0000120ADF80A008DF810009DF8110020F059
:10ACE000080008308DF811009DF8110020F00400D4
:10ACF000001D8DF8110001208DF815008DF816004B
:10AD0000608804F10C0201A900F034FB05460DB186
:10AD10002846AEE7202101A8FEF791FB0320ADF8FD
:10AD2000040020788DF80600F420ADF8080001201A
:10AD3000ADF80A008DF810009DF8110020F0100009
:10AD400010308DF8110001208DF815008DF81600D7
:10AD50008DF817006088221D01A900F00BFB88E721
:10AD6000980B020070B504460D4605B104B970BDDC
:10AD70002E462088102804D0502807D057280FD1FD
:10AD800009E02146304604F07FF80AE021463046CB
:10AD900004F0ACFA05E02146304604F0E3F900E0A7
:10ADA00000BF00BF00BFE2E770B50446204605F0D3
:10ADB0002FFD054605F0010070BD38B503F022F9FE
:10ADC000044600BF254625B100BF2846FEF7E0FF38
:10ADD00000BF00BF002000906946012002F068FF1C
:10ADE000044600BF254625B100BF2846FEF7D0FF28
:10ADF00000BF00BF684603F025F8044600BF2546A3
:10AE000025B100BF2846FEF7C3FF00BF00BF38BD15
:10AE100001460148405C7047600B020010B50146D6
:10AE2000094B585C00BF4FF0A044234600BFD3F845
:10AE30001045C44004F001040CB1012000E00020E2
:10AE4000024682F0010010BD600B020002464FF086
:10AE5000FF30002106E0054B5B5C934201D10846C0
:10AE600002E0491C0429F6D300BF7047600B0200C2
:10AE700070B505460C4600260648056014B120460C
:10AE800005F02CF80448006810B9FEF740FE0646AD
:10AE9000304670BD082300200C23002010B5002090
:10AEA00000F024F9044600BF1CB1062C01D0204656
:10AEB00010BD00BF012000F019F9044600BF1CB10D
:10AEC000062C01D02046F3E700BF0020F0E7000089
:10AED0002DE9F04106460F464FF0000800243046A9
:10AEE000FFF7B4FF0446042C3ED20FB3012F02D06B
:10AEF000022F38D130E004EB4400214911F80080E2
:10AF000004EB44000844407850B11E4A4FF480419D
:10AF10001D480068FEF7CAFF05460DB919480670BE
:10AF200004EB4400164908448078184908551AE093
:10AF300015480068FEF7D5FF1448005D04EB440196
:10AF40000F4A11448978884205D104EB4400114628
:10AF5000084490F8028006E004EB440008490844E5
:10AF600090F8018000BF00BFB8F1000F06D008487C
:10AF7000006818B14046064909688847BDE8F08175
:10AF80002028002000230020640B02000123002061
:10AF9000FC22002010B50446042C03D22046FFF703
:10AFA0003DFF10BD0020FCE770B50546042D06D01E
:10AFB000072D15D00A2D29D104F035FF27E01321E4
:10AFC0001448008876DF0446082C08D000BF2646C7
:10AFD00026B100BF3046FEF7DBFE00BF00BF16E023
:10AFE0000C4800884FF6FF7188420ED10A48FFF7DF
:10AFF0000EFB0446082C08D000BF264626B100BF31
:10B000003046FEF7C5FE00BF00BF00E000BF00BF36
:10B0100070BD0000F02200203424002030B503462B
:10B020000020042B23D2012A07D1012903D103F1E7
:10B030000E04E4B200E00024224679B1012902D0D6
:10B04000022911D104E003EB43040A4D2A550DE017
:10B0500003EB4304074D2C44627007E003EB430409
:10B06000044D2C44A27001E0072000BF00E007203F
:10B0700030BD00002028002001460020704700005D
:10B080002DE9F04106460F4600241448076006F0FB
:10B09000020000B3002506E0012211462846FFF712
:10B0A000BDFF04466D1C042D01D2002CF4D034B930
:10B0B00040F2333204210A48FEF7B4FD044614B9C5
:10B0C000FEF79AFD04462CB9064A00210648FEF711
:10B0D000A7FE044600BF2046BDE8F081FC22002008
:10B0E000680B020055B20100640B020010B5044663
:10B0F0000121204605F0F4FC10BD00002DE9FC47BD
:10B1000004460D461646A71C4FF00108002001908A
:10B1100001A8FEF7BFFF3048406828602E4840680D
:10B120002D498968411A2D480068401CA0EB01098F
:10B1300015E001212A4801F030FC01F0D1F88246E7
:10B140005146274801F029FC234840682249896874
:10B15000411A22480068401CA0EB010900BF4F457E
:10B16000E7D8B8F1000F30D00021009176B10099F6
:10B1700021F00301491C0091009921F00401091DEF
:10B180000091009964F3891100910DE0009921F07C
:10B190000301891C0091009921F00401091D00910F
:10B1A000009964F39F5100910B4949680B4A12685A
:10B1B0001140094A0C3202EB8100009901600649F6
:10B1C000496839440C3A516000BF9DF80400FEF70D
:10B1D00067FF4046BDE8FC87482C0020CC230020B8
:10B1E0006430002070B504460D460A2D03D10D21B0
:10B1F0002046FFF7F7FFA168481CA060206845546F
:10B20000D4E90110884202D3204601F088FE70BDC7
:10B210000448806803494968884201D10120704789
:10B220000020FCE7482C00200246002108E0074BE4
:10B230001B6803EBC1000378934200D17047491C9F
:10B24000034800788142F2DB0020F7E73823002032
:10B250003C23002010B5044620780221FFF738FE79
:10B2600010BD0000F8B5054612490320FFF708FF9E
:10B27000044600BF264626B100BF3046FEF788FDD3
:10B2800000BF00BF69460020FFF7F2FD044600BF83
:10B29000264626B100BF3046FEF77AFD00BF00BF4C
:10B2A0009DF80000022801D1012000E00020287054
:10B2B000F8BD0000A9AF01004FF0FF31054A42F888
:10B2C0002010082804DBFF23A0F10801503253545A
:10B2D00070470000302900200146024850F8210044
:10B2E00070470000302900202DE9F04F03460C463E
:10B2F0004FF0FF390AB1002000E0082084460AB16F
:10B30000082000E00C208046614624E0154850F8F3
:10B310002100401CF0B91D460846274616464FFA44
:10B3200080FBDFF840A00AF1300A0AF805B0DFF828
:10B3300034A04AF820704EB94FFA85FBA0F1080AF4
:10B34000DFF820E00EF1500E0EF80AB000BF4FFA01
:10B3500081F902E0491C4145D8D300BF4846BDE809
:10B36000F08F000030290020014601484056704708
:10B370006029002070B590B006460C461546A078AE
:10B3800018B901208DF80E0002E0A0788DF80E00AB
:10B390002088ADF80C0000200290607C02A904F027
:10B3A000E3FCA07C0DF1090104F0DEFCE07B08B1B8
:10B3B000012000E000209DF80A1060F3C3018DF821
:10B3C0000A10207C08B1012000E000209DF80A103E
:10B3D00060F304118DF80A10207B08B1012000E011
:10B3E00000209DF80A1060F300018DF80A10207DFE
:10B3F00008B1022000E001209DF80A1060F342012C
:10B400008DF80A101C2109A8FEF719F8607BC0F31B
:10B41000001018B9607BC0F34010F8B10020009014
:10B42000E07C0DF1010104F09FFC00BF9DF80000DD
:10B4300020F00F00401C8DF800009DF8000020F067
:10B44000F00010308DF8000000BF9DF8020020F0E1
:10B450000600801C8DF80200CDF838D0607B8DF896
:10B460002400A07B8DF82500142104A8FDF7E7FF38
:10B4700003A8049002A80590A088ADF81C00A0685D
:10B4800020B1E088ADF81800A0680890A0690028F5
:10B4900049D000200190A0690088ADF82C00A06977
:10B4A0004088ADF82E00A06940680A9001A80D9070
:10B4B000A169087B01A904F057FCA169487B0DF143
:10B4C000050104F051FCA069807A08B1012000E078
:10B4D00000209DF8061060F3C3018DF80610A069E6
:10B4E000C07A08B1012000E000209DF8061060F34A
:10B4F00004118DF80610A069007A08B1012000E05F
:10B5000000209DF8061060F300018DF80610A06978
:10B51000807B08B1022000E001209DF8061060F356
:10B5200042018DF80610E06908B1E0690C902B46E5
:10B5300004AA09A93046AADF10B070BD70B505464F
:10B540000DB9094C01E0084C083409E0204600F030
:10B5500085FE064606B904E028467168884700BFA4
:10B56000F4E700BF70BD00002429002010B5044698
:10B570002CB90120064948700020FFF7DFFF012C9D
:10B5800004D1012002498870FFF7D8FF10BD0000E8
:10B590001C2900202DE9F047024613468C46D3E9CA
:10B5A0000245DCE90267B6EB040877EB050002D33D
:10B5B0000120BDE8F0870020FBE7014688780128DC
:10B5C00005D191F82000012801D100207047886A38
:10B5D000042802D0486A042801D10020F6E701209F
:10B5E000F4E733B58BB00546002000900C9878B195
:10B5F00000240BE021460CA801F0A3F928B1009A21
:10B60000501C009001A820F81240641C142CF1D3A7
:10B610002C2269462846FDF7F9FE0DB030BD0146E3
:10B620000888062808DB0888B0F5486F06DD08881A
:10B630004FF6FF72904201D00720704748880628D5
:10B6400008DB4888B0F5486F06DD48884FF6FF7282
:10B65000904201D00720F0E708884FF6FF72904231
:10B6600008D04888904205D008884A88904201DD79
:10B670000720E2E70020E0E72DE9F04107460D460C
:10B68000144698462088801D404502D90C20BDE80C
:10B69000F0813846FFF7C3FF064600BF304600B1D1
:10B6A000F5E700BF0520218868542088401C2080D1
:10B6B0001220218868542088401C2080228851193B
:10B6C000388805F0ABF82188084420802288511979
:10B6D000788805F0A3F82188084420800020D6E768
:10B6E00010B5044600BF2046FEF752FB00BF10BD58
:10B6F00030B587B01C216846FDF7A1FE0020009000
:10B700004FF4A03001904FF4F020029003208DF808
:10B710000C000020ADF80E008DF8100009480590CF
:10B72000094806906846FFF751F8044600BF2546D1
:10B7300025B100BF2846FEF72BFB00BF00BF07B0B6
:10B7400030BD0000BDED0100E1B60100F8B50546D1
:10B750000C46607A88B9207A10B91048476801E031
:10B760000E4887682A4639466068FEF79FFB064602
:10B7700016B1304604F0ACF90EE000202072074804
:10B78000406948B101208DF80000ADF8025003482F
:10B7900041696846884700BFF8BD00008428002042
:10B7A00010B5012200210846FFF738FC044600BF0F
:10B7B0001CB1072C01D0204610BD00BF072202217A
:10B7C0000120FFF72BFC044600BF1CB1072C01D061
:10B7D0002046F1E700BF042202210020FFF71EFCF3
:10B7E000044600BF1CB1072C01D02046E4E700BF8F
:10B7F0000020E1E72DE9F0418046002414E01248E2
:10B80000006800EBC405287802F0BAFE07466878A5
:10B81000012800D100E00020784080F0010628785F
:10B82000314600F0CDF9641C084800788442E6DB1C
:10B830000748D0E90010002359405840014301D087
:10B8400004F0DEFCBDE8F081382300203C2300201A
:10B850004823002010B50021034801F0BFF804463A
:10B8600084F3100010BD00006430002070B5054660
:10B870000C464FF4803000FA04F1284600F085F9B8
:10B8800070BD70B505460C464FF4A07000EB840007
:10B8900086B23146284600F00BFA70BD2DE9F0471C
:10B8A00004460D4616461F464FF4803000FA05F850
:10B8B0004FF4A07000EB85001FFA80F926F07F4658
:10B8C0004146206802F0DFF94146206802F0D5F9D0
:10B8D0004946206802F0CAF932462946206802F03B
:10B8E000BCF94146206802F0CBF91FB141462068FF
:10B8F00002F0CCF9BDE8F08710B50446206802F0EC
:10B90000B1F910BD2DE9F04704460D4617466079A0
:10B91000324941F820706079314901EBC00000796B
:10B9200068B108262F49304A891AC908022242EA1A
:10B9300001402EA101F06CFF3046BDE8F087298858
:10B940002068C0F8081500BF94F90420AB781046B1
:10B950001946002808DB4FEA417C4FEA1C68DFF8F3
:10B96000B0C00CF800800BE04FEA417C4FEA1C6944
:10B97000DFF8A0C000F00F08A8F104080CF8089048
:10B9800000BF00BF94F90410084600280DDB00BF7B
:10B9900000BF00F01F0301229A4043099B0003F1FE
:10B9A000E023C3F8002100BF00BF00BF00BF01209B
:10B9B00061790B4A02EBC10108716079114641F8C7
:10B9C000304000260749084A891AC908032242EA7A
:10B9D000014011A101F01CFF3046AEE7902300208A
:10B9E00094230020A41602005C1602005254432047
:10B9F000696E7374616E636520616C7265616479F0
:10BA000020696E697469616C697A65642E00000052
:10BA100000E400E018ED00E05254433A20696E69FA
:10BA20007469616C697A65642E00000010B5014686
:10BA300091F90400002807DB00F01F0301229A405F
:10BA4000024B440943F8242000BF10BD00E200E08F
:10BA500070B505460C4622460221284600F0A1F8A2
:10BA600070BD10B504464FF48271204600F020F9F5
:10BA700010BD10B504460021206802F00AF910BD7F
:10BA800010B504460421206802F003F910BD2DE929
:10BA9000F84F04468846154699464FF4803000FA20
:10BAA00008FA4FF4A07000EB88001FFA80FB25F025
:10BAB0007F455146204600F068F8206802F0D2F831
:10BAC00006464146206802F0C2F8009032464146E0
:10BAD000206802F0C2F85946206802F0C7F83146E3
:10BAE000009804F0E7FA012806D1102002F05CFC6F
:10BAF0005946206802F0BAF8206802F0B3F806460A
:10BB00003146284604F0D6FA07465146206802F02E
:10BB1000B7F8012F0FD16A1C4146206802F09DF84A
:10BB2000102002F041FC206802F09CF8B04225D0C1
:10BB30000D20BDE8F88F2A464146206802F08DF8B6
:10BB4000206802F08FF80646681E314604F0B2FA0B
:10BB500007466FF07F40A0EB0900B84201D20D20EC
:10BB6000E7E75FB96A1C4146206802F076F8206872
:10BB700002F078F8B04201D00D20DAE701225146F8
:10BB8000204600F00EF80020D3E770B504460D46BD
:10BB90002946206802F071F82946206802F073F8FF
:10BBA00070BD70B504460E4615463146206802F059
:10BBB00067F81DB13146206802F068F870BD0000DA
:10BBC000F8B505460C46284604F09CF905286AD2CB
:10BBD000DFE800F003212A393F00DCB101212846CB
:10BBE00004F0A0F9002000906846FEF753FA2A46B8
:10BBF0000126002730463946FDF7F4FB2B4AD2E9EF
:10BC0000003218431143294A03C29DF80000FEF791
:10BC100047FA00BF47E00CB1022000E000200146D7
:10BC2000284604F07FF93EE044B10321284604F0A1
:10BC300079F90121284604F0B2FE03E001212846EB
:10BC400004F070F92FE01CB90421284604F06AF9C9
:10BC500029E024B10321284604F064F922E0002100
:10BC6000284604F05FF90021284604F098FE0020E1
:10BC700000906846FEF70EFA2A4601260027304655
:10BC80003946FDF7AFFB0A46C143D043074B0CCB07
:10BC900011401840054AC2E900109DF80000FEF767
:10BCA000FFF900BF00BF00BFF8BD0000482300201F
:10BCB00070B505460C462868015929B12146286807
:10BCC00001F0D4FF012070BD0020FCE770B50446F0
:10BCD0000D462A460021204600F00EF8A068401CC0
:10BCE000A06070BD01468A68C868801A7047014626
:10BCF0008A68C868801A704710B583680B448488C6
:10BD000023400468E35C137010BDC26883881A4046
:10BD100003689954C268521CC260704770B50546EA
:10BD20000E46144624B13146284600F019FE03E0C1
:10BD30003146284600F0F6FD70BD30B50446108847
:10BD4000C01C984201D90C2030BD022015884855EE
:10BD50001088401C10800120158848551088401C10
:10BD6000108015884C551088401C10800020EBE78F
:10BD700070B504460D46D822115B0122D4F8D400D8
:10BD8000FEF762FB064606B1357004F13C0204F191
:10BD9000D40104F1540072DF70BD70B504460D4645
:10BDA000E0B2FEF741F9204670BD00003EB500BF8D
:10BDB0009DF8000020F00F00401C00909DF800004E
:10BDC00020F0F0001030009000BF0B2214A1684654
:10BDD0007CDF044600BF254625B100BF2846FDF79D
:10BDE000D7FF00BF00BF0020019002901020ADF8E7
:10BDF00004003C20ADF806000020ADF808004FF428
:10BE0000C870ADF80A0001A87ADF044600BF2546D5
:10BE100025B100BF2846FDF7BBFF00BF00BF3EBDF8
:10BE20004E4F524449435F554152540070B5054648
:10BE30000C4660880D490988884215D1208840F653
:10BE40007721884210D1A088C01E0949088009497D
:10BE5000094A891AC908032242EA014004490B88A9
:10BE60000A8806A101F0EAFC70BD0000F022002063
:10BE7000F2220020BC1602005C16020044617461CC
:10BE8000206C656E2069732073657420746F203098
:10BE9000782558282564290070B50E490E4800F011
:10BEA00045FE044600BF254625B100BF2846FDF7E4
:10BEB0006FFF00BF00BFF721074800F028FE0446CF
:10BEC00000BF254625B100BF2846FDF761FF00BF32
:10BED00000BF70BD2DBE01001824002070B50B48B6
:10BEE000FFF70AFD0A4B0CCB841843F10005094902
:10BEF00003C9201A75EB010004D24FF08073E418D7
:10BF000045F100052046294670BD00005023002061
:10BF100060230020682300202DE9F0410446884674
:10BF2000E0B2FFF781F90546287802F029FB0746C1
:10BF30006878012800D100E00020784080F00106F8
:10BF40004EB10648D0E90010002359405840014343
:10BF500001D104F055F9BDE8F0810000482300202C
:10BF600010B501F0C7FA08B901F050FE10BD00008D
:10BF7000024600210CE001EB8100074B33F8200062
:10BF8000904204D101EB810003EB80007047491C13
:10BF90000029F0D00020F9E7702800202DE9FC5F8F
:10BFA00083460E4691461F46DDE90C45002E01DA18
:10BFB000704200E0304682464FF0010803E09AFBF1
:10BFC000F9FA08F10108CA45F9DA474500D9B84637
:10BFD00034B1002E03DB05F00400042800D1641EF8
:10BFE00005F0020000B167B105F0010048B944B1A5
:10BFF00004E0641E20215846FFF7F4F80CB1A04578
:10C00000F7D3002E05DA76422D215846FFF7EAF8DD
:10C0100007E005F00400042803D12B215846FFF760
:10C02000E1F805F0020002280DD105F0010050B939
:10C030004FB944B104E0641E30215846FFF7D2F8EE
:10C040000CB1A045F7D33B464A4631465846CDE9A8
:10C05000004504F0E9FBBDE8FC9F00002DE9F0413C
:10C0600004460E464FF48E71206802F002F94FF438
:10C07000A271206802F0FDF81A49206802F009F95F
:10C08000206802F0A5F905463746284639460028BB
:10C0900004DB4A07130E144A135408E04A074FEA18
:10C0A000126C124A00F00F031B1F02F803C000BFFE
:10C0B00000BF206802F08CF90546284600280DDBF9
:10C0C00000BF00BF00F01F02012191404209920011
:10C0D00002F1E022C2F8001100BF00BF00BF00BFA4
:10C0E000BDE8F0818000020000E400E018ED00E00F
:10C0F0002DE9F04104460E464FF48871206802F0A5
:10C10000EBF84FF49071206802F0E6F84FF492716A
:10C11000206802F0E1F84FF4A271206802F0DCF828
:10C120004FF4AC71206802F0D7F81B49206802F088
:10C13000E3F8206802F050F90546374628463946AC
:10C14000002804DB4A07130E144A135408E04A0778
:10C150004FEA126C124A00F00F031B1F02F803C0D3
:10C1600000BF00BF206802F037F9054628460028C6
:10C170000DDB00BF00BF00F01F020121914042090A
:10C18000920002F1E022C2F8001100BF00BF00BF20
:10C1900000BFBDE8F08100001003420000E400E0B1
:10C1A00018ED00E030B5024600201378C3F3800399
:10C1B000D3B1137803F00303012B02D0022B10D16B
:10C1C00007E01388C3F383139B1C0C6823440B60A4
:10C1D00008E00B680225146805EB945423440B60B7
:10C1E00000E000BF00BF012030BD2DE9F041044652
:10C1F000A08800EB020CB4F80480904501DD1046E5
:10C2000000E0A088A8EB0005E088C618B4F8068016
:10C21000984501DD184600E0E088A8EB0007488853
:10C22000B4F80080404504DB4888B4F802804045FB
:10C2300002DD0020BDE8F0818888A84202D388880A
:10C24000604501D90020F5E7C888B84202D3C88804
:10C25000B04201D90020EDE70120EBE70146086874
:10C2600008B102680A60704710B5044622460121F1
:10C27000002000F0E1FF002105E054F8210008B1A2
:10C28000012010BD491C0029F7D00020F9E700006B
:10C2900010B502F04FF820B902F070F80020014903
:10C2A000887010BD1C290020F721018017214180D2
:10C2B000002101714171704770B54FF48041002039
:10C2C00001F02AFB044600BF254625B100BF2846E1
:10C2D000FDF75EFD00BF00BF01F0F8F870BD000083
:10C2E0002DE9FF4100272E4800F050FB2C48001F8D
:10C2F00000F04CFB2B48806803902B48056803989E
:10C30000284028490C3101EB800800BF03A94046B2
:10C31000FFF748FF30B10398284022490C3101EB68
:10C32000800800E000E0F1E700BF00240AE0039885
:10C33000411C284003911B490C3151F820004DF855
:10C340002400641C022CF2D3009800F003000128A2
:10C350000DD0022814D1BDF806700421009801EB1D
:10C360009050401E039901EB9000039009E0BDF846
:10C3700006700098C0F3831003990844039000E00E
:10C3800000BF00BF0648001F00F0F9FA064616B1CC
:10C39000044903988860384604B0BDE8F081000085
:10C3A00060300020482C0020CC23002008B504F089
:10C3B000A3F8FFF781FF03F033FF6846FEF752FF53
:10C3C00003F0BEF819A0FDF70DFB642404B90DE0DD
:10C3D00000BF4FF47A7505B904E0184EAF01384636
:10C3E000B04700BF601E041EF3D100BFFEF7E5FC9E
:10C3F000FFF7DCFCFFF750FD03F016FCFDF7B2FB86
:10C40000FFF776F90EA0FDF7EDFA1249124A891AE4
:10C41000C908032242EA014010A101F0F9F9FDF731
:10C42000D9FB00BFFFF79CFDFCE700000D0A55415A
:10C43000525420696E69742E0D0A0000410B0200EF
:10C440000D0A5541525420737461727465642E0D47
:10C450000A000000BC1602005C160200446562750A
:10C4600067206C6F6767696E6720666F7220554141
:10C470005254206F76657220525454207374617246
:10C480007465642E000000002DE9F04105460E465B
:10C4900014469846A888871C2088801C384440454C
:10C4A00002D90C20BDE8F081FE2F01D90C20F9E75C
:10C4B000781C218870542088401C2080FF2021880F
:10C4C00070542088401C208022889119288804F00C
:10C4D000A5F9218808442080A88800280DDDA868D7
:10C4E00008B90720DEE7AA8823889819A968FCF70D
:10C4F0008DFF2088A988084420800020D2E72DE9FC
:10C50000FF4F87B0044691461E46A2462546BAF81C
:10C5100006009AF805104843001F0690BAF806B0C6
:10C52000301DB0FBFBF00590301DB0FBFBF10BFBA9
:10C5300011000490D9F8000081190698814202D9AF
:10C540000698801B01E0D9F800000746C9F8007082
:10C5500003E02D680598401E059005980028F8D145
:10C5600003900498ABEB0008B84501D9384600E0C9
:10C570004046804623E00399089808440290281D0D
:10C58000049908440190149828B14246DDE901104D
:10C59000FCF73CFF04E04246DDE90101FCF736FF11
:10C5A000002004902D68A7EB0807039840440390EF
:10C5B000BB4501D9384600E05846804600BF002FF1
:10C5C000D9D10BB0BDE8F08F70B503460C469CB1D5
:10C5D00001F0C6F9054600220AE0084800EB820196
:10C5E00008881E68B04202D11A60002070BD521C3B
:10C5F000AA42F2D30520F9E70020F7E70000000087
:10C600002DE9F84F05460F4614469846287801282C
:10C6100004D1687810B90720BDE8F88F2088801C05
:10C62000404508D82878012807D12088801C6978DF
:10C630000844404501D90C20EEE72088A8EB000013
:10C64000801E86B200962188891CC81969467DDF44
:10C65000814600BF484600B1DEE700BF28780228C7
:10C6600004D06878BDF80010884206DBBDF80000F1
:10C67000B04202DC4FF0090A0BE04FF0080A2878BC
:10C68000012805D16878B04202DC6878009000E0AB
:10C690000096BDF80000FE2801D90C20BCE7BDF8CB
:10C6A0000000401C218878542088401C208020886D
:10C6B00007F800A02088401C20802088BDF80010CA
:10C6C000084420800020A7E717480068401C38B9BC
:10C6D00016480178154808300078C0F3031205E0C9
:10C6E000114801684FF08050D0F83421062912D14A
:10C6F000032A06D0042A06D0052A06D0062A08D125
:10C7000005E0012070470120FCE70120FAE7012045
:10C71000F8E70120F6E70F2904D10AB90120F1E773
:10C720000120EFE70020EDE730010010E00F00F0FE
:10C73000074802684FF08050D0F834110F2A04D116
:10C7400009B9012070470120FCE70020FAE700004A
:10C750003001001017480068401C38B916480178AD
:10C76000154808300078C0F3031205E0114801684D
:10C770004FF08050D0F83421062912D1032A06D078
:10C78000042A06D0052A06D0062A08D105E0012091
:10C7900070470120FCE70120FAE70120F8E70120BB
:10C7A000F6E70F2904D10AB90120F1E70120EFE7EC
:10C7B0000020EDE730010010E00F00F0174800689E
:10C7C000401C38B916480178154808300078C0F385
:10C7D000031205E0114801684FF08050D0F8342171
:10C7E000062912D1032A06D0042A06D0052A06D02B
:10C7F000062A08D105E0012070470120FCE701204E
:10C80000FAE70120F8E70120F6E70F2904D10AB979
:10C810000120F1E70120EFE70020EDE730010010F3
:10C82000E00F00F017480068401C38B9164801783E
:10C83000154808300078C0F3031205E0114801687C
:10C840004FF08050D0F83421062912D1032A06D0A7
:10C85000042A06D0052A06D0062A08D105E00020C1
:10C8600070470020FCE70120FAE70120F8E70120EB
:10C87000F6E70F2904D10AB90120F1E70120EFE71B
:10C880000020EDE730010010E00F00F010B5044685
:10C8900009B90E2010BD92FBF3F003FB102008B184
:10C8A0000920F7E7216000206060A060A281E38199
:10C8B00000BFEFE770B504460D4629462046FCF759
:10C8C000A9FC18B12A882168881870BD0020FCE7EF
:10C8D00070B505460C4620886188884204D12846F8
:10C8E000FCF7DAFC012070BD0020FCE770B50446BF
:10C8F0000D4629462046FCF7B2FC18B16A8821682B
:10C90000881870BD0020FCE770B505460C462088ED
:10C910006188884204D12846FCF798FC012070BD4C
:10C920000020FCE770B505460C4604F01F03012209
:10C930009A40D143620905EB820000F039F80646BF
:10C9400070BD10B50246480952F8200001F01F04DE
:10C950000123A340184008B1012010BD0020FCE7CE
:10C9600070B505460C4604F01F03012202FA03F1DC
:10C97000620905EB820000F03CF8064670BD10B578
:10C9800004460021204600F01EF810BD10B50446F4
:10C990000121204600F02DF810BDF8B504460D46E3
:10C9A0006A4629462046FCF7CCFC06460098F8BDAE
:10C9B000F8B504460D466A4629462046FCF7A7FC12
:10C9C00006460098F8BDF8B504460D466A46294665
:10C9D0002046FCF79CFC06463046F8BDF8B50446F8
:10C9E0000D466A4629462046FCF778FC0646304646
:10C9F000F8BDF8B504460D466A4629462046FCF7C0
:10CA000079FC06460098F8BDF8B504460D466A461E
:10CA100029462046FCF7A2FC06460098F8BDF8B56A
:10CA200004460026002000906846FDF733FB20688E
:10CA300000686168884215D920680068401E226835
:10CA400010600178204600F033F80646207A21680D
:10CA50000978401AC5B220680079A84201DA206836
:10CA6000057100BF9DF80000FDF71AFB3046F8BDC8
:10CA70000246D068081A138AB0FBF3F0C0B27047C0
:10CA8000F8B504460D462E46002000906846FDF796
:10CA900001FB31462046FFF7EBFF21680A68511C75
:10CAA0002368196010709DF80000FDF7F9FAF8BDD1
:10CAB0000246138AD06801FB0300704710B5014697
:10CAC00000BF09B90E2010BD00BF087A0B79C01A4B
:10CAD000C2B2D1E90030186005E008680368581C4C
:10CAE0000C6820601A70101EA2F10103DAB2F4D1B2
:10CAF0000B68187100BFE6E730B502460B46D40854
:10CB000002F00702012090401D5D284030BD024622
:10CB100000BF0AB90E20704700BF172901DBF729B3
:10CB200001DD0720F7E711800020F4E770B5044627
:10CB30000E4600BF0CB90E2070BD00BFE660F720A6
:10CB400020806080FB202071002507E005EB450276
:10CB5000A11D01EB4200FFF7A7FB6D1C002DF5D0D6
:10CB60000020E9E72DE9F047064688464546B488A7
:10CB7000012C01DBBDE8F0873088102806D0112891
:10CB800009D03A280CD0552814D10EE03146284659
:10CB900002F0BCF90FE03146284602F03DFA0AE007
:10CBA0003146284602F0AAFA05E03146284602F04E
:10CBB0003FFA00E000BF00BF04EB4401A81D00EBFA
:10CBC0004100007948B304EB4402A81D30F812106C
:10CBD0002046A5DF074677B9002104EB4402A81DD3
:10CBE00000EB42000171012104EB4402A81D00EB9F
:10CBF0004200417110E0112F0ED0384601F01EFBAB
:10CC000081460749074A891AC908012242EA0140B8
:10CC10004A4605A100F006FE00BF00BFAAE70000DB
:10CC20005C1602005C16020073645F626C655F67ED
:10CC3000617474635F65786368616E67655F6D7466
:10CC4000755F7265717565737428292072657475D6
:10CC5000726E65642025732E00000000024600BF3E
:10CC60000AB90E20704700BF00BF1078DE2801D03F
:10CC70000820F7E700BF51800020F3E7024600BF1D
:10CC80000AB90E20704700BF00BF09B90E20F9E7AE
:10CC900000BF1078DE2801D10820F3E70868506053
:10CCA000DE2010704FF6FF7050800020EAE770B56C
:10CCB00004460E4600BF06B970BD00BF00BF04B9F0
:10CCC000FAE700BF354600BF2878DE2800D0F3E73A
:10CCD00000BFA0886988884202D1284603F049FE37
:10CCE0002088012806D0022809D0112811D0512807
:10CCF00017D109E0211D284602F0BCFA12E0211DDF
:10CD0000284602F0B6FA0DE0211D284602F05CFA32
:10CD100008E0A0886988884202D14FF6FF706880D9
:10CD200000E000BF00BF00BFC6E701464FF08040F3
:10CD3000405808B1012070470020FCE708B50022E8
:10CD40004FF080410A500958009100BF08BD000013
:10CD50000149086070470000080300400122910764
:10CD60000A50704710B500240F48007808B1852498
:10CD700011E000200C49886048600861C8600B48D9
:10CD800001F0ECFA044601F097F908B901F0DCFA79
:10CD900001200549087001F0CDFA10B101200249C7
:10CDA0008870204610BD00001C2900206DB50100D0
:10CDB00008B5002000906846FDF76CF90748C06888
:10CDC000401E0649C8600846C06808B9FFF760FA07
:10CDD0009DF80000FDF764F908BD00001C29002043
:10CDE0002DE9F04188B004460F46154626781A48CA
:10CDF00040F826501949386941F82600787F1849CB
:10CE00008855202239466846FCF700FB04964FF00F
:10CE1000000820781249085C50B10DB1114800E0BB
:10CE2000002002466946201D01F0F4FD80460EE018
:10CE300020780B49085C50B90DB10B4800E0002088
:10CE40000246694604F10C0001F0ACFC8046404605
:10CE500008B0BDE8F0810000182300201C2300204A
:10CE600020230020A5060200C10402002DE9F041A4
:10CE700004460D461646002720780C49085C30B160
:10CE800032462946201D01F005FE07460AE02078BB
:10CE90000649085C30B93246294604F10C0001F01D
:10CEA000C5FC07463846BDE8F0810000202300207D
:10CEB0002DE9F04104460D461646002720780C491E
:10CEC000085C30B132462946201D01F07FFE07463E
:10CED0000AE020780649085C30B93246294604F158
:10CEE0000C0001F035FD07463846BDE8F081000032
:10CEF000202300200FB438B50446059810B938BC7B
:10CF00005DF814FB0020009006A800906A462046B9
:10CF1000059900F012F80020009000BFEFE770B50F
:10CF20000446A06800B970BDD4E90403A268216872
:10CF300098470020A06000BFF5E72DE9FC5F82461E
:10CF40000D4614460DB9BDE8FC9F00BF2E786D1C40
:10CF500006B9E1E0252E70D100274FF0010900BF8E
:10CF60002E782B2E0CD02D2E02D0302E0CD103E09B
:10CF700047F001076D1C0AE047F002076D1C06E050
:10CF800047F004076D1C02E04FF0000900BF00BF2E
:10CF9000B9F1000FE4D14FF0000800BF2A2E06D1EE
:10CFA0002168081D2060086880446D1C0DE02E7803
:10CFB000302E01DB392E00DD07E06D1CA6F13000BC
:10CFC00008EB880100EB4108E8E700BF4FF0000BD9
:10CFD0002E782E2E10D16D1C00BF2E78302E01DB46
:10CFE000392E00DD07E06D1CA6F130000BEB8B0144
:10CFF00000EB410BF1E700BF2E7800BF6C2E01D093
:10D00000682E02D16D1C2E7800E000E0F6E700BF2C
:10D01000692E21D008DC252E6DD0582E39D0632EF4
:10D020000CD0642E6CD116E0702E4CD0732E3ED0F6
:10D03000752E1FD0782E63D12AE065E02168081D87
:10D040002060D1F8009009F0FF000190504601994E
:10D05000FEF7C8F855E000BF2168081D2060D1F830
:10D0600000905B460A2249465046CDE90087FEF70C
:10D0700095FF46E02168081D2060D1F800905B46CE
:10D080000A2249465046CDE9008703F0CDFB38E03F
:10D0900000BF2168081D2060D1F800905B46102277
:10D0A00049465046CDE9008703F0BEFB29E02168E0
:10D0B000081D2060086801903B4642465046019991
:10D0C00002F0BEFF1DE02168081D2060D1F800902D
:10D0D00030215046FEF786F878215046FEF782F858
:10D0E000002008210B461022CDE900104946504689
:10D0F00003F09AFB05E025215046FEF773F800E0A7
:10D1000000BF00BF6D1C03E031465046FEF76AF8D1
:10D11000287800287FF41AAF00BF9AF80C0010B1ED
:10D120005046FFF7FCFE00BF0DE7F0B5DDE9054511
:10D1300000BF4FF0A0473E4641EA420747EA830757
:10D1400047EA042747EA054C06F5E06747F820C0A0
:10D15000F0BDF0B5DDE9054500BF4FF0A0473E4604
:10D1600041EA420747EA830747EA042747EA054CB2
:10D1700006F5E06747F820C0F0BDF0B5DDE90545EC
:10D1800000BF4FF0A0473E4641EA420747EA830707
:10D1900047EA042747EA054C06F5E06747F820C050
:10D1A000F0BD7CB505460C460020009023460246A3
:10D1B000014601902846FFF7CCFF7CBD7CB50546B3
:10D1C0000C46002000902346024601460190284666
:10D1D000FFF7D3FF7CBD1CB504460020009003463A
:10D1E0000122114601902046FFF7B3FF1CBD1CB57C
:10D1F000044600200090034601221146019020467B
:10D20000FFF7BBFF1CBD10B50A4600BF4FF0A0439F
:10D21000194601F5E06353F8203023F4403401F55A
:10D22000E06343F8204053F8203043EA024401F51C
:10D23000E06343F8204010BD38B503460A4C24682B
:10D24000009418460BE05DF82040D4F820451460A7
:10D250005DF820501468C5F82045121D401C5C186C
:10D260008442F0D838BD0000A80B020001464A09EC
:10D2700000230AB95B1E00BF00BF01F01F0101209F
:10D280008840184008B1012070470020FCE70146A3
:10D2900000BF4FF0A040024600BFD2F81005C840C2
:10D2A00000F00100704700BF4FF0A0410A46012383
:10D2B00003FA00F1C2F8081500BF704700BF4FF035
:10D2C000A0410A46012303FA00F1C2F8081500BF85
:10D2D0007047000001460148084470470060004064
:10D2E00038B504462046FFF7F5FF002101602046CF
:10D2F000FFF7F0FF0068009000BF38BD10B504468E
:10D300002046FFF7E7FF0068012800D110BD00208C
:10D31000FCE700000149086070470000046300401A
:10D3200070B504460E46FCF785FF0546681C08B933
:10D33000284670BDE8B2E168087100BF0C48D0F81B
:10D34000100430B90A48C0F810440020E1680860B1
:10D350000BE00748D0F81004C0680068E168086076
:10D360000348D0F81004C06804602846E1E70000D4
:10D37000482C0020704710B5FCF748F910BD7047E5
:10D3800038B504460D4604484023044A2946009017
:10D39000204600F005F838BD0DFB0100B02A002042
:10D3A0002DE9F04F93B082460E4617469846DDF8B9
:10D3B0007090304600F0CBFB18210DA8FCF73FF829
:10D3C0000D97CDF83880CDF8489000252B460822DF
:10D3D00007A9304600F0D8FB082509980A90BDF847
:10D3E0002000ADF82C00BDF82200ADF82E00002082
:10D3F0008DF83100079800F0030001281BD1079831
:10D400004FEA902B0798C0F3C2008DF830000798C0
:10D41000C0F38314A2002B4601A9304600F0B4FBF0
:10D4200005EB84050DA80AAB224601A900905846D9
:10D4300000F0CCFA27E0079800F00300022822D180
:10D4400007984FEA905B0798C0F3C2008DF8300050
:10D4500000BFBBF1080F01D2584600E00820044687
:10D460002B46224605A9304600F08EFB2544ABEB47
:10D47000040B0DAB0AAA214605A800F0EFF9BBF199
:10D48000000FE6D100BF304600F06FFB13B0BDE8DF
:10D49000F08F000010B502460B4C04EBC2030129CB
:10D4A00006D0022906D0032906D0042908D105E0B8
:10D4B000022007E0042005E0187903E0587901E034
:10D4C000002000BF00BF10BD5C16020010B54FF079
:10D4D000FF34FFF750FF04210548FFF721FF044602
:10D4E00000BF01200249C968487100BF10BD00009B
:10D4F0004C1602002DE9F04F8BB0FDF789FE18B1F4
:10D5000000200BB0BDE8F08F0020B749C1F8180427
:10D5100000BF00BF00BFBFF34F8F00BF00BF00BF01
:10D52000084680680A90B14804680A9820400C3187
:10D5300001EB800A002500260020069000BF0AA902
:10D540005046FEF72FFEA8B1A748D0F8180488B9B6
:10D55000A54840680A99884205D8A3484068A2496E
:10D5600088600020CDE70A9820409F490C3101EBEC
:10D57000800A00E000E0E2E700BF00270BE00A9825
:10D58000411C20400A9198490C3151F8200007A90C
:10D5900041F827007F1C022FF1D3079800F0030009
:10D5A00002287CD10798800D059050210798B1EB97
:10D5B000905F02DD0798800D00E0502081460798BB
:10D5C00069F39F50079009F1080004900798C0F391
:10D5D000C20006908648049900F05CFA0546002DCA
:10D5E0005BD0284600F0B3FA3346082207A9284644
:10D5F00000F0DBFA08360A982040611C081A4FEA4E
:10D600008008C14535D9B8F1000F06D00A982040EE
:10D6100075490C3101EB800001E073480C30039038
:10D62000B8F1000F01D0404600E0484600F0FF0B83
:10D63000B8F1000F02D06C480C3000E000200290DE
:10D64000B8F1000F02D0A9EB080000E00020C0B242
:10D65000019033465A462846039900F0A6FA5E44E4
:10D66000029828B133462846DDE9012100F09DFAF1
:10D670000CE00A9820405C490C3101EB800B3346EA
:10D680004A465946284600F090FA00BF0598C01C4B
:10D690000A9901EB90000A9000BF44E0FFE7079869
:10D6A00000F0030001283ED10798C0F3831006283C
:10D6B00003DA0798C0F3831000E00620079960F3AF
:10D6C000891107910798C0F3831000F102080798A9
:10D6D000C0F3C20006904FEA8801454800F0DAF92D
:10D6E0000546FDB1284600F032FA3346082207A964
:10D6F000284600F05AFA083600270EE00A98421C25
:10D7000020400A92384A0C3202EB80013346042250
:10D71000284600F04AFA361D7F1C0798C0F3831094
:10D72000B842EBD800BFE5B32F48D0F81084D0F84A
:10D73000180418B1284600F018FA31E019E04FF04B
:10D74000000900BFD8F80C004079012800D18146BB
:10D75000B9F1000F08D000BFD8F8000029460268D0
:10D760004046904700BF00BFD8F80C00D0F80080BA
:10D7700000BFB8F1000FE2D1284600F0F6F9002012
:10D78000059005A8FCF786FC1748D0F8180410B9D6
:10D7900015490A9888609DF81400FCF781FC00BFC9
:10D7A0001DE0FFE71048D0F810840AE0C146D9F820
:10D7B000000081684846884700BFD8F80C00D0F8C0
:10D7C0000080B8F1000FF1D10A490B4A891AC90843
:10D7D000022242EA014009A100F01AF800BFFDF759
:10D7E00017FD80F001008CE6482C0020CC2300209F
:10D7F000DC160200BC1602005C1602004261636B7C
:10D80000656E647320666C75736865640000000063
:10D8100070B504460D4600231A462946204602F0FC
:10D82000D7FB70BDF8B505460E461446009401239B
:10D830006A463146284602F0CBFBF8BD2DE9FC4193
:10D8400006460F4614461D460094019502236A467B
:10D850003946304602F0BCFBBDE8FC812DE9F05FA3
:10D8600007460E4690461D46082E01D9BDE8F09F9A
:10D8700095F80C90002028732946404601F06EFE72
:10D8800000240CE0B44205D23A5D1DA12846FFF702
:10D8900031FB03E01CA12846FFF72CFB641C082C7D
:10D8A000F0D31AA12846FFF725FB00241DE0B4425F
:10D8B00016D217F804A0BAF17E0F09DCFBF7A2FD1F
:10D8C000006810F80A0000F03E0008B1504600E081
:10D8D0002E2083465A460EA12846FFF70BFB03E095
:10D8E0000CA12846FFF706FB641C082CDFD301229D
:10D8F0002946404601F000FE85F80C9000BFB5E7D0
:10D900002025303278000000202020007C0000001C
:10D9100025630000200000002DE9F04106460F4677
:10D9200000BF002009490870094800F018F90446B2
:10D9300014B12046BDE8F081064800F07AF90648A7
:10D940000649401AC5080020F4E70000482C0020D2
:10D95000DC160200280E0200DC1602005C16020033
:10D9600002480349401AC00870470000DC16020054
:10D970005C16020013B50C4621466846FEF724FEED
:10D9800028B90448009A00EBC20108681CBD0020B9
:10D99000FCE700005C16020070B50B48D0F810449C
:10D9A0000120094908700CE000BF0120E1684871BE
:10D9B00000BF2546286841682846884700BFE068C0
:10D9C0000468002CF0D170BD482C00202DE9FF47E1
:10D9D00007460C46164698460C9D95F80C9000207C
:10D9E00028732946404601F0B9FD072E47D2DFE8EB
:10D9F00006F004090F161F2A370039462846FFF79C
:10DA000079FA3DE0394628462268FFF773FA37E095
:10DA100039462846D4E90023FFF76CFA30E0A068C5
:10DA2000009039462846D4E90023FFF763FA27E03F
:10DA3000D4E90201CDE9000139462846D4E90023A2
:10DA4000FFF758FA1CE0D4E902122069CDE9001270
:10DA5000029039462846D4E90023FFF74BFA0FE03D
:10DA6000D4E90223D4E90410CDE90023CDE9021062
:10DA700039462846D4E90023FFF73CFA00E000BF0E
:10DA800000BF00222946404601F036FD85F80C9083
:10DA9000BDE8FF872DE9F84F07468A46388AA0F18E
:10DAA00004080AF104004044401EB0FBF8F0C0B284
:10DAB00000903846FEF7B3FF044614B90020BDE8D5
:10DAC000F88F0020207101216171A4F8068025469D
:10DAD0000098A0F1010B2C462F604FF0000912E0D6
:10DAE0003846FEF79CFF064636B16079401C6071EF
:10DAF0002E603760354604E0204600F008F800202C
:10DB0000DDE709F10109D945EAD32046D7E72DE938
:10DB1000F05F0446274697F805802646A8F1010BDA
:10DB2000002501E036686D1C5D45FBD3D6F800A0EA
:10DB30002646002507E0D6F8009031465046FEF70D
:10DB40009FFF4E466D1C4545F5D3BDE8F09F70B56F
:10DB5000044625460121281DFEF71FFF70BD10B5A4
:10DB600004462046FEF7AAFF10BDF8B50446264637
:10DB70000121301DFEF748FF00906D46287810B94E
:10DB80002046FFF7C4FFF8BD2DE9FC4105460E46CF
:10DB900014461F46019401203B4601AA31460090DD
:10DBA0002846FEF7ACFCBDE8FC812DE9FC410546AA
:10DBB0000E4614461F46019400203B4601AA3146FA
:10DBC00000902846FEF79BFCBDE8FC8110B50020C4
:10DBD0000A49087000BF0A49086000BF00BF00BFC3
:10DBE00000BFBFF35F8F00BF00BF00BF00BF05498C
:10DBF000054800F094FA002010BD0000A423002086
:10DC0000A0230020C00C0200A42A002010B500F0C0
:10DC100053FA10B141DF044602E020BF40BF20BFED
:10DC200010BD10B5044600BF2046FCF7B1F800BF98
:10DC300010BD002182689160826811618268516123
:10DC40008268D160826851608268116070470246C4
:10DC500002F5A86050F82100704700F5A86343F86A
:10DC6000212070470146D1F80405704708B500220D
:10DC700042504258009200BF08BDC0F84813704798
:10DC8000C0F844137047C0F808137047C0F8041375
:10DC90007047012242507047014609B90E20704773
:10DCA0000248006808600020F9E70000B80E020092
:10DCB000FEB506460C462046FFF7EEFF05460DB1C1
:10DCC0002846FEBD00200090019002908DF8006073
:10DCD00001208DF802000621ADF8041069462020CD
:10DCE000226869DF054675B1284600F0A7FA0746A5
:10DCF0004C494D4A891AC908012242EA01403A4674
:10DD00004A49FFF78FFD002000900190029001200A
:10DD10008DF8010069464020226869DF054675B12B
:10DD2000284600F08BFA07463E493F4A891AC9083F
:10DD3000012242EA01403A463D49FFF773FD0020C7
:10DD40000090019002908DF80060F720ADF802007D
:10DD500069462320226869DF054675B1284600F030
:10DD60006DFA07462F49304A891AC908012242EA4A
:10DD700001403A462F49FFF755FD002000900190E1
:10DD8000029001208DF800006946226869DF05468F
:10DD900075B1284600F052FA07462249224A891AEC
:10DDA000C908012242EA01403A462349FFF73AFDF9
:10DDB00000200090019002904FF4B06000906946FE
:10DDC000A120226869DF054675B1284600F036FAC1
:10DDD00007461449144A891AC908012242EA014037
:10DDE0003A461649FFF71EFD002000900190029070
:10DDF0008DF800006946A020226869DF054675B1EC
:10DE0000284600F01BFA07460649074A891AC9083E
:10DE1000012242EA01403A460949FFF703FD00208A
:10DE20004FE70000CC1602005C160200A8140200A6
:10DE3000F01402003C150200081402005414020001
:10DE4000B41302002DE9F04104462568204660DF46
:10DE500006462068A84225D91E491F4A891AC908C2
:10DE6000022242EA01401DA1FFF7D2FC19491A4AD9
:10DE7000891AC908022242EA01402A4623A12368DE
:10DE8000FFF7DCFC01F0C8FB2168471A1149124A70
:10DE9000891AC908022242EA01403A4628A1FFF73E
:10DEA000C1FC00E000BF1EB90120304908700EE03F
:10DEB000304600F0C3F907460649074A891AC908DF
:10DEC000012242EA01403A4629A1FFF7ABFC304665
:10DED000BDE8F081CC1602005C160200496E737535
:10DEE0006666696369656E742052414D20616C6C91
:10DEF0006F636174656420666F7220746865205377
:10DF00006F66744465766963652E00004368616ED0
:10DF10006765207468652052414D20737461727486
:10DF2000206C6F636174696F6E2066726F6D203054
:10DF300078257820746F20307825782E0000000036
:10DF40004D6178696D756D2052414D2073697A6518
:10DF500020666F72206170706C69636174696F6EA6
:10DF600020697320307825782E00000013240020CB
:10DF700073645F626C655F656E61626C6528292001
:10DF800072657475726E65642025732E0000000042
:10DF90002DE9F041ADF5027D80461848007818B9AA
:10DFA0000DF5027DBDE8F0811DE04FF4FA7004909C
:10DFB00004A905A861DF044604B115E005AD1049C8
:10DFC00001A800F0ACF809E000BF039806463768E6
:10DFD00028467168B84701A800F0C2F800BF03984E
:10DFE0000028F1D100BFE0E700BF052C04D000BF3E
:10DFF0002046FBF7CDFE00BF00BFD1E71324002071
:10E00000AC0E02001CB51B48007808B108201CBDEE
:10E01000012019490870002001F022FD112801D1CA
:10E020000020F4E7002001F039FD14480068019059
:10E03000002000906846FCF72DF8114901A810DF78
:10E0400004460CB9012000E000200A4908709DF840
:10E050000000FCF725F80CB12046D8E7002006495F
:10E0600008700849087001F013FF012001F016FD47
:10E070000020CCE71024002012240020880E02008B
:10E08000D59C0100112400203EB50A49684600F0E5
:10E0900046F809E0684600F03FF8044625686068E5
:10E0A000A847684600F05CF8684600F035F800289C
:10E0B000F0D13EBD7C0E02000148007870470000A0
:10E0C000102400202DE9FF41074618E003A84BDF8C
:10E0D000044604B114E00F49684600F020F809E056
:10E0E00000BF029805462E6869680398B0476846E5
:10E0F00000F036F800BF02980028F1D100BFE5E734
:10E1000000BF052C04D000BF2046FBF741FE00BF36
:10E11000BDE8FF81CC0E020001468868704770B5EB
:10E1200004460D46256028686060204600F001F82E
:10E1300070BD14E0D0E900215268914202D1002163
:10E14000816070474168096842685268914203D013
:10E15000416809688160F4E7416808314160E9E796
:10E1600010B50446A06800B910BD2168A068896890
:10E170000844A060D4E901104968884205D160686C
:10E18000083060602046FFF7D4FF00BFECE770B5B1
:10E1900005460E466C6806E020683146AA6890473E
:10E1A00000B903E0246820680028F5D100BF20688A
:10E1B0003060266070BD01464868006870470146BF
:10E1C0004A6810684A68126822B14A681268126880
:10E1D0004B681A60704710B503460A46002059681C
:10E1E00007E00C68944203D114680C60012003E03E
:10E1F00009680C68002CF4D100BF10BD70B5024650
:10E200000D4B03F5947413E0E61AF01000EBD07692
:10E21000761003EBC6010D68954201D90C4606E065
:10E22000954202D201F1080301E0486870BD00BFC9
:10E23000A342E9D30020F9E7E00C020030B5044620
:10E240002046FFF7DBFF05460DB9024830BD2846E2
:10E25000FCE70000CC0C02000146D1F88004C1F8B4
:10E26000800470470246505808B1012070470020D2
:10E27000FCE708B5002242504258009200BF08BD9A
:10E28000C0F808154FF4A2631A507047C0F808137D
:10E290007047C0F8041370470246D2F804030840E0
:10E2A00008B1012070470020FCE70122425070476E
:10E2B00040F214531A5040F20C5319507047014663
:10E2C000D1F88004C1F8800470470246505808B164
:10E2D000012070470020FCE708B500224250425858
:10E2E000009200BF08BDC0F808154FF4A2631A5091
:10E2F0007047C0F808137047C0F804137047014610
:10E3000040F23C5040587047D0F800228A43C0F891
:10E3100000227047012242507047014640F24C50A3
:10E320004058704740F20C53195040F214531A50A1
:10E33000704700000348006808B1012070470020C2
:10E34000FCE700000004014010B500F0A1F9012035
:10E350000149086000BF10BD1805004001460020BB
:10E36000054A12790AB1852004E0034A11600122AE
:10E37000014B1A71704700002423002010B50220C1
:10E38000FEF7E6FC4FF48270FEF7D8FC0C20FEF797
:10E39000E5FC00BF00BF03480068C0F30040002850
:10E3A000F8D110BD1804004070B5044604B970BD22
:10E3B000024EA5012846B04700BFF8E7910C0200C5
:10E3C0000146080B40B270470146080B40B2704747
:10E3D0000146080B40B270470146080B40B2704737
:10E3E0002DE9F04706460D46304600F0F3FFF0B148
:10E3F0003046FCF7B9FFA0F10808404601F074F878
:10E400000446032C08D13046FEF741FF08B1032033
:10E4100000E00220074605E0012C01D1022000E0C7
:10E420000320074639463046FEF7EDFE2AE0304627
:10E4300000F0DCFF30B33046FCF796FF0446A00046
:10E4400000F5807087B220460F4951F8201041F046
:10E4500001020D4941F8202000BF3846FEF740FF79
:10E460007DB13046FCF780FF8146FCF735FF8046E2
:10E47000B8F1000F04D0012101FA04F0FEF74AFFC1
:10E4800000BF00BFBDE8F087106500402DE9FC47E4
:10E4900004460E4617464FF00008204600F08CFF59
:10E4A00010B14FF0080862E0B078C0F3400239467E
:10E4B0002046FCF719FF0546681C002854D0B078A8
:10E4C000C0F3800020BBB07800F0010080B100BF35
:10E4D00000BF4FF0A042104600F5E06252F8242041
:10E4E00022F0020100F5E06242F8241000BF0CE0C7
:10E4F00096F80190002000904B460246014601909C
:10E500002046FEF712FE00BF00BF204600F044FF89
:10E51000B078C0F34000D0B13078164951F82510DA
:10E52000154A1140134A42F82510114651F825109A
:10E530004FF4F85202EA04224FF4403303EA004356
:10E540001A4311430B4A42F8251000BF0EE0A5F113
:10E5500008000A49085C317840EA811042B2A5F10E
:10E56000080006490A5401E04FF0040800BF404685
:10E57000BDE8FC8710650040FFE0FCFF802900201B
:10E5800010B504462046FEF782FE08B1012010BDFA
:10E590000020FCE72DE9F0412F4890F8580018B111
:10E5A00008263046BDE8F081002408E02046FEF74A
:10E5B0005DFE10B1204600F029FF601CC4B2202C83
:10E5C000F4DB002404E02046FCF776FE601CC4B2B5
:10E5D0000C2CF8DB2048002141652048FFF7F4FEB1
:10E5E0000546062728463946002804DB4A07130E4D
:10E5F0001B4A135408E04A074FEA126C194A00F00C
:10E600000F031B1F02F803C000BF00BF1348FFF732
:10E61000DBFE0546284600280DDB00BF00BF00F0EA
:10E620001F02012191404209920002F1E022C2F84A
:10E63000001100BF00BF00BF00BF4FF4BE70FEF767
:10E640004FFE4FF00040FEF765FE0120024981F8C1
:10E65000580000263046A5E7302900200060004021
:10E6600000E400E018ED00E0034890F8580008B11D
:10E67000012070470020FCE730290020014601F00E
:10E680006040B0F1005F01D1012070470020FCE73D
:10E690002DE9F04106254FF08040FFF791FE04463A
:10E6A0002046E21704EBD2625211920002F1E022FE
:10E6B000D2F800212146E31704EBD3635B11A4EBEE
:10E6C00043160123B3401A400AB1012200E00022A0
:10E6D00082BB4FF08040FFF773FE04462E46204673
:10E6E0003146002804DB4A07130E134A135406E090
:10E6F0004A07170E114A00F00F031B1FD75400BF23
:10E7000000BF4FF08040FFF75BFE04462046002824
:10E710000DDB00BF00BF00F01F0201219140420944
:10E72000920002F1E022C2F8001100BF00BF00BF5A
:10E7300000BF00BFBDE8F08100E400E018ED00E09C
:10E740002DE9F84307460E46384600F059FF0446C7
:10E75000D4B14FF00008002000906846FBF79AFC07
:10E76000207910B14FF0010802E0266001202071ED
:10E770009DF80000FBF794FCB8F1000F03D01125C1
:10E780002846BDE8F88300BF00252846F9E70000C9
:10E7900010B50249024801F0DDFE10BD8C290020B1
:10E7A000002000402DE9F04105460E461746287925
:10E7B00000EB400101EBC0001A4901EB80044FF06F
:10E7C000000894F82A0020B14FF008084046BDE840
:10E7D000F0812A79144B53F822102868FFF7B0FF14
:10E7E00018B14FF011084046F1E731462846FBF7D3
:10E7F000A4FC676030692060606818B1317F2846EA
:10E80000FDF72CFC28680421C0F8001500BF00208B
:10E81000A061E06184F829006061012084F82A0089
:10E820004046D4E78C290020F80B02002DE9F84F70
:10E83000054689469246287900EB400101EBC0006D
:10E84000424901EB800400200090606820B14FF441
:10E8500001712868FFF71AFDA06970B1E06950B135
:10E86000606820B14FF401712868FFF712FD11268E
:10E870003046BDE8F88F01200090009838B9C4F800
:10E8800018A0C4F80C9000206062E06103E0C4F8B6
:10E890001090C4F81CA094F8290020B9009810B971
:10E8A000284600F0FEFF6068002846D14FF4A271B0
:10E8B0002868FFF7DEFC00BF00BF4FF492712868A4
:10E8C000FFF7D0FC80464FF484712868FFF7CAFC3C
:10E8D00083464FF4A2712868FFF7C4FC0746BBF1DA
:10E8E000000F03D117B9B8F1000FE6D0B8F1000F4F
:10E8F00000D107B107E02146286800F097FF616A60
:10E90000A0698842D8D800BF0020A061B8F1000FEC
:10E9100002D003263046ACE717B10F263046A8E7F1
:10E9200094F8290020B100212868FFF7BEFC03E01D
:10E9300004212868FFF7B9FC04E04FF4017128684E
:10E94000FFF7A7FC0026304693E700008C29002043
:10E950002DE9F04104460F469046207900EB400136
:10E9600001EBC0001C4901EB8005204600F036F8A1
:10E9700018B111263046BDE8F081C5F81480AF60AB
:10E980000020286285F8280000264FF48E71206848
:10E99000FFF76FFC08212068FFF787FC29462068F5
:10E9A00001F068FC6868A0B92946206801F047FCBE
:10E9B00008B90F260BE000BF4FF48E712068FFF7F7
:10E9C00051FC0028F8D00C212068FFF76EFC0020D5
:10E9D00068613046CFE700008C29002001460879A5
:10E9E00000EB400202EBC000044A02EB80004069E9
:10E9F00008B1012070470020FCE700008C290020AE
:10EA000010B50249024801F069FE10BDB829002086
:10EA1000002000402DE9F04105460E4617462879B2
:10EA200000EBC000194901EB80044FF0000894F896
:10EA3000200020B14FF008084046BDE8F0812A7957
:10EA4000134B53F822102868FFF77AFE18B14FF0E5
:10EA500011084046F1E731462846FBF7ACFB6760FA
:10EA600030692060606818B1317F2846FDF740FBAF
:10EA700028680821C0F8001500BF0020A061E061EF
:10EA80006061012084F820004046D6E7B8290020C4
:10EA9000280C02002DE9F84F04460E46174620794F
:10EAA00000EBC000484901EB80053046FFF7E6FD6A
:10EAB00020B94FF010084046BDE8F88F4FF0000A2B
:10EAC000686820B14FF404712068FFF712FCA86950
:10EAD00070B1E86950B1686820B14FF404712068E2
:10EAE000FFF70AFC4FF011084046E5E74FF0010A36
:10EAF000BAF1000F04D1AF61EE600020E86101E0DF
:10EB00002E61EF614FF000084FF488712068FFF725
:10EB1000E3FB4FF4A2712068FFF7DEFB2068C0F82A
:10EB200034654FF4A7610F5000BFBAF1000F04D154
:10EB300000212068FFF7EEFB08E020212068D0F8D4
:10EB400000220A43C0F8002200BF00BF207900EB7A
:10EB5000C0001D4901EB8000406868BB00BF4FF456
:10EB600088712068FFF7B1FB00904FF4A271206814
:10EB7000FFF7ABFB83464FF492712068FFF7A5FBCC
:10EB80008146009828B9BBF1000F02D1B9F1000FFE
:10EB9000E5D00020217901EBC1010B4A02EB810194
:10EBA0008861B9F1000F01D04FF00308BBF1000FED
:10EBB00001D04FF00F0804E04FF404712068FFF714
:10EBC0009BFB404678E70000B82900202DE9F0477C
:10EBD000044688469146207900EBC0002A4901EBA3
:10EBE00080054046FFF74AFD18B910263046BDE8BB
:10EBF000F087204600F04AF810B111263046F6E7BB
:10EC0000C5F81490C5F8088000264FF4907120686C
:10EC1000FFF762FB4FF4AC712068FFF75DFB2068E3
:10EC20006A69A968C0F844154FF4A9631A5000BF77
:10EC300008212068FFF76EFB686818BB00BF4FF41F
:10EC400090712068FFF741FB82464FF4AC71206859
:10EC5000FFF73BFB0746BAF1000F01D1002FEED0C2
:10EC60000FB10F260BE00C212068FFF753FB00BF0C
:10EC70004FF4AC712068FFF728FB0028F8D0002083
:10EC8000686100BF3046B2E7B82900200146087924
:10EC900000EBC000044A02EB8000406908B101208B
:10ECA00070470020FCE70000B82900202DE9F04162
:10ECB00005462878002831D100261FE000BF2969C9
:10ECC000885DFBF7B1F90446ACB1112C13D014499F
:10ECD000144A891AC908012242EA0140224612A1B7
:10ECE000FEF7A0FD00BF274627B100BF3846FBF75F
:10ECF0004FF800BF00BF112CE1D0761CA88AB042AB
:10ED0000DCD8A88A401E2969085C0D2805D100BFFF
:10ED10000A20FBF789F91128FAD000BFBDE8F0817D
:10ED2000BC1602005C1602004661696C65642072C4
:10ED30006563656976696E67204E5553206D65730E
:10ED4000736167652E204572726F72203078257866
:10ED50002E20000070B505467DB1032D10D1022094
:10ED6000FCF78AF9044600BF264626B100BF3046AC
:10ED7000FBF70EF800BF00BF03E001F054F800E01D
:10ED800000BF00BF70BD000010B50446FDF7A6F837
:10ED9000014A03C210BD00006823002010B50446DC
:10EDA0000548006830B10448006801F089F9002086
:10EDB0000149086010BD00005823002070B50546C9
:10EDC000287868B93B210748008876DF044600BFF1
:10EDD000264626B100BF3046FAF7DAFF00BF00BF73
:10EDE00070BD0000F022002070B50546AE883046A8
:10EDF000FDF7BEF8044674B14FF6FF7340F2F3120C
:10EE000005F1080104F10A00FDF7EFF960722146EF
:10EE10003046FCF79BFC70BD2DE9F0410546EF7BC9
:10EE2000AE88012F01D0BDE8F0814FF6FF70FDF7ED
:10EE30009FF804461CB9042000F04AFEF3E700BF27
:10EE40002680002020720E480168C4F80A1040682D
:10EE5000C4F80E0000BF4FF6FF7340F2F31205F145
:10EE6000100104F10A00FDF7C0F960720548C0897D
:10EE700018B921463046FCF769FC00BFD3E7000013
:10EE8000102300208428002070B58AB004460D4667
:10EE900000200090A9886A466069FBF7E9F90646F8
:10EEA00000200290039001A803900220ADF8080012
:10EEB0000020ADF80A002189A88802AAADDF064625
:10EEC000D6B9A069C0B10398FBF76EFFA0B1009856
:10EED00010B1012000990870182104A8FAF7AFFAC0
:10EEE00002208DF810000594A888ADF8180000984D
:10EEF000079004A8A16988470AB070BDCA7B012A9F
:10EF000002D18A88A0F8E820704700002DE9F04778
:10EF100006460F46B7F8048008EB4801B01D00EB29
:10EF20004104F87B012802D13088208000E000BF36
:10EF300000BF2088618888421BDD21884046A5DF0C
:10EF4000054615B90120607113E0112D02D1012091
:10EF500020710EE02846FFF771F981460649074AFD
:10EF6000891AC908012242EA01404A4604A1FEF773
:10EF700059FCBDE8F08700005C1602005C16020038
:10EF800073645F626C655F67617474635F65786307
:10EF900068616E67655F6D74755F726571756573C5
:10EFA0007428292072657475726E65642025732E2D
:10EFB000000000002DE9F0410646B7883846FCF70E
:10EFC000D7FF05466DB16868FAF78BFF044614B1A8
:10EFD000204600F07DFD00BF4FF6FF70288000BF87
:10EFE00000BFBDE8F08170B504460E46002084F8ED
:10EFF000F200B088B4F8E81088420CD1207950B9FA
:10F0000001212046FBF728FB054625B1A06B10B176
:10F010002846A16B884770BD70B504460D46A98887
:10F0200001EB4102A11D01EB4200FDF73DF970BD6E
:10F030002DE9FC4705460E46B6F80480B6F8069062
:10F0400008EB4801A81D00EB4104B9F1170F01DAE4
:10F05000172000E0484681462088484501DD4846A3
:10F0600000E0208860800020207121884046B5DFC4
:10F07000074677B13846FFF7E1F882461049114A52
:10F08000891AC908012242EA014052460EA1FEF740
:10F09000C9FB607908B1BDE8FC87E86868B116492A
:10F0A00003C9CDE90001ADF802806088ADF8040025
:10F0B00069462846EA68904700BF00BFEBE70000BA
:10F0C0005C1602005C16020073645F626C655F6729
:10F0D000617474735F65786368616E67655F6D7492
:10F0E000755F7265706C7928292072657475726E0F
:10F0F00065642025732E0000900B02002DE9FC4171
:10F1000005460E46B788B6F80A8007EB4701A81DEA
:10F1100000EB41042088404501DD404600E02088A6
:10F1200060806088172801DA172000E0608860801E
:10F13000E86878B1607968B1094903C9CDE900018F
:10F14000ADF802706088ADF8040069462846EA68A8
:10F15000904700BF002060712071BDE8FC81000075
:10F16000880B020070B588B004460D46A98801AA34
:10F170006069FBF77DF806460EB108B070BD0198D6
:10F18000007888B1A06978B1182102A8FAF757F978
:10F1900001208DF808000394A888ADF810000198AC
:10F1A000059002A8A169884700BFE6E70548D0E9B5
:10F1B00000304FF080729A1840F100000149C1E917
:10F1C00000207047602300202DE9FF4106460D46D0
:10F1D00028887188884201D0BDE8FF81AC1C207866
:10F1E000022800D0F8E7207A042806D0207A0628E2
:10F1F00003D0207A052800D0EEE70020009001908F
:10F200000290039002208DF800004FF4C070ADF81A
:10F210000400207A052802D10020ADF804002888D7
:10F220006946B0DF074617B138467168884700BFA6
:10F23000D2E72DE9F04104460D462888262801D062
:10F24000BDE8F081287A012802D0287A02280ED160
:10F25000A078FAF74AFC074639462046FBF7FCF946
:10F26000064626B1A06B10B13046A16B884700BF9F
:10F27000E6E7704770B504460D462879012808D1A5
:10F2800028886188884204D101202072204601F03C
:10F2900070FB70BD2DE9F0410446A51D2888124978
:10F2A000C98988421DD1688902281AD1B4F804801E
:10F2B0004046FCF75DFE064696B105F10C00FBF7F3
:10F2C00073FD20B131464046FCF740FA08E0706813
:10F2D000FAF707FE074617B1384600F0F9FB00BF02
:10F2E00000BFBDE8F081000084280020F0B587B0A1
:10F2F00004460E46B51DB1886A466069FAF7B8FF44
:10F300000746182101A8FAF79AF80294B088ADF8D8
:10F310000C00009804902988208981421CD16889BA
:10F32000022819D1009848B305F10C00FBF73CFD09
:10F3300030B101200099087002208DF8040005E02A
:10F3400000200099087003208DF80400A069A8B17E
:10F3500001A8A169884711E02888A18988420DD1B8
:10F36000A06958B100208DF8040005F10C0005904B
:10F370006989ADF8181001A8A169884707B0F0BDE8
:10F3800001460868012802D00868022801D101203E
:10F3900070470020FCE7000070B5024605490B46A7
:10F3A000D40802F007021D5D0126964035431D5525
:10F3B00000BF70BD84290020014605484056012247
:10F3C00002EBE07008B1012070470020FCE700006C
:10F3D00060290020014604484056082801DB01202E
:10F3E00070470020FCE70000602900200146064825
:10F3F0004056002805DB04484056082801DA012061
:10F4000070470020FCE7000060290020FF2201492E
:10F410000A547047602900202DE9F05F814600BF43
:10F4200000254DE02B484057401C00B947E02846D6
:10F4300000F052F8044649462046FDF75DFB0028DF
:10F440003CD0284600F050F8064600BF00BF4FF001
:10F45000A041084600F5E06151F82410C1F30141D4
:10F460008846B8F1020F01D1032000E00220824655
:10F4700051462046FDF7C7FE00BF00BF4FF0A04138
:10F4800008460121A140C0F8201500BF2046FBF727
:10F490006BFF8346FBF720FF074677B1032E09D0A9
:10F4A000B8F1020F01D1012E04D0B8F1030F04D13D
:10F4B000022E02D131462046B84700BF00BF6D1C66
:10F4C000042DAFD34846FCF7CFFE0028A8D1BDE8F5
:10F4D000F09F00008029002001460248425C22F093
:10F4E000C00070478029002001460248425C900914
:10F4F000704700008029002070B504460D4616466E
:10F50000207A05280CD0607A28B10A480AA102683E
:10F510002846FDF7EFFC09A12846FDF7EBFC04E0C7
:10F520001EB106A12846FDF7E5FC2846FDF7F7FCCD
:10F5300070BD0000E4230020257300000D0A0000C8
:10F5400070B5FEF743FB044600BF254625B100BF5A
:10F550002846FAF71DFC00BF00BF70BDF8B5044691
:10F560000D46E08838B116A00090E38816A218A1D5
:10F570002846FDF7BFFC207A05281FD0607A58B1D5
:10F58000217AA088FDF786FF174951F8206032469E
:10F5900016A12846FDF7AEFC2846216800F04EFE75
:10F5A000A0880021FEF7E6F90646207A104951F8B6
:10F5B000202033460FA12846FDF79CFCF8BD000033
:10F5C0001B5B306D000000001B5B313B33316D0075
:10F5D00025734C6F67732064726F707065642028A8
:10F5E00025642925730D0A00E423002025730000FB
:10F5F000D02300203C25733E2025733A20000000D4
:10F6000001460348814201D1024870470020FCE7CF
:10F61000002000402C23002002480068810201F1F4
:10F62000005070470C01001010B50446142C01DB8B
:10F63000002010BD21460548FDF792F921460348F8
:10F64000001FFDF78DF90120F3E70000A828002036
:10F6500070B50546002406E0044901EB8400294604
:10F66000FDF760F9641C1E2CF6D370BDA4280020A1
:10F6700010B598B00F488068C04317900D48416896
:10F6800017A8FDF795F9179901A8FBF7AAFF2C22F7
:10F6900001A90CA8F9F7BAFE002405E00DA931F87C
:10F6A0001400FFF7D5FF641C0C98A042F6D818B0E0
:10F6B00010BD0000A028002010B5044621460248D5
:10F6C000FDF730F910BD0000A828002010B5044651
:10F6D0002046FCF7C6F908B1FFF768FD0021204677
:10F6E000FCF7CFF810B12046FFF758FB0121204668
:10F6F000FCF7C7F810B12046FFF746FB204600F0A4
:10F7000015FD204600F040F810BD00002DE9F0473F
:10F7100006460F464FF00D0800203870FCF7DEFB60
:10F72000D6E902321C1A62EB010500210846091BCA
:10F73000A84118DAB4F5350F04D3FAF769FB10497C
:10F74000084400E0B06881464FF496034A46002121
:10F750000C48FCF79CF98046B8F1000F02D101205B
:10F76000BDE8F08703E000210648FCF77FF8B8F118
:10F770000D0F03D1304600F0A3FC38700020EFE7F6
:10F78000FFFFB40050230020F8B5074646E000BF55
:10F790002448FEF710FD06460EB1304600E000207A
:10F7A00004460025002C31D01F48006808B9012507
:10F7B00012E01D49D4E902300A68D2E90212591A4E
:10F7C000904109D2012518480068007F20B11648F1
:10F7D00001681448FEF7DBFCBDB100F073FB044682
:10F7E00069462046FFF792FF58B10F48006810B9EC
:10F7F0003846FCF73EF90C4804609DF8000018B943
:10F800000DE000200849086007E008E006480068AD
:10F8100010B93846FCF734F901E000BFB7E700BF84
:10F82000F8BD0000540C02005823002070B50546B6
:10F830000C46A06940B94FF484712846FEF719FDC3
:10F8400000BFD5F8180570BD4FF484712846FEF747
:10F8500010FD00BFD5F81805C0B2626AE16888548F
:10F86000606A401C606200BFEDE77FB504460D464C
:10F87000164601208DF80000029501966846D4E9ED
:10F88000001290477FBD7FB504460D461646012005
:10F890008DF80000029501966846D4E90012904761
:10F8A0007FBD10B504464FF492712068FEF7E1FC6D
:10F8B0004FF484712068FEF7DCFC00212068FEF71D
:10F8C000F4FC10BD10B504462046FAF7A3F810B9B1
:10F8D00042F2010010BD2046002803DB1F4A125CE3
:10F8E000520905E01E4A00F00F031B1FD25C5209AB
:10F8F0001146082904D20120884000F0EC0008B924
:10F90000002000E0012010B942F20200E2E71548B1
:10F91000806868B16009134951F8200004F01F02A3
:10F9200001219140084361090E4A42F8210012E08A
:10F93000204600280DDB00BF00BF00F01F020121A0
:10F9400091404209920002F1E022C2F8001100BF8A
:10F9500000BF00BF00BF0020BCE7000000E400E0E3
:10F9600018ED00E0982A002070B50446FAF76EF80A
:10F97000054614488068D8B90120124988601248A9
:10F980000068124908400F49086010484FF0E02114
:10F99000C1F880010C488038D0F8840009494860DB
:10F9A0004FF0FF310848001D01600020207001E089
:10F9B000012020701DB900BF62B600BF00BF00204B
:10F9C00070BD0000982A002080E100E0FC06FFBD29
:10F9D00038B504460D4624B1012C1FD0032C38D174
:10F9E00032E00020002817DB00F01F0201219140C7
:10F9F000194A430942F8231000BF00BF00BFBFF3FC
:10FA00004F8F00BF00BF00BF00BF00BF00BFBFF3EC
:10FA10006F8F00BF00BF00BF00BF1BE00020009041
:10FA20006846FAF737FB0D48007808B9FDF79AF9F0
:10FA30000A48C068401C0949C860012088709DF8C8
:10FA40000000FAF72DFB05E0FEF77EFCFDF7B0F9AC
:10FA500000E000BF00BF38BD80E100E01C290020AD
:10FA6000FEB505460C496846FEF759FB0DE06846B1
:10FA7000FEF752FB0446266828466168B04708B97D
:10FA80001120FEBD6846FEF76BFB6846FEF744FB9F
:10FA90000028ECD100BFF4E7440E0200FEB5054695
:10FAA0000A496846FEF73BFB0AE06846FEF734FB6E
:10FAB0000446266828466168B0476846FEF750FB52
:10FAC0006846FEF729FB0028EFD1FEBD600E02005C
:10FAD00010B504460348806918B102488169204680
:10FAE000884710BD8428002070B505460E46314673
:10FAF000284675DF044624B1112C02D02046FFF7BA
:10FB0000E7FF0CB9012070BD0020FCE72DE9F84F9C
:10FB100088461546002D35D04FF00009032000908F
:10FB200000BF08EB09012A460020F9F773FD0446DF
:10FB3000A1442D1BFCB91448007800B920E001262F
:10FB400006B90FE000BF4FF47A7707B906E0DFF897
:10FB50003CA04FEA871B5846D04700BF701E061EC8
:10FB6000F1D100BF0098401E0090009818B9002005
:10FB70000549087004E0012003490870002DD0D128
:10FB800000BF00BFBDE8F88FB0230020210E0200A7
:10FB90002DE9F04707460E4614469A46B86A10B952
:10FBA0000720BDE8F0874FF0000836E008EB480179
:10FBB000B86A00EB8105A88800F10209B9F1FE0FCF
:10FBC00001D90C20EDE709F101002188705420884B
:10FBD000401C20801620218870542088401C2080E2
:10FBE00022889119288800F019FE21880844208075
:10FBF000A88800280DDDA86808B90720D1E7AA88E1
:10FC000023889819A968F9F701FC2088A988084475
:10FC1000208008F1010000F0FF0897F82C00404513
:10FC2000C4DC0020BDE700007CB500200090114836
:10FC3000009069461048FDF721F8044600BF2546AC
:10FC400025B100BF2846FAF7A3F800BF00BF002087
:10FC500001900A48019001A90948FAF7FFFF0446FC
:10FC600000BF254625B100BF2846FAF791F800BF2E
:10FC700000BF7CBD23DC010028240020ADEC010086
:10FC8000D42200200246022082F8310003200870AE
:10FC9000108A88810020C2F8E40002F1EA0048607E
:10FCA000D0688860002070470246012082F8310049
:10FCB0000020C2F8E40002F1EA00486000208860F9
:10FCC00002200870802088810020704770B50446AB
:10FCD0000D466069A860208BA881012084F83C0053
:10FCE000204600F037FE78B1022028750421204616
:10FCF000FCF73EF8064600BF304600B170BD00BFBD
:10FD0000052084F8310002E0032084F8310004F17A
:10FD1000D400C4F8E4000020F0E770B504460D46B6
:10FD2000E069A860208CA881012084F83C0020466E
:10FD300000F010FE78B10220287504212046FCF75F
:10FD400017F8064600BF304600B170BD00BF062060
:10FD500084F8310002E0042084F8310004F1D4007A
:10FD6000C4F8E4000020F0E700BF0A7822F00F0298
:10FD70000A700A7822F0F0020A7000BF062850D2FA
:10FD8000DFE800F0030E1B28354200BF0A7822F09E
:10FD90000F020A700A7822F0F0020A7000BF40E0F9
:10FDA00000BF0A7822F00F02521C0A700A7822F073
:10FDB000F00210320A7000BF33E000BF0A7822F070
:10FDC0000F02521C0A700A7822F0F00220320A70E8
:10FDD00000BF26E000BF0A7822F00F02521C0A7012
:10FDE0000A7822F0F00230320A7000BF19E000BF3A
:10FDF0000A7822F00F02921C0A700A7822F0F002B0
:10FE000010320A7000BF0CE000BF0A7822F00F0227
:10FE1000921C0A700A7822F0F00220320A7000BFA9
:10FE200000BF00BF704770B50020FBF725F90446FE
:10FE300000BF254625B100BF2846F9F7A9FF00BF3E
:10FE400000BFFBF72BF8044600BF254625B100BFD5
:10FE50002846F9F79DFF00BF00BF33DF044600BF0F
:10FE6000254625B100BF2846F9F792FF00BF00BF25
:10FE700070BD000070B504460D462CB90120034941
:10FE800048700020FBF75AFB70BD00001C290020C1
:10FE900070B51620FFF716FD044600BF254625B1B4
:10FEA00000BF2846F9F774FF00BF00BF70BD10B552
:10FEB00000BF00F007F808B1002101770028F8D151
:10FEC00010BD000010B50448FEF779F904460CB1E6
:10FED000204610BD0020FCE7540C020010B504467B
:10FEE0000120FBF757F810B10220207008E0002035
:10FEF000FBF750F810B10B20207001E000202070BB
:10FF000010BD00000146064B03EB61031A7801F0B7
:10FF100001030BB1131101E002F00F031846704703
:10FF2000002A002030B500F001040CB10F2400E0DD
:10FF3000F024234600F001040CB10C0100E00C4653
:10FF4000E2B2094C04EB600424781C40064D05EB3A
:10FF500060052C70044C04EB600424781443024DBB
:10FF600005EB60052C7030BD002A00202DE9F05F04
:10FF700005460E4690461F46DDF828904FEA154A82
:10FF8000FBF768FC83464AEA0B42781C00EA09004A
:10FF90000E4941F8202007EA090001EB800420689F
:10FFA00065F3C5002060206868F389102060206830
:10FFB00066F39F202060206820F00300401C206032
:10FFC000206820F004002060BDE8F09F542C002041
:10FFD0002DE9FC478046894616461C4616480768A8
:10FFE000012201A92046FBF789F8C0B1019800F170
:10FFF000020A002509E056F8252050460AF1010AB8
:020000040002F8
:1000000038400E4941F820206D1CA542F3D30097DB
:10001000224649464046019BFFF7A8FF00BF07481C
:100020000C38007830B100BF00BFFDF763FA00283C
:10003000FBD100BFBDE8FC87CC230020542C00205E
:100040002DE9F04781460C4615469846002608F0F3
:100050000100A0B105E0641C761C39464846FBF758
:10006000C1F82778002FF6D104E06D1E2021484604
:10007000FBF7B8F8B5421BD9002DF6D118E01CB13A
:100080002046F9F7E7F9064604E06D1E20214846B0
:10009000FBF7A8F8B54201D9002DF6D105E0641CA4
:1000A000761C39464846FBF79DF82778002FF6D195
:1000B000BDE8F0870246501A20F07F4070470000EC
:1000C00070B50446002517480078012827D104B3ED
:1000D000207FF0B1FBF702FFD4E90223801A994197
:1000E00018D3206908B900202077D4E90510884783
:1000F000206970B1207F60B1D4E9023021695918BC
:1001000040F10000C4E9021021460748FEF73FF81D
:10011000012504E021460448FEF739F80125284668
:1001200070BD00005C230020540C0200F8B50646A8
:1001300069461F480068FCF7D9FB044634E0207884
:1001400020B101280DD0022821D11AE06068007F7B
:1001500030B901206168087716486168FEF717F822
:1001600016E0154960680968884203D100201249E9
:10017000086005E00F486168FEF72DF8054600BFEE
:1001800006E0FFF794FE01200C49087000E000BF74
:1001900000BF694606480068FCF79AFB69460448B8
:1001A0000068FCF7A3FB0446002CC8D1F8BD000092
:1001B000500C0200540C0200582300205C23002045
:1001C000F8B505460E4669460B480068FCF772FB19
:1001D00004467CB125706660694607480068FCF7F4
:1001E00093FB28B100BF0548FBF720FC00BF00BF10
:1001F0000020F8BD0420FCE7500C02005023002032
:1002000010B5054800684108002204480068F9F765
:100210004DFE044610BD000040230020480C0200A3
:1002200070B5F9F70DFE044600BF254625B100BFA5
:100230002846F9F7ADFD00BF00BF70BD704770B52F
:1002400005460C46666910E004E094F8280008B101
:10025000002070BD4FF48E712846FEF703F8002889
:10026000F3D02146284600F005F8206AB042EBD3CF
:100270000120EEE770B505460C464FF48E71284616
:10028000FDF7F7FF216AA068465C206A401C2062E7
:100290003046C5F81C0500BF70BD7FB504460D464D
:1002A00000208DF800000295A06801900020606198
:1002B0006846D4E9001290477FBD7FB504460D46DD
:1002C00000208DF800000295A06801900020606178
:1002D0006846D4E9001290477FBD30B504461088C7
:1002E000C01C984201D90C2030BD02201588485509
:1002F0001088401C10800A20158848551088401C22
:10030000108015884C551088401C10800020EBE7A9
:10031000F8B50546287820B101284BD002284FD1E6
:1003200042E02949294A12788818F9F7E5FD27485B
:100330000078401C2549087008460078401E224974
:10034000085C0A280BD021480078401E085C0D2864
:1003500005D01E4800781E490988884223DB1B48C7
:10036000007801281CDD00BF18480078009019486B
:1003700003886A4614491848FAF732FC0446082CE8
:100380000CD0132C0AD0052C08D000BF264626B16D
:1003900000BF3046F9F7FCFC00BF00BF132CE3D0D0
:1003A00000200A4908700CE000BF6868F9F7F0FC0B
:1003B00000BF06E000BF6868F9F7EAFC00BF00E094
:1003C00000BF00BFF8BD00002C250020F82200204F
:1003D000F2220020F0220020D42200207CB5044626
:1003E0000E462078002847D0012802D0022856D196
:1003F00033E0207A28B901222A492B48FCF736FD40
:100400004EE0606801782948F9F7F1FC054645B1EE
:1004100001208DF800000195684625490968884744
:100420000AE02248FBF763FC30B100208DF80000A1
:1004300068461F49096888471C48FBF758FC1B4958
:100440008988884205D8012216491748FCF70EFD15
:1004500002E001201749087022E002208DF8000018
:10046000E068019001220F490F48FCF7FFFC684645
:100470000F490968884713E00F491048F9F796FCBF
:1004800028B901220C490848FCF712FD06E00320B8
:100490008DF80000684606490968884700E000BFFB
:1004A00000BF7CBD8D23002074230020782A00200B
:1004B000882300208E2300208C230020882A0020FF
:1004C0007FB504460D462E4620788DF80000606802
:1004D0000190217A8DF80810E1680391044850F8E2
:1004E0002610044850F82620684690477FBD00003B
:1004F0001C2300201823002030B58BB0182211498E
:1005000005A8F8F783FF00BF0F4801904FF48070F3
:1005100002900E4803904FF48070049007230C4A19
:1005200001A905A8F9F712FD044600BF00BF254642
:1005300025B100BF2846F9F72BFC00BF00BF0BB068
:1005400030BD0000480B020020260020202700209C
:10055000110302002DE9FF4105460C464FF40071DE
:100560002846FDF799FE48B34FF492712846FDF7EF
:1005700079FE18B34FF492712846FDF77AFE4FF4D6
:1005800001712846FDF782FE94F8290018B904216C
:100590002846FDF78AFE02208DF800002846FDF768
:1005A0005BFE0390A1690291E06801900020A061C8
:1005B000E0616846D4E90012904737E004212846FC
:1005C000FDF76AFE002831D04FF484712846FDF70C
:1005D00049FE58B321462846FFF728F9616AA06909
:1005E000884223D1E06970B1E668676AE069A0617A
:1005F0002069E0600020E0616062324639462046B2
:10060000FFF733F912E094F8290018B904212846BD
:10061000FDF74BFE4FF401712846FDF737FE002031
:10062000A061E268616A2046FFF71FF94FF48E71FE
:100630002846FDF717FEB8B16669206AB04207D2B6
:1006400094F8280020B921462846FFF713FE0AE057
:100650004FF48E712846FDF70CFE606918B1616990
:100660002046FFF71AFE00BF4FF4A2712846FDF79F
:10067000F9FDA0B14FF4A2712846FDF7FAFD94F8F8
:10068000290018B100212846FDF70FFEA06930B1FE
:100690000020A061E268616A2046FFF7E6F8BDE845
:1006A000FF8100007FB504460D462E4620788DF868
:1006B000000060680190217A8DF80810E1680391CC
:1006C000044850F82610044850F826206846904701
:1006D0007FBD00001C230020182300202DE9FF41CE
:1006E00006460C464FF492713046FDF7EEFDC8B158
:1006F0004FF492713046FDF7EFFD02208DF80000B7
:100700003046FDF7DCFD03903046FDF7F8FD029022
:10071000E06801900020A061E0616846D4E9001221
:1007200090472CE04FF488713046FDF7CEFD30B392
:100730004FF488713046FDF7CFFD3046FDF7DFFD01
:100740000546A069A84219D1E06980B1E768202177
:100750003046FDF7D9FDE069A0612069E060002026
:10076000E0613A4629462046FFF78DF806E0002072
:10077000A06129462046E268FFF785F800BF4FF4E4
:10078000A2713046FDF7A1FD90B14FF4A271304641
:10079000FDF7A2FDA06958B10020A061E0613046DC
:1007A000FDF7ADFD054629462046E268FFF76BF8E8
:1007B0004FF490713046FDF788FD90B14FF4907181
:1007C0003046FDF789FD0C213046FDF7A3FD606939
:1007D00038B13046FDF7A1FD054629462046FFF712
:1007E0006CFD4FF4AC713046FDF76FFD70B14FF406
:1007F000AC713046FDF770FD606938B13046FDF7E9
:100800008CFD054629462046FFF757FDBDE8FF81D0
:10081000014608784A7840EA0220704702460A708A
:10082000100A4870022070472DE9FF4F81B08846BA
:1008300016461F46DDE90E4B45464FF0010A03E020
:10084000B5FBF6F50AF1010AB542F9D2574500D9D0
:10085000BA460BF0010098B994B10BF002000228DF
:1008600003D117B93020009001E02020009004E06F
:10087000641EDDE90010FAF7B5FC0CB1A245F7D310
:10088000012509E0012F01D97F1E04E0B8FBF5F92D
:10089000B14500D201E07543F4E700BF00BFB8FBEB
:1008A000F5F909FB15880D4810F809100198FAF7B9
:1008B00099FCB5FBF6F5002DF1D10BF0010048B124
:1008C00044B104E0641E20210198FAF78BFC0CB1BE
:1008D000A245F7D305B0BDE8F08F0000960C0200EA
:1008E000F8B506463546A8B2FBF742FB04466CB3A2
:1008F000207A1749097B88420ADAA8B204F10A0172
:10090000FFF7F2F8074617B1207A401C20721DE06D
:10091000002020720E48007C50B1A8B23B2176DF47
:10092000074627B1082F02D03846FFF7D1F800BF9D
:100930000748406950B100208DF80000A8B2ADF81A
:100940000200034841696846884700BFF8BD0000BF
:100950008428002010B50446607940B194F8F20074
:1009600028B9204600F0E7F808B1012010BD0020AA
:10097000FCE770B50446207A80B16088002166DF0C
:10098000054615B90020207207E0112D02D1012083
:10099000207202E028466168884700BF70BD70B5CC
:1009A00005460E462846FAF73FFC04462CB160681F
:1009B00018B1314628466268904770BD2DE9FC4762
:1009C0008046894615469A46DDE90A675346022263
:1009D00049464046CDE9006700F017F8044600BFDD
:1009E000204608B1BDE8FC8700BF534610222946C7
:1009F0004046CDE9006700F008F8044600BF2046F5
:100A000000B1EFE700BF0020ECE72DE9FF5F0746EC
:100A10008B4696461D460E9C4FF000092088039099
:100A2000C84647E0786800EB880000680190002223
:100A300002A901A864DF064600BF304610B104B029
:100A4000BDE8F09F00BF9DF80800704530D1B9F1B6
:100A5000000F01D0002000E00220009020889DF8C7
:100A600008100144009801440F98814201DD0C20D8
:100A7000E5E7B9F1000F0AD12088401C20802088CA
:100A800005F800B02088401C20804FF00109208824
:100A9000421902A901A864DF064600BF304600B132
:100AA000CDE700BF21889DF808000844208000BFE2
:100AB00008F1010838884045B4DCB9F1000F0DD0C9
:100AC00021880398401C081A1FFA80FABAF1FF0F18
:100AD00001DD0C20B3E7039805F800A00020AEE785
:100AE0002DE9F04106460F46042E22D20FB1032015
:100AF00000E0002005463046FAF78AF9044600BFB8
:100B00004FF0A041084600F5E06151F8241021F4AF
:100B1000403200F5E06141F8242051F8241041EA08
:100B2000054200F5E06141F8242000BF0020BDE847
:100B3000F0810620FBE7014691F8F40070470000C1
:100B40000738FDD870470000050000000C000000C9
:100B500005000000070000000000000000E0D701D1
:100B60000D0E0F10302800200D000300D1AE010043
:100B70000E000300D1AE01000F000300D1AE010052
:100B800010000300D1AE0100770A00000000000051
:100B9000770A0000000000009ECADC240EE5A9E0F0
:100BA00093F3A3B50000406E000000506E726678AB
:100BB0005F6770696F74655F696E6974006E7266F5
:100BC000785F6770696F74655F6F75745F696E6970
:100BD00074006E7266785F6770696F74655F696EC6
:100BE0005F696E69740000006E7266785F7561728D
:100BF000745F696E6974000091E701006E72667837
:100C00005F756172745F7478006E7266785F75618B
:100C100072745F72780000006E7266785F75617240
:100C200074655F696E69740001EA01006E7266782E
:100C30005F75617274655F7478006E7266785F7557
:100C4000617274655F727800E02900200300000083
:100C5000682A0020000000007023002095B50100E4
:100C600001000600FFFFFFFFFFFFFFFFFFFFFFFF89
:100C7000FFFFFFFF00000000000000000000D601A1
:100C8000060100000000000000000000000000005D
:100C90000738FDD87047303132333435363738397C
:100CA00041424344454600000000000000000000AF
:100CB0000000000000000000000000000000000034
:100CC000A80C0200C00C020004000000556E6B6E00
:100CD0006F776E206572726F7220636F64650000BB
:100CE00000000000D8120200010000008411020080
:100CF00002000000780F020003000000F81102005B
:100D0000040000004C120200050000002C1102003B
:100D100006000000C81002000700000034120200A4
:100D2000080000004011020009000000A4110200A8
:100D30000A000000C01202000B000000600F020059
:100D40000C000000581102000D00000028130200E2
:100D50000E000000241202000F00000060120200CA
:100D60001000000094120200110000003C13020069
:100D7000120000001013020013000000AC12020069
:100D800080000000E0100200810000001C10020042
:100D900082000000DC0F020083000000BC0F020094
:100DA00084000000F80F020085000000041102001A
:100DB000860000000C12020090000000A810020043
:100DC000910000009C0F0200920000006C110200D4
:100DD000008200007412020001820000C0110200B3
:100DE00002820000DC1102000084000038100200C2
:100DF00001840000E412020002840000801002005E
:100E0000038400005C1002000000000000000000ED
:100E100081D301007FD3010075D3010000000000E1
:100E20000738FDD870470000B02B00207F0000007D
:100E3000302C002000000000000000000000000036
:100E400000000000340E0200440E02000800000002
:100E500048170200501702000000000000000000C8
:100E6000500E0200600E0200080000003817020059
:100E70004817020000000000000000006C0E020095
:100E80007C0E02000800000000100200F0160200B4
:100E9000F8160200F81602001817020018170200D0
:100EA0002817020028170200301702008C0E0200DB
:100EB000AC0E020008000000C8220020301702001B
:100EC000381702000000000000000000BC0E020005
:100ED000CC0E02000800000000404040404040406E
:100EE00040404141414141404040404040404040FD
:100EF00040404040404040404005020202020202A1
:100F000002020202020202020220202020202020EF
:100F10002020200202020202020290909090909003
:100F200010101010101010101010101010101010C1
:100F30001010101002020202020288888888888835
:100F40000808080808080808080808080808080821
:100F5000080808080202020240000000D90E020040
:100F60004E52465F4552524F525F494E56414C4990
:100F7000445F4441544100004E52465F4552524F37
:100F8000525F534F46544445564943455F4E4F5474
:100F90005F454E41424C4544000000004E52465FC2
:100FA0004552524F525F464541545552455F4E4F50
:100FB000545F454E41424C45440000004E52465F4E
:100FC0004552524F525F4D555445585F554E4C4F08
:100FD000434B5F4641494C45440000004E52465F3A
:100FE0004552524F525F4D555445585F4C4F434BFD
:100FF0005F4641494C4544004E52465F4552524F70
:10100000525F4D555445585F434F4E445F494E49DA
:10101000545F4641494C4544000000004E52465F33
:101020004552524F525F4D555445585F494E4954B1
:101030005F4641494C4544004E52465F4552524F2F
:10104000525F424C455F495053505F52585F504B7E
:10105000545F5452554E4341544544004E52465FEE
:101060004552524F525F424C455F495053505F507A
:101070004545525F52454A454354454400000000EF
:101080004E52465F4552524F525F424C455F495067
:1010900053505F4C494E4B5F444953434F4E4E456E
:1010A00043544544000000004E52465F4552524FA3
:1010B000525F4150495F4E4F545F494D504C454D32
:1010C000454E5445440000004E52465F4552524F33
:1010D000525F4E4F545F535550504F525445440049
:1010E0004E52465F4552524F525F4D4F44554C450C
:1010F0005F4E4F545F494E495449414C495A45440B
:10110000000000004E52465F4552524F525F4D4F15
:1011100044554C455F414C52454144595F494E4905
:101120005449414C495A4544000000004E52465F24
:101130004552524F525F4E4F545F464F554E4400FA
:101140004E52465F4552524F525F494E56414C49AE
:10115000445F5354415445004E52465F4552524FEE
:10116000525F444154415F53495A45004E52465FD5
:101170004552524F525F494F5F50454E44494E478A
:10118000000000004E52465F4552524F525F535688
:10119000435F48414E444C45525F4D495353494E7D
:1011A000470000004E52465F4552524F525F494E33
:1011B00056414C49445F4C454E475448000000009E
:1011C0004E52465F4552524F525F4452565F5457FB
:1011D000495F4552525F414E41434B004E52465F7C
:1011E0004552524F525F4452565F5457495F4552E1
:1011F000525F444E41434B004E52465F4552524F60
:10120000525F494E5445524E414C00004E52465F8B
:101210004552524F525F53544F524147455F4655D6
:101220004C4C00004E52465F4552524F525F4E5555
:101230004C4C00004E52465F4552524F525F494E51
:1012400056414C49445F504152414D004E52465F19
:101250004552524F525F4E4F5F4D454D00000000CA
:101260004E52465F4552524F525F464F524249449A
:1012700044454E004E52465F4552524F525F4452D3
:10128000565F5457495F4552525F4F56455252552B
:101290004E0000004E52465F4552524F525F494E3B
:1012A00056414C49445F4144445200004E52465F0F
:1012B0004552524F525F5245534F5552434553008A
:1012C0004E52465F4552524F525F494E56414C492D
:1012D000445F464C414753004E52465F535543438B
:1012E000455353004E52465F4552524F525F424C57
:1012F000455F495053505F4348414E4E454C5F4116
:101300004C52454144595F455849535453000000DD
:101310004E52465F4552524F525F434F4E4E5F43CF
:101320004F554E54000000004E52465F4552524FFA
:10133000525F54494D454F55540000004E52465F90
:101340004552524F525F4255535900007761726EB9
:10135000696E670064656275670000001B5B313B66
:1013600033306D001B5B306D000000001B5B313BB8
:1013700033316D001B5B313B33326D001B5B313B06
:1013800033336D001B5B313B33346D001B5B313BF2
:1013900033356D001B5B313B33366D001B5B313BDE
:1013A00033376D00696E666F000000006572726F02
:1013B0007200000073645F626C655F6366675F73F1
:1013C000657428292072657475726E6564202573B2
:1013D000207768656E20617474656D7074696E67DE
:1013E00020746F2073657420424C455F474154540C
:1013F000535F4346475F534552564943455F434811
:10140000414E4745442E000073645F626C655F6324
:1014100066675F73657428292072657475726E65DE
:1014200064202573207768656E20617474656D7023
:1014300074696E6720746F2073657420424C455F39
:10144000434F4D4D4F4E5F4346475F56535F555593
:1014500049442E0073645F626C655F6366675F7307
:10146000657428292072657475726E656420257311
:10147000207768656E20617474656D7074696E673D
:1014800020746F2073657420424C455F474154546B
:10149000535F4346475F415454525F5441425F5348
:1014A000495A452E0000000073645F626C655F63FB
:1014B00066675F73657428292072657475726E653E
:1014C00064202573207768656E20617474656D7083
:1014D00074696E6720746F2073657420424C455F99
:1014E000434F4E4E5F4346475F4741502E0000003A
:1014F00073645F626C655F6366675F7365742829F8
:101500002072657475726E65642025732077686536
:101510006E20617474656D7074696E6720746F20DD
:1015200073657420424C455F4741505F4346475FB7
:10153000524F4C455F434F554E542E0073645F62CB
:101540006C655F6366675F736574282920726574D4
:1015500075726E6564202573207768656E206174EE
:1015600074656D7074696E6720746F207365742084
:10157000424C455F434F4E4E5F4346475F474154A1
:10158000542E00006E72665F626C655F67617474F2
:1015900000000000626C655F6E757300636C6F63C2
:1015A0006B000000434C4F434B0000004750494F35
:1015B0005445000050525300554152540000000061
:1015C00055415254450000006170705F627574743B
:1015D0006F6E00006170705F74696D65720000006D
:1015E0007077725F6D676D7400000000736F7274C6
:1015F0006C697374000000007274745F6C6F675FD5
:101600006261636B656E6400617070006E72665F2C
:10161000736468006E72665F7364685F626C650015
:101620006E72665F7364685F736F630050170200C9
:10163000C82200205001000098940100A817020061
:1016400018240020D8160000049A0100100E020091
:1016500000000000F8150200B423002084150200E9
:101660000000030394150200000000009C15020016
:1016700000000000A415020000000000AC150200EC
:1016800000000000B415020000000000B8150200C0
:1016900000000000C015020000000000C815020094
:1016A00000000000D415020000000000E015020058
:1016B00000000000EC150200000000000816020007
:1016C000000003030C1602000000030314160200BE
:1016D000000003032016020000000303C4230020BF
:1016E000BC230020C4230020F02A002018000000A2
:1016F00039AB01000000000065CB01001824002078
:10170000D3A501003424002081AA010000000000BC
:10171000F9AA01000000000065AD0100D4220020FC
:10172000AFCC01002824002011A901000000000016
:1017300075FE01000000000091DF010000000000C4
:10174000C5E0010000000000D1F901000000000028
:101750004113C8221320010215041ACC1C4114FFA6
:10176000FF141201025A020D151001401184D1120A
:1017700020BA4008012F0A19FF1414AC13021A4CA6
:10178000041AA4041A54041A64041A5C041A6C049B
:101790001A74041A7C041A84041A8C041A94041A05
:0817A0009C04D1040090D00369
:040000050001920163
:00000001FF
