Component: ARM Compiler 5.06 update 6 (build 750) Tool: armlink [4d35ed]

==============================================================================

Section Cross References

    main.o(i.advertising_init) refers to memseta.o(.text) for __aeabi_memclr4
    main.o(i.advertising_init) refers to ble_advertising.o(i.ble_advertising_init) for ble_advertising_init
    main.o(i.advertising_init) refers to app_error.o(i.app_error_handler_bare) for app_error_handler_bare
    main.o(i.advertising_init) refers to ble_advertising.o(i.ble_advertising_conn_cfg_tag_set) for ble_advertising_conn_cfg_tag_set
    main.o(i.advertising_init) refers to main.o(.data) for m_adv_uuids
    main.o(i.advertising_init) refers to main.o(i.on_adv_evt) for on_adv_evt
    main.o(i.advertising_init) refers to main.o(.bss) for m_advertising
    main.o(i.advertising_start) refers to ble_advertising.o(i.ble_advertising_start) for ble_advertising_start
    main.o(i.advertising_start) refers to app_error.o(i.app_error_handler_bare) for app_error_handler_bare
    main.o(i.advertising_start) refers to main.o(.bss) for m_advertising
    main.o(i.assert_nrf_callback) refers to app_error_handler_keil.o(.emb_text) for app_error_handler
    main.o(i.ble_evt_handler) refers to nrf_log_frontend.o(i.nrf_log_frontend_std_0) for nrf_log_frontend_std_0
    main.o(i.ble_evt_handler) refers to bsp.o(i.bsp_indication_set) for bsp_indication_set
    main.o(i.ble_evt_handler) refers to app_error.o(i.app_error_handler_bare) for app_error_handler_bare
    main.o(i.ble_evt_handler) refers to nrf_ble_qwr.o(i.nrf_ble_qwr_conn_handle_assign) for nrf_ble_qwr_conn_handle_assign
    main.o(i.ble_evt_handler) refers to nrf_log_frontend.o(log_const_data) for m_nrf_log_app_logs_data_const
    main.o(i.ble_evt_handler) refers to main.o(.data) for m_conn_handle
    main.o(i.ble_evt_handler) refers to main.o(.bss) for m_qwr
==============================================================================

Removing Unused input sections from the image.

    Removing main.o(.rev16_text), (4 bytes).
    Removing main.o(.revsh_text), (4 bytes).
    Removing main.o(.rrx_text), (6 bytes).
    Removing main.o(i.assert_nrf_callback), (24 bytes).
    Removing boards.o(.rev16_text), (4 bytes).
    Removing boards.o(.revsh_text), (4 bytes).
    Removing boards.o(.rrx_text), (6 bytes).
    Removing boards.o(i.bsp_board_buttons_init), (76 bytes).
    Removing boards.o(i.bsp_board_init), (16 bytes).
    Removing bsp.o(.rev16_text), (4 bytes).
    Removing bsp.o(.revsh_text), (4 bytes).
    Removing bsp.o(.rrx_text), (6 bytes).
    Removing bsp.o(i.bsp_buttons_disable), (8 bytes).
    Removing bsp.o(i.bsp_buttons_enable), (8 bytes).
    Removing bsp.o(i.bsp_wakeup_button_disable), (14 bytes).
    Removing bsp_btn_ble.o(.rev16_text), (4 bytes).
    Removing bsp_btn_ble.o(.revsh_text), (4 bytes).
    Removing bsp_btn_ble.o(.rrx_text), (6 bytes).
==============================================================================

Image Symbol Table

    Local Symbols

    Symbol Name                              Value     Ov Type        Size  Object(Section)

    ../clib/../cmprslib/zerorunl2.c          0x00000000   Number         0  __dczerorl2.o ABSOLUTE
    ../clib/microlib/ctype/ctype.c           0x00000000   Number         0  isspace_o.o ABSOLUTE
    ../clib/microlib/ctype/ctype.c           0x00000000   Number         0  isalpha_o.o ABSOLUTE
    ../clib/microlib/ctype/ctype.c           0x00000000   Number         0  isupper_o.o ABSOLUTE
    ../clib/microlib/ctype/ctype.c           0x00000000   Number         0  isxdigit_o.o ABSOLUTE
    ../clib/microlib/ctype/ctype.c           0x00000000   Number         0  isalnum_o.o ABSOLUTE
    ../clib/microlib/ctype/ctype.c           0x00000000   Number         0  ctype_o.o ABSOLUTE
    ../clib/microlib/ctype/ctype.c           0x00000000   Number         0  isgraph_o.o ABSOLUTE
    ../clib/microlib/ctype/ctype.c           0x00000000   Number         0  isblank_o.o ABSOLUTE
    ../clib/microlib/ctype/ctype.c           0x00000000   Number         0  iscntrl_o.o ABSOLUTE
    ../clib/microlib/ctype/ctype.c           0x00000000   Number         0  isdigit_o.o ABSOLUTE
    ../clib/microlib/ctype/ctype.c           0x00000000   Number         0  islower_o.o ABSOLUTE
    ../clib/microlib/ctype/ctype.c           0x00000000   Number         0  isprint_o.o ABSOLUTE
    ../clib/microlib/ctype/ctype.c           0x00000000   Number         0  ispunct_o.o ABSOLUTE
    ../clib/microlib/division.c              0x00000000   Number         0  uldiv.o ABSOLUTE
    ../clib/microlib/division.c              0x00000000   Number         0  uidiv.o ABSOLUTE
    ../clib/microlib/init/entry.s            0x00000000   Number         0  entry5.o ABSOLUTE
    ../clib/microlib/init/entry.s            0x00000000   Number         0  entry11a.o ABSOLUTE
    ../clib/microlib/init/entry.s            0x00000000   Number         0  entry10b.o ABSOLUTE
    ../clib/microlib/init/entry.s            0x00000000   Number         0  entry10a.o ABSOLUTE
    ../clib/microlib/init/entry.s            0x00000000   Number         0  entry9b.o ABSOLUTE
    ../clib/microlib/init/entry.s            0x00000000   Number         0  entry9a.o ABSOLUTE
    ../clib/microlib/init/entry.s            0x00000000   Number         0  entry8b.o ABSOLUTE
    ../clib/microlib/init/entry.s            0x00000000   Number         0  entry8a.o ABSOLUTE
    ../clib/microlib/init/entry.s            0x00000000   Number         0  entry7b.o ABSOLUTE
    ../clib/microlib/init/entry.s            0x00000000   Number         0  entry7a.o ABSOLUTE
    ../clib/microlib/init/entry.s            0x00000000   Number         0  entry11b.o ABSOLUTE
    ../clib/microlib/init/entry.s            0x00000000   Number         0  entry.o ABSOLUTE
    ../clib/microlib/init/entry.s            0x00000000   Number         0  entry2.o ABSOLUTE
    ../clib/microlib/longlong.c              0x00000000   Number         0  llsshr.o ABSOLUTE
    ../clib/microlib/longlong.c              0x00000000   Number         0  llshl.o ABSOLUTE
    ../clib/microlib/longlong.c              0x00000000   Number         0  llushr.o ABSOLUTE
    ../clib/microlib/printf/printf.c         0x00000000   Number         0  printf4.o ABSOLUTE
    ../clib/microlib/printf/printf.c         0x00000000   Number         0  printf6.o ABSOLUTE
    ../clib/microlib/printf/printf.c         0x00000000   Number         0  printfb.o ABSOLUTE
    ../clib/microlib/printf/printf.c         0x00000000   Number         0  printf5.o ABSOLUTE
    ../clib/microlib/printf/printf.c         0x00000000   Number         0  printfa.o ABSOLUTE
    ../clib/microlib/printf/printf.c         0x00000000   Number         0  printf1.o ABSOLUTE
    ../clib/microlib/printf/printf.c         0x00000000   Number         0  printf7.o ABSOLUTE
    ../clib/microlib/printf/printf.c         0x00000000   Number         0  printf0.o ABSOLUTE
    ../clib/microlib/printf/printf.c         0x00000000   Number         0  printf8.o ABSOLUTE
    ../clib/microlib/printf/printf.c         0x00000000   Number         0  printf3.o ABSOLUTE
    ../clib/microlib/printf/printf.c         0x00000000   Number         0  printf2.o ABSOLUTE
    ../clib/microlib/string/memcmp.c         0x00000000   Number         0  memcmp.o ABSOLUTE
    ../clib/microlib/string/memcpy.c         0x00000000   Number         0  memcpya.o ABSOLUTE
    ../clib/microlib/string/memcpy.c         0x00000000   Number         0  memcpyb.o ABSOLUTE
    ../clib/microlib/string/memset.c         0x00000000   Number         0  memseta.o ABSOLUTE
    ../clib/microlib/string/strcpy.c         0x00000000   Number         0  strcpy.o ABSOLUTE
    ../clib/microlib/string/strlen.c         0x00000000   Number         0  strlen.o ABSOLUTE
    ../clib/microlib/stubs.s                 0x00000000   Number         0  iusefp.o ABSOLUTE
    ../fplib/microlib/fpadd.c                0x00000000   Number         0  dadd.o ABSOLUTE
    ../fplib/microlib/fpdiv.c                0x00000000   Number         0  ddiv.o ABSOLUTE
    ../fplib/microlib/fpepilogue.c           0x00000000   Number         0  depilogue.o ABSOLUTE
    ../fplib/microlib/fpfix.c                0x00000000   Number         0  dfixul.o ABSOLUTE
    ../fplib/microlib/fpmul.c                0x00000000   Number         0  dmul.o ABSOLUTE
    ..\..\..\..\..\..\components\ble\ble_advertising\ble_advertising.c 0x00000000   Number         0  ble_advertising.o ABSOLUTE
    ..\..\..\..\..\..\components\ble\ble_link_ctx_manager\ble_link_ctx_manager.c 0x00000000   Number         0  ble_link_ctx_manager.o ABSOLUTE
    ..\..\..\..\..\..\components\ble\ble_services\ble_nus\ble_nus.c 0x00000000   Number         0  ble_nus.o ABSOLUTE
    ..\..\..\..\..\..\components\ble\common\ble_advdata.c 0x00000000   Number         0  ble_advdata.o ABSOLUTE
    ..\..\..\..\..\..\components\ble\common\ble_conn_params.c 0x00000000   Number         0  ble_conn_params.o ABSOLUTE
    ..\..\..\..\..\..\components\ble\common\ble_conn_state.c 0x00000000   Number         0  ble_conn_state.o ABSOLUTE
    ..\..\..\..\..\..\components\ble\common\ble_srv_common.c 0x00000000   Number         0  ble_srv_common.o ABSOLUTE
    ..\..\..\..\..\..\components\ble\nrf_ble_gatt\nrf_ble_gatt.c 0x00000000   Number         0  nrf_ble_gatt.o ABSOLUTE
    ..\..\..\..\..\..\components\ble\nrf_ble_qwr\nrf_ble_qwr.c 0x00000000   Number         0  nrf_ble_qwr.o ABSOLUTE
    ..\..\..\..\..\..\components\boards\boards.c 0x00000000   Number         0  boards.o ABSOLUTE
    ..\..\..\..\..\..\components\libraries\atomic\nrf_atomic.c 0x00000000   Number         0  nrf_atomic.o ABSOLUTE
    ..\..\..\..\..\..\components\libraries\atomic_fifo\nrf_atfifo.c 0x00000000   Number         0  nrf_atfifo.o ABSOLUTE
    ..\..\..\..\..\..\components\libraries\atomic_flags\nrf_atflags.c 0x00000000   Number         0  nrf_atflags.o ABSOLUTE
    ..\..\..\..\..\..\components\libraries\balloc\nrf_balloc.c 0x00000000   Number         0  nrf_balloc.o ABSOLUTE
    ..\..\..\..\..\..\components\libraries\bsp\bsp.c 0x00000000   Number         0  bsp.o ABSOLUTE
    ..\..\..\..\..\..\components\libraries\bsp\bsp_btn_ble.c 0x00000000   Number         0  bsp_btn_ble.o ABSOLUTE
    ..\..\..\..\..\..\components\libraries\button\app_button.c 0x00000000   Number         0  app_button.o ABSOLUTE
    ..\..\..\..\..\..\components\libraries\experimental_section_vars\nrf_section_iter.c 0x00000000   Number         0  nrf_section_iter.o ABSOLUTE
    ..\..\..\..\..\..\components\libraries\fifo\app_fifo.c 0x00000000   Number         0  app_fifo.o ABSOLUTE
    ..\..\..\..\..\..\components\libraries\hardfault\hardfault_implementation.c 0x00000000   Number         0  hardfault_implementation.o ABSOLUTE
    ..\..\..\..\..\..\components\libraries\log\src\nrf_log_backend_rtt.c 0x00000000   Number         0  nrf_log_backend_rtt.o ABSOLUTE
    ..\..\..\..\..\..\components\libraries\log\src\nrf_log_backend_serial.c 0x00000000   Number         0  nrf_log_backend_serial.o ABSOLUTE
    ..\..\..\..\..\..\components\libraries\log\src\nrf_log_backend_uart.c 0x00000000   Number         0  nrf_log_backend_uart.o ABSOLUTE
    ..\..\..\..\..\..\components\libraries\log\src\nrf_log_default_backends.c 0x00000000   Number         0  nrf_log_default_backends.o ABSOLUTE
    ..\..\..\..\..\..\components\libraries\log\src\nrf_log_frontend.c 0x00000000   Number         0  nrf_log_frontend.o ABSOLUTE
    ..\..\..\..\..\..\components\libraries\log\src\nrf_log_str_formatter.c 0x00000000   Number         0  nrf_log_str_formatter.o ABSOLUTE
    ..\..\..\..\..\..\components\libraries\memobj\nrf_memobj.c 0x00000000   Number         0  nrf_memobj.o ABSOLUTE
    ..\..\..\..\..\..\components\libraries\pwr_mgmt\nrf_pwr_mgmt.c 0x00000000   Number         0  nrf_pwr_mgmt.o ABSOLUTE
    ..\..\..\..\..\..\components\libraries\ringbuf\nrf_ringbuf.c 0x00000000   Number         0  nrf_ringbuf.o ABSOLUTE
    ..\..\..\..\..\..\components\libraries\scheduler\app_scheduler.c 0x00000000   Number         0  app_scheduler.o ABSOLUTE
    ..\..\..\..\..\..\components\libraries\sortlist\nrf_sortlist.c 0x00000000   Number         0  nrf_sortlist.o ABSOLUTE
    ..\..\..\..\..\..\components\libraries\strerror\nrf_strerror.c 0x00000000   Number         0  nrf_strerror.o ABSOLUTE
    ..\..\..\..\..\..\components\libraries\timer\app_timer2.c 0x00000000   Number         0  app_timer2.o ABSOLUTE
    ..\..\..\..\..\..\components\libraries\timer\drv_rtc.c 0x00000000   Number         0  drv_rtc.o ABSOLUTE
    ..\..\..\..\..\..\components\libraries\uart\app_uart_fifo.c 0x00000000   Number         0  app_uart_fifo.o ABSOLUTE
    ..\..\..\..\..\..\components\libraries\uart\retarget.c 0x00000000   Number         0  retarget.o ABSOLUTE
    ..\..\..\..\..\..\components\libraries\util\app_error.c 0x00000000   Number         0  app_error.o ABSOLUTE
    ..\..\..\..\..\..\components\libraries\util\app_error_handler_keil.c 0x00000000   Number         0  app_error_handler_keil.o ABSOLUTE
    ..\..\..\..\..\..\components\libraries\util\app_error_weak.c 0x00000000   Number         0  app_error_weak.o ABSOLUTE
    ..\..\..\..\..\..\components\libraries\util\app_util_platform.c 0x00000000   Number         0  app_util_platform.o ABSOLUTE
    ..\..\..\..\..\..\components\libraries\util\nrf_assert.c 0x00000000   Number         0  nrf_assert.o ABSOLUTE
    ..\..\..\..\..\..\components\softdevice\common\nrf_sdh.c 0x00000000   Number         0  nrf_sdh.o ABSOLUTE
    ..\..\..\..\..\..\components\softdevice\common\nrf_sdh_ble.c 0x00000000   Number         0  nrf_sdh_ble.o ABSOLUTE
    ..\..\..\..\..\..\components\softdevice\common\nrf_sdh_soc.c 0x00000000   Number         0  nrf_sdh_soc.o ABSOLUTE
    ..\..\..\..\..\..\external\fprintf\nrf_fprintf.c 0x00000000   Number         0  nrf_fprintf.o ABSOLUTE
    ..\..\..\..\..\..\external\fprintf\nrf_fprintf_format.c 0x00000000   Number         0  nrf_fprintf_format.o ABSOLUTE
    ..\..\..\..\..\..\external\segger_rtt\SEGGER_RTT.c 0x00000000   Number         0  segger_rtt.o ABSOLUTE
    ..\..\..\..\..\..\external\segger_rtt\SEGGER_RTT_Syscalls_KEIL.c 0x00000000   Number         0  segger_rtt_syscalls_keil.o ABSOLUTE
    ..\..\..\..\..\..\external\segger_rtt\SEGGER_RTT_printf.c 0x00000000   Number         0  segger_rtt_printf.o ABSOLUTE
    ..\..\..\..\..\..\external\utf_converter\utf.c 0x00000000   Number         0  utf.o ABSOLUTE
    ..\..\..\..\..\..\integration\nrfx\legacy\nrf_drv_clock.c 0x00000000   Number         0  nrf_drv_clock.o ABSOLUTE
    ..\..\..\..\..\..\integration\nrfx\legacy\nrf_drv_uart.c 0x00000000   Number         0  nrf_drv_uart.o ABSOLUTE
    ..\..\..\..\..\..\modules\nrfx\drivers\src\nrfx_clock.c 0x00000000   Number         0  nrfx_clock.o ABSOLUTE
    ..\..\..\..\..\..\modules\nrfx\drivers\src\nrfx_gpiote.c 0x00000000   Number         0  nrfx_gpiote.o ABSOLUTE
    ..\..\..\..\..\..\modules\nrfx\drivers\src\nrfx_uart.c 0x00000000   Number         0  nrfx_uart.o ABSOLUTE
    ..\..\..\..\..\..\modules\nrfx\drivers\src\nrfx_uarte.c 0x00000000   Number         0  nrfx_uarte.o ABSOLUTE
    ..\..\..\..\..\..\modules\nrfx\drivers\src\prs\nrfx_prs.c 0x00000000   Number         0  nrfx_prs.o ABSOLUTE
    ..\..\..\..\..\..\modules\nrfx\soc\nrfx_atomic.c 0x00000000   Number         0  nrfx_atomic.o ABSOLUTE
    ..\..\..\main.c                          0x00000000   Number         0  main.o ABSOLUTE
    ..\\..\\..\\..\\..\\..\\components\\ble\\ble_advertising\\ble_advertising.c 0x00000000   Number         0  ble_advertising.o ABSOLUTE
    ..\\..\\..\\..\\..\\..\\components\\ble\\ble_link_ctx_manager\\ble_link_ctx_manager.c 0x00000000   Number         0  ble_link_ctx_manager.o ABSOLUTE
    ..\\..\\..\\..\\..\\..\\components\\ble\\ble_services\\ble_nus\\ble_nus.c 0x00000000   Number         0  ble_nus.o ABSOLUTE
    ..\\..\\..\\..\\..\\..\\components\\ble\\common\\ble_advdata.c 0x00000000   Number         0  ble_advdata.o ABSOLUTE
    ..\\..\\..\\..\\..\\..\\components\\ble\\common\\ble_conn_params.c 0x00000000   Number         0  ble_conn_params.o ABSOLUTE
    ..\\..\\..\\..\\..\\..\\components\\ble\\common\\ble_conn_state.c 0x00000000   Number         0  ble_conn_state.o ABSOLUTE
    ..\\..\\..\\..\\..\\..\\components\\ble\\common\\ble_srv_common.c 0x00000000   Number         0  ble_srv_common.o ABSOLUTE
    ..\\..\\..\\..\\..\\..\\components\\ble\\nrf_ble_gatt\\nrf_ble_gatt.c 0x00000000   Number         0  nrf_ble_gatt.o ABSOLUTE
    ..\\..\\..\\..\\..\\..\\components\\ble\\nrf_ble_qwr\\nrf_ble_qwr.c 0x00000000   Number         0  nrf_ble_qwr.o ABSOLUTE
    ..\\..\\..\\..\\..\\..\\components\\boards\\boards.c 0x00000000   Number         0  boards.o ABSOLUTE
    ..\\..\\..\\..\\..\\..\\components\\libraries\\atomic\\nrf_atomic.c 0x00000000   Number         0  nrf_atomic.o ABSOLUTE
    ..\\..\\..\\..\\..\\..\\components\\libraries\\atomic_fifo\\nrf_atfifo.c 0x00000000   Number         0  nrf_atfifo.o ABSOLUTE
    ..\\..\\..\\..\\..\\..\\components\\libraries\\atomic_flags\\nrf_atflags.c 0x00000000   Number         0  nrf_atflags.o ABSOLUTE
    ..\\..\\..\\..\\..\\..\\components\\libraries\\balloc\\nrf_balloc.c 0x00000000   Number         0  nrf_balloc.o ABSOLUTE
    ..\\..\\..\\..\\..\\..\\components\\libraries\\bsp\\bsp.c 0x00000000   Number         0  bsp.o ABSOLUTE
    ..\\..\\..\\..\\..\\..\\components\\libraries\\bsp\\bsp_btn_ble.c 0x00000000   Number         0  bsp_btn_ble.o ABSOLUTE
    ..\\..\\..\\..\\..\\..\\components\\libraries\\button\\app_button.c 0x00000000   Number         0  app_button.o ABSOLUTE
    ..\\..\\..\\..\\..\\..\\components\\libraries\\experimental_section_vars\\nrf_section_iter.c 0x00000000   Number         0  nrf_section_iter.o ABSOLUTE
    ..\\..\\..\\..\\..\\..\\components\\libraries\\fifo\\app_fifo.c 0x00000000   Number         0  app_fifo.o ABSOLUTE
    ..\\..\\..\\..\\..\\..\\components\\libraries\\hardfault\\hardfault_implementation.c 0x00000000   Number         0  hardfault_implementation.o ABSOLUTE
    ..\\..\\..\\..\\..\\..\\components\\libraries\\log\\src\\nrf_log_backend_rtt.c 0x00000000   Number         0  nrf_log_backend_rtt.o ABSOLUTE
    ..\\..\\..\\..\\..\\..\\components\\libraries\\log\\src\\nrf_log_backend_serial.c 0x00000000   Number         0  nrf_log_backend_serial.o ABSOLUTE
    ..\\..\\..\\..\\..\\..\\components\\libraries\\log\\src\\nrf_log_backend_uart.c 0x00000000   Number         0  nrf_log_backend_uart.o ABSOLUTE
    ..\\..\\..\\..\\..\\..\\components\\libraries\\log\\src\\nrf_log_default_backends.c 0x00000000   Number         0  nrf_log_default_backends.o ABSOLUTE
    ..\\..\\..\\..\\..\\..\\components\\libraries\\log\\src\\nrf_log_frontend.c 0x00000000   Number         0  nrf_log_frontend.o ABSOLUTE
    ..\\..\\..\\..\\..\\..\\components\\libraries\\log\\src\\nrf_log_str_formatter.c 0x00000000   Number         0  nrf_log_str_formatter.o ABSOLUTE
    ..\\..\\..\\..\\..\\..\\components\\libraries\\memobj\\nrf_memobj.c 0x00000000   Number         0  nrf_memobj.o ABSOLUTE
    ..\\..\\..\\..\\..\\..\\components\\libraries\\pwr_mgmt\\nrf_pwr_mgmt.c 0x00000000   Number         0  nrf_pwr_mgmt.o ABSOLUTE
    ..\\..\\..\\..\\..\\..\\components\\libraries\\ringbuf\\nrf_ringbuf.c 0x00000000   Number         0  nrf_ringbuf.o ABSOLUTE
    ..\\..\\..\\..\\..\\..\\components\\libraries\\scheduler\\app_scheduler.c 0x00000000   Number         0  app_scheduler.o ABSOLUTE
    ..\\..\\..\\..\\..\\..\\components\\libraries\\sortlist\\nrf_sortlist.c 0x00000000   Number         0  nrf_sortlist.o ABSOLUTE
    ..\\..\\..\\..\\..\\..\\components\\libraries\\strerror\\nrf_strerror.c 0x00000000   Number         0  nrf_strerror.o ABSOLUTE
    ..\\..\\..\\..\\..\\..\\components\\libraries\\timer\\app_timer2.c 0x00000000   Number         0  app_timer2.o ABSOLUTE
    ..\\..\\..\\..\\..\\..\\components\\libraries\\timer\\drv_rtc.c 0x00000000   Number         0  drv_rtc.o ABSOLUTE
    ..\\..\\..\\..\\..\\..\\components\\libraries\\uart\\app_uart_fifo.c 0x00000000   Number         0  app_uart_fifo.o ABSOLUTE
    ..\\..\\..\\..\\..\\..\\components\\libraries\\uart\\retarget.c 0x00000000   Number         0  retarget.o ABSOLUTE
    ..\\..\\..\\..\\..\\..\\components\\libraries\\util\\app_error.c 0x00000000   Number         0  app_error.o ABSOLUTE
    ..\\..\\..\\..\\..\\..\\components\\libraries\\util\\app_error_handler_keil.c 0x00000000   Number         0  app_error_handler_keil.o ABSOLUTE
    ..\\..\\..\\..\\..\\..\\components\\libraries\\util\\app_error_weak.c 0x00000000   Number         0  app_error_weak.o ABSOLUTE
    ..\\..\\..\\..\\..\\..\\components\\libraries\\util\\app_util_platform.c 0x00000000   Number         0  app_util_platform.o ABSOLUTE
    ..\\..\\..\\..\\..\\..\\components\\libraries\\util\\nrf_assert.c 0x00000000   Number         0  nrf_assert.o ABSOLUTE
    ..\\..\\..\\..\\..\\..\\components\\softdevice\\common\\nrf_sdh.c 0x00000000   Number         0  nrf_sdh.o ABSOLUTE
    ..\\..\\..\\..\\..\\..\\components\\softdevice\\common\\nrf_sdh_ble.c 0x00000000   Number         0  nrf_sdh_ble.o ABSOLUTE
    ..\\..\\..\\..\\..\\..\\components\\softdevice\\common\\nrf_sdh_soc.c 0x00000000   Number         0  nrf_sdh_soc.o ABSOLUTE
    ..\\..\\..\\..\\..\\..\\external\\fprintf\\nrf_fprintf.c 0x00000000   Number         0  nrf_fprintf.o ABSOLUTE
    ..\\..\\..\\..\\..\\..\\external\\fprintf\\nrf_fprintf_format.c 0x00000000   Number         0  nrf_fprintf_format.o ABSOLUTE
    ..\\..\\..\\..\\..\\..\\external\\segger_rtt\\SEGGER_RTT.c 0x00000000   Number         0  segger_rtt.o ABSOLUTE
    ..\\..\\..\\..\\..\\..\\external\\segger_rtt\\SEGGER_RTT_printf.c 0x00000000   Number         0  segger_rtt_printf.o ABSOLUTE
    ..\\..\\..\\..\\..\\..\\integration\\nrfx\\legacy\\nrf_drv_clock.c 0x00000000   Number         0  nrf_drv_clock.o ABSOLUTE
    ..\\..\\..\\..\\..\\..\\integration\\nrfx\\legacy\\nrf_drv_uart.c 0x00000000   Number         0  nrf_drv_uart.o ABSOLUTE
    ..\\..\\..\\..\\..\\..\\modules\\nrfx\\drivers\\src\\nrfx_clock.c 0x00000000   Number         0  nrfx_clock.o ABSOLUTE
    ..\\..\\..\\..\\..\\..\\modules\\nrfx\\drivers\\src\\nrfx_gpiote.c 0x00000000   Number         0  nrfx_gpiote.o ABSOLUTE
    ..\\..\\..\\..\\..\\..\\modules\\nrfx\\drivers\\src\\nrfx_uart.c 0x00000000   Number         0  nrfx_uart.o ABSOLUTE
    ..\\..\\..\\..\\..\\..\\modules\\nrfx\\drivers\\src\\nrfx_uarte.c 0x00000000   Number         0  nrfx_uarte.o ABSOLUTE
    ..\\..\\..\\..\\..\\..\\modules\\nrfx\\drivers\\src\\prs\\nrfx_prs.c 0x00000000   Number         0  nrfx_prs.o ABSOLUTE
    ..\\..\\..\\..\\..\\..\\modules\\nrfx\\soc\\nrfx_atomic.c 0x00000000   Number         0  nrfx_atomic.o ABSOLUTE
    ..\\..\\..\\main.c                       0x00000000   Number         0  main.o ABSOLUTE
    RTE\Device\nRF52805_xxAA\arm_startup_nrf52805.s 0x00000000   Number         0  arm_startup_nrf52805.o ABSOLUTE
    RTE\Device\nRF52805_xxAA\system_nrf52805.c 0x00000000   Number         0  system_nrf52805.o ABSOLUTE
    RTE\\Device\\nRF52805_xxAA\\system_nrf52805.c 0x00000000   Number         0  system_nrf52805.o ABSOLUTE
    cdrcmple.s                               0x00000000   Number         0  cdrcmple.o ABSOLUTE
    dc.s                                     0x00000000   Number         0  dc.o ABSOLUTE
    handlers.s                               0x00000000   Number         0  handlers.o ABSOLUTE
    init.s                                   0x00000000   Number         0  init.o ABSOLUTE
    RESET                                    0x00019000   Section      512  arm_startup_nrf52805.o(RESET)
    .ARM.Collect$$$$00000000                 0x00019200   Section        0  entry.o(.ARM.Collect$$$$00000000)
    .ARM.Collect$$$$00000001                 0x00019200   Section        4  entry2.o(.ARM.Collect$$$$00000001)
    .ARM.Collect$$$$00000004                 0x00019204   Section        4  entry5.o(.ARM.Collect$$$$00000004)
    .ARM.Collect$$$$00000008                 0x00019208   Section        0  entry7b.o(.ARM.Collect$$$$00000008)
    .ARM.Collect$$$$0000000A                 0x00019208   Section        0  entry8b.o(.ARM.Collect$$$$0000000A)
    .ARM.Collect$$$$0000000B                 0x00019208   Section        8  entry9a.o(.ARM.Collect$$$$0000000B)
    .ARM.Collect$$$$0000000D                 0x00019210   Section        0  entry10a.o(.ARM.Collect$$$$0000000D)
    .ARM.Collect$$$$0000000F                 0x00019210   Section        0  entry11a.o(.ARM.Collect$$$$0000000F)
    .ARM.Collect$$$$00002712                 0x00019210   Section        4  entry2.o(.ARM.Collect$$$$00002712)
    __lit__00000000                          0x00019210   Data           4  entry2.o(.ARM.Collect$$$$00002712)
    .emb_text                                0x00019214   Section      200  nrf_atfifo.o(.emb_text)
    .emb_text                                0x000192dc   Section      226  nrf_atomic.o(.emb_text)
    .text                                    0x000193c0   Section       36  arm_startup_nrf52805.o(.text)
    .text                                    0x000193e4   Section        0  llshl.o(.text)
    .text                                    0x00019404   Section        0  ctype_o.o(.text)
    .text                                    0x0001940c   Section        0  memcpya.o(.text)
    .text                                    0x00019430   Section        0  memseta.o(.text)
    .text                                    0x00019454   Section        0  strlen.o(.text)
    .text                                    0x00019462   Section        0  strcpy.o(.text)
    .text                                    0x00019474   Section       36  init.o(.text)
    .text                                    0x00019498   Section        0  __dczerorl2.o(.text)
    i.GPIOTE_IRQHandler                      0x000194f0   Section        0  nrfx_gpiote.o(i.GPIOTE_IRQHandler)
    i.POWER_CLOCK_IRQHandler                 0x000195ac   Section        0  nrfx_clock.o(i.POWER_CLOCK_IRQHandler)
    i.RTC1_IRQHandler                        0x000195f4   Section        0  drv_rtc.o(i.RTC1_IRQHandler)
    i.SEGGER_RTT_Init                        0x0001960c   Section        0  segger_rtt.o(i.SEGGER_RTT_Init)
    i.SEGGER_RTT_WriteNoLock                 0x00019614   Section        0  segger_rtt.o(i.SEGGER_RTT_WriteNoLock)
    i.SWI2_IRQHandler                        0x00019698   Section        0  nrf_sdh.o(i.SWI2_IRQHandler)
    i.SystemCoreClockUpdate                  0x000196a0   Section        0  system_nrf52805.o(i.SystemCoreClockUpdate)
    i.SystemInit                             0x000196b0   Section        0  system_nrf52805.o(i.SystemInit)
    i.UARTE0_UART0_IRQHandler                0x00019888   Section        0  nrfx_prs.o(i.UARTE0_UART0_IRQHandler)
    i._DoInit                                0x00019898   Section        0  segger_rtt.o(i._DoInit)
    _DoInit                                  0x00019899   Thumb Code    74  segger_rtt.o(i._DoInit)
    i._GetAvailWriteSpace                    0x00019908   Section        0  segger_rtt.o(i._GetAvailWriteSpace)
    _GetAvailWriteSpace                      0x00019909   Thumb Code    28  segger_rtt.o(i._GetAvailWriteSpace)
    i._WriteBlocking                         0x00019924   Section        0  segger_rtt.o(i._WriteBlocking)
    _WriteBlocking                           0x00019925   Thumb Code   114  segger_rtt.o(i._WriteBlocking)
    i._WriteNoCheck                          0x00019996   Section        0  segger_rtt.o(i._WriteNoCheck)
    _WriteNoCheck                            0x00019997   Thumb Code    76  segger_rtt.o(i._WriteNoCheck)
    i.__0printf$bare                         0x000199e4   Section        0  printfb.o(i.__0printf$bare)
    i.__scatterload_copy                     0x000199f4   Section       14  handlers.o(i.__scatterload_copy)
    i.__scatterload_null                     0x00019a02   Section        2  handlers.o(i.__scatterload_null)
    i.__scatterload_zeroinit                 0x00019a04   Section       14  handlers.o(i.__scatterload_zeroinit)
    i.__sd_nvic_app_accessible_irq           0x00019a14   Section        0  nrf_sdh.o(i.__sd_nvic_app_accessible_irq)
    __sd_nvic_app_accessible_irq             0x00019a15   Thumb Code    52  nrf_sdh.o(i.__sd_nvic_app_accessible_irq)
    i.__sd_nvic_irq_disable                  0x00019a4c   Section        0  app_util_platform.o(i.__sd_nvic_irq_disable)
    __sd_nvic_irq_disable                    0x00019a4d   Thumb Code    12  app_util_platform.o(i.__sd_nvic_irq_disable)
    i._printf_core                           0x00019a58   Section        0  printfb.o(i._printf_core)
    _printf_core                             0x00019a59   Thumb Code    34  printfb.o(i._printf_core)
    i.addr_is_valid                          0x00019a7a   Section        0  ble_advertising.o(i.addr_is_valid)
    addr_is_valid                            0x00019a7b   Thumb Code    24  ble_advertising.o(i.addr_is_valid)
    i.adv_mode_next_avail_get                0x00019a92   Section        0  ble_advertising.o(i.adv_mode_next_avail_get)
    adv_mode_next_avail_get                  0x00019a93   Thumb Code    88  ble_advertising.o(i.adv_mode_next_avail_get)
    i.adv_mode_next_get                      0x00019aea   Section        0  ble_advertising.o(i.adv_mode_next_get)
    adv_mode_next_get                        0x00019aeb   Thumb Code    18  ble_advertising.o(i.adv_mode_next_get)
    i.adv_set_data_size_max_get              0x00019afc   Section        0  ble_advertising.o(i.adv_set_data_size_max_get)
    adv_set_data_size_max_get                0x00019afd   Thumb Code    18  ble_advertising.o(i.adv_set_data_size_max_get)
    i.advertising_buttons_configure          0x00019b0e   Section        0  bsp_btn_ble.o(i.advertising_buttons_configure)
    advertising_buttons_configure            0x00019b0f   Thumb Code    84  bsp_btn_ble.o(i.advertising_buttons_configure)
    i.advertising_init                       0x00019b64   Section        0  main.o(i.advertising_init)
    advertising_init                         0x00019b65   Thumb Code   100  main.o(i.advertising_init)
    i.advertising_start                      0x00019bd4   Section        0  main.o(i.advertising_start)
    advertising_start                        0x00019bd5   Thumb Code    32  main.o(i.advertising_start)
    i.app_button_enable                      0x00019bf8   Section        0  app_button.o(i.app_button_enable)
    i.app_button_init                        0x00019c24   Section        0  app_button.o(i.app_button_init)
    i.app_error_fault_handler                0x00019cd4   Section        0  app_error_weak.o(i.app_error_fault_handler)
    i.app_error_handler_bare                 0x00019d90   Section        0  app_error.o(i.app_error_handler_bare)
    i.app_fifo_get                           0x00019dac   Section        0  app_fifo.o(i.app_fifo_get)
    i.app_fifo_init                          0x00019dca   Section        0  app_fifo.o(i.app_fifo_init)
    i.app_fifo_put                           0x00019dee   Section        0  app_fifo.o(i.app_fifo_put)
    i.app_timer_cnt_get                      0x00019e10   Section        0  app_timer2.o(i.app_timer_cnt_get)
    i.app_timer_create                       0x00019e20   Section        0  app_timer2.o(i.app_timer_create)
    i.app_timer_init                         0x00019e40   Section        0  app_timer2.o(i.app_timer_init)
    i.app_timer_start                        0x00019eac   Section        0  app_timer2.o(i.app_timer_start)
    i.app_timer_stop                         0x00019ee2   Section        0  app_timer2.o(i.app_timer_stop)
    i.app_uart_get                           0x00019ef8   Section        0  app_uart_fifo.o(i.app_uart_get)
    i.app_uart_init                          0x00019f4c   Section        0  app_uart_fifo.o(i.app_uart_init)
    i.app_uart_put                           0x0001a028   Section        0  app_uart_fifo.o(i.app_uart_put)
    i.app_util_critical_region_enter         0x0001a094   Section        0  app_util_platform.o(i.app_util_critical_region_enter)
    i.app_util_critical_region_exit          0x0001a0a0   Section        0  app_util_platform.o(i.app_util_critical_region_exit)
    i.appearance_encode                      0x0001a0e8   Section        0  ble_advdata.o(i.appearance_encode)
    appearance_encode                        0x0001a0e9   Thumb Code    82  ble_advdata.o(i.appearance_encode)
    i.apply_config                           0x0001a13a   Section        0  nrfx_uart.o(i.apply_config)
    apply_config                             0x0001a13b   Thumb Code   124  nrfx_uart.o(i.apply_config)
    i.apply_config                           0x0001a1b6   Section        0  nrfx_uarte.o(i.apply_config)
    apply_config                             0x0001a1b7   Thumb Code   124  nrfx_uarte.o(i.apply_config)
    i.backend_id_assign                      0x0001a234   Section        0  nrf_log_frontend.o(i.backend_id_assign)
    backend_id_assign                        0x0001a235   Thumb Code    56  nrf_log_frontend.o(i.backend_id_assign)
    i.blcm_link_ctx_get                      0x0001a270   Section        0  ble_link_ctx_manager.o(i.blcm_link_ctx_get)
    i.ble_advdata_encode                     0x0001a2dc   Section        0  ble_advdata.o(i.ble_advdata_encode)
    i.ble_advdata_parse                      0x0001a448   Section        0  ble_advdata.o(i.ble_advdata_parse)
    i.ble_advdata_search                     0x0001a470   Section        0  ble_advdata.o(i.ble_advdata_search)
    i.ble_advertising_conn_cfg_tag_set       0x0001a4cc   Section        0  ble_advertising.o(i.ble_advertising_conn_cfg_tag_set)
    i.ble_advertising_init                   0x0001a4d2   Section        0  ble_advertising.o(i.ble_advertising_init)
    i.ble_advertising_on_ble_evt             0x0001a5d2   Section        0  ble_advertising.o(i.ble_advertising_on_ble_evt)
    i.ble_advertising_restart_without_whitelist 0x0001a60e   Section        0  ble_advertising.o(i.ble_advertising_restart_without_whitelist)
    i.ble_advertising_start                  0x0001a658   Section        0  ble_advertising.o(i.ble_advertising_start)
    i.ble_conn_params_init                   0x0001a7cc   Section        0  ble_conn_params.o(i.ble_conn_params_init)
    i.ble_conn_state_conn_idx                0x0001a868   Section        0  ble_conn_state.o(i.ble_conn_state_conn_idx)
    i.ble_conn_state_valid                   0x0001a87c   Section        0  ble_conn_state.o(i.ble_conn_state_valid)
    i.ble_device_addr_encode                 0x0001a898   Section        0  ble_advdata.o(i.ble_device_addr_encode)
    ble_device_addr_encode                   0x0001a899   Thumb Code   118  ble_advdata.o(i.ble_device_addr_encode)
    i.ble_evt_handler                        0x0001a910   Section        0  main.o(i.ble_evt_handler)
    ble_evt_handler                          0x0001a911   Thumb Code   322  main.o(i.ble_evt_handler)
    i.ble_evt_handler                        0x0001aa80   Section        0  bsp_btn_ble.o(i.ble_evt_handler)
    ble_evt_handler                          0x0001aa81   Thumb Code   112  bsp_btn_ble.o(i.ble_evt_handler)
    i.ble_evt_handler                        0x0001aaf8   Section        0  ble_conn_params.o(i.ble_evt_handler)
    ble_evt_handler                          0x0001aaf9   Thumb Code    64  ble_conn_params.o(i.ble_evt_handler)
    i.ble_evt_handler                        0x0001ab38   Section        0  ble_conn_state.o(i.ble_evt_handler)
    ble_evt_handler                          0x0001ab39   Thumb Code   162  ble_conn_state.o(i.ble_evt_handler)
    i.ble_nus_data_send                      0x0001abe0   Section        0  ble_nus.o(i.ble_nus_data_send)
    i.ble_nus_init                           0x0001ac5c   Section        0  ble_nus.o(i.ble_nus_init)
    i.ble_nus_on_ble_evt                     0x0001ad64   Section        0  ble_nus.o(i.ble_nus_on_ble_evt)
    i.ble_srv_is_notification_enabled        0x0001ada8   Section        0  ble_srv_common.o(i.ble_srv_is_notification_enabled)
    i.ble_stack_init                         0x0001adba   Section        0  main.o(i.ble_stack_init)
    ble_stack_init                           0x0001adbb   Thumb Code    86  main.o(i.ble_stack_init)
    i.bsp_board_button_idx_to_pin            0x0001ae10   Section        0  boards.o(i.bsp_board_button_idx_to_pin)
    i.bsp_board_button_state_get             0x0001ae1c   Section        0  boards.o(i.bsp_board_button_state_get)
    i.bsp_board_pin_to_button_idx            0x0001ae4c   Section        0  boards.o(i.bsp_board_pin_to_button_idx)
    i.bsp_btn_ble_init                       0x0001ae70   Section        0  bsp_btn_ble.o(i.bsp_btn_ble_init)
    i.bsp_btn_ble_sleep_mode_prepare         0x0001ae9c   Section        0  bsp_btn_ble.o(i.bsp_btn_ble_sleep_mode_prepare)
    i.bsp_button_event_handler               0x0001aed0   Section        0  bsp.o(i.bsp_button_event_handler)
    bsp_button_event_handler                 0x0001aed1   Thumb Code   176  bsp.o(i.bsp_button_event_handler)
    i.bsp_button_is_pressed                  0x0001af94   Section        0  bsp.o(i.bsp_button_is_pressed)
    i.bsp_event_handler                      0x0001afa8   Section        0  main.o(i.bsp_event_handler)
    i.bsp_event_to_button_action_assign      0x0001b01c   Section        0  bsp.o(i.bsp_event_to_button_action_assign)
    i.bsp_indication_set                     0x0001b078   Section        0  bsp.o(i.bsp_indication_set)
    i.bsp_init                               0x0001b080   Section        0  bsp.o(i.bsp_init)
    i.bsp_wakeup_button_enable               0x0001b0ec   Section        0  bsp.o(i.bsp_wakeup_button_enable)
    i.buf_prealloc                           0x0001b0fc   Section        0  nrf_log_frontend.o(i.buf_prealloc)
    buf_prealloc                             0x0001b0fd   Thumb Code   220  nrf_log_frontend.o(i.buf_prealloc)
    i.buffer_add                             0x0001b1e4   Section        0  nrf_fprintf_format.o(i.buffer_add)
    buffer_add                               0x0001b1e5   Thumb Code    44  nrf_fprintf_format.o(i.buffer_add)
    i.buffer_is_empty                        0x0001b210   Section        0  nrf_log_frontend.o(i.buffer_is_empty)
    i.button_get                             0x0001b228   Section        0  app_button.o(i.button_get)
    button_get                               0x0001b229   Thumb Code    36  app_button.o(i.button_get)
    i.button_timer_handler                   0x0001b254   Section        0  bsp.o(i.button_timer_handler)
    button_timer_handler                     0x0001b255   Thumb Code    14  bsp.o(i.button_timer_handler)
    i.buttons_leds_init                      0x0001b264   Section        0  main.o(i.buttons_leds_init)
    buttons_leds_init                        0x0001b265   Thumb Code    78  main.o(i.buttons_leds_init)
    i.channel_free                           0x0001b2b8   Section        0  nrfx_gpiote.o(i.channel_free)
    channel_free                             0x0001b2b9   Thumb Code    26  nrfx_gpiote.o(i.channel_free)
    i.channel_handler_get                    0x0001b2d8   Section        0  nrfx_gpiote.o(i.channel_handler_get)
    channel_handler_get                      0x0001b2d9   Thumb Code    10  nrfx_gpiote.o(i.channel_handler_get)
    i.channel_port_alloc                     0x0001b2e8   Section        0  nrfx_gpiote.o(i.channel_port_alloc)
    channel_port_alloc                       0x0001b2e9   Thumb Code   122  nrfx_gpiote.o(i.channel_port_alloc)
    i.channel_port_get                       0x0001b368   Section        0  nrfx_gpiote.o(i.channel_port_get)
    channel_port_get                         0x0001b369   Thumb Code     8  nrfx_gpiote.o(i.channel_port_get)
    i.characteristic_add                     0x0001b374   Section        0  ble_srv_common.o(i.characteristic_add)
    i.clock_clk_started_notify               0x0001b53c   Section        0  nrf_drv_clock.o(i.clock_clk_started_notify)
    clock_clk_started_notify                 0x0001b53d   Thumb Code    42  nrf_drv_clock.o(i.clock_clk_started_notify)
    i.clock_irq_handler                      0x0001b56c   Section        0  nrf_drv_clock.o(i.clock_irq_handler)
    clock_irq_handler                        0x0001b56d   Thumb Code    34  nrf_drv_clock.o(i.clock_irq_handler)
    i.compare_func                           0x0001b594   Section        0  app_timer2.o(i.compare_func)
    compare_func                             0x0001b595   Thumb Code    38  app_timer2.o(i.compare_func)
    i.config_is_valid                        0x0001b5ba   Section        0  ble_advertising.o(i.config_is_valid)
    config_is_valid                          0x0001b5bb   Thumb Code    40  ble_advertising.o(i.config_is_valid)
    i.conn_handle_list_get                   0x0001b5e2   Section        0  ble_conn_state.o(i.conn_handle_list_get)
    i.conn_int_check                         0x0001b61e   Section        0  ble_advdata.o(i.conn_int_check)
    conn_int_check                           0x0001b61f   Thumb Code    90  ble_advdata.o(i.conn_int_check)
    i.conn_int_encode                        0x0001b678   Section        0  ble_advdata.o(i.conn_int_encode)
    conn_int_encode                          0x0001b679   Thumb Code   104  ble_advdata.o(i.conn_int_encode)
    i.conn_params_error_handler              0x0001b6e0   Section        0  main.o(i.conn_params_error_handler)
    conn_params_error_handler                0x0001b6e1   Thumb Code    16  main.o(i.conn_params_error_handler)
    i.conn_params_init                       0x0001b6f0   Section        0  main.o(i.conn_params_init)
    conn_params_init                         0x0001b6f1   Thumb Code    82  main.o(i.conn_params_init)
    i.conn_params_negotiation                0x0001b74c   Section        0  ble_conn_params.o(i.conn_params_negotiation)
    conn_params_negotiation                  0x0001b74d   Thumb Code    78  ble_conn_params.o(i.conn_params_negotiation)
    i.connection_buttons_configure           0x0001b7a0   Section        0  bsp_btn_ble.o(i.connection_buttons_configure)
    connection_buttons_configure             0x0001b7a1   Thumb Code    84  bsp_btn_ble.o(i.connection_buttons_configure)
    i.detection_delay_timeout_handler        0x0001b7f4   Section        0  app_button.o(i.detection_delay_timeout_handler)
    detection_delay_timeout_handler          0x0001b7f5   Thumb Code    84  app_button.o(i.detection_delay_timeout_handler)
    i.dropped_sat16_get                      0x0001b854   Section        0  nrf_log_frontend.o(i.dropped_sat16_get)
    dropped_sat16_get                        0x0001b855   Thumb Code    18  nrf_log_frontend.o(i.dropped_sat16_get)
    i.drv_rtc_compare_disable                0x0001b86c   Section        0  drv_rtc.o(i.drv_rtc_compare_disable)
    i.drv_rtc_compare_pending                0x0001b882   Section        0  drv_rtc.o(i.drv_rtc_compare_pending)
    i.drv_rtc_compare_set                    0x0001b89c   Section        0  drv_rtc.o(i.drv_rtc_compare_set)
    i.drv_rtc_counter_get                    0x0001b8f8   Section        0  drv_rtc.o(i.drv_rtc_counter_get)
    i.drv_rtc_init                           0x0001b904   Section        0  drv_rtc.o(i.drv_rtc_init)
    i.drv_rtc_irq_trigger                    0x0001ba2c   Section        0  drv_rtc.o(i.drv_rtc_irq_trigger)
    i.drv_rtc_overflow_enable                0x0001ba50   Section        0  drv_rtc.o(i.drv_rtc_overflow_enable)
    i.drv_rtc_overflow_pending               0x0001ba62   Section        0  drv_rtc.o(i.drv_rtc_overflow_pending)
    i.drv_rtc_start                          0x0001ba72   Section        0  drv_rtc.o(i.drv_rtc_start)
    i.drv_rtc_stop                           0x0001ba80   Section        0  drv_rtc.o(i.drv_rtc_stop)
    i.drv_rtc_windowed_compare_set           0x0001ba8e   Section        0  drv_rtc.o(i.drv_rtc_windowed_compare_set)
    i.evt_disable                            0x0001bb8a   Section        0  drv_rtc.o(i.evt_disable)
    evt_disable                              0x0001bb8b   Thumb Code    24  drv_rtc.o(i.evt_disable)
    i.evt_enable                             0x0001bba2   Section        0  drv_rtc.o(i.evt_enable)
    evt_enable                               0x0001bba3   Thumb Code    28  drv_rtc.o(i.evt_enable)
    i.evt_handle                             0x0001bbc0   Section        0  app_button.o(i.evt_handle)
    i.evt_pending                            0x0001bcb0   Section        0  drv_rtc.o(i.evt_pending)
    evt_pending                              0x0001bcb1   Thumb Code    28  drv_rtc.o(i.evt_pending)
    i.fifo_get                               0x0001bccc   Section        0  app_fifo.o(i.fifo_get)
    fifo_get                                 0x0001bccd   Thumb Code    24  app_fifo.o(i.fifo_get)
    i.fifo_length                            0x0001bce4   Section        0  app_fifo.o(i.fifo_length)
    fifo_length                              0x0001bce5   Thumb Code    10  app_fifo.o(i.fifo_length)
    i.fifo_length                            0x0001bcee   Section        0  app_uart_fifo.o(i.fifo_length)
    fifo_length                              0x0001bcef   Thumb Code    10  app_uart_fifo.o(i.fifo_length)
    i.fifo_peek                              0x0001bcf8   Section        0  app_fifo.o(i.fifo_peek)
    fifo_peek                                0x0001bcf9   Thumb Code    18  app_fifo.o(i.fifo_peek)
    i.fifo_put                               0x0001bd0a   Section        0  app_fifo.o(i.fifo_put)
    fifo_put                                 0x0001bd0b   Thumb Code    18  app_fifo.o(i.fifo_put)
    i.flag_toggle                            0x0001bd1c   Section        0  ble_conn_state.o(i.flag_toggle)
    flag_toggle                              0x0001bd1d   Thumb Code    30  ble_conn_state.o(i.flag_toggle)
    i.flags_encode                           0x0001bd3a   Section        0  ble_advdata.o(i.flags_encode)
    flags_encode                             0x0001bd3b   Thumb Code    54  ble_advdata.o(i.flags_encode)
    i.flags_set                              0x0001bd70   Section        0  ble_advertising.o(i.flags_set)
    flags_set                                0x0001bd71   Thumb Code    42  ble_advertising.o(i.flags_set)
    i.fputc                                  0x0001bd9a   Section        0  retarget.o(i.fputc)
    i.gap_params_init                        0x0001bdac   Section        0  main.o(i.gap_params_init)
    gap_params_init                          0x0001bdad   Thumb Code   116  main.o(i.gap_params_init)
    i.gatt_evt_handler                       0x0001be2c   Section        0  main.o(i.gatt_evt_handler)
    i.gatt_init                              0x0001be98   Section        0  main.o(i.gatt_init)
    i.get_now                                0x0001bedc   Section        0  app_timer2.o(i.get_now)
    get_now                                  0x0001bedd   Thumb Code    46  app_timer2.o(i.get_now)
    i.gpiote_event_handler                   0x0001bf18   Section        0  app_button.o(i.gpiote_event_handler)
    gpiote_event_handler                     0x0001bf19   Thumb Code    66  app_button.o(i.gpiote_event_handler)
    i.idle_state_handle                      0x0001bf60   Section        0  main.o(i.idle_state_handle)
    idle_state_handle                        0x0001bf61   Thumb Code    14  main.o(i.idle_state_handle)
    i.instance_get                           0x0001bf70   Section        0  ble_conn_params.o(i.instance_get)
    instance_get                             0x0001bf71   Thumb Code    40  ble_conn_params.o(i.instance_get)
    i.int_print                              0x0001bf9c   Section        0  nrf_fprintf_format.o(i.int_print)
    int_print                                0x0001bf9d   Thumb Code   190  nrf_fprintf_format.o(i.int_print)
    i.interrupts_enable                      0x0001c05c   Section        0  nrfx_uart.o(i.interrupts_enable)
    interrupts_enable                        0x0001c05d   Thumb Code   136  nrfx_uart.o(i.interrupts_enable)
    i.interrupts_enable                      0x0001c0f0   Section        0  nrfx_uarte.o(i.interrupts_enable)
    interrupts_enable                        0x0001c0f1   Thumb Code   166  nrfx_uarte.o(i.interrupts_enable)
    i.invalid_packets_omit                   0x0001c1a4   Section        0  nrf_log_frontend.o(i.invalid_packets_omit)
    invalid_packets_omit                     0x0001c1a5   Thumb Code    70  nrf_log_frontend.o(i.invalid_packets_omit)
    i.is_conn_params_ok                      0x0001c1ea   Section        0  ble_conn_params.o(i.is_conn_params_ok)
    is_conn_params_ok                        0x0001c1eb   Thumb Code   114  ble_conn_params.o(i.is_conn_params_ok)
    i.item_dequeue                           0x0001c25c   Section        0  nrf_drv_clock.o(i.item_dequeue)
    item_dequeue                             0x0001c25d   Thumb Code    12  nrf_drv_clock.o(i.item_dequeue)
    i.latch_pending_read_and_check           0x0001c268   Section        0  nrfx_gpiote.o(i.latch_pending_read_and_check)
    latch_pending_read_and_check             0x0001c269   Thumb Code    38  nrfx_gpiote.o(i.latch_pending_read_and_check)
    i.lfclk_stop                             0x0001c290   Section        0  nrf_drv_clock.o(i.lfclk_stop)
    lfclk_stop                               0x0001c291   Thumb Code    20  nrf_drv_clock.o(i.lfclk_stop)
    i.link_init                              0x0001c2a8   Section        0  nrf_ble_gatt.o(i.link_init)
    link_init                                0x0001c2a9   Thumb Code    16  nrf_ble_gatt.o(i.link_init)
    i.log_init                               0x0001c2b8   Section        0  main.o(i.log_init)
    log_init                                 0x0001c2b9   Thumb Code    38  main.o(i.log_init)
    i.log_skip                               0x0001c2e0   Section        0  nrf_log_frontend.o(i.log_skip)
    log_skip                                 0x0001c2e1   Thumb Code   190  nrf_log_frontend.o(i.log_skip)
    i.main                                   0x0001c3ac   Section        0  main.o(i.main)
    i.manuf_specific_data_encode             0x0001c488   Section        0  ble_advdata.o(i.manuf_specific_data_encode)
    manuf_specific_data_encode               0x0001c489   Thumb Code   118  ble_advdata.o(i.manuf_specific_data_encode)
    i.memobj_op                              0x0001c4fe   Section        0  nrf_memobj.o(i.memobj_op)
    memobj_op                                0x0001c4ff   Thumb Code   202  nrf_memobj.o(i.memobj_op)
    i.module_idx_get                         0x0001c5c8   Section        0  nrf_log_frontend.o(i.module_idx_get)
    module_idx_get                           0x0001c5c9   Thumb Code    52  nrf_log_frontend.o(i.module_idx_get)
    i.name_encode                            0x0001c600   Section        0  ble_advdata.o(i.name_encode)
    name_encode                              0x0001c601   Thumb Code   200  ble_advdata.o(i.name_encode)
    i.nrf52_errata_136                       0x0001c6c8   Section        0  system_nrf52805.o(i.nrf52_errata_136)
    nrf52_errata_136                         0x0001c6c9   Thumb Code    96  system_nrf52805.o(i.nrf52_errata_136)
    i.nrf52_errata_217                       0x0001c730   Section        0  system_nrf52805.o(i.nrf52_errata_217)
    nrf52_errata_217                         0x0001c731   Thumb Code    30  system_nrf52805.o(i.nrf52_errata_217)
    i.nrf52_errata_31                        0x0001c754   Section        0  system_nrf52805.o(i.nrf52_errata_31)
    nrf52_errata_31                          0x0001c755   Thumb Code    96  system_nrf52805.o(i.nrf52_errata_31)
    i.nrf52_errata_36                        0x0001c7bc   Section        0  system_nrf52805.o(i.nrf52_errata_36)
    nrf52_errata_36                          0x0001c7bd   Thumb Code    96  system_nrf52805.o(i.nrf52_errata_36)
    i.nrf52_errata_66                        0x0001c824   Section        0  system_nrf52805.o(i.nrf52_errata_66)
    nrf52_errata_66                          0x0001c825   Thumb Code    96  system_nrf52805.o(i.nrf52_errata_66)
    i.nrf_atfifo_init                        0x0001c88c   Section        0  nrf_atfifo.o(i.nrf_atfifo_init)
    i.nrf_atfifo_item_alloc                  0x0001c8b4   Section        0  nrf_atfifo.o(i.nrf_atfifo_item_alloc)
    i.nrf_atfifo_item_free                   0x0001c8d0   Section        0  nrf_atfifo.o(i.nrf_atfifo_item_free)
    i.nrf_atfifo_item_get                    0x0001c8ec   Section        0  nrf_atfifo.o(i.nrf_atfifo_item_get)
    i.nrf_atfifo_item_put                    0x0001c908   Section        0  nrf_atfifo.o(i.nrf_atfifo_item_put)
    i.nrf_atflags_clear                      0x0001c924   Section        0  nrf_atflags.o(i.nrf_atflags_clear)
    i.nrf_atflags_get                        0x0001c942   Section        0  nrf_atflags.o(i.nrf_atflags_get)
    i.nrf_atflags_set                        0x0001c960   Section        0  nrf_atflags.o(i.nrf_atflags_set)
    i.nrf_atomic_flag_clear_fetch            0x0001c97e   Section        0  nrf_atomic.o(i.nrf_atomic_flag_clear_fetch)
    i.nrf_atomic_flag_set                    0x0001c98c   Section        0  nrf_atomic.o(i.nrf_atomic_flag_set)
    i.nrf_atomic_u32_add                     0x0001c99a   Section        0  nrf_atomic.o(i.nrf_atomic_u32_add)
    i.nrf_atomic_u32_and                     0x0001c9b0   Section        0  nrf_atomic.o(i.nrf_atomic_u32_and)
    i.nrf_atomic_u32_fetch_and               0x0001c9c6   Section        0  nrf_atomic.o(i.nrf_atomic_u32_fetch_and)
    i.nrf_atomic_u32_fetch_store             0x0001c9dc   Section        0  nrf_atomic.o(i.nrf_atomic_u32_fetch_store)
    i.nrf_atomic_u32_or                      0x0001c9f2   Section        0  nrf_atomic.o(i.nrf_atomic_u32_or)
    i.nrf_atomic_u32_sub                     0x0001ca08   Section        0  nrf_atomic.o(i.nrf_atomic_u32_sub)
    i.nrf_balloc_alloc                       0x0001ca1e   Section        0  nrf_balloc.o(i.nrf_balloc_alloc)
    i.nrf_balloc_block2idx                   0x0001ca70   Section        0  nrf_balloc.o(i.nrf_balloc_block2idx)
    nrf_balloc_block2idx                     0x0001ca71   Thumb Code    16  nrf_balloc.o(i.nrf_balloc_block2idx)
    i.nrf_balloc_free                        0x0001ca80   Section        0  nrf_balloc.o(i.nrf_balloc_free)
    i.nrf_balloc_idx2block                   0x0001cab0   Section        0  nrf_balloc.o(i.nrf_balloc_idx2block)
    nrf_balloc_idx2block                     0x0001cab1   Thumb Code    12  nrf_balloc.o(i.nrf_balloc_idx2block)
    i.nrf_balloc_init                        0x0001cabc   Section        0  nrf_balloc.o(i.nrf_balloc_init)
    i.nrf_bitmask_bit_is_set                 0x0001caf8   Section        0  nrfx_gpiote.o(i.nrf_bitmask_bit_is_set)
    nrf_bitmask_bit_is_set                   0x0001caf9   Thumb Code    22  nrfx_gpiote.o(i.nrf_bitmask_bit_is_set)
    i.nrf_ble_gatt_att_mtu_periph_set        0x0001cb0e   Section        0  nrf_ble_gatt.o(i.nrf_ble_gatt_att_mtu_periph_set)
    i.nrf_ble_gatt_init                      0x0001cb2c   Section        0  nrf_ble_gatt.o(i.nrf_ble_gatt_init)
    i.nrf_ble_gatt_on_ble_evt                0x0001cb64   Section        0  nrf_ble_gatt.o(i.nrf_ble_gatt_on_ble_evt)
    i.nrf_ble_qwr_conn_handle_assign         0x0001cc5c   Section        0  nrf_ble_qwr.o(i.nrf_ble_qwr_conn_handle_assign)
    i.nrf_ble_qwr_init                       0x0001cc7c   Section        0  nrf_ble_qwr.o(i.nrf_ble_qwr_init)
    i.nrf_ble_qwr_on_ble_evt                 0x0001ccae   Section        0  nrf_ble_qwr.o(i.nrf_ble_qwr_on_ble_evt)
    i.nrf_clock_event_check                  0x0001cd2a   Section        0  nrfx_clock.o(i.nrf_clock_event_check)
    nrf_clock_event_check                    0x0001cd2b   Thumb Code    18  nrfx_clock.o(i.nrf_clock_event_check)
    i.nrf_clock_event_clear                  0x0001cd3c   Section        0  nrfx_clock.o(i.nrf_clock_event_clear)
    nrf_clock_event_clear                    0x0001cd3d   Thumb Code    18  nrfx_clock.o(i.nrf_clock_event_clear)
    i.nrf_clock_int_disable                  0x0001cd50   Section        0  nrfx_clock.o(i.nrf_clock_int_disable)
    nrf_clock_int_disable                    0x0001cd51   Thumb Code     6  nrfx_clock.o(i.nrf_clock_int_disable)
    i.nrf_clock_task_trigger                 0x0001cd5c   Section        0  nrfx_clock.o(i.nrf_clock_task_trigger)
    nrf_clock_task_trigger                   0x0001cd5d   Thumb Code     8  nrfx_clock.o(i.nrf_clock_task_trigger)
    i.nrf_drv_clock_init                     0x0001cd64   Section        0  nrf_drv_clock.o(i.nrf_drv_clock_init)
    i.nrf_drv_clock_lfclk_release            0x0001cdb0   Section        0  nrf_drv_clock.o(i.nrf_drv_clock_lfclk_release)
    i.nrf_drv_uart_init                      0x0001cde0   Section        0  nrf_drv_uart.o(i.nrf_drv_uart_init)
    i.nrf_drv_uart_rx                        0x0001ce6c   Section        0  app_uart_fifo.o(i.nrf_drv_uart_rx)
    nrf_drv_uart_rx                          0x0001ce6d   Thumb Code    62  app_uart_fifo.o(i.nrf_drv_uart_rx)
    i.nrf_drv_uart_tx                        0x0001ceb0   Section        0  app_uart_fifo.o(i.nrf_drv_uart_tx)
    nrf_drv_uart_tx                          0x0001ceb1   Thumb Code    62  app_uart_fifo.o(i.nrf_drv_uart_tx)
    i.nrf_fprintf                            0x0001cef4   Section        0  nrf_fprintf.o(i.nrf_fprintf)
    i.nrf_fprintf_buffer_flush               0x0001cf1e   Section        0  nrf_fprintf.o(i.nrf_fprintf_buffer_flush)
    i.nrf_fprintf_fmt                        0x0001cf3a   Section        0  nrf_fprintf_format.o(i.nrf_fprintf_fmt)
    i.nrf_gpio_cfg                           0x0001d12a   Section        0  nrfx_gpiote.o(i.nrf_gpio_cfg)
    nrf_gpio_cfg                             0x0001d12b   Thumb Code    40  nrfx_gpiote.o(i.nrf_gpio_cfg)
    i.nrf_gpio_cfg                           0x0001d152   Section        0  nrfx_uart.o(i.nrf_gpio_cfg)
    nrf_gpio_cfg                             0x0001d153   Thumb Code    40  nrfx_uart.o(i.nrf_gpio_cfg)
    i.nrf_gpio_cfg                           0x0001d17a   Section        0  nrfx_uarte.o(i.nrf_gpio_cfg)
    nrf_gpio_cfg                             0x0001d17b   Thumb Code    40  nrfx_uarte.o(i.nrf_gpio_cfg)
    i.nrf_gpio_cfg_input                     0x0001d1a2   Section        0  nrfx_uart.o(i.nrf_gpio_cfg_input)
    nrf_gpio_cfg_input                       0x0001d1a3   Thumb Code    26  nrfx_uart.o(i.nrf_gpio_cfg_input)
    i.nrf_gpio_cfg_input                     0x0001d1bc   Section        0  nrfx_uarte.o(i.nrf_gpio_cfg_input)
    nrf_gpio_cfg_input                       0x0001d1bd   Thumb Code    26  nrfx_uarte.o(i.nrf_gpio_cfg_input)
    i.nrf_gpio_cfg_output                    0x0001d1d6   Section        0  nrfx_uart.o(i.nrf_gpio_cfg_output)
    nrf_gpio_cfg_output                      0x0001d1d7   Thumb Code    24  nrfx_uart.o(i.nrf_gpio_cfg_output)
    i.nrf_gpio_cfg_output                    0x0001d1ee   Section        0  nrfx_uarte.o(i.nrf_gpio_cfg_output)
    nrf_gpio_cfg_output                      0x0001d1ef   Thumb Code    24  nrfx_uarte.o(i.nrf_gpio_cfg_output)
    i.nrf_gpio_cfg_sense_set                 0x0001d206   Section        0  nrfx_gpiote.o(i.nrf_gpio_cfg_sense_set)
    nrf_gpio_cfg_sense_set                   0x0001d207   Thumb Code    50  nrfx_gpiote.o(i.nrf_gpio_cfg_sense_set)
    i.nrf_gpio_latches_read_and_clear        0x0001d238   Section        0  nrfx_gpiote.o(i.nrf_gpio_latches_read_and_clear)
    nrf_gpio_latches_read_and_clear          0x0001d239   Thumb Code    46  nrfx_gpiote.o(i.nrf_gpio_latches_read_and_clear)
    i.nrf_gpio_pin_present_check             0x0001d26c   Section        0  nrfx_gpiote.o(i.nrf_gpio_pin_present_check)
    nrf_gpio_pin_present_check               0x0001d26d   Thumb Code    34  nrfx_gpiote.o(i.nrf_gpio_pin_present_check)
    i.nrf_gpio_pin_read                      0x0001d28e   Section        0  nrfx_gpiote.o(i.nrf_gpio_pin_read)
    nrf_gpio_pin_read                        0x0001d28f   Thumb Code    24  nrfx_gpiote.o(i.nrf_gpio_pin_read)
    i.nrf_gpio_pin_set                       0x0001d2a6   Section        0  nrfx_uart.o(i.nrf_gpio_pin_set)
    nrf_gpio_pin_set                         0x0001d2a7   Thumb Code    22  nrfx_uart.o(i.nrf_gpio_pin_set)
    i.nrf_gpio_pin_set                       0x0001d2bc   Section        0  nrfx_uarte.o(i.nrf_gpio_pin_set)
    nrf_gpio_pin_set                         0x0001d2bd   Thumb Code    22  nrfx_uarte.o(i.nrf_gpio_pin_set)
    i.nrf_gpiote_event_addr_get              0x0001d2d4   Section        0  nrfx_gpiote.o(i.nrf_gpiote_event_addr_get)
    nrf_gpiote_event_addr_get                0x0001d2d5   Thumb Code     8  nrfx_gpiote.o(i.nrf_gpiote_event_addr_get)
    i.nrf_gpiote_event_clear                 0x0001d2e0   Section        0  nrfx_gpiote.o(i.nrf_gpiote_event_clear)
    nrf_gpiote_event_clear                   0x0001d2e1   Thumb Code    28  nrfx_gpiote.o(i.nrf_gpiote_event_clear)
    i.nrf_gpiote_event_is_set                0x0001d2fc   Section        0  nrfx_gpiote.o(i.nrf_gpiote_event_is_set)
    nrf_gpiote_event_is_set                  0x0001d2fd   Thumb Code    22  nrfx_gpiote.o(i.nrf_gpiote_event_is_set)
    i.nrf_gpiote_int_enable                  0x0001d314   Section        0  nrfx_gpiote.o(i.nrf_gpiote_int_enable)
    nrf_gpiote_int_enable                    0x0001d315   Thumb Code     6  nrfx_gpiote.o(i.nrf_gpiote_int_enable)
    i.nrf_log_backend_add                    0x0001d320   Section        0  nrf_log_frontend.o(i.nrf_log_backend_add)
    i.nrf_log_backend_rtt_flush              0x0001d374   Section        0  nrf_log_backend_rtt.o(i.nrf_log_backend_rtt_flush)
    nrf_log_backend_rtt_flush                0x0001d375   Thumb Code     2  nrf_log_backend_rtt.o(i.nrf_log_backend_rtt_flush)
    i.nrf_log_backend_rtt_init               0x0001d376   Section        0  nrf_log_backend_rtt.o(i.nrf_log_backend_rtt_init)
    i.nrf_log_backend_rtt_panic_set          0x0001d37e   Section        0  nrf_log_backend_rtt.o(i.nrf_log_backend_rtt_panic_set)
    nrf_log_backend_rtt_panic_set            0x0001d37f   Thumb Code     2  nrf_log_backend_rtt.o(i.nrf_log_backend_rtt_panic_set)
    i.nrf_log_backend_rtt_put                0x0001d380   Section        0  nrf_log_backend_rtt.o(i.nrf_log_backend_rtt_put)
    nrf_log_backend_rtt_put                  0x0001d381   Thumb Code    24  nrf_log_backend_rtt.o(i.nrf_log_backend_rtt_put)
    i.nrf_log_backend_serial_put             0x0001d3a0   Section        0  nrf_log_backend_serial.o(i.nrf_log_backend_serial_put)
    i.nrf_log_color_id_get                   0x0001d494   Section        0  nrf_log_frontend.o(i.nrf_log_color_id_get)
    i.nrf_log_default_backends_init          0x0001d4cc   Section        0  nrf_log_default_backends.o(i.nrf_log_default_backends_init)
    i.nrf_log_frontend_dequeue               0x0001d4f4   Section        0  nrf_log_frontend.o(i.nrf_log_frontend_dequeue)
    i.nrf_log_frontend_std_0                 0x0001d810   Section        0  nrf_log_frontend.o(i.nrf_log_frontend_std_0)
    i.nrf_log_frontend_std_1                 0x0001d824   Section        0  nrf_log_frontend.o(i.nrf_log_frontend_std_1)
    i.nrf_log_frontend_std_2                 0x0001d83c   Section        0  nrf_log_frontend.o(i.nrf_log_frontend_std_2)
    i.nrf_log_hexdump_entry_process          0x0001d85c   Section        0  nrf_log_str_formatter.o(i.nrf_log_hexdump_entry_process)
    i.nrf_log_init                           0x0001d918   Section        0  nrf_log_frontend.o(i.nrf_log_init)
    i.nrf_log_module_cnt_get                 0x0001d960   Section        0  nrf_log_frontend.o(i.nrf_log_module_cnt_get)
    i.nrf_log_module_name_get                0x0001d974   Section        0  nrf_log_frontend.o(i.nrf_log_module_name_get)
    i.nrf_log_panic                          0x0001d998   Section        0  nrf_log_frontend.o(i.nrf_log_panic)
    i.nrf_log_std_entry_process              0x0001d9cc   Section        0  nrf_log_str_formatter.o(i.nrf_log_std_entry_process)
    i.nrf_memobj_alloc                       0x0001da94   Section        0  nrf_memobj.o(i.nrf_memobj_alloc)
    i.nrf_memobj_free                        0x0001db0e   Section        0  nrf_memobj.o(i.nrf_memobj_free)
    i.nrf_memobj_get                         0x0001db4e   Section        0  nrf_memobj.o(i.nrf_memobj_get)
    i.nrf_memobj_pool_init                   0x0001db5e   Section        0  nrf_memobj.o(i.nrf_memobj_pool_init)
    i.nrf_memobj_put                         0x0001db6a   Section        0  nrf_memobj.o(i.nrf_memobj_put)
    i.nrf_memobj_read                        0x0001db88   Section        0  nrf_memobj.o(i.nrf_memobj_read)
    i.nrf_memobj_write                       0x0001dbaa   Section        0  nrf_memobj.o(i.nrf_memobj_write)
    i.nrf_pwr_mgmt_init                      0x0001dbcc   Section        0  nrf_pwr_mgmt.o(i.nrf_pwr_mgmt_init)
    i.nrf_pwr_mgmt_run                       0x0001dc0c   Section        0  nrf_pwr_mgmt.o(i.nrf_pwr_mgmt_run)
    i.nrf_qwr_error_handler                  0x0001dc22   Section        0  main.o(i.nrf_qwr_error_handler)
    nrf_qwr_error_handler                    0x0001dc23   Thumb Code    16  main.o(i.nrf_qwr_error_handler)
    i.nrf_ringbuf_init                       0x0001dc32   Section        0  nrf_ringbuf.o(i.nrf_ringbuf_init)
    i.nrf_rtc_cc_get                         0x0001dc4e   Section        0  drv_rtc.o(i.nrf_rtc_cc_get)
    nrf_rtc_cc_get                           0x0001dc4f   Thumb Code    12  drv_rtc.o(i.nrf_rtc_cc_get)
    i.nrf_rtc_cc_set                         0x0001dc5a   Section        0  drv_rtc.o(i.nrf_rtc_cc_set)
    nrf_rtc_cc_set                           0x0001dc5b   Thumb Code    10  drv_rtc.o(i.nrf_rtc_cc_set)
    i.nrf_rtc_counter_get                    0x0001dc64   Section        0  drv_rtc.o(i.nrf_rtc_counter_get)
    nrf_rtc_counter_get                      0x0001dc65   Thumb Code     8  drv_rtc.o(i.nrf_rtc_counter_get)
    i.nrf_rtc_event_clear                    0x0001dc6c   Section        0  drv_rtc.o(i.nrf_rtc_event_clear)
    nrf_rtc_event_clear                      0x0001dc6d   Thumb Code    14  drv_rtc.o(i.nrf_rtc_event_clear)
    i.nrf_rtc_event_disable                  0x0001dc7a   Section        0  drv_rtc.o(i.nrf_rtc_event_disable)
    nrf_rtc_event_disable                    0x0001dc7b   Thumb Code     6  drv_rtc.o(i.nrf_rtc_event_disable)
    i.nrf_rtc_event_enable                   0x0001dc80   Section        0  drv_rtc.o(i.nrf_rtc_event_enable)
    nrf_rtc_event_enable                     0x0001dc81   Thumb Code     6  drv_rtc.o(i.nrf_rtc_event_enable)
    i.nrf_rtc_int_disable                    0x0001dc86   Section        0  drv_rtc.o(i.nrf_rtc_int_disable)
    nrf_rtc_int_disable                      0x0001dc87   Thumb Code     6  drv_rtc.o(i.nrf_rtc_int_disable)
    i.nrf_rtc_int_enable                     0x0001dc8c   Section        0  drv_rtc.o(i.nrf_rtc_int_enable)
    nrf_rtc_int_enable                       0x0001dc8d   Thumb Code     6  drv_rtc.o(i.nrf_rtc_int_enable)
    i.nrf_rtc_task_trigger                   0x0001dc92   Section        0  drv_rtc.o(i.nrf_rtc_task_trigger)
    nrf_rtc_task_trigger                     0x0001dc93   Thumb Code     6  drv_rtc.o(i.nrf_rtc_task_trigger)
    i.nrf_sdh_ble_app_ram_start_get          0x0001dc98   Section        0  nrf_sdh_ble.o(i.nrf_sdh_ble_app_ram_start_get)
    i.nrf_sdh_ble_default_cfg_set            0x0001dcb0   Section        0  nrf_sdh_ble.o(i.nrf_sdh_ble_default_cfg_set)
    i.nrf_sdh_ble_enable                     0x0001de44   Section        0  nrf_sdh_ble.o(i.nrf_sdh_ble_enable)
    i.nrf_sdh_ble_evts_poll                  0x0001df90   Section        0  nrf_sdh_ble.o(i.nrf_sdh_ble_evts_poll)
    nrf_sdh_ble_evts_poll                    0x0001df91   Thumb Code   108  nrf_sdh_ble.o(i.nrf_sdh_ble_evts_poll)
    i.nrf_sdh_enable_request                 0x0001e004   Section        0  nrf_sdh.o(i.nrf_sdh_enable_request)
    i.nrf_sdh_evts_poll                      0x0001e088   Section        0  nrf_sdh.o(i.nrf_sdh_evts_poll)
    i.nrf_sdh_is_enabled                     0x0001e0b8   Section        0  nrf_sdh.o(i.nrf_sdh_is_enabled)
    i.nrf_sdh_soc_evts_poll                  0x0001e0c4   Section        0  nrf_sdh_soc.o(i.nrf_sdh_soc_evts_poll)
    nrf_sdh_soc_evts_poll                    0x0001e0c5   Thumb Code    80  nrf_sdh_soc.o(i.nrf_sdh_soc_evts_poll)
    i.nrf_section_iter_get                   0x0001e118   Section        0  nrf_sdh.o(i.nrf_section_iter_get)
    nrf_section_iter_get                     0x0001e119   Thumb Code     6  nrf_sdh.o(i.nrf_section_iter_get)
    i.nrf_section_iter_init                  0x0001e11e   Section        0  nrf_section_iter.o(i.nrf_section_iter_init)
    i.nrf_section_iter_item_set              0x0001e132   Section        0  nrf_section_iter.o(i.nrf_section_iter_item_set)
    nrf_section_iter_item_set                0x0001e133   Thumb Code    46  nrf_section_iter.o(i.nrf_section_iter_item_set)
    i.nrf_section_iter_next                  0x0001e160   Section        0  nrf_section_iter.o(i.nrf_section_iter_next)
    i.nrf_sortlist_add                       0x0001e18e   Section        0  nrf_sortlist.o(i.nrf_sortlist_add)
    i.nrf_sortlist_peek                      0x0001e1b6   Section        0  nrf_sortlist.o(i.nrf_sortlist_peek)
    i.nrf_sortlist_pop                       0x0001e1be   Section        0  nrf_sortlist.o(i.nrf_sortlist_pop)
    i.nrf_sortlist_remove                    0x0001e1d6   Section        0  nrf_sortlist.o(i.nrf_sortlist_remove)
    i.nrf_strerror_find                      0x0001e1fc   Section        0  nrf_strerror.o(i.nrf_strerror_find)
    i.nrf_strerror_get                       0x0001e23c   Section        0  nrf_strerror.o(i.nrf_strerror_get)
    i.nrf_uart_errorsrc_get_and_clear        0x0001e258   Section        0  nrfx_uart.o(i.nrf_uart_errorsrc_get_and_clear)
    nrf_uart_errorsrc_get_and_clear          0x0001e259   Thumb Code    12  nrfx_uart.o(i.nrf_uart_errorsrc_get_and_clear)
    i.nrf_uart_event_check                   0x0001e264   Section        0  nrfx_uart.o(i.nrf_uart_event_check)
    nrf_uart_event_check                     0x0001e265   Thumb Code    14  nrfx_uart.o(i.nrf_uart_event_check)
    i.nrf_uart_event_clear                   0x0001e272   Section        0  nrfx_uart.o(i.nrf_uart_event_clear)
    nrf_uart_event_clear                     0x0001e273   Thumb Code    14  nrfx_uart.o(i.nrf_uart_event_clear)
    i.nrf_uart_hwfc_pins_set                 0x0001e280   Section        0  nrfx_uart.o(i.nrf_uart_hwfc_pins_set)
    nrf_uart_hwfc_pins_set                   0x0001e281   Thumb Code    12  nrfx_uart.o(i.nrf_uart_hwfc_pins_set)
    i.nrf_uart_int_disable                   0x0001e28c   Section        0  nrfx_uart.o(i.nrf_uart_int_disable)
    nrf_uart_int_disable                     0x0001e28d   Thumb Code     6  nrfx_uart.o(i.nrf_uart_int_disable)
    i.nrf_uart_int_enable                    0x0001e292   Section        0  nrfx_uart.o(i.nrf_uart_int_enable)
    nrf_uart_int_enable                      0x0001e293   Thumb Code     6  nrfx_uart.o(i.nrf_uart_int_enable)
    i.nrf_uart_int_enable_check              0x0001e298   Section        0  nrfx_uart.o(i.nrf_uart_int_enable_check)
    nrf_uart_int_enable_check                0x0001e299   Thumb Code    18  nrfx_uart.o(i.nrf_uart_int_enable_check)
    i.nrf_uart_task_trigger                  0x0001e2aa   Section        0  nrfx_uart.o(i.nrf_uart_task_trigger)
    nrf_uart_task_trigger                    0x0001e2ab   Thumb Code     6  nrfx_uart.o(i.nrf_uart_task_trigger)
    i.nrf_uart_txrx_pins_set                 0x0001e2b0   Section        0  nrfx_uart.o(i.nrf_uart_txrx_pins_set)
    nrf_uart_txrx_pins_set                   0x0001e2b1   Thumb Code    14  nrfx_uart.o(i.nrf_uart_txrx_pins_set)
    i.nrf_uarte_errorsrc_get_and_clear       0x0001e2be   Section        0  nrfx_uarte.o(i.nrf_uarte_errorsrc_get_and_clear)
    nrf_uarte_errorsrc_get_and_clear         0x0001e2bf   Thumb Code    12  nrfx_uarte.o(i.nrf_uarte_errorsrc_get_and_clear)
    i.nrf_uarte_event_check                  0x0001e2ca   Section        0  nrfx_uarte.o(i.nrf_uarte_event_check)
    nrf_uarte_event_check                    0x0001e2cb   Thumb Code    14  nrfx_uarte.o(i.nrf_uarte_event_check)
    i.nrf_uarte_event_clear                  0x0001e2d8   Section        0  nrfx_uarte.o(i.nrf_uarte_event_clear)
    nrf_uarte_event_clear                    0x0001e2d9   Thumb Code    14  nrfx_uarte.o(i.nrf_uarte_event_clear)
    i.nrf_uarte_hwfc_pins_set                0x0001e2e6   Section        0  nrfx_uarte.o(i.nrf_uarte_hwfc_pins_set)
    nrf_uarte_hwfc_pins_set                  0x0001e2e7   Thumb Code    12  nrfx_uarte.o(i.nrf_uarte_hwfc_pins_set)
    i.nrf_uarte_int_disable                  0x0001e2f2   Section        0  nrfx_uarte.o(i.nrf_uarte_int_disable)
    nrf_uarte_int_disable                    0x0001e2f3   Thumb Code     6  nrfx_uarte.o(i.nrf_uarte_int_disable)
    i.nrf_uarte_int_enable                   0x0001e2f8   Section        0  nrfx_uarte.o(i.nrf_uarte_int_enable)
    nrf_uarte_int_enable                     0x0001e2f9   Thumb Code     6  nrfx_uarte.o(i.nrf_uarte_int_enable)
    i.nrf_uarte_rx_amount_get                0x0001e2fe   Section        0  nrfx_uarte.o(i.nrf_uarte_rx_amount_get)
    nrf_uarte_rx_amount_get                  0x0001e2ff   Thumb Code    10  nrfx_uarte.o(i.nrf_uarte_rx_amount_get)
    i.nrf_uarte_shorts_disable               0x0001e308   Section        0  nrfx_uarte.o(i.nrf_uarte_shorts_disable)
    nrf_uarte_shorts_disable                 0x0001e309   Thumb Code    12  nrfx_uarte.o(i.nrf_uarte_shorts_disable)
    i.nrf_uarte_task_trigger                 0x0001e314   Section        0  nrfx_uarte.o(i.nrf_uarte_task_trigger)
    nrf_uarte_task_trigger                   0x0001e315   Thumb Code     6  nrfx_uarte.o(i.nrf_uarte_task_trigger)
    i.nrf_uarte_tx_amount_get                0x0001e31a   Section        0  nrfx_uarte.o(i.nrf_uarte_tx_amount_get)
    nrf_uarte_tx_amount_get                  0x0001e31b   Thumb Code    10  nrfx_uarte.o(i.nrf_uarte_tx_amount_get)
    i.nrf_uarte_txrx_pins_set                0x0001e324   Section        0  nrfx_uarte.o(i.nrf_uarte_txrx_pins_set)
    nrf_uarte_txrx_pins_set                  0x0001e325   Thumb Code    14  nrfx_uarte.o(i.nrf_uarte_txrx_pins_set)
    i.nrf_wdt_started                        0x0001e334   Section        0  nrf_drv_clock.o(i.nrf_wdt_started)
    nrf_wdt_started                          0x0001e335   Thumb Code    14  nrf_drv_clock.o(i.nrf_wdt_started)
    i.nrfx_clock_enable                      0x0001e348   Section        0  nrfx_clock.o(i.nrfx_clock_enable)
    i.nrfx_clock_init                        0x0001e35c   Section        0  nrfx_clock.o(i.nrfx_clock_init)
    i.nrfx_clock_lfclk_stop                  0x0001e37c   Section        0  nrfx_clock.o(i.nrfx_clock_lfclk_stop)
    i.nrfx_coredep_delay_us                  0x0001e3a8   Section        0  drv_rtc.o(i.nrfx_coredep_delay_us)
    nrfx_coredep_delay_us                    0x0001e3a9   Thumb Code    20  drv_rtc.o(i.nrfx_coredep_delay_us)
    i.nrfx_get_irq_number                    0x0001e3c0   Section        0  nrfx_clock.o(i.nrfx_get_irq_number)
    nrfx_get_irq_number                      0x0001e3c1   Thumb Code     8  nrfx_clock.o(i.nrfx_get_irq_number)
    i.nrfx_get_irq_number                    0x0001e3c8   Section        0  nrfx_gpiote.o(i.nrfx_get_irq_number)
    nrfx_get_irq_number                      0x0001e3c9   Thumb Code     8  nrfx_gpiote.o(i.nrfx_get_irq_number)
    i.nrfx_get_irq_number                    0x0001e3d0   Section        0  nrfx_uart.o(i.nrfx_get_irq_number)
    nrfx_get_irq_number                      0x0001e3d1   Thumb Code     8  nrfx_uart.o(i.nrfx_get_irq_number)
    i.nrfx_get_irq_number                    0x0001e3d8   Section        0  nrfx_uarte.o(i.nrfx_get_irq_number)
    nrfx_get_irq_number                      0x0001e3d9   Thumb Code     8  nrfx_uarte.o(i.nrfx_get_irq_number)
    i.nrfx_gpiote_in_event_enable            0x0001e3e0   Section        0  nrfx_gpiote.o(i.nrfx_gpiote_in_event_enable)
    i.nrfx_gpiote_in_init                    0x0001e48c   Section        0  nrfx_gpiote.o(i.nrfx_gpiote_in_init)
    i.nrfx_gpiote_in_is_set                  0x0001e580   Section        0  nrfx_gpiote.o(i.nrfx_gpiote_in_is_set)
    i.nrfx_gpiote_init                       0x0001e594   Section        0  nrfx_gpiote.o(i.nrfx_gpiote_init)
    i.nrfx_gpiote_is_init                    0x0001e668   Section        0  nrfx_gpiote.o(i.nrfx_gpiote_is_init)
    i.nrfx_is_in_ram                         0x0001e67c   Section        0  nrfx_uarte.o(i.nrfx_is_in_ram)
    nrfx_is_in_ram                           0x0001e67d   Thumb Code    20  nrfx_uarte.o(i.nrfx_is_in_ram)
    i.nrfx_power_clock_irq_init              0x0001e690   Section        0  nrfx_clock.o(i.nrfx_power_clock_irq_init)
    nrfx_power_clock_irq_init                0x0001e691   Thumb Code   168  nrfx_clock.o(i.nrfx_power_clock_irq_init)
    i.nrfx_prs_acquire                       0x0001e740   Section        0  nrfx_prs.o(i.nrfx_prs_acquire)
    i.nrfx_uart_0_irq_handler                0x0001e790   Section        0  nrfx_uart.o(i.nrfx_uart_0_irq_handler)
    i.nrfx_uart_init                         0x0001e7a4   Section        0  nrfx_uart.o(i.nrfx_uart_init)
    i.nrfx_uart_rx                           0x0001e82c   Section        0  nrfx_uart.o(i.nrfx_uart_rx)
    i.nrfx_uart_tx                           0x0001e950   Section        0  nrfx_uart.o(i.nrfx_uart_tx)
    i.nrfx_uart_tx_in_progress               0x0001e9dc   Section        0  nrfx_uart.o(i.nrfx_uart_tx_in_progress)
    i.nrfx_uarte_0_irq_handler               0x0001ea00   Section        0  nrfx_uarte.o(i.nrfx_uarte_0_irq_handler)
    i.nrfx_uarte_init                        0x0001ea14   Section        0  nrfx_uarte.o(i.nrfx_uarte_init)
    i.nrfx_uarte_rx                          0x0001ea94   Section        0  nrfx_uarte.o(i.nrfx_uarte_rx)
    i.nrfx_uarte_tx                          0x0001ebcc   Section        0  nrfx_uarte.o(i.nrfx_uarte_tx)
    i.nrfx_uarte_tx_in_progress              0x0001ec8c   Section        0  nrfx_uarte.o(i.nrfx_uarte_tx_in_progress)
    i.nus_data_handler                       0x0001ecac   Section        0  main.o(i.nus_data_handler)
    nus_data_handler                         0x0001ecad   Thumb Code   116  main.o(i.nus_data_handler)
    i.on_adv_evt                             0x0001ed54   Section        0  main.o(i.on_adv_evt)
    on_adv_evt                               0x0001ed55   Thumb Code    50  main.o(i.on_adv_evt)
    i.on_compare1_evt                        0x0001ed88   Section        0  app_timer2.o(i.on_compare1_evt)
    on_compare1_evt                          0x0001ed89   Thumb Code    14  app_timer2.o(i.on_compare1_evt)
    i.on_compare_evt                         0x0001ed9c   Section        0  app_timer2.o(i.on_compare_evt)
    on_compare_evt                           0x0001ed9d   Thumb Code    26  app_timer2.o(i.on_compare_evt)
    i.on_conn_params_evt                     0x0001edbc   Section        0  main.o(i.on_conn_params_evt)
    on_conn_params_evt                       0x0001edbd   Thumb Code    38  main.o(i.on_conn_params_evt)
    i.on_conn_params_update                  0x0001ede8   Section        0  ble_conn_params.o(i.on_conn_params_update)
    on_conn_params_update                    0x0001ede9   Thumb Code    48  ble_conn_params.o(i.on_conn_params_update)
    i.on_connect                             0x0001ee18   Section        0  ble_conn_params.o(i.on_connect)
    on_connect                               0x0001ee19   Thumb Code   102  ble_conn_params.o(i.on_connect)
    i.on_connect                             0x0001ee88   Section        0  ble_nus.o(i.on_connect)
    on_connect                               0x0001ee89   Thumb Code   116  ble_nus.o(i.on_connect)
    i.on_connected                           0x0001eefc   Section        0  ble_advertising.o(i.on_connected)
    on_connected                             0x0001eefd   Thumb Code    14  ble_advertising.o(i.on_connected)
    i.on_connected_evt                       0x0001ef0c   Section        0  nrf_ble_gatt.o(i.on_connected_evt)
    on_connected_evt                         0x0001ef0d   Thumb Code   106  nrf_ble_gatt.o(i.on_connected_evt)
    i.on_disconnect                          0x0001efb4   Section        0  ble_conn_params.o(i.on_disconnect)
    on_disconnect                            0x0001efb5   Thumb Code    50  ble_conn_params.o(i.on_disconnect)
    i.on_disconnected                        0x0001efe6   Section        0  ble_advertising.o(i.on_disconnected)
    on_disconnected                          0x0001efe7   Thumb Code    50  ble_advertising.o(i.on_disconnected)
    i.on_disconnected_evt                    0x0001f018   Section        0  nrf_ble_gatt.o(i.on_disconnected_evt)
    on_disconnected_evt                      0x0001f019   Thumb Code    24  nrf_ble_gatt.o(i.on_disconnected_evt)
    i.on_exchange_mtu_request_evt            0x0001f030   Section        0  nrf_ble_gatt.o(i.on_exchange_mtu_request_evt)
    on_exchange_mtu_request_evt              0x0001f031   Thumb Code   142  nrf_ble_gatt.o(i.on_exchange_mtu_request_evt)
    i.on_exchange_mtu_rsp_evt                0x0001f0fc   Section        0  nrf_ble_gatt.o(i.on_exchange_mtu_rsp_evt)
    on_exchange_mtu_rsp_evt                  0x0001f0fd   Thumb Code    98  nrf_ble_gatt.o(i.on_exchange_mtu_rsp_evt)
    i.on_hvx_tx_complete                     0x0001f164   Section        0  ble_nus.o(i.on_hvx_tx_complete)
    on_hvx_tx_complete                       0x0001f165   Thumb Code    72  ble_nus.o(i.on_hvx_tx_complete)
    i.on_overflow_evt                        0x0001f1ac   Section        0  app_timer2.o(i.on_overflow_evt)
    on_overflow_evt                          0x0001f1ad   Thumb Code    24  app_timer2.o(i.on_overflow_evt)
    i.on_rw_authorize_request                0x0001f1c8   Section        0  nrf_ble_qwr.o(i.on_rw_authorize_request)
    on_rw_authorize_request                  0x0001f1c9   Thumb Code   106  nrf_ble_qwr.o(i.on_rw_authorize_request)
    i.on_terminated                          0x0001f232   Section        0  ble_advertising.o(i.on_terminated)
    on_terminated                            0x0001f233   Thumb Code    64  ble_advertising.o(i.on_terminated)
    i.on_user_mem_release                    0x0001f272   Section        0  nrf_ble_qwr.o(i.on_user_mem_release)
    on_user_mem_release                      0x0001f273   Thumb Code     2  nrf_ble_qwr.o(i.on_user_mem_release)
    i.on_user_mem_request                    0x0001f274   Section        0  nrf_ble_qwr.o(i.on_user_mem_request)
    on_user_mem_request                      0x0001f275   Thumb Code    32  nrf_ble_qwr.o(i.on_user_mem_request)
    i.on_write                               0x0001f294   Section        0  ble_conn_params.o(i.on_write)
    on_write                                 0x0001f295   Thumb Code    82  ble_conn_params.o(i.on_write)
    i.on_write                               0x0001f2ec   Section        0  ble_nus.o(i.on_write)
    on_write                                 0x0001f2ed   Thumb Code   148  ble_nus.o(i.on_write)
    i.phy_is_valid                           0x0001f380   Section        0  ble_advertising.o(i.phy_is_valid)
    phy_is_valid                             0x0001f381   Thumb Code    22  ble_advertising.o(i.phy_is_valid)
    i.pin_configured_set                     0x0001f398   Section        0  nrfx_gpiote.o(i.pin_configured_set)
    pin_configured_set                       0x0001f399   Thumb Code    28  nrfx_gpiote.o(i.pin_configured_set)
    i.pin_in_use_by_gpiote                   0x0001f3b8   Section        0  nrfx_gpiote.o(i.pin_in_use_by_gpiote)
    pin_in_use_by_gpiote                     0x0001f3b9   Thumb Code    22  nrfx_gpiote.o(i.pin_in_use_by_gpiote)
    i.pin_in_use_by_port                     0x0001f3d4   Section        0  nrfx_gpiote.o(i.pin_in_use_by_port)
    pin_in_use_by_port                       0x0001f3d5   Thumb Code    18  nrfx_gpiote.o(i.pin_in_use_by_port)
    i.pin_in_use_by_te                       0x0001f3ec   Section        0  nrfx_gpiote.o(i.pin_in_use_by_te)
    pin_in_use_by_te                         0x0001f3ed   Thumb Code    26  nrfx_gpiote.o(i.pin_in_use_by_te)
    i.pin_in_use_clear                       0x0001f40c   Section        0  nrfx_gpiote.o(i.pin_in_use_clear)
    pin_in_use_clear                         0x0001f40d   Thumb Code     8  nrfx_gpiote.o(i.pin_in_use_clear)
    i.port_event_handle                      0x0001f418   Section        0  nrfx_gpiote.o(i.port_event_handle)
    port_event_handle                        0x0001f419   Thumb Code   186  nrfx_gpiote.o(i.port_event_handle)
    i.port_handler_pin_get                   0x0001f4d8   Section        0  nrfx_gpiote.o(i.port_handler_pin_get)
    port_handler_pin_get                     0x0001f4d9   Thumb Code    12  nrfx_gpiote.o(i.port_handler_pin_get)
    i.port_handler_polarity_get              0x0001f4e8   Section        0  nrfx_gpiote.o(i.port_handler_polarity_get)
    port_handler_polarity_get                0x0001f4e9   Thumb Code    10  nrfx_gpiote.o(i.port_handler_polarity_get)
    i.postfix_process                        0x0001f4f8   Section        0  nrf_log_str_formatter.o(i.postfix_process)
    postfix_process                          0x0001f4f9   Thumb Code    58  nrf_log_str_formatter.o(i.postfix_process)
    i.power_management_init                  0x0001f540   Section        0  main.o(i.power_management_init)
    power_management_init                    0x0001f541   Thumb Code    28  main.o(i.power_management_init)
    i.prefix_process                         0x0001f55c   Section        0  nrf_log_str_formatter.o(i.prefix_process)
    prefix_process                           0x0001f55d   Thumb Code    98  nrf_log_str_formatter.o(i.prefix_process)
    i.prs_box_get                            0x0001f600   Section        0  nrfx_prs.o(i.prs_box_get)
    prs_box_get                              0x0001f601   Thumb Code    16  nrfx_prs.o(i.prs_box_get)
    i.ram_end_address_get                    0x0001f618   Section        0  nrf_sdh_ble.o(i.ram_end_address_get)
    ram_end_address_get                      0x0001f619   Thumb Code    12  nrf_sdh_ble.o(i.ram_end_address_get)
    i.record_activate                        0x0001f628   Section        0  ble_conn_state.o(i.record_activate)
    record_activate                          0x0001f629   Thumb Code    34  ble_conn_state.o(i.record_activate)
    i.record_invalidate                      0x0001f650   Section        0  ble_conn_state.o(i.record_invalidate)
    record_invalidate                        0x0001f651   Thumb Code    28  ble_conn_state.o(i.record_invalidate)
    i.record_purge_disconnected              0x0001f670   Section        0  ble_conn_state.o(i.record_purge_disconnected)
    record_purge_disconnected                0x0001f671   Thumb Code    66  ble_conn_state.o(i.record_purge_disconnected)
    i.record_set_disconnected                0x0001f6b8   Section        0  ble_conn_state.o(i.record_set_disconnected)
    record_set_disconnected                  0x0001f6b9   Thumb Code    14  ble_conn_state.o(i.record_set_disconnected)
    i.rtc_irq                                0x0001f6cc   Section        0  app_timer2.o(i.rtc_irq)
    rtc_irq                                  0x0001f6cd   Thumb Code    62  app_timer2.o(i.rtc_irq)
    i.rtc_schedule                           0x0001f70c   Section        0  app_timer2.o(i.rtc_schedule)
    rtc_schedule                             0x0001f70d   Thumb Code   116  app_timer2.o(i.rtc_schedule)
    i.rtc_update                             0x0001f788   Section        0  app_timer2.o(i.rtc_update)
    rtc_update                               0x0001f789   Thumb Code   154  app_timer2.o(i.rtc_update)
    i.rx_byte                                0x0001f82c   Section        0  nrfx_uart.o(i.rx_byte)
    rx_byte                                  0x0001f82d   Thumb Code    62  nrfx_uart.o(i.rx_byte)
    i.rx_done_event                          0x0001f86a   Section        0  nrfx_uart.o(i.rx_done_event)
    rx_done_event                            0x0001f86b   Thumb Code    28  nrfx_uart.o(i.rx_done_event)
    i.rx_done_event                          0x0001f886   Section        0  nrfx_uarte.o(i.rx_done_event)
    rx_done_event                            0x0001f887   Thumb Code    28  nrfx_uarte.o(i.rx_done_event)
    i.rx_enable                              0x0001f8a2   Section        0  nrfx_uart.o(i.rx_enable)
    rx_enable                                0x0001f8a3   Thumb Code    34  nrfx_uart.o(i.rx_enable)
    i.sd_nvic_EnableIRQ                      0x0001f8c4   Section        0  nrf_sdh.o(i.sd_nvic_EnableIRQ)
    sd_nvic_EnableIRQ                        0x0001f8c5   Thumb Code   150  nrf_sdh.o(i.sd_nvic_EnableIRQ)
    i.sd_nvic_critical_region_enter          0x0001f968   Section        0  app_util_platform.o(i.sd_nvic_critical_region_enter)
    sd_nvic_critical_region_enter            0x0001f969   Thumb Code    90  app_util_platform.o(i.sd_nvic_critical_region_enter)
    i.sd_state_evt_handler                   0x0001f9d0   Section        0  nrf_drv_clock.o(i.sd_state_evt_handler)
    sd_state_evt_handler                     0x0001f9d1   Thumb Code   136  nrf_drv_clock.o(i.sd_state_evt_handler)
    i.sdh_request_observer_notify            0x0001fa60   Section        0  nrf_sdh.o(i.sdh_request_observer_notify)
    sdh_request_observer_notify              0x0001fa61   Thumb Code    56  nrf_sdh.o(i.sdh_request_observer_notify)
    i.sdh_state_observer_notify              0x0001fa9c   Section        0  nrf_sdh.o(i.sdh_state_observer_notify)
    sdh_state_observer_notify                0x0001fa9d   Thumb Code    48  nrf_sdh.o(i.sdh_state_observer_notify)
    i.send_error_evt                         0x0001fad0   Section        0  ble_conn_params.o(i.send_error_evt)
    send_error_evt                           0x0001fad1   Thumb Code    20  ble_conn_params.o(i.send_error_evt)
    i.send_update_request                    0x0001fae8   Section        0  ble_conn_params.o(i.send_update_request)
    send_update_request                      0x0001fae9   Thumb Code    36  ble_conn_params.o(i.send_update_request)
    i.serial_tx                              0x0001fb0c   Section        0  nrf_log_backend_rtt.o(i.serial_tx)
    serial_tx                                0x0001fb0d   Thumb Code   124  nrf_log_backend_rtt.o(i.serial_tx)
    i.service_data_encode                    0x0001fb90   Section        0  ble_advdata.o(i.service_data_encode)
    service_data_encode                      0x0001fb91   Thumb Code   150  ble_advdata.o(i.service_data_encode)
    i.services_init                          0x0001fc28   Section        0  main.o(i.services_init)
    services_init                            0x0001fc29   Thumb Code    76  main.o(i.services_init)
    i.set_adv_mode_directed                  0x0001fc84   Section        0  ble_advertising.o(i.set_adv_mode_directed)
    set_adv_mode_directed                    0x0001fc85   Thumb Code    36  ble_advertising.o(i.set_adv_mode_directed)
    i.set_adv_mode_directed_high_duty        0x0001fca8   Section        0  ble_advertising.o(i.set_adv_mode_directed_high_duty)
    set_adv_mode_directed_high_duty          0x0001fca9   Thumb Code    36  ble_advertising.o(i.set_adv_mode_directed_high_duty)
    i.set_adv_mode_fast                      0x0001fccc   Section        0  ble_advertising.o(i.set_adv_mode_fast)
    set_adv_mode_fast                        0x0001fccd   Thumb Code    78  ble_advertising.o(i.set_adv_mode_fast)
    i.set_adv_mode_slow                      0x0001fd1a   Section        0  ble_advertising.o(i.set_adv_mode_slow)
    set_adv_mode_slow                        0x0001fd1b   Thumb Code    78  ble_advertising.o(i.set_adv_mode_slow)
    i.set_security_req                       0x0001fd68   Section        0  ble_srv_common.o(i.set_security_req)
    set_security_req                         0x0001fd69   Thumb Code   190  ble_srv_common.o(i.set_security_req)
    i.sleep_mode_enter                       0x0001fe26   Section        0  main.o(i.sleep_mode_enter)
    sleep_mode_enter                         0x0001fe27   Thumb Code    76  main.o(i.sleep_mode_enter)
    i.soc_evt_handler                        0x0001fe74   Section        0  nrf_drv_clock.o(i.soc_evt_handler)
    soc_evt_handler                          0x0001fe75   Thumb Code    22  nrf_drv_clock.o(i.soc_evt_handler)
    i.softdevices_evt_irq_enable             0x0001fe90   Section        0  nrf_sdh.o(i.softdevices_evt_irq_enable)
    softdevices_evt_irq_enable               0x0001fe91   Thumb Code    30  nrf_sdh.o(i.softdevices_evt_irq_enable)
    i.sorted_list_stop_all                   0x0001feae   Section        0  app_timer2.o(i.sorted_list_stop_all)
    sorted_list_stop_all                     0x0001feaf   Thumb Code    20  app_timer2.o(i.sorted_list_stop_all)
    i.sortlist_pop                           0x0001fec4   Section        0  app_timer2.o(i.sortlist_pop)
    sortlist_pop                             0x0001fec5   Thumb Code    20  app_timer2.o(i.sortlist_pop)
    i.startup_event_extract                  0x0001fedc   Section        0  bsp_btn_ble.o(i.startup_event_extract)
    startup_event_extract                    0x0001fedd   Thumb Code    38  bsp_btn_ble.o(i.startup_event_extract)
    i.state_get                              0x0001ff04   Section        0  app_button.o(i.state_get)
    state_get                                0x0001ff05   Thumb Code    28  app_button.o(i.state_get)
    i.state_set                              0x0001ff24   Section        0  app_button.o(i.state_set)
    state_set                                0x0001ff25   Thumb Code    68  app_button.o(i.state_set)
    i.std_header_set                         0x0001ff6c   Section        0  nrf_log_frontend.o(i.std_header_set)
    std_header_set                           0x0001ff6d   Thumb Code    96  nrf_log_frontend.o(i.std_header_set)
    i.std_n                                  0x0001ffd0   Section        0  nrf_log_frontend.o(i.std_n)
    std_n                                    0x0001ffd1   Thumb Code   104  nrf_log_frontend.o(i.std_n)
    i.string_print                           0x00020040   Section        0  nrf_fprintf_format.o(i.string_print)
    string_print                             0x00020041   Thumb Code   116  nrf_fprintf_format.o(i.string_print)
    i.ticks_sub                              0x000200b4   Section        0  drv_rtc.o(i.ticks_sub)
    ticks_sub                                0x000200b5   Thumb Code    10  drv_rtc.o(i.ticks_sub)
    i.timer_expire                           0x000200c0   Section        0  app_timer2.o(i.timer_expire)
    timer_expire                             0x000200c1   Thumb Code    98  app_timer2.o(i.timer_expire)
    i.timer_req_process                      0x0002012c   Section        0  app_timer2.o(i.timer_req_process)
    timer_req_process                        0x0002012d   Thumb Code   130  app_timer2.o(i.timer_req_process)
    i.timer_req_schedule                     0x000201c0   Section        0  app_timer2.o(i.timer_req_schedule)
    timer_req_schedule                       0x000201c1   Thumb Code    56  app_timer2.o(i.timer_req_schedule)
    i.timer_start                            0x00020200   Section        0  app_button.o(i.timer_start)
    timer_start                              0x00020201   Thumb Code    22  app_button.o(i.timer_start)
    i.timers_init                            0x00020220   Section        0  main.o(i.timers_init)
    timers_init                              0x00020221   Thumb Code    28  main.o(i.timers_init)
    i.timestamp_print                        0x0002023c   Section        0  nrf_log_str_formatter.o(i.timestamp_print)
    timestamp_print                          0x0002023d   Thumb Code     2  nrf_log_str_formatter.o(i.timestamp_print)
    i.tx_blocking                            0x0002023e   Section        0  nrfx_uart.o(i.tx_blocking)
    tx_blocking                              0x0002023f   Thumb Code    54  nrfx_uart.o(i.tx_blocking)
    i.tx_byte                                0x00020274   Section        0  nrfx_uart.o(i.tx_byte)
    tx_byte                                  0x00020275   Thumb Code    38  nrfx_uart.o(i.tx_byte)
    i.tx_done_event                          0x0002029a   Section        0  nrfx_uart.o(i.tx_done_event)
    tx_done_event                            0x0002029b   Thumb Code    32  nrfx_uart.o(i.tx_done_event)
    i.tx_done_event                          0x000202ba   Section        0  nrfx_uarte.o(i.tx_done_event)
    tx_done_event                            0x000202bb   Thumb Code    32  nrfx_uarte.o(i.tx_done_event)
    i.tx_power_level_encode                  0x000202da   Section        0  ble_advdata.o(i.tx_power_level_encode)
    tx_power_level_encode                    0x000202db   Thumb Code    54  ble_advdata.o(i.tx_power_level_encode)
    i.uart_event_handle                      0x00020310   Section        0  main.o(i.uart_event_handle)
    i.uart_event_handler                     0x000203dc   Section        0  app_uart_fifo.o(i.uart_event_handler)
    uart_event_handler                       0x000203dd   Thumb Code   200  app_uart_fifo.o(i.uart_event_handler)
    i.uart_evt_handler                       0x000204c0   Section        0  nrf_drv_uart.o(i.uart_evt_handler)
    uart_evt_handler                         0x000204c1   Thumb Code    46  nrf_drv_uart.o(i.uart_evt_handler)
    i.uart_init                              0x000204f8   Section        0  main.o(i.uart_init)
    uart_init                                0x000204f9   Thumb Code    74  main.o(i.uart_init)
    i.uart_irq_handler                       0x00020554   Section        0  nrfx_uart.o(i.uart_irq_handler)
    uart_irq_handler                         0x00020555   Thumb Code   334  nrfx_uart.o(i.uart_irq_handler)
    i.uarte_evt_handler                      0x000206a4   Section        0  nrf_drv_uart.o(i.uarte_evt_handler)
    uarte_evt_handler                        0x000206a5   Thumb Code    46  nrf_drv_uart.o(i.uarte_evt_handler)
    i.uarte_irq_handler                      0x000206dc   Section        0  nrfx_uarte.o(i.uarte_irq_handler)
    uarte_irq_handler                        0x000206dd   Thumb Code   308  nrfx_uarte.o(i.uarte_irq_handler)
    i.uint16_decode                          0x00020810   Section        0  ble_srv_common.o(i.uint16_decode)
    uint16_decode                            0x00020811   Thumb Code    12  ble_srv_common.o(i.uint16_decode)
    i.uint16_encode                          0x0002081c   Section        0  ble_advdata.o(i.uint16_encode)
    uint16_encode                            0x0002081d   Thumb Code    12  ble_advdata.o(i.uint16_encode)
    i.unsigned_print                         0x00020828   Section        0  nrf_fprintf_format.o(i.unsigned_print)
    unsigned_print                           0x00020829   Thumb Code   178  nrf_fprintf_format.o(i.unsigned_print)
    i.update_timeout_handler                 0x000208e0   Section        0  ble_conn_params.o(i.update_timeout_handler)
    update_timeout_handler                   0x000208e1   Thumb Code   110  ble_conn_params.o(i.update_timeout_handler)
    i.use_whitelist                          0x00020954   Section        0  ble_advertising.o(i.use_whitelist)
    use_whitelist                            0x00020955   Thumb Code    30  ble_advertising.o(i.use_whitelist)
    i.user_mem_reply                         0x00020972   Section        0  nrf_ble_qwr.o(i.user_mem_reply)
    user_mem_reply                           0x00020973   Thumb Code    44  nrf_ble_qwr.o(i.user_mem_reply)
    i.usr_event                              0x0002099e   Section        0  app_button.o(i.usr_event)
    usr_event                                0x0002099f   Thumb Code    30  app_button.o(i.usr_event)
    i.uuid_list_encode                       0x000209bc   Section        0  ble_advdata.o(i.uuid_list_encode)
    uuid_list_encode                         0x000209bd   Thumb Code    78  ble_advdata.o(i.uuid_list_encode)
    i.uuid_list_sized_encode                 0x00020a0a   Section        0  ble_advdata.o(i.uuid_list_sized_encode)
    uuid_list_sized_encode                   0x00020a0b   Thumb Code   214  ble_advdata.o(i.uuid_list_sized_encode)
    i.wakeup_button_cfg                      0x00020ae0   Section        0  bsp.o(i.wakeup_button_cfg)
    wakeup_button_cfg                        0x00020ae1   Thumb Code    86  bsp.o(i.wakeup_button_cfg)
    i.whitelist_has_entries                  0x00020b36   Section        0  ble_advertising.o(i.whitelist_has_entries)
    whitelist_has_entries                    0x00020b37   Thumb Code     8  ble_advertising.o(i.whitelist_has_entries)
    .constdata                               0x00020b40   Section       32  main.o(.constdata)
    delay_machine_code                       0x00020b40   Data           6  main.o(.constdata)
    .constdata                               0x00020b60   Section        4  boards.o(.constdata)
    m_board_btn_list                         0x00020b60   Data           4  boards.o(.constdata)
    .constdata                               0x00020b64   Section       36  bsp.o(.constdata)
    m_bsp_button_tmr                         0x00020b64   Data           4  bsp.o(.constdata)
    app_buttons                              0x00020b68   Data          32  bsp.o(.constdata)
    .constdata                               0x00020b88   Section       14  nrf_ble_gatt.o(.constdata)
    .constdata                               0x00020b98   Section       16  ble_nus.o(.constdata)
    .constdata                               0x00020ba8   Section       62  nrfx_gpiote.o(.constdata)
    __func__                                 0x00020bac   Data          17  nrfx_gpiote.o(.constdata)
    __func__                                 0x00020bbd   Data          21  nrfx_gpiote.o(.constdata)
    __func__                                 0x00020bd2   Data          20  nrfx_gpiote.o(.constdata)
    .constdata                               0x00020be8   Section       46  nrfx_uart.o(.constdata)
    __func__                                 0x00020be8   Data          15  nrfx_uart.o(.constdata)
    irq_handlers                             0x00020bf8   Data           4  nrfx_uart.o(.constdata)
    __func__                                 0x00020bfc   Data          13  nrfx_uart.o(.constdata)
    __func__                                 0x00020c09   Data          13  nrfx_uart.o(.constdata)
    .constdata                               0x00020c18   Section       48  nrfx_uarte.o(.constdata)
    __func__                                 0x00020c18   Data          16  nrfx_uarte.o(.constdata)
    irq_handlers                             0x00020c28   Data           4  nrfx_uarte.o(.constdata)
    __func__                                 0x00020c2c   Data          14  nrfx_uarte.o(.constdata)
    __func__                                 0x00020c3a   Data          14  nrfx_uarte.o(.constdata)
    .constdata                               0x00020c48   Section        7  app_button.o(.constdata)
    m_detection_delay_timer_id               0x00020c48   Data           4  app_button.o(.constdata)
    .constdata                               0x00020c50   Section       20  app_timer2.o(.constdata)
    m_req_fifo                               0x00020c50   Data           4  app_timer2.o(.constdata)
    m_app_timer_sortlist                     0x00020c54   Data          12  app_timer2.o(.constdata)
    .constdata                               0x00020c64   Section       32  app_uart_fifo.o(.constdata)
    .constdata                               0x00020c90   Section        6  drv_rtc.o(.constdata)
    delay_machine_code                       0x00020c90   Data           6  drv_rtc.o(.constdata)
    .constdata                               0x00020c96   Section       16  nrf_fprintf_format.o(.constdata)
    _aV2C                                    0x00020c96   Data          16  nrf_fprintf_format.o(.constdata)
    .constdata                               0x00020ca8   Section       36  nrf_pwr_mgmt.o(.constdata)
    pwr_mgmt_data_array                      0x00020ca8   Data          24  nrf_pwr_mgmt.o(.constdata)
    pwr_mgmt_data                            0x00020cc0   Data          12  nrf_pwr_mgmt.o(.constdata)
    .constdata                               0x00020ccc   Section      316  nrf_strerror.o(.constdata)
    m_unknown_str                            0x00020ccc   Data          19  nrf_strerror.o(.constdata)
    nrf_strerror_array                       0x00020ce0   Data         296  nrf_strerror.o(.constdata)
    .constdata                               0x00020e10   Section       22  nrf_log_backend_rtt.o(.constdata)
    delay_machine_code                       0x00020e20   Data           6  nrf_log_backend_rtt.o(.constdata)
    .constdata                               0x00020e28   Section       12  nrf_log_frontend.o(.constdata)
    m_log_push_ringbuf                       0x00020e28   Data          12  nrf_log_frontend.o(.constdata)
    .constdata                               0x00020e34   Section       88  nrf_sdh.o(.constdata)
    sdh_req_observers_array                  0x00020e34   Data          16  nrf_sdh.o(.constdata)
    sdh_req_observers                        0x00020e44   Data          12  nrf_sdh.o(.constdata)
    sdh_state_observers_array                0x00020e50   Data          16  nrf_sdh.o(.constdata)
    sdh_state_observers                      0x00020e60   Data          12  nrf_sdh.o(.constdata)
    sdh_stack_observers_array                0x00020e6c   Data          16  nrf_sdh.o(.constdata)
    sdh_stack_observers                      0x00020e7c   Data          12  nrf_sdh.o(.constdata)
    .constdata                               0x00020e8c   Section       48  nrf_sdh_ble.o(.constdata)
    sdh_ble_observers_array                  0x00020e8c   Data          32  nrf_sdh_ble.o(.constdata)
    sdh_ble_observers                        0x00020eac   Data          12  nrf_sdh_ble.o(.constdata)
    .constdata                               0x00020ebc   Section       28  nrf_sdh_soc.o(.constdata)
    sdh_soc_observers_array                  0x00020ebc   Data          16  nrf_sdh_soc.o(.constdata)
    sdh_soc_observers                        0x00020ecc   Data          12  nrf_sdh_soc.o(.constdata)
    .constdata                               0x00020ed8   Section      129  ctype_o.o(.constdata)
    .constdata                               0x00020f5c   Section        4  ctype_o.o(.constdata)
    table                                    0x00020f5c   Data           4  ctype_o.o(.constdata)
    .conststring                             0x00020f60   Section     1003  nrf_strerror.o(.conststring)
    .conststring                             0x0002134c   Section      102  nrf_log_str_formatter.o(.conststring)
    .conststring                             0x000213b4   Section      463  nrf_sdh_ble.o(.conststring)
    .conststrlit                             0x00021584   Section       13  nrf_ble_gatt.o(.conststrlit)
    .conststrlit                             0x00021594   Section        8  ble_nus.o(.conststrlit)
    .conststrlit                             0x0002159c   Section        6  nrf_drv_clock.o(.conststrlit)
    .conststrlit                             0x000215a4   Section        6  nrfx_clock.o(.conststrlit)
    .conststrlit                             0x000215ac   Section        7  nrfx_gpiote.o(.conststrlit)
    .conststrlit                             0x000215b4   Section        4  nrfx_prs.o(.conststrlit)
    .conststrlit                             0x000215b8   Section        5  nrfx_uart.o(.conststrlit)
    .conststrlit                             0x000215c0   Section        6  nrfx_uarte.o(.conststrlit)
    .conststrlit                             0x000215c8   Section       11  app_button.o(.conststrlit)
    .conststrlit                             0x000215d4   Section       10  app_timer2.o(.conststrlit)
    .conststrlit                             0x000215e0   Section        9  nrf_pwr_mgmt.o(.conststrlit)
    .conststrlit                             0x000215ec   Section        9  nrf_sortlist.o(.conststrlit)
    .conststrlit                             0x000215f8   Section       16  nrf_log_default_backends.o(.conststrlit)
    .conststrlit                             0x00021608   Section        4  nrf_log_frontend.o(.conststrlit)
    .conststrlit                             0x0002160c   Section        8  nrf_sdh.o(.conststrlit)
    .conststrlit                             0x00021614   Section       12  nrf_sdh_ble.o(.conststrlit)
    .conststrlit                             0x00021620   Section       12  nrf_sdh_soc.o(.conststrlit)
    log_backends                             0x0002164c   Section       16  nrf_log_default_backends.o(log_backends)
    __tagsym$$used                           0x0002164c   Number         0  nrf_log_default_backends.o(log_backends)
    rtt_log_backend                          0x0002164c   Data          16  nrf_log_default_backends.o(log_backends)
    log_const_data                           0x0002165c   Section        8  nrf_ble_gatt.o(log_const_data)
    __tagsym$$used                           0x0002165c   Number         0  nrf_ble_gatt.o(log_const_data)
    log_const_data                           0x00021664   Section        8  ble_nus.o(log_const_data)
    __tagsym$$used                           0x00021664   Number         0  ble_nus.o(log_const_data)
    log_const_data                           0x0002166c   Section        8  nrf_drv_clock.o(log_const_data)
    __tagsym$$used                           0x0002166c   Number         0  nrf_drv_clock.o(log_const_data)
    log_const_data                           0x00021674   Section        8  nrfx_clock.o(log_const_data)
    __tagsym$$used                           0x00021674   Number         0  nrfx_clock.o(log_const_data)
    log_const_data                           0x0002167c   Section        8  nrfx_gpiote.o(log_const_data)
    __tagsym$$used                           0x0002167c   Number         0  nrfx_gpiote.o(log_const_data)
    log_const_data                           0x00021684   Section        8  nrfx_prs.o(log_const_data)
    __tagsym$$used                           0x00021684   Number         0  nrfx_prs.o(log_const_data)
    log_const_data                           0x0002168c   Section        8  nrfx_uart.o(log_const_data)
    __tagsym$$used                           0x0002168c   Number         0  nrfx_uart.o(log_const_data)
    log_const_data                           0x00021694   Section        8  nrfx_uarte.o(log_const_data)
    __tagsym$$used                           0x00021694   Number         0  nrfx_uarte.o(log_const_data)
    log_const_data                           0x0002169c   Section        8  app_button.o(log_const_data)
    __tagsym$$used                           0x0002169c   Number         0  app_button.o(log_const_data)
    log_const_data                           0x000216a4   Section        8  app_timer2.o(log_const_data)
    __tagsym$$used                           0x000216a4   Number         0  app_timer2.o(log_const_data)
    log_const_data                           0x000216ac   Section        8  nrf_pwr_mgmt.o(log_const_data)
    __tagsym$$used                           0x000216ac   Number         0  nrf_pwr_mgmt.o(log_const_data)
    log_const_data                           0x000216b4   Section        8  nrf_sortlist.o(log_const_data)
    __tagsym$$used                           0x000216b4   Number         0  nrf_sortlist.o(log_const_data)
    log_const_data                           0x000216bc   Section        8  nrf_log_frontend.o(log_const_data)
    __tagsym$$used                           0x000216bc   Number         0  nrf_log_frontend.o(log_const_data)
    log_const_data                           0x000216c4   Section        8  nrf_sdh.o(log_const_data)
    __tagsym$$used                           0x000216c4   Number         0  nrf_sdh.o(log_const_data)
    log_const_data                           0x000216cc   Section        8  nrf_sdh_ble.o(log_const_data)
    __tagsym$$used                           0x000216cc   Number         0  nrf_sdh_ble.o(log_const_data)
    log_const_data                           0x000216d4   Section        8  nrf_sdh_soc.o(log_const_data)
    __tagsym$$used                           0x000216d4   Number         0  nrf_sdh_soc.o(log_const_data)
    nrf_balloc                               0x000216dc   Section       20  nrf_log_frontend.o(nrf_balloc)
    __tagsym$$used                           0x000216dc   Number         0  nrf_log_frontend.o(nrf_balloc)
    sdh_ble_observers0                       0x000216f0   Section        8  ble_conn_state.o(sdh_ble_observers0)
    __tagsym$$used                           0x000216f0   Number         0  ble_conn_state.o(sdh_ble_observers0)
    m_ble_evt_observer                       0x000216f0   Data           8  ble_conn_state.o(sdh_ble_observers0)
    sdh_ble_observers1                       0x000216f8   Section       16  main.o(sdh_ble_observers1)
    __tagsym$$used                           0x000216f8   Number         0  main.o(sdh_ble_observers1)
    m_gatt_obs                               0x000216f8   Data           8  main.o(sdh_ble_observers1)
    __tagsym$$used                           0x00021700   Number         0  main.o(sdh_ble_observers1)
    m_advertising_ble_obs                    0x00021700   Data           8  main.o(sdh_ble_observers1)
    sdh_ble_observers1                       0x00021708   Section        8  bsp_btn_ble.o(sdh_ble_observers1)
    __tagsym$$used                           0x00021708   Number         0  bsp_btn_ble.o(sdh_ble_observers1)
    m_ble_observer                           0x00021708   Data           8  bsp_btn_ble.o(sdh_ble_observers1)
    sdh_ble_observers1                       0x00021710   Section        8  ble_conn_params.o(sdh_ble_observers1)
    __tagsym$$used                           0x00021710   Number         0  ble_conn_params.o(sdh_ble_observers1)
    m_ble_observer                           0x00021710   Data           8  ble_conn_params.o(sdh_ble_observers1)
    sdh_ble_observers2                       0x00021718   Section       16  main.o(sdh_ble_observers2)
    __tagsym$$used                           0x00021718   Number         0  main.o(sdh_ble_observers2)
    m_nus_obs                                0x00021718   Data           8  main.o(sdh_ble_observers2)
    __tagsym$$used                           0x00021720   Number         0  main.o(sdh_ble_observers2)
    m_qwr_obs                                0x00021720   Data           8  main.o(sdh_ble_observers2)
    sdh_ble_observers3                       0x00021728   Section        8  main.o(sdh_ble_observers3)
    __tagsym$$used                           0x00021728   Number         0  main.o(sdh_ble_observers3)
    m_ble_observer                           0x00021728   Data           8  main.o(sdh_ble_observers3)
    sdh_soc_observers0                       0x00021730   Section        8  nrf_drv_clock.o(sdh_soc_observers0)
    __tagsym$$used                           0x00021730   Number         0  nrf_drv_clock.o(sdh_soc_observers0)
    m_soc_evt_observer                       0x00021730   Data           8  nrf_drv_clock.o(sdh_soc_observers0)
    sdh_stack_observers0                     0x00021738   Section        8  nrf_sdh_ble.o(sdh_stack_observers0)
    __tagsym$$used                           0x00021738   Number         0  nrf_sdh_ble.o(sdh_stack_observers0)
    m_nrf_sdh_ble_evts_poll                  0x00021738   Data           8  nrf_sdh_ble.o(sdh_stack_observers0)
    sdh_stack_observers0                     0x00021740   Section        8  nrf_sdh_soc.o(sdh_stack_observers0)
    __tagsym$$used                           0x00021740   Number         0  nrf_sdh_soc.o(sdh_stack_observers0)
    m_nrf_sdh_soc_evts_poll                  0x00021740   Data           8  nrf_sdh_soc.o(sdh_stack_observers0)
    sdh_state_observers0                     0x00021748   Section        8  nrf_drv_clock.o(sdh_state_observers0)
    __tagsym$$used                           0x00021748   Number         0  nrf_drv_clock.o(sdh_state_observers0)
    m_sd_state_observer                      0x00021748   Data           8  nrf_drv_clock.o(sdh_state_observers0)
    .data                                    0x200022c8   Section       49  main.o(.data)
    m_nus_link_ctx_storage_ctx_data_pool     0x200022c8   Data           4  main.o(.data)
    m_nus_link_ctx_storage                   0x200022cc   Data           8  main.o(.data)
    m_nus                                    0x200022d4   Data          28  main.o(.data)
    m_conn_handle                            0x200022f0   Data           2  main.o(.data)
    m_ble_nus_max_data_len                   0x200022f2   Data           2  main.o(.data)
    m_adv_uuids                              0x200022f4   Data           4  main.o(.data)
    index                                    0x200022f8   Data           1  main.o(.data)
    .data                                    0x200022fc   Section        9  bsp.o(.data)
    m_registered_callback                    0x200022fc   Data           4  bsp.o(.data)
    current_long_push_pin_no                 0x20002300   Data           1  bsp.o(.data)
    release_event_at_push                    0x20002301   Data           4  bsp.o(.data)
    .data                                    0x20002308   Section        8  bsp_btn_ble.o(.data)
    m_error_handler                          0x20002308   Data           4  bsp_btn_ble.o(.data)
    m_num_connections                        0x2000230c   Data           4  bsp_btn_ble.o(.data)
    .data                                    0x20002310   Section        8  ble_conn_params.o(.data)
    m_preferred_conn_params                  0x20002310   Data           8  ble_conn_params.o(.data)
    .data                                    0x20002318   Section        9  nrf_drv_uart.o(.data)
    m_handlers                               0x20002318   Data           4  nrf_drv_uart.o(.data)
    m_contexts                               0x2000231c   Data           4  nrf_drv_uart.o(.data)
    .data                                    0x20002324   Section        8  nrfx_clock.o(.data)
    m_clock_cb                               0x20002324   Data           8  nrfx_clock.o(.data)
    .data                                    0x2000232c   Section        8  nrfx_prs.o(.data)
    m_prs_box_2                              0x2000232c   Data           8  nrfx_prs.o(.data)
    .data                                    0x20002338   Section       24  app_button.o(.data)
    mp_buttons                               0x20002338   Data           4  app_button.o(.data)
    m_button_count                           0x2000233c   Data           1  app_button.o(.data)
    m_detection_delay                        0x20002340   Data           4  app_button.o(.data)
    m_pin_active                             0x20002348   Data           8  app_button.o(.data)
    .data                                    0x20002350   Section       36  app_timer2.o(.data)
    m_rtc_inst                               0x20002350   Data           8  app_timer2.o(.data)
    mp_active_timer                          0x20002358   Data           4  app_timer2.o(.data)
    m_global_active                          0x2000235c   Data           1  app_timer2.o(.data)
    m_base_counter                           0x20002360   Data           8  app_timer2.o(.data)
    m_stamp64                                0x20002368   Data           8  app_timer2.o(.data)
    m_app_timer_sortlist_sortlist_cb         0x20002370   Data           4  app_timer2.o(.data)
    .data                                    0x20002374   Section       27  app_uart_fifo.o(.data)
    app_uart_inst                            0x20002374   Data          20  app_uart_fifo.o(.data)
    m_event_handler                          0x20002388   Data           4  app_uart_fifo.o(.data)
    tx_buffer                                0x2000238c   Data           1  app_uart_fifo.o(.data)
    rx_buffer                                0x2000238d   Data           1  app_uart_fifo.o(.data)
    m_rx_ovf                                 0x2000238e   Data           1  app_uart_fifo.o(.data)
    .data                                    0x20002390   Section       12  drv_rtc.o(.data)
    m_handlers                               0x20002390   Data           4  drv_rtc.o(.data)
    m_cb                                     0x20002394   Data           8  drv_rtc.o(.data)
    .data                                    0x2000239c   Section        9  nrf_pwr_mgmt.o(.data)
    m_pwr_mgmt_evt                           0x2000239c   Data           1  nrf_pwr_mgmt.o(.data)
    m_sysoff_mtx                             0x200023a0   Data           4  nrf_pwr_mgmt.o(.data)
    m_shutdown_started                       0x200023a4   Data           1  nrf_pwr_mgmt.o(.data)
    .data                                    0x200023a8   Section        8  retarget.o(.data)
    .data                                    0x200023b0   Section        1  nrf_log_backend_rtt.o(.data)
    m_host_present                           0x200023b0   Data           1  nrf_log_backend_rtt.o(.data)
    .data                                    0x200023b4   Section        8  nrf_log_default_backends.o(.data)
    log_backend_cb_rtt_log_backend           0x200023b4   Data           8  nrf_log_default_backends.o(.data)
    .data                                    0x200023bc   Section       20  nrf_log_frontend.o(.data)
    log_mempool_nrf_balloc_pool_stack        0x200023bc   Data           8  nrf_log_frontend.o(.data)
    log_mempool_nrf_balloc_cb                0x200023c4   Data           8  nrf_log_frontend.o(.data)
    m_buffer_mask                            0x200023cc   Data           4  nrf_log_frontend.o(.data)
    .data                                    0x200023d0   Section       64  nrf_log_str_formatter.o(.data)
    severity_names                           0x200023d0   Data          20  nrf_log_str_formatter.o(.data)
    m_colors                                 0x200023e4   Data          36  nrf_log_str_formatter.o(.data)
    m_freq                                   0x20002408   Data           4  nrf_log_str_formatter.o(.data)
    m_timestamp_div                          0x2000240c   Data           4  nrf_log_str_formatter.o(.data)
    .data                                    0x20002410   Section        3  nrf_sdh.o(.data)
    m_nrf_sdh_enabled                        0x20002410   Data           1  nrf_sdh.o(.data)
    m_nrf_sdh_suspended                      0x20002411   Data           1  nrf_sdh.o(.data)
    m_nrf_sdh_continue                       0x20002412   Data           1  nrf_sdh.o(.data)
    .data                                    0x20002413   Section        1  nrf_sdh_ble.o(.data)
    m_stack_is_enabled                       0x20002413   Data           1  nrf_sdh_ble.o(.data)
    .data                                    0x20002414   Section        4  system_nrf52805.o(.data)
    __tagsym$$used                           0x20002414   Number         0  system_nrf52805.o(.data)
    .bss                                     0x20002418   Section     1032  main.o(.bss)
    m_gatt                                   0x20002418   Data          16  main.o(.bss)
    m_qwr                                    0x20002428   Data          12  main.o(.bss)
    m_advertising                            0x20002434   Data         248  main.o(.bss)
    data_array                               0x2000252c   Data         244  main.o(.bss)
    rx_buf                                   0x20002620   Data         256  main.o(.bss)
    tx_buf                                   0x20002720   Data         256  main.o(.bss)
    .bss                                     0x20002820   Section       48  bsp.o(.bss)
    m_events_list                            0x20002820   Data          12  bsp.o(.bss)
    m_bsp_button_tmr_data                    0x20002830   Data          32  bsp.o(.bss)
    .bss                                     0x20002850   Section       80  ble_conn_params.o(.bss)
    m_timer_data                             0x20002850   Data          32  ble_conn_params.o(.bss)
    m_conn_params_instances                  0x20002870   Data          20  ble_conn_params.o(.bss)
    m_conn_params_config                     0x20002884   Data          28  ble_conn_params.o(.bss)
    .bss                                     0x200028a0   Section      124  ble_conn_state.o(.bss)
    m_bcs                                    0x200028a0   Data         124  ble_conn_state.o(.bss)
    .bss                                     0x2000291c   Section       20  nrf_drv_clock.o(.bss)
    m_clock_cb                               0x2000291c   Data          20  nrf_drv_clock.o(.bss)
    .bss                                     0x20002930   Section       92  nrfx_gpiote.o(.bss)
    m_cb                                     0x20002930   Data          92  nrfx_gpiote.o(.bss)
    .bss                                     0x2000298c   Section       44  nrfx_uart.o(.bss)
    m_cb                                     0x2000298c   Data          44  nrfx_uart.o(.bss)
    .bss                                     0x200029b8   Section       36  nrfx_uarte.o(.bss)
    m_cb                                     0x200029b8   Data          36  nrfx_uarte.o(.bss)
    .bss                                     0x200029e0   Section       48  app_button.o(.bss)
    m_detection_delay_timer_id_data          0x200029e0   Data          32  app_button.o(.bss)
    m_pin_states                             0x20002a00   Data          16  app_button.o(.bss)
    .bss                                     0x20002a10   Section      104  app_timer2.o(.bss)
    m_req_fifo_data                          0x20002a10   Data          88  app_timer2.o(.bss)
    m_req_fifo_inst                          0x20002a68   Data          16  app_timer2.o(.bss)
    .bss                                     0x20002a78   Section       32  app_uart_fifo.o(.bss)
    m_rx_fifo                                0x20002a78   Data          16  app_uart_fifo.o(.bss)
    m_tx_fifo                                0x20002a88   Data          16  app_uart_fifo.o(.bss)
    .bss                                     0x20002a98   Section       12  app_util_platform.o(.bss)
    .bss                                     0x20002aa4   Section       12  nrf_pwr_mgmt.o(.bss)
    m_handlers_iter                          0x20002aa4   Data          12  nrf_pwr_mgmt.o(.bss)
    .bss                                     0x20002ab0   Section       64  nrf_log_backend_rtt.o(.bss)
    m_string_buff                            0x20002ab0   Data          64  nrf_log_backend_rtt.o(.bss)
    .bss                                     0x20002af0   Section     1400  nrf_log_frontend.o(.bss)
    log_mempool_nrf_balloc_pool_mem          0x20002af0   Data         192  nrf_log_frontend.o(.bss)
    m_log_push_ringbuf_buf                   0x20002bb0   Data         128  nrf_log_frontend.o(.bss)
    m_log_push_ringbuf_cb                    0x20002c30   Data          24  nrf_log_frontend.o(.bss)
    m_log_data                               0x20002c48   Data        1056  nrf_log_frontend.o(.bss)
    .bss                                     0x20003068   Section      648  segger_rtt.o(.bss)
    _acUpBuffer                              0x200030e0   Data         512  segger_rtt.o(.bss)
    _acDownBuffer                            0x200032e0   Data          16  segger_rtt.o(.bss)
    STACK                                    0x200032f0   Section     2048  arm_startup_nrf52805.o(STACK)

    Global Symbols

    Symbol Name                              Value     Ov Type        Size  Object(Section)

    BuildAttributes$$THM_ISAv4$E$P$D$K$B$S$7EM$PE$A:L22UL41UL21$X:L11$S22US41US21$IEEE1$IW$USESV6$~STKCKD$USESV7$~SHL$OSPACE$ROPI$EBA8$MICROLIB$REQ8$EABIv2 0x00000000   Number         0  anon$$obj.o ABSOLUTE
    __ARM_use_no_argv                        0x00000000   Number         0  main.o ABSOLUTE
    __cpp_initialize__aeabi_                  - Undefined Weak Reference
    __cxa_finalize                            - Undefined Weak Reference
    _clock_init                               - Undefined Weak Reference
    _microlib_exit                            - Undefined Weak Reference
    log_dynamic_data$$Base                    - Undefined Reference
    pwr_mgmt_data0$$Base                      - Undefined Reference
    pwr_mgmt_data0$$Limit                     - Undefined Reference
    pwr_mgmt_data1$$Base                      - Undefined Reference
    pwr_mgmt_data1$$Limit                     - Undefined Reference
    pwr_mgmt_data2$$Base                      - Undefined Reference
    pwr_mgmt_data2$$Limit                     - Undefined Reference
    sdh_req_observers0$$Base                  - Undefined Reference
    sdh_req_observers0$$Limit                 - Undefined Reference
    sdh_req_observers1$$Base                  - Undefined Reference
    sdh_req_observers1$$Limit                 - Undefined Reference
    sdh_soc_observers1$$Base                  - Undefined Reference
    sdh_soc_observers1$$Limit                 - Undefined Reference
    sdh_stack_observers1$$Base                - Undefined Reference
    sdh_stack_observers1$$Limit               - Undefined Reference
    sdh_state_observers1$$Base                - Undefined Reference
    sdh_state_observers1$$Limit               - Undefined Reference
    __Vectors_Size                           0x00000200   Number         0  arm_startup_nrf52805.o ABSOLUTE
    __Vectors                                0x00019000   Data           4  arm_startup_nrf52805.o(RESET)
    __Vectors_End                            0x00019200   Data           0  arm_startup_nrf52805.o(RESET)
    __main                                   0x00019201   Thumb Code     0  entry.o(.ARM.Collect$$$$00000000)
    _main_stk                                0x00019201   Thumb Code     0  entry2.o(.ARM.Collect$$$$00000001)
    _main_scatterload                        0x00019205   Thumb Code     0  entry5.o(.ARM.Collect$$$$00000004)
    __main_after_scatterload                 0x00019209   Thumb Code     0  entry5.o(.ARM.Collect$$$$00000004)
    _main_clock                              0x00019209   Thumb Code     0  entry7b.o(.ARM.Collect$$$$00000008)
    _main_cpp_init                           0x00019209   Thumb Code     0  entry8b.o(.ARM.Collect$$$$0000000A)
    _main_init                               0x00019209   Thumb Code     0  entry9a.o(.ARM.Collect$$$$0000000B)
    __rt_final_cpp                           0x00019211   Thumb Code     0  entry10a.o(.ARM.Collect$$$$0000000D)
    __rt_final_exit                          0x00019211   Thumb Code     0  entry11a.o(.ARM.Collect$$$$0000000F)
    __asm___12_nrf_atfifo_c_51f461e1__nrf_atfifo_wspace_req 0x00019215   Thumb Code    56  nrf_atfifo.o(.emb_text)
    __asm___12_nrf_atfifo_c_51f461e1__nrf_atfifo_wspace_close 0x0001924d   Thumb Code    18  nrf_atfifo.o(.emb_text)
    __asm___12_nrf_atfifo_c_51f461e1__nrf_atfifo_rspace_req 0x0001925f   Thumb Code    58  nrf_atfifo.o(.emb_text)
    __asm___12_nrf_atfifo_c_51f461e1__nrf_atfifo_rspace_close 0x00019299   Thumb Code    18  nrf_atfifo.o(.emb_text)
    __asm___12_nrf_atfifo_c_51f461e1__nrf_atfifo_space_clear 0x000192ab   Thumb Code    50  nrf_atfifo.o(.emb_text)
    __asm___12_nrf_atomic_c_85ca2469__nrf_atomic_internal_mov 0x000192dd   Thumb Code    24  nrf_atomic.o(.emb_text)
    __asm___12_nrf_atomic_c_85ca2469__nrf_atomic_internal_orr 0x000192f5   Thumb Code    26  nrf_atomic.o(.emb_text)
    __asm___12_nrf_atomic_c_85ca2469__nrf_atomic_internal_and 0x0001930f   Thumb Code    26  nrf_atomic.o(.emb_text)
    __asm___12_nrf_atomic_c_85ca2469__nrf_atomic_internal_eor 0x00019329   Thumb Code    26  nrf_atomic.o(.emb_text)
    __asm___12_nrf_atomic_c_85ca2469__nrf_atomic_internal_add 0x00019343   Thumb Code    26  nrf_atomic.o(.emb_text)
    __asm___12_nrf_atomic_c_85ca2469__nrf_atomic_internal_sub 0x0001935d   Thumb Code    26  nrf_atomic.o(.emb_text)
    __asm___12_nrf_atomic_c_85ca2469__nrf_atomic_internal_cmp_exch 0x00019377   Thumb Code    42  nrf_atomic.o(.emb_text)
    __asm___12_nrf_atomic_c_85ca2469__nrf_atomic_internal_sub_hs 0x000193a1   Thumb Code    30  nrf_atomic.o(.emb_text)
    Reset_Handler                            0x000193c1   Thumb Code     8  arm_startup_nrf52805.o(.text)
    NMI_Handler                              0x000193c9   Thumb Code     2  arm_startup_nrf52805.o(.text)
    HardFault_Handler                        0x000193cb   Thumb Code     2  arm_startup_nrf52805.o(.text)
    MemoryManagement_Handler                 0x000193cd   Thumb Code     2  arm_startup_nrf52805.o(.text)
    BusFault_Handler                         0x000193cf   Thumb Code     2  arm_startup_nrf52805.o(.text)
    UsageFault_Handler                       0x000193d1   Thumb Code     2  arm_startup_nrf52805.o(.text)
    SVC_Handler                              0x000193d3   Thumb Code     2  arm_startup_nrf52805.o(.text)
    DebugMon_Handler                         0x000193d5   Thumb Code     2  arm_startup_nrf52805.o(.text)
    PendSV_Handler                           0x000193d7   Thumb Code     2  arm_startup_nrf52805.o(.text)
    SysTick_Handler                          0x000193d9   Thumb Code     2  arm_startup_nrf52805.o(.text)
    CCM_AAR_IRQHandler                       0x000193db   Thumb Code     0  arm_startup_nrf52805.o(.text)
    ECB_IRQHandler                           0x000193db   Thumb Code     0  arm_startup_nrf52805.o(.text)
    QDEC_IRQHandler                          0x000193db   Thumb Code     0  arm_startup_nrf52805.o(.text)
    RADIO_IRQHandler                         0x000193db   Thumb Code     0  arm_startup_nrf52805.o(.text)
    RNG_IRQHandler                           0x000193db   Thumb Code     0  arm_startup_nrf52805.o(.text)
    RTC0_IRQHandler                          0x000193db   Thumb Code     0  arm_startup_nrf52805.o(.text)
    SAADC_IRQHandler                         0x000193db   Thumb Code     0  arm_startup_nrf52805.o(.text)
    SPIM0_SPIS0_SPI0_IRQHandler              0x000193db   Thumb Code     0  arm_startup_nrf52805.o(.text)
    SWI0_EGU0_IRQHandler                     0x000193db   Thumb Code     0  arm_startup_nrf52805.o(.text)
    SWI1_EGU1_IRQHandler                     0x000193db   Thumb Code     0  arm_startup_nrf52805.o(.text)
    SWI3_IRQHandler                          0x000193db   Thumb Code     0  arm_startup_nrf52805.o(.text)
    SWI4_IRQHandler                          0x000193db   Thumb Code     0  arm_startup_nrf52805.o(.text)
    SWI5_IRQHandler                          0x000193db   Thumb Code     0  arm_startup_nrf52805.o(.text)
    TEMP_IRQHandler                          0x000193db   Thumb Code     0  arm_startup_nrf52805.o(.text)
    TIMER0_IRQHandler                        0x000193db   Thumb Code     0  arm_startup_nrf52805.o(.text)
    TIMER1_IRQHandler                        0x000193db   Thumb Code     0  arm_startup_nrf52805.o(.text)
    TIMER2_IRQHandler                        0x000193db   Thumb Code     0  arm_startup_nrf52805.o(.text)
    TWIM0_TWIS0_TWI0_IRQHandler              0x000193db   Thumb Code     0  arm_startup_nrf52805.o(.text)
    WDT_IRQHandler                           0x000193db   Thumb Code     0  arm_startup_nrf52805.o(.text)
    __aeabi_llsl                             0x000193e5   Thumb Code    30  llshl.o(.text)
    _ll_shift_l                              0x000193e5   Thumb Code     0  llshl.o(.text)
    __rt_ctype_table                         0x00019405   Thumb Code     4  ctype_o.o(.text)
    __aeabi_memcpy                           0x0001940d   Thumb Code    36  memcpya.o(.text)
    __aeabi_memcpy4                          0x0001940d   Thumb Code     0  memcpya.o(.text)
    __aeabi_memcpy8                          0x0001940d   Thumb Code     0  memcpya.o(.text)
    __aeabi_memset                           0x00019431   Thumb Code    14  memseta.o(.text)
    __aeabi_memset4                          0x00019431   Thumb Code     0  memseta.o(.text)
    __aeabi_memset8                          0x00019431   Thumb Code     0  memseta.o(.text)
    __aeabi_memclr                           0x0001943f   Thumb Code     4  memseta.o(.text)
    __aeabi_memclr4                          0x0001943f   Thumb Code     0  memseta.o(.text)
    __aeabi_memclr8                          0x0001943f   Thumb Code     0  memseta.o(.text)
    _memset$wrapper                          0x00019443   Thumb Code    18  memseta.o(.text)
    strlen                                   0x00019455   Thumb Code    14  strlen.o(.text)
    strcpy                                   0x00019463   Thumb Code    18  strcpy.o(.text)
    __scatterload                            0x00019475   Thumb Code    28  init.o(.text)
    __scatterload_rt2                        0x00019475   Thumb Code     0  init.o(.text)
    __decompress                             0x00019499   Thumb Code     0  __dczerorl2.o(.text)
    __decompress1                            0x00019499   Thumb Code    86  __dczerorl2.o(.text)
    GPIOTE_IRQHandler                        0x000194f1   Thumb Code   180  nrfx_gpiote.o(i.GPIOTE_IRQHandler)
    POWER_CLOCK_IRQHandler                   0x000195ad   Thumb Code    68  nrfx_clock.o(i.POWER_CLOCK_IRQHandler)
    RTC1_IRQHandler                          0x000195f5   Thumb Code    14  drv_rtc.o(i.RTC1_IRQHandler)
    SEGGER_RTT_Init                          0x0001960d   Thumb Code     8  segger_rtt.o(i.SEGGER_RTT_Init)
    SEGGER_RTT_WriteNoLock                   0x00019615   Thumb Code   126  segger_rtt.o(i.SEGGER_RTT_WriteNoLock)
    SWI2_IRQHandler                          0x00019699   Thumb Code     8  nrf_sdh.o(i.SWI2_IRQHandler)
    SystemCoreClockUpdate                    0x000196a1   Thumb Code     8  system_nrf52805.o(i.SystemCoreClockUpdate)
    SystemInit                               0x000196b1   Thumb Code   424  system_nrf52805.o(i.SystemInit)
    UARTE0_UART0_IRQHandler                  0x00019889   Thumb Code    10  nrfx_prs.o(i.UARTE0_UART0_IRQHandler)
    __0printf$bare                           0x000199e5   Thumb Code     8  printfb.o(i.__0printf$bare)
    __1printf$bare                           0x000199e5   Thumb Code     0  printfb.o(i.__0printf$bare)
    __2printf                                0x000199e5   Thumb Code     0  printfb.o(i.__0printf$bare)
    __scatterload_copy                       0x000199f5   Thumb Code    14  handlers.o(i.__scatterload_copy)
    __scatterload_null                       0x00019a03   Thumb Code     2  handlers.o(i.__scatterload_null)
    __scatterload_zeroinit                   0x00019a05   Thumb Code    14  handlers.o(i.__scatterload_zeroinit)
    app_button_enable                        0x00019bf9   Thumb Code    34  app_button.o(i.app_button_enable)
    app_button_init                          0x00019c25   Thumb Code   140  app_button.o(i.app_button_init)
    app_error_fault_handler                  0x00019cd5   Thumb Code   144  app_error_weak.o(i.app_error_fault_handler)
    app_error_handler_bare                   0x00019d91   Thumb Code    28  app_error.o(i.app_error_handler_bare)
    app_fifo_get                             0x00019dad   Thumb Code    30  app_fifo.o(i.app_fifo_get)
    app_fifo_init                            0x00019dcb   Thumb Code    36  app_fifo.o(i.app_fifo_init)
    app_fifo_put                             0x00019def   Thumb Code    34  app_fifo.o(i.app_fifo_put)
    app_timer_cnt_get                        0x00019e11   Thumb Code    10  app_timer2.o(i.app_timer_cnt_get)
    app_timer_create                         0x00019e21   Thumb Code    32  app_timer2.o(i.app_timer_create)
    app_timer_init                           0x00019e41   Thumb Code    78  app_timer2.o(i.app_timer_init)
    app_timer_start                          0x00019ead   Thumb Code    54  app_timer2.o(i.app_timer_start)
    app_timer_stop                           0x00019ee3   Thumb Code    20  app_timer2.o(i.app_timer_stop)
    app_uart_get                             0x00019ef9   Thumb Code    66  app_uart_fifo.o(i.app_uart_get)
    app_uart_init                            0x00019f4d   Thumb Code   188  app_uart_fifo.o(i.app_uart_init)
    app_uart_put                             0x0001a029   Thumb Code    90  app_uart_fifo.o(i.app_uart_put)
    app_util_critical_region_enter           0x0001a095   Thumb Code    12  app_util_platform.o(i.app_util_critical_region_enter)
    app_util_critical_region_exit            0x0001a0a1   Thumb Code    62  app_util_platform.o(i.app_util_critical_region_exit)
    blcm_link_ctx_get                        0x0001a271   Thumb Code   108  ble_link_ctx_manager.o(i.blcm_link_ctx_get)
    ble_advdata_encode                       0x0001a2dd   Thumb Code   364  ble_advdata.o(i.ble_advdata_encode)
    ble_advdata_parse                        0x0001a449   Thumb Code    40  ble_advdata.o(i.ble_advdata_parse)
    ble_advdata_search                       0x0001a471   Thumb Code    92  ble_advdata.o(i.ble_advdata_search)
    ble_advertising_conn_cfg_tag_set         0x0001a4cd   Thumb Code     6  ble_advertising.o(i.ble_advertising_conn_cfg_tag_set)
    ble_advertising_init                     0x0001a4d3   Thumb Code   256  ble_advertising.o(i.ble_advertising_init)
    ble_advertising_on_ble_evt               0x0001a5d3   Thumb Code    60  ble_advertising.o(i.ble_advertising_on_ble_evt)
    ble_advertising_restart_without_whitelist 0x0001a60f   Thumb Code    74  ble_advertising.o(i.ble_advertising_restart_without_whitelist)
    ble_advertising_start                    0x0001a659   Thumb Code   370  ble_advertising.o(i.ble_advertising_start)
    ble_conn_params_init                     0x0001a7cd   Thumb Code   136  ble_conn_params.o(i.ble_conn_params_init)
    ble_conn_state_conn_idx                  0x0001a869   Thumb Code    20  ble_conn_state.o(i.ble_conn_state_conn_idx)
    ble_conn_state_valid                     0x0001a87d   Thumb Code    22  ble_conn_state.o(i.ble_conn_state_valid)
    ble_nus_data_send                        0x0001abe1   Thumb Code   122  ble_nus.o(i.ble_nus_data_send)
    ble_nus_init                             0x0001ac5d   Thumb Code   260  ble_nus.o(i.ble_nus_init)
    ble_nus_on_ble_evt                       0x0001ad65   Thumb Code    68  ble_nus.o(i.ble_nus_on_ble_evt)
    ble_srv_is_notification_enabled          0x0001ada9   Thumb Code    18  ble_srv_common.o(i.ble_srv_is_notification_enabled)
    bsp_board_button_idx_to_pin              0x0001ae11   Thumb Code     8  boards.o(i.bsp_board_button_idx_to_pin)
    bsp_board_button_state_get               0x0001ae1d   Thumb Code    44  boards.o(i.bsp_board_button_state_get)
    bsp_board_pin_to_button_idx              0x0001ae4d   Thumb Code    32  boards.o(i.bsp_board_pin_to_button_idx)
    bsp_btn_ble_init                         0x0001ae71   Thumb Code    36  bsp_btn_ble.o(i.bsp_btn_ble_init)
    bsp_btn_ble_sleep_mode_prepare           0x0001ae9d   Thumb Code    50  bsp_btn_ble.o(i.bsp_btn_ble_sleep_mode_prepare)
    bsp_button_is_pressed                    0x0001af95   Thumb Code    20  bsp.o(i.bsp_button_is_pressed)
    bsp_event_handler                        0x0001afa9   Thumb Code   106  main.o(i.bsp_event_handler)
    bsp_event_to_button_action_assign        0x0001b01d   Thumb Code    86  bsp.o(i.bsp_event_to_button_action_assign)
    bsp_indication_set                       0x0001b079   Thumb Code     6  bsp.o(i.bsp_indication_set)
    bsp_init                                 0x0001b081   Thumb Code    92  bsp.o(i.bsp_init)
    bsp_wakeup_button_enable                 0x0001b0ed   Thumb Code    14  bsp.o(i.bsp_wakeup_button_enable)
    buffer_is_empty                          0x0001b211   Thumb Code    20  nrf_log_frontend.o(i.buffer_is_empty)
    characteristic_add                       0x0001b375   Thumb Code   456  ble_srv_common.o(i.characteristic_add)
    conn_handle_list_get                     0x0001b5e3   Thumb Code    60  ble_conn_state.o(i.conn_handle_list_get)
    drv_rtc_compare_disable                  0x0001b86d   Thumb Code    22  drv_rtc.o(i.drv_rtc_compare_disable)
    drv_rtc_compare_pending                  0x0001b883   Thumb Code    26  drv_rtc.o(i.drv_rtc_compare_pending)
    drv_rtc_compare_set                      0x0001b89d   Thumb Code    92  drv_rtc.o(i.drv_rtc_compare_set)
    drv_rtc_counter_get                      0x0001b8f9   Thumb Code    12  drv_rtc.o(i.drv_rtc_counter_get)
    drv_rtc_init                             0x0001b905   Thumb Code   216  drv_rtc.o(i.drv_rtc_init)
    drv_rtc_irq_trigger                      0x0001ba2d   Thumb Code    32  drv_rtc.o(i.drv_rtc_irq_trigger)
    drv_rtc_overflow_enable                  0x0001ba51   Thumb Code    18  drv_rtc.o(i.drv_rtc_overflow_enable)
    drv_rtc_overflow_pending                 0x0001ba63   Thumb Code    16  drv_rtc.o(i.drv_rtc_overflow_pending)
    drv_rtc_start                            0x0001ba73   Thumb Code    14  drv_rtc.o(i.drv_rtc_start)
    drv_rtc_stop                             0x0001ba81   Thumb Code    14  drv_rtc.o(i.drv_rtc_stop)
    drv_rtc_windowed_compare_set             0x0001ba8f   Thumb Code   252  drv_rtc.o(i.drv_rtc_windowed_compare_set)
    evt_handle                               0x0001bbc1   Thumb Code   234  app_button.o(i.evt_handle)
    fputc                                    0x0001bd9b   Thumb Code    16  retarget.o(i.fputc)
    gatt_evt_handler                         0x0001be2d   Thumb Code    62  main.o(i.gatt_evt_handler)
    gatt_init                                0x0001be99   Thumb Code    60  main.o(i.gatt_init)
    main                                     0x0001c3ad   Thumb Code   126  main.o(i.main)
    nrf_atfifo_init                          0x0001c88d   Thumb Code    40  nrf_atfifo.o(i.nrf_atfifo_init)
    nrf_atfifo_item_alloc                    0x0001c8b5   Thumb Code    28  nrf_atfifo.o(i.nrf_atfifo_item_alloc)
    nrf_atfifo_item_free                     0x0001c8d1   Thumb Code    28  nrf_atfifo.o(i.nrf_atfifo_item_free)
    nrf_atfifo_item_get                      0x0001c8ed   Thumb Code    28  nrf_atfifo.o(i.nrf_atfifo_item_get)
    nrf_atfifo_item_put                      0x0001c909   Thumb Code    28  nrf_atfifo.o(i.nrf_atfifo_item_put)
    nrf_atflags_clear                        0x0001c925   Thumb Code    30  nrf_atflags.o(i.nrf_atflags_clear)
    nrf_atflags_get                          0x0001c943   Thumb Code    30  nrf_atflags.o(i.nrf_atflags_get)
    nrf_atflags_set                          0x0001c961   Thumb Code    30  nrf_atflags.o(i.nrf_atflags_set)
    nrf_atomic_flag_clear_fetch              0x0001c97f   Thumb Code    14  nrf_atomic.o(i.nrf_atomic_flag_clear_fetch)
    nrf_atomic_flag_set                      0x0001c98d   Thumb Code    14  nrf_atomic.o(i.nrf_atomic_flag_set)
    nrf_atomic_u32_add                       0x0001c99b   Thumb Code    22  nrf_atomic.o(i.nrf_atomic_u32_add)
    nrf_atomic_u32_and                       0x0001c9b1   Thumb Code    22  nrf_atomic.o(i.nrf_atomic_u32_and)
    nrf_atomic_u32_fetch_and                 0x0001c9c7   Thumb Code    22  nrf_atomic.o(i.nrf_atomic_u32_fetch_and)
    nrf_atomic_u32_fetch_store               0x0001c9dd   Thumb Code    22  nrf_atomic.o(i.nrf_atomic_u32_fetch_store)
    nrf_atomic_u32_or                        0x0001c9f3   Thumb Code    22  nrf_atomic.o(i.nrf_atomic_u32_or)
    nrf_atomic_u32_sub                       0x0001ca09   Thumb Code    22  nrf_atomic.o(i.nrf_atomic_u32_sub)
    nrf_balloc_alloc                         0x0001ca1f   Thumb Code    82  nrf_balloc.o(i.nrf_balloc_alloc)
    nrf_balloc_free                          0x0001ca81   Thumb Code    48  nrf_balloc.o(i.nrf_balloc_free)
    nrf_balloc_init                          0x0001cabd   Thumb Code    60  nrf_balloc.o(i.nrf_balloc_init)
    nrf_ble_gatt_att_mtu_periph_set          0x0001cb0f   Thumb Code    30  nrf_ble_gatt.o(i.nrf_ble_gatt_att_mtu_periph_set)
    nrf_ble_gatt_init                        0x0001cb2d   Thumb Code    56  nrf_ble_gatt.o(i.nrf_ble_gatt_init)
    nrf_ble_gatt_on_ble_evt                  0x0001cb65   Thumb Code   186  nrf_ble_gatt.o(i.nrf_ble_gatt_on_ble_evt)
    nrf_ble_qwr_conn_handle_assign           0x0001cc5d   Thumb Code    32  nrf_ble_qwr.o(i.nrf_ble_qwr_conn_handle_assign)
    nrf_ble_qwr_init                         0x0001cc7d   Thumb Code    50  nrf_ble_qwr.o(i.nrf_ble_qwr_init)
    nrf_ble_qwr_on_ble_evt                   0x0001ccaf   Thumb Code   124  nrf_ble_qwr.o(i.nrf_ble_qwr_on_ble_evt)
    nrf_drv_clock_init                       0x0001cd65   Thumb Code    66  nrf_drv_clock.o(i.nrf_drv_clock_init)
    nrf_drv_clock_lfclk_release              0x0001cdb1   Thumb Code    42  nrf_drv_clock.o(i.nrf_drv_clock_lfclk_release)
    nrf_drv_uart_init                        0x0001cde1   Thumb Code   118  nrf_drv_uart.o(i.nrf_drv_uart_init)
    nrf_fprintf                              0x0001cef5   Thumb Code    42  nrf_fprintf.o(i.nrf_fprintf)
    nrf_fprintf_buffer_flush                 0x0001cf1f   Thumb Code    28  nrf_fprintf.o(i.nrf_fprintf_buffer_flush)
    nrf_fprintf_fmt                          0x0001cf3b   Thumb Code   496  nrf_fprintf_format.o(i.nrf_fprintf_fmt)
    nrf_log_backend_add                      0x0001d321   Thumb Code    78  nrf_log_frontend.o(i.nrf_log_backend_add)
    nrf_log_backend_rtt_init                 0x0001d377   Thumb Code     8  nrf_log_backend_rtt.o(i.nrf_log_backend_rtt_init)
    nrf_log_backend_serial_put               0x0001d3a1   Thumb Code   242  nrf_log_backend_serial.o(i.nrf_log_backend_serial_put)
    nrf_log_color_id_get                     0x0001d495   Thumb Code    52  nrf_log_frontend.o(i.nrf_log_color_id_get)
    nrf_log_default_backends_init            0x0001d4cd   Thumb Code    34  nrf_log_default_backends.o(i.nrf_log_default_backends_init)
    nrf_log_frontend_dequeue                 0x0001d4f5   Thumb Code   756  nrf_log_frontend.o(i.nrf_log_frontend_dequeue)
    nrf_log_frontend_std_0                   0x0001d811   Thumb Code    20  nrf_log_frontend.o(i.nrf_log_frontend_std_0)
    nrf_log_frontend_std_1                   0x0001d825   Thumb Code    24  nrf_log_frontend.o(i.nrf_log_frontend_std_1)
    nrf_log_frontend_std_2                   0x0001d83d   Thumb Code    32  nrf_log_frontend.o(i.nrf_log_frontend_std_2)
    nrf_log_hexdump_entry_process            0x0001d85d   Thumb Code   164  nrf_log_str_formatter.o(i.nrf_log_hexdump_entry_process)
    nrf_log_init                             0x0001d919   Thumb Code    50  nrf_log_frontend.o(i.nrf_log_init)
    nrf_log_module_cnt_get                   0x0001d961   Thumb Code    10  nrf_log_frontend.o(i.nrf_log_module_cnt_get)
    nrf_log_module_name_get                  0x0001d975   Thumb Code    30  nrf_log_frontend.o(i.nrf_log_module_name_get)
    nrf_log_panic                            0x0001d999   Thumb Code    48  nrf_log_frontend.o(i.nrf_log_panic)
    nrf_log_std_entry_process                0x0001d9cd   Thumb Code   200  nrf_log_str_formatter.o(i.nrf_log_std_entry_process)
    nrf_memobj_alloc                         0x0001da95   Thumb Code   122  nrf_memobj.o(i.nrf_memobj_alloc)
    nrf_memobj_free                          0x0001db0f   Thumb Code    64  nrf_memobj.o(i.nrf_memobj_free)
    nrf_memobj_get                           0x0001db4f   Thumb Code    16  nrf_memobj.o(i.nrf_memobj_get)
    nrf_memobj_pool_init                     0x0001db5f   Thumb Code    12  nrf_memobj.o(i.nrf_memobj_pool_init)
    nrf_memobj_put                           0x0001db6b   Thumb Code    30  nrf_memobj.o(i.nrf_memobj_put)
    nrf_memobj_read                          0x0001db89   Thumb Code    34  nrf_memobj.o(i.nrf_memobj_read)
    nrf_memobj_write                         0x0001dbab   Thumb Code    34  nrf_memobj.o(i.nrf_memobj_write)
    nrf_pwr_mgmt_init                        0x0001dbcd   Thumb Code    46  nrf_pwr_mgmt.o(i.nrf_pwr_mgmt_init)
    nrf_pwr_mgmt_run                         0x0001dc0d   Thumb Code    22  nrf_pwr_mgmt.o(i.nrf_pwr_mgmt_run)
    nrf_ringbuf_init                         0x0001dc33   Thumb Code    28  nrf_ringbuf.o(i.nrf_ringbuf_init)
    nrf_sdh_ble_app_ram_start_get            0x0001dc99   Thumb Code    18  nrf_sdh_ble.o(i.nrf_sdh_ble_app_ram_start_get)
    nrf_sdh_ble_default_cfg_set              0x0001dcb1   Thumb Code   370  nrf_sdh_ble.o(i.nrf_sdh_ble_default_cfg_set)
    nrf_sdh_ble_enable                       0x0001de45   Thumb Code   144  nrf_sdh_ble.o(i.nrf_sdh_ble_enable)
    nrf_sdh_enable_request                   0x0001e005   Thumb Code   112  nrf_sdh.o(i.nrf_sdh_enable_request)
    nrf_sdh_evts_poll                        0x0001e089   Thumb Code    44  nrf_sdh.o(i.nrf_sdh_evts_poll)
    nrf_sdh_is_enabled                       0x0001e0b9   Thumb Code     6  nrf_sdh.o(i.nrf_sdh_is_enabled)
    nrf_section_iter_init                    0x0001e11f   Thumb Code    20  nrf_section_iter.o(i.nrf_section_iter_init)
    nrf_section_iter_next                    0x0001e161   Thumb Code    46  nrf_section_iter.o(i.nrf_section_iter_next)
    nrf_sortlist_add                         0x0001e18f   Thumb Code    40  nrf_sortlist.o(i.nrf_sortlist_add)
    nrf_sortlist_peek                        0x0001e1b7   Thumb Code     8  nrf_sortlist.o(i.nrf_sortlist_peek)
    nrf_sortlist_pop                         0x0001e1bf   Thumb Code    24  nrf_sortlist.o(i.nrf_sortlist_pop)
    nrf_sortlist_remove                      0x0001e1d7   Thumb Code    38  nrf_sortlist.o(i.nrf_sortlist_remove)
    nrf_strerror_find                        0x0001e1fd   Thumb Code    60  nrf_strerror.o(i.nrf_strerror_find)
    nrf_strerror_get                         0x0001e23d   Thumb Code    22  nrf_strerror.o(i.nrf_strerror_get)
    nrfx_clock_enable                        0x0001e349   Thumb Code    16  nrfx_clock.o(i.nrfx_clock_enable)
    nrfx_clock_init                          0x0001e35d   Thumb Code    26  nrfx_clock.o(i.nrfx_clock_init)
    nrfx_clock_lfclk_stop                    0x0001e37d   Thumb Code    40  nrfx_clock.o(i.nrfx_clock_lfclk_stop)
    nrfx_gpiote_in_event_enable              0x0001e3e1   Thumb Code   168  nrfx_gpiote.o(i.nrfx_gpiote_in_event_enable)
    nrfx_gpiote_in_init                      0x0001e48d   Thumb Code   232  nrfx_gpiote.o(i.nrfx_gpiote_in_init)
    nrfx_gpiote_in_is_set                    0x0001e581   Thumb Code    20  nrfx_gpiote.o(i.nrfx_gpiote_in_is_set)
    nrfx_gpiote_init                         0x0001e595   Thumb Code   196  nrfx_gpiote.o(i.nrfx_gpiote_init)
    nrfx_gpiote_is_init                      0x0001e669   Thumb Code    16  nrfx_gpiote.o(i.nrfx_gpiote_is_init)
    nrfx_prs_acquire                         0x0001e741   Thumb Code    78  nrfx_prs.o(i.nrfx_prs_acquire)
    nrfx_uart_0_irq_handler                  0x0001e791   Thumb Code    12  nrfx_uart.o(i.nrfx_uart_0_irq_handler)
    nrfx_uart_init                           0x0001e7a5   Thumb Code   128  nrfx_uart.o(i.nrfx_uart_init)
    nrfx_uart_rx                             0x0001e82d   Thumb Code   286  nrfx_uart.o(i.nrfx_uart_rx)
    nrfx_uart_tx                             0x0001e951   Thumb Code   134  nrfx_uart.o(i.nrfx_uart_tx)
    nrfx_uart_tx_in_progress                 0x0001e9dd   Thumb Code    30  nrfx_uart.o(i.nrfx_uart_tx_in_progress)
    nrfx_uarte_0_irq_handler                 0x0001ea01   Thumb Code    12  nrfx_uarte.o(i.nrfx_uarte_0_irq_handler)
    nrfx_uarte_init                          0x0001ea15   Thumb Code   120  nrfx_uarte.o(i.nrfx_uarte_init)
    nrfx_uarte_rx                            0x0001ea95   Thumb Code   306  nrfx_uarte.o(i.nrfx_uarte_rx)
    nrfx_uarte_tx                            0x0001ebcd   Thumb Code   188  nrfx_uarte.o(i.nrfx_uarte_tx)
    nrfx_uarte_tx_in_progress                0x0001ec8d   Thumb Code    26  nrfx_uarte.o(i.nrfx_uarte_tx_in_progress)
    uart_event_handle                        0x00020311   Thumb Code   182  main.o(i.uart_event_handle)
    nrf_log_backend_rtt_api                  0x00020e10   Data          12  nrf_log_backend_rtt.o(.constdata)
    m_ram_start                              0x00020eb8   Data           4  nrf_sdh_ble.o(.constdata)
    __ctype_table                            0x00020ed8   Data         129  ctype_o.o(.constdata)
    Region$$Table$$Base                      0x0002162c   Number         0  anon$$obj.o(Region$$Table)
    Region$$Table$$Limit                     0x0002164c   Number         0  anon$$obj.o(Region$$Table)
    log_const_data$$Base                     0x0002165c   Number         0  nrf_ble_gatt.o(log_const_data)
    m_nrf_log_nrf_ble_gatt_logs_data_const   0x0002165c   Data           8  nrf_ble_gatt.o(log_const_data)
    m_nrf_log_ble_nus_logs_data_const        0x00021664   Data           8  ble_nus.o(log_const_data)
    m_nrf_log_clock_logs_data_const          0x0002166c   Data           8  nrf_drv_clock.o(log_const_data)
    m_nrf_log_CLOCK_logs_data_const          0x00021674   Data           8  nrfx_clock.o(log_const_data)
    m_nrf_log_GPIOTE_logs_data_const         0x0002167c   Data           8  nrfx_gpiote.o(log_const_data)
    m_nrf_log_PRS_logs_data_const            0x00021684   Data           8  nrfx_prs.o(log_const_data)
    m_nrf_log_UART_logs_data_const           0x0002168c   Data           8  nrfx_uart.o(log_const_data)
    m_nrf_log_UARTE_logs_data_const          0x00021694   Data           8  nrfx_uarte.o(log_const_data)
    m_nrf_log_app_button_logs_data_const     0x0002169c   Data           8  app_button.o(log_const_data)
    m_nrf_log_app_timer_logs_data_const      0x000216a4   Data           8  app_timer2.o(log_const_data)
    m_nrf_log_pwr_mgmt_logs_data_const       0x000216ac   Data           8  nrf_pwr_mgmt.o(log_const_data)
    m_nrf_log_sortlist_logs_data_const       0x000216b4   Data           8  nrf_sortlist.o(log_const_data)
    m_nrf_log_app_logs_data_const            0x000216bc   Data           8  nrf_log_frontend.o(log_const_data)
    m_nrf_log_nrf_sdh_logs_data_const        0x000216c4   Data           8  nrf_sdh.o(log_const_data)
    m_nrf_log_nrf_sdh_ble_logs_data_const    0x000216cc   Data           8  nrf_sdh_ble.o(log_const_data)
    m_nrf_log_nrf_sdh_soc_logs_data_const    0x000216d4   Data           8  nrf_sdh_soc.o(log_const_data)
    log_const_data$$Limit                    0x000216dc   Number         0  nrf_sdh_soc.o(log_const_data)
    log_mempool                              0x000216dc   Data          20  nrf_log_frontend.o(nrf_balloc)
    sdh_ble_observers0$$Base                 0x000216f0   Number         0  ble_conn_state.o(sdh_ble_observers0)
    sdh_ble_observers0$$Limit                0x000216f8   Number         0  ble_conn_state.o(sdh_ble_observers0)
    sdh_ble_observers1$$Base                 0x000216f8   Number         0  main.o(sdh_ble_observers1)
    sdh_ble_observers1$$Limit                0x00021718   Number         0  ble_conn_params.o(sdh_ble_observers1)
    sdh_ble_observers2$$Base                 0x00021718   Number         0  main.o(sdh_ble_observers2)
    sdh_ble_observers2$$Limit                0x00021728   Number         0  main.o(sdh_ble_observers2)
    sdh_ble_observers3$$Base                 0x00021728   Number         0  main.o(sdh_ble_observers3)
    sdh_ble_observers3$$Limit                0x00021730   Number         0  main.o(sdh_ble_observers3)
    sdh_soc_observers0$$Base                 0x00021730   Number         0  nrf_drv_clock.o(sdh_soc_observers0)
    sdh_soc_observers0$$Limit                0x00021738   Number         0  nrf_drv_clock.o(sdh_soc_observers0)
    sdh_stack_observers0$$Base               0x00021738   Number         0  nrf_sdh_ble.o(sdh_stack_observers0)
    sdh_stack_observers0$$Limit              0x00021748   Number         0  nrf_sdh_soc.o(sdh_stack_observers0)
    sdh_state_observers0$$Base               0x00021748   Number         0  nrf_drv_clock.o(sdh_state_observers0)
    sdh_state_observers0$$Limit              0x00021750   Number         0  nrf_drv_clock.o(sdh_state_observers0)
    Image$$RW_IRAM1$$Base                    0x200022c8   Number         0  anon$$obj.o ABSOLUTE
    nrf_drv_uart_use_easy_dma                0x20002320   Data           1  nrf_drv_uart.o(.data)
    __stdout                                 0x200023a8   Data           4  retarget.o(.data)
    __stdin                                  0x200023ac   Data           4  retarget.o(.data)
    SystemCoreClock                          0x20002414   Data           4  system_nrf52805.o(.data)
    nrf_nvic_state                           0x20002a98   Data          12  app_util_platform.o(.bss)
    _SEGGER_RTT                              0x20003068   Data         120  segger_rtt.o(.bss)
    __initial_sp                             0x20003af0   Data           0  arm_startup_nrf52805.o(STACK)



==============================================================================

Memory Map of the image

  Image Entry point : 0x00019201

  Load Region LR_IROM1 (Base: 0x00019000, Size: 0x000088a0, Max: 0x00017000, ABSOLUTE, COMPRESSED[0x000087a8])

    Execution Region ER_IROM1 (Exec base: 0x00019000, Load base: 0x00019000, Size: 0x00008750, Max: 0x00017000, ABSOLUTE)

    Exec Addr    Load Addr    Size         Type   Attr      Idx    E Section Name        Object

    0x00019000   0x00019000   0x00000200   Data   RO         5643    RESET               arm_startup_nrf52805.o
    0x00019200   0x00019200   0x00000000   Code   RO         7534  * .ARM.Collect$$$$00000000  mc_w.l(entry.o)
    0x00019200   0x00019200   0x00000004   Code   RO         7839    .ARM.Collect$$$$00000001  mc_w.l(entry2.o)
    0x00019204   0x00019204   0x00000004   Code   RO         7842    .ARM.Collect$$$$00000004  mc_w.l(entry5.o)
    0x00019208   0x00019208   0x00000000   Code   RO         7844    .ARM.Collect$$$$00000008  mc_w.l(entry7b.o)
    0x00019208   0x00019208   0x00000000   Code   RO         7846    .ARM.Collect$$$$0000000A  mc_w.l(entry8b.o)
    0x00019208   0x00019208   0x00000008   Code   RO         7847    .ARM.Collect$$$$0000000B  mc_w.l(entry9a.o)
    0x00019210   0x00019210   0x00000000   Code   RO         7849    .ARM.Collect$$$$0000000D  mc_w.l(entry10a.o)
    0x00019210   0x00019210   0x00000000   Code   RO         7851    .ARM.Collect$$$$0000000F  mc_w.l(entry11a.o)
    0x00019210   0x00019210   0x00000004   Code   RO         7840    .ARM.Collect$$$$00002712  mc_w.l(entry2.o)
    0x00019214   0x00019214   0x000000c8   Code   RO         3960    .emb_text           nrf_atfifo.o
    0x000192dc   0x000192dc   0x000000e2   Code   RO         4099    .emb_text           nrf_atomic.o
    0x000193be   0x000193be   0x00000002   PAD
    0x000193c0   0x000193c0   0x00000024   Code   RO         5644    .text               arm_startup_nrf52805.o
    0x000193e4   0x000193e4   0x0000001e   Code   RO         7537    .text               mc_w.l(llshl.o)
    0x00019402   0x00019402   0x00000002   PAD
    0x00019404   0x00019404   0x00000008   Code   RO         7539    .text               mc_w.l(ctype_o.o)
    0x0001940c   0x0001940c   0x00000024   Code   RO         7567    .text               mc_w.l(memcpya.o)
    0x00019430   0x00019430   0x00000024   Code   RO         7569    .text               mc_w.l(memseta.o)
    0x00019454   0x00019454   0x0000000e   Code   RO         7571    .text               mc_w.l(strlen.o)
    0x00019462   0x00019462   0x00000012   Code   RO         7575    .text               mc_w.l(strcpy.o)
    0x00019474   0x00019474   0x00000024   Code   RO         7868    .text               mc_w.l(init.o)
    0x00019498   0x00019498   0x00000056   Code   RO         7884    .text               mc_w.l(__dczerorl2.o)
    0x000194ee   0x000194ee   0x00000002   PAD
    0x000194f0   0x000194f0   0x000000bc   Code   RO         2140    i.GPIOTE_IRQHandler  nrfx_gpiote.o
    0x000195ac   0x000195ac   0x00000048   Code   RO         1977    i.POWER_CLOCK_IRQHandler  nrfx_clock.o
    0x000195f4   0x000195f4   0x00000018   Code   RO         3696    i.RTC1_IRQHandler   drv_rtc.o
    0x0001960c   0x0001960c   0x00000008   Code   RO         5168    i.SEGGER_RTT_Init   segger_rtt.o
    0x00019614   0x00019614   0x00000084   Code   RO         5182    i.SEGGER_RTT_WriteNoLock  segger_rtt.o
    0x00019698   0x00019698   0x00000008   Code   RO         5420    i.SWI2_IRQHandler   nrf_sdh.o
    0x000196a0   0x000196a0   0x00000010   Code   RO         5651    i.SystemCoreClockUpdate  system_nrf52805.o
    0x000196b0   0x000196b0   0x000001d8   Code   RO         5652    i.SystemInit        system_nrf52805.o
    0x00019888   0x00019888   0x00000010   Code   RO         2510    i.UARTE0_UART0_IRQHandler  nrfx_prs.o
    0x00019898   0x00019898   0x00000070   Code   RO         5186    i._DoInit           segger_rtt.o
    0x00019908   0x00019908   0x0000001c   Code   RO         5187    i._GetAvailWriteSpace  segger_rtt.o
    0x00019924   0x00019924   0x00000072   Code   RO         5189    i._WriteBlocking    segger_rtt.o
    0x00019996   0x00019996   0x0000004c   Code   RO         5190    i._WriteNoCheck     segger_rtt.o
    0x000199e2   0x000199e2   0x00000002   PAD
    0x000199e4   0x000199e4   0x00000010   Code   RO         7580    i.__0printf$bare    mc_w.l(printfb.o)
    0x000199f4   0x000199f4   0x0000000e   Code   RO         7878    i.__scatterload_copy  mc_w.l(handlers.o)
    0x00019a02   0x00019a02   0x00000002   Code   RO         7879    i.__scatterload_null  mc_w.l(handlers.o)
    0x00019a04   0x00019a04   0x0000000e   Code   RO         7880    i.__scatterload_zeroinit  mc_w.l(handlers.o)
    0x00019a12   0x00019a12   0x00000002   PAD
    0x00019a14   0x00019a14   0x00000038   Code   RO         5421    i.__sd_nvic_app_accessible_irq  nrf_sdh.o
    0x00019a4c   0x00019a4c   0x0000000c   Code   RO         3618    i.__sd_nvic_irq_disable  app_util_platform.o
    0x00019a58   0x00019a58   0x00000022   Code   RO         7587    i._printf_core      mc_w.l(printfb.o)
    0x00019a7a   0x00019a7a   0x00000018   Code   RO          864    i.addr_is_valid     ble_advertising.o
    0x00019a92   0x00019a92   0x00000058   Code   RO          865    i.adv_mode_next_avail_get  ble_advertising.o
    0x00019aea   0x00019aea   0x00000012   Code   RO          866    i.adv_mode_next_get  ble_advertising.o
    0x00019afc   0x00019afc   0x00000012   Code   RO          867    i.adv_set_data_size_max_get  ble_advertising.o
    0x00019b0e   0x00019b0e   0x00000054   Code   RO          624    i.advertising_buttons_configure  bsp_btn_ble.o
    0x00019b62   0x00019b62   0x00000002   PAD
    0x00019b64   0x00019b64   0x00000070   Code   RO            4    i.advertising_init  main.o
    0x00019bd4   0x00019bd4   0x00000024   Code   RO            5    i.advertising_start  main.o
    0x00019bf8   0x00019bf8   0x0000002c   Code   RO         3032    i.app_button_enable  app_button.o
    0x00019c24   0x00019c24   0x000000b0   Code   RO         3033    i.app_button_init   app_button.o
    0x00019cd4   0x00019cd4   0x000000bc   Code   RO         3194    i.app_error_fault_handler  app_error_weak.o
    0x00019d90   0x00019d90   0x0000001c   Code   RO         3134    i.app_error_handler_bare  app_error.o
    0x00019dac   0x00019dac   0x0000001e   Code   RO         3238    i.app_fifo_get      app_fifo.o
    0x00019dca   0x00019dca   0x00000024   Code   RO         3239    i.app_fifo_init     app_fifo.o
    0x00019dee   0x00019dee   0x00000022   Code   RO         3241    i.app_fifo_put      app_fifo.o
    0x00019e10   0x00019e10   0x00000010   Code   RO         3377    i.app_timer_cnt_get  app_timer2.o
    0x00019e20   0x00019e20   0x00000020   Code   RO         3378    i.app_timer_create  app_timer2.o
    0x00019e40   0x00019e40   0x0000006c   Code   RO         3379    i.app_timer_init    app_timer2.o
    0x00019eac   0x00019eac   0x00000036   Code   RO         3382    i.app_timer_start   app_timer2.o
    0x00019ee2   0x00019ee2   0x00000014   Code   RO         3383    i.app_timer_stop    app_timer2.o
    0x00019ef6   0x00019ef6   0x00000002   PAD
    0x00019ef8   0x00019ef8   0x00000054   Code   RO         3538    i.app_uart_get      app_uart_fifo.o
    0x00019f4c   0x00019f4c   0x000000dc   Code   RO         3539    i.app_uart_init     app_uart_fifo.o
    0x0001a028   0x0001a028   0x0000006c   Code   RO         3540    i.app_uart_put      app_uart_fifo.o
    0x0001a094   0x0001a094   0x0000000c   Code   RO         3619    i.app_util_critical_region_enter  app_util_platform.o
    0x0001a0a0   0x0001a0a0   0x00000048   Code   RO         3620    i.app_util_critical_region_exit  app_util_platform.o
    0x0001a0e8   0x0001a0e8   0x00000052   Code   RO          737    i.appearance_encode  ble_advdata.o
    0x0001a13a   0x0001a13a   0x0000007c   Code   RO         2564    i.apply_config      nrfx_uart.o
    0x0001a1b6   0x0001a1b6   0x0000007c   Code   RO         2809    i.apply_config      nrfx_uarte.o
    0x0001a232   0x0001a232   0x00000002   PAD
    0x0001a234   0x0001a234   0x0000003c   Code   RO         4882    i.backend_id_assign  nrf_log_frontend.o
    0x0001a270   0x0001a270   0x0000006c   Code   RO         1313    i.blcm_link_ctx_get  ble_link_ctx_manager.o
    0x0001a2dc   0x0001a2dc   0x0000016c   Code   RO          739    i.ble_advdata_encode  ble_advdata.o
    0x0001a448   0x0001a448   0x00000028   Code   RO          741    i.ble_advdata_parse  ble_advdata.o
    0x0001a470   0x0001a470   0x0000005c   Code   RO          742    i.ble_advdata_search  ble_advdata.o
    0x0001a4cc   0x0001a4cc   0x00000006   Code   RO          869    i.ble_advertising_conn_cfg_tag_set  ble_advertising.o
    0x0001a4d2   0x0001a4d2   0x00000100   Code   RO          870    i.ble_advertising_init  ble_advertising.o
    0x0001a5d2   0x0001a5d2   0x0000003c   Code   RO          872    i.ble_advertising_on_ble_evt  ble_advertising.o
    0x0001a60e   0x0001a60e   0x0000004a   Code   RO          874    i.ble_advertising_restart_without_whitelist  ble_advertising.o
    0x0001a658   0x0001a658   0x00000172   Code   RO          875    i.ble_advertising_start  ble_advertising.o
    0x0001a7ca   0x0001a7ca   0x00000002   PAD
    0x0001a7cc   0x0001a7cc   0x0000009c   Code   RO         1023    i.ble_conn_params_init  ble_conn_params.o
    0x0001a868   0x0001a868   0x00000014   Code   RO         1123    i.ble_conn_state_conn_idx  ble_conn_state.o
    0x0001a87c   0x0001a87c   0x0000001c   Code   RO         1137    i.ble_conn_state_valid  ble_conn_state.o
    0x0001a898   0x0001a898   0x00000076   Code   RO          745    i.ble_device_addr_encode  ble_advdata.o
    0x0001a90e   0x0001a90e   0x00000002   PAD
    0x0001a910   0x0001a910   0x00000170   Code   RO            7    i.ble_evt_handler   main.o
    0x0001aa80   0x0001aa80   0x00000078   Code   RO          625    i.ble_evt_handler   bsp_btn_ble.o
    0x0001aaf8   0x0001aaf8   0x00000040   Code   RO         1025    i.ble_evt_handler   ble_conn_params.o
    0x0001ab38   0x0001ab38   0x000000a8   Code   RO         1138    i.ble_evt_handler   ble_conn_state.o
    0x0001abe0   0x0001abe0   0x0000007a   Code   RO         1549    i.ble_nus_data_send  ble_nus.o
    0x0001ac5a   0x0001ac5a   0x00000002   PAD
    0x0001ac5c   0x0001ac5c   0x00000108   Code   RO         1550    i.ble_nus_init      ble_nus.o
    0x0001ad64   0x0001ad64   0x00000044   Code   RO         1551    i.ble_nus_on_ble_evt  ble_nus.o
    0x0001ada8   0x0001ada8   0x00000012   Code   RO         1339    i.ble_srv_is_notification_enabled  ble_srv_common.o
    0x0001adba   0x0001adba   0x00000056   Code   RO            8    i.ble_stack_init    main.o
    0x0001ae10   0x0001ae10   0x0000000c   Code   RO          465    i.bsp_board_button_idx_to_pin  boards.o
    0x0001ae1c   0x0001ae1c   0x00000030   Code   RO          466    i.bsp_board_button_state_get  boards.o
    0x0001ae4c   0x0001ae4c   0x00000024   Code   RO          469    i.bsp_board_pin_to_button_idx  boards.o
    0x0001ae70   0x0001ae70   0x0000002c   Code   RO          626    i.bsp_btn_ble_init  bsp_btn_ble.o
    0x0001ae9c   0x0001ae9c   0x00000032   Code   RO          627    i.bsp_btn_ble_sleep_mode_prepare  bsp_btn_ble.o
    0x0001aece   0x0001aece   0x00000002   PAD
    0x0001aed0   0x0001aed0   0x000000c4   Code   RO          530    i.bsp_button_event_handler  bsp.o
    0x0001af94   0x0001af94   0x00000014   Code   RO          531    i.bsp_button_is_pressed  bsp.o
    0x0001afa8   0x0001afa8   0x00000074   Code   RO            9    i.bsp_event_handler  main.o
    0x0001b01c   0x0001b01c   0x0000005c   Code   RO          534    i.bsp_event_to_button_action_assign  bsp.o
    0x0001b078   0x0001b078   0x00000006   Code   RO          535    i.bsp_indication_set  bsp.o
    0x0001b07e   0x0001b07e   0x00000002   PAD
    0x0001b080   0x0001b080   0x0000006c   Code   RO          536    i.bsp_init          bsp.o
    0x0001b0ec   0x0001b0ec   0x0000000e   Code   RO          538    i.bsp_wakeup_button_enable  bsp.o
    0x0001b0fa   0x0001b0fa   0x00000002   PAD
    0x0001b0fc   0x0001b0fc   0x000000e8   Code   RO         4883    i.buf_prealloc      nrf_log_frontend.o
    0x0001b1e4   0x0001b1e4   0x0000002c   Code   RO         4324    i.buffer_add        nrf_fprintf_format.o
    0x0001b210   0x0001b210   0x00000018   Code   RO         4884    i.buffer_is_empty   nrf_log_frontend.o
    0x0001b228   0x0001b228   0x0000002c   Code   RO         3035    i.button_get        app_button.o
    0x0001b254   0x0001b254   0x0000000e   Code   RO          539    i.button_timer_handler  bsp.o
    0x0001b262   0x0001b262   0x00000002   PAD
    0x0001b264   0x0001b264   0x00000054   Code   RO           10    i.buttons_leds_init  main.o
    0x0001b2b8   0x0001b2b8   0x00000020   Code   RO         2141    i.channel_free      nrfx_gpiote.o
    0x0001b2d8   0x0001b2d8   0x00000010   Code   RO         2142    i.channel_handler_get  nrfx_gpiote.o
    0x0001b2e8   0x0001b2e8   0x00000080   Code   RO         2143    i.channel_port_alloc  nrfx_gpiote.o
    0x0001b368   0x0001b368   0x0000000c   Code   RO         2144    i.channel_port_get  nrfx_gpiote.o
    0x0001b374   0x0001b374   0x000001c8   Code   RO         1341    i.characteristic_add  ble_srv_common.o
    0x0001b53c   0x0001b53c   0x00000030   Code   RO         1612    i.clock_clk_started_notify  nrf_drv_clock.o
    0x0001b56c   0x0001b56c   0x00000028   Code   RO         1613    i.clock_irq_handler  nrf_drv_clock.o
    0x0001b594   0x0001b594   0x00000026   Code   RO         3385    i.compare_func      app_timer2.o
    0x0001b5ba   0x0001b5ba   0x00000028   Code   RO          877    i.config_is_valid   ble_advertising.o
    0x0001b5e2   0x0001b5e2   0x0000003c   Code   RO         1139    i.conn_handle_list_get  ble_conn_state.o
    0x0001b61e   0x0001b61e   0x0000005a   Code   RO          746    i.conn_int_check    ble_advdata.o
    0x0001b678   0x0001b678   0x00000068   Code   RO          747    i.conn_int_encode   ble_advdata.o
    0x0001b6e0   0x0001b6e0   0x00000010   Code   RO           11    i.conn_params_error_handler  main.o
    0x0001b6f0   0x0001b6f0   0x0000005c   Code   RO           12    i.conn_params_init  main.o
    0x0001b74c   0x0001b74c   0x00000054   Code   RO         1026    i.conn_params_negotiation  ble_conn_params.o
    0x0001b7a0   0x0001b7a0   0x00000054   Code   RO          628    i.connection_buttons_configure  bsp_btn_ble.o
    0x0001b7f4   0x0001b7f4   0x00000060   Code   RO         3036    i.detection_delay_timeout_handler  app_button.o
    0x0001b854   0x0001b854   0x00000018   Code   RO         4885    i.dropped_sat16_get  nrf_log_frontend.o
    0x0001b86c   0x0001b86c   0x00000016   Code   RO         3697    i.drv_rtc_compare_disable  drv_rtc.o
    0x0001b882   0x0001b882   0x0000001a   Code   RO         3700    i.drv_rtc_compare_pending  drv_rtc.o
    0x0001b89c   0x0001b89c   0x0000005c   Code   RO         3701    i.drv_rtc_compare_set  drv_rtc.o
    0x0001b8f8   0x0001b8f8   0x0000000c   Code   RO         3702    i.drv_rtc_counter_get  drv_rtc.o
    0x0001b904   0x0001b904   0x00000128   Code   RO         3703    i.drv_rtc_init      drv_rtc.o
    0x0001ba2c   0x0001ba2c   0x00000024   Code   RO         3704    i.drv_rtc_irq_trigger  drv_rtc.o
    0x0001ba50   0x0001ba50   0x00000012   Code   RO         3706    i.drv_rtc_overflow_enable  drv_rtc.o
    0x0001ba62   0x0001ba62   0x00000010   Code   RO         3707    i.drv_rtc_overflow_pending  drv_rtc.o
    0x0001ba72   0x0001ba72   0x0000000e   Code   RO         3708    i.drv_rtc_start     drv_rtc.o
    0x0001ba80   0x0001ba80   0x0000000e   Code   RO         3709    i.drv_rtc_stop      drv_rtc.o
    0x0001ba8e   0x0001ba8e   0x000000fc   Code   RO         3714    i.drv_rtc_windowed_compare_set  drv_rtc.o
    0x0001bb8a   0x0001bb8a   0x00000018   Code   RO         3715    i.evt_disable       drv_rtc.o
    0x0001bba2   0x0001bba2   0x0000001c   Code   RO         3716    i.evt_enable        drv_rtc.o
    0x0001bbbe   0x0001bbbe   0x00000002   PAD
    0x0001bbc0   0x0001bbc0   0x000000f0   Code   RO         3037    i.evt_handle        app_button.o
    0x0001bcb0   0x0001bcb0   0x0000001c   Code   RO         3717    i.evt_pending       drv_rtc.o
    0x0001bccc   0x0001bccc   0x00000018   Code   RO         3244    i.fifo_get          app_fifo.o
    0x0001bce4   0x0001bce4   0x0000000a   Code   RO         3245    i.fifo_length       app_fifo.o
    0x0001bcee   0x0001bcee   0x0000000a   Code   RO         3541    i.fifo_length       app_uart_fifo.o
    0x0001bcf8   0x0001bcf8   0x00000012   Code   RO         3246    i.fifo_peek         app_fifo.o
    0x0001bd0a   0x0001bd0a   0x00000012   Code   RO         3247    i.fifo_put          app_fifo.o
    0x0001bd1c   0x0001bd1c   0x0000001e   Code   RO         1140    i.flag_toggle       ble_conn_state.o
    0x0001bd3a   0x0001bd3a   0x00000036   Code   RO          748    i.flags_encode      ble_advdata.o
    0x0001bd70   0x0001bd70   0x0000002a   Code   RO          878    i.flags_set         ble_advertising.o
    0x0001bd9a   0x0001bd9a   0x00000010   Code   RO         4708    i.fputc             retarget.o
    0x0001bdaa   0x0001bdaa   0x00000002   PAD
    0x0001bdac   0x0001bdac   0x00000080   Code   RO           13    i.gap_params_init   main.o
    0x0001be2c   0x0001be2c   0x0000006c   Code   RO           14    i.gatt_evt_handler  main.o
    0x0001be98   0x0001be98   0x00000044   Code   RO           15    i.gatt_init         main.o
    0x0001bedc   0x0001bedc   0x0000003c   Code   RO         3386    i.get_now           app_timer2.o
    0x0001bf18   0x0001bf18   0x00000048   Code   RO         3038    i.gpiote_event_handler  app_button.o
    0x0001bf60   0x0001bf60   0x0000000e   Code   RO           16    i.idle_state_handle  main.o
    0x0001bf6e   0x0001bf6e   0x00000002   PAD
    0x0001bf70   0x0001bf70   0x0000002c   Code   RO         1027    i.instance_get      ble_conn_params.o
    0x0001bf9c   0x0001bf9c   0x000000be   Code   RO         4325    i.int_print         nrf_fprintf_format.o
    0x0001c05a   0x0001c05a   0x00000002   PAD
    0x0001c05c   0x0001c05c   0x00000094   Code   RO         2566    i.interrupts_enable  nrfx_uart.o
    0x0001c0f0   0x0001c0f0   0x000000b4   Code   RO         2811    i.interrupts_enable  nrfx_uarte.o
    0x0001c1a4   0x0001c1a4   0x00000046   Code   RO         4887    i.invalid_packets_omit  nrf_log_frontend.o
    0x0001c1ea   0x0001c1ea   0x00000072   Code   RO         1028    i.is_conn_params_ok  ble_conn_params.o
    0x0001c25c   0x0001c25c   0x0000000c   Code   RO         1616    i.item_dequeue      nrf_drv_clock.o
    0x0001c268   0x0001c268   0x00000026   Code   RO         2145    i.latch_pending_read_and_check  nrfx_gpiote.o
    0x0001c28e   0x0001c28e   0x00000002   PAD
    0x0001c290   0x0001c290   0x00000018   Code   RO         1618    i.lfclk_stop        nrf_drv_clock.o
    0x0001c2a8   0x0001c2a8   0x00000010   Code   RO         1408    i.link_init         nrf_ble_gatt.o
    0x0001c2b8   0x0001c2b8   0x00000026   Code   RO           17    i.log_init          main.o
    0x0001c2de   0x0001c2de   0x00000002   PAD
    0x0001c2e0   0x0001c2e0   0x000000cc   Code   RO         4888    i.log_skip          nrf_log_frontend.o
    0x0001c3ac   0x0001c3ac   0x000000dc   Code   RO           18    i.main              main.o
    0x0001c488   0x0001c488   0x00000076   Code   RO          749    i.manuf_specific_data_encode  ble_advdata.o
    0x0001c4fe   0x0001c4fe   0x000000ca   Code   RO         4369    i.memobj_op         nrf_memobj.o
    0x0001c5c8   0x0001c5c8   0x00000038   Code   RO         4889    i.module_idx_get    nrf_log_frontend.o
    0x0001c600   0x0001c600   0x000000c8   Code   RO          750    i.name_encode       ble_advdata.o
    0x0001c6c8   0x0001c6c8   0x00000068   Code   RO         5762    i.nrf52_errata_136  system_nrf52805.o
    0x0001c730   0x0001c730   0x00000024   Code   RO         5829    i.nrf52_errata_217  system_nrf52805.o
    0x0001c754   0x0001c754   0x00000068   Code   RO         5852    i.nrf52_errata_31   system_nrf52805.o
    0x0001c7bc   0x0001c7bc   0x00000068   Code   RO         5857    i.nrf52_errata_36   system_nrf52805.o
    0x0001c824   0x0001c824   0x00000068   Code   RO         5880    i.nrf52_errata_66   system_nrf52805.o
    0x0001c88c   0x0001c88c   0x00000028   Code   RO         3964    i.nrf_atfifo_init   nrf_atfifo.o
    0x0001c8b4   0x0001c8b4   0x0000001c   Code   RO         3965    i.nrf_atfifo_item_alloc  nrf_atfifo.o
    0x0001c8d0   0x0001c8d0   0x0000001c   Code   RO         3966    i.nrf_atfifo_item_free  nrf_atfifo.o
    0x0001c8ec   0x0001c8ec   0x0000001c   Code   RO         3967    i.nrf_atfifo_item_get  nrf_atfifo.o
    0x0001c908   0x0001c908   0x0000001c   Code   RO         3968    i.nrf_atfifo_item_put  nrf_atfifo.o
    0x0001c924   0x0001c924   0x0000001e   Code   RO         4033    i.nrf_atflags_clear  nrf_atflags.o
    0x0001c942   0x0001c942   0x0000001e   Code   RO         4038    i.nrf_atflags_get   nrf_atflags.o
    0x0001c960   0x0001c960   0x0000001e   Code   RO         4040    i.nrf_atflags_set   nrf_atflags.o
    0x0001c97e   0x0001c97e   0x0000000e   Code   RO         4101    i.nrf_atomic_flag_clear_fetch  nrf_atomic.o
    0x0001c98c   0x0001c98c   0x0000000e   Code   RO         4102    i.nrf_atomic_flag_set  nrf_atomic.o
    0x0001c99a   0x0001c99a   0x00000016   Code   RO         4104    i.nrf_atomic_u32_add  nrf_atomic.o
    0x0001c9b0   0x0001c9b0   0x00000016   Code   RO         4105    i.nrf_atomic_u32_and  nrf_atomic.o
    0x0001c9c6   0x0001c9c6   0x00000016   Code   RO         4108    i.nrf_atomic_u32_fetch_and  nrf_atomic.o
    0x0001c9dc   0x0001c9dc   0x00000016   Code   RO         4110    i.nrf_atomic_u32_fetch_store  nrf_atomic.o
    0x0001c9f2   0x0001c9f2   0x00000016   Code   RO         4114    i.nrf_atomic_u32_or  nrf_atomic.o
    0x0001ca08   0x0001ca08   0x00000016   Code   RO         4116    i.nrf_atomic_u32_sub  nrf_atomic.o
    0x0001ca1e   0x0001ca1e   0x00000052   Code   RO         4238    i.nrf_balloc_alloc  nrf_balloc.o
    0x0001ca70   0x0001ca70   0x00000010   Code   RO         4239    i.nrf_balloc_block2idx  nrf_balloc.o
    0x0001ca80   0x0001ca80   0x00000030   Code   RO         4240    i.nrf_balloc_free   nrf_balloc.o
    0x0001cab0   0x0001cab0   0x0000000c   Code   RO         4241    i.nrf_balloc_idx2block  nrf_balloc.o
    0x0001cabc   0x0001cabc   0x0000003c   Code   RO         4242    i.nrf_balloc_init   nrf_balloc.o
    0x0001caf8   0x0001caf8   0x00000016   Code   RO         2146    i.nrf_bitmask_bit_is_set  nrfx_gpiote.o
    0x0001cb0e   0x0001cb0e   0x0000001e   Code   RO         1410    i.nrf_ble_gatt_att_mtu_periph_set  nrf_ble_gatt.o
    0x0001cb2c   0x0001cb2c   0x00000038   Code   RO         1412    i.nrf_ble_gatt_init  nrf_ble_gatt.o
    0x0001cb64   0x0001cb64   0x000000f8   Code   RO         1413    i.nrf_ble_gatt_on_ble_evt  nrf_ble_gatt.o
    0x0001cc5c   0x0001cc5c   0x00000020   Code   RO         1493    i.nrf_ble_qwr_conn_handle_assign  nrf_ble_qwr.o
    0x0001cc7c   0x0001cc7c   0x00000032   Code   RO         1494    i.nrf_ble_qwr_init  nrf_ble_qwr.o
    0x0001ccae   0x0001ccae   0x0000007c   Code   RO         1495    i.nrf_ble_qwr_on_ble_evt  nrf_ble_qwr.o
    0x0001cd2a   0x0001cd2a   0x00000012   Code   RO         1978    i.nrf_clock_event_check  nrfx_clock.o
    0x0001cd3c   0x0001cd3c   0x00000012   Code   RO         1979    i.nrf_clock_event_clear  nrfx_clock.o
    0x0001cd4e   0x0001cd4e   0x00000002   PAD
    0x0001cd50   0x0001cd50   0x0000000c   Code   RO         1980    i.nrf_clock_int_disable  nrfx_clock.o
    0x0001cd5c   0x0001cd5c   0x00000008   Code   RO         1982    i.nrf_clock_task_trigger  nrfx_clock.o
    0x0001cd64   0x0001cd64   0x0000004c   Code   RO         1624    i.nrf_drv_clock_init  nrf_drv_clock.o
    0x0001cdb0   0x0001cdb0   0x00000030   Code   RO         1628    i.nrf_drv_clock_lfclk_release  nrf_drv_clock.o
    0x0001cde0   0x0001cde0   0x0000008c   Code   RO         1783    i.nrf_drv_uart_init  nrf_drv_uart.o
    0x0001ce6c   0x0001ce6c   0x00000044   Code   RO         3542    i.nrf_drv_uart_rx   app_uart_fifo.o
    0x0001ceb0   0x0001ceb0   0x00000044   Code   RO         3543    i.nrf_drv_uart_tx   app_uart_fifo.o
    0x0001cef4   0x0001cef4   0x0000002a   Code   RO         4285    i.nrf_fprintf       nrf_fprintf.o
    0x0001cf1e   0x0001cf1e   0x0000001c   Code   RO         4286    i.nrf_fprintf_buffer_flush  nrf_fprintf.o
    0x0001cf3a   0x0001cf3a   0x000001f0   Code   RO         4326    i.nrf_fprintf_fmt   nrf_fprintf_format.o
    0x0001d12a   0x0001d12a   0x00000028   Code   RO         2147    i.nrf_gpio_cfg      nrfx_gpiote.o
    0x0001d152   0x0001d152   0x00000028   Code   RO         2567    i.nrf_gpio_cfg      nrfx_uart.o
    0x0001d17a   0x0001d17a   0x00000028   Code   RO         2812    i.nrf_gpio_cfg      nrfx_uarte.o
    0x0001d1a2   0x0001d1a2   0x0000001a   Code   RO         2569    i.nrf_gpio_cfg_input  nrfx_uart.o
    0x0001d1bc   0x0001d1bc   0x0000001a   Code   RO         2814    i.nrf_gpio_cfg_input  nrfx_uarte.o
    0x0001d1d6   0x0001d1d6   0x00000018   Code   RO         2570    i.nrf_gpio_cfg_output  nrfx_uart.o
    0x0001d1ee   0x0001d1ee   0x00000018   Code   RO         2815    i.nrf_gpio_cfg_output  nrfx_uarte.o
    0x0001d206   0x0001d206   0x00000032   Code   RO         2149    i.nrf_gpio_cfg_sense_set  nrfx_gpiote.o
    0x0001d238   0x0001d238   0x00000034   Code   RO         2150    i.nrf_gpio_latches_read_and_clear  nrfx_gpiote.o
    0x0001d26c   0x0001d26c   0x00000022   Code   RO         2152    i.nrf_gpio_pin_present_check  nrfx_gpiote.o
    0x0001d28e   0x0001d28e   0x00000018   Code   RO         2153    i.nrf_gpio_pin_read  nrfx_gpiote.o
    0x0001d2a6   0x0001d2a6   0x00000016   Code   RO         2571    i.nrf_gpio_pin_set  nrfx_uart.o
    0x0001d2bc   0x0001d2bc   0x00000016   Code   RO         2816    i.nrf_gpio_pin_set  nrfx_uarte.o
    0x0001d2d2   0x0001d2d2   0x00000002   PAD
    0x0001d2d4   0x0001d2d4   0x0000000c   Code   RO         2155    i.nrf_gpiote_event_addr_get  nrfx_gpiote.o
    0x0001d2e0   0x0001d2e0   0x0000001c   Code   RO         2156    i.nrf_gpiote_event_clear  nrfx_gpiote.o
    0x0001d2fc   0x0001d2fc   0x00000016   Code   RO         2157    i.nrf_gpiote_event_is_set  nrfx_gpiote.o
    0x0001d312   0x0001d312   0x00000002   PAD
    0x0001d314   0x0001d314   0x0000000c   Code   RO         2158    i.nrf_gpiote_int_enable  nrfx_gpiote.o
    0x0001d320   0x0001d320   0x00000054   Code   RO         4890    i.nrf_log_backend_add  nrf_log_frontend.o
    0x0001d374   0x0001d374   0x00000002   Code   RO         4744    i.nrf_log_backend_rtt_flush  nrf_log_backend_rtt.o
    0x0001d376   0x0001d376   0x00000008   Code   RO         4745    i.nrf_log_backend_rtt_init  nrf_log_backend_rtt.o
    0x0001d37e   0x0001d37e   0x00000002   Code   RO         4746    i.nrf_log_backend_rtt_panic_set  nrf_log_backend_rtt.o
    0x0001d380   0x0001d380   0x00000020   Code   RO         4747    i.nrf_log_backend_rtt_put  nrf_log_backend_rtt.o
    0x0001d3a0   0x0001d3a0   0x000000f2   Code   RO         4812    i.nrf_log_backend_serial_put  nrf_log_backend_serial.o
    0x0001d492   0x0001d492   0x00000002   PAD
    0x0001d494   0x0001d494   0x00000038   Code   RO         4892    i.nrf_log_color_id_get  nrf_log_frontend.o
    0x0001d4cc   0x0001d4cc   0x00000028   Code   RO         4846    i.nrf_log_default_backends_init  nrf_log_default_backends.o
    0x0001d4f4   0x0001d4f4   0x0000031c   Code   RO         4893    i.nrf_log_frontend_dequeue  nrf_log_frontend.o
    0x0001d810   0x0001d810   0x00000014   Code   RO         4895    i.nrf_log_frontend_std_0  nrf_log_frontend.o
    0x0001d824   0x0001d824   0x00000018   Code   RO         4896    i.nrf_log_frontend_std_1  nrf_log_frontend.o
    0x0001d83c   0x0001d83c   0x00000020   Code   RO         4897    i.nrf_log_frontend_std_2  nrf_log_frontend.o
    0x0001d85c   0x0001d85c   0x000000bc   Code   RO         5086    i.nrf_log_hexdump_entry_process  nrf_log_str_formatter.o
    0x0001d918   0x0001d918   0x00000048   Code   RO         4902    i.nrf_log_init      nrf_log_frontend.o
    0x0001d960   0x0001d960   0x00000014   Code   RO         4903    i.nrf_log_module_cnt_get  nrf_log_frontend.o
    0x0001d974   0x0001d974   0x00000024   Code   RO         4907    i.nrf_log_module_name_get  nrf_log_frontend.o
    0x0001d998   0x0001d998   0x00000034   Code   RO         4908    i.nrf_log_panic     nrf_log_frontend.o
    0x0001d9cc   0x0001d9cc   0x000000c8   Code   RO         5087    i.nrf_log_std_entry_process  nrf_log_str_formatter.o
    0x0001da94   0x0001da94   0x0000007a   Code   RO         4370    i.nrf_memobj_alloc  nrf_memobj.o
    0x0001db0e   0x0001db0e   0x00000040   Code   RO         4371    i.nrf_memobj_free   nrf_memobj.o
    0x0001db4e   0x0001db4e   0x00000010   Code   RO         4372    i.nrf_memobj_get    nrf_memobj.o
    0x0001db5e   0x0001db5e   0x0000000c   Code   RO         4373    i.nrf_memobj_pool_init  nrf_memobj.o
    0x0001db6a   0x0001db6a   0x0000001e   Code   RO         4374    i.nrf_memobj_put    nrf_memobj.o
    0x0001db88   0x0001db88   0x00000022   Code   RO         4375    i.nrf_memobj_read   nrf_memobj.o
    0x0001dbaa   0x0001dbaa   0x00000022   Code   RO         4376    i.nrf_memobj_write  nrf_memobj.o
    0x0001dbcc   0x0001dbcc   0x00000040   Code   RO         4449    i.nrf_pwr_mgmt_init  nrf_pwr_mgmt.o
    0x0001dc0c   0x0001dc0c   0x00000016   Code   RO         4450    i.nrf_pwr_mgmt_run  nrf_pwr_mgmt.o
    0x0001dc22   0x0001dc22   0x00000010   Code   RO           19    i.nrf_qwr_error_handler  main.o
    0x0001dc32   0x0001dc32   0x0000001c   Code   RO         4525    i.nrf_ringbuf_init  nrf_ringbuf.o
    0x0001dc4e   0x0001dc4e   0x0000000c   Code   RO         3718    i.nrf_rtc_cc_get    drv_rtc.o
    0x0001dc5a   0x0001dc5a   0x0000000a   Code   RO         3719    i.nrf_rtc_cc_set    drv_rtc.o
    0x0001dc64   0x0001dc64   0x00000008   Code   RO         3720    i.nrf_rtc_counter_get  drv_rtc.o
    0x0001dc6c   0x0001dc6c   0x0000000e   Code   RO         3721    i.nrf_rtc_event_clear  drv_rtc.o
    0x0001dc7a   0x0001dc7a   0x00000006   Code   RO         3722    i.nrf_rtc_event_disable  drv_rtc.o
    0x0001dc80   0x0001dc80   0x00000006   Code   RO         3723    i.nrf_rtc_event_enable  drv_rtc.o
    0x0001dc86   0x0001dc86   0x00000006   Code   RO         3724    i.nrf_rtc_int_disable  drv_rtc.o
    0x0001dc8c   0x0001dc8c   0x00000006   Code   RO         3725    i.nrf_rtc_int_enable  drv_rtc.o
    0x0001dc92   0x0001dc92   0x00000006   Code   RO         3726    i.nrf_rtc_task_trigger  drv_rtc.o
    0x0001dc98   0x0001dc98   0x00000018   Code   RO         5551    i.nrf_sdh_ble_app_ram_start_get  nrf_sdh_ble.o
    0x0001dcb0   0x0001dcb0   0x00000194   Code   RO         5552    i.nrf_sdh_ble_default_cfg_set  nrf_sdh_ble.o
    0x0001de44   0x0001de44   0x0000014c   Code   RO         5553    i.nrf_sdh_ble_enable  nrf_sdh_ble.o
    0x0001df90   0x0001df90   0x00000074   Code   RO         5554    i.nrf_sdh_ble_evts_poll  nrf_sdh_ble.o
    0x0001e004   0x0001e004   0x00000084   Code   RO         5423    i.nrf_sdh_enable_request  nrf_sdh.o
    0x0001e088   0x0001e088   0x00000030   Code   RO         5424    i.nrf_sdh_evts_poll  nrf_sdh.o
    0x0001e0b8   0x0001e0b8   0x0000000c   Code   RO         5425    i.nrf_sdh_is_enabled  nrf_sdh.o
    0x0001e0c4   0x0001e0c4   0x00000054   Code   RO         5610    i.nrf_sdh_soc_evts_poll  nrf_sdh_soc.o
    0x0001e118   0x0001e118   0x00000006   Code   RO         5430    i.nrf_section_iter_get  nrf_sdh.o
    0x0001e11e   0x0001e11e   0x00000014   Code   RO         4583    i.nrf_section_iter_init  nrf_section_iter.o
    0x0001e132   0x0001e132   0x0000002e   Code   RO         4584    i.nrf_section_iter_item_set  nrf_section_iter.o
    0x0001e160   0x0001e160   0x0000002e   Code   RO         4585    i.nrf_section_iter_next  nrf_section_iter.o
    0x0001e18e   0x0001e18e   0x00000028   Code   RO         4618    i.nrf_sortlist_add  nrf_sortlist.o
    0x0001e1b6   0x0001e1b6   0x00000008   Code   RO         4620    i.nrf_sortlist_peek  nrf_sortlist.o
    0x0001e1be   0x0001e1be   0x00000018   Code   RO         4621    i.nrf_sortlist_pop  nrf_sortlist.o
    0x0001e1d6   0x0001e1d6   0x00000026   Code   RO         4622    i.nrf_sortlist_remove  nrf_sortlist.o
    0x0001e1fc   0x0001e1fc   0x00000040   Code   RO         4674    i.nrf_strerror_find  nrf_strerror.o
    0x0001e23c   0x0001e23c   0x0000001c   Code   RO         4675    i.nrf_strerror_get  nrf_strerror.o
    0x0001e258   0x0001e258   0x0000000c   Code   RO         2572    i.nrf_uart_errorsrc_get_and_clear  nrfx_uart.o
    0x0001e264   0x0001e264   0x0000000e   Code   RO         2573    i.nrf_uart_event_check  nrfx_uart.o
    0x0001e272   0x0001e272   0x0000000e   Code   RO         2574    i.nrf_uart_event_clear  nrfx_uart.o
    0x0001e280   0x0001e280   0x0000000c   Code   RO         2575    i.nrf_uart_hwfc_pins_set  nrfx_uart.o
    0x0001e28c   0x0001e28c   0x00000006   Code   RO         2576    i.nrf_uart_int_disable  nrfx_uart.o
    0x0001e292   0x0001e292   0x00000006   Code   RO         2577    i.nrf_uart_int_enable  nrfx_uart.o
    0x0001e298   0x0001e298   0x00000012   Code   RO         2578    i.nrf_uart_int_enable_check  nrfx_uart.o
    0x0001e2aa   0x0001e2aa   0x00000006   Code   RO         2579    i.nrf_uart_task_trigger  nrfx_uart.o
    0x0001e2b0   0x0001e2b0   0x0000000e   Code   RO         2580    i.nrf_uart_txrx_pins_set  nrfx_uart.o
    0x0001e2be   0x0001e2be   0x0000000c   Code   RO         2817    i.nrf_uarte_errorsrc_get_and_clear  nrfx_uarte.o
    0x0001e2ca   0x0001e2ca   0x0000000e   Code   RO         2818    i.nrf_uarte_event_check  nrfx_uarte.o
    0x0001e2d8   0x0001e2d8   0x0000000e   Code   RO         2819    i.nrf_uarte_event_clear  nrfx_uarte.o
    0x0001e2e6   0x0001e2e6   0x0000000c   Code   RO         2820    i.nrf_uarte_hwfc_pins_set  nrfx_uarte.o
    0x0001e2f2   0x0001e2f2   0x00000006   Code   RO         2821    i.nrf_uarte_int_disable  nrfx_uarte.o
    0x0001e2f8   0x0001e2f8   0x00000006   Code   RO         2822    i.nrf_uarte_int_enable  nrfx_uarte.o
    0x0001e2fe   0x0001e2fe   0x0000000a   Code   RO         2823    i.nrf_uarte_rx_amount_get  nrfx_uarte.o
    0x0001e308   0x0001e308   0x0000000c   Code   RO         2824    i.nrf_uarte_shorts_disable  nrfx_uarte.o
    0x0001e314   0x0001e314   0x00000006   Code   RO         2825    i.nrf_uarte_task_trigger  nrfx_uarte.o
    0x0001e31a   0x0001e31a   0x0000000a   Code   RO         2826    i.nrf_uarte_tx_amount_get  nrfx_uarte.o
    0x0001e324   0x0001e324   0x0000000e   Code   RO         2827    i.nrf_uarte_txrx_pins_set  nrfx_uarte.o
    0x0001e332   0x0001e332   0x00000002   PAD
    0x0001e334   0x0001e334   0x00000014   Code   RO         1631    i.nrf_wdt_started   nrf_drv_clock.o
    0x0001e348   0x0001e348   0x00000014   Code   RO         1987    i.nrfx_clock_enable  nrfx_clock.o
    0x0001e35c   0x0001e35c   0x00000020   Code   RO         1990    i.nrfx_clock_init   nrfx_clock.o
    0x0001e37c   0x0001e37c   0x0000002c   Code   RO         1993    i.nrfx_clock_lfclk_stop  nrfx_clock.o
    0x0001e3a8   0x0001e3a8   0x00000018   Code   RO         3727    i.nrfx_coredep_delay_us  drv_rtc.o
    0x0001e3c0   0x0001e3c0   0x00000008   Code   RO         1995    i.nrfx_get_irq_number  nrfx_clock.o
    0x0001e3c8   0x0001e3c8   0x00000008   Code   RO         2161    i.nrfx_get_irq_number  nrfx_gpiote.o
    0x0001e3d0   0x0001e3d0   0x00000008   Code   RO         2581    i.nrfx_get_irq_number  nrfx_uart.o
    0x0001e3d8   0x0001e3d8   0x00000008   Code   RO         2828    i.nrfx_get_irq_number  nrfx_uarte.o
    0x0001e3e0   0x0001e3e0   0x000000ac   Code   RO         2167    i.nrfx_gpiote_in_event_enable  nrfx_gpiote.o
    0x0001e48c   0x0001e48c   0x000000f4   Code   RO         2169    i.nrfx_gpiote_in_init  nrfx_gpiote.o
    0x0001e580   0x0001e580   0x00000014   Code   RO         2170    i.nrfx_gpiote_in_is_set  nrfx_gpiote.o
    0x0001e594   0x0001e594   0x000000d4   Code   RO         2172    i.nrfx_gpiote_init  nrfx_gpiote.o
    0x0001e668   0x0001e668   0x00000014   Code   RO         2173    i.nrfx_gpiote_is_init  nrfx_gpiote.o
    0x0001e67c   0x0001e67c   0x00000014   Code   RO         2829    i.nrfx_is_in_ram    nrfx_uarte.o
    0x0001e690   0x0001e690   0x000000b0   Code   RO         1996    i.nrfx_power_clock_irq_init  nrfx_clock.o
    0x0001e740   0x0001e740   0x0000004e   Code   RO         2511    i.nrfx_prs_acquire  nrfx_prs.o
    0x0001e78e   0x0001e78e   0x00000002   PAD
    0x0001e790   0x0001e790   0x00000014   Code   RO         2582    i.nrfx_uart_0_irq_handler  nrfx_uart.o
    0x0001e7a4   0x0001e7a4   0x00000088   Code   RO         2584    i.nrfx_uart_init    nrfx_uart.o
    0x0001e82c   0x0001e82c   0x00000124   Code   RO         2585    i.nrfx_uart_rx      nrfx_uart.o
    0x0001e950   0x0001e950   0x0000008c   Code   RO         2590    i.nrfx_uart_tx      nrfx_uart.o
    0x0001e9dc   0x0001e9dc   0x00000024   Code   RO         2592    i.nrfx_uart_tx_in_progress  nrfx_uart.o
    0x0001ea00   0x0001ea00   0x00000014   Code   RO         2830    i.nrfx_uarte_0_irq_handler  nrfx_uarte.o
    0x0001ea14   0x0001ea14   0x00000080   Code   RO         2832    i.nrfx_uarte_init   nrfx_uarte.o
    0x0001ea94   0x0001ea94   0x00000138   Code   RO         2833    i.nrfx_uarte_rx     nrfx_uarte.o
    0x0001ebcc   0x0001ebcc   0x000000c0   Code   RO         2836    i.nrfx_uarte_tx     nrfx_uarte.o
    0x0001ec8c   0x0001ec8c   0x00000020   Code   RO         2838    i.nrfx_uarte_tx_in_progress  nrfx_uarte.o
    0x0001ecac   0x0001ecac   0x000000a8   Code   RO           20    i.nus_data_handler  main.o
    0x0001ed54   0x0001ed54   0x00000032   Code   RO           21    i.on_adv_evt        main.o
    0x0001ed86   0x0001ed86   0x00000002   PAD
    0x0001ed88   0x0001ed88   0x00000014   Code   RO         3387    i.on_compare1_evt   app_timer2.o
