:020000040002F8
:10600000E05D0020C1630200C9630200CB630200AF
:10601000CD630200CF630200D163020000000000E4
:10602000000000000000000000000000D363020038
:10603000D563020000000000D7630200D9630200AC
:1060400031660200DB63020019690200DB630200B3
:10605000DB630200000000008D650200DB630200CC
:10606000DB630200DB630200DB630200DB63020030
:10607000DB630200DB630200DB630200DB63020020
:10608000DB63020081660200DB63020000000000A7
:10609000DB630200DB63020091660200DB63020047
:1060A000DB630200DB630200000000000000000070
:1060B00000000000000000000000000000000000E0
:1060C00000000000000000000000000000000000D0
:1060D00000000000000000000000000000000000C0
:1060E00000000000000000000000000000000000B0
:1060F00000000000000000000000000000000000A0
:10610000000000000000000000000000000000008F
:10611000000000000000000000000000000000007F
:10612000000000000000000000000000000000006F
:10613000000000000000000000000000000000005F
:10614000000000000000000000000000000000004F
:10615000000000000000000000000000000000003F
:10616000000000000000000000000000000000002F
:10617000000000000000000000000000000000001F
:10618000000000000000000000000000000000000F
:1061900000000000000000000000000000000000FF
:1061A00000000000000000000000000000000000EF
:1061B00000000000000000000000000000000000DF
:1061C00000000000000000000000000000000000CF
:1061D00000000000000000000000000000000000BF
:1061E00000000000000000000000000000000000AF
:1061F000000000000000000000000000000000009F
:10620000DFF80CD000F074F90048004781A30200C9
:10621000E05D002030B450E8012F93B2C4892344DC
:106220008489A34228BF1B1B0489A34202BFBFF37A
:106230002F8F002007E0C3EA020340E80134002C5E
:10624000E9D14FF001000A6030BC704750E8012FDF
:10625000C2EA024240E801210029F7D1704730B478
:1062600050E8022F1FFAA2F3C488A34202BFBFF373
:106270002F8F00200DE0C48923448489A34228BFC6
:106280001B1BC2EA034340E80234002CE8D14FF064
:1062900001000A6030BC704750E8022FC2EA224277
:1062A00040E802210029F7D17047034653E8022F46
:1062B000D988B2EB324F4FF0000017BF92B241EADB
:1062C000014142EA014104E05A68B2EB324F08BF93
:1062D000012043E80212002AE8D1704730B4044696
:1062E00054E8000F0D4644E80053002BF8D1156028
:1062F00030BC704730B4044654E8000F40EA010552
:1063000044E80053002BF7D1156030BC704730B41F
:10631000044654E8000F00EA010544E80053002B4E
:10632000F7D1156030BC704730B4044654E8000F14
:1063300080EA010544E80053002BF7D1156030BC1A
:10634000704730B4044654E8000F00EB010544E800
:106350000053002BF7D1156030BC704730B40446B1
:1063600054E8000FA0EB010544E80053002BF7D1DF
:10637000156030BC704770B404464FF0000054E81C
:10638000006F0D68AE4207BF44E80023012044E8D7
:1063900000630E60002B1CBF0020F0E770BC70474C
:1063A00030B4044654E8000F88422CBF451A054615
:1063B00044E80053002BF5D1156030BC7047000055
:1063C0000648804706480047FEE7FEE7FEE7FEE78F
:1063D000FEE7FEE7FEE7FEE7FEE7FEE79566020062
:1063E00001620200202A04DB203A00FA02F10020B8
:1063F00070479140C2F1200320FA03F31943904003
:10640000704740EA01039B0703D009E008C9121F47
:1064100008C0042AFAD203E011F8013B00F8013B5E
:10642000521EF9D27047D2B201E000F8012B491E8A
:10643000FBD270470022F6E710B513460A46044621
:106440001946FFF7F0FF204610BD421C10F8011B53
:106450000029FBD1801A704710B5002200E0521CC1
:10646000835C8C5CA34201D1002BF8D1D8B2E1B29D
:10647000401A10BD30B504460020034600E05B1C06
:10648000934203D2E05CCD5C401BF8D030BD2DE9D7
:10649000F05F0546002092469B46884606468146A8
:1064A00040241BE0284641464746224600F032F889
:1064B00053465A46C01A914110D3114618462246F7
:1064C000FFF790FF2D1A67EB01084F462246012087
:1064D0000021FFF787FF17EB00094E41201EA4F1B2
:1064E0000104DFDC484631462A464346BDE8F09FBA
:1064F000064C074D06E0E06840F0010394E8070011
:1065000098471034AC42F6D3FFF77EFEF0F302005A
:1065100010F40200202A04DB203A21FA02F00021C4
:10652000704721FA02F3D040C2F1200291400843A3
:106530001946704770B58C1810F8015B15F0070309
:1065400001D110F8013B2A1106D110F8012B03E00C
:1065500010F8016B01F8016B5B1EF9D12B0705D414
:106560000023521E0DD401F8013BFAE710F8013B5D
:10657000CB1A921C03E013F8015B01F8015B521E79
:10658000F9D5A142D8D3002070BD00002DE9F84311
:106590000025DFF894804FF4807601242F46009583
:1065A000304605F039F938B1D8F80403204203D059
:1065B000304605F027F92543361D64007F1CB6B22E
:1065C000082FEDD34FF4BE74204605F025F948B1ED
:1065D000204605F017F945F000456A4601210020E4
:1065E00005F0FAF815F0FF0F16D0012600242E4210
:1065F0000ED008EB8401D1F81005D1F81015C0F3C6
:1066000004200A4AC1F3014152F8242002B1904704
:106610007600641C082CEAD3002D02DA684606F0E6
:106620005DFDBDE8F883000000600040104C0020D4
:1066300070B54FF48076304604F00CFF0F4DB40572
:1066400040B1304604F00DFF0120C4F8080329686A
:10665000002088474FF48276304604F0FBFE002885
:106660000AD0304604F0FDFE0220C4F80803296871
:10667000BDE870400120084770BD00004040002088
:1066800002490248091F0968006808472C41002098
:1066900005F004BB2DE9F0418F4E4FF080548D4D35
:1066A000D4F8301130782B684F1CC0F3031200D19E
:1066B000D9B200274FF00108062905D1B4F8240308
:1066C0008649C0F304200860D8B2062804D1032A02
:1066D00002D184498248486704F0A0F828B1D4F870
:1066E00044028149C0F34230086029783078062995
:1066F000C0F3031006D1032804D17C48016821F0BF
:106700008071016004F09EF840B14FF08040C0F805
:106710000C71C0F810717448001F07602968307848
:10672000CAB2C0F30310062A05D1032803D16E4B69
:10673000032264331A60C9B206290ED103280CD192
:106740006B4A052111606A497831C1F800806848B8
:1067500008300760111D3F20086004F087F8E8B397
:1067600064480068644908606248001D0068091DAB
:106770000860604808300068091D08605D480C30FA
:106780000068091D08605B4810300068091D08603A
:10679000584814300068091D0860564818300068D1
:1067A00055492031086053481C300068091D0860B5
:1067B000504820300068091D08604E4824300068A9
:1067C000091D08604B4828300068091D08604948C9
:1067D0002C300068091D0860464800E018E03030A1
:1067E0000068454940310860424834300068091D5E
:1067F0000860404838300068091D08603D483C305A
:106800000068091D08603B4840300068091D0860A9
:10681000D4F83011481C00D12978384D062904D10C
:10682000D4F8580200F04F00286003F0E3FF30B1C5
:1068300033480168C90702D06FF001010160D4E953
:106840004C10062907D1C21E022A04D92D4A13680A
:1068500043F4806313600F2903D12A6842F00F02CA
:106860002A604FF01022062907D1C01E032804D940
:10687000D2F808021C491C310860D2F80002002836
:1068800003DBD2F8040200281FDA012005F0BEFD68
:106890001521C2F800121C480368002BFCD0C2F876
:1068A000041201680029FCD0002005F0AFFDBFF301
:1068B0004F8F0E48F0380168144A01F4E06111432B
:1068C0000160BFF34F8F00BFFDE712491048086019
:1068D000BDE8F081E00F00F0E80F00F04035014026
:1068E0000DF0ADBA00C007403C050040FCED00E0F3
:1068F000105600400404001020C50040E40E004083
:10690000000400403C17004000E401400400FA0588
:106910000090D00344410020014800680047000077
:10692000484000200FB4054B10B503A9044A029853
:1069300000F02AF810BC5DF814FB0000DD940200A2
:106940003C41002002E008C8121F08C1002AFAD109
:1069500070477047002001E001C1121F002AFBD1DF
:10696000704700000121202803DA814005480140DA
:1069700003E0402802DA2038814009B10120704745
:1069800000207047FC06FFBD2DE9FF4F8DB00F467C
:106990000546002606E025280BD0DDE90F129047BA
:1069A0006D1C761C28780028F5D111B03046BDE862
:1069B000F08F0024A246A1460122EC4900E00443E6
:1069C00015F8013F203B02FA03F00842F7D128787E
:1069D0002A2810D06FF02F022878A0F13001092961
:1069E00014D80AEB8A0102EB410144F0020400EBE7
:1069F000010A6D1CF0E701CF5FEA000A03D544F4F9
:106A00000054CAF1000A44F002046D1C28782E28B4
:106A100017D115F8010F44F004042A280ED06FF0A6
:106A20002F022878A0F1300109290AD809EB890141
:106A300002EB410100EB01096D1CF2E757F8049BE2
:106A40006D1C28786C280FD006DC4C2817D06828DD
:106A50000DD06A2814D104E0742810D07A280FD100
:106A60000DE044F400140AE044F4801401E044F41E
:106A700040146978814202D104F580146D1C6D1CAC
:106A80002A786E2A1FD00CDC632A31D004DC002A5D
:106A90008BD0582A11D1A3E0642A68D0692A0CD17E
:106AA00065E0732A2ED004DC6F2A73D0702A04D1DB
:106AB0009BE0752A6FD0782A6ED01046DDE90F1260
:106AC0009047761C50E1C4F30250022806D00328F8
:106AD00009D0042801CF09D0066045E101CFF117A4
:106AE000C0E9006140E101CF06803DE106703BE175
:106AF00017F8040B8DF8000000208DF80100EB461C
:106B0000012003E057F804BB4FF0FF3061074FF05E
:106B1000000102D40DE008F10101884649450FDA71
:106B20008045F8DB1BF808100029F4D108E008F1D3
:106B3000010188468142FADB1BF808100029F6D1D2
:106B4000DDE90F23AAEB08008146214600F036F963
:106B5000304400EB080604E0DDE90F121BF8010BDE
:106B60009047B8F10108F7D221464846F7E00A21DC
:106B7000C4F302534FF0000B0891022B04D001CF55
:106B8000C117032B09D00AE0FF1D27F00707F7E81C
:106B9000020108E032E01FE020E000B2C117042B40
:106BA00001D140B2C117031E71F1000307DA4FF0A3
:106BB000000CD0EB0C006CEB01012D2302E023054F
:106BC00004D52B238DF82430012303E0E30701D003
:106BD0002023F7E7984658E00A2110E010210EE044
:106BE00010204FF0000B08900CE010214FF0000B2C
:106BF00044F004044FF00809089103E008214FF025
:106C0000000B0891C4F30253022B04D001CF0021E2
:106C1000032B06D006E0FF1D27F00707F7E8020167
:106C200003E080B2042B00D1C0B24FF0000823076C
:106C30002BD5702A07D0DDF820C08CF0100C5CEA50
:106C40000B0C05D00EE040238DF82430012308E022
:106C500050EA010306D030238DF824308DF825202A
:106C600002239846DDF820C08CF0080C5CEA0B0C7F
:106C70000BD150EA010301D1630706D530238DF80B
:106C800024304FF00108A9F10109582A04D038A294
:106C90000B9208AA0A920BE03AA2F9E75B46089A1F
:106CA000FFF7F5FB0B9B9B5C0A9A521E0A9213702E
:106CB00050EA0102F2D10A98ADEB000000F1200B7E
:106CC000600702D524F4803401E04FF00109D94572
:106CD00002DDA9EB0B0000E0002000EB0B014144BA
:106CE0000890AAEB010AE00306D4DDE90F23214650
:106CF000504600F063F806444FF0000908E009A987
:106D000011F80900DDE90F12904709F10109761C1D
:106D1000C145F4DBE0030CD5DDE90F2321465046E5
:106D200000F04CF8064404E0DDE90F1230209047F3
:106D3000761C0899481E08900029F5DC08E00A989E
:106D40000A990078491C0A91DDE90F129047761CD8
:106D5000BBF10001ABF1010BF1DC21465046DDE94E
:106D60000F2300F019F806446D1C1BE609280100EA
:106D700030313233343536373839616263646566B1
:106D80000000000030313233343536373839414273
:106D900043444546000000002DE9F041044600252B
:106DA0001E461746880404D405E039462020B04723
:106DB0006D1C641EF9D52846BDE8F0812DE9F0412F
:106DC000044600251E469046C80301D5302700E042
:106DD0002027880404D505E041463846B0476D1C9D
:106DE000641EF9D52846BDE8F08110B560B159B1EF
:106DF00002780B785208B2EB530F05D10622401CE3
:106E0000491CFFF737FB08B1002010BD012010BD61
:106E1000800701D00020704701207047C3688B4273
:106E200006D811440069491E814201D801207047EB
:106E30000020704790F82400012801D01F207047DF
:106E4000EE20704710B501220221002001F00CFC59
:106E500008B1072810D107220221012001F004FC0B
:106E600008B1072808D100210A22084601F0FCFBDE
:106E700008B1072800D1002010BD70B58CB01546B0
:106E80000E4600236C46C3F10F01415CE1545B1CCC
:106E9000102BF8D30D2104F11000FFF7CBFA0020DE
:106EA000C0F10F02315C2244401C11740328F7D357
:106EB000684646DF0020C0F10F01214491F8201000
:106EC0002954401C0328F6D30CB070BD0149C97881
:106ED00000F0DABE9040002072B609480068C00792
:106EE00000D000BEBFF34F8F0548E4380168054A63
:106EF00001F4E06111430160BFF34F8F00BFFDE774
:106F0000F0ED00E00400FA050EB500210091CDE996
:106F100001106A4644F20100FFF7DEFF0EBD10B516
:106F20008268C368934203D002F07CFA002010BD4F
:106F3000052010BD29B112B1531E134203D0092000
:106F400070470E2070470160838000218160C1601E
:106F50000846704710B58268C3689A1A83889A42B7
:106F600003D802F069FA002010BD042010BD000013
:106F7000014801F0ECBF0000F04000203AB1006889
:106F80000129426100D000210161002070470720E3
:106F90007047000038B51148082358224168009115
:106FA0000F49006803F080FC002815D10D4A69469E
:106FB0000D4801F0D1FF04000ED101210A4802F072
:106FC00018F80123094A1946074801F098FF0649B5
:106FD000012008390870204638BD0000ECF202009C
:106FE0005051002001D80200F0400020FFFF7F0038
:106FF00070B50446007F0D4608B1002070BDA26147
:1070000002F0CCFC401941F10001C4E90201206901
:1070100000B125612146BDE87040002007F00EBB9D
:10702000014600200877012007F008BB70B50A4E22
:1070300001460A48B578FFF772FF04464DB10020BB
:10704000B070711C0122C81D04F082FA08B1FFF76C
:107050005BFF204670BD00000C410020A8510020BD
:10706000F0B5244E89B01F460D00044672603FD033
:10707000A888296882B22048FFF75CFF002835D134
:10708000A889A96882B21C481030FFF753FF002876
:107090002CD1202219496846FFF7B3F960690690A0
:1070A000207C00B101208DF814008DF81C70607CEC
:1070B00000B10E208DF81500E0680290A0680390E2
:1070C00020680190606800900A480D4A69460830BF
:1070D00004F00AFA002809D1B0702068401C05D0DD
:1070E00004490122491CC81D04F032FA09B0F0BD60
:1070F0000720FBE70C410020A851002000F302000C
:1071000061E7020010B501461048FFF723FF0400B5
:1071100019D10F480F4A0178515C19B1001D05F0D3
:1071200043F902E00C3005F019F860B90849074846
:107130000839FFF7F4FE30B905490122083904483F
:1071400004F016FA0446204610BD0000B851002095
:10715000144100203440002030B5EFF3108172B6A6
:107160000D4A9468012324B10370002900D162B64E
:1071700030BD93604FF0E023D3F88051074C254099
:107180001560C3F88041D3F8844154605A17C3F89E
:10719000842100220270E8E7C8510020FC06FFBDF0
:1071A0000B498A68002A11D000280FD1EFF3108014
:1071B00072B60B684FF0E022C2F800314B68C2F89B
:1071C000043100228A60002800D162B670470000B6
:1071D000C85100202DE9F041064608680C46411CC4
:1071E0004FF0A0474FF0010506D005FA00F1C7F8AF
:1071F0000815206804F0CBFA6068411C02D0002119
:1072000004F0B3FA3168A069C1F82405607D227DDD
:1072100031681043C1F86C05D4E900123068C0F839
:107220001425C0F80C15207D012815D1A068411C3B
:1072300002D0002104F099FAE068411C05D0854095
:10724000C7F80855E06804F0A2FAD4E902123068E1
:10725000C0F80825C0F81015BDE8F0812DE9F0410F
:10726000064608680C46411C4FF0A0474FF0010548
:1072700006D005FA00F1C7F80815206804F091FA65
:107280006068411C02D0002104F078FA3168A069DE
:10729000C1F82405607D217D32680843C2F86C0581
:1072A000D4E900123068C0F80C15C0F81425207D10
:1072B000012815D1A068411C02D0002104F05EFA1B
:1072C000E068411C05D08540C7F80855E06804F027
:1072D00068FAD4E902123068C0F80825C0F8101521
:1072E000BDE8F08103F010B82DE9F0438046058831
:1072F000384800268BB001783246284600F0DCFC86
:1073000098F80500400701D4002154E005F5807786
:10731000B8B203AB0122072105F056FB010003D0F0
:10732000284606F04FFDEFE7284602F08FFD4FF6A6
:10733000FF710446884225D18946049802F0F0FC8A
:1073400004464946484510D00146284602F05EFDF5
:107350002846FFF7BBFDA8B9284606F005FD2846DC
:10736000FFF7B4FD0028CFD00CE00E4605F072FC0C
:107370000446B04201D10421D2E70146284602F07A
:1073800045FD0126B8B22246072105F083FB010026
:1073900010D0862913D0284606F014FD002140465F
:1073A00005F07CFA002E02D0204602F039FD0BB029
:1073B000BDE8F0830121404605F070FAF7E714229A
:1073C000054905A8FFF71DF8ADF8165005A801F00E
:1073D0007BFFEFE7904000206CF2020070B51500D3
:1073E000044609D00020286034B1206820B1A0797B
:1073F000800703D0072070BD0E2070BD084600F046
:10740000CFFBC0B2142804D02179814203D80420D4
:1074100070BD052070BDE288216800FB0210286065
:10742000002070BD2DE9FC47002517880646158011
:1074300090F82D001446894630B13A462146484618
:1074400000F0D4FC051E09D1B0784FF00C0A18B337
:107450002088C846001DB84202D95046BDE8FC87C6
:10746000684679DF0028F9D12088032108F8001048
:1074700020881921401C80B2208008F80010208844
:10748000401C80B2208000EB0801BDF8000007F02E
:1074900008FB218808442080F0780222C8B12188A6
:1074A00096F9033001F1030C4846BC45D5D8425447
:1074B00021884FF0010C491C89B2218000F801C0DD
:1074C0002188491C89B2218009F801302088401C9C
:1074D00020807068B8B1218890F9003001F1030C68
:1074E0004846BC45B9D8425421880A22491C89B271
:1074F000218042542188491C89B2218009F8013039
:107500002088401C2080308950B1CDE900474B468F
:107510000622022106F1080007F038FB051E9DD166
:10752000308A50B1CDE900474B460722032106F1CE
:10753000100007F02BFB051E90D1308B50B1CDE928
:1075400000474B461522142106F1180007F01EFBD8
:10755000051E83D1306A30B13B462246494601F0D0
:1075600061FA051EDBD1706A30B13B4622464946BE
:1075700003F03CF8051ED2D196F82C0038B13B46FA
:1075800022464946304606F0F1FC051EC7D1307848
:1075900038B13B4622464946304603F09CF8051E6A
:1075A000BDD128465AE7F8B506464FF00000150051
:1075B000ADF8000015D009236A46304600F025F8E2
:1075C0000446BDF80000064458B154B12846FEF701
:1075D0003CFFA04205D1224631462846FEF74AFF2D
:1075E00008B10020F8BD0120F8BD18B50446002000
:1075F000ADF8000013466A46204600F006F8002861
:1076000002D0BDF80000204418BD70B5E0B1DAB179
:10761000002402E0045D2C44A4B2651C8D4206D215
:107620001688A642F6D8061976789E42F2D18C4288
:107630000AD2A31C005D9BB200B1401E0004000CE6
:1076400002D01C188C4201D9002070BD138070BD7F
:107650002DE9F0418AB006460020ADF8140013462B
:10766000102088468DF804000D4606AA01A9184688
:1076700064DFA6B398BB9DF80400022804D0042858
:1076800007D0102839D10DE003208DF8100002201A
:1076900003E005208DF8100004208DF8110000246F
:1076A00004AF0FE007208DF810000620F5E73B5DE2
:1076B00005AA41463046FFF7A8FF641CE4B2054620
:1076C000022C04D2BDF814000028F0D003E0BDF86D
:1076D0001400002812D080B2064400240BE00CE015
:1076E00030199DF8042006A9FEF7C4FE48B19DF8A4
:1076F0000400204484B2AC42F2D300200AB0BDE8BA
:10770000F0810120FAE780F8301070472DE9F04150
:107710000D00044606D02CB195F87A000026012809
:1077200003D006E00E20BDE8F08195F8980001280E
:1077300029D0D5F8A000042825D0D5F89C0004282D
:1077400021D04FF00108A6702C2205F17801201DF0
:10775000FEF757FE84F83060D5F8A4006063D5F8D2
:10776000A800A0634FF6FF70A4F8240404F582601B
:10777000C4F82004C4F82664A4F82A6484F82C64AD
:10778000207810B104E00720CDE7FF2084F85400F2
:1077900004F155072046C4F81074FFF74BFBA4F81A
:1077A000140404F2144239462846FFF73BFE002831
:1077B000B9D104F23120C4F818042046FFF73AFB8F
:1077C000A4F81C0404F21C4205F13C00D4F818147F
:1077D000FFF728FE0028A6D184F85180208BA4F85A
:1077E000480084F83C80266484F850606069002179
:1077F0006064454604F13C02781E72DF002892D195
:10780000257090E710B50288102A1BD0112A20D0CD
:10781000262A1DD1007A0C46012801D0022817D152
:10782000A0780521401CB0FBF1F201FB12012046BB
:1078300000F01DF800280BD0A16B002908D0BDE88E
:1078400010400847C27B012A02D18088A1F8240495
:1078500010BD0C46002184F82E148088B4F824143E
:107860008842F5D120790028F2D10121DFE72DE906
:10787000F05F044600780F4698B1A7700025C4F861
:107880002654A4F82A5484F82C54A079012608B16F
:10789000012F09D0E07980B1012F05D0022F03D04C
:1078A0000BE00820BDE8F09F616B21B184F82D64E6
:1078B0000820884701E084F82D5404F22741002075
:1078C0000A5C0AB1304603E0401C0628F8D30020C9
:1078D0004FF002084FF0030B012F06D0022F0CD0FF
:1078E000032F0FD0042F15D110E0A17929B194F8FE
:1078F000241011B908B130460DE0E17911B108B199
:10790000404608E0207A08B1584604E0607A08B1A1
:10791000042000E02846A070616B41B1032801D02B
:10792000042804D1607910B194F82E0498B184F839
:107930002F5404F13C0018210746FEF77BFD84F824
:107940003C6004F12C0005F069FA58B194F82C0061
:1079500084F8510008E084F8305484F82F6407203C
:107960008847E6E784F8516094F8240058B104F1A0
:10797000280005F053FA20B194F8280084F852004A
:1079800001E084F8526084F85050A27804F2264155
:1079900004F582694FF0060A052A64D2DFE802F096
:1079A0007C030F22420084F83160C4F82054C4E9FB
:1079B000101584F83C808020A4F8480055E084F835
:1079C000318094F82420384612B10722027001E079
:1079D00080F800B0228A8281C4F820544160E168B6
:1079E000B96042E06069B860208BB88194F82400E7
:1079F0003D460028204602D084F83CA001E084F8EF
:107A00003C6007F09FF850B185F8148004212046AF
:107A100001F020FD38BB052184F8311021E084F805
:107A200031B01EE0E069B860208CB88194F8240081
:107A30003D460028204602D084F83CA001E084F8AE
:107A40003C6007F07FF848B185F814800421204697
:107A500001F000FD38B984F831A002E0042084F878
:107A60003100C4F82094A07878B13A4604F154006B
:107A7000D4F8201472DF00287FF414AF94F830108B
:107A800094F8540073DF0028F6D1616B11B194F8BB
:107A900031008847002005E784F83150F5E7000001
:107AA00038B50446011D00881F282ED00BDC102895
:107AB00013D0112836D0132834D10023A0881A46B9
:107AC00085217FDF1BE0212823D03B282BD056289F
:107AD00028D1A088132176DF11E0A1880022144864
:107AE00000F05FFB08B1FFF70FFA072000F0DEFDA2
:107AF00008B1FFF709FAA1880E4800F063F90028E1
:107B000010D0BDE83840FFF7FFB931F8040B75DF3E
:107B1000F5E700200090A08869468FDF002801D09B
:107B2000FFF7F2F938BDA088132176DFE7E7000000
:107B3000B0430020EC39002070B5040012D001469B
:107B40001C221448FEF75DFC1248134D05602068A6
:107B500050B17ADF002806D12068016829604068AA
:107B6000686005E00E2070BD0B487BDF0028FAD16D
:107B700008484FF6FF711438084A20F8041B0549DD
:107B8000343901600021FFF7F9F90028EBD0032018
:107B900070BD0000644B00202C400020DDEA020094
:107BA00010B5044600F0A4F808B1204610BD14201A
:107BB00010BD000010B5044600F09AF8002805D06A
:107BC0002146BDE81040024802F0EDBE10BD0000A5
:107BD000904B002070B515460E46044606F0BEFFD9
:107BE000002809D0054800EB8400C0692A463146C8
:107BF000BDE8704001F05ABC70BD0000804B002011
:107C000010B5044600F074F8002805D02146BDE800
:107C10001040024802F0C7BE10BD0000984B002083
:107C200010B5044600F064F8002805D02146BDE8F0
:107C30001040024802F0B7BE10BD0000944B002077
:107C400070B50546002400F053F838B129460448C1
:107C500002F0A9FE08B1022400E00124204670BD14
:107C60008C4B002070B50546002400F041F838B177
:107C70002946044802F097FE08B1022400E00124DE
:107C8000204670BD884B002070B505460C4608465E
:107C900006F064FF60B1284600F02AF840B10548BC
:107CA000294600EB8400BDE870401C3002F07BBE2A
:107CB000002070BD804B002070B5054616460C466E
:107CC000084606F04BFF00280ED0284600F010F8BA
:107CD000002809D00548324600EB84002946BDE85B
:107CE00070401C3001F0B1BB70BD0000804B002023
:107CF000142801D3002070470146014802F053BE0A
:107D0000844B002070B540B10C4D297839B1044640
:107D100005F00AFD28B1002070BD0E2070BD0820BE
:107D200070BDE868062807D20549226801EB80018A
:107D3000401C0A60E860EEE7042070BD1C40002093
:107D4000184B002010B558B103684BB142683AB1E6
:107D5000044900200124C8600C70C1E9013210BD43
:107D60000E2010BD1C400020002827D0002925D05F
:107D7000134A1278002A21D00A460188112911D00D
:107D8000302907D0322909D0332917D1011D1046D7
:107D900004F01ABC011D104604F083BC011D1046FE
:107DA00004F04FBB8088B2F8CA12884206D1002086
:107DB00082F8C8024FF6FF70A2F8CA0270470000AE
:107DC0001C40002048B1084A137843B1D26832B150
:107DD00090F8C8222AB1112070470E207047082061
:107DE000704701F03DB800001C4000207CB50546FE
:107DF00008880C460930904201D90C207CBD6846A9
:107E00006DDF0028FAD121880820685420881B21C2
:107E1000401C80B2208029542088401C80B22080E1
:107E20002844DDF801100160BDF80510818020882C
:107E3000801D80B220809DF80010490800D00121EB
:107E400029542088401C208000207CBD70B5044649
:107E50000D468088FFF7F4FE01280CD021882629E2
:107E600009D0022801D01D290BD129462046BDE8A2
:107E70007040FFF715BE29462046BDE8704000F06F
:107E80008FBB70BD10B51A4C0188606810290ED0E8
:107E900011292BD1401E606028D1FEF7D3FF0028A6
:107EA00024D02168002921D0BDE810400847D0B96E
:107EB00000210122084600F0D7FB08B107280FD1A6
:107EC00007220221012000F0CFFB08B1072807D1CB
:107ED00004220221002000F0C7FB20B1072802D0B5
:107EE000216801B188476068401C606010BD0000D7
:107EF000144000202DE9F04701883B4E40F2F31971
:107F00004FF6FF7510291BD011293ED0122954D0ED
:107F1000502946D1C188F289841D914241D161899D
:107F200002293ED18688304602F024F8050038D078
:107F300004F10C0000F07EFBA8B3294630464EE069
:107F4000C17B8788044601292BD1A846284602F028
:107F500011F8050017D02F800020287223484346CF
:107F60004A460168C5F80A104068C5F80E0004F1D9
:107F7000100105F10A0002F04BF86872F089002840
:107F80000FD129462AE0042013E0808801F0F2FF97
:107F9000040006D06068FFF743F808B105F0F6FE6C
:107FA0002580BDE8F087FFE76868FFF739F800280B
:107FB000F7D0BDE8F04705F0E9BE878806463846A9
:107FC00001F0D8FF0400ECD02B464A4606F1080128
:107FD00004F10A0002F01CF8607221463846BDE840
:107FE000F04700F065BD0000644B00202C400020ED
:107FF0002DE9F04F044686880188424897B08346B1
:1080000010290CD0112950D0103019296AD01A2902
:1080100074D1217A0C09042C4DD301224CE0394D46
:10802000083DA868C0430B9069680BA802F0D6FC15
:108030000B990CA800F0D7FC2C220CA96846FEF77F
:10804000E0F90027E946A84610E000BF09EB470029
:108050005FF00005B0F804A008EB85005146001D54
:1080600002F061FC6D1C1E2DF6D37F1C0098B842F7
:10807000ECD8142E05D317B00420BDE8F04FFEF75E
:1080800043BF3146584602F099FC314608F10400DE
:1080900002F094FCE07B022830D117B03146BDE8F5
:1080A000F04F1848001D02F089BC17B03146BDE8FA
:1080B000F04F02F038BC0022314601F0C6F9032C23
:1080C00001D3012200E000220E4831460C3001F0BD
:1080D000BCF9022C01D3012200E0002209483146FC
:1080E000083006E0217A002908D1617AC1F3C00284
:1080F000314617B0BDE8F04F01F0A7B917B0BDE8A1
:10810000F08F0000884B002010B504460748007827
:1081100000280AD0204601F075FD204605F092FFA8
:108120002046BDE8104001F045BB10BD8040002056
:1081300070B50446087838B1012818D002282FD12C
:10814000BDE8704005F0C0BC488801F10E02014650
:10815000204600F026F808B1FEF7D6FE204600F0D3
:108160000BF900281CD0BDE87040FEF7CDBE8E890B
:1081700000248D6808E0285DFEF7C4FF18B11128BF
:10818000F9D0FEF7C1FE641CB442F4D3A81910F86C
:10819000010C0D2804D10A20FEF7B4FF1128FAD0F3
:1081A00070BD50B141802AB15388C3801388838049
:1081B00092880281406902F083BD0E207047000062
:1081C00030B5154B0D4604000FCB85B08DE80F0080
:1081D0001FD0F5B1A868E0B12146684662DF0028EB
:1081E00015D120788DF812004FF66060ADF81000C0
:1081F0004FF6FF7060802868E060686820610020AA
:10820000A0802081A868606104A8FFF77BFD05B00D
:1082100030BD0E20FBE7000060F1020030B50246E1
:1082200085B008002DD0002A2BD041884FF6FF746E
:10823000A14226D09388994223D11588112D14D0BC
:10824000392D1ED1818800291BD053898B4218D12A
:10825000C168002915D001218DF8001002F110012C
:108260000291D189ADF80C1008E08B4209D1C168A8
:10827000002906D002218DF800104480C2686946AA
:10828000904705B030BD30B585B00C460546142189
:108290006846FEF7CFF8207804F10E01002835D1AA
:1082A000A088A0F57E42603A30D1A0792A78904229
:1082B0002CD100221AE002EBC20031F8103003F298
:1082C0009F13B3F5803302D0012B0ED105E001EBF3
:1082D00040000089ADF8120007E001EB400003897F
:1082E000ADF80E304089ADF81000521C207A904253
:1082F000E1D8E868002809D06088ADF802000020C5
:108300008DF80000EA6869462846904705B030BD00
:1083100070B588B015460E46040008D02021684686
:10832000FEF788F8F42D04D9072008B070BD0E20A0
:10833000FBE76088A0F57F41FF3919D00D49CDE9F1
:10834000021401208DF800002189ADF81210ADF85B
:1083500016500021ADF8141002218DF81010069669
:108360008DF8110062886946606902F0E1FCDCE783
:108370000820DAE7F394020010B58AB058B34188B8
:10838000A1F57F42FF3A28D0C18831B304462021AD
:108390006846FEF74FF801218DF8201000208DF877
:1083A00021000F4ACDE902248DF80010E288ADF8D3
:1083B00012200222ADF81620ADF814008DF810102E
:1083C00008A88DF81110069062886946606902F06D
:1083D000AFFC0AB010BD0E20FBE70820F9E7000053
:1083E000F3940200F0B585B016460F4604001D4612
:1083F00014D004AA19466069FEF7F0FF00280BD1DB
:10840000A5F57F40FF380BD0049848B1007848B1FB
:108410003088F42808D9072005B0F0BD0E20FBE70E
:108420000520F9E70820F7E700200090019002906E
:108430000390A088ADF8000001208DF80200CDE97E
:10844000026769462846AEDFE6E7000070B5354DA5
:1084500004008EB02DCD08AE86E82D005FD0E9B3C4
:108460000868A061214608A862DF002855D120785D
:108470008DF832004FF6F070ADF83000A21C0CA958
:108480000120A8DF002848D120216846FDF7D2FF4F
:108490004FF6F270ADF80000207801258DF802004B
:1084A0008DF80C509DF80D00F426ADF8046040F0F6
:1084B0000C008DF81150ADF806508DF80D008DF8B8
:1084C0001250608804F10C02694600F031F900286E
:1084D00023D120216846FDF7ADFF00E01FE04FF6F5
:1084E000F170ADF8000020788DF802008DF80C5086
:1084F0009DF80D008DF81150ADF8046040F01000AB
:108500008DF81250ADF806508DF80D008DF813500F
:108510006088221D694600F00BF90EB070BD0E2078
:10852000FBE7000070F1020070B588B00446002936
:1085300027D0002C25D008462188102923D0502987
:1085400027D057291DD10546A188406906AAFEF704
:1085500045FF002815D1069E3078002811D0A86963
:1085600000280ED018216846FDF764FF01208DF821
:1085700000000195A088ADF808000396A969684637
:10858000884708B070BD08B02146BDE8704003F0D0
:10859000E5BF08B02146BDE8704004F009B900000D
:1085A00038B5224D04460188A88821292AD00ADC42
:1085B000102912D0112921D0132922D100231A46C3
:1085C00085217FDF14E03B292BD0522924D0562966
:1085D00017D1A088132176DF0AE0072000F066F8A3
:1085E00008B1FEF791FCA188A980114802F020FC97
:1085F000002806D0BDE83840FEF786BC4FF6FF7075
:10860000A88038BD00200090A08869468FDF002830
:10861000F7D0FEF779FC38BD00231A461946B1DFC2
:10862000E6E7A088132176DFE2E70000C8390020E2
:1086300060440020007800F0010070470149085CA8
:1086400070470000B0F0020010B5002000F030F8D4
:1086500008B1062806D1012000F02AF808B1062842
:1086600000D1002010BD000070B50023042810D2F6
:108670000D4D00EB4004012A02D101290CD000224B
:10868000094E00EB4000304461B1012906D00229B7
:1086900006D00723184670BD0E30C2B22A55F9E73E
:1086A0004270F7E78270F5E70C4B0020002070471E
:1086B000012106F0D2BA00001CB5044601F0C6FB49
:1086C00000236A46092104F041FA052805D1034830
:1086D000012241792046FFF7EFFA1CBD50400020EF
:1086E0001CB504460020009042F6A620ADF800001C
:1086F00001208DF80200084801AA6946006801902F
:108700002046A0DF002805D10448012281792046B7
:10871000FFF7D2FA1CBD00008CF10200504000208F
:108720000249084490F9300070470000104C0020C6
:108730002DE9F0438146887891B090460C4600B907
:1087400001208DF83E002088ADF83C000025009502
:10875000607C694605F04EFC6E46A07C711C05F0FD
:1087600049FCE07B00289DF8020002D040F00800A0
:1087700001E020F008008DF80200217C11B140F0EA
:10878000100001E020F010008DF80200217B11B1F3
:1087900040F0010001E020F001008DF80200217D91
:1087A00009B1022100E0012161F342008DF80200CD
:1087B0001C2102A8FDF73EFE607BC10601D48006A5
:1087C00017D50E950EAFE07C791C05F013FC9DF8D3
:1087D0003800079720F00F00401C20F0F000103008
:1087E0008DF838009DF83A0020F00600801C8DF8C6
:1087F0003A00607B8DF80800A07B8DF809001421F9
:1088000009A8FDF717FE0FA8CDE90906A088ADF865
:108810003000A06820B1E088ADF82C00A0680D9071
:10882000A06998B301950088ADF81000A06901AD6A
:1088300001A94088ADF81200A06940680695039030
:10884000A069007B05F0D6FBA069691C407B05F0A0
:10885000D1FBA069807A00289DF8060002D040F084
:10886000080001E020F008008DF80600A169C97A2F
:1088700011B140F0100001E020F010008DF806006A
:10888000A169097A19B140F0010002E00DE020F081
:1088900001008DF80600A169897B09B1022100E081
:1088A000012161F342008DF80600E06900B10590F6
:1088B000434609AA02A94846AADF11B0BDE8F083E1
:1088C00030B589B00D46044620216846FDF7B2FD5B
:1088D00094F8C602002300EB8001C1EB801094F8ED
:1088E000C51204EB400041B1491EC9B201EBC10100
:1088F00000EB4101498A491C00E0C188008961F30D
:108900000F0360F31F4303208DF800000548CDE9F5
:108910000204054804932A466946806802F008FA72
:1089200009B030BD118E02001C40002070B5044615
:108930004FF6FF750A462846AC4209D14FF48074C1
:108940002146104602F00AF880B2A0420BD070BD5A
:10895000FF2CFCD82146104601F0F0FF90F0010FEB
:1089600001D0204670BD284670BD000070B5084C8F
:10897000050009D010342168002907D0086820605C
:10898000496828468847F6E70834F4E770BD0000D8
:10899000FC4B0020054A012120B1012805D191702E
:1089A000FFF7E4BF51700020FAE77047FC4B00204E
:1089B00010B5D0E90234D1E90220D11AA04101D387
:1089C000012010BD002010BD10B502460020138804
:1089D00006E0546834F810408C4203D0401C80B24A
:1089E0008342F6D810BD73B58CB0064600200090C7
:1089F0000D9880B100246D4621460DA801F0D3FFEB
:108A000030B1009805EB400084800098401C009035
:108A1000641C142CF0D32C2269463046FDF7F1FC7F
:108A20000EB070BD2DE9F04117880646B81D1446FA
:108A30000D46984202D90C20BDE8F081318807220A
:108A400006290AD34FF4486C4FF6FF73614501D9EC
:108A5000994202D17088062801D21046ECE76045A1
:108A600001D99842F9D1994203D0984201D081426C
:108A7000F3D80520E85520881221401C80B22080C0
:108A800029542088401C80B220804119308806F08B
:108A900008F82188084480B220804119708806F0C7
:108AA00000F82188084420800020C5E7FEF72CBA92
:108AB00038B54A7A0F4B62B100220A72596900290F
:108AC00006D001228DF80020ADF8020068468847E4
:108AD00038BD0A7A62B19B684C6802461946204646
:108AE000FEF786FA0028F3D0BDE8384005F04EB90D
:108AF0005B68F1E7644B0020F0B585B016460F4681
:108B000004461D4614220B496846FDF77AFC0A48C4
:108B10008DF80870ADF80240ADF80A608DF80C5081
:108B2000017800222046FFF7C7F8684600F0CCFB2A
:108B300005B0F0BD80F20200904000201FB5002279
:108B40000092ADF800100192ADF80210029203926B
:108B500002AA694690DF04B010BD0000014601483A
:108B6000FFF791BBB043002070B5044686B01C48A7
:108B7000012101F043FFBFF35F8F0026002821D1C0
:108B80000025204600F067FF68B1112812D0862822
:108B90001AD0A0F54051023903D00146204605F015
:108BA000FDF8294607E006B029462046BDE870409A
:108BB00001F0DEBB0121204601F0DAFBBFF35F8F3D
:108BC0000748066006B070BD142206496846FDF7E6
:108BD00018FCADF80240684600F044FBE1E70000F5
:108BE0005C400020BCF102002DE9FF410C4620B1A1
:108BF0004FF4064004B0BDE8F0812079002748F228
:108C0000096538B141F61D5601281BD0022826D02F
:108C1000681DEFE70220207102970397E06801903A
:108C2000694601A804F0E4FC50B102988188E18013
:108C300000882081BDF80010029804F057FDD9E7A4
:108C40002846D7E70A4B6A460021A01D04F088FC9D
:108C500038B1074918398F61CF61A842CAD130466F
:108C6000C8E703488188019804F040FDF5E700005B
:108C7000C84000202DE9F04389B00F4605469146D3
:108C800020216846FDF7D6FB95F8C60295F8C54247
:108C900000EB8001C1EB801005EB400604EBC40043
:108CA00006EB40013279601C0A31904232D108ABA8
:108CB0000022284601F0CEF978B310E0401EA04211
:108CC00001D1002004E004EBC40006EB40001C309E
:108CD0008046024608AB284601F0BCF990B100205E
:108CE000387004208DF8000008984A46CDE90350FA
:108CF0000C4802900C486946806802F019F809B0E7
:108D0000BDE8F08395F8C5024146401C641C85F817
:108D1000C502E4B23079A042D0D8012038700020DA
:108D2000EDE70000118E02001C40002030B59FB01E
:108D30000C4605467C216846FDF77CFBADF80240F9
:108D400003208DF80000044801954168002901D0F6
:108D5000684688471FB030BD1C4000202DE9F04117
:108D6000044690F8C602884600EB8001C1EB8010F3
:108D700004EB40061746304604F0D6FC050042D00E
:108D8000D4F8CC0206283ED204EBC0107622A0F81C
:108D9000D272D4F8CC02314604EBC01000F5357025
:108DA000FDF72FFB0026B8F1000F06D0D4F8CC0257
:108DB00004EBC01080F8D06206E0D4F8CC12022098
:108DC00004EBC11181F8D002D4F8CC0204EBC0103E
:108DD000C0F84C53D4F8CC020C4D401CC4F8CC0263
:108DE000E96888420FD12746002407E007EBC41149
:108DF00001F53470D1F84C138847641CE86884424C
:108E0000F4D3C7F8CC62BDE8F08100001C4000201C
:108E1000F0B515469FB0002281F8C822074691F8A8
:108E2000C6020C4600EB8002C2EB801001EB400052
:108E300004F07AFC060009D07C2208496846FDF758
:108E4000E0FAADF8025068460197B0471FB02946D6
:108E50002046BDE8F040FFF769BF0000B4F0020013
:108E6000F0B50D4689B004464FF4BA61FDF7E2FA59
:108E700020216846FDF7DEFA154E2946B06801F05C
:108E80001FFF002821D1A4F8CA52C4F8CC0284F8EC
:108E9000C70284F8C60284F8C5020E4801272A4694
:108EA0000068206002208DF80000ADF81070206886
:108EB000CDF812000848CDE902046946B06801F017
:108EC00037FF002801D184F8C87209B0F0BD000056
:108ED0001C400020184B0020118E02004FF48032FD
:108EE0008A400168C1F848230068C0F80823704729
:108EF0004FF4A07202EB810189B200F0A8B92DE90C
:108F0000F04105460E464FF4A07000EB860081B29A
:108F100028684FF48034B440984622F07F47C0F868
:108F200008432868C0F84843286802F0B8FD28685C
:108F300000EB8600C0F840752868C0F84443B8F1DB
:108F4000000F02D02868C0F80443BDE8F081006833
:108F5000D0F804057047000010B543791C4C44F864
:108F600023204279231D03EBC20212790AB10820A3
:108F700010BD02680C88C2F8084590F90420897871
:108F8000002A4FEA411104DB02F1E02282F80014CA
:108F900005E002F00F0202F1E02282F8141D90F9C0
:108FA00004100122002909DB01F01F0402FA04F475
:108FB0004909890001F1E021C1F80041417903EB41
:108FC000C1010A71417943F83100002010BD000051
:108FD0002841002090F90400002809DB00F01F025E
:108FE000012191404009800000F1E020C0F800120A
:108FF00070470A46022100F021B94FF4827100F057
:1090000026B90068012101607047006801214160B4
:1090100070472DE9F05F07460C464FF4A07000EB57
:1090200084001FFA80FA38684FF48036A6409B46C9
:1090300022F07F45C0F848633868C0F80863386894
:10904000D0F8048500EB8402D2F84095C2F8408540
:109050005146386802F023FDA9EB080020F07F405C
:10906000012806D1102002F00FFF5146386802F0A7
:1090700016FD3868D0F80485C0F84463A5EB0801F4
:1090800021F07F413868012900EB840010D0C0F83E
:1090900040553868D0F804156FF07F4C6A1A521E9C
:1090A00022F07F42ACEB0B03934217D362B118E07E
:1090B0006D1CC0F84055102002F0E6FE3868D0F86C
:1090C000040540450AD10CE000EB84006D1CC0F89B
:1090D00040553868D0F80405884202D00D20BDE81C
:1090E000F09F01223146384600F0A8F80020F6E74C
:1090F00013460A460021FFF7FFBC10B50378002293
:10910000072B06D2DFE803F0050406102029300003
:109110000A7010BD01230B7003898B818388CB817A
:10912000C06888600A7410BD02220A7002898A81B0
:109130008288CA81C2688A60807D062802D00020A9
:10914000087410BD0120FBE703220A70C2888A81DF
:109150000289CA81C068886010BD04230B70C08872
:109160008881CA818A6010BD0520087010BD00008A
:1091700070B5064D0646002455F8241009B1304656
:109180008847641C042CF7D370BD0000BC4F00203E
:1091900030B50446006887B00D46806800281FD0AF
:1091A00018216846FDF746F90195A06805902079D9
:1091B00010B1012810D107E001208DF800002069CE
:1091C0000290E068039005E002208DF80000E0685E
:1091D00000030290606904902068816868468847AF
:1091E00007B030BD10B586B01446002924D011292F
:1091F00022D0082920D00D29024606D00C4607218E
:10920000684601F0C5FA029413E00321684601F0B4
:10921000BFFA24B12078C00701D0012000E002206D
:109220008DF8080000208DF80C0041F20110ADF817
:109230000A00684600F056F806B010BD0368C3F88F
:109240004413002A02D00068C0F80413704710B518
:10925000006842581AB102F022FC012010BD002023
:1092600010BD000010B50446408800F0EFFDA0805E
:10927000024801682046BDE81040084758400020D9
:1092800010B50446808800F02BFD6080024801681C
:109290002046BDE810400847684000202DE9F04115
:1092A00007460024064E074D05E000BF56F824107F
:1092B00038468847641CE8788442F7DBBDE8F081D3
:1092C000544F00208040002010B50446408800F034
:1092D000BDFDA080024801682046BDE81040084757
:1092E00040F202000149096808470000C0F202008C
:1092F00038B504460F480078B0B1A4F57F40FF3878
:109300000FD0684603F058FF88B105210170012194
:109310000171C480684603F05DFF04F07FF800200F
:1093200038BD48F2036038BD48F2016038BD48F2EC
:10933000076038BDD040002038B5040014D069461D
:1093400004F056F9B0B1BDF8000000EB80010B4805
:1093500000EB8100C16851B1A17A41B1C168491ED9
:10936000C1600020A07238BD48F2046038BD48F2E8
:10937000056038BD48F2096038BD00005850002033
:109380001FB501A9684604F0EBF804B010BD07B59D
:1093900013460A466946002004F0E2F80EBD07B500
:1093A00013460A460021684604F0DAF80EBD20B1E3
:1093B00019B1006808600020704748F204607047E7
:1093C000F8B50D46040018D0BDB1694604F010F997
:1093D000B0B1BDF800000C4900EB800001EB80004B
:1093E00001210C30666801F0F3FA2E6060680C30E1
:1093F00068600120A0720020F8BD48F20460F8BD4A
:1094000048F20960F8BD00005850002018B103234D
:10941000002205F0E9BC48F20460704702230022F4
:1094200005F0E2BC826883881A4003689A5C0A707F
:109430008168491C81607047C26883881A4003684C
:109440009954C168491CC16070470AB101F0B6BAAD
:1094500001F069BA70B50D460446B0F81414D0F89E
:1094600010040122FEF7C1F800B1057004F13C02BE
:1094700004F5826104F1540072DF70BD70B51346CB
:1094800000220546112900D10122074C33B1217970
:10949000FEF712FC00226178284600E06178BDE802
:1094A0007040FEF709BC000098400020F7B5174651
:1094B0000E0011D00098002560B1002421466846B6
:1094C00001F071FA18B1A0B23946B0476D1C641CA6
:1094D000142CF3D32846FEBD0020FEBD10B5044673
:1094E000C0B2FDF70FFE204610BD406803F0F4BE89
:1094F00070470969002900D0084770470888A0F51F
:109500002062773A03D188880149C01E488070479D
:10951000C839002010B50949094801F0E6FA08B138
:10952000FDF7F2FCF721064801F0D3FA002803D03A
:10953000BDE81040FDF7E8BC10BD0000FD9402003E
:10954000C843002070B50D4601F11004C98A1029E6
:1095500001D9092070BD02F067F9686030B1E28876
:109560000023A16802F0B3F9002070BD042070BD93
:1095700070B50D4601F1100489690988102901D9D7
:10958000092070BD891C02F04FF9686068B10023A2
:109590000222A16802F09BF9A068E1680223028818
:1095A000686802F094F9002070BD042070BD0000CE
:1095B00070B510B14FF4064070BD1C4C0025207BE7
:1095C00008B1257301E000F0A5F8207808282AD218
:1095D000DFE800F02904080C10291422BDE87040CF
:1095E00000F026B8BDE8704000F082B8BDE87040D9
:1095F00000F064B8BDE8704000F040B8062020706C
:1096000060880A4900EB8000283901EB800040683F
:10961000BDE8704003F01CB9072020706560BDE80C
:10962000704003F023B948F20E6070BD80500020F6
:109630001149F0B48A1C00200346A1F128050C183A
:10964000A67A4EB1A37200EB800405EB8404E668B1
:1096500016B9247C012C0AD0401C80B20228EED31B
:109660000B704B804B60F0BC41F61D507047108072
:10967000F0BC00F03DB80000805000200C4841884C
:1096800001EB8102A0F1280101EB8201CA6852B10D
:109690000521017007480221818001680023012211
:1096A000054801F075BF042202704968F6E7000022
:1096B00080500020D84000205C41002038B50A4985
:1096C000084803240B684268898803EB81015388AA
:1096D0000470DB1C00201B0400909B0B034801F06E
:1096E000EDFF38BD80500020D84000205C410020B4
:1096F000074910B54888091D03F0CAFF18B1BDE835
:109700001040FFF7DBBFBDE81040FFF7B7BF000018
:109710008050002070B5194C0121207808281AD2F9
:10972000DFE800F00419191C252929182089134A9B
:10973000401C2081002060802073283A00EB8003C9
:1097400012F8233043B100232518401C80B2AB72BD
:109750000228F3D3217070BD0123F5E76068084942
:1097600040888A88C01C10448880022004E000F0F1
:1097700009F8062000E00720207070BD805000200E
:10978000D84000200A4909484988026801EB810352
:109790000749283901EB83014B6803604A608288DE
:1097A0000A8102228280002008747047D84000207D
:1097B000805000202DE9F04101888688434C86B016
:1097C000054650292CD006DC05F10A00352939D090
:1097D000362971D156E0522902D054296CD103E0C8
:1097E000304600F091FD67E0142239496846FCF7E5
:1097F00008FEADF80260304600F028FBADF804002A
:1098000000F0E6F8002221793046FEF755FA0022F2
:10981000E1783046FEF750FA6846FFF723FD4BE04B
:10982000287B012848D1A87A012845D12889A0F5AC
:109830002451023940D10121304600F099FD05F054
:1098400035F939E00746A1793046FEF71DFA98B39D
:109850000022A1793046FEF72FFAE888B0F5857F1F
:1098600008D038B97888012804D1B9880022304658
:10987000A1DF08B100211CE00122E1793046FEF7AA
:109880001BFA19E007464FF00008E1793046FEF771
:10989000FBF988B10022E1793046FEF70DFAE8883D
:1098A00030B9B888012803D1B87900B101208046C9
:1098B0004146304604F0F8FD00220649A078FEF744
:1098C00089F906B0BDE8F04104F090BA504000209C
:1098D000E4F10200E572020070B504460078002849
:1098E00014D1608800F010FD6588284600F000F96A
:1098F00028B107480122C1782846FEF7DDF96088C3
:10990000FEF7DAFEBDE8704005F0D0B870BD00008B
:10991000504000207CB504460078082837D1607A92
:1099200058BB207A1C4E4FF6FF75012811D007282E
:1099300002D008282BD121E0A08800F0D1F90446FC
:10994000A84224D0012100F013FD2046FEF7B4FE0A
:109950001DE0A0886A46012103F016F868B9019855
:10996000007850B1A08800F0BBF9A8420FD00122C6
:10997000F178FEF7A1F904F039FA08E0F06801285F
:1099800005D1BFF35F8F044900200C310860BDE8AA
:109990007C4005F08BB800005040002010B50B480B
:1099A000FFF7D5FA094A083AD2E90434C018D2E9D7
:1099B000063244F10001C31A71EB020204D24FF0E7
:1099C0008072801841F1000110BD0000F0400020BD
:1099D0001CB5054AD2E90212CDE9001200226946FF
:1099E00003F0EEF81CBD0000FCF102002DE9FC4183
:1099F000804600F02BFA002403250127A0F57F41C3
:109A00002646FF3908D06A46082102F0BDFF18B982
:109A10000198841D8688056832462B4621464046BB
:109A2000B1DF042804D0082804D00B2808D002E0B5
:109A3000112000E00020002F00D10B20BDE8FC81A8
:109A40000027A80701D50125E6E73443F5D0002417
:109A500026460325E0E72DE9FC41804600F0F6F9B3
:109A60000646A0F57F40FF380ED001252A466D1C22
:109A70000027ADB26B460821304602F0A5FF040076
:109A800006D0072C25D025E043F20200BDE8FC817A
:109A9000019903230A1D0B604046891DB2DF0400B3
:109AA00004D00C2C09D0052C09D009E0324608213D
:109AB000104602F0EFFF04460CE0012700E000240E
:109AC0000821304602F0DCFF00B10324002FCDD185
:109AD00000E00C242046D9E704488088A0F57F41A7
:109AE000FF3901D004F08CB97047000060400020BD
:109AF0000EB502A9019100F0A9F96A46012102F010
:109B000043FF08B100200EBD019800780EBD000093
:109B10002DE9F04107464FF6FF760A48B3DF10B152
:109B20000320BDE8F081074C43F20305A41E324632
:109B300061883846AFDFA842F3D16088401C60805E
:109B4000F5E7000062400020428800EB82020C3200
:109B50008A4201D9022070478188A1F57F42FF3AED
:109B600006D0018821B18068401C01D000207047D8
:109B700001207047884204D20068401C01D00120B7
:109B80007047002070473EB5027802230C46B3EBC5
:109B9000520F17D1B0F80110ADF80010C1788DF850
:109BA00002108188ADF8041080798DF8060002AAB1
:109BB00001A92046FDF761F9032202A96846FCF7D6
:109BC00059FC08B100203EBD01203EBD70B50D46D8
:109BD0000446142810D2FEF78BF868B1084904EB4C
:109BE000840001EB4000D0F802102960C188A980F0
:109BF000007AA871002070BD43F2020070BD000021
:109C0000BC4C002070B5018890B0102961D1011DB5
:109C10002C226846FCF7F5FB9DF804004FF6FF7612
:109C200003213446B1EB500F2BD002F087FF9DF893
:109C300004006D4640080ED001280CD0022820D127
:109C400018E00D99281D1131FDF7CFF818B100BFAC
:109C5000BDF82C4015E00CAA0BA9072002F042FF2A
:109C60000028EED10DE00D99281D491CFFF78BFF50
:109C70000028EDD10CAA0BA9072002F033FF002821
:109C8000F1D1BDF80000B44200EB8001124820F889
:109C9000114000EB41000199C0F80210BDF8081016
:109CA000C1809DF80A10017213D0BDF80000ADF814
:109CB0002E000020ADF83040084E8DF82C000BAD82
:109CC000044600BF56F8241028468847641C022C1E
:109CD000F8D310B070BD0000BC4C002010F20200A0
:109CE0002DE9F0414FF6FF760546B04213D00B4FF9
:109CF000002400BF04EB840037F81000A84206D10E
:109D00002046FDF7F5FF10B12046BDE8F081641C48
:109D1000A4B2142CEED33046F7E70000BC4C002070
:109D20003EB50C46054602F009FF0BE0BDF8000009
:109D3000A04207D02846029900F00EF810B1BDF8F5
:109D400000003EBD01AA6946072002F0CBFE0028B4
:109D5000ECD14FF6FF703EBD2DE9F0410C460546B3
:109D600000F1110701F111061022491C401CFCF7FB
:109D700081FB48B9681C00F093F928B1601C00F021
:109D80008FF908B1012400E0002431463846FDF780
:109D90002CF83B780222B2EB530F0CD00321B1EB2D
:109DA000530F08D03378B2EB530F04D0B1EB530FFD
:109DB00001D0012100E00021084201D18C4302D0F2
:109DC0000120BDE8F0810020FBE7018811B94218AD
:109DD00092780AB101207047491C0829F7D3002066
:109DE000704710B50C460346FFF7EFFF00280AD076
:109DF00018882188884205D10822A11C981CFCF7EC
:109E000039FB08B1002010BD012010BD142804D278
:109E1000024A00EB800022F810107047BC4C002072
:109E200070B50546FFF75CFF0446284602F0AFFD1B
:109E3000002808D1142C06D2034B04EB84024FF601
:109E4000FF7123F8121070BDBC4C002010B5044601
:109E5000142808D2FDF74CFF28B1044904EB840014
:109E600031F8100010BD4FF6FF7010BDBC4C002043
:109E70003EB5044602F062FE0EE0019920464631EE
:109E8000FFF7AFFF28B9019920462A31FFF7A9FF54
:109E900010B1BDF808003EBD6A4602A9072002F0D5
:109EA00021FE0028E9D14FF6FF703EBD2DE9F041BB
:109EB0002D4F002520B17D604FF40640BDE8F081B4
:109EC0000879012258B1294E01280CD0264C4FF0B8
:109ED00002080834022820D0032841D127E00A7163
:109EE00002F0C4FC3AE0002000EB800116F82110DB
:109EF000022908D0401C80B20228F5D33A707D6058
:109F000041F61D50DAE700EB800006F8205006EB22
:109F10008000406802F09CFC20E00D71A4F80480F1
:109F2000002301221248216801F032FB16E00D7176
:109F3000206802F08DFC0D4923682831498801EB27
:109F4000810206EB8201D1F804C0C4F800C04B6066
:109F5000A3880B81A4F8048006F822500028ADD015
:109F60007D6048F20D60A9E7D040002058500020E5
:109F70005C4100200146034802888A4200D000204C
:109F800070470000504B002070B50D460446006835
:109F90004FF4887101F02DFF4FF49071206801F0AB
:109FA00028FF4FF49271206801F023FF4FF4A27153
:109FB000206801F01EFF4FF4AC71206801F019FF1A
:109FC00020681249C0F804132068690740F307307D
:109FD000090E002804DB00F1E02080F8001405E001
:109FE00000F00F0000F1E02080F8141D206840F31D
:109FF0000730002809DB00F01F02012191404009D1
:10A00000800000F1E020C0F8001170BD1003420094
:10A01000F0B58488A518944200D82246A41AC288B4
:10A02000D6189A4200D81346D21A4B880788BB42EA
:10A030000CD34088834209D88888A04206D3A8421E
:10A0400004D8C888904201D3B04201D90020F0BDA5
:10A050000120F0BD10B509892AB1D088491C814280
:10A0600018D1002010BD90F8C62202EB8204C4EB88
:10A07000821200EB420212899142F2D0491C1980EF
:10A0800090F8C61201EB8102C2EB811100EB410096
:10A09000008902E01980D088401E5880012010BD40
:10A0A0000021425C0AB101207047491C1029F8D3F5
:10A0B0000020704790F84000C0F3C100012803D091
:10A0C000032801D00020704701207047800701D08D
:10A0D0000020704701207047F7210180172141803F
:10A0E000002101714171FB2181711B21C1717047F8
:10A0F0002DE9FE4F254F984691460D00824601D02E
:10A1000000260DE0684600F039FB6A460021504603
:10A1100002F0DEFB3878009E10B99DF8090098B176
:10A120004A463146504604F0CDF804460146002226
:10A130005046FFF7A3F90D2C26D008DC24B3082CD9
:10A1400022D00B2C09D11FE00520BDE8FE8F112C79
:10A150000ED0A4F54050023816D00325B8F1000FF8
:10A1600004D0324621465046FFF73CF82846ECE73B
:10A170002A46F9785046FDF79FFD4A46B978504681
:10A18000FDF79AFD0025E9E72546E7E7984000201E
:10A190007EDF042800D111207047000070B50D004B
:10A1A0001446064617D01648C1783046FDF784FDA0
:10A1B0003046FFF74BFE0146A0F57F40FF3800D048
:10A1C00074B129463046FFF7E3FF04462878C007FC
:10A1D0000BD001220AE0BDE870400021FFF7D8BF94
:10A1E000304600F00FF8044605E002222CB10021B1
:10A1F000304603F055FD204670BD0121F8E7000010
:10A20000904000207CB50B4605466A46072118465B
:10A2100002F0BAFB040005D0052C0FD0112C1DD084
:10A2200003241BE0019C94F84400183410F0010052
:10A2300001D0019C34340CB110B106E011240DE0C2
:10A2400004F11200FFF7C1FD38B1224604F11201FA
:10A25000284685DF040008D000E00B2400210022FE
:10A26000284603F01DFD20467CBD0121F7E70000D4
:10A270002DE9F04115460E46044603F041FD002845
:10A2800028D0204602F004FBE8B113492046897823
:10A29000FDF7FAFC08B1012700E0022704F5807001
:10A2A00080B2072102F0ECFB010004D0052902D0A6
:10A2B000204603F087FD2B46324639462046BDE84E
:10A2C000F041FEF719BC2A4631462046BDE8F04170
:10A2D000FEF70EBFBDE8F0819040002070B5094D3B
:10A2E0000646A978FDF7D0FC0446E9783046FDF72C
:10A2F000CBFC014622463046BDE870400123FFF703
:10A30000F7BE00009840002030B585B00546002417
:10A3100014216846FCF78EF8A5F57F40ADF8025091
:10A32000FF3815D02846FFF761FB98B10B2815D0F0
:10A33000112811D0A0F54051023903D0014628461A
:10A3400003F02CFD0948224681782846FDF7B4FC2D
:10A3500005B030BD0E2002E00124F3E70F208DF898
:10A3600000006846FEF77EFFECE70000504000204A
:10A370000A4602494978FDF79FBC00005040002082
:10A38000ACB0FCF707FE08B1FCF7BEFD1822774918
:10A390006846FCF736F87648069076494FF48070A8
:10A3A000CDE9070109900723734A06A96846FCF71F
:10A3B00057FE08B1FCF7A8FD714D7048CDE90005C6
:10A3C00000246846FDF7BEFC08B1FCF79DFD01F0D6
:10A3D00087FA08B1FCF798FD01F026FC08B1FCF7FC
:10A3E00093FD69460120009401F06AFB08B1FCF777
:10A3F0008BFD684601F0B4FB08B1FCF785FD9DF8C4
:10A40000080060A120F00F00401C20F0F000103088
:10A410008DF808000F2202A87CDF08B1FCF774FD5C
:10A4200000941020ADF8000050200194ADF8020017
:10A43000ADF804404FF4C870ADF8060068467ADF06
:10A4400008B1FCF761FDFFF765F85248019001A9DA
:10A45000514800F0F8FC08B1FCF756FD4F48009059
:10A46000474869461430FDF7F1FF08B1FCF74CFD91
:10A47000AC216846FBF7DEFF02208DF800008DF866
:10A48000024005208DF803000120ADF84C008DF846
:10A490007C00402042492290149144F2682023908D
:10A4A000404829903C4869460C30FDF72FF908B127
:10A4B000FCF72AFD384801210C30FDF724F91C2156
:10A4C0006846FBF7B7FF4FF4A030CDE900404FF4EA
:10A4D000F020029003208DF80C003348059033489B
:10A4E0000690ADF80E408DF810406846FDF724FB4D
:10A4F00008B1FCF709FD284803210C30FDF7B7F936
:10A5000008B1FCF701FD2A4800902A48CDE9010571
:10A5100021486946B038FDF753FE08B1FCF7F4FC5A
:10A5200003F090FA114E6425283E4FF47A47741CCC
:10A530003846A0476D1EFAD11FA0FCF7F3F921A001
:10A54000FCF7F0F903F0C0FA0848274A0121343833
:10A55000FCF714FD05480022383810214068FCF74C
:10A5600047FD00BF01F0D0F9FCE7000098F00200C1
:10A570009041002090420020C9E602005D8B02005D
:10A58000BC3F00204E6F726469635F6326625F5553
:10A59000415254009BBA020060440020C5C302002F
:10A5A000D039002025C4020041C50200AD8A020056
:10A5B0003181020007C402000F0F0F0F0808810449
:10A5C00000000000424C4520554152542063656E06
:10A5D0007472616C206578616D706C652073746154
:10A5E000727465642E0D0A00EDE4020070B5144625
:10A5F00082880E4605462088111D0144921C99420E
:10A6000001D8FE2A01D90C2070BD521C325420887A
:10A61000FF21401C80B2208031542088401C80B231
:10A6200020808119288804F03CFA2188084480B2EF
:10A630002080AA8842B1A96841B13044FBF7E1FE0D
:10A640002088A98808442080002070BD072070BDA4
:10A650002DE9F047C5881E1DB6FBF5F78946B6FB08
:10A66000F5F1044605FB176C407916686843DDF880
:10A6700020A0F718001F874200D9C61A166001E013
:10A680002468491E0029FBD1A5EB0C078846B74278
:10A6900016D818E004EB0C00001D09EB0803BAF112
:10A6A000000F3A4602D00146184600E01946FBF773
:10A6B000A8FE2468F61B4FF0000CB844B54201D93F
:10A6C000374600E02F46002EE4D1BDE8F087BFF307
:10A6D0005F8F00F068B9F8B50F460178144605465B
:10A6E000012901D1687830B12088821C9A4232D881
:10A6F000012902D006E00720F8BD69780144891CD1
:10A70000994228D8181A801E86B2ADF800602188B8
:10A71000B81C084469467DDF0028EDD1297802295C
:10A7200004D06878BDF80020904205D3BDF8000041
:10A73000B04201D809200AE00820012905D1697832
:10A74000B14202D8ADF8001001E0ADF80060BDF8EC
:10A750000010FE2901D90C20F8BD2288491CB954EB
:10A760002188491C89B2218078542088401C20808F
:10A77000BDF80010084420800020F8BD034A0021E5
:10A780009268C0E900218160704700009840002075
:10A7900070B586B00D460646144614216846FBF790
:10A7A00049FE8DF80050ADF802402046FFF74EFB01
:10A7B000ADF80400142269463046FBF722FE06B0CD
:10A7C00070BD70B54FF6FF750E46A84201D100204E
:10A7D00000E0401C84B208E02146304600F0E3F877
:10A7E00008B1204670BD641CA4B2FF2CF4D92846E1
:10A7F00070BD00004FF08050D0F830114A1C05D0D9
:10A80000062906D00F2904D000207047024801789D
:10A81000F6E7012070470000E00F00F04FF0805095
:10A82000D0F830114A1C05D0062906D00F2904D0D3
:10A830000020704702480178F6E7012070470000C9
:10A84000E00F00F04FF08050D0F830114A1C05D0D6
:10A85000062906D00F2904D000207047024801784D
:10A86000F6E7012070470000E00F00F04FF0805045
:10A87000D0F830114A1C06D0D0F8340106290AD08D
:10A880000F290BD00CE00748017806480830007803
:10A89000C0F30310F2E7C01E012801D90120704760
:10A8A00000207047E00F00F010B531B1B2FBF3F4B7
:10A8B00003FB14241CB1092010BD0E2010BD016043
:10A8C0000021416081608281C381084610BD70B55E
:10A8D0000C460546FBF79EFC002802D0218828681C
:10A8E000084470BD10B50A8849888A4203D1FBF735
:10A8F000D3FC012010BD002010BD70B50C460546EC
:10A90000FBF7ADFC002802D061882868084470BDC0
:10A9100010B50A8849888A4203D1FBF797FC0120C9
:10A9200010BD002010BD01F01F0301229A40D24348
:10A93000490900EB8100114600F050B80A4601F0C9
:10A940001F030121994010B552090C4600EB82000B
:10A9500000F04FF8204000D0012010BD2DE9F0415B
:10A9600080460D460024481E012101EB501716E0D9
:10A9700058F82400C04390FAA0F0B0FA80F02028E4
:10A980000CD200EB4416AE4208D231464046FFF7E7
:10A99000D5FF0028ECD13046BDE8F081641CA74209
:10A9A000E6D82846F8E74A0950F8220001F01F02CD
:10A9B00001219140084000D00120704701F01F03A1
:10A9C00001229A40490900EB8100114600F01BB8B2
:10A9D00008B56A46FBF7B5FC009808BD08B56A469D
:10A9E000FBF795FC009808BD08B56A46FBF7A9FC83
:10A9F00008BD08B56A46FBF77DFC08BD08B56A4688
:10AA0000FBF76CFC08BD08B56A46FBF773FC0098C1
:10AA100008BD08B56A46FBF7A1FC009808BD38B52B
:10AA2000044600258DF800506846FCF795FB216828
:10AA30006268086890420ED9401E08600178238A37
:10AA4000E26801FB0325227A2168101AC0B20A7954
:10AA5000824200D208719DF80000FCF7A1FB284655
:10AA600038BD38B5054600208DF800000C46684614
:10AA7000FCF772FBE868298A201AB0FBF1F12A681A
:10AA80001068431C136001709DF80000FCF788FB00
:10AA900038BD10B530B1017A42680368891AC9B26D
:10AAA0001A6006E00E2010BD03681A68541C1C6072
:10AAB0001170491EC9B2F7D2006800210171084621
:10AAC00010BDC20800F007030120895C98400840CF
:10AAD000704728B1A1F11702E12A03D3072070477C
:10AAE0000E20704741800020704770B5040010D0E0
:10AAF000F720A16120806080FB202071002504EBFD
:10AB0000C500801DFFF7E8FA6D1C022DF7D3002069
:10AB100070BD0E2070BD00002DE9F04785888EB015
:10AB20000C462E46022D7DD20188DFF89091002739
:10AB30004FF0010A242976D006DC102909D011290A
:10AB400034D0232931D1AFE03A2935D055292CD141
:10AB500054E004EBC608217988F80C10C07B08F19A
:10AB60000608012802D0022805D101E0208800E073
:10AB70006088A8F80000B8F80010B8F80200814218
:10AB80000AD93046A5DF10B1112803D004E088F8B7
:10AB900005A001E088F804A098F8061098F80700CE
:10ABA000814271D93046FDF7C9FF6DE004EBC60064
:10ABB000801DFFF791FA67E0314604EBC10640893A
:10ABC00036F8062F824200D810467080172800D22F
:10ABD00017207080A06970B1707960B1D9E9002048
:10ABE000CDE90020ADF802107088ADF80400A2692C
:10ABF0002046694690477771377145E0C08804EB7D
:10AC0000C60808F10608172800D21720B8F8001067
:10AC1000814200D80846A8F8020088F80470B8F805
:10AC2000001001E03DE014E03046B5DF98F8050083
:10AC300050BBA06940B3D9E90210CDE90010ADF8CE
:10AC40000260B8F80200ADF8040020466946A26927
:10AC500019E0011D2C226846FBF7D3FBBDF800006C
:10AC6000BDF8042004EBC0014A73A26962B1D9E9BE
:10AC70000432CDE90B32ADF82E00487B8DF8300060
:10AC8000A26920460BA9904704EBC504A07A0028CE
:10AC900007D0E1882846A5DF002802D1A77284F8F2
:10ACA0000BA00EB0BDE8F08704EBC602017A107B62
:10ACB0008842BFF477AF014674E7000030F102002C
:10ACC0002DE9F0410F4604004FF000050DD002F0D1
:10ACD000BFFB39462046FDF777FE218881421ED111
:10ACE000002005464FF6FF7609E00E20BDE8F08112
:10ACF000626832F81020B24206D1401C80B2814214
:10AD0000F6D8206900F0D9FD002021880BE06268A8
:10AD100032F81020B24204D1616821F81070284640
:10AD2000E4E7401C80B28142F1D80420DEE7000055
:10AD30002DE9F04791460D4604004FF0000742D040
:10AD4000EDB302F085FB49462046FDF73DFE29782C
:10AD5000062902D22188814202D10720BDE8F0876E
:10AD6000A16800EB800601EB860000F01EFE30B10A
:10AD70004946284602F00BFD08B13846EEE729782F
:10AD8000DFF8488058F821202AB12069B8B1294657
:10AD900090470028E2D1A068294600EB860000F029
:10ADA00023FE070006D0297858F8210010B1686802
:10ADB00000F06AFDA068494600EB860000E002E072
:10ADC00002F01AFAD9E70E20C8E7000048F10200A5
:10ADD000F8B505000C4620D0002C1ED0288811287C
:10ADE00006D0A0F130011F2902D950381F2814D8ED
:10ADF000AE8820463146FDF7E7FDADF8000021881A
:10AE000081420AD02988112908D0A16800EB80006E
:10AE100001EB8000314602F0EFF9F8BD62684FF6B1
:10AE2000FF7122F810106946E06800F0DDFDF8BD02
:10AE300020B10278DE2A03D0082070470E20704728
:10AE400041800020704760B159B10278DE2A0AD0F3
:10AE500009684160DE2101704FF6FF7141800020DA
:10AE600070470E207047082070477FB505460029BF
:10AE70004DD0002D4BD008780C46DE2847D1A8884D
:10AE80006188884202D1204603F06EFE288801289E
:10AE900025D002283BD011283AD0512837D135F897
:10AEA000040F6188884232D1A978A81C02292ED1CA
:10AEB000017A042903D0062901D0052927D10021D0
:10AEC000009102228DF8002001914FF4C07202918E
:10AED0000391ADF80420007A05280FD010E0297AFC
:10AEE0002046012913D1A988428891420FD101211E
:10AEF000017204B0BDE8704003F036BEADF8041036
:10AF000028886946B0DF002801D0616888477FBD86
:10AF1000A88861888842FAD14FF6FF7060807FBDB3
:10AF20002DE9FC4100F12205EC1D0E46207810B100
:10AF30000420BDE8FC810027C7EBC7002844062297
:10AF40003146401CFBF796FA0028F2D07F1C17F020
:10AF5000FF07F1D000206946C0F10502B25C0A5437
:10AF6000401CC0B20628F7D3084600F023F843F28D
:10AF70000221884201D10846DBE72178C1EBC101FB
:10AF80006A5C60F347026A5400202278315CC2EBAD
:10AF9000C2022A440244401CC0B251700628F4D3B5
:10AFA0000020401CC0B20628FBD32078401C207033
:10AFB0000020BEE70078800908D0012808D00228C8
:10AFC00003D0032806D043F20220704703207047C5
:10AFD00000207047012070472DE9F041044600F140
:10AFE000400700F1360590F83E6090F8340086B0D6
:10AFF00001F10208002814D08BDF14216846FBF70A
:10B0000019FA33462A46394640468CDF05218DF829
:10B0100000100190002804D0216D002901D068465D
:10B02000884706B0BDE8F0814FF4C87181870621DA
:10B03000C1861821018700214187704710F8401F01
:10B04000A0224280828021F018010022C28041F0BB
:10B050000401017001214170704700002DE9F041A9
:10B0600050B14AB10025042641B1022930D003294C
:10B0700033D00720BDE8F0810E20FBE7074600F142
:10B08000200490461046FBF7E0F910F0FF0001D0D5
:10B09000202801D90C20EDE7207818BB5FF00006CE
:10B0A00007EB46104146FBF7D7F918B3761C16F0AC
:10B0B000FF06F5D04046FBF7C8F902462078414626
:10B0C00007EB4013401C20701846FBF79AF911E07B
:10B0D000BDE8F0411146FFF723BF00F12C0410F842
:10B0E000303F0BB13046C5E71688002134F8217097
:10B0F000B74201D12846BDE7491C11F0FF01F5D048
:10B1000004EB83015B1C037010680860F2E740B138
:10B11000212100220A542A210A5480F831201046A5
:10B1200070470E20704730B515460B46040002D01C
:10B13000980702D009E00E2030BD580705D4D80684
:10B1400003D4180701D4072030BD2046FFF7DFFFE6
:10B1500099074FF0010001D584F82A00D90701D0E2
:10B1600084F82100590701D584F8310084F8325061
:10B17000002030BD70B50D46040012D03421226588
:10B18000FBF758F9FDB1287984F83400287B84F85E
:10B190003E00296839B10E2204F14000FBF731F975
:10B1A00004E00E2070BD2046FFF748FFA86830B1CC
:10B1B0000168C4F836104068C4F83A000CE0204634
:10B1C000FFF732FF08E02046FFF738FF2046FFF781
:10B1D0002BFF002084F8340004F1540060671F2026
:10B1E000A4F87800002070BD2DE9F04F8BB00D461B
:10B1F000044600273E4614216846FBF71BF904F17C
:10B20000400004902046FEF755FF010004F1740051
:10B21000059010D002208DF800000195216D684640
:10B220008847002005998ADF29462046FFF7D4FE8B
:10B230000BB0BDE8F08F94F83200069094F82A0025
:10B2400094F82110089194F831104FF000090791FB
:10B25000E0B1012704F1220B94F829A0002012E0AC
:10B26000C8EBC80202EB0B00AB7802785208B2EBD5
:10B27000530F05D10622E91C401CFBF7FBF878B1FF
:10B2800008F10100C0B280465045E9D3089810B3D8
:10B2900094F820A0B5F81CB04FF000087F1C1FE008
:10B2A0009DF808004FF0010940F002008DF80800F9
:10B2B000761CEBE704EB48125946A869FCF773F9D2
:10B2C00050B19DF80800761C40F00100F6B28DF8F0
:10B2D00008004FF0010905E008F1010000F0FF0847
:10B2E000D045E7D3079848B304F12C00099094F8AF
:10B2F0003200079094F830B04FF0000AA88BD04687
:10B300007F1C089014E00998089900EB8802A8694E
:10B31000FCF79EF930B10AF1010000F0FF0A07982E
:10B3200068B101E0079838B908F1010000F0FF08A2
:10B33000D845E8D3079810B1DA4503D00CE0BAF14C
:10B34000000F09D09DF80800761C40F00400F6B20A
:10B350008DF808004FF001090195069808B1BE422A
:10B3600003D0069939EA010007D000208DF80000CB
:10B3700029462046FFF730FE02E003208DF800004A
:10B38000216D09B168468847002005998ADF4FE79B
:10B3900070B50D46014601F108020C1D28460988CA
:10B3A000403586B010291ED01B2907D01D292DD16C
:10B3B00006B01146BDE87040FFF716BF06461421DF
:10B3C0006846241DFBF736F8207801281ED1306D21
:10B3D00000281BD004208DF80000049520788DF8FB
:10B3E0000400316D10E0064614216846FBF722F890
:10B3F00006208DF80000201D01902088ADF808007F
:10B400000495316D002901D06846884706B070BDAB
:10B4100010B586B004001BD014216846FBF70AF86B
:10B420008BDF2046FEF746FE30B1216D21B10120B1
:10B430008DF800006846884704F1740104F140006B
:10B440008ADF082801D0002800D1002006B010BDF6
:10B450000E20FBE700F180400068002800D00120AA
:10B46000704708B500F1804000210160006800903D
:10B4700008BD000070B50D4C0125207808B1852667
:10B480000EE00020A06060602061E060084800F0ED
:10B49000D5FC064600F014FC08B900F0B9FC257094
:10B4A00000F0AEFC00B1A570304670BDFC4B002032
:10B4B0009589020038B500258DF800506846FBF7E5
:10B4C0004BFE084CE068401EE060E06828B900F0E0
:10B4D00097FC10B900F0C0FCA5709DF80000FBF7C8
:10B4E0005FFE38BDFC4B0020F0B5054604781548DA
:10B4F00089B0164640F82420124A0869121DA2F1AC
:10B50000080742F82400487F385520226846FAF799
:10B5100078FF04942878385C48B10EB10A4A00E0FC
:10B5200000226946281D00F031FE09B0F0BD0EB1C1
:10B53000064A00E00022694605F10C0000F0DAFC42
:10B54000F3E700003840002061E9020005E802004E
:10B5500030B40378054CE35C1BB130BC001D00F037
:10B560004BBE30BC0C3000F02FBD0000344000203A
:10B5700030B40378054CE35C1BB130BC001D00F017
:10B58000BDBE30BC0C3000F095BD00003440002042
:10B590002DE9F0411F46164604000D4616D02068DE
:10B5A000B8B1C6B160680268501E284215D1724316
:10B5B0002046FBF733FC80B120683B463246D0F88A
:10B5C00010C029462046BDE8F04160470E20BDE886
:10B5D000F0810820FBE70920F9E71020F7E70000D9
:10B5E000044801214174007A08B10020704701200D
:10B5F000704700002C510020012801D0032808D1F9
:10B600000449002201284A7400D00020087401F087
:10B61000B5BE70472C51002070B50246022801D0FB
:10B62000032A45D1234C207A002841D0012833D069
:10B63000022831D120480023022A006802D0032AC0
:10B640002AD11BE0E360017911B1012924D10DE079
:10B65000D0E90565711B4FF48056B14200D33146E5
:10B66000294481614569A9420ED015E00169491C50
:10B670000161426991420FD1237213E0E168491CD4
:10B68000E160082908D9E3602372022A0AD00D215B
:10B69000FDF77EFD01F0A6FD607C28B1BDE870409D
:10B6A00000F014BB0021F3E7BDE8704001F066BE76
:10B6B00070BD00002C510020E04000202DE9F8432F
:10B6C0001D46089F1646884604000DD066B12068C6
:10B6D00060B135B160684068B5FBF0F100FB115016
:10B6E00030B10920BDE8F8830E20FBE70820F9E718
:10B6F0004046FBF78DFB90B13046FBF789FB70B1FC
:10B700002A4641462046FBF789FB40B10097206856
:10B710002B463246C76841462046B847E2E710202C
:10B72000E0E770B541EA4201DDE904564FF0A0447C
:10B7300041EA830141EA052104EB800041EA064128
:10B74000C0F8001770BD70B541EA4201DDE904564A
:10B750004FF0A04441EA830141EA052104EB800057
:10B7600041EA0641C0F8001770BD1CB500220B4627
:10B77000009211460192FFF7D4FF1CBD1CB50022B8
:10B780000B46009211460192FFF7DDFF1CBD1CB570
:10B79000002100910B46012201911146FFF7C1FFE4
:10B7A0001CBD1CB5002100910B46012201911146E0
:10B7B000FFF7C9FF1CBD4FF0A04202EB8000D0F89C
:10B7C000002722F44032C0F80027D0F8002742EAD0
:10B7D0000141C0F80017704738B5094B44181B6881
:10B7E00000936B4608E000BF53F82010D1F82055B5
:10B7F00020C2C1F82055401C8442F5D838BD000055
:10B8000080F10200034908B5084400210160006886
:10B81000009008BD0060004002494058012800D057
:10B8200000207047006000402DE9F041058A804605
:10B830002D1F4819C01CB0FBF5F0C6B24046FFF7FB
:10B84000EEF8041E19D00020207101206071E580FF
:10B8500000272546761EC4F800800BE04046FFF71F
:10B86000DEF860B16179491C6171286005467F1C72
:10B87000C0F80080B742F1D32046BDE8F0812046F1
:10B8800000F002F80020F8E72DE9F0414579014683
:10B890006B1E002201E00968521C9A42FBD30F681C
:10B8A0000146002605E038460C68FFF7DAF8214625
:10B8B000761CAE42F7D3BDE8F081FFF7EAB81CB5BD
:10B8C00001920122009201AAFEF7C2FE1CBD1CB526
:10B8D00001920022009201AAFEF7BAFE1CBD0000F0
:10B8E000064910B500204870091D0860BFF35F8F3E
:10B8F0000349044800F016FA002010BD344100202E
:10B9000040F30200D451002010B500F0D9F908B17D
:10B9100041DF10BD20BF40BF20BF10BD2DE9F8435F
:10B920000446002790460E468DF800706846FBF7E7
:10B9300013FC204600F039F838B105279DF80000C7
:10B94000FBF72EFC3846BDE8F88320680568B8F19F
:10B95000000F05D10168204600F03FF8216808601B
:10B96000E268012A0CD0022A0ED0042A11D06068A5
:10B97000082A13D005FB02013046FAF742FDDDE745
:10B980006068405D3070D9E7606830F8150030803D
:10B99000D4E7606850F825003060CFE700EBC501C0
:10B9A000D1E90001C6E90001C8E7016808684968F3
:10B9B000884201D1012070470020704701680A6861
:10B9C00049688068884201D9491C00E00021914201
:10B9D00001D101207047002070478068884201D95A
:10B9E000481C7047002070472DE9F84304464FF08B
:10B9F00000080E468DF800806846FBF7ADFB204638
:10BA0000FFF7DCFF07000AD0207C40B14FF00408AC
:10BA10009DF80000FBF7C4FB4046BDE8F8832068B2
:10BA2000456841682046FFF7D8FF2168486037B174
:10BA3000206801682046FFF7D0FF21680860E268AF
:10BA4000012A14D0022A16D0042A19D0082A1CD0A0
:10BA50006068314605FB0200FAF7D3FC204601F08E
:10BA6000EBFC21688A688242D2D28860D0E76168A4
:10BA700030784855F2E76168308821F81500EDE725
:10BA80006168306841F82500E8E7D6E9000162689E
:10BA900002EBC502C2E90001E0E7FBF735BA08B5E1
:10BAA000002242504058009008BD000020B10349D8
:10BAB00009680160002070470E207047C4F302003F
:10BAC000FEB507460C460846FFF7F0FF002845D1B3
:10BAD000002500958DF8007002208DF80200019578
:10BAE0000620ADF80400029569462020226869DF2F
:10BAF000012600958DF801608DF802600195029590
:10BB00008DF8036069464020226869DF00958DF852
:10BB10000070F720ADF802000195029569462320D8
:10BB2000226869DF0095019502958DF800606946ED
:10BB30000120226869DF4FF4B06000900195029502
:10BB40006946A120226869DF0095019502958DF86C
:10BB500000506946A020226869DF0020FEBD000079
:10BB600060DF002802D1024A0121117070470000F5
:10BB70004341002030B51548ADF5017D007800281F
:10BB800021D04FF4FA7500BFADF8005280A9684685
:10BB900061DF38B1052816D00DF5017DBDE83040D4
:10BBA000FBF7B2B96C460A497DA800F0BBF806E085
:10BBB000D0E90021204690477DA800F0CAF87F9880
:10BBC0000028E1D0F4E70DF5017D30BD43410020B0
:10BBD000C8F30200F8B5134C2078C0B10120A07062
:10BBE00001F0B2FF112814D0022001F0C5FF00259A
:10BBF0008DF800506846FBF7AFFA11DF0646257056
:10BC00009DF80000FBF7CCFA2EB13046F8BD0820B5
:10BC1000F8BD0020F8BDA57002F0F4FB032001F090
:10BC2000ABFFF6E7404100207CB5194C207808B105
:10BC300008207CBD0120A070002001F085FF1128A4
:10BC400019D0002001F098FF1248002600680190EA
:10BC50008DF800606846FBF77FFA0F4901A810DFF6
:10BC600005000AD0002020709DF80000FBF798FA2C
:10BC70002DB128467CBD00207CBD0120F3E7A670D5
:10BC8000667002F0DFFB012001F076FFF3E70000B1
:10BC9000404100205CF30200D96E02000EB5074956
:10BCA000684600F03FF805E0D0E900108847684694
:10BCB00000F04FF802980028F6D10EBD78F302008C
:10BCC0000148007870470000404100200548817815
:10BCD00019B1007818B1FFF77DBF08207047FFF752
:10BCE000A3BF0000404100201FB568464BDF30B1C4
:10BCF000052814D004B0BDE81040FBF705B9084989
:10BD000001A800F00FF806E0D0E900210098904764
:10BD100001A800F01EF803980028E6D0F4E71FBD44
:10BD2000E4F30200016009684160AFF3008010B5E0
:10BD3000D0E900215368994201D1002104E0D1E902
:10BD40000034A34202D01946816010BD0831416021
:10BD5000F0E7816800290BD0026892680A4482608B
:10BD600041684B689A4203D108314160FFF7DFBF59
:10BD7000704770B50D460646446804E0B26829462F
:10BD8000904718B1246820680028F7D120682860FF
:10BD9000256070BD406800687047416808680028E9
:10BDA00001D002680A60704702460020526806E02F
:10BDB0008B4203D108681060012070471A4613684F
:10BDC000002BF5D170474058002800D00120704763
:10BDD00008B5002242504058009008BDD0F8040336
:10BDE000084000D0012070474058002800D00120B2
:10BDF000704708B5002242504058009008BD00002E
:10BE000002480068002800D001207047000401406B
:10BE100008480068012110F0010F06D14FF0E02022
:10BE2000C02280F800248430C167034901200860E3
:10BE30007047000000E100E0180500400549024697
:10BE400000200B790BB1852070470A6001220A712E
:10BE50007047000040400020022010B54107C1F8A3
:10BE600008034FF48270FFF7FCFA054901200860CF
:10BE700004480168C1F300410029FAD110BD000057
:10BE80000C00004018040040002802D00149800145
:10BE90000847704721F302000121B1EB507F01D127
:10BEA000012070470020704738B50D4601F078F941
:10BEB000040014D000208DF800006846FBF74CF910
:10BEC000207928B19DF80000FBF76AF9112038BDF0
:10BED0000120256020719DF80000FBF761F900202A
:10BEE00038BD00000149024802F0A4BC6C4C00209F
:10BEF000002000402DE9F0410546007916460F4626
:10BF000000EB40012D4A01EBC00102EB810494F8E3
:10BF10002A1011B10820BDE8F081294951F82010FC
:10BF20002868FFF7C1FF08B11120F4E73946284619
:10BF3000FBF750F966603869206030004FF0010669
:10BF40002FD03F7F4FF48E712868FFF741FF4FF4E9
:10BF5000A2712868FFF73CFF28681A49C0F804134B
:10BF600028684FEA471140F30730002804DB00F14E
:10BF7000E02080F8001405E000F00F0000F1E02060
:10BF800080F8141D286840F30730002809DB00F012
:10BF90001F0106FA01F14009800000F1E020C0F81D
:10BFA000001128680421C0F800150020A061E0619C
:10BFB00084F8290044F8140FA675ACE76C4C0020F7
:10BFC00084F10200800002002DE9F05F054600794F
:10BFD0004FF4017600EB400303EBC000344B03EB5E
:10BFE00080040020636813B12B68C3F80863A36959
:10BFF0004FF000096BB1E06938B1606810B1286892
:10C00000C0F804631120BDE8F09FE26101202161C6
:10C0100005E0C4F82490A261E160C4F81C9094F893
:10C020002910014302D1284601F0B3FC60680028C2
:10C03000286803D0C0F804630020E4E74FF4A27638
:10C040003146FFF7C5FEB2464FF4927B5946286849
:10C05000FFF7B9FE06464FF484712868FFF7B3FE78
:10C06000804651462868FFF7AEFE074648EA0700BB
:10C070003043EBD056EA070007D12146286801F08B
:10C0800059FCA169606A8142E0D8C4F818900EB1E9
:10C090000320B8E70FB10F20B5E794F8291001206D
:10C0A0000029296801D00860C6E74860C4E700009D
:10C0B0006C4C00202DE9F05F054600790B4600EB43
:10C0C000400101EBC000244901EB8004284600F048
:10C0D00045F810B11120BDE8F09F62614FF00009F2
:10C0E000C4F82090A36084F828904FF48E784E46D0
:10C0F00041462868FFF76CFE28684FF0010AC0F837
:10C1000008A02146286802F0B5FA606808BBD5F897
:10C1100000B067690FE000BF94F8280008B10F264F
:10C1200015E041465846FFF74EFE0028F4D0214660
:10C13000584602F09FFA206AB842F2D35746414669
:10C140002868FFF740FE0028F9D02868C760C4F8C7
:10C1500014903046BFE700006C4C0020007900EBE3
:10C16000400101EBC000044901EB80004069002858
:10C1700000D00120704700006C4C002001490248AB
:10C1800002F006BC984C0020002000402DE9F04150
:10C190000546164600790F46154A00EBC00102EB32
:10C1A000810494F8201011B10820BDE8F0811149F4
:10C1B00051F820102868FFF777FE08B11120F4E746
:10C1C00039462846FBF74AF86660386920601EB198
:10C1D000397F2846FDF7D8FE28680821C0F80015E9
:10C1E0000020A061E0616061012184F82010DCE79B
:10C1F000984C002088F102002DE9F05F0446007998
:10C200000E4600EBC001DFF8F0A017460AEB8105EF
:10C210003046FFF741FEB0B168684FF000084FF4B8
:10C22000047910B12168C1F80893A8694FF0000B98
:10C2300080B1E86948B1686810B12068C0F804931B
:10C240001120BDE8F09F1020FBE7EF614FF00108DF
:10C250002E6102E0EE60C5E9067B00254FF488718F
:10C260002068FFF7C6FD4FF4A2712068FFF7C1FDFB
:10C270002068C0F83465C0F838752068B8F1000F40
:10C2800012D0D0F8001241F02001C0F8001220793D
:10C29000D04600EBC0010AEB8100406838B120684D
:10C2A000C0F804932846CCE701210160EFE74FF482
:10C2B000887A4FF4A27951462068FFF795FD07462A
:10C2C00049462068FFF790FD06464FF492712068BA
:10C2D000FFF78AFD014647EA06000843EBD02279C2
:10C2E00002EBC20308EB8302C2F818B001B10325C8
:10C2F000002ED7D00F25D5E7984C00202DE9F04728
:10C3000004460E460079274900EBC00001EB80058A
:10C3100017463046FFF7C0FD30B1204600F044F824
:10C3200020B11120BDE8F0871020FBE76F61AE60FF
:10C330004FF490774FF0000839462068FFF759FD19
:10C340004FF4AC7631462068FFF753FD2068AA68A9
:10C350006969C0F84425C0F8481520684FF0010904
:10C36000C0F808906868D0B9BA4651462068FFF70F
:10C370003BFD074631462068FFF736FD0743F4D002
:10C3800010B14FF00F0808E02068C0F80C9031465B
:10C390002068FFF729FD0028F9D000206861404699
:10C3A000C0E70000984C00200079054900EBC00070
:10C3B00001EB80004069002800D001207047000098
:10C3C000984C002070B50446007800281AD100254A
:10C3D00009E02069405DFAF795FE18B11128F8D000
:10C3E000FAF792FD6D1CA08AA842F2D8A18A2069B2
:10C3F000084410F8010C0D2804D10A20FAF782FE37
:10C400001128FAD070BDFAF77FBD0000034908601B
:10C41000034801680029FCD07047000004E5014092
:10C4200000E4014010B500280AD0032808D10220FA
:10C43000FCF73CF9002803D0BDE81040FAF764BDD2
:10C4400010BDF8B505460C460888B5F8CA128842F2
:10C4500066D195F8C6024FF0000E00EB8001C1EBEB
:10C46000801005EB40016088E8BBE6880879A21DD2
:10C47000F3B250FA86F6062E01D8034400E00623F4
:10C480000B7100261BE000EBC00306EB860702EBF6
:10C49000470701EB4303D7F802C0C3F80AC0D7F837
:10C4A00006C0C3F80EC07F895F82A3F814E0A3F82A
:10C4B00016E0A3F818E0401CA3F81AE0761C0B79EC
:10C4C0008342E0D895F8C62200EBC00002EB82035D
:10C4D000C3EB821205EB420231F810001289904240
:10C4E00012D2087900E00FE006280DD085F8C502C9
:10C4F00021882846FCF7E4F9002811D02288294633
:10C50000BDE8F840FCF784BC85F8C5E2228869469E
:10C510002846FCF7AFFB20B122882946FCF778FCBF
:10C52000F8BD9DF800000028FAD022880121284695
:10C53000FCF714FC2188284600F0ECF8F8BD000058
:10C540000078002807D104483B21808876DF002846
:10C5500001D0FAF7D9BC7047C8390020F0B58BB0CC
:10C56000002601960D4604468988406901AAFAF71B
:10C5700035FF0AA8CDE908600227ADF82070ADF8B4
:10C5800022602189A88808AAADDF002819D1A069F6
:10C59000002816D00998FCF74DF8002811D0019E0C
:10C5A0000EB101203070182102A8F9F743FF8DF871
:10C5B00008700394A888ADF810000596A16902A838
:10C5C00088470BB0F0BD0000F8B505460C4608885A
:10C5D000B5F8CA12884255D195F8C602A21D00EBE3
:10C5E0008001C1EB801005EB400695F8C50200EB19
:10C5F000C00006EB400160880A3138B329E000BF73
:10C6000000EB400302EB43039F88B7F5245F0CD097
:10C610006FF4245C17EB0C070AD0012F02D0072F10
:10C620000BD108E05B884B8107E05B888B8104E0DD
:10C630005B88CB8101E05B880B824B892BB18B89B6
:10C640001BB1CB890BB10B8A1BB9401C13888342E9
:10C65000D6D800208DF8000095F8C5023179401C2D
:10C66000884203D101208DF8000010E085F8C50252
:10C67000228869462846FCF7FDFA20B1228829461F
:10C68000FCF7C6FBF8BD9DF800000028FAD0228810
:10C6900001212846FCF762FB2188284600F03AF881
:10C6A000F8BD70B505460C4690F8C602228800EB2E
:10C6B0008001C1EB801005EB4001B5F8CA0282424F
:10C6C00027D1608848B100212846FCF747FB218824
:10C6D0002846BDE8704000F01DB8E268C1F80620A9
:10C6E000E28895F8C412D0B251FA82F2062A01D833
:10C6F000084400E0062085F8C40221882846FCF79B
:10C70000DFF8002805D022882946BDE87040FCF7F4
:10C710007FBB70BD70B588B00D46044620216846C9
:10C72000F9F788FE94F8C7021E4B401CC0B284F88B
:10C73000C702DA68002190422CD284F8C51294F81E
:10C74000C602194E401CC2B202EB820084F8C62217
:10C75000C0EB821006EB820204EB4000126802601C
:10C76000017102218DF800100121ADF81010006850
:10C77000CDF812000D48CDE902042A4669469868B2
:10C78000FEF7D6FA002803D02A462146FCF740FBE4
:10C7900008B070BD84F8C81229462046FCF7C6FAD6
:10C7A000F6E700001C400020184B0020118E02000C
:10C7B000F0B587B00C4605468E1D8988406906AAEB
:10C7C000FAF70CFE18216846F9F734FE0195A088A7
:10C7D000069AADF80800039231882B89002704F1EE
:10C7E0001200994202D17389022B0DD0AA8991427D
:10C7F0001ED1A96900291BD08DF8007004907089A2
:10C80000ADF81400A96911E0002A11D0FBF712FF5E
:10C8100020B1069901200870022002E006980770F6
:10C8200003208DF80000A969002901D068468847D7
:10C8300007B0F0BD8A7D022A04D90289CB881A4448
:10C84000D21C02814289C988511AC91E4181704790
:10C8500008B50021009101460823024A0248FEF76C
:10C860002DFF08BDD4F202005C41002008B5002075
:10C87000009004480823044A01680448FEF71EFF9C
:10C8800008BD0000D8400020CCF202005C4100202E
:10C8900001494978FBF7F8B99040002000B585B010
:10C8A00002228DF800200288ADF80220407940076E
:10C8B00001D5012000E002208DF808008DF8091054
:10C8C0006846FCF701FD05B000BD002101F06EBD1A
:10C8D00030B5154685B00C46024605216846FDF781
:10C8E00057FF6846CDE90245FCF7FCFC05B030BDBA
:10C8F00070B5054D06460024304655F8241088478B
:10C90000641C042CF8D370BD30F2020070B50446EC
:10C910000025C1681A4A284600EB400302EB830356
:10C920005B688B4204D100EB400002EB800003E027
:10C93000401C0428F0DB00202178082904D00929B4
:10C9400008D0132914D112E0617A89B980B102F0BC
:10C9500035FA0DE0617A59B950B100214160817A10
:10C9600041F00201817207490120087003E00125AE
:10C970002046FFF7BDFF2846BDE8704000F0AEBD81
:10C98000E44E002078400020002300F0DFB838B5E6
:10C990000446002008E08178204600F071F808B1D4
:10C9A00005280FD10098401C00906946204602F0EF
:10C9B000DFF90028EFD1204600F050F9002802D01E
:10C9C000072800D0032038BD2DE9F0471F00154689
:10C9D00081460E4604D0072E05D0082E06D102E06F
:10C9E0000E20BDE8F0870DB1042D01D90720F8E72E
:10C9F0004FF00008484602F0A1F9041E04D0207A46
:10CA0000A8420BD00F20ECE7FF214FF6FF7002F099
:10CA100095F9041E06D0A0F80090A670607AFF2851
:10CA200002D00AE01120DCE72946144800F0FFF9A3
:10CA30006072FF2813D04FF001082572617A0F4809
:10CA400000F027FA02000ED0ABB23146384600F0B3
:10CA50007FF9B8F1000F0FD0082E06D00CE0204669
:10CA600002F09EF9DEE70320BBE738886FF005018E
:10CA700001EB8000796888800020B2E7D44E002066
:10CA800010B502F05BF918B102F098F9002010BD62
:10CA9000052010BD70B50C4606461546072901D085
:10CAA000082C0ED1104600F0E4F850B12146304673
:10CAB00002F044F938B105808470BDE8704002F09E
:10CAC000E9B8072070BD052070BD00004FF6FF716A
:10CAD000418001490968084718F2020000F06CB96A
:10CAE00000F070B970B586B014460E46054600F0E9
:10CAF0001DF940B105F5404080B20F4A6946FCF788
:10CB000046FC40B902E0012006B070BD03A96846AA
:10CB1000FCF756FC08B10020F6E7A57003984088A2
:10CB200020800498606003988088A0F540403080A1
:10CB30006846FCF701FCE6E770400020024800214F
:10CB400041608160704700006C400020F0B587B004
:10CB50001F46154606460C46FF280AD8084600F030
:10CB6000E5F830B104AA2146304600F0C7F840B9D4
:10CB700002E0072007B0F0BD02A904A8FCF720FCE2
:10CB800008B10520F6E7AC700298408828807FB194
:10CB9000840039682646B1EB800F00D20C46039919
:10CBA00022466868F9F72DFCB44203D20C20E1E775
:10CBB0000398686004A8FCF7BFFB0020DAE70000D8
:10CBC00070B586B016460D460446FF2829D8A878C9
:10CBD00000F0ACF828B304F54040ADF80000A878A8
:10CBE00003AA00F54040ADF802006868019028886B
:10CBF0000290A978204600F081F80528694603A82C
:10CC000012D0FCF703FC00BF48F20662811A904282
:10CC10001CD00CDC88B1A0F20260B0F5004F0AD144
:10CC200016E0072006B070BDFCF7F8FBECE7012921
:10CC30000AD0072908D00320F4E71EB1314603A823
:10CC4000FCF7B5FB0020EDE71120EBE78620E9E7D4
:10CC50001020E7E74FF6FF7000F088B810B5FF2806
:10CC600001D9072010BD00F087F800F005F800207A
:10CC700010BD00F0BFB80000F0B51E4E8BB0002014
:10CC8000707000904FF6FF750190284600F094F800
:10CC9000044648F2096706E0204600F07FF8204687
:10CCA00000F08AF80446AC421FD004F5404080B240
:10CCB0006A4602A9FCF773FBB842EDD004F5404088
:10CCC00080B2FCF715FBA0F5064107390FD000280C
:10CCD0000BD005461422084905A8F9F792FBADF8D8
:10CCE000184005A80795FFF7F1FE0BB0F0BD012035
:10CCF0007070FAE76C4000201CF202007CB505461B
:10CD000016460C46084600F011F80020009005F584
:10CD10004045019004F54044A8B2A1B26B463246AA
:10CD2000FCF72EFB002800D005207CBD07280DD085
:10CD300001280BD0082809D0052807D0062805D0DF
:10CD4000092803D0042801D0002070470120704733
:10CD500010B503EB83034FF6FF7404EA03138170ED
:10CD6000DB1C99084260018010BD00000149FBF7FF
:10CD7000DDBD0000144F002010B50446A0F57F4033
:10CD8000FF3807D004492046FBF7D0FDA04201D16F
:10CD9000012010BD002010BD344F002010B5044606
:10CDA000044900F0DDFC03492046BDE81040203175
:10CDB00000F0D6BC144F00200149FDF702BD000071
:10CDC000344F002070B50A49FDF7FBFC04464FF6CE
:10CDD000FF7507E000F018F838B105492046FDF767
:10CDE000F0FC0446AC42F5D170BD204670BD000099
:10CDF000144F0020FF2803D801460248FDF7D3BD99
:10CE000000207047144F0020FF2803D80146024835
:10CE1000FDF7C9BD00207047344F0020006801288D
:10CE200003D0022801D000207047012070472DE96F
:10CE3000F0410F4606002AD0306840B3706830B326
:10CE4000FF24002520E029467068FDF777FD80F07B
:10CE50000100BFF35F8F48B1FF2C00D12C46281B87
:10CE6000401CB8420ED12046BDE8F081FF2C06D10F
:10CE700008E02146304600F020F8641CE4B2AC42E1
:10CE8000F7D3FF246D1CEDB2B068A842DBD8FF20B9
:10CE9000EAE770B504000D460DD0206858B160680F
:10CEA00048B1FF2D07D0FDF712FC20B1E1682068E2
:10CEB00005FB010070BD002070BD70B504000D467B
:10CEC00013D02068002810D0606800280DD0FF2DF6
:10CED0000BD0FDF7FCFB002807D060682946BFF3A4
:10CEE0005F8FBDE87040FDF71EBD70BDFCF7D6B981
:10CEF000FCF7D4B9FCF7D2B92DE9F041044686B06D
:10CF000001278088FCF7ECFE6080207800263F4DEA
:10CF1000082808D0092820D04FF6FF780A2829D001
:10CF20000B2853D158E0607A10B1012809D04DE0A8
:10CF3000A86830B1E168814203D1AE60A088A880C2
:10CF400016E06878E8B3A088A98888423ED1207AA4
:10CF500006283BD100F0A8FA38E0607A88BBA868C0
:10CF600078B3E168814231D1AE60E868401EE86084
:10CF7000E6602BE0A878E8B14046FFF7B1FD4146F6
:10CF8000404517D10846FFF7A9FD404512D1AE70C4
:10CF900014216846F9F74EFA0C208DF80000ADF820
:10CFA0000480ADF8028000272046FCF777F9684638
:10CFB000FCF774F9687838B1A088A988884203D151
:10CFC00000E003E000F070FA002F1CD006B020460D
:10CFD000BDE8F041FCF762B9A8780028F6D0AE7041
:10CFE00014216846F9F726FA0D208DF80000ADF8F7
:10CFF0000480ADF80280A06802902046FCF74EF94C
:10D000006846FCF74BF906B0BDE8F081804000208F
:10D010002DE9FF4F2D4885B09946007892468B4602
:10D02000C0B14FF6FF742046FFF75AFD804600203E
:10D030000421CDE90210009003A8019002AB6A46DA
:10D0400006214046FFF782FD00277E1E2546072861
:10D0500004D017E0082009B0BDE8F08F0520FAE7FA
:10D060000398B84201D307464546B04201D206466E
:10D0700044464046FFF734FD804602AB6A4606212F
:10D08000FFF764FD0028EBD00528F2D04FF6FF70C3
:10D09000804519D1854201D0844201D1052000E0AC
:10D0A0000020059901B10D80BBF1000F01D0CBF834
:10D0B0000070BAF1000F01D0AAF80040B9F1000FDA
:10D0C000C9D0C9F80060C6E70320C4E7804000204B
:10D0D000002801D0FCF7E2B8704700002DE9F05FAE
:10D0E0002A4F06464FF0A04A4FF0010B0024381992
:10D0F00090F95010491C3CD090F85000314620F077
:10D10000C0052846FDF7DDFC20B3204600F040F8BE
:10D1100081460AEB8500D0F80007C0F30148B8F15A
:10D12000020F18D002212846FEF745FB0BFA05F145
:10D13000CAF820152846FBF7F3FA57F820204AB121
:10D140004846B9F1030F11D0B8F1020F05D0B8F17C
:10D15000030F07D00DE00321E5E74846B9F1010FC1
:10D1600004D006E04846B9F1020F02D10146284634
:10D170009047641C042CBAD3324601210020FEF7EC
:10D180002BFB30680028B1D1BDE8F09F104C002087
:10D190000249084490F8500080097047104C002064
:10D1A0000349884201D103487047002070470000BE
:10D1B00000200040484000200146054810B50068A6
:10D1C000FDF785FB04461C21F9F734F9204610BD14
:10D1D000C4F20200014602480068FDF799BB000056
:10D1E000C4F20200034802490068FDF77BBB00005F
:10D1F000E4400020DCF20200F0B591B00E46074694
:10D2000001226946FEF78AFB04005AD19DF800000E
:10D2100004AD062842D2DFE800F0030A181F2327D6
:10D22000BDF81220BDF810103046A1DF0BE00CA8AD
:10D2300006900146BDF8162000230198FEF73FFB3B
:10D2400029463046A3DF044626E0BDF810103046DC
:10D250000DF112029BDFF6E7294630469DDFF2E72B
:10D26000294630469EDFEEE70CA8079000230222F5
:10D2700008A90198FEF723FB08A80690BDF8202016
:10D28000022307990198FEF71AFBBDF820E0294612
:10D290003046AEDF040016D0112C12D09DF80000ED
:10D2A0000C4951F8200010B10198FEF7EDFA002268
:10D2B00069463846FEF732FB22463146684600F0A2
:10D2C00057FA11B0F0BDBDF820008645E6D00C2419
:10D2D000E4E7000048F10200F0B5264D264E85B087
:10D2E00004460027686828B9224930680831FDF7EC
:10D2F00004FB686001460078072817D2DFE800F0D9
:10D30000160408080E0E12002046FCF7CFFD02E0BE
:10D31000204601F0E3FD040029D009E02046FBF798
:10D3200063FCF8E72046FCF743F9F4E748F20E64A3
:10D3300014216846F9F77EF8A4F5E8501D3800D1AD
:10D340000024019469466868FBF7D7FE6846FBF73E
:10D350000FFF08496F60002408313068FDF7C2FAFA
:10D36000044801210C30FDF754FB0028BAD105B068
:10D37000F0BD0000B0400020C4F202002DE9F041F1
:10D38000234C0025234E207A012730B92248311D35
:10D390000068FDF7B2FA306038B1022020723168BF
:10D3A000087928B101281ED116E06560BDE8F0813A
:10D3B000D1E90503C01A4FF48052904200D31046C1
:10D3C000B7EB900F01D2820800E001220869C9681A
:10D3D0001844194429DF03E0D1E90301084428DF98
:10D3E00058B1112812D003213068FBF7D1FE257205
:10D3F0006560BDE8F041FFF7F5BE207C0028D5D17F
:10D40000BDE8F04100210220FEF706B92772CDE702
:10D410002C510020E0400020DCF2020010B5012178
:10D420000448FDF7E1FA002803D1BDE81040FFF7FA
:10D4300053BF10BDBC40002001680A684968914292
:10D4400001D3881A70478068801A0844401C7047CE
:10D4500070B58CB00446C068002209A9FEF75EFAD8
:10D46000104D1BE0BDF82410A06801EB810100EB1A
:10D47000810607E09DF8000055F8200010B10198E2
:10D48000FEF702FA002269463046FEF747FA002806
:10D49000F0D0002209A9E068FEF740FA0028E1D0A8
:10D4A0000CB070BD48F102000B4910B500231A46BC
:10D4B000A1F10800FFF7ACFD07490C39052803D09E
:10D4C00038B10020487010BD4FF6FF7088800020F2
:10D4D000C8600120F6E700008C4000202DE9F043F1
:10D4E0001D4E814685B03078002829D000201B4F82
:10D4F000307004464FF0010804EB440007EB800550
:10D50000A87A810701D4C10721D086F8008080075E
:10D5100002D4B9F1000F1AD0284601F0BBFBB0B11C
:10D520004FF6FF71ADF802102988ADF80410862877
:10D5300009D007218DF8001002906846FFF7D8F94E
:10D5400005B0BDE8F08306208DF80000F5E7641C07
:10D55000042CD1D3F4E7000078400020E44E0020F2
:10D560002DE9F047074620481C46154600780E4630
:10D5700070B18DB184B1DFF874804FF00009A088DC
:10D5800002282DD200EB800118F8210020BB1BE0FF
:10D5900048F20160BDE8F08748F20460FAE72068CD
:10D5A0001FB181883A8891420ED11EB1018832881C
:10D5B000914209D180682860206868600B48283053
:10D5C000008928810020E5E7A088214600F060F866
:10D5D0000028E4D1C4F80090A088401CA080CEE7C9
:10D5E00048F20960D6E70000D040002058500020E3
:10D5F000F8B505464068244F0C46002648B3234939
:10D60000CA68824225D80969814222D3FCF75EFDAF
:10D61000F8B12889398988421BD1D5E900018A6887
:10D62000904216D10020A7F1280200BF00EB800332
:10D6300002EB83035B688B4205D203F580538B4278
:10D6400001D9208011E0401C80B20228EED30020D6
:10D65000F8BD268000960AE0009829688068884214
:10D6600005D100986860388928810120F8BD20889C
:10D67000694600F00DF80028EED12088401C80B2E9
:10D6800020800228E6D3E2E7805000205C410020A1
:10D6900070B50E4600EB8001134800EB8100446832
:10D6A000306804F5805518B1418800EB810411E021
:10D6B000083410E029462046FCF746FA20B101283C
:10D6C00005D0022807D10DE00120346070BD6088CC
:10D6D00004EB80040C3429462046FCF74BFA002862
:10D6E000E8D170BD002070BD5850002038B50C4600
:10D6F0000021009101460423084A0948FDF7DEFF96
:10D7000010B148F20D6038BD064A04EB840102EB0B
:10D71000810101200874002038BD0000C8F2020019
:10D720005C4100205850002070B50C4B00210A4A83
:10D73000DC680DE002EB81058678AD78B54206D154
:10D7400032F821500688B54201D1586870BD491C95
:10D75000A142EFD3002070BD184B00201C400020D8
:10D760000A46FF2803D801461046FDF7DCB870478B
:10D7700030B4130009D08468002C06D0C0680A4673
:10D78000A446014630BC1846604730BC704770B5AF
:10D79000044600780E46002204F11001062827D224
:10D7A000DFE800F003080B111418628A218A304662
:10D7B000A1DF0DE03046A3DF0AE0218A04F1120266
:10D7C00030469BDF04E030469DDF01E030469EDFBF
:10D7D000024605E0A06905883046AEDF020002D0AF
:10D7E000112A0BD004E0A0690088A84200D00C22C6
:10D7F00031462046FFF7BCFF012070BD002070BD00
:10D8000070B50546FBF7F9FB134C40B1D4E90402AF
:10D810004FF08071411842F10000C4E9041000216A
:10D820002846FBF765FB30B1606820B1606800F006
:10D830009DFE0020606001212846FBF759FB18B1CE
:10D84000FCF7ACF8C4E90601284600F0BBFE284608
:10D85000BDE8704000F034B8E840002070B50546DF
:10D8600000200C460870FCF799F8D5E90223101A3D
:10D8700063EB010300263146361A994112DAB0F5FE
:10D88000350F03D3F9F774FB0B4942184FF4960395
:10D8900000210A48FBF7BDFB10B10D2806D009E0B6
:10D8A000012070BD00210548FBF718FB284600F059
:10D8B0005DFE2070002070BDFFFFB400F04000202E
:10D8C000F8B51A4C074600261948FEF763FAD0B19E
:10D8D000616871B1D0E902106268D2E90232C91AF6
:10D8E000904120D26068007F18B161681048FEF74F
:10D8F00040FA00F0D3FD05466946FFF7AFFF98B147
:10D90000606840B10AE0606800280CD13846BDE884
:10D91000F840FBF77ABB3846FBF773FB65609DF870
:10D9200000000028D0D1F8BD6660CDE7E8400020B7
:10D93000F4F2020070B5054688690C4600284FF4E1
:10D94000847128460AD0FEF743FAD5F81805626AB2
:10D95000E1688854606A401C606270BDFEF738FA66
:10D96000D5F8180570BD1FB501238DF80030CDE93D
:10D970000121D0E90012684690471FBD1FB5012361
:10D980008DF80030CDE90121D0E9001268469047BA
:10D990001FBD10B5044600684FF49271FEF718FAE7
:10D9A0004FF484712068FEF713FA206801210160AA
:10D9B00010BD000010B50446064801792046FAF76C
:10D9C00063F9002804D12046BDE8104000F04EBAAB
:10D9D00010BD0000504000200EB50178032911D081
:10D9E00004290FD005290ED006290BD140680179F2
:10D9F000837942798DE80E00C3788278417805A05A
:10DA0000F8F790FF0EBD40680028FBD0BDE80E403F
:10DA1000F9F77ABA436F6E6E656374696E67207446
:10DA20006F2074617267657420253032782530323A
:10DA300078253032782530327825303278253032EA
:10DA4000780000001FB50020009001900290039024
:10DA500001208DF804008DF80C00184A694618481A
:10DA6000FDF788FB08B1F9F74FFA1648F8F7EDFC17
:10DA700038B1144A00211248FDF7F0FA08B1F9F75D
:10DA800043FA104A0321253A0D48FDF7E7FA08B199
:10DA9000F9F73AFA0B4A0221921F0948FDF7DEFA1C
:10DAA00008B1F9F731FA002204210548FDF73BFBE4
:10DAB000002801D0F9F728FA1FBD0000D9D90200CB
:10DAC000E443002085F0020010B50848FDF7A0FCF3
:10DAD00008B1F9F719FA0120FAF7E8FD002803D098
:10DAE000BDE81040F9F710BA10BD0000E443002073
:10DAF00038B50021012548B1012810D003280DD1E7
:10DB0000FEF786F9BDE83840FDF7D4BC4FF0E020C1
:10DB1000C0F88051BFF34F8FBFF36F8F38BD8DF8C2
:10DB200000106846F9F718FB064C207808B9FDF795
:10DB3000A1FCE068401CE060A5709DF80000F9F7CA
:10DB40002FFB38BDFC4B00203EB504460949684612
:10DB5000FEF7E8F808E000BFD0E900212046904732
:10DB600030B16846FEF7F5F802980028F4D13EBDC2
:10DB700011203EBD60F302003EB5044608496846E8
:10DB8000FEF7D0F807E000BFD0E90021204690471B
:10DB90006846FEF7DEF802980028F5D13EBD000089
:10DBA0006CF302002DE9FC4104460C30002680464F
:10DBB000FCF75EF94FF6FF770546B842208803D19F
:10DBC000FCF744F9054602E02946FCF71FF92088D6
:10DBD0000022012100F064F8BD4214D06A460721FA
:10DBE0002846FEF7D1FE70B9019DA07D3435C007EF
:10DBF00009D0287CC00705D1414605F11200FCF789
:10DC0000F0F800B12E46002320881A46314686DF00
:10DC10000146082803D021B1208800F0D3F8BDE8E0
:10DC2000FC81A07DC007FAD0002EF8D12088002208
:10DC300041F20601FBF75CFAF1E700002DE9FC4137
:10DC40001C0016460F4605460AD005F5807080B2C6
:10DC50006B4601220721FEF7B7FE112801D010B153
:10DC60000320BDE8FC8150210198F8F7E3FB0198FF
:10DC700007700198E6603430206001981830206108
:10DC80000198401C60610548E06101992846113106
:10DC9000FBF79CFF0028E4D00820E2E7604F00205B
:10DCA000F0B5154E14460F460A4685B00546317844
:10DCB000FAF702F8002F1AD00CB1012200E000227E
:10DCC00071782846F9F7F8FF012C12D00022B178BC
:10DCD0002846F9F7F1FF142208496846F8F791FB46
:10DCE000ADF802508DF808406846FBF7EDFA05B034
:10DCF000F0BD0122EBE700009040002044F202005A
:10DD000001490978F9F7C0BF90400020F8B50446F2
:10DD1000144800252E46806808B36088F9F74AFF4A
:10DD2000A0B100200090207A9DF80020410861F306
:10DD3000820260F3C302800860F304128DF80020B1
:10DD40006088694600F008FA80F00106608801B03A
:10DD500032462946BDE8F0400123FCF7C9B9012548
:10DD6000F4E700009840002010B586B00446142166
:10DD70006846F8F75FFB04208DF80000ADF802401C
:10DD80006846FBF7A1FA06B010BD00000249896998
:10DD9000002900D008477047644B002030B585B09B
:10DDA0000C460546142206496846F8F72AFBADF8EA
:10DDB000025068460294FBF755FA05B030BD0000EA
:10DDC000A8F1020030B585B00C460546142206497C
:10DDD0006846F8F716FBADF8025068460294FBF768
:10DDE00073FA05B030BD000058F20200034800226B
:10DDF0000149C078F9F7EEBEB5D9020050400020C5
:10DE000070B5184988B0184CD1E900014FF6FF767B
:10DE1000CDE9050121E0002205A9FEF7D1FE0500AC
:10DE200017D014216846F8F705FBA088ADF8040068
:10DE3000112D08D0862D08D007208DF800000295FE
:10DE40006846FBF71DFA08B070BD06208DF800008B
:10DE5000F6E7A088FEF744FEA080A088B042DAD1A1
:10DE6000F1E70000FCF10200604000202DE9F04FD6
:10DE70008DB0054601270026FBF74AFE112812D077
:10DE800005DCF0B1062861D0082808D125E0A0F50E
:10DE90004051023907D0A1F54071FF395DD00146EC
:10DEA0002846FFF77BFF2F4C3A462846E178F9F7E2
:10DEB00003FF21790DB032462846BDE8F04FF9F74F
:10DEC000FBBE142228496846F8F79BFAADF80250C9
:10DED00001266846FBF7C6F9E5E70DF118084FF093
:10DEE000000901A8B3DFDFF880B001240DF1140AA6
:10DEF000ABF1440B42F6052E1FE0DBF80C00CDE938
:10DF0000030A002205A92046B4DF70B9BDF8141039
:10DF1000B9F1000F0BD0A1F5245002380BD103AAA0
:10DF200021462846CDF81080ADDF58B10EE071458E
:10DF300001D14FF00109641CA4B2BDF80400844271
:10DF4000DBD303E0BDF818000028ACD10027284639
:10DF5000FBF77CFFFBF73CFDA5E72846FCF7D4F96F
:10DF6000A1E7000050400020D0F102002DE9F0416F
:10DF70000746806A14468846C8B3002531E000BFD2
:10DF8000B96A05EB450001EB8006B088801CFE28CD
:10DF900002D90C20BDE8F0812288401C08F802005C
:10DFA00020881622401C80B2208008F8002020889B
:10DFB000401C80B2208000EB0801308800F071FD29
:10DFC0002188084480B22080B28842B1B16871B122
:10DFD0004044F8F716FA2088B188084420806D1C68
:10DFE000EDB297F82C00A842CAD80020D2E7FFE78C
:10DFF0000720CFE70A78062822F0FF020A7010D225
:10E00000DFE800F0030507090B0D002008E01120F0
:10E0100006E0212004E0312002E0122000E022206E
:10E020000870704710B504460020FAF73FFB08B1AE
:10E03000F8F76AFF24B9FAF707FB08B1F8F764FFAD
:10E04000012010BD10B500F0B1F8074C00220549C1
:10E050002079F9F7BFFD6078BDE810400022034940
:10E06000F9F7B8BDCBC8020098400020DDA202003D
:10E070002DE9FC410C00074614D0F9F7F3FD06002A
:10E0800013D03846FBF7E2FE05462078022E0FD06B
:10E0900020F00100A5F57F412070FF390BD040F042
:10E0A00008000AE00E20BDE8FC8143F20200FAE716
:10E0B00040F00100EEE720F0080020703846F9F744
:10E0C00079FD217860F3410121703846F9F7A8FD08
:10E0D000217860F3820121703846F9F791FD70B91B
:10E0E0003846F9F767FD70B128466A460721FEF702
:10E0F0004BFC40B9019890F84400C00703D0207849
:10E1000040F0100002E0207820F010002070002085
:10E11000C9E7000010B500780A2809D004DC0828F7
:10E1200006D0092811D103E00B2801D013280CD107
:10E13000074C002205492079F9F74CFD6078BDE8CD
:10E14000104000220349F9F745BD10BDCBC80200BD
:10E1500098400020DDA2020038B50C460749096846
:10E1600000916946FFF784FF21789DF800209143D4
:10E17000084301D0002038BD012038BDBCF20200A8
:10E1800010B504460078052802D0122809D105E010
:10E190006088A168BDE8104000F008B92046FFF78C
:10E1A000B5FD2046BDE81040FBF79CB830B50446ED
:10E1B000008885B019284CD00BDC112822D01328F8
:10E1C0002BD014281CD105B0201DBDE83040FFF72E
:10E1D000E9BC1A284ED01E2812D1A088FFF790FD66
:10E1E00000280DD1142235496846F8F70AF9A088AD
:10E1F000ADF80200207A8DF808006846FBF764F855
:10E2000005B030BD207A3D2804D04FF48851A08855
:10E21000002225E041F23D01F9E734F8040FF9F757
:10E220000FFD012809D12079C00701D0012200E0AB
:10E23000022220880121FFF733FD204934F8045BD6
:10E24000142214396846F8F7DCF8ADF8025002944D
:10E25000D3E7217A201D41B14279008802F0030200
:10E2600005B0BDE83040FCF703B805B0BDE830406C
:10E27000F9F73AB8A088FEF70BFB0028C0D1A088B8
:10E28000F9F798FC0028A08810D00D4900220978E1
:10E29000F9F712FD02208DF80000A088ADF8020009
:10E2A00000208DF808008DF80900A6E705B00122CE
:10E2B000BDE8304041F20601FAF71ABFA8F20200A9
:10E2C0009040002070B516460C460546F9F7B8FC9C
:10E2D00001280BD0022802D043F2020070BD324662
:10E2E00021462846BDE87040FBF758BF21004FF09B
:10E2F0000000F3D02846BDE87040FBF749BF00009E
:10E300002DE9F04188B017460D468046F9F798FC94
:10E310000446002620216846F8F78CF8012C01D02D
:10E320008CB105E01F480022C1784046F9F7C4FCD3
:10E3300075B14046FBF78AFDA0F57F41FF3915D046
:10E34000012C07D012E043F2020008B0BDE8F081D2
:10E35000852618E04046F8F7B9FD38B94046FFF782
:10E3600003FD4046F8F7B2FD00B985262878C007BE
:10E3700011D0852E07D06B463A4621464046FFF71E
:10E380005DFC0028E1D1012C09D000226B4631460A
:10E3900040467FDFD9E7044803970790F3E72A4612
:10E3A000F4E7000090400020604F00203EB5054695
:10E3B0000C466846FCF7E2F96A4621462846FEF715
:10E3C00087FA09480099C2682846FFF799FF044672
:10E3D000014601222846FBF751F821462846009ABB
:10E3E000FAF700FF3EBD000098400020002805D14C
:10E3F0000349012048700020FAF7B8BA70470000BE
:10E40000FC4B002010B51620F8F7ACFA48B10C48C8
:10E4100082684FF4800152B1016821F480010160EB
:10E4200010BDBDE8104042F20100F8F76DBD4FF09D
:10E43000E020C0F88011BFF34F8FBFF36F8F10BD86
:10E44000C851002010B51620F8F78CFAA0B1114879
:10E4500090F800044009082811D20121814011F0F0
:10E46000EC0F0CD00C4882684FF480016AB101684F
:10E4700041F48001016010BD42F2010001E042F26E
:10E480000200BDE81040F8F73FBD4FF0E020C0F8B3
:10E49000001110BD16E000E0C85100200148FDF752
:10E4A0007CBC0000F4F202007CB505460D480C4629
:10E4B0000022D0E90510CDE900100B48417928462B
:10E4C000F9F7FAFB14B10748001D01E005480830D0
:10E4D00001902846FBF7BAFC00226946FEF770FB64
:10E4E0007CBD00008CF1020050400020F8B51C4DAE
:10E4F0000A212869401CB0FBF1F201FB12012861DE
:10E5000000292CD1E968401A0A2828D3E88820B3CA
:10E510001449EA88A1F59E60F9F7FAFE0646082834
:10E5200004D0132E02D008B1F8F7EEFCE888ADF85D
:10E530000000AB886A460B490B48F9F753FF0446C5
:10E54000082806D0132C04D0052C02D008B1F8F707
:10E55000DBFC132EDCD0132CDAD00020E880F8BDD1
:10E56000C8390020A0480020D03F002070B50446E4
:10E57000124800250078F8B1F4B1207FE0B1FBF734
:10E580000DFAD4E90223801A994110D3206900269C
:10E5900000B92677D4E905108847206960B1217F4A
:10E5A00051B1D4E9022110187141C4E90201214698
:10E5B0000348FDF7DEFB0125284670BDE84000203A
:10E5C000F4F20200F8B51B4C69462068FCF795F997
:10E5D00000260127184D29E0017821B101290CD02E
:10E5E00002291BD114E041680A7FBAB90F7741684C
:10E5F00010480830FDF7BDFB10E0416868688142B3
:10E6000001D16E600AE00B480830FDF7CDFB05E054
:10E61000FFF744FF08B10677FAE72F7069462068D4
:10E62000FCF760F969462068FCF767F90028D3D148
:10E63000F8BD0000ECF20200E8400020F8B50B4CF9
:10E640000D46064669462068FCF741F958B1067048
:10E65000456069462068FCF75BF910B10448FAF799
:10E66000B9FC0020F8BD0420F8BD0000ECF2020067
:10E67000F040002070B50C4605464FF48E71FDF752
:10E68000A7FB216AA068415C206A401C2062C5F893
:10E690001C1570BD1FB500228DF800200291816805
:10E6A00001914261D0E90012684690471FBD1FB535
:10E6B00000228DF800200291816801914261D0E929
:10E6C0000012684690471FBDF8B5017841B1012995
:10E6D00001D002293CD14068BDE8F840F8F714BCED
:10E6E0001D4C1C48E1880844F8F7A0FCE088401C59
:10E6F00080B2E0802169E1606188884228D30128E6
:10E7000024D91449E288A1F59E60F9F701FE064676
:10E71000082804D0132E02D008B1F8F7F5FBE088E2
:10E72000ADF80000A3886A460A490C48F9F75AFE7A
:10E730000546082806D0132D04D0052D02D008B1B7
:10E74000F8F7E2FB132EDCD0132DDAD00020E080A6
:10E75000F8BD0000A0480020C8390020D03F0020AC
:10E760007CB50178254DA1B301290BD002291DD11B
:10E770008DF80010C068691C01900122C81DFCF7CB
:10E78000E7FE30E0017A59B1406801781C48F8F79B
:10E79000E1FB1B4C012650B18DF8006001900DE0AB
:10E7A00016490122491CC81DFCF7D2FE7CBDA06899
:10E7B000E168814205D000208DF800006968684654
:10E7C0008847A068E168081AA1888842E8D9AE7035
:10E7D0007CBDFFE70A4809491030F8F7A0FB30B1CB
:10E7E00003208DF80000696868468847F0E7034910
:10E7F000012201F10800FCF7BBFEE9E70C41002013
:10E80000A85100201FB50A4601788DF80010416814
:10E810000191017A8DF80810C0680390044850F8FF
:10E820002210001F50F82220684690471FBD0000AC
:10E830003C4000202DE9FF470C4605464FF400718F
:10E84000FDF7CCFA01274FF40178002618B34FF4F6
:10E85000927949462846FDF7B6FAE0B1494628467E
:10E86000FDF7B6FAC5F8088394F8290000B96F607F
:10E8700002208DF80000D5F88004C5F880040390CC
:10E88000A0690290E0680190A661E661D4E90012F7
:10E890006846904728E004212846FDF79FFA18B300
:10E8A0004FF484712846FDF78EFAE8B121462846D8
:10E8B000FFF740F8616AA069884215D1E06938B174
:10E8C000E268616AA0612069E6616662E06008E072
:10E8D00094F8290000B96F60C5F80883A661E26862
:10E8E000616A2046FFF73FF84FF48E78414628468C
:10E8F000FDF769FA80B16069216A814202D294F819
:10E90000280028B341462846FDF762FA606918B12D
:10E9100061692046FFF7BEFE4FF4A27841462846C3
:10E92000FDF751FA002818D041462846FDF750FA65
:10E9300094F8290000B12F60A06900280DD0A661CD
:10E94000E268616A04B02046BDE8F047FFF70BB803
:10E9500021462846FFF78EFEDEE7BDE8FF87000070
:10E960001FB50A4601788DF8001041680191017ABF
:10E970008DF80810C0680390044850F82210001F5A
:10E9800050F82220684690471FBD00003C40002000
:10E990002DE9FF410C464FF4927705463946FDF7C5
:10E9A00023FA0026B8B139462846FDF722FA02209C
:10E9B0008DF80000D5F88004C5F880040390D5F8E0
:10E9C0003C050290E0680190A661E661D4E900127E
:10E9D0006846904723E04FF4887739462846FDF78C
:10E9E00003FAE0B139462846FDF703FAD5F83C159D
:10E9F000A069884213D1E06960B1E268D5F80002ED
:10EA000020F02000C5F80002E069A0612069E661FD
:10EA1000E06001E0A661E2682046FEF7AFFF4FF438
:10EA2000A27739462846FDF7DFF968B1394628460E
:10EA3000FDF7DFF9A06938B1A661E661D5F83C15AC
:10EA40002046E268FEF79AFF4FF49076314628465A
:10EA5000FDF7CAF960B131462846FDF7CAF9012031
:10EA6000E860606920B1D5F84C152046FFF71FFE1D
:10EA70004FF4AC7631462846FDF7B6F900280ED0A3
:10EA800031462846FDF7B5F96069002807D0D5F86A
:10EA90004C1504B02046BDE8F041FFF708BEBDE8C4
:10EAA000FF810870000A48700220704710B5094CB9
:10EAB000002207496078F9F78DF8002806D16079BF
:10EAC000BDE8104000220449F9F784B810BD0000E9
:10EAD000698B020050400020E1860200F8B505462F
:10EAE00080B2FBF747FA040013D0154E207A0027B6
:10EAF000317B88420ED2A8B204F10A0175DF28B139
:10EB0000112806D0BDE8F840FFF740B9207A401C34
:10EB10002072F8BD2772307C38B1A8B23B2176DF75
:10EB200018B1082801D0FFF731F971690029F0D038
:10EB30008DF80070ADF8025068468847F8BD0000B7
:10EB4000644B0020417939B190F82E1421B990F826
:10EB5000300408B101207047002070470146014889
:10EB6000FBF721BF804B002030B40446007A002818
:10EB70000AD06088002166DF28B1112802D06168C0
:10EB800030BC08470120207230BC70472DE9FC41A1
:10EB90001646DDE90854CDE900541F46804602229E
:10EBA00000F00CF8002807D1CDE900543B461022B4
:10EBB0003146404600F002F8BDE8FC812DE9FC5FDB
:10EBC0000026DDE90C4B994692468E468046278802
:10EBD000354630E0D8F80400002200EB8500694695
:10EBE0000068019001A864DF002830D19DF8000082
:10EBF00050451FD10EB1002100E0022122880844B7
:10EC00001118594522D846B9521C90B2208009F8F3
:10EC100000E02088401C20800126218801A801EB0B
:10EC20000902694664DF002811D120889DF8001090
:10EC3000084420806D1CB8F80000A842CADC56B118
:10EC40002088C01B401E80B2FF2802D90C20BDE8DE
:10EC5000FC9F09F807000020F9E710B5042817D237
:10EC600009B1032400E00024F9F7E8FC4FF0A041CB
:10EC700001EB8000D0F8001721F44031C0F80017F4
:10EC8000D0F8001741EA0441C0F80017002010BD79
:10EC9000062010BD7CB50446002000900190A078AD
:10ECA0008DF80200617A2348FEF7F3F848B3024674
:10ECB000A178237A6846FEF74BF89DF802000125FB
:10ECC000012808D0062806D0072802D008280BD132
:10ECD00004E0142006E0ADF8005005E001988088BB
:10ECE00009308008ADF800002088221D6946FDF734
:10ECF00067FF40B1072805D00F49112808D08628A2
:10ED00000FD003207CBDA17A21F00301A1727CBD4C
:10ED1000A07A20F0010040F00200A0720D700020E7
:10ED20007CBDA27A22F0020242F00102A2720D70B2
:10ED30007CBD0000D44E00207840002038B5054648
:10ED40000C46002001E00098401C009069462846CF
:10ED500000F00EF800280AD08178A142F3D1817A20
:10ED60008A07F0D4C907EED141680029EBD138BD3C
:10ED700010B50A4B0A680CE002EB420433F8244059
:10ED8000844205D102EB420003EB80000A6010BD13
:10ED9000521C042AF0D3002010BD0000E44E0020D5
:10EDA0004FF6FF710180FF2181704172817A21F05D
:10EDB00003018172002101724160704770B5054600
:10EDC000002406E0687A2044C1B20648FEF775F8D0
:10EDD000641C287AA042F5D82846BDE87040FFF7A9
:10EDE000DFBF0000D44E00202DE9FC47064639481D
:10EDF0009846144600780D464FF0000978B37DB36D
:10EE00002888A0F57F41FF3933D0688848B3686807
:10EE1000FBF75CF980B384B32088ADF80000678805
:10EE200001A8FEF7C9F9040034D084F800804FF03F
:10EE3000000A84F816A0BDF80000A082686820616E
:10EE4000244801210C38FBF7C3FDE06028882081AD
:10EE50006888A080E780B8F1030F23D026E001E0A6
:10EE600004E006E048F20160BDE8FC8748F2046077
:10EE7000FAE748F20360F7E700E002E048F20260D8
:10EE8000F2E72889694687B2384600F0AFF80028D3
:10EE9000EAD1C5E7BDF80010384600F09BF848F20B
:10EEA0000760E1E70420A0753068A061A4F80A902B
:10EEB00001A8FEF78FF946B1C6F804A0E16806483C
:10EEC000316086F80AA000893081FEF7A7FA002099
:10EED000CAE70000D0400020805000202DE9F84310
:10EEE0000D46898A384A01EB810102EB810638B16F
:10EEF00029463046FDF79EFC4FF40640BDE8F883F6
:10EF000031897068002400EB81072F48A97DA8385B
:10EF100048F20D6807294FD2DFE801F00D2E1725C2
:10EF200004414B004460A969016027482749A8387B
:10EF3000FEF75EFB30B10220A875042339462A1D76
:10EF4000009424E048F20960D8E728692A4608B10D
:10EF5000032000E001209075042305F10C0207F165
:10EF60000801009413E00120A8750094E88807F1D7
:10EF70000C0183002A690AE028782A4603280CD06D
:10EF800006209075042305F10802391D00941048ED
:10EF9000FCF794FBB0B1444610E00520F1E70621F0
:10EFA000A9750A4940680988FEF7A0FB040005D14D
:10EFB00008E041F61D5401E048F20E64294630464F
:10EFC000FDF738FC204699E758500020B04000205B
:10EFD0005C41002001EB8102034901EB82014A8977
:10EFE000101AC01E488170475850002070B5C01CD0
:10EFF00082B240F2FE30824202D948F2086070BD0F
:10F00000114B00204FF4806500EB800413F824605E
:10F0100096B903EB84063489768914443444A4B247
:10F02000AC4209D8088000EB800003EB80004189E6
:10F0300011444181002070BD401C80B20228E3D3FE
:10F0400048F2066070BD000058500020344A00208D
:10F05000944900200400000020000000010000008E
:10F0600060FE010070410020000000000000000070
:10F070000738FDD87047000012345600000002F136
:10F080001146971B30424C452044657669636520E4
:10F090003436313146310000050000000C0000001C
:10F0A00005000000070000000000000000E0D7019C
:10F0B0000D0E0F1001000000000000000000000015
:10F0C0000000000000000000000000000000000040
:10F0D0000000000000000000000000000000000030
:10F0E0000000000000000000000000000000000020
:10F0F0000000000000000000000000000000000010
:10F1000000000000000000000000000000000000FF
:10F1100000000000000000000000000000000000EF
:10F1200000000000000000000000000000000000DF
:10F13000770A000000000000770A000000000000CD
:10F140007ADA00000000000000000000459502008F
:10F1500000000000000000000000000071950200A7
:10F16000FB349B5F80000080001000000000000066
:10F17000FB349B5F80000080001000000000000056
:10F1800000000050E5BE02007DC102000100FFFF4B
:10F19000010000000000000002000000000000006C
:10F1A000010009000000000007000000000000004E
:10F1B0000000000000000000000000000600000049
:10F1C000000000000000000000000000000000003F
:10F1D000100000000000000000000000000000001F
:10F1E000000000001100000000000000000000000E
:10F1F000000000000000000001000000010001000C
:10F20000F8F10200010001000CF202000000000011
:10F21000F5CE0200D99802000DC9020007000000D7
:10F2200000000000000000000000000000000000DE
:10F23000F9CE020015E10200D99A020015990200E8
:10F2400081E1020001000000000000000000000059
:10F2500000000000000000000700000000000000A7
:10F260000000000000000000000000000600000098
:10F27000000000000000000000000000000000008E
:10F28000030000000000000000000000000000007B
:10F290000000000005000000000000000000000069
:10F2A000000000000000000012000000000000004C
:10F2B000000000000000000000000000E00000006E
:10F2C000D1D00200A04F00200000FFFFDEC0ADDE65
:10F2D000FF011EF1DEC0ADDEFE011EF190500020E8
:10F2E0000010000004000000010000004051002058
:10F2F000010006000000000008410020B189020062
:10F30000FFFFFFFFFFFFFFFFFFFFFFFFFFFFFFFF0D
:10F3100000000000000000000000D601060100000F
:10F320000738FDD870470000000000000000000012
:10F3300038F402003CF4020000000000000000006D
:10F3400028F3020040F3020004000000A4F40200CD
:10F35000ACF40200000000000000000000100200F9
:10F360004CF302005CF302000800000084F302008A
:10F3700094F302000800000094F30200A4F30200DA
:10F3800008000000CCF40200DCF4020000000000E1
:10F3900000000000BCF40200CCF4020000000000F9
:10F3A000000000003CF4020044F4020044F40200B7
:10F3B00084F4020084F402009CF402009CF4020035
:10F3C000A4F40200C8390020A4F30200C4F3020030
:10F3D00008000000ACF40200BCF4020000000000D1
:10F3E00000000000D4F30200E4F302000800000073
:10F3F000DCF40200C8390020A807000034650200D0
:10F4000054F5020070410020701C00005469020095
:10F4100004400020FC3F0020044000204C4A002013
:10F4200018000000404A0020F83F002001000000C2
:10F43000020000000100000025E00200F17F020050
:10F440000000000019AB0200C8430020697D0200E3
:10F45000EC39002091B30200E4430020D1AD02005A
:10F46000BC3F0020057802006C440020857E02002D
:10F4700000000000F57E020000000000098102008B
:10F48000000000001D820200B04300202985020018
:10F49000D03F00206BAE0200604400204D7E020091
:10F4A00000000000E1B5020000000000EDE30200F2
:10F4B0000000000019B602000000000075BB020049
:10F4C00000000000E9BC020000000000F1DA0200C8
:10F4D00000000000F9B50200000000001401011452
:10F4E00023FFFF94F0FF015D324F4B200103FF36F5
:10F4F0003401FF01CF03FFFFFF01FF01FF71320164
:10F5000013EC3F15204CF0021424F4021A100401ED
:10F51000141AF0244123FFFF130C40132002026150
:10F5200004CBEDCE8CDAF11001181A1801C90901CB
:10F530004F15100140110222041220BA4008011C8C
:10F540007C90D003E81A94E813E0037BFFFF1311CB
:04F550002AEB14711D
:040000050002620192
:00000001FF
