:020000040002F8
:10600000C88A0020C1630200C9630200CB6302009A
:10601000CD630200CF630200D163020000000000E4
:10602000000000000000000000000000D363020038
:10603000D563020000000000D7630200D9630200AC
:10604000CD670200DB630200796C0200DB630200B3
:10605000DB630200DB63020029670200DB630200EE
:10606000DB630200DB630200DB630200DB63020030
:10607000DB630200DB630200DB630200DB63020020
:10608000DB63020025680200DB630200DB630200C1
:10609000DB630200DB6302009D690200DB63020038
:1060A000DB630200DB630200DB630200DB630200F0
:1060B000DB630200DB630200000000000000000060
:1060C000DB630200DB630200DB630200DB630200D0
:1060D00035680200DB630200DB63020000000000A1
:1060E00000000000000000000000000000000000B0
:1060F00000000000000000000000000000000000A0
:10610000000000000000000000000000000000008F
:10611000000000000000000000000000000000007F
:10612000000000000000000000000000000000006F
:10613000000000000000000000000000000000005F
:10614000000000000000000000000000000000004F
:10615000000000000000000000000000000000003F
:10616000000000000000000000000000000000002F
:10617000000000000000000000000000000000001F
:10618000000000000000000000000000000000000F
:1061900000000000000000000000000000000000FF
:1061A00000000000000000000000000000000000EF
:1061B00000000000000000000000000000000000DF
:1061C00000000000000000000000000000000000CF
:1061D00000000000000000000000000000000000BF
:1061E00000000000000000000000000000000000AF
:1061F000000000000000000000000000000000009F
:10620000DFF80CD000F044FA0048004771B20200F9
:10621000C88A002030B450E8012F93B2C4892344C7
:106220008489A34228BF1B1B0489A34202BFBFF37A
:106230002F8F002007E0C3EA020340E80134002C5E
:10624000E9D14FF001000A6030BC704750E8012FDF
:10625000C2EA024240E801210029F7D1704730B478
:1062600050E8022F1FFAA2F3C488A34202BFBFF373
:106270002F8F00200DE0C48923448489A34228BFC6
:106280001B1BC2EA034340E80234002CE8D14FF064
:1062900001000A6030BC704750E8022FC2EA224277
:1062A00040E802210029F7D17047034653E8022F46
:1062B000D988B2EB324F4FF0000017BF92B241EADB
:1062C000014142EA014104E05A68B2EB324F08BF93
:1062D000012043E80212002AE8D1704730B4044696
:1062E00054E8000F0D4644E80053002BF8D1156028
:1062F00030BC704730B4044654E8000F40EA010552
:1063000044E80053002BF7D1156030BC704730B41F
:10631000044654E8000F00EA010544E80053002B4E
:10632000F7D1156030BC704730B4044654E8000F14
:1063300080EA010544E80053002BF7D1156030BC1A
:10634000704730B4044654E8000F00EB010544E800
:106350000053002BF7D1156030BC704730B40446B1
:1063600054E8000FA0EB010544E80053002BF7D1DF
:10637000156030BC704770B404464FF0000054E81C
:10638000006F0D68AE4207BF44E80023012044E8D7
:1063900000630E60002B1CBF0020F0E770BC70474C
:1063A00030B4044654E8000F88422CBF451A054615
:1063B00044E80053002BF5D1156030BC7047000055
:1063C0000648804706480047FEE7FEE7FEE7FEE78F
:1063D000FEE7FEE7FEE7FEE7FEE7FEE7A169020053
:1063E00001620200202A04DB203A00FA02F10020B8
:1063F00070479140C2F1200320FA03F31943904003
:106400007047000000487047B41B03002DE9FE43AD
:10641000994615468846074601AC022942D3002D0D
:1064200040D000200290A8F101004FF0FF3600900C
:1064300022E000FB057201FB057011464A469047B9
:10644000002805DC54F82600304444F8260013E008
:1064500060682A4600FB057154F8040C00FB0570C7
:1064600007E00B7890F800C001F801CB00F8013B81
:10647000521E002AF5D1764254F8040C6168884215
:10648000D7DC4B462A463846FFF7C0FF54F8040CC9
:106490004B46A8EB0001401C00FB05702A46491E34
:1064A000FFF7B4FFBDE8FE8310B5431A934209D24B
:1064B0008318881803E010F8011D03F8011D521E0F
:1064C000F9D210BD40EA01039B0703D009E008C9D7
:1064D000121F08C0042AFAD203E011F8013B00F8A9
:1064E000013B521EF9D210BDD2B201E000F8012BDF
:1064F000491EFBD270470022F6E710B513460A4644
:1065000004461946FFF7F0FF204610BD421C10F864
:10651000011B0029FBD1801A704710B5002200E052
:10652000521C835C8C5CA34201D1002BF8D1D8B201
:10653000E1B2401A10BD30B504460020034600E029
:106540005B1C934203D2E05CCD5C401BF8D030BDB5
:10655000034611F8012B00F8012B002AF9D1184647
:10656000704730B505460020034600E05B1C9342AF
:1065700005D2EC5CC85C201A01D1002CF6D130BDEC
:106580002DE9F04791460F4680460446002614F850
:10659000015B2DB1FFF736FF0068405DC007F6D103
:1065A0002B2D02D02D2D18D0641E4A463946204688
:1065B00000F01EF827B13968A14201D1C7F8008068
:1065C00071054FF002040BD54042002803DD00F0B6
:1065D000E7FB0460A007BDE8F08746F48066E4E7C7
:1065E0000028F8DA00F0DCFB04606FF00040F2E70E
:1065F0002DE9F05F82460078002715468B460AF1A8
:106600000104B946302801D09DB113E014F8010B04
:106610000127782803D0582801D045B10AE00DB1F0
:10662000102D07D10027102514F8010B02E00825D2
:1066300000E00A250026B0460EE005FB080005FB39
:1066400006F1012701EB10461FFA80F8B6F5803FEE
:1066500000D3B94614F8010B294600F02BF80028A6
:10666000EBDABBF1000F05D00FB1641E00E0544619
:10667000CBF80040B9F1000F06D000F091FB0221E9
:106680000160C81EBDE8F09F48EA0640FAE7000036
:10669000064C074D06E0E06840F0010394E807006F
:1066A00098471034AC42F6D3FFF7AEFD48310300F3
:1066B000683103003A2800D2303820F02002412A05
:1066C00001D3A2F13700884201D34FF0FF30704769
:1066D00070B58C1810F8015B15F0070301D110F8A4
:1066E000013B2A1106D110F8012B03E010F8016BD1
:1066F00001F8016B5B1EF9D12B0705D40023521E54
:106700000DD401F8013BFAE710F8013BCB1A921CBB
:1067100003E013F8015B01F8015B521EF9D5A142B9
:10672000D8D3002070BD00002DE9F8430025DFF824
:1067300094804FF4807601242F460095304606F071
:1067400081FF38B1D8F80403204203D0304606F068
:106750006FFF2543361D64007F1CB6B2082FEDD3B2
:106760004FF4BE74204606F06DFF48B1204606F097
:106770005FFF45F000456A460121002006F028FF32
:1067800015F0FF0F16D0012600242E420ED008EB84
:106790008401D1F81005D1F81015C0F304200A4A7D
:1067A000C1F3014152F8242002B190477600641CE5
:1067B000082CEAD3002D02DA684609F063FABDE836
:1067C000F8830000006000405845002070B54FF489
:1067D0008076304606F0CAFC114CB50560B13046F3
:1067E00006F0CBFC0120C5F80803607920B9012030
:1067F00060712168002088474FF48276304606F0A9
:10680000B5FC00280AD0304606F0B7FC0220C5F8D7
:1068100008032168BDE870400120084770BD0000F2
:10682000A039002002490248091F0968006808478A
:10683000343A002004220021014804F09BB90000F2
:1068400000400240044900EB400001EBC000416DF4
:10685000806D081A704700003C68002000F012BAF2
:10686000F8B5064600208DF8000014460D4668462F
:1068700000F0A6FE22462946304600F007F80446FE
:106880009DF8000000F0C0FE2046F8BD2DE9F0475D
:106890001B4D0746164628780C4608B900F0F2F959
:1068A00007EB470005EBC007A046D7E91595002484
:1068B00048374D4511D9B868441BB44200D334461B
:1068C0007868224641194046FFF7EEFDB868361B4E
:1068D0002544A044A84200D10025A9EB0500B04200
:1068E00000D206463EB17868324641194046FFF76D
:1068F000DBFD3444354404B13D612046BDE8F087FA
:106900003C680020F8B50D4B0646144618780D4635
:1069100008B900F0B7F900208DF80000684600F0D3
:106920004FFE22462946304600F00AF804469DF8FC
:10693000000000F069FE2046F8BD00003C68002021
:1069400070B50E46144900EB400001EBC00514463B
:10695000E86A183520B101280FD0022805D113E0CC
:10696000284600F0C3F9A04201D2002411E02246DB
:106970003146284600F0F2F90BE0284600F0B6F95F
:10698000A042F4D20446F2E73146284600F0B9F9B5
:106990000446204670BD00003C68002007F05EBF42
:1069A000F0B5A449A4484FF080540B68D4F83021C6
:1069B0000078D4F83411551CC0F3031006D0944667
:1069C00001270026BCF1060F03D00AE003F0FF0CFC
:1069D000F6E7B4F82453DFF864C2C5F30425CCF815
:1069E0000050DDB2062D06D1032804D1DFF854C2D1
:1069F000934DCCF87450551C04D09446BCF1060F4E
:106A000003D00AE003F0FF0CF8E7D4F84452DFF8B3
:106A100038C2C5F34235CCF80050DDB2062D08D19E
:106A2000032806D1894DD5F800C02CF0807CC5F82C
:106A300000C0551C04D09446BCF1060F03D00BE0F7
:106A400003F0FF0CF8E74FF08045C5F80C61C5F87E
:106A500010617D4D2D1F2E60DDB2062D08D103285B
:106A600006D1DFF8E4C103250CF1640CCCF800502A
:106A7000DDB2062D10D103280ED1DFF8D4C10525D3
:106A8000CCF80050724D78352F60714D08352E606E
:106A90000CF104063F253560551C04D016460D4602
:106AA000062E03D05BE0DEB20546F9E7ED1E012DB0
:106AB00055D9684D2D68684E3560664D2D1D2D6881
:106AC000361D3560634D08352D68361D3560614DC6
:106AD0000C352D68361D35605E4D10352D68361D20
:106AE00035605C4D14352D68361D3560594D1835AF
:106AF0002D68594E20363560564D1C352D68361D93
:106B00003560544D20352D68361D3560514D243586
:106B10002D68361D35604F4D28352D68361D356082
:106B20004C4D2C352D68361D35604A4D30352D685D
:106B3000494E40363560474D34352D68361D356039
:106B4000444D38352D68361D3560424D3C352D6835
:106B5000361D35603F4D40352D68361D3560551C5E
:106B600003D01646062E02D007E0DEB2FAE7D4F8CC
:106B700058523A4E05F04F053560551C03D0134668
:106B8000062B02D008E0DBB2FAE735480368DB07E2
:106B900002D06FF001030360062A07D1C91E022943
:106BA00004D93048016841F4806101602748743895
:106BB000016841F470010160BFF34F8FBFF36F8F25
:106BC000D4E94C104FF01022062907D1C01E03282B
:106BD00004D9D2F808021C491C310860D2F800021E
:106BE000002803DBD2F8040200281FDA012008F095
:106BF0007DFC1521C2F800121B480368002BFCD055
:106C0000C2F8041201680029FCD0002008F06EFCD4
:106C1000BFF34F8F0D48F0380168144A01F4E0616A
:106C200011430160BFF34F8F00BFFDE711491048CA
:106C30000860F0BDE00F00F0E80F00F040350140C3
:106C40000DF0ADBA00C007403C050040FCED00E08F
:106C5000105600400404001020C50040E40E00401F
:106C6000000400403C17004000E401400400FA0525
:106C70000090D003EC3A0020014800680047000073
:106C8000A839002010B5124C02202061606111A0CB
:106C9000A06104F17800E0614FF4007020620020F0
:106CA000A06260620BA1A164E06204F51E71E16460
:106CB0001021A065C4E91410E06509A1E01DFFF7EB
:106CC00047FC08A12046FFF743FC2020A07110BD1F
:106CD0003C6800205465726D696E616C00000000B4
:106CE0005254540053454747455200000269C16859
:106CF0008A4203D88068401A104400E0501A401EAF
:106D000070472DE9F047C4681746894606464FF09C
:106D100000083069A04201D9051B02E0B168201AC1
:106D20000D1AB0686D1E001BA84200D80546BD4272
:106D300000D33D4670682A4620444946FFF7B4FB1D
:106D4000B0687F1B2C44A844A944A04200D1002471
:106D5000F460002FDDD14046BDE8F0872DE9F04119
:106D600004468846D4E90207C51BE16860681646F8
:106D70000844B54206D94146FFF796FBB819E060D2
:106D8000BDE8F0812A464146FFF78EFB761B08EBF3
:106D9000050132466068FFF787FBE660F0E7000018
:106DA00000487047F03A002002E008C8121F08C1EE
:106DB000002AFAD170477047002001E001C1121F7C
:106DC000002AFBD1704700000121202803DA81400E
:106DD0000548014003E0402802DA2038814009B12B
:106DE0000120704700207047FC06FFBD0F4810B51A
:106DF0004088032809D30E480E49401AC0080321D1
:106E000001EB00400CA106F083FE002001F014F815
:106E10000F4C207874DF0121207873DF002803D025
:106E2000BDE8104000F060BB10BD0000983B0020A2
:106E3000E0320300E03103005374617274696E67DD
:106E4000206164766572746973696E672E00000054
:106E5000683200202DE9F0410C460A7839493A4B56
:106E6000374FC91A0546C9087888032303EB014642
:106E700072B1012A23D0022A5FD1032804D33046FD
:106E800032A1626806F048FEBDE8F04109F0F2BCAC
:106E9000032803D3304637A106F03AFE6188221D4D
:106EA000284604F027FE08B100F01EFB284604F037
:106EB0005FFE002841D0BDE8F04100F015BB354D24
:106EC000A0684FF0000818B9C5F80C80C5F810800C
:106ED000A088E9680844E860B0F5806F14D9022002
:106EE00000F090FFE868A0F58060E8602A69521C15
:106EF0002A617888032803D3304627A106F00CFEC8
:106F00002A48E16804F0CCFFE068B0F5801F14D394
:106F1000022000F089FFC5F80C80C5F81080788841
:106F2000032804D3304622A1E26806F0F5FDE168AB
:106F3000BDE8F0411D4804F0B3BFBDE8F08100009A
:106F4000983B0020E0320300E03103005065657299
:106F500020726563656976656420257520627974A1
:106F60006573206F6620415454207061796C6F61A5
:106F7000642E0000414D542073657276696365206C
:106F8000646973636F7665726564206174207065EF
:106F900065722E006832002052656365697665640B
:106FA000202575206B62797465730000783E00209F
:106FB0005472616E7366657220636F6D706C657478
:106FC000652C20726563656976656420257520628D
:106FD00079746573206F6620415454207061796C18
:106FE0006F61642E000000002DE9F0410F4610F0A3
:106FF000FF0381488149DFF80882A1EB00004FEAD6
:10700000D0012DED028B4FF00105B8F802004FF0D2
:10701000030282B005EB014602EB014452D0012B82
:1070200072D0022B71D0032B7AD102F059FB0220CF
:1070300000F0FAFE032000F0FFFE02F025FB0546FB
:1070400000EE105AF900B8EE400ADFED6E0AB8F80B
:10705000020080EE201A00EE101A0328F8EE401A03
:1070600081EE810A80EE208A7DD3204666A106F05B
:107070004FFDB8F802000328F6D3204664A106F0BD
:1070800047FDB8F802000328EED34FF47A70B5FB41
:10709000F0F1B5FBF0F200FB1153204664A106F0BD
:1070A00042FDB8F8020045460328DDD3B5EEC08A9C
:1070B000F1EE10FABDEEC80AB8EEC00A52DD38EEA5
:1070C000400A53E04746032803D3204660A106F058
:1070D0001FFD012000F0B0FE6348057141780129D1
:1070E0001ED100F114014988062918D000F11C02B4
:1070F000118051801146408975DF020010D07888D8
:1071000000280DD0304602E00FE01CE008E002B09D
:1071100056A1BDEC028BBDE8F04106F0FDBC057246
:1071200002B0BDEC028BBDE8F081032803D32046FA
:107130005AA106F0EDFC02B00120BDEC028BBDE8C7
:10714000F04100F071BE032804D3BA0A204659A1C9
:1071500006F0E2FC02B00220BDEC028BBDE8F0417B
:1071600000F050BE00E034E030EE480ADFED550A92
:10717000B5EEC08A20EE200ABDEEC00AF1EE10FA8C
:107180008DED000A06D218EE100A10F1814F01D2DF
:107190004DA200E040A2BDEEC80A20464BA110EE71
:1071A000103A06F0C8FC6888032812D3204618A1BC
:1071B00006F0AEFC688803280BD33A4620464AA165
:1071C00006F0AAFC6888032803D320464EA106F0E7
:1071D0009FFC5A4804F09DFD0200A1D0B8F80200BF
:1071E00018B1304656A106F097FC02B0BDEC028BF8
:1071F000BDE8F04109F03EBBE0310300E03203009E
:10720000983B002000007A44446F6E652E00000019
:107210003D3D3D3D3D3D3D3D3D3D3D3D3D3D3D3D9E
:107220003D3D3D3D3D3D3D3D3D3D3D3D3D00000045
:1072300054696D653A2025752E252E3275207365AB
:10724000636F6E647320656C61707365642E0000FB
:107250004E6F74696669636174696F6E7320656EE1
:1072600061626C65642E00006832002073645F62A6
:107270006C655F6761705F636F6E6E5F7061726196
:107280006D5F7570646174652829206661696C653D
:10729000643A20307825782E000000004E6F746923
:1072A0006669636174696F6E732064697361626C8F
:1072B00065642E0053656E74202575204B427974E9
:1072C000657300000000C8422D0000005468726F12
:1072D0007567687075743A20257325642E253032E1
:1072E00064204B6270732E0053656E7420257520E8
:1072F0006279746573206F662041545420706179FF
:107300006C6F61642E000000526574726965766965
:107310006E6720616D6F756E74206F662062797480
:1073200065732072656365697665642066726F6D4A
:1073300020706565722E2E2E00000000603E002039
:107340006E72665F626C655F616D74635F726362CB
:107350005F726561642829206661696C65643A2002
:10736000307825782E00000038B500240E4D05E059
:10737000686810F8340007F089FB641C28788442A0
:10738000F6D300208DF80000684600F019F90020BF
:10739000C5E904009DF8000000F036F90348406894
:1073A000BDE8384000F005B9B8390020F8140300F2
:1073B00070B50024064D06E06868012110F834001D
:1073C00007F088FB641C28788442F5D3002070BD48
:1073D000B8390020F8B516460C4605460A2A01D2EF
:1073E0000720F8BD07F070FC18B907F033FC00283F
:1073F000F7D1134F102113487D603C70BE60FFF73A
:107400007AF80020C7E904000F4E0DE005EBC40038
:107410003168009181788DF8011000780B4A694637
:1074200007F0A8FB0028DCD1641EE4B2EED2BDE870
:10743000F84005480021064A001D00F067B800002A
:10744000B839002004460020F8140300A5A5020066
:10745000519D020072B606F08DFC00BF06F01AFACC
:107460000028FBD1144D154915486A88081AC4082C
:107470002AB1012000EB044012A106F049FB144898
:107480000068C00700D000BE6888022805D302202B
:1074900000EB04400FA106F03BFBBFF34F8F0C48FD
:1074A000E43801680F4A01F4E06111430160BFF361
:1074B0004F8F00BFFDE70000983B0020E032030043
:1074C000E0310300466174616C206572726F720076
:1074D000F0ED00E053797374656D20726573657427
:1074E000000000000400FA050EB500210091CDE96E
:1074F00001106A4644F20100FFF7ACFF0EBD000028
:10750000014802F064BD0000003A00203AB1006872
:107510000129426100D0002101610020704707204D
:107520007047000038B5114808235822416800917F
:107530000F49006804F0ADF9002815D10D4A6946DD
:107540000D4802F049FD04000ED101210A4802F065
:10755000C8FD0123094A1946074802F010FD0649F3
:10756000012008390870204638BD000000150300CE
:10757000144600202D010300003A0020FFFF7F0089
:1075800070B5044690F820000D4608B1002070BD8B
:10759000A26102F0EDFF401941F10001C4E90201CE
:1075A000206900B125612146BDE87040002009F046
:1075B00059BA0146002081F82000012009F052BA92
:1075C00030B5EFF3108172B60D4A9468012324B1EF
:1075D0000370002900D162B630BD93604FF0E02304
:1075E000D3F88051074C25401560C3F88041D3F88B
:1075F000844154605A17C3F8842100220270E8E7DE
:107600006C460020FC06FFBD0B498A68002A11D099
:1076100000280FD1EFF3108072B60B684FF0E02214
:10762000C2F800314B68C2F8043100228A60002899
:1076300000D162B6704700006C4600202DE9F04191
:10764000064608680C46411C4FF0A0474FF0010564
:1076500006D005FA00F1C7F80815206805F092FF7A
:107660006068411C02D0002105F07AFF3168A069F2
:10767000C1F82405607D227D31681043C1F86C0596
:10768000D4E900123068C0F81425C0F80C15207D2C
:10769000012815D1A068411C02D0002105F060FF2F
:1076A000E068411C05D08540C7F80855E06805F042
:1076B00069FFD4E902123068C0F80825C0F8101537
:1076C000BDE8F0812DE9F041064608680C46411CF2
:1076D0004FF0A0474FF0010506D005FA00F1C7F8BA
:1076E0000815206805F058FF6068411C02D0002191
:1076F00005F03FFF3168A069C1F82405607D217D58
:1077000032680843C2F86C05D4E900123068C0F84A
:107710000C15C0F81425207D012815D1A068411C46
:1077200002D0002105F025FFE068411C05D085400E
:10773000C7F80855E06805F02FFFD4E90212306859
:10774000C0F80825C0F81015BDE8F08138B501294A
:1077500005D08368D3F84831C3F340032BB1BDE8AB
:1077600038400022114605F0E1BA022907D011A1E4
:107770000091136815A2022105F0B0FA38BD054644
:1077800050680A220021FEF7FBFE84B2A4F1170024
:10779000E12803D323460FA2022105E0204602F090
:1077A00097FE234611A2082101B02846BDE83040CB
:1077B00005F094BA2077726F6E6720706172616D08
:1077C00065746572206C69737400000025733A2536
:1077D000730A0000496E76616C6964207365747485
:1077E000696E673A2025642E0A0000004154542037
:1077F0004D54552073697A652073657420746F2029
:1078000025642062797465732E0A0000F0B50022A9
:107810000D4BCA60C1E901230C4B0D4D1446EE1A05
:107820000A600CE003EB0215EF683F79FF2F05D0EB
:10783000A04202D1A8680860F0BD641C521CB2EBE3
:10784000161FEFD3F0BD000028190300B03103006C
:10785000E03103002DE9FC47002517880646158016
:1078600090F82D001446894630B13A4621464846E4
:1078700000F06AF9051E09D1B0784FF00C0A18B370
:107880002088C846001DB84202D95046BDE8FC8792
:10789000684679DF0028F9D12088032108F8001014
:1078A00020881921401C80B2208008F80010208810
:1078B000401C80B2208000EB0801BDF8000009F0F8
:1078C0001EFB218808442080F0780222C8B121885C
:1078D00096F9033001F1030C4846BC45D5D8425413
:1078E00021884FF0010C491C89B2218000F801C0A9
:1078F0002188491C89B2218009F801302088401C68
:1079000020807068B8B1218890F9003001F1030C33
:107910004846BC45B9D8425421880A22491C89B23C
:10792000218042542188491C89B2218009F8013004
:107930002088401C2080308950B1CDE900474B465B
:107940000622022106F1080009F064FB051E9DD104
:10795000308A50B1CDE900474B460722032106F19A
:10796000100009F057FB051E90D1308B50B1CDE9C6
:1079700000474B461522142106F1180009F04AFB76
:10798000051E83D1306A30B13B462246494601F09C
:107990000EFE051EDBD1706A30B13B4622464946D9
:1079A00003F051FE051ED2D196F82C0038B13B46AB
:1079B00022464946304608F0D5FD051EC7D130782D
:1079C00038B13B4622464946304603F00FFF051EBC
:1079D000BDD128465AE7F8B506464FF0000015001D
:1079E000ADF8000015D009236A46304600F015F8BE
:1079F0000446BDF80000064458B154B12846FEF7CD
:107A000085FDA04205D1224631462846FEF793FD6A
:107A100008B10020F8BD0120F8BD70B5E0B1DAB1C1
:107A2000002402E0045D2C44A4B2651C8D4206D201
:107A30001688A642F6D8061976789E42F2D18C4274
:107A40000AD2A31C005D9BB200B1401E0004000CD2
:107A500002D01C188C4201D9002070BD138070BD6B
:107A600070B540B10C4D297839B1044608F0B6FA2A
:107A700028B1002070BD0E2070BD082070BDE868E0
:107A8000062807D20549226801EB8001401C0A60E4
:107A9000E860EEE7042070BD843900202C4500200A
:107AA00010B558B103684BB142683AB1044900209F
:107AB0000124C8600C70C1E9013210BD0E2010BD58
:107AC00084390020002827D0002925D0134A1278B5
:107AD000002A21D00A460188112911D0302907D067
:107AE000322909D0332917D1011D104607F0A4BE51
:107AF000011D104607F068BF011D104607F09ABD32
:107B00008088B2F8CA12884206D1002082F8C802E2
:107B10004FF6FF70A2F8CA027047000084390020B7
:107B200048B1084A137843B1D26832B190F8C822FC
:107B30002AB1112070470E2070470820704702F0CC
:107B4000C5B90000843900207CB5054608880C467C
:107B50000930904201D90C207CBD68466DDF0028B9
:107B6000FAD121880820685420881B21401C80B24B
:107B7000208029542088401C80B220802844DDF8D1
:107B800001100160BDF8051081802088801D80B241
:107B900020809DF80010490800D001212954208838
:107BA000401C208000207CBD2DE9FC41464B474D08
:107BB000444E5B1B4FEAD30C0323018803EB0C45B7
:107BC000041D3F4A01277388212973D01CDC10292A
:107BD0002BD011292ED012293FD01F2912D1D4E940
:107BE0000101CDE900012088694675DF08B1FFF782
:107BF0007BFC7088032805D3E388A288284634A13B
:107C000005F091FFBDE8FC81222934D03B2903D047
:107C100052292AD05629F5D11321508976DF002820
:107C2000F0D0BDE8FC41FFF75FBC2046BDE8FC4159
:107C300007F068BC4FF6FF705081D07838B1022B46
:107C400005D3022000EB0C402FA105F061FF00F0EE
:107C5000FBF8BDE8FC4108F00DBE1772032BD1D331
:107C6000E388A288284637A11CE0002320881A4612
:107C70001946B1DFD3E700F10804007A2328C1D008
:107C8000D7716178002061F30700A178032B61F3BD
:107C90000F20B7D307F0BCFF0346207838B134A2D9
:107CA000284636A102B0BDE8F04105F03CBF3BA23A
:107CB000F6E7FFE70249208818318FDFAFE70000C1
:107CC00068320020983B0020E0320300E0310300DE
:107CD000436F6E6E656374696F6E20696E74657252
:107CE00076616C2075706461746564202875706FAE
:107CF0006E2072657175657374293A203078257825
:107D00002C20307825782E00474150206469736319
:107D10006F6E6E656374696F6E206576656E742034
:107D20007265636569766564207768696C6520743F
:107D3000657374207761732072756E6E696E672E3D
:107D400000000000436F6E6E656374696F6E20699A
:107D50006E74657276616C20757064617465643AE6
:107D600020307825782C20307825782E00000000EF
:107D700072656A65637465640000000050485920AC
:107D80007570646174652025732E205048592073E6
:107D9000657420746F2025732E0000006163636595
:107DA0007074656400000000007800F00100704706
:107DB0002DE9FC410646C0074FF000050ED0104FDC
:107DC00000240122385D009500231146019505F03D
:107DD0006DFB641C042CF4D300F036F8B0070DD50D
:107DE000074E0024361D0022305D03230095114606
:107DF000019505F05BFB641C042CF4D3BDE8FC8109
:107E00003814030007490B5C4FF0A041D1F804255A
:107E10000120984020EA0203C1F808351040C1F85B
:107E20000C057047381403000249085C012105F075
:107E3000F4BB0000381403000249085C002105F07F
:107E4000ECBB00003814030010B500242046FFF7F7
:107E5000EBFF641C042CF9D310BD00002DE9F84F92
:107E60000546C61C00208DF8000091460F464FF0D5
:107E7000010A6846FFF7A4FB1C4C60683860D4E92F
:107E800001011B4F401A3968081A42F21C0104EB29
:107E900001080EE00121404603F046FD03F0F6F82C
:107EA0000146404603F040FDD4E90101401A39681B
:107EB000081A401C8642EDD8B9F1000F03D0052006
:107EC00065F3891002E0062065F39F5061683A6807
:107ED000114004EB8101C8606068304460609DF827
:107EE0000000FFF791FB5046BDE8F88F1C480020CA
:107EF0006C3A002070B50D4604460A2902D10D21C6
:107F0000FFF7F8FFA0682268411CA1601554D4E96E
:107F10000101814204D32046BDE8704005F0CDB98F
:107F200070BD0000044881684068814201D1012091
:107F300070470020704700001C48002038B52049D9
:107F4000204A1E4B891AC908032202EB01421E4C2B
:107F500059880F2802D0102827D10AE0032903D31B
:107F600010461AA105F0D4FD02F0DCFC012060707F
:107F70001BE0032903D310461CA105F0C9FD022014
:107F8000607000208DF800006A464FF6FF712048AF
:107F900003F0DCFF9DF80000FB2802D0FB2001F07D
:107FA000CDFDFEF723FF08F035FAFFF7DDF90028D5
:107FB00003D0BDE83840FFF797BA38BD983B0020A2
:107FC000E0320300E0310300683200205468697336
:107FD00020626F6172642077696C6C206163742029
:107FE0006173207465737465722E00005468697340
:107FF00020626F6172642077696C6C206163742009
:10800000617320726573706F6E6465722E0000007C
:10801000D03D0020034630B507480021047842686F
:1080200006E000BF02EBC10005789D4203D0491C69
:10803000A142F7DB002030BDB839002010B50C009C
:1080400001D006A300E006A306A2082104F046FE24
:108050002046BDE8104001F089BA00006F6E0000B4
:108060006F666600436F6E6E656374696F6E206540
:1080700076656E74206C656E6774682065787465CB
:108080006E73696F6E2025732E0A000005494FF04C
:10809000FF32082841F8202002D3084480F8482005
:1080A0007047000058450020F0B54FF0FF3512B181
:1080B0000023082601E008230C260C4C05E000BF35
:1080C00054F823707F1C04D05B1CB342F8D32846BD
:1080D000F0BD26185DB286F8305044F82310002A0F
:1080E000F5D1E11881F84800F1E70000584500207B
:1080F0000249084490F930007047000058450020BC
:1081000070B5816804468A7F002A4DD0C87F002858
:108110004AD0121A0844D5B200F120016A1C1F305F
:10812000FEF7C2F9A068C17F491EC177A068817FB0
:10813000491E81778DB308221C49206905F0B0F8EB
:10814000204603F02BFB8178C078814211D1A068D2
:1081500017A2C17F431808212046203304F0BEFD3A
:10816000204600F07BFA29462046BDE8704001F029
:10817000A1BB204600F086FA204600F06FFAA06806
:108180000BA2C17F431808212046203304F0A6FD2E
:108190002046BDE8704000F06BBA2069BDE8704031
:1081A000044A03A105F07CB870BD0000888302007A
:1081B00025730000E116030070B504468068827FD5
:1081C000C17F521A12F0FF053AD0084400F1210194
:1081D0002A462030FEF768F9A068817F491E817722
:1081E000204603F0DBFA8178C078814214D1A06880
:1081F00014A2C17F431808212046203304F06EFDED
:10820000114A10A1206905F04BF86D1EE9B2204615
:10821000BDE8704001F04EBB204600F033FA204626
:1082200000F01CFAA06807A2C17F4318082120466D
:10823000203304F053FD2046BDE8704000F018BA2A
:1082400070BD000025730000E51603002DE9F04124
:10825000044680680F46D0F84811C27F11F001062D
:10826000817FA1EB0203DDB20BD07F2901D3002D6A
:108270007ED0A068C17F0844002180F8207066B1DC
:1082800013E07F297CD2002DF3D0831803F1200165
:108290002A46481CFEF708F9EBE7A068827F521CCB
:1082A000D2B28277A068203281544DB3204603F0C9
:1082B00075FA8178C07881420ED1A06831A2C17F61
:1082C000431808212046203304F008FDA81BC1B242
:1082D000204601F0EFFA21E0204600F0D3F9A06833
:1082E00028A2C17F431808212046203304F0F6FC61
:1082F000204600F0BDF90121204601F0B5FB0DE05C
:108300003EB1A068827F521CD2B28277A068203230
:1083100081543A461CA1206904F0C2FFA168C87FBD
:10832000401CC877204601F0B2FA0028204603D04E
:10833000BDE8F04101F0CABA02F04FF800281FD0A2
:10834000204603F02BFA0546C078A978401A401E53
:10835000C1B2204601F03CFA204601F0B7FAE878B5
:10836000A978401AC1B2204601F08AFB287800E0C3
:1083700006E0401EC1B22046BDE8F04101F074BBEA
:10838000BDE8F0812573000025630000F0B5C5B09D
:108390000446408BADF80001216AB1F5801F0BD374
:1083A0000322304662F3070062699047002020767E
:1083B0002062E06145B0F0BD1D4841AD01270FC806
:1083C00085E80F00A088ADF8040140A84390CDF8DF
:1083D00010D16946206A08F097FD208841A9AEDFD8
:1083E0000546132821D065B11248408848B112488B
:1083F00012492A46401AC00807EB004010A105F0B8
:108400008BFBBDF80011206A01442162E069B0EBEA
:10841000912F07D0880AE061022060F307066269A5
:1084200030469047002DD4D0C4E72776C2E700003D
:10843000901103001C3B0020E8310300E0310300F1
:1084400073645F626C655F67617474735F6876788C
:108450002829206661696C65643A203078257800A7
:108460002DE9F0438146887891B090460C4600B9DA
:1084700001208DF83E002088ADF83C0000250095D5
:10848000607C694608F0B2F86E46A07C711C08F06A
:10849000ADF8E07B00289DF8020002D040F0080013
:1084A00001E020F008008DF80200217C11B140F0BD
:1084B000100001E020F010008DF80200217B11B1C6
:1084C00040F0010001E020F001008DF80200217D64
:1084D00009B1022100E0012161F342008DF80200A0
:1084E0001C2102A8FEF707F8607BC10601D48006B4
:1084F00017D50E950EAFE07C791C08F077F89DF843
:108500003800079720F00F00401C20F0F0001030DA
:108510008DF838009DF83A0020F00600801C8DF898
:108520003A00607B8DF80800A07B8DF809001421CB
:1085300009A8FDF7E0FF0FA8CDE90906A088ADF86E
:108540003000A06820B1E088ADF82C00A0680D9044
:10855000A06998B301950088ADF81000A06901AD3D
:1085600001A94088ADF81200A06940680695039003
:10857000A069007B08F03AF8A069691C407B08F00C
:1085800035F8A069807A00289DF8060002D040F0F6
:10859000080001E020F008008DF80600A169C97A02
:1085A00011B140F0100001E020F010008DF806003D
:1085B000A169097A19B140F0010002E00DE020F054
:1085C00001008DF80600A169897B09B1022100E054
:1085D000012161F342008DF80600E06900B10590C9
:1085E000434609AA02A94846AADF11B0BDE8F083B4
:1085F00030B589B00D46044620216846FDF77BFF63
:1086000094F8C602002300EB8001C1EB801094F8BF
:10861000C51204EB400041B1491EC9B201EBC101D2
:1086200000EB4101498A491C00E0C188008961F3DF
:108630000F0360F31F4303208DF800000548CDE9C8
:108640000204054804932A466946806803F0B8FD91
:1086500009B030BD7D9E0200843900200069024AC5
:1086600002A104F01DBE0000D9160300257300000E
:108670000069024A024904F013BE0000D316030049
:108680006C8602000069024A024904F009BE00003B
:10869000D01603006C8602002DE9F04F4FF0000960
:1086A00095B005464F464C4600F0BAFE284602F00B
:1086B000A9F8284601F098F8284601F0E8F810B922
:1086C000284601F003F9AA680C2301A90EA820325C
:1086D00002F00CFF03460E9840B15BB149A20221A3
:1086E000284604F0FBFA15B0BDE8F08F284601F0EB
:1086F000EDF8F8E7494848490026A1EB00080DF1DC
:10870000040A834613E008D345A0009049A2022141
:108710002846019B04F0E2FAE5E70BEBC60460682B
:1087200001685AF82900FDF7F8FE18B1761CB6EB7F
:10873000D80FE8D94FF000000F90A9684860886012
:10874000C86008616168C86828B14AC9AA68C2E9F6
:108750000360C2E90113606809F101044FF00006EB
:10876000D0F808800E98844235D25AF8240033A1FC
:10877000FDF7D3FE40B35AF8240031A1FDF7CDFE3A
:1087800010B310A832460090761C0FAB214640462D
:1087900000F0E2FDFEB10F98E8B101685AF824003C
:1087A000FDF7BBFE0028DDD10F98C16839B190E814
:1087B0004810AA682746C2E903C1C2E9013600266B
:1087C000641CD0F80880CDE7A868D0F8481141F0C3
:1087D0000201C0F84811A868036933B10E980AEB8A
:1087E0008702C11B2846984704E017A202212846A9
:1087F00004F074FAA868D0F8481121F00201C0F81A
:10880000481170E76E6F74207465726D696E6174E3
:1088100065643A2025630A00B03103006831030023
:108820003A20636F6D6D616E64206E6F7420666FA9
:10883000756E6400257325730A0000002D68000022
:108840002D2D68656C700000506C65617365207338
:10885000706563696679206120737562636F6D6D01
:10886000616E642E0A0000008068D0F84801C0F3F1
:10887000C0007047164810B500688AB0C0074FF0B6
:10888000030409D001231A4600211248009404F081
:1088900091FB08B1FEF728FE0E4920227C3101A889
:1088A000FDF702FE062001900820029000208DF8BE
:1088B0001800084801231A4601A91838009404F04A
:1088C00079FB002801D0FEF70FFE0AB010BD0000B2
:1088D000F0ED00E09C1303002DE9F0410446C06870
:1088E0008EB00D46406800263246006801A905F0AA
:1088F00069FB18B100200EB0BDE8F0816DB10198A0
:1089000005F009FBA168D1F83801401CC1F8380115
:1089100000F0070001287AD10126204602F03EFF30
:1089200005468078012804D9401EC1B2204601F0D6
:10893000A7F82878012804D9401EC1B2204600F0CB
:10894000B9FF2046FFF78AFE2EB132A2022120464F
:1089500004F0C4F95BE04FF0000800230C2202A9E8
:10896000019805F0E7FA04980590BDF80C00ADF801
:108970001800BDF80E00ADF81A008DF81D800298A1
:108980000C2700F00300012802D0022818D032E0A2
:1089900002983B46860AC0F3C2008DF81C0002987C
:1089A00008A9C0F38315AA00019805F0C3FA20694D
:1089B000009005AB2A4608A9304605F0F1F91AE007
:1089C0000298850DC0F3C2008DF81C00082D01D25D
:1089D0002E4600E008263B46324608A9019805F0DD
:1089E000A9FA3744AD1B05AA314608A8236905F04A
:1089F000ABF8002DEAD1019805F08DFAE06800226D
:108A000001A94068006805F0DDFA0028A5D0012022
:108A100071E700004C6F7374206C6F6773202D201A
:108A2000696E637265617365206C6F672062616354
:108A30006B656E642071756575652073697A652E46
:108A40000A00000030B4406804682469A44630BCC1
:108A50006047000070B5044640680E460025007A65
:108A600038B1A0680068FEF7A4FD08B108281AD143
:108A70000025BEB96068007A50B90B4A0021A06891
:108A8000FEF744FD616805004FF00100087209D14E
:108A9000A068224640F266610068FEF771FD054657
:108AA000FDF7DCFE284670BD9909030010B541684A
:108AB0000A6041684B60406800210172FDF7CEFEFC
:108AC000024901200870002010BD0000403A00203B
:108AD00010B51C460020FDF7C3FE2060002010BD2D
:108AE00080680068FEF765BD2DE9F05F1C48994677
:108AF00015460068C0070ED0DFF868B000244FF0BC
:108B0000050A884608EB04012A460020FDF7FAFE14
:108B1000060003D011E0C9F800201EE09BF8000019
:108B200088B10A2710494FF47A4088477F1EF9D14F
:108B3000AAF101005FEA000A09D001218BF80010B8
:108B40003444AD1BDED134B1C9F8004005E000214A
:108B50008BF80010F7E7C9F800500020BDE8F09F3F
:108B6000F0ED00E0403A00203117030010B5054851
:108B700004F0D8FA002803D0BDE81040FEF7B4BCDA
:108B800010BD0000841303002DE9FC4100260446BB
:108B90000127019601AB012269462046FFF752FFEB
:108BA0000198002836D09DF800007F28F2D805F003
:108BB000D1F9A068417821B101296FD002296ED185
:108BC0008DE09DF800500D2D09D00A2D07D0D0F86A
:108BD0004821002161F38D12C0F8482122E0D0F82D
:108BE0004811C1F3871129B1D0F84811C1F3871199
:108BF000A94217D1D0F8481165F38D11C0F848117A
:108C0000A068817F41B12046FFF746FD0221204642
:108C100000F0F4F8BDE8FC81C0F84461204600F0A3
:108C200055FEF3E7092D1ED004DC002DB2D0082D2F
:108C300004D121E01B2D12D07F2D26D0FDF7E2FBC1
:108C40000068405D10F03E0FA4D02046FFF70CFEF8
:108C500030B39DF800102046FFF7F8FA9AE7A168B4
:108C60000120487096E72046FFF7FEFD002891D0CE
:108C7000204600F0DDF88DE72046FFF7F5FD0028DF
:108C800088D02046FFF73CFA84E72046FFF7ECFD4A
:108C90000028E3D02046FFF78FFA7BE716E019E0C3
:108CA000A1689DF80020887F7F28D7D2C87F0B1845
:108CB000401CC87783F82020A068C17F084480F852
:108CC0002060A168887F401C887763E79DF80010CA
:108CD0005B2901D0002100E0022141705AE7002108
:108CE00041702046FFF7C0FD002893D09DF800009A
:108CF000422840D01BDC33287CD012DC312872D0D3
:108D00003228ABD1A16803204870A068D0F8481180
:108D1000D0F8482127EA010161F30002C0F8482198
:108D200038E7342856D0412898D1012124E046283C
:108D300053D01BDC432823D044288FD1204602F097
:108D40002DFD05460078A979491C884202D1A978F1
:108D5000012987D001284FF0010120462FD000F0D3
:108D6000A9FDA168C87F401EC87713E748283DD0F9
:108D70004C2889D1C9E70021204601F031FC09E7E0
:108D8000204602F00BFD054600786978884203D141
:108D9000A978EA78914298D0697988424FF0010128
:108DA000204606D100F014FD6979204600F082FDCE
:108DB00001E000F059FEA168C87F401CD4E700F034
:108DC0005FFE6979204600F04FFEA068C17F491E12
:108DD000C177DFE6A16803204870204600F004FD5B
:108DE000D8E607E0FFE7A16803204870204600F0BE
:108DF00024FDCFE6A1680320487046E78268022977
:108E000011700CD18268002182F820108268D1771D
:108E10008268917702A20321036803F05FBF704765
:108E200025730000002801D0FDF770BB70470000DB
:108E30002DE9F04F05460020A7B0074615900646DD
:108E400020900690A868817FC1F17F01C9B25FEAD6
:108E5000010970D0C27F00F12001A030FDF724FB92
:108E6000A8680024C17F084480F8A040FDF7CAFA32
:108E700021900168A8680C23C27F0244D27F895CDC
:108E8000C0F84441AA6801F0010A07A916A8A03257
:108E900002F02CFB0798FFF7C5FF00F0FF08A34680
:108EA00017941894169818B15044401EB0426CD8CC
:108EB000BAF1000F01D0002005E007A850F8260005
:108EC000FFF7B0FFC0B28046002419A822460090E8
:108ED000641C17AB3146584600F03EFA179800283C
:108EE0006CD0016807A8424650F8260001F092FEB7
:108EF0000028EAD018987F1CF0B117980068FFF797
:108F000091FF0699C0B2884200D90690B9F1000FCE
:108F10002ED022A8009018AB31465846159A00F082
:108F20001BFA17980168189801EB080201680020E5
:108F300001EB080316E08DE0601E20901798006892
:108F4000FFF770FFC0B20690A0EB080048450FDAAB
:108F5000C0B20CE013F800C0614506D1401C10F00F
:108F6000FF0010D0115C0029F4D1814500D9814661
:108F7000601E159017981890A7D266A20421284663
:108F800003F0ACFE1AE0FF20EFE7002419A8224608
:108F90000090641C17AB3146584600F0DDF9ECB385
:108FA0001798002856D0016807A850F82600FDF74A
:108FB000B4FA0028EAD11798D0F808B0BBF1000F36
:108FC00009D0179838B11699761CF6B201EB0A0051
:108FD0008642FFF467AF002F3CD0012F43D0002121
:108FE0002846069A06F0AAFD209C0DF11C0A19A835
:108FF00022460090641C17AB3146584600F0ACF98D
:109000001798424601685AF8260001F003FE40B165
:1090100017987F1E069A0168284600E01DE006F0BA
:109020008DFD002FE3D146A2032128462B6803F0D3
:1090300055FEAB6843A208212846203303F04EFEBC
:10904000284600F0DBFC18984A460168284641444F
:1090500000F040FA27B0BDE8F08F2EA20421284688
:1090600003F03CFEF6E79BF8000038B119A8009029
:1090700018AB31465846159A00F06EF918980068FA
:10908000FFF7D0FE404506D018984A4601682846AA
:10909000414400F01FFA2198A9680268C87F0B18A4
:1090A00093F82030D25CD20715D0897F8842D1D284
:1090B000284602F073FB8478A868C17F491CC177F9
:1090C000284602F06BFB8078A0421FD10121284680
:1090D00000F0CAFCBEE7D1F84801C00711D0D1F8B2
:1090E000480120F00100C1F8480120212846FFF77F
:1090F000ADF8A868D0F8481141F00101C0F8481156
:10910000A8E720212846FFF7A1F8A3E7284600F0AA
:10911000DDFB9FE75461622066756E6374696F6E54
:109120003A20636F6D6D616E647320636F756E744A
:109130006572206F766572666C6F7765642E0A00C3
:109140000A25730025730000002806D08868D0F82F
:10915000481141F02001C0F84811704770B504462D
:1091600040680D4690F8280030B1A0680068FEF70E
:1091700020FA08B108280CD1012685B1606904F0F5
:1091800083F8616800220831606904F039F808B199
:10919000062070BD606880F82960002070BD60689E
:1091A00090F8280048B9074A0021A068FEF7AEF9F8
:1091B0006168002881F82860F0D12046BDE8704041
:1091C00007F090B8CD09030070B5044640680D461D
:1091D0000260606800224360606880F82820606850
:1091E00080F82920606820220830FDF75DF92C61A5
:1091F000074A2946606904F003F8050005D1E068D4
:1092000005F024F9206905F021F9284670BD000019
:10921000950B03001A60C0681A4605F055B810B5E2
:109220000446406904F030F8A0680068BDE81040CA
:10923000FEF7BFB97CB51A60044600691A4605F00E
:1092400081F8050025D16069134A0178515C19B194
:10925000001D06F0B9F802E00C3005F019FFC0B9A6
:10926000FF20009001236A4601A9206905F0B6F8A5
:1092700078B900980199C2B2606903F0F5FF05461C
:10928000606890F8290020B11DB92069009905F0A7
:1092900092F828467CBD0000943900202DE9F8435F
:1092A0001E4615468846074600241BE0786808EBF2
:1092B00004016B460268D2F80CC02A46E0470098C9
:1092C00004442D1A70B9B868017803290AD000BF88
:1092D000D0F848118906FBD5D0F8481121F02001BB
:1092E000C0F84811002DE1D1002E01D00098306067
:1092F000BDE8F88370B5084C050009D0103421682A
:10930000002907D008682060496828468847F6E7A2
:109310000834F4E770BD000044450020054A0121EF
:1093200020B1012805D19170FFF7E4BF51700020F2
:10933000FAE77047444500200021FEF77FBE012177
:10934000FEF77CBE4FF4A07100F076B9282100F042
:1093500073B9062100F070B92DE9F05F1C460A9E32
:1093600015464FF0000959B180B3017839B342680E
:109370003146284690473068D8B12660BDE8F09F56
:1093800014491548A1EB0008B5EBD80F11D2DFF84E
:109390004CA00026834609E00BEBC60778680168FD
:1093A0005AF82500FDF7B9F830B1761CB6EBD80FA6
:1093B000F2D3C4F80090E1E778682060DEE7406807
:1093C00000EB0210016809B11860D7E7FFE7C3F8A6
:1093D0000090D3E7B031030068310300F43A002075
:1093E000012106F0F3BB022106F0F0BB10B50446E4
:1093F00001F03EFC18B1BDE8104007F001BA20466C
:10940000BDE8104001A2022103F068BC57726F6EE4
:109410006720626F617264207365747570210A0041
:109420002DE9F04185680646002495F820000028C3
:1094300011D0A046FCF7E6FF0746006804F12001C2
:1094400004F10104695CE4B2415CC90705D0002C59
:10945000F4D185F82080BDE8F081641E14F0FF048B
:109460000FD0A87F021B04F12000291805F120006D
:10947000521CFDF719F8B168887F001B8877B16826
:10948000C877B2683D68937FD0181F30044600212A
:1094900002E0491CC9B2401E0778EF5DFF07F8D112
:1094A0008442D8D05B1A203302F80380B268907FE0
:1094B000401A9077B168C877CDE710B5D0E902348B
:1094C000D1E90220D11AA04101D3012010BD002012
:1094D00010BD00002DE9F0410446806815460F4696
:1094E000827FC17F531A2A44DEB27F2A37D8002DEB
:1094F00035D0084400F1200105F120021044721C0F
:10950000FCF7D2FFA0682A46C17F084439462030C4
:10951000FCF7CAFFA0682030FFF784FCA16811A205
:109520008877A068C17F431808212046203303F0C4
:10953000D5FBA068C17F2944C177204600F0A7F978
:1095400018B9204600F049FF10B1204600F0BEF9DE
:10955000002E04D02046BDE8F04100F04FBABDE82F
:10956000F08100002573000000F0C0B81CB504466F
:109570000020009001908DF800406946022067DFCE
:1095800008B1FDF7B1FF0148C4711CBD7C32002059
:1095900010B502460020138806E0546834F81040E5
:1095A0008C4203D0401C80B28342F6D810BD2DE916
:1095B000F04117880646B81D14460D46984202D958
:1095C0000C20BDE8F0813188072206290AD34FF428
:1095D000486C4FF6FF73614501D9994202D17088FA
:1095E000062801D21046ECE7604501D99842F9D12E
:1095F000994203D0984201D08142F3D80520E85522
:1096000020881221401C80B2208029542088401CD0
:1096100080B220804119308807F071FC218808440D
:1096200080B220804119708807F069FC21880844C5
:1096300020800020C5E7000070B505460C460846AE
:1096400000F01CF823462846BDE8704001A208211E
:1096500003F044BB436F6E6E656374696F6E20697F
:109660006E74657276616C2073657420746F20254A
:109670006420756E6974732E0A00000001494880E9
:10968000704700007C3200200148006870470000ED
:10969000044502401CB50B490B4AD1E90001CDE954
:1096A00000012020ADF8000006486946083005F0AA
:1096B0005BFB08B1FDF718FF0248083005F09AFB84
:1096C0001CBD0000A0110300250103000348012177
:1096D00000688160014805F03BBB0000A811030051
:1096E000014805F029BB0000A811030070B51C4C0F
:1096F000064686B06078012814D06078022813D01E
:1097000018A51CA20821304603F0E8FA208BADF81A
:109710000000009806F07CFA11491431CA792AB188
:109720001EA404E01EA5ECE71FA5EAE720A44B88D1
:109730008A79CDE90340CDE90123088800902B46C2
:109740001C4A0821304603F0C9FA06B03046BDE88D
:1097500070404FF4C87318A2082103F0BFBA00008C
:10976000683200206E6F742073656C656374656485
:10977000000000003D3D3D3D2043757272656E74F2
:10978000207465737420636F6E66696775726174A7
:10979000696F6E203D3D3D3D0D0A00006F6E00007B
:1097A000746573746572000064756D6D79000000F6
:1097B0006F666600901E0300474150206576656E17
:1097C00074206C656E6774683A0925640D0A0000A0
:1097D000002904D00A46006901A103F061BD704769
:1097E0001B5B25644200000070B5054601F0D6FF02
:1097F000044600786178884203D1A078E1788842F5
:109800001AD0E178A078814204D9081AC1B228465A
:10981000FFF7DEFF20786178884205D9401AC1B28F
:10982000284600F047F804E0081AC1B2284600F0C4
:109830001BF9A868817FC17770BD70B5054601F03E
:10984000ADFF044601788079401C814202D1A078A6
:1098500001281BD0A078012804D9401EC1B2284697
:1098600000F00EF92078A179884206D9401A401EEE
:10987000C1B2284600F01EF805E0081A401CC1B22B
:10988000284600F0F1F8A9680020C87770BD10B52F
:1098900004460068FFF7C6FA0146A068C27F407E12
:1098A0001144B1FBF0F200FB121008B1002010BD12
:1098B000012010BD002904D00A46006901A103F06F
:1098C000EFBC70471B5B256444000000006901A1E8
:1098D00003F0E6BC0A0000002DE9FC470026044620
:1098E0008DF8046080683546B146B0468021A030CE
:1098F000FCF701FE4049206903F0D2FC206903F027
:10990000DCFC00276B46012201A92046FFF79AF8EC
:109910000098D8B19DF804001B2806D0A16891F8E2
:10992000A0101B29EED152281FD0A26808F1A00177
:10993000505408F1010000F0FF08B8F1090F0AD9EE
:10994000A168042081F8A090BDE8FC872A494FF661
:10995000C0101031884700980028D3D17F1CBFB2B7
:10996000B7F57A7FCED30D20EEE7A16808F1A0000D
:109970004A4601F80090A16891F8A1005B2803D045
:1099800081F8A0200B20DFE702206FF02F0309E011
:1099900005EB850503EB4505401C3D44C0B2ADB267
:1099A000802808D200F1A007CF5D3B2FF0D1401CEA
:1099B000C0B2802809D30C20C6E700BF06EB86069C
:1099C00003EB46063E44B6B2F1E700F1A007CF5DD7
:1099D000002FF3D1FA20FA2E01D9087500E00E7598
:1099E000FA2D02D9A168887501E0A0688575A06884
:1099F00080F8A0200020A7E7F116030070B5054607
:109A000001F0CCFE04468078E178884201D101263D
:109A100000E000262846FFF73AFF18B9284600F074
:109A2000DCFC10B12846FFF751FF1EB160782178A9
:109A3000401A12E0E078A178401AC1B2284600F03E
:109A40001FF820786178884206D9401AC1B22846AA
:109A5000BDE8704000F008B8081AC1B22846BDE859
:109A60007040FFF727BF0000002904D00A460069B4
:109A700001A103F015BC70471B5B25644300000087
:109A8000002904D00A46006901A103F009BC70470F
:109A90001B5B25644100000038B5012905D08368AF
:109AA000D3F84831C3F340032BB1BDE8384000225E
:109AB000114603F03BB9022907D011A100911368A8
:109AC00015A2022103F00AF938BD054650680A22A2
:109AD0000021FCF755FD04461B38E12803D323463B
:109AE0000F4A022105E0E0B200F028F823460DA25B
:109AF000082101B02846BDE8304003F0EFB800006F
:109B00002077726F6E6720706172616D6574657227
:109B1000206C69737400000025733A25730A0000F5
:109B2000D477020044617461206C656E67746820AC
:109B300073657420746F2025642E0A0010B50446E6
:109B400002464FF6FF71044802F014FA08B1FDF71F
:109B5000CBFC0248847110BDD03D00207C32002037
:109B6000F0B587B00746002005900690ADF81410B8
:109B7000ADF816100190029001AA05A9384690DFB1
:109B8000060029D01748184A154D801AC008698860
:109B9000012202EB004441B1304604F003FF0346CA
:109BA00020463A46114903F0BEFFBDF8042012B921
:109BB000BDF8060038B1688828B1BDF806302046E7
:109BC0000BA103F0B0FFBDF808202AB1688818B1D6
:109BD0002046174903F0A0FF07B03046F0BD000053
:109BE000503B002050320300E03103003C200300D2
:109BF0005468652072657175657374656420545886
:109C00002F5258207061636B6574206C656E6774A9
:109C10006820697320746F6F206C6F6E67206279A3
:109C20002025752F2575206F63746574732E0000D1
:109C3000882003000146014802F018B8603E002069
:109C40001CB5012905D08168D1F84811C1F3400144
:109C500031B102B00022BDE81040114603F066B8F1
:109C6000536804A1CDE90013136808A2022103F090
:109C700035F81CBD20756E6B6E6F776E207061724B
:109C8000616D657465723A200000000025733A2505
:109C90007325730A000000002DE9F04389B00F46D8
:109CA0000546914620216846FCF725FC95F8C6023A
:109CB00095F8C54200EB8001C1EB801005EB400632
:109CC00004EBC40006EB40013279601C0A3190427B
:109CD00032D108AB0022284600F0A4FF78B310E090
:109CE000401EA04201D1002004E004EBC40006EBBA
:109CF00040001C308046024608AB284600F092FF28
:109D000090B10020387004208DF8000008984A4671
:109D1000CDE903500C4802900C486946806802F077
:109D20004FFA09B0BDE8F08395F8C5024146401CE2
:109D3000641C85F8C502E4B23079A042D0D8012075
:109D400038700020EDE700007D9E0200843900207D
:109D500070B500240F4D10E0686800EBC406307841
:109D600004F06EFF7178012901D0012100E000218B
:109D70004140307800F03EFA641C28788442EBDBE6
:109D8000D5E90401084303D0BDE8704006F086BE63
:109D900070BD0000B839002030B59FB00C460546B4
:109DA0007C216846FCF7A7FBADF8024003208DF844
:109DB0000000044801954168002901D068468847A1
:109DC0001FB030BD843900202DE9F041044690F8E1
:109DD000C602884600EB8001C1EB801004EB400610
:109DE0001746304606F0FAF8050042D0D4F8CC0207
:109DF00006283ED204EBC0107622A0F8D272D4F826
:109E0000CC02314604EBC01000F53570FCF74CFB7A
:109E10000026B8F1000F06D0D4F8CC0204EBC01035
:109E200080F8D06206E0D4F8CC12022004EBC11115
:109E300081F8D002D4F8CC0204EBC010C0F84C5327
:109E4000D4F8CC020C4D401CC4F8CC02E96888421E
:109E50000FD12746002407E007EBC41101F5347049
:109E6000D1F84C138847641CE8688442F4D3C7F8DF
:109E7000CC62BDE8F081000084390020F0B51546C1
:109E80009FB0002281F8C822074691F8C6020C460E
:109E900000EB8002C2EB801001EB400006F09EF860
:109EA000060009D07C2208496846FCF7FDFAADF8A7
:109EB000025068460197B0471FB029462046BDE8CA
:109EC000F040FFF769BF000040140300F0B50D46F5
:109ED00089B004464FF4BA61FCF70DFB20216846B7
:109EE000FCF709FB154E2946B06802F031F900284D
:109EF00021D1A4F8CA52C4F8CC0284F8C70284F86D
:109F0000C60284F8C5020E4801272A460068206070
:109F100002208DF80000ADF810702068CDF8120016
:109F20000848CDE902046946B06802F049F9002802
:109F300001D184F8C87209B0F0BD00008439002056
:109F40002C4500207D9E020010B50021024801F042
:109F500001FD80F3100010BD386800204FF48032FE
:109F60008A400168C1F848230068C0F80823704798
:109F70004FF4A07202EB810189B200F0ABB92DE978
:109F8000F04105460E464FF4A07000EB860081B20A
:109F900028684FF48034B440984622F07F47C0F8D8
:109FA00008432868C0F84843286804F07BFA28680A
:109FB00000EB8600C0F840752868C0F84443B8F14B
:109FC000000F02D02868C0F80443BDE8F0810068A3
:109FD000D0F804057047000070B54379274C2A4D2E
:109FE00044F823204279231D03EBC202254C167945
:109FF000234A121BD40846B16888082602283AD39F
:10A00000022000EB044021A133E006680A88C6F86C
:10A01000082590F904208978002A4FEA411104DBD1
:10A0200002F1E02282F8001405E002F00F0202F1D2
:10A03000E02282F8141D90F904100122002909DBA6
:10A0400001F01F0602FA06F64909890001F1E02134
:10A05000C1F800614179002603EBC1010A71417921
:10A0600043F831006888032805D3032000EB04403F
:10A070000FA103F04DFD304670BD0000303A0020C6
:10A08000B0320300E0310300803B002052544320F3
:10A09000696E7374616E636520616C726561647969
:10A0A00020696E697469616C697A65642E000000CC
:10A0B0005254433A20696E697469616C697A6564C7
:10A0C0002E00000090F90400002809DB00F01F02B8
:10A0D000012191404009800000F1E020C0F8001209
:10A0E00070470A46022100F07BB84FF4827100F0FD
:10A0F000F1B80068012101607047006801214160EA
:10A1000070472DE9F05F07460C464FF4A07000EB56
:10A1100084001FFA80FA38684FF48036A6409B46C8
:10A1200022F07F45C0F848633868C0F80863386893
:10A13000D0F8048500EB8402D2F84095C2F840853F
:10A140005146386804F0AEF9A9EB080020F07F40D2
:10A15000012806D1102004F091FC5146386804F023
:10A16000A1F93868D0F80485C0F84463A5EB08016C
:10A1700021F07F413868012900EB840010D0C0F83D
:10A1800040553868D0F804156FF07F4C6A1A521E9B
:10A1900022F07F42ACEB0B03934217D362B118E07D
:10A1A0006D1CC0F84055102004F068FC3868D0F8E9
:10A1B000040540450AD10CE000EB84006D1CC0F89A
:10A1C00040553868D0F80405884202D00D20BDE81B
:10A1D000F09F01223146384600F002F80020F6E7F1
:10A1E0000368C3F84413002A02D00068C0F80413BF
:10A1F000704700002DE9F84F0E463449804601EBC8
:10A200005001C007097801D00F0901E001F00F07E4
:10A210004FF00009424601204946FCF7E3F8DFF819
:10A22000B0A004460D46052F4ED2DFE807F0031616
:10A230001B282C00002E47D00121404606F03EFA94
:10A240008DF800906846FDF7BBF95046D0E904123E
:10A250000C431543CAE9044532E00EB1022114E073
:10A26000002112E04EB10321404606F027FA404695
:10A27000BDE8F84F012106F0BDBE012105E0002E2A
:10A2800022D1042101E02EB103214046BDE8F84F60
:10A2900006F014BA0021404606F010FA00214046AC
:10A2A00006F0A8FE8DF800906846FDF789F9504643
:10A2B000E243D0E904341A4024EA0501CAE9042142
:10A2C0009DF80000FDF7A0F9BDE8F88F04460020D6
:10A2D000B839002010B5006842581AB104F0E2F80D
:10A2E000012010BD002010BD2DE9F05F17460E00C3
:10A2F000814670D013B1F9B2FFF7B6FB0024FCF72A
:10A3000081F88246006800E0641C315D415CC90749
:10A31000FAD100253046FEF785FDD9F80810001B5C
:10A320004A7ED11B814228D306EB040805E000BF1A
:10A3300018F805100A290CD06D1C8542F8D3311984
:10A34000D9F8100002F0ACFF4846BDE8F05FFFF717
:10A35000BDBAD9F8100002F0B0FF414600232A46EA
:10A360004846FEF79BFF2C444846641CFFF7AEFAB4
:10A37000F9B24846FFF778FBE1E78B46DAF80010C0
:10A3800006EB040818F805000B5CDB0702D0AB46AF
:10A390000A2804D0E819904201D26D1CF2E7D9F8DE
:10A3A000100002F08AFF414600235A464846FEF755
:10A3B00075FF5C44DAF8000000E0641C315D415C2C
:10A3C000C907FAD14846FFF781FAF9B24846FFF7C4
:10A3D0004BFB9EE7FFE7BDE8F09F10B50446006821
:10A3E000FEF720FD0146A068827F407E1144B1FB4C
:10A3F000F0F200FB121008B1002010BD012010BDCA
:10A40000014A082102F06ABC141E030070B5174807
:10A41000174E0C460A881449801BC00803260123E6
:10A42000104D4988A2F5206206EB0040773A05D02E
:10A4300002F6FD72B2F5604F0DD105E06B71032994
:10A4400009D3A2880BA104E0AB71032903D32279BD
:10A4500015A103F061FB2146BDE870401B4801F0E7
:10A4600016BD000068320020983B0020E032030057
:10A47000E0310300415454204D5455206578636801
:10A48000616E676520636F6D706C657465642E2006
:10A490004D54552073657420746F202575206279A2
:10A4A0007465732E0000000044617461206C656E59
:10A4B000677468207570646174656420746F20250A
:10A4C000752062797465732E00000000783E0020CC
:10A4D00010B50446094821460480094801F02AFDC8
:10A4E00008B1FDF701F82146054801F017FD0028E5
:10A4F00003D0BDE81040FCF7F7BF10BD7C32002050
:10A50000D03D002070B50D4601F11004C98A102914
:10A5100001D9092070BD03F0AFFC686030B1E2885A
:10A520000023A16803F00EFD002070BD042070BD63
:10A5300070B50D4601F1100489690988102901D907
:10A54000092070BD891C03F097FC686068B1002386
:10A550000222A16803F0F6FCA068E16802230288E9
:10A56000686803F0EFFC002070BD042070BD00009F
:10A5700010B50B48FFF72BFD094A083AD2E904341D
:10A58000C018D2E9063244F10001C31A71EB02028D
:10A5900004D24FF08072801841F1000110BD00001C
:10A5A000003A002010B5C0B2FDF734FD0446007833
:10A5B00004F046FB01466078012801D0012000E04C
:10A5C000002090EA010F08D00449D1E904010843B2
:10A5D00003D1BDE8104006F061BA10BDB8390020C3
:10A5E000FEB5002604460096019602968068E9B3FF
:10A5F000D0E950128A4272D0D0F83C0100286ED0C7
:10A600002046FFF71AF9A068D0F84451002D69D010
:10A61000002309226946284603F08CFCA1689DF8B6
:10A6200008500098C1F84401A06800230922D0F81E
:10A630004401694603F07EFCA1689DF808200923C7
:10A64000D1F844012031521C03F074FCA1689DF83C
:10A650000800C877A1689DF8080088779DF8080071
:10A66000A84202D22046FDF7F9FF00E00BE0A36804
:10A670002BA208212046203302F030FB2046FFF7B2
:10A6800006F968BB43E0D0F84401002847D02046D3
:10A69000FFF7D3F8A06800230922D0F844016946E7
:10A6A00003F048FCA0680199C0F84411A068002993
:10A6B000857FB9D1A030FEF7B5FB0028A06805D092
:10A6C00000F1A0012030FBF743FF01E080F820609B
:10A6D000A0682030FEF7A6FB8DF80800B6E71EE064
:10A6E0001AE0FFE72030FEF79DFB10F0FF05A068A1
:10A6F000D0F83C11C0F84411A06805D000F1200149
:10A70000A030FBF725FF8FE780F8A0608CE720469C
:10A71000FFF763FE002802D02046FFF7D7F8FEBD02
:10A7200025730000FEB50D46816804460026D1F869
:10A730003C0138B300230922694603F0FBFB019575
:10A74000A06800230922D0F83C01694603F0FAFB17
:10A750000196A068D0F83C110091807F8DF8080028
:10A76000A068C0F83C51002309226946284603F03E
:10A77000E9FBA168092328468A7F2031521C03F097
:10A78000E1FBFEBDC1F83C51A068C0F84051009605
:10A790000196A068807F8DF80800E4E7FEB50446C6
:10A7A0008068D0F84061002E28D000230922694635
:10A7B000304603F0BFFBA16801980025C1F84001B5
:10A7C000009501952B46092269463046029503F013
:10A7D000B9FB304603F080FBA168D1F8400170B1AD
:10A7E00000230922694603F0A5FB0095A068002319
:10A7F0000922D0F84001694603F0A4FBFEBDC1F870
:10A800003C51FEBDFEB5044680682030FEF70AFBD1
:10A8100010F0FF05A0684FF00006C0F8446133D087
:10A82000A068D0F83C01E0B100230922694603F09A
:10A8300081FB9DF80820AA4213D1A068092300F1EA
:10A84000A001D0F83C01521C03F074FBA06800F199
:10A85000A0012030FBF761FE0028A06880F8A0600E
:10A8600012D000260A352946606903F005FB010075
:10A87000204604D003B0BDE8F040FFF753BFFFF718
:10A880008DFF761C082EEED3FEBD000070B51B4870
:10A8900002F00EFC1A4C6078012825D1207A18B3FA
:10A8A000207908B36079F8B1A07920B904F11400D7
:10A8B00080791B2818D1E079B0B1E078A0B91148AF
:10A8C00001254088032809D30F481049401AC008C1
:10A8D000032101EB00400EA103F01AF9E570FEF729
:10A8E000F5FE0F4801F09AFA02F0D4FF002803D1D8
:10A8F000BDE8704003F044BB70BD0000841303004A
:10A9000068320020983B0020E0320300E031030071
:10A910005465737420737461727465640000000080
:10A92000783E002070B5104D688803281AD30F4870
:10A930000F49401AC108032000EB014004460DA155
:10A9400003F0E6F8688803280CD3204617A103F02B
:10A95000DFF86888032805D32046BDE8704020A1B1
:10A9600003F0D6B870BD0000983B0020E032030031
:10A97000E0310300547970652027636F6E66696764
:10A980002720746F206368616E6765207468652096
:10A99000636F6E66696775726174696F6E2070614E
:10A9A00072616D65746572732E000000596F7520B9
:10A9B00063616E2075736520746865205461622040
:10A9C0006B657920746F206175746F636F6D706C47
:10A9D00065746520796F757220696E7075742E00CC
:10A9E00054797065202772756E27207768656E2010
:10A9F000796F752061726520726561647920746F6A
:10AA00002072756E2074686520746573742E000062
:10AA10002DE9FC5F0E008346DDE90C47C6F100001E
:10AA200098469246814600D40846012503E000BFBF
:10AA300090FBFAF06D1C5045FADAA84500D945465E
:10AA400024B1002E01DB780700D5641EB80702D5BB
:10AA5000B8F1000F0AD0F80708D13CB1A54205D2E1
:10AA600020215846641EFDF745FAF6E7002E02DA6B
:10AA70004E462D2102E0780703D52B215846FDF7DD
:10AA800039FA07F0030002280BD1B8F1000F08D102
:10AA90003CB1A54205D230215846641EFDF72AFA82
:10AAA000F6E7CDE90047434652463146584606F0A0
:10AAB00035FABDE8FC9F000070B50D4604460068FD
:10AAC0004FF4887103F08EFF4FF49071206803F00B
:10AAD00089FF4FF49271206803F084FF4FF4A27154
:10AAE000206803F07FFF4FF4AC71206803F07AFF19
:10AAF00020681249C0F804132068690740F3073042
:10AB0000090E002804DB00F1E02080F8001405E0C5
:10AB100000F00F0000F1E02080F8141D206840F3E1
:10AB20000730002809DB00F01F0201219140400995
:10AB3000800000F1E020C0F8001170BD1003420059
:10AB4000024600201268530713D502F003000128C3
:10AB500002D002280CD105E0C2F383100B68C01CA0
:10AB6000184404E00323086803EB92521044086081
:10AB7000012070472DE9F0479146884604464FF47E
:10AB800080354FF4A0760027DFF884A016E000BFE0
:10AB9000D4F8040328420DD0A05958B1C4F8485342
:10ABA000C4F808533146204603F076FC5AF82810C2
:10ABB000F8B28847361D6D00B6B27F1C4F45E7D30B
:10ABC000D4F804034FF4807110F0010F09D0D4F8C9
:10ABD000000130B1204603F05FFC5AF82810042031
:10ABE0008847D4F804034FF4827110F0020F0CD0A0
:10ABF000D4F80401002808D0204603F04DFC5AF890
:10AC00002810BDE8F04705200847BDE8F0870000A0
:10AC1000B439002010B5FBF7A4FC08B1002010BD2A
:10AC2000012010BD10B509892AB1D088491C814284
:10AC300018D1002010BD90F8C62202EB8204C4EBAC
:10AC4000821200EB420212899142F2D0491C198013
:10AC500090F8C61201EB8102C2EB811100EB4100BA
:10AC6000008902E01980D088401E5880012010BD64
:10AC700002484078012800D0002070476832002048
:10AC800090F82E00C0F3C100012803D0032801D0A2
:10AC90000020704701207047F72101801721418073
:10ACA0000021017141711B218171C1717047000048
:10ACB000014B01F049BD00007DAE0200014B01F0E7
:10ACC00043BD000049B00200014B01F03DBD000052
:10ACD00051B00200014B01F037BD000031B102005C
:10ACE0007CB514460546012902D002F05DF938B161
:10ACF00002B02846BDE870400022114602F016B8A6
:10AD0000616805A0CDE9000109A202212846236857
:10AD100001F0E4FF7CBD000020756E6B6E6F776EF6
:10AD200020706172616D657465723A2000000000E8
:10AD300025733A257325730D0A0000002DE9FC41A7
:10AD4000074602F031F938B102B03846BDE8F041AB
:10AD50000022114601F0EABF1248134E801B05097C
:10AD600000241AE006EB0410C2681179FF2903D011
:10AD7000527942B10DA207E083680EA2082138463D
:10AD800001F0ACFF08E013A2CDE90021836814A212
:10AD90000821384601F0A2FF641CAC42E2D3BDE8B2
:10ADA000FC810000E0310300B0310300656E616298
:10ADB0006C65640025730D0A092D20537461747548
:10ADC000733A2064656163746976617465640D0A21
:10ADD0000D0A000064697361626C65640000000024
:10ADE00025730D0A092D205374617475733A20255B
:10ADF000730D0A092D2049443A2025640D0A0D0AD5
:10AE00000000000010B5044602F0CEF830B1204634
:10AE10000022BDE81040114601F088BF2046BDE881
:10AE2000104002A2022101F059BF00004E6F7420B1
:10AE3000737570706F727465642E0D0A00000000E7
:10AE400010B5044602F0B0F830B120460022BDE84B
:10AE50001040114601F06ABF2046BDE8104002A232
:10AE6000022101F03BBF00004E6F742073757070BB
:10AE70006F727465642E0D0A000000002DE9FF4F0B
:10AE8000C86881B01D46007917004FF00006009099
:10AE900057D0072245A12868FBF763FB78B1082249
:10AEA00044A12868FBF75DFB00282FD02B6843A244
:10AEB000019805B00221BDE8F04F01F00FBF012F4E
:10AEC00002D0022F08D008E0019805B041A2BDE8E9
:10AED000F04F022101F002BF0126DFF810810024AB
:10AEE0000A2258F824106868FBF73BFB10B1641C79
:10AEF000052CF5D3052C06D004F0FF090224002E02
:10AF000051D0002419E03AA26B68D1E7012F4FF02D
:10AF10000009F6D0012446E04A462146009800F098
:10AF200003FC48B90021204602F016FF034638A270
:10AF30000221019801F0D2FE641C02F0B7FEA0428B
:10AF4000EAD805B0BDE8F08F4FF0000A55F824B0FC
:10AF500002F0ACFE8046002609E00021304602F0F7
:10AF6000FBFE20225946FBF7FCFA58B1761C4645F9
:10AF7000F3D3464508D04A465146009800F0D4FB2A
:10AF800030B10FE0B246F4E755F8243029A205E0CD
:10AF90000021504602F0E0FE03461DA20221019866
:10AFA00001F09CFE641CBC42CED3CAE7656E6162B0
:10AFB0006C65000064697361626C6500556E6B6E50
:10AFC0006F776E206F7074696F6E3A2025730D0A6B
:10AFD0000000000042616420706172616D657465FB
:10AFE0007220636F756E742E0D0A0000703A002097
:10AFF000556E6B6E6F776E207365766572697479C6
:10B00000206C6576656C3A2025730D0A00000000FF
:10B010004C6576656C20756E617661696C61626CF9
:10B020006520666F72206D6F64756C653A202573BC
:10B030000D0A0000556E6B6E6F776E206D6F647534
:10B040006C653A25730D0A00C96801204871704784
:10B05000C96800204871704730B41346C4680A4676
:10B06000214630BCFFF70ABFC0680121C0684171AA
:10B070007047C0680021C0684171704730B4134602
:10B08000C4680A46214630BC00F052B82DE9FF41A1
:10B090000026244800F042FC2248001F074600F02A
:10B0A0003DFC214C2149A06800900D6800E000980B
:10B0B0006946284004EB80000C30FFF741FD002872
:10B0C000F5D101AA009901EA050304EB8303491CA9
:10B0D000DB6842F82030401C00910328F2D301982D
:10B0E00000F0030001280BD0022810D101980321A1
:10B0F00001EB90500099BDF80A6001EB900005E06B
:10B100000198BDF80A60C0F38310084400903846E7
:10B1100000F001FC08B10098A06004B03046BDE822
:10B12000F0810000346800201C4800206C3A0020A8
:10B130002DE9FE4F8846824602F0B8FD0746D8F852
:10B140000C00407920B922A20221504601F0C6FD30
:10B1500024A327A20821504601F0C0FD2CA20821FB
:10B16000504601F0BBFD00242DE000BFD8F80C00D4
:10B1700001231A4605792146284602F0A1FD8146A1
:10B18000002301222146284602F09AFD05460328A5
:10B1900001D2064600E003260121204602F0DCFD34
:10B1A0000346AE4201D22AA200E028A2294850F864
:10B1B000261050F829008DE8070027A208215046E4
:10B1C00001F08CFD641CBC42D0D3BDE8FE8F0000B2
:10B1D0004C6F6773206172652068616C74656421CF
:10B1E0000D0A00006D6F64756C655F6E616D6500C2
:10B1F000252D343073207C2063757272656E742047
:10B200007C206275696C742D696E200D0A00000047
:10B210002D2D2D2D2D2D2D2D2D2D2D2D2D2D2D2D5E
:10B220002D2D2D2D2D2D2D2D2D2D2D2D2D2D2D2D4E
:10B230002D2D2D2D2D2D2D2D2D2D2D2D2D2D2D2D3E
:10B240002D2D2D2D2D2D2D2D2D2D0D0A0000000025
:10B250002A000000703A0020252D343073207C2015
:10B26000252D3773207C20257325730D0A000000DF
:10B2700096B04FF480416F4802F0BEFC08B1FCF775
:10B2800033F9FDF7F7FA0120FCF792FDFCF74AF9D4
:10B2900008B1FCF729F9FEF7FDF940F2333202213B
:10B2A0006548FCF797F808B1FCF71EF902F054FE68
:10B2B00008B1FCF719F903F097FA08B1FCF714F993
:10B2C000002000906946012003F0FCF808B1FCF76B
:10B2D0000BF9684603F0AEF908B1FCF705F99DF8E3
:10B2E000000056A120F00F00401C20F0F0001030AC
:10B2F0008DF800000E2268467CDF08B1FCF7F4F8F8
:10B3000052487ADF08B1FCF7EFF85149514800F094
:10B310004BFE08B1FCF7E8F818224F490FA8FBF7DD
:10B32000C3F84D493C2218316846FBF7BDF8474A3F
:10B330006846083202CAFCF78DFA08B1FCF7D4F867
:10B3400042490FAA0831A1F1240072DF08B1FCF7CD
:10B35000CBF84048414A0021283001F0C7F808B135
:10B36000FCF7C2F83C4A3B48103A0021283001F073
:10B3700061F808B1FCF7B8F83648002201212830FE
:10B3800001F097F808B1FCF7AFF835480090314864
:10B3900069461C3000F09FFF08B1FCF7A5F82D4866
:10B3A0003049A83000F0D6FC284C2F481834CDE99D
:10B3B00000046846FCF774FB08B1FCF795F82B48CD
:10B3C000CDE90204234802A9903000F0A1FB08B1A6
:10B3D000FCF78AF81D4C083C2088FFF779F8E079E3
:10B3E000FEF7C4F8FDF7C2FBFBF7E2FF08B1FCF77C
:10B3F0007BF81F4D6888032818D31E481E49401A41
:10B40000C108032000EB014004461CA102F080FBB0
:10B41000688803280AD320461FA102F079FB6888B8
:10B42000032803D3204629A102F072FBFFF72EFA6E
:10B43000FCE7000001750200903800204E6F726436
:10B4400069635F4154545F4D5455000084320020BD
:10B450000DA40200D03D0020C413030039030300F3
:10B4600055E20200E96F0200359C0200556E0200B1
:10B47000983B0020E0320300E031030041545420A7
:10B480004D5455206578616D706C652073746172E0
:10B490007465642E0000000050726573732062753D
:10B4A00074746F6E2033206F6E2074686520626F35
:10B4B00061726420636F6E6E656374656420746F7F
:10B4C000207468652050432E0000000050726573A0
:10B4D0007320627574746F6E2034206F6E206F74E9
:10B4E00068657220626F6172642E00002DE9FF4F63
:10B4F0004FF0000881B014468B468146C246C0F822
:10B5000000802578002D71D0FAF77CFF009000684C
:10B51000405DC00702D004F801AB84E0D9F8000018
:10B520008300401CC9F800004BF8034015E0267862
:10B53000002E78D0B8F1000F05D1222E10D0272E82
:10B540000ED05C2E1ED0B04514D12046FDF76AFC0B
:10B550000246611C2046FAF7A7FF4FF00008E6E715
:10B560002046FDF75FFC0246611C2046FAF79CFF6F
:10B57000B046DCE7B8F1000F50D05C2E61D16078A6
:10B58000404508D12046FDF74DFC0246611C20468F
:10B59000FAF78AFF55E030281CD100270225605DAC
:10B5A000A0F13001072906D86D1C41EAC701EDB2B0
:10B5B000CFB2052DF3D3022D0CD92046FDF732FC76
:10B5C000421B61192046491E921CFAF76DFF04F8D0
:10B5D000017BACE778281ED100270225605DA0F131
:10B5E0003001092903D841EA07100DE021E0A0F15C
:10B5F0006101052901D8573804E0A0F1410105296E
:10B6000007D8373840EA07106D1CEDB2C7B2042DD9
:10B61000E4D3022DD1D8B8F1000F12D10098006800
:10B62000805DC0070DD0D9F8001004988142FFF466
:10B6300068AFD9F8002040464BF822A005B0BDE81D
:10B64000F08F641C73E770B5144682880E46054679
:10B650002088111D0144921C994201D8FE2A01D96B
:10B660000C2070BD521C32542088FF21401C80B237
:10B67000208031542088401C80B220808119288885
:10B6800005F03DFC2188084480B22080AA8842B1A0
:10B69000A96841B13044FAF707FF2088A988084417
:10B6A0002080002070BD072070BD2DE9F047C588BF
:10B6B0001E1DB6FBF5F78946B6FBF5F1044605FB02
:10B6C000176C407916686843DDF820A0F718001F52
:10B6D000874200D9C61A166001E02468491E002975
:10B6E000FBD1A5EB0C078846B74216D818E004EB4F
:10B6F0000C00001D09EB0803BAF1000F3A4602D016
:10B700000146184600E01946FAF7CEFE2468F61BFB
:10B710004FF0000CB844B54201D9374600E02F463F
:10B72000002EE4D1BDE8F08770B5144600230D4625
:10B7300006461A4602F0C4FA844201D9002070BDC0
:10B7400022462946304602F0DFFA012070BD000093
:10B7500030B5024651B102F0A9FA0021074C08E0C9
:10B7600034F821301568AB4202D11160002030BDA1
:10B77000491C8142F4D3052030BD0000183B002055
:10B7800010B50C460021E16061600349A160012110
:10B7900002F0E2FA206010BD2019030070B5846841
:10B7A000006804F11405FDF73DFBC1B2A971E07F0B
:10B7B0006A790844B0FBF2F302FB13035B1C2B70A5
:10B7C000E07F0844B0FBF2F35B1CAB70A07F084441
:10B7D000B0FBF2F35B1CEB70A07F0844B0FBF2F10E
:10B7E00002FB1101491C6970284670BDF8B50F466F
:10B7F000017814460546012901D1687830B12088C6
:10B80000821C9A4232D8012902D006E00720F8BDF6
:10B8100069780144891C994228D8181A801E86B27A
:10B82000ADF800602188B81C084469467DDF002817
:10B83000EDD12978022904D06878BDF80020904223
:10B8400005D3BDF80000B04201D809200AE0082065
:10B85000012905D16978B14202D8ADF8001001E0A4
:10B86000ADF80060BDF80010FE2901D90C20F8BD2C
:10B870002288491CB9542188491C89B221807854F6
:10B880002088401C2080BDF8001008442080002043
:10B89000F8BD10B531B1B2FBF3F403FB14241CB1B5
:10B8A000092010BD0E2010BD0160002141608160A3
:10B8B0008281C381084610BD70B50C460546FAF773
:10B8C000A9FC002802D021882868084470BD10B562
:10B8D0000A8849888A4203D1FAF7DEFC012010BDAC
:10B8E000002010BD70B50C460546FAF7B8FC0028DC
:10B8F00002D061882868084470BD10B50A8849885C
:10B900008A4203D1FAF7A2FC012010BD002010BD2D
:10B91000002100F00FB8002100F012B8012100F062
:10B920001EB8012100F011B808B56A46FAF709FD02
:10B93000009808BD08B56A46FAF7E9FC009808BD0A
:10B9400008B56A46FAF7E3FC08BD08B56A46FAF797
:10B95000D1FC08BD08B56A46FAF7C0FC08BD08B5B9
:10B960006A46FAF7C7FC009808BD08B56A46FAF7B8
:10B97000F5FC009808BD38B5044600258DF8005048
:10B980006846FBF71DFE21686268086890420ED980
:10B99000401E08600178238BE26801FB0325227AB0
:10B9A0002168101AC0B20A79824200D208719DF84B
:10B9B0000000FBF729FE284638BD38B505460020B3
:10B9C0008DF800000C466846FBF7FAFDE868298B05
:10B9D000201AB0FBF1F12A681068431C1360017053
:10B9E0009DF80000FBF710FE38BD10B530B1017AAC
:10B9F00042680368891AC9B21A6006E00E2010BDB9
:10BA000003681A68541C1C601170491EC9B2F7D231
:10BA1000006800210171084610BD00002DE9F047C3
:10BA20000646806888B0D0F84801C0F3400038B1BD
:10BA300008B03046BDE8F0470022114601F076B963
:10BA4000012907D908B03046BDE8F0471DA2022100
:10BA500001F044B92049DFF884A0A1EB0A001C21C1
:10BA6000B0FBF1F5002428E0C4EBC4010AEB81032C
:10BA70004FF000091F68D3E901103A793F78411A65
:10BA8000B3F81880C01B5B69C0B2642712FB07F7CC
:10BA9000B7FBF1FC642710FB07F7B7FBF1F7CDE923
:10BAA0000621CDE9041CCDE902700D4A082130467B
:10BAB000CDE9008901F012F9641CAC42D4D308B07E
:10BAC000BDE8F08742616420617267756D656E74D0
:10BAD00020636F756E740000703303000033030041
:10BAE00080210300C20800F007030120895C984010
:10BAF0000840704748B1018022B11368C0F8023095
:10BB00009288C280406900F023BB0E20704700007D
:10BB100030B585B00D46040026D02DB3686818B343
:10BB2000286808B3114B0FCB8DE80F0004F10C010E
:10BB3000684662DF002815D1207B8DF8120041F2A3
:10BB40002350ADF810002868A0606868606100208C
:10BB5000206160804FF6FF71A0802180E08004A802
:10BB6000FBF77EFF05B030BD0E20FBE77011030030
:10BB700070B58AB0040025D02088A0F57F41FF3938
:10BB80001ED001258DF8205000268DF8216020213F
:10BB90006846FAF7B0FC8DF800506088ADF81200E6
:10BBA0000220ADF8160008A8ADF8146006908DF8D4
:10BBB000105022886946606900F002FB0AB070BD2F
:10BBC0000820FBE70E20F9E71FB5002934D0002834
:10BBD00032D00288112A23D0362A2ED0382A2BD0F0
:10BBE000392A29D10A4609888388994224D1418972
:10BBF0009388994220D1C3891169194411610121A7
:10BC00008DF800108188ADF80210C189ADF80410DC
:10BC1000C17C006961F31F6002901069039020E00D
:10BC20000A888088824207D14FF6FF700880002082
:10BC300048808880C88008611FBD0A4609888388BB
:10BC40009942F9D14189D3889942F5D102218DF8E1
:10BC500000108188ADF80210C17C006961F31F609B
:10BC6000019093686946104698471FBD2DE9FF4132
:10BC70000A78002A4BD18A88A2F5A853233B46D1E3
:10BC80008A79037B9A4242D14A88ADF80220002289
:10BC900041F22456771C21E002EBC20301EB43047E
:10BCA000D4F80E309DB2B5420DD190F80CE0C3F33C
:10BCB000074CF44507D1B4F818C0ADF804C0B4F887
:10BCC00016C0ADF806C0BD4207D1057BC3F30743DC
:10BCD000AB4202D1E38AADF80830521C0B7A934292
:10BCE000DAD80188A1F57F42FF3A09D0418839B9F5
:10BCF000818829B90199C0F80210BDF80810C180E7
:10BD0000002101618DF80010826869469047BDE806
:10BD1000FF8110B588B0040019D02088A0F57F41BC
:10BD2000FF3912D020216846FAF7E5FB00208DF894
:10BD30000000E188ADF81010ADF8120022886946C5
:10BD4000606900F03DFA08B010BD0820FBE70E2046
:10BD5000F9E7000070B5304B0E4604460FCB96B0A5
:10BD600001AD85E80F00A11C01A862DF08B1FBF757
:10BD7000BBFBA0788DF8560041F22350ADF854007B
:10BD80006A4615A90120A8DF08B1FBF7ADFB202109
:10BD900005A8FAF7B0FB41F22450ADF81400A078E2
:10BDA0008DF81600F720ADF818009DF82100012548
:10BDB00040F010008DF821008DF827508DF82050AC
:10BDC000221D05A9BDF80000FCF74AFB08B1FBF7EE
:10BDD0008BFB20210DA8FAF78EFB41F22550ADF820
:10BDE0003400A0788DF836000420ADF838009DF8B6
:10BDF00041008DF8455040F002008DF8410004F1FB
:10BE00000C020DA9BDF80000FCF72AFB08B1FBF7F6
:10BE10006BFB666116B070BD801103000021C1612B
:10BE20000162FCF7B3BA70B50C46018810290FD037
:10BE300011290FD00026502910D057290DD1217E6D
:10BE40002046002909D00676BDE87040FCF79EBA6E
:10BE5000808801E04FF6FF70208070BD30F8061F2B
:10BE600022899142F9D141890229F6D10C30FBF7A0
:10BE70009BFF18B1284666F3070003E0012128461E
:10BE800061F307006269BDE87040394610470A88CF
:10BE9000A2F52063773B02D18988C91E4183704790
:10BEA0003EB5044600200A460090019002A91046C3
:10BEB00005F02AF8ADF8000002A80190A1892088B9
:10BEC0006A46ACDF02000DD007484088002809D040
:10BED00006480749401AC008012101EB004005A1AE
:10BEE00001F01AFE3EBD00001C3B0020E8310300BB
:10BEF000E031030073645F626C655F676174747343
:10BF00005F76616C75655F73657428292066616969
:10BF10006C65643A203078257800000028B1A1F1E2
:10BF20001702E12A03D3072070470E207047418093
:10BF30000020704728B1A1F11702E12A03D307209E
:10BF400070470E20704701800020704750B14AB101
:10BF5000A1F57F43FF3B03D0022905D3072070479B
:10BF6000007904E00E20704700EBC100407B1070A8
:10BF7000002070470B4670B1A2F11B01E12905D2E8
:10BF8000A3F57F41FF3903D0022B06D3072070476A
:10BF90000271002070470E20704700EBC30011466D
:10BFA00002731846FDF7DCBD70B5040010D0F72011
:10BFB000A161208060801B202071002504EBC5005A
:10BFC000801DFEF769FE6D1C022DF7D3002070BDA9
:10BFD0000E2070BD2DE9F04185888EB00C46022DF3
:10BFE0007DD20188494E4FF00008242940D006DC5C
:10BFF000102909D011290CD023295FD154E03A2906
:10C000000DD055295AD12EE00146204603F0BCFB45
:10C0100054E004EBC500801DFEF73EFE4EE02946CD
:10C0200004EBC107408937F8062F824200D810463A
:10C030007880172800D217207880A06970B17879AD
:10C0400060B1D6E90002CDE90002ADF802107888AF
:10C05000ADF80400A26920466946904787F805803C
:10C0600087F804802AE00146204603F053FC25E0CF
:10C07000011D2C226846FAF717FABDF80000BDF83A
:10C08000042004EBC0014A73A269BAB1D6E90423C3
:10C09000CDE90B23ADF82E00487B8DF83000A26966
:10C0A00020460BA9904709E004EBC503017A187BF1
:10C0B000884200D201462846FDF752FD04EBC50434
:10C0C000A07A00281ED0E1882846A5DF0125B0B15E
:10C0D000112817D00E494988002913D000E011E03B
:10C0E00002F060FC02460B480B490EB0401AC00833
:10C0F00005EB0040BDE8F04108A101F00DBD84F85A
:10C100000A80E5720EB0BDE8F0810000BC140300A7
:10C11000503B002050320300E031030073645F6243
:10C120006C655F67617474635F65786368616E678F
:10C13000655F6D74755F726571756573742829200C
:10C1400072657475726E65642025732E00000000A0
:10C150002DE9F0410F4604004FF000050DD003F02B
:10C1600011FF39462046FDF713FA218881421ED17E
:10C17000002005464FF6FF7609E00E20BDE8F0816D
:10C18000626832F81020B24206D1401C80B281426F
:10C19000F6D8206901F0BDFE002021880BE062681E
:10C1A00032F81020B24204D1616821F8107028469C
:10C1B000E4E7401C80B28142F1D80420DEE70000B1
:10C1C0002DE9F04791460D4604004FF0000742D09C
:10C1D000EDB303F0D7FE49462046FDF7D9F929789B
:10C1E000062902D22188814202D10720BDE8F087CA
:10C1F000A168C0EBC00601EB860001F02AFF30B158
:10C200004946284603F02EFF08B13846EEE7297864
:10C21000DFF8488058F821202AB12069B8B12946B2
:10C2200090470028E2D1A068294600EB860001F083
:10C2300036FF070006D0297858F8210010B1686849
:10C2400001F04AFEA068494600EB860000E002E0EB
:10C2500003F0FAFDD9E70E20C8E70000D41403006C
:10C26000F8B505000C4620D0002C1ED028881128D7
:10C2700006D0A0F130011F2902D950381F2814D848
:10C28000AE8820463146FDF783F9ADF800002188DD
:10C2900081420AD02988112908D0A168C0EBC000CA
:10C2A00001EB8000314603F0CFFDF8BD62684FF628
:10C2B000FF7122F810106946E06801F0F0FEF8BD49
:10C2C00020B10278DE2A03D0082070470E20704784
:10C2D00041800020704760B159B10278DE2A0AD04F
:10C2E00009684160DE2101704FF6FF714180002036
:10C2F00070470E207047082070477FB5054600291B
:10C300004DD0002D4BD008780C46DE2847D1A888A8
:10C310006188884202D1204604F05AFE288801280C
:10C3200025D002283BD011283AD0512837D135F8F2
:10C33000040F6188884232D1A978A81C02292ED125
:10C34000017A042903D0062901D0052927D100212B
:10C35000009102228DF8002001914FF4C0720291E9
:10C360000391ADF80420007A05280FD010E0297A57
:10C370002046012913D1A988428891420FD1012179
:10C38000017204B0BDE8704004F022BEADF80410A4
:10C3900028886946B0DF002801D0616888477FBDE2
:10C3A000A88861888842FAD14FF6FF7060807FBD0F
:10C3B0002DE9F041044600F12E0700F1240590F824
:10C3C0002C6090F8230086B001F10208002814D0F8
:10C3D0008BDF14216846FAF78EF833462A46394631
:10C3E00040468CDF05218DF800100190002804D014
:10C3F000E16B002901D06846884706B0BDE8F081AE
:10C400004FF4C8714185062181841821C18400211F
:10C410000185704710F82E1FA02242805022828092
:10C4200021F018010022C28041F0040101700121B5
:10C43000417070472DE9F04120B11AB121B10720B8
:10C44000BDE8F0810E20FBE7054600F12004904690
:10C450001046FAF75BF810F0FF0001D0202801D950
:10C460000C20EDE7207808B10420E9E700263746E4
:10C4700005EB46104146FAF750F880B1761C16F0ED
:10C48000FF06F5D04046FAF741F8024620784146CB
:10C4900005EB4013401C20701846FAF705F83846A3
:10C4A000CEE720B1002180F82110084670470E2009
:10C4B000704710B50B46040002D0980702D009E07F
:10C4C0000E2010BD580705D4D80603D4180701D490
:10C4D000072010BD2046FFF7E4FFD80702D0012057
:10C4E00084F8210084F82220002010BD70B50D468C
:10C4F000040012D02321E263F9F7FDFFEDB12879A2
:10C5000084F82300287B84F82C00296839B10E2296
:10C5100004F12E00F9F7C8FF04E00E2070BD20469C
:10C52000FFF778FFA86820B1016861624068A062E7
:10C530000CE02046FFF764FF08E02046FFF76AFFA3
:10C540002046FFF75DFF002084F8230004F140003F
:10C5500020661F20A4F86400002070BD2DE9F04F74
:10C5600087B00F4604464FF0000A5646142168462D
:10C57000F9F7C1FF04F12E0004902046FEF780FB7E
:10C58000010004F16000059010D002208DF8000039
:10C590000197E16B68468847002005998ADF394694
:10C5A0002046FFF705FF07B0BDE8F08F94F8229012
:10C5B00094F821004FF00008E8B194F820B0B88B4F
:10C5C0004FF0010A0025069013E000BF04EB45126E
:10C5D000B8690699FBF7FFF948B19DF808004FF0DC
:10C5E000010840F001008DF80800761C03E06D1C86
:10C5F000EDB25D45EAD30197B9F1000F01D0564580
:10C6000002D038EA090007D000208DF80000394632
:10C610002046FFF7CDFE02E003208DF80000E16B1D
:10C6200009B168468847002005998ADFBBE770B5E5
:10C630000D46014601F108020C1D284609882E35D9
:10C6400086B010291ED01B2907D01D292DD106B078
:10C650001146BDE87040FFF781BF064614216846C9
:10C66000241DF9F748FF207801281ED1F06B00281F
:10C670001BD004208DF80000049520788DF804006C
:10C68000F16B10E0064614216846F9F734FF0620E6
:10C690008DF80000201D01902088ADF80800049559
:10C6A000F16B002901D06846884706B070BD0000D4
:10C6B00030B585B0040028D014216846F9F71BFF77
:10C6C0008BDF2046FEF7DCFA012528B1E16B19B1BA
:10C6D0008DF800506846884704F1600104F12E008F
:10C6E0008ADF0446082812D08CB10A48408848B135
:10C6F00009480A492246401AC00805EB004008A133
:10C7000001F00AFA204605B030BD0E20FBE70020FC
:10C71000F9E70000583B002060320300E0310300DD
:10C7200073645F626C655F6761705F7363616E5FA6
:10C7300073746172742072657475726E65642030F2
:10C74000782578008BDF70472DE9FF5F8B46164810
:10C7500014499A46091A0F09914652F8046C0025AB
:10C76000804607E008EB05143046A168F9F7D5FECE
:10C7700018B16D1CBD42F5D30BE0210009D0009823
:10C7800004B04B465A46D446BDE8F04F5DF804EB82
:10C790006047009804B03346BDE8F05F03A2022171
:10C7A00000F09CBAE0310300B0310300496E7661BD
:10C7B0006C6964206261636B656E643A2025730D59
:10C7C0000A00000070B515468268D2F84841C4F3EB
:10C7D000400424B11A46294600F0A8FA05E031B118
:10C7E000536804A2022100F079FA012070BD0020F4
:10C7F00070BD000025733A2077726F6E67207061FC
:10C8000072616D6574657220636F756E740A0000E5
:10C8100010B5044602290CD1A068D0F84801C0F335
:10C82000400030B120460022BDE81040114600F023
:10C830007DBA064A06A1206900F032FD034A20694C
:10C84000BDE81040093202A100F02ABDED16030038
:10C8500025730000012907D0022909D18168D1F888
:10C860004811C1F3400119B10022114600F05EBA2F
:10C8700001A2022100F032BA506C65617365207329
:10C88000706563696679206120737562636F6D6D91
:10C89000616E642E0A0000001CB5012905D0022932
:10C8A0000BD014D94FF0010112E002B04FF000029A
:10C8B000BDE81040114600F039BA536808A1CDE92F
:10C8C000001313680CA2022100F008FA1CBD00211D
:10C8D00002B00023BDE810401A46FFF773BF000006
:10C8E00020756E6B6E6F776E20706172616D65740E
:10C8F00065723A200000000025733A257325730AFB
:10C900000000000010B50446012901D0012100E01B
:10C91000002100231A46FFF755FF002809D1A1681E
:10C92000C1F83801E06840680068BDE8104001F0D7
:10C93000ABBB10BD3EB50546012901D0012100E089
:10C94000002100231A46FFF73DFF002818D1E868B0
:10C9500040680468204601F094FBC0B2642110FBDB
:10C9600001F2A168B2FBF1F2D2B20092CDE901016D
:10C97000A86804A20021D0F83831284600F0AEF9AA
:10C980003EBD00004C6F7374206C6F67733A2025B6
:10C99000750A4D6178206C6F67207175657565202B
:10C9A0007574696C697A6174696F6E3A20257525B2
:10C9B00025205B25752F25755D0A00007CB5144682
:10C9C0000546012903D0022908D0012107E002B061
:10C9D0000022BDE87040114600F0A8B900210023F4
:10C9E0001A46FFF7EFFE002809D1616804A0CDE9DF
:10C9F000000109A202212846236800F06FF97CBDDE
:10CA000020756E6B6E6F776E20706172616D6574EC
:10CA100065723A200000000025733A257325730AD9
:10CA20000000000010B50446012901D0012100E0FA
:10CA3000002100231A46FFF7C5FE002806D1A06892
:10CA4000D0F8481121F00401C0F8481110BD10B50C
:10CA50000446012901D0012100E0002100231A46EB
:10CA6000FFF7B0FE002806D1A068D0F8481141F0C9
:10CA70000401C0F8481110BD7CB514460D460646A9
:10CA8000022901D9012100E0002100231A46FFF705
:10CA900099FE002811D1022D05D03046FBF7E4FEA7
:10CAA00060B10BA30BE061680AA0CDE900010FA201
:10CAB00002213046236800F011F97CBD0EA302B0BC
:10CAC0003046BDE870400DA2002100F007B900001B
:10CAD0006F6E000020756E6B6E6F776E20706172E6
:10CAE000616D657465723A200000000025733A2577
:10CAF0007325730A000000006F6666004563686F67
:10CB0000207374617475733A2025730A0000000065
:10CB100010B50446012901D0012100E000210023C5
:10CB20001A46FFF74FFE002806D1A068D0F848113A
:10CB300021F00801C0F8481110BD10B504460129C4
:10CB400001D0012100E0002100231A46FFF73AFE40
:10CB5000002806D1A068D0F8481141F00801C0F8BB
:10CB6000481110BD7FB50446012901D0012100E024
:10CB7000002100231A46FFF725FE002827D1A068D0
:10CB80000026D0F84051F5B101E0082E1BD2002359
:10CB9000092201A9284601F0CDF99DF80C20A168D1
:10CBA00009232846A031521C01F0C4F9A06833467D
:10CBB000A0300090029D761C05A20021204600F0C6
:10CBC0008DF8002DE1D1A168002081F8A0007FBD83
:10CBD0005B2533645D2025730A0000007CB5154693
:10CBE0000446012903D0022917D9012116E0A168C2
:10CBF00001F11802193103F0D3FD00281ED0A168FD
:10CC000050200FA24876A1681820087602B020466E
:10CC1000BDE87040042100F061B8002100231A46ED
:10CC2000FFF7D0FD002809D1696814A0CDE9000103
:10CC300018A2022120462B6800F050F87CBD0000AD
:10CC40004E6F20726573706F6E73652066726F6DC4
:10CC500020746865207465726D696E616C2C20614A
:10CC60007373756D65642038307832342073637265
:10CC700065656E2073697A650A00000020756E6B29
:10CC80006E6F776E20706172616D657465723A20A7
:10CC90000000000025733A257325730A0000000088
:10CCA00010B50446012901D0012100E00021002334
:10CCB0001A46FFF787FD00280AD1064A06A1206917
:10CCC00000F0EEFAA16850204876A1681820087696
:10CCD00010BD000006170300257300000FB438B51F
:10CCE000044607A80090A068D0F84821520717D53D
:10CCF000C27E8A4214D0B0F81B50204604F010FACD
:10CD00006A462069069900F0E4FAE9B2204604F088
:10CD100007FA290A204604F0E5F938BC5DF814FB4F
:10CD20006A462069069900F0D4FAF6E72DE9F04F3B
:10CD3000804689B017460C468648FCF773F80546CE
:10CD400084483638FCF76EF8281A1FFA80F98148B3
:10CD500081A223380090D8F8080008214368404693
:10CD6000FFF7BCFFD8F808004068FCF75BF8054601
:10CD700078482338FCF756F8284482B2D8F80800DF
:10CD8000002381684046FDF7AFFA75A200214046B6
:10CD9000FFF7A4FF0FB304B300251CE005EB450A21
:10CDA00004EB8A0BDBF80400FCF73CF8064654F869
:10CDB0002A00FCF737F8311849450BD9DBF8040095
:10CDC000FCF730F8064654F82A00FCF72BF83044FC
:10CDD0001FFA80F96D1CBD42E0D35E483638FCF77F
:10CDE00021F84844801C1FFA80F95A4800904B46AD
:10CDF0005EA208214046FFF771FF09F1030086B2E9
:10CE00000790002332465BA14046FDF76DFA002CE7
:10CE100052D000254EE000BF05EB450A04EB8A0B1B
:10CE200054F82A00DBF804306BB350B3494956A2DA
:10CE30003639CDE9001008214046FFF74FFF09F1D0
:10CE400002000090DBF80400FBF7ECFF064654F804
:10CE50002A00FBF7E7FF06443E483638FBF7E2FFBF
:10CE600031180098401A801EC1B24046FCF7FCFD04
:10CE70003A224849D8F8100000F012FA0098401CF5
:10CE80000AE0009301E040B100904B4637A2082130
:10CE90004046FFF723FF079886B2DBF8081029B158
:10CEA000002332464046FDF71FFA02E04046FCF7F9
:10CEB0000DFD6D1CBD42AFD3D8F80800C068002836
:10CEC00045D0814600200446064603AD0290324616
:10CED000761C02AB012148460095FCF73DFA02980A
:10CEE00050B10068FBF79EFFA042F0D9029800689D
:10CEF000FBF798FF84B2EAE7012E28D026A2002192
:10CF00004046FFF7EBFE00263246761C02AB0121BD
:10CF100048460095FCF720FA0298002817D0A11C7B
:10CF20008FB2006800903B4610A208214046FFF7F0
:10CF3000D5FE0298FF1CBAB2416821B100234046D9
:10CF4000FDF7D2F9E0E74046FCF7C0FCDCE709B0AA
:10CF5000BDE8F08F0C170300257325730000000057
:10CF60004F7074696F6E733A0A0000002020252DFF
:10CF70002A733A0053686F7720636F6D6D616E643A
:10CF80002068656C702E00002020257325732573A2
:10CF90000000000088830200537562636F6D6D614D
:10CFA0006E64733A0A0000008068D0F84801C0F34C
:10CFB000400070472DE9F0411E460546069F00F0EF
:10CFC00013F804000DD166B13946E86800F042FB61
:10CFD000002802DA0420BDE8F081E8680121C06879
:10CFE00041712046F7E7000070B50446C068154659
:10CFF000234640688460606802681668254AB04726
:10D00000002845D1606900F084FF002840D1A16864
:10D01000C1F83C01A168C1F840014FF4A671A068B5
:10D02000F9F769FAA068D0F8481141F02001C0F87A
:10D030004811A068D0F8481165F38201C0F8481182
:10D04000A068D0F8481141F00801C0F84811A16863
:10D050000120124B0870A1685020114A4876A1683F
:10D060001820087600210C48D21A06E003EBC10410
:10D070006468246840F82140491CB1EBD20FF5D315
:10D08000072A04D9D108074B0422F9F7BFF9002079
:10D0900070BD000049910200F43A0020683103009D
:10D0A000B0310300990703000023FCF7F7B8000034
:10D0B00010B504468068102100F5A470FEF74FFCFF
:10D0C000A0680078F8B101281DD002281BD12046A5
:10D0D000FBF75AFD00212046FBF7FEFB98B110A29A
:10D0E000032120462368FFF7F9FD2046FBF7BCFB30
:10D0F00048B1A3680AA2082120462033FFF7EEFDBD
:10D100002046FCF77BFC206900F0D7F8A068BDE85A
:10D1100010406FF0100100F5A470FEF70BBC00008A
:10D120002573000070B5044680680078012801D09E
:10D13000082070BD606801688A680021904705007A
:10D140000FD10821204603F0EBFF0121204603F018
:10D15000C9FF05A1206900F0A3F802212046FBF7D2
:10D160004DFE284670BD00000A0A000000F1804014
:10D170000068002800D00120704708B500F1804009
:10D18000002101600068009008BD000070B50D4CE2
:10D190000125207808B185260EE00020A06060609F
:10D1A0002061E060084801F041FC064601F068FBA0
:10D1B00008B901F025FC257001F01AFC00B1A5703A
:10D1C000304670BD444500201D93020038B500254F
:10D1D0008DF800506846FAF7F3F9084CE068401EF5
:10D1E000E060E06828B901F003FC10B901F02EFC02
:10D1F000A5709DF80000FAF707FA38BD44450020F5
:10D20000F0B505460478154889B0164640F8242044
:10D21000124A0869121DA2F1080742F82400487F4B
:10D22000385520226846F9F73FF904942878385C8D
:10D2300048B10EB10A4A00E000226946281D01F0FB
:10D240009FFF09B0F0BD0EB1064A00E0002269461A
:10D2500005F10C0001F0DEFDF3E700009839002035
:10D26000BD0D0300050C030030B40378054CE35CEE
:10D270001BB130BC001D02F051B830BC0C3001F0C5
:10D28000B3BE0000943900200178044A515C11B10A
:10D29000001D02F0A7B80C3001F00ABF943900203D
:10D2A0000FB408B50399002904D004AA00926A4675
:10D2B00000F00FF801B05DF814FB10B58268044669
:10D2C000002A05D0D4E90403216898470020A06013
:10D2D00010BD2DE9FC4791460C00804676D014F82D
:10D2E000011B39B125290ED04046FAF703FE2078FC
:10D2F0000028F4D198F80C00002867D04046BDE81B
:10D30000FC47FFF7DABF0020012221782B291BD030
:10D310002D2902D0302908D102E040F0010001E0BF
:10D3200040F00200641C002AEFD100252A290ED00B
:10D330002178A1F130020A2A11D205EB850201EB16
:10D340004205641C303DF1E740F00400EAE7D9F8FB
:10D3500000100B1DC9F800300968641C0D442178C9
:10D3600000232E290BD114F8011FA1F130020A2A43
:10D3700005D203EB830201EB4203303BF3E76C2958
:10D380000DD068290BD0692921D00BDC252918D0B4
:10D39000582931D063290ED0642915D117E014F82B
:10D3A000011FECE7702969D0732932D075291BD091
:10D3B000782909D120E0D9F80000011DC9F8001032
:10D3C00001784046FAF796FD641C90E76CE0D9F8C6
:10D3D00000100A1DC9F800200968CDE900500A2292
:10D3E0004046FDF715FBEFE7D9F800100A1DC9F814
:10D3F000002009680A2206E0D9F800100A1DC9F8C1
:10D40000002009681022CDE90050404603F086FD57
:10D41000DAE7D9F8001000270A1DC9F800200E68C5
:10D42000C00705D112E04046761C7F1CFAF762FD6A
:10D4300031780029F7D104E0202140466D1EFAF72B
:10D4400059FDBD42C0D9002DF6D1BDE74EB13046E1
:10D45000F9F75CF8074604E0202140466D1EFAF714
:10D4600049FDBD4206D9002DF6D103E04046761CA9
:10D47000FAF740FD31780029F8D1A5E7D9F8000086
:10D48000011DC9F80010056830214046FAF732FD49
:10D4900078214046FAF72EFD08200021CDE9000151
:10D4A000034610222946B0E7BDE8FC8770B541EA83
:10D4B0004201DDE904564FF0A04441EA830141EA0C
:10D4C000052104EB800041EA0641C0F8001770BD59
:10D4D00070B541EA4201DDE904564FF0A04441EA4B
:10D4E000830141EA052104EB800041EA0641C0F8CE
:10D4F000001770BD70B541EA4201DDE904564FF0F6
:10D50000A04441EA830141EA052104EB800041EA9D
:10D510000641C0F8001770BD70B541EA4201DDE96F
:10D5200004564FF0A04441EA830141EA052104EB8F
:10D53000800041EA0641C0F8001770BD1CB500210B
:10D5400000910B4601220191FFF7D4FF1CBD1CB5D1
:10D55000002100910B4601220191FFF7DDFF1CBD68
:10D560001CB500220B46009211460192FFF7C2FF44
:10D570001CBD1CB500220B46009211460192FFF71C
:10D58000CBFF1CBD1CB5002100910B46012201916F
:10D590001146FFF7AFFF1CBD1CB5002100910B46E3
:10D5A000012201911146FFF7B7FF1CBD4FF0A042C9
:10D5B00002EB8000D0F8002722F44032C0F80027A8
:10D5C000D0F8002742EA0141C0F800177047000078
:10D5D00038B5094B44181B6800936B4608E000BF40
:10D5E00053F82010D1F8205520C2C1F82055401C16
:10D5F0008442F5D838BD0000EC14030042094FF016
:10D60000000100D1491E00F01F00012282400A42A1
:10D6100001D0012070470020704701224FF0A04345
:10D62000824011B1C3F808257047C3F80C25704734
:10D63000034908B50844002101600068009008BD56
:10D640000060004002494058012800D00020704787
:10D65000006000402DE9F0410E461E4905460024B9
:10D660000A6910460AE0C0680379A34205D1641C28
:10D670000A2CF6DB4FF0FF3428E000680028F2D1D6
:10D68000601C23D0E8680471086950B1C068EA687A
:10D69000006810600869C06805600027DFF83880FE
:10D6A00010E00D61E96800200860F6E708EBC700AC
:10D6B000C279B24200D33246E8683946007900F0B8
:10D6C00023FB7F1C00F0F2FAB842EFD82046BDE8F9
:10D6D000F08100001C680020E03103004068012157
:10D6E0008068FBF7F9B810B5406884686068016825
:10D6F0008A680121904718B10420A168087010BD04
:10D700000320FAE72DE9F3414468A668B068007881
:10D7100004281ED0032807D0002501A9206800F0A6
:10D72000BEFC85F0010709E00125F6E739463046E1
:10D73000FBF7D2F801A9206800F0B1FC0028F5D170
:10D74000019800F0E2FB002D03D000213046FBF7EA
:10D75000C3F8BDE8FC81F0B595B01C4615460F46F0
:10D7600008461A9E00F0D1FB182109A8F8F7C3FE5D
:10D770000E96CDE9095400230C2203A9384600F087
:10D78000D9FB05980690BDF81000ADF81C00BDF857
:10D790001200ADF81E0000208DF8210003980C2621
:10D7A00000F00300012802D0022818D032E00398CC
:10D7B0003346850AC0F3C2008DF8200003980FA9F4
:10D7C000C0F38314A200384600F0B4FB09A800900F
:10D7D00006AB22460FA9284600F0E2FA1AE00398A9
:10D7E000840DC0F3C2008DF82000082C01D225461C
:10D7F00000E0082533462A460FA9384600F09AFB78
:10D800002E44641B09AB06AA29460FA800F09CF918
:10D81000002CEAD1384600F07EFB15B0F0BD704711
:10D82000084810B50178084A515C19B1001D01F093
:10D83000D9FD02E00C3001F03BFCBDE810400020B7
:10D8400003F0FEB9503A00209439002008B5034A8D
:10D8500000924023024AFFF77EFF08BD2505030022
:10D86000844600200A4A012902EBC00007D00229A1
:10D8700007D0032907D0042907D0002070470220D1
:10D880007047042070470079704740797047000066
:10D89000E03103002DE9F04F8FB0FAF743FB18B1E8
:10D8A00000200FB0BDE8F08F8C4E0020B061BFF3B8
:10D8B0004F8FA6F500548A49A06802900D684FF07A
:10D8C000000A284004EB80000AE0B06970B9616882
:10D8D0000298814201D8A160E2E7284004EB800071
:10D8E0000C3002A9FDF72CF90028EED1002003AB83
:10D8F000A146029901EA050209EB8202491CD2689D
:10D9000043F82020401C02910328F2D3039800F032
:10D910000300022802D0012850D0C2E00398502210
:10D92000810D8B46B2EB905F00D850210C4664F31A
:10D930009F50C0F3C20803900C316A4800F09CFA73
:10D940000700EAD000F0E1FA53460C2203A938465A
:10D9500000F0F8FA02990AF10C0001902940681AC7
:10D960008000001D844222D95F4D30B1C2B209EB64
:10D970008101201A92460C3104E02946E2B20025CA
:10D9800092462846C4B23846019B00F0DBFA019863
:10D9900000EB0A0325B122462946384600F0D2FAA8
:10D9A00002990BF1030001EB900002903DE009EBBE
:10D9B0008101224638460C31019BEFE70398C0F302
:10D9C0008310062800D30620039960F38911C1F360
:10D9D0008310C1F3C208C01C03918100414800F0CC
:10D9E0004BFA07005DD000F090FA53460C2203A9D1
:10D9F000384600F0A7FA0AF10C0A00240FE002985A
:10DA0000534600EA0501401C09EB81010290042203
:10DA100038460C3100F096FA0AF1040A641C0398A7
:10DA2000C0F38310A042EAD8D7B33469B06910B309
:10DA3000384600F070FA4CE0E0684179012918D1CD
:10DA40000179BDF81000294A01EB410152F820008C
:10DA500007228A401040C8404146B8F1050F00D166
:10DA600003218846404504D3216820460A68394688
:10DA70009047E0680468002CDED1384600F04BFA8D
:10DA800000208DF800006846F9F79AFDB06910B9DA
:10DA90000299C9F808109DF80000F9F7B5FD18E0E3
:10DAA000FFE7346905E02168204689688847E06817
:10DAB0000468002CF7D10E484088022809D30D488D
:10DAC0000D49401AC008022101EB00400BA100F0F3
:10DAD0001FF8FAF727FA80F00100E2E61C68002040
:10DAE0006C3A00205433030028480020A83B002053
:10DAF000983B0020E0320300E03103004261636B99
:10DB0000656E647320666C75736865640000000060
:10DB100000231A4602F0EABD08B5012300926A46C6
:10DB200002F0E4FD08BD1CB5CDE9002302236A46DE
:10DB300002F0DCFD1CBD3EB5069C8DE81C000323F5
:10DB40006A4602F0D3FD3EBD2DE9F0470E46804601
:10DB50001C469246082940D894F80C900020207367
:10DB60001946104602F014F90025B54206D218F8FD
:10DB700005201BA12046FFF793FB03E01AA12046D6
:10DB8000FFF78EFB6D1C082DEFD318A12046FFF781
:10DB900087FB0025B54212D218F805707E2F08D8F1
:10DBA000F8F730FC0068C05D10F03E0F01D03A4637
:10DBB00000E02E220EA12046FFF772FB03E00DA12C
:10DBC0002046FFF76DFB6D1C082DE3D30122214693
:10DBD000504602F0B9F884F80C90BDE8F0870000D8
:10DBE0002025303278000000202020007C0000003A
:10DBF00025630000200000002DE9F04704001BD041
:10DC0000224A4FF00008084682F8008000F024F90C
:10DC10001F48C4601F4800F07CF900280DD11E4841
:10DC200000F014FC1D49DFF87890DFF878A0A1EB34
:10DC30000900C608002417E00720BDE8F087002788
:10DC40003D460CE0AC4209D059F8340059F8351083
:10DC50001422F8F786FC002800DD7F1C6D1CB542FD
:10DC6000F0D32AF82470641CB442E8D30020414663
:10DC700053460D4D06E000BF03EB8004618045F87C
:10DC80002010401CB042F7D30020D6E71C480020EB
:10DC90001C680020543303003019030000330300D4
:10DCA000E0310300183B0020A83B00200248034954
:10DCB000401AC0087047000000330300E031030041
:10DCC0007FB505461146002401A873B1FDF740FD5C
:10DCD00098B90B480199072250F8210005EB45013E
:10DCE0008A401040C840C4B207E0FDF731FD20B9BA
:10DCF0000448019900EBC100847904B0204670BD4E
:10DD0000A83B0020E031030070B5114B00EB400050
:10DD100003EB81040F4B02F0070203EB81010723A1
:10DD200003FA00F60D688240B5432A4300200A60DA
:10DD30004FEA000103FA01F51540CD40ADB285422E
:10DD400000D92846C91C0A29F4D3608070BD0000A0
:10DD5000183B0020A83B002013B56846FDF7F8FCEF
:10DD600008B100201CBD0248009950F831001CBDCC
:10DD7000E031030070B5094801250469A0F50050A1
:10DD8000057007E0E06845712168204649688847CA
:10DD9000E0680468002CF5D170BD00001C6800200C
:10DDA0002DE9FF4781460C9D00200C462F7B2873F0
:10DDB000984616462946184601F0EAFF072E42D239
:10DDC000DFE806F004090F161F2A360049462846E8
:10DDD000FFF766FA37E0494628462268FFF760FAFF
:10DDE00031E0D4E9002349462846FFF759FA2AE0F2
:10DDF000A0680090D4E9002349462846FFF750FA6E
:10DE000021E0D4E90201CDE90001D4E9002349462B
:10DE10002846FFF745FA16E004F1080007C88DE828
:10DE20000700D4E9002349462846FFF739FA0AE0FB
:10DE300004F108000FC88DE80F00D4E9002349461B
:10DE40002846FFF72DFA00222946404601F07CFFC4
:10DE50002F73BDE8FF870000054A0121054B516083
:10DE600001E0400849009842FBD8C2E90001704730
:10DE7000A83A002040420F002DE9F041058B804672
:10DE80002D1F4819C01CB0FBF5F0C6B24046FDF787
:10DE900072FD041E19D00020207101206071E58000
:10DEA00000272546761EC4F800800BE04046FDF7AB
:10DEB00062FD60B16179491C6171286005467F1C73
:10DEC000C0F80080B742F1D32046BDE8F08120467B
:10DED00000F002F80020F8E72DE9F041457901460D
:10DEE0006B1E002201E00968521C9A42FBD30F68A6
:10DEF0000146002605E038460C68FDF75EFD214628
:10DF0000761CAE42F7D3BDE8F0810121001DFDF77C
:10DF10000BBDFDF76ABD10B504460121001DFDF7DC
:10DF200024FD10F0FF0F04D12046BDE81040FFF79C
:10DF3000D3BF10BD1CB501920122009201AAFDF7CA
:10DF4000B4FB1CBD1CB501920022009201AAFDF792
:10DF5000ACFB1CBD70470000064910B5002048709E
:10DF6000091D0860BFF35F8F0349044800F0ACFC53
:10DF7000002010BD443A00207417030078460020AA
:10DF800008B500208DF800006846F9F719FBF1EE9E
:10DF9000100A20F09F00E1EE100ABFF35F8F0849DE
:10DFA0004020C1F880029DF80000F9F72DFB00F039
:10DFB00067FC08B141DF08BD20BF40BF20BF08BDDE
:10DFC00004E000E02DE9F8430446002790460E46A1
:10DFD0008DF800706846F9F7F3FA204600F039F83A
:10DFE00038B105279DF80000F9F70EFB3846BDE86B
:10DFF000F88320680568B8F1000F05D10168204654
:10E0000000F046F821680860E268012A0CD0022A74
:10E010000ED0042A11D06068082A13D005FB020133
:10E020003046F8F741FADDE76068405D3070D9E7C7
:10E03000606830F815003080D4E7606850F825003B
:10E040003060CFE700EBC501D1E90001C6E900016E
:10E05000C8E7016808684968884201D10120704713
:10E060000020704701680A6849688068884201D9C1
:10E07000491C00E00021914201D10120704700209D
:10E0800070470068806870470068002181607047B1
:10E090008068884201D9481C7047002070472DE9EC
:10E0A000F84304464FF000080E468DF8008068469D
:10E0B000F9F786FA2046FFF7D5FF07000AD0207C43
:10E0C00040B14FF004089DF80000F9F79DFA404672
:10E0D000BDE8F8832068456841682046FFF7D8FF0F
:10E0E0002168486037B1206801682046FFF7D0FFFB
:10E0F00021680860E268012A14D0022A16D0042A96
:10E1000019D0082A1CD06068314605FB0200F8F7D8
:10E11000CBF9204601F02AFF21688A688242D2D2D8
:10E120008860D0E7616830784855F2E761683088E8
:10E1300021F81500EDE76168306841F82500E8E74F
:10E14000D6E90001626802EBC502C2E90001E0E71E
:10E150002DE9F04F8146806889B0D0F84801C0F3BE
:10E16000400038B109B04846BDE8F04F00221146E2
:10E17000FEF7DCBD012907D909B04846BDE8F04FDC
:10E180001DA20221FEF7AABD2049DFF884B0A1EB51
:10E190000B001C21B0FBF1F8002526E0C5EBC50102
:10E1A0000BEB81042068D4E9026A8768204600F0FE
:10E1B0003FF86421794364224243B1FBF6F1B2FB9C
:10E1C000F6F26369247CACB112A400BFCDE9066409
:10E1D000CDF800A00597CDE90120CDE90361104AF3
:10E1E00008214846FEF77AFD6D1C4545D6D309B097
:10E1F000BDE8F08F0BA4E9E74261642061726775A6
:10E200006D656E7420636F756E740000C433030017
:10E21000703303004E6F206F766572666C6F770007
:10E22000EC2403004F766572666C6F770000000087
:10E2300038B5044600208DF800006846F9F7C0F9AB
:10E24000204601F093FE04469DF80000F9F7DCF942
:10E25000204638BDF9F748B92DE9F0411F001546B1
:10E260000E46044606D0A068FDF75BFB10B11120F6
:10E27000BDE8F081A068D0E903316068A3EB010C30
:10E28000421C944507D10020286017B1A068FDF713
:10E290003FFB0020ECE703EA000201EA0007BA4274
:10E2A00001D3831A01E0181A0B1A28685B1C9842E4
:10E2B00000D203462B60206810443060A0682A68B2
:10E2C000C1681144C160E4E72DE9F041054680686A
:10E2D00017468846001DFDF724FB10B11120BDE84C
:10E2E000F081A868816800690C1A3868A04200D2E1
:10E2F00004463C60AA6869681069926808400A4050
:10E30000824201D9161A01E00E1A761CB44208D9CD
:10E310002968324601444046F8F7C6F8A41B00209D
:10E32000B0442968224601444046F8F7BDF8A86881
:10E330003A68016911440161A868001DFDF7E8FA17
:10E340000020CCE72DE9F041054617468846806855
:10E35000FDF7E7FA10B11120BDE8F081A8688168E7
:10E360000069081A69680C1A3868641CA04200D257
:10E3700004463C60A8686968806808400E1A761CEC
:10E38000B44208D92968324608444146F8F78CF867
:10E39000A41B0020B0442968224608444146F8F7EF
:10E3A00083F8A8683A68816811448160A868FDF71D
:10E3B000AFFA0020D0E710B5826894681369E41AB8
:10E3C000A14201D9042010BD194411618268516134
:10E3D0008068001DFDF79CFA002010BD2DE9F0417A
:10E3E0001E0014460F46054607D0A868001DFDF71D
:10E3F00098FA10B11120BDE8F081A86881684069E1
:10E400000A1A09D06B681840194081420DD9266854
:10E4100096420AD9226010E0002020601EB1A86850
:10E42000001DFDF775FA0020E5E7814205D8191AAD
:10E430002268491C8A4200D9216029680844386052
:10E44000A8682268416911444161ECE782680021B3
:10E45000916082681161826851618268D1608268CE
:10E46000516080680160704770B582684568946843
:10E470001369E31AEB1A5B1C994201D9042070BDA1
:10E48000214491608268D1608068FDF744FA08B148
:10E49000002070BD082070BD08B5002242504058D1
:10E4A000009008BD08B5002242504058009008BDB9
:10E4B00020B1034909680160002070470E207047B1
:10E4C000041B03002DE9FE4306460D460846FFF7F0
:10E4D000EFFF00287DD18146CDF80090CDF8049063
:10E4E0004FF4C8708DF800604FF00108ADF80400DB
:10E4F000CDF808908DF80280694620202A6869DFEF
:10E500004449454A424F891AC908012202EB014495
:10E5100040B1798831B100F045FA024620463F49C2
:10E52000FFF7FAFACDF800908DF801808DF802809F
:10E53000CDF80490CDF808908DF80380694640200E
:10E540002A6869DF40B1798831B100F02BFA0246C0
:10E5500020463349FFF7E0FACDF800908DF80060CF
:10E56000F720ADF80200CDF80490CDF80890694688
:10E5700023202A6869DF40B1798831B100F012FAAE
:10E58000024620462749FFF7C7FACDF80090CDF89C
:10E590000490CDF808908DF800804E466946012021
:10E5A0002A6869DF40B1798831B100F0FBF9024691
:10E5B00020461D49FFF7B0FA4FF4B0600090019675
:10E5C00002966946A1202A6869DF50B1798841B175
:10E5D00000E01AE000F0E6F9024620461349FFF792
:10E5E0009BFA0096019602968DF800606946A0207D
:10E5F0002A6869DF40B1798831B100F0D3F9024669
:10E6000020460B49FFF788FA0020BDE8FE83000092
:10E61000A03B0020F0320300E0310300F82C03009F
:10E62000402D03008C2D0300582C0300A42C030064
:10E63000042C03002DE9F0470546D0F8008060DF88
:10E640002249234A2B68891ADFF87C90CE080746B6
:10E65000434525D9B9F80200022821D3022000EB56
:10E66000064004461BA1FFF753FAB9F8020002283E
:10E6700016D32046424623A12B68FFF754FAB9F877
:10E68000020002280CD34FF08050D0F80C0129680A
:10E69000800200F10050421A204627A1FFF73CFA01
:10E6A000012477B1B9F8020040B1384600F07AF998
:10E6B000024604EB06402BA1FFF72EFA3846BDE8D0
:10E6C000F08730480470F9E7A03B0020F0320300E7
:10E6D000E0310300496E73756666696369656E743F
:10E6E0002052414D20616C6C6F63617465642066DB
:10E6F0006F722074686520536F6674446576696331
:10E70000652E00004368616E67652074686520525D
:10E71000414D207374617274206C6F636174696F12
:10E720006E2066726F6D203078257820746F2030EF
:10E730007825782E000000004D6178696D756D2098
:10E7400052414D2073697A6520666F722061707046
:10E750006C69636174696F6E206973203078257805
:10E760002E00000073645F626C655F656E61626CB1
:10E770006528292072657475726E65642025732E74
:10E7800000000000EB3A002030B51548ADF5017DE2
:10E790000078002821D04FF4FA7500BFADF8005280
:10E7A00080A9684661DF38B1052816D00DF5017DD6
:10E7B000BDE83040F8F798BE6C460A497DA800F0E5
:10E7C00083F806E0D0E90021204690477DA800F0BC
:10E7D00092F87F980028E1D0F4E70DF5017D30BD77
:10E7E000EB3A0020081B03007CB5194C207808B1D7
:10E7F00008207CBD0120A070002001F065FE1128DA
:10E8000019D0002001F078FE12480026006801901F
:10E810008DF800606846F8F7D3FE0F4901A810DFB5
:10E8200005000AD0002020709DF80000F8F7ECFEEB
:10E830002DB128467CBD00207CBD0120F3E7A670E9
:10E84000667001F009FF012001F056FEF3E70000B9
:10E85000E83A00209C1A0300557402000EB50749DF
:10E86000684600F031F805E0D0E9001088476846B6
:10E8700000F041F802980028F6D10EBDB81A030046
:10E880000148007870470000E83A00201FB568464C
:10E890004BDF30B1052814D004B0BDE81040F8F7C4
:10E8A00023BE084901A800F00FF806E0D0E90021D6
:10E8B0000098904701A800F01EF803980028E6D0C1
:10E8C000F4E71FBD241B0300016009684160AFF33A
:10E8D000008010B5D0E900215368994201D1002190
:10E8E00004E0D1E90034A34202D01946816010BD92
:10E8F00008314160F0E7816800290BD00268926816
:10E900000A44826041684B689A4203D108314160F1
:10E91000FFF7DFBF704770B50D460646446804E058
:10E92000B2682946904718B1246820680028F7D1BA
:10E9300020682860256070BD4068006870474168A5
:10E940000868002801D002680A607047024600206B
:10E95000526806E08B4203D10868106001207047BE
:10E960001A461368002BF5D1704700000C4A10B509
:10E9700002F594730EE0991AC91001EBD171491098
:10E9800002EBC1010C68844201D90B4602E005D2BA
:10E9900001F108029A42EED3002010BD486810BD74
:10E9A000CC17030000B5FFF7E1FF002800D10148B4
:10E9B00000BD0000B81703004058002800D0012017
:10E9C000704708B5002242504058009008BDD0F86A
:10E9D0000403084000D0012070474058002800D0B0
:10E9E0000120704708B5002242504058009008BDF1
:10E9F00002480068002800D0012070470004014050
:10EA000008480068012110F0010F06D14FF0E02006
:10EA1000C02280F800248430C167034901200860C7
:10EA20007047000000E100E018050040064902467A
:10EA300000200B790BB1852070470A6001220A7112
:10EA400000224A7170470000A0390020022010B552
:10EA50004107C1F808034FF48270FEF78EFB0549A9
:10EA60000120086004480168C1F300410029FAD17F
:10EA700010BD00000C00004018040040002802D027
:10EA800001498001084770472115030010B504466D
:10EA900001F0E0F828B12046BDE810400021FEF763
:10EAA00085BD204601F0E2F800280FD02046F9F796
:10EAB0001FFB074A02EB8001D1F8103523F0010358
:10EAC000C1F8103501218140C2F8081310BD0000C3
:10EAD000006000402DE9F0410E46054601F0BAF80D
:10EAE0000028284619D0F9F703FB083801F024F96B
:10EAF000032802D001280ED007E04FF0A040D0F844
:10EB00001005E84010F0010F05D003212846BDE8AC
:10EB1000F041FEF74BBD0221F8E701F0A7F800280D
:10EB200022D02846F9F7E4FA04464FF4807000EB4F
:10EB300084000E4F81B207EB8400D0F8102542F01C
:10EB40000102C0F810250846FEF772FD002E0BD01A
:10EB50002846F9F7CDFA064951F82000002803D0DD
:10EB60000120A040C7F80403BDE8F0810060004028
:10EB7000584500202DE9FC41DFF8B880044608EB39
:10EB80000400002790F930001346C0170E46401CC1
:10EB900001D008274AE0B0781946C0F34002204669
:10EBA000F9F782FA0546401C3FD0B078410717D4E8
:10EBB000C0070AD04FF0A04000EB8400D0F8001747
:10EBC00021F00201C0F8001707E000217378204609
:10EBD00000910A460191FEF77BFC204601F02CF8DB
:10EBE000B078800718D51448317800EB8500D0F84C
:10EBF0001025124B1A40C0F810254FF4F8524FF46C
:10EC0000403302EA042203EA01410A43D0F8101516
:10EC10000A43C0F8102509E008EB0500327810F827
:10EC2000481F41EA8211017000E004273846BDE820
:10EC3000FC8100005845002000600040FFE0FCFF20
:10EC40004FF0A041D1F81015C14011F0010000D0E3
:10EC50000120704770B5194D95F8580008B108208B
:10EC600070BD0024661E2046FEF7C8FC10B12819AE
:10EC700080F83060641CE4B2202CF4D300242046D9
:10EC8000F9F704FA641CE4B20C2CF8D300200D4907
:10EC900068650B4CC02081F8000401264020891FC4
:10ECA000C1F800014FF4BE70FEF7C2FCA004C4F826
:10ECB000040385F85860002070BD0000584500200E
:10ECC0000060004006E000E0034890F8580000288B
:10ECD00000D0012070470000584500200121B1EB11
:10ECE000507F01D1012070470020704738B50D4694
:10ECF00001F09EF8040014D000208DF80000684652
:10ED0000F8F75EFC207928B19DF80000F8F77CFC4C
:10ED1000112038BD0120256020719DF80000F8F712
:10ED200073FC002038BD10B501F082F8002802D035
:10ED300000210160017110BD02680121516040791C
:10ED4000024A00EB4000115470470000B039002027
:10ED5000016801220A604079024A00EB400002216A
:10ED600011547047B039002030B54379204C44F835
:10ED700023204279231F02EB42029A5C0AB1082049
:10ED800030BD90F904208C78002A4FEA441404DB4B
:10ED900002F1E02282F8004405E002F00F0202F1E5
:10EDA000E02282F8144D90F904200124002A09DBA6
:10EDB00002F01F0504FA05F55209920002F1E02263
:10EDC000C2F8005102680D88C2F8085545790A79E1
:10EDD00005EB45051D446A704279C97802EB420291
:10EDE0001A449170407900EB40001C54002030BD63
:10EDF000B439002002680121C2F848130068C0F845
:10EE0000081370470149024801F042BFB445002091
:10EE1000002000402DE9F0410546007916460F46D6
:10EE200000EB40012D4A01EBC00102EB810494F894
:10EE30002A1011B10820BDE8F081294951F82010AD
:10EE40002868FFF753FF08B11120F4E73946284638
:10EE5000F8F7F4FB66603869206030004FF0010677
:10EE60002FD03F7F4FF48E712868FFF7AAFD4FF433
:10EE7000A2712868FFF7A5FD28681A49C0F8041395
:10EE800028684FEA471140F30730002804DB00F1FF
:10EE9000E02080F8001405E000F00F0000F1E02011
:10EEA00080F8141D286840F30730002809DB00F0C3
:10EEB0001F0106FA01F14009800000F1E020C0F8CE
:10EEC000001128680421C0F800150020A061E0614D
:10EED00084F8290044F8140FA675ACE7B445002067
:10EEE000F0140300800002002DE9F05F0546007970
:10EEF0004FF4017600EB400303EBC000344B03EB0F
:10EF000080040020636813B12B68C3F80863A36909
:10EF10004FF000096BB1E06938B1606810B1286842
:10EF2000C0F804631120BDE8F09FE2610120216177
:10EF300005E0C4F82490A261E160C4F81C9094F844
:10EF40002910014302D1284601F0BBF9606800286E
:10EF5000286803D0C0F804630020E4E74FF4A276E9
:10EF60003146FFF72EFDB2464FF4927B5946286892
:10EF7000FFF722FD06464FF484712868FFF71CFD59
:10EF8000804651462868FFF717FD074648EA070004
:10EF90003043EBD056EA070007D12146286801F03C
:10EFA00061F9A169606A8142E0D8C4F818900EB195
:10EFB0000320B8E70FB10F20B5E794F8291001201E
:10EFC0000029296801D00860C6E74860C4E700004E
:10EFD000B445002001684FF40172C1F808230068AD
:10EFE00001214160704700002DE9F05F054600797E
:10EFF0000B4600EB400101EBC000244901EB80040B
:10F00000284600F045F810B11120BDE8F09F62617C
:10F010004FF00009C4F82090A36084F828904FF4C2
:10F020008E784E4641462868FFF7CBFC28684FF0A3
:10F03000010AC0F808A02146286801F081FD606837
:10F0400008BBD5F800B067690FE000BF94F828004E
:10F0500008B10F2615E041465846FFF7ADFC0028E1
:10F06000F4D02146584601F06BFD206AB842F2D335
:10F07000574641462868FFF79FFC0028F9D02868CA
:10F08000C760C4F814903046BFE70000B4450020C4
:10F09000007900EB400101EBC000044901EB800066
:10F0A0004069002800D0012070470000B4450020CE
:10F0B0002DE9F047044600794FF0000900EB4001CC
:10F0C00001EBC000284901EB80072068C0F80095DB
:10F0D0007868B0B120682549C0F80813206840F36B
:10F0E000073000280DDB00F01F020121914040098C
:10F0F000800000F1E020C0F88011BFF34F8FBFF314
:10F100006F8F2068D0F80C25D0F81485D0F80865EA
:10F11000D0F810554FF0FF31C0F81415C0F80C1599
:10F120002068C0F80815C0F81015501C02D0104611
:10F13000FEF704FAB8F1FF3F02D04046FEF7FEF9B1
:10F14000681C02D02846FEF7F9F9701C02D0304640
:10F15000FEF7F4F92068FFF7E6FD87F82A90C7F874
:10F160000490BDE8F0870000B4450020840202004E
:10F170000149024801F03ABEE0450020002000406D
:10F180002DE9F0410546164600790F46154A00EB79
:10F19000C00102EB810494F8201011B10820BDE8F1
:10F1A000F081114951F820102868FFF79FFD08B140
:10F1B0001120F4E739462846F8F784FA6660386982
:10F1C00020601EB1397F2846FBF776FC28680821AD
:10F1D000C0F800150020A061E0616061012184F8A1
:10F1E0002010DCE7E0450020F41403002DE9F05F77
:10F1F000044600790E4600EBC001DFF8F0A0174688
:10F200000AEB81053046FFF769FDB0B168684FF041
:10F2100000084FF4047910B12168C1F80893A86977
:10F220004FF0000B80B1E86948B1686810B1206800
:10F23000C0F804931120BDE8F09F1020FBE7EF61B8
:10F240004FF001082E6102E0EE60C5E9067B002563
:10F250004FF488712068FFF7C5FB4FF4A271206856
:10F26000FFF7C0FB2068C0F83465C0F83875206827
:10F27000B8F1000F12D0D0F8001241F02001C0F810
:10F2800000122079D04600EBC0010AEB81004068F3
:10F2900038B12068C0F804932846CCE7012101600A
:10F2A000EFE74FF4887A4FF4A27951462068FFF7D0
:10F2B00094FB074649462068FFF78FFB06464FF44C
:10F2C00092712068FFF789FB014647EA0600084370
:10F2D000EBD0227902EBC20308EB8302C2F818B02C
:10F2E00001B10325002ED7D00F25D5E7E04500203A
:10F2F0000179094A01EBC10102EB8101C96931B110
:10F300000168D1F8002222F02002C1F80022006832
:10F310000121416070470000E04500202DE9F047E1
:10F3200004460E460079274900EBC00001EB80053A
:10F3300017463046FFF7D2FC30B1204600F044F8C3
:10F3400020B11120BDE8F0871020FBE76F61AE60AF
:10F350004FF490774FF0000839462068FFF742FBE2
:10F360004FF4AC7631462068FFF73CFB2068AA6872
:10F370006969C0F84425C0F8481520684FF00109B4
:10F38000C0F808906868D0B9BA4651462068FFF7BF
:10F3900024FB074631462068FFF71FFB0743F4D0E4
:10F3A00010B14FF00F0808E02068C0F80C9031460B
:10F3B0002068FFF712FB0028F9D000206861404662
:10F3C000C0E70000E04500200079054900EBC000DF
:10F3D00001EB80004069002800D001207047000048
:10F3E000E04500202DE9F047064600793D4900EB55
:10F3F000C00001EB8005346868680127A8B13A496C
:10F40000C4F80813306840F3073000280DDB00F023
:10F410001F0107FA01F14009800000F1E020C0F867
:10F420008011BFF34F8FBFF36F8FD4F8000220F02D
:10F430002000C4F80002A8694FF4A27820B1414628
:10F440002046FFF7CFFA67604FF4AC794946204673
:10F45000FFF7C8FAE760474649462046FFF7BDFA7E
:10F460000028F9D0A86928B139462046FFF7B5FA37
:10F470000028F1D04FF0000AC4F800A53068D0F899
:10F480000C25D0F81495D0F80885D0F810754FF0F9
:10F49000FF31C0F80C15C0F814153068C0F8081515
:10F4A000C0F81015501C02D01046FEF750F8B9F104
:10F4B000FF3F02D04846FEF74AF8781C02D0384693
:10F4C000FEF745F8B8F1FF3F02D04046FEF73FF89F
:10F4D0002046FFF728FC85F820A0C5F804A0BDE869
:10F4E000F0870000E0450020100342000349086057
:10F4F000034801680029FCD07047000004E5014082
:10F5000000E40140F8B52B4D06462C4A2C4B0088F0
:10F510006881294FD21AF07AA870D208032379881B
:10F5200003EB0244012802D0022805D00AE0032997
:10F5300008D3204623A103E0032903D3204628A1B2
:10F54000FEF7E6FAFDF7FEF8287874DFF8F77CFCA2
:10F5500069892948FCF7B4FE08B1F7F7C5FF788838
:10F56000032803D3204625A1FEF7D2FA114831889B
:10F570004830F8F7D5FA08B1F7F7B6FFA8780128B0
:10F5800017D1788803280AD3288BADF8000000989B
:10F5900000F03EFB0246204620A1FEF7BDFA0549D9
:10F5A000308818318FDF002803D0BDE8F840F7F726
:10F5B0009BBFF8BD68320020983B0020E03203007A
:10F5C000E0310300436F6E6E6563746564206173A0
:10F5D0002061207065726970686572616C2E000030
:10F5E000436F6E6E65637465642061732061206390
:10F5F000656E7472616C2E00EC3D0020446973638B
:10F600006F766572696E6720474154542064617457
:10F6100061626173652E2E2E0000000053656E64DA
:10F62000696E6720504859205570646174652C20BC
:10F6300025732E002DE9F84F05460C460888B5F8CD
:10F64000CA1288427DD195F8C6024FF0000B00EB3C
:10F650008001C1EB801005EB4006608800286AD16C
:10F660003079E288A71D8046D1B250FA82F2062A8C
:10F6700002D8084430711BE0DFF8F8A00620307192
:10F68000BAF80200022813D33B483C493288401A9A
:10F69000C108022000EB014081463949FEF73CFADF
:10F6A000BAF80200022803D348463649FEF730FA7A
:10F6B00040460022D8461BE000EBC00102EB82036B
:10F6C00007EB430306EB4101D3F802C0C1F80AC0BF
:10F6D000D3F806C0C1F80EC05B894B82A1F8148034
:10F6E000A1F81680A1F81880401CA1F81A80521CBD
:10F6F00031798142E0D895F8C61200EBC00001EBE9
:10F700008102C2EB811105EB410136F81000098935
:10F71000884210D2307906280DD085F8C50221889C
:10F720002846F8F765FF002813D022882946BDE84F
:10F73000F84FFAF7A3BB85F8C5B222886946284678
:10F7400000E006E0FAF7A8FA28B122882946FAF77D
:10F7500095FBBDE8F88F9DF800000028F9D02288BD
:10F7600001212846FAF730FB2188284600F098F955
:10F77000EFE700004C3B002048320300E03103007B
:10F78000501F0300981F030070B58D88027900EBAD
:10F79000C5042273C97BA41D012902D0022904D10A
:10F7A00001E0008800E04088208021886088814254
:10F7B00014D92846A5DF0126C8B1112819D00E4951
:10F7C000498859B1FFF7EEF802460C480C49401A37
:10F7D000C00806EB00400BA1FEF79EF9A179E07985
:10F7E000814208D92846BDE87040FAF7B9B9667178
:10F7F000F4E72671F2E770BD503B00205032030061
:10F80000E031030073645F626C655F676174746309
:10F810005F65786368616E67655F6D74755F72655B
:10F82000717565737428292072657475726E6564CC
:10F830002025732E00000000F8B505460C46088808
:10F84000B5F8CA12884255D195F8C602A21D00EB40
:10F850008001C1EB801005EB400695F8C50200EB76
:10F86000C00006EB400160880A3138B329E000BFD0
:10F8700000EB400302EB43039F88B7F5245F0CD0F5
:10F880006FF4245C17EB0C070AD0012F02D0072F6E
:10F890000BD108E05B884B8107E05B888B8104E03B
:10F8A0005B88CB8101E05B880B824B892BB18B8914
:10F8B0001BB1CB890BB10B8A1BB9401C1388834247
:10F8C000D6D800208DF8000095F8C5023179401C8B
:10F8D000884203D101208DF8000010E085F8C502B0
:10F8E000228869462846FAF7D7F920B122882946A6
:10F8F000FAF7C4FAF8BD9DF800000028FAD0228873
:10F9000001212846FAF760FA2188284600F0C8F855
:10F91000F8BD00007CB506468D88C88806EBC50496
:10F92000A41D172800D217202188814200D808463C
:10F9300060800020207121882846B5DF78B1124907
:10F94000498861B1FFF72EF8024610481049401A65
:10F95000C008012101EB00400EA1FEF7DDF860793F
:10F96000002810D1B06900280DD01649D1E9020154
:10F97000CDE90001ADF802506088ADF80400B2692D
:10F980006946304690477CBD503B00205032030012
:10F99000E031030073645F626C655F676174747368
:10F9A0005F65786368616E67655F6D74755F7265CA
:10F9B000706C7928292072657475726E65642025D3
:10F9C000732E0000BC1403002DE9F04105460C46DF
:10F9D00090F8C602228800EB8001C1EB801005EB95
:10F9E0004001B5F8CA0282423FD1608848B1002187
:10F9F0002846FAF7E9F921882846BDE8F04100F0E9
:10FA00004FB8E268C1F80620E28895F8C412D0B277
:10FA100051FA82F2062A03D8084485F8C40218E095
:10FA2000134F062085F8C4027888022811D31148A4
:10FA30001149401AC108022000EB014006460FA1FF
:10FA4000FEF766F87888022803D330461349FEF79C
:10FA50005FF821882846F8F7CBFD002805D02288DA
:10FA60002946BDE8F041FAF709BABDE8F081000087
:10FA70004C3B002048320300E03103004E6F7420FD
:10FA8000656E6F75676820737061636520666F725D
:10FA90002073657276696365732E0000F41F03009E
:10FAA00070B588B00D46044620216846F6F723FD60
:10FAB00094F8C7021E4B401CC0B284F8C702DA6833
:10FAC000002190422CD284F8C51294F8C602194E37
:10FAD000401CC2B202EB820084F8C622C0EB821046
:10FAE00006EB820204EB4000126802600171022101
:10FAF0008DF800100121ADF810100068CDF812004B
:10FB00000D48CDE902042A4669469868FCF758FB7F
:10FB1000002803D02A462146FAF7B0F908B070BD94
:10FB200084F8C81229462046FAF736F9F6E70000AD
:10FB3000843900202C4500207D9E02002DE9F843E9
:10FB400017460C0005462BD0DFF870804646D8F8E3
:10FB50000000F9F767F93844C7B23068F9F762F97D
:10FB6000A968497E081AB0FBF7F0C6B22046F9F73B
:10FB700059F9A968381AC7B2487FB0FBF6F206FBFC
:10FB80001202401C487782B123460DA20721284665
:10FB9000FDF7A4F839462846BDE8F843F9F764BFF5
:10FBA000A96800204877BDE8F883009405A20721E2
:10FBB0002846D8F80030FDF791F8EBE73C3A0020F2
:10FBC000257300000A2573257300000038B504462C
:10FBD0008DF800108DF80110684600F0D3F80098F9
:10FBE00000F016F8034603A208212046FDF776F838
:10FBF00038BD0000507265666572726564205048B9
:10FC0000592073657420746F2025732E0A0000003C
:10FC1000C1B2084808290BD2DFE801F00A04060641
:10FC2000080A0A0600687047406870478068704795
:10FC3000C06870478038002010B50549C20800F040
:10FC40000703885C01249C402043885410BD0000B9
:10FC5000AC4500200449084490F93000082801DB35
:10FC6000012070470020704758450020044908448F
:10FC700090F93000082801D2012070470020704719
:10FC8000584500202DE9F05F2A4F06464FF0A04A64
:10FC90004FF0010B0024381990F95010491C3CD04A
:10FCA00090F85000314620F0C0052846FBF71AFFB7
:10FCB00020B3204600F040F881460AEB8500D0F8DA
:10FCC0000007C0F30148B8F1020F18D002212846FE
:10FCD000FDF76CFC0BFA05F1CAF820152846F8F779
:10FCE00007FA57F820204AB14846B9F1030F11D05E
:10FCF000B8F1020F05D0B8F1030F07D00DE00321D2
:10FD0000E5E74846B9F1010F04D006E04846B9F1ED
:10FD1000020F02D1014628469047641C042CBAD336
:10FD2000324601210020FDF753FC30680028B1D194
:10FD3000BDE8F09F584500200249084490F8500063
:10FD4000800970475845002010B50C46017A0529F6
:10FD500008D0407A38B1084808A102682046FDF76B
:10FD60009FFA00E01AB106A12046FDF799FA204655
:10FD7000BDE81040FDF7A1BAC43A00202573000089
:10FD80000D0A00000149008808837047683200208E
:10FD900038B5C3880D46044633B116A0009017A2AB
:10FDA00018A12846FDF77CFA217A052920D0607A2F
:10FDB00048B1A088FDF756FD184951F8202018A138
:10FDC0002846FDF76DFA2846216800F073FEA088EA
:10FDD0000021FDF7C1FF03461049207A143951F87C
:10FDE000202001B02846BDE830400EA1FDF758BAEA
:10FDF00038BD00001B5B306D000000001B5B313B19
:10FE000033316D0025734C6F67732064726F7070AF
:10FE10006564202825642925730D0A00C43A002052
:10FE2000257300003C25733E2025733A2000000016
:10FE30000349884201D10348704700207047000001
:10FE400000200040A8390020F0B591B00E460746CA
:10FE500001226946FEF7B6F804005AD19DF8000069
:10FE600004AD06285DD2DFE800F0030A181F23273F
:10FE7000BDF81220BDF810103046A1DF0BE00CA831
:10FE800006900146BDF8162000230198FEF752F8AF
:10FE900029463046A3DF044626E0BDF81010304660
:10FEA0000DF112029BDFF6E7294630469DDFF2E7AF
:10FEB000294630469EDFEEE70CA807900023022279
:10FEC00008A90198FEF736F808A80690BDF820208A
:10FED000022307990198FEF72DF8BDF820E0294686
:10FEE0003046AEDF040016D0112C12D09DF8000071
:10FEF000134951F8200010B10198FDF7EDFF0022E1
:10FF000069463846FEF75EF822463146684600F0FC
:10FF100081F811B0F0BDBDF820008645E6D00C2474
:10FF2000E4E7084840880228E0D307480749401A18
:10FF3000C008022101EB004005A1FDF7E9FDD5E76E
:10FF4000D4140300543B002058320300E031030076
:10FF5000556E696D706C656D656E746564204741A2
:10FF600054542052657175657374000001680A6805
:10FF70004968914201D3881A70478068801A084402
:10FF8000401C704770B58CB00446C068002209A9B7
:10FF9000FEF718F8104D1BE0BDF82410A068C1EB67
:10FFA000C10100EB810607E09DF8000055F8200034
:10FFB00010B10198FDF790FF002269463046FEF728
:10FFC00001F80028F0D0002209A9E068FDF7FAFF47
:10FFD0000028E1D00CB070BDD414030070B50C4BF8
:10FFE00000210A4ADC680DE002EB81058678AD78D5
:10FFF000B54206D132F821500688B54201D1586881
:020000040003F7
:1000000070BD491CA142EFD3002070BD2C450020DB
:1000100084390020F8B515000E46044619D00D4865
:10002000408860B10C480D490095401AC008012174
:1000300001EB0040227833460949FDF77CFDA368B7
:10004000002B06D0E16801B032462846BDE8F040FA
:100050001847F8BD543B002058320300E03103003C
:10006000E02003002DE9F041044600780E4600250B
:1000700004F11001062828D2DFE800F003080B1174
:100080001418628A218A3046A1DF0DE03046A3DFD2
:100090000AE0218A04F1120230469BDF04E0304678
:1000A0009DDF01E030469EDF054605E0A069078838
:1000B0003046AEDF050002D0112D1CD013E0A06940
:1000C0000088B8420FD00C250DE00C48408802286B
:1000D00009D30B480B49401AC008022101EB00402C
:1000E00009A1FDF715FD2A4631462046FFF792FF8C
:1000F0000120BDE8F0810020FBE70000543B002018
:1001000058320300E0310300556E696D706C656D07
:10011000656E74656420474154542052657175655D
:10012000737400004FF0FF30F7F7DEB970B5054685
:10013000F9F7DBFF134C40B1D4E904024FF08071B2
:10014000411842F10000C4E9041000212846F9F7E3
:100150000FFF30B1606820B1606800F0EDFB002057
:10016000606001212846F9F703FF18B1FAF700FA99
:10017000C4E90601284600F037FC2846BDE8704077
:1001800000F034B8F839002070B5054600200C4660
:100190000870FAF7EDF9D5E90223101A63EB0103B1
:1001A00000263146361A994112DAB0F5350F03D3DD
:1001B000F7F7A6F90B4942184FF4960300210A48B5
:1001C000F9F79FFF10B10D2806D009E0012070BD9E
:1001D00000210548F9F7C2FE284600F0ADFB20706B
:1001E000002070BDFFFFB400003A0020F8B51B4CA2
:1001F000074600261A48FEF79FFBD8B1616879B11F
:10020000D0E902106268D2E90232C91A904121D2C3
:10021000606890F8200018B161681148FEF77BFB18
:1002200000F046FA05466946FFF7AEFF98B16068F0
:1002300040B10AE0606800280CD13846BDE8F840BB
:10024000F9F75BBF3846F9F754FF65609DF8000089
:100250000028CFD1F8BD6660CCE70000F839002057
:100260000815030070B5054688690C4600284FF450
:10027000847128460AD0FEF7A4FBD5F81805626AF7
:10028000E1688854606A401C606270BDFEF799FBAB
:10029000D5F8180570BD1FB501238DF80030CDE9E4
:1002A0000121D0E90012684690471FBD1FB5012308
:1002B0008DF80030CDE90121D0E900126846904761
:1002C0001FBD10B5044600684FF49271FEF779FB2C
:1002D0004FF484712068FEF774FB206801210160EF
:1002E00010BD00007CB50446FF20009001236A4643
:1002F00001A9E068FDF7B0FF002819D1009A002A93
:1003000016D060690B4D01990378D2B2EB5C1BB13A
:10031000001DFEF76BFF02E00C30FEF7E5FD002844
:1003200006D1A068224640F266610068F7F728F916
:100330007CBD0000943900202DE9F0410769456833
:10034000007800282DD1184E184819497288401A93
:10035000C408032A06D3032000EB0440154A16A163
:10036000FDF7DAFB2148007874DF082802D008B1D5
:10037000F7F7BAF81D4806211C300123018041809F
:1003800002463946A81C8CDF02000AD0708800287B
:1003900007D0012000EB0440BDE8F04114A1FDF7B7
:1003A000BBBBBDE8F0810000983B0020E0320300B9
:1003B000E0310300B41303004465766963652022CD
:1003C00025732220666F756E642C2073656E6469D8
:1003D0006E67206120636F6E6E656374696F6E2057
:1003E000726571756573742E00000000683200201C
:1003F00073645F626C655F6761705F636F6E6E658B
:1004000063742829206661696C65643A2030782518
:10041000782E00000D4810B54088032809D30C48F9
:100420000C49401AC008032101EB00400AA1FDF766
:100430006FFB0020F7F700FD0C48FCF739F90028A6
:1004400003D0BDE81040F7F74FB810BD983B00202F
:10045000E0320300E03103005374617274696E6727
:10046000207363616E6E696E672E0000F83D002098
:1004700038B50021012548B1012810D003280DD13D
:10048000FEF7BEFABDE83840FCF7A0BE4FF0E02012
:10049000C0F88051BFF34F8FBFF36F8F38BD8DF819
:1004A00000106846F7F78CF8064C207808B9FCF77E
:1004B0006DFEE068401CE060A5709DF80000F7F755
:1004C000A3F838BD444500203EB5044609496846B6
:1004D000FEF7FAF908E000BFD0E900212046904776
:1004E00030B16846FEF707FA02980028F4D13EBD05
:1004F00011203EBDA01A03003EB5044608496846D7
:10050000FEF7E2F907E000BFD0E90021204690475E
:100510006846FEF7F0F902980028F5D13EBD0000CC
:10052000AC1A030070B50D4C0020D2B22070201D13
:100530000B4D0378EB5C1BB1001DFEF7EFFE02E0F4
:100540000C30FEF751FD08B1F6F7CEFF60780028B9
:1005500002D021780029FAD070BD00004C3A00206A
:10056000943900202DE9F0410746806A14468846F8
:10057000C8B3002531E000BFB96A05EB450001EBC7
:100580008006B088801CFE2802D90C20BDE8F081CE
:100590002288401C08F8020020881622401C80B2E5
:1005A000208008F800202088401C80B2208000EBCA
:1005B0000801308800F0A3FC2188084480B2208024
:1005C000B28842B1B16871B14044F5F76DFF20883F
:1005D000B188084420806D1CEDB297F82C00A84229
:1005E000CAD80020D2E7FFE70720CFE70A7806281D
:1005F00022F0FF020A7010D2DFE800F003050709BD
:100600000B0D002008E0112006E0212004E031203D
:1006100002E0122000E02220087070470022CA6029
:100620004A60054A8A60052803D2044A52F820002D
:1006300000E000200860704720190300843A002081
:10064000002805D10349012048700020F8F752BE68
:10065000704700004445002010B51620F6F7B4FBA3
:10066000A0B1114890F800044009082811D20121D6
:10067000814011F0EC0F0CD00C4882684FF48001DF
:100680006AB1016841F48001016010BD42F20100CD
:1006900001E042F20200BDE81040F6F725BF4FF03E
:1006A000E020C0F8001110BD16E000E06C4600200C
:1006B0000148FEF744B9000008150300C207002AEC
:1006C00003D000BF4FF00F0201E04FF0F00201D065
:1006D0004FEA0111044B03EB5003187800EA0200C3
:1006E00040EA010018707047044600202DE9F84FD9
:1006F000074626489146884605681E4601226946F7
:100700001846F7F7ABFBDFF888A0A8B300980021E4
:100710000446C01C0AE000BF00EA050259F821C0E7
:100720000AEB8202401C491CC2F80CC0B142F3D350
:10073000B1463E0CF9F708FC46EA0041601C28402F
:100740000AEB80005646C1601248C0688047A11C71
:10075000294006EB81012C40C86006EB8401C86883
:1007600067F3C50069F3891068F39F2020F0030048
:10077000401C20F00400C8609AF8000002E000BFAE
:10078000FDF788F80028FBD1BDE8F88F6C3A00200F
:100790001C4800201C68002009680068F5F7BDBEF1
:1007A0002DE9F04115460E460446F9F795F878B95B
:1007B000A068FA21077D90F816802046F9F754F9D1
:1007C000FA212046F9F704F82046F9F785F810B128
:1007D0000620BDE8F081A068007D3070A068807DB3
:1007E00028703078C01BC1B22046F9F763F8297829
:1007F000A1EB0800C1B22046F9F742F90020E8E772
:10080000134810B54088032809D312481249401AEA
:10081000C008032101EB004010A1FDF779F9FDF7B5
:1008200039F80028FBD112480121C17180780128D4
:1008300007D0022801D0F6F7D9FABDE81040FFF73B
:10084000E9BDF6F7D3FA0A4902201431087110BD48
:10085000983B0020E0320300E031030050726570E5
:100860006172696E672074686520746573742E0008
:100870006832002070B51D4C0020E070207160715E
:10088000A071E07120726089A0F57F41FF391DD011
:10089000174E184818497288401AC508032A05D30C
:1008A000032000EB054015A1FDF732F91321608903
:1008B00076DF020018D07088002815D0012000EBE8
:1008C0000540BDE8704012A1FDF726B96078022806
:1008D0000AD1A078012803D0BDE87040FFF79ABD87
:1008E000BDE87040F6F782BA70BD000068320020A3
:1008F000983B0020E0320300E03103004469736359
:100900006F6E6E656374696E672E2E2E0000000098
:1009100073645F626C655F6761705F646973636F66
:100920006E6E6563742829206661696C65643A207F
:1009300030782530782E000070B504461448002524
:10094000007810B30CB394F82000F0B1F9F710FE62
:10095000D4E90223801A994112D32069002608B9EC
:1009600084F82060D4E905108847206968B194F8BC
:10097000201051B1D4E9022110187141C4E90201DB
:1009800021460448FDF7C7FF0125284670BD000039
:10099000F83900200815030010B504460020F5F7CB
:1009A00051FF20B16068D0E90021002090476068C5
:1009B000D0E9002101209047A068224640F26661FC
:1009C0000068BDE81040F6F7DBBD00004069054A4D
:1009D0000178515C11B1001DFEF78ABC0C30FEF7A6
:1009E000F9BA000094390020F8B51C4C694620681B
:1009F000FAF778FF00260127194D2CE0017821B184
:100A000001290ED002291ED116E0416891F820205C
:100A1000CAB981F82070416810480830FDF77BFFA3
:100A200011E041686868814201D16E600BE00B48BB
:100A30000830FDF78BFF06E0FFF73AFE10B180F8B3
:100A40002060F9E72F7069462068FAF740FF694691
:100A50002068FAF747FF0028D0D1F8BD0015030041
:100A6000F8390020F8B50B4C0D460646694620685B
:100A7000FAF722FF58B10670456069462068FAF718
:100A80003CFF10B10448F9F71DFB0020F8BD04201D
:100A9000F8BD000000150300003A002003488068FC
:100AA0004108034800224068F6F76ABDB8390020C3
:100AB000F8140300FEB51A4A6FF0E0055368B1FB65
:100AC000F3F411684FF46162B4FBF1F3B3FBF2F29B
:100AD000554303EB05153C23B5FBF3F3A3EB0316DA
:100AE00005EB8606B4FBF1F501FB15444FF47A756E
:100AF0006543B5FBF1F504EB440C05FB01F7CCEBCA
:100B0000C414C7EBC4044FF47A777C43B4FBF1F10F
:100B10000096CDE9015103A1FCF7C2FBFEBD000028
:100B2000A83A00205B253032643A253032643A25F9
:100B30003032642E253033642C253033645D200040
:100B400070B50C4605464FF48E71FDF73AFF216AE9
:100B5000A068415C206A401C2062C5F81C1570BD6D
:100B60001FB500228DF80020029181680191426139
:100B7000D0E90012684690471FBD1FB500228DF8CE
:100B800000200291816801914261D0E9001268461B
:100B900090471FBD7CB5FF260546009600780C46A1
:100BA000B8B1012806D0022812D1297AE068FDF7F1
:100BB0005BFC0AE0297AE068FDF756FC287A20B150
:100BC0006068D0E90021002090472046FFF78AFBAB
:100BD0007CBD297A2069FDF7EEFB009601236A4669
:100BE00001A92069FDF7FAFB009820B1C2B2606943
:100BF0000199FCF739FB6068D0E90021012090479A
:100C00007CBD00001FB50A4601788DF800104168D0
:100C10000191017A8DF80810C0680390044850F8DB
:100C20002210001F50F82220684690471FBD000088
:100C30009C39002001490120087070474C3A00207F
:100C400010B588B0044620220E496846F5F72CFC02
:100C500006200090C01F0190029003904FF0EB70AF
:100C600006900CB1084A00E0002269460748FCF7EC
:100C7000C7FA08B1F6F738FC0448001F447008B002
:100C800010BD000000190300350C0300503A00208D
:100C90002DE9FF470C4605464FF40071FDF797FE1E
:100CA00001274FF40178002618B34FF49279494692
:100CB0002846FDF781FEE0B149462846FDF781FE52
:100CC000C5F8088394F8290000B96F6002208DF8F8
:100CD0000000D5F88004C5F880040390A069029054
:100CE000E0680190A661E661D4E900126846904789
:100CF00028E004212846FDF76AFE18B34FF48471FA
:100D00002846FDF759FEE8B121462846FFF7AAFA22
:100D1000616AA069884215D1E06938B1E268616A08
:100D2000A0612069E6616662E06008E094F829004D
:100D300000B96F60C5F80883A661E268616A204661
:100D4000FFF7A9FA4FF48E7841462846FDF734FEA6
:100D500080B16069216A814202D294F8280028B3E8
:100D600041462846FDF72DFE606918B161692046AD
:100D7000FFF7F6FE4FF4A27841462846FDF71CFE29
:100D8000002818D041462846FDF71BFE94F829009C
:100D900000B12F60A06900280DD0A661E268616AE9
:100DA00004B02046BDE8F047FFF775BA2146284653
:100DB000FFF7C6FEDEE7BDE8FF8700001FB50A4665
:100DC00001788DF8001041680191017A8DF80810C2
:100DD000C0680390044850F82210001F50F82220E9
:100DE000684690471FBD00009C3900202DE9FF4157
:100DF0000C464FF4927705463946FDF7EEFD002686
:100E0000B8B139462846FDF7EDFD02208DF8000007
:100E1000D5F88004C5F880040390D5F83C0502900D
:100E2000E0680190A661E661D4E900126846904747
:100E300023E04FF4887739462846FDF7CEFDE0B130
:100E400039462846FDF7CEFDD5F83C15A069884205
:100E500013D1E06960B1E268D5F8000220F020000B
:100E6000C5F80002E069A0612069E661E06001E088
:100E7000A661E2682046FFF719FA4FF4A2773946D7
:100E80002846FDF7AAFD68B139462846FDF7AAFDB8
:100E9000A06938B1A661E661D5F83C152046E26844
:100EA000FFF704FA4FF4907631462846FDF795FD9A
:100EB00060B131462846FDF795FD0120E860606984
:100EC00020B1D5F84C152046FFF757FE4FF4AC760D
:100ED00031462846FDF781FD00280ED031462846D0
:100EE000FDF780FD6069002807D0D5F84C1504B0E7
:100EF0002046BDE8F041FFF740BEBDE8FF81087025
:100F0000000A4870022070470870020A4A70020CFA
:100F10008A70000EC8700420704700002DE9F05F51
:100F20008346DDE90A4A994690460D460846012760
:100F300003E000BFB0FBF8F07F1C4045FAD2B94592
:100F400000D94F465FEACA7012D18CB15FEA8A704D
:100F500002D5B9F1000F01D0202607E0302605E0C8
:100F600031465846641EF6F7C5FF0CB1A742F7D3C9
:100F70005FF00106B9F1010F02D9A9F1010903E0FF
:100F8000B5FBF6F0404502D306FB08F6F2E7DFF8C2
:100F90003C9000BFB5FBF6F000FB165519F80010A9
:100FA0005846F6F7A7FFB6FBF8F6002EF2D15FEA37
:100FB000CA7009D0002C07D0A74205D2202158467C
:100FC000641EF6F797FFF5E7BDE8F09F4C170300A6
:100FD00030B40446007A00280AD06088002166DF19
:100FE00028B1112802D0616830BC08470120207266
:100FF00030BC704770B50C460546F7F70BF8002873
:1010000007D04268002A04D021462846BDE8704037
:10101000104770BD2DE9FC411646DDE90854CDE9C5
:1010200000541F468046022200F00CF8002807D129
:10103000CDE900543B4610223146404600F002F80C
:10104000BDE8FC812DE9FC5F0026DDE90C4B9946EB
:1010500092468E4680462788354630E0D8F8040010
:10106000002200EB850069460068019001A864DF5A
:10107000002830D19DF8000050451FD10EB100214D
:1010800000E00221228808441118594522D846B9A7
:10109000521C90B2208009F800E02088401C20807B
:1010A0000126218801A801EB0902694664DF0028B6
:1010B00011D120889DF80010084420806D1CB8F8DC
:1010C0000000A842CADC56B12088C01B401E80B276
:1010D000FF2802D90C20BDE8FC9F09F8070000207A
:1010E000F9E700001CB5002913D08268127F8A42FC
:1010F0000FD008A3D3E90023CDE9002301F12F028B
:101100008DF803208268117700696A4603A1FCF715
:10111000C7F81CBD1B5B34006D0000002573000088
:101120001CB5826899B1D27E8A420FD00CA2D2E956
:101130000032CDE9003201F12F028DF805208268DE
:10114000D17600696A4608A1FCF7AAF81CBDD176E1
:10115000006902B0054ABDE8104003A1FCF7A0B841
:101160001B5B313B33006D0025730000DD1603006F
:10117000BB4AFF4FAD03415DA96C9D6CDDDA830472
:10118000BB4AFF4FAD03415DA96C9D6CDDDA830462
:10119000000001000000000000000000000000004E
:1011A000000006410000000000400240240004004E
:1011B00000000000B8110300C01B0300041C030062
:1011C0000000000053930200BC1B0300E41B03005B
:1011D000000000004D930200B81B0300C41B030075
:1011E0000000000045930200000000000000000025
:1011F00000000000000000000000000000120300DA
:10120000801C0300541C0300000000003F930200F8
:10121000501C0300241C030000000000399302004E
:1012200000000000000000000000000000000000BE
:101230000000000038120300841C03008C1C030013
:1012400000000000E1930200881C0300A81C0300BA
:1012500000000000E7930200000000000000000012
:1012600000000000000000000000000070120300F9
:10127000D41D0300DC1C0300000000004D770200B9
:10128000281D0300F41C030000000000999A0200CE
:10129000C01D0300741D0300F8110300419C0200EF
:1012A000581D0300341D0300B0110300419C0200CF
:1012B000B81D03009C1D030000000000699502009A
:1012C000DC1D0300C41C030030120300419C02001B
:1012D000681D03000C1D03000000000001A40200B3
:1012E00000000000000000000000000000000000FE
:1012F000F81D0300E01D030068120300419C02007A
:10130000001E0300041E030000000000ED93020015
:10131000F83C0020583C00200400000020000000A1
:10132000010000000000000000000000A8380020BC
:101330009C3E00203F000000DC3E0020F43E0020E8
:101340000F000000043F00200000000000200040CB
:1013500000000000002000400000000038170300DB
:101360001C3F00202C1303003C1303003013030028
:1013700048130300D038002018170300483F00200E
:1013800074130300181F03005C130300543F002074
:10139000B0310300F83800201C330300181F03008D
:1013A0007813030040420020C0310300243900209C
:1013B000383303004E6F726469635F4154545F4D6C
:1013C0005455000001000000000000002C01000046
:1013D0000000000000000000000101000200000603
:1013E00000000000000000000000000000000000FD
:1013F00000000000000000000000000000000000ED
:1014000000000000000000000000000000000000DC
:101410000000000000000000FFFFFFFFFFFFFFFFD4
:10142000FFFFFFFFFFFFFFFF0000000000000000C4
:101430000000D60106010000111213140D0E0F104A
:10144000010000000000000000000000000000009B
:10145000000000000000000000000000000000008C
:10146000000000000000000000000000000000007C
:10147000000000000000000000000000000000006C
:10148000000000000000000000000000000000005C
:10149000000000000000000000000000000000004C
:1014A000000000000000000000000000000000003C
:1014B000000000000000000000000000770A0000AB
:1014C00000000000770A0000000000007ADA000047
:1014D000000000000000000005A502000000000060
:1014E000000000000000000031A5020000000050D4
:1014F00005EE020071F1020003000000D039002067
:10150000183A002001000600000000002C3A0020DC
:10151000BB9402000000000000000000000000007A
:101520000338FDD8704700000000000030150300AC
:10153000502103002C210300000000001DBA02000E
:10154000000000000000000000000000000000009B
:101550005821030060210300281503001DBA020072
:1015600005D70200E7D60200DDD602000000000029
:1015700074150300501C0300282203000000000023
:1015800025CA0200801C0300102203000000000096
:101590004FCA020000000000000000000000000030
:1015A0000000000000000000AC150300501C030008
:1015B000402203000000000011CB0200801C030049
:1015C0009C220300000000003BCB02000000000052
:1015D000000000000000000000000000000000000B
:1015E000E415030008230300DC22030000000000D0
:1015F00005C9020010230300B02203000000000010
:1016000035C90200000000000000000000000000DA
:1016100000000000000000001C1603005C23030013
:101620003C2303006C150300BDC9020054230300D2
:1016300018230300A415030079CA020064230300E1
:101640002C230300DC15030099C8020000000000F1
:10165000000000000000000000000000000000008A
:1016600064160300B02303006C2303000000000095
:10167000A1CC0200000000000000000000000000FB
:1016800000000000C8230300B8230300000000008E
:1016900011C80200F4230300D02303001416030032
:1016A00055C802000C240300F823030000000000CA
:1016B00065CB0200B4240300142403005C1603006D
:1016C000DDCB020000000000000000000000000070
:1016D0001B37001B38002C20001B5B4A001B5B6D76
:1016E00000082008001B5B4B00202D20001B5B48DE
:1016F000001B5B366E001B5B324A000000000000DE
:101700000338FDD870471B5B3F336C002D682C20DD
:101710002D2D68656C700000AD8A0200E18A020020
:10172000558A0200E98A0200D18A02000000000006
:101730000338FDD870470000C99102001F920200D3
:101740005D91020035920200159202003031323371
:1017500034353637383941424344454600000000AD
:101760000000000000000000000000000000000079
:10177000000000005C170300741703000400000061
:10178000000000008817030050210300C02403005C
:101790000000000051E10200000000000000000015
:1017A0000000000000000000E424030060210300AA
:1017B0008017030051E10200556E6B6E6F776E204B
:1017C0006572726F7220636F646500000000000034
:1017D000E0280300010000008C2703000200000045
:1017E000802503000300000000280300040000001F
:1017F0005428030005000000342703000600000001
:10180000D0260300070000003C2803000800000069
:101810004827030009000000AC2703000A0000006D
:10182000C82803000B000000682503000C0000001E
:10183000602703000D000000302903000E000000A7
:101840002C2803000F00000068280300100000008F
:101850009C2803001100000044290300120000002E
:101860001829030013000000B428030080000000C2
:10187000E826030081000000242603008200000007
:10188000E425030083000000C42503008400000059
:1018900000260300850000000C27030086000000DE
:1018A0001428030090000000B026030091000000FF
:1018B000A4250300920000007427030000820000AA
:1018C0007C28030001820000C82703000282000078
:1018D000E427030000840000402603000184000088
:1018E000EC28030002840000882603000384000023
:1018F000642603004DD8020021D802001FD8020040
:10190000FFFFFFFFFFFFFFFFFFFFFFFFFFFFFFFFE7
:1019100000000000000000000000D60106010000E9
:101920000100000081B7020000000000441903001C
:10193000844700207F0000000448002001000000D0
:101940001D060300742A0300002A03002019030067
:10195000B1AC02006C2A03007C2903003C1903008F
:10196000B1AC02009C2A03007C2A030000000000A6
:10197000BDAC0200B02A03008C2A03000000000066
:10198000C9AC020050210300A02A0300000000009F
:10199000D5AC0200000000000000000000000000C4
:1019A00000000000010000000D78020000000000AF
:1019B000B4190300202B0300B82A03000000000024
:1019C00005AE0200282B0300EC2A030000000000F3
:1019D00041AE020000000000000000000000000016
:1019E0000000000000000000EC190300642B03005D
:1019F000302B0300A419030000000000F81D0300B1
:101A00006C2B0300AC19030000000000742A0300D3
:101A1000002A03002019030059B002006C2A0300B9
:101A20007C2903003C19030059B002009C2A0300E2
:101A30007C2A03000000000069B00200B02A030005
:101A40008C2A03000000000073B00200882B030002
:101A50004C2B0300000000003DAD020050210300AC
:101A6000A02A0300000000007DB00200000000007A
:101A7000000000000000000000000000982B0300A0
:101A80009C2B0300E4190300E1AC020000000000FD
:101A9000000000000000000000000000010000073E
:101AA0008C1A03009C1A030008000000C41A0300EB
:101AB000D41A030008000000D41A0300E41A03003B
:101AC000080000001C340300243403000000000060
:101AD000000000000C3403001C3403000000000070
:101AE000000000000000000000000000C4330300FC
:101AF000E4330300E4330300EC330300EC3303006E
:101B00000434030068320020E41A0300041B0300BD
:101B100008000000043403000C340300000000003F
:101B200000000000141B0300241B03000800000039
:101B300000404040404040404040414141414140E0
:101B40004040404040404040404040404040404095
:101B50004005020202020202020202020202020224
:101B60000220202020202020202020020202020229
:101B70000202909090909090101010101010101081
:101B8000101010101010101010101010020202028D
:101B900002028888888888880808080808080808D1
:101BA00008080808080808080808080802020202CD
:101BB00040000000311B030034303000353000009D
:101BC000372E35005573652061203430306D732019
:101BD000636F6E6E656374696F6E20696E74657293
:101BE00076616C0075736520612035306D732063FC
:101BF0006F6E6E656374696F6E20696E7465727660
:101C0000616C0000557365206120372E356D73209F
:101C1000636F6E6E656374696F6E20696E74657252
:101C200076616C005475726E20436F6E6E656374DE
:101C3000696F6E204576656E74204C656E677468BA
:101C400020457874656E73696F6E206F666600005C
:101C50006F6666005475726E20436F6E6E656374B6
:101C6000696F6E204576656E74204C656E6774688A
:101C700020457874656E73696F6E206F6E0000008A
:101C80006F6E0000314D0000324D0000536574202E
:101C90007072656665727265642050485920746F71
:101CA00020314D6270730000536574207072656658
:101CB00065727265642050485920746F20324D62FD
:101CC00070730000436F6E6669677572652070728D
:101CD000656665727265642050485900436F6E6690
:101CE000696775726520415454204D5455207369BD
:101CF0007A650000436F6E6669677572652064617E
:101D00007461206C656E677468000000436F6E66D6
:101D1000696775726520474150206576656E74204D
:101D20006C656E6774680000646174615F6C656EF9
:101D300067746800436F6E66696775726520474116
:101D40005020636F6E6E656374696F6E20696E7488
:101D5000657276616C000000636F6E6E5F696E7411
:101D6000657276616C0000006761705F6576745F14
:101D70006C656E00456E61626C65206F72206469EF
:101D80007361626C652044617461204C656E677498
:101D90006820457874656E73696F6E005072696E65
:101DA000742063757272656E7420636F6E66696706
:101DB00075726174696F6E007072696E74000000F4
:101DC000636F6E6E5F6576745F6C656E5F65787469
:101DD000000000006174745F6D74750070687900B4
:101DE000436F6E66696775726520746865206578F3
:101DF000616D706C65000000636F6E66696700005E
:101E000072756E0052756E20746865207465737407
:101E100000000000546869732076616C756520636A
:101E2000616E6E6F7420626520736574206174202A
:101E300072756E74696D652E0A4D6F6469667920DE
:101E40004E52465F5344485F424C455F4741505FA6
:101E50004556454E545F4C454E47544820696E20C8
:101E600073646B5F636F6E6669672E6820616E6472
:101E7000207265636F6D70696C65207468652061A0
:101E800070706C69636174696F6E2E0A00000000E7
:101E9000426F61726420726F6C653A090925730D97
:101EA0000A415454204D54552073697A653A090902
:101EB00025640D0A44617461206C656E6774683A2C
:101EC000090925640D0A436F6E6E656374696F6E50
:101ED00020696E74657276616C3A09256420756EAE
:101EE0006974730D0A436F6E6E656374696F6E205B
:101EF0006C656E677468206578743A0925730D0AFD
:101F0000507265666572726564205048593A0909D5
:101F100025730D0A000000007468726F75676870A1
:101F20007574206578616D706C653A7E24200000C0
:101F3000436F646564000000556E6B6E6F776E00D2
:101F400031204D627073000032204D6270730000CA
:101F50004E6F7420656E6F7567682073706163657E
:101F600020666F7220636861726163746572697361
:101F700074696373206173736F636961746564204E
:101F80007769746820736572766963652030782597
:101F90003034582021000000496E6372656173651A
:101FA00020424C455F474154545F44425F4D415885
:101FB0005F434841525320746F2062652061626C18
:101FC0006520746F2073746F7265206D6F72652069
:101FD00063686172616374657269737469637320A5
:101FE000666F7220656163682073657276696365E8
:101FF00021000000496E63726561736520424C45A3
:102000005F44425F444953434F564552595F4D41E7
:10201000585F53525620746F2062652061626C6570
:1020200020746F2073746F7265206D6F72652073FA
:1020300065727669636573210000000073645F62F6
:102040006C655F6761705F646174615F6C656E672A
:1020500074685F75706461746528292028726571E1
:102060007565737429206F6E20636F6E6E6563747F
:10207000696F6E20307825782072657475726E6590
:10208000642025732E000000546865207265717508
:10209000657374656420636F6D62696E6174696FE6
:1020A0006E206F6620545820616E64205258207054
:1020B00061636B6574206C656E6774687320697307
:1020C00020746F6F206C6F6E6720627920257520F9
:1020D0006D6963726F7365636F6E64732E000000C9
:1020E000534420474154542070726F636564757285
:1020F000652028256429206661696C6564206F6EFF
:1021000020636F6E6E656374696F6E2068616E64C4
:102110006C652025642077697468206572726F721F
:102120003A203078253038582E0000005072696E01
:102130007420737461747573206F662062616C6CB7
:102140006F6320696E7374616E6365732E000000A7
:10215000737461747573000062616C6C6F6300006E
:10216000436F6D6D616E647320666F722042414CE7
:102170004C4F43206D616E6167656D656E74000044
:1021800025730D0A092D20456C656D656E742073ED
:10219000697A653A092564202B20256420627974C8
:1021A0006573206F6620646562756720696E666F6F
:1021B000726D6174696F6E0D0A092D205573616728
:1021C000653A092575252520282575206F75742009
:1021D0006F6620257520656C656D656E7473290DBD
:1021E0000A092D204D6178696D756D3A09257525AF
:1021F0002520282575206F7574206F662025752091
:10220000656C656D656E7473290D0A0D0A0000001A
:10221000456E61626C6520636F6C6F7265642073DC
:10222000796E7461782E000044697361626C652078
:10223000636F6C6F7265642073796E7461782E00C1
:1022400044697361626C6520434C49206563686F23
:102250002E204172726F777320616E6420627574F4
:10226000746F6E733A204261636B73706163652CA7
:102270002044656C6574652C20456E642C20486F85
:102280006D652C20496E7365727420617265206ED5
:102290006F742068616E646C65642E00456E6162C7
:1022A0006C6520434C49206563686F2E0000000078
:1022B00047657420434C4920737461746973746971
:1022C000637320666F7220746865204C6F67676562
:1022D00072206D6F64756C652E0000005265736529
:1022E0007420434C49207374617469737469637317
:1022F00020666F7220746865204C6F676765722076
:102300006D6F64756C652E007265736574000000F6
:1023100073686F7700000000546F67676C65204337
:102320004C49206563686F2E00000000434C492033
:10233000737461746973746963732E00546F676793
:102340006C6520636F6C6F7265642073796E746165
:10235000782E00006563686F00000000636F6C6F8B
:1023600072730000737461747300000041737375BD
:102370006D65203830206368617273207363726505
:10238000656E20776964746820616E642073656E81
:102390006420746869732073657474696E6720744F
:1023A0006F20746865207465726D696E616C2E00B3
:1023B00064656661756C7400436C6561722073635B
:1023C0007265656E2E000000636C6561720000002E
:1023D00055736566756C2C206E6F7420556E697828
:1023E0002D6C696B6520434C4920636F6D6D616E88
:1023F00064732E00636C6900436F6D6D616E6420C1
:10240000686973746F72792E0000000068697374D4
:102410006F727900436F6E736F6C652067657473BC
:10242000207465726D696E616C2073637265656E90
:102430002073697A65206F7220617373756D65739F
:1024400020383020696E20636173652074686520D0
:10245000726561646F7574206661696C732E2049C2
:1024600074206D757374206265206578656375747A
:1024700065642061667465722065616368207465B7
:10248000726D696E616C207769647468206368613D
:102490006E676520746F20656E7375726520636F5B
:1024A0007272656374207465787420646973706CEB
:1024B00061792E00726573697A6500002020000042
:1024C0005072696E7420737461747573206F662026
:1024D000717565756520696E7374616E6365732EC1
:1024E00000000000717565756500000025730D0A18
:1024F000092D20456C656D656E742073697A653AA7
:102500000925640D0A092D2055736167653A09256F
:1025100075252520282575206F7574206F66202568
:102520007520656C656D656E7473290D0A092D2023
:102530004D6178696D756D3A092575252520282529
:1025400075206F7574206F6620257520656C656D2C
:10255000656E7473290D0A092D204D6F64653A0963
:102560000925730D0A0D0A004E52465F4552524F1F
:10257000525F494E56414C49445F4441544100002A
:102580004E52465F4552524F525F534F4654444558
:10259000564943455F4E4F545F454E41424C45447A
:1025A000000000004E52465F4552524F525F464572
:1025B00041545552455F4E4F545F454E41424C4544
:1025C000440000004E52465F4552524F525F4D55F7
:1025D0005445585F554E4C4F434B5F4641494C451F
:1025E000440000004E52465F4552524F525F4D55D7
:1025F0005445585F4C4F434B5F4641494C4544005E
:102600004E52465F4552524F525F4D555445585FAA
:10261000434F4E445F494E49545F4641494C4544FF
:10262000000000004E52465F4552524F525F4D55DA
:102630005445585F494E49545F4641494C45440012
:102640004E52465F4552524F525F424C455F495091
:1026500053505F52585F504B545F5452554E434154
:10266000544544004E52465F4552524F525F424CD1
:10267000455F495053505F504545525F52454A456A
:1026800043544544000000004E52465F4552524FAD
:10269000525F424C455F495053505F4C494E4B5F2F
:1026A000444953434F4E4E454354454400000000B7
:1026B0004E52465F4552524F525F4150495F4E4F16
:1026C000545F494D504C454D454E54454400000023
:1026D0004E52465F4552524F525F4E4F545F5355D4
:1026E00050504F52544544004E52465F4552524F4F
:1026F000525F4D4F44554C455F4E4F545F494E49D4
:102700005449414C495A4544000000004E52465F2E
:102710004552524F525F4D4F44554C455F414C52CC
:10272000454144595F494E495449414C495A4544F1
:10273000000000004E52465F4552524F525F4E4FCE
:10274000545F464F554E44004E52465F4552524FDD
:10275000525F494E56414C49445F535441544500E1
:102760004E52465F4552524F525F444154415F536F
:10277000495A45004E52465F4552524F525F494FAB
:102780005F50454E44494E47000000004E52465FA0
:102790004552524F525F5356435F48414E444C4559
:1027A000525F4D495353494E470000004E52465F19
:1027B0004552524F525F494E56414C49445F4C4539
:1027C0004E475448000000004E52465F4552524F5B
:1027D000525F4452565F5457495F4552525F414ED3
:1027E00041434B004E52465F4552524F525F445256
:1027F000565F5457495F4552525F444E41434B0028
:102800004E52465F4552524F525F494E5445524ECA
:10281000414C00004E52465F4552524F525F535456
:102820004F524147455F46554C4C00004E52465F63
:102830004552524F525F4E554C4C00004E52465F2F
:102840004552524F525F494E56414C49445F5041A8
:1028500052414D004E52465F4552524F525F4E4FCD
:102860005F4D454D000000004E52465F4552524FAD
:10287000525F464F5242494444454E004E52465FD5
:102880004552524F525F4452565F5457495F45522A
:10289000525F4F56455252554E0000004E52465F11
:1028A0004552524F525F494E56414C49445F414454
:1028B000445200004E52465F4552524F525F5245BD
:1028C000534F5552434553004E52465F4552524F67
:1028D000525F494E56414C49445F464C4147530074
:1028E0004E52465F53554343455353004E52465F45
:1028F0004552524F525F424C455F495053505F43DF
:1029000048414E4E454C5F414C52454144595F450C
:1029100058495354530000004E52465F4552524F9F
:10292000525F434F4E4E5F434F554E5400000000E0
:102930004E52465F4552524F525F54494D454F5596
:10294000540000004E52465F4552524F525F42556E
:10295000535900006E6F6E65000000007761726E63
:10296000696E67006465627567000000696E666F76
:10297000000000006572726F72000000276C6F67C4
:1029800020656E61626C65203C6C6576656C3E20EE
:102990003C6D6F64756C655F303E202E2E2E2020BE
:1029A0003C6D6F64756C655F6E3E2720656E61627D
:1029B0006C6573206C6F677320757020746F20676F
:1029C0006976656E206C6576656C20696E20737023
:1029D00065636966696564206D6F64756C657320F5
:1029E00028616C6C206966206E6F206D6F64756C59
:1029F000657320737065636966696564292E0000DC
:102A0000276C6F672064697361626C65203C6D6F31
:102A100064756C655F303E202E2E203C6D6F6475B2
:102A20006C655F6E3E272064697361626C6573201C
:102A30006C6F677320696E20737065636966696582
:102A400064206D6F64756C65732028616C6C2069FF
:102A500066206E6F206D6F64756C65732073706592
:102A6000636966696564292E00000000656E616215
:102A70006C65000064697361626C65005265737512
:102A80006D65206C6F6767696E67000048616C74E4
:102A9000206C6F6767696E6700000000676F000059
:102AA0004C6F676765722073746174757300000002
:102AB00068616C74000000004C6F616420636F6E8D
:102AC00066696775726174696F6E2073746F726581
:102AD0006420696E206E6F6E2D766F6C6174696C08
:102AE00065206D656D6F72792E00000053746F72F2
:102AF000652063757272656E7420636F6E666967B8
:102B000075726174696F6E20696E206E6F6E2D76BE
:102B10006F6C6174696C65206D656D6F72792E00E4
:102B20006C6F61640000000073746F7265000000D8
:102B30004C6F67676572206261636B656E647320BA
:102B4000636F6D6D616E64732E0000004C69737469
:102B500073206C6F67676572206261636B656E647A
:102B6000732E00006261636B656E64004D616E617F
:102B70006765206C6F6767657220636F6E66696753
:102B800075726174696F6E006C6973745F62616302
:102B90006B656E64730000006C6F6700436F6D6D52
:102BA000616E647320666F7220636F6E74726F6CF7
:102BB0006C696E67206C6F67676572001B5B313BE9
:102BC00033306D001B5B306D000000001B5B313B40
:102BD00033316D001B5B313B33326D001B5B313B8E
:102BE00033336D001B5B313B33346D001B5B313B7A
:102BF00033356D001B5B313B33366D001B5B313B66
:102C000033376D0073645F626C655F6366675F7323
:102C1000657428292072657475726E656420257349
:102C2000207768656E20617474656D7074696E6775
:102C300020746F2073657420424C455F47415454A3
:102C4000535F4346475F534552564943455F4348A8
:102C5000414E4745442E000073645F626C655F63BC
:102C600066675F73657428292072657475726E6576
:102C700064202573207768656E20617474656D70BB
:102C800074696E6720746F2073657420424C455FD1
:102C9000434F4D4D4F4E5F4346475F56535F55552B
:102CA00049442E0073645F626C655F6366675F739F
:102CB000657428292072657475726E6564202573A9
:102CC000207768656E20617474656D7074696E67D5
:102CD00020746F2073657420424C455F4741545403
:102CE000535F4346475F415454525F5441425F53E0
:102CF000495A452E0000000073645F626C655F6393
:102D000066675F73657428292072657475726E65D5
:102D100064202573207768656E20617474656D701A
:102D200074696E6720746F2073657420424C455F30
:102D3000434F4E4E5F4346475F4741502E000000D1
:102D400073645F626C655F6366675F73657428298F
:102D50002072657475726E656420257320776865CE
:102D60006E20617474656D7074696E6720746F2075
:102D700073657420424C455F4741505F4346475F4F
:102D8000524F4C455F434F554E542E0073645F6263
:102D90006C655F6366675F7365742829207265746C
:102DA00075726E6564202573207768656E20617486
:102DB00074656D7074696E6720746F20736574201C
:102DC000424C455F434F4E4E5F4346475F47415439
:102DD000542E0000414D544300000000414D545317
:102DE0000000000071756575652E6D5F626C655F32
:102DF000676174745F717565756570757267655F1D
:102E0000717565756500000062616C6C6F632E6D95
:102E10005F626C655F676174745F7175657565701D
:102E20006F6F6C006170705F74696D65722E636C9A
:102E3000695F756172745F74696D6572000000008E
:102E40006170705F74696D65722E636C695F727416
:102E5000745F74696D65720071756575652E6D5F5F
:102E6000636C695F756172745F6C6F675F626163E9
:102E70006B656E645F7175657565000062616C6C91
:102E80006F632E6D5F636C695F756172745F636DF4
:102E9000645F686973745F6D656D6F626A000000DE
:102EA00071756575652E6D5F636C695F7274745FB3
:102EB0006C6F675F6261636B656E645F717565758A
:102EC0006500000062616C6C6F632E6D5F636C69FE
:102ED0005F7274745F636D645F686973745F6D655E
:102EE0006D6F626A000000006D5F626C655F676114
:102EF00074745F717565756570757267655F7175FE
:102F0000657565006D5F636C695F756172745F6C98
:102F10006F675F6261636B656E645F717565756530
:102F2000000000006D5F636C695F7274745F6C6FAA
:102F3000675F6261636B656E645F7175657565007F
:102F40006D5F626C655F676174745F7175657565EF
:102F5000706F6F6C000000006D5F636C695F75617E
:102F600072745F636D645F686973745F6D656D6FC4
:102F7000626A00006D5F636C695F7274745F636D99
:102F8000645F686973745F6D656D6F626A000000ED
:102F90006D5F636C695F756172745F6C6F675F62B0
:102FA00061636B656E6400006D5F636C695F727472
:102FB000745F6C6F675F6261636B656E64000000D5
:102FC0006170705F74696D65722E6D5F6273705FA2
:102FD0006C6564735F746D72000000006170705FF7
:102FE00074696D65722E6D5F6273705F616C65727E
:102FF000745F746D720000006170705F74696D655C
:10300000722E6D5F6273705F627574746F6E5F7441
:103010006D720000626C655F64625F646973630077
:103020006E72665F626C655F6761747400000000B9
:103030006E72665F626C655F67710000626C655FEF
:103040007363616E00000000636C6F636B000000CF
:10305000434C4F434B0000004750494F544500003C
:103060005052530052544300554152540000000046
:1030700055415254450000006170705F6275747470
:103080006F6E00006170705F74696D65722E6D5FA8
:10309000646574656374696F6E5F64656C61795FA4
:1030A00074696D65725F6964000000006170705F33
:1030B00074696D657200000061746669666F2E6DDB
:1030C0005F7265715F6669666F000000636C695FBF
:1030D00075617274000000007077725F6D676D74C7
:1030E00000000000736F72746C697374000000005C
:1030F000756172745F6C6F675F6261636B656E644C
:103100000000000062616C6C6F632E6C6F675F6D16
:10311000656D706F6F6C0000617070006C6F675F41
:103120006D656D706F6F6C006E72665F73646800C2
:103130006E72665F7364685F626C65006E72665F74
:103140007364685F736F6300243403006832002087
:10315000D0090000D066020008350300383C00208A
:10316000904E0000B86D020000000000F012030055
:1031700000000000001303000000000050150300D1
:1031800000000000841603000000000094160300F5
:1031900000000000A416030000000000B4160300A5
:1031A00000000000A8170300000000007C1A0300C4
:1031B0006015030010390020902F03001C390020F7
:1031C000601503003C390020A82F03004839002077
:1031D000F418030000000000F0300300643A0020FF
:1031E000D42D030000000303DC2D030000000303C3
:1031F000E42D030000000003082E0300000000037C
:10320000242E030000000003402E030000000003F2
:10321000582E0300000000037C2E03000000000372
:10322000A02E030000000003C42E030000000003D2
:10323000C02F030000000003DC2F03000000000388
:10324000F82F030000000003143003000000030304
:1032500020300300000003033030030000000303AC
:103260003C3003000000030348300300000000006E
:103270005030030000000000583003000000000040
:103280006030030000000000643003000000000014
:1032900068300300000000007030030000000000F0
:1032A00078300300000000008430030000000003B9
:1032B000AC30030000000000B83003000000000341
:1032C000CC30030000000000D830030000000000F4
:1032D000E43003000000000004310300000000039C
:1032E000183103000000030328310300000003032A
:1032F00030310300000003033C31030000000303EE
:103300005C390020543900205C390020103D002039
:10331000243B0020402F0300180000006C390020DF
:10332000643900206C390020C0400020343B00206C
:10333000582F0300300000007C3900207439002031
:103340007C390020AC4300203C3B0020742F03005C
:1033500030000000A03A0020983A0020A03A002057
:10336000C4460020943B00201C31030018000000DC
:10337000043D002050390020010000000200000040
:1033800001000000E82E0300203B0020B440002094
:10339000A040002004000000040000000100000024
:1033A000042F0300303B0020A04300208C4300206A
:1033B000040000000400000001000000242F0300AE
:1033C000383B002061C202009C320020D5BF0200C1
:1033D000D03D0020C57A0200B03200202FC6020086
:1033E000F83D0020FBC20200EC3D0020C9BB0200FA
:1033F000603E002027BE0200783E0020A97B02002C
:1034000000000000410603000000000089E7020000
:10341000000000008DE802000000000071040300BD
:103420000000000092FF7AFF0B12F712061603034A
:103430001B0106239001159001383CB3201F19157C
:103440001113A0381520101303247033032904012D
:10345000FF01FF01CB03FFFFFF01FF01FF711440DC
:103460001F031A48041A30041A3804120F120314E6
:103470003D7F025A10080322FFFF13283B0224203D
:103480009A2C28137440B320171484130314A9D062
:1034900002D48C3303297FCB60432C5A9C2C0A1115
:1034A000A82C019C137C3B02112015100140110235
:1034B00021040A11843C0416BC24031220BA4008DB
:1034C000312AFF042207145429031A74041A5C04D5
:1034D0001A6C045A6404291429102920291C011C7F
:1034E000E94014C42B031ABC041ACC041AD4041ADD
:1034F000DC041AE4041AEC041AF4041AFC04510B58
:083500001C90D05901FF012CC1
:040000050002620192
:00000001FF
