:020000040002F8
:10600000885E0020C1630200C9630200CB63020006
:10601000CD630200CF630200D163020000000000E4
:10602000000000000000000000000000D363020038
:10603000D563020000000000D7630200D9630200AC
:10604000C9650200DB63020039690200DB630200FC
:10605000DB630200000000000D650200DB6302004C
:10606000DB630200DB630200DB630200DB63020030
:10607000DB630200DB630200DB630200DB63020020
:10608000DB63020011660200DB6302000000000017
:10609000DB630200DB630200B5660200DB63020023
:1060A000DB630200DB630200000000000000000070
:1060B00000000000000000000000000000000000E0
:1060C00000000000000000000000000000000000D0
:1060D00000000000000000000000000000000000C0
:1060E00000000000000000000000000000000000B0
:1060F00000000000000000000000000000000000A0
:10610000000000000000000000000000000000008F
:10611000000000000000000000000000000000007F
:10612000000000000000000000000000000000006F
:10613000000000000000000000000000000000005F
:10614000000000000000000000000000000000004F
:10615000000000000000000000000000000000003F
:10616000000000000000000000000000000000002F
:10617000000000000000000000000000000000001F
:10618000000000000000000000000000000000000F
:1061900000000000000000000000000000000000FF
:1061A00000000000000000000000000000000000EF
:1061B00000000000000000000000000000000000DF
:1061C00000000000000000000000000000000000CF
:1061D00000000000000000000000000000000000BF
:1061E00000000000000000000000000000000000AF
:1061F000000000000000000000000000000000009F
:10620000DFF80CD000F044F9004800471592020076
:10621000885E002030B450E8012F93B2C489234433
:106220008489A34228BF1B1B0489A34202BFBFF37A
:106230002F8F002007E0C3EA020340E80134002C5E
:10624000E9D14FF001000A6030BC704750E8012FDF
:10625000C2EA024240E801210029F7D1704730B478
:1062600050E8022F1FFAA2F3C488A34202BFBFF373
:106270002F8F00200DE0C48923448489A34228BFC6
:106280001B1BC2EA034340E80234002CE8D14FF064
:1062900001000A6030BC704750E8022FC2EA224277
:1062A00040E802210029F7D17047034653E8022F46
:1062B000D988B2EB324F4FF0000017BF92B241EADB
:1062C000014142EA014104E05A68B2EB324F08BF93
:1062D000012043E80212002AE8D1704730B4044696
:1062E00054E8000F0D4644E80053002BF8D1156028
:1062F00030BC704730B4044654E8000F40EA010552
:1063000044E80053002BF7D1156030BC704730B41F
:10631000044654E8000F00EA010544E80053002B4E
:10632000F7D1156030BC704730B4044654E8000F14
:1063300080EA010544E80053002BF7D1156030BC1A
:10634000704730B4044654E8000F00EB010544E800
:106350000053002BF7D1156030BC704730B40446B1
:1063600054E8000FA0EB010544E80053002BF7D1DF
:10637000156030BC704770B404464FF0000054E81C
:10638000006F0D68AE4207BF44E80023012044E8D7
:1063900000630E60002B1CBF0020F0E770BC70474C
:1063A00030B4044654E8000F88422CBF451A054615
:1063B00044E80053002BF5D1156030BC7047000055
:1063C0000648804706480047FEE7FEE7FEE7FEE78F
:1063D000FEE7FEE7FEE7FEE7FEE7FEE7CD6602002A
:1063E00001620200202A04DB203A00FA02F10020B8
:1063F00070479140C2F1200320FA03F31943904003
:1064000070470000004870479CE7020040EA010323
:106410009B0703D009E008C9121F08C0042AFAD25A
:1064200003E011F8013B00F8013B521EF9D270471E
:10643000D2B201E000F8012B491EFBD270470022C6
:10644000F6E710B513460A4604461946FFF7F0FF73
:10645000204610BD421C10F8011B0029FBD1801AF8
:10646000704730B504460020034600E05B1C9342B1
:1064700003D2E05CCD5C401BF8D030BD034611F880
:10648000012B00F8012B002AF9D1184670470000B3
:10649000064C074D06E0E06840F0010394E8070071
:1064A00098471034AC42F6D3FFF7AEFE70F002000E
:1064B00090F0020070B58C1810F8015B15F007031E
:1064C00001D110F8013B2A1106D110F8012B03E08D
:1064D00010F8016B01F8016B5B1EF9D12B0705D495
:1064E0000023521E0DD401F8013BFAE710F8013BDE
:1064F000CB1A921C03E013F8015B01F8015B521EFA
:10650000F9D5A142D8D3002070BD00002DE9F84F85
:106510000026002000904FF480770125002410E031
:10652000384604F0C5F840B100BF2548006828404F
:1065300018B1384604F0AEF82E436D00381D87B20E
:10654000641C082CECD34FF4BE7004F0B1F850B1C9
:106550004FF4BE7004F09EF846F000466A460121F2
:10656000002004F043F8F0B210B3012500241DE030
:1065700005EA0600C0B100BF124850F82400C0F37D
:106580000420814600BF0F4850F82400C0F30140AA
:106590008246204601F040FD8046B8F1000F02D04F
:1065A00051464846C04700BF6D00641C082CDFD32D
:1065B00006F0004010B1684606F0DCFABDE8F88F3E
:1065C000046300401065004010B54FF4807003F084
:1065D00087FD50B14FF4807003F08BFD012003F074
:1065E00091FD0A480168002088474FF4827003F04B
:1065F00077FD50B14FF4827003F07BFD022003F071
:1066000081FD024801680120884710BD58300020F4
:1066100010B5034A1068034A1168884710BD00008E
:10662000C4300020C030002010B500F08DF910BD3E
:106630002DE9F047074688461646C24607EB470154
:106640001B4800EBC109D9F8140020B1012811D072
:10665000022826D11EE0484600F0AEF90546B542B4
:1066600001D2002405E0344632465146484600F047
:10667000EAF918E0484600F09FF90546B54201D214
:10668000284600E03046044622465146484600F07F
:10669000DAF908E032465146484600F09BF90446D4
:1066A00001E0002400BF00BF2046BDE8F0870000E5
:1066B000183C002010B505F005F810BD014802494E
:1066C000086070470090D0034431002010B502F0FC
:1066D000A1FE28B189480088C0F3042088490860D9
:1066E00002F0FCFE10B187488749486702F06AFF54
:1066F00030B18248E0380068C0F342308349086016
:1067000002F096FF28B18248006820F0807080492E
:10671000086002F0AFFF48B100207E4908604FF0EA
:106720008041C1F810017949091F086002F0D8FFC3
:1067300018B1032075496431086002F0F3FF68B1B5
:1067400005207549086001207349783108600020F0
:106750007149083108603F20091F086003F004F800
:10676000002855D06548E03000686C4908606348EF
:10677000E4300068091D08606048E8300068091DC1
:1067800008605E48EC300068091D08605B48F03026
:106790000068091D08605948F4300068091D086048
:1067A0005648F83000685D49203108605348FC3095
:1067B0000068091D08605A480068091D08605848AB
:1067C000001D0068091D0860554808300068091D53
:1067D000086053480C300068091D086050481030AC
:1067E00000684E49403108604D4814300068091D6A
:1067F00008604B4818300068091D086048481C3084
:106800000068091D0860464820300068091D0860BE
:1068100002F0D2FD30B13948CC38006800F04F00AA
:106820004049086002F024FE40B13F48006800F093
:10683000010018B16FF001003B49086002F070FEE2
:1068400028B13A48006840F480603849086002F096
:1068500087FE28B13348006840F00F0031490860D6
:1068600000BF02F08FFE20B13148006827491C317B
:10687000086000BF2E480838006800F0004028B9C2
:106880002B48001F006800F0004090B3012005F085
:1068900051FD152026490839086005F055FD1521E0
:1068A0004FF01020C0F8041205F04EFD002005F056
:1068B00041FD00BF00BF00BF00BF00BFBFF34F8F4F
:1068C00000BF00BF00BF1248F038006800F4E0606D
:1068D00018490843001D0E49F039086000BF00BF89
:1068E00000BFBFF34F8F00BF00BF00BF00BF00BF9E
:1068F000FDE7FFE7FFF7E2FE10BD000024030010F4
:10690000403501400DF0ADBA00C007403C050040E5
:10691000FCED00E00C0100401056004020C5004096
:1069200024040010E40E0040000400403C17004026
:10693000081200100000FA0510B5024908688047E7
:1069400010BD00006030002010B5124C0220206104
:10695000606111A0A0611349E1614FF400712162EF
:106960000021A1626162E1620BA0A0640E49E164B2
:10697000102121650021A1656165E1650BA1E01D84
:10698000FFF77CFD0AA12046FFF778FD2020A071CB
:1069900010BD0000003C00205465726D696E616C92
:1069A00000000000783C0020783E00205254540043
:1069B000534547474552000010B501460A69CB6868
:1069C0009A4204D88C68641EE41AA01801E0D41A14
:1069D000601E10BD2DE9F0470446894617464FF06A
:1069E000000AE56800BFD4F81080A84503D9A8EBD9
:1069F0000500461E04E0A5EB0800401CA1680E1A25
:106A0000A068401BB04201D9304601E0A068401B9D
:106A10000646BE4201D2304600E03846064661686E
:106A2000481932464946FFF7F1FCB244B144BF1B56
:106A30003544A068A84200D10025E560002FD2D1DE
:106A40005046BDE8F0872DE9F047044689461546D3
:106A5000E668A068871BAF4208D9616888192A4692
:106A60004946FFF7D3FC7019E06010E0B846616852
:106A7000881942464946FFF7C9FCA5EB070809EB10
:106A8000070142466068FFF7C1FCC4F80C80BDE80E
:106A9000F0870000014A024900F036B8918B0200ED
:106AA000D830002002E008C8121F08C1002AFAD11D
:106AB00070477047002001E001C1121F002AFBD17E
:106AC000704700000146202908DA012088400A4A60
:106AD000104008B1012070470020FCE7402909DA86
:106AE000A1F12000012202FA00F008B10120F2E732
:106AF0000020F0E70120EEE7FC06FFBD00BFEFF34A
:106B00001081084672B670472DE9F04116460F46CF
:106B10000446002503E03946B047641C6D1C20780C
:106B20000028F8D12846BDE8F0812DE9F05F06463F
:106B30000C462746A57994F804A04FF00009B6F852
:106B40001CB0C84612E007EB88025946B06900F055
:106B500087FB28B109F1010000F0FF0915B907E032
:106B600005B105E008F1010000F0FF08D045EADBBF
:106B700000BF0DB1D14503D02DB9B9F1000F02DD31
:106B80000120BDE8F09F0020FBE710B501220221A3
:106B9000002001F0BDF8044600BF1CB1072C01D055
:106BA000204610BD00BF07220221012001F0B0F8ED
:106BB000044600BF1CB1072C01D02046F1E700BFFE
:106BC0000A220021084601F0A3F8044600BF1CB1C8
:106BD000072C01D02046E4E700BF0020E1E70000D9
:106BE00010B5002407E00749096811F834000121B5
:106BF00004F014FF641C044800788442F3D300209E
:106C000010BD0000683000206C3000202DE9F843F2
:106C100006460D4617460A2F02D20720BDE8F88324
:106C200005F040F838B904F0D3FF044600BF204611
:106C300000B1F3E700BF184806601848057018480F
:106C4000076018480021016041608160C160164AF8
:106C50001160516015E006EBC5081448006800900B
:106C600098F802008DF8010098F80000104A694673
:106C700004F02AFF044600BF204600B1CEE700BF63
:106C800000BF281EA5F10101CDB2E4D1094A0021BF
:106C9000094800F0B9F8C1E7683000206C300020E6
:106CA00070300020983500207830002098E40200F1
:106CB000558D02007984020094E4020072B600BF90
:106CC00004F076F800BF00BF03F0EEFD0028FBD112
:106CD00000BF00BF1D491E4A891AC908012242EAA5
:106CE00001401CA103F06EFF00BF1D48006800F0CA
:106CF000010000B100BE00BF1449154A891AC90835
:106D0000022242EA014017A103F05CFF00BF00BF6E
:106D100000BF00BF00BFBFF34F8F00BF00BF00BF69
:106D20000F48E438006800F4E06012490843001D91
:106D30000B49E439086000BF00BF00BFBFF34F8FAD
:106D400000BF00BF00BF00BF00BFFDE718F1020099
:106D5000A0F00200466174616C206572726F72006F
:106D6000F0ED00E053797374656D2072657365749E
:106D7000000000000000FA053EB504460020009027
:106D80000190029002946A46002144F20100FFF74C
:106D900095FF3EBD70B504460D46204601F0DCFE71
:106DA00028B12946204601F0CBFE002070BD052009
:106DB000FCE7034609B90E20704712B1501E10407F
:106DC00008B10920F8E71960501E988000209860EB
:106DD000D86000BFF0E770B504460D46204601F0CC
:106DE000BBFEA188884205D82946204601F0C7FE8F
:106DF000002070BD0420FCE710B5024801F0B6FC8D
:106E000010BD00008030002010B503460C460AB9C2
:106E1000072010BD19684A61012C01D1012000E052
:106E2000002008610020F4E738B51348006800909E
:106E30000823582211491248006802F0CBFC04468E
:106E40000CB1204638BD0F4A69460F4801F094FC4A
:106E500004460CB12046F5E701210B4801F032FD54
:106E600001230A4A1946084801F052FC012008494A
:106E700008702046E6E70000ACE40200A8350020D8
:106E80009CE40200C1D0020080300020FFFF7F00A0
:106E90008C3000202DE9F04106460D461746344659
:106EA000207F10B10020BDE8F081A76101F034FF20
:106EB000401941F10001C4E90201206900B12561D6
:106EC0002146002006F03CFEEDE770B5044625465D
:106ED000002028772946012006F032FE70BD000010
:106EE0002DE9F04104460F48077821460E48FFF788
:106EF00051FF804697B100200A49087001220B49D2
:106F00000B4803F08DF9054600BF2E4626B100BFA1
:106F10003046FFF731FF00BF00BF00BF4046BDE86D
:106F2000F0810000BE30002010360020BD3000206F
:106F3000A43000202DE9F04188B004460E461746E3
:106F400098462B4807601EB9072008B0BDE8F081BD
:106F5000B08882B227483168FFF72BFF054600BF93
:106F6000284600B1F1E700BFB08982B22248B1687B
:106F7000FFF71FFF054600BF284600B1E5E700BF49
:106F800020221E496846FFF741FA60690690207C7E
:106F900008B1012000E000208DF814008DF81C805D
:106FA000607C08B10E2000E000208DF81500E0683C
:106FB0000290A06803902068019060680090104AD9
:106FC0006946104803F0E6F8054600BF284600B1C0
:106FD000BBE700BF00200C4908702068401C28B1A6
:106FE00001220A49074803F01BF9AEE70020ACE78D
:106FF000B83000201036002020360020B0E4020017
:1070000085DD0200A4300020BE300020BD3000200D
:107010002DE9F041054629461448FFF7DCFE0646F7
:1070200006BB134C002720781249085C20B1201DB4
:1070300005F04AF9074608E020780E49085C20B9B7
:1070400004F10C0004F0E8FF074600BF57B90A49F5
:107050000648FFF79FFE28B901220749044803F0BC
:1070600001F906463046BDE8F081000020360020D8
:10707000A430002054300020BC30002010B504465D
:10708000204606F02BFA10BD70B5044625460E4882
:107090008068B0B1ADB9FFF731FD06460A48006817
:1070A0000A490860084840684FF0E021C1F804012F
:1070B0000020054988601EB900BF62B600BF00BF4E
:1070C00000BF00BF70BD00003036002000E100E0CE
:1070D00070B505460C462068401C28B1206803F0B6
:1070E000BCFA206803F051FA6068401C18B1002116
:1070F000606803F030FA2868A169C0F8241500BF61
:10710000617D227D286841EA0203C0F86C3500BF2A
:10711000D4E90012286804F0E9FB207D012814D18D
:10712000A068401C18B10021A06803F014FAE068C0
:10713000401C28B1E06803F090FAE06803F025FAFB
:10714000D4E90221286804F0B9FB70BD70B505468A
:107150000C462068401C28B1206803F089FA20689A
:1071600003F01FFA6068401C18B10021606803F04A
:10717000FFF92868A169C0F8241500BF617D227D50
:10718000286841EA0203C0F86C3500BFD4E9001258
:10719000286804F0E5FB207D012814D1A068401C7C
:1071A00018B10021A06803F0E3F9E068401C28B1A1
:1071B000E06803F05DFAE06803F0F3F9D4E9022136
:1071C000286804F0AEFB70BD002114E00C48D0F834
:1071D0001024012308E000BFD0680079884201D163
:1071E000002303E0D0680268002AF4D100BF0BB18D
:1071F00008467047491C0A29E8DB4FF0FF30F8E7E2
:10720000E0370020F0B504460D461E4604B10AB929
:107210000020F0BD002103E0605C401C084481B206
:10722000481CA84206DA10888842F5DC481C205C1D
:10723000B042F1D1A94201DB0020EAE7881C87B205
:10724000605C10B1605C401E00E0002083B213B1AE
:10725000F818A84201DD0020DBE717801846D8E7C0
:107260002DE9F04788B004460E46174600200790E7
:1072700010200690B24602AA06A9384664DF81466D
:1072800014B1B9F1000F03D0002008B0BDE8F087B9
:107290009DF81800022804D0042809D0102815D120
:1072A0000DE003208DF8040002208DF805000FE0AA
:1072B00005208DF8040004208DF8050008E0072063
:1072C0008DF8040006208DF8050001E00020DCE7C1
:1072D00000BF002509E001A8435D07AA314620460A
:1072E000FFF790FF8246681CC5B2022D03DABDF895
:1072F0001C000028EFD0BDF81C0008B90020C4E72E
:10730000BDF81C0004EB000800250DE008EB0500AB
:107310009DF8182002A9FFF7A4F808B90120B4E7E6
:107320009DF81800284485B25545EFDB0020ACE7F6
:1073300010B5044600BF0CB90E2010BD00BF00BF41
:1073400006480078012801D00820F6E700BF04486D
:107350000168204605F00EFEEFE7000048300020EF
:107360003C3000200146002200BF09B90E207047C2
:1073700000BF00BF086808B90E20F8E700BF00BFD3
:10738000486808B90E20F2E700BF0020064B1860DD
:107390000120064B1870064B08681860054B4868BA
:1073A00018601046E3E70000443000204830002019
:1073B0003C3000204030002070B504460D4600BF30
:1073C00004B970BD00BF00BF05B9FAE700BF00BF38
:1073D00014480078012800D0F3E700BF2E4620882B
:1073E000112815D0302804D0322807D0332814D1E2
:1073F00009E0211D304605F09DFA0FE0211D3046C1
:1074000004F0AAFF0AE0211D304605F02FF905E03F
:10741000211D304605F0B7F900E000BF00BF00BFF6
:10742000CFE700004830002070B504460D4600BF8D
:107430000CB90E2070BD00BF00BF0B4800780128BA
:1074400001D00820F6E700BF0848006808B9082006
:10745000F0E794F8C80208B11120EBE7294620466E
:1074600001F0E0F8E6E7000048300020443000205A
:107470002DE9F843054688462E1D28881F2866D02A
:1074800008DC10280DD0112836D013284FD01B2827
:107490007BD13EE0212868D03B2878D05628F7D110
:1074A00083E0A98800224A4800F07EF9044600BF24
:1074B000274627B100BF3846FFF75EFC00BF00BF7C
:1074C000072000F053FC044600BF274627B100BF49
:1074D0003846FFF751FC00BF00BFA9883D48FFF7C1
:1074E000A3FF044600BF274627B100BF3846FFF779
:1074F00043FC00BF00BF67E0337932883649374F1D
:10750000C91BC908032747EA014035A103F070FBF6
:107510005AE03079022809D12F49304A891AC9081E
:10752000032242EA01403AA103F04CFB4CE0A88858
:1075300000231A4685217FDF044600BF274627B176
:1075400000BF3846FFF718FC00BF00BF3CE03088A2
:10755000311D75DF044600BF274627B100BF3846FE
:10756000FFF70AFC00BF00BF2EE000200090A888B3
:1075700069468FDF044600BF274627B100BF384663
:10758000FFF7FAFB00BF00BF1EE01CE0FFE7A88882
:10759000132176DF044600BF274627B100BF3846D7
:1075A000FFF7EAFB00BF00BF0EE0A888132176DFDB
:1075B000044600BF274627B100BF3846FFF7DCFB73
:1075C00000BF00BF00E000BF00BFBDE8F8830000BF
:1075D00048310020282A002018F10200A0F0020003
:1075E000446973636F6E6E65637465642E20636FA8
:1075F0006E6E5F68616E646C653A20307825782C19
:1076000020726561736F6E3A203078257800000033
:10761000436F6E6E656374696F6E20526571756538
:1076200073742074696D6564206F75742E0000009A
:1076300070B505460E462888102802D011282CD196
:1076400015E01748006860B900F0E3FD044600BF8C
:1076500034B11448006818B12046124909688847B7
:1076600000BF0F480068401C0D49086016E00C4838
:107670000068401E0A4908600846006860B9FFF7C4
:1076800084FA044600BF34B10648006818B12046A9
:1076900004490968884700BF00E000BF00BF70BD13
:1076A00038300020343000202DE9F04107460C46E8
:1076B000207820B1012834D0022844D136E0234973
:1076C000234A891AC908032242EA014021A103F092
:1076D00079FA618804F10E02384600F065F8054633
:1076E00000BF2E4626B100BF3046FFF745FB00BF66
:1076F00000BF384600F090F9054600BF2E4626B17F
:1077000000BF3046FFF738FB00BF00BF0F49104AEB
:10771000891AC908032242EA014013A103F052FA70
:1077200011E0A189A06800F08DF90CE00749084A32
:10773000891AC908032242EA014017A103F042FA5C
:1077400005F05CFE00BF00BFBDE8F08118F102004B
:10775000A0F00200446973636F7665727920636FED
:107760006D706C6574652E00436F6E6E6563746535
:107770006420746F20646576696365207769746836
:10778000204E6F72646963205541525420536572D4
:10779000766963652E000000446973636F6E6E65E1
:1077A000637465642E00000070B504460E461546ED
:1077B00000BF0CB90E2070BD00BF66802DB1698876
:1077C000E1802888A080A98821813146606902F083
:1077D000B7F9F0E770B586B004460D461A4B0FCBEB
:1077E00001AE0FC600BF14B90E2006B070BD00BFB9
:1077F00000BF0DB90E20F8E700BF00BFA86808B9A8
:107800000E20F2E700BF214601A862DF064600BF56
:10781000304600B1E9E700BF20788DF8160001205E
:10782000ADF814004FF6FF7060802868E06068686B
:1078300020610020A08000212181A868606105A846
:10784000FFF776FDD1E70000E4E3020070B586B0F3
:1078500005460E46344604B10DB906B070BD6088C9
:107860004FF6FF71884203D06088A988884200D013
:10787000F3E72888112806D0392816D12946204652
:1078800005F02EF812E0A888618888420CD1E068E3
:1078900050B102208DF804004FF6FF70608001A9FE
:1078A0002046E268904700BF00E000BF00BF00BF75
:1078B000D3E770B586B005460C46142101A8FEF743
:1078C000BEFD04F10E06207800283AD1A0880128D8
:1078D00037D1A0792978884233D1002022E000EB0B
:1078E000C00136F81110022902D0032917D107E090
:1078F00000EBC00106EB41010A89ADF816200FE04C
:1079000000EBC00106EB41010989ADF8121000EB54
:10791000C00106EB41014A89ADF8142000E000BF28
:1079200000BF401C217A8142D9D8E86848B16088FC
:10793000ADF8060000208DF8040001A92846EA6889
:10794000904706B070BD000070B588B004460E4682
:10795000154600BF14B90E2008B070BD00BF20212D
:107960006846FEF76CFDF42D0BDD1C491C4A891A94
:10797000C908022242EA01401AA103F023F90720B4
:10798000EAE760884FF6FF7188420BD11349144A29
:10799000891AC908022242EA014017A103F012F92C
:1079A0000820D9E701208DF800001A4802900394BE
:1079B0002189ADF81210ADF816500021ADF8141061
:1079C000069602208DF8100001218DF811106288B2
:1079D0006946606902F0DEF8BEE70000C0F0020010
:1079E000A0F00200436F6E74656E7420746F6F2098
:1079F0006C6F6E672E000000436F6E6E6563746976
:107A00006F6E2068616E646C6520696E76616C696A
:107A1000642E0000A18B020010B5044600BF0CB913
:107A20000E2010BD00BF60884FF6FF71884201D064
:107A3000E08808B90820F4E70121204600F0ACFAFC
:107A4000EFE700002DE9F04106460F46002520E053
:107A500000BF705DFFF7DCFA0446BCB1112C15D0F5
:107A60001349144A891AC908012242EA01402A46E8
:107A700011A103F0B1F800BFA046B8F1000F04D087
:107A800000BF4046FFF778F900BF00BF112CE0D0DF
:107A90006D1CBD42DCD3781E305C0D2805D100BFC3
:107AA0000A20FFF7B5FA1128FAD0BDE8F0810000EE
:107AB00018F10200A0F002006170705F75617274CD
:107AC0005F707574206661696C656420666F7220F2
:107AD000696E646578203078253034782E00000097
:107AE00038B503F0ADFD044600BF254625B100BF03
:107AF0002846FFF741F900BF00BF0020009069460B
:107B0000012003F0EFFB044600BF254625B100BF6E
:107B10002846FFF731F900BF00BF684603F0B0FC0C
:107B2000044600BF254625B100BF2846FFF724F9CB
:107B300000BF00BF38BD000001460148405C7047EF
:107B400010E3020010B50146094B585C00BF4FF02E
:107B5000A044234600BFD3F81045C44004F00104FC
:107B60000CB1012000E00020024682F0010010BDAF
:107B700010E3020002464FF0FF30002106E0054B03
:107B80005B5C934201D1084602E0491C0429F6D30C
:107B900000BF704710E3020070B505460C46002692
:107BA0000648056014B1204605F04AFE0448006806
:107BB00010B9FEF7EAFF0646304670BD34300020AB
:107BC0003830002010B5002000F00AF9044600BF4C
:107BD0001CB1062C01D0204610BD00BF012000F0D2
:107BE000FFF8044600BF1CB1062C01D02046F3E785
:107BF00000BF0020F0E700002DE9F04106460F46E7
:107C00004FF0000800243046FFF7B4FF0446042C70
:107C10003ED20FB3012F02D0022F38D130E004EB57
:107C20004400214911F8008004EB440008444078E6
:107C300050B11E4A4FF480411D480068FFF72AF9F1
:107C400005460DB91948067004EB4400164908446E
:107C50008078184908551AE015480068FFF735F98B
:107C60001448005D04EB44010F4A114489788842AE
:107C700005D104EB44001146084490F8028006E068
:107C800004EB44000849084490F8018000BF00BF9D
:107C9000B8F1000F06D00848006818B14046064900
:107CA00009688847BDE8F081703400202C3000203E
:107CB00014E302002D3000202830002010B50446C7
:107CC000042C03D22046FFF73DFF10BD0020FCE747
:107CD00070B50546042D05D00A2D14D1002003F0FF
:107CE000B9F911E009494888132176DF0446082CC8
:107CF00008D000BF264626B100BF3046FFF73CF84B
:107D000000BF00BF00E000BF00BF70BD48310020D1
:107D100030B503460020042B23D2012A07D10129C4
:107D200003D103F10E04E4B200E00024224679B14D
:107D3000012902D0022911D104E003EB43040A4DCA
:107D40002A550DE003EB4304074D2C44627007E015
:107D500003EB4304044D2C44A27001E0072000BF54
:107D600000E0072030BD00007034002001460020F4
:107D7000704700002DE9F04106460F4600241448E4
:107D8000076006F0020000B3002506E0012211465C
:107D90002846FFF7BDFF04466D1C042D01D2002CC0
:107DA000F4D034B940F2333204210A48FEF72EFFF2
:107DB000044614B9FEF714FF04462CB9064A002104
:107DC0000648FFF721F8044600BF2046BDE8F081D1
:107DD0002830002018E30200497F020014E302006B
:107DE00010B504460121204606F04FFA10BD0000F0
:107DF0002DE9FC4704460D461646A71C4FF0010826
:107E00000020019001A8FFF739F930484068286048
:107E10002E4840682D498968411A2D480068401C49
:107E2000A0EB010915E001212A4801F02DFD01F028
:107E30008BF982465146274801F026FD23484068C9
:107E400022498968411A22480068401CA0EB0109B8
:107E500000BF4F45E7D8B8F1000F30D000210091A6
:107E600076B1009921F00301491C0091009921F09D
:107E70000401091D0091009964F3891100910DE03E
:107E8000009921F00301891C0091009921F004015F
:107E9000091D0091009964F39F5100910B494968B5
:107EA0000B4A12681140094A0C3202EB810000991A
:107EB00001600649496839440C3A516000BF9DF899
:107EC0000400FFF7E1F84046BDE8FC87E0370020FA
:107ED000FC300020FC3B002070B504460D460A2D06
:107EE00003D10D212046FFF7F7FFA168481CA060D1
:107EF00020684554D4E90110884202D3204602F09C
:107F0000E8F970BD0448806803494968884201D196
:107F1000012070470020FCE7E037002002460021E6
:107F200008E0074B1B6803EBC1000378934200D1C4
:107F30007047491C034800788142F2DB0020F7E7D4
:107F4000683000206C30002010B5044620780221F3
:107F5000FFF752FE10BD000038B50E490120FFF7B3
:107F600009FF044600BF254625B100BF2846FEF79D
:107F700003FF00BF00BF69460020FFF70DFE044667
:107F800000BF254625B100BF2846FEF7F5FE00BF1D
:107F900000BF38BDD17C020070B58AB004460D46E2
:107FA0002E46202102A8FEF74AFAF0B28DF804000E
:107FB000300A8DF8050001208DF808000D48049066
:107FC0000594E188ADF81A100221ADF81E100021C9
:107FD000ADF81C1001A9089101208DF818000121AD
:107FE0008DF81910628802A9606901F0D3FD0AB00A
:107FF00070BD0000A18B02004FF0FF31054A42F82E
:108000002010082804DBFF23A0F10801503253544C
:1080100070470000CC3400200146024850F821008F
:1080200070470000CC3400202DE9F04F03460C4689
:108030004FF0FF390AB1002000E0082084460AB161
:10804000082000E00C208046614624E0154850F8E6
:108050002100401CF0B91D460846274616464FFA37
:1080600080FBDFF840A00AF1300A0AF805B0DFF81B
:1080700034A04AF820704EB94FFA85FBA0F1080AE7
:10808000DFF820E00EF1500E0EF80AB000BF4FFAF4
:1080900081F902E0491C4145D8D300BF4846BDE8FC
:1080A000F08F0000CC340020014601484056704754
:1080B000FC34002070B58AB004460E46202101A889
:1080C000FEF7BDF90020099094F8C60200EB80018C
:1080D000C1EB801004EB400594F8C502B8B194F8E8
:1080E000C522521ED1B294F8C62202EB8203C3EB22
:1080F000821204EB420501EBC10305F10A0202EB17
:1081000043000289521C92B2ADF8242002E0E888B4
:10811000ADF824002889ADF8260003208DF804006E
:1081200009980590049405480390324601A9044833
:10813000006801F02FFD0AB070BD0000FD8502004F
:108140004030002070B505460DB9094C01E0084CDF
:10815000083409E0204600F0B1FF064606B904E005
:1081600028467168884700BFF4E700BF70BD000073
:10817000C034002010B504462CB9012006494870CF
:108180000020FFF7DFFF012C04D101200249887095
:10819000FFF7D8FF10BD0000B83400202DE9F047EC
:1081A000024613468C46D3E90245DCE90267B6EB8A
:1081B000040877EB050002D30120BDE8F08700201A
:1081C000FBE70246002007E0536833F810308B428B
:1081D00000D17047431C98B213888342F4DC00BF7F
:1081E000F7E710B502460B4600210DE0506830F865
:1081F00011004FF6FF74A04204D1506820F81130EE
:10820000002010BD481C81B210888842EEDC04209A
:10821000F7E710B5012200210846FFF779FD044673
:1082200000BF1CB1072C01D0204610BD00BF0722A3
:1082300002210120FFF76CFD044600BF1CB1072C92
:1082400001D02046F1E700BF042202210020FFF701
:108250005FFD044600BF1CB1072C01D02046E4E7B7
:1082600000BF0020E1E700002DE9FF4105460C4674
:10827000002002900390ADF80840ADF80A4000904D
:1082800001906A4602A9284690DF0646002E32D0A9
:10829000304603F0F1FA074619491A4A891AC90803
:1082A000012242EA01403B462A46174902F0A0FC5F
:1082B000BDF8000010B9BDF8020068B1BDF8023089
:1082C000BDF800200E490F4FC91BC908012747EA16
:1082D00001400EA102F08CFCBDF8040058B1BDF8BD
:1082E00004200749074BC91AC908012343EA014082
:1082F000164902F071FC304604B0BDE8F081000080
:10830000A8F00200A0F002008CE80200546865208A
:108310007265717565737465642054582F525820C6
:108320007061636B6574206C656E67746820697337
:1083300020746F6F206C6F6E672062792025752F17
:108340002575206F63746574732E0000D8E80200F1
:1083500010B5044621460248FFF7ABFA10BD0000F5
:10836000483100207CB50020009001900848009022
:10837000084801906846FEF7F5FF044600BF254611
:1083800025B100BF2846FEF7F7FC00BF00BF7CBD4B
:1083900051830200103000202DE9F04F89B00446CF
:1083A0000F4691464FF0000B20216846FEF747F834
:1083B00094F8C60200EB8001C1EB801004EB40058D
:1083C00094F8C50200EBC00105F10A0000EB410A78
:1083D00094F8C502401C2979884207D108AB0022D5
:1083E0005146204600F02CFE834627E094F8C562F3
:1083F0001FE02879401EB04202D14FF0000806E08D
:10840000701C00EBC00105F10A0000EB410808AB4D
:1084100042465146204600F013FE10B14FF0010BCA
:108420000AE0C24694F8C502401C84F8C502701CDC
:10843000C6B22879B042DCDC00BF00BFBBF1000F40
:1084400005D101203870002009B0BDE8F08F002070
:10845000387004208DF800000898049003940448B4
:1084600002904A4669460348006801F093FBEBE737
:10847000FD850200403000202DE9F04180460024B7
:1084800014E01248006800EBC405287803F096FB5E
:1084900007466878012800D100E00020784080F08D
:1084A00001062878314600F0C5FA641C08480078B7
:1084B0008442E6DB0748D0E90010002359405840C9
:1084C000014301D005F05CFBBDE8F081683000207D
:1084D0006C3000207830002030B59FB004460D4647
:1084E0007C216846FDF7ABFFADF8025003208DF804
:1084F000000001940448006818B168460249096800
:1085000088471FB030BD00003C3000202DE9F0410D
:1085100004460D46164694F8C60200EB8001C1EBF6
:10852000801004EB4008404604F004FD0746E7B322
:10853000D4F8CC02062838D204F53470D4F8CC1222
:1085400000EBC110468004F53471D4F8CC2201EB65
:10855000C211081D76224146FDF758FF45B10021A2
:1085600004F53470D4F8CC2200EBC210017007E09F
:10857000022104F53470D4F8CC2200EBC210017053
:1085800004F53470D4F8CC1200EBC110C767D4F8EE
:10859000CC02401CC4F8CC020549D4F8CC020968CE
:1085A000884202D1204604F08DFABDE8F081000037
:1085B000443000202DE9F041A0B004460D46164697
:1085C00094F8C60200EB8001C1EB801004EB400878
:1085D000404604F0AFFC074657B17C22064901A88B
:1085E000FDF714FFADF80660029501A8B84700BF7B
:1085F00020B0BDE8F081000038E302002DE9F04131
:1086000005460C4616462746002087F8C802324623
:1086100029463846FFF7CEFF31463846FFF75CFF64
:10862000BDE8F081F0B589B004460E464FF4BA615A
:108630002046FDF704FF202101A8FDF700FF314689
:108640001E48006801F07CFA054600BF284608B1C4
:1086500009B0F0BD00BFA4F8CA620020C4F8CC0283
:1086600084F8C70284F8C60284F8C50294F8C602EA
:1086700000EB8001C1EB801004EB400794F8C602C8
:108680000F4901EB80000068386002208DF804007B
:108690000120ADF814003968CDF81610049409488B
:1086A0000390324601A90548006801F073FA0546B7
:1086B00015B9012084F8C8022846C9E740300020D7
:1086C000A0340020FD85020010B50021034801F010
:1086D000F1F8044684F3100010BD0000FC3B0020BC
:1086E00070B505460C464FF4803000FA04F1284678
:1086F00000F085F970BD70B505460C464FF4A070CA
:1087000000EB840086B23146284600F00BFA70BDBB
:108710002DE9F04704460D4616461F464FF48030BB
:1087200000FA05F84FF4A07000EB85001FFA80F9FD
:1087300026F07F464146206802F0BFFD4146206892
:1087400002F0B5FD4946206802F0AAFD32462946EE
:10875000206802F09CFD4146206802F0ABFD1FB18D
:108760004146206802F0ACFDBDE8F08710B5044634
:10877000206802F091FD10BD2DE9F04704460D463A
:1087800017466079324941F820706079314901EB30
:10879000C000007968B108262F49304A891AC908F3
:1087A000022242EA01402EA102F00CFA3046BDE856
:1087B000F08729882068C0F8081500BF94F90420C4
:1087C000AB7810461946002808DB4FEA417C4FEA97
:1087D0001C68DFF8B0C00CF800800BE04FEA417C69
:1087E0004FEA1C69DFF8A0C000F00F08A8F10408E8
:1087F0000CF8089000BF00BF94F904100846002848
:108800000DDB00BF00BF00F01F0301229A404309A7
:108810009B0003F1E023C3F8002100BF00BF00BFAD
:1088200000BF012061790B4A02EBC1010871607938
:10883000114641F8304000260749084A891AC908FC
:10884000032242EA014011A102F0BCF93046AEE732
:10885000C0300020C430002000F10200A0F002006F
:1088600052544320696E7374616E636520616C724B
:108870006561647920696E697469616C697A65649F
:108880002E00000000E400E018ED00E05254433AEE
:1088900020696E697469616C697A65642E000000F4
:1088A00010B5014691F90400002807DB00F01F0312
:1088B00001229A40024B440943F8242000BF10BD16
:1088C00000E200E070B505460C462246022128462B
:1088D00000F0A1F870BD10B504464FF48271204637
:1088E00000F020F910BD10B504460021206802F008
:1088F000EAFC10BD10B504460421206802F0E3FC38
:1089000010BD2DE9F84F04468846154699464FF4A8
:10891000803000FA08FA4FF4A07000EB88001FFACC
:1089200080FB25F07F455146204600F068F820681E
:1089300002F0B2FC06464146206802F0A2FC00901C
:1089400032464146206802F0A2FC5946206802F0F7
:10895000A7FC3146009805F05FF8012806D11020E9
:1089600003F040F85946206802F09AFC206802F0B3
:1089700093FC06463146284605F04EF80746514618
:10898000206802F097FC012F0FD16A1C4146206835
:1089900002F07DFC102003F025F8206802F07CFC3A
:1089A000B04225D00D20BDE8F88F2A464146206808
:1089B00002F06DFC206802F06FFC0646681E31462E
:1089C00005F02AF807466FF07F40A0EB0900B84297
:1089D00001D20D20E7E75FB96A1C4146206802F02A
:1089E00056FC206802F058FCB04201D00D20DAE7B6
:1089F00001225146204600F00EF80020D3E770B562
:108A000004460D462946206802F051FC294620689C
:108A100002F053FC70BD70B504460E461546314653
:108A2000206802F047FC1DB13146206802F048FC86
:108A300070BD0000F8B505460C46284604F014FF4A
:108A400005286AD2DFE800F003212A393F00DCB1B3
:108A50000121284604F018FF002000906846FEF728
:108A60000DFB2A460126002730463946FDF7BAFCA1
:108A70002B4AD2E9003218431143294A03C29DF818
:108A80000000FEF701FB00BF47E00CB1022000E050
:108A900000200146284604F0F7FE3EE044B10321E1
:108AA000284604F0F1FE0121284605F0DFFB03E033
:108AB0000121284604F0E8FE2FE01CB904212846D5
:108AC00004F0E2FE29E024B10321284604F0DCFE94
:108AD00022E00021284604F0D7FE0021284605F0B8
:108AE000C5FB002000906846FEF7C8FA2A4601261A
:108AF000002730463946FDF775FC0A46C143D0438E
:108B0000074B0CCB11401840054AC2E900109DF8F4
:108B10000000FEF7B9FA00BF00BF00BFF8BD0000BB
:108B20007830002070B505460C462868015929B1F7
:108B30002146286802F0B4FB012070BD0020FCE74C
:108B400070B504460D462A460021204600F00EF876
:108B5000A068401CA06070BD01468A68C868801A81
:108B6000704701468A68C868801A704710B58368E4
:108B70000B44848823400468E35C137010BDC26812
:108B800083881A4003689954C268521CC2607047B7
:108B900070B504460D46E0B2FEF73AFA204670BDC5
:108BA0002DE9F04106460C4617462546286910B1C6
:108BB000304629698847BDE8F081000070B5054658
:108BC0000C46208840F6772188421AD10D490E4A7A
:108BD000891AC908032242EA01400CA101F0F2FF00
:108BE000A088C01E104908800649074A891AC9088A
:108BF000032242EA01400C490B880A880BA101F0CC
:108C0000F7FF70BD18F10200A0F00200415454209B
:108C10004D54552065786368616E676520636F6D9C
:108C2000706C657465642E0024300020426C6520F1
:108C30004E5553206D61782064617461206C656EBF
:108C40006774682073657420746F20307825582805
:108C50002564290070B50E490E4800F0D3FE044685
:108C600000BF254625B100BF2846FEF785F800BFA6
:108C700000BFF721074800F0B6FE044600BF2546B6
:108C800025B100BF2846FEF777F800BF00BF70BDD2
:108C9000BD8B02006031002070B506460C4604F121
:108CA0001005E888102801DD092070BDE9883046EC
:108CB00002F0FCF86060606808B90420F5E7EA8813
:108CC000A9680023606802F07CF90020EDE770B528
:108CD00006460C4604F11005A8680088102801DD3E
:108CE000092070BDA8680088811C304602F0DEF8BB
:108CF0006060606808B90420F3E7A96800230222D5
:108D0000606802F05EF9AB681A88E968022360685F
:108D100002F057F90020E4E770B50B48FFF726FD95
:108D20000A4B0CCB841843F10005094903C9201AEA
:108D300075EB010004D24FF08073E41845F1000593
:108D40002046294670BD0000803000209030002071
:108D5000983000202DE9F04104468846E0B2FFF744
:108D6000DDF80546287802F029FF074668780128D3
:108D700000D100E00020784080F001064EB10648A6
:108D8000D0E90010002359405840014301D104F0BC
:108D9000F7FEBDE8F08100007830002010B501F04A
:108DA00083FD08B902F04AF910BD2DE9FC5F834646
:108DB0000E4691461F46DDE90C45002E01DA704251
:108DC00000E0304682464FF0010803E09AFBF9FAD2
:108DD00008F10108CA45F9DA474500D9B84634B167
:108DE000002E03DB05F00400042800D1641E05F00A
:108DF000020000B167B105F0010048B944B104E0D8
:108E0000641E20215846FFF767F80CB1A045F7D340
:108E1000002E05DA76422D215846FFF75DF807E06F
:108E200005F00400042803D12B215846FFF754F81D
:108E300005F0020002280DD105F0010050B94FB92C
:108E400044B104E0641E30215846FFF745F80CB1E8
:108E5000A045F7D33B464A4631465846CDE9004542
:108E600005F0A8F9BDE8FC9F2DE9F04104460E4647
:108E70004FF48E71206802F01AFD4FF4A271206841
:108E800002F015FD1A49206802F021FD206802F069
:108E9000BDFD0546374628463946002804DB4A070B
:108EA000130E144A135408E04A074FEA126C124A90
:108EB00000F00F031B1F02F803C000BF00BF2068B3
:108EC00002F0A4FD0546284600280DDB00BF00BFC8
:108ED00000F01F02012191404209920002F1E022BC
:108EE000C2F8001100BF00BF00BF00BFBDE8F081A5
:108EF0008000020000E400E018ED00E02DE9F04100
:108F000004460E464FF48871206802F003FD4FF4CA
:108F10009071206802F0FEFC4FF49271206802F01C
:108F2000F9FC4FF4A271206802F0F4FC4FF4AC712C
:108F3000206802F0EFFC1B49206802F0FBFC20686F
:108F400002F068FD0546374628463946002804DB0E
:108F50004A07130E144A135408E04A074FEA126CEA
:108F6000124A00F00F031B1F02F803C000BF00BF2E
:108F7000206802F04FFD0546284600280DDB00BFA3
:108F800000BF00F01F02012191404209920002F14E
:108F9000E022C2F8001100BF00BF00BF00BFBDE863
:108FA000F08100001003420000E400E018ED00E052
:108FB00030B5024600201378C3F38003D3B1137891
:108FC00003F00303012B02D0022B10D107E013881A
:108FD000C3F383139B1C0C6823440B6008E00B68ED
:108FE0000225146805EB945423440B6000E000BF95
:108FF00000BF012030BD014600220AE0486830F879
:1090000012004FF6FF73984201D001207047501CA8
:1090100082B208889042F1DC0020F7E710B50246E2
:109020000B8992F8C60200EB8004C4EB801002EBBF
:1090300040000089834201DA012010BD0020FCE7D6
:1090400070B50446E2B90D8994F8C60200EB8006BB
:10905000C6EB801004EB40000089854201D100205E
:1090600070BD0889401C188094F8C60200EB80058A
:10907000C5EB801004EB4000008958800120EFE729
:109080000889401CD588A84201D10020E8E708895A
:10909000401C1880D088401E58800120E0E701461F
:1090A000087DC0F3C100012804D0087DC0F3C100D1
:1090B000032801D1012070470020FCE70146086821
:1090C00008B102680A60704710B5044622460121C3
:1090D000002001F08BFA002105E054F8210008B1CE
:1090E000012010BD491C0029F7D00020F9E700003D
:1090F00010B502F03DFC20B902F05EFC00200149F1
:10910000887010BDB8340020F721018017214180FC
:10911000002101714171FB2181711B21C1717047D7
:1091200070B54FF48041002001F002FE044600BFFC
:10913000254625B100BF2846FDF71EFE00BF00BF33
:1091400001F09EFB70BD00002DE9FF4100272E4875
:1091500000F093FB2C48001F00F08FFB2B48806829
:1091600003902B4805680398284028490C3101EBEF
:10917000800800BF03A94046FFF71AFF30B10398EB
:10918000284022490C3101EB800800E000E0F1E7C3
:1091900000BF00240AE00398411C284003911B49AA
:1091A0000C3151F820004DF82400641C022CF2D33D
:1091B000009800F0030001280DD0022814D1BDF85A
:1091C00006700421009801EB9050401E039901EBBA
:1091D0009000039009E0BDF806700098C0F383107A
:1091E00003990844039000E000BF00BF0648001F39
:1091F00000F03CFB064616B10449039888603846E7
:1092000004B0BDE8F0810000F83B0020E03700200A
:10921000FC300020FFF784FF04F03AFC04F040FE2D
:10922000FEF79AFEFFF79EF803F038FDFEF758FCB4
:10923000FFF710FD03F058F804F0A0F809A0FDF7BF
:1092400029FC1149114A891AC908032242EA01403E
:109250000FA101F0B7FC04F0D1F800BFFFF79EFDAD
:10926000FCE70000424C4520554152542063656E96
:109270007472616C206578616D706C6520737461C7
:10928000727465642E0D0A0018F10200A0F002004D
:10929000424C4520554152542063656E7472616C96
:1092A000206578616D706C6520737461727465649B
:1092B0002E0000002DE9FF4F87B0044691461E4660
:1092C000A2462546BAF806009AF805104843001F42
:1092D0000690BAF806B0301DB0FBFBF00590301DCB
:1092E000B0FBFBF10BFB11000490D9F800008119D1
:1092F0000698814202D90698801B01E0D9F8000047
:109300000746C9F8007003E02D680598401E0590D7
:1093100005980028F8D103900498ABEB0008B845F5
:1093200001D9384600E04046804623E0039908987A
:1093300008440290281D049908440190149828B10B
:109340004246DDE90110FDF761F804E04246DDE93F
:109350000101FDF75BF8002004902D68A7EB0807DA
:10936000039840440390BB4501D9384600E0584675
:10937000804600BF002FD9D10BB0BDE8F08F0000B0
:1093800070B503460C469CB101F0F6FC0546002280
:109390000AE0084800EB820108881E68B04202D14A
:1093A0001A60002070BD521CAA42F2D30520F9E7D2
:1093B0000020F7E70000000014480068401C38B99E
:1093C00013480178124808300078C0F3031205E012
:1093D0000E4801684FF08050D0F83421062913D18F
:1093E000D01E05280ED2DFE800F0030507090B00A8
:1093F000012070470120FCE70120FAE70120F8E78F
:109400000120F6E70120F4E70020F2E73001001028
:10941000E00F00F014480068401C38B91348017888
:10942000124808300078C0F3031205E00E480168C6
:109430004FF08050D0F83421062913D1D01E0528D2
:109440000ED2DFE800F0030507090B00012070478A
:109450000120FCE70120FAE70120F8E70120F6E708
:109460000120F4E70020F2E730010010E00F00F0E7
:1094700018480068401C38B9174801781648083069
:109480000078C0F3031205E0124801684FF08050E5
:10949000D0F83421062913D1D01E05280ED2DFE8DA
:1094A00000F0030507090B00012070470120FCE7CD
:1094B0000120FAE70120F8E70120F6E70120F4E7B0
:1094C0000F2904D10AB90120EFE70120EDE70020C0
:1094D000EBE7000030010010E00F00F00F480178CA
:1094E0000E4808300078C0F30312062913D1D01EAD
:1094F00005280ED2DFE800F0030507090B00012064
:1095000070470020FCE70020FAE70020F8E7002081
:10951000F6E70020F4E70020F2E70000E00F00F09B
:109520000E4801684FF08050D0F83421062913D13D
:10953000D01E05280ED2DFE800F0030507090B0056
:10954000002070470020FCE70020FAE70120F8E740
:109550000120F6E70120F4E70020F2E730010010D7
:10956000074802684FF08050D0F834110F2A04D118
:1095700009B9012070470120FCE70020FAE700004C
:10958000300100100E4801684FF08050D0F83421AF
:10959000062913D1D01E05280ED2DFE800F00305FE
:1095A00007090B00002070470020FCE70020FAE7C5
:1095B0000020F8E70120F6E70120F4E70020F2E7B9
:1095C0003001001018480068401C38B9174801786D
:1095D000164808300078C0F3031205E0124801680D
:1095E0004FF08050D0F83421062913D1D01E052821
:1095F0000ED2DFE800F0030507090B0001207047D9
:109600000120FCE70120FAE70120F8E70120F6E756
:109610000120F4E70F2904D10AB90120EFE7012066
:10962000EDE70020EBE7000030010010E00F00F054
:109630000F4801780E4808300078C0F3031206295D
:1096400013D1D01E05280ED2DFE800F0030507096C
:109650000B00012070470020FCE70020FAE7002003
:10966000F8E70020F6E70020F4E70020F2E700002A
:10967000E00F00F018480068401C38B9174801781E
:10968000164808300078C0F3031205E0124801685C
:109690004FF08050D0F83421062913D1D01E052870
:1096A0000ED2DFE800F0030507090B000120704728
:1096B0000120FCE70120FAE70120F8E70120F6E7A6
:1096C0000120F4E70F2904D10AB90120EFE70120B6
:1096D000EDE70020EBE7000030010010E00F00F0A4
:1096E0000F4801780E4808300078C0F303120629AD
:1096F00013D1D01E05280ED2DFE800F003050709BC
:109700000B00012070470020FCE70020FAE7002052
:10971000F8E70020F6E70020F4E70020F2E7000079
:10972000E00F00F00F4801780E4808300078C0F3D1
:109730000312062913D1D01E05280ED2DFE800F04F
:10974000030507090B00012070470020FCE70020FB
:10975000FAE70020F8E70020F6E70020F4E7002011
:10976000F2E70000E00F00F018480068401C38B92C
:1097700017480178164808300078C0F3031205E056
:10978000124801684FF08050D0F83421062913D1D7
:10979000D01E05280ED2DFE800F0030507090B00F4
:1097A000002070470020FCE70120FAE70120F8E7DD
:1097B0000120F6E70120F4E70F2904D10AB90120BE
:1097C000EFE70120EDE70020EBE70000300100109B
:1097D000E00F00F010B5044609B90E2010BD92FB51
:1097E000F3F003FB102008B10920F7E72160002007
:1097F0006060A060A281E38100BFEFE770B504461E
:109800000D4629462046FCF705FD18B12A88216837
:10981000881870BD0020FCE770B505460C4620880E
:109820006188884204D12846FCF736FD012070BDCE
:109830000020FCE770B504460D4629462046FCF79B
:109840000EFD18B16A882168881870BD0020FCE7F9
:1098500070B505460C4620886188884204D12846A8
:10986000FCF7F4FC012070BD0020FCE710B50446B5
:109870000021204600F013F810BD10B50446012168
:10988000204600F022F810BDF8B504460D466A46A1
:1098900029462046FCF755FD06460098F8BDF8B568
:1098A00004460D466A4629462046FCF730FD06462A
:1098B0003046F8BDF8B504460D466A4629462046AE
:1098C000FCF70CFD06463046F8BDF8B504460D46DB
:1098D0006A4629462046FCF70DFD06460098F8BD6D
:1098E000F8B504460D466A4629462046FCF736FD83
:1098F00006460098F8BDF8B5044600260020009002
:109900006846FDF7BBFB206800686168884215D98E
:1099100020680068401E226810600178204600F030
:1099200033F80646207A21680978401AC5B22068C3
:109930000079A84201DA2068057100BF9DF8000097
:10994000FDF7A2FB3046F8BD0246D068081A138A1C
:10995000B0FBF3F0C0B27047F8B504460D462E4692
:10996000002000906846FDF789FB31462046FFF74E
:10997000EBFF21680A68511C2368196010709DF87C
:109980000000FDF781FBF8BD0246138AD06801FB99
:109990000300704710B5014600BF09B90E2010BD85
:1099A00000BF087A0B79C01AC2B2D1E90030186042
:1099B00005E008680368581C0C6820601A70101EC7
:1099C000A2F10103DAB2F4D10B68187100BFE6E727
:1099D00030B502460B46D40802F007020120904041
:1099E0001D5D284030BD024600BF0AB90E207047F9
:1099F00000BF172901DBF72901DD0720F7E75180B8
:109A00000020F4E770B504460E4600BF0CB90E20E6
:109A100070BD00BF2661F72020806080FB20207190
:109A2000002505E0A11D01EBC500FFF76DFB6D1CD6
:109A3000002DF7D00020EBE72DE9F04706468846D9
:109A40004546B488012C01DBBDE8F0873088242826
:109A500020D006DC102809D011280CD0232823D1CF
:109A60001DE03A280CD055281ED10EE0314628467C
:109A700002F058FD19E03146284602F091FE14E04C
:109A80003146284602F0FAFE0FE03146284602F041
:109A900091FE0AE03146284602F0A6FD05E0314677
:109AA000284602F0CBFD00E000BF00BFA81D00EB80
:109AB000C400007918B3A81D30F834102046A5DF83
:109AC000074657B90021A81D00EBC4000171012110
:109AD000A81D00EBC400417110E0112F0ED03846D4
:109AE00001F0CAFE81460749074A891AC9080122BE
:109AF00042EA01404A4605A101F06EF800BF00BFEE
:109B0000A2E70000A8F00200A0F0020073645F6208
:109B10006C655F67617474635F65786368616E67C5
:109B2000655F6D74755F7265717565737428292042
:109B300072657475726E65642025732E00000000D6
:109B40002DE9F04104460F46002500BF14B90E2050
:109B5000BDE8F08100BF204603F0AEF9394620464B
:109B6000FEF72FFB06462088B04211D12046FFF7B2
:109B700042FA18B9206901F0FEF905463946204637
:109B8000FEF72FFB054600BF284600B1E0E700BF07
:109B90002846DDE72DE9F04704460D4690460027AC
:109BA00000BF14B90E20BDE8F08700BF00BF0DB99B
:109BB0000E20F8E700BF204603F07EF9414620461C
:109BC000FEF7FFFA06462878062802DA2088B04217
:109BD00001D10720E7E706EB8602A16801EB8200CE
:109BE00001F0B8FA50B14146284603F005FA814623
:109BF000B9F1000F01D03846D5E700BF28781949E0
:109C000051F8200090B100BF206908B90E20CAE7C2
:109C100000BF2978134B53F821202946206990472B
:109C2000074600BF384600B1BDE700BF06EB86021D
:109C3000A16801EB8200294601F0AFFA07463FB167
:109C40002878084951F8200010B1686801F06BF9D4
:109C500006EB8602A16801EB8200414603F08AF818
:109C60003846A0E7CCE30200F8B504460F463D466F
:109C700004B105B9F8BD2088112801D1A68810E0EB
:109C80002088302804DB20884F2801DCA68808E0E3
:109C90002088502804DB20886F2801DCA68800E09B
:109CA000E8E731462846FEF78CFA00902888BDF890
:109CB0000010884200D1DDE7208811280BD14FF633
:109CC000FF70BDF80020696821F812006946E86855
:109CD00001F063FA09E0BDF8002002EB8202A968F6
:109CE00001EB8200314603F045F800BFC2E72DE9E1
:109CF000F04786B004460E46B71C04F1140804F180
:109D00000A0994F812A0207A10B906B0BDE8F087CD
:109D100000F0C4F9142101A8FCF791FB53464A4610
:109D2000414638468CDF054605208DF80400029533
:109D300025B1606A10B101A8616A884700BFE4E7F5
:109D40004FF4C872028206214181182282810022CA
:109D5000C2817047017D21F00401091D0175A02217
:109D6000C2825022028300224283017D21F0180129
:109D700001750122427570472DE9F04105460E46F6
:109D8000144600BF15B90E20BDE8F08100BF00BF2A
:109D90000CB90E20F8E700BF032E05D1274639463F
:109DA000284600F07DF9EFE70720EDE7014600BF08
:109DB00009B90E20704700BF4A1D0020107000BF77
:109DC000F8E7F0B504460B46164600BF0CB90E2066
:109DD000F0BD00BF03F0020068B903F0010050B904
:109DE00003F0040038B903F0100020B903F00800B4
:109DF00008B90720ECE72046FFF7D8FF07462546BD
:109E000003F0040008B101206871AE710020DFE7A3
:109E100070B504460D46164600BF0CB90E2070BD45
:109E200000BF6662002020606060EDB1287920727A
:109E3000287BA074286830B10E2204F11400296830
:109E4000FCF7E4FA02E02046FFF784FFA86838B187
:109E5000A8680168C4F80A104068C4F80E000BE056
:109E60002046FFF76DFF07E02046FFF773FF20460F
:109E7000FFF766FF0020207204F12800A0641F2174
:109E80004C2001530020CAE72DE9F04786B0044674
:109E90000D460027B846142101A8FCF7D0FA04F1BA
:109EA000140005902046FFF7FAF888B102208DF8DB
:109EB0000400029501A8616A884704F14801002066
:109EC0008ADF29462046FFF712FF06B0BDE8F0877B
:109ED000A6794FF0000994F805A0BAF1000F13D04D
:109EE000781CC7B221462846FCF71FFE60B108F176
:109EF000010000F0FF089DF80C0020F00400001D98
:109F00008DF80C004FF0010902954EB1B84507D10C
:109F100000208DF8040029462046FFF7E8FE0FE0F8
:109F200056B9B9F1000F07D000208DF8040029467A
:109F30002046FFF7DCFE03E003208DF804000295C5
:109F4000606A10B101A8616A884704F148010020E5
:109F50008ADF00BFB9E72DE9F04104460D462E46E1
:109F600004F1080704F10408208810280DD01B28EC
:109F700006D01D280ED139463046FFF785FF0AE08E
:109F80004146304600F024F805E04146304600F0F6
:109F900005F800E000BF00BFBDE8F08130B585B036
:109FA00004460D4614216846FCF749FA06208DF850
:109FB0000000281D01902988ADF8081004F1140054
:109FC0000490606A10B16846616A884705B030BD88
:109FD00070B586B004460D462E1D142101A8FCF76D
:109FE0002EFA307801280DD1606A58B104208DF81E
:109FF000040004F11400059030788DF8080001A8E1
:10A00000616A884706B070BD30B585B0044600BFB0
:10A0100014B90E2005B030BD00BF14216846FCF70E
:10A020000EFA00F03BF82046FFF739F838B1606AC5
:10A0300028B101208DF800006846616A884704F164
:10A04000480104F114008ADF0546082D0DD065B1E2
:10A050000749084A891AC908012242EA01402A46EA
:10A0600005A100F0B9FD2846D4E70020D2E70000A2
:10A07000B8F00200A0F0020073645F626C655F6775
:10A0800061705F7363616E5F737461727420726577
:10A090007475726E65642030782578008BDF7047A8
:10A0A00070B503460C461D46191D0878012801DBD2
:10A0B000042070BD002208E035F822002688B04256
:10A0C00001D10020F5E7501CC2B2012AF4DB0E7862
:10A0D000701C087005EB8600266806600020E8E723
:10A0E00001464FF08040405808B1012070470020E1
:10A0F000FCE708B500224FF080410A500958009152
:10A1000000BF08BD01490860704700000803004017
:10A11000012291070A50704710B500240F480078BB
:10A1200008B1852411E000200C498860486008616E
:10A13000C8600B4801F030FC044601F0DBFA08B9B6
:10A1400001F020FC01200549087001F011FC10B15C
:10A15000012002498870204610BD0000B83400205C
:10A160007581020008B5002000906846FCF786FF64
:10A170000748C068401E0649C8600846C06808B95C
:10A18000FEF7B6FF9DF80000FCF77EFF08BD00005B
:10A19000B83400202DE9F04188B004460F4615463A
:10A1A00026781A4840F826501949386941F826009F
:10A1B000787F18498855202239466846FCF726F9E9
:10A1C00004964FF0000820781249085C50B10DB198
:10A1D000114800E0002002466946201D01F038FFCA
:10A1E00080460EE020780B49085C50B90DB10B4851
:10A1F00000E000200246694604F10C0001F0F0FD89
:10A200008046404608B0BDE8F08100004C30002098
:10A21000503000205430002049E0020069DE020086
:10A220002DE9F04104460D461646002720780C49DA
:10A23000085C30B132462946201D01F049FF07462F
:10A240000AE020780649085C30B93246294604F114
:10A250000C0001F009FE07463846BDE8F081000019
:10A26000543000202DE9F04104460D4616460027E3
:10A2700020780C49085C30B132462946201D01F097
:10A28000C3FF07460AE020780649085C30B9324629
:10A29000294604F10C0001F079FE07463846BDE876
:10A2A000F0810000543000200FB438B50446059802
:10A2B00010B938BC5DF814FB0020009006A800908F
:10A2C0006A462046059900F012F80020009000BF71
:10A2D000EFE770B50446A06800B970BDD4E9040387
:10A2E000A268216898470020A06000BFF5E72DE92B
:10A2F000FC5F82460D4614460DB9BDE8FC9F00BFC9
:10A300002E786D1C06B9E1E0252E70D100274FF0A4
:10A31000010900BF2E782B2E0CD02D2E02D0302E0E
:10A320000CD103E047F001076D1C0AE047F002077B
:10A330006D1C06E047F004076D1C02E04FF00009B9
:10A3400000BF00BFB9F1000FE4D14FF0000800BF1B
:10A350002A2E06D12168081D2060086880446D1CE3
:10A360000DE02E78302E01DB392E00DD07E06D1C6C
:10A37000A6F1300008EB880100EB4108E8E700BFD8
:10A380004FF0000B2E782E2E10D16D1C00BF2E78B2
:10A39000302E01DB392E00DD07E06D1CA6F1300008
:10A3A0000BEB8B0100EB410BF1E700BF2E7800BFF8
:10A3B0006C2E01D0682E02D16D1C2E7800E000E0DA
:10A3C000F6E700BF692E21D008DC252E6DD0582E6F
:10A3D00039D0632E0CD0642E6CD116E0702E4CD088
:10A3E000732E3ED0752E1FD0782E63D12AE065E003
:10A3F0002168081D2060D1F8009009F0FF0001904D
:10A4000050460199FDF768FD55E000BF2168081D21
:10A410002060D1F800905B460A2249465046CDE9BB
:10A420000087FEF7C2FC46E02168081D2060D1F8D5
:10A4300000905B460A2249465046CDE9008703F06A
:10A44000B9FE38E000BF2168081D2060D1F80090F7
:10A450005B46102249465046CDE9008703F0AAFE2C
:10A4600029E02168081D2060086801903B464246AB
:10A470005046019903F096FA1DE02168081D2060FE
:10A48000D1F8009030215046FDF726FD7821504646
:10A49000FDF722FD002008210B461022CDE9001017
:10A4A0004946504603F086FE05E025215046FDF75B
:10A4B00013FD00E000BF00BF6D1C03E031465046B5
:10A4C000FDF70AFD287800287FF41AAF00BF9AF83C
:10A4D0000C0010B15046FFF7FCFE00BF0DE7F0B5D1
:10A4E000DDE9054500BF4FF0A0473E4641EA42077F
:10A4F00047EA830747EA042747EA054C06F5E06781
:10A5000047F820C0F0BDF0B5DDE9054500BF4FF0CC
:10A51000A0473E4641EA420747EA830747EA042745
:10A5200047EA054C06F5E06747F820C0F0BDF0B5F6
:10A53000DDE9054500BF4FF0A0473E4641EA42072E
:10A5400047EA830747EA042747EA054C06F5E06730
:10A5500047F820C0F0BD7CB505460C4600200090B1
:10A5600023460246014601902846FFF7CCFF7CBDFA
:10A570007CB505460C460020009023460246014665
:10A5800001902846FFF7D3FF7CBD1CB50446002090
:10A59000009003460122114601902046FFF7B3FFC9
:10A5A0001CBD1CB504460020009003460122114644
:10A5B00001902046FFF7BBFF1CBD10B50A4600BF47
:10A5C0004FF0A043194601F5E06353F8203023F41F
:10A5D000403401F5E06343F8204053F8203043EA6B
:10A5E000024401F5E06343F8204010BD38B503464E
:10A5F0000A4C2468009418460BE05DF82040D4F81B
:10A60000204514605DF820501468C5F82045121DDF
:10A61000401C5C188442F0D838BD0000F4E302000E
:10A6200001464A0900230AB95B1E00BF00BF01F0C2
:10A630001F0101208840184008B101207047002008
:10A64000FCE7014600BF4FF0A040024600BFD2F831
:10A650001005C84000F00100704700BF4FF0A04156
:10A660000A46012303FA00F1C2F8081500BF70473B
:10A6700000BF4FF0A0410A46012303FA00F1C2F8DF
:10A68000081500BF704700000146014808447047A4
:10A690000060004038B504462046FFF7F5FF002172
:10A6A00001602046FFF7F0FF0068009000BF38BD52
:10A6B00010B504462046FFF7E7FF0068012800D1E7
:10A6C00010BD0020FCE70000014908607047000051
:10A6D0000463004070B504460E46FCF775FD054660
:10A6E000681C08B9284670BDE8B2E168087100BF6F
:10A6F0000C48D0F8100430B90A48C0F810440020C3
:10A70000E16808600BE00748D0F81004C0680068F2
:10A71000E16808600348D0F81004C0680460284667
:10A72000E1E70000E0370020704710B5FBF77CFF41
:10A7300010BD704738B504460D4604484023044A0E
:10A7400029460090204600F005F838BD45D60200A5
:10A75000483600202DE9F04F93B082460E4617464A
:10A760009846DDF87090304600F0FDFB18210DA8EA
:10A77000FBF765FE0D97CDF83880CDF848900025A1
:10A780002B46082207A9304600F00AFC0825099844
:10A790000A90BDF82000ADF82C00BDF82200ADF8FD
:10A7A0002E0000208DF83100079800F003000128EA
:10A7B0001BD107984FEA902B0798C0F3C2008DF881
:10A7C00030000798C0F38314A2002B4601A930463D
:10A7D00000F0E6FB05EB84050DA80AAB224601A9B3
:10A7E0000090584600F0FEFA27E0079800F00300BA
:10A7F000022822D107984FEA905B0798C0F3C20065
:10A800008DF8300000BFBBF1080F01D2584600E0C0
:10A81000082004462B46224605A9304600F0C0FB1E
:10A820002544ABEB040B0DAB0AAA214605A800F0AA
:10A8300021FABBF1000FE6D100BF304600F0A1FBCA
:10A8400013B0BDE8F08F000010B502460B4C04EBCE
:10A85000C203012906D0022906D0032906D0042903
:10A8600008D105E0022007E0042005E0187903E0A4
:10A87000587901E0002000BF00BF10BDA0F0020029
:10A8800010B54FF0FF34FFF750FF04210548FFF7E4
:10A8900021FF044600BF01200249C968487100BF7A
:10A8A00010BD000090F002002DE9F04F8BB0FDF7D5
:10A8B00029FB18B100200BB0BDE8F08F0020B7498C
:10A8C000C1F8180400BF00BF00BFBFF34F8F00BF27
:10A8D00000BF00BF084680680A90B14804680A9823
:10A8E00020400C3101EB800A002500260020069054
:10A8F00000BF0AA95046FEF75BFBA8B1A748D0F8F5
:10A90000180488B9A54840680A99884205D8A34820
:10A910004068A24988600020CDE70A9820409F49FE
:10A920000C3101EB800A00E000E0E2E700BF002705
:10A930000BE00A98411C20400A9198490C3151F8CB
:10A94000200007A941F827007F1C022FF1D30798A8
:10A9500000F0030002287CD10798800D059050215B
:10A960000798B1EB905F02DD0798800D00E0502062
:10A970008146079869F39F50079009F108000490F9
:10A980000798C0F3C20006908648049900F08EFA3A
:10A990000546002D5BD0284600F0E5FA3346082234
:10A9A00007A9284600F00DFB08360A982040611CD4
:10A9B000081A4FEA8008C14535D9B8F1000F06D012
:10A9C0000A98204075490C3101EB800001E0734882
:10A9D0000C300390B8F1000F01D0404600E048462B
:10A9E00000F0FF0BB8F1000F02D06C480C3000E013
:10A9F00000200290B8F1000F02D0A9EB080000E09F
:10AA00000020C0B2019033465A462846039900F010
:10AA1000D8FA5E44029828B133462846DDE9012180
:10AA200000F0CFFA0CE00A9820405C490C3101EBB1
:10AA3000800B33464A465946284600F0C2FA00BF0A
:10AA40000598C01C0A9901EB90000A9000BF44E0F1
:10AA5000FFE7079800F0030001283ED10798C0F3F4
:10AA60008310062803DA0798C0F3831000E006205D
:10AA7000079960F3891107910798C0F3831000F1DB
:10AA800002080798C0F3C20006904FEA88014548C3
:10AA900000F00CFA0546FDB1284600F064FA334692
:10AAA000082207A9284600F08CFA083600270EE095
:10AAB0000A98421C20400A92384A0C3202EB80016C
:10AAC00033460422284600F07CFA361D7F1C079886
:10AAD000C0F38310B842EBD800BFE5B32F48D0F8DD
:10AAE0001084D0F8180418B1284600F04AFA31E072
:10AAF00019E04FF0000900BFD8F80C004079012898
:10AB000000D18146B9F1000F08D000BFD8F800008D
:10AB1000294602684046904700BF00BFD8F80C00A5
:10AB2000D0F8008000BFB8F1000FE2D1284600F055
:10AB300028FA0020059005A8FCF7A0FA1748D0F8DD
:10AB4000180410B915490A9888609DF81400FCF79C
:10AB50009BFA00BF1DE0FFE71048D0F810840AE020
:10AB6000C146D9F8000081684846884700BFD8F838
:10AB70000C00D0F80080B8F1000FF1D10A490B4A5F
:10AB8000891AC908022242EA014009A100F01AF814
:10AB900000BFFDF7B7F980F001008CE6E037002038
:10ABA000FC3000204CF1020018F10200A0F002007D
:10ABB0004261636B656E647320666C75736865646F
:10ABC0000000000070B504460D4600231A462946D1
:10ABD000204602F0AFFE70BDF8B505460E4614469D
:10ABE000009401236A463146284602F0A3FEF8BDD0
:10ABF0002DE9FC4106460F4614461D46009401957A
:10AC000002236A463946304602F094FEBDE8FC81D4
:10AC10002DE9FE4306460F4614461D46DDF8288002
:10AC200000940195CDF8088003236A4639463046E2
:10AC300002F080FEBDE8FE832DE9F04F87B00646A6
:10AC40000F4614461D46DDE912ABDDE9108901947B
:10AC50000295CDF80C80CDF81090CDF814A0CDF869
:10AC600018B0062301AA3946304602F063FE07B049
:10AC7000BDE8F08F2DE9F05F07460E4690461D4671
:10AC8000082E01D9BDE8F09F95F80C90002028739C
:10AC90002946404602F010F800240CE0B44205D2E8
:10ACA0003A5D1DA12846FFF7FFFA03E01CA12846E4
:10ACB000FFF7FAFA641C082CF0D31AA12846FFF714
:10ACC000F3FA00241DE0B44216D217F804A0BAF13A
:10ACD0007E0F09DCFBF796FB006810F80A0000F015
:10ACE0003E0008B1504600E02E2083465A460EA191
:10ACF0002846FFF7D9FA03E00CA12846FFF7D4FA5B
:10AD0000641C082CDFD301222946404601F0A2FF33
:10AD100085F80C9000BFB5E72025303278000000A0
:10AD2000202020007C00000025630000200000009F
:10AD30002DE9F04106460F4600BF00200949087082
:10AD4000094800F018F9044614B12046BDE8F08126
:10AD5000064800F088FA06480649401AC50800204F
:10AD6000F4E70000E03700204CF1020068E6020042
:10AD700038F10200A0F0020002480349401AC0085E
:10AD80007047000038F10200A0F0020013B50C4635
:10AD900021466846FEF7F4FA28B90448009A00EB09
:10ADA000C20108681CBD0020FCE70000A0F0020002
:10ADB00070B50B48D0F810440120094908700CE028
:10ADC00000BF0120E168487100BF2546286841683E
:10ADD0002846884700BFE0680468002CF0D170BDA9
:10ADE000E03700202DE9FF4707460C4616469846F7
:10ADF0000C9D95F80C90002028732946404601F0E0
:10AE00005BFF072E47D2DFE806F004090F161F2A62
:10AE1000370039462846FFF747FA3DE039462846CD
:10AE20002268FFF741FA37E039462846D4E9002383
:10AE3000FFF73AFA30E0A068009039462846D4E996
:10AE40000023FFF731FA27E0D4E90201CDE9000140
:10AE500039462846D4E90023FFF726FA1CE0D4E956
:10AE600002122069CDE90012029039462846D4E941
:10AE70000023FFF719FA0FE0D4E90223D4E9041004
:10AE8000CDE90023CDE9021039462846D4E9002354
:10AE9000FFF70AFA00E000BF00BF00222946404643
:10AEA00001F0D8FE85F80C90BDE8FF872DE9F84F3A
:10AEB00007468A46388AA0F104080AF10400404493
:10AEC000401EB0FBF8F0C0B200903846FEF713FD0C
:10AED000044614B90020BDE8F88F0020207101213C
:10AEE0006171A4F8068025460098A0F1010B2C465C
:10AEF0002F604FF0000912E03846FEF7FCFC0646D2
:10AF000036B16079401C60712E603760354604E0D0
:10AF1000204600F008F80020DDE709F10109D945D5
:10AF2000EAD32046D7E72DE9F05F0446274697F895
:10AF300005802646A8F1010B002501E036686D1C4E
:10AF40005D45FBD3D6F800A02646002507E0D6F8DD
:10AF5000009031465046FEF7FFFC4E466D1C4545BD
:10AF6000F5D3BDE8F09F70B5044625460121281DA4
:10AF7000FEF78AFC70BD10B504462046FEF70AFDB8
:10AF800010BDF8B5044626460121301DFEF7A8FC89
:10AF900000906D46287810B92046FFF7C4FFF8BD31
:10AFA0002DE9FC4105460E4614461F46019401203A
:10AFB0003B4601AA314600902846FEF77BF9BDE8E2
:10AFC000FC812DE9FC4105460E4614461F460194BE
:10AFD00000203B4601AA314600902846FEF76AF958
:10AFE000BDE8FC8100BF00BF00BFBFF35F8F00BFA3
:10AFF00000BF00BF002101607047000010B50020B5
:10B000000A49087000BF0A49086000BF00BF00BFBE
:10B0100000BFBFF35F8F00BF00BF00BF00BF054987
:10B02000054800F09AFB002010BD0000D43000203D
:10B03000D030002000E502003C36002010B500F0C2
:10B0400059FB10B141DF044602E020BF40BF20BFE2
:10B0500010BD000070B50446144D01212846FEF7CE
:10B0600029FC064600BF00BF00BF00BFBFF35F8FD3
:10B0700000BF00BF00BF0EB9012000E0002000B9F2
:10B0800070BD042C0BD00A48007818B10748FFF7B0
:10B09000A9FFF5E70748047001200549087002F090
:10B0A00035FB0248FFF79EFF00BFE9E7D0300020E4
:10B0B000D4300020CC3000202DE9F84304460D4662
:10B0C00017464FF00008002000906846FBF7D6FFB7
:10B0D000204600F03FF898BB2068066837B9206822
:10B0E0000168204600F051F821680860E0680128F6
:10B0F00006D0022808D004280BD0082815D10DE06E
:10B100006068805D287019E0606830F8160028805B
:10B1100014E0606850F8260028600FE0606800EBDB
:10B12000C60003C8C5E9000108E0E368606806FBE3
:10B1300003011A462846FBF769F900BF00BF02E089
:10B14000FFE74FF005089DF80000FBF79DFF404624
:10B15000BDE8F883014608680268086843689A42B7
:10B1600001D1012070470020FCE770B5044620683B
:10B170000568206846683146204600F006F8A84277
:10B1800001D1012070BD0020FCE702469068884292
:10B1900001D9481C70470020FCE72DE9F84304461C
:10B1A0000D464FF00009002000906846FBF766FF4F
:10B1B0002046FFF7DAFF8046B8F1000F02D0207C6E
:10B1C000002847D120684668206841682046FFF77C
:10B1D000DCFF21684860B8F1000F06D020680168E4
:10B1E0002046FFF7D2FF21680860E068012806D0FA
:10B1F000022808D004280BD0082816D10DE02878A2
:10B20000616888551AE02888616821F8160015E001
:10B210002868616841F8260010E0D5E900106268EE
:10B2200002EBC602C2E9001008E0E368616806FBB1
:10B2300003101A462946FBF7E9F800BF00BF204675
:10B2400001F02AFE074620688168B94201D22068D1
:10B25000876001E04FF004099DF80000FBF714FF40
:10B260004846BDE8F88300218268916082681161D8
:10B27000826851618268D160826851608268116021
:10B280007047024602F5A86050F82100704700F5AB
:10B29000A86343F8212070470146D1F804057047A0
:10B2A00008B5002242504258009200BF08BDC0F8C5
:10B2B00048137047C0F844137047C0F8081370472C
:10B2C000C0F804137047012242507047014609B983
:10B2D0000E2070470248006808600020F9E700006F
:10B2E000F8E60200FEB506460C462046FFF7EEFFE4
:10B2F00005460DB12846FEBD002000900190029049
:10B300008DF8006001208DF802000621ADF80410D0
:10B3100069462020226869DF054675B1284600F09D
:10B32000ABFA07464E494F4A891AC908012242EA38
:10B3300001403A464C49FFF74FFC00200090019035
:10B3400002908DF8010001208DF802008DF80300B5
:10B3500069464020226869DF054675B1284600F03D
:10B360008BFA07463E493F4A891AC908012242EA38
:10B3700001403A463D49FFF72FFC00200090019024
:10B3800002908DF80060F720ADF802006946232096
:10B39000226869DF054675B1284600F06DFA074658
:10B3A0002F49304A891AC908012242EA01403A4627
:10B3B0002F49FFF711FC002000900190029001201E
:10B3C0008DF800006946226869DF054675B1284698
:10B3D00000F052FA07462249224A891AC908012276
:10B3E00042EA01403A462349FFF7F6FB002000906D
:10B3F000019002904FF4B06000906946A12022684D
:10B4000069DF054675B1284600F036FA074614494B
:10B41000144A891AC908012242EA01403A461649EB
:10B42000FFF7DAFB00200090019002908DF80000F9
:10B430006946A020226869DF054675B1284600F0FC
:10B440001BFA07460649074A891AC908012242EA37
:10B4500001403A460949FFF7BFFB00204BE70000D7
:10B4600028F10200A0F00200C4EE02000CEF02007E
:10B4700058EF020024EE020070EE0200D0ED020050
:10B480002DE9F04104462568204660DF0646206825
:10B49000A84225D91E491F4A891AC908022242EA30
:10B4A00001401DA1FFF78EFB19491A4A891AC908E4
:10B4B000022242EA01402A4623A12368FFF798FBB3
:10B4C00001F030FD2168471A1149124A891AC9084A
:10B4D000022242EA01403A4628A1FFF77DFB00E044
:10B4E00000BF1EB90120304908700EE0304600F060
:10B4F000C3F907460649074A891AC908012242EAE0
:10B5000001403A4629A1FFF767FB3046BDE8F081CC
:10B5100028F10200A0F00200496E73756666696347
:10B5200069656E742052414D20616C6C6F6361746B
:10B53000656420666F722074686520536F6674447A
:10B5400065766963652E00004368616E67652074E7
:10B5500068652052414D207374617274206C6F6372
:10B560006174696F6E2066726F6D20307825782067
:10B57000746F20307825782E000000004D617869C6
:10B580006D756D2052414D2073697A6520666F722A
:10B59000206170706C69636174696F6E20697320DB
:10B5A000307825782E0000004331002073645F62FC
:10B5B0006C655F656E61626C6528292072657475C3
:10B5C000726E65642025732E000000002DE9F041A5
:10B5D000ADF5027D80461848007818B90DF5027D5A
:10B5E000BDE8F0811DE04FF4FA70049004A905A8AD
:10B5F00061DF044604B115E005AD104901A800F073
:10B60000ACF809E000BF0398064637682846716821
:10B61000B84701A800F0C2F800BF03980028F1D194
:10B6200000BFE0E700BF052C04D000BF2046FBF7B9
:10B63000A3FB00BF00BFD1E743310020ECE60200CE
:10B640001CB51B48007808B108201CBD0120194911
:10B650000870002001F0BEFF112801D10020F4E79E
:10B66000002001F0D5FF14480068019000200090F0
:10B670006846FBF703FD114901A810DF04460CB929
:10B68000012000E000200A4908709DF80000FBF747
:10B69000FBFC0CB12046D8E7002006490870084999
:10B6A000087002F0A7F8012001F0B2FF0020CCE7FB
:10B6B0004031002042310020C8E60200BD6C02008B
:10B6C000413100203EB50A49684600F046F809E0DD
:10B6D000684600F03FF8044625686068A847684659
:10B6E00000F05CF8684600F035F80028F0D13EBD67
:10B6F000BCE602000148007870470000403100209D
:10B700002DE9FF41074618E003A84BDF044604B1CA
:10B7100014E00F49684600F020F809E000BF0298E5
:10B7200005462E6869680398B047684600F036F809
:10B7300000BF02980028F1D100BFE5E700BF052C4B
:10B7400004D000BF2046FBF717FB00BFBDE8FF8118
:10B750000CE7020001468868704770B504460D4644
:10B76000256028686060204600F001F870BD14E094
:10B77000D0E900215268914202D1002181607047D6
:10B780004168096842685268914203D0416809687B
:10B790008160F4E7416808314160E9E710B504468B
:10B7A000A06800B910BD2168A06889680844A0603D
:10B7B000D4E901104968884205D1606808306060AA
:10B7C0002046FFF7D4FF00BFECE770B505460E46F4
:10B7D0006C6806E020683146AA68904700B903E02B
:10B7E000246820680028F5D100BF206830602660FA
:10B7F00070BD014648680068704701464A68106895
:10B800004A68126822B14A68126812684B681A6066
:10B81000704710B503460A460020596807E00C68D7
:10B82000944203D114680C60012003E009680C689D
:10B83000002CF4D100BF10BD70B502460D4B03F5CE
:10B84000947413E0E61AF01000EBD076761003EB58
:10B85000C6010D68954201D90C4606E0954202D218
:10B8600001F1080301E0486870BD00BFA342E9D3BD
:10B870000020F9E720E5020030B504462046FFF736
:10B88000DBFF05460DB9024830BD2846FCE7000045
:10B890000CE502000146D1F88004C1F8800470472D
:10B8A0000246505808B1012070470020FCE708B557
:10B8B000002242504258009200BF08BDC0F808154F
:10B8C0004FF4A2631A507047C0F808137047C0F8CD
:10B8D000041370470246D2F80403084008B101205F
:10B8E00070470020FCE701224250704740F2145399
:10B8F0001A5040F20C53195070470146D1F8800499
:10B90000C1F8800470470246505808B101207047C2
:10B910000020FCE708B5002242504258009200BFC8
:10B9200008BDC0F808154FF4A2631A507047C0F85C
:10B9300008137047C0F804137047014640F23C50AA
:10B9400040587047D0F800228A43C0F80022704760
:10B95000012242507047014640F24C504058704717
:10B9600040F20C53195040F214531A507047000023
:10B970000348006808B1012070470020FCE7000080
:10B980000004014010B500F0A1F901200149086050
:10B9900000BF10BD1805004001460020054A12797D
:10B9A0000AB1852004E0034A11600122014B1A719B
:10B9B000704700005830002010B50220FEF7A2FBAF
:10B9C0004FF48270FEF795FB0C20FEF7A1FB00BF41
:10B9D00000BF03480068C0F300400028F8D110BD44
:10B9E0001804004070B5044604B970BD024EA501AC
:10B9F0002846B04700BFF8E7D1E402000146080B33
:10BA000040B270470146080B40B270470146080B30
:10BA100040B270470146080B40B270472DE9F0472D
:10BA200006460D46304601F083F8F0B13046FCF78B
:10BA30003BFBA0F10808404601F004F90446032C42
:10BA400008D13046FEF7FDFD08B1032000E00220DA
:10BA5000074605E0012C01D1022000E00320074643
:10BA600039463046FEF7A9FD2AE0304601F06CF871
:10BA700030B33046FCF718FB0446A00000F5807098
:10BA800087B220460F4951F8201041F001020D49BC
:10BA900041F8202000BF3846FEF7FCFD7DB130465E
:10BAA000FCF702FB8146FCF7B7FA8046B8F1000FBD
:10BAB00004D0012101FA04F0FEF706FE00BF00BF2A
:10BAC000BDE8F087106500402DE9FC4704460E46AE
:10BAD00017464FF00008204601F01CF810B14FF057
:10BAE000080862E0B078C0F3400239462046FCF70F
:10BAF0009BFA0546681C002854D0B078C0F380003B
:10BB000020BBB07800F0010080B100BF00BF4FF053
:10BB1000A042104600F5E06252F8242022F0020113
:10BB200000F5E06242F8241000BF0CE096F80190A6
:10BB3000002000904B460246014601902046FEF749
:10BB4000CEFC00BF00BF204600F0D4FFB078C0F3A9
:10BB50004000D0B13078164951F82510154A1140EF
:10BB6000134A42F82510114651F825104FF4F852A7
:10BB700002EA04224FF4403303EA00431A4311431C
:10BB80000B4A42F8251000BF0EE0A5F108000A4953
:10BB9000085C317840EA811042B2A5F108000649FC
:10BBA0000A5401E04FF0040800BF4046BDE8FC879E
:10BBB00010650040FFE0FCFF1C35002010B5044676
:10BBC0002046FEF73EFD08B1012010BD0020FCE735
:10BBD0002DE9F0412F4890F8580018B1082630465A
:10BBE000BDE8F081002408E02046FEF719FD10B101
:10BBF000204600F0B9FF601CC4B2202CF4DB002406
:10BC000004E02046FCF7F8F9601CC4B20C2CF8DB09
:10BC10002048002141652048FFF7F4FE054606272D
:10BC200028463946002804DB4A07130E1B4A1354E2
:10BC300008E04A074FEA126C194A00F00F031B1F75
:10BC400002F803C000BF00BF1348FFF7DBFE054644
:10BC5000284600280DDB00BF00BF00F01F020121B5
:10BC600091404209920002F1E022C2F8001100BFA7
:10BC700000BF00BF00BF4FF4BE70FEF70BFD4FF0DA
:10BC80000040FEF721FD0120024981F858000026FE
:10BC90003046A5E7CC3400200060004000E400E01E
:10BCA00018ED00E0034890F8580008B101207047F3
:10BCB0000020FCE7CC340020014601F06040B0F1E8
:10BCC000005F01D1012070470020FCE72DE9F04121
:10BCD00006254FF08040FFF791FE04462046E2170C
:10BCE00004EBD2625211920002F1E022D2F800215C
:10BCF0002146E31704EBD3635B11A4EB4316012346
:10BD0000B3401A400AB1012200E0002282BB4FF08A
:10BD10008040FFF773FE04462E4620463146002839
:10BD200004DB4A07130E134A135406E04A07170EA2
:10BD3000114A00F00F031B1FD75400BF00BF4FF084
:10BD40008040FFF75BFE0446204600280DDB00BF65
:10BD500000BF00F01F02012191404209920002F150
:10BD6000E022C2F8001100BF00BF00BF00BF00BF4B
:10BD7000BDE8F08100E400E018ED00E02DE9F843B3
:10BD800007460E46384600F0E9FF0446D4B14FF0AE
:10BD90000008002000906846FBF770F9207910B188
:10BDA0004FF0010802E02660012020719DF800009C
:10BDB000FBF76AF9B8F1000F03D011252846BDE85A
:10BDC000F88300BF00252846F9E7000010B50249B6
:10BDD000024802F091F810BD2835002000200040F4
:10BDE0002DE9F04105460E461746287900EB400143
:10BDF00001EBC0001A4901EB80044FF0000894F8F1
:10BE00002A0020B14FF008084046BDE8F0812A79A9
:10BE1000144B53F822102868FFF7B0FF18B14FF009
:10BE200011084046F1E731462846FBF751F96760B3
:10BE300030692060606818B1317F2846FDF714F83A
:10BE400028680421C0F8001500BF0020A061E0614F
:10BE500084F829006061012084F82A004046D4E774
:10BE60002835002044E402002DE9F84F05468946B4
:10BE70009246287900EB400101EBC000424901EBFA
:10BE8000800400200090606820B14FF401712868A0
:10BE9000FFF71AFDA06970B1E06950B1606820B188
:10BEA0004FF401712868FFF712FD11263046BDE8F6
:10BEB000F88F01200090009838B9C4F818A0C4F891
:10BEC0000C9000206062E06103E0C4F81090C4F8B8
:10BED0001CA094F8290020B9009810B9284601F058
:10BEE000DAF96068002846D14FF4A2712868FFF79C
:10BEF000DEFC00BF00BF4FF492712868FFF7D0FC52
:10BF000080464FF484712868FFF7CAFC83464FF4DB
:10BF1000A2712868FFF7C4FC0746BBF1000F03D1EC
:10BF200017B9B8F1000FE6D0B8F1000F00D107B192
:10BF300007E02146286801F073F9616AA069884228
:10BF4000D8D800BF0020A061B8F1000F02D00326AE
:10BF50003046ACE717B10F263046A8E794F8290021
:10BF600020B100212868FFF7BEFC03E00421286807
:10BF7000FFF7B9FC04E04FF401712868FFF7A7FC54
:10BF80000026304693E70000283500202DE9F041D7
:10BF900004460F469046207900EB400101EBC000BB
:10BFA0001C4901EB8005204600F036F818B1112637
:10BFB0003046BDE8F081C5F81480AF6000202862EB
:10BFC00085F8280000264FF48E712068FFF76FFC7B
:10BFD00008212068FFF787FC2946206801F0FCFD56
:10BFE0006868A0B92946206801F0DBFD08B90F2672
:10BFF0000BE000BF4FF48E712068FFF751FC002862
:10C00000F8D00C212068FFF76EFC002068613046F4
:10C01000CFE70000283500200146087900EB4002F8
:10C0200002EBC000044A02EB8000406908B1012025
:10C0300070470020FCE700002835002010B50249B9
:10C04000024802F01DF810BD5435002000200040C9
:10C050002DE9F04105460E461746287900EBC00051
:10C06000194901EB80044FF0000894F8200020B13A
:10C070004FF008084046BDE8F0812A79134B53F889
:10C0800022102868FFF77AFE18B14FF011084046D9
:10C09000F1E731462846FBF759F8676030692060C0
:10C0A000606818B1317F2846FCF728FF286808210E
:10C0B000C0F8001500BF0020A061E06160610120B0
:10C0C00084F820004046D6E75435002074E402008E
:10C0D0002DE9F84F04460E461746207900EBC000C4
:10C0E000484901EB80053046FFF7E6FD20B94FF0E7
:10C0F00010084046BDE8F88F4FF0000A686820B18C
:10C100004FF404712068FFF712FCA86970B1E86968
:10C1100050B1686820B14FF404712068FFF70AFC41
:10C120004FF011084046E5E74FF0010ABAF1000F61
:10C1300004D1AF61EE600020E86101E02E61EF61A3
:10C140004FF000084FF488712068FFF7E3FB4FF4CD
:10C15000A2712068FFF7DEFB2068C0F834654FF459
:10C16000A7610F5000BFBAF1000F04D10021206871
:10C17000FFF7EEFB08E020212068D0F800220A43F8
:10C18000C0F8002200BF00BF207900EBC0001D49AD
:10C1900001EB8000406868BB00BF4FF488712068E5
:10C1A000FFF7B1FB00904FF4A2712068FFF7ABFBE3
:10C1B00083464FF492712068FFF7A5FB81460098F3
:10C1C00028B9BBF1000F02D1B9F1000FE5D0002072
:10C1D000217901EBC1010B4A02EB81018861B9F1C0
:10C1E000000F01D04FF00308BBF1000F01D04FF05A
:10C1F0000F0804E04FF404712068FFF79BFB4046F2
:10C2000078E70000543500202DE9F04704468846C1
:10C210009146207900EBC0002A4901EB8005404699
:10C22000FFF74AFD18B910263046BDE8F0872046D2
:10C2300000F04AF810B111263046F6E7C5F8149020
:10C24000C5F8088000264FF490712068FFF762FB64
:10C250004FF4AC712068FFF75DFB20686A69A9683C
:10C26000C0F844154FF4A9631A5000BF0821206894
:10C27000FFF76EFB686818BB00BF4FF49071206831
:10C28000FFF741FB82464FF4AC712068FFF73BFBA0
:10C290000746BAF1000F01D1002FEED00FB10F26E3
:10C2A0000BE00C212068FFF753FB00BF4FF4AC718B
:10C2B0002068FFF728FB0028F8D00020686100BF45
:10C2C0003046B2E7543500200146087900EBC00043
:10C2D000044A02EB8000406908B101207047002049
:10C2E000FCE70000543500203EB50A4800900A489B
:10C2F00001900A48029069460948FBF76BFA044628
:10C3000000BF254625B100BF2846FAF735FD00BF1E
:10C3100000BF3EBDA976020025C3020010300020F8
:10C320004831002010B5044600BF2046FAF724FD2E
:10C3300000BF10BD00B501460248016000F004F8DE
:10C3400000BD000004E5014000BF0248006800286D
:10C35000FBD0704700E401402DE9FE4F07460D4633
:10C36000002002902888B7F8CA12884201D0BDE8A0
:10C37000FE8F97F8C60200EB8001C1EB801007EB3F
:10C3800040046888002872D105F1060A94F804B0C8
:10C390009AF80000019001985844062804DC21799D
:10C3A00001980844207116E00620207122884C492B
:10C3B0004C4BC91AC908022343EA01404A49FEF717
:10C3C0000BFC4749474A891AC908022242EA014040
:10C3D0004649FEF7F7FB5E464FF0000931E006EBF9
:10C3E000C60104F10A0000EB410109EB89020AF1E0
:10C3F000020000EB420002680A6042684A6000895D
:10C400000881002106EBC60204F10A0000EB42009D
:10C41000418106EBC60204F10A0000EB4200818173
:10C4200006EBC60204F10A0000EB4200C18106EBF4
:10C43000C60204F10A0000EB42000182761C09F1F9
:10C4400001092079B042CAD8701E00EBC00104F186
:10C450000A0000EB4100009038460099FCF7DEFD31
:10C4600010B12079062803D10120029011E011E0DB
:10C47000207987F8C50229883846FBF71BFE8046DD
:10C48000B8F1000F05D02A8839464046FCF7B6F8C7
:10C490006DE701E0012002900298F0B1002087F8DA
:10C4A000C5022A8801A93846FBF776FF8046B8F115
:10C4B000000F05D02A8839464046FCF79FF856E71A
:10C4C0009DF8040040B12A8801213846FCF71EF887
:10C4D0002988384600F09CFA00BF00BF47E70000FB
:10C4E000A0F00200A0F00200A0E70200E8E70200CE
:10C4F00010B50446FCF710FC014A03C210BD000051
:10C500009830002010B504460548006830B1044852
:10C51000006801F087FA00200149086010BD0000A2
:10C52000883000202DE9F04705460F46B7F8048013
:10C53000A81D00EBC8042879A071F87B012802D05F
:10C54000022806D102E02888208003E06888208045
:10C5500000E000BF00BF2088618888421BDD218881
:10C560004046A5DF064616B90120607113E0112E82
:10C5700002D1012020710EE03046FFF77DF981469F
:10C580000A490B4A891AC908012242EA01404A466F
:10C5900008A1FEF721FBA079E179884203DDA179AA
:10C5A0004046FBF761FEBDE8F0870000A8F00200FE
:10C5B000A0F0020073645F626C655F67617474630E
:10C5C0005F65786368616E67655F6D74755F7265DE
:10C5D000717565737428292072657475726E65644F
:10C5E0002025732E0000000070B58EB004460E4664
:10C5F0002C22311D03A8F9F709FFBDF80C50BDF836
:10C600001000C1B2A01D00EBC500C171206980B14E
:10C61000094903C9CDE90101ADF80650A01D00EBA1
:10C62000C500C0798DF8080001A92046226990470D
:10C6300000BF0EB070BD0000C4E302002DE9F0475A
:10C6400005460E46341D2188A81D00EBC10794F84D
:10C650000480B879404501DAB87900E04046814667
:10C6600020884946FBF700FEBDE8F0872DE9F84336
:10C6700004460E463088B4F8CA12884201D0BDE89C
:10C68000F88394F8C60200EB8001C1EB801004EB44
:10C690004008B71D94F8C50200EBC00108F10A007C
:10C6A00000EB4105708800283ED100BF38E000EB68
:10C6B0004002B91C01EB42014988B1F5245F0FD05B
:10C6C0006FF42452114491B1012902D007291CD1E1
:10C6D00014E000EB4002B91C31F81210698114E03B
:10C6E00000EB4002B91C31F81210A9810DE000EBFB
:10C6F0004002B91C31F81210E98106E000EB40025B
:10C70000B91C31F81210298200BF00BF698931B10C
:10C71000A98921B1E98911B1298A01B103E0401C3D
:10C7200039888142C3D800BF0020009094F8C50228
:10C73000401C98F80410884202D10120009014E0B7
:10C7400094F8C502401C84F8C50232886946204628
:10C75000FBF722FE8146B9F1000F05D03288214651
:10C760004846FBF74BFF8AE700BF9DF8000040B149
:10C77000328801212046FBF7C9FE3188204600F0AF
:10C7800047F900BF7BE70A88B0F8CA329A4206D15F
:10C79000002280F8C8224FF6FF72A0F8CA22704724
:10C7A00070B504460D46AA88A11D01EBC200FCF736
:10C7B000ABFC70BD2DE9FC4705460E46B6F804807B
:10C7C000B6F80690A81D00EBC804B9F1170F01DAFE
:10C7D000172000E0484681462088484501DD48464C
:10C7E00000E0208860800020207121884046B5DF6D
:10C7F000074677B13846FFF73FF882461049114A9D
:10C80000891AC908012242EA014052460EA1FEF7E8
:10C81000E3F9607908B1BDE8FC87286968B1164979
:10C8200003C9CDE90001ADF802806088ADF80400CD
:10C83000694628462A69904700BF00BFEBE7000021
:10C84000A8F00200A0F0020073645F626C655F678D
:10C85000617474735F65786368616E67655F6D743A
:10C86000755F7265706C7928292072657475726EB7
:10C8700065642025732E0000BCE302002DE9FC4115
:10C8800005460E46B788B6F80A80A81D00EBC70417
:10C890002088404501DD404600E0208860806088B7
:10C8A000172801DA172000E060886080286978B1D5
:10C8B000607968B1094903C9CDE90001ADF802709A
:10C8C0006088ADF80400694628462A69904700BF91
:10C8D000002060712071BDE8FC810000B4E302001B
:10C8E00030B585B004460D46A08898B16889A18806
:10C8F00088420FD1E06868B101208DF8000005F191
:10C9000010000290E889ADF80C0069462046E26804
:10C91000904700BF05B030BD0548D0E900304FF06A
:10C9200080729A1840F100000149C1E90020704767
:10C93000903000202DE9F04704460D4694F8C602D9
:10C9400000EB8001C1EB801004EB40092888B4F8AB
:10C95000CA12884201D0BDE8F0876888002835D126
:10C96000AF1DD7F80600C9F8060094F8C4A297F8DE
:10C9700000800AEB0800062805DC94F8C402404455
:10C9800084F8C40216E0062084F8C4021549164A49
:10C99000891AC908022242EA014014A1FEF712F9DD
:10C9A0001049114A891AC908022242EA014017496E
:10C9B000FEF708F929882046FBF77CFB064626B1DE
:10C9C0002A8821463046FBF719FE08E02A88002114
:10C9D0002046FBF79BFD2988204600F019F800BF90
:10C9E000B9E70000A0F00200A0F002004E6F742032
:10C9F000656E6F75676820737061636520666F721E
:10CA00002073657276696365732E000044E8020046
:10CA1000F0B589B004460E46202101A8F9F70FFDB4
:10CA200094F8C702401C84F8C70294F8C702214951
:10CA30000968884234D2002084F8C50294F8C602FE
:10CA4000401C84F8C60294F8C60200EB8001C1EBDA
:10CA5000801004EB400594F8C602174901EB8000F2
:10CA6000006828600020287102208DF80400012051
:10CA7000ADF814002968CDF8161004940F480390FF
:10CA8000324601A90E480068FDF784F8074637B121
:10CA9000324621463846FBF7B1FD09B0F0BD06E04D
:10CAA000002084F8C80231462046FBF715FD00BF80
:10CAB000F3E7000044300020A0340020FD85020090
:10CAC0004030002070B50446002508E004F53472BB
:10CAD00002EBC51002EBC512D16F88476D1C0448EC
:10CAE00000688542F2D30020C4F8CC0270BD00007B
:10CAF0004430002070B5024605490B46D40802F0C8
:10CB000007021D5D0126964035431D5500BF70BDCF
:10CB100020350020014605484056012202EBE07016
:10CB200008B1012070470020FCE70000FC34002021
:10CB3000014604484056082801DB012070470020C8
:10CB4000FCE70000FC34002001460648405600285F
:10CB500005DB04484056082801DA01207047002010
:10CB6000FCE70000FC340020FF2201490A54704712
:10CB7000FC3400202DE9F05F814600BF00254DE028
:10CB80002B484057401C00B947E0284600F052F8B7
:10CB9000044649462046FCF71BFF00283CD02846A7
:10CBA00000F050F8064600BF00BF4FF0A041084615
:10CBB00000F5E06151F82410C1F301418846B8F155
:10CBC000020F01D1032000E0022082465146204698
:10CBD000FDF7F3FC00BF00BF4FF0A0410846012164
:10CBE000A140C0F8201500BF2046FBF75DFA834640
:10CBF000FBF712FA074677B1032E09D0B8F1020FFE
:10CC000001D1012E04D0B8F1030F04D1022E02D1BC
:10CC100031462046B84700BF00BF6D1C042DAFD37E
:10CC20004846FCF751FA0028A8D1BDE8F09F000063
:10CC30001C35002001460248425C22F0C0007047CB
:10CC40001C35002001460248425C900970470000F4
:10CC50001C35002070B504460D461646207A05287E
:10CC60000CD0607A28B10A480AA102682846FDF76C
:10CC70001BFB09A12846FDF717FB04E01EB106A126
:10CC80002846FDF711FB2846FDF723FB70BD000089
:10CC900014310020257300000D0A000070B5FEF766
:10CCA000ADF9044600BF254625B100BF2846FAF776
:10CCB00063F800BF00BF70BDF8B504460D46E088BC
:10CCC00038B116A00090E38816A218A12846FDF7F7
:10CCD000EBFA207A05281FD0607A58B1217AA08813
:10CCE000FDF7B2FD174951F82060324616A12846DB
:10CCF000FDF7DAFA2846216800F052FFA0880021EB
:10CD0000FEF744F80646207A104951F820203346B1
:10CD10000FA12846FDF7C8FAF8BD00001B5B306D77
:10CD2000000000001B5B313B33316D0025734C6FFD
:10CD300067732064726F70706564202825642925EC
:10CD4000730D0A001431002025730000003100200B
:10CD50003C25733E2025733A20000000014603481D
:10CD6000814201D1024870470020FCE700200040CA
:10CD700060300020F0B58DB006460D46012205A9B1
:10CD80003046FEF799F90446002C6FD19DF8140047
:10CD900006284AD2DFE800F0030B1921262BBDF844
:10CDA0002620BDF824102846A1DF044648E001A94A
:10CDB0000B91BDF82A2000230B990698FEF7F0F896
:10CDC00009A92846A3DF04463AE0BDF824100DF176
:10CDD000260228469BDF044632E009A928469DDF4B
:10CDE00004462DE009A928469EDF044628E001A953
:10CDF0000C910023022269460698FEF7D1F8CDF87F
:10CE00002CD00B9B1A8802230C990698FEF7C8F8C1
:10CE1000BDF8007009A92846AEDF044624B9BDF864
:10CE20000000874200D00C240AE01149114A891AF7
:10CE3000C908022242EA01400FA1FDF7C3FE00BF6C
:10CE400000BF112C12D09DF81400124951F8200097
:10CE500010B10698FEF767F8002205A93046FEF7E4
:10CE60002BF92246294605A800F0A6F80DB0F0BD22
:10CE7000B0F00200A0F00200556E696D706C656D37
:10CE8000656E746564204741545420526571756520
:10CE900073740000CCE30200014608680268086869
:10CEA0004368934201D3981A704700BF8868401CBA
:10CEB000801A1844F8E7000070B58AB004460022D2
:10CEC00009A9E068FEF7F8F8054625E0BDF824104A
:10CED00001EB8101A06800EB8106002201A9304628
:10CEE000FEF7EAF805460EE09DF804000C4951F8FB
:10CEF000200010B10298FEF716F8002201A9304672
:10CF0000FEF7DAF80546002DEED0002209A9E06808
:10CF1000FEF7D2F8054600BF002DD7D00AB070BD8D
:10CF2000CCE3020002480068810201F10050704722
:10CF30000C0100100246002110E00B4800EB8100BC
:10CF400080789378984208D1074830F821001388F8
:10CF5000984202D1054800687047491C044800689F
:10CF60008142EAD30020F7E7A03400203C300020C3
:10CF70004430002070B504460D462046FFF7DAFF26
:10CF800008B1002070BD0A48006806280DD2094883
:10CF90000749096800EB81002168016004480068C6
:10CFA000401C034908600020ECE70420EAE7000089
:10CFB00044300020A0340020F8B504460E46154643
:10CFC0009DB1009522780949094BC91AC908012366
:10CFD00043EA014033460749FDF71AFEA06820B135
:10CFE00032462846D4E902319847F8BDB0F0020035
:10CFF000A0F0020030E902002DE9F04104460E469F
:10D0000000252078062831D2DFE800F003090F164A
:10D010001C22628A218A3046A1DF054631E004F1F4
:10D0200010013046A3DF05462BE0218A04F11202ED
:10D0300030469BDF054624E004F1100130469DDFB9
:10D0400005461EE004F1100130469EDF054618E05B
:10D05000A069078804F110013046AEDF054625B906
:10D06000A0690088B84200D00C250AE00B490C4AA0
:10D07000891AC908022242EA01400AA1FDF7A2FD6D
:10D0800000BF00BF112D02D10020BDE8F0812A466B
:10D0900031462046FFF790FF0120F6E7B0F002008E
:10D0A000A0F00200556E696D706C656D656E7465FB
:10D0B00064204741545420526571756573740000B3
:10D0C00010B504462046FBF706FC08B1FFF724FC28
:10D0D00000212046FBF70FFB10B12046FFF712FAA4
:10D0E00001212046FBF707FB10B12046FFF700FAAD
:10D0F000204600F0DBFC204600F040F810BD0000A8
:10D100002DE9F04706460F464FF00D080020387015
:10D11000FBF702FED6E902321C1A62EB0105002180
:10D120000846091BA84118DAB4F5350F04D3F9F7FE
:10D1300063FE1049084400E0B06881464FF496034E
:10D140004A4600210C48FBF7DCFB8046B8F1000F93
:10D1500002D10120BDE8F08703E000210648FBF77B
:10D16000BFFAB8F10D0F03D1304600F05BFC387008
:10D170000020EFE7FFFFB40080300020F8B507463D
:10D1800046E000BF2448FEF734FB06460EB13046A9
:10D1900000E0002004460025002C31D01F48006824
:10D1A00008B9012512E01D49D4E902300A68D2E924
:10D1B0000212591A904109D2012518480068007FCF
:10D1C00020B1164801681448FEF7FFFABDB100F01F
:10D1D0002BFB044669462046FFF792FF58B10F48E3
:10D1E000006810B93846FBF77EFB0C4804609DF8D8
:10D1F000000018B90DE000200849086007E008E0C9
:10D200000648006810B93846FBF774FB01E000BF20
:10D21000B7E700BFF8BD0000A0E40200883000209E
:10D2200070B505460C46A06940B94FF48471284694
:10D23000FEF73DFB00BFD5F8180570BD4FF48471B3
:10D240002846FEF734FB00BFD5F81805C0B2626A65
:10D25000E1688854606A401C606200BFEDE77FB5FA
:10D2600004460D46164601208DF8000002950196F1
:10D270006846D4E9001290477FBD7FB504460D464D
:10D28000164601208DF80000029501966846D4E903
:10D29000001290477FBD10B504464FF4927120688C
:10D2A000FEF705FB4FF484712068FEF700FB0021B8
:10D2B0002068FEF718FB10BD2DE9FF4105462878D0
:10D2C000042825D0052802D006282ED10AE06E6851
:10D2D00000BF344624B100BF2046F9F74DFD00BF22
:10D2E00000BF23E06C68A07961792279E378CDE909
:10D2F0000032CDE90210A37862780E490E4FC91BA7
:10D30000C908032747EA01400CA1FDF795FC0DE091
:10D310000849094A891AC908032242EA014013A1AF
:10D32000FDF750FC00F06AF800E000BF00BFBDE868
:10D33000FF81000018F10200A0F00200436F6E6E42
:10D34000656374696E6720746F20746172676574B9
:10D350002025303278253032782530327825303229
:10D360007825303278253032780000005363616EC2
:10D370002074696D6564206F75742E007FB5002080
:10D38000009001900290039001208DF804008DF828
:10D390000C00174A69461748FCF73AFD044600BFDF
:10D3A000254625B100BF2846F9F7E6FC00BF00BFBF
:10D3B000114A03210F48FCF7DFFC044600BF254655
:10D3C00025B100BF2846F9F7D7FC00BF00BF0022F7
:10D3D00004210848FCF7F5FC044600BF254625B1AA
:10D3E00000BF2846F9F7C8FC00BF00BF7FBD0000A2
:10D3F000B9D2020074310020F4E2020070B50D4889
:10D40000FCF702FE044600BF254625B100BF2846B2
:10D41000F9F7B2FC00BF00BF0120FAF7A7FC0446F1
:10D4200000BF254625B100BF2846F9F7A5FC00BF7F
:10D4300000BF70BD7431002010B504462046F9F7D6
:10D4400041FB10B942F2010010BD2046002803DB69
:10D450001F4A125C520905E01E4A00F00F031B1F11
:10D46000D25C52091146082904D20120884000F0FC
:10D47000EC0008B9002000E0012010B942F20200DF
:10D48000E2E71548806868B16009134951F8200047
:10D4900004F01F0201219140084361090E4A42F83D
:10D4A000210012E0204600280DDB00BF00BF00F085
:10D4B0001F02012191404209920002F1E022C2F8CC
:10D4C000001100BF00BF00BF00BF0020BCE700008C
:10D4D00000E400E018ED00E03036002070B50446AE
:10D4E000F9F70CFB054614488068D8B901201249A9
:10D4F000886012480068124908400F4908601048C7
:10D500004FF0E021C1F880010C488038D0F8840049
:10D51000094948604FF0FF310848001D01600020B4
:10D52000207001E0012020701DB900BF62B600BF6D
:10D5300000BF002070BD00003036002080E100E018
:10D54000FC06FFBD38B504460D4624B1012C1FD0A2
:10D55000032C38D132E00020002817DB00F01F0236
:10D5600001219140194A430942F8231000BF00BF2E
:10D5700000BFBFF34F8F00BF00BF00BF00BF00BFA1
:10D5800000BFBFF36F8F00BF00BF00BF00BF1BE035
:10D59000002000906846F9F771FD0D48007808B941
:10D5A000FCF7BAFD0A48C068401C0949C860012060
:10D5B00088709DF80000F9F767FD05E0FEF7E2F9D5
:10D5C000FCF7D0FD00E000BF00BF38BD80E100E007
:10D5D000B8340020FEB505460C496846FEF7BDF894
:10D5E0000DE06846FEF7B6F80446266828466168EE
:10D5F000B04708B91120FEBD6846FEF7CFF868466F
:10D60000FEF7A8F80028ECD100BFF4E784E602009A
:10D61000FEB505460A496846FEF79FF80AE06846E7
:10D62000FEF798F80446266828466168B0476846C1
:10D63000FEF7B4F86846FEF78DF80028EFD1FEBD7E
:10D64000A0E602002DE9F84F88461546002D35D09A
:10D650004FF000090320009000BF08EB09012A46A3
:10D660000020F8F7E5FF0446A1442D1BFCB914483F
:10D67000007800B920E0012606B90FE000BF4FF4A2
:10D680007A7707B906E0DFF83CA04FEA871B5846D7
:10D69000D04700BF701E061EF1D100BF0098401E8B
:10D6A0000090009818B900200549087004E0012096
:10D6B00003490870002DD0D100BF00BFBDE8F88F2E
:10D6C000E030002061E6020070B505460020FAF760
:10D6D0004DFB044600BF264626B100BF3046F9F791
:10D6E0004BFB00BF00BF65B9FAF76CFA044600BFF8
:10D6F000264626B100BF3046F9F73EFB00BF00BF0B
:10D7000000E000BF00BF012070BD000010B50CE0BC
:10D7100000BF2C48806804462B4800782168884761
:10D7200000B910BD2748FEF739F800BF25488068CA
:10D730000028EDD100BFFDF73BFB00BF00BFFDF7A8
:10D74000B3F80028FBD100BF00BF1F4800780328B2
:10D7500003D01D48007802281DD100BF00BF00BFC4
:10D7600000BF00BFBFF34F8F00BF00BF00BF17480F
:10D77000006800F4E06016490843001D1349086082
:10D7800000BF00BF00BFBFF34F8F00BF00BF00BF8F
:10D7900000BF00BFFDE7FDF7ADFF10B133DF04466A
:10D7A00000BF00BF01200B49086000BF00BF00BFE1
:10D7B00000BFBFF34F8F00BF00BF00BF00E020BF1E
:10D7C000FDE700003C360020CC3000200CED00E0EE
:10D7D0000000FA050005004070B504460D462CB95E
:10D7E0000120034948700020FAF7ACFC70BD00002E
:10D7F000B834002070B51620FFF71EFE044600BFA7
:10D80000254625B100BF2846F9F7B6FA00BF00BF8C
:10D8100070BD10B500BF00F007F808B10021017716
:10D820000028F8D110BD000010B50448FDF7E5FF51
:10D8300004460CB1204610BD0020FCE7A0E4020025
:10D8400010B504460120FAF739FA10B10220207011
:10D8500008E00020FAF732FA10B10B20207001E046
:10D860000020207010BD00000146064B03EB610351
:10D870001A7801F001030BB1131101E002F00F035C
:10D88000184670479835002030B500F001040CB1FF
:10D890000F2400E0F024234600F001040CB10C0139
:10D8A00000E00C46E2B2094C04EB600424781C4012
:10D8B000064D05EB60052C70044C04EB60042478E5
:10D8C0001443024D05EB60052C7030BD98350020E7
:10D8D0002DE9F05F05460E4690461F46DDF828907C
:10D8E0004FEA154AFAF7F0FE83464AEA0B42781CE3
:10D8F00000EA09000E4941F8202007EA090001EB7F
:10D900008004206865F3C5002060206868F38910F2
:10D910002060206866F39F202060206820F00300CC
:10D92000401C2060206820F004002060BDE8F09FCB
:10D93000EC3700202DE9FC478046894616461C46F8
:10D9400016480768012201A92046FAF751FAC0B12A
:10D95000019800F1020A002509E056F825205046FA
:10D960000AF1010A38400E4941F820206D1CA542F9
:10D97000F3D30097224649464046019BFFF7A8FF94
:10D9800000BF07480C38007830B100BF00BFFCF77B
:10D990008BFF0028FBD100BFBDE8FC87FC300020D6
:10D9A000EC3700202DE9F04781460C461546984695
:10D9B000002608F00100A0B105E0641C761C394681
:10D9C0004846FAF789FA2778002FF6D104E06D1E51
:10D9D00020214846FAF780FAB5421BD9002DF6D12E
:10D9E00018E01CB12046F8F735FD064604E06D1E30
:10D9F00020214846FAF770FAB54201D9002DF6D138
:10DA000005E0641C761C39464846FAF765FA277823
:10DA1000002FF6D1BDE8F0870246501A20F07F4073
:10DA20007047000070B504460025174800780128AB
:10DA300027D104B3207FF0B1FBF76EF9D4E90223BC
:10DA4000801A994118D3206908B900202077D4E9B9
:10DA500005108847206970B1207F60B1D4E9023099
:10DA60002169591840F10000C4E902102146074815
:10DA7000FDF7ABFE012504E021460448FDF7A5FEB5
:10DA80000125284670BD00008C300020A0E4020073
:10DA900070B5F9F7C9F9044600BF254625B100BFA6
:10DAA0002846F9F769F900BF00BF70BDF8B5064612
:10DAB00069461F480068FBF7BDFE044634E0207845
:10DAC00020B101280DD0022821D11AE06068007F22
:10DAD00030B901206168087716486168FDF775FE66
:10DAE00016E0154960680968884203D10020124990
:10DAF000086005E00F486168FDF78BFE054600BF32
:10DB000006E0FFF786FE01200C49087000E000BF28
:10DB100000BF694606480068FBF77EFE6946044878
:10DB20000068FBF787FE0446002CC8D1F8BD000052
:10DB30009CE40200A0E40200883000208C30002029
:10DB4000F8B505460E4669460B480068FBF756FED9
:10DB500004467CB125706660694607480068FBF79B
:10DB600077FE28B100BF0548FAF79AFE00BF00BF54
:10DB70000020F8BD0420FCE79CE402008030002077
:10DB800010B5054800684108002204480068F9F70C
:10DB900081F9044610BD00007030002094E40200BA
:10DBA000704770B505460C46666910E004E094F8CD
:10DBB000280008B1002070BD4FF48E712846FDF793
:10DBC0006FFE0028F3D02146284600F005F8206AB1
:10DBD000B042EBD30120EEE770B505460C464FF49A
:10DBE0008E712846FDF763FE216AA068465C206AB4
:10DBF000401C20623046C5F81C0500BF70BD7FB5D3
:10DC000004460D4600208DF800000295A0680190A2
:10DC1000002060616846D4E9001290477FBD7FB55F
:10DC200004460D4600208DF800000295A068019082
:10DC3000002060616846D4E9001290477FBD000073
:10DC400070B50546287820B101284BD0022859D15B
:10DC500038E02E492E4A12888818F9F741F92C48E5
:10DC60000088401C2A49088008460088401E274931
:10DC7000085C0A280BD026480088401E085C0D2846
:10DC800005D02348008823490988884219DB00BF52
:10DC90001F4802881D492048F9F756FE0446082C03
:10DCA0000AD0132C08D000BF264626B100BF30464C
:10DCB000F9F762F800BF00BF132CE9D00020144927
:10DCC000088020E01549164A891AC908012242EA4B
:10DCD000014014A1FCF776FF00BF6868F9F74CF823
:10DCE00000BF10E00D490E4A891AC908012242EA14
:10DCF000014019A1FCF766FF00BF6868F9F73CF81E
:10DD000000BF00E000BF00BF70BD00003C3300203A
:10DD100026300020243000204831002018F1020075
:10DD2000A0F00200436F6D6D756E69636174696F79
:10DD30006E206572726F72206F63637572726564B4
:10DD4000207768696C652068616E646C696E672015
:10DD5000554152542E0000004572726F72206F635D
:10DD600063757272656420696E204649464F206D66
:10DD70006F64756C65207573656420627920554108
:10DD800052542E007CB504460E462078002847D019
:10DD9000012802D0022856D133E0207A28B9012286
:10DDA0002A492B48FCF73CFA4EE060680178294884
:10DDB000F9F711F8054645B101208DF800000195ED
:10DDC00068462549096888470AE02248FAF7C9FEEB
:10DDD00030B100208DF8000068461F490968884767
:10DDE0001C48FAF7BEFE1B498988884205D80122E3
:10DDF00016491748FCF714FA02E001201749087089
:10DE000022E002208DF80000E068019001220F4915
:10DE10000F48FCF705FA68460F490968884713E080
:10DE20000F491048F8F7B6FF28B901220C490848F5
:10DE3000FCF718FA06E003208DF800006846064952
:10DE40000968884700E000BF00BF7CBDBD300020EE
:10DE5000A430002010360020B8300020BE30002052
:10DE6000BC300020203600207FB504460D462E46EB
:10DE700020788DF8000060680190217A8DF80810F4
:10DE8000E1680391044850F82610044850F8262011
:10DE9000684690477FBD0000503000204C30002085
:10DEA00030B58BB01822104905A8F8F7AFFA00BFBB
:10DEB0000E480190202002900D48039020200490ED
:10DEC00007230C4A01A905A8F9F734F8044600BF56
:10DED00000BF254625B100BF2846F8F74DFF00BF1B
:10DEE00000BF0BB030BD0000F8E20200303400206B
:10DEF0005034002041DC02002DE9FF4105460C466C
:10DF00004FF400712846FDF7E5FC48B34FF49271D9
:10DF10002846FDF7C5FC18B34FF492712846FDF76B
:10DF2000C6FC4FF401712846FDF7CEFC94F8290099
:10DF300018B904212846FDF7D6FC02208DF8000010
:10DF40002846FDF7A7FC0390A1690291E0680190C3
:10DF50000020A061E0616846D4E90012904737E0F4
:10DF600004212846FDF7B6FC002831D04FF4847117
:10DF70002846FDF795FC58B321462846FFF750F98F
:10DF8000616AA069884223D1E06970B1E668676A76
:10DF9000E069A0612069E0600020E06160623246D3
:10DFA00039462046FFF75BF912E094F8290018B9CA
:10DFB00004212846FDF797FC4FF401712846FDF730
:10DFC00083FC0020A061E268616A2046FFF747F900
:10DFD0004FF48E712846FDF763FCB8B16669206A7C
:10DFE000B04207D294F8280020B921462846FFF70E
:10DFF000F3FD0AE04FF48E712846FDF758FC606986
:10E0000018B161692046FFF7FAFD00BF4FF4A27115
:10E010002846FDF745FCA0B14FF4A2712846FDF754
:10E0200046FC94F8290018B100212846FDF75BFC56
:10E03000A06930B10020A061E268616A2046FFF764
:10E040000EF9BDE8FF8100007FB504460D462E465F
:10E0500020788DF8000060680190217A8DF8081012
:10E06000E1680391044850F82610044850F826202F
:10E07000684690477FBD0000503000204C300020A3
:10E080002DE9FF4106460C464FF492713046FDF7EC
:10E090003AFCC8B14FF492713046FDF73BFC0220C8
:10E0A0008DF800003046FDF728FC03903046FDF760
:10E0B00044FC0290E06801900020A061E0616846A5
:10E0C000D4E9001290472CE04FF488713046FDF7F8
:10E0D0001AFC30B34FF488713046FDF71BFC304614
:10E0E000FDF72BFC0546A069A84219D1E06980B173
:10E0F000E76820213046FDF725FCE069A061206932
:10E10000E0600020E0613A4629462046FFF7B5F876
:10E1100006E00020A06129462046E268FFF7ADF83E
:10E1200000BF4FF4A2713046FDF7EDFB90B14FF404
:10E13000A2713046FDF7EEFBA06958B10020A06146
:10E14000E0613046FDF7F9FB054629462046E268C6
:10E15000FFF793F84FF490713046FDF7D4FB90B180
:10E160004FF490713046FDF7D5FB0C213046FDF79A
:10E17000EFFB606938B13046FDF7EDFB05462946F7
:10E180002046FFF74CFD4FF4AC713046FDF7BBFB6A
:10E1900070B14FF4AC713046FDF7BCFB606938B12B
:10E1A0003046FDF7D8FB054629462046FFF737FDE8
:10E1B000BDE8FF812DE9FF4F81B0884616461F4616
:10E1C000DDE90E4B45464FF0010A03E0B5FBF6F5DD
:10E1D0000AF1010AB542F9D2574500D9BA460BF007
:10E1E000010098B994B10BF00200022803D117B9CD
:10E1F0003020009001E02020009004E0641EDDE962
:10E200000010F9F769FE0CB1A245F7D3012509E02A
:10E21000012F01D97F1E04E0B8FBF5F9B14500D20A
:10E2200001E07543F4E700BF00BFB8FBF5F909FB57
:10E2300015880D4810F809100198F9F74DFEB5FB47
:10E24000F6F5002DF1D10BF0010048B144B104E026
:10E25000641E20210198F9F73FFE0CB1A245F7D3C7
:10E2600005B0BDE8F08F0000D6E4020070B50546A9
:10E270000E462846F9F752FE04462CB1606818B1E4
:10E28000314628466268904770BD2DE9F041064648
:10E290000F46042E22D20FB1032000E000200546D5
:10E2A0003046F9F749FC044600BF4FF0A04108464C
:10E2B00000F5E06151F8241021F4403200F5E061EE
:10E2C00041F8242051F8241041EA054200F5E061AC
:10E2D00041F8242000BF0020BDE8F0810620FBE7C4
:10E2E00064320020C431002004000000200000003F
:10E2F0000100000001000200050000000C00000009
:10E3000005000000070000000000000000E0D70149
:10E310000D0E0F10803400200D000300F97B020069
:10E320000E000300F97B02000F000300F97B0200DE
:10E3300010000300F97B0200010000000000000053
:10E3400000000000000000000000000000000000CD
:10E3500000000000000000000000000000000000BD
:10E3600000000000000000000000000000000000AD
:10E37000000000000000000000000000000000009D
:10E38000000000000000000000000000000000008D
:10E39000000000000000000000000000000000007D
:10E3A000000000000000000000000000000000006D
:10E3B00000000000770A000000000000770A00005B
:10E3C000000000007ADA00000000000000000000F9
:10E3D000998C020000000000000000000000000016
:10E3E000CF8C02009ECADC240EE5A9E093F3A3B50E
:10E3F0000000406E000000506E7266785F677069C2
:10E400006F74655F696E6974006E7266785F6770BD
:10E41000696F74655F6F75745F696E6974006E72A1
:10E4200066785F6770696F74655F696E5F696E6952
:10E43000740000006E7266785F756172745F696E59
:10E4400069740000CDBD02006E7266785F756172FE
:10E45000745F7478006E7266785F756172745F7253
:10E46000780000006E7266785F75617274655F692E
:10E470006E6974003DC002006E7266785F756172ED
:10E4800074655F7478006E7266785F75617274652A
:10E490005F7278007835002003000000003600200D
:10E4A00000000000A03000209D8102000100060055
:10E4B000FFFFFFFFFFFFFFFFFFFFFFFFFFFFFFFF6C
:10E4C00000000000000000000000D601060100006E
:10E4D0000738FDD870473031323334353637383964
:10E4E0004142434445460000000000000000000097
:10E4F00074F1020078F1020000000000000000004A
:10E50000E8E4020000E5020004000000556E6B6EB6
:10E510006F776E206572726F7220636F64650000A2
:10E5200000000000F4EC020001000000A0EB02007B
:10E530000200000094E902000300000014EC020055
:10E540000400000068EC02000500000048EB020037
:10E5500006000000E4EA02000700000050EC0200A0
:10E56000080000005CEB020009000000C0EB0200A4
:10E570000A000000DCEC02000B0000007CE9020055
:10E580000C00000074EB02000D00000044ED0200DE
:10E590000E00000040EC02000F0000007CEC0200C6
:10E5A00010000000B0EC02001100000058ED020065
:10E5B000120000002CED020013000000C8EC020065
:10E5C00080000000FCEA02008100000038EA02003E
:10E5D00082000000F8E9020083000000D8E9020090
:10E5E0008400000014EA02008500000020EB020015
:10E5F0008600000028EC020090000000C4EA02003F
:10E6000091000000B8E902009200000088EB0200CF
:10E610000082000090EC020001820000DCEB0200AE
:10E6200002820000F8EB02000084000054EA0200BD
:10E630000184000000ED0200028400009CEA020058
:10E640000384000078EA02000000000000000000DF
:10E6500035A7020033A7020029A70200000000002E
:10E660000738FDD870470000483700207F000000C1
:10E67000C83700200000000000000000000000007B
:10E680000000000074E6020084E6020008000000BA
:10E69000C8F10200D0F102000000000000000000FC
:10E6A00090E60200A0E6020008000000B8F10200B7
:10E6B000C8F102000000000000000000ACE602000B
:10E6C000BCE602000800000000100200000000008C
:10E6D0000000000078F10200A0F10200A0F10200A9
:10E6E000A8F10200A8F10200B0F10200CCE602009D
:10E6F000ECE6020008000000282A0020B0F1020029
:10E70000B8F102000000000000000000FCE602007A
:10E710000CE702000800000000404040404040403C
:10E7200040404141414141404040404040404040E4
:10E730004040404040404040400502020202020288
:10E7400002020202020202020220202020202020D7
:10E7500020202002020202020202909090909090EB
:10E7600010101010101010101010101010101010A9
:10E77000101010100202020202028888888888881D
:10E780000808080808080808080808080808080809
:10E7900008080808020202024000000019E702000F
:10E7A0004E6F7420656E6F75676820737061636566
:10E7B00020666F7220636861726163746572697349
:10E7C00074696373206173736F6369617465642036
:10E7D000776974682073657276696365203078257F
:10E7E0003034582021000000496E63726561736502
:10E7F00020424C455F474154545F44425F4D41586D
:10E800005F434841525320746F2062652061626CFF
:10E810006520746F2073746F7265206D6F72652050
:10E82000636861726163746572697374696373208C
:10E83000666F7220656163682073657276696365CF
:10E8400021000000496E63726561736520424C458A
:10E850005F44425F444953434F564552595F4D41CF
:10E86000585F53525620746F2062652061626C6558
:10E8700020746F2073746F7265206D6F72652073E2
:10E8800065727669636573210000000073645F62DE
:10E890006C655F6761705F646174615F6C656E6712
:10E8A00074685F75706461746528292028726571C9
:10E8B0007565737429206F6E20636F6E6E65637467
:10E8C000696F6E20307825782072657475726E6578
:10E8D000642025732E0000005468652072657175F0
:10E8E000657374656420636F6D62696E6174696FCE
:10E8F0006E206F6620545820616E6420525820703C
:10E9000061636B6574206C656E67746873206973EE
:10E9100020746F6F206C6F6E6720627920257520E0
:10E920006D6963726F7365636F6E64732E000000B0
:10E93000534420474154542070726F63656475726C
:10E94000652028256429206661696C6564206F6EE6
:10E9500020636F6E6E656374696F6E2068616E64AC
:10E960006C652025642077697468206572726F7207
:10E970003A203078253038582E0000004E52465F3D
:10E980004552524F525F494E56414C49445F4441B3
:10E99000544100004E52465F4552524F525F534F12
:10E9A00046544445564943455F4E4F545F454E419A
:10E9B000424C4544000000004E52465F4552524FC3
:10E9C000525F464541545552455F4E4F545F454E48
:10E9D00041424C45440000004E52465F4552524F62
:10E9E000525F4D555445585F554E4C4F434B5F4613
:10E9F00041494C45440000004E52465F4552524F3B
:10EA0000525F4D555445585F4C4F434B5F4641490B
:10EA10004C4544004E52465F4552524F525F4D5551
:10EA20005445585F434F4E445F494E49545F4641F9
:10EA3000494C4544000000004E52465F4552524F3B
:10EA4000525F4D555445585F494E49545F464149C0
:10EA50004C4544004E52465F4552524F525F424C25
:10EA6000455F495053505F52585F504B545F54526A
:10EA7000554E4341544544004E52465F4552524F15
:10EA8000525F424C455F495053505F504545525F7D
:10EA900052454A4543544544000000004E52465FEB
:10EAA0004552524F525F424C455F495053505F4C64
:10EAB000494E4B5F444953434F4E4E4543544544A2
:10EAC000000000004E52465F4552524F525F415087
:10EAD000495F4E4F545F494D504C454D454E54454E
:10EAE000440000004E52465F4552524F525F4E4F17
:10EAF000545F535550504F52544544004E52465F58
:10EB00004552524F525F4D4F44554C455F4E4F5406
:10EB10005F494E495449414C495A45440000000060
:10EB20004E52465F4552524F525F4D4F44554C45F1
:10EB30005F414C52454144595F494E495449414C0B
:10EB4000495A4544000000004E52465F4552524F1C
:10EB5000525F4E4F545F464F554E44004E52465FF3
:10EB60004552524F525F494E56414C49445F5354AF
:10EB7000415445004E52465F4552524F525F444108
:10EB800054415F53495A45004E52465F4552524FD9
:10EB9000525F494F5F50454E44494E4700000000C8
:10EBA0004E52465F4552524F525F5356435F484163
:10EBB0004E444C45525F4D495353494E4700000067
:10EBC0004E52465F4552524F525F494E56414C4954
:10EBD000445F4C454E475448000000004E52465F8B
:10EBE0004552524F525F4452565F5457495F455207
:10EBF000525F414E41434B004E52465F4552524F89
:10EC0000525F4452565F5457495F4552525F444EDB
:10EC100041434B004E52465F4552524F525F494E60
:10EC20005445524E414C00004E52465F4552524FA1
:10EC3000525F53544F524147455F46554C4C00007C
:10EC40004E52465F4552524F525F4E554C4C00005B
:10EC50004E52465F4552524F525F494E56414C49C3
:10EC6000445F504152414D004E52465F4552524F13
:10EC7000525F4E4F5F4D454D000000004E52465FC3
:10EC80004552524F525F464F5242494444454E000E
:10EC90004E52465F4552524F525F4452565F545750
:10ECA000495F4552525F4F56455252554E00000043
:10ECB0004E52465F4552524F525F494E56414C4963
:10ECC000445F4144445200004E52465F4552524F09
:10ECD000525F5245534F5552434553004E52465F83
:10ECE0004552524F525F494E56414C49445F464C43
:10ECF000414753004E52465F5355434345535300DB
:10ED00004E52465F4552524F525F424C455F49500A
:10ED100053505F4348414E4E454C5F414C52454134
:10ED200044595F4558495354530000004E52465FC2
:10ED30004552524F525F434F4E4E5F434F554E54D4
:10ED4000000000004E52465F4552524F525F5449F8
:10ED50004D454F55540000004E52465F4552524FAC
:10ED6000525F4255535900007761726E696E6700B9
:10ED700064656275670000001B5B313B33306D00DA
:10ED80001B5B306D000000001B5B313B33316D00BD
:10ED90001B5B313B33326D001B5B313B33336D000A
:10EDA0001B5B313B33346D001B5B313B33356D00F6
:10EDB0001B5B313B33366D001B5B313B33376D00E2
:10EDC000696E666F000000006572726F720000006D
:10EDD00073645F626C655F6366675F73657428293F
:10EDE0002072657475726E6564202573207768657E
:10EDF0006E20617474656D7074696E6720746F2025
:10EE000073657420424C455F47415454535F4346F9
:10EE1000475F534552564943455F4348414E474536
:10EE2000442E000073645F626C655F6366675F73A6
:10EE3000657428292072657475726E656420257367
:10EE4000207768656E20617474656D7074696E6793
:10EE500020746F2073657420424C455F434F4D4DC5
:10EE60004F4E5F4346475F56535F555549442E000A
:10EE700073645F626C655F6366675F73657428299E
:10EE80002072657475726E656420257320776865DD
:10EE90006E20617474656D7074696E6720746F2084
:10EEA00073657420424C455F47415454535F434659
:10EEB000475F415454525F5441425F53495A452E73
:10EEC0000000000073645F626C655F6366675F7378
:10EED000657428292072657475726E6564202573C7
:10EEE000207768656E20617474656D7074696E67F3
:10EEF00020746F2073657420424C455F434F4E4E23
:10EF00005F4346475F4741502E00000073645F62D5
:10EF10006C655F6366675F7365742829207265742A
:10EF200075726E6564202573207768656E20617444
:10EF300074656D7074696E6720746F2073657420DA
:10EF4000424C455F4741505F4346475F524F4C45F7
:10EF50005F434F554E542E0073645F626C655F6370
:10EF600066675F73657428292072657475726E65B3
:10EF700064202573207768656E20617474656D70F8
:10EF800074696E6720746F2073657420424C455F0E
:10EF9000434F4E4E5F4346475F474154542E000057
:10EFA000626C655F64625F64697363006E72665F62
:10EFB000626C655F67617474000000006E72665F6A
:10EFC000626C655F67710000626C655F7363616EA0
:10EFD00000000000626C655F6E75735F6300000087
:10EFE000636C6F636B000000434C4F434B000000A9
:10EFF0004750494F54450000505253005541525418
:10F000000000000055415254450000006170705FDF
:10F01000627574746F6E00006170705F74696D6505
:10F02000720000007077725F6D676D740000000001
:10F03000736F72746C697374000000007274745F93
:10F040006C6F675F6261636B656E64006170700016
:10F050006E72665F736468006E72665F7364685F89
:10F06000626C65006E72665F7364685F736F6300E5
:10F07000D0F10200282A002020070000B46402001A
:10F0800038F2020048310020402D0000B46A02002E
:10F0900050E60200000000003CF00200E4300020D6
:10F0A000A0EF020000000303ACEF02000000030326
:10F0B000BCEF020000000303C8EF020000000303DE
:10F0C000D4EF020000000303E0EF020000000000A4
:10F0D000E8EF020000000000F0EF02000000000076
:10F0E000F8EF020000000000FCEF0200000000004A
:10F0F00004F00200000000000CF00200000000001C
:10F1000018F002000000000024F0020000000000DF
:10F1100030F00200000000004CF002000000030389
:10F1200050F002000000030358F002000000030347
:10F1300064F002000000030308300020FE2F0020CE
:10F14000063000207C32002018000000F43000203F
:10F15000EC300020F4300020883600201800000039
:10F1600070320020FA2F0020010000000200000091
:10F1700001000000C9D60200399A02006031002067
:10F18000B9730200282A0020579F02007431002022
:10F19000699C02001030002031760200000000005F
:10F1A0004D78020048310020717402000000000018
:10F1B000D9D7020000000000CDB502000000000019
:10F1C00001B702000000000045D502000000000069
:10F1D00001FF01FF01CC03FFFFFF01FF01FF7103EE
:10F1E00016FFFF320113F82F1520E0E2021460F140
:10F1F000021A3804025C1415100140110222041294
:10F2000020BA4008092EF009191414C8ED021A6832
:10F21000041AC0041A70041A80041A78041A8804A4
:10F220001A90041A98041AA0041AA8041AB0041A0E
:08F23000B804D1040090D003E2
:040000050002620192
:00000001FF
