Component: ARM Compiler 5.06 update 6 (build 750) Tool: armlink [4d35ed]

==============================================================================

Section Cross References

    main.o(i.assert_nrf_callback) refers to app_error_handler_keil.o(.emb_text) for app_error_handler
    main.o(i.ble_evt_handler) refers to ble_nus_c.o(i.ble_nus_c_handles_assign) for ble_nus_c_handles_assign
    main.o(i.ble_evt_handler) refers to app_error.o(i.app_error_handler_bare) for app_error_handler_bare
    main.o(i.ble_evt_handler) refers to bsp.o(i.bsp_indication_set) for bsp_indication_set
    main.o(i.ble_evt_handler) refers to ble_db_discovery.o(i.ble_db_discovery_start) for ble_db_discovery_start
    main.o(i.ble_evt_handler) refers to nrf_log_frontend.o(i.nrf_log_frontend_std_2) for nrf_log_frontend_std_2
    main.o(i.ble_evt_handler) refers to nrf_log_frontend.o(i.nrf_log_frontend_std_0) for nrf_log_frontend_std_0
    main.o(i.ble_evt_handler) refers to main.o(.bss) for m_ble_nus_c
    main.o(i.ble_evt_handler) refers to main.o(.data) for m_db_disc
    main.o(i.ble_evt_handler) refers to nrf_log_frontend.o(log_const_data) for m_nrf_log_app_logs_data_const
    main.o(i.ble_nus_c_evt_handler) refers to nrf_log_frontend.o(i.nrf_log_frontend_std_0) for nrf_log_frontend_std_0
    main.o(i.ble_nus_c_evt_handler) refers to ble_nus_c.o(i.ble_nus_c_handles_assign) for ble_nus_c_handles_assign
    main.o(i.ble_nus_c_evt_handler) refers to app_error.o(i.app_error_handler_bare) for app_error_handler_bare
    main.o(i.ble_nus_c_evt_handler) refers to ble_nus_c.o(i.ble_nus_c_tx_notif_enable) for ble_nus_c_tx_notif_enable
    main.o(i.ble_nus_c_evt_handler) refers to main.o(i.ble_nus_chars_received_uart_print) for ble_nus_chars_received_uart_print
    main.o(i.ble_nus_c_evt_handler) refers to main.o(i.scan_start) for scan_start
    main.o(i.ble_nus_c_evt_handler) refers to nrf_log_frontend.o(log_const_data) for m_nrf_log_app_logs_data_const
    main.o(i.ble_nus_chars_received_uart_print) refers to app_uart_fifo.o(i.app_uart_put) for app_uart_put
==============================================================================

Removing Unused input sections from the image.

    Removing main.o(.rev16_text), (4 bytes).
    Removing main.o(.revsh_text), (4 bytes).
    Removing main.o(.rrx_text), (6 bytes).
    Removing main.o(i.assert_nrf_callback), (24 bytes).
    Removing boards.o(.rev16_text), (4 bytes).
    Removing boards.o(.revsh_text), (4 bytes).
    Removing boards.o(.rrx_text), (6 bytes).
    Removing boards.o(i.bsp_board_buttons_init), (76 bytes).
    Removing boards.o(i.bsp_board_init), (16 bytes).
    Removing bsp.o(.rev16_text), (4 bytes).
    Removing bsp.o(.revsh_text), (4 bytes).
    Removing bsp.o(.rrx_text), (6 bytes).
    Removing bsp.o(i.bsp_buttons_disable), (8 bytes).
    Removing bsp.o(i.bsp_buttons_enable), (8 bytes).
    Removing bsp.o(i.bsp_wakeup_button_disable), (14 bytes).
    Removing bsp_btn_ble.o(.rev16_text), (4 bytes).
    Removing bsp_btn_ble.o(.revsh_text), (4 bytes).
    Removing bsp_btn_ble.o(.rrx_text), (6 bytes).
==============================================================================

Image Symbol Table

    Local Symbols

    Symbol Name                              Value     Ov Type        Size  Object(Section)

    ../clib/../cmprslib/zerorunl2.c          0x00000000   Number         0  __dczerorl2.o ABSOLUTE
    ../clib/microlib/ctype/ctype.c           0x00000000   Number         0  isxdigit_o.o ABSOLUTE
    ../clib/microlib/ctype/ctype.c           0x00000000   Number         0  ctype_o.o ABSOLUTE
    ../clib/microlib/ctype/ctype.c           0x00000000   Number         0  isspace_o.o ABSOLUTE
    ../clib/microlib/ctype/ctype.c           0x00000000   Number         0  isupper_o.o ABSOLUTE
    ../clib/microlib/ctype/ctype.c           0x00000000   Number         0  isalpha_o.o ABSOLUTE
    ../clib/microlib/ctype/ctype.c           0x00000000   Number         0  isblank_o.o ABSOLUTE
    ../clib/microlib/ctype/ctype.c           0x00000000   Number         0  iscntrl_o.o ABSOLUTE
    ../clib/microlib/ctype/ctype.c           0x00000000   Number         0  isdigit_o.o ABSOLUTE
    ../clib/microlib/ctype/ctype.c           0x00000000   Number         0  isalnum_o.o ABSOLUTE
    ../clib/microlib/ctype/ctype.c           0x00000000   Number         0  isgraph_o.o ABSOLUTE
    ../clib/microlib/ctype/ctype.c           0x00000000   Number         0  islower_o.o ABSOLUTE
    ../clib/microlib/ctype/ctype.c           0x00000000   Number         0  isprint_o.o ABSOLUTE
    ../clib/microlib/ctype/ctype.c           0x00000000   Number         0  ispunct_o.o ABSOLUTE
    ../clib/microlib/division.c              0x00000000   Number         0  uidiv.o ABSOLUTE
    ../clib/microlib/division.c              0x00000000   Number         0  uldiv.o ABSOLUTE
    ../clib/microlib/init/entry.s            0x00000000   Number         0  entry5.o ABSOLUTE
    ../clib/microlib/init/entry.s            0x00000000   Number         0  entry8a.o ABSOLUTE
    ../clib/microlib/init/entry.s            0x00000000   Number         0  entry7b.o ABSOLUTE
    ../clib/microlib/init/entry.s            0x00000000   Number         0  entry7a.o ABSOLUTE
    ../clib/microlib/init/entry.s            0x00000000   Number         0  entry2.o ABSOLUTE
    ../clib/microlib/init/entry.s            0x00000000   Number         0  entry11b.o ABSOLUTE
    ../clib/microlib/init/entry.s            0x00000000   Number         0  entry11a.o ABSOLUTE
    ../clib/microlib/init/entry.s            0x00000000   Number         0  entry10b.o ABSOLUTE
    ../clib/microlib/init/entry.s            0x00000000   Number         0  entry10a.o ABSOLUTE
    ../clib/microlib/init/entry.s            0x00000000   Number         0  entry9b.o ABSOLUTE
    ../clib/microlib/init/entry.s            0x00000000   Number         0  entry9a.o ABSOLUTE
    ../clib/microlib/init/entry.s            0x00000000   Number         0  entry.o ABSOLUTE
    ../clib/microlib/init/entry.s            0x00000000   Number         0  entry8b.o ABSOLUTE
    ../clib/microlib/longlong.c              0x00000000   Number         0  llshl.o ABSOLUTE
    ../clib/microlib/longlong.c              0x00000000   Number         0  llushr.o ABSOLUTE
    ../clib/microlib/longlong.c              0x00000000   Number         0  llsshr.o ABSOLUTE
    ../clib/microlib/printf/printf.c         0x00000000   Number         0  printf7.o ABSOLUTE
    ../clib/microlib/printf/printf.c         0x00000000   Number         0  printfb.o ABSOLUTE
    ../clib/microlib/printf/printf.c         0x00000000   Number         0  printf0.o ABSOLUTE
    ../clib/microlib/printf/printf.c         0x00000000   Number         0  printf1.o ABSOLUTE
    ../clib/microlib/printf/printf.c         0x00000000   Number         0  printf2.o ABSOLUTE
    ../clib/microlib/printf/printf.c         0x00000000   Number         0  printf6.o ABSOLUTE
    ../clib/microlib/printf/printf.c         0x00000000   Number         0  printf4.o ABSOLUTE
    ../clib/microlib/printf/printf.c         0x00000000   Number         0  printf5.o ABSOLUTE
    ../clib/microlib/printf/printf.c         0x00000000   Number         0  printfa.o ABSOLUTE
    ../clib/microlib/printf/printf.c         0x00000000   Number         0  printf8.o ABSOLUTE
    ../clib/microlib/printf/printf.c         0x00000000   Number         0  printf3.o ABSOLUTE
    ../clib/microlib/string/memcmp.c         0x00000000   Number         0  memcmp.o ABSOLUTE
    ../clib/microlib/string/memcpy.c         0x00000000   Number         0  memcpyb.o ABSOLUTE
    ../clib/microlib/string/memcpy.c         0x00000000   Number         0  memcpya.o ABSOLUTE
    ../clib/microlib/string/memset.c         0x00000000   Number         0  memseta.o ABSOLUTE
    ../clib/microlib/string/strcpy.c         0x00000000   Number         0  strcpy.o ABSOLUTE
    ../clib/microlib/string/strlen.c         0x00000000   Number         0  strlen.o ABSOLUTE
    ../clib/microlib/stubs.s                 0x00000000   Number         0  iusefp.o ABSOLUTE
    ../fplib/microlib/fpadd.c                0x00000000   Number         0  dadd.o ABSOLUTE
    ../fplib/microlib/fpdiv.c                0x00000000   Number         0  ddiv.o ABSOLUTE
    ../fplib/microlib/fpepilogue.c           0x00000000   Number         0  depilogue.o ABSOLUTE
    ../fplib/microlib/fpfix.c                0x00000000   Number         0  dfixul.o ABSOLUTE
    ../fplib/microlib/fpmul.c                0x00000000   Number         0  dmul.o ABSOLUTE
    ..\..\..\..\..\..\components\ble\ble_db_discovery\ble_db_discovery.c 0x00000000   Number         0  ble_db_discovery.o ABSOLUTE
    ..\..\..\..\..\..\components\ble\ble_services\ble_nus_c\ble_nus_c.c 0x00000000   Number         0  ble_nus_c.o ABSOLUTE
    ..\..\..\..\..\..\components\ble\common\ble_advdata.c 0x00000000   Number         0  ble_advdata.o ABSOLUTE
    ..\..\..\..\..\..\components\ble\common\ble_srv_common.c 0x00000000   Number         0  ble_srv_common.o ABSOLUTE
    ..\..\..\..\..\..\components\ble\nrf_ble_gatt\nrf_ble_gatt.c 0x00000000   Number         0  nrf_ble_gatt.o ABSOLUTE
    ..\..\..\..\..\..\components\ble\nrf_ble_gq\nrf_ble_gq.c 0x00000000   Number         0  nrf_ble_gq.o ABSOLUTE
    ..\..\..\..\..\..\components\ble\nrf_ble_scan\nrf_ble_scan.c 0x00000000   Number         0  nrf_ble_scan.o ABSOLUTE
    ..\..\..\..\..\..\components\boards\boards.c 0x00000000   Number         0  boards.o ABSOLUTE
    ..\..\..\..\..\..\components\libraries\atomic\nrf_atomic.c 0x00000000   Number         0  nrf_atomic.o ABSOLUTE
    ..\..\..\..\..\..\components\libraries\atomic_fifo\nrf_atfifo.c 0x00000000   Number         0  nrf_atfifo.o ABSOLUTE
    ..\..\..\..\..\..\components\libraries\balloc\nrf_balloc.c 0x00000000   Number         0  nrf_balloc.o ABSOLUTE
    ..\..\..\..\..\..\components\libraries\bsp\bsp.c 0x00000000   Number         0  bsp.o ABSOLUTE
    ..\..\..\..\..\..\components\libraries\bsp\bsp_btn_ble.c 0x00000000   Number         0  bsp_btn_ble.o ABSOLUTE
    ..\..\..\..\..\..\components\libraries\button\app_button.c 0x00000000   Number         0  app_button.o ABSOLUTE
    ..\..\..\..\..\..\components\libraries\experimental_section_vars\nrf_section_iter.c 0x00000000   Number         0  nrf_section_iter.o ABSOLUTE
    ..\..\..\..\..\..\components\libraries\fifo\app_fifo.c 0x00000000   Number         0  app_fifo.o ABSOLUTE
    ..\..\..\..\..\..\components\libraries\hardfault\hardfault_implementation.c 0x00000000   Number         0  hardfault_implementation.o ABSOLUTE
    ..\..\..\..\..\..\components\libraries\log\src\nrf_log_backend_rtt.c 0x00000000   Number         0  nrf_log_backend_rtt.o ABSOLUTE
    ..\..\..\..\..\..\components\libraries\log\src\nrf_log_backend_serial.c 0x00000000   Number         0  nrf_log_backend_serial.o ABSOLUTE
    ..\..\..\..\..\..\components\libraries\log\src\nrf_log_default_backends.c 0x00000000   Number         0  nrf_log_default_backends.o ABSOLUTE
    ..\..\..\..\..\..\components\libraries\log\src\nrf_log_frontend.c 0x00000000   Number         0  nrf_log_frontend.o ABSOLUTE
    ..\..\..\..\..\..\components\libraries\log\src\nrf_log_str_formatter.c 0x00000000   Number         0  nrf_log_str_formatter.o ABSOLUTE
    ..\..\..\..\..\..\components\libraries\memobj\nrf_memobj.c 0x00000000   Number         0  nrf_memobj.o ABSOLUTE
    ..\..\..\..\..\..\components\libraries\pwr_mgmt\nrf_pwr_mgmt.c 0x00000000   Number         0  nrf_pwr_mgmt.o ABSOLUTE
    ..\..\..\..\..\..\components\libraries\queue\nrf_queue.c 0x00000000   Number         0  nrf_queue.o ABSOLUTE
    ..\..\..\..\..\..\components\libraries\ringbuf\nrf_ringbuf.c 0x00000000   Number         0  nrf_ringbuf.o ABSOLUTE
    ..\..\..\..\..\..\components\libraries\scheduler\app_scheduler.c 0x00000000   Number         0  app_scheduler.o ABSOLUTE
    ..\..\..\..\..\..\components\libraries\sortlist\nrf_sortlist.c 0x00000000   Number         0  nrf_sortlist.o ABSOLUTE
    ..\..\..\..\..\..\components\libraries\strerror\nrf_strerror.c 0x00000000   Number         0  nrf_strerror.o ABSOLUTE
    ..\..\..\..\..\..\components\libraries\timer\app_timer2.c 0x00000000   Number         0  app_timer2.o ABSOLUTE
    ..\..\..\..\..\..\components\libraries\timer\drv_rtc.c 0x00000000   Number         0  drv_rtc.o ABSOLUTE
    ..\..\..\..\..\..\components\libraries\uart\app_uart_fifo.c 0x00000000   Number         0  app_uart_fifo.o ABSOLUTE
    ..\..\..\..\..\..\components\libraries\uart\retarget.c 0x00000000   Number         0  retarget.o ABSOLUTE
    ..\..\..\..\..\..\components\libraries\util\app_error.c 0x00000000   Number         0  app_error.o ABSOLUTE
    ..\..\..\..\..\..\components\libraries\util\app_error_handler_keil.c 0x00000000   Number         0  app_error_handler_keil.o ABSOLUTE
    ..\..\..\..\..\..\components\libraries\util\app_error_weak.c 0x00000000   Number         0  app_error_weak.o ABSOLUTE
    ..\..\..\..\..\..\components\libraries\util\app_util_platform.c 0x00000000   Number         0  app_util_platform.o ABSOLUTE
    ..\..\..\..\..\..\components\libraries\util\nrf_assert.c 0x00000000   Number         0  nrf_assert.o ABSOLUTE
    ..\..\..\..\..\..\components\softdevice\common\nrf_sdh.c 0x00000000   Number         0  nrf_sdh.o ABSOLUTE
    ..\..\..\..\..\..\components\softdevice\common\nrf_sdh_ble.c 0x00000000   Number         0  nrf_sdh_ble.o ABSOLUTE
    ..\..\..\..\..\..\components\softdevice\common\nrf_sdh_soc.c 0x00000000   Number         0  nrf_sdh_soc.o ABSOLUTE
    ..\..\..\..\..\..\external\fprintf\nrf_fprintf.c 0x00000000   Number         0  nrf_fprintf.o ABSOLUTE
    ..\..\..\..\..\..\external\fprintf\nrf_fprintf_format.c 0x00000000   Number         0  nrf_fprintf_format.o ABSOLUTE
    ..\..\..\..\..\..\external\segger_rtt\SEGGER_RTT.c 0x00000000   Number         0  segger_rtt.o ABSOLUTE
    ..\..\..\..\..\..\external\segger_rtt\SEGGER_RTT_Syscalls_KEIL.c 0x00000000   Number         0  segger_rtt_syscalls_keil.o ABSOLUTE
    ..\..\..\..\..\..\external\segger_rtt\SEGGER_RTT_printf.c 0x00000000   Number         0  segger_rtt_printf.o ABSOLUTE
    ..\..\..\..\..\..\external\utf_converter\utf.c 0x00000000   Number         0  utf.o ABSOLUTE
    ..\..\..\..\..\..\integration\nrfx\legacy\nrf_drv_clock.c 0x00000000   Number         0  nrf_drv_clock.o ABSOLUTE
    ..\..\..\..\..\..\integration\nrfx\legacy\nrf_drv_uart.c 0x00000000   Number         0  nrf_drv_uart.o ABSOLUTE
    ..\..\..\..\..\..\modules\nrfx\drivers\src\nrfx_clock.c 0x00000000   Number         0  nrfx_clock.o ABSOLUTE
    ..\..\..\..\..\..\modules\nrfx\drivers\src\nrfx_gpiote.c 0x00000000   Number         0  nrfx_gpiote.o ABSOLUTE
    ..\..\..\..\..\..\modules\nrfx\drivers\src\nrfx_uart.c 0x00000000   Number         0  nrfx_uart.o ABSOLUTE
    ..\..\..\..\..\..\modules\nrfx\drivers\src\nrfx_uarte.c 0x00000000   Number         0  nrfx_uarte.o ABSOLUTE
    ..\..\..\..\..\..\modules\nrfx\drivers\src\prs\nrfx_prs.c 0x00000000   Number         0  nrfx_prs.o ABSOLUTE
    ..\..\..\..\..\..\modules\nrfx\soc\nrfx_atomic.c 0x00000000   Number         0  nrfx_atomic.o ABSOLUTE
    ..\..\..\main.c                          0x00000000   Number         0  main.o ABSOLUTE
    ..\\..\\..\\..\\..\\..\\components\\ble\\ble_db_discovery\\ble_db_discovery.c 0x00000000   Number         0  ble_db_discovery.o ABSOLUTE
    ..\\..\\..\\..\\..\\..\\components\\ble\\ble_services\\ble_nus_c\\ble_nus_c.c 0x00000000   Number         0  ble_nus_c.o ABSOLUTE
    ..\\..\\..\\..\\..\\..\\components\\ble\\common\\ble_advdata.c 0x00000000   Number         0  ble_advdata.o ABSOLUTE
    ..\\..\\..\\..\\..\\..\\components\\ble\\common\\ble_srv_common.c 0x00000000   Number         0  ble_srv_common.o ABSOLUTE
    ..\\..\\..\\..\\..\\..\\components\\ble\\nrf_ble_gatt\\nrf_ble_gatt.c 0x00000000   Number         0  nrf_ble_gatt.o ABSOLUTE
    ..\\..\\..\\..\\..\\..\\components\\ble\\nrf_ble_gq\\nrf_ble_gq.c 0x00000000   Number         0  nrf_ble_gq.o ABSOLUTE
    ..\\..\\..\\..\\..\\..\\components\\ble\\nrf_ble_scan\\nrf_ble_scan.c 0x00000000   Number         0  nrf_ble_scan.o ABSOLUTE
    ..\\..\\..\\..\\..\\..\\components\\boards\\boards.c 0x00000000   Number         0  boards.o ABSOLUTE
    ..\\..\\..\\..\\..\\..\\components\\libraries\\atomic\\nrf_atomic.c 0x00000000   Number         0  nrf_atomic.o ABSOLUTE
    ..\\..\\..\\..\\..\\..\\components\\libraries\\atomic_fifo\\nrf_atfifo.c 0x00000000   Number         0  nrf_atfifo.o ABSOLUTE
    ..\\..\\..\\..\\..\\..\\components\\libraries\\balloc\\nrf_balloc.c 0x00000000   Number         0  nrf_balloc.o ABSOLUTE
    ..\\..\\..\\..\\..\\..\\components\\libraries\\bsp\\bsp.c 0x00000000   Number         0  bsp.o ABSOLUTE
    ..\\..\\..\\..\\..\\..\\components\\libraries\\bsp\\bsp_btn_ble.c 0x00000000   Number         0  bsp_btn_ble.o ABSOLUTE
    ..\\..\\..\\..\\..\\..\\components\\libraries\\button\\app_button.c 0x00000000   Number         0  app_button.o ABSOLUTE
    ..\\..\\..\\..\\..\\..\\components\\libraries\\experimental_section_vars\\nrf_section_iter.c 0x00000000   Number         0  nrf_section_iter.o ABSOLUTE
    ..\\..\\..\\..\\..\\..\\components\\libraries\\fifo\\app_fifo.c 0x00000000   Number         0  app_fifo.o ABSOLUTE
    ..\\..\\..\\..\\..\\..\\components\\libraries\\hardfault\\hardfault_implementation.c 0x00000000   Number         0  hardfault_implementation.o ABSOLUTE
    ..\\..\\..\\..\\..\\..\\components\\libraries\\log\\src\\nrf_log_backend_rtt.c 0x00000000   Number         0  nrf_log_backend_rtt.o ABSOLUTE
    ..\\..\\..\\..\\..\\..\\components\\libraries\\log\\src\\nrf_log_backend_serial.c 0x00000000   Number         0  nrf_log_backend_serial.o ABSOLUTE
    ..\\..\\..\\..\\..\\..\\components\\libraries\\log\\src\\nrf_log_default_backends.c 0x00000000   Number         0  nrf_log_default_backends.o ABSOLUTE
    ..\\..\\..\\..\\..\\..\\components\\libraries\\log\\src\\nrf_log_frontend.c 0x00000000   Number         0  nrf_log_frontend.o ABSOLUTE
    ..\\..\\..\\..\\..\\..\\components\\libraries\\log\\src\\nrf_log_str_formatter.c 0x00000000   Number         0  nrf_log_str_formatter.o ABSOLUTE
    ..\\..\\..\\..\\..\\..\\components\\libraries\\memobj\\nrf_memobj.c 0x00000000   Number         0  nrf_memobj.o ABSOLUTE
    ..\\..\\..\\..\\..\\..\\components\\libraries\\pwr_mgmt\\nrf_pwr_mgmt.c 0x00000000   Number         0  nrf_pwr_mgmt.o ABSOLUTE
    ..\\..\\..\\..\\..\\..\\components\\libraries\\queue\\nrf_queue.c 0x00000000   Number         0  nrf_queue.o ABSOLUTE
    ..\\..\\..\\..\\..\\..\\components\\libraries\\ringbuf\\nrf_ringbuf.c 0x00000000   Number         0  nrf_ringbuf.o ABSOLUTE
    ..\\..\\..\\..\\..\\..\\components\\libraries\\scheduler\\app_scheduler.c 0x00000000   Number         0  app_scheduler.o ABSOLUTE
    ..\\..\\..\\..\\..\\..\\components\\libraries\\sortlist\\nrf_sortlist.c 0x00000000   Number         0  nrf_sortlist.o ABSOLUTE
    ..\\..\\..\\..\\..\\..\\components\\libraries\\strerror\\nrf_strerror.c 0x00000000   Number         0  nrf_strerror.o ABSOLUTE
    ..\\..\\..\\..\\..\\..\\components\\libraries\\timer\\app_timer2.c 0x00000000   Number         0  app_timer2.o ABSOLUTE
    ..\\..\\..\\..\\..\\..\\components\\libraries\\timer\\drv_rtc.c 0x00000000   Number         0  drv_rtc.o ABSOLUTE
    ..\\..\\..\\..\\..\\..\\components\\libraries\\uart\\app_uart_fifo.c 0x00000000   Number         0  app_uart_fifo.o ABSOLUTE
    ..\\..\\..\\..\\..\\..\\components\\libraries\\uart\\retarget.c 0x00000000   Number         0  retarget.o ABSOLUTE
    ..\\..\\..\\..\\..\\..\\components\\libraries\\util\\app_error.c 0x00000000   Number         0  app_error.o ABSOLUTE
    ..\\..\\..\\..\\..\\..\\components\\libraries\\util\\app_error_handler_keil.c 0x00000000   Number         0  app_error_handler_keil.o ABSOLUTE
    ..\\..\\..\\..\\..\\..\\components\\libraries\\util\\app_error_weak.c 0x00000000   Number         0  app_error_weak.o ABSOLUTE
    ..\\..\\..\\..\\..\\..\\components\\libraries\\util\\app_util_platform.c 0x00000000   Number         0  app_util_platform.o ABSOLUTE
    ..\\..\\..\\..\\..\\..\\components\\libraries\\util\\nrf_assert.c 0x00000000   Number         0  nrf_assert.o ABSOLUTE
    ..\\..\\..\\..\\..\\..\\components\\softdevice\\common\\nrf_sdh.c 0x00000000   Number         0  nrf_sdh.o ABSOLUTE
    ..\\..\\..\\..\\..\\..\\components\\softdevice\\common\\nrf_sdh_ble.c 0x00000000   Number         0  nrf_sdh_ble.o ABSOLUTE
    ..\\..\\..\\..\\..\\..\\components\\softdevice\\common\\nrf_sdh_soc.c 0x00000000   Number         0  nrf_sdh_soc.o ABSOLUTE
    ..\\..\\..\\..\\..\\..\\external\\fprintf\\nrf_fprintf.c 0x00000000   Number         0  nrf_fprintf.o ABSOLUTE
    ..\\..\\..\\..\\..\\..\\external\\fprintf\\nrf_fprintf_format.c 0x00000000   Number         0  nrf_fprintf_format.o ABSOLUTE
    ..\\..\\..\\..\\..\\..\\external\\segger_rtt\\SEGGER_RTT.c 0x00000000   Number         0  segger_rtt.o ABSOLUTE
    ..\\..\\..\\..\\..\\..\\external\\segger_rtt\\SEGGER_RTT_printf.c 0x00000000   Number         0  segger_rtt_printf.o ABSOLUTE
    ..\\..\\..\\..\\..\\..\\integration\\nrfx\\legacy\\nrf_drv_clock.c 0x00000000   Number         0  nrf_drv_clock.o ABSOLUTE
    ..\\..\\..\\..\\..\\..\\integration\\nrfx\\legacy\\nrf_drv_uart.c 0x00000000   Number         0  nrf_drv_uart.o ABSOLUTE
    ..\\..\\..\\..\\..\\..\\modules\\nrfx\\drivers\\src\\nrfx_clock.c 0x00000000   Number         0  nrfx_clock.o ABSOLUTE
    ..\\..\\..\\..\\..\\..\\modules\\nrfx\\drivers\\src\\nrfx_gpiote.c 0x00000000   Number         0  nrfx_gpiote.o ABSOLUTE
    ..\\..\\..\\..\\..\\..\\modules\\nrfx\\drivers\\src\\nrfx_uart.c 0x00000000   Number         0  nrfx_uart.o ABSOLUTE
    ..\\..\\..\\..\\..\\..\\modules\\nrfx\\drivers\\src\\nrfx_uarte.c 0x00000000   Number         0  nrfx_uarte.o ABSOLUTE
    ..\\..\\..\\..\\..\\..\\modules\\nrfx\\drivers\\src\\prs\\nrfx_prs.c 0x00000000   Number         0  nrfx_prs.o ABSOLUTE
    ..\\..\\..\\..\\..\\..\\modules\\nrfx\\soc\\nrfx_atomic.c 0x00000000   Number         0  nrfx_atomic.o ABSOLUTE
    ..\\..\\..\\main.c                       0x00000000   Number         0  main.o ABSOLUTE
    RTE\Device\nRF52805_xxAA\arm_startup_nrf52805.s 0x00000000   Number         0  arm_startup_nrf52805.o ABSOLUTE
    RTE\Device\nRF52805_xxAA\system_nrf52.c  0x00000000   Number         0  system_nrf52_1.o ABSOLUTE
    RTE\\Device\\nRF52805_xxAA\\system_nrf52.c 0x00000000   Number         0  system_nrf52_1.o ABSOLUTE
    cdrcmple.s                               0x00000000   Number         0  cdrcmple.o ABSOLUTE
    dc.s                                     0x00000000   Number         0  dc.o ABSOLUTE
    handlers.s                               0x00000000   Number         0  handlers.o ABSOLUTE
    init.s                                   0x00000000   Number         0  init.o ABSOLUTE
    RESET                                    0x00026000   Section      512  arm_startup_nrf52805.o(RESET)
    .ARM.Collect$$$$00000000                 0x00026200   Section        0  entry.o(.ARM.Collect$$$$00000000)
    .ARM.Collect$$$$00000001                 0x00026200   Section        4  entry2.o(.ARM.Collect$$$$00000001)
    .ARM.Collect$$$$00000004                 0x00026204   Section        4  entry5.o(.ARM.Collect$$$$00000004)
    .ARM.Collect$$$$00000008                 0x00026208   Section        0  entry7b.o(.ARM.Collect$$$$00000008)
    .ARM.Collect$$$$0000000A                 0x00026208   Section        0  entry8b.o(.ARM.Collect$$$$0000000A)
    .ARM.Collect$$$$0000000B                 0x00026208   Section        8  entry9a.o(.ARM.Collect$$$$0000000B)
    .ARM.Collect$$$$0000000D                 0x00026210   Section        0  entry10a.o(.ARM.Collect$$$$0000000D)
    .ARM.Collect$$$$0000000F                 0x00026210   Section        0  entry11a.o(.ARM.Collect$$$$0000000F)
    .ARM.Collect$$$$00002712                 0x00026210   Section        4  entry2.o(.ARM.Collect$$$$00002712)
    __lit__00000000                          0x00026210   Data           4  entry2.o(.ARM.Collect$$$$00002712)
    .emb_text                                0x00026214   Section      200  nrf_atfifo.o(.emb_text)
    .emb_text                                0x000262dc   Section      226  nrf_atomic.o(.emb_text)
    .text                                    0x000263c0   Section       36  arm_startup_nrf52805.o(.text)
    .text                                    0x000263e4   Section        0  llshl.o(.text)
    .text                                    0x00026404   Section        0  ctype_o.o(.text)
    .text                                    0x0002640c   Section        0  memcpya.o(.text)
    .text                                    0x00026430   Section        0  memseta.o(.text)
    .text                                    0x00026454   Section        0  strlen.o(.text)
    .text                                    0x00026462   Section        0  memcmp.o(.text)
    .text                                    0x0002647c   Section        0  strcpy.o(.text)
    .text                                    0x00026490   Section       36  init.o(.text)
    .text                                    0x000264b4   Section        0  __dczerorl2.o(.text)
    i.GPIOTE_IRQHandler                      0x0002650c   Section        0  nrfx_gpiote.o(i.GPIOTE_IRQHandler)
    i.POWER_CLOCK_IRQHandler                 0x000265c8   Section        0  nrfx_clock.o(i.POWER_CLOCK_IRQHandler)
    i.RTC1_IRQHandler                        0x00026610   Section        0  drv_rtc.o(i.RTC1_IRQHandler)
    i.SEGGER_RTT_Init                        0x00026628   Section        0  segger_rtt.o(i.SEGGER_RTT_Init)
    i.SEGGER_RTT_WriteNoLock                 0x00026630   Section        0  segger_rtt.o(i.SEGGER_RTT_WriteNoLock)
    i.SWI2_IRQHandler                        0x000266b4   Section        0  nrf_sdh.o(i.SWI2_IRQHandler)
    i.SystemCoreClockUpdate                  0x000266bc   Section        0  system_nrf52_1.o(i.SystemCoreClockUpdate)
    i.SystemInit                             0x000266cc   Section        0  system_nrf52_1.o(i.SystemInit)
    i.UARTE0_UART0_IRQHandler                0x00026938   Section        0  nrfx_prs.o(i.UARTE0_UART0_IRQHandler)
    i._DoInit                                0x00026948   Section        0  segger_rtt.o(i._DoInit)
    _DoInit                                  0x00026949   Thumb Code    74  segger_rtt.o(i._DoInit)
    i._GetAvailWriteSpace                    0x000269b8   Section        0  segger_rtt.o(i._GetAvailWriteSpace)
    _GetAvailWriteSpace                      0x000269b9   Thumb Code    28  segger_rtt.o(i._GetAvailWriteSpace)
    i._WriteBlocking                         0x000269d4   Section        0  segger_rtt.o(i._WriteBlocking)
    _WriteBlocking                           0x000269d5   Thumb Code   114  segger_rtt.o(i._WriteBlocking)
    i._WriteNoCheck                          0x00026a46   Section        0  segger_rtt.o(i._WriteNoCheck)
    _WriteNoCheck                            0x00026a47   Thumb Code    76  segger_rtt.o(i._WriteNoCheck)
    i.__0printf$bare                         0x00026a94   Section        0  printfb.o(i.__0printf$bare)
    i.__scatterload_copy                     0x00026aa4   Section       14  handlers.o(i.__scatterload_copy)
    i.__scatterload_null                     0x00026ab2   Section        2  handlers.o(i.__scatterload_null)
    i.__scatterload_zeroinit                 0x00026ab4   Section       14  handlers.o(i.__scatterload_zeroinit)
    i.__sd_nvic_app_accessible_irq           0x00026ac4   Section        0  nrf_sdh.o(i.__sd_nvic_app_accessible_irq)
    __sd_nvic_app_accessible_irq             0x00026ac5   Thumb Code    52  nrf_sdh.o(i.__sd_nvic_app_accessible_irq)
    i.__sd_nvic_irq_disable                  0x00026afc   Section        0  app_util_platform.o(i.__sd_nvic_irq_disable)
    __sd_nvic_irq_disable                    0x00026afd   Thumb Code    12  app_util_platform.o(i.__sd_nvic_irq_disable)
    i._printf_core                           0x00026b08   Section        0  printfb.o(i._printf_core)
    _printf_core                             0x00026b09   Thumb Code    34  printfb.o(i._printf_core)
    i.adv_uuid_compare                       0x00026b2a   Section        0  nrf_ble_scan.o(i.adv_uuid_compare)
    adv_uuid_compare                         0x00026b2b   Thumb Code    96  nrf_ble_scan.o(i.adv_uuid_compare)
    i.advertising_buttons_configure          0x00026b8a   Section        0  bsp_btn_ble.o(i.advertising_buttons_configure)
    advertising_buttons_configure            0x00026b8b   Thumb Code    84  bsp_btn_ble.o(i.advertising_buttons_configure)
    i.app_button_enable                      0x00026be0   Section        0  app_button.o(i.app_button_enable)
    i.app_button_init                        0x00026c0c   Section        0  app_button.o(i.app_button_init)
    i.app_error_fault_handler                0x00026cbc   Section        0  app_error_weak.o(i.app_error_fault_handler)
    i.app_error_handler_bare                 0x00026d78   Section        0  app_error.o(i.app_error_handler_bare)
    i.app_fifo_get                           0x00026d94   Section        0  app_fifo.o(i.app_fifo_get)
    i.app_fifo_init                          0x00026db2   Section        0  app_fifo.o(i.app_fifo_init)
    i.app_fifo_put                           0x00026dd6   Section        0  app_fifo.o(i.app_fifo_put)
    i.app_timer_cnt_get                      0x00026df8   Section        0  app_timer2.o(i.app_timer_cnt_get)
    i.app_timer_create                       0x00026e08   Section        0  app_timer2.o(i.app_timer_create)
    i.app_timer_init                         0x00026e28   Section        0  app_timer2.o(i.app_timer_init)
    i.app_timer_start                        0x00026e94   Section        0  app_timer2.o(i.app_timer_start)
    i.app_timer_stop                         0x00026eca   Section        0  app_timer2.o(i.app_timer_stop)
    i.app_uart_get                           0x00026ee0   Section        0  app_uart_fifo.o(i.app_uart_get)
    i.app_uart_init                          0x00026f34   Section        0  app_uart_fifo.o(i.app_uart_init)
    i.app_uart_put                           0x00027010   Section        0  app_uart_fifo.o(i.app_uart_put)
    i.app_util_critical_region_enter         0x0002707c   Section        0  app_util_platform.o(i.app_util_critical_region_enter)
    i.app_util_critical_region_exit          0x00027088   Section        0  app_util_platform.o(i.app_util_critical_region_exit)
    i.apply_config                           0x000270d0   Section        0  nrfx_uart.o(i.apply_config)
    apply_config                             0x000270d1   Thumb Code   124  nrfx_uart.o(i.apply_config)
    i.apply_config                           0x0002714c   Section        0  nrfx_uarte.o(i.apply_config)
    apply_config                             0x0002714d   Thumb Code   124  nrfx_uarte.o(i.apply_config)
    i.backend_id_assign                      0x000271c8   Section        0  nrf_log_frontend.o(i.backend_id_assign)
    backend_id_assign                        0x000271c9   Thumb Code    56  nrf_log_frontend.o(i.backend_id_assign)
    i.ble_advdata_search                     0x00027204   Section        0  ble_advdata.o(i.ble_advdata_search)
    i.ble_advdata_uuid_find                  0x00027260   Section        0  ble_advdata.o(i.ble_advdata_uuid_find)
    i.ble_db_discovery_evt_register          0x00027330   Section        0  ble_db_discovery.o(i.ble_db_discovery_evt_register)
    i.ble_db_discovery_init                  0x00027364   Section        0  ble_db_discovery.o(i.ble_db_discovery_init)
    i.ble_db_discovery_on_ble_evt            0x000273b8   Section        0  ble_db_discovery.o(i.ble_db_discovery_on_ble_evt)
    i.ble_db_discovery_start                 0x00027428   Section        0  ble_db_discovery.o(i.ble_db_discovery_start)
    i.ble_evt_handler                        0x00027470   Section        0  main.o(i.ble_evt_handler)
    ble_evt_handler                          0x00027471   Thumb Code   350  main.o(i.ble_evt_handler)
    i.ble_evt_handler                        0x00027630   Section        0  bsp_btn_ble.o(i.ble_evt_handler)
    ble_evt_handler                          0x00027631   Thumb Code   112  bsp_btn_ble.o(i.ble_evt_handler)
    i.ble_nus_c_evt_handler                  0x000276a8   Section        0  main.o(i.ble_nus_c_evt_handler)
    ble_nus_c_evt_handler                    0x000276a9   Thumb Code   164  main.o(i.ble_nus_c_evt_handler)
    i.ble_nus_c_handles_assign               0x000277a8   Section        0  ble_nus_c.o(i.ble_nus_c_handles_assign)
    i.ble_nus_c_init                         0x000277d4   Section        0  ble_nus_c.o(i.ble_nus_c_init)
    i.ble_nus_c_on_ble_evt                   0x0002784c   Section        0  ble_nus_c.o(i.ble_nus_c_on_ble_evt)
    i.ble_nus_c_on_db_disc_evt               0x000278b2   Section        0  ble_nus_c.o(i.ble_nus_c_on_db_disc_evt)
    i.ble_nus_c_string_send                  0x00027948   Section        0  ble_nus_c.o(i.ble_nus_c_string_send)
    i.ble_nus_c_tx_notif_enable              0x00027a18   Section        0  ble_nus_c.o(i.ble_nus_c_tx_notif_enable)
    i.ble_nus_chars_received_uart_print      0x00027a44   Section        0  main.o(i.ble_nus_chars_received_uart_print)
    ble_nus_chars_received_uart_print        0x00027a45   Thumb Code   106  main.o(i.ble_nus_chars_received_uart_print)
    i.ble_stack_init                         0x00027ae0   Section        0  main.o(i.ble_stack_init)
    ble_stack_init                           0x00027ae1   Thumb Code    86  main.o(i.ble_stack_init)
    i.bsp_board_button_idx_to_pin            0x00027b38   Section        0  boards.o(i.bsp_board_button_idx_to_pin)
    i.bsp_board_button_state_get             0x00027b44   Section        0  boards.o(i.bsp_board_button_state_get)
    i.bsp_board_pin_to_button_idx            0x00027b74   Section        0  boards.o(i.bsp_board_pin_to_button_idx)
    i.bsp_btn_ble_init                       0x00027b98   Section        0  bsp_btn_ble.o(i.bsp_btn_ble_init)
    i.bsp_btn_ble_sleep_mode_prepare         0x00027bc4   Section        0  bsp_btn_ble.o(i.bsp_btn_ble_sleep_mode_prepare)
    i.bsp_button_event_handler               0x00027bf8   Section        0  bsp.o(i.bsp_button_event_handler)
    bsp_button_event_handler                 0x00027bf9   Thumb Code   176  bsp.o(i.bsp_button_event_handler)
    i.bsp_button_is_pressed                  0x00027cbc   Section        0  bsp.o(i.bsp_button_is_pressed)
    i.bsp_event_handler                      0x00027cd0   Section        0  main.o(i.bsp_event_handler)
    i.bsp_event_to_button_action_assign      0x00027d10   Section        0  bsp.o(i.bsp_event_to_button_action_assign)
    i.bsp_indication_set                     0x00027d6c   Section        0  bsp.o(i.bsp_indication_set)
    i.bsp_init                               0x00027d74   Section        0  bsp.o(i.bsp_init)
    i.bsp_wakeup_button_enable               0x00027de0   Section        0  bsp.o(i.bsp_wakeup_button_enable)
    i.buf_prealloc                           0x00027df0   Section        0  nrf_log_frontend.o(i.buf_prealloc)
    buf_prealloc                             0x00027df1   Thumb Code   220  nrf_log_frontend.o(i.buf_prealloc)
    i.buffer_add                             0x00027ed8   Section        0  nrf_fprintf_format.o(i.buffer_add)
    buffer_add                               0x00027ed9   Thumb Code    44  nrf_fprintf_format.o(i.buffer_add)
    i.buffer_is_empty                        0x00027f04   Section        0  nrf_log_frontend.o(i.buffer_is_empty)
    i.button_get                             0x00027f1c   Section        0  app_button.o(i.button_get)
    button_get                               0x00027f1d   Thumb Code    36  app_button.o(i.button_get)
    i.button_timer_handler                   0x00027f48   Section        0  bsp.o(i.button_timer_handler)
    button_timer_handler                     0x00027f49   Thumb Code    14  bsp.o(i.button_timer_handler)
    i.buttons_leds_init                      0x00027f58   Section        0  main.o(i.buttons_leds_init)
    buttons_leds_init                        0x00027f59   Thumb Code    60  main.o(i.buttons_leds_init)
    i.cccd_configure                         0x00027f98   Section        0  ble_nus_c.o(i.cccd_configure)
    cccd_configure                           0x00027f99   Thumb Code    90  ble_nus_c.o(i.cccd_configure)
    i.channel_free                           0x00027ff8   Section        0  nrfx_gpiote.o(i.channel_free)
    channel_free                             0x00027ff9   Thumb Code    26  nrfx_gpiote.o(i.channel_free)
    i.channel_handler_get                    0x00028018   Section        0  nrfx_gpiote.o(i.channel_handler_get)
    channel_handler_get                      0x00028019   Thumb Code    10  nrfx_gpiote.o(i.channel_handler_get)
    i.channel_port_alloc                     0x00028028   Section        0  nrfx_gpiote.o(i.channel_port_alloc)
    channel_port_alloc                       0x00028029   Thumb Code   122  nrfx_gpiote.o(i.channel_port_alloc)
    i.channel_port_get                       0x000280a8   Section        0  nrfx_gpiote.o(i.channel_port_get)
    channel_port_get                         0x000280a9   Thumb Code     8  nrfx_gpiote.o(i.channel_port_get)
    i.characteristics_discover               0x000280b4   Section        0  ble_db_discovery.o(i.characteristics_discover)
    characteristics_discover                 0x000280b5   Thumb Code   134  ble_db_discovery.o(i.characteristics_discover)
    i.clock_clk_started_notify               0x00028144   Section        0  nrf_drv_clock.o(i.clock_clk_started_notify)
    clock_clk_started_notify                 0x00028145   Thumb Code    42  nrf_drv_clock.o(i.clock_clk_started_notify)
    i.clock_irq_handler                      0x00028174   Section        0  nrf_drv_clock.o(i.clock_irq_handler)
    clock_irq_handler                        0x00028175   Thumb Code    34  nrf_drv_clock.o(i.clock_irq_handler)
    i.compare_func                           0x0002819c   Section        0  app_timer2.o(i.compare_func)
    compare_func                             0x0002819d   Thumb Code    38  app_timer2.o(i.compare_func)
    i.conn_handle_id_find                    0x000281c2   Section        0  nrf_ble_gq.o(i.conn_handle_id_find)
    conn_handle_id_find                      0x000281c3   Thumb Code    32  nrf_ble_gq.o(i.conn_handle_id_find)
    i.conn_handle_register                   0x000281e2   Section        0  nrf_ble_gq.o(i.conn_handle_register)
    conn_handle_register                     0x000281e3   Thumb Code    48  nrf_ble_gq.o(i.conn_handle_register)
    i.connection_buttons_configure           0x00028212   Section        0  bsp_btn_ble.o(i.connection_buttons_configure)
    connection_buttons_configure             0x00028213   Thumb Code    84  bsp_btn_ble.o(i.connection_buttons_configure)
    i.data_length_update                     0x00028268   Section        0  nrf_ble_gatt.o(i.data_length_update)
    data_length_update                       0x00028269   Thumb Code   150  nrf_ble_gatt.o(i.data_length_update)
    i.db_disc_handler                        0x00028350   Section        0  main.o(i.db_disc_handler)
    db_disc_handler                          0x00028351   Thumb Code    14  main.o(i.db_disc_handler)
    i.db_discovery_init                      0x00028364   Section        0  main.o(i.db_discovery_init)
    db_discovery_init                        0x00028365   Thumb Code    44  main.o(i.db_discovery_init)
    i.descriptors_discover                   0x00028398   Section        0  ble_db_discovery.o(i.descriptors_discover)
    descriptors_discover                     0x00028399   Thumb Code   216  ble_db_discovery.o(i.descriptors_discover)
    i.detection_delay_timeout_handler        0x00028478   Section        0  app_button.o(i.detection_delay_timeout_handler)
    detection_delay_timeout_handler          0x00028479   Thumb Code    84  app_button.o(i.detection_delay_timeout_handler)
    i.discovery_available_evt_trigger        0x000284d8   Section        0  ble_db_discovery.o(i.discovery_available_evt_trigger)
    discovery_available_evt_trigger          0x000284d9   Thumb Code    46  ble_db_discovery.o(i.discovery_available_evt_trigger)
    i.discovery_complete_evt_trigger         0x0002850c   Section        0  ble_db_discovery.o(i.discovery_complete_evt_trigger)
    discovery_complete_evt_trigger           0x0002850d   Thumb Code   162  ble_db_discovery.o(i.discovery_complete_evt_trigger)
    i.discovery_error_evt_trigger            0x000285b4   Section        0  ble_db_discovery.o(i.discovery_error_evt_trigger)
    discovery_error_evt_trigger              0x000285b5   Thumb Code    66  ble_db_discovery.o(i.discovery_error_evt_trigger)
    i.discovery_error_handler                0x000285fc   Section        0  ble_db_discovery.o(i.discovery_error_handler)
    discovery_error_handler                  0x000285fd   Thumb Code    40  ble_db_discovery.o(i.discovery_error_handler)
    i.discovery_start                        0x00028624   Section        0  ble_db_discovery.o(i.discovery_start)
    discovery_start                          0x00028625   Thumb Code   152  ble_db_discovery.o(i.discovery_start)
    i.dropped_sat16_get                      0x000286c8   Section        0  nrf_log_frontend.o(i.dropped_sat16_get)
    dropped_sat16_get                        0x000286c9   Thumb Code    18  nrf_log_frontend.o(i.dropped_sat16_get)
    i.drv_rtc_compare_disable                0x000286e0   Section        0  drv_rtc.o(i.drv_rtc_compare_disable)
    i.drv_rtc_compare_pending                0x000286f6   Section        0  drv_rtc.o(i.drv_rtc_compare_pending)
    i.drv_rtc_compare_set                    0x00028710   Section        0  drv_rtc.o(i.drv_rtc_compare_set)
    i.drv_rtc_counter_get                    0x0002876c   Section        0  drv_rtc.o(i.drv_rtc_counter_get)
    i.drv_rtc_init                           0x00028778   Section        0  drv_rtc.o(i.drv_rtc_init)
    i.drv_rtc_irq_trigger                    0x000288a0   Section        0  drv_rtc.o(i.drv_rtc_irq_trigger)
    i.drv_rtc_overflow_enable                0x000288c4   Section        0  drv_rtc.o(i.drv_rtc_overflow_enable)
    i.drv_rtc_overflow_pending               0x000288d6   Section        0  drv_rtc.o(i.drv_rtc_overflow_pending)
    i.drv_rtc_start                          0x000288e6   Section        0  drv_rtc.o(i.drv_rtc_start)
    i.drv_rtc_stop                           0x000288f4   Section        0  drv_rtc.o(i.drv_rtc_stop)
    i.drv_rtc_windowed_compare_set           0x00028902   Section        0  drv_rtc.o(i.drv_rtc_windowed_compare_set)
    i.evt_disable                            0x000289fe   Section        0  drv_rtc.o(i.evt_disable)
    evt_disable                              0x000289ff   Thumb Code    24  drv_rtc.o(i.evt_disable)
    i.evt_enable                             0x00028a16   Section        0  drv_rtc.o(i.evt_enable)
    evt_enable                               0x00028a17   Thumb Code    28  drv_rtc.o(i.evt_enable)
    i.evt_handle                             0x00028a34   Section        0  app_button.o(i.evt_handle)
    i.evt_pending                            0x00028b24   Section        0  drv_rtc.o(i.evt_pending)
    evt_pending                              0x00028b25   Thumb Code    28  drv_rtc.o(i.evt_pending)
    i.fifo_get                               0x00028b40   Section        0  app_fifo.o(i.fifo_get)
    fifo_get                                 0x00028b41   Thumb Code    24  app_fifo.o(i.fifo_get)
    i.fifo_length                            0x00028b58   Section        0  app_fifo.o(i.fifo_length)
    fifo_length                              0x00028b59   Thumb Code    10  app_fifo.o(i.fifo_length)
    i.fifo_length                            0x00028b62   Section        0  app_uart_fifo.o(i.fifo_length)
    fifo_length                              0x00028b63   Thumb Code    10  app_uart_fifo.o(i.fifo_length)
    i.fifo_peek                              0x00028b6c   Section        0  app_fifo.o(i.fifo_peek)
    fifo_peek                                0x00028b6d   Thumb Code    18  app_fifo.o(i.fifo_peek)
    i.fifo_put                               0x00028b7e   Section        0  app_fifo.o(i.fifo_put)
    fifo_put                                 0x00028b7f   Thumb Code    18  app_fifo.o(i.fifo_put)
    i.fputc                                  0x00028b90   Section        0  retarget.o(i.fputc)
    i.gatt_error_handler                     0x00028ba0   Section        0  ble_nus_c.o(i.gatt_error_handler)
    gatt_error_handler                       0x00028ba1   Thumb Code    26  ble_nus_c.o(i.gatt_error_handler)
    i.gatt_evt_handler                       0x00028bbc   Section        0  main.o(i.gatt_evt_handler)
    i.gatt_init                              0x00028c54   Section        0  main.o(i.gatt_init)
    i.gattc_write_alloc                      0x00028c98   Section        0  nrf_ble_gq.o(i.gattc_write_alloc)
    gattc_write_alloc                        0x00028c99   Thumb Code    54  nrf_ble_gq.o(i.gattc_write_alloc)
    i.gatts_hvx_alloc                        0x00028cce   Section        0  nrf_ble_gq.o(i.gatts_hvx_alloc)
    gatts_hvx_alloc                          0x00028ccf   Thumb Code    74  nrf_ble_gq.o(i.gatts_hvx_alloc)
    i.get_now                                0x00028d18   Section        0  app_timer2.o(i.get_now)
    get_now                                  0x00028d19   Thumb Code    46  app_timer2.o(i.get_now)
    i.gpiote_event_handler                   0x00028d54   Section        0  app_button.o(i.gpiote_event_handler)
    gpiote_event_handler                     0x00028d55   Thumb Code    66  app_button.o(i.gpiote_event_handler)
    i.idle_state_handle                      0x00028d9c   Section        0  main.o(i.idle_state_handle)
    idle_state_handle                        0x00028d9d   Thumb Code    14  main.o(i.idle_state_handle)
    i.int_print                              0x00028daa   Section        0  nrf_fprintf_format.o(i.int_print)
    int_print                                0x00028dab   Thumb Code   190  nrf_fprintf_format.o(i.int_print)
    i.interrupts_enable                      0x00028e68   Section        0  nrfx_uart.o(i.interrupts_enable)
    interrupts_enable                        0x00028e69   Thumb Code   136  nrfx_uart.o(i.interrupts_enable)
    i.interrupts_enable                      0x00028efc   Section        0  nrfx_uarte.o(i.interrupts_enable)
    interrupts_enable                        0x00028efd   Thumb Code   166  nrfx_uarte.o(i.interrupts_enable)
    i.invalid_packets_omit                   0x00028fb0   Section        0  nrf_log_frontend.o(i.invalid_packets_omit)
    invalid_packets_omit                     0x00028fb1   Thumb Code    70  nrf_log_frontend.o(i.invalid_packets_omit)
    i.is_any_conn_handle_registered          0x00028ff6   Section        0  nrf_ble_gq.o(i.is_any_conn_handle_registered)
    is_any_conn_handle_registered            0x00028ff7   Thumb Code    38  nrf_ble_gq.o(i.is_any_conn_handle_registered)
    i.is_char_discovery_reqd                 0x0002901c   Section        0  ble_db_discovery.o(i.is_char_discovery_reqd)
    is_char_discovery_reqd                   0x0002901d   Thumb Code    36  ble_db_discovery.o(i.is_char_discovery_reqd)
    i.is_desc_discovery_reqd                 0x00029040   Section        0  ble_db_discovery.o(i.is_desc_discovery_reqd)
    is_desc_discovery_reqd                   0x00029041   Thumb Code    94  ble_db_discovery.o(i.is_desc_discovery_reqd)
    i.is_whitelist_used                      0x0002909e   Section        0  nrf_ble_scan.o(i.is_whitelist_used)
    i.item_dequeue                           0x000290bc   Section        0  nrf_drv_clock.o(i.item_dequeue)
    item_dequeue                             0x000290bd   Thumb Code    12  nrf_drv_clock.o(i.item_dequeue)
    i.latch_pending_read_and_check           0x000290c8   Section        0  nrfx_gpiote.o(i.latch_pending_read_and_check)
    latch_pending_read_and_check             0x000290c9   Thumb Code    38  nrfx_gpiote.o(i.latch_pending_read_and_check)
    i.lfclk_stop                             0x000290f0   Section        0  nrf_drv_clock.o(i.lfclk_stop)
    lfclk_stop                               0x000290f1   Thumb Code    20  nrf_drv_clock.o(i.lfclk_stop)
    i.link_init                              0x00029108   Section        0  nrf_ble_gatt.o(i.link_init)
    link_init                                0x00029109   Thumb Code    24  nrf_ble_gatt.o(i.link_init)
    i.log_init                               0x00029120   Section        0  main.o(i.log_init)
    log_init                                 0x00029121   Thumb Code    38  main.o(i.log_init)
    i.log_skip                               0x00029148   Section        0  nrf_log_frontend.o(i.log_skip)
    log_skip                                 0x00029149   Thumb Code   190  nrf_log_frontend.o(i.log_skip)
    i.main                                   0x00029214   Section        0  main.o(i.main)
    i.memobj_op                              0x000292b4   Section        0  nrf_memobj.o(i.memobj_op)
    memobj_op                                0x000292b5   Thumb Code   202  nrf_memobj.o(i.memobj_op)
    i.module_idx_get                         0x00029380   Section        0  nrf_log_frontend.o(i.module_idx_get)
    module_idx_get                           0x00029381   Thumb Code    52  nrf_log_frontend.o(i.module_idx_get)
    i.nrf52_errata_108                       0x000293b8   Section        0  system_nrf52_1.o(i.nrf52_errata_108)
    nrf52_errata_108                         0x000293b9   Thumb Code    84  system_nrf52_1.o(i.nrf52_errata_108)
    i.nrf52_errata_12                        0x00029414   Section        0  system_nrf52_1.o(i.nrf52_errata_12)
    nrf52_errata_12                          0x00029415   Thumb Code    84  system_nrf52_1.o(i.nrf52_errata_12)
    i.nrf52_errata_136                       0x00029470   Section        0  system_nrf52_1.o(i.nrf52_errata_136)
    nrf52_errata_136                         0x00029471   Thumb Code    98  system_nrf52_1.o(i.nrf52_errata_136)
    i.nrf52_errata_16                        0x000294dc   Section        0  system_nrf52_1.o(i.nrf52_errata_16)
    nrf52_errata_16                          0x000294dd   Thumb Code    62  system_nrf52_1.o(i.nrf52_errata_16)
    i.nrf52_errata_182                       0x00029520   Section        0  system_nrf52_1.o(i.nrf52_errata_182)
    nrf52_errata_182                         0x00029521   Thumb Code    60  system_nrf52_1.o(i.nrf52_errata_182)
    i.nrf52_errata_217                       0x00029560   Section        0  system_nrf52_1.o(i.nrf52_errata_217)
    nrf52_errata_217                         0x00029561   Thumb Code    30  system_nrf52_1.o(i.nrf52_errata_217)
    i.nrf52_errata_249                       0x00029584   Section        0  system_nrf52_1.o(i.nrf52_errata_249)
    nrf52_errata_249                         0x00029585   Thumb Code    60  system_nrf52_1.o(i.nrf52_errata_249)
    i.nrf52_errata_31                        0x000295c4   Section        0  system_nrf52_1.o(i.nrf52_errata_31)
    nrf52_errata_31                          0x000295c5   Thumb Code    98  system_nrf52_1.o(i.nrf52_errata_31)
    i.nrf52_errata_32                        0x00029630   Section        0  system_nrf52_1.o(i.nrf52_errata_32)
    nrf52_errata_32                          0x00029631   Thumb Code    62  system_nrf52_1.o(i.nrf52_errata_32)
    i.nrf52_errata_36                        0x00029674   Section        0  system_nrf52_1.o(i.nrf52_errata_36)
    nrf52_errata_36                          0x00029675   Thumb Code    98  system_nrf52_1.o(i.nrf52_errata_36)
    i.nrf52_errata_37                        0x000296e0   Section        0  system_nrf52_1.o(i.nrf52_errata_37)
    nrf52_errata_37                          0x000296e1   Thumb Code    62  system_nrf52_1.o(i.nrf52_errata_37)
    i.nrf52_errata_57                        0x00029724   Section        0  system_nrf52_1.o(i.nrf52_errata_57)
    nrf52_errata_57                          0x00029725   Thumb Code    62  system_nrf52_1.o(i.nrf52_errata_57)
    i.nrf52_errata_66                        0x00029768   Section        0  system_nrf52_1.o(i.nrf52_errata_66)
    nrf52_errata_66                          0x00029769   Thumb Code    98  system_nrf52_1.o(i.nrf52_errata_66)
    i.nrf_atfifo_init                        0x000297d4   Section        0  nrf_atfifo.o(i.nrf_atfifo_init)
    i.nrf_atfifo_item_alloc                  0x000297fc   Section        0  nrf_atfifo.o(i.nrf_atfifo_item_alloc)
    i.nrf_atfifo_item_free                   0x00029818   Section        0  nrf_atfifo.o(i.nrf_atfifo_item_free)
    i.nrf_atfifo_item_get                    0x00029834   Section        0  nrf_atfifo.o(i.nrf_atfifo_item_get)
    i.nrf_atfifo_item_put                    0x00029850   Section        0  nrf_atfifo.o(i.nrf_atfifo_item_put)
    i.nrf_atomic_flag_clear_fetch            0x0002986c   Section        0  nrf_atomic.o(i.nrf_atomic_flag_clear_fetch)
    i.nrf_atomic_flag_set                    0x0002987a   Section        0  nrf_atomic.o(i.nrf_atomic_flag_set)
    i.nrf_atomic_u32_add                     0x00029888   Section        0  nrf_atomic.o(i.nrf_atomic_u32_add)
    i.nrf_atomic_u32_fetch_and               0x0002989e   Section        0  nrf_atomic.o(i.nrf_atomic_u32_fetch_and)
    i.nrf_atomic_u32_fetch_store             0x000298b4   Section        0  nrf_atomic.o(i.nrf_atomic_u32_fetch_store)
    i.nrf_atomic_u32_or                      0x000298ca   Section        0  nrf_atomic.o(i.nrf_atomic_u32_or)
    i.nrf_atomic_u32_sub                     0x000298e0   Section        0  nrf_atomic.o(i.nrf_atomic_u32_sub)
    i.nrf_balloc_alloc                       0x000298f6   Section        0  nrf_balloc.o(i.nrf_balloc_alloc)
    i.nrf_balloc_block2idx                   0x00029948   Section        0  nrf_balloc.o(i.nrf_balloc_block2idx)
    nrf_balloc_block2idx                     0x00029949   Thumb Code    16  nrf_balloc.o(i.nrf_balloc_block2idx)
    i.nrf_balloc_free                        0x00029958   Section        0  nrf_balloc.o(i.nrf_balloc_free)
    i.nrf_balloc_idx2block                   0x00029988   Section        0  nrf_balloc.o(i.nrf_balloc_idx2block)
    nrf_balloc_idx2block                     0x00029989   Thumb Code    12  nrf_balloc.o(i.nrf_balloc_idx2block)
    i.nrf_balloc_init                        0x00029994   Section        0  nrf_balloc.o(i.nrf_balloc_init)
    i.nrf_bitmask_bit_is_set                 0x000299d0   Section        0  nrfx_gpiote.o(i.nrf_bitmask_bit_is_set)
    nrf_bitmask_bit_is_set                   0x000299d1   Thumb Code    22  nrfx_gpiote.o(i.nrf_bitmask_bit_is_set)
    i.nrf_ble_gatt_att_mtu_central_set       0x000299e6   Section        0  nrf_ble_gatt.o(i.nrf_ble_gatt_att_mtu_central_set)
    i.nrf_ble_gatt_init                      0x00029a04   Section        0  nrf_ble_gatt.o(i.nrf_ble_gatt_init)
    i.nrf_ble_gatt_on_ble_evt                0x00029a38   Section        0  nrf_ble_gatt.o(i.nrf_ble_gatt_on_ble_evt)
    i.nrf_ble_gq_conn_handle_register        0x00029b40   Section        0  nrf_ble_gq.o(i.nrf_ble_gq_conn_handle_register)
    i.nrf_ble_gq_item_add                    0x00029b94   Section        0  nrf_ble_gq.o(i.nrf_ble_gq_item_add)
    i.nrf_ble_gq_on_ble_evt                  0x00029c68   Section        0  nrf_ble_gq.o(i.nrf_ble_gq_on_ble_evt)
    i.nrf_ble_scan_connect_with_target       0x00029cee   Section        0  nrf_ble_scan.o(i.nrf_ble_scan_connect_with_target)
    nrf_ble_scan_connect_with_target         0x00029cef   Thumb Code    82  nrf_ble_scan.o(i.nrf_ble_scan_connect_with_target)
    i.nrf_ble_scan_default_conn_param_set    0x00029d40   Section        0  nrf_ble_scan.o(i.nrf_ble_scan_default_conn_param_set)
    nrf_ble_scan_default_conn_param_set      0x00029d41   Thumb Code    20  nrf_ble_scan.o(i.nrf_ble_scan_default_conn_param_set)
    i.nrf_ble_scan_default_param_set         0x00029d54   Section        0  nrf_ble_scan.o(i.nrf_ble_scan_default_param_set)
    nrf_ble_scan_default_param_set           0x00029d55   Thumb Code    36  nrf_ble_scan.o(i.nrf_ble_scan_default_param_set)
    i.nrf_ble_scan_filter_set                0x00029d78   Section        0  nrf_ble_scan.o(i.nrf_ble_scan_filter_set)
    i.nrf_ble_scan_filters_disable           0x00029dac   Section        0  nrf_ble_scan.o(i.nrf_ble_scan_filters_disable)
    i.nrf_ble_scan_filters_enable            0x00029dc2   Section        0  nrf_ble_scan.o(i.nrf_ble_scan_filters_enable)
    i.nrf_ble_scan_init                      0x00029e10   Section        0  nrf_ble_scan.o(i.nrf_ble_scan_init)
    i.nrf_ble_scan_on_adv_report             0x00029e88   Section        0  nrf_ble_scan.o(i.nrf_ble_scan_on_adv_report)
    nrf_ble_scan_on_adv_report               0x00029e89   Thumb Code   206  nrf_ble_scan.o(i.nrf_ble_scan_on_adv_report)
    i.nrf_ble_scan_on_ble_evt                0x00029f56   Section        0  nrf_ble_scan.o(i.nrf_ble_scan_on_ble_evt)
    i.nrf_ble_scan_on_connected_evt          0x00029f9c   Section        0  nrf_ble_scan.o(i.nrf_ble_scan_on_connected_evt)
    nrf_ble_scan_on_connected_evt            0x00029f9d   Thumb Code    52  nrf_ble_scan.o(i.nrf_ble_scan_on_connected_evt)
    i.nrf_ble_scan_on_timeout                0x00029fd0   Section        0  nrf_ble_scan.o(i.nrf_ble_scan_on_timeout)
    nrf_ble_scan_on_timeout                  0x00029fd1   Thumb Code    56  nrf_ble_scan.o(i.nrf_ble_scan_on_timeout)
    i.nrf_ble_scan_start                     0x0002a008   Section        0  nrf_ble_scan.o(i.nrf_ble_scan_start)
    i.nrf_ble_scan_stop                      0x0002a09c   Section        0  nrf_ble_scan.o(i.nrf_ble_scan_stop)
    i.nrf_ble_scan_uuid_filter_add           0x0002a0a0   Section        0  nrf_ble_scan.o(i.nrf_ble_scan_uuid_filter_add)
    nrf_ble_scan_uuid_filter_add             0x0002a0a1   Thumb Code    64  nrf_ble_scan.o(i.nrf_ble_scan_uuid_filter_add)
    i.nrf_clock_event_check                  0x0002a0e0   Section        0  nrfx_clock.o(i.nrf_clock_event_check)
    nrf_clock_event_check                    0x0002a0e1   Thumb Code    18  nrfx_clock.o(i.nrf_clock_event_check)
    i.nrf_clock_event_clear                  0x0002a0f2   Section        0  nrfx_clock.o(i.nrf_clock_event_clear)
    nrf_clock_event_clear                    0x0002a0f3   Thumb Code    18  nrfx_clock.o(i.nrf_clock_event_clear)
    i.nrf_clock_int_disable                  0x0002a104   Section        0  nrfx_clock.o(i.nrf_clock_int_disable)
    nrf_clock_int_disable                    0x0002a105   Thumb Code     6  nrfx_clock.o(i.nrf_clock_int_disable)
    i.nrf_clock_task_trigger                 0x0002a110   Section        0  nrfx_clock.o(i.nrf_clock_task_trigger)
    nrf_clock_task_trigger                   0x0002a111   Thumb Code     8  nrfx_clock.o(i.nrf_clock_task_trigger)
    i.nrf_drv_clock_init                     0x0002a118   Section        0  nrf_drv_clock.o(i.nrf_drv_clock_init)
    i.nrf_drv_clock_lfclk_release            0x0002a164   Section        0  nrf_drv_clock.o(i.nrf_drv_clock_lfclk_release)
    i.nrf_drv_uart_init                      0x0002a194   Section        0  nrf_drv_uart.o(i.nrf_drv_uart_init)
    i.nrf_drv_uart_rx                        0x0002a220   Section        0  app_uart_fifo.o(i.nrf_drv_uart_rx)
    nrf_drv_uart_rx                          0x0002a221   Thumb Code    62  app_uart_fifo.o(i.nrf_drv_uart_rx)
    i.nrf_drv_uart_tx                        0x0002a264   Section        0  app_uart_fifo.o(i.nrf_drv_uart_tx)
    nrf_drv_uart_tx                          0x0002a265   Thumb Code    62  app_uart_fifo.o(i.nrf_drv_uart_tx)
    i.nrf_fprintf                            0x0002a2a8   Section        0  nrf_fprintf.o(i.nrf_fprintf)
    i.nrf_fprintf_buffer_flush               0x0002a2d2   Section        0  nrf_fprintf.o(i.nrf_fprintf_buffer_flush)
    i.nrf_fprintf_fmt                        0x0002a2ee   Section        0  nrf_fprintf_format.o(i.nrf_fprintf_fmt)
    i.nrf_gpio_cfg                           0x0002a4de   Section        0  nrfx_gpiote.o(i.nrf_gpio_cfg)
    nrf_gpio_cfg                             0x0002a4df   Thumb Code    40  nrfx_gpiote.o(i.nrf_gpio_cfg)
    i.nrf_gpio_cfg                           0x0002a506   Section        0  nrfx_uart.o(i.nrf_gpio_cfg)
    nrf_gpio_cfg                             0x0002a507   Thumb Code    40  nrfx_uart.o(i.nrf_gpio_cfg)
    i.nrf_gpio_cfg                           0x0002a52e   Section        0  nrfx_uarte.o(i.nrf_gpio_cfg)
    nrf_gpio_cfg                             0x0002a52f   Thumb Code    40  nrfx_uarte.o(i.nrf_gpio_cfg)
    i.nrf_gpio_cfg_input                     0x0002a556   Section        0  nrfx_uart.o(i.nrf_gpio_cfg_input)
    nrf_gpio_cfg_input                       0x0002a557   Thumb Code    26  nrfx_uart.o(i.nrf_gpio_cfg_input)
    i.nrf_gpio_cfg_input                     0x0002a570   Section        0  nrfx_uarte.o(i.nrf_gpio_cfg_input)
    nrf_gpio_cfg_input                       0x0002a571   Thumb Code    26  nrfx_uarte.o(i.nrf_gpio_cfg_input)
    i.nrf_gpio_cfg_output                    0x0002a58a   Section        0  nrfx_uart.o(i.nrf_gpio_cfg_output)
    nrf_gpio_cfg_output                      0x0002a58b   Thumb Code    24  nrfx_uart.o(i.nrf_gpio_cfg_output)
    i.nrf_gpio_cfg_output                    0x0002a5a2   Section        0  nrfx_uarte.o(i.nrf_gpio_cfg_output)
    nrf_gpio_cfg_output                      0x0002a5a3   Thumb Code    24  nrfx_uarte.o(i.nrf_gpio_cfg_output)
    i.nrf_gpio_cfg_sense_set                 0x0002a5ba   Section        0  nrfx_gpiote.o(i.nrf_gpio_cfg_sense_set)
    nrf_gpio_cfg_sense_set                   0x0002a5bb   Thumb Code    50  nrfx_gpiote.o(i.nrf_gpio_cfg_sense_set)
    i.nrf_gpio_latches_read_and_clear        0x0002a5ec   Section        0  nrfx_gpiote.o(i.nrf_gpio_latches_read_and_clear)
    nrf_gpio_latches_read_and_clear          0x0002a5ed   Thumb Code    46  nrfx_gpiote.o(i.nrf_gpio_latches_read_and_clear)
    i.nrf_gpio_pin_present_check             0x0002a620   Section        0  nrfx_gpiote.o(i.nrf_gpio_pin_present_check)
    nrf_gpio_pin_present_check               0x0002a621   Thumb Code    34  nrfx_gpiote.o(i.nrf_gpio_pin_present_check)
    i.nrf_gpio_pin_read                      0x0002a642   Section        0  nrfx_gpiote.o(i.nrf_gpio_pin_read)
    nrf_gpio_pin_read                        0x0002a643   Thumb Code    24  nrfx_gpiote.o(i.nrf_gpio_pin_read)
    i.nrf_gpio_pin_set                       0x0002a65a   Section        0  nrfx_uart.o(i.nrf_gpio_pin_set)
    nrf_gpio_pin_set                         0x0002a65b   Thumb Code    22  nrfx_uart.o(i.nrf_gpio_pin_set)
    i.nrf_gpio_pin_set                       0x0002a670   Section        0  nrfx_uarte.o(i.nrf_gpio_pin_set)
    nrf_gpio_pin_set                         0x0002a671   Thumb Code    22  nrfx_uarte.o(i.nrf_gpio_pin_set)
    i.nrf_gpiote_event_addr_get              0x0002a688   Section        0  nrfx_gpiote.o(i.nrf_gpiote_event_addr_get)
    nrf_gpiote_event_addr_get                0x0002a689   Thumb Code     8  nrfx_gpiote.o(i.nrf_gpiote_event_addr_get)
    i.nrf_gpiote_event_clear                 0x0002a694   Section        0  nrfx_gpiote.o(i.nrf_gpiote_event_clear)
    nrf_gpiote_event_clear                   0x0002a695   Thumb Code    28  nrfx_gpiote.o(i.nrf_gpiote_event_clear)
    i.nrf_gpiote_event_is_set                0x0002a6b0   Section        0  nrfx_gpiote.o(i.nrf_gpiote_event_is_set)
    nrf_gpiote_event_is_set                  0x0002a6b1   Thumb Code    22  nrfx_gpiote.o(i.nrf_gpiote_event_is_set)
    i.nrf_gpiote_int_enable                  0x0002a6c8   Section        0  nrfx_gpiote.o(i.nrf_gpiote_int_enable)
    nrf_gpiote_int_enable                    0x0002a6c9   Thumb Code     6  nrfx_gpiote.o(i.nrf_gpiote_int_enable)
    i.nrf_log_backend_add                    0x0002a6d4   Section        0  nrf_log_frontend.o(i.nrf_log_backend_add)
    i.nrf_log_backend_rtt_flush              0x0002a728   Section        0  nrf_log_backend_rtt.o(i.nrf_log_backend_rtt_flush)
    nrf_log_backend_rtt_flush                0x0002a729   Thumb Code     2  nrf_log_backend_rtt.o(i.nrf_log_backend_rtt_flush)
    i.nrf_log_backend_rtt_init               0x0002a72a   Section        0  nrf_log_backend_rtt.o(i.nrf_log_backend_rtt_init)
    i.nrf_log_backend_rtt_panic_set          0x0002a732   Section        0  nrf_log_backend_rtt.o(i.nrf_log_backend_rtt_panic_set)
    nrf_log_backend_rtt_panic_set            0x0002a733   Thumb Code     2  nrf_log_backend_rtt.o(i.nrf_log_backend_rtt_panic_set)
    i.nrf_log_backend_rtt_put                0x0002a734   Section        0  nrf_log_backend_rtt.o(i.nrf_log_backend_rtt_put)
    nrf_log_backend_rtt_put                  0x0002a735   Thumb Code    24  nrf_log_backend_rtt.o(i.nrf_log_backend_rtt_put)
    i.nrf_log_backend_serial_put             0x0002a754   Section        0  nrf_log_backend_serial.o(i.nrf_log_backend_serial_put)
    i.nrf_log_color_id_get                   0x0002a848   Section        0  nrf_log_frontend.o(i.nrf_log_color_id_get)
    i.nrf_log_default_backends_init          0x0002a880   Section        0  nrf_log_default_backends.o(i.nrf_log_default_backends_init)
    i.nrf_log_frontend_dequeue               0x0002a8a8   Section        0  nrf_log_frontend.o(i.nrf_log_frontend_dequeue)
    i.nrf_log_frontend_std_0                 0x0002abc4   Section        0  nrf_log_frontend.o(i.nrf_log_frontend_std_0)
    i.nrf_log_frontend_std_1                 0x0002abd8   Section        0  nrf_log_frontend.o(i.nrf_log_frontend_std_1)
    i.nrf_log_frontend_std_2                 0x0002abf0   Section        0  nrf_log_frontend.o(i.nrf_log_frontend_std_2)
    i.nrf_log_frontend_std_3                 0x0002ac10   Section        0  nrf_log_frontend.o(i.nrf_log_frontend_std_3)
    i.nrf_log_frontend_std_6                 0x0002ac38   Section        0  nrf_log_frontend.o(i.nrf_log_frontend_std_6)
    i.nrf_log_hexdump_entry_process          0x0002ac74   Section        0  nrf_log_str_formatter.o(i.nrf_log_hexdump_entry_process)
    i.nrf_log_init                           0x0002ad30   Section        0  nrf_log_frontend.o(i.nrf_log_init)
    i.nrf_log_module_cnt_get                 0x0002ad78   Section        0  nrf_log_frontend.o(i.nrf_log_module_cnt_get)
    i.nrf_log_module_name_get                0x0002ad8c   Section        0  nrf_log_frontend.o(i.nrf_log_module_name_get)
    i.nrf_log_panic                          0x0002adb0   Section        0  nrf_log_frontend.o(i.nrf_log_panic)
    i.nrf_log_std_entry_process              0x0002ade4   Section        0  nrf_log_str_formatter.o(i.nrf_log_std_entry_process)
    i.nrf_memobj_alloc                       0x0002aeac   Section        0  nrf_memobj.o(i.nrf_memobj_alloc)
    i.nrf_memobj_free                        0x0002af26   Section        0  nrf_memobj.o(i.nrf_memobj_free)
    i.nrf_memobj_get                         0x0002af66   Section        0  nrf_memobj.o(i.nrf_memobj_get)
    i.nrf_memobj_pool_init                   0x0002af76   Section        0  nrf_memobj.o(i.nrf_memobj_pool_init)
    i.nrf_memobj_put                         0x0002af82   Section        0  nrf_memobj.o(i.nrf_memobj_put)
    i.nrf_memobj_read                        0x0002afa0   Section        0  nrf_memobj.o(i.nrf_memobj_read)
    i.nrf_memobj_write                       0x0002afc2   Section        0  nrf_memobj.o(i.nrf_memobj_write)
    i.nrf_mtx_unlock                         0x0002afe4   Section        0  nrf_pwr_mgmt.o(i.nrf_mtx_unlock)
    nrf_mtx_unlock                           0x0002afe5   Thumb Code    22  nrf_pwr_mgmt.o(i.nrf_mtx_unlock)
    i.nrf_pwr_mgmt_init                      0x0002affc   Section        0  nrf_pwr_mgmt.o(i.nrf_pwr_mgmt_init)
    i.nrf_pwr_mgmt_run                       0x0002b03c   Section        0  nrf_pwr_mgmt.o(i.nrf_pwr_mgmt_run)
    i.nrf_pwr_mgmt_shutdown                  0x0002b054   Section        0  nrf_pwr_mgmt.o(i.nrf_pwr_mgmt_shutdown)
    i.nrf_queue_generic_pop                  0x0002b0b8   Section        0  nrf_queue.o(i.nrf_queue_generic_pop)
    i.nrf_queue_is_empty                     0x0002b154   Section        0  nrf_queue.o(i.nrf_queue_is_empty)
    i.nrf_queue_is_full                      0x0002b16a   Section        0  nrf_queue.o(i.nrf_queue_is_full)
    i.nrf_queue_next_idx                     0x0002b18a   Section        0  nrf_queue.o(i.nrf_queue_next_idx)
    nrf_queue_next_idx                       0x0002b18b   Thumb Code    16  nrf_queue.o(i.nrf_queue_next_idx)
    i.nrf_queue_push                         0x0002b19a   Section        0  nrf_queue.o(i.nrf_queue_push)
    i.nrf_ringbuf_init                       0x0002b266   Section        0  nrf_ringbuf.o(i.nrf_ringbuf_init)
    i.nrf_rtc_cc_get                         0x0002b282   Section        0  drv_rtc.o(i.nrf_rtc_cc_get)
    nrf_rtc_cc_get                           0x0002b283   Thumb Code    12  drv_rtc.o(i.nrf_rtc_cc_get)
    i.nrf_rtc_cc_set                         0x0002b28e   Section        0  drv_rtc.o(i.nrf_rtc_cc_set)
    nrf_rtc_cc_set                           0x0002b28f   Thumb Code    10  drv_rtc.o(i.nrf_rtc_cc_set)
    i.nrf_rtc_counter_get                    0x0002b298   Section        0  drv_rtc.o(i.nrf_rtc_counter_get)
    nrf_rtc_counter_get                      0x0002b299   Thumb Code     8  drv_rtc.o(i.nrf_rtc_counter_get)
    i.nrf_rtc_event_clear                    0x0002b2a0   Section        0  drv_rtc.o(i.nrf_rtc_event_clear)
    nrf_rtc_event_clear                      0x0002b2a1   Thumb Code    14  drv_rtc.o(i.nrf_rtc_event_clear)
    i.nrf_rtc_event_disable                  0x0002b2ae   Section        0  drv_rtc.o(i.nrf_rtc_event_disable)
    nrf_rtc_event_disable                    0x0002b2af   Thumb Code     6  drv_rtc.o(i.nrf_rtc_event_disable)
    i.nrf_rtc_event_enable                   0x0002b2b4   Section        0  drv_rtc.o(i.nrf_rtc_event_enable)
    nrf_rtc_event_enable                     0x0002b2b5   Thumb Code     6  drv_rtc.o(i.nrf_rtc_event_enable)
    i.nrf_rtc_int_disable                    0x0002b2ba   Section        0  drv_rtc.o(i.nrf_rtc_int_disable)
    nrf_rtc_int_disable                      0x0002b2bb   Thumb Code     6  drv_rtc.o(i.nrf_rtc_int_disable)
    i.nrf_rtc_int_enable                     0x0002b2c0   Section        0  drv_rtc.o(i.nrf_rtc_int_enable)
    nrf_rtc_int_enable                       0x0002b2c1   Thumb Code     6  drv_rtc.o(i.nrf_rtc_int_enable)
    i.nrf_rtc_task_trigger                   0x0002b2c6   Section        0  drv_rtc.o(i.nrf_rtc_task_trigger)
    nrf_rtc_task_trigger                     0x0002b2c7   Thumb Code     6  drv_rtc.o(i.nrf_rtc_task_trigger)
    i.nrf_sdh_ble_app_ram_start_get          0x0002b2cc   Section        0  nrf_sdh_ble.o(i.nrf_sdh_ble_app_ram_start_get)
    i.nrf_sdh_ble_default_cfg_set            0x0002b2e4   Section        0  nrf_sdh_ble.o(i.nrf_sdh_ble_default_cfg_set)
    i.nrf_sdh_ble_enable                     0x0002b480   Section        0  nrf_sdh_ble.o(i.nrf_sdh_ble_enable)
    i.nrf_sdh_ble_evts_poll                  0x0002b5cc   Section        0  nrf_sdh_ble.o(i.nrf_sdh_ble_evts_poll)
    nrf_sdh_ble_evts_poll                    0x0002b5cd   Thumb Code   108  nrf_sdh_ble.o(i.nrf_sdh_ble_evts_poll)
    i.nrf_sdh_enable_request                 0x0002b640   Section        0  nrf_sdh.o(i.nrf_sdh_enable_request)
    i.nrf_sdh_evts_poll                      0x0002b6c4   Section        0  nrf_sdh.o(i.nrf_sdh_evts_poll)
    i.nrf_sdh_is_enabled                     0x0002b6f4   Section        0  nrf_sdh.o(i.nrf_sdh_is_enabled)
    i.nrf_sdh_soc_evts_poll                  0x0002b700   Section        0  nrf_sdh_soc.o(i.nrf_sdh_soc_evts_poll)
    nrf_sdh_soc_evts_poll                    0x0002b701   Thumb Code    80  nrf_sdh_soc.o(i.nrf_sdh_soc_evts_poll)
    i.nrf_section_iter_get                   0x0002b754   Section        0  nrf_sdh.o(i.nrf_section_iter_get)
    nrf_section_iter_get                     0x0002b755   Thumb Code     6  nrf_sdh.o(i.nrf_section_iter_get)
    i.nrf_section_iter_init                  0x0002b75a   Section        0  nrf_section_iter.o(i.nrf_section_iter_init)
    i.nrf_section_iter_item_set              0x0002b76e   Section        0  nrf_section_iter.o(i.nrf_section_iter_item_set)
    nrf_section_iter_item_set                0x0002b76f   Thumb Code    46  nrf_section_iter.o(i.nrf_section_iter_item_set)
    i.nrf_section_iter_next                  0x0002b79c   Section        0  nrf_section_iter.o(i.nrf_section_iter_next)
    i.nrf_sortlist_add                       0x0002b7ca   Section        0  nrf_sortlist.o(i.nrf_sortlist_add)
    i.nrf_sortlist_peek                      0x0002b7f2   Section        0  nrf_sortlist.o(i.nrf_sortlist_peek)
    i.nrf_sortlist_pop                       0x0002b7fa   Section        0  nrf_sortlist.o(i.nrf_sortlist_pop)
    i.nrf_sortlist_remove                    0x0002b812   Section        0  nrf_sortlist.o(i.nrf_sortlist_remove)
    i.nrf_strerror_find                      0x0002b838   Section        0  nrf_strerror.o(i.nrf_strerror_find)
    i.nrf_strerror_get                       0x0002b878   Section        0  nrf_strerror.o(i.nrf_strerror_get)
    i.nrf_uart_errorsrc_get_and_clear        0x0002b894   Section        0  nrfx_uart.o(i.nrf_uart_errorsrc_get_and_clear)
    nrf_uart_errorsrc_get_and_clear          0x0002b895   Thumb Code    12  nrfx_uart.o(i.nrf_uart_errorsrc_get_and_clear)
    i.nrf_uart_event_check                   0x0002b8a0   Section        0  nrfx_uart.o(i.nrf_uart_event_check)
    nrf_uart_event_check                     0x0002b8a1   Thumb Code    14  nrfx_uart.o(i.nrf_uart_event_check)
    i.nrf_uart_event_clear                   0x0002b8ae   Section        0  nrfx_uart.o(i.nrf_uart_event_clear)
    nrf_uart_event_clear                     0x0002b8af   Thumb Code    14  nrfx_uart.o(i.nrf_uart_event_clear)
    i.nrf_uart_hwfc_pins_set                 0x0002b8bc   Section        0  nrfx_uart.o(i.nrf_uart_hwfc_pins_set)
    nrf_uart_hwfc_pins_set                   0x0002b8bd   Thumb Code    12  nrfx_uart.o(i.nrf_uart_hwfc_pins_set)
    i.nrf_uart_int_disable                   0x0002b8c8   Section        0  nrfx_uart.o(i.nrf_uart_int_disable)
    nrf_uart_int_disable                     0x0002b8c9   Thumb Code     6  nrfx_uart.o(i.nrf_uart_int_disable)
    i.nrf_uart_int_enable                    0x0002b8ce   Section        0  nrfx_uart.o(i.nrf_uart_int_enable)
    nrf_uart_int_enable                      0x0002b8cf   Thumb Code     6  nrfx_uart.o(i.nrf_uart_int_enable)
    i.nrf_uart_int_enable_check              0x0002b8d4   Section        0  nrfx_uart.o(i.nrf_uart_int_enable_check)
    nrf_uart_int_enable_check                0x0002b8d5   Thumb Code    18  nrfx_uart.o(i.nrf_uart_int_enable_check)
    i.nrf_uart_task_trigger                  0x0002b8e6   Section        0  nrfx_uart.o(i.nrf_uart_task_trigger)
    nrf_uart_task_trigger                    0x0002b8e7   Thumb Code     6  nrfx_uart.o(i.nrf_uart_task_trigger)
    i.nrf_uart_txrx_pins_set                 0x0002b8ec   Section        0  nrfx_uart.o(i.nrf_uart_txrx_pins_set)
    nrf_uart_txrx_pins_set                   0x0002b8ed   Thumb Code    14  nrfx_uart.o(i.nrf_uart_txrx_pins_set)
    i.nrf_uarte_errorsrc_get_and_clear       0x0002b8fa   Section        0  nrfx_uarte.o(i.nrf_uarte_errorsrc_get_and_clear)
    nrf_uarte_errorsrc_get_and_clear         0x0002b8fb   Thumb Code    12  nrfx_uarte.o(i.nrf_uarte_errorsrc_get_and_clear)
    i.nrf_uarte_event_check                  0x0002b906   Section        0  nrfx_uarte.o(i.nrf_uarte_event_check)
    nrf_uarte_event_check                    0x0002b907   Thumb Code    14  nrfx_uarte.o(i.nrf_uarte_event_check)
    i.nrf_uarte_event_clear                  0x0002b914   Section        0  nrfx_uarte.o(i.nrf_uarte_event_clear)
    nrf_uarte_event_clear                    0x0002b915   Thumb Code    14  nrfx_uarte.o(i.nrf_uarte_event_clear)
    i.nrf_uarte_hwfc_pins_set                0x0002b922   Section        0  nrfx_uarte.o(i.nrf_uarte_hwfc_pins_set)
    nrf_uarte_hwfc_pins_set                  0x0002b923   Thumb Code    12  nrfx_uarte.o(i.nrf_uarte_hwfc_pins_set)
    i.nrf_uarte_int_disable                  0x0002b92e   Section        0  nrfx_uarte.o(i.nrf_uarte_int_disable)
    nrf_uarte_int_disable                    0x0002b92f   Thumb Code     6  nrfx_uarte.o(i.nrf_uarte_int_disable)
    i.nrf_uarte_int_enable                   0x0002b934   Section        0  nrfx_uarte.o(i.nrf_uarte_int_enable)
    nrf_uarte_int_enable                     0x0002b935   Thumb Code     6  nrfx_uarte.o(i.nrf_uarte_int_enable)
    i.nrf_uarte_rx_amount_get                0x0002b93a   Section        0  nrfx_uarte.o(i.nrf_uarte_rx_amount_get)
    nrf_uarte_rx_amount_get                  0x0002b93b   Thumb Code    10  nrfx_uarte.o(i.nrf_uarte_rx_amount_get)
    i.nrf_uarte_shorts_disable               0x0002b944   Section        0  nrfx_uarte.o(i.nrf_uarte_shorts_disable)
    nrf_uarte_shorts_disable                 0x0002b945   Thumb Code    12  nrfx_uarte.o(i.nrf_uarte_shorts_disable)
    i.nrf_uarte_task_trigger                 0x0002b950   Section        0  nrfx_uarte.o(i.nrf_uarte_task_trigger)
    nrf_uarte_task_trigger                   0x0002b951   Thumb Code     6  nrfx_uarte.o(i.nrf_uarte_task_trigger)
    i.nrf_uarte_tx_amount_get                0x0002b956   Section        0  nrfx_uarte.o(i.nrf_uarte_tx_amount_get)
    nrf_uarte_tx_amount_get                  0x0002b957   Thumb Code    10  nrfx_uarte.o(i.nrf_uarte_tx_amount_get)
    i.nrf_uarte_txrx_pins_set                0x0002b960   Section        0  nrfx_uarte.o(i.nrf_uarte_txrx_pins_set)
    nrf_uarte_txrx_pins_set                  0x0002b961   Thumb Code    14  nrfx_uarte.o(i.nrf_uarte_txrx_pins_set)
    i.nrf_wdt_started                        0x0002b970   Section        0  nrf_drv_clock.o(i.nrf_wdt_started)
    nrf_wdt_started                          0x0002b971   Thumb Code    14  nrf_drv_clock.o(i.nrf_wdt_started)
    i.nrfx_clock_enable                      0x0002b984   Section        0  nrfx_clock.o(i.nrfx_clock_enable)
    i.nrfx_clock_init                        0x0002b998   Section        0  nrfx_clock.o(i.nrfx_clock_init)
    i.nrfx_clock_lfclk_stop                  0x0002b9b8   Section        0  nrfx_clock.o(i.nrfx_clock_lfclk_stop)
    i.nrfx_coredep_delay_us                  0x0002b9e4   Section        0  drv_rtc.o(i.nrfx_coredep_delay_us)
    nrfx_coredep_delay_us                    0x0002b9e5   Thumb Code    20  drv_rtc.o(i.nrfx_coredep_delay_us)
    i.nrfx_get_irq_number                    0x0002b9fc   Section        0  nrfx_clock.o(i.nrfx_get_irq_number)
    nrfx_get_irq_number                      0x0002b9fd   Thumb Code     8  nrfx_clock.o(i.nrfx_get_irq_number)
    i.nrfx_get_irq_number                    0x0002ba04   Section        0  nrfx_gpiote.o(i.nrfx_get_irq_number)
    nrfx_get_irq_number                      0x0002ba05   Thumb Code     8  nrfx_gpiote.o(i.nrfx_get_irq_number)
    i.nrfx_get_irq_number                    0x0002ba0c   Section        0  nrfx_uart.o(i.nrfx_get_irq_number)
    nrfx_get_irq_number                      0x0002ba0d   Thumb Code     8  nrfx_uart.o(i.nrfx_get_irq_number)
    i.nrfx_get_irq_number                    0x0002ba14   Section        0  nrfx_uarte.o(i.nrfx_get_irq_number)
    nrfx_get_irq_number                      0x0002ba15   Thumb Code     8  nrfx_uarte.o(i.nrfx_get_irq_number)
    i.nrfx_gpiote_in_event_enable            0x0002ba1c   Section        0  nrfx_gpiote.o(i.nrfx_gpiote_in_event_enable)
    i.nrfx_gpiote_in_init                    0x0002bac8   Section        0  nrfx_gpiote.o(i.nrfx_gpiote_in_init)
    i.nrfx_gpiote_in_is_set                  0x0002bbbc   Section        0  nrfx_gpiote.o(i.nrfx_gpiote_in_is_set)
    i.nrfx_gpiote_init                       0x0002bbd0   Section        0  nrfx_gpiote.o(i.nrfx_gpiote_init)
    i.nrfx_gpiote_is_init                    0x0002bca4   Section        0  nrfx_gpiote.o(i.nrfx_gpiote_is_init)
    i.nrfx_is_in_ram                         0x0002bcb8   Section        0  nrfx_uarte.o(i.nrfx_is_in_ram)
    nrfx_is_in_ram                           0x0002bcb9   Thumb Code    20  nrfx_uarte.o(i.nrfx_is_in_ram)
    i.nrfx_power_clock_irq_init              0x0002bccc   Section        0  nrfx_clock.o(i.nrfx_power_clock_irq_init)
    nrfx_power_clock_irq_init                0x0002bccd   Thumb Code   168  nrfx_clock.o(i.nrfx_power_clock_irq_init)
    i.nrfx_prs_acquire                       0x0002bd7c   Section        0  nrfx_prs.o(i.nrfx_prs_acquire)
    i.nrfx_uart_0_irq_handler                0x0002bdcc   Section        0  nrfx_uart.o(i.nrfx_uart_0_irq_handler)
    i.nrfx_uart_init                         0x0002bde0   Section        0  nrfx_uart.o(i.nrfx_uart_init)
    i.nrfx_uart_rx                           0x0002be68   Section        0  nrfx_uart.o(i.nrfx_uart_rx)
    i.nrfx_uart_tx                           0x0002bf8c   Section        0  nrfx_uart.o(i.nrfx_uart_tx)
    i.nrfx_uart_tx_in_progress               0x0002c018   Section        0  nrfx_uart.o(i.nrfx_uart_tx_in_progress)
    i.nrfx_uarte_0_irq_handler               0x0002c03c   Section        0  nrfx_uarte.o(i.nrfx_uarte_0_irq_handler)
    i.nrfx_uarte_init                        0x0002c050   Section        0  nrfx_uarte.o(i.nrfx_uarte_init)
    i.nrfx_uarte_rx                          0x0002c0d0   Section        0  nrfx_uarte.o(i.nrfx_uarte_rx)
    i.nrfx_uarte_tx                          0x0002c208   Section        0  nrfx_uarte.o(i.nrfx_uarte_tx)
    i.nrfx_uarte_tx_in_progress              0x0002c2c8   Section        0  nrfx_uarte.o(i.nrfx_uarte_tx_in_progress)
    i.nus_c_init                             0x0002c2e8   Section        0  main.o(i.nus_c_init)
    nus_c_init                               0x0002c2e9   Thumb Code    44  main.o(i.nus_c_init)
    i.nus_error_handler                      0x0002c324   Section        0  main.o(i.nus_error_handler)
    nus_error_handler                        0x0002c325   Thumb Code    16  main.o(i.nus_error_handler)
    i.nvmc_config                            0x0002c334   Section        0  system_nrf52_1.o(i.nvmc_config)
    i.nvmc_wait                              0x0002c348   Section        0  system_nrf52_1.o(i.nvmc_wait)
    i.on_characteristic_discovery_rsp        0x0002c358   Section        0  ble_db_discovery.o(i.on_characteristic_discovery_rsp)
    on_characteristic_discovery_rsp          0x0002c359   Thumb Code   390  ble_db_discovery.o(i.on_characteristic_discovery_rsp)
    i.on_compare1_evt                        0x0002c4f0   Section        0  app_timer2.o(i.on_compare1_evt)
    on_compare1_evt                          0x0002c4f1   Thumb Code    14  app_timer2.o(i.on_compare1_evt)
    i.on_compare_evt                         0x0002c504   Section        0  app_timer2.o(i.on_compare_evt)
    on_compare_evt                           0x0002c505   Thumb Code    26  app_timer2.o(i.on_compare_evt)
    i.on_connected_evt                       0x0002c524   Section        0  nrf_ble_gatt.o(i.on_connected_evt)
    on_connected_evt                         0x0002c525   Thumb Code   134  nrf_ble_gatt.o(i.on_connected_evt)
    i.on_data_length_update_evt              0x0002c5e8   Section        0  nrf_ble_gatt.o(i.on_data_length_update_evt)
    on_data_length_update_evt                0x0002c5e9   Thumb Code    78  nrf_ble_gatt.o(i.on_data_length_update_evt)
    i.on_data_length_update_request_evt      0x0002c63c   Section        0  nrf_ble_gatt.o(i.on_data_length_update_request_evt)
    on_data_length_update_request_evt        0x0002c63d   Thumb Code    48  nrf_ble_gatt.o(i.on_data_length_update_request_evt)
    i.on_descriptor_discovery_rsp            0x0002c66c   Section        0  ble_db_discovery.o(i.on_descriptor_discovery_rsp)
    on_descriptor_discovery_rsp              0x0002c66d   Thumb Code   282  ble_db_discovery.o(i.on_descriptor_discovery_rsp)
    i.on_disconnected                        0x0002c786   Section        0  ble_db_discovery.o(i.on_disconnected)
    on_disconnected                          0x0002c787   Thumb Code    26  ble_db_discovery.o(i.on_disconnected)
    i.on_disconnected_evt                    0x0002c7a0   Section        0  nrf_ble_gatt.o(i.on_disconnected_evt)
    on_disconnected_evt                      0x0002c7a1   Thumb Code    20  nrf_ble_gatt.o(i.on_disconnected_evt)
    i.on_exchange_mtu_request_evt            0x0002c7b4   Section        0  nrf_ble_gatt.o(i.on_exchange_mtu_request_evt)
    on_exchange_mtu_request_evt              0x0002c7b5   Thumb Code   138  nrf_ble_gatt.o(i.on_exchange_mtu_request_evt)
    i.on_exchange_mtu_rsp_evt                0x0002c87c   Section        0  nrf_ble_gatt.o(i.on_exchange_mtu_rsp_evt)
    on_exchange_mtu_rsp_evt                  0x0002c87d   Thumb Code    94  nrf_ble_gatt.o(i.on_exchange_mtu_rsp_evt)
    i.on_hvx                                 0x0002c8e0   Section        0  ble_nus_c.o(i.on_hvx)
    on_hvx                                   0x0002c8e1   Thumb Code    56  ble_nus_c.o(i.on_hvx)
    i.on_overflow_evt                        0x0002c918   Section        0  app_timer2.o(i.on_overflow_evt)
    on_overflow_evt                          0x0002c919   Thumb Code    24  app_timer2.o(i.on_overflow_evt)
    i.on_primary_srv_discovery_rsp           0x0002c934   Section        0  ble_db_discovery.o(i.on_primary_srv_discovery_rsp)
    on_primary_srv_discovery_rsp             0x0002c935   Thumb Code   174  ble_db_discovery.o(i.on_primary_srv_discovery_rsp)
    i.on_srv_disc_completion                 0x0002ca10   Section        0  ble_db_discovery.o(i.on_srv_disc_completion)
    on_srv_disc_completion                   0x0002ca11   Thumb Code   162  ble_db_discovery.o(i.on_srv_disc_completion)
    i.pending_user_evts_send                 0x0002cac4   Section        0  ble_db_discovery.o(i.pending_user_evts_send)
    pending_user_evts_send                   0x0002cac5   Thumb Code    42  ble_db_discovery.o(i.pending_user_evts_send)
    i.pin_configured_set                     0x0002caf4   Section        0  nrfx_gpiote.o(i.pin_configured_set)
    pin_configured_set                       0x0002caf5   Thumb Code    28  nrfx_gpiote.o(i.pin_configured_set)
    i.pin_in_use_by_gpiote                   0x0002cb14   Section        0  nrfx_gpiote.o(i.pin_in_use_by_gpiote)
    pin_in_use_by_gpiote                     0x0002cb15   Thumb Code    22  nrfx_gpiote.o(i.pin_in_use_by_gpiote)
    i.pin_in_use_by_port                     0x0002cb30   Section        0  nrfx_gpiote.o(i.pin_in_use_by_port)
    pin_in_use_by_port                       0x0002cb31   Thumb Code    18  nrfx_gpiote.o(i.pin_in_use_by_port)
    i.pin_in_use_by_te                       0x0002cb48   Section        0  nrfx_gpiote.o(i.pin_in_use_by_te)
    pin_in_use_by_te                         0x0002cb49   Thumb Code    26  nrfx_gpiote.o(i.pin_in_use_by_te)
    i.pin_in_use_clear                       0x0002cb68   Section        0  nrfx_gpiote.o(i.pin_in_use_clear)
    pin_in_use_clear                         0x0002cb69   Thumb Code     8  nrfx_gpiote.o(i.pin_in_use_clear)
    i.port_event_handle                      0x0002cb74   Section        0  nrfx_gpiote.o(i.port_event_handle)
    port_event_handle                        0x0002cb75   Thumb Code   186  nrfx_gpiote.o(i.port_event_handle)
    i.port_handler_pin_get                   0x0002cc34   Section        0  nrfx_gpiote.o(i.port_handler_pin_get)
    port_handler_pin_get                     0x0002cc35   Thumb Code    12  nrfx_gpiote.o(i.port_handler_pin_get)
    i.port_handler_polarity_get              0x0002cc44   Section        0  nrfx_gpiote.o(i.port_handler_polarity_get)
    port_handler_polarity_get                0x0002cc45   Thumb Code    10  nrfx_gpiote.o(i.port_handler_polarity_get)
    i.postfix_process                        0x0002cc54   Section        0  nrf_log_str_formatter.o(i.postfix_process)
    postfix_process                          0x0002cc55   Thumb Code    58  nrf_log_str_formatter.o(i.postfix_process)
    i.power_management_init                  0x0002cc9c   Section        0  main.o(i.power_management_init)
    power_management_init                    0x0002cc9d   Thumb Code    28  main.o(i.power_management_init)
    i.prefix_process                         0x0002ccb8   Section        0  nrf_log_str_formatter.o(i.prefix_process)
    prefix_process                           0x0002ccb9   Thumb Code    98  nrf_log_str_formatter.o(i.prefix_process)
    i.prs_box_get                            0x0002cd5c   Section        0  nrfx_prs.o(i.prs_box_get)
    prs_box_get                              0x0002cd5d   Thumb Code    16  nrfx_prs.o(i.prs_box_get)
    i.queue_process                          0x0002cd74   Section        0  nrf_ble_gq.o(i.queue_process)
    queue_process                            0x0002cd75   Thumb Code   252  nrf_ble_gq.o(i.queue_process)
    i.queue_utilization_get                  0x0002ce98   Section        0  nrf_queue.o(i.queue_utilization_get)
    queue_utilization_get                    0x0002ce99   Thumb Code    30  nrf_queue.o(i.queue_utilization_get)
    i.queues_purge                           0x0002ceb8   Section        0  nrf_ble_gq.o(i.queues_purge)
    queues_purge                             0x0002ceb9   Thumb Code   104  nrf_ble_gq.o(i.queues_purge)
    i.ram_end_address_get                    0x0002cf24   Section        0  nrf_sdh_ble.o(i.ram_end_address_get)
    ram_end_address_get                      0x0002cf25   Thumb Code    12  nrf_sdh_ble.o(i.ram_end_address_get)
    i.registered_handler_get                 0x0002cf34   Section        0  ble_db_discovery.o(i.registered_handler_get)
    registered_handler_get                   0x0002cf35   Thumb Code    52  ble_db_discovery.o(i.registered_handler_get)
    i.registered_handler_set                 0x0002cf74   Section        0  ble_db_discovery.o(i.registered_handler_set)
    registered_handler_set                   0x0002cf75   Thumb Code    58  ble_db_discovery.o(i.registered_handler_set)
    i.request_err_code_handle                0x0002cfb8   Section        0  nrf_ble_gq.o(i.request_err_code_handle)
    request_err_code_handle                  0x0002cfb9   Thumb Code    52  nrf_ble_gq.o(i.request_err_code_handle)
    i.request_process                        0x0002cff8   Section        0  nrf_ble_gq.o(i.request_process)
    request_process                          0x0002cff9   Thumb Code   164  nrf_ble_gq.o(i.request_process)
    i.rtc_irq                                0x0002d0c0   Section        0  app_timer2.o(i.rtc_irq)
    rtc_irq                                  0x0002d0c1   Thumb Code    62  app_timer2.o(i.rtc_irq)
    i.rtc_schedule                           0x0002d100   Section        0  app_timer2.o(i.rtc_schedule)
    rtc_schedule                             0x0002d101   Thumb Code   116  app_timer2.o(i.rtc_schedule)
    i.rtc_update                             0x0002d17c   Section        0  app_timer2.o(i.rtc_update)
    rtc_update                               0x0002d17d   Thumb Code   154  app_timer2.o(i.rtc_update)
    i.rx_byte                                0x0002d220   Section        0  nrfx_uart.o(i.rx_byte)
    rx_byte                                  0x0002d221   Thumb Code    62  nrfx_uart.o(i.rx_byte)
    i.rx_done_event                          0x0002d25e   Section        0  nrfx_uart.o(i.rx_done_event)
    rx_done_event                            0x0002d25f   Thumb Code    28  nrfx_uart.o(i.rx_done_event)
    i.rx_done_event                          0x0002d27a   Section        0  nrfx_uarte.o(i.rx_done_event)
    rx_done_event                            0x0002d27b   Thumb Code    28  nrfx_uarte.o(i.rx_done_event)
    i.rx_enable                              0x0002d296   Section        0  nrfx_uart.o(i.rx_enable)
    rx_enable                                0x0002d297   Thumb Code    34  nrfx_uart.o(i.rx_enable)
    i.scan_evt_handler                       0x0002d2b8   Section        0  main.o(i.scan_evt_handler)
    scan_evt_handler                         0x0002d2b9   Thumb Code   122  main.o(i.scan_evt_handler)
    i.scan_init                              0x0002d37c   Section        0  main.o(i.scan_init)
    scan_init                                0x0002d37d   Thumb Code   114  main.o(i.scan_init)
    i.scan_start                             0x0002d3fc   Section        0  main.o(i.scan_start)
    scan_start                               0x0002d3fd   Thumb Code    56  main.o(i.scan_start)
    i.sd_nvic_EnableIRQ                      0x0002d438   Section        0  nrf_sdh.o(i.sd_nvic_EnableIRQ)
    sd_nvic_EnableIRQ                        0x0002d439   Thumb Code   150  nrf_sdh.o(i.sd_nvic_EnableIRQ)
    i.sd_nvic_critical_region_enter          0x0002d4dc   Section        0  app_util_platform.o(i.sd_nvic_critical_region_enter)
    sd_nvic_critical_region_enter            0x0002d4dd   Thumb Code    90  app_util_platform.o(i.sd_nvic_critical_region_enter)
    i.sd_state_evt_handler                   0x0002d544   Section        0  nrf_drv_clock.o(i.sd_state_evt_handler)
    sd_state_evt_handler                     0x0002d545   Thumb Code   136  nrf_drv_clock.o(i.sd_state_evt_handler)
    i.sdh_request_observer_notify            0x0002d5d4   Section        0  nrf_sdh.o(i.sdh_request_observer_notify)
    sdh_request_observer_notify              0x0002d5d5   Thumb Code    56  nrf_sdh.o(i.sdh_request_observer_notify)
    i.sdh_state_observer_notify              0x0002d610   Section        0  nrf_sdh.o(i.sdh_state_observer_notify)
    sdh_state_observer_notify                0x0002d611   Thumb Code    48  nrf_sdh.o(i.sdh_state_observer_notify)
    i.serial_tx                              0x0002d644   Section        0  nrf_log_backend_rtt.o(i.serial_tx)
    serial_tx                                0x0002d645   Thumb Code   124  nrf_log_backend_rtt.o(i.serial_tx)
    i.shutdown_handler                       0x0002d6c8   Section        0  main.o(i.shutdown_handler)
    shutdown_handler                         0x0002d6c9   Thumb Code    66  main.o(i.shutdown_handler)
    i.shutdown_process                       0x0002d70c   Section        0  nrf_pwr_mgmt.o(i.shutdown_process)
    shutdown_process                         0x0002d70d   Thumb Code   182  nrf_pwr_mgmt.o(i.shutdown_process)
    i.soc_evt_handler                        0x0002d7d8   Section        0  nrf_drv_clock.o(i.soc_evt_handler)
    soc_evt_handler                          0x0002d7d9   Thumb Code    22  nrf_drv_clock.o(i.soc_evt_handler)
    i.softdevices_evt_irq_enable             0x0002d7f4   Section        0  nrf_sdh.o(i.softdevices_evt_irq_enable)
    softdevices_evt_irq_enable               0x0002d7f5   Thumb Code    30  nrf_sdh.o(i.softdevices_evt_irq_enable)
    i.sorted_list_stop_all                   0x0002d812   Section        0  app_timer2.o(i.sorted_list_stop_all)
    sorted_list_stop_all                     0x0002d813   Thumb Code    20  app_timer2.o(i.sorted_list_stop_all)
    i.sortlist_pop                           0x0002d828   Section        0  app_timer2.o(i.sortlist_pop)
    sortlist_pop                             0x0002d829   Thumb Code    20  app_timer2.o(i.sortlist_pop)
    i.startup_event_extract                  0x0002d840   Section        0  bsp_btn_ble.o(i.startup_event_extract)
    startup_event_extract                    0x0002d841   Thumb Code    38  bsp_btn_ble.o(i.startup_event_extract)
    i.state_get                              0x0002d868   Section        0  app_button.o(i.state_get)
    state_get                                0x0002d869   Thumb Code    28  app_button.o(i.state_get)
    i.state_set                              0x0002d888   Section        0  app_button.o(i.state_set)
    state_set                                0x0002d889   Thumb Code    68  app_button.o(i.state_set)
    i.std_header_set                         0x0002d8d0   Section        0  nrf_log_frontend.o(i.std_header_set)
    std_header_set                           0x0002d8d1   Thumb Code    96  nrf_log_frontend.o(i.std_header_set)
    i.std_n                                  0x0002d934   Section        0  nrf_log_frontend.o(i.std_n)
    std_n                                    0x0002d935   Thumb Code   104  nrf_log_frontend.o(i.std_n)
    i.string_print                           0x0002d9a4   Section        0  nrf_fprintf_format.o(i.string_print)
    string_print                             0x0002d9a5   Thumb Code   116  nrf_fprintf_format.o(i.string_print)
    i.ticks_sub                              0x0002da18   Section        0  drv_rtc.o(i.ticks_sub)
    ticks_sub                                0x0002da19   Thumb Code    10  drv_rtc.o(i.ticks_sub)
    i.timer_expire                           0x0002da24   Section        0  app_timer2.o(i.timer_expire)
    timer_expire                             0x0002da25   Thumb Code    98  app_timer2.o(i.timer_expire)
    i.timer_init                             0x0002da90   Section        0  main.o(i.timer_init)
    timer_init                               0x0002da91   Thumb Code    28  main.o(i.timer_init)
    i.timer_req_process                      0x0002daac   Section        0  app_timer2.o(i.timer_req_process)
    timer_req_process                        0x0002daad   Thumb Code   130  app_timer2.o(i.timer_req_process)
    i.timer_req_schedule                     0x0002db40   Section        0  app_timer2.o(i.timer_req_schedule)
    timer_req_schedule                       0x0002db41   Thumb Code    56  app_timer2.o(i.timer_req_schedule)
    i.timer_start                            0x0002db80   Section        0  app_button.o(i.timer_start)
    timer_start                              0x0002db81   Thumb Code    22  app_button.o(i.timer_start)
    i.timestamp_print                        0x0002dba0   Section        0  nrf_log_str_formatter.o(i.timestamp_print)
    timestamp_print                          0x0002dba1   Thumb Code     2  nrf_log_str_formatter.o(i.timestamp_print)
    i.tx_blocking                            0x0002dba2   Section        0  nrfx_uart.o(i.tx_blocking)
    tx_blocking                              0x0002dba3   Thumb Code    54  nrfx_uart.o(i.tx_blocking)
    i.tx_byte                                0x0002dbd8   Section        0  nrfx_uart.o(i.tx_byte)
    tx_byte                                  0x0002dbd9   Thumb Code    38  nrfx_uart.o(i.tx_byte)
    i.tx_done_event                          0x0002dbfe   Section        0  nrfx_uart.o(i.tx_done_event)
    tx_done_event                            0x0002dbff   Thumb Code    32  nrfx_uart.o(i.tx_done_event)
    i.tx_done_event                          0x0002dc1e   Section        0  nrfx_uarte.o(i.tx_done_event)
    tx_done_event                            0x0002dc1f   Thumb Code    32  nrfx_uarte.o(i.tx_done_event)
    i.uart_event_handle                      0x0002dc40   Section        0  main.o(i.uart_event_handle)
    i.uart_event_handler                     0x0002dd84   Section        0  app_uart_fifo.o(i.uart_event_handler)
    uart_event_handler                       0x0002dd85   Thumb Code   200  app_uart_fifo.o(i.uart_event_handler)
    i.uart_evt_handler                       0x0002de68   Section        0  nrf_drv_uart.o(i.uart_evt_handler)
    uart_evt_handler                         0x0002de69   Thumb Code    46  nrf_drv_uart.o(i.uart_evt_handler)
    i.uart_init                              0x0002dea0   Section        0  main.o(i.uart_init)
    uart_init                                0x0002dea1   Thumb Code    70  main.o(i.uart_init)
    i.uart_irq_handler                       0x0002def8   Section        0  nrfx_uart.o(i.uart_irq_handler)
    uart_irq_handler                         0x0002def9   Thumb Code   334  nrfx_uart.o(i.uart_irq_handler)
    i.uarte_evt_handler                      0x0002e048   Section        0  nrf_drv_uart.o(i.uarte_evt_handler)
    uarte_evt_handler                        0x0002e049   Thumb Code    46  nrf_drv_uart.o(i.uarte_evt_handler)
    i.uarte_irq_handler                      0x0002e080   Section        0  nrfx_uarte.o(i.uarte_irq_handler)
    uarte_irq_handler                        0x0002e081   Thumb Code   308  nrfx_uarte.o(i.uarte_irq_handler)
    i.unsigned_print                         0x0002e1b4   Section        0  nrf_fprintf_format.o(i.unsigned_print)
    unsigned_print                           0x0002e1b5   Thumb Code   178  nrf_fprintf_format.o(i.unsigned_print)
    i.usr_event                              0x0002e26c   Section        0  app_button.o(i.usr_event)
    usr_event                                0x0002e26d   Thumb Code    30  app_button.o(i.usr_event)
    i.wakeup_button_cfg                      0x0002e28a   Section        0  bsp.o(i.wakeup_button_cfg)
    wakeup_button_cfg                        0x0002e28b   Thumb Code    86  bsp.o(i.wakeup_button_cfg)
    .constdata                               0x0002e2e0   Section       48  main.o(.constdata)
    m_ble_gatt_queuereq_queue                0x0002e2e0   Data          20  main.o(.constdata)
    m_nus_uuid                               0x0002e2f4   Data           4  main.o(.constdata)
    .constdata                               0x0002e310   Section        4  boards.o(.constdata)
    m_board_btn_list                         0x0002e310   Data           4  boards.o(.constdata)
    .constdata                               0x0002e314   Section       36  bsp.o(.constdata)
    m_bsp_button_tmr                         0x0002e314   Data           4  bsp.o(.constdata)
    app_buttons                              0x0002e318   Data          32  bsp.o(.constdata)
    .constdata                               0x0002e338   Section      124  ble_db_discovery.o(.constdata)
    .constdata                               0x0002e3b4   Section       22  nrf_ble_gatt.o(.constdata)
    .constdata                               0x0002e3cc   Section       24  nrf_ble_gq.o(.constdata)
    m_req_data_alloc                         0x0002e3cc   Data          24  nrf_ble_gq.o(.constdata)
    .constdata                               0x0002e3e4   Section       16  ble_nus_c.o(.constdata)
    .constdata                               0x0002e3f4   Section       62  nrfx_gpiote.o(.constdata)
    __func__                                 0x0002e3f8   Data          17  nrfx_gpiote.o(.constdata)
    __func__                                 0x0002e409   Data          21  nrfx_gpiote.o(.constdata)
    __func__                                 0x0002e41e   Data          20  nrfx_gpiote.o(.constdata)
    .constdata                               0x0002e434   Section       46  nrfx_uart.o(.constdata)
    __func__                                 0x0002e434   Data          15  nrfx_uart.o(.constdata)
    irq_handlers                             0x0002e444   Data           4  nrfx_uart.o(.constdata)
    __func__                                 0x0002e448   Data          13  nrfx_uart.o(.constdata)
    __func__                                 0x0002e455   Data          13  nrfx_uart.o(.constdata)
    .constdata                               0x0002e464   Section       48  nrfx_uarte.o(.constdata)
    __func__                                 0x0002e464   Data          16  nrfx_uarte.o(.constdata)
    irq_handlers                             0x0002e474   Data           4  nrfx_uarte.o(.constdata)
    __func__                                 0x0002e478   Data          14  nrfx_uarte.o(.constdata)
    __func__                                 0x0002e486   Data          14  nrfx_uarte.o(.constdata)
    .constdata                               0x0002e494   Section        7  app_button.o(.constdata)
    m_detection_delay_timer_id               0x0002e494   Data           4  app_button.o(.constdata)
    .constdata                               0x0002e49c   Section       20  app_timer2.o(.constdata)
    m_req_fifo                               0x0002e49c   Data           4  app_timer2.o(.constdata)
    m_app_timer_sortlist                     0x0002e4a0   Data          12  app_timer2.o(.constdata)
    .constdata                               0x0002e4b0   Section       32  app_uart_fifo.o(.constdata)
    .constdata                               0x0002e4d0   Section        6  drv_rtc.o(.constdata)
    delay_machine_code                       0x0002e4d0   Data           6  drv_rtc.o(.constdata)
    .constdata                               0x0002e4d6   Section       16  nrf_fprintf_format.o(.constdata)
    _aV2C                                    0x0002e4d6   Data          16  nrf_fprintf_format.o(.constdata)
    .constdata                               0x0002e4e8   Section       36  nrf_pwr_mgmt.o(.constdata)
    pwr_mgmt_data_array                      0x0002e4e8   Data          24  nrf_pwr_mgmt.o(.constdata)
    pwr_mgmt_data                            0x0002e500   Data          12  nrf_pwr_mgmt.o(.constdata)
    .constdata                               0x0002e50c   Section      316  nrf_strerror.o(.constdata)
    m_unknown_str                            0x0002e50c   Data          19  nrf_strerror.o(.constdata)
    nrf_strerror_array                       0x0002e520   Data         296  nrf_strerror.o(.constdata)
    .constdata                               0x0002e650   Section       22  nrf_log_backend_rtt.o(.constdata)
    delay_machine_code                       0x0002e660   Data           6  nrf_log_backend_rtt.o(.constdata)
    .constdata                               0x0002e668   Section       12  nrf_log_frontend.o(.constdata)
    m_log_push_ringbuf                       0x0002e668   Data          12  nrf_log_frontend.o(.constdata)
    .constdata                               0x0002e674   Section       88  nrf_sdh.o(.constdata)
    sdh_req_observers_array                  0x0002e674   Data          16  nrf_sdh.o(.constdata)
    sdh_req_observers                        0x0002e684   Data          12  nrf_sdh.o(.constdata)
    sdh_state_observers_array                0x0002e690   Data          16  nrf_sdh.o(.constdata)
    sdh_state_observers                      0x0002e6a0   Data          12  nrf_sdh.o(.constdata)
    sdh_stack_observers_array                0x0002e6ac   Data          16  nrf_sdh.o(.constdata)
    sdh_stack_observers                      0x0002e6bc   Data          12  nrf_sdh.o(.constdata)
    .constdata                               0x0002e6cc   Section       48  nrf_sdh_ble.o(.constdata)
    sdh_ble_observers_array                  0x0002e6cc   Data          32  nrf_sdh_ble.o(.constdata)
    sdh_ble_observers                        0x0002e6ec   Data          12  nrf_sdh_ble.o(.constdata)
    .constdata                               0x0002e6fc   Section       28  nrf_sdh_soc.o(.constdata)
    sdh_soc_observers_array                  0x0002e6fc   Data          16  nrf_sdh_soc.o(.constdata)
    sdh_soc_observers                        0x0002e70c   Data          12  nrf_sdh_soc.o(.constdata)
    .constdata                               0x0002e718   Section      129  ctype_o.o(.constdata)
    .constdata                               0x0002e79c   Section        4  ctype_o.o(.constdata)
    table                                    0x0002e79c   Data           4  ctype_o.o(.constdata)
    .conststring                             0x0002e7a0   Section      233  ble_db_discovery.o(.conststring)
    .conststring                             0x0002e88c   Section      162  nrf_ble_gatt.o(.conststring)
    .conststring                             0x0002e930   Section       74  nrf_ble_gq.o(.conststring)
    .conststring                             0x0002e97c   Section     1003  nrf_strerror.o(.conststring)
    .conststring                             0x0002ed68   Section      102  nrf_log_str_formatter.o(.conststring)
    .conststring                             0x0002edd0   Section      463  nrf_sdh_ble.o(.conststring)
    .conststrlit                             0x0002efa0   Section       12  ble_db_discovery.o(.conststrlit)
    .conststrlit                             0x0002efac   Section       13  nrf_ble_gatt.o(.conststrlit)
    .conststrlit                             0x0002efbc   Section       11  nrf_ble_gq.o(.conststrlit)
    .conststrlit                             0x0002efc8   Section        9  nrf_ble_scan.o(.conststrlit)
    .conststrlit                             0x0002efd4   Section       10  ble_nus_c.o(.conststrlit)
    .conststrlit                             0x0002efe0   Section        6  nrf_drv_clock.o(.conststrlit)
    .conststrlit                             0x0002efe8   Section        6  nrfx_clock.o(.conststrlit)
    .conststrlit                             0x0002eff0   Section        7  nrfx_gpiote.o(.conststrlit)
    .conststrlit                             0x0002eff8   Section        4  nrfx_prs.o(.conststrlit)
    .conststrlit                             0x0002effc   Section        5  nrfx_uart.o(.conststrlit)
    .conststrlit                             0x0002f004   Section        6  nrfx_uarte.o(.conststrlit)
    .conststrlit                             0x0002f00c   Section       11  app_button.o(.conststrlit)
    .conststrlit                             0x0002f018   Section       10  app_timer2.o(.conststrlit)
    .conststrlit                             0x0002f024   Section        9  nrf_pwr_mgmt.o(.conststrlit)
    .conststrlit                             0x0002f030   Section        9  nrf_sortlist.o(.conststrlit)
    .conststrlit                             0x0002f03c   Section       16  nrf_log_default_backends.o(.conststrlit)
    .conststrlit                             0x0002f04c   Section        4  nrf_log_frontend.o(.conststrlit)
    .conststrlit                             0x0002f050   Section        8  nrf_sdh.o(.conststrlit)
    .conststrlit                             0x0002f058   Section       12  nrf_sdh_ble.o(.conststrlit)
    .conststrlit                             0x0002f064   Section       12  nrf_sdh_soc.o(.conststrlit)
    log_backends                             0x0002f090   Section       16  nrf_log_default_backends.o(log_backends)
    __tagsym$$used                           0x0002f090   Number         0  nrf_log_default_backends.o(log_backends)
    rtt_log_backend                          0x0002f090   Data          16  nrf_log_default_backends.o(log_backends)
    log_const_data                           0x0002f0a0   Section        8  ble_db_discovery.o(log_const_data)
    __tagsym$$used                           0x0002f0a0   Number         0  ble_db_discovery.o(log_const_data)
    log_const_data                           0x0002f0a8   Section        8  nrf_ble_gatt.o(log_const_data)
    __tagsym$$used                           0x0002f0a8   Number         0  nrf_ble_gatt.o(log_const_data)
    log_const_data                           0x0002f0b0   Section        8  nrf_ble_gq.o(log_const_data)
    __tagsym$$used                           0x0002f0b0   Number         0  nrf_ble_gq.o(log_const_data)
    log_const_data                           0x0002f0b8   Section        8  nrf_ble_scan.o(log_const_data)
    __tagsym$$used                           0x0002f0b8   Number         0  nrf_ble_scan.o(log_const_data)
    log_const_data                           0x0002f0c0   Section        8  ble_nus_c.o(log_const_data)
    __tagsym$$used                           0x0002f0c0   Number         0  ble_nus_c.o(log_const_data)
    log_const_data                           0x0002f0c8   Section        8  nrf_drv_clock.o(log_const_data)
    __tagsym$$used                           0x0002f0c8   Number         0  nrf_drv_clock.o(log_const_data)
    log_const_data                           0x0002f0d0   Section        8  nrfx_clock.o(log_const_data)
    __tagsym$$used                           0x0002f0d0   Number         0  nrfx_clock.o(log_const_data)
    log_const_data                           0x0002f0d8   Section        8  nrfx_gpiote.o(log_const_data)
    __tagsym$$used                           0x0002f0d8   Number         0  nrfx_gpiote.o(log_const_data)
    log_const_data                           0x0002f0e0   Section        8  nrfx_prs.o(log_const_data)
    __tagsym$$used                           0x0002f0e0   Number         0  nrfx_prs.o(log_const_data)
    log_const_data                           0x0002f0e8   Section        8  nrfx_uart.o(log_const_data)
    __tagsym$$used                           0x0002f0e8   Number         0  nrfx_uart.o(log_const_data)
    log_const_data                           0x0002f0f0   Section        8  nrfx_uarte.o(log_const_data)
    __tagsym$$used                           0x0002f0f0   Number         0  nrfx_uarte.o(log_const_data)
    log_const_data                           0x0002f0f8   Section        8  app_button.o(log_const_data)
    __tagsym$$used                           0x0002f0f8   Number         0  app_button.o(log_const_data)
    log_const_data                           0x0002f100   Section        8  app_timer2.o(log_const_data)
    __tagsym$$used                           0x0002f100   Number         0  app_timer2.o(log_const_data)
    log_const_data                           0x0002f108   Section        8  nrf_pwr_mgmt.o(log_const_data)
    __tagsym$$used                           0x0002f108   Number         0  nrf_pwr_mgmt.o(log_const_data)
    log_const_data                           0x0002f110   Section        8  nrf_sortlist.o(log_const_data)
    __tagsym$$used                           0x0002f110   Number         0  nrf_sortlist.o(log_const_data)
    log_const_data                           0x0002f118   Section        8  nrf_log_frontend.o(log_const_data)
    __tagsym$$used                           0x0002f118   Number         0  nrf_log_frontend.o(log_const_data)
    log_const_data                           0x0002f120   Section        8  nrf_sdh.o(log_const_data)
    __tagsym$$used                           0x0002f120   Number         0  nrf_sdh.o(log_const_data)
    log_const_data                           0x0002f128   Section        8  nrf_sdh_ble.o(log_const_data)
    __tagsym$$used                           0x0002f128   Number         0  nrf_sdh_ble.o(log_const_data)
    log_const_data                           0x0002f130   Section        8  nrf_sdh_soc.o(log_const_data)
    __tagsym$$used                           0x0002f130   Number         0  nrf_sdh_soc.o(log_const_data)
    nrf_balloc                               0x0002f138   Section       20  main.o(nrf_balloc)
    __tagsym$$used                           0x0002f138   Number         0  main.o(nrf_balloc)
    nrf_balloc                               0x0002f14c   Section       20  nrf_log_frontend.o(nrf_balloc)
    __tagsym$$used                           0x0002f14c   Number         0  nrf_log_frontend.o(nrf_balloc)
    nrf_queue                                0x0002f160   Section       20  main.o(nrf_queue)
    __tagsym$$used                           0x0002f160   Number         0  main.o(nrf_queue)
    pwr_mgmt_data1                           0x0002f174   Section        4  main.o(pwr_mgmt_data1)
    __tagsym$$used                           0x0002f174   Number         0  main.o(pwr_mgmt_data1)
    shutdown_handler_handler_function        0x0002f174   Data           4  main.o(pwr_mgmt_data1)
    sdh_ble_observers1                       0x0002f178   Section       32  main.o(sdh_ble_observers1)
    __tagsym$$used                           0x0002f178   Number         0  main.o(sdh_ble_observers1)
    m_gatt_obs                               0x0002f178   Data           8  main.o(sdh_ble_observers1)
    __tagsym$$used                           0x0002f180   Number         0  main.o(sdh_ble_observers1)
    m_db_disc_obs                            0x0002f180   Data           8  main.o(sdh_ble_observers1)
    __tagsym$$used                           0x0002f188   Number         0  main.o(sdh_ble_observers1)
    m_scan_ble_obs                           0x0002f188   Data           8  main.o(sdh_ble_observers1)
    __tagsym$$used                           0x0002f190   Number         0  main.o(sdh_ble_observers1)
    m_ble_gatt_queue_obs                     0x0002f190   Data           8  main.o(sdh_ble_observers1)
    sdh_ble_observers1                       0x0002f198   Section        8  bsp_btn_ble.o(sdh_ble_observers1)
    __tagsym$$used                           0x0002f198   Number         0  bsp_btn_ble.o(sdh_ble_observers1)
    m_ble_observer                           0x0002f198   Data           8  bsp_btn_ble.o(sdh_ble_observers1)
    sdh_ble_observers2                       0x0002f1a0   Section        8  main.o(sdh_ble_observers2)
    __tagsym$$used                           0x0002f1a0   Number         0  main.o(sdh_ble_observers2)
    m_ble_nus_c_obs                          0x0002f1a0   Data           8  main.o(sdh_ble_observers2)
    sdh_ble_observers3                       0x0002f1a8   Section        8  main.o(sdh_ble_observers3)
    __tagsym$$used                           0x0002f1a8   Number         0  main.o(sdh_ble_observers3)
    m_ble_observer                           0x0002f1a8   Data           8  main.o(sdh_ble_observers3)
    sdh_soc_observers0                       0x0002f1b0   Section        8  nrf_drv_clock.o(sdh_soc_observers0)
    __tagsym$$used                           0x0002f1b0   Number         0  nrf_drv_clock.o(sdh_soc_observers0)
    m_soc_evt_observer                       0x0002f1b0   Data           8  nrf_drv_clock.o(sdh_soc_observers0)
    sdh_stack_observers0                     0x0002f1b8   Section        8  nrf_sdh_ble.o(sdh_stack_observers0)
    __tagsym$$used                           0x0002f1b8   Number         0  nrf_sdh_ble.o(sdh_stack_observers0)
    m_nrf_sdh_ble_evts_poll                  0x0002f1b8   Data           8  nrf_sdh_ble.o(sdh_stack_observers0)
    sdh_stack_observers0                     0x0002f1c0   Section        8  nrf_sdh_soc.o(sdh_stack_observers0)
    __tagsym$$used                           0x0002f1c0   Number         0  nrf_sdh_soc.o(sdh_stack_observers0)
    m_nrf_sdh_soc_evts_poll                  0x0002f1c0   Data           8  nrf_sdh_soc.o(sdh_stack_observers0)
    sdh_state_observers0                     0x0002f1c8   Section        8  nrf_drv_clock.o(sdh_state_observers0)
    __tagsym$$used                           0x0002f1c8   Number         0  nrf_drv_clock.o(sdh_state_observers0)
    m_sd_state_observer                      0x0002f1c8   Data           8  nrf_drv_clock.o(sdh_state_observers0)
    .data                                    0x20002a28   Section     1536  main.o(.data)
    m_db_disc                                0x20002a28   Data        1488  main.o(.data)
    m_ble_gatt_queueconn_handles_arr         0x20002ff8   Data           2  main.o(.data)
    m_ble_gatt_queuepurge_queue_nrf_queue_buffer 0x20002ffa   Data           4  main.o(.data)
    m_ble_gatt_queuepool_nrf_balloc_pool_stack 0x20002ffe   Data           8  main.o(.data)
    m_ble_gatt_queuepool_nrf_balloc_cb       0x20003008   Data           8  main.o(.data)
    m_ble_gatt_queue                         0x20003010   Data          20  main.o(.data)
    m_ble_nus_max_data_len                   0x20003024   Data           2  main.o(.data)
    index                                    0x20003026   Data           2  main.o(.data)
    .data                                    0x20003028   Section        9  bsp.o(.data)
    m_registered_callback                    0x20003028   Data           4  bsp.o(.data)
    current_long_push_pin_no                 0x2000302c   Data           1  bsp.o(.data)
    release_event_at_push                    0x2000302d   Data           4  bsp.o(.data)
    .data                                    0x20003034   Section        8  bsp_btn_ble.o(.data)
    m_error_handler                          0x20003034   Data           4  bsp_btn_ble.o(.data)
    m_num_connections                        0x20003038   Data           4  bsp_btn_ble.o(.data)
    .data                                    0x2000303c   Section       13  ble_db_discovery.o(.data)
    m_evt_handler                            0x2000303c   Data           4  ble_db_discovery.o(.data)
    mp_gatt_queue                            0x20003040   Data           4  ble_db_discovery.o(.data)
    m_num_of_handlers_reg                    0x20003044   Data           4  ble_db_discovery.o(.data)
    m_initialized                            0x20003048   Data           1  ble_db_discovery.o(.data)
    .data                                    0x2000304c   Section        9  nrf_drv_uart.o(.data)
    m_handlers                               0x2000304c   Data           4  nrf_drv_uart.o(.data)
    m_contexts                               0x20003050   Data           4  nrf_drv_uart.o(.data)
    .data                                    0x20003058   Section        8  nrfx_clock.o(.data)
    m_clock_cb                               0x20003058   Data           8  nrfx_clock.o(.data)
    .data                                    0x20003060   Section        8  nrfx_prs.o(.data)
    m_prs_box_2                              0x20003060   Data           8  nrfx_prs.o(.data)
    .data                                    0x20003068   Section       24  app_button.o(.data)
    mp_buttons                               0x20003068   Data           4  app_button.o(.data)
    m_button_count                           0x2000306c   Data           1  app_button.o(.data)
    m_detection_delay                        0x20003070   Data           4  app_button.o(.data)
    m_pin_active                             0x20003078   Data           8  app_button.o(.data)
    .data                                    0x20003080   Section       36  app_timer2.o(.data)
    m_rtc_inst                               0x20003080   Data           8  app_timer2.o(.data)
    mp_active_timer                          0x20003088   Data           4  app_timer2.o(.data)
    m_global_active                          0x2000308c   Data           1  app_timer2.o(.data)
    m_base_counter                           0x20003090   Data           8  app_timer2.o(.data)
    m_stamp64                                0x20003098   Data           8  app_timer2.o(.data)
    m_app_timer_sortlist_sortlist_cb         0x200030a0   Data           4  app_timer2.o(.data)
    .data                                    0x200030a4   Section       27  app_uart_fifo.o(.data)
    app_uart_inst                            0x200030a4   Data          20  app_uart_fifo.o(.data)
    m_event_handler                          0x200030b8   Data           4  app_uart_fifo.o(.data)
    tx_buffer                                0x200030bc   Data           1  app_uart_fifo.o(.data)
    rx_buffer                                0x200030bd   Data           1  app_uart_fifo.o(.data)
    m_rx_ovf                                 0x200030be   Data           1  app_uart_fifo.o(.data)
    .data                                    0x200030c0   Section       12  drv_rtc.o(.data)
    m_handlers                               0x200030c0   Data           4  drv_rtc.o(.data)
    m_cb                                     0x200030c4   Data           8  drv_rtc.o(.data)
    .data                                    0x200030cc   Section        9  nrf_pwr_mgmt.o(.data)
    m_pwr_mgmt_evt                           0x200030cc   Data           1  nrf_pwr_mgmt.o(.data)
    m_sysoff_mtx                             0x200030d0   Data           4  nrf_pwr_mgmt.o(.data)
    m_shutdown_started                       0x200030d4   Data           1  nrf_pwr_mgmt.o(.data)
    .data                                    0x200030d8   Section        8  retarget.o(.data)
    .data                                    0x200030e0   Section        1  nrf_log_backend_rtt.o(.data)
    m_host_present                           0x200030e0   Data           1  nrf_log_backend_rtt.o(.data)
    .data                                    0x200030e4   Section        8  nrf_log_default_backends.o(.data)
    log_backend_cb_rtt_log_backend           0x200030e4   Data           8  nrf_log_default_backends.o(.data)
    .data                                    0x200030ec   Section       20  nrf_log_frontend.o(.data)
    log_mempool_nrf_balloc_pool_stack        0x200030ec   Data           8  nrf_log_frontend.o(.data)
    log_mempool_nrf_balloc_cb                0x200030f4   Data           8  nrf_log_frontend.o(.data)
    m_buffer_mask                            0x200030fc   Data           4  nrf_log_frontend.o(.data)
    .data                                    0x20003100   Section       64  nrf_log_str_formatter.o(.data)
    severity_names                           0x20003100   Data          20  nrf_log_str_formatter.o(.data)
    m_colors                                 0x20003114   Data          36  nrf_log_str_formatter.o(.data)
    m_freq                                   0x20003138   Data           4  nrf_log_str_formatter.o(.data)
    m_timestamp_div                          0x2000313c   Data           4  nrf_log_str_formatter.o(.data)
    .data                                    0x20003140   Section        3  nrf_sdh.o(.data)
    m_nrf_sdh_enabled                        0x20003140   Data           1  nrf_sdh.o(.data)
    m_nrf_sdh_suspended                      0x20003141   Data           1  nrf_sdh.o(.data)
    m_nrf_sdh_continue                       0x20003142   Data           1  nrf_sdh.o(.data)
    .data                                    0x20003143   Section        1  nrf_sdh_ble.o(.data)
    m_stack_is_enabled                       0x20003143   Data           1  nrf_sdh_ble.o(.data)
    .data                                    0x20003144   Section        4  system_nrf52_1.o(.data)
    __tagsym$$used                           0x20003144   Number         0  system_nrf52_1.o(.data)
    .bss                                     0x20003148   Section      808  main.o(.bss)
    m_ble_nus_c                              0x20003148   Data          24  main.o(.bss)
    m_gatt                                   0x20003160   Data          20  main.o(.bss)
    m_scan                                   0x20003174   Data          80  main.o(.bss)
    m_ble_gatt_queuereq_queue0_nrf_queue_buffer 0x200031c4   Data         160  main.o(.bss)
    m_ble_gatt_queuereq_queue0_nrf_queue_cb  0x20003264   Data          12  main.o(.bss)
    m_ble_gatt_queuepurge_queue_nrf_queue_cb 0x20003270   Data          12  main.o(.bss)
    m_ble_gatt_queuepool_nrf_balloc_pool_mem 0x2000327c   Data         192  main.o(.bss)
    data_array                               0x2000333c   Data         244  main.o(.bss)
    rx_buf                                   0x20003430   Data          32  main.o(.bss)
    tx_buf                                   0x20003450   Data          32  main.o(.bss)
    .bss                                     0x20003470   Section       48  bsp.o(.bss)
    m_events_list                            0x20003470   Data          12  bsp.o(.bss)
    m_bsp_button_tmr_data                    0x20003480   Data          32  bsp.o(.bss)
    .bss                                     0x200034a0   Section       24  ble_db_discovery.o(.bss)
    m_registered_handlers                    0x200034a0   Data          24  ble_db_discovery.o(.bss)
    .bss                                     0x200034b8   Section       20  nrf_drv_clock.o(.bss)
    m_clock_cb                               0x200034b8   Data          20  nrf_drv_clock.o(.bss)
    .bss                                     0x200034cc   Section       92  nrfx_gpiote.o(.bss)
    m_cb                                     0x200034cc   Data          92  nrfx_gpiote.o(.bss)
    .bss                                     0x20003528   Section       44  nrfx_uart.o(.bss)
    m_cb                                     0x20003528   Data          44  nrfx_uart.o(.bss)
    .bss                                     0x20003554   Section       36  nrfx_uarte.o(.bss)
    m_cb                                     0x20003554   Data          36  nrfx_uarte.o(.bss)
    .bss                                     0x20003578   Section       48  app_button.o(.bss)
    m_detection_delay_timer_id_data          0x20003578   Data          32  app_button.o(.bss)
    m_pin_states                             0x20003598   Data          16  app_button.o(.bss)
    .bss                                     0x200035a8   Section      104  app_timer2.o(.bss)
    m_req_fifo_data                          0x200035a8   Data          88  app_timer2.o(.bss)
    m_req_fifo_inst                          0x20003600   Data          16  app_timer2.o(.bss)
    .bss                                     0x20003610   Section       32  app_uart_fifo.o(.bss)
    m_rx_fifo                                0x20003610   Data          16  app_uart_fifo.o(.bss)
    m_tx_fifo                                0x20003620   Data          16  app_uart_fifo.o(.bss)
    .bss                                     0x20003630   Section       12  app_util_platform.o(.bss)
    .bss                                     0x2000363c   Section       12  nrf_pwr_mgmt.o(.bss)
    m_handlers_iter                          0x2000363c   Data          12  nrf_pwr_mgmt.o(.bss)
    .bss                                     0x20003648   Section       64  nrf_log_backend_rtt.o(.bss)
    m_string_buff                            0x20003648   Data          64  nrf_log_backend_rtt.o(.bss)
    .bss                                     0x20003688   Section     1400  nrf_log_frontend.o(.bss)
    log_mempool_nrf_balloc_pool_mem          0x20003688   Data         192  nrf_log_frontend.o(.bss)
    m_log_push_ringbuf_buf                   0x20003748   Data         128  nrf_log_frontend.o(.bss)
    m_log_push_ringbuf_cb                    0x200037c8   Data          24  nrf_log_frontend.o(.bss)
    m_log_data                               0x200037e0   Data        1056  nrf_log_frontend.o(.bss)
    .bss                                     0x20003c00   Section      648  segger_rtt.o(.bss)
    _acUpBuffer                              0x20003c78   Data         512  segger_rtt.o(.bss)
    _acDownBuffer                            0x20003e78   Data          16  segger_rtt.o(.bss)
    STACK                                    0x20003e88   Section     8192  arm_startup_nrf52805.o(STACK)

    Global Symbols

    Symbol Name                              Value     Ov Type        Size  Object(Section)

    BuildAttributes$$THM_ISAv4$E$P$D$K$B$S$7EM$PE$A:L22UL41UL21$X:L11$S22US41US21$IEEE1$IW$USESV6$~STKCKD$USESV7$~SHL$OSPACE$ROPI$EBA8$MICROLIB$REQ8$EABIv2 0x00000000   Number         0  anon$$obj.o ABSOLUTE
    __ARM_use_no_argv                        0x00000000   Number         0  main.o ABSOLUTE
    __cpp_initialize__aeabi_                  - Undefined Weak Reference
    __cxa_finalize                            - Undefined Weak Reference
    _clock_init                               - Undefined Weak Reference
    _microlib_exit                            - Undefined Weak Reference
    log_dynamic_data$$Base                    - Undefined Reference
    pwr_mgmt_data0$$Base                      - Undefined Reference
    pwr_mgmt_data0$$Limit                     - Undefined Reference
    pwr_mgmt_data2$$Base                      - Undefined Reference
    pwr_mgmt_data2$$Limit                     - Undefined Reference
    sdh_ble_observers0$$Base                  - Undefined Reference
    sdh_ble_observers0$$Limit                 - Undefined Reference
    sdh_req_observers0$$Base                  - Undefined Reference
    sdh_req_observers0$$Limit                 - Undefined Reference
    sdh_req_observers1$$Base                  - Undefined Reference
    sdh_req_observers1$$Limit                 - Undefined Reference
    sdh_soc_observers1$$Base                  - Undefined Reference
    sdh_soc_observers1$$Limit                 - Undefined Reference
    sdh_stack_observers1$$Base                - Undefined Reference
    sdh_stack_observers1$$Limit               - Undefined Reference
    sdh_state_observers1$$Base                - Undefined Reference
    sdh_state_observers1$$Limit               - Undefined Reference
    __Vectors_Size                           0x00000200   Number         0  arm_startup_nrf52805.o ABSOLUTE
    __Vectors                                0x00026000   Data           4  arm_startup_nrf52805.o(RESET)
    __Vectors_End                            0x00026200   Data           0  arm_startup_nrf52805.o(RESET)
    __main                                   0x00026201   Thumb Code     0  entry.o(.ARM.Collect$$$$00000000)
    _main_stk                                0x00026201   Thumb Code     0  entry2.o(.ARM.Collect$$$$00000001)
    _main_scatterload                        0x00026205   Thumb Code     0  entry5.o(.ARM.Collect$$$$00000004)
    __main_after_scatterload                 0x00026209   Thumb Code     0  entry5.o(.ARM.Collect$$$$00000004)
    _main_clock                              0x00026209   Thumb Code     0  entry7b.o(.ARM.Collect$$$$00000008)
    _main_cpp_init                           0x00026209   Thumb Code     0  entry8b.o(.ARM.Collect$$$$0000000A)
    _main_init                               0x00026209   Thumb Code     0  entry9a.o(.ARM.Collect$$$$0000000B)
    __rt_final_cpp                           0x00026211   Thumb Code     0  entry10a.o(.ARM.Collect$$$$0000000D)
    __rt_final_exit                          0x00026211   Thumb Code     0  entry11a.o(.ARM.Collect$$$$0000000F)
    __asm___12_nrf_atfifo_c_51f461e1__nrf_atfifo_wspace_req 0x00026215   Thumb Code    56  nrf_atfifo.o(.emb_text)
    __asm___12_nrf_atfifo_c_51f461e1__nrf_atfifo_wspace_close 0x0002624d   Thumb Code    18  nrf_atfifo.o(.emb_text)
    __asm___12_nrf_atfifo_c_51f461e1__nrf_atfifo_rspace_req 0x0002625f   Thumb Code    58  nrf_atfifo.o(.emb_text)
    __asm___12_nrf_atfifo_c_51f461e1__nrf_atfifo_rspace_close 0x00026299   Thumb Code    18  nrf_atfifo.o(.emb_text)
    __asm___12_nrf_atfifo_c_51f461e1__nrf_atfifo_space_clear 0x000262ab   Thumb Code    50  nrf_atfifo.o(.emb_text)
    __asm___12_nrf_atomic_c_85ca2469__nrf_atomic_internal_mov 0x000262dd   Thumb Code    24  nrf_atomic.o(.emb_text)
    __asm___12_nrf_atomic_c_85ca2469__nrf_atomic_internal_orr 0x000262f5   Thumb Code    26  nrf_atomic.o(.emb_text)
    __asm___12_nrf_atomic_c_85ca2469__nrf_atomic_internal_and 0x0002630f   Thumb Code    26  nrf_atomic.o(.emb_text)
    __asm___12_nrf_atomic_c_85ca2469__nrf_atomic_internal_eor 0x00026329   Thumb Code    26  nrf_atomic.o(.emb_text)
    __asm___12_nrf_atomic_c_85ca2469__nrf_atomic_internal_add 0x00026343   Thumb Code    26  nrf_atomic.o(.emb_text)
    __asm___12_nrf_atomic_c_85ca2469__nrf_atomic_internal_sub 0x0002635d   Thumb Code    26  nrf_atomic.o(.emb_text)
    __asm___12_nrf_atomic_c_85ca2469__nrf_atomic_internal_cmp_exch 0x00026377   Thumb Code    42  nrf_atomic.o(.emb_text)
    __asm___12_nrf_atomic_c_85ca2469__nrf_atomic_internal_sub_hs 0x000263a1   Thumb Code    30  nrf_atomic.o(.emb_text)
    Reset_Handler                            0x000263c1   Thumb Code     8  arm_startup_nrf52805.o(.text)
    NMI_Handler                              0x000263c9   Thumb Code     2  arm_startup_nrf52805.o(.text)
    HardFault_Handler                        0x000263cb   Thumb Code     2  arm_startup_nrf52805.o(.text)
    MemoryManagement_Handler                 0x000263cd   Thumb Code     2  arm_startup_nrf52805.o(.text)
    BusFault_Handler                         0x000263cf   Thumb Code     2  arm_startup_nrf52805.o(.text)
    UsageFault_Handler                       0x000263d1   Thumb Code     2  arm_startup_nrf52805.o(.text)
    SVC_Handler                              0x000263d3   Thumb Code     2  arm_startup_nrf52805.o(.text)
    DebugMon_Handler                         0x000263d5   Thumb Code     2  arm_startup_nrf52805.o(.text)
    PendSV_Handler                           0x000263d7   Thumb Code     2  arm_startup_nrf52805.o(.text)
    SysTick_Handler                          0x000263d9   Thumb Code     2  arm_startup_nrf52805.o(.text)
    CCM_AAR_IRQHandler                       0x000263db   Thumb Code     0  arm_startup_nrf52805.o(.text)
    ECB_IRQHandler                           0x000263db   Thumb Code     0  arm_startup_nrf52805.o(.text)
    QDEC_IRQHandler                          0x000263db   Thumb Code     0  arm_startup_nrf52805.o(.text)
    RADIO_IRQHandler                         0x000263db   Thumb Code     0  arm_startup_nrf52805.o(.text)
    RNG_IRQHandler                           0x000263db   Thumb Code     0  arm_startup_nrf52805.o(.text)
    RTC0_IRQHandler                          0x000263db   Thumb Code     0  arm_startup_nrf52805.o(.text)
    SAADC_IRQHandler                         0x000263db   Thumb Code     0  arm_startup_nrf52805.o(.text)
    SPIM0_SPIS0_SPI0_IRQHandler              0x000263db   Thumb Code     0  arm_startup_nrf52805.o(.text)
    SWI0_EGU0_IRQHandler                     0x000263db   Thumb Code     0  arm_startup_nrf52805.o(.text)
    SWI1_EGU1_IRQHandler                     0x000263db   Thumb Code     0  arm_startup_nrf52805.o(.text)
    SWI3_IRQHandler                          0x000263db   Thumb Code     0  arm_startup_nrf52805.o(.text)
    SWI4_IRQHandler                          0x000263db   Thumb Code     0  arm_startup_nrf52805.o(.text)
    SWI5_IRQHandler                          0x000263db   Thumb Code     0  arm_startup_nrf52805.o(.text)
    TEMP_IRQHandler                          0x000263db   Thumb Code     0  arm_startup_nrf52805.o(.text)
    TIMER0_IRQHandler                        0x000263db   Thumb Code     0  arm_startup_nrf52805.o(.text)
    TIMER1_IRQHandler                        0x000263db   Thumb Code     0  arm_startup_nrf52805.o(.text)
    TIMER2_IRQHandler                        0x000263db   Thumb Code     0  arm_startup_nrf52805.o(.text)
    TWIM0_TWIS0_TWI0_IRQHandler              0x000263db   Thumb Code     0  arm_startup_nrf52805.o(.text)
    WDT_IRQHandler                           0x000263db   Thumb Code     0  arm_startup_nrf52805.o(.text)
    __aeabi_llsl                             0x000263e5   Thumb Code    30  llshl.o(.text)
    _ll_shift_l                              0x000263e5   Thumb Code     0  llshl.o(.text)
    __rt_ctype_table                         0x00026405   Thumb Code     4  ctype_o.o(.text)
    __aeabi_memcpy                           0x0002640d   Thumb Code    36  memcpya.o(.text)
    __aeabi_memcpy4                          0x0002640d   Thumb Code     0  memcpya.o(.text)
    __aeabi_memcpy8                          0x0002640d   Thumb Code     0  memcpya.o(.text)
    __aeabi_memset                           0x00026431   Thumb Code    14  memseta.o(.text)
    __aeabi_memset4                          0x00026431   Thumb Code     0  memseta.o(.text)
    __aeabi_memset8                          0x00026431   Thumb Code     0  memseta.o(.text)
    __aeabi_memclr                           0x0002643f   Thumb Code     4  memseta.o(.text)
    __aeabi_memclr4                          0x0002643f   Thumb Code     0  memseta.o(.text)
    __aeabi_memclr8                          0x0002643f   Thumb Code     0  memseta.o(.text)
    _memset$wrapper                          0x00026443   Thumb Code    18  memseta.o(.text)
    strlen                                   0x00026455   Thumb Code    14  strlen.o(.text)
    memcmp                                   0x00026463   Thumb Code    26  memcmp.o(.text)
    strcpy                                   0x0002647d   Thumb Code    18  strcpy.o(.text)
    __scatterload                            0x00026491   Thumb Code    28  init.o(.text)
    __scatterload_rt2                        0x00026491   Thumb Code     0  init.o(.text)
    __decompress                             0x000264b5   Thumb Code     0  __dczerorl2.o(.text)
    __decompress1                            0x000264b5   Thumb Code    86  __dczerorl2.o(.text)
    GPIOTE_IRQHandler                        0x0002650d   Thumb Code   180  nrfx_gpiote.o(i.GPIOTE_IRQHandler)
    POWER_CLOCK_IRQHandler                   0x000265c9   Thumb Code    68  nrfx_clock.o(i.POWER_CLOCK_IRQHandler)
    RTC1_IRQHandler                          0x00026611   Thumb Code    14  drv_rtc.o(i.RTC1_IRQHandler)
    SEGGER_RTT_Init                          0x00026629   Thumb Code     8  segger_rtt.o(i.SEGGER_RTT_Init)
    SEGGER_RTT_WriteNoLock                   0x00026631   Thumb Code   126  segger_rtt.o(i.SEGGER_RTT_WriteNoLock)
    SWI2_IRQHandler                          0x000266b5   Thumb Code     8  nrf_sdh.o(i.SWI2_IRQHandler)
    SystemCoreClockUpdate                    0x000266bd   Thumb Code     8  system_nrf52_1.o(i.SystemCoreClockUpdate)
    SystemInit                               0x000266cd   Thumb Code   558  system_nrf52_1.o(i.SystemInit)
    UARTE0_UART0_IRQHandler                  0x00026939   Thumb Code    10  nrfx_prs.o(i.UARTE0_UART0_IRQHandler)
    __0printf$bare                           0x00026a95   Thumb Code     8  printfb.o(i.__0printf$bare)
    __1printf$bare                           0x00026a95   Thumb Code     0  printfb.o(i.__0printf$bare)
    __2printf                                0x00026a95   Thumb Code     0  printfb.o(i.__0printf$bare)
    __scatterload_copy                       0x00026aa5   Thumb Code    14  handlers.o(i.__scatterload_copy)
    __scatterload_null                       0x00026ab3   Thumb Code     2  handlers.o(i.__scatterload_null)
    __scatterload_zeroinit                   0x00026ab5   Thumb Code    14  handlers.o(i.__scatterload_zeroinit)
    app_button_enable                        0x00026be1   Thumb Code    34  app_button.o(i.app_button_enable)
    app_button_init                          0x00026c0d   Thumb Code   140  app_button.o(i.app_button_init)
    app_error_fault_handler                  0x00026cbd   Thumb Code   144  app_error_weak.o(i.app_error_fault_handler)
    app_error_handler_bare                   0x00026d79   Thumb Code    28  app_error.o(i.app_error_handler_bare)
    app_fifo_get                             0x00026d95   Thumb Code    30  app_fifo.o(i.app_fifo_get)
    app_fifo_init                            0x00026db3   Thumb Code    36  app_fifo.o(i.app_fifo_init)
    app_fifo_put                             0x00026dd7   Thumb Code    34  app_fifo.o(i.app_fifo_put)
    app_timer_cnt_get                        0x00026df9   Thumb Code    10  app_timer2.o(i.app_timer_cnt_get)
    app_timer_create                         0x00026e09   Thumb Code    32  app_timer2.o(i.app_timer_create)
    app_timer_init                           0x00026e29   Thumb Code    78  app_timer2.o(i.app_timer_init)
    app_timer_start                          0x00026e95   Thumb Code    54  app_timer2.o(i.app_timer_start)
    app_timer_stop                           0x00026ecb   Thumb Code    20  app_timer2.o(i.app_timer_stop)
    app_uart_get                             0x00026ee1   Thumb Code    66  app_uart_fifo.o(i.app_uart_get)
    app_uart_init                            0x00026f35   Thumb Code   188  app_uart_fifo.o(i.app_uart_init)
    app_uart_put                             0x00027011   Thumb Code    90  app_uart_fifo.o(i.app_uart_put)
    app_util_critical_region_enter           0x0002707d   Thumb Code    12  app_util_platform.o(i.app_util_critical_region_enter)
    app_util_critical_region_exit            0x00027089   Thumb Code    62  app_util_platform.o(i.app_util_critical_region_exit)
    ble_advdata_search                       0x00027205   Thumb Code    92  ble_advdata.o(i.ble_advdata_search)
    ble_advdata_uuid_find                    0x00027261   Thumb Code   208  ble_advdata.o(i.ble_advdata_uuid_find)
    ble_db_discovery_evt_register            0x00027331   Thumb Code    42  ble_db_discovery.o(i.ble_db_discovery_evt_register)
    ble_db_discovery_init                    0x00027365   Thumb Code    66  ble_db_discovery.o(i.ble_db_discovery_init)
    ble_db_discovery_on_ble_evt              0x000273b9   Thumb Code   106  ble_db_discovery.o(i.ble_db_discovery_on_ble_evt)
    ble_db_discovery_start                   0x00027429   Thumb Code    62  ble_db_discovery.o(i.ble_db_discovery_start)
    ble_nus_c_handles_assign                 0x000277a9   Thumb Code    44  ble_nus_c.o(i.ble_nus_c_handles_assign)
    ble_nus_c_init                           0x000277d5   Thumb Code   114  ble_nus_c.o(i.ble_nus_c_init)
    ble_nus_c_on_ble_evt                     0x0002784d   Thumb Code   102  ble_nus_c.o(i.ble_nus_c_on_ble_evt)
    ble_nus_c_on_db_disc_evt                 0x000278b3   Thumb Code   148  ble_nus_c.o(i.ble_nus_c_on_db_disc_evt)
    ble_nus_c_string_send                    0x00027949   Thumb Code   146  ble_nus_c.o(i.ble_nus_c_string_send)
    ble_nus_c_tx_notif_enable                0x00027a19   Thumb Code    42  ble_nus_c.o(i.ble_nus_c_tx_notif_enable)
    bsp_board_button_idx_to_pin              0x00027b39   Thumb Code     8  boards.o(i.bsp_board_button_idx_to_pin)
    bsp_board_button_state_get               0x00027b45   Thumb Code    44  boards.o(i.bsp_board_button_state_get)
    bsp_board_pin_to_button_idx              0x00027b75   Thumb Code    32  boards.o(i.bsp_board_pin_to_button_idx)
    bsp_btn_ble_init                         0x00027b99   Thumb Code    36  bsp_btn_ble.o(i.bsp_btn_ble_init)
    bsp_btn_ble_sleep_mode_prepare           0x00027bc5   Thumb Code    50  bsp_btn_ble.o(i.bsp_btn_ble_sleep_mode_prepare)
    bsp_button_is_pressed                    0x00027cbd   Thumb Code    20  bsp.o(i.bsp_button_is_pressed)
    bsp_event_handler                        0x00027cd1   Thumb Code    60  main.o(i.bsp_event_handler)
    bsp_event_to_button_action_assign        0x00027d11   Thumb Code    86  bsp.o(i.bsp_event_to_button_action_assign)
    bsp_indication_set                       0x00027d6d   Thumb Code     6  bsp.o(i.bsp_indication_set)
    bsp_init                                 0x00027d75   Thumb Code    92  bsp.o(i.bsp_init)
    bsp_wakeup_button_enable                 0x00027de1   Thumb Code    14  bsp.o(i.bsp_wakeup_button_enable)
    buffer_is_empty                          0x00027f05   Thumb Code    20  nrf_log_frontend.o(i.buffer_is_empty)
    drv_rtc_compare_disable                  0x000286e1   Thumb Code    22  drv_rtc.o(i.drv_rtc_compare_disable)
    drv_rtc_compare_pending                  0x000286f7   Thumb Code    26  drv_rtc.o(i.drv_rtc_compare_pending)
    drv_rtc_compare_set                      0x00028711   Thumb Code    92  drv_rtc.o(i.drv_rtc_compare_set)
    drv_rtc_counter_get                      0x0002876d   Thumb Code    12  drv_rtc.o(i.drv_rtc_counter_get)
    drv_rtc_init                             0x00028779   Thumb Code   216  drv_rtc.o(i.drv_rtc_init)
    drv_rtc_irq_trigger                      0x000288a1   Thumb Code    32  drv_rtc.o(i.drv_rtc_irq_trigger)
    drv_rtc_overflow_enable                  0x000288c5   Thumb Code    18  drv_rtc.o(i.drv_rtc_overflow_enable)
    drv_rtc_overflow_pending                 0x000288d7   Thumb Code    16  drv_rtc.o(i.drv_rtc_overflow_pending)
    drv_rtc_start                            0x000288e7   Thumb Code    14  drv_rtc.o(i.drv_rtc_start)
    drv_rtc_stop                             0x000288f5   Thumb Code    14  drv_rtc.o(i.drv_rtc_stop)
    drv_rtc_windowed_compare_set             0x00028903   Thumb Code   252  drv_rtc.o(i.drv_rtc_windowed_compare_set)
    evt_handle                               0x00028a35   Thumb Code   234  app_button.o(i.evt_handle)
    fputc                                    0x00028b91   Thumb Code    16  retarget.o(i.fputc)
    gatt_evt_handler                         0x00028bbd   Thumb Code    72  main.o(i.gatt_evt_handler)
    gatt_init                                0x00028c55   Thumb Code    60  main.o(i.gatt_init)
    is_whitelist_used                        0x0002909f   Thumb Code    30  nrf_ble_scan.o(i.is_whitelist_used)
    main                                     0x00029215   Thumb Code    78  main.o(i.main)
    nrf_atfifo_init                          0x000297d5   Thumb Code    40  nrf_atfifo.o(i.nrf_atfifo_init)
    nrf_atfifo_item_alloc                    0x000297fd   Thumb Code    28  nrf_atfifo.o(i.nrf_atfifo_item_alloc)
    nrf_atfifo_item_free                     0x00029819   Thumb Code    28  nrf_atfifo.o(i.nrf_atfifo_item_free)
    nrf_atfifo_item_get                      0x00029835   Thumb Code    28  nrf_atfifo.o(i.nrf_atfifo_item_get)
    nrf_atfifo_item_put                      0x00029851   Thumb Code    28  nrf_atfifo.o(i.nrf_atfifo_item_put)
    nrf_atomic_flag_clear_fetch              0x0002986d   Thumb Code    14  nrf_atomic.o(i.nrf_atomic_flag_clear_fetch)
    nrf_atomic_flag_set                      0x0002987b   Thumb Code    14  nrf_atomic.o(i.nrf_atomic_flag_set)
    nrf_atomic_u32_add                       0x00029889   Thumb Code    22  nrf_atomic.o(i.nrf_atomic_u32_add)
    nrf_atomic_u32_fetch_and                 0x0002989f   Thumb Code    22  nrf_atomic.o(i.nrf_atomic_u32_fetch_and)
    nrf_atomic_u32_fetch_store               0x000298b5   Thumb Code    22  nrf_atomic.o(i.nrf_atomic_u32_fetch_store)
    nrf_atomic_u32_or                        0x000298cb   Thumb Code    22  nrf_atomic.o(i.nrf_atomic_u32_or)
    nrf_atomic_u32_sub                       0x000298e1   Thumb Code    22  nrf_atomic.o(i.nrf_atomic_u32_sub)
    nrf_balloc_alloc                         0x000298f7   Thumb Code    82  nrf_balloc.o(i.nrf_balloc_alloc)
    nrf_balloc_free                          0x00029959   Thumb Code    48  nrf_balloc.o(i.nrf_balloc_free)
    nrf_balloc_init                          0x00029995   Thumb Code    60  nrf_balloc.o(i.nrf_balloc_init)
    nrf_ble_gatt_att_mtu_central_set         0x000299e7   Thumb Code    30  nrf_ble_gatt.o(i.nrf_ble_gatt_att_mtu_central_set)
    nrf_ble_gatt_init                        0x00029a05   Thumb Code    52  nrf_ble_gatt.o(i.nrf_ble_gatt_init)
    nrf_ble_gatt_on_ble_evt                  0x00029a39   Thumb Code   202  nrf_ble_gatt.o(i.nrf_ble_gatt_on_ble_evt)
    nrf_ble_gq_conn_handle_register          0x00029b41   Thumb Code    84  nrf_ble_gq.o(i.nrf_ble_gq_conn_handle_register)
    nrf_ble_gq_item_add                      0x00029b95   Thumb Code   208  nrf_ble_gq.o(i.nrf_ble_gq_item_add)
    nrf_ble_gq_on_ble_evt                    0x00029c69   Thumb Code   134  nrf_ble_gq.o(i.nrf_ble_gq_on_ble_evt)
    nrf_ble_scan_filter_set                  0x00029d79   Thumb Code    52  nrf_ble_scan.o(i.nrf_ble_scan_filter_set)
    nrf_ble_scan_filters_disable             0x00029dad   Thumb Code    22  nrf_ble_scan.o(i.nrf_ble_scan_filters_disable)
    nrf_ble_scan_filters_enable              0x00029dc3   Thumb Code    78  nrf_ble_scan.o(i.nrf_ble_scan_filters_enable)
    nrf_ble_scan_init                        0x00029e11   Thumb Code   120  nrf_ble_scan.o(i.nrf_ble_scan_init)
    nrf_ble_scan_on_ble_evt                  0x00029f57   Thumb Code    70  nrf_ble_scan.o(i.nrf_ble_scan_on_ble_evt)
    nrf_ble_scan_start                       0x0002a009   Thumb Code   102  nrf_ble_scan.o(i.nrf_ble_scan_start)
    nrf_ble_scan_stop                        0x0002a09d   Thumb Code     4  nrf_ble_scan.o(i.nrf_ble_scan_stop)
    nrf_drv_clock_init                       0x0002a119   Thumb Code    66  nrf_drv_clock.o(i.nrf_drv_clock_init)
    nrf_drv_clock_lfclk_release              0x0002a165   Thumb Code    42  nrf_drv_clock.o(i.nrf_drv_clock_lfclk_release)
    nrf_drv_uart_init                        0x0002a195   Thumb Code   118  nrf_drv_uart.o(i.nrf_drv_uart_init)
    nrf_fprintf                              0x0002a2a9   Thumb Code    42  nrf_fprintf.o(i.nrf_fprintf)
    nrf_fprintf_buffer_flush                 0x0002a2d3   Thumb Code    28  nrf_fprintf.o(i.nrf_fprintf_buffer_flush)
    nrf_fprintf_fmt                          0x0002a2ef   Thumb Code   496  nrf_fprintf_format.o(i.nrf_fprintf_fmt)
    nrf_log_backend_add                      0x0002a6d5   Thumb Code    78  nrf_log_frontend.o(i.nrf_log_backend_add)
    nrf_log_backend_rtt_init                 0x0002a72b   Thumb Code     8  nrf_log_backend_rtt.o(i.nrf_log_backend_rtt_init)
    nrf_log_backend_serial_put               0x0002a755   Thumb Code   242  nrf_log_backend_serial.o(i.nrf_log_backend_serial_put)
    nrf_log_color_id_get                     0x0002a849   Thumb Code    52  nrf_log_frontend.o(i.nrf_log_color_id_get)
    nrf_log_default_backends_init            0x0002a881   Thumb Code    34  nrf_log_default_backends.o(i.nrf_log_default_backends_init)
    nrf_log_frontend_dequeue                 0x0002a8a9   Thumb Code   756  nrf_log_frontend.o(i.nrf_log_frontend_dequeue)
    nrf_log_frontend_std_0                   0x0002abc5   Thumb Code    20  nrf_log_frontend.o(i.nrf_log_frontend_std_0)
    nrf_log_frontend_std_1                   0x0002abd9   Thumb Code    24  nrf_log_frontend.o(i.nrf_log_frontend_std_1)
    nrf_log_frontend_std_2                   0x0002abf1   Thumb Code    32  nrf_log_frontend.o(i.nrf_log_frontend_std_2)
    nrf_log_frontend_std_3                   0x0002ac11   Thumb Code    40  nrf_log_frontend.o(i.nrf_log_frontend_std_3)
    nrf_log_frontend_std_6                   0x0002ac39   Thumb Code    60  nrf_log_frontend.o(i.nrf_log_frontend_std_6)
    nrf_log_hexdump_entry_process            0x0002ac75   Thumb Code   164  nrf_log_str_formatter.o(i.nrf_log_hexdump_entry_process)
    nrf_log_init                             0x0002ad31   Thumb Code    50  nrf_log_frontend.o(i.nrf_log_init)
    nrf_log_module_cnt_get                   0x0002ad79   Thumb Code    10  nrf_log_frontend.o(i.nrf_log_module_cnt_get)
    nrf_log_module_name_get                  0x0002ad8d   Thumb Code    30  nrf_log_frontend.o(i.nrf_log_module_name_get)
    nrf_log_panic                            0x0002adb1   Thumb Code    48  nrf_log_frontend.o(i.nrf_log_panic)
    nrf_log_std_entry_process                0x0002ade5   Thumb Code   200  nrf_log_str_formatter.o(i.nrf_log_std_entry_process)
    nrf_memobj_alloc                         0x0002aead   Thumb Code   122  nrf_memobj.o(i.nrf_memobj_alloc)
    nrf_memobj_free                          0x0002af27   Thumb Code    64  nrf_memobj.o(i.nrf_memobj_free)
    nrf_memobj_get                           0x0002af67   Thumb Code    16  nrf_memobj.o(i.nrf_memobj_get)
    nrf_memobj_pool_init                     0x0002af77   Thumb Code    12  nrf_memobj.o(i.nrf_memobj_pool_init)
    nrf_memobj_put                           0x0002af83   Thumb Code    30  nrf_memobj.o(i.nrf_memobj_put)
    nrf_memobj_read                          0x0002afa1   Thumb Code    34  nrf_memobj.o(i.nrf_memobj_read)
    nrf_memobj_write                         0x0002afc3   Thumb Code    34  nrf_memobj.o(i.nrf_memobj_write)
    nrf_pwr_mgmt_init                        0x0002affd   Thumb Code    46  nrf_pwr_mgmt.o(i.nrf_pwr_mgmt_init)
    nrf_pwr_mgmt_run                         0x0002b03d   Thumb Code    22  nrf_pwr_mgmt.o(i.nrf_pwr_mgmt_run)
    nrf_pwr_mgmt_shutdown                    0x0002b055   Thumb Code    88  nrf_pwr_mgmt.o(i.nrf_pwr_mgmt_shutdown)
    nrf_queue_generic_pop                    0x0002b0b9   Thumb Code   156  nrf_queue.o(i.nrf_queue_generic_pop)
    nrf_queue_is_empty                       0x0002b155   Thumb Code    22  nrf_queue.o(i.nrf_queue_is_empty)
    nrf_queue_is_full                        0x0002b16b   Thumb Code    32  nrf_queue.o(i.nrf_queue_is_full)
    nrf_queue_push                           0x0002b19b   Thumb Code   204  nrf_queue.o(i.nrf_queue_push)
    nrf_ringbuf_init                         0x0002b267   Thumb Code    28  nrf_ringbuf.o(i.nrf_ringbuf_init)
    nrf_sdh_ble_app_ram_start_get            0x0002b2cd   Thumb Code    18  nrf_sdh_ble.o(i.nrf_sdh_ble_app_ram_start_get)
    nrf_sdh_ble_default_cfg_set              0x0002b2e5   Thumb Code   378  nrf_sdh_ble.o(i.nrf_sdh_ble_default_cfg_set)
    nrf_sdh_ble_enable                       0x0002b481   Thumb Code   144  nrf_sdh_ble.o(i.nrf_sdh_ble_enable)
    nrf_sdh_enable_request                   0x0002b641   Thumb Code   112  nrf_sdh.o(i.nrf_sdh_enable_request)
    nrf_sdh_evts_poll                        0x0002b6c5   Thumb Code    44  nrf_sdh.o(i.nrf_sdh_evts_poll)
    nrf_sdh_is_enabled                       0x0002b6f5   Thumb Code     6  nrf_sdh.o(i.nrf_sdh_is_enabled)
    nrf_section_iter_init                    0x0002b75b   Thumb Code    20  nrf_section_iter.o(i.nrf_section_iter_init)
    nrf_section_iter_next                    0x0002b79d   Thumb Code    46  nrf_section_iter.o(i.nrf_section_iter_next)
    nrf_sortlist_add                         0x0002b7cb   Thumb Code    40  nrf_sortlist.o(i.nrf_sortlist_add)
    nrf_sortlist_peek                        0x0002b7f3   Thumb Code     8  nrf_sortlist.o(i.nrf_sortlist_peek)
    nrf_sortlist_pop                         0x0002b7fb   Thumb Code    24  nrf_sortlist.o(i.nrf_sortlist_pop)
    nrf_sortlist_remove                      0x0002b813   Thumb Code    38  nrf_sortlist.o(i.nrf_sortlist_remove)
    nrf_strerror_find                        0x0002b839   Thumb Code    60  nrf_strerror.o(i.nrf_strerror_find)
    nrf_strerror_get                         0x0002b879   Thumb Code    22  nrf_strerror.o(i.nrf_strerror_get)
    nrfx_clock_enable                        0x0002b985   Thumb Code    16  nrfx_clock.o(i.nrfx_clock_enable)
    nrfx_clock_init                          0x0002b999   Thumb Code    26  nrfx_clock.o(i.nrfx_clock_init)
    nrfx_clock_lfclk_stop                    0x0002b9b9   Thumb Code    40  nrfx_clock.o(i.nrfx_clock_lfclk_stop)
    nrfx_gpiote_in_event_enable              0x0002ba1d   Thumb Code   168  nrfx_gpiote.o(i.nrfx_gpiote_in_event_enable)
    nrfx_gpiote_in_init                      0x0002bac9   Thumb Code   232  nrfx_gpiote.o(i.nrfx_gpiote_in_init)
    nrfx_gpiote_in_is_set                    0x0002bbbd   Thumb Code    20  nrfx_gpiote.o(i.nrfx_gpiote_in_is_set)
    nrfx_gpiote_init                         0x0002bbd1   Thumb Code   196  nrfx_gpiote.o(i.nrfx_gpiote_init)
    nrfx_gpiote_is_init                      0x0002bca5   Thumb Code    16  nrfx_gpiote.o(i.nrfx_gpiote_is_init)
    nrfx_prs_acquire                         0x0002bd7d   Thumb Code    78  nrfx_prs.o(i.nrfx_prs_acquire)
    nrfx_uart_0_irq_handler                  0x0002bdcd   Thumb Code    12  nrfx_uart.o(i.nrfx_uart_0_irq_handler)
    nrfx_uart_init                           0x0002bde1   Thumb Code   128  nrfx_uart.o(i.nrfx_uart_init)
    nrfx_uart_rx                             0x0002be69   Thumb Code   286  nrfx_uart.o(i.nrfx_uart_rx)
    nrfx_uart_tx                             0x0002bf8d   Thumb Code   134  nrfx_uart.o(i.nrfx_uart_tx)
    nrfx_uart_tx_in_progress                 0x0002c019   Thumb Code    30  nrfx_uart.o(i.nrfx_uart_tx_in_progress)
    nrfx_uarte_0_irq_handler                 0x0002c03d   Thumb Code    12  nrfx_uarte.o(i.nrfx_uarte_0_irq_handler)
    nrfx_uarte_init                          0x0002c051   Thumb Code   120  nrfx_uarte.o(i.nrfx_uarte_init)
    nrfx_uarte_rx                            0x0002c0d1   Thumb Code   306  nrfx_uarte.o(i.nrfx_uarte_rx)
    nrfx_uarte_tx                            0x0002c209   Thumb Code   188  nrfx_uarte.o(i.nrfx_uarte_tx)
    nrfx_uarte_tx_in_progress                0x0002c2c9   Thumb Code    26  nrfx_uarte.o(i.nrfx_uarte_tx_in_progress)
    nvmc_config                              0x0002c335   Thumb Code    14  system_nrf52_1.o(i.nvmc_config)
    nvmc_wait                                0x0002c349   Thumb Code    12  system_nrf52_1.o(i.nvmc_wait)
    uart_event_handle                        0x0002dc41   Thumb Code   202  main.o(i.uart_event_handle)
    nrf_log_backend_rtt_api                  0x0002e650   Data          12  nrf_log_backend_rtt.o(.constdata)
    m_ram_start                              0x0002e6f8   Data           4  nrf_sdh_ble.o(.constdata)
    __ctype_table                            0x0002e718   Data         129  ctype_o.o(.constdata)
    Region$$Table$$Base                      0x0002f070   Number         0  anon$$obj.o(Region$$Table)
    Region$$Table$$Limit                     0x0002f090   Number         0  anon$$obj.o(Region$$Table)
    log_const_data$$Base                     0x0002f0a0   Number         0  ble_db_discovery.o(log_const_data)
    m_nrf_log_ble_db_disc_logs_data_const    0x0002f0a0   Data           8  ble_db_discovery.o(log_const_data)
    m_nrf_log_nrf_ble_gatt_logs_data_const   0x0002f0a8   Data           8  nrf_ble_gatt.o(log_const_data)
    m_nrf_log_nrf_ble_gq_logs_data_const     0x0002f0b0   Data           8  nrf_ble_gq.o(log_const_data)
    m_nrf_log_ble_scan_logs_data_const       0x0002f0b8   Data           8  nrf_ble_scan.o(log_const_data)
    m_nrf_log_ble_nus_c_logs_data_const      0x0002f0c0   Data           8  ble_nus_c.o(log_const_data)
    m_nrf_log_clock_logs_data_const          0x0002f0c8   Data           8  nrf_drv_clock.o(log_const_data)
    m_nrf_log_CLOCK_logs_data_const          0x0002f0d0   Data           8  nrfx_clock.o(log_const_data)
    m_nrf_log_GPIOTE_logs_data_const         0x0002f0d8   Data           8  nrfx_gpiote.o(log_const_data)
    m_nrf_log_PRS_logs_data_const            0x0002f0e0   Data           8  nrfx_prs.o(log_const_data)
    m_nrf_log_UART_logs_data_const           0x0002f0e8   Data           8  nrfx_uart.o(log_const_data)
    m_nrf_log_UARTE_logs_data_const          0x0002f0f0   Data           8  nrfx_uarte.o(log_const_data)
    m_nrf_log_app_button_logs_data_const     0x0002f0f8   Data           8  app_button.o(log_const_data)
    m_nrf_log_app_timer_logs_data_const      0x0002f100   Data           8  app_timer2.o(log_const_data)
    m_nrf_log_pwr_mgmt_logs_data_const       0x0002f108   Data           8  nrf_pwr_mgmt.o(log_const_data)
    m_nrf_log_sortlist_logs_data_const       0x0002f110   Data           8  nrf_sortlist.o(log_const_data)
    m_nrf_log_app_logs_data_const            0x0002f118   Data           8  nrf_log_frontend.o(log_const_data)
    m_nrf_log_nrf_sdh_logs_data_const        0x0002f120   Data           8  nrf_sdh.o(log_const_data)
    m_nrf_log_nrf_sdh_ble_logs_data_const    0x0002f128   Data           8  nrf_sdh_ble.o(log_const_data)
    m_nrf_log_nrf_sdh_soc_logs_data_const    0x0002f130   Data           8  nrf_sdh_soc.o(log_const_data)
    log_const_data$$Limit                    0x0002f138   Number         0  nrf_sdh_soc.o(log_const_data)
    m_ble_gatt_queuepool                     0x0002f138   Data          20  main.o(nrf_balloc)
    log_mempool                              0x0002f14c   Data          20  nrf_log_frontend.o(nrf_balloc)
    m_ble_gatt_queuepurge_queue              0x0002f160   Data          20  main.o(nrf_queue)
    pwr_mgmt_data1$$Base                     0x0002f174   Number         0  main.o(pwr_mgmt_data1)
    pwr_mgmt_data1$$Limit                    0x0002f178   Number         0  main.o(pwr_mgmt_data1)
    sdh_ble_observers1$$Base                 0x0002f178   Number         0  main.o(sdh_ble_observers1)
    sdh_ble_observers1$$Limit                0x0002f1a0   Number         0  bsp_btn_ble.o(sdh_ble_observers1)
    sdh_ble_observers2$$Base                 0x0002f1a0   Number         0  main.o(sdh_ble_observers2)
    sdh_ble_observers2$$Limit                0x0002f1a8   Number         0  main.o(sdh_ble_observers2)
    sdh_ble_observers3$$Base                 0x0002f1a8   Number         0  main.o(sdh_ble_observers3)
    sdh_ble_observers3$$Limit                0x0002f1b0   Number         0  main.o(sdh_ble_observers3)
    sdh_soc_observers0$$Base                 0x0002f1b0   Number         0  nrf_drv_clock.o(sdh_soc_observers0)
    sdh_soc_observers0$$Limit                0x0002f1b8   Number         0  nrf_drv_clock.o(sdh_soc_observers0)
    sdh_stack_observers0$$Base               0x0002f1b8   Number         0  nrf_sdh_ble.o(sdh_stack_observers0)
    sdh_stack_observers0$$Limit              0x0002f1c8   Number         0  nrf_sdh_soc.o(sdh_stack_observers0)
    sdh_state_observers0$$Base               0x0002f1c8   Number         0  nrf_drv_clock.o(sdh_state_observers0)
    sdh_state_observers0$$Limit              0x0002f1d0   Number         0  nrf_drv_clock.o(sdh_state_observers0)
    Image$$RW_IRAM1$$Base                    0x20002a28   Number         0  anon$$obj.o ABSOLUTE
    nrf_drv_uart_use_easy_dma                0x20003054   Data           1  nrf_drv_uart.o(.data)
    __stdout                                 0x200030d8   Data           4  retarget.o(.data)
    __stdin                                  0x200030dc   Data           4  retarget.o(.data)
    SystemCoreClock                          0x20003144   Data           4  system_nrf52_1.o(.data)
    nrf_nvic_state                           0x20003630   Data          12  app_util_platform.o(.bss)
    _SEGGER_RTT                              0x20003c00   Data         120  segger_rtt.o(.bss)
    __initial_sp                             0x20005e88   Data           0  arm_startup_nrf52805.o(STACK)



==============================================================================

Memory Map of the image

  Image Entry point : 0x00026201

  Load Region LR_IROM1 (Base: 0x00026000, Size: 0x000098f0, Max: 0x0000a000, ABSOLUTE, COMPRESSED[0x00009238])

    Execution Region ER_IROM1 (Exec base: 0x00026000, Load base: 0x00026000, Size: 0x000091d0, Max: 0x0000a000, ABSOLUTE)

    Exec Addr    Load Addr    Size         Type   Attr      Idx    E Section Name        Object

    0x00026000   0x00026000   0x00000200   Data   RO         5603    RESET               arm_startup_nrf52805.o
    0x00026200   0x00026200   0x00000000   Code   RO         7582  * .ARM.Collect$$$$00000000  mc_w.l(entry.o)
    0x00026200   0x00026200   0x00000004   Code   RO         7887    .ARM.Collect$$$$00000001  mc_w.l(entry2.o)
    0x00026204   0x00026204   0x00000004   Code   RO         7890    .ARM.Collect$$$$00000004  mc_w.l(entry5.o)
    0x00026208   0x00026208   0x00000000   Code   RO         7892    .ARM.Collect$$$$00000008  mc_w.l(entry7b.o)
    0x00026208   0x00026208   0x00000000   Code   RO         7894    .ARM.Collect$$$$0000000A  mc_w.l(entry8b.o)
    0x00026208   0x00026208   0x00000008   Code   RO         7895    .ARM.Collect$$$$0000000B  mc_w.l(entry9a.o)
    0x00026210   0x00026210   0x00000000   Code   RO         7897    .ARM.Collect$$$$0000000D  mc_w.l(entry10a.o)
    0x00026210   0x00026210   0x00000000   Code   RO         7899    .ARM.Collect$$$$0000000F  mc_w.l(entry11a.o)
    0x00026210   0x00026210   0x00000004   Code   RO         7888    .ARM.Collect$$$$00002712  mc_w.l(entry2.o)
    0x00026214   0x00026214   0x000000c8   Code   RO         3876    .emb_text           nrf_atfifo.o
    0x000262dc   0x000262dc   0x000000e2   Code   RO         3949    .emb_text           nrf_atomic.o
    0x000263be   0x000263be   0x00000002   PAD
    0x000263c0   0x000263c0   0x00000024   Code   RO         5604    .text               arm_startup_nrf52805.o
    0x000263e4   0x000263e4   0x0000001e   Code   RO         7585    .text               mc_w.l(llshl.o)
    0x00026402   0x00026402   0x00000002   PAD
    0x00026404   0x00026404   0x00000008   Code   RO         7587    .text               mc_w.l(ctype_o.o)
    0x0002640c   0x0002640c   0x00000024   Code   RO         7615    .text               mc_w.l(memcpya.o)
    0x00026430   0x00026430   0x00000024   Code   RO         7617    .text               mc_w.l(memseta.o)
    0x00026454   0x00026454   0x0000000e   Code   RO         7619    .text               mc_w.l(strlen.o)
    0x00026462   0x00026462   0x0000001a   Code   RO         7621    .text               mc_w.l(memcmp.o)
    0x0002647c   0x0002647c   0x00000012   Code   RO         7623    .text               mc_w.l(strcpy.o)
    0x0002648e   0x0002648e   0x00000002   PAD
    0x00026490   0x00026490   0x00000024   Code   RO         7916    .text               mc_w.l(init.o)
    0x000264b4   0x000264b4   0x00000056   Code   RO         7932    .text               mc_w.l(__dczerorl2.o)
    0x0002650a   0x0002650a   0x00000002   PAD
    0x0002650c   0x0002650c   0x000000bc   Code   RO         2069    i.GPIOTE_IRQHandler  nrfx_gpiote.o
    0x000265c8   0x000265c8   0x00000048   Code   RO         1906    i.POWER_CLOCK_IRQHandler  nrfx_clock.o
    0x00026610   0x00026610   0x00000018   Code   RO         3612    i.RTC1_IRQHandler   drv_rtc.o
    0x00026628   0x00026628   0x00000008   Code   RO         5128    i.SEGGER_RTT_Init   segger_rtt.o
    0x00026630   0x00026630   0x00000084   Code   RO         5142    i.SEGGER_RTT_WriteNoLock  segger_rtt.o
    0x000266b4   0x000266b4   0x00000008   Code   RO         5380    i.SWI2_IRQHandler   nrf_sdh.o
    0x000266bc   0x000266bc   0x00000010   Code   RO         5611    i.SystemCoreClockUpdate  system_nrf52_1.o
    0x000266cc   0x000266cc   0x0000026c   Code   RO         5612    i.SystemInit        system_nrf52_1.o
    0x00026938   0x00026938   0x00000010   Code   RO         2439    i.UARTE0_UART0_IRQHandler  nrfx_prs.o
    0x00026948   0x00026948   0x00000070   Code   RO         5146    i._DoInit           segger_rtt.o
    0x000269b8   0x000269b8   0x0000001c   Code   RO         5147    i._GetAvailWriteSpace  segger_rtt.o
    0x000269d4   0x000269d4   0x00000072   Code   RO         5149    i._WriteBlocking    segger_rtt.o
    0x00026a46   0x00026a46   0x0000004c   Code   RO         5150    i._WriteNoCheck     segger_rtt.o
    0x00026a92   0x00026a92   0x00000002   PAD
    0x00026a94   0x00026a94   0x00000010   Code   RO         7628    i.__0printf$bare    mc_w.l(printfb.o)
    0x00026aa4   0x00026aa4   0x0000000e   Code   RO         7926    i.__scatterload_copy  mc_w.l(handlers.o)
    0x00026ab2   0x00026ab2   0x00000002   Code   RO         7927    i.__scatterload_null  mc_w.l(handlers.o)
    0x00026ab4   0x00026ab4   0x0000000e   Code   RO         7928    i.__scatterload_zeroinit  mc_w.l(handlers.o)
    0x00026ac2   0x00026ac2   0x00000002   PAD
    0x00026ac4   0x00026ac4   0x00000038   Code   RO         5381    i.__sd_nvic_app_accessible_irq  nrf_sdh.o
    0x00026afc   0x00026afc   0x0000000c   Code   RO         3534    i.__sd_nvic_irq_disable  app_util_platform.o
    0x00026b08   0x00026b08   0x00000022   Code   RO         7635    i._printf_core      mc_w.l(printfb.o)
    0x00026b2a   0x00026b2a   0x00000060   Code   RO         1308    i.adv_uuid_compare  nrf_ble_scan.o
    0x00026b8a   0x00026b8a   0x00000054   Code   RO          608    i.advertising_buttons_configure  bsp_btn_ble.o
    0x00026bde   0x00026bde   0x00000002   PAD
    0x00026be0   0x00026be0   0x0000002c   Code   RO         2961    i.app_button_enable  app_button.o
    0x00026c0c   0x00026c0c   0x000000b0   Code   RO         2962    i.app_button_init   app_button.o
    0x00026cbc   0x00026cbc   0x000000bc   Code   RO         3119    i.app_error_fault_handler  app_error_weak.o
    0x00026d78   0x00026d78   0x0000001c   Code   RO         3063    i.app_error_handler_bare  app_error.o
    0x00026d94   0x00026d94   0x0000001e   Code   RO         3154    i.app_fifo_get      app_fifo.o
    0x00026db2   0x00026db2   0x00000024   Code   RO         3155    i.app_fifo_init     app_fifo.o
    0x00026dd6   0x00026dd6   0x00000022   Code   RO         3157    i.app_fifo_put      app_fifo.o
    0x00026df8   0x00026df8   0x00000010   Code   RO         3293    i.app_timer_cnt_get  app_timer2.o
    0x00026e08   0x00026e08   0x00000020   Code   RO         3294    i.app_timer_create  app_timer2.o
    0x00026e28   0x00026e28   0x0000006c   Code   RO         3295    i.app_timer_init    app_timer2.o
    0x00026e94   0x00026e94   0x00000036   Code   RO         3298    i.app_timer_start   app_timer2.o
    0x00026eca   0x00026eca   0x00000014   Code   RO         3299    i.app_timer_stop    app_timer2.o
    0x00026ede   0x00026ede   0x00000002   PAD
    0x00026ee0   0x00026ee0   0x00000054   Code   RO         3454    i.app_uart_get      app_uart_fifo.o
    0x00026f34   0x00026f34   0x000000dc   Code   RO         3455    i.app_uart_init     app_uart_fifo.o
    0x00027010   0x00027010   0x0000006c   Code   RO         3456    i.app_uart_put      app_uart_fifo.o
    0x0002707c   0x0002707c   0x0000000c   Code   RO         3535    i.app_util_critical_region_enter  app_util_platform.o
    0x00027088   0x00027088   0x00000048   Code   RO         3536    i.app_util_critical_region_exit  app_util_platform.o
    0x000270d0   0x000270d0   0x0000007c   Code   RO         2493    i.apply_config      nrfx_uart.o
    0x0002714c   0x0002714c   0x0000007c   Code   RO         2738    i.apply_config      nrfx_uarte.o
    0x000271c8   0x000271c8   0x0000003c   Code   RO         4860    i.backend_id_assign  nrf_log_frontend.o
    0x00027204   0x00027204   0x0000005c   Code   RO          726    i.ble_advdata_search  ble_advdata.o
    0x00027260   0x00027260   0x000000d0   Code   RO          728    i.ble_advdata_uuid_find  ble_advdata.o
    0x00027330   0x00027330   0x00000034   Code   RO          855    i.ble_db_discovery_evt_register  ble_db_discovery.o
    0x00027364   0x00027364   0x00000054   Code   RO          856    i.ble_db_discovery_init  ble_db_discovery.o
    0x000273b8   0x000273b8   0x00000070   Code   RO          857    i.ble_db_discovery_on_ble_evt  ble_db_discovery.o
    0x00027428   0x00027428   0x00000048   Code   RO          858    i.ble_db_discovery_start  ble_db_discovery.o
    0x00027470   0x00027470   0x000001c0   Code   RO            5    i.ble_evt_handler   main.o
    0x00027630   0x00027630   0x00000078   Code   RO          609    i.ble_evt_handler   bsp_btn_ble.o
    0x000276a8   0x000276a8   0x00000100   Code   RO            6    i.ble_nus_c_evt_handler  main.o
    0x000277a8   0x000277a8   0x0000002c   Code   RO         1454    i.ble_nus_c_handles_assign  ble_nus_c.o
    0x000277d4   0x000277d4   0x00000078   Code   RO         1455    i.ble_nus_c_init    ble_nus_c.o
    0x0002784c   0x0002784c   0x00000066   Code   RO         1456    i.ble_nus_c_on_ble_evt  ble_nus_c.o
    0x000278b2   0x000278b2   0x00000094   Code   RO         1457    i.ble_nus_c_on_db_disc_evt  ble_nus_c.o
    0x00027946   0x00027946   0x00000002   PAD
    0x00027948   0x00027948   0x000000d0   Code   RO         1458    i.ble_nus_c_string_send  ble_nus_c.o
    0x00027a18   0x00027a18   0x0000002a   Code   RO         1459    i.ble_nus_c_tx_notif_enable  ble_nus_c.o
    0x00027a42   0x00027a42   0x00000002   PAD
    0x00027a44   0x00027a44   0x0000009c   Code   RO            7    i.ble_nus_chars_received_uart_print  main.o
    0x00027ae0   0x00027ae0   0x00000056   Code   RO            8    i.ble_stack_init    main.o
    0x00027b36   0x00027b36   0x00000002   PAD
    0x00027b38   0x00027b38   0x0000000c   Code   RO          452    i.bsp_board_button_idx_to_pin  boards.o
    0x00027b44   0x00027b44   0x00000030   Code   RO          453    i.bsp_board_button_state_get  boards.o
    0x00027b74   0x00027b74   0x00000024   Code   RO          456    i.bsp_board_pin_to_button_idx  boards.o
    0x00027b98   0x00027b98   0x0000002c   Code   RO          610    i.bsp_btn_ble_init  bsp_btn_ble.o
    0x00027bc4   0x00027bc4   0x00000032   Code   RO          611    i.bsp_btn_ble_sleep_mode_prepare  bsp_btn_ble.o
    0x00027bf6   0x00027bf6   0x00000002   PAD
    0x00027bf8   0x00027bf8   0x000000c4   Code   RO          514    i.bsp_button_event_handler  bsp.o
    0x00027cbc   0x00027cbc   0x00000014   Code   RO          515    i.bsp_button_is_pressed  bsp.o
    0x00027cd0   0x00027cd0   0x00000040   Code   RO            9    i.bsp_event_handler  main.o
    0x00027d10   0x00027d10   0x0000005c   Code   RO          518    i.bsp_event_to_button_action_assign  bsp.o
    0x00027d6c   0x00027d6c   0x00000006   Code   RO          519    i.bsp_indication_set  bsp.o
    0x00027d72   0x00027d72   0x00000002   PAD
    0x00027d74   0x00027d74   0x0000006c   Code   RO          520    i.bsp_init          bsp.o
    0x00027de0   0x00027de0   0x0000000e   Code   RO          522    i.bsp_wakeup_button_enable  bsp.o
    0x00027dee   0x00027dee   0x00000002   PAD
    0x00027df0   0x00027df0   0x000000e8   Code   RO         4861    i.buf_prealloc      nrf_log_frontend.o
    0x00027ed8   0x00027ed8   0x0000002c   Code   RO         4177    i.buffer_add        nrf_fprintf_format.o
    0x00027f04   0x00027f04   0x00000018   Code   RO         4862    i.buffer_is_empty   nrf_log_frontend.o
    0x00027f1c   0x00027f1c   0x0000002c   Code   RO         2964    i.button_get        app_button.o
    0x00027f48   0x00027f48   0x0000000e   Code   RO          523    i.button_timer_handler  bsp.o
    0x00027f56   0x00027f56   0x00000002   PAD
    0x00027f58   0x00027f58   0x00000040   Code   RO           10    i.buttons_leds_init  main.o
    0x00027f98   0x00027f98   0x00000060   Code   RO         1460    i.cccd_configure    ble_nus_c.o
    0x00027ff8   0x00027ff8   0x00000020   Code   RO         2070    i.channel_free      nrfx_gpiote.o
    0x00028018   0x00028018   0x00000010   Code   RO         2071    i.channel_handler_get  nrfx_gpiote.o
    0x00028028   0x00028028   0x00000080   Code   RO         2072    i.channel_port_alloc  nrfx_gpiote.o
    0x000280a8   0x000280a8   0x0000000c   Code   RO         2073    i.channel_port_get  nrfx_gpiote.o
    0x000280b4   0x000280b4   0x00000090   Code   RO          859    i.characteristics_discover  ble_db_discovery.o
    0x00028144   0x00028144   0x00000030   Code   RO         1538    i.clock_clk_started_notify  nrf_drv_clock.o
    0x00028174   0x00028174   0x00000028   Code   RO         1539    i.clock_irq_handler  nrf_drv_clock.o
    0x0002819c   0x0002819c   0x00000026   Code   RO         3301    i.compare_func      app_timer2.o
    0x000281c2   0x000281c2   0x00000020   Code   RO         1217    i.conn_handle_id_find  nrf_ble_gq.o
    0x000281e2   0x000281e2   0x00000030   Code   RO         1218    i.conn_handle_register  nrf_ble_gq.o
    0x00028212   0x00028212   0x00000054   Code   RO          612    i.connection_buttons_configure  bsp_btn_ble.o
    0x00028266   0x00028266   0x00000002   PAD
    0x00028268   0x00028268   0x000000e8   Code   RO         1095    i.data_length_update  nrf_ble_gatt.o
    0x00028350   0x00028350   0x00000014   Code   RO           11    i.db_disc_handler   main.o
    0x00028364   0x00028364   0x00000034   Code   RO           12    i.db_discovery_init  main.o
    0x00028398   0x00028398   0x000000e0   Code   RO          860    i.descriptors_discover  ble_db_discovery.o
    0x00028478   0x00028478   0x00000060   Code   RO         2965    i.detection_delay_timeout_handler  app_button.o
    0x000284d8   0x000284d8   0x00000034   Code   RO          861    i.discovery_available_evt_trigger  ble_db_discovery.o
    0x0002850c   0x0002850c   0x000000a8   Code   RO          862    i.discovery_complete_evt_trigger  ble_db_discovery.o
    0x000285b4   0x000285b4   0x00000048   Code   RO          863    i.discovery_error_evt_trigger  ble_db_discovery.o
    0x000285fc   0x000285fc   0x00000028   Code   RO          864    i.discovery_error_handler  ble_db_discovery.o
    0x00028624   0x00028624   0x000000a4   Code   RO          865    i.discovery_start   ble_db_discovery.o
    0x000286c8   0x000286c8   0x00000018   Code   RO         4863    i.dropped_sat16_get  nrf_log_frontend.o
    0x000286e0   0x000286e0   0x00000016   Code   RO         3613    i.drv_rtc_compare_disable  drv_rtc.o
    0x000286f6   0x000286f6   0x0000001a   Code   RO         3616    i.drv_rtc_compare_pending  drv_rtc.o
    0x00028710   0x00028710   0x0000005c   Code   RO         3617    i.drv_rtc_compare_set  drv_rtc.o
    0x0002876c   0x0002876c   0x0000000c   Code   RO         3618    i.drv_rtc_counter_get  drv_rtc.o
    0x00028778   0x00028778   0x00000128   Code   RO         3619    i.drv_rtc_init      drv_rtc.o
    0x000288a0   0x000288a0   0x00000024   Code   RO         3620    i.drv_rtc_irq_trigger  drv_rtc.o
    0x000288c4   0x000288c4   0x00000012   Code   RO         3622    i.drv_rtc_overflow_enable  drv_rtc.o
    0x000288d6   0x000288d6   0x00000010   Code   RO         3623    i.drv_rtc_overflow_pending  drv_rtc.o
    0x000288e6   0x000288e6   0x0000000e   Code   RO         3624    i.drv_rtc_start     drv_rtc.o
    0x000288f4   0x000288f4   0x0000000e   Code   RO         3625    i.drv_rtc_stop      drv_rtc.o
    0x00028902   0x00028902   0x000000fc   Code   RO         3630    i.drv_rtc_windowed_compare_set  drv_rtc.o
    0x000289fe   0x000289fe   0x00000018   Code   RO         3631    i.evt_disable       drv_rtc.o
    0x00028a16   0x00028a16   0x0000001c   Code   RO         3632    i.evt_enable        drv_rtc.o
    0x00028a32   0x00028a32   0x00000002   PAD
    0x00028a34   0x00028a34   0x000000f0   Code   RO         2966    i.evt_handle        app_button.o
    0x00028b24   0x00028b24   0x0000001c   Code   RO         3633    i.evt_pending       drv_rtc.o
    0x00028b40   0x00028b40   0x00000018   Code   RO         3160    i.fifo_get          app_fifo.o
    0x00028b58   0x00028b58   0x0000000a   Code   RO         3161    i.fifo_length       app_fifo.o
    0x00028b62   0x00028b62   0x0000000a   Code   RO         3457    i.fifo_length       app_uart_fifo.o
    0x00028b6c   0x00028b6c   0x00000012   Code   RO         3162    i.fifo_peek         app_fifo.o
    0x00028b7e   0x00028b7e   0x00000012   Code   RO         3163    i.fifo_put          app_fifo.o
    0x00028b90   0x00028b90   0x00000010   Code   RO         4683    i.fputc             retarget.o
    0x00028ba0   0x00028ba0   0x0000001a   Code   RO         1461    i.gatt_error_handler  ble_nus_c.o
    0x00028bba   0x00028bba   0x00000002   PAD
    0x00028bbc   0x00028bbc   0x00000098   Code   RO           13    i.gatt_evt_handler  main.o
    0x00028c54   0x00028c54   0x00000044   Code   RO           14    i.gatt_init         main.o
    0x00028c98   0x00028c98   0x00000036   Code   RO         1219    i.gattc_write_alloc  nrf_ble_gq.o
    0x00028cce   0x00028cce   0x0000004a   Code   RO         1220    i.gatts_hvx_alloc   nrf_ble_gq.o
    0x00028d18   0x00028d18   0x0000003c   Code   RO         3302    i.get_now           app_timer2.o
    0x00028d54   0x00028d54   0x00000048   Code   RO         2967    i.gpiote_event_handler  app_button.o
    0x00028d9c   0x00028d9c   0x0000000e   Code   RO           15    i.idle_state_handle  main.o
    0x00028daa   0x00028daa   0x000000be   Code   RO         4178    i.int_print         nrf_fprintf_format.o
    0x00028e68   0x00028e68   0x00000094   Code   RO         2495    i.interrupts_enable  nrfx_uart.o
    0x00028efc   0x00028efc   0x000000b4   Code   RO         2740    i.interrupts_enable  nrfx_uarte.o
    0x00028fb0   0x00028fb0   0x00000046   Code   RO         4865    i.invalid_packets_omit  nrf_log_frontend.o
    0x00028ff6   0x00028ff6   0x00000026   Code   RO         1221    i.is_any_conn_handle_registered  nrf_ble_gq.o
    0x0002901c   0x0002901c   0x00000024   Code   RO          866    i.is_char_discovery_reqd  ble_db_discovery.o
    0x00029040   0x00029040   0x0000005e   Code   RO          867    i.is_desc_discovery_reqd  ble_db_discovery.o
    0x0002909e   0x0002909e   0x0000001e   Code   RO         1309    i.is_whitelist_used  nrf_ble_scan.o
    0x000290bc   0x000290bc   0x0000000c   Code   RO         1542    i.item_dequeue      nrf_drv_clock.o
    0x000290c8   0x000290c8   0x00000026   Code   RO         2074    i.latch_pending_read_and_check  nrfx_gpiote.o
    0x000290ee   0x000290ee   0x00000002   PAD
    0x000290f0   0x000290f0   0x00000018   Code   RO         1544    i.lfclk_stop        nrf_drv_clock.o
    0x00029108   0x00029108   0x00000018   Code   RO         1096    i.link_init         nrf_ble_gatt.o
    0x00029120   0x00029120   0x00000026   Code   RO           16    i.log_init          main.o
    0x00029146   0x00029146   0x00000002   PAD
    0x00029148   0x00029148   0x000000cc   Code   RO         4866    i.log_skip          nrf_log_frontend.o
    0x00029214   0x00029214   0x000000a0   Code   RO           17    i.main              main.o
    0x000292b4   0x000292b4   0x000000ca   Code   RO         4222    i.memobj_op         nrf_memobj.o
    0x0002937e   0x0002937e   0x00000002   PAD
    0x00029380   0x00029380   0x00000038   Code   RO         4867    i.module_idx_get    nrf_log_frontend.o
    0x000293b8   0x000293b8   0x0000005c   Code   RO         5699    i.nrf52_errata_108  system_nrf52_1.o
    0x00029414   0x00029414   0x0000005c   Code   RO         5711    i.nrf52_errata_12   system_nrf52_1.o
    0x00029470   0x00029470   0x0000006c   Code   RO         5722    i.nrf52_errata_136  system_nrf52_1.o
    0x000294dc   0x000294dc   0x00000044   Code   RO         5741    i.nrf52_errata_16   system_nrf52_1.o
    0x00029520   0x00029520   0x00000040   Code   RO         5758    i.nrf52_errata_182  system_nrf52_1.o
    0x00029560   0x00029560   0x00000024   Code   RO         5789    i.nrf52_errata_217  system_nrf52_1.o
    0x00029584   0x00029584   0x00000040   Code   RO         5810    i.nrf52_errata_249  system_nrf52_1.o
    0x000295c4   0x000295c4   0x0000006c   Code   RO         5820    i.nrf52_errata_31   system_nrf52_1.o
    0x00029630   0x00029630   0x00000044   Code   RO         5821    i.nrf52_errata_32   system_nrf52_1.o
    0x00029674   0x00029674   0x0000006c   Code   RO         5825    i.nrf52_errata_36   system_nrf52_1.o
    0x000296e0   0x000296e0   0x00000044   Code   RO         5826    i.nrf52_errata_37   system_nrf52_1.o
    0x00029724   0x00029724   0x00000044   Code   RO         5842    i.nrf52_errata_57   system_nrf52_1.o
    0x00029768   0x00029768   0x0000006c   Code   RO         5848    i.nrf52_errata_66   system_nrf52_1.o
    0x000297d4   0x000297d4   0x00000028   Code   RO         3880    i.nrf_atfifo_init   nrf_atfifo.o
    0x000297fc   0x000297fc   0x0000001c   Code   RO         3881    i.nrf_atfifo_item_alloc  nrf_atfifo.o
    0x00029818   0x00029818   0x0000001c   Code   RO         3882    i.nrf_atfifo_item_free  nrf_atfifo.o
    0x00029834   0x00029834   0x0000001c   Code   RO         3883    i.nrf_atfifo_item_get  nrf_atfifo.o
    0x00029850   0x00029850   0x0000001c   Code   RO         3884    i.nrf_atfifo_item_put  nrf_atfifo.o
    0x0002986c   0x0002986c   0x0000000e   Code   RO         3951    i.nrf_atomic_flag_clear_fetch  nrf_atomic.o
    0x0002987a   0x0002987a   0x0000000e   Code   RO         3952    i.nrf_atomic_flag_set  nrf_atomic.o
    0x00029888   0x00029888   0x00000016   Code   RO         3954    i.nrf_atomic_u32_add  nrf_atomic.o
    0x0002989e   0x0002989e   0x00000016   Code   RO         3958    i.nrf_atomic_u32_fetch_and  nrf_atomic.o
    0x000298b4   0x000298b4   0x00000016   Code   RO         3960    i.nrf_atomic_u32_fetch_store  nrf_atomic.o
    0x000298ca   0x000298ca   0x00000016   Code   RO         3964    i.nrf_atomic_u32_or  nrf_atomic.o
    0x000298e0   0x000298e0   0x00000016   Code   RO         3966    i.nrf_atomic_u32_sub  nrf_atomic.o
    0x000298f6   0x000298f6   0x00000052   Code   RO         4091    i.nrf_balloc_alloc  nrf_balloc.o
    0x00029948   0x00029948   0x00000010   Code   RO         4092    i.nrf_balloc_block2idx  nrf_balloc.o
    0x00029958   0x00029958   0x00000030   Code   RO         4093    i.nrf_balloc_free   nrf_balloc.o
    0x00029988   0x00029988   0x0000000c   Code   RO         4094    i.nrf_balloc_idx2block  nrf_balloc.o
    0x00029994   0x00029994   0x0000003c   Code   RO         4095    i.nrf_balloc_init   nrf_balloc.o
    0x000299d0   0x000299d0   0x00000016   Code   RO         2075    i.nrf_bitmask_bit_is_set  nrfx_gpiote.o
    0x000299e6   0x000299e6   0x0000001e   Code   RO         1097    i.nrf_ble_gatt_att_mtu_central_set  nrf_ble_gatt.o
    0x00029a04   0x00029a04   0x00000034   Code   RO         1102    i.nrf_ble_gatt_init  nrf_ble_gatt.o
    0x00029a38   0x00029a38   0x00000108   Code   RO         1103    i.nrf_ble_gatt_on_ble_evt  nrf_ble_gatt.o
    0x00029b40   0x00029b40   0x00000054   Code   RO         1222    i.nrf_ble_gq_conn_handle_register  nrf_ble_gq.o
    0x00029b94   0x00029b94   0x000000d4   Code   RO         1223    i.nrf_ble_gq_item_add  nrf_ble_gq.o
    0x00029c68   0x00029c68   0x00000086   Code   RO         1224    i.nrf_ble_gq_on_ble_evt  nrf_ble_gq.o
    0x00029cee   0x00029cee   0x00000052   Code   RO         1312    i.nrf_ble_scan_connect_with_target  nrf_ble_scan.o
    0x00029d40   0x00029d40   0x00000014   Code   RO         1314    i.nrf_ble_scan_default_conn_param_set  nrf_ble_scan.o
    0x00029d54   0x00029d54   0x00000024   Code   RO         1315    i.nrf_ble_scan_default_param_set  nrf_ble_scan.o
    0x00029d78   0x00029d78   0x00000034   Code   RO         1317    i.nrf_ble_scan_filter_set  nrf_ble_scan.o
    0x00029dac   0x00029dac   0x00000016   Code   RO         1318    i.nrf_ble_scan_filters_disable  nrf_ble_scan.o
    0x00029dc2   0x00029dc2   0x0000004e   Code   RO         1319    i.nrf_ble_scan_filters_enable  nrf_ble_scan.o
    0x00029e10   0x00029e10   0x00000078   Code   RO         1320    i.nrf_ble_scan_init  nrf_ble_scan.o
    0x00029e88   0x00029e88   0x000000ce   Code   RO         1321    i.nrf_ble_scan_on_adv_report  nrf_ble_scan.o
    0x00029f56   0x00029f56   0x00000046   Code   RO         1322    i.nrf_ble_scan_on_ble_evt  nrf_ble_scan.o
    0x00029f9c   0x00029f9c   0x00000034   Code   RO         1323    i.nrf_ble_scan_on_connected_evt  nrf_ble_scan.o
    0x00029fd0   0x00029fd0   0x00000038   Code   RO         1324    i.nrf_ble_scan_on_timeout  nrf_ble_scan.o
    0x0002a008   0x0002a008   0x00000094   Code   RO         1326    i.nrf_ble_scan_start  nrf_ble_scan.o
    0x0002a09c   0x0002a09c   0x00000004   Code   RO         1327    i.nrf_ble_scan_stop  nrf_ble_scan.o
    0x0002a0a0   0x0002a0a0   0x00000040   Code   RO         1328    i.nrf_ble_scan_uuid_filter_add  nrf_ble_scan.o
    0x0002a0e0   0x0002a0e0   0x00000012   Code   RO         1907    i.nrf_clock_event_check  nrfx_clock.o
    0x0002a0f2   0x0002a0f2   0x00000012   Code   RO         1908    i.nrf_clock_event_clear  nrfx_clock.o
    0x0002a104   0x0002a104   0x0000000c   Code   RO         1909    i.nrf_clock_int_disable  nrfx_clock.o
    0x0002a110   0x0002a110   0x00000008   Code   RO         1911    i.nrf_clock_task_trigger  nrfx_clock.o
    0x0002a118   0x0002a118   0x0000004c   Code   RO         1550    i.nrf_drv_clock_init  nrf_drv_clock.o
    0x0002a164   0x0002a164   0x00000030   Code   RO         1554    i.nrf_drv_clock_lfclk_release  nrf_drv_clock.o
    0x0002a194   0x0002a194   0x0000008c   Code   RO         1712    i.nrf_drv_uart_init  nrf_drv_uart.o
    0x0002a220   0x0002a220   0x00000044   Code   RO         3458    i.nrf_drv_uart_rx   app_uart_fifo.o
    0x0002a264   0x0002a264   0x00000044   Code   RO         3459    i.nrf_drv_uart_tx   app_uart_fifo.o
    0x0002a2a8   0x0002a2a8   0x0000002a   Code   RO         4138    i.nrf_fprintf       nrf_fprintf.o
    0x0002a2d2   0x0002a2d2   0x0000001c   Code   RO         4139    i.nrf_fprintf_buffer_flush  nrf_fprintf.o
    0x0002a2ee   0x0002a2ee   0x000001f0   Code   RO         4179    i.nrf_fprintf_fmt   nrf_fprintf_format.o
    0x0002a4de   0x0002a4de   0x00000028   Code   RO         2076    i.nrf_gpio_cfg      nrfx_gpiote.o
    0x0002a506   0x0002a506   0x00000028   Code   RO         2496    i.nrf_gpio_cfg      nrfx_uart.o
    0x0002a52e   0x0002a52e   0x00000028   Code   RO         2741    i.nrf_gpio_cfg      nrfx_uarte.o
    0x0002a556   0x0002a556   0x0000001a   Code   RO         2498    i.nrf_gpio_cfg_input  nrfx_uart.o
    0x0002a570   0x0002a570   0x0000001a   Code   RO         2743    i.nrf_gpio_cfg_input  nrfx_uarte.o
    0x0002a58a   0x0002a58a   0x00000018   Code   RO         2499    i.nrf_gpio_cfg_output  nrfx_uart.o
    0x0002a5a2   0x0002a5a2   0x00000018   Code   RO         2744    i.nrf_gpio_cfg_output  nrfx_uarte.o
    0x0002a5ba   0x0002a5ba   0x00000032   Code   RO         2078    i.nrf_gpio_cfg_sense_set  nrfx_gpiote.o
    0x0002a5ec   0x0002a5ec   0x00000034   Code   RO         2079    i.nrf_gpio_latches_read_and_clear  nrfx_gpiote.o
    0x0002a620   0x0002a620   0x00000022   Code   RO         2081    i.nrf_gpio_pin_present_check  nrfx_gpiote.o
    0x0002a642   0x0002a642   0x00000018   Code   RO         2082    i.nrf_gpio_pin_read  nrfx_gpiote.o
    0x0002a65a   0x0002a65a   0x00000016   Code   RO         2500    i.nrf_gpio_pin_set  nrfx_uart.o
    0x0002a670   0x0002a670   0x00000016   Code   RO         2745    i.nrf_gpio_pin_set  nrfx_uarte.o
    0x0002a686   0x0002a686   0x00000002   PAD
    0x0002a688   0x0002a688   0x0000000c   Code   RO         2084    i.nrf_gpiote_event_addr_get  nrfx_gpiote.o
    0x0002a694   0x0002a694   0x0000001c   Code   RO         2085    i.nrf_gpiote_event_clear  nrfx_gpiote.o
    0x0002a6b0   0x0002a6b0   0x00000016   Code   RO         2086    i.nrf_gpiote_event_is_set  nrfx_gpiote.o
    0x0002a6c6   0x0002a6c6   0x00000002   PAD
    0x0002a6c8   0x0002a6c8   0x0000000c   Code   RO         2087    i.nrf_gpiote_int_enable  nrfx_gpiote.o
    0x0002a6d4   0x0002a6d4   0x00000054   Code   RO         4868    i.nrf_log_backend_add  nrf_log_frontend.o
    0x0002a728   0x0002a728   0x00000002   Code   RO         4719    i.nrf_log_backend_rtt_flush  nrf_log_backend_rtt.o
    0x0002a72a   0x0002a72a   0x00000008   Code   RO         4720    i.nrf_log_backend_rtt_init  nrf_log_backend_rtt.o
    0x0002a732   0x0002a732   0x00000002   Code   RO         4721    i.nrf_log_backend_rtt_panic_set  nrf_log_backend_rtt.o
    0x0002a734   0x0002a734   0x00000020   Code   RO         4722    i.nrf_log_backend_rtt_put  nrf_log_backend_rtt.o
    0x0002a754   0x0002a754   0x000000f2   Code   RO         4790    i.nrf_log_backend_serial_put  nrf_log_backend_serial.o
    0x0002a846   0x0002a846   0x00000002   PAD
    0x0002a848   0x0002a848   0x00000038   Code   RO         4870    i.nrf_log_color_id_get  nrf_log_frontend.o
    0x0002a880   0x0002a880   0x00000028   Code   RO         4824    i.nrf_log_default_backends_init  nrf_log_default_backends.o
    0x0002a8a8   0x0002a8a8   0x0000031c   Code   RO         4871    i.nrf_log_frontend_dequeue  nrf_log_frontend.o
    0x0002abc4   0x0002abc4   0x00000014   Code   RO         4873    i.nrf_log_frontend_std_0  nrf_log_frontend.o
    0x0002abd8   0x0002abd8   0x00000018   Code   RO         4874    i.nrf_log_frontend_std_1  nrf_log_frontend.o
    0x0002abf0   0x0002abf0   0x00000020   Code   RO         4875    i.nrf_log_frontend_std_2  nrf_log_frontend.o
    0x0002ac10   0x0002ac10   0x00000028   Code   RO         4876    i.nrf_log_frontend_std_3  nrf_log_frontend.o
    0x0002ac38   0x0002ac38   0x0000003c   Code   RO         4879    i.nrf_log_frontend_std_6  nrf_log_frontend.o
    0x0002ac74   0x0002ac74   0x000000bc   Code   RO         5064    i.nrf_log_hexdump_entry_process  nrf_log_str_formatter.o
    0x0002ad30   0x0002ad30   0x00000048   Code   RO         4880    i.nrf_log_init      nrf_log_frontend.o
    0x0002ad78   0x0002ad78   0x00000014   Code   RO         4881    i.nrf_log_module_cnt_get  nrf_log_frontend.o
    0x0002ad8c   0x0002ad8c   0x00000024   Code   RO         4885    i.nrf_log_module_name_get  nrf_log_frontend.o
    0x0002adb0   0x0002adb0   0x00000034   Code   RO         4886    i.nrf_log_panic     nrf_log_frontend.o
    0x0002ade4   0x0002ade4   0x000000c8   Code   RO         5065    i.nrf_log_std_entry_process  nrf_log_str_formatter.o
    0x0002aeac   0x0002aeac   0x0000007a   Code   RO         4223    i.nrf_memobj_alloc  nrf_memobj.o
    0x0002af26   0x0002af26   0x00000040   Code   RO         4224    i.nrf_memobj_free   nrf_memobj.o
    0x0002af66   0x0002af66   0x00000010   Code   RO         4225    i.nrf_memobj_get    nrf_memobj.o
    0x0002af76   0x0002af76   0x0000000c   Code   RO         4226    i.nrf_memobj_pool_init  nrf_memobj.o
    0x0002af82   0x0002af82   0x0000001e   Code   RO         4227    i.nrf_memobj_put    nrf_memobj.o
    0x0002afa0   0x0002afa0   0x00000022   Code   RO         4228    i.nrf_memobj_read   nrf_memobj.o
    0x0002afc2   0x0002afc2   0x00000022   Code   RO         4229    i.nrf_memobj_write  nrf_memobj.o
    0x0002afe4   0x0002afe4   0x00000016   Code   RO         4300    i.nrf_mtx_unlock    nrf_pwr_mgmt.o
    0x0002affa   0x0002affa   0x00000002   PAD
    0x0002affc   0x0002affc   0x00000040   Code   RO         4302    i.nrf_pwr_mgmt_init  nrf_pwr_mgmt.o
    0x0002b03c   0x0002b03c   0x00000016   Code   RO         4303    i.nrf_pwr_mgmt_run  nrf_pwr_mgmt.o
    0x0002b052   0x0002b052   0x00000002   PAD
    0x0002b054   0x0002b054   0x00000064   Code   RO         4304    i.nrf_pwr_mgmt_shutdown  nrf_pwr_mgmt.o
    0x0002b0b8   0x0002b0b8   0x0000009c   Code   RO         4375    i.nrf_queue_generic_pop  nrf_queue.o
    0x0002b154   0x0002b154   0x00000016   Code   RO         4377    i.nrf_queue_is_empty  nrf_queue.o
    0x0002b16a   0x0002b16a   0x00000020   Code   RO         4378    i.nrf_queue_is_full  nrf_queue.o
    0x0002b18a   0x0002b18a   0x00000010   Code   RO         4381    i.nrf_queue_next_idx  nrf_queue.o
    0x0002b19a   0x0002b19a   0x000000cc   Code   RO         4383    i.nrf_queue_push    nrf_queue.o
    0x0002b266   0x0002b266   0x0000001c   Code   RO         4500    i.nrf_ringbuf_init  nrf_ringbuf.o
    0x0002b282   0x0002b282   0x0000000c   Code   RO         3634    i.nrf_rtc_cc_get    drv_rtc.o
    0x0002b28e   0x0002b28e   0x0000000a   Code   RO         3635    i.nrf_rtc_cc_set    drv_rtc.o
    0x0002b298   0x0002b298   0x00000008   Code   RO         3636    i.nrf_rtc_counter_get  drv_rtc.o
    0x0002b2a0   0x0002b2a0   0x0000000e   Code   RO         3637    i.nrf_rtc_event_clear  drv_rtc.o
    0x0002b2ae   0x0002b2ae   0x00000006   Code   RO         3638    i.nrf_rtc_event_disable  drv_rtc.o
    0x0002b2b4   0x0002b2b4   0x00000006   Code   RO         3639    i.nrf_rtc_event_enable  drv_rtc.o
    0x0002b2ba   0x0002b2ba   0x00000006   Code   RO         3640    i.nrf_rtc_int_disable  drv_rtc.o
    0x0002b2c0   0x0002b2c0   0x00000006   Code   RO         3641    i.nrf_rtc_int_enable  drv_rtc.o
    0x0002b2c6   0x0002b2c6   0x00000006   Code   RO         3642    i.nrf_rtc_task_trigger  drv_rtc.o
    0x0002b2cc   0x0002b2cc   0x00000018   Code   RO         5511    i.nrf_sdh_ble_app_ram_start_get  nrf_sdh_ble.o
    0x0002b2e4   0x0002b2e4   0x0000019c   Code   RO         5512    i.nrf_sdh_ble_default_cfg_set  nrf_sdh_ble.o
    0x0002b480   0x0002b480   0x0000014c   Code   RO         5513    i.nrf_sdh_ble_enable  nrf_sdh_ble.o
    0x0002b5cc   0x0002b5cc   0x00000074   Code   RO         5514    i.nrf_sdh_ble_evts_poll  nrf_sdh_ble.o
    0x0002b640   0x0002b640   0x00000084   Code   RO         5383    i.nrf_sdh_enable_request  nrf_sdh.o
    0x0002b6c4   0x0002b6c4   0x00000030   Code   RO         5384    i.nrf_sdh_evts_poll  nrf_sdh.o
    0x0002b6f4   0x0002b6f4   0x0000000c   Code   RO         5385    i.nrf_sdh_is_enabled  nrf_sdh.o
    0x0002b700   0x0002b700   0x00000054   Code   RO         5570    i.nrf_sdh_soc_evts_poll  nrf_sdh_soc.o
    0x0002b754   0x0002b754   0x00000006   Code   RO         5390    i.nrf_section_iter_get  nrf_sdh.o
    0x0002b75a   0x0002b75a   0x00000014   Code   RO         4558    i.nrf_section_iter_init  nrf_section_iter.o
    0x0002b76e   0x0002b76e   0x0000002e   Code   RO         4559    i.nrf_section_iter_item_set  nrf_section_iter.o
    0x0002b79c   0x0002b79c   0x0000002e   Code   RO         4560    i.nrf_section_iter_next  nrf_section_iter.o
    0x0002b7ca   0x0002b7ca   0x00000028   Code   RO         4593    i.nrf_sortlist_add  nrf_sortlist.o
    0x0002b7f2   0x0002b7f2   0x00000008   Code   RO         4595    i.nrf_sortlist_peek  nrf_sortlist.o
