:020000040002F8
:10600000D04D0020C1630200C9630200CB630200CF
:10601000CD630200CF630200D163020000000000E4
:10602000000000000000000000000000D363020038
:10603000D563020000000000D7630200D9630200AC
:106040002D660200DB63020009690200DB630200C7
:10605000DB6302000000000071650200DB630200E8
:10606000DB630200DB630200DB630200DB63020030
:10607000DB630200DB630200DB630200DB63020020
:10608000DB63020075660200DB63020000000000B3
:10609000DB630200DB63020019670200DB630200BE
:1060A000DB630200DB630200000000000000000070
:1060B00000000000000000000000000000000000E0
:1060C00000000000000000000000000000000000D0
:1060D00000000000000000000000000000000000C0
:1060E00000000000000000000000000000000000B0
:1060F00000000000000000000000000000000000A0
:10610000000000000000000000000000000000008F
:10611000000000000000000000000000000000007F
:10612000000000000000000000000000000000006F
:10613000000000000000000000000000000000005F
:10614000000000000000000000000000000000004F
:10615000000000000000000000000000000000003F
:10616000000000000000000000000000000000002F
:10617000000000000000000000000000000000001F
:10618000000000000000000000000000000000000F
:1061900000000000000000000000000000000000FF
:1061A00000000000000000000000000000000000EF
:1061B00000000000000000000000000000000000DF
:1061C00000000000000000000000000000000000CF
:1061D00000000000000000000000000000000000BF
:1061E00000000000000000000000000000000000AF
:1061F000000000000000000000000000000000009F
:10620000DFF80CD000F076F90048004779940200DE
:10621000D04D002030B450E8012F93B2C4892344FC
:106220008489A34228BF1B1B0489A34202BFBFF37A
:106230002F8F002007E0C3EA020340E80134002C5E
:10624000E9D14FF001000A6030BC704750E8012FDF
:10625000C2EA024240E801210029F7D1704730B478
:1062600050E8022F1FFAA2F3C488A34202BFBFF373
:106270002F8F00200DE0C48923448489A34228BFC6
:106280001B1BC2EA034340E80234002CE8D14FF064
:1062900001000A6030BC704750E8022FC2EA224277
:1062A00040E802210029F7D17047034653E8022F46
:1062B000D988B2EB324F4FF0000017BF92B241EADB
:1062C000014142EA014104E05A68B2EB324F08BF93
:1062D000012043E80212002AE8D1704730B4044696
:1062E00054E8000F0D4644E80053002BF8D1156028
:1062F00030BC704730B4044654E8000F40EA010552
:1063000044E80053002BF7D1156030BC704730B41F
:10631000044654E8000F00EA010544E80053002B4E
:10632000F7D1156030BC704730B4044654E8000F14
:1063300080EA010544E80053002BF7D1156030BC1A
:10634000704730B4044654E8000F00EB010544E800
:106350000053002BF7D1156030BC704730B40446B1
:1063600054E8000FA0EB010544E80053002BF7D1DF
:10637000156030BC704770B404464FF0000054E81C
:10638000006F0D68AE4207BF44E80023012044E8D7
:1063900000630E60002B1CBF0020F0E770BC70474C
:1063A00030B4044654E8000F88422CBF451A054615
:1063B00044E80053002BF5D1156030BC7047000055
:1063C0000648804706480047FEE7FEE7FEE7FEE78F
:1063D000FEE7FEE7FEE7FEE7FEE7FEE731670200C5
:1063E000016202002DE9F05F0546002092469B46BF
:1063F00088460646814640241BE0284641464746DB
:10640000224600F067F853465A46C01A914110D30D
:1064100011461846224600F016F82D1A67EB0108BF
:106420004F4622460120002100F00DF817EB00092D
:106430004E41201EA4F10104DFDC484631462A46C5
:106440004346BDE8F09F202A04DB203A00FA02F11F
:10645000002070479140C2F1200320FA03F3194352
:1064600090407047004870478CDD020040EA01030D
:106470009B0703D009E008C9121F08C0042AFAD2FA
:1064800003E011F8013B00F8013B521EF9D27047BE
:10649000D2B201E000F8012B491EFBD27047002266
:1064A000F6E710B513460A4604461946FFF7F0FF13
:1064B000204610BD421C10F8011B0029FBD1801A98
:1064C0007047034611F8012B00F8012B002AF9D17F
:1064D00018467047202A04DB203A21FA02F00021F6
:1064E000704721FA02F3D040C2F1200291400843E4
:1064F00019467047064C074D06E0E06840F001037E
:1065000094E8070098471034AC42F6D3FFF77CFEBE
:1065100000E5020020E5020070B58C1810F8015B60
:1065200015F0070301D110F8013B2A1106D110F82C
:10653000012B03E010F8016B01F8016B5B1EF9D130
:106540002B0705D40023521E0DD401F8013BFAE7B6
:1065500010F8013BCB1A921C03E013F8015B01F821
:10656000015B521EF9D5A142D8D3002070BD0000B6
:106570002DE9F84F0026002000904FF48077012588
:10658000002410E0384603F00DFF40B100BF25485D
:106590000068284018B1384603F0F6FE2E436D001F
:1065A000381D87B2641C082CECD34FF4BE7003F086
:1065B000F9FE50B14FF4BE7003F0E6FE46F000461F
:1065C0006A460121002003F08BFEF0B210B30125D2
:1065D00000241DE005EA0600C0B100BF124850F8D3
:1065E0002400C0F30420814600BF0F4850F8240067
:1065F000C0F301408246204601F054FF8046B8F1C6
:10660000000F02D051464846C04700BF6D00641CD1
:10661000082CDFD306F0004010B1684605F064FE98
:10662000BDE8F88F046300401065004010B54FF4DA
:10663000807003F0E2FB50B14FF4807003F0E6FB92
:10664000012003F0EDFB0A480168002088474FF461
:10665000827003F0D2FB50B14FF4827003F0D6FB8E
:10666000022003F0DDFB024801680120884710BDCD
:10667000D032002010B5034A1068034A11688847D9
:1066800010BD0000243300202033002010B500F09E
:1066900043F910BD2DE9F047074688461646C24625
:1066A00007EB47011B4800EBC109D9F8140020B1E2
:1066B000012811D0022826D11EE0484600F064F9D6
:1066C0000546B54201D2002405E034463246514623
:1066D000484600F0A0F918E0484600F055F9054694
:1066E000B54201D2284600E03046044622465146D3
:1066F000484600F090F908E032465146484600F01E
:1067000051F9044601E0002400BF00BF2046BDE867
:10671000F08700005C43002010B504F007FD10BDB9
:1067200001480249086070470090D003A43300205C
:1067300010B503F071F828B167480068C0F3423023
:106740006649086003F09CF848B10020644908607D
:106750004FF08041C1F810016049091F086003F043
:10676000C3F8002855D05F4800685F4908605D485D
:10677000001D0068091D08605A4808300068091D9E
:10678000086058480C300068091D086055481030F2
:106790000068091D0860534814300068091D08602E
:1067A0005048183000685049203108604D481C306E
:1067B0000068091D08604B4820300068091D08600A
:1067C000484824300068091D0860464828300068A1
:1067D000091D086043482C300068091D08604148C5
:1067E000303000684049403108603E48343000682D
:1067F000091D08603B4838300068091D08603948A9
:106800003C300068091D0860364840300068091DAA
:10681000086002F0BBFF40B13448006800F001009E
:1068200018B16FF001003149086002F0E3FF28B1B0
:106830002F48006840F00F002D4908602D4800687F
:1068400000F0004030B92B48001D006800F0004007
:1068500000283ED001202849086000BF2748006872
:106860000028FBD015202349086000BF234800689A
:106870000028FBD015211F48001D016000BF1F48E4
:1068800000680028FBD000201B49086000BF1B489F
:1068900000680028FBD000BF00BF00BF00BF00BFE2
:1068A000BFF34F8F00BF00BF00BF1548006800F462
:1068B000E06014490843001D1149086000BF00BF93
:1068C00000BFBFF34F8F00BF00BF00BF00BF00BFBE
:1068D000FDE7FFF725FF10BD440200103C05004016
:1068E0000C0100400404001020C5004000040040DA
:1068F000E40E00400012001004E5014000E40140F5
:106900000CED00E00000FA0510B502490868804768
:1069100010BD0000D832002010B5124C02202061BA
:10692000606111A0A0611349E1614FF4007121621F
:106930000021A1626162E1620BA0A0640E49E164E2
:10694000102121650021A1656165E1650BA1E01DB4
:10695000FFF7B7FD0AA12046FFF7B3FD2020A07185
:1069600010BD0000444300205465726D696E616C77
:1069700000000000BC430020BC45002052545400DD
:10698000534547474552000010B501460A69CB6898
:106990009A4204D88C68641EE41AA01801E0D41A44
:1069A000601E10BD2DE9F0470446894617464FF09A
:1069B000000AE56800BFD4F81080A84503D9A8EB09
:1069C0000500461E04E0A5EB0800401CA1680E1A55
:1069D000A068401BB04201D9304601E0A068401BCE
:1069E0000646BE4201D2304600E03846064661689F
:1069F000481932464946FFF739FDB244B144BF1B3E
:106A00003544A068A84200D10025E560002FD2D10E
:106A10005046BDE8F0872DE9F04704468946154603
:106A2000E668A068871BAF4208D9616888192A46C2
:106A30004946FFF71BFD7019E06010E0B846616839
:106A4000881942464946FFF711FDA5EB070809EBF7
:106A5000070142466068FFF709FDC4F80C80BDE8F5
:106A6000F0870000014A024900F036B87F8E02002C
:106A70003833002002E008C8121F08C1002AFAD1EA
:106A800070477047002001E001C1121F002AFBD1AE
:106A9000704700000146202908DA012088400A4A90
:106AA000104008B1012070470020FCE7402909DAB6
:106AB000A1F12000012202FA00F008B10120F2E762
:106AC0000020F0E70120EEE7FC06FFBD00BFEFF37A
:106AD0001081084672B670472DE9F04116460F4600
:106AE0000446002503E03946B047641C6D1C20783D
:106AF0000028F8D12846BDE8F0810246002104E0D4
:106B0000505C08B101207047491C0629F8D30020C9
:106B1000F9E770B504460D4604F22740FFF7EDFF94
:106B20000646012D06D0022D0DD0032D11D0042DC7
:106B300019D113E0A07928B194F8240010B90EB14E
:106B4000012070BD00BFE07910B10EB10220F8E75E
:106B500000BF207A08B10320F3E700BF607A08B1D4
:106B60000420EEE700BF0020EBE70146481C0522A9
:106B700090FBF2F302FB1300C0B27047014691F89C
:106B80002420012A01D1EE2000E01F20704710B51B
:106B900001220221002001F0E5F9044600BF1CB1EA
:106BA000072C01D0204610BD00BF07220221012082
:106BB00001F0D8F9044600BF1CB1072C01D02046D3
:106BC000F1E700BF0A220021084601F0CBF9044694
:106BD00000BF1CB1072C01D02046E4E700BF002015
:106BE000E1E7000030B5ABB0AC216846FFF757FCD9
:106BF00002208DF8000000208DF8020006208DF89C
:106C000003000121ADF84C100F49149101218DF8BA
:106C10007C1040212291002123910C482990694643
:106C20000B4800F028FC044600BF254625B100BFF4
:106C3000284600F07FF800BF00BF0121044800F0A3
:106C400017FC2BB030BD00009432002055BB020071
:106C5000C833002070B50321064800F0AEFC04469E
:106C600000BF254625B100BF284600F063F800BFED
:106C700000BF70BDC833002072B600BF03F0DAFE5B
:106C800000BF00BF03F084FC0028FBD100BF00BFA1
:106C90001D491E4A891AC908012242EA01401CA165
:106CA00003F004FE00BF1D48006800F0010000B1C1
:106CB00000BE00BF1449154A891AC908022242EAD7
:106CC000014017A103F0F2FD00BF00BF00BF00BFED
:106CD00000BFBFF34F8F00BF00BF00BF0F48E438B5
:106CE000006800F4E06012490843001D0B49E439D4
:106CF000086000BF00BF00BFBFF34F8F00BF00BFE1
:106D000000BF00BF00BFFDE790E5020030E50200D4
:106D1000466174616C206572726F7200F0ED00E084
:106D200053797374656D207265736574000000009B
:106D30000000FA053EB50446002000900190029044
:106D400002946A46002144F20100FFF795FF3EBD20
:106D500070B504460D46204602F035F828B12946A4
:106D6000204602F024F8002070BD0520FCE7034611
:106D700009B90E20704712B1501E104008B1092009
:106D8000F8E71960501E988000209860D86000BF16
:106D9000F0E770B504460D46204602F014F8A188CD
:106DA000884205D82946204602F020F8002070BD10
:106DB0000420FCE710B5024801F088FE10BD000079
:106DC000E032002010B503460C460AB9072010BD7A
:106DD00019684A61012C01D1012000E000200861FE
:106DE0000020F4E738B513480068009008235822C3
:106DF00011491248006802F0ABFD04460CB1204670
:106E000038BD0F4A69460F4801F066FE04460CB1D2
:106E10002046F5E701210B4801F004FF01230A4A4F
:106E20001946084801F024FE012008490870204650
:106E3000E6E700009CDA0200EC3C00208CDA02005D
:106E40009DC50200E0320020FFFF7F00EC320020F1
:106E50002DE9F04106460D4617463446207F10B115
:106E60000020BDE8F081A76102F0AAF8401941F1C5
:106E70000001C4E90201206900B12561214600201A
:106E800006F0D2F8EDE770B50446254600202877D5
:106E90002946012006F0C8F870BD00002DE9F04138
:106EA00004460F48077821460E48FFF751FF8046F9
:106EB00097B100200A49087001220B490B4803F0E2
:106EC0003DF8054600BF2E4626B100BF3046FFF70D
:106ED00031FF00BF00BF00BF4046BDE8F0810000A9
:106EE0001E330020543D00201D33002004330020B9
:106EF0002DE9F04188B004460E46174698462B48C7
:106F000007601EB9072008B0BDE8F081B08882B2E2
:106F100027483168FFF72BFF054600BF284600B120
:106F2000F1E700BFB08982B22248B168FFF71FFFC6
:106F3000054600BF284600B1E5E700BF20221E49F4
:106F40006846FFF793FA60690690207C08B101203B
:106F500000E000208DF814008DF81C80607C08B1E2
:106F60000E2000E000208DF81500E0680290A06877
:106F700003902068019060680090104A69461048AC
:106F800002F096FF054600BF284600B1BBE700BFF0
:106F900000200C4908702068401C28B101220A49D1
:106FA000074802F0CBFFAEE70020ACE71833002023
:106FB000543D0020643D0020A0DA020025D20200EA
:106FC000043300201E3300201D3300202DE9F04142
:106FD000054629461448FFF7DCFE064606BB134C5F
:106FE000002720781249085C20B1201D04F04EFDD6
:106FF000074608E020780E49085C20B904F10C002F
:1070000004F0ECFB074600BF57B90A490648FFF7F2
:107010009FFE28B901220749044802F0B1FF064645
:107020003046BDE8F0810000643D002004330020BC
:10703000CC3200201C33002010B50446204605F059
:10704000FBFB10BD70B5044625460E488068B0B104
:10705000ADB9FFF73BFD06460A4800680A490860DB
:10706000084840684FF0E021C1F8040100200549BC
:1070700088601EB900BF62B600BF00BF00BF00BF7E
:1070800070BD0000743D002000E100E0F8B5054649
:107090000C4617462088001DB84201D90C20F8BDC7
:1070A000684679DF064600BF304600B1F7E700BF0B
:1070B0000320218868542088401C208019202188C2
:1070C00068542088401C208020884119BDF80000A9
:1070D00006F0C8FA2188084420800020DFE770B558
:1070E00005460C462068401C28B1206803F012F9C0
:1070F000206803F0C4F86068401C18B10021606883
:1071000003F0A3F82868A169C0F8241500BF617DC9
:10711000227D286841EA0203C0F86C3500BFD4E93B
:107120000012286804F016F9207D012814D1A06807
:10713000401C18B10021A06803F087F8E068401CEB
:1071400028B1E06803F0E6F8E06803F098F8D4E9C5
:107150000221286804F0E6F870BD70B505460C46BB
:107160002068401C28B1206803F0DFF8206803F095
:1071700092F86068401C18B10021606803F072F852
:107180002868A169C0F8241500BF617D227D2868A8
:1071900041EA0203C0F86C3500BFD4E90012286848
:1071A00004F012F9207D012814D1A068401C18B108
:1071B0000021A06803F056F8E068401C28B1E068A0
:1071C00003F0B3F8E06803F066F8D4E90221286818
:1071D00004F0DBF870BD0000002114E00C48D0F88A
:1071E0001024012308E000BFD0680079884201D153
:1071F000002303E0D0680268002AF4D100BF0BB17D
:1072000008467047491C0A29E8DB4FF0FF30F8E7D1
:10721000243F00202DE9F04104460F46154615B9DC
:107220000E20BDE8F0810020286000BF0CB90E20C0
:10723000F7E700BF00BF206808B90E20F1E700BFE4
:1072400000BFE088C11700EB91718910A0EB8101AC
:1072500009B10720E5E700BF384600F0B7FAC6B22B
:10726000142E01D10520DCE72079B04201DC042096
:10727000D7E7E188206806FB010028600020D0E7FE
:107280002DE9FC4105468846164600243788002033
:10729000308095F82D0058B13A463146404600F00E
:1072A000ADFA044600BF204608B1BDE8FC8100BF2E
:1072B000A87850B13A4631464046FFF7E7FE04460B
:1072C00000BF204600B1F0E700BFE87860B1E97880
:1072D00048B23B463246414601F0A0FD044600BF9D
:1072E000204600B1E1E700BF686868B1696891F9BC
:1072F00000003B463246414605F013FF044600BFFE
:10730000204600B1D1E700BF288900280EDD4346A2
:107310000622022105F10800CDE9006706F063FAB4
:10732000044600BF204600B1BFE700BF288A0028FE
:107330000EDD43460722032105F11000CDE9006769
:1073400006F051FA044600BF204600B1ADE700BF89
:10735000288B00280EDD43461522142105F1180064
:10736000CDE9006706F03FFA044600BF204600B1B1
:107370009BE700BF286A58B13B4632464146286A1F
:1073800001F020FA044600BF204600B18DE700BF9F
:10739000686A58B13B4632464146686A02F0D6F800
:1073A000044600BF204600B17FE700BF95F82C00DF
:1073B00000280BDD3B4632464146284605F050FB8F
:1073C000044600BF204600B16FE700BF287858B1DF
:1073D0003B4632464146284602F074F9044600BF57
:1073E000204600B161E700BF20465EE7F8B50446DD
:1073F0000E461546002000902B466A463146204630
:1074000000F008F807460FB90020F8BDBDF80000ED
:107410002044FAE7F0B504460D461E4604B10AB909
:107420000020F0BD002103E0605C401C084481B2F4
:10743000481CA84206DA10888842F5DC481C205C0B
:10744000B042F1D1A94201DB0020EAE7881C87B2F3
:10745000605C10B1605C401E00E0002083B213B19C
:10746000F818A84201DD0020DBE717801846D8E7AE
:1074700080F83010704770B504460D4605B10CB960
:107480000E2070BD05F1780001F03DF908B9072024
:10749000F7E70020A0702C2205F17801201DFEF7EF
:1074A000E5FF002084F83000D5F8A4006063D5F82B
:1074B000A800A0634FF6FF70A4F8240404F58260CE
:1074C000C4F82004002140F22C40C4F82614A4F88B
:1074D0002A140155207810B9FF2084F8540004F1D3
:1074E0005500C4F810042046FFF748FB40F2144151
:1074F000085304F2144204F155012846FFF7C0FE78
:10750000064600BF304600B1BBE700BF04F23120A1
:107510004FF4836108512046FFF730FBA4F81C04A8
:107520004FF48360015904F21C4205F13C00FFF75F
:10753000A7FE064600BF304600B1A2E700BF01210A
:1075400051200155208B81B248200153012084F83D
:107550003C0000212164502001556169616404F1FF
:107560003C02002104F1540072DF064600BF3046A1
:1075700000B186E700BF01202070304681E770B57A
:1075800004460D462E462088102804D0112807D026
:1075900026280FD109E02146304604F00DFC0AE010
:1075A0002146304604F0CDFC05E02146304604F08B
:1075B000E8FD00E000BF00BF70BD70B504460E4698
:1075C000207808B9082070BDA670002140F22C4038
:1075D000C4F82614A4F82A140155A07910B1A07893
:1075E000012809D0E07910B1A078012804D0E07911
:1075F00070B1A07802280BD1606B30B1012084F803
:107600002D040820616B884702E0002084F82D04D7
:1076100031462046FFF77DFAA070606BA0B1A078DC
:10762000032802D0A07804280ED1607960B194F8C4
:107630002E0448B9002084F83004012084F82F0477
:107640000720616B884702E0002084F82F0418218E
:1076500004F13C00FEF723FF012084F83C0004F114
:107660002C0004F035FE20B194F82C105120015567
:1076700002E001215120015594F8240060B104F189
:10768000280004F025FE20B194F82810522001555E
:1076900002E0012152200155002150200155A0781F
:1076A000052824D2DFE800F01F030A11180004F1B6
:1076B0003C01204605F066FA054619E004F13C015C
:1076C000204605F047FA054612E004F13C01204649
:1076D00005F06AFA05460BE004F13C01204605F08E
:1076E00091FA054604E0002084F8310000E000BF74
:1076F00000BFA07898B104F13C0204F15400D4F822
:10770000201472DF05460DB128465CE794F830106E
:1077100094F8540073DF05460DB1284653E7606BBB
:1077200018B194F83100616B884700204BE70000E6
:107730002DE9F041044600BF14B90E20BDE8F081E8
:1077400000BF1C2221461C48FEF790FE1B481A4928
:107750000860206860B120687ADF05460DB12846D0
:10776000ECE7164821680A6802604968416005E054
:1077700012487BDF05460DB12846DFE7002617E0FB
:1077800006EB86000E4901EB800700BF4FF6FF7045
:10779000388000BF0B4800EB461078600A4A002191
:1077A000381DFFF70FFB05460DB10320C6E7761C19
:1077B000002EE5D00020C1E7943B0020BC32002021
:1077C000803B0020603B002029D7020010B5044612
:1077D000204600F005F808B1204610BD1420FCE753
:1077E00010B50446142C01DB002010BD21460248D0
:1077F00002F009F9F9E70000B43B00202DE9FC4153
:1078000005460C46174620880930B84202D90C209C
:10781000BDE8FC8168466DDF064600BF304600B11A
:10782000F6E700BF0820218868542088401C20808B
:107830001B20218868542088401C208020882844F0
:10784000DDF801100160BDF8051081802088801DE1
:1078500020809DF80000400818B900202188685455
:1078600002E00120218868542088401C20800020EC
:10787000CEE70000F8B505460F462888212847D0F6
:1078800006DC10280BD0112833D0132872D14FE01A
:107890003B2871D052285CD05628F7D17AE046496F
:1078A000464A891AC908032242EA014044A102F06B
:1078B000FDFF072000F084FB044600BF264626B1EA
:1078C00000BF3046FFF736FA00BF00BFA8883F4927
:1078D0000880084601883E4802F028FA044600BFA6
:1078E000264626B100BF3046FFF724FA00BF00BF8E
:1078F0005FE03149314A891AC908032242EA01404E
:1079000034A102F0D3FF4FF6FF703049088050E0F9
:1079100000200090A88869468FDF044600BF2646F5
:1079200026B100BF3046FFF705FA00BF00BF40E0B8
:1079300000231A468521254800887FDF044600BFC2
:10794000264626B100BF3046FFF7F4F900BF00BF5E
:107950002FE000231A4619461C480088B1DF044670
:1079600000BF264626B100BF3046FFF7E3F900BF4F
:1079700000BF1EE01CE0FFE7A888132176DF044665
:1079800000BF264626B100BF3046FFF7D3F900BF3F
:1079900000BF0EE0A888132176DF044600BF26460C
:1079A00026B100BF3046FFF7C5F900BF00BF00E0B9
:1079B00000BF00BFF8BD000090E5020030E5020006
:1079C000436F6E6E65637465640000009032002042
:1079D000BC330020446973636F6E6E6563746564C5
:1079E0000000000070B505460E462888102802D019
:1079F00011282CD115E01748006860B900F076FF17
:107A0000044600BF34B11448006818B1204612493A
:107A10000968884700BF0F480068401C0D4908608E
:107A200016E00C480068401E0A49086008460068D5
:107A300060B9FFF7ACF8044600BF34B106480068EF
:107A400018B1204604490968884700BF00E000BF1C
:107A500000BF70BDB8320020B432002070B50446BB
:107A60000D462088102806D0112808D012280ED0E4
:107A7000502810D107E0204604F02CF90CE02046F5
:107A800004F046FA08E0204604F0ACFB04E020468F
:107A900004F008F900E000BF00BF70BD2DE9F0411F
:107AA00004460F46A6882088102806D0112817D033
:107AB00019283DD01A2848D116E004F041FD30467F
:107AC00004F01AFD20B900BF0420FFF733F906E0E7
:107AD000E07B022803D131461D4801F0A3FF34E0CA
:107AE000304604F051FD30E0207A0509042D01DB19
:107AF000012000E000200246314615480C3001F01C
:107B00007EF9032D01DB012000E000200246314612
:107B10000F48083001F073F9022D01DB012000E06D
:107B20000020024631460A48001D01F068F90CE0C9
:107B3000207A48B9607AC0F3C0052A463146044825
:107B40000C3001F05CF900BF00BF00BFBDE8F08160
:107B5000BC3B00202DE9F04186B00446884617461C
:107B60001D4600BF1CB90E2006B0BDE8F08100BF65
:107B700001AA29466069FFF74DFB064600BF304663
:107B800000B1F1E700BF4FF6FF70854201D00198C8
:107B900008B90520E8E70198007808B90820E3E76C
:107BA0003888F42801DD0720DEE7002002900390EA
:107BB00004900590A088ADF80800CDF814800497D3
:107BC00001208DF80A0002A92846AEDFCCE70000AC
:107BD00070B58EB004460E46404B0FCB09AD0FC5B5
:107BE00000BF14B90E200EB070BD00BF00BF0EB9AB
:107BF0000E20F8E700BF3068A061214609A862DFC7
:107C0000054600BF284600B1EDE700BF20788DF89B
:107C100036004FF6F070ADF83400A21C0DA901201B
:107C2000A8DF054600BF284600B1DCE700BF2021E1
:107C300001A8FEF734FC4FF6F270ADF8040020788E
:107C40008DF80600F420ADF808000120ADF80A0018
:107C50008DF810009DF8110020F0080008308DF814
:107C600011009DF8110020F00400001D8DF8110096
:107C700001208DF815008DF81600608804F10C02C3
:107C800001A900F01DFC05460DB12846ABE72021F7
:107C900001A8FEF704FC4FF6F170ADF8040020785F
:107CA0008DF80600F420ADF808000120ADF80A00B8
:107CB0008DF810009DF8110020F0100010308DF8A4
:107CC000110001208DF815008DF816008DF81700B1
:107CD0006088221D01A900F0F3FB84E7DCD90200D3
:107CE00070B504460D4605B104B970BD2E46208816
:107CF000102804D0502807D057280FD109E021467A
:107D0000304604F01FF80AE02146304604F096FAA7
:107D100005E02146304604F0CDF900E000BF00BF89
:107D200000BFE2E770B50446204605F095FC054625
:107D300005F0010070BD38B503F0B6F9044600BF88
:107D4000254625B100BF2846FEF7F4FF00BF00BF5F
:107D5000002000906946012002F0F8FF044600BFB1
:107D6000254625B100BF2846FEF7E4FF00BF00BF4F
:107D7000684603F0B9F8044600BF254625B100BFA8
:107D80002846FEF7D7FF00BF00BF38BD01460148B7
:107D9000405C704794D9020010B502460949885CDE
:107DA00000BF4FF0A0442146D1F80435012484409F
:107DB0009C43C1F80845012484401C40C1F80C458F
:107DC00000BF10BD90D9020010B504460249085DFD
:107DD000012102F0B5FA10BD90D9020010B5044699
:107DE0000249085D002102F0ABFA10BD90D90200F3
:107DF00010B50146094B585C00BF4FF0A044234624
:107E000000BFD3F80445C44004F001040CB10120C4
:107E100000E00020024682F0010010BD90D902006F
:107E200010B5002403E02046FFF7CEFF641C042CAD
:107E3000F9D310BD10B5002403E02046FFF7CEFFB4
:107E4000641C042CF9D310BD02464FF0FF30002112
:107E500006E0054B5B5C934201D1084602E0491CF9
:107E60000429F6D300BF704794D9020010B5002052
:107E700000F07AFA044600BF1CB1062C01D020465F
:107E800010BD00BF012000F06FFA044600BF1CB116
:107E9000062C01D02046F3E700BF0020F0E70000E9
:107EA0002DE9F04106460F464FF000080024304609
:107EB000FFF7CAFF0446042C3ED20FB3012F02D0B5
:107EC000022F38D130E004EB4400214911F8008042
:107ED00004EB44000844407850B11E4A4FF48041FE
:107EE0001D480068FEF7B4FF05460DB91948067035
:107EF00004EB4400164908448078184908551AE0F4
:107F000015480068FEF7BFFF1448005D04EB44010C
:107F10000F4A11448978884205D104EB4400114688
:107F2000084490F8028006E004EB44000849084445
:107F300090F8018000BF00BFB8F1000F06D00848DC
:107F4000006818B14046064909688847BDE8F081D5
:107F5000303B0020AC320020A0D90200AD3200201E
:107F6000A832002030B503460020042B23D2012A7A
:107F700007D1012903D103F10E04E4B200E000248B
:107F8000224679B1012902D0022911D104E003EB84
:107F900043040A4D2A550DE003EB4304074D2C44DE
:107FA000627007E003EB4304044D2C44A27001E02F
:107FB000072000BF00E0072030BD0000303B00205C
:107FC00070B5044600250548007800F0010018B19E
:107FD000204600F005F80546284670BDA032002076
:107FE0002DE9F047044600260025DA48007820B144
:107FF0000020D849087001F099F9182C7ED2DFE8EA
:1080000004F00C16174A7EB2F6F4F3F2F1F0EFEE3C
:10801000EDECEBEAE9E8E7E6E5E401F087F9CE48C4
:108020000068FEF730FF0646CC4804708DE100BFC3
:108030000020FFF7DDFE58B10020FFF7C5FE022C3F
:1080400002D14FF4E16001E04FF47A60054609E0A7
:108050000020FFF7C3FE022C01D1C82001E04FF43D
:10806000C8700546BD4804704FF40040A5FB0010E1
:108070004FF47A73CF1840F100015A0000233846BC
:10808000FEF7B0F9814600224946B3480068FEF782
:10809000DFFE064659E10020FFF7AAFE58B1002096
:1080A000FFF792FE032C02D14FF4487001E04FF429
:1080B0007A60054609E00020FFF790FE032C01D10D
:1080C000C82001E04FF4C8700546A44804704FF47E
:1080D0000040A5FB00104FF47A728F1840F10001A8
:1080E000520000233846FEF77DF9814600224946BA
:1080F00099480068FEF7ACFE064626E124E1002020
:10810000FFF776FE58B10020FFF75EFE042C02D187
:108110004FF47A6001E04FF47A6005460AE00020EF
:10812000FFF75CFE042C02D14FF4C87001E04FF45D
:10813000C8700546894804704FF40040A5FB001044
:108140004FF47A73CF1840F100015A0000233846EB
:10815000FEF748F98146002249467F480068FEF74D
:1081600077FE0646F1E00020FFF742FE50B1002006
:10817000FFF72AFE052C01D1C82001E04FF47A60F8
:10818000054609E00020FFF729FE052C01D1C82093
:1081900001E04FF4C8700546704804704FF4004089
:1081A000A5FB00204FF47A73D71840F100015A0064
:1081B00000233846FEF716F98146002249466648F4
:1081C0000068FEF745FE0646BFE0B8E0B6E0AAE06C
:1081D000A1E098E092E05FE05DE05BE059E057E00D
:1081E00051E042E033E024E015E00EE0FFE700203C
:1081F000FFF7D2FD59480470002240F266615648EC
:108200000068FEF725FE06469FE00020FFF7E6FD2A
:108210005248047099E001204E490870FFF7BCFDF8
:10822000002240F266614C480068FEF711FE0646E7
:108230008BE0012047490870FFF7AEFD00224FF4A4
:10824000005145480068FEF703FE06467DE0012028
:1082500040490870FFF7A0FD002240F266613E48E9
:108260000068FEF7F5FD06466FE001203949087009
:10827000FFF792FD00224FF4005137480068FEF7E7
:10828000E7FD064661E0FFF7D5FD344804705CE089
:1082900000BF00BF00BF00BF31480068FEF7F3FD1C
:1082A0000646C4F1110515B30EBB012D18D9A8B2AD
:1082B000C82148434FF4004180FB01104FF47A720B
:1082C0008F1840F10001520000233846FEF78AF86B
:1082D00081460022494622480068FEF7B9FD06465D
:1082E0000220FFF77BFD01201E49087005E00220F7
:1082F000FFF76AFD00201B49087026E001F016F820
:108300001648047021E001F011F80020FFF766FD27
:108310001248047019E001F009F80120FFF75EFD32
:108320000E48047011E001F001F80020FFF756FD3F
:108330000120FFF753FD0948047006E000BFFFF776
:1083400079FD0648047000E000BF00BF3046BDE87C
:10835000F08700009D32002098D902009C32002056
:108360009CD90200A432002010B504460121204609
:1083700005F0CBFA10BD00002DE9FC4704460D4680
:108380001646A71C4FF001080020019001A8FEF737
:1083900053FE3048406828602E4840682D4989685F
:1083A000411A2D480068401CA0EB010915E001218D
:1083B0002A4801F054FB00F0F9FF82465146274855
:1083C00001F04DFB2348406822498968411A224840
:1083D0000068401CA0EB010900BF4F45E7D8B8F189
:1083E000000F30D00021009176B1009921F00301F7
:1083F000491C0091009921F00401091D0091009988
:1084000064F3891100910DE0009921F00301891CAA
:108410000091009921F00401091D0091009964F375
:108420009F5100910B4949680B4A12681140094A53
:108430000C3202EB81000099016006494968394419
:108440000C3A516000BF9DF80400FEF7FBFD40466A
:10845000BDE8FC87243F00205C330020404300201F
:1084600070B504460D460A2D03D10D212046FFF7B5
:10847000F7FFA168481CA06020684554D4E90110AA
:10848000884202D3204601F0B2FD70BD04488068E6
:1084900003494968884201D1012070470020FCE768
:1084A000243F00200146024850F821007047000098
:1084B000403C00200146014840567047703C002077
:1084C00070B590B006460C461546A07818B9012044
:1084D0008DF80E0002E0A0788DF80E002088ADF82F
:1084E0000C0000200290607C02A904F0B9FBA07C83
:1084F0000DF1090104F0B4FBE07B08B1012000E0BC
:1085000000209DF80A1060F3C3018DF80A10207C4A
:1085100008B1012000E000209DF80A1060F304116A
:108520008DF80A10207B08B1012000E000209DF8A2
:108530000A1060F300018DF80A10207D08B10220B6
:1085400000E001209DF80A1060F342018DF80A1046
:108550001C2109A8FDF7A3FF607BC0F3001018B928
:10856000607BC0F34010F8B100200090E07C0DF17A
:10857000010104F075FB00BF9DF8000020F00F0022
:10858000401C8DF800009DF8000020F0F000103035
:108590008DF8000000BF9DF8020020F00600801C4E
:1085A0008DF80200CDF838D0607B8DF82400A07BD8
:1085B0008DF82500142104A8FDF771FF03A804908D
:1085C00002A80590A088ADF81C00A06820B1E08842
:1085D000ADF81800A0680890A069002849D00020D4
:1085E0000190A0690088ADF82C00A0694088ADF822
:1085F0002E00A06940680A9001A80D90A169087B2F
:1086000001A904F02DFBA169487B0DF1050104F0DF
:1086100027FBA069807A08B1012000E000209DF8C6
:10862000061060F3C3018DF80610A069C07A08B186
:10863000012000E000209DF8061060F304118DF881
:108640000610A069007A08B1012000E000209DF822
:10865000061060F300018DF80610A069807B08B158
:10866000022000E001209DF8061060F342018DF821
:108670000610E06908B1E0690C902B4604AA09A92C
:108680003046AADF10B070BD70B505460DB9094C73
:1086900001E0084C083409E0204600F02DFE0646B3
:1086A00006B904E028467168884700BFF4E700BFB8
:1086B00070BD0000343C002010B504462CB90120E8
:1086C000064948700020FFF7DFFF012C04D101208C
:1086D00002498870FFF7D8FF10BD00002C3C002035
:1086E0002DE9F047024613468C46D3E90245DCE902
:1086F0000267B6EB040877EB050002D30120BDE862
:10870000F0870020FBE701468878012805D191F821
:108710002000012801D100207047886A042802D077
:10872000486A042801D10020F6E70120F4E733B5B8
:108730008BB00546002000900C9878B100240BE027
:1087400021460CA801F05FF928B1009A501C009056
:1087500001A820F81240641C142CF1D32C22694685
:108760002846FDF783FE0DB030BD01460888062877
:1087700008DB0888B0F5486F06DD08884FF6FF7201
:10878000904201D0072070474888062808DB4888B7
:10879000B0F5486F06DD48884FF6FF72904201D071
:1087A0000720F0E708884FF6FF72904208D048880B
:1087B000904205D008884A88904201DD0720E2E710
:1087C0000020E0E72DE9F04107460D4614469846A3
:1087D0002088801D404502D90C20BDE8F081384634
:1087E000FFF7C3FF064600BF304600B1F5E700BF04
:1087F0000520218868542088401C20801220218870
:1088000068542088401C208022885119388804F040
:1088100029FF21880844208022885119788804F093
:1088200021FF2188084420800020D6E710B50446A7
:1088300000BF2046FEF77EFA00BF10BD30B587B0FE
:108840001C216846FDF72BFE002000904FF4A0305D
:1088500001904FF4F020029003208DF80C000020CE
:10886000ADF80E008DF810000948059009480690F3
:108870006846FEF75DFF044600BF254625B100BFF0
:108880002846FEF757FA00BF00BF07B030BD000012
:1088900079BC02002D880200F8B505460C46607AC6
:1088A00088B9207A10B91048476801E00E488768F7
:1088B0002A4639466068FEF7CBFA064616B13046BE
:1088C00004F06EF80EE0002020720748406948B1BD
:1088D00001208DF80000ADF8025003484169684658
:1088E000884700BFF8BD0000943B002010B501226E
:1088F00000210846FFF736FB044600BF1CB1072CD9
:1089000001D0204610BD00BF072202210120FFF741
:1089100029FB044600BF1CB1072C01D02046F1E71B
:1089200000BF042202210020FFF71CFB044600BF09
:108930001CB1072C01D02046E4E700BF0020E1E78E
:108940002DE9FF4105460C46002002900390ADF84A
:108950000840ADF80A40009001906A4602A92846F6
:1089600090DF0646002E32D0304602F0B9FC0746B2
:1089700019491A4A891AC908012242EA01403B46AC
:108980002A46174901F0A8FFBDF8000010B9BDF84C
:10899000020068B1BDF80230BDF800200E490F4F4B
:1089A000C91BC908012747EA01400EA101F094FF45
:1089B000BDF8040058B1BDF804200749074BC91A97
:1089C000C908012343EA0140164901F079FF304606
:1089D00004B0BDE8F081000030E5020030E502009F
:1089E00090DD020054686520726571756573746569
:1089F000642054582F5258207061636B6574206C4A
:108A0000656E67746820697320746F6F206C6F6E79
:108A1000672062792025752F2575206F6374657432
:108A2000732E0000DCDD020010B50021034801F0C8
:108A300037F8044684F3100010BD000040430020C6
:108A400070B505460C464FF4803000FA04F1284614
:108A500000F085F970BD70B505460C464FF4A07066
:108A600000EB840086B23146284600F092F970BDD2
:108A70002DE9F04704460D4616461F464FF4803058
:108A800000FA05F84FF4A07000EB85001FFA80F99A
:108A900026F07F464146206802F043F941462068AF
:108AA00002F039F94946206802F02EF9324629468B
:108AB000206802F020F94146206802F02FF91FB12A
:108AC0004146206802F030F9BDE8F08710B5044651
:108AD000206802F015F910BD2DE9F04704460D4657
:108AE00017466079324941F820706079314901EBCD
:108AF000C000007968B108262F49304A891AC90890
:108B0000022242EA01402EA101F0D0FE3046BDE82B
:108B1000F08729882068C0F8081500BF94F9042060
:108B2000AB7810461946002808DB4FEA417C4FEA33
:108B30001C68DFF8B0C00CF800800BE04FEA417C05
:108B40004FEA1C69DFF8A0C000F00F08A8F1040884
:108B50000CF8089000BF00BF94F9041008460028E4
:108B60000DDB00BF00BF00F01F0301229A40430944
:108B70009B0003F1E023C3F8002100BF00BF00BF4A
:108B800000BF012061790B4A02EBC10108716079D5
:108B9000114641F8304000260749084A891AC90899
:108BA000032242EA014011A101F080FE3046AEE707
:108BB000203300202433002078E5020030E5020055
:108BC00052544320696E7374616E636520616C72E8
:108BD0006561647920696E697469616C697A65643C
:108BE0002E00000000E400E018ED00E05254433A8B
:108BF00020696E697469616C697A65642E00000091
:108C000010B5014691F90400002807DB00F01F03AE
:108C100001229A40024B440943F8242000BF10BDB2
:108C200000E200E070B505460C46224602212846C7
:108C300000F0A1F870BD10B504464FF482712046D3
:108C400000F0A7F810BD10B504460021206802F01E
:108C50006EF810BD10B504460421206802F067F8D4
:108C600010BD2DE9F84F04468846154699464FF445
:108C7000803000FA08FA4FF4A07000EB88001FFA69
:108C800080FB25F07F455146204600F068F82068BB
:108C900002F036F806464146206802F026F80090B9
:108CA00032464146206802F026F85946206802F014
:108CB0002BF83146009804F031F9012806D1102034
:108CC00002F0C4FB5946206802F01EF8206802F04A
:108CD00017F806463146284604F020F90746514663
:108CE000206802F01BF8012F0FD16A1C4146206852
:108CF00002F001F8102002F0A9FB206802F000F851
:108D0000B04225D00D20BDE8F88F2A4641462068A4
:108D100001F0F1FF206801F0F3FF0646681E3146BE
:108D200004F0FCF807466FF07F40A0EB0900B84262
:108D300001D20D20E7E75FB96A1C4146206801F0C7
:108D4000DAFF206801F0DCFFB04201D00D20DAE745
:108D500001225146204600F00EF80020D3E770B5FE
:108D600004460D462946206801F0D5FF29462068B3
:108D700001F0D7FF70BD70B504460E46154631466A
:108D8000206801F0CBFF1DB13146206801F0CCFF17
:108D900070BD70B505460C462868015929B12146B9
:108DA000286801F0B1FF012070BD0020FCE770B51C
:108DB00004460D462A460021204600F00EF8A06821
:108DC000401CA06070BD01468A68C868801A704760
:108DD00001468A68C868801A704710B583680B44DA
:108DE000848823400468E35C137010BDC2688388E4
:108DF0001A4003689954C268521CC260704770B52B
:108E000005460E46144624B13146284600F00AFEB7
:108E100003E03146284600F0E7FD70BD30B504465A
:108E20001088C01C984201D90C2030BD0220158842
:108E300048551088401C108001201588485510881E
:108E4000401C108015884C551088401C1080002054
:108E5000EBE770B504460D4640F21442115B012267
:108E6000D4F81004FEF7C2FA064606B1357004F1D4
:108E70003C0204F5826104F1540072DF70BD70B5EC
:108E800004460D46E0B2FEF7A1F8204670BD000092
:108E90003EB500BF9DF8000020F00F00401C009080
:108EA0009DF8000020F0F0001030009000BF0B2271
:108EB00014A168467CDF044600BF254625B100BFEB
:108EC0002846FDF737FF00BF00BF00200190029049
:108ED0001020ADF804003C20ADF806000020ADF8ED
:108EE00008004FF4C870ADF80A0001A87ADF044604
:108EF00000BF254625B100BF2846FDF71BFF00BF78
:108F000000BF3EBD4E6F726469635F5541525400AD
:108F100070B505460C4660880D490988884215D110
:108F2000208840F67721884210D1A088C01E0949C8
:108F300008800949094A891AC908032242EA0140FE
:108F400004490B880A8806A101F0C6FC70BD000028
:108F5000903200209232002090E5020030E50200BD
:108F600044617461206C656E2069732073657420A0
:108F7000746F2030782558282564290070B50E4973
:108F80000E4800F035FE044600BF254625B100BF5F
:108F90002846FDF7CFFE00BF00BFF721074800F0CD
:108FA00018FE044600BF254625B100BF2846FDF740
:108FB000C1FE00BF00BF70BD118F0200A8330020AA
:108FC00070B50B48FFF782FD0A4B0CCB841843F1B8
:108FD0000005094903C9201A75EB010004D24FF0BE
:108FE0008073E41845F100052046294670BD000055
:108FF000E0320020F0320020F832002010B501F0FD
:10900000C7FA08B901F050FE10BD00000246002169
:109010000CE001EB8100074B33F82000904204D1B3
:1090200001EB810003EB80007047491C0029F0D060
:109030000020F9E7803B00202DE9FC5F83460E46C7
:1090400091461F46DDE90C45002E01DA704200E032
:10905000304682464FF0010803E09AFBF9FA08F126
:109060000108CA45F9DA474500D9B84634B1002E9F
:1090700003DB05F00400042800D1641E05F00200A3
:1090800000B167B105F0010048B944B104E0641EC5
:1090900020215846FFF7E4F90CB1A045F7D3002E84
:1090A00005DA76422D215846FFF7DAF907E005F098
:1090B0000400042803D12B215846FFF7D1F905F00D
:1090C000020002280DD105F0010050B94FB944B19A
:1090D00004E0641E30215846FFF7C2F90CB1A045E8
:1090E000F7D33B464A4631465846CDE9004504F0A1
:1090F000BFFABDE8FC9F00002DE9F04104460E4692
:109100004FF48E71206802F006F94FF4A2712068C6
:1091100002F001F91A49206802F00DF9206802F006
:10912000A5F90546374628463946002804DB4A0794
:10913000130E144A135408E04A074FEA126C124AFD
:1091400000F00F031B1F02F803C000BF00BF206820
:1091500002F08CF90546284600280DDB00BF00BF51
:1091600000F01F02012191404209920002F1E02229
:10917000C2F8001100BF00BF00BF00BFBDE8F08112
:109180008000020000E400E018ED00E02DE9F0416D
:1091900004460E464FF48871206802F0EFF84FF451
:1091A0009071206802F0EAF84FF49271206802F0A2
:1091B000E5F84FF4A271206802F0E0F84FF4AC71CA
:1091C000206802F0DBF81B49206802F0E7F820680D
:1091D00002F050F90546374628463946002804DB98
:1091E0004A07130E144A135408E04A074FEA126C58
:1091F000124A00F00F031B1F02F803C000BF00BF9C
:10920000206802F037F90546284600280DDB00BF2C
:1092100000BF00F01F02012191404209920002F1BB
:10922000E022C2F8001100BF00BF00BF00BFBDE8D0
:10923000F08100001003420000E400E018ED00E0BF
:1092400030B5024600201378C3F38003D3B11378FE
:1092500003F00303012B02D0022B10D107E0138887
:10926000C3F383139B1C0C6823440B6008E00B685A
:109270000225146805EB945423440B6000E000BF02
:1092800000BF012030BD2DE9F0410446A08800EB6D
:10929000020CB4F80480904501DD104600E0A0887F
:1092A000A8EB0005E088C618B4F80680984501DDF3
:1092B000184600E0E088A8EB00074888B4F8008072
:1092C000404504DB4888B4F80280404502DD0020B8
:1092D000BDE8F0818888A84202D38888604501D91A
:1092E0000020F5E7C888B84202D3C888B04201D947
:1092F0000020EDE70120EBE70146086808B10268AD
:109300000A60704710B5044622460121002000F093
:10931000E7FF002105E054F8210008B1012010BD4D
:10932000491C0029F7D00020F9E7000010B50848D3
:10933000007850B1002405E0022C02D02046FEF750
:1093400043FD641C042CF7D301E0FEF769FD10BD5A
:10935000A432002010B502F03FF820B902F060F806
:1093600000200149887010BD2C3C0020F7210180AD
:1093700017214180002101714171FB2181711B2165
:10938000C171704770B54FF48041002001F012FBAD
:10939000044600BF254625B100BF2846FDF7CAFC9C
:1093A00000BF00BF01F0E0F870BD00002DE9FF41F3
:1093B00000272E4800F04CFB2C48001F00F048FB13
:1093C0002B48806803902B4805680398284028495B
:1093D0000C3101EB800800BF03A94046FFF730FFC6
:1093E00030B10398284022490C3101EB800800E09D
:1093F00000E0F1E700BF00240AE00398411C284088
:1094000003911B490C3151F820004DF82400641CD5
:10941000022CF2D3009800F0030001280DD002289E
:1094200014D1BDF806700421009801EB9050401E45
:10943000039901EB9000039009E0BDF806700098D5
:10944000C0F3831003990844039000E000BF00BFFD
:109450000648001F00F0F5FA064616B104490398C5
:109460008860384604B0BDE8F08100003C4300202D
:10947000243F00205C33002003F062FFFFF782FFEF
:1094800003F0F2FD02F0C4FF19A0FDF7EBFA64242B
:1094900004B90DE000BF4FF47A7505B904E0184E29
:1094A000AF013846B04700BF601E041EF3D100BFB5
:1094B000FEF741FCFFF7ECFCFFF760FD03F01CFB3F
:1094C000FDF790FBFFF7BAF90EA0FDF7CBFA1249B2
:1094D000124A891AC908032242EA014010A101F088
:1094E000E5F9FDF7B7FB00BFFFF788FDFCE70000DB
:1094F0000D0A5541525420696E69742E0D0A000000
:1095000071D902000D0A554152542073746172746E
:1095100065642E0D0A00000090E5020030E50200AF
:109520004465627567206C6F6767696E6720666F58
:10953000722055415254206F766572205254542047
:10954000737461727465642E000000002DE9F041AF
:1095500005460E4614469846A888871C2088801C1D
:109560003844404502D90C20BDE8F081FE2F01D9D6
:109570000C20F9E7781C218870542088401C20803A
:10958000FF20218870542088401C20802288911957
:10959000288804F067F8218808442080A8880028DB
:1095A0000DDDA86808B90720DEE7AA882388981986
:1095B000A968FCF75BFF2088A98808442080002068
:1095C000D2E72DE9FF4F87B0044691461E46A246DA
:1095D0002546BAF806009AF805104843001F069081
:1095E000BAF806B0301DB0FBFBF00590301DB0FBA3
:1095F000FBF10BFB11000490D9F8000081190698CB
:10960000814202D90698801B01E0D9F80000074684
:10961000C9F8007003E02D680598401E0590059874
:109620000028F8D103900498ABEB0008B84501D9A5
:10963000384600E04046804623E0039908980844F5
:109640000290281D049908440190149828B14246BC
:10965000DDE90110FCF70AFF04E04246DDE9010103
:10966000FCF704FF002004902D68A7EB080703987F
:1096700040440390BB4501D9384600E05846804637
:1096800000BF002FD9D10BB0BDE8F08F70B50346F5
:109690000C469CB101F0B2F9054600220AE00848E8
:1096A00000EB820108881E68B04202D11A600020D7
:1096B00070BD521CAA42F2D30520F9E70020F7E75B
:1096C000000000002DE9F84F05460F461446984665
:1096D0002878012804D1687810B90720BDE8F88FF0
:1096E0002088801C404508D82878012807D1208888
:1096F000801C69780844404501D90C20EEE7208899
:10970000A8EB0000801E86B200962188891CC8192B
:1097100069467DDF814600BF484600B1DEE700BFF5
:109720002878022804D06878BDF80010884206DB4B
:10973000BDF80000B04202DC4FF0090A0BE04FF028
:10974000080A2878012805D16878B04202DC6878D8
:10975000009000E00096BDF80000FE2801D90C2022
:10976000BCE7BDF80000401C218878542088401CCC
:109770002080208807F800A02088401C20802088B6
:10978000BDF80010084420800020A7E717480068B3
:10979000401C38B916480178154808300078C0F3E5
:1097A000031205E0114801684FF08050D0F83421D1
:1097B000062912D1032A06D0042A06D0052A06D08B
:1097C000062A08D105E0012070470120FCE70120AE
:1097D000FAE70120F8E70120F6E70F2904D10AB9DA
:1097E0000120F1E70120EFE70020EDE73001001054
:1097F000E00F00F0074802684FF08050D0F83411B5
:109800000F2A04D109B9012070470120FCE700208C
:10981000FAE700003001001017480068401C38B912
:1098200016480178154808300078C0F3031205E0A7
:10983000114801684FF08050D0F83421062912D128
:10984000032A06D0042A06D0052A06D0062A08D103
:1098500005E0012070470120FCE70120FAE7012024
:10986000F8E70120F6E70F2904D10AB90120F1E752
:109870000120EFE70020EDE730010010E00F00F0DD
:1098800017480068401C38B9164801781548083058
:109890000078C0F3031205E0114801684FF08050D2
:1098A000D0F83421062912D1032A06D0042A06D082
:1098B000052A06D0062A08D105E0012070470120BC
:1098C000FCE70120FAE70120F8E70120F6E70F297D
:1098D00004D10AB90120F1E70120EFE70020EDE70C
:1098E00030010010E00F00F017480068401C38B944
:1098F00016480178154808300078C0F3031205E0D7
:10990000114801684FF08050D0F83421062912D157
:10991000032A06D0042A06D0052A06D0062A08D132
:1099200005E0002070470020FCE70120FAE7012055
:10993000F8E70120F6E70F2904D10AB90120F1E781
:109940000120EFE70020EDE730010010E00F00F00C
:1099500010B5044609B90E2010BD92FBF3F003FBCD
:10996000102008B10920F7E7216000206060A060A6
:10997000A281E38100BFEFE770B504460D4629469A
:109980002046FCF747FC18B12A882168881870BD6A
:109990000020FCE770B505460C46208861888842A7
:1099A00004D12846FCF778FC012070BD0020FCE7BC
:1099B00070B504460D4629462046FCF750FC18B108
:1099C0006A882168881870BD0020FCE770B50546DC
:1099D0000C4620886188884204D12846FCF736FC72
:1099E000012070BD0020FCE770B505460C4604F070
:1099F0001F0301229A40D143620905EB820000F067
:109A000039F8064670BD10B50246480952F82000E4
:109A100001F01F040123A340184008B1012010BD2C
:109A20000020FCE770B505460C4604F01F03012238
:109A300002FA03F1620905EB820000F03CF80646E9
:109A400070BD10B504460021204600F01EF810BD80
:109A500010B504460121204600F02DF810BDF8B5E0
:109A600004460D466A4629462046FCF76AFC06462F
:109A70000098F8BDF8B504460D466A4629462046CA
:109A8000FCF745FC06460098F8BDF8B504460D46BF
:109A90006A4629462046FCF73AFC06463046F8BDA1
:109AA000F8B504460D466A4629462046FCF716FCE2
:109AB00006463046F8BDF8B504460D466A462946C6
:109AC0002046FCF717FC06460098F8BDF8B504469A
:109AD0000D466A4629462046FCF740FC064600989B
:109AE000F8BDF8B504460026002000906846FDF752
:109AF000A3FA206800686168884215D92068006868
:109B0000401E226810600178204600F033F80646B7
:109B1000207A21680978401AC5B220680079A842E5
:109B200001DA2068057100BF9DF80000FDF78AFA90
:109B30003046F8BD0246D068081A138AB0FBF3F02D
:109B4000C0B27047F8B504460D462E46002000907E
:109B50006846FDF771FA31462046FFF7EBFF2168B2
:109B60000A68511C2368196010709DF80000FDF709
:109B700069FAF8BD0246138AD06801FB03007047FA
:109B800010B5014600BF09B90E2010BD00BF087A0C
:109B90000B79C01AC2B2D1E90030186005E008683C
:109BA0000368581C0C6820601A70101EA2F1010393
:109BB000DAB2F4D10B68187100BFE6E730B502469F
:109BC0000B46D40802F00702012090401D5D28409A
:109BD00030BD024600BF0AB90E20704700BF1729EA
:109BE00001DBF72901DD0720F7E711800020F4E70A
:109BF00070B504460E4600BF0CB90E2070BD00BF04
:109C00002661F72020806080FB202071002505E080
:109C1000A11D01EBC500FFF7A9FB6D1C002DF7D0BE
:109C20000020EBE72DE9F047064688464546B48814
:109C3000012C01DBBDE8F0873088242820D006DC29
:109C4000102809D011280CD0232823D11DE03A2850
:109C50000CD055281ED10EE03146284602F0B4F84B
:109C600019E03146284602F085F914E031462846CD
:109C700002F0EEF90FE03146284602F085F90AE0DD
:109C80003146284602F002F905E03146284602F046
:109C900027F900E000BF00BFA81D00EBC400007959
:109CA00018B3A81D30F834102046A5DF074657B971
:109CB0000021A81D00EBC40001710121A81D00EBCB
:109CC000C400417110E0112F0ED0384601F008FB9E
:109CD00081460749074A891AC908012242EA014018
:109CE0004A4605A100F0ECFD00BF00BFA2E700005E
:109CF00030E5020030E5020073645F626C655F6707
:109D0000617474635F65786368616E67655F6D74C5
:109D1000755F726571756573742829207265747535
:109D2000726E65642025732E00000000024600BF9D
:109D30000AB90E20704700BF00BF1078DE2801D09E
:109D40000820F7E700BF51800020F3E7024600BF7C
:109D50000AB90E20704700BF00BF09B90E20F9E70D
:109D600000BF1078DE2801D10820F3E708685060B2
:109D7000DE2010704FF6FF7050800020EAE770B5CB
:109D800004460E4600BF06B970BD00BF00BF04B94F
:109D9000FAE700BF354600BF2878DE2800D0F3E799
:109DA00000BFA0886988884202D1284603F005FDDB
:109DB0002088012806D0022809D0112811D0512866
:109DC00017D109E0211D284602F0FCF912E0211DFF
:109DD000284602F0F6F90DE0211D284602F09CF914
:109DE00008E0A0886988884202D14FF6FF70688039
:109DF00000E000BF00BF00BFC6E701464FF0804053
:109E0000405808B1012070470020FCE708B5002247
:109E10004FF080410A500958009100BF08BD000072
:109E200001490860704700000803004001229107C3
:109E30000A50704710B500240F48007808B18524F7
:109E400011E000200C49886048600861C8600B4838
:109E500001F0D6FA044601F081F908B901F0C6FA1A
:109E600001200549087001F0B7FA10B1012002493C
:109E70008870204610BD00002C3C0020B9860200EE
:109E800008B5002000906846FDF7D6F80748C0687E
:109E9000401E0649C8600846C06808B9FFF75AFA6C
:109EA0009DF80000FDF7CEF808BD00002C3C002016
:109EB0002DE9F04188B004460F46154626781A4829
:109EC00040F826501949386941F82600787F18492A
:109ED0008855202239466846FCF7C8FA04964FF0A8
:109EE000000820781249085C50B10DB1114800E01B
:109EF000002002466946201D01F08CFC80460EE0E1
:109F000020780B49085C50B90DB10B4800E00020E7
:109F10000246694604F10C0001F044FB80464046CD
:109F200008B0BDE8F0810000C4320020C832002033
:109F3000CC320020EDD4020009D302002DE9F0411B
:109F400004460D461646002720780C49085C30B1BF
:109F500032462946201D01F09DFC07460AE0207884
:109F60000649085C30B93246294604F10C0001F07C
:109F70005DFB07463846BDE8F0810000CC3200208A
:109F80002DE9F04104460D461646002720780C497D
:109F9000085C30B132462946201D01F017FD074606
:109FA0000AE020780649085C30B93246294604F1B7
:109FB0000C0001F0CDFB07463846BDE8F0810000FB
:109FC000CC3200200FB438B50446059810B938BC1F
:109FD0005DF814FB0020009006A800906A46204619
:109FE000059900F012F80020009000BFEFE770B56F
:109FF0000446A06800B970BDD4E90403A2682168D2
:10A0000098470020A06000BFF5E72DE9FC5F82467D
:10A010000D4614460DB9BDE8FC9F00BF2E786D1C9F
:10A0200006B9E1E0252E70D100274FF0010900BFED
:10A030002E782B2E0CD02D2E02D0302E0CD103E0FA
:10A0400047F001076D1C0AE047F002076D1C06E0AF
:10A0500047F004076D1C02E04FF0000900BF00BF8D
:10A06000B9F1000FE4D14FF0000800BF2A2E06D14D
:10A070002168081D2060086880446D1C0DE02E7862
:10A08000302E01DB392E00DD07E06D1CA6F130001B
:10A0900008EB880100EB4108E8E700BF4FF0000B38
:10A0A0002E782E2E10D16D1C00BF2E78302E01DBA5
:10A0B000392E00DD07E06D1CA6F130000BEB8B01A3
:10A0C00000EB410BF1E700BF2E7800BF6C2E01D0F2
:10A0D000682E02D16D1C2E7800E000E0F6E700BF8C
:10A0E000692E21D008DC252E6DD0582E39D0632E54
:10A0F0000CD0642E6CD116E0702E4CD0732E3ED056
:10A10000752E1FD0782E63D12AE065E02168081DE6
:10A110002060D1F8009009F0FF00019050460199AD
:10A12000FEF79EF955E000BF2168081D2060D1F8B8
:10A1300000905B460A2249465046CDE90087FEF76B
:10A140007BFF46E02168081D2060D1F800905B4647
:10A150000A2249465046CDE9008703F089FA38E0E3
:10A1600000BF2168081D2060D1F800905B461022D6
:10A1700049465046CDE9008703F07AFA29E0216884
:10A18000081D2060086801903B46424650460199F0
:10A1900002F08AFE1DE02168081D2060D1F80090C1
:10A1A00030215046FEF75CF978215046FEF758F909
:10A1B000002008210B461022CDE9001049465046E8
:10A1C00003F056FA05E025215046FEF749F900E074
:10A1D00000BF00BF6D1C03E031465046FEF740F95A
:10A1E000287800287FF41AAF00BF9AF80C0010B14D
:10A1F0005046FFF7FCFE00BF0DE7F0B5DDE9054571
:10A2000000BF4FF0A0473E4641EA420747EA8307B6
:10A2100047EA042747EA054C06F5E06747F820C0FF
:10A22000F0BDF0B5DDE9054500BF4FF0A0473E4663
:10A2300041EA420747EA830747EA042747EA054C11
:10A2400006F5E06747F820C0F0BD7CB505460C4632
:10A250000020009023460246014601902846FFF761
:10A26000CCFF7CBD7CB505460C4600200090234603
:10A270000246014601902846FFF7D3FF7CBD1CB57E
:10A28000044600200090034601221146019020461A
:10A29000FFF7B3FF1CBD1CB5044600200090034629
:10A2A0000122114601902046FFF7BBFF1CBD10B5EF
:10A2B0000A4600BF4FF0A043194601F5E06353F88A
:10A2C000203023F4403401F5E06343F8204053F894
:10A2D000203043EA024401F5E06343F8204010BD1A
:10A2E00038B503460A4C2468009418460BE05DF824
:10A2F0002040D4F8204514605DF820501468C5F85B
:10A300002045121D401C5C188442F0D838BD000066
:10A31000ECD9020000BF4FF0A0410A46012303FA26
:10A3200000F1C2F8081500BF704700BF4FF0A04110
:10A330000A46012303FA00F1C2F8081500BF70476E
:10A3400010B561B900BF00BF4FF0A0421346012411
:10A3500004FA00F2C3F80C2500BF00BF0CE000BFF8
:10A3600000BF4FF0A0421346012404FA00F2C3F8E4
:10A37000082500BF00BF00BF10BD00000146014816
:10A38000084470470060004038B504462046FFF797
:10A39000F5FF002101602046FFF7F0FF0068009004
:10A3A00000BF38BD10B504462046FFF7E7FF006840
:10A3B000012800D110BD0020FCE7000070B5044664
:10A3C0000E46FCF709FF0546681C08B9284670BD13
:10A3D000E8B2E168087100BF0C48D0F8100430B949
:10A3E0000A48C0F810440020E16808600BE0074804
:10A3F000D0F81004C0680068E16808600348D0F82D
:10A400001004C06804602846E1E70000243F0020F3
:10A41000704710B5FCF73AF910BD704738B50446DF
:10A420000D4604484023044A29460090204600F087
:10A4300005F838BDDDC902008C3D00202DE9F04F44
:10A4400093B082460E4617469846DDF87090304627
:10A4500000F0CBFB18210DA8FCF721F80D97CDF8E3
:10A460003880CDF8489000252B46082207A93046B1
:10A4700000F0D8FB082509980A90BDF82000ADF837
:10A480002C00BDF82200ADF82E0000208DF8310020
:10A49000079800F0030001281BD107984FEA902B82
:10A4A0000798C0F3C2008DF830000798C0F38314FA
:10A4B000A2002B4601A9304600F0B4FB05EB840551
:10A4C0000DA80AAB224601A90090584600F0CCFA2C
:10A4D00027E0079800F00300022822D107984FEAEE
:10A4E000905B0798C0F3C2008DF8300000BFBBF14D
:10A4F000080F01D2584600E0082004462B462246A9
:10A5000005A9304600F08EFB2544ABEB040B0DABE8
:10A510000AAA214605A800F0EFF9BBF1000FE6D129
:10A5200000BF304600F06FFB13B0BDE8F08F0000B5
:10A5300010B502460B4C04EBC203012906D00229D8
:10A5400006D0032906D0042908D105E0022007E03F
:10A55000042005E0187903E0587901E0002000BFED
:10A5600000BF10BD30E5020010B54FF0FF34FFF71B
:10A5700050FF04210548FFF721FF044600BF0120DA
:10A580000249C968487100BF10BD000020E5020003
:10A590002DE9F04F8BB0FDF779FF18B100200BB01B
:10A5A000BDE8F08F0020B749C1F8180400BF00BF14
:10A5B00000BFBFF34F8F00BF00BF00BF08468068D9
:10A5C0000A90B14804680A9820400C3101EB800AD7
:10A5D000002500260020069000BF0AA95046FEF77D
:10A5E0002FFEA8B1A748D0F8180488B9A54840683C
:10A5F0000A99884205D8A3484068A249886000208B
:10A60000CDE70A9820409F490C3101EB800A00E019
:10A6100000E0E2E700BF00270BE00A98411C204061
:10A620000A9198490C3151F8200007A941F82700F8
:10A630007F1C022FF1D3079800F0030002287CD181
:10A640000798800D059050210798B1EB905F02DDCF
:10A650000798800D00E050208146079869F39F50CD
:10A66000079009F1080004900798C0F3C200069013
:10A670008648049900F05CFA0546002D5BD0284618
:10A6800000F0B3FA3346082207A9284600F0DBFAA7
:10A6900008360A982040611C081A4FEA8008C14514
:10A6A00035D9B8F1000F06D00A98204075490C3111
:10A6B00001EB800001E073480C300390B8F1000F0B
:10A6C00001D0404600E0484600F0FF0BB8F1000F13
:10A6D00002D06C480C3000E000200290B8F1000F6E
:10A6E00002D0A9EB080000E00020C0B20190334680
:10A6F0005A462846039900F0A6FA5E44029828B10B
:10A7000033462846DDE9012100F09DFA0CE00A9865
:10A7100020405C490C3101EB800B33464A465946D8
:10A72000284600F090FA00BF0598C01C0A9901EB7A
:10A7300090000A9000BF44E0FFE7079800F0030094
:10A7400001283ED10798C0F38310062803DA079842
:10A75000C0F3831000E00620079960F38911079188
:10A760000798C0F3831000F102080798C0F3C200F5
:10A7700006904FEA8801454800F0DAF90546FDB138
:10A78000284600F032FA3346082207A9284600F08E
:10A790005AFA083600270EE00A98421C20400A9216
:10A7A000384A0C3202EB800133460422284600F07E
:10A7B0004AFA361D7F1C0798C0F38310B842EBD8C5
:10A7C00000BFE5B32F48D0F81084D0F8180418B1B2
:10A7D000284600F018FA31E019E04FF0000900BFF8
:10A7E000D8F80C004079012800D18146B9F1000F5A
:10A7F00008D000BFD8F800002946026840469047BC
:10A8000000BF00BFD8F80C00D0F8008000BFB8F13E
:10A81000000FE2D1284600F0F6F90020059005A8C7
:10A82000FCF70AFC1748D0F8180410B915490A9823
:10A8300088609DF81400FCF705FC00BF1DE0FFE7F1
:10A840001048D0F810840AE0C146D9F800008168A9
:10A850004846884700BFD8F80C00D0F80080B8F10F
:10A86000000FF1D10A490B4A891AC908022242EAAB
:10A87000014009A100F01AF800BFFDF707FE80F0C3
:10A8800001008CE6243F00205C330020B0E502008C
:10A8900090E5020030E502004261636B656E64730F
:10A8A00020666C75736865640000000070B504462E
:10A8B0000D4600231A462946204602F0BDFA70BD17
:10A8C000F8B505460E461446009401236A46314603
:10A8D000284602F0B1FAF8BD2DE9FC4106460F46C4
:10A8E00014461D460094019502236A4639463046B7
:10A8F00002F0A2FABDE8FC812DE9F05F07460E46A2
:10A9000090461D46082E01D9BDE8F09F95F80C90A1
:10A91000002028732946404601F088FD00240CE001
:10A92000B44205D23A5D1DA12846FFF74BFB03E078
:10A930001CA12846FFF746FB641C082CF0D31AA183
:10A940002846FFF73FFB00241DE0B44216D217F85B
:10A9500004A0BAF17E0F09DCFBF784FD006810F853
:10A960000A0000F03E0008B1504600E02E20834669
:10A970005A460EA12846FFF725FB03E00CA1284606
:10A98000FFF720FB641C082CDFD301222946404638
:10A9900001F01AFD85F80C9000BFB5E72025303294
:10A9A00078000000202020007C00000025630000CB
:10A9B000200000002DE9F04106460F4600BF0020B0
:10A9C00009490870094800F018F9044614B12046F6
:10A9D000BDE8F081064800F07AF906480649401AB9
:10A9E000C5080020F4E70000243F0020B0E5020085
:10A9F00058DC0200B0E5020030E5020002480349DD
:10AA0000401AC00870470000B0E5020030E50200BF
:10AA100013B50C4621466846FEF738FE28B90448AF
:10AA2000009A00EBC20108681CBD0020FCE7000092
:10AA300030E5020070B50B48D0F8104401200949F8
:10AA400008700CE000BF0120E168487100BF254696
:10AA5000286841682846884700BFE0680468002CE1
:10AA6000F0D170BD243F00202DE9FF4707460C467A
:10AA7000164698460C9D95F80C90002028732946A0
:10AA8000404601F0D3FC072E47D2DFE806F0040968
:10AA90000F161F2A370039462846FFF793FA3DE084
:10AAA000394628462268FFF78DFA37E039462846AE
:10AAB000D4E90023FFF786FA30E0A0680090394619
:10AAC0002846D4E90023FFF77DFA27E0D4E9020104
:10AAD000CDE9000139462846D4E90023FFF772FA90
:10AAE0001CE0D4E902122069CDE900120290394637
:10AAF0002846D4E90023FFF765FA0FE0D4E90223E2
:10AB0000D4E90410CDE90023CDE9021039462846E6
:10AB1000D4E90023FFF756FA00E000BF00BF00228F
:10AB20002946404601F050FC85F80C90BDE8FF87AF
:10AB30002DE9F84F07468A46388AA0F104080AF141
:10AB400004004044401EB0FBF8F0C0B2009038460C
:10AB5000FEF7C7FF044614B90020BDE8F88F0020B7
:10AB6000207101216171A4F8068025460098A0F1AA
:10AB7000010B2C462F604FF0000912E03846FEF71B
:10AB8000B0FF064636B16079401C60712E603760B8
:10AB9000354604E0204600F008F80020DDE709F122
:10ABA0000109D945EAD32046D7E72DE9F05F0446ED
:10ABB000274697F805802646A8F1010B002501E0FD
:10ABC00036686D1C5D45FBD3D6F800A026460025EF
:10ABD00007E0D6F8009031465046FEF7B3FF4E46E8
:10ABE0006D1C4545F5D3BDE8F09F70B5044625467C
:10ABF0000121281DFEF733FF70BD10B50446204625
:10AC0000FEF7BEFF10BDF8B5044626460121301DF3
:10AC1000FEF75CFF00906D46287810B92046FFF7DC
:10AC2000C4FFF8BD2DE9FC4105460E4614461F46FB
:10AC3000019401203B4601AA314600902846FEF7C8
:10AC4000C0FCBDE8FC812DE9FC4105460E461446DA
:10AC50001F46019400203B4601AA31460090284639
:10AC6000FEF7AFFCBDE8FC8110B500200A49087072
:10AC700000BF0A49086000BF00BF00BF00BFBFF3AC
:10AC80005F8F00BF00BF00BF00BF0549054800F04F
:10AC900098FA002010BD000034330020303300202B
:10ACA000F0DA0200803D002010B500F057FA10B134
:10ACB00041DF044602E020BF40BF20BF10BD10B5F9
:10ACC000044600BF2046FCF735F800BF10BD002148
:10ACD0008268916082681161826851618268D16086
:10ACE00082685160826811607047024602F5A86070
:10ACF00050F82100704700F5A86343F82120704701
:10AD00000146D1F80405704708B500224250425868
:10AD1000009200BF08BDC0F848137047C0F8441344
:10AD20007047C0F808137047C0F804137047012239
:10AD300042507047014609B90E207047024800682A
:10AD400008600020F9E70000E8DC0200FEB50646D6
:10AD50000C462046FFF7EEFF05460DB12846FEBD26
:10AD600000200090019002908DF8006001208DF885
:10AD700002000621ADF8041069462020226869DF30
:10AD8000054675B1284600F0ABFA07464E494F4AD2
:10AD9000891AC908012242EA01403A464C49FFF7A4
:10ADA0008FFD002000900190029001208DF801009D
:10ADB00000208DF802008DF80300694640202268CB
:10ADC00069DF054675B1284600F08AFA07463E4914
:10ADD0003E4A891AC908012242EA01403A463D49E1
:10ADE000FFF76EFD00200090019002908DF800604A
:10ADF000F720ADF8020069462320226869DF054686
:10AE000075B1284600F06CFA07462F492F4A891A77
:10AE1000C908012242EA01403A462F49FFF750FD96
:10AE2000002000900190029001208DF800006946FA
:10AE3000226869DF054675B1284600F051FA0746D9
:10AE40002149224A891AC908012242EA01403A46A8
:10AE50002249FFF735FD00200090019002904FF449
:10AE6000B06000906946A120226869DF054675B18F
:10AE7000284600F035FA07461349144A891AC908CA
:10AE8000012242EA01403A461549FFF719FD002028
:10AE90000090019002908DF800006946A020226881
:10AEA00069DF054675B1284600F01AFA07460649DB
:10AEB000064A891AC908012242EA01403A4609496C
:10AEC000FFF7FEFC00204AE7A0E5020030E50200A3
:10AED0007CE30200C4E3020010E40200DCE20200B2
:10AEE00028E3020088E202002DE9F04104462568CB
:10AEF000204660DF06462068A84225D91E491F4A21
:10AF0000891AC908022242EA01401DA1FFF7CEFCBE
:10AF100019491A4A891AC908022242EA01402A46F6
:10AF200023A12368FFF7D8FC01F0DEFA2168471A55
:10AF30001149124A891AC908022242EA01403A46D6
:10AF400028A1FFF7BDFC00E000BF1EB90120304979
:10AF500008700EE0304600F0C3F907460649074A7C
:10AF6000891AC908012242EA01403A4629A1FFF79D
:10AF7000A7FC3046BDE8F081A0E5020030E5020004
:10AF8000496E73756666696369656E742052414DDA
:10AF900020616C6C6F636174656420666F722074ED
:10AFA000686520536F66744465766963652E00009A
:10AFB0004368616E6765207468652052414D207357
:10AFC00074617274206C6F636174696F6E20667255
:10AFD0006F6D203078257820746F20307825782E9A
:10AFE000000000004D6178696D756D2052414D2063
:10AFF00073697A6520666F72206170706C69636135
:10B0000074696F6E20697320307825782E000000F7
:10B01000A333002073645F626C655F656E61626C70
:10B020006528292072657475726E65642025732EFB
:10B03000000000002DE9F041ADF5027D8046184882
:10B04000007818B90DF5027DBDE8F0811DE04FF4E0
:10B05000FA70049004A905A861DF044604B115E064
:10B0600005AD104901A800F0ACF809E000BF039855
:10B070000646376828467168B84701A800F0C2F84C
:10B0800000BF03980028F1D100BFE0E700BF052C06
:10B0900004D000BF2046FBF74DFE00BF00BFD1E744
:10B0A000A3330020DCDC02001CB51B48007808B18B
:10B0B00008201CBD012019490870002001F038FC4F
:10B0C000112801D10020F4E7002001F04FFC1448C2
:10B0D00000680190002000906846FBF7ADFF114921
:10B0E00001A810DF04460CB9012000E000200A4945
:10B0F00008709DF80000FBF7A5FF0CB12046D8E7CB
:10B100000020064908700849087001F03DFE012042
:10B1100001F02CFC0020CCE7A0330020A23300205B
:10B12000B8DC0200796C0200A13300203EB50A4968
:10B13000684600F046F809E0684600F03FF804462B
:10B1400025686068A847684600F05CF8684600F02B
:10B1500035F80028F0D13EBDACDC02000148007893
:10B1600070470000A03300202DE9FF41074618E09A
:10B1700003A84BDF044604B114E00F49684600F011
:10B1800020F809E000BF029805462E686968039818
:10B19000B047684600F036F800BF02980028F1D1A9
:10B1A00000BFE5E700BF052C04D000BF2046FBF739
:10B1B000C1FD00BFBDE8FF81FCDC020001468868DC
:10B1C000704770B504460D462560286860602046CB
:10B1D00000F001F870BD14E0D0E9002152689142FE
:10B1E00002D1002181607047416809684268526855
:10B1F000914203D0416809688160F4E741680831F1
:10B200004160E9E710B50446A06800B910BD2168A7
:10B21000A06889680844A060D4E9011049688842A0
:10B2200005D16068083060602046FFF7D4FF00BF9A
:10B23000ECE770B505460E466C6806E020683146BE
:10B24000AA68904700B903E0246820680028F5D177
:10B2500000BF20683060266070BD01464868006805
:10B26000704701464A6810684A68126822B14A6805
:10B27000126812684B681A60704710B503460A4698
:10B280000020596807E00C68944203D114680C60F0
:10B29000012003E009680C68002CF4D100BF10BD48
:10B2A00070B502460D4B03F5947413E0E61AF010E6
:10B2B00000EBD076761003EBC6010D68954201D9FC
:10B2C0000C4606E0954202D201F1080301E048680D
:10B2D00070BD00BFA342E9D30020F9E710DB0200F4
:10B2E00030B504462046FFF7DBFF05460DB902489E
:10B2F00030BD2846FCE70000FCDA02000146D1F828
:10B300008004C1F8800470470246505808B10120FB
:10B3100070470020FCE708B50022425042580092D6
:10B3200000BF08BDC0F808154FF4A2631A5070475B
:10B33000C0F808137047C0F8041370470246D2F8EB
:10B340000403084008B1012070470020FCE70122F7
:10B350004250704740F214531A5040F20C531950A7
:10B3600070470146D1F88004C1F880047047024656
:10B37000505808B1012070470020FCE708B50022B2
:10B3800042504258009200BF08BDC0F808154FF463
:10B39000A2631A507047C0F808137047C0F804132E
:10B3A0007047014640F23C5040587047D0F80022A8
:10B3B0008A43C0F80022704701224250704701467C
:10B3C00040F24C504058704740F20C53195040F234
:10B3D00014531A50704700000348006808B1012058
:10B3E00070470020FCE700000004014010B500F0A9
:10B3F0004FF801200149086000BF10BD180500404A
:10B4000001460020054A12790AB1852004E0034A6A
:10B4100011600122014B1A7170470000D0320020E8
:10B4200010B50220FEF7FCFC4FF48270FEF7EEFC34
:10B430000C20FEF7FBFC00BF00BF03480068C0F310
:10B4400000400028F8D110BD1804004070B5044633
:10B4500004B970BD024EA5012846B04700BFF8E709
:10B46000C1DA02000146080B40B270470146080BE2
:10B4700040B270470146080B40B27047014601F0E8
:10B480006040B0F1005F01D1012070470020FCE76F
:10B490002DE9F04106254FF08040FFF7E3FF044619
:10B4A0002046E21704EBD2625211920002F1E02230
:10B4B000D2F800212146E31704EBD3635B11A4EB20
:10B4C00043160123B3401A400AB1012200E00022D2
:10B4D00082BB4FF08040FFF7C5FF04462E46204652
:10B4E0003146002804DB4A07130E134A135406E0C2
:10B4F0004A07170E114A00F00F031B1FD75400BF55
:10B5000000BF4FF08040FFF7ADFF04462046002803
:10B510000DDB00BF00BF00F01F0201219140420976
:10B52000920002F1E022C2F8001100BF00BF00BF8C
:10B5300000BF00BFBDE8F08100E400E018ED00E0CE
:10B540002DE9F84307460E46384600F0C1FF044691
:10B55000D4B14FF00008002000906846FBF76CFD66
:10B56000207910B14FF0010802E02660012020711F
:10B570009DF80000FBF766FDB8F1000F03D0112520
:10B580002846BDE8F88300BF00252846F9E70000FB
:10B5900010B50249024801F001FF10BD9C3C00209B
:10B5A000002000402DE9F04105460E461746287957
:10B5B00000EB400101EBC0001A4901EB80044FF0A1
:10B5C000000894F82A0020B14FF008084046BDE872
:10B5D000F0812A79144B53F822102868FFF7B0FF46
:10B5E00018B14FF011084046F1E731462846FBF705
:10B5F00076FD676030692060606818B1317F284649
:10B60000FDF77AFD28680421C0F8001500BF00206E
:10B61000A061E06184F829006061012084F82A00BB
:10B620004046D4E79C3C00203CDA02002DE9F84F6C
:10B63000054689469246287900EB400101EBC0009F
:10B64000424901EB800400200090606820B14FF473
:10B6500001712868FFF76CFEA06970B1E06950B114
:10B66000606820B14FF401712868FFF764FE11266D
:10B670003046BDE8F88F01200090009838B9C4F832
:10B6800018A0C4F80C9000206062E06103E0C4F8E8
:10B690001090C4F81CA094F8290020B9009810B9A3
:10B6A000284601F066F86068002846D14FF4A27180
:10B6B0002868FFF730FE00BF00BF4FF49271286882
:10B6C000FFF722FE80464FF484712868FFF71CFEC6
:10B6D00083464FF4A2712868FFF716FE0746BBF1B8
:10B6E000000F03D117B9B8F1000FE6D0B8F1000F81
:10B6F00000D107B107E02146286800F0FFFF616A2A
:10B70000A0698842D8D800BF0020A061B8F1000F1E
:10B7100002D003263046ACE717B10F263046A8E723
:10B7200094F8290020B100212868FFF710FE03E0FB
:10B7300004212868FFF70BFE04E04FF4017128682C
:10B74000FFF7F9FD0026304693E700009C3C0020FF
:10B750002DE9F04104460F469046207900EB400168
:10B7600001EBC0001C4901EB8005204600F036F8D3
:10B7700018B111263046BDE8F081C5F81480AF60DD
:10B780000020286285F8280000264FF48E7120687A
:10B79000FFF7C1FD08212068FFF7D9FD2946206881
:10B7A00001F08CFC6868A0B92946206801F06BFCA8
:10B7B00008B90F260BE000BF4FF48E712068FFF729
:10B7C000A3FD0028F8D00C212068FFF7C0FD002061
:10B7D00068613046CFE700009C3C002001460879B4
:10B7E00000EB400202EBC000044A02EB800040691B
:10B7F00008B1012070470020FCE700009C3C0020BD
:10B8000010B50249024801F08DFE10BDC83C002071
:10B81000002000402DE9F04105460E4617462879E4
:10B8200000EBC000194901EB80044FF0000894F8C8
:10B83000200020B14FF008084046BDE8F0812A7989
:10B84000134B53F822102868FFF77AFE18B14FF017
:10B8500011084046F1E731462846FBF77EFC676059
:10B8600030692060606818B1317F2846FDF78EFC92
:10B8700028680821C0F8001500BF0020A061E06121
:10B880006061012084F820004046D6E7C83C0020D3
:10B890006CDA02002DE9F84F04460E46174620796F
:10B8A00000EBC000484901EB80053046FFF7E6FD9C
:10B8B00020B94FF010084046BDE8F88F4FF0000A5D
:10B8C000686820B14FF404712068FFF764FDA8692F
:10B8D00070B1E86950B1686820B14FF40471206814
:10B8E000FFF75CFD4FF011084046E5E74FF0010A15
:10B8F000BAF1000F04D1AF61EE600020E86101E011
:10B900002E61EF614FF000084FF488712068FFF757
:10B9100035FD4FF4A2712068FFF730FD2068C0F8B4
:10B9200034654FF4A7610F5000BFBAF1000F04D186
:10B9300000212068FFF740FD08E020212068D0F8B2
:10B9400000220A43C0F8002200BF00BF207900EBAC
:10B95000C0001D4901EB8000406868BB00BF4FF488
:10B9600088712068FFF703FD00904FF4A2712068F2
:10B97000FFF7FDFC83464FF492712068FFF7F7FC58
:10B980008146009828B9BBF1000F02D1B9F1000F30
:10B99000E5D00020217901EBC1010B4A02EB8101C6
:10B9A0008861B9F1000F01D04FF00308BBF1000F1F
:10B9B00001D04FF00F0804E04FF404712068FFF746
:10B9C000EDFC404678E70000C83C00202DE9F04738
:10B9D000044688469146207900EBC0002A4901EBD5
:10B9E00080054046FFF74AFD18B910263046BDE8ED
:10B9F000F087204600F04AF810B111263046F6E7ED
:10BA0000C5F81490C5F8088000264FF4907120689E
:10BA1000FFF7B4FC4FF4AC712068FFF7AFFC20686F
:10BA20006A69A968C0F844154FF4A9631A5000BFA9
:10BA300008212068FFF7C0FC686818BB00BF4FF4FE
:10BA400090712068FFF793FC82464FF4AC71206838
:10BA5000FFF78DFC0746BAF1000F01D1002FEED0A1
:10BA60000FB10F260BE00C212068FFF7A5FC00BFEB
:10BA70004FF4AC712068FFF77AFC0028F8D0002062
:10BA8000686100BF3046B2E7C83C00200146087933
:10BA900000EBC000044A02EB8000406908B10120BD
:10BAA00070470020FCE70000C83C00202DE9F04171
:10BAB00005462878002831D100261FE000BF2969FB
:10BAC000885DFBF783FA0446ACB1112C13D01449FE
:10BAD000144A891AC908012242EA0140224612A1E9
:10BAE000FEF7EEFE00BF274627B100BF3846FBF742
:10BAF00021F900BF00BF112CE1D0761CA88AB0420A
:10BB0000DCD8A88A401E2969085C0D2805D100BF31
:10BB10000A20FBF75BFA1128FAD000BFBDE8F081DC
:10BB200090E5020030E502004661696C65642072B0
:10BB30006563656976696E67204E5553206D657340
:10BB4000736167652E204572726F72203078257898
:10BB50002E20000070B50546002D34D0032D02D0F4
:10BB6000042D3DD117E02049204A891AC908032233
:10BB700042EA01401EA1FEF799FE0220FCF720FADE
:10BB8000044600BF264626B100BF3046FBF7D2F878
:10BB900000BF00BF25E01449144A891AC9080322CE
:10BBA00042EA014019A1FEF781FE0420FCF708FAE1
:10BBB000044600BF264626B100BF3046FBF7BAF860
:10BBC00000BF00BF0DE00849084A891AC9080322CE
:10BBD00042EA014014A1FEF769FE01F0A0F800E07E
:10BBE00000BF00BF70BD000090E5020030E502001C
:10BBF0006A696E74616E673A20424C455F414456F3
:10BC00005F4556545F464153540000006A696E74A4
:10BC1000616E673A20424C455F4144565F45565439
:10BC20005F534C4F570000006A696E74616E673A4B
:10BC300020424C455F4144565F4556545F49444C51
:10BC40004500000010B50446FDF7BAF9014A03C2E9
:10BC500010BD0000F832002010B504460548006809
:10BC600030B10448006801F05FF900200149086024
:10BC700010BD0000E832002070B50546287868B98C
:10BC80003B210748008876DF044600BF264626B1E0
:10BC900000BF3046FBF74EF800BF00BF70BD00008C
:10BCA0009032002070B50546AE883046FDF7AEF9FB
:10BCB000044674B14FF6FF7340F2F31205F1080128
:10BCC00004F10A00FDF7DFFA607221463046FCF706
:10BCD000E3FD70BD2DE9F0410546EF7BAE88012FF5
:10BCE00001D0BDE8F0814FF6FF70FDF78FF90446F3
:10BCF0001CB9042000F054FEF3E700BF26800020AA
:10BD000020720E480168C4F80A104068C4F80E009A
:10BD100000BF4FF6FF7340F2F31205F1100104F17A
:10BD20000A00FDF7B0FA60720548C08918B92146CB
:10BD30003046FCF7B1FD00BFD3E70000BC32002065
:10BD4000943B002070B58AB004460D460020009058
:10BD5000A9886A466069FBF75DFA064600200290F2
:10BD6000039001A803900220ADF808000020ADF870
:10BD70000A002189A88802AAADDF0646D6B9A069C3
:10BD8000C0B10398FBF7CEFFA0B1009810B101201D
:10BD900000990870182104A8FAF781FB02208DF899
:10BDA00010000594A888ADF818000098079004A822
:10BDB000A16988470AB070BDCA7B012A02D18A886E
:10BDC000A0F82424704700002DE9F04705460F46EF
:10BDD000B7F80480A81D00EBC8042879A071F87B8F
:10BDE000012802D0022806D102E02888208003E042
:10BDF0006888208000E000BF00BF208861888842FA
:10BE00001BDD21884046A5DF064616B9012060717A
:10BE100013E0112E02D1012020710EE03046FFF711
:10BE20005FFA81460A490B4A891AC908012242EA87
:10BE300001404A4608A1FEF743FDA079E179884216
:10BE400003DDA1794046FCF77BFDBDE8F0870000EB
:10BE500030E5020030E5020073645F626C655F6785
:10BE6000617474635F65786368616E67655F6D7444
:10BE7000755F7265717565737428292072657475B4
:10BE8000726E65642025732E0000000070B58EB0C0
:10BE900004460E462C22311D03A8FAF7E7FABDF836
:10BEA0000C50BDF81000C1B2A01D00EBC500C1715F
:10BEB000206980B1094903C9CDE90101ADF80650F7
:10BEC000A01D00EBC500C0798DF8080001A920462F
:10BED0002269904700BF0EB070BD0000D4D90200A7
:10BEE0002DE9F04705460E46341D2188A81D00EBBC
:10BEF000C10794F80480B879404501DAB87900E0C8
:10BF00004046814620884946FCF71AFDBDE8F08787
:10BF10002DE9F0410646B7883846FDF777F8054623
:10BF20006DB16868FAF7AFFF044614B1204600F01F
:10BF300037FD00BF4FF6FF70288000BF00BFBDE88F
:10BF4000F08170B504460E46002084F82E04B088B7
:10BF5000B4F8241488420CD1207950B9012120462C
:10BF6000FBF72BFB054625B1A06B10B12846A16B52
:10BF7000884770BD70B504460D46AA88A11D01EB27
:10BF8000C200FDF7F3F970BD2DE9FC4705460E46EA
:10BF9000B6F80480B6F80690A81D00EBC804B9F105
:10BFA000170F01DA172000E04846814620884845EF
:10BFB00001DD484600E02088608000202071218853
:10BFC0004046B5DF074677B13846FFF789F9824624
:10BFD0001049114A891AC908012242EA0140524611
:10BFE0000EA1FEF76DFC607908B1BDE8FC872869F9
:10BFF00068B1164903C9CDE90001ADF80280608837
:10C00000ADF80400694628462A69904700BF00BF82
:10C01000EBE7000030E5020030E5020073645F6288
:10C020006C655F67617474735F65786368616E6780
:10C03000655F6D74755F7265706C79282920726513
:10C040007475726E65642025732E0000CCD90200D1
:10C050002DE9FC4105460E46B788B6F80A80A81DB2
:10C0600000EBC7042088404501DD404600E0208801
:10C0700060806088172801DA172000E060886080FF
:10C08000286978B1607968B1094903C9CDE900012F
:10C09000ADF802706088ADF80400694628462A6948
:10C0A000904700BF002060712071BDE8FC81000056
:10C0B000C4D9020070B588B004460D46A98801AA0B
:10C0C0006069FBF7A7F806460EB108B070BD01988D
:10C0D000007888B1A06978B1182102A8FAF7DFF9D1
:10C0E00001208DF808000394A888ADF8100001988D
:10C0F000059002A8A169884700BFE6E70548D0E996
:10C1000000304FF080729A1840F100000149C1E9F7
:10C1100000207047F03200202DE9FF4106460D4611
:10C1200028887188884201D0BDE8FF81AC1C207846
:10C13000022800D0F8E7207A042806D0207A0628C2
:10C1400003D0207A052800D0EEE70020009001906F
:10C150000290039002208DF800004FF4C070ADF8FB
:10C160000400207A052802D10020ADF804002888B8
:10C170006946B0DF074617B138467168884700BF87
:10C18000D2E72DE9F04104460D462888262801D043
:10C19000BDE8F081287A012802D0287A02280ED141
:10C1A000A078FAF7E2FC074639462046FBF705FA85
:10C1B000064626B1A06B10B13046A16B884700BF80
:10C1C000E6E7704770B504460D462879012808D186
:10C1D00028886188884204D101202072204601F01D
:10C1E000ECFA70BD2DE9F0410446A51D28881249DE
:10C1F000C98988421DD1688902281AD1B4F80480FF
:10C200004046FCF703FF064696B105F10C00FBF72C
:10C2100089FD20B131464046FCF73EFB08E07068DE
:10C22000FAF731FE074617B1384600F0B9FB00BFF8
:10C2300000BFBDE8F0810000943B0020F0B587B05E
:10C2400004460E46B51DB1886A466069FAF7E2FFFA
:10C250000746182101A8FAF722F90294B088ADF830
:10C260000C00009804902988208981421CD168899B
:10C27000022819D1009848B305F10C00FBF752FDD4
:10C2800030B101200099087002208DF8040005E00B
:10C2900000200099087003208DF80400A069A8B15F
:10C2A00001A8A169884711E02888A18988420DD199
:10C2B000A06958B100208DF8040005F10C0005902C
:10C2C0006989ADF8181001A8A169884707B0F0BDC9
:10C2D00001460868012802D00868022801D101201F
:10C2E00070470020FCE700002DE9F05F814600BFA9
:10C2F00000254DE02B484057401C00B947E0284638
:10C3000000F052F8044649462046FDF757FC002845
:10C310003CD0284600F050F8064600BF00BF4FF062
:10C32000A041084600F5E06151F82410C1F3014135
:10C330008846B8F1020F01D1032000E002208246B6
:10C3400051462046FDF7B3FF00BF00BF4FF0A041AC
:10C3500008460121A140C0F8201500BF2046FCF787
:10C36000A9F88346FCF79EF8074677B1032E09D05B
:10C37000B8F1020F01D1012E04D0B8F1030F04D19E
:10C38000022E02D131462046B84700BF00BF6D1CC7
:10C39000042DAFD34846FCF7B5FF0028A8D1BDE86F
:10C3A000F09F0000903C002001460248425C22F0D1
:10C3B000C0007047903C002001460248425C900952
:10C3C00070470000903C002070B504460D461646AC
:10C3D000207A05280CD0607A28B10A480AA10268A0
:10C3E0002846FDF7EFFD09A12846FDF7EBFD04E027
:10C3F0001EB106A12846FDF7E5FD2846FDF7F7FD2D
:10C4000070BD000074330020257300000D0A000089
:10C4100070B5FEF729FC044600BF254625B100BFD4
:10C420002846FAF787FC00BF00BF70BDF8B5044688
:10C430000D46E08838B116A00090E38816A218A136
:10C440002846FDF7BFFD207A05281FD0607A58B135
:10C45000217AA088FEF76CF8174951F8206032461F
:10C4600016A12846FDF7AEFD2846216800F00AFE19
:10C47000A0880021FEF7CCFA0646207A104951F830
:10C48000202033460FA12846FDF79CFDF8BD000093
:10C490001B5B306D000000001B5B313B33316D00D6
:10C4A00025734C6F67732064726F70706564202809
:10C4B00025642925730D0A007433002025730000BC
:10C4C000603300203C25733E2025733A2000000095
:10C4D00001460348814201D1024870470020FCE731
:10C4E00000200040D832002002480068810201F19B
:10C4F000005070470C01001010B50446142C01DBED
:10C50000002010BD21460548FDF78CFA214603485E
:10C51000001FFDF787FA0120F3E70000B83B002079
:10C5200070B50546002406E0044901EB8400294665
:10C53000FDF75AFA641C1E2CF6D370BDB43B0020E4
:10C5400010B598B00F488068C04317900D484168F7
:10C5500017A8FDF78FFA179901A8FCF7E8F82C2225
:10C5600001A90CA8F9F782FF002405E00DA931F814
:10C570001400FFF7D5FF641C0C98A042F6D818B041
:10C5800010BD0000B03B002010B504462146024813
:10C59000FDF72AFA10BD0000B83B002010B5044694
:10C5A0002046FCF748FB08B1FFF7A8FD0021204614
:10C5B000FCF751FA10B12046FFF74EFB012120464F
:10C5C000FCF749FA10B12046FFF73CFB204600F08B
:10C5D000E1FC204600F040F810BD00002DE9F047D6
:10C5E00006460F464FF00D0800203870FCF7E8FCB7
:10C5F000D6E902321C1A62EB010500210846091B2C
:10C60000A84118DAB4F5350F04D3FAF7D3FB104973
:10C61000084400E0B06881464FF496034A46002182
:10C620000C48FCF71EFB8046B8F1000F02D1012038
:10C63000BDE8F08703E000210648FCF701FAB8F1F5
:10C640000D0F03D1304600F06FFC38700020EFE78B
:10C65000FFFFB400E0320020F8B5074646E000BF17
:10C660002448FEF7FAFD06460EB1304600E00020F1
:10C6700004460025002C31D01F48006808B9012568
:10C6800012E01D49D4E902300A68D2E90212591AAF
:10C69000904109D2012518480068007F20B1164852
:10C6A00001681448FEF7C5FDBDB100F087FB0446E4
:10C6B00069462046FFF792FF58B10F48006810B94D
:10C6C0003846FCF7C0FA0C4804609DF8000018B921
:10C6D0000DE000200849086007E008E0064800680F
:10C6E00010B93846FCF7B6FA01E000BFB7E700BF63
:10C6F000F8BD000090DA0200E832002070B505466F
:10C700000C46A06940B94FF484712846FEF703FE39
:10C7100000BFD5F8180570BD4FF484712846FEF7A8
:10C72000FAFD00BFD5F81805C0B2626AE168885406
:10C73000606A401C606200BFEDE77FB504460D46AD
:10C74000164601208DF80000029501966846D4E94E
:10C75000001290477FBD7FB504460D461646012066
:10C760008DF80000029501966846D4E900129047C2
:10C770007FBD10B504464FF492712068FEF7CBFDE3
:10C780004FF484712068FEF7C6FD00212068FEF793
:10C79000DEFD10BD10B504462046FAF77BF910B94E
:10C7A00042F2010010BD2046002803DB1F4A125C44
:10C7B000520905E01E4A00F00F031B1FD25C52090C
:10C7C0001146082904D20120884000F0EC0008B985
:10C7D000002000E0012010B942F20200E2E7154813
:10C7E000806868B16009134951F8200004F01F0205
:10C7F00001219140084361090E4A42F8210012E0EC
:10C80000204600280DDB00BF00BF00F01F02012101
:10C8100091404209920002F1E022C2F8001100BFEB
:10C8200000BF00BF00BF0020BCE7000000E400E044
:10C8300018ED00E0743D002070B50446FAF746F9A3
:10C84000054614488068D8B901201249886012480A
:10C850000068124908400F49086010484FF0E02175
:10C86000C1F880010C488038D0F88400094948603C
:10C870004FF0FF310848001D01600020207001E0EA
:10C88000012020701DB900BF62B600BF00BF0020AC
:10C8900070BD0000743D002080E100E0FC06FFBD9B
:10C8A00038B504460D4624B1012C1FD0032C38D1D5
:10C8B00032E00020002817DB00F01F020121914028
:10C8C000194A430942F8231000BF00BF00BFBFF35D
:10C8D0004F8F00BF00BF00BF00BF00BF00BFBFF34E
:10C8E0006F8F00BF00BF00BF00BF1BE000200090A3
:10C8F0006846FAF7A1FB0D48007808B9FDF79AFAE7
:10C900000A48C068401C0949C860012088709DF829
:10C910000000FAF797FB05E0FEF768FDFDF7B0FAB7
:10C9200000E000BF00BF38BD80E100E02C3C0020EB
:10C93000FEB505460C496846FEF743FC0DE0684627
:10C94000FEF73CFC0446266828466168B04708B9F3
:10C950001120FEBD6846FEF755FC6846FEF72EFC2A
:10C960000028ECD100BFF4E774DC0200FEB50546F8
:10C970000A496846FEF725FC0AE06846FEF71EFCF9
:10C980000446266828466168B0476846FEF73AFCC8
:10C990006846FEF713FC0028EFD1FEBD90DC0200D4
:10C9A00010B504460348806918B1024881692046E1
:10C9B000884710BD943B002070B505460E463146B1
:10C9C000284675DF044624B1112C02D02046FFF71B
:10C9D000E7FF0CB9012070BD0020FCE72DE9F84FFE
:10C9E00088461546002D35D04FF0000903200090F1
:10C9F00000BF08EB09012A460020F9F74BFE044668
:10CA0000A1442D1BFCB91448007800B920E0012690
:10CA100006B90FE000BF4FF47A7707B906E0DFF8F8
:10CA20003CA04FEA871B5846D04700BF701E061E29
:10CA3000F1D100BF0098401E0090009818B9002066
:10CA40000549087004E0012003490870002DD0D189
:10CA500000BF00BFBDE8F88F4033002051DC02006A
:10CA60002DE9F04707460E4614469A46B86A10B9B3
:10CA70000720BDE8F0874FF0000836E008EB4801DA
:10CA8000B86A00EB8105A88800F10209B9F1FE0F30
:10CA900001D90C20EDE709F10100218870542088AC
:10CAA000401C20801620218870542088401C208043
:10CAB00022889119288800F0D5FD2188084420801B
:10CAC000A88800280DDDA86808B90720D1E7AA8842
:10CAD00023889819A968F9F7C9FC2088A98808440F
:10CAE000208008F1010000F0FF0897F82C00404575
:10CAF000C4DC0020BDE700007CB500200090114898
:10CB0000009069461048FDF721F9044600BF25460C
:10CB100025B100BF2846FAF70DF900BF00BF00207D
:10CB200001900A48019001A90948FBF751F8044611
:10CB300000BF254625B100BF2846FAF7FBF800BF25
:10CB400000BF7CBDBFAC0200BC330020ADBA020008
:10CB5000743200200246022082F8310092F824004C
:10CB600010B10720087001E003200870108A888146
:10CB70000020C2F8200402F226404860D068886095
:10CB8000002070470246012082F831000020C2F8E0
:10CB9000200402F2264048600020886002200870CD
:10CBA000802088810020704770B504460D4660697A
:10CBB000A860208BA88194F8240018B1062084F87E
:10CBC0003C0002E0012084F83C00204600F0E6FD35
:10CBD00078B10220287504212046FCF73AF9064670
:10CBE00000BF304600B170BD00BF052084F83100A1
:10CBF00002E0032084F8310004F58260C4F82004C8
:10CC00000020F0E770B504460D46E069A860208C6E
:10CC1000A88194F8240018B1062084F83C0002E0B2
:10CC2000012084F83C00204600F0B8FD78B10220D5
:10CC3000287504212046FCF70CF9064600BF304653
:10CC400000B170BD00BF062084F8310002E004206E
:10CC500084F8310004F58260C4F820040020F0E775
:10CC600000BF0A7822F00F020A700A7822F0F00260
:10CC70000A7000BF062850D2DFE800F0030E1B2820
:10CC8000354200BF0A7822F00F020A700A7822F0BB
:10CC9000F0020A7000BF40E000BF0A7822F00F02E5
:10CCA000521C0A700A7822F0F00210320A7000BF9B
:10CCB00033E000BF0A7822F00F02521C0A700A7893
:10CCC00022F0F00220320A7000BF26E000BF0A788E
:10CCD00022F00F02521C0A700A7822F0F002303261
:10CCE0000A7000BF19E000BF0A7822F00F02921C00
:10CCF0000A700A7822F0F00210320A7000BF0CE0CD
:10CD000000BF0A7822F00F02921C0A700A7822F003
:10CD1000F00220320A7000BF00BF00BF704770B53C
:10CD20000020FBF74DF9044600BF254625B100BFA2
:10CD30002846F9F7FFFF00BF00BFFBF797F804464E
:10CD400000BF254625B100BF2846F9F7F3FF00BF15
:10CD500000BF33DF044600BF254625B100BF28468B
:10CD6000F9F7E8FF00BF00BF70BD000070B50446D2
:10CD70000D462CB90120034948700020FBF784FCC4
:10CD800070BD00002C3C002070B51620FFF702FD9E
:10CD9000044600BF254625B100BF2846F9F7CAFF63
:10CDA00000BF00BF70BD10B500BF00F007F808B1AC
:10CDB000002101770028F8D110BD000010B504480B
:10CDC000FEF74FFA04460CB1204610BD0020FCE7E8
:10CDD00090DA02002DE9F05F05460E4690461F46A8
:10CDE000DDF828904FEA154AFBF71EFE83464AEA13
:10CDF0000B42781C00EA09000E4941F8202007EA9E
:10CE0000090001EB8004206865F3C50020602068FC
:10CE100068F389102060206866F39F2020602068F6
:10CE200020F00300401C2060206820F004002060F7
:10CE3000BDE8F09F303F00202DE9FC478046894641
:10CE400016461C4616480768012201A92046FBF732
:10CE500093FAC0B1019800F1020A002509E056F8E2
:10CE6000252050460AF1010A38400E4941F8202099
:10CE70006D1CA542F3D30097224649464046019BCC
:10CE8000FFF7A8FF00BF07480C38007830B100BF9B
:10CE900000BFFDF77DFB0028FBD100BFBDE8FC878C
:10CEA0005C330020303F00202DE9F04781460C46DE
:10CEB00015469846002608F00100A0B105E0641C64
:10CEC000761C39464846FBF7CBFA2778002FF6D177
:10CED00004E06D1E20214846FBF7C2FAB5421BD97B
:10CEE000002DF6D118E01CB12046F9F7E3FA06460A
:10CEF00004E06D1E20214846FBF7B2FAB54201D985
:10CF0000002DF6D105E0641C761C39464846FBF737
:10CF1000A7FA2778002FF6D1BDE8F0870246501A0D
:10CF200020F07F407047000070B504460025174888
:10CF30000078012827D104B3207FF0B1FCF740F836
:10CF4000D4E90223801A994118D3206908B9002036
:10CF50002077D4E905108847206970B1207F60B13F
:10CF6000D4E902302169591840F10000C4E90210E7
:10CF700021460748FEF75DF9012504E021460448F3
:10CF8000FEF757F90125284670BD0000EC3200205D
:10CF900090DA0200F8B5064669461F480068FCF7BB
:10CFA00007FD044634E0207820B101280DD0022886
:10CFB00021D11AE06068007F30B9012061680877EC
:10CFC00016486168FEF735F916E01549606809688A
:10CFD000884203D100201249086005E00F486168CB
:10CFE000FEF74BF9054600BF06E0FFF7DCFE012027
:10CFF0000C49087000E000BF00BF694606480068A1
:10D00000FCF7C8FC694604480068FCF7D1FC0446FC
:10D01000002CC8D1F8BD00008CDA020090DA0200C2
:10D02000E8320020EC320020F8B505460E4669468D
:10D030000B480068FCF7A0FC04467CB125706660D4
:10D04000694607480068FCF7C1FC28B100BF0548E5
:10D05000FBF7D6FD00BF00BF0020F8BD0420FCE7B1
:10D060008CDA0200E032002070B5F9F7BBFE04460E
:10D0700000BF254625B100BF2846F9F75BFE00BF7B
:10D0800000BF70BD704770B505460C46666910E07C
:10D0900004E094F8280008B1002070BD4FF48E71B0
:10D0A0002846FEF731F90028F3D02146284600F043
:10D0B00005F8206AB042EBD30120EEE770B50546D3
:10D0C0000C464FF48E712846FEF725F9216AA068B8
:10D0D000465C206A401C20623046C5F81C0500BF33
:10D0E00070BD7FB504460D4600208DF80000029506
:10D0F000A0680190002060616846D4E90012904762
:10D100007FBD7FB504460D4600208DF800000295D6
:10D11000A0680190002060616846D4E90012904741
:10D120007FBD30B504461088C01C984201D90C2040
:10D1300030BD0220158848551088401C10800A20F8
:10D14000158848551088401C108015884C5510884B
:10D15000401C10800020EBE7F8B50546287820B188
:10D1600001284BD002284FD142E02949294A1278A0
:10D170008818F9F793FE27480078401C2549087065
:10D1800008460078401E2249085C0A280BD0214836
:10D190000078401E085C0D2805D01E4800781E4906
:10D1A0000988884223DB1B48007801281CDD00BF6A
:10D1B000184800780090194803886A4614491848AE
:10D1C000FAF7C8FC0446082C0CD0132C0AD0052C06
:10D1D00008D000BF264626B100BF3046F9F7AAFDA9
:10D1E00000BF00BF132CE3D000200A4908700CE0F8
:10D1F00000BF6868F9F79EFD00BF06E000BF6868E1
:10D20000F9F798FD00BF00E000BF00BFF8BD0000C7
:10D21000FC3700209832002092320020903200200B
:10D22000743200207CB504460E462078002847D092
:10D23000012802D0022856D133E0207A28B90122F1
:10D240002A492B48FCF77AFE4EE0606801782948AD
:10D25000F9F79FFD054645B101208DF800000195C5
:10D2600068462549096888470AE02248FBF7B0FD6F
:10D2700030B100208DF8000068461F4909688847D2
:10D280001C48FBF7A5FD1B498988884205D8012267
:10D2900016491748FCF752FE02E0012017490870B2
:10D2A00022E002208DF80000E068019001220F4981
:10D2B0000F48FCF743FE68460F490968884713E0AA
:10D2C0000F491048F9F744FD28B901220C490848D4
:10D2D000FCF756FE06E003208DF80000684606497C
:10D2E0000968884700E000BF00BF7CBD1D330020F7
:10D2F00004330020543D0020183300201E3300204A
:10D300001C330020643D00207FB504460D462E46A8
:10D3100020788DF8000060680190217A8DF808105F
:10D32000E1680391044850F82610044850F826207C
:10D33000684690477FBD0000C8320020C4320020FC
:10D3400030B58BB01822114905A8F9F78FF800BF46
:10D350000F4801904FF4807002900E4803904FF4F4
:10D360008070049007230C4A01A905A8F9F7C0FDB5
:10D37000044600BF00BF254625B100BF2846F9F787
:10D38000D9FC00BF00BF0BB030BD000078D902004F
:10D39000F0380020F039002059D102002DE9FF417A
:10D3A00005460C464FF400712846FDF7C7FF48B309
:10D3B0004FF492712846FDF7A7FF18B34FF492710E
:10D3C0002846FDF7A8FF4FF401712846FDF7B0FF8E
:10D3D00094F8290018B904212846FDF7B8FF022067
:10D3E0008DF800002846FDF789FF0390A16902919E
:10D3F000E06801900020A061E0616846D4E9001275
:10D40000904737E004212846FDF798FF002831D0E7
:10D410004FF484712846FDF777FF58B3214628461C
:10D42000FFF76CF9616AA069884223D1E06970B1A5
:10D43000E668676AE069A0612069E0600020E06159
:10D440006062324639462046FFF777F912E094F8D9
:10D45000290018B904212846FDF779FF4FF401711E
:10D460002846FDF765FF0020A061E268616A20465A
:10D47000FFF763F94FF48E712846FDF745FFB8B109
:10D480006669206AB04207D294F8280020B9214684
:10D490002846FFF713FE0AE04FF48E712846FDF789
:10D4A0003AFF606918B161692046FFF71AFE00BFB4
:10D4B0004FF4A2712846FDF727FFA0B14FF4A271E7
:10D4C0002846FDF728FF94F8290018B100212846C6
:10D4D000FDF73DFFA06930B10020A061E268616AFC
:10D4E0002046FFF72AF9BDE8FF8100007FB504461A
:10D4F0000D462E4620788DF8000060680190217A54
:10D500008DF80810E1680391044850F8261004488B
:10D5100050F82620684690477FBD0000C8320020A2
:10D52000C43200202DE9FF4106460C464FF49271AB
:10D530003046FDF71CFFC8B14FF492713046FDF73D
:10D540001DFF02208DF800003046FDF70AFF039012
:10D550003046FDF726FF0290E06801900020A061B0
:10D56000E0616846D4E9001290472CE04FF48871DE
:10D570003046FDF7FCFE30B34FF488713046FDF7BE
:10D58000FDFE3046FDF70DFF0546A069A84219D102
:10D59000E06980B1E76820213046FDF707FFE069C8
:10D5A000A0612069E0600020E0613A4629462046FB
:10D5B000FFF7D1F806E00020A06129462046E26886
:10D5C000FFF7C9F800BF4FF4A2713046FDF7CFFE58
:10D5D00090B14FF4A2713046FDF7D0FEA06958B16A
:10D5E0000020A061E0613046FDF7DBFE05462946DC
:10D5F0002046E268FFF7AFF84FF490713046FDF730
:10D60000B6FE90B14FF490713046FDF7B7FE0C2195
:10D610003046FDF7D1FE606938B13046FDF7CFFEE8
:10D62000054629462046FFF76CFD4FF4AC713046A5
:10D63000FDF79DFE70B14FF4AC713046FDF79EFED4
:10D64000606938B13046FDF7BAFE054629462046E6
:10D65000FFF757FDBDE8FF81014608784A7840EAA8
:10D660000220704702460A70100A48700220704774
:10D670002DE9FF4F81B0884616461F46DDE90E4B67
:10D6800045464FF0010A03E0B5FBF6F50AF1010A41
:10D69000B542F9D2574500D9BA460BF0010098B906
:10D6A00094B10BF00200022803D117B9302000908A
:10D6B00001E02020009004E0641EDDE90010FAF78C
:10D6C000CFFE0CB1A245F7D3012509E0012F01D906
:10D6D0007F1E04E0B8FBF5F9B14500D201E07543C7
:10D6E000F4E700BF00BFB8FBF5F909FB15880D484A
:10D6F00010F809100198FAF7B3FEB5FBF6F5002D06
:10D70000F1D10BF0010048B144B104E0641E2021C6
:10D710000198FAF7A5FE0CB1A245F7D305B0BDE814
:10D72000F08F0000C6DA0200F8B506463546A8B20A
:10D73000FBF76CFC04466CB3207A1749097B8842DE
:10D740000ADAA8B204F10A01FFF736F9074617B161
:10D75000207A401C20721DE0002020720E48007CC0
:10D7600050B1A8B23B2176DF074627B1082F02D07F
:10D770003846FFF715F900BF0748406950B100204F
:10D780008DF80000A8B2ADF8020003484169684670
:10D79000884700BFF8BD0000943B002010B5044648
:10D7A000607940B194F82E0428B9204600F0D8F8EA
:10D7B00008B1012010BD0020FCE770B50446207AB6
:10D7C00080B16088002166DF054615B9002020720F
:10D7D00007E0112D02D10120207202E02846616885
:10D7E000884700BF70BD2DE9FC4780468946154635
:10D7F0009A46DDE90A675346022249464046CDE98A
:10D80000006700F017F8044600BF204608B1BDE8E5
:10D81000FC8700BF5346102229464046CDE90067E9
:10D8200000F008F8044600BF204600B1EFE700BF53
:10D830000020ECE72DE9FF5F07468B4696461D4624
:10D840000E9C4FF0000920880390C84647E0786896
:10D8500000EB880000680190002202A901A864DFA3
:10D86000064600BF304610B104B0BDE8F09F00BFCF
:10D870009DF80800704530D1B9F1000F01D00020AB
:10D8800000E00220009020889DF8081001440098D4
:10D8900001440F98814201DD0C20E5E7B9F1000F4A
:10D8A0000AD12088401C2080208805F800B02088FC
:10D8B000401C20804FF001092088421902A901A8CC
:10D8C00064DF064600BF304600B1CDE700BF2188C7
:10D8D0009DF808000844208000BF08F1010838883E
:10D8E0004045B4DCB9F1000F0DD021880398401CED
:10D8F000081A1FFA80FABAF1FF0F01DD0C20B3E716
:10D90000039805F800A00020AEE72DE9F041064697
:10D910000F46042E22D20FB1032000E0002005465E
:10D920003046FAF733FA044600BF4FF0A0410846EC
:10D9300000F5E06151F8241021F4403200F5E06177
:10D9400041F8242051F8241041EA054200F5E06135
:10D9500041F8242000BF0020BDE8F0810620FBE74D
:10D96000014691F8300470470000000000000000FC
:10D970000738FDD8704700000800000006000000CE
:10D9800005000000070000000000000000E0D701D3
:10D99000111213140D0E0F10F03A0020103B00204E
:10D9A000403B00200D000300A17E02000E0003009A
:10D9B000A17E02000F000300A17E02001000030000
:10D9C000A17E0200770A000000000000770A000034
:10D9D000000000007ADA000000000000FB349B5FCA
:10D9E00080000080001000000000000000000050D7
:10D9F0006E7266785F6770696F74655F696E69746F
:10DA0000006E7266785F6770696F74655F6F7574BA
:10DA10005F696E6974006E7266785F6770696F74B3
:10DA2000655F696E5F696E69740000006E7266788A
:10DA30005F756172745F696E6974000091B5020070
:10DA40006E7266785F756172745F7478006E72666C
:10DA5000785F756172745F72780000006E7266782C
:10DA60005F75617274655F696E69740001B8020068
:10DA70006E7266785F75617274655F7478006E723D
:10DA800066785F75617274655F727800443D00204E
:10DA90000000000000330020E186020001000600C3
:10DAA000FFFFFFFFFFFFFFFFFFFFFFFFFFFFFFFF86
:10DAB00000000000000000000000D6010601000088
:10DAC0000738FDD87047303132333435363738397E
:10DAD00041424344454600000000000000000000B1
:10DAE0000000000000000000000000000000000036
:10DAF000D8DA0200F0DA020004000000556E6B6E06
:10DB00006F776E206572726F7220636F64650000BC
:10DB100000000000ACE102000100000058E002003B
:10DB2000020000004CDE020003000000CCE0020016
:10DB30000400000020E102000500000000E00200F7
:10DB4000060000009CDF02000700000008E1020060
:10DB50000800000014E002000900000078E0020064
:10DB60000A00000094E102000B00000034DE020015
:10DB70000C0000002CE002000D000000FCE102009F
:10DB80000E000000F8E002000F00000034E1020087
:10DB90001000000068E102001100000010E2020025
:10DBA00012000000E4E102001300000080E1020026
:10DBB00080000000B4DF020081000000F0DE0200FF
:10DBC00082000000B0DE02008300000090DE020050
:10DBD00084000000CCDE020085000000D8DF0200D7
:10DBE00086000000E0E00200900000007CDF020000
:10DBF0009100000070DE02009200000040E0020090
:10DC00000082000048E102000182000094E002006E
:10DC100002820000B0E00200008400000CDF02007D
:10DC200001840000B8E102000284000054DF020019
:10DC30000384000030DF020000000000000000004C
:10DC40001DA402001BA4020011A402000000000099
:10DC50000738FDD8704700008C3E00207F00000090
:10DC60000C3F002000000000000000000000000049
:10DC70000000000064DC020074DC02000800000008
:10DC80001CE6020024E60200000000000000000084
:10DC900080DC020090DC0200080000000CE60200BC
:10DCA0001CE6020000000000000000009CDC0200F6
:10DCB000ACDC02000800000000100200C4E5020015
:10DCC000CCE50200CCE50200ECE50200ECE5020048
:10DCD000FCE50200FCE5020004E60200BCDC0200F8
:10DCE000DCDC0200080000006832002004E60200CC
:10DCF0000CE602000000000000000000ECDC020066
:10DD0000FCDC020008000000004040404040404071
:10DD100040404141414141404040404040404040FE
:10DD200040404040404040404005020202020202A2
:10DD300002020202020202020220202020202020F1
:10DD40002020200202020202020290909090909005
:10DD500010101010101010101010101010101010C3
:10DD60001010101002020202020288888888888837
:10DD70000808080808080808080808080808080823
:10DD800008080808020202024000000009DD020043
:10DD900073645F626C655F6761705F646174615F2B
:10DDA0006C656E6774685F7570646174652829209E
:10DDB000287265717565737429206F6E20636F6EAC
:10DDC0006E656374696F6E20307825782072657493
:10DDD00075726E65642025732E00000054686520FE
:10DDE00072657175657374656420636F6D62696EC9
:10DDF0006174696F6E206F6620545820616E6420D4
:10DE00005258207061636B6574206C656E6774682E
:10DE10007320697320746F6F206C6F6E6720627956
:10DE2000202575206D6963726F7365636F6E64730F
:10DE30002E0000004E52465F4552524F525F494EEF
:10DE400056414C49445F4441544100004E52465FA4
:10DE50004552524F525F534F4654444556494345ED
:10DE60005F4E4F545F454E41424C45440000000018
:10DE70004E52465F4552524F525F464541545552AD
:10DE8000455F4E4F545F454E41424C4544000000B3
:10DE90004E52465F4552524F525F4D555445585F62
:10DEA000554E4C4F434B5F4641494C4544000000A2
:10DEB0004E52465F4552524F525F4D555445585F42
:10DEC0004C4F434B5F4641494C4544004E52465FE0
:10DED0004552524F525F4D555445585F434F4E4443
:10DEE0005F494E49545F4641494C4544000000009B
:10DEF0004E52465F4552524F525F4D555445585F02
:10DF0000494E49545F4641494C4544004E52465F94
:10DF10004552524F525F424C455F495053505F52F9
:10DF2000585F504B545F5452554E43415445440042
:10DF30004E52465F4552524F525F424C455F4950E8
:10DF400053505F504545525F52454A4543544544FE
:10DF5000000000004E52465F4552524F525F424C05
:10DF6000455F495053505F4C494E4B5F44495343C2
:10DF70004F4E4E4543544544000000004E52465F0C
:10DF80004552524F525F4150495F4E4F545F494D89
:10DF9000504C454D454E5445440000004E52465F9E
:10DFA0004552524F525F4E4F545F535550504F524F
:10DFB000544544004E52465F4552524F525F4D4FBA
:10DFC00044554C455F4E4F545F494E495449414C6E
:10DFD000495A4544000000004E52465F4552524F98
:10DFE000525F4D4F44554C455F414C524541445959
:10DFF0005F494E495449414C495A4544000000008C
:10E000004E52465F4552524F525F4E4F545F464FFD
:10E01000554E44004E52465F4552524F525F494E54
:10E0200056414C49445F5354415445004E52465F5B
:10E030004552524F525F444154415F53495A450043
:10E040004E52465F4552524F525F494F5F50454EC8
:10E0500044494E47000000004E52465F4552524F21
:10E06000525F5356435F48414E444C45525F4D49C1
:10E070005353494E470000004E52465F4552524F9F
:10E08000525F494E56414C49445F4C454E475448B7
:10E09000000000004E52465F4552524F525F4452BC
:10E0A000565F5457495F4552525F414E41434B00C2
:10E0B0004E52465F4552524F525F4452565F54573C
:10E0C000495F4552525F444E41434B004E52465FBA
:10E0D0004552524F525F494E5445524E414C0000FA
:10E0E0004E52465F4552524F525F53544F52414732
:10E0F000455F46554C4C00004E52465F4552524FCC
:10E10000525F4E554C4C00004E52465F4552524FA6
:10E11000525F494E56414C49445F504152414D0077
:10E120004E52465F4552524F525F4E4F5F4D454DE6
:10E13000000000004E52465F4552524F525F464F1C
:10E140005242494444454E004E52465F4552524F5A
:10E15000525F4452565F5457495F4552525F4F5683
:10E16000455252554E0000004E52465F4552524FA6
:10E17000525F494E56414C49445F4144445200006D
:10E180004E52465F4552524F525F5245534F555281
:10E19000434553004E52465F4552524F525F494EDF
:10E1A00056414C49445F464C414753004E52465FEE
:10E1B00053554343455353004E52465F4552524FC9
:10E1C000525F424C455F495053505F4348414E4E69
:10E1D000454C5F414C52454144595F455849535461
:10E1E000530000004E52465F4552524F525F434F1C
:10E1F0004E4E5F434F554E54000000004E52465F56
:10E200004552524F525F54494D454F5554000000FE
:10E210004E52465F4552524F525F4255535900008D
:10E220007761726E696E67006465627567000000F1
:10E230001B5B313B33306D001B5B306D0000000019
:10E240001B5B313B33316D001B5B313B33326D0067
:10E250001B5B313B33336D001B5B313B33346D0053
:10E260001B5B313B33356D001B5B313B33366D003F
:10E270001B5B313B33376D00696E666F0000000039
:10E280006572726F7200000073645F626C655F6339
:10E2900066675F73657428292072657475726E6590
:10E2A00064202573207768656E20617474656D70D5
:10E2B00074696E6720746F2073657420424C455FEB
:10E2C00047415454535F4346475F53455256494371
:10E2D000455F4348414E4745442E000073645F62EA
:10E2E0006C655F6366675F73657428292072657467
:10E2F00075726E6564202573207768656E20617481
:10E3000074656D7074696E6720746F207365742016
:10E31000424C455F434F4D4D4F4E5F4346475F561E
:10E32000535F555549442E0073645F626C655F63AB
:10E3300066675F73657428292072657475726E65EF
:10E3400064202573207768656E20617474656D7034
:10E3500074696E6720746F2073657420424C455F4A
:10E3600047415454535F4346475F415454525F54AE
:10E3700041425F53495A452E0000000073645F62BA
:10E380006C655F6366675F736574282920726574C6
:10E3900075726E6564202573207768656E206174E0
:10E3A00074656D7074696E6720746F207365742076
:10E3B000424C455F434F4E4E5F4346475F47415097
:10E3C0002E00000073645F626C655F6366675F7355
:10E3D000657428292072657475726E6564202573D2
:10E3E000207768656E20617474656D7074696E67FE
:10E3F00020746F2073657420424C455F4741505F25
:10E400004346475F524F4C455F434F554E542E0095
:10E4100073645F626C655F6366675F736574282908
:10E420002072657475726E65642025732077686547
:10E430006E20617474656D7074696E6720746F20EE
:10E4400073657420424C455F434F4E4E5F434647D1
:10E450005F474154542E00006E72665F626C655FC8
:10E460006761747400000000626C655F6E75730014
:10E47000636C6F636B000000434C4F434B00000024
:10E480004750494F54450000505253005541525493
:10E490000000000055415254450000006170705F5B
:10E4A000627574746F6E00006170705F74696D6581
:10E4B000720000007077725F6D676D74000000007D
:10E4C000736F72746C697374000000007274745F0F
:10E4D0006C6F675F6261636B656E64006170700092
:10E4E0006E72665F736468006E72665F7364685F05
:10E4F000626C65006E72665F7364685F736F630061
:10E5000024E6020068320020400100001865020085
:10E510007CE60200A8330020281A0000846A02006A
:10E5200040DC020000000000CCE402004433002084
:10E5300058E402000000030368E402000000000049
:10E5400070E402000000000078E402000000000017
:10E5500080E402000000000088E4020000000000E7
:10E560008CE402000000000094E4020000000000BF
:10E570009CE4020000000000A8E40200000000008B
:10E58000B4E4020000000000C0E40200000000004B
:10E59000DCE4020000000303E0E4020000000303E7
:10E5A000E8E4020000000303F4E4020000000303B7
:10E5B000543300204C33002054330020CC3D002045
:10E5C000180000009D7A020000000000259C020057
:10E5D000A83300207F750200C8330020E5790200CF
:10E5E000000000005D7A020000000000E17C0200F3
:10E5F000743200207F9D0200BC3300207578020039
:10E60000000000006DCD02000000000035B00200E7
:10E610000000000069B1020000000000A1C8020073
:10E6200000000000411368321320010215041A6C27
:10E630001C4114FFFF14044AF0FF020D15100140A5
:10E640001174D11220BA4008012F0A19FF14148046
:10E65000E2021A20041A78041A28041A38041A301C
:10E66000041A40041A48041A50041A58041A600480
:0CE670001A68041A7004D1040090D00352
:040000050002620192
:00000001FF
