Component: ARM Compiler 5.06 update 6 (build 750) Tool: armlink [4d35ed]

==============================================================================

Section Cross References

    main_p2cp.o(i.advertising_init) refers to memseta.o(.text) for __aeabi_memclr4
    main_p2cp.o(i.advertising_init) refers to ble_advertising.o(i.ble_advertising_init) for ble_advertising_init
    main_p2cp.o(i.advertising_init) refers to app_error.o(i.app_error_handler_bare) for app_error_handler_bare
    main_p2cp.o(i.advertising_init) refers to ble_advertising.o(i.ble_advertising_conn_cfg_tag_set) for ble_advertising_conn_cfg_tag_set
    main_p2cp.o(i.advertising_init) refers to main_p2cp.o(.data) for m_adv_uuids
    main_p2cp.o(i.advertising_init) refers to main_p2cp.o(i.on_adv_evt) for on_adv_evt
    main_p2cp.o(i.advertising_init) refers to main_p2cp.o(.bss) for m_advertising
    main_p2cp.o(i.advertising_start) refers to ble_advertising.o(i.ble_advertising_start) for ble_advertising_start
    main_p2cp.o(i.advertising_start) refers to app_error.o(i.app_error_handler_bare) for app_error_handler_bare
    main_p2cp.o(i.advertising_start) refers to main_p2cp.o(.bss) for m_advertising
    main_p2cp.o(i.assert_nrf_callback) refers to app_error_handler_keil.o(.emb_text) for app_error_handler
    main_p2cp.o(i.ble_evt_handler) refers to nrf_log_frontend.o(i.nrf_log_frontend_std_0) for nrf_log_frontend_std_0
    main_p2cp.o(i.ble_evt_handler) refers to bsp.o(i.bsp_indication_set) for bsp_indication_set
    main_p2cp.o(i.ble_evt_handler) refers to app_error.o(i.app_error_handler_bare) for app_error_handler_bare
    main_p2cp.o(i.ble_evt_handler) refers to nrf_ble_qwr.o(i.nrf_ble_qwr_conn_handle_assign) for nrf_ble_qwr_conn_handle_assign
    main_p2cp.o(i.ble_evt_handler) refers to nrf_log_frontend.o(log_const_data) for m_nrf_log_app_logs_data_const
    main_p2cp.o(i.ble_evt_handler) refers to main_p2cp.o(.data) for m_conn_handle
    main_p2cp.o(i.ble_evt_handler) refers to main_p2cp.o(.bss) for m_qwr
==============================================================================

Removing Unused input sections from the image.

    Removing main_p2cp.o(.rev16_text), (4 bytes).
    Removing main_p2cp.o(.revsh_text), (4 bytes).
    Removing main_p2cp.o(.rrx_text), (6 bytes).
    Removing main_p2cp.o(i.assert_nrf_callback), (24 bytes).
    Removing main_p2cp.o(i.bsp_event_handler), (116 bytes).
    Removing main_p2cp.o(i.buttons_leds_init), (84 bytes).
    Removing boards.o(.rev16_text), (4 bytes).
    Removing boards.o(.revsh_text), (4 bytes).
    Removing boards.o(.rrx_text), (6 bytes).
    Removing boards.o(i.bsp_board_button_state_get), (48 bytes).
    Removing boards.o(i.bsp_board_buttons_init), (44 bytes).
    Removing boards.o(i.bsp_board_init), (26 bytes).
    Removing boards.o(i.bsp_board_led_idx_to_pin), (12 bytes).
    Removing boards.o(i.bsp_board_leds_init), (48 bytes).
    Removing boards.o(i.bsp_board_pin_to_led_idx), (36 bytes).
    Removing boards.o(i.nrf_gpio_cfg), (40 bytes).
    Removing bsp.o(.rev16_text), (4 bytes).
    Removing bsp.o(.revsh_text), (4 bytes).
==============================================================================

Image Symbol Table

    Local Symbols

    Symbol Name                              Value     Ov Type        Size  Object(Section)

    ../clib/../cmprslib/zerorunl2.c          0x00000000   Number         0  __dczerorl2.o ABSOLUTE
    ../clib/microlib/ctype/ctype.c           0x00000000   Number         0  isalpha_o.o ABSOLUTE
    ../clib/microlib/ctype/ctype.c           0x00000000   Number         0  ctype_o.o ABSOLUTE
    ../clib/microlib/ctype/ctype.c           0x00000000   Number         0  isxdigit_o.o ABSOLUTE
    ../clib/microlib/ctype/ctype.c           0x00000000   Number         0  isupper_o.o ABSOLUTE
    ../clib/microlib/ctype/ctype.c           0x00000000   Number         0  isspace_o.o ABSOLUTE
    ../clib/microlib/ctype/ctype.c           0x00000000   Number         0  ispunct_o.o ABSOLUTE
    ../clib/microlib/ctype/ctype.c           0x00000000   Number         0  isprint_o.o ABSOLUTE
    ../clib/microlib/ctype/ctype.c           0x00000000   Number         0  isalnum_o.o ABSOLUTE
    ../clib/microlib/ctype/ctype.c           0x00000000   Number         0  isblank_o.o ABSOLUTE
    ../clib/microlib/ctype/ctype.c           0x00000000   Number         0  iscntrl_o.o ABSOLUTE
    ../clib/microlib/ctype/ctype.c           0x00000000   Number         0  isdigit_o.o ABSOLUTE
    ../clib/microlib/ctype/ctype.c           0x00000000   Number         0  isgraph_o.o ABSOLUTE
    ../clib/microlib/ctype/ctype.c           0x00000000   Number         0  islower_o.o ABSOLUTE
    ../clib/microlib/division.c              0x00000000   Number         0  uidiv.o ABSOLUTE
    ../clib/microlib/division.c              0x00000000   Number         0  uldiv.o ABSOLUTE
    ../clib/microlib/init/entry.s            0x00000000   Number         0  entry5.o ABSOLUTE
    ../clib/microlib/init/entry.s            0x00000000   Number         0  entry8b.o ABSOLUTE
    ../clib/microlib/init/entry.s            0x00000000   Number         0  entry9b.o ABSOLUTE
    ../clib/microlib/init/entry.s            0x00000000   Number         0  entry7b.o ABSOLUTE
    ../clib/microlib/init/entry.s            0x00000000   Number         0  entry10a.o ABSOLUTE
    ../clib/microlib/init/entry.s            0x00000000   Number         0  entry.o ABSOLUTE
    ../clib/microlib/init/entry.s            0x00000000   Number         0  entry8a.o ABSOLUTE
    ../clib/microlib/init/entry.s            0x00000000   Number         0  entry9a.o ABSOLUTE
    ../clib/microlib/init/entry.s            0x00000000   Number         0  entry10b.o ABSOLUTE
    ../clib/microlib/init/entry.s            0x00000000   Number         0  entry11a.o ABSOLUTE
    ../clib/microlib/init/entry.s            0x00000000   Number         0  entry2.o ABSOLUTE
    ../clib/microlib/init/entry.s            0x00000000   Number         0  entry11b.o ABSOLUTE
    ../clib/microlib/init/entry.s            0x00000000   Number         0  entry7a.o ABSOLUTE
    ../clib/microlib/longlong.c              0x00000000   Number         0  llushr.o ABSOLUTE
    ../clib/microlib/longlong.c              0x00000000   Number         0  llshl.o ABSOLUTE
    ../clib/microlib/longlong.c              0x00000000   Number         0  llsshr.o ABSOLUTE
    ../clib/microlib/printf/printf.c         0x00000000   Number         0  printf0.o ABSOLUTE
    ../clib/microlib/printf/printf.c         0x00000000   Number         0  printfb.o ABSOLUTE
    ../clib/microlib/printf/printf.c         0x00000000   Number         0  printf3.o ABSOLUTE
    ../clib/microlib/printf/printf.c         0x00000000   Number         0  printf2.o ABSOLUTE
    ../clib/microlib/printf/printf.c         0x00000000   Number         0  printf5.o ABSOLUTE
    ../clib/microlib/printf/printf.c         0x00000000   Number         0  printf1.o ABSOLUTE
    ../clib/microlib/printf/printf.c         0x00000000   Number         0  printf4.o ABSOLUTE
    ../clib/microlib/printf/printf.c         0x00000000   Number         0  printf8.o ABSOLUTE
    ../clib/microlib/printf/printf.c         0x00000000   Number         0  printf6.o ABSOLUTE
    ../clib/microlib/printf/printf.c         0x00000000   Number         0  printfa.o ABSOLUTE
    ../clib/microlib/printf/printf.c         0x00000000   Number         0  printf7.o ABSOLUTE
    ../clib/microlib/string/memcmp.c         0x00000000   Number         0  memcmp.o ABSOLUTE
    ../clib/microlib/string/memcpy.c         0x00000000   Number         0  memcpya.o ABSOLUTE
    ../clib/microlib/string/memcpy.c         0x00000000   Number         0  memcpyb.o ABSOLUTE
    ../clib/microlib/string/memset.c         0x00000000   Number         0  memseta.o ABSOLUTE
    ../clib/microlib/string/strcpy.c         0x00000000   Number         0  strcpy.o ABSOLUTE
    ../clib/microlib/string/strlen.c         0x00000000   Number         0  strlen.o ABSOLUTE
    ../clib/microlib/stubs.s                 0x00000000   Number         0  iusefp.o ABSOLUTE
    ../fplib/microlib/fpadd.c                0x00000000   Number         0  dadd.o ABSOLUTE
    ../fplib/microlib/fpdiv.c                0x00000000   Number         0  ddiv.o ABSOLUTE
    ../fplib/microlib/fpepilogue.c           0x00000000   Number         0  depilogue.o ABSOLUTE
    ../fplib/microlib/fpfix.c                0x00000000   Number         0  dfixul.o ABSOLUTE
    ../fplib/microlib/fpmul.c                0x00000000   Number         0  dmul.o ABSOLUTE
    ..\..\..\..\..\..\components\ble\ble_advertising\ble_advertising.c 0x00000000   Number         0  ble_advertising.o ABSOLUTE
    ..\..\..\..\..\..\components\ble\ble_link_ctx_manager\ble_link_ctx_manager.c 0x00000000   Number         0  ble_link_ctx_manager.o ABSOLUTE
    ..\..\..\..\..\..\components\ble\common\ble_advdata.c 0x00000000   Number         0  ble_advdata.o ABSOLUTE
    ..\..\..\..\..\..\components\ble\common\ble_conn_params.c 0x00000000   Number         0  ble_conn_params.o ABSOLUTE
    ..\..\..\..\..\..\components\ble\common\ble_conn_state.c 0x00000000   Number         0  ble_conn_state.o ABSOLUTE
    ..\..\..\..\..\..\components\ble\common\ble_srv_common.c 0x00000000   Number         0  ble_srv_common.o ABSOLUTE
    ..\..\..\..\..\..\components\ble\nrf_ble_gatt\nrf_ble_gatt.c 0x00000000   Number         0  nrf_ble_gatt.o ABSOLUTE
    ..\..\..\..\..\..\components\ble\nrf_ble_qwr\nrf_ble_qwr.c 0x00000000   Number         0  nrf_ble_qwr.o ABSOLUTE
    ..\..\..\..\..\..\components\boards\boards.c 0x00000000   Number         0  boards.o ABSOLUTE
    ..\..\..\..\..\..\components\libraries\atomic\nrf_atomic.c 0x00000000   Number         0  nrf_atomic.o ABSOLUTE
    ..\..\..\..\..\..\components\libraries\atomic_fifo\nrf_atfifo.c 0x00000000   Number         0  nrf_atfifo.o ABSOLUTE
    ..\..\..\..\..\..\components\libraries\atomic_flags\nrf_atflags.c 0x00000000   Number         0  nrf_atflags.o ABSOLUTE
    ..\..\..\..\..\..\components\libraries\balloc\nrf_balloc.c 0x00000000   Number         0  nrf_balloc.o ABSOLUTE
    ..\..\..\..\..\..\components\libraries\bsp\bsp.c 0x00000000   Number         0  bsp.o ABSOLUTE
    ..\..\..\..\..\..\components\libraries\bsp\bsp_btn_ble.c 0x00000000   Number         0  bsp_btn_ble.o ABSOLUTE
    ..\..\..\..\..\..\components\libraries\button\app_button.c 0x00000000   Number         0  app_button.o ABSOLUTE
    ..\..\..\..\..\..\components\libraries\experimental_section_vars\nrf_section_iter.c 0x00000000   Number         0  nrf_section_iter.o ABSOLUTE
    ..\..\..\..\..\..\components\libraries\fifo\app_fifo.c 0x00000000   Number         0  app_fifo.o ABSOLUTE
    ..\..\..\..\..\..\components\libraries\hardfault\hardfault_implementation.c 0x00000000   Number         0  hardfault_implementation.o ABSOLUTE
    ..\..\..\..\..\..\components\libraries\log\src\nrf_log_backend_rtt.c 0x00000000   Number         0  nrf_log_backend_rtt.o ABSOLUTE
    ..\..\..\..\..\..\components\libraries\log\src\nrf_log_backend_serial.c 0x00000000   Number         0  nrf_log_backend_serial.o ABSOLUTE
    ..\..\..\..\..\..\components\libraries\log\src\nrf_log_backend_uart.c 0x00000000   Number         0  nrf_log_backend_uart.o ABSOLUTE
    ..\..\..\..\..\..\components\libraries\log\src\nrf_log_default_backends.c 0x00000000   Number         0  nrf_log_default_backends.o ABSOLUTE
    ..\..\..\..\..\..\components\libraries\log\src\nrf_log_frontend.c 0x00000000   Number         0  nrf_log_frontend.o ABSOLUTE
    ..\..\..\..\..\..\components\libraries\log\src\nrf_log_str_formatter.c 0x00000000   Number         0  nrf_log_str_formatter.o ABSOLUTE
    ..\..\..\..\..\..\components\libraries\memobj\nrf_memobj.c 0x00000000   Number         0  nrf_memobj.o ABSOLUTE
    ..\..\..\..\..\..\components\libraries\pwr_mgmt\nrf_pwr_mgmt.c 0x00000000   Number         0  nrf_pwr_mgmt.o ABSOLUTE
    ..\..\..\..\..\..\components\libraries\ringbuf\nrf_ringbuf.c 0x00000000   Number         0  nrf_ringbuf.o ABSOLUTE
    ..\..\..\..\..\..\components\libraries\scheduler\app_scheduler.c 0x00000000   Number         0  app_scheduler.o ABSOLUTE
    ..\..\..\..\..\..\components\libraries\sortlist\nrf_sortlist.c 0x00000000   Number         0  nrf_sortlist.o ABSOLUTE
    ..\..\..\..\..\..\components\libraries\strerror\nrf_strerror.c 0x00000000   Number         0  nrf_strerror.o ABSOLUTE
    ..\..\..\..\..\..\components\libraries\timer\app_timer2.c 0x00000000   Number         0  app_timer2.o ABSOLUTE
    ..\..\..\..\..\..\components\libraries\timer\drv_rtc.c 0x00000000   Number         0  drv_rtc.o ABSOLUTE
    ..\..\..\..\..\..\components\libraries\uart\app_uart_fifo.c 0x00000000   Number         0  app_uart_fifo.o ABSOLUTE
    ..\..\..\..\..\..\components\libraries\uart\retarget.c 0x00000000   Number         0  retarget.o ABSOLUTE
    ..\..\..\..\..\..\components\libraries\util\app_error.c 0x00000000   Number         0  app_error.o ABSOLUTE
    ..\..\..\..\..\..\components\libraries\util\app_error_handler_keil.c 0x00000000   Number         0  app_error_handler_keil.o ABSOLUTE
    ..\..\..\..\..\..\components\libraries\util\app_error_weak.c 0x00000000   Number         0  app_error_weak.o ABSOLUTE
    ..\..\..\..\..\..\components\libraries\util\app_util_platform.c 0x00000000   Number         0  app_util_platform.o ABSOLUTE
    ..\..\..\..\..\..\components\libraries\util\nrf_assert.c 0x00000000   Number         0  nrf_assert.o ABSOLUTE
    ..\..\..\..\..\..\components\softdevice\common\nrf_sdh.c 0x00000000   Number         0  nrf_sdh.o ABSOLUTE
    ..\..\..\..\..\..\components\softdevice\common\nrf_sdh_ble.c 0x00000000   Number         0  nrf_sdh_ble.o ABSOLUTE
    ..\..\..\..\..\..\components\softdevice\common\nrf_sdh_soc.c 0x00000000   Number         0  nrf_sdh_soc.o ABSOLUTE
    ..\..\..\..\..\..\external\fprintf\nrf_fprintf.c 0x00000000   Number         0  nrf_fprintf.o ABSOLUTE
    ..\..\..\..\..\..\external\fprintf\nrf_fprintf_format.c 0x00000000   Number         0  nrf_fprintf_format.o ABSOLUTE
    ..\..\..\..\..\..\external\segger_rtt\SEGGER_RTT.c 0x00000000   Number         0  segger_rtt.o ABSOLUTE
    ..\..\..\..\..\..\external\segger_rtt\SEGGER_RTT_Syscalls_KEIL.c 0x00000000   Number         0  segger_rtt_syscalls_keil.o ABSOLUTE
    ..\..\..\..\..\..\external\segger_rtt\SEGGER_RTT_printf.c 0x00000000   Number         0  segger_rtt_printf.o ABSOLUTE
    ..\..\..\..\..\..\external\utf_converter\utf.c 0x00000000   Number         0  utf.o ABSOLUTE
    ..\..\..\..\..\..\integration\nrfx\legacy\nrf_drv_clock.c 0x00000000   Number         0  nrf_drv_clock.o ABSOLUTE
    ..\..\..\..\..\..\integration\nrfx\legacy\nrf_drv_uart.c 0x00000000   Number         0  nrf_drv_uart.o ABSOLUTE
    ..\..\..\..\..\..\modules\nrfx\drivers\src\nrfx_clock.c 0x00000000   Number         0  nrfx_clock.o ABSOLUTE
    ..\..\..\..\..\..\modules\nrfx\drivers\src\nrfx_gpiote.c 0x00000000   Number         0  nrfx_gpiote.o ABSOLUTE
    ..\..\..\..\..\..\modules\nrfx\drivers\src\nrfx_uart.c 0x00000000   Number         0  nrfx_uart.o ABSOLUTE
    ..\..\..\..\..\..\modules\nrfx\drivers\src\nrfx_uarte.c 0x00000000   Number         0  nrfx_uarte.o ABSOLUTE
    ..\..\..\..\..\..\modules\nrfx\drivers\src\prs\nrfx_prs.c 0x00000000   Number         0  nrfx_prs.o ABSOLUTE
    ..\..\..\..\..\..\modules\nrfx\soc\nrfx_atomic.c 0x00000000   Number         0  nrfx_atomic.o ABSOLUTE
    ..\..\..\ble_nus\ble_nus.c               0x00000000   Number         0  ble_nus.o ABSOLUTE
    ..\..\..\main_p2cp.c                     0x00000000   Number         0  main_p2cp.o ABSOLUTE
    ..\\..\\..\\..\\..\\..\\components\\ble\\ble_advertising\\ble_advertising.c 0x00000000   Number         0  ble_advertising.o ABSOLUTE
    ..\\..\\..\\..\\..\\..\\components\\ble\\ble_link_ctx_manager\\ble_link_ctx_manager.c 0x00000000   Number         0  ble_link_ctx_manager.o ABSOLUTE
    ..\\..\\..\\..\\..\\..\\components\\ble\\common\\ble_advdata.c 0x00000000   Number         0  ble_advdata.o ABSOLUTE
    ..\\..\\..\\..\\..\\..\\components\\ble\\common\\ble_conn_params.c 0x00000000   Number         0  ble_conn_params.o ABSOLUTE
    ..\\..\\..\\..\\..\\..\\components\\ble\\common\\ble_conn_state.c 0x00000000   Number         0  ble_conn_state.o ABSOLUTE
    ..\\..\\..\\..\\..\\..\\components\\ble\\common\\ble_srv_common.c 0x00000000   Number         0  ble_srv_common.o ABSOLUTE
    ..\\..\\..\\..\\..\\..\\components\\ble\\nrf_ble_gatt\\nrf_ble_gatt.c 0x00000000   Number         0  nrf_ble_gatt.o ABSOLUTE
    ..\\..\\..\\..\\..\\..\\components\\ble\\nrf_ble_qwr\\nrf_ble_qwr.c 0x00000000   Number         0  nrf_ble_qwr.o ABSOLUTE
    ..\\..\\..\\..\\..\\..\\components\\boards\\boards.c 0x00000000   Number         0  boards.o ABSOLUTE
    ..\\..\\..\\..\\..\\..\\components\\libraries\\atomic\\nrf_atomic.c 0x00000000   Number         0  nrf_atomic.o ABSOLUTE
    ..\\..\\..\\..\\..\\..\\components\\libraries\\atomic_fifo\\nrf_atfifo.c 0x00000000   Number         0  nrf_atfifo.o ABSOLUTE
    ..\\..\\..\\..\\..\\..\\components\\libraries\\atomic_flags\\nrf_atflags.c 0x00000000   Number         0  nrf_atflags.o ABSOLUTE
    ..\\..\\..\\..\\..\\..\\components\\libraries\\balloc\\nrf_balloc.c 0x00000000   Number         0  nrf_balloc.o ABSOLUTE
    ..\\..\\..\\..\\..\\..\\components\\libraries\\bsp\\bsp.c 0x00000000   Number         0  bsp.o ABSOLUTE
    ..\\..\\..\\..\\..\\..\\components\\libraries\\bsp\\bsp_btn_ble.c 0x00000000   Number         0  bsp_btn_ble.o ABSOLUTE
    ..\\..\\..\\..\\..\\..\\components\\libraries\\button\\app_button.c 0x00000000   Number         0  app_button.o ABSOLUTE
    ..\\..\\..\\..\\..\\..\\components\\libraries\\experimental_section_vars\\nrf_section_iter.c 0x00000000   Number         0  nrf_section_iter.o ABSOLUTE
    ..\\..\\..\\..\\..\\..\\components\\libraries\\fifo\\app_fifo.c 0x00000000   Number         0  app_fifo.o ABSOLUTE
    ..\\..\\..\\..\\..\\..\\components\\libraries\\hardfault\\hardfault_implementation.c 0x00000000   Number         0  hardfault_implementation.o ABSOLUTE
    ..\\..\\..\\..\\..\\..\\components\\libraries\\log\\src\\nrf_log_backend_rtt.c 0x00000000   Number         0  nrf_log_backend_rtt.o ABSOLUTE
    ..\\..\\..\\..\\..\\..\\components\\libraries\\log\\src\\nrf_log_backend_serial.c 0x00000000   Number         0  nrf_log_backend_serial.o ABSOLUTE
    ..\\..\\..\\..\\..\\..\\components\\libraries\\log\\src\\nrf_log_backend_uart.c 0x00000000   Number         0  nrf_log_backend_uart.o ABSOLUTE
    ..\\..\\..\\..\\..\\..\\components\\libraries\\log\\src\\nrf_log_default_backends.c 0x00000000   Number         0  nrf_log_default_backends.o ABSOLUTE
    ..\\..\\..\\..\\..\\..\\components\\libraries\\log\\src\\nrf_log_frontend.c 0x00000000   Number         0  nrf_log_frontend.o ABSOLUTE
    ..\\..\\..\\..\\..\\..\\components\\libraries\\log\\src\\nrf_log_str_formatter.c 0x00000000   Number         0  nrf_log_str_formatter.o ABSOLUTE
    ..\\..\\..\\..\\..\\..\\components\\libraries\\memobj\\nrf_memobj.c 0x00000000   Number         0  nrf_memobj.o ABSOLUTE
    ..\\..\\..\\..\\..\\..\\components\\libraries\\pwr_mgmt\\nrf_pwr_mgmt.c 0x00000000   Number         0  nrf_pwr_mgmt.o ABSOLUTE
    ..\\..\\..\\..\\..\\..\\components\\libraries\\ringbuf\\nrf_ringbuf.c 0x00000000   Number         0  nrf_ringbuf.o ABSOLUTE
    ..\\..\\..\\..\\..\\..\\components\\libraries\\scheduler\\app_scheduler.c 0x00000000   Number         0  app_scheduler.o ABSOLUTE
    ..\\..\\..\\..\\..\\..\\components\\libraries\\sortlist\\nrf_sortlist.c 0x00000000   Number         0  nrf_sortlist.o ABSOLUTE
    ..\\..\\..\\..\\..\\..\\components\\libraries\\strerror\\nrf_strerror.c 0x00000000   Number         0  nrf_strerror.o ABSOLUTE
    ..\\..\\..\\..\\..\\..\\components\\libraries\\timer\\app_timer2.c 0x00000000   Number         0  app_timer2.o ABSOLUTE
    ..\\..\\..\\..\\..\\..\\components\\libraries\\timer\\drv_rtc.c 0x00000000   Number         0  drv_rtc.o ABSOLUTE
    ..\\..\\..\\..\\..\\..\\components\\libraries\\uart\\app_uart_fifo.c 0x00000000   Number         0  app_uart_fifo.o ABSOLUTE
    ..\\..\\..\\..\\..\\..\\components\\libraries\\uart\\retarget.c 0x00000000   Number         0  retarget.o ABSOLUTE
    ..\\..\\..\\..\\..\\..\\components\\libraries\\util\\app_error.c 0x00000000   Number         0  app_error.o ABSOLUTE
    ..\\..\\..\\..\\..\\..\\components\\libraries\\util\\app_error_handler_keil.c 0x00000000   Number         0  app_error_handler_keil.o ABSOLUTE
    ..\\..\\..\\..\\..\\..\\components\\libraries\\util\\app_error_weak.c 0x00000000   Number         0  app_error_weak.o ABSOLUTE
    ..\\..\\..\\..\\..\\..\\components\\libraries\\util\\app_util_platform.c 0x00000000   Number         0  app_util_platform.o ABSOLUTE
    ..\\..\\..\\..\\..\\..\\components\\libraries\\util\\nrf_assert.c 0x00000000   Number         0  nrf_assert.o ABSOLUTE
    ..\\..\\..\\..\\..\\..\\components\\softdevice\\common\\nrf_sdh.c 0x00000000   Number         0  nrf_sdh.o ABSOLUTE
    ..\\..\\..\\..\\..\\..\\components\\softdevice\\common\\nrf_sdh_ble.c 0x00000000   Number         0  nrf_sdh_ble.o ABSOLUTE
    ..\\..\\..\\..\\..\\..\\components\\softdevice\\common\\nrf_sdh_soc.c 0x00000000   Number         0  nrf_sdh_soc.o ABSOLUTE
    ..\\..\\..\\..\\..\\..\\external\\fprintf\\nrf_fprintf.c 0x00000000   Number         0  nrf_fprintf.o ABSOLUTE
    ..\\..\\..\\..\\..\\..\\external\\fprintf\\nrf_fprintf_format.c 0x00000000   Number         0  nrf_fprintf_format.o ABSOLUTE
    ..\\..\\..\\..\\..\\..\\external\\segger_rtt\\SEGGER_RTT.c 0x00000000   Number         0  segger_rtt.o ABSOLUTE
    ..\\..\\..\\..\\..\\..\\external\\segger_rtt\\SEGGER_RTT_printf.c 0x00000000   Number         0  segger_rtt_printf.o ABSOLUTE
    ..\\..\\..\\..\\..\\..\\integration\\nrfx\\legacy\\nrf_drv_clock.c 0x00000000   Number         0  nrf_drv_clock.o ABSOLUTE
    ..\\..\\..\\..\\..\\..\\integration\\nrfx\\legacy\\nrf_drv_uart.c 0x00000000   Number         0  nrf_drv_uart.o ABSOLUTE
    ..\\..\\..\\..\\..\\..\\modules\\nrfx\\drivers\\src\\nrfx_clock.c 0x00000000   Number         0  nrfx_clock.o ABSOLUTE
    ..\\..\\..\\..\\..\\..\\modules\\nrfx\\drivers\\src\\nrfx_gpiote.c 0x00000000   Number         0  nrfx_gpiote.o ABSOLUTE
    ..\\..\\..\\..\\..\\..\\modules\\nrfx\\drivers\\src\\nrfx_uart.c 0x00000000   Number         0  nrfx_uart.o ABSOLUTE
    ..\\..\\..\\..\\..\\..\\modules\\nrfx\\drivers\\src\\nrfx_uarte.c 0x00000000   Number         0  nrfx_uarte.o ABSOLUTE
    ..\\..\\..\\..\\..\\..\\modules\\nrfx\\drivers\\src\\prs\\nrfx_prs.c 0x00000000   Number         0  nrfx_prs.o ABSOLUTE
    ..\\..\\..\\..\\..\\..\\modules\\nrfx\\soc\\nrfx_atomic.c 0x00000000   Number         0  nrfx_atomic.o ABSOLUTE
    ..\\..\\..\\ble_nus\\ble_nus.c           0x00000000   Number         0  ble_nus.o ABSOLUTE
    ..\\..\\..\\main_p2cp.c                  0x00000000   Number         0  main_p2cp.o ABSOLUTE
    RTE\Device\nRF52805_xxAA\arm_startup_nrf52805.s 0x00000000   Number         0  arm_startup_nrf52805.o ABSOLUTE
    RTE\Device\nRF52805_xxAA\system_nrf52805.c 0x00000000   Number         0  system_nrf52805.o ABSOLUTE
    RTE\\Device\\nRF52805_xxAA\\system_nrf52805.c 0x00000000   Number         0  system_nrf52805.o ABSOLUTE
    cdrcmple.s                               0x00000000   Number         0  cdrcmple.o ABSOLUTE
    dc.s                                     0x00000000   Number         0  dc.o ABSOLUTE
    handlers.s                               0x00000000   Number         0  handlers.o ABSOLUTE
    init.s                                   0x00000000   Number         0  init.o ABSOLUTE
    RESET                                    0x00026000   Section      512  arm_startup_nrf52805.o(RESET)
    .ARM.Collect$$$$00000000                 0x00026200   Section        0  entry.o(.ARM.Collect$$$$00000000)
    .ARM.Collect$$$$00000001                 0x00026200   Section        4  entry2.o(.ARM.Collect$$$$00000001)
    .ARM.Collect$$$$00000004                 0x00026204   Section        4  entry5.o(.ARM.Collect$$$$00000004)
    .ARM.Collect$$$$00000008                 0x00026208   Section        0  entry7b.o(.ARM.Collect$$$$00000008)
    .ARM.Collect$$$$0000000A                 0x00026208   Section        0  entry8b.o(.ARM.Collect$$$$0000000A)
    .ARM.Collect$$$$0000000B                 0x00026208   Section        8  entry9a.o(.ARM.Collect$$$$0000000B)
    .ARM.Collect$$$$0000000D                 0x00026210   Section        0  entry10a.o(.ARM.Collect$$$$0000000D)
    .ARM.Collect$$$$0000000F                 0x00026210   Section        0  entry11a.o(.ARM.Collect$$$$0000000F)
    .ARM.Collect$$$$00002712                 0x00026210   Section        4  entry2.o(.ARM.Collect$$$$00002712)
    __lit__00000000                          0x00026210   Data           4  entry2.o(.ARM.Collect$$$$00002712)
    .emb_text                                0x00026214   Section      200  nrf_atfifo.o(.emb_text)
    .emb_text                                0x000262dc   Section      226  nrf_atomic.o(.emb_text)
    .text                                    0x000263c0   Section       36  arm_startup_nrf52805.o(.text)
    .text                                    0x000263e4   Section        0  uldiv.o(.text)
    .text                                    0x00026446   Section        0  llshl.o(.text)
    .text                                    0x00026464   Section        0  ctype_o.o(.text)
    .text                                    0x0002646c   Section        0  memcpya.o(.text)
    .text                                    0x00026490   Section        0  memseta.o(.text)
    .text                                    0x000264b4   Section        0  strlen.o(.text)
    .text                                    0x000264c2   Section        0  strcpy.o(.text)
    .text                                    0x000264d4   Section        0  llushr.o(.text)
    .text                                    0x000264f4   Section       36  init.o(.text)
    .text                                    0x00026518   Section        0  __dczerorl2.o(.text)
    i.GPIOTE_IRQHandler                      0x00026570   Section        0  nrfx_gpiote.o(i.GPIOTE_IRQHandler)
    i.POWER_CLOCK_IRQHandler                 0x0002662c   Section        0  nrfx_clock.o(i.POWER_CLOCK_IRQHandler)
    i.RTC1_IRQHandler                        0x00026674   Section        0  drv_rtc.o(i.RTC1_IRQHandler)
    i.SEGGER_RTT_Init                        0x0002668c   Section        0  segger_rtt.o(i.SEGGER_RTT_Init)
    i.SEGGER_RTT_WriteNoLock                 0x00026694   Section        0  segger_rtt.o(i.SEGGER_RTT_WriteNoLock)
    i.SWI2_IRQHandler                        0x00026718   Section        0  nrf_sdh.o(i.SWI2_IRQHandler)
    i.SystemCoreClockUpdate                  0x00026720   Section        0  system_nrf52805.o(i.SystemCoreClockUpdate)
    i.SystemInit                             0x00026730   Section        0  system_nrf52805.o(i.SystemInit)
    i.UARTE0_UART0_IRQHandler                0x00026908   Section        0  nrfx_prs.o(i.UARTE0_UART0_IRQHandler)
    i._DoInit                                0x00026918   Section        0  segger_rtt.o(i._DoInit)
    _DoInit                                  0x00026919   Thumb Code    74  segger_rtt.o(i._DoInit)
    i._GetAvailWriteSpace                    0x00026988   Section        0  segger_rtt.o(i._GetAvailWriteSpace)
    _GetAvailWriteSpace                      0x00026989   Thumb Code    28  segger_rtt.o(i._GetAvailWriteSpace)
    i._WriteBlocking                         0x000269a4   Section        0  segger_rtt.o(i._WriteBlocking)
    _WriteBlocking                           0x000269a5   Thumb Code   114  segger_rtt.o(i._WriteBlocking)
    i._WriteNoCheck                          0x00026a16   Section        0  segger_rtt.o(i._WriteNoCheck)
    _WriteNoCheck                            0x00026a17   Thumb Code    76  segger_rtt.o(i._WriteNoCheck)
    i.__0printf$bare                         0x00026a64   Section        0  printfb.o(i.__0printf$bare)
    i.__scatterload_copy                     0x00026a74   Section       14  handlers.o(i.__scatterload_copy)
    i.__scatterload_null                     0x00026a82   Section        2  handlers.o(i.__scatterload_null)
    i.__scatterload_zeroinit                 0x00026a84   Section       14  handlers.o(i.__scatterload_zeroinit)
    i.__sd_nvic_app_accessible_irq           0x00026a94   Section        0  nrf_sdh.o(i.__sd_nvic_app_accessible_irq)
    __sd_nvic_app_accessible_irq             0x00026a95   Thumb Code    52  nrf_sdh.o(i.__sd_nvic_app_accessible_irq)
    i.__sd_nvic_irq_disable                  0x00026acc   Section        0  app_util_platform.o(i.__sd_nvic_irq_disable)
    __sd_nvic_irq_disable                    0x00026acd   Thumb Code    12  app_util_platform.o(i.__sd_nvic_irq_disable)
    i._printf_core                           0x00026ad8   Section        0  printfb.o(i._printf_core)
    _printf_core                             0x00026ad9   Thumb Code    34  printfb.o(i._printf_core)
    i.addr_is_valid                          0x00026afa   Section        0  ble_advertising.o(i.addr_is_valid)
    addr_is_valid                            0x00026afb   Thumb Code    24  ble_advertising.o(i.addr_is_valid)
    i.adv_mode_next_avail_get                0x00026b12   Section        0  ble_advertising.o(i.adv_mode_next_avail_get)
    adv_mode_next_avail_get                  0x00026b13   Thumb Code    88  ble_advertising.o(i.adv_mode_next_avail_get)
    i.adv_mode_next_get                      0x00026b6a   Section        0  ble_advertising.o(i.adv_mode_next_get)
    adv_mode_next_get                        0x00026b6b   Thumb Code    18  ble_advertising.o(i.adv_mode_next_get)
    i.adv_set_data_size_max_get              0x00026b7c   Section        0  ble_advertising.o(i.adv_set_data_size_max_get)
    adv_set_data_size_max_get                0x00026b7d   Thumb Code    18  ble_advertising.o(i.adv_set_data_size_max_get)
    i.advertising_buttons_configure          0x00026b8e   Section        0  bsp_btn_ble.o(i.advertising_buttons_configure)
    advertising_buttons_configure            0x00026b8f   Thumb Code    84  bsp_btn_ble.o(i.advertising_buttons_configure)
    i.advertising_init                       0x00026be4   Section        0  main_p2cp.o(i.advertising_init)
    advertising_init                         0x00026be5   Thumb Code    98  main_p2cp.o(i.advertising_init)
    i.advertising_start                      0x00026c54   Section        0  main_p2cp.o(i.advertising_start)
    advertising_start                        0x00026c55   Thumb Code    32  main_p2cp.o(i.advertising_start)
    i.app_error_fault_handler                0x00026c78   Section        0  app_error_weak.o(i.app_error_fault_handler)
    i.app_error_handler_bare                 0x00026d34   Section        0  app_error.o(i.app_error_handler_bare)
    i.app_fifo_get                           0x00026d50   Section        0  app_fifo.o(i.app_fifo_get)
    i.app_fifo_init                          0x00026d6e   Section        0  app_fifo.o(i.app_fifo_init)
    i.app_fifo_put                           0x00026d92   Section        0  app_fifo.o(i.app_fifo_put)
    i.app_timer_cnt_get                      0x00026db4   Section        0  app_timer2.o(i.app_timer_cnt_get)
    i.app_timer_create                       0x00026dc4   Section        0  app_timer2.o(i.app_timer_create)
    i.app_timer_init                         0x00026de4   Section        0  app_timer2.o(i.app_timer_init)
    i.app_timer_start                        0x00026e50   Section        0  app_timer2.o(i.app_timer_start)
    i.app_timer_stop                         0x00026e86   Section        0  app_timer2.o(i.app_timer_stop)
    i.app_uart_get                           0x00026e9c   Section        0  app_uart_fifo.o(i.app_uart_get)
    i.app_uart_init                          0x00026ef0   Section        0  app_uart_fifo.o(i.app_uart_init)
    i.app_uart_put                           0x00026fcc   Section        0  app_uart_fifo.o(i.app_uart_put)
    i.app_util_critical_region_enter         0x00027038   Section        0  app_util_platform.o(i.app_util_critical_region_enter)
    i.app_util_critical_region_exit          0x00027044   Section        0  app_util_platform.o(i.app_util_critical_region_exit)
    i.appearance_encode                      0x0002708c   Section        0  ble_advdata.o(i.appearance_encode)
    appearance_encode                        0x0002708d   Thumb Code    82  ble_advdata.o(i.appearance_encode)
    i.apply_config                           0x000270de   Section        0  nrfx_uart.o(i.apply_config)
    apply_config                             0x000270df   Thumb Code   124  nrfx_uart.o(i.apply_config)
    i.apply_config                           0x0002715a   Section        0  nrfx_uarte.o(i.apply_config)
    apply_config                             0x0002715b   Thumb Code   124  nrfx_uarte.o(i.apply_config)
    i.backend_id_assign                      0x000271d8   Section        0  nrf_log_frontend.o(i.backend_id_assign)
    backend_id_assign                        0x000271d9   Thumb Code    56  nrf_log_frontend.o(i.backend_id_assign)
    i.blcm_link_ctx_get                      0x00027214   Section        0  ble_link_ctx_manager.o(i.blcm_link_ctx_get)
    i.ble_advdata_encode                     0x00027280   Section        0  ble_advdata.o(i.ble_advdata_encode)
    i.ble_advdata_parse                      0x000273ec   Section        0  ble_advdata.o(i.ble_advdata_parse)
    i.ble_advdata_search                     0x00027414   Section        0  ble_advdata.o(i.ble_advdata_search)
    i.ble_advertising_conn_cfg_tag_set       0x00027470   Section        0  ble_advertising.o(i.ble_advertising_conn_cfg_tag_set)
    i.ble_advertising_init                   0x00027476   Section        0  ble_advertising.o(i.ble_advertising_init)
    i.ble_advertising_on_ble_evt             0x0002757e   Section        0  ble_advertising.o(i.ble_advertising_on_ble_evt)
    i.ble_advertising_start                  0x000275ba   Section        0  ble_advertising.o(i.ble_advertising_start)
    i.ble_conn_params_init                   0x00027730   Section        0  ble_conn_params.o(i.ble_conn_params_init)
    i.ble_conn_state_conn_idx                0x000277cc   Section        0  ble_conn_state.o(i.ble_conn_state_conn_idx)
    i.ble_conn_state_valid                   0x000277e0   Section        0  ble_conn_state.o(i.ble_conn_state_valid)
    i.ble_device_addr_encode                 0x000277fc   Section        0  ble_advdata.o(i.ble_device_addr_encode)
    ble_device_addr_encode                   0x000277fd   Thumb Code   118  ble_advdata.o(i.ble_device_addr_encode)
    i.ble_evt_handler                        0x00027874   Section        0  main_p2cp.o(i.ble_evt_handler)
    ble_evt_handler                          0x00027875   Thumb Code   322  main_p2cp.o(i.ble_evt_handler)
    i.ble_evt_handler                        0x000279e4   Section        0  bsp_btn_ble.o(i.ble_evt_handler)
    ble_evt_handler                          0x000279e5   Thumb Code   112  bsp_btn_ble.o(i.ble_evt_handler)
    i.ble_evt_handler                        0x00027a5c   Section        0  ble_conn_params.o(i.ble_evt_handler)
    ble_evt_handler                          0x00027a5d   Thumb Code    64  ble_conn_params.o(i.ble_evt_handler)
    i.ble_evt_handler                        0x00027a9c   Section        0  ble_conn_state.o(i.ble_evt_handler)
    ble_evt_handler                          0x00027a9d   Thumb Code   180  ble_conn_state.o(i.ble_evt_handler)
    i.ble_nus_data_send                      0x00027b54   Section        0  ble_nus.o(i.ble_nus_data_send)
    i.ble_nus_init                           0x00027bd0   Section        0  ble_nus.o(i.ble_nus_init)
    i.ble_nus_on_ble_evt                     0x00027ce0   Section        0  ble_nus.o(i.ble_nus_on_ble_evt)
    i.ble_srv_is_notification_enabled        0x00027d24   Section        0  ble_srv_common.o(i.ble_srv_is_notification_enabled)
    i.ble_stack_init                         0x00027d36   Section        0  main_p2cp.o(i.ble_stack_init)
    ble_stack_init                           0x00027d37   Thumb Code    86  main_p2cp.o(i.ble_stack_init)
    i.bsp_board_button_idx_to_pin            0x00027d8c   Section        0  boards.o(i.bsp_board_button_idx_to_pin)
    i.bsp_board_led_invert                   0x00027d98   Section        0  boards.o(i.bsp_board_led_invert)
    i.bsp_board_led_off                      0x00027dc8   Section        0  boards.o(i.bsp_board_led_off)
    i.bsp_board_led_on                       0x00027ddc   Section        0  boards.o(i.bsp_board_led_on)
    i.bsp_board_led_state_get                0x00027df0   Section        0  boards.o(i.bsp_board_led_state_get)
    i.bsp_board_leds_off                     0x00027e20   Section        0  boards.o(i.bsp_board_leds_off)
    i.bsp_board_leds_on                      0x00027e34   Section        0  boards.o(i.bsp_board_leds_on)
    i.bsp_board_pin_to_button_idx            0x00027e48   Section        0  boards.o(i.bsp_board_pin_to_button_idx)
    i.bsp_btn_ble_sleep_mode_prepare         0x00027e6c   Section        0  bsp_btn_ble.o(i.bsp_btn_ble_sleep_mode_prepare)
    i.bsp_button_event_handler               0x00027ea0   Section        0  bsp.o(i.bsp_button_event_handler)
    bsp_button_event_handler                 0x00027ea1   Thumb Code   176  bsp.o(i.bsp_button_event_handler)
    i.bsp_event_to_button_action_assign      0x00027f64   Section        0  bsp.o(i.bsp_event_to_button_action_assign)
    i.bsp_indication_set                     0x00027fc0   Section        0  bsp.o(i.bsp_indication_set)
    i.bsp_led_indication                     0x00027fe0   Section        0  bsp.o(i.bsp_led_indication)
    bsp_led_indication                       0x00027fe1   Thumb Code   882  bsp.o(i.bsp_led_indication)
    i.bsp_wakeup_button_enable               0x00028368   Section        0  bsp.o(i.bsp_wakeup_button_enable)
    i.buf_prealloc                           0x00028378   Section        0  nrf_log_frontend.o(i.buf_prealloc)
    buf_prealloc                             0x00028379   Thumb Code   220  nrf_log_frontend.o(i.buf_prealloc)
    i.buffer_add                             0x00028460   Section        0  nrf_fprintf_format.o(i.buffer_add)
    buffer_add                               0x00028461   Thumb Code    44  nrf_fprintf_format.o(i.buffer_add)
    i.buffer_is_empty                        0x0002848c   Section        0  nrf_log_frontend.o(i.buffer_is_empty)
    i.channel_handler_get                    0x000284a4   Section        0  nrfx_gpiote.o(i.channel_handler_get)
    channel_handler_get                      0x000284a5   Thumb Code    10  nrfx_gpiote.o(i.channel_handler_get)
    i.channel_port_get                       0x000284b4   Section        0  nrfx_gpiote.o(i.channel_port_get)
    channel_port_get                         0x000284b5   Thumb Code     8  nrfx_gpiote.o(i.channel_port_get)
    i.characteristic_add                     0x000284c0   Section        0  ble_srv_common.o(i.characteristic_add)
    i.clock_clk_started_notify               0x00028688   Section        0  nrf_drv_clock.o(i.clock_clk_started_notify)
    clock_clk_started_notify                 0x00028689   Thumb Code    42  nrf_drv_clock.o(i.clock_clk_started_notify)
    i.clock_irq_handler                      0x000286b8   Section        0  nrf_drv_clock.o(i.clock_irq_handler)
    clock_irq_handler                        0x000286b9   Thumb Code    34  nrf_drv_clock.o(i.clock_irq_handler)
    i.compare_func                           0x000286e0   Section        0  app_timer2.o(i.compare_func)
    compare_func                             0x000286e1   Thumb Code    38  app_timer2.o(i.compare_func)
    i.config_is_valid                        0x00028706   Section        0  ble_advertising.o(i.config_is_valid)
    config_is_valid                          0x00028707   Thumb Code    40  ble_advertising.o(i.config_is_valid)
    i.conn_handle_list_get                   0x0002872e   Section        0  ble_conn_state.o(i.conn_handle_list_get)
    i.conn_int_check                         0x0002876a   Section        0  ble_advdata.o(i.conn_int_check)
    conn_int_check                           0x0002876b   Thumb Code    90  ble_advdata.o(i.conn_int_check)
    i.conn_int_encode                        0x000287c4   Section        0  ble_advdata.o(i.conn_int_encode)
    conn_int_encode                          0x000287c5   Thumb Code   104  ble_advdata.o(i.conn_int_encode)
    i.conn_params_error_handler              0x0002882c   Section        0  main_p2cp.o(i.conn_params_error_handler)
    conn_params_error_handler                0x0002882d   Thumb Code    16  main_p2cp.o(i.conn_params_error_handler)
    i.conn_params_init                       0x0002883c   Section        0  main_p2cp.o(i.conn_params_init)
    conn_params_init                         0x0002883d   Thumb Code    82  main_p2cp.o(i.conn_params_init)
    i.conn_params_negotiation                0x00028898   Section        0  ble_conn_params.o(i.conn_params_negotiation)
    conn_params_negotiation                  0x00028899   Thumb Code    78  ble_conn_params.o(i.conn_params_negotiation)
    i.connection_buttons_configure           0x000288ec   Section        0  bsp_btn_ble.o(i.connection_buttons_configure)
    connection_buttons_configure             0x000288ed   Thumb Code    84  bsp_btn_ble.o(i.connection_buttons_configure)
    i.data_length_update                     0x00028940   Section        0  nrf_ble_gatt.o(i.data_length_update)
    data_length_update                       0x00028941   Thumb Code   150  nrf_ble_gatt.o(i.data_length_update)
    i.dropped_sat16_get                      0x00028a28   Section        0  nrf_log_frontend.o(i.dropped_sat16_get)
    dropped_sat16_get                        0x00028a29   Thumb Code    18  nrf_log_frontend.o(i.dropped_sat16_get)
    i.drv_rtc_compare_disable                0x00028a40   Section        0  drv_rtc.o(i.drv_rtc_compare_disable)
    i.drv_rtc_compare_pending                0x00028a56   Section        0  drv_rtc.o(i.drv_rtc_compare_pending)
    i.drv_rtc_compare_set                    0x00028a70   Section        0  drv_rtc.o(i.drv_rtc_compare_set)
    i.drv_rtc_counter_get                    0x00028acc   Section        0  drv_rtc.o(i.drv_rtc_counter_get)
    i.drv_rtc_init                           0x00028ad8   Section        0  drv_rtc.o(i.drv_rtc_init)
    i.drv_rtc_irq_trigger                    0x00028c00   Section        0  drv_rtc.o(i.drv_rtc_irq_trigger)
    i.drv_rtc_overflow_enable                0x00028c24   Section        0  drv_rtc.o(i.drv_rtc_overflow_enable)
    i.drv_rtc_overflow_pending               0x00028c36   Section        0  drv_rtc.o(i.drv_rtc_overflow_pending)
    i.drv_rtc_start                          0x00028c46   Section        0  drv_rtc.o(i.drv_rtc_start)
    i.drv_rtc_stop                           0x00028c54   Section        0  drv_rtc.o(i.drv_rtc_stop)
    i.drv_rtc_windowed_compare_set           0x00028c62   Section        0  drv_rtc.o(i.drv_rtc_windowed_compare_set)
    i.evt_disable                            0x00028d5e   Section        0  drv_rtc.o(i.evt_disable)
    evt_disable                              0x00028d5f   Thumb Code    24  drv_rtc.o(i.evt_disable)
    i.evt_enable                             0x00028d76   Section        0  drv_rtc.o(i.evt_enable)
    evt_enable                               0x00028d77   Thumb Code    28  drv_rtc.o(i.evt_enable)
    i.evt_pending                            0x00028d92   Section        0  drv_rtc.o(i.evt_pending)
    evt_pending                              0x00028d93   Thumb Code    28  drv_rtc.o(i.evt_pending)
    i.fifo_get                               0x00028dae   Section        0  app_fifo.o(i.fifo_get)
    fifo_get                                 0x00028daf   Thumb Code    24  app_fifo.o(i.fifo_get)
    i.fifo_length                            0x00028dc6   Section        0  app_fifo.o(i.fifo_length)
    fifo_length                              0x00028dc7   Thumb Code    10  app_fifo.o(i.fifo_length)
    i.fifo_length                            0x00028dd0   Section        0  app_uart_fifo.o(i.fifo_length)
    fifo_length                              0x00028dd1   Thumb Code    10  app_uart_fifo.o(i.fifo_length)
    i.fifo_peek                              0x00028dda   Section        0  app_fifo.o(i.fifo_peek)
    fifo_peek                                0x00028ddb   Thumb Code    18  app_fifo.o(i.fifo_peek)
    i.fifo_put                               0x00028dec   Section        0  app_fifo.o(i.fifo_put)
    fifo_put                                 0x00028ded   Thumb Code    18  app_fifo.o(i.fifo_put)
    i.flag_toggle                            0x00028dfe   Section        0  ble_conn_state.o(i.flag_toggle)
    flag_toggle                              0x00028dff   Thumb Code    30  ble_conn_state.o(i.flag_toggle)
    i.flags_encode                           0x00028e1c   Section        0  ble_advdata.o(i.flags_encode)
    flags_encode                             0x00028e1d   Thumb Code    54  ble_advdata.o(i.flags_encode)
    i.flags_set                              0x00028e52   Section        0  ble_advertising.o(i.flags_set)
    flags_set                                0x00028e53   Thumb Code    44  ble_advertising.o(i.flags_set)
    i.fputc                                  0x00028e7e   Section        0  retarget.o(i.fputc)
    i.gap_params_init                        0x00028e90   Section        0  main_p2cp.o(i.gap_params_init)
    gap_params_init                          0x00028e91   Thumb Code   116  main_p2cp.o(i.gap_params_init)
    i.gatt_evt_handler                       0x00028f10   Section        0  main_p2cp.o(i.gatt_evt_handler)
    i.gatt_init                              0x00028f7c   Section        0  main_p2cp.o(i.gatt_init)
    i.get_now                                0x00028fc0   Section        0  app_timer2.o(i.get_now)
    get_now                                  0x00028fc1   Thumb Code    46  app_timer2.o(i.get_now)
    i.idle_state_handle                      0x00028ffc   Section        0  main_p2cp.o(i.idle_state_handle)
    idle_state_handle                        0x00028ffd   Thumb Code    14  main_p2cp.o(i.idle_state_handle)
    i.instance_get                           0x0002900c   Section        0  ble_conn_params.o(i.instance_get)
    instance_get                             0x0002900d   Thumb Code    40  ble_conn_params.o(i.instance_get)
    i.int_print                              0x00029038   Section        0  nrf_fprintf_format.o(i.int_print)
    int_print                                0x00029039   Thumb Code   190  nrf_fprintf_format.o(i.int_print)
    i.interrupts_enable                      0x000290f8   Section        0  nrfx_uart.o(i.interrupts_enable)
    interrupts_enable                        0x000290f9   Thumb Code   136  nrfx_uart.o(i.interrupts_enable)
    i.interrupts_enable                      0x0002918c   Section        0  nrfx_uarte.o(i.interrupts_enable)
    interrupts_enable                        0x0002918d   Thumb Code   166  nrfx_uarte.o(i.interrupts_enable)
    i.invalid_packets_omit                   0x00029240   Section        0  nrf_log_frontend.o(i.invalid_packets_omit)
    invalid_packets_omit                     0x00029241   Thumb Code    70  nrf_log_frontend.o(i.invalid_packets_omit)
    i.is_conn_params_ok                      0x00029286   Section        0  ble_conn_params.o(i.is_conn_params_ok)
    is_conn_params_ok                        0x00029287   Thumb Code   114  ble_conn_params.o(i.is_conn_params_ok)
    i.item_dequeue                           0x000292f8   Section        0  nrf_drv_clock.o(i.item_dequeue)
    item_dequeue                             0x000292f9   Thumb Code    12  nrf_drv_clock.o(i.item_dequeue)
    i.latch_pending_read_and_check           0x00029304   Section        0  nrfx_gpiote.o(i.latch_pending_read_and_check)
    latch_pending_read_and_check             0x00029305   Thumb Code    38  nrfx_gpiote.o(i.latch_pending_read_and_check)
    i.leds_off                               0x0002932c   Section        0  bsp.o(i.leds_off)
    leds_off                                 0x0002932d   Thumb Code    36  bsp.o(i.leds_off)
    i.lfclk_stop                             0x00029354   Section        0  nrf_drv_clock.o(i.lfclk_stop)
    lfclk_stop                               0x00029355   Thumb Code    20  nrf_drv_clock.o(i.lfclk_stop)
    i.link_init                              0x0002936c   Section        0  nrf_ble_gatt.o(i.link_init)
    link_init                                0x0002936d   Thumb Code    24  nrf_ble_gatt.o(i.link_init)
    i.log_init                               0x00029384   Section        0  main_p2cp.o(i.log_init)
    log_init                                 0x00029385   Thumb Code    38  main_p2cp.o(i.log_init)
    i.log_skip                               0x000293ac   Section        0  nrf_log_frontend.o(i.log_skip)
    log_skip                                 0x000293ad   Thumb Code   190  nrf_log_frontend.o(i.log_skip)
    i.main                                   0x00029478   Section        0  main_p2cp.o(i.main)
    i.manuf_specific_data_encode             0x0002954c   Section        0  ble_advdata.o(i.manuf_specific_data_encode)
    manuf_specific_data_encode               0x0002954d   Thumb Code   118  ble_advdata.o(i.manuf_specific_data_encode)
    i.memobj_op                              0x000295c2   Section        0  nrf_memobj.o(i.memobj_op)
    memobj_op                                0x000295c3   Thumb Code   202  nrf_memobj.o(i.memobj_op)
    i.module_idx_get                         0x0002968c   Section        0  nrf_log_frontend.o(i.module_idx_get)
    module_idx_get                           0x0002968d   Thumb Code    52  nrf_log_frontend.o(i.module_idx_get)
    i.name_encode                            0x000296c4   Section        0  ble_advdata.o(i.name_encode)
    name_encode                              0x000296c5   Thumb Code   200  ble_advdata.o(i.name_encode)
    i.nrf52_errata_136                       0x0002978c   Section        0  system_nrf52805.o(i.nrf52_errata_136)
    nrf52_errata_136                         0x0002978d   Thumb Code    96  system_nrf52805.o(i.nrf52_errata_136)
    i.nrf52_errata_217                       0x000297f4   Section        0  system_nrf52805.o(i.nrf52_errata_217)
    nrf52_errata_217                         0x000297f5   Thumb Code    30  system_nrf52805.o(i.nrf52_errata_217)
    i.nrf52_errata_31                        0x00029818   Section        0  system_nrf52805.o(i.nrf52_errata_31)
    nrf52_errata_31                          0x00029819   Thumb Code    96  system_nrf52805.o(i.nrf52_errata_31)
    i.nrf52_errata_36                        0x00029880   Section        0  system_nrf52805.o(i.nrf52_errata_36)
    nrf52_errata_36                          0x00029881   Thumb Code    96  system_nrf52805.o(i.nrf52_errata_36)
    i.nrf52_errata_66                        0x000298e8   Section        0  system_nrf52805.o(i.nrf52_errata_66)
    nrf52_errata_66                          0x000298e9   Thumb Code    96  system_nrf52805.o(i.nrf52_errata_66)
    i.nrf_atfifo_init                        0x00029950   Section        0  nrf_atfifo.o(i.nrf_atfifo_init)
    i.nrf_atfifo_item_alloc                  0x00029978   Section        0  nrf_atfifo.o(i.nrf_atfifo_item_alloc)
    i.nrf_atfifo_item_free                   0x00029994   Section        0  nrf_atfifo.o(i.nrf_atfifo_item_free)
    i.nrf_atfifo_item_get                    0x000299b0   Section        0  nrf_atfifo.o(i.nrf_atfifo_item_get)
    i.nrf_atfifo_item_put                    0x000299cc   Section        0  nrf_atfifo.o(i.nrf_atfifo_item_put)
    i.nrf_atflags_clear                      0x000299e8   Section        0  nrf_atflags.o(i.nrf_atflags_clear)
    i.nrf_atflags_get                        0x00029a06   Section        0  nrf_atflags.o(i.nrf_atflags_get)
    i.nrf_atflags_set                        0x00029a24   Section        0  nrf_atflags.o(i.nrf_atflags_set)
    i.nrf_atomic_flag_clear_fetch            0x00029a42   Section        0  nrf_atomic.o(i.nrf_atomic_flag_clear_fetch)
    i.nrf_atomic_flag_set                    0x00029a50   Section        0  nrf_atomic.o(i.nrf_atomic_flag_set)
    i.nrf_atomic_u32_add                     0x00029a5e   Section        0  nrf_atomic.o(i.nrf_atomic_u32_add)
    i.nrf_atomic_u32_and                     0x00029a74   Section        0  nrf_atomic.o(i.nrf_atomic_u32_and)
    i.nrf_atomic_u32_fetch_and               0x00029a8a   Section        0  nrf_atomic.o(i.nrf_atomic_u32_fetch_and)
    i.nrf_atomic_u32_fetch_store             0x00029aa0   Section        0  nrf_atomic.o(i.nrf_atomic_u32_fetch_store)
    i.nrf_atomic_u32_or                      0x00029ab6   Section        0  nrf_atomic.o(i.nrf_atomic_u32_or)
    i.nrf_atomic_u32_sub                     0x00029acc   Section        0  nrf_atomic.o(i.nrf_atomic_u32_sub)
    i.nrf_balloc_alloc                       0x00029ae2   Section        0  nrf_balloc.o(i.nrf_balloc_alloc)
    i.nrf_balloc_block2idx                   0x00029b34   Section        0  nrf_balloc.o(i.nrf_balloc_block2idx)
    nrf_balloc_block2idx                     0x00029b35   Thumb Code    16  nrf_balloc.o(i.nrf_balloc_block2idx)
    i.nrf_balloc_free                        0x00029b44   Section        0  nrf_balloc.o(i.nrf_balloc_free)
    i.nrf_balloc_idx2block                   0x00029b74   Section        0  nrf_balloc.o(i.nrf_balloc_idx2block)
    nrf_balloc_idx2block                     0x00029b75   Thumb Code    12  nrf_balloc.o(i.nrf_balloc_idx2block)
    i.nrf_balloc_init                        0x00029b80   Section        0  nrf_balloc.o(i.nrf_balloc_init)
    i.nrf_bitmask_bit_is_set                 0x00029bbc   Section        0  nrfx_gpiote.o(i.nrf_bitmask_bit_is_set)
    nrf_bitmask_bit_is_set                   0x00029bbd   Thumb Code    22  nrfx_gpiote.o(i.nrf_bitmask_bit_is_set)
    i.nrf_ble_gatt_att_mtu_periph_set        0x00029bd2   Section        0  nrf_ble_gatt.o(i.nrf_ble_gatt_att_mtu_periph_set)
    i.nrf_ble_gatt_init                      0x00029bf0   Section        0  nrf_ble_gatt.o(i.nrf_ble_gatt_init)
    i.nrf_ble_gatt_on_ble_evt                0x00029c24   Section        0  nrf_ble_gatt.o(i.nrf_ble_gatt_on_ble_evt)
    i.nrf_ble_qwr_conn_handle_assign         0x00029d2c   Section        0  nrf_ble_qwr.o(i.nrf_ble_qwr_conn_handle_assign)
    i.nrf_ble_qwr_init                       0x00029d4c   Section        0  nrf_ble_qwr.o(i.nrf_ble_qwr_init)
    i.nrf_ble_qwr_on_ble_evt                 0x00029d7e   Section        0  nrf_ble_qwr.o(i.nrf_ble_qwr_on_ble_evt)
    i.nrf_clock_event_check                  0x00029dfa   Section        0  nrfx_clock.o(i.nrf_clock_event_check)
    nrf_clock_event_check                    0x00029dfb   Thumb Code    18  nrfx_clock.o(i.nrf_clock_event_check)
    i.nrf_clock_event_clear                  0x00029e0c   Section        0  nrfx_clock.o(i.nrf_clock_event_clear)
    nrf_clock_event_clear                    0x00029e0d   Thumb Code    18  nrfx_clock.o(i.nrf_clock_event_clear)
    i.nrf_clock_int_disable                  0x00029e20   Section        0  nrfx_clock.o(i.nrf_clock_int_disable)
    nrf_clock_int_disable                    0x00029e21   Thumb Code     6  nrfx_clock.o(i.nrf_clock_int_disable)
    i.nrf_clock_task_trigger                 0x00029e2c   Section        0  nrfx_clock.o(i.nrf_clock_task_trigger)
    nrf_clock_task_trigger                   0x00029e2d   Thumb Code     8  nrfx_clock.o(i.nrf_clock_task_trigger)
    i.nrf_drv_clock_init                     0x00029e34   Section        0  nrf_drv_clock.o(i.nrf_drv_clock_init)
    i.nrf_drv_clock_lfclk_release            0x00029e80   Section        0  nrf_drv_clock.o(i.nrf_drv_clock_lfclk_release)
    i.nrf_drv_uart_init                      0x00029eb0   Section        0  nrf_drv_uart.o(i.nrf_drv_uart_init)
    i.nrf_drv_uart_rx                        0x00029f3c   Section        0  app_uart_fifo.o(i.nrf_drv_uart_rx)
    nrf_drv_uart_rx                          0x00029f3d   Thumb Code    62  app_uart_fifo.o(i.nrf_drv_uart_rx)
    i.nrf_drv_uart_tx                        0x00029f80   Section        0  app_uart_fifo.o(i.nrf_drv_uart_tx)
    nrf_drv_uart_tx                          0x00029f81   Thumb Code    62  app_uart_fifo.o(i.nrf_drv_uart_tx)
    i.nrf_fprintf                            0x00029fc4   Section        0  nrf_fprintf.o(i.nrf_fprintf)
    i.nrf_fprintf_buffer_flush               0x00029fee   Section        0  nrf_fprintf.o(i.nrf_fprintf_buffer_flush)
    i.nrf_fprintf_fmt                        0x0002a00a   Section        0  nrf_fprintf_format.o(i.nrf_fprintf_fmt)
    i.nrf_gpio_cfg                           0x0002a1fa   Section        0  nrfx_uart.o(i.nrf_gpio_cfg)
    nrf_gpio_cfg                             0x0002a1fb   Thumb Code    40  nrfx_uart.o(i.nrf_gpio_cfg)
    i.nrf_gpio_cfg                           0x0002a222   Section        0  nrfx_uarte.o(i.nrf_gpio_cfg)
    nrf_gpio_cfg                             0x0002a223   Thumb Code    40  nrfx_uarte.o(i.nrf_gpio_cfg)
    i.nrf_gpio_cfg_input                     0x0002a24a   Section        0  nrfx_uart.o(i.nrf_gpio_cfg_input)
    nrf_gpio_cfg_input                       0x0002a24b   Thumb Code    26  nrfx_uart.o(i.nrf_gpio_cfg_input)
    i.nrf_gpio_cfg_input                     0x0002a264   Section        0  nrfx_uarte.o(i.nrf_gpio_cfg_input)
    nrf_gpio_cfg_input                       0x0002a265   Thumb Code    26  nrfx_uarte.o(i.nrf_gpio_cfg_input)
    i.nrf_gpio_cfg_output                    0x0002a27e   Section        0  nrfx_uart.o(i.nrf_gpio_cfg_output)
    nrf_gpio_cfg_output                      0x0002a27f   Thumb Code    24  nrfx_uart.o(i.nrf_gpio_cfg_output)
    i.nrf_gpio_cfg_output                    0x0002a296   Section        0  nrfx_uarte.o(i.nrf_gpio_cfg_output)
    nrf_gpio_cfg_output                      0x0002a297   Thumb Code    24  nrfx_uarte.o(i.nrf_gpio_cfg_output)
    i.nrf_gpio_cfg_sense_set                 0x0002a2ae   Section        0  nrfx_gpiote.o(i.nrf_gpio_cfg_sense_set)
    nrf_gpio_cfg_sense_set                   0x0002a2af   Thumb Code    50  nrfx_gpiote.o(i.nrf_gpio_cfg_sense_set)
    i.nrf_gpio_latches_read_and_clear        0x0002a2e0   Section        0  nrfx_gpiote.o(i.nrf_gpio_latches_read_and_clear)
    nrf_gpio_latches_read_and_clear          0x0002a2e1   Thumb Code    46  nrfx_gpiote.o(i.nrf_gpio_latches_read_and_clear)
    i.nrf_gpio_pin_set                       0x0002a314   Section        0  nrfx_uart.o(i.nrf_gpio_pin_set)
    nrf_gpio_pin_set                         0x0002a315   Thumb Code    22  nrfx_uart.o(i.nrf_gpio_pin_set)
    i.nrf_gpio_pin_set                       0x0002a32a   Section        0  nrfx_uarte.o(i.nrf_gpio_pin_set)
    nrf_gpio_pin_set                         0x0002a32b   Thumb Code    22  nrfx_uarte.o(i.nrf_gpio_pin_set)
    i.nrf_gpio_pin_write                     0x0002a340   Section        0  boards.o(i.nrf_gpio_pin_write)
    nrf_gpio_pin_write                       0x0002a341   Thumb Code    58  boards.o(i.nrf_gpio_pin_write)
    i.nrf_gpiote_event_addr_get              0x0002a37c   Section        0  nrfx_gpiote.o(i.nrf_gpiote_event_addr_get)
    nrf_gpiote_event_addr_get                0x0002a37d   Thumb Code     8  nrfx_gpiote.o(i.nrf_gpiote_event_addr_get)
    i.nrf_gpiote_event_clear                 0x0002a388   Section        0  nrfx_gpiote.o(i.nrf_gpiote_event_clear)
    nrf_gpiote_event_clear                   0x0002a389   Thumb Code    28  nrfx_gpiote.o(i.nrf_gpiote_event_clear)
    i.nrf_gpiote_event_is_set                0x0002a3a4   Section        0  nrfx_gpiote.o(i.nrf_gpiote_event_is_set)
    nrf_gpiote_event_is_set                  0x0002a3a5   Thumb Code    22  nrfx_gpiote.o(i.nrf_gpiote_event_is_set)
    i.nrf_log_backend_add                    0x0002a3bc   Section        0  nrf_log_frontend.o(i.nrf_log_backend_add)
    i.nrf_log_backend_rtt_flush              0x0002a410   Section        0  nrf_log_backend_rtt.o(i.nrf_log_backend_rtt_flush)
    nrf_log_backend_rtt_flush                0x0002a411   Thumb Code     2  nrf_log_backend_rtt.o(i.nrf_log_backend_rtt_flush)
    i.nrf_log_backend_rtt_init               0x0002a412   Section        0  nrf_log_backend_rtt.o(i.nrf_log_backend_rtt_init)
    i.nrf_log_backend_rtt_panic_set          0x0002a41a   Section        0  nrf_log_backend_rtt.o(i.nrf_log_backend_rtt_panic_set)
    nrf_log_backend_rtt_panic_set            0x0002a41b   Thumb Code     2  nrf_log_backend_rtt.o(i.nrf_log_backend_rtt_panic_set)
    i.nrf_log_backend_rtt_put                0x0002a41c   Section        0  nrf_log_backend_rtt.o(i.nrf_log_backend_rtt_put)
    nrf_log_backend_rtt_put                  0x0002a41d   Thumb Code    24  nrf_log_backend_rtt.o(i.nrf_log_backend_rtt_put)
    i.nrf_log_backend_serial_put             0x0002a43c   Section        0  nrf_log_backend_serial.o(i.nrf_log_backend_serial_put)
    i.nrf_log_color_id_get                   0x0002a530   Section        0  nrf_log_frontend.o(i.nrf_log_color_id_get)
    i.nrf_log_default_backends_init          0x0002a568   Section        0  nrf_log_default_backends.o(i.nrf_log_default_backends_init)
    i.nrf_log_frontend_dequeue               0x0002a590   Section        0  nrf_log_frontend.o(i.nrf_log_frontend_dequeue)
    i.nrf_log_frontend_std_0                 0x0002a8ac   Section        0  nrf_log_frontend.o(i.nrf_log_frontend_std_0)
    i.nrf_log_frontend_std_1                 0x0002a8c0   Section        0  nrf_log_frontend.o(i.nrf_log_frontend_std_1)
    i.nrf_log_frontend_std_2                 0x0002a8d8   Section        0  nrf_log_frontend.o(i.nrf_log_frontend_std_2)
    i.nrf_log_hexdump_entry_process          0x0002a8f8   Section        0  nrf_log_str_formatter.o(i.nrf_log_hexdump_entry_process)
    i.nrf_log_init                           0x0002a9b4   Section        0  nrf_log_frontend.o(i.nrf_log_init)
    i.nrf_log_module_cnt_get                 0x0002a9fc   Section        0  nrf_log_frontend.o(i.nrf_log_module_cnt_get)
    i.nrf_log_module_name_get                0x0002aa10   Section        0  nrf_log_frontend.o(i.nrf_log_module_name_get)
    i.nrf_log_panic                          0x0002aa34   Section        0  nrf_log_frontend.o(i.nrf_log_panic)
    i.nrf_log_std_entry_process              0x0002aa68   Section        0  nrf_log_str_formatter.o(i.nrf_log_std_entry_process)
    i.nrf_memobj_alloc                       0x0002ab30   Section        0  nrf_memobj.o(i.nrf_memobj_alloc)
    i.nrf_memobj_free                        0x0002abaa   Section        0  nrf_memobj.o(i.nrf_memobj_free)
    i.nrf_memobj_get                         0x0002abea   Section        0  nrf_memobj.o(i.nrf_memobj_get)
    i.nrf_memobj_pool_init                   0x0002abfa   Section        0  nrf_memobj.o(i.nrf_memobj_pool_init)
    i.nrf_memobj_put                         0x0002ac06   Section        0  nrf_memobj.o(i.nrf_memobj_put)
    i.nrf_memobj_read                        0x0002ac24   Section        0  nrf_memobj.o(i.nrf_memobj_read)
    i.nrf_memobj_write                       0x0002ac46   Section        0  nrf_memobj.o(i.nrf_memobj_write)
    i.nrf_pwr_mgmt_init                      0x0002ac68   Section        0  nrf_pwr_mgmt.o(i.nrf_pwr_mgmt_init)
    i.nrf_pwr_mgmt_run                       0x0002aca8   Section        0  nrf_pwr_mgmt.o(i.nrf_pwr_mgmt_run)
    i.nrf_qwr_error_handler                  0x0002acbe   Section        0  main_p2cp.o(i.nrf_qwr_error_handler)
    nrf_qwr_error_handler                    0x0002acbf   Thumb Code    16  main_p2cp.o(i.nrf_qwr_error_handler)
    i.nrf_ringbuf_init                       0x0002acce   Section        0  nrf_ringbuf.o(i.nrf_ringbuf_init)
    i.nrf_rtc_cc_get                         0x0002acea   Section        0  drv_rtc.o(i.nrf_rtc_cc_get)
    nrf_rtc_cc_get                           0x0002aceb   Thumb Code    12  drv_rtc.o(i.nrf_rtc_cc_get)
    i.nrf_rtc_cc_set                         0x0002acf6   Section        0  drv_rtc.o(i.nrf_rtc_cc_set)
    nrf_rtc_cc_set                           0x0002acf7   Thumb Code    10  drv_rtc.o(i.nrf_rtc_cc_set)
    i.nrf_rtc_counter_get                    0x0002ad00   Section        0  drv_rtc.o(i.nrf_rtc_counter_get)
    nrf_rtc_counter_get                      0x0002ad01   Thumb Code     8  drv_rtc.o(i.nrf_rtc_counter_get)
    i.nrf_rtc_event_clear                    0x0002ad08   Section        0  drv_rtc.o(i.nrf_rtc_event_clear)
    nrf_rtc_event_clear                      0x0002ad09   Thumb Code    14  drv_rtc.o(i.nrf_rtc_event_clear)
    i.nrf_rtc_event_disable                  0x0002ad16   Section        0  drv_rtc.o(i.nrf_rtc_event_disable)
    nrf_rtc_event_disable                    0x0002ad17   Thumb Code     6  drv_rtc.o(i.nrf_rtc_event_disable)
    i.nrf_rtc_event_enable                   0x0002ad1c   Section        0  drv_rtc.o(i.nrf_rtc_event_enable)
    nrf_rtc_event_enable                     0x0002ad1d   Thumb Code     6  drv_rtc.o(i.nrf_rtc_event_enable)
    i.nrf_rtc_int_disable                    0x0002ad22   Section        0  drv_rtc.o(i.nrf_rtc_int_disable)
    nrf_rtc_int_disable                      0x0002ad23   Thumb Code     6  drv_rtc.o(i.nrf_rtc_int_disable)
    i.nrf_rtc_int_enable                     0x0002ad28   Section        0  drv_rtc.o(i.nrf_rtc_int_enable)
    nrf_rtc_int_enable                       0x0002ad29   Thumb Code     6  drv_rtc.o(i.nrf_rtc_int_enable)
    i.nrf_rtc_task_trigger                   0x0002ad2e   Section        0  drv_rtc.o(i.nrf_rtc_task_trigger)
    nrf_rtc_task_trigger                     0x0002ad2f   Thumb Code     6  drv_rtc.o(i.nrf_rtc_task_trigger)
    i.nrf_sdh_ble_app_ram_start_get          0x0002ad34   Section        0  nrf_sdh_ble.o(i.nrf_sdh_ble_app_ram_start_get)
    i.nrf_sdh_ble_default_cfg_set            0x0002ad4c   Section        0  nrf_sdh_ble.o(i.nrf_sdh_ble_default_cfg_set)
    i.nrf_sdh_ble_enable                     0x0002aee8   Section        0  nrf_sdh_ble.o(i.nrf_sdh_ble_enable)
    i.nrf_sdh_ble_evts_poll                  0x0002b034   Section        0  nrf_sdh_ble.o(i.nrf_sdh_ble_evts_poll)
    nrf_sdh_ble_evts_poll                    0x0002b035   Thumb Code   108  nrf_sdh_ble.o(i.nrf_sdh_ble_evts_poll)
    i.nrf_sdh_enable_request                 0x0002b0a8   Section        0  nrf_sdh.o(i.nrf_sdh_enable_request)
    i.nrf_sdh_evts_poll                      0x0002b12c   Section        0  nrf_sdh.o(i.nrf_sdh_evts_poll)
    i.nrf_sdh_is_enabled                     0x0002b15c   Section        0  nrf_sdh.o(i.nrf_sdh_is_enabled)
    i.nrf_sdh_soc_evts_poll                  0x0002b168   Section        0  nrf_sdh_soc.o(i.nrf_sdh_soc_evts_poll)
    nrf_sdh_soc_evts_poll                    0x0002b169   Thumb Code    80  nrf_sdh_soc.o(i.nrf_sdh_soc_evts_poll)
    i.nrf_section_iter_get                   0x0002b1bc   Section        0  nrf_sdh.o(i.nrf_section_iter_get)
    nrf_section_iter_get                     0x0002b1bd   Thumb Code     6  nrf_sdh.o(i.nrf_section_iter_get)
    i.nrf_section_iter_init                  0x0002b1c2   Section        0  nrf_section_iter.o(i.nrf_section_iter_init)
    i.nrf_section_iter_item_set              0x0002b1d6   Section        0  nrf_section_iter.o(i.nrf_section_iter_item_set)
    nrf_section_iter_item_set                0x0002b1d7   Thumb Code    46  nrf_section_iter.o(i.nrf_section_iter_item_set)
    i.nrf_section_iter_next                  0x0002b204   Section        0  nrf_section_iter.o(i.nrf_section_iter_next)
    i.nrf_sortlist_add                       0x0002b232   Section        0  nrf_sortlist.o(i.nrf_sortlist_add)
    i.nrf_sortlist_peek                      0x0002b25a   Section        0  nrf_sortlist.o(i.nrf_sortlist_peek)
    i.nrf_sortlist_pop                       0x0002b262   Section        0  nrf_sortlist.o(i.nrf_sortlist_pop)
    i.nrf_sortlist_remove                    0x0002b27a   Section        0  nrf_sortlist.o(i.nrf_sortlist_remove)
    i.nrf_strerror_find                      0x0002b2a0   Section        0  nrf_strerror.o(i.nrf_strerror_find)
    i.nrf_strerror_get                       0x0002b2e0   Section        0  nrf_strerror.o(i.nrf_strerror_get)
    i.nrf_uart_errorsrc_get_and_clear        0x0002b2fc   Section        0  nrfx_uart.o(i.nrf_uart_errorsrc_get_and_clear)
    nrf_uart_errorsrc_get_and_clear          0x0002b2fd   Thumb Code    12  nrfx_uart.o(i.nrf_uart_errorsrc_get_and_clear)
    i.nrf_uart_event_check                   0x0002b308   Section        0  nrfx_uart.o(i.nrf_uart_event_check)
    nrf_uart_event_check                     0x0002b309   Thumb Code    14  nrfx_uart.o(i.nrf_uart_event_check)
    i.nrf_uart_event_clear                   0x0002b316   Section        0  nrfx_uart.o(i.nrf_uart_event_clear)
    nrf_uart_event_clear                     0x0002b317   Thumb Code    14  nrfx_uart.o(i.nrf_uart_event_clear)
    i.nrf_uart_hwfc_pins_set                 0x0002b324   Section        0  nrfx_uart.o(i.nrf_uart_hwfc_pins_set)
    nrf_uart_hwfc_pins_set                   0x0002b325   Thumb Code    12  nrfx_uart.o(i.nrf_uart_hwfc_pins_set)
    i.nrf_uart_int_disable                   0x0002b330   Section        0  nrfx_uart.o(i.nrf_uart_int_disable)
    nrf_uart_int_disable                     0x0002b331   Thumb Code     6  nrfx_uart.o(i.nrf_uart_int_disable)
    i.nrf_uart_int_enable                    0x0002b336   Section        0  nrfx_uart.o(i.nrf_uart_int_enable)
    nrf_uart_int_enable                      0x0002b337   Thumb Code     6  nrfx_uart.o(i.nrf_uart_int_enable)
    i.nrf_uart_int_enable_check              0x0002b33c   Section        0  nrfx_uart.o(i.nrf_uart_int_enable_check)
    nrf_uart_int_enable_check                0x0002b33d   Thumb Code    18  nrfx_uart.o(i.nrf_uart_int_enable_check)
    i.nrf_uart_task_trigger                  0x0002b34e   Section        0  nrfx_uart.o(i.nrf_uart_task_trigger)
    nrf_uart_task_trigger                    0x0002b34f   Thumb Code     6  nrfx_uart.o(i.nrf_uart_task_trigger)
    i.nrf_uart_txrx_pins_set                 0x0002b354   Section        0  nrfx_uart.o(i.nrf_uart_txrx_pins_set)
    nrf_uart_txrx_pins_set                   0x0002b355   Thumb Code    14  nrfx_uart.o(i.nrf_uart_txrx_pins_set)
    i.nrf_uarte_errorsrc_get_and_clear       0x0002b362   Section        0  nrfx_uarte.o(i.nrf_uarte_errorsrc_get_and_clear)
    nrf_uarte_errorsrc_get_and_clear         0x0002b363   Thumb Code    12  nrfx_uarte.o(i.nrf_uarte_errorsrc_get_and_clear)
    i.nrf_uarte_event_check                  0x0002b36e   Section        0  nrfx_uarte.o(i.nrf_uarte_event_check)
    nrf_uarte_event_check                    0x0002b36f   Thumb Code    14  nrfx_uarte.o(i.nrf_uarte_event_check)
    i.nrf_uarte_event_clear                  0x0002b37c   Section        0  nrfx_uarte.o(i.nrf_uarte_event_clear)
    nrf_uarte_event_clear                    0x0002b37d   Thumb Code    14  nrfx_uarte.o(i.nrf_uarte_event_clear)
    i.nrf_uarte_hwfc_pins_set                0x0002b38a   Section        0  nrfx_uarte.o(i.nrf_uarte_hwfc_pins_set)
    nrf_uarte_hwfc_pins_set                  0x0002b38b   Thumb Code    12  nrfx_uarte.o(i.nrf_uarte_hwfc_pins_set)
    i.nrf_uarte_int_disable                  0x0002b396   Section        0  nrfx_uarte.o(i.nrf_uarte_int_disable)
    nrf_uarte_int_disable                    0x0002b397   Thumb Code     6  nrfx_uarte.o(i.nrf_uarte_int_disable)
    i.nrf_uarte_int_enable                   0x0002b39c   Section        0  nrfx_uarte.o(i.nrf_uarte_int_enable)
    nrf_uarte_int_enable                     0x0002b39d   Thumb Code     6  nrfx_uarte.o(i.nrf_uarte_int_enable)
    i.nrf_uarte_rx_amount_get                0x0002b3a2   Section        0  nrfx_uarte.o(i.nrf_uarte_rx_amount_get)
    nrf_uarte_rx_amount_get                  0x0002b3a3   Thumb Code    10  nrfx_uarte.o(i.nrf_uarte_rx_amount_get)
    i.nrf_uarte_shorts_disable               0x0002b3ac   Section        0  nrfx_uarte.o(i.nrf_uarte_shorts_disable)
    nrf_uarte_shorts_disable                 0x0002b3ad   Thumb Code    12  nrfx_uarte.o(i.nrf_uarte_shorts_disable)
    i.nrf_uarte_task_trigger                 0x0002b3b8   Section        0  nrfx_uarte.o(i.nrf_uarte_task_trigger)
    nrf_uarte_task_trigger                   0x0002b3b9   Thumb Code     6  nrfx_uarte.o(i.nrf_uarte_task_trigger)
    i.nrf_uarte_tx_amount_get                0x0002b3be   Section        0  nrfx_uarte.o(i.nrf_uarte_tx_amount_get)
    nrf_uarte_tx_amount_get                  0x0002b3bf   Thumb Code    10  nrfx_uarte.o(i.nrf_uarte_tx_amount_get)
    i.nrf_uarte_txrx_pins_set                0x0002b3c8   Section        0  nrfx_uarte.o(i.nrf_uarte_txrx_pins_set)
    nrf_uarte_txrx_pins_set                  0x0002b3c9   Thumb Code    14  nrfx_uarte.o(i.nrf_uarte_txrx_pins_set)
    i.nrf_wdt_started                        0x0002b3d8   Section        0  nrf_drv_clock.o(i.nrf_wdt_started)
    nrf_wdt_started                          0x0002b3d9   Thumb Code    14  nrf_drv_clock.o(i.nrf_wdt_started)
    i.nrfx_clock_enable                      0x0002b3ec   Section        0  nrfx_clock.o(i.nrfx_clock_enable)
    i.nrfx_clock_init                        0x0002b400   Section        0  nrfx_clock.o(i.nrfx_clock_init)
    i.nrfx_clock_lfclk_stop                  0x0002b420   Section        0  nrfx_clock.o(i.nrfx_clock_lfclk_stop)
    i.nrfx_coredep_delay_us                  0x0002b44c   Section        0  drv_rtc.o(i.nrfx_coredep_delay_us)
    nrfx_coredep_delay_us                    0x0002b44d   Thumb Code    20  drv_rtc.o(i.nrfx_coredep_delay_us)
    i.nrfx_get_irq_number                    0x0002b464   Section        0  nrfx_clock.o(i.nrfx_get_irq_number)
    nrfx_get_irq_number                      0x0002b465   Thumb Code     8  nrfx_clock.o(i.nrfx_get_irq_number)
    i.nrfx_get_irq_number                    0x0002b46c   Section        0  nrfx_uart.o(i.nrfx_get_irq_number)
    nrfx_get_irq_number                      0x0002b46d   Thumb Code     8  nrfx_uart.o(i.nrfx_get_irq_number)
    i.nrfx_get_irq_number                    0x0002b474   Section        0  nrfx_uarte.o(i.nrfx_get_irq_number)
    nrfx_get_irq_number                      0x0002b475   Thumb Code     8  nrfx_uarte.o(i.nrfx_get_irq_number)
    i.nrfx_is_in_ram                         0x0002b47c   Section        0  nrfx_uarte.o(i.nrfx_is_in_ram)
    nrfx_is_in_ram                           0x0002b47d   Thumb Code    20  nrfx_uarte.o(i.nrfx_is_in_ram)
    i.nrfx_power_clock_irq_init              0x0002b490   Section        0  nrfx_clock.o(i.nrfx_power_clock_irq_init)
    nrfx_power_clock_irq_init                0x0002b491   Thumb Code   168  nrfx_clock.o(i.nrfx_power_clock_irq_init)
    i.nrfx_prs_acquire                       0x0002b540   Section        0  nrfx_prs.o(i.nrfx_prs_acquire)
    i.nrfx_uart_0_irq_handler                0x0002b590   Section        0  nrfx_uart.o(i.nrfx_uart_0_irq_handler)
    i.nrfx_uart_init                         0x0002b5a4   Section        0  nrfx_uart.o(i.nrfx_uart_init)
    i.nrfx_uart_rx                           0x0002b62c   Section        0  nrfx_uart.o(i.nrfx_uart_rx)
    i.nrfx_uart_tx                           0x0002b750   Section        0  nrfx_uart.o(i.nrfx_uart_tx)
    i.nrfx_uart_tx_in_progress               0x0002b7dc   Section        0  nrfx_uart.o(i.nrfx_uart_tx_in_progress)
    i.nrfx_uarte_0_irq_handler               0x0002b800   Section        0  nrfx_uarte.o(i.nrfx_uarte_0_irq_handler)
    i.nrfx_uarte_init                        0x0002b814   Section        0  nrfx_uarte.o(i.nrfx_uarte_init)
    i.nrfx_uarte_rx                          0x0002b894   Section        0  nrfx_uarte.o(i.nrfx_uarte_rx)
    i.nrfx_uarte_tx                          0x0002b9cc   Section        0  nrfx_uarte.o(i.nrfx_uarte_tx)
    i.nrfx_uarte_tx_in_progress              0x0002ba8c   Section        0  nrfx_uarte.o(i.nrfx_uarte_tx_in_progress)
    i.nus_data_handler                       0x0002baac   Section        0  main_p2cp.o(i.nus_data_handler)
    nus_data_handler                         0x0002baad   Thumb Code   116  main_p2cp.o(i.nus_data_handler)
    i.on_adv_evt                             0x0002bb54   Section        0  main_p2cp.o(i.on_adv_evt)
    on_adv_evt                               0x0002bb55   Thumb Code   146  main_p2cp.o(i.on_adv_evt)
    i.on_compare1_evt                        0x0002bc44   Section        0  app_timer2.o(i.on_compare1_evt)
    on_compare1_evt                          0x0002bc45   Thumb Code    14  app_timer2.o(i.on_compare1_evt)
    i.on_compare_evt                         0x0002bc58   Section        0  app_timer2.o(i.on_compare_evt)
    on_compare_evt                           0x0002bc59   Thumb Code    26  app_timer2.o(i.on_compare_evt)
    i.on_conn_params_evt                     0x0002bc78   Section        0  main_p2cp.o(i.on_conn_params_evt)
    on_conn_params_evt                       0x0002bc79   Thumb Code    38  main_p2cp.o(i.on_conn_params_evt)
    i.on_conn_params_update                  0x0002bca4   Section        0  ble_conn_params.o(i.on_conn_params_update)
    on_conn_params_update                    0x0002bca5   Thumb Code    48  ble_conn_params.o(i.on_conn_params_update)
    i.on_connect                             0x0002bcd4   Section        0  ble_conn_params.o(i.on_connect)
    on_connect                               0x0002bcd5   Thumb Code   102  ble_conn_params.o(i.on_connect)
    i.on_connect                             0x0002bd44   Section        0  ble_nus.o(i.on_connect)
    on_connect                               0x0002bd45   Thumb Code   116  ble_nus.o(i.on_connect)
    i.on_connected                           0x0002bdb8   Section        0  ble_advertising.o(i.on_connected)
    on_connected                             0x0002bdb9   Thumb Code    14  ble_advertising.o(i.on_connected)
    i.on_connected_evt                       0x0002bdc8   Section        0  nrf_ble_gatt.o(i.on_connected_evt)
    on_connected_evt                         0x0002bdc9   Thumb Code   134  nrf_ble_gatt.o(i.on_connected_evt)
    i.on_data_length_update_evt              0x0002be8c   Section        0  nrf_ble_gatt.o(i.on_data_length_update_evt)
    on_data_length_update_evt                0x0002be8d   Thumb Code    78  nrf_ble_gatt.o(i.on_data_length_update_evt)
    i.on_data_length_update_request_evt      0x0002bee0   Section        0  nrf_ble_gatt.o(i.on_data_length_update_request_evt)
    on_data_length_update_request_evt        0x0002bee1   Thumb Code    48  nrf_ble_gatt.o(i.on_data_length_update_request_evt)
    i.on_disconnect                          0x0002bf10   Section        0  ble_conn_params.o(i.on_disconnect)
    on_disconnect                            0x0002bf11   Thumb Code    50  ble_conn_params.o(i.on_disconnect)
    i.on_disconnected                        0x0002bf42   Section        0  ble_advertising.o(i.on_disconnected)
    on_disconnected                          0x0002bf43   Thumb Code    50  ble_advertising.o(i.on_disconnected)
    i.on_disconnected_evt                    0x0002bf74   Section        0  nrf_ble_gatt.o(i.on_disconnected_evt)
    on_disconnected_evt                      0x0002bf75   Thumb Code    20  nrf_ble_gatt.o(i.on_disconnected_evt)
    i.on_exchange_mtu_request_evt            0x0002bf88   Section        0  nrf_ble_gatt.o(i.on_exchange_mtu_request_evt)
    on_exchange_mtu_request_evt              0x0002bf89   Thumb Code   138  nrf_ble_gatt.o(i.on_exchange_mtu_request_evt)
    i.on_exchange_mtu_rsp_evt                0x0002c050   Section        0  nrf_ble_gatt.o(i.on_exchange_mtu_rsp_evt)
    on_exchange_mtu_rsp_evt                  0x0002c051   Thumb Code    94  nrf_ble_gatt.o(i.on_exchange_mtu_rsp_evt)
    i.on_hvx_tx_complete                     0x0002c0b4   Section        0  ble_nus.o(i.on_hvx_tx_complete)
    on_hvx_tx_complete                       0x0002c0b5   Thumb Code    72  ble_nus.o(i.on_hvx_tx_complete)
    i.on_overflow_evt                        0x0002c0fc   Section        0  app_timer2.o(i.on_overflow_evt)
    on_overflow_evt                          0x0002c0fd   Thumb Code    24  app_timer2.o(i.on_overflow_evt)
    i.on_rw_authorize_request                0x0002c118   Section        0  nrf_ble_qwr.o(i.on_rw_authorize_request)
    on_rw_authorize_request                  0x0002c119   Thumb Code   106  nrf_ble_qwr.o(i.on_rw_authorize_request)
    i.on_terminated                          0x0002c182   Section        0  ble_advertising.o(i.on_terminated)
    on_terminated                            0x0002c183   Thumb Code    64  ble_advertising.o(i.on_terminated)
    i.on_user_mem_release                    0x0002c1c2   Section        0  nrf_ble_qwr.o(i.on_user_mem_release)
    on_user_mem_release                      0x0002c1c3   Thumb Code     2  nrf_ble_qwr.o(i.on_user_mem_release)
    i.on_user_mem_request                    0x0002c1c4   Section        0  nrf_ble_qwr.o(i.on_user_mem_request)
    on_user_mem_request                      0x0002c1c5   Thumb Code    32  nrf_ble_qwr.o(i.on_user_mem_request)
    i.on_write                               0x0002c1e4   Section        0  ble_conn_params.o(i.on_write)
    on_write                                 0x0002c1e5   Thumb Code    82  ble_conn_params.o(i.on_write)
    i.on_write                               0x0002c23c   Section        0  ble_nus.o(i.on_write)
    on_write                                 0x0002c23d   Thumb Code   148  ble_nus.o(i.on_write)
    i.phy_is_valid                           0x0002c2d0   Section        0  ble_advertising.o(i.phy_is_valid)
    phy_is_valid                             0x0002c2d1   Thumb Code    22  ble_advertising.o(i.phy_is_valid)
    i.port_event_handle                      0x0002c2e8   Section        0  nrfx_gpiote.o(i.port_event_handle)
    port_event_handle                        0x0002c2e9   Thumb Code   186  nrfx_gpiote.o(i.port_event_handle)
    i.port_handler_pin_get                   0x0002c3a8   Section        0  nrfx_gpiote.o(i.port_handler_pin_get)
    port_handler_pin_get                     0x0002c3a9   Thumb Code    12  nrfx_gpiote.o(i.port_handler_pin_get)
    i.port_handler_polarity_get              0x0002c3b8   Section        0  nrfx_gpiote.o(i.port_handler_polarity_get)
    port_handler_polarity_get                0x0002c3b9   Thumb Code    10  nrfx_gpiote.o(i.port_handler_polarity_get)
    i.postfix_process                        0x0002c3c8   Section        0  nrf_log_str_formatter.o(i.postfix_process)
    postfix_process                          0x0002c3c9   Thumb Code    58  nrf_log_str_formatter.o(i.postfix_process)
    i.power_management_init                  0x0002c410   Section        0  main_p2cp.o(i.power_management_init)
    power_management_init                    0x0002c411   Thumb Code    28  main_p2cp.o(i.power_management_init)
    i.prefix_process                         0x0002c42c   Section        0  nrf_log_str_formatter.o(i.prefix_process)
    prefix_process                           0x0002c42d   Thumb Code    98  nrf_log_str_formatter.o(i.prefix_process)
    i.prs_box_get                            0x0002c4d0   Section        0  nrfx_prs.o(i.prs_box_get)
    prs_box_get                              0x0002c4d1   Thumb Code    16  nrfx_prs.o(i.prs_box_get)
    i.ram_end_address_get                    0x0002c4e8   Section        0  nrf_sdh_ble.o(i.ram_end_address_get)
    ram_end_address_get                      0x0002c4e9   Thumb Code    12  nrf_sdh_ble.o(i.ram_end_address_get)
    i.record_activate                        0x0002c4f8   Section        0  ble_conn_state.o(i.record_activate)
    record_activate                          0x0002c4f9   Thumb Code    34  ble_conn_state.o(i.record_activate)
    i.record_invalidate                      0x0002c520   Section        0  ble_conn_state.o(i.record_invalidate)
    record_invalidate                        0x0002c521   Thumb Code    28  ble_conn_state.o(i.record_invalidate)
    i.record_purge_disconnected              0x0002c540   Section        0  ble_conn_state.o(i.record_purge_disconnected)
    record_purge_disconnected                0x0002c541   Thumb Code    66  ble_conn_state.o(i.record_purge_disconnected)
    i.record_set_disconnected                0x0002c588   Section        0  ble_conn_state.o(i.record_set_disconnected)
    record_set_disconnected                  0x0002c589   Thumb Code    14  ble_conn_state.o(i.record_set_disconnected)
    i.rtc_irq                                0x0002c59c   Section        0  app_timer2.o(i.rtc_irq)
    rtc_irq                                  0x0002c59d   Thumb Code    62  app_timer2.o(i.rtc_irq)
    i.rtc_schedule                           0x0002c5dc   Section        0  app_timer2.o(i.rtc_schedule)
    rtc_schedule                             0x0002c5dd   Thumb Code   116  app_timer2.o(i.rtc_schedule)
    i.rtc_update                             0x0002c658   Section        0  app_timer2.o(i.rtc_update)
    rtc_update                               0x0002c659   Thumb Code   154  app_timer2.o(i.rtc_update)
    i.rx_byte                                0x0002c6fc   Section        0  nrfx_uart.o(i.rx_byte)
    rx_byte                                  0x0002c6fd   Thumb Code    62  nrfx_uart.o(i.rx_byte)
    i.rx_done_event                          0x0002c73a   Section        0  nrfx_uart.o(i.rx_done_event)
    rx_done_event                            0x0002c73b   Thumb Code    28  nrfx_uart.o(i.rx_done_event)
    i.rx_done_event                          0x0002c756   Section        0  nrfx_uarte.o(i.rx_done_event)
    rx_done_event                            0x0002c757   Thumb Code    28  nrfx_uarte.o(i.rx_done_event)
    i.rx_enable                              0x0002c772   Section        0  nrfx_uart.o(i.rx_enable)
    rx_enable                                0x0002c773   Thumb Code    34  nrfx_uart.o(i.rx_enable)
    i.sd_nvic_EnableIRQ                      0x0002c794   Section        0  nrf_sdh.o(i.sd_nvic_EnableIRQ)
    sd_nvic_EnableIRQ                        0x0002c795   Thumb Code   150  nrf_sdh.o(i.sd_nvic_EnableIRQ)
    i.sd_nvic_critical_region_enter          0x0002c838   Section        0  app_util_platform.o(i.sd_nvic_critical_region_enter)
    sd_nvic_critical_region_enter            0x0002c839   Thumb Code    90  app_util_platform.o(i.sd_nvic_critical_region_enter)
    i.sd_state_evt_handler                   0x0002c8a0   Section        0  nrf_drv_clock.o(i.sd_state_evt_handler)
    sd_state_evt_handler                     0x0002c8a1   Thumb Code   136  nrf_drv_clock.o(i.sd_state_evt_handler)
    i.sdh_request_observer_notify            0x0002c930   Section        0  nrf_sdh.o(i.sdh_request_observer_notify)
    sdh_request_observer_notify              0x0002c931   Thumb Code    56  nrf_sdh.o(i.sdh_request_observer_notify)
    i.sdh_state_observer_notify              0x0002c96c   Section        0  nrf_sdh.o(i.sdh_state_observer_notify)
    sdh_state_observer_notify                0x0002c96d   Thumb Code    48  nrf_sdh.o(i.sdh_state_observer_notify)
    i.send_error_evt                         0x0002c9a0   Section        0  ble_conn_params.o(i.send_error_evt)
    send_error_evt                           0x0002c9a1   Thumb Code    20  ble_conn_params.o(i.send_error_evt)
    i.send_update_request                    0x0002c9b8   Section        0  ble_conn_params.o(i.send_update_request)
    send_update_request                      0x0002c9b9   Thumb Code    36  ble_conn_params.o(i.send_update_request)
    i.serial_tx                              0x0002c9dc   Section        0  nrf_log_backend_rtt.o(i.serial_tx)
    serial_tx                                0x0002c9dd   Thumb Code   124  nrf_log_backend_rtt.o(i.serial_tx)
    i.service_data_encode                    0x0002ca60   Section        0  ble_advdata.o(i.service_data_encode)
    service_data_encode                      0x0002ca61   Thumb Code   150  ble_advdata.o(i.service_data_encode)
    i.services_init                          0x0002caf8   Section        0  main_p2cp.o(i.services_init)
    services_init                            0x0002caf9   Thumb Code    76  main_p2cp.o(i.services_init)
    i.set_adv_mode_directed                  0x0002cb54   Section        0  ble_advertising.o(i.set_adv_mode_directed)
    set_adv_mode_directed                    0x0002cb55   Thumb Code    48  ble_advertising.o(i.set_adv_mode_directed)
    i.set_adv_mode_directed_high_duty        0x0002cb84   Section        0  ble_advertising.o(i.set_adv_mode_directed_high_duty)
    set_adv_mode_directed_high_duty          0x0002cb85   Thumb Code    36  ble_advertising.o(i.set_adv_mode_directed_high_duty)
    i.set_adv_mode_fast                      0x0002cba8   Section        0  ble_advertising.o(i.set_adv_mode_fast)
    set_adv_mode_fast                        0x0002cba9   Thumb Code    92  ble_advertising.o(i.set_adv_mode_fast)
    i.set_adv_mode_slow                      0x0002cc04   Section        0  ble_advertising.o(i.set_adv_mode_slow)
    set_adv_mode_slow                        0x0002cc05   Thumb Code    92  ble_advertising.o(i.set_adv_mode_slow)
    i.set_security_req                       0x0002cc60   Section        0  ble_srv_common.o(i.set_security_req)
    set_security_req                         0x0002cc61   Thumb Code   190  ble_srv_common.o(i.set_security_req)
    i.sleep_mode_enter                       0x0002cd1e   Section        0  main_p2cp.o(i.sleep_mode_enter)
    sleep_mode_enter                         0x0002cd1f   Thumb Code    76  main_p2cp.o(i.sleep_mode_enter)
    i.soc_evt_handler                        0x0002cd6c   Section        0  nrf_drv_clock.o(i.soc_evt_handler)
    soc_evt_handler                          0x0002cd6d   Thumb Code    22  nrf_drv_clock.o(i.soc_evt_handler)
    i.softdevices_evt_irq_enable             0x0002cd88   Section        0  nrf_sdh.o(i.softdevices_evt_irq_enable)
    softdevices_evt_irq_enable               0x0002cd89   Thumb Code    30  nrf_sdh.o(i.softdevices_evt_irq_enable)
    i.sorted_list_stop_all                   0x0002cda6   Section        0  app_timer2.o(i.sorted_list_stop_all)
    sorted_list_stop_all                     0x0002cda7   Thumb Code    20  app_timer2.o(i.sorted_list_stop_all)
    i.sortlist_pop                           0x0002cdbc   Section        0  app_timer2.o(i.sortlist_pop)
    sortlist_pop                             0x0002cdbd   Thumb Code    20  app_timer2.o(i.sortlist_pop)
    i.std_header_set                         0x0002cdd4   Section        0  nrf_log_frontend.o(i.std_header_set)
    std_header_set                           0x0002cdd5   Thumb Code    96  nrf_log_frontend.o(i.std_header_set)
    i.std_n                                  0x0002ce38   Section        0  nrf_log_frontend.o(i.std_n)
    std_n                                    0x0002ce39   Thumb Code   104  nrf_log_frontend.o(i.std_n)
    i.string_print                           0x0002cea8   Section        0  nrf_fprintf_format.o(i.string_print)
    string_print                             0x0002cea9   Thumb Code   116  nrf_fprintf_format.o(i.string_print)
    i.ticks_sub                              0x0002cf1c   Section        0  drv_rtc.o(i.ticks_sub)
    ticks_sub                                0x0002cf1d   Thumb Code    10  drv_rtc.o(i.ticks_sub)
    i.timer_expire                           0x0002cf28   Section        0  app_timer2.o(i.timer_expire)
    timer_expire                             0x0002cf29   Thumb Code    98  app_timer2.o(i.timer_expire)
    i.timer_req_process                      0x0002cf94   Section        0  app_timer2.o(i.timer_req_process)
    timer_req_process                        0x0002cf95   Thumb Code   130  app_timer2.o(i.timer_req_process)
    i.timer_req_schedule                     0x0002d028   Section        0  app_timer2.o(i.timer_req_schedule)
    timer_req_schedule                       0x0002d029   Thumb Code    56  app_timer2.o(i.timer_req_schedule)
    i.timers_init                            0x0002d068   Section        0  main_p2cp.o(i.timers_init)
    timers_init                              0x0002d069   Thumb Code    28  main_p2cp.o(i.timers_init)
    i.timestamp_print                        0x0002d084   Section        0  nrf_log_str_formatter.o(i.timestamp_print)
    timestamp_print                          0x0002d085   Thumb Code     2  nrf_log_str_formatter.o(i.timestamp_print)
    i.tx_blocking                            0x0002d086   Section        0  nrfx_uart.o(i.tx_blocking)
    tx_blocking                              0x0002d087   Thumb Code    54  nrfx_uart.o(i.tx_blocking)
    i.tx_byte                                0x0002d0bc   Section        0  nrfx_uart.o(i.tx_byte)
    tx_byte                                  0x0002d0bd   Thumb Code    38  nrfx_uart.o(i.tx_byte)
    i.tx_done_event                          0x0002d0e2   Section        0  nrfx_uart.o(i.tx_done_event)
    tx_done_event                            0x0002d0e3   Thumb Code    32  nrfx_uart.o(i.tx_done_event)
    i.tx_done_event                          0x0002d102   Section        0  nrfx_uarte.o(i.tx_done_event)
    tx_done_event                            0x0002d103   Thumb Code    32  nrfx_uarte.o(i.tx_done_event)
    i.tx_power_level_encode                  0x0002d122   Section        0  ble_advdata.o(i.tx_power_level_encode)
    tx_power_level_encode                    0x0002d123   Thumb Code    54  ble_advdata.o(i.tx_power_level_encode)
    i.uart_event_handle                      0x0002d158   Section        0  main_p2cp.o(i.uart_event_handle)
    i.uart_event_handler                     0x0002d224   Section        0  app_uart_fifo.o(i.uart_event_handler)
    uart_event_handler                       0x0002d225   Thumb Code   200  app_uart_fifo.o(i.uart_event_handler)
    i.uart_evt_handler                       0x0002d308   Section        0  nrf_drv_uart.o(i.uart_evt_handler)
    uart_evt_handler                         0x0002d309   Thumb Code    46  nrf_drv_uart.o(i.uart_evt_handler)
    i.uart_init                              0x0002d340   Section        0  main_p2cp.o(i.uart_init)
    uart_init                                0x0002d341   Thumb Code    74  main_p2cp.o(i.uart_init)
    i.uart_irq_handler                       0x0002d39c   Section        0  nrfx_uart.o(i.uart_irq_handler)
    uart_irq_handler                         0x0002d39d   Thumb Code   334  nrfx_uart.o(i.uart_irq_handler)
    i.uarte_evt_handler                      0x0002d4ec   Section        0  nrf_drv_uart.o(i.uarte_evt_handler)
    uarte_evt_handler                        0x0002d4ed   Thumb Code    46  nrf_drv_uart.o(i.uarte_evt_handler)
    i.uarte_irq_handler                      0x0002d524   Section        0  nrfx_uarte.o(i.uarte_irq_handler)
    uarte_irq_handler                        0x0002d525   Thumb Code   308  nrfx_uarte.o(i.uarte_irq_handler)
    i.uint16_decode                          0x0002d658   Section        0  ble_srv_common.o(i.uint16_decode)
    uint16_decode                            0x0002d659   Thumb Code    12  ble_srv_common.o(i.uint16_decode)
    i.uint16_encode                          0x0002d664   Section        0  ble_advdata.o(i.uint16_encode)
    uint16_encode                            0x0002d665   Thumb Code    12  ble_advdata.o(i.uint16_encode)
    i.unsigned_print                         0x0002d670   Section        0  nrf_fprintf_format.o(i.unsigned_print)
    unsigned_print                           0x0002d671   Thumb Code   178  nrf_fprintf_format.o(i.unsigned_print)
    i.update_timeout_handler                 0x0002d728   Section        0  ble_conn_params.o(i.update_timeout_handler)
    update_timeout_handler                   0x0002d729   Thumb Code   110  ble_conn_params.o(i.update_timeout_handler)
    i.use_whitelist                          0x0002d79c   Section        0  ble_advertising.o(i.use_whitelist)
    use_whitelist                            0x0002d79d   Thumb Code    30  ble_advertising.o(i.use_whitelist)
    i.user_mem_reply                         0x0002d7ba   Section        0  nrf_ble_qwr.o(i.user_mem_reply)
    user_mem_reply                           0x0002d7bb   Thumb Code    44  nrf_ble_qwr.o(i.user_mem_reply)
    i.uuid_list_encode                       0x0002d7e6   Section        0  ble_advdata.o(i.uuid_list_encode)
    uuid_list_encode                         0x0002d7e7   Thumb Code    78  ble_advdata.o(i.uuid_list_encode)
    i.uuid_list_sized_encode                 0x0002d834   Section        0  ble_advdata.o(i.uuid_list_sized_encode)
    uuid_list_sized_encode                   0x0002d835   Thumb Code   214  ble_advdata.o(i.uuid_list_sized_encode)
    i.wakeup_button_cfg                      0x0002d90a   Section        0  bsp.o(i.wakeup_button_cfg)
    wakeup_button_cfg                        0x0002d90b   Thumb Code    86  bsp.o(i.wakeup_button_cfg)
    i.whitelist_has_entries                  0x0002d960   Section        0  ble_advertising.o(i.whitelist_has_entries)
    whitelist_has_entries                    0x0002d961   Thumb Code     8  ble_advertising.o(i.whitelist_has_entries)
    .constdata                               0x0002d970   Section       32  main_p2cp.o(.constdata)
    delay_machine_code                       0x0002d970   Data           6  main_p2cp.o(.constdata)
    .constdata                               0x0002d990   Section        8  boards.o(.constdata)
    m_board_led_list                         0x0002d990   Data           4  boards.o(.constdata)
    m_board_btn_list                         0x0002d994   Data           4  boards.o(.constdata)
    .constdata                               0x0002d998   Section       44  bsp.o(.constdata)
    m_bsp_leds_tmr                           0x0002d998   Data           4  bsp.o(.constdata)
    m_bsp_alert_tmr                          0x0002d99c   Data           4  bsp.o(.constdata)
    m_bsp_button_tmr                         0x0002d9a0   Data           4  bsp.o(.constdata)
    app_buttons                              0x0002d9a4   Data          32  bsp.o(.constdata)
    .constdata                               0x0002d9c4   Section       22  nrf_ble_gatt.o(.constdata)
    .constdata                               0x0002d9dc   Section       16  ble_nus.o(.constdata)
    .constdata                               0x0002d9ec   Section       62  nrfx_gpiote.o(.constdata)
    __func__                                 0x0002d9f0   Data          17  nrfx_gpiote.o(.constdata)
    __func__                                 0x0002da01   Data          21  nrfx_gpiote.o(.constdata)
    __func__                                 0x0002da16   Data          20  nrfx_gpiote.o(.constdata)
    .constdata                               0x0002da2c   Section       46  nrfx_uart.o(.constdata)
    __func__                                 0x0002da2c   Data          15  nrfx_uart.o(.constdata)
    irq_handlers                             0x0002da3c   Data           4  nrfx_uart.o(.constdata)
    __func__                                 0x0002da40   Data          13  nrfx_uart.o(.constdata)
    __func__                                 0x0002da4d   Data          13  nrfx_uart.o(.constdata)
    .constdata                               0x0002da5c   Section       48  nrfx_uarte.o(.constdata)
    __func__                                 0x0002da5c   Data          16  nrfx_uarte.o(.constdata)
    irq_handlers                             0x0002da6c   Data           4  nrfx_uarte.o(.constdata)
    __func__                                 0x0002da70   Data          14  nrfx_uarte.o(.constdata)
    __func__                                 0x0002da7e   Data          14  nrfx_uarte.o(.constdata)
    .constdata                               0x0002da8c   Section       20  app_timer2.o(.constdata)
    m_req_fifo                               0x0002da8c   Data           4  app_timer2.o(.constdata)
    m_app_timer_sortlist                     0x0002da90   Data          12  app_timer2.o(.constdata)
    .constdata                               0x0002daa0   Section       32  app_uart_fifo.o(.constdata)
    .constdata                               0x0002dac0   Section        6  drv_rtc.o(.constdata)
    delay_machine_code                       0x0002dac0   Data           6  drv_rtc.o(.constdata)
    .constdata                               0x0002dac6   Section       16  nrf_fprintf_format.o(.constdata)
    _aV2C                                    0x0002dac6   Data          16  nrf_fprintf_format.o(.constdata)
    .constdata                               0x0002dad8   Section       36  nrf_pwr_mgmt.o(.constdata)
    pwr_mgmt_data_array                      0x0002dad8   Data          24  nrf_pwr_mgmt.o(.constdata)
    pwr_mgmt_data                            0x0002daf0   Data          12  nrf_pwr_mgmt.o(.constdata)
    .constdata                               0x0002dafc   Section      316  nrf_strerror.o(.constdata)
    m_unknown_str                            0x0002dafc   Data          19  nrf_strerror.o(.constdata)
    nrf_strerror_array                       0x0002db10   Data         296  nrf_strerror.o(.constdata)
    .constdata                               0x0002dc40   Section       22  nrf_log_backend_rtt.o(.constdata)
    delay_machine_code                       0x0002dc50   Data           6  nrf_log_backend_rtt.o(.constdata)
    .constdata                               0x0002dc58   Section       12  nrf_log_frontend.o(.constdata)
    m_log_push_ringbuf                       0x0002dc58   Data          12  nrf_log_frontend.o(.constdata)
    .constdata                               0x0002dc64   Section       88  nrf_sdh.o(.constdata)
    sdh_req_observers_array                  0x0002dc64   Data          16  nrf_sdh.o(.constdata)
    sdh_req_observers                        0x0002dc74   Data          12  nrf_sdh.o(.constdata)
    sdh_state_observers_array                0x0002dc80   Data          16  nrf_sdh.o(.constdata)
    sdh_state_observers                      0x0002dc90   Data          12  nrf_sdh.o(.constdata)
    sdh_stack_observers_array                0x0002dc9c   Data          16  nrf_sdh.o(.constdata)
    sdh_stack_observers                      0x0002dcac   Data          12  nrf_sdh.o(.constdata)
    .constdata                               0x0002dcbc   Section       48  nrf_sdh_ble.o(.constdata)
    sdh_ble_observers_array                  0x0002dcbc   Data          32  nrf_sdh_ble.o(.constdata)
    sdh_ble_observers                        0x0002dcdc   Data          12  nrf_sdh_ble.o(.constdata)
    .constdata                               0x0002dcec   Section       28  nrf_sdh_soc.o(.constdata)
    sdh_soc_observers_array                  0x0002dcec   Data          16  nrf_sdh_soc.o(.constdata)
    sdh_soc_observers                        0x0002dcfc   Data          12  nrf_sdh_soc.o(.constdata)
    .constdata                               0x0002dd08   Section      129  ctype_o.o(.constdata)
    .constdata                               0x0002dd8c   Section        4  ctype_o.o(.constdata)
    table                                    0x0002dd8c   Data           4  ctype_o.o(.constdata)
    .conststring                             0x0002dd90   Section      162  nrf_ble_gatt.o(.conststring)
    .conststring                             0x0002de34   Section     1003  nrf_strerror.o(.conststring)
    .conststring                             0x0002e220   Section      102  nrf_log_str_formatter.o(.conststring)
    .conststring                             0x0002e288   Section      463  nrf_sdh_ble.o(.conststring)
    .conststrlit                             0x0002e458   Section       13  nrf_ble_gatt.o(.conststrlit)
    .conststrlit                             0x0002e468   Section        8  ble_nus.o(.conststrlit)
    .conststrlit                             0x0002e470   Section        6  nrf_drv_clock.o(.conststrlit)
    .conststrlit                             0x0002e478   Section        6  nrfx_clock.o(.conststrlit)
    .conststrlit                             0x0002e480   Section        7  nrfx_gpiote.o(.conststrlit)
    .conststrlit                             0x0002e488   Section        4  nrfx_prs.o(.conststrlit)
    .conststrlit                             0x0002e48c   Section        5  nrfx_uart.o(.conststrlit)
    .conststrlit                             0x0002e494   Section        6  nrfx_uarte.o(.conststrlit)
    .conststrlit                             0x0002e49c   Section       11  app_button.o(.conststrlit)
    .conststrlit                             0x0002e4a8   Section       10  app_timer2.o(.conststrlit)
    .conststrlit                             0x0002e4b4   Section        9  nrf_pwr_mgmt.o(.conststrlit)
    .conststrlit                             0x0002e4c0   Section        9  nrf_sortlist.o(.conststrlit)
    .conststrlit                             0x0002e4cc   Section       16  nrf_log_default_backends.o(.conststrlit)
    .conststrlit                             0x0002e4dc   Section        4  nrf_log_frontend.o(.conststrlit)
    .conststrlit                             0x0002e4e0   Section        8  nrf_sdh.o(.conststrlit)
    .conststrlit                             0x0002e4e8   Section       12  nrf_sdh_ble.o(.conststrlit)
    .conststrlit                             0x0002e4f4   Section       12  nrf_sdh_soc.o(.conststrlit)
    log_backends                             0x0002e520   Section       16  nrf_log_default_backends.o(log_backends)
    __tagsym$$used                           0x0002e520   Number         0  nrf_log_default_backends.o(log_backends)
    rtt_log_backend                          0x0002e520   Data          16  nrf_log_default_backends.o(log_backends)
    log_const_data                           0x0002e530   Section        8  nrf_ble_gatt.o(log_const_data)
    __tagsym$$used                           0x0002e530   Number         0  nrf_ble_gatt.o(log_const_data)
    log_const_data                           0x0002e538   Section        8  ble_nus.o(log_const_data)
    __tagsym$$used                           0x0002e538   Number         0  ble_nus.o(log_const_data)
    log_const_data                           0x0002e540   Section        8  nrf_drv_clock.o(log_const_data)
    __tagsym$$used                           0x0002e540   Number         0  nrf_drv_clock.o(log_const_data)
    log_const_data                           0x0002e548   Section        8  nrfx_clock.o(log_const_data)
    __tagsym$$used                           0x0002e548   Number         0  nrfx_clock.o(log_const_data)
    log_const_data                           0x0002e550   Section        8  nrfx_gpiote.o(log_const_data)
    __tagsym$$used                           0x0002e550   Number         0  nrfx_gpiote.o(log_const_data)
    log_const_data                           0x0002e558   Section        8  nrfx_prs.o(log_const_data)
    __tagsym$$used                           0x0002e558   Number         0  nrfx_prs.o(log_const_data)
    log_const_data                           0x0002e560   Section        8  nrfx_uart.o(log_const_data)
    __tagsym$$used                           0x0002e560   Number         0  nrfx_uart.o(log_const_data)
    log_const_data                           0x0002e568   Section        8  nrfx_uarte.o(log_const_data)
    __tagsym$$used                           0x0002e568   Number         0  nrfx_uarte.o(log_const_data)
    log_const_data                           0x0002e570   Section        8  app_button.o(log_const_data)
    __tagsym$$used                           0x0002e570   Number         0  app_button.o(log_const_data)
    log_const_data                           0x0002e578   Section        8  app_timer2.o(log_const_data)
    __tagsym$$used                           0x0002e578   Number         0  app_timer2.o(log_const_data)
    log_const_data                           0x0002e580   Section        8  nrf_pwr_mgmt.o(log_const_data)
    __tagsym$$used                           0x0002e580   Number         0  nrf_pwr_mgmt.o(log_const_data)
    log_const_data                           0x0002e588   Section        8  nrf_sortlist.o(log_const_data)
    __tagsym$$used                           0x0002e588   Number         0  nrf_sortlist.o(log_const_data)
    log_const_data                           0x0002e590   Section        8  nrf_log_frontend.o(log_const_data)
    __tagsym$$used                           0x0002e590   Number         0  nrf_log_frontend.o(log_const_data)
    log_const_data                           0x0002e598   Section        8  nrf_sdh.o(log_const_data)
    __tagsym$$used                           0x0002e598   Number         0  nrf_sdh.o(log_const_data)
    log_const_data                           0x0002e5a0   Section        8  nrf_sdh_ble.o(log_const_data)
    __tagsym$$used                           0x0002e5a0   Number         0  nrf_sdh_ble.o(log_const_data)
    log_const_data                           0x0002e5a8   Section        8  nrf_sdh_soc.o(log_const_data)
    __tagsym$$used                           0x0002e5a8   Number         0  nrf_sdh_soc.o(log_const_data)
    nrf_balloc                               0x0002e5b0   Section       20  nrf_log_frontend.o(nrf_balloc)
    __tagsym$$used                           0x0002e5b0   Number         0  nrf_log_frontend.o(nrf_balloc)
    sdh_ble_observers0                       0x0002e5c4   Section        8  ble_conn_state.o(sdh_ble_observers0)
    __tagsym$$used                           0x0002e5c4   Number         0  ble_conn_state.o(sdh_ble_observers0)
    m_ble_evt_observer                       0x0002e5c4   Data           8  ble_conn_state.o(sdh_ble_observers0)
    sdh_ble_observers1                       0x0002e5cc   Section       16  main_p2cp.o(sdh_ble_observers1)
    __tagsym$$used                           0x0002e5cc   Number         0  main_p2cp.o(sdh_ble_observers1)
    m_gatt_obs                               0x0002e5cc   Data           8  main_p2cp.o(sdh_ble_observers1)
    __tagsym$$used                           0x0002e5d4   Number         0  main_p2cp.o(sdh_ble_observers1)
    m_advertising_ble_obs                    0x0002e5d4   Data           8  main_p2cp.o(sdh_ble_observers1)
    sdh_ble_observers1                       0x0002e5dc   Section        8  bsp_btn_ble.o(sdh_ble_observers1)
    __tagsym$$used                           0x0002e5dc   Number         0  bsp_btn_ble.o(sdh_ble_observers1)
    m_ble_observer                           0x0002e5dc   Data           8  bsp_btn_ble.o(sdh_ble_observers1)
    sdh_ble_observers1                       0x0002e5e4   Section        8  ble_conn_params.o(sdh_ble_observers1)
    __tagsym$$used                           0x0002e5e4   Number         0  ble_conn_params.o(sdh_ble_observers1)
    m_ble_observer                           0x0002e5e4   Data           8  ble_conn_params.o(sdh_ble_observers1)
    sdh_ble_observers2                       0x0002e5ec   Section       16  main_p2cp.o(sdh_ble_observers2)
    __tagsym$$used                           0x0002e5ec   Number         0  main_p2cp.o(sdh_ble_observers2)
    m_nus_obs                                0x0002e5ec   Data           8  main_p2cp.o(sdh_ble_observers2)
    __tagsym$$used                           0x0002e5f4   Number         0  main_p2cp.o(sdh_ble_observers2)
    m_qwr_obs                                0x0002e5f4   Data           8  main_p2cp.o(sdh_ble_observers2)
    sdh_ble_observers3                       0x0002e5fc   Section        8  main_p2cp.o(sdh_ble_observers3)
    __tagsym$$used                           0x0002e5fc   Number         0  main_p2cp.o(sdh_ble_observers3)
    m_ble_observer                           0x0002e5fc   Data           8  main_p2cp.o(sdh_ble_observers3)
    sdh_soc_observers0                       0x0002e604   Section        8  nrf_drv_clock.o(sdh_soc_observers0)
    __tagsym$$used                           0x0002e604   Number         0  nrf_drv_clock.o(sdh_soc_observers0)
    m_soc_evt_observer                       0x0002e604   Data           8  nrf_drv_clock.o(sdh_soc_observers0)
    sdh_stack_observers0                     0x0002e60c   Section        8  nrf_sdh_ble.o(sdh_stack_observers0)
    __tagsym$$used                           0x0002e60c   Number         0  nrf_sdh_ble.o(sdh_stack_observers0)
    m_nrf_sdh_ble_evts_poll                  0x0002e60c   Data           8  nrf_sdh_ble.o(sdh_stack_observers0)
    sdh_stack_observers0                     0x0002e614   Section        8  nrf_sdh_soc.o(sdh_stack_observers0)
    __tagsym$$used                           0x0002e614   Number         0  nrf_sdh_soc.o(sdh_stack_observers0)
    m_nrf_sdh_soc_evts_poll                  0x0002e614   Data           8  nrf_sdh_soc.o(sdh_stack_observers0)
    sdh_state_observers0                     0x0002e61c   Section        8  nrf_drv_clock.o(sdh_state_observers0)
    __tagsym$$used                           0x0002e61c   Number         0  nrf_drv_clock.o(sdh_state_observers0)
    m_sd_state_observer                      0x0002e61c   Data           8  nrf_drv_clock.o(sdh_state_observers0)
    .data                                    0x20003268   Section       49  main_p2cp.o(.data)
    m_nus_link_ctx_storage_ctx_data_pool     0x20003268   Data           4  main_p2cp.o(.data)
    m_nus_link_ctx_storage                   0x2000326c   Data           8  main_p2cp.o(.data)
    m_nus                                    0x20003274   Data          28  main_p2cp.o(.data)
    m_conn_handle                            0x20003290   Data           2  main_p2cp.o(.data)
    m_ble_nus_max_data_len                   0x20003292   Data           2  main_p2cp.o(.data)
    m_adv_uuids                              0x20003294   Data           4  main_p2cp.o(.data)
    index                                    0x20003298   Data           1  main_p2cp.o(.data)
    .data                                    0x2000329c   Section       21  bsp.o(.data)
    m_stable_state                           0x2000329c   Data           1  bsp.o(.data)
    m_leds_clear                             0x2000329d   Data           1  bsp.o(.data)
    m_indication_type                        0x200032a0   Data           4  bsp.o(.data)
    m_alert_on                               0x200032a4   Data           1  bsp.o(.data)
    m_registered_callback                    0x200032a8   Data           4  bsp.o(.data)
    current_long_push_pin_no                 0x200032ac   Data           1  bsp.o(.data)
    release_event_at_push                    0x200032ad   Data           4  bsp.o(.data)
    .data                                    0x200032b4   Section        8  bsp_btn_ble.o(.data)
    m_error_handler                          0x200032b4   Data           4  bsp_btn_ble.o(.data)
    m_num_connections                        0x200032b8   Data           4  bsp_btn_ble.o(.data)
    .data                                    0x200032bc   Section        8  ble_conn_params.o(.data)
    m_preferred_conn_params                  0x200032bc   Data           8  ble_conn_params.o(.data)
    .data                                    0x200032c4   Section        9  nrf_drv_uart.o(.data)
    m_handlers                               0x200032c4   Data           4  nrf_drv_uart.o(.data)
    m_contexts                               0x200032c8   Data           4  nrf_drv_uart.o(.data)
    .data                                    0x200032d0   Section        8  nrfx_clock.o(.data)
    m_clock_cb                               0x200032d0   Data           8  nrfx_clock.o(.data)
    .data                                    0x200032d8   Section        8  nrfx_prs.o(.data)
    m_prs_box_2                              0x200032d8   Data           8  nrfx_prs.o(.data)
    .data                                    0x200032e0   Section       36  app_timer2.o(.data)
    m_rtc_inst                               0x200032e0   Data           8  app_timer2.o(.data)
    mp_active_timer                          0x200032e8   Data           4  app_timer2.o(.data)
    m_global_active                          0x200032ec   Data           1  app_timer2.o(.data)
    m_base_counter                           0x200032f0   Data           8  app_timer2.o(.data)
    m_stamp64                                0x200032f8   Data           8  app_timer2.o(.data)
    m_app_timer_sortlist_sortlist_cb         0x20003300   Data           4  app_timer2.o(.data)
    .data                                    0x20003304   Section       27  app_uart_fifo.o(.data)
    app_uart_inst                            0x20003304   Data          20  app_uart_fifo.o(.data)
    m_event_handler                          0x20003318   Data           4  app_uart_fifo.o(.data)
    tx_buffer                                0x2000331c   Data           1  app_uart_fifo.o(.data)
    rx_buffer                                0x2000331d   Data           1  app_uart_fifo.o(.data)
    m_rx_ovf                                 0x2000331e   Data           1  app_uart_fifo.o(.data)
    .data                                    0x20003320   Section       12  drv_rtc.o(.data)
    m_handlers                               0x20003320   Data           4  drv_rtc.o(.data)
    m_cb                                     0x20003324   Data           8  drv_rtc.o(.data)
    .data                                    0x2000332c   Section        9  nrf_pwr_mgmt.o(.data)
    m_pwr_mgmt_evt                           0x2000332c   Data           1  nrf_pwr_mgmt.o(.data)
    m_sysoff_mtx                             0x20003330   Data           4  nrf_pwr_mgmt.o(.data)
    m_shutdown_started                       0x20003334   Data           1  nrf_pwr_mgmt.o(.data)
    .data                                    0x20003338   Section        8  retarget.o(.data)
    .data                                    0x20003340   Section        1  nrf_log_backend_rtt.o(.data)
    m_host_present                           0x20003340   Data           1  nrf_log_backend_rtt.o(.data)
    .data                                    0x20003344   Section        8  nrf_log_default_backends.o(.data)
    log_backend_cb_rtt_log_backend           0x20003344   Data           8  nrf_log_default_backends.o(.data)
    .data                                    0x2000334c   Section       20  nrf_log_frontend.o(.data)
    log_mempool_nrf_balloc_pool_stack        0x2000334c   Data           8  nrf_log_frontend.o(.data)
    log_mempool_nrf_balloc_cb                0x20003354   Data           8  nrf_log_frontend.o(.data)
    m_buffer_mask                            0x2000335c   Data           4  nrf_log_frontend.o(.data)
    .data                                    0x20003360   Section       64  nrf_log_str_formatter.o(.data)
    severity_names                           0x20003360   Data          20  nrf_log_str_formatter.o(.data)
    m_colors                                 0x20003374   Data          36  nrf_log_str_formatter.o(.data)
    m_freq                                   0x20003398   Data           4  nrf_log_str_formatter.o(.data)
    m_timestamp_div                          0x2000339c   Data           4  nrf_log_str_formatter.o(.data)
    .data                                    0x200033a0   Section        3  nrf_sdh.o(.data)
    m_nrf_sdh_enabled                        0x200033a0   Data           1  nrf_sdh.o(.data)
    m_nrf_sdh_suspended                      0x200033a1   Data           1  nrf_sdh.o(.data)
    m_nrf_sdh_continue                       0x200033a2   Data           1  nrf_sdh.o(.data)
    .data                                    0x200033a3   Section        1  nrf_sdh_ble.o(.data)
    m_stack_is_enabled                       0x200033a3   Data           1  nrf_sdh_ble.o(.data)
    .data                                    0x200033a4   Section        4  system_nrf52805.o(.data)
    __tagsym$$used                           0x200033a4   Number         0  system_nrf52805.o(.data)
    .bss                                     0x200033a8   Section     1864  main_p2cp.o(.bss)
    m_gatt                                   0x200033a8   Data          20  main_p2cp.o(.bss)
    m_qwr                                    0x200033bc   Data          12  main_p2cp.o(.bss)
    m_advertising                            0x200033c8   Data        1076  main_p2cp.o(.bss)
    data_array                               0x200037fc   Data         244  main_p2cp.o(.bss)
    rx_buf                                   0x200038f0   Data         256  main_p2cp.o(.bss)
    tx_buf                                   0x200039f0   Data         256  main_p2cp.o(.bss)
    .bss                                     0x20003af0   Section      112  bsp.o(.bss)
    m_bsp_leds_tmr_data                      0x20003af0   Data          32  bsp.o(.bss)
    m_bsp_alert_tmr_data                     0x20003b10   Data          32  bsp.o(.bss)
    m_events_list                            0x20003b30   Data          12  bsp.o(.bss)
    m_bsp_button_tmr_data                    0x20003b40   Data          32  bsp.o(.bss)
    .bss                                     0x20003b60   Section       80  ble_conn_params.o(.bss)
    m_timer_data                             0x20003b60   Data          32  ble_conn_params.o(.bss)
    m_conn_params_instances                  0x20003b80   Data          20  ble_conn_params.o(.bss)
    m_conn_params_config                     0x20003b94   Data          28  ble_conn_params.o(.bss)
    .bss                                     0x20003bb0   Section      124  ble_conn_state.o(.bss)
    m_bcs                                    0x20003bb0   Data         124  ble_conn_state.o(.bss)
    .bss                                     0x20003c2c   Section       20  nrf_drv_clock.o(.bss)
    m_clock_cb                               0x20003c2c   Data          20  nrf_drv_clock.o(.bss)
    .bss                                     0x20003c40   Section       92  nrfx_gpiote.o(.bss)
    m_cb                                     0x20003c40   Data          92  nrfx_gpiote.o(.bss)
    .bss                                     0x20003c9c   Section       44  nrfx_uart.o(.bss)
    m_cb                                     0x20003c9c   Data          44  nrfx_uart.o(.bss)
    .bss                                     0x20003cc8   Section       36  nrfx_uarte.o(.bss)
    m_cb                                     0x20003cc8   Data          36  nrfx_uarte.o(.bss)
    .bss                                     0x20003cec   Section      104  app_timer2.o(.bss)
    m_req_fifo_data                          0x20003cec   Data          88  app_timer2.o(.bss)
    m_req_fifo_inst                          0x20003d44   Data          16  app_timer2.o(.bss)
    .bss                                     0x20003d54   Section       32  app_uart_fifo.o(.bss)
    m_rx_fifo                                0x20003d54   Data          16  app_uart_fifo.o(.bss)
    m_tx_fifo                                0x20003d64   Data          16  app_uart_fifo.o(.bss)
    .bss                                     0x20003d74   Section       12  app_util_platform.o(.bss)
    .bss                                     0x20003d80   Section       12  nrf_pwr_mgmt.o(.bss)
    m_handlers_iter                          0x20003d80   Data          12  nrf_pwr_mgmt.o(.bss)
    .bss                                     0x20003d8c   Section       64  nrf_log_backend_rtt.o(.bss)
    m_string_buff                            0x20003d8c   Data          64  nrf_log_backend_rtt.o(.bss)
    .bss                                     0x20003dcc   Section     1400  nrf_log_frontend.o(.bss)
    log_mempool_nrf_balloc_pool_mem          0x20003dcc   Data         192  nrf_log_frontend.o(.bss)
    m_log_push_ringbuf_buf                   0x20003e8c   Data         128  nrf_log_frontend.o(.bss)
    m_log_push_ringbuf_cb                    0x20003f0c   Data          24  nrf_log_frontend.o(.bss)
    m_log_data                               0x20003f24   Data        1056  nrf_log_frontend.o(.bss)
    .bss                                     0x20004344   Section      648  segger_rtt.o(.bss)
    _acUpBuffer                              0x200043bc   Data         512  segger_rtt.o(.bss)
    _acDownBuffer                            0x200045bc   Data          16  segger_rtt.o(.bss)
    STACK                                    0x200045d0   Section     2048  arm_startup_nrf52805.o(STACK)

    Global Symbols

    Symbol Name                              Value     Ov Type        Size  Object(Section)

    BuildAttributes$$THM_ISAv4$E$P$D$K$B$S$7EM$PE$A:L22UL41UL21$X:L11$S22US41US21$IEEE1$IW$USESV6$~STKCKD$USESV7$~SHL$OSPACE$ROPI$EBA8$MICROLIB$REQ8$EABIv2 0x00000000   Number         0  anon$$obj.o ABSOLUTE
    __ARM_use_no_argv                        0x00000000   Number         0  main_p2cp.o ABSOLUTE
    __cpp_initialize__aeabi_                  - Undefined Weak Reference
    __cxa_finalize                            - Undefined Weak Reference
    _clock_init                               - Undefined Weak Reference
    _microlib_exit                            - Undefined Weak Reference
    log_dynamic_data$$Base                    - Undefined Reference
    pwr_mgmt_data0$$Base                      - Undefined Reference
    pwr_mgmt_data0$$Limit                     - Undefined Reference
    pwr_mgmt_data1$$Base                      - Undefined Reference
    pwr_mgmt_data1$$Limit                     - Undefined Reference
    pwr_mgmt_data2$$Base                      - Undefined Reference
    pwr_mgmt_data2$$Limit                     - Undefined Reference
    sdh_req_observers0$$Base                  - Undefined Reference
    sdh_req_observers0$$Limit                 - Undefined Reference
    sdh_req_observers1$$Base                  - Undefined Reference
    sdh_req_observers1$$Limit                 - Undefined Reference
    sdh_soc_observers1$$Base                  - Undefined Reference
    sdh_soc_observers1$$Limit                 - Undefined Reference
    sdh_stack_observers1$$Base                - Undefined Reference
    sdh_stack_observers1$$Limit               - Undefined Reference
    sdh_state_observers1$$Base                - Undefined Reference
    sdh_state_observers1$$Limit               - Undefined Reference
    __Vectors_Size                           0x00000200   Number         0  arm_startup_nrf52805.o ABSOLUTE
    __Vectors                                0x00026000   Data           4  arm_startup_nrf52805.o(RESET)
    __Vectors_End                            0x00026200   Data           0  arm_startup_nrf52805.o(RESET)
    __main                                   0x00026201   Thumb Code     0  entry.o(.ARM.Collect$$$$00000000)
    _main_stk                                0x00026201   Thumb Code     0  entry2.o(.ARM.Collect$$$$00000001)
    _main_scatterload                        0x00026205   Thumb Code     0  entry5.o(.ARM.Collect$$$$00000004)
    __main_after_scatterload                 0x00026209   Thumb Code     0  entry5.o(.ARM.Collect$$$$00000004)
    _main_clock                              0x00026209   Thumb Code     0  entry7b.o(.ARM.Collect$$$$00000008)
    _main_cpp_init                           0x00026209   Thumb Code     0  entry8b.o(.ARM.Collect$$$$0000000A)
    _main_init                               0x00026209   Thumb Code     0  entry9a.o(.ARM.Collect$$$$0000000B)
    __rt_final_cpp                           0x00026211   Thumb Code     0  entry10a.o(.ARM.Collect$$$$0000000D)
    __rt_final_exit                          0x00026211   Thumb Code     0  entry11a.o(.ARM.Collect$$$$0000000F)
    __asm___12_nrf_atfifo_c_51f461e1__nrf_atfifo_wspace_req 0x00026215   Thumb Code    56  nrf_atfifo.o(.emb_text)
    __asm___12_nrf_atfifo_c_51f461e1__nrf_atfifo_wspace_close 0x0002624d   Thumb Code    18  nrf_atfifo.o(.emb_text)
    __asm___12_nrf_atfifo_c_51f461e1__nrf_atfifo_rspace_req 0x0002625f   Thumb Code    58  nrf_atfifo.o(.emb_text)
    __asm___12_nrf_atfifo_c_51f461e1__nrf_atfifo_rspace_close 0x00026299   Thumb Code    18  nrf_atfifo.o(.emb_text)
    __asm___12_nrf_atfifo_c_51f461e1__nrf_atfifo_space_clear 0x000262ab   Thumb Code    50  nrf_atfifo.o(.emb_text)
    __asm___12_nrf_atomic_c_85ca2469__nrf_atomic_internal_mov 0x000262dd   Thumb Code    24  nrf_atomic.o(.emb_text)
    __asm___12_nrf_atomic_c_85ca2469__nrf_atomic_internal_orr 0x000262f5   Thumb Code    26  nrf_atomic.o(.emb_text)
    __asm___12_nrf_atomic_c_85ca2469__nrf_atomic_internal_and 0x0002630f   Thumb Code    26  nrf_atomic.o(.emb_text)
    __asm___12_nrf_atomic_c_85ca2469__nrf_atomic_internal_eor 0x00026329   Thumb Code    26  nrf_atomic.o(.emb_text)
    __asm___12_nrf_atomic_c_85ca2469__nrf_atomic_internal_add 0x00026343   Thumb Code    26  nrf_atomic.o(.emb_text)
    __asm___12_nrf_atomic_c_85ca2469__nrf_atomic_internal_sub 0x0002635d   Thumb Code    26  nrf_atomic.o(.emb_text)
    __asm___12_nrf_atomic_c_85ca2469__nrf_atomic_internal_cmp_exch 0x00026377   Thumb Code    42  nrf_atomic.o(.emb_text)
    __asm___12_nrf_atomic_c_85ca2469__nrf_atomic_internal_sub_hs 0x000263a1   Thumb Code    30  nrf_atomic.o(.emb_text)
    Reset_Handler                            0x000263c1   Thumb Code     8  arm_startup_nrf52805.o(.text)
    NMI_Handler                              0x000263c9   Thumb Code     2  arm_startup_nrf52805.o(.text)
    HardFault_Handler                        0x000263cb   Thumb Code     2  arm_startup_nrf52805.o(.text)
    MemoryManagement_Handler                 0x000263cd   Thumb Code     2  arm_startup_nrf52805.o(.text)
    BusFault_Handler                         0x000263cf   Thumb Code     2  arm_startup_nrf52805.o(.text)
    UsageFault_Handler                       0x000263d1   Thumb Code     2  arm_startup_nrf52805.o(.text)
    SVC_Handler                              0x000263d3   Thumb Code     2  arm_startup_nrf52805.o(.text)
    DebugMon_Handler                         0x000263d5   Thumb Code     2  arm_startup_nrf52805.o(.text)
    PendSV_Handler                           0x000263d7   Thumb Code     2  arm_startup_nrf52805.o(.text)
    SysTick_Handler                          0x000263d9   Thumb Code     2  arm_startup_nrf52805.o(.text)
    CCM_AAR_IRQHandler                       0x000263db   Thumb Code     0  arm_startup_nrf52805.o(.text)
    ECB_IRQHandler                           0x000263db   Thumb Code     0  arm_startup_nrf52805.o(.text)
    QDEC_IRQHandler                          0x000263db   Thumb Code     0  arm_startup_nrf52805.o(.text)
    RADIO_IRQHandler                         0x000263db   Thumb Code     0  arm_startup_nrf52805.o(.text)
    RNG_IRQHandler                           0x000263db   Thumb Code     0  arm_startup_nrf52805.o(.text)
    RTC0_IRQHandler                          0x000263db   Thumb Code     0  arm_startup_nrf52805.o(.text)
    SAADC_IRQHandler                         0x000263db   Thumb Code     0  arm_startup_nrf52805.o(.text)
    SPIM0_SPIS0_SPI0_IRQHandler              0x000263db   Thumb Code     0  arm_startup_nrf52805.o(.text)
    SWI0_EGU0_IRQHandler                     0x000263db   Thumb Code     0  arm_startup_nrf52805.o(.text)
    SWI1_EGU1_IRQHandler                     0x000263db   Thumb Code     0  arm_startup_nrf52805.o(.text)
    SWI3_IRQHandler                          0x000263db   Thumb Code     0  arm_startup_nrf52805.o(.text)
    SWI4_IRQHandler                          0x000263db   Thumb Code     0  arm_startup_nrf52805.o(.text)
    SWI5_IRQHandler                          0x000263db   Thumb Code     0  arm_startup_nrf52805.o(.text)
    TEMP_IRQHandler                          0x000263db   Thumb Code     0  arm_startup_nrf52805.o(.text)
    TIMER0_IRQHandler                        0x000263db   Thumb Code     0  arm_startup_nrf52805.o(.text)
    TIMER1_IRQHandler                        0x000263db   Thumb Code     0  arm_startup_nrf52805.o(.text)
    TIMER2_IRQHandler                        0x000263db   Thumb Code     0  arm_startup_nrf52805.o(.text)
    TWIM0_TWIS0_TWI0_IRQHandler              0x000263db   Thumb Code     0  arm_startup_nrf52805.o(.text)
    WDT_IRQHandler                           0x000263db   Thumb Code     0  arm_startup_nrf52805.o(.text)
    __aeabi_uldivmod                         0x000263e5   Thumb Code    98  uldiv.o(.text)
    __aeabi_llsl                             0x00026447   Thumb Code    30  llshl.o(.text)
    _ll_shift_l                              0x00026447   Thumb Code     0  llshl.o(.text)
    __rt_ctype_table                         0x00026465   Thumb Code     4  ctype_o.o(.text)
    __aeabi_memcpy                           0x0002646d   Thumb Code    36  memcpya.o(.text)
    __aeabi_memcpy4                          0x0002646d   Thumb Code     0  memcpya.o(.text)
    __aeabi_memcpy8                          0x0002646d   Thumb Code     0  memcpya.o(.text)
    __aeabi_memset                           0x00026491   Thumb Code    14  memseta.o(.text)
    __aeabi_memset4                          0x00026491   Thumb Code     0  memseta.o(.text)
    __aeabi_memset8                          0x00026491   Thumb Code     0  memseta.o(.text)
    __aeabi_memclr                           0x0002649f   Thumb Code     4  memseta.o(.text)
    __aeabi_memclr4                          0x0002649f   Thumb Code     0  memseta.o(.text)
    __aeabi_memclr8                          0x0002649f   Thumb Code     0  memseta.o(.text)
    _memset$wrapper                          0x000264a3   Thumb Code    18  memseta.o(.text)
    strlen                                   0x000264b5   Thumb Code    14  strlen.o(.text)
    strcpy                                   0x000264c3   Thumb Code    18  strcpy.o(.text)
    __aeabi_llsr                             0x000264d5   Thumb Code    32  llushr.o(.text)
    _ll_ushift_r                             0x000264d5   Thumb Code     0  llushr.o(.text)
    __scatterload                            0x000264f5   Thumb Code    28  init.o(.text)
    __scatterload_rt2                        0x000264f5   Thumb Code     0  init.o(.text)
    __decompress                             0x00026519   Thumb Code     0  __dczerorl2.o(.text)
    __decompress1                            0x00026519   Thumb Code    86  __dczerorl2.o(.text)
    GPIOTE_IRQHandler                        0x00026571   Thumb Code   180  nrfx_gpiote.o(i.GPIOTE_IRQHandler)
    POWER_CLOCK_IRQHandler                   0x0002662d   Thumb Code    68  nrfx_clock.o(i.POWER_CLOCK_IRQHandler)
    RTC1_IRQHandler                          0x00026675   Thumb Code    14  drv_rtc.o(i.RTC1_IRQHandler)
    SEGGER_RTT_Init                          0x0002668d   Thumb Code     8  segger_rtt.o(i.SEGGER_RTT_Init)
    SEGGER_RTT_WriteNoLock                   0x00026695   Thumb Code   126  segger_rtt.o(i.SEGGER_RTT_WriteNoLock)
    SWI2_IRQHandler                          0x00026719   Thumb Code     8  nrf_sdh.o(i.SWI2_IRQHandler)
    SystemCoreClockUpdate                    0x00026721   Thumb Code     8  system_nrf52805.o(i.SystemCoreClockUpdate)
    SystemInit                               0x00026731   Thumb Code   424  system_nrf52805.o(i.SystemInit)
    UARTE0_UART0_IRQHandler                  0x00026909   Thumb Code    10  nrfx_prs.o(i.UARTE0_UART0_IRQHandler)
    __0printf$bare                           0x00026a65   Thumb Code     8  printfb.o(i.__0printf$bare)
    __1printf$bare                           0x00026a65   Thumb Code     0  printfb.o(i.__0printf$bare)
    __2printf                                0x00026a65   Thumb Code     0  printfb.o(i.__0printf$bare)
    __scatterload_copy                       0x00026a75   Thumb Code    14  handlers.o(i.__scatterload_copy)
    __scatterload_null                       0x00026a83   Thumb Code     2  handlers.o(i.__scatterload_null)
    __scatterload_zeroinit                   0x00026a85   Thumb Code    14  handlers.o(i.__scatterload_zeroinit)
    app_error_fault_handler                  0x00026c79   Thumb Code   144  app_error_weak.o(i.app_error_fault_handler)
    app_error_handler_bare                   0x00026d35   Thumb Code    28  app_error.o(i.app_error_handler_bare)
    app_fifo_get                             0x00026d51   Thumb Code    30  app_fifo.o(i.app_fifo_get)
    app_fifo_init                            0x00026d6f   Thumb Code    36  app_fifo.o(i.app_fifo_init)
    app_fifo_put                             0x00026d93   Thumb Code    34  app_fifo.o(i.app_fifo_put)
    app_timer_cnt_get                        0x00026db5   Thumb Code    10  app_timer2.o(i.app_timer_cnt_get)
    app_timer_create                         0x00026dc5   Thumb Code    32  app_timer2.o(i.app_timer_create)
    app_timer_init                           0x00026de5   Thumb Code    78  app_timer2.o(i.app_timer_init)
    app_timer_start                          0x00026e51   Thumb Code    54  app_timer2.o(i.app_timer_start)
    app_timer_stop                           0x00026e87   Thumb Code    20  app_timer2.o(i.app_timer_stop)
    app_uart_get                             0x00026e9d   Thumb Code    66  app_uart_fifo.o(i.app_uart_get)
    app_uart_init                            0x00026ef1   Thumb Code   188  app_uart_fifo.o(i.app_uart_init)
    app_uart_put                             0x00026fcd   Thumb Code    90  app_uart_fifo.o(i.app_uart_put)
    app_util_critical_region_enter           0x00027039   Thumb Code    12  app_util_platform.o(i.app_util_critical_region_enter)
    app_util_critical_region_exit            0x00027045   Thumb Code    62  app_util_platform.o(i.app_util_critical_region_exit)
    blcm_link_ctx_get                        0x00027215   Thumb Code   108  ble_link_ctx_manager.o(i.blcm_link_ctx_get)
    ble_advdata_encode                       0x00027281   Thumb Code   364  ble_advdata.o(i.ble_advdata_encode)
    ble_advdata_parse                        0x000273ed   Thumb Code    40  ble_advdata.o(i.ble_advdata_parse)
    ble_advdata_search                       0x00027415   Thumb Code    92  ble_advdata.o(i.ble_advdata_search)
    ble_advertising_conn_cfg_tag_set         0x00027471   Thumb Code     6  ble_advertising.o(i.ble_advertising_conn_cfg_tag_set)
    ble_advertising_init                     0x00027477   Thumb Code   264  ble_advertising.o(i.ble_advertising_init)
    ble_advertising_on_ble_evt               0x0002757f   Thumb Code    60  ble_advertising.o(i.ble_advertising_on_ble_evt)
    ble_advertising_start                    0x000275bb   Thumb Code   372  ble_advertising.o(i.ble_advertising_start)
    ble_conn_params_init                     0x00027731   Thumb Code   136  ble_conn_params.o(i.ble_conn_params_init)
    ble_conn_state_conn_idx                  0x000277cd   Thumb Code    20  ble_conn_state.o(i.ble_conn_state_conn_idx)
    ble_conn_state_valid                     0x000277e1   Thumb Code    22  ble_conn_state.o(i.ble_conn_state_valid)
    ble_nus_data_send                        0x00027b55   Thumb Code   122  ble_nus.o(i.ble_nus_data_send)
    ble_nus_init                             0x00027bd1   Thumb Code   268  ble_nus.o(i.ble_nus_init)
    ble_nus_on_ble_evt                       0x00027ce1   Thumb Code    68  ble_nus.o(i.ble_nus_on_ble_evt)
    ble_srv_is_notification_enabled          0x00027d25   Thumb Code    18  ble_srv_common.o(i.ble_srv_is_notification_enabled)
    bsp_board_button_idx_to_pin              0x00027d8d   Thumb Code     8  boards.o(i.bsp_board_button_idx_to_pin)
    bsp_board_led_invert                     0x00027d99   Thumb Code    44  boards.o(i.bsp_board_led_invert)
    bsp_board_led_off                        0x00027dc9   Thumb Code    16  boards.o(i.bsp_board_led_off)
    bsp_board_led_on                         0x00027ddd   Thumb Code    16  boards.o(i.bsp_board_led_on)
    bsp_board_led_state_get                  0x00027df1   Thumb Code    44  boards.o(i.bsp_board_led_state_get)
    bsp_board_leds_off                       0x00027e21   Thumb Code    20  boards.o(i.bsp_board_leds_off)
    bsp_board_leds_on                        0x00027e35   Thumb Code    20  boards.o(i.bsp_board_leds_on)
    bsp_board_pin_to_button_idx              0x00027e49   Thumb Code    32  boards.o(i.bsp_board_pin_to_button_idx)
    bsp_btn_ble_sleep_mode_prepare           0x00027e6d   Thumb Code    50  bsp_btn_ble.o(i.bsp_btn_ble_sleep_mode_prepare)
    bsp_event_to_button_action_assign        0x00027f65   Thumb Code    86  bsp.o(i.bsp_event_to_button_action_assign)
    bsp_indication_set                       0x00027fc1   Thumb Code    28  bsp.o(i.bsp_indication_set)
    bsp_wakeup_button_enable                 0x00028369   Thumb Code    14  bsp.o(i.bsp_wakeup_button_enable)
    buffer_is_empty                          0x0002848d   Thumb Code    20  nrf_log_frontend.o(i.buffer_is_empty)
    characteristic_add                       0x000284c1   Thumb Code   456  ble_srv_common.o(i.characteristic_add)
    conn_handle_list_get                     0x0002872f   Thumb Code    60  ble_conn_state.o(i.conn_handle_list_get)
    drv_rtc_compare_disable                  0x00028a41   Thumb Code    22  drv_rtc.o(i.drv_rtc_compare_disable)
    drv_rtc_compare_pending                  0x00028a57   Thumb Code    26  drv_rtc.o(i.drv_rtc_compare_pending)
    drv_rtc_compare_set                      0x00028a71   Thumb Code    92  drv_rtc.o(i.drv_rtc_compare_set)
    drv_rtc_counter_get                      0x00028acd   Thumb Code    12  drv_rtc.o(i.drv_rtc_counter_get)
    drv_rtc_init                             0x00028ad9   Thumb Code   216  drv_rtc.o(i.drv_rtc_init)
    drv_rtc_irq_trigger                      0x00028c01   Thumb Code    32  drv_rtc.o(i.drv_rtc_irq_trigger)
    drv_rtc_overflow_enable                  0x00028c25   Thumb Code    18  drv_rtc.o(i.drv_rtc_overflow_enable)
    drv_rtc_overflow_pending                 0x00028c37   Thumb Code    16  drv_rtc.o(i.drv_rtc_overflow_pending)
    drv_rtc_start                            0x00028c47   Thumb Code    14  drv_rtc.o(i.drv_rtc_start)
    drv_rtc_stop                             0x00028c55   Thumb Code    14  drv_rtc.o(i.drv_rtc_stop)
    drv_rtc_windowed_compare_set             0x00028c63   Thumb Code   252  drv_rtc.o(i.drv_rtc_windowed_compare_set)
    fputc                                    0x00028e7f   Thumb Code    16  retarget.o(i.fputc)
    gatt_evt_handler                         0x00028f11   Thumb Code    62  main_p2cp.o(i.gatt_evt_handler)
    gatt_init                                0x00028f7d   Thumb Code    60  main_p2cp.o(i.gatt_init)
    main                                     0x00029479   Thumb Code   118  main_p2cp.o(i.main)
    nrf_atfifo_init                          0x00029951   Thumb Code    40  nrf_atfifo.o(i.nrf_atfifo_init)
    nrf_atfifo_item_alloc                    0x00029979   Thumb Code    28  nrf_atfifo.o(i.nrf_atfifo_item_alloc)
    nrf_atfifo_item_free                     0x00029995   Thumb Code    28  nrf_atfifo.o(i.nrf_atfifo_item_free)
    nrf_atfifo_item_get                      0x000299b1   Thumb Code    28  nrf_atfifo.o(i.nrf_atfifo_item_get)
    nrf_atfifo_item_put                      0x000299cd   Thumb Code    28  nrf_atfifo.o(i.nrf_atfifo_item_put)
    nrf_atflags_clear                        0x000299e9   Thumb Code    30  nrf_atflags.o(i.nrf_atflags_clear)
    nrf_atflags_get                          0x00029a07   Thumb Code    30  nrf_atflags.o(i.nrf_atflags_get)
    nrf_atflags_set                          0x00029a25   Thumb Code    30  nrf_atflags.o(i.nrf_atflags_set)
    nrf_atomic_flag_clear_fetch              0x00029a43   Thumb Code    14  nrf_atomic.o(i.nrf_atomic_flag_clear_fetch)
    nrf_atomic_flag_set                      0x00029a51   Thumb Code    14  nrf_atomic.o(i.nrf_atomic_flag_set)
    nrf_atomic_u32_add                       0x00029a5f   Thumb Code    22  nrf_atomic.o(i.nrf_atomic_u32_add)
    nrf_atomic_u32_and                       0x00029a75   Thumb Code    22  nrf_atomic.o(i.nrf_atomic_u32_and)
    nrf_atomic_u32_fetch_and                 0x00029a8b   Thumb Code    22  nrf_atomic.o(i.nrf_atomic_u32_fetch_and)
    nrf_atomic_u32_fetch_store               0x00029aa1   Thumb Code    22  nrf_atomic.o(i.nrf_atomic_u32_fetch_store)
    nrf_atomic_u32_or                        0x00029ab7   Thumb Code    22  nrf_atomic.o(i.nrf_atomic_u32_or)
    nrf_atomic_u32_sub                       0x00029acd   Thumb Code    22  nrf_atomic.o(i.nrf_atomic_u32_sub)
    nrf_balloc_alloc                         0x00029ae3   Thumb Code    82  nrf_balloc.o(i.nrf_balloc_alloc)
    nrf_balloc_free                          0x00029b45   Thumb Code    48  nrf_balloc.o(i.nrf_balloc_free)
    nrf_balloc_init                          0x00029b81   Thumb Code    60  nrf_balloc.o(i.nrf_balloc_init)
    nrf_ble_gatt_att_mtu_periph_set          0x00029bd3   Thumb Code    30  nrf_ble_gatt.o(i.nrf_ble_gatt_att_mtu_periph_set)
    nrf_ble_gatt_init                        0x00029bf1   Thumb Code    52  nrf_ble_gatt.o(i.nrf_ble_gatt_init)
    nrf_ble_gatt_on_ble_evt                  0x00029c25   Thumb Code   202  nrf_ble_gatt.o(i.nrf_ble_gatt_on_ble_evt)
    nrf_ble_qwr_conn_handle_assign           0x00029d2d   Thumb Code    32  nrf_ble_qwr.o(i.nrf_ble_qwr_conn_handle_assign)
    nrf_ble_qwr_init                         0x00029d4d   Thumb Code    50  nrf_ble_qwr.o(i.nrf_ble_qwr_init)
    nrf_ble_qwr_on_ble_evt                   0x00029d7f   Thumb Code   124  nrf_ble_qwr.o(i.nrf_ble_qwr_on_ble_evt)
    nrf_drv_clock_init                       0x00029e35   Thumb Code    66  nrf_drv_clock.o(i.nrf_drv_clock_init)
    nrf_drv_clock_lfclk_release              0x00029e81   Thumb Code    42  nrf_drv_clock.o(i.nrf_drv_clock_lfclk_release)
    nrf_drv_uart_init                        0x00029eb1   Thumb Code   118  nrf_drv_uart.o(i.nrf_drv_uart_init)
    nrf_fprintf                              0x00029fc5   Thumb Code    42  nrf_fprintf.o(i.nrf_fprintf)
    nrf_fprintf_buffer_flush                 0x00029fef   Thumb Code    28  nrf_fprintf.o(i.nrf_fprintf_buffer_flush)
    nrf_fprintf_fmt                          0x0002a00b   Thumb Code   496  nrf_fprintf_format.o(i.nrf_fprintf_fmt)
    nrf_log_backend_add                      0x0002a3bd   Thumb Code    78  nrf_log_frontend.o(i.nrf_log_backend_add)
    nrf_log_backend_rtt_init                 0x0002a413   Thumb Code     8  nrf_log_backend_rtt.o(i.nrf_log_backend_rtt_init)
    nrf_log_backend_serial_put               0x0002a43d   Thumb Code   242  nrf_log_backend_serial.o(i.nrf_log_backend_serial_put)
    nrf_log_color_id_get                     0x0002a531   Thumb Code    52  nrf_log_frontend.o(i.nrf_log_color_id_get)
    nrf_log_default_backends_init            0x0002a569   Thumb Code    34  nrf_log_default_backends.o(i.nrf_log_default_backends_init)
    nrf_log_frontend_dequeue                 0x0002a591   Thumb Code   756  nrf_log_frontend.o(i.nrf_log_frontend_dequeue)
    nrf_log_frontend_std_0                   0x0002a8ad   Thumb Code    20  nrf_log_frontend.o(i.nrf_log_frontend_std_0)
    nrf_log_frontend_std_1                   0x0002a8c1   Thumb Code    24  nrf_log_frontend.o(i.nrf_log_frontend_std_1)
    nrf_log_frontend_std_2                   0x0002a8d9   Thumb Code    32  nrf_log_frontend.o(i.nrf_log_frontend_std_2)
    nrf_log_hexdump_entry_process            0x0002a8f9   Thumb Code   164  nrf_log_str_formatter.o(i.nrf_log_hexdump_entry_process)
    nrf_log_init                             0x0002a9b5   Thumb Code    50  nrf_log_frontend.o(i.nrf_log_init)
    nrf_log_module_cnt_get                   0x0002a9fd   Thumb Code    10  nrf_log_frontend.o(i.nrf_log_module_cnt_get)
    nrf_log_module_name_get                  0x0002aa11   Thumb Code    30  nrf_log_frontend.o(i.nrf_log_module_name_get)
    nrf_log_panic                            0x0002aa35   Thumb Code    48  nrf_log_frontend.o(i.nrf_log_panic)
    nrf_log_std_entry_process                0x0002aa69   Thumb Code   200  nrf_log_str_formatter.o(i.nrf_log_std_entry_process)
    nrf_memobj_alloc                         0x0002ab31   Thumb Code   122  nrf_memobj.o(i.nrf_memobj_alloc)
    nrf_memobj_free                          0x0002abab   Thumb Code    64  nrf_memobj.o(i.nrf_memobj_free)
    nrf_memobj_get                           0x0002abeb   Thumb Code    16  nrf_memobj.o(i.nrf_memobj_get)
    nrf_memobj_pool_init                     0x0002abfb   Thumb Code    12  nrf_memobj.o(i.nrf_memobj_pool_init)
    nrf_memobj_put                           0x0002ac07   Thumb Code    30  nrf_memobj.o(i.nrf_memobj_put)
    nrf_memobj_read                          0x0002ac25   Thumb Code    34  nrf_memobj.o(i.nrf_memobj_read)
    nrf_memobj_write                         0x0002ac47   Thumb Code    34  nrf_memobj.o(i.nrf_memobj_write)
    nrf_pwr_mgmt_init                        0x0002ac69   Thumb Code    46  nrf_pwr_mgmt.o(i.nrf_pwr_mgmt_init)
    nrf_pwr_mgmt_run                         0x0002aca9   Thumb Code    22  nrf_pwr_mgmt.o(i.nrf_pwr_mgmt_run)
    nrf_ringbuf_init                         0x0002accf   Thumb Code    28  nrf_ringbuf.o(i.nrf_ringbuf_init)
    nrf_sdh_ble_app_ram_start_get            0x0002ad35   Thumb Code    18  nrf_sdh_ble.o(i.nrf_sdh_ble_app_ram_start_get)
    nrf_sdh_ble_default_cfg_set              0x0002ad4d   Thumb Code   380  nrf_sdh_ble.o(i.nrf_sdh_ble_default_cfg_set)
    nrf_sdh_ble_enable                       0x0002aee9   Thumb Code   144  nrf_sdh_ble.o(i.nrf_sdh_ble_enable)
    nrf_sdh_enable_request                   0x0002b0a9   Thumb Code   112  nrf_sdh.o(i.nrf_sdh_enable_request)
    nrf_sdh_evts_poll                        0x0002b12d   Thumb Code    44  nrf_sdh.o(i.nrf_sdh_evts_poll)
    nrf_sdh_is_enabled                       0x0002b15d   Thumb Code     6  nrf_sdh.o(i.nrf_sdh_is_enabled)
    nrf_section_iter_init                    0x0002b1c3   Thumb Code    20  nrf_section_iter.o(i.nrf_section_iter_init)
    nrf_section_iter_next                    0x0002b205   Thumb Code    46  nrf_section_iter.o(i.nrf_section_iter_next)
    nrf_sortlist_add                         0x0002b233   Thumb Code    40  nrf_sortlist.o(i.nrf_sortlist_add)
    nrf_sortlist_peek                        0x0002b25b   Thumb Code     8  nrf_sortlist.o(i.nrf_sortlist_peek)
    nrf_sortlist_pop                         0x0002b263   Thumb Code    24  nrf_sortlist.o(i.nrf_sortlist_pop)
    nrf_sortlist_remove                      0x0002b27b   Thumb Code    38  nrf_sortlist.o(i.nrf_sortlist_remove)
    nrf_strerror_find                        0x0002b2a1   Thumb Code    60  nrf_strerror.o(i.nrf_strerror_find)
    nrf_strerror_get                         0x0002b2e1   Thumb Code    22  nrf_strerror.o(i.nrf_strerror_get)
    nrfx_clock_enable                        0x0002b3ed   Thumb Code    16  nrfx_clock.o(i.nrfx_clock_enable)
    nrfx_clock_init                          0x0002b401   Thumb Code    26  nrfx_clock.o(i.nrfx_clock_init)
    nrfx_clock_lfclk_stop                    0x0002b421   Thumb Code    40  nrfx_clock.o(i.nrfx_clock_lfclk_stop)
    nrfx_prs_acquire                         0x0002b541   Thumb Code    78  nrfx_prs.o(i.nrfx_prs_acquire)
    nrfx_uart_0_irq_handler                  0x0002b591   Thumb Code    12  nrfx_uart.o(i.nrfx_uart_0_irq_handler)
    nrfx_uart_init                           0x0002b5a5   Thumb Code   128  nrfx_uart.o(i.nrfx_uart_init)
    nrfx_uart_rx                             0x0002b62d   Thumb Code   286  nrfx_uart.o(i.nrfx_uart_rx)
    nrfx_uart_tx                             0x0002b751   Thumb Code   134  nrfx_uart.o(i.nrfx_uart_tx)
    nrfx_uart_tx_in_progress                 0x0002b7dd   Thumb Code    30  nrfx_uart.o(i.nrfx_uart_tx_in_progress)
    nrfx_uarte_0_irq_handler                 0x0002b801   Thumb Code    12  nrfx_uarte.o(i.nrfx_uarte_0_irq_handler)
    nrfx_uarte_init                          0x0002b815   Thumb Code   120  nrfx_uarte.o(i.nrfx_uarte_init)
    nrfx_uarte_rx                            0x0002b895   Thumb Code   306  nrfx_uarte.o(i.nrfx_uarte_rx)
    nrfx_uarte_tx                            0x0002b9cd   Thumb Code   188  nrfx_uarte.o(i.nrfx_uarte_tx)
    nrfx_uarte_tx_in_progress                0x0002ba8d   Thumb Code    26  nrfx_uarte.o(i.nrfx_uarte_tx_in_progress)
    uart_event_handle                        0x0002d159   Thumb Code   182  main_p2cp.o(i.uart_event_handle)
    nrf_log_backend_rtt_api                  0x0002dc40   Data          12  nrf_log_backend_rtt.o(.constdata)
    m_ram_start                              0x0002dce8   Data           4  nrf_sdh_ble.o(.constdata)
    __ctype_table                            0x0002dd08   Data         129  ctype_o.o(.constdata)
    Region$$Table$$Base                      0x0002e500   Number         0  anon$$obj.o(Region$$Table)
    Region$$Table$$Limit                     0x0002e520   Number         0  anon$$obj.o(Region$$Table)
    log_const_data$$Base                     0x0002e530   Number         0  nrf_ble_gatt.o(log_const_data)
    m_nrf_log_nrf_ble_gatt_logs_data_const   0x0002e530   Data           8  nrf_ble_gatt.o(log_const_data)
    m_nrf_log_ble_nus_logs_data_const        0x0002e538   Data           8  ble_nus.o(log_const_data)
    m_nrf_log_clock_logs_data_const          0x0002e540   Data           8  nrf_drv_clock.o(log_const_data)
    m_nrf_log_CLOCK_logs_data_const          0x0002e548   Data           8  nrfx_clock.o(log_const_data)
    m_nrf_log_GPIOTE_logs_data_const         0x0002e550   Data           8  nrfx_gpiote.o(log_const_data)
    m_nrf_log_PRS_logs_data_const            0x0002e558   Data           8  nrfx_prs.o(log_const_data)
    m_nrf_log_UART_logs_data_const           0x0002e560   Data           8  nrfx_uart.o(log_const_data)
    m_nrf_log_UARTE_logs_data_const          0x0002e568   Data           8  nrfx_uarte.o(log_const_data)
    m_nrf_log_app_button_logs_data_const     0x0002e570   Data           8  app_button.o(log_const_data)
    m_nrf_log_app_timer_logs_data_const      0x0002e578   Data           8  app_timer2.o(log_const_data)
    m_nrf_log_pwr_mgmt_logs_data_const       0x0002e580   Data           8  nrf_pwr_mgmt.o(log_const_data)
    m_nrf_log_sortlist_logs_data_const       0x0002e588   Data           8  nrf_sortlist.o(log_const_data)
    m_nrf_log_app_logs_data_const            0x0002e590   Data           8  nrf_log_frontend.o(log_const_data)
    m_nrf_log_nrf_sdh_logs_data_const        0x0002e598   Data           8  nrf_sdh.o(log_const_data)
    m_nrf_log_nrf_sdh_ble_logs_data_const    0x0002e5a0   Data           8  nrf_sdh_ble.o(log_const_data)
    m_nrf_log_nrf_sdh_soc_logs_data_const    0x0002e5a8   Data           8  nrf_sdh_soc.o(log_const_data)
    log_const_data$$Limit                    0x0002e5b0   Number         0  nrf_sdh_soc.o(log_const_data)
    log_mempool                              0x0002e5b0   Data          20  nrf_log_frontend.o(nrf_balloc)
    sdh_ble_observers0$$Base                 0x0002e5c4   Number         0  ble_conn_state.o(sdh_ble_observers0)
    sdh_ble_observers0$$Limit                0x0002e5cc   Number         0  ble_conn_state.o(sdh_ble_observers0)
    sdh_ble_observers1$$Base                 0x0002e5cc   Number         0  main_p2cp.o(sdh_ble_observers1)
    sdh_ble_observers1$$Limit                0x0002e5ec   Number         0  ble_conn_params.o(sdh_ble_observers1)
    sdh_ble_observers2$$Base                 0x0002e5ec   Number         0  main_p2cp.o(sdh_ble_observers2)
    sdh_ble_observers2$$Limit                0x0002e5fc   Number         0  main_p2cp.o(sdh_ble_observers2)
    sdh_ble_observers3$$Base                 0x0002e5fc   Number         0  main_p2cp.o(sdh_ble_observers3)
    sdh_ble_observers3$$Limit                0x0002e604   Number         0  main_p2cp.o(sdh_ble_observers3)
    sdh_soc_observers0$$Base                 0x0002e604   Number         0  nrf_drv_clock.o(sdh_soc_observers0)
    sdh_soc_observers0$$Limit                0x0002e60c   Number         0  nrf_drv_clock.o(sdh_soc_observers0)
    sdh_stack_observers0$$Base               0x0002e60c   Number         0  nrf_sdh_ble.o(sdh_stack_observers0)
    sdh_stack_observers0$$Limit              0x0002e61c   Number         0  nrf_sdh_soc.o(sdh_stack_observers0)
    sdh_state_observers0$$Base               0x0002e61c   Number         0  nrf_drv_clock.o(sdh_state_observers0)
    sdh_state_observers0$$Limit              0x0002e624   Number         0  nrf_drv_clock.o(sdh_state_observers0)
    Image$$RW_IRAM1$$Base                    0x20003268   Number         0  anon$$obj.o ABSOLUTE
    nrf_drv_uart_use_easy_dma                0x200032cc   Data           1  nrf_drv_uart.o(.data)
    __stdout                                 0x20003338   Data           4  retarget.o(.data)
    __stdin                                  0x2000333c   Data           4  retarget.o(.data)
    SystemCoreClock                          0x200033a4   Data           4  system_nrf52805.o(.data)
    nrf_nvic_state                           0x20003d74   Data          12  app_util_platform.o(.bss)
    _SEGGER_RTT                              0x20004344   Data         120  segger_rtt.o(.bss)
    __initial_sp                             0x20004dd0   Data           0  arm_startup_nrf52805.o(STACK)



==============================================================================

Memory Map of the image

  Image Entry point : 0x00026201

  Load Region LR_IROM1 (Base: 0x00026000, Size: 0x00008764, Max: 0x0000a000, ABSOLUTE, COMPRESSED[0x0000867c])

    Execution Region ER_IROM1 (Exec base: 0x00026000, Load base: 0x00026000, Size: 0x00008624, Max: 0x0000a000, ABSOLUTE)

    Exec Addr    Load Addr    Size         Type   Attr      Idx    E Section Name        Object

    0x00026000   0x00026000   0x00000200   Data   RO         5766    RESET               arm_startup_nrf52805.o
    0x00026200   0x00026200   0x00000000   Code   RO         7657  * .ARM.Collect$$$$00000000  mc_w.l(entry.o)
    0x00026200   0x00026200   0x00000004   Code   RO         7964    .ARM.Collect$$$$00000001  mc_w.l(entry2.o)
    0x00026204   0x00026204   0x00000004   Code   RO         7967    .ARM.Collect$$$$00000004  mc_w.l(entry5.o)
    0x00026208   0x00026208   0x00000000   Code   RO         7969    .ARM.Collect$$$$00000008  mc_w.l(entry7b.o)
    0x00026208   0x00026208   0x00000000   Code   RO         7971    .ARM.Collect$$$$0000000A  mc_w.l(entry8b.o)
    0x00026208   0x00026208   0x00000008   Code   RO         7972    .ARM.Collect$$$$0000000B  mc_w.l(entry9a.o)
    0x00026210   0x00026210   0x00000000   Code   RO         7974    .ARM.Collect$$$$0000000D  mc_w.l(entry10a.o)
    0x00026210   0x00026210   0x00000000   Code   RO         7976    .ARM.Collect$$$$0000000F  mc_w.l(entry11a.o)
    0x00026210   0x00026210   0x00000004   Code   RO         7965    .ARM.Collect$$$$00002712  mc_w.l(entry2.o)
    0x00026214   0x00026214   0x000000c8   Code   RO         4083    .emb_text           nrf_atfifo.o
    0x000262dc   0x000262dc   0x000000e2   Code   RO         4222    .emb_text           nrf_atomic.o
    0x000263be   0x000263be   0x00000002   PAD
    0x000263c0   0x000263c0   0x00000024   Code   RO         5767    .text               arm_startup_nrf52805.o
    0x000263e4   0x000263e4   0x00000062   Code   RO         7660    .text               mc_w.l(uldiv.o)
    0x00026446   0x00026446   0x0000001e   Code   RO         7662    .text               mc_w.l(llshl.o)
    0x00026464   0x00026464   0x00000008   Code   RO         7664    .text               mc_w.l(ctype_o.o)
    0x0002646c   0x0002646c   0x00000024   Code   RO         7692    .text               mc_w.l(memcpya.o)
    0x00026490   0x00026490   0x00000024   Code   RO         7694    .text               mc_w.l(memseta.o)
    0x000264b4   0x000264b4   0x0000000e   Code   RO         7696    .text               mc_w.l(strlen.o)
    0x000264c2   0x000264c2   0x00000012   Code   RO         7700    .text               mc_w.l(strcpy.o)
    0x000264d4   0x000264d4   0x00000020   Code   RO         7980    .text               mc_w.l(llushr.o)
    0x000264f4   0x000264f4   0x00000024   Code   RO         7993    .text               mc_w.l(init.o)
    0x00026518   0x00026518   0x00000056   Code   RO         8007    .text               mc_w.l(__dczerorl2.o)
    0x0002656e   0x0002656e   0x00000002   PAD
    0x00026570   0x00026570   0x000000bc   Code   RO         2263    i.GPIOTE_IRQHandler  nrfx_gpiote.o
    0x0002662c   0x0002662c   0x00000048   Code   RO         2100    i.POWER_CLOCK_IRQHandler  nrfx_clock.o
    0x00026674   0x00026674   0x00000018   Code   RO         3819    i.RTC1_IRQHandler   drv_rtc.o
    0x0002668c   0x0002668c   0x00000008   Code   RO         5291    i.SEGGER_RTT_Init   segger_rtt.o
    0x00026694   0x00026694   0x00000084   Code   RO         5305    i.SEGGER_RTT_WriteNoLock  segger_rtt.o
    0x00026718   0x00026718   0x00000008   Code   RO         5543    i.SWI2_IRQHandler   nrf_sdh.o
    0x00026720   0x00026720   0x00000010   Code   RO         5774    i.SystemCoreClockUpdate  system_nrf52805.o
    0x00026730   0x00026730   0x000001d8   Code   RO         5775    i.SystemInit        system_nrf52805.o
    0x00026908   0x00026908   0x00000010   Code   RO         2633    i.UARTE0_UART0_IRQHandler  nrfx_prs.o
    0x00026918   0x00026918   0x00000070   Code   RO         5309    i._DoInit           segger_rtt.o
    0x00026988   0x00026988   0x0000001c   Code   RO         5310    i._GetAvailWriteSpace  segger_rtt.o
    0x000269a4   0x000269a4   0x00000072   Code   RO         5312    i._WriteBlocking    segger_rtt.o
    0x00026a16   0x00026a16   0x0000004c   Code   RO         5313    i._WriteNoCheck     segger_rtt.o
    0x00026a62   0x00026a62   0x00000002   PAD
    0x00026a64   0x00026a64   0x00000010   Code   RO         7705    i.__0printf$bare    mc_w.l(printfb.o)
    0x00026a74   0x00026a74   0x0000000e   Code   RO         8001    i.__scatterload_copy  mc_w.l(handlers.o)
    0x00026a82   0x00026a82   0x00000002   Code   RO         8002    i.__scatterload_null  mc_w.l(handlers.o)
    0x00026a84   0x00026a84   0x0000000e   Code   RO         8003    i.__scatterload_zeroinit  mc_w.l(handlers.o)
    0x00026a92   0x00026a92   0x00000002   PAD
    0x00026a94   0x00026a94   0x00000038   Code   RO         5544    i.__sd_nvic_app_accessible_irq  nrf_sdh.o
    0x00026acc   0x00026acc   0x0000000c   Code   RO         3741    i.__sd_nvic_irq_disable  app_util_platform.o
    0x00026ad8   0x00026ad8   0x00000022   Code   RO         7712    i._printf_core      mc_w.l(printfb.o)
    0x00026afa   0x00026afa   0x00000018   Code   RO          950    i.addr_is_valid     ble_advertising.o
    0x00026b12   0x00026b12   0x00000058   Code   RO          951    i.adv_mode_next_avail_get  ble_advertising.o
    0x00026b6a   0x00026b6a   0x00000012   Code   RO          952    i.adv_mode_next_get  ble_advertising.o
    0x00026b7c   0x00026b7c   0x00000012   Code   RO          953    i.adv_set_data_size_max_get  ble_advertising.o
    0x00026b8e   0x00026b8e   0x00000054   Code   RO          710    i.advertising_buttons_configure  bsp_btn_ble.o
    0x00026be2   0x00026be2   0x00000002   PAD
    0x00026be4   0x00026be4   0x00000070   Code   RO            4    i.advertising_init  main_p2cp.o
    0x00026c54   0x00026c54   0x00000024   Code   RO            5    i.advertising_start  main_p2cp.o
    0x00026c78   0x00026c78   0x000000bc   Code   RO         3317    i.app_error_fault_handler  app_error_weak.o
    0x00026d34   0x00026d34   0x0000001c   Code   RO         3257    i.app_error_handler_bare  app_error.o
    0x00026d50   0x00026d50   0x0000001e   Code   RO         3361    i.app_fifo_get      app_fifo.o
    0x00026d6e   0x00026d6e   0x00000024   Code   RO         3362    i.app_fifo_init     app_fifo.o
    0x00026d92   0x00026d92   0x00000022   Code   RO         3364    i.app_fifo_put      app_fifo.o
    0x00026db4   0x00026db4   0x00000010   Code   RO         3500    i.app_timer_cnt_get  app_timer2.o
    0x00026dc4   0x00026dc4   0x00000020   Code   RO         3501    i.app_timer_create  app_timer2.o
    0x00026de4   0x00026de4   0x0000006c   Code   RO         3502    i.app_timer_init    app_timer2.o
    0x00026e50   0x00026e50   0x00000036   Code   RO         3505    i.app_timer_start   app_timer2.o
    0x00026e86   0x00026e86   0x00000014   Code   RO         3506    i.app_timer_stop    app_timer2.o
    0x00026e9a   0x00026e9a   0x00000002   PAD
    0x00026e9c   0x00026e9c   0x00000054   Code   RO         3661    i.app_uart_get      app_uart_fifo.o
    0x00026ef0   0x00026ef0   0x000000dc   Code   RO         3662    i.app_uart_init     app_uart_fifo.o
    0x00026fcc   0x00026fcc   0x0000006c   Code   RO         3663    i.app_uart_put      app_uart_fifo.o
    0x00027038   0x00027038   0x0000000c   Code   RO         3742    i.app_util_critical_region_enter  app_util_platform.o
    0x00027044   0x00027044   0x00000048   Code   RO         3743    i.app_util_critical_region_exit  app_util_platform.o
    0x0002708c   0x0002708c   0x00000052   Code   RO          823    i.appearance_encode  ble_advdata.o
    0x000270de   0x000270de   0x0000007c   Code   RO         2687    i.apply_config      nrfx_uart.o
    0x0002715a   0x0002715a   0x0000007c   Code   RO         2932    i.apply_config      nrfx_uarte.o
    0x000271d6   0x000271d6   0x00000002   PAD
    0x000271d8   0x000271d8   0x0000003c   Code   RO         5005    i.backend_id_assign  nrf_log_frontend.o
    0x00027214   0x00027214   0x0000006c   Code   RO         1399    i.blcm_link_ctx_get  ble_link_ctx_manager.o
    0x00027280   0x00027280   0x0000016c   Code   RO          825    i.ble_advdata_encode  ble_advdata.o
    0x000273ec   0x000273ec   0x00000028   Code   RO          827    i.ble_advdata_parse  ble_advdata.o
    0x00027414   0x00027414   0x0000005c   Code   RO          828    i.ble_advdata_search  ble_advdata.o
    0x00027470   0x00027470   0x00000006   Code   RO          955    i.ble_advertising_conn_cfg_tag_set  ble_advertising.o
    0x00027476   0x00027476   0x00000108   Code   RO          956    i.ble_advertising_init  ble_advertising.o
    0x0002757e   0x0002757e   0x0000003c   Code   RO          958    i.ble_advertising_on_ble_evt  ble_advertising.o
    0x000275ba   0x000275ba   0x00000174   Code   RO          961    i.ble_advertising_start  ble_advertising.o
    0x0002772e   0x0002772e   0x00000002   PAD
    0x00027730   0x00027730   0x0000009c   Code   RO         1109    i.ble_conn_params_init  ble_conn_params.o
    0x000277cc   0x000277cc   0x00000014   Code   RO         1209    i.ble_conn_state_conn_idx  ble_conn_state.o
    0x000277e0   0x000277e0   0x0000001c   Code   RO         1223    i.ble_conn_state_valid  ble_conn_state.o
    0x000277fc   0x000277fc   0x00000076   Code   RO          831    i.ble_device_addr_encode  ble_advdata.o
    0x00027872   0x00027872   0x00000002   PAD
    0x00027874   0x00027874   0x00000170   Code   RO            7    i.ble_evt_handler   main_p2cp.o
    0x000279e4   0x000279e4   0x00000078   Code   RO          711    i.ble_evt_handler   bsp_btn_ble.o
    0x00027a5c   0x00027a5c   0x00000040   Code   RO         1111    i.ble_evt_handler   ble_conn_params.o
    0x00027a9c   0x00027a9c   0x000000b8   Code   RO         1224    i.ble_evt_handler   ble_conn_state.o
    0x00027b54   0x00027b54   0x0000007a   Code   RO         1672    i.ble_nus_data_send  ble_nus.o
    0x00027bce   0x00027bce   0x00000002   PAD
    0x00027bd0   0x00027bd0   0x00000110   Code   RO         1673    i.ble_nus_init      ble_nus.o
    0x00027ce0   0x00027ce0   0x00000044   Code   RO         1674    i.ble_nus_on_ble_evt  ble_nus.o
    0x00027d24   0x00027d24   0x00000012   Code   RO         1425    i.ble_srv_is_notification_enabled  ble_srv_common.o
    0x00027d36   0x00027d36   0x00000056   Code   RO            8    i.ble_stack_init    main_p2cp.o
    0x00027d8c   0x00027d8c   0x0000000c   Code   RO          468    i.bsp_board_button_idx_to_pin  boards.o
    0x00027d98   0x00027d98   0x00000030   Code   RO          473    i.bsp_board_led_invert  boards.o
    0x00027dc8   0x00027dc8   0x00000014   Code   RO          474    i.bsp_board_led_off  boards.o
    0x00027ddc   0x00027ddc   0x00000014   Code   RO          475    i.bsp_board_led_on  boards.o
    0x00027df0   0x00027df0   0x00000030   Code   RO          476    i.bsp_board_led_state_get  boards.o
    0x00027e20   0x00027e20   0x00000014   Code   RO          478    i.bsp_board_leds_off  boards.o
    0x00027e34   0x00027e34   0x00000014   Code   RO          479    i.bsp_board_leds_on  boards.o
    0x00027e48   0x00027e48   0x00000024   Code   RO          480    i.bsp_board_pin_to_button_idx  boards.o
    0x00027e6c   0x00027e6c   0x00000032   Code   RO          713    i.bsp_btn_ble_sleep_mode_prepare  bsp_btn_ble.o
    0x00027e9e   0x00027e9e   0x00000002   PAD
    0x00027ea0   0x00027ea0   0x000000c4   Code   RO          597    i.bsp_button_event_handler  bsp.o
    0x00027f64   0x00027f64   0x0000005c   Code   RO          601    i.bsp_event_to_button_action_assign  bsp.o
    0x00027fc0   0x00027fc0   0x00000020   Code   RO          602    i.bsp_indication_set  bsp.o
    0x00027fe0   0x00027fe0   0x00000388   Code   RO          604    i.bsp_led_indication  bsp.o
    0x00028368   0x00028368   0x0000000e   Code   RO          606    i.bsp_wakeup_button_enable  bsp.o
    0x00028376   0x00028376   0x00000002   PAD
    0x00028378   0x00028378   0x000000e8   Code   RO         5006    i.buf_prealloc      nrf_log_frontend.o
    0x00028460   0x00028460   0x0000002c   Code   RO         4447    i.buffer_add        nrf_fprintf_format.o
    0x0002848c   0x0002848c   0x00000018   Code   RO         5007    i.buffer_is_empty   nrf_log_frontend.o
    0x000284a4   0x000284a4   0x00000010   Code   RO         2265    i.channel_handler_get  nrfx_gpiote.o
    0x000284b4   0x000284b4   0x0000000c   Code   RO         2267    i.channel_port_get  nrfx_gpiote.o
    0x000284c0   0x000284c0   0x000001c8   Code   RO         1427    i.characteristic_add  ble_srv_common.o
    0x00028688   0x00028688   0x00000030   Code   RO         1735    i.clock_clk_started_notify  nrf_drv_clock.o
    0x000286b8   0x000286b8   0x00000028   Code   RO         1736    i.clock_irq_handler  nrf_drv_clock.o
    0x000286e0   0x000286e0   0x00000026   Code   RO         3508    i.compare_func      app_timer2.o
    0x00028706   0x00028706   0x00000028   Code   RO          963    i.config_is_valid   ble_advertising.o
    0x0002872e   0x0002872e   0x0000003c   Code   RO         1225    i.conn_handle_list_get  ble_conn_state.o
    0x0002876a   0x0002876a   0x0000005a   Code   RO          832    i.conn_int_check    ble_advdata.o
    0x000287c4   0x000287c4   0x00000068   Code   RO          833    i.conn_int_encode   ble_advdata.o
    0x0002882c   0x0002882c   0x00000010   Code   RO           11    i.conn_params_error_handler  main_p2cp.o
    0x0002883c   0x0002883c   0x0000005c   Code   RO           12    i.conn_params_init  main_p2cp.o
    0x00028898   0x00028898   0x00000054   Code   RO         1112    i.conn_params_negotiation  ble_conn_params.o
    0x000288ec   0x000288ec   0x00000054   Code   RO          714    i.connection_buttons_configure  bsp_btn_ble.o
    0x00028940   0x00028940   0x000000e8   Code   RO         1494    i.data_length_update  nrf_ble_gatt.o
    0x00028a28   0x00028a28   0x00000018   Code   RO         5008    i.dropped_sat16_get  nrf_log_frontend.o
    0x00028a40   0x00028a40   0x00000016   Code   RO         3820    i.drv_rtc_compare_disable  drv_rtc.o
    0x00028a56   0x00028a56   0x0000001a   Code   RO         3823    i.drv_rtc_compare_pending  drv_rtc.o
    0x00028a70   0x00028a70   0x0000005c   Code   RO         3824    i.drv_rtc_compare_set  drv_rtc.o
    0x00028acc   0x00028acc   0x0000000c   Code   RO         3825    i.drv_rtc_counter_get  drv_rtc.o
    0x00028ad8   0x00028ad8   0x00000128   Code   RO         3826    i.drv_rtc_init      drv_rtc.o
    0x00028c00   0x00028c00   0x00000024   Code   RO         3827    i.drv_rtc_irq_trigger  drv_rtc.o
    0x00028c24   0x00028c24   0x00000012   Code   RO         3829    i.drv_rtc_overflow_enable  drv_rtc.o
    0x00028c36   0x00028c36   0x00000010   Code   RO         3830    i.drv_rtc_overflow_pending  drv_rtc.o
    0x00028c46   0x00028c46   0x0000000e   Code   RO         3831    i.drv_rtc_start     drv_rtc.o
    0x00028c54   0x00028c54   0x0000000e   Code   RO         3832    i.drv_rtc_stop      drv_rtc.o
    0x00028c62   0x00028c62   0x000000fc   Code   RO         3837    i.drv_rtc_windowed_compare_set  drv_rtc.o
    0x00028d5e   0x00028d5e   0x00000018   Code   RO         3838    i.evt_disable       drv_rtc.o
    0x00028d76   0x00028d76   0x0000001c   Code   RO         3839    i.evt_enable        drv_rtc.o
    0x00028d92   0x00028d92   0x0000001c   Code   RO         3840    i.evt_pending       drv_rtc.o
    0x00028dae   0x00028dae   0x00000018   Code   RO         3367    i.fifo_get          app_fifo.o
    0x00028dc6   0x00028dc6   0x0000000a   Code   RO         3368    i.fifo_length       app_fifo.o
    0x00028dd0   0x00028dd0   0x0000000a   Code   RO         3664    i.fifo_length       app_uart_fifo.o
    0x00028dda   0x00028dda   0x00000012   Code   RO         3369    i.fifo_peek         app_fifo.o
    0x00028dec   0x00028dec   0x00000012   Code   RO         3370    i.fifo_put          app_fifo.o
    0x00028dfe   0x00028dfe   0x0000001e   Code   RO         1226    i.flag_toggle       ble_conn_state.o
    0x00028e1c   0x00028e1c   0x00000036   Code   RO          834    i.flags_encode      ble_advdata.o
    0x00028e52   0x00028e52   0x0000002c   Code   RO          964    i.flags_set         ble_advertising.o
    0x00028e7e   0x00028e7e   0x00000010   Code   RO         4831    i.fputc             retarget.o
    0x00028e8e   0x00028e8e   0x00000002   PAD
    0x00028e90   0x00028e90   0x00000080   Code   RO           13    i.gap_params_init   main_p2cp.o
    0x00028f10   0x00028f10   0x0000006c   Code   RO           14    i.gatt_evt_handler  main_p2cp.o
    0x00028f7c   0x00028f7c   0x00000044   Code   RO           15    i.gatt_init         main_p2cp.o
    0x00028fc0   0x00028fc0   0x0000003c   Code   RO         3509    i.get_now           app_timer2.o
    0x00028ffc   0x00028ffc   0x0000000e   Code   RO           16    i.idle_state_handle  main_p2cp.o
    0x0002900a   0x0002900a   0x00000002   PAD
    0x0002900c   0x0002900c   0x0000002c   Code   RO         1113    i.instance_get      ble_conn_params.o
    0x00029038   0x00029038   0x000000be   Code   RO         4448    i.int_print         nrf_fprintf_format.o
    0x000290f6   0x000290f6   0x00000002   PAD
    0x000290f8   0x000290f8   0x00000094   Code   RO         2689    i.interrupts_enable  nrfx_uart.o
    0x0002918c   0x0002918c   0x000000b4   Code   RO         2934    i.interrupts_enable  nrfx_uarte.o
    0x00029240   0x00029240   0x00000046   Code   RO         5010    i.invalid_packets_omit  nrf_log_frontend.o
    0x00029286   0x00029286   0x00000072   Code   RO         1114    i.is_conn_params_ok  ble_conn_params.o
    0x000292f8   0x000292f8   0x0000000c   Code   RO         1739    i.item_dequeue      nrf_drv_clock.o
    0x00029304   0x00029304   0x00000026   Code   RO         2268    i.latch_pending_read_and_check  nrfx_gpiote.o
    0x0002932a   0x0002932a   0x00000002   PAD
    0x0002932c   0x0002932c   0x00000028   Code   RO          608    i.leds_off          bsp.o
    0x00029354   0x00029354   0x00000018   Code   RO         1741    i.lfclk_stop        nrf_drv_clock.o
    0x0002936c   0x0002936c   0x00000018   Code   RO         1495    i.link_init         nrf_ble_gatt.o
    0x00029384   0x00029384   0x00000026   Code   RO           17    i.log_init          main_p2cp.o
    0x000293aa   0x000293aa   0x00000002   PAD
    0x000293ac   0x000293ac   0x000000cc   Code   RO         5011    i.log_skip          nrf_log_frontend.o
    0x00029478   0x00029478   0x000000d4   Code   RO           18    i.main              main_p2cp.o
    0x0002954c   0x0002954c   0x00000076   Code   RO          835    i.manuf_specific_data_encode  ble_advdata.o
    0x000295c2   0x000295c2   0x000000ca   Code   RO         4492    i.memobj_op         nrf_memobj.o
    0x0002968c   0x0002968c   0x00000038   Code   RO         5012    i.module_idx_get    nrf_log_frontend.o
    0x000296c4   0x000296c4   0x000000c8   Code   RO          836    i.name_encode       ble_advdata.o
    0x0002978c   0x0002978c   0x00000068   Code   RO         5885    i.nrf52_errata_136  system_nrf52805.o
    0x000297f4   0x000297f4   0x00000024   Code   RO         5952    i.nrf52_errata_217  system_nrf52805.o
    0x00029818   0x00029818   0x00000068   Code   RO         5975    i.nrf52_errata_31   system_nrf52805.o
    0x00029880   0x00029880   0x00000068   Code   RO         5980    i.nrf52_errata_36   system_nrf52805.o
    0x000298e8   0x000298e8   0x00000068   Code   RO         6003    i.nrf52_errata_66   system_nrf52805.o
    0x00029950   0x00029950   0x00000028   Code   RO         4087    i.nrf_atfifo_init   nrf_atfifo.o
    0x00029978   0x00029978   0x0000001c   Code   RO         4088    i.nrf_atfifo_item_alloc  nrf_atfifo.o
    0x00029994   0x00029994   0x0000001c   Code   RO         4089    i.nrf_atfifo_item_free  nrf_atfifo.o
    0x000299b0   0x000299b0   0x0000001c   Code   RO         4090    i.nrf_atfifo_item_get  nrf_atfifo.o
    0x000299cc   0x000299cc   0x0000001c   Code   RO         4091    i.nrf_atfifo_item_put  nrf_atfifo.o
    0x000299e8   0x000299e8   0x0000001e   Code   RO         4156    i.nrf_atflags_clear  nrf_atflags.o
    0x00029a06   0x00029a06   0x0000001e   Code   RO         4161    i.nrf_atflags_get   nrf_atflags.o
    0x00029a24   0x00029a24   0x0000001e   Code   RO         4163    i.nrf_atflags_set   nrf_atflags.o
    0x00029a42   0x00029a42   0x0000000e   Code   RO         4224    i.nrf_atomic_flag_clear_fetch  nrf_atomic.o
    0x00029a50   0x00029a50   0x0000000e   Code   RO         4225    i.nrf_atomic_flag_set  nrf_atomic.o
    0x00029a5e   0x00029a5e   0x00000016   Code   RO         4227    i.nrf_atomic_u32_add  nrf_atomic.o
    0x00029a74   0x00029a74   0x00000016   Code   RO         4228    i.nrf_atomic_u32_and  nrf_atomic.o
    0x00029a8a   0x00029a8a   0x00000016   Code   RO         4231    i.nrf_atomic_u32_fetch_and  nrf_atomic.o
    0x00029aa0   0x00029aa0   0x00000016   Code   RO         4233    i.nrf_atomic_u32_fetch_store  nrf_atomic.o
    0x00029ab6   0x00029ab6   0x00000016   Code   RO         4237    i.nrf_atomic_u32_or  nrf_atomic.o
    0x00029acc   0x00029acc   0x00000016   Code   RO         4239    i.nrf_atomic_u32_sub  nrf_atomic.o
    0x00029ae2   0x00029ae2   0x00000052   Code   RO         4361    i.nrf_balloc_alloc  nrf_balloc.o
    0x00029b34   0x00029b34   0x00000010   Code   RO         4362    i.nrf_balloc_block2idx  nrf_balloc.o
    0x00029b44   0x00029b44   0x00000030   Code   RO         4363    i.nrf_balloc_free   nrf_balloc.o
    0x00029b74   0x00029b74   0x0000000c   Code   RO         4364    i.nrf_balloc_idx2block  nrf_balloc.o
    0x00029b80   0x00029b80   0x0000003c   Code   RO         4365    i.nrf_balloc_init   nrf_balloc.o
    0x00029bbc   0x00029bbc   0x00000016   Code   RO         2269    i.nrf_bitmask_bit_is_set  nrfx_gpiote.o
    0x00029bd2   0x00029bd2   0x0000001e   Code   RO         1497    i.nrf_ble_gatt_att_mtu_periph_set  nrf_ble_gatt.o
    0x00029bf0   0x00029bf0   0x00000034   Code   RO         1501    i.nrf_ble_gatt_init  nrf_ble_gatt.o
    0x00029c24   0x00029c24   0x00000108   Code   RO         1502    i.nrf_ble_gatt_on_ble_evt  nrf_ble_gatt.o
    0x00029d2c   0x00029d2c   0x00000020   Code   RO         1616    i.nrf_ble_qwr_conn_handle_assign  nrf_ble_qwr.o
    0x00029d4c   0x00029d4c   0x00000032   Code   RO         1617    i.nrf_ble_qwr_init  nrf_ble_qwr.o
    0x00029d7e   0x00029d7e   0x0000007c   Code   RO         1618    i.nrf_ble_qwr_on_ble_evt  nrf_ble_qwr.o
    0x00029dfa   0x00029dfa   0x00000012   Code   RO         2101    i.nrf_clock_event_check  nrfx_clock.o
    0x00029e0c   0x00029e0c   0x00000012   Code   RO         2102    i.nrf_clock_event_clear  nrfx_clock.o
    0x00029e1e   0x00029e1e   0x00000002   PAD
    0x00029e20   0x00029e20   0x0000000c   Code   RO         2103    i.nrf_clock_int_disable  nrfx_clock.o
    0x00029e2c   0x00029e2c   0x00000008   Code   RO         2105    i.nrf_clock_task_trigger  nrfx_clock.o
    0x00029e34   0x00029e34   0x0000004c   Code   RO         1747    i.nrf_drv_clock_init  nrf_drv_clock.o
    0x00029e80   0x00029e80   0x00000030   Code   RO         1751    i.nrf_drv_clock_lfclk_release  nrf_drv_clock.o
    0x00029eb0   0x00029eb0   0x0000008c   Code   RO         1906    i.nrf_drv_uart_init  nrf_drv_uart.o
    0x00029f3c   0x00029f3c   0x00000044   Code   RO         3665    i.nrf_drv_uart_rx   app_uart_fifo.o
    0x00029f80   0x00029f80   0x00000044   Code   RO         3666    i.nrf_drv_uart_tx   app_uart_fifo.o
    0x00029fc4   0x00029fc4   0x0000002a   Code   RO         4408    i.nrf_fprintf       nrf_fprintf.o
    0x00029fee   0x00029fee   0x0000001c   Code   RO         4409    i.nrf_fprintf_buffer_flush  nrf_fprintf.o
    0x0002a00a   0x0002a00a   0x000001f0   Code   RO         4449    i.nrf_fprintf_fmt   nrf_fprintf_format.o
    0x0002a1fa   0x0002a1fa   0x00000028   Code   RO         2690    i.nrf_gpio_cfg      nrfx_uart.o
    0x0002a222   0x0002a222   0x00000028   Code   RO         2935    i.nrf_gpio_cfg      nrfx_uarte.o
    0x0002a24a   0x0002a24a   0x0000001a   Code   RO         2692    i.nrf_gpio_cfg_input  nrfx_uart.o
    0x0002a264   0x0002a264   0x0000001a   Code   RO         2937    i.nrf_gpio_cfg_input  nrfx_uarte.o
    0x0002a27e   0x0002a27e   0x00000018   Code   RO         2693    i.nrf_gpio_cfg_output  nrfx_uart.o
    0x0002a296   0x0002a296   0x00000018   Code   RO         2938    i.nrf_gpio_cfg_output  nrfx_uarte.o
    0x0002a2ae   0x0002a2ae   0x00000032   Code   RO         2272    i.nrf_gpio_cfg_sense_set  nrfx_gpiote.o
    0x0002a2e0   0x0002a2e0   0x00000034   Code   RO         2273    i.nrf_gpio_latches_read_and_clear  nrfx_gpiote.o
    0x0002a314   0x0002a314   0x00000016   Code   RO         2694    i.nrf_gpio_pin_set  nrfx_uart.o
    0x0002a32a   0x0002a32a   0x00000016   Code   RO         2939    i.nrf_gpio_pin_set  nrfx_uarte.o
    0x0002a340   0x0002a340   0x0000003a   Code   RO          483    i.nrf_gpio_pin_write  boards.o
    0x0002a37a   0x0002a37a   0x00000002   PAD
    0x0002a37c   0x0002a37c   0x0000000c   Code   RO         2278    i.nrf_gpiote_event_addr_get  nrfx_gpiote.o
    0x0002a388   0x0002a388   0x0000001c   Code   RO         2279    i.nrf_gpiote_event_clear  nrfx_gpiote.o
    0x0002a3a4   0x0002a3a4   0x00000016   Code   RO         2280    i.nrf_gpiote_event_is_set  nrfx_gpiote.o
    0x0002a3ba   0x0002a3ba   0x00000002   PAD
    0x0002a3bc   0x0002a3bc   0x00000054   Code   RO         5013    i.nrf_log_backend_add  nrf_log_frontend.o
    0x0002a410   0x0002a410   0x00000002   Code   RO         4867    i.nrf_log_backend_rtt_flush  nrf_log_backend_rtt.o
    0x0002a412   0x0002a412   0x00000008   Code   RO         4868    i.nrf_log_backend_rtt_init  nrf_log_backend_rtt.o
    0x0002a41a   0x0002a41a   0x00000002   Code   RO         4869    i.nrf_log_backend_rtt_panic_set  nrf_log_backend_rtt.o
    0x0002a41c   0x0002a41c   0x00000020   Code   RO         4870    i.nrf_log_backend_rtt_put  nrf_log_backend_rtt.o
    0x0002a43c   0x0002a43c   0x000000f2   Code   RO         4935    i.nrf_log_backend_serial_put  nrf_log_backend_serial.o
    0x0002a52e   0x0002a52e   0x00000002   PAD
    0x0002a530   0x0002a530   0x00000038   Code   RO         5015    i.nrf_log_color_id_get  nrf_log_frontend.o
    0x0002a568   0x0002a568   0x00000028   Code   RO         4969    i.nrf_log_default_backends_init  nrf_log_default_backends.o
    0x0002a590   0x0002a590   0x0000031c   Code   RO         5016    i.nrf_log_frontend_dequeue  nrf_log_frontend.o
    0x0002a8ac   0x0002a8ac   0x00000014   Code   RO         5018    i.nrf_log_frontend_std_0  nrf_log_frontend.o
    0x0002a8c0   0x0002a8c0   0x00000018   Code   RO         5019    i.nrf_log_frontend_std_1  nrf_log_frontend.o
    0x0002a8d8   0x0002a8d8   0x00000020   Code   RO         5020    i.nrf_log_frontend_std_2  nrf_log_frontend.o
    0x0002a8f8   0x0002a8f8   0x000000bc   Code   RO         5209    i.nrf_log_hexdump_entry_process  nrf_log_str_formatter.o
    0x0002a9b4   0x0002a9b4   0x00000048   Code   RO         5025    i.nrf_log_init      nrf_log_frontend.o
    0x0002a9fc   0x0002a9fc   0x00000014   Code   RO         5026    i.nrf_log_module_cnt_get  nrf_log_frontend.o
    0x0002aa10   0x0002aa10   0x00000024   Code   RO         5030    i.nrf_log_module_name_get  nrf_log_frontend.o
    0x0002aa34   0x0002aa34   0x00000034   Code   RO         5031    i.nrf_log_panic     nrf_log_frontend.o
    0x0002aa68   0x0002aa68   0x000000c8   Code   RO         5210    i.nrf_log_std_entry_process  nrf_log_str_formatter.o
    0x0002ab30   0x0002ab30   0x0000007a   Code   RO         4493    i.nrf_memobj_alloc  nrf_memobj.o
    0x0002abaa   0x0002abaa   0x00000040   Code   RO         4494    i.nrf_memobj_free   nrf_memobj.o
    0x0002abea   0x0002abea   0x00000010   Code   RO         4495    i.nrf_memobj_get    nrf_memobj.o
    0x0002abfa   0x0002abfa   0x0000000c   Code   RO         4496    i.nrf_memobj_pool_init  nrf_memobj.o
    0x0002ac06   0x0002ac06   0x0000001e   Code   RO         4497    i.nrf_memobj_put    nrf_memobj.o
    0x0002ac24   0x0002ac24   0x00000022   Code   RO         4498    i.nrf_memobj_read   nrf_memobj.o
    0x0002ac46   0x0002ac46   0x00000022   Code   RO         4499    i.nrf_memobj_write  nrf_memobj.o
    0x0002ac68   0x0002ac68   0x00000040   Code   RO         4572    i.nrf_pwr_mgmt_init  nrf_pwr_mgmt.o
    0x0002aca8   0x0002aca8   0x00000016   Code   RO         4573    i.nrf_pwr_mgmt_run  nrf_pwr_mgmt.o
    0x0002acbe   0x0002acbe   0x00000010   Code   RO           19    i.nrf_qwr_error_handler  main_p2cp.o
    0x0002acce   0x0002acce   0x0000001c   Code   RO         4648    i.nrf_ringbuf_init  nrf_ringbuf.o
    0x0002acea   0x0002acea   0x0000000c   Code   RO         3841    i.nrf_rtc_cc_get    drv_rtc.o
    0x0002acf6   0x0002acf6   0x0000000a   Code   RO         3842    i.nrf_rtc_cc_set    drv_rtc.o
    0x0002ad00   0x0002ad00   0x00000008   Code   RO         3843    i.nrf_rtc_counter_get  drv_rtc.o
    0x0002ad08   0x0002ad08   0x0000000e   Code   RO         3844    i.nrf_rtc_event_clear  drv_rtc.o
    0x0002ad16   0x0002ad16   0x00000006   Code   RO         3845    i.nrf_rtc_event_disable  drv_rtc.o
    0x0002ad1c   0x0002ad1c   0x00000006   Code   RO         3846    i.nrf_rtc_event_enable  drv_rtc.o
    0x0002ad22   0x0002ad22   0x00000006   Code   RO         3847    i.nrf_rtc_int_disable  drv_rtc.o
    0x0002ad28   0x0002ad28   0x00000006   Code   RO         3848    i.nrf_rtc_int_enable  drv_rtc.o
    0x0002ad2e   0x0002ad2e   0x00000006   Code   RO         3849    i.nrf_rtc_task_trigger  drv_rtc.o
    0x0002ad34   0x0002ad34   0x00000018   Code   RO         5674    i.nrf_sdh_ble_app_ram_start_get  nrf_sdh_ble.o
    0x0002ad4c   0x0002ad4c   0x0000019c   Code   RO         5675    i.nrf_sdh_ble_default_cfg_set  nrf_sdh_ble.o
    0x0002aee8   0x0002aee8   0x0000014c   Code   RO         5676    i.nrf_sdh_ble_enable  nrf_sdh_ble.o
    0x0002b034   0x0002b034   0x00000074   Code   RO         5677    i.nrf_sdh_ble_evts_poll  nrf_sdh_ble.o
    0x0002b0a8   0x0002b0a8   0x00000084   Code   RO         5546    i.nrf_sdh_enable_request  nrf_sdh.o
    0x0002b12c   0x0002b12c   0x00000030   Code   RO         5547    i.nrf_sdh_evts_poll  nrf_sdh.o
    0x0002b15c   0x0002b15c   0x0000000c   Code   RO         5548    i.nrf_sdh_is_enabled  nrf_sdh.o
    0x0002b168   0x0002b168   0x00000054   Code   RO         5733    i.nrf_sdh_soc_evts_poll  nrf_sdh_soc.o
    0x0002b1bc   0x0002b1bc   0x00000006   Code   RO         5553    i.nrf_section_iter_get  nrf_sdh.o
    0x0002b1c2   0x0002b1c2   0x00000014   Code   RO         4706    i.nrf_section_iter_init  nrf_section_iter.o
    0x0002b1d6   0x0002b1d6   0x0000002e   Code   RO         4707    i.nrf_section_iter_item_set  nrf_section_iter.o
    0x0002b204   0x0002b204   0x0000002e   Code   RO         4708    i.nrf_section_iter_next  nrf_section_iter.o
    0x0002b232   0x0002b232   0x00000028   Code   RO         4741    i.nrf_sortlist_add  nrf_sortlist.o
    0x0002b25a   0x0002b25a   0x00000008   Code   RO         4743    i.nrf_sortlist_peek  nrf_sortlist.o
    0x0002b262   0x0002b262   0x00000018   Code   RO         4744    i.nrf_sortlist_pop  nrf_sortlist.o
    0x0002b27a   0x0002b27a   0x00000026   Code   RO         4745    i.nrf_sortlist_remove  nrf_sortlist.o
    0x0002b2a0   0x0002b2a0   0x00000040   Code   RO         4797    i.nrf_strerror_find  nrf_strerror.o
    0x0002b2e0   0x0002b2e0   0x0000001c   Code   RO         4798    i.nrf_strerror_get  nrf_strerror.o
    0x0002b2fc   0x0002b2fc   0x0000000c   Code   RO         2695    i.nrf_uart_errorsrc_get_and_clear  nrfx_uart.o
    0x0002b308   0x0002b308   0x0000000e   Code   RO         2696    i.nrf_uart_event_check  nrfx_uart.o
    0x0002b316   0x0002b316   0x0000000e   Code   RO         2697    i.nrf_uart_event_clear  nrfx_uart.o
    0x0002b324   0x0002b324   0x0000000c   Code   RO         2698    i.nrf_uart_hwfc_pins_set  nrfx_uart.o
    0x0002b330   0x0002b330   0x00000006   Code   RO         2699    i.nrf_uart_int_disable  nrfx_uart.o
    0x0002b336   0x0002b336   0x00000006   Code   RO         2700    i.nrf_uart_int_enable  nrfx_uart.o
    0x0002b33c   0x0002b33c   0x00000012   Code   RO         2701    i.nrf_uart_int_enable_check  nrfx_uart.o
    0x0002b34e   0x0002b34e   0x00000006   Code   RO         2702    i.nrf_uart_task_trigger  nrfx_uart.o
    0x0002b354   0x0002b354   0x0000000e   Code   RO         2703    i.nrf_uart_txrx_pins_set  nrfx_uart.o
    0x0002b362   0x0002b362   0x0000000c   Code   RO         2940    i.nrf_uarte_errorsrc_get_and_clear  nrfx_uarte.o
    0x0002b36e   0x0002b36e   0x0000000e   Code   RO         2941    i.nrf_uarte_event_check  nrfx_uarte.o
    0x0002b37c   0x0002b37c   0x0000000e   Code   RO         2942    i.nrf_uarte_event_clear  nrfx_uarte.o
    0x0002b38a   0x0002b38a   0x0000000c   Code   RO         2943    i.nrf_uarte_hwfc_pins_set  nrfx_uarte.o
    0x0002b396   0x0002b396   0x00000006   Code   RO         2944    i.nrf_uarte_int_disable  nrfx_uarte.o
    0x0002b39c   0x0002b39c   0x00000006   Code   RO         2945    i.nrf_uarte_int_enable  nrfx_uarte.o
    0x0002b3a2   0x0002b3a2   0x0000000a   Code   RO         2946    i.nrf_uarte_rx_amount_get  nrfx_uarte.o
    0x0002b3ac   0x0002b3ac   0x0000000c   Code   RO         2947    i.nrf_uarte_shorts_disable  nrfx_uarte.o
    0x0002b3b8   0x0002b3b8   0x00000006   Code   RO         2948    i.nrf_uarte_task_trigger  nrfx_uarte.o
    0x0002b3be   0x0002b3be   0x0000000a   Code   RO         2949    i.nrf_uarte_tx_amount_get  nrfx_uarte.o
    0x0002b3c8   0x0002b3c8   0x0000000e   Code   RO         2950    i.nrf_uarte_txrx_pins_set  nrfx_uarte.o
    0x0002b3d6   0x0002b3d6   0x00000002   PAD
    0x0002b3d8   0x0002b3d8   0x00000014   Code   RO         1754    i.nrf_wdt_started   nrf_drv_clock.o
    0x0002b3ec   0x0002b3ec   0x00000014   Code   RO         2110    i.nrfx_clock_enable  nrfx_clock.o
    0x0002b400   0x0002b400   0x00000020   Code   RO         2113    i.nrfx_clock_init   nrfx_clock.o
    0x0002b420   0x0002b420   0x0000002c   Code   RO         2116    i.nrfx_clock_lfclk_stop  nrfx_clock.o
    0x0002b44c   0x0002b44c   0x00000018   Code   RO         3850    i.nrfx_coredep_delay_us  drv_rtc.o
    0x0002b464   0x0002b464   0x00000008   Code   RO         2118    i.nrfx_get_irq_number  nrfx_clock.o
    0x0002b46c   0x0002b46c   0x00000008   Code   RO         2704    i.nrfx_get_irq_number  nrfx_uart.o
    0x0002b474   0x0002b474   0x00000008   Code   RO         2951    i.nrfx_get_irq_number  nrfx_uarte.o
    0x0002b47c   0x0002b47c   0x00000014   Code   RO         2952    i.nrfx_is_in_ram    nrfx_uarte.o
    0x0002b490   0x0002b490   0x000000b0   Code   RO         2119    i.nrfx_power_clock_irq_init  nrfx_clock.o
    0x0002b540   0x0002b540   0x0000004e   Code   RO         2634    i.nrfx_prs_acquire  nrfx_prs.o
    0x0002b58e   0x0002b58e   0x00000002   PAD
    0x0002b590   0x0002b590   0x00000014   Code   RO         2705    i.nrfx_uart_0_irq_handler  nrfx_uart.o
    0x0002b5a4   0x0002b5a4   0x00000088   Code   RO         2707    i.nrfx_uart_init    nrfx_uart.o
    0x0002b62c   0x0002b62c   0x00000124   Code   RO         2708    i.nrfx_uart_rx      nrfx_uart.o
    0x0002b750   0x0002b750   0x0000008c   Code   RO         2713    i.nrfx_uart_tx      nrfx_uart.o
    0x0002b7dc   0x0002b7dc   0x00000024   Code   RO         2715    i.nrfx_uart_tx_in_progress  nrfx_uart.o
    0x0002b800   0x0002b800   0x00000014   Code   RO         2953    i.nrfx_uarte_0_irq_handler  nrfx_uarte.o
    0x0002b814   0x0002b814   0x00000080   Code   RO         2955    i.nrfx_uarte_init   nrfx_uarte.o
    0x0002b894   0x0002b894   0x00000138   Code   RO         2956    i.nrfx_uarte_rx     nrfx_uarte.o
    0x0002b9cc   0x0002b9cc   0x000000c0   Code   RO         2959    i.nrfx_uarte_tx     nrfx_uarte.o
    0x0002ba8c   0x0002ba8c   0x00000020   Code   RO         2961    i.nrfx_uarte_tx_in_progress  nrfx_uarte.o
    0x0002baac   0x0002baac   0x000000a8   Code   RO           20    i.nus_data_handler  main_p2cp.o
    0x0002bb54   0x0002bb54   0x000000f0   Code   RO           21    i.on_adv_evt        main_p2cp.o
    0x0002bc44   0x0002bc44   0x00000014   Code   RO         3510    i.on_compare1_evt   app_timer2.o
    0x0002bc58   0x0002bc58   0x00000020   Code   RO         3511    i.on_compare_evt    app_timer2.o
    0x0002bc78   0x0002bc78   0x0000002c   Code   RO           22    i.on_conn_params_evt  main_p2cp.o
    0x0002bca4   0x0002bca4   0x00000030   Code   RO         1115    i.on_conn_params_update  ble_conn_params.o
    0x0002bcd4   0x0002bcd4   0x00000070   Code   RO         1116    i.on_connect        ble_conn_params.o
    0x0002bd44   0x0002bd44   0x00000074   Code   RO         1675    i.on_connect        ble_nus.o
    0x0002bdb8   0x0002bdb8   0x0000000e   Code   RO          965    i.on_connected      ble_advertising.o
    0x0002bdc6   0x0002bdc6   0x00000002   PAD
    0x0002bdc8   0x0002bdc8   0x000000c4   Code   RO         1503    i.on_connected_evt  nrf_ble_gatt.o
    0x0002be8c   0x0002be8c   0x00000054   Code   RO         1504    i.on_data_length_update_evt  nrf_ble_gatt.o
    0x0002bee0   0x0002bee0   0x00000030   Code   RO         1505    i.on_data_length_update_request_evt  nrf_ble_gatt.o
    0x0002bf10   0x0002bf10   0x00000032   Code   RO         1117    i.on_disconnect     ble_conn_params.o
    0x0002bf42   0x0002bf42   0x00000032   Code   RO          966    i.on_disconnected   ble_advertising.o
    0x0002bf74   0x0002bf74   0x00000014   Code   RO         1506    i.on_disconnected_evt  nrf_ble_gatt.o
    0x0002bf88   0x0002bf88   0x000000c8   Code   RO         1507    i.on_exchange_mtu_request_evt  nrf_ble_gatt.o
    0x0002c050   0x0002c050   0x00000064   Code   RO         1508    i.on_exchange_mtu_rsp_evt  nrf_ble_gatt.o
    0x0002c0b4   0x0002c0b4   0x00000048   Code   RO         1676    i.on_hvx_tx_complete  ble_nus.o
    0x0002c0fc   0x0002c0fc   0x0000001c   Code   RO         3512    i.on_overflow_evt   app_timer2.o
    0x0002c118   0x0002c118   0x0000006a   Code   RO         1619    i.on_rw_authorize_request  nrf_ble_qwr.o
    0x0002c182   0x0002c182   0x00000040   Code   RO          967    i.on_terminated     ble_advertising.o
    0x0002c1c2   0x0002c1c2   0x00000002   Code   RO         1620    i.on_user_mem_release  nrf_ble_qwr.o
    0x0002c1c4   0x0002c1c4   0x00000020   Code   RO         1621    i.on_user_mem_request  nrf_ble_qwr.o
    0x0002c1e4   0x0002c1e4   0x00000058   Code   RO         1118    i.on_write          ble_conn_params.o
    0x0002c23c   0x0002c23c   0x00000094   Code   RO         1677    i.on_write          ble_nus.o
    0x0002c2d0   0x0002c2d0   0x00000016   Code   RO          968    i.phy_is_valid      ble_advertising.o
    0x0002c2e6   0x0002c2e6   0x00000002   PAD
    0x0002c2e8   0x0002c2e8   0x000000c0   Code   RO         2319    i.port_event_handle  nrfx_gpiote.o
    0x0002c3a8   0x0002c3a8   0x00000010   Code   RO         2320    i.port_handler_pin_get  nrfx_gpiote.o
    0x0002c3b8   0x0002c3b8   0x00000010   Code   RO         2321    i.port_handler_polarity_get  nrfx_gpiote.o
    0x0002c3c8   0x0002c3c8   0x00000048   Code   RO         5212    i.postfix_process   nrf_log_str_formatter.o
    0x0002c410   0x0002c410   0x0000001c   Code   RO           23    i.power_management_init  main_p2cp.o
    0x0002c42c   0x0002c42c   0x000000a4   Code   RO         5213    i.prefix_process    nrf_log_str_formatter.o
    0x0002c4d0   0x0002c4d0   0x00000018   Code   RO         2636    i.prs_box_get       nrfx_prs.o
    0x0002c4e8   0x0002c4e8   0x00000010   Code   RO         5678    i.ram_end_address_get  nrf_sdh_ble.o
    0x0002c4f8   0x0002c4f8   0x00000028   Code   RO         1228    i.record_activate   ble_conn_state.o
    0x0002c520   0x0002c520   0x00000020   Code   RO         1229    i.record_invalidate  ble_conn_state.o
    0x0002c540   0x0002c540   0x00000048   Code   RO         1230    i.record_purge_disconnected  ble_conn_state.o
    0x0002c588   0x0002c588   0x00000014   Code   RO         1231    i.record_set_disconnected  ble_conn_state.o
    0x0002c59c   0x0002c59c   0x0000003e   Code   RO         3513    i.rtc_irq           app_timer2.o
    0x0002c5da   0x0002c5da   0x00000002   PAD
    0x0002c5dc   0x0002c5dc   0x0000007c   Code   RO         3514    i.rtc_schedule      app_timer2.o
    0x0002c658   0x0002c658   0x000000a4   Code   RO         3515    i.rtc_update        app_timer2.o
    0x0002c6fc   0x0002c6fc   0x0000003e   Code   RO         2718    i.rx_byte           nrfx_uart.o
    0x0002c73a   0x0002c73a   0x0000001c   Code   RO         2719    i.rx_done_event     nrfx_uart.o
    0x0002c756   0x0002c756   0x0000001c   Code   RO         2964    i.rx_done_event     nrfx_uarte.o
    0x0002c772   0x0002c772   0x00000022   Code   RO         2720    i.rx_enable         nrfx_uart.o
    0x0002c794   0x0002c794   0x000000a4   Code   RO         5555    i.sd_nvic_EnableIRQ  nrf_sdh.o
    0x0002c838   0x0002c838   0x00000068   Code   RO         3748    i.sd_nvic_critical_region_enter  app_util_platform.o
    0x0002c8a0   0x0002c8a0   0x00000090   Code   RO         1755    i.sd_state_evt_handler  nrf_drv_clock.o
    0x0002c930   0x0002c930   0x0000003c   Code   RO         5556    i.sdh_request_observer_notify  nrf_sdh.o
    0x0002c96c   0x0002c96c   0x00000034   Code   RO         5557    i.sdh_state_observer_notify  nrf_sdh.o
    0x0002c9a0   0x0002c9a0   0x00000018   Code   RO         1119    i.send_error_evt    ble_conn_params.o
    0x0002c9b8   0x0002c9b8   0x00000024   Code   RO         1120    i.send_update_request  ble_conn_params.o
    0x0002c9dc   0x0002c9dc   0x00000084   Code   RO         4871    i.serial_tx         nrf_log_backend_rtt.o
    0x0002ca60   0x0002ca60   0x00000096   Code   RO          837    i.service_data_encode  ble_advdata.o
    0x0002caf6   0x0002caf6   0x00000002   PAD
    0x0002caf8   0x0002caf8   0x0000005c   Code   RO           24    i.services_init     main_p2cp.o
    0x0002cb54   0x0002cb54   0x00000030   Code   RO          969    i.set_adv_mode_directed  ble_advertising.o
    0x0002cb84   0x0002cb84   0x00000024   Code   RO          970    i.set_adv_mode_directed_high_duty  ble_advertising.o
    0x0002cba8   0x0002cba8   0x0000005c   Code   RO          971    i.set_adv_mode_fast  ble_advertising.o
