:020000040002F8
:1060000038710020C1630200C9630200CB63020043
:10601000CD630200CF630200D163020000000000E4
:10602000000000000000000000000000D363020038
:10603000D563020000000000D7630200D9630200AC
:1060400055660200DB63020099690200DB6302000F
:10605000DB630200DB630200B1650200DB63020068
:10606000DB630200DB630200DB630200DB63020030
:10607000DB630200DB630200DB630200DB63020020
:10608000DB630200AD660200DB630200DB6302003B
:10609000DB630200DB630200BD660200DB6302001B
:1060A000DB630200DB630200DB630200DB630200F0
:1060B000DB630200DB630200000000000000000060
:1060C000DB630200DB630200DB630200DB630200D0
:1060D000DB630200DB630200DB6302000000000000
:1060E00000000000000000000000000000000000B0
:1060F00000000000000000000000000000000000A0
:10610000000000000000000000000000000000008F
:10611000000000000000000000000000000000007F
:10612000000000000000000000000000000000006F
:10613000000000000000000000000000000000005F
:10614000000000000000000000000000000000004F
:10615000000000000000000000000000000000003F
:10616000000000000000000000000000000000002F
:10617000000000000000000000000000000000001F
:10618000000000000000000000000000000000000F
:1061900000000000000000000000000000000000FF
:1061A00000000000000000000000000000000000EF
:1061B00000000000000000000000000000000000DF
:1061C00000000000000000000000000000000000CF
:1061D00000000000000000000000000000000000BF
:1061E00000000000000000000000000000000000AF
:1061F000000000000000000000000000000000009F
:10620000DFF80CD000F096F900480047B1B4020066
:106210003871002030B450E8012F93B2C489234470
:106220008489A34228BF1B1B0489A34202BFBFF37A
:106230002F8F002007E0C3EA020340E80134002C5E
:10624000E9D14FF001000A6030BC704750E8012FDF
:10625000C2EA024240E801210029F7D1704730B478
:1062600050E8022F1FFAA2F3C488A34202BFBFF373
:106270002F8F00200DE0C48923448489A34228BFC6
:106280001B1BC2EA034340E80234002CE8D14FF064
:1062900001000A6030BC704750E8022FC2EA224277
:1062A00040E802210029F7D17047034653E8022F46
:1062B000D988B2EB324F4FF0000017BF92B241EADB
:1062C000014142EA014104E05A68B2EB324F08BF93
:1062D000012043E80212002AE8D1704730B4044696
:1062E00054E8000F0D4644E80053002BF8D1156028
:1062F00030BC704730B4044654E8000F40EA010552
:1063000044E80053002BF7D1156030BC704730B41F
:10631000044654E8000F00EA010544E80053002B4E
:10632000F7D1156030BC704730B4044654E8000F14
:1063300080EA010544E80053002BF7D1156030BC1A
:10634000704730B4044654E8000F00EB010544E800
:106350000053002BF7D1156030BC704730B40446B1
:1063600054E8000FA0EB010544E80053002BF7D1DF
:10637000156030BC704770B404464FF0000054E81C
:10638000006F0D68AE4207BF44E80023012044E8D7
:1063900000630E60002B1CBF0020F0E770BC70474C
:1063A00030B4044654E8000F88422CBF451A054615
:1063B00044E80053002BF5D1156030BC7047000055
:1063C0000648804706480047FEE7FEE7FEE7FEE78F
:1063D000FEE7FEE7FEE7FEE7FEE7FEE7C166020036
:1063E000016202002DE9F05F0546002092469B46BF
:1063F00088460646814640241BE0284641464746DB
:10640000224600F087F853465A46C01A914110D3ED
:1064100011461846224600F016F82D1A67EB0108BF
:106420004F4622460120002100F00DF817EB00092D
:106430004E41201EA4F10104DFDC484631462A46C5
:106440004346BDE8F09F202A04DB203A00FA02F11F
:10645000002070479140C2F1200320FA03F3194352
:106460009040704700487047D032030010B5431A7F
:10647000934209D28318881803E010F8011D03F82D
:10648000011D521EF9D210BD40EA01039B0703D043
:1064900009E008C9121F08C0042AFAD203E011F863
:1064A000013B00F8013B521EF9D210BDD2B201E00F
:1064B00000F8012B491EFBD270470022F6E710B509
:1064C00013460A4604461946FFF7F0FF204610BD62
:1064D000421C10F8011B0029FBD1801A704710B52F
:1064E000002200E0521C835C8C5CA34201D1002B93
:1064F000F8D1D8B2E1B2401A10BD30B50446002040
:10650000034600E05B1C934203D2E05CCD5C401B81
:10651000F8D030BD202A04DB203A21FA02F0002115
:10652000704721FA02F3D040C2F1200291400843A3
:1065300019467047064C074D06E0E06840F001033D
:1065400094E8070098471034AC42F6D3FFF75CFE9E
:10655000884A0300A84A030070B58C1810F8015B44
:1065600015F0070301D110F8013B2A1106D110F8EC
:10657000012B03E010F8016B01F8016B5B1EF9D1F0
:106580002B0705D40023521E0DD401F8013BFAE776
:1065900010F8013BCB1A921C03E013F8015B01F8E1
:1065A000015B521EF9D5A142D8D3002070BD000076
:1065B0002DE9F8430025DFF894804FF4807601241C
:1065C0002F460095304606F0C7FB38B1D8F80403D3
:1065D000204203D0304606F0B5FB2543361D64004B
:1065E0007F1CB6B2082FEDD34FF4BE74204606F0E0
:1065F000B3FB48B1204606F0A5FB45F000456A46CE
:106600000121002006F06EFB15F0FF0F16D00126C9
:1066100000242E420ED008EB8401D1F81005D1F8E9
:106620001015C0F304200A4AC1F3014152F8242096
:1066300002B190477600641C082CEAD3002D02DAE0
:10664000684609F051FFBDE8F88300000060004093
:106650008448002070B54FF48076304605F0C2FEC5
:10666000114CB50560B1304605F0C3FE0120C5F8F8
:106670000803607920B901206071216800208847F3
:106680004FF48276304605F0ADFE00280AD0304641
:1066900005F0AFFE0220C5F808032168BDE8704090
:1066A0000120084770BD0000843A002002490248DA
:1066B000091F096800680847D83A002007F096B912
:1066C000F0B5A449A4484FF080540B68D4F83021A9
:1066D0000078D4F83411551CC0F3031006D094464A
:1066E00001270026BCF1060F03D00AE003F0FF0CDF
:1066F000F6E7B4F82453DFF864C2C5F30425CCF8F8
:106700000050DDB2062D06D1032804D1DFF854C2B3
:10671000934DCCF87450551C04D09446BCF1060F30
:1067200003D00AE003F0FF0CF8E7D4F84452DFF896
:1067300038C2C5F34235CCF80050DDB2062D08D181
:10674000032806D1894DD5F800C02CF0807CC5F80F
:1067500000C0551C04D09446BCF1060F03D00BE0DA
:1067600003F0FF0CF8E74FF08045C5F80C61C5F861
:1067700010617D4D2D1F2E60DDB2062D08D103283E
:1067800006D1DFF8E4C103250CF1640CCCF800500D
:10679000DDB2062D10D103280ED1DFF8D4C10525B6
:1067A000CCF80050724D78352F60714D08352E6051
:1067B0000CF104063F253560551C04D016460D46E5
:1067C000062E03D05BE0DEB20546F9E7ED1E012D93
:1067D00055D9684D2D68684E3560664D2D1D2D6864
:1067E000361D3560634D08352D68361D3560614DA9
:1067F0000C352D68361D35605E4D10352D68361D03
:1068000035605C4D14352D68361D3560594D183591
:106810002D68594E20363560564D1C352D68361D75
:106820003560544D20352D68361D3560514D243569
:106830002D68361D35604F4D28352D68361D356065
:106840004C4D2C352D68361D35604A4D30352D6840
:10685000494E40363560474D34352D68361D35601C
:10686000444D38352D68361D3560424D3C352D6818
:10687000361D35603F4D40352D68361D3560551C41
:1068800003D01646062E02D007E0DEB2FAE7D4F8AF
:1068900058523A4E05F04F053560551C03D013464B
:1068A000062B02D008E0DBB2FAE735480368DB07C5
:1068B00002D06FF001030360062A07D1C91E022926
:1068C00004D93048016841F4806101602748743878
:1068D000016841F470010160BFF34F8FBFF36F8F08
:1068E000D4E94C104FF01022062907D1C01E03280E
:1068F00004D9D2F808021C491C310860D2F8000201
:10690000002803DBD2F8040200281FDA012007F078
:1069100021FD1521C2F800121B480368002BFCD092
:10692000C2F8041201680029FCD0002007F012FD13
:10693000BFF34F8F0D48F0380168144A01F4E0614D
:1069400011430160BFF34F8F00BFFDE711491048AD
:106950000860F0BDE00F00F0E80F00F040350140A6
:106960000DF0ADBA00C007403C050040FCED00E072
:10697000105600400404001020C50040E40E004002
:10698000000400403C17004000E401400400FA0508
:106990000090D003983B00200148006800470000A9
:1069A0008C3A002002E008C8121F08C1002AFAD160
:1069B00070477047002001E001C1121F002AFBD17F
:1069C000704700000121202803DA8140054801407A
:1069D00003E0402802DA2038814009B101207047E5
:1069E00000207047FC06FFBD2DE9F843804643F2C6
:1069F000020659B9694608F04BFFB04202D008B10F
:106A000000F0C6F99DF80000800744D400214046FC
:106A100008F048FF05003ED0112D3CD01F4820490A
:106A2000401AC708022000EB07440D2D0AD00B2D99
:106A30001DD0B5421FD11B4920464246BDE8F84350
:106A400006F090BB20464246174906F08BFB132107
:106A5000404676DF00281ED007F07AF8024601B0E3
:106A600020464346BDE8F04310A106F082BB204615
:106A700042461C49E2E7284607F06AF80246012030
:106A800000EB0740434618A106F073FB2846BDE81B
:106A9000F84300F07DB9BDE8F8830000084B03001F
:106AA000B84A0300D03B03005C3B030073645F62A1
:106AB0006C655F6761705F646973636F6E6E656359
:106AC0007428292072657475726E656420257320A0
:106AD0006F6E20636F6E6E5F68616E646C652025FB
:106AE000642E00001C3C0300417373657274696E70
:106AF000672E20706D5F636F6E6E5F736563757276
:106B00006528292072657475726E6564202573206E
:106B10006F6E20636F6E6E5F68616E646C652025BA
:106B2000642E000031B500252C462146684604F04D
:106B300085FF00B16D1C641C142CF6D3284638BDAB
:106B400010B560B159B102780B785208B2EB530F0F
:106B500005D10622401C491CFFF7CFFC08B10020DC
:106B600010BD012010BD800701D00020704701201A
:106B70007047C3688B4206D811440069491E8142A0
:106B800001D80120704700207047000010B5002098
:106B900005F092FE00280ED10AF048FB002001F01B
:106BA0007DFC0321044800F00AFD002803D0BDE865
:106BB000104000F0EDB810BD8C3C002090F824008F
:106BC000012801D01F207047EE20704710B5012228
:106BD0000221002001F008FD08B1072810D107228A
:106BE0000221012001F000FD08B1072808D1002191
:106BF0000A22084601F0F8FC08B1072800D100205D
:106C000010BD70B58CB015460E4600236C46C3F11E
:106C10000F01415CE1545B1C102BF8D30D2104F1F2
:106C20001000FFF74AFC0020C0F10F02315C224443
:106C3000401C11740328F7D3684646DF0020C0F1DA
:106C40000F01214491F820102954401C0328F6D349
:106C50000CB070BD022001F007BC00000149C978EA
:106C600000F07EBE583A002070B50024064D06E0C4
:106C70006868012110F8340006F0DEFF641C2878F3
:106C80008442F5D3002070BD983A0020F8B516462E
:106C90000C4605460A2A01D20720F8BD07F0C6F8BF
:106CA00018B907F089F80028F7D1134F10211348BD
:106CB0007D603C70BE60FFF700FC0020C7E9040067
:106CC0000F4E0DE005EBC4003168009181788DF81E
:106CD000011000780B4A694606F0FEFF0028DCD15F
:106CE000641EE4B2EED2BDE8F84005480021064A31
:106CF000001D00F05FB80000983A002050490020C5
:106D0000282F030055A502006D91020072B606F00F
:106D1000CFFA00BF06F006F90028FBD1114812494E
:106D2000401AC408012000EB044010A106F016FA36
:106D300011480068C00700D000BE022000EB0440EC
:106D40000EA106F00BFABFF34F8F0B48E438016831
:106D50000E4A01F4E06111430160BFF34F8F00BFA1
:106D6000FDE70000884B0300B84A030046617461E8
:106D70006C206572726F7200F0ED00E053797374ED
:106D8000656D207265736574000000000400FA05EB
:106D90000EB500210091CDE901106A4644F20100D0
:106DA000FFF7B4FF0EBD0000014802F01EBB00005B
:106DB000B83A00203AB100680129426100D00021B0
:106DC00001610020704707207047000038B5114866
:106DD00008235822416800910F49006804F0AFFD74
:106DE000002815D10D4A69460D4802F003FB040046
:106DF0000ED101210A4802F078FB0123094A194605
:106E0000074802F0CAFA06490120083908702046EE
:106E100038BD0000302F030070490020CD0F030063
:106E2000B83A0020FFFF7F0070B50446007F0D4692
:106E300008B1002070BDA26103F072FB401941F15E
:106E40000001C4E90201206900B125612146BDE8C5
:106E5000704000200BF09AB901460020087701200D
:106E60000BF094B930B5EFF3108172B60D4A946807
:106E7000012324B10370002900D162B630BD9360B4
:106E80004FF0E023D3F88051074C25401560C3F83C
:106E90008041D3F8844154605A17C3F884210022FA
:106EA0000270E8E7C8490020FC06FFBD0B498A686C
:106EB000002A11D000280FD1EFF3108072B60B68B2
:106EC0004FF0E022C2F800314B68C2F804310022D2
:106ED0008A60002800D162B670470000C8490020CF
:106EE0002DE9F041064608680C46411C4FF0A047CA
:106EF0004FF0010506D005FA00F1C7F80815206823
:106F000005F0CAFE6068411C02D0002105F0B2FE07
:106F10003168A069C1F82405607D227D3168104385
:106F2000C1F86C05D4E900123068C0F81425C0F827
:106F30000C15207D012815D1A068411C02D000212C
:106F400005F098FEE068411C05D08540C7F808555B
:106F5000E06805F0A1FED4E902123068C0F8082507
:106F6000C0F81015BDE8F0812DE9F041064608682B
:106F70000C46411C4FF0A0474FF0010506D005FA22
:106F800000F1C7F80815206805F090FE6068411C04
:106F900002D0002105F077FE3168A069C1F8240510
:106FA000607D217D32680843C2F86C05D4E9001287
:106FB0003068C0F80C15C0F81425207D012815D1C3
:106FC000A068411C02D0002105F05DFEE068411C74
:106FD00005D08540C7F80855E06805F067FED4E99C
:106FE00002123068C0F80825C0F81015BDE8F0811D
:106FF00004F02AB92DE9F047814605884A484FF048
:1070000000088AB001784246284600F0C1FC99F891
:107010000500400701D4002176E005F58077B8B27D
:1070200005AB0122072108F089F804003F48404AD7
:107030004FF00101A0EB02004FEAD00001EB004647
:107040000AD0204606F084FD024630462B463949D8
:1070500006F08FF8214629E0284603F0D7FD4FF6C9
:10706000FF71044688422BD18A46069803F038FD0A
:107070000446504510D00146284603F0A7FD284697
:10708000FFF7ECFDE0B928460AF0BEFA2846FFF704
:10709000E5FD0028BFD013E008F026FA044650456D
:1070A00008D1304624A106F059F8042128460AF0F8
:1070B000D9FAB0E70146284603F088FD4FF00108F1
:1070C000B8B22246072108F0B1F807001BD0862F7E
:1070D0001ED006F03DFD024630462B462349009463
:1070E00006F04FF8394628460AF0BCFA0021484617
:1070F00007F01CFFB8F1000F02D0204603F070FD2E
:107100000AB0BDE8F0870121484607F00FFFF7E716
:10711000142217496846FFF7A9F9ADF802506846EE
:1071200002F004FCEFE70000583A0020104B030087
:10713000B84A0300183F0300436F756C64206E6FFC
:107140007420616C6C6F63617465206E657720706C
:107150006565725F696420666F7220696E636F6D2A
:10716000696E6720626F6E642E0000003440030079
:10717000B42E03002DE9FC4700251788064615802C
:1071800090F82D001446894630B13A4621464846CB
:1071900000F098FC051E09D1B0784FF00C0A18B326
:1071A0002088C846001DB84202D95046BDE8FC8779
:1071B000684679DF0028F9D12088032108F80010FB
:1071C00020881921401C80B2208008F800102088F7
:1071D000401C80B2208000EB0801BDF800000BF0DD
:1071E000A4F9218808442080F0780222C8B12188BF
:1071F00096F9033001F1030C4846BC45D5D84254FA
:1072000021884FF0010C491C89B2218000F801C08F
:107210002188491C89B2218009F801302088401C4E
:1072200020807068B8B1218890F9003001F1030C1A
:107230004846BC45B9D8425421880A22491C89B223
:10724000218042542188491C89B2218009F80130EB
:107250002088401C2080308950B1CDE900474B4642
:107260000622022106F108000BF04EFA051E9DD100
:10727000308A50B1CDE900474B460722032106F181
:1072800010000BF041FA051E90D1308B50B1CDE9C2
:1072900000474B461522142106F118000BF034FA72
:1072A000051E83D1306A30B13B462246494601F083
:1072B00059FD051EDBD1706A30B13B462246494676
:1072C00004F0F6F9051ED2D196F82C0038B13B46F1
:1072D0002246494630460AF001FB051EC7D13078E8
:1072E00038B13B4622464946304604F091FA051E25
:1072F000BDD128465AE7F8B506464FF00000150004
:10730000ADF8000015D009236A46304600F025F894
:107310000446BDF80000064458B154B12846FFF7B2
:10732000D7F8A04205D1224631462846FFF7E5F8B6
:1073300008B10020F8BD0120F8BD18B504460020B2
:10734000ADF8000013466A46204600F006F8002813
:1073500002D0BDF80000204418BD70B5E0B1DAB12C
:10736000002402E0045D2C44A4B2651C8D4206D2C8
:107370001688A642F6D8061976789E42F2D18C423B
:107380000AD2A31C005D9BB200B1401E0004000C99
:1073900002D01C188C4201D9002070BD138070BD32
:1073A0002DE9F0418AB006460020ADF814001346DE
:1073B000102088468DF804000D4606AA01A918463B
:1073C00064DFA6B398BB9DF80400022804D004280B
:1073D00007D0102839D10DE003208DF810000220CD
:1073E00003E005208DF8100004208DF81100002422
:1073F00004AF0FE007208DF810000620F5E73B5D95
:1074000005AA41463046FFF7A8FF641CE4B20546D2
:10741000022C04D2BDF814000028F0D003E0BDF81F
:107420001400002812D080B2064400240BE00CE0C7
:1074300030199DF8042006A9FFF75FF848B19DF8C0
:107440000400204484B2AC42F2D300200AB0BDE86C
:10745000F0810120FAE780F8301070472DE9F04103
:107460000D00044606D02CB195F87A0000260128BC
:1074700003D006E00E20BDE8F08195F898000128C1
:1074800029D0D5F8A000042825D0D5F89C000428E0
:1074900021D04FF00108A6702C2205F17801201DA3
:1074A000FEF7E4FF84F83060D5F8A4006063D5F8F7
:1074B000A800A0634FF6FF70A4F8240404F58260CE
:1074C000C4F82004C4F82664A4F82A6484F82C6460
:1074D000207810B104E00720CDE7FF2084F85400A5
:1074E00004F155072046C4F81074FFF767FBA4F8B1
:1074F000140404F2144239462846FFF73BFE0028E4
:10750000B9D104F23120C4F818042046FFF756FB25
:10751000A4F81C0404F21C4205F13C00D4F8181431
:10752000FFF728FE0028A6D184F85180208BA4F80C
:10753000480084F83C80266484F85060606900212B
:107540006064454604F13C02781E72DF002892D147
:10755000257090E710B50288102A1BD0112A20D080
:10756000262A1DD1007A0C46012801D0022817D105
:10757000A0780521401CB0FBF1F201FB120120466E
:1075800000F01DF800280BD0A16B002908D0BDE841
:1075900010400847C27B012A02D18088A1F8240448
:1075A00010BD0C46002184F82E148088B4F82414F1
:1075B0008842F5D120790028F2D10121DFE72DE9B9
:1075C000F05F044600780F4698B1A7700025C4F814
:1075D0002654A4F82A5484F82C54A079012608B122
:1075E000012F09D0E07980B1012F05D0022F03D0FF
:1075F0000BE00820BDE8F09F616B21B184F82D6499
:107600000820884701E084F82D5404F22741002027
:107610000A5C0AB1304603E0401C0628F8D300207B
:107620004FF002084FF0030B012F06D0022F0CD0B1
:10763000032F0FD0042F15D110E0A17929B194F8B0
:10764000241011B908B130460DE0E17911B108B14B
:10765000404608E0207A08B1584604E0607A08B154
:10766000042000E02846A070616B41B1032801D0DE
:10767000042804D1607910B194F82E0498B184F8EC
:107680002F5404F13C0018210746FEF716FF84F83A
:107690003C6004F12C0008F059F858B194F82C0023
:1076A00084F8510008E084F8305484F82F640720EF
:1076B0008847E6E784F8516094F8240058B104F153
:1076C000280008F043F820B194F8280084F852000C
:1076D00001E084F8526084F85050A27804F2264108
:1076E00004F582694FF0060A052A64D2DFE802F049
:1076F0007C030F22420084F83160C4F82054C4E9AE
:10770000101584F83C808020A4F8480055E084F8E7
:10771000318094F82420384612B10722027001E02B
:1077200080F800B0228A8281C4F820544160E16868
:10773000B96042E06069B860208BB88194F8240099
:107740003D460028204602D084F83CA001E084F8A1
:107750003C600AF0A5FF50B185F814800421204652
:1077600002F05DFB38BB052184F8311021E084F87C
:1077700031B01EE0E069B860208CB88194F8240034
:107780003D460028204602D084F83CA001E084F861
:107790003C600AF085FF48B185F81480042120463A
:1077A00002F03DFB38B984F831A002E0042084F8EF
:1077B0003100C4F82094A07878B13A4604F154001E
:1077C000D4F8201472DF00287FF414AF94F830103E
:1077D00094F8540073DF0028F6D1616B11B194F86E
:1077E00031008847002005E784F83150F5E70000B4
:1077F00070B5040012D001461C221448FEF736FE74
:107800001248134D0560206850B17ADF002806D178
:107810002068016829604068686005E00E2070BD3E
:107820000B487BDF0028FAD108484FF6FF71143867
:10783000084A20F8041B0549343901600021FFF78C
:10784000B9FA0028EBD0032070BD0000DC44002012
:10785000A039002039260300054808B5C168009109
:107860008168684604F00EF90098FFF75BF908BDDF
:10787000F844002010B5044600F0A6F8002805D012
:107880002146BDE81040024804F0D8B810BD000001
:107890000845002070B515460E4604460AF00CFF58
:1078A000002809D0054800EB8400C0692A4631460B
:1078B000BDE8704002F0E0BA70BD0000F84400205E
:1078C00010B5044600F080F8002805D02146BDE838
:1078D0001040024804F0B2B810BD0000104500206E
:1078E00010B5044600F070F8002805D02146BDE828
:1078F0001040024804F0A2B810BD00000C45002062
:1079000070B50546002400F05FF838B129460448F8
:1079100004F094F808B1022400E00124204670BD70
:107920000445002070B50546002400F04DF838B13C
:107930002946044804F082F808B1022400E001243A
:10794000204670BD0045002010B51821034804F002
:1079500050F8182800D0C0B210BD0000F844002034
:1079600070B505460C4608460AF0A6FE60B12846EA
:1079700000F02AF840B10548294600EB8400BDE834
:1079800070401C3004F05AB8002070BDF84400204C
:1079900070B5054616460C4608460AF08DFE0028CE
:1079A0000ED0284600F010F8002809D005483246CD
:1079B00000EB84002946BDE870401C3002F02ABA72
:1079C00070BD0000F8440020142801D30020704747
:1079D0000146014804F032B8FC44002070B540B1C3
:1079E0000C4D297839B1044609F0A8F928B10020D6
:1079F00070BD0E2070BD082070BDE868062807D253
:107A00000549226801EB8001401C0A60E860EEE74E
:107A1000042070BDA83900207445002010B558B16D
:107A200003684BB142683AB1044900200124C860A0
:107A30000C70C1E9013210BD0E2010BDA839002024
:107A4000002827D0002925D0134A1278002A21D0F7
:107A50000A460188112911D0302907D0322909D0CE
:107A6000332917D1011D104606F02ABF011D10460B
:107A700007F060B8011D104606F032BE8088B2F8EB
:107A8000CA12884206D1002082F8C8024FF6FF7061
:107A9000A2F8CA0270470000A839002048B1084A7D
:107AA000137843B1D26832B190F8C8222AB11120BC
:107AB00070470E2070470820704701F015BC000089
:107AC000A83900207CB5054608880C46093090424C
:107AD00001D90C207CBD68466DDF0028FAD12188D1
:107AE0000820685420881B21401C80B22080295423
:107AF0002088401C80B220802844DDF801100160FD
:107B0000BDF8051081802088801D80B220809DF8FE
:107B10000010490800D0012129542088401C2080F1
:107B200000207CBD10B504468088FFF7E9FE0128DF
:107B300014D02188262911D0022801D01D291CD15A
:107B40000E49204600F0C2F90C492046143100F0DD
:107B5000FAFA2046BDE8104006F036BC0749204638
:107B60006C3900F063FA054920461C3900F0D1FB5E
:107B70002046BDE8104006F03DBD10BD1C3C002075
:107B800010B51A4C0188606810290ED011292BD12C
:107B9000401E606028D1FFF719F8002824D0216822
:107BA000002921D0BDE810400847D0B900210122AA
:107BB000084600F019FD08B107280FD1072202215D
:107BC000012000F011FD08B1072807D1042202218D
:107BD000002000F009FD20B1072802D0216801B182
:107BE00088476068401C606010BD00009839002024
:107BF0002DE9F04701883B4E40F2F3194FF6FF752F
:107C000010291BD011293ED0122954D0502946D119
:107C1000C188F289841D914241D1618902293ED1F6
:107C20008688304603F0A0F8050038D004F10C0037
:107C300000F0DBFBA8B3294630464EE0C17B8788C5
:107C4000044601292BD1A846284603F08DF80500EB
:107C500017D02F8000202872234843464A460168E7
:107C6000C5F80A104068C5F80E0004F1100105F1CE
:107C70000A0003F03DF96872F08900280FD1294607
:107C80002AE0042013E0808803F06EF8040006D098
:107C90006068FFF7E1F808B109F0C8FC2580BDE88D
:107CA000F087FFE76868FFF7D7F80028F7D0BDE84E
:107CB000F04709F0BBBC87880646384603F054F805
:107CC0000400ECD02B464A4606F1080104F10A00F4
:107CD00003F00EF9607221463846BDE8F04701F026
:107CE00087B80000DC440020A03900202DE9F04FC7
:107CF000044686880188424897B0834610290CD0F4
:107D0000112950D0103019296AD01A2974D1217A3A
:107D10000C09042C4DD301224CE0394D083DA868D4
:107D2000C0430B9069680BA803F0ACFE0B990CA83C
:107D300000F0F9FF2C220CA96846FEF797FB0027FC
:107D4000E946A84610E000BF09EB47005FF00005D8
:107D5000B0F804A008EB85005146001D03F02EFE8C
:107D60006D1C1E2DF6D37F1C0098B842ECD8142E43
:107D700005D317B00420BDE8F04FFFF709B831462E
:107D8000584603F066FE314608F1040003F061FE38
:107D9000E07B022830D117B03146BDE8F04F1848DB
:107DA000001D03F056BE17B03146BDE8F04F03F09A
:107DB00005BE0022314602F02DF8032C01D301222A
:107DC00000E000220E4831460C3002F023F8022C6D
:107DD00001D3012200E0002209483146083006E0C4
:107DE000217A002908D1617AC1F3C002314617B067
:107DF000BDE8F04F02F00EB817B0BDE8F08F0000FC
:107E00000045002010B504460748007800280AD035
:107E1000204602F0D7FD204609F006FE2046BDE8C8
:107E2000104002F0B9B910BDE839002038B1018026
:107E300012B11268C0F80220006903F071BF0E2071
:107E40007047000030B589B000B3044601258DF8B5
:107E5000205000208DF8210020216846FEF72DFBE0
:107E60000B48CDE902048DF800506088ADF812008F
:107E70000220ADF8160008A806908DF81050228850
:107E80006946206903F084FF09B030BD0E20FBE78E
:107E9000159F020008B5B8B1B1B101228DF80220DA
:107EA00041F60D02ADF800200A6882604A68C2609F
:107EB000896801614FF6FF71018000214180818056
:107EC0006846FFF78BFD08BD0E2008BD0A46014637
:107ED000100012D0002910D00A88112A03D0392AA4
:107EE0000BD106F0B1BD028889888A4205D14FF6D0
:107EF000FF710180002141808180704730B50446C8
:107F0000008C8BB0A0F57F42FF3A23D005AA204613
:107F100002F05EFC0546ADF80000002001900290E2
:107F2000039004902189ADF804100121ADF80800F8
:107F30008DF8061005A8CDF80CD00490208C01A96E
:107F4000AEDF002804D1BDF80010A94200D00C20FB
:107F50000BB030BD0820FBE7F0B504468FB00868D1
:107F60002060087960714FF6FF702084002084F84B
:107F70002200A4F84C001427012684F84E708DF8D6
:107F8000226041F60D000D46ADF82000A21D08A9A3
:107F90003046A8DF002847D120216846FEF78DFA39
:107FA00042F63720ADF80000ADF8047009AA0021B0
:107FB000204602F00DFCADF8060009A802908DF8ED
:107FC0000C609DF80D0004F1080240F010008DF8DF
:107FD0000D00287B8DF81300E088694600F048FD0D
:107FE000002821D1A868F0B120216846FEF765FA83
:107FF00042F63820ADF80460ADF80000ADF8066038
:10800000A86802909DF80D0004F1100240F00200F3
:108010008DF80D00687B8DF81100E088694600F04E
:1080200027FD002800D100200FB0F0BD38B5028830
:10803000102A15D0112A15D0502A16D130F8062F43
:108040008B899A4211D10C46418902290DD12168B0
:1080500000290AD00C3000F0C8F938B1002006E041
:10806000808801E04FF6FF70088438BD01208DF84C
:108070000000226869462046904738BD30B50A782E
:108080008DB0002A36D18A88A2F5C0530D3B31D17C
:108090008A79012A2ED18DF800204A88ADF8022075
:1080A000002242F637240B7A13E000BF02EBC20530
:1080B00001EB4505ED89A5420AD102EBC20201EBB5
:1080C00042010A8BADF80420C98AADF8061002E01F
:1080D000521C9342EAD80188A1F57F42FF3A06D0AC
:1080E000418821B9818811B90199C0F802108268CC
:1080F000694690470DB030BD38B1018012B11268A9
:10810000C0F80220006903F00BBE0E20704708B5CE
:10811000B8B1B1B101228DF8022041F61402ADF8D8
:1081200000200A6882604A68C2604FF6FF720280CF
:10813000002242808280896801616846FFF74EFC18
:1081400008BD0E2008BD0A00014613D0002911D039
:1081500010460A88112A03D0392A0BD106F0ADBC8B
:10816000028889888A4205D14FF6FF71018000217B
:10817000418081807047000070B58AB048B30188A3
:10818000A1F57F42FF3A22D0012504468DF8205008
:1081900000268DF8216020216846FEF78EF90E48F2
:1081A000CDE902048DF800506088ADF8120002207D
:1081B000ADF8160008A80690ADF814608DF81050C0
:1081C00022886946206903F0E3FD0AB070BD0820EB
:1081D000FBE70E20F9E700001F9F020070B58EB08C
:1081E0000D46040061D0002D5FD0286820604FF656
:1081F000FF70E082E888208301268DF8366041F622
:108200001400ADF83400221D0DA93046A8DF002867
:1082100049D120216846FEF750F942F65320ADF8C7
:1082200000001420ADF804008DF80C609DF80D00DE
:1082300008AE40F010008DF80D0028798DF813007D
:1082400008AA05F108012046029608F01BFEADF8C9
:108250000600A088A21D694600F00AFC002822D171
:1082600020216846FEF729F942F654200221ADF894
:108270000000ADF80410E8888DF82000000A8DF8A1
:1082800021009DF80D00ADF8061040F002000296A6
:108290008DF80D0068798DF81100A08804F10E02A8
:1082A000694600F0E5FB0EB070BD0E20FBE730B56F
:1082B0008BB0040029D041B3E08AA0F57F42FF3A99
:1082C00025D005AA204608F0DDFD0546ADF80000E2
:1082D00000200190029003900490E188ADF8041012
:1082E0000121ADF808008DF8061005A8CDF80CD0D6
:1082F0000490E08A01A9AEDF002804D1BDF8001087
:10830000A94200D00C200BB030BD0E20FBE70820A6
:10831000F9E738B500291FD000281DD00288102A9F
:1083200015D0112A15D0502A16D130F8062F4B89B6
:108330009A4211D10C46418902290DD121680029A8
:108340000AD00C3000F051F838B1002006E08088E7
:1083500001E04FF6FF70C88238BD01208DF80000A3
:10836000226869462046904738BD000030B50A783B
:1083700085B0002A37D18A88A2F5C053143B32D188
:108380008A79012A2FD14A88ADF80220002242F6CC
:1083900053240B7A13E000BF02EBC20501EB450545
:1083A000ED89A5420AD102EBC20201EB42010A8B20
:1083B000ADF80420C98AADF8061002E0521C9342C1
:1083C000EAD80188A1F57F42FF3A06D0418821B959
:1083D000818811B90199C0F8021001218DF80010AF
:1083E00082686946904705B030BD007800F0010012
:1083F000704700000649095C4FF0A040D0F8100516
:10840000C84010F0010000D0012080F0010070474A
:10841000B52C03002DE9FC410646C0074FF00005CE
:108420000ED0104F00240122385D00950023114624
:10843000019504F0C5FB641C042CF4D300F046F84D
:10844000B0070DD5074E0024361D0022305D0323F2
:1084500000951146019504F0B3FB641C042CF4D381
:10846000BDE8FC81B12C030007490B5C4FF0A04133
:10847000D1F804250120984020EA0203C1F808350C
:108480001040C1F80C057047B12C03000249085C8C
:10849000012104F04CBC0000B12C03000249085C2F
:1084A000002104F044BC0000B12C03000649095C23
:1084B0004FF0A040D0F80405C84010F0010000D0F3
:1084C000012080F001007047B12C030010B500249A
:1084D0002046FFF7DBFF641C042CF9D310BD10B558
:1084E00000242046FFF7DAFF641C042CF9D310BDEA
:1084F00010B50246064B4FF0FF3000215C5C944201
:1085000001D1084610BD491C0429F7D310BD000055
:10851000B52C030070B50C4E0C004FF00005306018
:108520000BD0012000F05AF808B1022004E000202E
:1085300000F054F800B10B202070706810B9FEF7FD
:1085400045FB0546284670BD983900202DE9F047C7
:108550000D468146FFF7CCFF0446042836D2DFF8EB
:1085600074801B481C4EA8F10C0725B3012D0ED0BA
:10857000022D2BD104EB440030444578002D25D04A
:10858000B968002922D02846BDE8F047084704EB27
:108590004401755C0E44717849B10E4A4FF4804134
:1085A000093A8068FEF740FC08B987F80390B17873
:1085B00008F80410E2E78068FEF74EFC04EB440183
:1085C000314418F804008D78A842D7D0BDE8F08770
:1085D000BC2C03009439002078440020042801D2E8
:1085E000FFF708BF0020704770B50023042810D2A1
:1085F0000D4D00EB4004012A02D101290CD00022CC
:10860000094E00EB4000304461B1012906D0022937
:1086100006D00723184670BD0E30C2B22A55F9E7BE
:108620004270F7E78270F5E77844002070B506469F
:108630001E480024C0E90161B00720D500250122B1
:1086400011462846FFF7D0FF6D1C0446042D02D2C8
:10865000002CF4D013E094B940F2333204211448D2
:10866000FEF714FB04000AD1FEF7FEFA040006D15F
:108670000F48104A0021001FFEF79CFB0446F0073C
:1086800012D00120FFF7C6FE74B909480A4A00213A
:108690000C38FEF78FFB040006D10548074A01217C
:1086A0000838FEF787FB0446204670BD8839002055
:1086B000C82C03008D890200E9AF0200556C02004E
:1086C0002DE9F05F6E4C054600266078B34618B180
:1086D00084F801B002F070FC6A4F4FF47A694FF4ED
:1086E000C87A4FF00108182D69D2DFE805F00C13A5
:1086F00013384754696E727B727BC584848484848A
:10870000B3B6B9BCC5C502F057FC3868FEF7A4FB88
:1087100006465CE00020FFF7C9FE00284FF000008D
:1087200008D0FFF7B3FE022D02D14FF4E16008E05C
:10873000484606E0FFF7B2FE022D01D1C82000E056
:108740005046410CC0034FF47A72801841F1000189
:10875000257052000023FDF745FE01462AE0002067
:10876000FFF7A4FE00284FF0000004D0FFF78EFEB4
:108770004FF44870E5E7FFF791FEDFE70020FFF7D1
:1087800095FE00284FF0000002D0FFF77FFECFE7F4
:10879000FFF784FED4E70020FFF788FE00284FF0A3
:1087A000000002D0FFF772FE01E0FFF777FE2570B0
:1087B00040F6CD4100223868FEF736FB064646E01B
:1087C0000020FFF751FE257008E0002051E02570E1
:1087D0003DE084F801800120FFF746FE002240F2D0
:1087E0006661E8E784F801800120FFF73DFE002282
:1087F0004FF40051DFE77868FEF72EFB0646D5F10F
:10880000110000D02EB10220FFF740FE84F802B024
:108810001DE0012816D980B2C8214843C117C903F9
:1088200041EA5041C0034FF47A72801841F10001CF
:1088300052000023FDF7D6FD014600227868FEF7BE
:10884000F3FA06460220FFF729FE84F8028030463C
:10885000BDE8F09F02F0B0FBB9E702F0ADFBB4E772
:1088600002F0AAFB04E002F0A7FB0020FFF716FECF
:108870000120FFF713FEAAE7FFF731FEA7E700008C
:1088800088390020BC2C03002DE9F84F0546861CD2
:1088900000208DF8000091460F464FF0010A68460F
:1088A000FEF7E0FA1B4C04F21C4860683860D4E91B
:1088B0000101194F401A3968081A0EE0012140469B
:1088C00003F0DAF802F0A2FD0146404603F0D4F8C6
:1088D000D4E90101401A3968081A401C8642EDD8D3
:1088E000B9F1000F03D0052065F3891002E00620DE
:1088F00065F39F5061683A68114004EB8101C860DC
:108900006068304460609DF80000FEF7CFFA504682
:10891000BDE8F88F184D0020403B002070B50D4693
:1089200004460A2902D10D21FFF7F8FFA06822684A
:10893000411CA1601554D4E90101814204D32046B1
:10894000BDE8704003F0D9BD70BD000004488168E7
:108950004068814201D1012070470020704700002B
:10896000184D0020034630B50748002104784268BE
:1089700006E000BF02EBC10005789D4203D0491C10
:10898000A142F7DB002030BD983A00200078022198
:10899000FFF7DCBD1CB5044602F038F900236A4637
:1089A000092106F00DFD052805D103480122417972
:1089B0002046FEF7EDFF1CBDB83900201CB504466B
:1089C0000020009042F6A620ADF8000001208DF8AE
:1089D0000200084801AA6946006801902046A0DF0D
:1089E000002805D10448012281792046FEF7D0FFF6
:1089F0001CBD0000642D0300B839002005494FF06C
:108A0000FF32082841F8202002D3084480F848208B
:108A10007047000084480020F0B54FF0FF3512B1D8
:108A20000023082601E008230C260C4C05E000BFBB
:108A300054F823707F1C04D05B1CB342F8D3284643
:108A4000F0BD26185DB286F8305044F82310002A95
:108A5000F5D1E11881F84800F1E7000084480020D2
:108A60000249084490F93000704700008448002013
:108A70002DE9F0438146887891B090460C4600B9C4
:108A800001208DF83E002088ADF83C0000250095BF
:108A9000607C694608F0B0FF6E46A07C711C08F04F
:108AA000ABFFE07B00289DF8020002D040F00800F8
:108AB00001E020F008008DF80200217C11B140F0A7
:108AC000100001E020F010008DF80200217B11B1B0
:108AD00040F0010001E020F001008DF80200217D4E
:108AE00009B1022100E0012161F342008DF802008A
:108AF0001C2102A8FDF7E1FC607BC10601D48006C1
:108B000017D50E950EAFE07C791C08F075FF9DF827
:108B10003800079720F00F00401C20F0F0001030C4
:108B20008DF838009DF83A0020F00600801C8DF882
:108B30003A00607B8DF80800A07B8DF809001421B5
:108B400009A8FDF7BAFC0FA8CDE90906A088ADF881
:108B50003000A06820B1E088ADF82C00A0680D902E
:108B6000A06998B301950088ADF81000A06901AD27
:108B700001A94088ADF81200A069406806950390ED
:108B8000A069007B08F038FFA069691C407B08F0F1
:108B900033FFA069807A00289DF8060002D040F0DB
:108BA000080001E020F008008DF80600A169C97AEC
:108BB00011B140F0100001E020F010008DF8060027
:108BC000A169097A19B140F0010002E00DE020F03E
:108BD00001008DF80600A169897B09B1022100E03E
:108BE000012161F342008DF80600E06900B10590B3
:108BF000434609AA02A94846AADF11B0BDE8F0839E
:108C000030B589B00D46044620216846FDF755FC75
:108C100094F8C602002300EB8001C1EB801094F8A9
:108C2000C51204EB400041B1491EC9B201EBC101BC
:108C300000EB4101498A491C00E0C188008961F3C9
:108C40000F0360F31F4303208DF800000548CDE9B2
:108C50000204054804932A466946806803F098F8A0
:108C600009B030BD99920200A839002070B50446C1
:108C70004FF6FF750A462846AC4209D14FF480747E
:108C80002146104602F0B5FE80B2A0420BD070BD66
:108C9000FF2CFCD82146104602F09BFE90F0010FFD
:108CA00001D0204670BD284670BD000070B5084C4C
:108CB000050009D010342168002907D00868206019
:108CC000496828468847F6E70834F4E770BD000095
:108CD00070480020054A012120B1012805D191707A
:108CE000FFF7E4BF51700020FAE77047704800209A
:108CF00010B5D0E90234D1E90220D11AA04101D344
:108D0000012010BD002010BD10B5024600201388C0
:108D100006E0546834F810408C4203D0401C80B206
:108D20008342F6D810BD73B58CB006460020009083
:108D30000D9880B100246D4621460DA802F07EFEFC
:108D400030B1009805EB400084800098401C0090F2
:108D5000641C142CF0D32C2269463046FDF786FBA8
:108D60000EB070BD2DE9F04117880646B81D1446B7
:108D70000D46984202D90C20BDE8F08131880722C7
:108D800006290AD34FF4486C4FF6FF73614501D9A9
:108D9000994202D17088062801D21046ECE760455E
:108DA00001D99842F9D1994203D0984201D0814229
:108DB000F3D80520E85520881221401C80B220807D
:108DC00029542088401C80B220804119308809F045
:108DD000ACFB2188084480B220804119708809F0DA
:108DE000A4FB2188084420800020C5E7FDF7D0BF00
:108DF00038B54A7A0F4B62B100220A7259690029CC
:108E000006D001228DF80020ADF8020068468847A0
:108E100038BD0A7A62B19B684C6802461946204602
:108E2000FEF702F80028F3D0BDE8384008F0FEBB9A
:108E30005B68F1E7DC440020F0B585B016460F46CC
:108E400004461D4614220B496846FDF70FFB0A48ED
:108E50008DF80870ADF80240ADF80A608DF80C503E
:108E6000017800222046FEF793FD684600F05EFD83
:108E700005B0F0BDC82E0300583A0020FDF7B4BD80
:108E800070B588B00646002005900690ADF8141025
:108E9000ADF816100190029001AA05A9304690DFA6
:108EA000050021D004F054FE034611481149324612
:108EB000401AC108012000EB014004460E4904F0AD
:108EC00058F9BDF8042012B9BDF8060028B1BDF864
:108ED0000630204609A104F04CF9BDF808201AB16B
:108EE0002046164904F03EF908B0284670BD00003F
:108EF000D84A0300B84A0300443703005468652089
:108F00007265717565737465642054582F525820CA
:108F10007061636B6574206C656E6774682069733B
:108F200020746F6F206C6F6E672062792025752F1B
:108F30002575206F63746574732E000090370300ED
:108F400070B50446014646681048FFF797F80F4889
:108F500021461430FFF70AFA2078032815D10C486F
:108F60000C496388401AC108032000EB01453246D2
:108F700009A1284604F0FDF8638896F8C422284623
:108F8000BDE8704012A104F0F4B870BD1C3C002094
:108F9000884B0300B84A0300444220446973636F5E
:108FA0007665727920696E7374616E6365202570D1
:108FB00020617661696C61626C65206F6E20636F01
:108FC0006E6E2068616E646C653A20256400000056
:108FD000466F756E642025642073657276696365DB
:108FE00073206F6E20636F6E6E5F68616E646C6578
:108FF0003A2025640000000070B5044609480121AC
:1090000002F055FDBFF35F8F0025002808D12046F0
:1090100002F076F9002803D1BFF35F8F01480560A5
:1090200070BD0000C43900202DE9FF410C4620B17D
:109030004FF4064004B0BDE8F0812079002748F2E3
:10904000096538B141F61D5601281BD0022826D0EB
:10905000681DEFE70220207102970397E0680190F6
:10906000694601A807F08AFD50B102988188E18025
:1090700000882081BDF80010029807F0FDFDD9E7B7
:109080002846D7E70A4B6A460021A01D07F02EFDAF
:1090900038B1074918398F61CF61A842CAD130462B
:1090A000C8E703488188019807F0E6FDF5E700006E
:1090B000F83A00202DE9F04389B00F460546914665
:1090C00020216846FDF7F9F995F8C60295F8C542E2
:1090D00000EB8001C1EB801005EB400604EBC400FF
:1090E00006EB40013279601C0A31904232D108AB64
:1090F0000022284601F01EFF78B310E0401EA04277
:1091000001D1002004E004EBC40006EB40001C3059
:109110008046024608AB284601F00CFF90B10020C3
:10912000387004208DF8000008984A46CDE90350B5
:109130000C4802900C486946806802F029FE09B08C
:10914000BDE8F08395F8C5024146401C641C85F8D3
:10915000C502E4B23079A042D0D801203870002096
:10916000EDE7000099920200A839002070B50024B4
:109170000F4D10E0686800EBC406307804F012FE72
:109180007178012901D0012100E0002141403078AF
:1091900000F020FB641C28788442EBDBD5E9040155
:1091A000084303D0BDE8704009F00CB870BD000062
:1091B000983A002030B59FB00C4605467C216846A1
:1091C000FDF77BF9ADF8024003208DF8000004485C
:1091D00001954168002901D0684688471FB030BD1D
:1091E000A83900202DE9F041044690F8C6028846CF
:1091F00000EB8001C1EB801004EB400617463046BF
:1092000007F09CFD050042D0D4F8CC0206283ED2DF
:1092100004EBC0107622A0F8D272D4F8CC0231460A
:1092200004EBC01000F53570FDF720F90026B8F109
:10923000000F06D0D4F8CC0204EBC01080F8D06246
:1092400006E0D4F8CC12022004EBC11181F8D00260
:10925000D4F8CC0204EBC010C0F84C53D4F8CC02C4
:109260000C4D401CC4F8CC02E96888420FD1274657
:10927000002407E007EBC41101F53470D1F84C135A
:109280008847641CE8688442F4D3C7F8CC62BDE820
:10929000F0810000A8390020F0B515469FB00022EB
:1092A00081F8C822074691F8C6020C4600EB8002FE
:1092B000C2EB801001EB400007F040FD060009D032
:1092C0007C2208496846FDF7D1F8ADF8025068469F
:1092D0000197B0471FB029462046BDE8F040FFF790
:1092E00069BF0000E82C0300F0B50D4689B00446C4
:1092F0004FF4BA61FDF7E1F820216846FDF7DDF88B
:10930000154E2946B06802F00BFD002821D1A4F8C3
:10931000CA52C4F8CC0284F8C70284F8C60284F8A2
:10932000C5020E4801272A460068206002208DF8F9
:109330000000ADF810702068CDF812000848CDE9A3
:1093400002046946B06802F023FD002801D184F8C8
:10935000C87209B0F0BD0000A83900207445002093
:109360009992020010B50021024802F0A0FB80F3A0
:10937000100010BD345100204FF480328A40016843
:10938000C1F848230068C0F8082370474FF4A07262
:1093900002EB810189B200F08DBA2DE9F04105465A
:1093A0000E464FF4A07000EB860081B228684FF49F
:1093B0008034B440984622F07F47C0F808432868BC
:1093C000C0F84843286804F056F9286800EB860086
:1093D000C0F840752868C0F84443B8F1000F02D0C7
:1093E0002868C0F80443BDE8F0810068D0F804059F
:1093F0007047000070B54379234C44F8232042792C
:10940000231D03EBC202224C1579204A121BD408FB
:109410002DB10825022000EB04401EA130E00568B4
:109420000A88C5F8082590F904208978002A4FEAAF
:10943000411104DB02F1E02282F8001405E002F0A1
:109440000F0202F1E02282F8141D90F904100122AB
:10945000002909DB01F01F0502FA05F54909890019
:1094600001F1E021C1F800514179002503EBC10170
:109470000A71417943F83100032000EB04400EA14A
:1094800003F06CFE284670BDD43A0020684B030000
:10949000B84A030052544320696E7374616E636569
:1094A00020616C726561647920696E697469616CB0
:1094B000697A65642E0000005254433A20696E694F
:1094C0007469616C697A65642E00000090F904008B
:1094D000002809DB00F01F020121914040098000B3
:1094E00000F1E020C0F8001270470A46022100F0A7
:1094F00067B94FF4827100F0DDB9006801210160A5
:10950000704700680121416070472DE9F05F074610
:109510000C464FF4A07000EB84001FFA80FA386804
:109520004FF48036A6409B4622F07F45C0F8486342
:109530003868C0F808633868D0F8048500EB840206
:10954000D2F84095C2F840855146386804F093F847
:10955000A9EB080020F07F40012806D1102004F07C
:1095600063FB5146386804F086F83868D0F8048503
:10957000C0F84463A5EB080121F07F413868012958
:1095800000EB840010D0C0F840553868D0F80415BE
:109590006FF07F4C6A1A521E22F07F42ACEB0B0335
:1095A000934217D362B118E06D1CC0F840551020EB
:1095B00004F03AFB3868D0F8040540450AD10CE0C5
:1095C00000EB84006D1CC0F840553868D0F80405E5
:1095D000884202D00D20BDE8F09F01223146384676
:1095E00000F0EEF80020F6E713460A460021FFF7E8
:1095F00023BC00002DE9F843104D0F4680461E465F
:1096000091466946286802F0ADF9040014D01C2187
:10961000FCF753FF01202071C4F81490380BC4F8F4
:109620000080C4E902606946286802F0BCF907F0CE
:109630008FF90020BDE8F8830420FBE7E02F03004A
:1096400010B503780022072B06D2DFE803F00504EB
:109650000610202930000A7010BD01230B70038909
:109660008B818388CB81C06888600A7410BD022218
:109670000A7002898A818288CA81C2688A60807D74
:10968000062802D00020087410BD0120FBE7032249
:109690000A70C2888A810289CA81C068886010BD48
:1096A00004230B70C0888881CA818A6010BD0520A0
:1096B000087010BD70B5064D0646002455F82410FC
:1096C00009B130468847641C042CF7D370BD0000F4
:1096D000F049002030B50446006887B00D46806828
:1096E00000281FD018216846FCF7E7FE0195A06806
:1096F0000590207910B1012810D107E001208DF8E4
:10970000000020690290E068039005E002208DF8D7
:109710000000E0680003029060690490206881689E
:109720006846884707B030BDF0B585B017460C00D5
:1097300005463AD0112C38D0082C36D01C481D498B
:10974000401AC6080D2C11D0204604F001FA02463A
:10975000012000EB06402B46174903F00AFD2A467C
:109760000721684602F0B2F802941BE0022000EBE9
:1097700006402A46114903F0F5FC2A4603216846B3
:1097800002F0A4F827B13878C00701D0012000E02A
:1097900002208DF8080000208DF80C0041F2011025
:1097A000ADF80A00684600F0CFF805B0F0BD000043
:1097B000184B0300B84A030054420300444103001D
:1097C0000368C3F84413002A02D00068C0F80413E9
:1097D000704700002DE9F84F0E463449804601EBF2
:1097E0005001C007097801D00F0901E001F00F070F
:1097F0004FF00009424601204946FCF724FEDFF8FD
:10980000B0A004460D46052F4ED2DFE807F0031640
:109810001B282C00002E47D00121404608F0B6FB43
:109820008DF800906846FDF71DFB5046D0E9041204
:109830000C431543CAE9044532E00EB1022114E09D
:10984000002112E04EB10321404608F09FFB404644
:10985000BDE8F84F012108F047BF012105E0002EC7
:1098600022D1042101E02EB103214046BDE8F84F8A
:1098700008F08CBB0021404608F088FB00214046E0
:1098800008F032FF8DF800906846FDF7EBFA50467D
:10989000E243D0E904341A4024EA0501CAE904216C
:1098A0009DF80000FDF702FBBDE8F88F504900204D
:1098B000983A002010B5006842581AB103F0DBFE58
:1098C000012010BD002010BD10B50446408801F0F5
:1098D0009DF9A080024801682046BDE81040084775
:1098E000C039002010B50446808801F0D9F86080A6
:1098F000024801682046BDE810400847D0390020E2
:109900002DE9F04107460024064E074D05E000BF53
:1099100056F8241038468847641CE8788442F7DB00
:10992000BDE8F08124480020E839002010B5044645
:10993000408801F06BF9A080024801682046BDE82C
:1099400010400847882E03000149096808470000B5
:10995000182F030070B586B0044614216846FCF742
:10996000ACFDA0890125A0F54040ADF804002078A9
:109970002F4E062833D2DFE800F0320303032C4ACF
:10998000A08900F0EBF930B9E08943F6FE71A0F54B
:109990004040884223D8A07B8DF808002078032817
:1099A0000FD000208DF80900A0680390606850B1C6
:1099B00009208DF8000060680490684605F052FCAC
:1099C0000DE00120EEE708208DF800008DF8105022
:1099D000F3E7A08900F0C2F908B1E08930B17078EE
:1099E000002801D005F092FD06B070BD606830B16E
:1099F0000B208DF80000606802907570DDE70A208A
:109A00008DF80000BDF8040005F024FEF5E760685D
:109A100048B114208DF80000606802904FF6FF7086
:109A2000ADF80400C9E713208DF80000F6E7000048
:109A3000D439002038B504460F480078B0B1A4F5F9
:109A40007F40FF380FD0684606F026FE88B105211A
:109A5000017001210171C480684606F02BFE06F0FA
:109A600069FF002038BD48F2036038BD48F201604C
:109A700038BD48F2076038BD003B00200D4808B5EE
:109A8000007888B1684606F007FE80B106210170B3
:109A9000684606F00FFE0848017809B101210173FC
:109AA00006F048FF002008BD48F2016008BD48F2FA
:109AB000076008BD003B0020B44A0020F0B587B025
:109AC00014216846FCF7F9FC304C207818B1684640
:109AD000FFF7F0FD57E0201D01F0CBFF98BB40F6EB
:109AE000F8700168481C02D14FF0102041694FF016
:109AF0008050026940694B1C01D100FB02F12448EF
:109B000000220161A1F54051C160224902F08AFEA4
:109B1000002823D121481C238C221F49006801F012
:109B20000EFF05F02BF9050016D0022D14D00027EA
:109B30000126062D14D005A806F0AEFD98B10670DA
:109B40000C2D1BD200E01EE0DFE805F01810181005
:109B5000181718171812141248F20A6007B0F0BD4F
:109B600026706760B3E748F20760F7E7077105E022
:109B7000032100E00221017100E0067105A806F052
:109B800099FD06F0D7FE0020E8E70000003B00202A
:109B90009C3B0020F02F0300004A0020582F0300B8
:109BA00038B5040014D0694606F0E8FFB0B1BDF83E
:109BB000000000EB80010B4800EB8100C16851B14F
:109BC000A17A41B1C168491EC1600020A07238BDB0
:109BD00048F2046038BD48F2056038BD48F20960BB
:109BE00038BD00008C4A00201FB501A9684606F068
:109BF0007DFF04B010BD07B513460A466946002034
:109C000006F074FF0EBD07B513460A4600216846EC
:109C100006F06CFF0EBD20B119B10068086000208D
:109C2000704748F204607047F8B50D46040018D03C
:109C3000BDB1694606F0A2FFB0B1BDF800000C4905
:109C400000EB800001EB800001210C30666801F020
:109C500013FF2E6060680C3068600120A072002045
:109C6000F8BD48F20460F8BD48F20960F8BD000094
:109C70008C4A002018B10323002208F0D3BE48F21A
:109C8000046070470223002208F0CCBE094910B5D9
:109C90000A69042A0AD0084A096942F821000548DD
:109CA0000121103001F0E8FE002010BD48F20B60E9
:109CB00010BD0000E03A0020F04900202DE9F84FE7
:109CC000044624480078D8B1F4B112212046FCF7AC
:109CD000F4FB0320DFF880902080002504F11008B9
:109CE00004F10E0A05EB850109EB810630897189C3
:109CF000084487B2706804F0CBFF032807D009E05E
:109D000048F20160BDE8F88F48F20460FAE7208865
:109D1000401E20806088F168084460802089718935
:109D200008442081608938446081C7F58060A1893A
:109D300080B2814200D2A0815346A21D211D284637
:109D4000CDF8008006F0B6FF6D1CADB2022DC9D370
:109D50000020D7E7003B00208C4A002043F6FE712C
:109D6000A0F54040884201D801207047002070478C
:109D700070B51C4802F004F9041E01D0FDF708F884
:109D80001948FCF7A5FB40B1174A0021154802F01D
:109D900047F9041E01D0FCF7FBFF144E4FF6FF7588
:109DA0003088A84209D07088A84206D106F108027E
:109DB00003210C4802F034F904467088A84209D007
:109DC0003088A84206D1094A0321121D054802F035
:109DD00027F90446200003D0BDE87040FCF7D8BF47
:109DE00070BD0000C0400020B02C0300A42D002056
:109DF00010B504460078182802D1FDF7A5FD2070A3
:109E000010BD10B504460078182802D1FDF79CFD5E
:109E1000207010BD0AB101F01CBE01F0CFBD70B5BD
:109E20000D460446B0F81414D0F810040122FDF7D2
:109E300084FA00B1057004F13C0204F5826104F17A
:109E4000540072DF70BD000070B513460022054655
:109E5000112900D10122074C33B12179FDF798FD7A
:109E600000226178284600E06178BDE87040FDF787
:109E70008FBD0000603A0020F7B517460E0011D0E4
:109E80000098002560B100242146684601F0D6FD07
:109E900018B1A0B23946B0476D1C641C142CF3D322
:109EA0002846FEBD0020FEBD406806F0A1BC0000B3
:109EB0000EB514A19DF8080020F00F00401C20F002
:109EC000F00010308DF80800092202A87CDF08B1EC
:109ED000FCF75EFF0020009001900D48018EADF868
:109EE0000010418EADF80210818EADF80410C08EC6
:109EF000ADF8060068467ADF002801D0FCF748FF7D
:109F00000EBD00006E52462052656C617900000063
:109F1000C0400020C968002900D008477047C968C0
:109F2000002900D00847704770B50D4601F11004B4
:109F3000C98A022901D9092070BD03F028FA686096
:109F400030B1E2880023A16803F087FA002070BDD9
:109F5000042070BD70B50D4601F1100489690988AF
:109F6000102901D9092070BD891C03F010FA68601E
:109F700068B100230222A16803F06FFAA068E168CB
:109F800002230288686803F068FA002070BD04208C
:109F900070BD000070B510B14FF4064070BD1C4C90
:109FA0000025207B08B1257301E000F0A5F820789A
:109FB00008282AD2DFE800F02904080C102914220E
:109FC000BDE8704000F026B8BDE8704000F082B8EF
:109FD000BDE8704000F064B8BDE8704000F040B8E3
:109FE0000620207060880A4900EB8000283901EBC8
:109FF00080004068BDE8704004F0A0BE07202070DB
:10A000006560BDE8704004F0A7BE48F20E6070BD08
:10A01000B44A00201149F0B48A1C00200346A1F183
:10A0200028050C18A67A4EB1A37200EB800405EB4C
:10A030008404E66816B9247C012C0AD0401C80B246
:10A040000228EED30B704B804B60F0BC41F61D50E4
:10A0500070471080F0BC00F03DB80000B44A00200A
:10A060000C48418801EB8102A0F1280101EB82013B
:10A07000CA6852B105210170074802218180016838
:10A0800000230122054802F031BB04220270496816
:10A09000F6E70000B44A0020083B00209C3B00206B
:10A0A00038B50A49084803240B684268898803EBDD
:10A0B000810153880470DB1C00201B0400909B0B63
:10A0C000034802F08FFC38BDB44A0020083B002052
:10A0D0009C3B0020074910B54888091D06F09EFDED
:10A0E00018B1BDE81040FFF7DBBFBDE81040FFF737
:10A0F000B7BF0000B44A002070B5194C0121207888
:10A1000008281AD2DFE800F00419191C252929189B
:10A110002089134A401C2081002060802073283A47
:10A1200000EB800312F8233043B100232518401CB4
:10A1300080B2AB720228F3D3217070BD0123F5E722
:10A140006068084940888A88C01C104488800220C2
:10A1500004E000F009F8062000E00720207070BD40
:10A16000B44A0020083B00200A490948498802688F
:10A1700001EB81030749283901EB83014B68036038
:10A180004A6082880A810222828000200874704717
:10A19000083B0020B44A00202DE9F04306468088A1
:10A1A0003288DFF85C8185B00746502A37D010DC52
:10A1B0005449554B06F10A05A1EB03014FEAD101C1
:10A1C0004FF0020303EB0144352A3AD0362A07D177
:10A1D00068E0522A02D0542AF9D102E001F034F8A2
:10A1E00082E0142249496846FCF740F9ADF8027054
:10A1F000384600F00BFDADF8040000F0C9F900226C
:10A20000444698F804103846FDF7C2FB0022E17876
:10A210003846FDF7BDFB6846FFF756FB64E0307B30
:10A22000012861D1B07A01285ED13089A0F524518E
:10A23000023959D10121384601F05AF808F0E4F901
:10A2400052E098F80610FDF78BFB00284CD0002256
:10A2500098F806103846FDF79BFBF288B2F5857F2B
:10A2600017D012B120462AA10BE02A88012A03D078
:10A27000204636A102F076FF6A88012A04D02046E3
:10A2800041A102F06FFF04E0A98800223846A1DF57
:10A2900008B1002125E0012298F807103846FDF7A3
:10A2A00077FB21E04FF0000998F80710FDF758FB05
:10A2B000D0B1002298F807103846FDF769FBF28804
:10A2C00012B1204612A104E0AA88012A04D0204637
:10A2D0002DA102F047FF03E0A87900B101208146DB
:10A2E0004946384607F0B4FE0022364998F8020085
:10A2F000FDF7D0FA05B0BDE8F04307F0E7B900007C
:10A30000B8390020C04A0300B84A0300BC2D03003E
:10A31000556E6578706563746564204741545420B8
:10A32000737461747573207768696C6520676574F0
:10A3300074696E67204341522063686172207661C0
:10A340006C75653A20307825780000004D756C7486
:10A3500069706C6520282564292043415220636878
:10A360006172616374657269737469637320666F87
:10A37000756E642C207573696E672074686520663D
:10A38000697273742E000000556E65787065637491
:10A390006564204341522063686172616374657231
:10A3A00069737469632076616C7565206C656E678E
:10A3B000746820282564292C2073746F72652030FE
:10A3C0002E000000F16F020070B5044600780028EE
:10A3D00014D1608800F038FF6588284600F09AF9AB
:10A3E00028B107480122C1782846FDF7D1FA6088D4
:10A3F000FEF7D0FABDE8704008F006B970BD000065
:10A40000B839002070B5204C00252570FDF79CFA66
:10A410006070FDF799FAA070FDF796FAE070FDF70D
:10A4200093FA2071FDF790FA6071FDF78DFAA07133
:10A43000FDF78AFAE07162780121182A18D0A27813
:10A44000182A15D0E278182A12D02279182A0FD0AB
:10A450006279182A0CD0A279182A09D0182807D0B6
:10A4600004F10C000560BFF35F8F2170002070BD08
:10A470000648074A801AC00801EB0040054902F06F
:10A480006DFE032070BD0000B8390020C04A0300F3
:10A49000B84A0300043403007CB504460078082859
:10A4A00037D1607A58BB207A1C4E4FF6FF750128D1
:10A4B00011D0072802D008282BD121E0A08800F075
:10A4C000EFFA0446A84224D0012100F011FF2046F3
:10A4D000FEF760FA1DE0A0886A46012104F0E4FD61
:10A4E00068B90198007850B1A08800F0D9FAA84264
:10A4F0000FD00122F178FDF74BFA07F0E7F808E0FA
:10A50000F068012805D1BFF35F8F044900200C31AA
:10A510000860BDE87C4008F077B80000B83900203A
:10A5200010B50B48FEF761FF094A083AD2E9043436
:10A53000C018D2E9063244F10001C31A71EB0202DD
:10A5400004D24FF08072801841F1000110BD00006C
:10A55000B83A002010B5C0B2FEF704FA04460078FD
:10A5600003F020FC01466078012801D0012000E0C2
:10A57000002090EA010F08D00449D1E90401084302
:10A5800003D1BDE8104007F01DBE10BD983A002071
:10A590001CB5054AD2E90212CDE900120022694633
:10A5A00004F048FF1CBD0000D42D030003484FF603
:10A5B000FF7181800121017000207047C83900209F
:10A5C0002DE9FC41804600F021FB002403250127F2
:10A5D000A0F57F412646FF3908D06A46082104F0DD
:10A5E00063FD18B90198841D8688056832462B469C
:10A5F00021464046B1DF042804D0082804D00B28A7
:10A6000008D002E0112000E00020002F00D10B2034
:10A61000BDE8FC810027A80701D50125E6E7344302
:10A6200003D0002426460325E0E7064806494246B3
:10A63000401AC008012101EB0040044902F092FDDC
:10A64000E5E70000C84A0300B84A0300CC3603001F
:10A650002DE9FC41804600F0D9FAA0F57F4106467D
:10A66000FF390ED001252A466D1C0027ADB26B467E
:10A670000821304604F062FD040006D0072C33D0D8
:10A6800033E043F20200BDE8FC81019903230A1D77
:10A690000B604046891DB2DF040004D00C2C09D0A9
:10A6A000052C09D009E032460821104604F0BEFD11
:10A6B00004461AE0012700E000240821304604F097
:10A6C000ABFD70B103F044FA03460948094932462C
:10A6D000401AC008012101EB0040074902F049FD82
:10A6E0000324002FBFD100E00C242046CBE700005C
:10A6F000C84A0300B84A03004C3603000448808867
:10A70000A0F57F41FF3901D006F0EABF7047000095
:10A71000C83900200EB502A9019100F077FA6A4607
:10A72000012104F0C1FC08B100200EBD01980078A1
:10A730000EBD00002DE9F04107464FF6FF761048A8
:10A74000B3DF78B103F004FA02460E480E49401A0E
:10A75000C008012101EB00400C4902F003FD032079
:10A76000BDE8F081064C43F20305A41E3246618821
:10A770003846AFDFA842F3D16088401C6080F5E71F
:10A78000CA390020C84A0300B84A03000036030053
:10A79000428800EB82020C328A4201D902207047C3
:10A7A0008188A1F57F42FF3A06D0018821B18068F7
:10A7B000401C01D00020704701207047884204D21D
:10A7C0000068401C01D00120704700207047000045
:10A7D0002DE9F041044640799046002500B104255A
:10A7E00094F8220008B145F00205CAB2FF2908D941
:10A7F000090A88F8012045F0010588F802100326AF
:10A8000002E088F801200226B4F84C0008B145F0B7
:10A81000100500271BE000BF94F84E10B21C9142B7
:10A820000BD2B4F84C0004EB4701C01B420004F10A
:10A8300024002431FBF71AFE0DE004EB470008EB7F
:10A840000601808C0870000A4870D6B27F1CB4F8EC
:10A850004C00B842E0DC34F84C0FC01B208088F874
:10A8600000503046BDE8F08170B506462448254AC0
:10A870000C46801A0978C008032202EB0040012927
:10A8800019D002293AD1A2881FA102F06BFCA1883D
:10A890002148FDF733FB002830D008282ED013289C
:10A8A0002CD011282AD043F20141884226D0BDE89D
:10A8B0007040FCF76DBA194D2988A1F57F42FF3A27
:10A8C0001CD162882A8016A102F04CFCFFF750FAD6
:10A8D000221D29883046FDF7A9FA08B1FCF758FA7D
:10A8E0000021288804F0DEFF112802D008B1FCF70F
:10A8F0004FFA3046FDF7A6FA0028D8D170BD000007
:10A90000884B0300B84A03004865617274205261A5
:10A910007465203D20256400B03B0020A42D00205C
:10A9200048525320646973636F7665726564206F63
:10A930006E20636F6E6E5F68616E646C6520307848
:10A94000257800003EB5027802230C46B3EB520F87
:10A9500017D1B0F80110ADF80010C1788DF80210D1
:10A960008188ADF8041080798DF8060002AA01A94B
:10A970002046FCF746F9032202A96846FBF7BDFD15
:10A9800008B100203EBD01203EBD000070B50D465F
:10A990000446142810D2FDF717F868B1084904EBF3
:10A9A000840001EB4000D0F802102960C188A98022
:10A9B000007AA871002070BD43F2020070BD000053
:10A9C0008C45002070B5018890B0102961D1011D1F
:10A9D0002C226846FBF74AFD9DF804004FF6FF76EF
:10A9E00003213446B1EB500F2BD004F0E1FC9DF86D
:10A9F00004006D4640080ED001280CD0022820D15A
:10AA000018E00D99281D1131FCF79AF818B100BF14
:10AA1000BDF82C4015E00CAA0BA9072004F09CFC03
:10AA20000028EED10DE00D99281D491CFFF78AFF83
:10AA30000028EDD10CAA0BA9072004F08DFC0028FA
:10AA4000F1D1BDF80000B44200EB8001124820F8BB
:10AA5000114000EB41000199C0F80210BDF8081048
:10AA6000C1809DF80A10017213D0BDF80000ADF846
:10AA70002E000020ADF83040084E8DF82C000BADB4
:10AA8000044600BF56F8241028468847641C022C50
:10AA9000F8D310B070BD00008C450020E82D0300F5
:10AAA0002DE9F0414FF6FF760546B04213D00B4F2B
:10AAB000002400BF04EB840037F81000A84206D140
:10AAC0002046FCF781FF10B12046BDE8F081641CF0
:10AAD000A4B2142CEED33046F7E700008C450020DA
:10AAE0003EB50C46054604F063FC0BE0BDF80000E3
:10AAF000A04207D02846029900F00EF810B1BDF828
:10AB000000003EBD01AA6946072004F025FC00288C
:10AB1000ECD14FF6FF703EBD2DE9F0410C460546E5
:10AB200000F1110701F111061022491C401CFBF72E
:10AB3000E4FC48B9681C00F023FA28B1601C00F05E
:10AB40001FFA08B1012400E0002431463846FBF723
:10AB5000F7FF3B780222B2EB530F0CD00321B1EB8D
:10AB6000530F08D03378B2EB530F04D0B1EB530F2F
:10AB700001D0012100E00021084201D18C4302D024
:10AB80000120BDE8F0810020FBE7018811B94218DF
:10AB900092780AB101207047491C0829F7D3002098
:10ABA000704710B50C460346FFF7EFFF00280AD0A8
:10ABB00018882188884205D10822A11C981CFBF71F
:10ABC0009CFC08B1002010BD012010BD142804D247
:10ABD000024A00EB800022F8101070478C450020DC
:10ABE00070B50546FFF75CFF0446284604F060FA9E
:10ABF000002808D1142C06D2034B04EB84024FF634
:10AC0000FF7123F8121070BD8C45002010B504466A
:10AC1000142808D2FCF7D8FE28B1044904EB8400BC
:10AC200031F8100010BD4FF6FF7010BD8C450020AC
:10AC30003EB5044604F0BCFB0EE0019920464631C7
:10AC4000FFF7AFFF28B9019920462A31FFF7A9FF86
:10AC500010B1BDF808003EBD6A4602A9072004F005
:10AC60007BFB0028E9D14FF6FF703EBD10B50A49C5
:10AC700041600A4800F0FDFE58B902F0C9FE0749DC
:10AC80001C238C22087404488C39001F006800F0D3
:10AC900056FE002010BD0000E42F0300604B002092
:10ACA0002DE9F0412D4F002520B17D604FF4064085
:10ACB000BDE8F0810879012258B1294E01280CD055
:10ACC000264C4FF002080834022820D0032841D136
:10ACD00027E00A7104F040F83AE0002000EB800120
:10ACE00016F82110022908D0401C80B20228F5D3A2
:10ACF0003A707D6041F61D50DAE700EB800006F8FF
:10AD0000205006EB8000406804F018F820E00D7138
:10AD1000A4F80480002301221248216801F0E6FC17
:10AD200016E00D71206804F009F80D4923682831F8
:10AD3000498801EB810206EB8201D1F804C0C4F816
:10AD400000C04B60A3880B81A4F8048006F8225051
:10AD50000028ADD07D6048F20D60A9E7003B0020DF
:10AD60008C4A00209C3B00200146034802888A420E
:10AD700000D0002070470000C84400202DE9FC5F8F
:10AD80000E008346DDE90C47C6F100009846924666
:10AD9000814600D40846012503E000BF90FBFAF08D
:10ADA0006D1C5045FADAA84500D9454624B1002E5D
:10ADB00001DB780700D5641EB80702D5B8F1000F93
:10ADC0000AD0F80708D13CB1A54205D22021584647
:10ADD000641EFDF7A3FDF6E7002E02DA4E462D2194
:10ADE00002E0780703D52B215846FDF797FD07F0C1
:10ADF000030002280BD1B8F1000F08D13CB1A542E5
:10AE000005D230215846641EFDF788FDF6E7CDE9EE
:10AE10000047434652463146584607F09BFBBDE883
:10AE2000FC9F000070B50D46044600684FF4887121
:10AE300002F0AEFE4FF49071206802F0A9FE4FF4CC
:10AE40009271206802F0A4FE4FF4A271206802F013
:10AE50009FFE4FF4AC71206802F09AFE2068124900
:10AE6000C0F804132068690740F30730090E002872
:10AE700004DB00F1E02080F8001405E000F00F0092
:10AE800000F1E02080F8141D206840F3073000280E
:10AE900009DB00F01F02012191404009800000F110
:10AEA000E020C0F8001170BD1003420002460020EF
:10AEB0001268530713D502F00300012802D00228BC
:10AEC0000CD105E0C2F383100B68801C184404E029
:10AED0000223086803EB9252104408600120704777
:10AEE0000248007A002800D001207047604B002003
:10AEF000F0B58488A518944200D82246A41AC288C6
:10AF0000D6189A4200D81346D21A4B880788BB42FB
:10AF10000CD34088834209D88888A04206D3A8422F
:10AF200004D8C888904201D3B04201D90020F0BDB6
:10AF30000120F0BD10B509892AB1D088491C814291
:10AF400018D1002010BD90F8C62202EB8204C4EB99
:10AF5000821200EB420212899142F2D0491C198000
:10AF600090F8C61201EB8102C2EB811100EB4100A7
:10AF7000008902E01980D088401E5880012010BD51
:10AF80000021425C0AB101207047491C1029F8D306
:10AF90000020704790F83A00C0F3C100012803D0A8
:10AFA000032801D00020704701207047800701D09E
:10AFB00000207047012070470A4810B5807860B1C2
:10AFC000002401E0022C06D02046FDF75FFA641C45
:10AFD000042CF7D310BD0324F6E7BDE81040FDF7BD
:10AFE00075BA00008839002003480179C90702D0EA
:10AFF0000078FDF765BB7047883900201721018074
:10B0000041800021017141711B218171C171704723
:10B010002DE9FE4F2E4F984692460D00814601D0F5
:10B0200000260DE0684600F047FC6A4600214846CD
:10B0300003F096FF3878009E10B99DF8090098B18A
:10B0400052463146484606F0AFFE0446014600220D
:10B050004846FEF7F9FE0D2C37D008DCA4B3082CC7
:10B0600033D00B2C09D130E00520BDE8FE8F112C28
:10B070001ED0A4F54050023827D0204602F068FDCB
:10B080000246144814494B46401AC008012101EBFE
:10B090000040124902F06DF85FF00305B8F1000FAF
:10B0A00004D0324621464846FEF73EFB2846DCE700
:10B0B0002A46F9784846FCF76BFC5246B978484670
:10B0C000FCF766FC0025E9E7FFE72546E6E7000018
:10B0D000603A0020184B0300B84A0300FC4103000B
:10B0E0007EDF042800D111207047000070B50D00EC
:10B0F0001446064617D01648C1783046FCF748FC7F
:10B100003046FFF783FD0146A0F57F40FF3800D0B1
:10B1100074B129463046FFF7E3FF04462878C0079C
:10B120000BD001220AE0BDE870400021FFF7D8BF34
:10B13000304600F00FF8044605E002222CB1002151
:10B14000304606F0FDF9204670BD0121F8E7000009
:10B15000583A00207CB50E4605466A46072130461F
:10B1600003F0A2FF040013D0052C1DD0112C2BD00E
:10B1700002F0EEFC0246194819493346401AC0084D
:10B18000012101EB0040174901F0F3FF03241BE00C
:10B19000019C94F84400183410F0010001D0019C87
:10B1A00034340CB110B106E011240DE004F11200AA
:10B1B000FFF7EBFC38B1224604F11201284685DF87
:10B1C000040008D000E00B2400210022284606F0ED
:10B1D000B7F920467CBD0121F7E70000104B0300C2
:10B1E000B84A03008C40030070B514460D4606466D
:10B1F00006F0D6F900280FD0304603F057FE00289D
:10B2000022462946304603D0BDE8704003F054BEC4
:10B21000BDE87040FEF7E8B970BD000070B5094D9B
:10B220000646A978FCF79CFB0446E9783046FCF713
:10B2300097FB014622463046BDE870400123FFF7E8
:10B24000E7BE0000603A0020F0B585B00546002753
:10B2500014216846FBF731F9A5F57F40ADF802509F
:10B26000FF3825D02846FFF7ABF9040022D01B4851
:10B270001B49401AC6080B2C22D0112C1ED0A4F555
:10B28000405002380ED0204602F062FC02460120F7
:10B2900000EB06402B46134901F06BFF2146284680
:10B2A00006F0CCF910483A4681782846FCF770FB46
:10B2B00005B0F0BD0E208DF800000BE00127F1E78E
:10B2C0000F208DF80000022000EB06402A460749B7
:10B2D00001F048FF6846FEF7F7FAE3E7C04A0300CB
:10B2E000B84A0300D4340300B839002028350300DD
:10B2F0000A4602494978FCF74BBB0000B8390020E8
:10B300002DE9F041002786B080463E46FFF7A0F9C0
:10B31000040022D0112C22D01B481C49401AC50819
:10B32000862C1ED0A4F5405002380ED0204602F0E4
:10B330000FFC0246012000EB0540434614A101F03A
:10B3400018FF2146404606F079F939464046FFF796
:10B35000CFFF06B03046BDE8F0810126F5E70127B2
:10B36000F3E714221A496846FBF780F80220ADF88B
:10B37000028000EB0540424616A101F0F3FE68464C
:10B38000FEF7A2FAE1E70000C04A0300B84A030052
:10B390006773636D5F6C6F63616C5F64625F636151
:10B3A0006368655F757064617465282920726574CF
:10B3B00075726E656420257320666F7220636F6EF0
:10B3C0006E5F68616E646C653A2025640000000061
:10B3D000942D0300466C6173682066756C6C2E209A
:10B3E000436F756C64206E6F742073746F72652088
:10B3F0006461746120666F7220636F6E6E5F686156
:10B400006E646C653A202564000000002DE9FF4160
:10B410000026244800F02AFB2248001F074600F0BF
:10B4200025FB214C2149A06800900D6800E00098A0
:10B430006946284004EB80000C30FFF737FD0028F8
:10B44000F5D101AA009901EA050304EB8303491C25
:10B45000DB6842F82030401C00910228F2D30198AA
:10B4600000F0030001280BD0022810D1019803211D
:10B4700001EB90500099BDF80A6001EB900005E0E7
:10B480000198BDF80A60C0F3831008440090384664
:10B4900000F0E9FA08B10098A06004B03046BDE8B9
:10B4A000F081000030510020184D0020403B00206A
:10B4B000ACB04FF48041002001F0CEFE08B1FBF7A4
:10B4C00067FC01F021FDFBF781FC08B1FBF760FC94
:10B4D00000210320FDF7AAF808B1FBF759FC6946E3
:10B4E0000020FDF717F808B1FBF752FC9DF80000AB
:10B4F00002287DD05FF0000601F0B8FF08B1FBF72D
:10B5000047FC02F039FA08B1FBF742FC0024694617
:10B510000120009402F0C0F808B1FBF739FC68463E
:10B5200002F03AF908B1FBF733FC05F03FFEFEF7F5
:10B53000BFFC00214A4800F025FB08B1FBF728FCBE
:10B540001C216846FAF7B9FF4FF4A030CDE900405E
:10B550004FF4F0204FF0030802908DF80C804FF666
:10B56000FF70ADF80E0001253E488DF81050CDE972
:10B5700005406846FCF73CF908B1FBF709FC3B4C79
:10B580003948CDE900046846FCF748FA08B1FBF7F2
:10B59000FFFB04F0A5F8374F3548CDE900073048E8
:10B5A000694602942838FCF775FC08B1FBF7F0FBFC
:10B5B0003148CDE900072A48694602941438FCF75F
:10B5C000A6FD08B1FBF7E4FB06F0CEF9AC21684616
:10B5D000FAF773FF02208DF80000ADF81000062185
:10B5E00022488DF802508DF803100838059000E0CD
:10B5F0002BE04FF49670229044F2506023908DF827
:10B600007C501E482990164869464830FBF726FFB3
:10B6100008B1FBF7BDFB124801214830FBF71BFFC7
:10B6200017481849401AC10808EB0140044616A102
:10B6300001F094FD5EB1204619A101F08FFD04F0E8
:10B64000E3FE30B1FBF7A4FB03E0012654E7FBF770
:10B650009DFA01F067FC0028FBD101F01BFFF8E721
:10B66000443C0020ED8D0200418F0200B02D0020EF
:10B6700069A8020065190300E50E03006DE30200EE
:10B68000884B0300B84A030052656C6179206578E5
:10B69000616D706C6520737461727465642E000056
:10B6A000457261736520626F6E6473210000000053
:10B6B00070B5144682880E4605462088111D014447
:10B6C000921C994201D8FE2A01D90C2070BD521C4F
:10B6D00032542088FF21401C80B2208031542088C1
:10B6E000401C80B220808119288806F01EFF218826
:10B6F000084480B22080AA8842B1A96841B1304490
:10B70000FAF7B4FE2088A98808442080002070BD84
:10B71000072070BD2DE9F047C5881E1DB6FBF5F763
:10B720008946B6FBF5F1044605FB176C40791668AF
:10B730006843DDF820A0F718001F874200D9C61A19
:10B74000166001E02468491E0029FBD1A5EB0C0717
:10B750008846B74216D818E004EB0C00001D09EB30
:10B760000803BAF1000F3A4602D00146184600E03D
:10B770001946FAF77BFE2468F61B4FF0000CB8441C
:10B78000B54201D9374600E02F46002EE4D1BDE88E
:10B79000F087000030B5024651B101F071FD002183
:10B7A000074C08E034F821301568AB4202D1116033
:10B7B000002030BD491C8142F4D3052030BD00007B
:10B7C0000000000010B50F4B00224FF6FF7400BFC1
:10B7D00002EB420103EB81014988A1420DD102EB4A
:10B7E000420103EB81020146104600F051FB0028A4
:10B7F00006D0BDE81040FBF7CBBA521C032AE7D3B2
:10B8000010BD0000683C0020BFF35F8F00F016B948
:10B81000F8B50F46017814460546012901D168782C
:10B8200030B12088821C9A4232D8012902D006E029
:10B830000720F8BD69780144891C994228D8181A54
:10B84000801E86B2ADF800602188B81C08446946A5
:10B850007DDF0028EDD12978022904D06878BDF871
:10B860000020904205D3BDF80000B04201D8092065
:10B870000AE00820012905D16978B14202D8ADF863
:10B88000001001E0ADF80060BDF80010FE2901D9FC
:10B890000C20F8BD2288491CB9542188491C89B262
:10B8A000218078542088401C2080BDF80010084476
:10B8B00020800020F8BD0000034A00219268C0E902
:10B8C0000021816070470000603A002070B586B0AA
:10B8D0000D460646144614216846FAF7EEFD8DF82B
:10B8E0000050ADF802402046FFF790F9ADF8040093
:10B8F000142269463046FAF7B9FD06B070BD70B53E
:10B900004FF6FF750E46A84201D1002000E0401C12
:10B9100084B208E02146304600F090F808B1204695
:10B9200070BD641CA4B2FF2CF4D9284670BD10B5BC
:10B93000FAF7BBFC08B1002010BD112010BD10B5F6
:10B9400031B1B2FBF3F403FB14241CB1092010BD88
:10B950000E2010BD01600021416081608281C381A1
:10B96000084610BD70B50C460546FAF753FC002892
:10B9700002D021882868084470BD10B50A8849881B
:10B980008A4203D1FAF788FC012010BD002010BDC7
:10B9900070B50C460546FAF762FC002802D06188B3
:10B9A0002868084470BD10B50A8849888A4203D1C6
:10B9B000FAF74CFC012010BD002010BD01F01F0360
:10B9C00001229A40D243490900EB8100114600F060
:10B9D00059B80A4601F01F030121994010B55209D8
:10B9E0000C4600EB820000F05DF8204000D0012002
:10B9F00010BD2DE9F04180460D460024481E01216E
:10BA000001EB501716E058F82400C04390FAA0F05C
:10BA1000B0FA80F020280CD200EB4416AE4208D2D7
:10BA200031464046FFF7D5FF0028ECD13046BDE84F
:10BA3000F081641CA742E6D82846F8E74A0950F886
:10BA4000220001F01F0201219140084000D0012096
:10BA5000704701F01F0301229A40490900EB810061
:10BA6000114600F029B8002100F017B8012100F0BC
:10BA700023B8012100F016B808B56A46FAF761FC50
:10BA8000009808BD08B56A46FAF741FC009808BD61
:10BA900008B56A46FAF755FC08BD08B56A46FAF7D4
:10BAA00036FC08BD08B56A46FAF724FC08BD08B59F
:10BAB0006A46FAF713FC08BD08B56A46FAF71AFC9D
:10BAC000009808BD08B56A46FAF748FC009808BD1A
:10BAD00038B5044600258DF800506846FBF7C2F9DA
:10BAE00021686268086890420ED9401E086001789B
:10BAF000238AE26801FB0325227A2168101AC0B26A
:10BB00000A79824200D208719DF80000FBF7CEF955
:10BB1000284638BD38B5054600208DF800000C4693
:10BB20006846FBF79FF9E868298A201AB0FBF1F113
:10BB30002A681068431C136001709DF80000FBF731
:10BB4000B5F938BD10B530B1017A42680368891A79
:10BB5000C9B21A6006E00E2010BD03681A68541CB2
:10BB60001C601170491EC9B2F7D200680021017132
:10BB7000084610BDC20800F007030120895C984008
:10BB80000840704770B5040010D017202162208053
:10BB900060801B202071002504EBC500801DFFF78D
:10BBA0002DFA6D1C032DF7D3002070BD0E2070BD43
:10BBB0002DE9F04185888EB00C46032D7ED2018898
:10BBC000474E4FF00008242940D006DC102909D048
:10BBD00011290CD023295FD154E03A290DD05529E1
:10BBE0005AD12EE00146204602F016FE54E004EB46
:10BBF000C500801DFFF702FA4EE0294604EBC1079D
:10BC0000408937F8062F824200D8104678801728DE
:10BC100000D217207880206A70B1787960B1D6E9B7
:10BC20000002CDE90002ADF802107888ADF80400FA
:10BC3000226A20466946904787F8058087F8048085
:10BC40002AE00146204602F0A9FE25E0011D2C2233
:10BC50006846FAF70BFCBDF80000BDF8042004EBC1
:10BC6000C0014A73226ABAB1D6E90423CDE90B2395
:10BC7000ADF82E00487B8DF83000226A20460BA9D3
:10BC8000904709E004EBC503017A187B884200D293
:10BC900001462846FDF7F4F804EBC504A07A002815
:10BCA0001AD0E1882846A5DF012590B1112813D0CC
:10BCB00001F04EFF02460B480B4900E00CE0401A31
:10BCC000C0080EB005EB0040BDE8F04107A101F04F
:10BCD00049BA84F80A80E5720EB0BDE8F081000030
:10BCE000F02D0300D84A0300B84A030073645F6272
:10BCF0006C655F67617474635F65786368616E67C4
:10BD0000655F6D74755F7265717565737428292040
:10BD100072657475726E65642025732E00000000D4
:10BD20002DE9F0410F4604004FF000050DD004F05E
:10BD30002DFE39462046FCF7E7FF218881421ED1BF
:10BD4000002005464FF6FF7609E00E20BDE8F081A1
:10BD5000626832F81020B24206D1401C80B28142A3
:10BD6000F6D8206901F060FB002021880BE06268B2
:10BD700032F81020B24204D1616821F810702846D0
:10BD8000E4E7401C80B28142F1D80420DEE70000E5
:10BD90002DE9F04791460D4604004FF0000742D0D0
:10BDA000EDB304F0F3FD49462046FCF7ADFF2978DA
:10BDB000062902D22188814202D10720BDE8F087FE
:10BDC000A16800EB800601EB860001F0CCFB30B1EE
:10BDD0004946284604F0FAFF08B13846EEE72978CC
:10BDE000DFF8488058F821202AB12069B8B12946E7
:10BDF00090470028E2D1A068294600EB860001F0B8
:10BE0000D1FB070006D0297858F8210010B16868E6
:10BE100001F0EDFAA068494600EB860000E002E080
:10BE200004F05AFCD9E70E20C8E70000082E0300F2
:10BE3000F8B505000C4620D0002C1ED0288811280B
:10BE400006D0A0F130011F2902D950381F2814D87C
:10BE5000AE8820463146FCF757FFADF80000218838
:10BE600081420AD02988112908D0A16800EB8000FE
:10BE700001EB8000314604F02FFCF8BD62684FF6FC
:10BE8000FF7122F810106946E06801F08BFBF8BDE5
:10BE900020B10278DE2A03D0082070470E207047B8
:10BEA00041800020704760B159B10278DE2A0AD083
:10BEB00009684160DE2101704FF6FF71418000206A
:10BEC00070470E207047082070477FB5054600294F
:10BED0004DD0002D4BD008780C46DE2847D1A888DD
:10BEE0006188884202D1204606F0ECFB28880128B0
:10BEF00025D002283BD011283AD0512837D135F827
:10BF0000040F6188884232D1A978A81C02292ED159
:10BF1000017A042903D0062901D0052927D100215F
:10BF2000009102228DF8002001914FF4C07202911D
:10BF30000391ADF80420007A05280FD010E0297A8B
:10BF40002046012913D1A988428891420FD10121AD
:10BF5000017204B0BDE8704006F0B4BBADF8041047
:10BF600028886946B0DF002801D0616888477FBD16
:10BF7000A88861888842FAD14FF6FF7060807FBD43
:10BF800010B504462021FAF798FA002084F8200022
:10BF900044F8220F6060207210BD2DE9F041044684
:10BFA00000F13A0700F1300590F8386090F82E0063
:10BFB00086B001F10208002814D08BDF14216846F6
:10BFC000FAF77BFA33462A46394640468CDF05218C
:10BFD0008DF800100190002804D0A16C002901D038
:10BFE0006846884706B0BDE8F0814FF4C871C18645
:10BFF000062101861821418600218186704710F8AC
:10C000003A1FA02242805022828021F01801002293
:10C01000C28041F0040101700121417070470000AD
:10C020002DE9F04140B13AB10025042631B1032990
:10C030002ED00720BDE8F0810E20FBE7074600F177
:10C04000200490461046FAF743FA10F0FF0001D0A2
:10C05000202801D90C20EDE72078F8B95FF0000620
:10C0600007EB46104146FAF73AFAF8B1761C16F09B
:10C07000FF06F5D04046FAF72BFA024620784146F3
:10C0800007EB4013401C20701846FAF7EFF90DE05B
:10C0900000F1220410F82A3F022B01D33046C9E7F1
:10C0A0001688002134F82170B74201D12846C1E733
:10C0B000491CC9B20229F5D304EB83015B1C037050
:10C0C00010680860F2E730B121220021115480F895
:10C0D0002B10084670470E20704730B515460B46AA
:10C0E000040002D0980702D009E00E2030BD5807A6
:10C0F00005D4D80603D4180701D4072030BD204644
:10C10000FFF7E1FFD9074FF0010001D084F82100CB
:10C11000590701D584F82B0084F82C50002030BD3D
:10C1200070B50D46040012D02E21A264FAF7C5F9AD
:10C13000EDB1287984F82E00287B84F8380029682E
:10C1400039B10E2204F13A00FAF790F904E00E201A
:10C1500070BD2046FFF753FFA86820B10168216336
:10C16000406860630CE02046FFF73FFF08E0204690
:10C17000FFF745FF2046FFF738FF002084F82E0028
:10C1800004F14C00C4F84C01FF20A4F85001002039
:10C1900070BD2DE9F04F93B00E4604464FF00008F5
:10C1A0004546142106A8FAF788F904F13A000A90E6
:10C1B0002046FEF7EFFE010004F5A670109010D0A7
:10C1C00002208DF818000796A16C06A88847002069
:10C1D00010998ADF31462046FFF7DFFE13B0BDE835
:10C1E000F08F94F82C00049094F8210094F82BB070
:10C1F0004FF0000AE0B194F82090B08B4FF00108A6
:10C2000000270C9012E004EB4712B0690C99FBF781
:10C2100072F848B19DF820004FF0010A40F001008B
:10C220008DF820006D1C03E07F1CFFB24F45EAD360
:10C23000BBF1000F36D004F122000F9094F82C00CF
:10C24000119094F82AB04FF00009B08B08F1010862
:10C250004F460E9012E00F980E9900EB8702B069DE
:10C26000FBF79EF830B109F1010000F0FF091198C9
:10C2700058B101E0119828B97F1CFFB25F45EAD39D
:10C28000119810B1D94503D00CE0B9F1000F09D0D5
:10C290009DF820006D1C40F00400EDB28DF82000E8
:10C2A0004FF0010A0498079608B1454503D0049958
:10C2B0003AEA010007D000208DF8180031462046E8
:10C2C000FFF76BFE02E003208DF81800A16C09B1A6
:10C2D00006A88847002010998ADF7FE770B50D46D1
:10C2E000014601F108020C1D284609883A3586B03E
:10C2F00010291ED01B2907D01D292DD106B01146AB
:10C30000BDE87040FFF745BF064614216846241D6E
:10C31000FAF7D3F8207801281ED1B06C00281BD082
:10C3200004208DF80000049520788DF80400B16C8D
:10C3300010E0064614216846FAF7BFF806208DF88B
:10C340000000201D01902088ADF808000495B16C14
:10C35000002901D06846884706B070BD30B585B069
:10C36000040025D014216846FAF7A7F88BDF204691
:10C37000FEF710FE012528B1A16C19B18DF800500F
:10C380006846884704F5A67104F13A008ADF04463E
:10C3900008280FD074B1084808492246401AC0083E
:10C3A00005EB004006A100F0DDFE204605B030BDE3
:10C3B0000E20FBE70020F9E7E84A0300B84A030033
:10C3C00073645F626C655F6761705F7363616E5F0A
:10C3D00073746172742072657475726E6564203056
:10C3E0007825780000F180400068002800D0012006
:10C3F000704708B500F1804000210160006800909E
:10C4000008BD000070B50D4C0125207808B18526C7
:10C410000EE00020A06060602061E060084801F04C
:10C42000DBFB064601F0F4FA08B901F0BFFB25700A
:10C4300001F0B4FB00B1A570304670BD704800201B
:10C44000D58C020038B500258DF800506846FAF703
:10C4500009FD084CE068401EE060E06828B901F082
:10C460009DFB10B901F0C8FBA5709DF80000FAF71C
:10C470001DFD38BD70480020F0B50546047815480C
:10C4800089B0164640F82420124A0869121DA2F10C
:10C49000080742F82400487F385520226846F9F7FB
:10C4A000E5FF04942878385C48B10EB10A4A00E0F0
:10C4B00000226946281D01F02FFE09B0F0BD0EB123
:10C4C000064A00E00022694605F10C0001F0EEFC8E
:10C4D000F3E700007C3A0020E92303003122030047
:10C4E0000FB408B50399002904D004AA00926A4643
:10C4F00000F00FF801B05DF814FB10B58268044637
:10C50000002A05D0D4E90403216898470020A060E0
:10C5100010BD2DE9FC4791460C00804676D014F8FA
:10C52000011B39B125290ED04046FCF7F7F92078D8
:10C530000028F4D198F80C00002867D04046BDE8E8
:10C54000FC47FFF7DABF0020012221782B291BD0FE
:10C550002D2902D0302908D102E040F0010001E08D
:10C5600040F00200641C002AEFD100252A290ED0D9
:10C570002178A1F130020A2A11D205EB850201EBE4
:10C580004205641C303DF1E740F00400EAE7D9F8C9
:10C5900000100B1DC9F800300968641C0D44217897
:10C5A00000232E290BD114F8011FA1F130020A2A11
:10C5B00005D203EB830201EB4203303BF3E76C2926
:10C5C0000DD068290BD0692921D00BDC252918D082
:10C5D000582931D063290ED0642915D117E014F8F9
:10C5E000011FECE7702969D0732932D075291BD05F
:10C5F000782909D120E0D9F80000011DC9F8001000
:10C6000001784046FCF78AF9641C90E76CE0D9F8A1
:10C6100000100A1DC9F800200968CDE900500A225F
:10C620004046FEF7ABFBEFE7D9F800100A1DC9F84A
:10C63000002009680A2206E0D9F800100A1DC9F88E
:10C64000002009681022CDE90050404605F082FF25
:10C65000DAE7D9F8001000270A1DC9F800200E6893
:10C66000C00705D112E04046761C7F1CFCF756F946
:10C6700031780029F7D104E0202140466D1EFCF7F7
:10C680004DF9BD42C0D9002DF6D1BDE74EB13046BF
:10C69000F9F71EFF074604E0202140466D1EFCF717
:10C6A0003DF9BD4206D9002DF6D103E04046761C87
:10C6B000FCF734F931780029F8D1A5E7D9F8000062
:10C6C000011DC9F80010056830214046FCF726F925
:10C6D00078214046FCF722F908200021CDE900012D
:10C6E000034610222946B0E7BDE8FC872DE9F84350
:10C6F000884605002C482D499946A0EB01004FEAD9
:10C70000D0004FF00101164601EB004424D0286808
:10C7100000282CD0002E34D0696840464FF0100716
:10C720000A68511E11EA080F11D1014672432846CA
:10C73000FAF71FFA00282ED028684B4632460469C3
:10C7400001B041462846A446BDE8F0436047204674
:10C75000174B18A2009722E00E2000902046144BA1
:10C760001EA220A100F00DFD0E20BDE8F8830820D8
:10C77000009020460E4B26A21AA100F002FD0820D0
:10C78000F3E7092000902046094B24A215A100F0F0
:10C79000F8FC0920E9E7064B214A2046009711A141
:10C7A00000F0EFFC1020E0E7704B0300B84A0300F4
:10C7B000CB2F0300616464725F69735F70616765AA
:10C7C0005F616C69676E656428705F66732C2070AA
:10C7D0006167655F6164647229000000705F667361
:10C7E00000000000257320636865636B2066616943
:10C7F0006C656420696E2025732829207769746828
:10C800002076616C756520307825782E0000000058
:10C81000705F66732D3E705F617069006C656E00BD
:10C82000C042030038B503001148124D4FF00E040A
:10C83000A0EB05004FEAD0004FF0010505EB0040EA
:10C8400009D061B119600C6801B0A446BDE8304060
:10C85000114618466047084B08A2009402E0064BB8
:10C8600008A2009409A100F08CFC0E2038BD000045
:10C87000704B0300B84A0300802F0300705F66739B
:10C8800000000000705F6170690000002573206384
:10C890006865636B206661696C656420696E20253C
:10C8A00073282920776974682076616C756520305B
:10C8B0007825782E000000002DE9F04128B10168AC
:10C8C00019B1C969BDE8F04108470D4D0D48002474
:10C8D000461B14270DE000BF04EB840005EB80002D
:10C8E000016829B1C969884710B10120BDE8F0810C
:10C8F000641CB6FBF7F0A042EED80020F6E700007B
:10C900009C3B0020B03B0020044801214174007A88
:10C9100008B100207047012070470000604B0020E4
:10C92000012801D0032808D10449002201284A74B3
:10C9300000D00020087403F0ADBF7047604B0020AA
:10C9400070B50246022801D0032A45D1234C207A33
:10C95000002841D0012833D0022831D120480023BB
:10C96000022A006802D0032A2AD11BE0E360017981
:10C9700011B1012924D10DE0D0E90565711B4FF4F7
:10C980008056B14200D33146294481614569A942AC
:10C990000ED015E00169491C0161426991420FD135
:10C9A000237213E0E168491CE160082908D9E360BB
:10C9B0002372022A0AD00D21FCF78CFE03F082FEBE
:10C9C000607C28B1BDE8704001F028B80021F3E791
:10C9D000BDE8704003F05EBF70BD0000604B0020FA
:10C9E000103B00202DE9F84F90468A463A493B4AD1
:10C9F0000500A1EB02014FEAD1014FF00102DDF881
:10CA000028901E464FF00E0002EB01441AD0B8F1F8
:10CA1000000F1CD02868002822D00920002E29D021
:10CA200069684968B6FBF1F201FB1261002926D062
:10CA300000902B4B20462BA235A100F0A2FB092031
:10CA4000BDE8F88F00902046254B3CA203E0009003
:10CA5000234B20463BA22EA100F093FB0E20EFE7D4
:10CA60000820009020461E4B38A229A100F089FB27
:10CA70000820E5E700902046194B37A2DCE7504636
:10CA8000FAF771F8102798B14046FAF76CF8A0B1A0
:10CA9000324651462846FAF76CF898B1CDF8009026
:10CAA000286833464246C46851462846A047C7E72F
:10CAB00020460B4B29A2009708E02046084B2DA2E8
:10CAC000009703E0064B204633A2009710A100F028
:10CAD00058FB1020B4E70000704B0300B84A030075
:10CAE000B82F030021286C656E202520705F6673C7
:10CAF0002D3E705F666C6173685F696E666F2D3E78
:10CB000070726F6772616D5F756E697429000000E5
:10CB1000257320636865636B206661696C656420BA
:10CB2000696E202573282920776974682076616CE6
:10CB3000756520307825782E00000000705F6673E0
:10CB400000000000705F737263000000705F667326
:10CB50002D3E705F617069006C656E006164647287
:10CB60005F69735F616C69676E6564333228646501
:10CB700073742900616464725F69735F616C6967D3
:10CB80006E65643332282875696E7433325F742998
:10CB9000705F737263290000616464725F69735F20
:10CBA00077697468696E5F626F756E647328705F11
:10CBB00066732C20646573742C206C656E290000EC
:10CBC00070B541EA4201DDE904564FF0A04441EA64
:10CBD000830141EA052104EB800041EA0641C0F8E7
:10CBE000001770BD70B541EA4201DDE904564FF00F
:10CBF000A04441EA830141EA052104EB800041EAB7
:10CC00000641C0F8001770BD70B541EA4201DDE988
:10CC100004564FF0A04441EA830141EA052104EBA8
:10CC2000800041EA0641C0F8001770BD70B541EAC6
:10CC30004201DDE904564FF0A04441EA830141EA94
:10CC4000052104EB800041EA0641C0F8001770BDE1
:10CC50001CB5002100910B4601220191FFF7D4FF82
:10CC60001CBD1CB5002100910B4601220191FFF76C
:10CC7000DDFF1CBD1CB500220B460092114601923F
:10CC8000FFF7C2FF1CBD1CB500220B4600921146E7
:10CC90000192FFF7CBFF1CBD1CB5002100910B4694
:10CCA000012201911146FFF7AFFF1CBD1CB5002109
:10CCB00000910B46012201911146FFF7B7FF1CBD01
:10CCC0004FF0A04202EB8000D0F8002722F440325F
:10CCD000C0F80027D0F8002742EA0141C0F8001749
:10CCE0007047000038B5094B44181B6800936B4629
:10CCF00008E000BF53F82010D1F8205520C2C1F839
:10CD00002055401C8442F5D838BD00001C2F03007C
:10CD100042094FF0000100D1491E00F01F0001221E
:10CD200082400A4201D00120704700207047012252
:10CD30004FF0A043824011B1C3F808257047C3F8F3
:10CD40000C257047034908B50844002101600068BC
:10CD5000009008BD0060004002494058012800D002
:10CD6000002070470060004030B5154A01460020A1
:10CD7000D2F8104423460AE0DB681D79854205D1CC
:10CD8000401C0A28F6DB4FF0FF3030BD1B68002B3B
:10CD9000F2D1431CF9D0CB681871D2F8103443B1EA
:10CDA000DB68CC681B682360D2F81024D26811605D
:10CDB00030BDC2F81014C96800220A6030BD0000FE
:10CDC000184D0020F0B595B01C4615460F46084694
:10CDD0001A9E00F025FB182109A8F9F76EFB0E96A4
:10CDE000CDE909540023082203A9384600F02DFBA1
:10CDF00005980690BDF81000ADF81C00BDF81200B3
:10CE0000ADF81E0000208DF821000398082600F0E0
:10CE10000300012802D0022818D032E003983346DC
:10CE2000850AC0F3C2008DF8200003980FA9C0F353
:10CE30008314A200384600F008FB09A8009006AB56
:10CE400022460FA9284600F047FA1AE00398840DFD
:10CE5000C0F3C2008DF82000082C01D2254600E066
:10CE6000082533462A460FA9384600F0EEFA2E442C
:10CE7000641B09AB06AA29460FA800F095F9002CFF
:10CE8000EAD1384600F0D2FA15B0F0BD7047012063
:10CE900005F0ECB9084810B50178084A515C19B1A1
:10CEA000001D01F0D3F902E00C3001F0CDF8BDE82F
:10CEB0001040002005F0DAB9243B0020783A002029
:10CEC00008B5034A00924023024AFFF77BFF08BDE2
:10CED0008D160300804B00200A4A012902EBC00096
:10CEE00007D0022907D0032907D0042907D0002042
:10CEF00070470220704704207047007970474079DE
:10CF000070470000B84A030010B5FFF7C0FF0421C6
:10CF10000348FFF729FF02490120C968487110BD85
:10CF2000A84A03002DE9F04F8DB0FBF70FFD18B1B3
:10CF300000200DB0BDE8F08F7E4C4FF0000BC4F820
:10CF400018B4BFF34F8F7C49A06802900D68D84693
:10CF5000284004EB80000BE0D4F8180470B9616835
:10CF60000298814201D8A160E2E7284004EB8000EA
:10CF70000C3002A9FDF79AFF0028EDD1002005AA88
:10CF8000029901EA050304EB8303491CDB6842F8BC
:10CF90002030401C02910228F2D3059800F00300D3
:10CFA000022802D001284DD0AAE005985022810D18
:10CFB0008946B2EB905F00D850210E4666F39F5031
:10CFC000059008315D4800F0E2F9070078D000F0E4
:10CFD00027FA4346082205A9384600F03EFA02998E
:10CFE00008F1080A2940681A8000001D864222D9EB
:10CFF000504D0C3530B1C2B204EB8101301A90466D
:10D000000C3104E02946F2B2002590462846C6B20B
:10D010005346384600F021FA0AEB080325B13246A0
:10D020002946384600F019FA029909F1030001EB8C
:10D03000900002903BE004EB8101534632463846B3
:10D040000C31EFE70598C0F38310062800D30620C3
:10D05000059960F38911C1F38310801C059181004B
:10D06000364800F094F907004AD000F0D9F9434659
:10D07000082205A9384600F0F0F908F10808002652
:10D080000FE00298434600EA0501401C04EB8101D1
:10D090000290042238460C3100F0DFF908F1040850
:10D0A000761C0598C0F38310B042EAD847B1D4F893
:10D0B0001054D4F8180478B1384600F0B7F934E0C9
:10D0C0001EE0E8684079012804D12A6828463946DC
:10D0D00012689047E8680568002DF2D1384600F0E4
:10D0E000A5F98DF800B06846F9F7BCFED4F818042D
:10D0F00008B90298A0609DF80000F9F7D7FE14E087
:10D10000D4F8104405E02168204689688847E06823
:10D110000468002CF7D10A480A49401AC0080221C5
:10D1200001EB004008A100F019F8FBF70FFC80F0BC
:10D130000100FEE6184D0020403B0020BC4B0300E0
:10D14000884B0300B84A03004261636B656E6473E9
:10D1500020666C75736865640000000000231A4641
:10D1600004F02CBF08B5012300926A4604F026FFA4
:10D1700008BD1CB5CDE9002302236A4604F01EFF5A
:10D180001CBD3EB5069C8DE81C0003236A4604F0D6
:10D1900015FF3EBD7FB5DDE908458DE83C00042361
:10D1A0006A4604F00BFF7FBD2DE9F0470E4680462E
:10D1B0001C469246082940D894F80C900020207311
:10D1C0001946104603F010FA0025B54206D218F8A9
:10D1D00005201BA12046FFF783F903E01AA1204692
:10D1E000FFF77EF96D1C082DEFD318A12046FFF73D
:10D1F00077F90025B54212D218F805707E2F08D8AD
:10D20000F9F730F90068C05D10F03E0F01D03A46E2
:10D2100000E02E220EA12046FFF762F903E00DA1E7
:10D220002046FFF75DF96D1C082DE3D3012221464E
:10D23000504603F0BBF984F80C90BDE8F08700007D
:10D240002025303278000000202020007C000000E3
:10D250002563000020000000064910B5002008707A
:10D26000054800F0E1F8002803D1044800F0F5F982
:10D27000002010BD184D0020BC4B03009C31030062
:10D2800002480349401AC00870470000A84B030039
:10D29000B84A030013B56846FEF77CFA08B10020CF
:10D2A0001CBD0248009950F831001CBDB84A03006B
:10D2B00070B508480125D0F81044057007E0E06813
:10D2C00045712168204649688847E0680468002C59
:10D2D000F5D170BD184D00202DE9FF4781460C9D0A
:10D2E00000200C462F7B2873984616462946184680
:10D2F00003F07AF9072E42D2DFE806F004090F1690
:10D300001F2A360049462846FFF7EAF837E0494623
:10D3100028462268FFF7E4F831E0D4E900234946C3
:10D320002846FFF7DDF82AE0A0680090D4E9002342
:10D3300049462846FFF7D4F821E0D4E90201CDE9B7
:10D340000001D4E9002349462846FFF7C9F816E052
:10D3500004F1080007C88DE80700D4E90023494616
:10D360002846FFF7BDF80AE004F108000FC88DE871
:10D370000F00D4E9002349462846FFF7B1F8002200
:10D380002946404603F012F92F73BDE8FF872DE9C7
:10D39000F041058A80462D1F4819C01CB0FBF5F0EE
:10D3A000C6B24046FEF794FB041E19D0002020713F
:10D3B00001206071E58000272546761EC4F80080B4
:10D3C0000BE04046FEF784FB60B16179491C617156
:10D3D000286005467F1CC0F80080B742F1D3204684
:10D3E000BDE8F081204600F002F80020F8E72DE9C2
:10D3F000F041457901466B1E002201E00968521C8C
:10D400009A42FBD30F680146002605E038460C68B7
:10D41000FEF780FB2146761CAE42F7D3BDE8F081D3
:10D420000121001DFEF728BBFEF78CBB10B504469A
:10D430000121001DFEF746FB10F0FF0F04D120462E
:10D44000BDE81040FFF7D3BF10BD1CB5019201220B
:10D45000009201AAFEF75EF91CBD1CB501920022E4
:10D46000009201AAFEF756F91CBD0000064910B54E
:10D4700000204870091D0860BFF35F8F034904480E
:10D4800000F0F8FA002010BD183B002028300300FF
:10D49000744B002008B500208DF800006846F9F7AD
:10D4A000E1FCF1EE100A20F09F00E1EE100ABFF35C
:10D4B0005F8F08494020C1F880029DF80000F9F70D
:10D4C000F5FC00F0A5FA08B141DF08BD20BF40BF60
:10D4D00020BF08BD04E000E02DE9F8430446002722
:10D4E00090460E468DF800706846F9F7BBFC204662
:10D4F00000F039F838B105279DF80000F9F7D6FC9F
:10D500003846BDE8F88320680568B8F1000F05D1FA
:10D510000168204600F03FF821680860E268012AAF
:10D520000CD0022A0ED0042A11D06068082A13D029
:10D5300005FB02013046F8F799FFDDE76068405DC2
:10D540003070D9E7606830F815003080D4E7606843
:10D5500050F825003060CFE700EBC501D1E90001AC
:10D56000C6E90001C8E7016808684968884201D136
:10D57000012070470020704701680A684968806888
:10D58000884201D9491C00E00021914201D10120CB
:10D590007047002070478068884201D9481C704756
:10D5A000002070472DE9F84304464FF000080E466E
:10D5B0008DF800806846F9F755FC2046FFF7DCFF40
:10D5C00007000AD0207C40B14FF004089DF800000D
:10D5D000F9F76CFC4046BDE8F8832068456841686F
:10D5E0002046FFF7D8FF2168486037B120680168FE
:10D5F0002046FFF7D0FF21680860E268012A14D0B6
:10D60000022A16D0042A19D0082A1CD06068314694
:10D6100005FB0200F8F72AFF204603F0ABF921686A
:10D620008A688242D2D28860D0E7616830784855F3
:10D63000F2E76168308821F81500EDE7616830682D
:10D6400041F82500E8E7D6E90001626802EBC5026F
:10D65000C2E90001E0E7F9F79BBB82680021916015
:10D6600082681161826851618268D160826851600C
:10D6700080680160704708B5002242504058009011
:10D6800008BD000020B1034909680160002070470F
:10D690000E20704720320300FEB502460E460846B3
:10D6A000FFF7F0FF002868D1002500958DF80020D5
:10D6B00003208DF8020001950620ADF804000295C4
:10D6C00069462020326869DF2C492D4A891AC90829
:10D6D000012707EB014430B100F03AFA0246204638
:10D6E0002849FFF73FFD00958DF8017002208DF865
:10D6F0000200019502958DF803706946402032685A
:10D7000069DF30B100F024FA024620461E49FFF7D7
:10D7100029FD0095019502958DF80050694601207C
:10D72000326869DF30B100F013FA0246204617492B
:10D73000FFF718FD4FF4B06000900195029569461F
:10D74000A120326869DF30B100F002FA02462046BB
:10D750000F49FFF707FD0095019502958DF80050E0
:10D760006946A020326869DF30B100F0F1F9024665
:10D7700020460849FFF7F6FC0020FEBD984B030049
:10D78000B84A030058480300A0480300B847030004
:10D7900004480300644703002DE9F041054607688B
:10D7A00060DF804619491A482A68081AC608BA4232
:10D7B00019D9022000EB064416A12046FFF7CEFC43
:10D7C00020463A461FA12B68FFF7D3FC4FF080504C
:10D7D000D0F80C012968800200F10050421A20465E
:10D7E00025A1FFF7BFFCB8F100004FF001040AD0FB
:10D7F00000F0AEF9024604EB06402AA1FFF7B2FCA6
:10D800004046BDE8F0812F480470F9E7984B0300CB
:10D81000B84A0300496E73756666696369656E741C
:10D820002052414D20616C6C6F63617465642066A9
:10D830006F722074686520536F66744465766963FF
:10D84000652E00004368616E67652074686520522C
:10D85000414D207374617274206C6F636174696FE1
:10D860006E2066726F6D203078257820746F2030BE
:10D870007825782E000000004D6178696D756D2067
:10D8800052414D2073697A6520666F722061707015
:10D890006C69636174696F6E2069732030782578D4
:10D8A0002E00000073645F626C655F656E61626C80
:10D8B0006528292072657475726E65642025732E43
:10D8C00000000000973B002030B5144891B000786C
:10D8D000002820D05FF03405ADF8405010A903A80F
:10D8E00061DF30B1052816D011B0BDE83040F9F73E
:10D8F0004FBA03AC0A49684600F0BCF807E000BF25
:10D90000D0E9002120469047684600F0CAF8029806
:10D910000028E1D0F4E711B030BD0000973B0020B3
:10D9200024320300F8B5134C2078C0B10120A07058
:10D9300003F0B6FC112814D0022003F0C9FC002526
:10D940008DF800506846F9F78DFA11DF064625700C
:10D950009DF80000F9F7AAFA2EB13046F8BD08206C
:10D96000F8BD0020F8BDA57004F0BEFA032003F056
:10D97000AFFCF6E7943B00207CB5194C207808B149
:10D9800008207CBD0120A070002003F089FC112834
:10D9900019D0002003F09CFC12480026006801907A
:10D9A0008DF800606846F9F75DFA0F4901A810DFAD
:10D9B00005000AD0002020709DF80000F9F776FAE3
:10D9C0002DB128467CBD00207CBD0120F3E7A67068
:10D9D000667004F0A9FA012003F07AFCF3E7000076
:10D9E000943B0020B83103000D6D02000EB50749CD
:10D9F000684600F03FF805E0D0E900108847684627
:10DA000000F04FF802980028F6D10EBDD431030083
:10DA10000148007870470000943B00200548817859
:10DA200019B1007818B1FFF77DBF08207047FFF7E4
:10DA3000A3BF0000943B00201FB568464BDF30B108
:10DA4000052814D004B0BDE81040F9F7A1B9084981
:10DA500001A800F00FF806E0D0E9002100989047F7
:10DA600001A800F01EF803980028E6D0F4E71FBDD7
:10DA700040320300016009684160AFF3008010B5D7
:10DA8000D0E900215368994201D1002104E0D1E995
:10DA90000034A34202D01946816010BD08314160B4
:10DAA000F0E7816800290BD0026892680A4482601E
:10DAB00041684B689A4203D108314160FFF7DFBFEC
:10DAC000704770B50D460646446804E0B2682946C2
:10DAD000904718B1246820680028F7D12068286092
:10DAE000256070BD4068006870474168086800287C
:10DAF00001D002680A60704702460020526806E0C2
:10DB00008B4203D108681060012070471A461368E1
:10DB1000002BF5D1704700000C4A10B502F5947344
:10DB20000EE0991AC91001EBD171491002EBC10145
:10DB30000C68844201D90B4602E005D201F10802CB
:10DB40009A42EED3002010BD486810BD4830030053
:10DB500000B5FFF7E1FF002800D1014800BD00003B
:10DB6000343003004058002800D00120704708B529
:10DB7000002242504058009008BDD0F804030840ED
:10DB800000D0012070474058002800D00120704785
:10DB900008B5002242504058009008BD0248006875
:10DBA000002800D0012070470004014008480068A8
:10DBB000012110F0010F06D14FF0E020C02280F8C3
:10DBC00000248430C16703490120086070470000C9
:10DBD00000E100E0180500400649024600200B79EC
:10DBE0000BB1852070470A6001220A7100224A7138
:10DBF00070470000843A0020022010B54107C1F8A8
:10DC000008034FF48270FEF7F4FB05490120086019
:10DC100004480168C1F300410029FAD110BD000099
:10DC20000C00004018040040002802D00149800187
:10DC300008477047512F03002DE9F0410E46054675
:10DC400001F09CFD0028284619D0FAF709FF083892
:10DC500002F0A4FC032802D001280ED007E04FF008
:10DC6000A040D0F81005E84010F0010F05D00321C6
:10DC70002846BDE8F041FFF723B80221F8E701F09C
:10DC800089FD002822D02846FAF7EAFE04464FF420
:10DC9000807000EB84000E4F81B207EB8400D0F857
:10DCA000102542F00102C0F810250846FFF74AF897
:10DCB000002E0BD02846FAF7D3FE064951F8200073
:10DCC000002803D00120A040C7F80403BDE8F0817C
:10DCD00000600040844800202DE9FC41DFF8B88056
:10DCE000044608EB0400002790F930001346C017E3
:10DCF0000E46401C01D008274AE0B0781946C0F310
:10DD000040022046FAF788FE0546401C3FD0B07816
:10DD1000410717D4C0070AD04FF0A04000EB8400A1
:10DD2000D0F8001721F00201C0F8001707E0002129
:10DD30007378204600910A460191FEF753FF204672
:10DD400001F00EFDB078800718D51448317800EB4B
:10DD50008500D0F81025124B1A40C0F810254FF45A
:10DD6000F8524FF4403302EA042203EA01410A4325
:10DD7000D0F810150A43C0F8102509E008EB05009B
:10DD8000327810F8481F41EA8211017000E0042740
:10DD90003846BDE8FC810000844800200060004057
:10DDA000FFE0FCFF4FF0A041D1F81015C14011F089
:10DDB000010000D00120704770B5194D95F858004A
:10DDC00008B1082070BD0024661E2046FEF7A0FFA3
:10DDD00010B1281980F83060641CE4B2202CF4D310
:10DDE00000242046FAF70AFE641CE4B20C2CF8D397
:10DDF00000200D4968650B4CC02081F80004012605
:10DE00004020891FC1F800014FF4BE70FEF79AFF51
:10DE1000A004C4F8040385F85860002070BD000019
:10DE2000844800200060004006E000E0034890F8CD
:10DE30005800002800D001207047000084480020CE
:10DE40000121B1EB507F01D10120704700207047C4
:10DE500038B50D4602F014FC040014D000208DF8F3
:10DE600000006846F8F7FEFF207928B19DF8000011
:10DE7000F9F71CF8112038BD0120256020719DF8AC
:10DE80000000F9F713F8002038BD10B502F0F8FBD8
:10DE9000002802D000210160017110BD0149024833
:10DEA00004F00CBAE0480020002000402DE9F041C9
:10DEB0000546007916460F4600EB40012D4A01EB5E
:10DEC000C00102EB810494F82A1011B10820BDE8CA
:10DED000F081294951F820102868FFF7B9FF08B1EF
:10DEE0001120F4E739462846F8F7FAFF66603869EA
:10DEF000206030004FF001062FD03F7F4FF48E712D
:10DF00002868FFF734FE4FF4A2712868FFF72FFE50
:10DF100028681A49C0F8041328684FEA471140F3EB
:10DF20000730002804DB00F1E02080F8001405E051
:10DF300000F00F0000F1E02080F8141D286840F385
:10DF40000730002809DB00F01F0106FA01F1400943
:10DF5000800000F1E020C0F8001128680421C0F81A
:10DF600000150020A061E06184F8290044F8140F36
:10DF7000A675ACE7E0480020202F030080000200D7
:10DF80002DE9F05F054600790B4600EB400101EBFF
:10DF9000C000244901EB8004284600F045F810B188
:10DFA0001120BDE8F09F62614FF00009C4F8209095
:10DFB000A36084F828904FF48E784E464146286836
:10DFC000FFF7D5FD28684FF0010AC0F808A02146E8
:10DFD000286804F003F9606808BBD5F800B06769E9
:10DFE0000FE000BF94F8280008B10F2615E0414665
:10DFF0005846FFF7B7FD0028F4D02146584604F0F4
:10E00000EDF8206AB842F2D3574641462868FFF738
:10E01000A9FD0028F9D02868C760C4F814903046DC
:10E02000BFE70000E0480020007900EB400101EB71
:10E03000C000044901EB80004069002800D00120A5
:10E0400070470000E04800202DE9F04704460079C1
:10E050004FF0000900EB400101EBC000284901EB43
:10E0600080072068C0F800957868B0B1206825491D
:10E07000C0F80813206840F3073000280DDB00F0DB
:10E080001F02012191404009800000F1E020C0F80A
:10E090008011BFF34F8FBFF36F8F2068D0F80C252E
:10E0A000D0F81485D0F80865D0F810554FF0FF313E
:10E0B000C0F81415C0F80C152068C0F80815C0F891
:10E0C0001015501C02D01046FEF7C2FDB8F1FF3FFC
:10E0D00002D04046FEF7BCFD681C02D02846FEF781
:10E0E000B7FD701C02D03046FEF7B2FD2068FFF786
:10E0F000CCFE87F82A90C7F80490BDE8F0870000AE
:10E10000E0480020840202000149024804F084B97A
:10E110000C490020002000402DE9F041054616463C
:10E1200000790F46154A00EBC00102EB810494F818
:10E13000201011B10820BDE8F081114951F82010DC
:10E140002868FFF785FE08B11120F4E73946284614
:10E15000F8F70AFF6660386920601EB1397F2846EB
:10E16000FCF760FE28680821C0F800150020A061B7
:10E17000E0616061012184F82010DCE70C49002097
:10E18000242F03002DE9F04704460E460079274965
:10E1900000EBC00001EB800517463046FFF750FE4C
:10E1A00030B1204600F044F820B11120BDE8F087DE
:10E1B0001020FBE76F61AE604FF490774FF00008DE
:10E1C00039462068FFF7E4FC4FF4AC76314620680E
:10E1D000FFF7DEFC2068AA686969C0F84425C0F82A
:10E1E000481520684FF00109C0F808906868D0B958
:10E1F000BA4651462068FFF7C6FC074631462068FC
:10E20000FFF7C1FC0743F4D010B14FF00F0808E04E
:10E210002068C0F80C9031462068FFF7B4FC002855
:10E22000F9D0002068614046C0E700000C4900209A
:10E230000079054900EBC00001EB8000406900282F
:10E2400000D00120704700000C4900202DE9F04764
:10E25000064600793D4900EBC00001EB80053468BB
:10E2600068680127A8B13A49C4F80813306840F338
:10E27000073000280DDB00F01F0107FA01F140090B
:10E28000800000F1E020C0F88011BFF34F8FBFF392
:10E290006F8FD4F8000220F02000C4F80002A869B3
:10E2A0004FF4A27820B141462046FFF771FC676029
:10E2B0004FF4AC7949462046FFF76AFCE7604746D1
:10E2C00049462046FFF75FFC0028F9D0A86928B12D
:10E2D00039462046FFF757FC0028F1D04FF0000ADE
:10E2E000C4F800A53068D0F80C25D0F81495D0F803
:10E2F0000885D0F810754FF0FF31C0F80C15C0F844
:10E3000014153068C0F80815C0F81015501C02D05C
:10E310001046FEF7A6FCB9F1FF3F02D04846FEF7D3
:10E32000A0FC781C02D03846FEF79BFCB8F1FF3FFA
:10E3300002D04046FEF795FC2046FFF7A6FD85F883
:10E3400020A0C5F804A0BDE8F08700000C4900201B
:10E350001003420003490860034801680029FCD00B
:10E360007047000004E5014000E4014010B580B1B1
:10E37000032818D10C480D49401AC008032101EBAD
:10E3800000400BA1FEF7EAFEBDE810400220FAF7BC
:10E3900085B803210B48F9F712F9002803D0BDE82E
:10E3A0001040F8F7F5BC10BD884B0300B84A0300D5
:10E3B00046617374206164766572746973696E670F
:10E3C0002E0000008C3C0020F8B50188041D1F2998
:10E3D0006FD01BDC554A5648564FA2EB00004FEA5F
:10E3E000D0004FF0030202EB00454FF6FF761029F4
:10E3F00016D0112943D01B297ED1207902287BD148
:10E400002846BDE8F8404CA1FEF7A8BE21297AD0E5
:10E410003B2973D056297FD18088132176DF7FE096
:10E4200028464DA1FEF79AFE3888B04202D078887F
:10E43000B04212D1228828464CA1FEF793FE3D48F7
:10E4400021882030F9F72AFB112803D1218853486D
:10E45000F9F724FB08B1F8F79BFC2088FDF7B2F927
:10E460000120FAF71BF8F9F7F7F902284FF000003E
:10E470003DD0FAF713F8BDE8F84002F0D7BE208887
:10E48000398888420ED12279284645A1FEF76AFED6
:10E49000284A3E80121D03214B48FDF7C1FD08B1FB
:10E4A000F8F776FC20887988884210D122792846AE
:10E4B00000E020E045A1FEF755FE1E4A7E800832AE
:10E4C00003214148FDF7ACFD08B1F8F761FC7888FD
:10E4D000B04202D03888B04204D102F0A7FE00203A
:10E4E000F9F7DCFFF9F7B8F9002815D10120BDE8EC
:10E4F000F840F9F7CBBF02E00EE004E00DE0208821
:10E50000211D75DF0CE000210091808869468FDFB6
:10E51000002801D0F8F73CFCF8BD8088132176DF95
:10E520000028F9D0BDE8F840F8F732BC884B03006A
:10E53000B84A0300A42D0020436F6E6E65637469B2
:10E540006F6E20526571756573742074696D6564B2
:10E55000206F75742E00000043656E7472616C202C
:10E56000636F6E6E6563746564000000417474656A
:10E570006D707420746F2066696E64204852532059
:10E580006F7220525343206F6E20636F6E6E5F6810
:10E59000616E646C6520307825780000943300202B
:10E5A0004852532063656E7472616C2064697363B2
:10E5B0006F6E6E65637465642028726561736F6E3B
:10E5C0003A20256429000000C04000205253432017
:10E5D00063656E7472616C20646973636F6E6E65DF
:10E5E000637465642028726561736F6E3A202564D8
:10E5F0002900000038B50288011D0446212A33D0C5
:10E6000017DC2048204B102AA0EB03004FEAD00073
:10E610004FF0030303EB004018D0112A2DD10B79E2
:10E620000A881AA1FEF7A5FDBDE838400320F9F7D6
:10E630002DBF3B2A22D0562A1FD1A088132176DF76
:10E6400000281AD0BDE83840F8F7A2BB1EA1FEF79B
:10E6500085FD0220F9F71AFF0320F9F71FFFA088B4
:10E66000BDE83840FDF7AEB800200090A0886946AC
:10E670008FDF002801D0F8F78BFB38BDA08813216D
:10E6800076DFDDE7884B0300B84A03005065726906
:10E6900070686572616C20646973636F6E6E656328
:10E6A0007465642E20636F6E6E5F68616E646C6566
:10E6B0003A20307825782C20726561736F6E3A208D
:10E6C00030782578000000005065726970686572C6
:10E6D000616C20636F6E6E6563746564000000009A
:10E6E0002DE9F84F05460C460888B5F8CA1288424D
:10E6F00079D195F8C6024FF0000A00EB8001C1EB1A
:10E70000801005EB40066088002860D13079E288EF
:10E71000A71D8146D1B250FA82F2062A02D80844D7
:10E72000307111E006203071374838493288401A7C
:10E73000C108022000EB014080463549FEF712FD7A
:10E7400040463449FEF70AFD48460022D0461BE009
:10E7500000EBC00102EB820307EB430306EB410130
:10E76000D3F802C0C1F80AC0D3F806C0C1F80EC081
:10E770005B894B82A1F81480A1F81680A1F818805B
:10E78000401CA1F81A80521C31798142E0D895F8DA
:10E79000C61200EBC00001EB8102C2EB811105EB58
:10E7A000410136F810000989884210D230790628D4
:10E7B0000DD085F8C50221882846FAF721FA0028ED
:10E7C00011D022882946BDE8F84FFAF765BD85F8D3
:10E7D000C5A2228869462846FAF76CFC28B122882F
:10E7E0002946FAF759FDBDE8F88F9DF8000000288A
:10E7F000F9D0228801212846FAF7F4FC218828461E
:10E8000000F0F8F9EFE70000B84A0300B84A030047
:10E81000183303006033030070B58D88027900EB74
:10E82000C5042273C97BA41D012902D0022904D189
:10E8300001E0008800E040882080218860888142D3
:10E8400011D92846A5DF0126B0B1112816D0FFF74F
:10E850007FF902460B480C49401AC00806EB0040FD
:10E860000AA1FEF77FFCA179E079814208D9284608
:10E87000BDE87040FAF704BB6671F4E72671F2E771
:10E8800070BD0000D84A0300B84A030073645F6299
:10E890006C655F67617474635F65786368616E67F8
:10E8A000655F6D74755F7265717565737428292075
:10E8B00072657475726E65642025732E0000000009
:10E8C000F8B505460C460888B5F8CA12884255D1F5
:10E8D00095F8C602A21D00EB8001C1EB801005EB8C
:10E8E000400695F8C50200EBC00006EB40016088C9
:10E8F0000A3138B329E000BF00EB400302EB4303C9
:10E900009F88B7F5245F0CD06FF4245C17EB0C07DD
:10E910000AD0012F02D0072F0BD108E05B884B8172
:10E9200007E05B888B8104E05B88CB8101E05B883A
:10E930000B824B892BB18B891BB1CB890BB10B8A15
:10E940001BB9401C13888342D6D800208DF80000E4
:10E9500095F8C5023179401C884203D101208DF819
:10E96000000010E085F8C502228869462846FAF7BB
:10E97000A1FB20B122882946FAF78EFCF8BD9DF84C
:10E9800000000028FAD0228801212846FAF72AFC44
:10E990002188284600F02EF9F8BD00007CB5064617
:10E9A0008D88C88806EBC504A41D172800D217203F
:10E9B0002188814200D8084660800020207121888B
:10E9C0002846B5DF60B1FFF7C3F802460F4810498B
:10E9D000401AC008012101EB00400EA1FEF7C2FB66
:10E9E0006079002810D1306A00280DD01549D1E98E
:10E9F0000201CDE90001ADF802506088ADF80400D5
:10EA0000326A6946304690477CBD0000D84A030010
:10EA1000B84A030073645F626C655F676174747306
:10EA20005F65786368616E67655F6D74755F726559
:10EA3000706C7928292072657475726E6564202562
:10EA4000732E0000F02D030070B502888B888CB007
:10EA50009A422BD14A8983889A4227D102228DF883
:10EA600000200288ADF8022000228DF806200A7CE2
:10EA7000D30701F101021BD0128AADF80420032351
:10EA80000A7CD2060FD500226D46CC899C4208D95B
:10EA9000CC1805EB4206248A521C9B1C3481142A94
:10EAA000F3D38DF806208268694690470CB070BD9C
:10EAB0004A7CADF804200223E2E710B503888C8875
:10EAC00086B001F10A02A34231D14B898488A34266
:10EAD0002DD102238DF800308988ADF8021091798C
:10EAE00011F001048DF804409179C1F340038DF8D1
:10EAF00005309179C1F380018DF80610B2F8071046
:10EB0000ADF80810517A8DF80A104FF0040103D0C7
:10EB10005189ADF80C10062133B111444A7AD1F86D
:10EB2000061062F31F61049182686946904706B03F
:10EB300010BD000070B505460C4690F8C60222884C
:10EB400000EB8001C1EB801005EB4001B5F8CA0273
:10EB5000824238D1608848B100212846FAF742FB4A
:10EB600021882846BDE8704000F044B8E268C1F84A
:10EB70000620E28895F8C412D0B251FA82F2062A31
:10EB800003D8084485F8C40211E0062085F8C402C1
:10EB90000D480E49401AC108022000EB01460CA1A5
:10EBA0003046FEF7DBFA30461149FEF7D7FA2188E6
:10EBB0002846FAF725F8002805D022882946BDE81E
:10EBC0007040FAF769BB70BDB84A0300B84A030049
:10EBD0004E6F7420656E6F75676820737061636532
:10EBE00020666F722073657276696365732E00000C
:10EBF000BC33030070B588B00D460446202168463A
:10EC0000F7F75BFC94F8C7021E4B401CC0B284F8B7
:10EC1000C702DA68002190422CD284F8C51294F819
:10EC2000C602194E401CC2B202EB820084F8C62212
:10EC3000C0EB821006EB820204EB40001268026017
:10EC4000017102218DF800100121ADF8101000684B
:10EC5000CDF812000D48CDE902042A4669469868AD
:10EC6000FDF796F8002803D02A462146FAF714FB50
:10EC700008B070BD84F8C81229462046FAF79AFAFF
:10EC8000F6E70000A83900207445002099920200A0
:10EC900048B1064A0168914205D1406804494018CC
:10ECA00002D0012800D0032070470000DEC0ADDE96
:10ECB00002FEE10E8A7D022A04D90289CB881A4419
:10ECC000D21C02814289C988511AC91E41817047EC
:10ECD0002DE9F0410D460221904600F5805629802D
:10ECE00000F10804144F1BE031462046FBF750FDAD
:10ECF00040B1B8F1000F02D0012288F800200228AC
:10ED000016D004E0A0687969884200D97861288823
:10ED100061880844C01C2880608804EB80040C349F
:10ED200031462046FBF74AFD0028DDD1BDE8F081E1
:10ED30004FF480602880F9E7E03A002008B5002110
:10ED4000009101460823024A0248FDF74BFE08BD28
:10ED5000682F03009C3B002008B500200090044869
:10ED60000823044A01680448FDF73CFE08BD000082
:10ED7000083B0020602F03009C3B00202DE9F05F42
:10ED80000026DFF81891DFF818B134464FF0030879
:10ED9000B2463746D9F80C0000EB07352846FFF796
:10EDA00077FF98B301284BD0032869D12868411C0C
:10EDB00002D03C49884205D10120820255F820103A
:10EDC000491C0ED004EB84010BEB8102A8F1010079
:10EDD000556003221FFA80F80BF82120641CA4B2AE
:10EDE0004EE0401C9042E9D32F48016879B104EB12
:10EDF000840002210BF820100BEB8000456001819C
:10EE0000274828304480641CA4B205E007E00221B2
:10EE1000056081804FF0010A46F0010630E004EB06
:10EE2000840100220BF821200BEB810101F110027B
:10EE30004D6028460831FFF74BFF46F00206CDE74C
:10EE4000BAF1000F0FD004EB84000221164A0BF830
:10EE500020100BEB800012684260018110482830BE
:10EE60004480641CA4B210480022011D056028469D
:10EE7000FFF72EFF0C48808802280CD0082006439C
:10EE80007F1CBFB2032F85D3B8F1020F00D200263A
:10EE9000F0B2BDE8F09F0420F1E700009C3B0020A9
:10EEA0008C4A0020DEC0ADDE083B002001494978D5
:10EEB000F8F756BD583A00202DE9F0418846174929
:10EEC000174604468978F8F74BFD08B1012600E0A3
:10EED000022604F5807080B2072100F09DF905003C
:10EEE00013D0052D11D0FEF733FE02460C480D4914
:10EEF0002346401AC008012101EB00400A49FEF7F1
:10EF000038F92946204602F0ADFB3B4642463146E1
:10EF10002046BDE8F041F9F78FBF0000583A0020C5
:10EF2000104B0300B84A0300AC3E030000B585B0A7
:10EF300002228DF800200288ADF8022040794007B7
:10EF400001D5012000E002208DF808008DF809109D
:10EF50006846FAF7EBFC05B000BD002102F098BF4F
:10EF600030B5154685B00C46024605216846FCF7CB
:10EF7000ADFC6846CDE90245FAF7E6FC05B030BDC8
:10EF800070B5054D06460024304655F824108847D4
:10EF9000641C042CF8D370BD382E03007CB5164DCC
:10EFA000002400BF04EB440005EB800003F016FDD5
:10EFB000641C042CF6D3502104208A00CDE9000102
:10EFC0000F490E4B01F5A07000F022FC012468B13E
:10EFD000FEF7BEFD02460B480B49401AC00804EB81
:10EFE00000400AA1FEF7BEF803207CBD0348001FC5
:10EFF000447000207CBD0000B4470020E4390020AC
:10F0000064460020F84A0300B84A0300504D5F42AE
:10F0100055464645525F494E495428292072657429
:10F0200075726E65642025732E00000070B504466D
:10F030000025C1681A4A284600EB400302EB83030F
:10F040005B688B4204D100EB400002EB800003E0E0
:10F05000401C0428F0DB00202178082904D009296D
:10F0600008D0132914D112E0617A89B980B103F074
:10F07000C3FC0DE0617A59B950B100214160817A39
:10F0800041F00201817207490120087003E0012567
:10F090002046FFF775FF2846BDE8704001F0D2BC5E
:10F0A000B4470020E0390020002300F089B90000B7
:10F0B0007CB506460020019001A9304603F076FC9D
:10F0C00004461A481A49401AC008012101EB0045BC
:10F0D00019E0A178304600F09FF860B105280AD009
:10F0E000FEF736FD0246A0780090284633461149C7
:10F0F000FEF747F818E0019801A9401C019030463E
:10F1000003F054FC0446002CE3D1304600F0F0F943
:10F1100000280AD0072808D0FEF71AFD0346284623
:10F1200032460549FEF725F803207CBDF84A030066
:10F13000B84A030090390300E83903002DE9F0478D
:10F140001F00154681460E4604D0072E05D0082E16
:10F1500006D102E00E20BDE8F0870DB1042D01D9E3
:10F160000720F8E74FF00008484603F005FC041EAE
:10F1700004D0207AA8420BD00F20ECE7FF214FF6F5
:10F18000FF7003F0F9FB041E06D0A0F80090A670F3
:10F19000607AFF2802D00CE01120DCE729461A48EB
:10F1A00000F004FB014620466172FF2913D04FF0A6
:10F1B00001082572617A144800F03CFB02000DD072
:10F1C000ABB23146384600F01FFAB8F1000F19D043
:10F1D000082E10D016E003F001FCDDE70B480C49C7
:10F1E000627A401AC008012101EB00400949FDF78D
:10F1F000B9FF0320AFE738886FF0050101EB80000D
:10F20000796888800020A6E7A4470020F84A030018
:10F21000B84A03001C39030010B503F0ADFB18B168
:10F2200003F0EAFB002010BD052010BD70B50C46B0
:10F2300006461546072901D0082C0ED1104600F0CD
:10F2400062F950B12146304603F096FB38B1058093
:10F250008470BDE8704003F0E9BA072070BD052056
:10F2600070BD00004FF6FF714180014909680847F1
:10F27000202E030070B588B02048FAF707FD020081
:10F280001F4820494FF00105A0EB01004FEAD000D4
:10F2900005EB004406D020461B49FDF763FF032021
:10F2A00008B070BDFAF70AFC020005D0204617A18D
:10F2B000FDF758FF8620F3E700F0F8F900200290F0
:10F2C0004CF2070603900EE0694604A8FAF7ACFC7E
:10F2D00000988088A0F5404084B204A8FAF760FC4A
:10F2E000204600F09FF902AA04A93046FAF783FCF1
:10F2F0000028E9D0154805700020D1E75599020093
:10F30000F04A0300B84A030034380300436F756CB9
:10F3100064206E6F7420696E697469616C697A65C6
:10F3200020666C6173682073746F726167652E204C
:10F330006664735F696E69742829207265747572DA
:10F340006E656420307825782E000000D4390020C6
:10F3500000F08EB900F092B970B586B014460E4632
:10F36000054600F03FF940B105F5404080B20F4A34
:10F370006946FAF740FC40B902E0012006B070BDD2
:10F3800003A96846FAF750FC08B10020F6E7A5701B
:10F390000398408820800498606003988088A0F5D6
:10F3A000404030806846FAF7FBFBE6E7D83900209A
:10F3B000024800214160816070470000D43900207C
:10F3C000F0B587B01F46154606460C46FF280AD8FA
:10F3D000084600F007F930B104AA2146304600F093
:10F3E000E9F840B902E0072007B0F0BD02A904A87F
:10F3F000FAF71AFC08B10520F6E7AC7002984088CD
:10F4000028807FB1840039682646B1EB800F00D296
:10F410000C46039922466868F7F728F8B44203D2ED
:10F420000C20E1E70398686004A8FAF7B9FB002014
:10F43000DAE7000070B586B016460D460446FF2890
:10F4400028D8A87800F0CEF820B304F54040ADF8F5
:10F450000000A87803AA00F54040ADF802006868F3
:10F46000019028880290A978204600F0A3F805288A
:10F47000694603A811D0FAF7FDFB024648F206617F
:10F48000401A8A4226D00BDCDAB1A2F506400238D7
:10F490000AD121E0072006B070BDFAF7F3FBECE7D4
:10F4A000012815D0072813D00C480D492346401ACF
:10F4B000C008012101EB00400A49FDF75AFE032074
:10F4C000E9E71EB1314603A8FAF7A5FB0020E2E701
:10F4D0001120E0E78620DEE71020DCE7F04A030099
:10F4E000B84A0300783803004FF6FF7000F09AB86E
:10F4F00010B5FF2801D9072010BD00F099F800F0E1
:10F5000005F8002010BD00F0D7B80000F0B5244E7B
:10F510008DB00020707002904FF6FF750390284662
:10F5200000F0A6F8044648F2096706E0204600F01D
:10F5300091F8204600F09CF80446AC422BD004F52C
:10F54000404080B202AA04A9FAF75DFBB842EDD0B0
:10F5500004F5404080B2FAF76DFA05460120A5F5A2
:10F560000641073919D0002D15D00E490E4A234601
:10F57000891AC90800EB01402A460C49FDF7F9FD3C
:10F5800014220B4907A8F6F771FFADF8204007A831
:10F590000995FFF767FE0DB0F0BD7070FBE7000046
:10F5A000D4390020F04A0300B84A0300D0380300E1
:10F5B000242E03007CB5054616460C46084600F08E
:10F5C00011F80020009005F54045019004F54044F5
:10F5D000A8B2A1B26B463246FAF706FB002800D06B
:10F5E00005207CBD07280DD001280BD0082809D0A4
:10F5F000052807D0062805D0092803D0042801D003
:10F60000002070470120704710B503EB83034FF6CD
:10F61000FF7404EA03138170DB1C990842600180C7
:10F6200010BD00000149F9F721BB0000E4470020AC
:10F6300010B50446A0F57F40FF3807D004492046A6
:10F64000F9F714FBA04201D1012010BD002010BD2C
:10F650000448002010B50446044901F08BFB03491F
:10F660002046BDE81040203101F084BBE447002073
:10F670000149FCF744B900000448002070B50A496C
:10F68000FCF73DF904464FF6FF7507E000F01EF861
:10F6900038B105492046FCF732F90446AC42F5D1B1
:10F6A00070BD204670BD0000E447002001484021A5
:10F6B000F6F703BFE4470020FF2803D801460248BD
:10F6C000FCF7BCB900207047E4470020FF2803D8AE
:10F6D00001460248FCF7B2B90020704704480020F8
:10F6E0001CB500F01BFC08B1F7F752FB002000909E
:10F6F00001909DF8000020F07E0040F001003030C5
:10F7000020F080008DF8000007208DF80100102007
:10F710008DF802009DF8030040F003008DF803000F
:10F720009DF8040040F003008DF80400684600F0E6
:10F73000CBFE08B1F7F72CFB034800F0AFFE002822
:10F7400001D0F7F725FB1CBDC1F8020000680128B5
:10F7500003D0022801D0002070470120704700002C
:10F7600010B50549C20800F00703885C01249C40DD
:10F770002043885410BD0000D848002004490844A4
:10F7800090F93000082801DB012070470020704705
:10F79000844800200449084490F93000082801D228
:10F7A0000120704700207047844800202DE9F04177
:10F7B0000F4606002AD0306840B3706830B3FF248B
:10F7C000002520E029467068FCF703F980F001006D
:10F7D000BFF35F8F48B1FF2C00D12C46281B401C83
:10F7E000B8420ED12046BDE8F081FF2C06D108E0DA
:10F7F0002146304600F032F8641CE4B2AC42F7D344
:10F80000FF246D1CEDB2B068A842DBD8FF20EAE708
:10F8100070B5DDE9044558B151B14BB104FB05F6B3
:10F82000964205D824B11DB180E83A00002070BD91
:10F83000072070BD70B504000D460DD0206858B18A
:10F84000606848B1FF2D07D0FBF7DEFF20B1E1680B
:10F85000206805FB010070BD002070BD70B504007C
:10F860000D4613D02068002810D0606800280DD005
:10F87000FF2D0BD0FBF7C8FF002807D06068294692
:10F88000BFF35F8FBDE87040FCF798B870BD000013
:10F89000034A12780AB102F0DDB808207047000070
:10F8A000E8390020054A10B512782AB102F050F963
:10F8B000082800D1112010BD082010BDE839002013
:10F8C00010B5044600F076F9204600F00FF8204607
:10F8D00000F040F820780C2803D1BDE81040F7F77D
:10F8E00055B910BDFAF70CB8FAF70AB810B50446C6
:10F8F0000078032819D10D480D496288401AC008C4
:10F90000022101EB00400BA1FDF72CFC60881321C4
:10F9100076DF082809D0A0F54051023905D000282B
:10F9200003D0BDE81040F7F733BA10BD084B030011
:10F93000B84A0300446973636F6E6E656374696EE1
:10F940006720636F6E6E5F68616E646C652025640E
:10F950002E0000002DE9F04105460178614C0020A1
:10F96000012686B004F1500715291AD2DFE801F00C
:10F970000B192919191934199019901919191919EC
:10F9800019191992AB00A88800F03CFC86280BD00E
:10F99000112809D0062804D0072802D0132800D047
:10F9A000F0BB06B0BDE8F0816068A98827F81010A8
:10F9B000401CC11700EB517121F00701401A606033
:10F9C0008AE0287A012801D00028EAD1A88806B068
:10F9D000BDE8F04101F006B820780028E1D14248A6
:10F9E0004249401AC708032000EB0740804640A167
:10F9F000FDF7B4FB607870B96846FAF75FF9051E49
:10FA000001D0F7F7C5F9BDF8060000B1012060701C
:10FA100080B1002DC5D1FAF731F8002836D000E0CA
:10FA200003E0A0F506410739BBD006B0BDE8F041C0
:10FA3000F7F7AEB900236A461946184600F070FC85
:10FA400005000ED14046BDF8002030A1FDF78AFB2D
:10FA5000BDF8000000F0CCFB051E0AD0F7F798F9BE
:10FA60006670052D07D0062D09D02846F7F790F9C6
:10FA700097E76670CFE706EB07402FA103E002206F
:10FA800000EB074034A1FDF769FB8AE7267088E7A1
:10FA9000667086E720706070656800244FF6FF7618
:10FAA0006019C11700EB517121F00701401A07EBF3
:10FAB00040010888B04202D00E8000F093FF641C21
:10FAC000082CEDDB6DE72070A868A0F506410D3924
:10FAD00002D0B0F5064FCBD106B0BDE8F04100F042
:10FAE0005BB80000F8390020084B0300B84A030057
:10FAF000417474656D7074696E6720746F20636CF7
:10FB000065616E20666C6173682E000044656C65EB
:10FB100074696E67206C6F776573742072616E6BA9
:10FB2000656420706565722028706565725F696420
:10FB30003A202564290000005468657265206172CE
:10FB400065206E6F20706565727320746F20646528
:10FB50006C6574652E000000506565722072616EE0
:10FB60006B732066756E6374696F6E616C6974790E
:10FB70002069732064697361626C65642C20736F03
:10FB8000206E6F20706565727320617265206465F8
:10FB90006C657465642E000000B585B014220449BC
:10FBA0006846F6F763FC6846FFF7D4FE05B000BD73
:10FBB000742E030010B5044600F026F8207890B1AA
:10FBC000072816D10B480C49401AC008012101EB47
:10FBD00000400AA1FDF7C2FAA068002809D0BDE8DC
:10FBE0001040F7F7D5B86088BDE810400021F9F75C
:10FBF00045B910BD084B0300B84A03004173736553
:10FC00007274696E672E00002DE9FC5F044602786D
:10FC10005148524D0221401BC008DFF8389101EBDA
:10FC200000450323012109F10C0B03EB004701EB15
:10FC30000046A9F1080A09F11808152A71D2DFE86F
:10FC400002F019190B1B19192A2D3448575B6369E7
:10FC50001971191919197A006088F7F751FE217A7C
:10FC600059F820205BF821000090638838463CA1B9
:10FC7000FDF787FABDE8FC9F6088F7F741FE237A1D
:10FC800059F8202061895BF82300CDE900016388E1
:10FC9000384643491AE0284642A137E0A068FDF7FC
:10FCA00057FF0246304645A14BE0207CC00701D0FB
:10FCB0003AA100E04CA1627A5AF82200CDE9000195
:10FCC000217AA288384658F821304A49FDF762FA6D
:10FCD000D0E72069FDF73CFF627A5AF82210CDE99F
:10FCE0000010217AA288284658F821304249EDE7D1
:10FCF000A288304641A124E0A068FDF729FF034611
:10FD0000A288304647A111E0384652A1BDE8FC5F09
:10FD1000FDF724BAA068FDF71BFF0246304652A14A
:10FD20000FE013E0A3886288284658A102B0BDE81E
:10FD3000F05FFDF71EBAA068FDF70AFF02462846ED
:10FD400061A102B0BDE8F05FFDF70CBA28466AA1D8
:10FD5000F7E70000083A0020084B0300B84A030008
:10FD6000436F6E6E656374696F6E20736563757241
:10FD700065643A20726F6C653A2025732C20636F9E
:10FD80006E6E5F68616E646C653A2025642C20702D
:10FD9000726F6365647572653A2025730000000018
:10FDA000A03C0300466C6173682073746F726167D6
:10FDB000652069732066756C6C000000556E65786F
:10FDC00070656374656420666174616C206572722D
:10FDD0006F72206F636375727265643A2065727228
:10FDE0006F723A20257300002C206E6F20636861CB
:10FDF0006E676500F83D0300AC3D03005065657219
:10FE00002064656C657465642073756363657373E2
:10FE100066756C6C793A20706565725F69643A202A
:10FE200025640000506565722064656C6574696FB7
:10FE30006E206661696C65643A20706565725F6901
:10FE4000643A2025642C206572726F723A20257303
:10FE500000000000416C6C20706565727320646561
:10FE60006C657465642E0000416C6C207065657271
:10FE70002064656C6574696F6E206661696C656489
:10FE80003A206572726F723A202573004C6F63617D
:10FE90006C20444220636F756C64206E6F74206226
:10FEA00065206170706C6965643A20636F6E6E5F87
:10FEB00068616E646C653A2025642C2070656572FB
:10FEC0005F69643A20256400466C6173682067614D
:10FED000726261676520636F6C6C656374696F6ED5
:10FEE000206661696C656420776974682065727248
:10FEF0006F722025732E0000556E657870656374EF
:10FF0000656420504D206576656E742049443A2022
:10FF1000307825782E000000F9F7F2BC70B5FFF7B5
:10FF2000A9F92749274A891AC908012505EB01447F
:10FF300030B1FDF70DFE03462046234A23A130E0F1
:10FF4000FFF72CF830B1FDF703FE034620461E4AAA
:10FF500029A126E001F0D0FD30B1FDF7F9FD0346FF
:10FF60002046194A2FA11CE001F0EAFE30B1FDF74E
:10FF7000EFFD03462046144A35A112E0FAF742FA93
:10FF800030B1FDF7E5FD034620460F4A3BA108E0EE
:10FF9000FAF70CFB48B1FDF7DBFD034620460A4AA1
:10FFA00041A1FDF7E6F8032070BD4A484FF6FF7106
:10FFB00081800021816041700570084670BD00009D
:10FFC000004B0300B84A0300482E03002573206647
:10FFD00061696C6564206265636175736520706436
:10FFE000735F696E697428292072657475726E6515
:10FFF000642025732E0000002573206661696C65FE
:020000040003F7
:10000000642062656361757365207064625F696E08
:10001000697428292072657475726E656420257371
:100020002E0000002573206661696C65642062659E
:10003000636175736520736D5F696E69742829202B
:1000400072657475726E65642025732E0000000061
:100050002573206661696C656420626563617573F0
:100060006520736D645F696E6974282920726574F8
:1000700075726E65642025732E000000257320665E
:1000800061696C656420626563617573652067638F
:100090006D5F696E697428292072657475726E656A
:1000A000642025732E0000002573206661696C654D
:1000B000642062656361757365206773636D5F6952
:1000C0006E697428292072657475726E65642025C6
:1000D000732E0000E83900202DE9F041044686B077
:1000E00001278088FAF7DCFC6080207800263F4DED
:1000F000082808D0092820D04FF6FF780A2829D0F0
:100100000B2853D158E0607A10B1012809D04DE096
:10011000A86830B1E168814203D1AE60A088A880B0
:1001200016E06878E8B3A088A98888423ED1207A92
:1001300006283BD100F064FC38E0607A88BBA868F0
:1001400078B3E168814231D1AE60E868401EE86072
:10015000E6602BE0A878E8B14046FFF7FBF841469F
:10016000404517D10846FFF7F3F8404512D1AE706D
:1001700014216846F6F7A1F90C208DF80000ADF8BF
:100180000480ADF8028000272046F9F7B9FB6846E5
:10019000F9F7B6FB687838B1A088A988884203D1FE
:1001A00000E003E000F02CFC002F1CD006B020463D
:1001B000BDE8F041F9F7A4BBA8780028F6D0AE70EE
:1001C00014216846F6F779F90D208DF80000ADF896
:1001D0000480ADF80280A06802902046F9F790FBF9
:1001E0006846F9F78DFB06B0BDE8F081E8390020DC
:1001F0000349097809B1FAF7F3BC082070470000F9
:10020000E8390020F0B5324C064687B0207838B186
:100210003049D1E90201CDE90501607818B104E067
:10022000082007B0F0BD00F0EBFB6078A168401E2D
:10023000084301D0112547E0A088002786421CD141
:10024000E068D0B1002514216846F6F736F9082099
:100250008DF800003046FAF723FCADF802000620C6
:100260008DF80800ADF804608DF8097003978DF8DB
:1002700010706846F9F744FB26E0E068411C25D081
:10028000401C134AE060083205A93046FFF7D2F857
:10029000050019D0A760E068401EE060112D13D062
:1002A000862D11D0072D0FD02846FDF751FC0246B0
:1002B00009480A493346401AC008012101EB0040B1
:1002C00007A1FCF756FF03252846AAE71325FBE7FD
:1002D000E8390020482E0300004B0300B84A030011
:1002E000436F756C64206E6F742075706461746503
:1002F0002072616E6B2E207064625F7261775F7333
:10030000746F726528292072657475726E65642039
:1003100025732E20706565725F69643A202564003C
:100320002DE9FF4F344885B09946007892468B46B8
:10033000C0B14FF6FF742046FFF70CF8804600204E
:100340000421CDE90210009003A8019002AB6A4697
:1003500006214046FFF734F800277E1E2546072871
:1003600004D017E0082009B0BDE8F08F0520FAE7B7
:100370000398B84201D307464546B04201D206462B
:1003800044464046FEF7E6FF804602AB6A46062139
:10039000FFF716F80028EBD00528F2D04FF6FF71D2
:1003A000884519D18D4201D08C4201D1052000E051
:1003B0000020059901B10D80BBF1000F01D0CBF8F1
:1003C0000070BAF1000F01D0AAF80040B9F1000F97
:1003D000C9D0C9F80060C6E7FDF7BAFB0246074876
:1003E00007494346401AC008012101EB0040054976
:1003F000FCF7BFFE0320B6E7E8390020004B0300FE
:10040000B84A03009C3A0300F0B51F4E85B030781F
:10041000D0B101274FF6FF74B7702046FEF79AFF60
:100420000546A0422BD10020B07014216846F6F793
:1004300044F80C208DF80000ADF80440ADF80240FF
:100440006846F9F75DFA1CE0082005B0F0BD00BF72
:10045000FFF7CEFE78B1FDF77BFB03460B480C4956
:100460000C4A401AC00807EB00400B490095FCF706
:1004700088FE0320E9E72846FEF76CFF0546A54203
:10048000E6D10020E1E70000E8390020004B03003E
:10049000B84A0300642E0300E43A0300084A1178C6
:1004A00021B1D178032903D3042070470820704775
:1004B000044B43F82100491CD17000207047000014
:1004C000E8390020244800200349097809B101F0E7
:1004D0007BBB082070470000E8390020002801D0CD
:1004E000F9F70EBA704700002DE9F05F2A4F064673
:1004F0004FF0A04A4FF0010B0024381990F950102A
:10050000491C3CD090F85000314620F0C0052846E8
:10051000FBF730FB20B3204600F040F881460AEBA1
:100520008500D0F80007C0F30148B8F1020F18D0D9
:1005300002212846FCF7C4FB0BFA05F1CAF8201586
:100540002846F8F78DFA57F820204AB14846B9F105
:10055000030F11D0B8F1020F05D0B8F1030F07D087
:100560000DE00321E5E74846B9F1010F04D006E0AC
:100570004846B9F1020F02D1014628469047641C53
:10058000042CBAD3324601210020FCF7ABFB3068C3
:100590000028B1D1BDE8F09F8448002002490844FA
:1005A00090F85000800970478448002010B50C4630
:1005B000017A052908D0407A38B1084808A10268B4
:1005C0002046FBF78DFF00E01AB106A12046FBF79D
:1005D00087FF2046BDE81040FBF78FBF703B00202F
:1005E000257300000D0A000038B5C3880D46044687
:1005F00033B114A0009015A216A12846FBF770FF96
:10060000217A05291CD0607A48B1A088FCF764FCE7
:10061000164951F8202016A12846FBF761FFA08853
:100620000021FCF737FE03461049207A143951F8AF
:10063000202001B02846BDE830400EA1FBF750BF96
:1006400038BD00001B5B306D000000001B5B313BC0
:1006500033316D0025734C6F67732064726F707057
:100660006564202825642925730D0A00703B00204D
:10067000257300003C25733E2025733A20000000BE
:100680000349884201D103487047002070470000A9
:10069000002000408C3A00200146054810B5006853
:1006A000FBF760F904461C21F5F707FF204610BD53
:1006B000582F0300014602480068FBF774B9000098
:1006C000582F0300034802490068FBF756B90000A1
:1006D000143B0020E02F0300F0B591B00E46074612
:1006E00001226946FCF7F8FE04005AD19DF800008B
:1006F00004AD06285DD2DFE800F0030A181F2327A7
:10070000BDF81220BDF810103046A1DF0BE008A89C
:1007100006900146BDF8162000230198FCF795FECF
:1007200029463046A3DF044626E0BDF810103046C7
:100730000DF112029BDFF6E7294630469DDFF2E716
:10074000294630469EDFEEE70CA8079000230222E0
:1007500008A90198FCF779FE08A80690BDF82020AA
:10076000022307990198FCF770FEBDF820E02946A6
:100770003046AEDF040016D0112C12D09DF80000D8
:10078000114951F8200010B10198FCF730FE002209
:1007900069463846FCF7A0FE22463146684600F01E
:1007A000F1FA11B0F0BDBDF820008645E6D00C246A
:1007B000E4E706480649401AC008022101EB004060
:1007C00004A1FCF7CBFCD9E7082E0300E04A0300A4
:1007D000B84A0300556E696D706C656D656E746521
:1007E000642047415454205265717565737400004C
:1007F000F0B5264D264E85B004460027686828B916
:10080000224930680831FBF7C3F868600146007878
:10081000072817D2DFE800F0160408080E0E1200B1
:100820002046FAF73DFA02E0204602F075F904008E
:1008300029D009E02046F8F7F7FBF8E72046F9F75A
:10084000A9FBF4E748F20E6414216846F5F735FE7B
:10085000A4F5E8501D3800D1002401946946686869
:10086000F8F7EEFE6846F8F725FF08496F600024A8
:1008700008313068FBF781F8044801210C30FBF7A0
:1008800021F90028BAD105B0F0BD0000E03A0020FF
:10089000582F03002DE9F041234C0025234E207AE8
:1008A000012730B92248311D0068FBF771F830602C
:1008B00038B1022020723168087928B101281ED190
:1008C00016E06560BDE8F081D1E90503C01A4FF478
:1008D0008052904200D31046B7EB900F01D28208AD
:1008E00000E001220869C9681844194429DF03E0BF
:1008F000D1E90301084428DF58B1112812D003219F
:100900003068F8F7E7FE25726560BDE8F041FFF753
:10091000D9BE207C0028D5D1BDE8F04100210220BD
:10092000FCF70EB82772CDE7604B0020103B00208B
:10093000E02F030010B501210448FBF7A9F80028B7
:1009400003D1BDE81040FFF753BF10BDEC3A0020C3
:1009500010B5074C201DFBF78CF8002806D1607CF1
:10096000002803D1BDE81040FFF794BF10BD000080
:10097000604B002001680A684968914201D3881AD7
:1009800070478068801A0844401C704770B58CB06E
:100990000446C068002209A9FCF79EFD104D1BE02B
:1009A000BDF82410A06801EB810100EB810607E08F
:1009B0009DF8000055F8200010B10198FCF717FDD4
:1009C000002269463046FCF787FD0028F0D000225F
:1009D00009A9E068FCF780FD0028E1D00CB070BDEB
:1009E000082E030010B586B0044614216846F5F7BA
:1009F00064FDADF804406846FEF7ACFF06B010BDDC
:100A00000B4910B500231A46A1F10800FFF788FC36
:100A100007490C39052803D038B10020487010BDB3
:100A20004FF6FF7088800020C8600120F6E70000C4
:100A3000F439002010B510461A46F5F717FD0020CE
:100A400010BD00002DE9F0438146234885B00178B0
:100A5000002936D00021214F01700D468046012625
:100A600005EB450007EB8004A07A810701D4C1079C
:100A70002ED088F80060800702D4B9F1000F27D08B
:100A8000204601F0D3FE18B34FF6FF71ADF8021007
:100A90002188ADF80410862816D007218DF80010A3
:100AA0000290FDF755F802460D480E492388401A7A
:100AB000C00806EB00400C49FCF75BFB6846FEF7FC
:100AC0005FFA05B0BDE8F08306208DF80000F5E779
:100AD0006D1C042DC4D3F4E7E0390020B447002096
:100AE000F84A0300B84A03003C3A03002DE9F047F6
:100AF000074620481C46154600780E4670B18DB159
:100B000084B1DFF874804FF00009A08802282DD24C
:100B100000EB800118F8210020BB1BE048F20160C7
:100B2000BDE8F08748F20460FAE720681FB18188C9
:100B30003A8891420ED11EB101883288914209D182
:100B400080682860206868600B4828300089288108
:100B50000020E5E7A088214600F060F80028E4D1F5
:100B6000C4F80090A088401CA080CEE748F209603D
:100B7000D6E70000003B00208C4A0020F8B505466F
:100B80004068244F0C46002648B32349CA68824275
:100B900025D80969814222D3FAF708FAF8B12889E1
:100BA000398988421BD1D5E900018A68904216D163
:100BB0000020A7F1280200BF00EB800302EB8303B3
:100BC0005B688B4205D203F580538B4201D92080AC
:100BD00011E0401C80B20228EED30020F8BD268030
:100BE00000960AE0009829688068884205D100983C
:100BF0006860388928810120F8BD2088694600F0A6
:100C00000DF80028EED12088401C80B220800228F8
:100C1000E6D3E2E7B44A00209C3B002070B50E46C4
:100C200000EB8001134800EB81004468306804F554
:100C3000805518B1418800EB810411E0083410E0C0
:100C400029462046F9F7A4FD20B1012805D0022845
:100C500007D10DE00120346070BD608804EB800492
:100C60000C3429462046F9F7A9FD0028E8D170BDCB
:100C7000002070BD8C4A002038B50C460021009140
:100C800001460423084A0948FBF7ACFE10B148F2BC
:100C90000D6038BD064A04EB840102EB810101209E
:100CA0000874002038BD00005C2F03009C3B00202E
:100CB0008C4A00202DE9F047884600EB80011E4851
:100CC0001D4600EB810016464168DDF8209001F1D9
:100CD000080401F580571BE039462046F9F758FD16
:100CE00068B1012802D0022812D119E03088401CD6
:100CF0003080288861880844C01C288004E0B8F847
:100D00000000401CA8F80000608804EB80040C344C
:100D100039462046F9F752FD0028DDD1BDE8F087BD
:100D20003088401C30802988381B01EBA0002880C7
:100D3000012089F80000F1E78C4A002070B50C4BC7
:100D400000210A4ADC680DE002EB81058678AD7867
:100D5000B54206D132F821500688B54201D1586813
:100D600070BD491CA142EFD3002070BD7445002026
:100D7000A83900200A46FF2803D801461046FAF792
:100D80001DBE7047F8B515000E46044616D00C4837
:100D90000C490095401AC008012101EB004022785F
:100DA00033460949FCF7EDF9A368002B06D0E1684A
:100DB00001B032462846BDE8F0401847F8BD0000B3
:100DC000E04A0300B84A0300E83703002DE9F04188
:100DD000044600780E46002504F11001062828D2AA
:100DE000DFE800F003080B111418628A218A3046EC
:100DF000A1DF0DE03046A3DF0AE0218A04F11202F0
:100E000030469BDF04E030469DDF01E030469EDF48
:100E1000054605E0A06907883046AEDF050002D030
:100E2000112D18D00FE0A0690088B8420BD00C2516
:100E300009E00A480A49401AC008022101EB0040B3
:100E400008A1FCF78BF92A4631462046FFF79AFFA6
:100E50000120BDE8F0810020FBE70000E04A03002C
:100E6000B84A0300556E696D706C656D656E74658A
:100E700064204741545420526571756573740000B5
:100E800008467047F0B58C885470240A0646947062
:100E90008879D070347E00230420E40707D00C78D2
:100EA0002CB10C891471240A012354710620347E5C
:100EB000A4070DD54C785CB11518CC682C70270AA6
:100EC0006F70270C240EAF7043F00203EC70001D0E
:100ED000347E640703D5897809B143F004031370A5
:100EE000F0BD00007FB506462F48304A0C46801AF8
:100EF0000978C008032202EB004001292CD0022906
:100F000029D122892AA1FCF72DF9A0798DF80200B8
:100F100020798DF8000060798DF80100A089ADF886
:100F20000800A07A8DF806002089ADF80400206939
:100F3000039069462248F7F7BAF900280BD0082831
:100F400009D0132807D0112805D043F20141884267
:100F500001D0F5F71DFF7FBD1A4D6988A1F57F42CD
:100F6000FF3AF8D162886A801749FCF7FBF8F8F776
:100F7000FFFE221D69883046F7F7BEF808B1F5F785
:100F800007FF00216888FEF78DFC112802D008B108
:100F9000F5F7FEFE3046F7F7EFF80028DBD004B097
:100FA000BDE87040F5F7F4BE884B0300B84A030073
:100FB00053706565642020202020203D202564009A
:100FC000003C0020A42D0020D432030070B505465B
:100FD000F8F78FFA134C40B1D4E904024FF0807156
:100FE000411842F10000C4E9041000212846F8F736
:100FF000CDF930B1606820B1606801F05FF8002081
:10100000606001212846F8F7C1F918B1F9F788FAAC
:10101000C4E90601284601F07DF82846BDE8704085
:1010200000F034B8B03A002070B5054600200C46F8
:101030000870F9F775FAD5E90223101A63EB01037A
:1010400000263146361A994112DAB0F5350F03D32E
:10105000F5F7AAFE0B4942184FF4960300210A48FF
:10106000F8F753FA10B10D2806D009E0012070BD41
:1010700000210548F8F780F9284601F01FF8207094
:10108000002070BDFFFFB400B83A0020F8B51A4C3C
:10109000074600261948FCF725FDD0B1616871B1FB
:1010A000D0E902106268D2E90232C91A904120D216
:1010B0006068007F18B161681048FCF702FD00F01D
:1010C0005FFF05466946FFF7AFFF98B1606840B122
:1010D0000AE0606800280CD13846BDE8F840F8F70F
:1010E00010BA3846F8F709FA65609DF80000002844
:1010F000D0D1F8BD6660CDE7B03A0020382F0300AC
:1011000070B5054688690C4600284FF4847128465E
:101110000AD0FCF72CFDD5F81805626AE1688854FE
:10112000606A401C606270BDFCF721FDD5F81805AF
:1011300070BD1FB501238DF80030CDE90121D0E944
:101140000012684690471FBD1FB501238DF800307F
:10115000CDE90121D0E90012684690471FBD00008B
:1011600010B50446064801792046F6F7F9FB002839
:1011700004D12046BDE8104000F0FCBA10BD0000CC
:10118000B839002030B4446801690078002808D1DB
:101190000123054AA01C8CDF002802D030BCF5F7E3
:1011A000F7BD30BC70470000F04000201FB50020A4
:1011B00001900290039018480090184A6946184818
:1011C000FAF7AEFF08B1F5F7E3FD1648F5F780F939
:1011D00038B1144A00211248FAF722FF08B1F5F796
:1011E000D7FD114A03210E48FAF71AFF08B1F5F7A7
:1011F000CFFD0D4A0321121D0948FAF711FF08B16E
:10120000F5F7C6FD00221F210548FAF766FF002802
:1012100001D0F5F7BDFD1FBD643900208511030025
:10122000C0400020B02C0300A82D002010B50548B8
:10123000FBF794F8002803D0BDE81040F5F7A8BDEF
:1012400010BD0000C040002038B50021012548B184
:10125000012810D003280DD1FCF7A8FCBDE83840C8
:10126000FBF7F0B84FF0E020C0F88051BFF34F8F8C
:10127000BFF36F8F38BD8DF800106846F5F7F2FDAB
:10128000064C207808B9FBF7BDF8E068401CE06028
:10129000A5709DF80000F5F709FE38BD70480020E4
:1012A0003EB5044609496846FCF7E4FB08E000BF88
:1012B000D0E900212046904730B16846FCF7F1FBA9
:1012C00002980028F4D13EBD11203EBDBC31030080
:1012D0003EB5044608496846FCF7CCFB07E000BF72
:1012E000D0E90021204690476846FCF7DAFB0298D7
:1012F0000028F5D13EBD0000C83103002DE9FE43B2
:1013000004460C3000278046F9F792FC4FF6FF7632
:101310000546B042208803D1F9F778FC054602E083
:101320002946F9F753FC20880022012100F008F932
:10133000B54214D001AA07212846FDF7B5FE70B9C1
:10134000029EA07D3436C00709D0307CC00705D18D
:10135000414606F11200F9F724FC00B1374600239C
:1013600020881A46394686DF1649174A0646891AE2
:101370004FEAD108082811D0BEB1FCF7E9FB0246BC
:101380000121009501EB084023881049FBF7F9FE85
:101390002088314600F066F9BDE8FE83022101EBAA
:1013A00008400B49FBF7DAFEF6E7A07DC007F3D053
:1013B000002FF1D12088002241F20601F8F714F93C
:1013C000EAE70000104B0300B84A03003C3E03006C
:1013D000C43F03002DE9FC478846064627482849B4
:1013E0001C00A0EB01004FEAD0074FF0010091462E
:1013F00000EB074515D006F5807080B26B460122E0
:101400000721FDF79BFE112809D080B1FCF7A0FB56
:101410000246284633461B49FBF7ABFE0320BDE8D6
:10142000FC872846184A19A1FBF79CFEF6E75021D5
:101430000198F5F742F8019981F800800198C4F805
:101440000C90343020600198183020610198401CC5
:1014500060611B48E061019930461131F9F796FA55
:101460000028DCD0FCF774FB0246022000EB0740AA
:1014700033461449FBF77DFE0820D0E7104B0300EC
:10148000B84A0300E0400300F02E0300496E746583
:10149000726E616C206572726F723A2025732072D1
:1014A00065636569766564204E554C4C20666F72A5
:1014B00020705F7365635F6B65797365742E0000E0
:1014C00030480020743F0300002835D0027891078F
:1014D00001D411062FD4C2F3021104292BD893078B
:1014E00003D5032901D1110625D5437881788B4294
:1014F00021D8072B1FD310291DD8C1784B071AD428
:101500000079430717D40B0715D4030713D4D20768
:101510004FEAC17201D042B10FE062B989070AD423
:10152000C10708D1800706D407E0890705D4C107A1
:1015300003D1800701D400207047012070470000CC
:10154000F0B5154E14460F460A4685B0054631786B
:10155000F6F71EFA002F1AD00CB1012200E000228B
:1015600071782846F6F714FA012C12D00022B178CF
:101570002846F6F70DFA142208496846F4F776FF74
:10158000ADF802508DF808406846F8F7CFF905B07D
:10159000F0BD0122EBE70000583A00208C2E03003A
:1015A00001490978F6F7DCB9583A0020F8B5044645
:1015B000144800252E46806808B36088F6F75AF96B
:1015C000A0B100200090207A9DF80020410861F32E
:1015D000820260F3C302800860F304128DF80020D9
:1015E0006088694600F0DCFA80F00106608801B08E
:1015F00032462946BDE8F0400123F9F709BD01252F
:10160000F4E70000603A002010B586B004461421CB
:101610006846F4F752FF04208DF80000ADF8024050
:101620006846F8F783F906B010BD000002498969E1
:10163000002900D008477047DC44002030B585B051
:101640000C460546142206496846F4F70FFFADF82C
:10165000025068460294F8F737F905B030BD000033
:10166000802D030030B585B00C460546142206498E
:101670006846F4F7FBFEADF8025068460294F8F7AE
:1016800055F905B030BD0000A02E030070B50D4C1B
:101690000020D2B22070201D0B4D0378EB5C1BB1F3
:1016A000001DFCF76FFD02E00C30FCF769FC08B18F
:1016B000F5F76EFB6078002802D021780029FAD077
:1016C00070BD0000203B0020783A00200348002233
:1016D0000149C078F6F7DEB861110300B83900207F
:1016E00070B51F4988B01F4CD1E900014FF6FF7655
:1016F000CDE9050130E0002205A9FDF79BFE0500BC
:1017000026D014216846F4F7D8FEA088ADF804006E
:10171000112D17D0862D17D02846FCF719FA02464E
:1017200011481249A388401AC008012101EB00406A
:101730000F49FBF71EFD07208DF800000295684653
:10174000F8F7D0F808B070BD06208DF80000F6E775
:10175000A088FDF7FFFDA080A088B042CBD1F1E7C3
:10176000D42D0300C8390020C84A0300B84A03003A
:10177000A83503002DE9F04F8DB00546012700265E
:10178000F8F7D8FF0446112821D005DC68B30628F5
:1017900070D0082C08D134E0A4F54050023816D09F
:1017A000A0F54070FF386CD02046FCF7D1F9024616
:1017B000364837492B46401AC008012101EB00404A
:1017C00034A1FBF7D6FC21462846FFF737FF414CF2
:1017D0003A462846E178F6F7DBF821790DB0324633
:1017E0002846BDE8F04FF6F7D3B814223A496846C8
:1017F000F4F73CFEADF8025001266846F8F764F8AD
:10180000E5E70DF114084FF0000901A8B3DFDFF898
:10181000C8B001240DF1180AABF1440B42F6052EB5
:101820001FE0DBF80C00CDE9030A002206A92046E0
:10183000B4DF70B9BDF81810B9F1000F0BD0A1F5E5
:10184000245002380BD103AA21462846CDF8108037
:10185000ADDF58B10EE0714501D14FF00109641CB4
:10186000A4B2BDF804008442DBD303E0BDF8140049
:101870000028ACD100272846F9F7C8F9F8F788FE08
:10188000A5E72846F9F7E0FCA1E70000C04A0300FD
:10189000B84A03006773636D5F7365727669636549
:1018A0005F6368616E6765645F696E645F73656ED0
:1018B0006428292072657475726E65642025732012
:1018C000666F7220636F6E6E5F68616E646C653AFE
:1018D00020256400B8390020A82D03002DE9F0412F
:1018E0000746806A14468846C8B3002531E000BF29
:1018F000B96A05EB450001EB8006B088801CFE2824
:1019000002D90C20BDE8F0812288401C08F80200B2
:1019100020881622401C80B2208008F800202088F1
:10192000401C80B2208000EB0801308800F0FDFDF3
:101930002188084480B22080B28842B1B16871B178
:101940004044F4F793FD2088B188084420806D1C42
:10195000EDB297F82C00A842CAD80020D2E7FFE7E2
:101960000720CFE7F5F714BA70B58EB000252048F0
:10197000204E2C46CDF8300004EB440006EB8000EE
:101980000CA9FAF790FA08B1F5F702FA641C032CD7
:10199000F2D303208DF834000DA801240890099596
:1019A000144807958DF8244006958DF81C408DF855
:1019B000254006A9B838F6F7CFFA08B1F5F7E8F9E7
:1019C00018216846F4F779FD0520ADF806000948AE
:1019D0008DF8054000958DF8044069466838F6F7A3
:1019E000FDFB002801D0F5F7D3F90EB070BD000063
:1019F00057D60200683C00200A78062822F0FF0231
:101A00000A7010D2DFE800F0030507090B0D002073
:101A100008E0112006E0212004E0312002E012203D
:101A200000E022200870704710B500F0FDF8074C68
:101A3000002205492079F5F72DFF6078BDE81040B8
:101A400000220349F5F726BF5BEF0200603A002051
:101A50001DB202002DE9FC410C00074614D0F5F739
:101A600061FF060013D03846F9F7D0F80546207814
:101A7000022E0FD020F00100A5F57F412070FF3924
:101A80000BD040F008000AE00E20BDE8FC8143F2D4
:101A90000200FAE740F00100EEE720F008002070B5
:101AA0003846F5F7E7FE217860F3410121703846AA
:101AB000F5F716FF217860F3820121703846F5F7BB
:101AC000FFFE70B93846F5F7D5FE70B128466A4674
:101AD0000721FDF7E9FA40B9019890F84400C007E2
:101AE00003D0207840F0100002E0207820F01000B1
:101AF00020700020C9E7000010B51148F8F781F9FF
:101B00000F48401CF8F77DF90D48801CF8F779F96B
:101B10000B48C01CF8F775F909480121401E0279ED
:101B2000182A02D04171002010BD0648064A801ACA
:101B3000C00801EB00400549FBF710FB032010BD76
:101B4000613A0020184B0300B84A03000434030034
:101B500000230A461946F9F75BBA000010B5007871
:101B60000A2809D004DC082806D0092811D103E08E
:101B70000B2801D013280CD1074C002205492079ED
:101B8000F5F788FE6078BDE8104000220349F5F7BC
:101B900081BE10BD5BEF0200603A00201DB2020062
:101BA00038B50C460749096800916946FFF752FFAE
:101BB00021789DF800209143084301D0002038BDD2
:101BC000012038BD142F030070B50B4C05004FF0F9
:101BD00001060CD0FFF778FC58B1286820612879FD
:101BE000207504F11000A0602670002070BD002058
:101BF000F9E7072070BD0000603A002010B50446E8
:101C00000078052802D0122809D105E06088A16873
:101C1000BDE8104000F03CB92046FFF7C7FC204665
:101C2000BDE81040F7F790BE30B50446008885B097
:101C300019284CD00BDC112822D013282BD01428C3
:101C40001CD105B0201DBDE83040FFF757BB1A2856
:101C50004ED01E2812D1A088FFF7A2FC00280DD17B
:101C6000142235496846F4F701FCA088ADF802005B
:101C7000207A8DF808006846F7F758FE05B030BDA9
:101C8000207A3D2804D04FF48851A088002225E016
:101C900041F23D01F9E734F8040FF5F731FE012870
:101CA00009D12079C00701D0012200E0022220885A
:101CB0000121FFF745FC204934F8045B1422243944
:101CC0006846F4F7D3FBADF802500294D3E7217ACB
:101CD000201D41B14279008802F0030205B0BDE841
:101CE0003040F9F781BA05B0BDE83040F5F782B968
:101CF000A088FDF7DBF80028C0D1A088F5F7BAFD71
:101D00000028A08810D00D4900220978F5F740FE80
:101D100002208DF80000A088ADF8020000208DF8A8
:101D200008008DF80900A6E705B00122BDE83040A3
:101D300041F20601F7F758BC002F0300583A002083
:101D400010B51548F8F754F81348401CF8F750F848
:101D50001148801CF8F74CF80F48C01CF8F748F8F9
:101D60000D4801210278182A0BD04278182A08D091
:101D70008278182A05D0C278182A02D00171002072
:101D800010BD0648064A801AC00801EB004005490C
:101D9000FBF7E4F9032010BD583A0020104B030074
:101DA000B84A03000434030070B516460C460546D5
:101DB000F5F7A6FD01280BD0022802D043F202005D
:101DC00070BD324621462846BDE87040F9F78EB90D
:101DD00021004FF00000F3D02846BDE87040F9F72D
:101DE0007FB900002DE9F04188B017460D468046C6
:101DF000F5F786FD0446002620216846F4F75DFBD2
:101E0000012C01D08CB105E01F480022C17840466A
:101E1000F5F7BEFD75B14046F8F7F8FEA0F57F4135
:101E2000FF3915D0012C07D012E043F2020008B0B0
:101E3000BDE8F081852618E04046F4F70FFF38B979
:101E40004046FFF7E1FB4046F4F708FF00B985265E
:101E50002878C00711D0852E07D06B463A46214618
:101E60004046FFF7B7FA0028E1D1012C09D0002243
:101E70006B46314640467FDFD9E704480397079019
:101E8000F3E72A46F4E70000583A002030480020E3
:101E90003EB505460C466846F9F70EFD6A462146F2
:101EA0002846FDF75DF809480099C2682846FFF703
:101EB00099FF0446014601222846F7F7C5FF21464F
:101EC0002846009AF7F730FC3EBD0000603A00203B
:101ED000002805D10349012048700020F6F7E6BE2E
:101EE000704700007048002010B51620F4F76AFD16
:101EF00048B10C4882684FF4800152B1016821F466
:101F00008001016010BDBDE8104042F20100F4F70D
:101F10003FBF4FF0E020C0F88011BFF34F8FBFF3F9
:101F20006F8F10BDC849002010B51620F4F74AFD88
:101F3000A0B1114890F800044009082811D20121ED
:101F4000814011F0EC0F0CD00C4882684FF48001F6
:101F50006AB1016841F48001016010BD42F20100E4
:101F600001E042F20200BDE81040F4F711BF4FF06B
:101F7000E020C0F8001110BD16E000E0C8490020C4
:101F80000148FBF7B2BD0000382F0300C207002A4A
:101F900003D000BF4FF00F0201E04FF0F00201D07C
:101FA0004FEA0111044B03EB5003187800EA0200DA
:101FB00040EA010018707047504900202DE9F84FA1
:101FC000074621489146884605681E460122694613
:101FD0001846F6F759FCDFF874A060B300980021AA
:101FE0000446801C0AE000BF00EA050259F821C03F
:101FF0000AEB8202401C491CC2F80CC0B142F3D368
:102000004FEA1749F7F7AEF9611C29400AEB810145
:1020100049EA00422C40CA600AEB8401C86867F3B1
:10202000C50066F3891068F39F2020F00300401C70
:1020300020F00400C8609AF8000001E0FAF772FF8F
:102040000028FBD1BDE8F88F403B0020184D002050
:102050007CB5054614480C460022D0E90510CDE9B0
:102060000010124841792846F5F792FC14B10E4849
:10207000001D01E00C48083001902846F8F7C6FD25
:1020800000226946FDF7D6F900280CD0FBF760FD69
:10209000024607480749401AC008022101EB0040E8
:1020A0000549FBF75FF87CBD642D0300B8390020BB
:1020B000C04A0300B84A03007434030070B50446F4
:1020C000124800250078F8B1F4B1207FE0B1F8F7AC
:1020D00027FAD4E90223801A994110D320690026F7
:1020E00000B92677D4E905108847206960B1217FBF
:1020F00051B1D4E9022110187141C4E9020121460D
:102100000348FBF7DEFC0125284670BDB03A0020ED
:10211000382F0300F8B51B4C69462068F9F738FCE6
:1021200000260127184D29E0017821B101290CD0A2
:1021300002291BD114E041680A7FBAB90F774168C0
:1021400010480830FBF7BDFC10E041686868814228
:1021500001D16E600AE00B480830FBF7CDFC05E0CA
:10216000FFF70EFF08B10677FAE72F70694620687F
:10217000F9F703FC69462068F9F70AFC0028D3D177
:10218000F8BD0000302F0300B03A0020F8B50B4C2A
:102190000D46064669462068F9F7E4FB58B106701B
:1021A000456069462068F9F7FEFB10B10448F7F76F
:1021B0008DF90020F8BD0420F8BD0000302F030089
:1021C000B83A00200348806841080348002240686C
:1021D000F4F72ABE983A0020282F030070B50C4669
:1021E00005464FF48E71FBF7C2FC216AA068415C82
:1021F000206A401C2062C5F81C1570BD1FB5002266
:102200008DF800200291816801914261D0E90012AD
:10221000684690471FBD1FB500228DF8002002912F
:10222000816801914261D0E90012684690471FBD64
:102230001FB50A4601788DF8001041680191017AB6
:102240008DF80810C0680390044850F82210001F51
:1022500050F82220684690471FBD0000803A0020B9
:102260000149012008707047203B002010B588B05C
:10227000044620220E496846F4F7F8F8062000903C
:10228000C01F0190029003904FF0EB7006900CB1CC
:10229000084A00E0002269460748FAF7EDF808B15D
:1022A000F4F776FD0448001F447008B010BD00002C
:1022B0007C31030061220300243B00202DE9FF470D
:1022C0000C4605464FF40071FBF757FC01274FF40D
:1022D0000178002618B34FF4927949462846FBF757
:1022E00041FCE0B149462846FBF741FCC5F80883AC
:1022F00094F8290000B96F6002208DF80000D5F82D
:102300008004C5F880040390A0690290E068019001
:10231000A661E661D4E900126846904728E00421EE
:102320002846FBF72AFC18B34FF484712846FBF7C4
:1023300019FCE8B121462846FEF7E2FE616AA06971
:10234000884215D1E06938B1E268616AA06120690C
:10235000E6616662E06008E094F8290000B96F6009
:10236000C5F80883A661E268616A2046FEF7E1FECF
:102370004FF48E7841462846FBF7F4FB80B1606944
:10238000216A814202D294F8280028B341462846A7
:10239000FBF7EDFB606918B161692046FFF72EFF7E
:1023A0004FF4A27841462846FBF7DCFB002818D002
:1023B00041462846FBF7DBFB94F8290000B12F606B
:1023C000A06900280DD0A661E268616A04B02046C9
:1023D000BDE8F047FEF7ADBE21462846FFF7FEFEFA
:1023E000DEE7BDE8FF8700001FB50A4601788DF8DB
:1023F000001041680191017A8DF80810C0680390BF
:10240000044850F82210001F50F8222068469047D8
:102410001FBD0000803A00202DE9FF410C464FF41B
:10242000927705463946FBF7AEFB0026B8B1394630
:102430002846FBF7ADFB02208DF80000D5F880049C
:10244000C5F880040390D5F83C050290E06801903F
:10245000A661E661D4E900126846904723E04FF494
:10246000887739462846FBF78EFBE0B13946284687
:10247000FBF78EFBD5F83C15A069884213D1E069C3
:1024800060B1E268D5F8000220F02000C5F8000233
:10249000E069A0612069E661E06001E0A661E268B0
:1024A0002046FEF751FE4FF4A27739462846FBF747
:1024B0006AFB68B139462846FBF76AFBA06938B168
:1024C000A661E661D5F83C152046E268FEF73CFEC1
:1024D0004FF4907631462846FBF755FB60B1314604
:1024E0002846FBF755FB0120E860606920B1D5F86C
:1024F0004C152046FFF78FFE4FF4AC763146284648
:10250000FBF741FB00280ED031462846FBF740FB85
:102510006069002807D0D5F84C1504B02046BDE806
:10252000F041FFF778BEBDE8FF810870000A4870EF
:102530000220704710B514210448F3F7BEFF044889
:102540000068F9F7F4F9002010BD0000604B00208E
:10255000E02F03002DE9F05F8346DDE90A4A994642
:1025600090460D460846012703E000BFB0FBF8F097
:102570007F1C4045FAD2B94500D94F465FEACA7080
:1025800012D18CB15FEA8A7002D5B9F1000F01D087
:10259000202607E0302605E031465846641EF6F74F
:1025A000BDF90CB1A742F7D35FF00106B9F1010FF5
:1025B00002D9A9F1010903E0B5FBF6F0404502D3C9
:1025C00006FB08F6F2E7DFF83C9000BFB5FBF6F03B
:1025D00000FB165519F800105846F6F79FF9B6FBA0
:1025E000F8F6002EF2D15FEACA7009D0002C07D0AD
:1025F000A74205D220215846641EF6F78FF9F5E769
:10260000BDE8F09F702F030010B5094C0022074968
:102610006078F5F73FF9002806D16079BDE81040F1
:1026200000220449F5F736B910BD0000F98F020009
:10263000B8390020BD890200F8B5054680B2F8F728
:1026400093FB040013D0154E207A0027317B88427B
:102650000ED2A8B204F10A0175DF28B1112806D004
:10266000BDE8F840FEF7E2BF207A401C2072F8BDBA
:102670002772307C38B1A8B23B2176DF18B1082828
:1026800001D0FEF7D3FF71690029F0D08DF80070FA
:10269000ADF8025068468847F8BD0000DC440020D1
:1026A000417939B190F82E1421B990F8300408B16D
:1026B000012070470020704701460148F9F7BEB974
:1026C000F844002030B40446007A00280AD060881C
:1026D000002166DF28B1112802D0616830BC0847AC
:1026E0000120207230BC704770B50C460546F6F7E5
:1026F00039F9002807D04268002A04D0214628462C
:10270000BDE87040104770BD2DE9FC411646DDE97B
:102710000854CDE900541F468046022200F00CF810
:10272000002807D1CDE900543B46102231464046EF
:1027300000F002F8BDE8FC812DE9FC5F0026DDE930
:102740000C4B994692468E4680462788354630E0A7
:10275000D8F80400002200EB85006946006801906B
:1027600001A864DF002830D19DF8000050451FD13A
:102770000EB1002100E002212288084411185945B9
:1027800022D846B9521C90B2208009F800E0208877
:10279000401C20800126218801A801EB090269461E
:1027A00064DF002811D120889DF8001008442080A3
:1027B0006D1CB8F80000A842CADC56B12088C01BC6
:1027C000401E80B2FF2802D90C20BDE8FC9F09F80A
:1027D00007000020F9E70020704700002DE9F84FBE
:1027E000114D884681461E4617466946DDF828A0E9
:1027F0002868F9F7B7F8040013D01C21F3F75DFE41
:1028000000202071C4F80090C4E90486C4E902A73E
:1028100069462868F9F7C7F8FEF79AF80020BDE87E
:10282000F88F0420FBE70000E02F03002DE9FC41B6
:102830000446002000900190A0788DF80200617A93
:102840002D48FCF7F7FF2D492D4A891AC9080126A2
:1028500006EB014580B10246A178237A6846FCF771
:10286000D3FE9DF8020001280ED006280CD00728C0
:1028700008D0082811D10AE0627A284621A1FAF787
:1028800071FC1FE0142006E0ADF8006005E001983F
:10289000808809308008ADF800002088221D694634
:1028A000FCF7C8FD88B107280DD02649112811D0A2
:1028B000862818D0FBF74CF902462388284622A127
:1028C000FAF757FC0320BDE8FC81A17A21F003014F
:1028D000A172F8E7A07A20F0010040F00200A07297
:1028E0000E700020EFE7A27A22F0020242F001020D
:1028F000A2720E70E7E70000A4470020F84A030028
:10290000B84A0300706D5F6275666665725F7074C9
:10291000725F676574282920636F756C64206E6F21
:10292000742072657472696576652052414D20622B
:1029300075666665722E20626C6F636B5F69643AC0
:1029400020256400E03900207064735F7065657253
:102950005F646174615F73746F72652829207265AA
:102960007475726E65642025732E20706565725FC4
:1029700069643A202564000038B505460C460020FD
:1029800001E00098401C00906946284600F00EF8CF
:1029900000280AD08178A142F3D1817A8A07F0D445
:1029A000C907EED141680029EBD138BD10B50A4BFB
:1029B0000A680CE002EB420433F82440844205D15B
:1029C00002EB420003EB80000A6010BD521C042A97
:1029D000F0D3002010BD0000B44700204FF6FF7177
:1029E0000180FF2181704172817A21F0030181729F
:1029F000002101724160704770B50546002406E071
:102A0000687A2044C1B20648FCF728FF641C287A83
:102A1000A042F5D82846BDE87040FFF7DFBF0000B0
:102A2000A44700202DE9FC4706463948984614463D
:102A300000780D464FF0000978B37DB32888A0F5E3
:102A40007F41FF3933D0688848B36868F8F7AEFA39
:102A500080B384B32088ADF80000678801A8FDF733
:102A60001BFE040034D084F800804FF0000A84F884
:102A700016A0BDF80000A0826868206124480121EA
:102A80000C38F8F7F9FFE060288820816888A0807A
:102A9000E780B8F1030F23D026E001E004E006E070
:102AA00048F20160BDE8FC8748F20460FAE748F2AA
:102AB0000360F7E700E002E048F20260F2E72889ED
:102AC000694687B2384600F0AFF80028EAD1C5E77A
:102AD000BDF80010384600F09BF848F20760E1E7C7
:102AE0000420A0753068A061A4F80A9001A8FDF741
:102AF000E1FD46B1C6F804A0E1680648316086F8F9
:102B00000AA000893081FDF715FF0020CAE7000008
:102B1000003B0020B44A00202DE9F8430D46898A85
:102B2000384A01EB810102EB810638B12946304673
:102B3000FCF7C0F84FF40640BDE8F88331897068AF
:102B4000002400EB81072F48A97DA83848F20D68C2
:102B500007294FD2DFE801F00D2E172504414B0065
:102B60004460A969016027482749A838FEF706F89C
:102B700030B10220A875042339462A1D009424E0B0
:102B800048F20960D8E728692A4608B1032000E026
:102B900001209075042305F10C0207F1080100944F
:102BA00013E00120A8750094E88807F10C01830068
:102BB0002A690AE028782A4603280CD00620907556
:102BC000042305F10802391D00941048F9F70AFFA3
:102BD000B0B1444610E00520F1E70621A9750A4985
:102BE00040680988FEF748F8040005D108E041F67E
:102BF0001D5401E048F20E6429463046FCF75AF8AD
:102C0000204699E78C4A0020E03A00209C3B0020B7
:102C100001EB8102034901EB82014A89101AC01EAF
:102C2000488170478C4A002070B5C01C82B240F2C7
:102C3000FE30824202D948F2086070BD114B00207C
:102C40004FF4806500EB800413F8246096B903EB21
:102C500084063489768914443444A4B2AC4209D839
:102C6000088000EB800003EB800041891144418122
:102C7000002070BD401C80B20228E3D348F20660F9
:102C800070BD00008C4A0020B44200201442002095
:102C9000040000002000000001000000604300204C
:102CA000C0420020040000002000000001000000DD
:102CB00000111213140D0E0F1000000038440020F4
:102CC00058440020884400200D0003004D85020078
:102CD0000E0003004D8502000F0003004D85020029
:102CE000100003004D8502000100000000000000FC
:102CF00000000000000000000000000000000000D4
:102D000000000000000000000000000000000000C3
:102D100000000000000000000000000000000000B3
:102D200000000000000000000000000000000000A3
:102D30000000000000000000000000000000000093
:102D40000000000000000000000000000000000083
:102D50000000000000000000000000000000000073
:102D6000000000000100FFFF010000000000000063
:102D70000200000000000000010009000000000047
:102D8000070000000000000000000000000000003C
:102D9000000000000600000000000000000000002D
:102DA0000000000000000000100000000000000013
:102DB0000000000000000000000000001100000002
:102DC0000000000000000000000000000000000003
:102DD0000100000001000100D02D030001000100EE
:102DE000E42D03000000000019FF0200C9A3020047
:102DF000770A000000000000770A000000000000D1
:102E00007ADA00000000000000000000299F0200A4
:102E1000000000000000000000000000559F0200BC
:102E20002DF002000700000000000000000000007C
:102E30000000000000000000D90003005D1B03003B
:102E4000FDA6020099A40200706D5F696E697400AE
:102E500001000600F4390020706D5F706565725FD7
:102E60006E657700706D5F70656572735F64656C29
:102E7000657465000600000000000000000000000E
:102E80000000000000000000FD1B03000100000026
:102E90000000000000000000000000000000000032
:102EA000070000000000000000000000000000001B
:102EB000000000000600000000000000000000000C
:102EC00000000000000000000300000000000000FF
:102ED00000000000000000000000000005000000ED
:102EE00000000000000000000000000000000000E2
:102EF0007365635F6B65797365745F66696C6C009D
:102F000012000000000000000000000000000000AF
:102F100000000000E0000000DD040300000000509D
:102F20009DDE020009E1020003000000304900209C
:102F3000604900200100060000000000D03A002097
:102F4000F18C020000000000000000000000000002
:102F50000338FDD870470000D44900200000FFFF6F
:102F6000DEC0ADDEFF011EF1DEC0ADDEFE011EF1F2
:102F700030313233343536373839414243444546AF
:102F80006E72665F6673746F726167655F696E69A2
:102F900074006E72665F6673746F726167655F75E9
:102FA0006E696E6974006E72665F6673746F7261CB
:102FB00067655F72656164006E72665F6673746FE9
:102FC000726167655F7772697465006E72665F66CD
:102FD00073746F726167655F65726173650000008D
:102FE000C44A00200010000004000000010000009E
:102FF0006DAC020035250300350A0300DD27030010
:10300000F5950200810E0300D7270300E1AE020010
:1030100000000000000000000000000000000000B0
:103020000000000000000000103003002830030002
:1030300004000000556E6B6E6F776E206572726FC4
:103040007220636F64650000000000008846030082
:103050000100000034450300020000002843030083
:1030600003000000A845030004000000FC45030025
:1030700005000000DC440300060000007844030063
:1030800007000000E445030008000000F0440300CE
:1030900009000000544503000A00000070460300C8
:1030A0000B000000104303000C0000000845030063
:1030B0000D000000D84603000E000000D4450300B8
:1030C0000F000000104603001000000044460300FB
:1030D00011000000EC46030012000000C04603008F
:1030E000130000005C4603008000000090440300D1
:1030F00081000000CC430300820000008C430300E9
:10310000830000006C43030084000000A843030018
:1031100085000000B444030086000000BC450300A5
:103120009000000058440300910000004C4303004D
:10313000920000001C4503000082000024460300AA
:103140000182000070450300028200008C450300EC
:1031500000840000E843030001840000944603005B
:103160000284000030440300038400000C44030088
:10317000C1CE020095CE02008DCE0200FFFFFFFF00
:10318000FFFFFFFFFFFFFFFFFFFFFFFF000000004B
:10319000000000000000D60106010000804C002065
:1031A0007F000000004D0020544C03005C4C0300E5
:1031B000000000000000000001000007A83103002B
:1031C000B831030008000000E0310300F0310300D3
:1031D00008000000F0310300003203000800000086
:1031E0007C4C03008C4C0300000000000000000039
:1031F0006C4C03007C4C0300000000000000000049
:10320000E44B0300EC4B0300EC4B0300344C030095
:10321000344C03004C4C03004C4C0300544C030052
:10322000A02D00200032030020320300080000001F
:103230005C4C03006C4C0300000000000000000028
:1032400030320300403203000800000000404040DC
:103250004040404040404141414141404040404069
:103260004040404040404040404040404005020215
:1032700002020202020202020202020202202020D4
:103280002020202020202002020202020202909030
:10329000909090901010101010101010101010102E
:1032A0001010101010101010020202020202888882
:1032B000888888880808080808080808080808088E
:1032C0000808080808080808020202024000000076
:1032D0004D32030052756E6E696E672053706565DE
:1032E0006420616E6420436164656E63652073656C
:1032F000727669636520646973636F76657265646D
:10330000206F6E20636F6E6E5F68616E646C652007
:1033100030782578000000004E6F7420656E6F7560
:10332000676820737061636520666F7220636861EF
:103330007261637465726973746963732061737316
:103340006F6369617465642077697468207365725E
:1033500076696365203078253034582021000000DC
:10336000496E63726561736520424C455F47415405
:10337000545F44425F4D41585F434841525320746B
:103380006F2062652061626C6520746F2073746FBA
:103390007265206D6F726520636861726163746528
:1033A0007269737469637320666F72206561636804
:1033B000207365727669636521000000496E63724F
:1033C0006561736520424C455F44425F4449534305
:1033D0004F564552595F4D41585F53525620746FB6
:1033E0002062652061626C6520746F2073746F7257
:1033F00065206D6F726520736572766963657321F0
:1034000000000000436F756C64206E6F7420616370
:10341000717569726520636F6E6E5F737461746538
:10342000207573657220666C6167732E20496E6328
:10343000726561736520424C455F434F4E4E5F534A
:10344000544154455F555345525F464C41475F4395
:103450004F554E5420696E2074686520626C655F1C
:10346000636F6E6E5F7374617465206D6F64756CED
:10347000652E000043415220636861722076616CC2
:10348000756520636F756C646E27742062652073A8
:10349000746F72656420286572726F723A202573AA
:1034A000292E205265617474656D70742077696C83
:1034B0006C2068617070656E206F6E207468652086
:1034C0006E65787420636F6E6E656374696F6E2EBF
:1034D000000000006773636D5F6C6F63616C5F6415
:1034E000625F63616368655F6170706C7928292031
:1034F00072657475726E65642025732077686963E0
:10350000682073686F756C64206E6F7420686170DA
:1035100070656E2E20636F6E6E5F68616E646C65A1
:103520003A20256400000000546865206C6F6361D8
:103530006C206461746162617365206861732063EB
:1035400068616E6765642C20736F20736F6D6520F2
:10355000737562736372697074696F6E7320746FD0
:10356000206E6F74696669636174696F6E73206140
:103570006E6420696E6469636174696F6E73206341
:103580006F756C64206E6F74206265207265737451
:103590006F72656420666F7220636F6E6E5F686124
:1035A0006E646C65202564007064735F706565727D
:1035B0005F646174615F73746F726528292072653E
:1035C0007475726E6564202573207768696C652058
:1035D00073746F72696E67207365727669636520B4
:1035E0006368616E676564737461746520666F7289
:1035F00020706565722069642025642E000000003B
:1036000073645F626C655F67617474735F696E6930
:103610007469616C5F757365725F68616E646C6517
:103620005F67657428292072657475726E65642001
:1036300025732077686963682073686F756C6420F0
:103640006E6F742068617070656E2E00446964202E
:10365000616E6F7468657220746872656164206D54
:10366000616E6970756C61746520504D5F504545A1
:10367000525F444154415F49445F474154545F4C59
:103680004F43414C20666F7220706565725F6964BC
:10369000202564206174207468652073616D652045
:1036A00074696D653F207064625F77726974655FED
:1036B0006275665F72656C65617365282920726545
:1036C0007475726E65642025732E000073645F62EA
:1036D0006C655F67617474735F7379735F61747431
:1036E000725F73657428292072657475726E6564E3
:1036F000204E52465F4552524F525F494E56414C02
:1037000049445F4441544120666F72204E554C4CF1
:1037100020706F696E7465722077686963682073C2
:10372000686F756C64206E65766572206861707074
:10373000656E2E20636F6E6E5F68616E646C653AB5
:103740002025640073645F626C655F6761705F640D
:103750006174615F6C656E6774685F7570646174D5
:1037600065282920287265717565737429206F6E2C
:1037700020636F6E6E656374696F6E203078257894
:103780002072657475726E65642025732E000000CA
:103790005468652072657175657374656420636F24
:1037A0006D62696E6174696F6E206F662054582077
:1037B000616E64205258207061636B6574206C6583
:1037C0006E6774687320697320746F6F206C6F6EFE
:1037D00067206279202575206D6963726F73656358
:1037E0006F6E64732E0000005344204741545420F0
:1037F00070726F6365647572652028256429206680
:1038000061696C6564206F6E20636F6E6E656374B2
:10381000696F6E2068616E646C652025642077692D
:103820007468206572726F723A203078253038588B
:103830002E000000436F756C64206E6F7420696EFB
:10384000697469616C697A6520666C61736820735C
:10385000746F726167652E206664735F7265676955
:103860007374657228292072657475726E656420A0
:10387000307825782E000000436F756C64206E6FE1
:1038800074207772697465206461746120746F209C
:10389000666C6173682E206664735F7265636F7215
:1038A000645F7B77726974657C7570646174657D33
:1038B00028292072657475726E65642030782578C9
:1038C0002E20706565725F69643A202564000000EF
:1038D000436F756C64206E6F742064656C657465ED
:1038E000207065657220646174612E206664735F68
:1038F00066696C655F64656C65746528292072650E
:103900007475726E6564203078257820666F722039
:10391000706565725F69643A2025640043616E6E6C
:103920006F742073746F7265206461746120746FAA
:1039300020666C61736820626563617573652070D1
:103940006D5F6275666665725F7074725F676574DD
:10395000282920636F756C64206E6F742072657403
:1039600072696576652052414D20627566666572A2
:103970002E20497320626C6F636B5F69642025643D
:10398000206E6F7420616C6C6F63617465643F00BE
:103990007064625F77726974655F6275665F726595
:1039A0006C6561736528292072657475726E656433
:1039B0002025732077686963682073686F756C646D
:1039C000206E6F742068617070656E2E2070656562
:1039D000725F69643A2025642C20646174615F69B8
:1039E000643A202564000000506565722049442037
:1039F000256420776173206E6F742070726F70651C
:103A0000726C792072656C65617365642E207064D8
:103A1000735F706565725F69645F667265652829AA
:103A20002072657475726E65642025732E20706532
:103A300065725F69643A202564000000536F6D650C
:103A40002070656572206461746120776173206EF7
:103A50006F742070726F7065726C79207772697400
:103A600074656E20746F20666C6173682E207772A7
:103A70006974655F6275665F73746F72652829206B
:103A800072657475726E656420257320666F72208E
:103A9000706565725F69643A20256400436F756CD8
:103AA00064206E6F74207265747265697665207229
:103AB000616E6B732E207064625F706565725F6407
:103AC0006174615F6C6F616428292072657475721E
:103AD0006E65642025732E20706565725F69643A97
:103AE0002025640025732829206661696C6564209F
:103AF0006265636175736520612063616C6C20741D
:103B00006F20706D5F706565725F64656C6574656C
:103B100028292072657475726E65642025732E20C5
:103B2000706565725F69643A202564004F7574643E
:103B30006174656420283029000000004F757464AA
:103B40006174656420283229000000004F75746498
:103B5000617465642028332900000000706D5F6384
:103B60006F6E6E5F73656375726528292066616983
:103B70006C6564206265636175736520616E2053B6
:103B80004D502074696D656F757420697320707273
:103B90006576656E74696E672073656375726974A6
:103BA00079206F6E20746865206C696E6B2E2044DE
:103BB0006973636F6E6E656374696E6720636F6EA1
:103BC0006E5F68616E646C652025642E00000000E5
:103BD000706D5F636F6E6E5F7365637572652829C4
:103BE000206661696C656420626563617573652038
:103BF000636F6E6E5F68616E646C6520256420691A
:103C000073206E6F7420612076616C696420636F2D
:103C10006E6E656374696F6E2E000000706D5F6379
:103C20006F6E6E5F736563757265282920666169C2
:103C30006C656420626563617573652074686520D6
:103C400073746F726564206461746120666F7220A2
:103C5000636F6E6E5F68616E646C652025642064BE
:103C60006F6573206E6F74206861766520612076C1
:103C7000616C6964206B65792E000000426F6E6490
:103C8000696E672064617461000000004170706CAF
:103C900069636174696F6E20646174610000000083
:103CA000436F6E6E656374696F6E207365637572C2
:103CB000697479206661696C65643A20726F6C651D
:103CC0003A2025732C20636F6E6E5F68616E646CA2
:103CD000653A20307825782C2070726F63656475A2
:103CE00072653A2025732C206572726F723A202516
:103CF00064000000496E76616C696420526F6C65E7
:103D00000000000052656D6F74652064617461622B
:103D1000617365004C6F63616C2064617461626102
:103D200073650000557064617465000044656C65DE
:103D30007465000053657276696365206368616E1F
:103D40006765642070656E64696E6720666C616784
:103D500000000000426F6E64696E67005061697216
:103D6000696E6700506565722072616E6B000000BD
:103D70005065726970686572616C000043656E74AD
:103D800072616C00456E6372797074696F6E0000C9
:103D900043656E7472616C20616464726573732034
:103DA0007265736F6C7574696F6E00005065657233
:103DB000206461746120757064617465642066615B
:103DC000696C65643A20706565725F69643A2025A4
:103DD000642C20646174615F69643A2025732C202F
:103DE000616374696F6E3A2025732C206572726F5F
:103DF000723A20257300000050656572206461747A
:103E000061207570646174656420696E20666C6100
:103E100073683A20706565725F69643A2025642C86
:103E200020646174615F69643A2025732C206163AA
:103E300074696F6E3A20257325730000436F756CAB
:103E400064206E6F7420636F6D706C65746520659F
:103E50006E6372797074696F6E2070726F636564DF
:103E60007572652E2073645F626C655F6761705F59
:103E70007365635F696E666F5F7265706C79282920
:103E80002072657475726E65642025732E20636FD1
:103E90006E6E5F68616E646C653A2025642C2070DC
:103EA0006565725F69643A2025642E00436F756C06
:103EB00064206E6F7420636C65616E207570206184
:103EC00066746572206661696C656420626F6E64F9
:103ED000696E672070726F6365647572652E2070FD
:103EE00064625F77726974655F6275665F72656C44
:103EF0006561736528292072657475726E6564202A
:103F000025732E20636F6E6E5F68616E646C653A18
:103F10002025642E0000000052414D206275666627
:103F2000657220666F72206E657720626F6E642006
:103F300077617320756E617661696C61626C652E64
:103F4000207064625F77726974655F6275665F672F
:103F5000657428292072657475726E6564202573F6
:103F60002E20636F6E6E5F68616E646C653A20250B
:103F7000642E0000696D5F626C655F616464725FEE
:103F800067657428292072657475726E65642025D2
:103F9000732E20636F6E6E5F68616E646C653A208D
:103FA00025642E204C696E6B20776173206C696BE1
:103FB000656C7920646973636F6E6E6563746564A4
:103FC0002E00000073645F626C655F6761705F73F1
:103FD00065635F696E666F5F7265706C7928292012
:103FE00072657475726E6564204E52465F45524F1D
:103FF000525F494E56414C49445F53544154452CFD
:1040000020776869636820697320616E6572726FDA
:104010007220756E6C65737320746865206C696EB0
:104020006B20697320646973636F6E6E6563746976
:104030006E672E00436F756C64206E6F742073740E
:104040006F726520626F6E642E207064625F77729B
:104050006974655F6275665F73746F726528292085
:1040600072657475726E65642025732E20636F6EA1
:104070006E5F68616E646C653A2025642C20706503
:1040800065725F69643A202564000000436F756CB7
:1040900064206E6F74207265747269657665207332
:1040A000746F72656420626F6E642E207064625F4C
:1040B000706565725F646174615F7074725F67657B
:1040C0007428292072657475726E65642025732EBC
:1040D00020706565725F69643A2025640000000005
:1040E000436F756C64206E6F7420726574726965BD
:1040F00076652052414D2062756666657220666F56
:104100007220696E636F6D696E6720626F6E642ED8
:10411000207064625F77726974655F6275665F675D
:10412000657428292072657475726E656420257324
:104130002E20636F6E6E5F68616E646C653A202539
:104140006400000043616E6E6F7420736563757266
:1041500065206C696E6B20626563617573652061B3
:104160002070726576696F75732073656375726907
:1041700074792070726F63656475726520656E6412
:10418000656420696E2074696D656F75742E2044B6
:104190006973636F6E6E65637420616E642072650F
:1041A0007472792E20736D645F706172616D735FDC
:1041B0007265706C792829206F7220736D645F6C52
:1041C000696E6B5F7365637572652829207265740B
:1041D00075726E6564204E52465F4552524F525F73
:1041E00054494D454F55542E20636F6E6E5F686184
:1041F0006E646C653A20256400000000436F756CA6
:1042000064206E6F7420706572666F726D207365C6
:104210006375726974792070726F63656475726515
:104220002E20736D645F6C696E6B5F73656375726E
:104230006528292072657475726E65642025732E59
:1042400020636F6E6E5F68616E646C653A202564F2
:1042500000000000436F756C64206E6F7420706501
:1042600072666F726D207365637572697479207000
:10427000726F6365647572652E20736D645F706123
:1042800072616D735F7265706C792829206F72207E
:10429000736D645F6C696E6B5F73656375726528BF
:1042A000292072657475726E65642025732E2063F3
:1042B0006F6E6E5F68616E646C653A202564000005
:1042C000616464725F69735F77697468696E5F6265
:1042D0006F756E647328705F66732C2070616765FC
:1042E0005F616464722C20286C656E202A20705FE8
:1042F00066732D3E705F666C6173685F696E666F92
:104300002D3E65726173655F756E697429290000C1
:104310004E52465F4552524F525F494E56414C49AC
:10432000445F4441544100004E52465F4552524F53
:10433000525F534F46544445564943455F4E4F5490
:104340005F454E41424C4544000000004E52465FDE
:104350004552524F525F464541545552455F4E4F6C
:10436000545F454E41424C45440000004E52465F6A
:104370004552524F525F4D555445585F554E4C4F24
:10438000434B5F4641494C45440000004E52465F56
:104390004552524F525F4D555445585F4C4F434B19
:1043A0005F4641494C4544004E52465F4552524F8C
:1043B000525F4D555445585F434F4E445F494E49F7
:1043C000545F4641494C4544000000004E52465F50
:1043D0004552524F525F4D555445585F494E4954CE
:1043E0005F4641494C4544004E52465F4552524F4C
:1043F000525F424C455F495053505F52585F504B9B
:10440000545F5452554E4341544544004E52465F0A
:104410004552524F525F424C455F495053505F5096
:104420004545525F52454A4543544544000000000B
:104430004E52465F4552524F525F424C455F495083
:1044400053505F4C494E4B5F444953434F4E4E458A
:1044500043544544000000004E52465F4552524FBF
:10446000525F4150495F4E4F545F494D504C454D4E
:10447000454E5445440000004E52465F4552524F4F
:10448000525F4E4F545F535550504F525445440065
:104490004E52465F4552524F525F4D4F44554C4528
:1044A0005F4E4F545F494E495449414C495A454427
:1044B000000000004E52465F4552524F525F4D4F32
:1044C00044554C455F414C52454144595F494E4922
:1044D0005449414C495A4544000000004E52465F41
:1044E0004552524F525F4E4F545F464F554E440017
:1044F0004E52465F4552524F525F494E56414C49CB
:10450000445F5354415445004E52465F4552524F0A
:10451000525F444154415F53495A45004E52465FF1
:104520004552524F525F494F5F50454E44494E47A6
:10453000000000004E52465F4552524F525F5356A4
:10454000435F48414E444C45525F4D495353494E99
:10455000470000004E52465F4552524F525F494E4F
:1045600056414C49445F4C454E47544800000000BA
:104570004E52465F4552524F525F4452565F545717
:10458000495F4552525F414E41434B004E52465F98
:104590004552524F525F4452565F5457495F4552FD
:1045A000525F444E41434B004E52465F4552524F7C
:1045B000525F494E5445524E414C00004E52465FA8
:1045C0004552524F525F53544F524147455F4655F3
:1045D0004C4C00004E52465F4552524F525F4E5572
:1045E0004C4C00004E52465F4552524F525F494E6E
:1045F00056414C49445F504152414D004E52465F36
:104600004552524F525F4E4F5F4D454D00000000E6
:104610004E52465F4552524F525F464F52424944B6
:1046200044454E004E52465F4552524F525F4452EF
:10463000565F5457495F4552525F4F564552525547
:104640004E0000004E52465F4552524F525F494E57
:1046500056414C49445F4144445200004E52465F2B
:104660004552524F525F5245534F555243455300A6
:104670004E52465F4552524F525F494E56414C4949
:10468000445F464C414753004E52465F53554343A7
:10469000455353004E52465F4552524F525F424C73
:1046A000455F495053505F4348414E4E454C5F4132
:1046B0004C52454144595F455849535453000000FA
:1046C0004E52465F4552524F525F434F4E4E5F43EC
:1046D0004F554E54000000004E52465F4552524F17
:1046E000525F54494D454F55540000004E52465FAD
:1046F0004552524F525F4255535900007761726ED6
:10470000696E670064656275670000001B5B313B82
:1047100033306D001B5B306D000000001B5B313BD4
:1047200033316D001B5B313B33326D001B5B313B22
:1047300033336D001B5B313B33346D001B5B313B0E
:1047400033356D001B5B313B33366D001B5B313BFA
:1047500033376D00696E666F000000006572726F1E
:104760007200000073645F626C655F6366675F730D
:10477000657428292072657475726E6564202573CE
:10478000207768656E20617474656D7074696E67FA
:1047900020746F2073657420424C455F4741545428
:1047A000535F4346475F534552564943455F43482D
:1047B000414E4745442E000073645F626C655F6341
:1047C00066675F73657428292072657475726E65FB
:1047D00064202573207768656E20617474656D7040
:1047E00074696E6720746F2073657420424C455F56
:1047F000434F4D4D4F4E5F4346475F56535F5555B0
:1048000049442E0073645F626C655F6366675F7323
:10481000657428292072657475726E65642025732D
:10482000207768656E20617474656D7074696E6759
:1048300020746F2073657420424C455F4741545487
:10484000535F4346475F415454525F5441425F5364
:10485000495A452E0000000073645F626C655F6317
:1048600066675F73657428292072657475726E655A
:1048700064202573207768656E20617474656D709F
:1048800074696E6720746F2073657420424C455FB5
:10489000434F4E4E5F4346475F4741502E00000056
:1048A00073645F626C655F6366675F736574282914
:1048B0002072657475726E65642025732077686553
:1048C0006E20617474656D7074696E6720746F20FA
:1048D00073657420424C455F4741505F4346475FD4
:1048E000524F4C455F434F554E542E00626C655FEE
:1048F00064625F6469736300706565725F6D616EA9
:10490000616765725F67636D0000000070656572C6
:104910005F6D616E616765725F6773636D00000054
:10492000706565725F6D616E616765725F696D006C
:104930006E72665F626C655F676174740000000090
:104940006E72665F626C655F67710000626C655FC6
:104950007363616E00000000706565725F6D616E6B
:10496000616765725F706473000000007065657256
:104970005F6D616E616765725F7064620000000068
:10498000706565725F6D616E616765720000000041
:10499000706565725F6D616E616765725F68616E9B
:1049A000646C657200000000706565725F6D616E19
:1049B000616765725F736D64000000007065657209
:1049C0005F6D616E616765725F736D00626C655FDC
:1049D0006872735F63000000626C655F727363737B
:1049E0005F630000636C6F636B000000434C4F43D8
:1049F0004B0000004750494F5445000050525300AF
:104A000055415254000000005541525445000000E9
:104A10006170705F627574746F6E00006170705FBA
:104A200074696D65720000006E72665F6673746F04
:104A300072616765000000007077725F6D676D746A
:104A400000000000736F72746C69737400000000E2
:104A5000756172745F6C6F675F6261636B656E64D2
:104A600000000000617070006E72665F7364680021
:104A70006E72665F7364685F626C65006E72665F1B
:104A80007364685F736F63008C4C0300A02D00207B
:104A9000100E000058650200604D0300B03B00207E
:104AA00088350000B4690200703103000000000086
:104AB000504A0300383B0020EC4803000000030389
:104AC000F8480300000003030C490300000003033F
:104AD00020490300000003033049030000000303E2
:104AE00040490300000003034C4903000000030396
:104AF00058490300000003036C490300000003034E
:104B000080490300000003039049030000000303F1
:104B1000A849030000000303BC490300000003038D
:104B2000CC49030000000303D8490300000003033D
:104B3000E449030000000000EC490300000000000D
:104B4000F449030000000000FC49030000000000DD
:104B5000004A030000000000084A030000000000B3
:104B6000104A0300000000001C4A0300000000007F
:104B7000284A030000000303384A03000000000035
:104B8000444A030000000000644A030000000303DD
:104B9000684A030000000303704A03000000030397
:104BA0007C4A03000000030380390020783900208C
:104BB0008039002078430020180000004C3B002082
:104BC000443B00204C3B0020C04B0020180000005C
:104BD0006C43002072390020020000000200000037
:104BE00001000000ED7C02000000000031BE020068
:104BF000B02D0020B1BB0200443C002055750200DE
:104C00008C3C0020417A0200C42D0020417A020031
:104C100094330020DDC20200C0400020817B0200EE
:104C200000000000F17B020000000000057E020091
:104C300000000000CBBE0200683C0020CBBE02009A
:104C4000743C0020CBBE0200803C0020257B02008B
:104C50000000000009C9020000000000D11E03008E
:104C60000000000041C9020000000000C9D8020095
:104C70000000000039DA02000000000049120300C1
:104C80000000000021C90200000000005AFF0114CA
:104C90000D18011A1404320213A02D1520882C03BC
:104CA00014D04B031AA80401FF01FF01CC03FFFF3E
:104CB000FF01FF01FF01FF01FF01D303FFFFFF0120
:104CC000FF01FF71140501A0025750D4E5F802DA84
:104CD000E9100119620114243D031A2C0414F43C58
:104CE000031A70081A7C041A84041A54042A5C1CDF
:104CF000133B031A34081A3C081A4C041A8C281A5D
:104D000004102A642C190C1A14081A9004DAFF01F2
:104D10001A1801517909014F1510014011026A0456
:104D20001220BA4008315AFF04011C145C470314D6
:104D3000FC46031A54081A04041A14041A0C041A20
:104D40001C041A24041A2C041A34041A3C041A44AD
:104D5000041A4C04515B90D0092194A99E020000D2
:040000050002620192
:00000001FF
