Component: ARM Compiler 5.06 update 6 (build 750) Tool: armlink [4d35ed]

==============================================================================

Section Cross References

    main.o(i.advertising_init) refers to memseta.o(.text) for __aeabi_memclr4
    main.o(i.advertising_init) refers to ble_advertising.o(i.ble_advertising_init) for ble_advertising_init
    main.o(i.advertising_init) refers to app_error.o(i.app_error_handler_bare) for app_error_handler_bare
    main.o(i.advertising_init) refers to ble_advertising.o(i.ble_advertising_conn_cfg_tag_set) for ble_advertising_conn_cfg_tag_set
    main.o(i.advertising_init) refers to main.o(.data) for m_adv_uuids
    main.o(i.advertising_init) refers to main.o(i.on_adv_evt) for on_adv_evt
    main.o(i.advertising_init) refers to main.o(.bss) for m_advertising
    main.o(i.advertising_start) refers to ble_advertising.o(i.ble_advertising_start) for ble_advertising_start
    main.o(i.advertising_start) refers to app_error.o(i.app_error_handler_bare) for app_error_handler_bare
    main.o(i.advertising_start) refers to main.o(.bss) for m_advertising
    main.o(i.assert_nrf_callback) refers to app_error_handler_keil.o(.emb_text) for app_error_handler
    main.o(i.ble_evt_handler) refers to nrf_log_frontend.o(i.nrf_log_frontend_std_0) for nrf_log_frontend_std_0
    main.o(i.ble_evt_handler) refers to bsp.o(i.bsp_indication_set) for bsp_indication_set
    main.o(i.ble_evt_handler) refers to app_error.o(i.app_error_handler_bare) for app_error_handler_bare
    main.o(i.ble_evt_handler) refers to nrf_ble_qwr.o(i.nrf_ble_qwr_conn_handle_assign) for nrf_ble_qwr_conn_handle_assign
    main.o(i.ble_evt_handler) refers to nrf_log_frontend.o(log_const_data) for m_nrf_log_app_logs_data_const
    main.o(i.ble_evt_handler) refers to main.o(.data) for m_conn_handle
    main.o(i.ble_evt_handler) refers to main.o(.bss) for m_qwr
==============================================================================

Removing Unused input sections from the image.

    Removing main.o(.rev16_text), (4 bytes).
    Removing main.o(.revsh_text), (4 bytes).
    Removing main.o(.rrx_text), (6 bytes).
    Removing main.o(i.assert_nrf_callback), (24 bytes).
    Removing boards.o(.rev16_text), (4 bytes).
    Removing boards.o(.revsh_text), (4 bytes).
    Removing boards.o(.rrx_text), (6 bytes).
    Removing boards.o(i.bsp_board_buttons_init), (76 bytes).
    Removing boards.o(i.bsp_board_init), (16 bytes).
    Removing bsp.o(.rev16_text), (4 bytes).
    Removing bsp.o(.revsh_text), (4 bytes).
    Removing bsp.o(.rrx_text), (6 bytes).
    Removing bsp.o(i.bsp_buttons_disable), (8 bytes).
    Removing bsp.o(i.bsp_buttons_enable), (8 bytes).
    Removing bsp.o(i.bsp_wakeup_button_disable), (14 bytes).
    Removing bsp_btn_ble.o(.rev16_text), (4 bytes).
    Removing bsp_btn_ble.o(.revsh_text), (4 bytes).
    Removing bsp_btn_ble.o(.rrx_text), (6 bytes).
==============================================================================

Image Symbol Table

    Local Symbols

    Symbol Name                              Value     Ov Type        Size  Object(Section)

    ../clib/../cmprslib/zerorunl2.c          0x00000000   Number         0  __dczerorl2.o ABSOLUTE
    ../clib/microlib/ctype/ctype.c           0x00000000   Number         0  isprint_o.o ABSOLUTE
    ../clib/microlib/ctype/ctype.c           0x00000000   Number         0  isxdigit_o.o ABSOLUTE
    ../clib/microlib/ctype/ctype.c           0x00000000   Number         0  isupper_o.o ABSOLUTE
    ../clib/microlib/ctype/ctype.c           0x00000000   Number         0  islower_o.o ABSOLUTE
    ../clib/microlib/ctype/ctype.c           0x00000000   Number         0  isgraph_o.o ABSOLUTE
    ../clib/microlib/ctype/ctype.c           0x00000000   Number         0  isblank_o.o ABSOLUTE
    ../clib/microlib/ctype/ctype.c           0x00000000   Number         0  isdigit_o.o ABSOLUTE
    ../clib/microlib/ctype/ctype.c           0x00000000   Number         0  iscntrl_o.o ABSOLUTE
    ../clib/microlib/ctype/ctype.c           0x00000000   Number         0  ctype_o.o ABSOLUTE
    ../clib/microlib/ctype/ctype.c           0x00000000   Number         0  isalnum_o.o ABSOLUTE
    ../clib/microlib/ctype/ctype.c           0x00000000   Number         0  isalpha_o.o ABSOLUTE
    ../clib/microlib/ctype/ctype.c           0x00000000   Number         0  isspace_o.o ABSOLUTE
    ../clib/microlib/ctype/ctype.c           0x00000000   Number         0  ispunct_o.o ABSOLUTE
    ../clib/microlib/division.c              0x00000000   Number         0  uidiv.o ABSOLUTE
    ../clib/microlib/division.c              0x00000000   Number         0  uldiv.o ABSOLUTE
    ../clib/microlib/init/entry.s            0x00000000   Number         0  entry8a.o ABSOLUTE
    ../clib/microlib/init/entry.s            0x00000000   Number         0  entry9a.o ABSOLUTE
    ../clib/microlib/init/entry.s            0x00000000   Number         0  entry9b.o ABSOLUTE
    ../clib/microlib/init/entry.s            0x00000000   Number         0  entry11b.o ABSOLUTE
    ../clib/microlib/init/entry.s            0x00000000   Number         0  entry10b.o ABSOLUTE
    ../clib/microlib/init/entry.s            0x00000000   Number         0  entry2.o ABSOLUTE
    ../clib/microlib/init/entry.s            0x00000000   Number         0  entry11a.o ABSOLUTE
    ../clib/microlib/init/entry.s            0x00000000   Number         0  entry5.o ABSOLUTE
    ../clib/microlib/init/entry.s            0x00000000   Number         0  entry7a.o ABSOLUTE
    ../clib/microlib/init/entry.s            0x00000000   Number         0  entry7b.o ABSOLUTE
    ../clib/microlib/init/entry.s            0x00000000   Number         0  entry10a.o ABSOLUTE
    ../clib/microlib/init/entry.s            0x00000000   Number         0  entry.o ABSOLUTE
    ../clib/microlib/init/entry.s            0x00000000   Number         0  entry8b.o ABSOLUTE
    ../clib/microlib/longlong.c              0x00000000   Number         0  llsshr.o ABSOLUTE
    ../clib/microlib/longlong.c              0x00000000   Number         0  llushr.o ABSOLUTE
    ../clib/microlib/longlong.c              0x00000000   Number         0  llshl.o ABSOLUTE
    ../clib/microlib/printf/printf.c         0x00000000   Number         0  printfa.o ABSOLUTE
    ../clib/microlib/printf/printf.c         0x00000000   Number         0  printf8.o ABSOLUTE
    ../clib/microlib/printf/printf.c         0x00000000   Number         0  printf6.o ABSOLUTE
    ../clib/microlib/printf/printf.c         0x00000000   Number         0  printf5.o ABSOLUTE
    ../clib/microlib/printf/printf.c         0x00000000   Number         0  printf2.o ABSOLUTE
    ../clib/microlib/printf/printf.c         0x00000000   Number         0  printf0.o ABSOLUTE
    ../clib/microlib/printf/printf.c         0x00000000   Number         0  printf7.o ABSOLUTE
    ../clib/microlib/printf/printf.c         0x00000000   Number         0  printf3.o ABSOLUTE
    ../clib/microlib/printf/printf.c         0x00000000   Number         0  printf4.o ABSOLUTE
    ../clib/microlib/printf/printf.c         0x00000000   Number         0  printf1.o ABSOLUTE
    ../clib/microlib/printf/printf.c         0x00000000   Number         0  printfb.o ABSOLUTE
    ../clib/microlib/string/memcmp.c         0x00000000   Number         0  memcmp.o ABSOLUTE
    ../clib/microlib/string/memcpy.c         0x00000000   Number         0  memcpyb.o ABSOLUTE
    ../clib/microlib/string/memcpy.c         0x00000000   Number         0  memcpya.o ABSOLUTE
    ../clib/microlib/string/memset.c         0x00000000   Number         0  memseta.o ABSOLUTE
    ../clib/microlib/string/strcpy.c         0x00000000   Number         0  strcpy.o ABSOLUTE
    ../clib/microlib/string/strlen.c         0x00000000   Number         0  strlen.o ABSOLUTE
    ../clib/microlib/stubs.s                 0x00000000   Number         0  iusefp.o ABSOLUTE
    ../fplib/microlib/fpadd.c                0x00000000   Number         0  dadd.o ABSOLUTE
    ../fplib/microlib/fpdiv.c                0x00000000   Number         0  ddiv.o ABSOLUTE
    ../fplib/microlib/fpepilogue.c           0x00000000   Number         0  depilogue.o ABSOLUTE
    ../fplib/microlib/fpfix.c                0x00000000   Number         0  dfixul.o ABSOLUTE
    ../fplib/microlib/fpmul.c                0x00000000   Number         0  dmul.o ABSOLUTE
    ..\..\..\..\..\..\components\ble\ble_advertising\ble_advertising.c 0x00000000   Number         0  ble_advertising.o ABSOLUTE
    ..\..\..\..\..\..\components\ble\ble_link_ctx_manager\ble_link_ctx_manager.c 0x00000000   Number         0  ble_link_ctx_manager.o ABSOLUTE
    ..\..\..\..\..\..\components\ble\ble_services\ble_nus\ble_nus.c 0x00000000   Number         0  ble_nus.o ABSOLUTE
    ..\..\..\..\..\..\components\ble\common\ble_advdata.c 0x00000000   Number         0  ble_advdata.o ABSOLUTE
    ..\..\..\..\..\..\components\ble\common\ble_conn_params.c 0x00000000   Number         0  ble_conn_params.o ABSOLUTE
    ..\..\..\..\..\..\components\ble\common\ble_conn_state.c 0x00000000   Number         0  ble_conn_state.o ABSOLUTE
    ..\..\..\..\..\..\components\ble\common\ble_srv_common.c 0x00000000   Number         0  ble_srv_common.o ABSOLUTE
    ..\..\..\..\..\..\components\ble\nrf_ble_gatt\nrf_ble_gatt.c 0x00000000   Number         0  nrf_ble_gatt.o ABSOLUTE
    ..\..\..\..\..\..\components\ble\nrf_ble_qwr\nrf_ble_qwr.c 0x00000000   Number         0  nrf_ble_qwr.o ABSOLUTE
    ..\..\..\..\..\..\components\boards\boards.c 0x00000000   Number         0  boards.o ABSOLUTE
    ..\..\..\..\..\..\components\libraries\atomic\nrf_atomic.c 0x00000000   Number         0  nrf_atomic.o ABSOLUTE
    ..\..\..\..\..\..\components\libraries\atomic_fifo\nrf_atfifo.c 0x00000000   Number         0  nrf_atfifo.o ABSOLUTE
    ..\..\..\..\..\..\components\libraries\atomic_flags\nrf_atflags.c 0x00000000   Number         0  nrf_atflags.o ABSOLUTE
    ..\..\..\..\..\..\components\libraries\balloc\nrf_balloc.c 0x00000000   Number         0  nrf_balloc.o ABSOLUTE
    ..\..\..\..\..\..\components\libraries\bsp\bsp.c 0x00000000   Number         0  bsp.o ABSOLUTE
    ..\..\..\..\..\..\components\libraries\bsp\bsp_btn_ble.c 0x00000000   Number         0  bsp_btn_ble.o ABSOLUTE
    ..\..\..\..\..\..\components\libraries\button\app_button.c 0x00000000   Number         0  app_button.o ABSOLUTE
    ..\..\..\..\..\..\components\libraries\experimental_section_vars\nrf_section_iter.c 0x00000000   Number         0  nrf_section_iter.o ABSOLUTE
    ..\..\..\..\..\..\components\libraries\fifo\app_fifo.c 0x00000000   Number         0  app_fifo.o ABSOLUTE
    ..\..\..\..\..\..\components\libraries\hardfault\hardfault_implementation.c 0x00000000   Number         0  hardfault_implementation.o ABSOLUTE
    ..\..\..\..\..\..\components\libraries\log\src\nrf_log_backend_rtt.c 0x00000000   Number         0  nrf_log_backend_rtt.o ABSOLUTE
    ..\..\..\..\..\..\components\libraries\log\src\nrf_log_backend_serial.c 0x00000000   Number         0  nrf_log_backend_serial.o ABSOLUTE
    ..\..\..\..\..\..\components\libraries\log\src\nrf_log_backend_uart.c 0x00000000   Number         0  nrf_log_backend_uart.o ABSOLUTE
    ..\..\..\..\..\..\components\libraries\log\src\nrf_log_default_backends.c 0x00000000   Number         0  nrf_log_default_backends.o ABSOLUTE
    ..\..\..\..\..\..\components\libraries\log\src\nrf_log_frontend.c 0x00000000   Number         0  nrf_log_frontend.o ABSOLUTE
    ..\..\..\..\..\..\components\libraries\log\src\nrf_log_str_formatter.c 0x00000000   Number         0  nrf_log_str_formatter.o ABSOLUTE
    ..\..\..\..\..\..\components\libraries\memobj\nrf_memobj.c 0x00000000   Number         0  nrf_memobj.o ABSOLUTE
    ..\..\..\..\..\..\components\libraries\pwr_mgmt\nrf_pwr_mgmt.c 0x00000000   Number         0  nrf_pwr_mgmt.o ABSOLUTE
    ..\..\..\..\..\..\components\libraries\ringbuf\nrf_ringbuf.c 0x00000000   Number         0  nrf_ringbuf.o ABSOLUTE
    ..\..\..\..\..\..\components\libraries\scheduler\app_scheduler.c 0x00000000   Number         0  app_scheduler.o ABSOLUTE
    ..\..\..\..\..\..\components\libraries\sortlist\nrf_sortlist.c 0x00000000   Number         0  nrf_sortlist.o ABSOLUTE
    ..\..\..\..\..\..\components\libraries\strerror\nrf_strerror.c 0x00000000   Number         0  nrf_strerror.o ABSOLUTE
    ..\..\..\..\..\..\components\libraries\timer\app_timer2.c 0x00000000   Number         0  app_timer2.o ABSOLUTE
    ..\..\..\..\..\..\components\libraries\timer\drv_rtc.c 0x00000000   Number         0  drv_rtc.o ABSOLUTE
    ..\..\..\..\..\..\components\libraries\uart\app_uart_fifo.c 0x00000000   Number         0  app_uart_fifo.o ABSOLUTE
    ..\..\..\..\..\..\components\libraries\uart\retarget.c 0x00000000   Number         0  retarget.o ABSOLUTE
    ..\..\..\..\..\..\components\libraries\util\app_error.c 0x00000000   Number         0  app_error.o ABSOLUTE
    ..\..\..\..\..\..\components\libraries\util\app_error_handler_keil.c 0x00000000   Number         0  app_error_handler_keil.o ABSOLUTE
    ..\..\..\..\..\..\components\libraries\util\app_error_weak.c 0x00000000   Number         0  app_error_weak.o ABSOLUTE
    ..\..\..\..\..\..\components\libraries\util\app_util_platform.c 0x00000000   Number         0  app_util_platform.o ABSOLUTE
    ..\..\..\..\..\..\components\libraries\util\nrf_assert.c 0x00000000   Number         0  nrf_assert.o ABSOLUTE
    ..\..\..\..\..\..\components\softdevice\common\nrf_sdh.c 0x00000000   Number         0  nrf_sdh.o ABSOLUTE
    ..\..\..\..\..\..\components\softdevice\common\nrf_sdh_ble.c 0x00000000   Number         0  nrf_sdh_ble.o ABSOLUTE
    ..\..\..\..\..\..\components\softdevice\common\nrf_sdh_soc.c 0x00000000   Number         0  nrf_sdh_soc.o ABSOLUTE
    ..\..\..\..\..\..\external\fprintf\nrf_fprintf.c 0x00000000   Number         0  nrf_fprintf.o ABSOLUTE
    ..\..\..\..\..\..\external\fprintf\nrf_fprintf_format.c 0x00000000   Number         0  nrf_fprintf_format.o ABSOLUTE
    ..\..\..\..\..\..\external\segger_rtt\SEGGER_RTT.c 0x00000000   Number         0  segger_rtt.o ABSOLUTE
    ..\..\..\..\..\..\external\segger_rtt\SEGGER_RTT_Syscalls_KEIL.c 0x00000000   Number         0  segger_rtt_syscalls_keil.o ABSOLUTE
    ..\..\..\..\..\..\external\segger_rtt\SEGGER_RTT_printf.c 0x00000000   Number         0  segger_rtt_printf.o ABSOLUTE
    ..\..\..\..\..\..\external\utf_converter\utf.c 0x00000000   Number         0  utf.o ABSOLUTE
    ..\..\..\..\..\..\integration\nrfx\legacy\nrf_drv_clock.c 0x00000000   Number         0  nrf_drv_clock.o ABSOLUTE
    ..\..\..\..\..\..\integration\nrfx\legacy\nrf_drv_uart.c 0x00000000   Number         0  nrf_drv_uart.o ABSOLUTE
    ..\..\..\..\..\..\modules\nrfx\drivers\src\nrfx_clock.c 0x00000000   Number         0  nrfx_clock.o ABSOLUTE
    ..\..\..\..\..\..\modules\nrfx\drivers\src\nrfx_gpiote.c 0x00000000   Number         0  nrfx_gpiote.o ABSOLUTE
    ..\..\..\..\..\..\modules\nrfx\drivers\src\nrfx_uart.c 0x00000000   Number         0  nrfx_uart.o ABSOLUTE
    ..\..\..\..\..\..\modules\nrfx\drivers\src\nrfx_uarte.c 0x00000000   Number         0  nrfx_uarte.o ABSOLUTE
    ..\..\..\..\..\..\modules\nrfx\drivers\src\prs\nrfx_prs.c 0x00000000   Number         0  nrfx_prs.o ABSOLUTE
    ..\..\..\..\..\..\modules\nrfx\soc\nrfx_atomic.c 0x00000000   Number         0  nrfx_atomic.o ABSOLUTE
    ..\..\..\main.c                          0x00000000   Number         0  main.o ABSOLUTE
    ..\\..\\..\\..\\..\\..\\components\\ble\\ble_advertising\\ble_advertising.c 0x00000000   Number         0  ble_advertising.o ABSOLUTE
    ..\\..\\..\\..\\..\\..\\components\\ble\\ble_link_ctx_manager\\ble_link_ctx_manager.c 0x00000000   Number         0  ble_link_ctx_manager.o ABSOLUTE
    ..\\..\\..\\..\\..\\..\\components\\ble\\ble_services\\ble_nus\\ble_nus.c 0x00000000   Number         0  ble_nus.o ABSOLUTE
    ..\\..\\..\\..\\..\\..\\components\\ble\\common\\ble_advdata.c 0x00000000   Number         0  ble_advdata.o ABSOLUTE
    ..\\..\\..\\..\\..\\..\\components\\ble\\common\\ble_conn_params.c 0x00000000   Number         0  ble_conn_params.o ABSOLUTE
    ..\\..\\..\\..\\..\\..\\components\\ble\\common\\ble_conn_state.c 0x00000000   Number         0  ble_conn_state.o ABSOLUTE
    ..\\..\\..\\..\\..\\..\\components\\ble\\common\\ble_srv_common.c 0x00000000   Number         0  ble_srv_common.o ABSOLUTE
    ..\\..\\..\\..\\..\\..\\components\\ble\\nrf_ble_gatt\\nrf_ble_gatt.c 0x00000000   Number         0  nrf_ble_gatt.o ABSOLUTE
    ..\\..\\..\\..\\..\\..\\components\\ble\\nrf_ble_qwr\\nrf_ble_qwr.c 0x00000000   Number         0  nrf_ble_qwr.o ABSOLUTE
    ..\\..\\..\\..\\..\\..\\components\\boards\\boards.c 0x00000000   Number         0  boards.o ABSOLUTE
    ..\\..\\..\\..\\..\\..\\components\\libraries\\atomic\\nrf_atomic.c 0x00000000   Number         0  nrf_atomic.o ABSOLUTE
    ..\\..\\..\\..\\..\\..\\components\\libraries\\atomic_fifo\\nrf_atfifo.c 0x00000000   Number         0  nrf_atfifo.o ABSOLUTE
    ..\\..\\..\\..\\..\\..\\components\\libraries\\atomic_flags\\nrf_atflags.c 0x00000000   Number         0  nrf_atflags.o ABSOLUTE
    ..\\..\\..\\..\\..\\..\\components\\libraries\\balloc\\nrf_balloc.c 0x00000000   Number         0  nrf_balloc.o ABSOLUTE
    ..\\..\\..\\..\\..\\..\\components\\libraries\\bsp\\bsp.c 0x00000000   Number         0  bsp.o ABSOLUTE
    ..\\..\\..\\..\\..\\..\\components\\libraries\\bsp\\bsp_btn_ble.c 0x00000000   Number         0  bsp_btn_ble.o ABSOLUTE
    ..\\..\\..\\..\\..\\..\\components\\libraries\\button\\app_button.c 0x00000000   Number         0  app_button.o ABSOLUTE
    ..\\..\\..\\..\\..\\..\\components\\libraries\\experimental_section_vars\\nrf_section_iter.c 0x00000000   Number         0  nrf_section_iter.o ABSOLUTE
    ..\\..\\..\\..\\..\\..\\components\\libraries\\fifo\\app_fifo.c 0x00000000   Number         0  app_fifo.o ABSOLUTE
    ..\\..\\..\\..\\..\\..\\components\\libraries\\hardfault\\hardfault_implementation.c 0x00000000   Number         0  hardfault_implementation.o ABSOLUTE
    ..\\..\\..\\..\\..\\..\\components\\libraries\\log\\src\\nrf_log_backend_rtt.c 0x00000000   Number         0  nrf_log_backend_rtt.o ABSOLUTE
    ..\\..\\..\\..\\..\\..\\components\\libraries\\log\\src\\nrf_log_backend_serial.c 0x00000000   Number         0  nrf_log_backend_serial.o ABSOLUTE
    ..\\..\\..\\..\\..\\..\\components\\libraries\\log\\src\\nrf_log_backend_uart.c 0x00000000   Number         0  nrf_log_backend_uart.o ABSOLUTE
    ..\\..\\..\\..\\..\\..\\components\\libraries\\log\\src\\nrf_log_default_backends.c 0x00000000   Number         0  nrf_log_default_backends.o ABSOLUTE
    ..\\..\\..\\..\\..\\..\\components\\libraries\\log\\src\\nrf_log_frontend.c 0x00000000   Number         0  nrf_log_frontend.o ABSOLUTE
    ..\\..\\..\\..\\..\\..\\components\\libraries\\log\\src\\nrf_log_str_formatter.c 0x00000000   Number         0  nrf_log_str_formatter.o ABSOLUTE
    ..\\..\\..\\..\\..\\..\\components\\libraries\\memobj\\nrf_memobj.c 0x00000000   Number         0  nrf_memobj.o ABSOLUTE
    ..\\..\\..\\..\\..\\..\\components\\libraries\\pwr_mgmt\\nrf_pwr_mgmt.c 0x00000000   Number         0  nrf_pwr_mgmt.o ABSOLUTE
    ..\\..\\..\\..\\..\\..\\components\\libraries\\ringbuf\\nrf_ringbuf.c 0x00000000   Number         0  nrf_ringbuf.o ABSOLUTE
    ..\\..\\..\\..\\..\\..\\components\\libraries\\scheduler\\app_scheduler.c 0x00000000   Number         0  app_scheduler.o ABSOLUTE
    ..\\..\\..\\..\\..\\..\\components\\libraries\\sortlist\\nrf_sortlist.c 0x00000000   Number         0  nrf_sortlist.o ABSOLUTE
    ..\\..\\..\\..\\..\\..\\components\\libraries\\strerror\\nrf_strerror.c 0x00000000   Number         0  nrf_strerror.o ABSOLUTE
    ..\\..\\..\\..\\..\\..\\components\\libraries\\timer\\app_timer2.c 0x00000000   Number         0  app_timer2.o ABSOLUTE
    ..\\..\\..\\..\\..\\..\\components\\libraries\\timer\\drv_rtc.c 0x00000000   Number         0  drv_rtc.o ABSOLUTE
    ..\\..\\..\\..\\..\\..\\components\\libraries\\uart\\app_uart_fifo.c 0x00000000   Number         0  app_uart_fifo.o ABSOLUTE
    ..\\..\\..\\..\\..\\..\\components\\libraries\\uart\\retarget.c 0x00000000   Number         0  retarget.o ABSOLUTE
    ..\\..\\..\\..\\..\\..\\components\\libraries\\util\\app_error.c 0x00000000   Number         0  app_error.o ABSOLUTE
    ..\\..\\..\\..\\..\\..\\components\\libraries\\util\\app_error_handler_keil.c 0x00000000   Number         0  app_error_handler_keil.o ABSOLUTE
    ..\\..\\..\\..\\..\\..\\components\\libraries\\util\\app_error_weak.c 0x00000000   Number         0  app_error_weak.o ABSOLUTE
    ..\\..\\..\\..\\..\\..\\components\\libraries\\util\\app_util_platform.c 0x00000000   Number         0  app_util_platform.o ABSOLUTE
    ..\\..\\..\\..\\..\\..\\components\\libraries\\util\\nrf_assert.c 0x00000000   Number         0  nrf_assert.o ABSOLUTE
    ..\\..\\..\\..\\..\\..\\components\\softdevice\\common\\nrf_sdh.c 0x00000000   Number         0  nrf_sdh.o ABSOLUTE
    ..\\..\\..\\..\\..\\..\\components\\softdevice\\common\\nrf_sdh_ble.c 0x00000000   Number         0  nrf_sdh_ble.o ABSOLUTE
    ..\\..\\..\\..\\..\\..\\components\\softdevice\\common\\nrf_sdh_soc.c 0x00000000   Number         0  nrf_sdh_soc.o ABSOLUTE
    ..\\..\\..\\..\\..\\..\\external\\fprintf\\nrf_fprintf.c 0x00000000   Number         0  nrf_fprintf.o ABSOLUTE
    ..\\..\\..\\..\\..\\..\\external\\fprintf\\nrf_fprintf_format.c 0x00000000   Number         0  nrf_fprintf_format.o ABSOLUTE
    ..\\..\\..\\..\\..\\..\\external\\segger_rtt\\SEGGER_RTT.c 0x00000000   Number         0  segger_rtt.o ABSOLUTE
    ..\\..\\..\\..\\..\\..\\external\\segger_rtt\\SEGGER_RTT_printf.c 0x00000000   Number         0  segger_rtt_printf.o ABSOLUTE
    ..\\..\\..\\..\\..\\..\\integration\\nrfx\\legacy\\nrf_drv_clock.c 0x00000000   Number         0  nrf_drv_clock.o ABSOLUTE
    ..\\..\\..\\..\\..\\..\\integration\\nrfx\\legacy\\nrf_drv_uart.c 0x00000000   Number         0  nrf_drv_uart.o ABSOLUTE
    ..\\..\\..\\..\\..\\..\\modules\\nrfx\\drivers\\src\\nrfx_clock.c 0x00000000   Number         0  nrfx_clock.o ABSOLUTE
    ..\\..\\..\\..\\..\\..\\modules\\nrfx\\drivers\\src\\nrfx_gpiote.c 0x00000000   Number         0  nrfx_gpiote.o ABSOLUTE
    ..\\..\\..\\..\\..\\..\\modules\\nrfx\\drivers\\src\\nrfx_uart.c 0x00000000   Number         0  nrfx_uart.o ABSOLUTE
    ..\\..\\..\\..\\..\\..\\modules\\nrfx\\drivers\\src\\nrfx_uarte.c 0x00000000   Number         0  nrfx_uarte.o ABSOLUTE
    ..\\..\\..\\..\\..\\..\\modules\\nrfx\\drivers\\src\\prs\\nrfx_prs.c 0x00000000   Number         0  nrfx_prs.o ABSOLUTE
    ..\\..\\..\\..\\..\\..\\modules\\nrfx\\soc\\nrfx_atomic.c 0x00000000   Number         0  nrfx_atomic.o ABSOLUTE
    ..\\..\\..\\main.c                       0x00000000   Number         0  main.o ABSOLUTE
    RTE\Device\nRF52805_xxAA\arm_startup_nrf52805.s 0x00000000   Number         0  arm_startup_nrf52805.o ABSOLUTE
    RTE\Device\nRF52805_xxAA\system_nrf52.c  0x00000000   Number         0  system_nrf52_1.o ABSOLUTE
    RTE\\Device\\nRF52805_xxAA\\system_nrf52.c 0x00000000   Number         0  system_nrf52_1.o ABSOLUTE
    cdrcmple.s                               0x00000000   Number         0  cdrcmple.o ABSOLUTE
    dc.s                                     0x00000000   Number         0  dc.o ABSOLUTE
    handlers.s                               0x00000000   Number         0  handlers.o ABSOLUTE
    init.s                                   0x00000000   Number         0  init.o ABSOLUTE
    RESET                                    0x00026000   Section      512  arm_startup_nrf52805.o(RESET)
    .ARM.Collect$$$$00000000                 0x00026200   Section        0  entry.o(.ARM.Collect$$$$00000000)
    .ARM.Collect$$$$00000001                 0x00026200   Section        4  entry2.o(.ARM.Collect$$$$00000001)
    .ARM.Collect$$$$00000004                 0x00026204   Section        4  entry5.o(.ARM.Collect$$$$00000004)
    .ARM.Collect$$$$00000008                 0x00026208   Section        0  entry7b.o(.ARM.Collect$$$$00000008)
    .ARM.Collect$$$$0000000A                 0x00026208   Section        0  entry8b.o(.ARM.Collect$$$$0000000A)
    .ARM.Collect$$$$0000000B                 0x00026208   Section        8  entry9a.o(.ARM.Collect$$$$0000000B)
    .ARM.Collect$$$$0000000D                 0x00026210   Section        0  entry10a.o(.ARM.Collect$$$$0000000D)
    .ARM.Collect$$$$0000000F                 0x00026210   Section        0  entry11a.o(.ARM.Collect$$$$0000000F)
    .ARM.Collect$$$$00002712                 0x00026210   Section        4  entry2.o(.ARM.Collect$$$$00002712)
    __lit__00000000                          0x00026210   Data           4  entry2.o(.ARM.Collect$$$$00002712)
    .emb_text                                0x00026214   Section      200  nrf_atfifo.o(.emb_text)
    .emb_text                                0x000262dc   Section      226  nrf_atomic.o(.emb_text)
    .text                                    0x000263c0   Section       36  arm_startup_nrf52805.o(.text)
    .text                                    0x000263e4   Section        0  llshl.o(.text)
    .text                                    0x00026404   Section        0  ctype_o.o(.text)
    .text                                    0x0002640c   Section        0  memcpya.o(.text)
    .text                                    0x00026430   Section        0  memseta.o(.text)
    .text                                    0x00026454   Section        0  strlen.o(.text)
    .text                                    0x00026462   Section        0  strcpy.o(.text)
    .text                                    0x00026474   Section       36  init.o(.text)
    .text                                    0x00026498   Section        0  __dczerorl2.o(.text)
    i.GPIOTE_IRQHandler                      0x000264f0   Section        0  nrfx_gpiote.o(i.GPIOTE_IRQHandler)
    i.POWER_CLOCK_IRQHandler                 0x000265ac   Section        0  nrfx_clock.o(i.POWER_CLOCK_IRQHandler)
    i.RTC1_IRQHandler                        0x000265f4   Section        0  drv_rtc.o(i.RTC1_IRQHandler)
    i.SEGGER_RTT_Init                        0x0002660c   Section        0  segger_rtt.o(i.SEGGER_RTT_Init)
    i.SEGGER_RTT_WriteNoLock                 0x00026614   Section        0  segger_rtt.o(i.SEGGER_RTT_WriteNoLock)
    i.SWI2_IRQHandler                        0x00026698   Section        0  nrf_sdh.o(i.SWI2_IRQHandler)
    i.SystemCoreClockUpdate                  0x000266a0   Section        0  system_nrf52_1.o(i.SystemCoreClockUpdate)
    i.SystemInit                             0x000266b0   Section        0  system_nrf52_1.o(i.SystemInit)
    i.UARTE0_UART0_IRQHandler                0x0002691c   Section        0  nrfx_prs.o(i.UARTE0_UART0_IRQHandler)
    i._DoInit                                0x0002692c   Section        0  segger_rtt.o(i._DoInit)
    _DoInit                                  0x0002692d   Thumb Code    74  segger_rtt.o(i._DoInit)
    i._GetAvailWriteSpace                    0x0002699c   Section        0  segger_rtt.o(i._GetAvailWriteSpace)
    _GetAvailWriteSpace                      0x0002699d   Thumb Code    28  segger_rtt.o(i._GetAvailWriteSpace)
    i._WriteBlocking                         0x000269b8   Section        0  segger_rtt.o(i._WriteBlocking)
    _WriteBlocking                           0x000269b9   Thumb Code   114  segger_rtt.o(i._WriteBlocking)
    i._WriteNoCheck                          0x00026a2a   Section        0  segger_rtt.o(i._WriteNoCheck)
    _WriteNoCheck                            0x00026a2b   Thumb Code    76  segger_rtt.o(i._WriteNoCheck)
    i.__0printf$bare                         0x00026a78   Section        0  printfb.o(i.__0printf$bare)
    i.__scatterload_copy                     0x00026a88   Section       14  handlers.o(i.__scatterload_copy)
    i.__scatterload_null                     0x00026a96   Section        2  handlers.o(i.__scatterload_null)
    i.__scatterload_zeroinit                 0x00026a98   Section       14  handlers.o(i.__scatterload_zeroinit)
    i.__sd_nvic_app_accessible_irq           0x00026aa8   Section        0  nrf_sdh.o(i.__sd_nvic_app_accessible_irq)
    __sd_nvic_app_accessible_irq             0x00026aa9   Thumb Code    52  nrf_sdh.o(i.__sd_nvic_app_accessible_irq)
    i.__sd_nvic_irq_disable                  0x00026ae0   Section        0  app_util_platform.o(i.__sd_nvic_irq_disable)
    __sd_nvic_irq_disable                    0x00026ae1   Thumb Code    12  app_util_platform.o(i.__sd_nvic_irq_disable)
    i._printf_core                           0x00026aec   Section        0  printfb.o(i._printf_core)
    _printf_core                             0x00026aed   Thumb Code    34  printfb.o(i._printf_core)
    i.addr_is_valid                          0x00026b0e   Section        0  ble_advertising.o(i.addr_is_valid)
    addr_is_valid                            0x00026b0f   Thumb Code    24  ble_advertising.o(i.addr_is_valid)
    i.adv_mode_next_avail_get                0x00026b26   Section        0  ble_advertising.o(i.adv_mode_next_avail_get)
    adv_mode_next_avail_get                  0x00026b27   Thumb Code    88  ble_advertising.o(i.adv_mode_next_avail_get)
    i.adv_mode_next_get                      0x00026b7e   Section        0  ble_advertising.o(i.adv_mode_next_get)
    adv_mode_next_get                        0x00026b7f   Thumb Code    18  ble_advertising.o(i.adv_mode_next_get)
    i.adv_set_data_size_max_get              0x00026b90   Section        0  ble_advertising.o(i.adv_set_data_size_max_get)
    adv_set_data_size_max_get                0x00026b91   Thumb Code    18  ble_advertising.o(i.adv_set_data_size_max_get)
    i.advertising_buttons_configure          0x00026ba2   Section        0  bsp_btn_ble.o(i.advertising_buttons_configure)
    advertising_buttons_configure            0x00026ba3   Thumb Code    84  bsp_btn_ble.o(i.advertising_buttons_configure)
    i.advertising_init                       0x00026bf8   Section        0  main.o(i.advertising_init)
    advertising_init                         0x00026bf9   Thumb Code   100  main.o(i.advertising_init)
    i.advertising_start                      0x00026c68   Section        0  main.o(i.advertising_start)
    advertising_start                        0x00026c69   Thumb Code    32  main.o(i.advertising_start)
    i.app_button_enable                      0x00026c8c   Section        0  app_button.o(i.app_button_enable)
    i.app_button_init                        0x00026cb8   Section        0  app_button.o(i.app_button_init)
    i.app_error_fault_handler                0x00026d68   Section        0  app_error_weak.o(i.app_error_fault_handler)
    i.app_error_handler_bare                 0x00026e24   Section        0  app_error.o(i.app_error_handler_bare)
    i.app_fifo_get                           0x00026e40   Section        0  app_fifo.o(i.app_fifo_get)
    i.app_fifo_init                          0x00026e5e   Section        0  app_fifo.o(i.app_fifo_init)
    i.app_fifo_put                           0x00026e82   Section        0  app_fifo.o(i.app_fifo_put)
    i.app_timer_cnt_get                      0x00026ea4   Section        0  app_timer2.o(i.app_timer_cnt_get)
    i.app_timer_create                       0x00026eb4   Section        0  app_timer2.o(i.app_timer_create)
    i.app_timer_init                         0x00026ed4   Section        0  app_timer2.o(i.app_timer_init)
    i.app_timer_start                        0x00026f40   Section        0  app_timer2.o(i.app_timer_start)
    i.app_timer_stop                         0x00026f76   Section        0  app_timer2.o(i.app_timer_stop)
    i.app_uart_get                           0x00026f8c   Section        0  app_uart_fifo.o(i.app_uart_get)
    i.app_uart_init                          0x00026fe0   Section        0  app_uart_fifo.o(i.app_uart_init)
    i.app_uart_put                           0x000270bc   Section        0  app_uart_fifo.o(i.app_uart_put)
    i.app_util_critical_region_enter         0x00027128   Section        0  app_util_platform.o(i.app_util_critical_region_enter)
    i.app_util_critical_region_exit          0x00027134   Section        0  app_util_platform.o(i.app_util_critical_region_exit)
    i.appearance_encode                      0x0002717c   Section        0  ble_advdata.o(i.appearance_encode)
    appearance_encode                        0x0002717d   Thumb Code    82  ble_advdata.o(i.appearance_encode)
    i.apply_config                           0x000271ce   Section        0  nrfx_uart.o(i.apply_config)
    apply_config                             0x000271cf   Thumb Code   124  nrfx_uart.o(i.apply_config)
    i.apply_config                           0x0002724a   Section        0  nrfx_uarte.o(i.apply_config)
    apply_config                             0x0002724b   Thumb Code   124  nrfx_uarte.o(i.apply_config)
    i.backend_id_assign                      0x000272c8   Section        0  nrf_log_frontend.o(i.backend_id_assign)
    backend_id_assign                        0x000272c9   Thumb Code    56  nrf_log_frontend.o(i.backend_id_assign)
    i.blcm_link_ctx_get                      0x00027304   Section        0  ble_link_ctx_manager.o(i.blcm_link_ctx_get)
    i.ble_advdata_encode                     0x00027370   Section        0  ble_advdata.o(i.ble_advdata_encode)
    i.ble_advdata_parse                      0x000274dc   Section        0  ble_advdata.o(i.ble_advdata_parse)
    i.ble_advdata_search                     0x00027504   Section        0  ble_advdata.o(i.ble_advdata_search)
    i.ble_advertising_conn_cfg_tag_set       0x00027560   Section        0  ble_advertising.o(i.ble_advertising_conn_cfg_tag_set)
    i.ble_advertising_init                   0x00027566   Section        0  ble_advertising.o(i.ble_advertising_init)
    i.ble_advertising_on_ble_evt             0x00027666   Section        0  ble_advertising.o(i.ble_advertising_on_ble_evt)
    i.ble_advertising_restart_without_whitelist 0x000276a2   Section        0  ble_advertising.o(i.ble_advertising_restart_without_whitelist)
    i.ble_advertising_start                  0x000276ec   Section        0  ble_advertising.o(i.ble_advertising_start)
    i.ble_conn_params_init                   0x00027860   Section        0  ble_conn_params.o(i.ble_conn_params_init)
    i.ble_conn_state_conn_idx                0x000278fc   Section        0  ble_conn_state.o(i.ble_conn_state_conn_idx)
    i.ble_conn_state_valid                   0x00027910   Section        0  ble_conn_state.o(i.ble_conn_state_valid)
    i.ble_device_addr_encode                 0x0002792c   Section        0  ble_advdata.o(i.ble_device_addr_encode)
    ble_device_addr_encode                   0x0002792d   Thumb Code   118  ble_advdata.o(i.ble_device_addr_encode)
    i.ble_evt_handler                        0x000279a4   Section        0  main.o(i.ble_evt_handler)
    ble_evt_handler                          0x000279a5   Thumb Code   342  main.o(i.ble_evt_handler)
    i.ble_evt_handler                        0x00027b3c   Section        0  bsp_btn_ble.o(i.ble_evt_handler)
    ble_evt_handler                          0x00027b3d   Thumb Code   112  bsp_btn_ble.o(i.ble_evt_handler)
    i.ble_evt_handler                        0x00027bb4   Section        0  ble_conn_params.o(i.ble_evt_handler)
    ble_evt_handler                          0x00027bb5   Thumb Code    64  ble_conn_params.o(i.ble_evt_handler)
    i.ble_evt_handler                        0x00027bf4   Section        0  ble_conn_state.o(i.ble_evt_handler)
    ble_evt_handler                          0x00027bf5   Thumb Code   162  ble_conn_state.o(i.ble_evt_handler)
    i.ble_nus_data_send                      0x00027c9c   Section        0  ble_nus.o(i.ble_nus_data_send)
    i.ble_nus_init                           0x00027d18   Section        0  ble_nus.o(i.ble_nus_init)
    i.ble_nus_on_ble_evt                     0x00027e20   Section        0  ble_nus.o(i.ble_nus_on_ble_evt)
    i.ble_srv_is_notification_enabled        0x00027e64   Section        0  ble_srv_common.o(i.ble_srv_is_notification_enabled)
    i.ble_stack_init                         0x00027e76   Section        0  main.o(i.ble_stack_init)
    ble_stack_init                           0x00027e77   Thumb Code    86  main.o(i.ble_stack_init)
    i.bsp_board_button_idx_to_pin            0x00027ecc   Section        0  boards.o(i.bsp_board_button_idx_to_pin)
    i.bsp_board_button_state_get             0x00027ed8   Section        0  boards.o(i.bsp_board_button_state_get)
    i.bsp_board_pin_to_button_idx            0x00027f08   Section        0  boards.o(i.bsp_board_pin_to_button_idx)
    i.bsp_btn_ble_init                       0x00027f2c   Section        0  bsp_btn_ble.o(i.bsp_btn_ble_init)
    i.bsp_btn_ble_sleep_mode_prepare         0x00027f58   Section        0  bsp_btn_ble.o(i.bsp_btn_ble_sleep_mode_prepare)
    i.bsp_button_event_handler               0x00027f8c   Section        0  bsp.o(i.bsp_button_event_handler)
    bsp_button_event_handler                 0x00027f8d   Thumb Code   176  bsp.o(i.bsp_button_event_handler)
    i.bsp_button_is_pressed                  0x00028050   Section        0  bsp.o(i.bsp_button_is_pressed)
    i.bsp_event_handler                      0x00028064   Section        0  main.o(i.bsp_event_handler)
    i.bsp_event_to_button_action_assign      0x000280d8   Section        0  bsp.o(i.bsp_event_to_button_action_assign)
    i.bsp_indication_set                     0x00028134   Section        0  bsp.o(i.bsp_indication_set)
    i.bsp_init                               0x0002813c   Section        0  bsp.o(i.bsp_init)
    i.bsp_wakeup_button_enable               0x000281a8   Section        0  bsp.o(i.bsp_wakeup_button_enable)
    i.buf_prealloc                           0x000281b8   Section        0  nrf_log_frontend.o(i.buf_prealloc)
    buf_prealloc                             0x000281b9   Thumb Code   220  nrf_log_frontend.o(i.buf_prealloc)
    i.buffer_add                             0x000282a0   Section        0  nrf_fprintf_format.o(i.buffer_add)
    buffer_add                               0x000282a1   Thumb Code    44  nrf_fprintf_format.o(i.buffer_add)
    i.buffer_is_empty                        0x000282cc   Section        0  nrf_log_frontend.o(i.buffer_is_empty)
    i.button_get                             0x000282e4   Section        0  app_button.o(i.button_get)
    button_get                               0x000282e5   Thumb Code    36  app_button.o(i.button_get)
    i.button_timer_handler                   0x00028310   Section        0  bsp.o(i.button_timer_handler)
    button_timer_handler                     0x00028311   Thumb Code    14  bsp.o(i.button_timer_handler)
    i.buttons_leds_init                      0x00028320   Section        0  main.o(i.buttons_leds_init)
    buttons_leds_init                        0x00028321   Thumb Code    78  main.o(i.buttons_leds_init)
    i.channel_free                           0x00028374   Section        0  nrfx_gpiote.o(i.channel_free)
    channel_free                             0x00028375   Thumb Code    26  nrfx_gpiote.o(i.channel_free)
    i.channel_handler_get                    0x00028394   Section        0  nrfx_gpiote.o(i.channel_handler_get)
    channel_handler_get                      0x00028395   Thumb Code    10  nrfx_gpiote.o(i.channel_handler_get)
    i.channel_port_alloc                     0x000283a4   Section        0  nrfx_gpiote.o(i.channel_port_alloc)
    channel_port_alloc                       0x000283a5   Thumb Code   122  nrfx_gpiote.o(i.channel_port_alloc)
    i.channel_port_get                       0x00028424   Section        0  nrfx_gpiote.o(i.channel_port_get)
    channel_port_get                         0x00028425   Thumb Code     8  nrfx_gpiote.o(i.channel_port_get)
    i.characteristic_add                     0x00028430   Section        0  ble_srv_common.o(i.characteristic_add)
    i.clock_clk_started_notify               0x000285f8   Section        0  nrf_drv_clock.o(i.clock_clk_started_notify)
    clock_clk_started_notify                 0x000285f9   Thumb Code    42  nrf_drv_clock.o(i.clock_clk_started_notify)
    i.clock_irq_handler                      0x00028628   Section        0  nrf_drv_clock.o(i.clock_irq_handler)
    clock_irq_handler                        0x00028629   Thumb Code    34  nrf_drv_clock.o(i.clock_irq_handler)
    i.compare_func                           0x00028650   Section        0  app_timer2.o(i.compare_func)
    compare_func                             0x00028651   Thumb Code    38  app_timer2.o(i.compare_func)
    i.config_is_valid                        0x00028676   Section        0  ble_advertising.o(i.config_is_valid)
    config_is_valid                          0x00028677   Thumb Code    40  ble_advertising.o(i.config_is_valid)
    i.conn_handle_list_get                   0x0002869e   Section        0  ble_conn_state.o(i.conn_handle_list_get)
    i.conn_int_check                         0x000286da   Section        0  ble_advdata.o(i.conn_int_check)
    conn_int_check                           0x000286db   Thumb Code    90  ble_advdata.o(i.conn_int_check)
    i.conn_int_encode                        0x00028734   Section        0  ble_advdata.o(i.conn_int_encode)
    conn_int_encode                          0x00028735   Thumb Code   104  ble_advdata.o(i.conn_int_encode)
    i.conn_params_error_handler              0x0002879c   Section        0  main.o(i.conn_params_error_handler)
    conn_params_error_handler                0x0002879d   Thumb Code    16  main.o(i.conn_params_error_handler)
    i.conn_params_init                       0x000287ac   Section        0  main.o(i.conn_params_init)
    conn_params_init                         0x000287ad   Thumb Code    82  main.o(i.conn_params_init)
    i.conn_params_negotiation                0x00028808   Section        0  ble_conn_params.o(i.conn_params_negotiation)
    conn_params_negotiation                  0x00028809   Thumb Code    78  ble_conn_params.o(i.conn_params_negotiation)
    i.connection_buttons_configure           0x0002885c   Section        0  bsp_btn_ble.o(i.connection_buttons_configure)
    connection_buttons_configure             0x0002885d   Thumb Code    84  bsp_btn_ble.o(i.connection_buttons_configure)
    i.detection_delay_timeout_handler        0x000288b0   Section        0  app_button.o(i.detection_delay_timeout_handler)
    detection_delay_timeout_handler          0x000288b1   Thumb Code    84  app_button.o(i.detection_delay_timeout_handler)
    i.dropped_sat16_get                      0x00028910   Section        0  nrf_log_frontend.o(i.dropped_sat16_get)
    dropped_sat16_get                        0x00028911   Thumb Code    18  nrf_log_frontend.o(i.dropped_sat16_get)
    i.drv_rtc_compare_disable                0x00028928   Section        0  drv_rtc.o(i.drv_rtc_compare_disable)
    i.drv_rtc_compare_pending                0x0002893e   Section        0  drv_rtc.o(i.drv_rtc_compare_pending)
    i.drv_rtc_compare_set                    0x00028958   Section        0  drv_rtc.o(i.drv_rtc_compare_set)
    i.drv_rtc_counter_get                    0x000289b4   Section        0  drv_rtc.o(i.drv_rtc_counter_get)
    i.drv_rtc_init                           0x000289c0   Section        0  drv_rtc.o(i.drv_rtc_init)
    i.drv_rtc_irq_trigger                    0x00028ae8   Section        0  drv_rtc.o(i.drv_rtc_irq_trigger)
    i.drv_rtc_overflow_enable                0x00028b0c   Section        0  drv_rtc.o(i.drv_rtc_overflow_enable)
    i.drv_rtc_overflow_pending               0x00028b1e   Section        0  drv_rtc.o(i.drv_rtc_overflow_pending)
    i.drv_rtc_start                          0x00028b2e   Section        0  drv_rtc.o(i.drv_rtc_start)
    i.drv_rtc_stop                           0x00028b3c   Section        0  drv_rtc.o(i.drv_rtc_stop)
    i.drv_rtc_windowed_compare_set           0x00028b4a   Section        0  drv_rtc.o(i.drv_rtc_windowed_compare_set)
    i.evt_disable                            0x00028c46   Section        0  drv_rtc.o(i.evt_disable)
    evt_disable                              0x00028c47   Thumb Code    24  drv_rtc.o(i.evt_disable)
    i.evt_enable                             0x00028c5e   Section        0  drv_rtc.o(i.evt_enable)
    evt_enable                               0x00028c5f   Thumb Code    28  drv_rtc.o(i.evt_enable)
    i.evt_handle                             0x00028c7c   Section        0  app_button.o(i.evt_handle)
    i.evt_pending                            0x00028d6c   Section        0  drv_rtc.o(i.evt_pending)
    evt_pending                              0x00028d6d   Thumb Code    28  drv_rtc.o(i.evt_pending)
    i.fifo_get                               0x00028d88   Section        0  app_fifo.o(i.fifo_get)
    fifo_get                                 0x00028d89   Thumb Code    24  app_fifo.o(i.fifo_get)
    i.fifo_length                            0x00028da0   Section        0  app_fifo.o(i.fifo_length)
    fifo_length                              0x00028da1   Thumb Code    10  app_fifo.o(i.fifo_length)
    i.fifo_length                            0x00028daa   Section        0  app_uart_fifo.o(i.fifo_length)
    fifo_length                              0x00028dab   Thumb Code    10  app_uart_fifo.o(i.fifo_length)
    i.fifo_peek                              0x00028db4   Section        0  app_fifo.o(i.fifo_peek)
    fifo_peek                                0x00028db5   Thumb Code    18  app_fifo.o(i.fifo_peek)
    i.fifo_put                               0x00028dc6   Section        0  app_fifo.o(i.fifo_put)
    fifo_put                                 0x00028dc7   Thumb Code    18  app_fifo.o(i.fifo_put)
    i.flag_toggle                            0x00028dd8   Section        0  ble_conn_state.o(i.flag_toggle)
    flag_toggle                              0x00028dd9   Thumb Code    30  ble_conn_state.o(i.flag_toggle)
    i.flags_encode                           0x00028df6   Section        0  ble_advdata.o(i.flags_encode)
    flags_encode                             0x00028df7   Thumb Code    54  ble_advdata.o(i.flags_encode)
    i.flags_set                              0x00028e2c   Section        0  ble_advertising.o(i.flags_set)
    flags_set                                0x00028e2d   Thumb Code    42  ble_advertising.o(i.flags_set)
    i.fputc                                  0x00028e56   Section        0  retarget.o(i.fputc)
    i.gap_params_init                        0x00028e68   Section        0  main.o(i.gap_params_init)
    gap_params_init                          0x00028e69   Thumb Code   116  main.o(i.gap_params_init)
    i.gatt_evt_handler                       0x00028ee8   Section        0  main.o(i.gatt_evt_handler)
    i.gatt_init                              0x00028fa8   Section        0  main.o(i.gatt_init)
    i.get_now                                0x00028fec   Section        0  app_timer2.o(i.get_now)
    get_now                                  0x00028fed   Thumb Code    46  app_timer2.o(i.get_now)
    i.gpiote_event_handler                   0x00029028   Section        0  app_button.o(i.gpiote_event_handler)
    gpiote_event_handler                     0x00029029   Thumb Code    66  app_button.o(i.gpiote_event_handler)
    i.idle_state_handle                      0x00029070   Section        0  main.o(i.idle_state_handle)
    idle_state_handle                        0x00029071   Thumb Code    14  main.o(i.idle_state_handle)
    i.instance_get                           0x00029080   Section        0  ble_conn_params.o(i.instance_get)
    instance_get                             0x00029081   Thumb Code    40  ble_conn_params.o(i.instance_get)
    i.int_print                              0x000290ac   Section        0  nrf_fprintf_format.o(i.int_print)
    int_print                                0x000290ad   Thumb Code   190  nrf_fprintf_format.o(i.int_print)
    i.interrupts_enable                      0x0002916c   Section        0  nrfx_uart.o(i.interrupts_enable)
    interrupts_enable                        0x0002916d   Thumb Code   136  nrfx_uart.o(i.interrupts_enable)
    i.interrupts_enable                      0x00029200   Section        0  nrfx_uarte.o(i.interrupts_enable)
    interrupts_enable                        0x00029201   Thumb Code   166  nrfx_uarte.o(i.interrupts_enable)
    i.invalid_packets_omit                   0x000292b4   Section        0  nrf_log_frontend.o(i.invalid_packets_omit)
    invalid_packets_omit                     0x000292b5   Thumb Code    70  nrf_log_frontend.o(i.invalid_packets_omit)
    i.is_conn_params_ok                      0x000292fa   Section        0  ble_conn_params.o(i.is_conn_params_ok)
    is_conn_params_ok                        0x000292fb   Thumb Code   114  ble_conn_params.o(i.is_conn_params_ok)
    i.item_dequeue                           0x0002936c   Section        0  nrf_drv_clock.o(i.item_dequeue)
    item_dequeue                             0x0002936d   Thumb Code    12  nrf_drv_clock.o(i.item_dequeue)
    i.latch_pending_read_and_check           0x00029378   Section        0  nrfx_gpiote.o(i.latch_pending_read_and_check)
    latch_pending_read_and_check             0x00029379   Thumb Code    38  nrfx_gpiote.o(i.latch_pending_read_and_check)
    i.lfclk_stop                             0x000293a0   Section        0  nrf_drv_clock.o(i.lfclk_stop)
    lfclk_stop                               0x000293a1   Thumb Code    20  nrf_drv_clock.o(i.lfclk_stop)
    i.link_init                              0x000293b8   Section        0  nrf_ble_gatt.o(i.link_init)
    link_init                                0x000293b9   Thumb Code    16  nrf_ble_gatt.o(i.link_init)
    i.log_init                               0x000293c8   Section        0  main.o(i.log_init)
    log_init                                 0x000293c9   Thumb Code    38  main.o(i.log_init)
    i.log_skip                               0x000293f0   Section        0  nrf_log_frontend.o(i.log_skip)
    log_skip                                 0x000293f1   Thumb Code   190  nrf_log_frontend.o(i.log_skip)
    i.main                                   0x000294bc   Section        0  main.o(i.main)
    i.manuf_specific_data_encode             0x00029598   Section        0  ble_advdata.o(i.manuf_specific_data_encode)
    manuf_specific_data_encode               0x00029599   Thumb Code   118  ble_advdata.o(i.manuf_specific_data_encode)
    i.memobj_op                              0x0002960e   Section        0  nrf_memobj.o(i.memobj_op)
    memobj_op                                0x0002960f   Thumb Code   202  nrf_memobj.o(i.memobj_op)
    i.module_idx_get                         0x000296d8   Section        0  nrf_log_frontend.o(i.module_idx_get)
    module_idx_get                           0x000296d9   Thumb Code    52  nrf_log_frontend.o(i.module_idx_get)
    i.name_encode                            0x00029710   Section        0  ble_advdata.o(i.name_encode)
    name_encode                              0x00029711   Thumb Code   200  ble_advdata.o(i.name_encode)
    i.nrf52_configuration_249                0x000297d8   Section        0  system_nrf52_1.o(i.nrf52_configuration_249)
    nrf52_configuration_249                  0x000297d9   Thumb Code    84  system_nrf52_1.o(i.nrf52_configuration_249)
    i.nrf52_errata_108                       0x00029830   Section        0  system_nrf52_1.o(i.nrf52_errata_108)
    nrf52_errata_108                         0x00029831   Thumb Code    84  system_nrf52_1.o(i.nrf52_errata_108)
    i.nrf52_errata_12                        0x0002988c   Section        0  system_nrf52_1.o(i.nrf52_errata_12)
    nrf52_errata_12                          0x0002988d   Thumb Code    84  system_nrf52_1.o(i.nrf52_errata_12)
    i.nrf52_errata_136                       0x000298e8   Section        0  system_nrf52_1.o(i.nrf52_errata_136)
    nrf52_errata_136                         0x000298e9   Thumb Code   108  system_nrf52_1.o(i.nrf52_errata_136)
    i.nrf52_errata_16                        0x0002995c   Section        0  system_nrf52_1.o(i.nrf52_errata_16)
    nrf52_errata_16                          0x0002995d   Thumb Code    62  system_nrf52_1.o(i.nrf52_errata_16)
    i.nrf52_errata_182                       0x000299a0   Section        0  system_nrf52_1.o(i.nrf52_errata_182)
    nrf52_errata_182                         0x000299a1   Thumb Code    60  system_nrf52_1.o(i.nrf52_errata_182)
    i.nrf52_errata_217                       0x000299e0   Section        0  system_nrf52_1.o(i.nrf52_errata_217)
    nrf52_errata_217                         0x000299e1   Thumb Code    40  system_nrf52_1.o(i.nrf52_errata_217)
    i.nrf52_errata_31                        0x00029a0c   Section        0  system_nrf52_1.o(i.nrf52_errata_31)
    nrf52_errata_31                          0x00029a0d   Thumb Code   108  system_nrf52_1.o(i.nrf52_errata_31)
    i.nrf52_errata_32                        0x00029a80   Section        0  system_nrf52_1.o(i.nrf52_errata_32)
    nrf52_errata_32                          0x00029a81   Thumb Code    62  system_nrf52_1.o(i.nrf52_errata_32)
    i.nrf52_errata_36                        0x00029ac4   Section        0  system_nrf52_1.o(i.nrf52_errata_36)
    nrf52_errata_36                          0x00029ac5   Thumb Code   108  system_nrf52_1.o(i.nrf52_errata_36)
    i.nrf52_errata_37                        0x00029b38   Section        0  system_nrf52_1.o(i.nrf52_errata_37)
    nrf52_errata_37                          0x00029b39   Thumb Code    62  system_nrf52_1.o(i.nrf52_errata_37)
    i.nrf52_errata_57                        0x00029b7c   Section        0  system_nrf52_1.o(i.nrf52_errata_57)
    nrf52_errata_57                          0x00029b7d   Thumb Code    62  system_nrf52_1.o(i.nrf52_errata_57)
    i.nrf52_errata_66                        0x00029bc0   Section        0  system_nrf52_1.o(i.nrf52_errata_66)
    nrf52_errata_66                          0x00029bc1   Thumb Code   108  system_nrf52_1.o(i.nrf52_errata_66)
    i.nrf_atfifo_init                        0x00029c34   Section        0  nrf_atfifo.o(i.nrf_atfifo_init)
    i.nrf_atfifo_item_alloc                  0x00029c5c   Section        0  nrf_atfifo.o(i.nrf_atfifo_item_alloc)
    i.nrf_atfifo_item_free                   0x00029c78   Section        0  nrf_atfifo.o(i.nrf_atfifo_item_free)
    i.nrf_atfifo_item_get                    0x00029c94   Section        0  nrf_atfifo.o(i.nrf_atfifo_item_get)
    i.nrf_atfifo_item_put                    0x00029cb0   Section        0  nrf_atfifo.o(i.nrf_atfifo_item_put)
    i.nrf_atflags_clear                      0x00029ccc   Section        0  nrf_atflags.o(i.nrf_atflags_clear)
    i.nrf_atflags_get                        0x00029cea   Section        0  nrf_atflags.o(i.nrf_atflags_get)
    i.nrf_atflags_set                        0x00029d08   Section        0  nrf_atflags.o(i.nrf_atflags_set)
    i.nrf_atomic_flag_clear_fetch            0x00029d26   Section        0  nrf_atomic.o(i.nrf_atomic_flag_clear_fetch)
    i.nrf_atomic_flag_set                    0x00029d34   Section        0  nrf_atomic.o(i.nrf_atomic_flag_set)
    i.nrf_atomic_u32_add                     0x00029d42   Section        0  nrf_atomic.o(i.nrf_atomic_u32_add)
    i.nrf_atomic_u32_and                     0x00029d58   Section        0  nrf_atomic.o(i.nrf_atomic_u32_and)
    i.nrf_atomic_u32_fetch_and               0x00029d6e   Section        0  nrf_atomic.o(i.nrf_atomic_u32_fetch_and)
    i.nrf_atomic_u32_fetch_store             0x00029d84   Section        0  nrf_atomic.o(i.nrf_atomic_u32_fetch_store)
    i.nrf_atomic_u32_or                      0x00029d9a   Section        0  nrf_atomic.o(i.nrf_atomic_u32_or)
    i.nrf_atomic_u32_sub                     0x00029db0   Section        0  nrf_atomic.o(i.nrf_atomic_u32_sub)
    i.nrf_balloc_alloc                       0x00029dc6   Section        0  nrf_balloc.o(i.nrf_balloc_alloc)
    i.nrf_balloc_block2idx                   0x00029e18   Section        0  nrf_balloc.o(i.nrf_balloc_block2idx)
    nrf_balloc_block2idx                     0x00029e19   Thumb Code    16  nrf_balloc.o(i.nrf_balloc_block2idx)
    i.nrf_balloc_free                        0x00029e28   Section        0  nrf_balloc.o(i.nrf_balloc_free)
    i.nrf_balloc_idx2block                   0x00029e58   Section        0  nrf_balloc.o(i.nrf_balloc_idx2block)
    nrf_balloc_idx2block                     0x00029e59   Thumb Code    12  nrf_balloc.o(i.nrf_balloc_idx2block)
    i.nrf_balloc_init                        0x00029e64   Section        0  nrf_balloc.o(i.nrf_balloc_init)
    i.nrf_bitmask_bit_is_set                 0x00029ea0   Section        0  nrfx_gpiote.o(i.nrf_bitmask_bit_is_set)
    nrf_bitmask_bit_is_set                   0x00029ea1   Thumb Code    22  nrfx_gpiote.o(i.nrf_bitmask_bit_is_set)
    i.nrf_ble_gatt_att_mtu_periph_set        0x00029eb6   Section        0  nrf_ble_gatt.o(i.nrf_ble_gatt_att_mtu_periph_set)
    i.nrf_ble_gatt_init                      0x00029ed4   Section        0  nrf_ble_gatt.o(i.nrf_ble_gatt_init)
    i.nrf_ble_gatt_on_ble_evt                0x00029f0c   Section        0  nrf_ble_gatt.o(i.nrf_ble_gatt_on_ble_evt)
    i.nrf_ble_qwr_conn_handle_assign         0x0002a028   Section        0  nrf_ble_qwr.o(i.nrf_ble_qwr_conn_handle_assign)
    i.nrf_ble_qwr_init                       0x0002a048   Section        0  nrf_ble_qwr.o(i.nrf_ble_qwr_init)
    i.nrf_ble_qwr_on_ble_evt                 0x0002a07a   Section        0  nrf_ble_qwr.o(i.nrf_ble_qwr_on_ble_evt)
    i.nrf_clock_event_check                  0x0002a0f6   Section        0  nrfx_clock.o(i.nrf_clock_event_check)
    nrf_clock_event_check                    0x0002a0f7   Thumb Code    18  nrfx_clock.o(i.nrf_clock_event_check)
    i.nrf_clock_event_clear                  0x0002a108   Section        0  nrfx_clock.o(i.nrf_clock_event_clear)
    nrf_clock_event_clear                    0x0002a109   Thumb Code    18  nrfx_clock.o(i.nrf_clock_event_clear)
    i.nrf_clock_int_disable                  0x0002a11c   Section        0  nrfx_clock.o(i.nrf_clock_int_disable)
    nrf_clock_int_disable                    0x0002a11d   Thumb Code     6  nrfx_clock.o(i.nrf_clock_int_disable)
    i.nrf_clock_task_trigger                 0x0002a128   Section        0  nrfx_clock.o(i.nrf_clock_task_trigger)
    nrf_clock_task_trigger                   0x0002a129   Thumb Code     8  nrfx_clock.o(i.nrf_clock_task_trigger)
    i.nrf_drv_clock_init                     0x0002a130   Section        0  nrf_drv_clock.o(i.nrf_drv_clock_init)
    i.nrf_drv_clock_lfclk_release            0x0002a17c   Section        0  nrf_drv_clock.o(i.nrf_drv_clock_lfclk_release)
    i.nrf_drv_uart_init                      0x0002a1ac   Section        0  nrf_drv_uart.o(i.nrf_drv_uart_init)
    i.nrf_drv_uart_rx                        0x0002a238   Section        0  app_uart_fifo.o(i.nrf_drv_uart_rx)
    nrf_drv_uart_rx                          0x0002a239   Thumb Code    62  app_uart_fifo.o(i.nrf_drv_uart_rx)
    i.nrf_drv_uart_tx                        0x0002a27c   Section        0  app_uart_fifo.o(i.nrf_drv_uart_tx)
    nrf_drv_uart_tx                          0x0002a27d   Thumb Code    62  app_uart_fifo.o(i.nrf_drv_uart_tx)
    i.nrf_fprintf                            0x0002a2c0   Section        0  nrf_fprintf.o(i.nrf_fprintf)
    i.nrf_fprintf_buffer_flush               0x0002a2ea   Section        0  nrf_fprintf.o(i.nrf_fprintf_buffer_flush)
    i.nrf_fprintf_fmt                        0x0002a306   Section        0  nrf_fprintf_format.o(i.nrf_fprintf_fmt)
    i.nrf_gpio_cfg                           0x0002a4f6   Section        0  nrfx_gpiote.o(i.nrf_gpio_cfg)
    nrf_gpio_cfg                             0x0002a4f7   Thumb Code    40  nrfx_gpiote.o(i.nrf_gpio_cfg)
    i.nrf_gpio_cfg                           0x0002a51e   Section        0  nrfx_uart.o(i.nrf_gpio_cfg)
    nrf_gpio_cfg                             0x0002a51f   Thumb Code    40  nrfx_uart.o(i.nrf_gpio_cfg)
    i.nrf_gpio_cfg                           0x0002a546   Section        0  nrfx_uarte.o(i.nrf_gpio_cfg)
    nrf_gpio_cfg                             0x0002a547   Thumb Code    40  nrfx_uarte.o(i.nrf_gpio_cfg)
    i.nrf_gpio_cfg_input                     0x0002a56e   Section        0  nrfx_uart.o(i.nrf_gpio_cfg_input)
    nrf_gpio_cfg_input                       0x0002a56f   Thumb Code    26  nrfx_uart.o(i.nrf_gpio_cfg_input)
    i.nrf_gpio_cfg_input                     0x0002a588   Section        0  nrfx_uarte.o(i.nrf_gpio_cfg_input)
    nrf_gpio_cfg_input                       0x0002a589   Thumb Code    26  nrfx_uarte.o(i.nrf_gpio_cfg_input)
    i.nrf_gpio_cfg_output                    0x0002a5a2   Section        0  nrfx_uart.o(i.nrf_gpio_cfg_output)
    nrf_gpio_cfg_output                      0x0002a5a3   Thumb Code    24  nrfx_uart.o(i.nrf_gpio_cfg_output)
    i.nrf_gpio_cfg_output                    0x0002a5ba   Section        0  nrfx_uarte.o(i.nrf_gpio_cfg_output)
    nrf_gpio_cfg_output                      0x0002a5bb   Thumb Code    24  nrfx_uarte.o(i.nrf_gpio_cfg_output)
    i.nrf_gpio_cfg_sense_set                 0x0002a5d2   Section        0  nrfx_gpiote.o(i.nrf_gpio_cfg_sense_set)
    nrf_gpio_cfg_sense_set                   0x0002a5d3   Thumb Code    50  nrfx_gpiote.o(i.nrf_gpio_cfg_sense_set)
    i.nrf_gpio_latches_read_and_clear        0x0002a604   Section        0  nrfx_gpiote.o(i.nrf_gpio_latches_read_and_clear)
    nrf_gpio_latches_read_and_clear          0x0002a605   Thumb Code    46  nrfx_gpiote.o(i.nrf_gpio_latches_read_and_clear)
    i.nrf_gpio_pin_present_check             0x0002a638   Section        0  nrfx_gpiote.o(i.nrf_gpio_pin_present_check)
    nrf_gpio_pin_present_check               0x0002a639   Thumb Code    34  nrfx_gpiote.o(i.nrf_gpio_pin_present_check)
    i.nrf_gpio_pin_read                      0x0002a65a   Section        0  nrfx_gpiote.o(i.nrf_gpio_pin_read)
    nrf_gpio_pin_read                        0x0002a65b   Thumb Code    24  nrfx_gpiote.o(i.nrf_gpio_pin_read)
    i.nrf_gpio_pin_set                       0x0002a672   Section        0  nrfx_uart.o(i.nrf_gpio_pin_set)
    nrf_gpio_pin_set                         0x0002a673   Thumb Code    22  nrfx_uart.o(i.nrf_gpio_pin_set)
    i.nrf_gpio_pin_set                       0x0002a688   Section        0  nrfx_uarte.o(i.nrf_gpio_pin_set)
    nrf_gpio_pin_set                         0x0002a689   Thumb Code    22  nrfx_uarte.o(i.nrf_gpio_pin_set)
    i.nrf_gpiote_event_addr_get              0x0002a6a0   Section        0  nrfx_gpiote.o(i.nrf_gpiote_event_addr_get)
    nrf_gpiote_event_addr_get                0x0002a6a1   Thumb Code     8  nrfx_gpiote.o(i.nrf_gpiote_event_addr_get)
    i.nrf_gpiote_event_clear                 0x0002a6ac   Section        0  nrfx_gpiote.o(i.nrf_gpiote_event_clear)
    nrf_gpiote_event_clear                   0x0002a6ad   Thumb Code    28  nrfx_gpiote.o(i.nrf_gpiote_event_clear)
    i.nrf_gpiote_event_is_set                0x0002a6c8   Section        0  nrfx_gpiote.o(i.nrf_gpiote_event_is_set)
    nrf_gpiote_event_is_set                  0x0002a6c9   Thumb Code    22  nrfx_gpiote.o(i.nrf_gpiote_event_is_set)
    i.nrf_gpiote_int_enable                  0x0002a6e0   Section        0  nrfx_gpiote.o(i.nrf_gpiote_int_enable)
    nrf_gpiote_int_enable                    0x0002a6e1   Thumb Code     6  nrfx_gpiote.o(i.nrf_gpiote_int_enable)
    i.nrf_log_backend_add                    0x0002a6ec   Section        0  nrf_log_frontend.o(i.nrf_log_backend_add)
    i.nrf_log_backend_rtt_flush              0x0002a740   Section        0  nrf_log_backend_rtt.o(i.nrf_log_backend_rtt_flush)
    nrf_log_backend_rtt_flush                0x0002a741   Thumb Code     2  nrf_log_backend_rtt.o(i.nrf_log_backend_rtt_flush)
    i.nrf_log_backend_rtt_init               0x0002a742   Section        0  nrf_log_backend_rtt.o(i.nrf_log_backend_rtt_init)
    i.nrf_log_backend_rtt_panic_set          0x0002a74a   Section        0  nrf_log_backend_rtt.o(i.nrf_log_backend_rtt_panic_set)
    nrf_log_backend_rtt_panic_set            0x0002a74b   Thumb Code     2  nrf_log_backend_rtt.o(i.nrf_log_backend_rtt_panic_set)
    i.nrf_log_backend_rtt_put                0x0002a74c   Section        0  nrf_log_backend_rtt.o(i.nrf_log_backend_rtt_put)
    nrf_log_backend_rtt_put                  0x0002a74d   Thumb Code    24  nrf_log_backend_rtt.o(i.nrf_log_backend_rtt_put)
    i.nrf_log_backend_serial_put             0x0002a76c   Section        0  nrf_log_backend_serial.o(i.nrf_log_backend_serial_put)
    i.nrf_log_color_id_get                   0x0002a860   Section        0  nrf_log_frontend.o(i.nrf_log_color_id_get)
    i.nrf_log_default_backends_init          0x0002a898   Section        0  nrf_log_default_backends.o(i.nrf_log_default_backends_init)
    i.nrf_log_frontend_dequeue               0x0002a8c0   Section        0  nrf_log_frontend.o(i.nrf_log_frontend_dequeue)
    i.nrf_log_frontend_hexdump               0x0002abdc   Section        0  nrf_log_frontend.o(i.nrf_log_frontend_hexdump)
    i.nrf_log_frontend_std_0                 0x0002acc4   Section        0  nrf_log_frontend.o(i.nrf_log_frontend_std_0)
    i.nrf_log_frontend_std_1                 0x0002acd8   Section        0  nrf_log_frontend.o(i.nrf_log_frontend_std_1)
    i.nrf_log_frontend_std_2                 0x0002acf0   Section        0  nrf_log_frontend.o(i.nrf_log_frontend_std_2)
    i.nrf_log_frontend_std_3                 0x0002ad10   Section        0  nrf_log_frontend.o(i.nrf_log_frontend_std_3)
    i.nrf_log_hexdump_entry_process          0x0002ad38   Section        0  nrf_log_str_formatter.o(i.nrf_log_hexdump_entry_process)
    i.nrf_log_init                           0x0002adf4   Section        0  nrf_log_frontend.o(i.nrf_log_init)
    i.nrf_log_module_cnt_get                 0x0002ae3c   Section        0  nrf_log_frontend.o(i.nrf_log_module_cnt_get)
    i.nrf_log_module_name_get                0x0002ae50   Section        0  nrf_log_frontend.o(i.nrf_log_module_name_get)
    i.nrf_log_panic                          0x0002ae74   Section        0  nrf_log_frontend.o(i.nrf_log_panic)
    i.nrf_log_std_entry_process              0x0002aea8   Section        0  nrf_log_str_formatter.o(i.nrf_log_std_entry_process)
    i.nrf_memobj_alloc                       0x0002af70   Section        0  nrf_memobj.o(i.nrf_memobj_alloc)
    i.nrf_memobj_free                        0x0002afea   Section        0  nrf_memobj.o(i.nrf_memobj_free)
    i.nrf_memobj_get                         0x0002b02a   Section        0  nrf_memobj.o(i.nrf_memobj_get)
    i.nrf_memobj_pool_init                   0x0002b03a   Section        0  nrf_memobj.o(i.nrf_memobj_pool_init)
    i.nrf_memobj_put                         0x0002b046   Section        0  nrf_memobj.o(i.nrf_memobj_put)
    i.nrf_memobj_read                        0x0002b064   Section        0  nrf_memobj.o(i.nrf_memobj_read)
    i.nrf_memobj_write                       0x0002b086   Section        0  nrf_memobj.o(i.nrf_memobj_write)
    i.nrf_pwr_mgmt_init                      0x0002b0a8   Section        0  nrf_pwr_mgmt.o(i.nrf_pwr_mgmt_init)
    i.nrf_pwr_mgmt_run                       0x0002b0e8   Section        0  nrf_pwr_mgmt.o(i.nrf_pwr_mgmt_run)
    i.nrf_qwr_error_handler                  0x0002b0fe   Section        0  main.o(i.nrf_qwr_error_handler)
    nrf_qwr_error_handler                    0x0002b0ff   Thumb Code    16  main.o(i.nrf_qwr_error_handler)
    i.nrf_ringbuf_init                       0x0002b10e   Section        0  nrf_ringbuf.o(i.nrf_ringbuf_init)
    i.nrf_rtc_cc_get                         0x0002b12a   Section        0  drv_rtc.o(i.nrf_rtc_cc_get)
    nrf_rtc_cc_get                           0x0002b12b   Thumb Code    12  drv_rtc.o(i.nrf_rtc_cc_get)
    i.nrf_rtc_cc_set                         0x0002b136   Section        0  drv_rtc.o(i.nrf_rtc_cc_set)
    nrf_rtc_cc_set                           0x0002b137   Thumb Code    10  drv_rtc.o(i.nrf_rtc_cc_set)
    i.nrf_rtc_counter_get                    0x0002b140   Section        0  drv_rtc.o(i.nrf_rtc_counter_get)
    nrf_rtc_counter_get                      0x0002b141   Thumb Code     8  drv_rtc.o(i.nrf_rtc_counter_get)
    i.nrf_rtc_event_clear                    0x0002b148   Section        0  drv_rtc.o(i.nrf_rtc_event_clear)
    nrf_rtc_event_clear                      0x0002b149   Thumb Code    14  drv_rtc.o(i.nrf_rtc_event_clear)
    i.nrf_rtc_event_disable                  0x0002b156   Section        0  drv_rtc.o(i.nrf_rtc_event_disable)
    nrf_rtc_event_disable                    0x0002b157   Thumb Code     6  drv_rtc.o(i.nrf_rtc_event_disable)
    i.nrf_rtc_event_enable                   0x0002b15c   Section        0  drv_rtc.o(i.nrf_rtc_event_enable)
    nrf_rtc_event_enable                     0x0002b15d   Thumb Code     6  drv_rtc.o(i.nrf_rtc_event_enable)
    i.nrf_rtc_int_disable                    0x0002b162   Section        0  drv_rtc.o(i.nrf_rtc_int_disable)
    nrf_rtc_int_disable                      0x0002b163   Thumb Code     6  drv_rtc.o(i.nrf_rtc_int_disable)
    i.nrf_rtc_int_enable                     0x0002b168   Section        0  drv_rtc.o(i.nrf_rtc_int_enable)
    nrf_rtc_int_enable                       0x0002b169   Thumb Code     6  drv_rtc.o(i.nrf_rtc_int_enable)
    i.nrf_rtc_task_trigger                   0x0002b16e   Section        0  drv_rtc.o(i.nrf_rtc_task_trigger)
    nrf_rtc_task_trigger                     0x0002b16f   Thumb Code     6  drv_rtc.o(i.nrf_rtc_task_trigger)
    i.nrf_sdh_ble_app_ram_start_get          0x0002b174   Section        0  nrf_sdh_ble.o(i.nrf_sdh_ble_app_ram_start_get)
    i.nrf_sdh_ble_default_cfg_set            0x0002b18c   Section        0  nrf_sdh_ble.o(i.nrf_sdh_ble_default_cfg_set)
    i.nrf_sdh_ble_enable                     0x0002b320   Section        0  nrf_sdh_ble.o(i.nrf_sdh_ble_enable)
    i.nrf_sdh_ble_evts_poll                  0x0002b46c   Section        0  nrf_sdh_ble.o(i.nrf_sdh_ble_evts_poll)
    nrf_sdh_ble_evts_poll                    0x0002b46d   Thumb Code   108  nrf_sdh_ble.o(i.nrf_sdh_ble_evts_poll)
    i.nrf_sdh_enable_request                 0x0002b4e0   Section        0  nrf_sdh.o(i.nrf_sdh_enable_request)
    i.nrf_sdh_evts_poll                      0x0002b564   Section        0  nrf_sdh.o(i.nrf_sdh_evts_poll)
    i.nrf_sdh_is_enabled                     0x0002b594   Section        0  nrf_sdh.o(i.nrf_sdh_is_enabled)
    i.nrf_sdh_soc_evts_poll                  0x0002b5a0   Section        0  nrf_sdh_soc.o(i.nrf_sdh_soc_evts_poll)
    nrf_sdh_soc_evts_poll                    0x0002b5a1   Thumb Code    80  nrf_sdh_soc.o(i.nrf_sdh_soc_evts_poll)
    i.nrf_section_iter_get                   0x0002b5f4   Section        0  nrf_sdh.o(i.nrf_section_iter_get)
    nrf_section_iter_get                     0x0002b5f5   Thumb Code     6  nrf_sdh.o(i.nrf_section_iter_get)
    i.nrf_section_iter_init                  0x0002b5fa   Section        0  nrf_section_iter.o(i.nrf_section_iter_init)
    i.nrf_section_iter_item_set              0x0002b60e   Section        0  nrf_section_iter.o(i.nrf_section_iter_item_set)
    nrf_section_iter_item_set                0x0002b60f   Thumb Code    46  nrf_section_iter.o(i.nrf_section_iter_item_set)
    i.nrf_section_iter_next                  0x0002b63c   Section        0  nrf_section_iter.o(i.nrf_section_iter_next)
    i.nrf_sortlist_add                       0x0002b66a   Section        0  nrf_sortlist.o(i.nrf_sortlist_add)
    i.nrf_sortlist_peek                      0x0002b692   Section        0  nrf_sortlist.o(i.nrf_sortlist_peek)
    i.nrf_sortlist_pop                       0x0002b69a   Section        0  nrf_sortlist.o(i.nrf_sortlist_pop)
    i.nrf_sortlist_remove                    0x0002b6b2   Section        0  nrf_sortlist.o(i.nrf_sortlist_remove)
    i.nrf_strerror_find                      0x0002b6d8   Section        0  nrf_strerror.o(i.nrf_strerror_find)
    i.nrf_strerror_get                       0x0002b718   Section        0  nrf_strerror.o(i.nrf_strerror_get)
    i.nrf_uart_errorsrc_get_and_clear        0x0002b734   Section        0  nrfx_uart.o(i.nrf_uart_errorsrc_get_and_clear)
    nrf_uart_errorsrc_get_and_clear          0x0002b735   Thumb Code    12  nrfx_uart.o(i.nrf_uart_errorsrc_get_and_clear)
    i.nrf_uart_event_check                   0x0002b740   Section        0  nrfx_uart.o(i.nrf_uart_event_check)
    nrf_uart_event_check                     0x0002b741   Thumb Code    14  nrfx_uart.o(i.nrf_uart_event_check)
    i.nrf_uart_event_clear                   0x0002b74e   Section        0  nrfx_uart.o(i.nrf_uart_event_clear)
    nrf_uart_event_clear                     0x0002b74f   Thumb Code    14  nrfx_uart.o(i.nrf_uart_event_clear)
    i.nrf_uart_hwfc_pins_set                 0x0002b75c   Section        0  nrfx_uart.o(i.nrf_uart_hwfc_pins_set)
    nrf_uart_hwfc_pins_set                   0x0002b75d   Thumb Code    12  nrfx_uart.o(i.nrf_uart_hwfc_pins_set)
    i.nrf_uart_int_disable                   0x0002b768   Section        0  nrfx_uart.o(i.nrf_uart_int_disable)
    nrf_uart_int_disable                     0x0002b769   Thumb Code     6  nrfx_uart.o(i.nrf_uart_int_disable)
    i.nrf_uart_int_enable                    0x0002b76e   Section        0  nrfx_uart.o(i.nrf_uart_int_enable)
    nrf_uart_int_enable                      0x0002b76f   Thumb Code     6  nrfx_uart.o(i.nrf_uart_int_enable)
    i.nrf_uart_int_enable_check              0x0002b774   Section        0  nrfx_uart.o(i.nrf_uart_int_enable_check)
    nrf_uart_int_enable_check                0x0002b775   Thumb Code    18  nrfx_uart.o(i.nrf_uart_int_enable_check)
    i.nrf_uart_task_trigger                  0x0002b786   Section        0  nrfx_uart.o(i.nrf_uart_task_trigger)
    nrf_uart_task_trigger                    0x0002b787   Thumb Code     6  nrfx_uart.o(i.nrf_uart_task_trigger)
    i.nrf_uart_txrx_pins_set                 0x0002b78c   Section        0  nrfx_uart.o(i.nrf_uart_txrx_pins_set)
    nrf_uart_txrx_pins_set                   0x0002b78d   Thumb Code    14  nrfx_uart.o(i.nrf_uart_txrx_pins_set)
    i.nrf_uarte_errorsrc_get_and_clear       0x0002b79a   Section        0  nrfx_uarte.o(i.nrf_uarte_errorsrc_get_and_clear)
    nrf_uarte_errorsrc_get_and_clear         0x0002b79b   Thumb Code    12  nrfx_uarte.o(i.nrf_uarte_errorsrc_get_and_clear)
    i.nrf_uarte_event_check                  0x0002b7a6   Section        0  nrfx_uarte.o(i.nrf_uarte_event_check)
    nrf_uarte_event_check                    0x0002b7a7   Thumb Code    14  nrfx_uarte.o(i.nrf_uarte_event_check)
    i.nrf_uarte_event_clear                  0x0002b7b4   Section        0  nrfx_uarte.o(i.nrf_uarte_event_clear)
    nrf_uarte_event_clear                    0x0002b7b5   Thumb Code    14  nrfx_uarte.o(i.nrf_uarte_event_clear)
    i.nrf_uarte_hwfc_pins_set                0x0002b7c2   Section        0  nrfx_uarte.o(i.nrf_uarte_hwfc_pins_set)
    nrf_uarte_hwfc_pins_set                  0x0002b7c3   Thumb Code    12  nrfx_uarte.o(i.nrf_uarte_hwfc_pins_set)
    i.nrf_uarte_int_disable                  0x0002b7ce   Section        0  nrfx_uarte.o(i.nrf_uarte_int_disable)
    nrf_uarte_int_disable                    0x0002b7cf   Thumb Code     6  nrfx_uarte.o(i.nrf_uarte_int_disable)
    i.nrf_uarte_int_enable                   0x0002b7d4   Section        0  nrfx_uarte.o(i.nrf_uarte_int_enable)
    nrf_uarte_int_enable                     0x0002b7d5   Thumb Code     6  nrfx_uarte.o(i.nrf_uarte_int_enable)
    i.nrf_uarte_rx_amount_get                0x0002b7da   Section        0  nrfx_uarte.o(i.nrf_uarte_rx_amount_get)
    nrf_uarte_rx_amount_get                  0x0002b7db   Thumb Code    10  nrfx_uarte.o(i.nrf_uarte_rx_amount_get)
    i.nrf_uarte_shorts_disable               0x0002b7e4   Section        0  nrfx_uarte.o(i.nrf_uarte_shorts_disable)
    nrf_uarte_shorts_disable                 0x0002b7e5   Thumb Code    12  nrfx_uarte.o(i.nrf_uarte_shorts_disable)
    i.nrf_uarte_task_trigger                 0x0002b7f0   Section        0  nrfx_uarte.o(i.nrf_uarte_task_trigger)
    nrf_uarte_task_trigger                   0x0002b7f1   Thumb Code     6  nrfx_uarte.o(i.nrf_uarte_task_trigger)
    i.nrf_uarte_tx_amount_get                0x0002b7f6   Section        0  nrfx_uarte.o(i.nrf_uarte_tx_amount_get)
    nrf_uarte_tx_amount_get                  0x0002b7f7   Thumb Code    10  nrfx_uarte.o(i.nrf_uarte_tx_amount_get)
    i.nrf_uarte_txrx_pins_set                0x0002b800   Section        0  nrfx_uarte.o(i.nrf_uarte_txrx_pins_set)
    nrf_uarte_txrx_pins_set                  0x0002b801   Thumb Code    14  nrfx_uarte.o(i.nrf_uarte_txrx_pins_set)
    i.nrf_wdt_started                        0x0002b810   Section        0  nrf_drv_clock.o(i.nrf_wdt_started)
    nrf_wdt_started                          0x0002b811   Thumb Code    14  nrf_drv_clock.o(i.nrf_wdt_started)
    i.nrfx_clock_enable                      0x0002b824   Section        0  nrfx_clock.o(i.nrfx_clock_enable)
    i.nrfx_clock_init                        0x0002b838   Section        0  nrfx_clock.o(i.nrfx_clock_init)
    i.nrfx_clock_lfclk_stop                  0x0002b858   Section        0  nrfx_clock.o(i.nrfx_clock_lfclk_stop)
    i.nrfx_coredep_delay_us                  0x0002b884   Section        0  drv_rtc.o(i.nrfx_coredep_delay_us)
    nrfx_coredep_delay_us                    0x0002b885   Thumb Code    20  drv_rtc.o(i.nrfx_coredep_delay_us)
    i.nrfx_get_irq_number                    0x0002b89c   Section        0  nrfx_clock.o(i.nrfx_get_irq_number)
    nrfx_get_irq_number                      0x0002b89d   Thumb Code     8  nrfx_clock.o(i.nrfx_get_irq_number)
    i.nrfx_get_irq_number                    0x0002b8a4   Section        0  nrfx_gpiote.o(i.nrfx_get_irq_number)
    nrfx_get_irq_number                      0x0002b8a5   Thumb Code     8  nrfx_gpiote.o(i.nrfx_get_irq_number)
    i.nrfx_get_irq_number                    0x0002b8ac   Section        0  nrfx_uart.o(i.nrfx_get_irq_number)
    nrfx_get_irq_number                      0x0002b8ad   Thumb Code     8  nrfx_uart.o(i.nrfx_get_irq_number)
    i.nrfx_get_irq_number                    0x0002b8b4   Section        0  nrfx_uarte.o(i.nrfx_get_irq_number)
    nrfx_get_irq_number                      0x0002b8b5   Thumb Code     8  nrfx_uarte.o(i.nrfx_get_irq_number)
    i.nrfx_gpiote_in_event_enable            0x0002b8bc   Section        0  nrfx_gpiote.o(i.nrfx_gpiote_in_event_enable)
    i.nrfx_gpiote_in_init                    0x0002b968   Section        0  nrfx_gpiote.o(i.nrfx_gpiote_in_init)
    i.nrfx_gpiote_in_is_set                  0x0002ba5c   Section        0  nrfx_gpiote.o(i.nrfx_gpiote_in_is_set)
    i.nrfx_gpiote_init                       0x0002ba70   Section        0  nrfx_gpiote.o(i.nrfx_gpiote_init)
    i.nrfx_gpiote_is_init                    0x0002bb44   Section        0  nrfx_gpiote.o(i.nrfx_gpiote_is_init)
    i.nrfx_is_in_ram                         0x0002bb58   Section        0  nrfx_uarte.o(i.nrfx_is_in_ram)
    nrfx_is_in_ram                           0x0002bb59   Thumb Code    20  nrfx_uarte.o(i.nrfx_is_in_ram)
    i.nrfx_power_clock_irq_init              0x0002bb6c   Section        0  nrfx_clock.o(i.nrfx_power_clock_irq_init)
    nrfx_power_clock_irq_init                0x0002bb6d   Thumb Code   168  nrfx_clock.o(i.nrfx_power_clock_irq_init)
    i.nrfx_prs_acquire                       0x0002bc1c   Section        0  nrfx_prs.o(i.nrfx_prs_acquire)
    i.nrfx_uart_0_irq_handler                0x0002bc6c   Section        0  nrfx_uart.o(i.nrfx_uart_0_irq_handler)
    i.nrfx_uart_init                         0x0002bc80   Section        0  nrfx_uart.o(i.nrfx_uart_init)
    i.nrfx_uart_rx                           0x0002bd08   Section        0  nrfx_uart.o(i.nrfx_uart_rx)
    i.nrfx_uart_tx                           0x0002be2c   Section        0  nrfx_uart.o(i.nrfx_uart_tx)
    i.nrfx_uart_tx_in_progress               0x0002beb8   Section        0  nrfx_uart.o(i.nrfx_uart_tx_in_progress)
    i.nrfx_uarte_0_irq_handler               0x0002bedc   Section        0  nrfx_uarte.o(i.nrfx_uarte_0_irq_handler)
    i.nrfx_uarte_init                        0x0002bef0   Section        0  nrfx_uarte.o(i.nrfx_uarte_init)
    i.nrfx_uarte_rx                          0x0002bf70   Section        0  nrfx_uarte.o(i.nrfx_uarte_rx)
    i.nrfx_uarte_tx                          0x0002c0a8   Section        0  nrfx_uarte.o(i.nrfx_uarte_tx)
    i.nrfx_uarte_tx_in_progress              0x0002c168   Section        0  nrfx_uarte.o(i.nrfx_uarte_tx_in_progress)
    i.nus_data_handler                       0x0002c188   Section        0  main.o(i.nus_data_handler)
    nus_data_handler                         0x0002c189   Thumb Code   158  main.o(i.nus_data_handler)
    i.nvmc_config                            0x0002c290   Section        0  system_nrf52_1.o(i.nvmc_config)
    i.nvmc_wait                              0x0002c2a4   Section        0  system_nrf52_1.o(i.nvmc_wait)
    i.on_adv_evt                             0x0002c2b4   Section        0  main.o(i.on_adv_evt)
    on_adv_evt                               0x0002c2b5   Thumb Code    50  main.o(i.on_adv_evt)
    i.on_compare1_evt                        0x0002c2e8   Section        0  app_timer2.o(i.on_compare1_evt)
    on_compare1_evt                          0x0002c2e9   Thumb Code    14  app_timer2.o(i.on_compare1_evt)
    i.on_compare_evt                         0x0002c2fc   Section        0  app_timer2.o(i.on_compare_evt)
    on_compare_evt                           0x0002c2fd   Thumb Code    26  app_timer2.o(i.on_compare_evt)
    i.on_conn_params_evt                     0x0002c31c   Section        0  main.o(i.on_conn_params_evt)
    on_conn_params_evt                       0x0002c31d   Thumb Code    38  main.o(i.on_conn_params_evt)
    i.on_conn_params_update                  0x0002c348   Section        0  ble_conn_params.o(i.on_conn_params_update)
    on_conn_params_update                    0x0002c349   Thumb Code    48  ble_conn_params.o(i.on_conn_params_update)
    i.on_connect                             0x0002c378   Section        0  ble_conn_params.o(i.on_connect)
    on_connect                               0x0002c379   Thumb Code   102  ble_conn_params.o(i.on_connect)
    i.on_connect                             0x0002c3e8   Section        0  ble_nus.o(i.on_connect)
    on_connect                               0x0002c3e9   Thumb Code   116  ble_nus.o(i.on_connect)
    i.on_connected                           0x0002c45c   Section        0  ble_advertising.o(i.on_connected)
    on_connected                             0x0002c45d   Thumb Code    14  ble_advertising.o(i.on_connected)
    i.on_connected_evt                       0x0002c46c   Section        0  nrf_ble_gatt.o(i.on_connected_evt)
    on_connected_evt                         0x0002c46d   Thumb Code   154  nrf_ble_gatt.o(i.on_connected_evt)
    i.on_disconnect                          0x0002c588   Section        0  ble_conn_params.o(i.on_disconnect)
    on_disconnect                            0x0002c589   Thumb Code    50  ble_conn_params.o(i.on_disconnect)
    i.on_disconnected                        0x0002c5ba   Section        0  ble_advertising.o(i.on_disconnected)
    on_disconnected                          0x0002c5bb   Thumb Code    50  ble_advertising.o(i.on_disconnected)
    i.on_disconnected_evt                    0x0002c5ec   Section        0  nrf_ble_gatt.o(i.on_disconnected_evt)
    on_disconnected_evt                      0x0002c5ed   Thumb Code    24  nrf_ble_gatt.o(i.on_disconnected_evt)
    i.on_exchange_mtu_request_evt            0x0002c604   Section        0  nrf_ble_gatt.o(i.on_exchange_mtu_request_evt)
    on_exchange_mtu_request_evt              0x0002c605   Thumb Code   200  nrf_ble_gatt.o(i.on_exchange_mtu_request_evt)
    i.on_exchange_mtu_rsp_evt                0x0002c784   Section        0  nrf_ble_gatt.o(i.on_exchange_mtu_rsp_evt)
    on_exchange_mtu_rsp_evt                  0x0002c785   Thumb Code   122  nrf_ble_gatt.o(i.on_exchange_mtu_rsp_evt)
    i.on_hvx_tx_complete                     0x0002c848   Section        0  ble_nus.o(i.on_hvx_tx_complete)
    on_hvx_tx_complete                       0x0002c849   Thumb Code    72  ble_nus.o(i.on_hvx_tx_complete)
    i.on_overflow_evt                        0x0002c890   Section        0  app_timer2.o(i.on_overflow_evt)
    on_overflow_evt                          0x0002c891   Thumb Code    24  app_timer2.o(i.on_overflow_evt)
    i.on_rw_authorize_request                0x0002c8ac   Section        0  nrf_ble_qwr.o(i.on_rw_authorize_request)
    on_rw_authorize_request                  0x0002c8ad   Thumb Code   106  nrf_ble_qwr.o(i.on_rw_authorize_request)
    i.on_terminated                          0x0002c916   Section        0  ble_advertising.o(i.on_terminated)
    on_terminated                            0x0002c917   Thumb Code    64  ble_advertising.o(i.on_terminated)
    i.on_user_mem_release                    0x0002c956   Section        0  nrf_ble_qwr.o(i.on_user_mem_release)
    on_user_mem_release                      0x0002c957   Thumb Code     2  nrf_ble_qwr.o(i.on_user_mem_release)
    i.on_user_mem_request                    0x0002c958   Section        0  nrf_ble_qwr.o(i.on_user_mem_request)
    on_user_mem_request                      0x0002c959   Thumb Code    32  nrf_ble_qwr.o(i.on_user_mem_request)
    i.on_write                               0x0002c978   Section        0  ble_conn_params.o(i.on_write)
    on_write                                 0x0002c979   Thumb Code    82  ble_conn_params.o(i.on_write)
    i.on_write                               0x0002c9d0   Section        0  ble_nus.o(i.on_write)
    on_write                                 0x0002c9d1   Thumb Code   148  ble_nus.o(i.on_write)
    i.phy_is_valid                           0x0002ca64   Section        0  ble_advertising.o(i.phy_is_valid)
    phy_is_valid                             0x0002ca65   Thumb Code    22  ble_advertising.o(i.phy_is_valid)
    i.pin_configured_set                     0x0002ca7c   Section        0  nrfx_gpiote.o(i.pin_configured_set)
    pin_configured_set                       0x0002ca7d   Thumb Code    28  nrfx_gpiote.o(i.pin_configured_set)
    i.pin_in_use_by_gpiote                   0x0002ca9c   Section        0  nrfx_gpiote.o(i.pin_in_use_by_gpiote)
    pin_in_use_by_gpiote                     0x0002ca9d   Thumb Code    22  nrfx_gpiote.o(i.pin_in_use_by_gpiote)
    i.pin_in_use_by_port                     0x0002cab8   Section        0  nrfx_gpiote.o(i.pin_in_use_by_port)
    pin_in_use_by_port                       0x0002cab9   Thumb Code    18  nrfx_gpiote.o(i.pin_in_use_by_port)
    i.pin_in_use_by_te                       0x0002cad0   Section        0  nrfx_gpiote.o(i.pin_in_use_by_te)
    pin_in_use_by_te                         0x0002cad1   Thumb Code    26  nrfx_gpiote.o(i.pin_in_use_by_te)
    i.pin_in_use_clear                       0x0002caf0   Section        0  nrfx_gpiote.o(i.pin_in_use_clear)
    pin_in_use_clear                         0x0002caf1   Thumb Code     8  nrfx_gpiote.o(i.pin_in_use_clear)
    i.port_event_handle                      0x0002cafc   Section        0  nrfx_gpiote.o(i.port_event_handle)
    port_event_handle                        0x0002cafd   Thumb Code   186  nrfx_gpiote.o(i.port_event_handle)
    i.port_handler_pin_get                   0x0002cbbc   Section        0  nrfx_gpiote.o(i.port_handler_pin_get)
    port_handler_pin_get                     0x0002cbbd   Thumb Code    12  nrfx_gpiote.o(i.port_handler_pin_get)
    i.port_handler_polarity_get              0x0002cbcc   Section        0  nrfx_gpiote.o(i.port_handler_polarity_get)
    port_handler_polarity_get                0x0002cbcd   Thumb Code    10  nrfx_gpiote.o(i.port_handler_polarity_get)
    i.postfix_process                        0x0002cbdc   Section        0  nrf_log_str_formatter.o(i.postfix_process)
    postfix_process                          0x0002cbdd   Thumb Code    58  nrf_log_str_formatter.o(i.postfix_process)
    i.power_management_init                  0x0002cc24   Section        0  main.o(i.power_management_init)
    power_management_init                    0x0002cc25   Thumb Code    28  main.o(i.power_management_init)
    i.prefix_process                         0x0002cc40   Section        0  nrf_log_str_formatter.o(i.prefix_process)
    prefix_process                           0x0002cc41   Thumb Code    98  nrf_log_str_formatter.o(i.prefix_process)
    i.prs_box_get                            0x0002cce4   Section        0  nrfx_prs.o(i.prs_box_get)
    prs_box_get                              0x0002cce5   Thumb Code    16  nrfx_prs.o(i.prs_box_get)
    i.ram_end_address_get                    0x0002ccfc   Section        0  nrf_sdh_ble.o(i.ram_end_address_get)
    ram_end_address_get                      0x0002ccfd   Thumb Code    12  nrf_sdh_ble.o(i.ram_end_address_get)
    i.record_activate                        0x0002cd0c   Section        0  ble_conn_state.o(i.record_activate)
    record_activate                          0x0002cd0d   Thumb Code    34  ble_conn_state.o(i.record_activate)
    i.record_invalidate                      0x0002cd34   Section        0  ble_conn_state.o(i.record_invalidate)
    record_invalidate                        0x0002cd35   Thumb Code    28  ble_conn_state.o(i.record_invalidate)
    i.record_purge_disconnected              0x0002cd54   Section        0  ble_conn_state.o(i.record_purge_disconnected)
    record_purge_disconnected                0x0002cd55   Thumb Code    66  ble_conn_state.o(i.record_purge_disconnected)
    i.record_set_disconnected                0x0002cd9c   Section        0  ble_conn_state.o(i.record_set_disconnected)
    record_set_disconnected                  0x0002cd9d   Thumb Code    14  ble_conn_state.o(i.record_set_disconnected)
    i.rtc_irq                                0x0002cdb0   Section        0  app_timer2.o(i.rtc_irq)
    rtc_irq                                  0x0002cdb1   Thumb Code    62  app_timer2.o(i.rtc_irq)
    i.rtc_schedule                           0x0002cdf0   Section        0  app_timer2.o(i.rtc_schedule)
    rtc_schedule                             0x0002cdf1   Thumb Code   116  app_timer2.o(i.rtc_schedule)
    i.rtc_update                             0x0002ce6c   Section        0  app_timer2.o(i.rtc_update)
    rtc_update                               0x0002ce6d   Thumb Code   154  app_timer2.o(i.rtc_update)
    i.rx_byte                                0x0002cf10   Section        0  nrfx_uart.o(i.rx_byte)
    rx_byte                                  0x0002cf11   Thumb Code    62  nrfx_uart.o(i.rx_byte)
    i.rx_done_event                          0x0002cf4e   Section        0  nrfx_uart.o(i.rx_done_event)
    rx_done_event                            0x0002cf4f   Thumb Code    28  nrfx_uart.o(i.rx_done_event)
    i.rx_done_event                          0x0002cf6a   Section        0  nrfx_uarte.o(i.rx_done_event)
    rx_done_event                            0x0002cf6b   Thumb Code    28  nrfx_uarte.o(i.rx_done_event)
    i.rx_enable                              0x0002cf86   Section        0  nrfx_uart.o(i.rx_enable)
    rx_enable                                0x0002cf87   Thumb Code    34  nrfx_uart.o(i.rx_enable)
    i.sd_nvic_EnableIRQ                      0x0002cfa8   Section        0  nrf_sdh.o(i.sd_nvic_EnableIRQ)
    sd_nvic_EnableIRQ                        0x0002cfa9   Thumb Code   150  nrf_sdh.o(i.sd_nvic_EnableIRQ)
    i.sd_nvic_critical_region_enter          0x0002d04c   Section        0  app_util_platform.o(i.sd_nvic_critical_region_enter)
    sd_nvic_critical_region_enter            0x0002d04d   Thumb Code    90  app_util_platform.o(i.sd_nvic_critical_region_enter)
    i.sd_state_evt_handler                   0x0002d0b4   Section        0  nrf_drv_clock.o(i.sd_state_evt_handler)
    sd_state_evt_handler                     0x0002d0b5   Thumb Code   136  nrf_drv_clock.o(i.sd_state_evt_handler)
    i.sdh_request_observer_notify            0x0002d144   Section        0  nrf_sdh.o(i.sdh_request_observer_notify)
    sdh_request_observer_notify              0x0002d145   Thumb Code    56  nrf_sdh.o(i.sdh_request_observer_notify)
    i.sdh_state_observer_notify              0x0002d180   Section        0  nrf_sdh.o(i.sdh_state_observer_notify)
    sdh_state_observer_notify                0x0002d181   Thumb Code    48  nrf_sdh.o(i.sdh_state_observer_notify)
    i.send_error_evt                         0x0002d1b4   Section        0  ble_conn_params.o(i.send_error_evt)
    send_error_evt                           0x0002d1b5   Thumb Code    20  ble_conn_params.o(i.send_error_evt)
    i.send_update_request                    0x0002d1cc   Section        0  ble_conn_params.o(i.send_update_request)
    send_update_request                      0x0002d1cd   Thumb Code    36  ble_conn_params.o(i.send_update_request)
    i.serial_tx                              0x0002d1f0   Section        0  nrf_log_backend_rtt.o(i.serial_tx)
    serial_tx                                0x0002d1f1   Thumb Code   124  nrf_log_backend_rtt.o(i.serial_tx)
    i.service_data_encode                    0x0002d274   Section        0  ble_advdata.o(i.service_data_encode)
    service_data_encode                      0x0002d275   Thumb Code   150  ble_advdata.o(i.service_data_encode)
    i.services_init                          0x0002d30c   Section        0  main.o(i.services_init)
    services_init                            0x0002d30d   Thumb Code    76  main.o(i.services_init)
    i.set_adv_mode_directed                  0x0002d368   Section        0  ble_advertising.o(i.set_adv_mode_directed)
    set_adv_mode_directed                    0x0002d369   Thumb Code    36  ble_advertising.o(i.set_adv_mode_directed)
    i.set_adv_mode_directed_high_duty        0x0002d38c   Section        0  ble_advertising.o(i.set_adv_mode_directed_high_duty)
    set_adv_mode_directed_high_duty          0x0002d38d   Thumb Code    36  ble_advertising.o(i.set_adv_mode_directed_high_duty)
    i.set_adv_mode_fast                      0x0002d3b0   Section        0  ble_advertising.o(i.set_adv_mode_fast)
    set_adv_mode_fast                        0x0002d3b1   Thumb Code    78  ble_advertising.o(i.set_adv_mode_fast)
    i.set_adv_mode_slow                      0x0002d3fe   Section        0  ble_advertising.o(i.set_adv_mode_slow)
    set_adv_mode_slow                        0x0002d3ff   Thumb Code    78  ble_advertising.o(i.set_adv_mode_slow)
    i.set_security_req                       0x0002d44c   Section        0  ble_srv_common.o(i.set_security_req)
    set_security_req                         0x0002d44d   Thumb Code   190  ble_srv_common.o(i.set_security_req)
    i.sleep_mode_enter                       0x0002d50a   Section        0  main.o(i.sleep_mode_enter)
    sleep_mode_enter                         0x0002d50b   Thumb Code    76  main.o(i.sleep_mode_enter)
    i.soc_evt_handler                        0x0002d558   Section        0  nrf_drv_clock.o(i.soc_evt_handler)
    soc_evt_handler                          0x0002d559   Thumb Code    22  nrf_drv_clock.o(i.soc_evt_handler)
    i.softdevices_evt_irq_enable             0x0002d574   Section        0  nrf_sdh.o(i.softdevices_evt_irq_enable)
    softdevices_evt_irq_enable               0x0002d575   Thumb Code    30  nrf_sdh.o(i.softdevices_evt_irq_enable)
    i.sorted_list_stop_all                   0x0002d592   Section        0  app_timer2.o(i.sorted_list_stop_all)
    sorted_list_stop_all                     0x0002d593   Thumb Code    20  app_timer2.o(i.sorted_list_stop_all)
    i.sortlist_pop                           0x0002d5a8   Section        0  app_timer2.o(i.sortlist_pop)
    sortlist_pop                             0x0002d5a9   Thumb Code    20  app_timer2.o(i.sortlist_pop)
    i.startup_event_extract                  0x0002d5c0   Section        0  bsp_btn_ble.o(i.startup_event_extract)
    startup_event_extract                    0x0002d5c1   Thumb Code    38  bsp_btn_ble.o(i.startup_event_extract)
    i.state_get                              0x0002d5e8   Section        0  app_button.o(i.state_get)
    state_get                                0x0002d5e9   Thumb Code    28  app_button.o(i.state_get)
    i.state_set                              0x0002d608   Section        0  app_button.o(i.state_set)
    state_set                                0x0002d609   Thumb Code    68  app_button.o(i.state_set)
    i.std_header_set                         0x0002d650   Section        0  nrf_log_frontend.o(i.std_header_set)
    std_header_set                           0x0002d651   Thumb Code    96  nrf_log_frontend.o(i.std_header_set)
    i.std_n                                  0x0002d6b4   Section        0  nrf_log_frontend.o(i.std_n)
    std_n                                    0x0002d6b5   Thumb Code   104  nrf_log_frontend.o(i.std_n)
    i.string_print                           0x0002d724   Section        0  nrf_fprintf_format.o(i.string_print)
    string_print                             0x0002d725   Thumb Code   116  nrf_fprintf_format.o(i.string_print)
    i.ticks_sub                              0x0002d798   Section        0  drv_rtc.o(i.ticks_sub)
    ticks_sub                                0x0002d799   Thumb Code    10  drv_rtc.o(i.ticks_sub)
    i.timer_expire                           0x0002d7a4   Section        0  app_timer2.o(i.timer_expire)
    timer_expire                             0x0002d7a5   Thumb Code    98  app_timer2.o(i.timer_expire)
    i.timer_req_process                      0x0002d810   Section        0  app_timer2.o(i.timer_req_process)
    timer_req_process                        0x0002d811   Thumb Code   130  app_timer2.o(i.timer_req_process)
    i.timer_req_schedule                     0x0002d8a4   Section        0  app_timer2.o(i.timer_req_schedule)
    timer_req_schedule                       0x0002d8a5   Thumb Code    56  app_timer2.o(i.timer_req_schedule)
    i.timer_start                            0x0002d8e4   Section        0  app_button.o(i.timer_start)
    timer_start                              0x0002d8e5   Thumb Code    22  app_button.o(i.timer_start)
    i.timers_init                            0x0002d904   Section        0  main.o(i.timers_init)
    timers_init                              0x0002d905   Thumb Code    28  main.o(i.timers_init)
    i.timestamp_print                        0x0002d920   Section        0  nrf_log_str_formatter.o(i.timestamp_print)
    timestamp_print                          0x0002d921   Thumb Code     2  nrf_log_str_formatter.o(i.timestamp_print)
    i.tx_blocking                            0x0002d922   Section        0  nrfx_uart.o(i.tx_blocking)
    tx_blocking                              0x0002d923   Thumb Code    54  nrfx_uart.o(i.tx_blocking)
    i.tx_byte                                0x0002d958   Section        0  nrfx_uart.o(i.tx_byte)
    tx_byte                                  0x0002d959   Thumb Code    38  nrfx_uart.o(i.tx_byte)
    i.tx_done_event                          0x0002d97e   Section        0  nrfx_uart.o(i.tx_done_event)
    tx_done_event                            0x0002d97f   Thumb Code    32  nrfx_uart.o(i.tx_done_event)
    i.tx_done_event                          0x0002d99e   Section        0  nrfx_uarte.o(i.tx_done_event)
    tx_done_event                            0x0002d99f   Thumb Code    32  nrfx_uarte.o(i.tx_done_event)
    i.tx_power_level_encode                  0x0002d9be   Section        0  ble_advdata.o(i.tx_power_level_encode)
    tx_power_level_encode                    0x0002d9bf   Thumb Code    54  ble_advdata.o(i.tx_power_level_encode)
    i.uart_event_handle                      0x0002d9f4   Section        0  main.o(i.uart_event_handle)
    i.uart_event_handler                     0x0002db14   Section        0  app_uart_fifo.o(i.uart_event_handler)
    uart_event_handler                       0x0002db15   Thumb Code   200  app_uart_fifo.o(i.uart_event_handler)
    i.uart_evt_handler                       0x0002dbf8   Section        0  nrf_drv_uart.o(i.uart_evt_handler)
    uart_evt_handler                         0x0002dbf9   Thumb Code    46  nrf_drv_uart.o(i.uart_evt_handler)
    i.uart_init                              0x0002dc30   Section        0  main.o(i.uart_init)
    uart_init                                0x0002dc31   Thumb Code    74  main.o(i.uart_init)
    i.uart_irq_handler                       0x0002dc8c   Section        0  nrfx_uart.o(i.uart_irq_handler)
    uart_irq_handler                         0x0002dc8d   Thumb Code   334  nrfx_uart.o(i.uart_irq_handler)
    i.uarte_evt_handler                      0x0002dddc   Section        0  nrf_drv_uart.o(i.uarte_evt_handler)
    uarte_evt_handler                        0x0002dddd   Thumb Code    46  nrf_drv_uart.o(i.uarte_evt_handler)
    i.uarte_irq_handler                      0x0002de14   Section        0  nrfx_uarte.o(i.uarte_irq_handler)
    uarte_irq_handler                        0x0002de15   Thumb Code   308  nrfx_uarte.o(i.uarte_irq_handler)
    i.uint16_decode                          0x0002df48   Section        0  ble_srv_common.o(i.uint16_decode)
    uint16_decode                            0x0002df49   Thumb Code    12  ble_srv_common.o(i.uint16_decode)
    i.uint16_encode                          0x0002df54   Section        0  ble_advdata.o(i.uint16_encode)
    uint16_encode                            0x0002df55   Thumb Code    12  ble_advdata.o(i.uint16_encode)
    i.unsigned_print                         0x0002df60   Section        0  nrf_fprintf_format.o(i.unsigned_print)
    unsigned_print                           0x0002df61   Thumb Code   178  nrf_fprintf_format.o(i.unsigned_print)
    i.update_timeout_handler                 0x0002e018   Section        0  ble_conn_params.o(i.update_timeout_handler)
    update_timeout_handler                   0x0002e019   Thumb Code   110  ble_conn_params.o(i.update_timeout_handler)
    i.use_whitelist                          0x0002e08c   Section        0  ble_advertising.o(i.use_whitelist)
    use_whitelist                            0x0002e08d   Thumb Code    30  ble_advertising.o(i.use_whitelist)
    i.user_mem_reply                         0x0002e0aa   Section        0  nrf_ble_qwr.o(i.user_mem_reply)
    user_mem_reply                           0x0002e0ab   Thumb Code    44  nrf_ble_qwr.o(i.user_mem_reply)
    i.usr_event                              0x0002e0d6   Section        0  app_button.o(i.usr_event)
    usr_event                                0x0002e0d7   Thumb Code    30  app_button.o(i.usr_event)
    i.uuid_list_encode                       0x0002e0f4   Section        0  ble_advdata.o(i.uuid_list_encode)
    uuid_list_encode                         0x0002e0f5   Thumb Code    78  ble_advdata.o(i.uuid_list_encode)
    i.uuid_list_sized_encode                 0x0002e142   Section        0  ble_advdata.o(i.uuid_list_sized_encode)
    uuid_list_sized_encode                   0x0002e143   Thumb Code   214  ble_advdata.o(i.uuid_list_sized_encode)
    i.wakeup_button_cfg                      0x0002e218   Section        0  bsp.o(i.wakeup_button_cfg)
    wakeup_button_cfg                        0x0002e219   Thumb Code    86  bsp.o(i.wakeup_button_cfg)
    i.whitelist_has_entries                  0x0002e26e   Section        0  ble_advertising.o(i.whitelist_has_entries)
    whitelist_has_entries                    0x0002e26f   Thumb Code     8  ble_advertising.o(i.whitelist_has_entries)
    .constdata                               0x0002e280   Section       32  main.o(.constdata)
    delay_machine_code                       0x0002e280   Data           6  main.o(.constdata)
    .constdata                               0x0002e2a0   Section        4  boards.o(.constdata)
    m_board_btn_list                         0x0002e2a0   Data           4  boards.o(.constdata)
    .constdata                               0x0002e2a4   Section       36  bsp.o(.constdata)
    m_bsp_button_tmr                         0x0002e2a4   Data           4  bsp.o(.constdata)
    app_buttons                              0x0002e2a8   Data          32  bsp.o(.constdata)
    .constdata                               0x0002e2c8   Section       14  nrf_ble_gatt.o(.constdata)
    .constdata                               0x0002e2d8   Section       16  ble_nus.o(.constdata)
    .constdata                               0x0002e2e8   Section       62  nrfx_gpiote.o(.constdata)
    __func__                                 0x0002e2ec   Data          17  nrfx_gpiote.o(.constdata)
    __func__                                 0x0002e2fd   Data          21  nrfx_gpiote.o(.constdata)
    __func__                                 0x0002e312   Data          20  nrfx_gpiote.o(.constdata)
    .constdata                               0x0002e328   Section       46  nrfx_uart.o(.constdata)
    __func__                                 0x0002e328   Data          15  nrfx_uart.o(.constdata)
    irq_handlers                             0x0002e338   Data           4  nrfx_uart.o(.constdata)
    __func__                                 0x0002e33c   Data          13  nrfx_uart.o(.constdata)
    __func__                                 0x0002e349   Data          13  nrfx_uart.o(.constdata)
    .constdata                               0x0002e358   Section       48  nrfx_uarte.o(.constdata)
    __func__                                 0x0002e358   Data          16  nrfx_uarte.o(.constdata)
    irq_handlers                             0x0002e368   Data           4  nrfx_uarte.o(.constdata)
    __func__                                 0x0002e36c   Data          14  nrfx_uarte.o(.constdata)
    __func__                                 0x0002e37a   Data          14  nrfx_uarte.o(.constdata)
    .constdata                               0x0002e388   Section        7  app_button.o(.constdata)
    m_detection_delay_timer_id               0x0002e388   Data           4  app_button.o(.constdata)
    .constdata                               0x0002e390   Section       20  app_timer2.o(.constdata)
    m_req_fifo                               0x0002e390   Data           4  app_timer2.o(.constdata)
    m_app_timer_sortlist                     0x0002e394   Data          12  app_timer2.o(.constdata)
    .constdata                               0x0002e3a4   Section       32  app_uart_fifo.o(.constdata)
    .constdata                               0x0002e3d0   Section        6  drv_rtc.o(.constdata)
    delay_machine_code                       0x0002e3d0   Data           6  drv_rtc.o(.constdata)
    .constdata                               0x0002e3d6   Section       16  nrf_fprintf_format.o(.constdata)
    _aV2C                                    0x0002e3d6   Data          16  nrf_fprintf_format.o(.constdata)
    .constdata                               0x0002e3e8   Section       36  nrf_pwr_mgmt.o(.constdata)
    pwr_mgmt_data_array                      0x0002e3e8   Data          24  nrf_pwr_mgmt.o(.constdata)
    pwr_mgmt_data                            0x0002e400   Data          12  nrf_pwr_mgmt.o(.constdata)
    .constdata                               0x0002e40c   Section      316  nrf_strerror.o(.constdata)
    m_unknown_str                            0x0002e40c   Data          19  nrf_strerror.o(.constdata)
    nrf_strerror_array                       0x0002e420   Data         296  nrf_strerror.o(.constdata)
    .constdata                               0x0002e550   Section       22  nrf_log_backend_rtt.o(.constdata)
    delay_machine_code                       0x0002e560   Data           6  nrf_log_backend_rtt.o(.constdata)
    .constdata                               0x0002e568   Section       12  nrf_log_frontend.o(.constdata)
    m_log_push_ringbuf                       0x0002e568   Data          12  nrf_log_frontend.o(.constdata)
    .constdata                               0x0002e574   Section       88  nrf_sdh.o(.constdata)
    sdh_req_observers_array                  0x0002e574   Data          16  nrf_sdh.o(.constdata)
    sdh_req_observers                        0x0002e584   Data          12  nrf_sdh.o(.constdata)
    sdh_state_observers_array                0x0002e590   Data          16  nrf_sdh.o(.constdata)
    sdh_state_observers                      0x0002e5a0   Data          12  nrf_sdh.o(.constdata)
    sdh_stack_observers_array                0x0002e5ac   Data          16  nrf_sdh.o(.constdata)
    sdh_stack_observers                      0x0002e5bc   Data          12  nrf_sdh.o(.constdata)
    .constdata                               0x0002e5cc   Section       48  nrf_sdh_ble.o(.constdata)
    sdh_ble_observers_array                  0x0002e5cc   Data          32  nrf_sdh_ble.o(.constdata)
    sdh_ble_observers                        0x0002e5ec   Data          12  nrf_sdh_ble.o(.constdata)
    .constdata                               0x0002e5fc   Section       28  nrf_sdh_soc.o(.constdata)
    sdh_soc_observers_array                  0x0002e5fc   Data          16  nrf_sdh_soc.o(.constdata)
    sdh_soc_observers                        0x0002e60c   Data          12  nrf_sdh_soc.o(.constdata)
    .constdata                               0x0002e618   Section      129  ctype_o.o(.constdata)
    .constdata                               0x0002e69c   Section        4  ctype_o.o(.constdata)
    table                                    0x0002e69c   Data           4  ctype_o.o(.constdata)
    .conststring                             0x0002e6a0   Section      154  nrf_ble_gatt.o(.conststring)
    .conststring                             0x0002e73c   Section     1003  nrf_strerror.o(.conststring)
    .conststring                             0x0002eb28   Section      102  nrf_log_str_formatter.o(.conststring)
    .conststring                             0x0002eb90   Section      463  nrf_sdh_ble.o(.conststring)
    .conststrlit                             0x0002ed60   Section       13  nrf_ble_gatt.o(.conststrlit)
    .conststrlit                             0x0002ed70   Section        8  ble_nus.o(.conststrlit)
    .conststrlit                             0x0002ed78   Section        6  nrf_drv_clock.o(.conststrlit)
    .conststrlit                             0x0002ed80   Section        6  nrfx_clock.o(.conststrlit)
    .conststrlit                             0x0002ed88   Section        7  nrfx_gpiote.o(.conststrlit)
    .conststrlit                             0x0002ed90   Section        4  nrfx_prs.o(.conststrlit)
    .conststrlit                             0x0002ed94   Section        5  nrfx_uart.o(.conststrlit)
    .conststrlit                             0x0002ed9c   Section        6  nrfx_uarte.o(.conststrlit)
    .conststrlit                             0x0002eda4   Section       11  app_button.o(.conststrlit)
    .conststrlit                             0x0002edb0   Section       10  app_timer2.o(.conststrlit)
    .conststrlit                             0x0002edbc   Section        9  nrf_pwr_mgmt.o(.conststrlit)
    .conststrlit                             0x0002edc8   Section        9  nrf_sortlist.o(.conststrlit)
    .conststrlit                             0x0002edd4   Section       16  nrf_log_default_backends.o(.conststrlit)
    .conststrlit                             0x0002ede4   Section        4  nrf_log_frontend.o(.conststrlit)
    .conststrlit                             0x0002ede8   Section        8  nrf_sdh.o(.conststrlit)
    .conststrlit                             0x0002edf0   Section       12  nrf_sdh_ble.o(.conststrlit)
    .conststrlit                             0x0002edfc   Section       12  nrf_sdh_soc.o(.conststrlit)
    log_backends                             0x0002ee28   Section       16  nrf_log_default_backends.o(log_backends)
    __tagsym$$used                           0x0002ee28   Number         0  nrf_log_default_backends.o(log_backends)
    rtt_log_backend                          0x0002ee28   Data          16  nrf_log_default_backends.o(log_backends)
    log_const_data                           0x0002ee38   Section        8  nrf_ble_gatt.o(log_const_data)
    __tagsym$$used                           0x0002ee38   Number         0  nrf_ble_gatt.o(log_const_data)
    log_const_data                           0x0002ee40   Section        8  ble_nus.o(log_const_data)
    __tagsym$$used                           0x0002ee40   Number         0  ble_nus.o(log_const_data)
    log_const_data                           0x0002ee48   Section        8  nrf_drv_clock.o(log_const_data)
    __tagsym$$used                           0x0002ee48   Number         0  nrf_drv_clock.o(log_const_data)
    log_const_data                           0x0002ee50   Section        8  nrfx_clock.o(log_const_data)
    __tagsym$$used                           0x0002ee50   Number         0  nrfx_clock.o(log_const_data)
    log_const_data                           0x0002ee58   Section        8  nrfx_gpiote.o(log_const_data)
    __tagsym$$used                           0x0002ee58   Number         0  nrfx_gpiote.o(log_const_data)
    log_const_data                           0x0002ee60   Section        8  nrfx_prs.o(log_const_data)
    __tagsym$$used                           0x0002ee60   Number         0  nrfx_prs.o(log_const_data)
    log_const_data                           0x0002ee68   Section        8  nrfx_uart.o(log_const_data)
    __tagsym$$used                           0x0002ee68   Number         0  nrfx_uart.o(log_const_data)
    log_const_data                           0x0002ee70   Section        8  nrfx_uarte.o(log_const_data)
    __tagsym$$used                           0x0002ee70   Number         0  nrfx_uarte.o(log_const_data)
    log_const_data                           0x0002ee78   Section        8  app_button.o(log_const_data)
    __tagsym$$used                           0x0002ee78   Number         0  app_button.o(log_const_data)
    log_const_data                           0x0002ee80   Section        8  app_timer2.o(log_const_data)
    __tagsym$$used                           0x0002ee80   Number         0  app_timer2.o(log_const_data)
    log_const_data                           0x0002ee88   Section        8  nrf_pwr_mgmt.o(log_const_data)
    __tagsym$$used                           0x0002ee88   Number         0  nrf_pwr_mgmt.o(log_const_data)
    log_const_data                           0x0002ee90   Section        8  nrf_sortlist.o(log_const_data)
    __tagsym$$used                           0x0002ee90   Number         0  nrf_sortlist.o(log_const_data)
    log_const_data                           0x0002ee98   Section        8  nrf_log_frontend.o(log_const_data)
    __tagsym$$used                           0x0002ee98   Number         0  nrf_log_frontend.o(log_const_data)
    log_const_data                           0x0002eea0   Section        8  nrf_sdh.o(log_const_data)
    __tagsym$$used                           0x0002eea0   Number         0  nrf_sdh.o(log_const_data)
    log_const_data                           0x0002eea8   Section        8  nrf_sdh_ble.o(log_const_data)
    __tagsym$$used                           0x0002eea8   Number         0  nrf_sdh_ble.o(log_const_data)
    log_const_data                           0x0002eeb0   Section        8  nrf_sdh_soc.o(log_const_data)
    __tagsym$$used                           0x0002eeb0   Number         0  nrf_sdh_soc.o(log_const_data)
    nrf_balloc                               0x0002eeb8   Section       20  nrf_log_frontend.o(nrf_balloc)
    __tagsym$$used                           0x0002eeb8   Number         0  nrf_log_frontend.o(nrf_balloc)
    sdh_ble_observers0                       0x0002eecc   Section        8  ble_conn_state.o(sdh_ble_observers0)
    __tagsym$$used                           0x0002eecc   Number         0  ble_conn_state.o(sdh_ble_observers0)
    m_ble_evt_observer                       0x0002eecc   Data           8  ble_conn_state.o(sdh_ble_observers0)
    sdh_ble_observers1                       0x0002eed4   Section       16  main.o(sdh_ble_observers1)
    __tagsym$$used                           0x0002eed4   Number         0  main.o(sdh_ble_observers1)
    m_gatt_obs                               0x0002eed4   Data           8  main.o(sdh_ble_observers1)
    __tagsym$$used                           0x0002eedc   Number         0  main.o(sdh_ble_observers1)
    m_advertising_ble_obs                    0x0002eedc   Data           8  main.o(sdh_ble_observers1)
    sdh_ble_observers1                       0x0002eee4   Section        8  bsp_btn_ble.o(sdh_ble_observers1)
    __tagsym$$used                           0x0002eee4   Number         0  bsp_btn_ble.o(sdh_ble_observers1)
    m_ble_observer                           0x0002eee4   Data           8  bsp_btn_ble.o(sdh_ble_observers1)
    sdh_ble_observers1                       0x0002eeec   Section        8  ble_conn_params.o(sdh_ble_observers1)
    __tagsym$$used                           0x0002eeec   Number         0  ble_conn_params.o(sdh_ble_observers1)
    m_ble_observer                           0x0002eeec   Data           8  ble_conn_params.o(sdh_ble_observers1)
    sdh_ble_observers2                       0x0002eef4   Section       16  main.o(sdh_ble_observers2)
    __tagsym$$used                           0x0002eef4   Number         0  main.o(sdh_ble_observers2)
    m_nus_obs                                0x0002eef4   Data           8  main.o(sdh_ble_observers2)
    __tagsym$$used                           0x0002eefc   Number         0  main.o(sdh_ble_observers2)
    m_qwr_obs                                0x0002eefc   Data           8  main.o(sdh_ble_observers2)
    sdh_ble_observers3                       0x0002ef04   Section        8  main.o(sdh_ble_observers3)
    __tagsym$$used                           0x0002ef04   Number         0  main.o(sdh_ble_observers3)
    m_ble_observer                           0x0002ef04   Data           8  main.o(sdh_ble_observers3)
    sdh_soc_observers0                       0x0002ef0c   Section        8  nrf_drv_clock.o(sdh_soc_observers0)
    __tagsym$$used                           0x0002ef0c   Number         0  nrf_drv_clock.o(sdh_soc_observers0)
    m_soc_evt_observer                       0x0002ef0c   Data           8  nrf_drv_clock.o(sdh_soc_observers0)
    sdh_stack_observers0                     0x0002ef14   Section        8  nrf_sdh_ble.o(sdh_stack_observers0)
    __tagsym$$used                           0x0002ef14   Number         0  nrf_sdh_ble.o(sdh_stack_observers0)
    m_nrf_sdh_ble_evts_poll                  0x0002ef14   Data           8  nrf_sdh_ble.o(sdh_stack_observers0)
    sdh_stack_observers0                     0x0002ef1c   Section        8  nrf_sdh_soc.o(sdh_stack_observers0)
    __tagsym$$used                           0x0002ef1c   Number         0  nrf_sdh_soc.o(sdh_stack_observers0)
    m_nrf_sdh_soc_evts_poll                  0x0002ef1c   Data           8  nrf_sdh_soc.o(sdh_stack_observers0)
    sdh_state_observers0                     0x0002ef24   Section        8  nrf_drv_clock.o(sdh_state_observers0)
    __tagsym$$used                           0x0002ef24   Number         0  nrf_drv_clock.o(sdh_state_observers0)
    m_sd_state_observer                      0x0002ef24   Data           8  nrf_drv_clock.o(sdh_state_observers0)
    .data                                    0x20003268   Section       49  main.o(.data)
    m_nus_link_ctx_storage_ctx_data_pool     0x20003268   Data           4  main.o(.data)
    m_nus_link_ctx_storage                   0x2000326c   Data           8  main.o(.data)
    m_nus                                    0x20003274   Data          28  main.o(.data)
    m_conn_handle                            0x20003290   Data           2  main.o(.data)
    m_ble_nus_max_data_len                   0x20003292   Data           2  main.o(.data)
    m_adv_uuids                              0x20003294   Data           4  main.o(.data)
    index                                    0x20003298   Data           1  main.o(.data)
    .data                                    0x2000329c   Section        9  bsp.o(.data)
    m_registered_callback                    0x2000329c   Data           4  bsp.o(.data)
    current_long_push_pin_no                 0x200032a0   Data           1  bsp.o(.data)
    release_event_at_push                    0x200032a1   Data           4  bsp.o(.data)
    .data                                    0x200032a8   Section        8  bsp_btn_ble.o(.data)
    m_error_handler                          0x200032a8   Data           4  bsp_btn_ble.o(.data)
    m_num_connections                        0x200032ac   Data           4  bsp_btn_ble.o(.data)
    .data                                    0x200032b0   Section        8  ble_conn_params.o(.data)
    m_preferred_conn_params                  0x200032b0   Data           8  ble_conn_params.o(.data)
    .data                                    0x200032b8   Section        9  nrf_drv_uart.o(.data)
    m_handlers                               0x200032b8   Data           4  nrf_drv_uart.o(.data)
    m_contexts                               0x200032bc   Data           4  nrf_drv_uart.o(.data)
    .data                                    0x200032c4   Section        8  nrfx_clock.o(.data)
    m_clock_cb                               0x200032c4   Data           8  nrfx_clock.o(.data)
    .data                                    0x200032cc   Section        8  nrfx_prs.o(.data)
    m_prs_box_2                              0x200032cc   Data           8  nrfx_prs.o(.data)
    .data                                    0x200032d8   Section       24  app_button.o(.data)
    mp_buttons                               0x200032d8   Data           4  app_button.o(.data)
    m_button_count                           0x200032dc   Data           1  app_button.o(.data)
    m_detection_delay                        0x200032e0   Data           4  app_button.o(.data)
    m_pin_active                             0x200032e8   Data           8  app_button.o(.data)
    .data                                    0x200032f0   Section       36  app_timer2.o(.data)
    m_rtc_inst                               0x200032f0   Data           8  app_timer2.o(.data)
    mp_active_timer                          0x200032f8   Data           4  app_timer2.o(.data)
    m_global_active                          0x200032fc   Data           1  app_timer2.o(.data)
    m_base_counter                           0x20003300   Data           8  app_timer2.o(.data)
    m_stamp64                                0x20003308   Data           8  app_timer2.o(.data)
    m_app_timer_sortlist_sortlist_cb         0x20003310   Data           4  app_timer2.o(.data)
    .data                                    0x20003314   Section       27  app_uart_fifo.o(.data)
    app_uart_inst                            0x20003314   Data          20  app_uart_fifo.o(.data)
    m_event_handler                          0x20003328   Data           4  app_uart_fifo.o(.data)
    tx_buffer                                0x2000332c   Data           1  app_uart_fifo.o(.data)
    rx_buffer                                0x2000332d   Data           1  app_uart_fifo.o(.data)
    m_rx_ovf                                 0x2000332e   Data           1  app_uart_fifo.o(.data)
    .data                                    0x20003330   Section       12  drv_rtc.o(.data)
    m_handlers                               0x20003330   Data           4  drv_rtc.o(.data)
    m_cb                                     0x20003334   Data           8  drv_rtc.o(.data)
    .data                                    0x2000333c   Section        9  nrf_pwr_mgmt.o(.data)
    m_pwr_mgmt_evt                           0x2000333c   Data           1  nrf_pwr_mgmt.o(.data)
    m_sysoff_mtx                             0x20003340   Data           4  nrf_pwr_mgmt.o(.data)
    m_shutdown_started                       0x20003344   Data           1  nrf_pwr_mgmt.o(.data)
    .data                                    0x20003348   Section        8  retarget.o(.data)
    .data                                    0x20003350   Section        1  nrf_log_backend_rtt.o(.data)
    m_host_present                           0x20003350   Data           1  nrf_log_backend_rtt.o(.data)
    .data                                    0x20003354   Section        8  nrf_log_default_backends.o(.data)
    log_backend_cb_rtt_log_backend           0x20003354   Data           8  nrf_log_default_backends.o(.data)
    .data                                    0x2000335c   Section       20  nrf_log_frontend.o(.data)
    log_mempool_nrf_balloc_pool_stack        0x2000335c   Data           8  nrf_log_frontend.o(.data)
    log_mempool_nrf_balloc_cb                0x20003364   Data           8  nrf_log_frontend.o(.data)
    m_buffer_mask                            0x2000336c   Data           4  nrf_log_frontend.o(.data)
    .data                                    0x20003370   Section       64  nrf_log_str_formatter.o(.data)
    severity_names                           0x20003370   Data          20  nrf_log_str_formatter.o(.data)
    m_colors                                 0x20003384   Data          36  nrf_log_str_formatter.o(.data)
    m_freq                                   0x200033a8   Data           4  nrf_log_str_formatter.o(.data)
    m_timestamp_div                          0x200033ac   Data           4  nrf_log_str_formatter.o(.data)
    .data                                    0x200033b0   Section        3  nrf_sdh.o(.data)
    m_nrf_sdh_enabled                        0x200033b0   Data           1  nrf_sdh.o(.data)
    m_nrf_sdh_suspended                      0x200033b1   Data           1  nrf_sdh.o(.data)
    m_nrf_sdh_continue                       0x200033b2   Data           1  nrf_sdh.o(.data)
    .data                                    0x200033b3   Section        1  nrf_sdh_ble.o(.data)
    m_stack_is_enabled                       0x200033b3   Data           1  nrf_sdh_ble.o(.data)
    .data                                    0x200033b4   Section        4  system_nrf52_1.o(.data)
    __tagsym$$used                           0x200033b4   Number         0  system_nrf52_1.o(.data)
    .bss                                     0x200033b8   Section     1032  main.o(.bss)
    m_gatt                                   0x200033b8   Data          16  main.o(.bss)
    m_qwr                                    0x200033c8   Data          12  main.o(.bss)
    m_advertising                            0x200033d4   Data         248  main.o(.bss)
    data_array                               0x200034cc   Data         244  main.o(.bss)
    rx_buf                                   0x200035c0   Data         256  main.o(.bss)
    tx_buf                                   0x200036c0   Data         256  main.o(.bss)
    .bss                                     0x200037c0   Section       48  bsp.o(.bss)
    m_events_list                            0x200037c0   Data          12  bsp.o(.bss)
    m_bsp_button_tmr_data                    0x200037d0   Data          32  bsp.o(.bss)
    .bss                                     0x200037f0   Section       80  ble_conn_params.o(.bss)
    m_timer_data                             0x200037f0   Data          32  ble_conn_params.o(.bss)
    m_conn_params_instances                  0x20003810   Data          20  ble_conn_params.o(.bss)
    m_conn_params_config                     0x20003824   Data          28  ble_conn_params.o(.bss)
    .bss                                     0x20003840   Section      124  ble_conn_state.o(.bss)
    m_bcs                                    0x20003840   Data         124  ble_conn_state.o(.bss)
    .bss                                     0x200038bc   Section       20  nrf_drv_clock.o(.bss)
    m_clock_cb                               0x200038bc   Data          20  nrf_drv_clock.o(.bss)
    .bss                                     0x200038d0   Section       92  nrfx_gpiote.o(.bss)
    m_cb                                     0x200038d0   Data          92  nrfx_gpiote.o(.bss)
    .bss                                     0x2000392c   Section       44  nrfx_uart.o(.bss)
    m_cb                                     0x2000392c   Data          44  nrfx_uart.o(.bss)
    .bss                                     0x20003958   Section       36  nrfx_uarte.o(.bss)
    m_cb                                     0x20003958   Data          36  nrfx_uarte.o(.bss)
    .bss                                     0x20003980   Section       48  app_button.o(.bss)
    m_detection_delay_timer_id_data          0x20003980   Data          32  app_button.o(.bss)
    m_pin_states                             0x200039a0   Data          16  app_button.o(.bss)
    .bss                                     0x200039b0   Section      104  app_timer2.o(.bss)
    m_req_fifo_data                          0x200039b0   Data          88  app_timer2.o(.bss)
    m_req_fifo_inst                          0x20003a08   Data          16  app_timer2.o(.bss)
    .bss                                     0x20003a18   Section       32  app_uart_fifo.o(.bss)
    m_rx_fifo                                0x20003a18   Data          16  app_uart_fifo.o(.bss)
    m_tx_fifo                                0x20003a28   Data          16  app_uart_fifo.o(.bss)
    .bss                                     0x20003a38   Section       12  app_util_platform.o(.bss)
    .bss                                     0x20003a44   Section       12  nrf_pwr_mgmt.o(.bss)
    m_handlers_iter                          0x20003a44   Data          12  nrf_pwr_mgmt.o(.bss)
    .bss                                     0x20003a50   Section       64  nrf_log_backend_rtt.o(.bss)
    m_string_buff                            0x20003a50   Data          64  nrf_log_backend_rtt.o(.bss)
    .bss                                     0x20003a90   Section     1400  nrf_log_frontend.o(.bss)
    log_mempool_nrf_balloc_pool_mem          0x20003a90   Data         192  nrf_log_frontend.o(.bss)
    m_log_push_ringbuf_buf                   0x20003b50   Data         128  nrf_log_frontend.o(.bss)
    m_log_push_ringbuf_cb                    0x20003bd0   Data          24  nrf_log_frontend.o(.bss)
    m_log_data                               0x20003be8   Data        1056  nrf_log_frontend.o(.bss)
    .bss                                     0x20004008   Section      648  segger_rtt.o(.bss)
    _acUpBuffer                              0x20004080   Data         512  segger_rtt.o(.bss)
    _acDownBuffer                            0x20004280   Data          16  segger_rtt.o(.bss)
    STACK                                    0x20004290   Section     2048  arm_startup_nrf52805.o(STACK)

    Global Symbols

    Symbol Name                              Value     Ov Type        Size  Object(Section)

    BuildAttributes$$THM_ISAv4$E$P$D$K$B$S$7EM$PE$A:L22UL41UL21$X:L11$S22US41US21$IEEE1$IW$USESV6$~STKCKD$USESV7$~SHL$OSPACE$ROPI$EBA8$MICROLIB$REQ8$EABIv2 0x00000000   Number         0  anon$$obj.o ABSOLUTE
    __ARM_use_no_argv                        0x00000000   Number         0  main.o ABSOLUTE
    __cpp_initialize__aeabi_                  - Undefined Weak Reference
    __cxa_finalize                            - Undefined Weak Reference
    _clock_init                               - Undefined Weak Reference
    _microlib_exit                            - Undefined Weak Reference
    log_dynamic_data$$Base                    - Undefined Reference
    pwr_mgmt_data0$$Base                      - Undefined Reference
    pwr_mgmt_data0$$Limit                     - Undefined Reference
    pwr_mgmt_data1$$Base                      - Undefined Reference
    pwr_mgmt_data1$$Limit                     - Undefined Reference
    pwr_mgmt_data2$$Base                      - Undefined Reference
    pwr_mgmt_data2$$Limit                     - Undefined Reference
    sdh_req_observers0$$Base                  - Undefined Reference
    sdh_req_observers0$$Limit                 - Undefined Reference
    sdh_req_observers1$$Base                  - Undefined Reference
    sdh_req_observers1$$Limit                 - Undefined Reference
    sdh_soc_observers1$$Base                  - Undefined Reference
    sdh_soc_observers1$$Limit                 - Undefined Reference
    sdh_stack_observers1$$Base                - Undefined Reference
    sdh_stack_observers1$$Limit               - Undefined Reference
    sdh_state_observers1$$Base                - Undefined Reference
    sdh_state_observers1$$Limit               - Undefined Reference
    __Vectors_Size                           0x00000200   Number         0  arm_startup_nrf52805.o ABSOLUTE
    __Vectors                                0x00026000   Data           4  arm_startup_nrf52805.o(RESET)
    __Vectors_End                            0x00026200   Data           0  arm_startup_nrf52805.o(RESET)
    __main                                   0x00026201   Thumb Code     0  entry.o(.ARM.Collect$$$$00000000)
    _main_stk                                0x00026201   Thumb Code     0  entry2.o(.ARM.Collect$$$$00000001)
    _main_scatterload                        0x00026205   Thumb Code     0  entry5.o(.ARM.Collect$$$$00000004)
    __main_after_scatterload                 0x00026209   Thumb Code     0  entry5.o(.ARM.Collect$$$$00000004)
    _main_clock                              0x00026209   Thumb Code     0  entry7b.o(.ARM.Collect$$$$00000008)
    _main_cpp_init                           0x00026209   Thumb Code     0  entry8b.o(.ARM.Collect$$$$0000000A)
    _main_init                               0x00026209   Thumb Code     0  entry9a.o(.ARM.Collect$$$$0000000B)
    __rt_final_cpp                           0x00026211   Thumb Code     0  entry10a.o(.ARM.Collect$$$$0000000D)
    __rt_final_exit                          0x00026211   Thumb Code     0  entry11a.o(.ARM.Collect$$$$0000000F)
    __asm___12_nrf_atfifo_c_51f461e1__nrf_atfifo_wspace_req 0x00026215   Thumb Code    56  nrf_atfifo.o(.emb_text)
    __asm___12_nrf_atfifo_c_51f461e1__nrf_atfifo_wspace_close 0x0002624d   Thumb Code    18  nrf_atfifo.o(.emb_text)
    __asm___12_nrf_atfifo_c_51f461e1__nrf_atfifo_rspace_req 0x0002625f   Thumb Code    58  nrf_atfifo.o(.emb_text)
    __asm___12_nrf_atfifo_c_51f461e1__nrf_atfifo_rspace_close 0x00026299   Thumb Code    18  nrf_atfifo.o(.emb_text)
    __asm___12_nrf_atfifo_c_51f461e1__nrf_atfifo_space_clear 0x000262ab   Thumb Code    50  nrf_atfifo.o(.emb_text)
    __asm___12_nrf_atomic_c_85ca2469__nrf_atomic_internal_mov 0x000262dd   Thumb Code    24  nrf_atomic.o(.emb_text)
    __asm___12_nrf_atomic_c_85ca2469__nrf_atomic_internal_orr 0x000262f5   Thumb Code    26  nrf_atomic.o(.emb_text)
    __asm___12_nrf_atomic_c_85ca2469__nrf_atomic_internal_and 0x0002630f   Thumb Code    26  nrf_atomic.o(.emb_text)
    __asm___12_nrf_atomic_c_85ca2469__nrf_atomic_internal_eor 0x00026329   Thumb Code    26  nrf_atomic.o(.emb_text)
    __asm___12_nrf_atomic_c_85ca2469__nrf_atomic_internal_add 0x00026343   Thumb Code    26  nrf_atomic.o(.emb_text)
    __asm___12_nrf_atomic_c_85ca2469__nrf_atomic_internal_sub 0x0002635d   Thumb Code    26  nrf_atomic.o(.emb_text)
    __asm___12_nrf_atomic_c_85ca2469__nrf_atomic_internal_cmp_exch 0x00026377   Thumb Code    42  nrf_atomic.o(.emb_text)
    __asm___12_nrf_atomic_c_85ca2469__nrf_atomic_internal_sub_hs 0x000263a1   Thumb Code    30  nrf_atomic.o(.emb_text)
    Reset_Handler                            0x000263c1   Thumb Code     8  arm_startup_nrf52805.o(.text)
    NMI_Handler                              0x000263c9   Thumb Code     2  arm_startup_nrf52805.o(.text)
    HardFault_Handler                        0x000263cb   Thumb Code     2  arm_startup_nrf52805.o(.text)
    MemoryManagement_Handler                 0x000263cd   Thumb Code     2  arm_startup_nrf52805.o(.text)
    BusFault_Handler                         0x000263cf   Thumb Code     2  arm_startup_nrf52805.o(.text)
    UsageFault_Handler                       0x000263d1   Thumb Code     2  arm_startup_nrf52805.o(.text)
    SVC_Handler                              0x000263d3   Thumb Code     2  arm_startup_nrf52805.o(.text)
    DebugMon_Handler                         0x000263d5   Thumb Code     2  arm_startup_nrf52805.o(.text)
    PendSV_Handler                           0x000263d7   Thumb Code     2  arm_startup_nrf52805.o(.text)
    SysTick_Handler                          0x000263d9   Thumb Code     2  arm_startup_nrf52805.o(.text)
    CCM_AAR_IRQHandler                       0x000263db   Thumb Code     0  arm_startup_nrf52805.o(.text)
    ECB_IRQHandler                           0x000263db   Thumb Code     0  arm_startup_nrf52805.o(.text)
    QDEC_IRQHandler                          0x000263db   Thumb Code     0  arm_startup_nrf52805.o(.text)
    RADIO_IRQHandler                         0x000263db   Thumb Code     0  arm_startup_nrf52805.o(.text)
    RNG_IRQHandler                           0x000263db   Thumb Code     0  arm_startup_nrf52805.o(.text)
    RTC0_IRQHandler                          0x000263db   Thumb Code     0  arm_startup_nrf52805.o(.text)
    SAADC_IRQHandler                         0x000263db   Thumb Code     0  arm_startup_nrf52805.o(.text)
    SPIM0_SPIS0_SPI0_IRQHandler              0x000263db   Thumb Code     0  arm_startup_nrf52805.o(.text)
    SWI0_EGU0_IRQHandler                     0x000263db   Thumb Code     0  arm_startup_nrf52805.o(.text)
    SWI1_EGU1_IRQHandler                     0x000263db   Thumb Code     0  arm_startup_nrf52805.o(.text)
    SWI3_IRQHandler                          0x000263db   Thumb Code     0  arm_startup_nrf52805.o(.text)
    SWI4_IRQHandler                          0x000263db   Thumb Code     0  arm_startup_nrf52805.o(.text)
    SWI5_IRQHandler                          0x000263db   Thumb Code     0  arm_startup_nrf52805.o(.text)
    TEMP_IRQHandler                          0x000263db   Thumb Code     0  arm_startup_nrf52805.o(.text)
    TIMER0_IRQHandler                        0x000263db   Thumb Code     0  arm_startup_nrf52805.o(.text)
    TIMER1_IRQHandler                        0x000263db   Thumb Code     0  arm_startup_nrf52805.o(.text)
    TIMER2_IRQHandler                        0x000263db   Thumb Code     0  arm_startup_nrf52805.o(.text)
    TWIM0_TWIS0_TWI0_IRQHandler              0x000263db   Thumb Code     0  arm_startup_nrf52805.o(.text)
    WDT_IRQHandler                           0x000263db   Thumb Code     0  arm_startup_nrf52805.o(.text)
    __aeabi_llsl                             0x000263e5   Thumb Code    30  llshl.o(.text)
    _ll_shift_l                              0x000263e5   Thumb Code     0  llshl.o(.text)
    __rt_ctype_table                         0x00026405   Thumb Code     4  ctype_o.o(.text)
    __aeabi_memcpy                           0x0002640d   Thumb Code    36  memcpya.o(.text)
    __aeabi_memcpy4                          0x0002640d   Thumb Code     0  memcpya.o(.text)
    __aeabi_memcpy8                          0x0002640d   Thumb Code     0  memcpya.o(.text)
    __aeabi_memset                           0x00026431   Thumb Code    14  memseta.o(.text)
    __aeabi_memset4                          0x00026431   Thumb Code     0  memseta.o(.text)
    __aeabi_memset8                          0x00026431   Thumb Code     0  memseta.o(.text)
    __aeabi_memclr                           0x0002643f   Thumb Code     4  memseta.o(.text)
    __aeabi_memclr4                          0x0002643f   Thumb Code     0  memseta.o(.text)
    __aeabi_memclr8                          0x0002643f   Thumb Code     0  memseta.o(.text)
    _memset$wrapper                          0x00026443   Thumb Code    18  memseta.o(.text)
    strlen                                   0x00026455   Thumb Code    14  strlen.o(.text)
    strcpy                                   0x00026463   Thumb Code    18  strcpy.o(.text)
    __scatterload                            0x00026475   Thumb Code    28  init.o(.text)
    __scatterload_rt2                        0x00026475   Thumb Code     0  init.o(.text)
    __decompress                             0x00026499   Thumb Code     0  __dczerorl2.o(.text)
    __decompress1                            0x00026499   Thumb Code    86  __dczerorl2.o(.text)
    GPIOTE_IRQHandler                        0x000264f1   Thumb Code   180  nrfx_gpiote.o(i.GPIOTE_IRQHandler)
    POWER_CLOCK_IRQHandler                   0x000265ad   Thumb Code    68  nrfx_clock.o(i.POWER_CLOCK_IRQHandler)
    RTC1_IRQHandler                          0x000265f5   Thumb Code    14  drv_rtc.o(i.RTC1_IRQHandler)
    SEGGER_RTT_Init                          0x0002660d   Thumb Code     8  segger_rtt.o(i.SEGGER_RTT_Init)
    SEGGER_RTT_WriteNoLock                   0x00026615   Thumb Code   126  segger_rtt.o(i.SEGGER_RTT_WriteNoLock)
    SWI2_IRQHandler                          0x00026699   Thumb Code     8  nrf_sdh.o(i.SWI2_IRQHandler)
    SystemCoreClockUpdate                    0x000266a1   Thumb Code     8  system_nrf52_1.o(i.SystemCoreClockUpdate)
    SystemInit                               0x000266b1   Thumb Code   558  system_nrf52_1.o(i.SystemInit)
    UARTE0_UART0_IRQHandler                  0x0002691d   Thumb Code    10  nrfx_prs.o(i.UARTE0_UART0_IRQHandler)
    __0printf$bare                           0x00026a79   Thumb Code     8  printfb.o(i.__0printf$bare)
    __1printf$bare                           0x00026a79   Thumb Code     0  printfb.o(i.__0printf$bare)
    __2printf                                0x00026a79   Thumb Code     0  printfb.o(i.__0printf$bare)
    __scatterload_copy                       0x00026a89   Thumb Code    14  handlers.o(i.__scatterload_copy)
    __scatterload_null                       0x00026a97   Thumb Code     2  handlers.o(i.__scatterload_null)
    __scatterload_zeroinit                   0x00026a99   Thumb Code    14  handlers.o(i.__scatterload_zeroinit)
    app_button_enable                        0x00026c8d   Thumb Code    34  app_button.o(i.app_button_enable)
    app_button_init                          0x00026cb9   Thumb Code   140  app_button.o(i.app_button_init)
    app_error_fault_handler                  0x00026d69   Thumb Code   144  app_error_weak.o(i.app_error_fault_handler)
    app_error_handler_bare                   0x00026e25   Thumb Code    28  app_error.o(i.app_error_handler_bare)
    app_fifo_get                             0x00026e41   Thumb Code    30  app_fifo.o(i.app_fifo_get)
    app_fifo_init                            0x00026e5f   Thumb Code    36  app_fifo.o(i.app_fifo_init)
    app_fifo_put                             0x00026e83   Thumb Code    34  app_fifo.o(i.app_fifo_put)
    app_timer_cnt_get                        0x00026ea5   Thumb Code    10  app_timer2.o(i.app_timer_cnt_get)
    app_timer_create                         0x00026eb5   Thumb Code    32  app_timer2.o(i.app_timer_create)
    app_timer_init                           0x00026ed5   Thumb Code    78  app_timer2.o(i.app_timer_init)
    app_timer_start                          0x00026f41   Thumb Code    54  app_timer2.o(i.app_timer_start)
    app_timer_stop                           0x00026f77   Thumb Code    20  app_timer2.o(i.app_timer_stop)
    app_uart_get                             0x00026f8d   Thumb Code    66  app_uart_fifo.o(i.app_uart_get)
    app_uart_init                            0x00026fe1   Thumb Code   188  app_uart_fifo.o(i.app_uart_init)
    app_uart_put                             0x000270bd   Thumb Code    90  app_uart_fifo.o(i.app_uart_put)
    app_util_critical_region_enter           0x00027129   Thumb Code    12  app_util_platform.o(i.app_util_critical_region_enter)
    app_util_critical_region_exit            0x00027135   Thumb Code    62  app_util_platform.o(i.app_util_critical_region_exit)
    blcm_link_ctx_get                        0x00027305   Thumb Code   108  ble_link_ctx_manager.o(i.blcm_link_ctx_get)
    ble_advdata_encode                       0x00027371   Thumb Code   364  ble_advdata.o(i.ble_advdata_encode)
    ble_advdata_parse                        0x000274dd   Thumb Code    40  ble_advdata.o(i.ble_advdata_parse)
    ble_advdata_search                       0x00027505   Thumb Code    92  ble_advdata.o(i.ble_advdata_search)
    ble_advertising_conn_cfg_tag_set         0x00027561   Thumb Code     6  ble_advertising.o(i.ble_advertising_conn_cfg_tag_set)
    ble_advertising_init                     0x00027567   Thumb Code   256  ble_advertising.o(i.ble_advertising_init)
    ble_advertising_on_ble_evt               0x00027667   Thumb Code    60  ble_advertising.o(i.ble_advertising_on_ble_evt)
    ble_advertising_restart_without_whitelist 0x000276a3   Thumb Code    74  ble_advertising.o(i.ble_advertising_restart_without_whitelist)
    ble_advertising_start                    0x000276ed   Thumb Code   370  ble_advertising.o(i.ble_advertising_start)
    ble_conn_params_init                     0x00027861   Thumb Code   136  ble_conn_params.o(i.ble_conn_params_init)
    ble_conn_state_conn_idx                  0x000278fd   Thumb Code    20  ble_conn_state.o(i.ble_conn_state_conn_idx)
    ble_conn_state_valid                     0x00027911   Thumb Code    22  ble_conn_state.o(i.ble_conn_state_valid)
    ble_nus_data_send                        0x00027c9d   Thumb Code   122  ble_nus.o(i.ble_nus_data_send)
    ble_nus_init                             0x00027d19   Thumb Code   260  ble_nus.o(i.ble_nus_init)
    ble_nus_on_ble_evt                       0x00027e21   Thumb Code    68  ble_nus.o(i.ble_nus_on_ble_evt)
    ble_srv_is_notification_enabled          0x00027e65   Thumb Code    18  ble_srv_common.o(i.ble_srv_is_notification_enabled)
    bsp_board_button_idx_to_pin              0x00027ecd   Thumb Code     8  boards.o(i.bsp_board_button_idx_to_pin)
    bsp_board_button_state_get               0x00027ed9   Thumb Code    44  boards.o(i.bsp_board_button_state_get)
    bsp_board_pin_to_button_idx              0x00027f09   Thumb Code    32  boards.o(i.bsp_board_pin_to_button_idx)
    bsp_btn_ble_init                         0x00027f2d   Thumb Code    36  bsp_btn_ble.o(i.bsp_btn_ble_init)
    bsp_btn_ble_sleep_mode_prepare           0x00027f59   Thumb Code    50  bsp_btn_ble.o(i.bsp_btn_ble_sleep_mode_prepare)
    bsp_button_is_pressed                    0x00028051   Thumb Code    20  bsp.o(i.bsp_button_is_pressed)
    bsp_event_handler                        0x00028065   Thumb Code   106  main.o(i.bsp_event_handler)
    bsp_event_to_button_action_assign        0x000280d9   Thumb Code    86  bsp.o(i.bsp_event_to_button_action_assign)
    bsp_indication_set                       0x00028135   Thumb Code     6  bsp.o(i.bsp_indication_set)
    bsp_init                                 0x0002813d   Thumb Code    92  bsp.o(i.bsp_init)
    bsp_wakeup_button_enable                 0x000281a9   Thumb Code    14  bsp.o(i.bsp_wakeup_button_enable)
    buffer_is_empty                          0x000282cd   Thumb Code    20  nrf_log_frontend.o(i.buffer_is_empty)
    characteristic_add                       0x00028431   Thumb Code   456  ble_srv_common.o(i.characteristic_add)
    conn_handle_list_get                     0x0002869f   Thumb Code    60  ble_conn_state.o(i.conn_handle_list_get)
    drv_rtc_compare_disable                  0x00028929   Thumb Code    22  drv_rtc.o(i.drv_rtc_compare_disable)
    drv_rtc_compare_pending                  0x0002893f   Thumb Code    26  drv_rtc.o(i.drv_rtc_compare_pending)
    drv_rtc_compare_set                      0x00028959   Thumb Code    92  drv_rtc.o(i.drv_rtc_compare_set)
    drv_rtc_counter_get                      0x000289b5   Thumb Code    12  drv_rtc.o(i.drv_rtc_counter_get)
    drv_rtc_init                             0x000289c1   Thumb Code   216  drv_rtc.o(i.drv_rtc_init)
    drv_rtc_irq_trigger                      0x00028ae9   Thumb Code    32  drv_rtc.o(i.drv_rtc_irq_trigger)
    drv_rtc_overflow_enable                  0x00028b0d   Thumb Code    18  drv_rtc.o(i.drv_rtc_overflow_enable)
    drv_rtc_overflow_pending                 0x00028b1f   Thumb Code    16  drv_rtc.o(i.drv_rtc_overflow_pending)
    drv_rtc_start                            0x00028b2f   Thumb Code    14  drv_rtc.o(i.drv_rtc_start)
    drv_rtc_stop                             0x00028b3d   Thumb Code    14  drv_rtc.o(i.drv_rtc_stop)
    drv_rtc_windowed_compare_set             0x00028b4b   Thumb Code   252  drv_rtc.o(i.drv_rtc_windowed_compare_set)
    evt_handle                               0x00028c7d   Thumb Code   234  app_button.o(i.evt_handle)
    fputc                                    0x00028e57   Thumb Code    16  retarget.o(i.fputc)
    gatt_evt_handler                         0x00028ee9   Thumb Code    86  main.o(i.gatt_evt_handler)
    gatt_init                                0x00028fa9   Thumb Code    60  main.o(i.gatt_init)
    main                                     0x000294bd   Thumb Code   126  main.o(i.main)
    nrf_atfifo_init                          0x00029c35   Thumb Code    40  nrf_atfifo.o(i.nrf_atfifo_init)
    nrf_atfifo_item_alloc                    0x00029c5d   Thumb Code    28  nrf_atfifo.o(i.nrf_atfifo_item_alloc)
    nrf_atfifo_item_free                     0x00029c79   Thumb Code    28  nrf_atfifo.o(i.nrf_atfifo_item_free)
    nrf_atfifo_item_get                      0x00029c95   Thumb Code    28  nrf_atfifo.o(i.nrf_atfifo_item_get)
    nrf_atfifo_item_put                      0x00029cb1   Thumb Code    28  nrf_atfifo.o(i.nrf_atfifo_item_put)
    nrf_atflags_clear                        0x00029ccd   Thumb Code    30  nrf_atflags.o(i.nrf_atflags_clear)
    nrf_atflags_get                          0x00029ceb   Thumb Code    30  nrf_atflags.o(i.nrf_atflags_get)
    nrf_atflags_set                          0x00029d09   Thumb Code    30  nrf_atflags.o(i.nrf_atflags_set)
    nrf_atomic_flag_clear_fetch              0x00029d27   Thumb Code    14  nrf_atomic.o(i.nrf_atomic_flag_clear_fetch)
    nrf_atomic_flag_set                      0x00029d35   Thumb Code    14  nrf_atomic.o(i.nrf_atomic_flag_set)
    nrf_atomic_u32_add                       0x00029d43   Thumb Code    22  nrf_atomic.o(i.nrf_atomic_u32_add)
    nrf_atomic_u32_and                       0x00029d59   Thumb Code    22  nrf_atomic.o(i.nrf_atomic_u32_and)
    nrf_atomic_u32_fetch_and                 0x00029d6f   Thumb Code    22  nrf_atomic.o(i.nrf_atomic_u32_fetch_and)
    nrf_atomic_u32_fetch_store               0x00029d85   Thumb Code    22  nrf_atomic.o(i.nrf_atomic_u32_fetch_store)
    nrf_atomic_u32_or                        0x00029d9b   Thumb Code    22  nrf_atomic.o(i.nrf_atomic_u32_or)
    nrf_atomic_u32_sub                       0x00029db1   Thumb Code    22  nrf_atomic.o(i.nrf_atomic_u32_sub)
    nrf_balloc_alloc                         0x00029dc7   Thumb Code    82  nrf_balloc.o(i.nrf_balloc_alloc)
    nrf_balloc_free                          0x00029e29   Thumb Code    48  nrf_balloc.o(i.nrf_balloc_free)
    nrf_balloc_init                          0x00029e65   Thumb Code    60  nrf_balloc.o(i.nrf_balloc_init)
    nrf_ble_gatt_att_mtu_periph_set          0x00029eb7   Thumb Code    30  nrf_ble_gatt.o(i.nrf_ble_gatt_att_mtu_periph_set)
    nrf_ble_gatt_init                        0x00029ed5   Thumb Code    56  nrf_ble_gatt.o(i.nrf_ble_gatt_init)
    nrf_ble_gatt_on_ble_evt                  0x00029f0d   Thumb Code   220  nrf_ble_gatt.o(i.nrf_ble_gatt_on_ble_evt)
    nrf_ble_qwr_conn_handle_assign           0x0002a029   Thumb Code    32  nrf_ble_qwr.o(i.nrf_ble_qwr_conn_handle_assign)
    nrf_ble_qwr_init                         0x0002a049   Thumb Code    50  nrf_ble_qwr.o(i.nrf_ble_qwr_init)
    nrf_ble_qwr_on_ble_evt                   0x0002a07b   Thumb Code   124  nrf_ble_qwr.o(i.nrf_ble_qwr_on_ble_evt)
    nrf_drv_clock_init                       0x0002a131   Thumb Code    66  nrf_drv_clock.o(i.nrf_drv_clock_init)
    nrf_drv_clock_lfclk_release              0x0002a17d   Thumb Code    42  nrf_drv_clock.o(i.nrf_drv_clock_lfclk_release)
    nrf_drv_uart_init                        0x0002a1ad   Thumb Code   118  nrf_drv_uart.o(i.nrf_drv_uart_init)
    nrf_fprintf                              0x0002a2c1   Thumb Code    42  nrf_fprintf.o(i.nrf_fprintf)
    nrf_fprintf_buffer_flush                 0x0002a2eb   Thumb Code    28  nrf_fprintf.o(i.nrf_fprintf_buffer_flush)
    nrf_fprintf_fmt                          0x0002a307   Thumb Code   496  nrf_fprintf_format.o(i.nrf_fprintf_fmt)
    nrf_log_backend_add                      0x0002a6ed   Thumb Code    78  nrf_log_frontend.o(i.nrf_log_backend_add)
    nrf_log_backend_rtt_init                 0x0002a743   Thumb Code     8  nrf_log_backend_rtt.o(i.nrf_log_backend_rtt_init)
    nrf_log_backend_serial_put               0x0002a76d   Thumb Code   242  nrf_log_backend_serial.o(i.nrf_log_backend_serial_put)
    nrf_log_color_id_get                     0x0002a861   Thumb Code    52  nrf_log_frontend.o(i.nrf_log_color_id_get)
    nrf_log_default_backends_init            0x0002a899   Thumb Code    34  nrf_log_default_backends.o(i.nrf_log_default_backends_init)
    nrf_log_frontend_dequeue                 0x0002a8c1   Thumb Code   756  nrf_log_frontend.o(i.nrf_log_frontend_dequeue)
    nrf_log_frontend_hexdump                 0x0002abdd   Thumb Code   222  nrf_log_frontend.o(i.nrf_log_frontend_hexdump)
    nrf_log_frontend_std_0                   0x0002acc5   Thumb Code    20  nrf_log_frontend.o(i.nrf_log_frontend_std_0)
    nrf_log_frontend_std_1                   0x0002acd9   Thumb Code    24  nrf_log_frontend.o(i.nrf_log_frontend_std_1)
    nrf_log_frontend_std_2                   0x0002acf1   Thumb Code    32  nrf_log_frontend.o(i.nrf_log_frontend_std_2)
    nrf_log_frontend_std_3                   0x0002ad11   Thumb Code    40  nrf_log_frontend.o(i.nrf_log_frontend_std_3)
    nrf_log_hexdump_entry_process            0x0002ad39   Thumb Code   164  nrf_log_str_formatter.o(i.nrf_log_hexdump_entry_process)
    nrf_log_init                             0x0002adf5   Thumb Code    50  nrf_log_frontend.o(i.nrf_log_init)
    nrf_log_module_cnt_get                   0x0002ae3d   Thumb Code    10  nrf_log_frontend.o(i.nrf_log_module_cnt_get)
    nrf_log_module_name_get                  0x0002ae51   Thumb Code    30  nrf_log_frontend.o(i.nrf_log_module_name_get)
    nrf_log_panic                            0x0002ae75   Thumb Code    48  nrf_log_frontend.o(i.nrf_log_panic)
    nrf_log_std_entry_process                0x0002aea9   Thumb Code   200  nrf_log_str_formatter.o(i.nrf_log_std_entry_process)
    nrf_memobj_alloc                         0x0002af71   Thumb Code   122  nrf_memobj.o(i.nrf_memobj_alloc)
    nrf_memobj_free                          0x0002afeb   Thumb Code    64  nrf_memobj.o(i.nrf_memobj_free)
    nrf_memobj_get                           0x0002b02b   Thumb Code    16  nrf_memobj.o(i.nrf_memobj_get)
    nrf_memobj_pool_init                     0x0002b03b   Thumb Code    12  nrf_memobj.o(i.nrf_memobj_pool_init)
    nrf_memobj_put                           0x0002b047   Thumb Code    30  nrf_memobj.o(i.nrf_memobj_put)
    nrf_memobj_read                          0x0002b065   Thumb Code    34  nrf_memobj.o(i.nrf_memobj_read)
    nrf_memobj_write                         0x0002b087   Thumb Code    34  nrf_memobj.o(i.nrf_memobj_write)
    nrf_pwr_mgmt_init                        0x0002b0a9   Thumb Code    46  nrf_pwr_mgmt.o(i.nrf_pwr_mgmt_init)
    nrf_pwr_mgmt_run                         0x0002b0e9   Thumb Code    22  nrf_pwr_mgmt.o(i.nrf_pwr_mgmt_run)
    nrf_ringbuf_init                         0x0002b10f   Thumb Code    28  nrf_ringbuf.o(i.nrf_ringbuf_init)
    nrf_sdh_ble_app_ram_start_get            0x0002b175   Thumb Code    18  nrf_sdh_ble.o(i.nrf_sdh_ble_app_ram_start_get)
    nrf_sdh_ble_default_cfg_set              0x0002b18d   Thumb Code   370  nrf_sdh_ble.o(i.nrf_sdh_ble_default_cfg_set)
    nrf_sdh_ble_enable                       0x0002b321   Thumb Code   144  nrf_sdh_ble.o(i.nrf_sdh_ble_enable)
    nrf_sdh_enable_request                   0x0002b4e1   Thumb Code   112  nrf_sdh.o(i.nrf_sdh_enable_request)
    nrf_sdh_evts_poll                        0x0002b565   Thumb Code    44  nrf_sdh.o(i.nrf_sdh_evts_poll)
    nrf_sdh_is_enabled                       0x0002b595   Thumb Code     6  nrf_sdh.o(i.nrf_sdh_is_enabled)
    nrf_section_iter_init                    0x0002b5fb   Thumb Code    20  nrf_section_iter.o(i.nrf_section_iter_init)
    nrf_section_iter_next                    0x0002b63d   Thumb Code    46  nrf_section_iter.o(i.nrf_section_iter_next)
    nrf_sortlist_add                         0x0002b66b   Thumb Code    40  nrf_sortlist.o(i.nrf_sortlist_add)
    nrf_sortlist_peek                        0x0002b693   Thumb Code     8  nrf_sortlist.o(i.nrf_sortlist_peek)
    nrf_sortlist_pop                         0x0002b69b   Thumb Code    24  nrf_sortlist.o(i.nrf_sortlist_pop)
    nrf_sortlist_remove                      0x0002b6b3   Thumb Code    38  nrf_sortlist.o(i.nrf_sortlist_remove)
    nrf_strerror_find                        0x0002b6d9   Thumb Code    60  nrf_strerror.o(i.nrf_strerror_find)
    nrf_strerror_get                         0x0002b719   Thumb Code    22  nrf_strerror.o(i.nrf_strerror_get)
    nrfx_clock_enable                        0x0002b825   Thumb Code    16  nrfx_clock.o(i.nrfx_clock_enable)
    nrfx_clock_init                          0x0002b839   Thumb Code    26  nrfx_clock.o(i.nrfx_clock_init)
    nrfx_clock_lfclk_stop                    0x0002b859   Thumb Code    40  nrfx_clock.o(i.nrfx_clock_lfclk_stop)
    nrfx_gpiote_in_event_enable              0x0002b8bd   Thumb Code   168  nrfx_gpiote.o(i.nrfx_gpiote_in_event_enable)
    nrfx_gpiote_in_init                      0x0002b969   Thumb Code   232  nrfx_gpiote.o(i.nrfx_gpiote_in_init)
    nrfx_gpiote_in_is_set                    0x0002ba5d   Thumb Code    20  nrfx_gpiote.o(i.nrfx_gpiote_in_is_set)
    nrfx_gpiote_init                         0x0002ba71   Thumb Code   196  nrfx_gpiote.o(i.nrfx_gpiote_init)
    nrfx_gpiote_is_init                      0x0002bb45   Thumb Code    16  nrfx_gpiote.o(i.nrfx_gpiote_is_init)
    nrfx_prs_acquire                         0x0002bc1d   Thumb Code    78  nrfx_prs.o(i.nrfx_prs_acquire)
    nrfx_uart_0_irq_handler                  0x0002bc6d   Thumb Code    12  nrfx_uart.o(i.nrfx_uart_0_irq_handler)
    nrfx_uart_init                           0x0002bc81   Thumb Code   128  nrfx_uart.o(i.nrfx_uart_init)
    nrfx_uart_rx                             0x0002bd09   Thumb Code   286  nrfx_uart.o(i.nrfx_uart_rx)
    nrfx_uart_tx                             0x0002be2d   Thumb Code   134  nrfx_uart.o(i.nrfx_uart_tx)
    nrfx_uart_tx_in_progress                 0x0002beb9   Thumb Code    30  nrfx_uart.o(i.nrfx_uart_tx_in_progress)
    nrfx_uarte_0_irq_handler                 0x0002bedd   Thumb Code    12  nrfx_uarte.o(i.nrfx_uarte_0_irq_handler)
    nrfx_uarte_init                          0x0002bef1   Thumb Code   120  nrfx_uarte.o(i.nrfx_uarte_init)
    nrfx_uarte_rx                            0x0002bf71   Thumb Code   306  nrfx_uarte.o(i.nrfx_uarte_rx)
    nrfx_uarte_tx                            0x0002c0a9   Thumb Code   188  nrfx_uarte.o(i.nrfx_uarte_tx)
    nrfx_uarte_tx_in_progress                0x0002c169   Thumb Code    26  nrfx_uarte.o(i.nrfx_uarte_tx_in_progress)
    nvmc_config                              0x0002c291   Thumb Code    14  system_nrf52_1.o(i.nvmc_config)
    nvmc_wait                                0x0002c2a5   Thumb Code    12  system_nrf52_1.o(i.nvmc_wait)
    uart_event_handle                        0x0002d9f5   Thumb Code   226  main.o(i.uart_event_handle)
    nrf_log_backend_rtt_api                  0x0002e550   Data          12  nrf_log_backend_rtt.o(.constdata)
    m_ram_start                              0x0002e5f8   Data           4  nrf_sdh_ble.o(.constdata)
    __ctype_table                            0x0002e618   Data         129  ctype_o.o(.constdata)
    Region$$Table$$Base                      0x0002ee08   Number         0  anon$$obj.o(Region$$Table)
    Region$$Table$$Limit                     0x0002ee28   Number         0  anon$$obj.o(Region$$Table)
    log_const_data$$Base                     0x0002ee38   Number         0  nrf_ble_gatt.o(log_const_data)
    m_nrf_log_nrf_ble_gatt_logs_data_const   0x0002ee38   Data           8  nrf_ble_gatt.o(log_const_data)
    m_nrf_log_ble_nus_logs_data_const        0x0002ee40   Data           8  ble_nus.o(log_const_data)
    m_nrf_log_clock_logs_data_const          0x0002ee48   Data           8  nrf_drv_clock.o(log_const_data)
    m_nrf_log_CLOCK_logs_data_const          0x0002ee50   Data           8  nrfx_clock.o(log_const_data)
    m_nrf_log_GPIOTE_logs_data_const         0x0002ee58   Data           8  nrfx_gpiote.o(log_const_data)
    m_nrf_log_PRS_logs_data_const            0x0002ee60   Data           8  nrfx_prs.o(log_const_data)
    m_nrf_log_UART_logs_data_const           0x0002ee68   Data           8  nrfx_uart.o(log_const_data)
    m_nrf_log_UARTE_logs_data_const          0x0002ee70   Data           8  nrfx_uarte.o(log_const_data)
    m_nrf_log_app_button_logs_data_const     0x0002ee78   Data           8  app_button.o(log_const_data)
    m_nrf_log_app_timer_logs_data_const      0x0002ee80   Data           8  app_timer2.o(log_const_data)
    m_nrf_log_pwr_mgmt_logs_data_const       0x0002ee88   Data           8  nrf_pwr_mgmt.o(log_const_data)
    m_nrf_log_sortlist_logs_data_const       0x0002ee90   Data           8  nrf_sortlist.o(log_const_data)
    m_nrf_log_app_logs_data_const            0x0002ee98   Data           8  nrf_log_frontend.o(log_const_data)
    m_nrf_log_nrf_sdh_logs_data_const        0x0002eea0   Data           8  nrf_sdh.o(log_const_data)
    m_nrf_log_nrf_sdh_ble_logs_data_const    0x0002eea8   Data           8  nrf_sdh_ble.o(log_const_data)
    m_nrf_log_nrf_sdh_soc_logs_data_const    0x0002eeb0   Data           8  nrf_sdh_soc.o(log_const_data)
    log_const_data$$Limit                    0x0002eeb8   Number         0  nrf_sdh_soc.o(log_const_data)
    log_mempool                              0x0002eeb8   Data          20  nrf_log_frontend.o(nrf_balloc)
    sdh_ble_observers0$$Base                 0x0002eecc   Number         0  ble_conn_state.o(sdh_ble_observers0)
    sdh_ble_observers0$$Limit                0x0002eed4   Number         0  ble_conn_state.o(sdh_ble_observers0)
    sdh_ble_observers1$$Base                 0x0002eed4   Number         0  main.o(sdh_ble_observers1)
    sdh_ble_observers1$$Limit                0x0002eef4   Number         0  ble_conn_params.o(sdh_ble_observers1)
    sdh_ble_observers2$$Base                 0x0002eef4   Number         0  main.o(sdh_ble_observers2)
    sdh_ble_observers2$$Limit                0x0002ef04   Number         0  main.o(sdh_ble_observers2)
    sdh_ble_observers3$$Base                 0x0002ef04   Number         0  main.o(sdh_ble_observers3)
    sdh_ble_observers3$$Limit                0x0002ef0c   Number         0  main.o(sdh_ble_observers3)
    sdh_soc_observers0$$Base                 0x0002ef0c   Number         0  nrf_drv_clock.o(sdh_soc_observers0)
    sdh_soc_observers0$$Limit                0x0002ef14   Number         0  nrf_drv_clock.o(sdh_soc_observers0)
    sdh_stack_observers0$$Base               0x0002ef14   Number         0  nrf_sdh_ble.o(sdh_stack_observers0)
    sdh_stack_observers0$$Limit              0x0002ef24   Number         0  nrf_sdh_soc.o(sdh_stack_observers0)
    sdh_state_observers0$$Base               0x0002ef24   Number         0  nrf_drv_clock.o(sdh_state_observers0)
    sdh_state_observers0$$Limit              0x0002ef2c   Number         0  nrf_drv_clock.o(sdh_state_observers0)
    Image$$RW_IRAM1$$Base                    0x20003268   Number         0  anon$$obj.o ABSOLUTE
    nrf_drv_uart_use_easy_dma                0x200032c0   Data           1  nrf_drv_uart.o(.data)
    __stdout                                 0x20003348   Data           4  retarget.o(.data)
    __stdin                                  0x2000334c   Data           4  retarget.o(.data)
    SystemCoreClock                          0x200033b4   Data           4  system_nrf52_1.o(.data)
    nrf_nvic_state                           0x20003a38   Data          12  app_util_platform.o(.bss)
    _SEGGER_RTT                              0x20004008   Data         120  segger_rtt.o(.bss)
    __initial_sp                             0x20004a90   Data           0  arm_startup_nrf52805.o(STACK)



==============================================================================

Memory Map of the image

  Image Entry point : 0x00026201

  Load Region LR_IROM1 (Base: 0x00026000, Size: 0x0000907c, Max: 0x0000a000, ABSOLUTE, COMPRESSED[0x00008f84])

    Execution Region ER_IROM1 (Exec base: 0x00026000, Load base: 0x00026000, Size: 0x00008f2c, Max: 0x0000a000, ABSOLUTE)

    Exec Addr    Load Addr    Size         Type   Attr      Idx    E Section Name        Object

    0x00026000   0x00026000   0x00000200   Data   RO         5644    RESET               arm_startup_nrf52805.o
    0x00026200   0x00026200   0x00000000   Code   RO         7648  * .ARM.Collect$$$$00000000  mc_w.l(entry.o)
    0x00026200   0x00026200   0x00000004   Code   RO         7953    .ARM.Collect$$$$00000001  mc_w.l(entry2.o)
    0x00026204   0x00026204   0x00000004   Code   RO         7956    .ARM.Collect$$$$00000004  mc_w.l(entry5.o)
    0x00026208   0x00026208   0x00000000   Code   RO         7958    .ARM.Collect$$$$00000008  mc_w.l(entry7b.o)
    0x00026208   0x00026208   0x00000000   Code   RO         7960    .ARM.Collect$$$$0000000A  mc_w.l(entry8b.o)
    0x00026208   0x00026208   0x00000008   Code   RO         7961    .ARM.Collect$$$$0000000B  mc_w.l(entry9a.o)
    0x00026210   0x00026210   0x00000000   Code   RO         7963    .ARM.Collect$$$$0000000D  mc_w.l(entry10a.o)
    0x00026210   0x00026210   0x00000000   Code   RO         7965    .ARM.Collect$$$$0000000F  mc_w.l(entry11a.o)
    0x00026210   0x00026210   0x00000004   Code   RO         7954    .ARM.Collect$$$$00002712  mc_w.l(entry2.o)
    0x00026214   0x00026214   0x000000c8   Code   RO         3961    .emb_text           nrf_atfifo.o
    0x000262dc   0x000262dc   0x000000e2   Code   RO         4100    .emb_text           nrf_atomic.o
    0x000263be   0x000263be   0x00000002   PAD
    0x000263c0   0x000263c0   0x00000024   Code   RO         5645    .text               arm_startup_nrf52805.o
    0x000263e4   0x000263e4   0x0000001e   Code   RO         7651    .text               mc_w.l(llshl.o)
    0x00026402   0x00026402   0x00000002   PAD
    0x00026404   0x00026404   0x00000008   Code   RO         7653    .text               mc_w.l(ctype_o.o)
    0x0002640c   0x0002640c   0x00000024   Code   RO         7681    .text               mc_w.l(memcpya.o)
    0x00026430   0x00026430   0x00000024   Code   RO         7683    .text               mc_w.l(memseta.o)
    0x00026454   0x00026454   0x0000000e   Code   RO         7685    .text               mc_w.l(strlen.o)
    0x00026462   0x00026462   0x00000012   Code   RO         7689    .text               mc_w.l(strcpy.o)
    0x00026474   0x00026474   0x00000024   Code   RO         7982    .text               mc_w.l(init.o)
    0x00026498   0x00026498   0x00000056   Code   RO         7998    .text               mc_w.l(__dczerorl2.o)
    0x000264ee   0x000264ee   0x00000002   PAD
    0x000264f0   0x000264f0   0x000000bc   Code   RO         2141    i.GPIOTE_IRQHandler  nrfx_gpiote.o
    0x000265ac   0x000265ac   0x00000048   Code   RO         1978    i.POWER_CLOCK_IRQHandler  nrfx_clock.o
    0x000265f4   0x000265f4   0x00000018   Code   RO         3697    i.RTC1_IRQHandler   drv_rtc.o
    0x0002660c   0x0002660c   0x00000008   Code   RO         5169    i.SEGGER_RTT_Init   segger_rtt.o
    0x00026614   0x00026614   0x00000084   Code   RO         5183    i.SEGGER_RTT_WriteNoLock  segger_rtt.o
    0x00026698   0x00026698   0x00000008   Code   RO         5421    i.SWI2_IRQHandler   nrf_sdh.o
    0x000266a0   0x000266a0   0x00000010   Code   RO         5652    i.SystemCoreClockUpdate  system_nrf52_1.o
    0x000266b0   0x000266b0   0x0000026c   Code   RO         5653    i.SystemInit        system_nrf52_1.o
    0x0002691c   0x0002691c   0x00000010   Code   RO         2511    i.UARTE0_UART0_IRQHandler  nrfx_prs.o
    0x0002692c   0x0002692c   0x00000070   Code   RO         5187    i._DoInit           segger_rtt.o
    0x0002699c   0x0002699c   0x0000001c   Code   RO         5188    i._GetAvailWriteSpace  segger_rtt.o
    0x000269b8   0x000269b8   0x00000072   Code   RO         5190    i._WriteBlocking    segger_rtt.o
    0x00026a2a   0x00026a2a   0x0000004c   Code   RO         5191    i._WriteNoCheck     segger_rtt.o
    0x00026a76   0x00026a76   0x00000002   PAD
    0x00026a78   0x00026a78   0x00000010   Code   RO         7694    i.__0printf$bare    mc_w.l(printfb.o)
    0x00026a88   0x00026a88   0x0000000e   Code   RO         7992    i.__scatterload_copy  mc_w.l(handlers.o)
    0x00026a96   0x00026a96   0x00000002   Code   RO         7993    i.__scatterload_null  mc_w.l(handlers.o)
    0x00026a98   0x00026a98   0x0000000e   Code   RO         7994    i.__scatterload_zeroinit  mc_w.l(handlers.o)
    0x00026aa6   0x00026aa6   0x00000002   PAD
    0x00026aa8   0x00026aa8   0x00000038   Code   RO         5422    i.__sd_nvic_app_accessible_irq  nrf_sdh.o
    0x00026ae0   0x00026ae0   0x0000000c   Code   RO         3619    i.__sd_nvic_irq_disable  app_util_platform.o
    0x00026aec   0x00026aec   0x00000022   Code   RO         7701    i._printf_core      mc_w.l(printfb.o)
    0x00026b0e   0x00026b0e   0x00000018   Code   RO          864    i.addr_is_valid     ble_advertising.o
    0x00026b26   0x00026b26   0x00000058   Code   RO          865    i.adv_mode_next_avail_get  ble_advertising.o
    0x00026b7e   0x00026b7e   0x00000012   Code   RO          866    i.adv_mode_next_get  ble_advertising.o
    0x00026b90   0x00026b90   0x00000012   Code   RO          867    i.adv_set_data_size_max_get  ble_advertising.o
    0x00026ba2   0x00026ba2   0x00000054   Code   RO          624    i.advertising_buttons_configure  bsp_btn_ble.o
    0x00026bf6   0x00026bf6   0x00000002   PAD
    0x00026bf8   0x00026bf8   0x00000070   Code   RO            4    i.advertising_init  main.o
    0x00026c68   0x00026c68   0x00000024   Code   RO            5    i.advertising_start  main.o
    0x00026c8c   0x00026c8c   0x0000002c   Code   RO         3033    i.app_button_enable  app_button.o
    0x00026cb8   0x00026cb8   0x000000b0   Code   RO         3034    i.app_button_init   app_button.o
    0x00026d68   0x00026d68   0x000000bc   Code   RO         3195    i.app_error_fault_handler  app_error_weak.o
    0x00026e24   0x00026e24   0x0000001c   Code   RO         3135    i.app_error_handler_bare  app_error.o
    0x00026e40   0x00026e40   0x0000001e   Code   RO         3239    i.app_fifo_get      app_fifo.o
    0x00026e5e   0x00026e5e   0x00000024   Code   RO         3240    i.app_fifo_init     app_fifo.o
    0x00026e82   0x00026e82   0x00000022   Code   RO         3242    i.app_fifo_put      app_fifo.o
    0x00026ea4   0x00026ea4   0x00000010   Code   RO         3378    i.app_timer_cnt_get  app_timer2.o
    0x00026eb4   0x00026eb4   0x00000020   Code   RO         3379    i.app_timer_create  app_timer2.o
    0x00026ed4   0x00026ed4   0x0000006c   Code   RO         3380    i.app_timer_init    app_timer2.o
    0x00026f40   0x00026f40   0x00000036   Code   RO         3383    i.app_timer_start   app_timer2.o
    0x00026f76   0x00026f76   0x00000014   Code   RO         3384    i.app_timer_stop    app_timer2.o
    0x00026f8a   0x00026f8a   0x00000002   PAD
    0x00026f8c   0x00026f8c   0x00000054   Code   RO         3539    i.app_uart_get      app_uart_fifo.o
    0x00026fe0   0x00026fe0   0x000000dc   Code   RO         3540    i.app_uart_init     app_uart_fifo.o
    0x000270bc   0x000270bc   0x0000006c   Code   RO         3541    i.app_uart_put      app_uart_fifo.o
    0x00027128   0x00027128   0x0000000c   Code   RO         3620    i.app_util_critical_region_enter  app_util_platform.o
    0x00027134   0x00027134   0x00000048   Code   RO         3621    i.app_util_critical_region_exit  app_util_platform.o
    0x0002717c   0x0002717c   0x00000052   Code   RO          737    i.appearance_encode  ble_advdata.o
    0x000271ce   0x000271ce   0x0000007c   Code   RO         2565    i.apply_config      nrfx_uart.o
    0x0002724a   0x0002724a   0x0000007c   Code   RO         2810    i.apply_config      nrfx_uarte.o
    0x000272c6   0x000272c6   0x00000002   PAD
    0x000272c8   0x000272c8   0x0000003c   Code   RO         4883    i.backend_id_assign  nrf_log_frontend.o
    0x00027304   0x00027304   0x0000006c   Code   RO         1313    i.blcm_link_ctx_get  ble_link_ctx_manager.o
    0x00027370   0x00027370   0x0000016c   Code   RO          739    i.ble_advdata_encode  ble_advdata.o
    0x000274dc   0x000274dc   0x00000028   Code   RO          741    i.ble_advdata_parse  ble_advdata.o
    0x00027504   0x00027504   0x0000005c   Code   RO          742    i.ble_advdata_search  ble_advdata.o
    0x00027560   0x00027560   0x00000006   Code   RO          869    i.ble_advertising_conn_cfg_tag_set  ble_advertising.o
    0x00027566   0x00027566   0x00000100   Code   RO          870    i.ble_advertising_init  ble_advertising.o
    0x00027666   0x00027666   0x0000003c   Code   RO          872    i.ble_advertising_on_ble_evt  ble_advertising.o
    0x000276a2   0x000276a2   0x0000004a   Code   RO          874    i.ble_advertising_restart_without_whitelist  ble_advertising.o
    0x000276ec   0x000276ec   0x00000172   Code   RO          875    i.ble_advertising_start  ble_advertising.o
    0x0002785e   0x0002785e   0x00000002   PAD
    0x00027860   0x00027860   0x0000009c   Code   RO         1023    i.ble_conn_params_init  ble_conn_params.o
    0x000278fc   0x000278fc   0x00000014   Code   RO         1123    i.ble_conn_state_conn_idx  ble_conn_state.o
    0x00027910   0x00027910   0x0000001c   Code   RO         1137    i.ble_conn_state_valid  ble_conn_state.o
    0x0002792c   0x0002792c   0x00000076   Code   RO          745    i.ble_device_addr_encode  ble_advdata.o
    0x000279a2   0x000279a2   0x00000002   PAD
    0x000279a4   0x000279a4   0x00000198   Code   RO            7    i.ble_evt_handler   main.o
    0x00027b3c   0x00027b3c   0x00000078   Code   RO          625    i.ble_evt_handler   bsp_btn_ble.o
    0x00027bb4   0x00027bb4   0x00000040   Code   RO         1025    i.ble_evt_handler   ble_conn_params.o
    0x00027bf4   0x00027bf4   0x000000a8   Code   RO         1138    i.ble_evt_handler   ble_conn_state.o
    0x00027c9c   0x00027c9c   0x0000007a   Code   RO         1550    i.ble_nus_data_send  ble_nus.o
    0x00027d16   0x00027d16   0x00000002   PAD
    0x00027d18   0x00027d18   0x00000108   Code   RO         1551    i.ble_nus_init      ble_nus.o
    0x00027e20   0x00027e20   0x00000044   Code   RO         1552    i.ble_nus_on_ble_evt  ble_nus.o
    0x00027e64   0x00027e64   0x00000012   Code   RO         1339    i.ble_srv_is_notification_enabled  ble_srv_common.o
    0x00027e76   0x00027e76   0x00000056   Code   RO            8    i.ble_stack_init    main.o
    0x00027ecc   0x00027ecc   0x0000000c   Code   RO          465    i.bsp_board_button_idx_to_pin  boards.o
    0x00027ed8   0x00027ed8   0x00000030   Code   RO          466    i.bsp_board_button_state_get  boards.o
    0x00027f08   0x00027f08   0x00000024   Code   RO          469    i.bsp_board_pin_to_button_idx  boards.o
    0x00027f2c   0x00027f2c   0x0000002c   Code   RO          626    i.bsp_btn_ble_init  bsp_btn_ble.o
    0x00027f58   0x00027f58   0x00000032   Code   RO          627    i.bsp_btn_ble_sleep_mode_prepare  bsp_btn_ble.o
    0x00027f8a   0x00027f8a   0x00000002   PAD
    0x00027f8c   0x00027f8c   0x000000c4   Code   RO          530    i.bsp_button_event_handler  bsp.o
    0x00028050   0x00028050   0x00000014   Code   RO          531    i.bsp_button_is_pressed  bsp.o
    0x00028064   0x00028064   0x00000074   Code   RO            9    i.bsp_event_handler  main.o
    0x000280d8   0x000280d8   0x0000005c   Code   RO          534    i.bsp_event_to_button_action_assign  bsp.o
    0x00028134   0x00028134   0x00000006   Code   RO          535    i.bsp_indication_set  bsp.o
    0x0002813a   0x0002813a   0x00000002   PAD
    0x0002813c   0x0002813c   0x0000006c   Code   RO          536    i.bsp_init          bsp.o
    0x000281a8   0x000281a8   0x0000000e   Code   RO          538    i.bsp_wakeup_button_enable  bsp.o
    0x000281b6   0x000281b6   0x00000002   PAD
    0x000281b8   0x000281b8   0x000000e8   Code   RO         4884    i.buf_prealloc      nrf_log_frontend.o
    0x000282a0   0x000282a0   0x0000002c   Code   RO         4325    i.buffer_add        nrf_fprintf_format.o
    0x000282cc   0x000282cc   0x00000018   Code   RO         4885    i.buffer_is_empty   nrf_log_frontend.o
    0x000282e4   0x000282e4   0x0000002c   Code   RO         3036    i.button_get        app_button.o
    0x00028310   0x00028310   0x0000000e   Code   RO          539    i.button_timer_handler  bsp.o
    0x0002831e   0x0002831e   0x00000002   PAD
    0x00028320   0x00028320   0x00000054   Code   RO           10    i.buttons_leds_init  main.o
    0x00028374   0x00028374   0x00000020   Code   RO         2142    i.channel_free      nrfx_gpiote.o
    0x00028394   0x00028394   0x00000010   Code   RO         2143    i.channel_handler_get  nrfx_gpiote.o
    0x000283a4   0x000283a4   0x00000080   Code   RO         2144    i.channel_port_alloc  nrfx_gpiote.o
    0x00028424   0x00028424   0x0000000c   Code   RO         2145    i.channel_port_get  nrfx_gpiote.o
    0x00028430   0x00028430   0x000001c8   Code   RO         1341    i.characteristic_add  ble_srv_common.o
    0x000285f8   0x000285f8   0x00000030   Code   RO         1613    i.clock_clk_started_notify  nrf_drv_clock.o
    0x00028628   0x00028628   0x00000028   Code   RO         1614    i.clock_irq_handler  nrf_drv_clock.o
    0x00028650   0x00028650   0x00000026   Code   RO         3386    i.compare_func      app_timer2.o
    0x00028676   0x00028676   0x00000028   Code   RO          877    i.config_is_valid   ble_advertising.o
    0x0002869e   0x0002869e   0x0000003c   Code   RO         1139    i.conn_handle_list_get  ble_conn_state.o
    0x000286da   0x000286da   0x0000005a   Code   RO          746    i.conn_int_check    ble_advdata.o
    0x00028734   0x00028734   0x00000068   Code   RO          747    i.conn_int_encode   ble_advdata.o
    0x0002879c   0x0002879c   0x00000010   Code   RO           11    i.conn_params_error_handler  main.o
    0x000287ac   0x000287ac   0x0000005c   Code   RO           12    i.conn_params_init  main.o
    0x00028808   0x00028808   0x00000054   Code   RO         1026    i.conn_params_negotiation  ble_conn_params.o
    0x0002885c   0x0002885c   0x00000054   Code   RO          628    i.connection_buttons_configure  bsp_btn_ble.o
    0x000288b0   0x000288b0   0x00000060   Code   RO         3037    i.detection_delay_timeout_handler  app_button.o
    0x00028910   0x00028910   0x00000018   Code   RO         4886    i.dropped_sat16_get  nrf_log_frontend.o
    0x00028928   0x00028928   0x00000016   Code   RO         3698    i.drv_rtc_compare_disable  drv_rtc.o
    0x0002893e   0x0002893e   0x0000001a   Code   RO         3701    i.drv_rtc_compare_pending  drv_rtc.o
    0x00028958   0x00028958   0x0000005c   Code   RO         3702    i.drv_rtc_compare_set  drv_rtc.o
    0x000289b4   0x000289b4   0x0000000c   Code   RO         3703    i.drv_rtc_counter_get  drv_rtc.o
    0x000289c0   0x000289c0   0x00000128   Code   RO         3704    i.drv_rtc_init      drv_rtc.o
    0x00028ae8   0x00028ae8   0x00000024   Code   RO         3705    i.drv_rtc_irq_trigger  drv_rtc.o
    0x00028b0c   0x00028b0c   0x00000012   Code   RO         3707    i.drv_rtc_overflow_enable  drv_rtc.o
    0x00028b1e   0x00028b1e   0x00000010   Code   RO         3708    i.drv_rtc_overflow_pending  drv_rtc.o
    0x00028b2e   0x00028b2e   0x0000000e   Code   RO         3709    i.drv_rtc_start     drv_rtc.o
    0x00028b3c   0x00028b3c   0x0000000e   Code   RO         3710    i.drv_rtc_stop      drv_rtc.o
    0x00028b4a   0x00028b4a   0x000000fc   Code   RO         3715    i.drv_rtc_windowed_compare_set  drv_rtc.o
    0x00028c46   0x00028c46   0x00000018   Code   RO         3716    i.evt_disable       drv_rtc.o
    0x00028c5e   0x00028c5e   0x0000001c   Code   RO         3717    i.evt_enable        drv_rtc.o
    0x00028c7a   0x00028c7a   0x00000002   PAD
    0x00028c7c   0x00028c7c   0x000000f0   Code   RO         3038    i.evt_handle        app_button.o
    0x00028d6c   0x00028d6c   0x0000001c   Code   RO         3718    i.evt_pending       drv_rtc.o
    0x00028d88   0x00028d88   0x00000018   Code   RO         3245    i.fifo_get          app_fifo.o
    0x00028da0   0x00028da0   0x0000000a   Code   RO         3246    i.fifo_length       app_fifo.o
    0x00028daa   0x00028daa   0x0000000a   Code   RO         3542    i.fifo_length       app_uart_fifo.o
    0x00028db4   0x00028db4   0x00000012   Code   RO         3247    i.fifo_peek         app_fifo.o
    0x00028dc6   0x00028dc6   0x00000012   Code   RO         3248    i.fifo_put          app_fifo.o
    0x00028dd8   0x00028dd8   0x0000001e   Code   RO         1140    i.flag_toggle       ble_conn_state.o
    0x00028df6   0x00028df6   0x00000036   Code   RO          748    i.flags_encode      ble_advdata.o
    0x00028e2c   0x00028e2c   0x0000002a   Code   RO          878    i.flags_set         ble_advertising.o
    0x00028e56   0x00028e56   0x00000010   Code   RO         4709    i.fputc             retarget.o
    0x00028e66   0x00028e66   0x00000002   PAD
    0x00028e68   0x00028e68   0x00000080   Code   RO           13    i.gap_params_init   main.o
    0x00028ee8   0x00028ee8   0x000000c0   Code   RO           14    i.gatt_evt_handler  main.o
    0x00028fa8   0x00028fa8   0x00000044   Code   RO           15    i.gatt_init         main.o
    0x00028fec   0x00028fec   0x0000003c   Code   RO         3387    i.get_now           app_timer2.o
    0x00029028   0x00029028   0x00000048   Code   RO         3039    i.gpiote_event_handler  app_button.o
    0x00029070   0x00029070   0x0000000e   Code   RO           16    i.idle_state_handle  main.o
    0x0002907e   0x0002907e   0x00000002   PAD
    0x00029080   0x00029080   0x0000002c   Code   RO         1027    i.instance_get      ble_conn_params.o
    0x000290ac   0x000290ac   0x000000be   Code   RO         4326    i.int_print         nrf_fprintf_format.o
    0x0002916a   0x0002916a   0x00000002   PAD
    0x0002916c   0x0002916c   0x00000094   Code   RO         2567    i.interrupts_enable  nrfx_uart.o
    0x00029200   0x00029200   0x000000b4   Code   RO         2812    i.interrupts_enable  nrfx_uarte.o
    0x000292b4   0x000292b4   0x00000046   Code   RO         4888    i.invalid_packets_omit  nrf_log_frontend.o
    0x000292fa   0x000292fa   0x00000072   Code   RO         1028    i.is_conn_params_ok  ble_conn_params.o
    0x0002936c   0x0002936c   0x0000000c   Code   RO         1617    i.item_dequeue      nrf_drv_clock.o
    0x00029378   0x00029378   0x00000026   Code   RO         2146    i.latch_pending_read_and_check  nrfx_gpiote.o
    0x0002939e   0x0002939e   0x00000002   PAD
    0x000293a0   0x000293a0   0x00000018   Code   RO         1619    i.lfclk_stop        nrf_drv_clock.o
    0x000293b8   0x000293b8   0x00000010   Code   RO         1408    i.link_init         nrf_ble_gatt.o
    0x000293c8   0x000293c8   0x00000026   Code   RO           17    i.log_init          main.o
    0x000293ee   0x000293ee   0x00000002   PAD
    0x000293f0   0x000293f0   0x000000cc   Code   RO         4889    i.log_skip          nrf_log_frontend.o
    0x000294bc   0x000294bc   0x000000dc   Code   RO           18    i.main              main.o
    0x00029598   0x00029598   0x00000076   Code   RO          749    i.manuf_specific_data_encode  ble_advdata.o
    0x0002960e   0x0002960e   0x000000ca   Code   RO         4370    i.memobj_op         nrf_memobj.o
    0x000296d8   0x000296d8   0x00000038   Code   RO         4890    i.module_idx_get    nrf_log_frontend.o
    0x00029710   0x00029710   0x000000c8   Code   RO          750    i.name_encode       ble_advdata.o
    0x000297d8   0x000297d8   0x00000058   Code   RO         5732    i.nrf52_configuration_249  system_nrf52_1.o
    0x00029830   0x00029830   0x0000005c   Code   RO         5745    i.nrf52_errata_108  system_nrf52_1.o
    0x0002988c   0x0002988c   0x0000005c   Code   RO         5757    i.nrf52_errata_12   system_nrf52_1.o
    0x000298e8   0x000298e8   0x00000074   Code   RO         5768    i.nrf52_errata_136  system_nrf52_1.o
    0x0002995c   0x0002995c   0x00000044   Code   RO         5787    i.nrf52_errata_16   system_nrf52_1.o
    0x000299a0   0x000299a0   0x00000040   Code   RO         5804    i.nrf52_errata_182  system_nrf52_1.o
    0x000299e0   0x000299e0   0x0000002c   Code   RO         5835    i.nrf52_errata_217  system_nrf52_1.o
    0x00029a0c   0x00029a0c   0x00000074   Code   RO         5864    i.nrf52_errata_31   system_nrf52_1.o
    0x00029a80   0x00029a80   0x00000044   Code   RO         5865    i.nrf52_errata_32   system_nrf52_1.o
    0x00029ac4   0x00029ac4   0x00000074   Code   RO         5869    i.nrf52_errata_36   system_nrf52_1.o
    0x00029b38   0x00029b38   0x00000044   Code   RO         5870    i.nrf52_errata_37   system_nrf52_1.o
    0x00029b7c   0x00029b7c   0x00000044   Code   RO         5886    i.nrf52_errata_57   system_nrf52_1.o
    0x00029bc0   0x00029bc0   0x00000074   Code   RO         5892    i.nrf52_errata_66   system_nrf52_1.o
    0x00029c34   0x00029c34   0x00000028   Code   RO         3965    i.nrf_atfifo_init   nrf_atfifo.o
    0x00029c5c   0x00029c5c   0x0000001c   Code   RO         3966    i.nrf_atfifo_item_alloc  nrf_atfifo.o
    0x00029c78   0x00029c78   0x0000001c   Code   RO         3967    i.nrf_atfifo_item_free  nrf_atfifo.o
    0x00029c94   0x00029c94   0x0000001c   Code   RO         3968    i.nrf_atfifo_item_get  nrf_atfifo.o
    0x00029cb0   0x00029cb0   0x0000001c   Code   RO         3969    i.nrf_atfifo_item_put  nrf_atfifo.o
    0x00029ccc   0x00029ccc   0x0000001e   Code   RO         4034    i.nrf_atflags_clear  nrf_atflags.o
    0x00029cea   0x00029cea   0x0000001e   Code   RO         4039    i.nrf_atflags_get   nrf_atflags.o
    0x00029d08   0x00029d08   0x0000001e   Code   RO         4041    i.nrf_atflags_set   nrf_atflags.o
    0x00029d26   0x00029d26   0x0000000e   Code   RO         4102    i.nrf_atomic_flag_clear_fetch  nrf_atomic.o
    0x00029d34   0x00029d34   0x0000000e   Code   RO         4103    i.nrf_atomic_flag_set  nrf_atomic.o
    0x00029d42   0x00029d42   0x00000016   Code   RO         4105    i.nrf_atomic_u32_add  nrf_atomic.o
    0x00029d58   0x00029d58   0x00000016   Code   RO         4106    i.nrf_atomic_u32_and  nrf_atomic.o
    0x00029d6e   0x00029d6e   0x00000016   Code   RO         4109    i.nrf_atomic_u32_fetch_and  nrf_atomic.o
    0x00029d84   0x00029d84   0x00000016   Code   RO         4111    i.nrf_atomic_u32_fetch_store  nrf_atomic.o
    0x00029d9a   0x00029d9a   0x00000016   Code   RO         4115    i.nrf_atomic_u32_or  nrf_atomic.o
    0x00029db0   0x00029db0   0x00000016   Code   RO         4117    i.nrf_atomic_u32_sub  nrf_atomic.o
    0x00029dc6   0x00029dc6   0x00000052   Code   RO         4239    i.nrf_balloc_alloc  nrf_balloc.o
    0x00029e18   0x00029e18   0x00000010   Code   RO         4240    i.nrf_balloc_block2idx  nrf_balloc.o
    0x00029e28   0x00029e28   0x00000030   Code   RO         4241    i.nrf_balloc_free   nrf_balloc.o
    0x00029e58   0x00029e58   0x0000000c   Code   RO         4242    i.nrf_balloc_idx2block  nrf_balloc.o
    0x00029e64   0x00029e64   0x0000003c   Code   RO         4243    i.nrf_balloc_init   nrf_balloc.o
    0x00029ea0   0x00029ea0   0x00000016   Code   RO         2147    i.nrf_bitmask_bit_is_set  nrfx_gpiote.o
    0x00029eb6   0x00029eb6   0x0000001e   Code   RO         1410    i.nrf_ble_gatt_att_mtu_periph_set  nrf_ble_gatt.o
    0x00029ed4   0x00029ed4   0x00000038   Code   RO         1412    i.nrf_ble_gatt_init  nrf_ble_gatt.o
    0x00029f0c   0x00029f0c   0x0000011c   Code   RO         1413    i.nrf_ble_gatt_on_ble_evt  nrf_ble_gatt.o
    0x0002a028   0x0002a028   0x00000020   Code   RO         1494    i.nrf_ble_qwr_conn_handle_assign  nrf_ble_qwr.o
    0x0002a048   0x0002a048   0x00000032   Code   RO         1495    i.nrf_ble_qwr_init  nrf_ble_qwr.o
    0x0002a07a   0x0002a07a   0x0000007c   Code   RO         1496    i.nrf_ble_qwr_on_ble_evt  nrf_ble_qwr.o
    0x0002a0f6   0x0002a0f6   0x00000012   Code   RO         1979    i.nrf_clock_event_check  nrfx_clock.o
    0x0002a108   0x0002a108   0x00000012   Code   RO         1980    i.nrf_clock_event_clear  nrfx_clock.o
    0x0002a11a   0x0002a11a   0x00000002   PAD
    0x0002a11c   0x0002a11c   0x0000000c   Code   RO         1981    i.nrf_clock_int_disable  nrfx_clock.o
    0x0002a128   0x0002a128   0x00000008   Code   RO         1983    i.nrf_clock_task_trigger  nrfx_clock.o
    0x0002a130   0x0002a130   0x0000004c   Code   RO         1625    i.nrf_drv_clock_init  nrf_drv_clock.o
    0x0002a17c   0x0002a17c   0x00000030   Code   RO         1629    i.nrf_drv_clock_lfclk_release  nrf_drv_clock.o
    0x0002a1ac   0x0002a1ac   0x0000008c   Code   RO         1784    i.nrf_drv_uart_init  nrf_drv_uart.o
    0x0002a238   0x0002a238   0x00000044   Code   RO         3543    i.nrf_drv_uart_rx   app_uart_fifo.o
    0x0002a27c   0x0002a27c   0x00000044   Code   RO         3544    i.nrf_drv_uart_tx   app_uart_fifo.o
    0x0002a2c0   0x0002a2c0   0x0000002a   Code   RO         4286    i.nrf_fprintf       nrf_fprintf.o
    0x0002a2ea   0x0002a2ea   0x0000001c   Code   RO         4287    i.nrf_fprintf_buffer_flush  nrf_fprintf.o
    0x0002a306   0x0002a306   0x000001f0   Code   RO         4327    i.nrf_fprintf_fmt   nrf_fprintf_format.o
    0x0002a4f6   0x0002a4f6   0x00000028   Code   RO         2148    i.nrf_gpio_cfg      nrfx_gpiote.o
    0x0002a51e   0x0002a51e   0x00000028   Code   RO         2568    i.nrf_gpio_cfg      nrfx_uart.o
    0x0002a546   0x0002a546   0x00000028   Code   RO         2813    i.nrf_gpio_cfg      nrfx_uarte.o
    0x0002a56e   0x0002a56e   0x0000001a   Code   RO         2570    i.nrf_gpio_cfg_input  nrfx_uart.o
    0x0002a588   0x0002a588   0x0000001a   Code   RO         2815    i.nrf_gpio_cfg_input  nrfx_uarte.o
    0x0002a5a2   0x0002a5a2   0x00000018   Code   RO         2571    i.nrf_gpio_cfg_output  nrfx_uart.o
    0x0002a5ba   0x0002a5ba   0x00000018   Code   RO         2816    i.nrf_gpio_cfg_output  nrfx_uarte.o
    0x0002a5d2   0x0002a5d2   0x00000032   Code   RO         2150    i.nrf_gpio_cfg_sense_set  nrfx_gpiote.o
    0x0002a604   0x0002a604   0x00000034   Code   RO         2151    i.nrf_gpio_latches_read_and_clear  nrfx_gpiote.o
    0x0002a638   0x0002a638   0x00000022   Code   RO         2153    i.nrf_gpio_pin_present_check  nrfx_gpiote.o
    0x0002a65a   0x0002a65a   0x00000018   Code   RO         2154    i.nrf_gpio_pin_read  nrfx_gpiote.o
    0x0002a672   0x0002a672   0x00000016   Code   RO         2572    i.nrf_gpio_pin_set  nrfx_uart.o
    0x0002a688   0x0002a688   0x00000016   Code   RO         2817    i.nrf_gpio_pin_set  nrfx_uarte.o
    0x0002a69e   0x0002a69e   0x00000002   PAD
    0x0002a6a0   0x0002a6a0   0x0000000c   Code   RO         2156    i.nrf_gpiote_event_addr_get  nrfx_gpiote.o
    0x0002a6ac   0x0002a6ac   0x0000001c   Code   RO         2157    i.nrf_gpiote_event_clear  nrfx_gpiote.o
    0x0002a6c8   0x0002a6c8   0x00000016   Code   RO         2158    i.nrf_gpiote_event_is_set  nrfx_gpiote.o
    0x0002a6de   0x0002a6de   0x00000002   PAD
    0x0002a6e0   0x0002a6e0   0x0000000c   Code   RO         2159    i.nrf_gpiote_int_enable  nrfx_gpiote.o
    0x0002a6ec   0x0002a6ec   0x00000054   Code   RO         4891    i.nrf_log_backend_add  nrf_log_frontend.o
    0x0002a740   0x0002a740   0x00000002   Code   RO         4745    i.nrf_log_backend_rtt_flush  nrf_log_backend_rtt.o
    0x0002a742   0x0002a742   0x00000008   Code   RO         4746    i.nrf_log_backend_rtt_init  nrf_log_backend_rtt.o
    0x0002a74a   0x0002a74a   0x00000002   Code   RO         4747    i.nrf_log_backend_rtt_panic_set  nrf_log_backend_rtt.o
    0x0002a74c   0x0002a74c   0x00000020   Code   RO         4748    i.nrf_log_backend_rtt_put  nrf_log_backend_rtt.o
    0x0002a76c   0x0002a76c   0x000000f2   Code   RO         4813    i.nrf_log_backend_serial_put  nrf_log_backend_serial.o
    0x0002a85e   0x0002a85e   0x00000002   PAD
    0x0002a860   0x0002a860   0x00000038   Code   RO         4893    i.nrf_log_color_id_get  nrf_log_frontend.o
    0x0002a898   0x0002a898   0x00000028   Code   RO         4847    i.nrf_log_default_backends_init  nrf_log_default_backends.o
    0x0002a8c0   0x0002a8c0   0x0000031c   Code   RO         4894    i.nrf_log_frontend_dequeue  nrf_log_frontend.o
    0x0002abdc   0x0002abdc   0x000000e8   Code   RO         4895    i.nrf_log_frontend_hexdump  nrf_log_frontend.o
    0x0002acc4   0x0002acc4   0x00000014   Code   RO         4896    i.nrf_log_frontend_std_0  nrf_log_frontend.o
    0x0002acd8   0x0002acd8   0x00000018   Code   RO         4897    i.nrf_log_frontend_std_1  nrf_log_frontend.o
    0x0002acf0   0x0002acf0   0x00000020   Code   RO         4898    i.nrf_log_frontend_std_2  nrf_log_frontend.o
    0x0002ad10   0x0002ad10   0x00000028   Code   RO         4899    i.nrf_log_frontend_std_3  nrf_log_frontend.o
    0x0002ad38   0x0002ad38   0x000000bc   Code   RO         5087    i.nrf_log_hexdump_entry_process  nrf_log_str_formatter.o
    0x0002adf4   0x0002adf4   0x00000048   Code   RO         4903    i.nrf_log_init      nrf_log_frontend.o
    0x0002ae3c   0x0002ae3c   0x00000014   Code   RO         4904    i.nrf_log_module_cnt_get  nrf_log_frontend.o
    0x0002ae50   0x0002ae50   0x00000024   Code   RO         4908    i.nrf_log_module_name_get  nrf_log_frontend.o
    0x0002ae74   0x0002ae74   0x00000034   Code   RO         4909    i.nrf_log_panic     nrf_log_frontend.o
    0x0002aea8   0x0002aea8   0x000000c8   Code   RO         5088    i.nrf_log_std_entry_process  nrf_log_str_formatter.o
    0x0002af70   0x0002af70   0x0000007a   Code   RO         4371    i.nrf_memobj_alloc  nrf_memobj.o
    0x0002afea   0x0002afea   0x00000040   Code   RO         4372    i.nrf_memobj_free   nrf_memobj.o
    0x0002b02a   0x0002b02a   0x00000010   Code   RO         4373    i.nrf_memobj_get    nrf_memobj.o
    0x0002b03a   0x0002b03a   0x0000000c   Code   RO         4374    i.nrf_memobj_pool_init  nrf_memobj.o
    0x0002b046   0x0002b046   0x0000001e   Code   RO         4375    i.nrf_memobj_put    nrf_memobj.o
    0x0002b064   0x0002b064   0x00000022   Code   RO         4376    i.nrf_memobj_read   nrf_memobj.o
    0x0002b086   0x0002b086   0x00000022   Code   RO         4377    i.nrf_memobj_write  nrf_memobj.o
    0x0002b0a8   0x0002b0a8   0x00000040   Code   RO         4450    i.nrf_pwr_mgmt_init  nrf_pwr_mgmt.o
    0x0002b0e8   0x0002b0e8   0x00000016   Code   RO         4451    i.nrf_pwr_mgmt_run  nrf_pwr_mgmt.o
    0x0002b0fe   0x0002b0fe   0x00000010   Code   RO           19    i.nrf_qwr_error_handler  main.o
    0x0002b10e   0x0002b10e   0x0000001c   Code   RO         4526    i.nrf_ringbuf_init  nrf_ringbuf.o
    0x0002b12a   0x0002b12a   0x0000000c   Code   RO         3719    i.nrf_rtc_cc_get    drv_rtc.o
    0x0002b136   0x0002b136   0x0000000a   Code   RO         3720    i.nrf_rtc_cc_set    drv_rtc.o
    0x0002b140   0x0002b140   0x00000008   Code   RO         3721    i.nrf_rtc_counter_get  drv_rtc.o
    0x0002b148   0x0002b148   0x0000000e   Code   RO         3722    i.nrf_rtc_event_clear  drv_rtc.o
    0x0002b156   0x0002b156   0x00000006   Code   RO         3723    i.nrf_rtc_event_disable  drv_rtc.o
    0x0002b15c   0x0002b15c   0x00000006   Code   RO         3724    i.nrf_rtc_event_enable  drv_rtc.o
    0x0002b162   0x0002b162   0x00000006   Code   RO         3725    i.nrf_rtc_int_disable  drv_rtc.o
    0x0002b168   0x0002b168   0x00000006   Code   RO         3726    i.nrf_rtc_int_enable  drv_rtc.o
    0x0002b16e   0x0002b16e   0x00000006   Code   RO         3727    i.nrf_rtc_task_trigger  drv_rtc.o
    0x0002b174   0x0002b174   0x00000018   Code   RO         5552    i.nrf_sdh_ble_app_ram_start_get  nrf_sdh_ble.o
    0x0002b18c   0x0002b18c   0x00000194   Code   RO         5553    i.nrf_sdh_ble_default_cfg_set  nrf_sdh_ble.o
    0x0002b320   0x0002b320   0x0000014c   Code   RO         5554    i.nrf_sdh_ble_enable  nrf_sdh_ble.o
    0x0002b46c   0x0002b46c   0x00000074   Code   RO         5555    i.nrf_sdh_ble_evts_poll  nrf_sdh_ble.o
    0x0002b4e0   0x0002b4e0   0x00000084   Code   RO         5424    i.nrf_sdh_enable_request  nrf_sdh.o
    0x0002b564   0x0002b564   0x00000030   Code   RO         5425    i.nrf_sdh_evts_poll  nrf_sdh.o
    0x0002b594   0x0002b594   0x0000000c   Code   RO         5426    i.nrf_sdh_is_enabled  nrf_sdh.o
    0x0002b5a0   0x0002b5a0   0x00000054   Code   RO         5611    i.nrf_sdh_soc_evts_poll  nrf_sdh_soc.o
    0x0002b5f4   0x0002b5f4   0x00000006   Code   RO         5431    i.nrf_section_iter_get  nrf_sdh.o
    0x0002b5fa   0x0002b5fa   0x00000014   Code   RO         4584    i.nrf_section_iter_init  nrf_section_iter.o
    0x0002b60e   0x0002b60e   0x0000002e   Code   RO         4585    i.nrf_section_iter_item_set  nrf_section_iter.o
    0x0002b63c   0x0002b63c   0x0000002e   Code   RO         4586    i.nrf_section_iter_next  nrf_section_iter.o
    0x0002b66a   0x0002b66a   0x00000028   Code   RO         4619    i.nrf_sortlist_add  nrf_sortlist.o
    0x0002b692   0x0002b692   0x00000008   Code   RO         4621    i.nrf_sortlist_peek  nrf_sortlist.o
    0x0002b69a   0x0002b69a   0x00000018   Code   RO         4622    i.nrf_sortlist_pop  nrf_sortlist.o
    0x0002b6b2   0x0002b6b2   0x00000026   Code   RO         4623    i.nrf_sortlist_remove  nrf_sortlist.o
    0x0002b6d8   0x0002b6d8   0x00000040   Code   RO         4675    i.nrf_strerror_find  nrf_strerror.o
    0x0002b718   0x0002b718   0x0000001c   Code   RO         4676    i.nrf_strerror_get  nrf_strerror.o
    0x0002b734   0x0002b734   0x0000000c   Code   RO         2573    i.nrf_uart_errorsrc_get_and_clear  nrfx_uart.o
    0x0002b740   0x0002b740   0x0000000e   Code   RO         2574    i.nrf_uart_event_check  nrfx_uart.o
    0x0002b74e   0x0002b74e   0x0000000e   Code   RO         2575    i.nrf_uart_event_clear  nrfx_uart.o
    0x0002b75c   0x0002b75c   0x0000000c   Code   RO         2576    i.nrf_uart_hwfc_pins_set  nrfx_uart.o
    0x0002b768   0x0002b768   0x00000006   Code   RO         2577    i.nrf_uart_int_disable  nrfx_uart.o
    0x0002b76e   0x0002b76e   0x00000006   Code   RO         2578    i.nrf_uart_int_enable  nrfx_uart.o
    0x0002b774   0x0002b774   0x00000012   Code   RO         2579    i.nrf_uart_int_enable_check  nrfx_uart.o
    0x0002b786   0x0002b786   0x00000006   Code   RO         2580    i.nrf_uart_task_trigger  nrfx_uart.o
    0x0002b78c   0x0002b78c   0x0000000e   Code   RO         2581    i.nrf_uart_txrx_pins_set  nrfx_uart.o
    0x0002b79a   0x0002b79a   0x0000000c   Code   RO         2818    i.nrf_uarte_errorsrc_get_and_clear  nrfx_uarte.o
    0x0002b7a6   0x0002b7a6   0x0000000e   Code   RO         2819    i.nrf_uarte_event_check  nrfx_uarte.o
    0x0002b7b4   0x0002b7b4   0x0000000e   Code   RO         2820    i.nrf_uarte_event_clear  nrfx_uarte.o
    0x0002b7c2   0x0002b7c2   0x0000000c   Code   RO         2821    i.nrf_uarte_hwfc_pins_set  nrfx_uarte.o
    0x0002b7ce   0x0002b7ce   0x00000006   Code   RO         2822    i.nrf_uarte_int_disable  nrfx_uarte.o
    0x0002b7d4   0x0002b7d4   0x00000006   Code   RO         2823    i.nrf_uarte_int_enable  nrfx_uarte.o
