:020000040002F8
:10600000904A0020C1630200C9630200CB63020012
:10601000CD630200CF630200D163020000000000E4
:10602000000000000000000000000000D363020038
:10603000D563020000000000D7630200D9630200AC
:10604000AD650200DB6302001D690200DB63020034
:10605000DB63020000000000F1640200DB63020069
:10606000DB630200DB630200DB630200DB63020030
:10607000DB630200DB630200DB630200DB63020020
:10608000DB630200F5650200DB6302000000000034
:10609000DB630200DB63020099660200DB6302003F
:1060A000DB630200DB630200000000000000000070
:1060B00000000000000000000000000000000000E0
:1060C00000000000000000000000000000000000D0
:1060D00000000000000000000000000000000000C0
:1060E00000000000000000000000000000000000B0
:1060F00000000000000000000000000000000000A0
:10610000000000000000000000000000000000008F
:10611000000000000000000000000000000000007F
:10612000000000000000000000000000000000006F
:10613000000000000000000000000000000000005F
:10614000000000000000000000000000000000004F
:10615000000000000000000000000000000000003F
:10616000000000000000000000000000000000002F
:10617000000000000000000000000000000000001F
:10618000000000000000000000000000000000000F
:1061900000000000000000000000000000000000FF
:1061A00000000000000000000000000000000000EF
:1061B00000000000000000000000000000000000DF
:1061C00000000000000000000000000000000000CF
:1061D00000000000000000000000000000000000BF
:1061E00000000000000000000000000000000000AF
:1061F000000000000000000000000000000000009F
:10620000DFF80CD000F036F900480047BD940200DA
:10621000904A002030B450E8012F93B2C48923443F
:106220008489A34228BF1B1B0489A34202BFBFF37A
:106230002F8F002007E0C3EA020340E80134002C5E
:10624000E9D14FF001000A6030BC704750E8012FDF
:10625000C2EA024240E801210029F7D1704730B478
:1062600050E8022F1FFAA2F3C488A34202BFBFF373
:106270002F8F00200DE0C48923448489A34228BFC6
:106280001B1BC2EA034340E80234002CE8D14FF064
:1062900001000A6030BC704750E8022FC2EA224277
:1062A00040E802210029F7D17047034653E8022F46
:1062B000D988B2EB324F4FF0000017BF92B241EADB
:1062C000014142EA014104E05A68B2EB324F08BF93
:1062D000012043E80212002AE8D1704730B4044696
:1062E00054E8000F0D4644E80053002BF8D1156028
:1062F00030BC704730B4044654E8000F40EA010552
:1063000044E80053002BF7D1156030BC704730B41F
:10631000044654E8000F00EA010544E80053002B4E
:10632000F7D1156030BC704730B4044654E8000F14
:1063300080EA010544E80053002BF7D1156030BC1A
:10634000704730B4044654E8000F00EB010544E800
:106350000053002BF7D1156030BC704730B40446B1
:1063600054E8000FA0EB010544E80053002BF7D1DF
:10637000156030BC704770B404464FF0000054E81C
:10638000006F0D68AE4207BF44E80023012044E8D7
:1063900000630E60002B1CBF0020F0E770BC70474C
:1063A00030B4044654E8000F88422CBF451A054615
:1063B00044E80053002BF5D1156030BC7047000055
:1063C0000648804706480047FEE7FEE7FEE7FEE78F
:1063D000FEE7FEE7FEE7FEE7FEE7FEE7B166020046
:1063E00001620200202A04DB203A00FA02F10020B8
:1063F00070479140C2F1200320FA03F31943904003
:1064000070470000004870479CE6020040EA010324
:106410009B0703D009E008C9121F08C0042AFAD25A
:1064200003E011F8013B00F8013B521EF9D270471E
:10643000D2B201E000F8012B491EFBD270470022C6
:10644000F6E710B513460A4604461946FFF7F0FF73
:10645000204610BD421C10F8011B0029FBD1801AF8
:106460007047034611F8012B00F8012B002AF9D1DF
:1064700018467047064C074D06E0E06840F00103FF
:1064800094E8070098471034AC42F6D3FFF7BCFEFF
:1064900008EE020028EE020070B58C1810F8015BBF
:1064A00015F0070301D110F8013B2A1106D110F8AD
:1064B000012B03E010F8016B01F8016B5B1EF9D1B1
:1064C0002B0705D40023521E0DD401F8013BFAE737
:1064D00010F8013BCB1A921C03E013F8015B01F8A2
:1064E000015B521EF9D5A142D8D3002070BD000037
:1064F0002DE9F84F0026002000904FF48077012509
:10650000002410E0384604F0DFF840B100BF254811
:106510000068284018B1384604F0C8F82E436D00D2
:10652000381D87B2641C082CECD34FF4BE7004F005
:10653000CBF850B14FF4BE7004F0B8F846F0004606
:106540006A460121002004F05DF8F0B210B3012585
:1065500000241DE005EA0600C0B100BF124850F853
:106560002400C0F30420814600BF0F4850F82400E7
:10657000C0F301408246204601F00CFF8046B8F18E
:10658000000F02D051464846C04700BF6D00641C52
:10659000082CDFD306F0004010B1684606F0AEFAD2
:1065A000BDE8F88F046300401065004010B54FF45B
:1065B000807003F0A0FD50B14FF4807003F0A4FD93
:1065C000012003F0ABFD0A480168002088474FF422
:1065D000827003F090FD50B14FF4827003F094FD8F
:1065E000022003F09BFD024801680120884710BD8E
:1065F000C432002010B5034A1068034A1168884766
:1066000010BD0000343300203033002010B500F0FE
:106610008DF910BD2DE9F047074688461646C2465B
:1066200007EB47011B4800EBC109D9F8140020B162
:10663000012811D0022826D11EE0484600F0AEF90C
:106640000546B54201D2002405E0344632465146A3
:10665000484600F0EAF918E0484600F09FF9054680
:10666000B54201D2284600E0304604462246514653
:10667000484600F0DAF908E032465146484600F054
:106680009BF9044601E0002400BF00BF2046BDE89E
:10669000F08700002040002010B504F063FF10BD1B
:1066A00001480249086070470090D003B4330020CD
:1066B00010B503F0EBF828B189480088C0F3042036
:1066C0008849086003F04AF910B18748874948674C
:1066D00003F09CF930B18248E0380068C0F34230E2
:1066E0008349086003F0CCF928B18248006820F0A3
:1066F00080708049086003F0E5F948B100207E49C8
:1067000008604FF08041C1F810017949091F086005
:1067100003F012FA18B1032075496431086003F0E0
:106720002DFA68B105207549086001207349783158
:10673000086000207149083108603F20091F086087
:1067400003F03EFA002855D06548E03000686C49F7
:1067500008606348E4300068091D08606048E8305C
:106760000068091D08605E48EC300068091D08607B
:106770005B48F0300068091D08605948F430006833
:10678000091D08605648F83000685D4920310860EE
:106790005348FC300068091D08605A480068091D0C
:1067A00008605848001D0068091D086055480830F9
:1067B0000068091D086053480C300068091D086016
:1067C0005048103000684E49403108604D48143040
:1067D0000068091D08604B4818300068091D0860F2
:1067E00048481C300068091D086046482030006891
:1067F000091D086003F01CF830B13948CC38006836
:1068000000F04F004049086003F06EF840B13F4887
:10681000006800F0010018B16FF001003B4908600A
:1068200003F0BEF828B13A48006840F48060384967
:10683000086003F0D5F828B13348006840F00F0035
:106840003149086000BF02F0C7FF20B1314800683D
:1068500027491C31086000BF2E480838006800F046
:10686000004028B92B48001F006800F0004090B39A
:10687000012005F00DFD152026490839086005F0B6
:1068800011FD15214FF01020C0F8041205F00AFD8B
:10689000002005F0FDFC00BF00BF00BF00BF00BF2F
:1068A000BFF34F8F00BF00BF00BF1248F038006831
:1068B00000F4E06018490843001D0E49F0390860F3
:1068C00000BF00BF00BFBFF34F8F00BF00BF00BFBE
:1068D00000BF00BFFDE7FFE7FFF7E2FE10BD0000CD
:1068E00024030010403501400DF0ADBA00C0074050
:1068F0003C050040FCED00E00C010040105600405B
:1069000020C5004024040010E40E004000040040B4
:106910003C170040081200100000FA0510B50249AB
:106920000868804710BD0000CC32002010B5124C22
:1069300002202061606111A0A0611349E1614FF460
:10694000007121620021A1626162E1620BA0A0647A
:106950000E49E164102121650021A1656165E165B1
:106960000BA1E01DFFF77DFD0AA12046FFF779FD91
:106970002020A07110BD0000084000205465726DF9
:10698000696E616C000000008040002080420020A1
:1069900052545400534547474552000010B5014634
:1069A0000A69CB689A4204D88C68641EE41AA0185D
:1069B00001E0D41A601E10BD2DE9F0470446894657
:1069C00017464FF0000AE56800BFD4F81080A845CC
:1069D00003D9A8EB0500461E04E0A5EB0800401C07
:1069E000A1680E1AA068401BB04201D9304601E0F0
:1069F000A068401B0646BE4201D2304600E0384641
:106A000006466168481932464946FFF7FFFCB24422
:106A1000B144BF1B3544A068A84200D10025E56001
:106A2000002FD2D15046BDE8F0872DE9F04704464B
:106A300089461546E668A068871BAF4208D9616899
:106A400088192A464946FFF7E1FC7019E06010E01A
:106A5000B8466168881942464946FFF7D7FCA5EB5E
:106A6000070809EB070142466068FFF7CFFCC4F84E
:106A70000C80BDE8F0870000014A024900F036B8FA
:106A8000578E02004833002002E008C8121F08C1D8
:106A9000002AFAD170477047002001E001C1121F9F
:106AA000002AFBD1704700000146202908DA0120A6
:106AB00088400A4A104008B1012070470020FCE7D6
:106AC000402909DAA1F12000012202FA00F008B100
:106AD0000120F2E70020F0E70120EEE7FC06FFBD11
:106AE00000BFEFF31081084672B670472DE9F04100
:106AF00016460F460446002503E03946B047641C9D
:106B00006D1C20780028F8D12846BDE8F0810246A7
:106B1000002104E0505C08B101207047491C06299F
:106B2000F8D30020F9E770B504460D4604F1EB00F8
:106B3000FFF7EDFF0646012D06D0022D0DD0032DE7
:106B400011D0042D19D113E0A07928B194F82400B4
:106B500010B90EB1012070BD00BFE07910B10EB1C7
:106B60000220F8E700BF207A08B10320F3E700BF56
:106B7000607A08B10420EEE700BF0020EBE7014691
:106B8000481C052290FBF2F302FB1300C0B27047D1
:106B9000014691F82420012A01D11F2000E01F2086
:106BA000704710B501220221002001F095FA044639
:106BB00000BF1CB1072C01D0204610BD00BF07222A
:106BC0000221012001F088FA044600BF1CB1072C05
:106BD00001D02046F1E700BF0A220021084601F05B
:106BE0007BFA044600BF1CB1072C01D02046E4E725
:106BF00000BF0020E1E7000030B5ABB0AC21684633
:106C0000FFF71DFC02208DF8000000208DF8020027
:106C100005208DF803000121ADF84C100F491491A7
:106C200001218DF87C104021229144F25061239182
:106C30000B48299069460B4800F095FC044600BFBC
:106C4000254625B100BF284600F0ECF800BF00BF84
:106C50000121044800F084FC2BB030BD94320020A8
:106C6000B5C20200D433002070B50321064800F0FD
:106C70003DFD044600BF254625B100BF284600F073
:106C8000D1F800BF00BF70BDD433002010B5002480
:106C900007E00749096811F83400012104F00EFEED
:106CA000641C044800788442F3D3002010BD000027
:106CB000D8320020DC3200202DE9F84306460D468C
:106CC00017460A2F02D20720BDE8F88304F03AFFE6
:106CD00038B904F0CDFE044600BF204600B1F3E70A
:106CE00000BF184806601848057018480760184823
:106CF0000021016041608160C160164A11605160ED
:106D000015E006EBC50814480068009098F80200EA
:106D10008DF8010098F80000104A694604F024FE3E
:106D2000044600BF204600B1CEE700BF00BF281ECA
:106D3000A5F10101CDB2E4D1094A0021094800F0D2
:106D4000B9F8C1E7D8320020DC320020E032002060
:106D5000A0390020E83200208CE3020029900200D4
:106D6000B188020088E3020072B600BF04F082F826
:106D700000BF00BF03F0A4FD0028FBD100BF00BF8F
:106D80001D491E4A891AC908012242EA01401CA174
:106D900003F098FF00BF1D48006800F0010000B13B
:106DA00000BE00BF1449154A891AC908022242EAE6
:106DB000014017A103F086FF00BF00BF00BF00BF66
:106DC00000BFBFF34F8F00BF00BF00BF0F48E438C4
:106DD000006800F4E06012490843001D0B49E439E3
:106DE000086000BF00BF00BFBFF34F8F00BF00BFF0
:106DF00000BF00BF00BFFDE798EE020038EE0200C2
:106E0000466174616C206572726F7200F0ED00E093
:106E100053797374656D20726573657400000000AA
:106E20000000FA053EB50446002000900190029053
:106E300002946A46002144F20100FFF795FF3EBD2F
:106E400070B504460D46204601F0AAFF28B1294638
:106E5000204601F099FF002070BD0520FCE70346A5
:106E600009B90E20704712B1501E104008B1092018
:106E7000F8E71960501E988000209860D86000BF25
:106E8000F0E770B504460D46204601F089FFA18861
:106E9000884205D82946204601F095FF002070BDA4
:106EA0000420FCE710B5024801F084FD10BD00008D
:106EB000F032002010B503460C460AB9072010BD79
:106EC00019684A61012C01D1012000E0002008610D
:106ED0000020F4E738B513480068009008235822D2
:106EE00011491248006802F0A5FE04460CB1204684
:106EF00038BD0F4A69460F4801F062FD04460CB1E7
:106F00002046F5E701210B4801F000FE01230A4A63
:106F10001946084801F020FD012008490870204664
:106F2000E6E70000A0E30200B039002090E3020091
:106F3000B1CD0200F0320020FFFF7F00FC320020C4
:106F40002DE9F04106460D4617463446207F10B124
:106F50000020BDE8F081A76102F048F8401941F136
:106F60000001C4E90201206900B125612146002029
:106F700006F098FCEDE770B504462546002028771A
:106F80002946012006F08EFC70BD00002DE9F0417D
:106F900004460F48077821460E48FFF751FF804608
:106FA00097B100200A49087001220B490B4803F0F1
:106FB00043F9054600BF2E4626B100BF3046FFF715
:106FC00031FF00BF00BF00BF4046BDE8F0810000B8
:106FD0002E330020183A00202D33002014330020D7
:106FE0002DE9F04188B004460E46174698462B48D6
:106FF00007601EB9072008B0BDE8F081B08882B2F2
:1070000027483168FFF72BFF054600BF284600B12F
:10701000F1E700BFB08982B22248B168FFF71FFFD5
:10702000054600BF284600B1E5E700BF20221E4903
:107030006846FFF7EBF960690690207C08B10120F3
:1070400000E000208DF814008DF81C80607C08B1F1
:107050000E2000E000208DF81500E0680290A06886
:1070600003902068019060680090104A69461048BB
:1070700003F09CF8054600BF284600B1BBE700BFFF
:1070800000200C4908702068401C28B101220A49E0
:10709000074803F0D1F8AEE70020ACE72833002022
:1070A000183A0020283A0020A4E3020015DB020071
:1070B000143300202E3300202D3300202DE9F04121
:1070C000054629461448FFF7DCFE064606BB134C6E
:1070D000002720781249085C20B1201D05F044F8F3
:1070E000074608E020780E49085C20B904F10C003E
:1070F00004F0E2FE074600BF57B90A490648FFF709
:107100009FFE28B901220749044803F0B7F8064654
:107110003046BDE8F0810000283A002014330020FA
:10712000C03200202C33002010B50446204605F064
:107130008DFF10BD70B5044625460E488068B0B17D
:10714000ADB9FFF7CDFC06460A4800680A49086059
:10715000084840684FF0E021C1F8040100200549CB
:1071600088601EB900BF62B600BF00BF00BF00BF8D
:1071700070BD0000383A002000E100E0F8B5054697
:107180000C4617462088001DB84201D90C20F8BDD6
:10719000684679DF064600BF304600B1F7E700BF1A
:1071A0000320218868542088401C208019202188D1
:1071B00068542088401C208020884119BDF80000B8
:1071C00006F0C8FE2188084420800020DFE770B563
:1071D00005460C462068401C28B1206803F049FA97
:1071E000206803F0DEF96068401C18B10021606877
:1071F00003F0BDF92868A169C0F8241500BF617DBE
:10720000227D286841EA0203C0F86C3500BFD4E94A
:107210000012286804F0BAFA207D012814D1A06871
:10722000401C18B10021A06803F0A1F9E068401CDF
:1072300028B1E06803F01DFAE06803F0B2F9D4E980
:107240000221286804F08AFA70BD70B505460C4624
:107250002068401C28B1206803F016FA206803F06B
:10726000ACF96068401C18B10021606803F08CF92B
:107270002868A169C0F8241500BF617D227D2868B7
:1072800041EA0203C0F86C3500BFD4E90012286857
:1072900004F0B6FA207D012814D1A068401C18B172
:1072A0000021A06803F070F9E068401C28B1E06894
:1072B00003F0EAF9E06803F080F9D4E902212868D4
:1072C00004F07FFA70BD0000002114E00C48D0F8F3
:1072D0001024012308E000BFD0680079884201D162
:1072E000002303E0D0680268002AF4D100BF0BB18C
:1072F00008467047491C0A29E8DB4FF0FF30F8E7E1
:10730000E83B00202DE9F04104460F46154615B92B
:107310000E20BDE8F0810020286000BF0CB90E20CF
:10732000F7E700BF00BF206808B90E20F1E700BFF3
:1073300000BFE088C11700EB91718910A0EB8101BB
:1073400009B10720E5E700BF384600F0D7FAC6B21A
:10735000142E01D10520DCE72079B04201DC0420A5
:10736000D7E7E188206806FB010028600020D0E70D
:107370002DE9FC4105468846164600243788002042
:10738000308095F82D0058B13A463146404600F01D
:10739000CDFA044600BF204608B1BDE8FC8100BF1D
:1073A000A87850B13A4631464046FFF7E7FE04461A
:1073B00000BF204600B1F0E700BFE87860B1E9788F
:1073C00048B23B463246414601F015FD044600BF37
:1073D000204600B1E1E700BF686868B1696891F9CB
:1073E00000003B463246414606F0E9FA044600BF3B
:1073F000204600B1D1E700BF288900280EDD4346B2
:107400000622022105F10800CDE9006706F072FEB0
:10741000044600BF204600B1BFE700BF288A00280D
:107420000EDD43460722032105F11000CDE9006778
:1074300006F060FE044600BF204600B1ADE700BF85
:10744000288B00280EDD43461522142105F1180073
:10745000CDE9006706F04EFE044600BF204600B1AD
:107460009BE700BF286A58B13B4632464146286A2E
:1074700001F060F9044600BF204600B18DE700BF6F
:10748000686A58B13B4632464146686A02F084F861
:10749000044600BF204600B17FE700BF95F82C00EE
:1074A00000280BDD3B4632464146284605F0E2FE09
:1074B000044600BF204600B16FE700BF287858B1EE
:1074C0003B4632464146284602F022F9044600BFB8
:1074D000204600B161E700BF20465EE7F8B50446EC
:1074E0000E461546002000902B466A46314620463F
:1074F00000F008F807460FB90020F8BDBDF80000FD
:107500002044FAE7F0B504460D461E4604B10AB918
:107510000020F0BD002103E0605C401C084481B203
:10752000481CA84206DA10888842F5DC481C205C1A
:10753000B042F1D1A94201DB0020EAE7881C87B202
:10754000605C10B1605C401E00E0002083B213B1AB
:10755000F818A84201DD0020DBE717801846D8E7BD
:1075600080F83010704770B504460D4605B10CB96F
:107570000E2070BD05F1780001F07DF808B90720F4
:10758000F7E70020A0702C2205F17801201DFEF7FE
:107590003DFF002084F83000D5F8A4006063D5F8E2
:1075A000A800A0634FF6FF70A4F8E80004F1D4002F
:1075B000C4F8E4000021F020C4F8EA10A4F8EE10AA
:1075C0000155207810B9FF2084F8540004F15500CB
:1075D000C4F8D4002046FFF7DBFAD821085304F1A1
:1075E000D80204F155012846FFF7C2FE064600BF47
:1075F000304600B1BDE700BF04F19300DC21085123
:107600002046FFF7C5FAA4F8E000DC20015904F198
:10761000E00205F13C00FFF7ABFE064600BF304636
:1076200000B1A6E700BF012151200155208B81B296
:1076300048200153012084F83C000021216450209F
:1076400001556169616404F13C02002104F15400B8
:1076500072DF064600BF304600B18AE700BF012056
:107660002070304685E770B504460D462E462088CA
:10767000102804D0112807D026280FD109E0214670
:10768000304604F0EBFE0AE02146304604F095FF58
:1076900005E02146304605F03EF900E000BF00BF9E
:1076A00070BD70B5044694F8540074DF012084F86E
:1076B000F200002084F8F40000215020015506213A
:1076C000204601F0B3FB054600BF284600B170BD5F
:1076D00000BFA178204600F009F8054625B1A06B4F
:1076E00010B12846A16B88470020F0E770B504462A
:1076F0000E46207808B9082070BDA6700021F02041
:10770000C4F8EA10A4F8EE100155A07910B1A078E1
:10771000012809D0E07910B1A078012804D0E079DF
:1077200070B1A07802280BD1606B30B1012084F8D1
:10773000F1000820616B884702E0002084F8F10026
:1077400031462046FFF7EFF9A070606BA0B1A0783A
:10775000032802D0A07804280ED1607960B194F893
:10776000F20048B9002084F8F400012084F8F30006
:107770000720616B884702E0002084F8F30018219D
:1077800004F13C00FEF75BFE012084F83C0004F1AC
:107790002C0005F067F920B194F82C105120015508
:1077A00002E001215120015594F8240060B104F158
:1077B000280005F057F920B194F8281052200155FF
:1077C00002E0012152200155002150200155A078EE
:1077D000052824D2DFE800F01F030A11180004F185
:1077E0003C01204605F0D2FD054619E004F13C01BC
:1077F000204605F0B9FD054612E004F13C012046A3
:1078000005F0D6FD05460BE004F13C01204605F0ED
:10781000F6FD054604E0002084F8310000E000BFDA
:1078200000BFA07898B104F13C0204F15400D4F8F0
:10783000E41072DF05460DB128465DE794F830107C
:1078400094F8540073DF05460DB1284654E7606B89
:1078500018B194F83100616B884700204CE70000B4
:107860002DE9F041044600BF14B90E20BDE8F081B7
:1078700000BF1C2221461C48FEF7C8FD1B481A49C0
:107880000860206860B120687ADF05460DB128469F
:10789000ECE7164821680A6802604968416005E023
:1078A00012487BDF05460DB12846DFE7002617E0CA
:1078B00006EB86000E4901EB800700BF4FF6FF7014
:1078C000388000BF0B4800EB461078600A4A002160
:1078D000381DFFF7EFFA05460DB10320C6E7761C09
:1078E000002EE5D00020C1E724380020B03200206F
:1078F00010380020F037002019E0020010B50446CF
:10790000204600F005F808B1204610BD1420FCE721
:1079100010B50446142C01DB002010BD214602489E
:1079200002F0E3F9F9E70000443800202DE9FC41BA
:1079300005460C46174620880930B84202D90C206B
:10794000BDE8FC8168466DDF064600BF304600B1E9
:10795000F6E700BF0820218868542088401C20805A
:107960001B20218868542088401C208020882844BF
:10797000DDF801100160BDF8051081802088801DB0
:1079800020809DF80000400818B900202188685424
:1079900002E00120218868542088401C20800020BB
:1079A000CEE70000F8B505460F462888212847D0C5
:1079B00006DC10280BD0112833D013287CD159E0D5
:1079C0003B287BD0522866D05628F7D184E04B491B
:1079D0004B4A891AC908032242EA014049A103F02F
:1079E00071F9072000F0A6FB044600BF264626B129
:1079F00000BF3046FFF716FA00BF00BFA888444911
:107A0000088008460188434802F00EFB044600BF88
:107A1000264626B100BF3046FFF704FA00BF00BF7C
:107A200069E03649364A891AC908032242EA014008
:107A300039A103F047F94FF6FF70354908805AE045
:107A40002E492F4A891AC908042242EA014036A168
:107A500003F038F900200090A88869468FDF0446BB
:107A600000BF264626B100BF3046FFF7DBF900BF56
:107A700000BF40E000231A468521254800887FDFAB
:107A8000044600BF264626B100BF3046FFF7CAF9BC
:107A900000BF00BF2FE000231A4619461C4800888B
:107AA000B1DF044600BF264626B100BF3046FFF7CF
:107AB000B9F900BF00BF1EE01CE0FFE7A888132152
:107AC00076DF044600BF264626B100BF3046FFF7EA
:107AD000A9F900BF00BF0EE0A888132176DF044695
:107AE00000BF264626B100BF3046FFF79BF900BF16
:107AF00000BF00E000BF00BFF8BD000098EE02002C
:107B000038EE0200436F6E6E6563746564000000BA
:107B100090320020C8330020446973636F6E6E6535
:107B200063746564000000005048592075706461FA
:107B3000746520726571756573742E0070B50546A5
:107B40000E462888102802D011282CD115E017489D
:107B5000006860B900F082FE044600BF34B11448EA
:107B6000006818B1204612490968884700BF0F48CD
:107B70000068401C0D49086016E00C480068401E73
:107B80000A4908600846006860B9FFF70AF8044629
:107B900000BF34B10648006818B12046044909689E
:107BA000884700BF00E000BF00BF70BDAC320020BE
:107BB000A832002070B504460D462088102806D053
:107BC000112808D012280ED0502810D107E02046E6
:107BD00004F0D2FB0CE0204604F0D6FC08E020467E
:107BE00004F0CAFE04E0204604F0AEFB00E000BF53
:107BF00000BF70BD2DE9F04104460F46A6882088DD
:107C0000102806D0112810D0192835D01A283FD1B5
:107C10000FE005F09FF8304605F078F820B900BF76
:107C20000420FFF7FFF800BF32E0304605F0B6F859
:107C30002EE0207A0509042D01DB012000E0002060
:107C400002463146144801F0C7F8032D01DB01203C
:107C500000E00020024631460F48001F01F0BCF84A
:107C6000022D01DB012000E00020024631460A48D7
:107C7000083801F0B1F80BE0207A40B9607AC0F31F
:107C8000C0052A463146044801F0A6F800BF00BFEF
:107C900000BFBDE8F0810000583800202DE9F04118
:107CA00086B00446884617461D4600BF1CB90E2004
:107CB00006B0BDE8F08100BF01AA29466069FFF760
:107CC00021FB064600BF304600B1F1E700BF4FF68A
:107CD000FF70854201D0019808B90520E8E70198B6
:107CE000007808B90820E3E73888F42801DD072088
:107CF000DEE700200290039004900590A088ADF884
:107D00000800CDF81480049701208DF80A0002A91C
:107D10002846AEDFCCE7000070B58EB004460E46B4
:107D20003E4B0FCB09AD0FC500BF14B90E200EB0EE
:107D300070BD00BF00BF0EB90E20F8E700BF30686D
:107D4000A061214609A862DF054600BF284600B1B0
:107D5000EDE700BF20788DF836000120ADF8340043
:107D6000A21C0DA9A8DF054600BF284600B1DEE72A
:107D700000BF202101A8FEF762FB0220ADF804003D
:107D800020788DF80600F420ADF808000120ADF849
:107D90000A008DF810009DF8110020F0080008304E
:107DA0008DF811009DF8110020F00400001D8DF8E1
:107DB000110001208DF815008DF81600608804F17F
:107DC0000C0201A900F034FB05460DB12846AEE7D0
:107DD000202101A8FEF733FB0320ADF80400207832
:107DE0008DF80600F420ADF808000120ADF80A0077
:107DF0008DF810009DF8110020F0100010308DF863
:107E0000110001208DF815008DF816008DF817006F
:107E10006088221D01A900F00BFB88E7D8E2020070
:107E200070B504460D4605B104B970BD2E462088D4
:107E3000102804D0502807D057280FD109E0214638
:107E4000304604F0D1FA0AE02146304604F0C0FD85
:107E500005E02146304604F0F7FC00E000BF00BF1B
:107E600000BFE2E770B50446204606F06DF805460F
:107E700005F0010070BD38B503F032FB044600BFC9
:107E8000254625B100BF2846FEF7CCFF00BF00BF46
:107E9000002000906946012003F078F9044600BFF5
:107EA000254625B100BF2846FEF7BCFF00BF00BF36
:107EB000684603F035FA044600BF254625B100BFE9
:107EC0002846FEF7AFFF00BF00BF38BD014601489E
:107ED000405C7047A0E2020010B50146094B585CB7
:107EE00000BF4FF0A044234600BFD3F81045C44064
:107EF00004F001040CB1012000E00020024682F0F1
:107F0000010010BDA0E2020002464FF0FF30002148
:107F100006E0054B5B5C934201D1084602E0491C38
:107F20000429F6D300BF7047A0E2020070B50546F1
:107F30000C4600260648056014B1204605F040FBBB
:107F40000448006810B9FEF72CFE0646304670BDA6
:107F5000A8320020AC32002010B5002000F024F937
:107F6000044600BF1CB1062C01D0204610BD00BF46
:107F7000012000F019F9044600BF1CB1062C01D005
:107F80002046F3E700BF0020F0E700002DE9F041B4
:107F900006460F464FF0000800243046FFF7B4FFB6
:107FA0000446042C3ED20FB3012F02D0022F38D149
:107FB00030E004EB4400214911F8008004EB440058
:107FC0000844407850B11E4A4FF480411D48006873
:107FD000FEF7B6FF05460DB91948067004EB4400DC
:107FE000164908448078184908551AE01548006871
:107FF000FEF7C1FF1448005D04EB44010F4A114431
:108000008978884205D104EB44001146084490F871
:10801000028006E004EB44000849084490F801801F
:1080200000BF00BFB8F1000F06D00848006818B1C3
:108030004046064909688847BDE8F081C0370020FE
:10804000A0320020A4E20200A13200209C320020D5
:1080500010B50446042C03D22046FFF73DFF10BDA7
:108060000020FCE770B50546042D06D0072D15D07D
:108070000A2D29D105F049FA27E013211448008878
:1080800076DF0446082C08D000BF264626B100BF84
:108090003046FEF7C7FE00BF00BF16E00C48008860
:1080A0004FF6FF7188420ED10A48FFF7FAFA0446EC
:1080B000082C08D000BF264626B100BF3046FEF788
:1080C000B1FE00BF00BF00E000BF00BF70BD0000F8
:1080D00090320020D433002030B503460020042B1A
:1080E00023D2012A07D1012903D103F10E04E4B2FE
:1080F00000E00024224679B1012902D0022911D1E1
:1081000004E003EB43040A4D2A550DE003EB43045E
:10811000074D2C44627007E003EB4304044D2C44EC
:10812000A27001E0072000BF00E0072030BD000082
:10813000C037002001460020704700002DE9F041C3
:1081400006460F4600241448076006F0020000B3FC
:10815000002506E0012211462846FFF7BDFF044630
:108160006D1C042D01D2002CF4D034B940F233320E
:1081700004210A48FEF7A0FD044614B9FEF786FD67
:1081800004462CB9064A00210648FEF793FE044631
:1081900000BF2046BDE8F0819C320020A8E202002A
:1081A00011830200A4E2020010B50446012120461A
:1081B00006F032F810BD00002DE9FC4704460D46DC
:1081C0001646A71C4FF001080020019001A8FEF7F9
:1081D000ABFF3048406828602E4840682D498968C8
:1081E000411A2D480068401CA0EB010915E001214F
:1081F0002A4801F0A6FD01F0FBF8824651462748C7
:1082000001F09FFD2348406822498968411A2248AD
:108210000068401CA0EB010900BF4F45E7D8B8F14A
:10822000000F30D00021009176B1009921F00301B8
:10823000491C0091009921F00401091D0091009949
:1082400064F3891100910DE0009921F00301891C6C
:108250000091009921F00401091D0091009964F337
:108260009F5100910B4949680B4A12681140094A15
:108270000C3202EB810000990160064949683944DB
:108280000C3A516000BF9DF80400FEF753FF4046D2
:10829000BDE8FC87E83B00206C3300200440002050
:1082A00070B504460D460A2D03D10D212046FFF777
:1082B000F7FFA168481CA06020684554D4E901106C
:1082C000884202D3204602F010F870BD044880684E
:1082D00003494968884201D1012070470020FCE72A
:1082E000E83B00200246002108E0074B1B6803EB37
:1082F000C1000378934200D17047491C03480078BD
:108300008142F2DB0020F7E7D8320020DC32002087
:1083100010B5044620780221FFF738FE10BD00009A
:10832000F8B5054612490320FFF708FF044600BFD1
:10833000264626B100BF3046FEF774FD00BF00BFE1
:1083400069460020FFF7F2FD044600BF264626B12D
:1083500000BF3046FEF766FD00BF00BF9DF800007D
:10836000022801D1012000E000202870F8BD0000A3
:10837000658002004FF0FF31054A42F820100828BE
:1083800004DBFF23A0F10801503253547047000072
:10839000D03800200146024850F821007047000004
:1083A000D03800202DE9F04F03460C464FF0FF393E
:1083B0000AB1002000E0082084460AB1082000E04D
:1083C0000C208046614624E0154850F82100401CEE
:1083D000F0B91D460846274616464FFA80FBDFF8DF
:1083E00040A00AF1300A0AF805B0DFF834A04AF8D4
:1083F00020704EB94FFA85FBA0F1080ADFF820E0A3
:108400000EF1500E0EF80AB000BF4FFA81F902E0EB
:10841000491C4145D8D300BF4846BDE8F08F000055
:10842000D0380020014601484056704700390020EE
:1084300070B590B006460C461546A07818B90120D4
:108440008DF80E0002E0A0788DF80E002088ADF8BF
:108450000C0000200290607C02A904F0F7FFA07CD1
:108460000DF1090104F0F2FFE07B08B1012000E00A
:1084700000209DF80A1060F3C3018DF80A10207CDB
:1084800008B1012000E000209DF80A1060F30411FB
:108490008DF80A10207B08B1012000E000209DF833
:1084A0000A1060F300018DF80A10207D08B1022047
:1084B00000E001209DF80A1060F342018DF80A10D7
:1084C0001C2109A8FDF7BBFF607BC0F3001018B9A1
:1084D000607BC0F34010F8B100200090E07C0DF10B
:1084E000010104F0B3FF00BF9DF8000020F00F0071
:1084F000401C8DF800009DF8000020F0F0001030C6
:108500008DF8000000BF9DF8020020F00600801CDE
:108510008DF80200CDF838D0607B8DF82400A07B68
:108520008DF82500142104A8FDF789FF03A8049005
:1085300002A80590A088ADF81C00A06820B1E088D2
:10854000ADF81800A0680890A069002849D0002064
:108550000190A0690088ADF82C00A0694088ADF8B2
:108560002E00A06940680A9001A80D90A169087BBF
:1085700001A904F06BFFA169487B0DF1050104F02E
:1085800065FFA069807A08B1012000E000209DF815
:10859000061060F3C3018DF80610A069C07A08B117
:1085A000012000E000209DF8061060F304118DF812
:1085B0000610A069007A08B1012000E000209DF8B3
:1085C000061060F300018DF80610A069807B08B1E9
:1085D000022000E001209DF8061060F342018DF8B2
:1085E0000610E06908B1E0690C902B4604AA09A9BD
:1085F0003046AADF10B070BD70B505460DB9094C04
:1086000001E0084C083409E0204600F0AFFE0646C1
:1086100006B904E028467168884700BFF4E700BF48
:1086200070BD0000C438002010B504462CB90120EC
:10863000064948700020FFF7DFFF012C04D101201C
:1086400002498870FFF7D8FF10BD0000BC38002039
:108650002DE9F047024613468C46D3E90245DCE992
:108660000267B6EB040877EB050002D30120BDE8F2
:10867000F0870020FBE701468878012805D191F8B2
:108680002000012801D100207047886A042802D008
:10869000486A042801D10020F6E70120F4E733B549
:1086A0008BB00546002000900C9878B100240BE0B8
:1086B00021460CA801F019FB28B1009A501C00902B
:1086C00001A820F81240641C142CF1D32C22694616
:1086D0002846FDF79BFE0DB030BD014608880628F0
:1086E00008DB0888B0F5486F06DD08884FF6FF7292
:1086F000904201D0072070474888062808DB488848
:10870000B0F5486F06DD48884FF6FF72904201D001
:108710000720F0E708884FF6FF72904208D048889B
:10872000904205D008884A88904201DD0720E2E7A0
:108730000020E0E72DE9F04107460D461446984633
:108740002088801D404502D90C20BDE8F0813846C4
:10875000FFF7C3FF064600BF304600B1F5E700BF94
:108760000520218868542088401C20801220218800
:1087700068542088401C208022885119388805F0D0
:10878000E9FB21880844208022885119788805F067
:10879000E1FB2188084420800020D6E710B504467C
:1087A00000BF2046FEF73EFB00BF10BD30B587B0CE
:1087B0001C216846FDF743FE002000904FF4A030D6
:1087C00001904FF4F020029003208DF80C0000205F
:1087D000ADF80E008DF81000094805900948069084
:1087E0006846FFF73DF8044600BF254625B100BFA7
:1087F0002846FEF717FB00BF00BF07B030BD0000E2
:108800001DC302009D870200F8B505460C46607A3C
:1088100088B9207A10B91048476801E00E48876887
:108820002A4639466068FEF78BFB064616B130468D
:1088300004F0C0FC0EE0002020720748406948B1F7
:1088400001208DF80000ADF80250034841696846E8
:10885000884700BFF8BD00002438002010B5012271
:1088600000210846FFF738FC044600BF1CB1072C66
:1088700001D0204610BD00BF072202210120FFF7D2
:108880002BFC044600BF1CB1072C01D02046F1E7A9
:1088900000BF042202210020FFF71EFC044600BF97
:1088A0001CB1072C01D02046E4E700BF0020E1E71F
:1088B0002DE9F0418046002414E01248006800EBE6
:1088C000C405287803F0CAF807466878012800D163
:1088D00000E00020784080F001062878314600F062
:1088E000CDF9641C084800788442E6DB0748D0E9EB
:1088F0000010002359405840014301D004F0F2FF1A
:10890000BDE8F081D8320020DC320020E8320020BF
:1089100010B50021034801F035FA044684F3100035
:1089200010BD00000440002070B505460C464FF411
:10893000803000FA04F1284600F085F970BD70B56A
:1089400005460C464FF4A07000EB840086B2314619
:10895000284600F00BFA70BD2DE9F04704460D469D
:1089600016461F464FF4803000FA05F84FF4A07009
:1089700000EB85001FFA80F926F07F46414620680B
:1089800002F0EFFB4146206802F0E5FB4946206813
:1089900002F0DAFB32462946206802F0CCFB414661
:1089A000206802F0DBFB1FB14146206802F0DCFBCF
:1089B000BDE8F08710B50446206802F0C1FB10BD89
:1089C0002DE9F04704460D4617466079324941F8D3
:1089D00020706079314901EBC000007968B1082648
:1089E0002F49304A891AC908022242EA01402EA1C1
:1089F00002F068F93046BDE8F08729882068C0F8A1
:108A0000081500BF94F90420AB78104619460028D9
:108A100008DB4FEA417C4FEA1C68DFF8B0C00CF875
:108A200000800BE04FEA417C4FEA1C69DFF8A0C0F0
:108A300000F00F08A8F104080CF8089000BF00BF70
:108A400094F90410084600280DDB00BF00BF00F0B9
:108A50001F0301229A4043099B0003F1E023C3F85E
:108A6000002100BF00BF00BF00BF012061790B4A99
:108A700002EBC10108716079114641F830400026CF
:108A80000749084A891AC908032242EA014011A18C
:108A900002F018F93046AEE73033002034330020BE
:108AA00080EE020038EE020052544320696E737467
:108AB000616E636520616C726561647920696E69BD
:108AC0007469616C697A65642E00000000E400E05E
:108AD00018ED00E05254433A20696E697469616C84
:108AE000697A65642E00000010B5014691F9040012
:108AF000002807DB00F01F0301229A40024B4409C3
:108B000043F8242000BF10BD00E200E070B5054628
:108B10000C4622460221284600F0A1F870BD10B58F
:108B200004464FF48271204600F020F910BD10B5C4
:108B300004460021206802F01AFB10BD10B504465F
:108B40000421206802F013FB10BD2DE9F84F044604
:108B50008846154699464FF4803000FA08FA4FF4DB
:108B6000A07000EB88001FFA80FB25F07F4551467E
:108B7000204600F068F8206802F0E2FA0646414616
:108B8000206802F0D2FA009032464146206802F096
:108B9000D2FA5946206802F0D7FA3146009804F01C
:108BA000FBFD012806D1102002F06CFE594620681A
:108BB00002F0CAFA206802F0C3FA06463146284697
:108BC00004F0EAFD07465146206802F0C7FA012F7B
:108BD0000FD16A1C4146206802F0ADFA102002F065
:108BE00051FE206802F0ACFAB04225D00D20BDE85D
:108BF000F88F2A464146206802F09DFA206802F06C
:108C00009FFA0646681E314604F0C6FD07466FF01F
:108C10007F40A0EB0900B84201D20D20E7E75FB921
:108C20006A1C4146206802F086FA206802F088FA41
:108C3000B04201D00D20DAE701225146204600F073
:108C40000EF80020D3E770B504460D46294620688B
:108C500002F081FA2946206802F083FA70BD70B5EF
:108C600004460E4615463146206802F077FA1DB1DB
:108C70003146206802F078FA70BD0000F8B505466C
:108C80000C46284604F0B0FC05286AD2DFE800F064
:108C900003212A393F00DCB10121284604F0B4FC4D
:108CA000002000906846FEF73FFA2A46012600277A
:108CB00030463946FDF796FB2B4AD2E9003218437D
:108CC0001143294A03C29DF80000FEF733FA00BFA2
:108CD00047E00CB1022000E000200146284604F0E5
:108CE00093FC3EE044B10321284604F08DFC0121B1
:108CF000284605F0F0F903E00121284604F084FC41
:108D00002FE01CB90421284604F07EFC29E024B1A0
:108D10000321284604F078FC22E00021284604F0D4
:108D200073FC0021284605F0D6F900200090684623
:108D3000FEF7FAF92A460126002730463946FDF7A4
:108D400051FB0A46C143D043074B0CCB114018409E
:108D5000054AC2E900109DF80000FEF7EBF900BFDC
:108D600000BF00BFF8BD0000E832002070B5054626
:108D70000C462868015929B12146286802F0E4F917
:108D8000012070BD0020FCE770B504460D462A4660
:108D90000021204600F00EF8A068401CA06070BDC5
:108DA00001468A68C868801A704701468A68C868A0
:108DB000801A704710B583680B4484882340046888
:108DC000E35C137010BDC26883881A40036899542D
:108DD000C268521CC260704770B505460E46144604
:108DE00024B13146284600F08FFF03E03146284683
:108DF00000F06CFF70BD30B504461088C01C98426E
:108E000001D90C2030BD0220158848551088401C1F
:108E100010800120158848551088401C1080158846
:108E20004C551088401C10800020EBE770B50446BC
:108E30000D46D822115B0122D4F8D400FEF74EFB78
:108E4000064606B1357004F13C0204F1D40104F188
:108E5000540072DF70BD70B504460D46E0B2FEF7F7
:108E60002DF9204670BD00003EB500BF9DF8000002
:108E700020F00F00401C00909DF8000020F0F00052
:108E80001030009000BF0B2214A168467CDF04461E
:108E900000BF254625B100BF2846FDF7C3FF00BF30
:108EA00000BF0020019002901020ADF804003C208B
:108EB000ADF806000020ADF808004FF4C870ADF81A
:108EC0000A0001A87ADF044600BF254625B100BF8D
:108ED0002846FDF7A7FF00BF00BF3EBD4E6F72647E
:108EE00069635F554152540070B505460C46608871
:108EF00013490988884215D1208840F67721884295
:108F000010D1A088C01E0F4908800F490F4A891A46
:108F1000C908032242EA01400A490B880A880CA1C9
:108F200001F0E6FE2B886A880749084E891BC908AC
:108F3000042646EA01400DA101F0DAFE70BD0000F2
:108F4000903200209232002098EE020038EE0200AB
:108F500044617461206C656E2069732073657420B0
:108F6000746F2030782558282564290041545420F6
:108F70004D54552065786368616E676520636F6D39
:108F8000706C657465642E2063656E7472616C200C
:108F900030782578207065726970686572616C2020
:108FA000307825780000000070B50E490E4800F0BA
:108FB00091FF044600BF254625B100BF2846FDF7B6
:108FC00031FF00BF00BFF721074800F074FF0446DF
:108FD00000BF254625B100BF2846FDF723FF00BF8F
:108FE00000BF70BDE98E0200B833002070B50B4899
:108FF000FFF7E0FC0A4B0CCB841843F1000509494C
:1090000003C9201A75EB010004D24FF08073E418F5
:1090100045F100052046294670BD0000F0320020D1
:1090200000330020083300202DE9F0410446884633
:10903000E0B2FFF757F90546287802F00FFD074622
:109040006878012800D100E00020784080F0010617
:109050004EB10648D0E90010002359405840014362
:1090600001D104F03FFCBDE8F0810000E8320020AF
:1090700010B501F025FC08B902F036F810BD00006B
:10908000024600210CE001EB8100074B33F8200081
:10909000904204D101EB810003EB80007047491C32
:1090A0000029F0D00020F9E7103800202DE9FC5FFE
:1090B00083460E4691461F46DDE90C45002E01DA37
:1090C000704200E0304682464FF0010803E09AFB10
:1090D000F9FA08F10108CA45F9DA474500D9B84656
:1090E00034B1002E03DB05F00400042800D1641E17
:1090F00005F0020000B167B105F0010048B944B1C4
:1091000004E0641E20215846FFF7CAF80CB1A045C0
:10911000F7D3002E05DA76422D215846FFF7C0F826
:1091200007E005F00400042803D12B215846FFF77F
:10913000B7F805F0020002280DD105F0010050B982
:109140004FB944B104E0641E30215846FFF7A8F837
:109150000CB1A045F7D33B464A4631465846CDE9C7
:10916000004504F0FDFEBDE8FC9F00002DE9F04144
:1091700004460E464FF48E71206802F0E8FA4FF470
:10918000A271206802F0E3FA1A49206802F0EFFAAF
:10919000206802F08BFB05463746284639460028F2
:1091A00004DB4A07130E144A135408E04A074FEA37
:1091B000126C124A00F00F031B1F02F803C000BF1D
:1091C00000BF206802F072FB0546284600280DDB30
:1091D00000BF00BF00F01F02012191404209920030
:1091E00002F1E022C2F8001100BF00BF00BF00BFC3
:1091F000BDE8F0818000020000E400E018ED00E02E
:109200002DE9F04104460E464FF48871206802F0C3
:10921000D1FA4FF49071206802F0CCFA4FF49271B9
:10922000206802F0C7FA4FF4A271206802F0C2FA77
:109230004FF4AC71206802F0BDFA1B49206802F0BF
:10924000C9FA206802F036FB0546374628463946FB
:10925000002804DB4A07130E144A135408E04A0797
:109260004FEA126C124A00F00F031B1F02F803C0F2
:1092700000BF00BF206802F01DFB054628460028FD
:109280000DDB00BF00BF00F01F0201219140420929
:10929000920002F1E022C2F8001100BF00BF00BF3F
:1092A00000BFBDE8F08100001003420000E400E0D0
:1092B00018ED00E030B5024600201378C3F38003B8
:1092C000D3B1137803F00303012B02D0022B10D18A
:1092D00007E01388C3F383139B1C0C6823440B60C3
:1092E00008E00B680225146805EB945423440B60D6
:1092F00000E000BF00BF012030BD2DE9F041044671
:10930000A08800EB020CB4F80480904501DD104603
:1093100000E0A088A8EB0005E088C618B4F8068035
:10932000984501DD184600E0E088A8EB0007488872
:10933000B4F80080404504DB4888B4F8028040451A
:1093400002DD0020BDE8F0818888A84202D3888829
:10935000604501D90020F5E7C888B84202D3C88823
:10936000B04201D90020EDE70120EBE70146086893
:1093700008B102680A60704710B504462246012110
:10938000002001F03FF9002105E054F8210008B168
:10939000012010BD491C0029F7D00020F9E700008A
:1093A00010B502F035FA20B902F056FA0020014952
:1093B000887010BDBC380020F72101801721418042
:1093C000002101714171704770B54FF48041002058
:1093D00001F010FD044600BF254625B100BF284618
:1093E000FDF720FD00BF00BF01F056FA70BD000080
:1093F0002DE9FF4100272E4800F09CFC2C48001F5F
:1094000000F098FC2B48806803902B48056803986F
:10941000284028490C3101EB800800BF03A94046D1
:10942000FFF748FF30B10398284022490C3101EB87
:10943000800800E000E0F1E700BF00240AE00398A4
:10944000411C284003911B490C3151F820004DF874
:109450002400641C022CF2D3009800F003000128C1
:109460000DD0022814D1BDF806700421009801EB3C
:109470009050401E039901EB9000039009E0BDF865
:1094800006700098C0F3831003990844039000E02D
:1094900000BF00BF0648001F00F045FC064616B19D
:1094A000044903988860384604B0BDE8F0810000A4
:1094B00000400020E83B00206C33002008B504F099
:1094C000B7FBFFF781FF04F01DFA6846FEF728FF9F
:1094D00003F0A8FB19A0FDF7CFFA642404B90DE04E
:1094E00000BF4FF47A7505B904E0184EAF01384655
:1094F000B04700BF601E041EF3D100BFFEF7BBFCE7
:10950000FFF7B2FCFFF750FD03F000FFFDF774FB1F
:10951000FFF74CF90EA0FDF7AFFA1249124A891A6B
:10952000C908032242EA014010A101F0CBFBFDF77C
:109530009BFB00BFFFF79CFDFCE700000D0A5541B7
:10954000525420696E69742E0D0A000081E20200F7
:109550000D0A5541525420737461727465642E0D66
:109560000A00000098EE020038EE020044656275C1
:1095700067206C6F6767696E6720666F7220554160
:109580005254206F76657220525454207374617265
:109590007465642E000000002DE9F04105460E467A
:1095A00014469846A888871C2088801C384440456B
:1095B00002D90C20BDE8F081FE2F01D90C20F9E77B
:1095C000781C218870542088401C2080FF2021882E
:1095D00070542088401C208022889119288804F02B
:1095E000B9FC218808442080A88800280DDDA868DF
:1095F00008B90720DEE7AA8823889819A968FCF72C
:1096000005FF2088A988084420800020D2E72DE9A2
:10961000FF4F87B0044691461E46A2462546BAF83B
:1096200006009AF805104843001F0690BAF806B0E5
:10963000301DB0FBFBF00590301DB0FBFBF10BFBC8
:1096400011000490D9F8000081190698814202D9CE
:109650000698801B01E0D9F800000746C9F80070A1
:1096600003E02D680598401E059005980028F8D164
:1096700003900498ABEB0008B84501D9384600E0E8
:109680004046804623E00399089808440290281D2C
:10969000049908440190149828B14246DDE901106C
:1096A000FCF7B4FE04E04246DDE90101FCF7AEFE42
:1096B000002004902D68A7EB08070398404403900E
:1096C000BB4501D9384600E05846804600BF002F10
:1096D000D9D10BB0BDE8F08F70B503460C469CB1F4
:1096E00001F0ACFB054600220AE0084800EB8201CD
:1096F00008881E68B04202D11A60002070BD521C5A
:10970000AA42F2D30520F9E70020F7E700000000A5
:109710002DE9F84F05460F4614469846287801284B
:1097200004D1687810B90720BDE8F88F2088801C24
:10973000404508D82878012807D12088801C6978FE
:109740000844404501D90C20EEE72088A8EB000032
:10975000801E86B200962188891CC81969467DDF63
:10976000814600BF484600B1DEE700BF28780228E6
:1097700004D06878BDF80010884206DBBDF8000010
:10978000B04202DC4FF0090A0BE04FF0080A2878DB
:10979000012805D16878B04202DC6878009000E0CA
:1097A0000096BDF80000FE2801D90C20BCE7BDF8EA
:1097B0000000401C218878542088401C208020888C
:1097C00007F800A02088401C20802088BDF80010E9
:1097D000084420800020A7E7144801684FF080501B
:1097E000D0F83421062913D1D01E05280ED2DFE887
:1097F00000F0030507090B00002070470020FCE77C
:109800000020FAE70020F8E70120F6E70120F4E75E
:109810000F2909D112B1012A04D101E00020ECE79F
:109820000120EAE70120E8E70020E6E73001001028
:1098300014480068401C38B91348017812480830B1
:109840000078C0F3031205E00E4801684FF0805025
:10985000D0F83421062913D1D01E05280ED2DFE816
:1098600000F0030507090B00012070470120FCE709
:109870000120FAE70120F8E70120F6E70120F4E7EC
:109880000020F2E730010010E00F00F014480068FB
:10989000401C38B913480178124808300078C0F3EA
:1098A000031205E00E4801684FF08050D0F83421D3
:1098B000062913D1D01E05280ED2DFE800F00305DB
:1098C00007090B00012070470120FCE70120FAE79F
:1098D0000120F8E70120F6E70120F4E70020F2E795
:1098E00030010010E00F00F01A480068401C38B941
:1098F00019480178184808300078C0F3031205E0D1
:10990000144801684FF08050D0F83421062913D153
:10991000D01E05280ED2DFE800F0030507090B0072
:10992000012070470120FCE70120FAE70120F8E759
:109930000120F6E70120F4E70F2909D112B1012A2D
:1099400004D101E00120ECE70120EAE70120E8E78B
:109950000020E6E730010010E00F00F00F4801782A
:109960000E4808300078C0F30312062913D1D01E28
:1099700005280ED2DFE800F0030507090B000120DF
:1099800070470020FCE70020FAE70020F8E70020FD
:10999000F6E70020F4E70020F2E70000E00F00F017
:1099A0000E4801684FF08050D0F83421062913D1B9
:1099B000D01E05280ED2DFE800F0030507090B00D2
:1099C000002070470020FCE70020FAE70120F8E7BC
:1099D0000120F6E70120F4E70020F2E73001001053
:1099E000094802684FF08050D0F834110F2A09D18D
:1099F00011B1012904D101E0012070470120FCE7E9
:109A00000120FAE70020F8E7300100101A4800684A
:109A1000401C38B919480178184808300078C0F35C
:109A2000031205E0144801684FF08050D0F834214B
:109A3000062913D1D01E05280ED2DFE800F0030559
:109A400007090B00012070470120FCE70120FAE71D
:109A50000120F8E70120F6E70120F4E70F2909D1FA
:109A600012B1012A04D101E00120ECE70120EAE76C
:109A70000120E8E70020E6E730010010E00F00F0E9
:109A80000F4801780E4808300078C0F30312062909
:109A900013D1D01E05280ED2DFE800F00305070918
:109AA0000B00012070470020FCE70020FAE70020AF
:109AB000F8E70020F6E70020F4E70020F2E70000D6
:109AC000E00F00F01A480068401C38B919480178C6
:109AD000184808300078C0F3031205E01448016804
:109AE0004FF08050D0F83421062913D1D01E05281C
:109AF0000ED2DFE800F0030507090B0001207047D4
:109B00000120FCE70120FAE70120F8E70120F6E751
:109B10000120F4E70F2909D112B1012A04D101E093
:109B20000120ECE70120EAE70120E8E70020E6E772
:109B300030010010E00F00F00F4801780E480830A7
:109B40000078C0F30312062913D1D01E05280ED2C7
:109B5000DFE800F0030507090B0001207047002033
:109B6000FCE70020FAE70020F8E70020F6E70020F5
:109B7000F4E70020F2E70000E00F00F00F48017862
:109B80000E4808300078C0F30312062913D1D01E06
:109B900005280ED2DFE800F0030507090B000120BD
:109BA00070470020FCE70020FAE70020F8E70020DB
:109BB000F6E70020F4E70020F2E70000E00F00F0F5
:109BC0001A480068401C38B919480178184808300C
:109BD0000078C0F3031205E0144801684FF080508C
:109BE000D0F83421062913D1D01E05280ED2DFE883
:109BF00000F0030507090B00002070470020FCE778
:109C00000120FAE70120F8E70120F6E70120F4E758
:109C10000F2909D112B1012A04D101E00120ECE79A
:109C20000120EAE70120E8E70020E6E73001001024
:109C3000E00F00F010B5044609B90E2010BD92FBEC
:109C4000F3F003FB102008B10920F7E721600020A2
:109C50006060A060A281E38100BFEFE770B50446B9
:109C60000D4629462046FCF7D5FA18B12A88216806
:109C7000881870BD0020FCE770B505460C462088AA
:109C80006188884204D12846FCF706FB012070BD9C
:109C90000020FCE770B504460D4629462046FCF737
:109CA000DEFA18B16A882168881870BD0020FCE7C8
:109CB00070B505460C4620886188884204D1284644
:109CC000FCF7C4FA012070BD0020FCE770B5054622
:109CD0000C4604F01F0301229A40D143620905EBB0
:109CE000820000F039F8064670BD10B502464809FA
:109CF00052F8200001F01F040123A340184008B1CE
:109D0000012010BD0020FCE770B505460C4604F0AC
:109D10001F03012202FA03F1620905EB820000F041
:109D20003CF8064670BD10B504460021204600F000
:109D30001EF810BD10B504460121204600F02DF894
:109D400010BDF8B504460D466A4629462046FCF784
:109D5000F8FA06460098F8BDF8B504460D466A467E
:109D600029462046FCF7D3FA06460098F8BDF8B518
:109D700004460D466A4629462046FCF7C8FA0646C0
:109D80003046F8BDF8B504460D466A4629462046D9
:109D9000FCF7A4FA06463046F8BDF8B504460D4671
:109DA0006A4629462046FCF7A5FA06460098F8BD03
:109DB000F8B504460D466A4629462046FCF7CEFA19
:109DC00006460098F8BDF8B504460026002000902D
:109DD0006846FDF7A9F9206800686168884215D9CE
:109DE00020680068401E226810600178204600F05C
:109DF00033F80646207A21680978401AC5B22068EF
:109E00000079A84201DA2068057100BF9DF80000C2
:109E1000FDF790F93046F8BD0246D068081A138A5B
:109E2000B0FBF3F0C0B27047F8B504460D462E46BD
:109E3000002000906846FDF777F931462046FFF78D
:109E4000EBFF21680A68511C2368196010709DF8A7
:109E50000000FDF76FF9F8BD0246138AD06801FBD8
:109E60000300704710B5014600BF09B90E2010BDB0
:109E700000BF087A0B79C01AC2B2D1E9003018606D
:109E800005E008680368581C0C6820601A70101EF2
:109E9000A2F10103DAB2F4D10B68187100BFE6E752
:109EA00030B502460B46D40802F00702012090406C
:109EB0001D5D284030BD024600BF0AB90E20704724
:109EC00000BF172901DBF72901DD0720F7E7118023
:109ED0000020F4E770B504460E4600BF0CB90E2012
:109EE00070BD00BFE660F72020806080FB202071FD
:109EF000002507E005EB4502A11D01EB4200FFF73D
:109F00005BFA6D1C002DF5D00020E9E72DE9F04744
:109F1000064688464546B488012C01DBBDE8F0873B
:109F20003088102806D0112809D03A280CD055289E
:109F300014D10EE03146284602F098FA0FE031467F
:109F4000284602F053FB0AE03146284602F01AFC8C
:109F500005E03146284602F055FB00E000BF00BF97
:109F600004EB4401A81D00EB41000079002839D022
:109F700004EB4402A81D30F812102046A5DF074666
:109F8000F7B9002104EB4402A81D00EB4200017167
:109F9000012104EB4402A81D00EB4200417104EBD7
:109FA0004403A91D31F813200F49104BC91AC908E1
:109FB000042343EA014023460D4900F099FE10E0D6
:109FC000112F0ED0384601F0A7FB81460649074AFB
:109FD000891AC908012242EA01404A4605A100F057
:109FE0007BFE00BF00BF99E738EE020038EE0200AA
:109FF000A0E6020073645F626C655F6761747463FE
:10A000005F65786368616E67655F6D74755F7265C3
:10A01000717565737428292072657475726E656434
:10A020002025732E00000000024600BF0AB90E2052
:10A03000704700BF00BF1078DE2801D00820F7E786
:10A0400000BF51800020F3E7024600BF0AB90E208E
:10A05000704700BF00BF09B90E20F9E700BF1078B4
:10A06000DE2801D10820F3E708685060DE20107078
:10A070004FF6FF7050800020EAE770B504460E46A8
:10A0800000BF06B970BD00BF00BF04B9FAE700BF4A
:10A09000354600BF2878DE2800D0F3E700BFA0884F
:10A0A0006988884202D1284603F0FFFF20880128F2
:10A0B00006D0022809D0112811D0512817D109E063
:10A0C000211D284602F048FC12E0211D284602F01E
:10A0D00042FC0DE0211D284602F0E8FB08E0A088C4
:10A0E0006988884202D14FF6FF70688000E000BFA7
:10A0F00000BF00BFC6E701464FF08040405808B19E
:10A10000012070470020FCE708B500224FF0804195
:10A110000A500958009100BF08BD000001490860BD
:10A120007047000008030040012291070A50704761
:10A1300010B500240F48007808B1852411E00020F4
:10A140000C49886048600861C8600B4801F074FBE6
:10A15000044601F01FFA08B901F064FB012005492B
:10A16000087001F055FB10B10120024988702046AB
:10A1700010BD0000BC3800202986020008B5002070
:10A1800000906846FCF7D0FF0748C068401E0649AB
:10A19000C8600846C06808B9FFF702F99DF80000DA
:10A1A000FCF7C8FF08BD0000BC3800202DE9F041D5
:10A1B00088B004460F46154626781A4840F82650BF
:10A1C0001949386941F82600787F184988552022B6
:10A1D00039466846FCF71AF904964FF000082078D3
:10A1E0001249085C50B10DB1114800E00020024650
:10A1F0006946201D01F07CFE80460EE020780B4968
:10A20000085C50B90DB10B4800E0002002466946D9
:10A2100004F10C0001F034FD8046404608B0BDE872
:10A22000F0810000B8320020BC320020C032002093
:10A23000DDDD0200F9DB02002DE9F04104460D46A8
:10A240001646002720780C49085C30B13246294672
:10A25000201D01F08DFE07460AE020780649085CC3
:10A2600030B93246294604F10C0001F04DFD074695
:10A270003846BDE8F0810000C03200202DE9F041F1
:10A2800004460D461646002720780C49085C30B17C
:10A2900032462946201D01F007FF07460AE02078D4
:10A2A0000649085C30B93246294604F10C0001F039
:10A2B000BDFD07463846BDE8F0810000C0320020F1
:10A2C0000FB438B50446059810B938BC5DF814FBD6
:10A2D0000020009006A800906A462046059900F0EC
:10A2E00012F80020009000BFEFE770B50446A068A8
:10A2F00000B970BDD4E90403A26821689847002022
:10A30000A06000BFF5E72DE9FC5F82460D461446CC
:10A310000DB9BDE8FC9F00BF2E786D1C06B9E1E0C9
:10A32000252E70D100274FF0010900BF2E782B2E6B
:10A330000CD02D2E02D0302E0CD103E047F00107B7
:10A340006D1C0AE047F002076D1C06E047F00407A9
:10A350006D1C02E04FF0000900BF00BFB9F1000F13
:10A36000E4D14FF0000800BF2A2E06D12168081D55
:10A370002060086880446D1C0DE02E78302E01DBD3
:10A38000392E00DD07E06D1CA6F1300008EB8801D6
:10A3900000EB4108E8E700BF4FF0000B2E782E2EAF
:10A3A00010D16D1C00BF2E78302E01DB392E00DD60
:10A3B00007E06D1CA6F130000BEB8B0100EB410BAD
:10A3C000F1E700BF2E7800BF6C2E01D0682E02D1BD
:10A3D0006D1C2E7800E000E0F6E700BF692E21D06A
:10A3E00008DC252E6DD0582E39D0632E0CD0642E6B
:10A3F0006CD116E0702E4CD0732E3ED0752E1FD02F
:10A40000782E63D12AE065E02168081D2060D1F82C
:10A41000009009F0FF00019050460199FDF740FFC0
:10A4200055E000BF2168081D2060D1F800905B4610
:10A430000A2249465046CDE90087FEF737FE46E03E
:10A440002168081D2060D1F800905B460A22494629
:10A450005046CDE9008703F083FD38E000BF216856
:10A46000081D2060D1F800905B46102249465046F6
:10A47000CDE9008703F074FD29E02168081D206004
:10A48000086801903B4642465046019903F04AF95C
:10A490001DE02168081D2060D1F800903021504651
:10A4A000FDF7FEFE78215046FDF7FAFE0020082158
:10A4B0000B461022CDE900104946504603F050FDEE
:10A4C00005E025215046FDF7EBFE00E000BF00BF90
:10A4D0006D1C03E031465046FDF7E2FE2878002867
:10A4E0007FF41AAF00BF9AF80C0010B15046FFF786
:10A4F000FCFE00BF0DE7F0B5DDE9054500BF4FF0FC
:10A50000A0473E4641EA420747EA830747EA042755
:10A5100047EA054C06F5E06747F820C0F0BDF0B506
:10A52000DDE9054500BF4FF0A0473E4641EA42073E
:10A5300047EA830747EA042747EA054C06F5E06740
:10A5400047F820C0F0BDF0B5DDE9054500BF4FF08C
:10A55000A0473E4641EA420747EA830747EA042705
:10A5600047EA054C06F5E06747F820C0F0BD7CB52A
:10A5700005460C4600200090234602460146019005
:10A580002846FFF7CCFF7CBD7CB505460C46002075
:10A59000009023460246014601902846FFF7D3FF6C
:10A5A0007CBD1CB5044600200090034601221146E4
:10A5B00001902046FFF7B3FF1CBD1CB504460020E8
:10A5C000009003460122114601902046FFF7BBFF91
:10A5D0001CBD10B50A4600BF4FF0A043194601F557
:10A5E000E06353F8203023F4403401F5E06343F88E
:10A5F000204053F8203043EA024401F5E06343F879
:10A60000204010BD38B503460A4C24680094184613
:10A610000BE05DF82040D4F8204514605DF8205030
:10A620001468C5F82045121D401C5C188442F0D8FF
:10A6300038BD0000E8E2020001464A0900230AB9D9
:10A640005B1E00BF00BF01F01F01012088401840C1
:10A6500008B1012070470020FCE7014600BF4FF021
:10A66000A040024600BFD2F81005C84000F001002B
:10A67000704700BF4FF0A0410A46012303FA00F1E2
:10A68000C2F8081500BF704700BF4FF0A0410A464E
:10A69000012303FA00F1C2F8081500BF704700005B
:10A6A00001460148084470470060004038B5044640
:10A6B0002046FFF7F5FF002101602046FFF7F0FF7D
:10A6C0000068009000BF38BD10B504462046FFF773
:10A6D000E7FF0068012800D110BD0020FCE7000062
:10A6E00001490860704700000463004070B50446EB
:10A6F0000E46FCF7E9FD0546681C08B9284670BD02
:10A70000E8B2E168087100BF0C48D0F8100430B915
:10A710000A48C0F810440020E16808600BE00748D0
:10A72000D0F81004C0680068E16808600348D0F8F9
:10A730001004C06804602846E1E70000E83B002000
:10A74000704710B5FBF762FF10BD704738B504467F
:10A750000D4604484023044A29460090204600F054
:10A7600005F838BDF1D10200503A00202DE9F04F34
:10A7700093B082460E4617469846DDF870903046F4
:10A7800000F053FC18210DA8FBF759FE0D97CDF8EA
:10A790003880CDF8489000252B46082207A930467E
:10A7A00000F060FC082509980A90BDF82000ADF87B
:10A7B0002C00BDF82200ADF82E0000208DF83100ED
:10A7C000079800F0030001281BD107984FEA902B4F
:10A7D0000798C0F3C2008DF830000798C0F38314C7
:10A7E000A2002B4601A9304600F03CFC05EB840595
:10A7F0000DA80AAB224601A90090584600F054FB70
:10A8000027E0079800F00300022822D107984FEABA
:10A81000905B0798C0F3C2008DF8300000BFBBF119
:10A82000080F01D2584600E0082004462B46224675
:10A8300005A9304600F016FC2544ABEB040B0DAB2C
:10A840000AAA214605A800F077FABBF1000FE6D16D
:10A8500000BF304600F0F7FB13B0BDE8F08F0000FA
:10A8600010B502460B4C04EBC203012906D00229A5
:10A8700006D0032906D0042908D105E0022007E00C
:10A88000042005E0187903E0587901E0002000BFBA
:10A8900000BF10BD38EE020010B54FF0FF34FFF7D7
:10A8A00050FF04210548FFF721FF044600BF0120A7
:10A8B0000249C968487100BF10BD000028EE0200BF
:10A8C0002DE9F04F8BB0FDF701FD18B100200BB062
:10A8D000BDE8F08F0020B749C1F8180400BF00BFE1
:10A8E00000BFBFF34F8F00BF00BF00BF08468068A6
:10A8F0000A90B14804680A9820400C3101EB800AA4
:10A90000002500260020069000BF0AA95046FEF749
:10A91000D1FCA8B1A748D0F8180488B9A548406868
:10A920000A99884205D8A3484068A2498860002057
:10A93000CDE70A9820409F490C3101EB800A00E0E6
:10A9400000E0E2E700BF00270BE00A98411C20402E
:10A950000A9198490C3151F8200007A941F82700C5
:10A960007F1C022FF1D3079800F0030002287CD14E
:10A970000798800D059050210798B1EB905F02DD9C
:10A980000798800D00E050208146079869F39F509A
:10A99000079009F1080004900798C0F3C2000690E0
:10A9A0008648049900F0E4FA0546002D5BD028465D
:10A9B00000F03BFB3346082207A9284600F063FB62
:10A9C00008360A982040611C081A4FEA8008C145E1
:10A9D00035D9B8F1000F06D00A98204075490C31DE
:10A9E00001EB800001E073480C300390B8F1000FD8
:10A9F00001D0404600E0484600F0FF0BB8F1000FE0
:10AA000002D06C480C3000E000200290B8F1000F3A
:10AA100002D0A9EB080000E00020C0B2019033464C
:10AA20005A462846039900F02EFB5E44029828B14E
:10AA300033462846DDE9012100F025FB0CE00A98A9
:10AA400020405C490C3101EB800B33464A465946A5
:10AA5000284600F018FB00BF0598C01C0A9901EBBE
:10AA600090000A9000BF44E0FFE7079800F0030061
:10AA700001283ED10798C0F38310062803DA07980F
:10AA8000C0F3831000E00620079960F38911079155
:10AA90000798C0F3831000F102080798C0F3C200C2
:10AAA00006904FEA8801454800F062FA0546FDB17C
:10AAB000284600F0BAFA3346082207A9284600F0D3
:10AAC000E2FA083600270EE00A98421C20400A925B
:10AAD000384A0C3202EB800133460422284600F04B
:10AAE000D2FA361D7F1C0798C0F38310B842EBD80A
:10AAF00000BFE5B32F48D0F81084D0F8180418B17F
:10AB0000284600F0A0FA31E019E04FF0000900BF3C
:10AB1000D8F80C004079012800D18146B9F1000F26
:10AB200008D000BFD8F80000294602684046904788
:10AB300000BF00BFD8F80C00D0F8008000BFB8F10B
:10AB4000000FE2D1284600F07EFA0020059005A80B
:10AB5000FCF7EAFA1748D0F8180410B915490A9812
:10AB600088609DF81400FCF7E5FA00BF1DE0FFE7E0
:10AB70001048D0F810840AE0C146D9F80000816876
:10AB80004846884700BFD8F80C00D0F80080B8F1DC
:10AB9000000FF1D10A490B4A891AC908022242EA78
:10ABA000014009A100F08EF800BFFDF78FFB80F097
:10ABB00001008CE6E83B00206C330020B8EE020078
:10ABC00098EE020038EE02004261636B656E6473BA
:10ABD00020666C7573686564000000002DE9F74F0E
:10ABE00082B00746154635480668E91C88080022E9
:10ABF00001A9FDF7E1FA002851D0DDF804A0019881
:10AC0000801C0190019830402C490968491C081AA1
:10AC10004FEA8008454509D801993140284A02EB9E
:10AC200081002A460399FBF7F1FB10E001993140BE
:10AC3000234A02EB810042460399FBF7E7FBA5EBB1
:10AC40000802039800EB08011D48FBF7DFFB4FEA01
:10AC5000174BFDF75DFE81464BEA09420AF1010000
:10AC60003040174941F820200AEA060001EB800431
:10AC7000206867F3C50020600021206861F38F1011
:10AC80002060206865F39F502060206820F003005A
:10AC9000801C2060206820F00400206000BF08486D
:10ACA0000C38007830B100BF00BFFFF709FE002864
:10ACB000FBD100BF05B0BDE8F08F00006C33002071
:10ACC000F43B002070B504460D4600231A46294681
:10ACD000204602F0EFFC70BDF8B505460E4614465E
:10ACE000009401236A463146284602F0E3FCF8BD91
:10ACF0002DE9FC4106460F4614461D460094019579
:10AD000002236A463946304602F0D4FCBDE8FC8195
:10AD10002DE9FE4306460F4614461D46DDF8288001
:10AD200000940195CDF8088003236A4639463046E1
:10AD300002F0C0FCBDE8FE832DE9F05F07460E4639
:10AD400090461D46082E01D9BDE8F09F95F80C905D
:10AD5000002028732946404601F072FF00240CE0D1
:10AD6000B44205D23A5D1DA12846FFF7A9FA03E0D7
:10AD70001CA12846FFF7A4FA641C082CF0D31AA1E2
:10AD80002846FFF79DFA00241DE0B44216D217F8BA
:10AD900004A0BAF17E0F09DCFBF734FB006810F861
:10ADA0000A0000F03E0008B1504600E02E20834625
:10ADB0005A460EA12846FFF783FA03E00CA1284665
:10ADC000FFF77EFA641C082CDFD301222946404697
:10ADD00001F004FF85F80C9000BFB5E72025303264
:10ADE00078000000202020007C0000002563000087
:10ADF000200000002DE9F04106460F4600BF00206C
:10AE000009490870094800F018F9044614B12046B1
:10AE1000BDE8F081064800F07AF906480649401A74
:10AE2000C5080020F4E70000E83B0020B8EE02006F
:10AE300068E50200B8EE020038EE0200024803495D
:10AE4000401AC00870470000B8EE020038EE020059
:10AE500013B50C4621466846FEF73EFC28B9044867
:10AE6000009A00EBC20108681CBD0020FCE700004E
:10AE700038EE020070B50B48D0F8104401200949A3
:10AE800008700CE000BF0120E168487100BF254652
:10AE9000286841682846884700BFE0680468002C9D
:10AEA000F0D170BDE83B00202DE9FF4707460C4676
:10AEB000164698460C9D95F80C900020287329465C
:10AEC000404601F0BDFE072E47D2DFE806F0040938
:10AED0000F161F2A370039462846FFF7F1F93DE0E3
:10AEE000394628462268FFF7EBF937E0394628460D
:10AEF000D4E90023FFF7E4F930E0A0680090394678
:10AF00002846D4E90023FFF7DBF927E0D4E9020162
:10AF1000CDE9000139462846D4E90023FFF7D0F9EE
:10AF20001CE0D4E902122069CDE9001202903946F2
:10AF30002846D4E90023FFF7C3F90FE0D4E9022340
:10AF4000D4E90410CDE90023CDE9021039462846A2
:10AF5000D4E90023FFF7B4F900E000BF00BF0022EE
:10AF60002946404601F03AFE85F80C90BDE8FF877F
:10AF70002DE9F84F07468A46388AA0F104080AF1FD
:10AF800004004044401EB0FBF8F0C0B200903846C8
:10AF9000FEF719FF044614B90020BDE8F88F002021
:10AFA000207101216171A4F8068025460098A0F166
:10AFB000010B2C462F604FF0000912E03846FEF7D7
:10AFC00002FF064636B16079401C60712E60376022
:10AFD000354604E0204600F008F80020DDE709F1DE
:10AFE0000109D945EAD32046D7E72DE9F05F0446A9
:10AFF000274697F805802646A8F1010B002501E0B9
:10B0000036686D1C5D45FBD3D6F800A026460025AA
:10B0100007E0D6F8009031465046FEF705FF4E4651
:10B020006D1C4545F5D3BDE8F09F70B50446254637
:10B030000121281DFEF785FE70BD10B5044620468F
:10B04000FEF710FF10BDF8B5044626460121301D5D
:10B05000FEF7AEFE00906D46287810B92046FFF747
:10B06000C4FFF8BD2DE9FC4105460E4614461F46B7
:10B07000019401203B4601AA314600902846FEF784
:10B08000C6FABDE8FC812DE9FC4105460E46144692
:10B090001F46019400203B4601AA314600902846F5
:10B0A000FEF7B5FABDE8FC8110B500200A4908702A
:10B0B00000BF0A49086000BF00BF00BF00BFBFF368
:10B0C0005F8F00BF00BF00BF00BF0549054800F00B
:10B0D00094FA002010BD00004433002040330020CB
:10B0E00000E40200443A002010B500F053FA10B119
:10B0F00041DF044602E020BF40BF20BF10BD10B5B5
:10B10000044600BF2046FBF78DFE00BF10BD0021A6
:10B110008268916082681161826851618268D16041
:10B1200082685160826811607047024602F5A8602B
:10B1300050F82100704700F5A86343F821207047BC
:10B140000146D1F80405704708B500224250425824
:10B15000009200BF08BDC0F848137047C0F8441300
:10B160007047C0F808137047C0F8041370470122F5
:10B1700042507047014609B90E20704702480068E6
:10B1800008600020F9E70000F8E50200FEB5064679
:10B190000C462046FFF7EEFF05460DB12846FEBDE2
:10B1A00000200090019002908DF8006001208DF841
:10B1B00002000621ADF8041069462020226869DFEC
:10B1C000054675B1284600F0A7FA07464C494D4A96
:10B1D000891AC908012242EA01403A464A49FFF762
:10B1E0007BFD002000900190029001208DF801006D
:10B1F00069464020226869DF054675B1284600F09F
:10B200008BFA07463E493F4A891AC908012242EA99
:10B2100001403A463D49FFF75FFD00200090019054
:10B2200002908DF80060F720ADF8020069462320F7
:10B23000226869DF054675B1284600F06DFA0746B9
:10B240002F49304A891AC908012242EA01403A4688
:10B250002F49FFF741FD002000900190029001204E
:10B260008DF800006946226869DF054675B12846F9
:10B2700000F052FA07462249224A891AC9080122D7
:10B2800042EA01403A462349FFF726FD002000909C
:10B29000019002904FF4B06000906946A1202268AE
:10B2A00069DF054675B1284600F036FA07461449AD
:10B2B000144A891AC908012242EA01403A4616494D
:10B2C000FFF70AFD00200090019002908DF8000029
:10B2D0006946A020226869DF054675B1284600F05E
:10B2E0001BFA07460649074A891AC908012242EA99
:10B2F00001403A460949FFF7EFFC00204FE7000004
:10B30000A8EE020038EE020084EC0200CCEC020051
:10B3100018ED0200E4EB020030EC020090EB0200BA
:10B320002DE9F04104462568204660DF0646206886
:10B33000A84225D91E491F4A891AC908022242EA91
:10B3400001401DA1FFF7BEFC19491A4A891AC90814
:10B35000022242EA01402A4623A12368FFF7C8FCE3
:10B3600001F0CCFC2168471A1149124A891AC90810
:10B37000022242EA01403A4628A1FFF7ADFC00E074
:10B3800000BF1EB90120304908700EE0304600F0C1
:10B39000C3F907460649074A891AC908012242EA41
:10B3A00001403A4629A1FFF797FC3046BDE8F081FD
:10B3B000A8EE020038EE0200496E73756666696396
:10B3C00069656E742052414D20616C6C6F636174CD
:10B3D000656420666F722074686520536F667444DC
:10B3E00065766963652E00004368616E6765207449
:10B3F00068652052414D207374617274206C6F63D4
:10B400006174696F6E2066726F6D203078257820C8
:10B41000746F20307825782E000000004D61786927
:10B420006D756D2052414D2073697A6520666F728B
:10B43000206170706C69636174696F6E206973203C
:10B44000307825782E000000B333002073645F62EB
:10B450006C655F656E61626C652829207265747524
:10B46000726E65642025732E000000002DE9F04106
:10B47000ADF5027D80461848007818B90DF5027DBB
:10B48000BDE8F0811DE04FF4FA70049004A905A80E
:10B4900061DF044604B115E005AD104901A800F0D4
:10B4A000ACF809E000BF0398064637682846716883
:10B4B000B84701A800F0C2F800BF03980028F1D1F6
:10B4C00000BFE0E700BF052C04D000BF2046FBF71B
:10B4D000A9FC00BF00BFD1E7B3330020ECE50200B8
:10B4E0001CB51B48007808B108201CBD0120194973
:10B4F0000870002001F026FE112801D10020F4E799
:10B50000002001F03DFE14480068019000200090EA
:10B510006846FBF709FE114901A810DF04460CB983
:10B52000012000E000200A4908709DF80000FBF7A8
:10B5300001FE0CB12046D8E70020064908700849F2
:10B54000087002F017F8012001F01AFE0020CCE785
:10B55000B0330020B2330020C8E50200696D02005C
:10B56000B13300203EB50A49684600F046F809E0CC
:10B57000684600F03FF8044625686068A8476846BA
:10B5800000F05CF8684600F035F80028F0D13EBDC8
:10B59000BCE502000148007870470000B03300208D
:10B5A0002DE9FF41074618E003A84BDF044604B12C
:10B5B00014E00F49684600F020F809E000BF029847
:10B5C00005462E6869680398B047684600F036F86B
:10B5D00000BF02980028F1D100BFE5E700BF052CAD
:10B5E00004D000BF2046FBF71DFC00BFBDE8FF8173
:10B5F0000CE6020001468868704770B504460D46A7
:10B60000256028686060204600F001F870BD14E0F5
:10B61000D0E900215268914202D100218160704737
:10B620004168096842685268914203D041680968DC
:10B630008160F4E7416808314160E9E710B50446EC
:10B64000A06800B910BD2168A06889680844A0609E
:10B65000D4E901104968884205D16068083060600B
:10B660002046FFF7D4FF00BFECE770B505460E4655
:10B670006C6806E020683146AA68904700B903E08C
:10B68000246820680028F5D100BF2068306026605B
:10B6900070BD014648680068704701464A681068F6
:10B6A0004A68126822B14A68126812684B681A60C8
:10B6B000704710B503460A460020596807E00C6839
:10B6C000944203D114680C60012003E009680C68FF
:10B6D000002CF4D100BF10BD70B502460D4B03F530
:10B6E000947413E0E61AF01000EBD076761003EBBA
:10B6F000C6010D68954201D90C4606E0954202D27A
:10B7000001F1080301E0486870BD00BFA342E9D31E
:10B710000020F9E720E4020030B504462046FFF798
:10B72000DBFF05460DB9024830BD2846FCE70000A6
:10B730000CE402000146D1F88004C1F8800470478F
:10B740000246505808B1012070470020FCE708B5B8
:10B75000002242504258009200BF08BDC0F80815B0
:10B760004FF4A2631A507047C0F808137047C0F82E
:10B77000041370470246D2F80403084008B10120C0
:10B7800070470020FCE701224250704740F21453FA
:10B790001A5040F20C53195070470146D1F88004FA
:10B7A000C1F8800470470246505808B10120704724
:10B7B0000020FCE708B5002242504258009200BF2A
:10B7C00008BDC0F808154FF4A2631A507047C0F8BE
:10B7D00008137047C0F804137047014640F23C500C
:10B7E00040587047D0F800228A43C0F800227047C2
:10B7F000012242507047014640F24C504058704779
:10B8000040F20C53195040F214531A507047000084
:10B810000348006808B1012070470020FCE70000E1
:10B820000004014010B500F0A1F9012001490860B1
:10B8300000BF10BD1805004001460020054A1279DE
:10B840000AB1852004E0034A11600122014B1A71FC
:10B8500070470000C432002010B50220FEF75EFCE5
:10B860004FF48270FEF750FC0C20FEF75DFC00BF29
:10B8700000BF03480068C0F300400028F8D110BDA5
:10B880001804004070B5044604B970BD024EA5010D
:10B890002846B04700BFF8E7D1E302000146080B95
:10B8A00040B270470146080B40B270470146080B92
:10B8B00040B270470146080B40B270472DE9F0478F
:10B8C00006460D46304601F0F7F8F0B13046FCF779
:10B8D000A9FDA0F10808404601F078F90446032CC0
:10B8E00008D13046FEF7B9FE08B1032000E002207F
:10B8F000074605E0012C01D1022000E003200746A5
:10B9000039463046FEF765FE2AE0304601F0E0F8A1
:10B9100030B33046FCF786FD0446A00000F5807089
:10B9200087B220460F4951F8201041F001020D491D
:10B9300041F8202000BF3846FEF7B8FE7DB1304602
:10B94000FCF770FD8146FCF725FD8046B8F1000F3D
:10B9500004D0012101FA04F0FEF7C2FE00BF00BFCF
:10B96000BDE8F087106500402DE9FC4704460E460F
:10B9700017464FF00008204601F090F810B14FF044
:10B98000080862E0B078C0F3400239462046FCF770
:10B9900009FD0546681C002854D0B078C0F380002B
:10B9A00020BBB07800F0010080B100BF00BF4FF0B5
:10B9B000A042104600F5E06252F8242022F0020175
:10B9C00000F5E06242F8241000BF0CE096F8019008
:10B9D000002000904B460246014601902046FEF7AB
:10B9E0008AFD00BF00BF204601F048F8B078C0F3E0
:10B9F0004000D0B13078164951F82510154A114051
:10BA0000134A42F82510114651F825104FF4F85208
:10BA100002EA04224FF4403303EA00431A4311437D
:10BA20000B4A42F8251000BF0EE0A5F108000A49B4
:10BA3000085C317840EA811042B2A5F1080006495D
:10BA40000A5401E04FF0040800BF4046BDE8FC87FF
:10BA500010650040FFE0FCFF2039002010B50446CF
:10BA60002046FEF7FAFD08B1012010BD0020FCE7DA
:10BA70002DE9F0412F4890F8580018B108263046BB
:10BA8000BDE8F081002408E02046FEF7D5FD10B1A6
:10BA9000204601F02DF8601CC4B2202CF4DB0024F9
:10BAA00004E02046FCF766FC601CC4B20C2CF8DBFA
:10BAB0002048002141652048FFF7F4FE054606278F
:10BAC00028463946002804DB4A07130E1B4A135444
:10BAD00008E04A074FEA126C194A00F00F031B1FD7
:10BAE00002F803C000BF00BF1348FFF7DBFE0546A6
:10BAF000284600280DDB00BF00BF00F01F02012117
:10BB000091404209920002F1E022C2F8001100BF08
:10BB100000BF00BF00BF4FF4BE70FEF7C7FD4FF07F
:10BB20000040FEF7DDFD0120024981F858000026A3
:10BB30003046A5E7D03800200060004000E400E077
:10BB400018ED00E0034890F8580008B10120704754
:10BB50000020FCE7D0380020014601F06040B0F141
:10BB6000005F01D1012070470020FCE72DE9F04182
:10BB700006254FF08040FFF791FE04462046E2176D
:10BB800004EBD2625211920002F1E022D2F80021BD
:10BB90002146E31704EBD3635B11A4EB43160123A7
:10BBA000B3401A400AB1012200E0002282BB4FF0EC
:10BBB0008040FFF773FE04462E462046314600289B
:10BBC00004DB4A07130E134A135406E04A07170E04
:10BBD000114A00F00F031B1FD75400BF00BF4FF0E6
:10BBE0008040FFF75BFE0446204600280DDB00BFC7
:10BBF00000BF00F01F02012191404209920002F1B2
:10BC0000E022C2F8001100BF00BF00BF00BF00BFAC
:10BC1000BDE8F08100E400E018ED00E02DE9F84314
:10BC200007460E46384601F05DF80446D4B14FF0A1
:10BC30000008002000906846FBF776FA207910B1E2
:10BC40004FF0010802E02660012020719DF80000FD
:10BC5000FBF770FAB8F1000F03D011252846BDE8B4
:10BC6000F88300BF00252846F9E7000010B5024917
:10BC7000024802F00BF810BD2C39002000200040D3
:10BC80002DE9F04105460E461746287900EB4001A4
:10BC900001EBC0001A4901EB80044FF0000894F852
:10BCA0002A0020B14FF008084046BDE8F0812A790B
:10BCB000144B53F822102868FFF7B0FF18B14FF06B
:10BCC00011084046F1E731462846FBF780FA6760E5
:10BCD00030692060606818B1317F2846FDF746FA68
:10BCE00028680421C0F8001500BF0020A061E061B1
:10BCF00084F829006061012084F82A004046D4E7D6
:10BD00002C39002038E302002DE9F84F054689461A
:10BD10009246287900EB400101EBC000424901EB5B
:10BD2000800400200090606820B14FF40171286801
:10BD3000FFF71AFDA06970B1E06950B1606820B1E9
:10BD40004FF401712868FFF712FD11263046BDE857
:10BD5000F88F01200090009838B9C4F818A0C4F8F2
:10BD60000C9000206062E06103E0C4F81090C4F819
:10BD70001CA094F8290020B9009810B9284601F0B9
:10BD800002F96068002846D14FF4A2712868FFF7D5
:10BD9000DEFC00BF00BF4FF492712868FFF7D0FCB3
:10BDA00080464FF484712868FFF7CAFC83464FF43D
:10BDB000A2712868FFF7C4FC0746BBF1000F03D14E
:10BDC00017B9B8F1000FE6D0B8F1000F00D107B1F4
:10BDD00007E02146286801F09BF8616AA069884263
:10BDE000D8D800BF0020A061B8F1000F02D0032610
:10BDF0003046ACE717B10F263046A8E794F8290083
:10BE000020B100212868FFF7BEFC03E00421286868
:10BE1000FFF7B9FC04E04FF401712868FFF7A7FCB5
:10BE20000026304693E700002C3900202DE9F04130
:10BE300004460F469046207900EB400101EBC0001C
:10BE40001C4901EB8005204600F036F818B1112698
:10BE50003046BDE8F081C5F81480AF60002028624C
:10BE600085F8280000264FF48E712068FFF76FFCDC
:10BE700008212068FFF787FC2946206801F06CFD47
:10BE80006868A0B92946206801F04BFD08B90F2663
:10BE90000BE000BF4FF48E712068FFF751FC0028C3
:10BEA000F8D00C212068FFF76EFC00206861304656
:10BEB000CFE700002C3900200146087900EB400252
:10BEC00002EBC000044A02EB8000406908B1012087
:10BED00070470020FCE700002C39002010B5024913
:10BEE000024801F097FF10BD5839002000200040A3
:10BEF0002DE9F04105460E461746287900EBC000B3
:10BF0000194901EB80044FF0000894F8200020B19B
:10BF10004FF008084046BDE8F0812A79134B53F8EA
:10BF200022102868FFF77AFE18B14FF0110840463A
:10BF3000F1E731462846FBF788F9676030692060F1
:10BF4000606818B1317F2846FDF75AF92868082142
:10BF5000C0F8001500BF0020A061E0616061012011
:10BF600084F820004046D6E75839002068E30200F4
:10BF70002DE9F84F04460E461746207900EBC00025
:10BF8000484901EB80053046FFF7E6FD20B94FF048
:10BF900010084046BDE8F88F4FF0000A686820B1ED
:10BFA0004FF404712068FFF712FCA86970B1E869CA
:10BFB00050B1686820B14FF404712068FFF70AFCA3
:10BFC0004FF011084046E5E74FF0010ABAF1000FC3
:10BFD00004D1AF61EE600020E86101E02E61EF6105
:10BFE0004FF000084FF488712068FFF7E3FB4FF42F
:10BFF000A2712068FFF7DEFB2068C0F834654FF4BB
:10C00000A7610F5000BFBAF1000F04D100212068D2
:10C01000FFF7EEFB08E020212068D0F800220A4359
:10C02000C0F8002200BF00BF207900EBC0001D490E
:10C0300001EB8000406868BB00BF4FF48871206846
:10C04000FFF7B1FB00904FF4A2712068FFF7ABFB44
:10C0500083464FF492712068FFF7A5FB8146009854
:10C0600028B9BBF1000F02D1B9F1000FE5D00020D3
:10C07000217901EBC1010B4A02EB81018861B9F121
:10C08000000F01D04FF00308BBF1000F01D04FF0BB
:10C090000F0804E04FF404712068FFF79BFB404653
:10C0A00078E70000583900202DE9F047044688461B
:10C0B0009146207900EBC0002A4901EB80054046FB
:10C0C000FFF74AFD18B910263046BDE8F087204634
:10C0D00000F04AF810B111263046F6E7C5F8149082
:10C0E000C5F8088000264FF490712068FFF762FBC6
:10C0F0004FF4AC712068FFF75DFB20686A69A9689E
:10C10000C0F844154FF4A9631A5000BF08212068F5
:10C11000FFF76EFB686818BB00BF4FF49071206892
:10C12000FFF741FB82464FF4AC712068FFF73BFB01
:10C130000746BAF1000F01D1002FEED00FB10F2644
:10C140000BE00C212068FFF753FB00BF4FF4AC71EC
:10C150002068FFF728FB0028F8D00020686100BFA6
:10C160003046B2E7583900200146087900EBC0009C
:10C17000044A02EB8000406908B1012070470020AA
:10C18000FCE70000583900202DE9F04104462078F2
:10C19000002846D12449254A891AC908042242EABE
:10C1A000014023A1FEF78EFDA28A1F4B1F4E9B1B51
:10C1B000DB08042646EA03402169FEF70FFD00264E
:10C1C0001FE000BF2169885DFAF778FF0546ADB131
:10C1D000112D13D01449154A891AC908012242EABF
:10C1E00001402A461FA1FEF777FD00BF2F4627B169
:10C1F00000BF3846FAF716FE00BF00BF112DE1D090
:10C20000761CA08AB042DCD8A08A401E2169085C56
:10C210000D2805D100BF0A20FAF750FF1128FAD0E7
:10C2200000BFBDE8F081000098EE020038EE020089
:10C230005265636569766564206461746120667225
:10C240006F6D20424C45204E55532E205772697415
:10C25000696E672064617461206F6E20554152548D
:10C260002E0000004661696C656420726563656933
:10C2700076696E67204E5553206D657373616765EF
:10C280002E204572726F7220307825782E200000A3
:10C2900000B501460248016000F004F800BD00004E
:10C2A00004E5014000BF024800680028FBD0704749
:10C2B00000E4014070B505467DB1032D10D1022088
:10C2C000FBF738FF044600BF264626B100BF3046C4
:10C2D000FAF7A8FD00BF00BF03E001F016F900E087
:10C2E00000BF00BF70BD000010B50446FCF77EFE25
:10C2F000014A03C210BD00000833002010B50446F7
:10C300000548006830B10448006801F04BFA00208D
:10C310000149086010BD0000F832002070B50546E4
:10C32000287868B93B210748008876DF044600BFBB
:10C33000264626B100BF3046FAF774FD00BF00BFA5
:10C3400070BD00009032002070B50546AE883046C2
:10C35000FCF796FE044674B14FF6FF7340F2F312F9
:10C3600005F1080104F10A00FCF7C7FF60722146DD
:10C370003046FCF749FA70BD2DE9F0410546EF7BE8
:10C38000AE88012F01D0BDE8F0814FF6FF70FCF7B9
:10C3900077FE04461CB9042000F00CFFF3E700BF51
:10C3A0002680002020720E480168C4F80A104068F8
:10C3B000C4F80E0000BF4FF6FF7340F2F31205F110
:10C3C000100104F10A00FCF798FF60720548C0896B
:10C3D00018B921463046FCF717FA00BFD3E7000032
:10C3E000B03200202438002070B58AB004460D46D3
:10C3F00000200090A9886A466069FAF783FF064624
:10C4000000200290039001A803900220ADF80800DC
:10C410000020ADF80A002189A88802AAADDF0646EF
:10C42000D6B9A069C0B10398FBF71CFDA0B1009874
:10C4300010B1012000990870182104A8F9F7FFFF36
:10C4400002208DF810000594A888ADF81800009817
:10C45000079004A8A16988470AB070BDCA7B012A69
:10C4600002D18A88A0F8E820704700002DE9F04743
:10C4700007468846B8F8046006EB4601B81D00EB95
:10C48000410498F80F00012802D13888208000E08C
:10C4900000BF00BF20886188884232DD22881A49A7
:10C4A0001A4BC91AC908042343EA0140334618A1AC
:10C4B000FEF71EFC21883046A5DF054615B9012090
:10C4C00060711EE0112D0DD1012020710E490F4A1F
:10C4D000891AC908042242EA014032461C49FEF783
:10C4E000FBFB0EE02846FFF717F981460649074A8D
:10C4F000891AC908012242EA01404A4615A1FEF7FD
:10C50000EBFBBDE8F087000038EE020038EE0200D9
:10C5100052657175657374696E6720746F207570EC
:10C520006461746520415454204D545520746F202B
:10C530002575206279746573206F6E20636F6E6E4F
:10C54000656374696F6E20307825782E00000000D6
:10C55000E8E6020073645F626C655F676174746330
:10C560005F65786368616E67655F6D74755F72653E
:10C57000717565737428292072657475726E6564AF
:10C580002025732E000000002DE9F0410646B788F3
:10C590003846FCF775FD05466DB16868FAF7EBFCA7
:10C5A000044614B1204600F005FE00BF4FF6FF70B0
:10C5B000288000BF00BFBDE8F08170B504460E467C
:10C5C000002084F8F200B088B4F8E81088420CD15A
:10C5D000207950B901212046FBF788F8054625B19E
:10C5E000A06B10B12846A16B884770BD70B504469A
:10C5F0000D46A98801EB4102A11D01EB4200FCF7A9
:10C60000DBFE70BD2DE9FC4706460F46BD88B7F836
:10C61000069005EB4501B01D00EB41042B492C4A67
:10C62000891AC908042242EA01404B462A4629A138
:10C63000FEF75EFBB9F1170F01DA172000E048465C
:10C6400081462088484501DD484600E0208860801A
:10C65000002020710095238862881C49DFF870C093
:10C66000A1EB0C01C9084FF0040C4CEA014028A1D1
:10C67000FEF74EFB21882846B5DF8046B8F1000F53
:10C680000ED04046FFF748F882461049104A891AF2
:10C69000C908012242EA014052462DA1FEF71CFBC7
:10C6A000607908B1BDE8FC87F06868B1344903C916
:10C6B000CDE90001ADF802506088ADF8040069468C
:10C6C0003046F268904700BF00BFEBE738EE02004B
:10C6D00038EE020050656572206F6E20636F6E6EDB
:10C6E000656374696F6E2030782578207265717586
:10C6F000657374656420616E20415454204D545517
:10C70000206F662025752062797465732E00000005
:10C710005570646174696E6720415454204D5455BE
:10C7200020746F20257520627974657320286465F4
:10C7300073697265643A20257529206F6E20636FD6
:10C740006E6E656374696F6E20307825782E0000F8
:10C7500073645F626C655F67617474735F6578634F
:10C7600068616E67655F6D74755F7265706C79285E
:10C77000292072657475726E65642025732E000021
:10C78000D0E202002DE9FC4105460E46B788B6F816
:10C790000A8007EB4701A81D00EB410420884045B3
:10C7A00001DD404600E0208860806088172801DABB
:10C7B000172000E06088608062881149114BC91A17
:10C7C000C908042343EA01403B460FA1FEF790FA53
:10C7D000E86878B1607968B11A4903C9CDE9000108
:10C7E000ADF802706088ADF8040069462846EA6832
:10C7F000904700BF002060712071BDE8FC810000FF
:10C8000038EE020038EE0200415454204D545520B9
:10C810007570646174656420746F20257520627979
:10C82000746573206F6E20636F6E6E656374696FDD
:10C830006E20307825782028726573706F6E73656E
:10C84000292E0000C8E2020070B588B004460D46EB
:10C85000A98801AA6069FAF755FD06460EB108B02D
:10C8600070BD0198007888B1A06978B1182102A83C
:10C87000F9F7E5FD01208DF808000394A888ADF8CC
:10C8800010000198059002A8A169884700BFE6E75B
:10C890000548D0E900304FF080729A1840F100004E
:10C8A0000149C1E900207047003300202DE9FF4114
:10C8B00006460D4628887188884201D0BDE8FF8170
:10C8C000AC1C2078022800D0F8E7207A042806D093
:10C8D000207A062803D0207A052800D0EEE7002031
:10C8E000009001900290039002208DF800004FF418
:10C8F000C070ADF80400207A052802D10020ADF800
:10C90000040028886946B0DF074617B138467168C9
:10C91000884700BFD2E72DE9F04104460D4628883C
:10C92000262801D0BDE8F081287A012802D0287A93
:10C9300002280ED1A078FAF722F907463946204698
:10C94000FAF7D4FE064626B1A06B10B13046A16BB3
:10C95000884700BFE6E7704770B504460D46287962
:10C96000012808D128886188884204D101202072DA
:10C97000204601F09AFB70BD2DE9F0410446A51D4B
:10C9800028881249C98988421DD1688902281AD18C
:10C99000B4F804804046FCF773FB064696B105F1F7
:10C9A0000C00FBF75FFA20B131464046FBF72CFF45
:10C9B00008E07068FAF7DFFA074617B1384600F06A
:10C9C000F9FB00BF00BFBDE8F08100002438002063
:10C9D000F0B587B004460E46B51DB1886A46606959
:10C9E000FAF790FC0746182101A8F9F728FD0294F0
:10C9F000B088ADF80C000098049029882089814205
:10CA00001CD16889022819D1009848B305F10C009F
:10CA1000FBF728FA30B101200099087002208DF848
:10CA2000040005E000200099087003208DF8040040
:10CA3000A069A8B101A8A169884711E02888A18947
:10CA400088420DD1A06958B100208DF8040005F18D
:10CA50000C0005906989ADF8181001A8A1698847F4
:10CA600007B0F0BD01460868012802D00868022816
:10CA700001D1012070470020FCE7000070B502469C
:10CA800005490B46D40802F007021D5D01269640B9
:10CA900035431D5500BF70BD2439002001460548AF
:10CAA0004056012202EBE07008B1012070470020DF
:10CAB000FCE70000003900200146044840560828E1
:10CAC00001DB012070470020FCE700000039002056
:10CAD000014606484056002805DB04484056082811
:10CAE00001DA012070470020FCE700000039002037
:10CAF000FF2201490A547047003900202DE9F05FF8
:10CB0000814600BF00254DE02B484057401C00B92E
:10CB100047E0284600F052F8044649462046FDF713
:10CB2000BFF900283CD0284600F050F8064600BF68
:10CB300000BF4FF0A041084600F5E06151F8241015
:10CB4000C1F301418846B8F1020F01D1032000E092
:10CB50000220824651462046FDF73BFD00BF00BF44
:10CB60004FF0A04108460121A140C0F8201500BFA8
:10CB70002046FBF757FC8346FBF70CFC074677B1D2
:10CB8000032E09D0B8F1020F01D1012E04D0B8F163
:10CB9000030F04D1022E02D131462046B84700BF10
:10CBA00000BF6D1C042DAFD34846FCF7E5FB002801
:10CBB000A8D1BDE8F09F00002039002001460248BE
:10CBC000425C22F0C0007047203900200146024834
:10CBD000425C9009704700002039002070B504467F
:10CBE0000D461646207A05280CD0607A28B10A48EE
:10CBF0000AA102682846FDF763FB09A12846FDF754
:10CC00005FFB04E01EB106A12846FDF759FB28464C
:10CC1000FDF76BFB70BD000084330020257300001E
:10CC20000D0A000070B5FEF73FFA044600BF254626
:10CC300025B100BF2846FAF7F5F800BF00BF70BD68
:10CC4000F8B504460D46E08838B116A00090E38898
:10CC500016A218A12846FDF733FB207A05281FD01D
:10CC6000607A58B1217AA088FDF7FAFD174951F88A
:10CC70002060324616A12846FDF722FB284621688F
:10CC800000F04EFEA0880021FEF7E2F80646207A6A
:10CC9000104951F8202033460FA12846FDF710FB1C
:10CCA000F8BD00001B5B306D000000001B5B313BDA
:10CCB00033316D0025734C6F67732064726F707031
:10CCC0006564202825642925730D0A00843300201B
:10CCD00025730000703300203C25733E2025733AF5
:10CCE0002000000001460348814201D102487047FC
:10CCF0000020FCE700200040CC3200200248006801
:10CD0000810201F1005070470C01001010B504467B
:10CD1000142C01DB002010BD21460548FCF7F4FF70
:10CD200021460348001FFCF7EFFF0120F3E7000056
:10CD30004838002070B50546002406E0044901EBA0
:10CD400084002946FCF7C2FF641C1E2CF6D370BD7C
:10CD50004438002010B598B00F488068C043179041
:10CD60000D48416817A8FCF7F7FF179901A8FBF7D2
:10CD700096FC2C2201A90CA8F9F748FB002405E039
:10CD80000DA931F81400FFF7D5FF641C0C98A042E0
:10CD9000F6D818B010BD00004038002010B5044689
:10CDA00021460248FCF792FF10BD000048380020E1
:10CDB00010B504462046FBF7B2FE08B1FFF768FD48
:10CDC00000212046FBF7BBFD10B12046FFF796FA85
:10CDD00001212046FBF7B3FD10B12046FFF784FA8E
:10CDE000204600F015FD204600F040F810BD000080
:10CDF0002DE9F04706460F464FF00D080020387029
:10CE0000FCF7F4F8D6E902321C1A62EB01050021A6
:10CE10000846091BA84118DAB4F5350F04D3FAF710
:10CE200041F81049084400E0B06881464FF4960389
:10CE30004A4600210C48FBF788FE8046B8F1000FF7
:10CE400002D10120BDE8F08703E000210648FBF78E
:10CE50006BFDB8F10D0F03D1304600F0A3FC387024
:10CE60000020EFE7FFFFB400F0320020F8B50746DE
:10CE700046E000BF2448FEF70CFC06460EB13046E3
:10CE800000E0002004460025002C31D01F48006837
:10CE900008B9012512E01D49D4E902300A68D2E937
:10CEA0000212591A904109D2012518480068007FE2
:10CEB00020B1164801681448FEF7D7FBBDB100F059
:10CEC00073FB044669462046FFF792FF58B10F48AE
:10CED000006810B93846FBF72AFE0C4804609DF83C
:10CEE000000018B90DE000200849086007E008E0DC
:10CEF0000648006810B93846FBF720FE01E000BF85
:10CF0000B7E700BFF8BD000094E30200F83200204C
:10CF100070B505460C46A06940B94FF484712846A7
:10CF2000FEF715FC00BFD5F8180570BD4FF48471ED
:10CF30002846FEF70CFC00BFD5F81805C0B2626A9F
:10CF4000E1688854606A401C606200BFEDE77FB50D
:10CF500004460D46164601208DF800000295019604
:10CF60006846D4E9001290477FBD7FB504460D4660
:10CF7000164601208DF80000029501966846D4E916
:10CF8000001290477FBD10B504464FF4927120689F
:10CF9000FEF7DDFB4FF484712068FEF7D8FB00211B
:10CFA0002068FEF7F0FB10BD10B504462046F9F7E7
:10CFB0007BFD10B942F2010010BD2046002803DBC2
:10CFC0001F4A125C520905E01E4A00F00F031B1FA6
:10CFD000D25C52091146082904D20120884000F091
:10CFE000EC0008B9002000E0012010B942F2020074
:10CFF000E2E71548806868B16009134951F82000DC
:10D0000004F01F0201219140084361090E4A42F8D1
:10D01000210012E0204600280DDB00BF00BF00F019
:10D020001F02012191404209920002F1E022C2F860
:10D03000001100BF00BF00BF00BF0020BCE7000020
:10D0400000E400E018ED00E0383A002070B5044636
:10D05000F9F746FD054614488068D8B90120124901
:10D06000886012480068124908400F49086010485B
:10D070004FF0E021C1F880010C488038D0F88400DE
:10D08000094948604FF0FF310848001D0160002049
:10D09000207001E0012020701DB900BF62B600BF02
:10D0A00000BF002070BD0000383A002080E100E0A1
:10D0B000FC06FFBD38B504460D4624B1012C1FD037
:10D0C000032C38D132E00020002817DB00F01F02CB
:10D0D00001219140194A430942F8231000BF00BFC3
:10D0E00000BFBFF34F8F00BF00BF00BF00BF00BF36
:10D0F00000BFBFF36F8F00BF00BF00BF00BF1BE0CA
:10D10000002000906846FAF70FF80D48007808B93B
:10D11000FDF70EF80A48C068401C0949C8600120A4
:10D1200088709DF80000FAF705F805E0FEF77AFB35
:10D13000FDF724F800E000BF00BF38BD80E100E04B
:10D14000BC380020FEB505460C496846FEF755FA86
:10D150000DE06846FEF74EFA0446266828466168E8
:10D16000B04708B91120FEBD6846FEF767FA684669
:10D17000FEF740FA0028ECD100BFF4E784E5020096
:10D18000FEB505460A496846FEF737FA0AE06846E2
:10D19000FEF730FA0446266828466168B0476846BC
:10D1A000FEF74CFA6846FEF725FA0028EFD1FEBDDF
:10D1B000A0E5020010B504460348806918B1024892
:10D1C00081692046884710BD2438002070B5054687
:10D1D0000E463146284675DF044624B1112C02D094
:10D1E0002046FFF7E7FF0CB9012070BD0020FCE7E7
:10D1F0002DE9F84F88461546002D35D04FF000092F
:10D200000320009000BF08EB09012A460020F9F72F
:10D2100001FA0446A1442D1BFCB91448007800B95A
:10D2200020E0012606B90FE000BF4FF47A7707B976
:10D2300006E0DFF83CA04FEA871B5846D04700BF06
:10D24000701E061EF1D100BF0098401E009000988D
:10D2500018B900200549087004E00120034908704E
:10D26000002DD0D100BF00BFBDE8F88F50330020A3
:10D2700061E502002DE9F04707460E4614469A463E
:10D28000B86A10B90720BDE8F0874FF0000836E013
:10D2900008EB4801B86A00EB8105A88800F1020993
:10D2A000B9F1FE0F01D90C20EDE709F10100218849
:10D2B00070542088401C20801620218870542088BB
:10D2C000401C208022889119288800F043FE218884
:10D2D00008442080A88800280DDDA86808B9072028
:10D2E000D1E7AA8823889819A968F9F78FF82088C8
:10D2F000A9880844208008F1010000F0FF0897F891
:10D300002C004045C4DC0020BDE700007CB50020B7
:10D3100000901148009069461048FCF795FE0446BD
:10D3200000BF254625B100BF2846F9F77BFD00BFA9
:10D3300000BF002001900A48019001A90948FAF7AE
:10D34000EBFC044600BF254625B100BF2846F9F78F
:10D3500069FD00BF00BF7CBDFFB00200C8330020E4
:10D3600089C10200743200200246022082F8310096
:10D3700003200870108A88810020C2F8E40002F1BE
:10D38000EA004860D06888600020704702460120AB
:10D3900082F831000020C2F8E40002F1EA0048609F
:10D3A000002088600220087080208881002070475B
:10D3B00070B504460D466069A860208BA8810120E5
:10D3C00084F83C00204600F061FE78B10220287508
:10D3D00004212046FBF72AFD064600BF304600B177
:10D3E00070BD00BF052084F8310002E0032084F8FE
:10D3F000310004F1D400C4F8E4000020F0E770B577
:10D4000004460D46E069A860208CA881012084F8BC
:10D410003C00204600F03AFE78B102202875042135
:10D420002046FBF703FD064600BF304600B170BD45
:10D4300000BF062084F8310002E0042084F83100A7
:10D4400004F1D400C4F8E4000020F0E700BF0A783B
:10D4500022F00F020A700A7822F0F0020A7000BF70
:10D46000062850D2DFE800F0030E1B28354200BF2B
:10D470000A7822F00F020A700A7822F0F0020A708D
:10D4800000BF40E000BF0A7822F00F02521C0A7071
:10D490000A7822F0F00210320A7000BF33E000BFB9
:10D4A0000A7822F00F02521C0A700A7822F0F00269
:10D4B00020320A7000BF26E000BF0A7822F00F0277
:10D4C000521C0A700A7822F0F00230320A7000BF53
:10D4D00019E000BF0A7822F00F02921C0A700A7845
:10D4E00022F0F00210320A7000BF0CE000BF0A7890
:10D4F00022F00F02921C0A700A7822F0F002203209
:10D500000A7000BF00BF00BF704770B50020FAF777
:10D5100011FE044600BF254625B100BF2846F9F795
:10D5200081FC00BF00BFFAF717FD044600BF254687
:10D5300025B100BF2846F9F775FC00BF00BF33DFF7
:10D54000044600BF254625B100BF2846F9F76AFC0E
:10D5500000BF00BF70BD000070B504460D462CB979
:10D560000120034948700020FBF746F870BD000019
:10D57000BC38002070B51620FFF716FD044600BF2A
:10D58000254625B100BF2846F9F74CFC00BF00BF77
:10D5900070BD10B500BF00F007F808B10021017799
:10D5A0000028F8D110BD000010B50448FEF775F84A
:10D5B00004460CB1204610BD0020FCE794E30200B5
:10D5C00010B504460120FAF743FD10B10220207087
:10D5D00008E00020FAF73CFD10B10B20207001E0BC
:10D5E0000020207010BD00000146064B03EB6103D4
:10D5F0001A7801F001030BB1131101E002F00F03DF
:10D6000018467047A039002030B500F001040CB175
:10D610000F2400E0F024234600F001040CB10C01BB
:10D6200000E00C46E2B2094C04EB600424781C4094
:10D63000064D05EB60052C70044C04EB6004247867
:10D640001443024D05EB60052C7030BDA03900205D
:10D650002DE9F05F05460E4690461F46DDF82890FE
:10D660004FEA154AFBF754F983464AEA0B42781C05
:10D6700000EA09000E4941F8202007EA090001EB01
:10D680008004206865F3C5002060206868F3891075
:10D690002060206866F39F202060206820F003004F
:10D6A000401C2060206820F004002060BDE8F09F4E
:10D6B000F43B00202DE9FC478046894616461C466F
:10D6C00016480768012201A92046FAF775FDC0B186
:10D6D000019800F1020A002509E056F8252050467D
:10D6E0000AF1010A38400E4941F820206D1CA5427C
:10D6F000F3D30097224649464046019BFFF7A8FF17
:10D7000000BF07480C38007830B100BF00BFFDF7FC
:10D71000D7F80028FBD100BFBDE8FC876C330020A0
:10D72000F43B00202DE9F04781460C46154698460B
:10D73000002608F00100A0B105E0641C761C394603
:10D740004846FAF7ADFD2778002FF6D104E06D1EAC
:10D7500020214846FAF7A4FDB5421BD9002DF6D189
:10D7600018E01CB12046F8F775FE064604E06D1E71
:10D7700020214846FAF794FDB54201D9002DF6D193
:10D7800005E0641C761C39464846FAF789FD27787F
:10D79000002FF6D1BDE8F0870246501A20F07F40F6
:10D7A0007047000070B5044600251748007801282E
:10D7B00027D104B3207FF0B1FBF718FCD4E9022392
:10D7C000801A994118D3206908B900202077D4E93C
:10D7D00005108847206970B1207F60B1D4E902301C
:10D7E0002169591840F10000C4E902102146074898
:10D7F000FDF73BFF012504E021460448FDF735FF16
:10D800000125284670BD0000FC32002094E3020090
:10D81000F8B5064669461F480068FCF73BFA04461F
:10D8200034E0207820B101280DD0022821D11AE05F
:10D830006068007F30B90120616808771648616828
:10D84000FDF713FF16E0154960680968884203D1A7
:10D8500000201249086005E00F486168FDF729FFC4
:10D86000054600BF06E0FFF794FE01200C49087052
:10D8700000E000BF00BF694606480068FCF7FCF9FD
:10D88000694604480068FCF705FA0446002CC8D134
:10D89000F8BD000090E3020094E30200F83200209B
:10D8A000FC320020F8B505460E4669460B48006874
:10D8B000FCF7D4F904467CB12570666069460748D8
:10D8C0000068FCF7F5F928B100BF0548FBF70CF933
:10D8D00000BF00BF0020F8BD0420FCE790E3020079
:10D8E000F032002010B505480068410800220448C5
:10D8F0000068F9F725FB044610BD0000E032002067
:10D9000088E3020070B5F9F7E5FA044600BF254642
:10D9100025B100BF2846F9F785FA00BF00BF70BDEA
:10D92000704770B505460C46666910E004E094F84F
:10D93000280008B1002070BD4FF48E712846FDF715
:10D94000FFFE0028F3D02146284600F005F8206AA3
:10D95000B042EBD30120EEE770B505460C464FF41C
:10D960008E712846FDF7F3FE216AA068465C206AA6
:10D97000401C20623046C5F81C0500BF70BD7FB555
:10D9800004460D4600208DF800000295A068019025
:10D99000002060616846D4E9001290477FBD7FB5E2
:10D9A00004460D4600208DF800000295A068019005
:10D9B000002060616846D4E9001290477FBD30B511
:10D9C00004461088C01C984201D90C2030BD0220AA
:10D9D000158848551088401C10800A201588485525
:10D9E0001088401C108015884C551088401C1080F1
:10D9F0000020EBE7F8B50546287820B1012861D072
:10DA0000022865D158E03449344A12788818F9F769
:10DA1000BDFA32480078401C30490870084600784A
:10DA2000401E2D49085C0A280BD02C480078401E67
:10DA3000085C0D2805D029480078294909888842C2
:10DA400039DB26480078012832DD2649264A891A22
:10DA5000C908042242EA014024A1FDF733F9214913
:10DA6000214A891AC908042242EA01401B490A785E
:10DA70001949FDF7B3F800BF184800780090234813
:10DA800003886A4614492248FAF708F90446082C24
:10DA90000CD0132C0AD0052C08D000BF264626B186
:10DAA00000BF3046F9F7BEF900BF00BF132CE3D02A
:10DAB00000200A4908700CE000BF6868F9F7B2F965
:10DAC00000BF06E000BF6868F9F7ACF900BF00E0EE
:10DAD00000BF00BFF8BD0000CC3400209832002009
:10DAE0009232002098EE020038EE02005265616426
:10DAF0007920746F2073656E642064617461206F97
:10DB000076657220424C45204E55530090320020DD
:10DB1000743200207CB504460E462078002847D099
:10DB2000012802D0022856D133E0207A28B90122F8
:10DB30002A492B48FCF780FB4EE0606801782948B1
:10DB4000F9F79FF9054645B101208DF800000195D0
:10DB500068462549096888470AE02248FBF725F905
:10DB600030B100208DF8000068461F4909688847D9
:10DB70001C48FBF71AF91B498988884205D80122FD
:10DB800016491748FCF758FB02E0012017490870B6
:10DB900022E002208DF80000E068019001220F4988
:10DBA0000F48FCF749FB68460F490968884713E0AE
:10DBB0000F491048F9F744F928B901220C490848DF
:10DBC000FCF75CFB06E003208DF800006846064980
:10DBD0000968884700E000BF00BF7CBD2D330020EE
:10DBE00014330020183A0020283300202E33002060
:10DBF0002C330020283A00207FB504460D462E46DF
:10DC000020788DF8000060680190217A8DF8081066
:10DC1000E1680391044850F82610044850F8262083
:10DC2000684690477FBD0000BC320020B83200201B
:10DC300030B58BB01822114905A8F8F7E7FB00BFF3
:10DC40000F4801904FF4807002900E4803904FF4FB
:10DC50008070049007230C4A01A905A8F9F7C0F9C0
:10DC6000044600BF00BF254625B100BF2846F9F78E
:10DC7000D9F800BF00BF0BB030BD000088E2020041
:10DC8000C0350020C0360020F5D902002DE9FF4143
:10DC900005460C464FF400712846FDF76BFD48B36E
:10DCA0004FF492712846FDF74BFD18B34FF4927173
:10DCB0002846FDF74CFD4FF401712846FDF754FD51
:10DCC00094F8290018B904212846FDF75CFD0220CC
:10DCD0008DF800002846FDF72DFD0390A169029103
:10DCE000E06801900020A061E0616846D4E900127C
:10DCF000904737E004212846FDF73CFD002831D04D
:10DD00004FF484712846FDF71BFD58B32146284681
:10DD1000FFF7FEF8616AA069884223D1E06970B11B
:10DD2000E668676AE069A0612069E0600020E06160
:10DD30006062324639462046FFF709F912E094F84E
:10DD4000290018B904212846FDF71DFD4FF4017183
:10DD50002846FDF709FD0020A061E268616A2046BF
:10DD6000FFF7F5F84FF48E712846FDF7E9FCB8B1DE
:10DD70006669206AB04207D294F8280020B921468B
:10DD80002846FFF7E9FD0AE04FF48E712846FDF7BB
:10DD9000DEFC606918B161692046FFF7F0FD00BF45
:10DDA0004FF4A2712846FDF7CBFCA0B14FF4A2714D
:10DDB0002846FDF7CCFC94F8290018B1002128462C
:10DDC000FDF7E1FCA06930B10020A061E268616A62
:10DDD0002046FFF7BCF8BDE8FF8100007FB5044690
:10DDE0000D462E4620788DF8000060680190217A5B
:10DDF0008DF80810E1680391044850F82610044893
:10DE000050F82620684690477FBD0000BC320020B5
:10DE1000B83200202DE9FF4106460C464FF49271BE
:10DE20003046FDF7C0FCC8B14FF492713046FDF7A3
:10DE3000C1FC02208DF800003046FDF7AEFC0390D7
:10DE40003046FDF7CAFC0290E06801900020A06116
:10DE5000E0616846D4E9001290472CE04FF48871E5
:10DE60003046FDF7A0FC30B34FF488713046FDF723
:10DE7000A1FC3046FDF7B1FC0546A069A84219D1C6
:10DE8000E06980B1E76820213046FDF7ABFCE0692E
:10DE9000A0612069E0600020E0613A462946204602
:10DEA000FFF763F806E00020A06129462046E268FB
:10DEB000FFF75BF800BF4FF4A2713046FDF773FC2B
:10DEC00090B14FF4A2713046FDF774FCA06958B1CF
:10DED0000020A061E0613046FDF77FFC0546294641
:10DEE0002046E268FFF741F84FF490713046FDF7A5
:10DEF0005AFC90B14FF490713046FDF75BFC0C2159
:10DF00003046FDF775FC606938B13046FDF773FCAB
:10DF1000054629462046FFF742FD4FF4AC713046D6
:10DF2000FDF741FC70B14FF4AC713046FDF742FC97
:10DF3000606938B13046FDF75EFC0546294620464B
:10DF4000FFF72DFDBDE8FF81014608784A7840EAD9
:10DF50000220704702460A70100A4870022070477B
:10DF60002DE9FF4F81B0884616461F46DDE90E4B6E
:10DF700045464FF0010A03E0B5FBF6F50AF1010A48
:10DF8000B542F9D2574500D9BA460BF0010098B90D
:10DF900094B10BF00200022803D117B93020009091
:10DFA00001E02020009004E0641EDDE90010FAF793
:10DFB00077F90CB1A245F7D3012509E0012F01D96A
:10DFC0007F1E04E0B8FBF5F9B14500D201E07543CE
:10DFD000F4E700BF00BFB8FBF5F909FB15880D4851
:10DFE00010F809100198FAF75BF9B5FBF6F5002D6A
:10DFF000F1D10BF0010048B144B104E0641E2021CE
:10E000000198FAF74DF90CB1A245F7D305B0BDE878
:10E01000F08F0000D6E30200F8B506463546A8B2F8
:10E02000FBF72EF804466CB3207A1749097B884227
:10E030000ADAA8B204F10A01FFF7C8F8074617B1D7
:10E04000207A401C20721DE0002020720E48007CC7
:10E0500050B1A8B23B2176DF074627B1082F02D086
:10E060003846FFF7A7F800BF0748406950B10020C5
:10E070008DF80000A8B2ADF8020003484169684677
:10E08000884700BFF8BD00002438002010B50446C2
:10E09000607940B194F8F20028B9204600F0E7F822
:10E0A00008B1012010BD0020FCE770B50446207ABD
:10E0B00080B16088002166DF054615B90020207216
:10E0C00007E0112D02D10120207202E0284661688C
:10E0D000884700BF70BD70B505460E462846FAF762
:10E0E00001F904462CB1606818B1314628466268CF
:10E0F000904770BD2DE9FC478046894615469A46F3
:10E10000DDE90A675346022249464046CDE90067E9
:10E1100000F017F8044600BF204608B1BDE8FC87B0
:10E1200000BF5346102229464046CDE9006700F063
:10E1300008F8044600BF204600B1EFE700BF00200A
:10E14000ECE72DE9FF5F07468B4696461D460E9C81
:10E150004FF0000920880390C84647E0786800EB3C
:10E16000880000680190002202A901A864DF064629
:10E1700000BF304610B104B0BDE8F09F00BF9DF86D
:10E180000800704530D1B9F1000F01D0002000E047
:10E190000220009020889DF8081001440098014456
:10E1A0000F98814201DD0C20E5E7B9F1000F0AD19B
:10E1B0002088401C2080208805F800B02088401C62
:10E1C00020804FF001092088421902A901A864DFCC
:10E1D000064600BF304600B1CDE700BF21889DF85C
:10E1E00008000844208000BF08F101083888404535
:10E1F000B4DCB9F1000F0DD021880398401C081A37
:10E200001FFA80FABAF1FF0F01DD0C20B3E7039883
:10E2100005F800A00020AEE72DE9F04106460F46C4
:10E22000042E22D20FB1032000E000200546304624
:10E23000F9F74CFE044600BF4FF0A041084600F538
:10E24000E06151F8241021F4403200F5E06141F81A
:10E25000242051F8241041EA054200F5E06141F81C
:10E26000242000BF0020BDE8F0810620FBE7014626
:10E2700091F8F4007047000000000000000000006A
:10E280000738FDD870470000050000000C000000B2
:10E2900005000000070000000000000000E0D701BA
:10E2A0000D0E0F10D03700200D0003008D7F0200EF
:10E2B0000E0003008D7F02000F0003008D7F02001F
:10E2C000100003008D7F0200770A000000000000AC
:10E2D000770A0000000000009ECADC240EE5A9E0D9
:10E2E00093F3A3B50000406E000000506E72667894
:10E2F0005F6770696F74655F696E6974006E7266DE
:10E30000785F6770696F74655F6F75745F696E6958
:10E3100074006E7266785F6770696F74655F696EAE
:10E320005F696E69740000006E7266785F75617275
:10E33000745F696E697400006DBC02006E7266786D
:10E340005F756172745F7478006E7266785F756174
:10E3500072745F72780000006E7266785F75617229
:10E3600074655F696E697400DDBE02006E72667866
:10E370005F75617274655F7478006E7266785F7540
:10E38000617274655F7278008039002003000000BC
:10E39000083A0020000000001033002051860200DF
:10E3A00001000600FFFFFFFFFFFFFFFFFFFFFFFF72
:10E3B000FFFFFFFF00000000000000000000D6018A
:10E3C0000601000000000000000000000000000046
:10E3D0000738FDD870473031323334353637383965
:10E3E0004142434445460000000000000000000098
:10E3F000000000000000000000000000000000001D
:10E40000E8E3020000E4020004000000556E6B6EB9
:10E410006F776E206572726F7220636F64650000A3
:10E4200000000000B4EA02000100000060E9020000
:10E430000200000054E7020003000000D4E90200DB
:10E440000400000028EA02000500000008E90200BC
:10E4500006000000A4E802000700000010EA020025
:10E46000080000001CE902000900000080E9020029
:10E470000A0000009CEA02000B0000003CE70200DA
:10E480000C00000034E902000D00000004EB020063
:10E490000E00000000EA02000F0000003CEA02004B
:10E4A0001000000070EA02001100000018EB0200EA
:10E4B00012000000ECEA02001300000088EA0200EB
:10E4C00080000000BCE8020081000000F8E70200C4
:10E4D00082000000B8E702008300000098E7020015
:10E4E00084000000D4E7020085000000E0E802009C
:10E4F00086000000E8E902009000000084E80200C5
:10E500009100000078E702009200000048E9020054
:10E510000082000050EA0200018200009CE9020033
:10E5200002820000B8E902000084000014E8020042
:10E5300001840000C0EA0200028400005CE80200DE
:10E540000384000038E80200000000000000000022
:10E550004DA702004BA7020041A7020000000000E7
:10E560000738FDD870470000503B00207F000000B6
:10E57000D03B002000000000000000000000000070
:10E580000000000074E5020084E5020008000000BD
:10E5900024EF02002CEF0200000000000000000049
:10E5A00090E50200A0E502000800000014EF020060
:10E5B00024EF02000000000000000000ACE50200B3
:10E5C000BCE502000800000000100200CCEE0200D2
:10E5D000D4EE0200D4EE0200F4EE0200F4EE0200EB
:10E5E00004EF020004EF02000CEF0200CCE5020091
:10E5F000ECE5020008000000683200200CEF020089
:10E6000014EF02000000000000000000FCE5020022
:10E610000CE602000800000000404040404040403E
:10E6200040404141414141404040404040404040E5
:10E630004040404040404040400502020202020289
:10E6400002020202020202020220202020202020D8
:10E6500020202002020202020202909090909090EC
:10E6600010101010101010101010101010101010AA
:10E67000101010100202020202028888888888881E
:10E68000080808080808080808080808080808080A
:10E6900008080808020202024000000019E6020011
:10E6A00052657175657374696E6720746F2075703B
:10E6B0006461746520415454204D545520746F207A
:10E6C0002575206279746573206F6E20636F6E6E9E
:10E6D000656374696F6E20307825782028726574C0
:10E6E0007279292E0000000073645F626C655F67B9
:10E6F000617474635F65786368616E67655F6D748C
:10E70000755F726571756573742829206F6E20635B
:10E710006F6E6E656374696F6E2030782578207235
:10E72000657475726E656420627573792C207769E3
:10E730006C6C2072657472792E0000004E52465F38
:10E740004552524F525F494E56414C49445F4441F5
:10E75000544100004E52465F4552524F525F534F54
:10E7600046544445564943455F4E4F545F454E41DC
:10E77000424C4544000000004E52465F4552524F05
:10E78000525F464541545552455F4E4F545F454E8A
:10E7900041424C45440000004E52465F4552524FA4
:10E7A000525F4D555445585F554E4C4F434B5F4655
:10E7B00041494C45440000004E52465F4552524F7D
:10E7C000525F4D555445585F4C4F434B5F4641494E
:10E7D0004C4544004E52465F4552524F525F4D5594
:10E7E0005445585F434F4E445F494E49545F46413C
:10E7F000494C4544000000004E52465F4552524F7E
:10E80000525F4D555445585F494E49545F46414902
:10E810004C4544004E52465F4552524F525F424C67
:10E82000455F495053505F52585F504B545F5452AC
:10E83000554E4341544544004E52465F4552524F57
:10E84000525F424C455F495053505F504545525FBF
:10E8500052454A4543544544000000004E52465F2D
:10E860004552524F525F424C455F495053505F4CA6
:10E87000494E4B5F444953434F4E4E4543544544E4
:10E88000000000004E52465F4552524F525F4150C9
:10E89000495F4E4F545F494D504C454D454E544590
:10E8A000440000004E52465F4552524F525F4E4F59
:10E8B000545F535550504F52544544004E52465F9A
:10E8C0004552524F525F4D4F44554C455F4E4F5449
:10E8D0005F494E495449414C495A454400000000A3
:10E8E0004E52465F4552524F525F4D4F44554C4534
:10E8F0005F414C52454144595F494E495449414C4E
:10E90000495A4544000000004E52465F4552524F5E
:10E91000525F4E4F545F464F554E44004E52465F35
:10E920004552524F525F494E56414C49445F5354F1
:10E93000415445004E52465F4552524F525F44414A
:10E9400054415F53495A45004E52465F4552524F1B
:10E95000525F494F5F50454E44494E47000000000A
:10E960004E52465F4552524F525F5356435F4841A5
:10E970004E444C45525F4D495353494E47000000A9
:10E980004E52465F4552524F525F494E56414C4996
:10E99000445F4C454E475448000000004E52465FCD
:10E9A0004552524F525F4452565F5457495F455249
:10E9B000525F414E41434B004E52465F4552524FCB
:10E9C000525F4452565F5457495F4552525F444E1E
:10E9D00041434B004E52465F4552524F525F494EA3
:10E9E0005445524E414C00004E52465F4552524FE4
:10E9F000525F53544F524147455F46554C4C0000BF
:10EA00004E52465F4552524F525F4E554C4C00009D
:10EA10004E52465F4552524F525F494E56414C4905
:10EA2000445F504152414D004E52465F4552524F55
:10EA3000525F4E4F5F4D454D000000004E52465F05
:10EA40004552524F525F464F5242494444454E0050
:10EA50004E52465F4552524F525F4452565F545792
:10EA6000495F4552525F4F56455252554E00000085
:10EA70004E52465F4552524F525F494E56414C49A5
:10EA8000445F4144445200004E52465F4552524F4B
:10EA9000525F5245534F5552434553004E52465FC5
:10EAA0004552524F525F494E56414C49445F464C85
:10EAB000414753004E52465F53554343455353001D
:10EAC0004E52465F4552524F525F424C455F49504D
:10EAD00053505F4348414E4E454C5F414C52454177
:10EAE00044595F4558495354530000004E52465F05
:10EAF0004552524F525F434F4E4E5F434F554E5417
:10EB0000000000004E52465F4552524F525F54493A
:10EB10004D454F55540000004E52465F4552524FEE
:10EB2000525F4255535900007761726E696E6700FB
:10EB300064656275670000001B5B313B33306D001C
:10EB40001B5B306D000000001B5B313B33316D00FF
:10EB50001B5B313B33326D001B5B313B33336D004C
:10EB60001B5B313B33346D001B5B313B33356D0038
:10EB70001B5B313B33366D001B5B313B33376D0024
:10EB8000696E666F000000006572726F72000000AF
:10EB900073645F626C655F6366675F736574282981
:10EBA0002072657475726E656420257320776865C0
:10EBB0006E20617474656D7074696E6720746F2067
:10EBC00073657420424C455F47415454535F43463C
:10EBD000475F534552564943455F4348414E474579
:10EBE000442E000073645F626C655F6366675F73E9
:10EBF000657428292072657475726E6564202573AA
:10EC0000207768656E20617474656D7074696E67D5
:10EC100020746F2073657420424C455F434F4D4D07
:10EC20004F4E5F4346475F56535F555549442E004C
:10EC300073645F626C655F6366675F7365742829E0
:10EC40002072657475726E6564202573207768651F
:10EC50006E20617474656D7074696E6720746F20C6
:10EC600073657420424C455F47415454535F43469B
:10EC7000475F415454525F5441425F53495A452EB5
:10EC80000000000073645F626C655F6366675F73BA
:10EC9000657428292072657475726E656420257309
:10ECA000207768656E20617474656D7074696E6735
:10ECB00020746F2073657420424C455F434F4E4E65
:10ECC0005F4346475F4741502E00000073645F6218
:10ECD0006C655F6366675F7365742829207265746D
:10ECE00075726E6564202573207768656E20617487
:10ECF00074656D7074696E6720746F20736574201D
:10ED0000424C455F4741505F4346475F524F4C4539
:10ED10005F434F554E542E0073645F626C655F63B2
:10ED200066675F73657428292072657475726E65F5
:10ED300064202573207768656E20617474656D703A
:10ED400074696E6720746F2073657420424C455F50
:10ED5000434F4E4E5F4346475F474154542E000099
:10ED60006E72665F626C655F6761747400000000BC
:10ED7000626C655F6E757300636C6F636B0000009F
:10ED8000434C4F434B0000004750494F544500004F
:10ED90005052530055415254000000005541525406
:10EDA000450000006170705F627574746F6E0000E2
:10EDB0006170705F74696D65720000007077725FDA
:10EDC0006D676D7400000000736F72746C6973740A
:10EDD000000000007274745F6C6F675F6261636B48
:10EDE000656E6400617070006E72665F73646800C7
:10EDF0006E72665F7364685F626C65006E72665FF8
:10EE00007364685F736F63002CEF02006832002048
:10EE1000500100009864020084EF0200B833002023
:10EE2000D8160000986A020050E5020000000000B9
:10EE3000D4ED02005433002060ED02000000040411
:10EE400070ED02000000000078ED020000000000FC
:10EE500080ED02000000000088ED020000000000CC
:10EE600090ED02000000000094ED020000000000A0
:10EE70009CED020000000000A4ED02000000000074
:10EE8000B0ED020000000000BCED02000000000038
:10EE9000C8ED020000000000E4ED020000000404E0
:10EEA000E8ED020000000303F0ED020000000303A0
:10EEB000FCED020000000303643300205C330020FB
:10EEC00064330020903A002018000000F57B020017
:10EED000000000000D9F0200B8330020677602009A
:10EEE000D43300203D7B020000000000B57B02000F
:10EEF00000000000217E0200743200207BA002008E
:10EF0000C8330020A57902000000000059D5020096
:10EF1000000000006DB4020000000000A1B5020076
:10EF200000000000B5D0020000000000411368326C
:10EF30001320010215041A6C1C4114FFFF14120166
:10EF4000025A020D151001401184D11220BA400856
:10EF5000012F0A19FF141488EB021A28041A8004DE
:10EF60001A30041A40041A38041A48041A50041AB1
:10EF700058041A60041A68041A70041A7804D10438
:04EF80000090D0032A
:040000050002620192
:00000001FF
