Component: ARM Compiler 5.06 update 6 (build 750) Tool: armlink [4d35ed]

==============================================================================

Section Cross References

    main.o(i.assert_nrf_callback) refers to app_error_handler_keil.o(.emb_text) for app_error_handler
    main.o(i.at_command_handle) refers to strcmp.o(.text) for strcmp
    main.o(i.at_command_handle) refers to strncmp.o(.text) for strncmp
    main.o(i.at_command_handle) refers to strcpy.o(.text) for strcpy
    main.o(i.at_command_handle) refers to strcat.o(.text) for strcat
    main.o(i.at_command_handle) refers to main.o(.bss) for .bss
    main.o(i.at_command_handle) refers to main.o(.data) for .data
    main.o(i.at_command_handle) refers to main.o(.conststring) for .conststring
    main.o(i.at_command_handle) refers to main.o(.constdata) for .constdata
    main.o(i.ble_central_evt_handler) refers to ble_nus_c.o(i.ble_nus_c_handles_assign) for ble_nus_c_handles_assign
    main.o(i.ble_central_evt_handler) refers to app_error.o(i.app_error_handler_bare) for app_error_handler_bare
    main.o(i.ble_central_evt_handler) refers to bsp.o(i.bsp_indication_set) for bsp_indication_set
    main.o(i.ble_central_evt_handler) refers to ble_db_discovery.o(i.ble_db_discovery_start) for ble_db_discovery_start
    main.o(i.ble_central_evt_handler) refers to main.o(.bss) for .bss
    main.o(i.ble_central_evt_handler) refers to main.o(.data) for .data
    main.o(i.ble_evt_handler) refers to ble_conn_state.o(i.ble_conn_state_role) for ble_conn_state_role
    main.o(i.ble_evt_handler) refers to main.o(i.ble_central_evt_handler) for ble_central_evt_handler
    main.o(i.ble_evt_handler) refers to main.o(i.ble_peripheral_evt_handler) for ble_peripheral_evt_handler
==============================================================================

Removing Unused input sections from the image.

    Removing main.o(.rev16_text), (4 bytes).
    Removing main.o(.revsh_text), (4 bytes).
    Removing main.o(.rrx_text), (6 bytes).
    Removing main.o(i.assert_nrf_callback), (16 bytes).
    Removing main.o(i.at_command_handle), (1404 bytes).
    Removing main.o(i.get_tick_1ms), (12 bytes).
    Removing main.o(.conststring), (574 bytes).
    Removing boards.o(.rev16_text), (4 bytes).
    Removing boards.o(.revsh_text), (4 bytes).
    Removing boards.o(.rrx_text), (6 bytes).
    Removing boards.o(i.bsp_board_button_state_get), (32 bytes).
    Removing boards.o(i.bsp_board_init), (40 bytes).
    Removing boards.o(i.bsp_board_pin_to_button_idx), (36 bytes).
    Removing bsp.o(.rev16_text), (4 bytes).
    Removing bsp.o(.revsh_text), (4 bytes).
    Removing bsp.o(.rrx_text), (6 bytes).
    Removing bsp.o(i.bsp_button_event_handler), (144 bytes).
    Removing bsp.o(i.bsp_button_is_pressed), (12 bytes).
==============================================================================

Image Symbol Table

    Local Symbols

    Symbol Name                              Value     Ov Type        Size  Object(Section)

    ../clib/../cmprslib/zerorunl2.c          0x00000000   Number         0  __dczerorl2.o ABSOLUTE
    ../clib/microlib/division.c              0x00000000   Number         0  uidiv.o ABSOLUTE
    ../clib/microlib/division.c              0x00000000   Number         0  uldiv.o ABSOLUTE
    ../clib/microlib/init/entry.s            0x00000000   Number         0  entry10a.o ABSOLUTE
    ../clib/microlib/init/entry.s            0x00000000   Number         0  entry11b.o ABSOLUTE
    ../clib/microlib/init/entry.s            0x00000000   Number         0  entry5.o ABSOLUTE
    ../clib/microlib/init/entry.s            0x00000000   Number         0  entry2.o ABSOLUTE
    ../clib/microlib/init/entry.s            0x00000000   Number         0  entry.o ABSOLUTE
    ../clib/microlib/init/entry.s            0x00000000   Number         0  entry10b.o ABSOLUTE
    ../clib/microlib/init/entry.s            0x00000000   Number         0  entry8a.o ABSOLUTE
    ../clib/microlib/init/entry.s            0x00000000   Number         0  entry8b.o ABSOLUTE
    ../clib/microlib/init/entry.s            0x00000000   Number         0  entry7a.o ABSOLUTE
    ../clib/microlib/init/entry.s            0x00000000   Number         0  entry7b.o ABSOLUTE
    ../clib/microlib/init/entry.s            0x00000000   Number         0  entry11a.o ABSOLUTE
    ../clib/microlib/init/entry.s            0x00000000   Number         0  entry9a.o ABSOLUTE
    ../clib/microlib/init/entry.s            0x00000000   Number         0  entry9b.o ABSOLUTE
    ../clib/microlib/longlong.c              0x00000000   Number         0  llushr.o ABSOLUTE
    ../clib/microlib/longlong.c              0x00000000   Number         0  llsshr.o ABSOLUTE
    ../clib/microlib/longlong.c              0x00000000   Number         0  llshl.o ABSOLUTE
    ../clib/microlib/printf/printf.c         0x00000000   Number         0  printfb.o ABSOLUTE
    ../clib/microlib/printf/printf.c         0x00000000   Number         0  printf0.o ABSOLUTE
    ../clib/microlib/printf/printf.c         0x00000000   Number         0  printf4.o ABSOLUTE
    ../clib/microlib/printf/printf.c         0x00000000   Number         0  printf8.o ABSOLUTE
    ../clib/microlib/printf/printf.c         0x00000000   Number         0  printf7.o ABSOLUTE
    ../clib/microlib/printf/printf.c         0x00000000   Number         0  printf2.o ABSOLUTE
    ../clib/microlib/printf/printf.c         0x00000000   Number         0  printf6.o ABSOLUTE
    ../clib/microlib/printf/printf.c         0x00000000   Number         0  printf5.o ABSOLUTE
    ../clib/microlib/printf/printf.c         0x00000000   Number         0  printf3.o ABSOLUTE
    ../clib/microlib/printf/printf.c         0x00000000   Number         0  printfa.o ABSOLUTE
    ../clib/microlib/printf/printf.c         0x00000000   Number         0  printf1.o ABSOLUTE
    ../clib/microlib/printf/stubs.s          0x00000000   Number         0  stubs.o ABSOLUTE
    ../clib/microlib/string/memcmp.c         0x00000000   Number         0  memcmp.o ABSOLUTE
    ../clib/microlib/string/memcpy.c         0x00000000   Number         0  memcpya.o ABSOLUTE
    ../clib/microlib/string/memcpy.c         0x00000000   Number         0  memcpyb.o ABSOLUTE
    ../clib/microlib/string/memset.c         0x00000000   Number         0  memseta.o ABSOLUTE
    ../clib/microlib/string/strcat.c         0x00000000   Number         0  strcat.o ABSOLUTE
    ../clib/microlib/string/strcmp.c         0x00000000   Number         0  strcmp.o ABSOLUTE
    ../clib/microlib/string/strcpy.c         0x00000000   Number         0  strcpy.o ABSOLUTE
    ../clib/microlib/string/strlen.c         0x00000000   Number         0  strlen.o ABSOLUTE
    ../clib/microlib/string/strncmp.c        0x00000000   Number         0  strncmp.o ABSOLUTE
    ../clib/microlib/stubs.s                 0x00000000   Number         0  iusefp.o ABSOLUTE
    ../fplib/microlib/fpadd.c                0x00000000   Number         0  dadd.o ABSOLUTE
    ../fplib/microlib/fpdiv.c                0x00000000   Number         0  ddiv.o ABSOLUTE
    ../fplib/microlib/fpepilogue.c           0x00000000   Number         0  depilogue.o ABSOLUTE
    ../fplib/microlib/fpfix.c                0x00000000   Number         0  dfixul.o ABSOLUTE
    ../fplib/microlib/fpmul.c                0x00000000   Number         0  dmul.o ABSOLUTE
    ..\..\..\..\..\..\components\ble\ble_advertising\ble_advertising.c 0x00000000   Number         0  ble_advertising.o ABSOLUTE
    ..\..\..\..\..\..\components\ble\ble_db_discovery\ble_db_discovery.c 0x00000000   Number         0  ble_db_discovery.o ABSOLUTE
    ..\..\..\..\..\..\components\ble\ble_link_ctx_manager\ble_link_ctx_manager.c 0x00000000   Number         0  ble_link_ctx_manager.o ABSOLUTE
    ..\..\..\..\..\..\components\ble\common\ble_advdata.c 0x00000000   Number         0  ble_advdata.o ABSOLUTE
    ..\..\..\..\..\..\components\ble\common\ble_conn_params.c 0x00000000   Number         0  ble_conn_params.o ABSOLUTE
    ..\..\..\..\..\..\components\ble\common\ble_conn_state.c 0x00000000   Number         0  ble_conn_state.o ABSOLUTE
    ..\..\..\..\..\..\components\ble\common\ble_srv_common.c 0x00000000   Number         0  ble_srv_common.o ABSOLUTE
    ..\..\..\..\..\..\components\ble\nrf_ble_gatt\nrf_ble_gatt.c 0x00000000   Number         0  nrf_ble_gatt.o ABSOLUTE
    ..\..\..\..\..\..\components\ble\nrf_ble_gq\nrf_ble_gq.c 0x00000000   Number         0  nrf_ble_gq.o ABSOLUTE
    ..\..\..\..\..\..\components\ble\nrf_ble_qwr\nrf_ble_qwr.c 0x00000000   Number         0  nrf_ble_qwr.o ABSOLUTE
    ..\..\..\..\..\..\components\ble\nrf_ble_scan\nrf_ble_scan.c 0x00000000   Number         0  nrf_ble_scan.o ABSOLUTE
    ..\..\..\..\..\..\components\ble\peer_manager\auth_status_tracker.c 0x00000000   Number         0  auth_status_tracker.o ABSOLUTE
    ..\..\..\..\..\..\components\ble\peer_manager\gatt_cache_manager.c 0x00000000   Number         0  gatt_cache_manager.o ABSOLUTE
    ..\..\..\..\..\..\components\ble\peer_manager\gatts_cache_manager.c 0x00000000   Number         0  gatts_cache_manager.o ABSOLUTE
    ..\..\..\..\..\..\components\ble\peer_manager\id_manager.c 0x00000000   Number         0  id_manager.o ABSOLUTE
    ..\..\..\..\..\..\components\ble\peer_manager\nrf_ble_lesc.c 0x00000000   Number         0  nrf_ble_lesc.o ABSOLUTE
    ..\..\..\..\..\..\components\ble\peer_manager\peer_data_storage.c 0x00000000   Number         0  peer_data_storage.o ABSOLUTE
    ..\..\..\..\..\..\components\ble\peer_manager\peer_database.c 0x00000000   Number         0  peer_database.o ABSOLUTE
    ..\..\..\..\..\..\components\ble\peer_manager\peer_id.c 0x00000000   Number         0  peer_id.o ABSOLUTE
    ..\..\..\..\..\..\components\ble\peer_manager\peer_manager.c 0x00000000   Number         0  peer_manager.o ABSOLUTE
    ..\..\..\..\..\..\components\ble\peer_manager\peer_manager_handler.c 0x00000000   Number         0  peer_manager_handler.o ABSOLUTE
    ..\..\..\..\..\..\components\ble\peer_manager\pm_buffer.c 0x00000000   Number         0  pm_buffer.o ABSOLUTE
    ..\..\..\..\..\..\components\ble\peer_manager\security_dispatcher.c 0x00000000   Number         0  security_dispatcher.o ABSOLUTE
    ..\..\..\..\..\..\components\ble\peer_manager\security_manager.c 0x00000000   Number         0  security_manager.o ABSOLUTE
    ..\..\..\..\..\..\components\boards\boards.c 0x00000000   Number         0  boards.o ABSOLUTE
    ..\..\..\..\..\..\components\libraries\atomic\nrf_atomic.c 0x00000000   Number         0  nrf_atomic.o ABSOLUTE
    ..\..\..\..\..\..\components\libraries\atomic_fifo\nrf_atfifo.c 0x00000000   Number         0  nrf_atfifo.o ABSOLUTE
    ..\..\..\..\..\..\components\libraries\atomic_flags\nrf_atflags.c 0x00000000   Number         0  nrf_atflags.o ABSOLUTE
    ..\..\..\..\..\..\components\libraries\balloc\nrf_balloc.c 0x00000000   Number         0  nrf_balloc.o ABSOLUTE
    ..\..\..\..\..\..\components\libraries\bsp\bsp.c 0x00000000   Number         0  bsp.o ABSOLUTE
    ..\..\..\..\..\..\components\libraries\bsp\bsp_btn_ble.c 0x00000000   Number         0  bsp_btn_ble.o ABSOLUTE
    ..\..\..\..\..\..\components\libraries\button\app_button.c 0x00000000   Number         0  app_button.o ABSOLUTE
    ..\..\..\..\..\..\components\libraries\experimental_section_vars\nrf_section_iter.c 0x00000000   Number         0  nrf_section_iter.o ABSOLUTE
    ..\..\..\..\..\..\components\libraries\fds\fds.c 0x00000000   Number         0  fds.o ABSOLUTE
    ..\..\..\..\..\..\components\libraries\fifo\app_fifo.c 0x00000000   Number         0  app_fifo.o ABSOLUTE
    ..\..\..\..\..\..\components\libraries\fstorage\nrf_fstorage.c 0x00000000   Number         0  nrf_fstorage.o ABSOLUTE
    ..\..\..\..\..\..\components\libraries\fstorage\nrf_fstorage_sd.c 0x00000000   Number         0  nrf_fstorage_sd.o ABSOLUTE
    ..\..\..\..\..\..\components\libraries\hardfault\hardfault_implementation.c 0x00000000   Number         0  hardfault_implementation.o ABSOLUTE
    ..\..\..\..\..\..\components\libraries\log\src\nrf_log_backend_rtt.c 0x00000000   Number         0  nrf_log_backend_rtt.o ABSOLUTE
    ..\..\..\..\..\..\components\libraries\log\src\nrf_log_backend_serial.c 0x00000000   Number         0  nrf_log_backend_serial.o ABSOLUTE
    ..\..\..\..\..\..\components\libraries\log\src\nrf_log_default_backends.c 0x00000000   Number         0  nrf_log_default_backends.o ABSOLUTE
    ..\..\..\..\..\..\components\libraries\log\src\nrf_log_frontend.c 0x00000000   Number         0  nrf_log_frontend.o ABSOLUTE
    ..\..\..\..\..\..\components\libraries\log\src\nrf_log_str_formatter.c 0x00000000   Number         0  nrf_log_str_formatter.o ABSOLUTE
    ..\..\..\..\..\..\components\libraries\memobj\nrf_memobj.c 0x00000000   Number         0  nrf_memobj.o ABSOLUTE
    ..\..\..\..\..\..\components\libraries\pwr_mgmt\nrf_pwr_mgmt.c 0x00000000   Number         0  nrf_pwr_mgmt.o ABSOLUTE
    ..\..\..\..\..\..\components\libraries\queue\nrf_queue.c 0x00000000   Number         0  nrf_queue.o ABSOLUTE
    ..\..\..\..\..\..\components\libraries\ringbuf\nrf_ringbuf.c 0x00000000   Number         0  nrf_ringbuf.o ABSOLUTE
    ..\..\..\..\..\..\components\libraries\scheduler\app_scheduler.c 0x00000000   Number         0  app_scheduler.o ABSOLUTE
    ..\..\..\..\..\..\components\libraries\sortlist\nrf_sortlist.c 0x00000000   Number         0  nrf_sortlist.o ABSOLUTE
    ..\..\..\..\..\..\components\libraries\strerror\nrf_strerror.c 0x00000000   Number         0  nrf_strerror.o ABSOLUTE
    ..\..\..\..\..\..\components\libraries\timer\app_timer2.c 0x00000000   Number         0  app_timer2.o ABSOLUTE
    ..\..\..\..\..\..\components\libraries\timer\drv_rtc.c 0x00000000   Number         0  drv_rtc.o ABSOLUTE
    ..\..\..\..\..\..\components\libraries\uart\app_uart_fifo.c 0x00000000   Number         0  app_uart_fifo.o ABSOLUTE
    ..\..\..\..\..\..\components\libraries\uart\retarget.c 0x00000000   Number         0  retarget.o ABSOLUTE
    ..\..\..\..\..\..\components\libraries\util\app_error.c 0x00000000   Number         0  app_error.o ABSOLUTE
    ..\..\..\..\..\..\components\libraries\util\app_error_handler_keil.c 0x00000000   Number         0  app_error_handler_keil.o ABSOLUTE
    ..\..\..\..\..\..\components\libraries\util\app_error_weak.c 0x00000000   Number         0  app_error_weak.o ABSOLUTE
    ..\..\..\..\..\..\components\libraries\util\app_util_platform.c 0x00000000   Number         0  app_util_platform.o ABSOLUTE
    ..\..\..\..\..\..\components\libraries\util\nrf_assert.c 0x00000000   Number         0  nrf_assert.o ABSOLUTE
    ..\..\..\..\..\..\components\softdevice\common\nrf_sdh.c 0x00000000   Number         0  nrf_sdh.o ABSOLUTE
    ..\..\..\..\..\..\components\softdevice\common\nrf_sdh_ble.c 0x00000000   Number         0  nrf_sdh_ble.o ABSOLUTE
    ..\..\..\..\..\..\components\softdevice\common\nrf_sdh_soc.c 0x00000000   Number         0  nrf_sdh_soc.o ABSOLUTE
    ..\..\..\..\..\..\external\fprintf\nrf_fprintf.c 0x00000000   Number         0  nrf_fprintf.o ABSOLUTE
    ..\..\..\..\..\..\external\fprintf\nrf_fprintf_format.c 0x00000000   Number         0  nrf_fprintf_format.o ABSOLUTE
    ..\..\..\..\..\..\external\segger_rtt\SEGGER_RTT.c 0x00000000   Number         0  segger_rtt.o ABSOLUTE
    ..\..\..\..\..\..\external\segger_rtt\SEGGER_RTT_Syscalls_KEIL.c 0x00000000   Number         0  segger_rtt_syscalls_keil.o ABSOLUTE
    ..\..\..\..\..\..\external\segger_rtt\SEGGER_RTT_printf.c 0x00000000   Number         0  segger_rtt_printf.o ABSOLUTE
    ..\..\..\..\..\..\external\utf_converter\utf.c 0x00000000   Number         0  utf.o ABSOLUTE
    ..\..\..\..\..\..\integration\nrfx\legacy\nrf_drv_clock.c 0x00000000   Number         0  nrf_drv_clock.o ABSOLUTE
    ..\..\..\..\..\..\integration\nrfx\legacy\nrf_drv_uart.c 0x00000000   Number         0  nrf_drv_uart.o ABSOLUTE
    ..\..\..\..\..\..\modules\nrfx\drivers\src\nrfx_clock.c 0x00000000   Number         0  nrfx_clock.o ABSOLUTE
    ..\..\..\..\..\..\modules\nrfx\drivers\src\nrfx_gpiote.c 0x00000000   Number         0  nrfx_gpiote.o ABSOLUTE
    ..\..\..\..\..\..\modules\nrfx\drivers\src\nrfx_uart.c 0x00000000   Number         0  nrfx_uart.o ABSOLUTE
    ..\..\..\..\..\..\modules\nrfx\drivers\src\nrfx_uarte.c 0x00000000   Number         0  nrfx_uarte.o ABSOLUTE
    ..\..\..\..\..\..\modules\nrfx\drivers\src\prs\nrfx_prs.c 0x00000000   Number         0  nrfx_prs.o ABSOLUTE
    ..\..\..\..\..\..\modules\nrfx\soc\nrfx_atomic.c 0x00000000   Number         0  nrfx_atomic.o ABSOLUTE
    ..\..\..\ble_nus\ble_nus.c               0x00000000   Number         0  ble_nus.o ABSOLUTE
    ..\..\..\ble_nus_c\ble_nus_c.c           0x00000000   Number         0  ble_nus_c.o ABSOLUTE
    ..\..\..\main.c                          0x00000000   Number         0  main.o ABSOLUTE
    ..\\..\\..\\..\\..\\..\\components\\ble\\ble_advertising\\ble_advertising.c 0x00000000   Number         0  ble_advertising.o ABSOLUTE
    ..\\..\\..\\..\\..\\..\\components\\ble\\ble_db_discovery\\ble_db_discovery.c 0x00000000   Number         0  ble_db_discovery.o ABSOLUTE
    ..\\..\\..\\..\\..\\..\\components\\ble\\ble_link_ctx_manager\\ble_link_ctx_manager.c 0x00000000   Number         0  ble_link_ctx_manager.o ABSOLUTE
    ..\\..\\..\\..\\..\\..\\components\\ble\\common\\ble_advdata.c 0x00000000   Number         0  ble_advdata.o ABSOLUTE
    ..\\..\\..\\..\\..\\..\\components\\ble\\common\\ble_conn_params.c 0x00000000   Number         0  ble_conn_params.o ABSOLUTE
    ..\\..\\..\\..\\..\\..\\components\\ble\\common\\ble_conn_state.c 0x00000000   Number         0  ble_conn_state.o ABSOLUTE
    ..\\..\\..\\..\\..\\..\\components\\ble\\common\\ble_srv_common.c 0x00000000   Number         0  ble_srv_common.o ABSOLUTE
    ..\\..\\..\\..\\..\\..\\components\\ble\\nrf_ble_gatt\\nrf_ble_gatt.c 0x00000000   Number         0  nrf_ble_gatt.o ABSOLUTE
    ..\\..\\..\\..\\..\\..\\components\\ble\\nrf_ble_gq\\nrf_ble_gq.c 0x00000000   Number         0  nrf_ble_gq.o ABSOLUTE
    ..\\..\\..\\..\\..\\..\\components\\ble\\nrf_ble_qwr\\nrf_ble_qwr.c 0x00000000   Number         0  nrf_ble_qwr.o ABSOLUTE
    ..\\..\\..\\..\\..\\..\\components\\ble\\nrf_ble_scan\\nrf_ble_scan.c 0x00000000   Number         0  nrf_ble_scan.o ABSOLUTE
    ..\\..\\..\\..\\..\\..\\components\\ble\\peer_manager\\auth_status_tracker.c 0x00000000   Number         0  auth_status_tracker.o ABSOLUTE
    ..\\..\\..\\..\\..\\..\\components\\ble\\peer_manager\\gatt_cache_manager.c 0x00000000   Number         0  gatt_cache_manager.o ABSOLUTE
    ..\\..\\..\\..\\..\\..\\components\\ble\\peer_manager\\gatts_cache_manager.c 0x00000000   Number         0  gatts_cache_manager.o ABSOLUTE
    ..\\..\\..\\..\\..\\..\\components\\ble\\peer_manager\\id_manager.c 0x00000000   Number         0  id_manager.o ABSOLUTE
    ..\\..\\..\\..\\..\\..\\components\\ble\\peer_manager\\nrf_ble_lesc.c 0x00000000   Number         0  nrf_ble_lesc.o ABSOLUTE
    ..\\..\\..\\..\\..\\..\\components\\ble\\peer_manager\\peer_data_storage.c 0x00000000   Number         0  peer_data_storage.o ABSOLUTE
    ..\\..\\..\\..\\..\\..\\components\\ble\\peer_manager\\peer_database.c 0x00000000   Number         0  peer_database.o ABSOLUTE
    ..\\..\\..\\..\\..\\..\\components\\ble\\peer_manager\\peer_id.c 0x00000000   Number         0  peer_id.o ABSOLUTE
    ..\\..\\..\\..\\..\\..\\components\\ble\\peer_manager\\peer_manager.c 0x00000000   Number         0  peer_manager.o ABSOLUTE
    ..\\..\\..\\..\\..\\..\\components\\ble\\peer_manager\\peer_manager_handler.c 0x00000000   Number         0  peer_manager_handler.o ABSOLUTE
    ..\\..\\..\\..\\..\\..\\components\\ble\\peer_manager\\pm_buffer.c 0x00000000   Number         0  pm_buffer.o ABSOLUTE
    ..\\..\\..\\..\\..\\..\\components\\ble\\peer_manager\\security_dispatcher.c 0x00000000   Number         0  security_dispatcher.o ABSOLUTE
    ..\\..\\..\\..\\..\\..\\components\\ble\\peer_manager\\security_manager.c 0x00000000   Number         0  security_manager.o ABSOLUTE
    ..\\..\\..\\..\\..\\..\\components\\boards\\boards.c 0x00000000   Number         0  boards.o ABSOLUTE
    ..\\..\\..\\..\\..\\..\\components\\libraries\\atomic\\nrf_atomic.c 0x00000000   Number         0  nrf_atomic.o ABSOLUTE
    ..\\..\\..\\..\\..\\..\\components\\libraries\\atomic_fifo\\nrf_atfifo.c 0x00000000   Number         0  nrf_atfifo.o ABSOLUTE
    ..\\..\\..\\..\\..\\..\\components\\libraries\\atomic_flags\\nrf_atflags.c 0x00000000   Number         0  nrf_atflags.o ABSOLUTE
    ..\\..\\..\\..\\..\\..\\components\\libraries\\balloc\\nrf_balloc.c 0x00000000   Number         0  nrf_balloc.o ABSOLUTE
    ..\\..\\..\\..\\..\\..\\components\\libraries\\bsp\\bsp.c 0x00000000   Number         0  bsp.o ABSOLUTE
    ..\\..\\..\\..\\..\\..\\components\\libraries\\bsp\\bsp_btn_ble.c 0x00000000   Number         0  bsp_btn_ble.o ABSOLUTE
    ..\\..\\..\\..\\..\\..\\components\\libraries\\button\\app_button.c 0x00000000   Number         0  app_button.o ABSOLUTE
    ..\\..\\..\\..\\..\\..\\components\\libraries\\experimental_section_vars\\nrf_section_iter.c 0x00000000   Number         0  nrf_section_iter.o ABSOLUTE
    ..\\..\\..\\..\\..\\..\\components\\libraries\\fds\\fds.c 0x00000000   Number         0  fds.o ABSOLUTE
    ..\\..\\..\\..\\..\\..\\components\\libraries\\fifo\\app_fifo.c 0x00000000   Number         0  app_fifo.o ABSOLUTE
    ..\\..\\..\\..\\..\\..\\components\\libraries\\fstorage\\nrf_fstorage.c 0x00000000   Number         0  nrf_fstorage.o ABSOLUTE
    ..\\..\\..\\..\\..\\..\\components\\libraries\\fstorage\\nrf_fstorage_sd.c 0x00000000   Number         0  nrf_fstorage_sd.o ABSOLUTE
    ..\\..\\..\\..\\..\\..\\components\\libraries\\hardfault\\hardfault_implementation.c 0x00000000   Number         0  hardfault_implementation.o ABSOLUTE
    ..\\..\\..\\..\\..\\..\\components\\libraries\\log\\src\\nrf_log_backend_rtt.c 0x00000000   Number         0  nrf_log_backend_rtt.o ABSOLUTE
    ..\\..\\..\\..\\..\\..\\components\\libraries\\log\\src\\nrf_log_backend_serial.c 0x00000000   Number         0  nrf_log_backend_serial.o ABSOLUTE
    ..\\..\\..\\..\\..\\..\\components\\libraries\\log\\src\\nrf_log_default_backends.c 0x00000000   Number         0  nrf_log_default_backends.o ABSOLUTE
    ..\\..\\..\\..\\..\\..\\components\\libraries\\log\\src\\nrf_log_frontend.c 0x00000000   Number         0  nrf_log_frontend.o ABSOLUTE
    ..\\..\\..\\..\\..\\..\\components\\libraries\\log\\src\\nrf_log_str_formatter.c 0x00000000   Number         0  nrf_log_str_formatter.o ABSOLUTE
    ..\\..\\..\\..\\..\\..\\components\\libraries\\memobj\\nrf_memobj.c 0x00000000   Number         0  nrf_memobj.o ABSOLUTE
    ..\\..\\..\\..\\..\\..\\components\\libraries\\pwr_mgmt\\nrf_pwr_mgmt.c 0x00000000   Number         0  nrf_pwr_mgmt.o ABSOLUTE
    ..\\..\\..\\..\\..\\..\\components\\libraries\\queue\\nrf_queue.c 0x00000000   Number         0  nrf_queue.o ABSOLUTE
    ..\\..\\..\\..\\..\\..\\components\\libraries\\ringbuf\\nrf_ringbuf.c 0x00000000   Number         0  nrf_ringbuf.o ABSOLUTE
    ..\\..\\..\\..\\..\\..\\components\\libraries\\scheduler\\app_scheduler.c 0x00000000   Number         0  app_scheduler.o ABSOLUTE
    ..\\..\\..\\..\\..\\..\\components\\libraries\\sortlist\\nrf_sortlist.c 0x00000000   Number         0  nrf_sortlist.o ABSOLUTE
    ..\\..\\..\\..\\..\\..\\components\\libraries\\strerror\\nrf_strerror.c 0x00000000   Number         0  nrf_strerror.o ABSOLUTE
    ..\\..\\..\\..\\..\\..\\components\\libraries\\timer\\app_timer2.c 0x00000000   Number         0  app_timer2.o ABSOLUTE
    ..\\..\\..\\..\\..\\..\\components\\libraries\\timer\\drv_rtc.c 0x00000000   Number         0  drv_rtc.o ABSOLUTE
    ..\\..\\..\\..\\..\\..\\components\\libraries\\uart\\app_uart_fifo.c 0x00000000   Number         0  app_uart_fifo.o ABSOLUTE
    ..\\..\\..\\..\\..\\..\\components\\libraries\\uart\\retarget.c 0x00000000   Number         0  retarget.o ABSOLUTE
    ..\\..\\..\\..\\..\\..\\components\\libraries\\util\\app_error.c 0x00000000   Number         0  app_error.o ABSOLUTE
    ..\\..\\..\\..\\..\\..\\components\\libraries\\util\\app_error_handler_keil.c 0x00000000   Number         0  app_error_handler_keil.o ABSOLUTE
    ..\\..\\..\\..\\..\\..\\components\\libraries\\util\\app_error_weak.c 0x00000000   Number         0  app_error_weak.o ABSOLUTE
    ..\\..\\..\\..\\..\\..\\components\\libraries\\util\\app_util_platform.c 0x00000000   Number         0  app_util_platform.o ABSOLUTE
    ..\\..\\..\\..\\..\\..\\components\\libraries\\util\\nrf_assert.c 0x00000000   Number         0  nrf_assert.o ABSOLUTE
    ..\\..\\..\\..\\..\\..\\components\\softdevice\\common\\nrf_sdh.c 0x00000000   Number         0  nrf_sdh.o ABSOLUTE
    ..\\..\\..\\..\\..\\..\\components\\softdevice\\common\\nrf_sdh_ble.c 0x00000000   Number         0  nrf_sdh_ble.o ABSOLUTE
    ..\\..\\..\\..\\..\\..\\components\\softdevice\\common\\nrf_sdh_soc.c 0x00000000   Number         0  nrf_sdh_soc.o ABSOLUTE
    ..\\..\\..\\..\\..\\..\\external\\fprintf\\nrf_fprintf.c 0x00000000   Number         0  nrf_fprintf.o ABSOLUTE
    ..\\..\\..\\..\\..\\..\\external\\fprintf\\nrf_fprintf_format.c 0x00000000   Number         0  nrf_fprintf_format.o ABSOLUTE
    ..\\..\\..\\..\\..\\..\\external\\segger_rtt\\SEGGER_RTT.c 0x00000000   Number         0  segger_rtt.o ABSOLUTE
    ..\\..\\..\\..\\..\\..\\external\\segger_rtt\\SEGGER_RTT_printf.c 0x00000000   Number         0  segger_rtt_printf.o ABSOLUTE
    ..\\..\\..\\..\\..\\..\\integration\\nrfx\\legacy\\nrf_drv_clock.c 0x00000000   Number         0  nrf_drv_clock.o ABSOLUTE
    ..\\..\\..\\..\\..\\..\\integration\\nrfx\\legacy\\nrf_drv_uart.c 0x00000000   Number         0  nrf_drv_uart.o ABSOLUTE
    ..\\..\\..\\..\\..\\..\\modules\\nrfx\\drivers\\src\\nrfx_clock.c 0x00000000   Number         0  nrfx_clock.o ABSOLUTE
    ..\\..\\..\\..\\..\\..\\modules\\nrfx\\drivers\\src\\nrfx_gpiote.c 0x00000000   Number         0  nrfx_gpiote.o ABSOLUTE
    ..\\..\\..\\..\\..\\..\\modules\\nrfx\\drivers\\src\\nrfx_uart.c 0x00000000   Number         0  nrfx_uart.o ABSOLUTE
    ..\\..\\..\\..\\..\\..\\modules\\nrfx\\drivers\\src\\nrfx_uarte.c 0x00000000   Number         0  nrfx_uarte.o ABSOLUTE
    ..\\..\\..\\..\\..\\..\\modules\\nrfx\\drivers\\src\\prs\\nrfx_prs.c 0x00000000   Number         0  nrfx_prs.o ABSOLUTE
    ..\\..\\..\\..\\..\\..\\modules\\nrfx\\soc\\nrfx_atomic.c 0x00000000   Number         0  nrfx_atomic.o ABSOLUTE
    ..\\..\\..\\ble_nus\\ble_nus.c           0x00000000   Number         0  ble_nus.o ABSOLUTE
    ..\\..\\..\\ble_nus_c\\ble_nus_c.c       0x00000000   Number         0  ble_nus_c.o ABSOLUTE
    ..\\..\\..\\main.c                       0x00000000   Number         0  main.o ABSOLUTE
    RTE\Device\nRF52805_xxAA\arm_startup_nrf52805.s 0x00000000   Number         0  arm_startup_nrf52805.o ABSOLUTE
    RTE\Device\nRF52805_xxAA\system_nrf52.c  0x00000000   Number         0  system_nrf52.o ABSOLUTE
    RTE\\Device\\nRF52805_xxAA\\system_nrf52.c 0x00000000   Number         0  system_nrf52.o ABSOLUTE
    cdrcmple.s                               0x00000000   Number         0  cdrcmple.o ABSOLUTE
    dc.s                                     0x00000000   Number         0  dc.o ABSOLUTE
    handlers.s                               0x00000000   Number         0  handlers.o ABSOLUTE
    init.s                                   0x00000000   Number         0  init.o ABSOLUTE
    RESET                                    0x00026000   Section      512  arm_startup_nrf52805.o(RESET)
    .ARM.Collect$$$$00000000                 0x00026200   Section        0  entry.o(.ARM.Collect$$$$00000000)
    .ARM.Collect$$$$00000001                 0x00026200   Section        4  entry2.o(.ARM.Collect$$$$00000001)
    .ARM.Collect$$$$00000004                 0x00026204   Section        4  entry5.o(.ARM.Collect$$$$00000004)
    .ARM.Collect$$$$00000008                 0x00026208   Section        0  entry7b.o(.ARM.Collect$$$$00000008)
    .ARM.Collect$$$$0000000A                 0x00026208   Section        0  entry8b.o(.ARM.Collect$$$$0000000A)
    .ARM.Collect$$$$0000000B                 0x00026208   Section        8  entry9a.o(.ARM.Collect$$$$0000000B)
    .ARM.Collect$$$$0000000D                 0x00026210   Section        0  entry10a.o(.ARM.Collect$$$$0000000D)
    .ARM.Collect$$$$0000000F                 0x00026210   Section        0  entry11a.o(.ARM.Collect$$$$0000000F)
    .ARM.Collect$$$$00002712                 0x00026210   Section        4  entry2.o(.ARM.Collect$$$$00002712)
    __lit__00000000                          0x00026210   Data           4  entry2.o(.ARM.Collect$$$$00002712)
    .emb_text                                0x00026214   Section      200  nrf_atfifo.o(.emb_text)
    .emb_text                                0x000262dc   Section      226  nrf_atomic.o(.emb_text)
    .text                                    0x000263c0   Section       36  arm_startup_nrf52805.o(.text)
    .text                                    0x000263e4   Section        0  llshl.o(.text)
    .text                                    0x00026402   Section        0  memcpya.o(.text)
    .text                                    0x00026426   Section        0  memseta.o(.text)
    .text                                    0x0002644a   Section        0  strlen.o(.text)
    .text                                    0x00026458   Section        0  strcmp.o(.text)
    .text                                    0x00026474   Section        0  memcmp.o(.text)
    .text                                    0x0002648e   Section        0  uldiv.o(.text)
    .text                                    0x000264f0   Section       36  init.o(.text)
    .text                                    0x00026514   Section        0  llushr.o(.text)
    .text                                    0x00026534   Section        0  __dczerorl2.o(.text)
    i.GPIOTE_IRQHandler                      0x0002658c   Section        0  nrfx_gpiote.o(i.GPIOTE_IRQHandler)
    i.POWER_CLOCK_IRQHandler                 0x00026630   Section        0  nrfx_clock.o(i.POWER_CLOCK_IRQHandler)
    i.RTC1_IRQHandler                        0x00026680   Section        0  drv_rtc.o(i.RTC1_IRQHandler)
    i.SWI2_IRQHandler                        0x00026690   Section        0  nrf_sdh.o(i.SWI2_IRQHandler)
    i.SystemInit                             0x00026694   Section        0  system_nrf52.o(i.SystemInit)
    i.UARTE0_UART0_IRQHandler                0x00026918   Section        0  nrfx_prs.o(i.UARTE0_UART0_IRQHandler)
    i.__0printf$8                            0x00026924   Section        0  printf8.o(i.__0printf$8)
    i.__scatterload_copy                     0x00026944   Section       14  handlers.o(i.__scatterload_copy)
    i.__scatterload_null                     0x00026952   Section        2  handlers.o(i.__scatterload_null)
    i.__scatterload_zeroinit                 0x00026954   Section       14  handlers.o(i.__scatterload_zeroinit)
    i.__sd_nvic_app_accessible_irq           0x00026964   Section        0  nrf_sdh.o(i.__sd_nvic_app_accessible_irq)
    __sd_nvic_app_accessible_irq             0x00026965   Thumb Code    32  nrf_sdh.o(i.__sd_nvic_app_accessible_irq)
    i._printf_core                           0x00026988   Section        0  printf8.o(i._printf_core)
    _printf_core                             0x00026989   Thumb Code   996  printf8.o(i._printf_core)
    i._printf_post_padding                   0x00026d98   Section        0  printf8.o(i._printf_post_padding)
    _printf_post_padding                     0x00026d99   Thumb Code    36  printf8.o(i._printf_post_padding)
    i._printf_pre_padding                    0x00026dbc   Section        0  printf8.o(i._printf_pre_padding)
    _printf_pre_padding                      0x00026dbd   Thumb Code    46  printf8.o(i._printf_pre_padding)
    i.addr_compare                           0x00026dea   Section        0  id_manager.o(i.addr_compare)
    i.addr_is_aligned32                      0x00026e10   Section        0  nrf_fstorage.o(i.addr_is_aligned32)
    addr_is_aligned32                        0x00026e11   Thumb Code    12  nrf_fstorage.o(i.addr_is_aligned32)
    i.addr_is_within_bounds                  0x00026e1c   Section        0  nrf_fstorage.o(i.addr_is_within_bounds)
    addr_is_within_bounds                    0x00026e1d   Thumb Code    24  nrf_fstorage.o(i.addr_is_within_bounds)
    i.adv_set_data_size_max_get              0x00026e34   Section        0  ble_advertising.o(i.adv_set_data_size_max_get)
    adv_set_data_size_max_get                0x00026e35   Thumb Code    16  ble_advertising.o(i.adv_set_data_size_max_get)
    i.advertising_buttons_configure          0x00026e44   Section        0  bsp_btn_ble.o(i.advertising_buttons_configure)
    advertising_buttons_configure            0x00026e45   Thumb Code    54  bsp_btn_ble.o(i.advertising_buttons_configure)
    i.ah                                     0x00026e7a   Section        0  id_manager.o(i.ah)
    i.allow_repairing                        0x00026ecc   Section        0  security_dispatcher.o(i.allow_repairing)
    allow_repairing                          0x00026ecd   Thumb Code     8  security_dispatcher.o(i.allow_repairing)
    i.app_error_fault_handler                0x00026ed8   Section        0  app_error_weak.o(i.app_error_fault_handler)
    i.app_error_handler_bare                 0x00026f08   Section        0  app_error.o(i.app_error_handler_bare)
    i.app_fifo_get                           0x00026f1e   Section        0  app_fifo.o(i.app_fifo_get)
    i.app_fifo_init                          0x00026f34   Section        0  app_fifo.o(i.app_fifo_init)
    i.app_fifo_put                           0x00026f54   Section        0  app_fifo.o(i.app_fifo_put)
    i.app_timer_cnt_get                      0x00026f70   Section        0  app_timer2.o(i.app_timer_cnt_get)
    i.app_timer_create                       0x00026f7c   Section        0  app_timer2.o(i.app_timer_create)
    i.app_timer_init                         0x00026f94   Section        0  app_timer2.o(i.app_timer_init)
    i.app_timer_start                        0x00026ff0   Section        0  app_timer2.o(i.app_timer_start)
    i.app_timer_stop                         0x00027020   Section        0  app_timer2.o(i.app_timer_stop)
    i.app_uart_get                           0x0002702c   Section        0  app_uart_fifo.o(i.app_uart_get)
    i.app_uart_init                          0x00027060   Section        0  app_uart_fifo.o(i.app_uart_init)
    i.app_uart_put                           0x00027104   Section        0  app_uart_fifo.o(i.app_uart_put)
    i.app_util_critical_region_enter         0x00027158   Section        0  app_util_platform.o(i.app_util_critical_region_enter)
    i.app_util_critical_region_exit          0x000271a0   Section        0  app_util_platform.o(i.app_util_critical_region_exit)
    i.apply_config                           0x000271d4   Section        0  nrfx_uart.o(i.apply_config)
    apply_config                             0x000271d5   Thumb Code   136  nrfx_uart.o(i.apply_config)
    i.apply_config                           0x0002725c   Section        0  nrfx_uarte.o(i.apply_config)
    apply_config                             0x0002725d   Thumb Code   136  nrfx_uarte.o(i.apply_config)
    i.apply_pending_handle                   0x000272e4   Section        0  gatt_cache_manager.o(i.apply_pending_handle)
    apply_pending_handle                     0x000272e5   Thumb Code     4  gatt_cache_manager.o(i.apply_pending_handle)
    i.auth_status_success_process            0x000272e8   Section        0  security_dispatcher.o(i.auth_status_success_process)
    auth_status_success_process              0x000272e9   Thumb Code   236  security_dispatcher.o(i.auth_status_success_process)
    i.blcm_link_ctx_get                      0x000273dc   Section        0  ble_link_ctx_manager.o(i.blcm_link_ctx_get)
    i.ble_advdata_encode                     0x00027424   Section        0  ble_advdata.o(i.ble_advdata_encode)
    i.ble_advdata_name_find                  0x000275a6   Section        0  ble_advdata.o(i.ble_advdata_name_find)
    i.ble_advdata_parse                      0x000275ea   Section        0  ble_advdata.o(i.ble_advdata_parse)
    i.ble_advdata_search                     0x0002760a   Section        0  ble_advdata.o(i.ble_advdata_search)
    i.ble_advdata_uuid_find                  0x00027650   Section        0  ble_advdata.o(i.ble_advdata_uuid_find)
    i.ble_advertising_conn_cfg_tag_set       0x00027706   Section        0  ble_advertising.o(i.ble_advertising_conn_cfg_tag_set)
    i.ble_advertising_init                   0x0002770c   Section        0  ble_advertising.o(i.ble_advertising_init)
    i.ble_advertising_on_ble_evt             0x00027804   Section        0  ble_advertising.o(i.ble_advertising_on_ble_evt)
    i.ble_advertising_start                  0x0002786e   Section        0  ble_advertising.o(i.ble_advertising_start)
    i.ble_central_evt_handler                0x00027aa0   Section        0  main.o(i.ble_central_evt_handler)
    ble_central_evt_handler                  0x00027aa1   Thumb Code   142  main.o(i.ble_central_evt_handler)
    i.ble_conn_params_init                   0x00027b38   Section        0  ble_conn_params.o(i.ble_conn_params_init)
    i.ble_conn_state_conn_idx                0x00027ba0   Section        0  ble_conn_state.o(i.ble_conn_state_conn_idx)
    i.ble_conn_state_encrypted               0x00027bb4   Section        0  ble_conn_state.o(i.ble_conn_state_encrypted)
    i.ble_conn_state_for_each_set_user_flag  0x00027bd4   Section        0  ble_conn_state.o(i.ble_conn_state_for_each_set_user_flag)
    i.ble_conn_state_lesc                    0x00027c00   Section        0  ble_conn_state.o(i.ble_conn_state_lesc)
    i.ble_conn_state_mitm_protected          0x00027c20   Section        0  ble_conn_state.o(i.ble_conn_state_mitm_protected)
    i.ble_conn_state_role                    0x00027c40   Section        0  ble_conn_state.o(i.ble_conn_state_role)
    i.ble_conn_state_status                  0x00027c64   Section        0  ble_conn_state.o(i.ble_conn_state_status)
    i.ble_conn_state_user_flag_get           0x00027c88   Section        0  ble_conn_state.o(i.ble_conn_state_user_flag_get)
    i.ble_conn_state_user_flag_set           0x00027cb8   Section        0  ble_conn_state.o(i.ble_conn_state_user_flag_set)
    i.ble_conn_state_valid                   0x00027cf0   Section        0  ble_conn_state.o(i.ble_conn_state_valid)
    i.ble_db_discovery_evt_register          0x00027d04   Section        0  ble_db_discovery.o(i.ble_db_discovery_evt_register)
    i.ble_db_discovery_init                  0x00027d44   Section        0  ble_db_discovery.o(i.ble_db_discovery_init)
    i.ble_db_discovery_on_ble_evt            0x00027d68   Section        0  ble_db_discovery.o(i.ble_db_discovery_on_ble_evt)
    i.ble_db_discovery_start                 0x00027dc4   Section        0  ble_db_discovery.o(i.ble_db_discovery_start)
    i.ble_device_addr_encode                 0x00027dec   Section        0  ble_advdata.o(i.ble_device_addr_encode)
    ble_device_addr_encode                   0x00027ded   Thumb Code    96  ble_advdata.o(i.ble_device_addr_encode)
    i.ble_evt_handler                        0x00027e4c   Section        0  main.o(i.ble_evt_handler)
    ble_evt_handler                          0x00027e4d   Thumb Code    56  main.o(i.ble_evt_handler)
    i.ble_evt_handler                        0x00027e84   Section        0  bsp_btn_ble.o(i.ble_evt_handler)
    ble_evt_handler                          0x00027e85   Thumb Code   106  bsp_btn_ble.o(i.ble_evt_handler)
    i.ble_evt_handler                        0x00027ef4   Section        0  ble_conn_params.o(i.ble_evt_handler)
    ble_evt_handler                          0x00027ef5   Thumb Code   242  ble_conn_params.o(i.ble_evt_handler)
    i.ble_evt_handler                        0x00027ff0   Section        0  ble_conn_state.o(i.ble_evt_handler)
    ble_evt_handler                          0x00027ff1   Thumb Code   274  ble_conn_state.o(i.ble_evt_handler)
    i.ble_evt_handler                        0x00028108   Section        0  peer_manager.o(i.ble_evt_handler)
    ble_evt_handler                          0x00028109   Thumb Code    36  peer_manager.o(i.ble_evt_handler)
    i.ble_nus_c_evt_handler                  0x00028130   Section        0  main.o(i.ble_nus_c_evt_handler)
    ble_nus_c_evt_handler                    0x00028131   Thumb Code   114  main.o(i.ble_nus_c_evt_handler)
    i.ble_nus_c_handles_assign               0x000281a2   Section        0  ble_nus_c.o(i.ble_nus_c_handles_assign)
    i.ble_nus_c_init                         0x000281c0   Section        0  ble_nus_c.o(i.ble_nus_c_init)
    i.ble_nus_c_on_ble_evt                   0x0002821c   Section        0  ble_nus_c.o(i.ble_nus_c_on_ble_evt)
    i.ble_nus_c_on_db_disc_evt               0x00028286   Section        0  ble_nus_c.o(i.ble_nus_c_on_db_disc_evt)
    i.ble_nus_c_string_send                  0x00028310   Section        0  ble_nus_c.o(i.ble_nus_c_string_send)
    i.ble_nus_c_tx_notif_enable              0x00028378   Section        0  ble_nus_c.o(i.ble_nus_c_tx_notif_enable)
    i.ble_nus_data_send                      0x000283e4   Section        0  ble_nus.o(i.ble_nus_data_send)
    i.ble_nus_init                           0x0002844c   Section        0  ble_nus.o(i.ble_nus_init)
    i.ble_nus_on_ble_evt                     0x00028528   Section        0  ble_nus.o(i.ble_nus_on_ble_evt)
    i.ble_peripheral_evt_handler             0x000285a0   Section        0  main.o(i.ble_peripheral_evt_handler)
    ble_peripheral_evt_handler               0x000285a1   Thumb Code   138  main.o(i.ble_peripheral_evt_handler)
    i.ble_srv_is_notification_enabled        0x00028634   Section        0  ble_srv_common.o(i.ble_srv_is_notification_enabled)
    i.bsp_board_button_idx_to_pin            0x0002863c   Section        0  boards.o(i.bsp_board_button_idx_to_pin)
    i.bsp_btn_ble_sleep_mode_prepare         0x00028648   Section        0  bsp_btn_ble.o(i.bsp_btn_ble_sleep_mode_prepare)
    i.bsp_event_to_button_action_assign      0x00028668   Section        0  bsp.o(i.bsp_event_to_button_action_assign)
    i.bsp_indication_set                     0x000286ac   Section        0  bsp.o(i.bsp_indication_set)
    i.bsp_wakeup_button_enable               0x000286b0   Section        0  bsp.o(i.bsp_wakeup_button_enable)
    i.car_update_needed                      0x000286b8   Section        0  gatt_cache_manager.o(i.car_update_needed)
    car_update_needed                        0x000286b9   Thumb Code    36  gatt_cache_manager.o(i.car_update_needed)
    i.car_update_pending_handle              0x000286e0   Section        0  gatt_cache_manager.o(i.car_update_pending_handle)
    car_update_pending_handle                0x000286e1   Thumb Code    54  gatt_cache_manager.o(i.car_update_pending_handle)
    i.channel_port_get                       0x00028720   Section        0  nrfx_gpiote.o(i.channel_port_get)
    channel_port_get                         0x00028721   Thumb Code    10  nrfx_gpiote.o(i.channel_port_get)
    i.characteristic_add                     0x00028730   Section        0  ble_srv_common.o(i.characteristic_add)
    i.characteristics_discover               0x000288c0   Section        0  ble_db_discovery.o(i.characteristics_discover)
    characteristics_discover                 0x000288c1   Thumb Code   100  ble_db_discovery.o(i.characteristics_discover)
    i.claim                                  0x0002892c   Section        0  peer_id.o(i.claim)
    claim                                    0x0002892d   Thumb Code    62  peer_id.o(i.claim)
    i.clock_clk_started_notify               0x0002896c   Section        0  nrf_drv_clock.o(i.clock_clk_started_notify)
    clock_clk_started_notify                 0x0002896d   Thumb Code    34  nrf_drv_clock.o(i.clock_clk_started_notify)
    i.clock_irq_handler                      0x00028994   Section        0  nrf_drv_clock.o(i.clock_irq_handler)
    clock_irq_handler                        0x00028995   Thumb Code    24  nrf_drv_clock.o(i.clock_irq_handler)
    i.compare_func                           0x000289b0   Section        0  app_timer2.o(i.compare_func)
    compare_func                             0x000289b1   Thumb Code    24  app_timer2.o(i.compare_func)
    i.conn_handle_id_find                    0x000289c8   Section        0  nrf_ble_gq.o(i.conn_handle_id_find)
    conn_handle_id_find                      0x000289c9   Thumb Code    30  nrf_ble_gq.o(i.conn_handle_id_find)
    i.conn_handle_list_get                   0x000289e6   Section        0  ble_conn_state.o(i.conn_handle_list_get)
    i.conn_int_encode                        0x00028a24   Section        0  ble_advdata.o(i.conn_int_encode)
    conn_int_encode                          0x00028a25   Thumb Code   136  ble_advdata.o(i.conn_int_encode)
    i.conn_params_error_handler              0x00028aac   Section        0  main.o(i.conn_params_error_handler)
    conn_params_error_handler                0x00028aad   Thumb Code     4  main.o(i.conn_params_error_handler)
    i.conn_params_negotiation                0x00028ab0   Section        0  ble_conn_params.o(i.conn_params_negotiation)
    conn_params_negotiation                  0x00028ab1   Thumb Code    68  ble_conn_params.o(i.conn_params_negotiation)
    i.conn_sec_failure                       0x00028af8   Section        0  security_dispatcher.o(i.conn_sec_failure)
    conn_sec_failure                         0x00028af9   Thumb Code    60  security_dispatcher.o(i.conn_sec_failure)
    i.data_length_update                     0x00028b3c   Section        0  nrf_ble_gatt.o(i.data_length_update)
    data_length_update                       0x00028b3d   Thumb Code    30  nrf_ble_gatt.o(i.data_length_update)
    i.db_disc_handler                        0x00028b5c   Section        0  main.o(i.db_disc_handler)
    db_disc_handler                          0x00028b5d   Thumb Code     8  main.o(i.db_disc_handler)
    i.db_update_pending_handle               0x00028b68   Section        0  gatt_cache_manager.o(i.db_update_pending_handle)
    db_update_pending_handle                 0x00028b69   Thumb Code   118  gatt_cache_manager.o(i.db_update_pending_handle)
    i.delete_execute                         0x00028be8   Section        0  fds.o(i.delete_execute)
    delete_execute                           0x00028be9   Thumb Code   134  fds.o(i.delete_execute)
    i.descriptors_discover                   0x00028c74   Section        0  ble_db_discovery.o(i.descriptors_discover)
    descriptors_discover                     0x00028c75   Thumb Code   174  ble_db_discovery.o(i.descriptors_discover)
    i.discovery_available_evt_trigger        0x00028d2c   Section        0  ble_db_discovery.o(i.discovery_available_evt_trigger)
    discovery_available_evt_trigger          0x00028d2d   Thumb Code    44  ble_db_discovery.o(i.discovery_available_evt_trigger)
    i.discovery_complete_evt_trigger         0x00028d5c   Section        0  ble_db_discovery.o(i.discovery_complete_evt_trigger)
    discovery_complete_evt_trigger           0x00028d5d   Thumb Code   174  ble_db_discovery.o(i.discovery_complete_evt_trigger)
    i.discovery_error_handler                0x00028e10   Section        0  ble_db_discovery.o(i.discovery_error_handler)
    discovery_error_handler                  0x00028e11   Thumb Code    74  ble_db_discovery.o(i.discovery_error_handler)
    i.discovery_start                        0x00028e60   Section        0  ble_db_discovery.o(i.discovery_start)
    discovery_start                          0x00028e61   Thumb Code   110  ble_db_discovery.o(i.discovery_start)
    i.drv_rtc_compare_disable                0x00028edc   Section        0  drv_rtc.o(i.drv_rtc_compare_disable)
    i.drv_rtc_compare_pending                0x00028ef0   Section        0  drv_rtc.o(i.drv_rtc_compare_pending)
    i.drv_rtc_compare_set                    0x00028efe   Section        0  drv_rtc.o(i.drv_rtc_compare_set)
    i.drv_rtc_counter_get                    0x00028f4e   Section        0  drv_rtc.o(i.drv_rtc_counter_get)
    i.drv_rtc_init                           0x00028f58   Section        0  drv_rtc.o(i.drv_rtc_init)
    i.drv_rtc_irq_trigger                    0x00028fd4   Section        0  drv_rtc.o(i.drv_rtc_irq_trigger)
    i.drv_rtc_overflow_enable                0x00028ff2   Section        0  drv_rtc.o(i.drv_rtc_overflow_enable)
    i.drv_rtc_overflow_pending               0x00028ffa   Section        0  drv_rtc.o(i.drv_rtc_overflow_pending)
    i.drv_rtc_start                          0x00029002   Section        0  drv_rtc.o(i.drv_rtc_start)
    i.drv_rtc_stop                           0x0002900a   Section        0  drv_rtc.o(i.drv_rtc_stop)
    i.drv_rtc_windowed_compare_set           0x00029012   Section        0  drv_rtc.o(i.drv_rtc_windowed_compare_set)
    i.encryption_failure                     0x000290f0   Section        0  security_dispatcher.o(i.encryption_failure)
    encryption_failure                       0x000290f1   Thumb Code    10  security_dispatcher.o(i.encryption_failure)
    i.event_prepare                          0x000290fa   Section        0  fds.o(i.event_prepare)
    event_prepare                            0x000290fb   Thumb Code   116  fds.o(i.event_prepare)
    i.event_send                             0x00029170   Section        0  fds.o(i.event_send)
    event_send                               0x00029171   Thumb Code    26  fds.o(i.event_send)
    i.event_send                             0x00029190   Section        0  nrf_fstorage_sd.o(i.event_send)
    event_send                               0x00029191   Thumb Code    84  nrf_fstorage_sd.o(i.event_send)
    i.events_send_from_err_code              0x000291e4   Section        0  security_manager.o(i.events_send_from_err_code)
    events_send_from_err_code                0x000291e5   Thumb Code    88  security_manager.o(i.events_send_from_err_code)
    i.evt_enable                             0x0002923c   Section        0  drv_rtc.o(i.evt_enable)
    evt_enable                               0x0002923d   Thumb Code    18  drv_rtc.o(i.evt_enable)
    i.evt_pending                            0x0002924e   Section        0  drv_rtc.o(i.evt_pending)
    evt_pending                              0x0002924f   Thumb Code    20  drv_rtc.o(i.evt_pending)
    i.evt_send                               0x00029264   Section        0  gatt_cache_manager.o(i.evt_send)
    evt_send                                 0x00029265   Thumb Code    24  gatt_cache_manager.o(i.evt_send)
    i.evt_send                               0x00029280   Section        0  gatts_cache_manager.o(i.evt_send)
    evt_send                                 0x00029281   Thumb Code    24  gatts_cache_manager.o(i.evt_send)
    i.evt_send                               0x0002929c   Section        0  peer_manager.o(i.evt_send)
    evt_send                                 0x0002929d   Thumb Code    36  peer_manager.o(i.evt_send)
    i.evt_send                               0x000292c8   Section        0  security_dispatcher.o(i.evt_send)
    evt_send                                 0x000292c9   Thumb Code    24  security_dispatcher.o(i.evt_send)
    i.evt_send                               0x000292e4   Section        0  security_manager.o(i.evt_send)
    evt_send                                 0x000292e5   Thumb Code     6  security_manager.o(i.evt_send)
    i.fds_file_delete                        0x000292f0   Section        0  fds.o(i.fds_file_delete)
    i.fds_record_close                       0x00029338   Section        0  fds.o(i.fds_record_close)
    i.fds_record_find                        0x00029380   Section        0  fds.o(i.fds_record_find)
    i.fds_record_find_by_key                 0x0002938e   Section        0  fds.o(i.fds_record_find_by_key)
    i.fds_record_find_in_file                0x0002939e   Section        0  fds.o(i.fds_record_find_in_file)
    i.fds_record_id_from_desc                0x000293ae   Section        0  fds.o(i.fds_record_id_from_desc)
    i.fds_record_open                        0x000293c0   Section        0  fds.o(i.fds_record_open)
    i.fds_record_update                      0x0002940c   Section        0  fds.o(i.fds_record_update)
    i.fds_record_write                       0x0002941c   Section        0  fds.o(i.fds_record_write)
    i.fifo_get                               0x00029424   Section        0  app_fifo.o(i.fifo_get)
    fifo_get                                 0x00029425   Thumb Code    20  app_fifo.o(i.fifo_get)
    i.fifo_put                               0x00029438   Section        0  app_fifo.o(i.fifo_put)
    fifo_put                                 0x00029439   Thumb Code    18  app_fifo.o(i.fifo_put)
    i.flag_toggle                            0x0002944a   Section        0  ble_conn_state.o(i.flag_toggle)
    flag_toggle                              0x0002944b   Thumb Code    10  ble_conn_state.o(i.flag_toggle)
    i.flags_set                              0x00029454   Section        0  ble_advertising.o(i.flags_set)
    flags_set                                0x00029455   Thumb Code    40  ble_advertising.o(i.flags_set)
    i.flags_set_from_err_code                0x0002947c   Section        0  security_manager.o(i.flags_set_from_err_code)
    flags_set_from_err_code                  0x0002947d   Thumb Code    42  security_manager.o(i.flags_set_from_err_code)
    i.for_each_set_flag                      0x000294ac   Section        0  ble_conn_state.o(i.for_each_set_flag)
    for_each_set_flag                        0x000294ad   Thumb Code    48  ble_conn_state.o(i.for_each_set_flag)
    i.fputc                                  0x000294dc   Section        0  retarget.o(i.fputc)
    i.fs_event_handler                       0x000294ea   Section        0  fds.o(i.fs_event_handler)
    fs_event_handler                         0x000294eb   Thumb Code     6  fds.o(i.fs_event_handler)
    i.fstorage_evt_handler                   0x000294f0   Section        0  main.o(i.fstorage_evt_handler)
    fstorage_evt_handler                     0x000294f1   Thumb Code     2  main.o(i.fstorage_evt_handler)
    i.gatt_error_handler                     0x000294f2   Section        0  ble_nus_c.o(i.gatt_error_handler)
    gatt_error_handler                       0x000294f3   Thumb Code    10  ble_nus_c.o(i.gatt_error_handler)
    i.gatt_evt_handler                       0x000294fc   Section        0  main.o(i.gatt_evt_handler)
    i.gatt_init                              0x00029514   Section        0  main.o(i.gatt_init)
    i.gattc_write_alloc                      0x00029544   Section        0  nrf_ble_gq.o(i.gattc_write_alloc)
    gattc_write_alloc                        0x00029545   Thumb Code    44  nrf_ble_gq.o(i.gattc_write_alloc)
    i.gatts_hvx_alloc                        0x00029570   Section        0  nrf_ble_gq.o(i.gatts_hvx_alloc)
    gatts_hvx_alloc                          0x00029571   Thumb Code    62  nrf_ble_gq.o(i.gatts_hvx_alloc)
    i.gc_execute                             0x000295b0   Section        0  fds.o(i.gc_execute)
    gc_execute                               0x000295b1   Thumb Code   124  fds.o(i.gc_execute)
    i.gc_next_page                           0x00029630   Section        0  fds.o(i.gc_next_page)
    gc_next_page                             0x00029631   Thumb Code    70  fds.o(i.gc_next_page)
    i.gc_page_erase                          0x0002967c   Section        0  fds.o(i.gc_page_erase)
    gc_page_erase                            0x0002967d   Thumb Code    50  fds.o(i.gc_page_erase)
    i.gc_record_copy                         0x000296bc   Section        0  fds.o(i.gc_record_copy)
    gc_record_copy                           0x000296bd   Thumb Code    40  fds.o(i.gc_record_copy)
    i.gc_record_find_next                    0x000296f0   Section        0  fds.o(i.gc_record_find_next)
    gc_record_find_next                      0x000296f1   Thumb Code    30  fds.o(i.gc_record_find_next)
    i.gc_state_advance                       0x00029714   Section        0  fds.o(i.gc_state_advance)
    gc_state_advance                         0x00029715   Thumb Code   104  fds.o(i.gc_state_advance)
    i.gc_swap_pages                          0x00029784   Section        0  fds.o(i.gc_swap_pages)
    gc_swap_pages                            0x00029785   Thumb Code    40  fds.o(i.gc_swap_pages)
    i.gcm_ble_evt_handler                    0x000297b4   Section        0  gatt_cache_manager.o(i.gcm_ble_evt_handler)
    i.gcm_im_evt_handler                     0x000298d8   Section        0  gatt_cache_manager.o(i.gcm_im_evt_handler)
    i.gcm_pdb_evt_handler                    0x00029914   Section        0  gatt_cache_manager.o(i.gcm_pdb_evt_handler)
    i.get_now                                0x0002999c   Section        0  app_timer2.o(i.get_now)
    get_now                                  0x0002999d   Thumb Code    46  app_timer2.o(i.get_now)
    i.gscm_db_change_notification_done       0x000299d0   Section        0  gatts_cache_manager.o(i.gscm_db_change_notification_done)
    i.gscm_local_db_cache_apply              0x000299ec   Section        0  gatts_cache_manager.o(i.gscm_local_db_cache_apply)
    i.gscm_local_db_cache_update             0x00029a56   Section        0  gatts_cache_manager.o(i.gscm_local_db_cache_update)
    i.gscm_pdb_evt_handler                   0x00029ad8   Section        0  gatts_cache_manager.o(i.gscm_pdb_evt_handler)
    i.gscm_service_changed_ind_needed        0x00029af0   Section        0  gatts_cache_manager.o(i.gscm_service_changed_ind_needed)
    i.gscm_service_changed_ind_send          0x00029b10   Section        0  gatts_cache_manager.o(i.gscm_service_changed_ind_send)
    i.header_check                           0x00029b48   Section        0  fds.o(i.header_check)
    header_check                             0x00029b49   Thumb Code    44  fds.o(i.header_check)
    i.header_has_next                        0x00029b74   Section        0  fds.o(i.header_has_next)
    header_has_next                          0x00029b75   Thumb Code    18  fds.o(i.header_has_next)
    i.im_address_resolve                     0x00029b86   Section        0  id_manager.o(i.im_address_resolve)
    i.im_ble_addr_get                        0x00029bcc   Section        0  id_manager.o(i.im_ble_addr_get)
    i.im_ble_evt_handler                     0x00029c04   Section        0  id_manager.o(i.im_ble_evt_handler)
    i.im_conn_handle_get                     0x00029ce0   Section        0  id_manager.o(i.im_conn_handle_get)
    i.im_find_duplicate_bonding_data         0x00029d20   Section        0  id_manager.o(i.im_find_duplicate_bonding_data)
    i.im_is_duplicate_bonding_data           0x00029d58   Section        0  id_manager.o(i.im_is_duplicate_bonding_data)
    i.im_master_id_is_valid                  0x00029dca   Section        0  id_manager.o(i.im_master_id_is_valid)
    i.im_master_ids_compare                  0x00029de2   Section        0  id_manager.o(i.im_master_ids_compare)
    i.im_new_peer_id                         0x00029e0c   Section        0  id_manager.o(i.im_new_peer_id)
    i.im_peer_free                           0x00029e20   Section        0  id_manager.o(i.im_peer_free)
    i.im_peer_id_get_by_conn_handle          0x00029e4c   Section        0  id_manager.o(i.im_peer_id_get_by_conn_handle)
    i.im_peer_id_get_by_master_id            0x00029e70   Section        0  id_manager.o(i.im_peer_id_get_by_master_id)
    i.init_execute                           0x00029eac   Section        0  fds.o(i.init_execute)
    init_execute                             0x00029ead   Thumb Code   188  fds.o(i.init_execute)
    i.instance_get                           0x00029f74   Section        0  ble_conn_params.o(i.instance_get)
    instance_get                             0x00029f75   Thumb Code    14  ble_conn_params.o(i.instance_get)
    i.interrupts_enable                      0x00029f88   Section        0  nrfx_uarte.o(i.interrupts_enable)
    interrupts_enable                        0x00029f89   Thumb Code   132  nrfx_uarte.o(i.interrupts_enable)
    i.is_conn_params_ok                      0x0002a010   Section        0  ble_conn_params.o(i.is_conn_params_ok)
    is_conn_params_ok                        0x0002a011   Thumb Code    68  ble_conn_params.o(i.is_conn_params_ok)
    i.is_desc_discovery_reqd                 0x0002a054   Section        0  ble_db_discovery.o(i.is_desc_discovery_reqd)
    is_desc_discovery_reqd                   0x0002a055   Thumb Code    76  ble_db_discovery.o(i.is_desc_discovery_reqd)
    i.is_valid_irk                           0x0002a0a0   Section        0  id_manager.o(i.is_valid_irk)
    i.is_whitelist_used                      0x0002a0b4   Section        0  nrf_ble_scan.o(i.is_whitelist_used)
    i.is_word_aligned                        0x0002a0cc   Section        0  fds.o(i.is_word_aligned)
    is_word_aligned                          0x0002a0cd   Thumb Code    12  fds.o(i.is_word_aligned)
    i.link_init                              0x0002a0d8   Section        0  nrf_ble_gatt.o(i.link_init)
    link_init                                0x0002a0d9   Thumb Code    24  nrf_ble_gatt.o(i.link_init)
    i.link_secure                            0x0002a0f0   Section        0  security_manager.o(i.link_secure)
    link_secure                              0x0002a0f1   Thumb Code   156  security_manager.o(i.link_secure)
    i.link_secure_authenticate               0x0002a190   Section        0  security_dispatcher.o(i.link_secure_authenticate)
    link_secure_authenticate                 0x0002a191   Thumb Code    10  security_dispatcher.o(i.link_secure_authenticate)
    i.link_secure_central                    0x0002a19c   Section        0  security_dispatcher.o(i.link_secure_central)
    link_secure_central                      0x0002a19d   Thumb Code    98  security_dispatcher.o(i.link_secure_central)
    i.link_secure_central_encryption         0x0002a204   Section        0  security_dispatcher.o(i.link_secure_central_encryption)
    link_secure_central_encryption           0x0002a205   Thumb Code   106  security_dispatcher.o(i.link_secure_central_encryption)
    i.link_secure_failure                    0x0002a270   Section        0  security_dispatcher.o(i.link_secure_failure)
    link_secure_failure                      0x0002a271   Thumb Code   104  security_dispatcher.o(i.link_secure_failure)
    i.link_secure_pending_handle             0x0002a2dc   Section        0  security_manager.o(i.link_secure_pending_handle)
    link_secure_pending_handle               0x0002a2dd   Thumb Code    38  security_manager.o(i.link_secure_pending_handle)
    i.local_db_apply_in_evt                  0x0002a308   Section        0  gatt_cache_manager.o(i.local_db_apply_in_evt)
    local_db_apply_in_evt                    0x0002a309   Thumb Code    98  gatt_cache_manager.o(i.local_db_apply_in_evt)
    i.local_db_update                        0x0002a370   Section        0  gatt_cache_manager.o(i.local_db_update)
    local_db_update                          0x0002a371   Thumb Code    10  gatt_cache_manager.o(i.local_db_update)
    i.main                                   0x0002a380   Section        0  main.o(i.main)
    i.manuf_specific_data_encode             0x0002a5c0   Section        0  ble_advdata.o(i.manuf_specific_data_encode)
    manuf_specific_data_encode               0x0002a5c1   Thumb Code   100  ble_advdata.o(i.manuf_specific_data_encode)
    i.memobj_op                              0x0002a624   Section        0  nrf_memobj.o(i.memobj_op)
    memobj_op                                0x0002a625   Thumb Code   126  nrf_memobj.o(i.memobj_op)
    i.mutex_lock_status_get                  0x0002a6a2   Section        0  pm_buffer.o(i.mutex_lock_status_get)
    mutex_lock_status_get                    0x0002a6a3   Thumb Code     8  pm_buffer.o(i.mutex_lock_status_get)
    i.name_encode                            0x0002a6aa   Section        0  ble_advdata.o(i.name_encode)
    name_encode                              0x0002a6ab   Thumb Code   166  ble_advdata.o(i.name_encode)
    i.new_context_get                        0x0002a750   Section        0  security_manager.o(i.new_context_get)
    new_context_get                          0x0002a751   Thumb Code    14  security_manager.o(i.new_context_get)
    i.new_evt                                0x0002a764   Section        0  security_manager.o(i.new_evt)
    new_evt                                  0x0002a765   Thumb Code    50  security_manager.o(i.new_evt)
    i.next_id_get                            0x0002a796   Section        0  peer_id.o(i.next_id_get)
    i.nrf52_errata_136                       0x0002a7c8   Section        0  system_nrf52.o(i.nrf52_errata_136)
    nrf52_errata_136                         0x0002a7c9   Thumb Code    34  system_nrf52.o(i.nrf52_errata_136)
    i.nrf52_errata_31                        0x0002a7f0   Section        0  system_nrf52.o(i.nrf52_errata_31)
    nrf52_errata_31                          0x0002a7f1   Thumb Code    34  system_nrf52.o(i.nrf52_errata_31)
    i.nrf52_errata_36                        0x0002a818   Section        0  system_nrf52.o(i.nrf52_errata_36)
    nrf52_errata_36                          0x0002a819   Thumb Code    34  system_nrf52.o(i.nrf52_errata_36)
    i.nrf52_errata_66                        0x0002a840   Section        0  system_nrf52.o(i.nrf52_errata_66)
    nrf52_errata_66                          0x0002a841   Thumb Code    56  system_nrf52.o(i.nrf52_errata_66)
    i.nrf_atfifo_init                        0x0002a87c   Section        0  nrf_atfifo.o(i.nrf_atfifo_init)
    i.nrf_atfifo_item_alloc                  0x0002a8a2   Section        0  nrf_atfifo.o(i.nrf_atfifo_item_alloc)
    i.nrf_atfifo_item_free                   0x0002a8b8   Section        0  nrf_atfifo.o(i.nrf_atfifo_item_free)
    i.nrf_atfifo_item_get                    0x0002a8ce   Section        0  nrf_atfifo.o(i.nrf_atfifo_item_get)
    i.nrf_atfifo_item_put                    0x0002a8e4   Section        0  nrf_atfifo.o(i.nrf_atfifo_item_put)
    i.nrf_atflags_clear                      0x0002a8fa   Section        0  nrf_atflags.o(i.nrf_atflags_clear)
    i.nrf_atflags_fetch_set                  0x0002a910   Section        0  nrf_atflags.o(i.nrf_atflags_fetch_set)
    i.nrf_atflags_find_and_set_flag          0x0002a930   Section        0  nrf_atflags.o(i.nrf_atflags_find_and_set_flag)
    i.nrf_atflags_get                        0x0002a97a   Section        0  nrf_atflags.o(i.nrf_atflags_get)
    i.nrf_atflags_set                        0x0002a990   Section        0  nrf_atflags.o(i.nrf_atflags_set)
    i.nrf_atomic_u32_add                     0x0002a9a4   Section        0  nrf_atomic.o(i.nrf_atomic_u32_add)
    i.nrf_atomic_u32_and                     0x0002a9b0   Section        0  nrf_atomic.o(i.nrf_atomic_u32_and)
    i.nrf_atomic_u32_fetch_add               0x0002a9bc   Section        0  nrf_atomic.o(i.nrf_atomic_u32_fetch_add)
    i.nrf_atomic_u32_fetch_or                0x0002a9c6   Section        0  nrf_atomic.o(i.nrf_atomic_u32_fetch_or)
    i.nrf_atomic_u32_fetch_store             0x0002a9d0   Section        0  nrf_atomic.o(i.nrf_atomic_u32_fetch_store)
    i.nrf_atomic_u32_or                      0x0002a9da   Section        0  nrf_atomic.o(i.nrf_atomic_u32_or)
    i.nrf_atomic_u32_sub                     0x0002a9e6   Section        0  nrf_atomic.o(i.nrf_atomic_u32_sub)
    i.nrf_balloc_alloc                       0x0002a9f2   Section        0  nrf_balloc.o(i.nrf_balloc_alloc)
    i.nrf_balloc_free                        0x0002aa36   Section        0  nrf_balloc.o(i.nrf_balloc_free)
    i.nrf_balloc_init                        0x0002aa66   Section        0  nrf_balloc.o(i.nrf_balloc_init)
    i.nrf_bitmask_bit_is_set                 0x0002aa96   Section        0  nrfx_gpiote.o(i.nrf_bitmask_bit_is_set)
    nrf_bitmask_bit_is_set                   0x0002aa97   Thumb Code    16  nrfx_gpiote.o(i.nrf_bitmask_bit_is_set)
    i.nrf_ble_gatt_att_mtu_central_set       0x0002aaa6   Section        0  nrf_ble_gatt.o(i.nrf_ble_gatt_att_mtu_central_set)
    i.nrf_ble_gatt_init                      0x0002aabe   Section        0  nrf_ble_gatt.o(i.nrf_ble_gatt_init)
    i.nrf_ble_gatt_on_ble_evt                0x0002aaec   Section        0  nrf_ble_gatt.o(i.nrf_ble_gatt_on_ble_evt)
    i.nrf_ble_gq_conn_handle_register        0x0002ac94   Section        0  nrf_ble_gq.o(i.nrf_ble_gq_conn_handle_register)
    i.nrf_ble_gq_item_add                    0x0002ad04   Section        0  nrf_ble_gq.o(i.nrf_ble_gq_item_add)
    i.nrf_ble_gq_on_ble_evt                  0x0002ada4   Section        0  nrf_ble_gq.o(i.nrf_ble_gq_on_ble_evt)
    i.nrf_ble_qwr_conn_handle_assign         0x0002ae04   Section        0  nrf_ble_qwr.o(i.nrf_ble_qwr_conn_handle_assign)
    i.nrf_ble_qwr_init                       0x0002ae1a   Section        0  nrf_ble_qwr.o(i.nrf_ble_qwr_init)
    i.nrf_ble_qwr_on_ble_evt                 0x0002ae3e   Section        0  nrf_ble_qwr.o(i.nrf_ble_qwr_on_ble_evt)
    i.nrf_ble_scan_addr_filter_add           0x0002aef4   Section        0  nrf_ble_scan.o(i.nrf_ble_scan_addr_filter_add)
    nrf_ble_scan_addr_filter_add             0x0002aef5   Thumb Code   148  nrf_ble_scan.o(i.nrf_ble_scan_addr_filter_add)
    i.nrf_ble_scan_address_type_decode       0x0002af88   Section        0  nrf_ble_scan.o(i.nrf_ble_scan_address_type_decode)
    nrf_ble_scan_address_type_decode         0x0002af89   Thumb Code    36  nrf_ble_scan.o(i.nrf_ble_scan_address_type_decode)
    i.nrf_ble_scan_connect_with_target       0x0002afac   Section        0  nrf_ble_scan.o(i.nrf_ble_scan_connect_with_target)
    nrf_ble_scan_connect_with_target         0x0002afad   Thumb Code    80  nrf_ble_scan.o(i.nrf_ble_scan_connect_with_target)
    i.nrf_ble_scan_default_conn_param_set    0x0002affc   Section        0  nrf_ble_scan.o(i.nrf_ble_scan_default_conn_param_set)
    nrf_ble_scan_default_conn_param_set      0x0002affd   Thumb Code    20  nrf_ble_scan.o(i.nrf_ble_scan_default_conn_param_set)
    i.nrf_ble_scan_default_param_set         0x0002b010   Section        0  nrf_ble_scan.o(i.nrf_ble_scan_default_param_set)
    nrf_ble_scan_default_param_set           0x0002b011   Thumb Code    30  nrf_ble_scan.o(i.nrf_ble_scan_default_param_set)
    i.nrf_ble_scan_filter_set                0x0002b030   Section        0  nrf_ble_scan.o(i.nrf_ble_scan_filter_set)
    i.nrf_ble_scan_filters_disable           0x0002b0e2   Section        0  nrf_ble_scan.o(i.nrf_ble_scan_filters_disable)
    i.nrf_ble_scan_filters_enable            0x0002b0fa   Section        0  nrf_ble_scan.o(i.nrf_ble_scan_filters_enable)
    i.nrf_ble_scan_init                      0x0002b148   Section        0  nrf_ble_scan.o(i.nrf_ble_scan_init)
    i.nrf_ble_scan_on_adv_report             0x0002b1bc   Section        0  nrf_ble_scan.o(i.nrf_ble_scan_on_adv_report)
    nrf_ble_scan_on_adv_report               0x0002b1bd   Thumb Code   424  nrf_ble_scan.o(i.nrf_ble_scan_on_adv_report)
    i.nrf_ble_scan_on_ble_evt                0x0002b364   Section        0  nrf_ble_scan.o(i.nrf_ble_scan_on_ble_evt)
    i.nrf_ble_scan_start                     0x0002b3e4   Section        0  nrf_ble_scan.o(i.nrf_ble_scan_start)
    i.nrf_clock_event_check                  0x0002b428   Section        0  nrfx_clock.o(i.nrf_clock_event_check)
    nrf_clock_event_check                    0x0002b429   Thumb Code    14  nrfx_clock.o(i.nrf_clock_event_check)
    i.nrf_clock_event_clear                  0x0002b436   Section        0  nrfx_clock.o(i.nrf_clock_event_clear)
    nrf_clock_event_clear                    0x0002b437   Thumb Code    16  nrfx_clock.o(i.nrf_clock_event_clear)
    i.nrf_drv_clock_init                     0x0002b448   Section        0  nrf_drv_clock.o(i.nrf_drv_clock_init)
    i.nrf_drv_clock_lfclk_release            0x0002b488   Section        0  nrf_drv_clock.o(i.nrf_drv_clock_lfclk_release)
    i.nrf_drv_uart_init                      0x0002b4bc   Section        0  nrf_drv_uart.o(i.nrf_drv_uart_init)
    i.nrf_drv_uart_rx                        0x0002b524   Section        0  app_uart_fifo.o(i.nrf_drv_uart_rx)
    nrf_drv_uart_rx                          0x0002b525   Thumb Code    26  app_uart_fifo.o(i.nrf_drv_uart_rx)
    i.nrf_drv_uart_tx                        0x0002b544   Section        0  app_uart_fifo.o(i.nrf_drv_uart_tx)
    nrf_drv_uart_tx                          0x0002b545   Thumb Code    26  app_uart_fifo.o(i.nrf_drv_uart_tx)
    i.nrf_fstorage_erase                     0x0002b564   Section        0  nrf_fstorage.o(i.nrf_fstorage_erase)
    i.nrf_fstorage_sdh_req_handler           0x0002b5b4   Section        0  nrf_fstorage_sd.o(i.nrf_fstorage_sdh_req_handler)
    i.nrf_fstorage_sdh_state_handler         0x0002b5cc   Section        0  nrf_fstorage_sd.o(i.nrf_fstorage_sdh_state_handler)
    i.nrf_fstorage_sys_evt_handler           0x0002b5ec   Section        0  nrf_fstorage_sd.o(i.nrf_fstorage_sys_evt_handler)
    i.nrf_fstorage_write                     0x0002b690   Section        0  nrf_fstorage.o(i.nrf_fstorage_write)
    i.nrf_gpio_cfg                           0x0002b6f6   Section        0  nrfx_uart.o(i.nrf_gpio_cfg)
    nrf_gpio_cfg                             0x0002b6f7   Thumb Code    36  nrfx_uart.o(i.nrf_gpio_cfg)
    i.nrf_gpio_cfg                           0x0002b71a   Section        0  nrfx_uarte.o(i.nrf_gpio_cfg)
    nrf_gpio_cfg                             0x0002b71b   Thumb Code    36  nrfx_uarte.o(i.nrf_gpio_cfg)
    i.nrf_gpio_cfg_input                     0x0002b73e   Section        0  nrfx_uart.o(i.nrf_gpio_cfg_input)
    nrf_gpio_cfg_input                       0x0002b73f   Thumb Code    18  nrfx_uart.o(i.nrf_gpio_cfg_input)
    i.nrf_gpio_cfg_input                     0x0002b750   Section        0  nrfx_uarte.o(i.nrf_gpio_cfg_input)
    nrf_gpio_cfg_input                       0x0002b751   Thumb Code    18  nrfx_uarte.o(i.nrf_gpio_cfg_input)
    i.nrf_gpio_cfg_output                    0x0002b762   Section        0  nrfx_uart.o(i.nrf_gpio_cfg_output)
    nrf_gpio_cfg_output                      0x0002b763   Thumb Code    20  nrfx_uart.o(i.nrf_gpio_cfg_output)
    i.nrf_gpio_cfg_output                    0x0002b776   Section        0  nrfx_uarte.o(i.nrf_gpio_cfg_output)
    nrf_gpio_cfg_output                      0x0002b777   Thumb Code    20  nrfx_uarte.o(i.nrf_gpio_cfg_output)
    i.nrf_gpio_cfg_sense_set                 0x0002b78a   Section        0  nrfx_gpiote.o(i.nrf_gpio_cfg_sense_set)
    nrf_gpio_cfg_sense_set                   0x0002b78b   Thumb Code    34  nrfx_gpiote.o(i.nrf_gpio_cfg_sense_set)
    i.nrf_gpio_latches_read_and_clear        0x0002b7ac   Section        0  nrfx_gpiote.o(i.nrf_gpio_latches_read_and_clear)
    nrf_gpio_latches_read_and_clear          0x0002b7ad   Thumb Code    38  nrfx_gpiote.o(i.nrf_gpio_latches_read_and_clear)
    i.nrf_gpiote_event_clear                 0x0002b7d8   Section        0  nrfx_gpiote.o(i.nrf_gpiote_event_clear)
    nrf_gpiote_event_clear                   0x0002b7d9   Thumb Code    16  nrfx_gpiote.o(i.nrf_gpiote_event_clear)
    i.nrf_gpiote_event_is_set                0x0002b7ec   Section        0  nrfx_gpiote.o(i.nrf_gpiote_event_is_set)
    nrf_gpiote_event_is_set                  0x0002b7ed   Thumb Code    12  nrfx_gpiote.o(i.nrf_gpiote_event_is_set)
    i.nrf_memobj_alloc                       0x0002b7fc   Section        0  nrf_memobj.o(i.nrf_memobj_alloc)
    i.nrf_memobj_free                        0x0002b85c   Section        0  nrf_memobj.o(i.nrf_memobj_free)
    i.nrf_memobj_pool_init                   0x0002b88e   Section        0  nrf_memobj.o(i.nrf_memobj_pool_init)
    i.nrf_memobj_read                        0x0002b892   Section        0  nrf_memobj.o(i.nrf_memobj_read)
    i.nrf_memobj_write                       0x0002b8a2   Section        0  nrf_memobj.o(i.nrf_memobj_write)
    i.nrf_pwr_mgmt_init                      0x0002b8b4   Section        0  nrf_pwr_mgmt.o(i.nrf_pwr_mgmt_init)
    i.nrf_pwr_mgmt_run                       0x0002b8dc   Section        0  nrf_pwr_mgmt.o(i.nrf_pwr_mgmt_run)
    i.nrf_queue_generic_pop                  0x0002b8f0   Section        0  nrf_queue.o(i.nrf_queue_generic_pop)
    i.nrf_queue_is_empty                     0x0002b97e   Section        0  nrf_queue.o(i.nrf_queue_is_empty)
    i.nrf_queue_is_full                      0x0002b990   Section        0  nrf_queue.o(i.nrf_queue_is_full)
    i.nrf_queue_next_idx                     0x0002b9ae   Section        0  nrf_queue.o(i.nrf_queue_next_idx)
    nrf_queue_next_idx                       0x0002b9af   Thumb Code    14  nrf_queue.o(i.nrf_queue_next_idx)
    i.nrf_queue_push                         0x0002b9bc   Section        0  nrf_queue.o(i.nrf_queue_push)
    i.nrf_qwr_error_handler                  0x0002ba6e   Section        0  main.o(i.nrf_qwr_error_handler)
    nrf_qwr_error_handler                    0x0002ba6f   Thumb Code     4  main.o(i.nrf_qwr_error_handler)
    i.nrf_rtc_event_clear                    0x0002ba72   Section        0  drv_rtc.o(i.nrf_rtc_event_clear)
    nrf_rtc_event_clear                      0x0002ba73   Thumb Code    12  drv_rtc.o(i.nrf_rtc_event_clear)
    i.nrf_sdh_ble_app_ram_start_get          0x0002ba80   Section        0  nrf_sdh_ble.o(i.nrf_sdh_ble_app_ram_start_get)
    i.nrf_sdh_ble_default_cfg_set            0x0002ba94   Section        0  nrf_sdh_ble.o(i.nrf_sdh_ble_default_cfg_set)
    i.nrf_sdh_ble_enable                     0x0002bb34   Section        0  nrf_sdh_ble.o(i.nrf_sdh_ble_enable)
    i.nrf_sdh_ble_evts_poll                  0x0002bb48   Section        0  nrf_sdh_ble.o(i.nrf_sdh_ble_evts_poll)
    nrf_sdh_ble_evts_poll                    0x0002bb49   Thumb Code    88  nrf_sdh_ble.o(i.nrf_sdh_ble_evts_poll)
    i.nrf_sdh_disable_request                0x0002bba8   Section        0  nrf_sdh.o(i.nrf_sdh_disable_request)
    i.nrf_sdh_enable_request                 0x0002bbfc   Section        0  nrf_sdh.o(i.nrf_sdh_enable_request)
    i.nrf_sdh_evts_poll                      0x0002bc70   Section        0  nrf_sdh.o(i.nrf_sdh_evts_poll)
    i.nrf_sdh_is_enabled                     0x0002bc94   Section        0  nrf_sdh.o(i.nrf_sdh_is_enabled)
    i.nrf_sdh_request_continue               0x0002bca0   Section        0  nrf_sdh.o(i.nrf_sdh_request_continue)
    i.nrf_sdh_soc_evts_poll                  0x0002bcbc   Section        0  nrf_sdh_soc.o(i.nrf_sdh_soc_evts_poll)
    nrf_sdh_soc_evts_poll                    0x0002bcbd   Thumb Code    56  nrf_sdh_soc.o(i.nrf_sdh_soc_evts_poll)
    i.nrf_section_iter_init                  0x0002bcf8   Section        0  nrf_section_iter.o(i.nrf_section_iter_init)
    i.nrf_section_iter_item_set              0x0002bd02   Section        0  nrf_section_iter.o(i.nrf_section_iter_item_set)
    nrf_section_iter_item_set                0x0002bd03   Thumb Code    36  nrf_section_iter.o(i.nrf_section_iter_item_set)
    i.nrf_section_iter_next                  0x0002bd26   Section        0  nrf_section_iter.o(i.nrf_section_iter_next)
    i.nrf_sortlist_add                       0x0002bd46   Section        0  nrf_sortlist.o(i.nrf_sortlist_add)
    i.nrf_sortlist_peek                      0x0002bd68   Section        0  nrf_sortlist.o(i.nrf_sortlist_peek)
    i.nrf_sortlist_pop                       0x0002bd6e   Section        0  nrf_sortlist.o(i.nrf_sortlist_pop)
    i.nrf_sortlist_remove                    0x0002bd7c   Section        0  nrf_sortlist.o(i.nrf_sortlist_remove)
    i.nrf_uart_event_check                   0x0002bd9a   Section        0  nrfx_uart.o(i.nrf_uart_event_check)
    nrf_uart_event_check                     0x0002bd9b   Thumb Code    10  nrfx_uart.o(i.nrf_uart_event_check)
    i.nrf_uart_event_clear                   0x0002bda4   Section        0  nrfx_uart.o(i.nrf_uart_event_clear)
    nrf_uart_event_clear                     0x0002bda5   Thumb Code    12  nrfx_uart.o(i.nrf_uart_event_clear)
    i.nrf_uart_int_enable_check              0x0002bdb0   Section        0  nrfx_uart.o(i.nrf_uart_int_enable_check)
    nrf_uart_int_enable_check                0x0002bdb1   Thumb Code    12  nrfx_uart.o(i.nrf_uart_int_enable_check)
    i.nrf_uarte_event_check                  0x0002bdbc   Section        0  nrfx_uarte.o(i.nrf_uarte_event_check)
    nrf_uarte_event_check                    0x0002bdbd   Thumb Code    10  nrfx_uarte.o(i.nrf_uarte_event_check)
    i.nrf_uarte_event_clear                  0x0002bdc6   Section        0  nrfx_uarte.o(i.nrf_uarte_event_clear)
    nrf_uarte_event_clear                    0x0002bdc7   Thumb Code    12  nrfx_uarte.o(i.nrf_uarte_event_clear)
    i.nrf_wdt_started                        0x0002bdd4   Section        0  nrf_drv_clock.o(i.nrf_wdt_started)
    nrf_wdt_started                          0x0002bdd5   Thumb Code    12  nrf_drv_clock.o(i.nrf_wdt_started)
    i.nrfx_clock_enable                      0x0002bde4   Section        0  nrfx_clock.o(i.nrfx_clock_enable)
    i.nrfx_clock_init                        0x0002be10   Section        0  nrfx_clock.o(i.nrfx_clock_init)
    i.nrfx_clock_lfclk_stop                  0x0002be2c   Section        0  nrfx_clock.o(i.nrfx_clock_lfclk_stop)
    i.nrfx_coredep_delay_us                  0x0002be5c   Section        0  drv_rtc.o(i.nrfx_coredep_delay_us)
    nrfx_coredep_delay_us                    0x0002be5d   Thumb Code    12  drv_rtc.o(i.nrfx_coredep_delay_us)
    i.nrfx_is_in_ram                         0x0002be6c   Section        0  nrfx_uarte.o(i.nrfx_is_in_ram)
    nrfx_is_in_ram                           0x0002be6d   Thumb Code    16  nrfx_uarte.o(i.nrfx_is_in_ram)
    i.nrfx_prs_acquire                       0x0002be7c   Section        0  nrfx_prs.o(i.nrfx_prs_acquire)
    i.nrfx_uart_0_irq_handler                0x0002beb8   Section        0  nrfx_uart.o(i.nrfx_uart_0_irq_handler)
    i.nrfx_uart_init                         0x0002bec8   Section        0  nrfx_uart.o(i.nrfx_uart_init)
    i.nrfx_uart_rx                           0x0002bf9c   Section        0  nrfx_uart.o(i.nrfx_uart_rx)
    i.nrfx_uart_tx                           0x0002c088   Section        0  nrfx_uart.o(i.nrfx_uart_tx)
    i.nrfx_uart_tx_in_progress               0x0002c130   Section        0  nrfx_uart.o(i.nrfx_uart_tx_in_progress)
    i.nrfx_uarte_0_irq_handler               0x0002c150   Section        0  nrfx_uarte.o(i.nrfx_uarte_0_irq_handler)
    i.nrfx_uarte_init                        0x0002c160   Section        0  nrfx_uarte.o(i.nrfx_uarte_init)
    i.nrfx_uarte_rx                          0x0002c1cc   Section        0  nrfx_uarte.o(i.nrfx_uarte_rx)
    i.nrfx_uarte_tx                          0x0002c2d0   Section        0  nrfx_uarte.o(i.nrfx_uarte_tx)
    i.nrfx_uarte_tx_in_progress              0x0002c37c   Section        0  nrfx_uarte.o(i.nrfx_uarte_tx_in_progress)
    i.nus_data_handler                       0x0002c398   Section        0  main.o(i.nus_data_handler)
    nus_data_handler                         0x0002c399   Thumb Code    66  main.o(i.nus_data_handler)
    i.nus_error_handler                      0x0002c3da   Section        0  main.o(i.nus_error_handler)
    nus_error_handler                        0x0002c3db   Thumb Code     4  main.o(i.nus_error_handler)
    i.nvmc_config                            0x0002c3e0   Section        0  system_nrf52.o(i.nvmc_config)
    i.on_adv_evt                             0x0002c3f8   Section        0  main.o(i.on_adv_evt)
    on_adv_evt                               0x0002c3f9   Thumb Code    30  main.o(i.on_adv_evt)
    i.on_characteristic_discovery_rsp        0x0002c416   Section        0  ble_db_discovery.o(i.on_characteristic_discovery_rsp)
    on_characteristic_discovery_rsp          0x0002c417   Thumb Code   252  ble_db_discovery.o(i.on_characteristic_discovery_rsp)
    i.on_conn_params_evt                     0x0002c514   Section        0  main.o(i.on_conn_params_evt)
    on_conn_params_evt                       0x0002c515   Thumb Code    24  main.o(i.on_conn_params_evt)
    i.on_connect                             0x0002c530   Section        0  ble_nus.o(i.on_connect)
    on_connect                               0x0002c531   Thumb Code   106  ble_nus.o(i.on_connect)
    i.on_descriptor_discovery_rsp            0x0002c59c   Section        0  ble_db_discovery.o(i.on_descriptor_discovery_rsp)
    on_descriptor_discovery_rsp              0x0002c59d   Thumb Code   218  ble_db_discovery.o(i.on_descriptor_discovery_rsp)
    i.on_primary_srv_discovery_rsp           0x0002c676   Section        0  ble_db_discovery.o(i.on_primary_srv_discovery_rsp)
    on_primary_srv_discovery_rsp             0x0002c677   Thumb Code   114  ble_db_discovery.o(i.on_primary_srv_discovery_rsp)
    i.on_srv_disc_completion                 0x0002c6e8   Section        0  ble_db_discovery.o(i.on_srv_disc_completion)
    on_srv_disc_completion                   0x0002c6e9   Thumb Code   142  ble_db_discovery.o(i.on_srv_disc_completion)
    i.on_write                               0x0002c784   Section        0  ble_nus.o(i.on_write)
    on_write                                 0x0002c785   Thumb Code   132  ble_nus.o(i.on_write)
    i.page_offsets_update                    0x0002c808   Section        0  fds.o(i.page_offsets_update)
    page_offsets_update                      0x0002c809   Thumb Code    28  fds.o(i.page_offsets_update)
    i.page_tag_write_data                    0x0002c824   Section        0  fds.o(i.page_tag_write_data)
    page_tag_write_data                      0x0002c825   Thumb Code    20  fds.o(i.page_tag_write_data)
    i.page_tag_write_swap                    0x0002c840   Section        0  fds.o(i.page_tag_write_swap)
    page_tag_write_swap                      0x0002c841   Thumb Code    22  fds.o(i.page_tag_write_swap)
    i.pairing                                0x0002c864   Section        0  security_dispatcher.o(i.pairing)
    pairing                                  0x0002c865   Thumb Code     8  security_dispatcher.o(i.pairing)
    i.pairing_success_evt_send               0x0002c870   Section        0  security_dispatcher.o(i.pairing_success_evt_send)
    pairing_success_evt_send                 0x0002c871   Thumb Code    46  security_dispatcher.o(i.pairing_success_evt_send)
    i.params_reply_pending_handle            0x0002c89e   Section        0  security_manager.o(i.params_reply_pending_handle)
    params_reply_pending_handle              0x0002c89f   Thumb Code     6  security_manager.o(i.params_reply_pending_handle)
    i.params_req_send                        0x0002c8a4   Section        0  security_manager.o(i.params_req_send)
    params_req_send                          0x0002c8a5   Thumb Code    32  security_manager.o(i.params_req_send)
    i.pdb_evt_send                           0x0002c8c4   Section        0  peer_database.o(i.pdb_evt_send)
    pdb_evt_send                             0x0002c8c5   Thumb Code    24  peer_database.o(i.pdb_evt_send)
    i.pdb_pds_evt_handler                    0x0002c8e0   Section        0  peer_database.o(i.pdb_pds_evt_handler)
    i.pdb_peer_data_ptr_get                  0x0002c95c   Section        0  peer_database.o(i.pdb_peer_data_ptr_get)
    i.pdb_peer_free                          0x0002c962   Section        0  peer_database.o(i.pdb_peer_free)
    i.pdb_write_buf_get                      0x0002c99c   Section        0  peer_database.o(i.pdb_write_buf_get)
    i.pdb_write_buf_release                  0x0002ca54   Section        0  peer_database.o(i.pdb_write_buf_release)
    i.pdb_write_buf_store                    0x0002ca68   Section        0  peer_database.o(i.pdb_write_buf_store)
    i.pds_evt_send                           0x0002caa0   Section        0  peer_data_storage.o(i.pds_evt_send)
    pds_evt_send                             0x0002caa1   Thumb Code    12  peer_data_storage.o(i.pds_evt_send)
    i.pds_next_deleted_peer_id_get           0x0002cab0   Section        0  peer_data_storage.o(i.pds_next_deleted_peer_id_get)
    i.pds_next_peer_id_get                   0x0002cab4   Section        0  peer_data_storage.o(i.pds_next_peer_id_get)
    i.pds_peer_data_iterate                  0x0002cab8   Section        0  peer_data_storage.o(i.pds_peer_data_iterate)
    i.pds_peer_data_iterate_prepare          0x0002cb10   Section        0  peer_data_storage.o(i.pds_peer_data_iterate_prepare)
    i.pds_peer_data_read                     0x0002cb20   Section        0  peer_data_storage.o(i.pds_peer_data_read)
    i.pds_peer_data_store                    0x0002cb94   Section        0  peer_data_storage.o(i.pds_peer_data_store)
    i.pds_peer_id_allocate                   0x0002cc28   Section        0  peer_data_storage.o(i.pds_peer_id_allocate)
    i.pds_peer_id_free                       0x0002cc30   Section        0  peer_data_storage.o(i.pds_peer_id_free)
    i.pds_peer_id_is_allocated               0x0002cc46   Section        0  peer_data_storage.o(i.pds_peer_id_is_allocated)
    i.peer_data_delete_process               0x0002cc4c   Section        0  peer_data_storage.o(i.peer_data_delete_process)
    peer_data_delete_process                 0x0002cc4d   Thumb Code   124  peer_data_storage.o(i.peer_data_delete_process)
    i.peer_data_find                         0x0002ccd0   Section        0  peer_data_storage.o(i.peer_data_find)
    peer_data_find                           0x0002ccd1   Thumb Code    48  peer_data_storage.o(i.peer_data_find)
    i.peer_data_id_is_valid                  0x0002cd00   Section        0  peer_data_storage.o(i.peer_data_id_is_valid)
    peer_data_id_is_valid                    0x0002cd01   Thumb Code    36  peer_data_storage.o(i.peer_data_id_is_valid)
    i.peer_data_point_to_buffer              0x0002cd24   Section        0  peer_database.o(i.peer_data_point_to_buffer)
    peer_data_point_to_buffer                0x0002cd25   Thumb Code    26  peer_database.o(i.peer_data_point_to_buffer)
    i.peer_id_allocate                       0x0002cd40   Section        0  peer_id.o(i.peer_id_allocate)
    i.peer_id_delete                         0x0002cd4c   Section        0  peer_id.o(i.peer_id_delete)
    i.peer_id_free                           0x0002cd70   Section        0  peer_id.o(i.peer_id_free)
    i.peer_id_get_next_deleted               0x0002cd8c   Section        0  peer_id.o(i.peer_id_get_next_deleted)
    i.peer_id_get_next_used                  0x0002cd98   Section        0  peer_id.o(i.peer_id_get_next_used)
    i.peer_id_is_allocated                   0x0002cdc8   Section        0  peer_id.o(i.peer_id_is_allocated)
    i.peer_id_is_deleted                     0x0002cddc   Section        0  peer_id.o(i.peer_id_is_deleted)
    i.phy_is_valid                           0x0002cdf0   Section        0  ble_advertising.o(i.phy_is_valid)
    phy_is_valid                             0x0002cdf1   Thumb Code    18  ble_advertising.o(i.phy_is_valid)
    i.pm_buffer_block_acquire                0x0002ce02   Section        0  pm_buffer.o(i.pm_buffer_block_acquire)
    i.pm_buffer_ptr_get                      0x0002ce66   Section        0  pm_buffer.o(i.pm_buffer_ptr_get)
    i.pm_buffer_release                      0x0002ce8e   Section        0  pm_buffer.o(i.pm_buffer_release)
    i.pm_gcm_evt_handler                     0x0002cec0   Section        0  peer_manager.o(i.pm_gcm_evt_handler)
    i.pm_gscm_evt_handler                    0x0002cec4   Section        0  peer_manager.o(i.pm_gscm_evt_handler)
    i.pm_im_evt_handler                      0x0002cec8   Section        0  peer_manager.o(i.pm_im_evt_handler)
    i.pm_pdb_evt_handler                     0x0002cecc   Section        0  peer_manager.o(i.pm_pdb_evt_handler)
    i.pm_peer_ranks_get                      0x0002cfe4   Section        0  peer_manager.o(i.pm_peer_ranks_get)
    i.pm_sm_evt_handler                      0x0002d0a4   Section        0  peer_manager.o(i.pm_sm_evt_handler)
    i.port_event_handle                      0x0002d0b0   Section        0  nrfx_gpiote.o(i.port_event_handle)
    port_event_handle                        0x0002d0b1   Thumb Code   176  nrfx_gpiote.o(i.port_event_handle)
    i.port_handler_polarity_get              0x0002d164   Section        0  nrfx_gpiote.o(i.port_handler_polarity_get)
    port_handler_polarity_get                0x0002d165   Thumb Code    12  nrfx_gpiote.o(i.port_handler_polarity_get)
    i.prs_box_get                            0x0002d174   Section        0  nrfx_prs.o(i.prs_box_get)
    prs_box_get                              0x0002d175   Thumb Code    14  nrfx_prs.o(i.prs_box_get)
    i.queue_buf_get                          0x0002d18c   Section        0  fds.o(i.queue_buf_get)
    queue_buf_get                            0x0002d18d   Thumb Code    24  fds.o(i.queue_buf_get)
    i.queue_buf_store                        0x0002d1a8   Section        0  fds.o(i.queue_buf_store)
    queue_buf_store                          0x0002d1a9   Thumb Code    10  fds.o(i.queue_buf_store)
    i.queue_free                             0x0002d1b8   Section        0  nrf_fstorage_sd.o(i.queue_free)
    queue_free                               0x0002d1b9   Thumb Code    10  nrf_fstorage_sd.o(i.queue_free)
    i.queue_process                          0x0002d1cc   Section        0  nrf_ble_gq.o(i.queue_process)
    queue_process                            0x0002d1cd   Thumb Code   218  nrf_ble_gq.o(i.queue_process)
    i.queue_process                          0x0002d2ac   Section        0  fds.o(i.queue_process)
    queue_process                            0x0002d2ad   Thumb Code   154  fds.o(i.queue_process)
    i.queue_process                          0x0002d350   Section        0  nrf_fstorage_sd.o(i.queue_process)
    queue_process                            0x0002d351   Thumb Code   148  nrf_fstorage_sd.o(i.queue_process)
    i.queue_start                            0x0002d3f0   Section        0  fds.o(i.queue_start)
    queue_start                              0x0002d3f1   Thumb Code    24  fds.o(i.queue_start)
    i.queue_utilization_get                  0x0002d40c   Section        0  nrf_queue.o(i.queue_utilization_get)
    queue_utilization_get                    0x0002d40d   Thumb Code    24  nrf_queue.o(i.queue_utilization_get)
    i.queues_purge                           0x0002d424   Section        0  nrf_ble_gq.o(i.queues_purge)
    queues_purge                             0x0002d425   Thumb Code    84  nrf_ble_gq.o(i.queues_purge)
    i.rank_vars_update                       0x0002d47c   Section        0  peer_manager.o(i.rank_vars_update)
    rank_vars_update                         0x0002d47d   Thumb Code    46  peer_manager.o(i.rank_vars_update)
    i.reattempt_previous_operations          0x0002d4b0   Section        0  peer_database.o(i.reattempt_previous_operations)
    reattempt_previous_operations            0x0002d4b1   Thumb Code   122  peer_database.o(i.reattempt_previous_operations)
    i.record_find                            0x0002d534   Section        0  fds.o(i.record_find)
    record_find                              0x0002d535   Thumb Code   134  fds.o(i.record_find)
    i.record_find_by_desc                    0x0002d5c4   Section        0  fds.o(i.record_find_by_desc)
    record_find_by_desc                      0x0002d5c5   Thumb Code   152  fds.o(i.record_find_by_desc)
    i.record_find_next                       0x0002d664   Section        0  fds.o(i.record_find_next)
    record_find_next                         0x0002d665   Thumb Code    88  fds.o(i.record_find_next)
    i.record_header_flag_dirty               0x0002d6c0   Section        0  fds.o(i.record_header_flag_dirty)
    record_header_flag_dirty                 0x0002d6c1   Thumb Code    46  fds.o(i.record_header_flag_dirty)
    i.registered_handler_get                 0x0002d6fc   Section        0  ble_db_discovery.o(i.registered_handler_get)
    registered_handler_get                   0x0002d6fd   Thumb Code    48  ble_db_discovery.o(i.registered_handler_get)
    i.release                                0x0002d734   Section        0  peer_id.o(i.release)
    release                                  0x0002d735   Thumb Code    16  peer_id.o(i.release)
    i.request_err_code_handle                0x0002d744   Section        0  nrf_ble_gq.o(i.request_err_code_handle)
    request_err_code_handle                  0x0002d745   Thumb Code    30  nrf_ble_gq.o(i.request_err_code_handle)
    i.request_process                        0x0002d762   Section        0  nrf_ble_gq.o(i.request_process)
    request_process                          0x0002d763   Thumb Code   114  nrf_ble_gq.o(i.request_process)
    i.rtc_irq                                0x0002d7d4   Section        0  app_timer2.o(i.rtc_irq)
    rtc_irq                                  0x0002d7d5   Thumb Code    88  app_timer2.o(i.rtc_irq)
    i.rtc_schedule                           0x0002d830   Section        0  app_timer2.o(i.rtc_schedule)
    rtc_schedule                             0x0002d831   Thumb Code    92  app_timer2.o(i.rtc_schedule)
    i.rtc_update                             0x0002d894   Section        0  app_timer2.o(i.rtc_update)
    rtc_update                               0x0002d895   Thumb Code   108  app_timer2.o(i.rtc_update)
    i.rx_byte                                0x0002d908   Section        0  nrfx_uart.o(i.rx_byte)
    rx_byte                                  0x0002d909   Thumb Code    50  nrfx_uart.o(i.rx_byte)
    i.rx_done_event                          0x0002d93a   Section        0  nrfx_uart.o(i.rx_done_event)
    rx_done_event                            0x0002d93b   Thumb Code    22  nrfx_uart.o(i.rx_done_event)
    i.rx_done_event                          0x0002d950   Section        0  nrfx_uarte.o(i.rx_done_event)
    rx_done_event                            0x0002d951   Thumb Code    22  nrfx_uarte.o(i.rx_done_event)
    i.rx_enable                              0x0002d966   Section        0  nrfx_uart.o(i.rx_enable)
    rx_enable                                0x0002d967   Thumb Code    32  nrfx_uart.o(i.rx_enable)
    i.sc_send_pending_handle                 0x0002d988   Section        0  gatt_cache_manager.o(i.sc_send_pending_handle)
    sc_send_pending_handle                   0x0002d989   Thumb Code    30  gatt_cache_manager.o(i.sc_send_pending_handle)
    i.scan_evt_handler                       0x0002d9ac   Section        0  main.o(i.scan_evt_handler)
    scan_evt_handler                         0x0002d9ad   Thumb Code    60  main.o(i.scan_evt_handler)
    i.scan_init                              0x0002da18   Section        0  main.o(i.scan_init)
    scan_init                                0x0002da19   Thumb Code   118  main.o(i.scan_init)
    i.scan_start                             0x0002da9c   Section        0  main.o(i.scan_start)
    scan_start                               0x0002da9d   Thumb Code    34  main.o(i.scan_start)
    i.sd_state_evt_handler                   0x0002dac4   Section        0  nrf_drv_clock.o(i.sd_state_evt_handler)
    sd_state_evt_handler                     0x0002dac5   Thumb Code    84  nrf_drv_clock.o(i.sd_state_evt_handler)
    i.sdh_request_observer_notify            0x0002db1c   Section        0  nrf_sdh.o(i.sdh_request_observer_notify)
    sdh_request_observer_notify              0x0002db1d   Thumb Code    44  nrf_sdh.o(i.sdh_request_observer_notify)
    i.sdh_state_observer_notify              0x0002db4c   Section        0  nrf_sdh.o(i.sdh_state_observer_notify)
    sdh_state_observer_notify                0x0002db4d   Thumb Code    38  nrf_sdh.o(i.sdh_state_observer_notify)
    i.sec_info_request_process               0x0002db78   Section        0  security_dispatcher.o(i.sec_info_request_process)
    sec_info_request_process                 0x0002db79   Thumb Code   150  security_dispatcher.o(i.sec_info_request_process)
    i.sec_keyset_fill                        0x0002dc10   Section        0  security_dispatcher.o(i.sec_keyset_fill)
    sec_keyset_fill                          0x0002dc11   Thumb Code    96  security_dispatcher.o(i.sec_keyset_fill)
    i.sec_proc_start                         0x0002dc74   Section        0  security_dispatcher.o(i.sec_proc_start)
    sec_proc_start                           0x0002dc75   Thumb Code    86  security_dispatcher.o(i.sec_proc_start)
    i.sec_procedure                          0x0002dcd4   Section        0  security_dispatcher.o(i.sec_procedure)
    sec_procedure                            0x0002dcd5   Thumb Code     8  security_dispatcher.o(i.sec_procedure)
    i.sec_req_process                        0x0002dce0   Section        0  security_manager.o(i.sec_req_process)
    sec_req_process                          0x0002dce1   Thumb Code    86  security_manager.o(i.sec_req_process)
    i.send_config_req                        0x0002dd3c   Section        0  security_dispatcher.o(i.send_config_req)
    send_config_req                          0x0002dd3d   Thumb Code    34  security_dispatcher.o(i.send_config_req)
    i.send_error_evt                         0x0002dd60   Section        0  ble_conn_params.o(i.send_error_evt)
    send_error_evt                           0x0002dd61   Thumb Code    12  ble_conn_params.o(i.send_error_evt)
    i.send_unexpected_error                  0x0002dd70   Section        0  gatt_cache_manager.o(i.send_unexpected_error)
    send_unexpected_error                    0x0002dd71   Thumb Code    34  gatt_cache_manager.o(i.send_unexpected_error)
    i.send_unexpected_error                  0x0002dd98   Section        0  security_dispatcher.o(i.send_unexpected_error)
    send_unexpected_error                    0x0002dd99   Thumb Code    34  security_dispatcher.o(i.send_unexpected_error)
    i.service_changed_pending_flags_check    0x0002ddc0   Section        0  gatt_cache_manager.o(i.service_changed_pending_flags_check)
    service_changed_pending_flags_check      0x0002ddc1   Thumb Code    12  gatt_cache_manager.o(i.service_changed_pending_flags_check)
    i.service_changed_pending_set            0x0002ddd4   Section        0  gatts_cache_manager.o(i.service_changed_pending_set)
    service_changed_pending_set              0x0002ddd5   Thumb Code    98  gatts_cache_manager.o(i.service_changed_pending_set)
    i.service_changed_send_in_evt            0x0002de40   Section        0  gatt_cache_manager.o(i.service_changed_send_in_evt)
    service_changed_send_in_evt              0x0002de41   Thumb Code   246  gatt_cache_manager.o(i.service_changed_send_in_evt)
    i.service_data_encode                    0x0002df40   Section        0  ble_advdata.o(i.service_data_encode)
    service_data_encode                      0x0002df41   Thumb Code   136  ble_advdata.o(i.service_data_encode)
    i.set_security_req                       0x0002dfc8   Section        0  ble_srv_common.o(i.set_security_req)
    set_security_req                         0x0002dfc9   Thumb Code    48  ble_srv_common.o(i.set_security_req)
    i.shutdown_handler                       0x0002dff8   Section        0  main.o(i.shutdown_handler)
    shutdown_handler                         0x0002dff9   Thumb Code    32  main.o(i.shutdown_handler)
    i.sm_ble_evt_handler                     0x0002e018   Section        0  security_manager.o(i.sm_ble_evt_handler)
    i.sm_conn_sec_status_get                 0x0002e044   Section        0  security_manager.o(i.sm_conn_sec_status_get)
    i.sm_pdb_evt_handler                     0x0002e0e8   Section        0  security_manager.o(i.sm_pdb_evt_handler)
    i.sm_sec_is_sufficient                   0x0002e12c   Section        0  security_manager.o(i.sm_sec_is_sufficient)
    i.sm_smd_evt_handler                     0x0002e154   Section        0  security_manager.o(i.sm_smd_evt_handler)
    i.smd_ble_evt_handler                    0x0002e180   Section        0  security_dispatcher.o(i.smd_ble_evt_handler)
    i.smd_link_secure                        0x0002e298   Section        0  security_dispatcher.o(i.smd_link_secure)
    i.smd_params_reply                       0x0002e2d4   Section        0  security_dispatcher.o(i.smd_params_reply)
    i.smd_params_reply_perform               0x0002e380   Section        0  security_manager.o(i.smd_params_reply_perform)
    smd_params_reply_perform                 0x0002e381   Thumb Code    58  security_manager.o(i.smd_params_reply_perform)
    i.soc_evt_handler                        0x0002e3c0   Section        0  nrf_drv_clock.o(i.soc_evt_handler)
    soc_evt_handler                          0x0002e3c1   Thumb Code    18  nrf_drv_clock.o(i.soc_evt_handler)
    i.softdevice_evt_irq_disable             0x0002e3d8   Section        0  nrf_sdh.o(i.softdevice_evt_irq_disable)
    softdevice_evt_irq_disable               0x0002e3d9   Thumb Code    60  nrf_sdh.o(i.softdevice_evt_irq_disable)
    i.softdevices_evt_irq_enable             0x0002e418   Section        0  nrf_sdh.o(i.softdevices_evt_irq_enable)
    softdevices_evt_irq_enable               0x0002e419   Thumb Code    80  nrf_sdh.o(i.softdevices_evt_irq_enable)
    i.sortlist_pop                           0x0002e470   Section        0  app_timer2.o(i.sortlist_pop)
    sortlist_pop                             0x0002e471   Thumb Code     6  app_timer2.o(i.sortlist_pop)
    i.store_car_value                        0x0002e47c   Section        0  gatt_cache_manager.o(i.store_car_value)
    i.timer_1ms_handle                       0x0002e4c0   Section        0  main.o(i.timer_1ms_handle)
    i.timer_expire                           0x0002e540   Section        0  app_timer2.o(i.timer_expire)
    timer_expire                             0x0002e541   Thumb Code    80  app_timer2.o(i.timer_expire)
    i.timer_req_process                      0x0002e598   Section        0  app_timer2.o(i.timer_req_process)
    timer_req_process                        0x0002e599   Thumb Code   110  app_timer2.o(i.timer_req_process)
    i.timer_req_schedule                     0x0002e610   Section        0  app_timer2.o(i.timer_req_schedule)
    timer_req_schedule                       0x0002e611   Thumb Code    46  app_timer2.o(i.timer_req_schedule)
    i.tx_byte                                0x0002e648   Section        0  nrfx_uart.o(i.tx_byte)
    tx_byte                                  0x0002e649   Thumb Code    32  nrfx_uart.o(i.tx_byte)
    i.tx_done_event                          0x0002e668   Section        0  nrfx_uart.o(i.tx_done_event)
    tx_done_event                            0x0002e669   Thumb Code    26  nrfx_uart.o(i.tx_done_event)
    i.tx_done_event                          0x0002e682   Section        0  nrfx_uarte.o(i.tx_done_event)
    tx_done_event                            0x0002e683   Thumb Code    26  nrfx_uarte.o(i.tx_done_event)
    i.uart_event_handle                      0x0002e69c   Section        0  main.o(i.uart_event_handle)
    i.uart_event_handler                     0x0002e734   Section        0  app_uart_fifo.o(i.uart_event_handler)
    uart_event_handler                       0x0002e735   Thumb Code   156  app_uart_fifo.o(i.uart_event_handler)
    i.uart_evt_handler                       0x0002e7d8   Section        0  nrf_drv_uart.o(i.uart_evt_handler)
    uart_evt_handler                         0x0002e7d9   Thumb Code    42  nrf_drv_uart.o(i.uart_evt_handler)
    i.uart_irq_handler                       0x0002e808   Section        0  nrfx_uart.o(i.uart_irq_handler)
    uart_irq_handler                         0x0002e809   Thumb Code   298  nrfx_uart.o(i.uart_irq_handler)
    i.uarte_evt_handler                      0x0002e934   Section        0  nrf_drv_uart.o(i.uarte_evt_handler)
    uarte_evt_handler                        0x0002e935   Thumb Code    42  nrf_drv_uart.o(i.uarte_evt_handler)
    i.uarte_irq_handler                      0x0002e964   Section        0  nrfx_uarte.o(i.uarte_irq_handler)
    uarte_irq_handler                        0x0002e965   Thumb Code   274  nrfx_uarte.o(i.uarte_irq_handler)
    i.uint16_encode                          0x0002ea76   Section        0  ble_advdata.o(i.uint16_encode)
    uint16_encode                            0x0002ea77   Thumb Code    10  ble_advdata.o(i.uint16_encode)
    i.update_pending_flags_check             0x0002ea80   Section        0  gatt_cache_manager.o(i.update_pending_flags_check)
    update_pending_flags_check               0x0002ea81   Thumb Code    34  gatt_cache_manager.o(i.update_pending_flags_check)
    i.update_timeout_handler                 0x0002eab0   Section        0  ble_conn_params.o(i.update_timeout_handler)
    update_timeout_handler                   0x0002eab1   Thumb Code    98  ble_conn_params.o(i.update_timeout_handler)
    i.use_whitelist                          0x0002eb18   Section        0  ble_advertising.o(i.use_whitelist)
    use_whitelist                            0x0002eb19   Thumb Code    24  ble_advertising.o(i.use_whitelist)
    i.user_flag_is_acquired                  0x0002eb30   Section        0  ble_conn_state.o(i.user_flag_is_acquired)
    user_flag_is_acquired                    0x0002eb31   Thumb Code     8  ble_conn_state.o(i.user_flag_is_acquired)
    i.user_mem_reply                         0x0002eb3c   Section        0  nrf_ble_qwr.o(i.user_mem_reply)
    user_mem_reply                           0x0002eb3d   Thumb Code    36  nrf_ble_qwr.o(i.user_mem_reply)
    i.uuid_list_encode                       0x0002eb60   Section        0  ble_advdata.o(i.uuid_list_encode)
    uuid_list_encode                         0x0002eb61   Thumb Code    48  ble_advdata.o(i.uuid_list_encode)
    i.uuid_list_sized_encode                 0x0002eb90   Section        0  ble_advdata.o(i.uuid_list_sized_encode)
    uuid_list_sized_encode                   0x0002eb91   Thumb Code   158  ble_advdata.o(i.uuid_list_sized_encode)
    i.wakeup_button_cfg                      0x0002ec2e   Section        0  bsp.o(i.wakeup_button_cfg)
    wakeup_button_cfg                        0x0002ec2f   Thumb Code    58  bsp.o(i.wakeup_button_cfg)
    i.write_buf_store                        0x0002ec68   Section        0  peer_database.o(i.write_buf_store)
    i.write_buffer_record_find               0x0002ed10   Section        0  peer_database.o(i.write_buffer_record_find)
    write_buffer_record_find                 0x0002ed11   Thumb Code    52  peer_database.o(i.write_buffer_record_find)
    i.write_buffer_record_find_next          0x0002ed44   Section        0  peer_database.o(i.write_buffer_record_find_next)
    write_buffer_record_find_next            0x0002ed45   Thumb Code    42  peer_database.o(i.write_buffer_record_find_next)
    i.write_buffer_record_invalidate         0x0002ed74   Section        0  peer_database.o(i.write_buffer_record_invalidate)
    write_buffer_record_invalidate           0x0002ed75   Thumb Code    28  peer_database.o(i.write_buffer_record_invalidate)
    i.write_buffer_record_release            0x0002ed90   Section        0  peer_database.o(i.write_buffer_record_release)
    write_buffer_record_release              0x0002ed91   Thumb Code    38  peer_database.o(i.write_buffer_record_release)
    i.write_enqueue                          0x0002edbc   Section        0  fds.o(i.write_enqueue)
    write_enqueue                            0x0002edbd   Thumb Code   234  fds.o(i.write_enqueue)
    i.write_execute                          0x0002eeb0   Section        0  fds.o(i.write_execute)
    write_execute                            0x0002eeb1   Thumb Code   236  fds.o(i.write_execute)
    i.write_space_free                       0x0002efa8   Section        0  fds.o(i.write_space_free)
    write_space_free                         0x0002efa9   Thumb Code    20  fds.o(i.write_space_free)
    i.write_space_reserve                    0x0002efc0   Section        0  fds.o(i.write_space_reserve)
    write_space_reserve                      0x0002efc1   Thumb Code    90  fds.o(i.write_space_reserve)
    .constdata                               0x0002f020   Section       20  main.o(.constdata)
    m_ble_gatt_queuereq_queue                0x0002f020   Data          20  main.o(.constdata)
    .constdata                               0x0002f040   Section       80  main.o(.constdata)
    m_nus_uuid                               0x0002f040   Data           4  main.o(.constdata)
    my_timer                                 0x0002f044   Data           4  main.o(.constdata)
    delay_machine_code                       0x0002f050   Data           6  main.o(.constdata)
    m_target_periph_addr                     0x0002f05e   Data           7  main.o(.constdata)
    m_target_periph_name                     0x0002f065   Data          18  main.o(.constdata)
    .constdata                               0x0002f090   Section        4  boards.o(.constdata)
    m_board_btn_list                         0x0002f090   Data           4  boards.o(.constdata)
    .constdata                               0x0002f094   Section      124  ble_db_discovery.o(.constdata)
    .constdata                               0x0002f110   Section       22  nrf_ble_gatt.o(.constdata)
    .constdata                               0x0002f128   Section       24  nrf_ble_gq.o(.constdata)
    m_req_data_alloc                         0x0002f128   Data          24  nrf_ble_gq.o(.constdata)
    .constdata                               0x0002f140   Section       16  ble_nus_c.o(.constdata)
    .constdata                               0x0002f150   Section       16  ble_nus.o(.constdata)
    .constdata                               0x0002f160   Section        4  nrfx_gpiote.o(.constdata)
    .constdata                               0x0002f164   Section        4  nrfx_uart.o(.constdata)
    irq_handlers                             0x0002f164   Data           4  nrfx_uart.o(.constdata)
    .constdata                               0x0002f168   Section        4  nrfx_uarte.o(.constdata)
    irq_handlers                             0x0002f168   Data           4  nrfx_uarte.o(.constdata)
    .constdata                               0x0002f16c   Section      108  gatt_cache_manager.o(.constdata)
    car_value_true                           0x0002f170   Data           4  gatt_cache_manager.o(.constdata)
    car_value_false                          0x0002f174   Data           4  gatt_cache_manager.o(.constdata)
    .constdata                               0x0002f1d8   Section        4  gatts_cache_manager.o(.constdata)
    service_changed_pending                  0x0002f1d8   Data           4  gatts_cache_manager.o(.constdata)
    .constdata                               0x0002f1dc   Section       16  gatts_cache_manager.o(.constdata)
    .constdata                               0x0002f1ec   Section        4  gatts_cache_manager.o(.constdata)
    service_changed_pending                  0x0002f1ec   Data           4  gatts_cache_manager.o(.constdata)
    .constdata                               0x0002f1f0   Section        8  id_manager.o(.constdata)
    m_evt_handlers                           0x0002f1f0   Data           8  id_manager.o(.constdata)
    .constdata                               0x0002f1f8   Section       24  peer_data_storage.o(.constdata)
    m_evt_handlers                           0x0002f1f8   Data           4  peer_data_storage.o(.constdata)
    .constdata                               0x0002f210   Section       16  peer_database.o(.constdata)
    m_evt_handlers                           0x0002f210   Data          16  peer_database.o(.constdata)
    .constdata                               0x0002f220   Section      124  security_dispatcher.o(.constdata)
    m_evt_handlers                           0x0002f220   Data           4  security_dispatcher.o(.constdata)
    .constdata                               0x0002f29c   Section        8  security_manager.o(.constdata)
    m_evt_handlers                           0x0002f2a0   Data           4  security_manager.o(.constdata)
    .constdata                               0x0002f2a4   Section       24  fds.o(.constdata)
    m_queue                                  0x0002f2a4   Data           4  fds.o(.constdata)
    dirty_header                             0x0002f2a8   Data           4  fds.o(.constdata)
    page_tag_swap                            0x0002f2ac   Data           8  fds.o(.constdata)
    page_tag_data                            0x0002f2b4   Data           8  fds.o(.constdata)
    .constdata                               0x0002f2bc   Section       16  nrf_fstorage_sd.o(.constdata)
    m_fifo                                   0x0002f2bc   Data           4  nrf_fstorage_sd.o(.constdata)
    m_flash_info                             0x0002f2c0   Data          12  nrf_fstorage_sd.o(.constdata)
    .constdata                               0x0002f2cc   Section       20  app_timer2.o(.constdata)
    m_req_fifo                               0x0002f2cc   Data           4  app_timer2.o(.constdata)
    m_app_timer_sortlist                     0x0002f2d4   Data          12  app_timer2.o(.constdata)
    .constdata                               0x0002f2e0   Section       32  app_uart_fifo.o(.constdata)
    .constdata                               0x0002f300   Section        6  drv_rtc.o(.constdata)
    delay_machine_code                       0x0002f300   Data           6  drv_rtc.o(.constdata)
    .constdata                               0x0002f308   Section       24  nrf_pwr_mgmt.o(.constdata)
    pwr_mgmt_data_array                      0x0002f308   Data          24  nrf_pwr_mgmt.o(.constdata)
    .constdata                               0x0002f320   Section       12  nrf_pwr_mgmt.o(.constdata)
    pwr_mgmt_data                            0x0002f320   Data          12  nrf_pwr_mgmt.o(.constdata)
    .constdata                               0x0002f32c   Section       16  nrf_sdh.o(.constdata)
    sdh_req_observers_array                  0x0002f32c   Data          16  nrf_sdh.o(.constdata)
    .constdata                               0x0002f33c   Section       40  nrf_sdh.o(.constdata)
    sdh_req_observers                        0x0002f340   Data          12  nrf_sdh.o(.constdata)
    sdh_state_observers                      0x0002f34c   Data          12  nrf_sdh.o(.constdata)
    sdh_stack_observers                      0x0002f358   Data          12  nrf_sdh.o(.constdata)
    .constdata                               0x0002f364   Section       16  nrf_sdh.o(.constdata)
    sdh_state_observers_array                0x0002f364   Data          16  nrf_sdh.o(.constdata)
    .constdata                               0x0002f374   Section       16  nrf_sdh.o(.constdata)
    sdh_stack_observers_array                0x0002f374   Data          16  nrf_sdh.o(.constdata)
    .constdata                               0x0002f384   Section       32  nrf_sdh_ble.o(.constdata)
    sdh_ble_observers_array                  0x0002f384   Data          32  nrf_sdh_ble.o(.constdata)
    .constdata                               0x0002f3a4   Section       16  nrf_sdh_ble.o(.constdata)
    sdh_ble_observers                        0x0002f3a8   Data          12  nrf_sdh_ble.o(.constdata)
    .constdata                               0x0002f3b4   Section       16  nrf_sdh_soc.o(.constdata)
    sdh_soc_observers_array                  0x0002f3b4   Data          16  nrf_sdh_soc.o(.constdata)
    .constdata                               0x0002f3c4   Section       12  nrf_sdh_soc.o(.constdata)
    sdh_soc_observers                        0x0002f3c4   Data          12  nrf_sdh_soc.o(.constdata)
    nrf_balloc                               0x0002f3f0   Section       20  main.o(nrf_balloc)
    __tagsym$$used                           0x0002f3f0   Number         0  main.o(nrf_balloc)
    nrf_queue                                0x0002f404   Section       20  main.o(nrf_queue)
    __tagsym$$used                           0x0002f404   Number         0  main.o(nrf_queue)
    pwr_mgmt_data1                           0x0002f418   Section        4  main.o(pwr_mgmt_data1)
    __tagsym$$used                           0x0002f418   Number         0  main.o(pwr_mgmt_data1)
    shutdown_handler_handler_function        0x0002f418   Data           4  main.o(pwr_mgmt_data1)
    sdh_ble_observers0                       0x0002f41c   Section        8  ble_conn_state.o(sdh_ble_observers0)
    __tagsym$$used                           0x0002f41c   Number         0  ble_conn_state.o(sdh_ble_observers0)
    m_ble_evt_observer                       0x0002f41c   Data           8  ble_conn_state.o(sdh_ble_observers0)
    sdh_ble_observers1                       0x0002f424   Section       40  main.o(sdh_ble_observers1)
    __tagsym$$used                           0x0002f424   Number         0  main.o(sdh_ble_observers1)
    m_gatt_obs                               0x0002f424   Data           8  main.o(sdh_ble_observers1)
    __tagsym$$used                           0x0002f42c   Number         0  main.o(sdh_ble_observers1)
    m_db_disc_obs                            0x0002f42c   Data           8  main.o(sdh_ble_observers1)
    __tagsym$$used                           0x0002f434   Number         0  main.o(sdh_ble_observers1)
    m_scan_ble_obs                           0x0002f434   Data           8  main.o(sdh_ble_observers1)
    __tagsym$$used                           0x0002f43c   Number         0  main.o(sdh_ble_observers1)
    m_ble_gatt_queue_obs                     0x0002f43c   Data           8  main.o(sdh_ble_observers1)
    __tagsym$$used                           0x0002f444   Number         0  main.o(sdh_ble_observers1)
    m_advertising_ble_obs                    0x0002f444   Data           8  main.o(sdh_ble_observers1)
    sdh_ble_observers1                       0x0002f44c   Section        8  bsp_btn_ble.o(sdh_ble_observers1)
    __tagsym$$used                           0x0002f44c   Number         0  bsp_btn_ble.o(sdh_ble_observers1)
    m_ble_observer                           0x0002f44c   Data           8  bsp_btn_ble.o(sdh_ble_observers1)
    sdh_ble_observers1                       0x0002f454   Section        8  ble_conn_params.o(sdh_ble_observers1)
    __tagsym$$used                           0x0002f454   Number         0  ble_conn_params.o(sdh_ble_observers1)
    m_ble_observer                           0x0002f454   Data           8  ble_conn_params.o(sdh_ble_observers1)
    sdh_ble_observers1                       0x0002f45c   Section        8  peer_manager.o(sdh_ble_observers1)
    __tagsym$$used                           0x0002f45c   Number         0  peer_manager.o(sdh_ble_observers1)
    m_ble_evt_observer                       0x0002f45c   Data           8  peer_manager.o(sdh_ble_observers1)
    sdh_ble_observers2                       0x0002f464   Section       24  main.o(sdh_ble_observers2)
    __tagsym$$used                           0x0002f464   Number         0  main.o(sdh_ble_observers2)
    m_ble_nus_c_obs                          0x0002f464   Data           8  main.o(sdh_ble_observers2)
    __tagsym$$used                           0x0002f46c   Number         0  main.o(sdh_ble_observers2)
    m_nus_obs                                0x0002f46c   Data           8  main.o(sdh_ble_observers2)
    __tagsym$$used                           0x0002f474   Number         0  main.o(sdh_ble_observers2)
    m_qwr_obs                                0x0002f474   Data           8  main.o(sdh_ble_observers2)
    sdh_ble_observers3                       0x0002f47c   Section        8  main.o(sdh_ble_observers3)
    __tagsym$$used                           0x0002f47c   Number         0  main.o(sdh_ble_observers3)
    m_ble_observer                           0x0002f47c   Data           8  main.o(sdh_ble_observers3)
    sdh_req_observers0                       0x0002f484   Section        8  nrf_fstorage_sd.o(sdh_req_observers0)
    __tagsym$$used                           0x0002f484   Number         0  nrf_fstorage_sd.o(sdh_req_observers0)
    sdh_soc_observers0                       0x0002f48c   Section        8  nrf_drv_clock.o(sdh_soc_observers0)
    __tagsym$$used                           0x0002f48c   Number         0  nrf_drv_clock.o(sdh_soc_observers0)
    m_soc_evt_observer                       0x0002f48c   Data           8  nrf_drv_clock.o(sdh_soc_observers0)
    sdh_soc_observers0                       0x0002f494   Section        8  nrf_fstorage_sd.o(sdh_soc_observers0)
    __tagsym$$used                           0x0002f494   Number         0  nrf_fstorage_sd.o(sdh_soc_observers0)
    m_sys_obs                                0x0002f494   Data           8  nrf_fstorage_sd.o(sdh_soc_observers0)
    sdh_stack_observers0                     0x0002f49c   Section        8  nrf_sdh_ble.o(sdh_stack_observers0)
    __tagsym$$used                           0x0002f49c   Number         0  nrf_sdh_ble.o(sdh_stack_observers0)
    m_nrf_sdh_ble_evts_poll                  0x0002f49c   Data           8  nrf_sdh_ble.o(sdh_stack_observers0)
    sdh_stack_observers0                     0x0002f4a4   Section        8  nrf_sdh_soc.o(sdh_stack_observers0)
    __tagsym$$used                           0x0002f4a4   Number         0  nrf_sdh_soc.o(sdh_stack_observers0)
    m_nrf_sdh_soc_evts_poll                  0x0002f4a4   Data           8  nrf_sdh_soc.o(sdh_stack_observers0)
    sdh_state_observers0                     0x0002f4ac   Section        8  nrf_drv_clock.o(sdh_state_observers0)
    __tagsym$$used                           0x0002f4ac   Number         0  nrf_drv_clock.o(sdh_state_observers0)
    m_sd_state_observer                      0x0002f4ac   Data           8  nrf_drv_clock.o(sdh_state_observers0)
    sdh_state_observers0                     0x0002f4b4   Section        8  nrf_fstorage_sd.o(sdh_state_observers0)
    __tagsym$$used                           0x0002f4b4   Number         0  nrf_fstorage_sd.o(sdh_state_observers0)
    m_state_obs                              0x0002f4b4   Data           8  nrf_fstorage_sd.o(sdh_state_observers0)
    .data                                    0x200039c8   Section     1572  main.o(.data)
    rf_receive_eable                         0x200039c8   Data           1  main.o(.data)
    ble_adv_enable                           0x200039c9   Data           1  main.o(.data)
    m_ble_nus_max_data_len                   0x200039ca   Data           2  main.o(.data)
    m_conn_handle                            0x200039cc   Data           2  main.o(.data)
    uart_event_index                         0x200039ce   Data           2  main.o(.data)
    m_adv_uuids                              0x200039d0   Data           4  main.o(.data)
    uart_event_tick_pre                      0x200039d4   Data           4  main.o(.data)
    m_db_disc                                0x200039ec   Data        1488  main.o(.data)
    m_ble_gatt_queue                         0x20003fbc   Data          20  main.o(.data)
    m_nus                                    0x20003fd0   Data          28  main.o(.data)
    .data                                    0x20003fec   Section        2  main.o(.data)
    m_ble_gatt_queueconn_handles_arr         0x20003fec   Data           2  main.o(.data)
    .data                                    0x20003ff0   Section        8  main.o(.data)
    m_nus_link_ctx_storage                   0x20003ff0   Data           8  main.o(.data)
    .data                                    0x20003ff8   Section        4  main.o(.data)
    m_ble_gatt_queuepurge_queue_nrf_queue_buffer 0x20003ff8   Data           4  main.o(.data)
    .data                                    0x20003ffc   Section        8  main.o(.data)
    m_ble_gatt_queuepool_nrf_balloc_pool_stack 0x20003ffc   Data           8  main.o(.data)
    .data                                    0x20004004   Section        8  main.o(.data)
    m_ble_gatt_queuepool_nrf_balloc_cb       0x20004004   Data           8  main.o(.data)
    .data                                    0x2000400c   Section        8  main.o(.data)
    m_nus_link_ctx_storage_ctx_data_pool     0x2000400c   Data           8  main.o(.data)
    .data                                    0x20004014   Section        8  bsp_btn_ble.o(.data)
    m_error_handler                          0x20004014   Data           4  bsp_btn_ble.o(.data)
    m_num_connections                        0x20004018   Data           4  bsp_btn_ble.o(.data)
    .data                                    0x2000401c   Section       16  ble_db_discovery.o(.data)
    m_initialized                            0x2000401c   Data           1  ble_db_discovery.o(.data)
    m_evt_handler                            0x20004020   Data           4  ble_db_discovery.o(.data)
    mp_gatt_queue                            0x20004024   Data           4  ble_db_discovery.o(.data)
    m_num_of_handlers_reg                    0x20004028   Data           4  ble_db_discovery.o(.data)
    .data                                    0x2000402c   Section        8  ble_conn_params.o(.data)
    m_preferred_conn_params                  0x2000402c   Data           8  ble_conn_params.o(.data)
    .data                                    0x20004034   Section       12  nrf_drv_uart.o(.data)
    m_handlers                               0x20004038   Data           4  nrf_drv_uart.o(.data)
    m_contexts                               0x2000403c   Data           4  nrf_drv_uart.o(.data)
    .data                                    0x20004040   Section        8  nrfx_clock.o(.data)
    m_clock_cb                               0x20004040   Data           8  nrfx_clock.o(.data)
    .data                                    0x20004048   Section        8  nrfx_prs.o(.data)
    m_prs_box_2                              0x20004048   Data           8  nrfx_prs.o(.data)
    .data                                    0x20004050   Section       16  gatt_cache_manager.o(.data)
    m_module_initialized                     0x20004050   Data           1  gatt_cache_manager.o(.data)
    m_flag_local_db_update_pending           0x20004051   Data           1  gatt_cache_manager.o(.data)
    m_flag_local_db_apply_pending            0x20004052   Data           1  gatt_cache_manager.o(.data)
    m_flag_service_changed_pending           0x20004053   Data           1  gatt_cache_manager.o(.data)
    m_flag_service_changed_sent              0x20004054   Data           1  gatt_cache_manager.o(.data)
    m_flag_car_update_pending                0x20004055   Data           1  gatt_cache_manager.o(.data)
    m_flag_car_handle_queried                0x20004056   Data           1  gatt_cache_manager.o(.data)
    m_flag_car_value_queried                 0x20004057   Data           1  gatt_cache_manager.o(.data)
    m_evt_handlers                           0x20004058   Data           4  gatt_cache_manager.o(.data)
    m_db_update_in_progress_mutex            0x2000405c   Data           4  gatt_cache_manager.o(.data)
    .data                                    0x20004060   Section       12  gatts_cache_manager.o(.data)
    m_module_initialized                     0x20004060   Data           1  gatts_cache_manager.o(.data)
    start_handle                             0x20004062   Data           2  gatts_cache_manager.o(.data)
    m_current_sc_store_peer_id               0x20004064   Data           2  gatts_cache_manager.o(.data)
    m_evt_handlers                           0x20004068   Data           4  gatts_cache_manager.o(.data)
    .data                                    0x2000406c   Section       12  peer_data_storage.o(.data)
    m_module_initialized                     0x2000406c   Data           1  peer_data_storage.o(.data)
    m_peer_delete_deferred                   0x2000406d   Data           1  peer_data_storage.o(.data)
    m_fds_ftok                               0x20004070   Data           8  peer_data_storage.o(.data)
    .data                                    0x20004078   Section        8  peer_database.o(.data)
    m_pending_store                          0x20004078   Data           1  peer_database.o(.data)
    m_module_initialized                     0x20004079   Data           1  peer_database.o(.data)
    mutex_memory                             0x2000407c   Data           4  peer_database.o(.data)
    .data                                    0x20004080   Section       16  peer_manager.o(.data)
    m_module_initialized                     0x20004080   Data           1  peer_manager.o(.data)
    m_peer_rank_initialized                  0x20004081   Data           1  peer_manager.o(.data)
    m_deleting_all                           0x20004082   Data           1  peer_manager.o(.data)
    m_n_registrants                          0x20004083   Data           1  peer_manager.o(.data)
    m_highest_ranked_peer                    0x20004084   Data           2  peer_manager.o(.data)
    m_peer_rank_token                        0x20004088   Data           4  peer_manager.o(.data)
    m_current_highest_peer_rank              0x2000408c   Data           4  peer_manager.o(.data)
    .data                                    0x20004090   Section        5  security_dispatcher.o(.data)
    m_flag_sec_proc                          0x20004090   Data           1  security_dispatcher.o(.data)
    m_flag_sec_proc_pairing                  0x20004091   Data           1  security_dispatcher.o(.data)
    m_flag_sec_proc_bonding                  0x20004092   Data           1  security_dispatcher.o(.data)
    m_flag_allow_repairing                   0x20004093   Data           1  security_dispatcher.o(.data)
    m_module_initialized                     0x20004094   Data           1  security_dispatcher.o(.data)
    .data                                    0x20004098   Section       21  security_manager.o(.data)
    m_sec_params_set                         0x20004098   Data           1  security_manager.o(.data)
    m_flag_link_secure_pending_busy          0x20004099   Data           1  security_manager.o(.data)
    m_flag_link_secure_force_repairing       0x2000409a   Data           1  security_manager.o(.data)
    m_flag_link_secure_null_params           0x2000409b   Data           1  security_manager.o(.data)
    m_flag_params_reply_pending_busy         0x2000409c   Data           1  security_manager.o(.data)
    m_module_initialized                     0x2000409d   Data           1  security_manager.o(.data)
    mp_sec_params                            0x200040a0   Data           4  security_manager.o(.data)
    m_p_public_key                           0x200040a4   Data           4  security_manager.o(.data)
    m_sec_params                             0x200040a8   Data           5  security_manager.o(.data)
    .data                                    0x200040b0   Section       48  fds.o(.data)
    page                                     0x200040b0   Data           2  fds.o(.data)
    m_p_cur_op                               0x200040b4   Data           4  fds.o(.data)
    m_iget_ctx                               0x200040b8   Data           4  fds.o(.data)
    m_queued_op_cnt                          0x200040bc   Data           4  fds.o(.data)
    m_users                                  0x200040c0   Data           4  fds.o(.data)
    m_latest_rec_id                          0x200040c4   Data           4  fds.o(.data)
    tok                                      0x200040c8   Data           8  fds.o(.data)
    m_flags                                  0x200040d0   Data           8  fds.o(.data)
    m_swap_page                              0x200040d8   Data           8  fds.o(.data)
    .data                                    0x200040e0   Section        8  nrf_fstorage_sd.o(.data)
    m_p_cur_op                               0x200040e0   Data           4  nrf_fstorage_sd.o(.data)
    m_iget_ctx                               0x200040e4   Data           4  nrf_fstorage_sd.o(.data)
    .data                                    0x200040e8   Section       32  app_timer2.o(.data)
    m_global_active                          0x200040e8   Data           1  app_timer2.o(.data)
    mp_active_timer                          0x200040ec   Data           4  app_timer2.o(.data)
    m_rtc_inst                               0x200040f0   Data           8  app_timer2.o(.data)
    m_base_counter                           0x200040f8   Data           8  app_timer2.o(.data)
    m_stamp64                                0x20004100   Data           8  app_timer2.o(.data)
    .data                                    0x20004108   Section        4  app_timer2.o(.data)
    m_app_timer_sortlist_sortlist_cb         0x20004108   Data           4  app_timer2.o(.data)
    .data                                    0x2000410c   Section       28  app_uart_fifo.o(.data)
    tx_buffer                                0x2000410c   Data           1  app_uart_fifo.o(.data)
    rx_buffer                                0x2000410d   Data           1  app_uart_fifo.o(.data)
    m_rx_ovf                                 0x2000410e   Data           1  app_uart_fifo.o(.data)
    m_event_handler                          0x20004110   Data           4  app_uart_fifo.o(.data)
    app_uart_inst                            0x20004114   Data          20  app_uart_fifo.o(.data)
    .data                                    0x20004128   Section       12  drv_rtc.o(.data)
    m_handlers                               0x20004128   Data           4  drv_rtc.o(.data)
    m_cb                                     0x2000412c   Data           8  drv_rtc.o(.data)
    .data                                    0x20004134   Section        8  nrf_pwr_mgmt.o(.data)
    m_pwr_mgmt_evt                           0x20004134   Data           1  nrf_pwr_mgmt.o(.data)
    m_shutdown_started                       0x20004135   Data           1  nrf_pwr_mgmt.o(.data)
    m_sysoff_mtx                             0x20004138   Data           4  nrf_pwr_mgmt.o(.data)
    .data                                    0x2000413c   Section        4  retarget.o(.data)
    .data                                    0x20004140   Section        3  nrf_sdh.o(.data)
    m_nrf_sdh_enabled                        0x20004140   Data           1  nrf_sdh.o(.data)
    m_nrf_sdh_suspended                      0x20004141   Data           1  nrf_sdh.o(.data)
    m_nrf_sdh_continue                       0x20004142   Data           1  nrf_sdh.o(.data)
    .data                                    0x20004143   Section        1  nrf_sdh_ble.o(.data)
    m_stack_is_enabled                       0x20004143   Data           1  nrf_sdh_ble.o(.data)
    .data                                    0x20004144   Section        4  system_nrf52.o(.data)
    __tagsym$$used                           0x20004144   Number         0  system_nrf52.o(.data)
    fs_data                                  0x20004148   Section       20  main.o(fs_data)
    __tagsym$$used                           0x20004148   Number         0  main.o(fs_data)
    fs_data                                  0x2000415c   Section       20  fds.o(fs_data)
    __tagsym$$used                           0x2000415c   Number         0  fds.o(fs_data)
    .bss                                     0x20004170   Section       32  main.o(.bss)
    my_timer_data                            0x20004170   Data          32  main.o(.bss)
    .bss                                     0x20004190   Section     2052  main.o(.bss)
    rx_buf                                   0x20004190   Data         256  main.o(.bss)
    tx_buf                                   0x20004290   Data         256  main.o(.bss)
    result                                   0x20004390   Data          30  main.o(.bss)
    m_ble_nus_c                              0x200043b0   Data          24  main.o(.bss)
    m_gatt                                   0x200043c8   Data          28  main.o(.bss)
    m_scan                                   0x200043e4   Data         124  main.o(.bss)
    m_qwr                                    0x20004460   Data          12  main.o(.bss)
    m_advertising                            0x2000446c   Data        1076  main.o(.bss)
    uart_event_data_array                    0x200048a0   Data         244  main.o(.bss)
    .bss                                     0x20004994   Section      160  main.o(.bss)
    m_ble_gatt_queuereq_queue0_nrf_queue_buffer 0x20004994   Data         160  main.o(.bss)
    .bss                                     0x20004a34   Section       12  main.o(.bss)
    m_ble_gatt_queuereq_queue0_nrf_queue_cb  0x20004a34   Data          12  main.o(.bss)
    .bss                                     0x20004a40   Section       12  main.o(.bss)
    m_ble_gatt_queuepurge_queue_nrf_queue_cb 0x20004a40   Data          12  main.o(.bss)
    .bss                                     0x20004a4c   Section      192  main.o(.bss)
    m_ble_gatt_queuepool_nrf_balloc_pool_mem 0x20004a4c   Data         192  main.o(.bss)
    .bss                                     0x20004b0c   Section       12  bsp.o(.bss)
    m_events_list                            0x20004b0c   Data          12  bsp.o(.bss)
    .bss                                     0x20004b18   Section       24  ble_db_discovery.o(.bss)
    m_registered_handlers                    0x20004b18   Data          24  ble_db_discovery.o(.bss)
    .bss                                     0x20004b30   Section       80  ble_conn_params.o(.bss)
    m_timer_data                             0x20004b30   Data          32  ble_conn_params.o(.bss)
    m_conn_params_instances                  0x20004b50   Data          20  ble_conn_params.o(.bss)
    m_conn_params_config                     0x20004b64   Data          28  ble_conn_params.o(.bss)
    .bss                                     0x20004b80   Section      124  ble_conn_state.o(.bss)
    m_bcs                                    0x20004b80   Data         124  ble_conn_state.o(.bss)
    .bss                                     0x20004bfc   Section       20  nrf_drv_clock.o(.bss)
    m_clock_cb                               0x20004bfc   Data          20  nrf_drv_clock.o(.bss)
    .bss                                     0x20004c10   Section       92  nrfx_gpiote.o(.bss)
    m_cb                                     0x20004c10   Data          92  nrfx_gpiote.o(.bss)
    .bss                                     0x20004c6c   Section       44  nrfx_uart.o(.bss)
    m_cb                                     0x20004c6c   Data          44  nrfx_uart.o(.bss)
    .bss                                     0x20004c98   Section       36  nrfx_uarte.o(.bss)
    m_cb                                     0x20004c98   Data          36  nrfx_uarte.o(.bss)
    .bss                                     0x20004cbc   Section      216  id_manager.o(.bss)
    m_connections                            0x20004cbc   Data         200  id_manager.o(.bss)
    m_wlisted_peers                          0x20004d84   Data          16  id_manager.o(.bss)
    .bss                                     0x20004d94   Section      384  peer_database.o(.bss)
    buffer_memory                            0x20004d94   Data         320  peer_database.o(.bss)
    m_write_buffer                           0x20004ed4   Data          16  peer_database.o(.bss)
    m_write_buffer_records                   0x20004ee4   Data          48  peer_database.o(.bss)
    .bss                                     0x20004f14   Section       64  peer_id.o(.bss)
    m_pi                                     0x20004f14   Data          64  peer_id.o(.bss)
    .bss                                     0x20004f54   Section       12  peer_manager.o(.bss)
    m_evt_handlers                           0x20004f54   Data          12  peer_manager.o(.bss)
    .bss                                     0x20004f60   Section       64  security_dispatcher.o(.bss)
    m_peer_pk                                0x20004f60   Data          64  security_dispatcher.o(.bss)
    .bss                                     0x20004fa0   Section       16  fds.o(.bss)
    m_queue_inst                             0x20004fa0   Data          16  fds.o(.bss)
    .bss                                     0x20004fb0   Section      224  fds.o(.bss)
    desc                                     0x20004fb0   Data          12  fds.o(.bss)
    m_cb_table                               0x20004fbc   Data          16  fds.o(.bss)
    m_queue_data                             0x20004fcc   Data         140  fds.o(.bss)
    m_pages                                  0x20005058   Data          40  fds.o(.bss)
    m_gc                                     0x20005080   Data          16  fds.o(.bss)
    .bss                                     0x20005090   Section       16  nrf_fstorage_sd.o(.bss)
    m_fifo_inst                              0x20005090   Data          16  nrf_fstorage_sd.o(.bss)
    .bss                                     0x200050a0   Section      160  nrf_fstorage_sd.o(.bss)
    m_fifo_data                              0x200050a0   Data         140  nrf_fstorage_sd.o(.bss)
    m_flags                                  0x2000512c   Data          20  nrf_fstorage_sd.o(.bss)
    .bss                                     0x20005140   Section       16  app_timer2.o(.bss)
    m_req_fifo_inst                          0x20005140   Data          16  app_timer2.o(.bss)
    .bss                                     0x20005150   Section       88  app_timer2.o(.bss)
    m_req_fifo_data                          0x20005150   Data          88  app_timer2.o(.bss)
    .bss                                     0x200051a8   Section       32  app_uart_fifo.o(.bss)
    m_rx_fifo                                0x200051a8   Data          16  app_uart_fifo.o(.bss)
    m_tx_fifo                                0x200051b8   Data          16  app_uart_fifo.o(.bss)
    .bss                                     0x200051c8   Section       12  app_util_platform.o(.bss)
    .bss                                     0x200051d4   Section       12  nrf_pwr_mgmt.o(.bss)
    m_handlers_iter                          0x200051d4   Data          12  nrf_pwr_mgmt.o(.bss)
    STACK                                    0x200051e0   Section     3072  arm_startup_nrf52805.o(STACK)

    Global Symbols

    Symbol Name                              Value     Ov Type        Size  Object(Section)

    BuildAttributes$$THM_ISAv4$E$P$D$K$B$S$7EM$PE$A:L22UL41UL21$X:L11$S22US41US21$IEEE1$IW$USESV6$~STKCKD$USESV7$~SHL$OSPACE$ROPI$EBA8$MICROLIB$REQ8$EABIv2 0x00000000   Number         0  anon$$obj.o ABSOLUTE
    __ARM_use_no_argv                        0x00000000   Number         0  main.o ABSOLUTE
    _printf_a                                0x00000000   Number         0  stubs.o ABSOLUTE
    _printf_c                                0x00000000   Number         0  stubs.o ABSOLUTE
    _printf_charcount                        0x00000000   Number         0  stubs.o ABSOLUTE
    _printf_d                                0x00000000   Number         0  stubs.o ABSOLUTE
    _printf_e                                0x00000000   Number         0  stubs.o ABSOLUTE
    _printf_f                                0x00000000   Number         0  stubs.o ABSOLUTE
    _printf_flags                            0x00000000   Number         0  stubs.o ABSOLUTE
    _printf_fp_dec                           0x00000000   Number         0  stubs.o ABSOLUTE
    _printf_fp_hex                           0x00000000   Number         0  stubs.o ABSOLUTE
    _printf_g                                0x00000000   Number         0  stubs.o ABSOLUTE
    _printf_i                                0x00000000   Number         0  stubs.o ABSOLUTE
    _printf_int_dec                          0x00000000   Number         0  stubs.o ABSOLUTE
    _printf_l                                0x00000000   Number         0  stubs.o ABSOLUTE
    _printf_lc                               0x00000000   Number         0  stubs.o ABSOLUTE
    _printf_ll                               0x00000000   Number         0  stubs.o ABSOLUTE
    _printf_lld                              0x00000000   Number         0  stubs.o ABSOLUTE
    _printf_lli                              0x00000000   Number         0  stubs.o ABSOLUTE
    _printf_llo                              0x00000000   Number         0  stubs.o ABSOLUTE
    _printf_llu                              0x00000000   Number         0  stubs.o ABSOLUTE
    _printf_llx                              0x00000000   Number         0  stubs.o ABSOLUTE
    _printf_longlong_dec                     0x00000000   Number         0  stubs.o ABSOLUTE
    _printf_longlong_hex                     0x00000000   Number         0  stubs.o ABSOLUTE
    _printf_longlong_oct                     0x00000000   Number         0  stubs.o ABSOLUTE
    _printf_ls                               0x00000000   Number         0  stubs.o ABSOLUTE
    _printf_mbtowc                           0x00000000   Number         0  stubs.o ABSOLUTE
    _printf_n                                0x00000000   Number         0  stubs.o ABSOLUTE
    _printf_o                                0x00000000   Number         0  stubs.o ABSOLUTE
    _printf_p                                0x00000000   Number         0  stubs.o ABSOLUTE
    _printf_percent                          0x00000000   Number         0  stubs.o ABSOLUTE
    _printf_pre_padding                      0x00000000   Number         0  stubs.o ABSOLUTE
    _printf_return_value                     0x00000000   Number         0  stubs.o ABSOLUTE
    _printf_s                                0x00000000   Number         0  stubs.o ABSOLUTE
    _printf_sizespec                         0x00000000   Number         0  stubs.o ABSOLUTE
    _printf_str                              0x00000000   Number         0  stubs.o ABSOLUTE
    _printf_truncate_signed                  0x00000000   Number         0  stubs.o ABSOLUTE
    _printf_truncate_unsigned                0x00000000   Number         0  stubs.o ABSOLUTE
    _printf_u                                0x00000000   Number         0  stubs.o ABSOLUTE
    _printf_wc                               0x00000000   Number         0  stubs.o ABSOLUTE
    _printf_wctomb                           0x00000000   Number         0  stubs.o ABSOLUTE
    _printf_widthprec                        0x00000000   Number         0  stubs.o ABSOLUTE
    _printf_x                                0x00000000   Number         0  stubs.o ABSOLUTE
    __cpp_initialize__aeabi_                  - Undefined Weak Reference
    __cxa_finalize                            - Undefined Weak Reference
    _clock_init                               - Undefined Weak Reference
    _microlib_exit                            - Undefined Weak Reference
    pwr_mgmt_data0$$Base                      - Undefined Reference
    pwr_mgmt_data0$$Limit                     - Undefined Reference
    pwr_mgmt_data2$$Base                      - Undefined Reference
    pwr_mgmt_data2$$Limit                     - Undefined Reference
    sdh_req_observers1$$Base                  - Undefined Reference
    sdh_req_observers1$$Limit                 - Undefined Reference
    sdh_soc_observers1$$Base                  - Undefined Reference
    sdh_soc_observers1$$Limit                 - Undefined Reference
    sdh_stack_observers1$$Base                - Undefined Reference
    sdh_stack_observers1$$Limit               - Undefined Reference
    sdh_state_observers1$$Base                - Undefined Reference
    sdh_state_observers1$$Limit               - Undefined Reference
    __Vectors_Size                           0x00000200   Number         0  arm_startup_nrf52805.o ABSOLUTE
    __Vectors                                0x00026000   Data           4  arm_startup_nrf52805.o(RESET)
    __Vectors_End                            0x00026200   Data           0  arm_startup_nrf52805.o(RESET)
    __main                                   0x00026201   Thumb Code     0  entry.o(.ARM.Collect$$$$00000000)
    _main_stk                                0x00026201   Thumb Code     0  entry2.o(.ARM.Collect$$$$00000001)
    _main_scatterload                        0x00026205   Thumb Code     0  entry5.o(.ARM.Collect$$$$00000004)
    __main_after_scatterload                 0x00026209   Thumb Code     0  entry5.o(.ARM.Collect$$$$00000004)
    _main_clock                              0x00026209   Thumb Code     0  entry7b.o(.ARM.Collect$$$$00000008)
    _main_cpp_init                           0x00026209   Thumb Code     0  entry8b.o(.ARM.Collect$$$$0000000A)
    _main_init                               0x00026209   Thumb Code     0  entry9a.o(.ARM.Collect$$$$0000000B)
    __rt_final_cpp                           0x00026211   Thumb Code     0  entry10a.o(.ARM.Collect$$$$0000000D)
    __rt_final_exit                          0x00026211   Thumb Code     0  entry11a.o(.ARM.Collect$$$$0000000F)
    __asm___12_nrf_atfifo_c_51f461e1__nrf_atfifo_wspace_req 0x00026215   Thumb Code    56  nrf_atfifo.o(.emb_text)
    __asm___12_nrf_atfifo_c_51f461e1__nrf_atfifo_wspace_close 0x0002624d   Thumb Code    18  nrf_atfifo.o(.emb_text)
    __asm___12_nrf_atfifo_c_51f461e1__nrf_atfifo_rspace_req 0x0002625f   Thumb Code    58  nrf_atfifo.o(.emb_text)
    __asm___12_nrf_atfifo_c_51f461e1__nrf_atfifo_rspace_close 0x00026299   Thumb Code    18  nrf_atfifo.o(.emb_text)
    __asm___12_nrf_atfifo_c_51f461e1__nrf_atfifo_space_clear 0x000262ab   Thumb Code    50  nrf_atfifo.o(.emb_text)
    __asm___12_nrf_atomic_c_85ca2469__nrf_atomic_internal_mov 0x000262dd   Thumb Code    24  nrf_atomic.o(.emb_text)
    __asm___12_nrf_atomic_c_85ca2469__nrf_atomic_internal_orr 0x000262f5   Thumb Code    26  nrf_atomic.o(.emb_text)
    __asm___12_nrf_atomic_c_85ca2469__nrf_atomic_internal_and 0x0002630f   Thumb Code    26  nrf_atomic.o(.emb_text)
    __asm___12_nrf_atomic_c_85ca2469__nrf_atomic_internal_eor 0x00026329   Thumb Code    26  nrf_atomic.o(.emb_text)
    __asm___12_nrf_atomic_c_85ca2469__nrf_atomic_internal_add 0x00026343   Thumb Code    26  nrf_atomic.o(.emb_text)
    __asm___12_nrf_atomic_c_85ca2469__nrf_atomic_internal_sub 0x0002635d   Thumb Code    26  nrf_atomic.o(.emb_text)
    __asm___12_nrf_atomic_c_85ca2469__nrf_atomic_internal_cmp_exch 0x00026377   Thumb Code    42  nrf_atomic.o(.emb_text)
    __asm___12_nrf_atomic_c_85ca2469__nrf_atomic_internal_sub_hs 0x000263a1   Thumb Code    30  nrf_atomic.o(.emb_text)
    Reset_Handler                            0x000263c1   Thumb Code     8  arm_startup_nrf52805.o(.text)
    NMI_Handler                              0x000263c9   Thumb Code     2  arm_startup_nrf52805.o(.text)
    HardFault_Handler                        0x000263cb   Thumb Code     2  arm_startup_nrf52805.o(.text)
    MemoryManagement_Handler                 0x000263cd   Thumb Code     2  arm_startup_nrf52805.o(.text)
    BusFault_Handler                         0x000263cf   Thumb Code     2  arm_startup_nrf52805.o(.text)
    UsageFault_Handler                       0x000263d1   Thumb Code     2  arm_startup_nrf52805.o(.text)
    SVC_Handler                              0x000263d3   Thumb Code     2  arm_startup_nrf52805.o(.text)
    DebugMon_Handler                         0x000263d5   Thumb Code     2  arm_startup_nrf52805.o(.text)
    PendSV_Handler                           0x000263d7   Thumb Code     2  arm_startup_nrf52805.o(.text)
    SysTick_Handler                          0x000263d9   Thumb Code     2  arm_startup_nrf52805.o(.text)
    CCM_AAR_IRQHandler                       0x000263db   Thumb Code     0  arm_startup_nrf52805.o(.text)
    ECB_IRQHandler                           0x000263db   Thumb Code     0  arm_startup_nrf52805.o(.text)
    QDEC_IRQHandler                          0x000263db   Thumb Code     0  arm_startup_nrf52805.o(.text)
    RADIO_IRQHandler                         0x000263db   Thumb Code     0  arm_startup_nrf52805.o(.text)
    RNG_IRQHandler                           0x000263db   Thumb Code     0  arm_startup_nrf52805.o(.text)
    RTC0_IRQHandler                          0x000263db   Thumb Code     0  arm_startup_nrf52805.o(.text)
    SAADC_IRQHandler                         0x000263db   Thumb Code     0  arm_startup_nrf52805.o(.text)
    SPIM0_SPIS0_SPI0_IRQHandler              0x000263db   Thumb Code     0  arm_startup_nrf52805.o(.text)
    SWI0_EGU0_IRQHandler                     0x000263db   Thumb Code     0  arm_startup_nrf52805.o(.text)
    SWI1_EGU1_IRQHandler                     0x000263db   Thumb Code     0  arm_startup_nrf52805.o(.text)
    SWI3_IRQHandler                          0x000263db   Thumb Code     0  arm_startup_nrf52805.o(.text)
    SWI4_IRQHandler                          0x000263db   Thumb Code     0  arm_startup_nrf52805.o(.text)
    SWI5_IRQHandler                          0x000263db   Thumb Code     0  arm_startup_nrf52805.o(.text)
    TEMP_IRQHandler                          0x000263db   Thumb Code     0  arm_startup_nrf52805.o(.text)
    TIMER0_IRQHandler                        0x000263db   Thumb Code     0  arm_startup_nrf52805.o(.text)
    TIMER1_IRQHandler                        0x000263db   Thumb Code     0  arm_startup_nrf52805.o(.text)
    TIMER2_IRQHandler                        0x000263db   Thumb Code     0  arm_startup_nrf52805.o(.text)
    TWIM0_TWIS0_TWI0_IRQHandler              0x000263db   Thumb Code     0  arm_startup_nrf52805.o(.text)
    WDT_IRQHandler                           0x000263db   Thumb Code     0  arm_startup_nrf52805.o(.text)
    __aeabi_llsl                             0x000263e5   Thumb Code    30  llshl.o(.text)
    _ll_shift_l                              0x000263e5   Thumb Code     0  llshl.o(.text)
    __aeabi_memcpy                           0x00026403   Thumb Code    36  memcpya.o(.text)
    __aeabi_memcpy4                          0x00026403   Thumb Code     0  memcpya.o(.text)
    __aeabi_memcpy8                          0x00026403   Thumb Code     0  memcpya.o(.text)
    __aeabi_memset                           0x00026427   Thumb Code    14  memseta.o(.text)
    __aeabi_memset4                          0x00026427   Thumb Code     0  memseta.o(.text)
    __aeabi_memset8                          0x00026427   Thumb Code     0  memseta.o(.text)
    __aeabi_memclr                           0x00026435   Thumb Code     4  memseta.o(.text)
    __aeabi_memclr4                          0x00026435   Thumb Code     0  memseta.o(.text)
    __aeabi_memclr8                          0x00026435   Thumb Code     0  memseta.o(.text)
    _memset$wrapper                          0x00026439   Thumb Code    18  memseta.o(.text)
    strlen                                   0x0002644b   Thumb Code    14  strlen.o(.text)
    strcmp                                   0x00026459   Thumb Code    28  strcmp.o(.text)
    memcmp                                   0x00026475   Thumb Code    26  memcmp.o(.text)
    __aeabi_uldivmod                         0x0002648f   Thumb Code    98  uldiv.o(.text)
    __scatterload                            0x000264f1   Thumb Code    28  init.o(.text)
    __scatterload_rt2                        0x000264f1   Thumb Code     0  init.o(.text)
    __aeabi_llsr                             0x00026515   Thumb Code    32  llushr.o(.text)
    _ll_ushift_r                             0x00026515   Thumb Code     0  llushr.o(.text)
    __decompress                             0x00026535   Thumb Code     0  __dczerorl2.o(.text)
    __decompress1                            0x00026535   Thumb Code    86  __dczerorl2.o(.text)
    GPIOTE_IRQHandler                        0x0002658d   Thumb Code   154  nrfx_gpiote.o(i.GPIOTE_IRQHandler)
    POWER_CLOCK_IRQHandler                   0x00026631   Thumb Code    74  nrfx_clock.o(i.POWER_CLOCK_IRQHandler)
    RTC1_IRQHandler                          0x00026681   Thumb Code    12  drv_rtc.o(i.RTC1_IRQHandler)
    SWI2_IRQHandler                          0x00026691   Thumb Code     4  nrf_sdh.o(i.SWI2_IRQHandler)
    SystemInit                               0x00026695   Thumb Code   576  system_nrf52.o(i.SystemInit)
    UARTE0_UART0_IRQHandler                  0x00026919   Thumb Code     6  nrfx_prs.o(i.UARTE0_UART0_IRQHandler)
    __0printf$8                              0x00026925   Thumb Code    22  printf8.o(i.__0printf$8)
    __1printf$8                              0x00026925   Thumb Code     0  printf8.o(i.__0printf$8)
    __2printf                                0x00026925   Thumb Code     0  printf8.o(i.__0printf$8)
    __scatterload_copy                       0x00026945   Thumb Code    14  handlers.o(i.__scatterload_copy)
    __scatterload_null                       0x00026953   Thumb Code     2  handlers.o(i.__scatterload_null)
    __scatterload_zeroinit                   0x00026955   Thumb Code    14  handlers.o(i.__scatterload_zeroinit)
    addr_compare                             0x00026deb   Thumb Code    38  id_manager.o(i.addr_compare)
    ah                                       0x00026e7b   Thumb Code    82  id_manager.o(i.ah)
    app_error_fault_handler                  0x00026ed9   Thumb Code    40  app_error_weak.o(i.app_error_fault_handler)
    app_error_handler_bare                   0x00026f09   Thumb Code    22  app_error.o(i.app_error_handler_bare)
    app_fifo_get                             0x00026f1f   Thumb Code    22  app_fifo.o(i.app_fifo_get)
    app_fifo_init                            0x00026f35   Thumb Code    32  app_fifo.o(i.app_fifo_init)
    app_fifo_put                             0x00026f55   Thumb Code    26  app_fifo.o(i.app_fifo_put)
    app_timer_cnt_get                        0x00026f71   Thumb Code     6  app_timer2.o(i.app_timer_cnt_get)
    app_timer_create                         0x00026f7d   Thumb Code    22  app_timer2.o(i.app_timer_create)
    app_timer_init                           0x00026f95   Thumb Code    70  app_timer2.o(i.app_timer_init)
    app_timer_start                          0x00026ff1   Thumb Code    48  app_timer2.o(i.app_timer_start)
    app_timer_stop                           0x00027021   Thumb Code    12  app_timer2.o(i.app_timer_stop)
    app_uart_get                             0x0002702d   Thumb Code    42  app_uart_fifo.o(i.app_uart_get)
    app_uart_init                            0x00027061   Thumb Code   148  app_uart_fifo.o(i.app_uart_init)
    app_uart_put                             0x00027105   Thumb Code    70  app_uart_fifo.o(i.app_uart_put)
    app_util_critical_region_enter           0x00027159   Thumb Code    64  app_util_platform.o(i.app_util_critical_region_enter)
    app_util_critical_region_exit            0x000271a1   Thumb Code    46  app_util_platform.o(i.app_util_critical_region_exit)
    blcm_link_ctx_get                        0x000273dd   Thumb Code    72  ble_link_ctx_manager.o(i.blcm_link_ctx_get)
    ble_advdata_encode                       0x00027425   Thumb Code   386  ble_advdata.o(i.ble_advdata_encode)
    ble_advdata_name_find                    0x000275a7   Thumb Code    68  ble_advdata.o(i.ble_advdata_name_find)
    ble_advdata_parse                        0x000275eb   Thumb Code    32  ble_advdata.o(i.ble_advdata_parse)
    ble_advdata_search                       0x0002760b   Thumb Code    70  ble_advdata.o(i.ble_advdata_search)
    ble_advdata_uuid_find                    0x00027651   Thumb Code   182  ble_advdata.o(i.ble_advdata_uuid_find)
    ble_advertising_conn_cfg_tag_set         0x00027707   Thumb Code     6  ble_advertising.o(i.ble_advertising_conn_cfg_tag_set)
    ble_advertising_init                     0x0002770d   Thumb Code   248  ble_advertising.o(i.ble_advertising_init)
    ble_advertising_on_ble_evt               0x00027805   Thumb Code   106  ble_advertising.o(i.ble_advertising_on_ble_evt)
    ble_advertising_start                    0x0002786f   Thumb Code   560  ble_advertising.o(i.ble_advertising_start)
    ble_conn_params_init                     0x00027b39   Thumb Code    90  ble_conn_params.o(i.ble_conn_params_init)
    ble_conn_state_conn_idx                  0x00027ba1   Thumb Code    18  ble_conn_state.o(i.ble_conn_state_conn_idx)
    ble_conn_state_encrypted                 0x00027bb5   Thumb Code    26  ble_conn_state.o(i.ble_conn_state_encrypted)
    ble_conn_state_for_each_set_user_flag    0x00027bd5   Thumb Code    38  ble_conn_state.o(i.ble_conn_state_for_each_set_user_flag)
    ble_conn_state_lesc                      0x00027c01   Thumb Code    26  ble_conn_state.o(i.ble_conn_state_lesc)
    ble_conn_state_mitm_protected            0x00027c21   Thumb Code    26  ble_conn_state.o(i.ble_conn_state_mitm_protected)
    ble_conn_state_role                      0x00027c41   Thumb Code    32  ble_conn_state.o(i.ble_conn_state_role)
    ble_conn_state_status                    0x00027c65   Thumb Code    32  ble_conn_state.o(i.ble_conn_state_status)
    ble_conn_state_user_flag_get             0x00027c89   Thumb Code    44  ble_conn_state.o(i.ble_conn_state_user_flag_get)
    ble_conn_state_user_flag_set             0x00027cb9   Thumb Code    50  ble_conn_state.o(i.ble_conn_state_user_flag_set)
    ble_conn_state_valid                     0x00027cf1   Thumb Code    16  ble_conn_state.o(i.ble_conn_state_valid)
    ble_db_discovery_evt_register            0x00027d05   Thumb Code    56  ble_db_discovery.o(i.ble_db_discovery_evt_register)
    ble_db_discovery_init                    0x00027d45   Thumb Code    32  ble_db_discovery.o(i.ble_db_discovery_init)
    ble_db_discovery_on_ble_evt              0x00027d69   Thumb Code    86  ble_db_discovery.o(i.ble_db_discovery_on_ble_evt)
    ble_db_discovery_start                   0x00027dc5   Thumb Code    34  ble_db_discovery.o(i.ble_db_discovery_start)
    ble_nus_c_handles_assign                 0x000281a3   Thumb Code    28  ble_nus_c.o(i.ble_nus_c_handles_assign)
    ble_nus_c_init                           0x000281c1   Thumb Code    86  ble_nus_c.o(i.ble_nus_c_init)
    ble_nus_c_on_ble_evt                     0x0002821d   Thumb Code   106  ble_nus_c.o(i.ble_nus_c_on_ble_evt)
    ble_nus_c_on_db_disc_evt                 0x00028287   Thumb Code   138  ble_nus_c.o(i.ble_nus_c_on_db_disc_evt)
    ble_nus_c_string_send                    0x00028311   Thumb Code   100  ble_nus_c.o(i.ble_nus_c_string_send)
    ble_nus_c_tx_notif_enable                0x00028379   Thumb Code   102  ble_nus_c.o(i.ble_nus_c_tx_notif_enable)
    ble_nus_data_send                        0x000283e5   Thumb Code   102  ble_nus.o(i.ble_nus_data_send)
    ble_nus_init                             0x0002844d   Thumb Code   214  ble_nus.o(i.ble_nus_init)
    ble_nus_on_ble_evt                       0x00028529   Thumb Code   118  ble_nus.o(i.ble_nus_on_ble_evt)
    ble_srv_is_notification_enabled          0x00028635   Thumb Code     8  ble_srv_common.o(i.ble_srv_is_notification_enabled)
    bsp_board_button_idx_to_pin              0x0002863d   Thumb Code     6  boards.o(i.bsp_board_button_idx_to_pin)
    bsp_btn_ble_sleep_mode_prepare           0x00028649   Thumb Code    30  bsp_btn_ble.o(i.bsp_btn_ble_sleep_mode_prepare)
    bsp_event_to_button_action_assign        0x00028669   Thumb Code    64  bsp.o(i.bsp_event_to_button_action_assign)
    bsp_indication_set                       0x000286ad   Thumb Code     4  bsp.o(i.bsp_indication_set)
    bsp_wakeup_button_enable                 0x000286b1   Thumb Code     6  bsp.o(i.bsp_wakeup_button_enable)
    characteristic_add                       0x00028731   Thumb Code   400  ble_srv_common.o(i.characteristic_add)
    conn_handle_list_get                     0x000289e7   Thumb Code    62  ble_conn_state.o(i.conn_handle_list_get)
    drv_rtc_compare_disable                  0x00028edd   Thumb Code    20  drv_rtc.o(i.drv_rtc_compare_disable)
    drv_rtc_compare_pending                  0x00028ef1   Thumb Code    14  drv_rtc.o(i.drv_rtc_compare_pending)
    drv_rtc_compare_set                      0x00028eff   Thumb Code    80  drv_rtc.o(i.drv_rtc_compare_set)
    drv_rtc_counter_get                      0x00028f4f   Thumb Code     8  drv_rtc.o(i.drv_rtc_counter_get)
    drv_rtc_init                             0x00028f59   Thumb Code   118  drv_rtc.o(i.drv_rtc_init)
    drv_rtc_irq_trigger                      0x00028fd5   Thumb Code    30  drv_rtc.o(i.drv_rtc_irq_trigger)
    drv_rtc_overflow_enable                  0x00028ff3   Thumb Code     8  drv_rtc.o(i.drv_rtc_overflow_enable)
    drv_rtc_overflow_pending                 0x00028ffb   Thumb Code     8  drv_rtc.o(i.drv_rtc_overflow_pending)
    drv_rtc_start                            0x00029003   Thumb Code     8  drv_rtc.o(i.drv_rtc_start)
    drv_rtc_stop                             0x0002900b   Thumb Code     8  drv_rtc.o(i.drv_rtc_stop)
    drv_rtc_windowed_compare_set             0x00029013   Thumb Code   222  drv_rtc.o(i.drv_rtc_windowed_compare_set)
    fds_file_delete                          0x000292f1   Thumb Code    68  fds.o(i.fds_file_delete)
    fds_record_close                         0x00029339   Thumb Code    66  fds.o(i.fds_record_close)
    fds_record_find                          0x00029381   Thumb Code    14  fds.o(i.fds_record_find)
    fds_record_find_by_key                   0x0002938f   Thumb Code    16  fds.o(i.fds_record_find_by_key)
    fds_record_find_in_file                  0x0002939f   Thumb Code    16  fds.o(i.fds_record_find_in_file)
    fds_record_id_from_desc                  0x000293af   Thumb Code    18  fds.o(i.fds_record_id_from_desc)
    fds_record_open                          0x000293c1   Thumb Code    70  fds.o(i.fds_record_open)
    fds_record_update                        0x0002940d   Thumb Code    16  fds.o(i.fds_record_update)
    fds_record_write                         0x0002941d   Thumb Code     8  fds.o(i.fds_record_write)
    fputc                                    0x000294dd   Thumb Code    14  retarget.o(i.fputc)
    gatt_evt_handler                         0x000294fd   Thumb Code    20  main.o(i.gatt_evt_handler)
    gatt_init                                0x00029515   Thumb Code    38  main.o(i.gatt_init)
    gcm_ble_evt_handler                      0x000297b5   Thumb Code   280  gatt_cache_manager.o(i.gcm_ble_evt_handler)
    gcm_im_evt_handler                       0x000298d9   Thumb Code    54  gatt_cache_manager.o(i.gcm_im_evt_handler)
    gcm_pdb_evt_handler                      0x00029915   Thumb Code   130  gatt_cache_manager.o(i.gcm_pdb_evt_handler)
    gscm_db_change_notification_done         0x000299d1   Thumb Code    22  gatts_cache_manager.o(i.gscm_db_change_notification_done)
    gscm_local_db_cache_apply                0x000299ed   Thumb Code   106  gatts_cache_manager.o(i.gscm_local_db_cache_apply)
    gscm_local_db_cache_update               0x00029a57   Thumb Code   130  gatts_cache_manager.o(i.gscm_local_db_cache_update)
    gscm_pdb_evt_handler                     0x00029ad9   Thumb Code    18  gatts_cache_manager.o(i.gscm_pdb_evt_handler)
    gscm_service_changed_ind_needed          0x00029af1   Thumb Code    30  gatts_cache_manager.o(i.gscm_service_changed_ind_needed)
    gscm_service_changed_ind_send            0x00029b11   Thumb Code    50  gatts_cache_manager.o(i.gscm_service_changed_ind_send)
    im_address_resolve                       0x00029b87   Thumb Code    70  id_manager.o(i.im_address_resolve)
    im_ble_addr_get                          0x00029bcd   Thumb Code    50  id_manager.o(i.im_ble_addr_get)
    im_ble_evt_handler                       0x00029c05   Thumb Code   210  id_manager.o(i.im_ble_evt_handler)
    im_conn_handle_get                       0x00029ce1   Thumb Code    58  id_manager.o(i.im_conn_handle_get)
    im_find_duplicate_bonding_data           0x00029d21   Thumb Code    56  id_manager.o(i.im_find_duplicate_bonding_data)
    im_is_duplicate_bonding_data             0x00029d59   Thumb Code   114  id_manager.o(i.im_is_duplicate_bonding_data)
    im_master_id_is_valid                    0x00029dcb   Thumb Code    24  id_manager.o(i.im_master_id_is_valid)
    im_master_ids_compare                    0x00029de3   Thumb Code    42  id_manager.o(i.im_master_ids_compare)
    im_new_peer_id                           0x00029e0d   Thumb Code    16  id_manager.o(i.im_new_peer_id)
    im_peer_free                             0x00029e21   Thumb Code    40  id_manager.o(i.im_peer_free)
    im_peer_id_get_by_conn_handle            0x00029e4d   Thumb Code    32  id_manager.o(i.im_peer_id_get_by_conn_handle)
    im_peer_id_get_by_master_id              0x00029e71   Thumb Code    60  id_manager.o(i.im_peer_id_get_by_master_id)
    is_valid_irk                             0x0002a0a1   Thumb Code    20  id_manager.o(i.is_valid_irk)
    is_whitelist_used                        0x0002a0b5   Thumb Code    24  nrf_ble_scan.o(i.is_whitelist_used)
    main                                     0x0002a381   Thumb Code   462  main.o(i.main)
    next_id_get                              0x0002a797   Thumb Code    48  peer_id.o(i.next_id_get)
    nrf_atfifo_init                          0x0002a87d   Thumb Code    38  nrf_atfifo.o(i.nrf_atfifo_init)
    nrf_atfifo_item_alloc                    0x0002a8a3   Thumb Code    22  nrf_atfifo.o(i.nrf_atfifo_item_alloc)
    nrf_atfifo_item_free                     0x0002a8b9   Thumb Code    22  nrf_atfifo.o(i.nrf_atfifo_item_free)
    nrf_atfifo_item_get                      0x0002a8cf   Thumb Code    22  nrf_atfifo.o(i.nrf_atfifo_item_get)
    nrf_atfifo_item_put                      0x0002a8e5   Thumb Code    22  nrf_atfifo.o(i.nrf_atfifo_item_put)
    nrf_atflags_clear                        0x0002a8fb   Thumb Code    22  nrf_atflags.o(i.nrf_atflags_clear)
    nrf_atflags_fetch_set                    0x0002a911   Thumb Code    32  nrf_atflags.o(i.nrf_atflags_fetch_set)
    nrf_atflags_find_and_set_flag            0x0002a931   Thumb Code    74  nrf_atflags.o(i.nrf_atflags_find_and_set_flag)
    nrf_atflags_get                          0x0002a97b   Thumb Code    22  nrf_atflags.o(i.nrf_atflags_get)
    nrf_atflags_set                          0x0002a991   Thumb Code    20  nrf_atflags.o(i.nrf_atflags_set)
    nrf_atomic_u32_add                       0x0002a9a5   Thumb Code    12  nrf_atomic.o(i.nrf_atomic_u32_add)
    nrf_atomic_u32_and                       0x0002a9b1   Thumb Code    12  nrf_atomic.o(i.nrf_atomic_u32_and)
    nrf_atomic_u32_fetch_add                 0x0002a9bd   Thumb Code    10  nrf_atomic.o(i.nrf_atomic_u32_fetch_add)
    nrf_atomic_u32_fetch_or                  0x0002a9c7   Thumb Code    10  nrf_atomic.o(i.nrf_atomic_u32_fetch_or)
    nrf_atomic_u32_fetch_store               0x0002a9d1   Thumb Code    10  nrf_atomic.o(i.nrf_atomic_u32_fetch_store)
    nrf_atomic_u32_or                        0x0002a9db   Thumb Code    12  nrf_atomic.o(i.nrf_atomic_u32_or)
    nrf_atomic_u32_sub                       0x0002a9e7   Thumb Code    12  nrf_atomic.o(i.nrf_atomic_u32_sub)
    nrf_balloc_alloc                         0x0002a9f3   Thumb Code    68  nrf_balloc.o(i.nrf_balloc_alloc)
    nrf_balloc_free                          0x0002aa37   Thumb Code    48  nrf_balloc.o(i.nrf_balloc_free)
    nrf_balloc_init                          0x0002aa67   Thumb Code    48  nrf_balloc.o(i.nrf_balloc_init)
    nrf_ble_gatt_att_mtu_central_set         0x0002aaa7   Thumb Code    24  nrf_ble_gatt.o(i.nrf_ble_gatt_att_mtu_central_set)
    nrf_ble_gatt_init                        0x0002aabf   Thumb Code    44  nrf_ble_gatt.o(i.nrf_ble_gatt_init)
    nrf_ble_gatt_on_ble_evt                  0x0002aaed   Thumb Code   418  nrf_ble_gatt.o(i.nrf_ble_gatt_on_ble_evt)
    nrf_ble_gq_conn_handle_register          0x0002ac95   Thumb Code   110  nrf_ble_gq.o(i.nrf_ble_gq_conn_handle_register)
    nrf_ble_gq_item_add                      0x0002ad05   Thumb Code   154  nrf_ble_gq.o(i.nrf_ble_gq_item_add)
    nrf_ble_gq_on_ble_evt                    0x0002ada5   Thumb Code    96  nrf_ble_gq.o(i.nrf_ble_gq_on_ble_evt)
    nrf_ble_qwr_conn_handle_assign           0x0002ae05   Thumb Code    22  nrf_ble_qwr.o(i.nrf_ble_qwr_conn_handle_assign)
    nrf_ble_qwr_init                         0x0002ae1b   Thumb Code    36  nrf_ble_qwr.o(i.nrf_ble_qwr_init)
    nrf_ble_qwr_on_ble_evt                   0x0002ae3f   Thumb Code   182  nrf_ble_qwr.o(i.nrf_ble_qwr_on_ble_evt)
    nrf_ble_scan_filter_set                  0x0002b031   Thumb Code   178  nrf_ble_scan.o(i.nrf_ble_scan_filter_set)
    nrf_ble_scan_filters_disable             0x0002b0e3   Thumb Code    24  nrf_ble_scan.o(i.nrf_ble_scan_filters_disable)
    nrf_ble_scan_filters_enable              0x0002b0fb   Thumb Code    78  nrf_ble_scan.o(i.nrf_ble_scan_filters_enable)
    nrf_ble_scan_init                        0x0002b149   Thumb Code   116  nrf_ble_scan.o(i.nrf_ble_scan_init)
    nrf_ble_scan_on_ble_evt                  0x0002b365   Thumb Code   128  nrf_ble_scan.o(i.nrf_ble_scan_on_ble_evt)
    nrf_ble_scan_start                       0x0002b3e5   Thumb Code    68  nrf_ble_scan.o(i.nrf_ble_scan_start)
    nrf_drv_clock_init                       0x0002b449   Thumb Code    56  nrf_drv_clock.o(i.nrf_drv_clock_init)
    nrf_drv_clock_lfclk_release              0x0002b489   Thumb Code    48  nrf_drv_clock.o(i.nrf_drv_clock_lfclk_release)
    nrf_drv_uart_init                        0x0002b4bd   Thumb Code    90  nrf_drv_uart.o(i.nrf_drv_uart_init)
    nrf_fstorage_erase                       0x0002b565   Thumb Code    78  nrf_fstorage.o(i.nrf_fstorage_erase)
    nrf_fstorage_sdh_req_handler             0x0002b5b5   Thumb Code    18  nrf_fstorage_sd.o(i.nrf_fstorage_sdh_req_handler)
    nrf_fstorage_sdh_state_handler           0x0002b5cd   Thumb Code    28  nrf_fstorage_sd.o(i.nrf_fstorage_sdh_state_handler)
    nrf_fstorage_sys_evt_handler             0x0002b5ed   Thumb Code   154  nrf_fstorage_sd.o(i.nrf_fstorage_sys_evt_handler)
    nrf_fstorage_write                       0x0002b691   Thumb Code   102  nrf_fstorage.o(i.nrf_fstorage_write)
    nrf_memobj_alloc                         0x0002b7fd   Thumb Code    96  nrf_memobj.o(i.nrf_memobj_alloc)
    nrf_memobj_free                          0x0002b85d   Thumb Code    50  nrf_memobj.o(i.nrf_memobj_free)
    nrf_memobj_pool_init                     0x0002b88f   Thumb Code     4  nrf_memobj.o(i.nrf_memobj_pool_init)
    nrf_memobj_read                          0x0002b893   Thumb Code    16  nrf_memobj.o(i.nrf_memobj_read)
    nrf_memobj_write                         0x0002b8a3   Thumb Code    16  nrf_memobj.o(i.nrf_memobj_write)
    nrf_pwr_mgmt_init                        0x0002b8b5   Thumb Code    28  nrf_pwr_mgmt.o(i.nrf_pwr_mgmt_init)
    nrf_pwr_mgmt_run                         0x0002b8dd   Thumb Code    20  nrf_pwr_mgmt.o(i.nrf_pwr_mgmt_run)
    nrf_queue_generic_pop                    0x0002b8f1   Thumb Code   142  nrf_queue.o(i.nrf_queue_generic_pop)
    nrf_queue_is_empty                       0x0002b97f   Thumb Code    18  nrf_queue.o(i.nrf_queue_is_empty)
    nrf_queue_is_full                        0x0002b991   Thumb Code    30  nrf_queue.o(i.nrf_queue_is_full)
    nrf_queue_push                           0x0002b9bd   Thumb Code   178  nrf_queue.o(i.nrf_queue_push)
    nrf_sdh_ble_app_ram_start_get            0x0002ba81   Thumb Code    16  nrf_sdh_ble.o(i.nrf_sdh_ble_app_ram_start_get)
    nrf_sdh_ble_default_cfg_set              0x0002ba95   Thumb Code   158  nrf_sdh_ble.o(i.nrf_sdh_ble_default_cfg_set)
    nrf_sdh_ble_enable                       0x0002bb35   Thumb Code    14  nrf_sdh_ble.o(i.nrf_sdh_ble_enable)
    nrf_sdh_disable_request                  0x0002bba9   Thumb Code    80  nrf_sdh.o(i.nrf_sdh_disable_request)
    nrf_sdh_enable_request                   0x0002bbfd   Thumb Code   102  nrf_sdh.o(i.nrf_sdh_enable_request)
    nrf_sdh_evts_poll                        0x0002bc71   Thumb Code    32  nrf_sdh.o(i.nrf_sdh_evts_poll)
    nrf_sdh_is_enabled                       0x0002bc95   Thumb Code     6  nrf_sdh.o(i.nrf_sdh_is_enabled)
    nrf_sdh_request_continue                 0x0002bca1   Thumb Code    22  nrf_sdh.o(i.nrf_sdh_request_continue)
    nrf_section_iter_init                    0x0002bcf9   Thumb Code    10  nrf_section_iter.o(i.nrf_section_iter_init)
    nrf_section_iter_next                    0x0002bd27   Thumb Code    32  nrf_section_iter.o(i.nrf_section_iter_next)
    nrf_sortlist_add                         0x0002bd47   Thumb Code    34  nrf_sortlist.o(i.nrf_sortlist_add)
    nrf_sortlist_peek                        0x0002bd69   Thumb Code     6  nrf_sortlist.o(i.nrf_sortlist_peek)
    nrf_sortlist_pop                         0x0002bd6f   Thumb Code    14  nrf_sortlist.o(i.nrf_sortlist_pop)
    nrf_sortlist_remove                      0x0002bd7d   Thumb Code    30  nrf_sortlist.o(i.nrf_sortlist_remove)
    nrfx_clock_enable                        0x0002bde5   Thumb Code    34  nrfx_clock.o(i.nrfx_clock_enable)
    nrfx_clock_init                          0x0002be11   Thumb Code    22  nrfx_clock.o(i.nrfx_clock_init)
    nrfx_clock_lfclk_stop                    0x0002be2d   Thumb Code    38  nrfx_clock.o(i.nrfx_clock_lfclk_stop)
    nrfx_prs_acquire                         0x0002be7d   Thumb Code    58  nrfx_prs.o(i.nrfx_prs_acquire)
    nrfx_uart_0_irq_handler                  0x0002beb9   Thumb Code     8  nrfx_uart.o(i.nrfx_uart_0_irq_handler)
    nrfx_uart_init                           0x0002bec9   Thumb Code   200  nrfx_uart.o(i.nrfx_uart_init)
    nrfx_uart_rx                             0x0002bf9d   Thumb Code   230  nrfx_uart.o(i.nrfx_uart_rx)
    nrfx_uart_tx                             0x0002c089   Thumb Code   162  nrfx_uart.o(i.nrfx_uart_tx)
    nrfx_uart_tx_in_progress                 0x0002c131   Thumb Code    26  nrfx_uart.o(i.nrfx_uart_tx_in_progress)
    nrfx_uarte_0_irq_handler                 0x0002c151   Thumb Code     8  nrfx_uarte.o(i.nrfx_uarte_0_irq_handler)
    nrfx_uarte_init                          0x0002c161   Thumb Code   100  nrfx_uarte.o(i.nrfx_uarte_init)
    nrfx_uarte_rx                            0x0002c1cd   Thumb Code   256  nrfx_uarte.o(i.nrfx_uarte_rx)
    nrfx_uarte_tx                            0x0002c2d1   Thumb Code   166  nrfx_uarte.o(i.nrfx_uarte_tx)
    nrfx_uarte_tx_in_progress                0x0002c37d   Thumb Code    22  nrfx_uarte.o(i.nrfx_uarte_tx_in_progress)
    nvmc_config                              0x0002c3e1   Thumb Code    14  system_nrf52.o(i.nvmc_config)
    pdb_pds_evt_handler                      0x0002c8e1   Thumb Code   116  peer_database.o(i.pdb_pds_evt_handler)
    pdb_peer_data_ptr_get                    0x0002c95d   Thumb Code     6  peer_database.o(i.pdb_peer_data_ptr_get)
    pdb_peer_free                            0x0002c963   Thumb Code    58  peer_database.o(i.pdb_peer_free)
    pdb_write_buf_get                        0x0002c99d   Thumb Code   180  peer_database.o(i.pdb_write_buf_get)
    pdb_write_buf_release                    0x0002ca55   Thumb Code    20  peer_database.o(i.pdb_write_buf_release)
    pdb_write_buf_store                      0x0002ca69   Thumb Code    54  peer_database.o(i.pdb_write_buf_store)
    pds_next_deleted_peer_id_get             0x0002cab1   Thumb Code     4  peer_data_storage.o(i.pds_next_deleted_peer_id_get)
    pds_next_peer_id_get                     0x0002cab5   Thumb Code     4  peer_data_storage.o(i.pds_next_peer_id_get)
    pds_peer_data_iterate                    0x0002cab9   Thumb Code    84  peer_data_storage.o(i.pds_peer_data_iterate)
    pds_peer_data_iterate_prepare            0x0002cb11   Thumb Code    10  peer_data_storage.o(i.pds_peer_data_iterate_prepare)
    pds_peer_data_read                       0x0002cb21   Thumb Code   114  peer_data_storage.o(i.pds_peer_data_read)
    pds_peer_data_store                      0x0002cb95   Thumb Code   148  peer_data_storage.o(i.pds_peer_data_store)
    pds_peer_id_allocate                     0x0002cc29   Thumb Code     8  peer_data_storage.o(i.pds_peer_id_allocate)
    pds_peer_id_free                         0x0002cc31   Thumb Code    22  peer_data_storage.o(i.pds_peer_id_free)
    pds_peer_id_is_allocated                 0x0002cc47   Thumb Code     4  peer_data_storage.o(i.pds_peer_id_is_allocated)
    peer_id_allocate                         0x0002cd41   Thumb Code     6  peer_id.o(i.peer_id_allocate)
    peer_id_delete                           0x0002cd4d   Thumb Code    32  peer_id.o(i.peer_id_delete)
    peer_id_free                             0x0002cd71   Thumb Code    24  peer_id.o(i.peer_id_free)
    peer_id_get_next_deleted                 0x0002cd8d   Thumb Code     6  peer_id.o(i.peer_id_get_next_deleted)
    peer_id_get_next_used                    0x0002cd99   Thumb Code    42  peer_id.o(i.peer_id_get_next_used)
    peer_id_is_allocated                     0x0002cdc9   Thumb Code    16  peer_id.o(i.peer_id_is_allocated)
    peer_id_is_deleted                       0x0002cddd   Thumb Code    16  peer_id.o(i.peer_id_is_deleted)
    pm_buffer_block_acquire                  0x0002ce03   Thumb Code   100  pm_buffer.o(i.pm_buffer_block_acquire)
    pm_buffer_ptr_get                        0x0002ce67   Thumb Code    40  pm_buffer.o(i.pm_buffer_ptr_get)
    pm_buffer_release                        0x0002ce8f   Thumb Code    50  pm_buffer.o(i.pm_buffer_release)
    pm_gcm_evt_handler                       0x0002cec1   Thumb Code     4  peer_manager.o(i.pm_gcm_evt_handler)
    pm_gscm_evt_handler                      0x0002cec5   Thumb Code     4  peer_manager.o(i.pm_gscm_evt_handler)
    pm_im_evt_handler                        0x0002cec9   Thumb Code     4  peer_manager.o(i.pm_im_evt_handler)
    pm_pdb_evt_handler                       0x0002cecd   Thumb Code   276  peer_manager.o(i.pm_pdb_evt_handler)
    pm_peer_ranks_get                        0x0002cfe5   Thumb Code   188  peer_manager.o(i.pm_peer_ranks_get)
    pm_sm_evt_handler                        0x0002d0a5   Thumb Code    10  peer_manager.o(i.pm_sm_evt_handler)
    sm_ble_evt_handler                       0x0002e019   Thumb Code    32  security_manager.o(i.sm_ble_evt_handler)
    sm_conn_sec_status_get                   0x0002e045   Thumb Code   162  security_manager.o(i.sm_conn_sec_status_get)
    sm_pdb_evt_handler                       0x0002e0e9   Thumb Code    56  security_manager.o(i.sm_pdb_evt_handler)
    sm_sec_is_sufficient                     0x0002e12d   Thumb Code    36  security_manager.o(i.sm_sec_is_sufficient)
    sm_smd_evt_handler                       0x0002e155   Thumb Code    44  security_manager.o(i.sm_smd_evt_handler)
    smd_ble_evt_handler                      0x0002e181   Thumb Code   272  security_dispatcher.o(i.smd_ble_evt_handler)
    smd_link_secure                          0x0002e299   Thumb Code    58  security_dispatcher.o(i.smd_link_secure)
    smd_params_reply                         0x0002e2d5   Thumb Code   162  security_dispatcher.o(i.smd_params_reply)
    store_car_value                          0x0002e47d   Thumb Code    58  gatt_cache_manager.o(i.store_car_value)
    timer_1ms_handle                         0x0002e4c1   Thumb Code   116  main.o(i.timer_1ms_handle)
    uart_event_handle                        0x0002e69d   Thumb Code   138  main.o(i.uart_event_handle)
    write_buf_store                          0x0002ec69   Thumb Code   158  peer_database.o(i.write_buf_store)
    m_ram_start                              0x0002f3a4   Data           4  nrf_sdh_ble.o(.constdata)
    Region$$Table$$Base                      0x0002f3d0   Number         0  anon$$obj.o(Region$$Table)
    Region$$Table$$Limit                     0x0002f3f0   Number         0  anon$$obj.o(Region$$Table)
    m_ble_gatt_queuepool                     0x0002f3f0   Data          20  main.o(nrf_balloc)
    m_ble_gatt_queuepurge_queue              0x0002f404   Data          20  main.o(nrf_queue)
    pwr_mgmt_data1$$Base                     0x0002f418   Number         0  main.o(pwr_mgmt_data1)
    pwr_mgmt_data1$$Limit                    0x0002f41c   Number         0  main.o(pwr_mgmt_data1)
    sdh_ble_observers0$$Base                 0x0002f41c   Number         0  ble_conn_state.o(sdh_ble_observers0)
    sdh_ble_observers0$$Limit                0x0002f424   Number         0  ble_conn_state.o(sdh_ble_observers0)
    sdh_ble_observers1$$Base                 0x0002f424   Number         0  main.o(sdh_ble_observers1)
    sdh_ble_observers1$$Limit                0x0002f464   Number         0  peer_manager.o(sdh_ble_observers1)
    sdh_ble_observers2$$Base                 0x0002f464   Number         0  main.o(sdh_ble_observers2)
    sdh_ble_observers2$$Limit                0x0002f47c   Number         0  main.o(sdh_ble_observers2)
    sdh_ble_observers3$$Base                 0x0002f47c   Number         0  main.o(sdh_ble_observers3)
    m_req_obs                                0x0002f484   Data           8  nrf_fstorage_sd.o(sdh_req_observers0)
    sdh_ble_observers3$$Limit                0x0002f484   Number         0  main.o(sdh_ble_observers3)
    sdh_req_observers0$$Base                 0x0002f484   Number         0  nrf_fstorage_sd.o(sdh_req_observers0)
    sdh_req_observers0$$Limit                0x0002f48c   Number         0  nrf_fstorage_sd.o(sdh_req_observers0)
    sdh_soc_observers0$$Base                 0x0002f48c   Number         0  nrf_drv_clock.o(sdh_soc_observers0)
    sdh_soc_observers0$$Limit                0x0002f49c   Number         0  nrf_fstorage_sd.o(sdh_soc_observers0)
    sdh_stack_observers0$$Base               0x0002f49c   Number         0  nrf_sdh_ble.o(sdh_stack_observers0)
    sdh_stack_observers0$$Limit              0x0002f4ac   Number         0  nrf_sdh_soc.o(sdh_stack_observers0)
    sdh_state_observers0$$Base               0x0002f4ac   Number         0  nrf_drv_clock.o(sdh_state_observers0)
    sdh_state_observers0$$Limit              0x0002f4bc   Number         0  nrf_fstorage_sd.o(sdh_state_observers0)
    Image$$RW_IRAM1$$Base                    0x200039c8   Number         0  anon$$obj.o ABSOLUTE
    tick_1ms                                 0x200039d8   Data           4  main.o(.data)
    uart_rec_ok                              0x200039dc   Data          14  main.o(.data)
    nrf_drv_uart_use_easy_dma                0x20004034   Data           1  nrf_drv_uart.o(.data)
    __stdout                                 0x2000413c   Data           4  retarget.o(.data)
    SystemCoreClock                          0x20004144   Data           4  system_nrf52.o(.data)
    fs_data$$Base                            0x20004148   Number         0  main.o(fs_data)
    fstorage                                 0x20004148   Data          20  main.o(fs_data)
    m_fs                                     0x2000415c   Data          20  fds.o(fs_data)
    fs_data$$Limit                           0x20004170   Number         0  fds.o(fs_data)
    nrf_nvic_state                           0x200051c8   Data          12  app_util_platform.o(.bss)
    __initial_sp                             0x20005de0   Data           0  arm_startup_nrf52805.o(STACK)



==============================================================================

Memory Map of the image

  Image Entry point : 0x00026201

  Load Region LR_IROM1 (Base: 0x00026000, Size: 0x00009c64, Max: 0x0000a000, ABSOLUTE, COMPRESSED[0x00009534])

    Execution Region ER_IROM1 (Exec base: 0x00026000, Load base: 0x00026000, Size: 0x000094bc, Max: 0x0000a000, ABSOLUTE)

    Exec Addr    Load Addr    Size         Type   Attr      Idx    E Section Name        Object

    0x00026000   0x00026000   0x00000200   Data   RO         7385    RESET               arm_startup_nrf52805.o
    0x00026200   0x00026200   0x00000000   Code   RO         7477  * .ARM.Collect$$$$00000000  mc_w.l(entry.o)
    0x00026200   0x00026200   0x00000004   Code   RO         7761    .ARM.Collect$$$$00000001  mc_w.l(entry2.o)
    0x00026204   0x00026204   0x00000004   Code   RO         7764    .ARM.Collect$$$$00000004  mc_w.l(entry5.o)
    0x00026208   0x00026208   0x00000000   Code   RO         7766    .ARM.Collect$$$$00000008  mc_w.l(entry7b.o)
    0x00026208   0x00026208   0x00000000   Code   RO         7768    .ARM.Collect$$$$0000000A  mc_w.l(entry8b.o)
    0x00026208   0x00026208   0x00000008   Code   RO         7769    .ARM.Collect$$$$0000000B  mc_w.l(entry9a.o)
    0x00026210   0x00026210   0x00000000   Code   RO         7771    .ARM.Collect$$$$0000000D  mc_w.l(entry10a.o)
    0x00026210   0x00026210   0x00000000   Code   RO         7773    .ARM.Collect$$$$0000000F  mc_w.l(entry11a.o)
    0x00026210   0x00026210   0x00000004   Code   RO         7762    .ARM.Collect$$$$00002712  mc_w.l(entry2.o)
    0x00026214   0x00026214   0x000000c8   Code   RO         5965    .emb_text           nrf_atfifo.o
    0x000262dc   0x000262dc   0x000000e2   Code   RO         6035    .emb_text           nrf_atomic.o
    0x000263be   0x000263be   0x00000002   PAD
    0x000263c0   0x000263c0   0x00000024   Code   RO         7386    .text               arm_startup_nrf52805.o
    0x000263e4   0x000263e4   0x0000001e   Code   RO         7480    .text               mc_w.l(llshl.o)
    0x00026402   0x00026402   0x00000024   Code   RO         7482    .text               mc_w.l(memcpya.o)
    0x00026426   0x00026426   0x00000024   Code   RO         7484    .text               mc_w.l(memseta.o)
    0x0002644a   0x0002644a   0x0000000e   Code   RO         7488    .text               mc_w.l(strlen.o)
    0x00026458   0x00026458   0x0000001c   Code   RO         7490    .text               mc_w.l(strcmp.o)
    0x00026474   0x00026474   0x0000001a   Code   RO         7492    .text               mc_w.l(memcmp.o)
    0x0002648e   0x0002648e   0x00000062   Code   RO         7777    .text               mc_w.l(uldiv.o)
    0x000264f0   0x000264f0   0x00000024   Code   RO         7790    .text               mc_w.l(init.o)
    0x00026514   0x00026514   0x00000020   Code   RO         7792    .text               mc_w.l(llushr.o)
    0x00026534   0x00026534   0x00000056   Code   RO         7806    .text               mc_w.l(__dczerorl2.o)
    0x0002658a   0x0002658a   0x00000002   PAD
    0x0002658c   0x0002658c   0x000000a4   Code   RO         2380    i.GPIOTE_IRQHandler  nrfx_gpiote.o
    0x00026630   0x00026630   0x00000050   Code   RO         2244    i.POWER_CLOCK_IRQHandler  nrfx_clock.o
    0x00026680   0x00026680   0x00000010   Code   RO         5755    i.RTC1_IRQHandler   drv_rtc.o
    0x00026690   0x00026690   0x00000004   Code   RO         7185    i.SWI2_IRQHandler   nrf_sdh.o
    0x00026694   0x00026694   0x00000284   Code   RO         7394    i.SystemInit        system_nrf52.o
    0x00026918   0x00026918   0x0000000c   Code   RO         2682    i.UARTE0_UART0_IRQHandler  nrfx_prs.o
    0x00026924   0x00026924   0x00000020   Code   RO         7707    i.__0printf$8       mc_w.l(printf8.o)
    0x00026944   0x00026944   0x0000000e   Code   RO         7800    i.__scatterload_copy  mc_w.l(handlers.o)
    0x00026952   0x00026952   0x00000002   Code   RO         7801    i.__scatterload_null  mc_w.l(handlers.o)
    0x00026954   0x00026954   0x0000000e   Code   RO         7802    i.__scatterload_zeroinit  mc_w.l(handlers.o)
    0x00026962   0x00026962   0x00000002   PAD
    0x00026964   0x00026964   0x00000024   Code   RO         7186    i.__sd_nvic_app_accessible_irq  nrf_sdh.o
    0x00026988   0x00026988   0x00000410   Code   RO         7714    i._printf_core      mc_w.l(printf8.o)
    0x00026d98   0x00026d98   0x00000024   Code   RO         7715    i._printf_post_padding  mc_w.l(printf8.o)
    0x00026dbc   0x00026dbc   0x0000002e   Code   RO         7716    i._printf_pre_padding  mc_w.l(printf8.o)
    0x00026dea   0x00026dea   0x00000026   Code   RO         3341    i.addr_compare      id_manager.o
    0x00026e10   0x00026e10   0x0000000c   Code   RO         4970    i.addr_is_aligned32  nrf_fstorage.o
    0x00026e1c   0x00026e1c   0x00000018   Code   RO         4971    i.addr_is_within_bounds  nrf_fstorage.o
    0x00026e34   0x00026e34   0x00000010   Code   RO         1377    i.adv_set_data_size_max_get  ble_advertising.o
    0x00026e44   0x00026e44   0x00000036   Code   RO          669    i.advertising_buttons_configure  bsp_btn_ble.o
    0x00026e7a   0x00026e7a   0x00000052   Code   RO         3342    i.ah                id_manager.o
    0x00026ecc   0x00026ecc   0x0000000c   Code   RO         4324    i.allow_repairing   security_dispatcher.o
    0x00026ed8   0x00026ed8   0x00000030   Code   RO         5320    i.app_error_fault_handler  app_error_weak.o
    0x00026f08   0x00026f08   0x00000016   Code   RO         5264    i.app_error_handler_bare  app_error.o
    0x00026f1e   0x00026f1e   0x00000016   Code   RO         5355    i.app_fifo_get      app_fifo.o
    0x00026f34   0x00026f34   0x00000020   Code   RO         5356    i.app_fifo_init     app_fifo.o
    0x00026f54   0x00026f54   0x0000001a   Code   RO         5358    i.app_fifo_put      app_fifo.o
    0x00026f6e   0x00026f6e   0x00000002   PAD
    0x00026f70   0x00026f70   0x0000000c   Code   RO         5475    i.app_timer_cnt_get  app_timer2.o
    0x00026f7c   0x00026f7c   0x00000016   Code   RO         5476    i.app_timer_create  app_timer2.o
    0x00026f92   0x00026f92   0x00000002   PAD
    0x00026f94   0x00026f94   0x0000005c   Code   RO         5477    i.app_timer_init    app_timer2.o
    0x00026ff0   0x00026ff0   0x00000030   Code   RO         5480    i.app_timer_start   app_timer2.o
    0x00027020   0x00027020   0x0000000c   Code   RO         5481    i.app_timer_stop    app_timer2.o
    0x0002702c   0x0002702c   0x00000034   Code   RO         5612    i.app_uart_get      app_uart_fifo.o
    0x00027060   0x00027060   0x000000a4   Code   RO         5613    i.app_uart_init     app_uart_fifo.o
    0x00027104   0x00027104   0x00000054   Code   RO         5614    i.app_uart_put      app_uart_fifo.o
    0x00027158   0x00027158   0x00000048   Code   RO         5687    i.app_util_critical_region_enter  app_util_platform.o
    0x000271a0   0x000271a0   0x00000034   Code   RO         5688    i.app_util_critical_region_exit  app_util_platform.o
    0x000271d4   0x000271d4   0x00000088   Code   RO         2733    i.apply_config      nrfx_uart.o
    0x0002725c   0x0002725c   0x00000088   Code   RO         2918    i.apply_config      nrfx_uarte.o
    0x000272e4   0x000272e4   0x00000004   Code   RO         3093    i.apply_pending_handle  gatt_cache_manager.o
    0x000272e8   0x000272e8   0x000000f4   Code   RO         4325    i.auth_status_success_process  security_dispatcher.o
    0x000273dc   0x000273dc   0x00000048   Code   RO         1713    i.blcm_link_ctx_get  ble_link_ctx_manager.o
    0x00027424   0x00027424   0x00000182   Code   RO          773    i.ble_advdata_encode  ble_advdata.o
    0x000275a6   0x000275a6   0x00000044   Code   RO          774    i.ble_advdata_name_find  ble_advdata.o
    0x000275ea   0x000275ea   0x00000020   Code   RO          775    i.ble_advdata_parse  ble_advdata.o
    0x0002760a   0x0002760a   0x00000046   Code   RO          776    i.ble_advdata_search  ble_advdata.o
    0x00027650   0x00027650   0x000000b6   Code   RO          778    i.ble_advdata_uuid_find  ble_advdata.o
    0x00027706   0x00027706   0x00000006   Code   RO         1379    i.ble_advertising_conn_cfg_tag_set  ble_advertising.o
    0x0002770c   0x0002770c   0x000000f8   Code   RO         1380    i.ble_advertising_init  ble_advertising.o
    0x00027804   0x00027804   0x0000006a   Code   RO         1382    i.ble_advertising_on_ble_evt  ble_advertising.o
    0x0002786e   0x0002786e   0x00000230   Code   RO         1385    i.ble_advertising_start  ble_advertising.o
    0x00027a9e   0x00027a9e   0x00000002   PAD
    0x00027aa0   0x00027aa0   0x00000098   Code   RO            6    i.ble_central_evt_handler  main.o
