Component: ARM Compiler 5.06 update 6 (build 750) Tool: armlink [4d35ed]

==============================================================================

Section Cross References

    main.o(i.advertising_init) refers to memseta.o(.text) for __aeabi_memclr4
    main.o(i.advertising_init) refers to ble_advertising.o(i.ble_advertising_init) for ble_advertising_init
    main.o(i.advertising_init) refers to app_error.o(i.app_error_handler_bare) for app_error_handler_bare
    main.o(i.advertising_init) refers to ble_advertising.o(i.ble_advertising_conn_cfg_tag_set) for ble_advertising_conn_cfg_tag_set
    main.o(i.advertising_init) refers to main.o(.data) for m_adv_uuids
    main.o(i.advertising_init) refers to main.o(i.on_adv_evt) for on_adv_evt
    main.o(i.advertising_init) refers to main.o(.bss) for m_advertising
    main.o(i.advertising_start) refers to ble_advertising.o(i.ble_advertising_start) for ble_advertising_start
    main.o(i.advertising_start) refers to app_error.o(i.app_error_handler_bare) for app_error_handler_bare
    main.o(i.advertising_start) refers to main.o(.bss) for m_advertising
    main.o(i.assert_nrf_callback) refers to app_error_handler_keil.o(.emb_text) for app_error_handler
    main.o(i.at_command_handle) refers to strcmp.o(.text) for strcmp
    main.o(i.at_command_handle) refers to strncmp.o(.text) for strncmp
    main.o(i.at_command_handle) refers to main.o(i.erase_writename) for erase_writename
    main.o(i.at_command_handle) refers to strcpy.o(.text) for strcpy
    main.o(i.at_command_handle) refers to strcat.o(.text) for strcat
    main.o(i.at_command_handle) refers to main.o(.bss) for result
    main.o(i.at_command_handle) refers to main.o(.conststring) for .conststring
==============================================================================

Removing Unused input sections from the image.

    Removing main.o(.rev16_text), (4 bytes).
    Removing main.o(.revsh_text), (4 bytes).
    Removing main.o(.rrx_text), (6 bytes).
    Removing main.o(i.assert_nrf_callback), (24 bytes).
    Removing main.o(i.gap_params_name_init), (126 bytes).
    Removing main.o(i.print_flash_info), (216 bytes).
    Removing main.o(i.sleep_mode_enter), (76 bytes).
    Removing boards.o(.rev16_text), (4 bytes).
    Removing boards.o(.revsh_text), (4 bytes).
    Removing boards.o(.rrx_text), (6 bytes).
    Removing boards.o(i.bsp_board_button_state_get), (48 bytes).
    Removing boards.o(i.bsp_board_buttons_init), (44 bytes).
    Removing boards.o(i.bsp_board_init), (26 bytes).
    Removing boards.o(i.bsp_board_led_idx_to_pin), (12 bytes).
    Removing boards.o(i.bsp_board_leds_init), (48 bytes).
    Removing boards.o(i.bsp_board_pin_to_led_idx), (36 bytes).
    Removing boards.o(i.nrf_gpio_cfg), (40 bytes).
    Removing bsp.o(.rev16_text), (4 bytes).
==============================================================================

Image Symbol Table

    Local Symbols

    Symbol Name                              Value     Ov Type        Size  Object(Section)

    ../clib/../cmprslib/zerorunl2.c          0x00000000   Number         0  __dczerorl2.o ABSOLUTE
    ../clib/microlib/ctype/ctype.c           0x00000000   Number         0  isxdigit_o.o ABSOLUTE
    ../clib/microlib/ctype/ctype.c           0x00000000   Number         0  isalnum_o.o ABSOLUTE
    ../clib/microlib/ctype/ctype.c           0x00000000   Number         0  isalpha_o.o ABSOLUTE
    ../clib/microlib/ctype/ctype.c           0x00000000   Number         0  ispunct_o.o ABSOLUTE
    ../clib/microlib/ctype/ctype.c           0x00000000   Number         0  isblank_o.o ABSOLUTE
    ../clib/microlib/ctype/ctype.c           0x00000000   Number         0  iscntrl_o.o ABSOLUTE
    ../clib/microlib/ctype/ctype.c           0x00000000   Number         0  isdigit_o.o ABSOLUTE
    ../clib/microlib/ctype/ctype.c           0x00000000   Number         0  isgraph_o.o ABSOLUTE
    ../clib/microlib/ctype/ctype.c           0x00000000   Number         0  islower_o.o ABSOLUTE
    ../clib/microlib/ctype/ctype.c           0x00000000   Number         0  isprint_o.o ABSOLUTE
    ../clib/microlib/ctype/ctype.c           0x00000000   Number         0  isspace_o.o ABSOLUTE
    ../clib/microlib/ctype/ctype.c           0x00000000   Number         0  isupper_o.o ABSOLUTE
    ../clib/microlib/ctype/ctype.c           0x00000000   Number         0  ctype_o.o ABSOLUTE
    ../clib/microlib/division.c              0x00000000   Number         0  uidiv.o ABSOLUTE
    ../clib/microlib/division.c              0x00000000   Number         0  uldiv.o ABSOLUTE
    ../clib/microlib/init/entry.s            0x00000000   Number         0  entry7b.o ABSOLUTE
    ../clib/microlib/init/entry.s            0x00000000   Number         0  entry11a.o ABSOLUTE
    ../clib/microlib/init/entry.s            0x00000000   Number         0  entry11b.o ABSOLUTE
    ../clib/microlib/init/entry.s            0x00000000   Number         0  entry2.o ABSOLUTE
    ../clib/microlib/init/entry.s            0x00000000   Number         0  entry5.o ABSOLUTE
    ../clib/microlib/init/entry.s            0x00000000   Number         0  entry7a.o ABSOLUTE
    ../clib/microlib/init/entry.s            0x00000000   Number         0  entry.o ABSOLUTE
    ../clib/microlib/init/entry.s            0x00000000   Number         0  entry8a.o ABSOLUTE
    ../clib/microlib/init/entry.s            0x00000000   Number         0  entry8b.o ABSOLUTE
    ../clib/microlib/init/entry.s            0x00000000   Number         0  entry9a.o ABSOLUTE
    ../clib/microlib/init/entry.s            0x00000000   Number         0  entry9b.o ABSOLUTE
    ../clib/microlib/init/entry.s            0x00000000   Number         0  entry10a.o ABSOLUTE
    ../clib/microlib/init/entry.s            0x00000000   Number         0  entry10b.o ABSOLUTE
    ../clib/microlib/longlong.c              0x00000000   Number         0  llushr.o ABSOLUTE
    ../clib/microlib/longlong.c              0x00000000   Number         0  llsshr.o ABSOLUTE
    ../clib/microlib/longlong.c              0x00000000   Number         0  llshl.o ABSOLUTE
    ../clib/microlib/printf/printf.c         0x00000000   Number         0  printf2.o ABSOLUTE
    ../clib/microlib/printf/printf.c         0x00000000   Number         0  printf6.o ABSOLUTE
    ../clib/microlib/printf/printf.c         0x00000000   Number         0  printf5.o ABSOLUTE
    ../clib/microlib/printf/printf.c         0x00000000   Number         0  printf4.o ABSOLUTE
    ../clib/microlib/printf/printf.c         0x00000000   Number         0  printf7.o ABSOLUTE
    ../clib/microlib/printf/printf.c         0x00000000   Number         0  printf8.o ABSOLUTE
    ../clib/microlib/printf/printf.c         0x00000000   Number         0  printfa.o ABSOLUTE
    ../clib/microlib/printf/printf.c         0x00000000   Number         0  printf3.o ABSOLUTE
    ../clib/microlib/printf/printf.c         0x00000000   Number         0  printf1.o ABSOLUTE
    ../clib/microlib/printf/printf.c         0x00000000   Number         0  printf0.o ABSOLUTE
    ../clib/microlib/printf/printf.c         0x00000000   Number         0  printfb.o ABSOLUTE
    ../clib/microlib/printf/stubs.s          0x00000000   Number         0  stubs.o ABSOLUTE
    ../clib/microlib/string/memcmp.c         0x00000000   Number         0  memcmp.o ABSOLUTE
    ../clib/microlib/string/memcpy.c         0x00000000   Number         0  memcpya.o ABSOLUTE
    ../clib/microlib/string/memcpy.c         0x00000000   Number         0  memcpyb.o ABSOLUTE
    ../clib/microlib/string/memset.c         0x00000000   Number         0  memseta.o ABSOLUTE
    ../clib/microlib/string/strcat.c         0x00000000   Number         0  strcat.o ABSOLUTE
    ../clib/microlib/string/strcmp.c         0x00000000   Number         0  strcmp.o ABSOLUTE
    ../clib/microlib/string/strcpy.c         0x00000000   Number         0  strcpy.o ABSOLUTE
    ../clib/microlib/string/strlen.c         0x00000000   Number         0  strlen.o ABSOLUTE
    ../clib/microlib/string/strncmp.c        0x00000000   Number         0  strncmp.o ABSOLUTE
    ../clib/microlib/string/strstr.c         0x00000000   Number         0  strstr.o ABSOLUTE
    ../clib/microlib/stubs.s                 0x00000000   Number         0  iusefp.o ABSOLUTE
    ../fplib/microlib/fpadd.c                0x00000000   Number         0  dadd.o ABSOLUTE
    ../fplib/microlib/fpdiv.c                0x00000000   Number         0  ddiv.o ABSOLUTE
    ../fplib/microlib/fpepilogue.c           0x00000000   Number         0  depilogue.o ABSOLUTE
    ../fplib/microlib/fpfix.c                0x00000000   Number         0  dfixul.o ABSOLUTE
    ../fplib/microlib/fpmul.c                0x00000000   Number         0  dmul.o ABSOLUTE
    ..\..\..\..\..\..\components\ble\ble_advertising\ble_advertising.c 0x00000000   Number         0  ble_advertising.o ABSOLUTE
    ..\..\..\..\..\..\components\ble\ble_db_discovery\ble_db_discovery.c 0x00000000   Number         0  ble_db_discovery.o ABSOLUTE
    ..\..\..\..\..\..\components\ble\ble_link_ctx_manager\ble_link_ctx_manager.c 0x00000000   Number         0  ble_link_ctx_manager.o ABSOLUTE
    ..\..\..\..\..\..\components\ble\common\ble_advdata.c 0x00000000   Number         0  ble_advdata.o ABSOLUTE
    ..\..\..\..\..\..\components\ble\common\ble_conn_params.c 0x00000000   Number         0  ble_conn_params.o ABSOLUTE
    ..\..\..\..\..\..\components\ble\common\ble_conn_state.c 0x00000000   Number         0  ble_conn_state.o ABSOLUTE
    ..\..\..\..\..\..\components\ble\common\ble_srv_common.c 0x00000000   Number         0  ble_srv_common.o ABSOLUTE
    ..\..\..\..\..\..\components\ble\nrf_ble_gatt\nrf_ble_gatt.c 0x00000000   Number         0  nrf_ble_gatt.o ABSOLUTE
    ..\..\..\..\..\..\components\ble\nrf_ble_gq\nrf_ble_gq.c 0x00000000   Number         0  nrf_ble_gq.o ABSOLUTE
    ..\..\..\..\..\..\components\ble\nrf_ble_qwr\nrf_ble_qwr.c 0x00000000   Number         0  nrf_ble_qwr.o ABSOLUTE
    ..\..\..\..\..\..\components\ble\nrf_ble_scan\nrf_ble_scan.c 0x00000000   Number         0  nrf_ble_scan.o ABSOLUTE
    ..\..\..\..\..\..\components\ble\peer_manager\auth_status_tracker.c 0x00000000   Number         0  auth_status_tracker.o ABSOLUTE
    ..\..\..\..\..\..\components\ble\peer_manager\gatt_cache_manager.c 0x00000000   Number         0  gatt_cache_manager.o ABSOLUTE
    ..\..\..\..\..\..\components\ble\peer_manager\gatts_cache_manager.c 0x00000000   Number         0  gatts_cache_manager.o ABSOLUTE
    ..\..\..\..\..\..\components\ble\peer_manager\id_manager.c 0x00000000   Number         0  id_manager.o ABSOLUTE
    ..\..\..\..\..\..\components\ble\peer_manager\nrf_ble_lesc.c 0x00000000   Number         0  nrf_ble_lesc.o ABSOLUTE
    ..\..\..\..\..\..\components\ble\peer_manager\peer_data_storage.c 0x00000000   Number         0  peer_data_storage.o ABSOLUTE
    ..\..\..\..\..\..\components\ble\peer_manager\peer_database.c 0x00000000   Number         0  peer_database.o ABSOLUTE
    ..\..\..\..\..\..\components\ble\peer_manager\peer_id.c 0x00000000   Number         0  peer_id.o ABSOLUTE
    ..\..\..\..\..\..\components\ble\peer_manager\peer_manager.c 0x00000000   Number         0  peer_manager.o ABSOLUTE
    ..\..\..\..\..\..\components\ble\peer_manager\peer_manager_handler.c 0x00000000   Number         0  peer_manager_handler.o ABSOLUTE
    ..\..\..\..\..\..\components\ble\peer_manager\pm_buffer.c 0x00000000   Number         0  pm_buffer.o ABSOLUTE
    ..\..\..\..\..\..\components\ble\peer_manager\security_dispatcher.c 0x00000000   Number         0  security_dispatcher.o ABSOLUTE
    ..\..\..\..\..\..\components\ble\peer_manager\security_manager.c 0x00000000   Number         0  security_manager.o ABSOLUTE
    ..\..\..\..\..\..\components\boards\boards.c 0x00000000   Number         0  boards.o ABSOLUTE
    ..\..\..\..\..\..\components\libraries\atomic\nrf_atomic.c 0x00000000   Number         0  nrf_atomic.o ABSOLUTE
    ..\..\..\..\..\..\components\libraries\atomic_fifo\nrf_atfifo.c 0x00000000   Number         0  nrf_atfifo.o ABSOLUTE
    ..\..\..\..\..\..\components\libraries\atomic_flags\nrf_atflags.c 0x00000000   Number         0  nrf_atflags.o ABSOLUTE
    ..\..\..\..\..\..\components\libraries\balloc\nrf_balloc.c 0x00000000   Number         0  nrf_balloc.o ABSOLUTE
    ..\..\..\..\..\..\components\libraries\bsp\bsp.c 0x00000000   Number         0  bsp.o ABSOLUTE
    ..\..\..\..\..\..\components\libraries\bsp\bsp_btn_ble.c 0x00000000   Number         0  bsp_btn_ble.o ABSOLUTE
    ..\..\..\..\..\..\components\libraries\button\app_button.c 0x00000000   Number         0  app_button.o ABSOLUTE
    ..\..\..\..\..\..\components\libraries\experimental_section_vars\nrf_section_iter.c 0x00000000   Number         0  nrf_section_iter.o ABSOLUTE
    ..\..\..\..\..\..\components\libraries\fds\fds.c 0x00000000   Number         0  fds.o ABSOLUTE
    ..\..\..\..\..\..\components\libraries\fifo\app_fifo.c 0x00000000   Number         0  app_fifo.o ABSOLUTE
    ..\..\..\..\..\..\components\libraries\fstorage\nrf_fstorage.c 0x00000000   Number         0  nrf_fstorage.o ABSOLUTE
    ..\..\..\..\..\..\components\libraries\fstorage\nrf_fstorage_sd.c 0x00000000   Number         0  nrf_fstorage_sd.o ABSOLUTE
    ..\..\..\..\..\..\components\libraries\hardfault\hardfault_implementation.c 0x00000000   Number         0  hardfault_implementation.o ABSOLUTE
    ..\..\..\..\..\..\components\libraries\log\src\nrf_log_backend_rtt.c 0x00000000   Number         0  nrf_log_backend_rtt.o ABSOLUTE
    ..\..\..\..\..\..\components\libraries\log\src\nrf_log_backend_serial.c 0x00000000   Number         0  nrf_log_backend_serial.o ABSOLUTE
    ..\..\..\..\..\..\components\libraries\log\src\nrf_log_default_backends.c 0x00000000   Number         0  nrf_log_default_backends.o ABSOLUTE
    ..\..\..\..\..\..\components\libraries\log\src\nrf_log_frontend.c 0x00000000   Number         0  nrf_log_frontend.o ABSOLUTE
    ..\..\..\..\..\..\components\libraries\log\src\nrf_log_str_formatter.c 0x00000000   Number         0  nrf_log_str_formatter.o ABSOLUTE
    ..\..\..\..\..\..\components\libraries\memobj\nrf_memobj.c 0x00000000   Number         0  nrf_memobj.o ABSOLUTE
    ..\..\..\..\..\..\components\libraries\pwr_mgmt\nrf_pwr_mgmt.c 0x00000000   Number         0  nrf_pwr_mgmt.o ABSOLUTE
    ..\..\..\..\..\..\components\libraries\queue\nrf_queue.c 0x00000000   Number         0  nrf_queue.o ABSOLUTE
    ..\..\..\..\..\..\components\libraries\ringbuf\nrf_ringbuf.c 0x00000000   Number         0  nrf_ringbuf.o ABSOLUTE
    ..\..\..\..\..\..\components\libraries\scheduler\app_scheduler.c 0x00000000   Number         0  app_scheduler.o ABSOLUTE
    ..\..\..\..\..\..\components\libraries\sortlist\nrf_sortlist.c 0x00000000   Number         0  nrf_sortlist.o ABSOLUTE
    ..\..\..\..\..\..\components\libraries\strerror\nrf_strerror.c 0x00000000   Number         0  nrf_strerror.o ABSOLUTE
    ..\..\..\..\..\..\components\libraries\timer\app_timer2.c 0x00000000   Number         0  app_timer2.o ABSOLUTE
    ..\..\..\..\..\..\components\libraries\timer\drv_rtc.c 0x00000000   Number         0  drv_rtc.o ABSOLUTE
    ..\..\..\..\..\..\components\libraries\uart\app_uart_fifo.c 0x00000000   Number         0  app_uart_fifo.o ABSOLUTE
    ..\..\..\..\..\..\components\libraries\uart\retarget.c 0x00000000   Number         0  retarget.o ABSOLUTE
    ..\..\..\..\..\..\components\libraries\util\app_error.c 0x00000000   Number         0  app_error.o ABSOLUTE
    ..\..\..\..\..\..\components\libraries\util\app_error_handler_keil.c 0x00000000   Number         0  app_error_handler_keil.o ABSOLUTE
    ..\..\..\..\..\..\components\libraries\util\app_error_weak.c 0x00000000   Number         0  app_error_weak.o ABSOLUTE
    ..\..\..\..\..\..\components\libraries\util\app_util_platform.c 0x00000000   Number         0  app_util_platform.o ABSOLUTE
    ..\..\..\..\..\..\components\libraries\util\nrf_assert.c 0x00000000   Number         0  nrf_assert.o ABSOLUTE
    ..\..\..\..\..\..\components\softdevice\common\nrf_sdh.c 0x00000000   Number         0  nrf_sdh.o ABSOLUTE
    ..\..\..\..\..\..\components\softdevice\common\nrf_sdh_ble.c 0x00000000   Number         0  nrf_sdh_ble.o ABSOLUTE
    ..\..\..\..\..\..\components\softdevice\common\nrf_sdh_soc.c 0x00000000   Number         0  nrf_sdh_soc.o ABSOLUTE
    ..\..\..\..\..\..\external\fprintf\nrf_fprintf.c 0x00000000   Number         0  nrf_fprintf.o ABSOLUTE
    ..\..\..\..\..\..\external\fprintf\nrf_fprintf_format.c 0x00000000   Number         0  nrf_fprintf_format.o ABSOLUTE
    ..\..\..\..\..\..\external\segger_rtt\SEGGER_RTT.c 0x00000000   Number         0  segger_rtt.o ABSOLUTE
    ..\..\..\..\..\..\external\segger_rtt\SEGGER_RTT_Syscalls_KEIL.c 0x00000000   Number         0  segger_rtt_syscalls_keil.o ABSOLUTE
    ..\..\..\..\..\..\external\segger_rtt\SEGGER_RTT_printf.c 0x00000000   Number         0  segger_rtt_printf.o ABSOLUTE
    ..\..\..\..\..\..\external\utf_converter\utf.c 0x00000000   Number         0  utf.o ABSOLUTE
    ..\..\..\..\..\..\integration\nrfx\legacy\nrf_drv_clock.c 0x00000000   Number         0  nrf_drv_clock.o ABSOLUTE
    ..\..\..\..\..\..\integration\nrfx\legacy\nrf_drv_uart.c 0x00000000   Number         0  nrf_drv_uart.o ABSOLUTE
    ..\..\..\..\..\..\modules\nrfx\drivers\src\nrfx_clock.c 0x00000000   Number         0  nrfx_clock.o ABSOLUTE
    ..\..\..\..\..\..\modules\nrfx\drivers\src\nrfx_gpiote.c 0x00000000   Number         0  nrfx_gpiote.o ABSOLUTE
    ..\..\..\..\..\..\modules\nrfx\drivers\src\nrfx_timer.c 0x00000000   Number         0  nrfx_timer.o ABSOLUTE
    ..\..\..\..\..\..\modules\nrfx\drivers\src\nrfx_uart.c 0x00000000   Number         0  nrfx_uart.o ABSOLUTE
    ..\..\..\..\..\..\modules\nrfx\drivers\src\nrfx_uarte.c 0x00000000   Number         0  nrfx_uarte.o ABSOLUTE
    ..\..\..\..\..\..\modules\nrfx\drivers\src\prs\nrfx_prs.c 0x00000000   Number         0  nrfx_prs.o ABSOLUTE
    ..\..\..\..\..\..\modules\nrfx\soc\nrfx_atomic.c 0x00000000   Number         0  nrfx_atomic.o ABSOLUTE
    ..\..\..\ble_nus\ble_nus.c               0x00000000   Number         0  ble_nus.o ABSOLUTE
    ..\..\..\ble_nus_c\ble_nus_c.c           0x00000000   Number         0  ble_nus_c.o ABSOLUTE
    ..\..\..\main.c                          0x00000000   Number         0  main.o ABSOLUTE
    ..\\..\\..\\..\\..\\..\\components\\ble\\ble_advertising\\ble_advertising.c 0x00000000   Number         0  ble_advertising.o ABSOLUTE
    ..\\..\\..\\..\\..\\..\\components\\ble\\ble_db_discovery\\ble_db_discovery.c 0x00000000   Number         0  ble_db_discovery.o ABSOLUTE
    ..\\..\\..\\..\\..\\..\\components\\ble\\ble_link_ctx_manager\\ble_link_ctx_manager.c 0x00000000   Number         0  ble_link_ctx_manager.o ABSOLUTE
    ..\\..\\..\\..\\..\\..\\components\\ble\\common\\ble_advdata.c 0x00000000   Number         0  ble_advdata.o ABSOLUTE
    ..\\..\\..\\..\\..\\..\\components\\ble\\common\\ble_conn_params.c 0x00000000   Number         0  ble_conn_params.o ABSOLUTE
    ..\\..\\..\\..\\..\\..\\components\\ble\\common\\ble_conn_state.c 0x00000000   Number         0  ble_conn_state.o ABSOLUTE
    ..\\..\\..\\..\\..\\..\\components\\ble\\common\\ble_srv_common.c 0x00000000   Number         0  ble_srv_common.o ABSOLUTE
    ..\\..\\..\\..\\..\\..\\components\\ble\\nrf_ble_gatt\\nrf_ble_gatt.c 0x00000000   Number         0  nrf_ble_gatt.o ABSOLUTE
    ..\\..\\..\\..\\..\\..\\components\\ble\\nrf_ble_gq\\nrf_ble_gq.c 0x00000000   Number         0  nrf_ble_gq.o ABSOLUTE
    ..\\..\\..\\..\\..\\..\\components\\ble\\nrf_ble_qwr\\nrf_ble_qwr.c 0x00000000   Number         0  nrf_ble_qwr.o ABSOLUTE
    ..\\..\\..\\..\\..\\..\\components\\ble\\nrf_ble_scan\\nrf_ble_scan.c 0x00000000   Number         0  nrf_ble_scan.o ABSOLUTE
    ..\\..\\..\\..\\..\\..\\components\\ble\\peer_manager\\auth_status_tracker.c 0x00000000   Number         0  auth_status_tracker.o ABSOLUTE
    ..\\..\\..\\..\\..\\..\\components\\ble\\peer_manager\\gatt_cache_manager.c 0x00000000   Number         0  gatt_cache_manager.o ABSOLUTE
    ..\\..\\..\\..\\..\\..\\components\\ble\\peer_manager\\gatts_cache_manager.c 0x00000000   Number         0  gatts_cache_manager.o ABSOLUTE
    ..\\..\\..\\..\\..\\..\\components\\ble\\peer_manager\\id_manager.c 0x00000000   Number         0  id_manager.o ABSOLUTE
    ..\\..\\..\\..\\..\\..\\components\\ble\\peer_manager\\nrf_ble_lesc.c 0x00000000   Number         0  nrf_ble_lesc.o ABSOLUTE
    ..\\..\\..\\..\\..\\..\\components\\ble\\peer_manager\\peer_data_storage.c 0x00000000   Number         0  peer_data_storage.o ABSOLUTE
    ..\\..\\..\\..\\..\\..\\components\\ble\\peer_manager\\peer_database.c 0x00000000   Number         0  peer_database.o ABSOLUTE
    ..\\..\\..\\..\\..\\..\\components\\ble\\peer_manager\\peer_id.c 0x00000000   Number         0  peer_id.o ABSOLUTE
    ..\\..\\..\\..\\..\\..\\components\\ble\\peer_manager\\peer_manager.c 0x00000000   Number         0  peer_manager.o ABSOLUTE
    ..\\..\\..\\..\\..\\..\\components\\ble\\peer_manager\\peer_manager_handler.c 0x00000000   Number         0  peer_manager_handler.o ABSOLUTE
    ..\\..\\..\\..\\..\\..\\components\\ble\\peer_manager\\pm_buffer.c 0x00000000   Number         0  pm_buffer.o ABSOLUTE
    ..\\..\\..\\..\\..\\..\\components\\ble\\peer_manager\\security_dispatcher.c 0x00000000   Number         0  security_dispatcher.o ABSOLUTE
    ..\\..\\..\\..\\..\\..\\components\\ble\\peer_manager\\security_manager.c 0x00000000   Number         0  security_manager.o ABSOLUTE
    ..\\..\\..\\..\\..\\..\\components\\boards\\boards.c 0x00000000   Number         0  boards.o ABSOLUTE
    ..\\..\\..\\..\\..\\..\\components\\libraries\\atomic\\nrf_atomic.c 0x00000000   Number         0  nrf_atomic.o ABSOLUTE
    ..\\..\\..\\..\\..\\..\\components\\libraries\\atomic_fifo\\nrf_atfifo.c 0x00000000   Number         0  nrf_atfifo.o ABSOLUTE
    ..\\..\\..\\..\\..\\..\\components\\libraries\\atomic_flags\\nrf_atflags.c 0x00000000   Number         0  nrf_atflags.o ABSOLUTE
    ..\\..\\..\\..\\..\\..\\components\\libraries\\balloc\\nrf_balloc.c 0x00000000   Number         0  nrf_balloc.o ABSOLUTE
    ..\\..\\..\\..\\..\\..\\components\\libraries\\bsp\\bsp.c 0x00000000   Number         0  bsp.o ABSOLUTE
    ..\\..\\..\\..\\..\\..\\components\\libraries\\bsp\\bsp_btn_ble.c 0x00000000   Number         0  bsp_btn_ble.o ABSOLUTE
    ..\\..\\..\\..\\..\\..\\components\\libraries\\button\\app_button.c 0x00000000   Number         0  app_button.o ABSOLUTE
    ..\\..\\..\\..\\..\\..\\components\\libraries\\experimental_section_vars\\nrf_section_iter.c 0x00000000   Number         0  nrf_section_iter.o ABSOLUTE
    ..\\..\\..\\..\\..\\..\\components\\libraries\\fds\\fds.c 0x00000000   Number         0  fds.o ABSOLUTE
    ..\\..\\..\\..\\..\\..\\components\\libraries\\fifo\\app_fifo.c 0x00000000   Number         0  app_fifo.o ABSOLUTE
    ..\\..\\..\\..\\..\\..\\components\\libraries\\fstorage\\nrf_fstorage.c 0x00000000   Number         0  nrf_fstorage.o ABSOLUTE
    ..\\..\\..\\..\\..\\..\\components\\libraries\\fstorage\\nrf_fstorage_sd.c 0x00000000   Number         0  nrf_fstorage_sd.o ABSOLUTE
    ..\\..\\..\\..\\..\\..\\components\\libraries\\hardfault\\hardfault_implementation.c 0x00000000   Number         0  hardfault_implementation.o ABSOLUTE
    ..\\..\\..\\..\\..\\..\\components\\libraries\\log\\src\\nrf_log_backend_rtt.c 0x00000000   Number         0  nrf_log_backend_rtt.o ABSOLUTE
    ..\\..\\..\\..\\..\\..\\components\\libraries\\log\\src\\nrf_log_backend_serial.c 0x00000000   Number         0  nrf_log_backend_serial.o ABSOLUTE
    ..\\..\\..\\..\\..\\..\\components\\libraries\\log\\src\\nrf_log_default_backends.c 0x00000000   Number         0  nrf_log_default_backends.o ABSOLUTE
    ..\\..\\..\\..\\..\\..\\components\\libraries\\log\\src\\nrf_log_frontend.c 0x00000000   Number         0  nrf_log_frontend.o ABSOLUTE
    ..\\..\\..\\..\\..\\..\\components\\libraries\\log\\src\\nrf_log_str_formatter.c 0x00000000   Number         0  nrf_log_str_formatter.o ABSOLUTE
    ..\\..\\..\\..\\..\\..\\components\\libraries\\memobj\\nrf_memobj.c 0x00000000   Number         0  nrf_memobj.o ABSOLUTE
    ..\\..\\..\\..\\..\\..\\components\\libraries\\pwr_mgmt\\nrf_pwr_mgmt.c 0x00000000   Number         0  nrf_pwr_mgmt.o ABSOLUTE
    ..\\..\\..\\..\\..\\..\\components\\libraries\\queue\\nrf_queue.c 0x00000000   Number         0  nrf_queue.o ABSOLUTE
    ..\\..\\..\\..\\..\\..\\components\\libraries\\ringbuf\\nrf_ringbuf.c 0x00000000   Number         0  nrf_ringbuf.o ABSOLUTE
    ..\\..\\..\\..\\..\\..\\components\\libraries\\scheduler\\app_scheduler.c 0x00000000   Number         0  app_scheduler.o ABSOLUTE
    ..\\..\\..\\..\\..\\..\\components\\libraries\\sortlist\\nrf_sortlist.c 0x00000000   Number         0  nrf_sortlist.o ABSOLUTE
    ..\\..\\..\\..\\..\\..\\components\\libraries\\strerror\\nrf_strerror.c 0x00000000   Number         0  nrf_strerror.o ABSOLUTE
    ..\\..\\..\\..\\..\\..\\components\\libraries\\timer\\app_timer2.c 0x00000000   Number         0  app_timer2.o ABSOLUTE
    ..\\..\\..\\..\\..\\..\\components\\libraries\\timer\\drv_rtc.c 0x00000000   Number         0  drv_rtc.o ABSOLUTE
    ..\\..\\..\\..\\..\\..\\components\\libraries\\uart\\app_uart_fifo.c 0x00000000   Number         0  app_uart_fifo.o ABSOLUTE
    ..\\..\\..\\..\\..\\..\\components\\libraries\\uart\\retarget.c 0x00000000   Number         0  retarget.o ABSOLUTE
    ..\\..\\..\\..\\..\\..\\components\\libraries\\util\\app_error.c 0x00000000   Number         0  app_error.o ABSOLUTE
    ..\\..\\..\\..\\..\\..\\components\\libraries\\util\\app_error_handler_keil.c 0x00000000   Number         0  app_error_handler_keil.o ABSOLUTE
    ..\\..\\..\\..\\..\\..\\components\\libraries\\util\\app_error_weak.c 0x00000000   Number         0  app_error_weak.o ABSOLUTE
    ..\\..\\..\\..\\..\\..\\components\\libraries\\util\\app_util_platform.c 0x00000000   Number         0  app_util_platform.o ABSOLUTE
    ..\\..\\..\\..\\..\\..\\components\\libraries\\util\\nrf_assert.c 0x00000000   Number         0  nrf_assert.o ABSOLUTE
    ..\\..\\..\\..\\..\\..\\components\\softdevice\\common\\nrf_sdh.c 0x00000000   Number         0  nrf_sdh.o ABSOLUTE
    ..\\..\\..\\..\\..\\..\\components\\softdevice\\common\\nrf_sdh_ble.c 0x00000000   Number         0  nrf_sdh_ble.o ABSOLUTE
    ..\\..\\..\\..\\..\\..\\components\\softdevice\\common\\nrf_sdh_soc.c 0x00000000   Number         0  nrf_sdh_soc.o ABSOLUTE
    ..\\..\\..\\..\\..\\..\\external\\fprintf\\nrf_fprintf.c 0x00000000   Number         0  nrf_fprintf.o ABSOLUTE
    ..\\..\\..\\..\\..\\..\\external\\fprintf\\nrf_fprintf_format.c 0x00000000   Number         0  nrf_fprintf_format.o ABSOLUTE
    ..\\..\\..\\..\\..\\..\\external\\segger_rtt\\SEGGER_RTT.c 0x00000000   Number         0  segger_rtt.o ABSOLUTE
    ..\\..\\..\\..\\..\\..\\external\\segger_rtt\\SEGGER_RTT_printf.c 0x00000000   Number         0  segger_rtt_printf.o ABSOLUTE
    ..\\..\\..\\..\\..\\..\\integration\\nrfx\\legacy\\nrf_drv_clock.c 0x00000000   Number         0  nrf_drv_clock.o ABSOLUTE
    ..\\..\\..\\..\\..\\..\\integration\\nrfx\\legacy\\nrf_drv_uart.c 0x00000000   Number         0  nrf_drv_uart.o ABSOLUTE
    ..\\..\\..\\..\\..\\..\\modules\\nrfx\\drivers\\src\\nrfx_clock.c 0x00000000   Number         0  nrfx_clock.o ABSOLUTE
    ..\\..\\..\\..\\..\\..\\modules\\nrfx\\drivers\\src\\nrfx_gpiote.c 0x00000000   Number         0  nrfx_gpiote.o ABSOLUTE
    ..\\..\\..\\..\\..\\..\\modules\\nrfx\\drivers\\src\\nrfx_timer.c 0x00000000   Number         0  nrfx_timer.o ABSOLUTE
    ..\\..\\..\\..\\..\\..\\modules\\nrfx\\drivers\\src\\nrfx_uart.c 0x00000000   Number         0  nrfx_uart.o ABSOLUTE
    ..\\..\\..\\..\\..\\..\\modules\\nrfx\\drivers\\src\\nrfx_uarte.c 0x00000000   Number         0  nrfx_uarte.o ABSOLUTE
    ..\\..\\..\\..\\..\\..\\modules\\nrfx\\drivers\\src\\prs\\nrfx_prs.c 0x00000000   Number         0  nrfx_prs.o ABSOLUTE
    ..\\..\\..\\..\\..\\..\\modules\\nrfx\\soc\\nrfx_atomic.c 0x00000000   Number         0  nrfx_atomic.o ABSOLUTE
    ..\\..\\..\\ble_nus\\ble_nus.c           0x00000000   Number         0  ble_nus.o ABSOLUTE
    ..\\..\\..\\ble_nus_c\\ble_nus_c.c       0x00000000   Number         0  ble_nus_c.o ABSOLUTE
    ..\\..\\..\\main.c                       0x00000000   Number         0  main.o ABSOLUTE
    RTE\Device\nRF52805_xxAA\arm_startup_nrf52805.s 0x00000000   Number         0  arm_startup_nrf52805.o ABSOLUTE
    RTE\Device\nRF52805_xxAA\system_nrf52.c  0x00000000   Number         0  system_nrf52.o ABSOLUTE
    RTE\\Device\\nRF52805_xxAA\\system_nrf52.c 0x00000000   Number         0  system_nrf52.o ABSOLUTE
    cdrcmple.s                               0x00000000   Number         0  cdrcmple.o ABSOLUTE
    dc.s                                     0x00000000   Number         0  dc.o ABSOLUTE
    handlers.s                               0x00000000   Number         0  handlers.o ABSOLUTE
    init.s                                   0x00000000   Number         0  init.o ABSOLUTE
    RESET                                    0x00026000   Section      512  arm_startup_nrf52805.o(RESET)
    .ARM.Collect$$$$00000000                 0x00026200   Section        0  entry.o(.ARM.Collect$$$$00000000)
    .ARM.Collect$$$$00000001                 0x00026200   Section        4  entry2.o(.ARM.Collect$$$$00000001)
    .ARM.Collect$$$$00000004                 0x00026204   Section        4  entry5.o(.ARM.Collect$$$$00000004)
    .ARM.Collect$$$$00000008                 0x00026208   Section        0  entry7b.o(.ARM.Collect$$$$00000008)
    .ARM.Collect$$$$0000000A                 0x00026208   Section        0  entry8b.o(.ARM.Collect$$$$0000000A)
    .ARM.Collect$$$$0000000B                 0x00026208   Section        8  entry9a.o(.ARM.Collect$$$$0000000B)
    .ARM.Collect$$$$0000000D                 0x00026210   Section        0  entry10a.o(.ARM.Collect$$$$0000000D)
    .ARM.Collect$$$$0000000F                 0x00026210   Section        0  entry11a.o(.ARM.Collect$$$$0000000F)
    .ARM.Collect$$$$00002712                 0x00026210   Section        4  entry2.o(.ARM.Collect$$$$00002712)
    __lit__00000000                          0x00026210   Data           4  entry2.o(.ARM.Collect$$$$00002712)
    .emb_text                                0x00026214   Section      200  nrf_atfifo.o(.emb_text)
    .emb_text                                0x000262dc   Section      226  nrf_atomic.o(.emb_text)
    .text                                    0x000263c0   Section       36  arm_startup_nrf52805.o(.text)
    .text                                    0x000263e4   Section        0  uldiv.o(.text)
    .text                                    0x00026446   Section        0  llshl.o(.text)
    .text                                    0x00026464   Section        0  ctype_o.o(.text)
    .text                                    0x0002646c   Section        0  memcpya.o(.text)
    .text                                    0x00026490   Section        0  memseta.o(.text)
    .text                                    0x000264b4   Section        0  strcat.o(.text)
    .text                                    0x000264cc   Section        0  strstr.o(.text)
    .text                                    0x000264f0   Section        0  strlen.o(.text)
    .text                                    0x000264fe   Section        0  strcmp.o(.text)
    .text                                    0x0002651a   Section        0  memcmp.o(.text)
    .text                                    0x00026534   Section        0  strcpy.o(.text)
    .text                                    0x00026546   Section        0  strncmp.o(.text)
    .text                                    0x00026564   Section        0  llushr.o(.text)
    .text                                    0x00026584   Section       36  init.o(.text)
    .text                                    0x000265a8   Section        0  __dczerorl2.o(.text)
    i.GPIOTE_IRQHandler                      0x00026600   Section        0  nrfx_gpiote.o(i.GPIOTE_IRQHandler)
    i.POWER_CLOCK_IRQHandler                 0x000266bc   Section        0  nrfx_clock.o(i.POWER_CLOCK_IRQHandler)
    i.RTC1_IRQHandler                        0x00026704   Section        0  drv_rtc.o(i.RTC1_IRQHandler)
    i.SEGGER_RTT_Init                        0x0002671c   Section        0  segger_rtt.o(i.SEGGER_RTT_Init)
    i.SEGGER_RTT_WriteNoLock                 0x00026724   Section        0  segger_rtt.o(i.SEGGER_RTT_WriteNoLock)
    i.SWI2_IRQHandler                        0x000267a8   Section        0  nrf_sdh.o(i.SWI2_IRQHandler)
    i.SystemCoreClockUpdate                  0x000267b0   Section        0  system_nrf52.o(i.SystemCoreClockUpdate)
    i.SystemInit                             0x000267c0   Section        0  system_nrf52.o(i.SystemInit)
    i.TIMER0_IRQHandler                      0x00026a2c   Section        0  nrfx_timer.o(i.TIMER0_IRQHandler)
    i.TIMER1_IRQHandler                      0x00026a44   Section        0  nrfx_timer.o(i.TIMER1_IRQHandler)
    i.UARTE0_UART0_IRQHandler                0x00026a5c   Section        0  nrfx_prs.o(i.UARTE0_UART0_IRQHandler)
    i._DoInit                                0x00026a6c   Section        0  segger_rtt.o(i._DoInit)
    _DoInit                                  0x00026a6d   Thumb Code    74  segger_rtt.o(i._DoInit)
    i._GetAvailWriteSpace                    0x00026adc   Section        0  segger_rtt.o(i._GetAvailWriteSpace)
    _GetAvailWriteSpace                      0x00026add   Thumb Code    28  segger_rtt.o(i._GetAvailWriteSpace)
    i._WriteBlocking                         0x00026af8   Section        0  segger_rtt.o(i._WriteBlocking)
    _WriteBlocking                           0x00026af9   Thumb Code   114  segger_rtt.o(i._WriteBlocking)
    i._WriteNoCheck                          0x00026b6a   Section        0  segger_rtt.o(i._WriteNoCheck)
    _WriteNoCheck                            0x00026b6b   Thumb Code    76  segger_rtt.o(i._WriteNoCheck)
    i.__0printf$8                            0x00026bb8   Section        0  printf8.o(i.__0printf$8)
    i.__scatterload_copy                     0x00026bd8   Section       14  handlers.o(i.__scatterload_copy)
    i.__scatterload_null                     0x00026be6   Section        2  handlers.o(i.__scatterload_null)
    i.__scatterload_zeroinit                 0x00026be8   Section       14  handlers.o(i.__scatterload_zeroinit)
    i.__sd_nvic_app_accessible_irq           0x00026bf8   Section        0  nrf_sdh.o(i.__sd_nvic_app_accessible_irq)
    __sd_nvic_app_accessible_irq             0x00026bf9   Thumb Code    52  nrf_sdh.o(i.__sd_nvic_app_accessible_irq)
    i.__sd_nvic_irq_disable                  0x00026c30   Section        0  app_util_platform.o(i.__sd_nvic_irq_disable)
    __sd_nvic_irq_disable                    0x00026c31   Thumb Code    12  app_util_platform.o(i.__sd_nvic_irq_disable)
    i._printf_core                           0x00026c3c   Section        0  printf8.o(i._printf_core)
    _printf_core                             0x00026c3d   Thumb Code   996  printf8.o(i._printf_core)
    i._printf_post_padding                   0x0002704c   Section        0  printf8.o(i._printf_post_padding)
    _printf_post_padding                     0x0002704d   Thumb Code    36  printf8.o(i._printf_post_padding)
    i._printf_pre_padding                    0x00027070   Section        0  printf8.o(i._printf_pre_padding)
    _printf_pre_padding                      0x00027071   Thumb Code    46  printf8.o(i._printf_pre_padding)
    i.addr_compare                           0x0002709e   Section        0  id_manager.o(i.addr_compare)
    i.addr_is_aligned32                      0x000270d0   Section        0  nrf_fstorage.o(i.addr_is_aligned32)
    addr_is_aligned32                        0x000270d1   Thumb Code    16  nrf_fstorage.o(i.addr_is_aligned32)
    i.addr_is_page_aligned                   0x000270e0   Section        0  nrf_fstorage.o(i.addr_is_page_aligned)
    addr_is_page_aligned                     0x000270e1   Thumb Code    20  nrf_fstorage.o(i.addr_is_page_aligned)
    i.addr_is_valid                          0x000270f4   Section        0  ble_advertising.o(i.addr_is_valid)
    addr_is_valid                            0x000270f5   Thumb Code    24  ble_advertising.o(i.addr_is_valid)
    i.addr_is_within_bounds                  0x0002710c   Section        0  nrf_fstorage.o(i.addr_is_within_bounds)
    addr_is_within_bounds                    0x0002710d   Thumb Code    28  nrf_fstorage.o(i.addr_is_within_bounds)
    i.address_is_valid                       0x00027128   Section        0  fds.o(i.address_is_valid)
    address_is_valid                         0x00027129   Thumb Code    38  fds.o(i.address_is_valid)
    i.adv_addr_compare                       0x00027154   Section        0  nrf_ble_scan.o(i.adv_addr_compare)
    adv_addr_compare                         0x00027155   Thumb Code    54  nrf_ble_scan.o(i.adv_addr_compare)
    i.adv_mode_next_avail_get                0x0002718a   Section        0  ble_advertising.o(i.adv_mode_next_avail_get)
    adv_mode_next_avail_get                  0x0002718b   Thumb Code    88  ble_advertising.o(i.adv_mode_next_avail_get)
    i.adv_mode_next_get                      0x000271e2   Section        0  ble_advertising.o(i.adv_mode_next_get)
    adv_mode_next_get                        0x000271e3   Thumb Code    18  ble_advertising.o(i.adv_mode_next_get)
    i.adv_name_compare                       0x000271f4   Section        0  nrf_ble_scan.o(i.adv_name_compare)
    adv_name_compare                         0x000271f5   Thumb Code    54  nrf_ble_scan.o(i.adv_name_compare)
    i.adv_set_data_size_max_get              0x0002722a   Section        0  ble_advertising.o(i.adv_set_data_size_max_get)
    adv_set_data_size_max_get                0x0002722b   Thumb Code    18  ble_advertising.o(i.adv_set_data_size_max_get)
    i.adv_uuid_compare                       0x0002723c   Section        0  nrf_ble_scan.o(i.adv_uuid_compare)
    adv_uuid_compare                         0x0002723d   Thumb Code    98  nrf_ble_scan.o(i.adv_uuid_compare)
    i.advertising_buttons_configure          0x0002729e   Section        0  bsp_btn_ble.o(i.advertising_buttons_configure)
    advertising_buttons_configure            0x0002729f   Thumb Code    84  bsp_btn_ble.o(i.advertising_buttons_configure)
    i.advertising_init                       0x000272f4   Section        0  main.o(i.advertising_init)
    advertising_init                         0x000272f5   Thumb Code   100  main.o(i.advertising_init)
    i.advertising_start                      0x00027364   Section        0  main.o(i.advertising_start)
    advertising_start                        0x00027365   Thumb Code    32  main.o(i.advertising_start)
    i.ah                                     0x00027388   Section        0  id_manager.o(i.ah)
    i.allow_repairing                        0x000273e0   Section        0  security_dispatcher.o(i.allow_repairing)
    allow_repairing                          0x000273e1   Thumb Code    16  security_dispatcher.o(i.allow_repairing)
    i.app_error_fault_handler                0x000273f4   Section        0  app_error_weak.o(i.app_error_fault_handler)
    i.app_error_handler_bare                 0x000274b0   Section        0  app_error.o(i.app_error_handler_bare)
    i.app_fifo_get                           0x000274cc   Section        0  app_fifo.o(i.app_fifo_get)
    i.app_fifo_init                          0x000274ea   Section        0  app_fifo.o(i.app_fifo_init)
    i.app_fifo_put                           0x0002750e   Section        0  app_fifo.o(i.app_fifo_put)
    i.app_timer_cnt_get                      0x00027530   Section        0  app_timer2.o(i.app_timer_cnt_get)
    i.app_timer_create                       0x00027540   Section        0  app_timer2.o(i.app_timer_create)
    i.app_timer_init                         0x00027560   Section        0  app_timer2.o(i.app_timer_init)
    i.app_timer_start                        0x000275cc   Section        0  app_timer2.o(i.app_timer_start)
    i.app_timer_stop                         0x00027602   Section        0  app_timer2.o(i.app_timer_stop)
    i.app_uart_close                         0x00027618   Section        0  app_uart_fifo.o(i.app_uart_close)
    i.app_uart_get                           0x0002764c   Section        0  app_uart_fifo.o(i.app_uart_get)
    i.app_uart_init                          0x000276a0   Section        0  app_uart_fifo.o(i.app_uart_init)
    i.app_uart_put                           0x0002777c   Section        0  app_uart_fifo.o(i.app_uart_put)
    i.app_util_critical_region_enter         0x000277e8   Section        0  app_util_platform.o(i.app_util_critical_region_enter)
    i.app_util_critical_region_exit          0x000277f4   Section        0  app_util_platform.o(i.app_util_critical_region_exit)
    i.appearance_encode                      0x0002783c   Section        0  ble_advdata.o(i.appearance_encode)
    appearance_encode                        0x0002783d   Thumb Code    82  ble_advdata.o(i.appearance_encode)
    i.apply_config                           0x0002788e   Section        0  nrfx_uart.o(i.apply_config)
    apply_config                             0x0002788f   Thumb Code   124  nrfx_uart.o(i.apply_config)
    i.apply_config                           0x0002790a   Section        0  nrfx_uarte.o(i.apply_config)
    apply_config                             0x0002790b   Thumb Code   124  nrfx_uarte.o(i.apply_config)
    i.apply_pending_handle                   0x00027986   Section        0  gatt_cache_manager.o(i.apply_pending_handle)
    apply_pending_handle                     0x00027987   Thumb Code    14  gatt_cache_manager.o(i.apply_pending_handle)
    i.at_command_handle                      0x00027994   Section        0  main.o(i.at_command_handle)
    i.auth_status_failure_process            0x00028208   Section        0  security_dispatcher.o(i.auth_status_failure_process)
    auth_status_failure_process              0x00028209   Thumb Code    20  security_dispatcher.o(i.auth_status_failure_process)
    i.auth_status_process                    0x0002821c   Section        0  security_dispatcher.o(i.auth_status_process)
    auth_status_process                      0x0002821d   Thumb Code    28  security_dispatcher.o(i.auth_status_process)
    i.auth_status_success_process            0x00028238   Section        0  security_dispatcher.o(i.auth_status_success_process)
    auth_status_success_process              0x00028239   Thumb Code   372  security_dispatcher.o(i.auth_status_success_process)
    i.backend_id_assign                      0x000283f4   Section        0  nrf_log_frontend.o(i.backend_id_assign)
    backend_id_assign                        0x000283f5   Thumb Code    56  nrf_log_frontend.o(i.backend_id_assign)
    i.blcm_link_ctx_get                      0x00028430   Section        0  ble_link_ctx_manager.o(i.blcm_link_ctx_get)
    i.ble_advdata_encode                     0x0002849c   Section        0  ble_advdata.o(i.ble_advdata_encode)
    i.ble_advdata_name_find                  0x00028608   Section        0  ble_advdata.o(i.ble_advdata_name_find)
    i.ble_advdata_parse                      0x00028656   Section        0  ble_advdata.o(i.ble_advdata_parse)
    i.ble_advdata_search                     0x0002867e   Section        0  ble_advdata.o(i.ble_advdata_search)
    i.ble_advdata_uuid_find                  0x000286da   Section        0  ble_advdata.o(i.ble_advdata_uuid_find)
    i.ble_advertising_conn_cfg_tag_set       0x000287aa   Section        0  ble_advertising.o(i.ble_advertising_conn_cfg_tag_set)
    i.ble_advertising_init                   0x000287b0   Section        0  ble_advertising.o(i.ble_advertising_init)
    i.ble_advertising_on_ble_evt             0x000288b8   Section        0  ble_advertising.o(i.ble_advertising_on_ble_evt)
    i.ble_advertising_start                  0x000288f4   Section        0  ble_advertising.o(i.ble_advertising_start)
    i.ble_central_evt_handler                0x00028a68   Section        0  main.o(i.ble_central_evt_handler)
    ble_central_evt_handler                  0x00028a69   Thumb Code   412  main.o(i.ble_central_evt_handler)
    i.ble_conn_params_init                   0x00028cac   Section        0  ble_conn_params.o(i.ble_conn_params_init)
    i.ble_conn_state_conn_idx                0x00028d48   Section        0  ble_conn_state.o(i.ble_conn_state_conn_idx)
    i.ble_conn_state_encrypted               0x00028d5c   Section        0  ble_conn_state.o(i.ble_conn_state_encrypted)
    i.ble_conn_state_for_each_set_user_flag  0x00028d7c   Section        0  ble_conn_state.o(i.ble_conn_state_for_each_set_user_flag)
    i.ble_conn_state_lesc                    0x00028da4   Section        0  ble_conn_state.o(i.ble_conn_state_lesc)
    i.ble_conn_state_mitm_protected          0x00028dc4   Section        0  ble_conn_state.o(i.ble_conn_state_mitm_protected)
    i.ble_conn_state_role                    0x00028de4   Section        0  ble_conn_state.o(i.ble_conn_state_role)
    i.ble_conn_state_status                  0x00028e10   Section        0  ble_conn_state.o(i.ble_conn_state_status)
    i.ble_conn_state_user_flag_get           0x00028e3c   Section        0  ble_conn_state.o(i.ble_conn_state_user_flag_get)
    i.ble_conn_state_user_flag_set           0x00028e68   Section        0  ble_conn_state.o(i.ble_conn_state_user_flag_set)
    i.ble_conn_state_valid                   0x00028e94   Section        0  ble_conn_state.o(i.ble_conn_state_valid)
    i.ble_db_discovery_evt_register          0x00028eb0   Section        0  ble_db_discovery.o(i.ble_db_discovery_evt_register)
    i.ble_db_discovery_init                  0x00028ee4   Section        0  ble_db_discovery.o(i.ble_db_discovery_init)
    i.ble_db_discovery_on_ble_evt            0x00028f38   Section        0  ble_db_discovery.o(i.ble_db_discovery_on_ble_evt)
    i.ble_db_discovery_start                 0x00028fa8   Section        0  ble_db_discovery.o(i.ble_db_discovery_start)
    i.ble_device_addr_encode                 0x00028ff0   Section        0  ble_advdata.o(i.ble_device_addr_encode)
    ble_device_addr_encode                   0x00028ff1   Thumb Code   118  ble_advdata.o(i.ble_device_addr_encode)
    i.ble_evt_handler                        0x00029066   Section        0  main.o(i.ble_evt_handler)
    ble_evt_handler                          0x00029067   Thumb Code    62  main.o(i.ble_evt_handler)
    i.ble_evt_handler                        0x000290a4   Section        0  bsp_btn_ble.o(i.ble_evt_handler)
    ble_evt_handler                          0x000290a5   Thumb Code   112  bsp_btn_ble.o(i.ble_evt_handler)
    i.ble_evt_handler                        0x0002911c   Section        0  ble_conn_params.o(i.ble_evt_handler)
    ble_evt_handler                          0x0002911d   Thumb Code    64  ble_conn_params.o(i.ble_evt_handler)
    i.ble_evt_handler                        0x0002915c   Section        0  ble_conn_state.o(i.ble_evt_handler)
    ble_evt_handler                          0x0002915d   Thumb Code   180  ble_conn_state.o(i.ble_evt_handler)
    i.ble_evt_handler                        0x00029214   Section        0  peer_manager.o(i.ble_evt_handler)
    ble_evt_handler                          0x00029215   Thumb Code    40  peer_manager.o(i.ble_evt_handler)
    i.ble_evt_is_advertising_timeout         0x00029240   Section        0  main.o(i.ble_evt_is_advertising_timeout)
    ble_evt_is_advertising_timeout           0x00029241   Thumb Code    16  main.o(i.ble_evt_is_advertising_timeout)
    i.ble_nus_c_evt_handler                  0x00029250   Section        0  main.o(i.ble_nus_c_evt_handler)
    ble_nus_c_evt_handler                    0x00029251   Thumb Code   160  main.o(i.ble_nus_c_evt_handler)
    i.ble_nus_c_handles_assign               0x0002934c   Section        0  ble_nus_c.o(i.ble_nus_c_handles_assign)
    i.ble_nus_c_init                         0x00029378   Section        0  ble_nus_c.o(i.ble_nus_c_init)
    i.ble_nus_c_on_ble_evt                   0x000293f0   Section        0  ble_nus_c.o(i.ble_nus_c_on_ble_evt)
    i.ble_nus_c_on_db_disc_evt               0x00029456   Section        0  ble_nus_c.o(i.ble_nus_c_on_db_disc_evt)
    i.ble_nus_c_string_send                  0x000294f0   Section        0  ble_nus_c.o(i.ble_nus_c_string_send)
    i.ble_nus_c_tx_notif_enable              0x000295c0   Section        0  ble_nus_c.o(i.ble_nus_c_tx_notif_enable)
    i.ble_nus_chars_received_uart_print      0x000295ec   Section        0  main.o(i.ble_nus_chars_received_uart_print)
    ble_nus_chars_received_uart_print        0x000295ed   Thumb Code   136  main.o(i.ble_nus_chars_received_uart_print)
    i.ble_nus_data_send                      0x000296b8   Section        0  ble_nus.o(i.ble_nus_data_send)
    i.ble_nus_init                           0x00029734   Section        0  ble_nus.o(i.ble_nus_init)
    i.ble_nus_on_ble_evt                     0x00029844   Section        0  ble_nus.o(i.ble_nus_on_ble_evt)
    i.ble_peripheral_evt_handler             0x00029888   Section        0  main.o(i.ble_peripheral_evt_handler)
    ble_peripheral_evt_handler               0x00029889   Thumb Code   492  main.o(i.ble_peripheral_evt_handler)
    i.ble_srv_is_notification_enabled        0x00029b18   Section        0  ble_srv_common.o(i.ble_srv_is_notification_enabled)
    i.ble_stack_init                         0x00029b2a   Section        0  main.o(i.ble_stack_init)
    ble_stack_init                           0x00029b2b   Thumb Code    86  main.o(i.ble_stack_init)
    i.bsp_board_button_idx_to_pin            0x00029b80   Section        0  boards.o(i.bsp_board_button_idx_to_pin)
    i.bsp_board_led_invert                   0x00029b8c   Section        0  boards.o(i.bsp_board_led_invert)
    i.bsp_board_led_off                      0x00029bbc   Section        0  boards.o(i.bsp_board_led_off)
    i.bsp_board_led_on                       0x00029bd0   Section        0  boards.o(i.bsp_board_led_on)
    i.bsp_board_led_state_get                0x00029be4   Section        0  boards.o(i.bsp_board_led_state_get)
    i.bsp_board_leds_off                     0x00029c14   Section        0  boards.o(i.bsp_board_leds_off)
    i.bsp_board_leds_on                      0x00029c28   Section        0  boards.o(i.bsp_board_leds_on)
    i.bsp_board_pin_to_button_idx            0x00029c3c   Section        0  boards.o(i.bsp_board_pin_to_button_idx)
    i.bsp_btn_ble_sleep_mode_prepare         0x00029c60   Section        0  bsp_btn_ble.o(i.bsp_btn_ble_sleep_mode_prepare)
    i.bsp_button_event_handler               0x00029c94   Section        0  bsp.o(i.bsp_button_event_handler)
    bsp_button_event_handler                 0x00029c95   Thumb Code   176  bsp.o(i.bsp_button_event_handler)
    i.bsp_event_to_button_action_assign      0x00029d58   Section        0  bsp.o(i.bsp_event_to_button_action_assign)
    i.bsp_indication_set                     0x00029db4   Section        0  bsp.o(i.bsp_indication_set)
    i.bsp_led_indication                     0x00029dd4   Section        0  bsp.o(i.bsp_led_indication)
    bsp_led_indication                       0x00029dd5   Thumb Code   882  bsp.o(i.bsp_led_indication)
    i.bsp_wakeup_button_enable               0x0002a15c   Section        0  bsp.o(i.bsp_wakeup_button_enable)
    i.buf_prealloc                           0x0002a16c   Section        0  nrf_log_frontend.o(i.buf_prealloc)
    buf_prealloc                             0x0002a16d   Thumb Code   220  nrf_log_frontend.o(i.buf_prealloc)
    i.buffer_add                             0x0002a254   Section        0  nrf_fprintf_format.o(i.buffer_add)
    buffer_add                               0x0002a255   Thumb Code    44  nrf_fprintf_format.o(i.buffer_add)
    i.buffer_is_empty                        0x0002a280   Section        0  nrf_log_frontend.o(i.buffer_is_empty)
    i.car_update_needed                      0x0002a298   Section        0  gatt_cache_manager.o(i.car_update_needed)
    car_update_needed                        0x0002a299   Thumb Code    40  gatt_cache_manager.o(i.car_update_needed)
    i.car_update_pending_handle              0x0002a2c4   Section        0  gatt_cache_manager.o(i.car_update_pending_handle)
    car_update_pending_handle                0x0002a2c5   Thumb Code    56  gatt_cache_manager.o(i.car_update_pending_handle)
    i.cccd_configure                         0x0002a304   Section        0  ble_nus_c.o(i.cccd_configure)
    cccd_configure                           0x0002a305   Thumb Code    90  ble_nus_c.o(i.cccd_configure)
    i.cccd_written                           0x0002a364   Section        0  gatt_cache_manager.o(i.cccd_written)
    cccd_written                             0x0002a365   Thumb Code    32  gatt_cache_manager.o(i.cccd_written)
    i.channel_handler_get                    0x0002a384   Section        0  nrfx_gpiote.o(i.channel_handler_get)
    channel_handler_get                      0x0002a385   Thumb Code    10  nrfx_gpiote.o(i.channel_handler_get)
    i.channel_port_get                       0x0002a394   Section        0  nrfx_gpiote.o(i.channel_port_get)
    channel_port_get                         0x0002a395   Thumb Code     8  nrfx_gpiote.o(i.channel_port_get)
    i.characteristic_add                     0x0002a3a0   Section        0  ble_srv_common.o(i.characteristic_add)
    i.characteristics_discover               0x0002a568   Section        0  ble_db_discovery.o(i.characteristics_discover)
    characteristics_discover                 0x0002a569   Thumb Code   134  ble_db_discovery.o(i.characteristics_discover)
    i.claim                                  0x0002a5f8   Section        0  peer_id.o(i.claim)
    claim                                    0x0002a5f9   Thumb Code    76  peer_id.o(i.claim)
    i.clock_clk_started_notify               0x0002a644   Section        0  nrf_drv_clock.o(i.clock_clk_started_notify)
    clock_clk_started_notify                 0x0002a645   Thumb Code    42  nrf_drv_clock.o(i.clock_clk_started_notify)
    i.clock_irq_handler                      0x0002a674   Section        0  nrf_drv_clock.o(i.clock_irq_handler)
    clock_irq_handler                        0x0002a675   Thumb Code    34  nrf_drv_clock.o(i.clock_irq_handler)
    i.compare_func                           0x0002a69c   Section        0  app_timer2.o(i.compare_func)
    compare_func                             0x0002a69d   Thumb Code    38  app_timer2.o(i.compare_func)
    i.config_is_valid                        0x0002a6c2   Section        0  ble_advertising.o(i.config_is_valid)
    config_is_valid                          0x0002a6c3   Thumb Code    40  ble_advertising.o(i.config_is_valid)
    i.conn_handle_id_find                    0x0002a6ea   Section        0  nrf_ble_gq.o(i.conn_handle_id_find)
    conn_handle_id_find                      0x0002a6eb   Thumb Code    32  nrf_ble_gq.o(i.conn_handle_id_find)
    i.conn_handle_list_get                   0x0002a70a   Section        0  ble_conn_state.o(i.conn_handle_list_get)
    i.conn_handle_register                   0x0002a746   Section        0  nrf_ble_gq.o(i.conn_handle_register)
    conn_handle_register                     0x0002a747   Thumb Code    48  nrf_ble_gq.o(i.conn_handle_register)
    i.conn_int_check                         0x0002a776   Section        0  ble_advdata.o(i.conn_int_check)
    conn_int_check                           0x0002a777   Thumb Code    90  ble_advdata.o(i.conn_int_check)
    i.conn_int_encode                        0x0002a7d0   Section        0  ble_advdata.o(i.conn_int_encode)
    conn_int_encode                          0x0002a7d1   Thumb Code   104  ble_advdata.o(i.conn_int_encode)
    i.conn_params_error_handler              0x0002a838   Section        0  main.o(i.conn_params_error_handler)
    conn_params_error_handler                0x0002a839   Thumb Code    16  main.o(i.conn_params_error_handler)
    i.conn_params_init                       0x0002a848   Section        0  main.o(i.conn_params_init)
    conn_params_init                         0x0002a849   Thumb Code    82  main.o(i.conn_params_init)
    i.conn_params_negotiation                0x0002a8a4   Section        0  ble_conn_params.o(i.conn_params_negotiation)
    conn_params_negotiation                  0x0002a8a5   Thumb Code    78  ble_conn_params.o(i.conn_params_negotiation)
    i.conn_sec_failure                       0x0002a8f8   Section        0  security_dispatcher.o(i.conn_sec_failure)
    conn_sec_failure                         0x0002a8f9   Thumb Code    60  security_dispatcher.o(i.conn_sec_failure)
    i.conn_sec_update_process                0x0002a93c   Section        0  security_dispatcher.o(i.conn_sec_update_process)
    conn_sec_update_process                  0x0002a93d   Thumb Code    84  security_dispatcher.o(i.conn_sec_update_process)
    i.connection_buttons_configure           0x0002a994   Section        0  bsp_btn_ble.o(i.connection_buttons_configure)
    connection_buttons_configure             0x0002a995   Thumb Code    84  bsp_btn_ble.o(i.connection_buttons_configure)
    i.data_length_update                     0x0002a9e8   Section        0  nrf_ble_gatt.o(i.data_length_update)
    data_length_update                       0x0002a9e9   Thumb Code   174  nrf_ble_gatt.o(i.data_length_update)
    i.db_disc_handler                        0x0002ab18   Section        0  main.o(i.db_disc_handler)
    db_disc_handler                          0x0002ab19   Thumb Code    14  main.o(i.db_disc_handler)
    i.db_discovery_init                      0x0002ab2c   Section        0  main.o(i.db_discovery_init)
    db_discovery_init                        0x0002ab2d   Thumb Code    44  main.o(i.db_discovery_init)
    i.db_update_pending_handle               0x0002ab60   Section        0  gatt_cache_manager.o(i.db_update_pending_handle)
    db_update_pending_handle                 0x0002ab61   Thumb Code    70  gatt_cache_manager.o(i.db_update_pending_handle)
    i.delete_execute                         0x0002abac   Section        0  fds.o(i.delete_execute)
    delete_execute                           0x0002abad   Thumb Code    82  fds.o(i.delete_execute)
    i.descriptors_discover                   0x0002ac00   Section        0  ble_db_discovery.o(i.descriptors_discover)
    descriptors_discover                     0x0002ac01   Thumb Code   216  ble_db_discovery.o(i.descriptors_discover)
    i.disconnect_process                     0x0002ace0   Section        0  security_dispatcher.o(i.disconnect_process)
    disconnect_process                       0x0002ace1   Thumb Code    34  security_dispatcher.o(i.disconnect_process)
    i.discovery_available_evt_trigger        0x0002ad04   Section        0  ble_db_discovery.o(i.discovery_available_evt_trigger)
    discovery_available_evt_trigger          0x0002ad05   Thumb Code    46  ble_db_discovery.o(i.discovery_available_evt_trigger)
    i.discovery_complete_evt_trigger         0x0002ad38   Section        0  ble_db_discovery.o(i.discovery_complete_evt_trigger)
    discovery_complete_evt_trigger           0x0002ad39   Thumb Code   162  ble_db_discovery.o(i.discovery_complete_evt_trigger)
    i.discovery_error_evt_trigger            0x0002ade0   Section        0  ble_db_discovery.o(i.discovery_error_evt_trigger)
    discovery_error_evt_trigger              0x0002ade1   Thumb Code    66  ble_db_discovery.o(i.discovery_error_evt_trigger)
    i.discovery_error_handler                0x0002ae28   Section        0  ble_db_discovery.o(i.discovery_error_handler)
    discovery_error_handler                  0x0002ae29   Thumb Code    40  ble_db_discovery.o(i.discovery_error_handler)
    i.discovery_start                        0x0002ae50   Section        0  ble_db_discovery.o(i.discovery_start)
    discovery_start                          0x0002ae51   Thumb Code   176  ble_db_discovery.o(i.discovery_start)
    i.dropped_sat16_get                      0x0002af18   Section        0  nrf_log_frontend.o(i.dropped_sat16_get)
    dropped_sat16_get                        0x0002af19   Thumb Code    18  nrf_log_frontend.o(i.dropped_sat16_get)
    i.drv_rtc_compare_disable                0x0002af30   Section        0  drv_rtc.o(i.drv_rtc_compare_disable)
    i.drv_rtc_compare_pending                0x0002af46   Section        0  drv_rtc.o(i.drv_rtc_compare_pending)
    i.drv_rtc_compare_set                    0x0002af60   Section        0  drv_rtc.o(i.drv_rtc_compare_set)
    i.drv_rtc_counter_get                    0x0002afbc   Section        0  drv_rtc.o(i.drv_rtc_counter_get)
    i.drv_rtc_init                           0x0002afc8   Section        0  drv_rtc.o(i.drv_rtc_init)
    i.drv_rtc_irq_trigger                    0x0002b0f0   Section        0  drv_rtc.o(i.drv_rtc_irq_trigger)
    i.drv_rtc_overflow_enable                0x0002b114   Section        0  drv_rtc.o(i.drv_rtc_overflow_enable)
    i.drv_rtc_overflow_pending               0x0002b126   Section        0  drv_rtc.o(i.drv_rtc_overflow_pending)
    i.drv_rtc_start                          0x0002b136   Section        0  drv_rtc.o(i.drv_rtc_start)
    i.drv_rtc_stop                           0x0002b144   Section        0  drv_rtc.o(i.drv_rtc_stop)
    i.drv_rtc_windowed_compare_set           0x0002b152   Section        0  drv_rtc.o(i.drv_rtc_windowed_compare_set)
    i.encryption_failure                     0x0002b24e   Section        0  security_dispatcher.o(i.encryption_failure)
    encryption_failure                       0x0002b24f   Thumb Code    22  security_dispatcher.o(i.encryption_failure)
    i.erase                                  0x0002b264   Section        0  nrf_fstorage_sd.o(i.erase)
    erase                                    0x0002b265   Thumb Code    80  nrf_fstorage_sd.o(i.erase)
    i.erase_execute                          0x0002b2bc   Section        0  nrf_fstorage_sd.o(i.erase_execute)
    erase_execute                            0x0002b2bd   Thumb Code    14  nrf_fstorage_sd.o(i.erase_execute)
    i.erase_writemac                         0x0002b2cc   Section        0  main.o(i.erase_writemac)
    i.erase_writename                        0x0002b39c   Section        0  main.o(i.erase_writename)
    i.event_prepare                          0x0002b46c   Section        0  fds.o(i.event_prepare)
    event_prepare                            0x0002b46d   Thumb Code   126  fds.o(i.event_prepare)
    i.event_send                             0x0002b4ec   Section        0  nrf_fstorage_sd.o(i.event_send)
    event_send                               0x0002b4ed   Thumb Code   100  nrf_fstorage_sd.o(i.event_send)
    i.event_send                             0x0002b554   Section        0  fds.o(i.event_send)
    event_send                               0x0002b555   Thumb Code    34  fds.o(i.event_send)
    i.events_send_from_err_code              0x0002b57c   Section        0  security_manager.o(i.events_send_from_err_code)
    events_send_from_err_code                0x0002b57d   Thumb Code   144  security_manager.o(i.events_send_from_err_code)
    i.evt_disable                            0x0002b61c   Section        0  drv_rtc.o(i.evt_disable)
    evt_disable                              0x0002b61d   Thumb Code    24  drv_rtc.o(i.evt_disable)
    i.evt_enable                             0x0002b634   Section        0  drv_rtc.o(i.evt_enable)
    evt_enable                               0x0002b635   Thumb Code    28  drv_rtc.o(i.evt_enable)
    i.evt_forward                            0x0002b650   Section        0  security_manager.o(i.evt_forward)
    evt_forward                              0x0002b651   Thumb Code    12  security_manager.o(i.evt_forward)
    i.evt_pending                            0x0002b65c   Section        0  drv_rtc.o(i.evt_pending)
    evt_pending                              0x0002b65d   Thumb Code    28  drv_rtc.o(i.evt_pending)
    i.evt_send                               0x0002b678   Section        0  peer_manager.o(i.evt_send)
    evt_send                                 0x0002b679   Thumb Code    30  peer_manager.o(i.evt_send)
    i.evt_send                               0x0002b6a0   Section        0  security_dispatcher.o(i.evt_send)
    evt_send                                 0x0002b6a1   Thumb Code    34  security_dispatcher.o(i.evt_send)
    i.evt_send                               0x0002b6c8   Section        0  security_manager.o(i.evt_send)
    evt_send                                 0x0002b6c9   Thumb Code    26  security_manager.o(i.evt_send)
    i.evt_send                               0x0002b6e8   Section        0  gatt_cache_manager.o(i.evt_send)
    evt_send                                 0x0002b6e9   Thumb Code    34  gatt_cache_manager.o(i.evt_send)
    i.evt_send                               0x0002b710   Section        0  gatts_cache_manager.o(i.evt_send)
    evt_send                                 0x0002b711   Thumb Code    34  gatts_cache_manager.o(i.evt_send)
    i.evt_send                               0x0002b738   Section        0  id_manager.o(i.evt_send)
    evt_send                                 0x0002b739   Thumb Code    26  id_manager.o(i.evt_send)
    i.fds_file_delete                        0x0002b758   Section        0  fds.o(i.fds_file_delete)
    i.fds_record_close                       0x0002b7a4   Section        0  fds.o(i.fds_record_close)
    i.fds_record_find                        0x0002b80c   Section        0  fds.o(i.fds_record_find)
    i.fds_record_find_by_key                 0x0002b822   Section        0  fds.o(i.fds_record_find_by_key)
    i.fds_record_find_in_file                0x0002b836   Section        0  fds.o(i.fds_record_find_in_file)
    i.fds_record_id_from_desc                0x0002b84a   Section        0  fds.o(i.fds_record_id_from_desc)
    i.fds_record_open                        0x0002b860   Section        0  fds.o(i.fds_record_open)
    i.fds_record_update                      0x0002b8b0   Section        0  fds.o(i.fds_record_update)
    i.fds_record_write                       0x0002b8cc   Section        0  fds.o(i.fds_record_write)
    i.fifo_get                               0x0002b8e0   Section        0  app_fifo.o(i.fifo_get)
    fifo_get                                 0x0002b8e1   Thumb Code    24  app_fifo.o(i.fifo_get)
    i.fifo_length                            0x0002b8f8   Section        0  app_fifo.o(i.fifo_length)
    fifo_length                              0x0002b8f9   Thumb Code    10  app_fifo.o(i.fifo_length)
    i.fifo_length                            0x0002b902   Section        0  app_uart_fifo.o(i.fifo_length)
    fifo_length                              0x0002b903   Thumb Code    10  app_uart_fifo.o(i.fifo_length)
    i.fifo_peek                              0x0002b90c   Section        0  app_fifo.o(i.fifo_peek)
    fifo_peek                                0x0002b90d   Thumb Code    18  app_fifo.o(i.fifo_peek)
    i.fifo_put                               0x0002b91e   Section        0  app_fifo.o(i.fifo_put)
    fifo_put                                 0x0002b91f   Thumb Code    18  app_fifo.o(i.fifo_put)
    i.file_find_and_delete                   0x0002b930   Section        0  fds.o(i.file_find_and_delete)
    file_find_and_delete                     0x0002b931   Thumb Code    46  fds.o(i.file_find_and_delete)
    i.file_id_to_peer_id                     0x0002b964   Section        0  peer_data_storage.o(i.file_id_to_peer_id)
    file_id_to_peer_id                       0x0002b965   Thumb Code    10  peer_data_storage.o(i.file_id_to_peer_id)
    i.find_peer_addr                         0x0002b96e   Section        0  nrf_ble_scan.o(i.find_peer_addr)
    find_peer_addr                           0x0002b96f   Thumb Code    38  nrf_ble_scan.o(i.find_peer_addr)
    i.flag_toggle                            0x0002b994   Section        0  ble_conn_state.o(i.flag_toggle)
    flag_toggle                              0x0002b995   Thumb Code    30  ble_conn_state.o(i.flag_toggle)
    i.flags_encode                           0x0002b9b2   Section        0  ble_advdata.o(i.flags_encode)
    flags_encode                             0x0002b9b3   Thumb Code    54  ble_advdata.o(i.flags_encode)
    i.flags_set                              0x0002b9e8   Section        0  ble_advertising.o(i.flags_set)
    flags_set                                0x0002b9e9   Thumb Code    44  ble_advertising.o(i.flags_set)
    i.flags_set_from_err_code                0x0002ba14   Section        0  security_manager.o(i.flags_set_from_err_code)
    flags_set_from_err_code                  0x0002ba15   Thumb Code    66  security_manager.o(i.flags_set_from_err_code)
    i.for_each_set_flag                      0x0002ba60   Section        0  ble_conn_state.o(i.for_each_set_flag)
    for_each_set_flag                        0x0002ba61   Thumb Code    50  ble_conn_state.o(i.for_each_set_flag)
    i.fputc                                  0x0002ba92   Section        0  retarget.o(i.fputc)
    i.fs_event_handler                       0x0002baa2   Section        0  fds.o(i.fs_event_handler)
    fs_event_handler                         0x0002baa3   Thumb Code    12  fds.o(i.fs_event_handler)
    i.fstorage_evt_handler                   0x0002bab0   Section        0  main.o(i.fstorage_evt_handler)
    fstorage_evt_handler                     0x0002bab1   Thumb Code   102  main.o(i.fstorage_evt_handler)
    i.gap_params_init                        0x0002bb90   Section        0  main.o(i.gap_params_init)
    gap_params_init                          0x0002bb91   Thumb Code   124  main.o(i.gap_params_init)
    i.gatt_error_handler                     0x0002bc10   Section        0  ble_nus_c.o(i.gatt_error_handler)
    gatt_error_handler                       0x0002bc11   Thumb Code    48  ble_nus_c.o(i.gatt_error_handler)
    i.gatt_evt_handler                       0x0002bc80   Section        0  main.o(i.gatt_evt_handler)
    i.gatt_init                              0x0002bd18   Section        0  main.o(i.gatt_init)
    i.gattc_write_alloc                      0x0002bd5c   Section        0  nrf_ble_gq.o(i.gattc_write_alloc)
    gattc_write_alloc                        0x0002bd5d   Thumb Code    76  nrf_ble_gq.o(i.gattc_write_alloc)
    i.gatts_hvx_alloc                        0x0002bdd8   Section        0  nrf_ble_gq.o(i.gatts_hvx_alloc)
    gatts_hvx_alloc                          0x0002bdd9   Thumb Code    96  nrf_ble_gq.o(i.gatts_hvx_alloc)
    i.gc_execute                             0x0002be68   Section        0  fds.o(i.gc_execute)
    gc_execute                               0x0002be69   Thumb Code   110  fds.o(i.gc_execute)
    i.gc_init                                0x0002bedc   Section        0  fds.o(i.gc_init)
    gc_init                                  0x0002bedd   Thumb Code    54  fds.o(i.gc_init)
    i.gc_next_page                           0x0002bf1c   Section        0  fds.o(i.gc_next_page)
    gc_next_page                             0x0002bf1d   Thumb Code    34  fds.o(i.gc_next_page)
    i.gc_page_erase                          0x0002bf44   Section        0  fds.o(i.gc_page_erase)
    gc_page_erase                            0x0002bf45   Thumb Code    62  fds.o(i.gc_page_erase)
    i.gc_page_next                           0x0002bf90   Section        0  fds.o(i.gc_page_next)
    gc_page_next                             0x0002bf91   Thumb Code    70  fds.o(i.gc_page_next)
    i.gc_record_copy                         0x0002bfe0   Section        0  fds.o(i.gc_record_copy)
    gc_record_copy                           0x0002bfe1   Thumb Code    50  fds.o(i.gc_record_copy)
    i.gc_record_find_next                    0x0002c020   Section        0  fds.o(i.gc_record_find_next)
    gc_record_find_next                      0x0002c021   Thumb Code    32  fds.o(i.gc_record_find_next)
    i.gc_state_advance                       0x0002c044   Section        0  fds.o(i.gc_state_advance)
    gc_state_advance                         0x0002c045   Thumb Code    82  fds.o(i.gc_state_advance)
    i.gc_swap_erase                          0x0002c09c   Section        0  fds.o(i.gc_swap_erase)
    gc_swap_erase                            0x0002c09d   Thumb Code    30  fds.o(i.gc_swap_erase)
    i.gc_swap_pages                          0x0002c0c8   Section        0  fds.o(i.gc_swap_pages)
    gc_swap_pages                            0x0002c0c9   Thumb Code    84  fds.o(i.gc_swap_pages)
    i.gc_swap_promote                        0x0002c128   Section        0  fds.o(i.gc_swap_promote)
    gc_swap_promote                          0x0002c129   Thumb Code    28  fds.o(i.gc_swap_promote)
    i.gc_tag_new_swap                        0x0002c14c   Section        0  fds.o(i.gc_tag_new_swap)
    gc_tag_new_swap                          0x0002c14d   Thumb Code    18  fds.o(i.gc_tag_new_swap)
    i.gc_update_swap_offset                  0x0002c164   Section        0  fds.o(i.gc_update_swap_offset)
    gc_update_swap_offset                    0x0002c165   Thumb Code    22  fds.o(i.gc_update_swap_offset)
    i.gcm_ble_evt_handler                    0x0002c184   Section        0  gatt_cache_manager.o(i.gcm_ble_evt_handler)
    i.gcm_im_evt_handler                     0x0002c41c   Section        0  gatt_cache_manager.o(i.gcm_im_evt_handler)
    i.gcm_pdb_evt_handler                    0x0002c444   Section        0  gatt_cache_manager.o(i.gcm_pdb_evt_handler)
    i.get_now                                0x0002c4e0   Section        0  app_timer2.o(i.get_now)
    get_now                                  0x0002c4e1   Thumb Code    46  app_timer2.o(i.get_now)
    i.get_tick_1ms                           0x0002c51c   Section        0  main.o(i.get_tick_1ms)
    i.gscm_db_change_notification_done       0x0002c528   Section        0  gatts_cache_manager.o(i.gscm_db_change_notification_done)
    i.gscm_local_db_cache_apply              0x0002c544   Section        0  gatts_cache_manager.o(i.gscm_local_db_cache_apply)
    i.gscm_local_db_cache_update             0x0002c5fc   Section        0  gatts_cache_manager.o(i.gscm_local_db_cache_update)
    i.gscm_pdb_evt_handler                   0x0002c6c4   Section        0  gatts_cache_manager.o(i.gscm_pdb_evt_handler)
    i.gscm_service_changed_ind_needed        0x0002c6e0   Section        0  gatts_cache_manager.o(i.gscm_service_changed_ind_needed)
    i.gscm_service_changed_ind_send          0x0002c708   Section        0  gatts_cache_manager.o(i.gscm_service_changed_ind_send)
    i.header_check                           0x0002c77c   Section        0  fds.o(i.header_check)
    header_check                             0x0002c77d   Thumb Code    48  fds.o(i.header_check)
    i.header_has_next                        0x0002c7ac   Section        0  fds.o(i.header_has_next)
    header_has_next                          0x0002c7ad   Thumb Code    22  fds.o(i.header_has_next)
    i.header_jump                            0x0002c7c2   Section        0  fds.o(i.header_jump)
    header_jump                              0x0002c7c3   Thumb Code    14  fds.o(i.header_jump)
    i.idle_state_handle                      0x0002c7d0   Section        0  main.o(i.idle_state_handle)
    idle_state_handle                        0x0002c7d1   Thumb Code    14  main.o(i.idle_state_handle)
    i.im_address_resolve                     0x0002c7de   Section        0  id_manager.o(i.im_address_resolve)
    i.im_ble_addr_get                        0x0002c82c   Section        0  id_manager.o(i.im_ble_addr_get)
    i.im_ble_evt_handler                     0x0002c864   Section        0  id_manager.o(i.im_ble_evt_handler)
    i.im_conn_handle_get                     0x0002c950   Section        0  id_manager.o(i.im_conn_handle_get)
    i.im_find_duplicate_bonding_data         0x0002c990   Section        0  id_manager.o(i.im_find_duplicate_bonding_data)
    i.im_is_duplicate_bonding_data           0x0002c9c8   Section        0  id_manager.o(i.im_is_duplicate_bonding_data)
    i.im_master_id_is_valid                  0x0002ca58   Section        0  id_manager.o(i.im_master_id_is_valid)
    i.im_master_ids_compare                  0x0002ca7a   Section        0  id_manager.o(i.im_master_ids_compare)
    i.im_new_peer_id                         0x0002caac   Section        0  id_manager.o(i.im_new_peer_id)
    i.im_peer_free                           0x0002cac0   Section        0  id_manager.o(i.im_peer_free)
    i.im_peer_id_get_by_conn_handle          0x0002caf0   Section        0  id_manager.o(i.im_peer_id_get_by_conn_handle)
    i.im_peer_id_get_by_master_id            0x0002cb18   Section        0  id_manager.o(i.im_peer_id_get_by_master_id)
    i.init                                   0x0002cb58   Section        0  nrf_fstorage_sd.o(i.init)
    init                                     0x0002cb59   Thumb Code    44  nrf_fstorage_sd.o(i.init)
    i.init_execute                           0x0002cb94   Section        0  fds.o(i.init_execute)
    init_execute                             0x0002cb95   Thumb Code   286  fds.o(i.init_execute)
    i.instance_get                           0x0002ccc8   Section        0  ble_conn_params.o(i.instance_get)
    instance_get                             0x0002ccc9   Thumb Code    40  ble_conn_params.o(i.instance_get)
    i.int_print                              0x0002ccf4   Section        0  nrf_fprintf_format.o(i.int_print)
    int_print                                0x0002ccf5   Thumb Code   190  nrf_fprintf_format.o(i.int_print)
    i.interrupts_disable                     0x0002cdb4   Section        0  nrfx_uart.o(i.interrupts_disable)
    interrupts_disable                       0x0002cdb5   Thumb Code    80  nrfx_uart.o(i.interrupts_disable)
    i.interrupts_disable                     0x0002ce0c   Section        0  nrfx_uarte.o(i.interrupts_disable)
    interrupts_disable                       0x0002ce0d   Thumb Code    80  nrfx_uarte.o(i.interrupts_disable)
    i.interrupts_enable                      0x0002ce64   Section        0  nrfx_uart.o(i.interrupts_enable)
    interrupts_enable                        0x0002ce65   Thumb Code   136  nrfx_uart.o(i.interrupts_enable)
    i.interrupts_enable                      0x0002cef8   Section        0  nrfx_uarte.o(i.interrupts_enable)
    interrupts_enable                        0x0002cef9   Thumb Code   166  nrfx_uarte.o(i.interrupts_enable)
    i.invalid_packets_omit                   0x0002cfac   Section        0  nrf_log_frontend.o(i.invalid_packets_omit)
    invalid_packets_omit                     0x0002cfad   Thumb Code    70  nrf_log_frontend.o(i.invalid_packets_omit)
    i.irq_handler                            0x0002cff2   Section        0  nrfx_timer.o(i.irq_handler)
    irq_handler                              0x0002cff3   Thumb Code    92  nrfx_timer.o(i.irq_handler)
    i.is_any_conn_handle_registered          0x0002d04e   Section        0  nrf_ble_gq.o(i.is_any_conn_handle_registered)
    is_any_conn_handle_registered            0x0002d04f   Thumb Code    38  nrf_ble_gq.o(i.is_any_conn_handle_registered)
    i.is_busy                                0x0002d074   Section        0  nrf_fstorage_sd.o(i.is_busy)
    is_busy                                  0x0002d075   Thumb Code    16  nrf_fstorage_sd.o(i.is_busy)
    i.is_char_discovery_reqd                 0x0002d088   Section        0  ble_db_discovery.o(i.is_char_discovery_reqd)
    is_char_discovery_reqd                   0x0002d089   Thumb Code    36  ble_db_discovery.o(i.is_char_discovery_reqd)
    i.is_conn_params_ok                      0x0002d0ac   Section        0  ble_conn_params.o(i.is_conn_params_ok)
    is_conn_params_ok                        0x0002d0ad   Thumb Code   114  ble_conn_params.o(i.is_conn_params_ok)
    i.is_desc_discovery_reqd                 0x0002d11e   Section        0  ble_db_discovery.o(i.is_desc_discovery_reqd)
    is_desc_discovery_reqd                   0x0002d11f   Thumb Code    94  ble_db_discovery.o(i.is_desc_discovery_reqd)
    i.is_valid_irk                           0x0002d17c   Section        0  id_manager.o(i.is_valid_irk)
    i.is_whitelist_used                      0x0002d194   Section        0  nrf_ble_scan.o(i.is_whitelist_used)
    i.is_word_aligned                        0x0002d1b6   Section        0  fds.o(i.is_word_aligned)
    is_word_aligned                          0x0002d1b7   Thumb Code    16  fds.o(i.is_word_aligned)
    i.item_dequeue                           0x0002d1c6   Section        0  nrf_drv_clock.o(i.item_dequeue)
    item_dequeue                             0x0002d1c7   Thumb Code    12  nrf_drv_clock.o(i.item_dequeue)
    i.key_is_lesc                            0x0002d1d2   Section        0  security_manager.o(i.key_is_lesc)
    key_is_lesc                              0x0002d1d3   Thumb Code    38  security_manager.o(i.key_is_lesc)
    i.latch_pending_read_and_check           0x0002d1f8   Section        0  nrfx_gpiote.o(i.latch_pending_read_and_check)
    latch_pending_read_and_check             0x0002d1f9   Thumb Code    38  nrfx_gpiote.o(i.latch_pending_read_and_check)
    i.leds_off                               0x0002d220   Section        0  bsp.o(i.leds_off)
    leds_off                                 0x0002d221   Thumb Code    36  bsp.o(i.leds_off)
    i.lfclk_stop                             0x0002d248   Section        0  nrf_drv_clock.o(i.lfclk_stop)
    lfclk_stop                               0x0002d249   Thumb Code    20  nrf_drv_clock.o(i.lfclk_stop)
    i.link_init                              0x0002d260   Section        0  nrf_ble_gatt.o(i.link_init)
    link_init                                0x0002d261   Thumb Code    24  nrf_ble_gatt.o(i.link_init)
    i.link_secure                            0x0002d278   Section        0  security_manager.o(i.link_secure)
    link_secure                              0x0002d279   Thumb Code   208  security_manager.o(i.link_secure)
    i.link_secure_authenticate               0x0002d360   Section        0  security_dispatcher.o(i.link_secure_authenticate)
    link_secure_authenticate                 0x0002d361   Thumb Code    24  security_dispatcher.o(i.link_secure_authenticate)
    i.link_secure_central                    0x0002d378   Section        0  security_dispatcher.o(i.link_secure_central)
    link_secure_central                      0x0002d379   Thumb Code   118  security_dispatcher.o(i.link_secure_central)
    i.link_secure_central_encryption         0x0002d3f4   Section        0  security_dispatcher.o(i.link_secure_central_encryption)
    link_secure_central_encryption           0x0002d3f5   Thumb Code   154  security_dispatcher.o(i.link_secure_central_encryption)
    i.link_secure_failure                    0x0002d49c   Section        0  security_dispatcher.o(i.link_secure_failure)
    link_secure_failure                      0x0002d49d   Thumb Code    48  security_dispatcher.o(i.link_secure_failure)
    i.link_secure_pending_handle             0x0002d4cc   Section        0  security_manager.o(i.link_secure_pending_handle)
    link_secure_pending_handle               0x0002d4cd   Thumb Code    50  security_manager.o(i.link_secure_pending_handle)
    i.link_secure_peripheral                 0x0002d508   Section        0  security_dispatcher.o(i.link_secure_peripheral)
    link_secure_peripheral                   0x0002d509   Thumb Code    24  security_dispatcher.o(i.link_secure_peripheral)
    i.local_db_apply_in_evt                  0x0002d520   Section        0  gatt_cache_manager.o(i.local_db_apply_in_evt)
    local_db_apply_in_evt                    0x0002d521   Thumb Code   176  gatt_cache_manager.o(i.local_db_apply_in_evt)
    i.local_db_update                        0x0002d5e4   Section        0  gatt_cache_manager.o(i.local_db_update)
    local_db_update                          0x0002d5e5   Thumb Code    20  gatt_cache_manager.o(i.local_db_update)
    i.local_db_update_in_evt                 0x0002d5fc   Section        0  gatt_cache_manager.o(i.local_db_update_in_evt)
    local_db_update_in_evt                   0x0002d5fd   Thumb Code   156  gatt_cache_manager.o(i.local_db_update_in_evt)
    i.log_init                               0x0002d71c   Section        0  main.o(i.log_init)
    log_init                                 0x0002d71d   Thumb Code    38  main.o(i.log_init)
    i.log_skip                               0x0002d744   Section        0  nrf_log_frontend.o(i.log_skip)
    log_skip                                 0x0002d745   Thumb Code   190  nrf_log_frontend.o(i.log_skip)
    i.main                                   0x0002d810   Section        0  main.o(i.main)
    i.manuf_specific_data_encode             0x0002d908   Section        0  ble_advdata.o(i.manuf_specific_data_encode)
    manuf_specific_data_encode               0x0002d909   Thumb Code   118  ble_advdata.o(i.manuf_specific_data_encode)
    i.memobj_op                              0x0002d97e   Section        0  nrf_memobj.o(i.memobj_op)
    memobj_op                                0x0002d97f   Thumb Code   202  nrf_memobj.o(i.memobj_op)
    i.module_idx_get                         0x0002da48   Section        0  nrf_log_frontend.o(i.module_idx_get)
    module_idx_get                           0x0002da49   Thumb Code    52  nrf_log_frontend.o(i.module_idx_get)
    i.mutex_lock                             0x0002da80   Section        0  pm_buffer.o(i.mutex_lock)
    mutex_lock                               0x0002da81   Thumb Code    38  pm_buffer.o(i.mutex_lock)
    i.mutex_lock_status_get                  0x0002daa6   Section        0  pm_buffer.o(i.mutex_lock_status_get)
    mutex_lock_status_get                    0x0002daa7   Thumb Code    32  pm_buffer.o(i.mutex_lock_status_get)
    i.mutex_unlock                           0x0002dac6   Section        0  pm_buffer.o(i.mutex_unlock)
    mutex_unlock                             0x0002dac7   Thumb Code    32  pm_buffer.o(i.mutex_unlock)
    i.my_fstorage_init                       0x0002dae8   Section        0  main.o(i.my_fstorage_init)
    i.name_encode                            0x0002db44   Section        0  ble_advdata.o(i.name_encode)
    name_encode                              0x0002db45   Thumb Code   200  ble_advdata.o(i.name_encode)
    i.new_context_get                        0x0002dc0c   Section        0  security_manager.o(i.new_context_get)
    new_context_get                          0x0002dc0d   Thumb Code    26  security_manager.o(i.new_context_get)
    i.new_evt                                0x0002dc2c   Section        0  security_manager.o(i.new_evt)
    new_evt                                  0x0002dc2d   Thumb Code    50  security_manager.o(i.new_evt)
    i.next_id_get                            0x0002dc5e   Section        0  peer_id.o(i.next_id_get)
    i.nrf52_errata_108                       0x0002dc94   Section        0  system_nrf52.o(i.nrf52_errata_108)
    nrf52_errata_108                         0x0002dc95   Thumb Code    84  system_nrf52.o(i.nrf52_errata_108)
    i.nrf52_errata_12                        0x0002dcf0   Section        0  system_nrf52.o(i.nrf52_errata_12)
    nrf52_errata_12                          0x0002dcf1   Thumb Code    84  system_nrf52.o(i.nrf52_errata_12)
    i.nrf52_errata_136                       0x0002dd4c   Section        0  system_nrf52.o(i.nrf52_errata_136)
    nrf52_errata_136                         0x0002dd4d   Thumb Code    98  system_nrf52.o(i.nrf52_errata_136)
    i.nrf52_errata_16                        0x0002ddb8   Section        0  system_nrf52.o(i.nrf52_errata_16)
    nrf52_errata_16                          0x0002ddb9   Thumb Code    62  system_nrf52.o(i.nrf52_errata_16)
    i.nrf52_errata_182                       0x0002ddfc   Section        0  system_nrf52.o(i.nrf52_errata_182)
    nrf52_errata_182                         0x0002ddfd   Thumb Code    60  system_nrf52.o(i.nrf52_errata_182)
    i.nrf52_errata_217                       0x0002de3c   Section        0  system_nrf52.o(i.nrf52_errata_217)
    nrf52_errata_217                         0x0002de3d   Thumb Code    30  system_nrf52.o(i.nrf52_errata_217)
    i.nrf52_errata_249                       0x0002de60   Section        0  system_nrf52.o(i.nrf52_errata_249)
    nrf52_errata_249                         0x0002de61   Thumb Code    60  system_nrf52.o(i.nrf52_errata_249)
    i.nrf52_errata_31                        0x0002dea0   Section        0  system_nrf52.o(i.nrf52_errata_31)
    nrf52_errata_31                          0x0002dea1   Thumb Code    98  system_nrf52.o(i.nrf52_errata_31)
    i.nrf52_errata_32                        0x0002df0c   Section        0  system_nrf52.o(i.nrf52_errata_32)
    nrf52_errata_32                          0x0002df0d   Thumb Code    62  system_nrf52.o(i.nrf52_errata_32)
    i.nrf52_errata_36                        0x0002df50   Section        0  system_nrf52.o(i.nrf52_errata_36)
    nrf52_errata_36                          0x0002df51   Thumb Code    98  system_nrf52.o(i.nrf52_errata_36)
    i.nrf52_errata_37                        0x0002dfbc   Section        0  system_nrf52.o(i.nrf52_errata_37)
    nrf52_errata_37                          0x0002dfbd   Thumb Code    62  system_nrf52.o(i.nrf52_errata_37)
    i.nrf52_errata_57                        0x0002e000   Section        0  system_nrf52.o(i.nrf52_errata_57)
    nrf52_errata_57                          0x0002e001   Thumb Code    62  system_nrf52.o(i.nrf52_errata_57)
    i.nrf52_errata_66                        0x0002e044   Section        0  system_nrf52.o(i.nrf52_errata_66)
    nrf52_errata_66                          0x0002e045   Thumb Code    98  system_nrf52.o(i.nrf52_errata_66)
    i.nrf5_flash_end_addr_get                0x0002e0b0   Section        0  main.o(i.nrf5_flash_end_addr_get)
    nrf5_flash_end_addr_get                  0x0002e0b1   Thumb Code    48  main.o(i.nrf5_flash_end_addr_get)
    i.nrf_atfifo_clear                       0x0002e0e0   Section        0  nrf_atfifo.o(i.nrf_atfifo_clear)
    i.nrf_atfifo_init                        0x0002e0f6   Section        0  nrf_atfifo.o(i.nrf_atfifo_init)
    i.nrf_atfifo_item_alloc                  0x0002e11e   Section        0  nrf_atfifo.o(i.nrf_atfifo_item_alloc)
    i.nrf_atfifo_item_free                   0x0002e13a   Section        0  nrf_atfifo.o(i.nrf_atfifo_item_free)
    i.nrf_atfifo_item_get                    0x0002e156   Section        0  nrf_atfifo.o(i.nrf_atfifo_item_get)
    i.nrf_atfifo_item_put                    0x0002e172   Section        0  nrf_atfifo.o(i.nrf_atfifo_item_put)
    i.nrf_atflags_clear                      0x0002e18e   Section        0  nrf_atflags.o(i.nrf_atflags_clear)
    i.nrf_atflags_fetch_set                  0x0002e1ac   Section        0  nrf_atflags.o(i.nrf_atflags_fetch_set)
    i.nrf_atflags_find_and_set_flag          0x0002e1da   Section        0  nrf_atflags.o(i.nrf_atflags_find_and_set_flag)
    i.nrf_atflags_get                        0x0002e23a   Section        0  nrf_atflags.o(i.nrf_atflags_get)
    i.nrf_atflags_set                        0x0002e258   Section        0  nrf_atflags.o(i.nrf_atflags_set)
    i.nrf_atomic_flag_clear_fetch            0x0002e276   Section        0  nrf_atomic.o(i.nrf_atomic_flag_clear_fetch)
    i.nrf_atomic_flag_set                    0x0002e284   Section        0  nrf_atomic.o(i.nrf_atomic_flag_set)
    i.nrf_atomic_flag_set_fetch              0x0002e292   Section        0  nrf_atomic.o(i.nrf_atomic_flag_set_fetch)
    i.nrf_atomic_u32_add                     0x0002e2a0   Section        0  nrf_atomic.o(i.nrf_atomic_u32_add)
    i.nrf_atomic_u32_and                     0x0002e2b6   Section        0  nrf_atomic.o(i.nrf_atomic_u32_and)
    i.nrf_atomic_u32_fetch_add               0x0002e2cc   Section        0  nrf_atomic.o(i.nrf_atomic_u32_fetch_add)
    i.nrf_atomic_u32_fetch_and               0x0002e2e2   Section        0  nrf_atomic.o(i.nrf_atomic_u32_fetch_and)
    i.nrf_atomic_u32_fetch_or                0x0002e2f8   Section        0  nrf_atomic.o(i.nrf_atomic_u32_fetch_or)
    i.nrf_atomic_u32_fetch_store             0x0002e30e   Section        0  nrf_atomic.o(i.nrf_atomic_u32_fetch_store)
    i.nrf_atomic_u32_or                      0x0002e324   Section        0  nrf_atomic.o(i.nrf_atomic_u32_or)
    i.nrf_atomic_u32_sub                     0x0002e33a   Section        0  nrf_atomic.o(i.nrf_atomic_u32_sub)
    i.nrf_balloc_alloc                       0x0002e350   Section        0  nrf_balloc.o(i.nrf_balloc_alloc)
    i.nrf_balloc_block2idx                   0x0002e3a2   Section        0  nrf_balloc.o(i.nrf_balloc_block2idx)
    nrf_balloc_block2idx                     0x0002e3a3   Thumb Code    16  nrf_balloc.o(i.nrf_balloc_block2idx)
    i.nrf_balloc_free                        0x0002e3b2   Section        0  nrf_balloc.o(i.nrf_balloc_free)
    i.nrf_balloc_idx2block                   0x0002e3e2   Section        0  nrf_balloc.o(i.nrf_balloc_idx2block)
    nrf_balloc_idx2block                     0x0002e3e3   Thumb Code    12  nrf_balloc.o(i.nrf_balloc_idx2block)
    i.nrf_balloc_init                        0x0002e3ee   Section        0  nrf_balloc.o(i.nrf_balloc_init)
    i.nrf_bitmask_bit_is_set                 0x0002e42a   Section        0  nrfx_gpiote.o(i.nrf_bitmask_bit_is_set)
    nrf_bitmask_bit_is_set                   0x0002e42b   Thumb Code    22  nrfx_gpiote.o(i.nrf_bitmask_bit_is_set)
    i.nrf_ble_gatt_att_mtu_central_set       0x0002e440   Section        0  nrf_ble_gatt.o(i.nrf_ble_gatt_att_mtu_central_set)
    i.nrf_ble_gatt_init                      0x0002e45e   Section        0  nrf_ble_gatt.o(i.nrf_ble_gatt_init)
    i.nrf_ble_gatt_on_ble_evt                0x0002e494   Section        0  nrf_ble_gatt.o(i.nrf_ble_gatt_on_ble_evt)
    i.nrf_ble_gq_conn_handle_register        0x0002e5c0   Section        0  nrf_ble_gq.o(i.nrf_ble_gq_conn_handle_register)
    i.nrf_ble_gq_item_add                    0x0002e65c   Section        0  nrf_ble_gq.o(i.nrf_ble_gq_item_add)
    i.nrf_ble_gq_on_ble_evt                  0x0002e7ac   Section        0  nrf_ble_gq.o(i.nrf_ble_gq_on_ble_evt)
    i.nrf_ble_qwr_conn_handle_assign         0x0002e832   Section        0  nrf_ble_qwr.o(i.nrf_ble_qwr_conn_handle_assign)
    i.nrf_ble_qwr_init                       0x0002e852   Section        0  nrf_ble_qwr.o(i.nrf_ble_qwr_init)
    i.nrf_ble_qwr_on_ble_evt                 0x0002e884   Section        0  nrf_ble_qwr.o(i.nrf_ble_qwr_on_ble_evt)
    i.nrf_ble_scan_addr_filter_add           0x0002e900   Section        0  nrf_ble_scan.o(i.nrf_ble_scan_addr_filter_add)
    nrf_ble_scan_addr_filter_add             0x0002e901   Thumb Code   254  nrf_ble_scan.o(i.nrf_ble_scan_addr_filter_add)
    i.nrf_ble_scan_address_type_decode       0x0002ea3c   Section        0  nrf_ble_scan.o(i.nrf_ble_scan_address_type_decode)
    nrf_ble_scan_address_type_decode         0x0002ea3d   Thumb Code    46  nrf_ble_scan.o(i.nrf_ble_scan_address_type_decode)
    i.nrf_ble_scan_connect_with_target       0x0002ea6c   Section        0  nrf_ble_scan.o(i.nrf_ble_scan_connect_with_target)
    nrf_ble_scan_connect_with_target         0x0002ea6d   Thumb Code   126  nrf_ble_scan.o(i.nrf_ble_scan_connect_with_target)
    i.nrf_ble_scan_default_conn_param_set    0x0002eb18   Section        0  nrf_ble_scan.o(i.nrf_ble_scan_default_conn_param_set)
    nrf_ble_scan_default_conn_param_set      0x0002eb19   Thumb Code    20  nrf_ble_scan.o(i.nrf_ble_scan_default_conn_param_set)
    i.nrf_ble_scan_default_param_set         0x0002eb2c   Section        0  nrf_ble_scan.o(i.nrf_ble_scan_default_param_set)
    nrf_ble_scan_default_param_set           0x0002eb2d   Thumb Code    50  nrf_ble_scan.o(i.nrf_ble_scan_default_param_set)
    i.nrf_ble_scan_filter_set                0x0002eb5e   Section        0  nrf_ble_scan.o(i.nrf_ble_scan_filter_set)
    i.nrf_ble_scan_filters_disable           0x0002ebb2   Section        0  nrf_ble_scan.o(i.nrf_ble_scan_filters_disable)
    i.nrf_ble_scan_filters_enable            0x0002ebd6   Section        0  nrf_ble_scan.o(i.nrf_ble_scan_filters_enable)
    i.nrf_ble_scan_init                      0x0002ec44   Section        0  nrf_ble_scan.o(i.nrf_ble_scan_init)
    i.nrf_ble_scan_name_filter_add           0x0002ecc4   Section        0  nrf_ble_scan.o(i.nrf_ble_scan_name_filter_add)
    nrf_ble_scan_name_filter_add             0x0002ecc5   Thumb Code   130  nrf_ble_scan.o(i.nrf_ble_scan_name_filter_add)
    i.nrf_ble_scan_on_adv_report             0x0002ed6c   Section        0  nrf_ble_scan.o(i.nrf_ble_scan_on_adv_report)
    nrf_ble_scan_on_adv_report               0x0002ed6d   Thumb Code   304  nrf_ble_scan.o(i.nrf_ble_scan_on_adv_report)
    i.nrf_ble_scan_on_ble_evt                0x0002ee9c   Section        0  nrf_ble_scan.o(i.nrf_ble_scan_on_ble_evt)
    i.nrf_ble_scan_on_connected_evt          0x0002eee2   Section        0  nrf_ble_scan.o(i.nrf_ble_scan_on_connected_evt)
    nrf_ble_scan_on_connected_evt            0x0002eee3   Thumb Code    52  nrf_ble_scan.o(i.nrf_ble_scan_on_connected_evt)
    i.nrf_ble_scan_on_timeout                0x0002ef18   Section        0  nrf_ble_scan.o(i.nrf_ble_scan_on_timeout)
    nrf_ble_scan_on_timeout                  0x0002ef19   Thumb Code    76  nrf_ble_scan.o(i.nrf_ble_scan_on_timeout)
    i.nrf_ble_scan_start                     0x0002ef84   Section        0  nrf_ble_scan.o(i.nrf_ble_scan_start)
    i.nrf_ble_scan_stop                      0x0002f038   Section        0  nrf_ble_scan.o(i.nrf_ble_scan_stop)
    i.nrf_ble_scan_uuid_filter_add           0x0002f03c   Section        0  nrf_ble_scan.o(i.nrf_ble_scan_uuid_filter_add)
    nrf_ble_scan_uuid_filter_add             0x0002f03d   Thumb Code    94  nrf_ble_scan.o(i.nrf_ble_scan_uuid_filter_add)
    i.nrf_clock_event_check                  0x0002f0bc   Section        0  nrfx_clock.o(i.nrf_clock_event_check)
    nrf_clock_event_check                    0x0002f0bd   Thumb Code    18  nrfx_clock.o(i.nrf_clock_event_check)
    i.nrf_clock_event_clear                  0x0002f0ce   Section        0  nrfx_clock.o(i.nrf_clock_event_clear)
    nrf_clock_event_clear                    0x0002f0cf   Thumb Code    18  nrfx_clock.o(i.nrf_clock_event_clear)
    i.nrf_clock_int_disable                  0x0002f0e0   Section        0  nrfx_clock.o(i.nrf_clock_int_disable)
    nrf_clock_int_disable                    0x0002f0e1   Thumb Code     6  nrfx_clock.o(i.nrf_clock_int_disable)
    i.nrf_clock_task_trigger                 0x0002f0ec   Section        0  nrfx_clock.o(i.nrf_clock_task_trigger)
    nrf_clock_task_trigger                   0x0002f0ed   Thumb Code     8  nrfx_clock.o(i.nrf_clock_task_trigger)
    i.nrf_delay_ms                           0x0002f0f4   Section        0  main.o(i.nrf_delay_ms)
    nrf_delay_ms                             0x0002f0f5   Thumb Code    42  main.o(i.nrf_delay_ms)
    i.nrf_drv_clock_init                     0x0002f124   Section        0  nrf_drv_clock.o(i.nrf_drv_clock_init)
    i.nrf_drv_clock_lfclk_release            0x0002f170   Section        0  nrf_drv_clock.o(i.nrf_drv_clock_lfclk_release)
    i.nrf_drv_uart_init                      0x0002f1a0   Section        0  nrf_drv_uart.o(i.nrf_drv_uart_init)
    i.nrf_drv_uart_rx                        0x0002f22c   Section        0  app_uart_fifo.o(i.nrf_drv_uart_rx)
    nrf_drv_uart_rx                          0x0002f22d   Thumb Code    62  app_uart_fifo.o(i.nrf_drv_uart_rx)
    i.nrf_drv_uart_tx                        0x0002f270   Section        0  app_uart_fifo.o(i.nrf_drv_uart_tx)
    nrf_drv_uart_tx                          0x0002f271   Thumb Code    62  app_uart_fifo.o(i.nrf_drv_uart_tx)
    i.nrf_fprintf                            0x0002f2b4   Section        0  nrf_fprintf.o(i.nrf_fprintf)
    i.nrf_fprintf_buffer_flush               0x0002f2de   Section        0  nrf_fprintf.o(i.nrf_fprintf_buffer_flush)
    i.nrf_fprintf_fmt                        0x0002f2fa   Section        0  nrf_fprintf_format.o(i.nrf_fprintf_fmt)
    i.nrf_fstorage_erase                     0x0002f4ec   Section        0  nrf_fstorage.o(i.nrf_fstorage_erase)
    i.nrf_fstorage_init                      0x0002f65c   Section        0  nrf_fstorage.o(i.nrf_fstorage_init)
    i.nrf_fstorage_is_busy                   0x0002f708   Section        0  nrf_fstorage.o(i.nrf_fstorage_is_busy)
    i.nrf_fstorage_read                      0x0002f75c   Section        0  nrf_fstorage.o(i.nrf_fstorage_read)
    i.nrf_fstorage_sdh_req_handler           0x0002f908   Section        0  nrf_fstorage_sd.o(i.nrf_fstorage_sdh_req_handler)
    i.nrf_fstorage_sdh_state_handler         0x0002f924   Section        0  nrf_fstorage_sd.o(i.nrf_fstorage_sdh_state_handler)
    i.nrf_fstorage_sys_evt_handler           0x0002f950   Section        0  nrf_fstorage_sd.o(i.nrf_fstorage_sys_evt_handler)
    i.nrf_fstorage_write                     0x0002f9dc   Section        0  nrf_fstorage.o(i.nrf_fstorage_write)
    i.nrf_gpio_cfg                           0x0002fc40   Section        0  nrfx_uart.o(i.nrf_gpio_cfg)
    nrf_gpio_cfg                             0x0002fc41   Thumb Code    40  nrfx_uart.o(i.nrf_gpio_cfg)
    i.nrf_gpio_cfg                           0x0002fc68   Section        0  nrfx_uarte.o(i.nrf_gpio_cfg)
    nrf_gpio_cfg                             0x0002fc69   Thumb Code    40  nrfx_uarte.o(i.nrf_gpio_cfg)
    i.nrf_gpio_cfg_default                   0x0002fc90   Section        0  nrfx_uart.o(i.nrf_gpio_cfg_default)
    nrf_gpio_cfg_default                     0x0002fc91   Thumb Code    24  nrfx_uart.o(i.nrf_gpio_cfg_default)
    i.nrf_gpio_cfg_default                   0x0002fca8   Section        0  nrfx_uarte.o(i.nrf_gpio_cfg_default)
    nrf_gpio_cfg_default                     0x0002fca9   Thumb Code    24  nrfx_uarte.o(i.nrf_gpio_cfg_default)
    i.nrf_gpio_cfg_input                     0x0002fcc0   Section        0  nrfx_uart.o(i.nrf_gpio_cfg_input)
    nrf_gpio_cfg_input                       0x0002fcc1   Thumb Code    26  nrfx_uart.o(i.nrf_gpio_cfg_input)
    i.nrf_gpio_cfg_input                     0x0002fcda   Section        0  nrfx_uarte.o(i.nrf_gpio_cfg_input)
    nrf_gpio_cfg_input                       0x0002fcdb   Thumb Code    26  nrfx_uarte.o(i.nrf_gpio_cfg_input)
    i.nrf_gpio_cfg_output                    0x0002fcf4   Section        0  nrfx_uart.o(i.nrf_gpio_cfg_output)
    nrf_gpio_cfg_output                      0x0002fcf5   Thumb Code    24  nrfx_uart.o(i.nrf_gpio_cfg_output)
    i.nrf_gpio_cfg_output                    0x0002fd0c   Section        0  nrfx_uarte.o(i.nrf_gpio_cfg_output)
    nrf_gpio_cfg_output                      0x0002fd0d   Thumb Code    24  nrfx_uarte.o(i.nrf_gpio_cfg_output)
    i.nrf_gpio_cfg_sense_set                 0x0002fd24   Section        0  nrfx_gpiote.o(i.nrf_gpio_cfg_sense_set)
    nrf_gpio_cfg_sense_set                   0x0002fd25   Thumb Code    50  nrfx_gpiote.o(i.nrf_gpio_cfg_sense_set)
    i.nrf_gpio_latches_read_and_clear        0x0002fd58   Section        0  nrfx_gpiote.o(i.nrf_gpio_latches_read_and_clear)
    nrf_gpio_latches_read_and_clear          0x0002fd59   Thumb Code    46  nrfx_gpiote.o(i.nrf_gpio_latches_read_and_clear)
    i.nrf_gpio_pin_set                       0x0002fd8c   Section        0  nrfx_uart.o(i.nrf_gpio_pin_set)
    nrf_gpio_pin_set                         0x0002fd8d   Thumb Code    22  nrfx_uart.o(i.nrf_gpio_pin_set)
    i.nrf_gpio_pin_set                       0x0002fda2   Section        0  nrfx_uarte.o(i.nrf_gpio_pin_set)
    nrf_gpio_pin_set                         0x0002fda3   Thumb Code    22  nrfx_uarte.o(i.nrf_gpio_pin_set)
    i.nrf_gpio_pin_write                     0x0002fdb8   Section        0  boards.o(i.nrf_gpio_pin_write)
    nrf_gpio_pin_write                       0x0002fdb9   Thumb Code    58  boards.o(i.nrf_gpio_pin_write)
    i.nrf_gpiote_event_addr_get              0x0002fdf4   Section        0  nrfx_gpiote.o(i.nrf_gpiote_event_addr_get)
    nrf_gpiote_event_addr_get                0x0002fdf5   Thumb Code     8  nrfx_gpiote.o(i.nrf_gpiote_event_addr_get)
    i.nrf_gpiote_event_clear                 0x0002fe00   Section        0  nrfx_gpiote.o(i.nrf_gpiote_event_clear)
    nrf_gpiote_event_clear                   0x0002fe01   Thumb Code    28  nrfx_gpiote.o(i.nrf_gpiote_event_clear)
    i.nrf_gpiote_event_is_set                0x0002fe1c   Section        0  nrfx_gpiote.o(i.nrf_gpiote_event_is_set)
    nrf_gpiote_event_is_set                  0x0002fe1d   Thumb Code    22  nrfx_gpiote.o(i.nrf_gpiote_event_is_set)
    i.nrf_log_backend_add                    0x0002fe34   Section        0  nrf_log_frontend.o(i.nrf_log_backend_add)
    i.nrf_log_backend_rtt_flush              0x0002fe88   Section        0  nrf_log_backend_rtt.o(i.nrf_log_backend_rtt_flush)
    nrf_log_backend_rtt_flush                0x0002fe89   Thumb Code     2  nrf_log_backend_rtt.o(i.nrf_log_backend_rtt_flush)
    i.nrf_log_backend_rtt_init               0x0002fe8a   Section        0  nrf_log_backend_rtt.o(i.nrf_log_backend_rtt_init)
    i.nrf_log_backend_rtt_panic_set          0x0002fe92   Section        0  nrf_log_backend_rtt.o(i.nrf_log_backend_rtt_panic_set)
    nrf_log_backend_rtt_panic_set            0x0002fe93   Thumb Code     2  nrf_log_backend_rtt.o(i.nrf_log_backend_rtt_panic_set)
    i.nrf_log_backend_rtt_put                0x0002fe94   Section        0  nrf_log_backend_rtt.o(i.nrf_log_backend_rtt_put)
    nrf_log_backend_rtt_put                  0x0002fe95   Thumb Code    24  nrf_log_backend_rtt.o(i.nrf_log_backend_rtt_put)
    i.nrf_log_backend_serial_put             0x0002feb4   Section        0  nrf_log_backend_serial.o(i.nrf_log_backend_serial_put)
    i.nrf_log_color_id_get                   0x0002ffa8   Section        0  nrf_log_frontend.o(i.nrf_log_color_id_get)
    i.nrf_log_default_backends_init          0x0002ffe0   Section        0  nrf_log_default_backends.o(i.nrf_log_default_backends_init)
    i.nrf_log_frontend_dequeue               0x00030008   Section        0  nrf_log_frontend.o(i.nrf_log_frontend_dequeue)
    i.nrf_log_frontend_hexdump               0x00030324   Section        0  nrf_log_frontend.o(i.nrf_log_frontend_hexdump)
    i.nrf_log_frontend_std_0                 0x0003040c   Section        0  nrf_log_frontend.o(i.nrf_log_frontend_std_0)
    i.nrf_log_frontend_std_1                 0x00030420   Section        0  nrf_log_frontend.o(i.nrf_log_frontend_std_1)
    i.nrf_log_frontend_std_2                 0x00030438   Section        0  nrf_log_frontend.o(i.nrf_log_frontend_std_2)
    i.nrf_log_frontend_std_3                 0x00030458   Section        0  nrf_log_frontend.o(i.nrf_log_frontend_std_3)
    i.nrf_log_frontend_std_6                 0x00030480   Section        0  nrf_log_frontend.o(i.nrf_log_frontend_std_6)
    i.nrf_log_hexdump_entry_process          0x000304bc   Section        0  nrf_log_str_formatter.o(i.nrf_log_hexdump_entry_process)
    i.nrf_log_init                           0x00030578   Section        0  nrf_log_frontend.o(i.nrf_log_init)
    i.nrf_log_module_cnt_get                 0x000305c0   Section        0  nrf_log_frontend.o(i.nrf_log_module_cnt_get)
    i.nrf_log_module_name_get                0x000305d4   Section        0  nrf_log_frontend.o(i.nrf_log_module_name_get)
    i.nrf_log_panic                          0x000305f8   Section        0  nrf_log_frontend.o(i.nrf_log_panic)
    i.nrf_log_std_entry_process              0x0003062c   Section        0  nrf_log_str_formatter.o(i.nrf_log_std_entry_process)
    i.nrf_memobj_alloc                       0x000306f4   Section        0  nrf_memobj.o(i.nrf_memobj_alloc)
    i.nrf_memobj_free                        0x0003076e   Section        0  nrf_memobj.o(i.nrf_memobj_free)
    i.nrf_memobj_get                         0x000307ae   Section        0  nrf_memobj.o(i.nrf_memobj_get)
    i.nrf_memobj_pool_init                   0x000307be   Section        0  nrf_memobj.o(i.nrf_memobj_pool_init)
    i.nrf_memobj_put                         0x000307ca   Section        0  nrf_memobj.o(i.nrf_memobj_put)
    i.nrf_memobj_read                        0x000307e8   Section        0  nrf_memobj.o(i.nrf_memobj_read)
    i.nrf_memobj_write                       0x0003080a   Section        0  nrf_memobj.o(i.nrf_memobj_write)
    i.nrf_mtx_unlock                         0x0003082c   Section        0  gatt_cache_manager.o(i.nrf_mtx_unlock)
    nrf_mtx_unlock                           0x0003082d   Thumb Code    22  gatt_cache_manager.o(i.nrf_mtx_unlock)
    i.nrf_pwr_mgmt_init                      0x00030844   Section        0  nrf_pwr_mgmt.o(i.nrf_pwr_mgmt_init)
    i.nrf_pwr_mgmt_run                       0x00030884   Section        0  nrf_pwr_mgmt.o(i.nrf_pwr_mgmt_run)
    i.nrf_queue_generic_pop                  0x0003089a   Section        0  nrf_queue.o(i.nrf_queue_generic_pop)
    i.nrf_queue_is_empty                     0x00030936   Section        0  nrf_queue.o(i.nrf_queue_is_empty)
    i.nrf_queue_is_full                      0x0003094c   Section        0  nrf_queue.o(i.nrf_queue_is_full)
    i.nrf_queue_next_idx                     0x0003096c   Section        0  nrf_queue.o(i.nrf_queue_next_idx)
    nrf_queue_next_idx                       0x0003096d   Thumb Code    16  nrf_queue.o(i.nrf_queue_next_idx)
    i.nrf_queue_push                         0x0003097c   Section        0  nrf_queue.o(i.nrf_queue_push)
    i.nrf_qwr_error_handler                  0x00030a48   Section        0  main.o(i.nrf_qwr_error_handler)
    nrf_qwr_error_handler                    0x00030a49   Thumb Code    16  main.o(i.nrf_qwr_error_handler)
    i.nrf_ringbuf_init                       0x00030a58   Section        0  nrf_ringbuf.o(i.nrf_ringbuf_init)
    i.nrf_rtc_cc_get                         0x00030a74   Section        0  drv_rtc.o(i.nrf_rtc_cc_get)
    nrf_rtc_cc_get                           0x00030a75   Thumb Code    12  drv_rtc.o(i.nrf_rtc_cc_get)
    i.nrf_rtc_cc_set                         0x00030a80   Section        0  drv_rtc.o(i.nrf_rtc_cc_set)
    nrf_rtc_cc_set                           0x00030a81   Thumb Code    10  drv_rtc.o(i.nrf_rtc_cc_set)
    i.nrf_rtc_counter_get                    0x00030a8a   Section        0  drv_rtc.o(i.nrf_rtc_counter_get)
    nrf_rtc_counter_get                      0x00030a8b   Thumb Code     8  drv_rtc.o(i.nrf_rtc_counter_get)
    i.nrf_rtc_event_clear                    0x00030a92   Section        0  drv_rtc.o(i.nrf_rtc_event_clear)
    nrf_rtc_event_clear                      0x00030a93   Thumb Code    14  drv_rtc.o(i.nrf_rtc_event_clear)
    i.nrf_rtc_event_disable                  0x00030aa0   Section        0  drv_rtc.o(i.nrf_rtc_event_disable)
    nrf_rtc_event_disable                    0x00030aa1   Thumb Code     6  drv_rtc.o(i.nrf_rtc_event_disable)
    i.nrf_rtc_event_enable                   0x00030aa6   Section        0  drv_rtc.o(i.nrf_rtc_event_enable)
    nrf_rtc_event_enable                     0x00030aa7   Thumb Code     6  drv_rtc.o(i.nrf_rtc_event_enable)
    i.nrf_rtc_int_disable                    0x00030aac   Section        0  drv_rtc.o(i.nrf_rtc_int_disable)
    nrf_rtc_int_disable                      0x00030aad   Thumb Code     6  drv_rtc.o(i.nrf_rtc_int_disable)
    i.nrf_rtc_int_enable                     0x00030ab2   Section        0  drv_rtc.o(i.nrf_rtc_int_enable)
    nrf_rtc_int_enable                       0x00030ab3   Thumb Code     6  drv_rtc.o(i.nrf_rtc_int_enable)
    i.nrf_rtc_task_trigger                   0x00030ab8   Section        0  drv_rtc.o(i.nrf_rtc_task_trigger)
    nrf_rtc_task_trigger                     0x00030ab9   Thumb Code     6  drv_rtc.o(i.nrf_rtc_task_trigger)
    i.nrf_sdh_ble_app_ram_start_get          0x00030ac0   Section        0  nrf_sdh_ble.o(i.nrf_sdh_ble_app_ram_start_get)
    i.nrf_sdh_ble_default_cfg_set            0x00030ad8   Section        0  nrf_sdh_ble.o(i.nrf_sdh_ble_default_cfg_set)
    i.nrf_sdh_ble_enable                     0x00030c74   Section        0  nrf_sdh_ble.o(i.nrf_sdh_ble_enable)
    i.nrf_sdh_ble_evts_poll                  0x00030dc0   Section        0  nrf_sdh_ble.o(i.nrf_sdh_ble_evts_poll)
    nrf_sdh_ble_evts_poll                    0x00030dc1   Thumb Code   108  nrf_sdh_ble.o(i.nrf_sdh_ble_evts_poll)
    i.nrf_sdh_disable_request                0x00030e34   Section        0  nrf_sdh.o(i.nrf_sdh_disable_request)
    i.nrf_sdh_enable_request                 0x00030e98   Section        0  nrf_sdh.o(i.nrf_sdh_enable_request)
    i.nrf_sdh_evts_poll                      0x00030f1c   Section        0  nrf_sdh.o(i.nrf_sdh_evts_poll)
    i.nrf_sdh_is_enabled                     0x00030f4c   Section        0  nrf_sdh.o(i.nrf_sdh_is_enabled)
    i.nrf_sdh_request_continue               0x00030f58   Section        0  nrf_sdh.o(i.nrf_sdh_request_continue)
    i.nrf_sdh_soc_evts_poll                  0x00030f80   Section        0  nrf_sdh_soc.o(i.nrf_sdh_soc_evts_poll)
    nrf_sdh_soc_evts_poll                    0x00030f81   Thumb Code    80  nrf_sdh_soc.o(i.nrf_sdh_soc_evts_poll)
    i.nrf_section_iter_get                   0x00030fd4   Section        0  nrf_sdh.o(i.nrf_section_iter_get)
    nrf_section_iter_get                     0x00030fd5   Thumb Code     6  nrf_sdh.o(i.nrf_section_iter_get)
    i.nrf_section_iter_init                  0x00030fda   Section        0  nrf_section_iter.o(i.nrf_section_iter_init)
    i.nrf_section_iter_item_set              0x00030fee   Section        0  nrf_section_iter.o(i.nrf_section_iter_item_set)
    nrf_section_iter_item_set                0x00030fef   Thumb Code    46  nrf_section_iter.o(i.nrf_section_iter_item_set)
    i.nrf_section_iter_next                  0x0003101c   Section        0  nrf_section_iter.o(i.nrf_section_iter_next)
    i.nrf_sortlist_add                       0x0003104a   Section        0  nrf_sortlist.o(i.nrf_sortlist_add)
    i.nrf_sortlist_peek                      0x00031072   Section        0  nrf_sortlist.o(i.nrf_sortlist_peek)
    i.nrf_sortlist_pop                       0x0003107a   Section        0  nrf_sortlist.o(i.nrf_sortlist_pop)
    i.nrf_sortlist_remove                    0x00031092   Section        0  nrf_sortlist.o(i.nrf_sortlist_remove)
    i.nrf_strerror_find                      0x000310b8   Section        0  nrf_strerror.o(i.nrf_strerror_find)
    i.nrf_strerror_get                       0x000310f8   Section        0  nrf_strerror.o(i.nrf_strerror_get)
    i.nrf_timer_compare_event_get            0x00031114   Section        0  nrfx_timer.o(i.nrf_timer_compare_event_get)
    nrf_timer_compare_event_get              0x00031115   Thumb Code    14  nrfx_timer.o(i.nrf_timer_compare_event_get)
    i.nrf_timer_compare_int_get              0x00031122   Section        0  nrfx_timer.o(i.nrf_timer_compare_int_get)
    nrf_timer_compare_int_get                0x00031123   Thumb Code    10  nrfx_timer.o(i.nrf_timer_compare_int_get)
    i.nrf_timer_event_clear                  0x0003112c   Section        0  nrfx_timer.o(i.nrf_timer_event_clear)
    nrf_timer_event_clear                    0x0003112d   Thumb Code    14  nrfx_timer.o(i.nrf_timer_event_clear)
    i.nrf_uart_errorsrc_get_and_clear        0x0003113a   Section        0  nrfx_uart.o(i.nrf_uart_errorsrc_get_and_clear)
    nrf_uart_errorsrc_get_and_clear          0x0003113b   Thumb Code    12  nrfx_uart.o(i.nrf_uart_errorsrc_get_and_clear)
    i.nrf_uart_event_check                   0x00031146   Section        0  nrfx_uart.o(i.nrf_uart_event_check)
    nrf_uart_event_check                     0x00031147   Thumb Code    14  nrfx_uart.o(i.nrf_uart_event_check)
    i.nrf_uart_event_clear                   0x00031154   Section        0  nrfx_uart.o(i.nrf_uart_event_clear)
    nrf_uart_event_clear                     0x00031155   Thumb Code    14  nrfx_uart.o(i.nrf_uart_event_clear)
    i.nrf_uart_hwfc_pins_set                 0x00031162   Section        0  nrfx_uart.o(i.nrf_uart_hwfc_pins_set)
    nrf_uart_hwfc_pins_set                   0x00031163   Thumb Code    12  nrfx_uart.o(i.nrf_uart_hwfc_pins_set)
    i.nrf_uart_int_disable                   0x0003116e   Section        0  nrfx_uart.o(i.nrf_uart_int_disable)
    nrf_uart_int_disable                     0x0003116f   Thumb Code     6  nrfx_uart.o(i.nrf_uart_int_disable)
    i.nrf_uart_int_enable                    0x00031174   Section        0  nrfx_uart.o(i.nrf_uart_int_enable)
    nrf_uart_int_enable                      0x00031175   Thumb Code     6  nrfx_uart.o(i.nrf_uart_int_enable)
    i.nrf_uart_int_enable_check              0x0003117a   Section        0  nrfx_uart.o(i.nrf_uart_int_enable_check)
    nrf_uart_int_enable_check                0x0003117b   Thumb Code    18  nrfx_uart.o(i.nrf_uart_int_enable_check)
    i.nrf_uart_task_trigger                  0x0003118c   Section        0  nrfx_uart.o(i.nrf_uart_task_trigger)
    nrf_uart_task_trigger                    0x0003118d   Thumb Code     6  nrfx_uart.o(i.nrf_uart_task_trigger)
    i.nrf_uart_txrx_pins_set                 0x00031192   Section        0  nrfx_uart.o(i.nrf_uart_txrx_pins_set)
    nrf_uart_txrx_pins_set                   0x00031193   Thumb Code    14  nrfx_uart.o(i.nrf_uart_txrx_pins_set)
    i.nrf_uarte_errorsrc_get_and_clear       0x000311a0   Section        0  nrfx_uarte.o(i.nrf_uarte_errorsrc_get_and_clear)
    nrf_uarte_errorsrc_get_and_clear         0x000311a1   Thumb Code    12  nrfx_uarte.o(i.nrf_uarte_errorsrc_get_and_clear)
    i.nrf_uarte_event_check                  0x000311ac   Section        0  nrfx_uarte.o(i.nrf_uarte_event_check)
    nrf_uarte_event_check                    0x000311ad   Thumb Code    14  nrfx_uarte.o(i.nrf_uarte_event_check)
    i.nrf_uarte_event_clear                  0x000311ba   Section        0  nrfx_uarte.o(i.nrf_uarte_event_clear)
    nrf_uarte_event_clear                    0x000311bb   Thumb Code    14  nrfx_uarte.o(i.nrf_uarte_event_clear)
    i.nrf_uarte_hwfc_pins_set                0x000311c8   Section        0  nrfx_uarte.o(i.nrf_uarte_hwfc_pins_set)
    nrf_uarte_hwfc_pins_set                  0x000311c9   Thumb Code    12  nrfx_uarte.o(i.nrf_uarte_hwfc_pins_set)
    i.nrf_uarte_int_disable                  0x000311d4   Section        0  nrfx_uarte.o(i.nrf_uarte_int_disable)
    nrf_uarte_int_disable                    0x000311d5   Thumb Code     6  nrfx_uarte.o(i.nrf_uarte_int_disable)
    i.nrf_uarte_int_enable                   0x000311da   Section        0  nrfx_uarte.o(i.nrf_uarte_int_enable)
    nrf_uarte_int_enable                     0x000311db   Thumb Code     6  nrfx_uarte.o(i.nrf_uarte_int_enable)
    i.nrf_uarte_rx_amount_get                0x000311e0   Section        0  nrfx_uarte.o(i.nrf_uarte_rx_amount_get)
    nrf_uarte_rx_amount_get                  0x000311e1   Thumb Code    10  nrfx_uarte.o(i.nrf_uarte_rx_amount_get)
    i.nrf_uarte_shorts_disable               0x000311ea   Section        0  nrfx_uarte.o(i.nrf_uarte_shorts_disable)
    nrf_uarte_shorts_disable                 0x000311eb   Thumb Code    12  nrfx_uarte.o(i.nrf_uarte_shorts_disable)
    i.nrf_uarte_task_trigger                 0x000311f6   Section        0  nrfx_uarte.o(i.nrf_uarte_task_trigger)
    nrf_uarte_task_trigger                   0x000311f7   Thumb Code     6  nrfx_uarte.o(i.nrf_uarte_task_trigger)
    i.nrf_uarte_tx_amount_get                0x000311fc   Section        0  nrfx_uarte.o(i.nrf_uarte_tx_amount_get)
    nrf_uarte_tx_amount_get                  0x000311fd   Thumb Code    10  nrfx_uarte.o(i.nrf_uarte_tx_amount_get)
    i.nrf_uarte_txrx_pins_set                0x00031206   Section        0  nrfx_uarte.o(i.nrf_uarte_txrx_pins_set)
    nrf_uarte_txrx_pins_set                  0x00031207   Thumb Code    14  nrfx_uarte.o(i.nrf_uarte_txrx_pins_set)
    i.nrf_wdt_started                        0x00031214   Section        0  nrf_drv_clock.o(i.nrf_wdt_started)
    nrf_wdt_started                          0x00031215   Thumb Code    14  nrf_drv_clock.o(i.nrf_wdt_started)
    i.nrfx_clock_enable                      0x00031228   Section        0  nrfx_clock.o(i.nrfx_clock_enable)
    i.nrfx_clock_init                        0x0003123c   Section        0  nrfx_clock.o(i.nrfx_clock_init)
    i.nrfx_clock_lfclk_stop                  0x0003125c   Section        0  nrfx_clock.o(i.nrfx_clock_lfclk_stop)
    i.nrfx_coredep_delay_us                  0x00031288   Section        0  drv_rtc.o(i.nrfx_coredep_delay_us)
    nrfx_coredep_delay_us                    0x00031289   Thumb Code    20  drv_rtc.o(i.nrfx_coredep_delay_us)
    i.nrfx_get_irq_number                    0x000312a0   Section        0  nrfx_clock.o(i.nrfx_get_irq_number)
    nrfx_get_irq_number                      0x000312a1   Thumb Code     8  nrfx_clock.o(i.nrfx_get_irq_number)
    i.nrfx_get_irq_number                    0x000312a8   Section        0  nrfx_uart.o(i.nrfx_get_irq_number)
    nrfx_get_irq_number                      0x000312a9   Thumb Code     8  nrfx_uart.o(i.nrfx_get_irq_number)
    i.nrfx_get_irq_number                    0x000312b0   Section        0  nrfx_uarte.o(i.nrfx_get_irq_number)
    nrfx_get_irq_number                      0x000312b1   Thumb Code     8  nrfx_uarte.o(i.nrfx_get_irq_number)
    i.nrfx_is_in_ram                         0x000312b8   Section        0  nrfx_uarte.o(i.nrfx_is_in_ram)
    nrfx_is_in_ram                           0x000312b9   Thumb Code    20  nrfx_uarte.o(i.nrfx_is_in_ram)
    i.nrfx_power_clock_irq_init              0x000312cc   Section        0  nrfx_clock.o(i.nrfx_power_clock_irq_init)
    nrfx_power_clock_irq_init                0x000312cd   Thumb Code   168  nrfx_clock.o(i.nrfx_power_clock_irq_init)
    i.nrfx_prs_acquire                       0x0003137c   Section        0  nrfx_prs.o(i.nrfx_prs_acquire)
    i.nrfx_prs_release                       0x000313ca   Section        0  nrfx_prs.o(i.nrfx_prs_release)
    i.nrfx_uart_0_irq_handler                0x000313e0   Section        0  nrfx_uart.o(i.nrfx_uart_0_irq_handler)
    i.nrfx_uart_init                         0x000313f4   Section        0  nrfx_uart.o(i.nrfx_uart_init)
    i.nrfx_uart_rx                           0x0003147c   Section        0  nrfx_uart.o(i.nrfx_uart_rx)
    i.nrfx_uart_tx                           0x000315a0   Section        0  nrfx_uart.o(i.nrfx_uart_tx)
    i.nrfx_uart_tx_in_progress               0x0003162c   Section        0  nrfx_uart.o(i.nrfx_uart_tx_in_progress)
    i.nrfx_uart_uninit                       0x00031650   Section        0  nrfx_uart.o(i.nrfx_uart_uninit)
    i.nrfx_uarte_0_irq_handler               0x00031694   Section        0  nrfx_uarte.o(i.nrfx_uarte_0_irq_handler)
    i.nrfx_uarte_init                        0x000316a8   Section        0  nrfx_uarte.o(i.nrfx_uarte_init)
    i.nrfx_uarte_rx                          0x00031728   Section        0  nrfx_uarte.o(i.nrfx_uarte_rx)
    i.nrfx_uarte_tx                          0x00031860   Section        0  nrfx_uarte.o(i.nrfx_uarte_tx)
    i.nrfx_uarte_tx_in_progress              0x00031920   Section        0  nrfx_uarte.o(i.nrfx_uarte_tx_in_progress)
    i.nrfx_uarte_uninit                      0x00031940   Section        0  nrfx_uarte.o(i.nrfx_uarte_uninit)
    i.nus_c_init                             0x000319d4   Section        0  main.o(i.nus_c_init)
    nus_c_init                               0x000319d5   Thumb Code    44  main.o(i.nus_c_init)
    i.nus_data_handler                       0x00031a10   Section        0  main.o(i.nus_data_handler)
    nus_data_handler                         0x00031a11   Thumb Code   158  main.o(i.nus_data_handler)
    i.nus_error_handler                      0x00031b18   Section        0  main.o(i.nus_error_handler)
    nus_error_handler                        0x00031b19   Thumb Code    16  main.o(i.nus_error_handler)
    i.nvmc_config                            0x00031b28   Section        0  system_nrf52.o(i.nvmc_config)
    i.nvmc_wait                              0x00031b3c   Section        0  system_nrf52.o(i.nvmc_wait)
    i.on_adv_evt                             0x00031b4c   Section        0  main.o(i.on_adv_evt)
    on_adv_evt                               0x00031b4d   Thumb Code    90  main.o(i.on_adv_evt)
    i.on_characteristic_discovery_rsp        0x00031be8   Section        0  ble_db_discovery.o(i.on_characteristic_discovery_rsp)
    on_characteristic_discovery_rsp          0x00031be9   Thumb Code   414  ble_db_discovery.o(i.on_characteristic_discovery_rsp)
    i.on_compare1_evt                        0x00031d9c   Section        0  app_timer2.o(i.on_compare1_evt)
    on_compare1_evt                          0x00031d9d   Thumb Code    14  app_timer2.o(i.on_compare1_evt)
    i.on_compare_evt                         0x00031db0   Section        0  app_timer2.o(i.on_compare_evt)
    on_compare_evt                           0x00031db1   Thumb Code    26  app_timer2.o(i.on_compare_evt)
    i.on_conn_params_evt                     0x00031dd0   Section        0  main.o(i.on_conn_params_evt)
    on_conn_params_evt                       0x00031dd1   Thumb Code    58  main.o(i.on_conn_params_evt)
    i.on_conn_params_update                  0x00031e3c   Section        0  ble_conn_params.o(i.on_conn_params_update)
    on_conn_params_update                    0x00031e3d   Thumb Code    48  ble_conn_params.o(i.on_conn_params_update)
    i.on_connect                             0x00031e6c   Section        0  ble_conn_params.o(i.on_connect)
    on_connect                               0x00031e6d   Thumb Code   102  ble_conn_params.o(i.on_connect)
    i.on_connect                             0x00031edc   Section        0  ble_nus.o(i.on_connect)
    on_connect                               0x00031edd   Thumb Code   116  ble_nus.o(i.on_connect)
    i.on_connected                           0x00031f50   Section        0  ble_advertising.o(i.on_connected)
    on_connected                             0x00031f51   Thumb Code    14  ble_advertising.o(i.on_connected)
    i.on_connected_evt                       0x00031f60   Section        0  nrf_ble_gatt.o(i.on_connected_evt)
    on_connected_evt                         0x00031f61   Thumb Code   182  nrf_ble_gatt.o(i.on_connected_evt)
    i.on_data_length_update_evt              0x00032098   Section        0  nrf_ble_gatt.o(i.on_data_length_update_evt)
    on_data_length_update_evt                0x00032099   Thumb Code   204  nrf_ble_gatt.o(i.on_data_length_update_evt)
    i.on_data_length_update_request_evt      0x000321e8   Section        0  nrf_ble_gatt.o(i.on_data_length_update_request_evt)
    on_data_length_update_request_evt        0x000321e9   Thumb Code    72  nrf_ble_gatt.o(i.on_data_length_update_request_evt)
    i.on_descriptor_discovery_rsp            0x00032278   Section        0  ble_db_discovery.o(i.on_descriptor_discovery_rsp)
    on_descriptor_discovery_rsp              0x00032279   Thumb Code   314  ble_db_discovery.o(i.on_descriptor_discovery_rsp)
    i.on_disconnect                          0x000323c0   Section        0  ble_conn_params.o(i.on_disconnect)
    on_disconnect                            0x000323c1   Thumb Code    50  ble_conn_params.o(i.on_disconnect)
    i.on_disconnected                        0x000323f2   Section        0  ble_db_discovery.o(i.on_disconnected)
    on_disconnected                          0x000323f3   Thumb Code    26  ble_db_discovery.o(i.on_disconnected)
    i.on_disconnected                        0x0003240c   Section        0  ble_advertising.o(i.on_disconnected)
    on_disconnected                          0x0003240d   Thumb Code    50  ble_advertising.o(i.on_disconnected)
    i.on_disconnected_evt                    0x0003243e   Section        0  nrf_ble_gatt.o(i.on_disconnected_evt)
    on_disconnected_evt                      0x0003243f   Thumb Code    20  nrf_ble_gatt.o(i.on_disconnected_evt)
    i.on_exchange_mtu_request_evt            0x00032454   Section        0  nrf_ble_gatt.o(i.on_exchange_mtu_request_evt)
    on_exchange_mtu_request_evt              0x00032455   Thumb Code   196  nrf_ble_gatt.o(i.on_exchange_mtu_request_evt)
    i.on_exchange_mtu_rsp_evt                0x000325d0   Section        0  nrf_ble_gatt.o(i.on_exchange_mtu_rsp_evt)
    on_exchange_mtu_rsp_evt                  0x000325d1   Thumb Code   118  nrf_ble_gatt.o(i.on_exchange_mtu_rsp_evt)
    i.on_hvx                                 0x00032690   Section        0  ble_nus_c.o(i.on_hvx)
    on_hvx                                   0x00032691   Thumb Code    76  ble_nus_c.o(i.on_hvx)
    i.on_hvx_tx_complete                     0x000326fc   Section        0  ble_nus.o(i.on_hvx_tx_complete)
    on_hvx_tx_complete                       0x000326fd   Thumb Code    72  ble_nus.o(i.on_hvx_tx_complete)
    i.on_operation_failure                   0x00032744   Section        0  nrf_fstorage_sd.o(i.on_operation_failure)
    on_operation_failure                     0x00032745   Thumb Code    32  nrf_fstorage_sd.o(i.on_operation_failure)
    i.on_operation_success                   0x00032768   Section        0  nrf_fstorage_sd.o(i.on_operation_success)
    on_operation_success                     0x00032769   Thumb Code    92  nrf_fstorage_sd.o(i.on_operation_success)
    i.on_overflow_evt                        0x000327c8   Section        0  app_timer2.o(i.on_overflow_evt)
    on_overflow_evt                          0x000327c9   Thumb Code    24  app_timer2.o(i.on_overflow_evt)
    i.on_primary_srv_discovery_rsp           0x000327e4   Section        0  ble_db_discovery.o(i.on_primary_srv_discovery_rsp)
    on_primary_srv_discovery_rsp             0x000327e5   Thumb Code   220  ble_db_discovery.o(i.on_primary_srv_discovery_rsp)
    i.on_rw_authorize_request                0x00032928   Section        0  nrf_ble_qwr.o(i.on_rw_authorize_request)
    on_rw_authorize_request                  0x00032929   Thumb Code   106  nrf_ble_qwr.o(i.on_rw_authorize_request)
    i.on_srv_disc_completion                 0x00032994   Section        0  ble_db_discovery.o(i.on_srv_disc_completion)
    on_srv_disc_completion                   0x00032995   Thumb Code   186  ble_db_discovery.o(i.on_srv_disc_completion)
    i.on_terminated                          0x00032a6c   Section        0  ble_advertising.o(i.on_terminated)
    on_terminated                            0x00032a6d   Thumb Code    64  ble_advertising.o(i.on_terminated)
    i.on_user_mem_release                    0x00032aac   Section        0  nrf_ble_qwr.o(i.on_user_mem_release)
    on_user_mem_release                      0x00032aad   Thumb Code     2  nrf_ble_qwr.o(i.on_user_mem_release)
    i.on_user_mem_request                    0x00032aae   Section        0  nrf_ble_qwr.o(i.on_user_mem_request)
    on_user_mem_request                      0x00032aaf   Thumb Code    32  nrf_ble_qwr.o(i.on_user_mem_request)
    i.on_write                               0x00032ad0   Section        0  ble_conn_params.o(i.on_write)
    on_write                                 0x00032ad1   Thumb Code    82  ble_conn_params.o(i.on_write)
    i.on_write                               0x00032b28   Section        0  ble_nus.o(i.on_write)
    on_write                                 0x00032b29   Thumb Code   148  ble_nus.o(i.on_write)
    i.page_from_record                       0x00032bbc   Section        0  fds.o(i.page_from_record)
    page_from_record                         0x00032bbd   Thumb Code    66  fds.o(i.page_from_record)
    i.page_has_space                         0x00032c04   Section        0  fds.o(i.page_has_space)
    page_has_space                           0x00032c05   Thumb Code    46  fds.o(i.page_has_space)
    i.page_offsets_update                    0x00032c38   Section        0  fds.o(i.page_offsets_update)
    page_offsets_update                      0x00032c39   Thumb Code    28  fds.o(i.page_offsets_update)
    i.page_tag_write_data                    0x00032c54   Section        0  fds.o(i.page_tag_write_data)
    page_tag_write_data                      0x00032c55   Thumb Code    22  fds.o(i.page_tag_write_data)
    i.page_tag_write_swap                    0x00032c74   Section        0  fds.o(i.page_tag_write_swap)
    page_tag_write_swap                      0x00032c75   Thumb Code    22  fds.o(i.page_tag_write_swap)
    i.pairing                                0x00032c98   Section        0  security_dispatcher.o(i.pairing)
    pairing                                  0x00032c99   Thumb Code    16  security_dispatcher.o(i.pairing)
    i.pairing_failure                        0x00032cac   Section        0  security_dispatcher.o(i.pairing_failure)
    pairing_failure                          0x00032cad   Thumb Code   110  security_dispatcher.o(i.pairing_failure)
    i.pairing_success_evt_send               0x00032d2c   Section        0  security_dispatcher.o(i.pairing_success_evt_send)
    pairing_success_evt_send                 0x00032d2d   Thumb Code    52  security_dispatcher.o(i.pairing_success_evt_send)
    i.params_reply_pending_handle            0x00032d60   Section        0  security_manager.o(i.params_reply_pending_handle)
    params_reply_pending_handle              0x00032d61   Thumb Code    16  security_manager.o(i.params_reply_pending_handle)
    i.params_req_send                        0x00032d70   Section        0  security_manager.o(i.params_req_send)
    params_req_send                          0x00032d71   Thumb Code    34  security_manager.o(i.params_req_send)
    i.pdb_evt_send                           0x00032d94   Section        0  peer_database.o(i.pdb_evt_send)
    pdb_evt_send                             0x00032d95   Thumb Code    26  peer_database.o(i.pdb_evt_send)
    i.pdb_pds_evt_handler                    0x00032db4   Section        0  peer_database.o(i.pdb_pds_evt_handler)
    i.pdb_peer_data_ptr_get                  0x00032e20   Section        0  peer_database.o(i.pdb_peer_data_ptr_get)
    i.pdb_peer_free                          0x00032e38   Section        0  peer_database.o(i.pdb_peer_free)
    i.pdb_write_buf_get                      0x00032ee4   Section        0  peer_database.o(i.pdb_write_buf_get)
    i.pdb_write_buf_release                  0x00032fd4   Section        0  peer_database.o(i.pdb_write_buf_release)
    i.pdb_write_buf_store                    0x00032ff4   Section        0  peer_database.o(i.pdb_write_buf_store)
    i.pds_evt_send                           0x00033038   Section        0  peer_data_storage.o(i.pds_evt_send)
    pds_evt_send                             0x00033039   Thumb Code    32  peer_data_storage.o(i.pds_evt_send)
    i.pds_next_deleted_peer_id_get           0x0003305c   Section        0  peer_data_storage.o(i.pds_next_deleted_peer_id_get)
    i.pds_next_peer_id_get                   0x00033068   Section        0  peer_data_storage.o(i.pds_next_peer_id_get)
    i.pds_peer_data_iterate                  0x00033074   Section        0  peer_data_storage.o(i.pds_peer_data_iterate)
    i.pds_peer_data_iterate_prepare          0x000330e0   Section        0  peer_data_storage.o(i.pds_peer_data_iterate_prepare)
    i.pds_peer_data_read                     0x000330f0   Section        0  peer_data_storage.o(i.pds_peer_data_read)
    i.pds_peer_data_store                    0x0003318c   Section        0  peer_data_storage.o(i.pds_peer_data_store)
    i.pds_peer_id_allocate                   0x00033260   Section        0  peer_data_storage.o(i.pds_peer_id_allocate)
    i.pds_peer_id_free                       0x0003326c   Section        0  peer_data_storage.o(i.pds_peer_id_free)
    i.pds_peer_id_is_allocated               0x0003328a   Section        0  peer_data_storage.o(i.pds_peer_id_is_allocated)
    i.peer_data_const_point_to_buffer        0x00033296   Section        0  peer_database.o(i.peer_data_const_point_to_buffer)
    peer_data_const_point_to_buffer          0x00033297   Thumb Code    28  peer_database.o(i.peer_data_const_point_to_buffer)
    i.peer_data_delete_process               0x000332b4   Section        0  peer_data_storage.o(i.peer_data_delete_process)
    peer_data_delete_process                 0x000332b5   Thumb Code   150  peer_data_storage.o(i.peer_data_delete_process)
    i.peer_data_find                         0x0003335c   Section        0  peer_data_storage.o(i.peer_data_find)
    peer_data_find                           0x0003335d   Thumb Code    64  peer_data_storage.o(i.peer_data_find)
    i.peer_data_id_is_valid                  0x0003339c   Section        0  peer_data_storage.o(i.peer_data_id_is_valid)
    peer_data_id_is_valid                    0x0003339d   Thumb Code    38  peer_data_storage.o(i.peer_data_id_is_valid)
    i.peer_data_id_to_record_key             0x000333c2   Section        0  peer_data_storage.o(i.peer_data_id_to_record_key)
    peer_data_id_to_record_key               0x000333c3   Thumb Code    10  peer_data_storage.o(i.peer_data_id_to_record_key)
    i.peer_data_point_to_buffer              0x000333cc   Section        0  peer_database.o(i.peer_data_point_to_buffer)
    peer_data_point_to_buffer                0x000333cd   Thumb Code    26  peer_database.o(i.peer_data_point_to_buffer)
    i.peer_id_allocate                       0x000333e8   Section        0  peer_id.o(i.peer_id_allocate)
    i.peer_id_delete                         0x000333fc   Section        0  peer_id.o(i.peer_id_delete)
    i.peer_id_free                           0x00033428   Section        0  peer_id.o(i.peer_id_free)
    i.peer_id_get_next_deleted               0x00033444   Section        0  peer_id.o(i.peer_id_get_next_deleted)
    i.peer_id_get_next_used                  0x00033458   Section        0  peer_id.o(i.peer_id_get_next_used)
    i.peer_id_is_allocated                   0x00033490   Section        0  peer_id.o(i.peer_id_is_allocated)
    i.peer_id_is_deleted                     0x000334ac   Section        0  peer_id.o(i.peer_id_is_deleted)
    i.peer_id_to_file_id                     0x000334c8   Section        0  peer_data_storage.o(i.peer_id_to_file_id)
    peer_id_to_file_id                       0x000334c9   Thumb Code    10  peer_data_storage.o(i.peer_id_to_file_id)
    i.pending_user_evts_send                 0x000334d4   Section        0  ble_db_discovery.o(i.pending_user_evts_send)
    pending_user_evts_send                   0x000334d5   Thumb Code    42  ble_db_discovery.o(i.pending_user_evts_send)
    i.phy_is_valid                           0x00033504   Section        0  ble_advertising.o(i.phy_is_valid)
    phy_is_valid                             0x00033505   Thumb Code    22  ble_advertising.o(i.phy_is_valid)
    i.pins_to_default                        0x0003351a   Section        0  nrfx_uart.o(i.pins_to_default)
    pins_to_default                          0x0003351b   Thumb Code   126  nrfx_uart.o(i.pins_to_default)
    i.pins_to_default                        0x00033598   Section        0  nrfx_uarte.o(i.pins_to_default)
    pins_to_default                          0x00033599   Thumb Code   126  nrfx_uarte.o(i.pins_to_default)
    i.pm_buffer_block_acquire                0x00033616   Section        0  pm_buffer.o(i.pm_buffer_block_acquire)
    i.pm_buffer_ptr_get                      0x00033678   Section        0  pm_buffer.o(i.pm_buffer_ptr_get)
    i.pm_buffer_release                      0x000336a8   Section        0  pm_buffer.o(i.pm_buffer_release)
    i.pm_gcm_evt_handler                     0x000336d0   Section        0  peer_manager.o(i.pm_gcm_evt_handler)
    i.pm_gscm_evt_handler                    0x000336dc   Section        0  peer_manager.o(i.pm_gscm_evt_handler)
    i.pm_im_evt_handler                      0x000336e8   Section        0  peer_manager.o(i.pm_im_evt_handler)
    i.pm_pdb_evt_handler                     0x000336f4   Section        0  peer_manager.o(i.pm_pdb_evt_handler)
    i.pm_peer_ranks_get                      0x00033870   Section        0  peer_manager.o(i.pm_peer_ranks_get)
    i.pm_sm_evt_handler                      0x00033984   Section        0  peer_manager.o(i.pm_sm_evt_handler)
    i.port_event_handle                      0x0003399c   Section        0  nrfx_gpiote.o(i.port_event_handle)
    port_event_handle                        0x0003399d   Thumb Code   186  nrfx_gpiote.o(i.port_event_handle)
    i.port_handler_pin_get                   0x00033a5c   Section        0  nrfx_gpiote.o(i.port_handler_pin_get)
    port_handler_pin_get                     0x00033a5d   Thumb Code    12  nrfx_gpiote.o(i.port_handler_pin_get)
    i.port_handler_polarity_get              0x00033a6c   Section        0  nrfx_gpiote.o(i.port_handler_polarity_get)
    port_handler_polarity_get                0x00033a6d   Thumb Code    10  nrfx_gpiote.o(i.port_handler_polarity_get)
    i.postfix_process                        0x00033a7c   Section        0  nrf_log_str_formatter.o(i.postfix_process)
    postfix_process                          0x00033a7d   Thumb Code    58  nrf_log_str_formatter.o(i.postfix_process)
    i.power_management_init                  0x00033ac4   Section        0  main.o(i.power_management_init)
    power_management_init                    0x00033ac5   Thumb Code    28  main.o(i.power_management_init)
    i.prefix_process                         0x00033ae0   Section        0  nrf_log_str_formatter.o(i.prefix_process)
    prefix_process                           0x00033ae1   Thumb Code    98  nrf_log_str_formatter.o(i.prefix_process)
    i.prs_box_get                            0x00033b84   Section        0  nrfx_prs.o(i.prs_box_get)
    prs_box_get                              0x00033b85   Thumb Code    16  nrfx_prs.o(i.prs_box_get)
    i.queue_buf_get                          0x00033b9c   Section        0  fds.o(i.queue_buf_get)
    queue_buf_get                            0x00033b9d   Thumb Code    28  fds.o(i.queue_buf_get)
    i.queue_buf_store                        0x00033bbc   Section        0  fds.o(i.queue_buf_store)
    queue_buf_store                          0x00033bbd   Thumb Code    16  fds.o(i.queue_buf_store)
    i.queue_free                             0x00033bd0   Section        0  nrf_fstorage_sd.o(i.queue_free)
    queue_free                               0x00033bd1   Thumb Code    14  nrf_fstorage_sd.o(i.queue_free)
    i.queue_free                             0x00033be8   Section        0  fds.o(i.queue_free)
    queue_free                               0x00033be9   Thumb Code    16  fds.o(i.queue_free)
    i.queue_has_next                         0x00033bfc   Section        0  fds.o(i.queue_has_next)
    queue_has_next                           0x00033bfd   Thumb Code    20  fds.o(i.queue_has_next)
    i.queue_load                             0x00033c14   Section        0  fds.o(i.queue_load)
    queue_load                               0x00033c15   Thumb Code    16  fds.o(i.queue_load)
    i.queue_load_next                        0x00033c28   Section        0  nrf_fstorage_sd.o(i.queue_load_next)
    queue_load_next                          0x00033c29   Thumb Code    30  nrf_fstorage_sd.o(i.queue_load_next)
    i.queue_process                          0x00033c54   Section        0  nrf_ble_gq.o(i.queue_process)
    queue_process                            0x00033c55   Thumb Code   442  nrf_ble_gq.o(i.queue_process)
    i.queue_process                          0x00033f38   Section        0  nrf_fstorage_sd.o(i.queue_process)
    queue_process                            0x00033f39   Thumb Code   134  nrf_fstorage_sd.o(i.queue_process)
    i.queue_process                          0x00033fc8   Section        0  fds.o(i.queue_process)
    queue_process                            0x00033fc9   Thumb Code   186  fds.o(i.queue_process)
    i.queue_start                            0x0003408c   Section        0  nrf_fstorage_sd.o(i.queue_start)
    queue_start                              0x0003408d   Thumb Code    24  nrf_fstorage_sd.o(i.queue_start)
    i.queue_start                            0x000340a8   Section        0  fds.o(i.queue_start)
    queue_start                              0x000340a9   Thumb Code    20  fds.o(i.queue_start)
    i.queue_utilization_get                  0x000340c0   Section        0  nrf_queue.o(i.queue_utilization_get)
    queue_utilization_get                    0x000340c1   Thumb Code    30  nrf_queue.o(i.queue_utilization_get)
    i.queues_purge                           0x000340e0   Section        0  nrf_ble_gq.o(i.queues_purge)
    queues_purge                             0x000340e1   Thumb Code   150  nrf_ble_gq.o(i.queues_purge)
    i.ram_end_address_get                    0x000341cc   Section        0  nrf_sdh_ble.o(i.ram_end_address_get)
    ram_end_address_get                      0x000341cd   Thumb Code    12  nrf_sdh_ble.o(i.ram_end_address_get)
    i.rank_vars_update                       0x000341dc   Section        0  peer_manager.o(i.rank_vars_update)
    rank_vars_update                         0x000341dd   Thumb Code    52  peer_manager.o(i.rank_vars_update)
    i.read                                   0x0003421c   Section        0  nrf_fstorage_sd.o(i.read)
    read                                     0x0003421d   Thumb Code    28  nrf_fstorage_sd.o(i.read)
    i.read_name                              0x00034238   Section        0  main.o(i.read_name)
    i.reattempt_previous_operations          0x000342ac   Section        0  peer_database.o(i.reattempt_previous_operations)
    reattempt_previous_operations            0x000342ad   Thumb Code   110  peer_database.o(i.reattempt_previous_operations)
    i.record_activate                        0x00034324   Section        0  ble_conn_state.o(i.record_activate)
    record_activate                          0x00034325   Thumb Code    34  ble_conn_state.o(i.record_activate)
    i.record_find                            0x0003434c   Section        0  fds.o(i.record_find)
    record_find                              0x0003434d   Thumb Code   134  fds.o(i.record_find)
    i.record_find_and_delete                 0x000343e0   Section        0  fds.o(i.record_find_and_delete)
    record_find_and_delete                   0x000343e1   Thumb Code    60  fds.o(i.record_find_and_delete)
    i.record_find_by_desc                    0x0003441c   Section        0  fds.o(i.record_find_by_desc)
    record_find_by_desc                      0x0003441d   Thumb Code   118  fds.o(i.record_find_by_desc)
    i.record_find_next                       0x00034498   Section        0  fds.o(i.record_find_next)
    record_find_next                         0x00034499   Thumb Code   116  fds.o(i.record_find_next)
    i.record_header_flag_dirty               0x00034510   Section        0  fds.o(i.record_header_flag_dirty)
    record_header_flag_dirty                 0x00034511   Thumb Code    50  fds.o(i.record_header_flag_dirty)
    i.record_header_write_begin              0x00034550   Section        0  fds.o(i.record_header_write_begin)
    record_header_write_begin                0x00034551   Thumb Code    40  fds.o(i.record_header_write_begin)
    i.record_header_write_finalize           0x0003457c   Section        0  fds.o(i.record_header_write_finalize)
    record_header_write_finalize             0x0003457d   Thumb Code    52  fds.o(i.record_header_write_finalize)
    i.record_header_write_id                 0x000345b4   Section        0  fds.o(i.record_header_write_id)
    record_header_write_id                   0x000345b5   Thumb Code    52  fds.o(i.record_header_write_id)
    i.record_id_new                          0x000345ec   Section        0  fds.o(i.record_id_new)
    record_id_new                            0x000345ed   Thumb Code    12  fds.o(i.record_id_new)
    i.record_invalidate                      0x000345fc   Section        0  ble_conn_state.o(i.record_invalidate)
    record_invalidate                        0x000345fd   Thumb Code    28  ble_conn_state.o(i.record_invalidate)
    i.record_purge_disconnected              0x0003461c   Section        0  ble_conn_state.o(i.record_purge_disconnected)
    record_purge_disconnected                0x0003461d   Thumb Code    66  ble_conn_state.o(i.record_purge_disconnected)
    i.record_set_disconnected                0x00034664   Section        0  ble_conn_state.o(i.record_set_disconnected)
    record_set_disconnected                  0x00034665   Thumb Code    14  ble_conn_state.o(i.record_set_disconnected)
    i.record_write_data                      0x00034678   Section        0  fds.o(i.record_write_data)
    record_write_data                        0x00034679   Thumb Code    44  fds.o(i.record_write_data)
    i.registered_handler_get                 0x000346a8   Section        0  ble_db_discovery.o(i.registered_handler_get)
    registered_handler_get                   0x000346a9   Thumb Code    52  ble_db_discovery.o(i.registered_handler_get)
    i.registered_handler_set                 0x000346e8   Section        0  ble_db_discovery.o(i.registered_handler_set)
    registered_handler_set                   0x000346e9   Thumb Code    58  ble_db_discovery.o(i.registered_handler_set)
    i.release                                0x0003472c   Section        0  peer_id.o(i.release)
    release                                  0x0003472d   Thumb Code    20  peer_id.o(i.release)
    i.request_err_code_handle                0x00034740   Section        0  nrf_ble_gq.o(i.request_err_code_handle)
    request_err_code_handle                  0x00034741   Thumb Code    78  nrf_ble_gq.o(i.request_err_code_handle)
    i.request_process                        0x000347d8   Section        0  nrf_ble_gq.o(i.request_process)
    request_process                          0x000347d9   Thumb Code   304  nrf_ble_gq.o(i.request_process)
    i.rmap                                   0x000349f8   Section        0  nrf_fstorage_sd.o(i.rmap)
    rmap                                     0x000349f9   Thumb Code     6  nrf_fstorage_sd.o(i.rmap)
    i.rtc_irq                                0x000349fe   Section        0  app_timer2.o(i.rtc_irq)
    rtc_irq                                  0x000349ff   Thumb Code    62  app_timer2.o(i.rtc_irq)
    i.rtc_schedule                           0x00034a3c   Section        0  app_timer2.o(i.rtc_schedule)
    rtc_schedule                             0x00034a3d   Thumb Code   116  app_timer2.o(i.rtc_schedule)
    i.rtc_update                             0x00034ab8   Section        0  app_timer2.o(i.rtc_update)
    rtc_update                               0x00034ab9   Thumb Code   154  app_timer2.o(i.rtc_update)
    i.rx_byte                                0x00034b5c   Section        0  nrfx_uart.o(i.rx_byte)
    rx_byte                                  0x00034b5d   Thumb Code    62  nrfx_uart.o(i.rx_byte)
    i.rx_done_event                          0x00034b9a   Section        0  nrfx_uart.o(i.rx_done_event)
    rx_done_event                            0x00034b9b   Thumb Code    28  nrfx_uart.o(i.rx_done_event)
    i.rx_done_event                          0x00034bb6   Section        0  nrfx_uarte.o(i.rx_done_event)
    rx_done_event                            0x00034bb7   Thumb Code    28  nrfx_uarte.o(i.rx_done_event)
    i.rx_enable                              0x00034bd2   Section        0  nrfx_uart.o(i.rx_enable)
    rx_enable                                0x00034bd3   Thumb Code    34  nrfx_uart.o(i.rx_enable)
    i.sc_send_pending_handle                 0x00034bf4   Section        0  gatt_cache_manager.o(i.sc_send_pending_handle)
    sc_send_pending_handle                   0x00034bf5   Thumb Code    26  gatt_cache_manager.o(i.sc_send_pending_handle)
    i.scan_evt_handler                       0x00034c14   Section        0  main.o(i.scan_evt_handler)
    scan_evt_handler                         0x00034c15   Thumb Code   336  main.o(i.scan_evt_handler)
    i.scan_init                              0x00034dfc   Section        0  main.o(i.scan_init)
    scan_init                                0x00034dfd   Thumb Code   182  main.o(i.scan_init)
    i.scan_start                             0x00034ec8   Section        0  main.o(i.scan_start)
    scan_start                               0x00034ec9   Thumb Code    56  main.o(i.scan_start)
    i.sd_nvic_DisableIRQ                     0x00034f04   Section        0  nrf_sdh.o(i.sd_nvic_DisableIRQ)
    sd_nvic_DisableIRQ                       0x00034f05   Thumb Code   114  nrf_sdh.o(i.sd_nvic_DisableIRQ)
    i.sd_nvic_EnableIRQ                      0x00034f80   Section        0  nrf_sdh.o(i.sd_nvic_EnableIRQ)
    sd_nvic_EnableIRQ                        0x00034f81   Thumb Code   150  nrf_sdh.o(i.sd_nvic_EnableIRQ)
    i.sd_nvic_critical_region_enter          0x00035024   Section        0  app_util_platform.o(i.sd_nvic_critical_region_enter)
    sd_nvic_critical_region_enter            0x00035025   Thumb Code    90  app_util_platform.o(i.sd_nvic_critical_region_enter)
    i.sd_state_evt_handler                   0x0003508c   Section        0  nrf_drv_clock.o(i.sd_state_evt_handler)
    sd_state_evt_handler                     0x0003508d   Thumb Code   136  nrf_drv_clock.o(i.sd_state_evt_handler)
    i.sdh_request_observer_notify            0x0003511c   Section        0  nrf_sdh.o(i.sdh_request_observer_notify)
    sdh_request_observer_notify              0x0003511d   Thumb Code    56  nrf_sdh.o(i.sdh_request_observer_notify)
    i.sdh_state_observer_notify              0x00035158   Section        0  nrf_sdh.o(i.sdh_state_observer_notify)
    sdh_state_observer_notify                0x00035159   Thumb Code    48  nrf_sdh.o(i.sdh_state_observer_notify)
    i.sec_info_request_process               0x0003518c   Section        0  security_dispatcher.o(i.sec_info_request_process)
    sec_info_request_process                 0x0003518d   Thumb Code   232  security_dispatcher.o(i.sec_info_request_process)
    i.sec_keyset_fill                        0x00035284   Section        0  security_dispatcher.o(i.sec_keyset_fill)
    sec_keyset_fill                          0x00035285   Thumb Code   196  security_dispatcher.o(i.sec_keyset_fill)
    i.sec_params_request_process             0x00035394   Section        0  security_dispatcher.o(i.sec_params_request_process)
    sec_params_request_process               0x00035395   Thumb Code    48  security_dispatcher.o(i.sec_params_request_process)
    i.sec_proc_start                         0x000353c4   Section        0  security_dispatcher.o(i.sec_proc_start)
    sec_proc_start                           0x000353c5   Thumb Code    74  security_dispatcher.o(i.sec_proc_start)
    i.sec_procedure                          0x0003541c   Section        0  security_dispatcher.o(i.sec_procedure)
    sec_procedure                            0x0003541d   Thumb Code    16  security_dispatcher.o(i.sec_procedure)
    i.sec_req_process                        0x00035430   Section        0  security_manager.o(i.sec_req_process)
    sec_req_process                          0x00035431   Thumb Code   100  security_manager.o(i.sec_req_process)
    i.sec_request_process                    0x00035498   Section        0  security_dispatcher.o(i.sec_request_process)
    sec_request_process                      0x00035499   Thumb Code    50  security_dispatcher.o(i.sec_request_process)
    i.sec_start_send                         0x000354d0   Section        0  security_dispatcher.o(i.sec_start_send)
    sec_start_send                           0x000354d1   Thumb Code    36  security_dispatcher.o(i.sec_start_send)
    i.send_config_req                        0x000354f8   Section        0  security_dispatcher.o(i.send_config_req)
    send_config_req                          0x000354f9   Thumb Code    34  security_dispatcher.o(i.send_config_req)
    i.send_error_evt                         0x0003551c   Section        0  ble_conn_params.o(i.send_error_evt)
    send_error_evt                           0x0003551d   Thumb Code    20  ble_conn_params.o(i.send_error_evt)
    i.send_params_req                        0x00035534   Section        0  security_dispatcher.o(i.send_params_req)
    send_params_req                          0x00035535   Thumb Code    34  security_dispatcher.o(i.send_params_req)
    i.send_storage_full_evt                  0x0003555c   Section        0  security_dispatcher.o(i.send_storage_full_evt)
    send_storage_full_evt                    0x0003555d   Thumb Code    30  security_dispatcher.o(i.send_storage_full_evt)
    i.send_unexpected_error                  0x00035580   Section        0  peer_data_storage.o(i.send_unexpected_error)
    send_unexpected_error                    0x00035581   Thumb Code    34  peer_data_storage.o(i.send_unexpected_error)
    i.send_unexpected_error                  0x000355a8   Section        0  security_dispatcher.o(i.send_unexpected_error)
    send_unexpected_error                    0x000355a9   Thumb Code    34  security_dispatcher.o(i.send_unexpected_error)
    i.send_unexpected_error                  0x000355d0   Section        0  security_manager.o(i.send_unexpected_error)
    send_unexpected_error                    0x000355d1   Thumb Code    30  security_manager.o(i.send_unexpected_error)
    i.send_unexpected_error                  0x000355f0   Section        0  gatt_cache_manager.o(i.send_unexpected_error)
    send_unexpected_error                    0x000355f1   Thumb Code    34  gatt_cache_manager.o(i.send_unexpected_error)
    i.send_update_request                    0x00035618   Section        0  ble_conn_params.o(i.send_update_request)
    send_update_request                      0x00035619   Thumb Code    36  ble_conn_params.o(i.send_update_request)
    i.serial_tx                              0x0003563c   Section        0  nrf_log_backend_rtt.o(i.serial_tx)
    serial_tx                                0x0003563d   Thumb Code   124  nrf_log_backend_rtt.o(i.serial_tx)
    i.service_changed_cccd                   0x000356c0   Section        0  gatt_cache_manager.o(i.service_changed_cccd)
    service_changed_cccd                     0x000356c1   Thumb Code   112  gatt_cache_manager.o(i.service_changed_cccd)
    i.service_changed_needed                 0x00035734   Section        0  gatt_cache_manager.o(i.service_changed_needed)
    service_changed_needed                   0x00035735   Thumb Code    26  gatt_cache_manager.o(i.service_changed_needed)
    i.service_changed_pending_flags_check    0x00035754   Section        0  gatt_cache_manager.o(i.service_changed_pending_flags_check)
    service_changed_pending_flags_check      0x00035755   Thumb Code    16  gatt_cache_manager.o(i.service_changed_pending_flags_check)
    i.service_changed_pending_set            0x0003576c   Section        0  gatts_cache_manager.o(i.service_changed_pending_set)
    service_changed_pending_set              0x0003576d   Thumb Code   148  gatts_cache_manager.o(i.service_changed_pending_set)
    i.service_changed_send_in_evt            0x00035814   Section        0  gatt_cache_manager.o(i.service_changed_send_in_evt)
    service_changed_send_in_evt              0x00035815   Thumb Code   206  gatt_cache_manager.o(i.service_changed_send_in_evt)
    i.service_data_encode                    0x00035938   Section        0  ble_advdata.o(i.service_data_encode)
    service_data_encode                      0x00035939   Thumb Code   150  ble_advdata.o(i.service_data_encode)
    i.services_init                          0x000359d0   Section        0  main.o(i.services_init)
    services_init                            0x000359d1   Thumb Code    76  main.o(i.services_init)
    i.set_adv_mode_directed                  0x00035a2c   Section        0  ble_advertising.o(i.set_adv_mode_directed)
    set_adv_mode_directed                    0x00035a2d   Thumb Code    48  ble_advertising.o(i.set_adv_mode_directed)
    i.set_adv_mode_directed_high_duty        0x00035a5c   Section        0  ble_advertising.o(i.set_adv_mode_directed_high_duty)
    set_adv_mode_directed_high_duty          0x00035a5d   Thumb Code    36  ble_advertising.o(i.set_adv_mode_directed_high_duty)
    i.set_adv_mode_fast                      0x00035a80   Section        0  ble_advertising.o(i.set_adv_mode_fast)
    set_adv_mode_fast                        0x00035a81   Thumb Code    92  ble_advertising.o(i.set_adv_mode_fast)
    i.set_adv_mode_slow                      0x00035adc   Section        0  ble_advertising.o(i.set_adv_mode_slow)
    set_adv_mode_slow                        0x00035add   Thumb Code    92  ble_advertising.o(i.set_adv_mode_slow)
    i.set_security_req                       0x00035b38   Section        0  ble_srv_common.o(i.set_security_req)
    set_security_req                         0x00035b39   Thumb Code   190  ble_srv_common.o(i.set_security_req)
    i.shutdown_handler                       0x00035bf6   Section        0  main.o(i.shutdown_handler)
    shutdown_handler                         0x00035bf7   Thumb Code    66  main.o(i.shutdown_handler)
    i.sm_ble_evt_handler                     0x00035c38   Section        0  security_manager.o(i.sm_ble_evt_handler)
    i.sm_conn_sec_status_get                 0x00035c6c   Section        0  security_manager.o(i.sm_conn_sec_status_get)
    i.sm_pdb_evt_handler                     0x00035d08   Section        0  security_manager.o(i.sm_pdb_evt_handler)
    i.sm_sec_is_sufficient                   0x00035d60   Section        0  security_manager.o(i.sm_sec_is_sufficient)
    i.sm_smd_evt_handler                     0x00035d90   Section        0  security_manager.o(i.sm_smd_evt_handler)
    i.smd_ble_evt_handler                    0x00035dc2   Section        0  security_dispatcher.o(i.smd_ble_evt_handler)
    i.smd_link_secure                        0x00035e1a   Section        0  security_dispatcher.o(i.smd_link_secure)
    i.smd_params_reply                       0x00035e54   Section        0  security_dispatcher.o(i.smd_params_reply)
    i.smd_params_reply_perform               0x00035f14   Section        0  security_manager.o(i.smd_params_reply_perform)
    smd_params_reply_perform                 0x00035f15   Thumb Code    60  security_manager.o(i.smd_params_reply_perform)
    i.soc_evt_handler                        0x00035f54   Section        0  nrf_drv_clock.o(i.soc_evt_handler)
    soc_evt_handler                          0x00035f55   Thumb Code    22  nrf_drv_clock.o(i.soc_evt_handler)
    i.softdevice_evt_irq_disable             0x00035f70   Section        0  nrf_sdh.o(i.softdevice_evt_irq_disable)
    softdevice_evt_irq_disable               0x00035f71   Thumb Code    30  nrf_sdh.o(i.softdevice_evt_irq_disable)
    i.softdevices_evt_irq_enable             0x00035f8e   Section        0  nrf_sdh.o(i.softdevices_evt_irq_enable)
    softdevices_evt_irq_enable               0x00035f8f   Thumb Code    30  nrf_sdh.o(i.softdevices_evt_irq_enable)
    i.sorted_list_stop_all                   0x00035fac   Section        0  app_timer2.o(i.sorted_list_stop_all)
    sorted_list_stop_all                     0x00035fad   Thumb Code    20  app_timer2.o(i.sorted_list_stop_all)
    i.sortlist_pop                           0x00035fc0   Section        0  app_timer2.o(i.sortlist_pop)
    sortlist_pop                             0x00035fc1   Thumb Code    20  app_timer2.o(i.sortlist_pop)
    i.std_header_set                         0x00035fd8   Section        0  nrf_log_frontend.o(i.std_header_set)
    std_header_set                           0x00035fd9   Thumb Code    96  nrf_log_frontend.o(i.std_header_set)
    i.std_n                                  0x0003603c   Section        0  nrf_log_frontend.o(i.std_n)
    std_n                                    0x0003603d   Thumb Code   104  nrf_log_frontend.o(i.std_n)
    i.store_car_value                        0x000360ac   Section        0  gatt_cache_manager.o(i.store_car_value)
    i.string_print                           0x00036124   Section        0  nrf_fprintf_format.o(i.string_print)
    string_print                             0x00036125   Thumb Code   116  nrf_fprintf_format.o(i.string_print)
    i.ticks_sub                              0x00036198   Section        0  drv_rtc.o(i.ticks_sub)
    ticks_sub                                0x00036199   Thumb Code    10  drv_rtc.o(i.ticks_sub)
    i.timer_1ms_handle                       0x000361a4   Section        0  main.o(i.timer_1ms_handle)
    i.timer_expire                           0x000362b0   Section        0  app_timer2.o(i.timer_expire)
    timer_expire                             0x000362b1   Thumb Code    98  app_timer2.o(i.timer_expire)
    i.timer_init                             0x0003631c   Section        0  main.o(i.timer_init)
    timer_init                               0x0003631d   Thumb Code    28  main.o(i.timer_init)
    i.timer_req_process                      0x00036338   Section        0  app_timer2.o(i.timer_req_process)
    timer_req_process                        0x00036339   Thumb Code   130  app_timer2.o(i.timer_req_process)
    i.timer_req_schedule                     0x000363cc   Section        0  app_timer2.o(i.timer_req_schedule)
    timer_req_schedule                       0x000363cd   Thumb Code    56  app_timer2.o(i.timer_req_schedule)
    i.timestamp_print                        0x0003640c   Section        0  nrf_log_str_formatter.o(i.timestamp_print)
    timestamp_print                          0x0003640d   Thumb Code     2  nrf_log_str_formatter.o(i.timestamp_print)
    i.tx_blocking                            0x0003640e   Section        0  nrfx_uart.o(i.tx_blocking)
    tx_blocking                              0x0003640f   Thumb Code    54  nrfx_uart.o(i.tx_blocking)
    i.tx_byte                                0x00036444   Section        0  nrfx_uart.o(i.tx_byte)
    tx_byte                                  0x00036445   Thumb Code    38  nrfx_uart.o(i.tx_byte)
    i.tx_done_event                          0x0003646a   Section        0  nrfx_uart.o(i.tx_done_event)
    tx_done_event                            0x0003646b   Thumb Code    32  nrfx_uart.o(i.tx_done_event)
    i.tx_done_event                          0x0003648a   Section        0  nrfx_uarte.o(i.tx_done_event)
    tx_done_event                            0x0003648b   Thumb Code    32  nrfx_uarte.o(i.tx_done_event)
    i.tx_power_level_encode                  0x000364aa   Section        0  ble_advdata.o(i.tx_power_level_encode)
    tx_power_level_encode                    0x000364ab   Thumb Code    54  ble_advdata.o(i.tx_power_level_encode)
    i.uart_event_handle                      0x000364e0   Section        0  main.o(i.uart_event_handle)
    i.uart_event_handler                     0x000366e4   Section        0  app_uart_fifo.o(i.uart_event_handler)
    uart_event_handler                       0x000366e5   Thumb Code   200  app_uart_fifo.o(i.uart_event_handler)
    i.uart_evt_handler                       0x000367c8   Section        0  nrf_drv_uart.o(i.uart_evt_handler)
    uart_evt_handler                         0x000367c9   Thumb Code    46  nrf_drv_uart.o(i.uart_evt_handler)
    i.uart_init                              0x00036800   Section        0  main.o(i.uart_init)
    uart_init                                0x00036801   Thumb Code    74  main.o(i.uart_init)
    i.uart_irq_handler                       0x0003685c   Section        0  nrfx_uart.o(i.uart_irq_handler)
    uart_irq_handler                         0x0003685d   Thumb Code   334  nrfx_uart.o(i.uart_irq_handler)
    i.uarte_evt_handler                      0x000369ac   Section        0  nrf_drv_uart.o(i.uarte_evt_handler)
    uarte_evt_handler                        0x000369ad   Thumb Code    46  nrf_drv_uart.o(i.uarte_evt_handler)
    i.uarte_irq_handler                      0x000369e4   Section        0  nrfx_uarte.o(i.uarte_irq_handler)
    uarte_irq_handler                        0x000369e5   Thumb Code   308  nrfx_uarte.o(i.uarte_irq_handler)
    i.uint16_decode                          0x00036b18   Section        0  ble_srv_common.o(i.uint16_decode)
    uint16_decode                            0x00036b19   Thumb Code    12  ble_srv_common.o(i.uint16_decode)
    i.uint16_encode                          0x00036b24   Section        0  ble_advdata.o(i.uint16_encode)
    uint16_encode                            0x00036b25   Thumb Code    12  ble_advdata.o(i.uint16_encode)
    i.uninit                                 0x00036b30   Section        0  nrf_fstorage_sd.o(i.uninit)
    uninit                                   0x00036b31   Thumb Code    26  nrf_fstorage_sd.o(i.uninit)
    i.unsigned_print                         0x00036b54   Section        0  nrf_fprintf_format.o(i.unsigned_print)
    unsigned_print                           0x00036b55   Thumb Code   178  nrf_fprintf_format.o(i.unsigned_print)
    i.update_pending_flags_check             0x00036c0c   Section        0  gatt_cache_manager.o(i.update_pending_flags_check)
    update_pending_flags_check               0x00036c0d   Thumb Code    36  gatt_cache_manager.o(i.update_pending_flags_check)
    i.update_timeout_handler                 0x00036c40   Section        0  ble_conn_params.o(i.update_timeout_handler)
    update_timeout_handler                   0x00036c41   Thumb Code   110  ble_conn_params.o(i.update_timeout_handler)
    i.use_whitelist                          0x00036cb4   Section        0  ble_advertising.o(i.use_whitelist)
    use_whitelist                            0x00036cb5   Thumb Code    30  ble_advertising.o(i.use_whitelist)
    i.user_flag_is_acquired                  0x00036cd4   Section        0  ble_conn_state.o(i.user_flag_is_acquired)
    user_flag_is_acquired                    0x00036cd5   Thumb Code    14  ble_conn_state.o(i.user_flag_is_acquired)
    i.user_mem_reply                         0x00036ce8   Section        0  nrf_ble_qwr.o(i.user_mem_reply)
    user_mem_reply                           0x00036ce9   Thumb Code    44  nrf_ble_qwr.o(i.user_mem_reply)
    i.uuid_list_encode                       0x00036d14   Section        0  ble_advdata.o(i.uuid_list_encode)
    uuid_list_encode                         0x00036d15   Thumb Code    78  ble_advdata.o(i.uuid_list_encode)
    i.uuid_list_sized_encode                 0x00036d62   Section        0  ble_advdata.o(i.uuid_list_sized_encode)
    uuid_list_sized_encode                   0x00036d63   Thumb Code   214  ble_advdata.o(i.uuid_list_sized_encode)
    i.wait_for_flash_ready                   0x00036e38   Section        0  main.o(i.wait_for_flash_ready)
    i.wakeup_button_cfg                      0x00036e4a   Section        0  bsp.o(i.wakeup_button_cfg)
    wakeup_button_cfg                        0x00036e4b   Thumb Code    86  bsp.o(i.wakeup_button_cfg)
    i.whitelist_has_entries                  0x00036ea0   Section        0  ble_advertising.o(i.whitelist_has_entries)
    whitelist_has_entries                    0x00036ea1   Thumb Code     8  ble_advertising.o(i.whitelist_has_entries)
    i.wmap                                   0x00036ea8   Section        0  nrf_fstorage_sd.o(i.wmap)
    wmap                                     0x00036ea9   Thumb Code     6  nrf_fstorage_sd.o(i.wmap)
    i.write                                  0x00036eb0   Section        0  nrf_fstorage_sd.o(i.write)
    write                                    0x00036eb1   Thumb Code    80  nrf_fstorage_sd.o(i.write)
    i.write_buf_length_words_set             0x00036f04   Section        0  peer_database.o(i.write_buf_length_words_set)
    write_buf_length_words_set               0x00036f05   Thumb Code    56  peer_database.o(i.write_buf_length_words_set)
    i.write_buf_store                        0x00036f3c   Section        0  peer_database.o(i.write_buf_store)
    i.write_buf_store_in_event               0x0003709c   Section        0  peer_database.o(i.write_buf_store_in_event)
    write_buf_store_in_event                 0x0003709d   Thumb Code    98  peer_database.o(i.write_buf_store_in_event)
    i.write_buffer_record_acquire            0x0003710c   Section        0  peer_database.o(i.write_buffer_record_acquire)
    write_buffer_record_acquire              0x0003710d   Thumb Code    36  peer_database.o(i.write_buffer_record_acquire)
    i.write_buffer_record_find               0x00037130   Section        0  peer_database.o(i.write_buffer_record_find)
    write_buffer_record_find                 0x00037131   Thumb Code    76  peer_database.o(i.write_buffer_record_find)
    i.write_buffer_record_find_next          0x0003717c   Section        0  peer_database.o(i.write_buffer_record_find_next)
    write_buffer_record_find_next            0x0003717d   Thumb Code    46  peer_database.o(i.write_buffer_record_find_next)
    i.write_buffer_record_find_stored        0x000371b0   Section        0  peer_database.o(i.write_buffer_record_find_stored)
    write_buffer_record_find_stored          0x000371b1   Thumb Code    42  peer_database.o(i.write_buffer_record_find_stored)
    i.write_buffer_record_find_unused        0x000371e0   Section        0  peer_database.o(i.write_buffer_record_find_unused)
    write_buffer_record_find_unused          0x000371e1   Thumb Code    14  peer_database.o(i.write_buffer_record_find_unused)
    i.write_buffer_record_invalidate         0x000371ee   Section        0  peer_database.o(i.write_buffer_record_invalidate)
    write_buffer_record_invalidate           0x000371ef   Thumb Code    36  peer_database.o(i.write_buffer_record_invalidate)
    i.write_buffer_record_release            0x00037214   Section        0  peer_database.o(i.write_buffer_record_release)
    write_buffer_record_release              0x00037215   Thumb Code    36  peer_database.o(i.write_buffer_record_release)
    i.write_enqueue                          0x0003723c   Section        0  fds.o(i.write_enqueue)
    write_enqueue                            0x0003723d   Thumb Code   224  fds.o(i.write_enqueue)
    i.write_execute                          0x00037324   Section        0  nrf_fstorage_sd.o(i.write_execute)
    write_execute                            0x00037325   Thumb Code    82  nrf_fstorage_sd.o(i.write_execute)
    i.write_execute                          0x0003737c   Section        0  fds.o(i.write_execute)
    write_execute                            0x0003737d   Thumb Code   188  fds.o(i.write_execute)
    i.write_space_free                       0x00037444   Section        0  fds.o(i.write_space_free)
    write_space_free                         0x00037445   Thumb Code    32  fds.o(i.write_space_free)
    i.write_space_reserve                    0x00037468   Section        0  fds.o(i.write_space_reserve)
    write_space_reserve                      0x00037469   Thumb Code   118  fds.o(i.write_space_reserve)
    .constdata                               0x000374f0   Section       86  main.o(.constdata)
    m_ble_gatt_queuereq_queue                0x000374f0   Data          20  main.o(.constdata)
    m_nus_uuid                               0x00037504   Data           4  main.o(.constdata)
    m_target_periph_name                     0x00037508   Data          13  main.o(.constdata)
    m_target_periph_addr                     0x00037515   Data           7  main.o(.constdata)
    my_timer                                 0x0003751c   Data           4  main.o(.constdata)
    delay_machine_code                       0x00037520   Data           6  main.o(.constdata)
    .constdata                               0x00037546   Section        8  boards.o(.constdata)
    m_board_led_list                         0x00037546   Data           4  boards.o(.constdata)
    m_board_btn_list                         0x0003754a   Data           4  boards.o(.constdata)
    .constdata                               0x00037550   Section       44  bsp.o(.constdata)
    m_bsp_leds_tmr                           0x00037550   Data           4  bsp.o(.constdata)
    m_bsp_alert_tmr                          0x00037554   Data           4  bsp.o(.constdata)
    m_bsp_button_tmr                         0x00037558   Data           4  bsp.o(.constdata)
    app_buttons                              0x0003755c   Data          32  bsp.o(.constdata)
    .constdata                               0x0003757c   Section      124  ble_db_discovery.o(.constdata)
    .constdata                               0x000375f8   Section       22  nrf_ble_gatt.o(.constdata)
    .constdata                               0x00037610   Section       24  nrf_ble_gq.o(.constdata)
    m_req_data_alloc                         0x00037610   Data          24  nrf_ble_gq.o(.constdata)
    .constdata                               0x00037628   Section       24  peer_data_storage.o(.constdata)
    m_evt_handlers                           0x00037628   Data           4  peer_data_storage.o(.constdata)
    .constdata                               0x00037640   Section       16  peer_database.o(.constdata)
    m_evt_handlers                           0x00037640   Data          16  peer_database.o(.constdata)
    .constdata                               0x00037650   Section      140  security_dispatcher.o(.constdata)
    m_evt_handlers                           0x00037650   Data           4  security_dispatcher.o(.constdata)
    __func__                                 0x000376b8   Data          16  security_dispatcher.o(.constdata)
    .constdata                               0x000376dc   Section        5  security_manager.o(.constdata)
    m_evt_handlers                           0x000376dc   Data           4  security_manager.o(.constdata)
    .constdata                               0x000376e4   Section      108  gatt_cache_manager.o(.constdata)
    car_value_true                           0x0003772c   Data           4  gatt_cache_manager.o(.constdata)
    car_value_false                          0x00037730   Data           4  gatt_cache_manager.o(.constdata)
    .constdata                               0x00037750   Section       24  gatts_cache_manager.o(.constdata)
    service_changed_pending                  0x00037750   Data           4  gatts_cache_manager.o(.constdata)
    service_changed_pending                  0x0003775c   Data           4  gatts_cache_manager.o(.constdata)
    .constdata                               0x00037768   Section        8  id_manager.o(.constdata)
    m_evt_handlers                           0x00037768   Data           8  id_manager.o(.constdata)
    .constdata                               0x00037770   Section       16  ble_nus_c.o(.constdata)
    .constdata                               0x00037780   Section       16  ble_nus.o(.constdata)
    .constdata                               0x00037790   Section       62  nrfx_gpiote.o(.constdata)
    __func__                                 0x00037794   Data          17  nrfx_gpiote.o(.constdata)
    __func__                                 0x000377a5   Data          21  nrfx_gpiote.o(.constdata)
    __func__                                 0x000377ba   Data          20  nrfx_gpiote.o(.constdata)
    .constdata                               0x000377d0   Section       46  nrfx_uart.o(.constdata)
    __func__                                 0x000377d0   Data          15  nrfx_uart.o(.constdata)
    irq_handlers                             0x000377e0   Data           4  nrfx_uart.o(.constdata)
    __func__                                 0x000377e4   Data          13  nrfx_uart.o(.constdata)
    __func__                                 0x000377f1   Data          13  nrfx_uart.o(.constdata)
    .constdata                               0x00037800   Section       48  nrfx_uarte.o(.constdata)
    __func__                                 0x00037800   Data          16  nrfx_uarte.o(.constdata)
    irq_handlers                             0x00037810   Data           4  nrfx_uarte.o(.constdata)
    __func__                                 0x00037814   Data          14  nrfx_uarte.o(.constdata)
    __func__                                 0x00037822   Data          14  nrfx_uarte.o(.constdata)
    .constdata                               0x00037830   Section       20  app_timer2.o(.constdata)
    m_req_fifo                               0x00037830   Data           4  app_timer2.o(.constdata)
    m_app_timer_sortlist                     0x00037834   Data          12  app_timer2.o(.constdata)
    .constdata                               0x00037844   Section       32  app_uart_fifo.o(.constdata)
    .constdata                               0x00037870   Section        6  drv_rtc.o(.constdata)
    delay_machine_code                       0x00037870   Data           6  drv_rtc.o(.constdata)
    .constdata                               0x00037876   Section       16  nrf_fprintf_format.o(.constdata)
    _aV2C                                    0x00037876   Data          16  nrf_fprintf_format.o(.constdata)
    .constdata                               0x00037888   Section       36  nrf_pwr_mgmt.o(.constdata)
    pwr_mgmt_data_array                      0x00037888   Data          24  nrf_pwr_mgmt.o(.constdata)
    pwr_mgmt_data                            0x000378a0   Data          12  nrf_pwr_mgmt.o(.constdata)
    .constdata                               0x000378ac   Section      316  nrf_strerror.o(.constdata)
    m_unknown_str                            0x000378ac   Data          19  nrf_strerror.o(.constdata)
    nrf_strerror_array                       0x000378c0   Data         296  nrf_strerror.o(.constdata)
    .constdata                               0x000379e8   Section       94  nrf_fstorage.o(.constdata)
    __func__                                 0x000379e8   Data          18  nrf_fstorage.o(.constdata)
    __func__                                 0x000379fa   Data          20  nrf_fstorage.o(.constdata)
    __func__                                 0x00037a0e   Data          18  nrf_fstorage.o(.constdata)
    __func__                                 0x00037a20   Data          19  nrf_fstorage.o(.constdata)
    __func__                                 0x00037a33   Data          19  nrf_fstorage.o(.constdata)
    .constdata                               0x00037a48   Section       48  nrf_fstorage_sd.o(.constdata)
    m_flash_info                             0x00037a48   Data          12  nrf_fstorage_sd.o(.constdata)
    m_fifo                                   0x00037a54   Data           4  nrf_fstorage_sd.o(.constdata)
    .constdata                               0x00037a78   Section       24  fds.o(.constdata)
    m_queue                                  0x00037a78   Data           4  fds.o(.constdata)
    page_tag_swap                            0x00037a7c   Data           8  fds.o(.constdata)
    page_tag_data                            0x00037a84   Data           8  fds.o(.constdata)
    dirty_header                             0x00037a8c   Data           4  fds.o(.constdata)
    .constdata                               0x00037a90   Section       22  nrf_log_backend_rtt.o(.constdata)
    delay_machine_code                       0x00037aa0   Data           6  nrf_log_backend_rtt.o(.constdata)
    .constdata                               0x00037aa8   Section       12  nrf_log_frontend.o(.constdata)
    m_log_push_ringbuf                       0x00037aa8   Data          12  nrf_log_frontend.o(.constdata)
    .constdata                               0x00037ab4   Section       88  nrf_sdh.o(.constdata)
    sdh_req_observers_array                  0x00037ab4   Data          16  nrf_sdh.o(.constdata)
    sdh_req_observers                        0x00037ac4   Data          12  nrf_sdh.o(.constdata)
    sdh_state_observers_array                0x00037ad0   Data          16  nrf_sdh.o(.constdata)
    sdh_state_observers                      0x00037ae0   Data          12  nrf_sdh.o(.constdata)
    sdh_stack_observers_array                0x00037aec   Data          16  nrf_sdh.o(.constdata)
    sdh_stack_observers                      0x00037afc   Data          12  nrf_sdh.o(.constdata)
    .constdata                               0x00037b0c   Section       48  nrf_sdh_ble.o(.constdata)
    sdh_ble_observers_array                  0x00037b0c   Data          32  nrf_sdh_ble.o(.constdata)
    sdh_ble_observers                        0x00037b2c   Data          12  nrf_sdh_ble.o(.constdata)
    .constdata                               0x00037b3c   Section       28  nrf_sdh_soc.o(.constdata)
    sdh_soc_observers_array                  0x00037b3c   Data          16  nrf_sdh_soc.o(.constdata)
    sdh_soc_observers                        0x00037b4c   Data          12  nrf_sdh_soc.o(.constdata)
    .constdata                               0x00037b58   Section      129  ctype_o.o(.constdata)
    .constdata                               0x00037bdc   Section        4  ctype_o.o(.constdata)
    table                                    0x00037bdc   Data           4  ctype_o.o(.constdata)
    .conststring                             0x00037be0   Section      643  main.o(.conststring)
    .conststring                             0x00037e64   Section      396  ble_db_discovery.o(.conststring)
    .conststring                             0x00037ff0   Section      318  nrf_ble_gatt.o(.conststring)
    .conststring                             0x00038130   Section      286  nrf_ble_gq.o(.conststring)
    .conststring                             0x00038250   Section       72  peer_manager.o(.conststring)
    .conststring                             0x00038298   Section      164  peer_data_storage.o(.conststring)
    .conststring                             0x0003833c   Section      384  peer_database.o(.conststring)
    .conststring                             0x000384bc   Section      774  security_dispatcher.o(.conststring)
    .conststring                             0x000387c4   Section      379  security_manager.o(.conststring)
    .conststring                             0x00038940   Section      308  gatt_cache_manager.o(.conststring)
    .conststring                             0x00038a74   Section      412  gatts_cache_manager.o(.conststring)
    .conststring                             0x00038c10   Section     1003  nrf_strerror.o(.conststring)
    .conststring                             0x00038ffc   Section       79  nrf_fstorage.o(.conststring)
    .conststring                             0x0003904c   Section      102  nrf_log_str_formatter.o(.conststring)
    .conststring                             0x000390b4   Section      463  nrf_sdh_ble.o(.conststring)
    .conststrlit                             0x00039284   Section       12  ble_db_discovery.o(.conststrlit)
    .conststrlit                             0x00039290   Section       13  nrf_ble_gatt.o(.conststrlit)
    .conststrlit                             0x000392a0   Section       11  nrf_ble_gq.o(.conststrlit)
    .conststrlit                             0x000392ac   Section        9  nrf_ble_scan.o(.conststrlit)
    .conststrlit                             0x000392b8   Section       13  peer_manager.o(.conststrlit)
    .conststrlit                             0x000392c8   Section       21  peer_manager_handler.o(.conststrlit)
    .conststrlit                             0x000392e0   Section       17  peer_data_storage.o(.conststrlit)
    .conststrlit                             0x000392f4   Section       17  peer_database.o(.conststrlit)
    .conststrlit                             0x00039308   Section       17  security_dispatcher.o(.conststrlit)
    .conststrlit                             0x0003931c   Section       16  security_manager.o(.conststrlit)
    .conststrlit                             0x0003932c   Section       17  gatt_cache_manager.o(.conststrlit)
    .conststrlit                             0x00039340   Section       18  gatts_cache_manager.o(.conststrlit)
    .conststrlit                             0x00039354   Section       16  id_manager.o(.conststrlit)
    .conststrlit                             0x00039364   Section       10  ble_nus_c.o(.conststrlit)
    .conststrlit                             0x00039370   Section        8  ble_nus.o(.conststrlit)
    .conststrlit                             0x00039378   Section        6  nrf_drv_clock.o(.conststrlit)
    .conststrlit                             0x00039380   Section        6  nrfx_clock.o(.conststrlit)
    .conststrlit                             0x00039388   Section        7  nrfx_gpiote.o(.conststrlit)
    .conststrlit                             0x00039390   Section        4  nrfx_prs.o(.conststrlit)
    .conststrlit                             0x00039394   Section        5  nrfx_uart.o(.conststrlit)
    .conststrlit                             0x0003939c   Section        6  nrfx_uarte.o(.conststrlit)
    .conststrlit                             0x000393a4   Section        6  nrfx_timer.o(.conststrlit)
    .conststrlit                             0x000393ac   Section       10  app_timer2.o(.conststrlit)
    .conststrlit                             0x000393b8   Section        9  nrf_pwr_mgmt.o(.conststrlit)
    .conststrlit                             0x000393c4   Section        9  nrf_sortlist.o(.conststrlit)
    .conststrlit                             0x000393d0   Section       13  nrf_fstorage.o(.conststrlit)
    .conststrlit                             0x000393e0   Section       11  app_button.o(.conststrlit)
    .conststrlit                             0x000393ec   Section       16  nrf_log_default_backends.o(.conststrlit)
    .conststrlit                             0x000393fc   Section        4  nrf_log_frontend.o(.conststrlit)
    .conststrlit                             0x00039400   Section        8  nrf_sdh.o(.conststrlit)
    .conststrlit                             0x00039408   Section       12  nrf_sdh_ble.o(.conststrlit)
    .conststrlit                             0x00039414   Section       12  nrf_sdh_soc.o(.conststrlit)
    log_backends                             0x00039440   Section       16  nrf_log_default_backends.o(log_backends)
    __tagsym$$used                           0x00039440   Number         0  nrf_log_default_backends.o(log_backends)
    rtt_log_backend                          0x00039440   Data          16  nrf_log_default_backends.o(log_backends)
    log_const_data                           0x00039450   Section        8  ble_db_discovery.o(log_const_data)
    __tagsym$$used                           0x00039450   Number         0  ble_db_discovery.o(log_const_data)
    log_const_data                           0x00039458   Section        8  nrf_ble_gatt.o(log_const_data)
    __tagsym$$used                           0x00039458   Number         0  nrf_ble_gatt.o(log_const_data)
    log_const_data                           0x00039460   Section        8  nrf_ble_gq.o(log_const_data)
    __tagsym$$used                           0x00039460   Number         0  nrf_ble_gq.o(log_const_data)
    log_const_data                           0x00039468   Section        8  nrf_ble_scan.o(log_const_data)
    __tagsym$$used                           0x00039468   Number         0  nrf_ble_scan.o(log_const_data)
    log_const_data                           0x00039470   Section        8  peer_manager.o(log_const_data)
    __tagsym$$used                           0x00039470   Number         0  peer_manager.o(log_const_data)
    log_const_data                           0x00039478   Section        8  peer_manager_handler.o(log_const_data)
    __tagsym$$used                           0x00039478   Number         0  peer_manager_handler.o(log_const_data)
    log_const_data                           0x00039480   Section        8  peer_data_storage.o(log_const_data)
    __tagsym$$used                           0x00039480   Number         0  peer_data_storage.o(log_const_data)
    log_const_data                           0x00039488   Section        8  peer_database.o(log_const_data)
    __tagsym$$used                           0x00039488   Number         0  peer_database.o(log_const_data)
    log_const_data                           0x00039490   Section        8  security_dispatcher.o(log_const_data)
    __tagsym$$used                           0x00039490   Number         0  security_dispatcher.o(log_const_data)
    log_const_data                           0x00039498   Section        8  security_manager.o(log_const_data)
    __tagsym$$used                           0x00039498   Number         0  security_manager.o(log_const_data)
    log_const_data                           0x000394a0   Section        8  gatt_cache_manager.o(log_const_data)
    __tagsym$$used                           0x000394a0   Number         0  gatt_cache_manager.o(log_const_data)
    log_const_data                           0x000394a8   Section        8  gatts_cache_manager.o(log_const_data)
    __tagsym$$used                           0x000394a8   Number         0  gatts_cache_manager.o(log_const_data)
    log_const_data                           0x000394b0   Section        8  id_manager.o(log_const_data)
    __tagsym$$used                           0x000394b0   Number         0  id_manager.o(log_const_data)
    log_const_data                           0x000394b8   Section        8  ble_nus_c.o(log_const_data)
    __tagsym$$used                           0x000394b8   Number         0  ble_nus_c.o(log_const_data)
    log_const_data                           0x000394c0   Section        8  ble_nus.o(log_const_data)
    __tagsym$$used                           0x000394c0   Number         0  ble_nus.o(log_const_data)
    log_const_data                           0x000394c8   Section        8  nrf_drv_clock.o(log_const_data)
    __tagsym$$used                           0x000394c8   Number         0  nrf_drv_clock.o(log_const_data)
    log_const_data                           0x000394d0   Section        8  nrfx_clock.o(log_const_data)
    __tagsym$$used                           0x000394d0   Number         0  nrfx_clock.o(log_const_data)
    log_const_data                           0x000394d8   Section        8  nrfx_gpiote.o(log_const_data)
    __tagsym$$used                           0x000394d8   Number         0  nrfx_gpiote.o(log_const_data)
    log_const_data                           0x000394e0   Section        8  nrfx_prs.o(log_const_data)
    __tagsym$$used                           0x000394e0   Number         0  nrfx_prs.o(log_const_data)
    log_const_data                           0x000394e8   Section        8  nrfx_uart.o(log_const_data)
    __tagsym$$used                           0x000394e8   Number         0  nrfx_uart.o(log_const_data)
    log_const_data                           0x000394f0   Section        8  nrfx_uarte.o(log_const_data)
    __tagsym$$used                           0x000394f0   Number         0  nrfx_uarte.o(log_const_data)
    log_const_data                           0x000394f8   Section        8  nrfx_timer.o(log_const_data)
    __tagsym$$used                           0x000394f8   Number         0  nrfx_timer.o(log_const_data)
    log_const_data                           0x00039500   Section        8  app_timer2.o(log_const_data)
    __tagsym$$used                           0x00039500   Number         0  app_timer2.o(log_const_data)
    log_const_data                           0x00039508   Section        8  nrf_pwr_mgmt.o(log_const_data)
    __tagsym$$used                           0x00039508   Number         0  nrf_pwr_mgmt.o(log_const_data)
    log_const_data                           0x00039510   Section        8  nrf_sortlist.o(log_const_data)
    __tagsym$$used                           0x00039510   Number         0  nrf_sortlist.o(log_const_data)
    log_const_data                           0x00039518   Section        8  nrf_fstorage.o(log_const_data)
    __tagsym$$used                           0x00039518   Number         0  nrf_fstorage.o(log_const_data)
    log_const_data                           0x00039520   Section        8  app_button.o(log_const_data)
    __tagsym$$used                           0x00039520   Number         0  app_button.o(log_const_data)
    log_const_data                           0x00039528   Section        8  nrf_log_frontend.o(log_const_data)
    __tagsym$$used                           0x00039528   Number         0  nrf_log_frontend.o(log_const_data)
    log_const_data                           0x00039530   Section        8  nrf_sdh.o(log_const_data)
    __tagsym$$used                           0x00039530   Number         0  nrf_sdh.o(log_const_data)
    log_const_data                           0x00039538   Section        8  nrf_sdh_ble.o(log_const_data)
    __tagsym$$used                           0x00039538   Number         0  nrf_sdh_ble.o(log_const_data)
    log_const_data                           0x00039540   Section        8  nrf_sdh_soc.o(log_const_data)
    __tagsym$$used                           0x00039540   Number         0  nrf_sdh_soc.o(log_const_data)
    nrf_balloc                               0x00039548   Section       20  main.o(nrf_balloc)
    __tagsym$$used                           0x00039548   Number         0  main.o(nrf_balloc)
    nrf_balloc                               0x0003955c   Section       20  nrf_log_frontend.o(nrf_balloc)
    __tagsym$$used                           0x0003955c   Number         0  nrf_log_frontend.o(nrf_balloc)
    nrf_queue                                0x00039570   Section       20  main.o(nrf_queue)
    __tagsym$$used                           0x00039570   Number         0  main.o(nrf_queue)
    pwr_mgmt_data1                           0x00039584   Section        4  main.o(pwr_mgmt_data1)
    __tagsym$$used                           0x00039584   Number         0  main.o(pwr_mgmt_data1)
    shutdown_handler_handler_function        0x00039584   Data           4  main.o(pwr_mgmt_data1)
    sdh_ble_observers0                       0x00039588   Section        8  ble_conn_state.o(sdh_ble_observers0)
    __tagsym$$used                           0x00039588   Number         0  ble_conn_state.o(sdh_ble_observers0)
    m_ble_evt_observer                       0x00039588   Data           8  ble_conn_state.o(sdh_ble_observers0)
    sdh_ble_observers1                       0x00039590   Section       40  main.o(sdh_ble_observers1)
    __tagsym$$used                           0x00039590   Number         0  main.o(sdh_ble_observers1)
    m_gatt_obs                               0x00039590   Data           8  main.o(sdh_ble_observers1)
    __tagsym$$used                           0x00039598   Number         0  main.o(sdh_ble_observers1)
    m_db_disc_obs                            0x00039598   Data           8  main.o(sdh_ble_observers1)
    __tagsym$$used                           0x000395a0   Number         0  main.o(sdh_ble_observers1)
    m_scan_ble_obs                           0x000395a0   Data           8  main.o(sdh_ble_observers1)
    __tagsym$$used                           0x000395a8   Number         0  main.o(sdh_ble_observers1)
    m_ble_gatt_queue_obs                     0x000395a8   Data           8  main.o(sdh_ble_observers1)
    __tagsym$$used                           0x000395b0   Number         0  main.o(sdh_ble_observers1)
    m_advertising_ble_obs                    0x000395b0   Data           8  main.o(sdh_ble_observers1)
    sdh_ble_observers1                       0x000395b8   Section        8  bsp_btn_ble.o(sdh_ble_observers1)
    __tagsym$$used                           0x000395b8   Number         0  bsp_btn_ble.o(sdh_ble_observers1)
    m_ble_observer                           0x000395b8   Data           8  bsp_btn_ble.o(sdh_ble_observers1)
    sdh_ble_observers1                       0x000395c0   Section        8  ble_conn_params.o(sdh_ble_observers1)
    __tagsym$$used                           0x000395c0   Number         0  ble_conn_params.o(sdh_ble_observers1)
    m_ble_observer                           0x000395c0   Data           8  ble_conn_params.o(sdh_ble_observers1)
