:020000040002F8
:10600000187C0020C1630200C9630200CB63020058
:10601000CD630200CF630200D163020000000000E4
:10602000000000000000000000000000D363020038
:10603000D563020000000000D7630200D9630200AC
:10604000BD660200DB6302005D6A0200DB630200E2
:10605000DB6302000000000001660200DB63020057
:106060002D6A0200456A0200DB630200DB63020066
:10607000DB630200DB630200DB630200DB63020020
:10608000DB63020005670200DB6302000000000022
:10609000DB630200DB630200A9670200DB6302002E
:1060A000DB630200DB630200000000000000000070
:1060B00000000000000000000000000000000000E0
:1060C00000000000000000000000000000000000D0
:1060D00000000000000000000000000000000000C0
:1060E00000000000000000000000000000000000B0
:1060F00000000000000000000000000000000000A0
:10610000000000000000000000000000000000008F
:10611000000000000000000000000000000000007F
:10612000000000000000000000000000000000006F
:10613000000000000000000000000000000000005F
:10614000000000000000000000000000000000004F
:10615000000000000000000000000000000000003F
:10616000000000000000000000000000000000002F
:10617000000000000000000000000000000000001F
:10618000000000000000000000000000000000000F
:1061900000000000000000000000000000000000FF
:1061A00000000000000000000000000000000000EF
:1061B00000000000000000000000000000000000DF
:1061C00000000000000000000000000000000000CF
:1061D00000000000000000000000000000000000BF
:1061E00000000000000000000000000000000000AF
:1061F000000000000000000000000000000000009F
:10620000DFF80CD000F0BEF90048004711D80200BA
:10621000187C002030B450E8012F93B2C489234485
:106220008489A34228BF1B1B0489A34202BFBFF37A
:106230002F8F002007E0C3EA020340E80134002C5E
:10624000E9D14FF001000A6030BC704750E8012FDF
:10625000C2EA024240E801210029F7D1704730B478
:1062600050E8022F1FFAA2F3C488A34202BFBFF373
:106270002F8F00200DE0C48923448489A34228BFC6
:106280001B1BC2EA034340E80234002CE8D14FF064
:1062900001000A6030BC704750E8022FC2EA224277
:1062A00040E802210029F7D17047034653E8022F46
:1062B000D988B2EB324F4FF0000017BF92B241EADB
:1062C000014142EA014104E05A68B2EB324F08BF93
:1062D000012043E80212002AE8D1704730B4044696
:1062E00054E8000F0D4644E80053002BF8D1156028
:1062F00030BC704730B4044654E8000F40EA010552
:1063000044E80053002BF7D1156030BC704730B41F
:10631000044654E8000F00EA010544E80053002B4E
:10632000F7D1156030BC704730B4044654E8000F14
:1063300080EA010544E80053002BF7D1156030BC1A
:10634000704730B4044654E8000F00EB010544E800
:106350000053002BF7D1156030BC704730B40446B1
:1063600054E8000FA0EB010544E80053002BF7D1DF
:10637000156030BC704770B404464FF0000054E81C
:10638000006F0D68AE4207BF44E80023012044E8D7
:1063900000630E60002B1CBF0020F0E770BC70474C
:1063A00030B4044654E8000F88422CBF451A054615
:1063B00044E80053002BF5D1156030BC7047000055
:1063C0000648804706480047FEE7FEE7FEE7FEE78F
:1063D000FEE7FEE7FEE7FEE7FEE7FEE7C167020035
:1063E000016202002DE9F05F0546002092469B46BF
:1063F00088460646814640241BE0284641464746DB
:10640000224600F0AFF853465A46C01A914110D3C5
:1064100011461846224600F016F82D1A67EB0108BF
:106420004F4622460120002100F00DF817EB00092D
:106430004E41201EA4F10104DFDC484631462A46C5
:106440004346BDE8F09F202A04DB203A00FA02F11F
:10645000002070479140C2F1200320FA03F3194352
:106460009040704700487047DC7B030040EA01031E
:106470009B0703D009E008C9121F08C0042AFAD2FA
:1064800003E011F8013B00F8013B521EF9D27047BE
:10649000D2B201E000F8012B491EFBD27047002266
:1064A000F6E710B513460A4604461946FFF7F0FF13
:1064B000204610BD421E12F8013F002BFBD111F8FF
:1064C000013B02F8013B002BF9D1704730B505467E
:1064D0002A460B4612F8010B13F8014B08B1A042F3
:1064E000F8D01CB1002802D06D1CF1E7284630BD61
:1064F000421C10F8011B0029FBD1801A704710B50F
:10650000002200E0521C835C8C5CA34201D1002B72
:10651000F8D1D8B2E1B2401A10BD30B5044600201F
:10652000034600E05B1C934203D2E05CCD5C401B61
:10653000F8D030BD034611F8012B00F8012B002ADA
:10654000F9D11846704730B505460020034600E0F3
:106550005B1C934205D2EC5CC85C201A01D1002C74
:10656000F6D130BD202A04DB203A21FA02F00021C6
:10657000704721FA02F3D040C2F120029140084353
:1065800019467047064C074D06E0E06840F00103ED
:1065900094E8070098471034AC42F6D3FFF734FE76
:1065A000209403004094030070B58C1810F8015B30
:1065B00015F0070301D110F8013B2A1106D110F89C
:1065C000012B03E010F8016B01F8016B5B1EF9D1A0
:1065D0002B0705D40023521E0DD401F8013BFAE726
:1065E00010F8013BCB1A921C03E013F8015B01F891
:1065F000015B521EF9D5A142D8D3002070BD000026
:106600002DE9F84F0026002000904FF480770125F7
:10661000002410E0384609F001FC40B100BF2548D5
:106620000068284018B1384609F0EAFB2E436D0097
:10663000381D87B2641C082CECD34FF4BE7009F0EF
:10664000EDFB50B14FF4BE7009F0DAFB46F00046A6
:106650006A460121002009F07FFBF0B210B301254A
:1066600000241DE005EA0600C0B100BF124850F842
:106670002400C0F30420814600BF0F4850F82400D6
:10668000C0F301408246204603F07CFE8046B8F10C
:10669000000F02D051464846C04700BF6D00641C41
:1066A000082CDFD306F0004010B168460DF076F9F3
:1066B000BDE8F88F046300401065004010B54FF44A
:1066C000807008F0FBFC50B14FF4807008F0FFFCC4
:1066D000012008F005FD0A480168002088474FF4B2
:1066E000827008F0EBFC50B14FF4827008F0EFFCC0
:1066F000022008F0F5FC024801680120884710BD1F
:106700000C41002010B5034A1068034A11688847FD
:1067100010BD0000644100206041002010B500F071
:10672000A5F910BD2DE9F047074688461646C24632
:1067300007EB47011B4800EBC109D9F8140020B151
:10674000012811D0022826D11EE0484600F0C6F9E3
:106750000546B54201D2002405E034463246514692
:10676000484600F002FA18E0484600F0B7F905463E
:10677000B54201D2284600E0304604462246514642
:10678000484600F0F2F908E032465146484600F02B
:10679000B3F9044601E0002400BF00BF2046BDE875
:1067A000F0870000A859002010B50AF0B7FB10BD13
:1067B00001480249086070470090D0031C42002045
:1067C00010B507F095FA28B189480088C0F3042075
:1067D0008849086007F0F0FA10B187488749486790
:1067E00007F05EFB30B18248E0380068C0F3423009
:1067F0008349086007F08AFB28B18248006820F0CE
:1068000080708049086007F0A3FB48B100207E49F2
:1068100008604FF08041C1F810017949091F0860F4
:1068200007F0CCFB18B1032075496431086007F00C
:10683000E7FB68B10520754908600120734978318C
:10684000086000207149083108603F20091F086076
:1068500007F0F8FB002855D06548E03000686C4927
:1068600008606348E4300068091D08606048E8304B
:106870000068091D08605E48EC300068091D08606A
:106880005B48F0300068091D08605948F430006822
:10689000091D08605648F83000685D4920310860DD
:1068A0005348FC300068091D08605A480068091DFB
:1068B00008605848001D0068091D086055480830E8
:1068C0000068091D086053480C300068091D086005
:1068D0005048103000684E49403108604D4814302F
:1068E0000068091D08604B4818300068091D0860E1
:1068F00048481C300068091D086046482030006880
:10690000091D086007F0C6F930B13948CC38006875
:1069100000F04F004049086007F018FA40B13F48C6
:10692000006800F0010018B16FF001003B490860F9
:1069300007F064FA28B13A48006840F480603849AA
:10694000086007F07BFA28B13348006840F00F0078
:106950003149086000BF07F083FA20B13148006870
:1069600027491C31086000BF2E480838006800F035
:10697000004028B92B48001F006800F0004090B389
:1069800001200BF0D1F815202649083908600BF0DA
:10699000D5F815214FF01020C0F804120BF0CEF8F6
:1069A00000200BF0C1F800BF00BF00BF00BF00BF58
:1069B000BFF34F8F00BF00BF00BF1248F038006820
:1069C00000F4E06018490843001D0E49F0390860E2
:1069D00000BF00BF00BFBFF34F8F00BF00BF00BFAD
:1069E00000BF00BFFDE7FFE7FFF7E2FE10BD0000BC
:1069F00024030010403501400DF0ADBA00C007403F
:106A00003C050040FCED00E00C0100401056004049
:106A100020C5004024040010E40E004000040040A3
:106A20003C170040081200100000FA0510B50422BF
:106A30000249034806F0DDFA10BD00008051002035
:106A40000080004010B504220249034806F0D1FA44
:106A500010BD00008C5100200090004010B502498C
:106A60000868804710BD00001441002010B5124C8A
:106A700002202061606111A0A0611349E1614FF41F
:106A8000007121620021A1626162E1620BA0A06439
:106A90000E49E164102121650021A1656165E16570
:106AA0000BA1E01DFFF746FD0AA12046FFF742FDBE
:106AB0002020A07110BD0000905900205465726D17
:106AC000696E616C00000000085A0020085C00201C
:106AD00052545400534547474552000010B50146F3
:106AE0000A69CB689A4204D88C68641EE41AA0181C
:106AF00001E0D41A601E10BD2DE9F0470446894616
:106B000017464FF0000AE56800BFD4F81080A8458A
:106B100003D9A8EB0500461E04E0A5EB0800401CC5
:106B2000A1680E1AA068401BB04201D9304601E0AE
:106B3000A068401B0646BE4201D2304600E03846FF
:106B400006466168481932464946FFF78FFCB24451
:106B5000B144BF1B3544A068A84200D10025E560C0
:106B6000002FD2D15046BDE8F0872DE9F04704460A
:106B700089461546E668A068871BAF4208D9616858
:106B800088192A464946FFF771FC7019E06010E049
:106B9000B8466168881942464946FFF767FCA5EB8D
:106BA000070809EB070142466068FFF75FFCC4F87D
:106BB0000C80BDE8F08700000FB4054B10B503A9A9
:106BC000044A029800F03AF810BC5DF814FB00008B
:106BD00093BA02007841002002E008C8121F08C1E1
:106BE000002AFAD170477047002001E001C1121F4E
:106BF000002AFBD1704700000146202908DA012055
:106C000088400A4A104008B1012070470020FCE784
:106C1000402909DAA1F12000012202FA00F008B1AE
:106C20000120F2E70020F0E70120EEE7FC06FFBDBF
:106C300000BFEFF31081084672B670472DE9FF4F91
:106C40008DB00F460546002606E025280BD0DDE96D
:106C50000F1290476D1C761C28780028F5D111B0D2
:106C60003046BDE8F08F0024A246A1460122EC493F
:106C700000E0044315F8013F203B02FA03F008420C
:106C8000F7D128782A2810D06FF02F022878A0F1A9
:106C90003001092914D80AEB8A0102EB410144F0C2
:106CA000020400EB010A6D1CF0E701CF5FEA000A65
:106CB00003D544F40054CAF1000A44F002046D1CE8
:106CC00028782E2817D115F8010F44F004042A283B
:106CD0000ED06FF02F022878A0F1300109290AD8D0
:106CE00009EB890102EB410100EB01096D1CF2E7A0
:106CF00057F8049B6D1C28786C280FD006DC4C28B4
:106D000017D068280DD06A2814D104E0742810D058
:106D10007A280FD10DE044F400140AE044F4801402
:106D200001E044F440146978814202D104F58014F2
:106D30006D1C6D1C2A786E2A1FD00CDC632A31D0A2
:106D400004DC002A8BD0582A11D1A3E0642A68D031
:106D5000692A0CD165E0732A2ED004DC6F2A73D027
:106D6000702A04D19BE0752A6FD0782A6ED0104625
:106D7000DDE90F129047761C50E1C4F3025002285F
:106D800006D0032809D0042801CF09D0066045E1C8
:106D900001CFF117C0E9006140E101CF06803DE17C
:106DA00006703BE117F8040B8DF8000000208DF809
:106DB0000100EB46012003E057F804BB4FF0FF3021
:106DC00061074FF0000102D40DE008F1010188468F
:106DD00049450FDA8045F8DB1BF808100029F4D18B
:106DE00008E008F1010188468142FADB1BF808102F
:106DF0000029F6D1DDE90F23AAEB080081462146E0
:106E000000F036F9304400EB080604E0DDE90F122B
:106E10001BF8010B9047B8F10108F7D2214648460C
:106E2000F7E00A21C4F302534FF0000B0891022B44
:106E300004D001CFC117032B09D00AE0FF1D27F0B2
:106E40000707F7E8020108E032E01FE020E000B2A7
:106E5000C117042B01D140B2C117031E71F1000309
:106E600007DA4FF0000CD0EB0C006CEB01012D2386
:106E700002E0230504D52B238DF82430012303E001
:106E8000E30701D02023F7E7984658E00A2110E0F5
:106E900010210EE010204FF0000B08900CE01021A4
:106EA0004FF0000B44F004044FF00809089103E090
:106EB00008214FF0000B0891C4F30253022B04D0B9
:106EC00001CF0021032B06D006E0FF1D27F00707A6
:106ED000F7E8020103E080B2042B00D1C0B24FF00A
:106EE000000823072BD5702A07D0DDF820C08CF0CE
:106EF000100C5CEA0B0C05D00EE040238DF824301A
:106F0000012308E050EA010306D030238DF8243035
:106F10008DF8252002239846DDF820C08CF0080C5F
:106F20005CEA0B0C0BD150EA010301D1630706D5D3
:106F300030238DF824304FF00108A9F10109582AB7
:106F400004D038A20B9208AA0A920BE03AA2F9E701
:106F50005B46089AFFF746FA0B9B9B5C0A9A521E07
:106F60000A92137050EA0102F2D10A98ADEB0000C8
:106F700000F1200B600702D524F4803401E04FF0CB
:106F80000109D94502DDA9EB0B0000E0002000EB70
:106F90000B0141440890AAEB010AE00306D4DDE9A5
:106FA0000F232146504600F063F806444FF00009D5
:106FB00008E009A911F80900DDE90F12904709F16D
:106FC0000109761CC145F4DBE0030CD5DDE90F2394
:106FD0002146504600F04CF8064404E0DDE90F126B
:106FE00030209047761C0899481E08900029F5DC4F
:106FF00008E00A980A990078491C0A91DDE90F1205
:107000009047761CBBF10001ABF1010BF1DC21468E
:107010005046DDE90F2300F019F806446D1C1BE60D
:10702000092801003031323334353637383961625E
:107030006364656600000000303132333435363722
:107040003839414243444546000000002DE9F041F3
:10705000044600251E461746880404D405E0394638
:107060002020B0476D1C641EF9D52846BDE8F0818C
:107070002DE9F041044600251E469046C80301D57F
:10708000302700E02027880404D505E04146384633
:10709000B0476D1C641EF9D52846BDE8F08170B577
:1070A00005460C4605B10CB9002070BD2878400893
:1070B0002178B0EB510F01D00020F6E70622611CC9
:1070C000681CFFF72AFA08B90120EEE70020ECE778
:1070D000014601F0030008B9012070470020FCE7D9
:1070E000024650680068401E084008B901207047F9
:1070F0000020FCE70246002104E0505C08B10120BA
:107100007047491C0629F8D30020F9E710B503465B
:10711000D868884206D88818401E1C69A04201D849
:10712000012010BD0020FCE710B504466CB10848F2
:10713000C068A04209D806480069A04205D320468D
:1071400006F039F808B1012010BD0020FCE700006E
:10715000344200202DE9F04106460C4604F1220796
:10716000292010F8048000250BE0C5EBC500C119EB
:10717000304604F0FCFB10B10120BDE8F081681C32
:10718000C5B24545F1DB0020F7E770B504460D4672
:1071900004F22740FFF7AEFF0646012D06D0022D70
:1071A0000DD0032D11D0042D19D113E0A07928B1F1
:1071B00094F8240010B90EB1012070BD00BFE07931
:1071C00010B10EB10220F8E700BF207A08B1032009
:1071D000F3E700BF607A08B10420EEE700BF0020AB
:1071E000EBE70146481C052290FBF2F302FB13007B
:1071F000C0B270472DE9F04704460D462F4695F87A
:107200002080B4F81C9000260BE007EB461249469C
:10721000A06901F0F9F910B10120BDE8F087701CF8
:10722000C6B24645F1DB0020F7E7014691F824207D
:10723000012A01D1EE2000E01F2070472DE9F05F08
:1072400006460C4604F12C0A94F83250302010F80F
:1072500004904FF00008B6F81CB0002710E00AEBCD
:1072600087025946B06901F038FA28B108F10100E7
:1072700000F0FF0815B905E005B103E0781CC7B2BE
:107280004F45ECDB00BF0DB1C84503D02DB9B8F1B7
:10729000000F02DD0120BDE8F09F0020FBE710B5E4
:1072A00001220221002002F057FD044600BF1CB15C
:1072B000072C01D0204610BD00BF0722022101206B
:1072C00002F04AFD044600BF1CB1072C01D0204645
:1072D000F1E700BF0A220021084602F03DFD044606
:1072E00000BF1CB1072C01D02046E4E700BF0020FE
:1072F000E1E7000030B5ABB0AC216846FFF7CFF84E
:1073000002208DF8000000208DF8020005208DF885
:1073100003000121ADF84C100F49149101218DF8A3
:107320007C104021229144F2506123910B48299016
:1073300069460B4801F03CFA044600BF254625B1DA
:1073400000BF284600F0B4F800BF00BF0121044888
:1073500001F02BFA2BB030BD444000204D1B030040
:10736000BC44002070B50321064801F0C3FA04466E
:1073700000BF254625B100BF284600F099F800BFA0
:1073800000BF70BDBC44002070B58CB004460D46F3
:107390001646002005E0C0F10F01615C0DF80010F9
:1073A000401C1028F7D30D2104A8FFF778F800201F
:1073B00005E02A5CC0F10F0304A9CA54401C03284D
:1073C000F7D3684646DF002005E0C0F10F0208A9A8
:1073D000895C3154401C0328F7D30CB070BD000009
:1073E00010B5044602480178204601F027FD10BD83
:1073F000C440002072B600BF09F0FEF800BF00BF15
:1074000008F002FE0028FBD100BF00BF1D491E4A44
:10741000891AC908012242EA01401CA108F0F6FFBE
:1074200000BF1D48006800F0010000B100BE00BFB1
:107430001449154A891AC908022242EA014017A1D3
:1074400008F0E4FF00BF00BF00BF00BF00BFBFF3F4
:107450004F8F00BF00BF00BF0F48E438006800F442
:10746000E06012490843001D0B49E439086000BF81
:1074700000BF00BFBFF34F8F00BF00BF00BF00BF02
:1074800000BFFDE728950300509403004661746136
:107490006C206572726F7200F0ED00E053797374C6
:1074A000656D207265736574000000000000FA05C8
:1074B0003EB50446002000900190029002946A4676
:1074C000002144F20100FFF795FF3EBD70B5044670
:1074D0000D46204604F010FA28B12946204604F053
:1074E000FFF9002070BD0520FCE7034609B90E2016
:1074F000704712B1501E104008B10920F8E719601A
:10750000501E988000209860D86000BFF0E770B5EA
:1075100004460D46204604F0EFF9A188884205D8BC
:107520002946204604F0FBF9002070BD0420FCE74A
:1075300010B5024803F042FD10BD000020410020BC
:1075400010B503460C460AB9072010BD19684A61F8
:10755000012C01D1012000E0002008610020F4E7A7
:1075600038B5134800680090082358221149124882
:10757000006806F0C0FD04460CB1204638BD0F4A35
:1075800069460F4803F020FD04460CB12046F5E79C
:1075900001210B4803F0BEFD01230A4A19460848A1
:1075A00003F0DEFC0120084908702046E6E70000F1
:1075B000407803009851002030780300FF49030011
:1075C00020410020FFFF7F002C4100202DE9F041E9
:1075D00006460D4617463446207F10B10020BDE810
:1075E000F081A76104F07CFF401941F10001C4E97A
:1075F0000201206900B12561214600200EF0E6FE5F
:10760000EDE770B50446254600202877294601207D
:107610000EF0DCFE70BD000010B50A4C20780A495F
:10762000085C18B1201D0AF08BF907E020780649A4
:10763000085C18B904F10C000AF00AF800BF002039
:1076400010BD000044410020084100202DE9F04118
:1076500004460F48077821460E48FFF737FF80465B
:1076600097B100200A49087001220B490B4807F026
:10767000DDFD054600BF2E4626B100BF3046FFF7B0
:1076800017FF00BF00BF00BF4046BDE8F08100000B
:107690005E410020005200205D4100204441002056
:1076A0002DE9F04188B004460E46174698462B480F
:1076B00007601EB9072008B0BDE8F081B08882B22B
:1076C00027483168FFF711FF054600BF284600B183
:1076D000F1E700BFB08982B22248B168FFF705FF29
:1076E000054600BF284600B1E5E700BF20221E493D
:1076F0006846FEF7BBFE60690690207C08B1012059
:1077000000E000208DF814008DF81C80607C08B12A
:107710000E2000E000208DF81500E0680290A068BF
:1077200003902068019060680090104A69461048F4
:1077300007F036FD054600BF284600B1BBE700BF95
:1077400000200C4908702068401C28B101220A4919
:10775000074807F06BFDAEE70020ACE7584100207A
:10776000005200201052002044780300E566030018
:10777000444100205E4100205D4100202DE9F041A0
:10778000054629461448FFF7C2FE064606BB134CC1
:10779000002720781249085C20B1201D0AF0C0F8AB
:1077A000074608E020780E49085C20B904F10C0077
:1077B00009F03CFF074600BF57B90A490648FFF7E2
:1077C00085FE28B901220749044807F051FD064605
:1077D0003046BDE8F08100001052002044410020F6
:1077E000084100205C41002010B5044620460DF001
:1077F00019FC10BD70B5044625460E488068B0B12E
:10780000ADB9FFF715FA06460A4800680A4908604C
:10781000084840684FF0E021C1F804010020054904
:1078200088601EB900BF62B600BF00BF00BF00BFC6
:1078300070BD00002052002000E100E0F8B50546D0
:107840000C4617462088001DB84201D90C20F8BD0F
:10785000684679DF064600BF304600B1F7E700BF53
:107860000320218868542088401C2080192021880A
:1078700068542088401C208020884119BDF80000F1
:107880000FF050F92188084420800020DFE770B510
:1078900005460C462068401C28B1206808F076FA9E
:1078A000206808F027FA6068401C18B10021606861
:1078B00008F006FA2868A169C0F8241500BF617DA8
:1078C000227D286841EA0203C0F86C3500BFD4E984
:1078D0000012286809F05DFC207D012814D1A06801
:1078E000401C18B10021A06808F0EAF9E068401CCB
:1078F00028B1E06808F04AFAE06808F0FBF9D4E93A
:107900000221286809F02DFC70BD70B505460C46B3
:107910002068401C28B1206808F043FA206808F06D
:10792000F5F96068401C18B10021606808F0D5F9CD
:107930002868A169C0F8241500BF617D227D2868F0
:1079400041EA0203C0F86C3500BFD4E90012286890
:1079500009F059FC207D012814D1A068401C18B101
:107960000021A06808F0B9F9E068401C28B1E0687F
:1079700008F017FAE06808F0C9F9D4E9022128688C
:1079800009F022FC70BD70B504460D46204605F096
:10799000C7FD70BD2DE9FC5F04460E46F94F00207F
:1079A00039460870A055F8A12046FEF7A8FD08B991
:1079B000F6A7ACE3F6A12046FEF7A1FD08B9F6A7AD
:1079C000A5E3F9A12046FEF79AFD20B1F8A12046D3
:1079D000FEF795FD08B9F84F99E3F8A12046FEF7A8
:1079E0008EFD08B9F84F92E3F8A12046FEF787FD17
:1079F00008B9F94F8BE3F9A12046FEF780FD20B9C5
:107A00000120FA490870FA4F81E3FAA12046FEF7F7
:107A100076FD08B9F64F7AE308222146F9A0FEF771
:107A200092FD002837D1207A22282FD1701E205CA9
:107A300022282BD1272E24DA002506E005F10900A3
:107A4000215CF3484155681CC5B2272D04DA05F1C5
:107A50000900205C2228F1D10021ED48415503F0B6
:107A60009DFCECA1C748FEF765FDE11CC548001D63
:107A7000FEF760FDC3483044CAA10988A0F8011090
:107A800045E3E6A1BF48FEF755FD40E3E6A1BD484A
:107A9000FEF750FD3BE3E7A12046FEF730FD80B93D
:107AA000DCA1B848FEF746FDE11CB648001DFEF714
:107AB00041FDB448E1A109880181BAA1FEF7FAFCB1
:107AC00025E307222146DEA0FEF73DFD002859D11F
:107AD000132E55D1DC4B0CCBCDE9002300BF002188
:107AE000072546E000220DF80020625D302A08DB01
:107AF000625D392A05DC625D303AD2B20DF80020B1
:107B00000CE0625D412A08DB625D462A05DC625DAD
:107B1000373AD2B20DF8002000E001211DF8002014
:107B20001207120E0DF800206A1CD5B2625D302AD1
:107B30000BDB625D392A08DC1DF80030625D303AEB
:107B40001A44D2B20DF800200FE0625D412A0BDB2F
:107B5000625D462A08DC1DF80030625D373A1A443F
:107B6000D2B20DF8002000E001216A1CD5B2421CFF
:107B7000D0B2132DB6DB09B99D4F00E0B3A7C6E222
:107B8000A6A7C4E2B5A12046FEF7B9FC88B9A1A119
:107B90007C48FEF7CFFCE11C7A48001DFEF7CAFCCA
:107BA0007848A6A10988A0F807107EA10988C1819C
:107BB000ADE20B222146ABA0FEF7C5FCA8B90C2E06
:107BC00011D1E07A38280CDAE07A3038C5B2E11CFD
:107BD0006C48FEF7AFFC6B4872A10988A0F8091049
:107BE00095E2A3A793E28DA791E2A8A12046FEF714
:107BF00086FC48B9E11C6348FEF79CFCA6A16148DD
:107C0000C01DFEF797FC82E20A222146A5A0FEF7DE
:107C10009AFC60BB0B2E28D1A07A352823DAA07AF3
:107C2000302820DBA07A302801D1002512E0A07A8C
:107C3000312801D109250DE0A07A322801D10B2588
:107C400008E0A07A332801D1172503E0A07A342870
:107C500000D11F25E11C4B48FEF76CFC51A149489F
:107C6000FEF728FC53E292A751E26CA74FE297A1DE
:107C70002046FEF744FC48B9E11C4248FEF75AFC96
:107C800095A14048801DFEF755FC40E20C2221469C
:107C900092A0FEF758FC20B900205449087093A721
:107CA00035E20C22214693A0FEF74DFC20B90120BD
:107CB0004E49087093A72AE294A12046FEF71FFCC4
:107CC00090B9E11C2F48FEF735FC4848007828B9E8
:107CD00091A12C48C01DFEF72DFC18E28FA1294868
:107CE000C01DFEF727FC12E28DA12046FEF707FC1F
:107CF00058B900208C4908708CA12248FEF71AFC64
:107D00008CA12048FEF716FC01E28BA12046FEF76D
:107D1000F6FB58B901208449087089A11948FEF77B
:107D200009FC84A11748FEF705FCF0E186A1204676
:107D3000FEF7E5FB80B9E11C1248FEF7FBFB7A4831
:107D4000007820B979A10F48FEF7F4FBDFE17CA1B0
:107D50000C48FEF7EFFBDAE17DA12046FEF7CFFBF2
:107D600020B97FA10748FEF7E5FBD0E17FA12046BF
:107D7000FEF7C5FB20B981A10248FEF7DBFBC6E197
:107D800002E10000684C0020415400004F4B0A0003
:107D900041542B56455200005645523D3230323147
:107DA000313132320A0000004154202F3F000000E0
:107DB00041542B48454C50007C7D030041542B48D6
:107DC000454C503D31000000E07B030041542B48FE
:107DD000454C503D32000000CC7C030041542B4206
:107DE0004C455F4C494E4B3D30000000C9390020E6
:107DF000CA39002041543D4E414D455F494E4954DA
:107E00000000000041542B4E414D453D0000000054
:107E1000F8390020424C455F000000004C454E47B9
:107E20005448204552520A0053594E544158204557
:107E300052520A0041542B4E414D45003D00000076
:107E400041542B4D41433D00407503004144445291
:107E5000455353204552520A0000000041542B4D17
:107E60004143000041542B424C455F5057523D0066
:107E70000A657272212064617461207368616C6CA0
:107E800020626520307E370A0000000041542B42FA
:107E90004C455F50575200003D756E6B6E6F776EAC
:107EA0000A00000041542B52465F5057523D0000DB
:107EB0000A657272212064617461207368616C6C60
:107EC00020626520307E340A0000000041542B52AD
:107ED000465F5057520000003D3F0A0041542B427C
:107EE0004C455F4144563D30000000004144563D42
:107EF000300A000041542B424C455F4144563D310D
:107F0000000000004144563D310A000041542B421C
:107F10004C455F41445600003D300A003D310A00A7
:107F200041542B52463D3000C839002052463D3066
:107F30000A0000004F4B000041542B52463D3100D7
:107F400052463D310A00000041542B5246000000C9
:107F500041542B52465F4D4F443D46534B00000069
:107F600052465F4D4F443D46534B0A0041542B52FD
:107F7000465F4D4F443D4D534B00000052465F4D10
:107F80004F443D4D534B0A0062A12046FEF7B7FA1D
:107F900000284FD062A12046FEF7B1FA0028F8D0A1
:107FA00063A12046FEF7ABFAE8BB322007F0A2F847
:107FB000FFF732FB062000BF4FF0A0410A46012325
:107FC00003FA00F1C2F80C1500BF00BF00BF012189
:107FD0000A4600239C46984600BF4FF0A04AD1466F
:107FE00041EA420A4AEA830A4AEA0C2A4AEA084B68
:107FF00009F5E06A4AF820B000BF00BF4FF47A707C
:1080000007F078F84FF47A7007F074F8062000BF94
:108010004FF0A0410A46012303FA00F1C2F8081507
:1080200000BF00BF00E006E04FF47A7007F062F88E
:108030000EF0E6FB6BE042A12046FEF760FAA8B91D
:1080400044A003F043F9444844A10A680260097956
:10805000017144A14748FEF76DFA474840884FF642
:10806000FF71884253D10CF02FFF50E043A120460E
:10807000FEF745FA38B946A003F028F945A13D4876
:10808000FEF758FA43E047A12046FEF738FA38BB1E
:108090004749484A891AC908022242EA014046A1D2
:1080A00008F0B4F900BF00BF00BF00BF00BFBFF3BE
:1080B0004F8F00BF00BF00BF4348006800F4E0607E
:1080C00042490843001D4049086000BF00BF00BF8F
:1080D000BFF34F8F00BF00BF00BF00BF00BFFDE771
:1080E0003BA12046FEF70BFA30B90CF0EDFE3CA1A7
:1080F0002048FEF71FFA0AE03CA12046FEF7FFF9F0
:1081000028B906F099FF3DA11A48FEF713FA384640
:10811000BDE8FC9F41542B52465F4D4F4400000088
:1081200041542B4138313037534C45455000000005
:1081300041542B4F54413D4D41494E5F4D435500F5
:1081400041542B52454D4F54455F504149523D30AB
:1081500000000000FF000000D839002003FF015A92
:108160000000000052454D4F5445205041495249AE
:108170004E470A00684C00208842002041542B5290
:10818000454D4F54455F504149523D31000000007C
:108190000C00000052454D4F54455F504149523D3F
:1081A000310A000041542B52455345543D310000E3
:1081B000289503005094030053797374656D207201
:1081C00065736574000000000CED00E00000FA0526
:1081D00041542B5343414E3D5354415254000000EF
:1081E0005343414E5F53544152540A0041542B5360
:1081F00043414E3D53544F50000000005343414E05
:108200005F53544F500A000010B50446637903F0E1
:1082100003022179208805F041F910BD10B504460C
:10822000207918B9204600F007F803E02046FFF750
:10823000EBFF00BF00BF10BD2DE9FE4307463E889F
:108240004FF00008002259480178304600F00CFE3B
:108250007879C0F3800028B9002138460AF066FD1D
:10826000BDE8FE8306F5807188B201AB01220721CB
:108270000AF038FE0546C5B1284608F03DFF8146A4
:108280004B494C4A891AC908012242EA0140334647
:108290004A46494908F0D0F8294630460DF084F99D
:1082A000002138460AF042FDDAE7304604F020FCAF
:1082B00004464FF6FF718C421BD1029804F068FB14
:1082C00004464FF6FF70844213D02146304604F036
:1082D000EDFB3046FFF784F858B930460DF00CF945
:1082E0003046FFF77DF820B9002138460AF01EFD20
:1082F000B6E74FF6FF7084421FD10AF0B1FF044683
:108300004FF6FF70844212D129492A4A891AC908B6
:10831000012242EA014029A108F078F80421304600
:108320000DF042F9002138460AF000FD98E7214699
:10833000304604F0BBFB4FF0010806F5807188B2AF
:10834000224607210AF056FE054625B90121384686
:108350000AF0ECFC28E0862D07D130460DF0FEF83F
:10836000012138460AF0E2FC1EE0284608F0C4FE6F
:1083700081460F490F4A891AC908012242EA014081
:1083800033464A461A49009408F066F829463046B2
:108390000DF00AF9002138460AF0C8FCB8F1000FC8
:1083A00002D0204604F08CFB00BF59E7C1400020FA
:1083B000909403005094030098850300436F756CFC
:1083C00064206E6F7420616C6C6F63617465206EE5
:1083D000657720706565725F696420666F722069D9
:1083E0006E636F6D696E6720626F6E642E000000B1
:1083F000B4860300002114E00C48D0F810240123B7
:1084000008E000BFD0680079884201D1002303E072
:10841000D0680268002AF4D100BF0BB1084670474B
:10842000491C0A29E8DB4FF0FF30F8E770550020BF
:108430002DE9F04104460F46154615B90E20BDE85A
:10844000F0810020286000BF0CB90E20F7E700BFC4
:1084500000BF206808B90E20F1E700BF00BFE08828
:10846000C11700EB91718910A0EB810109B10720C0
:10847000E5E700BF384600F067FCC6B2142E01D114
:108480000520DCE72079B04201DC0420D7E7E18851
:10849000206806FB010028600020D0E72DE9FC41A0
:1084A000054688461646002437880020308095F817
:1084B0002D0058B13A463146404600F099FD044639
:1084C00000BF204608B1BDE8FC8100BFA87850B1CC
:1084D0003A4631464046FFF7B1F9044600BF204610
:1084E00000B1F0E700BFE87860B1E97848B23B46F8
:1084F0003246414603F05DFA044600BF204600B113
:10850000E1E700BF686868B1696891F900003B461F
:10851000324641460DF0C9FF044600BF204600B177
:10852000D1E700BF288900280EDD4346062202213C
:1085300005F10800CDE900670EF0ECFB044600BF32
:10854000204600B1BFE700BF288A00280EDD434661
:108550000722032105F11000CDE900670EF0DAFBD8
:10856000044600BF204600B1ADE700BF288B0028BD
:108570000EDD43461522142105F11800CDE90067F0
:108580000EF0C8FB044600BF204600B19BE700BFC9
:10859000286A58B13B4632464146286A02F018F92B
:1085A000044600BF204600B18DE700BF686A58B19D
:1085B0003B4632464146686A05F0A6F9044600BFCC
:1085C000204600B17FE700BF95F82C0000280BDDA6
:1085D0003B463246414628460DF0AEF9044600BF00
:1085E000204600B16FE700BF287858B13B463246BD
:1085F0004146284605F0A6FA044600BF204600B1D1
:1086000061E700BF20465EE72DE9F843064688464D
:108610001546002000900DB9BDE8F88309236A468D
:108620004146304600F02BF80446BDF800003718EC
:10863000BDF8000068B164B12846FDF759FFA042BB
:1086400007D1224639462846FDF767FF08B90120C1
:10865000E2E70020E0E7F8B504460E4615460020A4
:1086600000902B466A463146204600F008F807463F
:108670000FB90020F8BDBDF800002044FAE7F0B5BE
:1086800004460D461E4604B10AB90020F0BD002183
:1086900003E0605C401C084481B2481CA84206DA32
:1086A00010888842F5DC481C205CB042F1D1A94218
:1086B00001DB0020EAE7881C87B2605C10B1605CD7
:1086C000401E00E0002083B213B1F818A84201DD7B
:1086D0000020DBE717801846D8E72DE9F04788B07F
:1086E00004460E4617460020079010200690B2461A
:1086F00002AA06A9384664DF814614B1B9F1000F19
:1087000003D0002008B0BDE8F0879DF818000228CB
:1087100004D0042809D0102815D10DE003208DF8CD
:10872000040002208DF805000FE005208DF80400FC
:1087300004208DF8050008E007208DF804000620CD
:108740008DF8050001E00020DCE700BF002509E00E
:1087500001A8435D07AA31462046FFF790FF8246F5
:10876000681CC5B2022D03DABDF81C000028EFD04A
:10877000BDF81C0008B90020C4E7BDF81C0004EBDC
:10878000000800250DE008EB05009DF8182002A95F
:10879000FDF7C3FE08B90120B4E79DF8180028448E
:1087A00085B25545EFDB0020ACE780F8301070470C
:1087B00070B504460D4605B10CB90E2070BD05F12B
:1087C000780001F07EFF08B90720F7E70020A070CD
:1087D0002C2205F17801201DFDF748FE002084F8C9
:1087E0003000D5F8A4006063D5F8A800A0634FF668
:1087F000FF70A4F8240404F58260C4F8200400216A
:1088000040F22C40C4F82614A4F82A14015520780C
:1088100010B9FF2084F8540004F15500C4F8100486
:108820002046FEF702FD40F21441085304F21442C0
:1088300004F155012846FFF731FE064600BF3046D9
:1088400000B1BBE700BF04F231204FF4836108514F
:108850002046FEF7EAFCA4F81C044FF4836001599B
:1088600004F21C4205F13C00FFF718FE064600BF6B
:10887000304600B1A2E700BF012151200155208BF5
:1088800081B248200153012084F83C00002121647A
:10889000502001556169616404F13C02002104F13A
:1088A000540072DF064600BF304600B186E700BFC5
:1088B00001202070304681E770B504460D462E46F3
:1088C0002088102804D0112807D026280FD109E0CD
:1088D0002146304609F03CFB0AE02146304609F0CB
:1088E00095FD05E0214630460AF0C0F800E000BFE3
:1088F00000BF70BD70B504460E46207808B9082048
:1089000070BDA670002140F22C40C4F82614A4F8D3
:108910002A140155A07910B1A078012809D0E07976
:1089200010B1A078012804D0E07970B1A0780228B5
:108930000BD1606B30B1012084F82D040820616BED
:10894000884702E0002084F82D0431462046FEF7D7
:108950001CFCA070606BA0B1A078032802D0A078A6
:1089600004280ED1607960B194F82E0448B9002033
:1089700084F83004012084F82F040720616B8847B5
:1089800002E0002084F82F04182104F13C00FDF7D8
:1089900086FD012084F83C0004F12C000AF0B2FDB1
:1089A00020B194F82C105120015502E001215120F2
:1089B000015594F8240060B104F128000AF0A2FDEA
:1089C00020B194F828105220015502E001215220D4
:1089D0000155002150200155A078052824D2DFE858
:1089E00000F01F030A11180004F13C0120460DF0AD
:1089F00035F8054619E004F13C0120460DF016F863
:108A0000054612E004F13C0120460DF039F8054618
:108A10000BE004F13C0120460DF060F8054604E04F
:108A2000002084F8310000E000BF00BFA07898B1BA
:108A300004F13C0204F15400D4F8201472DF05461E
:108A40000DB128465CE794F8301094F8540073DFB9
:108A500005460DB1284653E7606B18B194F8310014
:108A6000616B884700204BE72DE9F84305468846AF
:108A70002E1D28881F2866D008DC10280DD011284C
:108A800036D013284FD01B287ED13EE0212868D055
:108A90003B287AD05628F7D198E0A9880022594877
:108AA00000F054FC044600BF274627B100BF3846FB
:108AB000FEF7FEFC00BF00BF072001F07BF9044673
:108AC00000BF274627B100BF3846FEF7F1FC00BFC4
:108AD00000BFA9884C4800F067FA044600BF27464B
:108AE00027B100BF3846FEF7E3FC00BF00BF86E0B9
:108AF000337932884549464FC91BC908032747EADD
:108B0000014044A107F098FC79E03079022809D1AE
:108B10003E493F4A891AC908032242EA01404AA154
:108B200007F074FC6BE0A88800231A4685217FDFDC
:108B3000044600BF274627B100BF3846FEF7B8FC01
:108B400000BF00BF5BE03088311D75DF044600BF09
:108B5000274627B100BF3846FEF7AAFC00BF00BF7A
:108B60004DE02A492A4A891AC908042242EA0140EA
:108B70003DA107F04BFC00200090A88869468FDFDC
:108B8000044600BF274601E038E007E027B100BFF8
:108B90003846FEF78DFC00BF00BF30E01B491C4A81
:108BA000891AC908042242EA014034A107F02EFCC8
:108BB000A888132176DF044600BF274627B100BFEF
:108BC0003846FEF775FC00BF00BF18E00F49104A99
:108BD000891AC908042242EA01402EA107F016FCB6
:108BE000A888132176DF044600BF274627B100BFBF
:108BF0003846FEF75DFC00BF00BF00E000BF00BFCD
:108C0000BDE8F88388420020183A00202895030028
:108C100050940300446973636F6E6E65637465649A
:108C20002E36333220636F6E6E5F68616E646C65E2
:108C30003A20307825782C20726561736F6E3A2067
:108C40003078257800000000436F6E6E65637469AC
:108C50006F6E20526571756573742074696D6564FB
:108C6000206F75742E0000005048592075706461A3
:108C7000746520726571756573742E004741545494
:108C800020436C69656E742054696D656F75742E30
:108C900000000000474154542053657276657220ED
:108CA00054696D656F75742E000000002DE9F04168
:108CB000044600BF14B90E20BDE8F08100BF1C229D
:108CC00021461C48FDF7D2FB1B481A490860206862
:108CD00060B120687ADF05460DB12846ECE71648FA
:108CE00021680A6802604968416005E012487BDF3C
:108CF00005460DB12846DFE7002617E006EB8600A3
:108D00000E4901EB800700BF4FF6FF70388000BFAF
:108D10000B4800EB461078600A4A0021381DFEF728
:108D20000FFC05460DB10320C6E7761C002EE5D0EA
:108D30000020C1E7444D002092400020304D00202B
:108D4000104D0020416C030010B50446204600F091
:108D5000A1F808B1204610BD1420FCE710B5044668
:108D6000204600F097F820B12146034805F065FA47
:108D700010BD0020FCE70000704D002070B50446D7
:108D80000D46164620460DF0A5FF08B9002070BD1F
:108D9000034951F824003246294602F061FEF6E705
:108DA0007C4D002010B50446204600F073F820B139
:108DB0002146034805F041FA10BD0020FCE7000001
:108DC000784D002010B50446204600F063F820B12D
:108DD0002146034805F031FA10BD0020FCE70000F1
:108DE000744D002070B504460025204600F052F86E
:108DF00050B12146054805F020FA06460EB1022082
:108E000000E00120054600BF284670BD6C4D0020E3
:108E100070B504460025204600F03CF850B12146CC
:108E2000054805F00AFA06460EB1022000E00120CE
:108E3000054600BF284670BD684D002070B5054648
:108E40000C4620460DF046FF50B1284600F022F8AF
:108E500030B1044901EB8400294605F0EEF970BDFC
:108E60000020FCE77C4D002070B505460C461646F8
:108E700020460DF02FFF50B1284600F00BF830B11E
:108E8000034901EB84003246294602F083FD70BDA0
:108E90007C4D002010B50446142C01DB002010BDD1
:108EA0002146024805F0C9F9F9E70000644D0020A9
:108EB00010B5044600BF0CB90E2010BD00BF00BFA6
:108EC00006480078012801D00820F6E700BF0448D2
:108ED000016820460BF008FCEFE7000090400020FE
:108EE000844000200146002200BF09B90E207047CF
:108EF00000BF00BF086808B90E20F8E700BF00BF38
:108F0000486808B90E20F2E700BF0020064B186041
:108F10000120064B1870064B08681860054B48681E
:108F200018601046E3E700008C40002090400020CD
:108F3000844000208840002070B504460D4600BFE4
:108F400004B970BD00BF00BF05B9FAE700BF00BF9C
:108F500014480078012800D0F3E700BF2E4620888F
:108F6000112815D0302804D0322807D0332814D146
:108F700009E0211D304609F035FC0FE0211D304687
:108F800008F032FE0AE0211D304609F075F905E0CF
:108F9000211D304609F02DFA00E000BF00BF00BFE0
:108FA000CFE700009040002070B504460D4600BF9A
:108FB0000CB90E2070BD00BF00BF0B48007801281F
:108FC00001D00820F6E700BF0848006808B908206B
:108FD000F0E794F8C80208B11120EBE729462046D3
:108FE00001F036FFE6E70000904000208C400020B2
:108FF0002DE9FC4105460C46174620880930B84249
:1090000002D90C20BDE8FC8168466DDF064600BF32
:10901000304600B1F6E700BF082021886854208858
:10902000401C20801B20218868542088401C208000
:1090300020882844DDF801100160BDF8051081800A
:109040002088801D20809DF80000400818B900206D
:109050002188685402E00120218868542088401C3F
:1090600020800020CEE72DE9F04104460E46A78877
:109070003846FFF7B7FE0546012D03D0204600F025
:10908000DFF820B13146204600F0FEFB08E0022D5B
:1090900002D020881D2803D131462046FFF7E4FC8A
:1090A000BDE8F08170B505460E462888102802D02C
:1090B00011282CD115E01748006860B901F06AFC4E
:1090C000044600BF34B11448006818B12046124964
:1090D0000968884700BF0F480068401C0D490860B8
:1090E00016E00C480068401E0A49086008460068FF
:1090F00060B9FEF7D4F8044600BF34B106480068F2
:1091000018B1204604490968884700BF00E000BF45
:1091100000BF70BD804000207C40002070B5044638
:109120000D462088102806D0112808D012280ED00D
:10913000502810D107E0204608F098FE0CE02046A9
:1091400009F03EF908E0204609F0C2FC04E02046A0
:1091500008F074FE00E000BF00BF70BD2DE9F041D3
:1091600004460F46A6882088102806D0112817D05C
:1091700019283DD01A2848D116E00BF04FFA304696
:109180000BF0D0F820B900BF0420FEF791F906E0FB
:10919000E07B022803D131461D4805F05DF834E03C
:1091A00030460BF05FFA30E0207A0509042D01DB30
:1091B000012000E000200246314615480C3002F044
:1091C000E9FB032D01DB012000E0002002463146CF
:1091D0000F48083002F0DEFB022D01DB012000E029
:1091E0000020024631460A48001D02F0D3FB0CE085
:1091F000207A48B9607AC0F3C0052A46314604484F
:109200000C3002F0C7FB00BF00BF00BFBDE8F0811B
:109210006C4D002070B504460D4600BF074800782D
:1092200000B970BD00BF204603F01CFB20460CF0C7
:1092300003FD204602F0A6FF00BFF2E79C4000209D
:1092400001460888262801D1012070470020FCE74C
:109250002DE9F04107460C46207820B1012834D092
:10926000022842D136E02249224A891AC90803223B
:1092700042EA014020A107F0C9F8618804F10E021A
:10928000384600F063F8054600BF2E4626B100BF01
:109290003046FEF70DF900BF00BF384600F090F9E8
:1092A000054600BF2E4626B100BF3046FEF700F946
:1092B00000BF00BF0E490F4A891AC908032242EABB
:1092C000014012A107F0A2F80FE0A189A06800F008
:1092D0008DF90AE00649074A891AC908032242EAB9
:1092E000014016A107F092F800BF00BFBDE8F08171
:1092F0002895030050940300446973636F76657288
:109300007920636F6D706C6574652E00436F6E6EAF
:10931000656374656420746F206465766963652095
:1093200077697468204E6F726469632055415254A6
:1093300020536572766963652E000000446973638B
:109340006F6E6E65637465642E00000070B5044630
:109350000E46154600BF0CB90E2070BD00BF6680DA
:109360002DB16988E1802888A080A98821813146B3
:10937000606905F025F9F0E770B586B004460D4642
:109380001A4B0FCB01AE0FC600BF14B90E2006B0AA
:1093900070BD00BF00BF0DB90E20F8E700BF00BFD1
:1093A000A86808B90E20F2E700BF214601A862DFD5
:1093B000064600BF304600B1E9E700BF20788DF8CF
:1093C00016004FF47F40ADF814004FF6FF70608038
:1093D0002868E060686820610020A0800021218169
:1093E000A868606105A8FFF763FDD0E77077030008
:1093F00070B586B005460E46344604B10DB906B0C8
:1094000070BD60884FF6FF71884203D06088A988DC
:10941000884200D0F3E72888112806D0392816D1D1
:109420002946204609F034F912E0A888618888426C
:109430000CD1E06850B102208DF804004FF6FF70A7
:10944000608001A92046E268904700BF00E000BFAD
:1094500000BF00BFD3E770B586B005460C461421A7
:1094600001A8FDF71CF804F10E06207800283CD175
:10947000A088B0F57F4F38D1A0792978884234D1BF
:10948000002023E000EBC00136F811106FF47F429A
:10949000114449B1012916D100EBC00106EB41018D
:1094A0000A89ADF816200FE000EBC00106EB410180
:1094B0000989ADF8121000EBC00106EB41014A89A1
:1094C000ADF8142000E000BF00BF401C217A8142AB
:1094D000D8D8E86848B16088ADF8060000208DF85B
:1094E000040001A92846EA68904706B070BD000054
:1094F00070B588B004460E46154600BF14B90E205C
:1095000008B070BD00BF20216846FCF7C8FFF42DED
:109510000BDD1C491C4A891AC908022242EA014093
:109520001AA106F073FF0720EAE760884FF6FF7183
:1095300088420BD11349144A891AC908022242EA07
:10954000014017A106F062FF0820D9E701208DF83D
:1095500000001A48029003942189ADF81210ADF86A
:1095600016500021ADF81410069602208DF8100058
:1095700001218DF8111062886946606905F06EF866
:10958000BEE70000B894030050940300436F6E746C
:10959000656E7420746F6F206C6F6E672E00000014
:1095A000436F6E6E656374696F6E2068616E646C84
:1095B0006520696E76616C69642E000011BC020042
:1095C00010B5044600BF0CB90E2010BD00BF608866
:1095D0004FF6FF71884201D0E08808B90820F4E70F
:1095E0000121204600F08EFEEFE700002DE9F0415A
:1095F00006460F461F49204A891AC908042242EA32
:1096000001401EA106F002FF1A491B4A891AC90827
:10961000042242EA01403A46314606F083FE1B48E6
:109620000078002824D0002520E000BF705DFEF700
:10963000A5F80446BCB1112C15D00E490E4A891A62
:10964000C908012242EA01402A4611A106F0E8FEBB
:1096500000BFA046B8F1000F04D000BF4046FDF7A0
:1096600027FF00BF00BF112CE0D06D1CBD42DCD332
:10967000BDE8F081289503005094030052656365AE
:109680006976696E6720646174612E00C8390020B4
:109690006170705F756172745F7075742066616966
:1096A0006C656420666F7220696E6465782030781E
:1096B000253034782E0000002DE9F04186B00446B4
:1096C000884617461D4600BF1CB90E2006B0BDE8EF
:1096D000F08100BF01AA29466069FEF7A9FE06468F
:1096E00000BF304600B1F1E700BF4FF6FF70854282
:1096F00001D0019808B90520E8E70198007808B979
:109700000820E3E73888F42801DD0720DEE70020A1
:109710000290039004900590A088ADF80800CDF861
:109720001480049701208DF80A0002A92846AEDFB4
:10973000CCE7000070B58EB004460E46404B0FCB10
:1097400009AD0FC500BF14B90E200EB070BD00BF2B
:1097500000BF0EB90E20F8E700BF3068A0612146B7
:1097600009A862DF054600BF284600B1EDE700BF4B
:1097700020788DF836004FF6F070ADF83400A21C5A
:109780000DA90120A8DF054600BF284600B1DCE78F
:1097900000BF202101A8FCF782FE4FF6F270ADF861
:1097A000040020788DF80600F420ADF808000120B0
:1097B000ADF80A008DF810009DF8110020F00800A7
:1097C00008308DF811009DF8110020F00400001DF4
:1097D0008DF8110001208DF815008DF816006088B5
:1097E00004F10C0201A900F0DBFD05460DB128468D
:1097F000ABE7202101A8FCF752FE4FF6F170ADF85F
:10980000040020788DF80600F420ADF8080001204F
:10981000ADF80A008DF810009DF8110020F010003E
:1098200010308DF8110001208DF815008DF816000C
:109830008DF817006088221D01A900F0B1FD84E7B2
:109840008077030070B504460D4605B104B970BDBC
:109850002E462088102804D0502807D057280FD132
:1098600009E02146304608F039FB0AE0214630463F
:1098700009F05AF905E02146304608F03FFF00E0C4
:1098800000BF00BF00BFE2E7F0B589B005460F4654
:1098900028883B2874D008DC10280DD0112835D03A
:1098A00013285CD021286CD13FE050286AD0522880
:1098B0006AD05628F7D190E06E496F4A891AC908D4
:1098C000032242EA01406DA106F0A0FD072000F04E
:1098D00071FA044600BF264626B100BF3046FDF7A8
:1098E000E7FD00BF00BFA8886749088008460188D7
:1098F000664804F09EFF044600BF264626B100BF1E
:109900003046FDF7D5FD00BF00BFB0E059495A4AC7
:10991000891AC908032242EA01405DA106F076FDDA
:109920004FF6FF7058490880A1E05249524A891AFF
:10993000C908042242EA014059A106F067FD00204F
:109940000890A88808A98FDF044600BF264626B1E4
:1099500000BF3046FDF7ACFD00BF00BF87E000232D
:109960001A468521484800887FDF044600BF264606
:1099700026B100BF3046FDF79BFD00BF00BF76E07B
:1099800013E073E041E0FFE700231A4619463E4822
:109990000088B1DF044600BF264626B100BF30462E
:1099A000FDF786FD00BF00BF61E03249324A891AE7
:1099B000C908042242EA01403EA106F027FDA8881A
:1099C000132176DF044600BF264626B100BF30468D
:1099D000FDF76EFD00BF00BF49E02649264A891AFF
:1099E000C908042242EA01403BA106F00FFDA88805
:1099F000132176DF044600BF264626B100BF30465D
:109A0000FDF756FD00BF00BF31E02889B0F5285FA3
:109A10002BD1288A022827DD2A8A05F1120101A804
:109A2000FCF724FD9DF804007B281DDA1149124A39
:109A3000891AC908042242EA014030A106F0E6FC76
:109A4000A888132176DF044600BF264626B100BF52
:109A50003046FDF72DFD00BF00BF0021288A01AA76
:109A6000115401A801F09AFC00BF00BF00BF00BF65
:109A700009B0F0BD2895030050940300436F6E6E4B
:109A8000656374656400000042400020B04400201B
:109A9000446973636F6E6E656374656400000000F3
:109AA00050485920757064617465207265717565E0
:109AB00073742E00446973636F6E6E656374206FF8
:109AC0006E204741545420436C69656E742074695C
:109AD0006D656F7574200000446973636F6E6E6509
:109AE0006374206F6E20474154542053657276652D
:109AF000722074696D656F7574200000446973632A
:109B00006F6E6E656374206F6E206E616D6520638D
:109B100068616E67652E200070B5044620460CF023
:109B2000FBFF054605F0010070BD38B507F0B4F93C
:109B3000044600BF254625B100BF2846FDF7B8FC06
:109B400000BF00BF002000906946012006F0C4FF5E
:109B5000044600BF254625B100BF2846FDF7A8FCF6
:109B600000BF00BF684607F085F8044600BF2546E1
:109B700025B100BF2846FDF79BFC00BF00BF38BDE4
:109B800001460148405C70474A75030010B5024623
:109B90000949885C00BF4FF0A0442146D1F8043544
:109BA000012484409C43C1F80845012484401C40A2
:109BB000C1F80C4500BF10BD4675030010B5044642
:109BC0000249085D012106F0F7F810BD4675030053
:109BD00010B504460249085D002106F0EDF810BDFD
:109BE0004675030010B50146094B585C00BF4FF0A5
:109BF000A044234600BFD3F80445C44004F0010448
:109C00000CB1012000E00020024682F0010010BDEE
:109C10004675030010B5002403E02046FFF7CEFF91
:109C2000641C042CF9D310BD10B5002403E02046B9
:109C3000FFF7CEFF641C042CF9D310BD02464FF091
:109C4000FF30002106E0054B5B5C934201D10846E2
:109C500002E0491C0429F6D300BF70474A7503008F
:109C600010B5002000F07AFA044600BF1CB1062CA3
:109C700001D0204610BD00BF012000F06FFA04465D
:109C800000BF1CB1062C01D02046F3E700BF002026
:109C9000F0E700002DE9F04106460F464FF00008BE
:109CA00000243046FFF7CAFF0446042C3ED20FB30F
:109CB000012F02D0022F38D130E004EB44002149BB
:109CC00011F8008004EB44000844407850B11E4A6B
:109CD0004FF480411D480068FDF778FC05460DB93A
:109CE0001948067004EB4400164908448078184966
:109CF00008551AE015480068FDF783FC1448005D1C
:109D000004EB44010F4A11448978884205D104EBE1
:109D100044001146084490F8028006E004EB440039
:109D20000849084490F8018000BF00BFB8F1000F57
:109D300006D00848006818B14046064909688847B7
:109D4000BDE8F081C84C0020744000205875030025
:109D5000754000207040002030B503460020042BE1
:109D600023D2012A07D1012903D103F10E04E4B261
:109D700000E00024224679B1012902D0022911D144
:109D800004E003EB43040A4D2A550DE003EB4304C2
:109D9000074D2C44627007E003EB4304044D2C4450
:109DA000A27001E0072000BF00E0072030BD0000E6
:109DB000C84C002070B5044600250548007800F026
:109DC000010018B1204600F005F80546284670BD90
:109DD000684000202DE9F047044600260025DA48B7
:109DE000007820B10020D849087003F019FA182C27
:109DF0007ED2DFE804F00C16174A7EB2F6F4F3F2D6
:109E0000F1F0EFEEEDECEBEAE9E8E7E6E5E403F08C
:109E100007FACE480068FDF7F4FB0646CC4804700C
:109E20008DE100BF0020FFF7DDFE58B10020FFF7F5
:109E3000C5FE022C02D14FF4E16001E04FF47A60DC
:109E4000054609E00020FFF7C3FE022C01D1C8201F
:109E500001E04FF4C8700546BD4804704FF400405F
:109E6000A5FB00104FF47A73CF1840F100015A009F
:109E700000233846FCF7B6FA814600224946B3482B
:109E80000068FDF7A3FB064659E10020FFF7AAFE94
:109E900058B10020FFF792FE032C02D14FF4487016
:109EA00001E04FF47A60054609E00020FFF790FEDC
:109EB000032C01D1C82001E04FF4C8700546A44826
:109EC00004704FF40040A5FB00104FF47A728F1815
:109ED00040F10001520000233846FCF783FA814626
:109EE0000022494699480068FDF770FB064626E1C6
:109EF00024E10020FFF776FE58B10020FFF75EFE58
:109F0000042C02D14FF47A6001E04FF47A600546E8
:109F10000AE00020FFF75CFE042C02D14FF4C87069
:109F200001E04FF4C8700546894804704FF40040C2
:109F3000A5FB00104FF47A73CF1840F100015A00CE
:109F400000233846FCF74EFA8146002249467F48F6
:109F50000068FDF73BFB0646F1E00020FFF742FEFC
:109F600050B10020FFF72AFE052C01D1C82001E0E6
:109F70004FF47A60054609E00020FFF729FE052C22
:109F800001D1C82001E04FF4C87005467048047044
:109F90004FF40040A5FB00204FF47A73D71840F12E
:109FA00000015A0000233846FCF71CFA81460022C3
:109FB000494666480068FDF709FB0646BFE0B8E081
:109FC000B6E0AAE0A1E098E092E05FE05DE05BE04F
:109FD00059E057E051E042E033E024E015E00EE0C4
:109FE000FFE70020FFF7D2FD59480470002240F23D
:109FF000666156480068FDF7E9FA06469FE00020D2
:10A00000FFF7E6FD5248047099E001204E490870C0
:10A01000FFF7BCFD002240F266614C480068FDF786
:10A02000D5FA06468BE0012047490870FFF7AEFDE0
:10A0300000224FF4005145480068FDF7C7FA064674
:10A040007DE0012040490870FFF7A0FD002240F2AA
:10A0500066613E480068FDF7B9FA06466FE00120E8
:10A0600039490870FFF792FD00224FF4005137483C
:10A070000068FDF7ABFA064661E0FFF7D5FD34480E
:10A0800004705CE000BF00BF00BF00BF3148006843
:10A09000FDF7B7FA0646C4F1110515B30EBB012D45
:10A0A00018D9A8B2C82148434FF4004180FB0110E1
:10A0B0004FF47A728F1840F10001520000233846A5
:10A0C000FCF790F981460022494622480068FDF7D6
:10A0D0007DFA06460220FFF77BFD01201E4908702D
:10A0E00005E00220FFF76AFD00201B49087026E00A
:10A0F00003F096F81648047021E003F091F8002070
:10A10000FFF766FD1248047019E003F089F801209A
:10A11000FFF75EFD0E48047011E003F081F80020A7
:10A12000FFF756FD0120FFF753FD0948047006E0D4
:10A1300000BFFFF779FD0648047000E000BF00BFD4
:10A140003046BDE8F08700006540002050750300F0
:10A1500064400020547503006C40002010B5044694
:10A16000012120460CF071FE10BD00002DE9FC47D6
:10A1700004460D461646A71C4FF00108002001902A
:10A1800001A8FDF731FB3048406828602E48406840
:10A190002D498968411A2D480068401CA0EB01092F
:10A1A00015E001212A4804F07BF803F0CBFA82463F
:10A1B0005146274804F074F82348406822498968CA
:10A1C000411A22480068401CA0EB010900BF4F451E
:10A1D000E7D8B8F1000F30D00021009176B1009996
:10A1E00021F00301491C0091009921F00401091D8F
:10A1F0000091009964F3891100910DE0009921F01C
:10A200000301891C0091009921F00401091D0091AE
:10A21000009964F39F5100910B4949680B4A1268F9
:10A220001140094A0C3202EB810000990160064995
:10A23000496839440C3A516000BF9DF80400FDF7AD
:10A24000D9FA4046BDE8FC8770550020D441002073
:10A250008C59002070B504460D460A2D03D10D21FE
:10A260002046FFF7F7FFA168481CA060206845540E
:10A27000D4E90110884202D3204605F030F870BDC1
:10A280000448806803494968884201D10120704729
:10A290000020FCE7705500207CB50446204602F003
:10A2A00027FC054600236A46092108F021FF0528FE
:10A2B00005D10122024801782046FEF7D5FD7CBD7C
:10A2C000F04000207CB504460E460020019042F686
:10A2D000A620ADF8040001208DF8060007480068AC
:10A2E00000906A4601A92046A0DF05462DB901224B
:10A2F000034801782046FEF7B7FD7CBD28770300B0
:10A30000F140002070B58AB004460D462E4620214B
:10A3100002A8FCF7C4F8F0B28DF80400300A8DF8FA
:10A32000050001208DF808000D4804900594E1888F
:10A33000ADF81A100221ADF81E100021ADF81C1066
:10A3400001A9089101208DF8180001218DF819103C
:10A35000628802A9606904F081F90AB070BD00004A
:10A3600011BC020001468879012809D10879012829
:10A3700006D1488842F60212904201D1012070476E
:10A380000020FCE70146024850F821007047000019
:10A39000D450002001460148405670470451002027
:10A3A00070B590B006460C461546A07818B9012045
:10A3B0008DF80E0002E0A0788DF80E002088ADF830
:10A3C0000C0000200290607C02A90BF0B5FBA07C81
:10A3D0000DF109010BF0B0FBE07B08B1012000E0BA
:10A3E00000209DF80A1060F3C3018DF80A10207C4C
:10A3F00008B1012000E000209DF80A1060F304116C
:10A400008DF80A10207B08B1012000E000209DF8A3
:10A410000A1060F300018DF80A10207D08B10220B7
:10A4200000E001209DF80A1060F342018DF80A1047
:10A430001C2109A8FCF733F8607BC0F3001018B9A1
:10A44000607BC0F34010F8B100200090E07C0DF17B
:10A4500001010BF071FB00BF9DF8000020F00F0020
:10A46000401C8DF800009DF8000020F0F000103036
:10A470008DF8000000BF9DF8020020F00600801C4F
:10A480008DF80200CDF838D0607B8DF82400A07BD9
:10A490008DF82500142104A8FCF701F803A8049006
:10A4A00002A80590A088ADF81C00A06820B1E08843
:10A4B000ADF81800A0680890A069002849D00020D5
:10A4C0000190A0690088ADF82C00A0694088ADF823
:10A4D0002E00A06940680A9001A80D90A169087B30
:10A4E00001A90BF029FBA169487B0DF105010BF0D7
:10A4F00023FBA069807A08B1012000E000209DF8CC
:10A50000061060F3C3018DF80610A069C07A08B187
:10A51000012000E000209DF8061060F304118DF882
:10A520000610A069007A08B1012000E000209DF823
:10A53000061060F300018DF80610A069807B08B159
:10A54000022000E001209DF8061060F342018DF822
:10A550000610E06908B1E0690C902B4604AA09A92D
:10A560003046AADF10B070BD70B58AB004460E4602
:10A57000202101A8FBF793FF0020099094F8C60260
:10A5800000EB8001C1EB801004EB400594F8C5029C
:10A59000B8B194F8C522521ED1B294F8C62202EB8B
:10A5A0008203C3EB821204EB420501EBC10305F108
:10A5B0000A0202EB43000289521C92B2ADF8242039
:10A5C00002E0E888ADF824002889ADF826000320D1
:10A5D0008DF80400099805900494054803903246CC
:10A5E00001A90448006804F039F80AB070BD000001
:10A5F00029AE0200884000202DE9F04104460D46B6
:10A600004FF6FF76304684420AD14FF480712846D7
:10A6100003F0E3FD86B2B6F5807F10D126460EE04A
:10A62000FF2C0CDC2146284603F0C0FD80F001071A
:10A630000FB1204601E04FF6FF70064600BF3046DE
:10A64000BDE8F08170B505460DB9094C01E0084C34
:10A65000083409E0204602F0B6FD064606B904E0DB
:10A6600028467168884700BFF4E700BF70BD00004E
:10A67000C850002010B504462CB901200649487086
:10A680000020FFF7DFFF012C04D101200249887070
:10A69000FFF7D8FF10BD0000C05000202DE9F047A3
:10A6A000024613468C46D3E90245DCE90267B6EB65
:10A6B000040877EB050002D30120BDE8F0870020F5
:10A6C000FBE701468878012805D191F82000012890
:10A6D00001D100207047886A042802D0486A042803
:10A6E00001D10020F6E70120F4E70246002007E050
:10A6F000536833F810308B4200D17047431C98B236
:10A7000013888342F4DC00BFF7E733B58BB005460E
:10A71000002000900C9878B100240BE021460CA892
:10A7200003F08BFD28B1009A501C009001A820F87E
:10A730001240641C142CF1D32C2269462846FBF7E6
:10A7400095FE0DB030BD10B502460B4600210DE060
:10A75000506830F811004FF6FF74A04204D15068E1
:10A7600020F81130002010BD481C81B210888842AA
:10A77000EEDC0420F7E701460888062808DB088895
:10A78000B0F5486F06DD08884FF6FF72904201D0A1
:10A79000072070474888062808DB4888B0F5486FCE
:10A7A00006DD48884FF6FF72904201D00720F0E79F
:10A7B00008884FF6FF72904208D04888904205D032
:10A7C00008884A88904201DD0720E2E70020E0E7A0
:10A7D0002DE9F04107460D46144698462088801D15
:10A7E000404502D90C20BDE8F0813846FFF7C3FF91
:10A7F000064600BF304600B1F5E700BF05202188BE
:10A8000068542088401C20801220218868542088A9
:10A81000401C20802288511938880CF083F9218847
:10A82000084420802288511978880CF07BF921880F
:10A83000084420800020D6E710B5044600BF20461B
:10A84000FCF736FE00BF10BD30B587B01C2168464E
:10A85000FBF725FE002000904FF4A03001904FF44C
:10A86000F020029003208DF80C000020ADF80E00BF
:10A870008DF8100009480590094806906846FEF7D3
:10A8800015FA044600BF254625B100BF2846FCF74F
:10A890000FFE00BF00BF07B030BD0000D11D030098
:10A8A00039A80200F8B505460C46607A88B9207AC6
:10A8B00010B91048476801E00E4887682A463946B3
:10A8C0006068FCF783FE064616B130460AF026FEA5
:10A8D0000EE0002020720748406948B101208DF841
:10A8E0000000ADF80250034841696846884700BF40
:10A8F000F8BD0000444D0020F0B585B004460D467B
:10A9000017461E4614220B496846FBF7AFFDADF80B
:10A9100002408DF80850ADF80A708DF80C600022E6
:10A92000054801782046FEF79FFA684600F0B8FE19
:10A9300005B0F0BD90760300C140002010B586B090
:10A940000446208808F0A8F900BB2088FEF706FA24
:10A9500030B92088012241F2060100F078FC15E0B0
:10A96000208800220A490978FEF77EFA02208DF835
:10A9700004002088ADF8060000208DF80C000021AE
:10A980008DF80D1001A800F08BFE00BF06B010BDC1
:10A99000C140002010B5012200210846FFF7DCF974
:10A9A000044600BF1CB1072C01D0204610BD00BFDB
:10A9B000072202210120FFF7CFF9044600BF1CB196
:10A9C000072C01D02046F1E700BF0422022100201D
:10A9D000FFF7C2F9044600BF1CB1072C01D0204686
:10A9E000E4E700BF0020E1E72DE9FF4105460C4602
:10A9F00029492A4A891AC908042242EA01402B46F9
:10AA0000224627A105F018FD002002900390ADF822
:10AA10000840ADF80A40009001906A4602A9284615
:10AA200090DF0646002E32D0304606F065FB074622
:10AA300019491A4A891AC908012242EA01403B46CB
:10AA40002A46234905F0F8FCBDF8000010B9BDF80E
:10AA5000020068B1BDF80230BDF800200E490F4F6A
:10AA6000C91BC908012747EA01401AA105F0E4FC07
:10AA7000BDF8040058B1BDF804200749074BC91AB6
:10AA8000C908012343EA0140224905F0C9FC3046C8
:10AA900004B0BDE8F0810000589403005094030016
:10AAA0005570646174696E672064617461206C65BF
:10AAB0006E67746820746F202575206F6E20636F39
:10AAC0006E6E656374696F6E20307825782E000095
:10AAD000388003005468652072657175657374650C
:10AAE000642054582F5258207061636B6574206C39
:10AAF000656E67746820697320746F6F206C6F6E69
:10AB0000672062792025752F2575206F6374657421
:10AB1000732E00008480030010B5044621460248CD
:10AB2000FEF799FC10BD0000884200207CB5002093
:10AB30000090019008480090084801906846FEF790
:10AB4000D1F9044600BF254625B100BF2846FCF7D1
:10AB5000AFFC00BF00BF7CBD19AB0200004000206D
:10AB60002DE9F04105460F460F4C0121204603F028
:10AB7000CEFB064600BF00BF00BF00BFBFF35F8F24
:10AB800000BF00BF00BF0EB9012000E0002040B1AF
:10AB9000284602F033FD08B1BDE8F081024805F017
:10ABA00045FE00BFF8E70000E840002070B506460B
:10ABB0000D4616B14FF4064070BD287920B101282A
:10ABC00009D0022815D111E002202871284609F089
:10ABD00007FC044610E0284600F0AAFE044648F2AE
:10ABE0000960844201D141F61D5405E041F61D542F
:10ABF00002E048F20E6400BF00BF2046DCE7000020
:10AC00002DE9F04F89B004460F4691464FF0000BF6
:10AC100020216846FBF743FC94F8C60200EB800154
:10AC2000C1EB801004EB400594F8C50200EBC001B5
:10AC300005F10A0000EB410A94F8C502401C29798D
:10AC4000884207D108AB00225146204602F067FA3D
:10AC5000834627E094F8C5621FE02879401EB04281
:10AC600002D14FF0000806E0701C00EBC00105F1B6
:10AC70000A0000EB410808AB42465146204602F06C
:10AC80004EFA10B14FF0010B0AE0C24694F8C5022B
:10AC9000401C84F8C502701CC6B22879B042DCDCC6
:10ACA00000BF00BFBBF1000F05D1012038700020AC
:10ACB00009B0BDE8F08F0020387004208DF8000046
:10ACC000089804900394044802904A466946034851
:10ACD000006803F0C3FCEBE729AE020088400020C7
:10ACE00070B5044620793D2802D141F23D0001E0D3
:10ACF0004FF48850054620880022294602F0CEFBFA
:10AD000070BD000030B59FB004460D467C216846FA
:10AD1000FBF7C5FBADF8025003208DF8000001944D
:10AD20000448006818B168460249096888471FB09E
:10AD300030BD0000844000202DE9F04104460D465E
:10AD4000164694F8C60200EB8001C1EB801004EBBC
:10AD50004008404609F0A8FC0746E7B3D4F8CC0207
:10AD6000062838D204F53470D4F8CC1200EBC110A8
:10AD7000468004F53471D4F8CC2201EBC211081DD1
:10AD800076224146FBF772FB45B1002104F5347091
:10AD9000D4F8CC2200EBC210017007E0022104F5C8
:10ADA0003470D4F8CC2200EBC210017004F534707A
:10ADB000D4F8CC1200EBC110C767D4F8CC02401C09
:10ADC000C4F8CC020549D4F8CC020968884202D103
:10ADD000204608F07FFBBDE8F08100008C40002099
:10ADE0002DE9F041A0B004460D46164694F8C6027F
:10ADF00000EB8001C1EB801004EB4008404609F0F5
:10AE000053FC074657B17C22064901A8FBF72EFBED
:10AE1000ADF80660029501A8B84700BF20B0BDE8B4
:10AE2000F08100007C7503002DE9F04105460C46D9
:10AE300016462746002087F8C8023246294638467B
:10AE4000FFF7CEFF31463846FFF75CFFBDE8F081E3
:10AE5000F0B589B004460E464FF4BA612046FBF7C0
:10AE60001EFB202101A8FBF71AFB3146244800688D
:10AE700003F0A6FB054600BF284608B109B0F0BDA7
:10AE800000BFA4F8CA620020C4F8CC0284F8C7024C
:10AE900084F8C60284F8C50294F8C60200EB80016B
:10AEA000C1EB801004EB400794F8C602154901EB92
:10AEB0008000006838603A881349144BC91AC908E1
:10AEC000042343EA01403346114905F0B5FA022054
:10AED0008DF804000120ADF814003968CDF8161083
:10AEE00004940C480390324601A90548006803F019
:10AEF000B5FB054615B9012084F8C8022846BDE710
:10AF000088400020F84C0020509403005094030027
:10AF1000A87F030029AE020010B50021034803F00A
:10AF2000F6F9044684F3100010BD00008C5900208F
:10AF300070B505460C464FF4803000FA04F12846FF
:10AF400000F06CFB70BD70B505460C464FF4A07068
:10AF500000EB840086B23146284600F07FFB70BDCE
:10AF60002DE9F04704460D4616461F464FF4803043
:10AF700000FA05F84FF4A07000EB85001FFA80F985
:10AF800026F07F464146206805F090FD4146206846
:10AF900005F086FD4946206805F07BFD32462946CE
:10AFA000206805F06DFD4146206805F07CFD1FB16D
:10AFB0004146206805F07DFDBDE8F08710B50446E8
:10AFC000206805F062FD10BD2DE9F04704460D46EE
:10AFD00017466079324941F820706079314901EBB8
:10AFE000C000007968B108262F49304A891AC9087B
:10AFF000022242EA01402EA105F008FA3046BDE8DF
:10B00000F08729882068C0F8081500BF94F904204B
:10B01000AB7810461946002808DB4FEA417C4FEA1E
:10B020001C68DFF8B0C00CF800800BE04FEA417CF0
:10B030004FEA1C69DFF8A0C000F00F08A8F104086F
:10B040000CF8089000BF00BF94F9041008460028CF
:10B050000DDB00BF00BF00F01F0301229A4043092F
:10B060009B0003F1E023C3F8002100BF00BF00BF35
:10B0700000BF012061790B4A02EBC10108716079C0
:10B08000114641F8304000260749084A891AC90884
:10B09000032242EA014011A105F0B8F93046AEE7BB
:10B0A000604100206441002000950300509403009B
:10B0B00052544320696E7374616E636520616C72D3
:10B0C0006561647920696E697469616C697A656427
:10B0D0002E00000000E400E018ED00E05254433A76
:10B0E00020696E697469616C697A65642E0000007C
:10B0F00010B5014691F90400002807DB00F01F039A
:10B1000001229A40024B440943F8242000BF10BD9D
:10B1100000E200E070B505460C46224602212846B2
:10B1200000F088FA70BD10B504464FF482712046D5
:10B1300000F094FA10BD10B504460021206805F017
:10B14000BBFC10BD10B504460421206805F0B4FC1A
:10B1500010BD2DE9F84F04468846154699464FF430
:10B16000803000FA08FA4FF4A07000EB88001FFA54
:10B1700080FB25F07F455146204600F04FFA2068BD
:10B1800005F083FC06464146206805F073FC0090FC
:10B1900032464146206805F073FC5946206805F0A8
:10B1A00078FC314600980AF0F7FF012806D11020FC
:10B1B00006F06AF85946206805F06BFC206805F037
:10B1C00064FC0646314628460AF0E6FF074651462B
:10B1D000206805F068FC012F0FD16A1C41462068E9
:10B1E00005F04EFC102006F04FF8206805F04DFCED
:10B1F000B04225D00D20BDE8F88F2A464146206890
:10B2000005F03EFC206805F040FC0646681E31460D
:10B210000AF0C2FF07466FF07F40A0EB0900B8427A
:10B2200001D20D20E7E75FB96A1C4146206805F0AE
:10B2300027FC206805F029FCB04201D00D20DAE798
:10B2400001225146204600F0F5F90020D3E770B501
:10B2500006460C4615462B46224600213046FFF78F
:10B260004BFB70BD2DE9F84305460E461746984640
:10B2700069461048006802F052FF044614B90420E1
:10B28000BDE8F8831C212046FBF709F90120207155
:10B290002560C4F8088008480068B6FBF0F0E0605C
:10B2A000676169460348006802F063FF08F0EEFE3C
:10B2B0000020E5E7547A0300487A030010B50446FD
:10B2C000D4E90321501828DF10BD0000F8B5054669
:10B2D0002846FBF70DF9C6B2234800230122C168B6
:10B2E00004F004F9044600BF274627B100BF3846E2
:10B2F000FCF7DEF800BF00BF1C491D4A891AC908C7
:10B30000032242EA01401BA105F080F8721C294685
:10B310001B48FBF7ABF8721C29461A48FBF7A6F846
:10B32000402217491848FBF7A1F800204023164A8D
:10B330000090164801680C4804F050FB044600BF1A
:10B34000274627B100BF3846FCF7B2F800BF00BF60
:10B350000649074A891AC908032242EA01400CA19A
:10B3600005F054F8F8BD00002042002028950300A5
:10B3700050940300657261736520446F6E652E0002
:10B3800048420020D8390020E449002058400020DD
:10B39000777269746520446F6E652E00F8B50646B5
:10B3A000264800230122C16804F0A0F8044600BF2B
:10B3B000274627B100BF3846FCF77AF800BF00BF28
:10B3C0001F49204A891AC908032242EA01401EA1E6
:10B3D00005F01CF83046FBF78BF8C5B21C2D00DDDC
:10B3E0001C252A4631461B48FBF740F80021194826
:10B3F00041554022A0F120011748FBF737F8002003
:10B400004023154A0090154801680C4804F0E6FAFC
:10B41000044600BF274627B100BF3846FCF748F86E
:10B4200000BF00BF0649074A891AC908032242EA39
:10B4300001400BA104F0EAFFF8BD0000204200200B
:10B440002895030050940300657261736520446F72
:10B450006E652E0068420020E4490020584000201C
:10B46000777269746520446F6E652E000278072A32
:10B4700038D2DFE802F037040712222B3400002212
:10B480000A7030E001220A7003898B818388CB81A6
:10B49000C2688A6000230B7425E002220A700389C7
:10B4A0008B818388CB81C2688A60827D062A01D124
:10B4B000012300E000230B7415E003220A70C38807
:10B4C0008B810389CB81C2688A600CE004220A70F8
:10B4D000C3888B810023CB8100228A6003E0052290
:10B4E0000A7000E000BF00BF7047000030B587B0B1
:10B4F00004460D462068806808B907B030BD1821A1
:10B5000001A8FAF7CCFF0295A0680690207910B147
:10B51000012815D109E001208DF80400206903906D
:10B52000E0680490606905900BE002208DF804004B
:10B530000749E0680968484303906069059000E0A6
:10B5400000BF00BF2068816801A8884700BFD4E71A
:10B55000487A030070B50546002409E0064850F813
:10B56000240020B1044850F8241028468847641C61
:10B57000042CF3D370BD0000E8520020F0B585B074
:10B5800005460C461646002C3ED0112C3CD0082C0B
:10B590003AD00D2C24D11D491D4A891AC90802220E
:10B5A00042EA01402A461B4904F03AFF2A46032199
:10B5B000684602F03BFB2EB1307800F0010008B184
:10B5C000012000E002208DF8080000218DF80C1009
:10B5D00041F20111ADF80A10684600F075F813E069
:10B5E000204605F089FD07460849094A891AC90815
:10B5F000012242EA01402B463A46074904F01CFF6B
:10B600002146284609F0E4FF05B0F0BD98940300F8
:10B6100050940300C4870300D488030070B5044627
:10B620000D462946206805F03BFA2946206805F0BA
:10B630003DFA70BD70B504460E4615463146206889
:10B6400005F031FA1DB13146206805F032FA70BDBF
:10B6500010B50446204600F037F810BD70B5054619
:10B660000C462868015929B12146286805F011FACD
:10B67000012070BD0020FCE770B50546002405E000
:10B68000054850F8241028468847641C0348007871
:10B690008442F5DB70BD0000DC4D0020AA40002094
:10B6A00070B50446608801F023FAA080002505E00B
:10B6B000044850F82510204688476D1C002DF7D00F
:10B6C00070BD00005076030070B50546002405E00B
:10B6D000044850F8241028468847641C002CF7D0F2
:10B6E00070BD0000DC76030070B50446608801F090
:10B6F000FFF9A080002505E0044850F825102046F9
:10B7000088476D1C002DF7D070BD0000E040002080
:10B7100070B50446A08801F01BF96080002505E0A3
:10B72000044850F82510204688476D1C002DF7D09E
:10B7300070BD0000F440002070B50546002405E00F
:10B74000044850F8241028468847641C022CF7D37C
:10B7500070BD00006877030038B5054610480078D2
:10B7600010B948F2016038BD4FF6FF70854202D132
:10B7700048F20360F7E7684608F010FA044614B987
:10B7800048F20760EFE70520207001202071E58076
:10B79000684608F013FA08F087FC0020E3E7000091
:10B7A0008841002038B5044614B948F2046038BD19
:10B7B0006946204608F032FE08B3BDF8000000EBF1
:10B7C0008000114901EB8000C068A8B1A07A98B14F
:10B7D000BDF8000000EB800001EB8000C068401E57
:10B7E000BDF8001001EB8101074A02EB8101C8603E
:10B7F0000020A072002504E048F2056501E048F24F
:10B8000009652846D3E70000945300207FB514460D
:10B810001D462B46224601A9684608F097FD04B054
:10B8200070BD37B50C4615462B46224669460020AA
:10B8300008F08CFD3EBD37B50C4615462B4622461A
:10B840000021684608F082FD3EBD024602B111B9F2
:10B8500048F204607047106808600020FAE70000B2
:10B86000F8B504460D4604B115B948F20460F8BDB8
:10B870006946204608F0D2FDA0B16668BDF8001008
:10B8800001EB8101094A02EB810101F10C00012168
:10B8900002F006FD2E6060680C3068600120A07226
:10B8A0000020E4E748F20960E1E70000945300203B
:10B8B00070B504460D4614B948F2046070BD032308
:10B8C0000022294620460BF0B9FCF7E770B5044684
:10B8D0000D4602230022294620460BF0AFFC70BD26
:10B8E00070B504460D462A460021204600F00EF8A9
:10B8F000A068401CA06070BD01468A68C868801AB4
:10B90000704701468A68C868801A704710B5836816
:10B910000B44848823400468E35C137010BDC26844
:10B9200083881A4003689954C268521CC2607047E9
:10B930003EB504460A4B6A460021A01D08F006FDEC
:10B94000054635B9064A9188019808F0E1FD05469B
:10B9500003E0034800210160416028463EBD00002D
:10B96000A44100200146A1F5404080B2704770B567
:10B9700004460D4628784008A178B0EB510F07D156
:10B980000622E11C681CFAF7C8FD08B9012070BD49
:10B990000020FCE770B505460E46144624B131463A
:10B9A000284602F059FC03E03146284602F0EFFB3E
:10B9B00070BD30B504461088C01C984201D90C20D7
:10B9C00030BD0220158848551088401C1080012089
:10B9D000158848551088401C108015884C551088D3
:10B9E000401C10800020EBE770B504460D4640F285
:10B9F0001442115B0122D4F81004FCF72CFE064619
:10BA000006B1357004F13C0204F5826104F1540082
:10BA100072DF70BD2DE9F04106460C461546002741
:10BA2000112C01D1012700E0002765B13A460A48F0
:10BA300001783046FDF718FA0022084801783046B0
:10BA4000FDF712FA05E03A46044801783046FDF762
:10BA50000BFABDE8F0810000DF400020DC40002050
:10BA6000F7B50D4617460DB90020FEBD002600981B
:10BA700068B1002409E02146684602F0DEFB18B1F7
:10BA8000A0B23946A847761C641C142CF3D3304668
:10BA9000EBE770B504460D46E0B2FBF76FFE2046BB
:10BAA00070BD10B50446606808F08EFA10BD000045
:10BAB00070B50446606850B11749184A891AC90818
:10BAC000032242EA0140164904F0A0FC70BD207830
:10BAD000012802D002281AD10CE00F490F4D491B52
:10BAE000C908032545EA01400EA1A368226904F0B4
:10BAF000A3FC0DE00849094D491BC908032545EA87
:10BB0000014015A1A368226904F096FC00E000BF83
:10BB100000BF00BFDAE7000028950300509403003F
:10BB2000387D03002D2D3E204576656E74207265AC
:10BB30006365697665643A2077726F746520256461
:10BB40002062797465732061742061646472657326
:10BB50007320307825782E002D2D3E204576656E99
:10BB6000742072656365697665643A2065726173F5
:10BB7000656420256420706167652066726F6D20A2
:10BB80006164647265737320307825782E0000003C
:10BB90003EB500BF9DF8000020F00F00401C009053
:10BBA0009DF8000020F0F0001030009000BF174812
:10BBB000FAF79EFC85B22A46144968467CDF0446A3
:10BBC00000BF254625B100BF2846FBF771FC00BF2A
:10BBD00000BF0020019002901020ADF8040050201A
:10BBE000ADF806000020ADF808004FF4C870ADF8BD
:10BBF0000A0001A87ADF044600BF254625B100BF30
:10BC00002846FBF755FC00BF00BF3EBDF8390020B9
:10BC10002DE9F04106460C46174625460849094AD3
:10BC2000891AC908042242EA01403A4606A104F0F2
:10BC3000F7FB286910B1304629698847BDE8F081D3
:10BC4000B8940300509403004120474154542043CA
:10BC50006C69656E74206572726F72206861732002
:10BC60006F63637572726564206F6E20636F6E6EB2
:10BC70005F68616E646C653A20305825580000009A
:10BC800070B505460C46208840F6772188421AD1C7
:10BC90000D490E4A891AC908032242EA01400CA143
:10BCA00004F0B4FBA088C01E104908800649074A6A
:10BCB000891AC908032242EA01400C490B880A8804
:10BCC0000BA104F0B9FB70BD28950300509403004C
:10BCD000415454204D54552065786368616E676502
:10BCE00020636F6D706C657465642E0040400020A9
:10BCF000426C65204E5553206D61782064617461FB
:10BD0000206C656E6774682073657420746F2030D2
:10BD1000782558282564290070B50E490E4802F090
:10BD20009EFB044600BF254625B100BF2846FBF711
:10BD3000BFFB00BF00BFF721074802F081FB0446AC
:10BD400000BF254625B100BF2846FBF7B1FB00BF69
:10BD500000BF70BD81BC0200A042002070B5064645
:10BD60000C4604F11005E888102801DD092070BD9B
:10BD7000E988304604F0BEFC6060606808B90420C1
:10BD8000F5E7EA88A9680023606804F03EFD0649EB
:10BD9000064BC91AC908042343EA014004A162689A
:10BDA00004F03EFB0020E2E760940300509403009F
:10BDB000506F696E74657220746F20616C6C6F6374
:10BDC00061746564206D656D6F727920626C6F635C
:10BDD0006B3A2025702E000070B506460C4604F123
:10BDE0001005A8680088102801DD092070BDA8682A
:10BDF0000088811C304604F07DFC6060606808B9F2
:10BE00000420F3E7A96800230222606804F0FDFC27
:10BE1000AB681A88E9680223606804F0F6FC0649FA
:10BE2000064BC91AC908042343EA014004A1626809
:10BE300004F0F6FA0020D9E7609403005094030060
:10BE4000506F696E74657220746F20616C6C6F63E3
:10BE500061746564206D656D6F727920626C6F63CB
:10BE60006B3A2025702E000070B5054615B14FF4D1
:10BE7000064070BD1848007B18B1002016490873B1
:10BE800001E000F0DFF81448007808281DD2DFE850
:10BE900000F01C04080C101C141800F03FF80446B5
:10BEA00016E000F0BDF8044612E000F099F80446F0
:10BEB0000EE000F047F804460AE000F035F90446C9
:10BEC00006E000F043F9044602E048F20E6400BFC9
:10BED00000BF2046CDE70000BC5300200D4800897C
:10BEE000401C0C49088100204880087300BF0DE009
:10BEF00000EB8001084A12F8211009B9012200E084
:10BF0000002204490A310A54411C88B20228EFDB9E
:10BF100070470000BC5300209453002010B508481F
:10BF200000F036F840B900200549891E08704880A5
:10BF3000486041F61D5010BD00F072F8FBE70000AC
:10BF4000BE53002070B50F48458805EB85000E49AB
:10BF500001EB8000C06878B904200A49087005EB3D
:10BF60008500094A02EB800000230122416807484E
:10BF700003F0BCFA044602E000F090F804462046C4
:10BF800070BD0000BC5300209453002034420020B8
:10BF900010B501460022002018E00F4B1B5C9BB13E
:10BFA00000240D4B1C5400EB80030C4C04EB83036A
:10BFB000DB684BB900EB800304EB83031B7C012B94
:10BFC00002D10880012203E0431C98B20228E4DB7E
:10BFD00000BF104610BD0000C6530020945300203F
:10BFE000F8B50C4844680C4800680B49898800EB98
:10BFF00081056088C01C86B20320064908700020B5
:10C00000B3000090084629464268044803F0E6FC65
:10C01000F8BD0000BC5300209C41002034420020A9
:10C0200010B507494888091D08F036FA18B1FFF71E
:10C03000D7FF044602E0FFF785FF0446204610BD07
:10C04000BC53002010B514480078082820D2DFE83F
:10C0500000F0041F1F0A1016171BFFF73FFF0120F7
:10C060000D49087015E000F07DF802200A490870BB
:10C070000FE000F029F806200749087009E000BF2A
:10C0800007200549087004E001200349087000E01A
:10C0900000BF00BF10BD0000BC53002010B505203C
:10C0A00006490870022006498880084600230122BC
:10C0B0000168044803F01AFA10BD0000BC530020C8
:10C0C0009C410020344200201449086814494988E2
:10C0D00001EB8101134A02EB810149680F4A1160AB
:10C0E0000F49498801EB81010E4A02EB810148604A
:10C0F0000A4989880A4A528802EB8202094B03EBFB
:10C10000820211810221054A91800021044A52884D
:10C1100002EB820203EB8202117470479C41002003
:10C12000BC5300209453002010B506200549087028
:10C13000498801EB8101044A02EB8101486806F05D
:10C1400089FD10BDBC5300209453002010B507207A
:10C15000034908700020486006F08CFD10BD000007
:10C16000BC530020054A50684288D21C91B2044A50
:10C1700092880A44024B9A8070470000BC5300200A
:10C180009C4100202DE9F04186B00446A688208815
:10C1900050282ED004DC352836D0362808D189E046
:10C1A000522802D05428F9D103E0304601F0B8F902
:10C1B000B9E01422634901A8FAF758F9ADF806600E
:10C1C000304600F095FCADF80800BDF8080000F01E
:10C1D000ABF900225C4801783046FCF745FE0022AE
:10C1E0005A4801783046FCF73FFE01A8FFF77CFA79
:10C1F00099E0A01DFEF7B6F828B10121304601F004
:10C20000F1F90AF003FD8EE00027A68804F10A0583
:10C210004F4801783046FCF711FE00B983E0002258
:10C220004B4801783046FCF71FFEE088B0F5857F6B
:10C230003AD0E08858B1E2884649474BC91AC90844
:10C24000022343EA014045A104F0EAF82CE02888E3
:10C2500001280AD02A883F493F4BC91AC90802233E
:10C2600043EA01404CA104F0DBF8688801280BD0B8
:10C270006A883849384BC91AC908022343EA014081
:10C2800054A104F0CDF80FE0A98800223046A1DFC8
:10C290008046B8F1000F06D1012701225C480178E1
:10C2A0003046FCF7E1FD00BF1FB90021304609F020
:10C2B000FDFE38E00027A68804F10A0554480178FD
:10C2C0003046FCF7BBFD00B92DE000225048017854
:10C2D0003046FCF7C9FDE08858B1E2881D491E4B85
:10C2E000C91AC908022343EA01401CA104F098F8C6
:10C2F00014E0A88801280BD0AA881649164BC91A41
:10C30000C908022343EA014032A104F089F805E09C
:10C31000A87908B1012000E00020074639463046E0
:10C3200009F0C4FE00BF00BF00BF002239493A48EF
:10C330000078FCF723FD00BF09F00CFA06B0BDE859
:10C34000F08100003C770300EF400020EE40002029
:10C35000F1400020A094030050940300556E6578CE
:10C36000706563746564204741545420737461742C
:10C370007573207768696C652067657474696E678A
:10C380002043415220636861722076616C75653A82
:10C3900020307825780000004D756C7469706C65EC
:10C3A000202825642920434152206368617261631B
:10C3B00074657269737469637320666F756E642C3B
:10C3C000207573696E67207468652066697273747E
:10C3D0002E000000556E65787065637465642043B7
:10C3E0004152206368617261637465726973746934
:10C3F000632076616C7565206C656E6774682028B3
:10C400002564292C2073746F726520302E00000083
:10C41000F240002087790200ED40002010B504466C
:10C42000207858B9608801F07BF8608809F082F9BB
:10C430006088FDF731FF0AF0E9FB00E000BF00BFB4
:10C4400010BD00007CB504462078082840D1607AF1
:10C4500000283DD1207A012814D0072802D00828CE
:10C4600034D12BE0A08800F073FA05464FF6FF7038
:10C47000854206D00121284601F0B4F82846FDF790
:10C480000BFF24E0A0886A46012106F0C9FC06469D
:10C490009EB90198007880B1A08800F059FA05464D
:10C4A0004FF6FF70854207D001220B4801782846DD
:10C4B000FCF7DAFC09F04EF900BF08E00748006815
:10C4C000012802D1054804F0B1F900E000BF00BF27
:10C4D0000AF09CFB7CBD0000EE400020E8400020FC
:10C4E00070B50B48FEF76AFD0A4B0CCB841843F17C
:10C4F0000005094903C9201A75EB010004D24FF069
:10C500008073E41845F100052046294670BD0000FF
:10C5100020410020304100203841002001480068BF
:10C5200070470000604000201CB50446044903C960
:10C53000CDE9000100226946204606F027FE1CBD19
:10C54000607703002DE9FC470546284600F0D0FA45
:10C5500006460027B8464FF003094FF0010A4FF690
:10C56000FF7086420DD06A460821304606F058FC1E
:10C57000044634B90198871DB0F80480D0F80090C3
:10C5800000BF00BF4B46424639462846B1DF04464D
:10C59000042C01D1112422E0082C01D100241EE03A
:10C5A0000B2C1CD14FF0000A09F0020010B14FF023
:10C5B000010914E017B9B8F1000F04D00027B846FC
:10C5C0004FF003090BE00A490A4A891AC9080122F7
:10C5D00042EA01402A46084903F022FF03240B2CBB
:10C5E000D0D0BAF1000F00D10B242046BDE8FC8763
:10C5F000A894030050940300988B03002DE9FC5F7E
:10C600008046404600F074FA06464FF6FF708642B8
:10C6100003D143F20200BDE8FC9F4FF001094FF047
:10C62000000A00BF4FF0000A4A46511C1FFA81F968
:10C630006B460821304606F055FC0446002C31D1EB
:10C64000019D032028602A1DA91D40462B68B2DFEA
:10C65000044634B932460821304606F0CBFC044685
:10C660001FE00C2C02D14FF0010A02E0052C00D192
:10C6700000240821304606F0ADFC074687B1384655
:10C6800004F03AFD83460C490C4A891AC908012274
:10C6900042EA01405B463246094903F0CDFE0324DD
:10C6A00000BF02E0072C00D10C24BAF1000FB9D171
:10C6B00000BF2046AFE70000A89403005094030099
:10C6C000188B030010B50446044800884FF6FF712C
:10C6D000884201D009F04AF810BD0000FA4000205D
:10C6E000FEB5044602A80190204600F001FA064675
:10C6F0006A460121304606F093FB05460DB1002045
:10C70000FEBD01980078FBE72DE9F04105464FF6A4
:10C71000FF761648B3DF04468CB1204604F0ECFCEB
:10C7200007461349134A891AC908012242EA0140FF
:10C730003A46114903F074FE0320BDE8F08100BFC2
:10C740004FF6FF72094801882846AFDF044643F2DE
:10C750000300844204D105480088401C0349088036
:10C7600043F203008442EBD02046E6E7FC40002081
:10C77000A894030050940300CC8A030070B50446CB
:10C780000D46204600F01DF8A84201D9022070BDD8
:10C79000A0884FF6FF71884204D0208810B1A068AD
:10C7A000401C08B90120F2E70020F0E702461346DA
:10C7B0008B4204D21868401C08B101207047002049
:10C7C000FCE701464A8801F10C0000EB820070474B
:10C7D00010B503F019FC08B904F054F810BD3EB5CB
:10C7E00004460D4620780221B1EB500F01D0002005
:10C7F0003EBDB4F80100ADF80800E0788DF80A00FD
:10C80000A188ADF80010A0798DF8020001AA694650
:10C810002846FAF7B9FD032201A902A8F9F77DFE1F
:10C8200008B90120E4E70020E2E7000070B5044603
:10C830000D46142C03DA2046FCF72CFB10B943F20A
:10C84000020070BD04EB8400054901EB4000D0F804
:10C8500002102960C188A980007AA8710020F0E741
:10C86000E84F002030B591B005462888102801D047
:10C8700011B030BD2C22291D06A8F9F7F7FD4FF69F
:10C88000FF749DF81C000321B1EB500F35D006F06A
:10C8900027FC9DF81C00400820B1012803D0022885
:10C8A00028D114E000BF09E0049800F1110107A8A5
:10C8B000FAF7F5FB10B1BDF8144006E003AA05A98C
:10C8C000072006F0D7FB0028EED100BF13E008E0F8
:10C8D0000498411C07A8FFF782FF10B1BDF814406F
:10C8E00006E003AA05A9072006F0C4FB0028EFD143
:10C8F00000BF00E000BF00BF00BFBDF8180000EBA4
:10C900008000124921F81040BDF8180000EB8000AB
:10C9100001EB40000799C0F80210BDF82010C1805B
:10C920009DF8221001724FF6FF7084420CD0BDF8C2
:10C930001800ADF80600ADF8084000208DF804009E
:10C9400001A8FEF7F9FE00BF00BF91E7E84F002005
:10C9500070B505464FF6FF70854200D170BD0024CA
:10C960000EE004EB8400094931F81000A84205D11B
:10C970002046FCF78FFA08B12046EFE7601C84B22E
:10C98000142CEEDB4FF6FF70E8E70000E84F0020C4
:10C990003EB505460C4606F0A3FB0BE0BDF80800CB
:10C9A000A04207D02846019900F00EF810B1BDF85A
:10C9B00008003EBD6A4602A9072006F05BFB00287E
:10C9C000ECD14FF6FF70F4E72DE9F04704460D4631
:10C9D00004F1110605F111071022691C601CF9F71A
:10C9E0009CFD48B9601C00F0C9FB28B1681C00F030
:10C9F000C5FB08B1012000E00020824639463046E0
:10CA0000FAF74DFB804630780221B1EB500F10D081
:10CA100030780321B1EB500F0BD038780221B1EB05
:10CA2000500F06D038780321B1EB500F01D0012010
:10CA300000E000208146B8F1000F02D0B9F1000FEC
:10CA400005D1BAF1000F05D0B9F1000F02D10120D4
:10CA5000BDE8F0870020FBE70246108808B10120FE
:10CA60007047002105E0901C405C08B10120F7E709
:10CA7000491C0829F7D30020F2E770B505460C469B
:10CA80002846FFF7E9FF08B9002070BD28882188F3
:10CA9000884201D00020F8E70822A11CA81CF9F761
:10CAA0003CFD08B90120F0E70020EEE7142804DA85
:10CAB00000EB8002014B23F812107047E84F002072
:10CAC00070B506463046FFF743FF0446304606F091
:10CAD000B3F9054645B9142C06DA4FF6FF7004EB9E
:10CAE0008401024A22F81100284670BDE84F002058
:10CAF00010B50446142C03DA2046FCF7CBF910B924
:10CB00004FF6FF7010BD04EB8400024931F81000AD
:10CB1000F8E70000E84F00203EB5044606F0E0FAD2
:10CB200010E0019800F146012046FFF7A6FF30B95A
:10CB3000019800F12A012046FFF79FFF10B1BDF8D0
:10CB400008003EBD6A4602A9072006F093FA0028B5
:10CB5000E7D14FF6FF70F4E770B504460D4609487B
:10CB60006060094801F095FB50B904F0EFF90649FF
:10CB700008741C238C2205490548006801F0BBFAA3
:10CB8000002070BD487A0300D452002038520020A3
:10CB9000547A03002DE9F04106460C4648F20E6730
:10CBA00036B10020434948604FF40640BDE8F081AB
:10CBB000207930B101280AD0022835D003286DD160
:10CBC00040E00120207106F055F8074667E04FF07D
:10CBD0000008002519E005EB8500374911F8200011
:10CBE000022810D1002005EB8501334A02F821000C
:10CBF0004FF0010805EB850102EB8101486806F062
:10CC000029F8074603E0681C85B2022DE3DB00BF6C
:10CC1000B8F1000F07D101202649087000204860B4
:10CC200041F61D50C2E73AE000202071022023495E
:10CC300088800846002301220168214802F056FC42
:10CC400007462CE0002020711C49086806F002F815
:10CC500007461C4845881948D0F8008005EB850038
:10CC6000154901EB800040681449086005EB850018
:10CC7000114901EB8000C0F804801048808805EB62
:10CC800085010D4A02EB8101088102200B49888051
:10CC9000002005EB850102F8210000E000BF00BF85
:10CCA0002FB100200349486048F20D607EE7002064
:10CCB0007CE7000088410020945300209C41002024
:10CCC00034420020BC530020024600210CE001EB5E
:10CCD0008100074B33F82000904204D101EB810022
:10CCE00003EB80007047491C0029F0D00020F9E7D1
:10CCF000304D00202DE9FC5F83460E4691461F46CD
:10CD0000DDE90C45002E01DA704200E03046824633
:10CD10004FF0010803E09AFBF9FA08F10108CA454F
:10CD2000F9DA474500D9B84634B1002E03DB05F0E7
:10CD30000400042800D1641E05F0020000B167B1B0
:10CD400005F0010048B944B104E0641E20215846B2
:10CD5000FDF780FA0CB1A045F7D3002E05DA764234
:10CD60002D215846FDF776FA07E005F00400042867
:10CD700003D12B215846FDF76DFA05F00200022879
:10CD80000DD105F0010050B94FB944B104E0641E63
:10CD900030215846FDF75EFA0CB1A045F7D33B466B
:10CDA0004A4631465846CDE9004509F0D3FEBDE874
:10CDB000FC9F000070B505461249286804F0D7F9B9
:10CDC000286804F071FA04462046002817DB00F0BA
:10CDD0001F02012191400C4A430942F8231000BF71
:10CDE00000BF00BFBFF34F8F00BF00BF00BF00BF39
:10CDF00000BF00BFBFF36F8F00BF00BF00BF00BF09
:10CE000000BF70BD8402020080E100E070B50546FD
:10CE10001249286804F0DEF9286804F049FA04464B
:10CE20002046002817DB00F01F02012191400C4A28
:10CE3000430942F8231000BF00BF00BFBFF34F8F6C
:10CE400000BF00BF00BF00BF00BF00BFBFF36F8FB8
:10CE500000BF00BF00BF00BF00BF70BD1003420095
:10CE600080E100E02DE9F04104460E464FF48E715A
:10CE7000206804F06FF94FF4A271206804F06AF999
:10CE80001A49206804F076F9206804F00DFA054686
:10CE9000374628463946002804DB4A07130E144A51
:10CEA000135408E04A074FEA126C124A00F00F03CD
:10CEB0001B1F02F803C000BF00BF206804F0F4F994
:10CEC0000546284600280DDB00BF00BF00F01F020A
:10CED000012191404209920002F1E022C2F80011C2
:10CEE00000BF00BF00BF00BFBDE8F08180000200AE
:10CEF00000E400E018ED00E02DE9F04104460E46A4
:10CF00004FF48871206804F058F94FF4907120684C
:10CF100004F053F94FF49271206804F04EF94FF485
:10CF2000A271206804F049F94FF4AC71206804F054
:10CF300044F91B49206804F050F9206804F0B8F95E
:10CF40000546374628463946002804DB4A07130EB3
:10CF5000144A135408E04A074FEA126C124A00F0D0
:10CF60000F031B1F02F803C000BF00BF206804F0BE
:10CF70009FF90546284600280DDB00BF00BF00F0E2
:10CF80001F02012191404209920002F1E022C2F801
:10CF9000001100BF00BF00BF00BFBDE8F08100006E
:10CFA0001003420000E400E018ED00E030B5024656
:10CFB00000201378C3F38003D3B1137803F0030385
:10CFC000012B02D0022B10D107E01388C3F3831387
:10CFD0009B1C0C6823440B6008E00B680225146856
:10CFE00005EB945423440B6000E000BF00BF012018
:10CFF00030BD2DE9F04704460E469046002722E05A
:10D00000384604F087F80546384604F08AF8814629
:10D010002046294642580AB1012200E0002282B18E
:10D020004846D4F80413014009B1012100E0002171
:10D0300039B12946204604F079F82846D6E900217E
:10D040009047781CC7B24745DADBBDE8F087014658
:10D0500000220AE0486830F812004FF6FF73984249
:10D0600001D001207047501C82B208889042F1DC48
:10D070000020F7E701460348007A08B10120704715
:10D080000020FCE7D452002010B502460B8992F82C
:10D09000C60200EB8004C4EB801002EB4000008964
:10D0A000834201DA012010BD0020FCE72DE9F041A8
:10D0B0000446A08800EB020CB4F80480904501DD22
:10D0C000104600E0A088A8EB0005E088C618B4F878
:10D0D0000680984501DD184600E0E088A8EB0007CF
:10D0E0004888B4F80080404504DB4888B4F80280E2
:10D0F000404502DD0020BDE8F0818888A84202D3C7
:10D100008888604501D90020F5E7C888B84202D375
:10D11000C888B04201D90020EDE70120EBE770B5E7
:10D120000446E2B90D8994F8C60200EB8006C6EB0E
:10D13000801004EB40000089854201D1002070BDC1
:10D140000889401C188094F8C60200EB8005C5EBE6
:10D15000801004EB4000008958800120EFE7088927
:10D16000401CD588A84201D10020E8E70889401C6E
:10D170001880D088401E58800120E0E70246002138
:10D1800004E0505C08B101207047491C1029F8D315
:10D190000020F9E7014691F84000C0F3C1000128E2
:10D1A00005D091F84000C0F3C100032801D101204F
:10D1B00070470020FCE7014601F0030008B9012098
:10D1C00070470020FCE70146086808B102680A6061
:10D1D00070477CB504466A460721204605F020FECC
:10D1E00005463DB9019890F8440000F0010008B1EF
:10D1F00001207CBD0020FCE710B504462246012139
:10D20000002002F0A9FD002105E054F8210008B13A
:10D21000012010BD491C0029F7D00020F9E70000CB
:10D2200010B50848007850B1002405E0022C02D067
:10D230002046FCF7C3FC641C042CF7D301E0FCF788
:10D24000E9FC10BD6C40002010B503F0E3FF20B9ED
:10D2500004F004F800200149887010BDC05000207F
:10D26000F721018017214180002101714171FB21CB
:10D2700081711B21C17170472DE9FE4F80460F4619
:10D28000924699460FB1002612E0684600F0BEFCB7
:10D290006A460021404605F06BFD009E2A48007852
:10D2A00028B99DF8090010B90520BDE8FE8F00BF20
:10D2B00052463146404608F0B0FD04460022214661
:10D2C0004046FEF7A7FB0D2C1CD005DCCCB1082C8A
:10D2D0001AD00B2C1BD118E0112C04D0A4F540500F
:10D2E0000238A0B90FE03A46184801784046FBF7EB
:10D2F000BBFD5246164801784046FBF7B5FD0025B8
:10D3000017E000BF00BF00BF00BF254611E0204668
:10D3100003F0F2FE83460F490F4A891AC908012219
:10D3200042EA014043465A460C4903F085F803257A
:10D3300000BF00BFB9F1000F04D03246214640467D
:10D34000FEF71CF92846B0E7D4400020DE4000205C
:10D35000DD40002098940300509403007C88030073
:10D3600070B505460E46314628467EDF0446042C3D
:10D3700000D11124204670BD2DE9F04780460C46AF
:10D3800017462CB900214046FFF7EAFFBDE8F087B9
:10D390003A46174801784046FBF766FD4046FFF7DE
:10D3A000A7FB06464FF6FF70864206D02FB93146DE
:10D3B000404600F01FF8054617E021464046FFF7BB
:10D3C000CFFF05462CB1207800F0010008B1012004
:10D3D00000E0022081460DB9012000E00020014656
:10D3E0004A46404607F0EEFF00BF2846CEE7000061
:10D3F000C44000202DE9FC4780460E46002500274A
:10D400006A460721304605F00BFD04465CB90198D9
:10D4100000F11805019890F8440000F0010717B1D9
:10D42000019800F13405ACB1052C13D0112C22D099
:10D43000204603F061FE81461549164A891AC9083B
:10D44000012242EA014033464A46134902F0F4FF02
:10D45000032410E00DB911240DE037B905F11200D5
:10D46000FFF7FAFA08B90B2405E02A4605F1120184
:10D47000404685DF04460CB9012000E0002001464B
:10D480000022404607F09EFF2046BDE8FC870000D2
:10D4900090940300509403000C87030070B5044679
:10D4A0000D461646204607F0B9FF70B1204605F03C
:10D4B000F3FB28B132462946204605F0F7FB04E08D
:10D4C000324629462046FDF7C2FE70BD2DE9F041E7
:10D4D000044688460A4801782046FBF7AFFC06461A
:10D4E000084801782046FBF7A9FC0746012332468D
:10D4F00039462046FFF7C0FE0546BDE8F081000032
:10D50000DD400020DE40002070B505460C460026B8
:10D5100024B121462846FFF723FF0646304670BD5A
:10D52000F0B585B00446002614216846F8F7B7FF29
:10D53000ADF802404FF6FF70844201D105B0F0BD56
:10D540002046FEF7FFFF054645B10B2D0FD0112DEC
:10D550000BD0A5F540500238E0B91AE00E208DF846
:10D5600000006846FEF7C0F829E0012627E00F20FA
:10D570008DF800001649174A891AC908022242EAA2
:10D5800001402246144902F04BFF6846FEF7ACF812
:10D5900015E014E0284603F0AFFD07460C490D4A9C
:10D5A000891AC908012242EA014023463A460B493A
:10D5B00002F042FF2946204608F01AF800BF00BFDB
:10D5C0003246074801782046FBF74EFC00BFB5E71E
:10D5D000A094030050940300F4890300A089030081
:10D5E000ED40002070B505460C4622460248017801
:10D5F0002846FBF739FC70BDEC4000202DE9F041D6
:10D6000086B00446002600272046FEF7F7FF0546B1
:10D610004DB1112D0AD0862D0AD0A5F54050023803
:10D6200000281BD101E001272DE02CE001262AE093
:10D630001422194901A8F8F719FFADF80640174957
:10D64000174A891AC908022242EA0140224615A156
:10D6500002F0E6FE01A8FEF747F814E0284603F0C2
:10D660004BFD80460D490E4A891AC908012242EA3B
:10D6700001402346424619A102F0DEFE294620461B
:10D6800007F0B6FF00BF00BF31462046FFF7AAFFF4
:10D69000384606B0BDE8F081F8760300A094030098
:10D6A00050940300466C6173682066756C6C2E2084
:10D6B000436F756C64206E6F742073746F72652095
:10D6C0006461746120666F7220636F6E6E5F686163
:10D6D0006E646C653A202564000000006773636D1A
:10D6E0005F6C6F63616C5F64625F63616368655FF9
:10D6F00075706461746528292072657475726E6531
:10D700006420257320666F7220636F6E6E5F6861A0
:10D710006E646C653A2025640000000070B54FF41B
:10D720008041002002F028FF044600BF254625B1B5
:10D7300000BF2846F9F7BCFE00BF00BF02F050FC56
:10D7400070BD00002DE9FF4100272E4800F09AFD32
:10D750002C48001F00F096FD2B48806803902B4852
:10D7600005680398284028490C3101EB800800BF68
:10D7700003A94046FFF71AFC30B10398284022491C
:10D780000C3101EB800800E000E0F1E700BF00246D
:10D790000AE00398411C284003911B490C3151F8C1
:10D7A00020004DF82400641C022CF2D3009800F0F5
:10D7B000030001280DD0022814D1BDF80670042101
:10D7C000009801EB9050401E039901EB90000390EC
:10D7D00009E0BDF806700098C0F38310039908446F
:10D7E000039000E000BF00BF0648001F00F043FDAB
:10D7F000064616B1044903988860384604B0BDE86F
:10D80000F08100008859002070550020D44100208C
:10D81000FFF784FF08F082FD08F0F2FFFDF786F9BC
:10D8200006F050F9FCF781F900F05EF906F004FD0E
:10D83000FEF7AEF9FEF770FA08F0CAF8F9F75AFDEC
:10D84000FDF702F8F9F78EFD04F0C4F807F0D6FAF8
:10D85000642001F04FFC13A0F9F7AEF914A0F9F71A
:10D86000ABF91C491C4A891AC908032242EA014043
:10D870001AA102F0CBFD07F027FB214A0121214824
:10D88000F9F75EFE002210211E480068F9F79EFE9F
:10D89000002400BFFEF79CFF2046641CB0F5FA6F21
:10D8A000F8D0F7E70F0F0F0F080881040000000001
:10D8B000424C4520554152542063656E7472616C30
:10D8C000206578616D706C65207374617274656435
:10D8D0002E0D0A002895030050940300424C452069
:10D8E000554152542063656E7472616C2065786195
:10D8F0006D706C6520737461727465642E00000035
:10D90000A56103001C7503002DE9F04105460E4694
:10D9100014469846A888871C2088801C38444045B7
:10D9200002D90C20BDE8F081FE2F01D90C20F9E7C7
:10D93000781C218870542088401C2080FF2021887A
:10D9400070542088401C208022889119288809F072
:10D95000E9F8218808442080A88800280DDDA868FF
:10D9600008B90720DEE7AA8823889819A968F8F77C
:10D970007DFD2088A988084420800020D2E72DE979
:10D98000FF4F87B0044691461E46A2462546BAF888
:10D9900006009AF805104843001F0690BAF806B032
:10D9A000301DB0FBFBF00590301DB0FBFBF10BFB15
:10D9B00011000490D9F8000081190698814202D91B
:10D9C0000698801B01E0D9F800000746C9F80070EE
:10D9D00003E02D680598401E059005980028F8D1B1
:10D9E00003900498ABEB0008B84501D9384600E035
:10D9F0004046804623E00399089808440290281D79
:10DA0000049908440190149828B14246DDE90110B8
:10DA1000F8F72CFD04E04246DDE90101F8F726FDA8
:10DA2000002004902D68A7EB08070398404403905A
:10DA3000BB4501D9384600E05846804600BF002F5C
:10DA4000D9D10BB0BDE8F08F70B503460C469CB140
:10DA500002F0B6FD054600220AE0084800EB82010C
:10DA600008881E68B04202D11A60002070BD521CA6
:10DA7000AA42F2D30520F9E70020F7E700000000F2
:10DA800070B504460D462946204600F08FFB80F015
:10DA9000010600BF00BF00BFBFF35F8F00BF00BF24
:10DAA00000BF304670BD70B504460D4600BF00BFD4
:10DAB00000BFBFF35F8F00BF00BF00BF29462046F5
:10DAC00000F0BBFB70BD70B504460D4600BF00BF43
:10DAD00000BFBFF35F8F00BF00BF00BF29462046D5
:10DAE00000F055FB70BD000070B512481249086087
:10DAF00000F0DEFAA0F580501049C86000F0D8FAB6
:10DB0000401E0E49086100F0D3FA40380C49086005
:10DB1000002209480168094801F0A0FD044600BF41
:10DB2000254625B100BF2846F9F7C2FC00BF00BF5B
:10DB300070BD0000587A03005C40002020420020A5
:10DB4000584000202DE9F84F05460F4614469846E8
:10DB50002878012804D1687810B90720BDE8F88F2B
:10DB60002088801C404508D82878012807D12088C3
:10DB7000801C69780844404501D90C20EEE72088D4
:10DB8000A8EB0000801E86B200962188891CC81967
:10DB900069467DDF814600BF484600B1DEE700BF31
:10DBA0002878022804D06878BDF80010884206DB87
:10DBB000BDF80000B04202DC4FF0090A0BE04FF064
:10DBC000080A2878012805D16878B04202DC687814
:10DBD000009000E00096BDF80000FE2801D90C205E
:10DBE000BCE7BDF80000401C218878542088401C08
:10DBF0002080208807F800A02088401C20802088F2
:10DC0000BDF80010084420800020A7E70EB50021D1
:10DC10000091019102910449096800919DE80E006C
:10DC200080E80E000EBD0000D040002070B586B028
:10DC300006460D461446142101A8F8F730FC8DF86D
:10DC40000450ADF806402046FEF752FFADF808003C
:10DC5000142201A93046F8F709FC06B070BD70B572
:10DC600005460E464FF6FF70854201D1002000E0C8
:10DC7000681C84B208E02146304600F0DEFA08B1A4
:10DC8000204670BD601C84B2FF2CF4DD4FF6FF709F
:10DC9000F7E7000014480068401C38B913480178C1
:10DCA000124808300078C0F3031205E00E480168FE
:10DCB0004FF08050D0F83421062913D1D01E05280A
:10DCC0000ED2DFE800F0030507090B0001207047C2
:10DCD0000120FCE70120FAE70120F8E70120F6E740
:10DCE0000120F4E70020F2E730010010E00F00F01F
:10DCF00014480068401C38B91348017812480830AD
:10DD00000078C0F3031205E00E4801684FF0805020
:10DD1000D0F83421062913D1D01E05280ED2DFE811
:10DD200000F0030507090B00012070470120FCE704
:10DD30000120FAE70120F8E70120F6E70120F4E7E7
:10DD40000020F2E730010010E00F00F018480068F2
:10DD5000401C38B917480178164808300078C0F3DD
:10DD6000031205E0124801684FF08050D0F83421CA
:10DD7000062913D1D01E05280ED2DFE800F00305D6
:10DD800007090B00012070470120FCE70120FAE79A
:10DD90000120F8E70120F6E70120F4E70F2904D17C
:10DDA0000AB90120EFE70120EDE70020EBE70000D2
:10DDB00030010010E00F00F00F4801780E480830E5
:10DDC0000078C0F30312062913D1D01E05280ED205
:10DDD000DFE800F0030507090B0001207047002071
:10DDE000FCE70020FAE70020F8E70020F6E7002033
:10DDF000F4E70020F2E70000E00F00F00E480168B1
:10DE00004FF08050D0F83421062913D1D01E0528B8
:10DE10000ED2DFE800F0030507090B000020704771
:10DE20000020FCE70020FAE70120F8E70120F6E7F0
:10DE30000120F4E70020F2E73001001007480268F3
:10DE40004FF08050D0F834110F2A04D109B90120C5
:10DE500070470120FCE70020FAE7000030010010C5
:10DE60000E4801684FF08050D0F83421062913D1B4
:10DE7000D01E05280ED2DFE800F0030507090B00CD
:10DE8000002070470020FCE70020FAE70020F8E7B8
:10DE90000120F6E70120F4E70020F2E7300100104E
:10DEA00018480068401C38B91748017816480830EF
:10DEB0000078C0F3031205E0124801684FF080506B
:10DEC000D0F83421062913D1D01E05280ED2DFE860
:10DED00000F0030507090B00012070470120FCE753
:10DEE0000120FAE70120F8E70120F6E70120F4E736
:10DEF0000F2904D10AB90120EFE70120EDE7002046
:10DF0000EBE7000030010010E00F00F00F4801784F
:10DF10000E4808300078C0F30312062913D1D01E32
:10DF200005280ED2DFE800F0030507090B000120E9
:10DF300070470020FCE70020FAE70020F8E7002007
:10DF4000F6E70020F4E70020F2E70000E00F00F021
:10DF500018480068401C38B917480178164808303E
:10DF60000078C0F3031205E0124801684FF08050BA
:10DF7000D0F83421062913D1D01E05280ED2DFE8AF
:10DF800000F0030507090B00012070470120FCE7A2
:10DF90000120FAE70120F8E70120F6E70120F4E785
:10DFA0000F2904D10AB90120EFE70120EDE7002095
:10DFB000EBE7000030010010E00F00F00F4801789F
:10DFC0000E4808300078C0F30312062913D1D01E82
:10DFD00005280ED2DFE800F0030507090B00012039
:10DFE00070470020FCE70020FAE70020F8E7002057
:10DFF000F6E70020F4E70020F2E70000E00F00F071
:10E000000F4801780E4808300078C0F30312062943
:10E0100013D1D01E05280ED2DFE800F00305070952
:10E020000B00012070470020FCE70020FAE70020E9
:10E03000F8E70020F6E70020F4E70020F2E7000010
:10E04000E00F00F018480068401C38B91748017804
:10E05000164808300078C0F3031205E01248016842
:10E060004FF08050D0F83421062913D1D01E052856
:10E070000ED2DFE800F0030507090B00002070470F
:10E080000020FCE70120FAE70120F8E70120F6E78D
:10E090000120F4E70F2904D10AB90120EFE701209C
:10E0A000EDE70020EBE7000030010010E00F00F08A
:10E0B00040F6F8700068401C18B94FF01020406915
:10E0C00002E040F6F870006803464FF080500169A6
:10E0D0004269581C08B11846704702FB01F0FBE783
:10E0E00070B504462046F8F7E0F805460DB100206B
:10E0F00070BD1120FCE710B5044609B90E2010BD13
:10E1000092FBF3F003FB102008B10920F7E7216030
:10E1100000206060A060A281E38100BFEFE770B5DE
:10E1200004460D4629462046F8F774F818B12A88A7
:10E130002168881870BD0020FCE770B505460C46C4
:10E1400020886188884204D12846F8F7A5F8012084
:10E1500070BD0020FCE770B504460D4629462046F8
:10E16000F8F77DF818B16A882168881870BD00201A
:10E17000FCE770B505460C4620886188884204D1CA
:10E180002846F8F763F8012070BD0020FCE770B561
:10E1900005460C4604F01F0301229A40D143620950
:10E1A00005EB820000F087F8064670BD70B50546A5
:10E1B0000C4604F01F03012202FA03F1620905EB89
:10E1C000820000F099F804F01F02012191400840FC
:10E1D00008B1012070BD0020FCE72DE9F0410646A2
:10E1E0000D46002421E056F82400C04390FAA0F028
:10E1F000B0FA80F814E008EB4417AF4200D312E005
:10E2000039463046FFF7D2FF10B93846BDE8F081F5
:10E2100056F82400C04390FAA0F0B0FA80F800BF8E
:10E22000B8F1200FE7D300BF641C681E012101EB89
:10E230005010A042D7D82846E8E710B50246480952
:10E2400052F8200001F01F040123A340184008B138
:10E25000012010BD0020FCE770B505460C4604F017
:10E260001F03012202FA03F1620905EB820000F0AC
:10E2700059F8064670BD10B504460021204600F04E
:10E2800030F810BD10B504460121204600F04AF8D0
:10E2900010BD10B504460121204600F02DF810BD38
:10E2A000F8B504460D466A4629462046F8F749F86F
:10E2B00006460098F8BDF8B504460D466A4629465C
:10E2C0002046F8F724F806460098F8BDF8B504464D
:10E2D0000D466A4629462046F8F733F8064630468A
:10E2E000F8BDF8B504460D466A4629462046F8F7BB
:10E2F0000EF806463046F8BDF8B504460D466A46A7
:10E3000029462046F7F7F6FF06463046F8BDF8B531
:10E3100004460D466A4629462046F7F7DFFF0646C3
:10E320003046F8BDF8B504460D466A4629462046F3
:10E33000F7F7E0FF06460098F8BDF8B504460D462D
:10E340006A4629462046F8F709F806460098F8BDBF
:10E35000F8B504460026002000906846F9F744FA14
:10E36000206800686168884215D920680068401EEE
:10E37000226810600178204600F033F80646207AC3
:10E3800021680978401AC5B220680079A84201DAEC
:10E390002068057100BF9DF80000F9F72BFA3046A0
:10E3A000F8BD0246D068081A138AB0FBF3F0C0B279
:10E3B0007047F8B504460D462E460020009068468A
:10E3C000F9F712FA31462046FFF7EBFF21680A6899
:10E3D000511C2368196010709DF80000F9F70AFAC3
:10E3E000F8BD0246138AD06801FB0300704710B5E0
:10E3F000014600BF09B90E2010BD00BF087A0B7995
:10E40000C01AC2B2D1E90030186005E0086803689C
:10E41000581C0C6820601A70101EA2F10103DAB2B9
:10E42000F4D10B68187100BFE6E730B502460B4621
:10E43000D40802F00702012090401D5D284030BD45
:10E44000024600BF0AB90E20704700BF172901DB42
:10E45000F72901DD0720F7E751800020F4E770B5C8
:10E4600004460E4600BF0CB90E2070BD00BFA66169
:10E47000F72020806080FB202071002505E0A11D91
:10E4800001EBC500FEF7ECFE6D1C022DF7D300205A
:10E49000EBE700002DE9F047064688464546B4887C
:10E4A000022C01DBBDE8F0873088242820D006DC70
:10E4B000102809D011280CD0232823D11DE03A2898
:10E4C0000CD055281ED10EE03146284603F048FDF9
:10E4D00019E03146284603F0B2FF14E031462846E1
:10E4E00004F076F80FE03146284603F0B3FF0AE067
:10E4F0003146284603F0D0FD05E03146284603F0BA
:10E5000073FE00E000BF00BFA81D00EBC40000794F
:10E5100070B3A81D30F834102046A5DF0746C7B9F0
:10E520000021A81D00EBC40001710121A81D00EB12
:10E53000C4004171A91D31F834201149114BC91A89
:10E54000C908042343EA014023460F4901F074FF40
:10E5500012E0112F10D0384602F0CEFD8146084956
:10E56000084A891AC908012242EA01404A4600E0E5
:10E5700003E006A101F054FF00BF00BF92E70000D6
:10E580005894030050940300F07F030073645F62AB
:10E590006C655F67617474635F65786368616E67FB
:10E5A000655F6D74755F7265717565737428292078
:10E5B00072657475726E65642025732E000000000C
:10E5C0002DE9F04104460F46002500BF14B90E2086
:10E5D000BDE8F08100BF204605F082FD39462046A7
:10E5E000FCF783F806462088B0421CD10F49104A38
:10E5F000891AC908042242EA01403A460DA101F0F5
:10E600000FFF2046FEF723FD18B9206902F0D7F866
:10E61000054639462046FCF796F8054600BF2846D1
:10E6200000B1D5E700BF2846D2E7000060940300A0
:10E63000509403005265676973746572696E672050
:10E64000636F6E6E656374696F6E2068616E646C73
:10E65000653A203078253034580000002DE9F04725
:10E6600005460C46904600273B493C4A891AC90892
:10E67000042242EA01403AA101F0C8FE00BF15B9E8
:10E680000E20BDE8F08700BF00BF0CB90E20F8E7F0
:10E6900000BF284605F024FD41462846FCF725F832
:10E6A00006462078062802DA2888B04201D10720E1
:10E6B000E7E706EB8602A96801EB820002F03BF96E
:10E6C00050B14146204606F087F88146B9F1000F67
:10E6D00001D03846D5E700BF20782A4951F82000FC
:10E6E00090B100BF286908B90E20CAE700BF2178A1
:10E6F000244B53F82120214628699047074600BF44
:10E70000384600B1BDE700BF06EB8602A96801EB01
:10E710008200214602F032F9074697B12078194964
:10E7200051F8200068B1606802F021F80A490B4BEB
:10E73000C91AC908042343EA014013A1626801F021
:10E740006FFE06EB8602A96801EB8200414605F0E8
:10E7500081FA384695E70000609403005094030066
:10E76000416464696E67206974656D20746F2074FC
:10E77000686520726571756573742071756575655E
:10E780000000000010760300506F696E74657220FF
:10E79000746F206672656564206D656D6F72792097
:10E7A000626C6F636B3A2025702E0000F8B504464A
:10E7B0000F463D4604B105B9F8BD2088112801D1A6
:10E7C000A68810E02088302804DB20884F2801DC50
:10E7D000A68808E02088502804DB20886F2801DC08
:10E7E000A68800E0E8E731462846FBF77EFF009068
:10E7F0002888BDF80010884200D1DDE72088112864
:10E800000BD14FF6FF70BDF80020696821F81200A7
:10E810006946E86802F0B2F809E0BDF8002002EBB2
:10E820008202A96801EB8200314605F013FA00BFAD
:10E83000C2E7024600BF0AB90E20704700BF00BF02
:10E840001078DE2801D00820F7E700BF51800020B3
:10E85000F3E7024600BF0AB90E20704700BF00BFB1
:10E8600009B90E20F9E700BF1078DE2801D1082091
:10E87000F3E708685060DE2010704FF6FF7050809C
:10E880000020EAE770B504460E4600BF06B970BD29
:10E8900000BF00BF04B9FAE700BF354600BF2878C3
:10E8A000DE2800D0F3E700BFA0886988884202D143
:10E8B000284608F019FA2088012806D0022809D035
:10E8C000112811D0512817D109E0211D284604F044
:10E8D000EEF812E0211D284604F0E8F80DE0211DB5
:10E8E000284604F021F808E0A0886988884202D10F
:10E8F0004FF6FF70688000E000BF00BF00BFC6E7B2
:10E900002DE9FC478046894608F12206F41D20784F
:10E91000012802DB0420BDE8FC8700250CE0C5EBE4
:10E92000C5013144481C06224946F7F7F6FD08B9EF
:10E930000020F0E7681CC5B2012DF0DB002007E0E5
:10E94000C0F1050119F801100DF80010411CC8B202
:10E950000628F5DB684600F071F8074643F202210D
:10E960008F4200D1D7E72078C0EBC000305C67F35E
:10E9700047002178C1EBC1017054002009E019F86B
:10E9800000202178C1EBC1013144491C0A54411CCB
:10E99000C8B20628F3DB2178C1EBC101715C4A08DB
:10E9A0001749184BC91AC908042343EA014016A1A4
:10E9B00001F036FD002511E02178C1EBC1013144A1
:10E9C000491C4A5D0E490F4BC91AC908042343EA82
:10E9D000014018A101F024FD681CC5B2062DEBDB37
:10E9E0000749084A891AC908042242EA014012A1CB
:10E9F00001F00CFD2078401C207000208BE7000007
:10EA0000689403005094030046696C746572207327
:10EA10006574206F6E20616464726573732074790D
:10EA200070652025692C20616464726573732030E1
:10EA300078000000257800000A0D000002461178D9
:10EA4000891100BF31B1012906D0022906D003295E
:10EA500008D105E0032070470020FCE70220FAE718
:10EA60000120F8E743F20220F5E700002DE9F04726
:10EA700086B004460E46B71C04F1400804F136097E
:10EA800094F83EA094F8340010B906B0BDE8F087C1
:10EA900000F0D2FA142101A8F7F701FD53464A46C7
:10EAA000414638468CDF05461049114A891AC90883
:10EAB000042242EA01400FA101F0A8FC05208DF8D4
:10EAC0000400029509490A4A891AC908042242EA3F
:10EAD00001402A460AA101F0A3FC25B1206D10B126
:10EAE00001A8216D884700BFCFE7000068940300AC
:10EAF00050940300436F6E6E656374696E67000027
:10EB0000436F6E6E656374696F6E207374617475A4
:10EB1000733A2025640000004FF4C87282870621F2
:10EB2000C1861822028700224287704790F8401061
:10EB300021F00401091D80F84010A02242210A5250
:10EB400044210A52002246210A5290F8401021F036
:10EB5000180180F84010012241210A5470472DE924
:10EB6000F04105460E46144600BF15B90E20BDE81B
:10EB7000F08100BF00BF0CB90E20F8E700BF26B13E
:10EB8000022E08D0032E12D10BE027463946284624
:10EB900000F098F8EBE7274639462846FFF7B0FE25
:10EBA000E5E727463946284600F048FADFE7072020
:10EBB000DDE710B5014600BF09B90E2010BD00BF4A
:10EBC00001F121040020207001F12A021070D31DF0
:10EBD000187000BFF2E72DE9F04106460C461746D3
:10EBE00000BF16B90E20BDE8F08100BF04F002009E
:10EBF00068B904F0010050B904F0040038B904F019
:10EC0000100020B904F0080008B90720EBE73046EF
:10EC1000FFF7CFFF8046354604F0020010B1012116
:10EC20002A20415504F0010010B1012085F821008F
:10EC300004F0040010B101213120415585F83270F3
:10EC40000020D0E770B504460D46164600BF0CB94B
:10EC50000E2070BD00BF266534212046F7F71FFC4B
:10EC6000FDB1287984F83400287B84F83E002868B8
:10EC700030B10E2204F140002968F7F7F7FB02E0FB
:10EC80002046FFF753FFA86838B1A8680168C4F8A8
:10EC900036104068C4F83A000CE02046FFF73CFF0D
:10ECA00008E02046FFF742FF2046FFF735FF00202F
:10ECB00084F8340004F1540060671F217820015368
:10ECC0000020C6E72DE9F04704460F4604F1200670
:10ECD0003846F7F70DFC00F0FF08B8F1000F02D03E
:10ECE000B8F1200F02DD0C20BDE8F0873078012854
:10ECF00001DB0420F8E7002509E004EB4510394664
:10ED0000F7F7FDFB08B90020EEE7681CC5B2012D3E
:10ED1000F3DB3846F7F7ECFB81463278511C317053
:10ED200004EB42104A463946F7F7A0FB0649074A6A
:10ED3000891AC908042242EA01403A4604A101F0B6
:10ED40006FFB0020D0E7000068940300509403009C
:10ED5000416464696E672066696C746572206F6EC9
:10ED6000202573206E616D65000000002DE9F04FD5
:10ED700087B004460D4600260027142102A8F7F7A5
:10ED80008EFB04F1400006902046FEF703FA88B19E
:10ED900002208DF80800039502A8216D884704F130
:10EDA000740100208ADF29462046FFF75FFE07B086
:10EDB000BDE8F08F94F832804FF0000994F82AA053
:10EDC00094F821B03120005D0190BAF1000F11D00C
:10EDD000701CC6B221462846F8F7BCF950B1781C21
:10EDE000C7B29DF8100020F00200801C8DF81000C2
:10EDF0004FF00109BBF1000F11D0701CC6B22146C3
:10EE00002846F8F7F7F950B1781CC7B29DF8100002
:10EE100020F00100401C8DF810004FF0010901980E
:10EE200088B1701CC6B221462846F8F707FA50B1DF
:10EE3000781CC7B29DF8100020F00400001D8DF86A
:10EE400010004FF001090395B8F1000F09D0B74247
:10EE500007D100208DF8080029462046FFF706FE5E
:10EE600011E0B8F1000F0AD1B9F1000F07D000206E
:10EE70008DF8080029462046FFF7F8FD03E003203F
:10EE80008DF808000395206D10B102A8216D884708
:10EE900004F1740100208ADF00BF88E72DE9F0410A
:10EEA00004460D462E4604F1080704F104082088A4
:10EEB00010280DD01B2806D01D280ED1394630460B
:10EEC000FFF754FF0AE04146304600F025F805E020
:10EED0004146304600F005F800E000BF00BFBDE845
:10EEE000F08130B585B004460D4614216846F7F729
:10EEF000D6FA06208DF80000281D01902988ADF86B
:10EF0000081004F140000490206D10B16846216D96
:10EF1000884705B030BD000070B586B004460D4688
:10EF20002E1D142101A8F7F7BAFA3078012817D15D
:10EF30000C490D4A891AC908042242EA01400BA172
:10EF400001F064FA206D58B104208DF8040004F13A
:10EF50004000059030788DF8080001A8216D8847A1
:10EF600006B070BD6894030050940300424C455FA6
:10EF70004741505F5343414E5F54494D454F5554AF
:10EF80000000000030B585B0044600BF14B90E2063
:10EF900005B030BD00BF14216846F7F780FA00F0D5
:10EFA0004BF82046FEF7F6F838B1206D28B1012065
:10EFB0008DF800006846216D884704F1740104F162
:10EFC00040008ADF0546082D0DD065B10C490D4A79
:10EFD000891AC908012242EA01402A460AA101F021
:10EFE0001FFA2846D4E70649064A891AC9080422A6
:10EFF00042EA01400DA101F009FA0020C8E7000033
:10F00000689403005094030073645F626C655F67EB
:10F0100061705F7363616E5F737461727420726597
:10F020007475726E65642030782578005363616E64
:10F030006E696E67000000008BDF70472DE9F041BC
:10F0400007460C4607F12C0807F1300528780128FF
:10F0500002DB0420BDE8F081002608E038F8260035
:10F060002188884201D10020F4E7701CC6B2012E2D
:10F07000F4DB2978481C287008EB810021680160C6
:10F0800022880649064BC91AC908042343EA0140ED
:10F0900004A101F0C5F90020DCE70000689403003A
:10F0A0005094030041646465642066696C74657201
:10F0B000206F6E20555549442025780001464FF0B9
:10F0C0008040405808B1012070470020FCE708B597
:10F0D00000224FF080410A500958009100BF08BD3E
:10F0E00001490860704700000803004001229107B1
:10F0F0000A5070472DE9F04104460CB9BDE8F08193
:10F1000000BF4FF47A7505B904E0054FAE013046F3
:10F11000B84700BF601E041EF3D100BFEEE7000039
:10F120002175030010B500240F48007808B185242C
:10F1300011E000200C49886048600861C8600B48F5
:10F1400002F07CF8044601F001FF08B902F06CF807
:10F1500001200549087002F05DF810B10120024954
:10F160008870204610BD0000C050002075A6020027
:10F1700008B5002000906846F8F736FB0748C068DD
:10F18000401E0649C8600846C06808B9FEF75CF82A
:10F190009DF80000F8F72EFB08BD0000C0500020CD
:10F1A0002DE9F04188B004460F46154626781A48E6
:10F1B00040F826501949386941F82600787F1849E7
:10F1C0008855202239466846F7F750F904964FF0E3
:10F1D000000820781249085C50B10DB1114800E0D8
:10F1E000002002466946201D02F05EFA80460EE0CD
:10F1F00020780B49085C50B90DB10B4800E00020A5
:10F200000246694604F10C0002F0F4F880464046DC
:10F2100008B0BDE8F081000000410020044100205A
:10F2200008410020AD690300C96703002DE9F041E2
:10F2300004460D461646002720780C49085C30B17C
:10F2400032462946201D02F06FFA07460AE0207870
:10F250000649085C30B93246294604F10C0002F038
:10F260000DF907463846BDE8F0810000084100204E
:10F270002DE9F04104460D461646002720780C493A
:10F28000085C30B132462946201D02F0E9FA0746F3
:10F290000AE020780649085C30B93246294604F174
:10F2A0000C0002F07DF907463846BDE8F081000009
:10F2B000084100200FB438B50446059810B938BC91
:10F2C0005DF814FB0020009006A800906A462046D6
:10F2D000059900F012F80020009000BFEFE770B52C
:10F2E0000446A06800B970BDD4E90403A26821688F
:10F2F00098470020A06000BFF5E72DE9FC5F82463B
:10F300000D4614460DB9BDE8FC9F00BF2E786D1C5C
:10F3100006B9E1E0252E70D100274FF0010900BFAA
:10F320002E782B2E0CD02D2E02D0302E0CD103E0B7
:10F3300047F001076D1C0AE047F002076D1C06E06C
:10F3400047F004076D1C02E04FF0000900BF00BF4A
:10F35000B9F1000FE4D14FF0000800BF2A2E06D10A
:10F360002168081D2060086880446D1C0DE02E781F
:10F37000302E01DB392E00DD07E06D1CA6F13000D8
:10F3800008EB880100EB4108E8E700BF4FF0000BF5
:10F390002E782E2E10D16D1C00BF2E78302E01DB62
:10F3A000392E00DD07E06D1CA6F130000BEB8B0160
:10F3B00000EB410BF1E700BF2E7800BF6C2E01D0AF
:10F3C000682E02D16D1C2E7800E000E0F6E700BF49
:10F3D000692E21D008DC252E6DD0582E39D0632E11
:10F3E0000CD0642E6CD116E0702E4CD0732E3ED013
:10F3F000752E1FD0782E63D12AE065E02168081DA4
:10F400002060D1F8009009F0FF000190504601996A
:10F41000FAF720FF55E000BF2168081D2060D1F8F1
:10F4200000905B460A2249465046CDE90087FDF729
:10F4300061FC46E02168081D2060D1F800905B4621
:10F440000A2249465046CDE9008707F083FB38E0A1
:10F4500000BF2168081D2060D1F800905B46102293
:10F4600049465046CDE9008707F074FB29E0216842
:10F47000081D2060086801903B46424650460199AD
:10F4800006F050FE1DE02168081D2060D1F80090B4
:10F4900030215046FAF7DEFE78215046FAF7DAFEC0
:10F4A000002008210B461022CDE9001049465046A5
:10F4B00007F050FB05E025215046FAF7CBFE00E0AF
:10F4C00000BF00BF6D1C03E031465046FAF7C2FE94
:10F4D000287800287FF41AAF00BF9AF80C0010B10A
:10F4E0005046FFF7FCFE00BF0DE70000F8B50446EC
:10F4F0000E4615461F4600BF7CB90E203849394AD2
:10F50000891AC9080122009042EA0140364B37A20D
:10F5100038A100F0A1FF0E20F8BD00BF00BF206899
:10F5200078B908202E492F4A891AC908012200906B
:10F5300042EA01402C4B3AA22EA100F08DFF082098
:10F54000EAE700BF00BF7DB909202549254A891A8D
:10F55000C9080122009042EA0140234B33A225A1B1
:10F5600000F07AFF0920D7E700BF00BF31462046F0
:10F57000F7F7B6FD78B9102019491A4A891AC9084F
:10F580000122009042EA0140174B29A219A100F084
:10F5900063FF1020C0E700BF00BF6068006800FB89
:10F5A00005F231462046F7F7B1FD78B910200C4935
:10F5B0000C4A891AC9080122009042EA01400A4B0C
:10F5C000254A0CA100F048FF1020A5E700BF2068E5
:10F5D0003B462A463146D0F810C02046E0479BE71C
:10F5E0001895030050940300337A0300705F66732C
:10F5F00000000000257320636865636B2066616905
:10F600006C656420696E20257328292077697468E9
:10F610002076616C756520307825782E000000001A
:10F62000705F66732D3E705F617069006C656E007F
:10F63000616464725F69735F706167655F616C6963
:10F64000676E656428705F66732C20706167655F04
:10F650006164647229000000FC8F0300F8B5044661
:10F660000D46164600BF7CB90E201549154A891A69
:10F67000C9080122009042EA0140134B13A215A1D0
:10F6800000F0EAFE0E20F8BD00BF00BF7DB90E20DD
:10F690000B490C4A891AC9080122009042EA01402C
:10F6A000094B17A20BA100F0D7FE0E20EBE700BF1D
:10F6B000256020683146026820469047E3E7000055
:10F6C0001895030050940300E8790300705F667397
:10F6D00000000000257320636865636B2066616924
:10F6E0006C656420696E2025732829207769746809
:10F6F0002076616C756520307825782E000000003A
:10F70000705F61706900000070B504460CB120683C
:10F71000D0B900250EE005EB85000E4901EB800411
:10F72000206830B12068C1692046884708B10120AF
:10F7300070BD6D1C08480749401A1421B0FBF1F058
:10F74000A842E8D80020F3E72068C169204688472E
:10F75000EEE700002042002048420020F8B50446B1
:10F760000E4617461D4600BF7CB90E204049414A4F
:10F77000891AC9080122009042EA01403E4B3FA28B
:10F7800040A100F069FE0E20F8BD00BF00BF7FB9A8
:10F790000E203749374A891AC9080122009042EAE7
:10F7A0000140354B42A237A100F056FE0E20EBE798
:10F7B00000BF00BF206878B908202D492D4A891A5A
:10F7C000C9080122009042EA01402B4B3AA22DA128
:10F7D00000F042FE0820D7E700BF00BF7DB9092036
:10F7E0002349244A891AC9080122009042EA0140AB
:10F7F000214B34A223A100F02FFE0920C4E700BF53
:10F8000000BF3046F7F764FC78B910201849194A50
:10F81000891AC9080122009042EA0140164B2AA227
:10F8200018A100F019FE1020AEE700BF00BF2A4665
:10F8300031462046F7F76AFC78B910200C490D4A8A
:10F84000891AC9080122009042EA01400A4B24A209
:10F850000CA100F001FE102096E700BF20682B46A7
:10F860003A463146D0F808C02046E0478CE7000011
:10F8700018950300509403000E7A0300705F6673BE
:10F8800000000000257320636865636B2066616972
:10F890006C656420696E2025732829207769746857
:10F8A0002076616C756520307825782E0000000088
:10F8B000705F646573740000705F66732D3E705FE7
:10F8C000617069006C656E00616464725F69735F8A
:10F8D000616C69676E656433322873726329000056
:10F8E000616464725F69735F77697468696E5F628F
:10F8F0006F756E647328705F66732C207372632C4F
:10F90000206C656E2900000002460120044B5874EB
:10F910001846007A08B9012070470020FCE7000073
:10F92000D452002070B504460D46012C01D0032CA2
:10F930000BD1002005494874012C01D1012000E0C1
:10F9400000200249087404F0F7FA70BDD452002078
:10F9500070B504460E46022C02D0032C00D070BDB8
:10F960001C48007A20B1012803D0022826D101E0EA
:10F97000F5E723E00025022C02D0032C0CD105E092
:10F980001548006802F0F0FE054606E012480068DF
:10F9900002F0D8FE054600E000BF00BF6DB10020B8
:10F9A0000C490872022C00D100E00D2001460A48E3
:10F9B0000068FBF79BFD04F00BF900BF00BF054892
:10F9C000407C10B904F0B8FA01E001F0C5FA00BFBC
:10F9D000C5E70000D4520020804100202DE9F84303
:10F9E00004460F4616461D46DDF8208000BF84B948
:10F9F0000E205949594A891AC9080122009042EA41
:10FA00000140574B57A259A100F026FD0E20BDE83A
:10FA1000F88300BF00BF7EB90E204F494F4A891AB4
:10FA2000C9080122009042EA01404D4B5AA24FA161
:10FA300000F012FD0E20EAE700BF00BF206878B991
:10FA400008204549454A891AC9080122009042EA1E
:10FA50000140434B52A245A100F0FEFC0820D6E72E
:10FA600000BF00BF7DB909203B493C4A891AC9083B
:10FA70000122009042EA0140394B4CA23BA100F028
:10FA8000EBFC0920C3E700BF00BF60684068B5FB1E
:10FA9000F0F100FB115078B109202F492F4A891A43
:10FAA000C9080122009042EA01402D4B40A22FA13B
:10FAB00000F0D2FC0920AAE700BF00BF3846F7F7E4
:10FAC00007FB78B910202449244A891AC908012261
:10FAD000009042EA0140224B40A224A100F0BCFC6D
:10FAE000102094E700BF00BF3046F7F7F1FA78B96D
:10FAF00010201949194A891AC9080122009042EABE
:10FB00000140174B3BA219A100F0A6FC10207EE794
:10FB100000BF00BF2A4639462046F7F7F7FA78B902
:10FB200010200D490D4A891AC9080122009042EAA5
:10FB300001400B4B38A20DA100F08EFC102066E7AF
:10FB400000BFCDF8008020682B4632463946D0F8F9
:10FB50000CC02046E0475AE7189503005094030074
:10FB6000207A0300705F6673000000002573206335
:10FB70006865636B206661696C656420696E202529
:10FB800073282920776974682076616C7565203048
:10FB90007825782E00000000705F7372630000000B
:10FBA000705F66732D3E705F617069006C656E00FA
:10FBB00021286C656E202520705F66732D3E705F76
:10FBC000666C6173685F696E666F2D3E70726F67F9
:10FBD00072616D5F756E6974290000006164647202
:10FBE0005F69735F616C69676E6564333228646551
:10FBF00073742900616464725F69735F616C696723
:10FC00006E65643332282875696E7433325F7429E7
:10FC1000705F737263290000616464725F69735F6F
:10FC200077697468696E5F626F756E647328705F60
:10FC300066732C20646573742C206C656E2900003B
:10FC4000F0B5DDE9054500BF4FF0A0473E4641EA6B
:10FC5000420747EA830747EA042747EA054C06F5C7
:10FC6000E06747F820C0F0BDF0B5DDE9054500BF0D
:10FC70004FF0A0473E4641EA420747EA830747EA7A
:10FC8000042747EA054C06F5E06747F820C0F0BDB9
:10FC90001CB5044600200090034601220146019055
:10FCA0002046FFF7CDFF1CBD1CB504460020009088
:10FCB00003460122014601902046FFF7D5FF1CBDF7
:10FCC0007CB505460C4600200090234602460146BE
:10FCD00001902846FFF7B4FF7CBD7CB505460C4675
:10FCE0000020009023460246014601902846FFF777
:10FCF000BBFF7CBD1CB504460020009003460122DA
:10FD0000114601902046FFF79BFF1CBD1CB5044621
:10FD10000020009003460122114601902046FFF783
:10FD2000A3FF1CBD10B50A4600BF4FF0A043194603
:10FD300001F5E06353F8203023F4403401F5E0632B
:10FD400043F8204053F8203043EA024401F5E063D1
:10FD500043F8204010BD000038B503460A4C246823
:10FD6000009418460BE05DF82040D4F8204514605C
:10FD70005DF820501468C5F82045121D401C5C1821
:10FD80008442F0D838BD00009077030000BF4FF0E8
:10FD9000A0410A46012303FA00F1C2F8081500BF8A
:10FDA000704700BF4FF0A0410A46012303FA00F15B
:10FDB000C2F8081500BF704710B561B900BF00BF99
:10FDC0004FF0A0421346012404FA00F2C3F80C25B8
:10FDD00000BF00BF0CE000BF00BF4FF0A0421346C1
:10FDE000012404FA00F2C3F8082500BF00BF00BFD9
:10FDF00010BD000001460148084470470060004003
:10FE000038B504462046FFF7F5FF00210160204683
:10FE1000FFF7F0FF0068009000BF38BD10B5044642
:10FE20002046FFF7E7FF0068012800D110BD002041
:10FE3000FCE7000070B504460E46F8F7DBFA05460D
:10FE4000681C08B9284670BDE8B2E168087100BFB7
:10FE50000C48D0F8100430B90A48C0F8104400200B
:10FE6000E16808600BE00748D0F81004C06800683B
:10FE7000E16808600348D0F81004C06804602846B0
:10FE8000E1E7000070550020704710B5F6F746FC1A
:10FE900010BD704738B504460D4604484023044A57
:10FEA00029460090204600F005F838BD3D56030075
:10FEB000D85300202DE9F04F93B082460E461746E6
:10FEC0009846DDF87090304600F071FC18210DA8BE
:10FED000F6F7E5FA0D97CDF83880CDF84890002573
:10FEE0002B46082207A9304600F07EFC0825099819
:10FEF0000A90BDF82000ADF82C00BDF82200ADF846
:10FF00002E0000208DF83100079800F00300012832
:10FF10001BD107984FEA902B0798C0F3C2008DF8C9
:10FF200030000798C0F38314A2002B4601A9304685
:10FF300000F05AFC05EB84050DA80AAB224601A986
:10FF40000090584600F072FB27E0079800F003008D
:10FF5000022822D107984FEA905B0798C0F3C200AD
:10FF60008DF8300000BFBBF1080F01D2584600E009
:10FF7000082004462B46224605A9304600F034FCF2
:10FF80002544ABEB040B0DAB0AAA214605A800F0F3
:10FF900095FABBF1000FE6D100BF304600F015FC2A
:10FFA00013B0BDE8F08F000010B502460B4C04EB17
:10FFB000C203012906D0022906D0032906D004294C
:10FFC00008D105E0022007E0042005E0187903E0ED
:10FFD000587901E0002000BF00BF10BD509403001D
:10FFE00010B54FF0FF34FFF750FF04210548FFF72D
:10FFF00021FF044600BF01200249C968487100BFC3
:020000040003F7
:1000000010BD0000409403002DE9F04F8BB0FAF7CB
:1000100037F918B100200BB0BDE8F08F0020B749C8
:10002000C1F8180400BF00BF00BFBFF34F8F00BF6F
:1000300000BF00BF084680680A90B14804680A986B
:1000400020400C3101EB800A00250026002006909C
:1000500000BF0AA95046FCF7A9FFA8B1A748D0F8ED
:10006000180488B9A54840680A99884205D8A34869
:100070004068A24988600020CDE70A9820409F4947
:100080000C3101EB800A00E000E0E2E700BF00274E
:100090000BE00A98411C20400A9198490C3151F814
:1000A000200007A941F827007F1C022FF1D30798F1
:1000B00000F0030002287CD10798800D05905021A4
:1000C0000798B1EB905F02DD0798800D00E05020AB
:1000D0008146079869F39F50079009F10800049042
:1000E0000798C0F3C20006908648049900F002FB0E
:1000F0000546002D5BD0284600F059FB3346082208
:1001000007A9284600F081FB08360A982040611CA8
:10011000081A4FEA8008C14535D9B8F1000F06D05A
:100120000A98204075490C3101EB800001E07348CA
:100130000C300390B8F1000F01D0404600E0484673
:1001400000F0FF0BB8F1000F02D06C480C3000E05B
:1001500000200290B8F1000F02D0A9EB080000E0E7
:100160000020C0B2019033465A462846039900F059
:100170004CFB5E44029828B133462846DDE9012154
:1001800000F043FB0CE00A9820405C490C3101EB85
:10019000800B33464A465946284600F036FB00BFDE
:1001A0000598C01C0A9901EB90000A9000BF44E03A
:1001B000FFE7079800F0030001283ED10798C0F33D
:1001C0008310062803DA0798C0F3831000E00620A6
:1001D000079960F3891107910798C0F3831000F124
:1001E00002080798C0F3C20006904FEA880145480C
:1001F00000F080FA0546FDB1284600F0D8FA3346F3
:10020000082207A9284600F000FB083600270EE068
:100210000A98421C20400A92384A0C3202EB8001B4
:1002200033460422284600F0F0FA361D7F1C07985A
:10023000C0F38310B842EBD800BFE5B32F48D0F825
:100240001084D0F8180418B1284600F0BEFA31E046
:1002500019E04FF0000900BFD8F80C0040790128E0
:1002600000D18146B9F1000F08D000BFD8F80000D6
:10027000294602684046904700BF00BFD8F80C00EE
:10028000D0F8008000BFB8F1000FE2D1284600F09E
:100290009CFA0020059005A8F7F7A6FA1748D0F8B1
:1002A000180410B915490A9888609DF81400F7F7EA
:1002B000A1FA00BF1DE0FFE71048D0F810840AE063
:1002C000C146D9F8000081684846884700BFD8F881
:1002D0000C00D0F80080B8F1000FF1D10A490B4AA8
:1002E000891AC908022242EA014009A100F08EF8E9
:1002F00000BFF9F7C5FF80F001008CE670550020C3
:10030000D44100205C95030028950300509403001D
:100310004261636B656E647320666C7573686564B7
:10032000000000002DE9F74F82B00746154635481A
:100330000668E91C8808002201A9F9F717FF0028C0
:1003400051D0DDF804A00198801C01900198304044
:100350002C490968491C081A4FEA8008454509D804
:1003600001993140284A02EB81002A460399F6F7A9
:100370007DF810E001993140234A02EB81004246AA
:100380000399F6F773F8A5EB0802039800EB080150
:100390001D48F6F76BF84FEA174BFAF7BDFD81469B
:1003A0004BEA09420AF101003040174941F8202088
:1003B0000AEA060001EB8004206867F3C5002060AC
:1003C0000021206861F38F102060206865F39F5042
:1003D0002060206820F00300801C2060206820F04E
:1003E0000400206000BF08480C38007830B100BF1E
:1003F00000BFFFF709FE0028FBD100BF05B0BDE834
:10040000F08F0000D44100207C55002070B50446D8
:100410000D4600231A462946204605F00FFE70BD02
:10042000F8B505460E461446009401236A46314647
:10043000284605F003FEF8BD2DE9FC4106460F46AF
:1004400014461D460094019502236A4639463046FB
:1004500005F0F4FDBDE8FC812DE9FE4306460F469C
:1004600014461D46DDF8288000940195CDF80880DB
:1004700003236A463946304605F0E0FDBDE8FE83B9
:100480002DE9F04F87B006460F4614461D46DDE9BC
:1004900012ABDDE9108901940295CDF80C80CDF8FE
:1004A0001090CDF814A0CDF818B0062301AA394653
:1004B000304605F0C3FD07B0BDE8F08F2DE9F05FD1
:1004C00007460E4690461D46082E01D9BDE8F09F0E
:1004D00095F80C90002028732946404603F000FB55
:1004E00000240CE0B44205D23A5D1DA12846FEF777
:1004F000E1FE03E01CA12846FEF7DCFE641C082C8C
:10050000F0D31AA12846FEF7D5FE00241DE0B44220
:1005100016D217F804A0BAF17E0F09DCF5F7A2FF96
:10052000006810F80A0000F03E0008B1504600E0F4
:100530002E2083465A460EA12846FEF7BBFE03E056
:100540000CA12846FEF7B6FE641C082CDFD301225E
:100550002946404603F092FA85F80C9000BFB5E7B3
:100560002025303278000000202020007C00000090
:1005700025630000200000002DE9F04106460F46EB
:1005800000BF002009490870094800F018F9044626
:1005900014B12046BDE8F081064800F05DFA064837
:1005A0000649401AC5080020F4E7000070550020F5
:1005B0005C950300A87A030048950300509403005B
:1005C00002480349401AC0087047000048950300DC
:1005D0005094030013B50C4621466846FDF734FAE3
:1005E00028B90448009A00EBC20108681CBD00202D
:1005F000FCE700005094030070B50B48D0F810449D
:100600000120094908700CE000BF0120E168487131
:1006100000BF2546286841682846884700BFE06833
:100620000468002CF0D170BD705500202DE9FF4703
:1006300007460C46164698460C9D95F80C900020EF
:1006400028732946404603F04BFA072E47D2DFE8CD
:1006500006F004090F161F2A370039462846FEF710
:1006600029FE3DE0394628462268FEF723FE37E0A2
:1006700039462846D4E90023FEF71CFE30E0A06886
:10068000009039462846D4E90023FEF713FE27E000
:10069000D4E90201CDE9000139462846D4E9002316
:1006A000FEF708FE1CE0D4E902122069CDE9001231
:1006B000029039462846D4E90023FEF7FBFD0FE0FF
:1006C000D4E90223D4E90410CDE90023CDE90210D6
:1006D00039462846D4E90023FEF7ECFD00E000BFD0
:1006E00000BF00222946404603F0C8F985F80C9067
:1006F000BDE8FF872DE9F84F07468A46388AA0F102
:1007000004080AF104004044401EB0FBF8F0C0B2F7
:1007100000903846FDF71CFE044614B90020BDE8E1
:10072000F88F0020207101216171A4F80680254610
:100730000098A0F1010B2C462F604FF0000912E049
:100740003846FDF705FE064636B16079401C6071FB
:100750002E603760354604E0204600F008F800209F
:10076000DDE709F10109D945EAD32046D7E72DE9AC
:10077000F05F0446274697F805802646A8F1010B4E
:10078000002501E036686D1C5D45FBD3D6F800A05E
:100790002646002507E0D6F8009031465046FDF782
:1007A00008FE4E466D1C4545F5D3BDE8F09F70B57B
:1007B000044625460121281DFDF772FD70BD10B5C8
:1007C00004462046FDF713FE10BDF8B50446264644
:1007D0000121301DFDF7B1FD00906D46287810B95C
:1007E0002046FFF7C4FFF8BD2DE9FC4105460E4643
:1007F00014461F46019401203B4601AA3146009051
:100800002846FDF7BCF8BDE8FC812DE9FC41054612
:100810000E4614461F46019400203B4601AA31466D
:1008200000902846FDF7ABF8BDE8FC8100BF00BF93
:1008300000BFBFF35F8F00BF00BF00BF002101609A
:100840007047000010B500200A49087000BF0A492F
:10085000086000BF00BF00BF00BFBFF35F8F00BFD5
:1008600000BF00BF00BF0549054800F0B6FB0020EF
:1008700010BD00007441002070410020A0780300EA
:100880002C52002010B500F061FB10B141DF04468E
:1008900002E020BF40BF20BF10BD2DE9F843044651
:1008A0000D4617464FF00008002000906846F6F706
:1008B0009BFF204600F03FF898BB2068066837B9D8
:1008C00020680168204600F051F821680860E0685F
:1008D000012806D0022808D004280BD0082815D1FA
:1008E0000DE06068805D287019E0606830F81600DF
:1008F000288014E0606850F8260028600FE06068E7
:1009000000EBC60003C8C5E9000108E0E3686068C1
:1009100006FB03011A462846F5F7A8FD00BF00BFF5
:1009200002E0FFE74FF005089DF80000F6F762FFD0
:100930004046BDE8F88301460868026808684368D5
:100940009A4201D1012070470020FCE770B50446AF
:1009500020680568206846683146204600F006F8A1
:10096000A84201D1012070BD0020FCE7024690683A
:10097000884201D9481C70470020FCE72DE9F84364
:1009800004460D464FF00009002000906846F6F737
:100990002BFF2046FFF7DAFF8046B8F1000F02D0A8
:1009A000207C002847D1206846682068416820469E
:1009B000FFF7DCFF21684860B8F1000F06D020681F
:1009C00001682046FFF7D2FF21680860E06801282F
:1009D00006D0022808D004280BD0082816D10DE034
:1009E0002878616888551AE02888616821F816001F
:1009F00015E02868616841F8260010E0D5E900108C
:100A0000626802EBC602C2E9001008E0E3686168B0
:100A100006FB03101A462946F5F728FD00BF00BF64
:100A2000204603F04DFB074620688168B94201D299
:100A30002068876001E04FF004099DF80000F6F798
:100A4000D9FE4846BDE8F88310B5044600BF2046ED
:100A5000F6F72EFD00BF10BD00218268916082680C
:100A60001161826851618268D160826851608268D8
:100A700011607047024602F5A86050F821007047E7
:100A800000F5A86343F8212070470146D1F804051A
:100A9000704708B5002242504258009200BF08BD7E
:100AA000C0F848137047C0F844137047C0F80813E3
:100AB0007047C0F80413704701224250704700008D
:100AC000014609B90E2070470248006808600020FE
:100AD000F9E70000387B0300FEB506460C462046C9
:100AE000FFF7EEFF05460DB12846FEBD0020009041
:100AF000019002908DF8006002208DF8020006211E
:100B0000ADF8041069462020226869DF054675B1FA
:100B1000284600F0F1FA07464E494F4A891AC9089B
:100B2000012242EA01403A464C49FFF779FC002095
:100B300000900190029001208DF801008DF80200D4
:100B40008DF8030069464020226869DF054675B1CB
:100B5000284600F0D1FA07463E493F4A891AC9089B
:100B6000012242EA01403A463D49FFF759FC002084
:100B70000090019002908DF80060F720ADF802001F
:100B800069462320226869DF054675B1284600F0D2
:100B9000B3FA07462F49304A891AC908012242EAA6
:100BA00001403A462F49FFF73BFC0020009001909E
:100BB000029001208DF800006946226869DF054631
:100BC00075B1284600F098FA07462249224A891A48
:100BD000C908012242EA01403A462349FFF720FCB6
:100BE00000200090019002904FF4B06000906946A0
:100BF000A120226869DF054675B1284600F07CFA1D
:100C000007461449144A891AC908012242EA0140D8
:100C10003A461649FFF704FC00200090019002902C
:100C20008DF800006946A020226869DF054675B18D
:100C3000284600F061FA07460649074A891AC9089A
:100C4000012242EA01403A460949FFF7E9FB002048
:100C50004BE700003895030050940300A89103006F
:100C6000F09103003C9203000891030054910300AB
:100C7000B49003002DE9F04104462568204660DF6A
:100C800006462068A84225D91E491F4A891AC90864
:100C9000022242EA01401DA1FFF7B8FB19491A4A96
:100CA000891AC908022242EA01402A4623A1236880
:100CB000FFF7C2FB03F08AFA2168471A1149124A6A
:100CC000891AC908022242EA01403A4628A1FFF7E0
:100CD000A7FB00E000BF1EB90120304908700EE0FC
:100CE000304600F009FA07460649074A891AC9083A
:100CF000012242EA01403A4629A1FFF791FB304622
:100D0000BDE8F0813895030050940300496E737577
:100D10006666696369656E742052414D20616C6C32
:100D20006F636174656420666F7220746865205318
:100D30006F66744465766963652E00004368616E72
:100D40006765207468652052414D20737461727428
:100D5000206C6F636174696F6E2066726F6D2030F6
:100D600078257820746F20307825782E00000000D8
:100D70004D6178696D756D2052414D2073697A65BA
:100D800020666F72206170706C69636174696F6E48
:100D900020697320307825782E0000001B42002047
:100DA00073645F626C655F656E61626C65282920A3
:100DB00072657475726E65642025732E00000000E4
:100DC0002DE9F041ADF5027D80461848007818B94C
:100DD0000DF5027DBDE8F0811DE04FF4FA7004903E
:100DE00004A905A861DF044604B115E005AD10496A
:100DF00001A800F0F2F809E000BF03980646376842
:100E000028467168B84701A800F008F900BF0398A8
:100E10000028F1D100BFE0E700BF052C04D000BFDF
:100E20002046F6F745FB00BF00BFD1E71B4200207C
:100E30002C7B030038B51648007808B9082038BD67
:100E400001201449087004F069F9112801D100202B
:100E5000F5E7022004F080F9002000906846F6F7DC
:100E6000C3FC11DF04460020094908709DF800000A
:100E7000F6F7C0FC0CB12046E1E7002005490870F8
:100E800005F076F8032004F067F90020D7E70000AA
:100E9000184200201A4200201CB51B48007808B1F7
:100EA00008201CBD012019490870002004F036F903
:100EB000112801D10020F4E7002004F04DF9144876
:100EC00000680190002000906846F6F78DFC1149FB
:100ED00001A810DF04460CB9012000E000200A49F7
:100EE00008709DF80000F6F785FC0CB12046D8E7A5
:100EF0000020064908700849087005F048F80120EC
:100F000004F02AF90020CCE7184200201A42002001
:100F1000087B0300F5730200194200203EB50A4920
:100F2000684600F05AF809E0684600F053F80446B5
:100F300025686068A847684600F070F8684600F0C9
:100F400049F80028F0D13EBDFC7A03000148007842
:100F5000704700001842002010B50748007808B913
:100F6000082010BD0548007810B1FFF763FFF8E7CF
:100F7000FFF792FFF5E700001A4200201842002018
:100F80002DE9FF41074618E003A84BDF044604B1F2
:100F900014E00F49684600F020F809E000BF02980D
:100FA00005462E6869680398B047684600F036F831
:100FB00000BF02980028F1D100BFE5E700BF052C73
:100FC00004D000BF2046F6F773FA00BFBDE8FF81EA
:100FD0004C7B030001468868704770B504460D4697
:100FE000256028686060204600F001F870BD14E0BC
:100FF000D0E900215268914202D1002181607047FE
:101000004168096842685268914203D041680968A2
:101010008160F4E7416808314160E9E710B50446B2
:10102000A06800B910BD2168A06889680844A06064
:10103000D4E901104968884205D1606808306060D1
:101040002046FFF7D4FF00BFECE770B505460E461B
:101050006C6806E020683146AA68904700B903E052
:10106000246820680028F5D100BF20683060266021
:1010700070BD014648680068704701464A681068BC
:101080004A68126822B14A68126812684B681A608E
:10109000704710B503460A460020596807E00C68FF
:1010A000944203D114680C60012003E009680C68C5
:1010B000002CF4D100BF10BD70B502460D4B03F5F6
:1010C000947413E0E61AF01000EBD076761003EB80
:1010D000C6010D68954201D90C4606E0954202D240
:1010E00001F1080301E0486870BD00BFA342E9D3E5
:1010F0000020F9E7C078030030B504462046FFF72A
:10110000DBFF05460DB9024830BD2846FCE700006C
:10111000AC78030001464FF4A07000EB810080B270
:10112000704701464FF480308840704708B5002270
:1011300042504258009200BF08BD0146D1F88004D9
:10114000C1F8800470470246505808B1012070472A
:101150000020FCE708B5002242504258009200BF30
:1011600008BDC0F808154FF4A2631A507047C0F8C4
:1011700008137047C0F8041370470246D2F80403FE
:10118000084008B1012070470020FCE701224250CE
:10119000704740F214531A5040F20C5319507047E4
:1011A0000146D1F88004C1F88004704702465058C7
:1011B00008B1012070470020FCE708B5002242502A
:1011C0004258009200BF08BDC0F808154FF4A26352
:1011D0001A507047C0F808137047C0F804137047DE
:1011E000014640F23C5040587047D0F800228A43F4
:1011F000C0F800227047012242507047014640F279
:101200004C504058704740F20C53195040F2145360
:101210001A5070470348006808B101207047002049
:10122000FCE700000004014010B500F04FF8012079
:101230000149086000BF10BD1805004001460020AC
:10124000054A12790AB1852004E0034A116001229F
:10125000014B1A71704700000C41002010B50220AC
:10126000FDF73EFF4FF48270FDF731FF0C20FDF7D4
:101270003DFF00BF00BF03480068C0F300400028E6
:10128000F8D110BD1804004070B5044604B970BD13
:10129000024EA5012846B04700BFF8E77178030069
:1012A0000146080B40B270470146080B40B2704738
:1012B0000146080B40B27047014601F06040B0F1B2
:1012C000005F01D1012070470020FCE72DE9F041CB
:1012D00006254FF08040FFF7E3FF04462046E21763
:1012E00004EBD2625211920002F1E022D2F8002106
:1012F0002146E31704EBD3635B11A4EB43160123F0
:10130000B3401A400AB1012200E0002282BB4FF034
:101310008040FFF7C5FF04462E4620463146002890
:1013200004DB4A07130E134A135406E04A07170E4C
:10133000114A00F00F031B1FD75400BF00BF4FF02E
:101340008040FFF7ADFF0446204600280DDB00BFBC
:1013500000BF00F01F02012191404209920002F1FA
:10136000E022C2F8001100BF00BF00BF00BF00BFF5
:10137000BDE8F08100E400E018ED00E02DE9F8435D
:1013800007460E46384602F0FDFB0446D4B14FF046
:101390000008002000906846F6F726FA207910B180
:1013A0004FF0010802E02660012020719DF8000046
:1013B000F6F720FAB8F1000F03D011252846BDE852
:1013C000F88300BF00252846F9E770B50546284692
:1013D00002F0D8FB044614B100202060207170BDDB
:1013E00010B50249024805F039FA10BD305100200D
:1013F000002000402DE9F04105460E4617462879A9
:1014000000EB400101EBC0001A4901EB80044FF0F2
:10141000000894F82A0020B14FF008084046BDE8C3
:10142000F0812A79144B53F822102868FFF7A6FFA1
:1014300018B14FF011084046F1E731462846F6F75B
:1014400026FA676030692060606818B1317F2846ED
:10145000FBF708FD28680421C0F8001500BF002034
:10146000A061E06184F829006061012084F82A000D
:101470004046D4E730510020E07703002DE9F84FD3
:10148000054689469246287900EB400101EBC000F1
:10149000424901EB800400200090606820B14FF4C5
:1014A00001712868FFF763FEA06970B1E06950B16F
:1014B000606820B14FF401712868FFF75BFE1126C8
:1014C0003046BDE8F88F01200090009838B9C4F884
:1014D00018A0C4F80C9000206062E06103E0C4F83A
:1014E0001090C4F81CA094F8290020B9009810B9F5
:1014F000284603F06EFB6068002846D14FF4A271C5
:101500002868FFF727FE00BF00BF4FF492712868DC
:10151000FFF719FE80464FF484712868FFF713FE29
:1015200083464FF4A2712868FFF70DFE0746BBF112
:10153000000F03D117B9B8F1000FE6D0B8F1000FD2
:1015400000D107B107E02146286803F007FB616A74
:10155000A0698842D8D800BF0020A061B8F1000F70
:1015600002D003263046ACE717B10F263046A8E775
:1015700094F8290020B100212868FFF707FE03E056
:1015800004212868FFF702FE04E04FF40171286887
:10159000FFF7F0FD0026304693E7000030510020B1
:1015A0002DE9F04104460F469046207900EB4001BA
:1015B00001EBC0001C4901EB8005204600F036F825
:1015C00018B111263046BDE8F081C5F81480AF602F
:1015D0000020286285F8280000264FF48E712068CC
:1015E000FFF7B8FD08212068FFF7D0FD29462068E5
:1015F00004F028FF6868A0B92946206804F007FFB6
:1016000008B90F260BE000BF4FF48E712068FFF77A
:101610009AFD0028F8D00C212068FFF7B7FD0020C4
:1016200068613046CFE7000030510020014608795C
:1016300000EB400202EBC000044A02EB800040696C
:1016400008B1012070470020FCE700003051002065
:1016500070B50446207900EB400101EBC0000C4955
:1016600001EB800520680021C0F8001500BF686804
:1016700010B12046FBF79EFB204601F04EFF20688C
:10168000FFF7A3FE002085F82A00686070BD000007
:101690003051002010B50249024805F0A3F910BDF1
:1016A0005C510020002000402DE9F04105460E4627
:1016B0001746287900EBC000194901EB80044FF070
:1016C000000894F8200020B14FF008084046BDE81B
:1016D000F0812A79134B53F822102868FFF74EFE49
:1016E00018B14FF011084046F1E731462846F6F7A9
:1016F0000CF9676030692060606818B1317F284656
:10170000FBF7FAFB28680821C0F8001500BF00208D
:10171000A061E0616061012084F820004046D6E7C6
:101720005C510020107803002DE9F84F04460E4666
:101730001746207900EBC000484901EB8005304690
:10174000FFF7BAFD20B94FF010084046BDE8F88F0A
:101750004FF0000A686820B14FF404712068FFF769
:1017600039FDA86970B1E86950B1686820B14FF4DB
:1017700004712068FFF731FD4FF011084046E5E79E
:101780004FF0010ABAF1000F04D1AF61EE60002002
:10179000E86101E02E61EF614FF000084FF48871BD
:1017A0002068FFF70AFD4FF4A2712068FFF705FDDE
:1017B0002068C0F834654FF4A7610F5000BFBAF13C
:1017C000000F04D100212068FFF715FD08E020215B
:1017D0002068D0F800220A43C0F8002200BF00BFF2
:1017E000207900EBC0001D4901EB8000406868BB18
:1017F00000BF4FF488712068FFF7D8FC00904FF4C9
:10180000A2712068FFF7D2FC83464FF492712068E2
:10181000FFF7CCFC8146009828B9BBF1000F02D13C
:10182000B9F1000FE5D00020217901EBC1010B4A8D
:1018300002EB81018861B9F1000F01D04FF003087C
:10184000BBF1000F01D04FF00F0804E04FF404711A
:101850002068FFF7C2FC404678E700005C5100209A
:101860002DE9F047044688469146207900EBC000F8
:101870002A4901EB80054046FFF71EFD18B91026E6
:101880003046BDE8F087204600F04AF810B1112636
:101890003046F6E7C5F81490C5F8088000264FF4E6
:1018A00090712068FFF789FC4FF4AC712068FFF756
:1018B00084FC20686A69A968C0F844154FF4A963DC
:1018C0001A5000BF08212068FFF795FC686818BB14
:1018D00000BF4FF490712068FFF768FC82464FF418
:1018E000AC712068FFF762FC0746BAF1000F01D126
:1018F000002FEED00FB10F260BE00C212068FFF770
:101900007AFC00BF4FF4AC712068FFF74FFC002851
:10191000F8D00020686100BF3046B2E75C5100207B
:101920000146087900EBC000044A02EB80004069E0
:1019300008B1012070470020FCE700005C51002046
:1019400070B50546287900EBC000214901EB800401
:101950002E68606810B12846FBF758FA20213046FF
:10196000FFF743FCA06940B14FF4A2713046FFF786
:1019700024FC04213046FFF73EFC4FF4AC713046A6
:10198000FFF71BFC0C213046FFF735FC00BF4FF47E
:10199000AC713046FFF70AFC0028F8D0A06930B1DE
:1019A0004FF4A2713046FFF701FC0028EFD000BFD2
:1019B0000020C6F8000500BF284601F0EDFD3046C6
:1019C000FFF703FD002084F82000606070BD000078
:1019D0005C5100203EB50A4800900A4801900A4830
:1019E000029069460948F7F7C7FC044600BF254640
:1019F00025B100BF2846F5F75BFD00BF00BF3EBD27
:101A000051920200191B0300004000208842002070
:101A10002DE9F04104462078002846D12449254A82
:101A2000891AC908042242EA014023A1FEF7EEFC0C
:101A3000A28A1F4B1F4E9B1BDB08042646EA03406D
:101A40002169FEF76FFC00261FE000BF2169885D59
:101A5000F5F794FE0546ADB1112D13D01449154A82
:101A6000891AC908012242EA01402A461FA1FEF74D
:101A7000D7FC00BF2F4627B100BF3846F5F718FD49
:101A800000BF00BF112DE1D0761CA08AB042DCD887
:101A9000A08A401E2169085C0D2805D100BF0A20DC
:101AA000F5F76CFE1128FAD000BFBDE8F081000008
:101AB0002895030050940300526563656976656458
:101AC00020646174612066726F6D20424C45204E27
:101AD00055532E2057726974696E67206461746172
:101AE000206F6E20554152542E0000004661696CF3
:101AF000656420726563656976696E67204E55532B
:101B0000206D6573736167652E204572726F722058
:101B1000307825782E20000010B5044600BF2046FE
:101B2000F5F7C6FC00BF10BD00B5014602480160D4
:101B300000F004F800BD000004E5014000BF0248C9
:101B400000680028FBD0704700E4014070B50546EE
:101B5000CDB1032D24D11449144A891AC90803228E
:101B600042EA014012A1FEF751FC0220F8F722F9E7
:101B7000044600BF264626B100BF3046F5F798FC64
:101B800000BF00BF0DE00849084A891AC9080322AE
:101B900042EA01400DA1FEF739FCF5F7E3FB00E056
:101BA00000BF00BF70BD00002895030050940300E3
:101BB0006A696E74616E673A20424C455F414456D3
:101BC0005F4556545F464153540000006A696E7485
:101BD000616E673A20424C455F4144565F4556541A
:101BE0005F49444C450000002DE9FE4F07460D4675
:101BF000002002902888B7F8CA12884201D0BDE8B8
:101C0000FE8F97F8C60200EB8001C1EB801007EB56
:101C100040046888002872D105F1060A94F804B0DF
:101C20009AF80000019001985844062804DC2179B4
:101C300001980844207116E006202071228852493C
:101C4000524BC91AC908022343EA01405049FEF722
:101C5000E7FB4D494D4A891AC908022242EA014070
:101C60004C49FEF7D3FB5E464FF0000931E006EB2E
:101C7000C60104F10A0000EB410109EB89020AF1F7
:101C8000020000EB420002680A6042684A60008974
:101C90000881002106EBC60204F10A0000EB4200B5
:101CA000418106EBC60204F10A0000EB420081818B
:101CB00006EBC60204F10A0000EB4200C18106EB0C
:101CC000C60204F10A0000EB42000182761C09F111
:101CD00001092079B042CAD8701E00EBC00104F19E
:101CE0000A0000EB4100009038460099FBF7CCF960
:101CF00010B12079062803D10120029011E011E0F3
:101D0000207987F8C50229883846F8F72DFC8046E7
:101D1000B8F1000F05D02A8839464046F9F784F813
:101D20006DE701E001200290029850B3002087F88F
:101D3000C5022A8801A93846F8F762FF8046B8F143
:101D4000000F05D02A8839464046F9F76DF856E766
:101D50009DF80400A0B12B8822880B490B4E891BEB
:101D6000C908042646EA01400B49FEF765FB2A88AC
:101D700001213846F8F7E0FF2988384600F00AFECE
:101D800000BF00BF3BE700005094030050940300E5
:101D9000647E0300AC7E0300507F030010B5044650
:101DA000FAF79EFB014A03C210BD00003841002033
:101DB00010B504460548006830B10448006804F0D6
:101DC00077FA00200149086010BD0000284100207A
:101DD00070B505462878B8B90C490D4A891AC90862
:101DE000042242EA01400BA1FEF710FB3B211248FE
:101DF000008876DF044600BF264626B100BF304685
:101E0000F5F756FB00BF00BF70BD0000289503002A
:101E100050940300446973636F6E6E656374206F42
:101E20006E5F636F6E6E5F706172616D735F65761A
:101E30007428293B200000004240002070B5054670
:101E4000AE883046FAF740FF044674B14FF6FF7390
:101E500040F2F31205F1080104F10A00FBF726F93C
:101E6000607221463046F8F71DFD70BD2DE9F04146
:101E70000546EF7BAE88012F01D0BDE8F0814FF61B
:101E8000FF70FAF721FF04461CB9042003F046FB5B
:101E9000F3E700BF2680002020720E480168C4F8D6
:101EA0000A104068C4F80E0000BF4FF6FF7340F2FE
:101EB000F31205F1100104F10A00FBF7F7F8607264
:101EC0000548C08918B921463046F8F7EBFC00BF39
:101ED000D3E7000092400020444D002070B58AB046
:101EE00004460D4600200090A9886A466069F6F70E
:101EF0009FFA064600200290039001A8039002205A
:101F0000ADF808000020ADF80A002189A88802AACF
:101F1000ADDF0646D6B9A069C0B10398F7F7FCFD5E
:101F2000A0B1009810B1012000990870182104A8F0
:101F3000F4F7B5FA02208DF810000594A888ADF8E2
:101F400018000098079004A8A16988470AB070BDDE
:101F5000CA7B012A02D18A88A0F824247047000095
:101F60002DE9F04705468846B8F80470A81D00EB37
:101F7000C7042879A07198F80F00012802D0022820
:101F800006D102E02888208003E06888208000E0F5
:101F900000BF00BF20886188884232DD22881E4948
:101FA0001E4BC91AC908042343EA01403B461CA141
:101FB000FEF742FA21883846A5DF064616B9012009
:101FC00060711EE0112E0DD1012020711249134ABB
:101FD000891AC908042242EA01403A462049FEF71C
:101FE0001FFA0EE03046FFF787F881460A490B4A90
:101FF000891AC908012242EA01404A4619A1FEF79E
:102000000FFAA079E179884203DDA1793846F8F723
:10201000EBFCBDE8F08700005894030050940300E7
:1020200052657175657374696E6720746F20757081
:102030006461746520415454204D545520746F20C0
:102040002575206279746573206F6E20636F6E6EE4
:10205000656374696F6E20307825782E000000006B
:10206000DC80030073645F626C655F676174746336
:102070005F65786368616E67655F6D74755F7265D3
:10208000717565737428292072657475726E656444
:102090002025732E0000000070B58EB004460E4659
:1020A0002C22311D03A8F4F7E1F9BDF80C50BDF85E
:1020B0001000C1B2A01D00EBC500C171A11D01EB54
:1020C000C501CA792749284BC91AC908042343EA1C
:1020D00001402B4625A1FEF7AFF9BDF8122021499A
:1020E000214BC91AC908042343EA01402BA1FEF77A
:1020F00097F9BDF810201B491B4BC91AC9080423C6
:1021000043EA01402AA1FEF78BF9BDF816201549D4
:10211000154BC91AC908042343EA014029A1FEF757
:102120007FF9BDF814200F490F4BC91AC9080423C1
:1021300043EA014027A1FEF773F9A06980B129495C
:1021400003C9CDE90101ADF80650A01D00EBC500A3
:10215000C0798DF8080001A92046A269904700BF08
:102160000EB070BD58940300509403004461746134
:10217000206C656E67746820757064617465642096
:10218000746F202575206F6E20636F6E6E656374AB
:10219000696F6E2030782530782E00006D61785F91
:1021A00072785F6F63746574733A20257500000060
:1021B0006D61785F74785F6F63746574733A20251E
:1021C000750000006D61785F72785F74696D653AC3
:1021D000202575006D61785F74785F74696D653A6C
:1021E00020257500087603002DE9F04705460E46C8
:1021F000341D2188A81D00EBC10794F804802288B3
:102200000B490C4BC91AC908042343EA0140434651
:1022100009A1FEF711F9B879404501DAB87900E073
:102220004046814620884946F8F7DEFBBDE8F08746
:10223000589403005094030050656572206F6E201F
:10224000636F6E6E656374696F6E203078257820D9
:102250007265717565737465642061206461746171
:10226000206C656E677468206F6620257520627922
:102270007465732E000000002DE9F84304460D46F6
:102280002888B4F8CA12884201D0BDE8F88394F8CF
:10229000C60200EB8001C1EB801004EB4008AF1DCB
:1022A00094F8C50200EBC00108F10A0000EB4106FA
:1022B000688800283ED100BF38E000EB4002B91C1E
:1022C00001EB42014988B1F5245F0FD06FF424522D
:1022D000114491B1012902D007291CD114E000EB6F
:1022E0004002B91C31F81210718114E000EB400279
:1022F000B91C31F81210B1810DE000EB4002B91C9D
:1023000031F81210F18106E000EB4002B91C31F8FF
:102310001210318200BF00BF718931B1B18921B182
:10232000F18911B1318A01B103E0401C3988814241
:10233000C3D800BF0020009094F8C502401C98F854
:102340000410884202D10120009014E094F8C502E4
:10235000401C84F8C5022A8869462046F8F750FCDC
:102360008146B9F1000F05D02A8821464846F8F782
:102370005BFD8AE700BF9DF80000C0B12B88B8F86C
:1023800000200C49DFF830C0A1EB0C01C9084FF068
:10239000040C4CEA01400949FEF74EF82A88012155
:1023A0002046F8F7C9FC2988204600F0F3FA00BF60
:1023B0006BE700005094030050940300507F03002B
:1023C0002DE9F0410646B7883846FAF77DFC054608
:1023D0006DB16868F5F715F9044614B1204603F0AD
:1023E0009DF800BF4FF6FF70288000BF00BFBDE81A
:1023F000F0810A88B0F8CA329A4206D1002280F8E9
:10240000C8224FF6FF72A0F8CA22704770B5044682
:102410000E46002084F82E04B088B4F824148842B4
:102420000CD1207950B901212046F6F763FA054610
:1024300025B1A06B10B12846A16B884770BD70B55F
:1024400004460D46AA88A11D01EBC200FAF708FF59
:1024500070BD00002DE9FC4706460F46BD88B7F861
:102460000690B01D00EBC5042B492C4A891AC908F7
:10247000042242EA01404B462A4629A1FDF7DCFF2F
:10248000B9F1170F01DA172000E04846814620888D
:10249000484501DD484600E020886080002020712A
:1024A0000095238862881C49DFF870C0A1EB0C01FD
:1024B000C9084FF0040C4CEA014028A1FDF7CCFFFD
:1024C00021882846B5DF8046B8F1000F0ED040467F
:1024D000FEF712FE82461049104A891AC9080122E5
:1024E00042EA014052462DA1FDF79AFF607908B1FA
:1024F000BDE8FC87B06968B1344903C9CDE9000182
:10250000ADF802506088ADF8040069463046B26903
:10251000904700BF00BFEBE75894030050940300BE
:1025200050656572206F6E20636F6E6E65637469AF
:102530006F6E2030782578207265717565737465CB
:102540006420616E20415454204D5455206F662004
:1025500025752062797465732E00000055706461E2
:1025600074696E6720415454204D545520746F2077
:1025700025752062797465732028646573697265B6
:10258000643A20257529206F6E20636F6E6E656337
:1025900074696F6E20307825782E000073645F6256
:1025A0006C655F67617474735F65786368616E679B
:1025B000655F6D74755F7265706C7928292072652E
:1025C0007475726E65642025732E0000007603001A
:1025D0002DE9FC4105460E46B788B6F80A80A81DCD
:1025E00000EBC7042088404501DD404600E020881C
:1025F00060806088172801DA172000E0608860801A
:1026000062881149114BC91AC908042343EA0140E1
:102610003B460FA1FDF710FFA86978B1607968B15A
:102620001A4903C9CDE90001ADF802706088ADF820
:10263000040069462846AA69904700BF00206071DF
:102640002071BDE8FC810000589403005094030001
:10265000415454204D545520757064617465642054
:10266000746F202575206279746573206F6E206306
:102670006F6E6E656374696F6E20307825782028E0
:10268000726573706F6E7365292E0000F875030014
:1026900030B585B004460D46A088E8B16889A188A8
:1026A000884219D1E068B8B101208DF8000005F129
:1026B00010000290E889ADF80C0069462046E268F7
:1026C00090470649064A891AC908042242EA01408D
:1026D00004A1FDF79BFE00BF05B030BDB894030018
:1026E00050940300436C69656E742073656E646971
:1026F0006E6720646174612E0000000070B588B0C0
:1027000004460D46A98801AA6069F5F791FE0646C0
:102710000EB108B070BD0198007888B1A06978B199
:10272000182102A8F3F7BBFE01208DF808000394DE
:10273000A888ADF810000198059002A8A169884703
:1027400000BFE6E701460748C068401C054AD06064
:102750001046C068082803D90020D06001207047C7
:102760000020FCE7D452002001460020154AD0602A
:10277000087910B1012821D116E0D1E90530181AE5
:10278000B0F5805F03D2D1E90530181A01E04FF4AB
:1027900080500246886983188B61D1E90503834222
:1027A00001D1012070470AE00869401C0861D1E9A5
:1027B0000420824201D10120F4E700E000BF00BF05
:1027C0000020EFE7D45200200548D0E900304FF058
:1027D00080729A1840F100000149C1E90020704759
:1027E000304100202DE9F04704460D4694F8C6021A
:1027F00000EB8001C1EB801004EB40062888B4F8A0
:10280000CA12884201D0BDE8F0876888002841D10B
:1028100032882B492B4BC91AC908042343EA0140CB
:1028200029A1FDF7FDFD05F10608D8F80600C6F858
:10283000060094F8C4A298F800900AEB0900062854
:1028400005DC94F8C402484484F8C40216E006206B
:1028500084F8C4021A491B4A891AC908022242EAAA
:10286000014020A1FDF7D2FD1549164A891AC90871
:10287000022242EA01402349FDF7C8FD298820468B
:10288000F7F772FE074627B12A8821463846F8F73F
:10289000CBFA13E032880A490A4BC91AC908042343
:1028A00043EA014018A1FDF7BBFD2A88002120461C
:1028B000F8F742FA2988204600F06CF800BFA2E73A
:1028C0005094030050940300466F756E6420736546
:1028D0007276696365205555494420307825782EF5
:1028E000000000004E6F7420656E6F75676820737E
:1028F0007061636520666F722073657276696365C7
:10290000732E0000087F03005365727669636520AB
:10291000555549442030782578206E6F7420666FB5
:10292000756E642E000000002DE9FF4106460D463D
:1029300028887188884201D0BDE8FF81AC1C2078CE
:10294000022800D0F8E7207A042806D0207A06284A
:1029500003D0207A052800D0EEE7002000900190F7
:102960000290039002208DF800004FF4C070ADF883
:102970000400207A052802D10020ADF80400288840
:102980006946B0DF074617B138467168884700BF0F
:10299000D2E70000F0B589B004460E46202101A818
:1029A000F3F77DFD94F8C702401C84F8C70294F841
:1029B000C70227490968884240D2002084F8C5022E
:1029C00094F8C602401C84F8C60294F8C60200EBD4
:1029D0008001C1EB801004EB400594F8C6021D494C
:1029E00001EB800000682860002028712A881A49BD
:1029F0001A4BC91AC908042343EA0140334618494F
:102A0000FDF71AFD02208DF804000120ADF8140036
:102A10002968CDF81610049412480390324601A993
:102A200011480068FBF71AFE074637B132462146C7
:102A30003846F8F7F9F909B0F0BD06E0002084F84F
:102A4000C80231462046F8F75DF900BFF3E7000001
:102A50008C400020F84C0020509403005094030058
:102A6000A87F030029AE0200884000202DE9F04134
:102A700004460D462888262801D0BDE8F081287A32
:102A8000012802D0287A02280ED1A078F4F7A9FBF9
:102A9000074639462046F5F72DFF064626B1A06BBE
:102AA00010B13046A16B884700BFE6E7704770B5AC
:102AB00004460D462879012808D128886188884273
:102AC00004D101202072204604F00EF970BD0000F0
:102AD0002DE9F0410446A51D28881249C98988427C
:102AE0001DD1688902281AD1B4F804804046FAF74B
:102AF000EBF8064696B105F10C00F7F70DF820B19A
:102B000031464046F7F7CEFE08E07068F4F779FDED
:102B1000074617B1384602F001FD00BF00BFBDE80F
:102B2000F0810000444D0020F0B587B004460E4609
:102B3000B51DB1886A466069F5F77AFC0746182129
:102B400001A8F3F7ACFC0294B088ADF80C00009833
:102B500004902988208981421CD16889022819D1D2
:102B6000009848B305F10C00F6F7D6FF30B101200C
:102B70000099087002208DF8040005E000200099FB
:102B8000087003208DF80400A069A8B101A8A1690C
:102B9000884711E02888A18988420DD1A06958B1E1
:102BA00000208DF8040005F10C0005906989ADF84E
:102BB000181001A8A169884707B0F0BD30B50246DA
:102BC00048F20963002015E000EB80040C4D05EB92
:102BD000840464688C420BD200EB800405EB84040F
:102BE000646804F580548C4202D90023108003E00D
:102BF000441CA0B20228E7DB00BF184630BD00002D
:102C000094530020024602EB82000A4B03EB800043
:102C10000089084481B202EB820003EB8000408906
:102C2000084481B2B1F5806F01DC012070470020BB
:102C3000FCE70000945300208A7D022A04DD03890A
:102C4000CA88D21C1A4402814389CA88D21C9A1AA3
:102C50004281704738B5044600200823034A2146C4
:102C600000900348FCF7BAFE38BD0000847A0300E8
:102C70003442002008B50020009004480823044A8C
:102C800001680448FCF7AAFE08BD00009C41002032
:102C90007C7A03003442002010B5044602480178D3
:102CA0002046F6F7CBF810BDC24000202DE9F047D2
:102CB00004460E461746002500BF184801782046F6
:102CC000F6F7BCF808B1012000E00220804604F5C8
:102CD000807188B2072100F07DF90546ADB1052D60
:102CE00013D02846FEF708FA81460D490D4A891A85
:102CF000C908012242EA014023464A460A49FDF733
:102D00009BFB2946204602F04FFC3B46324641469B
:102D10002046F7F7F1FDBDE8F0870000C340002032
:102D200090940300509403002C85030030B585B0C7
:102D300004460D4602208DF800002088ADF8020000
:102D40006079C0F3800008B1012000E002208DF816
:102D500008008DF809506846F8F7A2FC05B030BDB0
:102D600070B504460D460021204603F0D3F870BD2F
:102D700070B586B004460D4616462246052101A8C8
:102D8000FAF754FF0395049601A8F8F79DFC06B0E6
:102D900070BD000070B50546002405E0044850F8F9
:102DA000241028468847641C042CF7D370BD00000B
:102DB000407603002DE9F041054601260027E8682A
:102DC00004F0F6F904462878082804D0092809D028
:102DD000132818D115E0687A18B914B1204604F008
:102DE00019FA11E0687A58B954B100206060A07AED
:102DF00020F00200801CA072012008490870002603
:102E000002E0012700E000BF00BF16B12846FFF72F
:102E1000C1FF384601F04AFABDE8F081B940002010
:102E200070B504460D461646002332462946204614
:102E300000F05EF970BD00002DE9FC410546002060
:102E4000019001A9284604F099F9064624E0B178DA
:102E5000284600F0BFF80446B4B1052C14D0204633
:102E6000FEF74AF90746B0781A491B4A891AC90879
:102E70000122009042EA01402B463A461749FDF7ED
:102E8000EBFA0320BDE8FC810198401C019001A9E8
:102E9000284604F073F90646002ED8D1284600F0E3
:102EA000E5F904460CB1072C01D12046EAE720469B
:102EB000FEF722F907460749074A891AC90801227D
:102EC00042EA01403B462A460549FDF7B5FA032090
:102ED000D8E700008894030050940300B0830300F7
:102EE000088403002DE9F84380460D4614461E462B
:102EF00000BF16B90E20BDE8F88300BF00BF072D44
:102F000003D0082D01D00720F5E700BF0CB1042C39
:102F100001D90720EFE74FF000092946404604F0A9
:102F200007F90090009840B92A464146684604F0E7
:102F3000EDF8009838B91120DDE70098007AA0423A
:102F400001D00F20D7E70098407AFF2810D1214602
:102F50001C4800F060FB009948720098407AFF28F6
:102F600004D1009804F043F91120C4E74FF001099F
:102F700000990C720098417A124800F07DFB0746D8
:102F80006FB900994A7A1049104BC91AC908012330
:102F900043EA01400E49FDF743FA0320ABE7A3B231
:102FA0003A462946304600F011FAB9F1000F07D031
:102FB000082D05D130880621C1EB8000716888801A
:102FC000002098E7E84D0020889403005094030007
:102FD0003C83030070B505460E463146284604F092
:102FE000A7F804460CB9052070BD204604F012F97C
:102FF0000020F9E72DE9F04107460D46164600BFCF
:10300000072D04D0082D02D00720BDE8F08100BFB5
:10301000304600F03AF908B90720F6E72946384665
:1030200004F086F804460CB90520EEE72680A5706A
:10303000204603F083FFE8E770B505464FF6FF70C2
:103040006880002405E0044850F82410284688478A
:10305000641C002CF7D070BD2876030010B5044620
:10306000204600F0EFF910BD10B50446204600F0F0
:10307000F3F910BD2DE9F04186B006460F4614461F
:1030800000BF304600F08AF918B9012006B0BDE84B
:10309000F08100BF304600F094F980460F4A03A942
:1030A0004046F8F7BEFB08B10020EFE701A903A8EE
:1030B000F8F7D6FB05460DB10020E7E7A6700198AA
:1030C000408820800298606001998888F8F74AFC5F
:1030D000388003A8F8F766FB0120D7E7B04000204E
:1030E000024800210160416070470000B0400020AC
:1030F0002DE9F04786B080460F4614461D4600BFB6
:10310000B8F1FF0F03DD072006B0BDE8F08700BF70
:1031100000BF384600F042F908B90720F4E700BFC5
:1031200003AA3946404600F019F906460EB10520BB
:10313000EAE701A903A8F8F793FB06460EB10520BC
:10314000E2E7A77001984088208015B90298606076
:1031500016E020884FEA800A20882968B1EB800FAA
:1031600001D2286801E020888000814602994A4601
:103170006068F3F77BF9D14501D20C20C4E700BFAA
:1031800003A8F8F70FFB0020BEE70000F0B587B0FA
:1031900006460C46174600BFFF2E02DD072007B08B
:1031A000F0BD00BF00BFA07800F0F8F808B9072014
:1031B000F5E700BF304600F087F9ADF81000A078C1
:1031C00000F0FFF8ADF812006068059021880691C4
:1031D000A17801AA304600F0C1F80546052D05D1B9
:1031E00004A901A8F8F772FB054604E004A901A8A8
:1031F000F8F75EFB054648F20661681A8D4216D064
:1032000006DC55B1A5F50640A0F1020098B910E022
:1032100001280AD007280ED106E01FB1394601A8BF
:10322000F8F713FB0020BAE700BF1120B7E78620AC
:10323000B5E71020B3E70749074A891AC9080122F0
:1032400042EA014033462A460449FDF7F5F80320D7
:10325000A5E70000809403005094030098820300C7
:1032600010B54FF6FF7000F0BFF810BD10B5044662
:1032700000BFFF2C01DD072010BD00BF204600F07D
:10328000BDF800F017F80020F6E710B50446204618
:1032900000F0FEF810BD2DE9F04105460E46174638
:1032A0001C46A3B23A463146284600F08FF8BDE8E6
:1032B000F0810000F0B585B000202449087000902E
:1032C00001904FF6FF7000F0BDF8054606E0284675
:1032D00000F0AAF8284600F0B5F805464FF6FF7052
:1032E00085420BD0284600F0EFF807466A4602A94F
:1032F000F8F7A1FA48F209618842E8D04FF6FF706A
:10330000854220D0284600F0DFF806463046F8F720
:1033100023FA044648F20760844203D101200B4996
:10332000087010E07CB10A490A4A891AC9080122CA
:1033300042EA01402B4622460749FDF77DF8214627
:10334000284602F01DF905B0F0BD0000AD40002098
:103350008094030050940300F08203002DE9FC47A1
:1033600005460C461646204600F018F8002000904E
:103370000190284600F0A8F88046204600F021F889
:1033800081466B46324649464046F8F73FFA0746C3
:1033900017B10520BDE8FC870020FBE7014607299F
:1033A0000BD0012909D0082907D0052905D0062905
:1033B00003D0092901D0042901D101207047002040
:1033C000FCE7014601F5404080B2704770B503EB61
:1033D00083054FF6FF7606EA051481704260E51C0E
:1033E000AD10058070BD000010B5044602492046AE
:1033F000F7F702F910BD0000684F002070B50446D1
:103400004FF6FF70844201D1002070BD054920466F
:10341000F7F7F2F80546A54201D10120F5E70020B3
:10342000F3E70000884F002010B504460449204609
:1034300001F07CF902492031204601F077F910BDF6
:10344000684F002010B5044602492046FAF707FCF1
:1034500010BD0000884F002010B504460B492046DF
:10346000FAF7FDFB04460AE0204600F01FF808B911
:10347000204610BD05492046FAF7F1FB04464FF6F9
:10348000FF708442F0D12046F3E70000684F00202F
:1034900010B50446FF2C04DC21460348FAF7CDFEA4
:1034A00010BD0020FCE70000684F002010B5044666
:1034B000FF2C04DC21460348FAF7BFFE10BD0020B4
:1034C000FCE70000884F0020014601F5404080B233
:1034D0007047000070B50446002508E004F534721A
:1034E00002EBC51002EBC512D16F88476D1C044872
:1034F00000688542F2D30020C4F8CC0270BD000001
:103500008C40002001460868012802D00868022883
:1035100001D1012070470020FCE72DE9F047044667
:10352000206840F20C5109580D46206840F21451B1
:1035300009580E462068D0F808150F4620684FF449
:10354000A26109588846D4F800904FF0FF32114626
:103550004846FDF71EFE00BFD4F800904FF0FF3242
:1035600011464846FDF7FDFD00BF681C10B1284616
:10357000FCF78EFB701C10B13046FCF789FB08F19C
:10358000010010B14046FCF783FB781C10B13846AF
:10359000FCF77EFBBDE8F0872DE9F0470446206884
:1035A00040F20C5109580D46206840F21451095858
:1035B0000E462068D0F808150F4620684FF4A26127
:1035C00009588846D4F800904FF0FF32114648461B
:1035D000FDF719FE00BFD4F800904FF0FF321146FE
:1035E0004846FDF7F1FD00BF681C10B12846FCF706
:1035F0005BFB701C10B13046FCF756FB08F1010074
:1036000010B14046FCF750FB781C10B13846FCF76F
:103610004BFBBDE8F0872DE9F041044688461CB11C
:10362000206808B1606810B9FF20BDE8F081FF256F
:1036300000261CE031466068FAF722FA40B1FF2DFF
:1036400000D13546701B401C40450ED12846ECE7A2
:10365000FF2D0AD02F4605E03946204600F024F819
:10366000781CC7B2B742F7DBFF25701CC6B2A06852
:10367000B042DFD8FF20D8E770B504460D461CB134
:10368000206808B1606808B9002070BDFF2D09D01E
:1036900029466068FAF707FA20B1E168206805FB5F
:1036A0000100F2E70020F0E770B504460D4674B162
:1036B000206860B1606850B1FF2D08D0294660686D
:1036C000FAF7F1F918B129466068FAF7FCF970BD0C
:1036D00010B504462046F7F7CFFF10BD10B50446DD
:1036E0002046F7F7C9FF10BD10B504462046F7F78E
:1036F000C3FF10BD30B585B004460125A088F9F799
:1037000027F960802078082806D0092836D00A28B2
:1037100049D00B287BD17BE0607AF0B94F48006834
:1037200068B14E49E0680968884208D100204B49D9
:103730000860A0884A4908800021E1601DE04948EE
:103740000078D0B1A08846490988884215D1207AEE
:10375000062812D100F042FD0FE0607A01280CD15A
:103760004048007848B1A0883D490988884204D182
:10377000207A062801D100F031FD68E0607A88B92E
:103780003648006870B13549E0680968884209D157
:1037900000203249086034480068401E3249086001
:1037A0000021E16053E03148007828B34FF6FF7004
:1037B000FFF75AFC4FF6FF7188421DD1FFF74EFC10
:1037C0004FF6FF71884217D1002028490870142154
:1037D0006846F2F764FE0C208DF800004FF6FF708B
:1037E000ADF80400ADF8020000252046F7F744FFCD
:1037F0006846F7F741FF00BF1A48007830B1A0884B
:1038000017490988884201D100F0E8FC1FE01DE05B
:1038100016480078C8B10020144908701421684681
:10382000F2F73DFE0D208DF800004FF6FF70ADF869
:103830000400ADF80200A068029000252046F7F7CA
:103840001BFF6846F7F718FF00BF00E000BF00BF8E
:1038500015B12046F7F710FF05B030BDA04000209D
:10386000A84000209D400020A44000209E40002051
:103870002DE9F04F87B006460F469046994600BFA7
:103880003C48007818B9082007B0BDE8F08F00BFA9
:103890004FF6FF70FFF7E8FB044600200690042077
:1038A000059000200390049006A8049005AB03AA9D
:1038B00006212046FFF71CFC0546002002904FF031
:1038C000FF3A4FF6FF7B4FF6FF700190072D01D1B5
:1038D0000520D9E718E065B906990298814202D31C
:1038E00006980290A3460698504502D2DDF818A02B
:1038F00001942046FFF7B8FB044605AB03AA062156
:103900002046FFF7F5FB0546002DE4D0052DE2D05B
:103910004FF6FF7084421AD1834503D021460198A7
:10392000884201D1052500E000250EB1A6F800B0BF
:103930000FB102983860B8F1000F02D00198A8F8D2
:103940000000B9F1000F13D0C9F800A010E028461C
:10395000FDF7D2FB0849094A891AC90801220090DB
:1039600042EA014023460649009AFCF765FD03251B
:10397000284689E79C40002070940300509403007F
:103980005082030010B5044600BF04B910BD00BF4B
:103990002046F7F771FE00BFF8E700002DE9F05F61
:1039A000814600BF00254DE02B484057401C00B920
:1039B00047E0284600F052F8044649462046FAF708
:1039C00034FD00283CD0284600F050F8064600BFE1
:1039D00000BF4FF0A041084600F5E06151F8241007
:1039E000C1F301418846B8F1020F01D1032000E084
:1039F0000220824651462046FCF794F900BF00BFE2
:103A00004FF0A04108460121A140C0F8201500BF99
:103A10002046F6F7BFFC8346F6F7B4FC074677B1BD
:103A2000032E09D0B8F1020F01D1012E04D0B8F154
:103A3000030F04D1022E02D131462046B84700BF01
:103A400000BF6D1C042DAFD34846F9F7D5FB002805
:103A5000A8D1BDE8F09F0000245100200146024893
:103A6000425C22F0C0007047245100200146024809
:103A7000425C9009704700002451002070B5044654
:103A80000D461646207A05280CD0607A28B10A48DF
:103A90000AA102682846FBF70DFC09A12846FBF79E
:103AA00009FC04E01EB106A12846FBF703FC2846EA
:103AB000FBF715FC70BD0000EC41002025730000F1
:103AC0000D0A000070B5FCF7BDFE044600BF254698
:103AD00025B100BF2846F3F7EBFC00BF00BF70BD67
:103AE000F8B504460D46E08838B116A00090E3888A
:103AF00016A218A12846FBF7DDFB207A05281FD067
:103B0000607A58B1217AA088FCF74EFA174951F82B
:103B10002060324616A12846FBF7CCFB28462168D8
:103B200002F074FCA0880021FCF754FD0646207AC0
:103B3000104951F8202033460FA12846FBF7BAFB65
:103B4000F8BD00001B5B306D000000001B5B313BCB
:103B500033316D0025734C6F67732064726F707022
:103B60006564202825642925730D0A00EC41002096
:103B700025730000D84100203C25733E2025733A70
:103B80002000000001460348814201D102487047ED
:103B90000020FCE7002000401441002070B50446DE
:103BA000214605480068FAF7BAFA05461C2128465E
:103BB000F2F775FC284670BD787A030010B504460C
:103BC000214602480068FAF7D4FA10BD787A03005B
:103BD00010B5034903480068FAF7AFFA10BD0000BA
:103BE00084410020547A030010B50446214602485F
:103BF0000068FAF7A2FA10BD787A030010B5012127
:103C00000348FAF79AFB08B1012010BD0020FCE739
:103C10009041002010B50446214602480068FAF79A
:103C20009AFA10BD787A030010B507490748006872
:103C3000FAF791FA064908600846006808B10120C1
:103C400010BD0020FCE7000084410020547A0300EE
:103C500080410020F0B58DB006460D466C496D4A96
:103C6000891AC908042242EA01406BA1FCF7CEFB85
:103C7000012205A93046FCF710FE0446002C7DD138
:103C80009DF8140006287AD2DFE800F003152D3FD6
:103C90004E5D5F495F4A891AC908042242EA014021
:103CA00065A1FCF7B3FBBDF82620BDF8241028461B
:103CB000A1DF04467DE001A90B91BDF82A20002375
:103CC0000B990698FCF790FD5149524A891AC90888
:103CD000042242EA01405DA1FCF798FB09A92846AD
:103CE000A3DF044665E04A494A4A891AC908042202
:103CF00042EA01405AA1FCF789FBBDF824100DF1FE
:103D0000260228469BDF044653E04149414A891A6E
:103D1000C908042242EA01405BA1FCF777FB09A92C
:103D200028469DDF044644E039493A4A891AC908C1
:103D3000042242EA01405EA1FCF768FB09A928467B
:103D40009EDF044635E001A90C910023022269465A
:103D50000698FCF749FDCDF82CD00B9B1A8802235E
:103D60000C990698FCF740FDBDF800702849294AD7
:103D7000891AC908042242EA014001E045E00DE049
:103D800058A1FCF743FB09A92846AEDF044624B935
:103D9000BDF80000874200D00C240AE01C491D4AEF
:103DA000891AC908022242EA014051A1FCF72EFB00
:103DB00000BF00BF112C0AD11549164A891AC9083B
:103DC000042242EA01405149FCF720FB1DE09DF826
:103DD00014004F4951F8200068B10698FCF7C7FC61
:103DE0000B490C4BC91AC908042343EA014049A1F5
:103DF000069AFCF715FB002205A93046FCF74DFD9D
:103E00002246294605A800F09BFC0DB0F0BD00003D
:103E1000609403005094030050726F63657373697C
:103E20006E672074686520726571756573742071A2
:103E3000756575652E2E2E004741545443205265FA
:103E40006164205265717565737400004741545474
:103E500043205772697465205265717565737400EB
:103E60004741545443205072696D61727920536503
:103E7000727669636520446973636F766572792031
:103E8000526571756573740047415454432043680B
:103E900061726163746572697374696320446973E4
:103EA000636F766572792052657175657374000071
:103EB0004741545443204368617261637465726979
:103EC000737469632044657363726970746F7220E0
:103ED000446973636F766572792052657175657395
:103EE00074000000474154545320485658000000C5
:103EF000556E696D706C656D656E746564204741C3
:103F00005454205265717565737400007C81030000
:103F100010760300506F696E74657220746F2066AE
:103F200072656564206D656D6F727920626C6F6378
:103F30006B3A2025702E000010B52148007A30B968
:103F4000FFF772FE18B900201D49486010BD02201D
:103F50001B4908721B480068007910B101280CD178
:103F600005E01848006803F0DDF9044607E015484D
:103F70000068F7F7A3F9044601E0032400BF00BF7F
:103F800014B1112C0CD107E00D48007C18B90021A8
:103F90000220FBF7DDFC0FE00120094908720BE06D
:103FA000032108480068F7F7A1FA002004490872C5
:103FB0004860FFF70DFE00BF00BF00BFC6E700006E
:103FC000D45200208041002010B586B0044654E051
:103FD0002C48006820B92C48FFF71CFE29490860CE
:103FE000284800680078072821D2DFE800F0200484
:103FF0000B0C13141B00234801682046F8F7CAFD78
:10400000044617E000BF1F480168204603F0B6F9D8
:1040100004460FE000BF1B4801682046F6F7C6FDC6
:10402000044607E02046F7F71FFF044602E048F287
:104030000E6400BF00BF04B920E0142101A8F2F70C
:104040002EFA41F61D50844201D1002000E02046A6
:10405000029001A90B480068F7F708FA01A8F7F7E2
:1040600079FA00200749086000240748FFF7BCFDE3
:10407000FFF7C4FD00B901E000BFA9E700BF06B02B
:1040800010BD0000B0410020B441002010B505482B
:10409000FAF7FFF828B90348001F407C08B9FFF77A
:1040A0004BFF10BDD852002010B501210348FAF78C
:1040B0000DF910B90020FFF787FF10BD90410020D7
:1040C00001460868026808684368934201D3981A59
:1040D000704700BF8868401C801A1844F8E7000049
:1040E00070B58AB00446002209A9E068FCF7D5FB48
:1040F00005463CE02049214A891AC908042242EABF
:104100000140BDF824201EA1FCF78AF9BDF8241057
:1041100001EB8101A06800EB8106002201A9304675
:10412000FCF7BBFB054619E09DF804001D4951F85A
:10413000200068B10298FCF71AFB0F490F4BC91A0F
:10414000C908042343EA014017A1029AFCF768F961
:10415000002201A93046FCF7A0FB0546002DE3D064
:10416000002209A9E068FCF798FB054600BF002D76
:10417000C0D00AB070BD00006094030050940300EA
:1041800050757267696E672072657175657374200A
:10419000717565756520776974682069643A2025B2
:1041A0006400000010760300506F696E7465722021
:1041B000746F206672656564206D656D6F7279201D
:1041C000626C6F636B3A2025702E00000248006815
:1041D000810201F1005070470C01001010B500235E
:1041E0001A460B490B48FFF743FB0446052C06D142
:1041F0004FF6FF70074908800020054908600CB1A0
:10420000052C01D1012000E000200349087010BDF9
:10421000A4400020A84000209D4000202DE9F0414E
:1042200007460E4614461D462A4631462046F2F7FA
:104230001DF90020BDE8F08110B54023154A16484D
:1042400001681648FBF78AFA044604B110BD13480A
:1042500002F0F2FD0F482030F2F74AF91F2805D28C
:104260001F220C4920310E48F2F700F9202209499B
:104270000B482038F2F7FAF8094820380078FF2870
:1042800006D10748203807A10A6802600979017140
:1042900000BFDBE7484200205840002020420020B9
:1042A000F839002003FF015A0000000070B50546F0
:1042B0001A48007800B970BD002018490870002421
:1042C00027E004EB4400164901EB8000807AC0F33C
:1042D000400038B904EB440001EB8000807A00F024
:1042E0000100A8B101200D49087004EB44000C49FD
:1042F00001EB8000807AC0F3400000B945B104EBC7
:104300004401074A02EB810002F0C8FE00B9D2E77F
:10431000641C042CD5D300BFCDE70000B9400020B9
:10432000F84D002010B50446142C01DB002010BD10
:1043300021460548F9F790FF21460348001FF9F789
:104340008BFF0120F3E70000684D00202DE9F041CC
:1043500006460F4615461C461E48007818B948F216
:104360000160BDE8F08105B114B948F20460F8E7D6
:1043700029E0A08800EB8000174911F8200000B167
:104380001EE015E0216826B188883288904200D06E
:104390000EE027B108883A88904200D008E088688B
:1043A0002860206868600D48008928810020D8E7CF
:1043B000A088214600F070F80028E3D1206000BFFB
:1043C000A088401CA080A0880228D2DB48F20960A7
:1043D000C7E700008841002094530020BC53002010
:1043E0007FB504460020009001900290E0680090A4
:1043F00003A9684600F012F858B1019EB188E18027
:1044000031882181BDF80C10019800F081F8054633
:1044100001E048F20965284604B070BD38B504468D
:104420000D466068F2F780FE90B12089194909892C
:1044300088420DD1D4E900018968884208D1284614
:104440006168FEF7BBFB08B9012038BD0020FCE71E
:104450000020288018E0002000900CE00099886877
:104460002268904206D1009860600A480089208145
:104470000120EAE700BF2888694600F00DF800280F
:10448000ECD12888401C288028880228E3DB002003
:10449000DBE70000BC5300202DE9F04104460D4647
:1044A00004EB8400194901EB8000406800F5805757
:1044B0002E6826B13046F8F784F9064607E004EB8B
:1044C0008400124901EB8000406800F1080615E005
:1044D00039463046F8F752F920B1012806D00228B3
:1044E0000BD108E02E600120BDE8F0813046F8F7DE
:1044F00068F9064601E00020F6E700BF394630467D
:10450000F8F754F90028E3D100BFEDE794530020F9
:10451000F8B504460D46002004230A4A21460090BF
:104520000948FBF75BFA064616B148F20D60F8BD84
:10453000012005EB8501054A02EB8101087400208A
:10454000F5E700008C7A03003442002094530020E9
:10455000F8B504460D460221A17500200423221D52
:10456000294600900448FBF739FA06460EB90020A8
:10457000F8BD48F20D60FBE734420020F8B5044670
:104580000E462078032801D1052100E00621A175FF
:104590000020042304F10802311D00900448FBF7B9
:1045A0001DFA05460DB90020F8BD48F20D60FBE785
:1045B00034420020F8B504460E46206908B10321B4
:1045C00000E00121A1750020042304F10C0206F192
:1045D000080100900448FBF701FA05460DB90020D8
:1045E000F8BD48F20D60FBE73442002010B5012110
:1045F0000148F9F755FE10BD9841002070B50546F9
:10460000002406E0044901EB84002946F9F7BFFDC8
:10461000641C1E2CF6D370BD644D002010B598B0FC
:104620000F488068C04317900D48416817A8F9F7F4
:1046300042FE179901A8F6F768F82C2201A90CA8E8
:10464000F1F714FF002405E00DA931F81400FFF77D
:10465000D5FF641C0C98A042F6D818B010BD00001D
:10466000604D002010B5044621460248F9F78FFD41
:1046700010BD0000684D0020F8B504460D4601212C
:10468000A17500200090E088830005F10C01054829
:104690002269FBF7A3F906460EB90020F8BD48F2DF
:1046A0000D60FBE7344200200246002110E00B4879
:1046B00000EB810080789378984208D1074830F861
:1046C00021001388984202D1054800687047491CB0
:1046D000044800688142EAD30020F7E7F84C002044
:1046E000844000208C40002070B504460D462046D2
:1046F000FFF7DAFF08B1002070BD0A4800680628FD
:104700000DD209480749096800EB81002168016062
:1047100004480068401C034908600020ECE70420BE
:10472000EAE700008C400020F84C002070B50446F9
:104730000D46FF2C03DC21462846F9F728FD70BD05
:10474000F8B504460E46154665B922781049114B56
:10475000C91AC908042343EA014033460EA1FBF7F6
:104760006BFE13E00095227809490A4BC91AC90863
:10477000012343EA014033461649FBF76DFEA0686A
:1047800020B132462846D4E902319847F8BD0000EE
:104790006094030050940300534420474154542034
:1047A00070726F63656475726520282564292073B3
:1047B0007563636565646564206F6E20636F6E6EFC
:1047C000656374696F6E2068616E646C653A20255C
:1047D000642E0000308103002DE9F04104460E46AE
:1047E0000025207806286DD2DFE800F0031323347B
:1047F00044544549454A891AC908042242EA0140FD
:1048000043A1FBF703FE628A218A3046A1DF0546F9
:1048100063E03D493D4A891AC908042242EA014041
:1048200040A1FBF7F3FD04F110013046A3DF05467C
:1048300053E03549354A891AC908042242EA014041
:104840003DA1FBF7E3FD218A04F1120230469BDF14
:10485000054642E02C492D4A891AC908042242EA39
:10486000014040A1FBF7D2FD04F1100130469DDF6D
:10487000054632E02449254A891AC908042242EA39
:10488000014042A1FBF7C2FD04F1100130469EDF5A
:10489000054622E0A06907881B491C4A891AC908F5
:1048A000042242EA014043A1FBF7B0FD04F11001EC
:1048B0003046AEDF054625B9A0690088B84200D071
:1048C0000C250AE01049114A891AC908022242EA55
:1048D000014041A1FBF79AFD00BF00BF112D0CD193
:1048E00009490A4A891AC908042242EA0140414991
:1048F000FBF78CFD0020BDE8F0812A4631462046BA
:10490000FFF71EFF0120F6E76094030050940300B8
:104910004741545443205265616420526571756566
:1049200073740000474154544320577269746520E2
:104930005265717565737400474154544320507239
:10494000696D61727920536572766963657320447D
:104950006973636F766572792052657175657374DA
:104960000000000047415454432043686172616372
:10497000746572697374696320446973636F7665E3
:104980007279205265717565737400004741545403
:10499000432043686172616374657269737469630B
:1049A0002044657363726970746F7220526571750B
:1049B000657374004741545453204E6F746966699F
:1049C000636174696F6E206F7220496E6469636100
:1049D00074696F6E00000000556E696D706C656DD6
:1049E000656E746564204741545420526571756545
:1049F00073740000E881030002460846704710B552
:104A000004462046F6F78FFB08B1FDF7DDFE0021D6
:104A10002046F6F798FA10B12046FDF7C9F90121B2
:104A20002046F6F790FA10B12046FDF7B7F9204678
:104A300001F082FC204600F03FF810BD2DE9F04760
:104A400006460F464FF00D0800203870F7F748FD76
:104A5000D6E902321C1A62EB010500210846091B47
:104A6000A84118DAB4F5350F04D3F2F761FD104907
:104A7000084400E0B06881464FF496034A4600219E
:104A80000C48F6F766FB8046B8F1000F02D1012012
:104A9000BDE8F08703E000210648F6F749FAB8F1CF
:104AA0000D0F03D1304601F003FC38700020EFE712
:104AB000FFFFB40020410020F8B5074646E000BFE4
:104AC0002448FCF7D6FA06460EB1304600E0002036
:104AD00004460025002C31D01F48006808B9012584
:104AE00012E01D49D4E902300A68D2E90212591ACB
:104AF000904109D2012518480068007F20B116486E
:104B000001681448FCF7A1FABDB101F059FA044656
:104B100069462046FFF792FF58B10F48006810B968
:104B20003846F6F708FB0C4804609DF8000018B9F9
:104B30000DE000200849086007E008E0064800682A
:104B400010B93846F6F7FEFA01E000BFB7E700BF3C
:104B5000F8BD0000347803002841002070B50546F8
:104B60000C46A06940B94FF484712846FCF7F2FA6C
:104B700000BFD5F8180570BD4FF484712846FCF7C6
:104B8000E9FA00BFD5F81805C0B2626AE168885436
:104B9000606A401C606200BFEDE77FB504460D46C9
:104BA000164601208DF80000029501966846D4E96A
:104BB000001290477FBD7FB504460D461646012082
:104BC0008DF80000029501966846D4E900129047DE
:104BD0007FBD10B504464FF492712068FCF7BAFA15
:104BE0004FF484712068FCF7B5FA00212068FCF7C7
:104BF000CDFA10BD70B504460D4605480178204633
:104C0000F4F71CF910B9204600F004FE70BD000056
:104C1000EF4000202DE9FF470546D5F80480D5F880
:104C20001090287803283ED0042831D0052802D0DF
:104C300006287CD10AE06E6800BF344624B100BF6C
:104C40002046F2F735FC00BF00BF88E06C68A07911
:104C500061792279E378CDE90032CDE90210A378B9
:104C600062784049404FC91BC908032747EA014001
:104C70003EA1FBF705FCA17960792279CDE90020FE
:104C80000291E378A278617838A0F1F795FF66E0A9
:104C90003449354A891AC908032242EA01403FA132
:104CA000FBF7B4FB5BE02F492F4A891AC90803229E
:104CB00042EA01403DA1FBF7A9FB69688A8B2949BB
:104CC000294BC91AC908032343EA01403EA1FBF757
:104CD000A7FB69688A692349234BC91AC9080323BA
:104CE00043EA01403EA1FBF79BFB6A6891691D4ABC
:104CF0001D4BD21AD208042343EA02402022FBF7BC
:104D000011FB696888693A49F1F7E0FB044624B36E
:104D1000FAF792F93648007803280ED1A520E07002
:104D200000202071686820228169324800E015E087
:104D3000F1F79CFB2F48F6F7C9FA01232E4A4946A2
:104D400008F102008CDF064600BF374627B100BFDE
:104D50003846F2F7ADFB00BF00BF00E000BF00BF68
:104D6000BDE8FF872895030050940300436F6E6EE3
:104D7000656374696E6720746F207461726765740F
:104D8000202530327825303278253032782530327F
:104D90007825303278253032780000005363616E18
:104DA0002074696D6564206F75742E004E52465FE5
:104DB000424C455F5343414E5F4556545F4E4F54FE
:104DC0005F464F554E442E006164765F705F6461AC
:104DD0007461206C656E6768743D25640000000096
:104DE0006164765F705F646174612E2573000000FA
:104DF000D8390020484A0020F24200207FB5002028
:104E0000009001900290039001208DF804008DF82D
:104E10000C00284A69462848F9F714FF044600BFE9
:104E2000254625B100BF2846F2F742FB00BF00BF70
:104E30002248F1F75DFB70B1204A00211E48F9F7C6
:104E40008EFE044600BF254625B100BF2846F2F776
:104E50002FFB00BF00BF1A4A03211748F9F77FFE56
:104E6000044600BF254625B100BF2846F2F720FBC7
:104E700000BF00BF134A02210F48F9F770FE044635
:104E800000BF254625B100BF2846F2F711FB00BF41
:104E900000BF002201210848F9F79DFE044600BF2B
:104EA000254625B100BF2846F2F702FB00BF00BF30
:104EB0007FBD0000154C0300BC42002008750300B4
:104EC000047503001675030070B50D48FAF75AF81B
:104ED000044600BF254625B100BF2846F2F7E8FA90
:104EE00000BF00BF0120F4F765FF044600BF254660
:104EF00025B100BF2846F2F7DBFA00BF00BF70BD46
:104F0000BC42002010B504462046F1F775FE10B9EA
:104F100042F2010010BD1848806868B16009164966
:104F200051F8200004F01F020121914088436109DB
:104F3000114A42F821001CE02046002817DB00F04F
:104F40001F02012191400D4A430942F8231000BF7E
:104F500000BF00BFBFF34F8F00BF00BF00BF00BF47
:104F600000BF00BFBFF36F8F00BF00BF00BF00BF17
:104F700000BF0020CEE700002052002080E100E0CA
:104F800010B504462046F1F737FE10B942F2010091
:104F900010BD2046002803DB1F4A125C520905E0C1
:104FA0001E4A00F00F031B1FD25C5209114608294C
:104FB00004D20120884000F0EC0008B9002000E095
:104FC000012010B942F20200E2E71548806868B19A
:104FD0006009134951F8200004F01F02012191409B
:104FE000084361090E4A42F8210012E020460028D9
:104FF0000DDB00BF00BF00F01F02012191404209FC
:10500000920002F1E022C2F8001100BF00BF00BF11
:1050100000BF0020BCE7000000E400E018ED00E065
:105020002052002070B50446F1F702FE05461448F0
:105030008068D8B901201249886012480068124976
:1050400008400F49086010484FF0E021C1F8800186
:105050000C488038D0F88400094948604FF0FF318F
:105060000848001D01600020207001E00120207030
:105070001DB900BF62B600BF00BF002070BD0000B8
:105080002052002080E100E0FC06FFBD38B5044658
:105090000D4624B1012C1FD0032C38D132E0002062
:1050A000002817DB00F01F0201219140194A430933
:1050B00042F8231000BF00BF00BFBFF34F8F00BFF7
:1050C00000BF00BF00BF00BF00BFBFF36F8F00BFB6
:1050D00000BF00BF00BF1BE0002000906846F2F751
:1050E00083FB0D48007808B9FAF71CF80A48C06835
:1050F000401C0949C860012088709DF80000F2F743
:1051000079FB05E0FCF790F8FAF732F800E000BF11
:1051100000BF38BD80E100E0C0500020FEB505466C
:105120000C496846FBF759FF0DE06846FBF752FF54
:105130000446266828466168B04708B91120FEBDBC
:105140006846FBF76BFF6846FBF744FF0028ECD18D
:1051500000BFF4E7C47A0300FEB505460A49684675
:10516000FBF73BFF0AE06846FBF734FF044626687E
:1051700028466168B0476846FBF750FF6846FBF772
:1051800029FF0028EFD1FEBDE07A03002DE9FE43A0
:1051900004464FF0000804F10C00F7F7BDFC06468A
:1051A0004FF6FF70864204D12088F7F7A1FC06462F
:1051B00003E020883146F7F779FC2088002201219E
:1051C00000F000F94FF6FF7086421AD001AA0721BD
:1051D0003046FDF725FE05469DB9029800F13407DB
:1051E000A07D00F0010058B1387C00F0010030B91A
:1051F00004F10C0107F11200F7F73FFC00B1B846CB
:1052000000BF208800231A46414686DF0546082D48
:105210000AD11849184A891AC908022242EA0140EB
:105220001649FBF7F3F823E0ADB12846FBF764FF1E
:105230000746009623880F490F4A891AC908012298
:1052400042EA01403A460E49FBF706F92088294612
:1052500000F0AAF90CE0A07D00F0010040B1B8F127
:10526000000F05D12088002241F20601F5F7EFFF7B
:10527000BDE8FE839094030050940300448603002D
:10528000BC8403002DE9FC4706460F4690461C46A9
:105290006CB92D492D4A891AC908012242EA0140F8
:1052A0002B4A2CA1FBF7BCF80320BDE8FC8706F5D0
:1052B000807188B26B4601220721FDF713FE054677
:1052C000112D3FD08DB12846FBF716FF81461E49B0
:1052D0001E4A891AC908012242EA014033464A4659
:1052E0002949FBF7A9F803252CE050210198F1F793
:1052F000D6F801980770019834302060C4F80C800B
:105300000198183020610198401C60611F49E161DB
:10531000019800F111013046F7F788FA05468DB182
:105320002846FBF7E9FE81460749084A891AC90859
:10533000022242EA014033464A461549FBF77CF80F
:105340000820B2E72846B0E7909403005094030089
:10535000B8760300496E7465726E616C2065727276
:105360006F723A20257320726563656976656420E3
:105370004E554C4C20666F7220705F7365635F6B97
:1053800065797365742E000060870300A84F0020C4
:10539000F485030010B504462088F3F723FD0128A7
:1053A0000BD1217901F0010109B1012100E00221B5
:1053B0000A462088012100F005F82088211D00F010
:1053C000B9F810BD70B506460D4614462A46104879
:1053D00001783046F3F748FDC5B10CB1012000E07B
:1053E000002002460B4801783046F3F73DFD012CC2
:1053F00001D1012000E00020024607480178304634
:10540000F3F732FD2146304600F062F870BD00002F
:10541000C1400020C2400020C340002010B5044617
:10542000024801782046F3F709FD10BDC140002075
:10543000F8B50446002500261648006808B901257D
:1054400020E06088F3F78AFCE0B100200090207A29
:1054500041089DF8000061F382000090207A9DF8D9
:10546000001060F3C3010091207A81089DF80000CC
:1054700061F3041000906088694600F071FC80F0D0
:10548000010600BF6088012332462946F7F7F4FE83
:105490000746F8BDD040002010B586B004462088ED
:1054A000FFF7BCFF08B106B010BD1422074901A8E0
:1054B000F0F7DCFF2088ADF8060020798DF80C00AD
:1054C00001A8F6F7EDF800BFEDE70000C87603008D
:1054D00030B585B005460C46142206496846F0F7FB
:1054E000C5FFADF802508DF808406846F6F7D8F8C9
:1054F00005B030BD5476030010B586B004461421C3
:1055000001A8F0F7CCFF04208DF80400ADF80640A8
:1055100001A8F6F7C5F806B010BD000010B50446A6
:105520000348806918B1024881692046884710BD48
:10553000444D002030B585B005460C46142206497E
:105540006846F0F793FFADF8025002946846F6F70C
:10555000A7F805B030BD0000A476030010B586B0F2
:1055600004461422054901A8F0F780FFADF8064073
:1055700001A8F6F795F806B010BD00007C76030090
:1055800030B585B005460C46142206496846F0F74A
:105590006DFFADF8045002946846FDF74DFD05B06F
:1055A00030BD00002C76030030B585B005460C46B2
:1055B000142206496846F0F759FFADF802500294EC
:1055C0006846F6F76DF805B030BD00006876030058
:1055D00030B585B004460D46224607216846F8F7E7
:1055E00025FB02956846F6F76FF805B030BD000060
:1055F00030B585B005460C46142206496846F0F7DA
:1056000035FFADF8025002946846F6F76DF805B024
:1056100030BD0000E476030070B505460E46314605
:10562000284675DF044624B1112C02D02046FFF72E
:1056300075FF0CB9012070BD0020FCE72DE9F84F83
:1056400088461546002D35D04FF000090320009004
:1056500000BF08EB09012A460020F1F763F8044671
:10566000A1442D1BFCB91448007800B920E00126A4
:1056700006B90FE000BF4FF47A7707B906E0DFF80C
:105680003CA04FEA871B5846D04700BF701E061E3D
:10569000F1D100BF0098401E0090009818B900207A
:1056A0000549087004E0012003490870002DD0D19D
:1056B00000BF00BFBDE8F88FB8410020A17A030009
:1056C0002DE9FF4180460D46002603A8B3DF0746BB
:1056D000012427E0164903C9CDE9000102A8019081
:1056E000002202A92046B4DF07461FB1384604B0A5
:1056F000BDE8F0813EB9BDF8080042F605218842B8
:1057000001D101260CE05EB1BDF8080042F602119D
:10571000884205D101956A4621464046ADDFE6E75D
:10572000601C84B2BDF80C008442D3DB0520DEE7A8
:105730000C77030010B504462046F6F7D1FF28B1D8
:105740000122034801782046F3F78EFB10BD0000CC
:10575000EE40002010B50022024903480078F3F71C
:105760000DFB10BDF54B0300EE40002030B587B0B7
:10577000234903C9CDE9050139E0002205A92148E3
:105780000088FDF703FD04465CB314216846F0F77A
:1057900086FE1C480088ADF80400112C20D0862C11
:1057A00006D106208DF800006846F5F7B1FF17E036
:1057B0002046FBF7A1FC05461349144A891AC9087B
:1057C000012242EA01400F490B882A461049FAF7A4
:1057D00033FE07208DF8000002946846F5F798FF25
:1057E0000BE008480088FDF73FFC064908800548A3
:1057F00000884FF6FF718842BFD100BF07B030BDAF
:1058000054770300FA400020A8940300509403004A
:10581000748A03002DE9F04186B005460126002771
:105820002846F6F771FF04462046112C1AD005DCF5
:1058300060B1062823D008282ED114E0A0F54050EE
:10584000023840B3A0F2FF3030BB20E014222549DB
:1058500001A8F0F70BFEADF80650012701A8F5F7F7
:1058600043FF2EE02DE005A92846FFF729FF044657
:105870001CB9BDF8140000B123E000BF00BF002632
:105880002846F7F735F98046F6F74EFE19E0284628
:10589000F7F746FE15E014E02046FBF72DFC8046A6
:1058A0001149124A891AC908012242EA01402B46CD
:1058B00042460FA1FAF7C0FD21462846FFF798FEA1
:1058C00000BF00BF32461A4801782846F3F7CCFAE9
:1058D0003A46184801782846F3F7C6FA06B0BDE8FC
:1058E000F081000014770300A0940300509403009B
:1058F0006773636D5F736572766963655F63686123
:105900006E6765645F696E645F73656E64282920E5
:1059100072657475726E656420257320666F7220DF
:10592000636F6E6E5F68616E646C653A202564001B
:10593000EE400020EF4000202DE9F04707460E46DC
:1059400014469A46B86A10B90720BDE8F0874FF0B0
:10595000000836E008EB4801B86A00EB8105A8882A
:1059600000F10209B9F1FE0F01D90C20EDE709F1B0
:105970000100218870542088401C20801620218836
:1059800070542088401C208022889119288801F0BA
:10599000C9F8218808442080A88800280DDDA8685F
:1059A00008B90720D1E7AA8823889819A968F0F7D1
:1059B0005DFD2088A9880844208008F1010000F0DE
:1059C000FF0897F82C004045C4DC0020BDE700002C
:1059D0007CB5002000901148009069461048F8F707
:1059E00038FF044600BF254625B100BF2846F1F721
:1059F0005FFD00BF00BF002001900A48019001A98F
:105A00000948F3F797FE044600BF254625B100BFBD
:105A10002846F1F74DFD00BF00BF7CBD490A0300D9
:105A2000B0440020111A0300244000200246022046
:105A300082F8310092F8240010B10720087001E0CC
:105A400003200870108A88810020C2F8200402F226
:105A500026404860D06888600020704702460120D8
:105A600082F831000020C2F8200402F2264048608B
:105A70000020886002200870802088810020704704
:105A800070B504460D466069A860208BA88194F823
:105A9000240018B1062084F83C0002E0012084F8BC
:105AA0003C00204601F006F978B102202875042157
:105AB0002046F5F799FF064600BF304600B170BD9D
:105AC00000BF052084F8310002E0032084F8310093
:105AD00004F58260C4F820040020F0E770B50446A5
:105AE0000D46E069A860208CA88194F8240018B1C4
:105AF000062084F83C0002E0012084F83C002046A7
:105B000001F0D8F878B10220287504212046F5F775
:105B10006BFF064600BF304600B170BD00BF0620D7
:105B200084F8310002E0042084F8310004F582603A
:105B3000C4F820040020F0E700BF0A7822F00F022A
:105B40000A700A7822F0F0020A7000BF062850D2CC
:105B5000DFE800F0030E1B28354200BF0A7822F070
:105B60000F020A700A7822F0F0020A7000BF40E0CB
:105B700000BF0A7822F00F02521C0A700A7822F045
:105B8000F00210320A7000BF33E000BF0A7822F042
:105B90000F02521C0A700A7822F0F00220320A70BA
:105BA00000BF26E000BF0A7822F00F02521C0A70E4
:105BB0000A7822F0F00230320A7000BF19E000BF0C
:105BC0000A7822F00F02921C0A700A7822F0F00282
:105BD00010320A7000BF0CE000BF0A7822F00F02FA
:105BE000921C0A700A7822F0F00220320A7000BF7C
:105BF00000BF00BF704770B505460020F4F7DAF823
:105C0000044600BF264626B100BF3046F1F750FCDF
:105C100000BF00BF65B9F4F723F8044600BF26466D
:105C200026B100BF3046F1F743FC00BF00BF00E0E3
:105C300000BF00BF012070BD10B50446204600F033
:105C4000C0F80022054906480078F3F797F80022CB
:105C5000044905480078F3F791F810BD612D030061
:105C6000DF400020CDD40200DC4000202DE9F041CF
:105C700007460C4600BF14B90E20BDE8F08100BFF6
:105C80003846F3F7C5F8054615B943F20200F4E7C4
:105C90003846F6F72DFF0646022D01D1012000E01F
:105CA0000020217860F3000121704FF6FF708642DA
:105CB00001D0012000E00020217860F3C3012170B1
:105CC0003846F3F74BF8217860F3410121703846EC
:105CD000F3F778F8217860F3820121703846F3F702
:105CE00061F838B93846F3F739F828B13046F7F794
:105CF00070FA08B1012000E00020217860F304115F
:105D000021700020B9E7000010B5044620780A2869
:105D10000CD004DC082807D0092815D105E00B2891
:105D200005D0132810D100BF00BF00BF00BF002264
:105D3000074908480078F3F721F800220649074888
:105D40000078F3F71BF800E000BF00BF10BD0000B3
:105D5000612D0300DF400020CDD40200DC40002094
:105D6000F8B505460C460948006800906946284683
:105D7000FFF77CFF064620789DF8001020EA010717
:105D800016B90FB90120F8BD0020FCE7E07603004A
:105D900010B504462078052802D012280BD106E061
:105DA00000BF6088A16800F0B5F800BF07E020469A
:105DB000FFF73EFB00BF2046F5F74AFC00BF00BFDF
:105DC00010BD10B50446208819281CD006DC112807
:105DD00009D013280BD014281DD10CE01A2816D096
:105DE0001E2818D10BE0201DF4F77AFF13E0201DC8
:105DF000FFF7D0FA0FE0201DFFF7C8F90BE0201DD8
:105E0000FFF74AFB07E0201DF2F708FA03E0201D28
:105E1000F4F794FD00BF00BF10BD2DE9F04104462A
:105E20000D4616462046F2F7DDFF0746012F08D043
:105E3000022F0BD1324629462046F7F79DFABDE8DE
:105E4000F08129462046F7F75FFBF8E743F20200AE
:105E5000F5E700002DE9F04788B081460D4616466B
:105E60004846F2F7BFFF04460027B846202168469F
:105E7000F0F715FB012C05D1002224480178484693
:105E8000F2F7F2FF24B943F2020008B0BDE8F08750
:105E900015B94FF0850827E04846F6F729FE4FF67A
:105EA000FF7188420ED0012C0CD14846F1F798FAC8
:105EB00040B94846FFF720FB4846F1F791FA08B988
:105EC0004FF08508287800F0010018B903961049B2
:105ED000079109E0B8F1850F06D06B46324621469E
:105EE0004846FFF7CFF9074677B94FF0000A012C73
:105EF00001D1284600E0002082466B4652464146CA
:105F000048467FDF074600BF3846BEE7C440002052
:105F1000A84F0020FEB504460D466846F7F776FE0A
:105F20006A4629462046FCF723FF094806683246A0
:105F300020460099FFF78EFF07460122394620468A
:105F4000F5F768FD39462046009AF5F717FBFEBDC8
:105F5000D840002070B504460D462CB901200349F5
:105F600048700020F4F76EFB70BD0000C0500020A8
:105F700070B51620FEF7C6FF044600BF254625B1C2
:105F800000BF2846F1F794FA00BF00BF70BD70B59E
:105F90001620FEF7F5FF044600BF254625B100BFD9
:105FA0002846F1F785FA00BF00BF70BD10B500BFED
:105FB00000F006F808B1002101770028F8D110BDE3
:105FC00010B50448FBF759F804460CB1204610BD43
:105FD0000020FCE7347803002DE9F05F05460E460B
:105FE00090461F46DDF828904FEA154AF4F794FFD3
:105FF00083464AEA0B42781C00EA09000E4941F840
:10600000202007EA090001EB8004206865F3C50041
:106010002060206868F389102060206866F39F2064
:106020002060206820F00300401C2060206820F0E1
:1060300004002060BDE8F09F7C5500202DE9FC475E
:106040008046894616461C4616480768012201A963
:106050002046F4F78BF8C0B1019800F1020A002540
:1060600009E056F8252050460AF1010A38400E4949
:1060700041F820206D1CA542F3D3009722464946E3
:106080004046019BFFF7A8FF00BF07480C38007887
:1060900030B100BF00BFF9F7B7FF0028FBD100BF48
:1060A000BDE8FC87D44100207C5500202DE9FC414F
:1060B00006460D46144903C9CDE9000100221348E4
:1060C00001783046F2F7D0FE0DB1114800E01148DA
:1060D00001903046F6F70CFD074600226946FDF7B1
:1060E00055F8044674B12046FBF706F807460A49FE
:1060F0000A4A891AC908022242EA01403A46084976
:10610000FAF78EF9BDE8FC8134770300F0400020F7
:106110002C77030030770300A09403005094030011
:10612000408903002DE9F04781460C461546984604
:10613000002608F00100A0B105E0641C761C394679
:106140004846F4F787F82778002FF6D104E06D1E53
:1061500020214846F4F77EF8B5421BD9002DF6D130
:1061600018E01CB12046F0F7C3F9064604E06D1EA6
:1061700020214846F4F76EF8B54201D9002DF6D13A
:1061800005E0641C761C39464846F4F763F8277826
:10619000002FF6D1BDE8F0870246501A20F07F406C
:1061A00070470000F8B531480068401C2F4908606E
:1061B000084600680A21B0FBF1F201FB120000283A
:1061C00052D1F6F7ABF92A490968401A0A284BD38D
:1061D00028480088012844DB00BF2648017826486B
:1061E000F1F7D8FB0646F0F7E7FC2248028822497F
:1061F0002248F3F77DF90546082D0AD0132D08D063
:1062000000BF2E4626B100BF3046F1F751F900BF5E
:1062100000BF18480088009019491A4A891AC9080D
:10622000042242EA014018A1FAF7F0F81E48038858
:106230006A4611491D48F3F73FFA0446082C0CD072
:10624000132C0AD0052C08D000BF264626B100BF6B
:106250003046F1F72DF900BF00BF132DBDD0132C30
:10626000BBD0002003490880F8BD0000604000203A
:10627000484000204C400020F04800208842002088
:106280002895030050940300526561647920746F6F
:106290002073656E642064617461206F766572207E
:1062A000424C45204E5553004240002024400020DF
:1062B00070B50446002517480078012827D104B39B
:1062C000207FF0B1F6F70CF9D4E90223801A994146
:1062D00018D3206908B900202077D4E90510884731
:1062E000206970B1207F60B1D4E90230216959186A
:1062F00040F10000C4E9021021460748FAF7A5FE64
:10630000012504E021460448FAF79FFE01252846AE
:1063100070BD00002C4100203478030070B5F1F707
:106320001FF9044600BF254625B100BF2846F1F7F6
:10633000BFF800BF00BF70BDF8B5064669461F48EC
:106340000068F7F708FF044634E0207820B1012800
:106350000DD0022821D11AE06068007F30B90120F9
:106360006168087716486168FAF76FFE16E015490C
:1063700060680968884203D100201249086005E07E
:106380000F486168FAF785FE054600BF06E0FFF793
:106390000DFE01200C49087000E000BF00BF6946F7
:1063A00006480068F7F7C9FE694604480068F7F731
:1063B000D2FE0446002CC8D1F8BD0000307803009E
:1063C00034780300284100202C410020F8B5054610
:1063D0000E4669460B480068F7F7A1FE04467CB1FB
:1063E00025706660694607480068F7F7C2FE28B165
:1063F00000BF0548F4F77CFE00BF00BF0020F8BDD9
:106400000420FCE73078030020410020704770B57D
:1064100005460C46666910E004E094F8280008B1CF
:10642000002070BD4FF48E712846FAF78CFE0028CC
:10643000F3D02146284600F005F8206AB042EBD39D
:106440000120EEE770B505460C464FF48E712846E4
:10645000FAF780FE216AA068465C206A401C206230
:106460003046C5F81C0500BF70BD7FB504460D461B
:1064700000208DF800000295A06801900020606166
:106480006846D4E9001290477FBD7FB504460D46AB
:1064900000208DF800000295A06801900020606146
:1064A0006846D4E9001290477FBD30B50446108895
:1064B000C01C984201D90C2030BD022015884855D7
:1064C0001088401C10800A20158848551088401CF0
:1064D000108015884C551088401C10800020EBE778
:1064E000F8B50646307820B1012872D0022871D163
:1064F00071E04A494A4A12888818F1F7A7F84848D3
:106500000088401C46490880F6F708F845490860AD
:106510004348008844490988884259DB4349444A32
:10652000891AC908042242EA014042A1F9F76EFF24
:106530003E493F4A891AC908042242EA01403849C3
:106540000A883649F9F7EEFE3548008801283CDD17
:1065500000BF3348028831493F48F2F7C9FF05467A
:10656000082D0AD0132D08D000BF2F4627B100BF39
:106570003846F0F79DFF00BF00BF29480088009013
:106580002A492B4A891AC908042242EA014033A148
:10659000F9F73CFF394803886A4620493848F3F741
:1065A0008BF80446082C0CD0132C0AD0052C08D0EC
:1065B00000BF274627B100BF3846F0F779FF00BF7C
:1065C00000BF132DC5D0132CC3D000201449088060
:1065D00022E010E01FE01549154A891AC908012276
:1065E00042EA014027A1F9F711FF00BF7068F0F7F8
:1065F0005FFF00BF10E00D490D4A891AC90801224A
:1066000042EA01402CA1F9F701FF00BF7068F0F7E2
:106610004FFF00BF00E000BF00BFF8BDF048002002
:106620004C400020484000204040002028950300B6
:1066300050940300526561647920746F2073656E15
:10664000642064617461206F76657220424C45203D
:106650004E5553206300000088420020526561645B
:106660007920746F2073656E642064617461206F9B
:1066700076657220424C45204E5553004240002022
:1066800024400020436F6D6D756E69636174696F9E
:106690006E206572726F72206F63637572726564CB
:1066A000207768696C652068616E646C696E67202C
:1066B000554152542E0000004572726F72206F6374
:1066C00063757272656420696E204649464F206D7D
:1066D0006F64756C6520757365642062792055411F
:1066E00052542E007CB504460E462078002847D030
:1066F000012802D0022856D133E0207A28B901229D
:106700002A492B48F8F792FD4EE060680178294845
:10671000F0F7FDFE054645B101208DF8000001951A
:1067200068462549096888470AE02248F5F7E9F8EC
:1067300030B100208DF8000068461F49096888477D
:106740001C48F5F7DEF81B498988884205D80122E4
:1067500016491748F8F76AFD02E00120174908704A
:1067600022E002208DF80000E068019001220F492C
:106770000F48F8F75BFD68460F490968884713E042
:106780000F491048F0F7A2FE28B901220C49084829
:10679000F8F76EFD06E003208DF800006846064914
:1067A0000968884700E000BF00BF7CBD5D41002054
:1067B0004441002000520020584100205E4100204A
:1067C0005C410020105200207FB504460D462E4645
:1067D00020788DF8000060680190217A8DF808100B
:1067E000E1680391044850F82610044850F8262028
:1067F000684690477FBD0000044100200041002012
:1068000030B58BB01822114905A8EFF72FFE00BF55
:106810000F4801904FF4807002900E4803904FF49F
:106820008070049007230C4A01A905A8F0F738FFEF
:10683000044600BF00BF254625B100BF2846F0F73B
:1068400037FE00BF00BF0BB030BD0000287503004D
:10685000684A0020684B0020E16403002DE9FF41F5
:1068600005460C464FF400712846FAF786FC48B3FB
:106870004FF492712846FAF766FC18B34FF4927100
:106880002846FAF767FC4FF401712846FAF76FFCC7
:1068900094F8290018B904212846FAF777FC022059
:1068A0008DF800002846FAF748FC0390A169029190
:1068B000E06801900020A061E0616846D4E9001220
:1068C000904737E004212846FAF757FC002831D0DA
:1068D0004FF484712846FAF736FC58B3214628460F
:1068E000FEF73CF9616AA069884223D1E06970B182
:1068F000E668676AE069A0612069E0600020E06105
:106900006062324639462046FEF747F912E094F8B5
:10691000290018B904212846FAF738FC4FF4017110
:106920002846FAF724FC0020A061E268616A20464C
:10693000FEF733F94FF48E712846FAF704FCB8B12C
:106940006669206AB04207D294F8280020B921462F
:106950002846FFF777FD0AE04FF48E712846FAF7D4
:10696000F9FB606918B161692046FFF77EFD00BF41
:106970004FF4A2712846FAF7E6FBA0B14FF4A271DA
:106980002846FAF7E7FB94F8290018B100212846B9
:10699000FAF7FCFBA06930B10020A061E268616AEF
:1069A0002046FEF7FAF8BDE8FF8100007FB50446F7
:1069B0000D462E4620788DF8000060680190217AFF
:1069C0008DF80810E1680391044850F82610044837
:1069D00050F82620684690477FBD00000441002003
:1069E000004100202DE9FF4106460C464FF492710C
:1069F0003046FAF7DBFBC8B14FF492713046FAF734
:106A0000DCFB02208DF800003046FAF7C9FB03904A
:106A10003046FAF7E5FB0290E06801900020A061A3
:106A2000E0616846D4E9001290472CE04FF4887189
:106A30003046FAF7BBFB30B34FF488713046FAF7B3
:106A4000BCFB3046FAF7CCFB0546A069A84219D139
:106A5000E06980B1E76820213046FAF7C6FBE069BB
:106A6000A0612069E0600020E0613A4629462046A6
:106A7000FEF7A1F806E00020A06129462046E26862
:106A8000FEF799F800BF4FF4A2713046FAF78EFB7B
:106A900090B14FF4A2713046FAF78FFBA06958B15C
:106AA0000020A061E0613046FAF79AFB05462946CE
:106AB0002046E268FEF77FF84FF490713046FAF70F
:106AC00075FB90B14FF490713046FAF776FB0C21CC
:106AD0003046FAF790FB606938B13046FAF78EFB22
:106AE000054629462046FFF7D0FC4FF4AC713046EE
:106AF000FAF75CFB70B14FF4AC713046FAF75DFB0E
:106B0000606938B13046FAF779FB054629462046D8
:106B1000FFF7BBFCBDE8FF81014608784A7840EAF0
:106B20000220704702460A70100A4870022070471F
:106B300070B504460D4614210448EFF7B0FC044834
:106B40000068F7F7CDFA002070BD0000D452002095
:106B5000547A03002DE9FF4F81B0884616461F4640
:106B6000DDE90E4B45464FF0010A03E0B5FBF6F5B3
:106B70000AF1010AB542F9D2574500D9BA460BF0DD
:106B8000010098B994B10BF00200022803D117B9A3
:106B90003020009001E02020009004E0641EDDE938
:106BA0000010F3F757FB0CB1A245F7D3012509E01C
:106BB000012F01D97F1E04E0B8FBF5F9B14500D2E1
:106BC00001E07543F4E700BF00BFB8FBF5F909FB2E
:106BD00015880D4810F809100198F3F73BFBB5FB39
:106BE000F6F5002DF1D10BF0010048B144B104E0FD
:106BF000641E20210198F3F72DFB0CB1A245F7D3B9
:106C000005B0BDE8F08F00007678030010B50022D3
:106C1000074908480078F2F7B1F804463CB9002269
:106C2000054906480078F2F7A9F8044600BF10BDF0
:106C300061AB0200EC400020C5A20200F040002041
:106C4000F8B506463546A8B2F6F73EF804466CB3EA
:106C5000207A1749097B88420ADAA8B204F10A01AE
:106C6000FEF7DAFC074617B1207A401C20721DE0BF
:106C7000002020720E48007C50B1A8B23B2176DF84
:106C8000074627B1082F02D03846FEF747FC00BF61
:106C90000748406950B100208DF80000A8B2ADF857
:106CA0000200034841696846884700BFF8BD0000FC
:106CB000444D002010B50446607940B194F82E048C
:106CC00028B9204600F0ECF808B1012010BD0020E2
:106CD000FCE7000010B5044621460248F7F7ADFA7C
:106CE00010BD0000604D002070B50446207A80B1D0
:106CF0006088002166DF054615B90020207207E094
:106D0000112D02D10120207202E0284661688847D7
:106D100000BF70BD2DE9FC478046894615469A465E
:106D2000DDE90A675346022249464046CDE900673D
:106D300000F017F8044600BF204608B1BDE8FC8704
:106D400000BF5346102229464046CDE9006700F0B7
:106D500008F8044600BF204600B1EFE700BF00205E
:106D6000ECE72DE9FF5F07468B4696461D460E9CD5
:106D70004FF0000920880390C84647E0786800EB90
:106D8000880000680190002202A901A864DF06467D
:106D900000BF304610B104B0BDE8F09F00BF9DF8C1
:106DA0000800704530D1B9F1000F01D0002000E09B
:106DB0000220009020889DF80810014400980144AA
:106DC0000F98814201DD0C20E5E7B9F1000F0AD1EF
:106DD0002088401C2080208805F800B02088401CB6
:106DE00020804FF001092088421902A901A864DF20
:106DF000064600BF304600B1CDE700BF21889DF8B0
:106E000008000844208000BF08F101083888404588
:106E1000B4DCB9F1000F0DD021880398401C081A8A
:106E20001FFA80FABAF1FF0F01DD0C20B3E70398D7
:106E300005F800A00020AEE710B5044600BF2046CC
:106E4000F8F762FC0028FAD110BD2DE9F0410646A2
:106E50000F46042E22D20FB1032000E00020054689
:106E60003046F2F78DFE044600BF4FF0A0410846C1
:106E700000F5E06151F8241021F4403200F5E061A2
:106E800041F8242051F8241041EA054200F5E06160
:106E900041F8242000BF0020BDE8F0810620FBE778
:106EA000014691F830047047024600207047000008
:106EB0002DE9F84305460E4617469846DDF8209022
:106EC00069460F480068F7F72AF9044614B9042008
:106ED000BDE8F8831C212046EFF7E1FA002020717D
:106EE0002560C4F808902661E760C4F814806946FC
:106EF00003480068F7F73DF9FDF7C8F80020E7E719
:106F0000547A03008178012909D006290AD007297B
:106F100002D008290FD108E0142101800CE00121E2
:106F2000018009E00121018006E04168898809317A
:106F30008908018000E000BF00BF70472DE9FC41D7
:106F400004460025002000900190A0788DF80200F2
:106F5000617A3248FCF790FB06466EB9627A304996
:106F6000304BC91AC908012343EA01402EA1F9F7A1
:106F700057FA0320BDE8FC81237AA178324668469F
:106F8000FCF789F96846FFF7BDFF2088221D694696
:106F9000FCF7FCF8054635B1072D28D0112D0BD094
:106FA000862D25D116E0A07A20F00200A072A07AEA
:106FB00020F00100A0722DE0A07A20F00200801CD9
:106FC000A072A07A20F00100A0720120264908706A
:106FD00000251FE0A07A20F00200A072A07A20F025
:106FE0000100401CA07201201F49087012E011E04E
:106FF0002846FAF781F8074623880949094A891A79
:10700000C908012242EA01403A4618A1F9F714FAE8
:10701000032500BF00BF2846ACE70000E84D002074
:107020008894030050940300706D5F627566666516
:10703000725F7074725F676574282920636F756C66
:1070400064206E6F74207265747269657665205273
:10705000414D206275666665722E20626C6F636BAF
:107060005F69643A20256400B94000207064735F52
:10707000706565725F646174615F73746F726528B7
:10708000292072657475726E65642025732E2070D8
:107090006565725F69643A202564000070B586B04A
:1070A00005462846FFF74AFF044634B34FF6FF7003
:1070B000ADF806002888ADF80800862C03D106201C
:1070C0008DF8040013E007208DF804000394204697
:1070D000FAF712F806462B8809490A4A891AC9089C
:1070E000012242EA014032460749F9F7A5F901A811
:1070F000FBF750FE002006B070BD0120FBE700004A
:1071000088940300509403005C84030070B5044627
:107110000D46164604B970BD00F062F82060206884
:1071200000B9F8E7206805802068867000BFF2E7A4
:10713000F8B506460D46002000906946304600F03E
:107140001DF8044607E00098401C00906946304650
:1071500000F014F804467CB1A078A842F3D1A07ADC
:10716000C0F340000028EED1A07A00F00100002812
:10717000E9D160680028E6D12046F8BD10B5034685
:107180000A4611680DE001EB4100084C34F820007C
:10719000984205D1116001EB410004EB800010BD65
:1071A000491C0429EFD30020F9E70000F84D002026
:1071B000024600210DE001EB4100084B03EB80008B
:1071C0004068904204D101EB410003EB800070471E
:1071D000491C0429EFDB0020F9E70000F84D0020EE
:1071E00010B5FF214FF6FF70FFF7A2FF10BD4FF65D
:1071F000FF710180FF2181704172817A21F00201CB
:107200008172817A21F00101817200210172416055
:107210007047000070B50446002506E0607A2844F7
:10722000C1B20548FCF740FA6D1C207AA842F5D897
:107230002046FFF7DCFF70BDE84D00202DE9FC5F24
:1072400006460D46174698464FF0000BDA4633487F
:10725000007818B948F20160BDE8FC9F15B948F202
:107260000460F9E728884FF6FF71884201D06888EA
:1072700010B948F20360EFE76868F5F79CFF10B9B2
:1072800048F20260E8E767B928891FFA80FA01A985
:10729000504600F0E9F88146B9F1000F05D04846A4
:1072A000DAE738880190B7F802A06846FCF776FC68
:1072B00004463CB9BDF80410504600F0C3F848F24B
:1072C0000760C9E784F800800021A175BDF80410AB
:1072D000A18269682161FDF789F9E060298821812F
:1072E0006888A080A4F806A0B8F1030F03D1042198
:1072F000A1753168A161A4F80AB06846FCF75EFC8C
:1073000046B100207060E06830600020B072044830
:1073100000893081FCF7C8FE00209DE788410020ED
:10732000BC5300202DE9F0410446D4E90510081AA9
:10733000B0F5805F03D2D4E90510081A01E04FF4DC
:10734000805005460C484068B5FBF0F0012804D990
:1073500009484068B5FBF0F000E0012005462169CE
:10736000A0690E18E168A0690F182A463946304610
:1073700029DFBDE8F0810000487A03002DE9F041E3
:1073800007460D46A88A00EB80002B4901EB8006DA
:107390003FB129463046FBF74FFC4FF40640BDE8AD
:1073A000F0813189706800EB8108A87D072838D208
:1073B000DFE800F01224181E042A340000201F49C0
:1073C0004860A86908601E491C48FDF727F810B9F5
:1073D00048F20960E3E700BF41462846FDF7B8F8E8
:1073E000044621E041462846FDF7E4F804461BE048
:1073F00041462846FDF740F9044615E04146284637
:10740000FDF7BCF804460FE00621A9750B49486852
:107410000B490988FDF77CF8044605E041F61D5448
:1074200002E048F20E6400BF00BF1CB1294630469E
:10743000FBF702FC2046B2E794530020CC53002017
:10744000AC41002010B501EB8102064B03EB820238
:107450005389C21C9A1A01EB8103024C04EB83038B
:107460005A8110BD945300202DE9F04107460E4685
:107470004FF00008F81C85B240F2FE30854203DD73
:1074800048F20860BDE8F08100241DE004EB8400B0
:10749000134911F82000A8B929462046FBF7B2FB92
:1074A00080B14FF00108348004EB84000C4901EBFB
:1074B00080004089284404EB8401094A02EB8101E1
:1074C000488103E0601C84B2022CDFDB00BFB8F10E
:1074D000000F01D00020D5E748F20660D2E7000097
:1074E0009453002000000000000000000000000095
:1074F000D843002038430020040000002000000092
:107500000100000000FF0100424C452044657669FF
:107510006365202A0002F11146971B30284A00209B
:107520000738FDD870470000080000000600000082
:1075300005000000070000000000000000E0D70187
:10754000123456000000111213140D0E0F1000001B
:10755000884C0020A84C0020D84C00200D000300CF
:10756000959C02000E000300959C02000F00030092
:10757000959C020010000300959C02000100000091
:1075800000000000000000000000000000000000FB
:1075900000000000000000000000000000000000EB
:1075A00000000000000000000000000000000000DB
:1075B00000000000000000000000000000000000CB
:1075C00000000000000000000000000000000000BB
:1075D00000000000000000000000000000000000AB
:1075E000000000000000000000000000000000009B
:1075F0000000000000000000770A0000000000000A
:10760000770A0000000000007ADA000000000000A5
:10761000000000005DBD020000000000000000004E
:1076200000000000D9BD0200B52D030007000000D6
:10763000000000000000000000000000000000004A
:10764000F5360300095D0300C5C6020045C402000B
:10765000915D030001000000000000000000000038
:107660000000000000000000070000000000000013
:107670000000000000000000000000000600000004
:1076800000000000000000000000000000000000FA
:1076900003000000000000000000000000000000E7
:1076A00000000000050000000000000000000000D5
:1076B00000000000000000007365635F6B65797374
:1076C00065745F66696C6C001200000000000000C9
:1076D00000000000000000000000000085390300E9
:1076E000E0000000070000000000000000000000B3
:1076F0000000000000000000060000000000000084
:107700000000000000000000000000000200000077
:107710000000000010000000000000000000000059
:1077200000000000000000000100FFFF0100000059
:10773000000000000100090000000000110000002E
:107740000000000000000000000000000000000039
:10775000010000000100010050770300000000005C
:10776000010001005C770300E93603001DC402003C
:10777000FB349B5F800000800010000000000000D0
:10778000FB349B5F800000800010000000000000C0
:10779000000000506E7266785F6770696F74655F95
:1077A000696E6974006E7266785F6770696F746580
:1077B0005F6F75745F696E6974006E7266785F677B
:1077C00070696F74655F696E5F696E69740000004F
:1077D0006E7266785F756172745F696E69740000BD
:1077E000E11303006E7266785F756172745F74787E
:1077F000006E7266785F756172745F727800000067
:107800006E7266785F75617274655F696E69740027
:10781000951603006E7266785F75617274655F74A9
:1078200078006E7266785F75617274655F72780059
:10783000F051002000000000404100209DA6020001
:1078400001000600FFFFFFFFFFFFFFFFFFFFFFFF3D
:10785000FFFFFFFF00000000000000000000D60155
:107860000601000000000000000000000000000011
:107870000738FDD870473031323334353637383930
:107880004142434445460000000000000000000063
:1078900084950300889503000000000000000000AC
:1078A00088780300A078030004000000556E6B6E1A
:1078B0006F776E206572726F7220636F646500006F
:1078C00000000000888F030001000000348E0300D8
:1078D00002000000288C030003000000A88E0300B3
:1078E00004000000FC8E030005000000DC8D030096
:1078F00006000000788D030007000000E48E0300FE
:1079000008000000F08D030009000000548E030001
:107910000A000000708F03000B000000108C0300B1
:107920000C000000088E03000D000000D88F03003B
:107930000E000000D48E03000F000000108F030023
:1079400010000000448F030011000000EC8F0300C2
:1079500012000000C08F0300130000005C8F0300C2
:1079600080000000908D030081000000CC8C03009B
:10797000820000008C8C0300830000006C8C0300EC
:1079800084000000A88C030085000000B48D030073
:1079900086000000BC8E030090000000588D03009C
:1079A000910000004C8C0300920000001C8E03002C
:1079B00000820000248F030001820000708E03000B
:1079C000028200008C8E030000840000E88C03001B
:1079D00001840000948F030002840000308D0300B6
:1079E000038400000C8D03006E72665F6673746F13
:1079F000726167655F696E6974006E72665F667357
:107A0000746F726167655F756E696E6974006E721E
:107A1000665F6673746F726167655F72656164004B
:107A20006E72665F6673746F726167655F777269A5
:107A30007465006E72665F6673746F726167655F0E
:107A40006572617365000000001000000400000012
:107A500001000000C452002059CB0200316B03002A
:107A60001D420300B16E030065B20200F949030034
:107A7000A96E030075D0020084530020DEC0ADDE85
:107A8000FF011EF1DEC0ADDEFE011EF10000FFFFB2
:107A900095FE020093FE020089FE02000000000035
:107AA0000738FDD870470000D85400207F00000040
:107AB00058550020F0950300F895030000000000E1
:107AC00000000000B47A0300C47A0300080000003C
:107AD0001896030028960300000000000000000034
:107AE000D07A0300E07A0300080000000896030043
:107AF000189603000000000000000000EC7A03006C
:107B0000FC7A0300080000000010020088950300C2
:107B10009095030090950300D0950300D095030045
:107B2000E8950300E8950300F09503000C7B030043
:107B30002C7B030008000000C8390020F8950300E2
:107B40000896030000000000000000003C7B0300DA
:107B50004C7B030008000000004040404040404093
:107B60004040414141414140404040404040404010
:107B700040404040404040404005020202020202B4
:107B80000202020202020202022020202020202003
:107B90002020200202020202020290909090909017
:107BA00010101010101010101010101010101010D5
:107BB0001010101002020202020288888888888849
:107BC0000808080808080808080808080808080835
:107BD000080808080202020240000000597B030066
:107BE0000A44657369676E6564206279204158456F
:107BF0004E540A41542B424C455F4144563D312F6F
